{
  "address": "0x3e389B4f0691E9DdB597fad8039f7B60d25B3eC1",
  "abi": [
    {
      "anonymous": false,
      "inputs": [
        {
          "indexed": false,
          "internalType": "uint256",
          "name": "fee0",
          "type": "uint256"
        },
        {
          "indexed": false,
          "internalType": "uint256",
          "name": "fee1",
          "type": "uint256"
        }
      ],
      "name": "AlgebraFeesClaimed",
      "type": "event"
    },
    {
      "anonymous": false,
      "inputs": [
        {
          "indexed": false,
          "internalType": "uint256",
          "name": "reward",
          "type": "uint256"
        },
        {
          "indexed": false,
          "internalType": "uint256",
          "name": "bonusReward",
          "type": "uint256"
        }
      ],
      "name": "AlgebraRewardsClaimed",
      "type": "event"
    },
    {
      "anonymous": false,
      "inputs": [
        {
          "indexed": false,
          "internalType": "uint256",
          "name": "loss",
          "type": "uint256"
        },
        {
          "indexed": false,
          "internalType": "uint256",
          "name": "coveredByRewards",
          "type": "uint256"
        }
      ],
      "name": "CoverLoss",
      "type": "event"
    },
    {
      "anonymous": false,
      "inputs": [
        {
          "indexed": false,
          "internalType": "uint256",
          "name": "loss",
          "type": "uint256"
        },
        {
          "indexed": false,
          "internalType": "uint256",
          "name": "profitToCover",
          "type": "uint256"
        },
        {
          "indexed": false,
          "internalType": "uint256",
          "name": "coveredByRewards",
          "type": "uint256"
        }
      ],
      "name": "Rebalanced",
      "type": "event"
    },
    {
      "anonymous": false,
      "inputs": [
        {
          "indexed": false,
          "internalType": "uint256",
          "name": "loss",
          "type": "uint256"
        },
        {
          "indexed": false,
          "internalType": "uint256",
          "name": "profitToCover",
          "type": "uint256"
        },
        {
          "indexed": false,
          "internalType": "uint256",
          "name": "coveredByRewards",
          "type": "uint256"
        }
      ],
      "name": "RebalancedDebt",
      "type": "event"
    },
    {
      "inputs": [
        {
          "internalType": "address",
          "name": "asset",
          "type": "address"
        },
        {
          "internalType": "address",
          "name": "controller",
          "type": "address"
        },
        {
          "internalType": "address[]",
          "name": "rewardTokens",
          "type": "address[]"
        },
        {
          "internalType": "uint256[]",
          "name": "amounts",
          "type": "uint256[]"
        }
      ],
      "name": "calcEarned",
      "outputs": [
        {
          "internalType": "uint256",
          "name": "",
          "type": "uint256"
        }
      ],
      "stateMutability": "view",
      "type": "function"
    },
    {
      "inputs": [
        {
          "internalType": "contract IAlgebraPool",
          "name": "pool",
          "type": "IAlgebraPool"
        },
        {
          "internalType": "int24",
          "name": "lowerTick",
          "type": "int24"
        },
        {
          "internalType": "int24",
          "name": "upperTick",
          "type": "int24"
        },
        {
          "internalType": "bool",
          "name": "depositorSwapTokens",
          "type": "bool"
        }
      ],
      "name": "getEntryDataProportions",
      "outputs": [
        {
          "internalType": "uint256",
          "name": "",
          "type": "uint256"
        },
        {
          "internalType": "uint256",
          "name": "",
          "type": "uint256"
        }
      ],
      "stateMutability": "view",
      "type": "function"
    }
  ],
  "transactionHash": "0xcb0163713860a55d9557be6a7a6d1ec01cdded10d0666f5694f6bd76e0bcaa2d",
  "args": [],
  "numDeployments": 11,
  "solcInputHash": "beebd18f82b76c6876687623c23a6793",
  "bytecode": "0x615da76200003b600b82828239805160001a60731461002e57634e487b7160e01b600052600060045260246000fd5b30600052607381538281f3fe73000000000000000000000000000000000000000030146080604052600436106101095760003560e01c8063a7aced09116100a1578063bd85be2911610070578063bd85be2914610296578063c3724a89146102b6578063d1585fc4146102d6578063f6e26117146102e957600080fd5b8063a7aced0914610215578063b63cd90214610228578063b676262114610248578063b6fda8131461027657600080fd5b806334d2ec3d116100dd57806334d2ec3d146101915780637269cb3a146101a45780638fb5468e146101c7578063911ec053146101e757600080fd5b8062438b7e1461010e57806328f0aec41461013b5780632cc58ef91461015c5780632df3c9a91461016f575b600080fd5b61012161011c366004614949565b610318565b604080519283526020830191909152015b60405180910390f35b61014e6101493660046149a5565b610334565b604051908152602001610132565b61012161016a3660046149a5565b61042b565b81801561017b57600080fd5b5061018f61018a3660046149e0565b6104d3565b005b61014e61019f366004614b40565b610bb9565b6101b76101b2366004614c29565b610d61565b6040519015158152602001610132565b6101da6101d53660046149a5565b611018565b6040516101329190614c94565b8180156101f357600080fd5b50610207610202366004614d27565b611222565b604051610132929190614dd6565b6101da610223366004614e06565b61146a565b81801561023457600080fd5b506101da610243366004614e2b565b611686565b81801561025457600080fd5b50610268610263366004614e6d565b611ed7565b604051610132929190614eb4565b81801561028257600080fd5b506101da610291366004614ed6565b612873565b6102a96102a43660046149a5565b612d4f565b6040516101329190614fa2565b8180156102c257600080fd5b5061018f6102d1366004614fb5565b612e67565b6101b76102e4366004614fed565b612ede565b8180156102f557600080fd5b506103096103043660046149a5565b6135b0565b60405161013293929190615024565b60008061032786868686613e55565b9150915094509492505050565b805460038201546000916001600160a01b03169060ff600160a81b8204169083908190610383908590600160c81b8104600290810b91600160e01b8104820b91600160b01b909104900b614140565b9150915060008061039686858588613e55565b909250905060006103a782846150af565b116040518060400160405280601081526020016f54532d3234207a65726f2076616c756560801b815250906103f85760405162461bcd60e51b81526004016103ef9190614fa2565b60405180910390fd5b5061040381836150af565b61041582670de0b6b3a76400006150c2565b61041f91906150ef565b98975050505050505050565b805460318201546040516308aaf22f60e31b81526000928392735649FE92EF79Ad84cE87905e10eBaabD5b1575C892634557917892610489926001600160a01b0390911691600080516020615d118339815191529190600401615103565b6040805180830381865af41580156104a5573d6000803e3d6000fd5b505050506040513d601f19601f820116820180604052508101906104c99190615127565b9094909350915050565b60006104e56040880160208901615161565b6001600160a01b031614156040518060400160405280601181526020017054532d31207a65726f206164647265737360781b815250906105385760405162461bcd60e51b81526004016103ef9190614fa2565b50600061054b6040880160208901615161565b6001600160a01b0316630dfe16816040518163ffffffff1660e01b8152600401602060405180830381865afa158015610588573d6000803e3d6000fd5b505050506040513d601f19601f820116820180604052508101906105ac919061518e565b905060006105c06040890160208a01615161565b6001600160a01b031663d21220a76040518163ffffffff1660e01b8152600401602060405180830381865afa1580156105fd573d6000803e3d6000fd5b505050506040513d601f19601f82011682018060405250810190610621919061518e565b905061062b614845565b6000735649FE92EF79Ad84cE87905e10eBaabD5b1575C863d0c93a7c6040518163ffffffff1660e01b8152600401602060405180830381865af4158015610676573d6000803e3d6000fd5b505050506040513d601f19601f8201168201806040525081019061069a91906151b6565b90508860020b60001461076a57806106b2818b6151d3565b6106bc919061520d565b60020b8960020b146040518060400160405280601881526020017741532d3320496e636f7272656374207469636b52616e676560401b815250906107135760405162461bcd60e51b81526004016103ef9190614fa2565b508061071f818a6151d3565b610729919061520d565b60020b8860020b14604051806060016040528060218152602001615d5160219139906107685760405162461bcd60e51b81526004016103ef9190614fa2565b505b600281900b825273Af7EA067dc73a59D909ebEb5Fc8fF58b7EfEE7636358817a9861079b60408d0160208e01615161565b6040516001600160e01b031960e084901b1681526001600160a01b03909116600482015260028c810b602483015284900b60448201526064016040805180830381865af41580156107f0573d6000803e3d6000fd5b505050506040513d601f19601f82011682018060405250810190610814919061522d565b836001602002018460028093840b602091909102919091015291900b90528782600360029290920b6020909202015250604080516080810190915273F9a2e80F33DCd31D67afa675b6A31af09cd9430d9063b8b4a449908c90808d60016020020160208101906108849190615161565b6001600160a01b03166001600160a01b031681526020018a6001600160a01b03166001600160a01b03168152602001876001600160a01b03166001600160a01b03168152602001866001600160a01b03166001600160a01b03168152508489896040518663ffffffff1660e01b8152600401610904959493929190615265565b60006040518083038186803b15801561091c57600080fd5b505af4158015610930573d6000803e3d6000fd5b505050506000896000600281106109495761094961514b565b60200201602081019061095c9190615161565b6001600160a01b0316634046ebae6040518163ffffffff1660e01b8152600401602060405180830381865afa158015610999573d6000803e3d6000fd5b505050506040513d601f19601f820116820180604052508101906109bd919061518e565b60405163095ea7b360e01b81529091506001600160a01b0385169063095ea7b3906109f0908490600019906004016152e2565b6020604051808303816000875af1158015610a0f573d6000803e3d6000fd5b505050506040513d601f19601f82011682018060405250810190610a3391906152fb565b5060405163095ea7b360e01b81526001600160a01b0384169063095ea7b390610a64908490600019906004016152e2565b6020604051808303816000875af1158015610a83573d6000803e3d6000fd5b505050506040513d601f19601f82011682018060405250810190610aa791906152fb565b5060405163095ea7b360e01b81526001600160a01b0385169063095ea7b390610ae690600080516020615d1183398151915290600019906004016152e2565b6020604051808303816000875af1158015610b05573d6000803e3d6000fd5b505050506040513d601f19601f82011682018060405250810190610b2991906152fb565b5060405163095ea7b360e01b81526001600160a01b0384169063095ea7b390610b6890600080516020615d1183398151915290600019906004016152e2565b6020604051808303816000875af1158015610b87573d6000803e3d6000fd5b505050506040513d601f19601f82011682018060405250810190610bab91906152fb565b505050505050505050505050565b600080846001600160a01b0316634046ebae6040518163ffffffff1660e01b8152600401602060405180830381865afa158015610bfa573d6000803e3d6000fd5b505050506040513d601f19601f82011682018060405250810190610c1e919061518e565b84519091506000805b82811015610d53576000878281518110610c4357610c4361514b565b60200260200101519050896001600160a01b0316816001600160a01b031603610c9257868281518110610c7857610c7861514b565b602002602001015183610c8b91906150af565b9250610d42565b846001600160a01b031663a9dd14d6898481518110610cb357610cb361514b565b60200260200101518c8a8681518110610cce57610cce61514b565b60200260200101516040518463ffffffff1660e01b8152600401610cf493929190615103565b602060405180830381865afa158015610d11573d6000803e3d6000fd5b505050506040513d601f19601f82011682018060405250810190610d359190615318565b610d3f90846150af565b92505b50610d4c81615331565b9050610c27565b50925050505b949350505050565b815460028301546040805163313ce56760e01b815290516000936001600160a01b0390811693859373DAFAF8466Da28008b20C244f3242B0439922F0189363556ce728939092169163313ce567916004808201926020929091908290030181865afa158015610dd4573d6000803e3d6000fd5b505050506040513d601f19601f82011682018060405250810190610df8919061535b565b6040516001600160e01b031960e084901b16815260ff9091166004820152602401602060405180830381865af4158015610e36573d6000803e3d6000fd5b505050506040513d601f19601f82011682018060405250810190610e5a9190615318565b6003860154604051635620c32d60e11b81526001600160a01b03808616600483015290911660248201529091506000908290735649FE92EF79Ad84cE87905e10eBaabD5b1575C89063ac41865a90604401602060405180830381865af4158015610ec8573d6000803e3d6000fd5b505050506040513d601f19601f82011682018060405250810190610eec9190615318565b610ef691906150c2565b905073F9a2e80F33DCd31D67afa675b6A31af09cd9430d6351265e89878773Af7EA067dc73a59D909ebEb5Fc8fF58b7EfEE76363ecc89419886040518263ffffffff1660e01b8152600401610f4b9190615376565b602060405180830381865af4158015610f68573d6000803e3d6000fd5b505050506040513d601f19601f82011682018060405250810190610f8c91906151b6565b6040516001600160e01b031960e086901b16815260048101939093526001600160a01b03909116602483015260020b604482015260648101849052608401606060405180830381865af4158015610fe7573d6000803e3d6000fd5b505050506040513d601f19601f8201168201806040525081019061100b919061538a565b5090979650505050505050565b604080516002808252606080830184529260208301908036833750508354604080516339db007960e21b815290519394506000936001600160a01b03909216925063e76c01e49160048083019260e09291908290030181865afa158015611083573d6000803e3d6000fd5b505050506040513d601f19601f820116820180604052508101906110a791906153e2565b505050506003860154600480880154604051630544f36560e31b8152959650735649FE92EF79Ad84cE87905e10eBaabD5b1575C895632a279b28955061111994508793600160c81b8104600290810b94600160e01b909204900b92630100000090046001600160801b03169101615471565b6040805180830381865af4158015611135573d6000803e3d6000fd5b505050506040513d601f19601f820116820180604052508101906111599190615127565b8360008151811061116c5761116c61514b565b60200260200101846001815181106111865761118661514b565b6020908102919091010191909152526003830154600160a81b900460ff161561121c57816001815181106111bc576111bc61514b565b6020026020010151826000815181106111d7576111d761514b565b6020026020010151836000815181106111f2576111f261514b565b602002602001018460018151811061120c5761120c61514b565b6020908102919091010191909152525b50919050565b60408051808201825260028401546001600160a01b0390811682526003850154166020820152905163bd13c52960e01b81526000916060918290849073F9a2e80F33DCd31D67afa675b6A31af09cd9430d9063bd13c52990611292908e908e908e908e908a908e906004016154a4565b600060405180830381865af41580156112af573d6000803e3d6000fd5b505050506040513d6000823e601f3d908101601f191682016040526112d791908101906155b6565b91965092509050801561137a5773d046d0428bDD6D5cCf67fE2cbC8d5039c24A8f6a6326eadaa38d8d60046020020160208101906113159190615161565b6040516001600160e01b031960e085901b16815260048101929092526001600160a01b031660248201526044810184905260640160006040518083038186803b15801561136157600080fd5b505af4158015611375573d6000803e3d6000fd5b505050505b6040805182815260208c8101359082015260008183015290517f3715d08a7dcc9d792a5a426f62429b9f889a7b140004f9f85190a48485695cf19181900360600190a160608a0135600114806113dc575060608a013560021480156113dc5750845b1561145b578654600388015461141c916001600160a01b031690600160c81b8104600290810b91600160e01b8104820b91600160b01b909104900b614140565b60038901805465ffffffffffff60c81b1916600160e01b62ffffff9384160262ffffff60c81b191617600160c81b939092169290920217905590925082905b50505097509795505050505050565b606060008360000160009054906101000a90046001600160a01b03166001600160a01b031663e76c01e46040518163ffffffff1660e01b815260040160e060405180830381865afa1580156114c3573d6000803e3d6000fd5b505050506040513d601f19601f820116820180604052508101906114e791906153e2565b50949550600294506114f99350505050565b604051908082528060200260200182016040528015611522578160200160208202803683370190505b506003850154604051630544f36560e31b8152919350735649FE92EF79Ad84cE87905e10eBaabD5b1575C891632a279b289161157c918591600160c81b8104600290810b92600160e01b909204900b908990600401615471565b6040805180830381865af4158015611598573d6000803e3d6000fd5b505050506040513d601f19601f820116820180604052508101906115bc9190615127565b836000815181106115cf576115cf61514b565b60200260200101846001815181106115e9576115e961514b565b6020908102919091010191909152526003840154600160a81b900460ff161561167f578160018151811061161f5761161f61514b565b60200260200101518260008151811061163a5761163a61514b565b6020026020010151836000815181106116555761165561514b565b602002602001018460018151811061166f5761166f61514b565b6020908102919091010191909152525b5092915050565b6040805160808101825260008082526020820181905281830181905260608083019190915282516002808252818301909452909281602001602082028036833750505060018601546001600160a01b03168252915060006116e68661416a565b60048701546001600160801b0363010000009091048116602080860182905260408051808201909152601481527341532d372057726f6e67206c697175696469747960601b9181019190915292935090871611156117575760405162461bcd60e51b81526004016103ef9190614fa2565b506031860154846117e2576040516307cf0b0f60e31b8152600080516020615d3183398151915290633e78587890611795908590859060040161564d565b60408051808303816000875af11580156117b3573d6000803e3d6000fd5b505050506040513d601f19601f820116820180604052508101906117d79190615127565b606085015260408401525b600080516020615d318339815191526334267cbc6117ff8961416a565b896031015460006040518463ffffffff1660e01b815260040161182493929190615668565b600060405180830381600087803b15801561183e57600080fd5b505af1158015611852573d6000803e3d6000fd5b50505050846119cd576040830151156119145760328701546040808501519051633f46232960e21b81526001600160a01b0390921691600080516020615d318339815191529163fd188ca4916118b1918591309160009160040161568c565b6020604051808303816000875af11580156118d0573d6000803e3d6000fd5b505050506040513d601f19601f820116820180604052508101906118f49190615318565b604085018190528451611912916001600160a01b03841691906141e0565b505b6060830151156119cd5760338701546060840151604051633f46232960e21b81526001600160a01b0390921691600080516020615d318339815191529163fd188ca49161196a918591309160009160040161568c565b6020604051808303816000875af1158015611989573d6000803e3d6000fd5b505050506040513d601f19601f820116820180604052508101906119ad9190615318565b6060850181905284516119cb916001600160a01b03841691906141e0565b505b604051633c423f0b60e01b8152600481018290523060248201526060604482015260006064820152600080516020615d3183398151915290633c423f0b90608401600060405180830381600087803b158015611a2857600080fd5b505af1158015611a3c573d6000803e3d6000fd5b50506040805160a0810182528481526001600160801b038a81166020830190815260008385018181526060850191825242608086019081529551630624e65f60e11b8152945160048601529151909216602484015251604483015251606482015290516084820152600080516020615d118339815191529250630c49ccbe915060a40160408051808303816000875af1158015611add573d6000803e3d6000fd5b505050506040513d601f19601f82011682018060405250810190611b019190615127565b85600081518110611b1457611b1461514b565b6020026020010186600181518110611b2e57611b2e61514b565b602090810291909101810192909252919091526040805160808101825283815230928101929092526001600160801b0382820181905260608301525163fc6f786560e01b81526000918291600080516020615d118339815191529163fc6f786591611b9c91906004016156b5565b60408051808303816000875af1158015611bba573d6000803e3d6000fd5b505050506040513d601f19601f82011682018060405250810190611bde9190615127565b91509150600086600081518110611bf757611bf761514b565b60200260200101518311611c0c576000611c32565b86600081518110611c1f57611c1f61514b565b602002602001015183611c3291906156f8565b9050600087600181518110611c4957611c4961514b565b60200260200101518311611c5e576000611c84565b87600181518110611c7157611c7161514b565b602002602001015183611c8491906156f8565b60408051848152602081018390529192507f15097721483fb2e62f76b9953e3601b26e7cc79208a0191df6fa701c6148744d910160405180910390a160038b0154600160a81b900460ff1615611d485787600181518110611ce757611ce761514b565b602002602001015188600081518110611d0257611d0261514b565b602002602001015189600081518110611d1d57611d1d61514b565b602002602001018a600181518110611d3757611d3761514b565b602090810291909101019190915252905b8115611d6b57865160028c0154611d6b916001600160a01b0390911690846141e0565b8015611d8e57865160038c0154611d8e916001600160a01b0390911690836141e0565b505050508583602001818151611da4919061570b565b6001600160801b03908116909152602085015160048a01805472ffffffffffffffffffffffffffffffff000000191663010000009290931691820292909217909155159050611ecd57604051632142170760e11b8152600080516020615d11833981519152906342842e0e90611e30903090600080516020615d31833981519152908690600401615103565b600060405180830381600087803b158015611e4a57600080fd5b505af1158015611e5e573d6000803e3d6000fd5b5050604051631143967160e11b8152600080516020615d3183398151915292506322872ce29150611e9a9085908590600090819060040161572b565b600060405180830381600087803b158015611eb457600080fd5b505af1158015611ec8573d6000803e3d6000fd5b505050505b5050509392505050565b6040805160a081018252600384015460ff600160a81b8204161515808352600060208401819052603187015494840194909452600160c81b8204600290810b606085810191909152600160e01b909304900b60808401529092919082908190611f5657600287015460038801546001600160a01b039182169116611f6e565b600387015460028801546001600160a01b0391821691165b8451919350915015611fed5785600181518110611f8d57611f8d61514b565b602002602001015186600081518110611fa857611fa861514b565b602002602001015187600081518110611fc357611fc361514b565b6020026020010188600181518110611fdd57611fdd61514b565b6020908102919091010191909152525b604080516002808252606082018352909160208301908036833750505060408401519095501561213657604083810151905163133f757160e31b815260048101919091526000908190600080516020615d11833981519152906399fbab889060240161016060405180830381865afa15801561206d573d6000803e3d6000fd5b505050506040513d601f19601f820116820180604052508101906120919190615762565b50505050509550955050505050846060015160020b8260020b1415806120c15750846080015160020b8160020b14155b15612133576040858101519051630852cd8d60e31b81526004810191909152600080516020615d11833981519152906342966c6890602401600060405180830381600087803b15801561211357600080fd5b505af1158015612127573d6000803e3d6000fd5b50506000604088015250505b50505b60006121418861416a565b9050836040015160000361234a57600080516020615d118339815191526001600160a01b0316639cc1a283604051806101400160405280866001600160a01b03168152602001856001600160a01b03168152602001876060015160020b8152602001876080015160020b81526020018a6000815181106121c3576121c361514b565b602002602001015181526020018a6001815181106121e3576121e361514b565b602002602001015181526020016000815260200160008152602001306001600160a01b03168152602001428152506040518263ffffffff1660e01b815260040161222d9190615839565b6080604051808303816000875af115801561224c573d6000803e3d6000fd5b505050506040513d601f19601f8201168201806040525081019061227091906158e4565b87604001886020018b60008151811061228b5761228b61514b565b602002602001018c6001815181106122a5576122a561514b565b6020908102919091010193909352929091526001600160801b0390921690525260408085015160318a018190559051632142170760e11b8152600080516020615d11833981519152916342842e0e91612313913091600080516020615d318339815191529190600401615103565b600060405180830381600087803b15801561232d57600080fd5b505af1158015612341573d6000803e3d6000fd5b5050505061279e565b600080516020615d118339815191526001600160a01b031663219f5d176040518060c00160405280876040015181526020018a60008151811061238f5761238f61514b565b602002602001015181526020018a6001815181106123af576123af61514b565b602002602001015181526020016000815260200160008152602001428152506040518263ffffffff1660e01b81526004016124299190600060c082019050825182526020830151602083015260408301516040830152606083015160608301526080830151608083015260a083015160a083015292915050565b6060604051808303816000875af1158015612448573d6000803e3d6000fd5b505050506040513d601f19601f8201168201806040525081019061246c9190615922565b86602001896000815181106124835761248361514b565b602002602001018a60018151811061249d5761249d61514b565b60209081029190910101929092529190526001600160801b03918216905260048901546301000000900416156127245760408085015190516307cf0b0f60e31b81526000918291600080516020615d3183398151915291633e7858789161250891879160040161564d565b60408051808303816000875af1158015612526573d6000803e3d6000fd5b505050506040513d601f19601f8201168201806040525081019061254a9190615127565b6040808901519051630d099f2f60e21b8152929450909250600080516020615d31833981519152916334267cbc9161258a91879190600090600401615668565b600060405180830381600087803b1580156125a457600080fd5b505af11580156125b8573d6000803e3d6000fd5b5050505060018a01546001600160a01b031682156126745760328b0154604051633f46232960e21b81526001600160a01b0390911690600080516020615d318339815191529063fd188ca49061261990849030906000908a9060040161568c565b6020604051808303816000875af1158015612638573d6000803e3d6000fd5b505050506040513d601f19601f8201168201806040525081019061265c9190615318565b93506126726001600160a01b03821683866141e0565b505b811561271c5760338b0154604051633f46232960e21b81526001600160a01b0390911690600080516020615d318339815191529063fd188ca4906126c39084903090600090899060040161568c565b6020604051808303816000875af11580156126e2573d6000803e3d6000fd5b505050506040513d601f19601f820116820180604052508101906127069190615318565b92506123416001600160a01b03821683856141e0565b50505061279e565b6040808501519051632142170760e11b8152600080516020615d11833981519152916342842e0e9161276b913091600080516020615d318339815191529190600401615103565b600060405180830381600087803b15801561278557600080fd5b505af1158015612799573d6000803e3d6000fd5b505050505b6040808501519051631143967160e11b8152600080516020615d31833981519152916322872ce2916127d9918591600090819060040161572b565b600060405180830381600087803b1580156127f357600080fd5b505af1158015612807573d6000803e3d6000fd5b505050506020840151600489018054600390612834908490630100000090046001600160801b0316615959565b92506101000a8154816001600160801b0302191690836001600160801b0316021790555083602001516001600160801b03169450505050509250929050565b606061287d614863565b6128958161288e60208b018b615161565b8b8661423b565b61014081015160408083015160038c01549151635620c32d60e11b81526001600160a01b03918216600482015291166024820152735649FE92EF79Ad84cE87905e10eBaabD5b1575C89063ac41865a90604401602060405180830381865af4158015612905573d6000803e3d6000fd5b505050506040513d601f19601f820116820180604052508101906129299190615318565b61293391906150c2565b610120820152604080820151905163ecc8941960e01b8152600091829173Af7EA067dc73a59D909ebEb5Fc8fF58b7EfEE7639163ecc89419916129799190600401615376565b602060405180830381865af4158015612996573d6000803e3d6000fd5b505050506040513d601f19601f820116820180604052508101906129ba91906151b6565b60208401516101208501516040516351265e8960e01b8152600481018f90526001600160a01b039092166024830152600283900b6044830152606482015290915073F9a2e80F33DCd31D67afa675b6A31af09cd9430d906351265e8990608401606060405180830381865af4158015612a37573d6000803e3d6000fd5b505050506040513d601f19601f82011682018060405250810190612a5b919061538a565b8560e0018661010001826003811115612a7657612a76615979565b6003811115612a8757612a87615979565b90529115159091525091508115612b0d5773F9a2e80F33DCd31D67afa675b6A31af09cd9430d634aa009158c8560e001518661010001516040518463ffffffff1660e01b8152600401612adc9392919061598f565b60006040518083038186803b158015612af457600080fd5b505af4158015612b08573d6000803e3d6000fd5b505050505b851580612b175750815b604051806040016040528060188152602001771054cb4e48139bc81c9958985b185b98d9481b995959195960421b81525090612b665760405162461bcd60e51b81526004016103ef9190614fa2565b508115612d405773Af7EA067dc73a59D909ebEb5Fc8fF58b7EfEE76363e4ee4bf78b8d8b8d8c8960c00151886040518863ffffffff1660e01b8152600401612bb497969594939291906159f3565b60006040518083038186803b158015612bcc57600080fd5b505af4158015612be0573d6000803e3d6000fd5b50505050600073d046d0428bDD6D5cCf67fE2cbC8d5039c24A8f6a63ac2a37d685602001518c876060015188608001518960c001516040518663ffffffff1660e01b8152600401612c35959493929190615a79565b600060405180830381865af4158015612c52573d6000803e3d6000fd5b505050506040513d6000823e601f3d908101601f19168201604052612c7a9190810190615aad565b955090508015612cfe576040516326eadaa360e01b8152600481018e90526001600160a01b03891660248201526044810182905273d046d0428bDD6D5cCf67fE2cbC8d5039c24A8f6a906326eadaa39060640160006040518083038186803b158015612ce557600080fd5b505af4158015612cf9573d6000803e3d6000fd5b505050505b60408051828152602081018b905260008183015290517f83387a3342ff1ebc5e437dc9ae0f98274afda12a11cf547eebec05a3e0b8f8a79181900360600190a1505b50505098975050505050505050565b6002810154604080516395d89b4160e01b815290516060926001600160a01b0316916395d89b419160048083019260009291908290030181865afa158015612d9b573d6000803e3d6000fd5b505050506040513d6000823e601f3d908101601f19168201604052612dc39190810190615aea565b8260030160009054906101000a90046001600160a01b03166001600160a01b03166395d89b416040518163ffffffff1660e01b8152600401600060405180830381865afa158015612e18573d6000803e3d6000fd5b505050506040513d6000823e601f3d908101601f19168201604052612e409190810190615aea565b604051602001612e51929190615b61565b6040516020818303038152906040529050919050565b612e746020820182615161565b6032830180546001600160a01b0319166001600160a01b0392909216919091179055612ea66040820160208301615161565b6033830180546001600160a01b0319166001600160a01b03929092169190911790556060810135603483015560800135603590910155565b6040805160c0810182526000918101829052606081018290526080810182905260a0810182905260028501546001600160a01b03908116825260038601548116602083015260018601546004870154911690630100000090046001600160801b0316156132c357603286015460338701546001600160a01b0391821691166000612f678961416a565b9050600080600080516020615d318339815191526001600160a01b031663de2356d16040518163ffffffff1660e01b8152600401602060405180830381865afa158015612fb8573d6000803e3d6000fd5b505050506040513d601f19601f82011682018060405250810190612fdc919061518e565b6001600160a01b031663704972f4848d603101546040518363ffffffff1660e01b815260040161300d92919061564d565b6040805180830381865afa158015613029573d6000803e3d6000fd5b505050506040513d601f19601f8201168201806040525081019061304d9190615127565b6040516370a0823160e01b815291935091506001600160a01b038616906370a082319061307e908990600401615376565b602060405180830381865afa15801561309b573d6000803e3d6000fd5b505050506040513d601f19601f820116820180604052508101906130bf9190615318565b6130c990836150af565b6040516370a0823160e01b81529092506001600160a01b038516906370a08231906130f8908990600401615376565b602060405180830381865afa158015613115573d6000803e3d6000fd5b505050506040513d601f19601f820116820180604052508101906131399190615318565b61314390826150af565b90506000896001600160a01b0316634046ebae6040518163ffffffff1660e01b8152600401602060405180830381865afa158015613185573d6000803e3d6000fd5b505050506040513d601f19601f820116820180604052508101906131a9919061518e565b905082156132285787516040516354ee8a6b60e11b81526001600160a01b0383169163a9dd14d6916131e1918a918890600401615103565b602060405180830381865afa1580156131fe573d6000803e3d6000fd5b505050506040513d601f19601f820116820180604052508101906132229190615318565b60408901525b6060880151156132a95787516040516354ee8a6b60e11b81526001600160a01b0383169163a9dd14d6916132629189918790600401615103565b602060405180830381865afa15801561327f573d6000803e3d6000fd5b505050506040513d601f19601f820116820180604052508101906132a39190615318565b60608901525b6132b28c61042b565b60a08a015260808901525050505050505b6003860154600160a81b900460ff16156132e95760a08201805160808401805190925290525b81516040516370a0823160e01b81526001600160a01b03909116906370a0823190613318908490600401615376565b602060405180830381865afa158015613335573d6000803e3d6000fd5b505050506040513d601f19601f820116820180604052508101906133599190615318565b8260800181815161336a91906150af565b90525060208201516040516370a0823160e01b81526001600160a01b03909116906370a082319061339f908490600401615376565b602060405180830381865afa1580156133bc573d6000803e3d6000fd5b505050506040513d601f19601f820116820180604052508101906133e09190615318565b8260a0018181516133f191906150af565b90525060006133ff86614432565b835160405163b3596f0760e01b81529192506000916001600160a01b0384169163b3596f07916134329190600401615376565b602060405180830381865afa15801561344f573d6000803e3d6000fd5b505050506040513d601f19601f820116820180604052508101906134739190615318565b90506000826001600160a01b031663b3596f0786602001516040518263ffffffff1660e01b81526004016134a79190615376565b602060405180830381865afa1580156134c4573d6000803e3d6000fd5b505050506040513d601f19601f820116820180604052508101906134e89190615318565b90506000670de0b6b3a764000083876080015161350591906150c2565b61350f91906150ef565b90506000670de0b6b3a7640000838860a0015161352c91906150c2565b61353691906150ef565b905060648211806135475750606481115b8061357457506064670de0b6b3a764000085896040015161356891906150c2565b61357291906150ef565b115b806135a157506064670de0b6b3a764000085896060015161359591906150c2565b61359f91906150ef565b115b9b9a5050505050505050505050565b6001810154603182015460408051600480825260a08201909252606093849384936001600160a01b0390921692909160208201608080368337505050600287015481519196506001600160a01b03169086906000906136115761361161514b565b6001600160a01b03928316602091820292909201015260038701548651911690869060019081106136445761364461514b565b6001600160a01b03928316602091820292909201015260328701548651911690869060029081106136775761367761514b565b6001600160a01b03928316602091820292909201015260338701548651911690869060039081106136aa576136aa61514b565b6001600160a01b039290921660209283029190910182015260408051600480825260a0820190925291820160808036833701905050925060005b85518110156137a2578581815181106136ff576136ff61514b565b60200260200101516001600160a01b03166370a08231306040518263ffffffff1660e01b81526004016137329190615376565b602060405180830381865afa15801561374f573d6000803e3d6000fd5b505050506040513d601f19601f820116820180604052508101906137739190615318565b8482815181106137855761378561514b565b60209081029190910101528061379a81615331565b9150506136e4565b5060408051600480825260a0820190925290602082016080803683370190505093506000811180156137e757506004860154630100000090046001600160801b031615155b15613ce657604080516080810182528281523060208201526001600160801b038183018190526060820152905163fc6f786560e01b8152600080516020615d318339815191529163fc6f78659161384191906004016156b5565b60408051808303816000875af115801561385f573d6000803e3d6000fd5b505050506040513d601f19601f820116820180604052508101906138839190615127565b856000815181106138965761389661514b565b60200260200101866001815181106138b0576138b061514b565b60200260200101828152508281525050507f15097721483fb2e62f76b9953e3601b26e7cc79208a0191df6fa701c6148744d846000815181106138f5576138f561514b565b6020026020010151856001815181106139105761391061514b565b602002602001015160405161392f929190918252602082015260400190565b60405180910390a16003860154600160a81b900460ff16156139be578360018151811061395e5761395e61514b565b6020026020010151846000815181106139795761397961514b565b6020026020010151856000815181106139945761399461514b565b60200260200101866001815181106139ae576139ae61514b565b6020908102919091010191909152525b600080516020615d31833981519152633e7858786139db8861416a565b836040518363ffffffff1660e01b81526004016139f992919061564d565b60408051808303816000875af1158015613a17573d6000803e3d6000fd5b505050506040513d601f19601f82011682018060405250810190613a3b9190615127565b85600281518110613a4e57613a4e61514b565b6020026020010186600381518110613a6857613a6861514b565b6020026020010182815250828152505050600084600281518110613a8e57613a8e61514b565b60200260200101511115613b7457600080516020615d318339815191526001600160a01b031663fd188ca486600281518110613acc57613acc61514b565b602002602001015130600088600281518110613aea57613aea61514b565b60200260200101516040518563ffffffff1660e01b8152600401613b11949392919061568c565b6020604051808303816000875af1158015613b30573d6000803e3d6000fd5b505050506040513d601f19601f82011682018060405250810190613b549190615318565b84600281518110613b6757613b6761514b565b6020026020010181815250505b600084600381518110613b8957613b8961514b565b60200260200101511115613c6f57600080516020615d318339815191526001600160a01b031663fd188ca486600381518110613bc757613bc761514b565b602002602001015130600088600381518110613be557613be561514b565b60200260200101516040518563ffffffff1660e01b8152600401613c0c949392919061568c565b6020604051808303816000875af1158015613c2b573d6000803e3d6000fd5b505050506040513d601f19601f82011682018060405250810190613c4f9190615318565b84600381518110613c6257613c6261514b565b6020026020010181815250505b7f2f1396dffa36013d7e1df1ec39cb355b5ff604d56e817a88ed2a0d40995adcb884600281518110613ca357613ca361514b565b602002602001015185600381518110613cbe57613cbe61514b565b6020026020010151604051613cdd929190918252602082015260400190565b60405180910390a15b60005b8551811015613e4b576000868281518110613d0657613d0661514b565b60200260200101516001600160a01b03166370a08231856040518263ffffffff1660e01b8152600401613d399190615376565b602060405180830381865afa158015613d56573d6000803e3d6000fd5b505050506040513d601f19601f82011682018060405250810190613d7a9190615318565b90508015613e3a57868281518110613d9457613d9461514b565b60200260200101516001600160a01b03166323b872dd8530846040518463ffffffff1660e01b8152600401613dcb93929190615103565b6020604051808303816000875af1158015613dea573d6000803e3d6000fd5b505050506040513d601f19601f82011682018060405250810190613e0e91906152fb565b5080868381518110613e2257613e2261514b565b60200260200101818151613e3691906150af565b9052505b50613e4481615331565b9050613ce9565b5050509193909250565b6000806000866001600160a01b031663d21220a76040518163ffffffff1660e01b8152600401602060405180830381865afa158015613e98573d6000803e3d6000fd5b505050506040513d601f19601f82011682018060405250810190613ebc919061518e565b604051635620c32d60e11b81526001600160a01b03808a16600483015282166024820152909150600090735649FE92EF79Ad84cE87905e10eBaabD5b1575C89063ac41865a90604401602060405180830381865af4158015613f22573d6000803e3d6000fd5b505050506040513d601f19601f82011682018060405250810190613f469190615318565b90506000826001600160a01b031663313ce5676040518163ffffffff1660e01b8152600401602060405180830381865afa158015613f88573d6000803e3d6000fd5b505050506040513d601f19601f82011682018060405250810190613fac919061535b565b60ff169050816000613fbf83600a615c95565b60408051808201909152601081526f54532d3234207a65726f2076616c756560801b6020820152909150816140075760405162461bcd60e51b81526004016103ef9190614fa2565b506040516305f08b0f60e21b81526001600160a01b038c16600482015260028b810b60248301528a900b604482015260648101839052608481018290526000908190735649FE92EF79Ad84cE87905e10eBaabD5b1575C8906317c22c3c9060a401606060405180830381865af4158015614085573d6000803e3d6000fd5b505050506040513d601f19601f820116820180604052508101906140a99190615ca1565b5091509150896140f2576140c582670de0b6b3a76400006150c2565b83876140d984670de0b6b3a76400006150c2565b6140e391906150c2565b6140ed91906150ef565b61412c565b828661410683670de0b6b3a76400006150c2565b61411091906150c2565b61411a91906150ef565b61412c83670de0b6b3a76400006150c2565b985098505050505050505094509492505050565b600080600061414e876144fd565b905061415c8187878761456e565b925092505094509492505050565b6040805160a081018252600080825260208201819052918101829052606081018290526080810191909152506040805160a08101825260328301546001600160a01b0390811682526033840154811660208301528354169181019190915260348201546060820152603590910154608082015290565b6142368363a9059cbb60e01b84846040516024016141ff9291906152e2565b60408051601f198184030181529190526020810180516001600160e01b03166001600160e01b031990931692909217909152614638565b505050565b81546001600160a01b0316604080860191909152805160608101909152600583018054829060ff16600381111561427457614274615979565b600381111561428557614285615979565b815260408051608081019182905260209092019190600184019060049082845b8154815260200190600101908083116142a557505050918352505060408051608081019182905260209092019190600584019060049082845b8154815260200190600101908083116142de575050509190925250505084526001600160a01b03838116602080870191909152600284015482166060870181905260038501549283166080880152600160a01b90920460ff16151560a0870152600091825282905260409020546143549061470a565b60c08501515260808401516001600160a01b03166000908152602082905260409020546143809061470a565b60c08501516001602002018181525050600084606001516001600160a01b031663313ce5676040518163ffffffff1660e01b8152600401602060405180830381865afa1580156143d4573d6000803e3d6000fd5b505050506040513d601f19601f820116820180604052508101906143f8919061535b565b60ff1690506012811061440c576001614422565b6144178160126156f8565b61442290600a615c95565b6101409095019490945250505050565b6000816001600160a01b031663f77c47916040518163ffffffff1660e01b8152600401602060405180830381865afa158015614472573d6000803e3d6000fd5b505050506040513d601f19601f82011682018060405250810190614496919061518e565b6001600160a01b0316632630c12f6040518163ffffffff1660e01b8152600401602060405180830381865afa1580156144d3573d6000803e3d6000fd5b505050506040513d601f19601f820116820180604052508101906144f7919061518e565b92915050565b6000816001600160a01b031663e76c01e46040518163ffffffff1660e01b815260040160e060405180830381865afa15801561453d573d6000803e3d6000fd5b505050506040513d601f19601f8201168201806040525081019061456191906153e2565b5093979650505050505050565b6000808061457c8686615ccf565b905060008460020b8260020b1461459d576145986002836151d3565b6145a0565b60005b60405163cd8e20e760e01b815260028a810b600483015282810b602483015287900b604482015290915073F9a2e80F33DCd31D67afa675b6A31af09cd9430d9063cd8e20e7906064016040805180830381865af4158015614605573d6000803e3d6000fd5b505050506040513d601f19601f82011682018060405250810190614629919061522d565b93509350505094509492505050565b600061468d826040518060400160405280602081526020017f5361666545524332303a206c6f772d6c6576656c2063616c6c206661696c6564815250856001600160a01b03166147229092919063ffffffff16565b80519091501561423657808060200190518101906146ab91906152fb565b6142365760405162461bcd60e51b815260206004820152602a60248201527f5361666545524332303a204552433230206f7065726174696f6e20646964206e6044820152691bdd081cdd58d8d9595960b21b60648201526084016103ef565b6000811561471857816144f7565b620186a092915050565b6060610d59848460008585600080866001600160a01b031685876040516147499190615cf4565b60006040518083038185875af1925050503d8060008114614786576040519150601f19603f3d011682016040523d82523d6000602084013e61478b565b606091505b509150915061479c878383876147a7565b979650505050505050565b6060831561481657825160000361480f576001600160a01b0385163b61480f5760405162461bcd60e51b815260206004820152601d60248201527f416464726573733a2063616c6c20746f206e6f6e2d636f6e747261637400000060448201526064016103ef565b5081610d59565b610d59838381511561482b5781518083602001fd5b8060405162461bcd60e51b81526004016103ef9190614fa2565b60405180608001604052806004906020820280368337509192915050565b6040518061016001604052806148776148c9565b815260006020820181905260408201819052606082018190526080820181905260a082015260c0016148a76148f6565b8152600060208201819052604082018190526060820181905260809091015290565b604080516060810190915280600081526020016148e4614845565b81526020016148f1614845565b905290565b60405180604001604052806002906020820280368337509192915050565b6001600160a01b038116811461492957600080fd5b50565b8060020b811461492957600080fd5b801515811461492957600080fd5b6000806000806080858703121561495f57600080fd5b843561496a81614914565b9350602085013561497a8161492c565b9250604085013561498a8161492c565b9150606085013561499a8161493b565b939692955090935050565b6000602082840312156149b757600080fd5b5035919050565b80604081018310156144f757600080fd5b80608081018310156144f757600080fd5b6000806000806000806000610160888a0312156149fc57600080fd5b87359650614a0d8960208a016149be565b95506060880135614a1d8161492c565b94506080880135614a2d8161492c565b935060a0880135614a3d81614914565b925060c0880135614a4d8161493b565b9150614a5c8960e08a016149cf565b905092959891949750929550565b634e487b7160e01b600052604160045260246000fd5b604051601f8201601f1916810167ffffffffffffffff81118282101715614aa957614aa9614a6a565b604052919050565b600067ffffffffffffffff821115614acb57614acb614a6a565b5060051b60200190565b600082601f830112614ae657600080fd5b81356020614afb614af683614ab1565b614a80565b82815260059290921b84018101918181019086841115614b1a57600080fd5b8286015b84811015614b355780358352918301918301614b1e565b509695505050505050565b60008060008060808587031215614b5657600080fd5b8435614b6181614914565b9350602085810135614b7281614914565b9350604086013567ffffffffffffffff80821115614b8f57600080fd5b818801915088601f830112614ba357600080fd5b8135614bb1614af682614ab1565b81815260059190911b8301840190848101908b831115614bd057600080fd5b938501935b82851015614bf7578435614be881614914565b82529385019390850190614bd5565b965050506060880135925080831115614c0f57600080fd5b5050614c1d87828801614ad5565b91505092959194509250565b60008060408385031215614c3c57600080fd5b823591506020830135614c4e81614914565b809150509250929050565b600081518084526020808501945080840160005b83811015614c8957815187529582019590820190600101614c6d565b509495945050505050565b602081526000614ca76020830184614c59565b9392505050565b600067ffffffffffffffff821115614cc857614cc8614a6a565b50601f01601f191660200190565b600082601f830112614ce757600080fd5b8135614cf5614af682614cae565b818152846020838601011115614d0a57600080fd5b816020850160208301376000918101602001919091529392505050565b60008060008060008060006101c0888a031215614d4357600080fd5b8735965060c0880189811115614d5857600080fd5b602089019650614d688a826149cf565b95505061014088013567ffffffffffffffff80821115614d8757600080fd5b614d938b838c01614cd6565b95506101608a0135915080821115614daa57600080fd5b50614db78a828b01614cd6565b93505061018088013591506101a0880135905092959891949750929550565b8215158152604060208201526000610d596040830184614c59565b6001600160801b038116811461492957600080fd5b60008060408385031215614e1957600080fd5b823591506020830135614c4e81614df1565b600080600060608486031215614e4057600080fd5b833592506020840135614e5281614df1565b91506040840135614e628161493b565b809150509250925092565b60008060408385031215614e8057600080fd5b82359150602083013567ffffffffffffffff811115614e9e57600080fd5b614eaa85828601614ad5565b9150509250929050565b604081526000614ec76040830185614c59565b90508260208301529392505050565b600080600080600080600080610120898b031215614ef357600080fd5b8835975060208901359650614f0b8a60408b016149be565b95506080890135945060a0890135935060c0890135614f2981614914565b925060e0890135614f398161493b565b8092505061010089013590509295985092959890939650565b60005b83811015614f6d578181015183820152602001614f55565b50506000910152565b60008151808452614f8e816020860160208601614f52565b601f01601f19169290920160200192915050565b602081526000614ca76020830184614f76565b60008082840360c0811215614fc957600080fd5b8335925060a0601f1982011215614fdf57600080fd5b506020830190509250929050565b60008060006060848603121561500257600080fd5b83359250602084013561501481614914565b91506040840135614e6281614914565b606080825284519082018190526000906020906080840190828801845b828110156150665781516001600160a01b031684529284019290840190600101615041565b5050508381038285015261507a8187614c59565b915050828103604084015261508f8185614c59565b9695505050505050565b634e487b7160e01b600052601160045260246000fd5b808201808211156144f7576144f7615099565b80820281158282048414176144f7576144f7615099565b634e487b7160e01b600052601260045260246000fd5b6000826150fe576150fe6150d9565b500490565b6001600160a01b039384168152919092166020820152604081019190915260600190565b6000806040838503121561513a57600080fd5b505080516020909101519092909150565b634e487b7160e01b600052603260045260246000fd5b60006020828403121561517357600080fd5b8135614ca781614914565b805161518981614914565b919050565b6000602082840312156151a057600080fd5b8151614ca781614914565b80516151898161492c565b6000602082840312156151c857600080fd5b8151614ca78161492c565b60008160020b8360020b806151ea576151ea6150d9565b627fffff1982146000198214161561520457615204615099565b90059392505050565b60008260020b8260020b028060020b915080821461167f5761167f615099565b6000806040838503121561524057600080fd5b825161524b8161492c565b6020840151909250614c4e8161492c565b60808183375050565b8581526101c0810160208083018760005b600481101561529c5781516001600160a01b031683529183019190830190600101615276565b50505060a083018660005b60048110156152c757815160020b835291830191908301906001016152a7565b5050505083151561012083015261508f61014083018461525c565b6001600160a01b03929092168252602082015260400190565b60006020828403121561530d57600080fd5b8151614ca78161493b565b60006020828403121561532a57600080fd5b5051919050565b60006001820161534357615343615099565b5060010190565b805160ff8116811461518957600080fd5b60006020828403121561536d57600080fd5b614ca78261534a565b6001600160a01b0391909116815260200190565b60008060006060848603121561539f57600080fd5b83516153aa8161493b565b60208501519093506153bb8161493b565b604085015190925060048110614e6257600080fd5b805161ffff8116811461518957600080fd5b600080600080600080600060e0888a0312156153fd57600080fd5b875161540881614914565b60208901519097506154198161492c565b9550615427604089016153d0565b9450615435606089016153d0565b93506154436080890161534a565b925061545160a0890161534a565b915060c08801516154618161493b565b8091505092959891949750929550565b6001600160a01b03949094168452600292830b6020850152910b60408301526001600160801b0316606082015260800190565b60006101c08289835b60058110156154df5781356154c181614914565b6001600160a01b0316835260209283019291909101906001016154ad565b50505060808860a0850137806101208401526154fd81840188614f76565b90508281036101408401526155128187614f76565b91505061016082018460005b60028110156155465781516001600160a01b031683526020928301929091019060010161551e565b505050826101a0830152979650505050505050565b600082601f83011261556c57600080fd5b8151602061557c614af683614ab1565b82815260059290921b8401810191818101908684111561559b57600080fd5b8286015b84811015614b35578051835291830191830161559f565b6000806000606084860312156155cb57600080fd5b83516155d68161493b565b602085015190935067ffffffffffffffff8111156155f357600080fd5b6155ff8682870161555b565b925050604084015190509250925092565b80516001600160a01b0390811683526020808301518216908401526040808301519091169083015260608082015190830152608090810151910152565b60c0810161565b8285615610565b8260a08301529392505050565b60e081016156768286615610565b8360a083015282151560c0830152949350505050565b6001600160a01b0394851681529290931660208301526040820152606081019190915260800190565b815181526020808301516001600160a01b0316908201526040808301516001600160801b0390811691830191909152606092830151169181019190915260800190565b818103818111156144f7576144f7615099565b6001600160801b0382811682821603908082111561167f5761167f615099565b610100810161573a8287615610565b8460a08301528360c083015282151560e083015295945050505050565b805161518981614df1565b60008060008060008060008060008060006101608c8e03121561578457600080fd5b8b516bffffffffffffffffffffffff811681146157a057600080fd5b60208d0151909b506157b181614914565b60408d0151909a506157c281614914565b98506157d060608d0161517e565b97506157de60808d016151ab565b96506157ec60a08d016151ab565b95506157fa60c08d01615757565b945060e08c015193506101008c015192506158186101208d01615757565b91506158276101408d01615757565b90509295989b509295989b9093969950565b81516001600160a01b031681526101408101602083015161586560208401826001600160a01b03169052565b50604083015161587a604084018260020b9052565b50606083015161588f606084018260020b9052565b506080830151608083015260a083015160a083015260c083015160c083015260e083015160e0830152610100808401516158d3828501826001600160a01b03169052565b505061012092830151919092015290565b600080600080608085870312156158fa57600080fd5b84519350602085015161590c81614df1565b6040860151606090960151949790965092505050565b60008060006060848603121561593757600080fd5b835161594281614df1565b602085015160409095015190969495509392505050565b6001600160801b0381811683821601908082111561167f5761167f615099565b634e487b7160e01b600052602160045260246000fd5b838152821515602082015260608101600483106159bc57634e487b7160e01b600052602160045260246000fd5b826040830152949350505050565b8060005b60028110156159ed5781518452602093840193909101906001016159ce565b50505050565b6101208101818960005b6002811015615a2f578135615a1181614914565b6001600160a01b0316835260209283019291909101906001016159fd565b5050506040820188905260608201879052608082018690526001600160a01b03851660a0830152615a6360c08301856159ca565b8260020b61010083015298975050505050505050565b6001600160a01b0386811682526020820186905284811660408301528316606082015260c0810161508f60808301846159ca565b60008060408385031215615ac057600080fd5b82519150602083015167ffffffffffffffff811115615ade57600080fd5b614eaa8582860161555b565b600060208284031215615afc57600080fd5b815167ffffffffffffffff811115615b1357600080fd5b8201601f81018413615b2457600080fd5b8051615b32614af682614cae565b818152856020838501011115615b4757600080fd5b615b58826020830160208601614f52565b95945050505050565b67020b633b2b13930960c51b815260008351615b84816008850160208801614f52565b602f60f81b6008918401918201528351615ba5816009840160208801614f52565b01600901949350505050565b600181815b80851115615bec578160001904821115615bd257615bd2615099565b80851615615bdf57918102915b93841c9390800290615bb6565b509250929050565b600082615c03575060016144f7565b81615c10575060006144f7565b8160018114615c265760028114615c3057615c4c565b60019150506144f7565b60ff841115615c4157615c41615099565b50506001821b6144f7565b5060208310610133831016604e8410600b8410161715615c6f575081810a6144f7565b615c798383615bb1565b8060001904821115615c8d57615c8d615099565b029392505050565b6000614ca78383615bf4565b600080600060608486031215615cb657600080fd5b83519250602084015191506040840151614e6281614df1565b600282810b9082900b03627fffff198112627fffff821317156144f7576144f7615099565b60008251615d06818460208701614f52565b919091019291505056fe0000000000000000000000008ef88e4c7cfbbac1c163f7eddd4b578792201de60000000000000000000000007f281a8cdf66ef5e9db8434ec6d97acc1bc01e7841532d3420496e636f727265637420726562616c616e63655469636b52616e6765a264697066735822122081ad29c2d1b23e254268c2db4657c737d0b9242ee549ccae05b9c56895520bdb64736f6c63430008110033",
  "deployedBytecode": "0x73000000000000000000000000000000000000000030146080604052600436106101095760003560e01c8063a7aced09116100a1578063bd85be2911610070578063bd85be2914610296578063c3724a89146102b6578063d1585fc4146102d6578063f6e26117146102e957600080fd5b8063a7aced0914610215578063b63cd90214610228578063b676262114610248578063b6fda8131461027657600080fd5b806334d2ec3d116100dd57806334d2ec3d146101915780637269cb3a146101a45780638fb5468e146101c7578063911ec053146101e757600080fd5b8062438b7e1461010e57806328f0aec41461013b5780632cc58ef91461015c5780632df3c9a91461016f575b600080fd5b61012161011c366004614949565b610318565b604080519283526020830191909152015b60405180910390f35b61014e6101493660046149a5565b610334565b604051908152602001610132565b61012161016a3660046149a5565b61042b565b81801561017b57600080fd5b5061018f61018a3660046149e0565b6104d3565b005b61014e61019f366004614b40565b610bb9565b6101b76101b2366004614c29565b610d61565b6040519015158152602001610132565b6101da6101d53660046149a5565b611018565b6040516101329190614c94565b8180156101f357600080fd5b50610207610202366004614d27565b611222565b604051610132929190614dd6565b6101da610223366004614e06565b61146a565b81801561023457600080fd5b506101da610243366004614e2b565b611686565b81801561025457600080fd5b50610268610263366004614e6d565b611ed7565b604051610132929190614eb4565b81801561028257600080fd5b506101da610291366004614ed6565b612873565b6102a96102a43660046149a5565b612d4f565b6040516101329190614fa2565b8180156102c257600080fd5b5061018f6102d1366004614fb5565b612e67565b6101b76102e4366004614fed565b612ede565b8180156102f557600080fd5b506103096103043660046149a5565b6135b0565b60405161013293929190615024565b60008061032786868686613e55565b9150915094509492505050565b805460038201546000916001600160a01b03169060ff600160a81b8204169083908190610383908590600160c81b8104600290810b91600160e01b8104820b91600160b01b909104900b614140565b9150915060008061039686858588613e55565b909250905060006103a782846150af565b116040518060400160405280601081526020016f54532d3234207a65726f2076616c756560801b815250906103f85760405162461bcd60e51b81526004016103ef9190614fa2565b60405180910390fd5b5061040381836150af565b61041582670de0b6b3a76400006150c2565b61041f91906150ef565b98975050505050505050565b805460318201546040516308aaf22f60e31b8152600092839273__$5ce7b97fe3b9dad27bffcf1c56869f0b10$__92634557917892610489926001600160a01b0390911691600080516020615d118339815191529190600401615103565b6040805180830381865af41580156104a5573d6000803e3d6000fd5b505050506040513d601f19601f820116820180604052508101906104c99190615127565b9094909350915050565b60006104e56040880160208901615161565b6001600160a01b031614156040518060400160405280601181526020017054532d31207a65726f206164647265737360781b815250906105385760405162461bcd60e51b81526004016103ef9190614fa2565b50600061054b6040880160208901615161565b6001600160a01b0316630dfe16816040518163ffffffff1660e01b8152600401602060405180830381865afa158015610588573d6000803e3d6000fd5b505050506040513d601f19601f820116820180604052508101906105ac919061518e565b905060006105c06040890160208a01615161565b6001600160a01b031663d21220a76040518163ffffffff1660e01b8152600401602060405180830381865afa1580156105fd573d6000803e3d6000fd5b505050506040513d601f19601f82011682018060405250810190610621919061518e565b905061062b614845565b600073__$5ce7b97fe3b9dad27bffcf1c56869f0b10$__63d0c93a7c6040518163ffffffff1660e01b8152600401602060405180830381865af4158015610676573d6000803e3d6000fd5b505050506040513d601f19601f8201168201806040525081019061069a91906151b6565b90508860020b60001461076a57806106b2818b6151d3565b6106bc919061520d565b60020b8960020b146040518060400160405280601881526020017741532d3320496e636f7272656374207469636b52616e676560401b815250906107135760405162461bcd60e51b81526004016103ef9190614fa2565b508061071f818a6151d3565b610729919061520d565b60020b8860020b14604051806060016040528060218152602001615d5160219139906107685760405162461bcd60e51b81526004016103ef9190614fa2565b505b600281900b825273__$461d2a13b6c4ece874725da1f5491a2777$__6358817a9861079b60408d0160208e01615161565b6040516001600160e01b031960e084901b1681526001600160a01b03909116600482015260028c810b602483015284900b60448201526064016040805180830381865af41580156107f0573d6000803e3d6000fd5b505050506040513d601f19601f82011682018060405250810190610814919061522d565b836001602002018460028093840b602091909102919091015291900b90528782600360029290920b6020909202015250604080516080810190915273__$b1ba452cecccdd06eb05ace2d0a762c7e1$__9063b8b4a449908c90808d60016020020160208101906108849190615161565b6001600160a01b03166001600160a01b031681526020018a6001600160a01b03166001600160a01b03168152602001876001600160a01b03166001600160a01b03168152602001866001600160a01b03166001600160a01b03168152508489896040518663ffffffff1660e01b8152600401610904959493929190615265565b60006040518083038186803b15801561091c57600080fd5b505af4158015610930573d6000803e3d6000fd5b505050506000896000600281106109495761094961514b565b60200201602081019061095c9190615161565b6001600160a01b0316634046ebae6040518163ffffffff1660e01b8152600401602060405180830381865afa158015610999573d6000803e3d6000fd5b505050506040513d601f19601f820116820180604052508101906109bd919061518e565b60405163095ea7b360e01b81529091506001600160a01b0385169063095ea7b3906109f0908490600019906004016152e2565b6020604051808303816000875af1158015610a0f573d6000803e3d6000fd5b505050506040513d601f19601f82011682018060405250810190610a3391906152fb565b5060405163095ea7b360e01b81526001600160a01b0384169063095ea7b390610a64908490600019906004016152e2565b6020604051808303816000875af1158015610a83573d6000803e3d6000fd5b505050506040513d601f19601f82011682018060405250810190610aa791906152fb565b5060405163095ea7b360e01b81526001600160a01b0385169063095ea7b390610ae690600080516020615d1183398151915290600019906004016152e2565b6020604051808303816000875af1158015610b05573d6000803e3d6000fd5b505050506040513d601f19601f82011682018060405250810190610b2991906152fb565b5060405163095ea7b360e01b81526001600160a01b0384169063095ea7b390610b6890600080516020615d1183398151915290600019906004016152e2565b6020604051808303816000875af1158015610b87573d6000803e3d6000fd5b505050506040513d601f19601f82011682018060405250810190610bab91906152fb565b505050505050505050505050565b600080846001600160a01b0316634046ebae6040518163ffffffff1660e01b8152600401602060405180830381865afa158015610bfa573d6000803e3d6000fd5b505050506040513d601f19601f82011682018060405250810190610c1e919061518e565b84519091506000805b82811015610d53576000878281518110610c4357610c4361514b565b60200260200101519050896001600160a01b0316816001600160a01b031603610c9257868281518110610c7857610c7861514b565b602002602001015183610c8b91906150af565b9250610d42565b846001600160a01b031663a9dd14d6898481518110610cb357610cb361514b565b60200260200101518c8a8681518110610cce57610cce61514b565b60200260200101516040518463ffffffff1660e01b8152600401610cf493929190615103565b602060405180830381865afa158015610d11573d6000803e3d6000fd5b505050506040513d601f19601f82011682018060405250810190610d359190615318565b610d3f90846150af565b92505b50610d4c81615331565b9050610c27565b50925050505b949350505050565b815460028301546040805163313ce56760e01b815290516000936001600160a01b0390811693859373__$79fe6ec7a3db45dafbed12dca1c6dad764$__9363556ce728939092169163313ce567916004808201926020929091908290030181865afa158015610dd4573d6000803e3d6000fd5b505050506040513d601f19601f82011682018060405250810190610df8919061535b565b6040516001600160e01b031960e084901b16815260ff9091166004820152602401602060405180830381865af4158015610e36573d6000803e3d6000fd5b505050506040513d601f19601f82011682018060405250810190610e5a9190615318565b6003860154604051635620c32d60e11b81526001600160a01b0380861660048301529091166024820152909150600090829073__$5ce7b97fe3b9dad27bffcf1c56869f0b10$__9063ac41865a90604401602060405180830381865af4158015610ec8573d6000803e3d6000fd5b505050506040513d601f19601f82011682018060405250810190610eec9190615318565b610ef691906150c2565b905073__$b1ba452cecccdd06eb05ace2d0a762c7e1$__6351265e89878773__$461d2a13b6c4ece874725da1f5491a2777$__63ecc89419886040518263ffffffff1660e01b8152600401610f4b9190615376565b602060405180830381865af4158015610f68573d6000803e3d6000fd5b505050506040513d601f19601f82011682018060405250810190610f8c91906151b6565b6040516001600160e01b031960e086901b16815260048101939093526001600160a01b03909116602483015260020b604482015260648101849052608401606060405180830381865af4158015610fe7573d6000803e3d6000fd5b505050506040513d601f19601f8201168201806040525081019061100b919061538a565b5090979650505050505050565b604080516002808252606080830184529260208301908036833750508354604080516339db007960e21b815290519394506000936001600160a01b03909216925063e76c01e49160048083019260e09291908290030181865afa158015611083573d6000803e3d6000fd5b505050506040513d601f19601f820116820180604052508101906110a791906153e2565b505050506003860154600480880154604051630544f36560e31b815295965073__$5ce7b97fe3b9dad27bffcf1c56869f0b10$__95632a279b28955061111994508793600160c81b8104600290810b94600160e01b909204900b92630100000090046001600160801b03169101615471565b6040805180830381865af4158015611135573d6000803e3d6000fd5b505050506040513d601f19601f820116820180604052508101906111599190615127565b8360008151811061116c5761116c61514b565b60200260200101846001815181106111865761118661514b565b6020908102919091010191909152526003830154600160a81b900460ff161561121c57816001815181106111bc576111bc61514b565b6020026020010151826000815181106111d7576111d761514b565b6020026020010151836000815181106111f2576111f261514b565b602002602001018460018151811061120c5761120c61514b565b6020908102919091010191909152525b50919050565b60408051808201825260028401546001600160a01b0390811682526003850154166020820152905163bd13c52960e01b81526000916060918290849073__$b1ba452cecccdd06eb05ace2d0a762c7e1$__9063bd13c52990611292908e908e908e908e908a908e906004016154a4565b600060405180830381865af41580156112af573d6000803e3d6000fd5b505050506040513d6000823e601f3d908101601f191682016040526112d791908101906155b6565b91965092509050801561137a5773__$8f1afe7577f9ab973017c74eca19b86f3c$__6326eadaa38d8d60046020020160208101906113159190615161565b6040516001600160e01b031960e085901b16815260048101929092526001600160a01b031660248201526044810184905260640160006040518083038186803b15801561136157600080fd5b505af4158015611375573d6000803e3d6000fd5b505050505b6040805182815260208c8101359082015260008183015290517f3715d08a7dcc9d792a5a426f62429b9f889a7b140004f9f85190a48485695cf19181900360600190a160608a0135600114806113dc575060608a013560021480156113dc5750845b1561145b578654600388015461141c916001600160a01b031690600160c81b8104600290810b91600160e01b8104820b91600160b01b909104900b614140565b60038901805465ffffffffffff60c81b1916600160e01b62ffffff9384160262ffffff60c81b191617600160c81b939092169290920217905590925082905b50505097509795505050505050565b606060008360000160009054906101000a90046001600160a01b03166001600160a01b031663e76c01e46040518163ffffffff1660e01b815260040160e060405180830381865afa1580156114c3573d6000803e3d6000fd5b505050506040513d601f19601f820116820180604052508101906114e791906153e2565b50949550600294506114f99350505050565b604051908082528060200260200182016040528015611522578160200160208202803683370190505b506003850154604051630544f36560e31b815291935073__$5ce7b97fe3b9dad27bffcf1c56869f0b10$__91632a279b289161157c918591600160c81b8104600290810b92600160e01b909204900b908990600401615471565b6040805180830381865af4158015611598573d6000803e3d6000fd5b505050506040513d601f19601f820116820180604052508101906115bc9190615127565b836000815181106115cf576115cf61514b565b60200260200101846001815181106115e9576115e961514b565b6020908102919091010191909152526003840154600160a81b900460ff161561167f578160018151811061161f5761161f61514b565b60200260200101518260008151811061163a5761163a61514b565b6020026020010151836000815181106116555761165561514b565b602002602001018460018151811061166f5761166f61514b565b6020908102919091010191909152525b5092915050565b6040805160808101825260008082526020820181905281830181905260608083019190915282516002808252818301909452909281602001602082028036833750505060018601546001600160a01b03168252915060006116e68661416a565b60048701546001600160801b0363010000009091048116602080860182905260408051808201909152601481527341532d372057726f6e67206c697175696469747960601b9181019190915292935090871611156117575760405162461bcd60e51b81526004016103ef9190614fa2565b506031860154846117e2576040516307cf0b0f60e31b8152600080516020615d3183398151915290633e78587890611795908590859060040161564d565b60408051808303816000875af11580156117b3573d6000803e3d6000fd5b505050506040513d601f19601f820116820180604052508101906117d79190615127565b606085015260408401525b600080516020615d318339815191526334267cbc6117ff8961416a565b896031015460006040518463ffffffff1660e01b815260040161182493929190615668565b600060405180830381600087803b15801561183e57600080fd5b505af1158015611852573d6000803e3d6000fd5b50505050846119cd576040830151156119145760328701546040808501519051633f46232960e21b81526001600160a01b0390921691600080516020615d318339815191529163fd188ca4916118b1918591309160009160040161568c565b6020604051808303816000875af11580156118d0573d6000803e3d6000fd5b505050506040513d601f19601f820116820180604052508101906118f49190615318565b604085018190528451611912916001600160a01b03841691906141e0565b505b6060830151156119cd5760338701546060840151604051633f46232960e21b81526001600160a01b0390921691600080516020615d318339815191529163fd188ca49161196a918591309160009160040161568c565b6020604051808303816000875af1158015611989573d6000803e3d6000fd5b505050506040513d601f19601f820116820180604052508101906119ad9190615318565b6060850181905284516119cb916001600160a01b03841691906141e0565b505b604051633c423f0b60e01b8152600481018290523060248201526060604482015260006064820152600080516020615d3183398151915290633c423f0b90608401600060405180830381600087803b158015611a2857600080fd5b505af1158015611a3c573d6000803e3d6000fd5b50506040805160a0810182528481526001600160801b038a81166020830190815260008385018181526060850191825242608086019081529551630624e65f60e11b8152945160048601529151909216602484015251604483015251606482015290516084820152600080516020615d118339815191529250630c49ccbe915060a40160408051808303816000875af1158015611add573d6000803e3d6000fd5b505050506040513d601f19601f82011682018060405250810190611b019190615127565b85600081518110611b1457611b1461514b565b6020026020010186600181518110611b2e57611b2e61514b565b602090810291909101810192909252919091526040805160808101825283815230928101929092526001600160801b0382820181905260608301525163fc6f786560e01b81526000918291600080516020615d118339815191529163fc6f786591611b9c91906004016156b5565b60408051808303816000875af1158015611bba573d6000803e3d6000fd5b505050506040513d601f19601f82011682018060405250810190611bde9190615127565b91509150600086600081518110611bf757611bf761514b565b60200260200101518311611c0c576000611c32565b86600081518110611c1f57611c1f61514b565b602002602001015183611c3291906156f8565b9050600087600181518110611c4957611c4961514b565b60200260200101518311611c5e576000611c84565b87600181518110611c7157611c7161514b565b602002602001015183611c8491906156f8565b60408051848152602081018390529192507f15097721483fb2e62f76b9953e3601b26e7cc79208a0191df6fa701c6148744d910160405180910390a160038b0154600160a81b900460ff1615611d485787600181518110611ce757611ce761514b565b602002602001015188600081518110611d0257611d0261514b565b602002602001015189600081518110611d1d57611d1d61514b565b602002602001018a600181518110611d3757611d3761514b565b602090810291909101019190915252905b8115611d6b57865160028c0154611d6b916001600160a01b0390911690846141e0565b8015611d8e57865160038c0154611d8e916001600160a01b0390911690836141e0565b505050508583602001818151611da4919061570b565b6001600160801b03908116909152602085015160048a01805472ffffffffffffffffffffffffffffffff000000191663010000009290931691820292909217909155159050611ecd57604051632142170760e11b8152600080516020615d11833981519152906342842e0e90611e30903090600080516020615d31833981519152908690600401615103565b600060405180830381600087803b158015611e4a57600080fd5b505af1158015611e5e573d6000803e3d6000fd5b5050604051631143967160e11b8152600080516020615d3183398151915292506322872ce29150611e9a9085908590600090819060040161572b565b600060405180830381600087803b158015611eb457600080fd5b505af1158015611ec8573d6000803e3d6000fd5b505050505b5050509392505050565b6040805160a081018252600384015460ff600160a81b8204161515808352600060208401819052603187015494840194909452600160c81b8204600290810b606085810191909152600160e01b909304900b60808401529092919082908190611f5657600287015460038801546001600160a01b039182169116611f6e565b600387015460028801546001600160a01b0391821691165b8451919350915015611fed5785600181518110611f8d57611f8d61514b565b602002602001015186600081518110611fa857611fa861514b565b602002602001015187600081518110611fc357611fc361514b565b6020026020010188600181518110611fdd57611fdd61514b565b6020908102919091010191909152525b604080516002808252606082018352909160208301908036833750505060408401519095501561213657604083810151905163133f757160e31b815260048101919091526000908190600080516020615d11833981519152906399fbab889060240161016060405180830381865afa15801561206d573d6000803e3d6000fd5b505050506040513d601f19601f820116820180604052508101906120919190615762565b50505050509550955050505050846060015160020b8260020b1415806120c15750846080015160020b8160020b14155b15612133576040858101519051630852cd8d60e31b81526004810191909152600080516020615d11833981519152906342966c6890602401600060405180830381600087803b15801561211357600080fd5b505af1158015612127573d6000803e3d6000fd5b50506000604088015250505b50505b60006121418861416a565b9050836040015160000361234a57600080516020615d118339815191526001600160a01b0316639cc1a283604051806101400160405280866001600160a01b03168152602001856001600160a01b03168152602001876060015160020b8152602001876080015160020b81526020018a6000815181106121c3576121c361514b565b602002602001015181526020018a6001815181106121e3576121e361514b565b602002602001015181526020016000815260200160008152602001306001600160a01b03168152602001428152506040518263ffffffff1660e01b815260040161222d9190615839565b6080604051808303816000875af115801561224c573d6000803e3d6000fd5b505050506040513d601f19601f8201168201806040525081019061227091906158e4565b87604001886020018b60008151811061228b5761228b61514b565b602002602001018c6001815181106122a5576122a561514b565b6020908102919091010193909352929091526001600160801b0390921690525260408085015160318a018190559051632142170760e11b8152600080516020615d11833981519152916342842e0e91612313913091600080516020615d318339815191529190600401615103565b600060405180830381600087803b15801561232d57600080fd5b505af1158015612341573d6000803e3d6000fd5b5050505061279e565b600080516020615d118339815191526001600160a01b031663219f5d176040518060c00160405280876040015181526020018a60008151811061238f5761238f61514b565b602002602001015181526020018a6001815181106123af576123af61514b565b602002602001015181526020016000815260200160008152602001428152506040518263ffffffff1660e01b81526004016124299190600060c082019050825182526020830151602083015260408301516040830152606083015160608301526080830151608083015260a083015160a083015292915050565b6060604051808303816000875af1158015612448573d6000803e3d6000fd5b505050506040513d601f19601f8201168201806040525081019061246c9190615922565b86602001896000815181106124835761248361514b565b602002602001018a60018151811061249d5761249d61514b565b60209081029190910101929092529190526001600160801b03918216905260048901546301000000900416156127245760408085015190516307cf0b0f60e31b81526000918291600080516020615d3183398151915291633e7858789161250891879160040161564d565b60408051808303816000875af1158015612526573d6000803e3d6000fd5b505050506040513d601f19601f8201168201806040525081019061254a9190615127565b6040808901519051630d099f2f60e21b8152929450909250600080516020615d31833981519152916334267cbc9161258a91879190600090600401615668565b600060405180830381600087803b1580156125a457600080fd5b505af11580156125b8573d6000803e3d6000fd5b5050505060018a01546001600160a01b031682156126745760328b0154604051633f46232960e21b81526001600160a01b0390911690600080516020615d318339815191529063fd188ca49061261990849030906000908a9060040161568c565b6020604051808303816000875af1158015612638573d6000803e3d6000fd5b505050506040513d601f19601f8201168201806040525081019061265c9190615318565b93506126726001600160a01b03821683866141e0565b505b811561271c5760338b0154604051633f46232960e21b81526001600160a01b0390911690600080516020615d318339815191529063fd188ca4906126c39084903090600090899060040161568c565b6020604051808303816000875af11580156126e2573d6000803e3d6000fd5b505050506040513d601f19601f820116820180604052508101906127069190615318565b92506123416001600160a01b03821683856141e0565b50505061279e565b6040808501519051632142170760e11b8152600080516020615d11833981519152916342842e0e9161276b913091600080516020615d318339815191529190600401615103565b600060405180830381600087803b15801561278557600080fd5b505af1158015612799573d6000803e3d6000fd5b505050505b6040808501519051631143967160e11b8152600080516020615d31833981519152916322872ce2916127d9918591600090819060040161572b565b600060405180830381600087803b1580156127f357600080fd5b505af1158015612807573d6000803e3d6000fd5b505050506020840151600489018054600390612834908490630100000090046001600160801b0316615959565b92506101000a8154816001600160801b0302191690836001600160801b0316021790555083602001516001600160801b03169450505050509250929050565b606061287d614863565b6128958161288e60208b018b615161565b8b8661423b565b61014081015160408083015160038c01549151635620c32d60e11b81526001600160a01b0391821660048201529116602482015273__$5ce7b97fe3b9dad27bffcf1c56869f0b10$__9063ac41865a90604401602060405180830381865af4158015612905573d6000803e3d6000fd5b505050506040513d601f19601f820116820180604052508101906129299190615318565b61293391906150c2565b610120820152604080820151905163ecc8941960e01b8152600091829173__$461d2a13b6c4ece874725da1f5491a2777$__9163ecc89419916129799190600401615376565b602060405180830381865af4158015612996573d6000803e3d6000fd5b505050506040513d601f19601f820116820180604052508101906129ba91906151b6565b60208401516101208501516040516351265e8960e01b8152600481018f90526001600160a01b039092166024830152600283900b6044830152606482015290915073__$b1ba452cecccdd06eb05ace2d0a762c7e1$__906351265e8990608401606060405180830381865af4158015612a37573d6000803e3d6000fd5b505050506040513d601f19601f82011682018060405250810190612a5b919061538a565b8560e0018661010001826003811115612a7657612a76615979565b6003811115612a8757612a87615979565b90529115159091525091508115612b0d5773__$b1ba452cecccdd06eb05ace2d0a762c7e1$__634aa009158c8560e001518661010001516040518463ffffffff1660e01b8152600401612adc9392919061598f565b60006040518083038186803b158015612af457600080fd5b505af4158015612b08573d6000803e3d6000fd5b505050505b851580612b175750815b604051806040016040528060188152602001771054cb4e48139bc81c9958985b185b98d9481b995959195960421b81525090612b665760405162461bcd60e51b81526004016103ef9190614fa2565b508115612d405773__$461d2a13b6c4ece874725da1f5491a2777$__63e4ee4bf78b8d8b8d8c8960c00151886040518863ffffffff1660e01b8152600401612bb497969594939291906159f3565b60006040518083038186803b158015612bcc57600080fd5b505af4158015612be0573d6000803e3d6000fd5b50505050600073__$8f1afe7577f9ab973017c74eca19b86f3c$__63ac2a37d685602001518c876060015188608001518960c001516040518663ffffffff1660e01b8152600401612c35959493929190615a79565b600060405180830381865af4158015612c52573d6000803e3d6000fd5b505050506040513d6000823e601f3d908101601f19168201604052612c7a9190810190615aad565b955090508015612cfe576040516326eadaa360e01b8152600481018e90526001600160a01b03891660248201526044810182905273__$8f1afe7577f9ab973017c74eca19b86f3c$__906326eadaa39060640160006040518083038186803b158015612ce557600080fd5b505af4158015612cf9573d6000803e3d6000fd5b505050505b60408051828152602081018b905260008183015290517f83387a3342ff1ebc5e437dc9ae0f98274afda12a11cf547eebec05a3e0b8f8a79181900360600190a1505b50505098975050505050505050565b6002810154604080516395d89b4160e01b815290516060926001600160a01b0316916395d89b419160048083019260009291908290030181865afa158015612d9b573d6000803e3d6000fd5b505050506040513d6000823e601f3d908101601f19168201604052612dc39190810190615aea565b8260030160009054906101000a90046001600160a01b03166001600160a01b03166395d89b416040518163ffffffff1660e01b8152600401600060405180830381865afa158015612e18573d6000803e3d6000fd5b505050506040513d6000823e601f3d908101601f19168201604052612e409190810190615aea565b604051602001612e51929190615b61565b6040516020818303038152906040529050919050565b612e746020820182615161565b6032830180546001600160a01b0319166001600160a01b0392909216919091179055612ea66040820160208301615161565b6033830180546001600160a01b0319166001600160a01b03929092169190911790556060810135603483015560800135603590910155565b6040805160c0810182526000918101829052606081018290526080810182905260a0810182905260028501546001600160a01b03908116825260038601548116602083015260018601546004870154911690630100000090046001600160801b0316156132c357603286015460338701546001600160a01b0391821691166000612f678961416a565b9050600080600080516020615d318339815191526001600160a01b031663de2356d16040518163ffffffff1660e01b8152600401602060405180830381865afa158015612fb8573d6000803e3d6000fd5b505050506040513d601f19601f82011682018060405250810190612fdc919061518e565b6001600160a01b031663704972f4848d603101546040518363ffffffff1660e01b815260040161300d92919061564d565b6040805180830381865afa158015613029573d6000803e3d6000fd5b505050506040513d601f19601f8201168201806040525081019061304d9190615127565b6040516370a0823160e01b815291935091506001600160a01b038616906370a082319061307e908990600401615376565b602060405180830381865afa15801561309b573d6000803e3d6000fd5b505050506040513d601f19601f820116820180604052508101906130bf9190615318565b6130c990836150af565b6040516370a0823160e01b81529092506001600160a01b038516906370a08231906130f8908990600401615376565b602060405180830381865afa158015613115573d6000803e3d6000fd5b505050506040513d601f19601f820116820180604052508101906131399190615318565b61314390826150af565b90506000896001600160a01b0316634046ebae6040518163ffffffff1660e01b8152600401602060405180830381865afa158015613185573d6000803e3d6000fd5b505050506040513d601f19601f820116820180604052508101906131a9919061518e565b905082156132285787516040516354ee8a6b60e11b81526001600160a01b0383169163a9dd14d6916131e1918a918890600401615103565b602060405180830381865afa1580156131fe573d6000803e3d6000fd5b505050506040513d601f19601f820116820180604052508101906132229190615318565b60408901525b6060880151156132a95787516040516354ee8a6b60e11b81526001600160a01b0383169163a9dd14d6916132629189918790600401615103565b602060405180830381865afa15801561327f573d6000803e3d6000fd5b505050506040513d601f19601f820116820180604052508101906132a39190615318565b60608901525b6132b28c61042b565b60a08a015260808901525050505050505b6003860154600160a81b900460ff16156132e95760a08201805160808401805190925290525b81516040516370a0823160e01b81526001600160a01b03909116906370a0823190613318908490600401615376565b602060405180830381865afa158015613335573d6000803e3d6000fd5b505050506040513d601f19601f820116820180604052508101906133599190615318565b8260800181815161336a91906150af565b90525060208201516040516370a0823160e01b81526001600160a01b03909116906370a082319061339f908490600401615376565b602060405180830381865afa1580156133bc573d6000803e3d6000fd5b505050506040513d601f19601f820116820180604052508101906133e09190615318565b8260a0018181516133f191906150af565b90525060006133ff86614432565b835160405163b3596f0760e01b81529192506000916001600160a01b0384169163b3596f07916134329190600401615376565b602060405180830381865afa15801561344f573d6000803e3d6000fd5b505050506040513d601f19601f820116820180604052508101906134739190615318565b90506000826001600160a01b031663b3596f0786602001516040518263ffffffff1660e01b81526004016134a79190615376565b602060405180830381865afa1580156134c4573d6000803e3d6000fd5b505050506040513d601f19601f820116820180604052508101906134e89190615318565b90506000670de0b6b3a764000083876080015161350591906150c2565b61350f91906150ef565b90506000670de0b6b3a7640000838860a0015161352c91906150c2565b61353691906150ef565b905060648211806135475750606481115b8061357457506064670de0b6b3a764000085896040015161356891906150c2565b61357291906150ef565b115b806135a157506064670de0b6b3a764000085896060015161359591906150c2565b61359f91906150ef565b115b9b9a5050505050505050505050565b6001810154603182015460408051600480825260a08201909252606093849384936001600160a01b0390921692909160208201608080368337505050600287015481519196506001600160a01b03169086906000906136115761361161514b565b6001600160a01b03928316602091820292909201015260038701548651911690869060019081106136445761364461514b565b6001600160a01b03928316602091820292909201015260328701548651911690869060029081106136775761367761514b565b6001600160a01b03928316602091820292909201015260338701548651911690869060039081106136aa576136aa61514b565b6001600160a01b039290921660209283029190910182015260408051600480825260a0820190925291820160808036833701905050925060005b85518110156137a2578581815181106136ff576136ff61514b565b60200260200101516001600160a01b03166370a08231306040518263ffffffff1660e01b81526004016137329190615376565b602060405180830381865afa15801561374f573d6000803e3d6000fd5b505050506040513d601f19601f820116820180604052508101906137739190615318565b8482815181106137855761378561514b565b60209081029190910101528061379a81615331565b9150506136e4565b5060408051600480825260a0820190925290602082016080803683370190505093506000811180156137e757506004860154630100000090046001600160801b031615155b15613ce657604080516080810182528281523060208201526001600160801b038183018190526060820152905163fc6f786560e01b8152600080516020615d318339815191529163fc6f78659161384191906004016156b5565b60408051808303816000875af115801561385f573d6000803e3d6000fd5b505050506040513d601f19601f820116820180604052508101906138839190615127565b856000815181106138965761389661514b565b60200260200101866001815181106138b0576138b061514b565b60200260200101828152508281525050507f15097721483fb2e62f76b9953e3601b26e7cc79208a0191df6fa701c6148744d846000815181106138f5576138f561514b565b6020026020010151856001815181106139105761391061514b565b602002602001015160405161392f929190918252602082015260400190565b60405180910390a16003860154600160a81b900460ff16156139be578360018151811061395e5761395e61514b565b6020026020010151846000815181106139795761397961514b565b6020026020010151856000815181106139945761399461514b565b60200260200101866001815181106139ae576139ae61514b565b6020908102919091010191909152525b600080516020615d31833981519152633e7858786139db8861416a565b836040518363ffffffff1660e01b81526004016139f992919061564d565b60408051808303816000875af1158015613a17573d6000803e3d6000fd5b505050506040513d601f19601f82011682018060405250810190613a3b9190615127565b85600281518110613a4e57613a4e61514b565b6020026020010186600381518110613a6857613a6861514b565b6020026020010182815250828152505050600084600281518110613a8e57613a8e61514b565b60200260200101511115613b7457600080516020615d318339815191526001600160a01b031663fd188ca486600281518110613acc57613acc61514b565b602002602001015130600088600281518110613aea57613aea61514b565b60200260200101516040518563ffffffff1660e01b8152600401613b11949392919061568c565b6020604051808303816000875af1158015613b30573d6000803e3d6000fd5b505050506040513d601f19601f82011682018060405250810190613b549190615318565b84600281518110613b6757613b6761514b565b6020026020010181815250505b600084600381518110613b8957613b8961514b565b60200260200101511115613c6f57600080516020615d318339815191526001600160a01b031663fd188ca486600381518110613bc757613bc761514b565b602002602001015130600088600381518110613be557613be561514b565b60200260200101516040518563ffffffff1660e01b8152600401613c0c949392919061568c565b6020604051808303816000875af1158015613c2b573d6000803e3d6000fd5b505050506040513d601f19601f82011682018060405250810190613c4f9190615318565b84600381518110613c6257613c6261514b565b6020026020010181815250505b7f2f1396dffa36013d7e1df1ec39cb355b5ff604d56e817a88ed2a0d40995adcb884600281518110613ca357613ca361514b565b602002602001015185600381518110613cbe57613cbe61514b565b6020026020010151604051613cdd929190918252602082015260400190565b60405180910390a15b60005b8551811015613e4b576000868281518110613d0657613d0661514b565b60200260200101516001600160a01b03166370a08231856040518263ffffffff1660e01b8152600401613d399190615376565b602060405180830381865afa158015613d56573d6000803e3d6000fd5b505050506040513d601f19601f82011682018060405250810190613d7a9190615318565b90508015613e3a57868281518110613d9457613d9461514b565b60200260200101516001600160a01b03166323b872dd8530846040518463ffffffff1660e01b8152600401613dcb93929190615103565b6020604051808303816000875af1158015613dea573d6000803e3d6000fd5b505050506040513d601f19601f82011682018060405250810190613e0e91906152fb565b5080868381518110613e2257613e2261514b565b60200260200101818151613e3691906150af565b9052505b50613e4481615331565b9050613ce9565b5050509193909250565b6000806000866001600160a01b031663d21220a76040518163ffffffff1660e01b8152600401602060405180830381865afa158015613e98573d6000803e3d6000fd5b505050506040513d601f19601f82011682018060405250810190613ebc919061518e565b604051635620c32d60e11b81526001600160a01b03808a1660048301528216602482015290915060009073__$5ce7b97fe3b9dad27bffcf1c56869f0b10$__9063ac41865a90604401602060405180830381865af4158015613f22573d6000803e3d6000fd5b505050506040513d601f19601f82011682018060405250810190613f469190615318565b90506000826001600160a01b031663313ce5676040518163ffffffff1660e01b8152600401602060405180830381865afa158015613f88573d6000803e3d6000fd5b505050506040513d601f19601f82011682018060405250810190613fac919061535b565b60ff169050816000613fbf83600a615c95565b60408051808201909152601081526f54532d3234207a65726f2076616c756560801b6020820152909150816140075760405162461bcd60e51b81526004016103ef9190614fa2565b506040516305f08b0f60e21b81526001600160a01b038c16600482015260028b810b60248301528a900b60448201526064810183905260848101829052600090819073__$5ce7b97fe3b9dad27bffcf1c56869f0b10$__906317c22c3c9060a401606060405180830381865af4158015614085573d6000803e3d6000fd5b505050506040513d601f19601f820116820180604052508101906140a99190615ca1565b5091509150896140f2576140c582670de0b6b3a76400006150c2565b83876140d984670de0b6b3a76400006150c2565b6140e391906150c2565b6140ed91906150ef565b61412c565b828661410683670de0b6b3a76400006150c2565b61411091906150c2565b61411a91906150ef565b61412c83670de0b6b3a76400006150c2565b985098505050505050505094509492505050565b600080600061414e876144fd565b905061415c8187878761456e565b925092505094509492505050565b6040805160a081018252600080825260208201819052918101829052606081018290526080810191909152506040805160a08101825260328301546001600160a01b0390811682526033840154811660208301528354169181019190915260348201546060820152603590910154608082015290565b6142368363a9059cbb60e01b84846040516024016141ff9291906152e2565b60408051601f198184030181529190526020810180516001600160e01b03166001600160e01b031990931692909217909152614638565b505050565b81546001600160a01b0316604080860191909152805160608101909152600583018054829060ff16600381111561427457614274615979565b600381111561428557614285615979565b815260408051608081019182905260209092019190600184019060049082845b8154815260200190600101908083116142a557505050918352505060408051608081019182905260209092019190600584019060049082845b8154815260200190600101908083116142de575050509190925250505084526001600160a01b03838116602080870191909152600284015482166060870181905260038501549283166080880152600160a01b90920460ff16151560a0870152600091825282905260409020546143549061470a565b60c08501515260808401516001600160a01b03166000908152602082905260409020546143809061470a565b60c08501516001602002018181525050600084606001516001600160a01b031663313ce5676040518163ffffffff1660e01b8152600401602060405180830381865afa1580156143d4573d6000803e3d6000fd5b505050506040513d601f19601f820116820180604052508101906143f8919061535b565b60ff1690506012811061440c576001614422565b6144178160126156f8565b61442290600a615c95565b6101409095019490945250505050565b6000816001600160a01b031663f77c47916040518163ffffffff1660e01b8152600401602060405180830381865afa158015614472573d6000803e3d6000fd5b505050506040513d601f19601f82011682018060405250810190614496919061518e565b6001600160a01b0316632630c12f6040518163ffffffff1660e01b8152600401602060405180830381865afa1580156144d3573d6000803e3d6000fd5b505050506040513d601f19601f820116820180604052508101906144f7919061518e565b92915050565b6000816001600160a01b031663e76c01e46040518163ffffffff1660e01b815260040160e060405180830381865afa15801561453d573d6000803e3d6000fd5b505050506040513d601f19601f8201168201806040525081019061456191906153e2565b5093979650505050505050565b6000808061457c8686615ccf565b905060008460020b8260020b1461459d576145986002836151d3565b6145a0565b60005b60405163cd8e20e760e01b815260028a810b600483015282810b602483015287900b604482015290915073__$b1ba452cecccdd06eb05ace2d0a762c7e1$__9063cd8e20e7906064016040805180830381865af4158015614605573d6000803e3d6000fd5b505050506040513d601f19601f82011682018060405250810190614629919061522d565b93509350505094509492505050565b600061468d826040518060400160405280602081526020017f5361666545524332303a206c6f772d6c6576656c2063616c6c206661696c6564815250856001600160a01b03166147229092919063ffffffff16565b80519091501561423657808060200190518101906146ab91906152fb565b6142365760405162461bcd60e51b815260206004820152602a60248201527f5361666545524332303a204552433230206f7065726174696f6e20646964206e6044820152691bdd081cdd58d8d9595960b21b60648201526084016103ef565b6000811561471857816144f7565b620186a092915050565b6060610d59848460008585600080866001600160a01b031685876040516147499190615cf4565b60006040518083038185875af1925050503d8060008114614786576040519150601f19603f3d011682016040523d82523d6000602084013e61478b565b606091505b509150915061479c878383876147a7565b979650505050505050565b6060831561481657825160000361480f576001600160a01b0385163b61480f5760405162461bcd60e51b815260206004820152601d60248201527f416464726573733a2063616c6c20746f206e6f6e2d636f6e747261637400000060448201526064016103ef565b5081610d59565b610d59838381511561482b5781518083602001fd5b8060405162461bcd60e51b81526004016103ef9190614fa2565b60405180608001604052806004906020820280368337509192915050565b6040518061016001604052806148776148c9565b815260006020820181905260408201819052606082018190526080820181905260a082015260c0016148a76148f6565b8152600060208201819052604082018190526060820181905260809091015290565b604080516060810190915280600081526020016148e4614845565b81526020016148f1614845565b905290565b60405180604001604052806002906020820280368337509192915050565b6001600160a01b038116811461492957600080fd5b50565b8060020b811461492957600080fd5b801515811461492957600080fd5b6000806000806080858703121561495f57600080fd5b843561496a81614914565b9350602085013561497a8161492c565b9250604085013561498a8161492c565b9150606085013561499a8161493b565b939692955090935050565b6000602082840312156149b757600080fd5b5035919050565b80604081018310156144f757600080fd5b80608081018310156144f757600080fd5b6000806000806000806000610160888a0312156149fc57600080fd5b87359650614a0d8960208a016149be565b95506060880135614a1d8161492c565b94506080880135614a2d8161492c565b935060a0880135614a3d81614914565b925060c0880135614a4d8161493b565b9150614a5c8960e08a016149cf565b905092959891949750929550565b634e487b7160e01b600052604160045260246000fd5b604051601f8201601f1916810167ffffffffffffffff81118282101715614aa957614aa9614a6a565b604052919050565b600067ffffffffffffffff821115614acb57614acb614a6a565b5060051b60200190565b600082601f830112614ae657600080fd5b81356020614afb614af683614ab1565b614a80565b82815260059290921b84018101918181019086841115614b1a57600080fd5b8286015b84811015614b355780358352918301918301614b1e565b509695505050505050565b60008060008060808587031215614b5657600080fd5b8435614b6181614914565b9350602085810135614b7281614914565b9350604086013567ffffffffffffffff80821115614b8f57600080fd5b818801915088601f830112614ba357600080fd5b8135614bb1614af682614ab1565b81815260059190911b8301840190848101908b831115614bd057600080fd5b938501935b82851015614bf7578435614be881614914565b82529385019390850190614bd5565b965050506060880135925080831115614c0f57600080fd5b5050614c1d87828801614ad5565b91505092959194509250565b60008060408385031215614c3c57600080fd5b823591506020830135614c4e81614914565b809150509250929050565b600081518084526020808501945080840160005b83811015614c8957815187529582019590820190600101614c6d565b509495945050505050565b602081526000614ca76020830184614c59565b9392505050565b600067ffffffffffffffff821115614cc857614cc8614a6a565b50601f01601f191660200190565b600082601f830112614ce757600080fd5b8135614cf5614af682614cae565b818152846020838601011115614d0a57600080fd5b816020850160208301376000918101602001919091529392505050565b60008060008060008060006101c0888a031215614d4357600080fd5b8735965060c0880189811115614d5857600080fd5b602089019650614d688a826149cf565b95505061014088013567ffffffffffffffff80821115614d8757600080fd5b614d938b838c01614cd6565b95506101608a0135915080821115614daa57600080fd5b50614db78a828b01614cd6565b93505061018088013591506101a0880135905092959891949750929550565b8215158152604060208201526000610d596040830184614c59565b6001600160801b038116811461492957600080fd5b60008060408385031215614e1957600080fd5b823591506020830135614c4e81614df1565b600080600060608486031215614e4057600080fd5b833592506020840135614e5281614df1565b91506040840135614e628161493b565b809150509250925092565b60008060408385031215614e8057600080fd5b82359150602083013567ffffffffffffffff811115614e9e57600080fd5b614eaa85828601614ad5565b9150509250929050565b604081526000614ec76040830185614c59565b90508260208301529392505050565b600080600080600080600080610120898b031215614ef357600080fd5b8835975060208901359650614f0b8a60408b016149be565b95506080890135945060a0890135935060c0890135614f2981614914565b925060e0890135614f398161493b565b8092505061010089013590509295985092959890939650565b60005b83811015614f6d578181015183820152602001614f55565b50506000910152565b60008151808452614f8e816020860160208601614f52565b601f01601f19169290920160200192915050565b602081526000614ca76020830184614f76565b60008082840360c0811215614fc957600080fd5b8335925060a0601f1982011215614fdf57600080fd5b506020830190509250929050565b60008060006060848603121561500257600080fd5b83359250602084013561501481614914565b91506040840135614e6281614914565b606080825284519082018190526000906020906080840190828801845b828110156150665781516001600160a01b031684529284019290840190600101615041565b5050508381038285015261507a8187614c59565b915050828103604084015261508f8185614c59565b9695505050505050565b634e487b7160e01b600052601160045260246000fd5b808201808211156144f7576144f7615099565b80820281158282048414176144f7576144f7615099565b634e487b7160e01b600052601260045260246000fd5b6000826150fe576150fe6150d9565b500490565b6001600160a01b039384168152919092166020820152604081019190915260600190565b6000806040838503121561513a57600080fd5b505080516020909101519092909150565b634e487b7160e01b600052603260045260246000fd5b60006020828403121561517357600080fd5b8135614ca781614914565b805161518981614914565b919050565b6000602082840312156151a057600080fd5b8151614ca781614914565b80516151898161492c565b6000602082840312156151c857600080fd5b8151614ca78161492c565b60008160020b8360020b806151ea576151ea6150d9565b627fffff1982146000198214161561520457615204615099565b90059392505050565b60008260020b8260020b028060020b915080821461167f5761167f615099565b6000806040838503121561524057600080fd5b825161524b8161492c565b6020840151909250614c4e8161492c565b60808183375050565b8581526101c0810160208083018760005b600481101561529c5781516001600160a01b031683529183019190830190600101615276565b50505060a083018660005b60048110156152c757815160020b835291830191908301906001016152a7565b5050505083151561012083015261508f61014083018461525c565b6001600160a01b03929092168252602082015260400190565b60006020828403121561530d57600080fd5b8151614ca78161493b565b60006020828403121561532a57600080fd5b5051919050565b60006001820161534357615343615099565b5060010190565b805160ff8116811461518957600080fd5b60006020828403121561536d57600080fd5b614ca78261534a565b6001600160a01b0391909116815260200190565b60008060006060848603121561539f57600080fd5b83516153aa8161493b565b60208501519093506153bb8161493b565b604085015190925060048110614e6257600080fd5b805161ffff8116811461518957600080fd5b600080600080600080600060e0888a0312156153fd57600080fd5b875161540881614914565b60208901519097506154198161492c565b9550615427604089016153d0565b9450615435606089016153d0565b93506154436080890161534a565b925061545160a0890161534a565b915060c08801516154618161493b565b8091505092959891949750929550565b6001600160a01b03949094168452600292830b6020850152910b60408301526001600160801b0316606082015260800190565b60006101c08289835b60058110156154df5781356154c181614914565b6001600160a01b0316835260209283019291909101906001016154ad565b50505060808860a0850137806101208401526154fd81840188614f76565b90508281036101408401526155128187614f76565b91505061016082018460005b60028110156155465781516001600160a01b031683526020928301929091019060010161551e565b505050826101a0830152979650505050505050565b600082601f83011261556c57600080fd5b8151602061557c614af683614ab1565b82815260059290921b8401810191818101908684111561559b57600080fd5b8286015b84811015614b35578051835291830191830161559f565b6000806000606084860312156155cb57600080fd5b83516155d68161493b565b602085015190935067ffffffffffffffff8111156155f357600080fd5b6155ff8682870161555b565b925050604084015190509250925092565b80516001600160a01b0390811683526020808301518216908401526040808301519091169083015260608082015190830152608090810151910152565b60c0810161565b8285615610565b8260a08301529392505050565b60e081016156768286615610565b8360a083015282151560c0830152949350505050565b6001600160a01b0394851681529290931660208301526040820152606081019190915260800190565b815181526020808301516001600160a01b0316908201526040808301516001600160801b0390811691830191909152606092830151169181019190915260800190565b818103818111156144f7576144f7615099565b6001600160801b0382811682821603908082111561167f5761167f615099565b610100810161573a8287615610565b8460a08301528360c083015282151560e083015295945050505050565b805161518981614df1565b60008060008060008060008060008060006101608c8e03121561578457600080fd5b8b516bffffffffffffffffffffffff811681146157a057600080fd5b60208d0151909b506157b181614914565b60408d0151909a506157c281614914565b98506157d060608d0161517e565b97506157de60808d016151ab565b96506157ec60a08d016151ab565b95506157fa60c08d01615757565b945060e08c015193506101008c015192506158186101208d01615757565b91506158276101408d01615757565b90509295989b509295989b9093969950565b81516001600160a01b031681526101408101602083015161586560208401826001600160a01b03169052565b50604083015161587a604084018260020b9052565b50606083015161588f606084018260020b9052565b506080830151608083015260a083015160a083015260c083015160c083015260e083015160e0830152610100808401516158d3828501826001600160a01b03169052565b505061012092830151919092015290565b600080600080608085870312156158fa57600080fd5b84519350602085015161590c81614df1565b6040860151606090960151949790965092505050565b60008060006060848603121561593757600080fd5b835161594281614df1565b602085015160409095015190969495509392505050565b6001600160801b0381811683821601908082111561167f5761167f615099565b634e487b7160e01b600052602160045260246000fd5b838152821515602082015260608101600483106159bc57634e487b7160e01b600052602160045260246000fd5b826040830152949350505050565b8060005b60028110156159ed5781518452602093840193909101906001016159ce565b50505050565b6101208101818960005b6002811015615a2f578135615a1181614914565b6001600160a01b0316835260209283019291909101906001016159fd565b5050506040820188905260608201879052608082018690526001600160a01b03851660a0830152615a6360c08301856159ca565b8260020b61010083015298975050505050505050565b6001600160a01b0386811682526020820186905284811660408301528316606082015260c0810161508f60808301846159ca565b60008060408385031215615ac057600080fd5b82519150602083015167ffffffffffffffff811115615ade57600080fd5b614eaa8582860161555b565b600060208284031215615afc57600080fd5b815167ffffffffffffffff811115615b1357600080fd5b8201601f81018413615b2457600080fd5b8051615b32614af682614cae565b818152856020838501011115615b4757600080fd5b615b58826020830160208601614f52565b95945050505050565b67020b633b2b13930960c51b815260008351615b84816008850160208801614f52565b602f60f81b6008918401918201528351615ba5816009840160208801614f52565b01600901949350505050565b600181815b80851115615bec578160001904821115615bd257615bd2615099565b80851615615bdf57918102915b93841c9390800290615bb6565b509250929050565b600082615c03575060016144f7565b81615c10575060006144f7565b8160018114615c265760028114615c3057615c4c565b60019150506144f7565b60ff841115615c4157615c41615099565b50506001821b6144f7565b5060208310610133831016604e8410600b8410161715615c6f575081810a6144f7565b615c798383615bb1565b8060001904821115615c8d57615c8d615099565b029392505050565b6000614ca78383615bf4565b600080600060608486031215615cb657600080fd5b83519250602084015191506040840151614e6281614df1565b600282810b9082900b03627fffff198112627fffff821317156144f7576144f7615099565b60008251615d06818460208701614f52565b919091019291505056fe0000000000000000000000008ef88e4c7cfbbac1c163f7eddd4b578792201de60000000000000000000000007f281a8cdf66ef5e9db8434ec6d97acc1bc01e7841532d3420496e636f727265637420726562616c616e63655469636b52616e6765a264697066735822122081ad29c2d1b23e254268c2db4657c737d0b9242ee549ccae05b9c56895520bdb64736f6c63430008110033",
  "libraries": {
    "AlgebraLib": "0x5649FE92EF79Ad84cE87905e10eBaabD5b1575C8",
    "AlgebraDebtLib": "0xAf7EA067dc73a59D909ebEb5Fc8fF58b7EfEE763",
    "ConverterStrategyBaseLib2": "0xd046d0428bDD6D5cCf67fE2cbC8d5039c24A8f6a",
    "PairBasedStrategyLogicLib": "0xF9a2e80F33DCd31D67afa675b6A31af09cd9430d",
    "PairBasedStrategyLib": "0xDAFAF8466Da28008b20C244f3242B0439922F018"
  },
  "devdoc": {
    "events": {
      "CoverLoss(uint256,uint256)": {
        "params": {
          "coveredByRewards": "Part of the loss covered by rewards",
          "loss": "Total amount of loss"
        }
      }
    },
    "kind": "dev",
    "methods": {
      "exit(AlgebraConverterStrategyLogicLib.State storage,uint128,bool)": {
        "params": {
          "emergency": "Emergency exit (only withdraw, don't claim any rewards or make any other additional actions)"
        }
      },
      "getEntryDataProportions(IAlgebraPool,int24,int24,bool)": {
        "params": {
          "depositorSwapTokens": "A boolean indicating if need to use token B instead of token A.",
          "lowerTick": "The lower tick of the pool's main range.",
          "pool": "Pool instance.",
          "upperTick": "The upper tick of the pool's main range."
        },
        "returns": {
          "_0": "prop0 Proportion onf token A. Any decimals are allowed, prop[0 or 1]/(prop0 + prop1) are important only",
          "_1": "prop1 Proportion onf token B. Any decimals are allowed, prop[0 or 1]/(prop0 + prop1) are important only"
        }
      },
      "initStrategyState(AlgebraConverterStrategyLogicLib.State storage,address[2],int24,int24,address,bool,uint256[4])": {
        "params": {
          "controllerPool": "[controller, pool]",
          "fuseThresholds": "Fuse thresholds for tokens (stable pool only)"
        }
      },
      "needStrategyRebalance(PairBasedStrategyLogicLib.PairState storage,ITetuConverter)": {
        "returns": {
          "needRebalance": "A boolean indicating if {rebalanceNoSwaps} should be called"
        }
      },
      "rebalanceNoSwaps(IConverterStrategyBase.ConverterStrategyBaseState storage,PairBasedStrategyLogicLib.PairState storage,address[2],uint256,uint256,address,bool,mapping(address => uint256) storage)": {
        "params": {
          "checkNeedRebalance_": "True if the function should ensure that the rebalance is required",
          "converterLiquidator": "[TetuConverter, TetuLiquidator]",
          "totalAssets_": "Current value of totalAssets()"
        },
        "returns": {
          "tokenAmounts": "Token amounts for deposit. If length == 0 - rebalance wasn't made and no deposit is required."
        }
      },
      "withdrawByAggStep(IConverterStrategyBase.ConverterStrategyBaseState storage,address[5],uint256[4],bytes,bytes,PairBasedStrategyLogicLib.PairState storage,mapping(address => uint256) storage)": {
        "params": {
          "addr_": "[tokenToSwap, aggregator, controller, converter, splitter]",
          "values_": "[amountToSwap_, profitToCover, oldTotalAssets, entryToPool]"
        },
        "returns": {
          "completed": "All debts were closed, leftovers were swapped to proper proportions",
          "tokenAmountsOut": "Amounts to be deposited to pool. This array is empty if no deposit allowed/required."
        }
      }
    },
    "version": 1
  },
  "userdoc": {
    "kind": "user",
    "methods": {
      "getEntryDataProportions(IAlgebraPool,int24,int24,bool)": {
        "notice": "Calculate proportions of the tokens for entry kind 1"
      },
      "getPropNotUnderlying18(PairBasedStrategyLogicLib.PairState storage)": {
        "notice": "Get proportion of not-underlying in the pool, [0...1e18]         prop.underlying : prop.not.underlying = 1e18 - PropNotUnderlying18 : propNotUnderlying18"
      },
      "needStrategyRebalance(PairBasedStrategyLogicLib.PairState storage,ITetuConverter)": {
        "notice": "Determine if the strategy needs to be rebalanced."
      },
      "rebalanceNoSwaps(IConverterStrategyBase.ConverterStrategyBaseState storage,PairBasedStrategyLogicLib.PairState storage,address[2],uint256,uint256,address,bool,mapping(address => uint256) storage)": {
        "notice": "Make rebalance without swaps (using borrowing only)."
      }
    },
    "version": 1
  },
  "storageLayout": {
    "storage": [],
    "types": null
  }
}