{
  "address": "0xDB72631E9537F870a06fc1Ef6c46fDd4a57710Cc",
  "abi": [
    {
      "anonymous": false,
      "inputs": [
        {
          "indexed": false,
          "internalType": "address",
          "name": "controller",
          "type": "address"
        },
        {
          "indexed": false,
          "internalType": "uint256",
          "name": "ts",
          "type": "uint256"
        },
        {
          "indexed": false,
          "internalType": "uint256",
          "name": "block",
          "type": "uint256"
        }
      ],
      "name": "ContractInitialized",
      "type": "event"
    },
    {
      "anonymous": false,
      "inputs": [
        {
          "indexed": false,
          "internalType": "uint8",
          "name": "version",
          "type": "uint8"
        }
      ],
      "name": "Initialized",
      "type": "event"
    },
    {
      "anonymous": false,
      "inputs": [
        {
          "indexed": false,
          "internalType": "uint256[]",
          "name": "withdrawnAmounts",
          "type": "uint256[]"
        }
      ],
      "name": "OnDepositorEmergencyExit",
      "type": "event"
    },
    {
      "anonymous": false,
      "inputs": [
        {
          "indexed": false,
          "internalType": "uint256[]",
          "name": "amounts",
          "type": "uint256[]"
        },
        {
          "indexed": false,
          "internalType": "uint256[]",
          "name": "consumedAmounts",
          "type": "uint256[]"
        }
      ],
      "name": "OnDepositorEnter",
      "type": "event"
    },
    {
      "anonymous": false,
      "inputs": [
        {
          "indexed": false,
          "internalType": "uint256",
          "name": "liquidityAmount",
          "type": "uint256"
        },
        {
          "indexed": false,
          "internalType": "uint256[]",
          "name": "withdrawnAmounts",
          "type": "uint256[]"
        }
      ],
      "name": "OnDepositorExit",
      "type": "event"
    },
    {
      "anonymous": false,
      "inputs": [
        {
          "indexed": false,
          "internalType": "uint256",
          "name": "investedAssetsNewPrices",
          "type": "uint256"
        },
        {
          "indexed": false,
          "internalType": "uint256",
          "name": "earnedByPrices",
          "type": "uint256"
        },
        {
          "indexed": false,
          "internalType": "uint256",
          "name": "earnedHandleRewards",
          "type": "uint256"
        },
        {
          "indexed": false,
          "internalType": "uint256",
          "name": "lostHandleRewards",
          "type": "uint256"
        },
        {
          "indexed": false,
          "internalType": "uint256",
          "name": "earnedDeposit",
          "type": "uint256"
        },
        {
          "indexed": false,
          "internalType": "uint256",
          "name": "lostDeposit",
          "type": "uint256"
        }
      ],
      "name": "OnHardWorkEarnedLost",
      "type": "event"
    },
    {
      "anonymous": false,
      "inputs": [
        {
          "indexed": false,
          "internalType": "address[]",
          "name": "rewardTokens",
          "type": "address[]"
        },
        {
          "indexed": false,
          "internalType": "uint256[]",
          "name": "amountsToForward",
          "type": "uint256[]"
        },
        {
          "indexed": false,
          "internalType": "uint256",
          "name": "toPerf",
          "type": "uint256"
        },
        {
          "indexed": false,
          "internalType": "uint256",
          "name": "toInsurance",
          "type": "uint256"
        }
      ],
      "name": "Recycle",
      "type": "event"
    },
    {
      "anonymous": false,
      "inputs": [
        {
          "indexed": false,
          "internalType": "uint256",
          "name": "value",
          "type": "uint256"
        },
        {
          "indexed": false,
          "internalType": "address",
          "name": "oldLogic",
          "type": "address"
        }
      ],
      "name": "RevisionIncreased",
      "type": "event"
    },
    {
      "inputs": [],
      "name": "Algebra_DEPOSITOR_VERSION",
      "outputs": [
        {
          "internalType": "string",
          "name": "",
          "type": "string"
        }
      ],
      "stateMutability": "view",
      "type": "function"
    },
    {
      "inputs": [],
      "name": "CONTROLLABLE_VERSION",
      "outputs": [
        {
          "internalType": "string",
          "name": "",
          "type": "string"
        }
      ],
      "stateMutability": "view",
      "type": "function"
    },
    {
      "inputs": [],
      "name": "CONVERTER_STRATEGY_BASE_VERSION",
      "outputs": [
        {
          "internalType": "string",
          "name": "",
          "type": "string"
        }
      ],
      "stateMutability": "view",
      "type": "function"
    },
    {
      "inputs": [],
      "name": "NAME",
      "outputs": [
        {
          "internalType": "string",
          "name": "",
          "type": "string"
        }
      ],
      "stateMutability": "view",
      "type": "function"
    },
    {
      "inputs": [],
      "name": "PLATFORM",
      "outputs": [
        {
          "internalType": "string",
          "name": "",
          "type": "string"
        }
      ],
      "stateMutability": "view",
      "type": "function"
    },
    {
      "inputs": [],
      "name": "STRATEGY_BASE_VERSION",
      "outputs": [
        {
          "internalType": "string",
          "name": "",
          "type": "string"
        }
      ],
      "stateMutability": "view",
      "type": "function"
    },
    {
      "inputs": [],
      "name": "STRATEGY_VERSION",
      "outputs": [
        {
          "internalType": "string",
          "name": "",
          "type": "string"
        }
      ],
      "stateMutability": "view",
      "type": "function"
    },
    {
      "inputs": [],
      "name": "asset",
      "outputs": [
        {
          "internalType": "address",
          "name": "",
          "type": "address"
        }
      ],
      "stateMutability": "view",
      "type": "function"
    },
    {
      "inputs": [],
      "name": "calcInvestedAssets",
      "outputs": [
        {
          "internalType": "uint256",
          "name": "",
          "type": "uint256"
        }
      ],
      "stateMutability": "nonpayable",
      "type": "function"
    },
    {
      "inputs": [],
      "name": "capacity",
      "outputs": [
        {
          "internalType": "uint256",
          "name": "",
          "type": "uint256"
        }
      ],
      "stateMutability": "view",
      "type": "function"
    },
    {
      "inputs": [],
      "name": "claim",
      "outputs": [],
      "stateMutability": "nonpayable",
      "type": "function"
    },
    {
      "inputs": [],
      "name": "compoundRatio",
      "outputs": [
        {
          "internalType": "uint256",
          "name": "",
          "type": "uint256"
        }
      ],
      "stateMutability": "view",
      "type": "function"
    },
    {
      "inputs": [],
      "name": "controller",
      "outputs": [
        {
          "internalType": "address",
          "name": "",
          "type": "address"
        }
      ],
      "stateMutability": "view",
      "type": "function"
    },
    {
      "inputs": [],
      "name": "converter",
      "outputs": [
        {
          "internalType": "contract ITetuConverter",
          "name": "",
          "type": "address"
        }
      ],
      "stateMutability": "view",
      "type": "function"
    },
    {
      "inputs": [],
      "name": "created",
      "outputs": [
        {
          "internalType": "uint256",
          "name": "",
          "type": "uint256"
        }
      ],
      "stateMutability": "view",
      "type": "function"
    },
    {
      "inputs": [],
      "name": "createdBlock",
      "outputs": [
        {
          "internalType": "uint256",
          "name": "",
          "type": "uint256"
        }
      ],
      "stateMutability": "view",
      "type": "function"
    },
    {
      "inputs": [],
      "name": "disableFuse",
      "outputs": [],
      "stateMutability": "nonpayable",
      "type": "function"
    },
    {
      "inputs": [],
      "name": "doHardWork",
      "outputs": [
        {
          "internalType": "uint256",
          "name": "earned",
          "type": "uint256"
        },
        {
          "internalType": "uint256",
          "name": "lost",
          "type": "uint256"
        }
      ],
      "stateMutability": "nonpayable",
      "type": "function"
    },
    {
      "inputs": [],
      "name": "emergencyExit",
      "outputs": [],
      "stateMutability": "nonpayable",
      "type": "function"
    },
    {
      "inputs": [],
      "name": "getFees",
      "outputs": [
        {
          "internalType": "uint256",
          "name": "fee0",
          "type": "uint256"
        },
        {
          "internalType": "uint256",
          "name": "fee1",
          "type": "uint256"
        }
      ],
      "stateMutability": "view",
      "type": "function"
    },
    {
      "inputs": [],
      "name": "getState",
      "outputs": [
        {
          "internalType": "address",
          "name": "tokenA",
          "type": "address"
        },
        {
          "internalType": "address",
          "name": "tokenB",
          "type": "address"
        },
        {
          "internalType": "contract IAlgebraPool",
          "name": "pool",
          "type": "address"
        },
        {
          "internalType": "int24",
          "name": "tickSpacing",
          "type": "int24"
        },
        {
          "internalType": "int24",
          "name": "lowerTick",
          "type": "int24"
        },
        {
          "internalType": "int24",
          "name": "upperTick",
          "type": "int24"
        },
        {
          "internalType": "int24",
          "name": "rebalanceTickRange",
          "type": "int24"
        },
        {
          "internalType": "uint128",
          "name": "totalLiquidity",
          "type": "uint128"
        },
        {
          "internalType": "bool",
          "name": "isFuseTriggered",
          "type": "bool"
        },
        {
          "internalType": "uint256",
          "name": "fuseThreshold",
          "type": "uint256"
        },
        {
          "internalType": "address",
          "name": "profitHolder",
          "type": "address"
        },
        {
          "internalType": "uint256[]",
          "name": "profitHolderBalances",
          "type": "uint256[]"
        }
      ],
      "stateMutability": "view",
      "type": "function"
    },
    {
      "inputs": [
        {
          "internalType": "address",
          "name": "oldLogic",
          "type": "address"
        }
      ],
      "name": "increaseRevision",
      "outputs": [],
      "stateMutability": "nonpayable",
      "type": "function"
    },
    {
      "inputs": [
        {
          "internalType": "address",
          "name": "controller_",
          "type": "address"
        },
        {
          "internalType": "address",
          "name": "splitter_",
          "type": "address"
        },
        {
          "internalType": "address",
          "name": "converter_",
          "type": "address"
        },
        {
          "internalType": "address",
          "name": "pool_",
          "type": "address"
        },
        {
          "internalType": "int24",
          "name": "tickRange_",
          "type": "int24"
        },
        {
          "internalType": "int24",
          "name": "rebalanceTickRange_",
          "type": "int24"
        },
        {
          "internalType": "bool",
          "name": "isStablePool",
          "type": "bool"
        },
        {
          "components": [
            {
              "internalType": "address",
              "name": "rewardToken",
              "type": "address"
            },
            {
              "internalType": "address",
              "name": "bonusRewardToken",
              "type": "address"
            },
            {
              "internalType": "address",
              "name": "pool",
              "type": "address"
            },
            {
              "internalType": "uint256",
              "name": "startTime",
              "type": "uint256"
            },
            {
              "internalType": "uint256",
              "name": "endTime",
              "type": "uint256"
            }
          ],
          "internalType": "struct IncentiveKey",
          "name": "key",
          "type": "tuple"
        }
      ],
      "name": "init",
      "outputs": [],
      "stateMutability": "nonpayable",
      "type": "function"
    },
    {
      "inputs": [
        {
          "internalType": "uint256",
          "name": "",
          "type": "uint256"
        },
        {
          "internalType": "bool",
          "name": "updateTotalAssetsBeforeInvest_",
          "type": "bool"
        }
      ],
      "name": "investAll",
      "outputs": [
        {
          "internalType": "uint256",
          "name": "strategyLoss",
          "type": "uint256"
        }
      ],
      "stateMutability": "nonpayable",
      "type": "function"
    },
    {
      "inputs": [],
      "name": "investedAssets",
      "outputs": [
        {
          "internalType": "uint256",
          "name": "",
          "type": "uint256"
        }
      ],
      "stateMutability": "view",
      "type": "function"
    },
    {
      "inputs": [
        {
          "internalType": "address",
          "name": "_value",
          "type": "address"
        }
      ],
      "name": "isController",
      "outputs": [
        {
          "internalType": "bool",
          "name": "",
          "type": "bool"
        }
      ],
      "stateMutability": "view",
      "type": "function"
    },
    {
      "inputs": [
        {
          "internalType": "address",
          "name": "_value",
          "type": "address"
        }
      ],
      "name": "isGovernance",
      "outputs": [
        {
          "internalType": "bool",
          "name": "",
          "type": "bool"
        }
      ],
      "stateMutability": "view",
      "type": "function"
    },
    {
      "inputs": [],
      "name": "isReadyToHardWork",
      "outputs": [
        {
          "internalType": "bool",
          "name": "",
          "type": "bool"
        }
      ],
      "stateMutability": "view",
      "type": "function"
    },
    {
      "inputs": [
        {
          "internalType": "address",
          "name": "",
          "type": "address"
        }
      ],
      "name": "liquidationThresholds",
      "outputs": [
        {
          "internalType": "uint256",
          "name": "",
          "type": "uint256"
        }
      ],
      "stateMutability": "view",
      "type": "function"
    },
    {
      "inputs": [],
      "name": "needRebalance",
      "outputs": [
        {
          "internalType": "bool",
          "name": "",
          "type": "bool"
        }
      ],
      "stateMutability": "view",
      "type": "function"
    },
    {
      "inputs": [
        {
          "internalType": "address",
          "name": "",
          "type": "address"
        },
        {
          "internalType": "address",
          "name": "",
          "type": "address"
        },
        {
          "internalType": "uint256",
          "name": "",
          "type": "uint256"
        },
        {
          "internalType": "bytes",
          "name": "",
          "type": "bytes"
        }
      ],
      "name": "onERC721Received",
      "outputs": [
        {
          "internalType": "bytes4",
          "name": "",
          "type": "bytes4"
        }
      ],
      "stateMutability": "pure",
      "type": "function"
    },
    {
      "inputs": [
        {
          "internalType": "address[]",
          "name": "assets_",
          "type": "address[]"
        },
        {
          "internalType": "uint256[]",
          "name": "amounts_",
          "type": "uint256[]"
        }
      ],
      "name": "onTransferAmounts",
      "outputs": [],
      "stateMutability": "nonpayable",
      "type": "function"
    },
    {
      "inputs": [],
      "name": "performanceFee",
      "outputs": [
        {
          "internalType": "uint256",
          "name": "",
          "type": "uint256"
        }
      ],
      "stateMutability": "view",
      "type": "function"
    },
    {
      "inputs": [],
      "name": "performanceFeeRatio",
      "outputs": [
        {
          "internalType": "uint256",
          "name": "",
          "type": "uint256"
        }
      ],
      "stateMutability": "view",
      "type": "function"
    },
    {
      "inputs": [],
      "name": "performanceReceiver",
      "outputs": [
        {
          "internalType": "address",
          "name": "",
          "type": "address"
        }
      ],
      "stateMutability": "view",
      "type": "function"
    },
    {
      "inputs": [],
      "name": "previousImplementation",
      "outputs": [
        {
          "internalType": "address",
          "name": "",
          "type": "address"
        }
      ],
      "stateMutability": "view",
      "type": "function"
    },
    {
      "inputs": [],
      "name": "quoteRebalanceSwap",
      "outputs": [
        {
          "internalType": "bool",
          "name": "",
          "type": "bool"
        },
        {
          "internalType": "uint256",
          "name": "",
          "type": "uint256"
        }
      ],
      "stateMutability": "nonpayable",
      "type": "function"
    },
    {
      "inputs": [],
      "name": "rebalance",
      "outputs": [],
      "stateMutability": "nonpayable",
      "type": "function"
    },
    {
      "inputs": [
        {
          "internalType": "bool",
          "name": "direction",
          "type": "bool"
        },
        {
          "internalType": "uint256",
          "name": "amount",
          "type": "uint256"
        },
        {
          "internalType": "address",
          "name": "agg",
          "type": "address"
        },
        {
          "internalType": "bytes",
          "name": "swapData",
          "type": "bytes"
        }
      ],
      "name": "rebalanceSwapByAgg",
      "outputs": [],
      "stateMutability": "nonpayable",
      "type": "function"
    },
    {
      "inputs": [],
      "name": "reinvestThresholdPercent",
      "outputs": [
        {
          "internalType": "uint256",
          "name": "",
          "type": "uint256"
        }
      ],
      "stateMutability": "view",
      "type": "function"
    },
    {
      "inputs": [
        {
          "internalType": "address",
          "name": "theAsset_",
          "type": "address"
        },
        {
          "internalType": "uint256",
          "name": "amount_",
          "type": "uint256"
        }
      ],
      "name": "requirePayAmountBack",
      "outputs": [
        {
          "internalType": "uint256",
          "name": "amountOut",
          "type": "uint256"
        }
      ],
      "stateMutability": "nonpayable",
      "type": "function"
    },
    {
      "inputs": [],
      "name": "revision",
      "outputs": [
        {
          "internalType": "uint256",
          "name": "",
          "type": "uint256"
        }
      ],
      "stateMutability": "view",
      "type": "function"
    },
    {
      "inputs": [
        {
          "internalType": "uint256",
          "name": "value",
          "type": "uint256"
        }
      ],
      "name": "setCompoundRatio",
      "outputs": [],
      "stateMutability": "nonpayable",
      "type": "function"
    },
    {
      "inputs": [
        {
          "internalType": "uint256",
          "name": "newFuseThreshold",
          "type": "uint256"
        }
      ],
      "name": "setFuseThreshold",
      "outputs": [],
      "stateMutability": "nonpayable",
      "type": "function"
    },
    {
      "inputs": [
        {
          "internalType": "address",
          "name": "token",
          "type": "address"
        },
        {
          "internalType": "uint256",
          "name": "amount",
          "type": "uint256"
        }
      ],
      "name": "setLiquidationThreshold",
      "outputs": [],
      "stateMutability": "nonpayable",
      "type": "function"
    },
    {
      "inputs": [
        {
          "internalType": "uint256",
          "name": "ratio_",
          "type": "uint256"
        }
      ],
      "name": "setPerformanceFeeRatio",
      "outputs": [],
      "stateMutability": "nonpayable",
      "type": "function"
    },
    {
      "inputs": [
        {
          "internalType": "uint256",
          "name": "percent_",
          "type": "uint256"
        }
      ],
      "name": "setReinvestThresholdPercent",
      "outputs": [],
      "stateMutability": "nonpayable",
      "type": "function"
    },
    {
      "inputs": [
        {
          "internalType": "address",
          "name": "strategyProfitHolder",
          "type": "address"
        }
      ],
      "name": "setStrategyProfitHolder",
      "outputs": [],
      "stateMutability": "nonpayable",
      "type": "function"
    },
    {
      "inputs": [
        {
          "internalType": "string",
          "name": "name",
          "type": "string"
        }
      ],
      "name": "setStrategySpecificName",
      "outputs": [],
      "stateMutability": "nonpayable",
      "type": "function"
    },
    {
      "inputs": [
        {
          "internalType": "uint256",
          "name": "fee_",
          "type": "uint256"
        },
        {
          "internalType": "address",
          "name": "receiver_",
          "type": "address"
        }
      ],
      "name": "setupPerformanceFee",
      "outputs": [],
      "stateMutability": "nonpayable",
      "type": "function"
    },
    {
      "inputs": [],
      "name": "splitter",
      "outputs": [
        {
          "internalType": "address",
          "name": "",
          "type": "address"
        }
      ],
      "stateMutability": "view",
      "type": "function"
    },
    {
      "inputs": [],
      "name": "strategySpecificName",
      "outputs": [
        {
          "internalType": "string",
          "name": "",
          "type": "string"
        }
      ],
      "stateMutability": "view",
      "type": "function"
    },
    {
      "inputs": [
        {
          "internalType": "bytes4",
          "name": "interfaceId",
          "type": "bytes4"
        }
      ],
      "name": "supportsInterface",
      "outputs": [
        {
          "internalType": "bool",
          "name": "",
          "type": "bool"
        }
      ],
      "stateMutability": "view",
      "type": "function"
    },
    {
      "inputs": [],
      "name": "totalAssets",
      "outputs": [
        {
          "internalType": "uint256",
          "name": "",
          "type": "uint256"
        }
      ],
      "stateMutability": "view",
      "type": "function"
    },
    {
      "inputs": [],
      "name": "withdrawAllToSplitter",
      "outputs": [
        {
          "internalType": "uint256",
          "name": "strategyLoss",
          "type": "uint256"
        }
      ],
      "stateMutability": "nonpayable",
      "type": "function"
    },
    {
      "inputs": [
        {
          "internalType": "uint256",
          "name": "amount",
          "type": "uint256"
        }
      ],
      "name": "withdrawToSplitter",
      "outputs": [
        {
          "internalType": "uint256",
          "name": "strategyLoss",
          "type": "uint256"
        }
      ],
      "stateMutability": "nonpayable",
      "type": "function"
    }
  ],
  "transactionHash": "0xfd23e03c01654515698c4e76c8e08a991e715f345df4fad2a82f116ac7570dbb",
  "args": [],
  "numDeployments": 3,
  "solcInputHash": "37cbb0b08dc1b84296697a934525a023",
  "bytecode": "0x60806040523480156200001157600080fd5b506200001c62000022565b620000e3565b600054610100900460ff16156200008f5760405162461bcd60e51b815260206004820152602760248201527f496e697469616c697a61626c653a20636f6e747261637420697320696e697469604482015266616c697a696e6760c81b606482015260840160405180910390fd5b60005460ff90811614620000e1576000805460ff191660ff9081179091556040519081527f7f26b83ff96e1f2b6a682f133852f6798a09c465da95921460cefb38474024989060200160405180910390a15b565b615d3880620000f36000396000f3fe608060405234801561001057600080fd5b50600436106102f85760003560e01c80636ffb4c8e11610193578063b2457556116100e4578063db8d55f111610092578063db8d55f1146106ca578063de3d047c146106d2578063dee1f0e4146106e5578063e15c5fd2146106f8578063eb5620db1461070b578063f77c47911461071e578063ffb86c6a1461072657600080fd5b8063b245755614610651578063b429afeb14610664578063b7e01a51146104bf578063bd38837b14610677578063cd4c81561461068a578063ceee861d1461069d578063d295ea70146106c157600080fd5b8063877887821161014157806387788782146105b257806387c7f770146105bb578063936725ec146105ce57806396b7b14e146105f25780639d0bcca014610605578063a3f4df7e1461060d578063ab9e3eee1461064957600080fd5b80636ffb4c8e1461051c57806371ee01751461052f57806373a50ef514610538578063783274381461055c5780637cc963801461057c5780637d7c2a1c146105845780637efc77fa1461058c57600080fd5b80634593144c1161024d57806354679963116101fb57806354679963146104985780635641ec03146104ad5780635cfc1a51146104b55780636207a0cf146104bf57806363e27734146104e35780636855f30e146104f65780636b5fba5a1461050957600080fd5b80634593144c1461041e5780634ad0b684146104265780634e71d92d1461042e5780634fa5d854146104365780634fac6ccd1461045357806351b9c8341461046657806351e03fbe1461048557600080fd5b8063261efa12116102aa578063261efa12146103b757806328abdef0146103c0578063321793a8146103c8578063325a19f1146103db57806333c5b58e146103e357806338d52e0f146103eb5780633cd8045e1461040b57600080fd5b806301e1d114146102fd57806301ffc9a7146103185780630acd12c71461033b5780630e30428d14610343578063150b7a02146103585780631865c57d1461038457806322b6f5e2146103a4575b600080fd5b61030561072e565b6040519081526020015b60405180910390f35b61032b610326366004614912565b6107b9565b604051901515815260200161030f565b6103056107e4565b610356610351366004614951565b610906565b005b61036b610366366004614a68565b6109aa565b6040516001600160e01b0319909116815260200161030f565b61038c6109bb565b60405161030f9c9b9a99989796959493929190614b0e565b6103566103b2366004614bac565b610c8a565b61030560745481565b610356610d3a565b6103566103d6366004614bdc565b610eb3565b610305610f8c565b610305610fc0565b603e546103fe906001600160a01b031681565b60405161030f9190614bf5565b603f546103fe906001600160a01b031681565b610305611038565b607054610305565b610356611068565b61043e6110e2565b6040805192835260208301919091520161030f565b610356610461366004614c09565b611150565b61046e611282565b60408051921515835260208301919091520161030f565b610305610493366004614bdc565b61130d565b6104a06114d5565b60405161030f9190614c76565b610356611563565b600160ff1b610305565b6104a0604051806040016040528060058152602001640312e302e360dc1b81525081565b6103566104f1366004614c89565b6115e3565b610356610504366004614bdc565b61166a565b610356610517366004614c09565b6116f2565b61035661052a366004614bdc565b611783565b61030560735481565b6104a0604051806040016040528060058152602001640322e332e360dc1b81525081565b61030561056a366004614c09565b60726020526000908152604090205481565b61030561180b565b61035661183b565b6104a060405180604001604052806007815260200166416c676562726160c81b81525081565b61030560435481565b6103056105c9366004614951565b6119c5565b6104a0604051806040016040528060058152602001640332e302e360dc1b81525081565b610356610600366004614d83565b611b50565b6103fe611bef565b6104a06040518060400160405280601a81526020017f416c676562726120436f6e76657274657220537472617465677900000000000081525081565b61032b611c1f565b61030561065f366004614e52565b611ccc565b61032b610672366004614c09565b611d7b565b6071546103fe906001600160a01b031681565b6042546103fe906001600160a01b031681565b6104a0604051806040016040528060058152602001640312e322e360dc1b81525081565b61030560405481565b61043e611da0565b6103566106e0366004614bdc565b611e18565b61032b6106f3366004614c09565b611ea8565b610356610706366004614e8e565b611f2d565b610356610719366004614f90565b6122ba565b6103fe612451565b61032b612481565b600061073960705490565b603e546040516370a0823160e01b81526001600160a01b03909116906370a0823190610769903090600401614bf5565b602060405180830381865afa158015610786573d6000803e3d6000fd5b505050506040513d601f19601f820116820180604052508101906107aa9190614fe3565b6107b49190615012565b905090565b60006001600160e01b0319821663f73147b360e01b14806107de57506107de826124bc565b92915050565b603f54603e54604051633e53813360e11b81526000926001600160a01b039081169216908390733BEB969c0cd273eA1d7a39137a757Cf1c474510a90637ca70266906108369086908690600401615025565b602060405180830381865af4158015610853573d6000803e3d6000fd5b505050506040513d601f19601f820116820180604052508101906108779190614fe3565b905060008060006108866124e1565b925092509250733BEB969c0cd273eA1d7a39137a757Cf1c474510a639ad00ec2868686868b6040518663ffffffff1660e01b81526004016108cb95949392919061503f565b60006040518083038186803b1580156108e357600080fd5b505af41580156108f7573d6000803e3d6000fd5b50929998505050505050505050565b733C8b18162cBb11B9D0afe3828f4A6C6e247f30E063142395ef610928612451565b6040516001600160e01b031960e084901b1681526001600160a01b03918216600482015290851660248201526044810184905260640160006040518083038186803b15801561097657600080fd5b505af415801561098a573d6000803e3d6000fd5b5050506001600160a01b0390921660009081526072602052604090205550565b630a85bd0160e11b5b949350505050565b60028054600354600480546005546006546001546040805186815260a081019091526001600160a01b03978816989688169780861697600160a01b808804820b98600160c01b8904830b98600160d81b9004830b979283900b96600160201b84046001600160801b0316969290930460ff16949293909116916060916020820160808036833750506040516370a0823160e01b8152919250506001600160a01b038d16906370a0823190610a73908590600401614bf5565b602060405180830381865afa158015610a90573d6000803e3d6000fd5b505050506040513d601f19601f82011682018060405250810190610ab49190614fe3565b81600081518110610ac757610ac761506f565b60209081029190910101526040516370a0823160e01b81526001600160a01b038c16906370a0823190610afe908590600401614bf5565b602060405180830381865afa158015610b1b573d6000803e3d6000fd5b505050506040513d601f19601f82011682018060405250810190610b3f9190614fe3565b81600181518110610b5257610b5261506f565b60209081029190910101526009546040516370a0823160e01b81526001600160a01b03909116906370a0823190610b8d908590600401614bf5565b602060405180830381865afa158015610baa573d6000803e3d6000fd5b505050506040513d601f19601f82011682018060405250810190610bce9190614fe3565b81600281518110610be157610be161506f565b6020908102919091010152600a546040516370a0823160e01b81526001600160a01b03909116906370a0823190610c1c908590600401614bf5565b602060405180830381865afa158015610c39573d6000803e3d6000fd5b505050506040513d601f19601f82011682018060405250810190610c5d9190614fe3565b81600381518110610c7057610c7061506f565b602002602001018181525050909192939495969798999a9b565b733BEB969c0cd273eA1d7a39137a757Cf1c474510a63b4339948610cac612451565b6040516001600160e01b031960e084901b1681526001600160a01b03918216600482015260248101869052908416604482015260640160006040518083038186803b158015610cfa57600080fd5b505af4158015610d0e573d6000803e3d6000fd5b505050604392909255604280546001600160a01b0319166001600160a01b039290921691909117905550565b733BEB969c0cd273eA1d7a39137a757Cf1c474510a63493f6edc610d5c612451565b6040518263ffffffff1660e01b8152600401610d789190614bf5565b60006040518083038186803b158015610d9057600080fd5b505af4158015610da4573d6000803e3d6000fd5b50506005805460ff60a01b191690555050607154600254600354604051637fd6c0a160e01b81526001600160a01b039384166004820152918316602483015291909116604482015273f4A4Cb063457F36E434E5D93a9A2286f65e22d6f90637fd6c0a190606401602060405180830381865af4158015610e28573d6000803e3d6000fd5b505050506040513d601f19601f82011682018060405250810190610e4c9190614fe3565b60016006018190555073f4A4Cb063457F36E434E5D93a9A2286f65e22d6f63f460770b6040518163ffffffff1660e01b815260040160006040518083038186803b158015610e9957600080fd5b505af4158015610ead573d6000803e3d6000fd5b50505050565b733BEB969c0cd273eA1d7a39137a757Cf1c474510a63493f6edc610ed5612451565b6040518263ffffffff1660e01b8152600401610ef19190614bf5565b60006040518083038186803b158015610f0957600080fd5b505af4158015610f1d573d6000803e3d6000fd5b505050600682905550604051631c77945b60e31b81526004810182905273f4A4Cb063457F36E434E5D93a9A2286f65e22d6f9063e3bca2d89060240160006040518083038186803b158015610f7157600080fd5b505af4158015610f85573d6000803e3d6000fd5b5050505050565b60006107b4610fbc60017f6f55f470bdc9cb5f04223fd822021061668e4dccb43e8727b295106dc9769c8b615085565b5490565b6000733BEB969c0cd273eA1d7a39137a757Cf1c474510a63493f6edc610fe4612451565b6040518263ffffffff1660e01b81526004016110009190614bf5565b60006040518083038186803b15801561101857600080fd5b505af415801561102c573d6000803e3d6000fd5b505050506107b46124fc565b60006107b4610fbc60017f812a673dfca07956350df10f8a654925f561d7a0da09bdbe79e653939a14d9f1615085565b733BEB969c0cd273eA1d7a39137a757Cf1c474510a63d19cc38a61108a612451565b6040518263ffffffff1660e01b81526004016110a69190614bf5565b60006040518083038186803b1580156110be57600080fd5b505af41580156110d2573d6000803e3d6000fd5b505050506110de6125d4565b5050565b603f5460408051808201909152600a81526914d08e8811195b9a595960b21b60208201526000918291906001600160a01b0316331461113d5760405162461bcd60e51b81526004016111349190614c76565b60405180910390fd5b506111486001612690565b915091509091565b33301461119f5760405162461bcd60e51b815260206004820152601b60248201527f496e637265617365207265766973696f6e20666f7262696464656e00000000006044820152606401611134565b60006111cf610fbc60017f22573091f17911fb166032a3d9e0554aa73d31b7b7ddea4a4dd2995650af84bd615085565b6111da906001615012565b905061120e8161120b60017f22573091f17911fb166032a3d9e0554aa73d31b7b7ddea4a4dd2995650af84bd615085565b55565b61123d8261120b60017fbfaaa2fb63266ff27c2da975f5894955056f50419af651a81f6c5060581857e4615085565b604080518281526001600160a01b03841660208201527ff27e2ef832a4eb8ed8ec553b875eecd44764cda95b1c24170e281539e0a869c8910160405180910390a15050565b6071546040516314fa32a760e21b8152600160048201526001600160a01b039091166024820152600090819073f4A4Cb063457F36E434E5D93a9A2286f65e22d6f906353e8ca9c906044016040805180830381865af41580156112e9573d6000803e3d6000fd5b505050506040513d601f19601f820116820180604052508101906111489190615098565b603f54603e54604051633e53813360e11b81526000926001600160a01b039081169216908390733BEB969c0cd273eA1d7a39137a757Cf1c474510a90637ca702669061135f9086908690600401615025565b602060405180830381865af415801561137c573d6000803e3d6000fd5b505050506040513d601f19601f820116820180604052508101906113a09190614fe3565b90508085111561144c576000806113bf6113ba8489615085565b6127c4565b604051631594b05b60e01b81529098509193509150733BEB969c0cd273eA1d7a39137a757Cf1c474510a90631594b05b906114069087908790879087908c9060040161503f565b602060405180830381865af4158015611423573d6000803e3d6000fd5b505050506040513d601f19601f820116820180604052508101906114479190614fe3565b925050505b6040516333bbb20360e11b815260048101869052602481018290526001600160a01b03808416604483015284166064820152733BEB969c0cd273eA1d7a39137a757Cf1c474510a9063677764069060840160006040518083038186803b1580156114b557600080fd5b505af41580156114c9573d6000803e3d6000fd5b50505050505050919050565b604480546114e2906150c6565b80601f016020809104026020016040519081016040528092919081815260200182805461150e906150c6565b801561155b5780601f106115305761010080835404028352916020019161155b565b820191906000526020600020905b81548152906001019060200180831161153e57829003601f168201915b505050505081565b61156b6127f5565b733BEB969c0cd273eA1d7a39137a757Cf1c474510a63bd02068261158d612451565b603e54603f5460405160e085901b6001600160e01b03191681526001600160a01b039384166004820152918316602483015291909116604482015260640160006040518083038186803b158015610e9957600080fd5b733BEB969c0cd273eA1d7a39137a757Cf1c474510a63eae13e76611605612451565b84846040518463ffffffff1660e01b815260040161162593929190615100565b60006040518083038186803b15801561163d57600080fd5b505af4158015611651573d6000803e3d6000fd5b50604492506116659150839050848361518e565b505050565b733C8b18162cBb11B9D0afe3828f4A6C6e247f30E063a0113d4861168c612451565b6040516001600160e01b031960e084901b1681526001600160a01b0390911660048201526024810184905260440160006040518083038186803b1580156116d257600080fd5b505af41580156116e6573d6000803e3d6000fd5b50505060749190915550565b733BEB969c0cd273eA1d7a39137a757Cf1c474510a63493f6edc611714612451565b6040518263ffffffff1660e01b81526004016117309190614bf5565b60006040518083038186803b15801561174857600080fd5b505af415801561175c573d6000803e3d6000fd5b5050600180546001600160a01b0319166001600160a01b0394909416939093179092555050565b733C8b18162cBb11B9D0afe3828f4A6C6e247f30E063d2c3cf256117a5612451565b6040516001600160e01b031960e084901b1681526001600160a01b0390911660048201526024810184905260440160006040518083038186803b1580156117eb57600080fd5b505af41580156117ff573d6000803e3d6000fd5b50505060739190915550565b60006107b4610fbc60017f22573091f17911fb166032a3d9e0554aa73d31b7b7ddea4a4dd2995650af84bd615085565b6000611845612451565b60405163124fdbb760e21b8152909150733BEB969c0cd273eA1d7a39137a757Cf1c474510a9063493f6edc9061187f908490600401614bf5565b60006040518083038186803b15801561189757600080fd5b505af41580156118ab573d6000803e3d6000fd5b5050505060006118bb60016128f8565b9150506000816118c961072e565b6118d39190615085565b600554909150600160201b90046001600160801b0316156118f8576118f66129b1565b505b607154603f54604051637424fe9760e11b8152600160048201526001600160a01b03928316602482015285831660448201526064810184905260848101859052911660a482015260009073f4A4Cb063457F36E434E5D93a9A2286f65e22d6f9063e849fd2e9060c401600060405180830381865af415801561197e573d6000803e3d6000fd5b505050506040513d6000823e601f3d908101601f191682016040526119a691908101906152a8565b905080516002036119bd576119ba816129d5565b50505b610f85612a62565b60715460408051808201909152600a81526914d08e8811195b9a595960b21b60208201526000916001600160a01b031690338214611a165760405162461bcd60e51b81526004016111349190614c76565b50600080611a2386612a76565b915091506000611a3287612ae2565b905085811015611a9f57600554600160201b90046001600160801b03168015611a9d576000611a6082612b52565b90507faebc771af58936b05e89b0be7d3f9761480181abcd4a649fbdd01753fda169708282604051611a939291906152dc565b60405180910390a1505b505b734dC0dfFFd2de28f7A822Fe1139127e3dc1Af86FA6399c1fde487848688611ac5612451565b603e546040516001600160e01b031960e089901b168152611afa9695949392916001600160a01b03169060729060040161532e565b602060405180830381865af4158015611b17573d6000803e3d6000fd5b505050506040513d601f19601f82011682018060405250810190611b3b9190614fe3565b9450611b45612a62565b505050505092915050565b60715460408051808201909152600a81526914d08e8811195b9a595960b21b6020820152906001600160a01b03163314611b9d5760405162461bcd60e51b81526004016111349190614c76565b508151815160408051808201909152600d81526c54532d3139206c656e6774687360981b6020820152908214611be65760405162461bcd60e51b81526004016111349190614c76565b50610ead612a62565b60006107b4610fbc60017fbfaaa2fb63266ff27c2da975f5894955056f50419af651a81f6c5060581857e4615085565b60715460009073f4A4Cb063457F36E434E5D93a9A2286f65e22d6f9063d1585fc4906001906001600160a01b0316611c55612451565b6040516001600160e01b031960e086901b16815260048101939093526001600160a01b0391821660248401521660448201526064015b602060405180830381865af4158015611ca8573d6000803e3d6000fd5b505050506040513d601f19601f820116820180604052508101906107b4919061537d565b603f54603e546040516001625acc3160e01b031981526000928392733BEB969c0cd273eA1d7a39137a757Cf1c474510a9263ffa533cf92611d1e926001600160a01b0391821692911690600401615025565b602060405180830381865af4158015611d3b573d6000803e3d6000fd5b505050506040513d601f19601f82011682018060405250810190611d5f9190614fe3565b90508015611d7457611d718184612bdd565b91505b5092915050565b6000611d85612451565b6001600160a01b0316826001600160a01b0316149050919050565b604051632cc58ef960e01b815260016004820152600090819073f4A4Cb063457F36E434E5D93a9A2286f65e22d6f90632cc58ef9906024016040805180830381865af4158015611df4573d6000803e3d6000fd5b505050506040513d601f19601f82011682018060405250810190611148919061539a565b733BEB969c0cd273eA1d7a39137a757Cf1c474510a630568a9d5611e3a612451565b6040805490516001600160e01b031960e085901b1681526001600160a01b03909216600483015260248201526044810184905260640160006040518083038186803b158015611e8857600080fd5b505af4158015611e9c573d6000803e3d6000fd5b50505060409190915550565b6000816001600160a01b0316611ebc612451565b6001600160a01b0316635aa6e6756040518163ffffffff1660e01b8152600401602060405180830381865afa158015611ef9573d6000803e3d6000fd5b505050506040513d601f19601f82011682018060405250810190611f1d91906153be565b6001600160a01b03161492915050565b600054610100900460ff1615808015611f4d5750600054600160ff909116105b80611f675750303b158015611f67575060005460ff166001145b611fca5760405162461bcd60e51b815260206004820152602e60248201527f496e697469616c697a61626c653a20636f6e747261637420697320616c72656160448201526d191e481a5b9a5d1a585b1a5e995960921b6064820152608401611134565b6000805460ff191660011790558015611fed576000805461ff0019166101001790555b611ff8898989612c87565b73f4A4Cb063457F36E434E5D93a9A2286f65e22d6f639fdcbe5060018b8a8a8a8a8f6001600160a01b03166338d52e0f6040518163ffffffff1660e01b8152600401602060405180830381865afa158015612057573d6000803e3d6000fd5b505050506040513d601f19601f8201168201806040525081019061207b91906153be565b6040516001600160e01b031960e08a901b16815260048101979097526001600160a01b03958616602488015293851660448701529184166064860152600290810b60848601520b60a48401521660c482015285151560e48201526101040160006040518083038186803b1580156120f157600080fd5b505af4158015612105573d6000803e3d6000fd5b50506040805163c3724a8960e01b81526001600482015285516001600160a01b03908116602483015260208701518116604483015291860151909116606482015260608501516084820152608085015160a482015273f4A4Cb063457F36E434E5D93a9A2286f65e22d6f925063c3724a89915060c40160006040518083038186803b15801561219357600080fd5b505af41580156121a7573d6000803e3d6000fd5b50506040516340311eef60e01b81526001600482015273f4A4Cb063457F36E434E5D93a9A2286f65e22d6f92506340311eef9150602401600060405180830381865af41580156121fb573d6000803e3d6000fd5b505050506040513d6000823e601f3d908101601f19168201604052612223919081019061540b565b6044906122309082615453565b507f13bdeb5b5bb760c04b92d93e56c576c6805359d41a13d3cca178aa7c8526b98460446040516122619190615512565b60405180910390a180156122af576000805461ff0019169055604051600181527f7f26b83ff96e1f2b6a682f133852f6798a09c465da95921460cefb38474024989060200160405180910390a15b505050505050505050565b60006122c4612451565b60405163124fdbb760e21b8152909150733BEB969c0cd273eA1d7a39137a757Cf1c474510a9063493f6edc906122fe908490600401614bf5565b60006040518083038186803b15801561231657600080fd5b505af415801561232a573d6000803e3d6000fd5b50505050600061233a60016128f8565b91505060008161234861072e565b6123529190615085565b600554909150600160201b90046001600160801b031615612377576123756129b1565b505b607154604080516080810182528915158152602081018990526001600160a01b038881168284015260608201889052603f549251635729f98d60e01b815260009473f4A4Cb063457F36E434E5D93a9A2286f65e22d6f94635729f98d946123ed94600194938116938a938c92169060040161559d565b600060405180830381865af415801561240a573d6000803e3d6000fd5b505050506040513d6000823e601f3d908101601f1916820160405261243291908101906152a8565b9050805160020361244957612446816129d5565b50505b6122af612a62565b60006107b4610fbc60017f5165972ef41194f06c5007493031d0b927c20741adcb74403b954009fd2c3618615085565b60405163e1a91ef360e01b81526001600482015260009073f4A4Cb063457F36E434E5D93a9A2286f65e22d6f9063e1a91ef390602401611c8b565b60006001600160e01b0319821663c19fa56160e01b14806107de57506107de82612d29565b60008060006124f16000196127c4565b925092509250909192565b603e5460009081908190612518906001600160a01b0316612a76565b91509150734dC0dfFFd2de28f7A822Fe1139127e3dc1Af86FA63c9bce690836125596125546005546001600160801b03600160201b9091041690565b612d5e565b6071546040516001600160e01b031960e086901b16815261258c93929187916001600160a01b0390911690600401615615565b602060405180830381865af41580156125a9573d6000803e3d6000fd5b505050506040513d601f19601f820116820180604052508101906125cd9190614fe3565b9250505090565b60608060008060006125e4612da8565b6071549295509093509150733C8b18162cBb11B9D0afe3828f4A6C6e247f30E09063e99de4da906001600160a01b031661261c612e27565b8686866040518663ffffffff1660e01b815260040161263f95949392919061565c565b600060405180830381865af415801561265c573d6000803e3d6000fd5b505050506040513d6000823e601f3d908101601f19168201604052612684919081019061572a565b90969095509350505050565b6000806000806126a060016128f8565b9150915060006126ae612ebe565b9196509450905060006127008780156126c657508415155b80156126ec5750620186a0856073546126df9190615783565b6126e9919061579a565b83115b6126f75760006126f9565b825b8486612f97565b915060009050806127476127148588615012565b603e54859061272b906001600160a01b0316612ae2565b6070546127389190615012565b6127429190615012565b613258565b915091506040805187815260208101879052908101899052606081018890526080810183905260a081018290527f3e9abbc366dbf9fe260e2640c06eefbedd7720cf986ae553374e46b804f4ff559060c00160405180910390a16127ab8289615012565b6127b58289615012565b97509750505050505050915091565b60008060008060006127d660016128f8565b915091506127e5868284613288565b5091989097509095509350505050565b60006127ff6129b1565b90507f768a28cb3459382a3d2173feb2dad0235f8de680b109872da581a3aa269fe5f48160405161283091906157bc565b60405180910390a1603e546000908190612852906001600160a01b0316612a76565b6071549193509150734dC0dfFFd2de28f7A822Fe1139127e3dc1Af86FA906358b54f16906001600160a01b031661288f61288a612451565b613987565b846072600019886040518763ffffffff1660e01b81526004016128b7969594939291906157cf565b602060405180830381865af41580156128d4573d6000803e3d6000fd5b505050506040513d601f19601f82011682018060405250810190611be69190614fe3565b60008082156129a55760705461290c612a62565b603f54604051636e5b9cc760e11b815260048101849052602481018390526001600160a01b039091166044820152909350734dC0dfFFd2de28f7A822Fe1139127e3dc1Af86FA9063dcb7398e90606401602060405180830381865af4158015612979573d6000803e3d6000fd5b505050506040513d601f19601f8201168201806040525081019061299d9190614fe3565b915050915091565b50506070546000915091565b60606107b46129d06005546001600160801b03600160201b9091041690565b612b52565b6060600073f4A4Cb063457F36E434E5D93a9A2286f65e22d6f63b67626216001856040518363ffffffff1660e01b8152600401612a139291906152dc565b600060405180830381865af4158015612a30573d6000803e3d6000fd5b505050506040513d6000823e601f3d908101601f19168201604052612a58919081019061580c565b9094909350915050565b6000612a6c6124fc565b6070819055919050565b60606000612a82612e27565b9150612a8e82846139eb565b90506000198114156040518060400160405280600f81526020016e53423a2057726f6e672076616c756560881b81525090612adc5760405162461bcd60e51b81526004016111349190614c76565b50915091565b6040516370a0823160e01b81526000906001600160a01b038316906370a0823190612b11903090600401614bf5565b602060405180830381865afa158015612b2e573d6000803e3d6000fd5b505050506040513d601f19601f820116820180604052508101906107de9190614fe3565b604051631019287760e11b8152600160048201526001600160801b038216602482015260609073f4A4Cb063457F36E434E5D93a9A2286f65e22d6f9063203250ee906044015b600060405180830381865af4158015612bb5573d6000803e3d6000fd5b505050506040513d6000823e601f3d908101601f191682016040526107de91908101906152a8565b600554600090600160a01b900460ff1615612c76576040805160028082526060820183526000926020830190803683370190505090508381600081518110612c2757612c2761506f565b6020026020010181815250507f59400c8c523464b521238ea8f50e923f2bc64663557e6afec92a97f7efe92d058182604051612c64929190615852565b60405180910390a160009150506107de565b612c808383613a49565b90506107de565b600054610100900460ff16612cae5760405162461bcd60e51b815260040161113490615880565b612cb88383613a70565b607180546001600160a01b0319166001600160a01b038316179055612ce16064620186a061579a565b6073557fe4166dfcf23bbd3e3f764a99dc8fa740554c03c82d6019b81cf265f396f6f2fe612d136064620186a061579a565b60405190815260200160405180910390a1505050565b60006001600160e01b0319821663b7b79fa960e01b14806107de57506301ffc9a760e01b6001600160e01b03198316146107de565b604051630b14654d60e31b8152600160048201526001600160801b038216602482015260609073f4A4Cb063457F36E434E5D93a9A2286f65e22d6f906358a32a6890604401612b98565b60405163f6e2611760e01b8152600160048201526060908190819073f4A4Cb063457F36E434E5D93a9A2286f65e22d6f9063f6e2611790602401600060405180830381865af4158015612dff573d6000803e3d6000fd5b505050506040513d6000823e601f3d908101601f191682016040526124f191908101906158cb565b6040805160028082526060808301845292602083019080368337505060025482519293506001600160a01b031691839150600090612e6757612e6761506f565b6001600160a01b039283166020918202929092010152600354825191169082906001908110612e9857612e9861506f565b60200260200101906001600160a01b031690816001600160a01b03168152505090565b50565b6000806000806000612ece6125d4565b600254919350915073f4A4Cb063457F36E434E5D93a9A2286f65e22d6f906334d2ec3d906001600160a01b0316612f03612451565b85856040518563ffffffff1660e01b8152600401612f249493929190615952565b602060405180830381865af4158015612f41573d6000803e3d6000fd5b505050506040513d601f19601f82011682018060405250810190612f659190614fe3565b9450612f718282613c38565b603e5485908590612f8a906001600160a01b0316612ae2565b9450945094505050909192565b603e5460009081906001600160a01b031681858711612fb7576000612fc1565b612fc18688615085565b9050620186a085607354612fd59190615783565b612fdf919061579a565b81111561317f57851561308e57603f54733C8b18162cBb11B9D0afe3828f4A6C6e247f30E09063aac2718a90849089906001600160a01b031661302183612ae2565b61302b908b615012565b6040518563ffffffff1660e01b815260040161304a9493929190615990565b602060405180830381865af4158015613067573d6000803e3d6000fd5b505050506040513d601f19601f8201168201806040525081019061308b9190614fe3565b92505b600061309983612ae2565b603e5490915060009081906130b6906001600160a01b0316612a76565b60715491935091506000906130d6906001600160a01b0316868585613cd8565b905060006130e3826129d5565b5090507f59400c8c523464b521238ea8f50e923f2bc64663557e6afec92a97f7efe92d058282604051613117929190615852565b60405180910390a16000613129612a62565b9050600061313689612ae2565b9050613142878d615012565b61314c8284615012565b10156131735761315c8183615012565b613166888e615012565b6131709190615085565b9a505b5050505050505061324e565b851561324e57600061319083612ae2565b9050868110156131b3576131a660008888613288565b909750955061324c915050565b603f54733C8b18162cBb11B9D0afe3828f4A6C6e247f30E09063aac2718a9085908a906001600160a01b03166131e9868c615012565b6040518563ffffffff1660e01b81526004016132089493929190615990565b602060405180830381865af4158015613225573d6000803e3d6000fd5b505050506040513d601f19601f820116820180604052508101906132499190614fe3565b93505b505b5050935093915050565b600080838311156132745761326d8484615085565b9150613281565b61327e8385615085565b90505b9250929050565b60008060008061329787613f0f565b613332604051806102200160405280600015158152602001606081526020016000815260200160008152602001600081526020016000815260200160608152602001600081526020016060815260200160008152602001600081526020016060815260200160006001600160a01b0316815260200160008152602001600081526020016060815260200160006001600160a01b031681525090565b60001988148082526000935080613351575061334e8789615012565b15155b801561335c57508515155b1561396e57613369612e27565b6101608201819052603e546001600160a01b03908116610180840181905260715490911661020084015261339d91906139eb565b6101a08201526101808101516133b290612ae2565b6101c08201526133c0613f62565b6020820152600554600160201b90046001600160801b03166040820152600554600160201b90046001600160801b03166060820152610200810151610180820151604051637a55caf360e01b8152734dC0dfFFd2de28f7A822Fe1139127e3dc1Af86FA92637a55caf39261343692600401615025565b602060405180830381865af4158015613453573d6000803e3d6000fd5b505050506040513d601f19601f820116820180604052508101906134779190614fe3565b60a08201528051733C8b18162cBb11B9D0afe3828f4A6C6e247f30E09063ec0cc4fd906134ad576134a8898b615012565b6134b0565b60005b30846101600151856101a001518661020001518c88606001516040518863ffffffff1660e01b81526004016134eb97969594939291906159ba565b600060405180830381865af4158015613508573d6000803e3d6000fd5b505050506040513d6000823e601f3d908101601f191682016040526135309190810190615a09565b60c083015260808201819052156136795761354e8160800151612b52565b6101e0820152600554600160201b90046001600160801b031681606001516135769190615085565b608082018190526101e08201516040517faebc771af58936b05e89b0be7d3f9761480181abcd4a649fbdd01753fda16970926135b39290916152dc565b60405180910390a1734dC0dfFFd2de28f7A822Fe1139127e3dc1Af86FA637a9a23e5826102000151836101600151846101a001518560200151866080015187604001518860c00151896101e001516040518963ffffffff1660e01b8152600401613624989796959493929190615a45565b600060405180830381865af4158015613641573d6000803e3d6000fd5b505050506040513d6000823e601f3d908101601f191682016040526136699190810190615ac7565b60c0830152610100820152613715565b6102008101516101608201516101a083015160c0840151604051636138ea8560e01b8152734dC0dfFFd2de28f7A822Fe1139127e3dc1Af86FA94636138ea85946136c99491939092600401615afd565b600060405180830381865af41580156136e6573d6000803e3d6000fd5b505050506040513d6000823e601f3d908101601f1916820160405261370e91908101906152a8565b6101008201525b734dC0dfFFd2de28f7A822Fe1139127e3dc1Af86FA63f1f2b573826101600151836101a001518460c0015185610200015161375161288a612451565b8751613768578d8f6137639190615012565b61376a565b8e5b88610100015160726040518963ffffffff1660e01b8152600401613795989796959493929190615b39565b602060405180830381865af41580156137b2573d6000803e3d6000fd5b505050506040513d601f19601f820116820180604052508101906137d69190614fe3565b8160e0018181516137e79190615012565b905250861561389657610180810151603f546101c0830151733C8b18162cBb11B9D0afe3828f4A6C6e247f30E09263aac2718a9290918b916001600160a01b031690613833908c615012565b6040518563ffffffff1660e01b81526004016138529493929190615990565b602060405180830381865af415801561386f573d6000803e3d6000fd5b505050506040513d601f19601f820116820180604052508101906138939190614fe3565b91505b61389e612a62565b6101208201526101808101516138b390612ae2565b6101408201526101c08101516138c99087615012565b878261014001518361012001516138e09190615012565b6138ea9190615012565b101561393857868161014001518261012001516139079190615012565b6139119190615012565b6101c08201516139219088615012565b61392b9190615085565b6139359084615012565b92505b670de0b6b3a76400008160a001518260e001516139559190615783565b61395f919061579a565b8160a00151945094505061397e565b6000806000809450945094509450505b93509350935093565b6000816001600160a01b0316634046ebae6040518163ffffffff1660e01b8152600401602060405180830381865afa1580156139c7573d6000803e3d6000fd5b505050506040513d601f19601f820116820180604052508101906107de91906153be565b8151600090815b81811015613a3d57836001600160a01b0316858281518110613a1657613a1661506f565b60200260200101516001600160a01b031603613a355791506107de9050565b6001016139f2565b50600019949350505050565b6000806000613a57846128f8565b91509150613a66858284612f97565b5095945050505050565b600054610100900460ff16613a975760405162461bcd60e51b815260040161113490615880565b613ac1817fd2de0374d4479f33e63ae5ed6ca772a10463dd883a90c612050b51fab6196400613fdd565b613aca82614033565b60405163b429afeb60e01b81526001600160a01b0382169063b429afeb90613af6908590600401614bf5565b602060405180830381865afa158015613b13573d6000803e3d6000fd5b505050506040513d601f19601f82011682018060405250810190613b37919061537d565b6040518060400160405280600f81526020016e53423a2057726f6e672076616c756560881b81525090613b7d5760405162461bcd60e51b81526004016111349190614c76565b50806001600160a01b03166338d52e0f6040518163ffffffff1660e01b8152600401602060405180830381865afa158015613bbc573d6000803e3d6000fd5b505050506040513d601f19601f82011682018060405250810190613be091906153be565b603e80546001600160a01b039283166001600160a01b031991821617909155603f80549390921692811692909217905560428054909116739cc199d4353b5fb3e6c8eebc99f5139e0d8ea06b17905550612710604355565b81518015611665576000613c4c8484614258565b9050733C8b18162cBb11B9D0afe3828f4A6C6e247f30E063acf741a3613c70612451565b603f546040516001600160e01b031960e085901b168152613ca292916001600160a01b03169089908790600401615952565b60006040518083038186803b158015613cba57600080fd5b505af4158015613cce573d6000803e3d6000fd5b5050505050505050565b6060613ce2612481565b156040518060400160405280601381526020017241532d31204e65656420726562616c616e636560681b81525090613d2d5760405162461bcd60e51b81526004016111349190614c76565b5060408051600280825260608201835290916020830190803683370190505060048054600554604051637799c1d160e01b81526001600160a01b03831693810193909352600160c01b8204600290810b6024850152600160d81b90920490910b60448301526301000000900460ff1615156064820152909150600090819073f4A4Cb063457F36E434E5D93a9A2286f65e22d6f90637799c1d190608401600060405180830381865af4158015613de7573d6000803e3d6000fd5b505050506040513d6000823e601f3d908101601f19168201604052613e0f919081019061540b565b600254909150613e29906001600160a01b0316878961440d565b60025460035460405163ca27d10d60e01b8152734dC0dfFFd2de28f7A822Fe1139127e3dc1Af86FA9263ca27d10d92613e7c928c9287926001600160a01b03918216929116908d90600090600401615baf565b6040805180830381865af4158015613e98573d6000803e3d6000fd5b505050506040513d601f19601f82011682018060405250810190613ebc919061539a565b84600181518110613ecf57613ecf61506f565b60209081029190910101529150613ee68287615085565b83600081518110613ef957613ef961506f565b6020026020010181815250505050949350505050565b613f17612481565b156040518060400160405280601381526020017241532d31204e65656420726562616c616e636560681b815250906110de5760405162461bcd60e51b81526004016111349190614c76565b604051631be4243b60e01b81526001600482015260609073f4A4Cb063457F36E434E5D93a9A2286f65e22d6f90631be4243b90602401600060405180830381865af4158015613fb5573d6000803e3d6000fd5b505050506040513d6000823e601f3d908101601f191682016040526107b491908101906152a8565b613fe782826144b1565b6110de5760405162461bcd60e51b815260206004820152601a60248201527f496e74657266616365206973206e6f7420737570706f727465640000000000006044820152606401611134565b600054610100900460ff1661405a5760405162461bcd60e51b815260040161113490615880565b6001600160a01b0381166140a25760405162461bcd60e51b815260206004820152600f60248201526e2d32b9379031b7b73a3937b63632b960891b6044820152606401611134565b6140cc817f4c2403fdcb3cff9b705d96bf0705858e3390412670a62c8bcba611ca7e20ab86613fdd565b60006001600160a01b0316816001600160a01b0316635aa6e6756040518163ffffffff1660e01b8152600401602060405180830381865afa158015614115573d6000803e3d6000fd5b505050506040513d601f19601f8201168201806040525081019061413991906153be565b6001600160a01b0316036141815760405162461bcd60e51b815260206004820152600f60248201526e5a65726f20676f7665726e616e636560881b6044820152606401611134565b6141b08161120b60017f5165972ef41194f06c5007493031d0b927c20741adcb74403b954009fd2c3618615085565b6141df4261120b60017f6f55f470bdc9cb5f04223fd822021061668e4dccb43e8727b295106dc9769c8b615085565b61420e4361120b60017f812a673dfca07956350df10f8a654925f561d7a0da09bdbe79e653939a14d9f1615085565b604080516001600160a01b0383168152426020820152438183015290517f1a2dd071001ebf6e03174e3df5b305795a4ad5d41d8fdb9ba41dbbe2367134269181900360600190a150565b603e546071546040546060926001600160a01b0390811692600092734dC0dfFFd2de28f7A822Fe1139127e3dc1Af86FA9263ef50284f921690859061429b612e27565b6142a661288a612451565b60728c8c6043546040518a63ffffffff1660e01b81526004016142d199989796959493929190615bf7565b600060405180830381865af41580156142ee573d6000803e3d6000fd5b505050506040513d6000823e601f3d908101601f19168201604052614316919081019061580c565b603f54604254607454604051631248faf160e21b81526001600160a01b038089166004830152602482018690529384166044820152929091166064830152608482015291945091506000908190733C8b18162cBb11B9D0afe3828f4A6C6e247f30E090634923ebc49060a4016040805180830381865af415801561439e573d6000803e3d6000fd5b505050506040513d601f19601f820116820180604052508101906143c2919061539a565b915091507f4c300a656bfa0935e36cd55e92634bc20b2b7e0a0ebf424a2a25bfaac3a01e76878684846040516143fb9493929190615c7b565b60405180910390a15050505092915050565b604051636eb1769f60e11b815282906001600160a01b0385169063dd62ed3e9061443d9030908690600401615025565b602060405180830381865afa15801561445a573d6000803e3d6000fd5b505050506040513d601f19601f8201168201806040525081019061447e9190614fe3565b1015611665576144996001600160a01b03841682600061458f565b6116656001600160a01b03841682600160ff1b61458f565b60006001600160a01b0383166144f85760405162461bcd60e51b815260206004820152600c60248201526b5a65726f206164647265737360a01b6044820152606401611134565b823b600081900361450d5760009150506107de565b6040516301ffc9a760e01b81526001600160e01b0319841660048201526001600160a01b038516906301ffc9a790602401602060405180830381865afa925050508015614577575060408051601f3d908101601f191682019092526145749181019061537d565b60015b156145855791506107de9050565b5060009392505050565b8015806146085750604051636eb1769f60e11b81526001600160a01b0384169063dd62ed3e906145c59030908690600401615025565b602060405180830381865afa1580156145e2573d6000803e3d6000fd5b505050506040513d601f19601f820116820180604052508101906146069190614fe3565b155b6146735760405162461bcd60e51b815260206004820152603660248201527f5361666545524332303a20617070726f76652066726f6d206e6f6e2d7a65726f60448201527520746f206e6f6e2d7a65726f20616c6c6f77616e636560501b6064820152608401611134565b604080516001600160a01b03848116602483015260448083018590528351808403909101815260649092018352602080830180516001600160e01b031663095ea7b360e01b17905283518085019094528084527f5361666545524332303a206c6f772d6c6576656c2063616c6c206661696c65649084015261166592869291600091614703918516908490614780565b8051909150156116655780806020019051810190614721919061537d565b6116655760405162461bcd60e51b815260206004820152602a60248201527f5361666545524332303a204552433230206f7065726174696f6e20646964206e6044820152691bdd081cdd58d8d9595960b21b6064820152608401611134565b606061478f8484600085614799565b90505b9392505050565b6060824710156147fa5760405162461bcd60e51b815260206004820152602660248201527f416464726573733a20696e73756666696369656e742062616c616e636520666f6044820152651c8818d85b1b60d21b6064820152608401611134565b600080866001600160a01b031685876040516148169190615ce6565b60006040518083038185875af1925050503d8060008114614853576040519150601f19603f3d011682016040523d82523d6000602084013e614858565b606091505b509150915061486987838387614874565b979650505050505050565b606083156148e35782516000036148dc576001600160a01b0385163b6148dc5760405162461bcd60e51b815260206004820152601d60248201527f416464726573733a2063616c6c20746f206e6f6e2d636f6e74726163740000006044820152606401611134565b50816109b3565b6109b383838151156148f85781518083602001fd5b8060405162461bcd60e51b81526004016111349190614c76565b60006020828403121561492457600080fd5b81356001600160e01b03198116811461479257600080fd5b6001600160a01b0381168114612ebb57600080fd5b6000806040838503121561496457600080fd5b823561496f8161493c565b946020939093013593505050565b634e487b7160e01b600052604160045260246000fd5b60405160a081016001600160401b03811182821017156149b5576149b561497d565b60405290565b604051601f8201601f191681016001600160401b03811182821017156149e3576149e361497d565b604052919050565b60006001600160401b03821115614a0457614a0461497d565b50601f01601f191660200190565b600082601f830112614a2357600080fd5b8135614a36614a31826149eb565b6149bb565b818152846020838601011115614a4b57600080fd5b816020850160208301376000918101602001919091529392505050565b60008060008060808587031215614a7e57600080fd5b8435614a898161493c565b93506020850135614a998161493c565b92506040850135915060608501356001600160401b03811115614abb57600080fd5b614ac787828801614a12565b91505092959194509250565b600081518084526020808501945080840160005b83811015614b0357815187529582019590820190600101614ae7565b509495945050505050565b6001600160a01b038d811682528c811660208301528b16604082015260028a810b606083015289810b608083015288810b60a083015287900b60c08201526001600160801b03861660e0820152600085151561010083015284610120830152614b836101408301856001600160a01b03169052565b610180610160830152614b9a610180830184614ad3565b9e9d5050505050505050505050505050565b60008060408385031215614bbf57600080fd5b823591506020830135614bd18161493c565b809150509250929050565b600060208284031215614bee57600080fd5b5035919050565b6001600160a01b0391909116815260200190565b600060208284031215614c1b57600080fd5b81356147928161493c565b60005b83811015614c41578181015183820152602001614c29565b50506000910152565b60008151808452614c62816020860160208601614c26565b601f01601f19169290920160200192915050565b6020815260006147926020830184614c4a565b60008060208385031215614c9c57600080fd5b82356001600160401b0380821115614cb357600080fd5b818501915085601f830112614cc757600080fd5b813581811115614cd657600080fd5b866020828501011115614ce857600080fd5b60209290920196919550909350505050565b60006001600160401b03821115614d1357614d1361497d565b5060051b60200190565b600082601f830112614d2e57600080fd5b81356020614d3e614a3183614cfa565b82815260059290921b84018101918181019086841115614d5d57600080fd5b8286015b84811015614d785780358352918301918301614d61565b509695505050505050565b60008060408385031215614d9657600080fd5b82356001600160401b0380821115614dad57600080fd5b818501915085601f830112614dc157600080fd5b81356020614dd1614a3183614cfa565b82815260059290921b84018101918181019089841115614df057600080fd5b948201945b83861015614e17578535614e088161493c565b82529482019490820190614df5565b96505086013592505080821115614e2d57600080fd5b50614e3a85828601614d1d565b9150509250929050565b8015158114612ebb57600080fd5b60008060408385031215614e6557600080fd5b823591506020830135614bd181614e44565b8035600281900b8114614e8957600080fd5b919050565b600080600080600080600080888a03610180811215614eac57600080fd5b8935614eb78161493c565b985060208a0135614ec78161493c565b975060408a0135614ed78161493c565b965060608a0135614ee78161493c565b9550614ef560808b01614e77565b9450614f0360a08b01614e77565b935060c08a0135614f1381614e44565b925060a060df1982011215614f2757600080fd5b50614f30614993565b60e08a0135614f3e8161493c565b81526101008a0135614f4f8161493c565b60208201526101208a0135614f638161493c565b60408201526101408a013560608201526101609099013560808a0152509598949750929591949093909190565b60008060008060808587031215614fa657600080fd5b8435614fb181614e44565b9350602085013592506040850135614fc88161493c565b915060608501356001600160401b03811115614abb57600080fd5b600060208284031215614ff557600080fd5b5051919050565b634e487b7160e01b600052601160045260246000fd5b808201808211156107de576107de614ffc565b6001600160a01b0392831681529116602082015260400190565b6001600160a01b039586168152602081019490945260408401929092526060830152909116608082015260a00190565b634e487b7160e01b600052603260045260246000fd5b818103818111156107de576107de614ffc565b600080604083850312156150ab57600080fd5b82516150b681614e44565b6020939093015192949293505050565b600181811c908216806150da57607f821691505b6020821081036150fa57634e487b7160e01b600052602260045260246000fd5b50919050565b6001600160a01b03841681526040602082018190528101829052818360608301376000818301606090810191909152601f909201601f1916010192915050565b601f82111561166557600081815260208120601f850160051c810160208610156151675750805b601f850160051c820191505b8181101561518657828155600101615173565b505050505050565b6001600160401b038311156151a5576151a561497d565b6151b9836151b383546150c6565b83615140565b6000601f8411600181146151ed57600085156151d55750838201355b600019600387901b1c1916600186901b178355610f85565b600083815260209020601f19861690835b8281101561521e57868501358255602094850194600190920191016151fe565b508682101561523b5760001960f88860031b161c19848701351681555b505060018560011b0183555050505050565b600082601f83011261525e57600080fd5b8151602061526e614a3183614cfa565b82815260059290921b8401810191818101908684111561528d57600080fd5b8286015b84811015614d785780518352918301918301615291565b6000602082840312156152ba57600080fd5b81516001600160401b038111156152d057600080fd5b611d718482850161524d565b82815260406020820152600061478f6040830184614ad3565b600081518084526020808501945080840160005b83811015614b035781516001600160a01b031687529582019590820190600101615309565b87815286602082015260e06040820152600061534d60e08301886152f5565b6001600160a01b0396871660608401529486166080830152509190931660a082015260c001919091529392505050565b60006020828403121561538f57600080fd5b815161479281614e44565b600080604083850312156153ad57600080fd5b505080516020909101519092909150565b6000602082840312156153d057600080fd5b81516147928161493c565b60006153e9614a31846149eb565b90508281528383830111156153fd57600080fd5b614792836020830184614c26565b60006020828403121561541d57600080fd5b81516001600160401b0381111561543357600080fd5b8201601f8101841361544457600080fd5b611d71848251602084016153db565b81516001600160401b0381111561546c5761546c61497d565b6154808161547a84546150c6565b84615140565b602080601f8311600181146154b5576000841561549d5750858301515b600019600386901b1c1916600185901b178555615186565b600085815260208120601f198616915b828110156154e4578886015182559484019460019091019084016154c5565b50858210156155025787850151600019600388901b60f8161c191681555b5050505050600190811b01905550565b6000602080835260008454615526816150c6565b8084870152604060018084166000811461554757600181146155615761558f565b60ff1985168984015283151560051b89018301955061558f565b896000528660002060005b858110156155875781548b820186015290830190880161556c565b8a0184019650505b509398975050505050505050565b868152600060018060a01b03808816602084015286604084015260c060608401528551151560c0840152602086015160e084015280604087015116610100840152606086015160806101208501526155f9610140850182614c4a565b6080850196909652509290921660a09091015250949350505050565b60808152600061562860808301876152f5565b828103602084015261563a8187614ad3565b604084019590955250506001600160a01b039190911660609091015292915050565b6001600160a01b038616815260a060208201819052600090615680908301876152f5565b828103604084015261569281876152f5565b905082810360608401526156a68186614ad3565b905082810360808401526156ba8185614ad3565b98975050505050505050565b600082601f8301126156d757600080fd5b815160206156e7614a3183614cfa565b82815260059290921b8401810191818101908684111561570657600080fd5b8286015b84811015614d7857805161571d8161493c565b835291830191830161570a565b6000806040838503121561573d57600080fd5b82516001600160401b038082111561575457600080fd5b615760868387016156c6565b9350602085015191508082111561577657600080fd5b50614e3a8582860161524d565b80820281158282048414176107de576107de614ffc565b6000826157b757634e487b7160e01b600052601260045260246000fd5b500490565b6020815260006147926020830184614ad3565b600060018060a01b03808916835280881660208401525085604083015284606083015283608083015260c060a08301526156ba60c08301846152f5565b6000806040838503121561581f57600080fd5b82516001600160401b0381111561583557600080fd5b6158418582860161524d565b925050602083015190509250929050565b6040815260006158656040830185614ad3565b82810360208401526158778185614ad3565b95945050505050565b6020808252602b908201527f496e697469616c697a61626c653a20636f6e7472616374206973206e6f74206960408201526a6e697469616c697a696e6760a81b606082015260800190565b6000806000606084860312156158e057600080fd5b83516001600160401b03808211156158f757600080fd5b615903878388016156c6565b9450602086015191508082111561591957600080fd5b6159258783880161524d565b9350604086015191508082111561593b57600080fd5b506159488682870161524d565b9150509250925092565b6001600160a01b0385811682528416602082015260806040820181905260009061597e908301856152f5565b82810360608401526148698185614ad3565b6001600160a01b039485168152602081019390935292166040820152606081019190915260800190565b878152600060018060a01b03808916602084015260e060408401526159e260e08401896152f5565b606084019790975294909416608082015260a081019290925260c090910152509392505050565b60008060408385031215615a1c57600080fd5b8251915060208301516001600160401b03811115615a3957600080fd5b614e3a8582860161524d565b6001600160a01b038916815261010060208201819052600090615a6a8382018b6152f5565b90508860408401528281036060840152615a848189614ad3565b90508660808401528560a084015282810360c0840152615aa48186614ad3565b905082810360e0840152615ab88185614ad3565b9b9a5050505050505050505050565b60008060408385031215615ada57600080fd5b82516001600160401b0380821115615af157600080fd5b6157608683870161524d565b6001600160a01b0385168152608060208201819052600090615b21908301866152f5565b84604084015282810360608401526148698185614ad3565b6000610100808352615b4d8184018c6152f5565b90508960208401528281036040840152615b67818a614ad3565b6001600160a01b0389811660608601528816608085015260a0840187905283810360c08501529050615b998186614ad3565b9150508260e08301529998505050505050505050565b600060018060a01b03808916835260c06020840152615bd160c0840189614c4a565b9681166040840152949094166060820152608081019290925260a0909101525092915050565b6001600160a01b038a8116825289811660208301526040820189905261012060608301819052600091615c2c8483018b6152f5565b91508089166080850152508660a084015282810360c0840152615c4f81876152f5565b905082810360e0840152615c638186614ad3565b915050826101008301529a9950505050505050505050565b6080808252855190820181905260009060209060a0840190828901845b82811015615cbd5781516001600160a01b031684529284019290840190600101615c98565b50505083810382850152615cd18188614ad3565b60408501969096525050506060015292915050565b60008251615cf8818460208701614c26565b919091019291505056fea26469706673582212209d6b8fcd050636b8cb63ee4e097922809e500aead181a35e237babea907d08fd64736f6c63430008110033",
  "deployedBytecode": "0x608060405234801561001057600080fd5b50600436106102f85760003560e01c80636ffb4c8e11610193578063b2457556116100e4578063db8d55f111610092578063db8d55f1146106ca578063de3d047c146106d2578063dee1f0e4146106e5578063e15c5fd2146106f8578063eb5620db1461070b578063f77c47911461071e578063ffb86c6a1461072657600080fd5b8063b245755614610651578063b429afeb14610664578063b7e01a51146104bf578063bd38837b14610677578063cd4c81561461068a578063ceee861d1461069d578063d295ea70146106c157600080fd5b8063877887821161014157806387788782146105b257806387c7f770146105bb578063936725ec146105ce57806396b7b14e146105f25780639d0bcca014610605578063a3f4df7e1461060d578063ab9e3eee1461064957600080fd5b80636ffb4c8e1461051c57806371ee01751461052f57806373a50ef514610538578063783274381461055c5780637cc963801461057c5780637d7c2a1c146105845780637efc77fa1461058c57600080fd5b80634593144c1161024d57806354679963116101fb57806354679963146104985780635641ec03146104ad5780635cfc1a51146104b55780636207a0cf146104bf57806363e27734146104e35780636855f30e146104f65780636b5fba5a1461050957600080fd5b80634593144c1461041e5780634ad0b684146104265780634e71d92d1461042e5780634fa5d854146104365780634fac6ccd1461045357806351b9c8341461046657806351e03fbe1461048557600080fd5b8063261efa12116102aa578063261efa12146103b757806328abdef0146103c0578063321793a8146103c8578063325a19f1146103db57806333c5b58e146103e357806338d52e0f146103eb5780633cd8045e1461040b57600080fd5b806301e1d114146102fd57806301ffc9a7146103185780630acd12c71461033b5780630e30428d14610343578063150b7a02146103585780631865c57d1461038457806322b6f5e2146103a4575b600080fd5b61030561072e565b6040519081526020015b60405180910390f35b61032b610326366004614912565b6107b9565b604051901515815260200161030f565b6103056107e4565b610356610351366004614951565b610906565b005b61036b610366366004614a68565b6109aa565b6040516001600160e01b0319909116815260200161030f565b61038c6109bb565b60405161030f9c9b9a99989796959493929190614b0e565b6103566103b2366004614bac565b610c8a565b61030560745481565b610356610d3a565b6103566103d6366004614bdc565b610eb3565b610305610f8c565b610305610fc0565b603e546103fe906001600160a01b031681565b60405161030f9190614bf5565b603f546103fe906001600160a01b031681565b610305611038565b607054610305565b610356611068565b61043e6110e2565b6040805192835260208301919091520161030f565b610356610461366004614c09565b611150565b61046e611282565b60408051921515835260208301919091520161030f565b610305610493366004614bdc565b61130d565b6104a06114d5565b60405161030f9190614c76565b610356611563565b600160ff1b610305565b6104a0604051806040016040528060058152602001640312e302e360dc1b81525081565b6103566104f1366004614c89565b6115e3565b610356610504366004614bdc565b61166a565b610356610517366004614c09565b6116f2565b61035661052a366004614bdc565b611783565b61030560735481565b6104a0604051806040016040528060058152602001640322e332e360dc1b81525081565b61030561056a366004614c09565b60726020526000908152604090205481565b61030561180b565b61035661183b565b6104a060405180604001604052806007815260200166416c676562726160c81b81525081565b61030560435481565b6103056105c9366004614951565b6119c5565b6104a0604051806040016040528060058152602001640332e302e360dc1b81525081565b610356610600366004614d83565b611b50565b6103fe611bef565b6104a06040518060400160405280601a81526020017f416c676562726120436f6e76657274657220537472617465677900000000000081525081565b61032b611c1f565b61030561065f366004614e52565b611ccc565b61032b610672366004614c09565b611d7b565b6071546103fe906001600160a01b031681565b6042546103fe906001600160a01b031681565b6104a0604051806040016040528060058152602001640312e322e360dc1b81525081565b61030560405481565b61043e611da0565b6103566106e0366004614bdc565b611e18565b61032b6106f3366004614c09565b611ea8565b610356610706366004614e8e565b611f2d565b610356610719366004614f90565b6122ba565b6103fe612451565b61032b612481565b600061073960705490565b603e546040516370a0823160e01b81526001600160a01b03909116906370a0823190610769903090600401614bf5565b602060405180830381865afa158015610786573d6000803e3d6000fd5b505050506040513d601f19601f820116820180604052508101906107aa9190614fe3565b6107b49190615012565b905090565b60006001600160e01b0319821663f73147b360e01b14806107de57506107de826124bc565b92915050565b603f54603e54604051633e53813360e11b81526000926001600160a01b03908116921690839073__$ec217c54da363a68ad871e6868efec481c$__90637ca70266906108369086908690600401615025565b602060405180830381865af4158015610853573d6000803e3d6000fd5b505050506040513d601f19601f820116820180604052508101906108779190614fe3565b905060008060006108866124e1565b92509250925073__$ec217c54da363a68ad871e6868efec481c$__639ad00ec2868686868b6040518663ffffffff1660e01b81526004016108cb95949392919061503f565b60006040518083038186803b1580156108e357600080fd5b505af41580156108f7573d6000803e3d6000fd5b50929998505050505050505050565b73__$8f1afe7577f9ab973017c74eca19b86f3c$__63142395ef610928612451565b6040516001600160e01b031960e084901b1681526001600160a01b03918216600482015290851660248201526044810184905260640160006040518083038186803b15801561097657600080fd5b505af415801561098a573d6000803e3d6000fd5b5050506001600160a01b0390921660009081526072602052604090205550565b630a85bd0160e11b5b949350505050565b60028054600354600480546005546006546001546040805186815260a081019091526001600160a01b03978816989688169780861697600160a01b808804820b98600160c01b8904830b98600160d81b9004830b979283900b96600160201b84046001600160801b0316969290930460ff16949293909116916060916020820160808036833750506040516370a0823160e01b8152919250506001600160a01b038d16906370a0823190610a73908590600401614bf5565b602060405180830381865afa158015610a90573d6000803e3d6000fd5b505050506040513d601f19601f82011682018060405250810190610ab49190614fe3565b81600081518110610ac757610ac761506f565b60209081029190910101526040516370a0823160e01b81526001600160a01b038c16906370a0823190610afe908590600401614bf5565b602060405180830381865afa158015610b1b573d6000803e3d6000fd5b505050506040513d601f19601f82011682018060405250810190610b3f9190614fe3565b81600181518110610b5257610b5261506f565b60209081029190910101526009546040516370a0823160e01b81526001600160a01b03909116906370a0823190610b8d908590600401614bf5565b602060405180830381865afa158015610baa573d6000803e3d6000fd5b505050506040513d601f19601f82011682018060405250810190610bce9190614fe3565b81600281518110610be157610be161506f565b6020908102919091010152600a546040516370a0823160e01b81526001600160a01b03909116906370a0823190610c1c908590600401614bf5565b602060405180830381865afa158015610c39573d6000803e3d6000fd5b505050506040513d601f19601f82011682018060405250810190610c5d9190614fe3565b81600381518110610c7057610c7061506f565b602002602001018181525050909192939495969798999a9b565b73__$ec217c54da363a68ad871e6868efec481c$__63b4339948610cac612451565b6040516001600160e01b031960e084901b1681526001600160a01b03918216600482015260248101869052908416604482015260640160006040518083038186803b158015610cfa57600080fd5b505af4158015610d0e573d6000803e3d6000fd5b505050604392909255604280546001600160a01b0319166001600160a01b039290921691909117905550565b73__$ec217c54da363a68ad871e6868efec481c$__63493f6edc610d5c612451565b6040518263ffffffff1660e01b8152600401610d789190614bf5565b60006040518083038186803b158015610d9057600080fd5b505af4158015610da4573d6000803e3d6000fd5b50506005805460ff60a01b191690555050607154600254600354604051637fd6c0a160e01b81526001600160a01b039384166004820152918316602483015291909116604482015273__$e73f546b22cebb10cea6b8c699528ebeb1$__90637fd6c0a190606401602060405180830381865af4158015610e28573d6000803e3d6000fd5b505050506040513d601f19601f82011682018060405250810190610e4c9190614fe3565b60016006018190555073__$e73f546b22cebb10cea6b8c699528ebeb1$__63f460770b6040518163ffffffff1660e01b815260040160006040518083038186803b158015610e9957600080fd5b505af4158015610ead573d6000803e3d6000fd5b50505050565b73__$ec217c54da363a68ad871e6868efec481c$__63493f6edc610ed5612451565b6040518263ffffffff1660e01b8152600401610ef19190614bf5565b60006040518083038186803b158015610f0957600080fd5b505af4158015610f1d573d6000803e3d6000fd5b505050600682905550604051631c77945b60e31b81526004810182905273__$e73f546b22cebb10cea6b8c699528ebeb1$__9063e3bca2d89060240160006040518083038186803b158015610f7157600080fd5b505af4158015610f85573d6000803e3d6000fd5b5050505050565b60006107b4610fbc60017f6f55f470bdc9cb5f04223fd822021061668e4dccb43e8727b295106dc9769c8b615085565b5490565b600073__$ec217c54da363a68ad871e6868efec481c$__63493f6edc610fe4612451565b6040518263ffffffff1660e01b81526004016110009190614bf5565b60006040518083038186803b15801561101857600080fd5b505af415801561102c573d6000803e3d6000fd5b505050506107b46124fc565b60006107b4610fbc60017f812a673dfca07956350df10f8a654925f561d7a0da09bdbe79e653939a14d9f1615085565b73__$ec217c54da363a68ad871e6868efec481c$__63d19cc38a61108a612451565b6040518263ffffffff1660e01b81526004016110a69190614bf5565b60006040518083038186803b1580156110be57600080fd5b505af41580156110d2573d6000803e3d6000fd5b505050506110de6125d4565b5050565b603f5460408051808201909152600a81526914d08e8811195b9a595960b21b60208201526000918291906001600160a01b0316331461113d5760405162461bcd60e51b81526004016111349190614c76565b60405180910390fd5b506111486001612690565b915091509091565b33301461119f5760405162461bcd60e51b815260206004820152601b60248201527f496e637265617365207265766973696f6e20666f7262696464656e00000000006044820152606401611134565b60006111cf610fbc60017f22573091f17911fb166032a3d9e0554aa73d31b7b7ddea4a4dd2995650af84bd615085565b6111da906001615012565b905061120e8161120b60017f22573091f17911fb166032a3d9e0554aa73d31b7b7ddea4a4dd2995650af84bd615085565b55565b61123d8261120b60017fbfaaa2fb63266ff27c2da975f5894955056f50419af651a81f6c5060581857e4615085565b604080518281526001600160a01b03841660208201527ff27e2ef832a4eb8ed8ec553b875eecd44764cda95b1c24170e281539e0a869c8910160405180910390a15050565b6071546040516314fa32a760e21b8152600160048201526001600160a01b039091166024820152600090819073__$e73f546b22cebb10cea6b8c699528ebeb1$__906353e8ca9c906044016040805180830381865af41580156112e9573d6000803e3d6000fd5b505050506040513d601f19601f820116820180604052508101906111489190615098565b603f54603e54604051633e53813360e11b81526000926001600160a01b03908116921690839073__$ec217c54da363a68ad871e6868efec481c$__90637ca702669061135f9086908690600401615025565b602060405180830381865af415801561137c573d6000803e3d6000fd5b505050506040513d601f19601f820116820180604052508101906113a09190614fe3565b90508085111561144c576000806113bf6113ba8489615085565b6127c4565b604051631594b05b60e01b8152909850919350915073__$ec217c54da363a68ad871e6868efec481c$__90631594b05b906114069087908790879087908c9060040161503f565b602060405180830381865af4158015611423573d6000803e3d6000fd5b505050506040513d601f19601f820116820180604052508101906114479190614fe3565b925050505b6040516333bbb20360e11b815260048101869052602481018290526001600160a01b0380841660448301528416606482015273__$ec217c54da363a68ad871e6868efec481c$__9063677764069060840160006040518083038186803b1580156114b557600080fd5b505af41580156114c9573d6000803e3d6000fd5b50505050505050919050565b604480546114e2906150c6565b80601f016020809104026020016040519081016040528092919081815260200182805461150e906150c6565b801561155b5780601f106115305761010080835404028352916020019161155b565b820191906000526020600020905b81548152906001019060200180831161153e57829003601f168201915b505050505081565b61156b6127f5565b73__$ec217c54da363a68ad871e6868efec481c$__63bd02068261158d612451565b603e54603f5460405160e085901b6001600160e01b03191681526001600160a01b039384166004820152918316602483015291909116604482015260640160006040518083038186803b158015610e9957600080fd5b73__$ec217c54da363a68ad871e6868efec481c$__63eae13e76611605612451565b84846040518463ffffffff1660e01b815260040161162593929190615100565b60006040518083038186803b15801561163d57600080fd5b505af4158015611651573d6000803e3d6000fd5b50604492506116659150839050848361518e565b505050565b73__$8f1afe7577f9ab973017c74eca19b86f3c$__63a0113d4861168c612451565b6040516001600160e01b031960e084901b1681526001600160a01b0390911660048201526024810184905260440160006040518083038186803b1580156116d257600080fd5b505af41580156116e6573d6000803e3d6000fd5b50505060749190915550565b73__$ec217c54da363a68ad871e6868efec481c$__63493f6edc611714612451565b6040518263ffffffff1660e01b81526004016117309190614bf5565b60006040518083038186803b15801561174857600080fd5b505af415801561175c573d6000803e3d6000fd5b5050600180546001600160a01b0319166001600160a01b0394909416939093179092555050565b73__$8f1afe7577f9ab973017c74eca19b86f3c$__63d2c3cf256117a5612451565b6040516001600160e01b031960e084901b1681526001600160a01b0390911660048201526024810184905260440160006040518083038186803b1580156117eb57600080fd5b505af41580156117ff573d6000803e3d6000fd5b50505060739190915550565b60006107b4610fbc60017f22573091f17911fb166032a3d9e0554aa73d31b7b7ddea4a4dd2995650af84bd615085565b6000611845612451565b60405163124fdbb760e21b815290915073__$ec217c54da363a68ad871e6868efec481c$__9063493f6edc9061187f908490600401614bf5565b60006040518083038186803b15801561189757600080fd5b505af41580156118ab573d6000803e3d6000fd5b5050505060006118bb60016128f8565b9150506000816118c961072e565b6118d39190615085565b600554909150600160201b90046001600160801b0316156118f8576118f66129b1565b505b607154603f54604051637424fe9760e11b8152600160048201526001600160a01b03928316602482015285831660448201526064810184905260848101859052911660a482015260009073__$e73f546b22cebb10cea6b8c699528ebeb1$__9063e849fd2e9060c401600060405180830381865af415801561197e573d6000803e3d6000fd5b505050506040513d6000823e601f3d908101601f191682016040526119a691908101906152a8565b905080516002036119bd576119ba816129d5565b50505b610f85612a62565b60715460408051808201909152600a81526914d08e8811195b9a595960b21b60208201526000916001600160a01b031690338214611a165760405162461bcd60e51b81526004016111349190614c76565b50600080611a2386612a76565b915091506000611a3287612ae2565b905085811015611a9f57600554600160201b90046001600160801b03168015611a9d576000611a6082612b52565b90507faebc771af58936b05e89b0be7d3f9761480181abcd4a649fbdd01753fda169708282604051611a939291906152dc565b60405180910390a1505b505b73__$e930d50fb5f4f1298547dbcb2bb0591990$__6399c1fde487848688611ac5612451565b603e546040516001600160e01b031960e089901b168152611afa9695949392916001600160a01b03169060729060040161532e565b602060405180830381865af4158015611b17573d6000803e3d6000fd5b505050506040513d601f19601f82011682018060405250810190611b3b9190614fe3565b9450611b45612a62565b505050505092915050565b60715460408051808201909152600a81526914d08e8811195b9a595960b21b6020820152906001600160a01b03163314611b9d5760405162461bcd60e51b81526004016111349190614c76565b508151815160408051808201909152600d81526c54532d3139206c656e6774687360981b6020820152908214611be65760405162461bcd60e51b81526004016111349190614c76565b50610ead612a62565b60006107b4610fbc60017fbfaaa2fb63266ff27c2da975f5894955056f50419af651a81f6c5060581857e4615085565b60715460009073__$e73f546b22cebb10cea6b8c699528ebeb1$__9063d1585fc4906001906001600160a01b0316611c55612451565b6040516001600160e01b031960e086901b16815260048101939093526001600160a01b0391821660248401521660448201526064015b602060405180830381865af4158015611ca8573d6000803e3d6000fd5b505050506040513d601f19601f820116820180604052508101906107b4919061537d565b603f54603e546040516001625acc3160e01b03198152600092839273__$ec217c54da363a68ad871e6868efec481c$__9263ffa533cf92611d1e926001600160a01b0391821692911690600401615025565b602060405180830381865af4158015611d3b573d6000803e3d6000fd5b505050506040513d601f19601f82011682018060405250810190611d5f9190614fe3565b90508015611d7457611d718184612bdd565b91505b5092915050565b6000611d85612451565b6001600160a01b0316826001600160a01b0316149050919050565b604051632cc58ef960e01b815260016004820152600090819073__$e73f546b22cebb10cea6b8c699528ebeb1$__90632cc58ef9906024016040805180830381865af4158015611df4573d6000803e3d6000fd5b505050506040513d601f19601f82011682018060405250810190611148919061539a565b73__$ec217c54da363a68ad871e6868efec481c$__630568a9d5611e3a612451565b6040805490516001600160e01b031960e085901b1681526001600160a01b03909216600483015260248201526044810184905260640160006040518083038186803b158015611e8857600080fd5b505af4158015611e9c573d6000803e3d6000fd5b50505060409190915550565b6000816001600160a01b0316611ebc612451565b6001600160a01b0316635aa6e6756040518163ffffffff1660e01b8152600401602060405180830381865afa158015611ef9573d6000803e3d6000fd5b505050506040513d601f19601f82011682018060405250810190611f1d91906153be565b6001600160a01b03161492915050565b600054610100900460ff1615808015611f4d5750600054600160ff909116105b80611f675750303b158015611f67575060005460ff166001145b611fca5760405162461bcd60e51b815260206004820152602e60248201527f496e697469616c697a61626c653a20636f6e747261637420697320616c72656160448201526d191e481a5b9a5d1a585b1a5e995960921b6064820152608401611134565b6000805460ff191660011790558015611fed576000805461ff0019166101001790555b611ff8898989612c87565b73__$e73f546b22cebb10cea6b8c699528ebeb1$__639fdcbe5060018b8a8a8a8a8f6001600160a01b03166338d52e0f6040518163ffffffff1660e01b8152600401602060405180830381865afa158015612057573d6000803e3d6000fd5b505050506040513d601f19601f8201168201806040525081019061207b91906153be565b6040516001600160e01b031960e08a901b16815260048101979097526001600160a01b03958616602488015293851660448701529184166064860152600290810b60848601520b60a48401521660c482015285151560e48201526101040160006040518083038186803b1580156120f157600080fd5b505af4158015612105573d6000803e3d6000fd5b50506040805163c3724a8960e01b81526001600482015285516001600160a01b03908116602483015260208701518116604483015291860151909116606482015260608501516084820152608085015160a482015273__$e73f546b22cebb10cea6b8c699528ebeb1$__925063c3724a89915060c40160006040518083038186803b15801561219357600080fd5b505af41580156121a7573d6000803e3d6000fd5b50506040516340311eef60e01b81526001600482015273__$e73f546b22cebb10cea6b8c699528ebeb1$__92506340311eef9150602401600060405180830381865af41580156121fb573d6000803e3d6000fd5b505050506040513d6000823e601f3d908101601f19168201604052612223919081019061540b565b6044906122309082615453565b507f13bdeb5b5bb760c04b92d93e56c576c6805359d41a13d3cca178aa7c8526b98460446040516122619190615512565b60405180910390a180156122af576000805461ff0019169055604051600181527f7f26b83ff96e1f2b6a682f133852f6798a09c465da95921460cefb38474024989060200160405180910390a15b505050505050505050565b60006122c4612451565b60405163124fdbb760e21b815290915073__$ec217c54da363a68ad871e6868efec481c$__9063493f6edc906122fe908490600401614bf5565b60006040518083038186803b15801561231657600080fd5b505af415801561232a573d6000803e3d6000fd5b50505050600061233a60016128f8565b91505060008161234861072e565b6123529190615085565b600554909150600160201b90046001600160801b031615612377576123756129b1565b505b607154604080516080810182528915158152602081018990526001600160a01b038881168284015260608201889052603f549251635729f98d60e01b815260009473__$e73f546b22cebb10cea6b8c699528ebeb1$__94635729f98d946123ed94600194938116938a938c92169060040161559d565b600060405180830381865af415801561240a573d6000803e3d6000fd5b505050506040513d6000823e601f3d908101601f1916820160405261243291908101906152a8565b9050805160020361244957612446816129d5565b50505b6122af612a62565b60006107b4610fbc60017f5165972ef41194f06c5007493031d0b927c20741adcb74403b954009fd2c3618615085565b60405163e1a91ef360e01b81526001600482015260009073__$e73f546b22cebb10cea6b8c699528ebeb1$__9063e1a91ef390602401611c8b565b60006001600160e01b0319821663c19fa56160e01b14806107de57506107de82612d29565b60008060006124f16000196127c4565b925092509250909192565b603e5460009081908190612518906001600160a01b0316612a76565b9150915073__$e930d50fb5f4f1298547dbcb2bb0591990$__63c9bce690836125596125546005546001600160801b03600160201b9091041690565b612d5e565b6071546040516001600160e01b031960e086901b16815261258c93929187916001600160a01b0390911690600401615615565b602060405180830381865af41580156125a9573d6000803e3d6000fd5b505050506040513d601f19601f820116820180604052508101906125cd9190614fe3565b9250505090565b60608060008060006125e4612da8565b607154929550909350915073__$8f1afe7577f9ab973017c74eca19b86f3c$__9063e99de4da906001600160a01b031661261c612e27565b8686866040518663ffffffff1660e01b815260040161263f95949392919061565c565b600060405180830381865af415801561265c573d6000803e3d6000fd5b505050506040513d6000823e601f3d908101601f19168201604052612684919081019061572a565b90969095509350505050565b6000806000806126a060016128f8565b9150915060006126ae612ebe565b9196509450905060006127008780156126c657508415155b80156126ec5750620186a0856073546126df9190615783565b6126e9919061579a565b83115b6126f75760006126f9565b825b8486612f97565b915060009050806127476127148588615012565b603e54859061272b906001600160a01b0316612ae2565b6070546127389190615012565b6127429190615012565b613258565b915091506040805187815260208101879052908101899052606081018890526080810183905260a081018290527f3e9abbc366dbf9fe260e2640c06eefbedd7720cf986ae553374e46b804f4ff559060c00160405180910390a16127ab8289615012565b6127b58289615012565b97509750505050505050915091565b60008060008060006127d660016128f8565b915091506127e5868284613288565b5091989097509095509350505050565b60006127ff6129b1565b90507f768a28cb3459382a3d2173feb2dad0235f8de680b109872da581a3aa269fe5f48160405161283091906157bc565b60405180910390a1603e546000908190612852906001600160a01b0316612a76565b607154919350915073__$e930d50fb5f4f1298547dbcb2bb0591990$__906358b54f16906001600160a01b031661288f61288a612451565b613987565b846072600019886040518763ffffffff1660e01b81526004016128b7969594939291906157cf565b602060405180830381865af41580156128d4573d6000803e3d6000fd5b505050506040513d601f19601f82011682018060405250810190611be69190614fe3565b60008082156129a55760705461290c612a62565b603f54604051636e5b9cc760e11b815260048101849052602481018390526001600160a01b03909116604482015290935073__$e930d50fb5f4f1298547dbcb2bb0591990$__9063dcb7398e90606401602060405180830381865af4158015612979573d6000803e3d6000fd5b505050506040513d601f19601f8201168201806040525081019061299d9190614fe3565b915050915091565b50506070546000915091565b60606107b46129d06005546001600160801b03600160201b9091041690565b612b52565b6060600073__$e73f546b22cebb10cea6b8c699528ebeb1$__63b67626216001856040518363ffffffff1660e01b8152600401612a139291906152dc565b600060405180830381865af4158015612a30573d6000803e3d6000fd5b505050506040513d6000823e601f3d908101601f19168201604052612a58919081019061580c565b9094909350915050565b6000612a6c6124fc565b6070819055919050565b60606000612a82612e27565b9150612a8e82846139eb565b90506000198114156040518060400160405280600f81526020016e53423a2057726f6e672076616c756560881b81525090612adc5760405162461bcd60e51b81526004016111349190614c76565b50915091565b6040516370a0823160e01b81526000906001600160a01b038316906370a0823190612b11903090600401614bf5565b602060405180830381865afa158015612b2e573d6000803e3d6000fd5b505050506040513d601f19601f820116820180604052508101906107de9190614fe3565b604051631019287760e11b8152600160048201526001600160801b038216602482015260609073__$e73f546b22cebb10cea6b8c699528ebeb1$__9063203250ee906044015b600060405180830381865af4158015612bb5573d6000803e3d6000fd5b505050506040513d6000823e601f3d908101601f191682016040526107de91908101906152a8565b600554600090600160a01b900460ff1615612c76576040805160028082526060820183526000926020830190803683370190505090508381600081518110612c2757612c2761506f565b6020026020010181815250507f59400c8c523464b521238ea8f50e923f2bc64663557e6afec92a97f7efe92d058182604051612c64929190615852565b60405180910390a160009150506107de565b612c808383613a49565b90506107de565b600054610100900460ff16612cae5760405162461bcd60e51b815260040161113490615880565b612cb88383613a70565b607180546001600160a01b0319166001600160a01b038316179055612ce16064620186a061579a565b6073557fe4166dfcf23bbd3e3f764a99dc8fa740554c03c82d6019b81cf265f396f6f2fe612d136064620186a061579a565b60405190815260200160405180910390a1505050565b60006001600160e01b0319821663b7b79fa960e01b14806107de57506301ffc9a760e01b6001600160e01b03198316146107de565b604051630b14654d60e31b8152600160048201526001600160801b038216602482015260609073__$e73f546b22cebb10cea6b8c699528ebeb1$__906358a32a6890604401612b98565b60405163f6e2611760e01b8152600160048201526060908190819073__$e73f546b22cebb10cea6b8c699528ebeb1$__9063f6e2611790602401600060405180830381865af4158015612dff573d6000803e3d6000fd5b505050506040513d6000823e601f3d908101601f191682016040526124f191908101906158cb565b6040805160028082526060808301845292602083019080368337505060025482519293506001600160a01b031691839150600090612e6757612e6761506f565b6001600160a01b039283166020918202929092010152600354825191169082906001908110612e9857612e9861506f565b60200260200101906001600160a01b031690816001600160a01b03168152505090565b50565b6000806000806000612ece6125d4565b600254919350915073__$e73f546b22cebb10cea6b8c699528ebeb1$__906334d2ec3d906001600160a01b0316612f03612451565b85856040518563ffffffff1660e01b8152600401612f249493929190615952565b602060405180830381865af4158015612f41573d6000803e3d6000fd5b505050506040513d601f19601f82011682018060405250810190612f659190614fe3565b9450612f718282613c38565b603e5485908590612f8a906001600160a01b0316612ae2565b9450945094505050909192565b603e5460009081906001600160a01b031681858711612fb7576000612fc1565b612fc18688615085565b9050620186a085607354612fd59190615783565b612fdf919061579a565b81111561317f57851561308e57603f5473__$8f1afe7577f9ab973017c74eca19b86f3c$__9063aac2718a90849089906001600160a01b031661302183612ae2565b61302b908b615012565b6040518563ffffffff1660e01b815260040161304a9493929190615990565b602060405180830381865af4158015613067573d6000803e3d6000fd5b505050506040513d601f19601f8201168201806040525081019061308b9190614fe3565b92505b600061309983612ae2565b603e5490915060009081906130b6906001600160a01b0316612a76565b60715491935091506000906130d6906001600160a01b0316868585613cd8565b905060006130e3826129d5565b5090507f59400c8c523464b521238ea8f50e923f2bc64663557e6afec92a97f7efe92d058282604051613117929190615852565b60405180910390a16000613129612a62565b9050600061313689612ae2565b9050613142878d615012565b61314c8284615012565b10156131735761315c8183615012565b613166888e615012565b6131709190615085565b9a505b5050505050505061324e565b851561324e57600061319083612ae2565b9050868110156131b3576131a660008888613288565b909750955061324c915050565b603f5473__$8f1afe7577f9ab973017c74eca19b86f3c$__9063aac2718a9085908a906001600160a01b03166131e9868c615012565b6040518563ffffffff1660e01b81526004016132089493929190615990565b602060405180830381865af4158015613225573d6000803e3d6000fd5b505050506040513d601f19601f820116820180604052508101906132499190614fe3565b93505b505b5050935093915050565b600080838311156132745761326d8484615085565b9150613281565b61327e8385615085565b90505b9250929050565b60008060008061329787613f0f565b613332604051806102200160405280600015158152602001606081526020016000815260200160008152602001600081526020016000815260200160608152602001600081526020016060815260200160008152602001600081526020016060815260200160006001600160a01b0316815260200160008152602001600081526020016060815260200160006001600160a01b031681525090565b60001988148082526000935080613351575061334e8789615012565b15155b801561335c57508515155b1561396e57613369612e27565b6101608201819052603e546001600160a01b03908116610180840181905260715490911661020084015261339d91906139eb565b6101a08201526101808101516133b290612ae2565b6101c08201526133c0613f62565b6020820152600554600160201b90046001600160801b03166040820152600554600160201b90046001600160801b03166060820152610200810151610180820151604051637a55caf360e01b815273__$e930d50fb5f4f1298547dbcb2bb0591990$__92637a55caf39261343692600401615025565b602060405180830381865af4158015613453573d6000803e3d6000fd5b505050506040513d601f19601f820116820180604052508101906134779190614fe3565b60a0820152805173__$8f1afe7577f9ab973017c74eca19b86f3c$__9063ec0cc4fd906134ad576134a8898b615012565b6134b0565b60005b30846101600151856101a001518661020001518c88606001516040518863ffffffff1660e01b81526004016134eb97969594939291906159ba565b600060405180830381865af4158015613508573d6000803e3d6000fd5b505050506040513d6000823e601f3d908101601f191682016040526135309190810190615a09565b60c083015260808201819052156136795761354e8160800151612b52565b6101e0820152600554600160201b90046001600160801b031681606001516135769190615085565b608082018190526101e08201516040517faebc771af58936b05e89b0be7d3f9761480181abcd4a649fbdd01753fda16970926135b39290916152dc565b60405180910390a173__$e930d50fb5f4f1298547dbcb2bb0591990$__637a9a23e5826102000151836101600151846101a001518560200151866080015187604001518860c00151896101e001516040518963ffffffff1660e01b8152600401613624989796959493929190615a45565b600060405180830381865af4158015613641573d6000803e3d6000fd5b505050506040513d6000823e601f3d908101601f191682016040526136699190810190615ac7565b60c0830152610100820152613715565b6102008101516101608201516101a083015160c0840151604051636138ea8560e01b815273__$e930d50fb5f4f1298547dbcb2bb0591990$__94636138ea85946136c99491939092600401615afd565b600060405180830381865af41580156136e6573d6000803e3d6000fd5b505050506040513d6000823e601f3d908101601f1916820160405261370e91908101906152a8565b6101008201525b73__$e930d50fb5f4f1298547dbcb2bb0591990$__63f1f2b573826101600151836101a001518460c0015185610200015161375161288a612451565b8751613768578d8f6137639190615012565b61376a565b8e5b88610100015160726040518963ffffffff1660e01b8152600401613795989796959493929190615b39565b602060405180830381865af41580156137b2573d6000803e3d6000fd5b505050506040513d601f19601f820116820180604052508101906137d69190614fe3565b8160e0018181516137e79190615012565b905250861561389657610180810151603f546101c083015173__$8f1afe7577f9ab973017c74eca19b86f3c$__9263aac2718a9290918b916001600160a01b031690613833908c615012565b6040518563ffffffff1660e01b81526004016138529493929190615990565b602060405180830381865af415801561386f573d6000803e3d6000fd5b505050506040513d601f19601f820116820180604052508101906138939190614fe3565b91505b61389e612a62565b6101208201526101808101516138b390612ae2565b6101408201526101c08101516138c99087615012565b878261014001518361012001516138e09190615012565b6138ea9190615012565b101561393857868161014001518261012001516139079190615012565b6139119190615012565b6101c08201516139219088615012565b61392b9190615085565b6139359084615012565b92505b670de0b6b3a76400008160a001518260e001516139559190615783565b61395f919061579a565b8160a00151945094505061397e565b6000806000809450945094509450505b93509350935093565b6000816001600160a01b0316634046ebae6040518163ffffffff1660e01b8152600401602060405180830381865afa1580156139c7573d6000803e3d6000fd5b505050506040513d601f19601f820116820180604052508101906107de91906153be565b8151600090815b81811015613a3d57836001600160a01b0316858281518110613a1657613a1661506f565b60200260200101516001600160a01b031603613a355791506107de9050565b6001016139f2565b50600019949350505050565b6000806000613a57846128f8565b91509150613a66858284612f97565b5095945050505050565b600054610100900460ff16613a975760405162461bcd60e51b815260040161113490615880565b613ac1817fd2de0374d4479f33e63ae5ed6ca772a10463dd883a90c612050b51fab6196400613fdd565b613aca82614033565b60405163b429afeb60e01b81526001600160a01b0382169063b429afeb90613af6908590600401614bf5565b602060405180830381865afa158015613b13573d6000803e3d6000fd5b505050506040513d601f19601f82011682018060405250810190613b37919061537d565b6040518060400160405280600f81526020016e53423a2057726f6e672076616c756560881b81525090613b7d5760405162461bcd60e51b81526004016111349190614c76565b50806001600160a01b03166338d52e0f6040518163ffffffff1660e01b8152600401602060405180830381865afa158015613bbc573d6000803e3d6000fd5b505050506040513d601f19601f82011682018060405250810190613be091906153be565b603e80546001600160a01b039283166001600160a01b031991821617909155603f80549390921692811692909217905560428054909116739cc199d4353b5fb3e6c8eebc99f5139e0d8ea06b17905550612710604355565b81518015611665576000613c4c8484614258565b905073__$8f1afe7577f9ab973017c74eca19b86f3c$__63acf741a3613c70612451565b603f546040516001600160e01b031960e085901b168152613ca292916001600160a01b03169089908790600401615952565b60006040518083038186803b158015613cba57600080fd5b505af4158015613cce573d6000803e3d6000fd5b5050505050505050565b6060613ce2612481565b156040518060400160405280601381526020017241532d31204e65656420726562616c616e636560681b81525090613d2d5760405162461bcd60e51b81526004016111349190614c76565b5060408051600280825260608201835290916020830190803683370190505060048054600554604051637799c1d160e01b81526001600160a01b03831693810193909352600160c01b8204600290810b6024850152600160d81b90920490910b60448301526301000000900460ff1615156064820152909150600090819073__$e73f546b22cebb10cea6b8c699528ebeb1$__90637799c1d190608401600060405180830381865af4158015613de7573d6000803e3d6000fd5b505050506040513d6000823e601f3d908101601f19168201604052613e0f919081019061540b565b600254909150613e29906001600160a01b0316878961440d565b60025460035460405163ca27d10d60e01b815273__$e930d50fb5f4f1298547dbcb2bb0591990$__9263ca27d10d92613e7c928c9287926001600160a01b03918216929116908d90600090600401615baf565b6040805180830381865af4158015613e98573d6000803e3d6000fd5b505050506040513d601f19601f82011682018060405250810190613ebc919061539a565b84600181518110613ecf57613ecf61506f565b60209081029190910101529150613ee68287615085565b83600081518110613ef957613ef961506f565b6020026020010181815250505050949350505050565b613f17612481565b156040518060400160405280601381526020017241532d31204e65656420726562616c616e636560681b815250906110de5760405162461bcd60e51b81526004016111349190614c76565b604051631be4243b60e01b81526001600482015260609073__$e73f546b22cebb10cea6b8c699528ebeb1$__90631be4243b90602401600060405180830381865af4158015613fb5573d6000803e3d6000fd5b505050506040513d6000823e601f3d908101601f191682016040526107b491908101906152a8565b613fe782826144b1565b6110de5760405162461bcd60e51b815260206004820152601a60248201527f496e74657266616365206973206e6f7420737570706f727465640000000000006044820152606401611134565b600054610100900460ff1661405a5760405162461bcd60e51b815260040161113490615880565b6001600160a01b0381166140a25760405162461bcd60e51b815260206004820152600f60248201526e2d32b9379031b7b73a3937b63632b960891b6044820152606401611134565b6140cc817f4c2403fdcb3cff9b705d96bf0705858e3390412670a62c8bcba611ca7e20ab86613fdd565b60006001600160a01b0316816001600160a01b0316635aa6e6756040518163ffffffff1660e01b8152600401602060405180830381865afa158015614115573d6000803e3d6000fd5b505050506040513d601f19601f8201168201806040525081019061413991906153be565b6001600160a01b0316036141815760405162461bcd60e51b815260206004820152600f60248201526e5a65726f20676f7665726e616e636560881b6044820152606401611134565b6141b08161120b60017f5165972ef41194f06c5007493031d0b927c20741adcb74403b954009fd2c3618615085565b6141df4261120b60017f6f55f470bdc9cb5f04223fd822021061668e4dccb43e8727b295106dc9769c8b615085565b61420e4361120b60017f812a673dfca07956350df10f8a654925f561d7a0da09bdbe79e653939a14d9f1615085565b604080516001600160a01b0383168152426020820152438183015290517f1a2dd071001ebf6e03174e3df5b305795a4ad5d41d8fdb9ba41dbbe2367134269181900360600190a150565b603e546071546040546060926001600160a01b039081169260009273__$e930d50fb5f4f1298547dbcb2bb0591990$__9263ef50284f921690859061429b612e27565b6142a661288a612451565b60728c8c6043546040518a63ffffffff1660e01b81526004016142d199989796959493929190615bf7565b600060405180830381865af41580156142ee573d6000803e3d6000fd5b505050506040513d6000823e601f3d908101601f19168201604052614316919081019061580c565b603f54604254607454604051631248faf160e21b81526001600160a01b03808916600483015260248201869052938416604482015292909116606483015260848201529194509150600090819073__$8f1afe7577f9ab973017c74eca19b86f3c$__90634923ebc49060a4016040805180830381865af415801561439e573d6000803e3d6000fd5b505050506040513d601f19601f820116820180604052508101906143c2919061539a565b915091507f4c300a656bfa0935e36cd55e92634bc20b2b7e0a0ebf424a2a25bfaac3a01e76878684846040516143fb9493929190615c7b565b60405180910390a15050505092915050565b604051636eb1769f60e11b815282906001600160a01b0385169063dd62ed3e9061443d9030908690600401615025565b602060405180830381865afa15801561445a573d6000803e3d6000fd5b505050506040513d601f19601f8201168201806040525081019061447e9190614fe3565b1015611665576144996001600160a01b03841682600061458f565b6116656001600160a01b03841682600160ff1b61458f565b60006001600160a01b0383166144f85760405162461bcd60e51b815260206004820152600c60248201526b5a65726f206164647265737360a01b6044820152606401611134565b823b600081900361450d5760009150506107de565b6040516301ffc9a760e01b81526001600160e01b0319841660048201526001600160a01b038516906301ffc9a790602401602060405180830381865afa925050508015614577575060408051601f3d908101601f191682019092526145749181019061537d565b60015b156145855791506107de9050565b5060009392505050565b8015806146085750604051636eb1769f60e11b81526001600160a01b0384169063dd62ed3e906145c59030908690600401615025565b602060405180830381865afa1580156145e2573d6000803e3d6000fd5b505050506040513d601f19601f820116820180604052508101906146069190614fe3565b155b6146735760405162461bcd60e51b815260206004820152603660248201527f5361666545524332303a20617070726f76652066726f6d206e6f6e2d7a65726f60448201527520746f206e6f6e2d7a65726f20616c6c6f77616e636560501b6064820152608401611134565b604080516001600160a01b03848116602483015260448083018590528351808403909101815260649092018352602080830180516001600160e01b031663095ea7b360e01b17905283518085019094528084527f5361666545524332303a206c6f772d6c6576656c2063616c6c206661696c65649084015261166592869291600091614703918516908490614780565b8051909150156116655780806020019051810190614721919061537d565b6116655760405162461bcd60e51b815260206004820152602a60248201527f5361666545524332303a204552433230206f7065726174696f6e20646964206e6044820152691bdd081cdd58d8d9595960b21b6064820152608401611134565b606061478f8484600085614799565b90505b9392505050565b6060824710156147fa5760405162461bcd60e51b815260206004820152602660248201527f416464726573733a20696e73756666696369656e742062616c616e636520666f6044820152651c8818d85b1b60d21b6064820152608401611134565b600080866001600160a01b031685876040516148169190615ce6565b60006040518083038185875af1925050503d8060008114614853576040519150601f19603f3d011682016040523d82523d6000602084013e614858565b606091505b509150915061486987838387614874565b979650505050505050565b606083156148e35782516000036148dc576001600160a01b0385163b6148dc5760405162461bcd60e51b815260206004820152601d60248201527f416464726573733a2063616c6c20746f206e6f6e2d636f6e74726163740000006044820152606401611134565b50816109b3565b6109b383838151156148f85781518083602001fd5b8060405162461bcd60e51b81526004016111349190614c76565b60006020828403121561492457600080fd5b81356001600160e01b03198116811461479257600080fd5b6001600160a01b0381168114612ebb57600080fd5b6000806040838503121561496457600080fd5b823561496f8161493c565b946020939093013593505050565b634e487b7160e01b600052604160045260246000fd5b60405160a081016001600160401b03811182821017156149b5576149b561497d565b60405290565b604051601f8201601f191681016001600160401b03811182821017156149e3576149e361497d565b604052919050565b60006001600160401b03821115614a0457614a0461497d565b50601f01601f191660200190565b600082601f830112614a2357600080fd5b8135614a36614a31826149eb565b6149bb565b818152846020838601011115614a4b57600080fd5b816020850160208301376000918101602001919091529392505050565b60008060008060808587031215614a7e57600080fd5b8435614a898161493c565b93506020850135614a998161493c565b92506040850135915060608501356001600160401b03811115614abb57600080fd5b614ac787828801614a12565b91505092959194509250565b600081518084526020808501945080840160005b83811015614b0357815187529582019590820190600101614ae7565b509495945050505050565b6001600160a01b038d811682528c811660208301528b16604082015260028a810b606083015289810b608083015288810b60a083015287900b60c08201526001600160801b03861660e0820152600085151561010083015284610120830152614b836101408301856001600160a01b03169052565b610180610160830152614b9a610180830184614ad3565b9e9d5050505050505050505050505050565b60008060408385031215614bbf57600080fd5b823591506020830135614bd18161493c565b809150509250929050565b600060208284031215614bee57600080fd5b5035919050565b6001600160a01b0391909116815260200190565b600060208284031215614c1b57600080fd5b81356147928161493c565b60005b83811015614c41578181015183820152602001614c29565b50506000910152565b60008151808452614c62816020860160208601614c26565b601f01601f19169290920160200192915050565b6020815260006147926020830184614c4a565b60008060208385031215614c9c57600080fd5b82356001600160401b0380821115614cb357600080fd5b818501915085601f830112614cc757600080fd5b813581811115614cd657600080fd5b866020828501011115614ce857600080fd5b60209290920196919550909350505050565b60006001600160401b03821115614d1357614d1361497d565b5060051b60200190565b600082601f830112614d2e57600080fd5b81356020614d3e614a3183614cfa565b82815260059290921b84018101918181019086841115614d5d57600080fd5b8286015b84811015614d785780358352918301918301614d61565b509695505050505050565b60008060408385031215614d9657600080fd5b82356001600160401b0380821115614dad57600080fd5b818501915085601f830112614dc157600080fd5b81356020614dd1614a3183614cfa565b82815260059290921b84018101918181019089841115614df057600080fd5b948201945b83861015614e17578535614e088161493c565b82529482019490820190614df5565b96505086013592505080821115614e2d57600080fd5b50614e3a85828601614d1d565b9150509250929050565b8015158114612ebb57600080fd5b60008060408385031215614e6557600080fd5b823591506020830135614bd181614e44565b8035600281900b8114614e8957600080fd5b919050565b600080600080600080600080888a03610180811215614eac57600080fd5b8935614eb78161493c565b985060208a0135614ec78161493c565b975060408a0135614ed78161493c565b965060608a0135614ee78161493c565b9550614ef560808b01614e77565b9450614f0360a08b01614e77565b935060c08a0135614f1381614e44565b925060a060df1982011215614f2757600080fd5b50614f30614993565b60e08a0135614f3e8161493c565b81526101008a0135614f4f8161493c565b60208201526101208a0135614f638161493c565b60408201526101408a013560608201526101609099013560808a0152509598949750929591949093909190565b60008060008060808587031215614fa657600080fd5b8435614fb181614e44565b9350602085013592506040850135614fc88161493c565b915060608501356001600160401b03811115614abb57600080fd5b600060208284031215614ff557600080fd5b5051919050565b634e487b7160e01b600052601160045260246000fd5b808201808211156107de576107de614ffc565b6001600160a01b0392831681529116602082015260400190565b6001600160a01b039586168152602081019490945260408401929092526060830152909116608082015260a00190565b634e487b7160e01b600052603260045260246000fd5b818103818111156107de576107de614ffc565b600080604083850312156150ab57600080fd5b82516150b681614e44565b6020939093015192949293505050565b600181811c908216806150da57607f821691505b6020821081036150fa57634e487b7160e01b600052602260045260246000fd5b50919050565b6001600160a01b03841681526040602082018190528101829052818360608301376000818301606090810191909152601f909201601f1916010192915050565b601f82111561166557600081815260208120601f850160051c810160208610156151675750805b601f850160051c820191505b8181101561518657828155600101615173565b505050505050565b6001600160401b038311156151a5576151a561497d565b6151b9836151b383546150c6565b83615140565b6000601f8411600181146151ed57600085156151d55750838201355b600019600387901b1c1916600186901b178355610f85565b600083815260209020601f19861690835b8281101561521e57868501358255602094850194600190920191016151fe565b508682101561523b5760001960f88860031b161c19848701351681555b505060018560011b0183555050505050565b600082601f83011261525e57600080fd5b8151602061526e614a3183614cfa565b82815260059290921b8401810191818101908684111561528d57600080fd5b8286015b84811015614d785780518352918301918301615291565b6000602082840312156152ba57600080fd5b81516001600160401b038111156152d057600080fd5b611d718482850161524d565b82815260406020820152600061478f6040830184614ad3565b600081518084526020808501945080840160005b83811015614b035781516001600160a01b031687529582019590820190600101615309565b87815286602082015260e06040820152600061534d60e08301886152f5565b6001600160a01b0396871660608401529486166080830152509190931660a082015260c001919091529392505050565b60006020828403121561538f57600080fd5b815161479281614e44565b600080604083850312156153ad57600080fd5b505080516020909101519092909150565b6000602082840312156153d057600080fd5b81516147928161493c565b60006153e9614a31846149eb565b90508281528383830111156153fd57600080fd5b614792836020830184614c26565b60006020828403121561541d57600080fd5b81516001600160401b0381111561543357600080fd5b8201601f8101841361544457600080fd5b611d71848251602084016153db565b81516001600160401b0381111561546c5761546c61497d565b6154808161547a84546150c6565b84615140565b602080601f8311600181146154b5576000841561549d5750858301515b600019600386901b1c1916600185901b178555615186565b600085815260208120601f198616915b828110156154e4578886015182559484019460019091019084016154c5565b50858210156155025787850151600019600388901b60f8161c191681555b5050505050600190811b01905550565b6000602080835260008454615526816150c6565b8084870152604060018084166000811461554757600181146155615761558f565b60ff1985168984015283151560051b89018301955061558f565b896000528660002060005b858110156155875781548b820186015290830190880161556c565b8a0184019650505b509398975050505050505050565b868152600060018060a01b03808816602084015286604084015260c060608401528551151560c0840152602086015160e084015280604087015116610100840152606086015160806101208501526155f9610140850182614c4a565b6080850196909652509290921660a09091015250949350505050565b60808152600061562860808301876152f5565b828103602084015261563a8187614ad3565b604084019590955250506001600160a01b039190911660609091015292915050565b6001600160a01b038616815260a060208201819052600090615680908301876152f5565b828103604084015261569281876152f5565b905082810360608401526156a68186614ad3565b905082810360808401526156ba8185614ad3565b98975050505050505050565b600082601f8301126156d757600080fd5b815160206156e7614a3183614cfa565b82815260059290921b8401810191818101908684111561570657600080fd5b8286015b84811015614d7857805161571d8161493c565b835291830191830161570a565b6000806040838503121561573d57600080fd5b82516001600160401b038082111561575457600080fd5b615760868387016156c6565b9350602085015191508082111561577657600080fd5b50614e3a8582860161524d565b80820281158282048414176107de576107de614ffc565b6000826157b757634e487b7160e01b600052601260045260246000fd5b500490565b6020815260006147926020830184614ad3565b600060018060a01b03808916835280881660208401525085604083015284606083015283608083015260c060a08301526156ba60c08301846152f5565b6000806040838503121561581f57600080fd5b82516001600160401b0381111561583557600080fd5b6158418582860161524d565b925050602083015190509250929050565b6040815260006158656040830185614ad3565b82810360208401526158778185614ad3565b95945050505050565b6020808252602b908201527f496e697469616c697a61626c653a20636f6e7472616374206973206e6f74206960408201526a6e697469616c697a696e6760a81b606082015260800190565b6000806000606084860312156158e057600080fd5b83516001600160401b03808211156158f757600080fd5b615903878388016156c6565b9450602086015191508082111561591957600080fd5b6159258783880161524d565b9350604086015191508082111561593b57600080fd5b506159488682870161524d565b9150509250925092565b6001600160a01b0385811682528416602082015260806040820181905260009061597e908301856152f5565b82810360608401526148698185614ad3565b6001600160a01b039485168152602081019390935292166040820152606081019190915260800190565b878152600060018060a01b03808916602084015260e060408401526159e260e08401896152f5565b606084019790975294909416608082015260a081019290925260c090910152509392505050565b60008060408385031215615a1c57600080fd5b8251915060208301516001600160401b03811115615a3957600080fd5b614e3a8582860161524d565b6001600160a01b038916815261010060208201819052600090615a6a8382018b6152f5565b90508860408401528281036060840152615a848189614ad3565b90508660808401528560a084015282810360c0840152615aa48186614ad3565b905082810360e0840152615ab88185614ad3565b9b9a5050505050505050505050565b60008060408385031215615ada57600080fd5b82516001600160401b0380821115615af157600080fd5b6157608683870161524d565b6001600160a01b0385168152608060208201819052600090615b21908301866152f5565b84604084015282810360608401526148698185614ad3565b6000610100808352615b4d8184018c6152f5565b90508960208401528281036040840152615b67818a614ad3565b6001600160a01b0389811660608601528816608085015260a0840187905283810360c08501529050615b998186614ad3565b9150508260e08301529998505050505050505050565b600060018060a01b03808916835260c06020840152615bd160c0840189614c4a565b9681166040840152949094166060820152608081019290925260a0909101525092915050565b6001600160a01b038a8116825289811660208301526040820189905261012060608301819052600091615c2c8483018b6152f5565b91508089166080850152508660a084015282810360c0840152615c4f81876152f5565b905082810360e0840152615c638186614ad3565b915050826101008301529a9950505050505050505050565b6080808252855190820181905260009060209060a0840190828901845b82811015615cbd5781516001600160a01b031684529284019290840190600101615c98565b50505083810382850152615cd18188614ad3565b60408501969096525050506060015292915050565b60008251615cf8818460208701614c26565b919091019291505056fea26469706673582212209d6b8fcd050636b8cb63ee4e097922809e500aead181a35e237babea907d08fd64736f6c63430008110033",
  "libraries": {
    "StrategyLib": "0x3BEB969c0cd273eA1d7a39137a757Cf1c474510a",
    "ConverterStrategyBaseLib": "0x4dC0dfFFd2de28f7A822Fe1139127e3dc1Af86FA",
    "ConverterStrategyBaseLib2": "0x3C8b18162cBb11B9D0afe3828f4A6C6e247f30E0",
    "AlgebraConverterStrategyLogicLib": "0xf4A4Cb063457F36E434E5D93a9A2286f65e22d6f"
  },
  "devdoc": {
    "kind": "dev",
    "methods": {
      "claim()": {
        "details": "Manual claim rewards."
      },
      "created()": {
        "returns": {
          "_0": "Creation timestamp"
        }
      },
      "createdBlock()": {
        "returns": {
          "_0": "Creation block number"
        }
      },
      "doHardWork()": {
        "returns": {
          "earned": "Earned amount in terms of {asset}",
          "lost": "Lost amount in terms of {asset}"
        }
      },
      "emergencyExit()": {
        "details": "In case of any issue operator can withdraw all from pool."
      },
      "getFees()": {
        "returns": {
          "fee0": "and fee1."
        }
      },
      "increaseRevision(address)": {
        "details": "Revision should be increased on each contract upgrade"
      },
      "init(address,address,address,address,int24,int24,bool,(address,address,address,uint256,uint256))": {
        "params": {
          "controller_": "The address of the controller.",
          "converter_": "The address of the converter.",
          "pool_": "The address of the pool.",
          "rebalanceTickRange_": "The tick range for rebalancing.",
          "splitter_": "The address of the splitter.",
          "tickRange_": "The tick range for the liquidity position."
        }
      },
      "investAll(uint256,bool)": {
        "params": {
          "updateTotalAssetsBeforeInvest_": "Recalculate total assets amount before depositing.                                       It can be false if we know exactly, that the amount is already actual."
        },
        "returns": {
          "strategyLoss": "Loss should be covered from Insurance"
        }
      },
      "isController(address)": {
        "details": "Return true if given address is controller"
      },
      "isReadyToHardWork()": {
        "returns": {
          "_0": "A boolean indicating if the strategy is ready for hard work."
        }
      },
      "needRebalance()": {
        "returns": {
          "_0": "A boolean indicating if the strategy needs rebalancing."
        }
      },
      "onTransferAmounts(address[],uint256[])": {
        "params": {
          "amounts_": "Amount of {asset_} that has been sent to the user's balance",
          "assets_": "Any asset sent to the balance, i.e. inside repayTheBorrow"
        }
      },
      "previousImplementation()": {
        "details": "Previous logic implementation"
      },
      "quoteRebalanceSwap()": {
        "returns": {
          "_0": "swapAtoB, swapAmount"
        }
      },
      "rebalance()": {
        "details": "The rebalancing functionality is the core of this strategy.      Swap method is used."
      },
      "requirePayAmountBack(address,uint256)": {
        "params": {
          "amount_": "Required amount of the {theAsset_}",
          "theAsset_": "Required asset (either collateral or borrow)"
        },
        "returns": {
          "amountOut": "Amount sent to balance of TetuConverter, amountOut <= amount_"
        }
      },
      "revision()": {
        "details": "Contract upgrade counter"
      },
      "setCompoundRatio(uint256)": {
        "details": "PlatformVoter can change compound ratio for some strategies.      A strategy can implement another logic for some uniq cases."
      },
      "setFuseThreshold(uint256)": {
        "params": {
          "newFuseThreshold": "The new fuse threshold value."
        }
      },
      "setReinvestThresholdPercent(uint256)": {
        "params": {
          "percent_": "New value of the percent, decimals = {REINVEST_THRESHOLD_PERCENT_DENOMINATOR}"
        }
      },
      "setStrategySpecificName(string)": {
        "details": "The name will be used for UI."
      },
      "supportsInterface(bytes4)": {
        "details": "See {IERC165-supportsInterface}."
      },
      "totalAssets()": {
        "details": "Total amount of underlying assets under control of this strategy."
      },
      "withdrawAllToSplitter()": {
        "details": "Withdraws all underlying assets to the vault",
        "returns": {
          "strategyLoss": "Loss should be covered from Insurance"
        }
      },
      "withdrawToSplitter(uint256)": {
        "details": "Withdraws some assets to the splitter",
        "returns": {
          "strategyLoss": "Loss should be covered from Insurance"
        }
      }
    },
    "version": 1
  },
  "userdoc": {
    "events": {
      "Recycle(address[],uint256[],uint256,uint256)": {
        "notice": "Recycle was made"
      }
    },
    "kind": "user",
    "methods": {
      "CONTROLLABLE_VERSION()": {
        "notice": "Version of the contract"
      },
      "NAME()": {
        "notice": "CONSTANTS"
      },
      "capacity()": {
        "notice": "Unlimited capacity by default"
      },
      "controller()": {
        "notice": "Return controller address saved in the contract slot"
      },
      "created()": {
        "notice": "Return creation timestamp"
      },
      "createdBlock()": {
        "notice": "Return creation block number"
      },
      "disableFuse()": {
        "notice": "Disable fuse for the strategy."
      },
      "doHardWork()": {
        "notice": "Do hard work with reinvesting"
      },
      "getFees()": {
        "notice": "Returns the fees for the current state."
      },
      "getState()": {
        "notice": "Returns the current state of the contract."
      },
      "init(address,address,address,address,int24,int24,bool,(address,address,address,uint256,uint256))": {
        "notice": "Initialize the strategy with the given parameters."
      },
      "investAll(uint256,bool)": {
        "notice": "Stakes everything the strategy holds into the reward pool. amount_ Amount transferred to the strategy balance just before calling this function"
      },
      "investedAssets()": {
        "notice": "Amount of underlying assets converted to pool assets and invested to the pool."
      },
      "isGovernance(address)": {
        "notice": "Return true if given address is setup as governance in Controller"
      },
      "isReadyToHardWork()": {
        "notice": "Check if the strategy is ready for hard work."
      },
      "liquidationThresholds(address)": {
        "notice": "Minimum token amounts that can be liquidated"
      },
      "needRebalance()": {
        "notice": "Check if the strategy needs rebalancing."
      },
      "onERC721Received(address,address,uint256,bytes)": {
        "notice": "CALLBACKS"
      },
      "onTransferAmounts(address[],uint256[])": {
        "notice": "TetuConverter calls this function when it sends any amount to user's balance"
      },
      "performanceFee()": {
        "notice": "A percent of total profit that is sent to the {performanceReceiver} before compounding"
      },
      "performanceFeeRatio()": {
        "notice": "Ratio to split performance fee on toPerf + toInsurance, [0..100_000]         100_000 - send full amount toPerf, 0 - send full amount toInsurance."
      },
      "performanceReceiver()": {
        "notice": "{performanceFee}% of total profit is sent to {performanceReceiver} before compounding"
      },
      "reinvestThresholdPercent()": {
        "notice": "Percent of asset amount that can be not invested, it's allowed to just keep it on balance         decimals = {DENOMINATOR}"
      },
      "requirePayAmountBack(address,uint256)": {
        "notice": "Converters asks to send some amount back."
      },
      "setFuseThreshold(uint256)": {
        "notice": "Set the fuse threshold for the strategy."
      },
      "setPerformanceFeeRatio(uint256)": {
        "notice": "[0..100_000], 100_000 - send full amount toPerf, 0 - send full amount toInsurance."
      },
      "setupPerformanceFee(uint256,address)": {
        "notice": "Set performance fee and receiver"
      }
    },
    "version": 1
  },
  "storageLayout": {
    "storage": [
      {
        "astId": 11696,
        "contract": "contracts/strategies/algebra/AlgebraConverterStrategy.sol:AlgebraConverterStrategy",
        "label": "_initialized",
        "offset": 0,
        "slot": "0",
        "type": "t_uint8"
      },
      {
        "astId": 11699,
        "contract": "contracts/strategies/algebra/AlgebraConverterStrategy.sol:AlgebraConverterStrategy",
        "label": "_initializing",
        "offset": 1,
        "slot": "0",
        "type": "t_bool"
      },
      {
        "astId": 76601,
        "contract": "contracts/strategies/algebra/AlgebraConverterStrategy.sol:AlgebraConverterStrategy",
        "label": "state",
        "offset": 0,
        "slot": "1",
        "type": "t_struct(State)72926_storage"
      },
      {
        "astId": 76958,
        "contract": "contracts/strategies/algebra/AlgebraConverterStrategy.sol:AlgebraConverterStrategy",
        "label": "__gap",
        "offset": 0,
        "slot": "13",
        "type": "t_array(t_uint256)49_storage"
      },
      {
        "astId": 16585,
        "contract": "contracts/strategies/algebra/AlgebraConverterStrategy.sol:AlgebraConverterStrategy",
        "label": "asset",
        "offset": 0,
        "slot": "62",
        "type": "t_address"
      },
      {
        "astId": 16589,
        "contract": "contracts/strategies/algebra/AlgebraConverterStrategy.sol:AlgebraConverterStrategy",
        "label": "splitter",
        "offset": 0,
        "slot": "63",
        "type": "t_address"
      },
      {
        "astId": 16593,
        "contract": "contracts/strategies/algebra/AlgebraConverterStrategy.sol:AlgebraConverterStrategy",
        "label": "compoundRatio",
        "offset": 0,
        "slot": "64",
        "type": "t_uint256"
      },
      {
        "astId": 16595,
        "contract": "contracts/strategies/algebra/AlgebraConverterStrategy.sol:AlgebraConverterStrategy",
        "label": "__deprecatedSlot1",
        "offset": 0,
        "slot": "65",
        "type": "t_uint256"
      },
      {
        "astId": 16599,
        "contract": "contracts/strategies/algebra/AlgebraConverterStrategy.sol:AlgebraConverterStrategy",
        "label": "performanceReceiver",
        "offset": 0,
        "slot": "66",
        "type": "t_address"
      },
      {
        "astId": 16603,
        "contract": "contracts/strategies/algebra/AlgebraConverterStrategy.sol:AlgebraConverterStrategy",
        "label": "performanceFee",
        "offset": 0,
        "slot": "67",
        "type": "t_uint256"
      },
      {
        "astId": 16607,
        "contract": "contracts/strategies/algebra/AlgebraConverterStrategy.sol:AlgebraConverterStrategy",
        "label": "strategySpecificName",
        "offset": 0,
        "slot": "68",
        "type": "t_string_storage"
      },
      {
        "astId": 17004,
        "contract": "contracts/strategies/algebra/AlgebraConverterStrategy.sol:AlgebraConverterStrategy",
        "label": "__gap",
        "offset": 0,
        "slot": "69",
        "type": "t_array(t_uint256)43_storage"
      },
      {
        "astId": 65565,
        "contract": "contracts/strategies/algebra/AlgebraConverterStrategy.sol:AlgebraConverterStrategy",
        "label": "_investedAssets",
        "offset": 0,
        "slot": "112",
        "type": "t_uint256"
      },
      {
        "astId": 65569,
        "contract": "contracts/strategies/algebra/AlgebraConverterStrategy.sol:AlgebraConverterStrategy",
        "label": "converter",
        "offset": 0,
        "slot": "113",
        "type": "t_contract(ITetuConverter)43349"
      },
      {
        "astId": 65574,
        "contract": "contracts/strategies/algebra/AlgebraConverterStrategy.sol:AlgebraConverterStrategy",
        "label": "liquidationThresholds",
        "offset": 0,
        "slot": "114",
        "type": "t_mapping(t_address,t_uint256)"
      },
      {
        "astId": 65577,
        "contract": "contracts/strategies/algebra/AlgebraConverterStrategy.sol:AlgebraConverterStrategy",
        "label": "reinvestThresholdPercent",
        "offset": 0,
        "slot": "115",
        "type": "t_uint256"
      },
      {
        "astId": 65580,
        "contract": "contracts/strategies/algebra/AlgebraConverterStrategy.sol:AlgebraConverterStrategy",
        "label": "performanceFeeRatio",
        "offset": 0,
        "slot": "116",
        "type": "t_uint256"
      },
      {
        "astId": 67076,
        "contract": "contracts/strategies/algebra/AlgebraConverterStrategy.sol:AlgebraConverterStrategy",
        "label": "__gap",
        "offset": 0,
        "slot": "117",
        "type": "t_array(t_uint256)45_storage"
      }
    ],
    "types": {
      "t_address": {
        "encoding": "inplace",
        "label": "address",
        "numberOfBytes": "20"
      },
      "t_array(t_uint256)43_storage": {
        "base": "t_uint256",
        "encoding": "inplace",
        "label": "uint256[43]",
        "numberOfBytes": "1376"
      },
      "t_array(t_uint256)45_storage": {
        "base": "t_uint256",
        "encoding": "inplace",
        "label": "uint256[45]",
        "numberOfBytes": "1440"
      },
      "t_array(t_uint256)49_storage": {
        "base": "t_uint256",
        "encoding": "inplace",
        "label": "uint256[49]",
        "numberOfBytes": "1568"
      },
      "t_bool": {
        "encoding": "inplace",
        "label": "bool",
        "numberOfBytes": "1"
      },
      "t_contract(IAlgebraPool)58389": {
        "encoding": "inplace",
        "label": "contract IAlgebraPool",
        "numberOfBytes": "20"
      },
      "t_contract(ITetuConverter)43349": {
        "encoding": "inplace",
        "label": "contract ITetuConverter",
        "numberOfBytes": "20"
      },
      "t_int24": {
        "encoding": "inplace",
        "label": "int24",
        "numberOfBytes": "3"
      },
      "t_mapping(t_address,t_uint256)": {
        "encoding": "mapping",
        "key": "t_address",
        "label": "mapping(address => uint256)",
        "numberOfBytes": "32",
        "value": "t_uint256"
      },
      "t_string_storage": {
        "encoding": "bytes",
        "label": "string",
        "numberOfBytes": "32"
      },
      "t_struct(State)72926_storage": {
        "encoding": "inplace",
        "label": "struct AlgebraConverterStrategyLogicLib.State",
        "members": [
          {
            "astId": 72888,
            "contract": "contracts/strategies/algebra/AlgebraConverterStrategy.sol:AlgebraConverterStrategy",
            "label": "strategyProfitHolder",
            "offset": 0,
            "slot": "0",
            "type": "t_address"
          },
          {
            "astId": 72890,
            "contract": "contracts/strategies/algebra/AlgebraConverterStrategy.sol:AlgebraConverterStrategy",
            "label": "tokenA",
            "offset": 0,
            "slot": "1",
            "type": "t_address"
          },
          {
            "astId": 72892,
            "contract": "contracts/strategies/algebra/AlgebraConverterStrategy.sol:AlgebraConverterStrategy",
            "label": "tokenB",
            "offset": 0,
            "slot": "2",
            "type": "t_address"
          },
          {
            "astId": 72895,
            "contract": "contracts/strategies/algebra/AlgebraConverterStrategy.sol:AlgebraConverterStrategy",
            "label": "pool",
            "offset": 0,
            "slot": "3",
            "type": "t_contract(IAlgebraPool)58389"
          },
          {
            "astId": 72897,
            "contract": "contracts/strategies/algebra/AlgebraConverterStrategy.sol:AlgebraConverterStrategy",
            "label": "tickSpacing",
            "offset": 20,
            "slot": "3",
            "type": "t_int24"
          },
          {
            "astId": 72899,
            "contract": "contracts/strategies/algebra/AlgebraConverterStrategy.sol:AlgebraConverterStrategy",
            "label": "isStablePool",
            "offset": 23,
            "slot": "3",
            "type": "t_bool"
          },
          {
            "astId": 72901,
            "contract": "contracts/strategies/algebra/AlgebraConverterStrategy.sol:AlgebraConverterStrategy",
            "label": "lowerTick",
            "offset": 24,
            "slot": "3",
            "type": "t_int24"
          },
          {
            "astId": 72903,
            "contract": "contracts/strategies/algebra/AlgebraConverterStrategy.sol:AlgebraConverterStrategy",
            "label": "upperTick",
            "offset": 27,
            "slot": "3",
            "type": "t_int24"
          },
          {
            "astId": 72905,
            "contract": "contracts/strategies/algebra/AlgebraConverterStrategy.sol:AlgebraConverterStrategy",
            "label": "rebalanceTickRange",
            "offset": 0,
            "slot": "4",
            "type": "t_int24"
          },
          {
            "astId": 72907,
            "contract": "contracts/strategies/algebra/AlgebraConverterStrategy.sol:AlgebraConverterStrategy",
            "label": "depositorSwapTokens",
            "offset": 3,
            "slot": "4",
            "type": "t_bool"
          },
          {
            "astId": 72909,
            "contract": "contracts/strategies/algebra/AlgebraConverterStrategy.sol:AlgebraConverterStrategy",
            "label": "totalLiquidity",
            "offset": 4,
            "slot": "4",
            "type": "t_uint128"
          },
          {
            "astId": 72911,
            "contract": "contracts/strategies/algebra/AlgebraConverterStrategy.sol:AlgebraConverterStrategy",
            "label": "isFuseTriggered",
            "offset": 20,
            "slot": "4",
            "type": "t_bool"
          },
          {
            "astId": 72913,
            "contract": "contracts/strategies/algebra/AlgebraConverterStrategy.sol:AlgebraConverterStrategy",
            "label": "fuseThreshold",
            "offset": 0,
            "slot": "5",
            "type": "t_uint256"
          },
          {
            "astId": 72915,
            "contract": "contracts/strategies/algebra/AlgebraConverterStrategy.sol:AlgebraConverterStrategy",
            "label": "lastPrice",
            "offset": 0,
            "slot": "6",
            "type": "t_uint256"
          },
          {
            "astId": 72917,
            "contract": "contracts/strategies/algebra/AlgebraConverterStrategy.sol:AlgebraConverterStrategy",
            "label": "tokenId",
            "offset": 0,
            "slot": "7",
            "type": "t_uint256"
          },
          {
            "astId": 72919,
            "contract": "contracts/strategies/algebra/AlgebraConverterStrategy.sol:AlgebraConverterStrategy",
            "label": "rewardToken",
            "offset": 0,
            "slot": "8",
            "type": "t_address"
          },
          {
            "astId": 72921,
            "contract": "contracts/strategies/algebra/AlgebraConverterStrategy.sol:AlgebraConverterStrategy",
            "label": "bonusRewardToken",
            "offset": 0,
            "slot": "9",
            "type": "t_address"
          },
          {
            "astId": 72923,
            "contract": "contracts/strategies/algebra/AlgebraConverterStrategy.sol:AlgebraConverterStrategy",
            "label": "startTime",
            "offset": 0,
            "slot": "10",
            "type": "t_uint256"
          },
          {
            "astId": 72925,
            "contract": "contracts/strategies/algebra/AlgebraConverterStrategy.sol:AlgebraConverterStrategy",
            "label": "endTime",
            "offset": 0,
            "slot": "11",
            "type": "t_uint256"
          }
        ],
        "numberOfBytes": "384"
      },
      "t_uint128": {
        "encoding": "inplace",
        "label": "uint128",
        "numberOfBytes": "16"
      },
      "t_uint256": {
        "encoding": "inplace",
        "label": "uint256",
        "numberOfBytes": "32"
      },
      "t_uint8": {
        "encoding": "inplace",
        "label": "uint8",
        "numberOfBytes": "1"
      }
    }
  }
}