{
  "address": "0x09Fc85da521e76aE44500865Db2fA0ec05813042",
  "abi": [
    {
      "inputs": [],
      "name": "SELL_GAP",
      "outputs": [
        {
          "internalType": "uint256",
          "name": "",
          "type": "uint256"
        }
      ],
      "stateMutability": "view",
      "type": "function"
    },
    {
      "inputs": [
        {
          "internalType": "contract IAlgebraPool",
          "name": "pool",
          "type": "IAlgebraPool"
        },
        {
          "internalType": "int24",
          "name": "tickRange",
          "type": "int24"
        },
        {
          "internalType": "int24",
          "name": "tickSpacing",
          "type": "int24"
        }
      ],
      "name": "calcTickRange",
      "outputs": [
        {
          "internalType": "int24",
          "name": "lowerTick",
          "type": "int24"
        },
        {
          "internalType": "int24",
          "name": "upperTick",
          "type": "int24"
        }
      ],
      "stateMutability": "view",
      "type": "function"
    },
    {
      "inputs": [
        {
          "internalType": "contract IAlgebraPool",
          "name": "pool",
          "type": "IAlgebraPool"
        },
        {
          "internalType": "int24",
          "name": "lowerTick",
          "type": "int24"
        },
        {
          "internalType": "int24",
          "name": "upperTick",
          "type": "int24"
        },
        {
          "internalType": "bool",
          "name": "depositorSwapTokens",
          "type": "bool"
        }
      ],
      "name": "getEntryData",
      "outputs": [
        {
          "internalType": "bytes",
          "name": "entryData",
          "type": "bytes"
        }
      ],
      "stateMutability": "view",
      "type": "function"
    },
    {
      "inputs": [
        {
          "internalType": "uint256",
          "name": "debtAmount",
          "type": "uint256"
        },
        {
          "internalType": "contract ITetuConverter",
          "name": "tetuConverter",
          "type": "ITetuConverter"
        },
        {
          "internalType": "address",
          "name": "tokenB",
          "type": "address"
        }
      ],
      "name": "needCloseDebt",
      "outputs": [
        {
          "internalType": "bool",
          "name": "",
          "type": "bool"
        }
      ],
      "stateMutability": "view",
      "type": "function"
    }
  ],
  "transactionHash": "0x3dd3757170b816914ea65b51dae9afe35dfaec2655e17b226b4fa28a6514e2d1",
  "args": [],
  "numDeployments": 4,
  "solcInputHash": "e3392ebe03c0207abfeb5aef7c0ac055",
  "bytecode": "0x61269661003a600b82828239805160001a60731461002d57634e487b7160e01b600052600060045260246000fd5b30600052607381538281f3fe73000000000000000000000000000000000000000030146080604052600436106100a85760003560e01c80637799c1d1116100705780637799c1d11461016f5780638246f8f11461018f5780638c562879146101af578063becd6fed146101d2578063f8328d9f146101f257600080fd5b806304dc719a146100ad5780631f377298146100cf578063510cc5981461010257806358817a981461012257806367acb54b1461014f575b600080fd5b8180156100b957600080fd5b506100cd6100c8366004611c5a565b6101fa565b005b8180156100db57600080fd5b506100ef6100ea366004611cfb565b610299565b6040519081526020015b60405180910390f35b81801561010e57600080fd5b506100cd61011d366004611e93565b610326565b610135610130366004611f2d565b61048d565b60408051600293840b81529190920b6020820152016100f9565b81801561015b57600080fd5b506100ef61016a366004611f6d565b6105bf565b61018261017d366004611fd5565b610854565b6040516100f99190612081565b81801561019b57600080fd5b506100cd6101aa366004612094565b610afd565b6101c26101bd3660046120f6565b610c65565b60405190151581526020016100f9565b8180156101de57600080fd5b506100cd6101ed36600461211d565b610e2b565b6100ef606481565b610208898989898989610ec6565b821561028e5760405163556138c560e11b8152733C8b18162cBb11B9D0afe3828f4A6C6e247f30E09063aac2718a9061024b9089908790869088906004016121c4565b602060405180830381865af4158015610268573d6000803e3d6000fd5b505050506040513d601f19601f8201168201806040525081019061028c91906121ee565b505b505050505050505050565b60405163dd27ede760e01b81523060048201526001600160a01b0383811660248301528281166044830152600160648301526000919085169063dd27ede79060840160408051808303816000875af11580156102f9573d6000803e3d6000fd5b505050506040513d601f19601f8201168201806040525081019061031d9190612207565b50949350505050565b60038601546001870154600288015460048901546001600160a01b039384169392831692909116906301000000900460ff166103658b84848c8c6112d3565b86156103eb5760405163556138c560e11b8152733C8b18162cBb11B9D0afe3828f4A6C6e247f30E09063aac2718a906103a89086908b908a908c906004016121c4565b602060405180830381865af41580156103c5573d6000803e3d6000fd5b505050506040513d601f19601f820116820180604052508101906103e991906121ee565b505b60038a01546000908190610421908790600160c01b8104600290810b91600160d81b8104820b91600160a01b909104900b6115c5565b91509150600061043387848487610854565b90506104418e87878461160d565b5060039b909b01805465ffffffffffff60c01b1916600160c01b62ffffff9384160262ffffff60d81b191617600160d81b92909c16919091029a909a1790995550505050505050505050565b6000806000856001600160a01b031663e76c01e46040518163ffffffff1660e01b815260040160e060405180830381865afa1580156104d0573d6000803e3d6000fd5b505050506040513d601f19601f820116820180604052508101906104f49190612253565b505050505091505060008160020b12801561052a5750600281900b8461051a81846122fe565b6105249190612338565b60020b14155b15610562578360018161053d888561235f565b61054791906122fe565b610551919061235f565b61055b9190612338565b9250610585565b838061056e878461235f565b61057891906122fe565b6105829190612338565b92505b8460020b6000146105aa5761059b856002612338565b6105a59084612384565b6105b4565b6105b48484612384565b915050935093915050565b6040516370a0823160e01b81526001600160a01b03858116600483015260009182918616906370a0823190602401602060405180830381865afa15801561060a573d6000803e3d6000fd5b505050506040513d601f19601f8201168201806040525081019061062e91906121ee565b6040516370a0823160e01b81526001600160a01b0388811660048301529192506000918616906370a0823190602401602060405180830381865afa15801561067a573d6000803e3d6000fd5b505050506040513d601f19601f8201168201806040525081019061069e91906121ee565b90508188116106c4576106bc6001600160a01b03871688308b611697565b879250610849565b8782156106ed576106e06001600160a01b038816893086611697565b6106ea83826123a9565b90505b811561083b576000876001600160a01b031663313ce5676040518163ffffffff1660e01b8152600401602060405180830381865afa158015610733573d6000803e3d6000fd5b505050506040513d601f19601f8201168201806040525081019061075791906123bc565b61076290600a6124bb565b604051635620c32d60e11b8152839073b1450ADeb76257593B97ABdC06ba908300847AAe9063ac41865a9061079d908b908e906004016124ca565b602060405180830381865af41580156107ba573d6000803e3d6000fd5b505050506040513d601f19601f820116820180604052508101906107de91906121ee565b6107e891906124e4565b6107f291906124fb565b905060006108008285611708565b90506108176001600160a01b0389168b3084611697565b8161082282856124e4565b61082c91906124fb565b61083690846123a9565b925050505b610845818a6123a9565b9350505b505095945050505050565b60606000856001600160a01b031663d21220a76040518163ffffffff1660e01b8152600401602060405180830381865afa158015610896573d6000803e3d6000fd5b505050506040513d601f19601f820116820180604052508101906108ba919061250f565b9050600073b1450ADeb76257593B97ABdC06ba908300847AAe63ac41865a88846040518363ffffffff1660e01b81526004016108f79291906124ca565b602060405180830381865af4158015610914573d6000803e3d6000fd5b505050506040513d601f19601f8201168201806040525081019061093891906121ee565b90506000826001600160a01b031663313ce5676040518163ffffffff1660e01b8152600401602060405180830381865afa15801561097a573d6000803e3d6000fd5b505050506040513d601f19601f8201168201806040525081019061099e91906123bc565b60ff1690508160006109b183600a612533565b6040516305f08b0f60e21b81526001600160a01b038c16600482015260028b810b60248301528a900b60448201526064810184905260848101829052909150600090819073b1450ADeb76257593B97ABdC06ba908300847AAe906317c22c3c9060a401606060405180830381865af4158015610a31573d6000803e3d6000fd5b505050506040513d601f19601f82011682018060405250810190610a55919061253f565b50915091508815610aa857600183610a6d88846124e4565b610a7791906124fb565b6040805160ff9093166020840152820152606081018390526080016040516020818303038152906040529750610aee565b60018284610ab689856124e4565b610ac091906124fb565b6040805160ff9094166020850152830191909152606082015260800160405160208183030381529060405297505b50505050505050949350505050565b60038501546001860154600287015460048801546001600160a01b039384169392831692909116906301000000900460ff16610b3d8b8b8686868d610ec6565b8615610bc35760405163556138c560e11b8152733C8b18162cBb11B9D0afe3828f4A6C6e247f30E09063aac2718a90610b809086908b908a908c906004016121c4565b602060405180830381865af4158015610b9d573d6000803e3d6000fd5b505050506040513d601f19601f82011682018060405250810190610bc191906121ee565b505b60038901546000908190610bf9908790600160c01b8104600290810b91600160d81b8104820b91600160a01b909104900b6115c5565b915091506000610c0b87848487610854565b9050610c198e87878461160d565b5060039a909a01805465ffffffffffff60c01b1916600160c01b62ffffff9384160262ffffff60d81b191617600160d81b92909b16919091029990991790985550505050505050505050565b600080836001600160a01b031663f77c47916040518163ffffffff1660e01b8152600401602060405180830381865afa158015610ca6573d6000803e3d6000fd5b505050506040513d601f19601f82011682018060405250810190610cca919061250f565b6001600160a01b0316632630c12f6040518163ffffffff1660e01b8152600401602060405180830381865afa158015610d07573d6000803e3d6000fd5b505050506040513d601f19601f82011682018060405250810190610d2b919061250f565b905067016345785d8a0000836001600160a01b031663313ce5676040518163ffffffff1660e01b8152600401602060405180830381865afa158015610d74573d6000803e3d6000fd5b505050506040513d601f19601f82011682018060405250810190610d9891906123bc565b610da390600a6124bb565b60405163b3596f0760e01b81526001600160a01b03868116600483015284169063b3596f0790602401602060405180830381865afa158015610de9573d6000803e3d6000fd5b505050506040513d601f19601f82011682018060405250810190610e0d91906121ee565b610e1790886124e4565b610e2191906124fb565b1195945050505050565b610e3888888888886112d3565b8215610ebc5760405163556138c560e11b8152733C8b18162cBb11B9D0afe3828f4A6C6e247f30E09063aac2718a90610e7b908a908790869088906004016121c4565b602060405180830381865af4158015610e98573d6000803e3d6000fd5b505050506040513d601f19601f8201168201806040525081019061028e91906121ee565b5050505050505050565b6000610ed3878585610299565b9050610ee0818885610c65565b156112ca576000610ef085611722565b90506000610efd85611722565b90508281101561112c57604051635620c32d60e11b815260009073b1450ADeb76257593B97ABdC06ba908300847AAe9063ac41865a90610f43908b908a906004016124ca565b602060405180830381865af4158015610f60573d6000803e3d6000fd5b505050506040513d601f19601f82011682018060405250810190610f8491906121ee565b90506000866001600160a01b031663313ce5676040518163ffffffff1660e01b8152600401602060405180830381865afa158015610fc6573d6000803e3d6000fd5b505050506040513d601f19601f82011682018060405250810190610fea91906123bc565b610ff590600a6124bb565b610fff84876123a9565b61100990846124e4565b61101391906124fb565b90506110206064826124fb565b61102a9082612582565b9050739971fDd707a2878Dc201294DcAbef5A0F8901589637de8f5698c8c6001600160a01b0316634046ebae6040518163ffffffff1660e01b8152600401602060405180830381865afa158015611085573d6000803e3d6000fd5b505050506040513d601f19601f820116820180604052508101906110a9919061250f565b8b8b6110b5878b611708565b8c6000806040518963ffffffff1660e01b81526004016110dc989796959493929190612595565b6040805180830381865af41580156110f8573d6000803e3d6000fd5b505050506040513d601f19601f8201168201806040525081019061111c9190612207565b505061112787611722565b925050505b739971fDd707a2878Dc201294DcAbef5A0F890158963954d7e738a88886111538887611708565b6040516001600160e01b031960e087901b1681526001600160a01b03948516600482015292841660248401529216604482015260648101919091526084016040805180830381865af41580156111ad573d6000803e3d6000fd5b505050506040513d601f19601f820116820180604052508101906111d19190612207565b50506111dc85611722565b9050739971fDd707a2878Dc201294DcAbef5A0F8901589637de8f5698a8a6001600160a01b0316634046ebae6040518163ffffffff1660e01b8152600401602060405180830381865afa158015611237573d6000803e3d6000fd5b505050506040513d601f19601f8201168201806040525081019061125b919061250f565b888a868a6000806040518963ffffffff1660e01b8152600401611285989796959493929190612595565b6040805180830381865af41580156112a1573d6000803e3d6000fd5b505050506040513d601f19601f820116820180604052508101906112c59190612207565b505050505b50505050505050565b6112e0816040015161178d565b60006112ed868686610299565b90506112fa818786610c65565b156115bd57600061130a86611722565b9050600061131786611722565b90506000846000015161132a578661132c565b875b90506113418186602001518760400151611823565b60008086604001516001600160a01b0316876060015160405161136491906125df565b6000604051808303816000865af19150503d80600081146113a1576040519150601f19603f3d011682016040523d82523d6000602084013e6113a6565b606091505b50915091508181906113d45760405162461bcd60e51b81526004016113cb9190612081565b60405180910390fd5b50505060006113e289611722565b905060006113ef89611722565b90508a6001600160a01b031663291f89c48489602001518a60000151611415578d611417565b8c5b8b5161142c576114278a886123a9565b611436565b61143689876123a9565b6040516001600160e01b031960e087901b1681526001600160a01b0394851660048201526024810193909352921660448201526064810191909152608481018b905260a401602060405180830381865afa158015611498573d6000803e3d6000fd5b505050506040513d601f19601f820116820180604052508101906114bc91906125fb565b604051806040016040528060128152602001711514cb4c4d881c1c9a58d9481a5b5c1858dd60721b815250906115055760405162461bcd60e51b81526004016113cb9190612081565b50739971fDd707a2878Dc201294DcAbef5A0F890158963954d7e738c8c8c61152d8b87611708565b6040516001600160e01b031960e087901b1681526001600160a01b03948516600482015292841660248401529216604482015260648101919091526084016040805180830381865af4158015611587573d6000803e3d6000fd5b505050506040513d601f19601f820116820180604052508101906115ab9190612207565b50506115b689611722565b5050505050505b505050505050565b600080806115d3868661235f565b90506115ff878560020b8360020b146115f6576115f16002846122fe565b6115f9565b60005b8661048d565b909890975095505050505050565b739971fDd707a2878Dc201294DcAbef5A0F890158963ca27d10d8583868661163489611722565b60006040518763ffffffff1660e01b815260040161165796959493929190612618565b6040805180830381865af4158015611673573d6000803e3d6000fd5b505050506040513d601f19601f820116820180604052508101906115bd9190612207565b6040516001600160a01b03808516602483015283166044820152606481018290526117029085906323b872dd60e01b906084015b60408051601f198184030181529190526020810180516001600160e01b03166001600160e01b0319909316929092179091526118cc565b50505050565b60008183106117175781611719565b825b90505b92915050565b6040516370a0823160e01b81523060048201526000906001600160a01b038316906370a0823190602401602060405180830381865afa158015611769573d6000803e3d6000fd5b505050506040513d601f19601f8201168201806040525081019061171c91906121ee565b6001600160a01b038116731111111254eeb25477b68fb85ed929f73a96058214806117d457506001600160a01b038116736352a56caadc4f1e25cd6c75970fa768a3304e64145b6040518060400160405280601481526020017320a9969899102ab735b737bbb7103937baba32b960611b8152509061181f5760405162461bcd60e51b81526004016113cb9190612081565b5050565b604051636eb1769f60e11b815282906001600160a01b0385169063dd62ed3e9061185390309086906004016124ca565b602060405180830381865afa158015611870573d6000803e3d6000fd5b505050506040513d601f19601f8201168201806040525081019061189491906121ee565b10156118c7576118af6001600160a01b03841682600061199e565b6118c76001600160a01b03841682600160ff1b61199e565b505050565b6000611921826040518060400160405280602081526020017f5361666545524332303a206c6f772d6c6576656c2063616c6c206661696c6564815250856001600160a01b0316611ab29092919063ffffffff16565b8051909150156118c7578080602001905181019061193f91906125fb565b6118c75760405162461bcd60e51b815260206004820152602a60248201527f5361666545524332303a204552433230206f7065726174696f6e20646964206e6044820152691bdd081cdd58d8d9595960b21b60648201526084016113cb565b801580611a175750604051636eb1769f60e11b81526001600160a01b0384169063dd62ed3e906119d490309086906004016124ca565b602060405180830381865afa1580156119f1573d6000803e3d6000fd5b505050506040513d601f19601f82011682018060405250810190611a1591906121ee565b155b611a825760405162461bcd60e51b815260206004820152603660248201527f5361666545524332303a20617070726f76652066726f6d206e6f6e2d7a65726f60448201527520746f206e6f6e2d7a65726f20616c6c6f77616e636560501b60648201526084016113cb565b6040516001600160a01b0383166024820152604481018290526118c790849063095ea7b360e01b906064016116cb565b6060611ac18484600085611ac9565b949350505050565b606082471015611b2a5760405162461bcd60e51b815260206004820152602660248201527f416464726573733a20696e73756666696369656e742062616c616e636520666f6044820152651c8818d85b1b60d21b60648201526084016113cb565b600080866001600160a01b03168587604051611b4691906125df565b60006040518083038185875af1925050503d8060008114611b83576040519150601f19603f3d011682016040523d82523d6000602084013e611b88565b606091505b5091509150611b9987838387611ba4565b979650505050505050565b60608315611c13578251600003611c0c576001600160a01b0385163b611c0c5760405162461bcd60e51b815260206004820152601d60248201527f416464726573733a2063616c6c20746f206e6f6e2d636f6e747261637400000060448201526064016113cb565b5081611ac1565b611ac18383815115611c285781518083602001fd5b8060405162461bcd60e51b81526004016113cb9190612081565b6001600160a01b0381168114611c5757600080fd5b50565b60008060008060008060008060006101208a8c031215611c7957600080fd5b8935611c8481611c42565b985060208a0135611c9481611c42565b975060408a0135611ca481611c42565b965060608a0135611cb481611c42565b955060808a0135611cc481611c42565b945060a08a0135935060c08a0135925060e08a013591506101008a0135611cea81611c42565b809150509295985092959850929598565b600080600060608486031215611d1057600080fd5b8335611d1b81611c42565b92506020840135611d2b81611c42565b91506040840135611d3b81611c42565b809150509250925092565b634e487b7160e01b600052604160045260246000fd5b6040516080810167ffffffffffffffff81118282101715611d7f57611d7f611d46565b60405290565b604051601f8201601f1916810167ffffffffffffffff81118282101715611dae57611dae611d46565b604052919050565b8015158114611c5757600080fd5b600060808284031215611dd657600080fd5b611dde611d5c565b90508135611deb81611db6565b8152602082810135818301526040830135611e0581611c42565b6040830152606083013567ffffffffffffffff80821115611e2557600080fd5b818501915085601f830112611e3957600080fd5b813581811115611e4b57611e4b611d46565b611e5d601f8201601f19168501611d85565b91508082528684828501011115611e7357600080fd5b808484018584013760008482840101525080606085015250505092915050565b600080600080600080600060e0888a031215611eae57600080fd5b8735611eb981611c42565b96506020880135955060408801359450606088013567ffffffffffffffff811115611ee357600080fd5b611eef8a828b01611dc4565b9450506080880135925060a0880135915060c0880135611f0e81611c42565b8091505092959891949750929550565b8060020b8114611c5757600080fd5b600080600060608486031215611f4257600080fd5b8335611f4d81611c42565b92506020840135611f5d81611f1e565b91506040840135611d3b81611f1e565b600080600080600060a08688031215611f8557600080fd5b853594506020860135611f9781611c42565b93506040860135611fa781611c42565b92506060860135611fb781611c42565b91506080860135611fc781611c42565b809150509295509295909350565b60008060008060808587031215611feb57600080fd5b8435611ff681611c42565b9350602085013561200681611f1e565b9250604085013561201681611f1e565b9150606085013561202681611db6565b939692955090935050565b60005b8381101561204c578181015183820152602001612034565b50506000910152565b6000815180845261206d816020860160208601612031565b601f01601f19169290920160200192915050565b6020815260006117196020830184612055565b600080600080600080600060e0888a0312156120af57600080fd5b87356120ba81611c42565b965060208801356120ca81611c42565b955060408801359450606088013593506080880135925060a0880135915060c0880135611f0e81611c42565b60008060006060848603121561210b57600080fd5b833592506020840135611d2b81611c42565b600080600080600080600080610100898b03121561213a57600080fd5b883561214581611c42565b9750602089013561215581611c42565b9650604089013561216581611c42565b955060608901359450608089013567ffffffffffffffff81111561218857600080fd5b6121948b828c01611dc4565b94505060a0890135925060c0890135915060e08901356121b381611c42565b809150509295985092959890939650565b6001600160a01b039485168152602081019390935292166040820152606081019190915260800190565b60006020828403121561220057600080fd5b5051919050565b6000806040838503121561221a57600080fd5b505080516020909101519092909150565b805161ffff8116811461223d57600080fd5b919050565b805160ff8116811461223d57600080fd5b600080600080600080600060e0888a03121561226e57600080fd5b875161227981611c42565b602089015190975061228a81611f1e565b95506122986040890161222b565b94506122a66060890161222b565b93506122b460808901612242565b92506122c260a08901612242565b915060c0880151611f0e81611db6565b634e487b7160e01b600052601260045260246000fd5b634e487b7160e01b600052601160045260246000fd5b60008160020b8360020b80612315576123156122d2565b627fffff1982146000198214161561232f5761232f6122e8565b90059392505050565b60008260020b8260020b028060020b9150808214612358576123586122e8565b5092915050565b600282810b9082900b03627fffff198112627fffff8213171561171c5761171c6122e8565b600281810b9083900b01627fffff8113627fffff198212171561171c5761171c6122e8565b8181038181111561171c5761171c6122e8565b6000602082840312156123ce57600080fd5b61171982612242565b600181815b808511156124125781600019048211156123f8576123f86122e8565b8085161561240557918102915b93841c93908002906123dc565b509250929050565b6000826124295750600161171c565b816124365750600061171c565b816001811461244c576002811461245657612472565b600191505061171c565b60ff841115612467576124676122e8565b50506001821b61171c565b5060208310610133831016604e8410600b8410161715612495575081810a61171c565b61249f83836123d7565b80600019048211156124b3576124b36122e8565b029392505050565b600061171960ff84168361241a565b6001600160a01b0392831681529116602082015260400190565b808202811582820484141761171c5761171c6122e8565b60008261250a5761250a6122d2565b500490565b60006020828403121561252157600080fd5b815161252c81611c42565b9392505050565b6000611719838361241a565b60008060006060848603121561255457600080fd5b835192506020840151915060408401516fffffffffffffffffffffffffffffffff81168114611d3b57600080fd5b8082018082111561171c5761171c6122e8565b6001600160a01b03988916815296881660208801529487166040870152929095166060850152608084015260a083019390935260c082019290925290151560e08201526101000190565b600082516125f1818460208701612031565b9190910192915050565b60006020828403121561260d57600080fd5b815161252c81611db6565b600060018060a01b03808916835260c0602084015261263a60c0840189612055565b9681166040840152949094166060820152608081019290925260a090910152509291505056fea2646970667358221220c9c5c10a5339469e88c0ac1a69c6f5c2190971c97ef92d8009564ecbbe43aa7864736f6c63430008110033",
  "deployedBytecode": "0x73000000000000000000000000000000000000000030146080604052600436106100a85760003560e01c80637799c1d1116100705780637799c1d11461016f5780638246f8f11461018f5780638c562879146101af578063becd6fed146101d2578063f8328d9f146101f257600080fd5b806304dc719a146100ad5780631f377298146100cf578063510cc5981461010257806358817a981461012257806367acb54b1461014f575b600080fd5b8180156100b957600080fd5b506100cd6100c8366004611c5a565b6101fa565b005b8180156100db57600080fd5b506100ef6100ea366004611cfb565b610299565b6040519081526020015b60405180910390f35b81801561010e57600080fd5b506100cd61011d366004611e93565b610326565b610135610130366004611f2d565b61048d565b60408051600293840b81529190920b6020820152016100f9565b81801561015b57600080fd5b506100ef61016a366004611f6d565b6105bf565b61018261017d366004611fd5565b610854565b6040516100f99190612081565b81801561019b57600080fd5b506100cd6101aa366004612094565b610afd565b6101c26101bd3660046120f6565b610c65565b60405190151581526020016100f9565b8180156101de57600080fd5b506100cd6101ed36600461211d565b610e2b565b6100ef606481565b610208898989898989610ec6565b821561028e5760405163556138c560e11b815273__$8f1afe7577f9ab973017c74eca19b86f3c$__9063aac2718a9061024b9089908790869088906004016121c4565b602060405180830381865af4158015610268573d6000803e3d6000fd5b505050506040513d601f19601f8201168201806040525081019061028c91906121ee565b505b505050505050505050565b60405163dd27ede760e01b81523060048201526001600160a01b0383811660248301528281166044830152600160648301526000919085169063dd27ede79060840160408051808303816000875af11580156102f9573d6000803e3d6000fd5b505050506040513d601f19601f8201168201806040525081019061031d9190612207565b50949350505050565b60038601546001870154600288015460048901546001600160a01b039384169392831692909116906301000000900460ff166103658b84848c8c6112d3565b86156103eb5760405163556138c560e11b815273__$8f1afe7577f9ab973017c74eca19b86f3c$__9063aac2718a906103a89086908b908a908c906004016121c4565b602060405180830381865af41580156103c5573d6000803e3d6000fd5b505050506040513d601f19601f820116820180604052508101906103e991906121ee565b505b60038a01546000908190610421908790600160c01b8104600290810b91600160d81b8104820b91600160a01b909104900b6115c5565b91509150600061043387848487610854565b90506104418e87878461160d565b5060039b909b01805465ffffffffffff60c01b1916600160c01b62ffffff9384160262ffffff60d81b191617600160d81b92909c16919091029a909a1790995550505050505050505050565b6000806000856001600160a01b031663e76c01e46040518163ffffffff1660e01b815260040160e060405180830381865afa1580156104d0573d6000803e3d6000fd5b505050506040513d601f19601f820116820180604052508101906104f49190612253565b505050505091505060008160020b12801561052a5750600281900b8461051a81846122fe565b6105249190612338565b60020b14155b15610562578360018161053d888561235f565b61054791906122fe565b610551919061235f565b61055b9190612338565b9250610585565b838061056e878461235f565b61057891906122fe565b6105829190612338565b92505b8460020b6000146105aa5761059b856002612338565b6105a59084612384565b6105b4565b6105b48484612384565b915050935093915050565b6040516370a0823160e01b81526001600160a01b03858116600483015260009182918616906370a0823190602401602060405180830381865afa15801561060a573d6000803e3d6000fd5b505050506040513d601f19601f8201168201806040525081019061062e91906121ee565b6040516370a0823160e01b81526001600160a01b0388811660048301529192506000918616906370a0823190602401602060405180830381865afa15801561067a573d6000803e3d6000fd5b505050506040513d601f19601f8201168201806040525081019061069e91906121ee565b90508188116106c4576106bc6001600160a01b03871688308b611697565b879250610849565b8782156106ed576106e06001600160a01b038816893086611697565b6106ea83826123a9565b90505b811561083b576000876001600160a01b031663313ce5676040518163ffffffff1660e01b8152600401602060405180830381865afa158015610733573d6000803e3d6000fd5b505050506040513d601f19601f8201168201806040525081019061075791906123bc565b61076290600a6124bb565b604051635620c32d60e11b8152839073__$5ce7b97fe3b9dad27bffcf1c56869f0b10$__9063ac41865a9061079d908b908e906004016124ca565b602060405180830381865af41580156107ba573d6000803e3d6000fd5b505050506040513d601f19601f820116820180604052508101906107de91906121ee565b6107e891906124e4565b6107f291906124fb565b905060006108008285611708565b90506108176001600160a01b0389168b3084611697565b8161082282856124e4565b61082c91906124fb565b61083690846123a9565b925050505b610845818a6123a9565b9350505b505095945050505050565b60606000856001600160a01b031663d21220a76040518163ffffffff1660e01b8152600401602060405180830381865afa158015610896573d6000803e3d6000fd5b505050506040513d601f19601f820116820180604052508101906108ba919061250f565b9050600073__$5ce7b97fe3b9dad27bffcf1c56869f0b10$__63ac41865a88846040518363ffffffff1660e01b81526004016108f79291906124ca565b602060405180830381865af4158015610914573d6000803e3d6000fd5b505050506040513d601f19601f8201168201806040525081019061093891906121ee565b90506000826001600160a01b031663313ce5676040518163ffffffff1660e01b8152600401602060405180830381865afa15801561097a573d6000803e3d6000fd5b505050506040513d601f19601f8201168201806040525081019061099e91906123bc565b60ff1690508160006109b183600a612533565b6040516305f08b0f60e21b81526001600160a01b038c16600482015260028b810b60248301528a900b60448201526064810184905260848101829052909150600090819073__$5ce7b97fe3b9dad27bffcf1c56869f0b10$__906317c22c3c9060a401606060405180830381865af4158015610a31573d6000803e3d6000fd5b505050506040513d601f19601f82011682018060405250810190610a55919061253f565b50915091508815610aa857600183610a6d88846124e4565b610a7791906124fb565b6040805160ff9093166020840152820152606081018390526080016040516020818303038152906040529750610aee565b60018284610ab689856124e4565b610ac091906124fb565b6040805160ff9094166020850152830191909152606082015260800160405160208183030381529060405297505b50505050505050949350505050565b60038501546001860154600287015460048801546001600160a01b039384169392831692909116906301000000900460ff16610b3d8b8b8686868d610ec6565b8615610bc35760405163556138c560e11b815273__$8f1afe7577f9ab973017c74eca19b86f3c$__9063aac2718a90610b809086908b908a908c906004016121c4565b602060405180830381865af4158015610b9d573d6000803e3d6000fd5b505050506040513d601f19601f82011682018060405250810190610bc191906121ee565b505b60038901546000908190610bf9908790600160c01b8104600290810b91600160d81b8104820b91600160a01b909104900b6115c5565b915091506000610c0b87848487610854565b9050610c198e87878461160d565b5060039a909a01805465ffffffffffff60c01b1916600160c01b62ffffff9384160262ffffff60d81b191617600160d81b92909b16919091029990991790985550505050505050505050565b600080836001600160a01b031663f77c47916040518163ffffffff1660e01b8152600401602060405180830381865afa158015610ca6573d6000803e3d6000fd5b505050506040513d601f19601f82011682018060405250810190610cca919061250f565b6001600160a01b0316632630c12f6040518163ffffffff1660e01b8152600401602060405180830381865afa158015610d07573d6000803e3d6000fd5b505050506040513d601f19601f82011682018060405250810190610d2b919061250f565b905067016345785d8a0000836001600160a01b031663313ce5676040518163ffffffff1660e01b8152600401602060405180830381865afa158015610d74573d6000803e3d6000fd5b505050506040513d601f19601f82011682018060405250810190610d9891906123bc565b610da390600a6124bb565b60405163b3596f0760e01b81526001600160a01b03868116600483015284169063b3596f0790602401602060405180830381865afa158015610de9573d6000803e3d6000fd5b505050506040513d601f19601f82011682018060405250810190610e0d91906121ee565b610e1790886124e4565b610e2191906124fb565b1195945050505050565b610e3888888888886112d3565b8215610ebc5760405163556138c560e11b815273__$8f1afe7577f9ab973017c74eca19b86f3c$__9063aac2718a90610e7b908a908790869088906004016121c4565b602060405180830381865af4158015610e98573d6000803e3d6000fd5b505050506040513d601f19601f8201168201806040525081019061028e91906121ee565b5050505050505050565b6000610ed3878585610299565b9050610ee0818885610c65565b156112ca576000610ef085611722565b90506000610efd85611722565b90508281101561112c57604051635620c32d60e11b815260009073__$5ce7b97fe3b9dad27bffcf1c56869f0b10$__9063ac41865a90610f43908b908a906004016124ca565b602060405180830381865af4158015610f60573d6000803e3d6000fd5b505050506040513d601f19601f82011682018060405250810190610f8491906121ee565b90506000866001600160a01b031663313ce5676040518163ffffffff1660e01b8152600401602060405180830381865afa158015610fc6573d6000803e3d6000fd5b505050506040513d601f19601f82011682018060405250810190610fea91906123bc565b610ff590600a6124bb565b610fff84876123a9565b61100990846124e4565b61101391906124fb565b90506110206064826124fb565b61102a9082612582565b905073__$e930d50fb5f4f1298547dbcb2bb0591990$__637de8f5698c8c6001600160a01b0316634046ebae6040518163ffffffff1660e01b8152600401602060405180830381865afa158015611085573d6000803e3d6000fd5b505050506040513d601f19601f820116820180604052508101906110a9919061250f565b8b8b6110b5878b611708565b8c6000806040518963ffffffff1660e01b81526004016110dc989796959493929190612595565b6040805180830381865af41580156110f8573d6000803e3d6000fd5b505050506040513d601f19601f8201168201806040525081019061111c9190612207565b505061112787611722565b925050505b73__$e930d50fb5f4f1298547dbcb2bb0591990$__63954d7e738a88886111538887611708565b6040516001600160e01b031960e087901b1681526001600160a01b03948516600482015292841660248401529216604482015260648101919091526084016040805180830381865af41580156111ad573d6000803e3d6000fd5b505050506040513d601f19601f820116820180604052508101906111d19190612207565b50506111dc85611722565b905073__$e930d50fb5f4f1298547dbcb2bb0591990$__637de8f5698a8a6001600160a01b0316634046ebae6040518163ffffffff1660e01b8152600401602060405180830381865afa158015611237573d6000803e3d6000fd5b505050506040513d601f19601f8201168201806040525081019061125b919061250f565b888a868a6000806040518963ffffffff1660e01b8152600401611285989796959493929190612595565b6040805180830381865af41580156112a1573d6000803e3d6000fd5b505050506040513d601f19601f820116820180604052508101906112c59190612207565b505050505b50505050505050565b6112e0816040015161178d565b60006112ed868686610299565b90506112fa818786610c65565b156115bd57600061130a86611722565b9050600061131786611722565b90506000846000015161132a578661132c565b875b90506113418186602001518760400151611823565b60008086604001516001600160a01b0316876060015160405161136491906125df565b6000604051808303816000865af19150503d80600081146113a1576040519150601f19603f3d011682016040523d82523d6000602084013e6113a6565b606091505b50915091508181906113d45760405162461bcd60e51b81526004016113cb9190612081565b60405180910390fd5b50505060006113e289611722565b905060006113ef89611722565b90508a6001600160a01b031663291f89c48489602001518a60000151611415578d611417565b8c5b8b5161142c576114278a886123a9565b611436565b61143689876123a9565b6040516001600160e01b031960e087901b1681526001600160a01b0394851660048201526024810193909352921660448201526064810191909152608481018b905260a401602060405180830381865afa158015611498573d6000803e3d6000fd5b505050506040513d601f19601f820116820180604052508101906114bc91906125fb565b604051806040016040528060128152602001711514cb4c4d881c1c9a58d9481a5b5c1858dd60721b815250906115055760405162461bcd60e51b81526004016113cb9190612081565b5073__$e930d50fb5f4f1298547dbcb2bb0591990$__63954d7e738c8c8c61152d8b87611708565b6040516001600160e01b031960e087901b1681526001600160a01b03948516600482015292841660248401529216604482015260648101919091526084016040805180830381865af4158015611587573d6000803e3d6000fd5b505050506040513d601f19601f820116820180604052508101906115ab9190612207565b50506115b689611722565b5050505050505b505050505050565b600080806115d3868661235f565b90506115ff878560020b8360020b146115f6576115f16002846122fe565b6115f9565b60005b8661048d565b909890975095505050505050565b73__$e930d50fb5f4f1298547dbcb2bb0591990$__63ca27d10d8583868661163489611722565b60006040518763ffffffff1660e01b815260040161165796959493929190612618565b6040805180830381865af4158015611673573d6000803e3d6000fd5b505050506040513d601f19601f820116820180604052508101906115bd9190612207565b6040516001600160a01b03808516602483015283166044820152606481018290526117029085906323b872dd60e01b906084015b60408051601f198184030181529190526020810180516001600160e01b03166001600160e01b0319909316929092179091526118cc565b50505050565b60008183106117175781611719565b825b90505b92915050565b6040516370a0823160e01b81523060048201526000906001600160a01b038316906370a0823190602401602060405180830381865afa158015611769573d6000803e3d6000fd5b505050506040513d601f19601f8201168201806040525081019061171c91906121ee565b6001600160a01b038116731111111254eeb25477b68fb85ed929f73a96058214806117d457506001600160a01b038116736352a56caadc4f1e25cd6c75970fa768a3304e64145b6040518060400160405280601481526020017320a9969899102ab735b737bbb7103937baba32b960611b8152509061181f5760405162461bcd60e51b81526004016113cb9190612081565b5050565b604051636eb1769f60e11b815282906001600160a01b0385169063dd62ed3e9061185390309086906004016124ca565b602060405180830381865afa158015611870573d6000803e3d6000fd5b505050506040513d601f19601f8201168201806040525081019061189491906121ee565b10156118c7576118af6001600160a01b03841682600061199e565b6118c76001600160a01b03841682600160ff1b61199e565b505050565b6000611921826040518060400160405280602081526020017f5361666545524332303a206c6f772d6c6576656c2063616c6c206661696c6564815250856001600160a01b0316611ab29092919063ffffffff16565b8051909150156118c7578080602001905181019061193f91906125fb565b6118c75760405162461bcd60e51b815260206004820152602a60248201527f5361666545524332303a204552433230206f7065726174696f6e20646964206e6044820152691bdd081cdd58d8d9595960b21b60648201526084016113cb565b801580611a175750604051636eb1769f60e11b81526001600160a01b0384169063dd62ed3e906119d490309086906004016124ca565b602060405180830381865afa1580156119f1573d6000803e3d6000fd5b505050506040513d601f19601f82011682018060405250810190611a1591906121ee565b155b611a825760405162461bcd60e51b815260206004820152603660248201527f5361666545524332303a20617070726f76652066726f6d206e6f6e2d7a65726f60448201527520746f206e6f6e2d7a65726f20616c6c6f77616e636560501b60648201526084016113cb565b6040516001600160a01b0383166024820152604481018290526118c790849063095ea7b360e01b906064016116cb565b6060611ac18484600085611ac9565b949350505050565b606082471015611b2a5760405162461bcd60e51b815260206004820152602660248201527f416464726573733a20696e73756666696369656e742062616c616e636520666f6044820152651c8818d85b1b60d21b60648201526084016113cb565b600080866001600160a01b03168587604051611b4691906125df565b60006040518083038185875af1925050503d8060008114611b83576040519150601f19603f3d011682016040523d82523d6000602084013e611b88565b606091505b5091509150611b9987838387611ba4565b979650505050505050565b60608315611c13578251600003611c0c576001600160a01b0385163b611c0c5760405162461bcd60e51b815260206004820152601d60248201527f416464726573733a2063616c6c20746f206e6f6e2d636f6e747261637400000060448201526064016113cb565b5081611ac1565b611ac18383815115611c285781518083602001fd5b8060405162461bcd60e51b81526004016113cb9190612081565b6001600160a01b0381168114611c5757600080fd5b50565b60008060008060008060008060006101208a8c031215611c7957600080fd5b8935611c8481611c42565b985060208a0135611c9481611c42565b975060408a0135611ca481611c42565b965060608a0135611cb481611c42565b955060808a0135611cc481611c42565b945060a08a0135935060c08a0135925060e08a013591506101008a0135611cea81611c42565b809150509295985092959850929598565b600080600060608486031215611d1057600080fd5b8335611d1b81611c42565b92506020840135611d2b81611c42565b91506040840135611d3b81611c42565b809150509250925092565b634e487b7160e01b600052604160045260246000fd5b6040516080810167ffffffffffffffff81118282101715611d7f57611d7f611d46565b60405290565b604051601f8201601f1916810167ffffffffffffffff81118282101715611dae57611dae611d46565b604052919050565b8015158114611c5757600080fd5b600060808284031215611dd657600080fd5b611dde611d5c565b90508135611deb81611db6565b8152602082810135818301526040830135611e0581611c42565b6040830152606083013567ffffffffffffffff80821115611e2557600080fd5b818501915085601f830112611e3957600080fd5b813581811115611e4b57611e4b611d46565b611e5d601f8201601f19168501611d85565b91508082528684828501011115611e7357600080fd5b808484018584013760008482840101525080606085015250505092915050565b600080600080600080600060e0888a031215611eae57600080fd5b8735611eb981611c42565b96506020880135955060408801359450606088013567ffffffffffffffff811115611ee357600080fd5b611eef8a828b01611dc4565b9450506080880135925060a0880135915060c0880135611f0e81611c42565b8091505092959891949750929550565b8060020b8114611c5757600080fd5b600080600060608486031215611f4257600080fd5b8335611f4d81611c42565b92506020840135611f5d81611f1e565b91506040840135611d3b81611f1e565b600080600080600060a08688031215611f8557600080fd5b853594506020860135611f9781611c42565b93506040860135611fa781611c42565b92506060860135611fb781611c42565b91506080860135611fc781611c42565b809150509295509295909350565b60008060008060808587031215611feb57600080fd5b8435611ff681611c42565b9350602085013561200681611f1e565b9250604085013561201681611f1e565b9150606085013561202681611db6565b939692955090935050565b60005b8381101561204c578181015183820152602001612034565b50506000910152565b6000815180845261206d816020860160208601612031565b601f01601f19169290920160200192915050565b6020815260006117196020830184612055565b600080600080600080600060e0888a0312156120af57600080fd5b87356120ba81611c42565b965060208801356120ca81611c42565b955060408801359450606088013593506080880135925060a0880135915060c0880135611f0e81611c42565b60008060006060848603121561210b57600080fd5b833592506020840135611d2b81611c42565b600080600080600080600080610100898b03121561213a57600080fd5b883561214581611c42565b9750602089013561215581611c42565b9650604089013561216581611c42565b955060608901359450608089013567ffffffffffffffff81111561218857600080fd5b6121948b828c01611dc4565b94505060a0890135925060c0890135915060e08901356121b381611c42565b809150509295985092959890939650565b6001600160a01b039485168152602081019390935292166040820152606081019190915260800190565b60006020828403121561220057600080fd5b5051919050565b6000806040838503121561221a57600080fd5b505080516020909101519092909150565b805161ffff8116811461223d57600080fd5b919050565b805160ff8116811461223d57600080fd5b600080600080600080600060e0888a03121561226e57600080fd5b875161227981611c42565b602089015190975061228a81611f1e565b95506122986040890161222b565b94506122a66060890161222b565b93506122b460808901612242565b92506122c260a08901612242565b915060c0880151611f0e81611db6565b634e487b7160e01b600052601260045260246000fd5b634e487b7160e01b600052601160045260246000fd5b60008160020b8360020b80612315576123156122d2565b627fffff1982146000198214161561232f5761232f6122e8565b90059392505050565b60008260020b8260020b028060020b9150808214612358576123586122e8565b5092915050565b600282810b9082900b03627fffff198112627fffff8213171561171c5761171c6122e8565b600281810b9083900b01627fffff8113627fffff198212171561171c5761171c6122e8565b8181038181111561171c5761171c6122e8565b6000602082840312156123ce57600080fd5b61171982612242565b600181815b808511156124125781600019048211156123f8576123f86122e8565b8085161561240557918102915b93841c93908002906123dc565b509250929050565b6000826124295750600161171c565b816124365750600061171c565b816001811461244c576002811461245657612472565b600191505061171c565b60ff841115612467576124676122e8565b50506001821b61171c565b5060208310610133831016604e8410600b8410161715612495575081810a61171c565b61249f83836123d7565b80600019048211156124b3576124b36122e8565b029392505050565b600061171960ff84168361241a565b6001600160a01b0392831681529116602082015260400190565b808202811582820484141761171c5761171c6122e8565b60008261250a5761250a6122d2565b500490565b60006020828403121561252157600080fd5b815161252c81611c42565b9392505050565b6000611719838361241a565b60008060006060848603121561255457600080fd5b835192506020840151915060408401516fffffffffffffffffffffffffffffffff81168114611d3b57600080fd5b8082018082111561171c5761171c6122e8565b6001600160a01b03988916815296881660208801529487166040870152929095166060850152608084015260a083019390935260c082019290925290151560e08201526101000190565b600082516125f1818460208701612031565b9190910192915050565b60006020828403121561260d57600080fd5b815161252c81611db6565b600060018060a01b03808916835260c0602084015261263a60c0840189612055565b9681166040840152949094166060820152608081019290925260a090910152509291505056fea2646970667358221220c9c5c10a5339469e88c0ac1a69c6f5c2190971c97ef92d8009564ecbbe43aa7864736f6c63430008110033",
  "libraries": {
    "AlgebraLib": "0xb1450ADeb76257593B97ABdC06ba908300847AAe",
    "ConverterStrategyBaseLib": "0x9971fDd707a2878Dc201294DcAbef5A0F8901589",
    "ConverterStrategyBaseLib2": "0x3C8b18162cBb11B9D0afe3828f4A6C6e247f30E0"
  },
  "devdoc": {
    "kind": "dev",
    "methods": {
      "closeDebt(ITetuConverter,address,IAlgebraPool,address,address,uint256,uint256,uint256,address)": {
        "details": "Closes the debt positions for the given token pair.",
        "params": {
          "controller": "The controller address.",
          "pool": "The IUniswapV3Pool instance.",
          "tetuConverter": "The ITetuConverter instance.",
          "tokenA": "The address of tokenA.",
          "tokenB": "The address of tokenB."
        }
      },
      "getDebtTotalDebtAmountOut(ITetuConverter,address,address)": {
        "details": "Returns the total debt amount out for the given token pair.",
        "params": {
          "tetuConverter": "The ITetuConverter instance.",
          "tokenA": "The address of tokenA.",
          "tokenB": "The address of tokenB."
        },
        "returns": {
          "totalDebtAmountOut": "The total debt amount out for the token pair."
        }
      },
      "needCloseDebt(uint256,ITetuConverter,address)": {
        "details": "we close debt only if it is more than $0.1"
      },
      "rebalanceDebt(ITetuConverter,address,AlgebraConverterStrategyLogicLib.State storage,uint256,uint256,uint256,address)": {
        "details": "Rebalances the debt by either filling up or closing and reopening debt positions. Sets new tick range."
      }
    },
    "version": 1
  },
  "userdoc": {
    "kind": "user",
    "methods": {},
    "version": 1
  },
  "storageLayout": {
    "storage": [],
    "types": null
  }
}