{
  "address": "0x3fA4f582A8e9034DF81C5a44222A99056d5b04cF",
  "abi": [
    {
      "anonymous": false,
      "inputs": [
        {
          "indexed": false,
          "internalType": "address",
          "name": "controller",
          "type": "address"
        },
        {
          "indexed": false,
          "internalType": "uint256",
          "name": "ts",
          "type": "uint256"
        },
        {
          "indexed": false,
          "internalType": "uint256",
          "name": "block",
          "type": "uint256"
        }
      ],
      "name": "ContractInitialized",
      "type": "event"
    },
    {
      "anonymous": false,
      "inputs": [
        {
          "indexed": false,
          "internalType": "uint8",
          "name": "version",
          "type": "uint8"
        }
      ],
      "name": "Initialized",
      "type": "event"
    },
    {
      "anonymous": false,
      "inputs": [
        {
          "indexed": false,
          "internalType": "uint256[]",
          "name": "withdrawnAmounts",
          "type": "uint256[]"
        }
      ],
      "name": "OnDepositorEmergencyExit",
      "type": "event"
    },
    {
      "anonymous": false,
      "inputs": [
        {
          "indexed": false,
          "internalType": "uint256[]",
          "name": "amounts",
          "type": "uint256[]"
        },
        {
          "indexed": false,
          "internalType": "uint256[]",
          "name": "consumedAmounts",
          "type": "uint256[]"
        }
      ],
      "name": "OnDepositorEnter",
      "type": "event"
    },
    {
      "anonymous": false,
      "inputs": [
        {
          "indexed": false,
          "internalType": "uint256",
          "name": "liquidityAmount",
          "type": "uint256"
        },
        {
          "indexed": false,
          "internalType": "uint256[]",
          "name": "withdrawnAmounts",
          "type": "uint256[]"
        }
      ],
      "name": "OnDepositorExit",
      "type": "event"
    },
    {
      "anonymous": false,
      "inputs": [
        {
          "indexed": false,
          "internalType": "uint256",
          "name": "investedAssetsNewPrices",
          "type": "uint256"
        },
        {
          "indexed": false,
          "internalType": "uint256",
          "name": "earnedByPrices",
          "type": "uint256"
        },
        {
          "indexed": false,
          "internalType": "uint256",
          "name": "earnedHandleRewards",
          "type": "uint256"
        },
        {
          "indexed": false,
          "internalType": "uint256",
          "name": "lostHandleRewards",
          "type": "uint256"
        },
        {
          "indexed": false,
          "internalType": "uint256",
          "name": "earnedDeposit",
          "type": "uint256"
        },
        {
          "indexed": false,
          "internalType": "uint256",
          "name": "lostDeposit",
          "type": "uint256"
        },
        {
          "indexed": false,
          "internalType": "uint256",
          "name": "paidDebtToInsurance",
          "type": "uint256"
        }
      ],
      "name": "OnHardWorkEarnedLost",
      "type": "event"
    },
    {
      "anonymous": false,
      "inputs": [
        {
          "indexed": false,
          "internalType": "uint256",
          "name": "value",
          "type": "uint256"
        },
        {
          "indexed": false,
          "internalType": "address",
          "name": "oldLogic",
          "type": "address"
        }
      ],
      "name": "RevisionIncreased",
      "type": "event"
    },
    {
      "inputs": [],
      "name": "ALGEBRA_DEPOSITOR_VERSION",
      "outputs": [
        {
          "internalType": "string",
          "name": "",
          "type": "string"
        }
      ],
      "stateMutability": "view",
      "type": "function"
    },
    {
      "inputs": [],
      "name": "CONTROLLABLE_VERSION",
      "outputs": [
        {
          "internalType": "string",
          "name": "",
          "type": "string"
        }
      ],
      "stateMutability": "view",
      "type": "function"
    },
    {
      "inputs": [],
      "name": "CONVERTER_STRATEGY_BASE_VERSION",
      "outputs": [
        {
          "internalType": "string",
          "name": "",
          "type": "string"
        }
      ],
      "stateMutability": "view",
      "type": "function"
    },
    {
      "inputs": [],
      "name": "NAME",
      "outputs": [
        {
          "internalType": "string",
          "name": "",
          "type": "string"
        }
      ],
      "stateMutability": "view",
      "type": "function"
    },
    {
      "inputs": [],
      "name": "PLATFORM",
      "outputs": [
        {
          "internalType": "string",
          "name": "",
          "type": "string"
        }
      ],
      "stateMutability": "view",
      "type": "function"
    },
    {
      "inputs": [],
      "name": "STRATEGY_BASE_VERSION",
      "outputs": [
        {
          "internalType": "string",
          "name": "",
          "type": "string"
        }
      ],
      "stateMutability": "view",
      "type": "function"
    },
    {
      "inputs": [],
      "name": "STRATEGY_VERSION",
      "outputs": [
        {
          "internalType": "string",
          "name": "",
          "type": "string"
        }
      ],
      "stateMutability": "view",
      "type": "function"
    },
    {
      "inputs": [],
      "name": "asset",
      "outputs": [
        {
          "internalType": "address",
          "name": "",
          "type": "address"
        }
      ],
      "stateMutability": "view",
      "type": "function"
    },
    {
      "inputs": [],
      "name": "calcInvestedAssets",
      "outputs": [
        {
          "internalType": "uint256",
          "name": "investedAssetsOut",
          "type": "uint256"
        }
      ],
      "stateMutability": "nonpayable",
      "type": "function"
    },
    {
      "inputs": [],
      "name": "capacity",
      "outputs": [
        {
          "internalType": "uint256",
          "name": "",
          "type": "uint256"
        }
      ],
      "stateMutability": "view",
      "type": "function"
    },
    {
      "inputs": [],
      "name": "claim",
      "outputs": [],
      "stateMutability": "nonpayable",
      "type": "function"
    },
    {
      "inputs": [],
      "name": "compoundRatio",
      "outputs": [
        {
          "internalType": "uint256",
          "name": "",
          "type": "uint256"
        }
      ],
      "stateMutability": "view",
      "type": "function"
    },
    {
      "inputs": [],
      "name": "controller",
      "outputs": [
        {
          "internalType": "address",
          "name": "",
          "type": "address"
        }
      ],
      "stateMutability": "view",
      "type": "function"
    },
    {
      "inputs": [],
      "name": "converter",
      "outputs": [
        {
          "internalType": "contract ITetuConverter",
          "name": "",
          "type": "address"
        }
      ],
      "stateMutability": "view",
      "type": "function"
    },
    {
      "inputs": [],
      "name": "created",
      "outputs": [
        {
          "internalType": "uint256",
          "name": "",
          "type": "uint256"
        }
      ],
      "stateMutability": "view",
      "type": "function"
    },
    {
      "inputs": [],
      "name": "createdBlock",
      "outputs": [
        {
          "internalType": "uint256",
          "name": "",
          "type": "uint256"
        }
      ],
      "stateMutability": "view",
      "type": "function"
    },
    {
      "inputs": [],
      "name": "debtToInsurance",
      "outputs": [
        {
          "internalType": "int256",
          "name": "",
          "type": "int256"
        }
      ],
      "stateMutability": "view",
      "type": "function"
    },
    {
      "inputs": [],
      "name": "doHardWork",
      "outputs": [
        {
          "internalType": "uint256",
          "name": "earned",
          "type": "uint256"
        },
        {
          "internalType": "uint256",
          "name": "lost",
          "type": "uint256"
        }
      ],
      "stateMutability": "nonpayable",
      "type": "function"
    },
    {
      "inputs": [],
      "name": "emergencyExit",
      "outputs": [],
      "stateMutability": "nonpayable",
      "type": "function"
    },
    {
      "inputs": [],
      "name": "getDefaultState",
      "outputs": [
        {
          "internalType": "address[]",
          "name": "addr",
          "type": "address[]"
        },
        {
          "internalType": "int24[]",
          "name": "tickData",
          "type": "int24[]"
        },
        {
          "internalType": "uint256[]",
          "name": "nums",
          "type": "uint256[]"
        },
        {
          "internalType": "bool[]",
          "name": "boolValues",
          "type": "bool[]"
        }
      ],
      "stateMutability": "view",
      "type": "function"
    },
    {
      "inputs": [],
      "name": "getFees",
      "outputs": [
        {
          "internalType": "uint256",
          "name": "fee0",
          "type": "uint256"
        },
        {
          "internalType": "uint256",
          "name": "fee1",
          "type": "uint256"
        }
      ],
      "stateMutability": "view",
      "type": "function"
    },
    {
      "inputs": [],
      "name": "getPropNotUnderlying18",
      "outputs": [
        {
          "internalType": "uint256",
          "name": "",
          "type": "uint256"
        }
      ],
      "stateMutability": "view",
      "type": "function"
    },
    {
      "inputs": [
        {
          "internalType": "uint256",
          "name": "slot",
          "type": "uint256"
        }
      ],
      "name": "getSlot",
      "outputs": [
        {
          "internalType": "bytes32",
          "name": "result",
          "type": "bytes32"
        }
      ],
      "stateMutability": "view",
      "type": "function"
    },
    {
      "inputs": [],
      "name": "getSpecificState",
      "outputs": [
        {
          "internalType": "uint256[]",
          "name": "nums",
          "type": "uint256[]"
        }
      ],
      "stateMutability": "view",
      "type": "function"
    },
    {
      "inputs": [
        {
          "internalType": "address",
          "name": "oldLogic",
          "type": "address"
        }
      ],
      "name": "increaseRevision",
      "outputs": [],
      "stateMutability": "nonpayable",
      "type": "function"
    },
    {
      "inputs": [
        {
          "internalType": "address",
          "name": "controller_",
          "type": "address"
        },
        {
          "internalType": "address",
          "name": "splitter_",
          "type": "address"
        },
        {
          "internalType": "address",
          "name": "converter_",
          "type": "address"
        },
        {
          "internalType": "address",
          "name": "pool_",
          "type": "address"
        },
        {
          "internalType": "int24",
          "name": "tickRange_",
          "type": "int24"
        },
        {
          "internalType": "int24",
          "name": "rebalanceTickRange_",
          "type": "int24"
        },
        {
          "internalType": "bool",
          "name": "isStablePool",
          "type": "bool"
        },
        {
          "components": [
            {
              "internalType": "address",
              "name": "rewardToken",
              "type": "address"
            },
            {
              "internalType": "address",
              "name": "bonusRewardToken",
              "type": "address"
            },
            {
              "internalType": "address",
              "name": "pool",
              "type": "address"
            },
            {
              "internalType": "uint256",
              "name": "startTime",
              "type": "uint256"
            },
            {
              "internalType": "uint256",
              "name": "endTime",
              "type": "uint256"
            }
          ],
          "internalType": "struct IncentiveKey",
          "name": "key",
          "type": "tuple"
        },
        {
          "internalType": "uint256[4]",
          "name": "fuseThresholds",
          "type": "uint256[4]"
        }
      ],
      "name": "init",
      "outputs": [],
      "stateMutability": "nonpayable",
      "type": "function"
    },
    {
      "inputs": [
        {
          "internalType": "uint256",
          "name": "",
          "type": "uint256"
        },
        {
          "internalType": "bool",
          "name": "updateTotalAssetsBeforeInvest_",
          "type": "bool"
        }
      ],
      "name": "investAll",
      "outputs": [
        {
          "internalType": "uint256",
          "name": "strategyLoss",
          "type": "uint256"
        }
      ],
      "stateMutability": "nonpayable",
      "type": "function"
    },
    {
      "inputs": [],
      "name": "investedAssets",
      "outputs": [
        {
          "internalType": "uint256",
          "name": "",
          "type": "uint256"
        }
      ],
      "stateMutability": "view",
      "type": "function"
    },
    {
      "inputs": [
        {
          "internalType": "address",
          "name": "_value",
          "type": "address"
        }
      ],
      "name": "isController",
      "outputs": [
        {
          "internalType": "bool",
          "name": "",
          "type": "bool"
        }
      ],
      "stateMutability": "view",
      "type": "function"
    },
    {
      "inputs": [
        {
          "internalType": "address",
          "name": "_value",
          "type": "address"
        }
      ],
      "name": "isGovernance",
      "outputs": [
        {
          "internalType": "bool",
          "name": "",
          "type": "bool"
        }
      ],
      "stateMutability": "view",
      "type": "function"
    },
    {
      "inputs": [],
      "name": "isReadyToHardWork",
      "outputs": [
        {
          "internalType": "bool",
          "name": "",
          "type": "bool"
        }
      ],
      "stateMutability": "view",
      "type": "function"
    },
    {
      "inputs": [
        {
          "internalType": "address",
          "name": "",
          "type": "address"
        }
      ],
      "name": "liquidationThresholds",
      "outputs": [
        {
          "internalType": "uint256",
          "name": "",
          "type": "uint256"
        }
      ],
      "stateMutability": "view",
      "type": "function"
    },
    {
      "inputs": [],
      "name": "needRebalance",
      "outputs": [
        {
          "internalType": "bool",
          "name": "",
          "type": "bool"
        }
      ],
      "stateMutability": "view",
      "type": "function"
    },
    {
      "inputs": [
        {
          "internalType": "address",
          "name": "",
          "type": "address"
        },
        {
          "internalType": "address",
          "name": "",
          "type": "address"
        },
        {
          "internalType": "uint256",
          "name": "",
          "type": "uint256"
        },
        {
          "internalType": "bytes",
          "name": "",
          "type": "bytes"
        }
      ],
      "name": "onERC721Received",
      "outputs": [
        {
          "internalType": "bytes4",
          "name": "",
          "type": "bytes4"
        }
      ],
      "stateMutability": "pure",
      "type": "function"
    },
    {
      "inputs": [
        {
          "internalType": "address[]",
          "name": "assets_",
          "type": "address[]"
        },
        {
          "internalType": "uint256[]",
          "name": "amounts_",
          "type": "uint256[]"
        }
      ],
      "name": "onTransferAmounts",
      "outputs": [],
      "stateMutability": "nonpayable",
      "type": "function"
    },
    {
      "inputs": [],
      "name": "performanceFee",
      "outputs": [
        {
          "internalType": "uint256",
          "name": "",
          "type": "uint256"
        }
      ],
      "stateMutability": "view",
      "type": "function"
    },
    {
      "inputs": [],
      "name": "performanceFeeRatio",
      "outputs": [
        {
          "internalType": "uint256",
          "name": "",
          "type": "uint256"
        }
      ],
      "stateMutability": "view",
      "type": "function"
    },
    {
      "inputs": [],
      "name": "performanceReceiver",
      "outputs": [
        {
          "internalType": "address",
          "name": "",
          "type": "address"
        }
      ],
      "stateMutability": "view",
      "type": "function"
    },
    {
      "inputs": [],
      "name": "previousImplementation",
      "outputs": [
        {
          "internalType": "address",
          "name": "",
          "type": "address"
        }
      ],
      "stateMutability": "view",
      "type": "function"
    },
    {
      "inputs": [
        {
          "internalType": "bytes",
          "name": "planEntryData",
          "type": "bytes"
        }
      ],
      "name": "quoteWithdrawByAgg",
      "outputs": [
        {
          "internalType": "address",
          "name": "tokenToSwap",
          "type": "address"
        },
        {
          "internalType": "uint256",
          "name": "amountToSwap",
          "type": "uint256"
        }
      ],
      "stateMutability": "nonpayable",
      "type": "function"
    },
    {
      "inputs": [
        {
          "internalType": "bool",
          "name": "checkNeedRebalance",
          "type": "bool"
        }
      ],
      "name": "rebalanceNoSwaps",
      "outputs": [],
      "stateMutability": "nonpayable",
      "type": "function"
    },
    {
      "inputs": [],
      "name": "reinvestThresholdPercent",
      "outputs": [
        {
          "internalType": "uint256",
          "name": "",
          "type": "uint256"
        }
      ],
      "stateMutability": "view",
      "type": "function"
    },
    {
      "inputs": [
        {
          "internalType": "address",
          "name": "theAsset_",
          "type": "address"
        },
        {
          "internalType": "uint256",
          "name": "amount_",
          "type": "uint256"
        }
      ],
      "name": "requirePayAmountBack",
      "outputs": [
        {
          "internalType": "uint256",
          "name": "amountOut",
          "type": "uint256"
        }
      ],
      "stateMutability": "nonpayable",
      "type": "function"
    },
    {
      "inputs": [],
      "name": "revision",
      "outputs": [
        {
          "internalType": "uint256",
          "name": "",
          "type": "uint256"
        }
      ],
      "stateMutability": "view",
      "type": "function"
    },
    {
      "inputs": [
        {
          "internalType": "uint256",
          "name": "value",
          "type": "uint256"
        }
      ],
      "name": "setCompoundRatio",
      "outputs": [],
      "stateMutability": "nonpayable",
      "type": "function"
    },
    {
      "inputs": [
        {
          "internalType": "uint256",
          "name": "status",
          "type": "uint256"
        }
      ],
      "name": "setFuseStatus",
      "outputs": [],
      "stateMutability": "nonpayable",
      "type": "function"
    },
    {
      "inputs": [
        {
          "internalType": "uint256[4]",
          "name": "values",
          "type": "uint256[4]"
        }
      ],
      "name": "setFuseThresholds",
      "outputs": [],
      "stateMutability": "nonpayable",
      "type": "function"
    },
    {
      "inputs": [
        {
          "internalType": "address",
          "name": "token",
          "type": "address"
        },
        {
          "internalType": "uint256",
          "name": "amount",
          "type": "uint256"
        }
      ],
      "name": "setLiquidationThreshold",
      "outputs": [],
      "stateMutability": "nonpayable",
      "type": "function"
    },
    {
      "inputs": [
        {
          "internalType": "uint256",
          "name": "percent_",
          "type": "uint256"
        }
      ],
      "name": "setReinvestThresholdPercent",
      "outputs": [],
      "stateMutability": "nonpayable",
      "type": "function"
    },
    {
      "inputs": [
        {
          "internalType": "address",
          "name": "strategyProfitHolder",
          "type": "address"
        }
      ],
      "name": "setStrategyProfitHolder",
      "outputs": [],
      "stateMutability": "nonpayable",
      "type": "function"
    },
    {
      "inputs": [
        {
          "internalType": "string",
          "name": "name",
          "type": "string"
        }
      ],
      "name": "setStrategySpecificName",
      "outputs": [],
      "stateMutability": "nonpayable",
      "type": "function"
    },
    {
      "inputs": [
        {
          "internalType": "uint256",
          "name": "done",
          "type": "uint256"
        }
      ],
      "name": "setWithdrawDone",
      "outputs": [],
      "stateMutability": "nonpayable",
      "type": "function"
    },
    {
      "inputs": [
        {
          "internalType": "uint256",
          "name": "fee_",
          "type": "uint256"
        },
        {
          "internalType": "address",
          "name": "receiver_",
          "type": "address"
        },
        {
          "internalType": "uint256",
          "name": "ratio_",
          "type": "uint256"
        }
      ],
      "name": "setupPerformanceFee",
      "outputs": [],
      "stateMutability": "nonpayable",
      "type": "function"
    },
    {
      "inputs": [],
      "name": "splitter",
      "outputs": [
        {
          "internalType": "address",
          "name": "",
          "type": "address"
        }
      ],
      "stateMutability": "view",
      "type": "function"
    },
    {
      "inputs": [],
      "name": "strategySpecificName",
      "outputs": [
        {
          "internalType": "string",
          "name": "",
          "type": "string"
        }
      ],
      "stateMutability": "view",
      "type": "function"
    },
    {
      "inputs": [
        {
          "internalType": "bytes4",
          "name": "interfaceId",
          "type": "bytes4"
        }
      ],
      "name": "supportsInterface",
      "outputs": [
        {
          "internalType": "bool",
          "name": "",
          "type": "bool"
        }
      ],
      "stateMutability": "view",
      "type": "function"
    },
    {
      "inputs": [],
      "name": "totalAssets",
      "outputs": [
        {
          "internalType": "uint256",
          "name": "",
          "type": "uint256"
        }
      ],
      "stateMutability": "view",
      "type": "function"
    },
    {
      "inputs": [],
      "name": "withdrawAllToSplitter",
      "outputs": [
        {
          "internalType": "uint256",
          "name": "strategyLoss",
          "type": "uint256"
        }
      ],
      "stateMutability": "nonpayable",
      "type": "function"
    },
    {
      "inputs": [
        {
          "internalType": "address",
          "name": "tokenToSwap_",
          "type": "address"
        },
        {
          "internalType": "address",
          "name": "aggregator_",
          "type": "address"
        },
        {
          "internalType": "uint256",
          "name": "amountToSwap_",
          "type": "uint256"
        },
        {
          "internalType": "bytes",
          "name": "swapData",
          "type": "bytes"
        },
        {
          "internalType": "bytes",
          "name": "planEntryData",
          "type": "bytes"
        },
        {
          "internalType": "uint256",
          "name": "entryToPool",
          "type": "uint256"
        }
      ],
      "name": "withdrawByAggStep",
      "outputs": [
        {
          "internalType": "bool",
          "name": "completed",
          "type": "bool"
        }
      ],
      "stateMutability": "nonpayable",
      "type": "function"
    },
    {
      "inputs": [
        {
          "internalType": "uint256",
          "name": "amount",
          "type": "uint256"
        }
      ],
      "name": "withdrawToSplitter",
      "outputs": [
        {
          "internalType": "uint256",
          "name": "strategyLoss",
          "type": "uint256"
        }
      ],
      "stateMutability": "nonpayable",
      "type": "function"
    }
  ],
  "transactionHash": "0x2b42d3e982f962bb31483ce9854535d756483e5197d60e5f7aecde41c6042fbb",
  "args": [],
  "numDeployments": 13,
  "solcInputHash": "e76158ae9a22536febb5003c96af34b3",
  "bytecode": "0x60806040523480156200001157600080fd5b506200001c62000022565b620000e3565b600054610100900460ff16156200008f5760405162461bcd60e51b815260206004820152602760248201527f496e697469616c697a61626c653a20636f6e747261637420697320696e697469604482015266616c697a696e6760c81b606482015260840160405180910390fd5b60005460ff90811614620000e1576000805460ff191660ff9081179091556040519081527f7f26b83ff96e1f2b6a682f133852f6798a09c465da95921460cefb38474024989060200160405180910390a15b565b615d0080620000f36000396000f3fe608060405234801561001057600080fd5b50600436106103645760003560e01c80636b5fba5a116101c9578063ab9e3eee116100ff578063ceee861d116100ad578063dee1f0e41161007c578063dee1f0e4146107d0578063dfeb1032146107e3578063f77c4791146107f6578063ffb86c6a146107fe57600080fd5b8063ceee861d14610789578063d295ea70146107ad578063db8d55f1146107b5578063de3d047c146107bd57600080fd5b8063ab9e3eee146106ff578063b245755614610707578063b429afeb1461071a578063b77c975b1461072d578063bd38837b1461075f578063cd4c815614610770578063ce2f18421461078157600080fd5b80637eba7ba611610177578063936725ec11610146578063936725ec1461068457806396b7b14e146106a85780639d0bcca0146106bb578063a3f4df7e146106c357600080fd5b80637eba7ba6146106315780637efc77fa14610643578063877887821461066957806387c7f7701461067157600080fd5b80636b5fba5a146105a45780636ffb4c8e146105b75780637063a237146105ca57806371ee0175146105dd57806373a50ef5146105e557806378327438146106095780637cc963801461062957600080fd5b80634593144c1161029e57806351e03fbe1161024c5780635641ec031161021b5780635641ec031461055b5780635cfc1a51146105635780636207a0cf1461056d57806363e277341461059157600080fd5b806351e03fbe1461051357806352bbbb74146105265780635412335d1461053b578063546799631461055357600080fd5b80634593144c146104b05780634ad0b684146104b85780634ba31b01146104c05780634e71d92d146104c85780634fa5d854146104d05780634fac6ccd146104ed578063507142d91461050057600080fd5b80631d2dca9e1161031657806333c5b58e116102e557806333c5b58e1461046a57806338d52e0f146104725780633cd8045e1461048c57806342fdb4711461049d57600080fd5b80631d2dca9e146104345780632221eb3c14610447578063261efa121461045a578063325a19f11461046257600080fd5b806301e1d1141461036957806301ffc9a714610384578063066a6fc3146103a7578063074424d6146103ba5780630acd12c7146103eb5780630e30428d146103f3578063150b7a0214610408575b600080fd5b610371610806565b6040519081526020015b60405180910390f35b6103976103923660046148b6565b610891565b604051901515815260200161037b565b6103976103b53660046149e3565b6108d7565b6103de604051806040016040528060058152602001640312e302e360dc1b81525081565b60405161037b9190614acd565b610371610ab6565b610406610401366004614ae0565b610bd8565b005b61041b610416366004614b0c565b610c7c565b6040516001600160e01b0319909116815260200161037b565b610406610442366004614b85565b610c8d565b610406610455366004614ba2565b610df6565b606854610371565b610371610e6c565b610371610e9c565b6064546001600160a01b03165b60405161037b9190614bbb565b6065546001600160a01b031661047f565b6104066104ab366004614ba2565b610f1c565b61037161100b565b609754610371565b61037161103b565b6104066110b2565b6104d861112c565b6040805192835260208301919091520161037b565b6104066104fb366004614bcf565b61119a565b61040661050e366004614c0c565b6112cc565b610371610521366004614ba2565b61167c565b61052e611844565b60405161037b9190614d5c565b610543611ab2565b60405161037b9493929190614da1565b6103de611b41565b610406611bd6565b600160ff1b610371565b6103de60405180604001604052806005815260200164199718971960d91b81525081565b61040661059f366004614e45565b611c6f565b6104066105b2366004614bcf565b611d4d565b6104066105c5366004614ba2565b611dde565b6104066105d8366004614eb6565b611e66565b609954610371565b6103de604051806040016040528060058152602001640332e302e360dc1b81525081565b610371610617366004614bcf565b60966020526000908152604090205481565b610371611f04565b61037161063f366004614ba2565b5490565b6103de60405180604001604052806007815260200166416c676562726160c81b81525081565b606754610371565b61037161067f366004614ae0565b611f34565b6103de60405180604001604052806005815260200164332e302e3160d81b81525081565b6104066106b6366004614f77565b61221a565b61047f6122bf565b6103de6040518060400160405280601a81526020017f416c676562726120436f6e76657274657220537472617465677900000000000081525081565b6103976122ef565b610371610715366004615038565b6123bc565b610397610728366004614bcf565b61246b565b61074061073b366004615068565b612490565b604080516001600160a01b03909316835260208301919091520161037b565b6098546001600160a01b031661047f565b6066546001600160a01b031661047f565b609a54610371565b6103de60405180604001604052806005815260200164332e312e3160d81b81525081565b606954610371565b6104d8612582565b6104066107cb366004614ba2565b6125fa565b6103976107de366004614bcf565b612657565b6104066107f136600461509c565b6126dc565b61047f612784565b6103976127b4565b600061081160975490565b6064546040516370a0823160e01b81526001600160a01b03909116906370a0823190610841903090600401614bbb565b602060405180830381865afa15801561085e573d6000803e3d6000fd5b505050506040513d601f19601f820116820180604052508101906108829190615119565b61088c9190615148565b905090565b60006001600160e01b03198216631e94dddf60e01b14806108c257506001600160e01b0319821663f73147b360e01b145b806108d157506108d182612802565b92915050565b60008060006108e4612827565b91509150606073760DDA7AC0F7A767CE893d84bb9b1615EEB101F963911ec05360976040518060a001604052808e6001600160a01b03166001600160a01b031681526020018d6001600160a01b03166001600160a01b03168152602001610949612784565b6001600160a01b039081168252609854811660208084019190915260655490911660409283015281516080810183528e8152908101899052808201889052606081018b905290516001600160e01b031960e086901b1681526109ba939291908d908d9060019060969060040161517e565b600060405180830381865af41580156109d7573d6000803e3d6000fd5b505050506040513d6000823e601f3d908101601f191682016040526109ff9190810190615262565b9094509050610a0d81612879565b6000601055838015610a225750610a226128a8565b15610a2d576001600f555b606480546040516368f9467b60e01b81526001600160a01b039091166004820152602481018490526097604482015273dcd94dd273297F5c64DE5FdFDfe5B2079a3a4279916368f9467b910160006040518083038186803b158015610a9157600080fd5b505af4158015610aa5573d6000803e3d6000fd5b505050505050509695505050505050565b606554606454604051633e53813360e11b81526000926001600160a01b03908116921690839073c19A300bC5f9eC67BDd2D7D8FCeC05e96766d9d190637ca7026690610b0890869086906004016152a8565b602060405180830381865af4158015610b25573d6000803e3d6000fd5b505050506040513d601f19601f82011682018060405250810190610b499190615119565b90506000806000610b586128ba565b92509250925073c19A300bC5f9eC67BDd2D7D8FCeC05e96766d9d1639ad00ec2868686868b6040518663ffffffff1660e01b8152600401610b9d9594939291906152c2565b60006040518083038186803b158015610bb557600080fd5b505af4158015610bc9573d6000803e3d6000fd5b50929998505050505050505050565b73dcd94dd273297F5c64DE5FdFDfe5B2079a3a427963142395ef610bfa612784565b6040516001600160e01b031960e084901b1681526001600160a01b03918216600482015290851660248201526044810184905260640160006040518083038186803b158015610c4857600080fd5b505af4158015610c5c573d6000803e3d6000fd5b5050506001600160a01b0390921660009081526096602052604090205550565b630a85bd0160e11b5b949350505050565b6000610c97612784565b60405163124fdbb760e21b815290915073c19A300bC5f9eC67BDd2D7D8FCeC05e96766d9d19063493f6edc90610cd1908490600401614bbb565b60006040518083038186803b158015610ce957600080fd5b505af4158015610cfd573d6000803e3d6000fd5b50505050600080610d0c612827565b604080518082019091526098546001600160a01b03168152919350915060009073760DDA7AC0F7A767CE893d84bb9b1615EEB101F99063b6fda8139060979060019060208101610d5b8a6128d5565b6001600160a01b039081169091526065546040516001600160e01b031960e088901b168152610d9b959493928a928c929116908e9060969060040161531e565b600060405180830381865af4158015610db8573d6000803e3d6000fd5b505050506040513d6000823e601f3d908101601f19168201604052610de09190810190615370565b9050610deb81612879565b505042601055505050565b73c19A300bC5f9eC67BDd2D7D8FCeC05e96766d9d163493f6edc610e18612784565b6040518263ffffffff1660e01b8152600401610e349190614bbb565b60006040518083038186803b158015610e4c57600080fd5b505af4158015610e60573d6000803e3d6000fd5b505050600f9190915550565b600061088c61063f60017f6f55f470bdc9cb5f04223fd822021061668e4dccb43e8727b295106dc9769c8b6153a4565b600073c19A300bC5f9eC67BDd2D7D8FCeC05e96766d9d163493f6edc610ec0612784565b6040518263ffffffff1660e01b8152600401610edc9190614bbb565b60006040518083038186803b158015610ef457600080fd5b505af4158015610f08573d6000803e3d6000fd5b50505050610f14612939565b509092915050565b73c19A300bC5f9eC67BDd2D7D8FCeC05e96766d9d163493f6edc610f3e612784565b6040518263ffffffff1660e01b8152600401610f5a9190614bbb565b60006040518083038186803b158015610f7257600080fd5b505af4158015610f86573d6000803e3d6000fd5b50730fD6eAFC423D4A91387752343cE78e7f4bA6BD029250636bffb346915060069050836003811115610fbb57610fbb6153b7565b6040518363ffffffff1660e01b8152600401610fd89291906153cd565b60006040518083038186803b158015610ff057600080fd5b505af4158015611004573d6000803e3d6000fd5b5050505050565b600061088c61063f60017f812a673dfca07956350df10f8a654925f561d7a0da09bdbe79e653939a14d9f16153a4565b604051630a3c2bb160e21b81526001600482015260009073760DDA7AC0F7A767CE893d84bb9b1615EEB101F9906328f0aec490602401602060405180830381865af415801561108e573d6000803e3d6000fd5b505050506040513d601f19601f8201168201806040525081019061088c9190615119565b73c19A300bC5f9eC67BDd2D7D8FCeC05e96766d9d163d19cc38a6110d4612784565b6040518263ffffffff1660e01b81526004016110f09190614bbb565b60006040518083038186803b15801561110857600080fd5b505af415801561111c573d6000803e3d6000fd5b50505050611128612a0a565b5050565b60655460408051808201909152600a81526914d08e8811195b9a595960b21b60208201526000918291906001600160a01b031633146111875760405162461bcd60e51b815260040161117e9190614acd565b60405180910390fd5b506111926001612ac6565b915091509091565b3330146111e95760405162461bcd60e51b815260206004820152601b60248201527f496e637265617365207265766973696f6e20666f7262696464656e0000000000604482015260640161117e565b600061121961063f60017f22573091f17911fb166032a3d9e0554aa73d31b7b7ddea4a4dd2995650af84bd6153a4565b611224906001615148565b90506112588161125560017f22573091f17911fb166032a3d9e0554aa73d31b7b7ddea4a4dd2995650af84bd6153a4565b55565b6112878261125560017fbfaaa2fb63266ff27c2da975f5894955056f50419af651a81f6c5060581857e46153a4565b604080518281526001600160a01b03841660208201527ff27e2ef832a4eb8ed8ec553b875eecd44764cda95b1c24170e281539e0a869c8910160405180910390a15050565b600054610100900460ff16158080156112ec5750600054600160ff909116105b806113065750303b158015611306575060005460ff166001145b6113695760405162461bcd60e51b815260206004820152602e60248201527f496e697469616c697a61626c653a20636f6e747261637420697320616c72656160448201526d191e481a5b9a5d1a585b1a5e995960921b606482015260840161117e565b6000805460ff19166001179055801561138c576000805461ff0019166101001790555b6113978a8a8a612ca7565b73760DDA7AC0F7A767CE893d84bb9b1615EEB101F9632df3c9a9600160405180604001604052808e6001600160a01b03166001600160a01b031681526020018b6001600160a01b03166001600160a01b031681525089898e6001600160a01b03166338d52e0f6040518163ffffffff1660e01b8152600401602060405180830381865afa15801561142c573d6000803e3d6000fd5b505050506040513d601f19601f8201168201806040525081019061145091906153ff565b8a896040518863ffffffff1660e01b8152600401611474979695949392919061541c565b60006040518083038186803b15801561148c57600080fd5b505af41580156114a0573d6000803e3d6000fd5b50506040805163c3724a8960e01b81526001600482015286516001600160a01b03908116602483015260208801518116604483015291870151909116606482015260608601516084820152608086015160a482015273760DDA7AC0F7A767CE893d84bb9b1615EEB101F9925063c3724a89915060c40160006040518083038186803b15801561152e57600080fd5b505af4158015611542573d6000803e3d6000fd5b505060405163bd85be2960e01b81526001600482015273c19A300bC5f9eC67BDd2D7D8FCeC05e96766d9d19250637fc1c15b915060649073760DDA7AC0F7A767CE893d84bb9b1615EEB101F99063bd85be2990602401600060405180830381865af41580156115b5573d6000803e3d6000fd5b505050506040513d6000823e601f3d908101601f191682016040526115dd919081019061546d565b6040518363ffffffff1660e01b81526004016115fa9291906154e3565b60006040518083038186803b15801561161257600080fd5b505af4158015611626573d6000803e3d6000fd5b505050508015611670576000805461ff0019169055604051600181527f7f26b83ff96e1f2b6a682f133852f6798a09c465da95921460cefb38474024989060200160405180910390a15b50505050505050505050565b606554606454604051633e53813360e11b81526000926001600160a01b03908116921690839073c19A300bC5f9eC67BDd2D7D8FCeC05e96766d9d190637ca70266906116ce90869086906004016152a8565b602060405180830381865af41580156116eb573d6000803e3d6000fd5b505050506040513d601f19601f8201168201806040525081019061170f9190615119565b9050808511156117bb5760008061172e61172984896153a4565b612d49565b604051631594b05b60e01b8152909850919350915073c19A300bC5f9eC67BDd2D7D8FCeC05e96766d9d190631594b05b906117759087908790879087908c906004016152c2565b602060405180830381865af4158015611792573d6000803e3d6000fd5b505050506040513d601f19601f820116820180604052508101906117b69190615119565b925050505b6040516333bbb20360e11b815260048101869052602481018290526001600160a01b0380841660448301528416606482015273c19A300bC5f9eC67BDd2D7D8FCeC05e96766d9d19063677764069060840160006040518083038186803b15801561182457600080fd5b505af4158015611838573d6000803e3d6000fd5b50505050505050919050565b60025460408051600480825260a082019092526060926001600160a01b0316916020820160808036833750506003546040516370a0823160e01b81529294506001600160a01b0316916370a0823191506118a2908490600401614bbb565b602060405180830381865afa1580156118bf573d6000803e3d6000fd5b505050506040513d601f19601f820116820180604052508101906118e39190615119565b826000815181106118f6576118f66154fc565b6020908102919091010152600480546040516370a0823160e01b81526001600160a01b03909116916370a082319161193091859101614bbb565b602060405180830381865afa15801561194d573d6000803e3d6000fd5b505050506040513d601f19601f820116820180604052508101906119719190615119565b82600181518110611984576119846154fc565b60209081029190910101526033546040516370a0823160e01b81526001600160a01b03909116906370a08231906119bf908490600401614bbb565b602060405180830381865afa1580156119dc573d6000803e3d6000fd5b505050506040513d601f19601f82011682018060405250810190611a009190615119565b82600281518110611a1357611a136154fc565b60209081029190910101526034546040516370a0823160e01b81526001600160a01b03909116906370a0823190611a4e908490600401614bbb565b602060405180830381865afa158015611a6b573d6000803e3d6000fd5b505050506040513d601f19601f82011682018060405250810190611a8f9190615119565b82600381518110611aa257611aa26154fc565b6020026020010181815250505090565b604051636e81b62960e01b8152600160048201526060908190819081907394B746c50ac5d1A40BeB3494337B0Ea43E502a3d90636e81b62990602401600060405180830381865af4158015611b0b573d6000803e3d6000fd5b505050506040513d6000823e601f3d908101601f19168201604052611b3391908101906155da565b935093509350935090919293565b606060646006018054611b53906156d8565b80601f0160208091040260200160405190810160405280929190818152602001828054611b7f906156d8565b8015611bcc5780601f10611ba157610100808354040283529160200191611bcc565b820191906000526020600020905b815481529060010190602001808311611baf57829003601f168201915b5050505050905090565b611bde612d7a565b73c19A300bC5f9eC67BDd2D7D8FCeC05e96766d9d163bd020682611c00612784565b6064805460655460405160e086901b6001600160e01b03191681526001600160a01b03948516600482015291841660248301529290921660448301520160006040518083038186803b158015611c5557600080fd5b505af4158015611c69573d6000803e3d6000fd5b50505050565b73c19A300bC5f9eC67BDd2D7D8FCeC05e96766d9d163493f6edc611c91612784565b6040518263ffffffff1660e01b8152600401611cad9190614bbb565b60006040518083038186803b158015611cc557600080fd5b505af4158015611cd9573d6000803e3d6000fd5b5050604051637fc1c15b60e01b815273c19A300bC5f9eC67BDd2D7D8FCeC05e96766d9d19250637fc1c15b9150611d199060649086908690600401615712565b60006040518083038186803b158015611d3157600080fd5b505af4158015611d45573d6000803e3d6000fd5b505050505050565b73c19A300bC5f9eC67BDd2D7D8FCeC05e96766d9d163493f6edc611d6f612784565b6040518263ffffffff1660e01b8152600401611d8b9190614bbb565b60006040518083038186803b158015611da357600080fd5b505af4158015611db7573d6000803e3d6000fd5b5050600280546001600160a01b0319166001600160a01b0394909416939093179092555050565b73dcd94dd273297F5c64DE5FdFDfe5B2079a3a427963d2c3cf25611e00612784565b6040516001600160e01b031960e084901b1681526001600160a01b0390911660048201526024810184905260440160006040518083038186803b158015611e4657600080fd5b505af4158015611e5a573d6000803e3d6000fd5b50505060999190915550565b73c19A300bC5f9eC67BDd2D7D8FCeC05e96766d9d163ed6b63c16064858585611e8d612784565b6040516001600160e01b031960e088901b168152600481019590955260248501939093526001600160a01b039182166044850152606484015216608482015260a40160006040518083038186803b158015611ee757600080fd5b505af4158015611efb573d6000803e3d6000fd5b50505050505050565b600061088c61063f60017f22573091f17911fb166032a3d9e0554aa73d31b7b7ddea4a4dd2995650af84bd6153a4565b6000611f3e61486e565b611f4a84826000612dc5565b805160408051808201909152600a81526914d08e8811195b9a595960b21b6020820152906001600160a01b03163314611f965760405162461bcd60e51b815260040161117e9190614acd565b5060408051808201909152601081526f54532d3234207a65726f2076616c756560801b602082015283611fdc5760405162461bcd60e51b815260040161117e9190614acd565b5060001981606001511415604051806040016040528060118152602001701514cb4c4d081ddc9bdb99c8185cdcd95d607a1b8152509061202f5760405162461bcd60e51b815260040161117e9190614acd565b5060008061203d6001612e3f565b608085015160405163513cfdb360e11b81526001600160a01b038a16600482015260248101919091526044810183905260648181018390526084820152919350915073dcd94dd273297F5c64DE5FdFDfe5B2079a3a42799063a279fb669060a401602060405180830381865af41580156120bb573d6000803e3d6000fd5b505050506040513d601f19601f820116820180604052508101906120df9190615119565b60808401526000620186a06120f66103e882615148565b6121009088615748565b61210a919061575f565b90508084608001511061213657835161212e906001600160a01b0389169088612f09565b859450612207565b826000036121715761214d6103e8620186a0615148565b620186a085608001516121609190615748565b61216a919061575f565b9450612207565b6000620186a06121846103e86002615748565b61219190620186a0615148565b61219b9089615748565b6121a5919061575f565b90506121c08560800151826121ba91906153a4565b86612f5b565b5060006121cc896131c0565b9050828111612200576121e46103e8620186a0615148565b6121f1620186a083615748565b6121fb919061575f565b612202565b875b965050505b61220f613230565b505050505092915050565b60985460408051808201909152600a81526914d08e8811195b9a595960b21b6020820152906001600160a01b031633146122675760405162461bcd60e51b815260040161117e9190614acd565b5080518251146040518060400160405280600d81526020016c54532d3139206c656e6774687360981b815250906122b15760405162461bcd60e51b815260040161117e9190614acd565b506122ba613230565b505050565b600061088c61063f60017fbfaaa2fb63266ff27c2da975f5894955056f50419af651a81f6c5060581857e46153a4565b60006122f96127b4565b15801561230b57506123096128a8565b155b801561088c575060985473760DDA7AC0F7A767CE893d84bb9b1615EEB101F99063d1585fc4906001906001600160a01b0316612345612784565b6040516001600160e01b031960e086901b16815260048101939093526001600160a01b0391821660248401521660448201526064015b602060405180830381865af4158015612398573d6000803e3d6000fd5b505050506040513d601f19601f8201168201806040525081019061088c9190615781565b6065546064546040516001625acc3160e01b03198152600092839273c19A300bC5f9eC67BDd2D7D8FCeC05e96766d9d19263ffa533cf9261240e926001600160a01b03918216929116906004016152a8565b602060405180830381865af415801561242b573d6000803e3d6000fd5b505050506040513d601f19601f8201168201806040525081019061244f9190615119565b90508015612464576124618184613246565b91505b5092915050565b6000612475612784565b6001600160a01b0316826001600160a01b0316149050919050565b6005546000908190630100000090046001600160801b03168181156124bd576124b8826132f2565b6124db565b60408051600280825260608201835290916020830190803683375050505b90507394B746c50ac5d1A40BeB3494337B0Ea43E502a3d6350d2e0ba60018784612503612784565b6098546040516001600160e01b031960e088901b16815261253795949392916001600160a01b03169060969060040161579e565b6040805180830381865af4158015612553573d6000803e3d6000fd5b505050506040513d601f19601f8201168201806040525081019061257791906157ef565b935093505050915091565b604051632cc58ef960e01b815260016004820152600090819073760DDA7AC0F7A767CE893d84bb9b1615EEB101F990632cc58ef9906024016040805180830381865af41580156125d6573d6000803e3d6000fd5b505050506040513d601f19601f82011682018060405250810190611192919061581d565b73c19A300bC5f9eC67BDd2D7D8FCeC05e96766d9d1636d51f043606461261e612784565b6040516001600160e01b031960e085901b16815260048101929092526001600160a01b0316602482015260448101849052606401610fd8565b6000816001600160a01b031661266b612784565b6001600160a01b0316635aa6e6756040518163ffffffff1660e01b8152600401602060405180830381865afa1580156126a8573d6000803e3d6000fd5b505050506040513d601f19601f820116820180604052508101906126cc91906153ff565b6001600160a01b03161492915050565b73c19A300bC5f9eC67BDd2D7D8FCeC05e96766d9d163493f6edc6126fe612784565b6040518263ffffffff1660e01b815260040161271a9190614bbb565b60006040518083038186803b15801561273257600080fd5b505af4158015612746573d6000803e3d6000fd5b5050604051630593c4c960e01b8152730fD6eAFC423D4A91387752343cE78e7f4bA6BD029250630593c4c99150610fd8906006908590600401615841565b600061088c61063f60017f5165972ef41194f06c5007493031d0b927c20741adcb74403b954009fd2c36186153a4565b609854604051633934e59d60e11b8152600160048201526001600160a01b03909116602482015260009073760DDA7AC0F7A767CE893d84bb9b1615EEB101F990637269cb3a9060440161237b565b60006001600160e01b0319821663c19fa56160e01b14806108d157506108d18261337c565b6000806128346001612e3f565b9250829050612841610806565b61284b91906153a4565b600554909150630100000090046001600160801b03168015612874576128728160006133b1565b505b509091565b8051600214801561288f575061288d6128a8565b155b156128a05761289d8161344a565b50505b611128613230565b60065460009061088c9060ff166134d7565b60008060006128ca600019612d49565b925092509250909192565b6000816001600160a01b0316634046ebae6040518163ffffffff1660e01b8152600401602060405180830381865afa158015612915573d6000803e3d6000fd5b505050506040513d601f19601f820116820180604052508101906108d191906153ff565b60645460009060609081908390819061295a906001600160a01b03166134f4565b9150915073dcd94dd273297F5c64DE5FdFDfe5B2079a3a4279637325f33f8361298285613560565b6098546040516001600160e01b031960e086901b1681526129b893929187916001600160a01b039091169060019060040161588e565b600060405180830381865af41580156129d5573d6000803e3d6000fd5b505050506040513d6000823e601f3d908101601f191682016040526129fd91908101906158dc565b9450945094505050909192565b6060806000806000612a1a6135de565b609854929550909350915073dcd94dd273297F5c64DE5FdFDfe5B2079a3a42799063e99de4da906001600160a01b0316612a5261365d565b8686866040518663ffffffff1660e01b8152600401612a75959493929190615948565b600060405180830381865af4158015612a92573d6000803e3d6000fd5b505050506040513d6000823e601f3d908101601f19168201604052612aba91908101906159b2565b90969095509350505050565b600080600080612ad66001612e3f565b91509150612ae3856136f1565b612c2557600080600080612af56137a4565b93509350935093506000612b07612939565b505090506000612b578b8015612b1c57508215155b8015612b435750609954620186a090612b36908590615748565b612b40919061575f565b85115b612b4e576000612b50565b845b8884613882565b9150612b9b9050612b68858a615148565b6064548390612b7f906001600160a01b03166131c0565b609754612b8c9190615148565b612b969190615148565b613abd565b909a509850604080518981526020810189905290810187905260608101869052608081018b905260a081018a905260c081018490527f656724ec88ae6e1bb9ef6d699e92c6ad47802c06dffac7423918ef6f8c8f0e6d9060e00160405180910390a1612c10612c0a878c615148565b84613aed565b9950612c1c858a615148565b98505050505050505b6098546064546040516323c1ae5960e11b815273dcd94dd273297F5c64DE5FdFDfe5B2079a3a4279926347835cb292612c70926001600160a01b0392831692909116906004016152a8565b60006040518083038186803b158015612c8857600080fd5b505af4158015612c9c573d6000803e3d6000fd5b505050505050915091565b600054610100900460ff16612cce5760405162461bcd60e51b815260040161117e90615a0b565b612cd88383613b07565b609880546001600160a01b0319166001600160a01b038316179055612d016064620186a061575f565b6099557fe4166dfcf23bbd3e3f764a99dc8fa740554c03c82d6019b81cf265f396f6f2fe612d336064620186a061575f565b60405190815260200160405180910390a1505050565b6000806000806000612d5b6001612e3f565b91509150612d6a868284613bb0565b5091989097509095509350505050565b6000612d84613dbd565b90507f768a28cb3459382a3d2173feb2dad0235f8de680b109872da581a3aa269fe5f481604051612db59190614d5c565b60405180910390a1611128613230565b612dcd61365d565b604083018190526001600160a01b038085166020850152609854168352612df49084613e44565b6060830152612e02836131c0565b608083015280612e2c576040820151606454612e2791906001600160a01b0316613e44565b612e32565b81606001515b60a0909201919091525050565b6000808215612efc576064546000908190612e62906001600160a01b03166134f4565b9150915073dcd94dd273297F5c64DE5FdFDfe5B2079a3a4279633643611860976064612e8d86613560565b86866040518663ffffffff1660e01b8152600401612eaf959493929190615a56565b6040805180830381865af4158015612ecb573d6000803e3d6000fd5b505050506040513d601f19601f82011682018060405250810190612eef919061581d565b9094509250612f04915050565b505060975460005b915091565b604080516001600160a01b038416602482015260448082018490528251808303909101815260649091019091526020810180516001600160e01b031663a9059cbb60e01b1790526122ba908490613ea2565b600080612f786005546001600160801b0363010000009091041690565b90506000612f85826132f2565b9050600073dcd94dd273297F5c64DE5FdFDfe5B2079a3a4279630252e2c78787604001518860600151896000015187898c60a001516040518863ffffffff1660e01b8152600401612fdc9796959493929190615a9a565b602060405180830381865af4158015612ff9573d6000803e3d6000fd5b505050506040513d601f19601f8201168201806040525081019061301d9190615119565b9050801561308f5760006130328260006133b1565b600554909150630100000090046001600160801b031661305290856153a4565b91507faebc771af58936b05e89b0be7d3f9761480181abcd4a649fbdd01753fda169708282604051613085929190615af2565b60405180910390a1505b60007361F1dF339691408D284DeF72A502E446fECbD99463c432aee18760400151886060015189600001516130ca6130c5612784565b6128d5565b6000198d146130e8578c8c608001516130e39190615148565b6130ea565b8c5b60966040518763ffffffff1660e01b815260040161310d96959493929190615b0b565b602060405180830381865af415801561312a573d6000803e3d6000fd5b505050506040513d601f19601f8201168201806040525081019061314e9190615119565b905085608001518110156040518060400160405280601681526020017554532d32302062616c616e636520646563726561736560501b815250906131a55760405162461bcd60e51b815260040161117e9190614acd565b5060808601516131b590826153a4565b979650505050505050565b6040516370a0823160e01b81526000906001600160a01b038316906370a08231906131ef903090600401614bbb565b602060405180830381865afa15801561320c573d6000803e3d6000fd5b505050506040513d601f19601f820116820180604052508101906108d19190615119565b600061323a612939565b50506097819055919050565b6006546000906132589060ff166134d7565b156132e1576040805160028082526060820183526000926020830190803683370190505090508381600081518110613292576132926154fc565b6020026020010181815250507f59400c8c523464b521238ea8f50e923f2bc64663557e6afec92a97f7efe92d0581826040516132cf929190615b4e565b60405180910390a160009150506108d1565b6132eb8383613f74565b90506108d1565b60405163a7aced0960e01b8152600160048201526001600160801b038216602482015260609073760DDA7AC0F7A767CE893d84bb9b1615EEB101F99063a7aced0990604401600060405180830381865af4158015613354573d6000803e3d6000fd5b505050506040513d6000823e601f3d908101601f191682016040526108d19190810190615370565b60006001600160e01b0319821663b7b79fa960e01b14806108d157506301ffc9a760e01b6001600160e01b03198316146108d1565b604051635b1e6c8160e11b8152600160048201526001600160801b0383166024820152811515604482015260609073760DDA7AC0F7A767CE893d84bb9b1615EEB101F99063b63cd90290606401600060405180830381865af415801561341b573d6000803e3d6000fd5b505050506040513d6000823e601f3d908101601f191682016040526134439190810190615370565b9392505050565b6060600073760DDA7AC0F7A767CE893d84bb9b1615EEB101F963b67626216001856040518363ffffffff1660e01b8152600401613488929190615af2565b600060405180830381865af41580156134a5573d6000803e3d6000fd5b505050506040513d6000823e601f3d908101601f191682016040526134cd9190810190615b73565b9094909350915050565b600060018260038111156134ed576134ed6153b7565b1192915050565b6060600061350061365d565b915061350c8284613e44565b90506000198114156040518060400160405280600f81526020016e53423a2057726f6e672076616c756560881b8152509061355a5760405162461bcd60e51b815260040161117e9190614acd565b50915091565b6060600061357e6005546001600160801b0363010000009091041690565b905080156135945761358f816132f2565b613443565b82516001600160401b038111156135ad576135ad6148f8565b6040519080825280602002602001820160405280156135d6578160200160208202803683370190505b509392505050565b60405163f6e2611760e01b8152600160048201526060908190819073760DDA7AC0F7A767CE893d84bb9b1615EEB101F99063f6e2611790602401600060405180830381865af4158015613635573d6000803e3d6000fd5b505050506040513d6000823e601f3d908101601f191682016040526128ca9190810190615bb9565b6040805160028082526060808301845292602083019080368337505060035482519293506001600160a01b03169183915060009061369d5761369d6154fc565b6001600160a01b0392831660209182029290920101526004548251911690829060019081106136ce576136ce6154fc565b60200260200101906001600160a01b031690816001600160a01b03168152505090565b60006136fb6127b4565b156040518060400160405280601381526020017241532d31204e65656420726562616c616e636560681b815250906137465760405162461bcd60e51b815260040161117e9190614acd565b5061374f6128a8565b156040518060400160405280601481526020017341532d313420467573652069732061637469766560601b8152509061379b5760405162461bcd60e51b815260040161117e9190614acd565b50600092915050565b6000806000806000806137b5612a0a565b600354919350915073760DDA7AC0F7A767CE893d84bb9b1615EEB101F9906334d2ec3d906001600160a01b03166137ea612784565b85856040518563ffffffff1660e01b815260040161380b9493929190615c07565b602060405180830381865af4158015613828573d6000803e3d6000fd5b505050506040513d601f19601f8201168201806040525081019061384c9190615119565b95506138588282613f9b565b60645490935086908690613874906001600160a01b03166131c0565b955095509550505090919293565b60645460009081906001600160a01b0316818587116138a25760006138ac565b6138ac86886153a4565b90506000620186a0866097600201546138c59190615748565b6138cf919061575f565b8211905060006138de846131c0565b6001600160a01b0385166000908152609660205260409020549091506139039061403b565b8811156139f25781806139165750878110155b156139de5760655473dcd94dd273297F5c64DE5FdFDfe5B2079a3a42799063890ffb849086908b906001600160a01b0316613951868d615148565b6040516001600160e01b031960e087901b1681526001600160a01b03948516600482015260248101939093529216604482015260648101919091526084810184905260a4016040805180830381865af41580156139b2573d6000803e3d6000fd5b505050506040513d601f19601f820116820180604052508101906139d6919061581d565b5094506139f2565b6139ea60008989613bb0565b909850965050505b8115613ab157600080613a04866134f4565b6098549193509150600090613a24906001600160a01b0316878585614053565b9050613a2f81614308565b613a7c576000613a3e8261344a565b5090507f59400c8c523464b521238ea8f50e923f2bc64663557e6afec92a97f7efe92d058282604051613a72929190615b4e565b60405180910390a1505b6000613a86613230565b9050613aa9613a95868d615148565b8a613a9f8b6131c0565b612b8c9085615148565b9a5050505050505b50505050935093915050565b60008083831115613ad957613ad284846153a4565b9150613ae6565b613ae383856153a4565b90505b9250929050565b6000818311613afd576000613443565b61344382846153a4565b600054610100900460ff16613b2e5760405162461bcd60e51b815260040161117e90615a0b565b613b58817fd2de0374d4479f33e63ae5ed6ca772a10463dd883a90c612050b51fab6196400614354565b613b61826143aa565b604051631797527d60e01b81526064600482018190526001600160a01b0380851660248401528316604483015273c19A300bC5f9eC67BDd2D7D8FCeC05e96766d9d191631797527d9101611d19565b60008060008060006000198814613bf457620186a0613bd16103e882615148565b613bdb898b615148565b613be59190615748565b613bef919061575f565b613bf6565b875b9050613c01816145cf565b8015801590613c0f57508515155b15613db357613c1c61486e565b606454613c34906001600160a01b0316826001612dc5565b80516020820151604051637a55caf360e01b815273dcd94dd273297F5c64DE5FdFDfe5B2079a3a427992637a55caf392613c70926004016152a8565b602060405180830381865af4158015613c8d573d6000803e3d6000fd5b505050506040513d601f19601f82011682018060405250810190613cb19190615119565b9450670de0b6b3a764000085613cd0613cca8585612f5b565b8b613aed565b613cda9190615748565b613ce4919061575f565b6065546020830151608084015192985073dcd94dd273297F5c64DE5FdFDfe5B2079a3a427992632ce30333926001600160a01b031691908b908d613d26613230565b6040516001600160e01b031960e089901b1681526001600160a01b03968716600482015295909416602486015260448501929092526064840152608483015260a482015260c4016040805180830381865af4158015613d89573d6000803e3d6000fd5b505050506040513d601f19601f82011682018060405250810190613dad919061581d565b94509250505b5093509350935093565b60606000613ddb6005546001600160801b0363010000009091041690565b90508015613df357613dee8160016133b1565b613e3e565b613dfb61365d565b516001600160401b03811115613e1357613e136148f8565b604051908082528060200260200182016040528015613e3c578160200160208202803683370190505b505b91505090565b8151600090815b81811015613e9657836001600160a01b0316858281518110613e6f57613e6f6154fc565b60200260200101516001600160a01b031603613e8e5791506108d19050565b600101613e4b565b50600019949350505050565b6000613ef7826040518060400160405280602081526020017f5361666545524332303a206c6f772d6c6576656c2063616c6c206661696c6564815250856001600160a01b03166146229092919063ffffffff16565b8051909150156122ba5780806020019051810190613f159190615781565b6122ba5760405162461bcd60e51b815260206004820152602a60248201527f5361666545524332303a204552433230206f7065726174696f6e20646964206e6044820152691bdd081cdd58d8d9595960b21b606482015260840161117e565b6000806000613f8284612e3f565b91509150613f91858284613882565b5095945050505050565b600082516000146108d1577361F1dF339691408D284DeF72A502E446fECbD994635dcb613060646097613fcc61365d565b613fd4612784565b609689896040518863ffffffff1660e01b8152600401613ffa9796959493929190615c45565b602060405180830381865af4158015614017573d6000803e3d6000fd5b505050506040513d601f19601f820116820180604052508101906134439190615119565b6000811561404957816108d1565b620186a092915050565b606061405d6127b4565b156040518060400160405280601381526020017241532d31204e65656420726562616c616e636560681b815250906140a85760405162461bcd60e51b815260040161117e9190614acd565b50600154600480546040516221c5bf60e11b81526001600160a01b0390931691830191909152600160c81b8104600290810b6024840152600160e01b8204900b6044830152600160a81b900460ff1615156064820152600090819073760DDA7AC0F7A767CE893d84bb9b1615EEB101F99062438b7e906084016040805180830381865af415801561413d573d6000803e3d6000fd5b505050506040513d601f19601f82011682018060405250810190614161919061581d565b6003546004549294509092506001600160a01b03908116917394B746c50ac5d1A40BeB3494337B0Ea43E502a3d91631c2040d5918b918b918691166141a6888a615148565b6141b88a670de0b6b3a7640000615748565b6141c2919061575f565b60405160e087901b6001600160e01b03191681526001600160a01b0395861660048201526024810194909452918416604484015290921660648201526084810191909152609660a482015260c401600060405180830381865af415801561422d573d6000803e3d6000fd5b505050506040513d6000823e601f3d908101601f191682016040526142559190810190615370565b9350806001600160a01b031686600081518110614274576142746154fc565b60200260200101516001600160a01b0316146142fd578360018151811061429d5761429d6154fc565b6020026020010151846000815181106142b8576142b86154fc565b6020026020010151856000815181106142d3576142d36154fc565b60200260200101866001815181106142ed576142ed6154fc565b6020908102919091010191909152525b505050949350505050565b8051600090815b8181101561434a57838181518110614329576143296154fc565b6020026020010151600003614342575060019392505050565b60010161430f565b5060009392505050565b61435e8282614631565b6111285760405162461bcd60e51b815260206004820152601a60248201527f496e74657266616365206973206e6f7420737570706f72746564000000000000604482015260640161117e565b600054610100900460ff166143d15760405162461bcd60e51b815260040161117e90615a0b565b6001600160a01b0381166144195760405162461bcd60e51b815260206004820152600f60248201526e2d32b9379031b7b73a3937b63632b960891b604482015260640161117e565b614443817f4c2403fdcb3cff9b705d96bf0705858e3390412670a62c8bcba611ca7e20ab86614354565b60006001600160a01b0316816001600160a01b0316635aa6e6756040518163ffffffff1660e01b8152600401602060405180830381865afa15801561448c573d6000803e3d6000fd5b505050506040513d601f19601f820116820180604052508101906144b091906153ff565b6001600160a01b0316036144f85760405162461bcd60e51b815260206004820152600f60248201526e5a65726f20676f7665726e616e636560881b604482015260640161117e565b6145278161125560017f5165972ef41194f06c5007493031d0b927c20741adcb74403b954009fd2c36186153a4565b6145564261125560017f6f55f470bdc9cb5f04223fd822021061668e4dccb43e8727b295106dc9769c8b6153a4565b6145854361125560017f812a673dfca07956350df10f8a654925f561d7a0da09bdbe79e653939a14d9f16153a4565b604080516001600160a01b0383168152426020820152438183015290517f1a2dd071001ebf6e03174e3df5b305795a4ad5d41d8fdb9ba41dbbe2367134269181900360600190a150565b6145d76127b4565b156040518060400160405280601381526020017241532d31204e65656420726562616c616e636560681b815250906111285760405162461bcd60e51b815260040161117e9190614acd565b6060610c858484600085614705565b60006001600160a01b0383166146785760405162461bcd60e51b815260206004820152600c60248201526b5a65726f206164647265737360a01b604482015260640161117e565b823b600081900361468d5760009150506108d1565b6040516301ffc9a760e01b81526001600160e01b0319841660048201526001600160a01b038516906301ffc9a790602401602060405180830381865afa9250505080156146f7575060408051601f3d908101601f191682019092526146f491810190615781565b60015b1561434a5791506108d19050565b6060824710156147665760405162461bcd60e51b815260206004820152602660248201527f416464726573733a20696e73756666696369656e742062616c616e636520666f6044820152651c8818d85b1b60d21b606482015260840161117e565b600080866001600160a01b031685876040516147829190615cae565b60006040518083038185875af1925050503d80600081146147bf576040519150601f19603f3d011682016040523d82523d6000602084013e6147c4565b606091505b50915091506131b5878383876060831561483f578251600003614838576001600160a01b0385163b6148385760405162461bcd60e51b815260206004820152601d60248201527f416464726573733a2063616c6c20746f206e6f6e2d636f6e7472616374000000604482015260640161117e565b5081610c85565b610c8583838151156148545781518083602001fd5b8060405162461bcd60e51b815260040161117e9190614acd565b6040518060c0016040528060006001600160a01b0316815260200160006001600160a01b03168152602001606081526020016000815260200160008152602001600081525090565b6000602082840312156148c857600080fd5b81356001600160e01b03198116811461344357600080fd5b6001600160a01b03811681146148f557600080fd5b50565b634e487b7160e01b600052604160045260246000fd5b60405160a081016001600160401b0381118282101715614930576149306148f8565b60405290565b604051601f8201601f191681016001600160401b038111828210171561495e5761495e6148f8565b604052919050565b60006001600160401b0382111561497f5761497f6148f8565b50601f01601f191660200190565b600082601f83011261499e57600080fd5b81356149b16149ac82614966565b614936565b8181528460208386010111156149c657600080fd5b816020850160208301376000918101602001919091529392505050565b60008060008060008060c087890312156149fc57600080fd5b8635614a07816148e0565b95506020870135614a17816148e0565b94506040870135935060608701356001600160401b0380821115614a3a57600080fd5b614a468a838b0161498d565b94506080890135915080821115614a5c57600080fd5b50614a6989828a0161498d565b92505060a087013590509295509295509295565b60005b83811015614a98578181015183820152602001614a80565b50506000910152565b60008151808452614ab9816020860160208601614a7d565b601f01601f19169290920160200192915050565b6020815260006134436020830184614aa1565b60008060408385031215614af357600080fd5b8235614afe816148e0565b946020939093013593505050565b60008060008060808587031215614b2257600080fd5b8435614b2d816148e0565b93506020850135614b3d816148e0565b92506040850135915060608501356001600160401b03811115614b5f57600080fd5b614b6b8782880161498d565b91505092959194509250565b80151581146148f557600080fd5b600060208284031215614b9757600080fd5b813561344381614b77565b600060208284031215614bb457600080fd5b5035919050565b6001600160a01b0391909116815260200190565b600060208284031215614be157600080fd5b8135613443816148e0565b8060020b81146148f557600080fd5b80608081018310156108d157600080fd5b6000806000806000806000806000898b03610200811215614c2c57600080fd5b8a35614c37816148e0565b995060208b0135614c47816148e0565b985060408b0135614c57816148e0565b975060608b0135614c67816148e0565b965060808b0135614c7781614bec565b955060a08b0135614c8781614bec565b945060c08b0135614c9781614b77565b935060a060df1982011215614cab57600080fd5b50614cb461490e565b60e08b0135614cc2816148e0565b81526101008b0135614cd3816148e0565b60208201526101208b0135614ce7816148e0565b60408201526101408b013560608201526101608b013560808201529150614d128b6101808c01614bfb565b90509295985092959850929598565b600081518084526020808501945080840160005b83811015614d5157815187529582019590820190600101614d35565b509495945050505050565b6020815260006134436020830184614d21565b600081518084526020808501945080840160005b83811015614d51578151151587529582019590820190600101614d83565b6080808252855190820181905260009060209060a0840190828901845b82811015614de35781516001600160a01b031684529284019290840190600101614dbe565b5050508381038285015286518082528783019183019060005b81811015614e1b57835160020b83529284019291840191600101614dfc565b50508481036040860152614e2f8188614d21565b9250505082810360608401526131b58185614d6f565b60008060208385031215614e5857600080fd5b82356001600160401b0380821115614e6f57600080fd5b818501915085601f830112614e8357600080fd5b813581811115614e9257600080fd5b866020828501011115614ea457600080fd5b60209290920196919550909350505050565b600080600060608486031215614ecb57600080fd5b833592506020840135614edd816148e0565b929592945050506040919091013590565b60006001600160401b03821115614f0757614f076148f8565b5060051b60200190565b600082601f830112614f2257600080fd5b81356020614f326149ac83614eee565b82815260059290921b84018101918181019086841115614f5157600080fd5b8286015b84811015614f6c5780358352918301918301614f55565b509695505050505050565b60008060408385031215614f8a57600080fd5b82356001600160401b0380821115614fa157600080fd5b818501915085601f830112614fb557600080fd5b81356020614fc56149ac83614eee565b82815260059290921b84018101918181019089841115614fe457600080fd5b948201945b8386101561500b578535614ffc816148e0565b82529482019490820190614fe9565b9650508601359250508082111561502157600080fd5b5061502e85828601614f11565b9150509250929050565b6000806040838503121561504b57600080fd5b82359150602083013561505d81614b77565b809150509250929050565b60006020828403121561507a57600080fd5b81356001600160401b0381111561509057600080fd5b6124618482850161498d565b6000608082840312156150ae57600080fd5b82601f8301126150bd57600080fd5b604051608081018181106001600160401b03821117156150df576150df6148f8565b6040528060808401858111156150f457600080fd5b845b8181101561510e5780358352602092830192016150f6565b509195945050505050565b60006020828403121561512b57600080fd5b5051919050565b634e487b7160e01b600052601160045260246000fd5b808201808211156108d1576108d1615132565b8060005b6004811015611c6957815184526020938401939091019060010161515f565b60006101c089835260208084018a60005b60058110156151b55781516001600160a01b03168352918301919083019060010161518f565b505050506151c660c084018961515b565b806101408401526151d981840188614aa1565b90508281036101608401526151ee8187614aa1565b61018084019590955250506101a0015295945050505050565b600082601f83011261521857600080fd5b815160206152286149ac83614eee565b82815260059290921b8401810191818101908684111561524757600080fd5b8286015b84811015614f6c578051835291830191830161524b565b6000806040838503121561527557600080fd5b825161528081614b77565b60208401519092506001600160401b0381111561529c57600080fd5b61502e85828601615207565b6001600160a01b0392831681529116602082015260400190565b6001600160a01b039586168152602081019490945260408401929092526060830152909116608082015260a00190565b8060005b6002811015611c695781516001600160a01b03168452602093840193909101906001016152f6565b88815260208101889052610120810161533a60408301896152f2565b608082019690965260a08101949094526001600160a01b039290921660c0840152151560e0830152610100909101529392505050565b60006020828403121561538257600080fd5b81516001600160401b0381111561539857600080fd5b61246184828501615207565b818103818111156108d1576108d1615132565b634e487b7160e01b600052602160045260246000fd5b82815260408101600483106153f257634e487b7160e01b600052602160045260246000fd5b8260208301529392505050565b60006020828403121561541157600080fd5b8151613443816148e0565b878152610160810161543160208301896152f2565b8660020b60608301528560020b608083015260018060a01b03851660a083015283151560c083015260808360e084013798975050505050505050565b60006020828403121561547f57600080fd5b81516001600160401b0381111561549557600080fd5b8201601f810184136154a657600080fd5b80516154b46149ac82614966565b8181528560208385010111156154c957600080fd5b6154da826020830160208601614a7d565b95945050505050565b828152604060208201526000610c856040830184614aa1565b634e487b7160e01b600052603260045260246000fd5b600082601f83011261552357600080fd5b815160206155336149ac83614eee565b82815260059290921b8401810191818101908684111561555257600080fd5b8286015b84811015614f6c578051615569816148e0565b8352918301918301615556565b600082601f83011261558757600080fd5b815160206155976149ac83614eee565b82815260059290921b840181019181810190868411156155b657600080fd5b8286015b84811015614f6c5780516155cd81614b77565b83529183019183016155ba565b600080600080608085870312156155f057600080fd5b84516001600160401b038082111561560757600080fd5b61561388838901615512565b955060209150818701518181111561562a57600080fd5b8701601f8101891361563b57600080fd5b80516156496149ac82614eee565b81815260059190911b8201840190848101908b83111561566857600080fd5b928501925b8284101561568f57835161568081614bec565b8252928501929085019061566d565b60408b01519098509450505050808211156156a957600080fd5b6156b588838901615207565b935060608701519150808211156156cb57600080fd5b50614b6b87828801615576565b600181811c908216806156ec57607f821691505b60208210810361570c57634e487b7160e01b600052602260045260246000fd5b50919050565b83815260406020820152816040820152818360608301376000818301606090810191909152601f909201601f1916010192915050565b80820281158282048414176108d1576108d1615132565b60008261577c57634e487b7160e01b600052601260045260246000fd5b500490565b60006020828403121561579357600080fd5b815161344381614b77565b86815260c0602082015260006157b760c0830188614aa1565b82810360408401526157c98188614d21565b6001600160a01b0396871660608501529490951660808301525060a00152949350505050565b6000806040838503121561580257600080fd5b825161580d816148e0565b6020939093015192949293505050565b6000806040838503121561583057600080fd5b505080516020909101519092909150565b82815260a08101613443602083018461515b565b600081518084526020808501945080840160005b83811015614d515781516001600160a01b031687529582019590820190600101615869565b60a0815260006158a160a0830188615855565b82810360208401526158b38188614d21565b604084019690965250506001600160a01b03929092166060830152151560809091015292915050565b6000806000606084860312156158f157600080fd5b8351925060208401516001600160401b038082111561590f57600080fd5b61591b87838801615207565b9350604086015191508082111561593157600080fd5b5061593e86828701615207565b9150509250925092565b6001600160a01b038616815260a06020820181905260009061596c90830187615855565b828103604084015261597e8187615855565b905082810360608401526159928186614d21565b905082810360808401526159a68185614d21565b98975050505050505050565b600080604083850312156159c557600080fd5b82516001600160401b03808211156159dc57600080fd5b6159e886838701615512565b935060208501519150808211156159fe57600080fd5b5061502e85828601615207565b6020808252602b908201527f496e697469616c697a61626c653a20636f6e7472616374206973206e6f74206960408201526a6e697469616c697a696e6760a81b606082015260800190565b85815284602082015260a060408201526000615a7560a0830186614d21565b8281036060840152615a878186615855565b9150508260808301529695505050505050565b87815260e060208201526000615ab360e0830189615855565b604083018890526001600160a01b03871660608401528281036080840152615adb8187614d21565b60a0840195909552505060c0015295945050505050565b828152604060208201526000610c856040830184614d21565b60c081526000615b1e60c0830189615855565b6020830197909752506001600160a01b039485166040820152929093166060830152608082015260a00152919050565b604081526000615b616040830185614d21565b82810360208401526154da8185614d21565b60008060408385031215615b8657600080fd5b82516001600160401b03811115615b9c57600080fd5b615ba885828601615207565b925050602083015190509250929050565b600080600060608486031215615bce57600080fd5b83516001600160401b0380821115615be557600080fd5b615bf187838801615512565b9450602086015191508082111561590f57600080fd5b6001600160a01b03858116825284166020820152608060408201819052600090615c3390830185615855565b82810360608401526131b58185614d21565b87815286602082015260e060408201526000615c6460e0830188615855565b6001600160a01b03871660608401526080830186905282810360a0840152615c8c8186615855565b905082810360c0840152615ca08185614d21565b9a9950505050505050505050565b60008251615cc0818460208701614a7d565b919091019291505056fea2646970667358221220d677bd7dfcb2df4faefaf69808bafb73e2d24e97090360cedde5c22d69d3726664736f6c63430008110033",
  "deployedBytecode": "0x608060405234801561001057600080fd5b50600436106103645760003560e01c80636b5fba5a116101c9578063ab9e3eee116100ff578063ceee861d116100ad578063dee1f0e41161007c578063dee1f0e4146107d0578063dfeb1032146107e3578063f77c4791146107f6578063ffb86c6a146107fe57600080fd5b8063ceee861d14610789578063d295ea70146107ad578063db8d55f1146107b5578063de3d047c146107bd57600080fd5b8063ab9e3eee146106ff578063b245755614610707578063b429afeb1461071a578063b77c975b1461072d578063bd38837b1461075f578063cd4c815614610770578063ce2f18421461078157600080fd5b80637eba7ba611610177578063936725ec11610146578063936725ec1461068457806396b7b14e146106a85780639d0bcca0146106bb578063a3f4df7e146106c357600080fd5b80637eba7ba6146106315780637efc77fa14610643578063877887821461066957806387c7f7701461067157600080fd5b80636b5fba5a146105a45780636ffb4c8e146105b75780637063a237146105ca57806371ee0175146105dd57806373a50ef5146105e557806378327438146106095780637cc963801461062957600080fd5b80634593144c1161029e57806351e03fbe1161024c5780635641ec031161021b5780635641ec031461055b5780635cfc1a51146105635780636207a0cf1461056d57806363e277341461059157600080fd5b806351e03fbe1461051357806352bbbb74146105265780635412335d1461053b578063546799631461055357600080fd5b80634593144c146104b05780634ad0b684146104b85780634ba31b01146104c05780634e71d92d146104c85780634fa5d854146104d05780634fac6ccd146104ed578063507142d91461050057600080fd5b80631d2dca9e1161031657806333c5b58e116102e557806333c5b58e1461046a57806338d52e0f146104725780633cd8045e1461048c57806342fdb4711461049d57600080fd5b80631d2dca9e146104345780632221eb3c14610447578063261efa121461045a578063325a19f11461046257600080fd5b806301e1d1141461036957806301ffc9a714610384578063066a6fc3146103a7578063074424d6146103ba5780630acd12c7146103eb5780630e30428d146103f3578063150b7a0214610408575b600080fd5b610371610806565b6040519081526020015b60405180910390f35b6103976103923660046148b6565b610891565b604051901515815260200161037b565b6103976103b53660046149e3565b6108d7565b6103de604051806040016040528060058152602001640312e302e360dc1b81525081565b60405161037b9190614acd565b610371610ab6565b610406610401366004614ae0565b610bd8565b005b61041b610416366004614b0c565b610c7c565b6040516001600160e01b0319909116815260200161037b565b610406610442366004614b85565b610c8d565b610406610455366004614ba2565b610df6565b606854610371565b610371610e6c565b610371610e9c565b6064546001600160a01b03165b60405161037b9190614bbb565b6065546001600160a01b031661047f565b6104066104ab366004614ba2565b610f1c565b61037161100b565b609754610371565b61037161103b565b6104066110b2565b6104d861112c565b6040805192835260208301919091520161037b565b6104066104fb366004614bcf565b61119a565b61040661050e366004614c0c565b6112cc565b610371610521366004614ba2565b61167c565b61052e611844565b60405161037b9190614d5c565b610543611ab2565b60405161037b9493929190614da1565b6103de611b41565b610406611bd6565b600160ff1b610371565b6103de60405180604001604052806005815260200164199718971960d91b81525081565b61040661059f366004614e45565b611c6f565b6104066105b2366004614bcf565b611d4d565b6104066105c5366004614ba2565b611dde565b6104066105d8366004614eb6565b611e66565b609954610371565b6103de604051806040016040528060058152602001640332e302e360dc1b81525081565b610371610617366004614bcf565b60966020526000908152604090205481565b610371611f04565b61037161063f366004614ba2565b5490565b6103de60405180604001604052806007815260200166416c676562726160c81b81525081565b606754610371565b61037161067f366004614ae0565b611f34565b6103de60405180604001604052806005815260200164332e302e3160d81b81525081565b6104066106b6366004614f77565b61221a565b61047f6122bf565b6103de6040518060400160405280601a81526020017f416c676562726120436f6e76657274657220537472617465677900000000000081525081565b6103976122ef565b610371610715366004615038565b6123bc565b610397610728366004614bcf565b61246b565b61074061073b366004615068565b612490565b604080516001600160a01b03909316835260208301919091520161037b565b6098546001600160a01b031661047f565b6066546001600160a01b031661047f565b609a54610371565b6103de60405180604001604052806005815260200164332e312e3160d81b81525081565b606954610371565b6104d8612582565b6104066107cb366004614ba2565b6125fa565b6103976107de366004614bcf565b612657565b6104066107f136600461509c565b6126dc565b61047f612784565b6103976127b4565b600061081160975490565b6064546040516370a0823160e01b81526001600160a01b03909116906370a0823190610841903090600401614bbb565b602060405180830381865afa15801561085e573d6000803e3d6000fd5b505050506040513d601f19601f820116820180604052508101906108829190615119565b61088c9190615148565b905090565b60006001600160e01b03198216631e94dddf60e01b14806108c257506001600160e01b0319821663f73147b360e01b145b806108d157506108d182612802565b92915050565b60008060006108e4612827565b91509150606073__$e73f546b22cebb10cea6b8c699528ebeb1$__63911ec05360976040518060a001604052808e6001600160a01b03166001600160a01b031681526020018d6001600160a01b03166001600160a01b03168152602001610949612784565b6001600160a01b039081168252609854811660208084019190915260655490911660409283015281516080810183528e8152908101899052808201889052606081018b905290516001600160e01b031960e086901b1681526109ba939291908d908d9060019060969060040161517e565b600060405180830381865af41580156109d7573d6000803e3d6000fd5b505050506040513d6000823e601f3d908101601f191682016040526109ff9190810190615262565b9094509050610a0d81612879565b6000601055838015610a225750610a226128a8565b15610a2d576001600f555b606480546040516368f9467b60e01b81526001600160a01b039091166004820152602481018490526097604482015273__$8f1afe7577f9ab973017c74eca19b86f3c$__916368f9467b910160006040518083038186803b158015610a9157600080fd5b505af4158015610aa5573d6000803e3d6000fd5b505050505050509695505050505050565b606554606454604051633e53813360e11b81526000926001600160a01b03908116921690839073__$7dde4232fad0cb3c495beb9e735b7d0c63$__90637ca7026690610b0890869086906004016152a8565b602060405180830381865af4158015610b25573d6000803e3d6000fd5b505050506040513d601f19601f82011682018060405250810190610b499190615119565b90506000806000610b586128ba565b92509250925073__$7dde4232fad0cb3c495beb9e735b7d0c63$__639ad00ec2868686868b6040518663ffffffff1660e01b8152600401610b9d9594939291906152c2565b60006040518083038186803b158015610bb557600080fd5b505af4158015610bc9573d6000803e3d6000fd5b50929998505050505050505050565b73__$8f1afe7577f9ab973017c74eca19b86f3c$__63142395ef610bfa612784565b6040516001600160e01b031960e084901b1681526001600160a01b03918216600482015290851660248201526044810184905260640160006040518083038186803b158015610c4857600080fd5b505af4158015610c5c573d6000803e3d6000fd5b5050506001600160a01b0390921660009081526096602052604090205550565b630a85bd0160e11b5b949350505050565b6000610c97612784565b60405163124fdbb760e21b815290915073__$7dde4232fad0cb3c495beb9e735b7d0c63$__9063493f6edc90610cd1908490600401614bbb565b60006040518083038186803b158015610ce957600080fd5b505af4158015610cfd573d6000803e3d6000fd5b50505050600080610d0c612827565b604080518082019091526098546001600160a01b03168152919350915060009073__$e73f546b22cebb10cea6b8c699528ebeb1$__9063b6fda8139060979060019060208101610d5b8a6128d5565b6001600160a01b039081169091526065546040516001600160e01b031960e088901b168152610d9b959493928a928c929116908e9060969060040161531e565b600060405180830381865af4158015610db8573d6000803e3d6000fd5b505050506040513d6000823e601f3d908101601f19168201604052610de09190810190615370565b9050610deb81612879565b505042601055505050565b73__$7dde4232fad0cb3c495beb9e735b7d0c63$__63493f6edc610e18612784565b6040518263ffffffff1660e01b8152600401610e349190614bbb565b60006040518083038186803b158015610e4c57600080fd5b505af4158015610e60573d6000803e3d6000fd5b505050600f9190915550565b600061088c61063f60017f6f55f470bdc9cb5f04223fd822021061668e4dccb43e8727b295106dc9769c8b6153a4565b600073__$7dde4232fad0cb3c495beb9e735b7d0c63$__63493f6edc610ec0612784565b6040518263ffffffff1660e01b8152600401610edc9190614bbb565b60006040518083038186803b158015610ef457600080fd5b505af4158015610f08573d6000803e3d6000fd5b50505050610f14612939565b509092915050565b73__$7dde4232fad0cb3c495beb9e735b7d0c63$__63493f6edc610f3e612784565b6040518263ffffffff1660e01b8152600401610f5a9190614bbb565b60006040518083038186803b158015610f7257600080fd5b505af4158015610f86573d6000803e3d6000fd5b5073__$79fe6ec7a3db45dafbed12dca1c6dad764$__9250636bffb346915060069050836003811115610fbb57610fbb6153b7565b6040518363ffffffff1660e01b8152600401610fd89291906153cd565b60006040518083038186803b158015610ff057600080fd5b505af4158015611004573d6000803e3d6000fd5b5050505050565b600061088c61063f60017f812a673dfca07956350df10f8a654925f561d7a0da09bdbe79e653939a14d9f16153a4565b604051630a3c2bb160e21b81526001600482015260009073__$e73f546b22cebb10cea6b8c699528ebeb1$__906328f0aec490602401602060405180830381865af415801561108e573d6000803e3d6000fd5b505050506040513d601f19601f8201168201806040525081019061088c9190615119565b73__$7dde4232fad0cb3c495beb9e735b7d0c63$__63d19cc38a6110d4612784565b6040518263ffffffff1660e01b81526004016110f09190614bbb565b60006040518083038186803b15801561110857600080fd5b505af415801561111c573d6000803e3d6000fd5b50505050611128612a0a565b5050565b60655460408051808201909152600a81526914d08e8811195b9a595960b21b60208201526000918291906001600160a01b031633146111875760405162461bcd60e51b815260040161117e9190614acd565b60405180910390fd5b506111926001612ac6565b915091509091565b3330146111e95760405162461bcd60e51b815260206004820152601b60248201527f496e637265617365207265766973696f6e20666f7262696464656e0000000000604482015260640161117e565b600061121961063f60017f22573091f17911fb166032a3d9e0554aa73d31b7b7ddea4a4dd2995650af84bd6153a4565b611224906001615148565b90506112588161125560017f22573091f17911fb166032a3d9e0554aa73d31b7b7ddea4a4dd2995650af84bd6153a4565b55565b6112878261125560017fbfaaa2fb63266ff27c2da975f5894955056f50419af651a81f6c5060581857e46153a4565b604080518281526001600160a01b03841660208201527ff27e2ef832a4eb8ed8ec553b875eecd44764cda95b1c24170e281539e0a869c8910160405180910390a15050565b600054610100900460ff16158080156112ec5750600054600160ff909116105b806113065750303b158015611306575060005460ff166001145b6113695760405162461bcd60e51b815260206004820152602e60248201527f496e697469616c697a61626c653a20636f6e747261637420697320616c72656160448201526d191e481a5b9a5d1a585b1a5e995960921b606482015260840161117e565b6000805460ff19166001179055801561138c576000805461ff0019166101001790555b6113978a8a8a612ca7565b73__$e73f546b22cebb10cea6b8c699528ebeb1$__632df3c9a9600160405180604001604052808e6001600160a01b03166001600160a01b031681526020018b6001600160a01b03166001600160a01b031681525089898e6001600160a01b03166338d52e0f6040518163ffffffff1660e01b8152600401602060405180830381865afa15801561142c573d6000803e3d6000fd5b505050506040513d601f19601f8201168201806040525081019061145091906153ff565b8a896040518863ffffffff1660e01b8152600401611474979695949392919061541c565b60006040518083038186803b15801561148c57600080fd5b505af41580156114a0573d6000803e3d6000fd5b50506040805163c3724a8960e01b81526001600482015286516001600160a01b03908116602483015260208801518116604483015291870151909116606482015260608601516084820152608086015160a482015273__$e73f546b22cebb10cea6b8c699528ebeb1$__925063c3724a89915060c40160006040518083038186803b15801561152e57600080fd5b505af4158015611542573d6000803e3d6000fd5b505060405163bd85be2960e01b81526001600482015273__$7dde4232fad0cb3c495beb9e735b7d0c63$__9250637fc1c15b915060649073__$e73f546b22cebb10cea6b8c699528ebeb1$__9063bd85be2990602401600060405180830381865af41580156115b5573d6000803e3d6000fd5b505050506040513d6000823e601f3d908101601f191682016040526115dd919081019061546d565b6040518363ffffffff1660e01b81526004016115fa9291906154e3565b60006040518083038186803b15801561161257600080fd5b505af4158015611626573d6000803e3d6000fd5b505050508015611670576000805461ff0019169055604051600181527f7f26b83ff96e1f2b6a682f133852f6798a09c465da95921460cefb38474024989060200160405180910390a15b50505050505050505050565b606554606454604051633e53813360e11b81526000926001600160a01b03908116921690839073__$7dde4232fad0cb3c495beb9e735b7d0c63$__90637ca70266906116ce90869086906004016152a8565b602060405180830381865af41580156116eb573d6000803e3d6000fd5b505050506040513d601f19601f8201168201806040525081019061170f9190615119565b9050808511156117bb5760008061172e61172984896153a4565b612d49565b604051631594b05b60e01b8152909850919350915073__$7dde4232fad0cb3c495beb9e735b7d0c63$__90631594b05b906117759087908790879087908c906004016152c2565b602060405180830381865af4158015611792573d6000803e3d6000fd5b505050506040513d601f19601f820116820180604052508101906117b69190615119565b925050505b6040516333bbb20360e11b815260048101869052602481018290526001600160a01b0380841660448301528416606482015273__$7dde4232fad0cb3c495beb9e735b7d0c63$__9063677764069060840160006040518083038186803b15801561182457600080fd5b505af4158015611838573d6000803e3d6000fd5b50505050505050919050565b60025460408051600480825260a082019092526060926001600160a01b0316916020820160808036833750506003546040516370a0823160e01b81529294506001600160a01b0316916370a0823191506118a2908490600401614bbb565b602060405180830381865afa1580156118bf573d6000803e3d6000fd5b505050506040513d601f19601f820116820180604052508101906118e39190615119565b826000815181106118f6576118f66154fc565b6020908102919091010152600480546040516370a0823160e01b81526001600160a01b03909116916370a082319161193091859101614bbb565b602060405180830381865afa15801561194d573d6000803e3d6000fd5b505050506040513d601f19601f820116820180604052508101906119719190615119565b82600181518110611984576119846154fc565b60209081029190910101526033546040516370a0823160e01b81526001600160a01b03909116906370a08231906119bf908490600401614bbb565b602060405180830381865afa1580156119dc573d6000803e3d6000fd5b505050506040513d601f19601f82011682018060405250810190611a009190615119565b82600281518110611a1357611a136154fc565b60209081029190910101526034546040516370a0823160e01b81526001600160a01b03909116906370a0823190611a4e908490600401614bbb565b602060405180830381865afa158015611a6b573d6000803e3d6000fd5b505050506040513d601f19601f82011682018060405250810190611a8f9190615119565b82600381518110611aa257611aa26154fc565b6020026020010181815250505090565b604051636e81b62960e01b81526001600482015260609081908190819073__$b1ba452cecccdd06eb05ace2d0a762c7e1$__90636e81b62990602401600060405180830381865af4158015611b0b573d6000803e3d6000fd5b505050506040513d6000823e601f3d908101601f19168201604052611b3391908101906155da565b935093509350935090919293565b606060646006018054611b53906156d8565b80601f0160208091040260200160405190810160405280929190818152602001828054611b7f906156d8565b8015611bcc5780601f10611ba157610100808354040283529160200191611bcc565b820191906000526020600020905b815481529060010190602001808311611baf57829003601f168201915b5050505050905090565b611bde612d7a565b73__$7dde4232fad0cb3c495beb9e735b7d0c63$__63bd020682611c00612784565b6064805460655460405160e086901b6001600160e01b03191681526001600160a01b03948516600482015291841660248301529290921660448301520160006040518083038186803b158015611c5557600080fd5b505af4158015611c69573d6000803e3d6000fd5b50505050565b73__$7dde4232fad0cb3c495beb9e735b7d0c63$__63493f6edc611c91612784565b6040518263ffffffff1660e01b8152600401611cad9190614bbb565b60006040518083038186803b158015611cc557600080fd5b505af4158015611cd9573d6000803e3d6000fd5b5050604051637fc1c15b60e01b815273__$7dde4232fad0cb3c495beb9e735b7d0c63$__9250637fc1c15b9150611d199060649086908690600401615712565b60006040518083038186803b158015611d3157600080fd5b505af4158015611d45573d6000803e3d6000fd5b505050505050565b73__$7dde4232fad0cb3c495beb9e735b7d0c63$__63493f6edc611d6f612784565b6040518263ffffffff1660e01b8152600401611d8b9190614bbb565b60006040518083038186803b158015611da357600080fd5b505af4158015611db7573d6000803e3d6000fd5b5050600280546001600160a01b0319166001600160a01b0394909416939093179092555050565b73__$8f1afe7577f9ab973017c74eca19b86f3c$__63d2c3cf25611e00612784565b6040516001600160e01b031960e084901b1681526001600160a01b0390911660048201526024810184905260440160006040518083038186803b158015611e4657600080fd5b505af4158015611e5a573d6000803e3d6000fd5b50505060999190915550565b73__$7dde4232fad0cb3c495beb9e735b7d0c63$__63ed6b63c16064858585611e8d612784565b6040516001600160e01b031960e088901b168152600481019590955260248501939093526001600160a01b039182166044850152606484015216608482015260a40160006040518083038186803b158015611ee757600080fd5b505af4158015611efb573d6000803e3d6000fd5b50505050505050565b600061088c61063f60017f22573091f17911fb166032a3d9e0554aa73d31b7b7ddea4a4dd2995650af84bd6153a4565b6000611f3e61486e565b611f4a84826000612dc5565b805160408051808201909152600a81526914d08e8811195b9a595960b21b6020820152906001600160a01b03163314611f965760405162461bcd60e51b815260040161117e9190614acd565b5060408051808201909152601081526f54532d3234207a65726f2076616c756560801b602082015283611fdc5760405162461bcd60e51b815260040161117e9190614acd565b5060001981606001511415604051806040016040528060118152602001701514cb4c4d081ddc9bdb99c8185cdcd95d607a1b8152509061202f5760405162461bcd60e51b815260040161117e9190614acd565b5060008061203d6001612e3f565b608085015160405163513cfdb360e11b81526001600160a01b038a16600482015260248101919091526044810183905260648181018390526084820152919350915073__$8f1afe7577f9ab973017c74eca19b86f3c$__9063a279fb669060a401602060405180830381865af41580156120bb573d6000803e3d6000fd5b505050506040513d601f19601f820116820180604052508101906120df9190615119565b60808401526000620186a06120f66103e882615148565b6121009088615748565b61210a919061575f565b90508084608001511061213657835161212e906001600160a01b0389169088612f09565b859450612207565b826000036121715761214d6103e8620186a0615148565b620186a085608001516121609190615748565b61216a919061575f565b9450612207565b6000620186a06121846103e86002615748565b61219190620186a0615148565b61219b9089615748565b6121a5919061575f565b90506121c08560800151826121ba91906153a4565b86612f5b565b5060006121cc896131c0565b9050828111612200576121e46103e8620186a0615148565b6121f1620186a083615748565b6121fb919061575f565b612202565b875b965050505b61220f613230565b505050505092915050565b60985460408051808201909152600a81526914d08e8811195b9a595960b21b6020820152906001600160a01b031633146122675760405162461bcd60e51b815260040161117e9190614acd565b5080518251146040518060400160405280600d81526020016c54532d3139206c656e6774687360981b815250906122b15760405162461bcd60e51b815260040161117e9190614acd565b506122ba613230565b505050565b600061088c61063f60017fbfaaa2fb63266ff27c2da975f5894955056f50419af651a81f6c5060581857e46153a4565b60006122f96127b4565b15801561230b57506123096128a8565b155b801561088c575060985473__$e73f546b22cebb10cea6b8c699528ebeb1$__9063d1585fc4906001906001600160a01b0316612345612784565b6040516001600160e01b031960e086901b16815260048101939093526001600160a01b0391821660248401521660448201526064015b602060405180830381865af4158015612398573d6000803e3d6000fd5b505050506040513d601f19601f8201168201806040525081019061088c9190615781565b6065546064546040516001625acc3160e01b03198152600092839273__$7dde4232fad0cb3c495beb9e735b7d0c63$__9263ffa533cf9261240e926001600160a01b03918216929116906004016152a8565b602060405180830381865af415801561242b573d6000803e3d6000fd5b505050506040513d601f19601f8201168201806040525081019061244f9190615119565b90508015612464576124618184613246565b91505b5092915050565b6000612475612784565b6001600160a01b0316826001600160a01b0316149050919050565b6005546000908190630100000090046001600160801b03168181156124bd576124b8826132f2565b6124db565b60408051600280825260608201835290916020830190803683375050505b905073__$b1ba452cecccdd06eb05ace2d0a762c7e1$__6350d2e0ba60018784612503612784565b6098546040516001600160e01b031960e088901b16815261253795949392916001600160a01b03169060969060040161579e565b6040805180830381865af4158015612553573d6000803e3d6000fd5b505050506040513d601f19601f8201168201806040525081019061257791906157ef565b935093505050915091565b604051632cc58ef960e01b815260016004820152600090819073__$e73f546b22cebb10cea6b8c699528ebeb1$__90632cc58ef9906024016040805180830381865af41580156125d6573d6000803e3d6000fd5b505050506040513d601f19601f82011682018060405250810190611192919061581d565b73__$7dde4232fad0cb3c495beb9e735b7d0c63$__636d51f043606461261e612784565b6040516001600160e01b031960e085901b16815260048101929092526001600160a01b0316602482015260448101849052606401610fd8565b6000816001600160a01b031661266b612784565b6001600160a01b0316635aa6e6756040518163ffffffff1660e01b8152600401602060405180830381865afa1580156126a8573d6000803e3d6000fd5b505050506040513d601f19601f820116820180604052508101906126cc91906153ff565b6001600160a01b03161492915050565b73__$7dde4232fad0cb3c495beb9e735b7d0c63$__63493f6edc6126fe612784565b6040518263ffffffff1660e01b815260040161271a9190614bbb565b60006040518083038186803b15801561273257600080fd5b505af4158015612746573d6000803e3d6000fd5b5050604051630593c4c960e01b815273__$79fe6ec7a3db45dafbed12dca1c6dad764$__9250630593c4c99150610fd8906006908590600401615841565b600061088c61063f60017f5165972ef41194f06c5007493031d0b927c20741adcb74403b954009fd2c36186153a4565b609854604051633934e59d60e11b8152600160048201526001600160a01b03909116602482015260009073__$e73f546b22cebb10cea6b8c699528ebeb1$__90637269cb3a9060440161237b565b60006001600160e01b0319821663c19fa56160e01b14806108d157506108d18261337c565b6000806128346001612e3f565b9250829050612841610806565b61284b91906153a4565b600554909150630100000090046001600160801b03168015612874576128728160006133b1565b505b509091565b8051600214801561288f575061288d6128a8565b155b156128a05761289d8161344a565b50505b611128613230565b60065460009061088c9060ff166134d7565b60008060006128ca600019612d49565b925092509250909192565b6000816001600160a01b0316634046ebae6040518163ffffffff1660e01b8152600401602060405180830381865afa158015612915573d6000803e3d6000fd5b505050506040513d601f19601f820116820180604052508101906108d191906153ff565b60645460009060609081908390819061295a906001600160a01b03166134f4565b9150915073__$8f1afe7577f9ab973017c74eca19b86f3c$__637325f33f8361298285613560565b6098546040516001600160e01b031960e086901b1681526129b893929187916001600160a01b039091169060019060040161588e565b600060405180830381865af41580156129d5573d6000803e3d6000fd5b505050506040513d6000823e601f3d908101601f191682016040526129fd91908101906158dc565b9450945094505050909192565b6060806000806000612a1a6135de565b609854929550909350915073__$8f1afe7577f9ab973017c74eca19b86f3c$__9063e99de4da906001600160a01b0316612a5261365d565b8686866040518663ffffffff1660e01b8152600401612a75959493929190615948565b600060405180830381865af4158015612a92573d6000803e3d6000fd5b505050506040513d6000823e601f3d908101601f19168201604052612aba91908101906159b2565b90969095509350505050565b600080600080612ad66001612e3f565b91509150612ae3856136f1565b612c2557600080600080612af56137a4565b93509350935093506000612b07612939565b505090506000612b578b8015612b1c57508215155b8015612b435750609954620186a090612b36908590615748565b612b40919061575f565b85115b612b4e576000612b50565b845b8884613882565b9150612b9b9050612b68858a615148565b6064548390612b7f906001600160a01b03166131c0565b609754612b8c9190615148565b612b969190615148565b613abd565b909a509850604080518981526020810189905290810187905260608101869052608081018b905260a081018a905260c081018490527f656724ec88ae6e1bb9ef6d699e92c6ad47802c06dffac7423918ef6f8c8f0e6d9060e00160405180910390a1612c10612c0a878c615148565b84613aed565b9950612c1c858a615148565b98505050505050505b6098546064546040516323c1ae5960e11b815273__$8f1afe7577f9ab973017c74eca19b86f3c$__926347835cb292612c70926001600160a01b0392831692909116906004016152a8565b60006040518083038186803b158015612c8857600080fd5b505af4158015612c9c573d6000803e3d6000fd5b505050505050915091565b600054610100900460ff16612cce5760405162461bcd60e51b815260040161117e90615a0b565b612cd88383613b07565b609880546001600160a01b0319166001600160a01b038316179055612d016064620186a061575f565b6099557fe4166dfcf23bbd3e3f764a99dc8fa740554c03c82d6019b81cf265f396f6f2fe612d336064620186a061575f565b60405190815260200160405180910390a1505050565b6000806000806000612d5b6001612e3f565b91509150612d6a868284613bb0565b5091989097509095509350505050565b6000612d84613dbd565b90507f768a28cb3459382a3d2173feb2dad0235f8de680b109872da581a3aa269fe5f481604051612db59190614d5c565b60405180910390a1611128613230565b612dcd61365d565b604083018190526001600160a01b038085166020850152609854168352612df49084613e44565b6060830152612e02836131c0565b608083015280612e2c576040820151606454612e2791906001600160a01b0316613e44565b612e32565b81606001515b60a0909201919091525050565b6000808215612efc576064546000908190612e62906001600160a01b03166134f4565b9150915073__$8f1afe7577f9ab973017c74eca19b86f3c$__633643611860976064612e8d86613560565b86866040518663ffffffff1660e01b8152600401612eaf959493929190615a56565b6040805180830381865af4158015612ecb573d6000803e3d6000fd5b505050506040513d601f19601f82011682018060405250810190612eef919061581d565b9094509250612f04915050565b505060975460005b915091565b604080516001600160a01b038416602482015260448082018490528251808303909101815260649091019091526020810180516001600160e01b031663a9059cbb60e01b1790526122ba908490613ea2565b600080612f786005546001600160801b0363010000009091041690565b90506000612f85826132f2565b9050600073__$8f1afe7577f9ab973017c74eca19b86f3c$__630252e2c78787604001518860600151896000015187898c60a001516040518863ffffffff1660e01b8152600401612fdc9796959493929190615a9a565b602060405180830381865af4158015612ff9573d6000803e3d6000fd5b505050506040513d601f19601f8201168201806040525081019061301d9190615119565b9050801561308f5760006130328260006133b1565b600554909150630100000090046001600160801b031661305290856153a4565b91507faebc771af58936b05e89b0be7d3f9761480181abcd4a649fbdd01753fda169708282604051613085929190615af2565b60405180910390a1505b600073__$e930d50fb5f4f1298547dbcb2bb0591990$__63c432aee18760400151886060015189600001516130ca6130c5612784565b6128d5565b6000198d146130e8578c8c608001516130e39190615148565b6130ea565b8c5b60966040518763ffffffff1660e01b815260040161310d96959493929190615b0b565b602060405180830381865af415801561312a573d6000803e3d6000fd5b505050506040513d601f19601f8201168201806040525081019061314e9190615119565b905085608001518110156040518060400160405280601681526020017554532d32302062616c616e636520646563726561736560501b815250906131a55760405162461bcd60e51b815260040161117e9190614acd565b5060808601516131b590826153a4565b979650505050505050565b6040516370a0823160e01b81526000906001600160a01b038316906370a08231906131ef903090600401614bbb565b602060405180830381865afa15801561320c573d6000803e3d6000fd5b505050506040513d601f19601f820116820180604052508101906108d19190615119565b600061323a612939565b50506097819055919050565b6006546000906132589060ff166134d7565b156132e1576040805160028082526060820183526000926020830190803683370190505090508381600081518110613292576132926154fc565b6020026020010181815250507f59400c8c523464b521238ea8f50e923f2bc64663557e6afec92a97f7efe92d0581826040516132cf929190615b4e565b60405180910390a160009150506108d1565b6132eb8383613f74565b90506108d1565b60405163a7aced0960e01b8152600160048201526001600160801b038216602482015260609073__$e73f546b22cebb10cea6b8c699528ebeb1$__9063a7aced0990604401600060405180830381865af4158015613354573d6000803e3d6000fd5b505050506040513d6000823e601f3d908101601f191682016040526108d19190810190615370565b60006001600160e01b0319821663b7b79fa960e01b14806108d157506301ffc9a760e01b6001600160e01b03198316146108d1565b604051635b1e6c8160e11b8152600160048201526001600160801b0383166024820152811515604482015260609073__$e73f546b22cebb10cea6b8c699528ebeb1$__9063b63cd90290606401600060405180830381865af415801561341b573d6000803e3d6000fd5b505050506040513d6000823e601f3d908101601f191682016040526134439190810190615370565b9392505050565b6060600073__$e73f546b22cebb10cea6b8c699528ebeb1$__63b67626216001856040518363ffffffff1660e01b8152600401613488929190615af2565b600060405180830381865af41580156134a5573d6000803e3d6000fd5b505050506040513d6000823e601f3d908101601f191682016040526134cd9190810190615b73565b9094909350915050565b600060018260038111156134ed576134ed6153b7565b1192915050565b6060600061350061365d565b915061350c8284613e44565b90506000198114156040518060400160405280600f81526020016e53423a2057726f6e672076616c756560881b8152509061355a5760405162461bcd60e51b815260040161117e9190614acd565b50915091565b6060600061357e6005546001600160801b0363010000009091041690565b905080156135945761358f816132f2565b613443565b82516001600160401b038111156135ad576135ad6148f8565b6040519080825280602002602001820160405280156135d6578160200160208202803683370190505b509392505050565b60405163f6e2611760e01b8152600160048201526060908190819073__$e73f546b22cebb10cea6b8c699528ebeb1$__9063f6e2611790602401600060405180830381865af4158015613635573d6000803e3d6000fd5b505050506040513d6000823e601f3d908101601f191682016040526128ca9190810190615bb9565b6040805160028082526060808301845292602083019080368337505060035482519293506001600160a01b03169183915060009061369d5761369d6154fc565b6001600160a01b0392831660209182029290920101526004548251911690829060019081106136ce576136ce6154fc565b60200260200101906001600160a01b031690816001600160a01b03168152505090565b60006136fb6127b4565b156040518060400160405280601381526020017241532d31204e65656420726562616c616e636560681b815250906137465760405162461bcd60e51b815260040161117e9190614acd565b5061374f6128a8565b156040518060400160405280601481526020017341532d313420467573652069732061637469766560601b8152509061379b5760405162461bcd60e51b815260040161117e9190614acd565b50600092915050565b6000806000806000806137b5612a0a565b600354919350915073__$e73f546b22cebb10cea6b8c699528ebeb1$__906334d2ec3d906001600160a01b03166137ea612784565b85856040518563ffffffff1660e01b815260040161380b9493929190615c07565b602060405180830381865af4158015613828573d6000803e3d6000fd5b505050506040513d601f19601f8201168201806040525081019061384c9190615119565b95506138588282613f9b565b60645490935086908690613874906001600160a01b03166131c0565b955095509550505090919293565b60645460009081906001600160a01b0316818587116138a25760006138ac565b6138ac86886153a4565b90506000620186a0866097600201546138c59190615748565b6138cf919061575f565b8211905060006138de846131c0565b6001600160a01b0385166000908152609660205260409020549091506139039061403b565b8811156139f25781806139165750878110155b156139de5760655473__$8f1afe7577f9ab973017c74eca19b86f3c$__9063890ffb849086908b906001600160a01b0316613951868d615148565b6040516001600160e01b031960e087901b1681526001600160a01b03948516600482015260248101939093529216604482015260648101919091526084810184905260a4016040805180830381865af41580156139b2573d6000803e3d6000fd5b505050506040513d601f19601f820116820180604052508101906139d6919061581d565b5094506139f2565b6139ea60008989613bb0565b909850965050505b8115613ab157600080613a04866134f4565b6098549193509150600090613a24906001600160a01b0316878585614053565b9050613a2f81614308565b613a7c576000613a3e8261344a565b5090507f59400c8c523464b521238ea8f50e923f2bc64663557e6afec92a97f7efe92d058282604051613a72929190615b4e565b60405180910390a1505b6000613a86613230565b9050613aa9613a95868d615148565b8a613a9f8b6131c0565b612b8c9085615148565b9a5050505050505b50505050935093915050565b60008083831115613ad957613ad284846153a4565b9150613ae6565b613ae383856153a4565b90505b9250929050565b6000818311613afd576000613443565b61344382846153a4565b600054610100900460ff16613b2e5760405162461bcd60e51b815260040161117e90615a0b565b613b58817fd2de0374d4479f33e63ae5ed6ca772a10463dd883a90c612050b51fab6196400614354565b613b61826143aa565b604051631797527d60e01b81526064600482018190526001600160a01b0380851660248401528316604483015273__$7dde4232fad0cb3c495beb9e735b7d0c63$__91631797527d9101611d19565b60008060008060006000198814613bf457620186a0613bd16103e882615148565b613bdb898b615148565b613be59190615748565b613bef919061575f565b613bf6565b875b9050613c01816145cf565b8015801590613c0f57508515155b15613db357613c1c61486e565b606454613c34906001600160a01b0316826001612dc5565b80516020820151604051637a55caf360e01b815273__$8f1afe7577f9ab973017c74eca19b86f3c$__92637a55caf392613c70926004016152a8565b602060405180830381865af4158015613c8d573d6000803e3d6000fd5b505050506040513d601f19601f82011682018060405250810190613cb19190615119565b9450670de0b6b3a764000085613cd0613cca8585612f5b565b8b613aed565b613cda9190615748565b613ce4919061575f565b6065546020830151608084015192985073__$8f1afe7577f9ab973017c74eca19b86f3c$__92632ce30333926001600160a01b031691908b908d613d26613230565b6040516001600160e01b031960e089901b1681526001600160a01b03968716600482015295909416602486015260448501929092526064840152608483015260a482015260c4016040805180830381865af4158015613d89573d6000803e3d6000fd5b505050506040513d601f19601f82011682018060405250810190613dad919061581d565b94509250505b5093509350935093565b60606000613ddb6005546001600160801b0363010000009091041690565b90508015613df357613dee8160016133b1565b613e3e565b613dfb61365d565b516001600160401b03811115613e1357613e136148f8565b604051908082528060200260200182016040528015613e3c578160200160208202803683370190505b505b91505090565b8151600090815b81811015613e9657836001600160a01b0316858281518110613e6f57613e6f6154fc565b60200260200101516001600160a01b031603613e8e5791506108d19050565b600101613e4b565b50600019949350505050565b6000613ef7826040518060400160405280602081526020017f5361666545524332303a206c6f772d6c6576656c2063616c6c206661696c6564815250856001600160a01b03166146229092919063ffffffff16565b8051909150156122ba5780806020019051810190613f159190615781565b6122ba5760405162461bcd60e51b815260206004820152602a60248201527f5361666545524332303a204552433230206f7065726174696f6e20646964206e6044820152691bdd081cdd58d8d9595960b21b606482015260840161117e565b6000806000613f8284612e3f565b91509150613f91858284613882565b5095945050505050565b600082516000146108d15773__$e930d50fb5f4f1298547dbcb2bb0591990$__635dcb613060646097613fcc61365d565b613fd4612784565b609689896040518863ffffffff1660e01b8152600401613ffa9796959493929190615c45565b602060405180830381865af4158015614017573d6000803e3d6000fd5b505050506040513d601f19601f820116820180604052508101906134439190615119565b6000811561404957816108d1565b620186a092915050565b606061405d6127b4565b156040518060400160405280601381526020017241532d31204e65656420726562616c616e636560681b815250906140a85760405162461bcd60e51b815260040161117e9190614acd565b50600154600480546040516221c5bf60e11b81526001600160a01b0390931691830191909152600160c81b8104600290810b6024840152600160e01b8204900b6044830152600160a81b900460ff1615156064820152600090819073__$e73f546b22cebb10cea6b8c699528ebeb1$__9062438b7e906084016040805180830381865af415801561413d573d6000803e3d6000fd5b505050506040513d601f19601f82011682018060405250810190614161919061581d565b6003546004549294509092506001600160a01b039081169173__$b1ba452cecccdd06eb05ace2d0a762c7e1$__91631c2040d5918b918b918691166141a6888a615148565b6141b88a670de0b6b3a7640000615748565b6141c2919061575f565b60405160e087901b6001600160e01b03191681526001600160a01b0395861660048201526024810194909452918416604484015290921660648201526084810191909152609660a482015260c401600060405180830381865af415801561422d573d6000803e3d6000fd5b505050506040513d6000823e601f3d908101601f191682016040526142559190810190615370565b9350806001600160a01b031686600081518110614274576142746154fc565b60200260200101516001600160a01b0316146142fd578360018151811061429d5761429d6154fc565b6020026020010151846000815181106142b8576142b86154fc565b6020026020010151856000815181106142d3576142d36154fc565b60200260200101866001815181106142ed576142ed6154fc565b6020908102919091010191909152525b505050949350505050565b8051600090815b8181101561434a57838181518110614329576143296154fc565b6020026020010151600003614342575060019392505050565b60010161430f565b5060009392505050565b61435e8282614631565b6111285760405162461bcd60e51b815260206004820152601a60248201527f496e74657266616365206973206e6f7420737570706f72746564000000000000604482015260640161117e565b600054610100900460ff166143d15760405162461bcd60e51b815260040161117e90615a0b565b6001600160a01b0381166144195760405162461bcd60e51b815260206004820152600f60248201526e2d32b9379031b7b73a3937b63632b960891b604482015260640161117e565b614443817f4c2403fdcb3cff9b705d96bf0705858e3390412670a62c8bcba611ca7e20ab86614354565b60006001600160a01b0316816001600160a01b0316635aa6e6756040518163ffffffff1660e01b8152600401602060405180830381865afa15801561448c573d6000803e3d6000fd5b505050506040513d601f19601f820116820180604052508101906144b091906153ff565b6001600160a01b0316036144f85760405162461bcd60e51b815260206004820152600f60248201526e5a65726f20676f7665726e616e636560881b604482015260640161117e565b6145278161125560017f5165972ef41194f06c5007493031d0b927c20741adcb74403b954009fd2c36186153a4565b6145564261125560017f6f55f470bdc9cb5f04223fd822021061668e4dccb43e8727b295106dc9769c8b6153a4565b6145854361125560017f812a673dfca07956350df10f8a654925f561d7a0da09bdbe79e653939a14d9f16153a4565b604080516001600160a01b0383168152426020820152438183015290517f1a2dd071001ebf6e03174e3df5b305795a4ad5d41d8fdb9ba41dbbe2367134269181900360600190a150565b6145d76127b4565b156040518060400160405280601381526020017241532d31204e65656420726562616c616e636560681b815250906111285760405162461bcd60e51b815260040161117e9190614acd565b6060610c858484600085614705565b60006001600160a01b0383166146785760405162461bcd60e51b815260206004820152600c60248201526b5a65726f206164647265737360a01b604482015260640161117e565b823b600081900361468d5760009150506108d1565b6040516301ffc9a760e01b81526001600160e01b0319841660048201526001600160a01b038516906301ffc9a790602401602060405180830381865afa9250505080156146f7575060408051601f3d908101601f191682019092526146f491810190615781565b60015b1561434a5791506108d19050565b6060824710156147665760405162461bcd60e51b815260206004820152602660248201527f416464726573733a20696e73756666696369656e742062616c616e636520666f6044820152651c8818d85b1b60d21b606482015260840161117e565b600080866001600160a01b031685876040516147829190615cae565b60006040518083038185875af1925050503d80600081146147bf576040519150601f19603f3d011682016040523d82523d6000602084013e6147c4565b606091505b50915091506131b5878383876060831561483f578251600003614838576001600160a01b0385163b6148385760405162461bcd60e51b815260206004820152601d60248201527f416464726573733a2063616c6c20746f206e6f6e2d636f6e7472616374000000604482015260640161117e565b5081610c85565b610c8583838151156148545781518083602001fd5b8060405162461bcd60e51b815260040161117e9190614acd565b6040518060c0016040528060006001600160a01b0316815260200160006001600160a01b03168152602001606081526020016000815260200160008152602001600081525090565b6000602082840312156148c857600080fd5b81356001600160e01b03198116811461344357600080fd5b6001600160a01b03811681146148f557600080fd5b50565b634e487b7160e01b600052604160045260246000fd5b60405160a081016001600160401b0381118282101715614930576149306148f8565b60405290565b604051601f8201601f191681016001600160401b038111828210171561495e5761495e6148f8565b604052919050565b60006001600160401b0382111561497f5761497f6148f8565b50601f01601f191660200190565b600082601f83011261499e57600080fd5b81356149b16149ac82614966565b614936565b8181528460208386010111156149c657600080fd5b816020850160208301376000918101602001919091529392505050565b60008060008060008060c087890312156149fc57600080fd5b8635614a07816148e0565b95506020870135614a17816148e0565b94506040870135935060608701356001600160401b0380821115614a3a57600080fd5b614a468a838b0161498d565b94506080890135915080821115614a5c57600080fd5b50614a6989828a0161498d565b92505060a087013590509295509295509295565b60005b83811015614a98578181015183820152602001614a80565b50506000910152565b60008151808452614ab9816020860160208601614a7d565b601f01601f19169290920160200192915050565b6020815260006134436020830184614aa1565b60008060408385031215614af357600080fd5b8235614afe816148e0565b946020939093013593505050565b60008060008060808587031215614b2257600080fd5b8435614b2d816148e0565b93506020850135614b3d816148e0565b92506040850135915060608501356001600160401b03811115614b5f57600080fd5b614b6b8782880161498d565b91505092959194509250565b80151581146148f557600080fd5b600060208284031215614b9757600080fd5b813561344381614b77565b600060208284031215614bb457600080fd5b5035919050565b6001600160a01b0391909116815260200190565b600060208284031215614be157600080fd5b8135613443816148e0565b8060020b81146148f557600080fd5b80608081018310156108d157600080fd5b6000806000806000806000806000898b03610200811215614c2c57600080fd5b8a35614c37816148e0565b995060208b0135614c47816148e0565b985060408b0135614c57816148e0565b975060608b0135614c67816148e0565b965060808b0135614c7781614bec565b955060a08b0135614c8781614bec565b945060c08b0135614c9781614b77565b935060a060df1982011215614cab57600080fd5b50614cb461490e565b60e08b0135614cc2816148e0565b81526101008b0135614cd3816148e0565b60208201526101208b0135614ce7816148e0565b60408201526101408b013560608201526101608b013560808201529150614d128b6101808c01614bfb565b90509295985092959850929598565b600081518084526020808501945080840160005b83811015614d5157815187529582019590820190600101614d35565b509495945050505050565b6020815260006134436020830184614d21565b600081518084526020808501945080840160005b83811015614d51578151151587529582019590820190600101614d83565b6080808252855190820181905260009060209060a0840190828901845b82811015614de35781516001600160a01b031684529284019290840190600101614dbe565b5050508381038285015286518082528783019183019060005b81811015614e1b57835160020b83529284019291840191600101614dfc565b50508481036040860152614e2f8188614d21565b9250505082810360608401526131b58185614d6f565b60008060208385031215614e5857600080fd5b82356001600160401b0380821115614e6f57600080fd5b818501915085601f830112614e8357600080fd5b813581811115614e9257600080fd5b866020828501011115614ea457600080fd5b60209290920196919550909350505050565b600080600060608486031215614ecb57600080fd5b833592506020840135614edd816148e0565b929592945050506040919091013590565b60006001600160401b03821115614f0757614f076148f8565b5060051b60200190565b600082601f830112614f2257600080fd5b81356020614f326149ac83614eee565b82815260059290921b84018101918181019086841115614f5157600080fd5b8286015b84811015614f6c5780358352918301918301614f55565b509695505050505050565b60008060408385031215614f8a57600080fd5b82356001600160401b0380821115614fa157600080fd5b818501915085601f830112614fb557600080fd5b81356020614fc56149ac83614eee565b82815260059290921b84018101918181019089841115614fe457600080fd5b948201945b8386101561500b578535614ffc816148e0565b82529482019490820190614fe9565b9650508601359250508082111561502157600080fd5b5061502e85828601614f11565b9150509250929050565b6000806040838503121561504b57600080fd5b82359150602083013561505d81614b77565b809150509250929050565b60006020828403121561507a57600080fd5b81356001600160401b0381111561509057600080fd5b6124618482850161498d565b6000608082840312156150ae57600080fd5b82601f8301126150bd57600080fd5b604051608081018181106001600160401b03821117156150df576150df6148f8565b6040528060808401858111156150f457600080fd5b845b8181101561510e5780358352602092830192016150f6565b509195945050505050565b60006020828403121561512b57600080fd5b5051919050565b634e487b7160e01b600052601160045260246000fd5b808201808211156108d1576108d1615132565b8060005b6004811015611c6957815184526020938401939091019060010161515f565b60006101c089835260208084018a60005b60058110156151b55781516001600160a01b03168352918301919083019060010161518f565b505050506151c660c084018961515b565b806101408401526151d981840188614aa1565b90508281036101608401526151ee8187614aa1565b61018084019590955250506101a0015295945050505050565b600082601f83011261521857600080fd5b815160206152286149ac83614eee565b82815260059290921b8401810191818101908684111561524757600080fd5b8286015b84811015614f6c578051835291830191830161524b565b6000806040838503121561527557600080fd5b825161528081614b77565b60208401519092506001600160401b0381111561529c57600080fd5b61502e85828601615207565b6001600160a01b0392831681529116602082015260400190565b6001600160a01b039586168152602081019490945260408401929092526060830152909116608082015260a00190565b8060005b6002811015611c695781516001600160a01b03168452602093840193909101906001016152f6565b88815260208101889052610120810161533a60408301896152f2565b608082019690965260a08101949094526001600160a01b039290921660c0840152151560e0830152610100909101529392505050565b60006020828403121561538257600080fd5b81516001600160401b0381111561539857600080fd5b61246184828501615207565b818103818111156108d1576108d1615132565b634e487b7160e01b600052602160045260246000fd5b82815260408101600483106153f257634e487b7160e01b600052602160045260246000fd5b8260208301529392505050565b60006020828403121561541157600080fd5b8151613443816148e0565b878152610160810161543160208301896152f2565b8660020b60608301528560020b608083015260018060a01b03851660a083015283151560c083015260808360e084013798975050505050505050565b60006020828403121561547f57600080fd5b81516001600160401b0381111561549557600080fd5b8201601f810184136154a657600080fd5b80516154b46149ac82614966565b8181528560208385010111156154c957600080fd5b6154da826020830160208601614a7d565b95945050505050565b828152604060208201526000610c856040830184614aa1565b634e487b7160e01b600052603260045260246000fd5b600082601f83011261552357600080fd5b815160206155336149ac83614eee565b82815260059290921b8401810191818101908684111561555257600080fd5b8286015b84811015614f6c578051615569816148e0565b8352918301918301615556565b600082601f83011261558757600080fd5b815160206155976149ac83614eee565b82815260059290921b840181019181810190868411156155b657600080fd5b8286015b84811015614f6c5780516155cd81614b77565b83529183019183016155ba565b600080600080608085870312156155f057600080fd5b84516001600160401b038082111561560757600080fd5b61561388838901615512565b955060209150818701518181111561562a57600080fd5b8701601f8101891361563b57600080fd5b80516156496149ac82614eee565b81815260059190911b8201840190848101908b83111561566857600080fd5b928501925b8284101561568f57835161568081614bec565b8252928501929085019061566d565b60408b01519098509450505050808211156156a957600080fd5b6156b588838901615207565b935060608701519150808211156156cb57600080fd5b50614b6b87828801615576565b600181811c908216806156ec57607f821691505b60208210810361570c57634e487b7160e01b600052602260045260246000fd5b50919050565b83815260406020820152816040820152818360608301376000818301606090810191909152601f909201601f1916010192915050565b80820281158282048414176108d1576108d1615132565b60008261577c57634e487b7160e01b600052601260045260246000fd5b500490565b60006020828403121561579357600080fd5b815161344381614b77565b86815260c0602082015260006157b760c0830188614aa1565b82810360408401526157c98188614d21565b6001600160a01b0396871660608501529490951660808301525060a00152949350505050565b6000806040838503121561580257600080fd5b825161580d816148e0565b6020939093015192949293505050565b6000806040838503121561583057600080fd5b505080516020909101519092909150565b82815260a08101613443602083018461515b565b600081518084526020808501945080840160005b83811015614d515781516001600160a01b031687529582019590820190600101615869565b60a0815260006158a160a0830188615855565b82810360208401526158b38188614d21565b604084019690965250506001600160a01b03929092166060830152151560809091015292915050565b6000806000606084860312156158f157600080fd5b8351925060208401516001600160401b038082111561590f57600080fd5b61591b87838801615207565b9350604086015191508082111561593157600080fd5b5061593e86828701615207565b9150509250925092565b6001600160a01b038616815260a06020820181905260009061596c90830187615855565b828103604084015261597e8187615855565b905082810360608401526159928186614d21565b905082810360808401526159a68185614d21565b98975050505050505050565b600080604083850312156159c557600080fd5b82516001600160401b03808211156159dc57600080fd5b6159e886838701615512565b935060208501519150808211156159fe57600080fd5b5061502e85828601615207565b6020808252602b908201527f496e697469616c697a61626c653a20636f6e7472616374206973206e6f74206960408201526a6e697469616c697a696e6760a81b606082015260800190565b85815284602082015260a060408201526000615a7560a0830186614d21565b8281036060840152615a878186615855565b9150508260808301529695505050505050565b87815260e060208201526000615ab360e0830189615855565b604083018890526001600160a01b03871660608401528281036080840152615adb8187614d21565b60a0840195909552505060c0015295945050505050565b828152604060208201526000610c856040830184614d21565b60c081526000615b1e60c0830189615855565b6020830197909752506001600160a01b039485166040820152929093166060830152608082015260a00152919050565b604081526000615b616040830185614d21565b82810360208401526154da8185614d21565b60008060408385031215615b8657600080fd5b82516001600160401b03811115615b9c57600080fd5b615ba885828601615207565b925050602083015190509250929050565b600080600060608486031215615bce57600080fd5b83516001600160401b0380821115615be557600080fd5b615bf187838801615512565b9450602086015191508082111561590f57600080fd5b6001600160a01b03858116825284166020820152608060408201819052600090615c3390830185615855565b82810360608401526131b58185614d21565b87815286602082015260e060408201526000615c6460e0830188615855565b6001600160a01b03871660608401526080830186905282810360a0840152615c8c8186615855565b905082810360c0840152615ca08185614d21565b9a9950505050505050505050565b60008251615cc0818460208701614a7d565b919091019291505056fea2646970667358221220d677bd7dfcb2df4faefaf69808bafb73e2d24e97090360cedde5c22d69d3726664736f6c63430008110033",
  "libraries": {
    "ConverterStrategyBaseLib": "0x61F1dF339691408D284DeF72A502E446fECbD994",
    "ConverterStrategyBaseLib2": "0xdcd94dd273297F5c64DE5FdFDfe5B2079a3a4279",
    "StrategyLib2": "0xc19A300bC5f9eC67BDd2D7D8FCeC05e96766d9d1",
    "AlgebraConverterStrategyLogicLib": "0x760DDA7AC0F7A767CE893d84bb9b1615EEB101F9",
    "PairBasedStrategyLib": "0x0fD6eAFC423D4A91387752343cE78e7f4bA6BD02",
    "PairBasedStrategyLogicLib": "0x94B746c50ac5d1A40BeB3494337B0Ea43E502a3d"
  },
  "devdoc": {
    "kind": "dev",
    "methods": {
      "claim()": {
        "details": "Manual claim rewards."
      },
      "created()": {
        "returns": {
          "_0": "Creation timestamp"
        }
      },
      "createdBlock()": {
        "returns": {
          "_0": "Creation block number"
        }
      },
      "doHardWork()": {
        "returns": {
          "earned": "Earned amount in terms of {asset}",
          "lost": "Lost amount in terms of {asset}"
        }
      },
      "emergencyExit()": {
        "details": "In case of any issue operator can withdraw all from pool."
      },
      "getDefaultState()": {
        "returns": {
          "addr": "[tokenA, tokenB, pool, profitHolder]",
          "boolValues": "[isStablePool, depositorSwapTokens]",
          "nums": "[totalLiquidity, fuse-status-tokenA, fuse-status-tokenB, withdrawDone, 4 thresholds of token A, 4 thresholds of token B]",
          "tickData": "[tickSpacing, lowerTick, upperTick, rebalanceTickRange]"
        }
      },
      "getFees()": {
        "returns": {
          "fee0": "and fee1."
        }
      },
      "getPropNotUnderlying18()": {
        "returns": {
          "_0": "Proportion of the not-underlying [0...1e18]"
        }
      },
      "getSlot(uint256)": {
        "details": "Gets a slot as bytes32"
      },
      "getSpecificState()": {
        "returns": {
          "nums": "Balances of [tokenA, tokenB, rewardToken, bonusRewardToken] for profit holder"
        }
      },
      "increaseRevision(address)": {
        "details": "Revision should be increased on each contract upgrade"
      },
      "init(address,address,address,address,int24,int24,bool,(address,address,address,uint256,uint256),uint256[4])": {
        "params": {
          "controller_": "The address of the controller.",
          "converter_": "The address of the converter.",
          "pool_": "The address of the pool.",
          "rebalanceTickRange_": "The tick range for rebalancing.",
          "splitter_": "The address of the splitter.",
          "tickRange_": "The tick range for the liquidity position."
        }
      },
      "investAll(uint256,bool)": {
        "params": {
          "updateTotalAssetsBeforeInvest_": "Recalculate total assets amount before depositing.                                       It can be false if we know exactly, that the amount is already actual."
        },
        "returns": {
          "strategyLoss": "Loss should be covered from Insurance"
        }
      },
      "isController(address)": {
        "details": "Return true if given address is controller"
      },
      "isReadyToHardWork()": {
        "returns": {
          "_0": "A boolean indicating if the strategy is ready for hard work."
        }
      },
      "needRebalance()": {
        "returns": {
          "_0": "A boolean indicating if the strategy needs rebalancing."
        }
      },
      "onTransferAmounts(address[],uint256[])": {
        "params": {
          "amounts_": "Amount of {asset_} that has been sent to the user's balance",
          "assets_": "Any asset sent to the balance, i.e. inside repayTheBorrow"
        }
      },
      "performanceFee()": {
        "details": "use FEE_DENOMINATOR"
      },
      "previousImplementation()": {
        "details": "Previous logic implementation"
      },
      "rebalanceNoSwaps(bool)": {
        "params": {
          "checkNeedRebalance": "Revert if rebalance is not needed. Pass false to deposit after withdrawByAgg-iterations"
        }
      },
      "requirePayAmountBack(address,uint256)": {
        "params": {
          "amount_": "Required amount of {theAsset_}",
          "theAsset_": "Required asset (either collateral or borrow), it can be NOT underlying"
        },
        "returns": {
          "amountOut": "Amount that was send OR can be claimed on the next call.                   The caller should control own balance to know if the amount was actually send                   (because we need compatibility with exist not-NSR strategies)"
        }
      },
      "revision()": {
        "details": "Contract upgrade counter"
      },
      "setCompoundRatio(uint256)": {
        "details": "PlatformVoter can change compound ratio for some strategies.      A strategy can implement another logic for some uniq cases."
      },
      "setFuseStatus(uint256)": {
        "params": {
          "status": "See PairBasedStrategyLib.FuseStatus enum for possile values"
        }
      },
      "setFuseThresholds(uint256[4])": {
        "params": {
          "values": "Price thresholds: [LOWER_LIMIT_ON, LOWER_LIMIT_OFF, UPPER_LIMIT_ON, UPPER_LIMIT_OFF]"
        }
      },
      "setLiquidationThreshold(address,uint256)": {
        "details": "Liquidation thresholds are used to detect dust in many cases, not only in liquidation case",
        "params": {
          "amount": "Min amount of token allowed to liquidate, token's decimals are used."
        }
      },
      "setReinvestThresholdPercent(uint256)": {
        "params": {
          "percent_": "New value of the percent, decimals = {REINVEST_THRESHOLD_PERCENT_DENOMINATOR}"
        }
      },
      "setStrategySpecificName(string)": {
        "details": "The name will be used for UI."
      },
      "setWithdrawDone(uint256)": {
        "params": {
          "done": "0 - full withdraw required, 1 - full withdraw was done"
        }
      },
      "supportsInterface(bytes4)": {
        "details": "See {IERC165-supportsInterface}."
      },
      "totalAssets()": {
        "details": "Total amount of underlying assets under control of this strategy."
      },
      "withdrawAllToSplitter()": {
        "details": "Withdraws all underlying assets to the vault",
        "returns": {
          "strategyLoss": "Loss should be covered from Insurance"
        }
      },
      "withdrawByAggStep(address,address,uint256,bytes,bytes,uint256)": {
        "details": "All swap-by-agg data should be prepared using {quoteWithdrawByAgg} off-chain",
        "params": {
          "aggregator_": "Aggregator that should be used on next swap. 0 - use liquidator",
          "amountToSwap_": "Amount that should be swapped. 0 - no swap",
          "entryToPool": "Allow to enter to the pool at the end. Use false if you are going to make several iterations.                    It's possible to enter back to the pool by calling {rebalanceNoSwaps} at any moment                    0 - not allowed, 1 - allowed, 2 - allowed only if completed",
          "planEntryData": "PLAN_XXX + additional data, see IterationPlanKinds",
          "swapData": "Swap rote that was prepared off-chain.",
          "tokenToSwap_": "What token should be swapped to other"
        },
        "returns": {
          "completed": "All debts were closed, leftovers were swapped to the required proportions."
        }
      },
      "withdrawToSplitter(uint256)": {
        "details": "Withdraws some assets to the splitter",
        "returns": {
          "strategyLoss": "Loss should be covered from Insurance"
        }
      }
    },
    "version": 1
  },
  "userdoc": {
    "kind": "user",
    "methods": {
      "CONTROLLABLE_VERSION()": {
        "notice": "Version of the contract"
      },
      "capacity()": {
        "notice": "Unlimited capacity by default"
      },
      "controller()": {
        "notice": "Return controller address saved in the contract slot"
      },
      "created()": {
        "notice": "Return creation timestamp"
      },
      "createdBlock()": {
        "notice": "Return creation block number"
      },
      "doHardWork()": {
        "notice": "Do hard work with reinvesting"
      },
      "getDefaultState()": {
        "notice": "Returns the current state of the contract"
      },
      "getFees()": {
        "notice": "Returns the fees for the current state."
      },
      "getPropNotUnderlying18()": {
        "notice": "Calculate proportions of [underlying, not-underlying] required by the internal pool of the strategy"
      },
      "init(address,address,address,address,int24,int24,bool,(address,address,address,uint256,uint256),uint256[4])": {
        "notice": "Initialize the strategy with the given parameters."
      },
      "investAll(uint256,bool)": {
        "notice": "Stakes everything the strategy holds into the reward pool. amount_ Amount transferred to the strategy balance just before calling this function"
      },
      "investedAssets()": {
        "notice": "Amount of underlying assets converted to pool assets and invested to the pool."
      },
      "isGovernance(address)": {
        "notice": "Return true if given address is setup as governance in Controller"
      },
      "isReadyToHardWork()": {
        "notice": "Check if the strategy is ready for hard work."
      },
      "liquidationThresholds(address)": {
        "notice": "Minimum token amounts that can be liquidated"
      },
      "needRebalance()": {
        "notice": "Check if the strategy needs rebalancing."
      },
      "onTransferAmounts(address[],uint256[])": {
        "notice": "TetuConverter calls this function when it sends any amount to user's balance"
      },
      "performanceFee()": {
        "notice": "A percent of total profit that is sent to the {performanceReceiver} before compounding"
      },
      "performanceReceiver()": {
        "notice": "{performanceFee}% of total profit is sent to the {performanceReceiver} before compounding"
      },
      "quoteWithdrawByAgg(bytes)": {
        "notice": "Get info about a swap required by next call of {withdrawByAggStep} within the given plan"
      },
      "rebalanceNoSwaps(bool)": {
        "notice": "Rebalance using borrow/repay only, no swaps"
      },
      "requirePayAmountBack(address,uint256)": {
        "notice": "Converters asks to send some amount back.         The results depend on whether the required amount is on the balance:         1. The {amount_} exists on the balance: send the amount to TetuConverter, return {amount_}         2. The {amount_} doesn't exist on the balance. Try to receive the {amount_}.         2.1. if the required amount is received: return {amount_}         2.2. if less amount X (X < {amount_}) is received return X - gap         In the case 2 no amount is send to TetuConverter.         Converter should make second call of requirePayAmountBack({amountOut}) to receive the assets."
      },
      "setFuseStatus(uint256)": {
        "notice": "Manually set status of the fuse"
      },
      "setFuseThresholds(uint256[4])": {
        "notice": "Set thresholds for the fuse: [LOWER_LIMIT_ON, LOWER_LIMIT_OFF, UPPER_LIMIT_ON, UPPER_LIMIT_OFF]         Decimals 18. The thresholds are compared with prices from TetuConverter's price oracle.         Example: [0.9, 0.92, 1.08, 1.1]         Price falls below 0.9 - fuse is ON. Price rises back up to 0.92 - fuse is OFF.         Price raises more and reaches 1.1 - fuse is ON again. Price falls back and reaches 1.08 - fuse OFF again."
      },
      "setWithdrawDone(uint256)": {
        "notice": "Set withdrawDone value.         When a fuse was triggered ON, all debts should be closed and asset should be converted to underlying.         After completion of the conversion withdrawDone can be set to 1.         So, {getFuseStatus} will return  withdrawDone=1 and you will know, that withdraw is not required"
      },
      "setupPerformanceFee(uint256,address,uint256)": {
        "notice": "Set performance fee, receiver and ratio"
      },
      "withdrawByAggStep(address,address,uint256,bytes,bytes,uint256)": {
        "notice": "Make withdraw iteration: [exit from the pool], [make 1 swap], [repay a debt], [enter to the pool]         Typical sequence of the actions is: exit from the pool, make 1 swap, repay 1 debt.         You can enter to the pool if you are sure that you won't have borrow + repay on AAVE3 in the same block."
      }
    },
    "version": 1
  },
  "storageLayout": {
    "storage": [
      {
        "astId": 11499,
        "contract": "contracts/strategies/algebra/AlgebraConverterStrategy.sol:AlgebraConverterStrategy",
        "label": "_initialized",
        "offset": 0,
        "slot": "0",
        "type": "t_uint8"
      },
      {
        "astId": 11502,
        "contract": "contracts/strategies/algebra/AlgebraConverterStrategy.sol:AlgebraConverterStrategy",
        "label": "_initializing",
        "offset": 1,
        "slot": "0",
        "type": "t_bool"
      },
      {
        "astId": 105625,
        "contract": "contracts/strategies/algebra/AlgebraConverterStrategy.sol:AlgebraConverterStrategy",
        "label": "state",
        "offset": 0,
        "slot": "1",
        "type": "t_struct(State)102775_storage"
      },
      {
        "astId": 105632,
        "contract": "contracts/strategies/algebra/AlgebraConverterStrategy.sol:AlgebraConverterStrategy",
        "label": "__gap",
        "offset": 0,
        "slot": "65",
        "type": "t_array(t_uint256)35_storage"
      },
      {
        "astId": 16849,
        "contract": "contracts/strategies/algebra/AlgebraConverterStrategy.sol:AlgebraConverterStrategy",
        "label": "baseState",
        "offset": 0,
        "slot": "100",
        "type": "t_struct(BaseState)5446_storage"
      },
      {
        "astId": 17296,
        "contract": "contracts/strategies/algebra/AlgebraConverterStrategy.sol:AlgebraConverterStrategy",
        "label": "__gap",
        "offset": 0,
        "slot": "107",
        "type": "t_array(t_uint256)43_storage"
      },
      {
        "astId": 94149,
        "contract": "contracts/strategies/algebra/AlgebraConverterStrategy.sol:AlgebraConverterStrategy",
        "label": "liquidationThresholds",
        "offset": 0,
        "slot": "150",
        "type": "t_mapping(t_address,t_uint256)"
      },
      {
        "astId": 94153,
        "contract": "contracts/strategies/algebra/AlgebraConverterStrategy.sol:AlgebraConverterStrategy",
        "label": "_csbs",
        "offset": 0,
        "slot": "151",
        "type": "t_struct(ConverterStrategyBaseState)90096_storage"
      },
      {
        "astId": 95624,
        "contract": "contracts/strategies/algebra/AlgebraConverterStrategy.sol:AlgebraConverterStrategy",
        "label": "__gap",
        "offset": 0,
        "slot": "204",
        "type": "t_array(t_uint256)46_storage"
      }
    ],
    "types": {
      "t_address": {
        "encoding": "inplace",
        "label": "address",
        "numberOfBytes": "20"
      },
      "t_array(t_uint256)10_storage": {
        "base": "t_uint256",
        "encoding": "inplace",
        "label": "uint256[10]",
        "numberOfBytes": "320"
      },
      "t_array(t_uint256)33_storage": {
        "base": "t_uint256",
        "encoding": "inplace",
        "label": "uint256[33]",
        "numberOfBytes": "1056"
      },
      "t_array(t_uint256)35_storage": {
        "base": "t_uint256",
        "encoding": "inplace",
        "label": "uint256[35]",
        "numberOfBytes": "1120"
      },
      "t_array(t_uint256)43_storage": {
        "base": "t_uint256",
        "encoding": "inplace",
        "label": "uint256[43]",
        "numberOfBytes": "1376"
      },
      "t_array(t_uint256)46_storage": {
        "base": "t_uint256",
        "encoding": "inplace",
        "label": "uint256[46]",
        "numberOfBytes": "1472"
      },
      "t_array(t_uint256)49_storage": {
        "base": "t_uint256",
        "encoding": "inplace",
        "label": "uint256[49]",
        "numberOfBytes": "1568"
      },
      "t_array(t_uint256)4_storage": {
        "base": "t_uint256",
        "encoding": "inplace",
        "label": "uint256[4]",
        "numberOfBytes": "128"
      },
      "t_bool": {
        "encoding": "inplace",
        "label": "bool",
        "numberOfBytes": "1"
      },
      "t_contract(ITetuConverter)51397": {
        "encoding": "inplace",
        "label": "contract ITetuConverter",
        "numberOfBytes": "20"
      },
      "t_enum(FuseStatus)117473": {
        "encoding": "inplace",
        "label": "enum PairBasedStrategyLib.FuseStatus",
        "numberOfBytes": "1"
      },
      "t_int24": {
        "encoding": "inplace",
        "label": "int24",
        "numberOfBytes": "3"
      },
      "t_int256": {
        "encoding": "inplace",
        "label": "int256",
        "numberOfBytes": "32"
      },
      "t_mapping(t_address,t_uint256)": {
        "encoding": "mapping",
        "key": "t_address",
        "label": "mapping(address => uint256)",
        "numberOfBytes": "32",
        "value": "t_uint256"
      },
      "t_string_storage": {
        "encoding": "bytes",
        "label": "string",
        "numberOfBytes": "32"
      },
      "t_struct(BaseState)5446_storage": {
        "encoding": "inplace",
        "label": "struct IStrategyV3.BaseState",
        "members": [
          {
            "astId": 5427,
            "contract": "contracts/strategies/algebra/AlgebraConverterStrategy.sol:AlgebraConverterStrategy",
            "label": "asset",
            "offset": 0,
            "slot": "0",
            "type": "t_address"
          },
          {
            "astId": 5430,
            "contract": "contracts/strategies/algebra/AlgebraConverterStrategy.sol:AlgebraConverterStrategy",
            "label": "splitter",
            "offset": 0,
            "slot": "1",
            "type": "t_address"
          },
          {
            "astId": 5433,
            "contract": "contracts/strategies/algebra/AlgebraConverterStrategy.sol:AlgebraConverterStrategy",
            "label": "performanceReceiver",
            "offset": 0,
            "slot": "2",
            "type": "t_address"
          },
          {
            "astId": 5436,
            "contract": "contracts/strategies/algebra/AlgebraConverterStrategy.sol:AlgebraConverterStrategy",
            "label": "performanceFee",
            "offset": 0,
            "slot": "3",
            "type": "t_uint256"
          },
          {
            "astId": 5439,
            "contract": "contracts/strategies/algebra/AlgebraConverterStrategy.sol:AlgebraConverterStrategy",
            "label": "performanceFeeRatio",
            "offset": 0,
            "slot": "4",
            "type": "t_uint256"
          },
          {
            "astId": 5442,
            "contract": "contracts/strategies/algebra/AlgebraConverterStrategy.sol:AlgebraConverterStrategy",
            "label": "compoundRatio",
            "offset": 0,
            "slot": "5",
            "type": "t_uint256"
          },
          {
            "astId": 5445,
            "contract": "contracts/strategies/algebra/AlgebraConverterStrategy.sol:AlgebraConverterStrategy",
            "label": "strategySpecificName",
            "offset": 0,
            "slot": "6",
            "type": "t_string_storage"
          }
        ],
        "numberOfBytes": "224"
      },
      "t_struct(ConverterStrategyBaseState)90096_storage": {
        "encoding": "inplace",
        "label": "struct IConverterStrategyBase.ConverterStrategyBaseState",
        "members": [
          {
            "astId": 90078,
            "contract": "contracts/strategies/algebra/AlgebraConverterStrategy.sol:AlgebraConverterStrategy",
            "label": "investedAssets",
            "offset": 0,
            "slot": "0",
            "type": "t_uint256"
          },
          {
            "astId": 90082,
            "contract": "contracts/strategies/algebra/AlgebraConverterStrategy.sol:AlgebraConverterStrategy",
            "label": "converter",
            "offset": 0,
            "slot": "1",
            "type": "t_contract(ITetuConverter)51397"
          },
          {
            "astId": 90085,
            "contract": "contracts/strategies/algebra/AlgebraConverterStrategy.sol:AlgebraConverterStrategy",
            "label": "reinvestThresholdPercent",
            "offset": 0,
            "slot": "2",
            "type": "t_uint256"
          },
          {
            "astId": 90088,
            "contract": "contracts/strategies/algebra/AlgebraConverterStrategy.sol:AlgebraConverterStrategy",
            "label": "debtToInsurance",
            "offset": 0,
            "slot": "3",
            "type": "t_int256"
          },
          {
            "astId": 90095,
            "contract": "contracts/strategies/algebra/AlgebraConverterStrategy.sol:AlgebraConverterStrategy",
            "label": "__gap",
            "offset": 0,
            "slot": "4",
            "type": "t_array(t_uint256)49_storage"
          }
        ],
        "numberOfBytes": "1696"
      },
      "t_struct(FuseStateParams)117513_storage": {
        "encoding": "inplace",
        "label": "struct PairBasedStrategyLib.FuseStateParams",
        "members": [
          {
            "astId": 117502,
            "contract": "contracts/strategies/algebra/AlgebraConverterStrategy.sol:AlgebraConverterStrategy",
            "label": "status",
            "offset": 0,
            "slot": "0",
            "type": "t_enum(FuseStatus)117473"
          },
          {
            "astId": 117507,
            "contract": "contracts/strategies/algebra/AlgebraConverterStrategy.sol:AlgebraConverterStrategy",
            "label": "thresholds",
            "offset": 0,
            "slot": "1",
            "type": "t_array(t_uint256)4_storage"
          },
          {
            "astId": 117512,
            "contract": "contracts/strategies/algebra/AlgebraConverterStrategy.sol:AlgebraConverterStrategy",
            "label": "__gap",
            "offset": 0,
            "slot": "5",
            "type": "t_array(t_uint256)4_storage"
          }
        ],
        "numberOfBytes": "288"
      },
      "t_struct(PairState)119679_storage": {
        "encoding": "inplace",
        "label": "struct PairBasedStrategyLogicLib.PairState",
        "members": [
          {
            "astId": 119638,
            "contract": "contracts/strategies/algebra/AlgebraConverterStrategy.sol:AlgebraConverterStrategy",
            "label": "pool",
            "offset": 0,
            "slot": "0",
            "type": "t_address"
          },
          {
            "astId": 119640,
            "contract": "contracts/strategies/algebra/AlgebraConverterStrategy.sol:AlgebraConverterStrategy",
            "label": "strategyProfitHolder",
            "offset": 0,
            "slot": "1",
            "type": "t_address"
          },
          {
            "astId": 119643,
            "contract": "contracts/strategies/algebra/AlgebraConverterStrategy.sol:AlgebraConverterStrategy",
            "label": "tokenA",
            "offset": 0,
            "slot": "2",
            "type": "t_address"
          },
          {
            "astId": 119646,
            "contract": "contracts/strategies/algebra/AlgebraConverterStrategy.sol:AlgebraConverterStrategy",
            "label": "tokenB",
            "offset": 0,
            "slot": "3",
            "type": "t_address"
          },
          {
            "astId": 119648,
            "contract": "contracts/strategies/algebra/AlgebraConverterStrategy.sol:AlgebraConverterStrategy",
            "label": "isStablePool",
            "offset": 20,
            "slot": "3",
            "type": "t_bool"
          },
          {
            "astId": 119651,
            "contract": "contracts/strategies/algebra/AlgebraConverterStrategy.sol:AlgebraConverterStrategy",
            "label": "depositorSwapTokens",
            "offset": 21,
            "slot": "3",
            "type": "t_bool"
          },
          {
            "astId": 119653,
            "contract": "contracts/strategies/algebra/AlgebraConverterStrategy.sol:AlgebraConverterStrategy",
            "label": "tickSpacing",
            "offset": 22,
            "slot": "3",
            "type": "t_int24"
          },
          {
            "astId": 119655,
            "contract": "contracts/strategies/algebra/AlgebraConverterStrategy.sol:AlgebraConverterStrategy",
            "label": "lowerTick",
            "offset": 25,
            "slot": "3",
            "type": "t_int24"
          },
          {
            "astId": 119657,
            "contract": "contracts/strategies/algebra/AlgebraConverterStrategy.sol:AlgebraConverterStrategy",
            "label": "upperTick",
            "offset": 28,
            "slot": "3",
            "type": "t_int24"
          },
          {
            "astId": 119659,
            "contract": "contracts/strategies/algebra/AlgebraConverterStrategy.sol:AlgebraConverterStrategy",
            "label": "rebalanceTickRange",
            "offset": 0,
            "slot": "4",
            "type": "t_int24"
          },
          {
            "astId": 119661,
            "contract": "contracts/strategies/algebra/AlgebraConverterStrategy.sol:AlgebraConverterStrategy",
            "label": "totalLiquidity",
            "offset": 3,
            "slot": "4",
            "type": "t_uint128"
          },
          {
            "astId": 119665,
            "contract": "contracts/strategies/algebra/AlgebraConverterStrategy.sol:AlgebraConverterStrategy",
            "label": "fuseAB",
            "offset": 0,
            "slot": "5",
            "type": "t_struct(FuseStateParams)117513_storage"
          },
          {
            "astId": 119668,
            "contract": "contracts/strategies/algebra/AlgebraConverterStrategy.sol:AlgebraConverterStrategy",
            "label": "withdrawDone",
            "offset": 0,
            "slot": "14",
            "type": "t_uint256"
          },
          {
            "astId": 119671,
            "contract": "contracts/strategies/algebra/AlgebraConverterStrategy.sol:AlgebraConverterStrategy",
            "label": "lastRebalanceNoSwap",
            "offset": 0,
            "slot": "15",
            "type": "t_uint256"
          },
          {
            "astId": 119678,
            "contract": "contracts/strategies/algebra/AlgebraConverterStrategy.sol:AlgebraConverterStrategy",
            "label": "__gap",
            "offset": 0,
            "slot": "16",
            "type": "t_array(t_uint256)33_storage"
          }
        ],
        "numberOfBytes": "1568"
      },
      "t_struct(State)102775_storage": {
        "encoding": "inplace",
        "label": "struct AlgebraConverterStrategyLogicLib.State",
        "members": [
          {
            "astId": 102759,
            "contract": "contracts/strategies/algebra/AlgebraConverterStrategy.sol:AlgebraConverterStrategy",
            "label": "pair",
            "offset": 0,
            "slot": "0",
            "type": "t_struct(PairState)119679_storage"
          },
          {
            "astId": 102761,
            "contract": "contracts/strategies/algebra/AlgebraConverterStrategy.sol:AlgebraConverterStrategy",
            "label": "tokenId",
            "offset": 0,
            "slot": "49",
            "type": "t_uint256"
          },
          {
            "astId": 102763,
            "contract": "contracts/strategies/algebra/AlgebraConverterStrategy.sol:AlgebraConverterStrategy",
            "label": "rewardToken",
            "offset": 0,
            "slot": "50",
            "type": "t_address"
          },
          {
            "astId": 102765,
            "contract": "contracts/strategies/algebra/AlgebraConverterStrategy.sol:AlgebraConverterStrategy",
            "label": "bonusRewardToken",
            "offset": 0,
            "slot": "51",
            "type": "t_address"
          },
          {
            "astId": 102767,
            "contract": "contracts/strategies/algebra/AlgebraConverterStrategy.sol:AlgebraConverterStrategy",
            "label": "startTime",
            "offset": 0,
            "slot": "52",
            "type": "t_uint256"
          },
          {
            "astId": 102769,
            "contract": "contracts/strategies/algebra/AlgebraConverterStrategy.sol:AlgebraConverterStrategy",
            "label": "endTime",
            "offset": 0,
            "slot": "53",
            "type": "t_uint256"
          },
          {
            "astId": 102774,
            "contract": "contracts/strategies/algebra/AlgebraConverterStrategy.sol:AlgebraConverterStrategy",
            "label": "__gap",
            "offset": 0,
            "slot": "54",
            "type": "t_array(t_uint256)10_storage"
          }
        ],
        "numberOfBytes": "2048"
      },
      "t_uint128": {
        "encoding": "inplace",
        "label": "uint128",
        "numberOfBytes": "16"
      },
      "t_uint256": {
        "encoding": "inplace",
        "label": "uint256",
        "numberOfBytes": "32"
      },
      "t_uint8": {
        "encoding": "inplace",
        "label": "uint8",
        "numberOfBytes": "1"
      }
    }
  }
}