{
  "address": "0x760DDA7AC0F7A767CE893d84bb9b1615EEB101F9",
  "abi": [
    {
      "anonymous": false,
      "inputs": [
        {
          "indexed": false,
          "internalType": "uint256",
          "name": "fee0",
          "type": "uint256"
        },
        {
          "indexed": false,
          "internalType": "uint256",
          "name": "fee1",
          "type": "uint256"
        }
      ],
      "name": "AlgebraFeesClaimed",
      "type": "event"
    },
    {
      "anonymous": false,
      "inputs": [
        {
          "indexed": false,
          "internalType": "uint256",
          "name": "reward",
          "type": "uint256"
        },
        {
          "indexed": false,
          "internalType": "uint256",
          "name": "bonusReward",
          "type": "uint256"
        }
      ],
      "name": "AlgebraRewardsClaimed",
      "type": "event"
    },
    {
      "anonymous": false,
      "inputs": [
        {
          "indexed": false,
          "internalType": "uint256",
          "name": "loss",
          "type": "uint256"
        },
        {
          "indexed": false,
          "internalType": "uint256",
          "name": "coveredByRewards",
          "type": "uint256"
        }
      ],
      "name": "CoverLoss",
      "type": "event"
    },
    {
      "anonymous": false,
      "inputs": [
        {
          "indexed": false,
          "internalType": "uint256",
          "name": "loss",
          "type": "uint256"
        },
        {
          "indexed": false,
          "internalType": "uint256",
          "name": "profitToCover",
          "type": "uint256"
        },
        {
          "indexed": false,
          "internalType": "uint256",
          "name": "coveredByRewards",
          "type": "uint256"
        }
      ],
      "name": "Rebalanced",
      "type": "event"
    },
    {
      "anonymous": false,
      "inputs": [
        {
          "indexed": false,
          "internalType": "uint256",
          "name": "loss",
          "type": "uint256"
        },
        {
          "indexed": false,
          "internalType": "uint256",
          "name": "profitToCover",
          "type": "uint256"
        },
        {
          "indexed": false,
          "internalType": "uint256",
          "name": "coveredByRewards",
          "type": "uint256"
        }
      ],
      "name": "RebalancedDebt",
      "type": "event"
    },
    {
      "inputs": [
        {
          "internalType": "address",
          "name": "asset",
          "type": "address"
        },
        {
          "internalType": "address",
          "name": "controller",
          "type": "address"
        },
        {
          "internalType": "address[]",
          "name": "rewardTokens",
          "type": "address[]"
        },
        {
          "internalType": "uint256[]",
          "name": "amounts",
          "type": "uint256[]"
        }
      ],
      "name": "calcEarned",
      "outputs": [
        {
          "internalType": "uint256",
          "name": "",
          "type": "uint256"
        }
      ],
      "stateMutability": "view",
      "type": "function"
    },
    {
      "inputs": [
        {
          "internalType": "contract IAlgebraPool",
          "name": "pool",
          "type": "IAlgebraPool"
        },
        {
          "internalType": "int24",
          "name": "lowerTick",
          "type": "int24"
        },
        {
          "internalType": "int24",
          "name": "upperTick",
          "type": "int24"
        },
        {
          "internalType": "bool",
          "name": "depositorSwapTokens",
          "type": "bool"
        }
      ],
      "name": "getEntryDataProportions",
      "outputs": [
        {
          "internalType": "uint256",
          "name": "",
          "type": "uint256"
        },
        {
          "internalType": "uint256",
          "name": "",
          "type": "uint256"
        }
      ],
      "stateMutability": "view",
      "type": "function"
    }
  ],
  "transactionHash": "0xbc284690178db0614d9526e51dd2305f7926fbe48f0cc14055b91d6f06c75b35",
  "args": [],
  "numDeployments": 12,
  "solcInputHash": "e76158ae9a22536febb5003c96af34b3",
  "bytecode": "0x615a6b6200003b600b82828239805160001a60731461002e57634e487b7160e01b600052600060045260246000fd5b30600052607381538281f3fe73000000000000000000000000000000000000000030146080604052600436106101095760003560e01c8063a7aced09116100a1578063bd85be2911610070578063bd85be2914610296578063c3724a89146102b6578063d1585fc4146102d6578063f6e26117146102e957600080fd5b8063a7aced0914610215578063b63cd90214610228578063b676262114610248578063b6fda8131461027657600080fd5b806334d2ec3d116100dd57806334d2ec3d146101915780637269cb3a146101a45780638fb5468e146101c7578063911ec053146101e757600080fd5b8062438b7e1461010e57806328f0aec41461013b5780632cc58ef91461015c5780632df3c9a91461016f575b600080fd5b61012161011c36600461463d565b610318565b604080519283526020830191909152015b60405180910390f35b61014e610149366004614699565b610334565b604051908152602001610132565b61012161016a366004614699565b61042b565b81801561017b57600080fd5b5061018f61018a3660046146d4565b6104d3565b005b61014e61019f366004614834565b610bb9565b6101b76101b236600461491d565b610d61565b6040519015158152602001610132565b6101da6101d5366004614699565b611018565b6040516101329190614988565b8180156101f357600080fd5b50610207610202366004614a14565b611222565b604051610132929190614ac3565b6101da610223366004614af3565b61146a565b81801561023457600080fd5b506101da610243366004614b18565b611686565b81801561025457600080fd5b50610268610263366004614b5a565b611d3d565b604051610132929190614ba1565b81801561028257600080fd5b506101da610291366004614bc3565b612541565b6102a96102a4366004614699565b612a1d565b6040516101329190614c8f565b8180156102c257600080fd5b5061018f6102d1366004614ca2565b612b35565b6101b76102e4366004614cda565b612bac565b8180156102f557600080fd5b50610309610304366004614699565b613280565b60405161013293929190614d11565b60008061032786868686613975565b9150915094509492505050565b805460038201546000916001600160a01b03169060ff600160a81b8204169083908190610383908590600160c81b8104600290810b91600160e01b8104820b91600160b01b909104900b613c60565b9150915060008061039686858588613975565b909250905060006103a78284614d9c565b116040518060400160405280601081526020016f54532d3234207a65726f2076616c756560801b815250906103f85760405162461bcd60e51b81526004016103ef9190614c8f565b60405180910390fd5b506104038183614d9c565b61041582670de0b6b3a7640000614daf565b61041f9190614ddc565b98975050505050505050565b805460318201546040516308aaf22f60e31b8152600092839273F553b1372610a3415BA5C2937d8F4c45fe6EB50992634557917892610489926001600160a01b03909116916000805160206159d58339815191529190600401614df0565b6040805180830381865af41580156104a5573d6000803e3d6000fd5b505050506040513d601f19601f820116820180604052508101906104c99190614e14565b9094909350915050565b60006104e56040880160208901614e4e565b6001600160a01b031614156040518060400160405280601181526020017054532d31207a65726f206164647265737360781b815250906105385760405162461bcd60e51b81526004016103ef9190614c8f565b50600061054b6040880160208901614e4e565b6001600160a01b0316630dfe16816040518163ffffffff1660e01b8152600401602060405180830381865afa158015610588573d6000803e3d6000fd5b505050506040513d601f19601f820116820180604052508101906105ac9190614e7b565b905060006105c06040890160208a01614e4e565b6001600160a01b031663d21220a76040518163ffffffff1660e01b8152600401602060405180830381865afa1580156105fd573d6000803e3d6000fd5b505050506040513d601f19601f820116820180604052508101906106219190614e7b565b905061062b614539565b600073F553b1372610a3415BA5C2937d8F4c45fe6EB50963d0c93a7c6040518163ffffffff1660e01b8152600401602060405180830381865af4158015610676573d6000803e3d6000fd5b505050506040513d601f19601f8201168201806040525081019061069a9190614ea3565b90508860020b60001461076a57806106b2818b614ec0565b6106bc9190614efa565b60020b8960020b146040518060400160405280601881526020017741532d3320496e636f7272656374207469636b52616e676560401b815250906107135760405162461bcd60e51b81526004016103ef9190614c8f565b508061071f818a614ec0565b6107299190614efa565b60020b8860020b14604051806060016040528060218152602001615a1560219139906107685760405162461bcd60e51b81526004016103ef9190614c8f565b505b600281900b825273027f8EA87Cd1B182573E4390d39CBd55Dd7118D46358817a9861079b60408d0160208e01614e4e565b6040516001600160e01b031960e084901b1681526001600160a01b03909116600482015260028c810b602483015284900b60448201526064016040805180830381865af41580156107f0573d6000803e3d6000fd5b505050506040513d601f19601f820116820180604052508101906108149190614f1a565b836001602002018460028093840b602091909102919091015291900b90528782600360029290920b602090920201525060408051608081019091527394B746c50ac5d1A40BeB3494337B0Ea43E502a3d9063b8b4a449908c90808d60016020020160208101906108849190614e4e565b6001600160a01b03166001600160a01b031681526020018a6001600160a01b03166001600160a01b03168152602001876001600160a01b03166001600160a01b03168152602001866001600160a01b03166001600160a01b03168152508489896040518663ffffffff1660e01b8152600401610904959493929190614f52565b60006040518083038186803b15801561091c57600080fd5b505af4158015610930573d6000803e3d6000fd5b5050505060008960006002811061094957610949614e38565b60200201602081019061095c9190614e4e565b6001600160a01b0316634046ebae6040518163ffffffff1660e01b8152600401602060405180830381865afa158015610999573d6000803e3d6000fd5b505050506040513d601f19601f820116820180604052508101906109bd9190614e7b565b60405163095ea7b360e01b81529091506001600160a01b0385169063095ea7b3906109f090849060001990600401614fcf565b6020604051808303816000875af1158015610a0f573d6000803e3d6000fd5b505050506040513d601f19601f82011682018060405250810190610a339190614fe8565b5060405163095ea7b360e01b81526001600160a01b0384169063095ea7b390610a6490849060001990600401614fcf565b6020604051808303816000875af1158015610a83573d6000803e3d6000fd5b505050506040513d601f19601f82011682018060405250810190610aa79190614fe8565b5060405163095ea7b360e01b81526001600160a01b0385169063095ea7b390610ae6906000805160206159d58339815191529060001990600401614fcf565b6020604051808303816000875af1158015610b05573d6000803e3d6000fd5b505050506040513d601f19601f82011682018060405250810190610b299190614fe8565b5060405163095ea7b360e01b81526001600160a01b0384169063095ea7b390610b68906000805160206159d58339815191529060001990600401614fcf565b6020604051808303816000875af1158015610b87573d6000803e3d6000fd5b505050506040513d601f19601f82011682018060405250810190610bab9190614fe8565b505050505050505050505050565b600080846001600160a01b0316634046ebae6040518163ffffffff1660e01b8152600401602060405180830381865afa158015610bfa573d6000803e3d6000fd5b505050506040513d601f19601f82011682018060405250810190610c1e9190614e7b565b84519091506000805b82811015610d53576000878281518110610c4357610c43614e38565b60200260200101519050896001600160a01b0316816001600160a01b031603610c9257868281518110610c7857610c78614e38565b602002602001015183610c8b9190614d9c565b9250610d42565b846001600160a01b031663a9dd14d6898481518110610cb357610cb3614e38565b60200260200101518c8a8681518110610cce57610cce614e38565b60200260200101516040518463ffffffff1660e01b8152600401610cf493929190614df0565b602060405180830381865afa158015610d11573d6000803e3d6000fd5b505050506040513d601f19601f82011682018060405250810190610d359190615005565b610d3f9084614d9c565b92505b50610d4c8161501e565b9050610c27565b50925050505b949350505050565b815460028301546040805163313ce56760e01b815290516000936001600160a01b03908116938593730fD6eAFC423D4A91387752343cE78e7f4bA6BD029363556ce728939092169163313ce567916004808201926020929091908290030181865afa158015610dd4573d6000803e3d6000fd5b505050506040513d601f19601f82011682018060405250810190610df89190615048565b6040516001600160e01b031960e084901b16815260ff9091166004820152602401602060405180830381865af4158015610e36573d6000803e3d6000fd5b505050506040513d601f19601f82011682018060405250810190610e5a9190615005565b6003860154604051635620c32d60e11b81526001600160a01b0380861660048301529091166024820152909150600090829073F553b1372610a3415BA5C2937d8F4c45fe6EB5099063ac41865a90604401602060405180830381865af4158015610ec8573d6000803e3d6000fd5b505050506040513d601f19601f82011682018060405250810190610eec9190615005565b610ef69190614daf565b90507394B746c50ac5d1A40BeB3494337B0Ea43E502a3d6351265e89878773027f8EA87Cd1B182573E4390d39CBd55Dd7118D463ecc89419886040518263ffffffff1660e01b8152600401610f4b9190615063565b602060405180830381865af4158015610f68573d6000803e3d6000fd5b505050506040513d601f19601f82011682018060405250810190610f8c9190614ea3565b6040516001600160e01b031960e086901b16815260048101939093526001600160a01b03909116602483015260020b604482015260648101849052608401606060405180830381865af4158015610fe7573d6000803e3d6000fd5b505050506040513d601f19601f8201168201806040525081019061100b9190615077565b5090979650505050505050565b604080516002808252606080830184529260208301908036833750508354604080516339db007960e21b815290519394506000936001600160a01b03909216925063e76c01e49160048083019260e09291908290030181865afa158015611083573d6000803e3d6000fd5b505050506040513d601f19601f820116820180604052508101906110a791906150cf565b505050506003860154600480880154604051630544f36560e31b815295965073F553b1372610a3415BA5C2937d8F4c45fe6EB50995632a279b28955061111994508793600160c81b8104600290810b94600160e01b909204900b92630100000090046001600160801b0316910161515e565b6040805180830381865af4158015611135573d6000803e3d6000fd5b505050506040513d601f19601f820116820180604052508101906111599190614e14565b8360008151811061116c5761116c614e38565b602002602001018460018151811061118657611186614e38565b6020908102919091010191909152526003830154600160a81b900460ff161561121c57816001815181106111bc576111bc614e38565b6020026020010151826000815181106111d7576111d7614e38565b6020026020010151836000815181106111f2576111f2614e38565b602002602001018460018151811061120c5761120c614e38565b6020908102919091010191909152525b50919050565b60408051808201825260028401546001600160a01b0390811682526003850154166020820152905163bd13c52960e01b8152600091606091829084907394B746c50ac5d1A40BeB3494337B0Ea43E502a3d9063bd13c52990611292908e908e908e908e908a908e90600401615191565b600060405180830381865af41580156112af573d6000803e3d6000fd5b505050506040513d6000823e601f3d908101601f191682016040526112d791908101906152a3565b91965092509050801561137a5773dcd94dd273297F5c64DE5FdFDfe5B2079a3a42796326eadaa38d8d60046020020160208101906113159190614e4e565b6040516001600160e01b031960e085901b16815260048101929092526001600160a01b031660248201526044810184905260640160006040518083038186803b15801561136157600080fd5b505af4158015611375573d6000803e3d6000fd5b505050505b6040805182815260208c8101359082015260008183015290517f3715d08a7dcc9d792a5a426f62429b9f889a7b140004f9f85190a48485695cf19181900360600190a160608a0135600114806113dc575060608a013560021480156113dc5750845b1561145b578654600388015461141c916001600160a01b031690600160c81b8104600290810b91600160e01b8104820b91600160b01b909104900b613c60565b60038901805465ffffffffffff60c81b1916600160e01b62ffffff9384160262ffffff60c81b191617600160c81b939092169290920217905590925082905b50505097509795505050505050565b606060008360000160009054906101000a90046001600160a01b03166001600160a01b031663e76c01e46040518163ffffffff1660e01b815260040160e060405180830381865afa1580156114c3573d6000803e3d6000fd5b505050506040513d601f19601f820116820180604052508101906114e791906150cf565b50949550600294506114f99350505050565b604051908082528060200260200182016040528015611522578160200160208202803683370190505b506003850154604051630544f36560e31b815291935073F553b1372610a3415BA5C2937d8F4c45fe6EB50991632a279b289161157c918591600160c81b8104600290810b92600160e01b909204900b90899060040161515e565b6040805180830381865af4158015611598573d6000803e3d6000fd5b505050506040513d601f19601f820116820180604052508101906115bc9190614e14565b836000815181106115cf576115cf614e38565b60200260200101846001815181106115e9576115e9614e38565b6020908102919091010191909152526003840154600160a81b900460ff161561167f578160018151811061161f5761161f614e38565b60200260200101518260008151811061163a5761163a614e38565b60200260200101518360008151811061165557611655614e38565b602002602001018460018151811061166f5761166f614e38565b6020908102919091010191909152525b5092915050565b6040805160808101825260008082526020820181905281830181905260608083019190915282516002808252818301909452909281602001602082028036833750505060018601546001600160a01b03168252915060006116e686613c8a565b60048701546001600160801b0363010000009091048116602080860182905260408051808201909152601481527341532d372057726f6e67206c697175696469747960601b9181019190915292935090871611156117575760405162461bcd60e51b81526004016103ef9190614c8f565b506031860154846117775761176c8282613d00565b606085015260408401525b6000805160206159f58339815191526334267cbc61179489613c8a565b896031015460006040518463ffffffff1660e01b81526004016117b99392919061533a565b600060405180830381600087803b1580156117d357600080fd5b505af11580156117e7573d6000803e3d6000fd5b505050508461183357603287015483516040850151611810926001600160a01b03169190613d84565b50603387015483516060850151611831926001600160a01b03169190613d84565b505b604051633c423f0b60e01b81526004810182905230602482015260606044820152600060648201526000805160206159f583398151915290633c423f0b90608401600060405180830381600087803b15801561188e57600080fd5b505af11580156118a2573d6000803e3d6000fd5b50506040805160a0810182528481526001600160801b038a81166020830190815260008385018181526060850191825242608086019081529551630624e65f60e11b81529451600486015291519092166024840152516044830152516064820152905160848201526000805160206159d58339815191529250630c49ccbe915060a40160408051808303816000875af1158015611943573d6000803e3d6000fd5b505050506040513d601f19601f820116820180604052508101906119679190614e14565b8560008151811061197a5761197a614e38565b602002602001018660018151811061199457611994614e38565b602090810291909101810192909252919091526040805160808101825283815230928101929092526001600160801b0382820181905260608301525163fc6f786560e01b815260009182916000805160206159d58339815191529163fc6f786591611a02919060040161535e565b60408051808303816000875af1158015611a20573d6000803e3d6000fd5b505050506040513d601f19601f82011682018060405250810190611a449190614e14565b91509150600086600081518110611a5d57611a5d614e38565b60200260200101518311611a72576000611a98565b86600081518110611a8557611a85614e38565b602002602001015183611a9891906153a1565b9050600087600181518110611aaf57611aaf614e38565b60200260200101518311611ac4576000611aea565b87600181518110611ad757611ad7614e38565b602002602001015183611aea91906153a1565b60408051848152602081018390529192507f15097721483fb2e62f76b9953e3601b26e7cc79208a0191df6fa701c6148744d910160405180910390a160038b0154600160a81b900460ff1615611bae5787600181518110611b4d57611b4d614e38565b602002602001015188600081518110611b6857611b68614e38565b602002602001015189600081518110611b8357611b83614e38565b602002602001018a600181518110611b9d57611b9d614e38565b602090810291909101019190915252905b8115611bd157865160028c0154611bd1916001600160a01b039091169084613ebe565b8015611bf457865160038c0154611bf4916001600160a01b039091169083613ebe565b505050508583602001818151611c0a91906153b4565b6001600160801b03908116909152602085015160048a01805472ffffffffffffffffffffffffffffffff000000191663010000009290931691820292909217909155159050611d3357604051632142170760e11b81526000805160206159d5833981519152906342842e0e90611c969030906000805160206159f5833981519152908690600401614df0565b600060405180830381600087803b158015611cb057600080fd5b505af1158015611cc4573d6000803e3d6000fd5b5050604051631143967160e11b81526000805160206159f583398151915292506322872ce29150611d00908590859060009081906004016153d4565b600060405180830381600087803b158015611d1a57600080fd5b505af1158015611d2e573d6000803e3d6000fd5b505050505b5050509392505050565b6040805160a081018252600384015460ff600160a81b8204161515808352600060208401819052603187015494840194909452600160c81b8204600290810b606085810191909152600160e01b909304900b60808401529092919082908190611dbc57600287015460038801546001600160a01b039182169116611dd4565b600387015460028801546001600160a01b0391821691165b8451919350915015611e535785600181518110611df357611df3614e38565b602002602001015186600081518110611e0e57611e0e614e38565b602002602001015187600081518110611e2957611e29614e38565b6020026020010188600181518110611e4357611e43614e38565b6020908102919091010191909152525b6040805160028082526060820183529091602083019080368337505050604084015190955015611f9c57604083810151905163133f757160e31b8152600481019190915260009081906000805160206159d5833981519152906399fbab889060240161016060405180830381865afa158015611ed3573d6000803e3d6000fd5b505050506040513d601f19601f82011682018060405250810190611ef7919061540b565b50505050509550955050505050846060015160020b8260020b141580611f275750846080015160020b8160020b14155b15611f99576040858101519051630852cd8d60e31b815260048101919091526000805160206159d5833981519152906342966c6890602401600060405180830381600087803b158015611f7957600080fd5b505af1158015611f8d573d6000803e3d6000fd5b50506000604088015250505b50505b6000611fa788613c8a565b905083604001516000036121b0576000805160206159d58339815191526001600160a01b0316639cc1a283604051806101400160405280866001600160a01b03168152602001856001600160a01b03168152602001876060015160020b8152602001876080015160020b81526020018a60008151811061202957612029614e38565b602002602001015181526020018a60018151811061204957612049614e38565b602002602001015181526020016000815260200160008152602001306001600160a01b03168152602001428152506040518263ffffffff1660e01b815260040161209391906154e2565b6080604051808303816000875af11580156120b2573d6000803e3d6000fd5b505050506040513d601f19601f820116820180604052508101906120d6919061558d565b87604001886020018b6000815181106120f1576120f1614e38565b602002602001018c60018151811061210b5761210b614e38565b6020908102919091010193909352929091526001600160801b0390921690525260408085015160318a018190559051632142170760e11b81526000805160206159d5833981519152916342842e0e916121799130916000805160206159f58339815191529190600401614df0565b600060405180830381600087803b15801561219357600080fd5b505af11580156121a7573d6000803e3d6000fd5b5050505061246c565b6000805160206159d58339815191526001600160a01b031663219f5d176040518060c00160405280876040015181526020018a6000815181106121f5576121f5614e38565b602002602001015181526020018a60018151811061221557612215614e38565b602002602001015181526020016000815260200160008152602001428152506040518263ffffffff1660e01b815260040161228f9190600060c082019050825182526020830151602083015260408301516040830152606083015160608301526080830151608083015260a083015160a083015292915050565b6060604051808303816000875af11580156122ae573d6000803e3d6000fd5b505050506040513d601f19601f820116820180604052508101906122d291906155cb565b86602001896000815181106122e9576122e9614e38565b602002602001018a60018151811061230357612303614e38565b60209081029190910101929092529190526001600160801b03918216905260048901546301000000900416156123f257600080612344838760400151613d00565b6040808901519051630d099f2f60e21b81529294509092506000805160206159f5833981519152916334267cbc916123849187919060009060040161533a565b600060405180830381600087803b15801561239e57600080fd5b505af11580156123b2573d6000803e3d6000fd5b50505060018b015460328c01546001600160a01b0391821692506123d891168285613d84565b5060338b01546121a7906001600160a01b03168284613d84565b6040808501519051632142170760e11b81526000805160206159d5833981519152916342842e0e916124399130916000805160206159f58339815191529190600401614df0565b600060405180830381600087803b15801561245357600080fd5b505af1158015612467573d6000803e3d6000fd5b505050505b6040808501519051631143967160e11b81526000805160206159f5833981519152916322872ce2916124a791859160009081906004016153d4565b600060405180830381600087803b1580156124c157600080fd5b505af11580156124d5573d6000803e3d6000fd5b505050506020840151600489018054600390612502908490630100000090046001600160801b0316615602565b92506101000a8154816001600160801b0302191690836001600160801b0316021790555083602001516001600160801b03169450505050509250929050565b606061254b614557565b6125638161255c60208b018b614e4e565b8b86613f19565b61014081015160408083015160038c01549151635620c32d60e11b81526001600160a01b0391821660048201529116602482015273F553b1372610a3415BA5C2937d8F4c45fe6EB5099063ac41865a90604401602060405180830381865af41580156125d3573d6000803e3d6000fd5b505050506040513d601f19601f820116820180604052508101906125f79190615005565b6126019190614daf565b610120820152604080820151905163ecc8941960e01b8152600091829173027f8EA87Cd1B182573E4390d39CBd55Dd7118D49163ecc89419916126479190600401615063565b602060405180830381865af4158015612664573d6000803e3d6000fd5b505050506040513d601f19601f820116820180604052508101906126889190614ea3565b60208401516101208501516040516351265e8960e01b8152600481018f90526001600160a01b039092166024830152600283900b604483015260648201529091507394B746c50ac5d1A40BeB3494337B0Ea43E502a3d906351265e8990608401606060405180830381865af4158015612705573d6000803e3d6000fd5b505050506040513d601f19601f820116820180604052508101906127299190615077565b8560e001866101000182600381111561274457612744615622565b600381111561275557612755615622565b905291151590915250915081156127db577394B746c50ac5d1A40BeB3494337B0Ea43E502a3d634aa009158c8560e001518661010001516040518463ffffffff1660e01b81526004016127aa93929190615638565b60006040518083038186803b1580156127c257600080fd5b505af41580156127d6573d6000803e3d6000fd5b505050505b8515806127e55750815b604051806040016040528060188152602001771054cb4e48139bc81c9958985b185b98d9481b995959195960421b815250906128345760405162461bcd60e51b81526004016103ef9190614c8f565b508115612a0e5773027f8EA87Cd1B182573E4390d39CBd55Dd7118D463e4ee4bf78b8d8b8d8c8960c00151886040518863ffffffff1660e01b8152600401612882979695949392919061569c565b60006040518083038186803b15801561289a57600080fd5b505af41580156128ae573d6000803e3d6000fd5b50505050600073dcd94dd273297F5c64DE5FdFDfe5B2079a3a427963ac2a37d685602001518c876060015188608001518960c001516040518663ffffffff1660e01b8152600401612903959493929190615722565b600060405180830381865af4158015612920573d6000803e3d6000fd5b505050506040513d6000823e601f3d908101601f191682016040526129489190810190615756565b9550905080156129cc576040516326eadaa360e01b8152600481018e90526001600160a01b03891660248201526044810182905273dcd94dd273297F5c64DE5FdFDfe5B2079a3a4279906326eadaa39060640160006040518083038186803b1580156129b357600080fd5b505af41580156129c7573d6000803e3d6000fd5b505050505b60408051828152602081018b905260008183015290517f83387a3342ff1ebc5e437dc9ae0f98274afda12a11cf547eebec05a3e0b8f8a79181900360600190a1505b50505098975050505050505050565b6002810154604080516395d89b4160e01b815290516060926001600160a01b0316916395d89b419160048083019260009291908290030181865afa158015612a69573d6000803e3d6000fd5b505050506040513d6000823e601f3d908101601f19168201604052612a919190810190615793565b8260030160009054906101000a90046001600160a01b03166001600160a01b03166395d89b416040518163ffffffff1660e01b8152600401600060405180830381865afa158015612ae6573d6000803e3d6000fd5b505050506040513d6000823e601f3d908101601f19168201604052612b0e9190810190615793565b604051602001612b1f92919061580a565b6040516020818303038152906040529050919050565b612b426020820182614e4e565b6032830180546001600160a01b0319166001600160a01b0392909216919091179055612b746040820160208301614e4e565b6033830180546001600160a01b0319166001600160a01b03929092169190911790556060810135603483015560800135603590910155565b6040805160c0810182526000918101829052606081018290526080810182905260a0810182905260028501546001600160a01b03908116825260038601548116602083015260018601546004870154911690630100000090046001600160801b031615612f9157603286015460338701546001600160a01b0391821691166000612c3589613c8a565b90506000806000805160206159f58339815191526001600160a01b031663de2356d16040518163ffffffff1660e01b8152600401602060405180830381865afa158015612c86573d6000803e3d6000fd5b505050506040513d601f19601f82011682018060405250810190612caa9190614e7b565b6001600160a01b031663704972f4848d603101546040518363ffffffff1660e01b8152600401612cdb92919061585a565b6040805180830381865afa158015612cf7573d6000803e3d6000fd5b505050506040513d601f19601f82011682018060405250810190612d1b9190614e14565b6040516370a0823160e01b815291935091506001600160a01b038616906370a0823190612d4c908990600401615063565b602060405180830381865afa158015612d69573d6000803e3d6000fd5b505050506040513d601f19601f82011682018060405250810190612d8d9190615005565b612d979083614d9c565b6040516370a0823160e01b81529092506001600160a01b038516906370a0823190612dc6908990600401615063565b602060405180830381865afa158015612de3573d6000803e3d6000fd5b505050506040513d601f19601f82011682018060405250810190612e079190615005565b612e119082614d9c565b90506000896001600160a01b0316634046ebae6040518163ffffffff1660e01b8152600401602060405180830381865afa158015612e53573d6000803e3d6000fd5b505050506040513d601f19601f82011682018060405250810190612e779190614e7b565b90508215612ef65787516040516354ee8a6b60e11b81526001600160a01b0383169163a9dd14d691612eaf918a918890600401614df0565b602060405180830381865afa158015612ecc573d6000803e3d6000fd5b505050506040513d601f19601f82011682018060405250810190612ef09190615005565b60408901525b606088015115612f775787516040516354ee8a6b60e11b81526001600160a01b0383169163a9dd14d691612f309189918790600401614df0565b602060405180830381865afa158015612f4d573d6000803e3d6000fd5b505050506040513d601f19601f82011682018060405250810190612f719190615005565b60608901525b612f808c61042b565b60a08a015260808901525050505050505b6003860154600160a81b900460ff1615612fb75760a08201805160808401805190925290525b81516040516370a0823160e01b81526001600160a01b03909116906370a0823190612fe6908490600401615063565b602060405180830381865afa158015613003573d6000803e3d6000fd5b505050506040513d601f19601f820116820180604052508101906130279190615005565b826080018181516130389190614d9c565b90525060208201516040516370a0823160e01b81526001600160a01b03909116906370a082319061306d908490600401615063565b602060405180830381865afa15801561308a573d6000803e3d6000fd5b505050506040513d601f19601f820116820180604052508101906130ae9190615005565b8260a0018181516130bf9190614d9c565b90525060006130cd86614110565b835160405163b3596f0760e01b81529192506000916001600160a01b0384169163b3596f07916131009190600401615063565b602060405180830381865afa15801561311d573d6000803e3d6000fd5b505050506040513d601f19601f820116820180604052508101906131419190615005565b90506000826001600160a01b031663b3596f0786602001516040518263ffffffff1660e01b81526004016131759190615063565b602060405180830381865afa158015613192573d6000803e3d6000fd5b505050506040513d601f19601f820116820180604052508101906131b69190615005565b90506000670de0b6b3a76400008387608001516131d39190614daf565b6131dd9190614ddc565b90506000670de0b6b3a7640000838860a001516131fa9190614daf565b6132049190614ddc565b905060648211806132155750606481115b8061324257506064670de0b6b3a76400008589604001516132369190614daf565b6132409190614ddc565b115b8061326f57506064670de0b6b3a76400008589606001516132639190614daf565b61326d9190614ddc565b115b9750505050505050505b9392505050565b6001810154603182015460408051600480825260a08201909252606093849384936001600160a01b0390921692909160208201608080368337505050600287015481519196506001600160a01b03169086906000906132e1576132e1614e38565b6001600160a01b039283166020918202929092010152600387015486519116908690600190811061331457613314614e38565b6001600160a01b039283166020918202929092010152603287015486519116908690600290811061334757613347614e38565b6001600160a01b039283166020918202929092010152603387015486519116908690600390811061337a5761337a614e38565b6001600160a01b039290921660209283029190910182015260408051600480825260a0820190925291820160808036833701905050925060005b8551811015613472578581815181106133cf576133cf614e38565b60200260200101516001600160a01b03166370a08231306040518263ffffffff1660e01b81526004016134029190615063565b602060405180830381865afa15801561341f573d6000803e3d6000fd5b505050506040513d601f19601f820116820180604052508101906134439190615005565b84828151811061345557613455614e38565b60209081029190910101528061346a8161501e565b9150506133b4565b5060408051600480825260a0820190925290602082016080803683370190505093506000811180156134b757506004860154630100000090046001600160801b031615155b1561380657604080516080810182528281523060208201526001600160801b038183018190526060820152905163fc6f786560e01b81526000805160206159f58339815191529163fc6f786591613511919060040161535e565b60408051808303816000875af115801561352f573d6000803e3d6000fd5b505050506040513d601f19601f820116820180604052508101906135539190614e14565b8560008151811061356657613566614e38565b602002602001018660018151811061358057613580614e38565b60200260200101828152508281525050507f15097721483fb2e62f76b9953e3601b26e7cc79208a0191df6fa701c6148744d846000815181106135c5576135c5614e38565b6020026020010151856001815181106135e0576135e0614e38565b60200260200101516040516135ff929190918252602082015260400190565b60405180910390a16003860154600160a81b900460ff161561368e578360018151811061362e5761362e614e38565b60200260200101518460008151811061364957613649614e38565b60200260200101518560008151811061366457613664614e38565b602002602001018660018151811061367e5761367e614e38565b6020908102919091010191909152525b6136a061369a87613c8a565b82613d00565b856002815181106136b3576136b3614e38565b60200260200101866003815181106136cd576136cd614e38565b602002602001018281525082815250505061371e856002815181106136f4576136f4614e38565b602002602001015160008660028151811061371157613711614e38565b6020026020010151613d84565b8460028151811061373157613731614e38565b6020026020010181815250506137708560038151811061375357613753614e38565b602002602001015160008660038151811061371157613711614e38565b8460038151811061378357613783614e38565b6020026020010181815250507f2f1396dffa36013d7e1df1ec39cb355b5ff604d56e817a88ed2a0d40995adcb8846002815181106137c3576137c3614e38565b6020026020010151856003815181106137de576137de614e38565b60200260200101516040516137fd929190918252602082015260400190565b60405180910390a15b60005b855181101561396b57600086828151811061382657613826614e38565b60200260200101516001600160a01b03166370a08231856040518263ffffffff1660e01b81526004016138599190615063565b602060405180830381865afa158015613876573d6000803e3d6000fd5b505050506040513d601f19601f8201168201806040525081019061389a9190615005565b9050801561395a578682815181106138b4576138b4614e38565b60200260200101516001600160a01b03166323b872dd8530846040518463ffffffff1660e01b81526004016138eb93929190614df0565b6020604051808303816000875af115801561390a573d6000803e3d6000fd5b505050506040513d601f19601f8201168201806040525081019061392e9190614fe8565b508086838151811061394257613942614e38565b602002602001018181516139569190614d9c565b9052505b506139648161501e565b9050613809565b5050509193909250565b6000806000866001600160a01b031663d21220a76040518163ffffffff1660e01b8152600401602060405180830381865afa1580156139b8573d6000803e3d6000fd5b505050506040513d601f19601f820116820180604052508101906139dc9190614e7b565b604051635620c32d60e11b81526001600160a01b03808a1660048301528216602482015290915060009073F553b1372610a3415BA5C2937d8F4c45fe6EB5099063ac41865a90604401602060405180830381865af4158015613a42573d6000803e3d6000fd5b505050506040513d601f19601f82011682018060405250810190613a669190615005565b90506000826001600160a01b031663313ce5676040518163ffffffff1660e01b8152600401602060405180830381865afa158015613aa8573d6000803e3d6000fd5b505050506040513d601f19601f82011682018060405250810190613acc9190615048565b60ff169050816000613adf83600a615959565b60408051808201909152601081526f54532d3234207a65726f2076616c756560801b602082015290915081613b275760405162461bcd60e51b81526004016103ef9190614c8f565b506040516305f08b0f60e21b81526001600160a01b038c16600482015260028b810b60248301528a900b60448201526064810183905260848101829052600090819073F553b1372610a3415BA5C2937d8F4c45fe6EB509906317c22c3c9060a401606060405180830381865af4158015613ba5573d6000803e3d6000fd5b505050506040513d601f19601f82011682018060405250810190613bc99190615965565b509150915089613c1257613be582670de0b6b3a7640000614daf565b8387613bf984670de0b6b3a7640000614daf565b613c039190614daf565b613c0d9190614ddc565b613c4c565b8286613c2683670de0b6b3a7640000614daf565b613c309190614daf565b613c3a9190614ddc565b613c4c83670de0b6b3a7640000614daf565b985098505050505050505094509492505050565b6000806000613c6e876141db565b9050613c7c8187878761424c565b925092505094509492505050565b6040805160a081018252600080825260208201819052918101829052606081018290526080810191909152506040805160a08101825260328301546001600160a01b0390811682526033840154811660208301528354169181019190915260348201546060820152603590910154608082015290565b6040516307cf0b0f60e31b815260009081906000805160206159f583398151915290633e78587890613d38908790879060040161585a565b60408051808303816000875af1925050508015613d72575060408051601f3d908101601f19168201909252613d6f91810190614e14565b60015b15613d7d5790925090505b9250929050565b6000811561327957604051633f46232960e21b81526001600160a01b038516600482015230602482015260006044820152606481018390526000805160206159f58339815191529063fd188ca4906084016020604051808303816000875af1925050508015613e10575060408051601f3d908101601f19168201909252613e0d91810190615005565b60015b15613279576001600160a01b03841615613eb657613e9a83866001600160a01b03166370a08231306040518263ffffffff1660e01b8152600401613e549190615063565b602060405180830381865afa158015613e71573d6000803e3d6000fd5b505050506040513d601f19601f82011682018060405250810190613e959190615005565b614316565b91508115613eb657613eb66001600160a01b0386168584613ebe565b509392505050565b613f148363a9059cbb60e01b8484604051602401613edd929190614fcf565b60408051601f198184030181529190526020810180516001600160e01b03166001600160e01b03199093169290921790915261432c565b505050565b81546001600160a01b0316604080860191909152805160608101909152600583018054829060ff166003811115613f5257613f52615622565b6003811115613f6357613f63615622565b815260408051608081019182905260209092019190600184019060049082845b815481526020019060010190808311613f8357505050918352505060408051608081019182905260209092019190600584019060049082845b815481526020019060010190808311613fbc575050509190925250505084526001600160a01b03838116602080870191909152600284015482166060870181905260038501549283166080880152600160a01b90920460ff16151560a087015260009182528290526040902054614032906143fe565b60c08501515260808401516001600160a01b031660009081526020829052604090205461405e906143fe565b60c08501516001602002018181525050600084606001516001600160a01b031663313ce5676040518163ffffffff1660e01b8152600401602060405180830381865afa1580156140b2573d6000803e3d6000fd5b505050506040513d601f19601f820116820180604052508101906140d69190615048565b60ff169050601281106140ea576001614100565b6140f58160126153a1565b61410090600a615959565b6101409095019490945250505050565b6000816001600160a01b031663f77c47916040518163ffffffff1660e01b8152600401602060405180830381865afa158015614150573d6000803e3d6000fd5b505050506040513d601f19601f820116820180604052508101906141749190614e7b565b6001600160a01b0316632630c12f6040518163ffffffff1660e01b8152600401602060405180830381865afa1580156141b1573d6000803e3d6000fd5b505050506040513d601f19601f820116820180604052508101906141d59190614e7b565b92915050565b6000816001600160a01b031663e76c01e46040518163ffffffff1660e01b815260040160e060405180830381865afa15801561421b573d6000803e3d6000fd5b505050506040513d601f19601f8201168201806040525081019061423f91906150cf565b5093979650505050505050565b6000808061425a8686615993565b905060008460020b8260020b1461427b57614276600283614ec0565b61427e565b60005b60405163cd8e20e760e01b815260028a810b600483015282810b602483015287900b60448201529091507394B746c50ac5d1A40BeB3494337B0Ea43E502a3d9063cd8e20e7906064016040805180830381865af41580156142e3573d6000803e3d6000fd5b505050506040513d601f19601f820116820180604052508101906143079190614f1a565b93509350505094509492505050565b60008183106143255781613279565b5090919050565b6000614381826040518060400160405280602081526020017f5361666545524332303a206c6f772d6c6576656c2063616c6c206661696c6564815250856001600160a01b03166144169092919063ffffffff16565b805190915015613f14578080602001905181019061439f9190614fe8565b613f145760405162461bcd60e51b815260206004820152602a60248201527f5361666545524332303a204552433230206f7065726174696f6e20646964206e6044820152691bdd081cdd58d8d9595960b21b60648201526084016103ef565b6000811561440c57816141d5565b620186a092915050565b6060610d59848460008585600080866001600160a01b0316858760405161443d91906159b8565b60006040518083038185875af1925050503d806000811461447a576040519150601f19603f3d011682016040523d82523d6000602084013e61447f565b606091505b50915091506144908783838761449b565b979650505050505050565b6060831561450a578251600003614503576001600160a01b0385163b6145035760405162461bcd60e51b815260206004820152601d60248201527f416464726573733a2063616c6c20746f206e6f6e2d636f6e747261637400000060448201526064016103ef565b5081610d59565b610d59838381511561451f5781518083602001fd5b8060405162461bcd60e51b81526004016103ef9190614c8f565b60405180608001604052806004906020820280368337509192915050565b60405180610160016040528061456b6145bd565b815260006020820181905260408201819052606082018190526080820181905260a082015260c00161459b6145ea565b8152600060208201819052604082018190526060820181905260809091015290565b604080516060810190915280600081526020016145d8614539565b81526020016145e5614539565b905290565b60405180604001604052806002906020820280368337509192915050565b6001600160a01b038116811461461d57600080fd5b50565b8060020b811461461d57600080fd5b801515811461461d57600080fd5b6000806000806080858703121561465357600080fd5b843561465e81614608565b9350602085013561466e81614620565b9250604085013561467e81614620565b9150606085013561468e8161462f565b939692955090935050565b6000602082840312156146ab57600080fd5b5035919050565b80604081018310156141d557600080fd5b80608081018310156141d557600080fd5b6000806000806000806000610160888a0312156146f057600080fd5b873596506147018960208a016146b2565b9550606088013561471181614620565b9450608088013561472181614620565b935060a088013561473181614608565b925060c08801356147418161462f565b91506147508960e08a016146c3565b905092959891949750929550565b634e487b7160e01b600052604160045260246000fd5b604051601f8201601f1916810167ffffffffffffffff8111828210171561479d5761479d61475e565b604052919050565b600067ffffffffffffffff8211156147bf576147bf61475e565b5060051b60200190565b600082601f8301126147da57600080fd5b813560206147ef6147ea836147a5565b614774565b82815260059290921b8401810191818101908684111561480e57600080fd5b8286015b848110156148295780358352918301918301614812565b509695505050505050565b6000806000806080858703121561484a57600080fd5b843561485581614608565b935060208581013561486681614608565b9350604086013567ffffffffffffffff8082111561488357600080fd5b818801915088601f83011261489757600080fd5b81356148a56147ea826147a5565b81815260059190911b8301840190848101908b8311156148c457600080fd5b938501935b828510156148eb5784356148dc81614608565b825293850193908501906148c9565b96505050606088013592508083111561490357600080fd5b5050614911878288016147c9565b91505092959194509250565b6000806040838503121561493057600080fd5b82359150602083013561494281614608565b809150509250929050565b600081518084526020808501945080840160005b8381101561497d57815187529582019590820190600101614961565b509495945050505050565b602081526000613279602083018461494d565b600067ffffffffffffffff8211156149b5576149b561475e565b50601f01601f191660200190565b600082601f8301126149d457600080fd5b81356149e26147ea8261499b565b8181528460208386010111156149f757600080fd5b816020850160208301376000918101602001919091529392505050565b60008060008060008060006101c0888a031215614a3057600080fd5b8735965060c0880189811115614a4557600080fd5b602089019650614a558a826146c3565b95505061014088013567ffffffffffffffff80821115614a7457600080fd5b614a808b838c016149c3565b95506101608a0135915080821115614a9757600080fd5b50614aa48a828b016149c3565b93505061018088013591506101a0880135905092959891949750929550565b8215158152604060208201526000610d59604083018461494d565b6001600160801b038116811461461d57600080fd5b60008060408385031215614b0657600080fd5b82359150602083013561494281614ade565b600080600060608486031215614b2d57600080fd5b833592506020840135614b3f81614ade565b91506040840135614b4f8161462f565b809150509250925092565b60008060408385031215614b6d57600080fd5b82359150602083013567ffffffffffffffff811115614b8b57600080fd5b614b97858286016147c9565b9150509250929050565b604081526000614bb4604083018561494d565b90508260208301529392505050565b600080600080600080600080610120898b031215614be057600080fd5b8835975060208901359650614bf88a60408b016146b2565b95506080890135945060a0890135935060c0890135614c1681614608565b925060e0890135614c268161462f565b8092505061010089013590509295985092959890939650565b60005b83811015614c5a578181015183820152602001614c42565b50506000910152565b60008151808452614c7b816020860160208601614c3f565b601f01601f19169290920160200192915050565b6020815260006132796020830184614c63565b60008082840360c0811215614cb657600080fd5b8335925060a0601f1982011215614ccc57600080fd5b506020830190509250929050565b600080600060608486031215614cef57600080fd5b833592506020840135614d0181614608565b91506040840135614b4f81614608565b606080825284519082018190526000906020906080840190828801845b82811015614d535781516001600160a01b031684529284019290840190600101614d2e565b50505083810382850152614d67818761494d565b9150508281036040840152614d7c818561494d565b9695505050505050565b634e487b7160e01b600052601160045260246000fd5b808201808211156141d5576141d5614d86565b80820281158282048414176141d5576141d5614d86565b634e487b7160e01b600052601260045260246000fd5b600082614deb57614deb614dc6565b500490565b6001600160a01b039384168152919092166020820152604081019190915260600190565b60008060408385031215614e2757600080fd5b505080516020909101519092909150565b634e487b7160e01b600052603260045260246000fd5b600060208284031215614e6057600080fd5b813561327981614608565b8051614e7681614608565b919050565b600060208284031215614e8d57600080fd5b815161327981614608565b8051614e7681614620565b600060208284031215614eb557600080fd5b815161327981614620565b60008160020b8360020b80614ed757614ed7614dc6565b627fffff19821460001982141615614ef157614ef1614d86565b90059392505050565b60008260020b8260020b028060020b915080821461167f5761167f614d86565b60008060408385031215614f2d57600080fd5b8251614f3881614620565b602084015190925061494281614620565b60808183375050565b8581526101c0810160208083018760005b6004811015614f895781516001600160a01b031683529183019190830190600101614f63565b50505060a083018660005b6004811015614fb457815160020b83529183019190830190600101614f94565b50505050831515610120830152614d7c610140830184614f49565b6001600160a01b03929092168252602082015260400190565b600060208284031215614ffa57600080fd5b81516132798161462f565b60006020828403121561501757600080fd5b5051919050565b60006001820161503057615030614d86565b5060010190565b805160ff81168114614e7657600080fd5b60006020828403121561505a57600080fd5b61327982615037565b6001600160a01b0391909116815260200190565b60008060006060848603121561508c57600080fd5b83516150978161462f565b60208501519093506150a88161462f565b604085015190925060048110614b4f57600080fd5b805161ffff81168114614e7657600080fd5b600080600080600080600060e0888a0312156150ea57600080fd5b87516150f581614608565b602089015190975061510681614620565b9550615114604089016150bd565b9450615122606089016150bd565b935061513060808901615037565b925061513e60a08901615037565b915060c088015161514e8161462f565b8091505092959891949750929550565b6001600160a01b03949094168452600292830b6020850152910b60408301526001600160801b0316606082015260800190565b60006101c08289835b60058110156151cc5781356151ae81614608565b6001600160a01b03168352602092830192919091019060010161519a565b50505060808860a0850137806101208401526151ea81840188614c63565b90508281036101408401526151ff8187614c63565b91505061016082018460005b60028110156152335781516001600160a01b031683526020928301929091019060010161520b565b505050826101a0830152979650505050505050565b600082601f83011261525957600080fd5b815160206152696147ea836147a5565b82815260059290921b8401810191818101908684111561528857600080fd5b8286015b84811015614829578051835291830191830161528c565b6000806000606084860312156152b857600080fd5b83516152c38161462f565b602085015190935067ffffffffffffffff8111156152e057600080fd5b6152ec86828701615248565b925050604084015190509250925092565b80516001600160a01b0390811683526020808301518216908401526040808301519091169083015260608082015190830152608090810151910152565b60e0810161534882866152fd565b8360a083015282151560c0830152949350505050565b815181526020808301516001600160a01b0316908201526040808301516001600160801b0390811691830191909152606092830151169181019190915260800190565b818103818111156141d5576141d5614d86565b6001600160801b0382811682821603908082111561167f5761167f614d86565b61010081016153e382876152fd565b8460a08301528360c083015282151560e083015295945050505050565b8051614e7681614ade565b60008060008060008060008060008060006101608c8e03121561542d57600080fd5b8b516bffffffffffffffffffffffff8116811461544957600080fd5b60208d0151909b5061545a81614608565b60408d0151909a5061546b81614608565b985061547960608d01614e6b565b975061548760808d01614e98565b965061549560a08d01614e98565b95506154a360c08d01615400565b945060e08c015193506101008c015192506154c16101208d01615400565b91506154d06101408d01615400565b90509295989b509295989b9093969950565b81516001600160a01b031681526101408101602083015161550e60208401826001600160a01b03169052565b506040830151615523604084018260020b9052565b506060830151615538606084018260020b9052565b506080830151608083015260a083015160a083015260c083015160c083015260e083015160e08301526101008084015161557c828501826001600160a01b03169052565b505061012092830151919092015290565b600080600080608085870312156155a357600080fd5b8451935060208501516155b581614ade565b6040860151606090960151949790965092505050565b6000806000606084860312156155e057600080fd5b83516155eb81614ade565b602085015160409095015190969495509392505050565b6001600160801b0381811683821601908082111561167f5761167f614d86565b634e487b7160e01b600052602160045260246000fd5b8381528215156020820152606081016004831061566557634e487b7160e01b600052602160045260246000fd5b826040830152949350505050565b8060005b6002811015615696578151845260209384019390910190600101615677565b50505050565b6101208101818960005b60028110156156d85781356156ba81614608565b6001600160a01b0316835260209283019291909101906001016156a6565b5050506040820188905260608201879052608082018690526001600160a01b03851660a083015261570c60c0830185615673565b8260020b61010083015298975050505050505050565b6001600160a01b0386811682526020820186905284811660408301528316606082015260c08101614d7c6080830184615673565b6000806040838503121561576957600080fd5b82519150602083015167ffffffffffffffff81111561578757600080fd5b614b9785828601615248565b6000602082840312156157a557600080fd5b815167ffffffffffffffff8111156157bc57600080fd5b8201601f810184136157cd57600080fd5b80516157db6147ea8261499b565b8181528560208385010111156157f057600080fd5b615801826020830160208601614c3f565b95945050505050565b67020b633b2b13930960c51b81526000835161582d816008850160208801614c3f565b602f60f81b600891840191820152835161584e816009840160208801614c3f565b01600901949350505050565b60c0810161586882856152fd565b8260a08301529392505050565b600181815b808511156158b057816000190482111561589657615896614d86565b808516156158a357918102915b93841c939080029061587a565b509250929050565b6000826158c7575060016141d5565b816158d4575060006141d5565b81600181146158ea57600281146158f457615910565b60019150506141d5565b60ff84111561590557615905614d86565b50506001821b6141d5565b5060208310610133831016604e8410600b8410161715615933575081810a6141d5565b61593d8383615875565b806000190482111561595157615951614d86565b029392505050565b600061327983836158b8565b60008060006060848603121561597a57600080fd5b83519250602084015191506040840151614b4f81614ade565b600282810b9082900b03627fffff198112627fffff821317156141d5576141d5614d86565b600082516159ca818460208701614c3f565b919091019291505056fe0000000000000000000000008ef88e4c7cfbbac1c163f7eddd4b578792201de60000000000000000000000007f281a8cdf66ef5e9db8434ec6d97acc1bc01e7841532d3420496e636f727265637420726562616c616e63655469636b52616e6765a2646970667358221220ed60772f117e7ae740d5e5b2d8c36eba760afd9907a05c1d224a67e77252060164736f6c63430008110033",
  "deployedBytecode": "0x73000000000000000000000000000000000000000030146080604052600436106101095760003560e01c8063a7aced09116100a1578063bd85be2911610070578063bd85be2914610296578063c3724a89146102b6578063d1585fc4146102d6578063f6e26117146102e957600080fd5b8063a7aced0914610215578063b63cd90214610228578063b676262114610248578063b6fda8131461027657600080fd5b806334d2ec3d116100dd57806334d2ec3d146101915780637269cb3a146101a45780638fb5468e146101c7578063911ec053146101e757600080fd5b8062438b7e1461010e57806328f0aec41461013b5780632cc58ef91461015c5780632df3c9a91461016f575b600080fd5b61012161011c36600461463d565b610318565b604080519283526020830191909152015b60405180910390f35b61014e610149366004614699565b610334565b604051908152602001610132565b61012161016a366004614699565b61042b565b81801561017b57600080fd5b5061018f61018a3660046146d4565b6104d3565b005b61014e61019f366004614834565b610bb9565b6101b76101b236600461491d565b610d61565b6040519015158152602001610132565b6101da6101d5366004614699565b611018565b6040516101329190614988565b8180156101f357600080fd5b50610207610202366004614a14565b611222565b604051610132929190614ac3565b6101da610223366004614af3565b61146a565b81801561023457600080fd5b506101da610243366004614b18565b611686565b81801561025457600080fd5b50610268610263366004614b5a565b611d3d565b604051610132929190614ba1565b81801561028257600080fd5b506101da610291366004614bc3565b612541565b6102a96102a4366004614699565b612a1d565b6040516101329190614c8f565b8180156102c257600080fd5b5061018f6102d1366004614ca2565b612b35565b6101b76102e4366004614cda565b612bac565b8180156102f557600080fd5b50610309610304366004614699565b613280565b60405161013293929190614d11565b60008061032786868686613975565b9150915094509492505050565b805460038201546000916001600160a01b03169060ff600160a81b8204169083908190610383908590600160c81b8104600290810b91600160e01b8104820b91600160b01b909104900b613c60565b9150915060008061039686858588613975565b909250905060006103a78284614d9c565b116040518060400160405280601081526020016f54532d3234207a65726f2076616c756560801b815250906103f85760405162461bcd60e51b81526004016103ef9190614c8f565b60405180910390fd5b506104038183614d9c565b61041582670de0b6b3a7640000614daf565b61041f9190614ddc565b98975050505050505050565b805460318201546040516308aaf22f60e31b8152600092839273__$5ce7b97fe3b9dad27bffcf1c56869f0b10$__92634557917892610489926001600160a01b03909116916000805160206159d58339815191529190600401614df0565b6040805180830381865af41580156104a5573d6000803e3d6000fd5b505050506040513d601f19601f820116820180604052508101906104c99190614e14565b9094909350915050565b60006104e56040880160208901614e4e565b6001600160a01b031614156040518060400160405280601181526020017054532d31207a65726f206164647265737360781b815250906105385760405162461bcd60e51b81526004016103ef9190614c8f565b50600061054b6040880160208901614e4e565b6001600160a01b0316630dfe16816040518163ffffffff1660e01b8152600401602060405180830381865afa158015610588573d6000803e3d6000fd5b505050506040513d601f19601f820116820180604052508101906105ac9190614e7b565b905060006105c06040890160208a01614e4e565b6001600160a01b031663d21220a76040518163ffffffff1660e01b8152600401602060405180830381865afa1580156105fd573d6000803e3d6000fd5b505050506040513d601f19601f820116820180604052508101906106219190614e7b565b905061062b614539565b600073__$5ce7b97fe3b9dad27bffcf1c56869f0b10$__63d0c93a7c6040518163ffffffff1660e01b8152600401602060405180830381865af4158015610676573d6000803e3d6000fd5b505050506040513d601f19601f8201168201806040525081019061069a9190614ea3565b90508860020b60001461076a57806106b2818b614ec0565b6106bc9190614efa565b60020b8960020b146040518060400160405280601881526020017741532d3320496e636f7272656374207469636b52616e676560401b815250906107135760405162461bcd60e51b81526004016103ef9190614c8f565b508061071f818a614ec0565b6107299190614efa565b60020b8860020b14604051806060016040528060218152602001615a1560219139906107685760405162461bcd60e51b81526004016103ef9190614c8f565b505b600281900b825273__$461d2a13b6c4ece874725da1f5491a2777$__6358817a9861079b60408d0160208e01614e4e565b6040516001600160e01b031960e084901b1681526001600160a01b03909116600482015260028c810b602483015284900b60448201526064016040805180830381865af41580156107f0573d6000803e3d6000fd5b505050506040513d601f19601f820116820180604052508101906108149190614f1a565b836001602002018460028093840b602091909102919091015291900b90528782600360029290920b6020909202015250604080516080810190915273__$b1ba452cecccdd06eb05ace2d0a762c7e1$__9063b8b4a449908c90808d60016020020160208101906108849190614e4e565b6001600160a01b03166001600160a01b031681526020018a6001600160a01b03166001600160a01b03168152602001876001600160a01b03166001600160a01b03168152602001866001600160a01b03166001600160a01b03168152508489896040518663ffffffff1660e01b8152600401610904959493929190614f52565b60006040518083038186803b15801561091c57600080fd5b505af4158015610930573d6000803e3d6000fd5b5050505060008960006002811061094957610949614e38565b60200201602081019061095c9190614e4e565b6001600160a01b0316634046ebae6040518163ffffffff1660e01b8152600401602060405180830381865afa158015610999573d6000803e3d6000fd5b505050506040513d601f19601f820116820180604052508101906109bd9190614e7b565b60405163095ea7b360e01b81529091506001600160a01b0385169063095ea7b3906109f090849060001990600401614fcf565b6020604051808303816000875af1158015610a0f573d6000803e3d6000fd5b505050506040513d601f19601f82011682018060405250810190610a339190614fe8565b5060405163095ea7b360e01b81526001600160a01b0384169063095ea7b390610a6490849060001990600401614fcf565b6020604051808303816000875af1158015610a83573d6000803e3d6000fd5b505050506040513d601f19601f82011682018060405250810190610aa79190614fe8565b5060405163095ea7b360e01b81526001600160a01b0385169063095ea7b390610ae6906000805160206159d58339815191529060001990600401614fcf565b6020604051808303816000875af1158015610b05573d6000803e3d6000fd5b505050506040513d601f19601f82011682018060405250810190610b299190614fe8565b5060405163095ea7b360e01b81526001600160a01b0384169063095ea7b390610b68906000805160206159d58339815191529060001990600401614fcf565b6020604051808303816000875af1158015610b87573d6000803e3d6000fd5b505050506040513d601f19601f82011682018060405250810190610bab9190614fe8565b505050505050505050505050565b600080846001600160a01b0316634046ebae6040518163ffffffff1660e01b8152600401602060405180830381865afa158015610bfa573d6000803e3d6000fd5b505050506040513d601f19601f82011682018060405250810190610c1e9190614e7b565b84519091506000805b82811015610d53576000878281518110610c4357610c43614e38565b60200260200101519050896001600160a01b0316816001600160a01b031603610c9257868281518110610c7857610c78614e38565b602002602001015183610c8b9190614d9c565b9250610d42565b846001600160a01b031663a9dd14d6898481518110610cb357610cb3614e38565b60200260200101518c8a8681518110610cce57610cce614e38565b60200260200101516040518463ffffffff1660e01b8152600401610cf493929190614df0565b602060405180830381865afa158015610d11573d6000803e3d6000fd5b505050506040513d601f19601f82011682018060405250810190610d359190615005565b610d3f9084614d9c565b92505b50610d4c8161501e565b9050610c27565b50925050505b949350505050565b815460028301546040805163313ce56760e01b815290516000936001600160a01b0390811693859373__$79fe6ec7a3db45dafbed12dca1c6dad764$__9363556ce728939092169163313ce567916004808201926020929091908290030181865afa158015610dd4573d6000803e3d6000fd5b505050506040513d601f19601f82011682018060405250810190610df89190615048565b6040516001600160e01b031960e084901b16815260ff9091166004820152602401602060405180830381865af4158015610e36573d6000803e3d6000fd5b505050506040513d601f19601f82011682018060405250810190610e5a9190615005565b6003860154604051635620c32d60e11b81526001600160a01b0380861660048301529091166024820152909150600090829073__$5ce7b97fe3b9dad27bffcf1c56869f0b10$__9063ac41865a90604401602060405180830381865af4158015610ec8573d6000803e3d6000fd5b505050506040513d601f19601f82011682018060405250810190610eec9190615005565b610ef69190614daf565b905073__$b1ba452cecccdd06eb05ace2d0a762c7e1$__6351265e89878773__$461d2a13b6c4ece874725da1f5491a2777$__63ecc89419886040518263ffffffff1660e01b8152600401610f4b9190615063565b602060405180830381865af4158015610f68573d6000803e3d6000fd5b505050506040513d601f19601f82011682018060405250810190610f8c9190614ea3565b6040516001600160e01b031960e086901b16815260048101939093526001600160a01b03909116602483015260020b604482015260648101849052608401606060405180830381865af4158015610fe7573d6000803e3d6000fd5b505050506040513d601f19601f8201168201806040525081019061100b9190615077565b5090979650505050505050565b604080516002808252606080830184529260208301908036833750508354604080516339db007960e21b815290519394506000936001600160a01b03909216925063e76c01e49160048083019260e09291908290030181865afa158015611083573d6000803e3d6000fd5b505050506040513d601f19601f820116820180604052508101906110a791906150cf565b505050506003860154600480880154604051630544f36560e31b815295965073__$5ce7b97fe3b9dad27bffcf1c56869f0b10$__95632a279b28955061111994508793600160c81b8104600290810b94600160e01b909204900b92630100000090046001600160801b0316910161515e565b6040805180830381865af4158015611135573d6000803e3d6000fd5b505050506040513d601f19601f820116820180604052508101906111599190614e14565b8360008151811061116c5761116c614e38565b602002602001018460018151811061118657611186614e38565b6020908102919091010191909152526003830154600160a81b900460ff161561121c57816001815181106111bc576111bc614e38565b6020026020010151826000815181106111d7576111d7614e38565b6020026020010151836000815181106111f2576111f2614e38565b602002602001018460018151811061120c5761120c614e38565b6020908102919091010191909152525b50919050565b60408051808201825260028401546001600160a01b0390811682526003850154166020820152905163bd13c52960e01b81526000916060918290849073__$b1ba452cecccdd06eb05ace2d0a762c7e1$__9063bd13c52990611292908e908e908e908e908a908e90600401615191565b600060405180830381865af41580156112af573d6000803e3d6000fd5b505050506040513d6000823e601f3d908101601f191682016040526112d791908101906152a3565b91965092509050801561137a5773__$8f1afe7577f9ab973017c74eca19b86f3c$__6326eadaa38d8d60046020020160208101906113159190614e4e565b6040516001600160e01b031960e085901b16815260048101929092526001600160a01b031660248201526044810184905260640160006040518083038186803b15801561136157600080fd5b505af4158015611375573d6000803e3d6000fd5b505050505b6040805182815260208c8101359082015260008183015290517f3715d08a7dcc9d792a5a426f62429b9f889a7b140004f9f85190a48485695cf19181900360600190a160608a0135600114806113dc575060608a013560021480156113dc5750845b1561145b578654600388015461141c916001600160a01b031690600160c81b8104600290810b91600160e01b8104820b91600160b01b909104900b613c60565b60038901805465ffffffffffff60c81b1916600160e01b62ffffff9384160262ffffff60c81b191617600160c81b939092169290920217905590925082905b50505097509795505050505050565b606060008360000160009054906101000a90046001600160a01b03166001600160a01b031663e76c01e46040518163ffffffff1660e01b815260040160e060405180830381865afa1580156114c3573d6000803e3d6000fd5b505050506040513d601f19601f820116820180604052508101906114e791906150cf565b50949550600294506114f99350505050565b604051908082528060200260200182016040528015611522578160200160208202803683370190505b506003850154604051630544f36560e31b815291935073__$5ce7b97fe3b9dad27bffcf1c56869f0b10$__91632a279b289161157c918591600160c81b8104600290810b92600160e01b909204900b90899060040161515e565b6040805180830381865af4158015611598573d6000803e3d6000fd5b505050506040513d601f19601f820116820180604052508101906115bc9190614e14565b836000815181106115cf576115cf614e38565b60200260200101846001815181106115e9576115e9614e38565b6020908102919091010191909152526003840154600160a81b900460ff161561167f578160018151811061161f5761161f614e38565b60200260200101518260008151811061163a5761163a614e38565b60200260200101518360008151811061165557611655614e38565b602002602001018460018151811061166f5761166f614e38565b6020908102919091010191909152525b5092915050565b6040805160808101825260008082526020820181905281830181905260608083019190915282516002808252818301909452909281602001602082028036833750505060018601546001600160a01b03168252915060006116e686613c8a565b60048701546001600160801b0363010000009091048116602080860182905260408051808201909152601481527341532d372057726f6e67206c697175696469747960601b9181019190915292935090871611156117575760405162461bcd60e51b81526004016103ef9190614c8f565b506031860154846117775761176c8282613d00565b606085015260408401525b6000805160206159f58339815191526334267cbc61179489613c8a565b896031015460006040518463ffffffff1660e01b81526004016117b99392919061533a565b600060405180830381600087803b1580156117d357600080fd5b505af11580156117e7573d6000803e3d6000fd5b505050508461183357603287015483516040850151611810926001600160a01b03169190613d84565b50603387015483516060850151611831926001600160a01b03169190613d84565b505b604051633c423f0b60e01b81526004810182905230602482015260606044820152600060648201526000805160206159f583398151915290633c423f0b90608401600060405180830381600087803b15801561188e57600080fd5b505af11580156118a2573d6000803e3d6000fd5b50506040805160a0810182528481526001600160801b038a81166020830190815260008385018181526060850191825242608086019081529551630624e65f60e11b81529451600486015291519092166024840152516044830152516064820152905160848201526000805160206159d58339815191529250630c49ccbe915060a40160408051808303816000875af1158015611943573d6000803e3d6000fd5b505050506040513d601f19601f820116820180604052508101906119679190614e14565b8560008151811061197a5761197a614e38565b602002602001018660018151811061199457611994614e38565b602090810291909101810192909252919091526040805160808101825283815230928101929092526001600160801b0382820181905260608301525163fc6f786560e01b815260009182916000805160206159d58339815191529163fc6f786591611a02919060040161535e565b60408051808303816000875af1158015611a20573d6000803e3d6000fd5b505050506040513d601f19601f82011682018060405250810190611a449190614e14565b91509150600086600081518110611a5d57611a5d614e38565b60200260200101518311611a72576000611a98565b86600081518110611a8557611a85614e38565b602002602001015183611a9891906153a1565b9050600087600181518110611aaf57611aaf614e38565b60200260200101518311611ac4576000611aea565b87600181518110611ad757611ad7614e38565b602002602001015183611aea91906153a1565b60408051848152602081018390529192507f15097721483fb2e62f76b9953e3601b26e7cc79208a0191df6fa701c6148744d910160405180910390a160038b0154600160a81b900460ff1615611bae5787600181518110611b4d57611b4d614e38565b602002602001015188600081518110611b6857611b68614e38565b602002602001015189600081518110611b8357611b83614e38565b602002602001018a600181518110611b9d57611b9d614e38565b602090810291909101019190915252905b8115611bd157865160028c0154611bd1916001600160a01b039091169084613ebe565b8015611bf457865160038c0154611bf4916001600160a01b039091169083613ebe565b505050508583602001818151611c0a91906153b4565b6001600160801b03908116909152602085015160048a01805472ffffffffffffffffffffffffffffffff000000191663010000009290931691820292909217909155159050611d3357604051632142170760e11b81526000805160206159d5833981519152906342842e0e90611c969030906000805160206159f5833981519152908690600401614df0565b600060405180830381600087803b158015611cb057600080fd5b505af1158015611cc4573d6000803e3d6000fd5b5050604051631143967160e11b81526000805160206159f583398151915292506322872ce29150611d00908590859060009081906004016153d4565b600060405180830381600087803b158015611d1a57600080fd5b505af1158015611d2e573d6000803e3d6000fd5b505050505b5050509392505050565b6040805160a081018252600384015460ff600160a81b8204161515808352600060208401819052603187015494840194909452600160c81b8204600290810b606085810191909152600160e01b909304900b60808401529092919082908190611dbc57600287015460038801546001600160a01b039182169116611dd4565b600387015460028801546001600160a01b0391821691165b8451919350915015611e535785600181518110611df357611df3614e38565b602002602001015186600081518110611e0e57611e0e614e38565b602002602001015187600081518110611e2957611e29614e38565b6020026020010188600181518110611e4357611e43614e38565b6020908102919091010191909152525b6040805160028082526060820183529091602083019080368337505050604084015190955015611f9c57604083810151905163133f757160e31b8152600481019190915260009081906000805160206159d5833981519152906399fbab889060240161016060405180830381865afa158015611ed3573d6000803e3d6000fd5b505050506040513d601f19601f82011682018060405250810190611ef7919061540b565b50505050509550955050505050846060015160020b8260020b141580611f275750846080015160020b8160020b14155b15611f99576040858101519051630852cd8d60e31b815260048101919091526000805160206159d5833981519152906342966c6890602401600060405180830381600087803b158015611f7957600080fd5b505af1158015611f8d573d6000803e3d6000fd5b50506000604088015250505b50505b6000611fa788613c8a565b905083604001516000036121b0576000805160206159d58339815191526001600160a01b0316639cc1a283604051806101400160405280866001600160a01b03168152602001856001600160a01b03168152602001876060015160020b8152602001876080015160020b81526020018a60008151811061202957612029614e38565b602002602001015181526020018a60018151811061204957612049614e38565b602002602001015181526020016000815260200160008152602001306001600160a01b03168152602001428152506040518263ffffffff1660e01b815260040161209391906154e2565b6080604051808303816000875af11580156120b2573d6000803e3d6000fd5b505050506040513d601f19601f820116820180604052508101906120d6919061558d565b87604001886020018b6000815181106120f1576120f1614e38565b602002602001018c60018151811061210b5761210b614e38565b6020908102919091010193909352929091526001600160801b0390921690525260408085015160318a018190559051632142170760e11b81526000805160206159d5833981519152916342842e0e916121799130916000805160206159f58339815191529190600401614df0565b600060405180830381600087803b15801561219357600080fd5b505af11580156121a7573d6000803e3d6000fd5b5050505061246c565b6000805160206159d58339815191526001600160a01b031663219f5d176040518060c00160405280876040015181526020018a6000815181106121f5576121f5614e38565b602002602001015181526020018a60018151811061221557612215614e38565b602002602001015181526020016000815260200160008152602001428152506040518263ffffffff1660e01b815260040161228f9190600060c082019050825182526020830151602083015260408301516040830152606083015160608301526080830151608083015260a083015160a083015292915050565b6060604051808303816000875af11580156122ae573d6000803e3d6000fd5b505050506040513d601f19601f820116820180604052508101906122d291906155cb565b86602001896000815181106122e9576122e9614e38565b602002602001018a60018151811061230357612303614e38565b60209081029190910101929092529190526001600160801b03918216905260048901546301000000900416156123f257600080612344838760400151613d00565b6040808901519051630d099f2f60e21b81529294509092506000805160206159f5833981519152916334267cbc916123849187919060009060040161533a565b600060405180830381600087803b15801561239e57600080fd5b505af11580156123b2573d6000803e3d6000fd5b50505060018b015460328c01546001600160a01b0391821692506123d891168285613d84565b5060338b01546121a7906001600160a01b03168284613d84565b6040808501519051632142170760e11b81526000805160206159d5833981519152916342842e0e916124399130916000805160206159f58339815191529190600401614df0565b600060405180830381600087803b15801561245357600080fd5b505af1158015612467573d6000803e3d6000fd5b505050505b6040808501519051631143967160e11b81526000805160206159f5833981519152916322872ce2916124a791859160009081906004016153d4565b600060405180830381600087803b1580156124c157600080fd5b505af11580156124d5573d6000803e3d6000fd5b505050506020840151600489018054600390612502908490630100000090046001600160801b0316615602565b92506101000a8154816001600160801b0302191690836001600160801b0316021790555083602001516001600160801b03169450505050509250929050565b606061254b614557565b6125638161255c60208b018b614e4e565b8b86613f19565b61014081015160408083015160038c01549151635620c32d60e11b81526001600160a01b0391821660048201529116602482015273__$5ce7b97fe3b9dad27bffcf1c56869f0b10$__9063ac41865a90604401602060405180830381865af41580156125d3573d6000803e3d6000fd5b505050506040513d601f19601f820116820180604052508101906125f79190615005565b6126019190614daf565b610120820152604080820151905163ecc8941960e01b8152600091829173__$461d2a13b6c4ece874725da1f5491a2777$__9163ecc89419916126479190600401615063565b602060405180830381865af4158015612664573d6000803e3d6000fd5b505050506040513d601f19601f820116820180604052508101906126889190614ea3565b60208401516101208501516040516351265e8960e01b8152600481018f90526001600160a01b039092166024830152600283900b6044830152606482015290915073__$b1ba452cecccdd06eb05ace2d0a762c7e1$__906351265e8990608401606060405180830381865af4158015612705573d6000803e3d6000fd5b505050506040513d601f19601f820116820180604052508101906127299190615077565b8560e001866101000182600381111561274457612744615622565b600381111561275557612755615622565b905291151590915250915081156127db5773__$b1ba452cecccdd06eb05ace2d0a762c7e1$__634aa009158c8560e001518661010001516040518463ffffffff1660e01b81526004016127aa93929190615638565b60006040518083038186803b1580156127c257600080fd5b505af41580156127d6573d6000803e3d6000fd5b505050505b8515806127e55750815b604051806040016040528060188152602001771054cb4e48139bc81c9958985b185b98d9481b995959195960421b815250906128345760405162461bcd60e51b81526004016103ef9190614c8f565b508115612a0e5773__$461d2a13b6c4ece874725da1f5491a2777$__63e4ee4bf78b8d8b8d8c8960c00151886040518863ffffffff1660e01b8152600401612882979695949392919061569c565b60006040518083038186803b15801561289a57600080fd5b505af41580156128ae573d6000803e3d6000fd5b50505050600073__$8f1afe7577f9ab973017c74eca19b86f3c$__63ac2a37d685602001518c876060015188608001518960c001516040518663ffffffff1660e01b8152600401612903959493929190615722565b600060405180830381865af4158015612920573d6000803e3d6000fd5b505050506040513d6000823e601f3d908101601f191682016040526129489190810190615756565b9550905080156129cc576040516326eadaa360e01b8152600481018e90526001600160a01b03891660248201526044810182905273__$8f1afe7577f9ab973017c74eca19b86f3c$__906326eadaa39060640160006040518083038186803b1580156129b357600080fd5b505af41580156129c7573d6000803e3d6000fd5b505050505b60408051828152602081018b905260008183015290517f83387a3342ff1ebc5e437dc9ae0f98274afda12a11cf547eebec05a3e0b8f8a79181900360600190a1505b50505098975050505050505050565b6002810154604080516395d89b4160e01b815290516060926001600160a01b0316916395d89b419160048083019260009291908290030181865afa158015612a69573d6000803e3d6000fd5b505050506040513d6000823e601f3d908101601f19168201604052612a919190810190615793565b8260030160009054906101000a90046001600160a01b03166001600160a01b03166395d89b416040518163ffffffff1660e01b8152600401600060405180830381865afa158015612ae6573d6000803e3d6000fd5b505050506040513d6000823e601f3d908101601f19168201604052612b0e9190810190615793565b604051602001612b1f92919061580a565b6040516020818303038152906040529050919050565b612b426020820182614e4e565b6032830180546001600160a01b0319166001600160a01b0392909216919091179055612b746040820160208301614e4e565b6033830180546001600160a01b0319166001600160a01b03929092169190911790556060810135603483015560800135603590910155565b6040805160c0810182526000918101829052606081018290526080810182905260a0810182905260028501546001600160a01b03908116825260038601548116602083015260018601546004870154911690630100000090046001600160801b031615612f9157603286015460338701546001600160a01b0391821691166000612c3589613c8a565b90506000806000805160206159f58339815191526001600160a01b031663de2356d16040518163ffffffff1660e01b8152600401602060405180830381865afa158015612c86573d6000803e3d6000fd5b505050506040513d601f19601f82011682018060405250810190612caa9190614e7b565b6001600160a01b031663704972f4848d603101546040518363ffffffff1660e01b8152600401612cdb92919061585a565b6040805180830381865afa158015612cf7573d6000803e3d6000fd5b505050506040513d601f19601f82011682018060405250810190612d1b9190614e14565b6040516370a0823160e01b815291935091506001600160a01b038616906370a0823190612d4c908990600401615063565b602060405180830381865afa158015612d69573d6000803e3d6000fd5b505050506040513d601f19601f82011682018060405250810190612d8d9190615005565b612d979083614d9c565b6040516370a0823160e01b81529092506001600160a01b038516906370a0823190612dc6908990600401615063565b602060405180830381865afa158015612de3573d6000803e3d6000fd5b505050506040513d601f19601f82011682018060405250810190612e079190615005565b612e119082614d9c565b90506000896001600160a01b0316634046ebae6040518163ffffffff1660e01b8152600401602060405180830381865afa158015612e53573d6000803e3d6000fd5b505050506040513d601f19601f82011682018060405250810190612e779190614e7b565b90508215612ef65787516040516354ee8a6b60e11b81526001600160a01b0383169163a9dd14d691612eaf918a918890600401614df0565b602060405180830381865afa158015612ecc573d6000803e3d6000fd5b505050506040513d601f19601f82011682018060405250810190612ef09190615005565b60408901525b606088015115612f775787516040516354ee8a6b60e11b81526001600160a01b0383169163a9dd14d691612f309189918790600401614df0565b602060405180830381865afa158015612f4d573d6000803e3d6000fd5b505050506040513d601f19601f82011682018060405250810190612f719190615005565b60608901525b612f808c61042b565b60a08a015260808901525050505050505b6003860154600160a81b900460ff1615612fb75760a08201805160808401805190925290525b81516040516370a0823160e01b81526001600160a01b03909116906370a0823190612fe6908490600401615063565b602060405180830381865afa158015613003573d6000803e3d6000fd5b505050506040513d601f19601f820116820180604052508101906130279190615005565b826080018181516130389190614d9c565b90525060208201516040516370a0823160e01b81526001600160a01b03909116906370a082319061306d908490600401615063565b602060405180830381865afa15801561308a573d6000803e3d6000fd5b505050506040513d601f19601f820116820180604052508101906130ae9190615005565b8260a0018181516130bf9190614d9c565b90525060006130cd86614110565b835160405163b3596f0760e01b81529192506000916001600160a01b0384169163b3596f07916131009190600401615063565b602060405180830381865afa15801561311d573d6000803e3d6000fd5b505050506040513d601f19601f820116820180604052508101906131419190615005565b90506000826001600160a01b031663b3596f0786602001516040518263ffffffff1660e01b81526004016131759190615063565b602060405180830381865afa158015613192573d6000803e3d6000fd5b505050506040513d601f19601f820116820180604052508101906131b69190615005565b90506000670de0b6b3a76400008387608001516131d39190614daf565b6131dd9190614ddc565b90506000670de0b6b3a7640000838860a001516131fa9190614daf565b6132049190614ddc565b905060648211806132155750606481115b8061324257506064670de0b6b3a76400008589604001516132369190614daf565b6132409190614ddc565b115b8061326f57506064670de0b6b3a76400008589606001516132639190614daf565b61326d9190614ddc565b115b9750505050505050505b9392505050565b6001810154603182015460408051600480825260a08201909252606093849384936001600160a01b0390921692909160208201608080368337505050600287015481519196506001600160a01b03169086906000906132e1576132e1614e38565b6001600160a01b039283166020918202929092010152600387015486519116908690600190811061331457613314614e38565b6001600160a01b039283166020918202929092010152603287015486519116908690600290811061334757613347614e38565b6001600160a01b039283166020918202929092010152603387015486519116908690600390811061337a5761337a614e38565b6001600160a01b039290921660209283029190910182015260408051600480825260a0820190925291820160808036833701905050925060005b8551811015613472578581815181106133cf576133cf614e38565b60200260200101516001600160a01b03166370a08231306040518263ffffffff1660e01b81526004016134029190615063565b602060405180830381865afa15801561341f573d6000803e3d6000fd5b505050506040513d601f19601f820116820180604052508101906134439190615005565b84828151811061345557613455614e38565b60209081029190910101528061346a8161501e565b9150506133b4565b5060408051600480825260a0820190925290602082016080803683370190505093506000811180156134b757506004860154630100000090046001600160801b031615155b1561380657604080516080810182528281523060208201526001600160801b038183018190526060820152905163fc6f786560e01b81526000805160206159f58339815191529163fc6f786591613511919060040161535e565b60408051808303816000875af115801561352f573d6000803e3d6000fd5b505050506040513d601f19601f820116820180604052508101906135539190614e14565b8560008151811061356657613566614e38565b602002602001018660018151811061358057613580614e38565b60200260200101828152508281525050507f15097721483fb2e62f76b9953e3601b26e7cc79208a0191df6fa701c6148744d846000815181106135c5576135c5614e38565b6020026020010151856001815181106135e0576135e0614e38565b60200260200101516040516135ff929190918252602082015260400190565b60405180910390a16003860154600160a81b900460ff161561368e578360018151811061362e5761362e614e38565b60200260200101518460008151811061364957613649614e38565b60200260200101518560008151811061366457613664614e38565b602002602001018660018151811061367e5761367e614e38565b6020908102919091010191909152525b6136a061369a87613c8a565b82613d00565b856002815181106136b3576136b3614e38565b60200260200101866003815181106136cd576136cd614e38565b602002602001018281525082815250505061371e856002815181106136f4576136f4614e38565b602002602001015160008660028151811061371157613711614e38565b6020026020010151613d84565b8460028151811061373157613731614e38565b6020026020010181815250506137708560038151811061375357613753614e38565b602002602001015160008660038151811061371157613711614e38565b8460038151811061378357613783614e38565b6020026020010181815250507f2f1396dffa36013d7e1df1ec39cb355b5ff604d56e817a88ed2a0d40995adcb8846002815181106137c3576137c3614e38565b6020026020010151856003815181106137de576137de614e38565b60200260200101516040516137fd929190918252602082015260400190565b60405180910390a15b60005b855181101561396b57600086828151811061382657613826614e38565b60200260200101516001600160a01b03166370a08231856040518263ffffffff1660e01b81526004016138599190615063565b602060405180830381865afa158015613876573d6000803e3d6000fd5b505050506040513d601f19601f8201168201806040525081019061389a9190615005565b9050801561395a578682815181106138b4576138b4614e38565b60200260200101516001600160a01b03166323b872dd8530846040518463ffffffff1660e01b81526004016138eb93929190614df0565b6020604051808303816000875af115801561390a573d6000803e3d6000fd5b505050506040513d601f19601f8201168201806040525081019061392e9190614fe8565b508086838151811061394257613942614e38565b602002602001018181516139569190614d9c565b9052505b506139648161501e565b9050613809565b5050509193909250565b6000806000866001600160a01b031663d21220a76040518163ffffffff1660e01b8152600401602060405180830381865afa1580156139b8573d6000803e3d6000fd5b505050506040513d601f19601f820116820180604052508101906139dc9190614e7b565b604051635620c32d60e11b81526001600160a01b03808a1660048301528216602482015290915060009073__$5ce7b97fe3b9dad27bffcf1c56869f0b10$__9063ac41865a90604401602060405180830381865af4158015613a42573d6000803e3d6000fd5b505050506040513d601f19601f82011682018060405250810190613a669190615005565b90506000826001600160a01b031663313ce5676040518163ffffffff1660e01b8152600401602060405180830381865afa158015613aa8573d6000803e3d6000fd5b505050506040513d601f19601f82011682018060405250810190613acc9190615048565b60ff169050816000613adf83600a615959565b60408051808201909152601081526f54532d3234207a65726f2076616c756560801b602082015290915081613b275760405162461bcd60e51b81526004016103ef9190614c8f565b506040516305f08b0f60e21b81526001600160a01b038c16600482015260028b810b60248301528a900b60448201526064810183905260848101829052600090819073__$5ce7b97fe3b9dad27bffcf1c56869f0b10$__906317c22c3c9060a401606060405180830381865af4158015613ba5573d6000803e3d6000fd5b505050506040513d601f19601f82011682018060405250810190613bc99190615965565b509150915089613c1257613be582670de0b6b3a7640000614daf565b8387613bf984670de0b6b3a7640000614daf565b613c039190614daf565b613c0d9190614ddc565b613c4c565b8286613c2683670de0b6b3a7640000614daf565b613c309190614daf565b613c3a9190614ddc565b613c4c83670de0b6b3a7640000614daf565b985098505050505050505094509492505050565b6000806000613c6e876141db565b9050613c7c8187878761424c565b925092505094509492505050565b6040805160a081018252600080825260208201819052918101829052606081018290526080810191909152506040805160a08101825260328301546001600160a01b0390811682526033840154811660208301528354169181019190915260348201546060820152603590910154608082015290565b6040516307cf0b0f60e31b815260009081906000805160206159f583398151915290633e78587890613d38908790879060040161585a565b60408051808303816000875af1925050508015613d72575060408051601f3d908101601f19168201909252613d6f91810190614e14565b60015b15613d7d5790925090505b9250929050565b6000811561327957604051633f46232960e21b81526001600160a01b038516600482015230602482015260006044820152606481018390526000805160206159f58339815191529063fd188ca4906084016020604051808303816000875af1925050508015613e10575060408051601f3d908101601f19168201909252613e0d91810190615005565b60015b15613279576001600160a01b03841615613eb657613e9a83866001600160a01b03166370a08231306040518263ffffffff1660e01b8152600401613e549190615063565b602060405180830381865afa158015613e71573d6000803e3d6000fd5b505050506040513d601f19601f82011682018060405250810190613e959190615005565b614316565b91508115613eb657613eb66001600160a01b0386168584613ebe565b509392505050565b613f148363a9059cbb60e01b8484604051602401613edd929190614fcf565b60408051601f198184030181529190526020810180516001600160e01b03166001600160e01b03199093169290921790915261432c565b505050565b81546001600160a01b0316604080860191909152805160608101909152600583018054829060ff166003811115613f5257613f52615622565b6003811115613f6357613f63615622565b815260408051608081019182905260209092019190600184019060049082845b815481526020019060010190808311613f8357505050918352505060408051608081019182905260209092019190600584019060049082845b815481526020019060010190808311613fbc575050509190925250505084526001600160a01b03838116602080870191909152600284015482166060870181905260038501549283166080880152600160a01b90920460ff16151560a087015260009182528290526040902054614032906143fe565b60c08501515260808401516001600160a01b031660009081526020829052604090205461405e906143fe565b60c08501516001602002018181525050600084606001516001600160a01b031663313ce5676040518163ffffffff1660e01b8152600401602060405180830381865afa1580156140b2573d6000803e3d6000fd5b505050506040513d601f19601f820116820180604052508101906140d69190615048565b60ff169050601281106140ea576001614100565b6140f58160126153a1565b61410090600a615959565b6101409095019490945250505050565b6000816001600160a01b031663f77c47916040518163ffffffff1660e01b8152600401602060405180830381865afa158015614150573d6000803e3d6000fd5b505050506040513d601f19601f820116820180604052508101906141749190614e7b565b6001600160a01b0316632630c12f6040518163ffffffff1660e01b8152600401602060405180830381865afa1580156141b1573d6000803e3d6000fd5b505050506040513d601f19601f820116820180604052508101906141d59190614e7b565b92915050565b6000816001600160a01b031663e76c01e46040518163ffffffff1660e01b815260040160e060405180830381865afa15801561421b573d6000803e3d6000fd5b505050506040513d601f19601f8201168201806040525081019061423f91906150cf565b5093979650505050505050565b6000808061425a8686615993565b905060008460020b8260020b1461427b57614276600283614ec0565b61427e565b60005b60405163cd8e20e760e01b815260028a810b600483015282810b602483015287900b604482015290915073__$b1ba452cecccdd06eb05ace2d0a762c7e1$__9063cd8e20e7906064016040805180830381865af41580156142e3573d6000803e3d6000fd5b505050506040513d601f19601f820116820180604052508101906143079190614f1a565b93509350505094509492505050565b60008183106143255781613279565b5090919050565b6000614381826040518060400160405280602081526020017f5361666545524332303a206c6f772d6c6576656c2063616c6c206661696c6564815250856001600160a01b03166144169092919063ffffffff16565b805190915015613f14578080602001905181019061439f9190614fe8565b613f145760405162461bcd60e51b815260206004820152602a60248201527f5361666545524332303a204552433230206f7065726174696f6e20646964206e6044820152691bdd081cdd58d8d9595960b21b60648201526084016103ef565b6000811561440c57816141d5565b620186a092915050565b6060610d59848460008585600080866001600160a01b0316858760405161443d91906159b8565b60006040518083038185875af1925050503d806000811461447a576040519150601f19603f3d011682016040523d82523d6000602084013e61447f565b606091505b50915091506144908783838761449b565b979650505050505050565b6060831561450a578251600003614503576001600160a01b0385163b6145035760405162461bcd60e51b815260206004820152601d60248201527f416464726573733a2063616c6c20746f206e6f6e2d636f6e747261637400000060448201526064016103ef565b5081610d59565b610d59838381511561451f5781518083602001fd5b8060405162461bcd60e51b81526004016103ef9190614c8f565b60405180608001604052806004906020820280368337509192915050565b60405180610160016040528061456b6145bd565b815260006020820181905260408201819052606082018190526080820181905260a082015260c00161459b6145ea565b8152600060208201819052604082018190526060820181905260809091015290565b604080516060810190915280600081526020016145d8614539565b81526020016145e5614539565b905290565b60405180604001604052806002906020820280368337509192915050565b6001600160a01b038116811461461d57600080fd5b50565b8060020b811461461d57600080fd5b801515811461461d57600080fd5b6000806000806080858703121561465357600080fd5b843561465e81614608565b9350602085013561466e81614620565b9250604085013561467e81614620565b9150606085013561468e8161462f565b939692955090935050565b6000602082840312156146ab57600080fd5b5035919050565b80604081018310156141d557600080fd5b80608081018310156141d557600080fd5b6000806000806000806000610160888a0312156146f057600080fd5b873596506147018960208a016146b2565b9550606088013561471181614620565b9450608088013561472181614620565b935060a088013561473181614608565b925060c08801356147418161462f565b91506147508960e08a016146c3565b905092959891949750929550565b634e487b7160e01b600052604160045260246000fd5b604051601f8201601f1916810167ffffffffffffffff8111828210171561479d5761479d61475e565b604052919050565b600067ffffffffffffffff8211156147bf576147bf61475e565b5060051b60200190565b600082601f8301126147da57600080fd5b813560206147ef6147ea836147a5565b614774565b82815260059290921b8401810191818101908684111561480e57600080fd5b8286015b848110156148295780358352918301918301614812565b509695505050505050565b6000806000806080858703121561484a57600080fd5b843561485581614608565b935060208581013561486681614608565b9350604086013567ffffffffffffffff8082111561488357600080fd5b818801915088601f83011261489757600080fd5b81356148a56147ea826147a5565b81815260059190911b8301840190848101908b8311156148c457600080fd5b938501935b828510156148eb5784356148dc81614608565b825293850193908501906148c9565b96505050606088013592508083111561490357600080fd5b5050614911878288016147c9565b91505092959194509250565b6000806040838503121561493057600080fd5b82359150602083013561494281614608565b809150509250929050565b600081518084526020808501945080840160005b8381101561497d57815187529582019590820190600101614961565b509495945050505050565b602081526000613279602083018461494d565b600067ffffffffffffffff8211156149b5576149b561475e565b50601f01601f191660200190565b600082601f8301126149d457600080fd5b81356149e26147ea8261499b565b8181528460208386010111156149f757600080fd5b816020850160208301376000918101602001919091529392505050565b60008060008060008060006101c0888a031215614a3057600080fd5b8735965060c0880189811115614a4557600080fd5b602089019650614a558a826146c3565b95505061014088013567ffffffffffffffff80821115614a7457600080fd5b614a808b838c016149c3565b95506101608a0135915080821115614a9757600080fd5b50614aa48a828b016149c3565b93505061018088013591506101a0880135905092959891949750929550565b8215158152604060208201526000610d59604083018461494d565b6001600160801b038116811461461d57600080fd5b60008060408385031215614b0657600080fd5b82359150602083013561494281614ade565b600080600060608486031215614b2d57600080fd5b833592506020840135614b3f81614ade565b91506040840135614b4f8161462f565b809150509250925092565b60008060408385031215614b6d57600080fd5b82359150602083013567ffffffffffffffff811115614b8b57600080fd5b614b97858286016147c9565b9150509250929050565b604081526000614bb4604083018561494d565b90508260208301529392505050565b600080600080600080600080610120898b031215614be057600080fd5b8835975060208901359650614bf88a60408b016146b2565b95506080890135945060a0890135935060c0890135614c1681614608565b925060e0890135614c268161462f565b8092505061010089013590509295985092959890939650565b60005b83811015614c5a578181015183820152602001614c42565b50506000910152565b60008151808452614c7b816020860160208601614c3f565b601f01601f19169290920160200192915050565b6020815260006132796020830184614c63565b60008082840360c0811215614cb657600080fd5b8335925060a0601f1982011215614ccc57600080fd5b506020830190509250929050565b600080600060608486031215614cef57600080fd5b833592506020840135614d0181614608565b91506040840135614b4f81614608565b606080825284519082018190526000906020906080840190828801845b82811015614d535781516001600160a01b031684529284019290840190600101614d2e565b50505083810382850152614d67818761494d565b9150508281036040840152614d7c818561494d565b9695505050505050565b634e487b7160e01b600052601160045260246000fd5b808201808211156141d5576141d5614d86565b80820281158282048414176141d5576141d5614d86565b634e487b7160e01b600052601260045260246000fd5b600082614deb57614deb614dc6565b500490565b6001600160a01b039384168152919092166020820152604081019190915260600190565b60008060408385031215614e2757600080fd5b505080516020909101519092909150565b634e487b7160e01b600052603260045260246000fd5b600060208284031215614e6057600080fd5b813561327981614608565b8051614e7681614608565b919050565b600060208284031215614e8d57600080fd5b815161327981614608565b8051614e7681614620565b600060208284031215614eb557600080fd5b815161327981614620565b60008160020b8360020b80614ed757614ed7614dc6565b627fffff19821460001982141615614ef157614ef1614d86565b90059392505050565b60008260020b8260020b028060020b915080821461167f5761167f614d86565b60008060408385031215614f2d57600080fd5b8251614f3881614620565b602084015190925061494281614620565b60808183375050565b8581526101c0810160208083018760005b6004811015614f895781516001600160a01b031683529183019190830190600101614f63565b50505060a083018660005b6004811015614fb457815160020b83529183019190830190600101614f94565b50505050831515610120830152614d7c610140830184614f49565b6001600160a01b03929092168252602082015260400190565b600060208284031215614ffa57600080fd5b81516132798161462f565b60006020828403121561501757600080fd5b5051919050565b60006001820161503057615030614d86565b5060010190565b805160ff81168114614e7657600080fd5b60006020828403121561505a57600080fd5b61327982615037565b6001600160a01b0391909116815260200190565b60008060006060848603121561508c57600080fd5b83516150978161462f565b60208501519093506150a88161462f565b604085015190925060048110614b4f57600080fd5b805161ffff81168114614e7657600080fd5b600080600080600080600060e0888a0312156150ea57600080fd5b87516150f581614608565b602089015190975061510681614620565b9550615114604089016150bd565b9450615122606089016150bd565b935061513060808901615037565b925061513e60a08901615037565b915060c088015161514e8161462f565b8091505092959891949750929550565b6001600160a01b03949094168452600292830b6020850152910b60408301526001600160801b0316606082015260800190565b60006101c08289835b60058110156151cc5781356151ae81614608565b6001600160a01b03168352602092830192919091019060010161519a565b50505060808860a0850137806101208401526151ea81840188614c63565b90508281036101408401526151ff8187614c63565b91505061016082018460005b60028110156152335781516001600160a01b031683526020928301929091019060010161520b565b505050826101a0830152979650505050505050565b600082601f83011261525957600080fd5b815160206152696147ea836147a5565b82815260059290921b8401810191818101908684111561528857600080fd5b8286015b84811015614829578051835291830191830161528c565b6000806000606084860312156152b857600080fd5b83516152c38161462f565b602085015190935067ffffffffffffffff8111156152e057600080fd5b6152ec86828701615248565b925050604084015190509250925092565b80516001600160a01b0390811683526020808301518216908401526040808301519091169083015260608082015190830152608090810151910152565b60e0810161534882866152fd565b8360a083015282151560c0830152949350505050565b815181526020808301516001600160a01b0316908201526040808301516001600160801b0390811691830191909152606092830151169181019190915260800190565b818103818111156141d5576141d5614d86565b6001600160801b0382811682821603908082111561167f5761167f614d86565b61010081016153e382876152fd565b8460a08301528360c083015282151560e083015295945050505050565b8051614e7681614ade565b60008060008060008060008060008060006101608c8e03121561542d57600080fd5b8b516bffffffffffffffffffffffff8116811461544957600080fd5b60208d0151909b5061545a81614608565b60408d0151909a5061546b81614608565b985061547960608d01614e6b565b975061548760808d01614e98565b965061549560a08d01614e98565b95506154a360c08d01615400565b945060e08c015193506101008c015192506154c16101208d01615400565b91506154d06101408d01615400565b90509295989b509295989b9093969950565b81516001600160a01b031681526101408101602083015161550e60208401826001600160a01b03169052565b506040830151615523604084018260020b9052565b506060830151615538606084018260020b9052565b506080830151608083015260a083015160a083015260c083015160c083015260e083015160e08301526101008084015161557c828501826001600160a01b03169052565b505061012092830151919092015290565b600080600080608085870312156155a357600080fd5b8451935060208501516155b581614ade565b6040860151606090960151949790965092505050565b6000806000606084860312156155e057600080fd5b83516155eb81614ade565b602085015160409095015190969495509392505050565b6001600160801b0381811683821601908082111561167f5761167f614d86565b634e487b7160e01b600052602160045260246000fd5b8381528215156020820152606081016004831061566557634e487b7160e01b600052602160045260246000fd5b826040830152949350505050565b8060005b6002811015615696578151845260209384019390910190600101615677565b50505050565b6101208101818960005b60028110156156d85781356156ba81614608565b6001600160a01b0316835260209283019291909101906001016156a6565b5050506040820188905260608201879052608082018690526001600160a01b03851660a083015261570c60c0830185615673565b8260020b61010083015298975050505050505050565b6001600160a01b0386811682526020820186905284811660408301528316606082015260c08101614d7c6080830184615673565b6000806040838503121561576957600080fd5b82519150602083015167ffffffffffffffff81111561578757600080fd5b614b9785828601615248565b6000602082840312156157a557600080fd5b815167ffffffffffffffff8111156157bc57600080fd5b8201601f810184136157cd57600080fd5b80516157db6147ea8261499b565b8181528560208385010111156157f057600080fd5b615801826020830160208601614c3f565b95945050505050565b67020b633b2b13930960c51b81526000835161582d816008850160208801614c3f565b602f60f81b600891840191820152835161584e816009840160208801614c3f565b01600901949350505050565b60c0810161586882856152fd565b8260a08301529392505050565b600181815b808511156158b057816000190482111561589657615896614d86565b808516156158a357918102915b93841c939080029061587a565b509250929050565b6000826158c7575060016141d5565b816158d4575060006141d5565b81600181146158ea57600281146158f457615910565b60019150506141d5565b60ff84111561590557615905614d86565b50506001821b6141d5565b5060208310610133831016604e8410600b8410161715615933575081810a6141d5565b61593d8383615875565b806000190482111561595157615951614d86565b029392505050565b600061327983836158b8565b60008060006060848603121561597a57600080fd5b83519250602084015191506040840151614b4f81614ade565b600282810b9082900b03627fffff198112627fffff821317156141d5576141d5614d86565b600082516159ca818460208701614c3f565b919091019291505056fe0000000000000000000000008ef88e4c7cfbbac1c163f7eddd4b578792201de60000000000000000000000007f281a8cdf66ef5e9db8434ec6d97acc1bc01e7841532d3420496e636f727265637420726562616c616e63655469636b52616e6765a2646970667358221220ed60772f117e7ae740d5e5b2d8c36eba760afd9907a05c1d224a67e77252060164736f6c63430008110033",
  "libraries": {
    "AlgebraLib": "0xF553b1372610a3415BA5C2937d8F4c45fe6EB509",
    "AlgebraDebtLib": "0x027f8EA87Cd1B182573E4390d39CBd55Dd7118D4",
    "ConverterStrategyBaseLib2": "0xdcd94dd273297F5c64DE5FdFDfe5B2079a3a4279",
    "PairBasedStrategyLogicLib": "0x94B746c50ac5d1A40BeB3494337B0Ea43E502a3d",
    "PairBasedStrategyLib": "0x0fD6eAFC423D4A91387752343cE78e7f4bA6BD02"
  },
  "devdoc": {
    "events": {
      "CoverLoss(uint256,uint256)": {
        "params": {
          "coveredByRewards": "Part of the loss covered by rewards",
          "loss": "Total amount of loss"
        }
      }
    },
    "kind": "dev",
    "methods": {
      "exit(AlgebraConverterStrategyLogicLib.State storage,uint128,bool)": {
        "params": {
          "emergency": "Emergency exit (only withdraw, don't claim any rewards or make any other additional actions)"
        }
      },
      "getEntryDataProportions(IAlgebraPool,int24,int24,bool)": {
        "params": {
          "depositorSwapTokens": "A boolean indicating if need to use token B instead of token A.",
          "lowerTick": "The lower tick of the pool's main range.",
          "pool": "Pool instance.",
          "upperTick": "The upper tick of the pool's main range."
        },
        "returns": {
          "_0": "prop0 Proportion onf token A. Any decimals are allowed, prop[0 or 1]/(prop0 + prop1) are important only",
          "_1": "prop1 Proportion onf token B. Any decimals are allowed, prop[0 or 1]/(prop0 + prop1) are important only"
        }
      },
      "initStrategyState(AlgebraConverterStrategyLogicLib.State storage,address[2],int24,int24,address,bool,uint256[4])": {
        "params": {
          "controllerPool": "[controller, pool]",
          "fuseThresholds": "Fuse thresholds for tokens (stable pool only)"
        }
      },
      "needStrategyRebalance(PairBasedStrategyLogicLib.PairState storage,ITetuConverter)": {
        "returns": {
          "needRebalance": "A boolean indicating if {rebalanceNoSwaps} should be called"
        }
      },
      "rebalanceNoSwaps(IConverterStrategyBase.ConverterStrategyBaseState storage,PairBasedStrategyLogicLib.PairState storage,address[2],uint256,uint256,address,bool,mapping(address => uint256) storage)": {
        "params": {
          "checkNeedRebalance_": "True if the function should ensure that the rebalance is required",
          "converterLiquidator": "[TetuConverter, TetuLiquidator]",
          "totalAssets_": "Current value of totalAssets()"
        },
        "returns": {
          "tokenAmounts": "Token amounts for deposit. If length == 0 - rebalance wasn't made and no deposit is required."
        }
      },
      "withdrawByAggStep(IConverterStrategyBase.ConverterStrategyBaseState storage,address[5],uint256[4],bytes,bytes,PairBasedStrategyLogicLib.PairState storage,mapping(address => uint256) storage)": {
        "params": {
          "addr_": "[tokenToSwap, aggregator, controller, converter, splitter]",
          "values_": "[amountToSwap_, profitToCover, oldTotalAssets, entryToPool]"
        },
        "returns": {
          "completed": "All debts were closed, leftovers were swapped to proper proportions",
          "tokenAmountsOut": "Amounts to be deposited to pool. This array is empty if no deposit allowed/required."
        }
      }
    },
    "version": 1
  },
  "userdoc": {
    "kind": "user",
    "methods": {
      "getEntryDataProportions(IAlgebraPool,int24,int24,bool)": {
        "notice": "Calculate proportions of the tokens for entry kind 1"
      },
      "getPropNotUnderlying18(PairBasedStrategyLogicLib.PairState storage)": {
        "notice": "Get proportion of not-underlying in the pool, [0...1e18]         prop.underlying : prop.not.underlying = 1e18 - PropNotUnderlying18 : propNotUnderlying18"
      },
      "needStrategyRebalance(PairBasedStrategyLogicLib.PairState storage,ITetuConverter)": {
        "notice": "Determine if the strategy needs to be rebalanced."
      },
      "rebalanceNoSwaps(IConverterStrategyBase.ConverterStrategyBaseState storage,PairBasedStrategyLogicLib.PairState storage,address[2],uint256,uint256,address,bool,mapping(address => uint256) storage)": {
        "notice": "Make rebalance without swaps (using borrowing only)."
      }
    },
    "version": 1
  },
  "storageLayout": {
    "storage": [],
    "types": null
  }
}