{
  "address": "0xDa780066A91015785D6BE266649fB3d26666dA44",
  "abi": [
    {
      "anonymous": false,
      "inputs": [
        {
          "indexed": false,
          "internalType": "address",
          "name": "controller",
          "type": "address"
        },
        {
          "indexed": false,
          "internalType": "uint256",
          "name": "ts",
          "type": "uint256"
        },
        {
          "indexed": false,
          "internalType": "uint256",
          "name": "block",
          "type": "uint256"
        }
      ],
      "name": "ContractInitialized",
      "type": "event"
    },
    {
      "anonymous": false,
      "inputs": [
        {
          "indexed": false,
          "internalType": "uint8",
          "name": "version",
          "type": "uint8"
        }
      ],
      "name": "Initialized",
      "type": "event"
    },
    {
      "anonymous": false,
      "inputs": [
        {
          "indexed": false,
          "internalType": "uint256[]",
          "name": "withdrawnAmounts",
          "type": "uint256[]"
        }
      ],
      "name": "OnDepositorEmergencyExit",
      "type": "event"
    },
    {
      "anonymous": false,
      "inputs": [
        {
          "indexed": false,
          "internalType": "uint256[]",
          "name": "amounts",
          "type": "uint256[]"
        },
        {
          "indexed": false,
          "internalType": "uint256[]",
          "name": "consumedAmounts",
          "type": "uint256[]"
        }
      ],
      "name": "OnDepositorEnter",
      "type": "event"
    },
    {
      "anonymous": false,
      "inputs": [
        {
          "indexed": false,
          "internalType": "uint256",
          "name": "liquidityAmount",
          "type": "uint256"
        },
        {
          "indexed": false,
          "internalType": "uint256[]",
          "name": "withdrawnAmounts",
          "type": "uint256[]"
        }
      ],
      "name": "OnDepositorExit",
      "type": "event"
    },
    {
      "anonymous": false,
      "inputs": [
        {
          "indexed": false,
          "internalType": "uint256",
          "name": "investedAssetsNewPrices",
          "type": "uint256"
        },
        {
          "indexed": false,
          "internalType": "uint256",
          "name": "earnedByPrices",
          "type": "uint256"
        },
        {
          "indexed": false,
          "internalType": "uint256",
          "name": "earnedHandleRewards",
          "type": "uint256"
        },
        {
          "indexed": false,
          "internalType": "uint256",
          "name": "lostHandleRewards",
          "type": "uint256"
        },
        {
          "indexed": false,
          "internalType": "uint256",
          "name": "earnedDeposit",
          "type": "uint256"
        },
        {
          "indexed": false,
          "internalType": "uint256",
          "name": "lostDeposit",
          "type": "uint256"
        },
        {
          "indexed": false,
          "internalType": "uint256",
          "name": "paidDebtToInsurance",
          "type": "uint256"
        },
        {
          "indexed": false,
          "internalType": "uint256",
          "name": "amountPerf",
          "type": "uint256"
        }
      ],
      "name": "OnHardWorkEarnedLost",
      "type": "event"
    },
    {
      "anonymous": false,
      "inputs": [
        {
          "indexed": false,
          "internalType": "uint256",
          "name": "value",
          "type": "uint256"
        },
        {
          "indexed": false,
          "internalType": "address",
          "name": "oldLogic",
          "type": "address"
        }
      ],
      "name": "RevisionIncreased",
      "type": "event"
    },
    {
      "inputs": [],
      "name": "ALGEBRA_DEPOSITOR_VERSION",
      "outputs": [
        {
          "internalType": "string",
          "name": "",
          "type": "string"
        }
      ],
      "stateMutability": "view",
      "type": "function"
    },
    {
      "inputs": [],
      "name": "CONTROLLABLE_VERSION",
      "outputs": [
        {
          "internalType": "string",
          "name": "",
          "type": "string"
        }
      ],
      "stateMutability": "view",
      "type": "function"
    },
    {
      "inputs": [],
      "name": "CONVERTER_STRATEGY_BASE_VERSION",
      "outputs": [
        {
          "internalType": "string",
          "name": "",
          "type": "string"
        }
      ],
      "stateMutability": "view",
      "type": "function"
    },
    {
      "inputs": [],
      "name": "NAME",
      "outputs": [
        {
          "internalType": "string",
          "name": "",
          "type": "string"
        }
      ],
      "stateMutability": "view",
      "type": "function"
    },
    {
      "inputs": [],
      "name": "PLATFORM",
      "outputs": [
        {
          "internalType": "string",
          "name": "",
          "type": "string"
        }
      ],
      "stateMutability": "view",
      "type": "function"
    },
    {
      "inputs": [],
      "name": "STRATEGY_BASE_VERSION",
      "outputs": [
        {
          "internalType": "string",
          "name": "",
          "type": "string"
        }
      ],
      "stateMutability": "view",
      "type": "function"
    },
    {
      "inputs": [],
      "name": "STRATEGY_VERSION",
      "outputs": [
        {
          "internalType": "string",
          "name": "",
          "type": "string"
        }
      ],
      "stateMutability": "view",
      "type": "function"
    },
    {
      "inputs": [],
      "name": "asset",
      "outputs": [
        {
          "internalType": "address",
          "name": "",
          "type": "address"
        }
      ],
      "stateMutability": "view",
      "type": "function"
    },
    {
      "inputs": [],
      "name": "calcInvestedAssets",
      "outputs": [
        {
          "internalType": "uint256",
          "name": "investedAssetsOut",
          "type": "uint256"
        }
      ],
      "stateMutability": "nonpayable",
      "type": "function"
    },
    {
      "inputs": [],
      "name": "capacity",
      "outputs": [
        {
          "internalType": "uint256",
          "name": "",
          "type": "uint256"
        }
      ],
      "stateMutability": "view",
      "type": "function"
    },
    {
      "inputs": [],
      "name": "claim",
      "outputs": [],
      "stateMutability": "nonpayable",
      "type": "function"
    },
    {
      "inputs": [],
      "name": "compoundRatio",
      "outputs": [
        {
          "internalType": "uint256",
          "name": "",
          "type": "uint256"
        }
      ],
      "stateMutability": "view",
      "type": "function"
    },
    {
      "inputs": [],
      "name": "controller",
      "outputs": [
        {
          "internalType": "address",
          "name": "",
          "type": "address"
        }
      ],
      "stateMutability": "view",
      "type": "function"
    },
    {
      "inputs": [],
      "name": "converter",
      "outputs": [
        {
          "internalType": "contract ITetuConverter",
          "name": "",
          "type": "address"
        }
      ],
      "stateMutability": "view",
      "type": "function"
    },
    {
      "inputs": [],
      "name": "created",
      "outputs": [
        {
          "internalType": "uint256",
          "name": "",
          "type": "uint256"
        }
      ],
      "stateMutability": "view",
      "type": "function"
    },
    {
      "inputs": [],
      "name": "createdBlock",
      "outputs": [
        {
          "internalType": "uint256",
          "name": "",
          "type": "uint256"
        }
      ],
      "stateMutability": "view",
      "type": "function"
    },
    {
      "inputs": [],
      "name": "debtToInsurance",
      "outputs": [
        {
          "internalType": "int256",
          "name": "",
          "type": "int256"
        }
      ],
      "stateMutability": "view",
      "type": "function"
    },
    {
      "inputs": [],
      "name": "doHardWork",
      "outputs": [
        {
          "internalType": "uint256",
          "name": "earned",
          "type": "uint256"
        },
        {
          "internalType": "uint256",
          "name": "lost",
          "type": "uint256"
        }
      ],
      "stateMutability": "nonpayable",
      "type": "function"
    },
    {
      "inputs": [],
      "name": "emergencyExit",
      "outputs": [],
      "stateMutability": "nonpayable",
      "type": "function"
    },
    {
      "inputs": [],
      "name": "getDefaultState",
      "outputs": [
        {
          "internalType": "address[]",
          "name": "addr",
          "type": "address[]"
        },
        {
          "internalType": "int24[]",
          "name": "tickData",
          "type": "int24[]"
        },
        {
          "internalType": "uint256[]",
          "name": "nums",
          "type": "uint256[]"
        },
        {
          "internalType": "bool[]",
          "name": "boolValues",
          "type": "bool[]"
        }
      ],
      "stateMutability": "view",
      "type": "function"
    },
    {
      "inputs": [],
      "name": "getFees",
      "outputs": [
        {
          "internalType": "uint256",
          "name": "fee0",
          "type": "uint256"
        },
        {
          "internalType": "uint256",
          "name": "fee1",
          "type": "uint256"
        }
      ],
      "stateMutability": "view",
      "type": "function"
    },
    {
      "inputs": [],
      "name": "getPropNotUnderlying18",
      "outputs": [
        {
          "internalType": "uint256",
          "name": "",
          "type": "uint256"
        }
      ],
      "stateMutability": "view",
      "type": "function"
    },
    {
      "inputs": [
        {
          "internalType": "uint256",
          "name": "slot",
          "type": "uint256"
        }
      ],
      "name": "getSlot",
      "outputs": [
        {
          "internalType": "bytes32",
          "name": "result",
          "type": "bytes32"
        }
      ],
      "stateMutability": "view",
      "type": "function"
    },
    {
      "inputs": [],
      "name": "getSpecificState",
      "outputs": [
        {
          "internalType": "uint256[]",
          "name": "nums",
          "type": "uint256[]"
        }
      ],
      "stateMutability": "view",
      "type": "function"
    },
    {
      "inputs": [
        {
          "internalType": "address",
          "name": "oldLogic",
          "type": "address"
        }
      ],
      "name": "increaseRevision",
      "outputs": [],
      "stateMutability": "nonpayable",
      "type": "function"
    },
    {
      "inputs": [
        {
          "internalType": "address",
          "name": "controller_",
          "type": "address"
        },
        {
          "internalType": "address",
          "name": "splitter_",
          "type": "address"
        },
        {
          "internalType": "address",
          "name": "converter_",
          "type": "address"
        },
        {
          "internalType": "address",
          "name": "pool_",
          "type": "address"
        },
        {
          "internalType": "int24",
          "name": "tickRange_",
          "type": "int24"
        },
        {
          "internalType": "int24",
          "name": "rebalanceTickRange_",
          "type": "int24"
        },
        {
          "internalType": "bool",
          "name": "isStablePool",
          "type": "bool"
        },
        {
          "components": [
            {
              "internalType": "address",
              "name": "rewardToken",
              "type": "address"
            },
            {
              "internalType": "address",
              "name": "bonusRewardToken",
              "type": "address"
            },
            {
              "internalType": "address",
              "name": "pool",
              "type": "address"
            },
            {
              "internalType": "uint256",
              "name": "startTime",
              "type": "uint256"
            },
            {
              "internalType": "uint256",
              "name": "endTime",
              "type": "uint256"
            }
          ],
          "internalType": "struct IncentiveKey",
          "name": "key",
          "type": "tuple"
        },
        {
          "internalType": "uint256[4]",
          "name": "fuseThresholds",
          "type": "uint256[4]"
        }
      ],
      "name": "init",
      "outputs": [],
      "stateMutability": "nonpayable",
      "type": "function"
    },
    {
      "inputs": [
        {
          "internalType": "uint256",
          "name": "",
          "type": "uint256"
        },
        {
          "internalType": "bool",
          "name": "updateTotalAssetsBeforeInvest_",
          "type": "bool"
        }
      ],
      "name": "investAll",
      "outputs": [
        {
          "internalType": "uint256",
          "name": "strategyLoss",
          "type": "uint256"
        }
      ],
      "stateMutability": "nonpayable",
      "type": "function"
    },
    {
      "inputs": [],
      "name": "investedAssets",
      "outputs": [
        {
          "internalType": "uint256",
          "name": "",
          "type": "uint256"
        }
      ],
      "stateMutability": "view",
      "type": "function"
    },
    {
      "inputs": [
        {
          "internalType": "address",
          "name": "_value",
          "type": "address"
        }
      ],
      "name": "isController",
      "outputs": [
        {
          "internalType": "bool",
          "name": "",
          "type": "bool"
        }
      ],
      "stateMutability": "view",
      "type": "function"
    },
    {
      "inputs": [
        {
          "internalType": "address",
          "name": "_value",
          "type": "address"
        }
      ],
      "name": "isGovernance",
      "outputs": [
        {
          "internalType": "bool",
          "name": "",
          "type": "bool"
        }
      ],
      "stateMutability": "view",
      "type": "function"
    },
    {
      "inputs": [],
      "name": "isReadyToHardWork",
      "outputs": [
        {
          "internalType": "bool",
          "name": "",
          "type": "bool"
        }
      ],
      "stateMutability": "view",
      "type": "function"
    },
    {
      "inputs": [
        {
          "internalType": "address",
          "name": "",
          "type": "address"
        }
      ],
      "name": "liquidationThresholds",
      "outputs": [
        {
          "internalType": "uint256",
          "name": "",
          "type": "uint256"
        }
      ],
      "stateMutability": "view",
      "type": "function"
    },
    {
      "inputs": [],
      "name": "needRebalance",
      "outputs": [
        {
          "internalType": "bool",
          "name": "",
          "type": "bool"
        }
      ],
      "stateMutability": "view",
      "type": "function"
    },
    {
      "inputs": [
        {
          "internalType": "address",
          "name": "",
          "type": "address"
        },
        {
          "internalType": "address",
          "name": "",
          "type": "address"
        },
        {
          "internalType": "uint256",
          "name": "",
          "type": "uint256"
        },
        {
          "internalType": "bytes",
          "name": "",
          "type": "bytes"
        }
      ],
      "name": "onERC721Received",
      "outputs": [
        {
          "internalType": "bytes4",
          "name": "",
          "type": "bytes4"
        }
      ],
      "stateMutability": "pure",
      "type": "function"
    },
    {
      "inputs": [
        {
          "internalType": "address[]",
          "name": "assets_",
          "type": "address[]"
        },
        {
          "internalType": "uint256[]",
          "name": "amounts_",
          "type": "uint256[]"
        }
      ],
      "name": "onTransferAmounts",
      "outputs": [],
      "stateMutability": "nonpayable",
      "type": "function"
    },
    {
      "inputs": [],
      "name": "performanceFee",
      "outputs": [
        {
          "internalType": "uint256",
          "name": "",
          "type": "uint256"
        }
      ],
      "stateMutability": "view",
      "type": "function"
    },
    {
      "inputs": [],
      "name": "performanceFeeRatio",
      "outputs": [
        {
          "internalType": "uint256",
          "name": "",
          "type": "uint256"
        }
      ],
      "stateMutability": "view",
      "type": "function"
    },
    {
      "inputs": [],
      "name": "performanceReceiver",
      "outputs": [
        {
          "internalType": "address",
          "name": "",
          "type": "address"
        }
      ],
      "stateMutability": "view",
      "type": "function"
    },
    {
      "inputs": [],
      "name": "previousImplementation",
      "outputs": [
        {
          "internalType": "address",
          "name": "",
          "type": "address"
        }
      ],
      "stateMutability": "view",
      "type": "function"
    },
    {
      "inputs": [
        {
          "internalType": "bytes",
          "name": "planEntryData",
          "type": "bytes"
        }
      ],
      "name": "quoteWithdrawByAgg",
      "outputs": [
        {
          "internalType": "address",
          "name": "tokenToSwap",
          "type": "address"
        },
        {
          "internalType": "uint256",
          "name": "amountToSwap",
          "type": "uint256"
        }
      ],
      "stateMutability": "nonpayable",
      "type": "function"
    },
    {
      "inputs": [
        {
          "internalType": "bool",
          "name": "checkNeedRebalance",
          "type": "bool"
        }
      ],
      "name": "rebalanceNoSwaps",
      "outputs": [],
      "stateMutability": "nonpayable",
      "type": "function"
    },
    {
      "inputs": [],
      "name": "reinvestThresholdPercent",
      "outputs": [
        {
          "internalType": "uint256",
          "name": "",
          "type": "uint256"
        }
      ],
      "stateMutability": "view",
      "type": "function"
    },
    {
      "inputs": [
        {
          "internalType": "address",
          "name": "theAsset_",
          "type": "address"
        },
        {
          "internalType": "uint256",
          "name": "amount_",
          "type": "uint256"
        }
      ],
      "name": "requirePayAmountBack",
      "outputs": [
        {
          "internalType": "uint256",
          "name": "amountOut",
          "type": "uint256"
        }
      ],
      "stateMutability": "nonpayable",
      "type": "function"
    },
    {
      "inputs": [],
      "name": "revision",
      "outputs": [
        {
          "internalType": "uint256",
          "name": "",
          "type": "uint256"
        }
      ],
      "stateMutability": "view",
      "type": "function"
    },
    {
      "inputs": [
        {
          "internalType": "uint256",
          "name": "value",
          "type": "uint256"
        }
      ],
      "name": "setCompoundRatio",
      "outputs": [],
      "stateMutability": "nonpayable",
      "type": "function"
    },
    {
      "inputs": [
        {
          "internalType": "uint256",
          "name": "status",
          "type": "uint256"
        }
      ],
      "name": "setFuseStatus",
      "outputs": [],
      "stateMutability": "nonpayable",
      "type": "function"
    },
    {
      "inputs": [
        {
          "internalType": "uint256[4]",
          "name": "values",
          "type": "uint256[4]"
        }
      ],
      "name": "setFuseThresholds",
      "outputs": [],
      "stateMutability": "nonpayable",
      "type": "function"
    },
    {
      "inputs": [
        {
          "internalType": "address",
          "name": "token",
          "type": "address"
        },
        {
          "internalType": "uint256",
          "name": "amount",
          "type": "uint256"
        }
      ],
      "name": "setLiquidationThreshold",
      "outputs": [],
      "stateMutability": "nonpayable",
      "type": "function"
    },
    {
      "inputs": [
        {
          "internalType": "uint256",
          "name": "percent_",
          "type": "uint256"
        }
      ],
      "name": "setReinvestThresholdPercent",
      "outputs": [],
      "stateMutability": "nonpayable",
      "type": "function"
    },
    {
      "inputs": [
        {
          "internalType": "address",
          "name": "strategyProfitHolder",
          "type": "address"
        }
      ],
      "name": "setStrategyProfitHolder",
      "outputs": [],
      "stateMutability": "nonpayable",
      "type": "function"
    },
    {
      "inputs": [
        {
          "internalType": "string",
          "name": "name",
          "type": "string"
        }
      ],
      "name": "setStrategySpecificName",
      "outputs": [],
      "stateMutability": "nonpayable",
      "type": "function"
    },
    {
      "inputs": [
        {
          "internalType": "uint256",
          "name": "done",
          "type": "uint256"
        }
      ],
      "name": "setWithdrawDone",
      "outputs": [],
      "stateMutability": "nonpayable",
      "type": "function"
    },
    {
      "inputs": [
        {
          "internalType": "uint256",
          "name": "fee_",
          "type": "uint256"
        },
        {
          "internalType": "address",
          "name": "receiver_",
          "type": "address"
        },
        {
          "internalType": "uint256",
          "name": "ratio_",
          "type": "uint256"
        }
      ],
      "name": "setupPerformanceFee",
      "outputs": [],
      "stateMutability": "nonpayable",
      "type": "function"
    },
    {
      "inputs": [],
      "name": "splitter",
      "outputs": [
        {
          "internalType": "address",
          "name": "",
          "type": "address"
        }
      ],
      "stateMutability": "view",
      "type": "function"
    },
    {
      "inputs": [],
      "name": "strategySpecificName",
      "outputs": [
        {
          "internalType": "string",
          "name": "",
          "type": "string"
        }
      ],
      "stateMutability": "view",
      "type": "function"
    },
    {
      "inputs": [
        {
          "internalType": "bytes4",
          "name": "interfaceId",
          "type": "bytes4"
        }
      ],
      "name": "supportsInterface",
      "outputs": [
        {
          "internalType": "bool",
          "name": "",
          "type": "bool"
        }
      ],
      "stateMutability": "view",
      "type": "function"
    },
    {
      "inputs": [],
      "name": "totalAssets",
      "outputs": [
        {
          "internalType": "uint256",
          "name": "",
          "type": "uint256"
        }
      ],
      "stateMutability": "view",
      "type": "function"
    },
    {
      "inputs": [],
      "name": "withdrawAllToSplitter",
      "outputs": [
        {
          "internalType": "uint256",
          "name": "strategyLoss",
          "type": "uint256"
        }
      ],
      "stateMutability": "nonpayable",
      "type": "function"
    },
    {
      "inputs": [
        {
          "internalType": "address",
          "name": "tokenToSwap_",
          "type": "address"
        },
        {
          "internalType": "address",
          "name": "aggregator_",
          "type": "address"
        },
        {
          "internalType": "uint256",
          "name": "amountToSwap_",
          "type": "uint256"
        },
        {
          "internalType": "bytes",
          "name": "swapData",
          "type": "bytes"
        },
        {
          "internalType": "bytes",
          "name": "planEntryData",
          "type": "bytes"
        },
        {
          "internalType": "uint256",
          "name": "entryToPool",
          "type": "uint256"
        }
      ],
      "name": "withdrawByAggStep",
      "outputs": [
        {
          "internalType": "bool",
          "name": "completed",
          "type": "bool"
        }
      ],
      "stateMutability": "nonpayable",
      "type": "function"
    },
    {
      "inputs": [
        {
          "internalType": "uint256",
          "name": "amount",
          "type": "uint256"
        }
      ],
      "name": "withdrawToSplitter",
      "outputs": [
        {
          "internalType": "uint256",
          "name": "strategyLoss",
          "type": "uint256"
        }
      ],
      "stateMutability": "nonpayable",
      "type": "function"
    }
  ],
  "transactionHash": "0x5ba5169e62de49d68b1bac9c688293d01769cc3ed6d20656f211f8fd9df398f6",
  "args": [],
  "numDeployments": 14,
  "solcInputHash": "da1a131c81810b0ec86f8a1b7470ae1a",
  "bytecode": "0x60806040523480156200001157600080fd5b506200001c62000022565b620000e3565b600054610100900460ff16156200008f5760405162461bcd60e51b815260206004820152602760248201527f496e697469616c697a61626c653a20636f6e747261637420697320696e697469604482015266616c697a696e6760c81b606482015260840160405180910390fd5b60005460ff90811614620000e1576000805460ff191660ff9081179091556040519081527f7f26b83ff96e1f2b6a682f133852f6798a09c465da95921460cefb38474024989060200160405180910390a15b565b615d1880620000f36000396000f3fe608060405234801561001057600080fd5b50600436106103645760003560e01c80636b5fba5a116101c9578063ab9e3eee116100ff578063ceee861d116100ad578063dee1f0e41161007c578063dee1f0e4146107ac578063dfeb1032146107bf578063f77c4791146107d2578063ffb86c6a146107da57600080fd5b8063ceee861d14610765578063d295ea7014610789578063db8d55f114610791578063de3d047c1461079957600080fd5b8063ab9e3eee146106db578063b2457556146106e3578063b429afeb146106f6578063b77c975b14610709578063bd38837b1461073b578063cd4c81561461074c578063ce2f18421461075d57600080fd5b80637eba7ba611610177578063936725ec11610146578063936725ec146105e557806396b7b14e146106845780639d0bcca014610697578063a3f4df7e1461069f57600080fd5b80637eba7ba6146106315780637efc77fa14610643578063877887821461066957806387c7f7701461067157600080fd5b80636b5fba5a146105a45780636ffb4c8e146105b75780637063a237146105ca57806371ee0175146105dd57806373a50ef5146105e557806378327438146106095780637cc963801461062957600080fd5b80634593144c1161029e57806351e03fbe1161024c5780635641ec031161021b5780635641ec031461055b5780635cfc1a51146105635780636207a0cf1461056d57806363e277341461059157600080fd5b806351e03fbe1461051357806352bbbb74146105265780635412335d1461053b578063546799631461055357600080fd5b80634593144c146104b05780634ad0b684146104b85780634ba31b01146104c05780634e71d92d146104c85780634fa5d854146104d05780634fac6ccd146104ed578063507142d91461050057600080fd5b80631d2dca9e1161031657806333c5b58e116102e557806333c5b58e1461046a57806338d52e0f146104725780633cd8045e1461048c57806342fdb4711461049d57600080fd5b80631d2dca9e146104345780632221eb3c14610447578063261efa121461045a578063325a19f11461046257600080fd5b806301e1d1141461036957806301ffc9a714610384578063066a6fc3146103a7578063074424d6146103ba5780630acd12c7146103eb5780630e30428d146103f3578063150b7a0214610408575b600080fd5b6103716107e2565b6040519081526020015b60405180910390f35b6103976103923660046148ce565b61086d565b604051901515815260200161037b565b6103976103b53660046149fb565b6108b3565b6103de604051806040016040528060058152602001640312e302e360dc1b81525081565b60405161037b9190614ae5565b610371610a92565b610406610401366004614af8565b610bb4565b005b61041b610416366004614b24565b610c58565b6040516001600160e01b0319909116815260200161037b565b610406610442366004614b9d565b610c69565b610406610455366004614bba565b610dd2565b606854610371565b610371610e48565b610371610e78565b6064546001600160a01b03165b60405161037b9190614bd3565b6065546001600160a01b031661047f565b6104066104ab366004614bba565b610ef8565b610371610fe7565b609754610371565b610371611017565b61040661108e565b6104d8611108565b6040805192835260208301919091520161037b565b6104066104fb366004614be7565b611176565b61040661050e366004614c24565b6112a8565b610371610521366004614bba565b611658565b61052e611820565b60405161037b9190614d74565b610543611a8e565b60405161037b9493929190614db9565b6103de611b1d565b610406611bb2565b600160ff1b610371565b6103de604051806040016040528060058152602001640ccb8c4b8d60da1b81525081565b61040661059f366004614e5d565b611c4b565b6104066105b2366004614be7565b611d29565b6104066105c5366004614bba565b611dba565b6104066105d8366004614ece565b611e42565b609954610371565b6103de60405180604001604052806005815260200164332e302e3160d81b81525081565b610371610617366004614be7565b60966020526000908152604090205481565b610371611ee0565b61037161063f366004614bba565b5490565b6103de60405180604001604052806007815260200166416c676562726160c81b81525081565b606754610371565b61037161067f366004614af8565b611f10565b610406610692366004614f8f565b6121f6565b61047f61229b565b6103de6040518060400160405280601a81526020017f416c676562726120436f6e76657274657220537472617465677900000000000081525081565b6103976122cb565b6103716106f1366004615050565b612398565b610397610704366004614be7565b612447565b61071c610717366004615080565b61246c565b604080516001600160a01b03909316835260208301919091520161037b565b6098546001600160a01b031661047f565b6066546001600160a01b031661047f565b609a54610371565b6103de60405180604001604052806005815260200164332e312e3360d81b81525081565b606954610371565b6104d861255e565b6104066107a7366004614bba565b6125d6565b6103976107ba366004614be7565b612633565b6104066107cd3660046150b4565b6126b8565b61047f612760565b610397612790565b60006107ed60975490565b6064546040516370a0823160e01b81526001600160a01b03909116906370a082319061081d903090600401614bd3565b602060405180830381865afa15801561083a573d6000803e3d6000fd5b505050506040513d601f19601f8201168201806040525081019061085e9190615131565b6108689190615160565b905090565b60006001600160e01b03198216631e94dddf60e01b148061089e57506001600160e01b0319821663f73147b360e01b145b806108ad57506108ad826127de565b92915050565b60008060006108c0612803565b91509150606073eD92d01D784c2458b19441eDf4135c66915F93ee63911ec05360976040518060a001604052808e6001600160a01b03166001600160a01b031681526020018d6001600160a01b03166001600160a01b03168152602001610925612760565b6001600160a01b039081168252609854811660208084019190915260655490911660409283015281516080810183528e8152908101899052808201889052606081018b905290516001600160e01b031960e086901b168152610996939291908d908d90600190609690600401615196565b600060405180830381865af41580156109b3573d6000803e3d6000fd5b505050506040513d6000823e601f3d908101601f191682016040526109db919081019061527a565b90945090506109e981612855565b60006010558380156109fe57506109fe612884565b15610a09576001600f555b606480546040516368f9467b60e01b81526001600160a01b039091166004820152602481018490526097604482015273c1Ed5dD095C703421F623F416b88bbf57a1E1012916368f9467b910160006040518083038186803b158015610a6d57600080fd5b505af4158015610a81573d6000803e3d6000fd5b505050505050509695505050505050565b606554606454604051633e53813360e11b81526000926001600160a01b0390811692169083907306c875daA1Dc2E27dd7381EB3b6be4F99553a60990637ca7026690610ae490869086906004016152c0565b602060405180830381865af4158015610b01573d6000803e3d6000fd5b505050506040513d601f19601f82011682018060405250810190610b259190615131565b90506000806000610b34612896565b9250925092507306c875daA1Dc2E27dd7381EB3b6be4F99553a609639ad00ec2868686868b6040518663ffffffff1660e01b8152600401610b799594939291906152da565b60006040518083038186803b158015610b9157600080fd5b505af4158015610ba5573d6000803e3d6000fd5b50929998505050505050505050565b73c1Ed5dD095C703421F623F416b88bbf57a1E101263142395ef610bd6612760565b6040516001600160e01b031960e084901b1681526001600160a01b03918216600482015290851660248201526044810184905260640160006040518083038186803b158015610c2457600080fd5b505af4158015610c38573d6000803e3d6000fd5b5050506001600160a01b0390921660009081526096602052604090205550565b630a85bd0160e11b5b949350505050565b6000610c73612760565b60405163124fdbb760e21b81529091507306c875daA1Dc2E27dd7381EB3b6be4F99553a6099063493f6edc90610cad908490600401614bd3565b60006040518083038186803b158015610cc557600080fd5b505af4158015610cd9573d6000803e3d6000fd5b50505050600080610ce8612803565b604080518082019091526098546001600160a01b03168152919350915060009073eD92d01D784c2458b19441eDf4135c66915F93ee9063b6fda8139060979060019060208101610d378a6128b1565b6001600160a01b039081169091526065546040516001600160e01b031960e088901b168152610d77959493928a928c929116908e90609690600401615336565b600060405180830381865af4158015610d94573d6000803e3d6000fd5b505050506040513d6000823e601f3d908101601f19168201604052610dbc9190810190615388565b9050610dc781612855565b505042601055505050565b7306c875daA1Dc2E27dd7381EB3b6be4F99553a60963493f6edc610df4612760565b6040518263ffffffff1660e01b8152600401610e109190614bd3565b60006040518083038186803b158015610e2857600080fd5b505af4158015610e3c573d6000803e3d6000fd5b505050600f9190915550565b600061086861063f60017f6f55f470bdc9cb5f04223fd822021061668e4dccb43e8727b295106dc9769c8b6153bc565b60007306c875daA1Dc2E27dd7381EB3b6be4F99553a60963493f6edc610e9c612760565b6040518263ffffffff1660e01b8152600401610eb89190614bd3565b60006040518083038186803b158015610ed057600080fd5b505af4158015610ee4573d6000803e3d6000fd5b50505050610ef0612915565b509092915050565b7306c875daA1Dc2E27dd7381EB3b6be4F99553a60963493f6edc610f1a612760565b6040518263ffffffff1660e01b8152600401610f369190614bd3565b60006040518083038186803b158015610f4e57600080fd5b505af4158015610f62573d6000803e3d6000fd5b5073626aB57b826869B8AE32D32487E0AB6405625bb39250636bffb346915060069050836003811115610f9757610f976153cf565b6040518363ffffffff1660e01b8152600401610fb49291906153e5565b60006040518083038186803b158015610fcc57600080fd5b505af4158015610fe0573d6000803e3d6000fd5b5050505050565b600061086861063f60017f812a673dfca07956350df10f8a654925f561d7a0da09bdbe79e653939a14d9f16153bc565b604051630a3c2bb160e21b81526001600482015260009073eD92d01D784c2458b19441eDf4135c66915F93ee906328f0aec490602401602060405180830381865af415801561106a573d6000803e3d6000fd5b505050506040513d601f19601f820116820180604052508101906108689190615131565b7306c875daA1Dc2E27dd7381EB3b6be4F99553a60963d19cc38a6110b0612760565b6040518263ffffffff1660e01b81526004016110cc9190614bd3565b60006040518083038186803b1580156110e457600080fd5b505af41580156110f8573d6000803e3d6000fd5b505050506111046129e6565b5050565b60655460408051808201909152600a81526914d08e8811195b9a595960b21b60208201526000918291906001600160a01b031633146111635760405162461bcd60e51b815260040161115a9190614ae5565b60405180910390fd5b5061116e6001612aa2565b915091509091565b3330146111c55760405162461bcd60e51b815260206004820152601b60248201527f496e637265617365207265766973696f6e20666f7262696464656e0000000000604482015260640161115a565b60006111f561063f60017f22573091f17911fb166032a3d9e0554aa73d31b7b7ddea4a4dd2995650af84bd6153bc565b611200906001615160565b90506112348161123160017f22573091f17911fb166032a3d9e0554aa73d31b7b7ddea4a4dd2995650af84bd6153bc565b55565b6112638261123160017fbfaaa2fb63266ff27c2da975f5894955056f50419af651a81f6c5060581857e46153bc565b604080518281526001600160a01b03841660208201527ff27e2ef832a4eb8ed8ec553b875eecd44764cda95b1c24170e281539e0a869c8910160405180910390a15050565b600054610100900460ff16158080156112c85750600054600160ff909116105b806112e25750303b1580156112e2575060005460ff166001145b6113455760405162461bcd60e51b815260206004820152602e60248201527f496e697469616c697a61626c653a20636f6e747261637420697320616c72656160448201526d191e481a5b9a5d1a585b1a5e995960921b606482015260840161115a565b6000805460ff191660011790558015611368576000805461ff0019166101001790555b6113738a8a8a612c9b565b73eD92d01D784c2458b19441eDf4135c66915F93ee632df3c9a9600160405180604001604052808e6001600160a01b03166001600160a01b031681526020018b6001600160a01b03166001600160a01b031681525089898e6001600160a01b03166338d52e0f6040518163ffffffff1660e01b8152600401602060405180830381865afa158015611408573d6000803e3d6000fd5b505050506040513d601f19601f8201168201806040525081019061142c9190615417565b8a896040518863ffffffff1660e01b81526004016114509796959493929190615434565b60006040518083038186803b15801561146857600080fd5b505af415801561147c573d6000803e3d6000fd5b50506040805163c3724a8960e01b81526001600482015286516001600160a01b03908116602483015260208801518116604483015291870151909116606482015260608601516084820152608086015160a482015273eD92d01D784c2458b19441eDf4135c66915F93ee925063c3724a89915060c40160006040518083038186803b15801561150a57600080fd5b505af415801561151e573d6000803e3d6000fd5b505060405163bd85be2960e01b8152600160048201527306c875daA1Dc2E27dd7381EB3b6be4F99553a6099250637fc1c15b915060649073eD92d01D784c2458b19441eDf4135c66915F93ee9063bd85be2990602401600060405180830381865af4158015611591573d6000803e3d6000fd5b505050506040513d6000823e601f3d908101601f191682016040526115b99190810190615485565b6040518363ffffffff1660e01b81526004016115d69291906154fb565b60006040518083038186803b1580156115ee57600080fd5b505af4158015611602573d6000803e3d6000fd5b50505050801561164c576000805461ff0019169055604051600181527f7f26b83ff96e1f2b6a682f133852f6798a09c465da95921460cefb38474024989060200160405180910390a15b50505050505050505050565b606554606454604051633e53813360e11b81526000926001600160a01b0390811692169083907306c875daA1Dc2E27dd7381EB3b6be4F99553a60990637ca70266906116aa90869086906004016152c0565b602060405180830381865af41580156116c7573d6000803e3d6000fd5b505050506040513d601f19601f820116820180604052508101906116eb9190615131565b9050808511156117975760008061170a61170584896153bc565b612d3d565b604051631594b05b60e01b815290985091935091507306c875daA1Dc2E27dd7381EB3b6be4F99553a60990631594b05b906117519087908790879087908c906004016152da565b602060405180830381865af415801561176e573d6000803e3d6000fd5b505050506040513d601f19601f820116820180604052508101906117929190615131565b925050505b6040516333bbb20360e11b815260048101869052602481018290526001600160a01b038084166044830152841660648201527306c875daA1Dc2E27dd7381EB3b6be4F99553a6099063677764069060840160006040518083038186803b15801561180057600080fd5b505af4158015611814573d6000803e3d6000fd5b50505050505050919050565b60025460408051600480825260a082019092526060926001600160a01b0316916020820160808036833750506003546040516370a0823160e01b81529294506001600160a01b0316916370a08231915061187e908490600401614bd3565b602060405180830381865afa15801561189b573d6000803e3d6000fd5b505050506040513d601f19601f820116820180604052508101906118bf9190615131565b826000815181106118d2576118d2615514565b6020908102919091010152600480546040516370a0823160e01b81526001600160a01b03909116916370a082319161190c91859101614bd3565b602060405180830381865afa158015611929573d6000803e3d6000fd5b505050506040513d601f19601f8201168201806040525081019061194d9190615131565b8260018151811061196057611960615514565b60209081029190910101526033546040516370a0823160e01b81526001600160a01b03909116906370a082319061199b908490600401614bd3565b602060405180830381865afa1580156119b8573d6000803e3d6000fd5b505050506040513d601f19601f820116820180604052508101906119dc9190615131565b826002815181106119ef576119ef615514565b60209081029190910101526034546040516370a0823160e01b81526001600160a01b03909116906370a0823190611a2a908490600401614bd3565b602060405180830381865afa158015611a47573d6000803e3d6000fd5b505050506040513d601f19601f82011682018060405250810190611a6b9190615131565b82600381518110611a7e57611a7e615514565b6020026020010181815250505090565b604051636e81b62960e01b81526001600482015260609081908190819073E8dfB7074F4E14b7eDD1E08C03Fa6079c9E091b590636e81b62990602401600060405180830381865af4158015611ae7573d6000803e3d6000fd5b505050506040513d6000823e601f3d908101601f19168201604052611b0f91908101906155f2565b935093509350935090919293565b606060646006018054611b2f906156f0565b80601f0160208091040260200160405190810160405280929190818152602001828054611b5b906156f0565b8015611ba85780601f10611b7d57610100808354040283529160200191611ba8565b820191906000526020600020905b815481529060010190602001808311611b8b57829003601f168201915b5050505050905090565b611bba612d6e565b7306c875daA1Dc2E27dd7381EB3b6be4F99553a60963bd020682611bdc612760565b6064805460655460405160e086901b6001600160e01b03191681526001600160a01b03948516600482015291841660248301529290921660448301520160006040518083038186803b158015611c3157600080fd5b505af4158015611c45573d6000803e3d6000fd5b50505050565b7306c875daA1Dc2E27dd7381EB3b6be4F99553a60963493f6edc611c6d612760565b6040518263ffffffff1660e01b8152600401611c899190614bd3565b60006040518083038186803b158015611ca157600080fd5b505af4158015611cb5573d6000803e3d6000fd5b5050604051637fc1c15b60e01b81527306c875daA1Dc2E27dd7381EB3b6be4F99553a6099250637fc1c15b9150611cf5906064908690869060040161572a565b60006040518083038186803b158015611d0d57600080fd5b505af4158015611d21573d6000803e3d6000fd5b505050505050565b7306c875daA1Dc2E27dd7381EB3b6be4F99553a60963493f6edc611d4b612760565b6040518263ffffffff1660e01b8152600401611d679190614bd3565b60006040518083038186803b158015611d7f57600080fd5b505af4158015611d93573d6000803e3d6000fd5b5050600280546001600160a01b0319166001600160a01b0394909416939093179092555050565b73c1Ed5dD095C703421F623F416b88bbf57a1E101263d2c3cf25611ddc612760565b6040516001600160e01b031960e084901b1681526001600160a01b0390911660048201526024810184905260440160006040518083038186803b158015611e2257600080fd5b505af4158015611e36573d6000803e3d6000fd5b50505060999190915550565b7306c875daA1Dc2E27dd7381EB3b6be4F99553a60963ed6b63c16064858585611e69612760565b6040516001600160e01b031960e088901b168152600481019590955260248501939093526001600160a01b039182166044850152606484015216608482015260a40160006040518083038186803b158015611ec357600080fd5b505af4158015611ed7573d6000803e3d6000fd5b50505050505050565b600061086861063f60017f22573091f17911fb166032a3d9e0554aa73d31b7b7ddea4a4dd2995650af84bd6153bc565b6000611f1a614886565b611f2684826000612db9565b805160408051808201909152600a81526914d08e8811195b9a595960b21b6020820152906001600160a01b03163314611f725760405162461bcd60e51b815260040161115a9190614ae5565b5060408051808201909152601081526f54532d3234207a65726f2076616c756560801b602082015283611fb85760405162461bcd60e51b815260040161115a9190614ae5565b5060001981606001511415604051806040016040528060118152602001701514cb4c4d081ddc9bdb99c8185cdcd95d607a1b8152509061200b5760405162461bcd60e51b815260040161115a9190614ae5565b506000806120196001612e33565b608085015160405163513cfdb360e11b81526001600160a01b038a16600482015260248101919091526044810183905260648181018390526084820152919350915073c1Ed5dD095C703421F623F416b88bbf57a1E10129063a279fb669060a401602060405180830381865af4158015612097573d6000803e3d6000fd5b505050506040513d601f19601f820116820180604052508101906120bb9190615131565b60808401526000620186a06120d26103e882615160565b6120dc9088615760565b6120e69190615777565b90508084608001511061211257835161210a906001600160a01b0389169088612efd565b8594506121e3565b8260000361214d576121296103e8620186a0615160565b620186a0856080015161213c9190615760565b6121469190615777565b94506121e3565b6000620186a06121606103e86002615760565b61216d90620186a0615160565b6121779089615760565b6121819190615777565b905061219c85608001518261219691906153bc565b86612f4f565b5060006121a8896131b4565b90508281116121dc576121c06103e8620186a0615160565b6121cd620186a083615760565b6121d79190615777565b6121de565b875b965050505b6121eb613224565b505050505092915050565b60985460408051808201909152600a81526914d08e8811195b9a595960b21b6020820152906001600160a01b031633146122435760405162461bcd60e51b815260040161115a9190614ae5565b5080518251146040518060400160405280600d81526020016c54532d3139206c656e6774687360981b8152509061228d5760405162461bcd60e51b815260040161115a9190614ae5565b50612296613224565b505050565b600061086861063f60017fbfaaa2fb63266ff27c2da975f5894955056f50419af651a81f6c5060581857e46153bc565b60006122d5612790565b1580156122e757506122e5612884565b155b8015610868575060985473eD92d01D784c2458b19441eDf4135c66915F93ee9063d1585fc4906001906001600160a01b0316612321612760565b6040516001600160e01b031960e086901b16815260048101939093526001600160a01b0391821660248401521660448201526064015b602060405180830381865af4158015612374573d6000803e3d6000fd5b505050506040513d601f19601f820116820180604052508101906108689190615799565b6065546064546040516001625acc3160e01b0319815260009283927306c875daA1Dc2E27dd7381EB3b6be4F99553a6099263ffa533cf926123ea926001600160a01b03918216929116906004016152c0565b602060405180830381865af4158015612407573d6000803e3d6000fd5b505050506040513d601f19601f8201168201806040525081019061242b9190615131565b905080156124405761243d818461323a565b91505b5092915050565b6000612451612760565b6001600160a01b0316826001600160a01b0316149050919050565b6005546000908190630100000090046001600160801b031681811561249957612494826132e6565b6124b7565b60408051600280825260608201835290916020830190803683375050505b905073E8dfB7074F4E14b7eDD1E08C03Fa6079c9E091b56350d2e0ba600187846124df612760565b6098546040516001600160e01b031960e088901b16815261251395949392916001600160a01b0316906096906004016157b6565b6040805180830381865af415801561252f573d6000803e3d6000fd5b505050506040513d601f19601f820116820180604052508101906125539190615807565b935093505050915091565b604051632cc58ef960e01b815260016004820152600090819073eD92d01D784c2458b19441eDf4135c66915F93ee90632cc58ef9906024016040805180830381865af41580156125b2573d6000803e3d6000fd5b505050506040513d601f19601f8201168201806040525081019061116e9190615835565b7306c875daA1Dc2E27dd7381EB3b6be4F99553a609636d51f04360646125fa612760565b6040516001600160e01b031960e085901b16815260048101929092526001600160a01b0316602482015260448101849052606401610fb4565b6000816001600160a01b0316612647612760565b6001600160a01b0316635aa6e6756040518163ffffffff1660e01b8152600401602060405180830381865afa158015612684573d6000803e3d6000fd5b505050506040513d601f19601f820116820180604052508101906126a89190615417565b6001600160a01b03161492915050565b7306c875daA1Dc2E27dd7381EB3b6be4F99553a60963493f6edc6126da612760565b6040518263ffffffff1660e01b81526004016126f69190614bd3565b60006040518083038186803b15801561270e57600080fd5b505af4158015612722573d6000803e3d6000fd5b5050604051630593c4c960e01b815273626aB57b826869B8AE32D32487E0AB6405625bb39250630593c4c99150610fb4906006908590600401615859565b600061086861063f60017f5165972ef41194f06c5007493031d0b927c20741adcb74403b954009fd2c36186153bc565b609854604051633934e59d60e11b8152600160048201526001600160a01b03909116602482015260009073eD92d01D784c2458b19441eDf4135c66915F93ee90637269cb3a90604401612357565b60006001600160e01b0319821663c19fa56160e01b14806108ad57506108ad82613370565b6000806128106001612e33565b925082905061281d6107e2565b61282791906153bc565b600554909150630100000090046001600160801b031680156128505761284e8160006133a5565b505b509091565b8051600214801561286b5750612869612884565b155b1561287c576128798161343e565b50505b611104613224565b6006546000906108689060ff166134cb565b60008060006128a6600019612d3d565b925092509250909192565b6000816001600160a01b0316634046ebae6040518163ffffffff1660e01b8152600401602060405180830381865afa1580156128f1573d6000803e3d6000fd5b505050506040513d601f19601f820116820180604052508101906108ad9190615417565b606454600090606090819083908190612936906001600160a01b03166134e8565b9150915073c1Ed5dD095C703421F623F416b88bbf57a1E1012637325f33f8361295e85613554565b6098546040516001600160e01b031960e086901b16815261299493929187916001600160a01b03909116906001906004016158a6565b600060405180830381865af41580156129b1573d6000803e3d6000fd5b505050506040513d6000823e601f3d908101601f191682016040526129d991908101906158f4565b9450945094505050909192565b60608060008060006129f66135d2565b609854929550909350915073c1Ed5dD095C703421F623F416b88bbf57a1E10129063e99de4da906001600160a01b0316612a2e613651565b8686866040518663ffffffff1660e01b8152600401612a51959493929190615960565b600060405180830381865af4158015612a6e573d6000803e3d6000fd5b505050506040513d6000823e601f3d908101601f19168201604052612a9691908101906159ca565b90969095509350505050565b600080600080612ab26001612e33565b91509150612abf856136e5565b612c19576000806000806000612ad3613798565b945094509450945094506000612ae7612915565b505090506000612b398c8015612afc57508215155b8015612b235750609954620186a090612b16908590615760565b612b209190615777565b86115b612b2e576000612b30565b855b8984600161387b565b9150612b7d9050612b4a8684615160565b6064548390612b61906001600160a01b03166131b4565b609754612b6e9190615160565b612b789190615160565b613ac8565b909b509950604080518a8152602081018a905290810188905260608101879052608081018c905260a081018b905260c0810185905260e081018490527ff87a9dead982c86370b885093f79ded2c9a614d95d83c0c20f68e13e3b9b7d3f906101000160405180910390a1612c03612bf4888d615160565b612bfe8587615160565b613af8565b9a50612c0f868b615160565b9950505050505050505b6098546064546040516323c1ae5960e11b815273c1Ed5dD095C703421F623F416b88bbf57a1E1012926347835cb292612c64926001600160a01b0392831692909116906004016152c0565b60006040518083038186803b158015612c7c57600080fd5b505af4158015612c90573d6000803e3d6000fd5b505050505050915091565b600054610100900460ff16612cc25760405162461bcd60e51b815260040161115a90615a23565b612ccc8383613b12565b609880546001600160a01b0319166001600160a01b038316179055612cf56064620186a0615777565b6099557fe4166dfcf23bbd3e3f764a99dc8fa740554c03c82d6019b81cf265f396f6f2fe612d276064620186a0615777565b60405190815260200160405180910390a1505050565b6000806000806000612d4f6001612e33565b91509150612d5e868284613bbb565b5091989097509095509350505050565b6000612d78613dc8565b90507f768a28cb3459382a3d2173feb2dad0235f8de680b109872da581a3aa269fe5f481604051612da99190614d74565b60405180910390a1611104613224565b612dc1613651565b604083018190526001600160a01b038085166020850152609854168352612de89084613e4f565b6060830152612df6836131b4565b608083015280612e20576040820151606454612e1b91906001600160a01b0316613e4f565b612e26565b81606001515b60a0909201919091525050565b6000808215612ef0576064546000908190612e56906001600160a01b03166134e8565b9150915073c1Ed5dD095C703421F623F416b88bbf57a1E1012633643611860976064612e8186613554565b86866040518663ffffffff1660e01b8152600401612ea3959493929190615a6e565b6040805180830381865af4158015612ebf573d6000803e3d6000fd5b505050506040513d601f19601f82011682018060405250810190612ee39190615835565b9094509250612ef8915050565b505060975460005b915091565b604080516001600160a01b038416602482015260448082018490528251808303909101815260649091019091526020810180516001600160e01b031663a9059cbb60e01b179052612296908490613ead565b600080612f6c6005546001600160801b0363010000009091041690565b90506000612f79826132e6565b9050600073c1Ed5dD095C703421F623F416b88bbf57a1E1012630252e2c78787604001518860600151896000015187898c60a001516040518863ffffffff1660e01b8152600401612fd09796959493929190615ab2565b602060405180830381865af4158015612fed573d6000803e3d6000fd5b505050506040513d601f19601f820116820180604052508101906130119190615131565b905080156130835760006130268260006133a5565b600554909150630100000090046001600160801b031661304690856153bc565b91507faebc771af58936b05e89b0be7d3f9761480181abcd4a649fbdd01753fda169708282604051613079929190615b0a565b60405180910390a1505b600073cD14081DDD966ADbCEc1930Bbe541765EBA2D68663c432aee18760400151886060015189600001516130be6130b9612760565b6128b1565b6000198d146130dc578c8c608001516130d79190615160565b6130de565b8c5b60966040518763ffffffff1660e01b815260040161310196959493929190615b23565b602060405180830381865af415801561311e573d6000803e3d6000fd5b505050506040513d601f19601f820116820180604052508101906131429190615131565b905085608001518110156040518060400160405280601681526020017554532d32302062616c616e636520646563726561736560501b815250906131995760405162461bcd60e51b815260040161115a9190614ae5565b5060808601516131a990826153bc565b979650505050505050565b6040516370a0823160e01b81526000906001600160a01b038316906370a08231906131e3903090600401614bd3565b602060405180830381865afa158015613200573d6000803e3d6000fd5b505050506040513d601f19601f820116820180604052508101906108ad9190615131565b600061322e612915565b50506097819055919050565b60065460009061324c9060ff166134cb565b156132d557604080516002808252606082018352600092602083019080368337019050509050838160008151811061328657613286615514565b6020026020010181815250507f59400c8c523464b521238ea8f50e923f2bc64663557e6afec92a97f7efe92d0581826040516132c3929190615b66565b60405180910390a160009150506108ad565b6132df8383613f7f565b90506108ad565b60405163a7aced0960e01b8152600160048201526001600160801b038216602482015260609073eD92d01D784c2458b19441eDf4135c66915F93ee9063a7aced0990604401600060405180830381865af4158015613348573d6000803e3d6000fd5b505050506040513d6000823e601f3d908101601f191682016040526108ad9190810190615388565b60006001600160e01b0319821663b7b79fa960e01b14806108ad57506301ffc9a760e01b6001600160e01b03198316146108ad565b604051635b1e6c8160e11b8152600160048201526001600160801b0383166024820152811515604482015260609073eD92d01D784c2458b19441eDf4135c66915F93ee9063b63cd90290606401600060405180830381865af415801561340f573d6000803e3d6000fd5b505050506040513d6000823e601f3d908101601f191682016040526134379190810190615388565b9392505050565b6060600073eD92d01D784c2458b19441eDf4135c66915F93ee63b67626216001856040518363ffffffff1660e01b815260040161347c929190615b0a565b600060405180830381865af4158015613499573d6000803e3d6000fd5b505050506040513d6000823e601f3d908101601f191682016040526134c19190810190615b8b565b9094909350915050565b600060018260038111156134e1576134e16153cf565b1192915050565b606060006134f4613651565b91506135008284613e4f565b90506000198114156040518060400160405280600f81526020016e53423a2057726f6e672076616c756560881b8152509061354e5760405162461bcd60e51b815260040161115a9190614ae5565b50915091565b606060006135726005546001600160801b0363010000009091041690565b9050801561358857613583816132e6565b613437565b82516001600160401b038111156135a1576135a1614910565b6040519080825280602002602001820160405280156135ca578160200160208202803683370190505b509392505050565b60405163f6e2611760e01b8152600160048201526060908190819073eD92d01D784c2458b19441eDf4135c66915F93ee9063f6e2611790602401600060405180830381865af4158015613629573d6000803e3d6000fd5b505050506040513d6000823e601f3d908101601f191682016040526128a69190810190615bd1565b6040805160028082526060808301845292602083019080368337505060035482519293506001600160a01b03169183915060009061369157613691615514565b6001600160a01b0392831660209182029290920101526004548251911690829060019081106136c2576136c2615514565b60200260200101906001600160a01b031690816001600160a01b03168152505090565b60006136ef612790565b156040518060400160405280601381526020017241532d31204e65656420726562616c616e636560681b8152509061373a5760405162461bcd60e51b815260040161115a9190614ae5565b50613743612884565b156040518060400160405280601481526020017341532d313420467573652069732061637469766560601b8152509061378f5760405162461bcd60e51b815260040161115a9190614ae5565b50600092915050565b60008060008060008060006137ab6129e6565b600354919350915073eD92d01D784c2458b19441eDf4135c66915F93ee906334d2ec3d906001600160a01b03166137e0612760565b85856040518563ffffffff1660e01b81526004016138019493929190615c1f565b602060405180830381865af415801561381e573d6000803e3d6000fd5b505050506040513d601f19601f820116820180604052508101906138429190615131565b965061384e8282613fa8565b60645491955093508790879061386c906001600160a01b03166131b4565b96509650965050509091929394565b60645460009081906001600160a01b03168186881161389b5760006138a5565b6138a587896153bc565b90506000620186a0876097600201546138be9190615760565b6138c89190615777565b8211905060006138d7846131b4565b6001600160a01b0385166000908152609660205260409020549091506138fc90614053565b8911156139eb57818061390f5750888110155b156139d75760655473c1Ed5dD095C703421F623F416b88bbf57a1E10129063890ffb849086908c906001600160a01b031661394a868e615160565b6040516001600160e01b031960e087901b1681526001600160a01b03948516600482015260248101939093529216604482015260648101919091526084810184905260a4016040805180830381865af41580156139ab573d6000803e3d6000fd5b505050506040513d601f19601f820116820180604052508101906139cf9190615835565b5094506139eb565b6139e360008a8a613bbb565b909850965050505b8115613aaf576000806139fd866134e8565b6098549193509150600090613a1d906001600160a01b031687858561406b565b9050613a2881614320565b613a75576000613a378261343e565b5090507f59400c8c523464b521238ea8f50e923f2bc64663557e6afec92a97f7efe92d058282604051613a6b929190615b66565b60405180910390a1505b6000613a7f613224565b9050613aa2613a8e868e615160565b8a613a988b6131b4565b612b6e9085615160565b9a50613abb945050505050565b8615613abb5760978890555b5050505094509492505050565b60008083831115613ae457613add84846153bc565b9150613af1565b613aee83856153bc565b90505b9250929050565b6000818311613b08576000613437565b61343782846153bc565b600054610100900460ff16613b395760405162461bcd60e51b815260040161115a90615a23565b613b63817fd2de0374d4479f33e63ae5ed6ca772a10463dd883a90c612050b51fab619640061436c565b613b6c826143c2565b604051631797527d60e01b81526064600482018190526001600160a01b038085166024840152831660448301527306c875daA1Dc2E27dd7381EB3b6be4F99553a60991631797527d9101611cf5565b60008060008060006000198814613bff57620186a0613bdc6103e882615160565b613be6898b615160565b613bf09190615760565b613bfa9190615777565b613c01565b875b9050613c0c816145e7565b8015801590613c1a57508515155b15613dbe57613c27614886565b606454613c3f906001600160a01b0316826001612db9565b80516020820151604051637a55caf360e01b815273c1Ed5dD095C703421F623F416b88bbf57a1E101292637a55caf392613c7b926004016152c0565b602060405180830381865af4158015613c98573d6000803e3d6000fd5b505050506040513d601f19601f82011682018060405250810190613cbc9190615131565b9450670de0b6b3a764000085613cdb613cd58585612f4f565b8b613af8565b613ce59190615760565b613cef9190615777565b6065546020830151608084015192985073c1Ed5dD095C703421F623F416b88bbf57a1E101292632ce30333926001600160a01b031691908b908d613d31613224565b6040516001600160e01b031960e089901b1681526001600160a01b03968716600482015295909416602486015260448501929092526064840152608483015260a482015260c4016040805180830381865af4158015613d94573d6000803e3d6000fd5b505050506040513d601f19601f82011682018060405250810190613db89190615835565b94509250505b5093509350935093565b60606000613de66005546001600160801b0363010000009091041690565b90508015613dfe57613df98160016133a5565b613e49565b613e06613651565b516001600160401b03811115613e1e57613e1e614910565b604051908082528060200260200182016040528015613e47578160200160208202803683370190505b505b91505090565b8151600090815b81811015613ea157836001600160a01b0316858281518110613e7a57613e7a615514565b60200260200101516001600160a01b031603613e995791506108ad9050565b600101613e56565b50600019949350505050565b6000613f02826040518060400160405280602081526020017f5361666545524332303a206c6f772d6c6576656c2063616c6c206661696c6564815250856001600160a01b031661463a9092919063ffffffff16565b8051909150156122965780806020019051810190613f209190615799565b6122965760405162461bcd60e51b815260206004820152602a60248201527f5361666545524332303a204552433230206f7065726174696f6e20646964206e6044820152691bdd081cdd58d8d9595960b21b606482015260840161115a565b6000806000613f8d84612e33565b91509150613f9e858284600061387b565b5095945050505050565b6000808351600014613af15773cD14081DDD966ADbCEc1930Bbe541765EBA2D686635dcb613060646097613fda613651565b613fe2612760565b60968a8a6040518863ffffffff1660e01b81526004016140089796959493929190615c5d565b6040805180830381865af4158015614024573d6000803e3d6000fd5b505050506040513d601f19601f820116820180604052508101906140489190615835565b909590945092505050565b6000811561406157816108ad565b620186a092915050565b6060614075612790565b156040518060400160405280601381526020017241532d31204e65656420726562616c616e636560681b815250906140c05760405162461bcd60e51b815260040161115a9190614ae5565b50600154600480546040516221c5bf60e11b81526001600160a01b0390931691830191909152600160c81b8104600290810b6024840152600160e01b8204900b6044830152600160a81b900460ff1615156064820152600090819073eD92d01D784c2458b19441eDf4135c66915F93ee9062438b7e906084016040805180830381865af4158015614155573d6000803e3d6000fd5b505050506040513d601f19601f820116820180604052508101906141799190615835565b6003546004549294509092506001600160a01b039081169173E8dfB7074F4E14b7eDD1E08C03Fa6079c9E091b591631c2040d5918b918b918691166141be888a615160565b6141d08a670de0b6b3a7640000615760565b6141da9190615777565b60405160e087901b6001600160e01b03191681526001600160a01b0395861660048201526024810194909452918416604484015290921660648201526084810191909152609660a482015260c401600060405180830381865af4158015614245573d6000803e3d6000fd5b505050506040513d6000823e601f3d908101601f1916820160405261426d9190810190615388565b9350806001600160a01b03168660008151811061428c5761428c615514565b60200260200101516001600160a01b03161461431557836001815181106142b5576142b5615514565b6020026020010151846000815181106142d0576142d0615514565b6020026020010151856000815181106142eb576142eb615514565b602002602001018660018151811061430557614305615514565b6020908102919091010191909152525b505050949350505050565b8051600090815b818110156143625783818151811061434157614341615514565b602002602001015160000361435a575060019392505050565b600101614327565b5060009392505050565b6143768282614649565b6111045760405162461bcd60e51b815260206004820152601a60248201527f496e74657266616365206973206e6f7420737570706f72746564000000000000604482015260640161115a565b600054610100900460ff166143e95760405162461bcd60e51b815260040161115a90615a23565b6001600160a01b0381166144315760405162461bcd60e51b815260206004820152600f60248201526e2d32b9379031b7b73a3937b63632b960891b604482015260640161115a565b61445b817f4c2403fdcb3cff9b705d96bf0705858e3390412670a62c8bcba611ca7e20ab8661436c565b60006001600160a01b0316816001600160a01b0316635aa6e6756040518163ffffffff1660e01b8152600401602060405180830381865afa1580156144a4573d6000803e3d6000fd5b505050506040513d601f19601f820116820180604052508101906144c89190615417565b6001600160a01b0316036145105760405162461bcd60e51b815260206004820152600f60248201526e5a65726f20676f7665726e616e636560881b604482015260640161115a565b61453f8161123160017f5165972ef41194f06c5007493031d0b927c20741adcb74403b954009fd2c36186153bc565b61456e4261123160017f6f55f470bdc9cb5f04223fd822021061668e4dccb43e8727b295106dc9769c8b6153bc565b61459d4361123160017f812a673dfca07956350df10f8a654925f561d7a0da09bdbe79e653939a14d9f16153bc565b604080516001600160a01b0383168152426020820152438183015290517f1a2dd071001ebf6e03174e3df5b305795a4ad5d41d8fdb9ba41dbbe2367134269181900360600190a150565b6145ef612790565b156040518060400160405280601381526020017241532d31204e65656420726562616c616e636560681b815250906111045760405162461bcd60e51b815260040161115a9190614ae5565b6060610c61848460008561471d565b60006001600160a01b0383166146905760405162461bcd60e51b815260206004820152600c60248201526b5a65726f206164647265737360a01b604482015260640161115a565b823b60008190036146a55760009150506108ad565b6040516301ffc9a760e01b81526001600160e01b0319841660048201526001600160a01b038516906301ffc9a790602401602060405180830381865afa92505050801561470f575060408051601f3d908101601f1916820190925261470c91810190615799565b60015b156143625791506108ad9050565b60608247101561477e5760405162461bcd60e51b815260206004820152602660248201527f416464726573733a20696e73756666696369656e742062616c616e636520666f6044820152651c8818d85b1b60d21b606482015260840161115a565b600080866001600160a01b0316858760405161479a9190615cc6565b60006040518083038185875af1925050503d80600081146147d7576040519150601f19603f3d011682016040523d82523d6000602084013e6147dc565b606091505b50915091506131a98783838760608315614857578251600003614850576001600160a01b0385163b6148505760405162461bcd60e51b815260206004820152601d60248201527f416464726573733a2063616c6c20746f206e6f6e2d636f6e7472616374000000604482015260640161115a565b5081610c61565b610c61838381511561486c5781518083602001fd5b8060405162461bcd60e51b815260040161115a9190614ae5565b6040518060c0016040528060006001600160a01b0316815260200160006001600160a01b03168152602001606081526020016000815260200160008152602001600081525090565b6000602082840312156148e057600080fd5b81356001600160e01b03198116811461343757600080fd5b6001600160a01b038116811461490d57600080fd5b50565b634e487b7160e01b600052604160045260246000fd5b60405160a081016001600160401b038111828210171561494857614948614910565b60405290565b604051601f8201601f191681016001600160401b038111828210171561497657614976614910565b604052919050565b60006001600160401b0382111561499757614997614910565b50601f01601f191660200190565b600082601f8301126149b657600080fd5b81356149c96149c48261497e565b61494e565b8181528460208386010111156149de57600080fd5b816020850160208301376000918101602001919091529392505050565b60008060008060008060c08789031215614a1457600080fd5b8635614a1f816148f8565b95506020870135614a2f816148f8565b94506040870135935060608701356001600160401b0380821115614a5257600080fd5b614a5e8a838b016149a5565b94506080890135915080821115614a7457600080fd5b50614a8189828a016149a5565b92505060a087013590509295509295509295565b60005b83811015614ab0578181015183820152602001614a98565b50506000910152565b60008151808452614ad1816020860160208601614a95565b601f01601f19169290920160200192915050565b6020815260006134376020830184614ab9565b60008060408385031215614b0b57600080fd5b8235614b16816148f8565b946020939093013593505050565b60008060008060808587031215614b3a57600080fd5b8435614b45816148f8565b93506020850135614b55816148f8565b92506040850135915060608501356001600160401b03811115614b7757600080fd5b614b83878288016149a5565b91505092959194509250565b801515811461490d57600080fd5b600060208284031215614baf57600080fd5b813561343781614b8f565b600060208284031215614bcc57600080fd5b5035919050565b6001600160a01b0391909116815260200190565b600060208284031215614bf957600080fd5b8135613437816148f8565b8060020b811461490d57600080fd5b80608081018310156108ad57600080fd5b6000806000806000806000806000898b03610200811215614c4457600080fd5b8a35614c4f816148f8565b995060208b0135614c5f816148f8565b985060408b0135614c6f816148f8565b975060608b0135614c7f816148f8565b965060808b0135614c8f81614c04565b955060a08b0135614c9f81614c04565b945060c08b0135614caf81614b8f565b935060a060df1982011215614cc357600080fd5b50614ccc614926565b60e08b0135614cda816148f8565b81526101008b0135614ceb816148f8565b60208201526101208b0135614cff816148f8565b60408201526101408b013560608201526101608b013560808201529150614d2a8b6101808c01614c13565b90509295985092959850929598565b600081518084526020808501945080840160005b83811015614d6957815187529582019590820190600101614d4d565b509495945050505050565b6020815260006134376020830184614d39565b600081518084526020808501945080840160005b83811015614d69578151151587529582019590820190600101614d9b565b6080808252855190820181905260009060209060a0840190828901845b82811015614dfb5781516001600160a01b031684529284019290840190600101614dd6565b5050508381038285015286518082528783019183019060005b81811015614e3357835160020b83529284019291840191600101614e14565b50508481036040860152614e478188614d39565b9250505082810360608401526131a98185614d87565b60008060208385031215614e7057600080fd5b82356001600160401b0380821115614e8757600080fd5b818501915085601f830112614e9b57600080fd5b813581811115614eaa57600080fd5b866020828501011115614ebc57600080fd5b60209290920196919550909350505050565b600080600060608486031215614ee357600080fd5b833592506020840135614ef5816148f8565b929592945050506040919091013590565b60006001600160401b03821115614f1f57614f1f614910565b5060051b60200190565b600082601f830112614f3a57600080fd5b81356020614f4a6149c483614f06565b82815260059290921b84018101918181019086841115614f6957600080fd5b8286015b84811015614f845780358352918301918301614f6d565b509695505050505050565b60008060408385031215614fa257600080fd5b82356001600160401b0380821115614fb957600080fd5b818501915085601f830112614fcd57600080fd5b81356020614fdd6149c483614f06565b82815260059290921b84018101918181019089841115614ffc57600080fd5b948201945b83861015615023578535615014816148f8565b82529482019490820190615001565b9650508601359250508082111561503957600080fd5b5061504685828601614f29565b9150509250929050565b6000806040838503121561506357600080fd5b82359150602083013561507581614b8f565b809150509250929050565b60006020828403121561509257600080fd5b81356001600160401b038111156150a857600080fd5b61243d848285016149a5565b6000608082840312156150c657600080fd5b82601f8301126150d557600080fd5b604051608081018181106001600160401b03821117156150f7576150f7614910565b60405280608084018581111561510c57600080fd5b845b8181101561512657803583526020928301920161510e565b509195945050505050565b60006020828403121561514357600080fd5b5051919050565b634e487b7160e01b600052601160045260246000fd5b808201808211156108ad576108ad61514a565b8060005b6004811015611c45578151845260209384019390910190600101615177565b60006101c089835260208084018a60005b60058110156151cd5781516001600160a01b0316835291830191908301906001016151a7565b505050506151de60c0840189615173565b806101408401526151f181840188614ab9565b90508281036101608401526152068187614ab9565b61018084019590955250506101a0015295945050505050565b600082601f83011261523057600080fd5b815160206152406149c483614f06565b82815260059290921b8401810191818101908684111561525f57600080fd5b8286015b84811015614f845780518352918301918301615263565b6000806040838503121561528d57600080fd5b825161529881614b8f565b60208401519092506001600160401b038111156152b457600080fd5b6150468582860161521f565b6001600160a01b0392831681529116602082015260400190565b6001600160a01b039586168152602081019490945260408401929092526060830152909116608082015260a00190565b8060005b6002811015611c455781516001600160a01b031684526020938401939091019060010161530e565b888152602081018890526101208101615352604083018961530a565b608082019690965260a08101949094526001600160a01b039290921660c0840152151560e0830152610100909101529392505050565b60006020828403121561539a57600080fd5b81516001600160401b038111156153b057600080fd5b61243d8482850161521f565b818103818111156108ad576108ad61514a565b634e487b7160e01b600052602160045260246000fd5b828152604081016004831061540a57634e487b7160e01b600052602160045260246000fd5b8260208301529392505050565b60006020828403121561542957600080fd5b8151613437816148f8565b8781526101608101615449602083018961530a565b8660020b60608301528560020b608083015260018060a01b03851660a083015283151560c083015260808360e084013798975050505050505050565b60006020828403121561549757600080fd5b81516001600160401b038111156154ad57600080fd5b8201601f810184136154be57600080fd5b80516154cc6149c48261497e565b8181528560208385010111156154e157600080fd5b6154f2826020830160208601614a95565b95945050505050565b828152604060208201526000610c616040830184614ab9565b634e487b7160e01b600052603260045260246000fd5b600082601f83011261553b57600080fd5b8151602061554b6149c483614f06565b82815260059290921b8401810191818101908684111561556a57600080fd5b8286015b84811015614f84578051615581816148f8565b835291830191830161556e565b600082601f83011261559f57600080fd5b815160206155af6149c483614f06565b82815260059290921b840181019181810190868411156155ce57600080fd5b8286015b84811015614f845780516155e581614b8f565b83529183019183016155d2565b6000806000806080858703121561560857600080fd5b84516001600160401b038082111561561f57600080fd5b61562b8883890161552a565b955060209150818701518181111561564257600080fd5b8701601f8101891361565357600080fd5b80516156616149c482614f06565b81815260059190911b8201840190848101908b83111561568057600080fd5b928501925b828410156156a757835161569881614c04565b82529285019290850190615685565b60408b01519098509450505050808211156156c157600080fd5b6156cd8883890161521f565b935060608701519150808211156156e357600080fd5b50614b838782880161558e565b600181811c9082168061570457607f821691505b60208210810361572457634e487b7160e01b600052602260045260246000fd5b50919050565b83815260406020820152816040820152818360608301376000818301606090810191909152601f909201601f1916010192915050565b80820281158282048414176108ad576108ad61514a565b60008261579457634e487b7160e01b600052601260045260246000fd5b500490565b6000602082840312156157ab57600080fd5b815161343781614b8f565b86815260c0602082015260006157cf60c0830188614ab9565b82810360408401526157e18188614d39565b6001600160a01b0396871660608501529490951660808301525060a00152949350505050565b6000806040838503121561581a57600080fd5b8251615825816148f8565b6020939093015192949293505050565b6000806040838503121561584857600080fd5b505080516020909101519092909150565b82815260a081016134376020830184615173565b600081518084526020808501945080840160005b83811015614d695781516001600160a01b031687529582019590820190600101615881565b60a0815260006158b960a083018861586d565b82810360208401526158cb8188614d39565b604084019690965250506001600160a01b03929092166060830152151560809091015292915050565b60008060006060848603121561590957600080fd5b8351925060208401516001600160401b038082111561592757600080fd5b6159338783880161521f565b9350604086015191508082111561594957600080fd5b506159568682870161521f565b9150509250925092565b6001600160a01b038616815260a0602082018190526000906159849083018761586d565b8281036040840152615996818761586d565b905082810360608401526159aa8186614d39565b905082810360808401526159be8185614d39565b98975050505050505050565b600080604083850312156159dd57600080fd5b82516001600160401b03808211156159f457600080fd5b615a008683870161552a565b93506020850151915080821115615a1657600080fd5b506150468582860161521f565b6020808252602b908201527f496e697469616c697a61626c653a20636f6e7472616374206973206e6f74206960408201526a6e697469616c697a696e6760a81b606082015260800190565b85815284602082015260a060408201526000615a8d60a0830186614d39565b8281036060840152615a9f818661586d565b9150508260808301529695505050505050565b87815260e060208201526000615acb60e083018961586d565b604083018890526001600160a01b03871660608401528281036080840152615af38187614d39565b60a0840195909552505060c0015295945050505050565b828152604060208201526000610c616040830184614d39565b60c081526000615b3660c083018961586d565b6020830197909752506001600160a01b039485166040820152929093166060830152608082015260a00152919050565b604081526000615b796040830185614d39565b82810360208401526154f28185614d39565b60008060408385031215615b9e57600080fd5b82516001600160401b03811115615bb457600080fd5b615bc08582860161521f565b925050602083015190509250929050565b600080600060608486031215615be657600080fd5b83516001600160401b0380821115615bfd57600080fd5b615c098783880161552a565b9450602086015191508082111561592757600080fd5b6001600160a01b03858116825284166020820152608060408201819052600090615c4b9083018561586d565b82810360608401526131a98185614d39565b87815286602082015260e060408201526000615c7c60e083018861586d565b6001600160a01b03871660608401526080830186905282810360a0840152615ca4818661586d565b905082810360c0840152615cb88185614d39565b9a9950505050505050505050565b60008251615cd8818460208701614a95565b919091019291505056fea26469706673582212206c1b23f828f1b255caddccc473838130664e9c3ea2789cb785f31d8e4e1b367864736f6c63430008110033",
  "deployedBytecode": "0x608060405234801561001057600080fd5b50600436106103645760003560e01c80636b5fba5a116101c9578063ab9e3eee116100ff578063ceee861d116100ad578063dee1f0e41161007c578063dee1f0e4146107ac578063dfeb1032146107bf578063f77c4791146107d2578063ffb86c6a146107da57600080fd5b8063ceee861d14610765578063d295ea7014610789578063db8d55f114610791578063de3d047c1461079957600080fd5b8063ab9e3eee146106db578063b2457556146106e3578063b429afeb146106f6578063b77c975b14610709578063bd38837b1461073b578063cd4c81561461074c578063ce2f18421461075d57600080fd5b80637eba7ba611610177578063936725ec11610146578063936725ec146105e557806396b7b14e146106845780639d0bcca014610697578063a3f4df7e1461069f57600080fd5b80637eba7ba6146106315780637efc77fa14610643578063877887821461066957806387c7f7701461067157600080fd5b80636b5fba5a146105a45780636ffb4c8e146105b75780637063a237146105ca57806371ee0175146105dd57806373a50ef5146105e557806378327438146106095780637cc963801461062957600080fd5b80634593144c1161029e57806351e03fbe1161024c5780635641ec031161021b5780635641ec031461055b5780635cfc1a51146105635780636207a0cf1461056d57806363e277341461059157600080fd5b806351e03fbe1461051357806352bbbb74146105265780635412335d1461053b578063546799631461055357600080fd5b80634593144c146104b05780634ad0b684146104b85780634ba31b01146104c05780634e71d92d146104c85780634fa5d854146104d05780634fac6ccd146104ed578063507142d91461050057600080fd5b80631d2dca9e1161031657806333c5b58e116102e557806333c5b58e1461046a57806338d52e0f146104725780633cd8045e1461048c57806342fdb4711461049d57600080fd5b80631d2dca9e146104345780632221eb3c14610447578063261efa121461045a578063325a19f11461046257600080fd5b806301e1d1141461036957806301ffc9a714610384578063066a6fc3146103a7578063074424d6146103ba5780630acd12c7146103eb5780630e30428d146103f3578063150b7a0214610408575b600080fd5b6103716107e2565b6040519081526020015b60405180910390f35b6103976103923660046148ce565b61086d565b604051901515815260200161037b565b6103976103b53660046149fb565b6108b3565b6103de604051806040016040528060058152602001640312e302e360dc1b81525081565b60405161037b9190614ae5565b610371610a92565b610406610401366004614af8565b610bb4565b005b61041b610416366004614b24565b610c58565b6040516001600160e01b0319909116815260200161037b565b610406610442366004614b9d565b610c69565b610406610455366004614bba565b610dd2565b606854610371565b610371610e48565b610371610e78565b6064546001600160a01b03165b60405161037b9190614bd3565b6065546001600160a01b031661047f565b6104066104ab366004614bba565b610ef8565b610371610fe7565b609754610371565b610371611017565b61040661108e565b6104d8611108565b6040805192835260208301919091520161037b565b6104066104fb366004614be7565b611176565b61040661050e366004614c24565b6112a8565b610371610521366004614bba565b611658565b61052e611820565b60405161037b9190614d74565b610543611a8e565b60405161037b9493929190614db9565b6103de611b1d565b610406611bb2565b600160ff1b610371565b6103de604051806040016040528060058152602001640ccb8c4b8d60da1b81525081565b61040661059f366004614e5d565b611c4b565b6104066105b2366004614be7565b611d29565b6104066105c5366004614bba565b611dba565b6104066105d8366004614ece565b611e42565b609954610371565b6103de60405180604001604052806005815260200164332e302e3160d81b81525081565b610371610617366004614be7565b60966020526000908152604090205481565b610371611ee0565b61037161063f366004614bba565b5490565b6103de60405180604001604052806007815260200166416c676562726160c81b81525081565b606754610371565b61037161067f366004614af8565b611f10565b610406610692366004614f8f565b6121f6565b61047f61229b565b6103de6040518060400160405280601a81526020017f416c676562726120436f6e76657274657220537472617465677900000000000081525081565b6103976122cb565b6103716106f1366004615050565b612398565b610397610704366004614be7565b612447565b61071c610717366004615080565b61246c565b604080516001600160a01b03909316835260208301919091520161037b565b6098546001600160a01b031661047f565b6066546001600160a01b031661047f565b609a54610371565b6103de60405180604001604052806005815260200164332e312e3360d81b81525081565b606954610371565b6104d861255e565b6104066107a7366004614bba565b6125d6565b6103976107ba366004614be7565b612633565b6104066107cd3660046150b4565b6126b8565b61047f612760565b610397612790565b60006107ed60975490565b6064546040516370a0823160e01b81526001600160a01b03909116906370a082319061081d903090600401614bd3565b602060405180830381865afa15801561083a573d6000803e3d6000fd5b505050506040513d601f19601f8201168201806040525081019061085e9190615131565b6108689190615160565b905090565b60006001600160e01b03198216631e94dddf60e01b148061089e57506001600160e01b0319821663f73147b360e01b145b806108ad57506108ad826127de565b92915050565b60008060006108c0612803565b91509150606073__$e73f546b22cebb10cea6b8c699528ebeb1$__63911ec05360976040518060a001604052808e6001600160a01b03166001600160a01b031681526020018d6001600160a01b03166001600160a01b03168152602001610925612760565b6001600160a01b039081168252609854811660208084019190915260655490911660409283015281516080810183528e8152908101899052808201889052606081018b905290516001600160e01b031960e086901b168152610996939291908d908d90600190609690600401615196565b600060405180830381865af41580156109b3573d6000803e3d6000fd5b505050506040513d6000823e601f3d908101601f191682016040526109db919081019061527a565b90945090506109e981612855565b60006010558380156109fe57506109fe612884565b15610a09576001600f555b606480546040516368f9467b60e01b81526001600160a01b039091166004820152602481018490526097604482015273__$8f1afe7577f9ab973017c74eca19b86f3c$__916368f9467b910160006040518083038186803b158015610a6d57600080fd5b505af4158015610a81573d6000803e3d6000fd5b505050505050509695505050505050565b606554606454604051633e53813360e11b81526000926001600160a01b03908116921690839073__$7dde4232fad0cb3c495beb9e735b7d0c63$__90637ca7026690610ae490869086906004016152c0565b602060405180830381865af4158015610b01573d6000803e3d6000fd5b505050506040513d601f19601f82011682018060405250810190610b259190615131565b90506000806000610b34612896565b92509250925073__$7dde4232fad0cb3c495beb9e735b7d0c63$__639ad00ec2868686868b6040518663ffffffff1660e01b8152600401610b799594939291906152da565b60006040518083038186803b158015610b9157600080fd5b505af4158015610ba5573d6000803e3d6000fd5b50929998505050505050505050565b73__$8f1afe7577f9ab973017c74eca19b86f3c$__63142395ef610bd6612760565b6040516001600160e01b031960e084901b1681526001600160a01b03918216600482015290851660248201526044810184905260640160006040518083038186803b158015610c2457600080fd5b505af4158015610c38573d6000803e3d6000fd5b5050506001600160a01b0390921660009081526096602052604090205550565b630a85bd0160e11b5b949350505050565b6000610c73612760565b60405163124fdbb760e21b815290915073__$7dde4232fad0cb3c495beb9e735b7d0c63$__9063493f6edc90610cad908490600401614bd3565b60006040518083038186803b158015610cc557600080fd5b505af4158015610cd9573d6000803e3d6000fd5b50505050600080610ce8612803565b604080518082019091526098546001600160a01b03168152919350915060009073__$e73f546b22cebb10cea6b8c699528ebeb1$__9063b6fda8139060979060019060208101610d378a6128b1565b6001600160a01b039081169091526065546040516001600160e01b031960e088901b168152610d77959493928a928c929116908e90609690600401615336565b600060405180830381865af4158015610d94573d6000803e3d6000fd5b505050506040513d6000823e601f3d908101601f19168201604052610dbc9190810190615388565b9050610dc781612855565b505042601055505050565b73__$7dde4232fad0cb3c495beb9e735b7d0c63$__63493f6edc610df4612760565b6040518263ffffffff1660e01b8152600401610e109190614bd3565b60006040518083038186803b158015610e2857600080fd5b505af4158015610e3c573d6000803e3d6000fd5b505050600f9190915550565b600061086861063f60017f6f55f470bdc9cb5f04223fd822021061668e4dccb43e8727b295106dc9769c8b6153bc565b600073__$7dde4232fad0cb3c495beb9e735b7d0c63$__63493f6edc610e9c612760565b6040518263ffffffff1660e01b8152600401610eb89190614bd3565b60006040518083038186803b158015610ed057600080fd5b505af4158015610ee4573d6000803e3d6000fd5b50505050610ef0612915565b509092915050565b73__$7dde4232fad0cb3c495beb9e735b7d0c63$__63493f6edc610f1a612760565b6040518263ffffffff1660e01b8152600401610f369190614bd3565b60006040518083038186803b158015610f4e57600080fd5b505af4158015610f62573d6000803e3d6000fd5b5073__$79fe6ec7a3db45dafbed12dca1c6dad764$__9250636bffb346915060069050836003811115610f9757610f976153cf565b6040518363ffffffff1660e01b8152600401610fb49291906153e5565b60006040518083038186803b158015610fcc57600080fd5b505af4158015610fe0573d6000803e3d6000fd5b5050505050565b600061086861063f60017f812a673dfca07956350df10f8a654925f561d7a0da09bdbe79e653939a14d9f16153bc565b604051630a3c2bb160e21b81526001600482015260009073__$e73f546b22cebb10cea6b8c699528ebeb1$__906328f0aec490602401602060405180830381865af415801561106a573d6000803e3d6000fd5b505050506040513d601f19601f820116820180604052508101906108689190615131565b73__$7dde4232fad0cb3c495beb9e735b7d0c63$__63d19cc38a6110b0612760565b6040518263ffffffff1660e01b81526004016110cc9190614bd3565b60006040518083038186803b1580156110e457600080fd5b505af41580156110f8573d6000803e3d6000fd5b505050506111046129e6565b5050565b60655460408051808201909152600a81526914d08e8811195b9a595960b21b60208201526000918291906001600160a01b031633146111635760405162461bcd60e51b815260040161115a9190614ae5565b60405180910390fd5b5061116e6001612aa2565b915091509091565b3330146111c55760405162461bcd60e51b815260206004820152601b60248201527f496e637265617365207265766973696f6e20666f7262696464656e0000000000604482015260640161115a565b60006111f561063f60017f22573091f17911fb166032a3d9e0554aa73d31b7b7ddea4a4dd2995650af84bd6153bc565b611200906001615160565b90506112348161123160017f22573091f17911fb166032a3d9e0554aa73d31b7b7ddea4a4dd2995650af84bd6153bc565b55565b6112638261123160017fbfaaa2fb63266ff27c2da975f5894955056f50419af651a81f6c5060581857e46153bc565b604080518281526001600160a01b03841660208201527ff27e2ef832a4eb8ed8ec553b875eecd44764cda95b1c24170e281539e0a869c8910160405180910390a15050565b600054610100900460ff16158080156112c85750600054600160ff909116105b806112e25750303b1580156112e2575060005460ff166001145b6113455760405162461bcd60e51b815260206004820152602e60248201527f496e697469616c697a61626c653a20636f6e747261637420697320616c72656160448201526d191e481a5b9a5d1a585b1a5e995960921b606482015260840161115a565b6000805460ff191660011790558015611368576000805461ff0019166101001790555b6113738a8a8a612c9b565b73__$e73f546b22cebb10cea6b8c699528ebeb1$__632df3c9a9600160405180604001604052808e6001600160a01b03166001600160a01b031681526020018b6001600160a01b03166001600160a01b031681525089898e6001600160a01b03166338d52e0f6040518163ffffffff1660e01b8152600401602060405180830381865afa158015611408573d6000803e3d6000fd5b505050506040513d601f19601f8201168201806040525081019061142c9190615417565b8a896040518863ffffffff1660e01b81526004016114509796959493929190615434565b60006040518083038186803b15801561146857600080fd5b505af415801561147c573d6000803e3d6000fd5b50506040805163c3724a8960e01b81526001600482015286516001600160a01b03908116602483015260208801518116604483015291870151909116606482015260608601516084820152608086015160a482015273__$e73f546b22cebb10cea6b8c699528ebeb1$__925063c3724a89915060c40160006040518083038186803b15801561150a57600080fd5b505af415801561151e573d6000803e3d6000fd5b505060405163bd85be2960e01b81526001600482015273__$7dde4232fad0cb3c495beb9e735b7d0c63$__9250637fc1c15b915060649073__$e73f546b22cebb10cea6b8c699528ebeb1$__9063bd85be2990602401600060405180830381865af4158015611591573d6000803e3d6000fd5b505050506040513d6000823e601f3d908101601f191682016040526115b99190810190615485565b6040518363ffffffff1660e01b81526004016115d69291906154fb565b60006040518083038186803b1580156115ee57600080fd5b505af4158015611602573d6000803e3d6000fd5b50505050801561164c576000805461ff0019169055604051600181527f7f26b83ff96e1f2b6a682f133852f6798a09c465da95921460cefb38474024989060200160405180910390a15b50505050505050505050565b606554606454604051633e53813360e11b81526000926001600160a01b03908116921690839073__$7dde4232fad0cb3c495beb9e735b7d0c63$__90637ca70266906116aa90869086906004016152c0565b602060405180830381865af41580156116c7573d6000803e3d6000fd5b505050506040513d601f19601f820116820180604052508101906116eb9190615131565b9050808511156117975760008061170a61170584896153bc565b612d3d565b604051631594b05b60e01b8152909850919350915073__$7dde4232fad0cb3c495beb9e735b7d0c63$__90631594b05b906117519087908790879087908c906004016152da565b602060405180830381865af415801561176e573d6000803e3d6000fd5b505050506040513d601f19601f820116820180604052508101906117929190615131565b925050505b6040516333bbb20360e11b815260048101869052602481018290526001600160a01b0380841660448301528416606482015273__$7dde4232fad0cb3c495beb9e735b7d0c63$__9063677764069060840160006040518083038186803b15801561180057600080fd5b505af4158015611814573d6000803e3d6000fd5b50505050505050919050565b60025460408051600480825260a082019092526060926001600160a01b0316916020820160808036833750506003546040516370a0823160e01b81529294506001600160a01b0316916370a08231915061187e908490600401614bd3565b602060405180830381865afa15801561189b573d6000803e3d6000fd5b505050506040513d601f19601f820116820180604052508101906118bf9190615131565b826000815181106118d2576118d2615514565b6020908102919091010152600480546040516370a0823160e01b81526001600160a01b03909116916370a082319161190c91859101614bd3565b602060405180830381865afa158015611929573d6000803e3d6000fd5b505050506040513d601f19601f8201168201806040525081019061194d9190615131565b8260018151811061196057611960615514565b60209081029190910101526033546040516370a0823160e01b81526001600160a01b03909116906370a082319061199b908490600401614bd3565b602060405180830381865afa1580156119b8573d6000803e3d6000fd5b505050506040513d601f19601f820116820180604052508101906119dc9190615131565b826002815181106119ef576119ef615514565b60209081029190910101526034546040516370a0823160e01b81526001600160a01b03909116906370a0823190611a2a908490600401614bd3565b602060405180830381865afa158015611a47573d6000803e3d6000fd5b505050506040513d601f19601f82011682018060405250810190611a6b9190615131565b82600381518110611a7e57611a7e615514565b6020026020010181815250505090565b604051636e81b62960e01b81526001600482015260609081908190819073__$b1ba452cecccdd06eb05ace2d0a762c7e1$__90636e81b62990602401600060405180830381865af4158015611ae7573d6000803e3d6000fd5b505050506040513d6000823e601f3d908101601f19168201604052611b0f91908101906155f2565b935093509350935090919293565b606060646006018054611b2f906156f0565b80601f0160208091040260200160405190810160405280929190818152602001828054611b5b906156f0565b8015611ba85780601f10611b7d57610100808354040283529160200191611ba8565b820191906000526020600020905b815481529060010190602001808311611b8b57829003601f168201915b5050505050905090565b611bba612d6e565b73__$7dde4232fad0cb3c495beb9e735b7d0c63$__63bd020682611bdc612760565b6064805460655460405160e086901b6001600160e01b03191681526001600160a01b03948516600482015291841660248301529290921660448301520160006040518083038186803b158015611c3157600080fd5b505af4158015611c45573d6000803e3d6000fd5b50505050565b73__$7dde4232fad0cb3c495beb9e735b7d0c63$__63493f6edc611c6d612760565b6040518263ffffffff1660e01b8152600401611c899190614bd3565b60006040518083038186803b158015611ca157600080fd5b505af4158015611cb5573d6000803e3d6000fd5b5050604051637fc1c15b60e01b815273__$7dde4232fad0cb3c495beb9e735b7d0c63$__9250637fc1c15b9150611cf5906064908690869060040161572a565b60006040518083038186803b158015611d0d57600080fd5b505af4158015611d21573d6000803e3d6000fd5b505050505050565b73__$7dde4232fad0cb3c495beb9e735b7d0c63$__63493f6edc611d4b612760565b6040518263ffffffff1660e01b8152600401611d679190614bd3565b60006040518083038186803b158015611d7f57600080fd5b505af4158015611d93573d6000803e3d6000fd5b5050600280546001600160a01b0319166001600160a01b0394909416939093179092555050565b73__$8f1afe7577f9ab973017c74eca19b86f3c$__63d2c3cf25611ddc612760565b6040516001600160e01b031960e084901b1681526001600160a01b0390911660048201526024810184905260440160006040518083038186803b158015611e2257600080fd5b505af4158015611e36573d6000803e3d6000fd5b50505060999190915550565b73__$7dde4232fad0cb3c495beb9e735b7d0c63$__63ed6b63c16064858585611e69612760565b6040516001600160e01b031960e088901b168152600481019590955260248501939093526001600160a01b039182166044850152606484015216608482015260a40160006040518083038186803b158015611ec357600080fd5b505af4158015611ed7573d6000803e3d6000fd5b50505050505050565b600061086861063f60017f22573091f17911fb166032a3d9e0554aa73d31b7b7ddea4a4dd2995650af84bd6153bc565b6000611f1a614886565b611f2684826000612db9565b805160408051808201909152600a81526914d08e8811195b9a595960b21b6020820152906001600160a01b03163314611f725760405162461bcd60e51b815260040161115a9190614ae5565b5060408051808201909152601081526f54532d3234207a65726f2076616c756560801b602082015283611fb85760405162461bcd60e51b815260040161115a9190614ae5565b5060001981606001511415604051806040016040528060118152602001701514cb4c4d081ddc9bdb99c8185cdcd95d607a1b8152509061200b5760405162461bcd60e51b815260040161115a9190614ae5565b506000806120196001612e33565b608085015160405163513cfdb360e11b81526001600160a01b038a16600482015260248101919091526044810183905260648181018390526084820152919350915073__$8f1afe7577f9ab973017c74eca19b86f3c$__9063a279fb669060a401602060405180830381865af4158015612097573d6000803e3d6000fd5b505050506040513d601f19601f820116820180604052508101906120bb9190615131565b60808401526000620186a06120d26103e882615160565b6120dc9088615760565b6120e69190615777565b90508084608001511061211257835161210a906001600160a01b0389169088612efd565b8594506121e3565b8260000361214d576121296103e8620186a0615160565b620186a0856080015161213c9190615760565b6121469190615777565b94506121e3565b6000620186a06121606103e86002615760565b61216d90620186a0615160565b6121779089615760565b6121819190615777565b905061219c85608001518261219691906153bc565b86612f4f565b5060006121a8896131b4565b90508281116121dc576121c06103e8620186a0615160565b6121cd620186a083615760565b6121d79190615777565b6121de565b875b965050505b6121eb613224565b505050505092915050565b60985460408051808201909152600a81526914d08e8811195b9a595960b21b6020820152906001600160a01b031633146122435760405162461bcd60e51b815260040161115a9190614ae5565b5080518251146040518060400160405280600d81526020016c54532d3139206c656e6774687360981b8152509061228d5760405162461bcd60e51b815260040161115a9190614ae5565b50612296613224565b505050565b600061086861063f60017fbfaaa2fb63266ff27c2da975f5894955056f50419af651a81f6c5060581857e46153bc565b60006122d5612790565b1580156122e757506122e5612884565b155b8015610868575060985473__$e73f546b22cebb10cea6b8c699528ebeb1$__9063d1585fc4906001906001600160a01b0316612321612760565b6040516001600160e01b031960e086901b16815260048101939093526001600160a01b0391821660248401521660448201526064015b602060405180830381865af4158015612374573d6000803e3d6000fd5b505050506040513d601f19601f820116820180604052508101906108689190615799565b6065546064546040516001625acc3160e01b03198152600092839273__$7dde4232fad0cb3c495beb9e735b7d0c63$__9263ffa533cf926123ea926001600160a01b03918216929116906004016152c0565b602060405180830381865af4158015612407573d6000803e3d6000fd5b505050506040513d601f19601f8201168201806040525081019061242b9190615131565b905080156124405761243d818461323a565b91505b5092915050565b6000612451612760565b6001600160a01b0316826001600160a01b0316149050919050565b6005546000908190630100000090046001600160801b031681811561249957612494826132e6565b6124b7565b60408051600280825260608201835290916020830190803683375050505b905073__$b1ba452cecccdd06eb05ace2d0a762c7e1$__6350d2e0ba600187846124df612760565b6098546040516001600160e01b031960e088901b16815261251395949392916001600160a01b0316906096906004016157b6565b6040805180830381865af415801561252f573d6000803e3d6000fd5b505050506040513d601f19601f820116820180604052508101906125539190615807565b935093505050915091565b604051632cc58ef960e01b815260016004820152600090819073__$e73f546b22cebb10cea6b8c699528ebeb1$__90632cc58ef9906024016040805180830381865af41580156125b2573d6000803e3d6000fd5b505050506040513d601f19601f8201168201806040525081019061116e9190615835565b73__$7dde4232fad0cb3c495beb9e735b7d0c63$__636d51f04360646125fa612760565b6040516001600160e01b031960e085901b16815260048101929092526001600160a01b0316602482015260448101849052606401610fb4565b6000816001600160a01b0316612647612760565b6001600160a01b0316635aa6e6756040518163ffffffff1660e01b8152600401602060405180830381865afa158015612684573d6000803e3d6000fd5b505050506040513d601f19601f820116820180604052508101906126a89190615417565b6001600160a01b03161492915050565b73__$7dde4232fad0cb3c495beb9e735b7d0c63$__63493f6edc6126da612760565b6040518263ffffffff1660e01b81526004016126f69190614bd3565b60006040518083038186803b15801561270e57600080fd5b505af4158015612722573d6000803e3d6000fd5b5050604051630593c4c960e01b815273__$79fe6ec7a3db45dafbed12dca1c6dad764$__9250630593c4c99150610fb4906006908590600401615859565b600061086861063f60017f5165972ef41194f06c5007493031d0b927c20741adcb74403b954009fd2c36186153bc565b609854604051633934e59d60e11b8152600160048201526001600160a01b03909116602482015260009073__$e73f546b22cebb10cea6b8c699528ebeb1$__90637269cb3a90604401612357565b60006001600160e01b0319821663c19fa56160e01b14806108ad57506108ad82613370565b6000806128106001612e33565b925082905061281d6107e2565b61282791906153bc565b600554909150630100000090046001600160801b031680156128505761284e8160006133a5565b505b509091565b8051600214801561286b5750612869612884565b155b1561287c576128798161343e565b50505b611104613224565b6006546000906108689060ff166134cb565b60008060006128a6600019612d3d565b925092509250909192565b6000816001600160a01b0316634046ebae6040518163ffffffff1660e01b8152600401602060405180830381865afa1580156128f1573d6000803e3d6000fd5b505050506040513d601f19601f820116820180604052508101906108ad9190615417565b606454600090606090819083908190612936906001600160a01b03166134e8565b9150915073__$8f1afe7577f9ab973017c74eca19b86f3c$__637325f33f8361295e85613554565b6098546040516001600160e01b031960e086901b16815261299493929187916001600160a01b03909116906001906004016158a6565b600060405180830381865af41580156129b1573d6000803e3d6000fd5b505050506040513d6000823e601f3d908101601f191682016040526129d991908101906158f4565b9450945094505050909192565b60608060008060006129f66135d2565b609854929550909350915073__$8f1afe7577f9ab973017c74eca19b86f3c$__9063e99de4da906001600160a01b0316612a2e613651565b8686866040518663ffffffff1660e01b8152600401612a51959493929190615960565b600060405180830381865af4158015612a6e573d6000803e3d6000fd5b505050506040513d6000823e601f3d908101601f19168201604052612a9691908101906159ca565b90969095509350505050565b600080600080612ab26001612e33565b91509150612abf856136e5565b612c19576000806000806000612ad3613798565b945094509450945094506000612ae7612915565b505090506000612b398c8015612afc57508215155b8015612b235750609954620186a090612b16908590615760565b612b209190615777565b86115b612b2e576000612b30565b855b8984600161387b565b9150612b7d9050612b4a8684615160565b6064548390612b61906001600160a01b03166131b4565b609754612b6e9190615160565b612b789190615160565b613ac8565b909b509950604080518a8152602081018a905290810188905260608101879052608081018c905260a081018b905260c0810185905260e081018490527ff87a9dead982c86370b885093f79ded2c9a614d95d83c0c20f68e13e3b9b7d3f906101000160405180910390a1612c03612bf4888d615160565b612bfe8587615160565b613af8565b9a50612c0f868b615160565b9950505050505050505b6098546064546040516323c1ae5960e11b815273__$8f1afe7577f9ab973017c74eca19b86f3c$__926347835cb292612c64926001600160a01b0392831692909116906004016152c0565b60006040518083038186803b158015612c7c57600080fd5b505af4158015612c90573d6000803e3d6000fd5b505050505050915091565b600054610100900460ff16612cc25760405162461bcd60e51b815260040161115a90615a23565b612ccc8383613b12565b609880546001600160a01b0319166001600160a01b038316179055612cf56064620186a0615777565b6099557fe4166dfcf23bbd3e3f764a99dc8fa740554c03c82d6019b81cf265f396f6f2fe612d276064620186a0615777565b60405190815260200160405180910390a1505050565b6000806000806000612d4f6001612e33565b91509150612d5e868284613bbb565b5091989097509095509350505050565b6000612d78613dc8565b90507f768a28cb3459382a3d2173feb2dad0235f8de680b109872da581a3aa269fe5f481604051612da99190614d74565b60405180910390a1611104613224565b612dc1613651565b604083018190526001600160a01b038085166020850152609854168352612de89084613e4f565b6060830152612df6836131b4565b608083015280612e20576040820151606454612e1b91906001600160a01b0316613e4f565b612e26565b81606001515b60a0909201919091525050565b6000808215612ef0576064546000908190612e56906001600160a01b03166134e8565b9150915073__$8f1afe7577f9ab973017c74eca19b86f3c$__633643611860976064612e8186613554565b86866040518663ffffffff1660e01b8152600401612ea3959493929190615a6e565b6040805180830381865af4158015612ebf573d6000803e3d6000fd5b505050506040513d601f19601f82011682018060405250810190612ee39190615835565b9094509250612ef8915050565b505060975460005b915091565b604080516001600160a01b038416602482015260448082018490528251808303909101815260649091019091526020810180516001600160e01b031663a9059cbb60e01b179052612296908490613ead565b600080612f6c6005546001600160801b0363010000009091041690565b90506000612f79826132e6565b9050600073__$8f1afe7577f9ab973017c74eca19b86f3c$__630252e2c78787604001518860600151896000015187898c60a001516040518863ffffffff1660e01b8152600401612fd09796959493929190615ab2565b602060405180830381865af4158015612fed573d6000803e3d6000fd5b505050506040513d601f19601f820116820180604052508101906130119190615131565b905080156130835760006130268260006133a5565b600554909150630100000090046001600160801b031661304690856153bc565b91507faebc771af58936b05e89b0be7d3f9761480181abcd4a649fbdd01753fda169708282604051613079929190615b0a565b60405180910390a1505b600073__$e930d50fb5f4f1298547dbcb2bb0591990$__63c432aee18760400151886060015189600001516130be6130b9612760565b6128b1565b6000198d146130dc578c8c608001516130d79190615160565b6130de565b8c5b60966040518763ffffffff1660e01b815260040161310196959493929190615b23565b602060405180830381865af415801561311e573d6000803e3d6000fd5b505050506040513d601f19601f820116820180604052508101906131429190615131565b905085608001518110156040518060400160405280601681526020017554532d32302062616c616e636520646563726561736560501b815250906131995760405162461bcd60e51b815260040161115a9190614ae5565b5060808601516131a990826153bc565b979650505050505050565b6040516370a0823160e01b81526000906001600160a01b038316906370a08231906131e3903090600401614bd3565b602060405180830381865afa158015613200573d6000803e3d6000fd5b505050506040513d601f19601f820116820180604052508101906108ad9190615131565b600061322e612915565b50506097819055919050565b60065460009061324c9060ff166134cb565b156132d557604080516002808252606082018352600092602083019080368337019050509050838160008151811061328657613286615514565b6020026020010181815250507f59400c8c523464b521238ea8f50e923f2bc64663557e6afec92a97f7efe92d0581826040516132c3929190615b66565b60405180910390a160009150506108ad565b6132df8383613f7f565b90506108ad565b60405163a7aced0960e01b8152600160048201526001600160801b038216602482015260609073__$e73f546b22cebb10cea6b8c699528ebeb1$__9063a7aced0990604401600060405180830381865af4158015613348573d6000803e3d6000fd5b505050506040513d6000823e601f3d908101601f191682016040526108ad9190810190615388565b60006001600160e01b0319821663b7b79fa960e01b14806108ad57506301ffc9a760e01b6001600160e01b03198316146108ad565b604051635b1e6c8160e11b8152600160048201526001600160801b0383166024820152811515604482015260609073__$e73f546b22cebb10cea6b8c699528ebeb1$__9063b63cd90290606401600060405180830381865af415801561340f573d6000803e3d6000fd5b505050506040513d6000823e601f3d908101601f191682016040526134379190810190615388565b9392505050565b6060600073__$e73f546b22cebb10cea6b8c699528ebeb1$__63b67626216001856040518363ffffffff1660e01b815260040161347c929190615b0a565b600060405180830381865af4158015613499573d6000803e3d6000fd5b505050506040513d6000823e601f3d908101601f191682016040526134c19190810190615b8b565b9094909350915050565b600060018260038111156134e1576134e16153cf565b1192915050565b606060006134f4613651565b91506135008284613e4f565b90506000198114156040518060400160405280600f81526020016e53423a2057726f6e672076616c756560881b8152509061354e5760405162461bcd60e51b815260040161115a9190614ae5565b50915091565b606060006135726005546001600160801b0363010000009091041690565b9050801561358857613583816132e6565b613437565b82516001600160401b038111156135a1576135a1614910565b6040519080825280602002602001820160405280156135ca578160200160208202803683370190505b509392505050565b60405163f6e2611760e01b8152600160048201526060908190819073__$e73f546b22cebb10cea6b8c699528ebeb1$__9063f6e2611790602401600060405180830381865af4158015613629573d6000803e3d6000fd5b505050506040513d6000823e601f3d908101601f191682016040526128a69190810190615bd1565b6040805160028082526060808301845292602083019080368337505060035482519293506001600160a01b03169183915060009061369157613691615514565b6001600160a01b0392831660209182029290920101526004548251911690829060019081106136c2576136c2615514565b60200260200101906001600160a01b031690816001600160a01b03168152505090565b60006136ef612790565b156040518060400160405280601381526020017241532d31204e65656420726562616c616e636560681b8152509061373a5760405162461bcd60e51b815260040161115a9190614ae5565b50613743612884565b156040518060400160405280601481526020017341532d313420467573652069732061637469766560601b8152509061378f5760405162461bcd60e51b815260040161115a9190614ae5565b50600092915050565b60008060008060008060006137ab6129e6565b600354919350915073__$e73f546b22cebb10cea6b8c699528ebeb1$__906334d2ec3d906001600160a01b03166137e0612760565b85856040518563ffffffff1660e01b81526004016138019493929190615c1f565b602060405180830381865af415801561381e573d6000803e3d6000fd5b505050506040513d601f19601f820116820180604052508101906138429190615131565b965061384e8282613fa8565b60645491955093508790879061386c906001600160a01b03166131b4565b96509650965050509091929394565b60645460009081906001600160a01b03168186881161389b5760006138a5565b6138a587896153bc565b90506000620186a0876097600201546138be9190615760565b6138c89190615777565b8211905060006138d7846131b4565b6001600160a01b0385166000908152609660205260409020549091506138fc90614053565b8911156139eb57818061390f5750888110155b156139d75760655473__$8f1afe7577f9ab973017c74eca19b86f3c$__9063890ffb849086908c906001600160a01b031661394a868e615160565b6040516001600160e01b031960e087901b1681526001600160a01b03948516600482015260248101939093529216604482015260648101919091526084810184905260a4016040805180830381865af41580156139ab573d6000803e3d6000fd5b505050506040513d601f19601f820116820180604052508101906139cf9190615835565b5094506139eb565b6139e360008a8a613bbb565b909850965050505b8115613aaf576000806139fd866134e8565b6098549193509150600090613a1d906001600160a01b031687858561406b565b9050613a2881614320565b613a75576000613a378261343e565b5090507f59400c8c523464b521238ea8f50e923f2bc64663557e6afec92a97f7efe92d058282604051613a6b929190615b66565b60405180910390a1505b6000613a7f613224565b9050613aa2613a8e868e615160565b8a613a988b6131b4565b612b6e9085615160565b9a50613abb945050505050565b8615613abb5760978890555b5050505094509492505050565b60008083831115613ae457613add84846153bc565b9150613af1565b613aee83856153bc565b90505b9250929050565b6000818311613b08576000613437565b61343782846153bc565b600054610100900460ff16613b395760405162461bcd60e51b815260040161115a90615a23565b613b63817fd2de0374d4479f33e63ae5ed6ca772a10463dd883a90c612050b51fab619640061436c565b613b6c826143c2565b604051631797527d60e01b81526064600482018190526001600160a01b0380851660248401528316604483015273__$7dde4232fad0cb3c495beb9e735b7d0c63$__91631797527d9101611cf5565b60008060008060006000198814613bff57620186a0613bdc6103e882615160565b613be6898b615160565b613bf09190615760565b613bfa9190615777565b613c01565b875b9050613c0c816145e7565b8015801590613c1a57508515155b15613dbe57613c27614886565b606454613c3f906001600160a01b0316826001612db9565b80516020820151604051637a55caf360e01b815273__$8f1afe7577f9ab973017c74eca19b86f3c$__92637a55caf392613c7b926004016152c0565b602060405180830381865af4158015613c98573d6000803e3d6000fd5b505050506040513d601f19601f82011682018060405250810190613cbc9190615131565b9450670de0b6b3a764000085613cdb613cd58585612f4f565b8b613af8565b613ce59190615760565b613cef9190615777565b6065546020830151608084015192985073__$8f1afe7577f9ab973017c74eca19b86f3c$__92632ce30333926001600160a01b031691908b908d613d31613224565b6040516001600160e01b031960e089901b1681526001600160a01b03968716600482015295909416602486015260448501929092526064840152608483015260a482015260c4016040805180830381865af4158015613d94573d6000803e3d6000fd5b505050506040513d601f19601f82011682018060405250810190613db89190615835565b94509250505b5093509350935093565b60606000613de66005546001600160801b0363010000009091041690565b90508015613dfe57613df98160016133a5565b613e49565b613e06613651565b516001600160401b03811115613e1e57613e1e614910565b604051908082528060200260200182016040528015613e47578160200160208202803683370190505b505b91505090565b8151600090815b81811015613ea157836001600160a01b0316858281518110613e7a57613e7a615514565b60200260200101516001600160a01b031603613e995791506108ad9050565b600101613e56565b50600019949350505050565b6000613f02826040518060400160405280602081526020017f5361666545524332303a206c6f772d6c6576656c2063616c6c206661696c6564815250856001600160a01b031661463a9092919063ffffffff16565b8051909150156122965780806020019051810190613f209190615799565b6122965760405162461bcd60e51b815260206004820152602a60248201527f5361666545524332303a204552433230206f7065726174696f6e20646964206e6044820152691bdd081cdd58d8d9595960b21b606482015260840161115a565b6000806000613f8d84612e33565b91509150613f9e858284600061387b565b5095945050505050565b6000808351600014613af15773__$e930d50fb5f4f1298547dbcb2bb0591990$__635dcb613060646097613fda613651565b613fe2612760565b60968a8a6040518863ffffffff1660e01b81526004016140089796959493929190615c5d565b6040805180830381865af4158015614024573d6000803e3d6000fd5b505050506040513d601f19601f820116820180604052508101906140489190615835565b909590945092505050565b6000811561406157816108ad565b620186a092915050565b6060614075612790565b156040518060400160405280601381526020017241532d31204e65656420726562616c616e636560681b815250906140c05760405162461bcd60e51b815260040161115a9190614ae5565b50600154600480546040516221c5bf60e11b81526001600160a01b0390931691830191909152600160c81b8104600290810b6024840152600160e01b8204900b6044830152600160a81b900460ff1615156064820152600090819073__$e73f546b22cebb10cea6b8c699528ebeb1$__9062438b7e906084016040805180830381865af4158015614155573d6000803e3d6000fd5b505050506040513d601f19601f820116820180604052508101906141799190615835565b6003546004549294509092506001600160a01b039081169173__$b1ba452cecccdd06eb05ace2d0a762c7e1$__91631c2040d5918b918b918691166141be888a615160565b6141d08a670de0b6b3a7640000615760565b6141da9190615777565b60405160e087901b6001600160e01b03191681526001600160a01b0395861660048201526024810194909452918416604484015290921660648201526084810191909152609660a482015260c401600060405180830381865af4158015614245573d6000803e3d6000fd5b505050506040513d6000823e601f3d908101601f1916820160405261426d9190810190615388565b9350806001600160a01b03168660008151811061428c5761428c615514565b60200260200101516001600160a01b03161461431557836001815181106142b5576142b5615514565b6020026020010151846000815181106142d0576142d0615514565b6020026020010151856000815181106142eb576142eb615514565b602002602001018660018151811061430557614305615514565b6020908102919091010191909152525b505050949350505050565b8051600090815b818110156143625783818151811061434157614341615514565b602002602001015160000361435a575060019392505050565b600101614327565b5060009392505050565b6143768282614649565b6111045760405162461bcd60e51b815260206004820152601a60248201527f496e74657266616365206973206e6f7420737570706f72746564000000000000604482015260640161115a565b600054610100900460ff166143e95760405162461bcd60e51b815260040161115a90615a23565b6001600160a01b0381166144315760405162461bcd60e51b815260206004820152600f60248201526e2d32b9379031b7b73a3937b63632b960891b604482015260640161115a565b61445b817f4c2403fdcb3cff9b705d96bf0705858e3390412670a62c8bcba611ca7e20ab8661436c565b60006001600160a01b0316816001600160a01b0316635aa6e6756040518163ffffffff1660e01b8152600401602060405180830381865afa1580156144a4573d6000803e3d6000fd5b505050506040513d601f19601f820116820180604052508101906144c89190615417565b6001600160a01b0316036145105760405162461bcd60e51b815260206004820152600f60248201526e5a65726f20676f7665726e616e636560881b604482015260640161115a565b61453f8161123160017f5165972ef41194f06c5007493031d0b927c20741adcb74403b954009fd2c36186153bc565b61456e4261123160017f6f55f470bdc9cb5f04223fd822021061668e4dccb43e8727b295106dc9769c8b6153bc565b61459d4361123160017f812a673dfca07956350df10f8a654925f561d7a0da09bdbe79e653939a14d9f16153bc565b604080516001600160a01b0383168152426020820152438183015290517f1a2dd071001ebf6e03174e3df5b305795a4ad5d41d8fdb9ba41dbbe2367134269181900360600190a150565b6145ef612790565b156040518060400160405280601381526020017241532d31204e65656420726562616c616e636560681b815250906111045760405162461bcd60e51b815260040161115a9190614ae5565b6060610c61848460008561471d565b60006001600160a01b0383166146905760405162461bcd60e51b815260206004820152600c60248201526b5a65726f206164647265737360a01b604482015260640161115a565b823b60008190036146a55760009150506108ad565b6040516301ffc9a760e01b81526001600160e01b0319841660048201526001600160a01b038516906301ffc9a790602401602060405180830381865afa92505050801561470f575060408051601f3d908101601f1916820190925261470c91810190615799565b60015b156143625791506108ad9050565b60608247101561477e5760405162461bcd60e51b815260206004820152602660248201527f416464726573733a20696e73756666696369656e742062616c616e636520666f6044820152651c8818d85b1b60d21b606482015260840161115a565b600080866001600160a01b0316858760405161479a9190615cc6565b60006040518083038185875af1925050503d80600081146147d7576040519150601f19603f3d011682016040523d82523d6000602084013e6147dc565b606091505b50915091506131a98783838760608315614857578251600003614850576001600160a01b0385163b6148505760405162461bcd60e51b815260206004820152601d60248201527f416464726573733a2063616c6c20746f206e6f6e2d636f6e7472616374000000604482015260640161115a565b5081610c61565b610c61838381511561486c5781518083602001fd5b8060405162461bcd60e51b815260040161115a9190614ae5565b6040518060c0016040528060006001600160a01b0316815260200160006001600160a01b03168152602001606081526020016000815260200160008152602001600081525090565b6000602082840312156148e057600080fd5b81356001600160e01b03198116811461343757600080fd5b6001600160a01b038116811461490d57600080fd5b50565b634e487b7160e01b600052604160045260246000fd5b60405160a081016001600160401b038111828210171561494857614948614910565b60405290565b604051601f8201601f191681016001600160401b038111828210171561497657614976614910565b604052919050565b60006001600160401b0382111561499757614997614910565b50601f01601f191660200190565b600082601f8301126149b657600080fd5b81356149c96149c48261497e565b61494e565b8181528460208386010111156149de57600080fd5b816020850160208301376000918101602001919091529392505050565b60008060008060008060c08789031215614a1457600080fd5b8635614a1f816148f8565b95506020870135614a2f816148f8565b94506040870135935060608701356001600160401b0380821115614a5257600080fd5b614a5e8a838b016149a5565b94506080890135915080821115614a7457600080fd5b50614a8189828a016149a5565b92505060a087013590509295509295509295565b60005b83811015614ab0578181015183820152602001614a98565b50506000910152565b60008151808452614ad1816020860160208601614a95565b601f01601f19169290920160200192915050565b6020815260006134376020830184614ab9565b60008060408385031215614b0b57600080fd5b8235614b16816148f8565b946020939093013593505050565b60008060008060808587031215614b3a57600080fd5b8435614b45816148f8565b93506020850135614b55816148f8565b92506040850135915060608501356001600160401b03811115614b7757600080fd5b614b83878288016149a5565b91505092959194509250565b801515811461490d57600080fd5b600060208284031215614baf57600080fd5b813561343781614b8f565b600060208284031215614bcc57600080fd5b5035919050565b6001600160a01b0391909116815260200190565b600060208284031215614bf957600080fd5b8135613437816148f8565b8060020b811461490d57600080fd5b80608081018310156108ad57600080fd5b6000806000806000806000806000898b03610200811215614c4457600080fd5b8a35614c4f816148f8565b995060208b0135614c5f816148f8565b985060408b0135614c6f816148f8565b975060608b0135614c7f816148f8565b965060808b0135614c8f81614c04565b955060a08b0135614c9f81614c04565b945060c08b0135614caf81614b8f565b935060a060df1982011215614cc357600080fd5b50614ccc614926565b60e08b0135614cda816148f8565b81526101008b0135614ceb816148f8565b60208201526101208b0135614cff816148f8565b60408201526101408b013560608201526101608b013560808201529150614d2a8b6101808c01614c13565b90509295985092959850929598565b600081518084526020808501945080840160005b83811015614d6957815187529582019590820190600101614d4d565b509495945050505050565b6020815260006134376020830184614d39565b600081518084526020808501945080840160005b83811015614d69578151151587529582019590820190600101614d9b565b6080808252855190820181905260009060209060a0840190828901845b82811015614dfb5781516001600160a01b031684529284019290840190600101614dd6565b5050508381038285015286518082528783019183019060005b81811015614e3357835160020b83529284019291840191600101614e14565b50508481036040860152614e478188614d39565b9250505082810360608401526131a98185614d87565b60008060208385031215614e7057600080fd5b82356001600160401b0380821115614e8757600080fd5b818501915085601f830112614e9b57600080fd5b813581811115614eaa57600080fd5b866020828501011115614ebc57600080fd5b60209290920196919550909350505050565b600080600060608486031215614ee357600080fd5b833592506020840135614ef5816148f8565b929592945050506040919091013590565b60006001600160401b03821115614f1f57614f1f614910565b5060051b60200190565b600082601f830112614f3a57600080fd5b81356020614f4a6149c483614f06565b82815260059290921b84018101918181019086841115614f6957600080fd5b8286015b84811015614f845780358352918301918301614f6d565b509695505050505050565b60008060408385031215614fa257600080fd5b82356001600160401b0380821115614fb957600080fd5b818501915085601f830112614fcd57600080fd5b81356020614fdd6149c483614f06565b82815260059290921b84018101918181019089841115614ffc57600080fd5b948201945b83861015615023578535615014816148f8565b82529482019490820190615001565b9650508601359250508082111561503957600080fd5b5061504685828601614f29565b9150509250929050565b6000806040838503121561506357600080fd5b82359150602083013561507581614b8f565b809150509250929050565b60006020828403121561509257600080fd5b81356001600160401b038111156150a857600080fd5b61243d848285016149a5565b6000608082840312156150c657600080fd5b82601f8301126150d557600080fd5b604051608081018181106001600160401b03821117156150f7576150f7614910565b60405280608084018581111561510c57600080fd5b845b8181101561512657803583526020928301920161510e565b509195945050505050565b60006020828403121561514357600080fd5b5051919050565b634e487b7160e01b600052601160045260246000fd5b808201808211156108ad576108ad61514a565b8060005b6004811015611c45578151845260209384019390910190600101615177565b60006101c089835260208084018a60005b60058110156151cd5781516001600160a01b0316835291830191908301906001016151a7565b505050506151de60c0840189615173565b806101408401526151f181840188614ab9565b90508281036101608401526152068187614ab9565b61018084019590955250506101a0015295945050505050565b600082601f83011261523057600080fd5b815160206152406149c483614f06565b82815260059290921b8401810191818101908684111561525f57600080fd5b8286015b84811015614f845780518352918301918301615263565b6000806040838503121561528d57600080fd5b825161529881614b8f565b60208401519092506001600160401b038111156152b457600080fd5b6150468582860161521f565b6001600160a01b0392831681529116602082015260400190565b6001600160a01b039586168152602081019490945260408401929092526060830152909116608082015260a00190565b8060005b6002811015611c455781516001600160a01b031684526020938401939091019060010161530e565b888152602081018890526101208101615352604083018961530a565b608082019690965260a08101949094526001600160a01b039290921660c0840152151560e0830152610100909101529392505050565b60006020828403121561539a57600080fd5b81516001600160401b038111156153b057600080fd5b61243d8482850161521f565b818103818111156108ad576108ad61514a565b634e487b7160e01b600052602160045260246000fd5b828152604081016004831061540a57634e487b7160e01b600052602160045260246000fd5b8260208301529392505050565b60006020828403121561542957600080fd5b8151613437816148f8565b8781526101608101615449602083018961530a565b8660020b60608301528560020b608083015260018060a01b03851660a083015283151560c083015260808360e084013798975050505050505050565b60006020828403121561549757600080fd5b81516001600160401b038111156154ad57600080fd5b8201601f810184136154be57600080fd5b80516154cc6149c48261497e565b8181528560208385010111156154e157600080fd5b6154f2826020830160208601614a95565b95945050505050565b828152604060208201526000610c616040830184614ab9565b634e487b7160e01b600052603260045260246000fd5b600082601f83011261553b57600080fd5b8151602061554b6149c483614f06565b82815260059290921b8401810191818101908684111561556a57600080fd5b8286015b84811015614f84578051615581816148f8565b835291830191830161556e565b600082601f83011261559f57600080fd5b815160206155af6149c483614f06565b82815260059290921b840181019181810190868411156155ce57600080fd5b8286015b84811015614f845780516155e581614b8f565b83529183019183016155d2565b6000806000806080858703121561560857600080fd5b84516001600160401b038082111561561f57600080fd5b61562b8883890161552a565b955060209150818701518181111561564257600080fd5b8701601f8101891361565357600080fd5b80516156616149c482614f06565b81815260059190911b8201840190848101908b83111561568057600080fd5b928501925b828410156156a757835161569881614c04565b82529285019290850190615685565b60408b01519098509450505050808211156156c157600080fd5b6156cd8883890161521f565b935060608701519150808211156156e357600080fd5b50614b838782880161558e565b600181811c9082168061570457607f821691505b60208210810361572457634e487b7160e01b600052602260045260246000fd5b50919050565b83815260406020820152816040820152818360608301376000818301606090810191909152601f909201601f1916010192915050565b80820281158282048414176108ad576108ad61514a565b60008261579457634e487b7160e01b600052601260045260246000fd5b500490565b6000602082840312156157ab57600080fd5b815161343781614b8f565b86815260c0602082015260006157cf60c0830188614ab9565b82810360408401526157e18188614d39565b6001600160a01b0396871660608501529490951660808301525060a00152949350505050565b6000806040838503121561581a57600080fd5b8251615825816148f8565b6020939093015192949293505050565b6000806040838503121561584857600080fd5b505080516020909101519092909150565b82815260a081016134376020830184615173565b600081518084526020808501945080840160005b83811015614d695781516001600160a01b031687529582019590820190600101615881565b60a0815260006158b960a083018861586d565b82810360208401526158cb8188614d39565b604084019690965250506001600160a01b03929092166060830152151560809091015292915050565b60008060006060848603121561590957600080fd5b8351925060208401516001600160401b038082111561592757600080fd5b6159338783880161521f565b9350604086015191508082111561594957600080fd5b506159568682870161521f565b9150509250925092565b6001600160a01b038616815260a0602082018190526000906159849083018761586d565b8281036040840152615996818761586d565b905082810360608401526159aa8186614d39565b905082810360808401526159be8185614d39565b98975050505050505050565b600080604083850312156159dd57600080fd5b82516001600160401b03808211156159f457600080fd5b615a008683870161552a565b93506020850151915080821115615a1657600080fd5b506150468582860161521f565b6020808252602b908201527f496e697469616c697a61626c653a20636f6e7472616374206973206e6f74206960408201526a6e697469616c697a696e6760a81b606082015260800190565b85815284602082015260a060408201526000615a8d60a0830186614d39565b8281036060840152615a9f818661586d565b9150508260808301529695505050505050565b87815260e060208201526000615acb60e083018961586d565b604083018890526001600160a01b03871660608401528281036080840152615af38187614d39565b60a0840195909552505060c0015295945050505050565b828152604060208201526000610c616040830184614d39565b60c081526000615b3660c083018961586d565b6020830197909752506001600160a01b039485166040820152929093166060830152608082015260a00152919050565b604081526000615b796040830185614d39565b82810360208401526154f28185614d39565b60008060408385031215615b9e57600080fd5b82516001600160401b03811115615bb457600080fd5b615bc08582860161521f565b925050602083015190509250929050565b600080600060608486031215615be657600080fd5b83516001600160401b0380821115615bfd57600080fd5b615c098783880161552a565b9450602086015191508082111561592757600080fd5b6001600160a01b03858116825284166020820152608060408201819052600090615c4b9083018561586d565b82810360608401526131a98185614d39565b87815286602082015260e060408201526000615c7c60e083018861586d565b6001600160a01b03871660608401526080830186905282810360a0840152615ca4818661586d565b905082810360c0840152615cb88185614d39565b9a9950505050505050505050565b60008251615cd8818460208701614a95565b919091019291505056fea26469706673582212206c1b23f828f1b255caddccc473838130664e9c3ea2789cb785f31d8e4e1b367864736f6c63430008110033",
  "libraries": {
    "ConverterStrategyBaseLib": "0xcD14081DDD966ADbCEc1930Bbe541765EBA2D686",
    "ConverterStrategyBaseLib2": "0xc1Ed5dD095C703421F623F416b88bbf57a1E1012",
    "StrategyLib2": "0x06c875daA1Dc2E27dd7381EB3b6be4F99553a609",
    "AlgebraConverterStrategyLogicLib": "0xeD92d01D784c2458b19441eDf4135c66915F93ee",
    "PairBasedStrategyLib": "0x626aB57b826869B8AE32D32487E0AB6405625bb3",
    "PairBasedStrategyLogicLib": "0xE8dfB7074F4E14b7eDD1E08C03Fa6079c9E091b5"
  },
  "devdoc": {
    "kind": "dev",
    "methods": {
      "claim()": {
        "details": "Manual claim rewards."
      },
      "created()": {
        "returns": {
          "_0": "Creation timestamp"
        }
      },
      "createdBlock()": {
        "returns": {
          "_0": "Creation block number"
        }
      },
      "doHardWork()": {
        "returns": {
          "earned": "Earned amount in terms of {asset}",
          "lost": "Lost amount in terms of {asset}"
        }
      },
      "emergencyExit()": {
        "details": "In case of any issue operator can withdraw all from pool."
      },
      "getDefaultState()": {
        "returns": {
          "addr": "[tokenA, tokenB, pool, profitHolder]",
          "boolValues": "[isStablePool, depositorSwapTokens]",
          "nums": "[totalLiquidity, fuse-status-tokenA, fuse-status-tokenB, withdrawDone, 4 thresholds of token A, 4 thresholds of token B]",
          "tickData": "[tickSpacing, lowerTick, upperTick, rebalanceTickRange]"
        }
      },
      "getFees()": {
        "returns": {
          "fee0": "and fee1."
        }
      },
      "getPropNotUnderlying18()": {
        "returns": {
          "_0": "Proportion of the not-underlying [0...1e18]"
        }
      },
      "getSlot(uint256)": {
        "details": "Gets a slot as bytes32"
      },
      "getSpecificState()": {
        "returns": {
          "nums": "Balances of [tokenA, tokenB, rewardToken, bonusRewardToken] for profit holder"
        }
      },
      "increaseRevision(address)": {
        "details": "Revision should be increased on each contract upgrade"
      },
      "init(address,address,address,address,int24,int24,bool,(address,address,address,uint256,uint256),uint256[4])": {
        "params": {
          "controller_": "The address of the controller.",
          "converter_": "The address of the converter.",
          "pool_": "The address of the pool.",
          "rebalanceTickRange_": "The tick range for rebalancing.",
          "splitter_": "The address of the splitter.",
          "tickRange_": "The tick range for the liquidity position."
        }
      },
      "investAll(uint256,bool)": {
        "params": {
          "updateTotalAssetsBeforeInvest_": "Recalculate total assets amount before depositing.                                       It can be false if we know exactly, that the amount is already actual."
        },
        "returns": {
          "strategyLoss": "Loss should be covered from Insurance"
        }
      },
      "isController(address)": {
        "details": "Return true if given address is controller"
      },
      "isReadyToHardWork()": {
        "returns": {
          "_0": "A boolean indicating if the strategy is ready for hard work."
        }
      },
      "needRebalance()": {
        "returns": {
          "_0": "A boolean indicating if the strategy needs rebalancing."
        }
      },
      "onTransferAmounts(address[],uint256[])": {
        "params": {
          "amounts_": "Amount of {asset_} that has been sent to the user's balance",
          "assets_": "Any asset sent to the balance, i.e. inside repayTheBorrow"
        }
      },
      "performanceFee()": {
        "details": "use FEE_DENOMINATOR"
      },
      "previousImplementation()": {
        "details": "Previous logic implementation"
      },
      "rebalanceNoSwaps(bool)": {
        "params": {
          "checkNeedRebalance": "Revert if rebalance is not needed. Pass false to deposit after withdrawByAgg-iterations"
        }
      },
      "requirePayAmountBack(address,uint256)": {
        "params": {
          "amount_": "Required amount of {theAsset_}",
          "theAsset_": "Required asset (either collateral or borrow), it can be NOT underlying"
        },
        "returns": {
          "amountOut": "Amount that was send OR can be claimed on the next call.                   The caller should control own balance to know if the amount was actually send                   (because we need compatibility with exist not-NSR strategies)"
        }
      },
      "revision()": {
        "details": "Contract upgrade counter"
      },
      "setCompoundRatio(uint256)": {
        "details": "PlatformVoter can change compound ratio for some strategies.      A strategy can implement another logic for some uniq cases."
      },
      "setFuseStatus(uint256)": {
        "params": {
          "status": "See PairBasedStrategyLib.FuseStatus enum for possible values"
        }
      },
      "setFuseThresholds(uint256[4])": {
        "params": {
          "values": "Price thresholds: [LOWER_LIMIT_ON, LOWER_LIMIT_OFF, UPPER_LIMIT_ON, UPPER_LIMIT_OFF]"
        }
      },
      "setLiquidationThreshold(address,uint256)": {
        "details": "Liquidation thresholds are used to detect dust in many cases, not only in liquidation case",
        "params": {
          "amount": "Min amount of token allowed to liquidate, token's decimals are used."
        }
      },
      "setReinvestThresholdPercent(uint256)": {
        "params": {
          "percent_": "New value of the percent, decimals = {REINVEST_THRESHOLD_PERCENT_DENOMINATOR}"
        }
      },
      "setStrategySpecificName(string)": {
        "details": "The name will be used for UI."
      },
      "setWithdrawDone(uint256)": {
        "params": {
          "done": "0 - full withdraw required, 1 - full withdraw was done"
        }
      },
      "supportsInterface(bytes4)": {
        "details": "See {IERC165-supportsInterface}."
      },
      "totalAssets()": {
        "details": "Total amount of underlying assets under control of this strategy."
      },
      "withdrawAllToSplitter()": {
        "details": "Withdraws all underlying assets to the vault",
        "returns": {
          "strategyLoss": "Loss should be covered from Insurance"
        }
      },
      "withdrawByAggStep(address,address,uint256,bytes,bytes,uint256)": {
        "details": "All swap-by-agg data should be prepared using {quoteWithdrawByAgg} off-chain",
        "params": {
          "aggregator_": "Aggregator that should be used on next swap. 0 - use liquidator",
          "amountToSwap_": "Amount that should be swapped. 0 - no swap",
          "entryToPool": "Allow to enter to the pool at the end. Use false if you are going to make several iterations.                    It's possible to enter back to the pool by calling {rebalanceNoSwaps} at any moment                    0 - not allowed, 1 - allowed, 2 - allowed only if completed",
          "planEntryData": "PLAN_XXX + additional data, see IterationPlanKinds",
          "swapData": "Swap rote that was prepared off-chain.",
          "tokenToSwap_": "What token should be swapped to other"
        },
        "returns": {
          "completed": "All debts were closed, leftovers were swapped to the required proportions."
        }
      },
      "withdrawToSplitter(uint256)": {
        "details": "Withdraws some assets to the splitter",
        "returns": {
          "strategyLoss": "Loss should be covered from Insurance"
        }
      }
    },
    "version": 1
  },
  "userdoc": {
    "kind": "user",
    "methods": {
      "CONTROLLABLE_VERSION()": {
        "notice": "Version of the contract"
      },
      "capacity()": {
        "notice": "Unlimited capacity by default"
      },
      "controller()": {
        "notice": "Return controller address saved in the contract slot"
      },
      "created()": {
        "notice": "Return creation timestamp"
      },
      "createdBlock()": {
        "notice": "Return creation block number"
      },
      "doHardWork()": {
        "notice": "Do hard work with reinvesting"
      },
      "getDefaultState()": {
        "notice": "Returns the current state of the contract"
      },
      "getFees()": {
        "notice": "Returns the fees for the current state."
      },
      "getPropNotUnderlying18()": {
        "notice": "Calculate proportions of [underlying, not-underlying] required by the internal pool of the strategy"
      },
      "init(address,address,address,address,int24,int24,bool,(address,address,address,uint256,uint256),uint256[4])": {
        "notice": "Initialize the strategy with the given parameters."
      },
      "investAll(uint256,bool)": {
        "notice": "Stakes everything the strategy holds into the reward pool. amount_ Amount transferred to the strategy balance just before calling this function"
      },
      "investedAssets()": {
        "notice": "Amount of underlying assets converted to pool assets and invested to the pool."
      },
      "isGovernance(address)": {
        "notice": "Return true if given address is setup as governance in Controller"
      },
      "isReadyToHardWork()": {
        "notice": "Check if the strategy is ready for hard work."
      },
      "liquidationThresholds(address)": {
        "notice": "Minimum token amounts that can be liquidated"
      },
      "needRebalance()": {
        "notice": "Check if the strategy needs rebalancing."
      },
      "onTransferAmounts(address[],uint256[])": {
        "notice": "TetuConverter calls this function when it sends any amount to user's balance"
      },
      "performanceFee()": {
        "notice": "A percent of total profit that is sent to the {performanceReceiver} before compounding"
      },
      "performanceReceiver()": {
        "notice": "{performanceFee}% of total profit is sent to the {performanceReceiver} before compounding"
      },
      "quoteWithdrawByAgg(bytes)": {
        "notice": "Get info about a swap required by next call of {withdrawByAggStep} within the given plan"
      },
      "rebalanceNoSwaps(bool)": {
        "notice": "Rebalance using borrow/repay only, no swaps"
      },
      "requirePayAmountBack(address,uint256)": {
        "notice": "Converters asks to send some amount back.         The results depend on whether the required amount is on the balance:         1. The {amount_} exists on the balance: send the amount to TetuConverter, return {amount_}         2. The {amount_} doesn't exist on the balance. Try to receive the {amount_}.         2.1. if the required amount is received: return {amount_}         2.2. if less amount X (X < {amount_}) is received return X - gap         In the case 2 no amount is send to TetuConverter.         Converter should make second call of requirePayAmountBack({amountOut}) to receive the assets."
      },
      "setFuseStatus(uint256)": {
        "notice": "Manually set status of the fuse"
      },
      "setFuseThresholds(uint256[4])": {
        "notice": "Set thresholds for the fuse: [LOWER_LIMIT_ON, LOWER_LIMIT_OFF, UPPER_LIMIT_ON, UPPER_LIMIT_OFF]         Decimals 18. The thresholds are compared with prices from TetuConverter's price oracle.         Example: [0.9, 0.92, 1.08, 1.1]         Price falls below 0.9 - fuse is ON. Price rises back up to 0.92 - fuse is OFF.         Price raises more and reaches 1.1 - fuse is ON again. Price falls back and reaches 1.08 - fuse OFF again."
      },
      "setWithdrawDone(uint256)": {
        "notice": "Set withdrawDone value.         When a fuse was triggered ON, all debts should be closed and asset should be converted to underlying.         After completion of the conversion withdrawDone can be set to 1.         So, {getFuseStatus} will return  withdrawDone=1 and you will know, that withdraw is not required"
      },
      "setupPerformanceFee(uint256,address,uint256)": {
        "notice": "Set performance fee, receiver and ratio"
      },
      "withdrawByAggStep(address,address,uint256,bytes,bytes,uint256)": {
        "notice": "Make withdraw iteration: [exit from the pool], [make 1 swap], [repay a debt], [enter to the pool]         Typical sequence of the actions is: exit from the pool, make 1 swap, repay 1 debt.         You can enter to the pool if you are sure that you won't have borrow + repay on AAVE3 in the same block."
      }
    },
    "version": 1
  },
  "storageLayout": {
    "storage": [
      {
        "astId": 11608,
        "contract": "contracts/strategies/algebra/AlgebraConverterStrategy.sol:AlgebraConverterStrategy",
        "label": "_initialized",
        "offset": 0,
        "slot": "0",
        "type": "t_uint8"
      },
      {
        "astId": 11611,
        "contract": "contracts/strategies/algebra/AlgebraConverterStrategy.sol:AlgebraConverterStrategy",
        "label": "_initializing",
        "offset": 1,
        "slot": "0",
        "type": "t_bool"
      },
      {
        "astId": 108974,
        "contract": "contracts/strategies/algebra/AlgebraConverterStrategy.sol:AlgebraConverterStrategy",
        "label": "state",
        "offset": 0,
        "slot": "1",
        "type": "t_struct(State)106126_storage"
      },
      {
        "astId": 108981,
        "contract": "contracts/strategies/algebra/AlgebraConverterStrategy.sol:AlgebraConverterStrategy",
        "label": "__gap",
        "offset": 0,
        "slot": "65",
        "type": "t_array(t_uint256)35_storage"
      },
      {
        "astId": 16958,
        "contract": "contracts/strategies/algebra/AlgebraConverterStrategy.sol:AlgebraConverterStrategy",
        "label": "baseState",
        "offset": 0,
        "slot": "100",
        "type": "t_struct(BaseState)5555_storage"
      },
      {
        "astId": 17405,
        "contract": "contracts/strategies/algebra/AlgebraConverterStrategy.sol:AlgebraConverterStrategy",
        "label": "__gap",
        "offset": 0,
        "slot": "107",
        "type": "t_array(t_uint256)43_storage"
      },
      {
        "astId": 97474,
        "contract": "contracts/strategies/algebra/AlgebraConverterStrategy.sol:AlgebraConverterStrategy",
        "label": "liquidationThresholds",
        "offset": 0,
        "slot": "150",
        "type": "t_mapping(t_address,t_uint256)"
      },
      {
        "astId": 97478,
        "contract": "contracts/strategies/algebra/AlgebraConverterStrategy.sol:AlgebraConverterStrategy",
        "label": "_csbs",
        "offset": 0,
        "slot": "151",
        "type": "t_struct(ConverterStrategyBaseState)93300_storage"
      },
      {
        "astId": 98978,
        "contract": "contracts/strategies/algebra/AlgebraConverterStrategy.sol:AlgebraConverterStrategy",
        "label": "__gap",
        "offset": 0,
        "slot": "204",
        "type": "t_array(t_uint256)46_storage"
      }
    ],
    "types": {
      "t_address": {
        "encoding": "inplace",
        "label": "address",
        "numberOfBytes": "20"
      },
      "t_array(t_uint256)10_storage": {
        "base": "t_uint256",
        "encoding": "inplace",
        "label": "uint256[10]",
        "numberOfBytes": "320"
      },
      "t_array(t_uint256)33_storage": {
        "base": "t_uint256",
        "encoding": "inplace",
        "label": "uint256[33]",
        "numberOfBytes": "1056"
      },
      "t_array(t_uint256)35_storage": {
        "base": "t_uint256",
        "encoding": "inplace",
        "label": "uint256[35]",
        "numberOfBytes": "1120"
      },
      "t_array(t_uint256)43_storage": {
        "base": "t_uint256",
        "encoding": "inplace",
        "label": "uint256[43]",
        "numberOfBytes": "1376"
      },
      "t_array(t_uint256)46_storage": {
        "base": "t_uint256",
        "encoding": "inplace",
        "label": "uint256[46]",
        "numberOfBytes": "1472"
      },
      "t_array(t_uint256)49_storage": {
        "base": "t_uint256",
        "encoding": "inplace",
        "label": "uint256[49]",
        "numberOfBytes": "1568"
      },
      "t_array(t_uint256)4_storage": {
        "base": "t_uint256",
        "encoding": "inplace",
        "label": "uint256[4]",
        "numberOfBytes": "128"
      },
      "t_bool": {
        "encoding": "inplace",
        "label": "bool",
        "numberOfBytes": "1"
      },
      "t_contract(ITetuConverter)51535": {
        "encoding": "inplace",
        "label": "contract ITetuConverter",
        "numberOfBytes": "20"
      },
      "t_enum(FuseStatus)120839": {
        "encoding": "inplace",
        "label": "enum PairBasedStrategyLib.FuseStatus",
        "numberOfBytes": "1"
      },
      "t_int24": {
        "encoding": "inplace",
        "label": "int24",
        "numberOfBytes": "3"
      },
      "t_int256": {
        "encoding": "inplace",
        "label": "int256",
        "numberOfBytes": "32"
      },
      "t_mapping(t_address,t_uint256)": {
        "encoding": "mapping",
        "key": "t_address",
        "label": "mapping(address => uint256)",
        "numberOfBytes": "32",
        "value": "t_uint256"
      },
      "t_string_storage": {
        "encoding": "bytes",
        "label": "string",
        "numberOfBytes": "32"
      },
      "t_struct(BaseState)5555_storage": {
        "encoding": "inplace",
        "label": "struct IStrategyV3.BaseState",
        "members": [
          {
            "astId": 5536,
            "contract": "contracts/strategies/algebra/AlgebraConverterStrategy.sol:AlgebraConverterStrategy",
            "label": "asset",
            "offset": 0,
            "slot": "0",
            "type": "t_address"
          },
          {
            "astId": 5539,
            "contract": "contracts/strategies/algebra/AlgebraConverterStrategy.sol:AlgebraConverterStrategy",
            "label": "splitter",
            "offset": 0,
            "slot": "1",
            "type": "t_address"
          },
          {
            "astId": 5542,
            "contract": "contracts/strategies/algebra/AlgebraConverterStrategy.sol:AlgebraConverterStrategy",
            "label": "performanceReceiver",
            "offset": 0,
            "slot": "2",
            "type": "t_address"
          },
          {
            "astId": 5545,
            "contract": "contracts/strategies/algebra/AlgebraConverterStrategy.sol:AlgebraConverterStrategy",
            "label": "performanceFee",
            "offset": 0,
            "slot": "3",
            "type": "t_uint256"
          },
          {
            "astId": 5548,
            "contract": "contracts/strategies/algebra/AlgebraConverterStrategy.sol:AlgebraConverterStrategy",
            "label": "performanceFeeRatio",
            "offset": 0,
            "slot": "4",
            "type": "t_uint256"
          },
          {
            "astId": 5551,
            "contract": "contracts/strategies/algebra/AlgebraConverterStrategy.sol:AlgebraConverterStrategy",
            "label": "compoundRatio",
            "offset": 0,
            "slot": "5",
            "type": "t_uint256"
          },
          {
            "astId": 5554,
            "contract": "contracts/strategies/algebra/AlgebraConverterStrategy.sol:AlgebraConverterStrategy",
            "label": "strategySpecificName",
            "offset": 0,
            "slot": "6",
            "type": "t_string_storage"
          }
        ],
        "numberOfBytes": "224"
      },
      "t_struct(ConverterStrategyBaseState)93300_storage": {
        "encoding": "inplace",
        "label": "struct IConverterStrategyBase.ConverterStrategyBaseState",
        "members": [
          {
            "astId": 93282,
            "contract": "contracts/strategies/algebra/AlgebraConverterStrategy.sol:AlgebraConverterStrategy",
            "label": "investedAssets",
            "offset": 0,
            "slot": "0",
            "type": "t_uint256"
          },
          {
            "astId": 93286,
            "contract": "contracts/strategies/algebra/AlgebraConverterStrategy.sol:AlgebraConverterStrategy",
            "label": "converter",
            "offset": 0,
            "slot": "1",
            "type": "t_contract(ITetuConverter)51535"
          },
          {
            "astId": 93289,
            "contract": "contracts/strategies/algebra/AlgebraConverterStrategy.sol:AlgebraConverterStrategy",
            "label": "reinvestThresholdPercent",
            "offset": 0,
            "slot": "2",
            "type": "t_uint256"
          },
          {
            "astId": 93292,
            "contract": "contracts/strategies/algebra/AlgebraConverterStrategy.sol:AlgebraConverterStrategy",
            "label": "debtToInsurance",
            "offset": 0,
            "slot": "3",
            "type": "t_int256"
          },
          {
            "astId": 93299,
            "contract": "contracts/strategies/algebra/AlgebraConverterStrategy.sol:AlgebraConverterStrategy",
            "label": "__gap",
            "offset": 0,
            "slot": "4",
            "type": "t_array(t_uint256)49_storage"
          }
        ],
        "numberOfBytes": "1696"
      },
      "t_struct(FuseStateParams)120879_storage": {
        "encoding": "inplace",
        "label": "struct PairBasedStrategyLib.FuseStateParams",
        "members": [
          {
            "astId": 120868,
            "contract": "contracts/strategies/algebra/AlgebraConverterStrategy.sol:AlgebraConverterStrategy",
            "label": "status",
            "offset": 0,
            "slot": "0",
            "type": "t_enum(FuseStatus)120839"
          },
          {
            "astId": 120873,
            "contract": "contracts/strategies/algebra/AlgebraConverterStrategy.sol:AlgebraConverterStrategy",
            "label": "thresholds",
            "offset": 0,
            "slot": "1",
            "type": "t_array(t_uint256)4_storage"
          },
          {
            "astId": 120878,
            "contract": "contracts/strategies/algebra/AlgebraConverterStrategy.sol:AlgebraConverterStrategy",
            "label": "__gap",
            "offset": 0,
            "slot": "5",
            "type": "t_array(t_uint256)4_storage"
          }
        ],
        "numberOfBytes": "288"
      },
      "t_struct(PairState)123049_storage": {
        "encoding": "inplace",
        "label": "struct PairBasedStrategyLogicLib.PairState",
        "members": [
          {
            "astId": 123008,
            "contract": "contracts/strategies/algebra/AlgebraConverterStrategy.sol:AlgebraConverterStrategy",
            "label": "pool",
            "offset": 0,
            "slot": "0",
            "type": "t_address"
          },
          {
            "astId": 123010,
            "contract": "contracts/strategies/algebra/AlgebraConverterStrategy.sol:AlgebraConverterStrategy",
            "label": "strategyProfitHolder",
            "offset": 0,
            "slot": "1",
            "type": "t_address"
          },
          {
            "astId": 123013,
            "contract": "contracts/strategies/algebra/AlgebraConverterStrategy.sol:AlgebraConverterStrategy",
            "label": "tokenA",
            "offset": 0,
            "slot": "2",
            "type": "t_address"
          },
          {
            "astId": 123016,
            "contract": "contracts/strategies/algebra/AlgebraConverterStrategy.sol:AlgebraConverterStrategy",
            "label": "tokenB",
            "offset": 0,
            "slot": "3",
            "type": "t_address"
          },
          {
            "astId": 123018,
            "contract": "contracts/strategies/algebra/AlgebraConverterStrategy.sol:AlgebraConverterStrategy",
            "label": "isStablePool",
            "offset": 20,
            "slot": "3",
            "type": "t_bool"
          },
          {
            "astId": 123021,
            "contract": "contracts/strategies/algebra/AlgebraConverterStrategy.sol:AlgebraConverterStrategy",
            "label": "depositorSwapTokens",
            "offset": 21,
            "slot": "3",
            "type": "t_bool"
          },
          {
            "astId": 123023,
            "contract": "contracts/strategies/algebra/AlgebraConverterStrategy.sol:AlgebraConverterStrategy",
            "label": "tickSpacing",
            "offset": 22,
            "slot": "3",
            "type": "t_int24"
          },
          {
            "astId": 123025,
            "contract": "contracts/strategies/algebra/AlgebraConverterStrategy.sol:AlgebraConverterStrategy",
            "label": "lowerTick",
            "offset": 25,
            "slot": "3",
            "type": "t_int24"
          },
          {
            "astId": 123027,
            "contract": "contracts/strategies/algebra/AlgebraConverterStrategy.sol:AlgebraConverterStrategy",
            "label": "upperTick",
            "offset": 28,
            "slot": "3",
            "type": "t_int24"
          },
          {
            "astId": 123029,
            "contract": "contracts/strategies/algebra/AlgebraConverterStrategy.sol:AlgebraConverterStrategy",
            "label": "rebalanceTickRange",
            "offset": 0,
            "slot": "4",
            "type": "t_int24"
          },
          {
            "astId": 123031,
            "contract": "contracts/strategies/algebra/AlgebraConverterStrategy.sol:AlgebraConverterStrategy",
            "label": "totalLiquidity",
            "offset": 3,
            "slot": "4",
            "type": "t_uint128"
          },
          {
            "astId": 123035,
            "contract": "contracts/strategies/algebra/AlgebraConverterStrategy.sol:AlgebraConverterStrategy",
            "label": "fuseAB",
            "offset": 0,
            "slot": "5",
            "type": "t_struct(FuseStateParams)120879_storage"
          },
          {
            "astId": 123038,
            "contract": "contracts/strategies/algebra/AlgebraConverterStrategy.sol:AlgebraConverterStrategy",
            "label": "withdrawDone",
            "offset": 0,
            "slot": "14",
            "type": "t_uint256"
          },
          {
            "astId": 123041,
            "contract": "contracts/strategies/algebra/AlgebraConverterStrategy.sol:AlgebraConverterStrategy",
            "label": "lastRebalanceNoSwap",
            "offset": 0,
            "slot": "15",
            "type": "t_uint256"
          },
          {
            "astId": 123048,
            "contract": "contracts/strategies/algebra/AlgebraConverterStrategy.sol:AlgebraConverterStrategy",
            "label": "__gap",
            "offset": 0,
            "slot": "16",
            "type": "t_array(t_uint256)33_storage"
          }
        ],
        "numberOfBytes": "1568"
      },
      "t_struct(State)106126_storage": {
        "encoding": "inplace",
        "label": "struct AlgebraConverterStrategyLogicLib.State",
        "members": [
          {
            "astId": 106110,
            "contract": "contracts/strategies/algebra/AlgebraConverterStrategy.sol:AlgebraConverterStrategy",
            "label": "pair",
            "offset": 0,
            "slot": "0",
            "type": "t_struct(PairState)123049_storage"
          },
          {
            "astId": 106112,
            "contract": "contracts/strategies/algebra/AlgebraConverterStrategy.sol:AlgebraConverterStrategy",
            "label": "tokenId",
            "offset": 0,
            "slot": "49",
            "type": "t_uint256"
          },
          {
            "astId": 106114,
            "contract": "contracts/strategies/algebra/AlgebraConverterStrategy.sol:AlgebraConverterStrategy",
            "label": "rewardToken",
            "offset": 0,
            "slot": "50",
            "type": "t_address"
          },
          {
            "astId": 106116,
            "contract": "contracts/strategies/algebra/AlgebraConverterStrategy.sol:AlgebraConverterStrategy",
            "label": "bonusRewardToken",
            "offset": 0,
            "slot": "51",
            "type": "t_address"
          },
          {
            "astId": 106118,
            "contract": "contracts/strategies/algebra/AlgebraConverterStrategy.sol:AlgebraConverterStrategy",
            "label": "startTime",
            "offset": 0,
            "slot": "52",
            "type": "t_uint256"
          },
          {
            "astId": 106120,
            "contract": "contracts/strategies/algebra/AlgebraConverterStrategy.sol:AlgebraConverterStrategy",
            "label": "endTime",
            "offset": 0,
            "slot": "53",
            "type": "t_uint256"
          },
          {
            "astId": 106125,
            "contract": "contracts/strategies/algebra/AlgebraConverterStrategy.sol:AlgebraConverterStrategy",
            "label": "__gap",
            "offset": 0,
            "slot": "54",
            "type": "t_array(t_uint256)10_storage"
          }
        ],
        "numberOfBytes": "2048"
      },
      "t_uint128": {
        "encoding": "inplace",
        "label": "uint128",
        "numberOfBytes": "16"
      },
      "t_uint256": {
        "encoding": "inplace",
        "label": "uint256",
        "numberOfBytes": "32"
      },
      "t_uint8": {
        "encoding": "inplace",
        "label": "uint8",
        "numberOfBytes": "1"
      }
    }
  }
}