{
  "address": "0x4b85477DB323cb8D650e6179A4d002b09720952c",
  "abi": [
    {
      "inputs": [
        {
          "internalType": "address",
          "name": "pool_",
          "type": "address"
        },
        {
          "internalType": "int24",
          "name": "lowerTick_",
          "type": "int24"
        },
        {
          "internalType": "int24",
          "name": "upperTick_",
          "type": "int24"
        },
        {
          "internalType": "uint256",
          "name": "amount0Desired_",
          "type": "uint256"
        },
        {
          "internalType": "uint256",
          "name": "amount1Desired_",
          "type": "uint256"
        }
      ],
      "name": "addLiquidityPreview",
      "outputs": [
        {
          "internalType": "uint256",
          "name": "amount0Consumed",
          "type": "uint256"
        },
        {
          "internalType": "uint256",
          "name": "amount1Consumed",
          "type": "uint256"
        },
        {
          "internalType": "uint128",
          "name": "liquidityOut",
          "type": "uint128"
        }
      ],
      "stateMutability": "view",
      "type": "function"
    },
    {
      "inputs": [
        {
          "internalType": "uint160",
          "name": "sqrtRatioX96",
          "type": "uint160"
        },
        {
          "internalType": "int24",
          "name": "lowerTick",
          "type": "int24"
        },
        {
          "internalType": "int24",
          "name": "upperTick",
          "type": "int24"
        },
        {
          "internalType": "uint128",
          "name": "liquidity",
          "type": "uint128"
        }
      ],
      "name": "getAmountsForLiquidity",
      "outputs": [
        {
          "internalType": "uint256",
          "name": "amount0",
          "type": "uint256"
        },
        {
          "internalType": "uint256",
          "name": "amount1",
          "type": "uint256"
        }
      ],
      "stateMutability": "pure",
      "type": "function"
    },
    {
      "inputs": [
        {
          "internalType": "contract IAlgebraPool",
          "name": "pool",
          "type": "IAlgebraPool"
        },
        {
          "internalType": "contract INonfungiblePositionManager",
          "name": "nft",
          "type": "INonfungiblePositionManager"
        },
        {
          "internalType": "uint256",
          "name": "tokenId",
          "type": "uint256"
        }
      ],
      "name": "getFees",
      "outputs": [
        {
          "internalType": "uint256",
          "name": "fee0",
          "type": "uint256"
        },
        {
          "internalType": "uint256",
          "name": "fee1",
          "type": "uint256"
        }
      ],
      "stateMutability": "view",
      "type": "function"
    },
    {
      "inputs": [
        {
          "internalType": "uint160",
          "name": "sqrtRatioX96",
          "type": "uint160"
        },
        {
          "internalType": "int24",
          "name": "lowerTick",
          "type": "int24"
        },
        {
          "internalType": "int24",
          "name": "upperTick",
          "type": "int24"
        },
        {
          "internalType": "uint256",
          "name": "amount0",
          "type": "uint256"
        },
        {
          "internalType": "uint256",
          "name": "amount1",
          "type": "uint256"
        }
      ],
      "name": "getLiquidityForAmounts",
      "outputs": [
        {
          "internalType": "uint128",
          "name": "liquidity",
          "type": "uint128"
        }
      ],
      "stateMutability": "pure",
      "type": "function"
    },
    {
      "inputs": [
        {
          "internalType": "address",
          "name": "pool_",
          "type": "address"
        },
        {
          "internalType": "address",
          "name": "tokenIn",
          "type": "address"
        }
      ],
      "name": "getPrice",
      "outputs": [
        {
          "internalType": "uint256",
          "name": "",
          "type": "uint256"
        }
      ],
      "stateMutability": "view",
      "type": "function"
    },
    {
      "inputs": [
        {
          "internalType": "uint256",
          "name": "a",
          "type": "uint256"
        },
        {
          "internalType": "uint256",
          "name": "b",
          "type": "uint256"
        },
        {
          "internalType": "uint256",
          "name": "denominator",
          "type": "uint256"
        }
      ],
      "name": "mulDiv",
      "outputs": [
        {
          "internalType": "uint256",
          "name": "result",
          "type": "uint256"
        }
      ],
      "stateMutability": "pure",
      "type": "function"
    },
    {
      "inputs": [],
      "name": "tickSpacing",
      "outputs": [
        {
          "internalType": "int24",
          "name": "",
          "type": "int24"
        }
      ],
      "stateMutability": "pure",
      "type": "function"
    }
  ],
  "transactionHash": "0x277fd2b908768d6dfa376a29d8549a55d09df8878800300a57d539e234bf490f",
  "args": [],
  "numDeployments": 6,
  "solcInputHash": "da1a131c81810b0ec86f8a1b7470ae1a",
  "bytecode": "0x611a5661003a600b82828239805160001a60731461002d57634e487b7160e01b600052600060045260246000fd5b30600052607381538281f3fe73000000000000000000000000000000000000000030146080604052600436106100775760003560e01c80630337236a1461007c57806317c22c3c146100ac5780632a279b28146100e3578063455791781461010b578063aa9a09121461011e578063ac41865a1461013f578063d0c93a7c14610152575b600080fd5b61008f61008a3660046113fa565b610161565b6040516001600160801b0390911681526020015b60405180910390f35b6100bf6100ba3660046113fa565b61023e565b6040805193845260208401929092526001600160801b0316908201526060016100a3565b6100f66100f136600461146a565b6102e1565b604080519283526020830191909152016100a3565b6100f66101193660046114c6565b610397565b61013161012c366004611507565b6104ef565b6040519081526020016100a3565b61013161014d366004611533565b6105a3565b604051603c81526020016100a3565b60008061016d86610a4c565b9050600061017a86610a4c565b9050806001600160a01b0316826001600160a01b0316111561019857905b816001600160a01b0316886001600160a01b0316116101c3576101bc828287610e66565b9250610233565b806001600160a01b0316886001600160a01b031610156102255760006101ea898388610e66565b905060006101f9848b88610ed9565b9050806001600160801b0316826001600160801b03161061021a578061021c565b815b94505050610233565b610230828286610ed9565b92505b505095945050505050565b6000806000808890506000816001600160a01b031663e76c01e46040518163ffffffff1660e01b815260040160e060405180830381865afa158015610287573d6000803e3d6000fd5b505050506040513d601f19601f820116820180604052508101906102ab91906115b5565b50505050505090506102c0818a8a8a8a610161565b92506102ce818a8a866102e1565b909b909a50929850919650505050505050565b60008060006102ef86610a4c565b905060006102fc86610a4c565b9050806001600160a01b0316826001600160a01b0316111561031a57905b816001600160a01b0316886001600160a01b0316116103455761033e828287610f0f565b935061038c565b806001600160a01b0316886001600160a01b0316101561037e5761036a888287610f0f565b9350610377828987610f79565b925061038c565b610389828287610f79565b92505b505094509492505050565b6000806000856001600160a01b031663e76c01e46040518163ffffffff1660e01b815260040160e060405180830381865afa1580156103da573d6000803e3d6000fd5b505050506040513d601f19601f820116820180604052508101906103fe91906115b5565b505050505091505060008060008060008060008b6001600160a01b03166399fbab888c6040518263ffffffff1660e01b815260040161043f91815260200190565b61016060405180830381865afa15801561045d573d6000803e3d6000fd5b505050506040513d601f19601f82011682018060405250810190610481919061164b565b9a509a509a509a509a509a509a5050505050816001600160801b03166104ad8e89898960018a8f610fc3565b6104b79190611738565b9950806001600160801b03166104d38e8989896000898f610fc3565b6104dd9190611738565b98505050505050505050935093915050565b6000808060001985870985870292508281108382030391505080600003610528576000841161051d57600080fd5b50829004905061059c565b80841161053457600080fd5b600084868809851960019081018716968790049682860381900495909211909303600082900391909104909201919091029190911760038402600290811880860282030280860282030280860282030280860282030280860282030280860290910302029150505b9392505050565b6000808390506000816001600160a01b0316630dfe16816040518163ffffffff1660e01b8152600401602060405180830381865afa1580156105e9573d6000803e3d6000fd5b505050506040513d601f19601f8201168201806040525081019061060d919061174b565b90506000826001600160a01b031663d21220a76040518163ffffffff1660e01b8152600401602060405180830381865afa15801561064f573d6000803e3d6000fd5b505050506040513d601f19601f82011682018060405250810190610673919061174b565b90506000826001600160a01b0316866001600160a01b0316146106f757816001600160a01b031663313ce5676040518163ffffffff1660e01b8152600401602060405180830381865afa1580156106ce573d6000803e3d6000fd5b505050506040513d601f19601f820116820180604052508101906106f29190611768565b610759565b826001600160a01b031663313ce5676040518163ffffffff1660e01b8152600401602060405180830381865afa158015610735573d6000803e3d6000fd5b505050506040513d601f19601f820116820180604052508101906107599190611768565b60ff1690506000826001600160a01b0316876001600160a01b0316146107e057826001600160a01b031663313ce5676040518163ffffffff1660e01b8152600401602060405180830381865afa1580156107b7573d6000803e3d6000fd5b505050506040513d601f19601f820116820180604052508101906107db9190611768565b610842565b836001600160a01b031663313ce5676040518163ffffffff1660e01b8152600401602060405180830381865afa15801561081e573d6000803e3d6000fd5b505050506040513d601f19601f820116820180604052508101906108429190611768565b60ff1690506000856001600160a01b031663e76c01e46040518163ffffffff1660e01b815260040160e060405180830381865afa158015610887573d6000803e3d6000fd5b505050506040513d601f19601f820116820180604052508101906108ab91906115b5565b50505050505090506000601283106108c45760016108ee565b6108ee6108d285600a611867565b6108dd85600a611867565b6108e79190611889565b600161132a565b90506000610904836001600160a01b0316611340565b9050600080886001600160a01b03168c6001600160a01b03160361098c5786601d841061093257600061093d565b61093d84601d61189d565b6109479190611738565b61095290600a611867565b90506000600160601b61096e836001600160a01b0389166118b0565b6109789190611889565b905061098481806118b0565b9250506109f2565b86601d841161099c5760006109a7565b6109a7601d8561189d565b6109b19190611738565b6109bc90600a611867565b905060006001600160a01b0386166109d883600160601b6118b0565b6109e29190611889565b90506109ee81806118b0565b9250505b670de0b6b3a76400008111610a08576001610a1a565b610a1a670de0b6b3a764000082611889565b81610a258685611889565b610a2f9190611889565b610a399190611889565b9a50505050505050505050505b92915050565b60008060008360020b12610a63578260020b610a70565b8260020b610a70906118c7565b9050610a7f620d89e7196118e3565b60020b811115610ab95760405162461bcd60e51b81526020600482015260016024820152601560fa1b604482015260640160405180910390fd5b600081600116600003610ad057600160801b610ae2565b6ffffcb933bd6fad37aa2d162d1a5940015b6001600160881b031690506002821615610b17576080610b12826ffff97272373d413259a46990580e213a6118b0565b901c90505b6004821615610b41576080610b3c826ffff2e50f5f656932ef12357cf3c7fdcc6118b0565b901c90505b6008821615610b6b576080610b66826fffe5caca7e10e4e61c3624eaa0941cd06118b0565b901c90505b6010821615610b95576080610b90826fffcb9843d60f6159c9db58835c9266446118b0565b901c90505b6020821615610bbf576080610bba826fff973b41fa98c081472e6896dfb254c06118b0565b901c90505b6040821615610be9576080610be4826fff2ea16466c96a3843ec78b326b528616118b0565b901c90505b6080821615610c13576080610c0e826ffe5dee046a99a2a811c461f1969c30536118b0565b901c90505b610100821615610c3e576080610c39826ffcbe86c7900a88aedcffc83b479aa3a46118b0565b901c90505b610200821615610c69576080610c64826ff987a7253ac413176f2b074cf7815e546118b0565b901c90505b610400821615610c94576080610c8f826ff3392b0822b70005940c7a398e4b70f36118b0565b901c90505b610800821615610cbf576080610cba826fe7159475a2c29b7443b29c7fa6e889d96118b0565b901c90505b611000821615610cea576080610ce5826fd097f3bdfd2022b8845ad8f792aa58256118b0565b901c90505b612000821615610d15576080610d10826fa9f746462d870fdf8a65dc1f90e061e56118b0565b901c90505b614000821615610d40576080610d3b826f70d869a156d2a1b890bb3df62baf32f76118b0565b901c90505b618000821615610d6b576080610d66826f31be135f97d08fd981231505542fcfa66118b0565b901c90505b62010000821615610d97576080610d92826f09aa508b5b7a84e1c677de54f3e99bc96118b0565b901c90505b62020000821615610dc2576080610dbd826e5d6af8dedb81196699c329225ee6046118b0565b901c90505b62040000821615610dec576080610de7826d2216e584f5fa1ea926041bedfe986118b0565b901c90505b62080000821615610e14576080610e0f826b048a170391f7dc42444e8fa26118b0565b901c90505b60008460020b1315610e2f57610e2c81600019611889565b90505b610e3e64010000000082611905565b15610e4a576001610e4d565b60005b610e5e9060ff16602083901c611738565b949350505050565b6000826001600160a01b0316846001600160a01b03161115610e86579192915b6000610ea9856001600160a01b0316856001600160a01b0316600160601b6104ef565b9050610ed0610ecb8483610ebd8989611919565b6001600160a01b03166104ef565b611378565b95945050505050565b6000826001600160a01b0316846001600160a01b03161115610ef9579192915b610e5e610ecb83600160601b610ebd8888611919565b6000826001600160a01b0316846001600160a01b03161115610f2f579192915b610e5e6001610f6a600160601b600160e01b03606086901b16610f528888611919565b6001600160a01b0316876001600160a01b0316611393565b866001600160a01b0316611393565b6000826001600160a01b0316846001600160a01b03161115610f99579192915b610e5e6001600160801b038316610fb08686611919565b6001600160a01b0316600160601b611393565b600080600080861561114a578a6001600160a01b0316636378ae446040518163ffffffff1660e01b8152600401602060405180830381865afa15801561100d573d6000803e3d6000fd5b505050506040513d601f19601f820116820180604052508101906110319190611940565b60405163f30dba9360e01b815260028c900b60048201529091506001600160a01b038c169063f30dba939060240161010060405180830381865afa15801561107d573d6000803e3d6000fd5b505050506040513d601f19601f820116820180604052508101906110a19190611959565b909192939495965090919293949550909192935090919250909150905050809350508a6001600160a01b031663f30dba938a6040518263ffffffff1660e01b81526004016110f8919060029190910b815260200190565b61010060405180830381865afa158015611116573d6000803e3d6000fd5b505050506040513d601f19601f8201168201806040525081019061113a9190611959565b509397506112c195505050505050565b8a6001600160a01b031663ecdecf426040518163ffffffff1660e01b8152600401602060405180830381865afa158015611188573d6000803e3d6000fd5b505050506040513d601f19601f820116820180604052508101906111ac9190611940565b60405163f30dba9360e01b815260028c900b60048201529091506001600160a01b038c169063f30dba939060240161010060405180830381865afa1580156111f8573d6000803e3d6000fd5b505050506040513d601f19601f8201168201806040525081019061121c9190611959565b90919293949596509091929394955090919293945090919250909150905050809350508a6001600160a01b031663f30dba938a6040518263ffffffff1660e01b8152600401611274919060029190910b815260200190565b61010060405180830381865afa158015611292573d6000803e3d6000fd5b505050506040513d601f19601f820116820180604052508101906112b69190611959565b509297505050505050505b60008a60020b8660020b126112d75750826112dc565b508281035b60008a60020b8760020b12156112f35750826112f8565b508282035b8183038190036113186001600160801b038c168a8303600160801b6104ef565b9e9d5050505050505050505050505050565b6000818311611339578161059c565b5090919050565b60008160000361135257506000919050565b60005b8215610a4657611366600a84611889565b925061137181611a07565b9050611355565b806001600160801b038116811461138e57600080fd5b919050565b60006113a08484846104ef565b9050600082806113b2576113b2611873565b848609111561059c5760001981106113c957600080fd5b80610ed081611a07565b6001600160a01b03811681146113e857600080fd5b50565b8060020b81146113e857600080fd5b600080600080600060a0868803121561141257600080fd5b853561141d816113d3565b9450602086013561142d816113eb565b9350604086013561143d816113eb565b94979396509394606081013594506080013592915050565b6001600160801b03811681146113e857600080fd5b6000806000806080858703121561148057600080fd5b843561148b816113d3565b9350602085013561149b816113eb565b925060408501356114ab816113eb565b915060608501356114bb81611455565b939692955090935050565b6000806000606084860312156114db57600080fd5b83356114e6816113d3565b925060208401356114f6816113d3565b929592945050506040919091013590565b60008060006060848603121561151c57600080fd5b505081359360208301359350604090920135919050565b6000806040838503121561154657600080fd5b8235611551816113d3565b91506020830135611561816113d3565b809150509250929050565b805161138e816113d3565b805161138e816113eb565b805161ffff8116811461138e57600080fd5b805160ff8116811461138e57600080fd5b8051801515811461138e57600080fd5b600080600080600080600060e0888a0312156115d057600080fd5b87516115db816113d3565b60208901519097506115ec816113eb565b95506115fa60408901611582565b945061160860608901611582565b935061161660808901611594565b925061162460a08901611594565b915061163260c089016115a5565b905092959891949750929550565b805161138e81611455565b60008060008060008060008060008060006101608c8e03121561166d57600080fd5b8b516bffffffffffffffffffffffff8116811461168957600080fd5b60208d0151909b5061169a816113d3565b60408d0151909a506116ab816113d3565b98506116b960608d0161156c565b97506116c760808d01611577565b96506116d560a08d01611577565b95506116e360c08d01611640565b945060e08c015193506101008c015192506117016101208d01611640565b91506117106101408d01611640565b90509295989b509295989b9093969950565b634e487b7160e01b600052601160045260246000fd5b80820180821115610a4657610a46611722565b60006020828403121561175d57600080fd5b815161059c816113d3565b60006020828403121561177a57600080fd5b61059c82611594565b600181815b808511156117be5781600019048211156117a4576117a4611722565b808516156117b157918102915b93841c9390800290611788565b509250929050565b6000826117d557506001610a46565b816117e257506000610a46565b81600181146117f857600281146118025761181e565b6001915050610a46565b60ff84111561181357611813611722565b50506001821b610a46565b5060208310610133831016604e8410600b8410161715611841575081810a610a46565b61184b8383611783565b806000190482111561185f5761185f611722565b029392505050565b600061059c83836117c6565b634e487b7160e01b600052601260045260246000fd5b60008261189857611898611873565b500490565b81810381811115610a4657610a46611722565b8082028115828204841417610a4657610a46611722565b6000600160ff1b82016118dc576118dc611722565b5060000390565b60008160020b627fffff1981036118fc576118fc611722565b60000392915050565b60008261191457611914611873565b500690565b6001600160a01b0382811682821603908082111561193957611939611722565b5092915050565b60006020828403121561195257600080fd5b5051919050565b600080600080600080600080610100898b03121561197657600080fd5b885161198181611455565b80985050602089015180600f0b811461199957600080fd5b80975050604089015195506060890151945060808901518060060b81146119bf57600080fd5b60a08a01519094506119d0816113d3565b60c08a015190935063ffffffff811681146119ea57600080fd5b91506119f860e08a016115a5565b90509295985092959890939650565b600060018201611a1957611a19611722565b506001019056fea264697066735822122055e87f3e34830689c3dcfb00b239c8eba63b1dbc85b3e9bf644e30590576919964736f6c63430008110033",
  "devdoc": {
    "kind": "dev",
    "methods": {
      "getPrice(address,address)": {
        "returns": {
          "_0": "price with decimals of paired token"
        }
      },
      "mulDiv(uint256,uint256,uint256)": {
        "details": "Credit to Remco Bloemen under MIT license https://xn--2-umb.com/21/muldiv",
        "params": {
          "a": "The multiplicand",
          "b": "The multiplier",
          "denominator": "The divisor"
        },
        "returns": {
          "result": "The 256-bit result"
        }
      }
    },
    "stateVariables": {
      "MAX_SQRT_RATIO": {
        "details": "The maximum value that can be returned from #getSqrtRatioAtTick. Equivalent to getSqrtRatioAtTick(MAX_TICK)"
      },
      "MAX_TICK": {
        "details": "The maximum tick that may be passed to #getSqrtRatioAtTick computed from log base 1.0001 of 2**128"
      },
      "MIN_SQRT_RATIO": {
        "details": "The minimum value that can be returned from #getSqrtRatioAtTick. Equivalent to getSqrtRatioAtTick(MIN_TICK)"
      },
      "MIN_TICK": {
        "details": "The minimum tick that may be passed to #getSqrtRatioAtTick computed from log base 1.0001 of 2**-128"
      }
    },
    "version": 1
  },
  "userdoc": {
    "kind": "user",
    "methods": {
      "getAmountsForLiquidity(uint160,int24,int24,uint128)": {
        "notice": "Computes the token0 and token1 value for a given amount of liquidity, the current pool prices and the prices at the tick boundaries"
      },
      "getLiquidityForAmounts(uint160,int24,int24,uint256,uint256)": {
        "notice": "Computes the maximum amount of liquidity received for a given amount of token0, token1, the current pool prices and the prices at the tick boundaries"
      },
      "getPrice(address,address)": {
        "notice": "Calculates price in pool"
      },
      "mulDiv(uint256,uint256,uint256)": {
        "notice": "Calculates floor(abdenominator) with full precision. Throws if result overflows a uint or denominator == 0"
      }
    },
    "version": 1
  },
  "storageLayout": {
    "storage": [],
    "types": null
  }
}