{
  "address": "0x79D957446Db135EA3a5f3A02a1770c42F7650aB6",
  "abi": [
    {
      "anonymous": false,
      "inputs": [
        {
          "indexed": false,
          "internalType": "uint256",
          "name": "fee0",
          "type": "uint256"
        },
        {
          "indexed": false,
          "internalType": "uint256",
          "name": "fee1",
          "type": "uint256"
        }
      ],
      "name": "AlgebraFeesClaimed",
      "type": "event"
    },
    {
      "anonymous": false,
      "inputs": [
        {
          "indexed": false,
          "internalType": "uint256",
          "name": "reward",
          "type": "uint256"
        },
        {
          "indexed": false,
          "internalType": "uint256",
          "name": "bonusReward",
          "type": "uint256"
        }
      ],
      "name": "AlgebraRewardsClaimed",
      "type": "event"
    },
    {
      "anonymous": false,
      "inputs": [
        {
          "indexed": false,
          "internalType": "uint256",
          "name": "loss",
          "type": "uint256"
        },
        {
          "indexed": false,
          "internalType": "uint256",
          "name": "profitToCover",
          "type": "uint256"
        },
        {
          "indexed": false,
          "internalType": "uint256",
          "name": "coveredByRewards",
          "type": "uint256"
        }
      ],
      "name": "Rebalanced",
      "type": "event"
    },
    {
      "inputs": [
        {
          "internalType": "address",
          "name": "asset",
          "type": "address"
        },
        {
          "internalType": "address",
          "name": "controller",
          "type": "address"
        },
        {
          "internalType": "address[]",
          "name": "rewardTokens",
          "type": "address[]"
        },
        {
          "internalType": "uint256[]",
          "name": "amounts",
          "type": "uint256[]"
        }
      ],
      "name": "calcEarned",
      "outputs": [
        {
          "internalType": "uint256",
          "name": "",
          "type": "uint256"
        }
      ],
      "stateMutability": "view",
      "type": "function"
    },
    {
      "inputs": [
        {
          "internalType": "contract IAlgebraPool",
          "name": "pool",
          "type": "IAlgebraPool"
        },
        {
          "internalType": "int24",
          "name": "lowerTick",
          "type": "int24"
        },
        {
          "internalType": "int24",
          "name": "upperTick",
          "type": "int24"
        },
        {
          "internalType": "bool",
          "name": "depositorSwapTokens",
          "type": "bool"
        }
      ],
      "name": "getEntryData",
      "outputs": [
        {
          "internalType": "bytes",
          "name": "entryData",
          "type": "bytes"
        }
      ],
      "stateMutability": "view",
      "type": "function"
    }
  ],
  "transactionHash": "0x609e23197e3f2400a5baa143317944fcecf8212b50902a02ebd3e6e415e5d670",
  "args": [],
  "numDeployments": 6,
  "solcInputHash": "9a67e5b94f62a52096a4af4ce8592dcc",
  "bytecode": "0x615aa36200003b600b82828239805160001a60731461002e57634e487b7160e01b600052600060045260246000fd5b30600052607381538281f3fe730000000000000000000000000000000000000000301460806040526004361061010a5760003560e01c80638fb5468e116100a1578063c1bbbea711610070578063c1bbbea71461029b578063c3724a89146102bb578063d1585fc4146102db578063f6e26117146102ee57600080fd5b80638fb5468e14610234578063a7aced0914610247578063b67626211461025a578063bd85be291461028857600080fd5b806334d2ec3d116100dd57806334d2ec3d146101bc5780637269cb3a146101cf5780637799c1d1146101f25780638ac339a51461021257600080fd5b8063203250ee1461010f57806328f0aec4146101455780632aed8d41146101665780632cc58ef914610194575b600080fd5b81801561011b57600080fd5b5061012f61012a366004614683565b61031d565b60405161013c91906146ee565b60405180910390f35b610158610153366004614701565b610b0a565b60405190815260200161013c565b81801561017257600080fd5b50610186610181366004614816565b610c68565b60405161013c9291906148b9565b6101a76101a2366004614701565b610e6e565b6040805192835260208301919091520161013c565b6101586101ca366004614967565b610f16565b6101e26101dd366004614a4f565b6110be565b604051901515815260200161013c565b610205610200366004614a91565b6111e7565b60405161013c9190614b3d565b81801561021e57600080fd5b5061023261022d366004614b61565b611275565b005b61012f610242366004614701565b61195e565b61012f610255366004614683565b611b68565b81801561026657600080fd5b5061027a610275366004614bfd565b611d84565b60405161013c929190614c43565b610205610296366004614701565b612720565b8180156102a757600080fd5b5061012f6102b6366004614c65565b612838565b8180156102c757600080fd5b506102326102d6366004614cd7565b612bff565b6101e26102e9366004614d0f565b612c76565b8180156102fa57600080fd5b5061030e610309366004614701565b61334a565b60405161013c93929190614d51565b604080516002808252606080830184529260208301908036833750505060018401549091506001600160a01b0316600061035685613bef565b600486015460408051808201909152601481527341532d372057726f6e67206c697175696469747960601b60208201529192506001600160801b0363010000009091048116919086168210156103c85760405162461bcd60e51b81526004016103bf9190614b3d565b60405180910390fd5b5060118601546040516307cf0b0f60e31b81526000908190600080516020615a2d83398151915290633e785878906104069088908790600401614df9565b60408051808303816000875af1158015610424573d6000803e3d6000fd5b505050506040513d601f19601f820116820180604052508101906104489190614e14565b9092509050600080516020615a2d8339815191526334267cbc61046a8b613bef565b8b6011015460006040518463ffffffff1660e01b815260040161048f93929190614e38565b600060405180830381600087803b1580156104a957600080fd5b505af11580156104bd573d6000803e3d6000fd5b50505050600082111561056e576012890154604051633f46232960e21b81526001600160a01b0390911690600080516020615a2d8339815191529063fd188ca49061051390849030906000908990600401614e5c565b6020604051808303816000875af1158015610532573d6000803e3d6000fd5b505050506040513d601f19601f820116820180604052508101906105569190614e85565b925061056c6001600160a01b0382168885613c65565b505b8015610618576013890154604051633f46232960e21b81526001600160a01b0390911690600080516020615a2d8339815191529063fd188ca4906105bd90849030906000908890600401614e5c565b6020604051808303816000875af11580156105dc573d6000803e3d6000fd5b505050506040513d601f19601f820116820180604052508101906106009190614e85565b91506106166001600160a01b0382168884613c65565b505b604051633c423f0b60e01b8152600481018490523060248201526060604482015260006064820152600080516020615a2d83398151915290633c423f0b90608401600060405180830381600087803b15801561067357600080fd5b505af1158015610687573d6000803e3d6000fd5b50506040805160a0810182528681526001600160801b038c81166020830190815260008385018181526060850191825242608086019081529551630624e65f60e11b8152945160048601529151909216602484015251604483015251606482015290516084820152600080516020615a0d8339815191529250630c49ccbe915060a40160408051808303816000875af1158015610728573d6000803e3d6000fd5b505050506040513d601f19601f8201168201806040525081019061074c9190614e14565b8860008151811061075f5761075f614e9e565b602002602001018960018151811061077957610779614e9e565b602090810291909101810192909252919091526040805160808101825285815230928101929092526001600160801b0382820181905260608301525163fc6f786560e01b81526000918291600080516020615a0d8339815191529163fc6f7865916107e79190600401614eb4565b60408051808303816000875af1158015610805573d6000803e3d6000fd5b505050506040513d601f19601f820116820180604052508101906108299190614e14565b9150915060008960008151811061084257610842614e9e565b6020026020010151831161085757600061087d565b8960008151811061086a5761086a614e9e565b60200260200101518361087d9190614f0d565b905060008a60018151811061089457610894614e9e565b602002602001015183116108a95760006108cf565b8a6001815181106108bc576108bc614e9e565b6020026020010151836108cf9190614f0d565b60408051848152602081018390529192507f15097721483fb2e62f76b9953e3601b26e7cc79208a0191df6fa701c6148744d910160405180910390a160038d0154600160a81b900460ff1615610993578a60018151811061093257610932614e9e565b60200260200101518b60008151811061094d5761094d614e9e565b60200260200101518c60008151811061096857610968614e9e565b602002602001018d60018151811061098257610982614e9e565b602090810291909101019190915252905b81156109b25760028d01546109b2906001600160a01b03168b84613c65565b80156109d15760038d01546109d1906001600160a01b03168b83613c65565b5050505087846109e19190614f20565b60048a01805472ffffffffffffffffffffffffffffffff000000191663010000006001600160801b0384169081029190911790915590945015610afe57604051632142170760e11b8152600080516020615a0d833981519152906342842e0e90610a61903090600080516020615a2d833981519152908890600401614f40565b600060405180830381600087803b158015610a7b57600080fd5b505af1158015610a8f573d6000803e3d6000fd5b5050604051631143967160e11b8152600080516020615a2d83398151915292506322872ce29150610acb90889087906000908190600401614f64565b600060405180830381600087803b158015610ae557600080fd5b505af1158015610af9573d6000803e3d6000fd5b505050505b50505050505092915050565b805460038201546000916001600160a01b03169060ff600160a81b8204169083908190610b59908590600160c81b8104600290810b91600160e01b8104820b91600160b01b909104900b613cc0565b9150915060008073Abb00AE121f27666607E1a32924eef53693064b362438b7e878686896040518563ffffffff1660e01b8152600401610b9c9493929190614f90565b6040805180830381865af4158015610bb8573d6000803e3d6000fd5b505050506040513d601f19601f82011682018060405250810190610bdc9190614e14565b90925090506000610bed8284614fbc565b116040518060400160405280601081526020016f54532d3234207a65726f2076616c756560801b81525090610c355760405162461bcd60e51b81526004016103bf9190614b3d565b50610c408183614fbc565b610c5282670de0b6b3a7640000614fcf565b610c5c9190614ffc565b98975050505050505050565b6000606081610c7d60a08a0160808b01615010565b9050600088600360200201359050600060405180604001604052808860020160009054906101000a90046001600160a01b03166001600160a01b03166001600160a01b031681526020018860030160009054906101000a90046001600160a01b03166001600160a01b03166001600160a01b0316815250905060008760000160009054906101000a90046001600160a01b0316905060606000739D7226Fe5fa1b4a470497C4D0573B10F5eB21F0E63bd13c5298f8f8f8f898f6040518763ffffffff1660e01b8152600401610d5796959493929190615036565b600060405180830381865af4158015610d74573d6000803e3d6000fd5b505050506040513d6000823e601f3d908101601f19168201604052610d9c9190810190615148565b919950925090508015610dd15760018a015484516020860151610dcf92899285926001600160a01b039092169188613cea565b505b6001851480610de85750600285148015610de85750875b15610e5d5760038a0154610e1e908490600160c81b8104600290810b91600160e01b8104820b91600160b01b909104900b613cc0565b60038c01805465ffffffffffff60c81b1916600160e01b62ffffff9384160262ffffff60c81b191617600160c81b939092169290920217905590955085905b505050505050965096945050505050565b805460118201546040516308aaf22f60e31b8152600092839273b1450ADeb76257593B97ABdC06ba908300847AAe92634557917892610ecc926001600160a01b0390911691600080516020615a0d8339815191529190600401614f40565b6040805180830381865af4158015610ee8573d6000803e3d6000fd5b505050506040513d601f19601f82011682018060405250810190610f0c9190614e14565b9094909350915050565b600080846001600160a01b0316634046ebae6040518163ffffffff1660e01b8152600401602060405180830381865afa158015610f57573d6000803e3d6000fd5b505050506040513d601f19601f82011682018060405250810190610f7b91906151b1565b84519091506000805b828110156110b0576000878281518110610fa057610fa0614e9e565b60200260200101519050896001600160a01b0316816001600160a01b031603610fef57868281518110610fd557610fd5614e9e565b602002602001015183610fe89190614fbc565b925061109f565b846001600160a01b031663a9dd14d689848151811061101057611010614e9e565b60200260200101518c8a868151811061102b5761102b614e9e565b60200260200101516040518463ffffffff1660e01b815260040161105193929190614f40565b602060405180830381865afa15801561106e573d6000803e3d6000fd5b505050506040513d601f19601f820116820180604052508101906110929190614e85565b61109c9084614fbc565b92505b506110a9816151ce565b9050610f84565b50925050505b949350505050565b815460405163ecc8941960e01b8152600091739D7226Fe5fa1b4a470497C4D0573B10F5eB21F0E9163498162cf918691869173Abb00AE121f27666607E1a32924eef53693064b39163ecc8941991611124916001600160a01b03909116906004016151e7565b602060405180830381865af4158015611141573d6000803e3d6000fd5b505050506040513d601f19601f820116820180604052508101906111659190615206565b6040516001600160e01b031960e086901b16815260048101939093526001600160a01b03909116602483015260020b604482015260640160a060405180830381865af41580156111b9573d6000803e3d6000fd5b505050506040513d601f19601f820116820180604052508101906111dd9190615223565b5090949350505050565b604051637799c1d160e01b815260609073Abb00AE121f27666607E1a32924eef53693064b390637799c1d190611227908890889088908890600401614f90565b600060405180830381865af4158015611244573d6000803e3d6000fd5b505050506040513d6000823e601f3d908101601f1916820160405261126c919081019061532b565b95945050505050565b60006112876040890160208a01615010565b6001600160a01b031614156040518060400160405280601181526020017054532d31207a65726f206164647265737360781b815250906112da5760405162461bcd60e51b81526004016103bf9190614b3d565b5060006112ed6040890160208a01615010565b6001600160a01b0316630dfe16816040518163ffffffff1660e01b8152600401602060405180830381865afa15801561132a573d6000803e3d6000fd5b505050506040513d601f19601f8201168201806040525081019061134e91906151b1565b9050600061136260408a0160208b01615010565b6001600160a01b031663d21220a76040518163ffffffff1660e01b8152600401602060405180830381865afa15801561139f573d6000803e3d6000fd5b505050506040513d601f19601f820116820180604052508101906113c391906151b1565b90506113cd614585565b600073b1450ADeb76257593B97ABdC06ba908300847AAe63d0c93a7c6040518163ffffffff1660e01b8152600401602060405180830381865af4158015611418573d6000803e3d6000fd5b505050506040513d601f19601f8201168201806040525081019061143c9190615206565b90508960020b60001461150c5780611454818c615373565b61145e91906153ad565b60020b8a60020b146040518060400160405280601881526020017741532d3320496e636f7272656374207469636b52616e676560401b815250906114b55760405162461bcd60e51b81526004016103bf9190614b3d565b50806114c1818b615373565b6114cb91906153ad565b60020b8960020b14604051806060016040528060218152602001615a4d602191399061150a5760405162461bcd60e51b81526004016103bf9190614b3d565b505b600281900b825273Abb00AE121f27666607E1a32924eef53693064b36358817a9861153d60408e0160208f01615010565b6040516001600160e01b031960e084901b1681526001600160a01b03909116600482015260028d810b602483015284900b60448201526064016040805180830381865af4158015611592573d6000803e3d6000fd5b505050506040513d601f19601f820116820180604052508101906115b691906153cd565b836001602002018460028093840b602091909102919091015291900b90528882600360029290920b60209092020152506040805160808101909152739D7226Fe5fa1b4a470497C4D0573B10F5eB21F0E906341fcc755908d90808e60016020020160208101906116269190615010565b6001600160a01b03166001600160a01b031681526020018b6001600160a01b03166001600160a01b03168152602001876001600160a01b03166001600160a01b03168152602001866001600160a01b03166001600160a01b0316815250848a8a8a6040518763ffffffff1660e01b81526004016116a8969594939291906153fc565b60006040518083038186803b1580156116c057600080fd5b505af41580156116d4573d6000803e3d6000fd5b5050505060008a6000600281106116ed576116ed614e9e565b6020020160208101906117009190615010565b6001600160a01b0316634046ebae6040518163ffffffff1660e01b8152600401602060405180830381865afa15801561173d573d6000803e3d6000fd5b505050506040513d601f19601f8201168201806040525081019061176191906151b1565b60405163095ea7b360e01b81529091506001600160a01b0385169063095ea7b39061179490849060001990600401615487565b6020604051808303816000875af11580156117b3573d6000803e3d6000fd5b505050506040513d601f19601f820116820180604052508101906117d791906154a0565b5060405163095ea7b360e01b81526001600160a01b0384169063095ea7b39061180890849060001990600401615487565b6020604051808303816000875af1158015611827573d6000803e3d6000fd5b505050506040513d601f19601f8201168201806040525081019061184b91906154a0565b5060405163095ea7b360e01b81526001600160a01b0385169063095ea7b39061188a90600080516020615a0d8339815191529060001990600401615487565b6020604051808303816000875af11580156118a9573d6000803e3d6000fd5b505050506040513d601f19601f820116820180604052508101906118cd91906154a0565b5060405163095ea7b360e01b81526001600160a01b0384169063095ea7b39061190c90600080516020615a0d8339815191529060001990600401615487565b6020604051808303816000875af115801561192b573d6000803e3d6000fd5b505050506040513d601f19601f8201168201806040525081019061194f91906154a0565b50505050505050505050505050565b604080516002808252606080830184529260208301908036833750508354604080516339db007960e21b815290519394506000936001600160a01b03909216925063e76c01e49160048083019260e09291908290030181865afa1580156119c9573d6000803e3d6000fd5b505050506040513d601f19601f820116820180604052508101906119ed91906154e0565b505050506003860154600480880154604051630544f36560e31b815295965073b1450ADeb76257593B97ABdC06ba908300847AAe95632a279b289550611a5f94508793600160c81b8104600290810b94600160e01b909204900b92630100000090046001600160801b0316910161556f565b6040805180830381865af4158015611a7b573d6000803e3d6000fd5b505050506040513d601f19601f82011682018060405250810190611a9f9190614e14565b83600081518110611ab257611ab2614e9e565b6020026020010184600181518110611acc57611acc614e9e565b6020908102919091010191909152526003830154600160a81b900460ff1615611b625781600181518110611b0257611b02614e9e565b602002602001015182600081518110611b1d57611b1d614e9e565b602002602001015183600081518110611b3857611b38614e9e565b6020026020010184600181518110611b5257611b52614e9e565b6020908102919091010191909152525b50919050565b606060008360000160009054906101000a90046001600160a01b03166001600160a01b031663e76c01e46040518163ffffffff1660e01b815260040160e060405180830381865afa158015611bc1573d6000803e3d6000fd5b505050506040513d601f19601f82011682018060405250810190611be591906154e0565b5094955060029450611bf79350505050565b604051908082528060200260200182016040528015611c20578160200160208202803683370190505b506003850154604051630544f36560e31b815291935073b1450ADeb76257593B97ABdC06ba908300847AAe91632a279b2891611c7a918591600160c81b8104600290810b92600160e01b909204900b90899060040161556f565b6040805180830381865af4158015611c96573d6000803e3d6000fd5b505050506040513d601f19601f82011682018060405250810190611cba9190614e14565b83600081518110611ccd57611ccd614e9e565b6020026020010184600181518110611ce757611ce7614e9e565b6020908102919091010191909152526003840154600160a81b900460ff1615611d7d5781600181518110611d1d57611d1d614e9e565b602002602001015182600081518110611d3857611d38614e9e565b602002602001015183600081518110611d5357611d53614e9e565b6020026020010184600181518110611d6d57611d6d614e9e565b6020908102919091010191909152525b5092915050565b6040805160a081018252600384015460ff600160a81b8204161515808352600060208401819052601187015494840194909452600160c81b8204600290810b606085810191909152600160e01b909304900b60808401529092919082908190611e0357600287015460038801546001600160a01b039182169116611e1b565b600387015460028801546001600160a01b0391821691165b8451919350915015611e9a5785600181518110611e3a57611e3a614e9e565b602002602001015186600081518110611e5557611e55614e9e565b602002602001015187600081518110611e7057611e70614e9e565b6020026020010188600181518110611e8a57611e8a614e9e565b6020908102919091010191909152525b6040805160028082526060820183529091602083019080368337505050604084015190955015611fe357604083810151905163133f757160e31b815260048101919091526000908190600080516020615a0d833981519152906399fbab889060240161016060405180830381865afa158015611f1a573d6000803e3d6000fd5b505050506040513d601f19601f82011682018060405250810190611f3e91906155ad565b50505050509550955050505050846060015160020b8260020b141580611f6e5750846080015160020b8160020b14155b15611fe0576040858101519051630852cd8d60e31b81526004810191909152600080516020615a0d833981519152906342966c6890602401600060405180830381600087803b158015611fc057600080fd5b505af1158015611fd4573d6000803e3d6000fd5b50506000604088015250505b50505b6000611fee88613bef565b905083604001516000036121f757600080516020615a0d8339815191526001600160a01b0316639cc1a283604051806101400160405280866001600160a01b03168152602001856001600160a01b03168152602001876060015160020b8152602001876080015160020b81526020018a60008151811061207057612070614e9e565b602002602001015181526020018a60018151811061209057612090614e9e565b602002602001015181526020016000815260200160008152602001306001600160a01b03168152602001428152506040518263ffffffff1660e01b81526004016120da9190615684565b6080604051808303816000875af11580156120f9573d6000803e3d6000fd5b505050506040513d601f19601f8201168201806040525081019061211d919061572f565b87604001886020018b60008151811061213857612138614e9e565b602002602001018c60018151811061215257612152614e9e565b6020908102919091010193909352929091526001600160801b0390921690525260408085015160118a018190559051632142170760e11b8152600080516020615a0d833981519152916342842e0e916121c0913091600080516020615a2d8339815191529190600401614f40565b600060405180830381600087803b1580156121da57600080fd5b505af11580156121ee573d6000803e3d6000fd5b5050505061264b565b600080516020615a0d8339815191526001600160a01b031663219f5d176040518060c00160405280876040015181526020018a60008151811061223c5761223c614e9e565b602002602001015181526020018a60018151811061225c5761225c614e9e565b602002602001015181526020016000815260200160008152602001428152506040518263ffffffff1660e01b81526004016122d69190600060c082019050825182526020830151602083015260408301516040830152606083015160608301526080830151608083015260a083015160a083015292915050565b6060604051808303816000875af11580156122f5573d6000803e3d6000fd5b505050506040513d601f19601f82011682018060405250810190612319919061576d565b866020018960008151811061233057612330614e9e565b602002602001018a60018151811061234a5761234a614e9e565b60209081029190910101929092529190526001600160801b03918216905260048901546301000000900416156125d15760408085015190516307cf0b0f60e31b81526000918291600080516020615a2d83398151915291633e785878916123b5918791600401614df9565b60408051808303816000875af11580156123d3573d6000803e3d6000fd5b505050506040513d601f19601f820116820180604052508101906123f79190614e14565b6040808901519051630d099f2f60e21b8152929450909250600080516020615a2d833981519152916334267cbc9161243791879190600090600401614e38565b600060405180830381600087803b15801561245157600080fd5b505af1158015612465573d6000803e3d6000fd5b5050505060018a01546001600160a01b031682156125215760128b0154604051633f46232960e21b81526001600160a01b0390911690600080516020615a2d8339815191529063fd188ca4906124c690849030906000908a90600401614e5c565b6020604051808303816000875af11580156124e5573d6000803e3d6000fd5b505050506040513d601f19601f820116820180604052508101906125099190614e85565b935061251f6001600160a01b0382168386613c65565b505b81156125c95760138b0154604051633f46232960e21b81526001600160a01b0390911690600080516020615a2d8339815191529063fd188ca49061257090849030906000908990600401614e5c565b6020604051808303816000875af115801561258f573d6000803e3d6000fd5b505050506040513d601f19601f820116820180604052508101906125b39190614e85565b92506121ee6001600160a01b0382168385613c65565b50505061264b565b6040808501519051632142170760e11b8152600080516020615a0d833981519152916342842e0e91612618913091600080516020615a2d8339815191529190600401614f40565b600060405180830381600087803b15801561263257600080fd5b505af1158015612646573d6000803e3d6000fd5b505050505b6040808501519051631143967160e11b8152600080516020615a2d833981519152916322872ce2916126869185916000908190600401614f64565b600060405180830381600087803b1580156126a057600080fd5b505af11580156126b4573d6000803e3d6000fd5b5050505060208401516004890180546003906126e1908490630100000090046001600160801b03166157a4565b92506101000a8154816001600160801b0302191690836001600160801b0316021790555083602001516001600160801b03169450505050509250929050565b6002810154604080516395d89b4160e01b815290516060926001600160a01b0316916395d89b419160048083019260009291908290030181865afa15801561276c573d6000803e3d6000fd5b505050506040513d6000823e601f3d908101601f19168201604052612794919081019061532b565b8260030160009054906101000a90046001600160a01b03166001600160a01b03166395d89b416040518163ffffffff1660e01b8152600401600060405180830381865afa1580156127e9573d6000803e3d6000fd5b505050506040513d6000823e601f3d908101601f19168201604052612811919081019061532b565b6040516020016128229291906157c4565b6040516020818303038152906040529050919050565b60606128426145a3565b61285a8161285360208b018b615010565b8b86613dbb565b885460405163ecc8941960e01b8152600091829173Abb00AE121f27666607E1a32924eef53693064b39163ecc89419916128a0916001600160a01b0316906004016151e7565b602060405180830381865af41580156128bd573d6000803e3d6000fd5b505050506040513d601f19601f820116820180604052508101906128e19190615206565b602084015160405163498162cf60e01b8152600481018e90526001600160a01b039091166024820152600282900b6044820152909150739D7226Fe5fa1b4a470497C4D0573B10F5eB21F0E9063498162cf9060640160a060405180830381865af4158015612953573d6000803e3d6000fd5b505050506040513d601f19601f820116820180604052508101906129779190615223565b61010086015260e0850152915081156129ff57739D7226Fe5fa1b4a470497C4D0573B10F5eB21F0E636280ea0e8c8560e001518661010001516040518463ffffffff1660e01b81526004016129ce9392919061582a565b60006040518083038186803b1580156129e657600080fd5b505af41580156129fa573d6000803e3d6000fd5b505050505b851580612a095750815b604051806040016040528060188152602001771054cb4e48139bc81c9958985b185b98d9481b995959195960421b81525090612a585760405162461bcd60e51b81526004016103bf9190614b3d565b508115612bf057600073Abb00AE121f27666607E1a32924eef53693064b363e4ee4bf78c8e8c8e8d8a60c00151896040518863ffffffff1660e01b8152600401612aa897969594939291906158d5565b60006040518083038186803b158015612ac057600080fd5b505af4158015612ad4573d6000803e3d6000fd5b50505050600073E11BFbFAf8e53ADC8e67552e8A1607a1b9CB735963ac2a37d686602001518d886060015189608001518a60c001516040518663ffffffff1660e01b8152600401612b2995949392919061595b565b600060405180830381865af4158015612b46573d6000803e3d6000fd5b505050506040513d6000823e601f3d908101601f19168201604052612b6e919081019061598f565b965090508015612bac57612ba989828f60010160009054906101000a90046001600160a01b0316886060015189608001518a60400151613cea565b91505b60408051828152602081018c90529081018390527f83387a3342ff1ebc5e437dc9ae0f98274afda12a11cf547eebec05a3e0b8f8a79060600160405180910390a150505b5050505b979650505050505050565b612c0c6020820182615010565b6012830180546001600160a01b0319166001600160a01b0392909216919091179055612c3e6040820160208301615010565b6013830180546001600160a01b0319166001600160a01b03929092169190911790556060810135601483015560800135601590910155565b6040805160c0810182526000918101829052606081018290526080810182905260a0810182905260028501546001600160a01b03908116825260038601548116602083015260018601546004870154911690630100000090046001600160801b03161561305b57601286015460138701546001600160a01b0391821691166000612cff89613bef565b9050600080600080516020615a2d8339815191526001600160a01b031663de2356d16040518163ffffffff1660e01b8152600401602060405180830381865afa158015612d50573d6000803e3d6000fd5b505050506040513d601f19601f82011682018060405250810190612d7491906151b1565b6001600160a01b031663704972f4848d601101546040518363ffffffff1660e01b8152600401612da5929190614df9565b6040805180830381865afa158015612dc1573d6000803e3d6000fd5b505050506040513d601f19601f82011682018060405250810190612de59190614e14565b6040516370a0823160e01b815291935091506001600160a01b038616906370a0823190612e169089906004016151e7565b602060405180830381865afa158015612e33573d6000803e3d6000fd5b505050506040513d601f19601f82011682018060405250810190612e579190614e85565b612e619083614fbc565b6040516370a0823160e01b81529092506001600160a01b038516906370a0823190612e909089906004016151e7565b602060405180830381865afa158015612ead573d6000803e3d6000fd5b505050506040513d601f19601f82011682018060405250810190612ed19190614e85565b612edb9082614fbc565b90506000896001600160a01b0316634046ebae6040518163ffffffff1660e01b8152600401602060405180830381865afa158015612f1d573d6000803e3d6000fd5b505050506040513d601f19601f82011682018060405250810190612f4191906151b1565b90508215612fc05787516040516354ee8a6b60e11b81526001600160a01b0383169163a9dd14d691612f79918a918890600401614f40565b602060405180830381865afa158015612f96573d6000803e3d6000fd5b505050506040513d601f19601f82011682018060405250810190612fba9190614e85565b60408901525b6060880151156130415787516040516354ee8a6b60e11b81526001600160a01b0383169163a9dd14d691612ffa9189918790600401614f40565b602060405180830381865afa158015613017573d6000803e3d6000fd5b505050506040513d601f19601f8201168201806040525081019061303b9190614e85565b60608901525b61304a8c610e6e565b60a08a015260808901525050505050505b6003860154600160a81b900460ff16156130815760a08201805160808401805190925290525b81516040516370a0823160e01b81526001600160a01b03909116906370a08231906130b09084906004016151e7565b602060405180830381865afa1580156130cd573d6000803e3d6000fd5b505050506040513d601f19601f820116820180604052508101906130f19190614e85565b826080018181516131029190614fbc565b90525060208201516040516370a0823160e01b81526001600160a01b03909116906370a08231906131379084906004016151e7565b602060405180830381865afa158015613154573d6000803e3d6000fd5b505050506040513d601f19601f820116820180604052508101906131789190614e85565b8260a0018181516131899190614fbc565b905250600061319786613f09565b835160405163b3596f0760e01b81529192506000916001600160a01b0384169163b3596f07916131ca91906004016151e7565b602060405180830381865afa1580156131e7573d6000803e3d6000fd5b505050506040513d601f19601f8201168201806040525081019061320b9190614e85565b90506000826001600160a01b031663b3596f0786602001516040518263ffffffff1660e01b815260040161323f91906151e7565b602060405180830381865afa15801561325c573d6000803e3d6000fd5b505050506040513d601f19601f820116820180604052508101906132809190614e85565b90506000670de0b6b3a764000083876080015161329d9190614fcf565b6132a79190614ffc565b90506000670de0b6b3a7640000838860a001516132c49190614fcf565b6132ce9190614ffc565b905060648211806132df5750606481115b8061330c57506064670de0b6b3a76400008589604001516133009190614fcf565b61330a9190614ffc565b115b8061333957506064670de0b6b3a764000085896060015161332d9190614fcf565b6133379190614ffc565b115b9750505050505050505b9392505050565b6001810154601182015460408051600480825260a08201909252606093849384936001600160a01b0390921692909160208201608080368337505050600287015481519196506001600160a01b03169086906000906133ab576133ab614e9e565b6001600160a01b03928316602091820292909201015260038701548651911690869060019081106133de576133de614e9e565b6001600160a01b039283166020918202929092010152601287015486519116908690600290811061341157613411614e9e565b6001600160a01b039283166020918202929092010152601387015486519116908690600390811061344457613444614e9e565b6001600160a01b039290921660209283029190910182015260408051600480825260a0820190925291820160808036833701905050925060005b855181101561353c5785818151811061349957613499614e9e565b60200260200101516001600160a01b03166370a08231306040518263ffffffff1660e01b81526004016134cc91906151e7565b602060405180830381865afa1580156134e9573d6000803e3d6000fd5b505050506040513d601f19601f8201168201806040525081019061350d9190614e85565b84828151811061351f5761351f614e9e565b602090810291909101015280613534816151ce565b91505061347e565b5060408051600480825260a08201909252906020820160808036833701905050935060008111801561358157506004860154630100000090046001600160801b031615155b15613a8057604080516080810182528281523060208201526001600160801b038183018190526060820152905163fc6f786560e01b8152600080516020615a2d8339815191529163fc6f7865916135db9190600401614eb4565b60408051808303816000875af11580156135f9573d6000803e3d6000fd5b505050506040513d601f19601f8201168201806040525081019061361d9190614e14565b8560008151811061363057613630614e9e565b602002602001018660018151811061364a5761364a614e9e565b60200260200101828152508281525050507f15097721483fb2e62f76b9953e3601b26e7cc79208a0191df6fa701c6148744d8460008151811061368f5761368f614e9e565b6020026020010151856001815181106136aa576136aa614e9e565b60200260200101516040516136c9929190918252602082015260400190565b60405180910390a16003860154600160a81b900460ff161561375857836001815181106136f8576136f8614e9e565b60200260200101518460008151811061371357613713614e9e565b60200260200101518560008151811061372e5761372e614e9e565b602002602001018660018151811061374857613748614e9e565b6020908102919091010191909152525b600080516020615a2d833981519152633e78587861377588613bef565b836040518363ffffffff1660e01b8152600401613793929190614df9565b60408051808303816000875af11580156137b1573d6000803e3d6000fd5b505050506040513d601f19601f820116820180604052508101906137d59190614e14565b856002815181106137e8576137e8614e9e565b602002602001018660038151811061380257613802614e9e565b602002602001018281525082815250505060008460028151811061382857613828614e9e565b6020026020010151111561390e57600080516020615a2d8339815191526001600160a01b031663fd188ca48660028151811061386657613866614e9e565b60200260200101513060008860028151811061388457613884614e9e565b60200260200101516040518563ffffffff1660e01b81526004016138ab9493929190614e5c565b6020604051808303816000875af11580156138ca573d6000803e3d6000fd5b505050506040513d601f19601f820116820180604052508101906138ee9190614e85565b8460028151811061390157613901614e9e565b6020026020010181815250505b60008460038151811061392357613923614e9e565b60200260200101511115613a0957600080516020615a2d8339815191526001600160a01b031663fd188ca48660038151811061396157613961614e9e565b60200260200101513060008860038151811061397f5761397f614e9e565b60200260200101516040518563ffffffff1660e01b81526004016139a69493929190614e5c565b6020604051808303816000875af11580156139c5573d6000803e3d6000fd5b505050506040513d601f19601f820116820180604052508101906139e99190614e85565b846003815181106139fc576139fc614e9e565b6020026020010181815250505b7f2f1396dffa36013d7e1df1ec39cb355b5ff604d56e817a88ed2a0d40995adcb884600281518110613a3d57613a3d614e9e565b602002602001015185600381518110613a5857613a58614e9e565b6020026020010151604051613a77929190918252602082015260400190565b60405180910390a15b60005b8551811015613be5576000868281518110613aa057613aa0614e9e565b60200260200101516001600160a01b03166370a08231856040518263ffffffff1660e01b8152600401613ad391906151e7565b602060405180830381865afa158015613af0573d6000803e3d6000fd5b505050506040513d601f19601f82011682018060405250810190613b149190614e85565b90508015613bd457868281518110613b2e57613b2e614e9e565b60200260200101516001600160a01b03166323b872dd8530846040518463ffffffff1660e01b8152600401613b6593929190614f40565b6020604051808303816000875af1158015613b84573d6000803e3d6000fd5b505050506040513d601f19601f82011682018060405250810190613ba891906154a0565b5080868381518110613bbc57613bbc614e9e565b60200260200101818151613bd09190614fbc565b9052505b50613bde816151ce565b9050613a83565b5050509193909250565b6040805160a081018252600080825260208201819052918101829052606081018290526080810191909152506040805160a08101825260128301546001600160a01b0390811682526013840154811660208301528354169181019190915260148201546060820152601590910154608082015290565b613cbb8363a9059cbb60e01b8484604051602401613c84929190615487565b60408051601f198184030181529190526020810180516001600160e01b03166001600160e01b031990931692909217909152613fd4565b505050565b6000806000613cce876140a6565b9050613cdc81878787614117565b925092505094509492505050565b60008515613db1576040516367acb54b60e01b8152600481018790526001600160a01b038087166024830152808616604483015280851660648301528316608482015273Abb00AE121f27666607E1a32924eef53693064b3906367acb54b9060a401602060405180830381865af4158015613d69573d6000803e3d6000fd5b505050506040513d601f19601f82011682018060405250810190613d8d9190614e85565b90506000613d9b8288614f0d565b90508015613daf57613daf886000836141e1565b505b9695505050505050565b81546001600160a01b031660408086019190915280518082019091526005830160026000835b82821015613e6d57604080518082019091526005830285018054829060ff166003811115613e1157613e11615814565b6003811115613e2257613e22615814565b815260408051608081019182905260209092019190600184019060049082845b815481526020019060010190808311613e425750505050508152505081526020019060010190613de1565b505050908552506001600160a01b03838116602080870191909152600284015482166060870181905260038501549283166080880152600160a01b90920460ff16151560a087015260009182528290526040902054613ecb9061445a565b60c08501515260808401516001600160a01b0316600090815260208290526040902054613ef79061445a565b60c08501516001602002015250505050565b6000816001600160a01b031663f77c47916040518163ffffffff1660e01b8152600401602060405180830381865afa158015613f49573d6000803e3d6000fd5b505050506040513d601f19601f82011682018060405250810190613f6d91906151b1565b6001600160a01b0316632630c12f6040518163ffffffff1660e01b8152600401602060405180830381865afa158015613faa573d6000803e3d6000fd5b505050506040513d601f19601f82011682018060405250810190613fce91906151b1565b92915050565b6000614029826040518060400160405280602081526020017f5361666545524332303a206c6f772d6c6576656c2063616c6c206661696c6564815250856001600160a01b03166144729092919063ffffffff16565b805190915015613cbb578080602001905181019061404791906154a0565b613cbb5760405162461bcd60e51b815260206004820152602a60248201527f5361666545524332303a204552433230206f7065726174696f6e20646964206e6044820152691bdd081cdd58d8d9595960b21b60648201526084016103bf565b6000816001600160a01b031663e76c01e46040518163ffffffff1660e01b815260040160e060405180830381865afa1580156140e6573d6000803e3d6000fd5b505050506040513d601f19601f8201168201806040525081019061410a91906154e0565b5093979650505050505050565b6000808061412586866159cb565b905060008460020b8260020b1461414657614141600283615373565b614149565b60005b60405163cd8e20e760e01b815260028a810b600483015282810b602483015287900b6044820152909150739D7226Fe5fa1b4a470497C4D0573B10F5eB21F0E9063cd8e20e7906064016040805180830381865af41580156141ae573d6000803e3d6000fd5b505050506040513d601f19601f820116820180604052508101906141d291906153cd565b93509350505094509492505050565b6000836001600160a01b03166338d52e0f6040518163ffffffff1660e01b8152600401602060405180830381865afa158015614221573d6000803e3d6000fd5b505050506040513d601f19601f8201168201806040525081019061424591906151b1565b90506000846001600160a01b031663fbfa77cf6040518163ffffffff1660e01b8152600401602060405180830381865afa158015614287573d6000803e3d6000fd5b505050506040513d601f19601f820116820180604052508101906142ab91906151b1565b90506000826001600160a01b03166370a08231836040518263ffffffff1660e01b81526004016142db91906151e7565b602060405180830381865afa1580156142f8573d6000803e3d6000fd5b505050506040513d601f19601f8201168201806040525081019061431c9190614e85565b604051630855081f60e01b815260048101879052602481018690529091506001600160a01b03871690630855081f90604401600060405180830381600087803b15801561436857600080fd5b505af115801561437c573d6000803e3d6000fd5b50506040516370a0823160e01b8152600092506001600160a01b03861691506370a08231906143af9086906004016151e7565b602060405180830381865afa1580156143cc573d6000803e3d6000fd5b505050506040513d601f19601f820116820180604052508101906143f09190614e85565b905081811161440057600061440a565b61440a8282614f0d565b905084811015614451577fdf392b47ba4bbae72ff7c68976df0acdc2813e181199d2b2f65187eeb0ee610561443f8287614f0d565b60405190815260200160405180910390a15b50505050505050565b600081156144685781613fce565b620186a092915050565b60606110b6848460008585600080866001600160a01b0316858760405161449991906159f0565b60006040518083038185875af1925050503d80600081146144d6576040519150601f19603f3d011682016040523d82523d6000602084013e6144db565b606091505b5091509150612bf4878383876060831561455657825160000361454f576001600160a01b0385163b61454f5760405162461bcd60e51b815260206004820152601d60248201527f416464726573733a2063616c6c20746f206e6f6e2d636f6e747261637400000060448201526064016103bf565b50816110b6565b6110b6838381511561456b5781518083602001fd5b8060405162461bcd60e51b81526004016103bf9190614b3d565b60405180608001604052806004906020820280368337509192915050565b6040518061012001604052806145b7614606565b815260006020820181905260408201819052606082018190526080820181905260a082015260c0016145e7614633565b81526020016145f4614633565b8152602001614601614633565b905290565b60405180604001604052806002905b61461d614651565b8152602001906001900390816146155790505090565b60405180604001604052806002906020820280368337509192915050565b604080518082019091528060008152602001614601614585565b6001600160801b038116811461468057600080fd5b50565b6000806040838503121561469657600080fd5b8235915060208301356146a88161466b565b809150509250929050565b600081518084526020808501945080840160005b838110156146e3578151875295820195908201906001016146c7565b509495945050505050565b60208152600061334360208301846146b3565b60006020828403121561471357600080fd5b5035919050565b8060808101831015613fce57600080fd5b634e487b7160e01b600052604160045260246000fd5b604080519081016001600160401b03811182821017156147635761476361472b565b60405290565b604051601f8201601f191681016001600160401b03811182821017156147915761479161472b565b604052919050565b60006001600160401b038211156147b2576147b261472b565b50601f01601f191660200190565b600082601f8301126147d157600080fd5b81356147e46147df82614799565b614769565b8181528460208386010111156147f957600080fd5b816020850160208301376000918101602001919091529392505050565b6000806000806000806101a0878903121561483057600080fd5b60a087018881111561484157600080fd5b87965061484e898261471a565b9550506101208701356001600160401b038082111561486c57600080fd5b6148788a838b016147c0565b955061014089013591508082111561488f57600080fd5b5061489c89828a016147c0565b935050610160870135915061018087013590509295509295509295565b82151581526040602082015260006110b660408301846146b3565b6001600160a01b038116811461468057600080fd5b60006001600160401b038211156149025761490261472b565b5060051b60200190565b600082601f83011261491d57600080fd5b8135602061492d6147df836148e9565b82815260059290921b8401810191818101908684111561494c57600080fd5b8286015b84811015613daf5780358352918301918301614950565b6000806000806080858703121561497d57600080fd5b8435614988816148d4565b9350602085810135614999816148d4565b935060408601356001600160401b03808211156149b557600080fd5b818801915088601f8301126149c957600080fd5b81356149d76147df826148e9565b81815260059190911b8301840190848101908b8311156149f657600080fd5b938501935b82851015614a1d578435614a0e816148d4565b825293850193908501906149fb565b965050506060880135925080831115614a3557600080fd5b5050614a438782880161490c565b91505092959194509250565b60008060408385031215614a6257600080fd5b8235915060208301356146a8816148d4565b8060020b811461468057600080fd5b801515811461468057600080fd5b60008060008060808587031215614aa757600080fd5b8435614ab2816148d4565b93506020850135614ac281614a74565b92506040850135614ad281614a74565b91506060850135614ae281614a83565b939692955090935050565b60005b83811015614b08578181015183820152602001614af0565b50506000910152565b60008151808452614b29816020860160208601614aed565b601f01601f19169290920160200192915050565b6020815260006133436020830184614b11565b8060408101831015613fce57600080fd5b6000806000806000806000806101e0898b031215614b7e57600080fd5b88359750614b8f8a60208b01614b50565b96506060890135614b9f81614a74565b95506080890135614baf81614a74565b945060a0890135614bbf816148d4565b935060c0890135614bcf81614a83565b9250614bde8a60e08b0161471a565b9150614bee8a6101608b0161471a565b90509295985092959890939650565b60008060408385031215614c1057600080fd5b8235915060208301356001600160401b03811115614c2d57600080fd5b614c398582860161490c565b9150509250929050565b604081526000614c5660408301856146b3565b90508260208301529392505050565b6000806000806000806000610100888a031215614c8157600080fd5b87359650614c928960208a01614b50565b9550606088013594506080880135935060a0880135614cb0816148d4565b925060c0880135614cc081614a83565b8092505060e0880135905092959891949750929550565b60008082840360c0811215614ceb57600080fd5b8335925060a0601f1982011215614d0157600080fd5b506020830190509250929050565b600080600060608486031215614d2457600080fd5b833592506020840135614d36816148d4565b91506040840135614d46816148d4565b809150509250925092565b606080825284519082018190526000906020906080840190828801845b82811015614d935781516001600160a01b031684529284019290840190600101614d6e565b50505083810382850152614da781876146b3565b9150508281036040840152613db181856146b3565b80516001600160a01b0390811683526020808301518216908401526040808301519091169083015260608082015190830152608090810151910152565b60c08101614e078285614dbc565b8260a08301529392505050565b60008060408385031215614e2757600080fd5b505080516020909101519092909150565b60e08101614e468286614dbc565b8360a083015282151560c0830152949350505050565b6001600160a01b0394851681529290931660208301526040820152606081019190915260800190565b600060208284031215614e9757600080fd5b5051919050565b634e487b7160e01b600052603260045260246000fd5b815181526020808301516001600160a01b0316908201526040808301516001600160801b0390811691830191909152606092830151169181019190915260800190565b634e487b7160e01b600052601160045260246000fd5b81810381811115613fce57613fce614ef7565b6001600160801b03828116828216039080821115611d7d57611d7d614ef7565b6001600160a01b039384168152919092166020820152604081019190915260600190565b6101008101614f738287614dbc565b8460a08301528360c083015282151560e083015295945050505050565b6001600160a01b03949094168452600292830b6020850152910b60408301521515606082015260800190565b80820180821115613fce57613fce614ef7565b8082028115828204841417613fce57613fce614ef7565b634e487b7160e01b600052601260045260246000fd5b60008261500b5761500b614fe6565b500490565b60006020828403121561502257600080fd5b8135613343816148d4565b60808183375050565b60006101c08289835b6005811015615071578135615053816148d4565b6001600160a01b03168352602092830192919091019060010161503f565b50505060808860a08501378061012084015261508f81840188614b11565b90508281036101408401526150a48187614b11565b91505061016082018460005b60028110156150d85781516001600160a01b03168352602092830192909101906001016150b0565b505050826101a0830152979650505050505050565b600082601f8301126150fe57600080fd5b8151602061510e6147df836148e9565b82815260059290921b8401810191818101908684111561512d57600080fd5b8286015b84811015613daf5780518352918301918301615131565b60008060006060848603121561515d57600080fd5b835161516881614a83565b60208501519093506001600160401b0381111561518457600080fd5b615190868287016150ed565b925050604084015190509250925092565b80516151ac816148d4565b919050565b6000602082840312156151c357600080fd5b8151613343816148d4565b6000600182016151e0576151e0614ef7565b5060010190565b6001600160a01b0391909116815260200190565b80516151ac81614a74565b60006020828403121561521857600080fd5b815161334381614a74565b600080600060a0848603121561523857600080fd5b835161524381614a83565b92506020603f8501861361525657600080fd5b61525e614741565b80606087018881111561527057600080fd5b8388015b8181101561529457805161528781614a83565b8452928401928401615274565b5081955088607f8901126152a757600080fd5b6152af614741565b925082915060a08801898111156152c557600080fd5b808210156152ec578151600481106152dd5760008081fd5b845292840192908401906152c5565b50508093505050509250925092565b60006153096147df84614799565b905082815283838301111561531d57600080fd5b613343836020830184614aed565b60006020828403121561533d57600080fd5b81516001600160401b0381111561535357600080fd5b8201601f8101841361536457600080fd5b6110b6848251602084016152fb565b60008160020b8360020b8061538a5761538a614fe6565b627fffff198214600019821416156153a4576153a4614ef7565b90059392505050565b60008260020b8260020b028060020b9150808214611d7d57611d7d614ef7565b600080604083850312156153e057600080fd5b82516153eb81614a74565b60208401519092506146a881614a74565b868152610240810160208083018860005b60048110156154335781516001600160a01b03168352918301919083019060010161540d565b50505060a083018760005b600481101561545e57815160020b8352918301919083019060010161543e565b5050505084151561012083015261547961014083018561502d565b612bf46101c083018461502d565b6001600160a01b03929092168252602082015260400190565b6000602082840312156154b257600080fd5b815161334381614a83565b805161ffff811681146151ac57600080fd5b805160ff811681146151ac57600080fd5b600080600080600080600060e0888a0312156154fb57600080fd5b8751615506816148d4565b602089015190975061551781614a74565b9550615525604089016154bd565b9450615533606089016154bd565b9350615541608089016154cf565b925061554f60a089016154cf565b915060c088015161555f81614a83565b8091505092959891949750929550565b6001600160a01b03949094168452600292830b6020850152910b60408301526001600160801b0316606082015260800190565b80516151ac8161466b565b60008060008060008060008060008060006101608c8e0312156155cf57600080fd5b8b516bffffffffffffffffffffffff811681146155eb57600080fd5b60208d0151909b506155fc816148d4565b60408d0151909a5061560d816148d4565b985061561b60608d016151a1565b975061562960808d016151fb565b965061563760a08d016151fb565b955061564560c08d016155a2565b945060e08c015193506101008c015192506156636101208d016155a2565b91506156726101408d016155a2565b90509295989b509295989b9093969950565b81516001600160a01b03168152610140810160208301516156b060208401826001600160a01b03169052565b5060408301516156c5604084018260020b9052565b5060608301516156da606084018260020b9052565b506080830151608083015260a083015160a083015260c083015160c083015260e083015160e08301526101008084015161571e828501826001600160a01b03169052565b505061012092830151919092015290565b6000806000806080858703121561574557600080fd5b8451935060208501516157578161466b565b6040860151606090960151949790965092505050565b60008060006060848603121561578257600080fd5b835161578d8161466b565b602085015160409095015190969495509392505050565b6001600160801b03818116838216019080821115611d7d57611d7d614ef7565b67020b633b2b13930960c51b8152600083516157e7816008850160208801614aed565b602f60f81b6008918401918201528351615808816009840160208801614aed565b01600901949350505050565b634e487b7160e01b600052602160045260246000fd5b83815260a0810160208083018560005b600281101561585957815115158352918301919083019060010161583a565b505050606083018460005b60028110156158a0578151600480821061588d57634e487b7160e01b6000526021815260246000fd5b5083529183019190830190600101615864565b50505050949350505050565b8060005b60028110156158cf5781518452602093840193909101906001016158b0565b50505050565b6101208101818960005b60028110156159115781356158f3816148d4565b6001600160a01b0316835260209283019291909101906001016158df565b5050506040820188905260608201879052608082018690526001600160a01b03851660a083015261594560c08301856158ac565b8260020b61010083015298975050505050505050565b6001600160a01b0386811682526020820186905284811660408301528316606082015260c08101613db160808301846158ac565b600080604083850312156159a257600080fd5b8251915060208301516001600160401b038111156159bf57600080fd5b614c39858286016150ed565b600282810b9082900b03627fffff198112627fffff82131715613fce57613fce614ef7565b60008251615a02818460208701614aed565b919091019291505056fe0000000000000000000000008ef88e4c7cfbbac1c163f7eddd4b578792201de60000000000000000000000007f281a8cdf66ef5e9db8434ec6d97acc1bc01e7841532d3420496e636f727265637420726562616c616e63655469636b52616e6765a26469706673582212201fc4dfefcba1d22b46a4a7b12929405436463e799531610ef8808c1d2a34966864736f6c63430008110033",
  "deployedBytecode": "0x730000000000000000000000000000000000000000301460806040526004361061010a5760003560e01c80638fb5468e116100a1578063c1bbbea711610070578063c1bbbea71461029b578063c3724a89146102bb578063d1585fc4146102db578063f6e26117146102ee57600080fd5b80638fb5468e14610234578063a7aced0914610247578063b67626211461025a578063bd85be291461028857600080fd5b806334d2ec3d116100dd57806334d2ec3d146101bc5780637269cb3a146101cf5780637799c1d1146101f25780638ac339a51461021257600080fd5b8063203250ee1461010f57806328f0aec4146101455780632aed8d41146101665780632cc58ef914610194575b600080fd5b81801561011b57600080fd5b5061012f61012a366004614683565b61031d565b60405161013c91906146ee565b60405180910390f35b610158610153366004614701565b610b0a565b60405190815260200161013c565b81801561017257600080fd5b50610186610181366004614816565b610c68565b60405161013c9291906148b9565b6101a76101a2366004614701565b610e6e565b6040805192835260208301919091520161013c565b6101586101ca366004614967565b610f16565b6101e26101dd366004614a4f565b6110be565b604051901515815260200161013c565b610205610200366004614a91565b6111e7565b60405161013c9190614b3d565b81801561021e57600080fd5b5061023261022d366004614b61565b611275565b005b61012f610242366004614701565b61195e565b61012f610255366004614683565b611b68565b81801561026657600080fd5b5061027a610275366004614bfd565b611d84565b60405161013c929190614c43565b610205610296366004614701565b612720565b8180156102a757600080fd5b5061012f6102b6366004614c65565b612838565b8180156102c757600080fd5b506102326102d6366004614cd7565b612bff565b6101e26102e9366004614d0f565b612c76565b8180156102fa57600080fd5b5061030e610309366004614701565b61334a565b60405161013c93929190614d51565b604080516002808252606080830184529260208301908036833750505060018401549091506001600160a01b0316600061035685613bef565b600486015460408051808201909152601481527341532d372057726f6e67206c697175696469747960601b60208201529192506001600160801b0363010000009091048116919086168210156103c85760405162461bcd60e51b81526004016103bf9190614b3d565b60405180910390fd5b5060118601546040516307cf0b0f60e31b81526000908190600080516020615a2d83398151915290633e785878906104069088908790600401614df9565b60408051808303816000875af1158015610424573d6000803e3d6000fd5b505050506040513d601f19601f820116820180604052508101906104489190614e14565b9092509050600080516020615a2d8339815191526334267cbc61046a8b613bef565b8b6011015460006040518463ffffffff1660e01b815260040161048f93929190614e38565b600060405180830381600087803b1580156104a957600080fd5b505af11580156104bd573d6000803e3d6000fd5b50505050600082111561056e576012890154604051633f46232960e21b81526001600160a01b0390911690600080516020615a2d8339815191529063fd188ca49061051390849030906000908990600401614e5c565b6020604051808303816000875af1158015610532573d6000803e3d6000fd5b505050506040513d601f19601f820116820180604052508101906105569190614e85565b925061056c6001600160a01b0382168885613c65565b505b8015610618576013890154604051633f46232960e21b81526001600160a01b0390911690600080516020615a2d8339815191529063fd188ca4906105bd90849030906000908890600401614e5c565b6020604051808303816000875af11580156105dc573d6000803e3d6000fd5b505050506040513d601f19601f820116820180604052508101906106009190614e85565b91506106166001600160a01b0382168884613c65565b505b604051633c423f0b60e01b8152600481018490523060248201526060604482015260006064820152600080516020615a2d83398151915290633c423f0b90608401600060405180830381600087803b15801561067357600080fd5b505af1158015610687573d6000803e3d6000fd5b50506040805160a0810182528681526001600160801b038c81166020830190815260008385018181526060850191825242608086019081529551630624e65f60e11b8152945160048601529151909216602484015251604483015251606482015290516084820152600080516020615a0d8339815191529250630c49ccbe915060a40160408051808303816000875af1158015610728573d6000803e3d6000fd5b505050506040513d601f19601f8201168201806040525081019061074c9190614e14565b8860008151811061075f5761075f614e9e565b602002602001018960018151811061077957610779614e9e565b602090810291909101810192909252919091526040805160808101825285815230928101929092526001600160801b0382820181905260608301525163fc6f786560e01b81526000918291600080516020615a0d8339815191529163fc6f7865916107e79190600401614eb4565b60408051808303816000875af1158015610805573d6000803e3d6000fd5b505050506040513d601f19601f820116820180604052508101906108299190614e14565b9150915060008960008151811061084257610842614e9e565b6020026020010151831161085757600061087d565b8960008151811061086a5761086a614e9e565b60200260200101518361087d9190614f0d565b905060008a60018151811061089457610894614e9e565b602002602001015183116108a95760006108cf565b8a6001815181106108bc576108bc614e9e565b6020026020010151836108cf9190614f0d565b60408051848152602081018390529192507f15097721483fb2e62f76b9953e3601b26e7cc79208a0191df6fa701c6148744d910160405180910390a160038d0154600160a81b900460ff1615610993578a60018151811061093257610932614e9e565b60200260200101518b60008151811061094d5761094d614e9e565b60200260200101518c60008151811061096857610968614e9e565b602002602001018d60018151811061098257610982614e9e565b602090810291909101019190915252905b81156109b25760028d01546109b2906001600160a01b03168b84613c65565b80156109d15760038d01546109d1906001600160a01b03168b83613c65565b5050505087846109e19190614f20565b60048a01805472ffffffffffffffffffffffffffffffff000000191663010000006001600160801b0384169081029190911790915590945015610afe57604051632142170760e11b8152600080516020615a0d833981519152906342842e0e90610a61903090600080516020615a2d833981519152908890600401614f40565b600060405180830381600087803b158015610a7b57600080fd5b505af1158015610a8f573d6000803e3d6000fd5b5050604051631143967160e11b8152600080516020615a2d83398151915292506322872ce29150610acb90889087906000908190600401614f64565b600060405180830381600087803b158015610ae557600080fd5b505af1158015610af9573d6000803e3d6000fd5b505050505b50505050505092915050565b805460038201546000916001600160a01b03169060ff600160a81b8204169083908190610b59908590600160c81b8104600290810b91600160e01b8104820b91600160b01b909104900b613cc0565b9150915060008073__$461d2a13b6c4ece874725da1f5491a2777$__62438b7e878686896040518563ffffffff1660e01b8152600401610b9c9493929190614f90565b6040805180830381865af4158015610bb8573d6000803e3d6000fd5b505050506040513d601f19601f82011682018060405250810190610bdc9190614e14565b90925090506000610bed8284614fbc565b116040518060400160405280601081526020016f54532d3234207a65726f2076616c756560801b81525090610c355760405162461bcd60e51b81526004016103bf9190614b3d565b50610c408183614fbc565b610c5282670de0b6b3a7640000614fcf565b610c5c9190614ffc565b98975050505050505050565b6000606081610c7d60a08a0160808b01615010565b9050600088600360200201359050600060405180604001604052808860020160009054906101000a90046001600160a01b03166001600160a01b03166001600160a01b031681526020018860030160009054906101000a90046001600160a01b03166001600160a01b03166001600160a01b0316815250905060008760000160009054906101000a90046001600160a01b031690506060600073__$b1ba452cecccdd06eb05ace2d0a762c7e1$__63bd13c5298f8f8f8f898f6040518763ffffffff1660e01b8152600401610d5796959493929190615036565b600060405180830381865af4158015610d74573d6000803e3d6000fd5b505050506040513d6000823e601f3d908101601f19168201604052610d9c9190810190615148565b919950925090508015610dd15760018a015484516020860151610dcf92899285926001600160a01b039092169188613cea565b505b6001851480610de85750600285148015610de85750875b15610e5d5760038a0154610e1e908490600160c81b8104600290810b91600160e01b8104820b91600160b01b909104900b613cc0565b60038c01805465ffffffffffff60c81b1916600160e01b62ffffff9384160262ffffff60c81b191617600160c81b939092169290920217905590955085905b505050505050965096945050505050565b805460118201546040516308aaf22f60e31b8152600092839273__$5ce7b97fe3b9dad27bffcf1c56869f0b10$__92634557917892610ecc926001600160a01b0390911691600080516020615a0d8339815191529190600401614f40565b6040805180830381865af4158015610ee8573d6000803e3d6000fd5b505050506040513d601f19601f82011682018060405250810190610f0c9190614e14565b9094909350915050565b600080846001600160a01b0316634046ebae6040518163ffffffff1660e01b8152600401602060405180830381865afa158015610f57573d6000803e3d6000fd5b505050506040513d601f19601f82011682018060405250810190610f7b91906151b1565b84519091506000805b828110156110b0576000878281518110610fa057610fa0614e9e565b60200260200101519050896001600160a01b0316816001600160a01b031603610fef57868281518110610fd557610fd5614e9e565b602002602001015183610fe89190614fbc565b925061109f565b846001600160a01b031663a9dd14d689848151811061101057611010614e9e565b60200260200101518c8a868151811061102b5761102b614e9e565b60200260200101516040518463ffffffff1660e01b815260040161105193929190614f40565b602060405180830381865afa15801561106e573d6000803e3d6000fd5b505050506040513d601f19601f820116820180604052508101906110929190614e85565b61109c9084614fbc565b92505b506110a9816151ce565b9050610f84565b50925050505b949350505050565b815460405163ecc8941960e01b815260009173__$b1ba452cecccdd06eb05ace2d0a762c7e1$__9163498162cf918691869173__$461d2a13b6c4ece874725da1f5491a2777$__9163ecc8941991611124916001600160a01b03909116906004016151e7565b602060405180830381865af4158015611141573d6000803e3d6000fd5b505050506040513d601f19601f820116820180604052508101906111659190615206565b6040516001600160e01b031960e086901b16815260048101939093526001600160a01b03909116602483015260020b604482015260640160a060405180830381865af41580156111b9573d6000803e3d6000fd5b505050506040513d601f19601f820116820180604052508101906111dd9190615223565b5090949350505050565b604051637799c1d160e01b815260609073__$461d2a13b6c4ece874725da1f5491a2777$__90637799c1d190611227908890889088908890600401614f90565b600060405180830381865af4158015611244573d6000803e3d6000fd5b505050506040513d6000823e601f3d908101601f1916820160405261126c919081019061532b565b95945050505050565b60006112876040890160208a01615010565b6001600160a01b031614156040518060400160405280601181526020017054532d31207a65726f206164647265737360781b815250906112da5760405162461bcd60e51b81526004016103bf9190614b3d565b5060006112ed6040890160208a01615010565b6001600160a01b0316630dfe16816040518163ffffffff1660e01b8152600401602060405180830381865afa15801561132a573d6000803e3d6000fd5b505050506040513d601f19601f8201168201806040525081019061134e91906151b1565b9050600061136260408a0160208b01615010565b6001600160a01b031663d21220a76040518163ffffffff1660e01b8152600401602060405180830381865afa15801561139f573d6000803e3d6000fd5b505050506040513d601f19601f820116820180604052508101906113c391906151b1565b90506113cd614585565b600073__$5ce7b97fe3b9dad27bffcf1c56869f0b10$__63d0c93a7c6040518163ffffffff1660e01b8152600401602060405180830381865af4158015611418573d6000803e3d6000fd5b505050506040513d601f19601f8201168201806040525081019061143c9190615206565b90508960020b60001461150c5780611454818c615373565b61145e91906153ad565b60020b8a60020b146040518060400160405280601881526020017741532d3320496e636f7272656374207469636b52616e676560401b815250906114b55760405162461bcd60e51b81526004016103bf9190614b3d565b50806114c1818b615373565b6114cb91906153ad565b60020b8960020b14604051806060016040528060218152602001615a4d602191399061150a5760405162461bcd60e51b81526004016103bf9190614b3d565b505b600281900b825273__$461d2a13b6c4ece874725da1f5491a2777$__6358817a9861153d60408e0160208f01615010565b6040516001600160e01b031960e084901b1681526001600160a01b03909116600482015260028d810b602483015284900b60448201526064016040805180830381865af4158015611592573d6000803e3d6000fd5b505050506040513d601f19601f820116820180604052508101906115b691906153cd565b836001602002018460028093840b602091909102919091015291900b90528882600360029290920b6020909202015250604080516080810190915273__$b1ba452cecccdd06eb05ace2d0a762c7e1$__906341fcc755908d90808e60016020020160208101906116269190615010565b6001600160a01b03166001600160a01b031681526020018b6001600160a01b03166001600160a01b03168152602001876001600160a01b03166001600160a01b03168152602001866001600160a01b03166001600160a01b0316815250848a8a8a6040518763ffffffff1660e01b81526004016116a8969594939291906153fc565b60006040518083038186803b1580156116c057600080fd5b505af41580156116d4573d6000803e3d6000fd5b5050505060008a6000600281106116ed576116ed614e9e565b6020020160208101906117009190615010565b6001600160a01b0316634046ebae6040518163ffffffff1660e01b8152600401602060405180830381865afa15801561173d573d6000803e3d6000fd5b505050506040513d601f19601f8201168201806040525081019061176191906151b1565b60405163095ea7b360e01b81529091506001600160a01b0385169063095ea7b39061179490849060001990600401615487565b6020604051808303816000875af11580156117b3573d6000803e3d6000fd5b505050506040513d601f19601f820116820180604052508101906117d791906154a0565b5060405163095ea7b360e01b81526001600160a01b0384169063095ea7b39061180890849060001990600401615487565b6020604051808303816000875af1158015611827573d6000803e3d6000fd5b505050506040513d601f19601f8201168201806040525081019061184b91906154a0565b5060405163095ea7b360e01b81526001600160a01b0385169063095ea7b39061188a90600080516020615a0d8339815191529060001990600401615487565b6020604051808303816000875af11580156118a9573d6000803e3d6000fd5b505050506040513d601f19601f820116820180604052508101906118cd91906154a0565b5060405163095ea7b360e01b81526001600160a01b0384169063095ea7b39061190c90600080516020615a0d8339815191529060001990600401615487565b6020604051808303816000875af115801561192b573d6000803e3d6000fd5b505050506040513d601f19601f8201168201806040525081019061194f91906154a0565b50505050505050505050505050565b604080516002808252606080830184529260208301908036833750508354604080516339db007960e21b815290519394506000936001600160a01b03909216925063e76c01e49160048083019260e09291908290030181865afa1580156119c9573d6000803e3d6000fd5b505050506040513d601f19601f820116820180604052508101906119ed91906154e0565b505050506003860154600480880154604051630544f36560e31b815295965073__$5ce7b97fe3b9dad27bffcf1c56869f0b10$__95632a279b289550611a5f94508793600160c81b8104600290810b94600160e01b909204900b92630100000090046001600160801b0316910161556f565b6040805180830381865af4158015611a7b573d6000803e3d6000fd5b505050506040513d601f19601f82011682018060405250810190611a9f9190614e14565b83600081518110611ab257611ab2614e9e565b6020026020010184600181518110611acc57611acc614e9e565b6020908102919091010191909152526003830154600160a81b900460ff1615611b625781600181518110611b0257611b02614e9e565b602002602001015182600081518110611b1d57611b1d614e9e565b602002602001015183600081518110611b3857611b38614e9e565b6020026020010184600181518110611b5257611b52614e9e565b6020908102919091010191909152525b50919050565b606060008360000160009054906101000a90046001600160a01b03166001600160a01b031663e76c01e46040518163ffffffff1660e01b815260040160e060405180830381865afa158015611bc1573d6000803e3d6000fd5b505050506040513d601f19601f82011682018060405250810190611be591906154e0565b5094955060029450611bf79350505050565b604051908082528060200260200182016040528015611c20578160200160208202803683370190505b506003850154604051630544f36560e31b815291935073__$5ce7b97fe3b9dad27bffcf1c56869f0b10$__91632a279b2891611c7a918591600160c81b8104600290810b92600160e01b909204900b90899060040161556f565b6040805180830381865af4158015611c96573d6000803e3d6000fd5b505050506040513d601f19601f82011682018060405250810190611cba9190614e14565b83600081518110611ccd57611ccd614e9e565b6020026020010184600181518110611ce757611ce7614e9e565b6020908102919091010191909152526003840154600160a81b900460ff1615611d7d5781600181518110611d1d57611d1d614e9e565b602002602001015182600081518110611d3857611d38614e9e565b602002602001015183600081518110611d5357611d53614e9e565b6020026020010184600181518110611d6d57611d6d614e9e565b6020908102919091010191909152525b5092915050565b6040805160a081018252600384015460ff600160a81b8204161515808352600060208401819052601187015494840194909452600160c81b8204600290810b606085810191909152600160e01b909304900b60808401529092919082908190611e0357600287015460038801546001600160a01b039182169116611e1b565b600387015460028801546001600160a01b0391821691165b8451919350915015611e9a5785600181518110611e3a57611e3a614e9e565b602002602001015186600081518110611e5557611e55614e9e565b602002602001015187600081518110611e7057611e70614e9e565b6020026020010188600181518110611e8a57611e8a614e9e565b6020908102919091010191909152525b6040805160028082526060820183529091602083019080368337505050604084015190955015611fe357604083810151905163133f757160e31b815260048101919091526000908190600080516020615a0d833981519152906399fbab889060240161016060405180830381865afa158015611f1a573d6000803e3d6000fd5b505050506040513d601f19601f82011682018060405250810190611f3e91906155ad565b50505050509550955050505050846060015160020b8260020b141580611f6e5750846080015160020b8160020b14155b15611fe0576040858101519051630852cd8d60e31b81526004810191909152600080516020615a0d833981519152906342966c6890602401600060405180830381600087803b158015611fc057600080fd5b505af1158015611fd4573d6000803e3d6000fd5b50506000604088015250505b50505b6000611fee88613bef565b905083604001516000036121f757600080516020615a0d8339815191526001600160a01b0316639cc1a283604051806101400160405280866001600160a01b03168152602001856001600160a01b03168152602001876060015160020b8152602001876080015160020b81526020018a60008151811061207057612070614e9e565b602002602001015181526020018a60018151811061209057612090614e9e565b602002602001015181526020016000815260200160008152602001306001600160a01b03168152602001428152506040518263ffffffff1660e01b81526004016120da9190615684565b6080604051808303816000875af11580156120f9573d6000803e3d6000fd5b505050506040513d601f19601f8201168201806040525081019061211d919061572f565b87604001886020018b60008151811061213857612138614e9e565b602002602001018c60018151811061215257612152614e9e565b6020908102919091010193909352929091526001600160801b0390921690525260408085015160118a018190559051632142170760e11b8152600080516020615a0d833981519152916342842e0e916121c0913091600080516020615a2d8339815191529190600401614f40565b600060405180830381600087803b1580156121da57600080fd5b505af11580156121ee573d6000803e3d6000fd5b5050505061264b565b600080516020615a0d8339815191526001600160a01b031663219f5d176040518060c00160405280876040015181526020018a60008151811061223c5761223c614e9e565b602002602001015181526020018a60018151811061225c5761225c614e9e565b602002602001015181526020016000815260200160008152602001428152506040518263ffffffff1660e01b81526004016122d69190600060c082019050825182526020830151602083015260408301516040830152606083015160608301526080830151608083015260a083015160a083015292915050565b6060604051808303816000875af11580156122f5573d6000803e3d6000fd5b505050506040513d601f19601f82011682018060405250810190612319919061576d565b866020018960008151811061233057612330614e9e565b602002602001018a60018151811061234a5761234a614e9e565b60209081029190910101929092529190526001600160801b03918216905260048901546301000000900416156125d15760408085015190516307cf0b0f60e31b81526000918291600080516020615a2d83398151915291633e785878916123b5918791600401614df9565b60408051808303816000875af11580156123d3573d6000803e3d6000fd5b505050506040513d601f19601f820116820180604052508101906123f79190614e14565b6040808901519051630d099f2f60e21b8152929450909250600080516020615a2d833981519152916334267cbc9161243791879190600090600401614e38565b600060405180830381600087803b15801561245157600080fd5b505af1158015612465573d6000803e3d6000fd5b5050505060018a01546001600160a01b031682156125215760128b0154604051633f46232960e21b81526001600160a01b0390911690600080516020615a2d8339815191529063fd188ca4906124c690849030906000908a90600401614e5c565b6020604051808303816000875af11580156124e5573d6000803e3d6000fd5b505050506040513d601f19601f820116820180604052508101906125099190614e85565b935061251f6001600160a01b0382168386613c65565b505b81156125c95760138b0154604051633f46232960e21b81526001600160a01b0390911690600080516020615a2d8339815191529063fd188ca49061257090849030906000908990600401614e5c565b6020604051808303816000875af115801561258f573d6000803e3d6000fd5b505050506040513d601f19601f820116820180604052508101906125b39190614e85565b92506121ee6001600160a01b0382168385613c65565b50505061264b565b6040808501519051632142170760e11b8152600080516020615a0d833981519152916342842e0e91612618913091600080516020615a2d8339815191529190600401614f40565b600060405180830381600087803b15801561263257600080fd5b505af1158015612646573d6000803e3d6000fd5b505050505b6040808501519051631143967160e11b8152600080516020615a2d833981519152916322872ce2916126869185916000908190600401614f64565b600060405180830381600087803b1580156126a057600080fd5b505af11580156126b4573d6000803e3d6000fd5b5050505060208401516004890180546003906126e1908490630100000090046001600160801b03166157a4565b92506101000a8154816001600160801b0302191690836001600160801b0316021790555083602001516001600160801b03169450505050509250929050565b6002810154604080516395d89b4160e01b815290516060926001600160a01b0316916395d89b419160048083019260009291908290030181865afa15801561276c573d6000803e3d6000fd5b505050506040513d6000823e601f3d908101601f19168201604052612794919081019061532b565b8260030160009054906101000a90046001600160a01b03166001600160a01b03166395d89b416040518163ffffffff1660e01b8152600401600060405180830381865afa1580156127e9573d6000803e3d6000fd5b505050506040513d6000823e601f3d908101601f19168201604052612811919081019061532b565b6040516020016128229291906157c4565b6040516020818303038152906040529050919050565b60606128426145a3565b61285a8161285360208b018b615010565b8b86613dbb565b885460405163ecc8941960e01b8152600091829173__$461d2a13b6c4ece874725da1f5491a2777$__9163ecc89419916128a0916001600160a01b0316906004016151e7565b602060405180830381865af41580156128bd573d6000803e3d6000fd5b505050506040513d601f19601f820116820180604052508101906128e19190615206565b602084015160405163498162cf60e01b8152600481018e90526001600160a01b039091166024820152600282900b604482015290915073__$b1ba452cecccdd06eb05ace2d0a762c7e1$__9063498162cf9060640160a060405180830381865af4158015612953573d6000803e3d6000fd5b505050506040513d601f19601f820116820180604052508101906129779190615223565b61010086015260e0850152915081156129ff5773__$b1ba452cecccdd06eb05ace2d0a762c7e1$__636280ea0e8c8560e001518661010001516040518463ffffffff1660e01b81526004016129ce9392919061582a565b60006040518083038186803b1580156129e657600080fd5b505af41580156129fa573d6000803e3d6000fd5b505050505b851580612a095750815b604051806040016040528060188152602001771054cb4e48139bc81c9958985b185b98d9481b995959195960421b81525090612a585760405162461bcd60e51b81526004016103bf9190614b3d565b508115612bf057600073__$461d2a13b6c4ece874725da1f5491a2777$__63e4ee4bf78c8e8c8e8d8a60c00151896040518863ffffffff1660e01b8152600401612aa897969594939291906158d5565b60006040518083038186803b158015612ac057600080fd5b505af4158015612ad4573d6000803e3d6000fd5b50505050600073__$8f1afe7577f9ab973017c74eca19b86f3c$__63ac2a37d686602001518d886060015189608001518a60c001516040518663ffffffff1660e01b8152600401612b2995949392919061595b565b600060405180830381865af4158015612b46573d6000803e3d6000fd5b505050506040513d6000823e601f3d908101601f19168201604052612b6e919081019061598f565b965090508015612bac57612ba989828f60010160009054906101000a90046001600160a01b0316886060015189608001518a60400151613cea565b91505b60408051828152602081018c90529081018390527f83387a3342ff1ebc5e437dc9ae0f98274afda12a11cf547eebec05a3e0b8f8a79060600160405180910390a150505b5050505b979650505050505050565b612c0c6020820182615010565b6012830180546001600160a01b0319166001600160a01b0392909216919091179055612c3e6040820160208301615010565b6013830180546001600160a01b0319166001600160a01b03929092169190911790556060810135601483015560800135601590910155565b6040805160c0810182526000918101829052606081018290526080810182905260a0810182905260028501546001600160a01b03908116825260038601548116602083015260018601546004870154911690630100000090046001600160801b03161561305b57601286015460138701546001600160a01b0391821691166000612cff89613bef565b9050600080600080516020615a2d8339815191526001600160a01b031663de2356d16040518163ffffffff1660e01b8152600401602060405180830381865afa158015612d50573d6000803e3d6000fd5b505050506040513d601f19601f82011682018060405250810190612d7491906151b1565b6001600160a01b031663704972f4848d601101546040518363ffffffff1660e01b8152600401612da5929190614df9565b6040805180830381865afa158015612dc1573d6000803e3d6000fd5b505050506040513d601f19601f82011682018060405250810190612de59190614e14565b6040516370a0823160e01b815291935091506001600160a01b038616906370a0823190612e169089906004016151e7565b602060405180830381865afa158015612e33573d6000803e3d6000fd5b505050506040513d601f19601f82011682018060405250810190612e579190614e85565b612e619083614fbc565b6040516370a0823160e01b81529092506001600160a01b038516906370a0823190612e909089906004016151e7565b602060405180830381865afa158015612ead573d6000803e3d6000fd5b505050506040513d601f19601f82011682018060405250810190612ed19190614e85565b612edb9082614fbc565b90506000896001600160a01b0316634046ebae6040518163ffffffff1660e01b8152600401602060405180830381865afa158015612f1d573d6000803e3d6000fd5b505050506040513d601f19601f82011682018060405250810190612f4191906151b1565b90508215612fc05787516040516354ee8a6b60e11b81526001600160a01b0383169163a9dd14d691612f79918a918890600401614f40565b602060405180830381865afa158015612f96573d6000803e3d6000fd5b505050506040513d601f19601f82011682018060405250810190612fba9190614e85565b60408901525b6060880151156130415787516040516354ee8a6b60e11b81526001600160a01b0383169163a9dd14d691612ffa9189918790600401614f40565b602060405180830381865afa158015613017573d6000803e3d6000fd5b505050506040513d601f19601f8201168201806040525081019061303b9190614e85565b60608901525b61304a8c610e6e565b60a08a015260808901525050505050505b6003860154600160a81b900460ff16156130815760a08201805160808401805190925290525b81516040516370a0823160e01b81526001600160a01b03909116906370a08231906130b09084906004016151e7565b602060405180830381865afa1580156130cd573d6000803e3d6000fd5b505050506040513d601f19601f820116820180604052508101906130f19190614e85565b826080018181516131029190614fbc565b90525060208201516040516370a0823160e01b81526001600160a01b03909116906370a08231906131379084906004016151e7565b602060405180830381865afa158015613154573d6000803e3d6000fd5b505050506040513d601f19601f820116820180604052508101906131789190614e85565b8260a0018181516131899190614fbc565b905250600061319786613f09565b835160405163b3596f0760e01b81529192506000916001600160a01b0384169163b3596f07916131ca91906004016151e7565b602060405180830381865afa1580156131e7573d6000803e3d6000fd5b505050506040513d601f19601f8201168201806040525081019061320b9190614e85565b90506000826001600160a01b031663b3596f0786602001516040518263ffffffff1660e01b815260040161323f91906151e7565b602060405180830381865afa15801561325c573d6000803e3d6000fd5b505050506040513d601f19601f820116820180604052508101906132809190614e85565b90506000670de0b6b3a764000083876080015161329d9190614fcf565b6132a79190614ffc565b90506000670de0b6b3a7640000838860a001516132c49190614fcf565b6132ce9190614ffc565b905060648211806132df5750606481115b8061330c57506064670de0b6b3a76400008589604001516133009190614fcf565b61330a9190614ffc565b115b8061333957506064670de0b6b3a764000085896060015161332d9190614fcf565b6133379190614ffc565b115b9750505050505050505b9392505050565b6001810154601182015460408051600480825260a08201909252606093849384936001600160a01b0390921692909160208201608080368337505050600287015481519196506001600160a01b03169086906000906133ab576133ab614e9e565b6001600160a01b03928316602091820292909201015260038701548651911690869060019081106133de576133de614e9e565b6001600160a01b039283166020918202929092010152601287015486519116908690600290811061341157613411614e9e565b6001600160a01b039283166020918202929092010152601387015486519116908690600390811061344457613444614e9e565b6001600160a01b039290921660209283029190910182015260408051600480825260a0820190925291820160808036833701905050925060005b855181101561353c5785818151811061349957613499614e9e565b60200260200101516001600160a01b03166370a08231306040518263ffffffff1660e01b81526004016134cc91906151e7565b602060405180830381865afa1580156134e9573d6000803e3d6000fd5b505050506040513d601f19601f8201168201806040525081019061350d9190614e85565b84828151811061351f5761351f614e9e565b602090810291909101015280613534816151ce565b91505061347e565b5060408051600480825260a08201909252906020820160808036833701905050935060008111801561358157506004860154630100000090046001600160801b031615155b15613a8057604080516080810182528281523060208201526001600160801b038183018190526060820152905163fc6f786560e01b8152600080516020615a2d8339815191529163fc6f7865916135db9190600401614eb4565b60408051808303816000875af11580156135f9573d6000803e3d6000fd5b505050506040513d601f19601f8201168201806040525081019061361d9190614e14565b8560008151811061363057613630614e9e565b602002602001018660018151811061364a5761364a614e9e565b60200260200101828152508281525050507f15097721483fb2e62f76b9953e3601b26e7cc79208a0191df6fa701c6148744d8460008151811061368f5761368f614e9e565b6020026020010151856001815181106136aa576136aa614e9e565b60200260200101516040516136c9929190918252602082015260400190565b60405180910390a16003860154600160a81b900460ff161561375857836001815181106136f8576136f8614e9e565b60200260200101518460008151811061371357613713614e9e565b60200260200101518560008151811061372e5761372e614e9e565b602002602001018660018151811061374857613748614e9e565b6020908102919091010191909152525b600080516020615a2d833981519152633e78587861377588613bef565b836040518363ffffffff1660e01b8152600401613793929190614df9565b60408051808303816000875af11580156137b1573d6000803e3d6000fd5b505050506040513d601f19601f820116820180604052508101906137d59190614e14565b856002815181106137e8576137e8614e9e565b602002602001018660038151811061380257613802614e9e565b602002602001018281525082815250505060008460028151811061382857613828614e9e565b6020026020010151111561390e57600080516020615a2d8339815191526001600160a01b031663fd188ca48660028151811061386657613866614e9e565b60200260200101513060008860028151811061388457613884614e9e565b60200260200101516040518563ffffffff1660e01b81526004016138ab9493929190614e5c565b6020604051808303816000875af11580156138ca573d6000803e3d6000fd5b505050506040513d601f19601f820116820180604052508101906138ee9190614e85565b8460028151811061390157613901614e9e565b6020026020010181815250505b60008460038151811061392357613923614e9e565b60200260200101511115613a0957600080516020615a2d8339815191526001600160a01b031663fd188ca48660038151811061396157613961614e9e565b60200260200101513060008860038151811061397f5761397f614e9e565b60200260200101516040518563ffffffff1660e01b81526004016139a69493929190614e5c565b6020604051808303816000875af11580156139c5573d6000803e3d6000fd5b505050506040513d601f19601f820116820180604052508101906139e99190614e85565b846003815181106139fc576139fc614e9e565b6020026020010181815250505b7f2f1396dffa36013d7e1df1ec39cb355b5ff604d56e817a88ed2a0d40995adcb884600281518110613a3d57613a3d614e9e565b602002602001015185600381518110613a5857613a58614e9e565b6020026020010151604051613a77929190918252602082015260400190565b60405180910390a15b60005b8551811015613be5576000868281518110613aa057613aa0614e9e565b60200260200101516001600160a01b03166370a08231856040518263ffffffff1660e01b8152600401613ad391906151e7565b602060405180830381865afa158015613af0573d6000803e3d6000fd5b505050506040513d601f19601f82011682018060405250810190613b149190614e85565b90508015613bd457868281518110613b2e57613b2e614e9e565b60200260200101516001600160a01b03166323b872dd8530846040518463ffffffff1660e01b8152600401613b6593929190614f40565b6020604051808303816000875af1158015613b84573d6000803e3d6000fd5b505050506040513d601f19601f82011682018060405250810190613ba891906154a0565b5080868381518110613bbc57613bbc614e9e565b60200260200101818151613bd09190614fbc565b9052505b50613bde816151ce565b9050613a83565b5050509193909250565b6040805160a081018252600080825260208201819052918101829052606081018290526080810191909152506040805160a08101825260128301546001600160a01b0390811682526013840154811660208301528354169181019190915260148201546060820152601590910154608082015290565b613cbb8363a9059cbb60e01b8484604051602401613c84929190615487565b60408051601f198184030181529190526020810180516001600160e01b03166001600160e01b031990931692909217909152613fd4565b505050565b6000806000613cce876140a6565b9050613cdc81878787614117565b925092505094509492505050565b60008515613db1576040516367acb54b60e01b8152600481018790526001600160a01b038087166024830152808616604483015280851660648301528316608482015273__$461d2a13b6c4ece874725da1f5491a2777$__906367acb54b9060a401602060405180830381865af4158015613d69573d6000803e3d6000fd5b505050506040513d601f19601f82011682018060405250810190613d8d9190614e85565b90506000613d9b8288614f0d565b90508015613daf57613daf886000836141e1565b505b9695505050505050565b81546001600160a01b031660408086019190915280518082019091526005830160026000835b82821015613e6d57604080518082019091526005830285018054829060ff166003811115613e1157613e11615814565b6003811115613e2257613e22615814565b815260408051608081019182905260209092019190600184019060049082845b815481526020019060010190808311613e425750505050508152505081526020019060010190613de1565b505050908552506001600160a01b03838116602080870191909152600284015482166060870181905260038501549283166080880152600160a01b90920460ff16151560a087015260009182528290526040902054613ecb9061445a565b60c08501515260808401516001600160a01b0316600090815260208290526040902054613ef79061445a565b60c08501516001602002015250505050565b6000816001600160a01b031663f77c47916040518163ffffffff1660e01b8152600401602060405180830381865afa158015613f49573d6000803e3d6000fd5b505050506040513d601f19601f82011682018060405250810190613f6d91906151b1565b6001600160a01b0316632630c12f6040518163ffffffff1660e01b8152600401602060405180830381865afa158015613faa573d6000803e3d6000fd5b505050506040513d601f19601f82011682018060405250810190613fce91906151b1565b92915050565b6000614029826040518060400160405280602081526020017f5361666545524332303a206c6f772d6c6576656c2063616c6c206661696c6564815250856001600160a01b03166144729092919063ffffffff16565b805190915015613cbb578080602001905181019061404791906154a0565b613cbb5760405162461bcd60e51b815260206004820152602a60248201527f5361666545524332303a204552433230206f7065726174696f6e20646964206e6044820152691bdd081cdd58d8d9595960b21b60648201526084016103bf565b6000816001600160a01b031663e76c01e46040518163ffffffff1660e01b815260040160e060405180830381865afa1580156140e6573d6000803e3d6000fd5b505050506040513d601f19601f8201168201806040525081019061410a91906154e0565b5093979650505050505050565b6000808061412586866159cb565b905060008460020b8260020b1461414657614141600283615373565b614149565b60005b60405163cd8e20e760e01b815260028a810b600483015282810b602483015287900b604482015290915073__$b1ba452cecccdd06eb05ace2d0a762c7e1$__9063cd8e20e7906064016040805180830381865af41580156141ae573d6000803e3d6000fd5b505050506040513d601f19601f820116820180604052508101906141d291906153cd565b93509350505094509492505050565b6000836001600160a01b03166338d52e0f6040518163ffffffff1660e01b8152600401602060405180830381865afa158015614221573d6000803e3d6000fd5b505050506040513d601f19601f8201168201806040525081019061424591906151b1565b90506000846001600160a01b031663fbfa77cf6040518163ffffffff1660e01b8152600401602060405180830381865afa158015614287573d6000803e3d6000fd5b505050506040513d601f19601f820116820180604052508101906142ab91906151b1565b90506000826001600160a01b03166370a08231836040518263ffffffff1660e01b81526004016142db91906151e7565b602060405180830381865afa1580156142f8573d6000803e3d6000fd5b505050506040513d601f19601f8201168201806040525081019061431c9190614e85565b604051630855081f60e01b815260048101879052602481018690529091506001600160a01b03871690630855081f90604401600060405180830381600087803b15801561436857600080fd5b505af115801561437c573d6000803e3d6000fd5b50506040516370a0823160e01b8152600092506001600160a01b03861691506370a08231906143af9086906004016151e7565b602060405180830381865afa1580156143cc573d6000803e3d6000fd5b505050506040513d601f19601f820116820180604052508101906143f09190614e85565b905081811161440057600061440a565b61440a8282614f0d565b905084811015614451577fdf392b47ba4bbae72ff7c68976df0acdc2813e181199d2b2f65187eeb0ee610561443f8287614f0d565b60405190815260200160405180910390a15b50505050505050565b600081156144685781613fce565b620186a092915050565b60606110b6848460008585600080866001600160a01b0316858760405161449991906159f0565b60006040518083038185875af1925050503d80600081146144d6576040519150601f19603f3d011682016040523d82523d6000602084013e6144db565b606091505b5091509150612bf4878383876060831561455657825160000361454f576001600160a01b0385163b61454f5760405162461bcd60e51b815260206004820152601d60248201527f416464726573733a2063616c6c20746f206e6f6e2d636f6e747261637400000060448201526064016103bf565b50816110b6565b6110b6838381511561456b5781518083602001fd5b8060405162461bcd60e51b81526004016103bf9190614b3d565b60405180608001604052806004906020820280368337509192915050565b6040518061012001604052806145b7614606565b815260006020820181905260408201819052606082018190526080820181905260a082015260c0016145e7614633565b81526020016145f4614633565b8152602001614601614633565b905290565b60405180604001604052806002905b61461d614651565b8152602001906001900390816146155790505090565b60405180604001604052806002906020820280368337509192915050565b604080518082019091528060008152602001614601614585565b6001600160801b038116811461468057600080fd5b50565b6000806040838503121561469657600080fd5b8235915060208301356146a88161466b565b809150509250929050565b600081518084526020808501945080840160005b838110156146e3578151875295820195908201906001016146c7565b509495945050505050565b60208152600061334360208301846146b3565b60006020828403121561471357600080fd5b5035919050565b8060808101831015613fce57600080fd5b634e487b7160e01b600052604160045260246000fd5b604080519081016001600160401b03811182821017156147635761476361472b565b60405290565b604051601f8201601f191681016001600160401b03811182821017156147915761479161472b565b604052919050565b60006001600160401b038211156147b2576147b261472b565b50601f01601f191660200190565b600082601f8301126147d157600080fd5b81356147e46147df82614799565b614769565b8181528460208386010111156147f957600080fd5b816020850160208301376000918101602001919091529392505050565b6000806000806000806101a0878903121561483057600080fd5b60a087018881111561484157600080fd5b87965061484e898261471a565b9550506101208701356001600160401b038082111561486c57600080fd5b6148788a838b016147c0565b955061014089013591508082111561488f57600080fd5b5061489c89828a016147c0565b935050610160870135915061018087013590509295509295509295565b82151581526040602082015260006110b660408301846146b3565b6001600160a01b038116811461468057600080fd5b60006001600160401b038211156149025761490261472b565b5060051b60200190565b600082601f83011261491d57600080fd5b8135602061492d6147df836148e9565b82815260059290921b8401810191818101908684111561494c57600080fd5b8286015b84811015613daf5780358352918301918301614950565b6000806000806080858703121561497d57600080fd5b8435614988816148d4565b9350602085810135614999816148d4565b935060408601356001600160401b03808211156149b557600080fd5b818801915088601f8301126149c957600080fd5b81356149d76147df826148e9565b81815260059190911b8301840190848101908b8311156149f657600080fd5b938501935b82851015614a1d578435614a0e816148d4565b825293850193908501906149fb565b965050506060880135925080831115614a3557600080fd5b5050614a438782880161490c565b91505092959194509250565b60008060408385031215614a6257600080fd5b8235915060208301356146a8816148d4565b8060020b811461468057600080fd5b801515811461468057600080fd5b60008060008060808587031215614aa757600080fd5b8435614ab2816148d4565b93506020850135614ac281614a74565b92506040850135614ad281614a74565b91506060850135614ae281614a83565b939692955090935050565b60005b83811015614b08578181015183820152602001614af0565b50506000910152565b60008151808452614b29816020860160208601614aed565b601f01601f19169290920160200192915050565b6020815260006133436020830184614b11565b8060408101831015613fce57600080fd5b6000806000806000806000806101e0898b031215614b7e57600080fd5b88359750614b8f8a60208b01614b50565b96506060890135614b9f81614a74565b95506080890135614baf81614a74565b945060a0890135614bbf816148d4565b935060c0890135614bcf81614a83565b9250614bde8a60e08b0161471a565b9150614bee8a6101608b0161471a565b90509295985092959890939650565b60008060408385031215614c1057600080fd5b8235915060208301356001600160401b03811115614c2d57600080fd5b614c398582860161490c565b9150509250929050565b604081526000614c5660408301856146b3565b90508260208301529392505050565b6000806000806000806000610100888a031215614c8157600080fd5b87359650614c928960208a01614b50565b9550606088013594506080880135935060a0880135614cb0816148d4565b925060c0880135614cc081614a83565b8092505060e0880135905092959891949750929550565b60008082840360c0811215614ceb57600080fd5b8335925060a0601f1982011215614d0157600080fd5b506020830190509250929050565b600080600060608486031215614d2457600080fd5b833592506020840135614d36816148d4565b91506040840135614d46816148d4565b809150509250925092565b606080825284519082018190526000906020906080840190828801845b82811015614d935781516001600160a01b031684529284019290840190600101614d6e565b50505083810382850152614da781876146b3565b9150508281036040840152613db181856146b3565b80516001600160a01b0390811683526020808301518216908401526040808301519091169083015260608082015190830152608090810151910152565b60c08101614e078285614dbc565b8260a08301529392505050565b60008060408385031215614e2757600080fd5b505080516020909101519092909150565b60e08101614e468286614dbc565b8360a083015282151560c0830152949350505050565b6001600160a01b0394851681529290931660208301526040820152606081019190915260800190565b600060208284031215614e9757600080fd5b5051919050565b634e487b7160e01b600052603260045260246000fd5b815181526020808301516001600160a01b0316908201526040808301516001600160801b0390811691830191909152606092830151169181019190915260800190565b634e487b7160e01b600052601160045260246000fd5b81810381811115613fce57613fce614ef7565b6001600160801b03828116828216039080821115611d7d57611d7d614ef7565b6001600160a01b039384168152919092166020820152604081019190915260600190565b6101008101614f738287614dbc565b8460a08301528360c083015282151560e083015295945050505050565b6001600160a01b03949094168452600292830b6020850152910b60408301521515606082015260800190565b80820180821115613fce57613fce614ef7565b8082028115828204841417613fce57613fce614ef7565b634e487b7160e01b600052601260045260246000fd5b60008261500b5761500b614fe6565b500490565b60006020828403121561502257600080fd5b8135613343816148d4565b60808183375050565b60006101c08289835b6005811015615071578135615053816148d4565b6001600160a01b03168352602092830192919091019060010161503f565b50505060808860a08501378061012084015261508f81840188614b11565b90508281036101408401526150a48187614b11565b91505061016082018460005b60028110156150d85781516001600160a01b03168352602092830192909101906001016150b0565b505050826101a0830152979650505050505050565b600082601f8301126150fe57600080fd5b8151602061510e6147df836148e9565b82815260059290921b8401810191818101908684111561512d57600080fd5b8286015b84811015613daf5780518352918301918301615131565b60008060006060848603121561515d57600080fd5b835161516881614a83565b60208501519093506001600160401b0381111561518457600080fd5b615190868287016150ed565b925050604084015190509250925092565b80516151ac816148d4565b919050565b6000602082840312156151c357600080fd5b8151613343816148d4565b6000600182016151e0576151e0614ef7565b5060010190565b6001600160a01b0391909116815260200190565b80516151ac81614a74565b60006020828403121561521857600080fd5b815161334381614a74565b600080600060a0848603121561523857600080fd5b835161524381614a83565b92506020603f8501861361525657600080fd5b61525e614741565b80606087018881111561527057600080fd5b8388015b8181101561529457805161528781614a83565b8452928401928401615274565b5081955088607f8901126152a757600080fd5b6152af614741565b925082915060a08801898111156152c557600080fd5b808210156152ec578151600481106152dd5760008081fd5b845292840192908401906152c5565b50508093505050509250925092565b60006153096147df84614799565b905082815283838301111561531d57600080fd5b613343836020830184614aed565b60006020828403121561533d57600080fd5b81516001600160401b0381111561535357600080fd5b8201601f8101841361536457600080fd5b6110b6848251602084016152fb565b60008160020b8360020b8061538a5761538a614fe6565b627fffff198214600019821416156153a4576153a4614ef7565b90059392505050565b60008260020b8260020b028060020b9150808214611d7d57611d7d614ef7565b600080604083850312156153e057600080fd5b82516153eb81614a74565b60208401519092506146a881614a74565b868152610240810160208083018860005b60048110156154335781516001600160a01b03168352918301919083019060010161540d565b50505060a083018760005b600481101561545e57815160020b8352918301919083019060010161543e565b5050505084151561012083015261547961014083018561502d565b612bf46101c083018461502d565b6001600160a01b03929092168252602082015260400190565b6000602082840312156154b257600080fd5b815161334381614a83565b805161ffff811681146151ac57600080fd5b805160ff811681146151ac57600080fd5b600080600080600080600060e0888a0312156154fb57600080fd5b8751615506816148d4565b602089015190975061551781614a74565b9550615525604089016154bd565b9450615533606089016154bd565b9350615541608089016154cf565b925061554f60a089016154cf565b915060c088015161555f81614a83565b8091505092959891949750929550565b6001600160a01b03949094168452600292830b6020850152910b60408301526001600160801b0316606082015260800190565b80516151ac8161466b565b60008060008060008060008060008060006101608c8e0312156155cf57600080fd5b8b516bffffffffffffffffffffffff811681146155eb57600080fd5b60208d0151909b506155fc816148d4565b60408d0151909a5061560d816148d4565b985061561b60608d016151a1565b975061562960808d016151fb565b965061563760a08d016151fb565b955061564560c08d016155a2565b945060e08c015193506101008c015192506156636101208d016155a2565b91506156726101408d016155a2565b90509295989b509295989b9093969950565b81516001600160a01b03168152610140810160208301516156b060208401826001600160a01b03169052565b5060408301516156c5604084018260020b9052565b5060608301516156da606084018260020b9052565b506080830151608083015260a083015160a083015260c083015160c083015260e083015160e08301526101008084015161571e828501826001600160a01b03169052565b505061012092830151919092015290565b6000806000806080858703121561574557600080fd5b8451935060208501516157578161466b565b6040860151606090960151949790965092505050565b60008060006060848603121561578257600080fd5b835161578d8161466b565b602085015160409095015190969495509392505050565b6001600160801b03818116838216019080821115611d7d57611d7d614ef7565b67020b633b2b13930960c51b8152600083516157e7816008850160208801614aed565b602f60f81b6008918401918201528351615808816009840160208801614aed565b01600901949350505050565b634e487b7160e01b600052602160045260246000fd5b83815260a0810160208083018560005b600281101561585957815115158352918301919083019060010161583a565b505050606083018460005b60028110156158a0578151600480821061588d57634e487b7160e01b6000526021815260246000fd5b5083529183019190830190600101615864565b50505050949350505050565b8060005b60028110156158cf5781518452602093840193909101906001016158b0565b50505050565b6101208101818960005b60028110156159115781356158f3816148d4565b6001600160a01b0316835260209283019291909101906001016158df565b5050506040820188905260608201879052608082018690526001600160a01b03851660a083015261594560c08301856158ac565b8260020b61010083015298975050505050505050565b6001600160a01b0386811682526020820186905284811660408301528316606082015260c08101613db160808301846158ac565b600080604083850312156159a257600080fd5b8251915060208301516001600160401b038111156159bf57600080fd5b614c39858286016150ed565b600282810b9082900b03627fffff198112627fffff82131715613fce57613fce614ef7565b60008251615a02818460208701614aed565b919091019291505056fe0000000000000000000000008ef88e4c7cfbbac1c163f7eddd4b578792201de60000000000000000000000007f281a8cdf66ef5e9db8434ec6d97acc1bc01e7841532d3420496e636f727265637420726562616c616e63655469636b52616e6765a26469706673582212201fc4dfefcba1d22b46a4a7b12929405436463e799531610ef8808c1d2a34966864736f6c63430008110033",
  "libraries": {
    "AlgebraLib": "0xb1450ADeb76257593B97ABdC06ba908300847AAe",
    "AlgebraDebtLib": "0xAbb00AE121f27666607E1a32924eef53693064b3",
    "ConverterStrategyBaseLib2": "0xE11BFbFAf8e53ADC8e67552e8A1607a1b9CB7359",
    "PairBasedStrategyLogicLib": "0x9D7226Fe5fa1b4a470497C4D0573B10F5eB21F0E"
  },
  "devdoc": {
    "kind": "dev",
    "methods": {
      "initStrategyState(AlgebraConverterStrategyLogicLib.State storage,address[2],int24,int24,address,bool,uint256[4],uint256[4])": {
        "params": {
          "controllerPool": "[controller, pool]",
          "fuseThresholdsA": "Fuse thresholds for token A (stable pool only)",
          "fuseThresholdsB": "Fuse thresholds for token B (stable pool only)"
        }
      },
      "needStrategyRebalance(PairBasedStrategyLogicLib.PairState storage,ITetuConverter)": {
        "returns": {
          "needRebalance": "A boolean indicating if {rebalanceNoSwaps} should be called"
        }
      },
      "rebalanceNoSwaps(PairBasedStrategyLogicLib.PairState storage,address[2],uint256,uint256,address,bool,mapping(address => uint256) storage)": {
        "params": {
          "checkNeedRebalance_": "True if the function should ensure that the rebalance is required",
          "converterLiquidator": "[TetuConverter, TetuLiquidator]",
          "totalAssets_": "Current value of totalAssets()"
        },
        "returns": {
          "tokenAmounts": "Token amounts for deposit. If length == 0 - rebalance wasn't made and no deposit is required."
        }
      },
      "withdrawByAggStep(address[5],uint256[4],bytes,bytes,PairBasedStrategyLogicLib.PairState storage,mapping(address => uint256) storage)": {
        "params": {
          "addr_": "[tokenToSwap, aggregator, controller, converter, splitter]",
          "values_": "[amountToSwap_, profitToCover, oldTotalAssets, entryToPool]"
        },
        "returns": {
          "completed": "All debts were closed, leftovers were swapped to proper proportions",
          "tokenAmountsOut": "Amounts to be deposited to pool. This array is empty if no deposit allowed/required."
        }
      }
    },
    "version": 1
  },
  "userdoc": {
    "kind": "user",
    "methods": {
      "getPropNotUnderlying18(PairBasedStrategyLogicLib.PairState storage)": {
        "notice": "Get proportion of not-underlying in the pool, [0...1e18]         prop.underlying : prop.not.underlying = 1e18 - PropNotUnderlying18 : propNotUnderlying18"
      },
      "needStrategyRebalance(PairBasedStrategyLogicLib.PairState storage,ITetuConverter)": {
        "notice": "Determine if the strategy needs to be rebalanced."
      },
      "rebalanceNoSwaps(PairBasedStrategyLogicLib.PairState storage,address[2],uint256,uint256,address,bool,mapping(address => uint256) storage)": {
        "notice": "Make rebalance without swaps (using borrowing only)."
      }
    },
    "version": 1
  },
  "storageLayout": {
    "storage": [],
    "types": null
  }
}