{
  "address": "0x599d50a55Ae457d6d0014F71b32af2cAB05D5C96",
  "abi": [
    {
      "inputs": [
        {
          "internalType": "address",
          "name": "pool_",
          "type": "address"
        }
      ],
      "name": "createSpecificName",
      "outputs": [
        {
          "internalType": "string",
          "name": "",
          "type": "string"
        }
      ],
      "stateMutability": "view",
      "type": "function"
    },
    {
      "inputs": [
        {
          "internalType": "contract IBVault",
          "name": "vault_",
          "type": "IBVault"
        },
        {
          "internalType": "bytes32",
          "name": "poolId_",
          "type": "bytes32"
        }
      ],
      "name": "depositorPoolAssets",
      "outputs": [
        {
          "internalType": "address[]",
          "name": "poolAssets",
          "type": "address[]"
        }
      ],
      "stateMutability": "view",
      "type": "function"
    },
    {
      "inputs": [
        {
          "internalType": "contract IBVault",
          "name": "vault_",
          "type": "IBVault"
        },
        {
          "internalType": "bytes32",
          "name": "poolId_",
          "type": "bytes32"
        }
      ],
      "name": "depositorPoolReserves",
      "outputs": [
        {
          "internalType": "uint256[]",
          "name": "reservesOut",
          "type": "uint256[]"
        }
      ],
      "stateMutability": "view",
      "type": "function"
    },
    {
      "inputs": [
        {
          "internalType": "contract IBVault",
          "name": "vault_",
          "type": "IBVault"
        },
        {
          "internalType": "bytes32",
          "name": "poolId_",
          "type": "bytes32"
        }
      ],
      "name": "depositorPoolWeights",
      "outputs": [
        {
          "internalType": "uint256[]",
          "name": "weights",
          "type": "uint256[]"
        },
        {
          "internalType": "uint256",
          "name": "totalWeight",
          "type": "uint256"
        }
      ],
      "stateMutability": "view",
      "type": "function"
    }
  ],
  "transactionHash": "0xc4358a969ffb3fb4041448704165158fbb6f7e490e37d292af368cba3a06d6a2",
  "args": [],
  "numDeployments": 3,
  "solcInputHash": "d2e3098aa88da593efafca5c7f907838",
  "bytecode": "0x61487261003a600b82828239805160001a60731461002d57634e487b7160e01b600052600060045260246000fd5b30600052607381538281f3fe730000000000000000000000000000000000000000301460806040526004361061009d5760003560e01c80634b4c46fd116100705780634b4c46fd146101485780637b637be214610168578063923a3ca914610188578063aa55ad42146101a8578063f91294e9146101bb57600080fd5b8063209f6ae7146100a25780633a7e535c146100d8578063423511a314610107578063464a5ef714610135575b600080fd5b8180156100ae57600080fd5b506100c26100bd366004613d46565b6101db565b6040516100cf9190613db6565b60405180910390f35b8180156100e457600080fd5b506100f86100f3366004613ead565b610737565b6040516100cf93929190613f5b565b81801561011357600080fd5b50610127610122366004613f9e565b610b12565b6040516100cf92919061404c565b6100c261014336600461406e565b611105565b81801561015457600080fd5b506100c261016336600461406e565b611510565b61017b61017636600461406e565b611ceb565b6040516100cf919061409a565b61019b6101963660046140ad565b611eee565b6040516100cf919061411a565b6101276101b636600461406e565b611f7c565b8180156101c757600080fd5b506100c26101d636600461412d565b612148565b60606101e5613d06565b6101ef8460601c90565b6001600160a01b03166382687a566040518163ffffffff1660e01b8152600401602060405180830381865afa15801561022c573d6000803e3d6000fd5b505050506040513d601f19601f820116820180604052508101906102509190614173565b8152604051631f29a8cd60e31b8152600481018590526001600160a01b0386169063f94d466890602401600060405180830381865afa158015610297573d6000803e3d6000fd5b505050506040513d6000823e601f3d908101601f191682016040526102bf91908101906141e7565b50606083015260408201819052805160208301528151815181106102e5576102e56142b4565b60200260200101516001600160a01b03166370a08231306040518263ffffffff1660e01b815260040161031891906142ca565b602060405180830381865afa158015610335573d6000803e3d6000fd5b505050506040513d601f19601f820116820180604052508101906103599190614173565b8311156040518060400160405280601781526020017654532d37206e6f7420656e6f7567682062616c616e636560481b815250906103b35760405162461bcd60e51b81526004016103aa919061411a565b60405180910390fd5b50846001600160a01b0316638bdb391385303060405180608001604052806103dc886040015190565b815260200187602001516001600160401b038111156103fd576103fd613dd0565b604051908082528060200260200182016040528015610426578160200160208202803683370190505b50815260200160028a604051602001610440929190614304565b6040516020818303038152906040528152602001600015158152506040518563ffffffff1660e01b815260040161047a94939291906143b2565b600060405180830381600087803b15801561049457600080fd5b505af11580156104a8573d6000803e3d6000fd5b5050604080516080810182523080825260006020808401829052938301919091526060820152908401519092506104e291506001906143fa565b6001600160401b038111156104f9576104f9613dd0565b604051908082528060200260200182016040528015610522578160200160208202803683370190505b5092506000805b836020015181101561072c578351811461072457600084604001518281518110610555576105556142b4565b60200260200101516001600160a01b03166370a08231306040518263ffffffff1660e01b815260040161058891906142ca565b602060405180830381865afa1580156105a5573d6000803e3d6000fd5b505050506040513d601f19601f820116820180604052508101906105c99190614173565b90508015610717576106f889866040015184815181106105eb576105eb6142b4565b60200260200101516001600160a01b03166338fff2d06040518163ffffffff1660e01b8152600401602060405180830381865afa158015610630573d6000803e3d6000fd5b505050506040513d601f19601f820116820180604052508101906106549190614173565b8760400151858151811061066a5761066a6142b4565b602002602001015188604001518681518110610688576106886142b4565b60200260200101516001600160a01b0316634de046d56040518163ffffffff1660e01b8152600401602060405180830381865afa1580156106cd573d6000803e3d6000fd5b505050506040513d601f19601f820116820180604052508101906106f1919061440d565b8589612441565b86848151811061070a5761070a6142b4565b6020026020010181815250505b6107208361442a565b9250505b600101610529565b505050509392505050565b815181516060918291829190806001600160401b0381111561075b5761075b613dd0565b604051908082528060200260200182016040528015610784578160200160208202803683370190505b509450806001600160401b0381111561079f5761079f613dd0565b6040519080825280602002602001820160405280156107c8578160200160208202803683370190505b509350816001600160401b038111156107e3576107e3613dd0565b60405190808252806020026020018201604052801561080c578160200160208202803683370190505b50925060005b828110156108c55787818151811061082c5761082c6142b4565b60200260200101516001600160a01b03166370a08231306040518263ffffffff1660e01b815260040161085f91906142ca565b602060405180830381865afa15801561087c573d6000803e3d6000fd5b505050506040513d601f19601f820116820180604052508101906108a09190614173565b8482815181106108b2576108b26142b4565b6020908102919091010152600101610812565b5060005b818110156109c8578681815181106108e3576108e36142b4565b60200260200101518682815181106108fd576108fd6142b4565b60200260200101906001600160a01b031690816001600160a01b03168152505086818151811061092f5761092f6142b4565b60200260200101516001600160a01b03166370a08231306040518263ffffffff1660e01b815260040161096291906142ca565b602060405180830381865afa15801561097f573d6000803e3d6000fd5b505050506040513d601f19601f820116820180604052508101906109a39190614173565b8582815181106109b5576109b56142b4565b60209081029190910101526001016108c9565b50876001600160a01b031663e6f1daf26040518163ffffffff1660e01b8152600401600060405180830381600087803b158015610a0457600080fd5b505af1158015610a18573d6000803e3d6000fd5b5050505060005b81811015610af657848181518110610a3957610a396142b4565b6020026020010151878281518110610a5357610a536142b4565b60200260200101516001600160a01b03166370a08231306040518263ffffffff1660e01b8152600401610a8691906142ca565b602060405180830381865afa158015610aa3573d6000803e3d6000fd5b505050506040513d601f19601f82011682018060405250810190610ac79190614173565b610ad191906143fa565b858281518110610ae357610ae36142b4565b6020908102919091010152600101610a1f565b50610b018585612684565b909990985092965091945050505050565b60606000610b1e613d06565b604051631f29a8cd60e31b8152600481018690526001600160a01b0387169063f94d466890602401600060405180830381865afa158015610b63573d6000803e3d6000fd5b505050506040513d6000823e601f3d908101601f19168201604052610b8b91908101906141e7565b50606083015260408201819052516020820152610ba88560601c90565b6001600160a01b03166382687a566040518163ffffffff1660e01b8152600401602060405180830381865afa158015610be5573d6000803e3d6000fd5b505050506040513d601f19601f82011682018060405250810190610c099190614173565b808252604082015180519091908110610c2457610c246142b4565b60200260200101516001600160a01b03166370a08231306040518263ffffffff1660e01b8152600401610c5791906142ca565b602060405180830381865afa158015610c74573d6000803e3d6000fd5b505050506040513d601f19601f82011682018060405250810190610c989190614173565b91506000610caf8783604001518460000151612872565b9050610cca8583604001518460600151848660000151612b76565b6040805160808101825230808252600060208084018290529383019190915260608201819052918501519296509250906001600160401b03811115610d1157610d11613dd0565b604051908082528060200260200182016040528015610d3a578160200160208202803683370190505b509050600060018460200151610d5091906143fa565b6001600160401b03811115610d6757610d67613dd0565b604051908082528060200260200182016040528015610d90578160200160208202803683370190505b5090506000805b8560200151811015610f965785518114610f8e57610eeb8b87604001518381518110610dc557610dc56142b4565b60200260200101516001600160a01b03166338fff2d06040518163ffffffff1660e01b8152600401602060405180830381865afa158015610e0a573d6000803e3d6000fd5b505050506040513d601f19601f82011682018060405250810190610e2e9190614173565b88604001518481518110610e4457610e446142b4565b60200260200101516001600160a01b0316634de046d56040518163ffffffff1660e01b8152600401602060405180830381865afa158015610e89573d6000803e3d6000fd5b505050506040513d601f19601f82011682018060405250810190610ead919061440d565b89604001518581518110610ec357610ec36142b4565b60200260200101518c8781518110610edd57610edd6142b4565b60200260200101518a612441565b848281518110610efd57610efd6142b4565b602002602001018181525050838181518110610f1b57610f1b6142b4565b6020026020010151838381518110610f3557610f356142b4565b602002602001018181525050610f8286604001518281518110610f5a57610f5a6142b4565b6020026020010151858381518110610f7457610f746142b4565b60200260200101518d6130b8565b610f8b8261442a565b91505b600101610d97565b50896001600160a01b031663b95cac288a30306040518060800160405280610fbf8c6040015190565b81526020018981526020016001896000604051602001610fe193929190614443565b6040516020818303038152906040528152602001600015158152506040518563ffffffff1660e01b815260040161101b94939291906143b2565b600060405180830381600087803b15801561103557600080fd5b505af1158015611049573d6000803e3d6000fd5b505050604086015186518151600093508110611067576110676142b4565b60200260200101516001600160a01b03166370a08231306040518263ffffffff1660e01b815260040161109a91906142ca565b602060405180830381865afa1580156110b7573d6000803e3d6000fd5b505050506040513d601f19601f820116820180604052508101906110db9190614173565b90508681116110eb5760006110f5565b6110f587826143fa565b9650505050505050935093915050565b604051631f29a8cd60e31b8152600481018290526060906000906001600160a01b0385169063f94d466890602401600060405180830381865afa158015611150573d6000803e3d6000fd5b505050506040513d6000823e601f3d908101601f1916820160405261117891908101906141e7565b5050905060006111888460601c90565b6001600160a01b03166382687a566040518163ffffffff1660e01b8152600401602060405180830381865afa1580156111c5573d6000803e3d6000fd5b505050506040513d601f19601f820116820180604052508101906111e99190614173565b82519091506111f96001826143fa565b6001600160401b0381111561121057611210613dd0565b604051908082528060200260200182016040528015611239578160200160208202803683370190505b5093506000805b82811015611505578084146114fd576000858281518110611263576112636142b4565b602002602001015190506000896001600160a01b031663f94d4668836001600160a01b03166338fff2d06040518163ffffffff1660e01b8152600401602060405180830381865afa1580156112bc573d6000803e3d6000fd5b505050506040513d601f19601f820116820180604052508101906112e09190614173565b6040518263ffffffff1660e01b81526004016112fe91815260200190565b600060405180830381865afa15801561131b573d6000803e3d6000fd5b505050506040513d6000823e601f3d908101601f1916820160405261134391908101906141e7565b509150506000826001600160a01b0316634d64cd746040518163ffffffff1660e01b8152600401602060405180830381865afa158015611387573d6000803e3d6000fd5b505050506040513d601f19601f820116820180604052508101906113ab9190614173565b90506000836001600160a01b03166316b8d6ff6040518163ffffffff1660e01b8152600401602060405180830381865afa1580156113ed573d6000803e3d6000fd5b505050506040513d601f19601f820116820180604052508101906114119190614173565b9050670de0b6b3a7640000846001600160a01b031663f5431aa86040518163ffffffff1660e01b8152600401602060405180830381865afa15801561145a573d6000803e3d6000fd5b505050506040513d601f19601f8201168201806040525081019061147e9190614173565b848381518110611490576114906142b4565b60200260200101516114a29190614478565b6114ac919061448f565b8383815181106114be576114be6142b4565b60200260200101516114d091906144b1565b8a87815181106114e2576114e26142b4565b60209081029190910101526114f68661442a565b9550505050505b600101611240565b505050505092915050565b606061151a613d06565b6115248360601c90565b6001600160a01b03166382687a566040518163ffffffff1660e01b8152600401602060405180830381865afa158015611561573d6000803e3d6000fd5b505050506040513d601f19601f820116820180604052508101906115859190614173565b8152604051631f29a8cd60e31b8152600481018490526001600160a01b0385169063f94d466890602401600060405180830381865afa1580156115cc573d6000803e3d6000fd5b505050506040513d6000823e601f3d908101601f191682016040526115f491908101906141e7565b506060830152604082018190525160208201819052611615906001906143fa565b6001600160401b0381111561162c5761162c613dd0565b604051908082528060200260200182016040528015611655578160200160208202803683370190505b5060408051608081018252308082526000602083018190528284019190915260608201819052918401518451815194965091939091908110611699576116996142b4565b60200260200101516001600160a01b03166370a08231306040518263ffffffff1660e01b81526004016116cc91906142ca565b602060405180830381865afa1580156116e9573d6000803e3d6000fd5b505050506040513d601f19601f8201168201806040525081019061170d9190614173565b90508015611be957600060648460400151856000015181518110611733576117336142b4565b60200260200101516001600160a01b031663313ce5676040518163ffffffff1660e01b8152600401602060405180830381865afa158015611778573d6000803e3d6000fd5b505050506040513d601f19601f8201168201806040525081019061179c91906144c4565b6117a790600a6145cb565b6117b1919061448f565b905060005b60028110156119dd57876001600160a01b0316638bdb391388303060405180608001604052806117e78c6040015190565b81526020018b602001516001600160401b0381111561180857611808613dd0565b604051908082528060200260200182016040528015611831578160200160208202803683370190505b50815260200160028a60405160200161184b929190614304565b6040516020818303038152906040528152602001600015158152506040518563ffffffff1660e01b815260040161188594939291906143b2565b600060405180830381600087803b15801561189f57600080fd5b505af11580156118b3573d6000803e3d6000fd5b5050505084604001518560000151815181106118d1576118d16142b4565b60200260200101516001600160a01b03166370a08231306040518263ffffffff1660e01b815260040161190491906142ca565b602060405180830381865afa158015611921573d6000803e3d6000fd5b505050506040513d601f19601f820116820180604052508101906119459190614173565b9250818310806119555750806001145b6119dd57604051631f29a8cd60e31b8152600481018890526001600160a01b0389169063f94d466890602401600060405180830381865afa15801561199e573d6000803e3d6000fd5b505050506040513d6000823e601f3d908101601f191682016040526119c691908101906141e7565b506060870152506119d68161442a565b90506117b6565b506000805b8560200151811015611be55785518114611bdd57600086604001518281518110611a0e57611a0e6142b4565b60200260200101516001600160a01b03166370a08231306040518263ffffffff1660e01b8152600401611a4191906142ca565b602060405180830381865afa158015611a5e573d6000803e3d6000fd5b505050506040513d601f19601f82011682018060405250810190611a829190614173565b90508015611bd057611bb18a88604001518481518110611aa457611aa46142b4565b60200260200101516001600160a01b03166338fff2d06040518163ffffffff1660e01b8152600401602060405180830381865afa158015611ae9573d6000803e3d6000fd5b505050506040513d601f19601f82011682018060405250810190611b0d9190614173565b89604001518581518110611b2357611b236142b4565b60200260200101518a604001518681518110611b4157611b416142b4565b60200260200101516001600160a01b0316634de046d56040518163ffffffff1660e01b8152600401602060405180830381865afa158015611b86573d6000803e3d6000fd5b505050506040513d601f19601f82011682018060405250810190611baa919061440d565b858b612441565b888481518110611bc357611bc36142b4565b6020026020010181815250505b611bd98361442a565b9250505b6001016119e2565b5050505b60008360400151846000015181518110611c0557611c056142b4565b60200260200101516001600160a01b03166370a08231306040518263ffffffff1660e01b8152600401611c3891906142ca565b602060405180830381865afa158015611c55573d6000803e3d6000fd5b505050506040513d601f19601f82011682018060405250810190611c799190614173565b90508015611ce0576000805b8560200151811015611cdd5785518114611cd557611ca7898988888786613163565b878381518110611cb957611cb96142b4565b60200260200101818151611ccd91906144b1565b905250611cdd565b600101611c85565b50505b505050505b92915050565b604051631f29a8cd60e31b8152600481018290526060906000906001600160a01b0385169063f94d466890602401600060405180830381865afa158015611d36573d6000803e3d6000fd5b505050506040513d6000823e601f3d908101601f19168201604052611d5e91908101906141e7565b505090506000611d6e8460601c90565b6001600160a01b03166382687a566040518163ffffffff1660e01b8152600401602060405180830381865afa158015611dab573d6000803e3d6000fd5b505050506040513d601f19601f82011682018060405250810190611dcf9190614173565b8251909150611ddf6001826143fa565b6001600160401b03811115611df657611df6613dd0565b604051908082528060200260200182016040528015611e1f578160200160208202803683370190505b5093506000805b8281101561150557808414611ee657848181518110611e4757611e476142b4565b60200260200101516001600160a01b0316634de046d56040518163ffffffff1660e01b8152600401602060405180830381865afa158015611e8c573d6000803e3d6000fd5b505050506040513d601f19601f82011682018060405250810190611eb0919061440d565b868381518110611ec257611ec26142b4565b6001600160a01b0390921660209283029190910190910152611ee38261442a565b91505b600101611e26565b6060816001600160a01b03166395d89b416040518163ffffffff1660e01b8152600401600060405180830381865afa158015611f2e573d6000803e3d6000fd5b505050506040513d6000823e601f3d908101601f19168201604052611f5691908101906145da565b604051602001611f66919061466d565b6040516020818303038152906040529050919050565b60606000806000856001600160a01b031663f94d4668866040518263ffffffff1660e01b8152600401611fb191815260200190565b600060405180830381865afa158015611fce573d6000803e3d6000fd5b505050506040513d6000823e601f3d908101601f19168201604052611ff691908101906141e7565b5081519193509150600061200a8760601c90565b6001600160a01b03166382687a566040518163ffffffff1660e01b8152600401602060405180830381865afa158015612047573d6000803e3d6000fd5b505050506040513d601f19601f8201168201806040525081019061206b9190614173565b90506120786001836143fa565b6001600160401b0381111561208f5761208f613dd0565b6040519080825280602002602001820160405280156120b8578160200160208202803683370190505b5095506000805b8381101561213b57828114612133578481815181106120e0576120e06142b4565b6020026020010151876120f391906144b1565b9650848181518110612107576121076142b4565b6020026020010151888381518110612121576121216142b4565b60209081029190910101526001820191505b6001016120bf565b5050505050509250929050565b6060612152613d06565b61215c8460601c90565b6001600160a01b03166382687a566040518163ffffffff1660e01b8152600401602060405180830381865afa158015612199573d6000803e3d6000fd5b505050506040513d601f19601f820116820180604052508101906121bd9190614173565b8152604051631f29a8cd60e31b8152600481018590526001600160a01b0387169063f94d466890602401600060405180830381865afa158015612204573d6000803e3d6000fd5b505050506040513d6000823e601f3d908101601f1916820160405261222c91908101906141e7565b50606083015260408083018281529151602084015280516080810190915290516000916001600160a01b0388169163c7b2c52c918891309182918190815260200188602001516001600160401b0381111561228957612289613dd0565b6040519080825280602002602001820160405280156122b2578160200160208202803683370190505b50815260200160028b6040516020016122cc929190614304565b6040516020818303038152906040528152602001600015158152506040518563ffffffff1660e01b815260040161230694939291906143b2565b6000604051808303816000875af1158015612325573d6000803e3d6000fd5b505050506040513d6000823e601f3d908101601f1916820160405261234d919081019061469e565b91505060006001836020015161236391906143fa565b6001600160401b0381111561237a5761237a613dd0565b6040519080825280602002602001820160405280156123a3578160200160208202803683370190505b50935060005b8360200151811015612435578351811461242d576000846040015182815181106123d5576123d56142b4565b602002602001015190506124038a828685815181106123f6576123f66142b4565b60200260200101516132db565b868481518110612415576124156142b4565b60209081029190910101526124298361442a565b9250505b6001016123a9565b50505050949350505050565b600080846001600160a01b03166370a08231306040518263ffffffff1660e01b815260040161247091906142ca565b602060405180830381865afa15801561248d573d6000803e3d6000fd5b505050506040513d601f19601f820116820180604052508101906124b19190614173565b60405163095ea7b360e01b81526001600160a01b038a81166004830152602482018790529192509087169063095ea7b3906044016020604051808303816000875af1158015612504573d6000803e3d6000fd5b505050506040513d601f19601f8201168201806040525081019061252891906146e4565b50876001600160a01b03166352bbbe296040518060c001604052808a81526020016000600181111561255c5761255c6142de565b8152602001896001600160a01b03168152602001886001600160a01b0316815260200187815260200160405180602001604052806000815250815250856001426040518563ffffffff1660e01b81526004016125bb9493929190614706565b6020604051808303816000875af11580156125da573d6000803e3d6000fd5b505050506040513d601f19601f820116820180604052508101906125fe9190614173565b506040516370a0823160e01b815281906001600160a01b038716906370a082319061262d9030906004016142ca565b602060405180830381865afa15801561264a573d6000803e3d6000fd5b505050506040513d601f19601f8201168201806040525081019061266e9190614173565b61267891906143fa565b98975050505050505050565b60608082518451146040518060400160405280600d81526020016c54532d3139206c656e6774687360981b815250906126d05760405162461bcd60e51b81526004016103aa919061411a565b508351600090815b81811015612721578581815181106126f2576126f26142b4565b602002602001015160001461270f578261270b8161442a565b9350505b806127198161442a565b9150506126d8565b50816001600160401b0381111561273a5761273a613dd0565b604051908082528060200260200182016040528015612763578160200160208202803683370190505b509350816001600160401b0381111561277e5761277e613dd0565b6040519080825280602002602001820160405280156127a7578160200160208202803683370190505b5092506000805b828110156128675760008782815181106127ca576127ca6142b4565b6020026020010151905080600014612854578882815181106127ee576127ee6142b4565b6020026020010151878481518110612808576128086142b4565b60200260200101906001600160a01b031690816001600160a01b0316815250508086848151811061283b5761283b6142b4565b6020908102919091010152826128508161442a565b9350505b508061285f8161442a565b9150506127ae565b505050509250929050565b8151606090806001600160401b0381111561288f5761288f613dd0565b6040519080825280602002602001820160405280156128b8578160200160208202803683370190505b50915060005b81811015612b6d57838114612b655760008582815181106128e1576128e16142b4565b602002602001015190506000876001600160a01b031663f94d4668836001600160a01b03166338fff2d06040518163ffffffff1660e01b8152600401602060405180830381865afa15801561293a573d6000803e3d6000fd5b505050506040513d601f19601f8201168201806040525081019061295e9190614173565b6040518263ffffffff1660e01b815260040161297c91815260200190565b600060405180830381865afa158015612999573d6000803e3d6000fd5b505050506040513d6000823e601f3d908101601f191682016040526129c191908101906141e7565b50915050670de0b6b3a7640000826001600160a01b031663f5431aa86040518163ffffffff1660e01b8152600401602060405180830381865afa158015612a0c573d6000803e3d6000fd5b505050506040513d601f19601f82011682018060405250810190612a309190614173565b82846001600160a01b03166316b8d6ff6040518163ffffffff1660e01b8152600401602060405180830381865afa158015612a6f573d6000803e3d6000fd5b505050506040513d601f19601f82011682018060405250810190612a939190614173565b81518110612aa357612aa36142b4565b6020026020010151612ab59190614478565b612abf919061448f565b81836001600160a01b0316634d64cd746040518163ffffffff1660e01b8152600401602060405180830381865afa158015612afe573d6000803e3d6000fd5b505050506040513d601f19601f82011682018060405250810190612b229190614173565b81518110612b3257612b326142b4565b6020026020010151612b4491906144b1565b858481518110612b5657612b566142b4565b60200260200101818152505050505b6001016128be565b50509392505050565b60408051606081810183528082526000602083015291810182905285516020808301829052865160408051808201909152601281527154532d342077726f6e67206c656e6774687360701b92810192909252909114612be85760405162461bcd60e51b81526004016103aa919061411a565b50865181602001511480612c0c5750865160018260200151612c0a91906143fa565b145b6040518060400160405280601281526020017154532d342077726f6e67206c656e6774687360701b81525090612c555760405162461bcd60e51b81526004016103aa919061411a565b5080602001516001600160401b03811115612c7257612c72613dd0565b604051908082528060200260200182016040528015612c9b578160200160208202803683370190505b50815260208101516001600160401b03811115612cba57612cba613dd0565b604051908082528060200260200182016040528015612ce3578160200160208202803683370190505b50604082015260005b8160200151811015612e8857838114612e8057858181518110612d1157612d116142b4565b6020026020010151600014156040518060400160405280601181526020017054532d35207a65726f2062616c616e636560781b81525090612d655760405162461bcd60e51b81526004016103aa919061411a565b50868181518110612d7857612d786142b4565b60200260200101516001600160a01b031663313ce5676040518163ffffffff1660e01b8152600401602060405180830381865afa158015612dbd573d6000803e3d6000fd5b505050506040513d601f19601f82011682018060405250810190612de191906144c4565b612dec90600a6145cb565b8251805183908110612e0057612e006142b4565b602002602001018181525050848181518110612e1e57612e1e6142b4565b6020026020010151868281518110612e3857612e386142b4565b6020026020010151670de0b6b3a7640000612e539190614478565b612e5d919061448f565b82604001518281518110612e7357612e736142b4565b6020026020010181815250505b600101612cec565b5060018160200151612e9a91906143fa565b6001600160401b03811115612eb157612eb1613dd0565b604051908082528060200260200182016040528015612eda578160200160208202803683370190505b5091506000805b82602001518110156130ac578481146130a457600083604001518281518110612f0c57612f0c6142b4565b60200260200101518a8481518110612f2657612f266142b4565b6020026020010151612f389190614478565b90506000805b856020015182101561308057878214613075578551805185908110612f6557612f656142b4565b60200260200101518a8581518110612f7f57612f7f6142b4565b602002602001015187600001518481518110612f9d57612f9d6142b4565b602002602001015188604001518581518110612fbb57612fbb6142b4565b60200260200101518d8681518110612fd557612fd56142b4565b602002602001015187612fe89190614478565b612ff2919061448f565b612ffc9190614478565b613006919061448f565b613010919061448f565b878281518110613022576130226142b4565b6020026020010181815250508b8181518110613040576130406142b4565b602002602001015187828151811061305a5761305a6142b4565b60200260200101511161308057806130718161442a565b9150505b600182019150612f3e565b85602001518203613093575050506130ac565b8461309d8161442a565b9550505050505b600101612ee1565b50505095945050505050565b604051636eb1769f60e11b81523060048201526001600160a01b03828116602483015283919085169063dd62ed3e90604401602060405180830381865afa158015613107573d6000803e3d6000fd5b505050506040513d601f19601f8201168201806040525081019061312b9190614173565b101561315e576131466001600160a01b03841682600061378f565b61315e6001600160a01b03841682600160ff1b61378f565b505050565b6000806131b288888860400151896000015181518110613185576131856142b4565b6020026020010151896040015187815181106131a3576131a36142b4565b6020026020010151888a612441565b905061267888876040015185815181106131ce576131ce6142b4565b60200260200101516001600160a01b03166338fff2d06040518163ffffffff1660e01b8152600401602060405180830381865afa158015613213573d6000803e3d6000fd5b505050506040513d601f19601f820116820180604052508101906132379190614173565b8860400151868151811061324d5761324d6142b4565b60200260200101518960400151878151811061326b5761326b6142b4565b60200260200101516001600160a01b0316634de046d56040518163ffffffff1660e01b8152600401602060405180830381865afa1580156132b0573d6000803e3d6000fd5b505050506040513d601f19601f820116820180604052508101906132d4919061440d565b858a612441565b6000806000846001600160a01b03166363fe3b566040518163ffffffff1660e01b81526004016040805180830381865afa15801561331d573d6000803e3d6000fd5b505050506040513d601f19601f8201168201806040525081019061334191906147c8565b9150915060006040518060600160405280876001600160a01b03166355c676286040518163ffffffff1660e01b8152600401602060405180830381865afa158015613390573d6000803e3d6000fd5b505050506040513d601f19601f820116820180604052508101906133b49190614173565b81526020018481526020018381525090506000876001600160a01b031663f94d4668886001600160a01b03166338fff2d06040518163ffffffff1660e01b8152600401602060405180830381865afa158015613414573d6000803e3d6000fd5b505050506040513d601f19601f820116820180604052508101906134389190614173565b6040518263ffffffff1660e01b815260040161345691815260200190565b600060405180830381865afa158015613473573d6000803e3d6000fd5b505050506040513d6000823e601f3d908101601f1916820160405261349b91908101906141e7565b509150506000876001600160a01b0316631dd746ea6040518163ffffffff1660e01b8152600401600060405180830381865afa1580156134df573d6000803e3d6000fd5b505050506040513d6000823e601f3d908101601f1916820160405261350791908101906147ec565b905061351382826138c6565b670de0b6b3a76400008160008151811061352f5761352f6142b4565b6020026020010151613541919061448f565b61354b9088614478565b96506000886001600160a01b0316634d64cd746040518163ffffffff1660e01b8152600401602060405180830381865afa15801561358d573d6000803e3d6000fd5b505050506040513d601f19601f820116820180604052508101906135b19190614173565b905060008382815181106135c7576135c76142b4565b602002602001015190506000846000815181106135e6576135e66142b4565b60200260200101518b6001600160a01b03166318160ddd6040518163ffffffff1660e01b8152600401602060405180830381865afa15801561362c573d6000803e3d6000fd5b505050506040513d601f19601f820116820180604052508101906136509190614173565b61365a91906143fa565b905060006136688388613957565b90506000868d6001600160a01b03166316b8d6ff6040518163ffffffff1660e01b8152600401602060405180830381865afa1580156136ab573d6000803e3d6000fd5b505050506040513d601f19601f820116820180604052508101906136cf9190614173565b815181106136df576136df6142b4565b6020026020010151826136f291906144b1565b90506000836137018e84614478565b61370b919061448f565b9050600081841161371d576000613727565b61372782856143fa565b90506000613735828c6139dd565b9050888881518110613749576137496142b4565b6020026020010151818861375d91906143fa565b61376f90670de0b6b3a7640000614478565b613779919061448f565b9d50505050505050505050505050509392505050565b8015806138095750604051636eb1769f60e11b81523060048201526001600160a01b03838116602483015284169063dd62ed3e90604401602060405180830381865afa1580156137e3573d6000803e3d6000fd5b505050506040513d601f19601f820116820180604052508101906138079190614173565b155b6138745760405162461bcd60e51b815260206004820152603660248201527f5361666545524332303a20617070726f76652066726f6d206e6f6e2d7a65726f60448201527520746f206e6f6e2d7a65726f20616c6c6f77616e636560501b60648201526084016103aa565b604080516001600160a01b038416602482015260448082018490528251808303909101815260649091019091526020810180516001600160e01b031663095ea7b360e01b17905261315e908490613aa4565b815160005b8181101561395157670de0b6b3a76400008382815181106138ee576138ee6142b4565b6020026020010151858381518110613908576139086142b4565b602002602001015161391a9190614478565b613924919061448f565b848281518110613936576139366142b4565b602090810291909101015261394a8161442a565b90506138cb565b50505050565b600081602001518310156139ad576000670de0b6b3a7640000836000015185856020015161398591906143fa565b61398f9190614478565b613999919061448f565b90506139a581856143fa565b915050611ce5565b816040015183116139bf575081611ce5565b81516040830151600091670de0b6b3a76400009161398590876143fa565b60008160200151831015613a505781516139ff90670de0b6b3a76400006144b1565b60208301518351670de0b6b3a764000091613a1991614478565b613a23919061448f565b613a2d90856144b1565b613a3f90670de0b6b3a7640000614478565b613a49919061448f565b9050611ce5565b81604001518311613a62575081611ce5565b8151613a7690670de0b6b3a76400006143fa565b60408301518351670de0b6b3a764000091613a9091614478565b613a9a919061448f565b613a2d90856143fa565b6000613af9826040518060400160405280602081526020017f5361666545524332303a206c6f772d6c6576656c2063616c6c206661696c6564815250856001600160a01b0316613b769092919063ffffffff16565b80519091501561315e5780806020019051810190613b1791906146e4565b61315e5760405162461bcd60e51b815260206004820152602a60248201527f5361666545524332303a204552433230206f7065726174696f6e20646964206e6044820152691bdd081cdd58d8d9595960b21b60648201526084016103aa565b6060613b858484600085613b8d565b949350505050565b606082471015613bee5760405162461bcd60e51b815260206004820152602660248201527f416464726573733a20696e73756666696369656e742062616c616e636520666f6044820152651c8818d85b1b60d21b60648201526084016103aa565b600080866001600160a01b03168587604051613c0a9190614820565b60006040518083038185875af1925050503d8060008114613c47576040519150601f19603f3d011682016040523d82523d6000602084013e613c4c565b606091505b5091509150613c5d87838387613c68565b979650505050505050565b60608315613cd7578251600003613cd0576001600160a01b0385163b613cd05760405162461bcd60e51b815260206004820152601d60248201527f416464726573733a2063616c6c20746f206e6f6e2d636f6e747261637400000060448201526064016103aa565b5081613b85565b613b858383815115613cec5781518083602001fd5b8060405162461bcd60e51b81526004016103aa919061411a565b6040518060800160405280600081526020016000815260200160608152602001606081525090565b6001600160a01b0381168114613d4357600080fd5b50565b600080600060608486031215613d5b57600080fd5b8335613d6681613d2e565b95602085013595506040909401359392505050565b600081518084526020808501945080840160005b83811015613dab57815187529582019590820190600101613d8f565b509495945050505050565b602081526000613dc96020830184613d7b565b9392505050565b634e487b7160e01b600052604160045260246000fd5b604051601f8201601f191681016001600160401b0381118282101715613e0e57613e0e613dd0565b604052919050565b60006001600160401b03821115613e2f57613e2f613dd0565b5060051b60200190565b600082601f830112613e4a57600080fd5b81356020613e5f613e5a83613e16565b613de6565b82815260059290921b84018101918181019086841115613e7e57600080fd5b8286015b84811015613ea2578035613e9581613d2e565b8352918301918301613e82565b509695505050505050565b600080600060608486031215613ec257600080fd5b8335613ecd81613d2e565b925060208401356001600160401b0380821115613ee957600080fd5b613ef587838801613e39565b93506040860135915080821115613f0b57600080fd5b50613f1886828701613e39565b9150509250925092565b600081518084526020808501945080840160005b83811015613dab5781516001600160a01b031687529582019590820190600101613f36565b606081526000613f6e6060830186613f22565b8281036020840152613f808186613d7b565b90508281036040840152613f948185613d7b565b9695505050505050565b600080600060608486031215613fb357600080fd5b8335613fbe81613d2e565b9250602084810135925060408501356001600160401b03811115613fe157600080fd5b8501601f81018713613ff257600080fd5b8035614000613e5a82613e16565b81815260059190911b8201830190838101908983111561401f57600080fd5b928401925b8284101561403d57833582529284019290840190614024565b80955050505050509250925092565b60408152600061405f6040830185613d7b565b90508260208301529392505050565b6000806040838503121561408157600080fd5b823561408c81613d2e565b946020939093013593505050565b602081526000613dc96020830184613f22565b6000602082840312156140bf57600080fd5b8135613dc981613d2e565b60005b838110156140e55781810151838201526020016140cd565b50506000910152565b600081518084526141068160208601602086016140ca565b601f01601f19169290920160200192915050565b602081526000613dc960208301846140ee565b6000806000806080858703121561414357600080fd5b843561414e81613d2e565b9350602085013561415e81613d2e565b93969395505050506040820135916060013590565b60006020828403121561418557600080fd5b5051919050565b600082601f83011261419d57600080fd5b815160206141ad613e5a83613e16565b82815260059290921b840181019181810190868411156141cc57600080fd5b8286015b84811015613ea257805183529183019183016141d0565b6000806000606084860312156141fc57600080fd5b83516001600160401b038082111561421357600080fd5b818601915086601f83011261422757600080fd5b81516020614237613e5a83613e16565b82815260059290921b8401810191818101908a84111561425657600080fd5b948201945b8386101561427d57855161426e81613d2e565b8252948201949082019061425b565b9189015191975090935050508082111561429657600080fd5b506142a38682870161418c565b925050604084015190509250925092565b634e487b7160e01b600052603260045260246000fd5b6001600160a01b0391909116815260200190565b634e487b7160e01b600052602160045260246000fd5b60038110613d4357613d436142de565b60408101614311846142f4565b9281526020015290565b8051608080845281519084018190526000916020919082019060a0860190845b818110156143605783516001600160a01b03168352928401929184019160010161433b565b5050828501519150858103838701526143798183613d7b565b925050506040830151848203604086015261439482826140ee565b91505060608301516143aa606086018215159052565b509392505050565b8481526001600160a01b03848116602083015283166040820152608060608201819052600090613f949083018461431b565b634e487b7160e01b600052601160045260246000fd5b81810381811115611ce557611ce56143e4565b60006020828403121561441f57600080fd5b8151613dc981613d2e565b60006001820161443c5761443c6143e4565b5060010190565b61444c846142f4565b8381526060602082015260006144656060830185613d7b565b905060ff83166040830152949350505050565b8082028115828204841417611ce557611ce56143e4565b6000826144ac57634e487b7160e01b600052601260045260246000fd5b500490565b80820180821115611ce557611ce56143e4565b6000602082840312156144d657600080fd5b815160ff81168114613dc957600080fd5b600181815b80851115614522578160001904821115614508576145086143e4565b8085161561451557918102915b93841c93908002906144ec565b509250929050565b60008261453957506001611ce5565b8161454657506000611ce5565b816001811461455c576002811461456657614582565b6001915050611ce5565b60ff841115614577576145776143e4565b50506001821b611ce5565b5060208310610133831016604e8410600b84101617156145a5575081810a611ce5565b6145af83836144e7565b80600019048211156145c3576145c36143e4565b029392505050565b6000613dc960ff84168361452a565b6000602082840312156145ec57600080fd5b81516001600160401b038082111561460357600080fd5b818401915084601f83011261461757600080fd5b81518181111561462957614629613dd0565b61463c601f8201601f1916602001613de6565b915080825285602082850101111561465357600080fd5b6146648160208401602086016140ca565b50949350505050565b6802130b630b731b2b9160bd1b8152600082516146918160098501602087016140ca565b9190910160090192915050565b600080604083850312156146b157600080fd5b8251915060208301516001600160401b038111156146ce57600080fd5b6146da8582860161418c565b9150509250929050565b6000602082840312156146f657600080fd5b81518015158114613dc957600080fd5b60e08152845160e08201526000602086015160028110614728576147286142de565b61010083015260408601516001600160a01b03908116610120840152606087015116610140830152608086015161016083015260a086015160c06101808401526147766101a08401826140ee565b9150506147b6602083018680516001600160a01b039081168352602080830151151590840152604080830151909116908301526060908101511515910152565b60a082019390935260c0015292915050565b600080604083850312156147db57600080fd5b505080516020909101519092909150565b6000602082840312156147fe57600080fd5b81516001600160401b0381111561481457600080fd5b613b858482850161418c565b600082516148328184602087016140ca565b919091019291505056fea2646970667358221220c309359169e080a9783bc0cd833b9a5b2816060b466411aecb4dd6a5a967b9cb64736f6c63430008110033",
  "devdoc": {
    "details": "Many of functions are declared as external to reduce contract size",
    "kind": "dev",
    "methods": {
      "depositorEnter(IBVault,bytes32,uint256[])": {
        "params": {
          "amountsDesired_": "Amounts of assets on the balance of the depositor         The order of assets is the same as in getPoolTokens, but there is no pool-bpt         i.e. for \"Balancer Boosted Aave USD\" we have DAI, USDC, USDT"
        },
        "returns": {
          "amountsConsumedOut": "Amounts of assets deposited to balanceR pool         The order of assets is the same as in getPoolTokens, but there is no pool-bpt",
          "liquidityOut": "Total amount of liquidity added to balanceR pool in terms of pool-bpt tokens"
        }
      },
      "depositorExit(IBVault,bytes32,uint256)": {
        "params": {
          "liquidityAmount_": "Amount to withdraw in bpt"
        },
        "returns": {
          "amountsOut": "Result amounts of underlying (DAI, USDC..) that will be received from BalanceR         The order of assets is the same as in getPoolTokens, but there is no pool-bpt"
        }
      },
      "depositorExitFull(IBVault,bytes32)": {
        "details": "We make at most N attempts to withdraw (not more, each attempt takes a lot of gas).      Each attempt reduces available balance at ~1e4 times.",
        "returns": {
          "amountsOut": "Result amounts of underlying (DAI, USDC..) that will be received from BalanceR                    The order of assets is the same as in getPoolTokens, but there is no pool-bpt"
        }
      },
      "depositorPoolReserves(IBVault,bytes32)": {
        "returns": {
          "reservesOut": "Total amounts of embedded assets, i.e. for \"Balancer Boosted Tetu USD\" we return:                     0: balance USDT + (tUSDT recalculated to USDT)                     1: balance USDC + (tUSDC recalculated to USDC)                     2: balance DAI + (balance tDAI recalculated to DAI)"
        }
      },
      "depositorPoolWeights(IBVault,bytes32)": {
        "returns": {
          "totalWeight": "Total sum of all items of {weights}",
          "weights": "Array with weights, length = getPoolTokens.tokens - 1 (all assets except BPT)"
        }
      },
      "depositorQuoteExit(IBVault,IBalancerHelper,bytes32,uint256)": {
        "returns": {
          "amountsOut": "Result amounts of underlying (DAI, USDC..) that will be received from BalanceR         The order of assets is the same as in getPoolTokens, but there is no pool-bpt"
        }
      }
    },
    "version": 1
  },
  "userdoc": {
    "kind": "user",
    "methods": {
      "createSpecificName(address)": {
        "notice": "Utils"
      },
      "depositorClaimRewards(IBalancerGauge,address[],address[])": {
        "notice": "Rewards"
      },
      "depositorEnter(IBVault,bytes32,uint256[])": {
        "notice": "Deposit given amount to the pool."
      },
      "depositorExit(IBVault,bytes32,uint256)": {
        "notice": "Withdraw given amount of LP-tokens from the pool."
      },
      "depositorExitFull(IBVault,bytes32)": {
        "notice": "Withdraw all available amount of LP-tokens from the pool         BalanceR doesn't allow to withdraw exact amount, so it's allowed to leave dust amount on the balance"
      },
      "depositorPoolAssets(IBVault,bytes32)": {
        "notice": "Returns pool assets, same as getPoolTokens but without pool-bpt"
      },
      "depositorPoolReserves(IBVault,bytes32)": {
        "notice": "Total amounts of the main assets under control of the pool, i.e amounts of USDT, USDC, DAI"
      },
      "depositorPoolWeights(IBVault,bytes32)": {
        "notice": "Returns pool weights"
      },
      "depositorQuoteExit(IBVault,IBalancerHelper,bytes32,uint256)": {
        "notice": "Quotes output for given amount of LP-tokens from the pool."
      }
    },
    "notice": "Functions of BalancerBoostedDepositor",
    "version": 1
  },
  "storageLayout": {
    "storage": [],
    "types": null
  }
}