{
  "address": "0x9AA5a4e6245b57885984334c3C3007A02dAb5434",
  "abi": [
    {
      "anonymous": false,
      "inputs": [
        {
          "indexed": false,
          "internalType": "address",
          "name": "controller",
          "type": "address"
        },
        {
          "indexed": false,
          "internalType": "uint256",
          "name": "ts",
          "type": "uint256"
        },
        {
          "indexed": false,
          "internalType": "uint256",
          "name": "block",
          "type": "uint256"
        }
      ],
      "name": "ContractInitialized",
      "type": "event"
    },
    {
      "anonymous": false,
      "inputs": [
        {
          "indexed": false,
          "internalType": "uint8",
          "name": "version",
          "type": "uint8"
        }
      ],
      "name": "Initialized",
      "type": "event"
    },
    {
      "anonymous": false,
      "inputs": [
        {
          "indexed": false,
          "internalType": "uint256[]",
          "name": "withdrawnAmounts",
          "type": "uint256[]"
        }
      ],
      "name": "OnDepositorEmergencyExit",
      "type": "event"
    },
    {
      "anonymous": false,
      "inputs": [
        {
          "indexed": false,
          "internalType": "uint256[]",
          "name": "amounts",
          "type": "uint256[]"
        },
        {
          "indexed": false,
          "internalType": "uint256[]",
          "name": "consumedAmounts",
          "type": "uint256[]"
        }
      ],
      "name": "OnDepositorEnter",
      "type": "event"
    },
    {
      "anonymous": false,
      "inputs": [
        {
          "indexed": false,
          "internalType": "uint256",
          "name": "liquidityAmount",
          "type": "uint256"
        },
        {
          "indexed": false,
          "internalType": "uint256[]",
          "name": "withdrawnAmounts",
          "type": "uint256[]"
        }
      ],
      "name": "OnDepositorExit",
      "type": "event"
    },
    {
      "anonymous": false,
      "inputs": [
        {
          "indexed": false,
          "internalType": "uint256",
          "name": "investedAssetsNewPrices",
          "type": "uint256"
        },
        {
          "indexed": false,
          "internalType": "uint256",
          "name": "earnedByPrices",
          "type": "uint256"
        },
        {
          "indexed": false,
          "internalType": "uint256",
          "name": "earnedHandleRewards",
          "type": "uint256"
        },
        {
          "indexed": false,
          "internalType": "uint256",
          "name": "lostHandleRewards",
          "type": "uint256"
        },
        {
          "indexed": false,
          "internalType": "uint256",
          "name": "earnedDeposit",
          "type": "uint256"
        },
        {
          "indexed": false,
          "internalType": "uint256",
          "name": "lostDeposit",
          "type": "uint256"
        }
      ],
      "name": "OnHardWorkEarnedLost",
      "type": "event"
    },
    {
      "anonymous": false,
      "inputs": [
        {
          "indexed": false,
          "internalType": "address[]",
          "name": "rewardTokens",
          "type": "address[]"
        },
        {
          "indexed": false,
          "internalType": "uint256[]",
          "name": "amountsToForward",
          "type": "uint256[]"
        },
        {
          "indexed": false,
          "internalType": "uint256",
          "name": "toPerf",
          "type": "uint256"
        },
        {
          "indexed": false,
          "internalType": "uint256",
          "name": "toInsurance",
          "type": "uint256"
        }
      ],
      "name": "Recycle",
      "type": "event"
    },
    {
      "anonymous": false,
      "inputs": [
        {
          "indexed": false,
          "internalType": "uint256",
          "name": "value",
          "type": "uint256"
        },
        {
          "indexed": false,
          "internalType": "address",
          "name": "oldLogic",
          "type": "address"
        }
      ],
      "name": "RevisionIncreased",
      "type": "event"
    },
    {
      "inputs": [],
      "name": "BALANCER_BOOSTED_DEPOSITOR_VERSION",
      "outputs": [
        {
          "internalType": "string",
          "name": "",
          "type": "string"
        }
      ],
      "stateMutability": "view",
      "type": "function"
    },
    {
      "inputs": [],
      "name": "CONTROLLABLE_VERSION",
      "outputs": [
        {
          "internalType": "string",
          "name": "",
          "type": "string"
        }
      ],
      "stateMutability": "view",
      "type": "function"
    },
    {
      "inputs": [],
      "name": "CONVERTER_STRATEGY_BASE_VERSION",
      "outputs": [
        {
          "internalType": "string",
          "name": "",
          "type": "string"
        }
      ],
      "stateMutability": "view",
      "type": "function"
    },
    {
      "inputs": [],
      "name": "NAME",
      "outputs": [
        {
          "internalType": "string",
          "name": "",
          "type": "string"
        }
      ],
      "stateMutability": "view",
      "type": "function"
    },
    {
      "inputs": [],
      "name": "PLATFORM",
      "outputs": [
        {
          "internalType": "string",
          "name": "",
          "type": "string"
        }
      ],
      "stateMutability": "view",
      "type": "function"
    },
    {
      "inputs": [],
      "name": "STRATEGY_BASE_VERSION",
      "outputs": [
        {
          "internalType": "string",
          "name": "",
          "type": "string"
        }
      ],
      "stateMutability": "view",
      "type": "function"
    },
    {
      "inputs": [],
      "name": "STRATEGY_VERSION",
      "outputs": [
        {
          "internalType": "string",
          "name": "",
          "type": "string"
        }
      ],
      "stateMutability": "view",
      "type": "function"
    },
    {
      "inputs": [],
      "name": "asset",
      "outputs": [
        {
          "internalType": "address",
          "name": "",
          "type": "address"
        }
      ],
      "stateMutability": "view",
      "type": "function"
    },
    {
      "inputs": [],
      "name": "calcInvestedAssets",
      "outputs": [
        {
          "internalType": "uint256",
          "name": "",
          "type": "uint256"
        }
      ],
      "stateMutability": "nonpayable",
      "type": "function"
    },
    {
      "inputs": [],
      "name": "capacity",
      "outputs": [
        {
          "internalType": "uint256",
          "name": "",
          "type": "uint256"
        }
      ],
      "stateMutability": "view",
      "type": "function"
    },
    {
      "inputs": [],
      "name": "claim",
      "outputs": [],
      "stateMutability": "nonpayable",
      "type": "function"
    },
    {
      "inputs": [],
      "name": "compoundRatio",
      "outputs": [
        {
          "internalType": "uint256",
          "name": "",
          "type": "uint256"
        }
      ],
      "stateMutability": "view",
      "type": "function"
    },
    {
      "inputs": [],
      "name": "controller",
      "outputs": [
        {
          "internalType": "address",
          "name": "",
          "type": "address"
        }
      ],
      "stateMutability": "view",
      "type": "function"
    },
    {
      "inputs": [],
      "name": "converter",
      "outputs": [
        {
          "internalType": "contract ITetuConverter",
          "name": "",
          "type": "address"
        }
      ],
      "stateMutability": "view",
      "type": "function"
    },
    {
      "inputs": [],
      "name": "created",
      "outputs": [
        {
          "internalType": "uint256",
          "name": "",
          "type": "uint256"
        }
      ],
      "stateMutability": "view",
      "type": "function"
    },
    {
      "inputs": [],
      "name": "createdBlock",
      "outputs": [
        {
          "internalType": "uint256",
          "name": "",
          "type": "uint256"
        }
      ],
      "stateMutability": "view",
      "type": "function"
    },
    {
      "inputs": [],
      "name": "doHardWork",
      "outputs": [
        {
          "internalType": "uint256",
          "name": "earned",
          "type": "uint256"
        },
        {
          "internalType": "uint256",
          "name": "lost",
          "type": "uint256"
        }
      ],
      "stateMutability": "nonpayable",
      "type": "function"
    },
    {
      "inputs": [],
      "name": "emergencyExit",
      "outputs": [],
      "stateMutability": "nonpayable",
      "type": "function"
    },
    {
      "inputs": [],
      "name": "gauge",
      "outputs": [
        {
          "internalType": "contract IBalancerGauge",
          "name": "",
          "type": "address"
        }
      ],
      "stateMutability": "view",
      "type": "function"
    },
    {
      "inputs": [
        {
          "internalType": "address",
          "name": "oldLogic",
          "type": "address"
        }
      ],
      "name": "increaseRevision",
      "outputs": [],
      "stateMutability": "nonpayable",
      "type": "function"
    },
    {
      "inputs": [
        {
          "internalType": "address",
          "name": "controller_",
          "type": "address"
        },
        {
          "internalType": "address",
          "name": "splitter_",
          "type": "address"
        },
        {
          "internalType": "address",
          "name": "converter_",
          "type": "address"
        },
        {
          "internalType": "address",
          "name": "pool_",
          "type": "address"
        }
      ],
      "name": "init",
      "outputs": [],
      "stateMutability": "nonpayable",
      "type": "function"
    },
    {
      "inputs": [
        {
          "internalType": "uint256",
          "name": "",
          "type": "uint256"
        },
        {
          "internalType": "bool",
          "name": "updateTotalAssetsBeforeInvest_",
          "type": "bool"
        }
      ],
      "name": "investAll",
      "outputs": [
        {
          "internalType": "uint256",
          "name": "strategyLoss",
          "type": "uint256"
        }
      ],
      "stateMutability": "nonpayable",
      "type": "function"
    },
    {
      "inputs": [],
      "name": "investedAssets",
      "outputs": [
        {
          "internalType": "uint256",
          "name": "",
          "type": "uint256"
        }
      ],
      "stateMutability": "view",
      "type": "function"
    },
    {
      "inputs": [
        {
          "internalType": "address",
          "name": "_value",
          "type": "address"
        }
      ],
      "name": "isController",
      "outputs": [
        {
          "internalType": "bool",
          "name": "",
          "type": "bool"
        }
      ],
      "stateMutability": "view",
      "type": "function"
    },
    {
      "inputs": [
        {
          "internalType": "address",
          "name": "_value",
          "type": "address"
        }
      ],
      "name": "isGovernance",
      "outputs": [
        {
          "internalType": "bool",
          "name": "",
          "type": "bool"
        }
      ],
      "stateMutability": "view",
      "type": "function"
    },
    {
      "inputs": [],
      "name": "isReadyToHardWork",
      "outputs": [
        {
          "internalType": "bool",
          "name": "",
          "type": "bool"
        }
      ],
      "stateMutability": "view",
      "type": "function"
    },
    {
      "inputs": [
        {
          "internalType": "address",
          "name": "",
          "type": "address"
        }
      ],
      "name": "liquidationThresholds",
      "outputs": [
        {
          "internalType": "uint256",
          "name": "",
          "type": "uint256"
        }
      ],
      "stateMutability": "view",
      "type": "function"
    },
    {
      "inputs": [
        {
          "internalType": "address[]",
          "name": "assets_",
          "type": "address[]"
        },
        {
          "internalType": "uint256[]",
          "name": "amounts_",
          "type": "uint256[]"
        }
      ],
      "name": "onTransferAmounts",
      "outputs": [],
      "stateMutability": "nonpayable",
      "type": "function"
    },
    {
      "inputs": [],
      "name": "performanceFee",
      "outputs": [
        {
          "internalType": "uint256",
          "name": "",
          "type": "uint256"
        }
      ],
      "stateMutability": "view",
      "type": "function"
    },
    {
      "inputs": [],
      "name": "performanceFeeRatio",
      "outputs": [
        {
          "internalType": "uint256",
          "name": "",
          "type": "uint256"
        }
      ],
      "stateMutability": "view",
      "type": "function"
    },
    {
      "inputs": [],
      "name": "performanceReceiver",
      "outputs": [
        {
          "internalType": "address",
          "name": "",
          "type": "address"
        }
      ],
      "stateMutability": "view",
      "type": "function"
    },
    {
      "inputs": [],
      "name": "poolId",
      "outputs": [
        {
          "internalType": "bytes32",
          "name": "",
          "type": "bytes32"
        }
      ],
      "stateMutability": "view",
      "type": "function"
    },
    {
      "inputs": [],
      "name": "previousImplementation",
      "outputs": [
        {
          "internalType": "address",
          "name": "",
          "type": "address"
        }
      ],
      "stateMutability": "view",
      "type": "function"
    },
    {
      "inputs": [],
      "name": "reinvestThresholdPercent",
      "outputs": [
        {
          "internalType": "uint256",
          "name": "",
          "type": "uint256"
        }
      ],
      "stateMutability": "view",
      "type": "function"
    },
    {
      "inputs": [
        {
          "internalType": "address",
          "name": "theAsset_",
          "type": "address"
        },
        {
          "internalType": "uint256",
          "name": "amount_",
          "type": "uint256"
        }
      ],
      "name": "requirePayAmountBack",
      "outputs": [
        {
          "internalType": "uint256",
          "name": "amountOut",
          "type": "uint256"
        }
      ],
      "stateMutability": "nonpayable",
      "type": "function"
    },
    {
      "inputs": [],
      "name": "revision",
      "outputs": [
        {
          "internalType": "uint256",
          "name": "",
          "type": "uint256"
        }
      ],
      "stateMutability": "view",
      "type": "function"
    },
    {
      "inputs": [],
      "name": "rewardTokens",
      "outputs": [
        {
          "internalType": "address[]",
          "name": "tokens",
          "type": "address[]"
        }
      ],
      "stateMutability": "view",
      "type": "function"
    },
    {
      "inputs": [
        {
          "internalType": "uint256",
          "name": "value",
          "type": "uint256"
        }
      ],
      "name": "setCompoundRatio",
      "outputs": [],
      "stateMutability": "nonpayable",
      "type": "function"
    },
    {
      "inputs": [
        {
          "internalType": "address",
          "name": "token",
          "type": "address"
        },
        {
          "internalType": "uint256",
          "name": "amount",
          "type": "uint256"
        }
      ],
      "name": "setLiquidationThreshold",
      "outputs": [],
      "stateMutability": "nonpayable",
      "type": "function"
    },
    {
      "inputs": [
        {
          "internalType": "uint256",
          "name": "ratio_",
          "type": "uint256"
        }
      ],
      "name": "setPerformanceFeeRatio",
      "outputs": [],
      "stateMutability": "nonpayable",
      "type": "function"
    },
    {
      "inputs": [
        {
          "internalType": "uint256",
          "name": "percent_",
          "type": "uint256"
        }
      ],
      "name": "setReinvestThresholdPercent",
      "outputs": [],
      "stateMutability": "nonpayable",
      "type": "function"
    },
    {
      "inputs": [
        {
          "internalType": "string",
          "name": "name",
          "type": "string"
        }
      ],
      "name": "setStrategySpecificName",
      "outputs": [],
      "stateMutability": "nonpayable",
      "type": "function"
    },
    {
      "inputs": [
        {
          "internalType": "uint256",
          "name": "fee_",
          "type": "uint256"
        },
        {
          "internalType": "address",
          "name": "receiver_",
          "type": "address"
        }
      ],
      "name": "setupPerformanceFee",
      "outputs": [],
      "stateMutability": "nonpayable",
      "type": "function"
    },
    {
      "inputs": [],
      "name": "splitter",
      "outputs": [
        {
          "internalType": "address",
          "name": "",
          "type": "address"
        }
      ],
      "stateMutability": "view",
      "type": "function"
    },
    {
      "inputs": [],
      "name": "strategySpecificName",
      "outputs": [
        {
          "internalType": "string",
          "name": "",
          "type": "string"
        }
      ],
      "stateMutability": "view",
      "type": "function"
    },
    {
      "inputs": [
        {
          "internalType": "bytes4",
          "name": "interfaceId",
          "type": "bytes4"
        }
      ],
      "name": "supportsInterface",
      "outputs": [
        {
          "internalType": "bool",
          "name": "",
          "type": "bool"
        }
      ],
      "stateMutability": "view",
      "type": "function"
    },
    {
      "inputs": [],
      "name": "totalAssets",
      "outputs": [
        {
          "internalType": "uint256",
          "name": "",
          "type": "uint256"
        }
      ],
      "stateMutability": "view",
      "type": "function"
    },
    {
      "inputs": [],
      "name": "withdrawAllToSplitter",
      "outputs": [
        {
          "internalType": "uint256",
          "name": "strategyLoss",
          "type": "uint256"
        }
      ],
      "stateMutability": "nonpayable",
      "type": "function"
    },
    {
      "inputs": [
        {
          "internalType": "uint256",
          "name": "amount",
          "type": "uint256"
        }
      ],
      "name": "withdrawToSplitter",
      "outputs": [
        {
          "internalType": "uint256",
          "name": "strategyLoss",
          "type": "uint256"
        }
      ],
      "stateMutability": "nonpayable",
      "type": "function"
    }
  ],
  "transactionHash": "0xed74fbe603bbd5e109f62b6bdc1ad8991763eeb937b2e37b0d93fffe9197439f",
  "args": [],
  "numDeployments": 6,
  "solcInputHash": "26c6b397cd96df26aa08cb428a27c8ff",
  "bytecode": "0x60806040523480156200001157600080fd5b506200001c62000022565b620000e3565b600054610100900460ff16156200008f5760405162461bcd60e51b815260206004820152602760248201527f496e697469616c697a61626c653a20636f6e747261637420697320696e697469604482015266616c697a696e6760c81b606482015260840160405180910390fd5b60005460ff90811614620000e1576000805460ff191660ff9081179091556040519081527f7f26b83ff96e1f2b6a682f133852f6798a09c465da95921460cefb38474024989060200160405180910390a15b565b61547680620000f36000396000f3fe608060405234801561001057600080fd5b50600436106102ab5760003560e01c80636ffb4c8e11610172578063a3f4df7e116100d9578063c2b18aa011610092578063c2b18aa0146105f5578063cd4c81561461060a578063ceee861d1461061d578063d295ea7014610641578063de3d047c1461064a578063dee1f0e41461065d578063f77c47911461067057600080fd5b8063a3f4df7e14610566578063a6f19c84146105a2578063ab9e3eee146105b5578063b2457556146105bc578063b429afeb146105cf578063bd38837b146105e257600080fd5b8063877887821161012b57806387788782146104e757806387c7f770146104f05780638b4c770714610503578063936725ec1461052757806396b7b14e1461054b5780639d0bcca01461055e57600080fd5b80636ffb4c8e1461045857806371ee01751461046b57806373a50ef51461047457806378327438146104985780637cc96380146104b85780637efc77fa146104c057600080fd5b80634593144c1161021657806354679963116101cf57806354679963146103e75780635641ec03146103fc5780635cfc1a51146104045780636207a0cf1461040e57806363e27734146104325780636855f30e1461044557600080fd5b80634593144c1461038c5780634ad0b684146103945780634e71d92d1461039c5780634fa5d854146103a45780634fac6ccd146103c157806351e03fbe146103d457600080fd5b8063261efa1211610268578063261efa1214610331578063325a19f11461033a57806333c5b58e1461034257806338d52e0f1461034a5780633cd8045e146103705780633e0dc34e1461038357600080fd5b806301e1d114146102b057806301ffc9a7146102cb57806306552ff3146102ee5780630acd12c7146103035780630e30428d1461030b57806322b6f5e21461031e575b600080fd5b6102b8610678565b6040519081526020015b60405180910390f35b6102de6102d9366004614289565b610708565b60405190151581526020016102c2565b6103016102fc3660046142c8565b610733565b005b6102b861091b565b610301610319366004614324565b610a44565b61030161032c366004614350565b610ae8565b6102b860365481565b6102b8610b98565b6102b8610bcc565b600054610363906201000090046001600160a01b031681565b6040516102c29190614380565b600154610363906001600160a01b031681565b6102b860645481565b6102b8610c44565b6032546102b8565b610301610c74565b6103ac610cee565b604080519283526020830191909152016102c2565b6103016103cf366004614394565b610d53565b6102b86103e23660046143b1565b610e85565b6103ef611054565b6040516102c291906143ee565b6103016110e2565b600160ff1b6102b8565b6103ef60405180604001604052806005815260200164312e302e3160d81b81525081565b610301610440366004614421565b611182565b6103016104533660046143b1565b611209565b6103016104663660046143b1565b611281565b6102b860355481565b6103ef604051806040016040528060058152602001640322e332e360dc1b81525081565b6102b86104a6366004614394565b60346020526000908152604090205481565b6102b86112f9565b6103ef604051806040016040528060088152602001672130b630b731b2b960c11b81525081565b6102b860055481565b6102b86104fe366004614324565b611329565b6103ef604051806040016040528060058152602001640312e302e360dc1b81525081565b6103ef604051806040016040528060058152602001640332e302e360dc1b81525081565b610301610559366004614566565b6114b3565b610363611552565b6103ef6040518060400160405280601981526020017f42616c616e63657220426f6f737465642053747261746567790000000000000081525081565b606554610363906001600160a01b031681565b60016102de565b6102b86105ca366004614635565b611582565b6102de6105dd366004614394565b611638565b603354610363906001600160a01b031681565b6105fd61165d565b6040516102c2919061469e565b600454610363906001600160a01b031681565b6103ef604051806040016040528060058152602001640312e322e360dc1b81525081565b6102b860025481565b6103016106583660046143b1565b6117f2565b6102de61066b366004614394565b61186e565b6103636118f3565b600061068360325490565b6000546040516370a0823160e01b8152620100009091046001600160a01b0316906370a08231906106b8903090600401614380565b602060405180830381865afa1580156106d5573d6000803e3d6000fd5b505050506040513d601f19601f820116820180604052508101906106f991906146b1565b61070391906146e0565b905090565b60006001600160e01b0319821663f73147b360e01b148061072d575061072d82611923565b92915050565b600054610100900460ff16158080156107535750600054600160ff909116105b8061076d5750303b15801561076d575060005460ff166001145b6107d55760405162461bcd60e51b815260206004820152602e60248201527f496e697469616c697a61626c653a20636f6e747261637420697320616c72656160448201526d191e481a5b9a5d1a585b1a5e995960921b60648201526084015b60405180910390fd5b6000805460ff1916600117905580156107f8576000805461ff0019166101001790555b61080182611948565b61080c858585611a7d565b60405163923a3ca960e01b815273599d50a55Ae457d6d0014F71b32af2cAB05D5C969063923a3ca990610843908590600401614380565b600060405180830381865af4158015610860573d6000803e3d6000fd5b505050506040513d6000823e601f3d908101601f1916820160405261088891908101906146f3565b6006906108959082614808565b507f13bdeb5b5bb760c04b92d93e56c576c6805359d41a13d3cca178aa7c8526b98460066040516108c691906148c7565b60405180910390a18015610914576000805461ff0019169055604051600181527f7f26b83ff96e1f2b6a682f133852f6798a09c465da95921460cefb38474024989060200160405180910390a15b5050505050565b60015460008054604051633e53813360e11b815291926001600160a01b03908116926201000090920416908390733BEB969c0cd273eA1d7a39137a757Cf1c474510a90637ca70266906109749086908690600401614952565b602060405180830381865af4158015610991573d6000803e3d6000fd5b505050506040513d601f19601f820116820180604052508101906109b591906146b1565b905060008060006109c4611b1f565b925092509250733BEB969c0cd273eA1d7a39137a757Cf1c474510a639ad00ec2868686868b6040518663ffffffff1660e01b8152600401610a0995949392919061496c565b60006040518083038186803b158015610a2157600080fd5b505af4158015610a35573d6000803e3d6000fd5b50929998505050505050505050565b73c989b6183E5af088FD04DB1A3C93bE69c8Ff25E063142395ef610a666118f3565b6040516001600160e01b031960e084901b1681526001600160a01b03918216600482015290851660248201526044810184905260640160006040518083038186803b158015610ab457600080fd5b505af4158015610ac8573d6000803e3d6000fd5b5050506001600160a01b0390921660009081526034602052604090205550565b733BEB969c0cd273eA1d7a39137a757Cf1c474510a63b4339948610b0a6118f3565b6040516001600160e01b031960e084901b1681526001600160a01b03918216600482015260248101869052908416604482015260640160006040518083038186803b158015610b5857600080fd5b505af4158015610b6c573d6000803e3d6000fd5b505050600592909255600480546001600160a01b0319166001600160a01b039290921691909117905550565b6000610703610bc860017f6f55f470bdc9cb5f04223fd822021061668e4dccb43e8727b295106dc9769c8b61499c565b5490565b6000733BEB969c0cd273eA1d7a39137a757Cf1c474510a63493f6edc610bf06118f3565b6040518263ffffffff1660e01b8152600401610c0c9190614380565b60006040518083038186803b158015610c2457600080fd5b505af4158015610c38573d6000803e3d6000fd5b50505050610703611b3a565b6000610703610bc860017f812a673dfca07956350df10f8a654925f561d7a0da09bdbe79e653939a14d9f161499c565b733BEB969c0cd273eA1d7a39137a757Cf1c474510a63d19cc38a610c966118f3565b6040518263ffffffff1660e01b8152600401610cb29190614380565b60006040518083038186803b158015610cca57600080fd5b505af4158015610cde573d6000803e3d6000fd5b50505050610cea611c07565b5050565b60015460408051808201909152600a81526914d08e8811195b9a595960b21b60208201526000918291906001600160a01b03163314610d405760405162461bcd60e51b81526004016107cc91906143ee565b50610d4b6001611cc3565b915091509091565b333014610da25760405162461bcd60e51b815260206004820152601b60248201527f496e637265617365207265766973696f6e20666f7262696464656e000000000060448201526064016107cc565b6000610dd2610bc860017f22573091f17911fb166032a3d9e0554aa73d31b7b7ddea4a4dd2995650af84bd61499c565b610ddd9060016146e0565b9050610e1181610e0e60017f22573091f17911fb166032a3d9e0554aa73d31b7b7ddea4a4dd2995650af84bd61499c565b55565b610e4082610e0e60017fbfaaa2fb63266ff27c2da975f5894955056f50419af651a81f6c5060581857e461499c565b604080518281526001600160a01b03841660208201527ff27e2ef832a4eb8ed8ec553b875eecd44764cda95b1c24170e281539e0a869c8910160405180910390a15050565b60015460008054604051633e53813360e11b815291926001600160a01b03908116926201000090920416908390733BEB969c0cd273eA1d7a39137a757Cf1c474510a90637ca7026690610ede9086908690600401614952565b602060405180830381865af4158015610efb573d6000803e3d6000fd5b505050506040513d601f19601f82011682018060405250810190610f1f91906146b1565b905080851115610fcb57600080610f3e610f39848961499c565b611df2565b604051631594b05b60e01b81529098509193509150733BEB969c0cd273eA1d7a39137a757Cf1c474510a90631594b05b90610f859087908790879087908c9060040161496c565b602060405180830381865af4158015610fa2573d6000803e3d6000fd5b505050506040513d601f19601f82011682018060405250810190610fc691906146b1565b925050505b6040516333bbb20360e11b815260048101869052602481018290526001600160a01b03808416604483015284166064820152733BEB969c0cd273eA1d7a39137a757Cf1c474510a9063677764069060840160006040518083038186803b15801561103457600080fd5b505af4158015611048573d6000803e3d6000fd5b50505050505050919050565b6006805461106190614786565b80601f016020809104026020016040519081016040528092919081815260200182805461108d90614786565b80156110da5780601f106110af576101008083540402835291602001916110da565b820191906000526020600020905b8154815290600101906020018083116110bd57829003601f168201915b505050505081565b6110ea611e23565b733BEB969c0cd273eA1d7a39137a757Cf1c474510a63bd02068261110c6118f3565b60005460015460405160e085901b6001600160e01b03191681526001600160a01b039384166004820152620100009092048316602483015291909116604482015260640160006040518083038186803b15801561116857600080fd5b505af415801561117c573d6000803e3d6000fd5b50505050565b733BEB969c0cd273eA1d7a39137a757Cf1c474510a63eae13e766111a46118f3565b84846040518463ffffffff1660e01b81526004016111c4939291906149af565b60006040518083038186803b1580156111dc57600080fd5b505af41580156111f0573d6000803e3d6000fd5b5060069250611204915083905084836149ef565b505050565b73c989b6183E5af088FD04DB1A3C93bE69c8Ff25E063a0113d4861122b6118f3565b836040518363ffffffff1660e01b8152600401611249929190614aae565b60006040518083038186803b15801561126157600080fd5b505af4158015611275573d6000803e3d6000fd5b50505060369190915550565b73c989b6183E5af088FD04DB1A3C93bE69c8Ff25E063d2c3cf256112a36118f3565b836040518363ffffffff1660e01b81526004016112c1929190614aae565b60006040518083038186803b1580156112d957600080fd5b505af41580156112ed573d6000803e3d6000fd5b50505060359190915550565b6000610703610bc860017f22573091f17911fb166032a3d9e0554aa73d31b7b7ddea4a4dd2995650af84bd61499c565b60335460408051808201909152600a81526914d08e8811195b9a595960b21b60208201526000916001600160a01b03169033821461137a5760405162461bcd60e51b81526004016107cc91906143ee565b5060008061138786611f2a565b91509150600061139687611f96565b9050858110156113fc5760006113aa612006565b905080156113fa5760006113bd826120b0565b90507faebc771af58936b05e89b0be7d3f9761480181abcd4a649fbdd01753fda1697082826040516113f0929190614af7565b60405180910390a1505b505b736b2ca816F59b3d66ded56A5aBE6f186Fa30650DA6399c1fde4878486886114226118f3565b60005460405160e088901b6001600160e01b031916815261145d9695949392916201000090046001600160a01b031690603490600401614b10565b602060405180830381865af415801561147a573d6000803e3d6000fd5b505050506040513d601f19601f8201168201806040525081019061149e91906146b1565b94506114a8612378565b505050505092915050565b60335460408051808201909152600a81526914d08e8811195b9a595960b21b6020820152906001600160a01b031633146115005760405162461bcd60e51b81526004016107cc91906143ee565b508151815160408051808201909152600d81526c54532d3139206c656e6774687360981b60208201529082146115495760405162461bcd60e51b81526004016107cc91906143ee565b5061117c612378565b6000610703610bc860017fbfaaa2fb63266ff27c2da975f5894955056f50419af651a81f6c5060581857e461499c565b600154600080546040516001625acc3160e01b0319815291928392733BEB969c0cd273eA1d7a39137a757Cf1c474510a9263ffa533cf926115db926001600160a01b039182169262010000900490911690600401614952565b602060405180830381865af41580156115f8573d6000803e3d6000fd5b505050506040513d601f19601f8201168201806040525081019061161c91906146b1565b905080156116315761162e818461238c565b91505b5092915050565b60006116426118f3565b6001600160a01b0316826001600160a01b0316149050919050565b606060005b60088110156116f7576065546040516354c49fe960e01b8152600481018390526000916001600160a01b0316906354c49fe990602401602060405180830381865afa1580156116b5573d6000803e3d6000fd5b505050506040513d601f19601f820116820180604052508101906116d99190614b5f565b6001600160a01b0316146116f7576116f081614b7c565b9050611662565b806001600160401b0381111561170f5761170f614492565b604051908082528060200260200182016040528015611738578160200160208202803683370190505b50915060005b818110156117ed576065546040516354c49fe960e01b8152600481018390526001600160a01b03909116906354c49fe990602401602060405180830381865afa15801561178f573d6000803e3d6000fd5b505050506040513d601f19601f820116820180604052508101906117b39190614b5f565b8382815181106117c5576117c5614b95565b6001600160a01b03909216602092830291909101909101526117e681614b7c565b905061173e565b505090565b733BEB969c0cd273eA1d7a39137a757Cf1c474510a630568a9d56118146118f3565b600254846040518463ffffffff1660e01b815260040161183693929190614bab565b60006040518083038186803b15801561184e57600080fd5b505af4158015611862573d6000803e3d6000fd5b50505060029190915550565b6000816001600160a01b03166118826118f3565b6001600160a01b0316635aa6e6756040518163ffffffff1660e01b8152600401602060405180830381865afa1580156118bf573d6000803e3d6000fd5b505050506040513d601f19601f820116820180604052508101906118e39190614b5f565b6001600160a01b03161492915050565b6000610703610bc860017f5165972ef41194f06c5007493031d0b927c20741adcb74403b954009fd2c361861499c565b60006001600160e01b0319821663c19fa56160e01b148061072d575061072d826123b3565b600054610100900460ff1661196f5760405162461bcd60e51b81526004016107cc90614bcc565b806001600160a01b03166338fff2d06040518163ffffffff1660e01b8152600401602060405180830381865afa1580156119ad573d6000803e3d6000fd5b505050506040513d601f19601f820116820180604052508101906119d191906146b1565b60645560405163a8ea687560e01b8152733b8ca519122cdd8efb272b0d3085453404b25bd09063a8ea687590611a0b908490600401614380565b602060405180830381865afa158015611a28573d6000803e3d6000fd5b505050506040513d601f19601f82011682018060405250810190611a4c9190614b5f565b606580546001600160a01b0319166001600160a01b03928316908117909155611a7a918316906000196123e8565b50565b600054610100900460ff16611aa45760405162461bcd60e51b81526004016107cc90614bcc565b611aae8383612522565b603380546001600160a01b0319166001600160a01b038316179055611ad76064620186a0614c17565b6035557fe4166dfcf23bbd3e3f764a99dc8fa740554c03c82d6019b81cf265f396f6f2fe611b096064620186a0614c17565b60405190815260200160405180910390a1505050565b6000806000611b2f600019611df2565b925092509250909192565b6000806000611b5d600060029054906101000a90046001600160a01b0316611f2a565b91509150736b2ca816F59b3d66ded56A5aBE6f186Fa30650DA63c9bce69083611b8c611b87612006565b6126f6565b6033546040516001600160e01b031960e086901b168152611bbf93929187916001600160a01b0390911690600401614c39565b602060405180830381865af4158015611bdc573d6000803e3d6000fd5b505050506040513d601f19601f82011682018060405250810190611c0091906146b1565b9250505090565b6060806000806000611c17612821565b603354929550909350915073c989b6183E5af088FD04DB1A3C93bE69c8Ff25E09063e99de4da906001600160a01b0316611c4f6128c3565b8686866040518663ffffffff1660e01b8152600401611c72959493929190614c80565b600060405180830381865af4158015611c8f573d6000803e3d6000fd5b505050506040513d6000823e601f3d908101601f19168201604052611cb79190810190614d9d565b90969095509350505050565b600080600080611cd3600161295a565b915091506000611ce1612a13565b919650945090506000611d28878015611d145750620186a085603554611d079190614df6565b611d119190614c17565b83115b611d1f576000611d21565b825b8486612aa3565b91506000905080611d75611d3c85886146e0565b6000548590611d59906201000090046001600160a01b0316611f96565b603254611d6691906146e0565b611d7091906146e0565b612d6e565b915091506040805187815260208101879052908101899052606081018890526080810183905260a081018290527f3e9abbc366dbf9fe260e2640c06eefbedd7720cf986ae553374e46b804f4ff559060c00160405180910390a1611dd982896146e0565b611de382896146e0565b97509750505050505050915091565b6000806000806000611e04600161295a565b91509150611e13868284612d9e565b5091989097509095509350505050565b6000611e2d613479565b90507f768a28cb3459382a3d2173feb2dad0235f8de680b109872da581a3aa269fe5f481604051611e5e9190614e0d565b60405180910390a1600080548190611e84906201000090046001600160a01b0316611f2a565b6033549193509150736b2ca816F59b3d66ded56A5aBE6f186Fa30650DA906358b54f16906001600160a01b0316611ec1611ebc6118f3565b61348b565b846034600019886040518763ffffffff1660e01b8152600401611ee996959493929190614e20565b602060405180830381865af4158015611f06573d6000803e3d6000fd5b505050506040513d601f19601f8201168201806040525081019061154991906146b1565b60606000611f366128c3565b9150611f4282846134ef565b90506000198114156040518060400160405280600f81526020016e53423a2057726f6e672076616c756560881b81525090611f905760405162461bcd60e51b81526004016107cc91906143ee565b50915091565b6040516370a0823160e01b81526000906001600160a01b038316906370a0823190611fc5903090600401614380565b602060405180830381865afa158015611fe2573d6000803e3d6000fd5b505050506040513d601f19601f8201168201806040525081019061072d91906146b1565b600061201460645460601c90565b6001600160a01b03166370a08231306040518263ffffffff1660e01b815260040161203f9190614380565b602060405180830381865afa15801561205c573d6000803e3d6000fd5b505050506040513d601f19601f8201168201806040525081019061208091906146b1565b6065546040516370a0823160e01b81526001600160a01b03909116906370a08231906106b8903090600401614380565b6064546065546040516370a0823160e01b8152606092916001600160a01b03169082841c9060009082906370a08231906120ee903090600401614380565b602060405180830381865afa15801561210b573d6000803e3d6000fd5b505050506040513d601f19601f8201168201806040525081019061212f91906146b1565b90506000836001600160a01b03166370a08231306040518263ffffffff1660e01b815260040161215f9190614380565b602060405180830381865afa15801561217c573d6000803e3d6000fd5b505050506040513d601f19601f820116820180604052508101906121a091906146b1565b905060008288116121b25760006121bc565b6121bc838961499c565b905080156121cf57818111156121cf5750805b801561223057604051632e1a7d4d60e01b8152600481018290526001600160a01b03861690632e1a7d4d90602401600060405180830381600087803b15801561221757600080fd5b505af115801561222b573d6000803e3d6000fd5b505050505b61223a82846146e0565b8810156122da5760405163209f6ae760e01b815273599d50a55Ae457d6d0014F71b32af2cAB05D5C969063209f6ae7906122909073ba12222222228d8ba445958a75a0704d566bf2c8908a908690600401614bab565b600060405180830381865af41580156122ad573d6000803e3d6000fd5b505050506040513d6000823e601f3d908101601f191682016040526122d59190810190614e5d565b61236c565b604051634b4c46fd60e01b815273599d50a55Ae457d6d0014F71b32af2cAB05D5C9690634b4c46fd906123279073ba12222222228d8ba445958a75a0704d566bf2c8908a90600401614aae565b600060405180830381865af4158015612344573d6000803e3d6000fd5b505050506040513d6000823e601f3d908101601f1916820160405261236c9190810190614e5d565b98975050505050505050565b6000612382611b3a565b6032819055919050565b600080600061239a8461295a565b915091506123a9858284612aa3565b5095945050505050565b60006001600160e01b0319821663b7b79fa960e01b148061072d57506301ffc9a760e01b6001600160e01b031983161461072d565b8015806124615750604051636eb1769f60e11b81526001600160a01b0384169063dd62ed3e9061241e9030908690600401614952565b602060405180830381865afa15801561243b573d6000803e3d6000fd5b505050506040513d601f19601f8201168201806040525081019061245f91906146b1565b155b6124cc5760405162461bcd60e51b815260206004820152603660248201527f5361666545524332303a20617070726f76652066726f6d206e6f6e2d7a65726f60448201527520746f206e6f6e2d7a65726f20616c6c6f77616e636560501b60648201526084016107cc565b6112048363095ea7b360e01b84846040516024016124eb929190614aae565b60408051601f198184030181529190526020810180516001600160e01b03166001600160e01b03199093169290921790915261354d565b600054610100900460ff166125495760405162461bcd60e51b81526004016107cc90614bcc565b612573817fd2de0374d4479f33e63ae5ed6ca772a10463dd883a90c612050b51fab619640061361f565b61257c82613675565b60405163b429afeb60e01b81526001600160a01b0382169063b429afeb906125a8908590600401614380565b602060405180830381865afa1580156125c5573d6000803e3d6000fd5b505050506040513d601f19601f820116820180604052508101906125e99190614e91565b6040518060400160405280600f81526020016e53423a2057726f6e672076616c756560881b8152509061262f5760405162461bcd60e51b81526004016107cc91906143ee565b50806001600160a01b03166338d52e0f6040518163ffffffff1660e01b8152600401602060405180830381865afa15801561266e573d6000803e3d6000fd5b505050506040513d601f19601f820116820180604052508101906126929190614b5f565b600080546001600160a01b03928316620100000262010000600160b01b031990911617905560018054929091166001600160a01b031992831617905560048054909116739cc199d4353b5fb3e6c8eebc99f5139e0d8ea06b17905550612710600555565b60606000612702612006565b90508060000361275d576127146128c3565b516001600160401b0381111561272c5761272c614492565b604051908082528060200260200182016040528015612755578160200160208202803683370190505b509392505050565b6064805460405163f91294e960e01b815273ba12222222228d8ba445958a75a0704d566bf2c8600482015273239e55f427d44c3cc793f49bfb507ebe76638a2b6024820152604481019190915290810184905273599d50a55Ae457d6d0014F71b32af2cAB05D5C969063f91294e990608401600060405180830381865af41580156127ec573d6000803e3d6000fd5b505050506040513d6000823e601f3d908101601f191682016040526128149190810190614e5d565b9392505050565b50919050565b6065546060908190819073599d50a55Ae457d6d0014F71b32af2cAB05D5C9690633a7e535c906001600160a01b03166128586128c3565b61286061165d565b6040518463ffffffff1660e01b815260040161287e93929190614eae565b600060405180830381865af415801561289b573d6000803e3d6000fd5b505050506040513d6000823e601f3d908101601f19168201604052611b2f9190810190614eee565b606454604051633db1bdf160e11b815260609173599d50a55Ae457d6d0014F71b32af2cAB05D5C9691637b637be2916129159173ba12222222228d8ba445958a75a0704d566bf2c89190600401614aae565b600060405180830381865af4158015612932573d6000803e3d6000fd5b505050506040513d6000823e601f3d908101601f191682016040526107039190810190614f75565b6000808215612a075760325461296e612378565b600154604051636e5b9cc760e11b815260048101849052602481018390526001600160a01b039091166044820152909350736b2ca816F59b3d66ded56A5aBE6f186Fa30650DA9063dcb7398e90606401602060405180830381865af41580156129db573d6000803e3d6000fd5b505050506040513d601f19601f820116820180604052508101906129ff91906146b1565b915050915091565b50506032546000915091565b600080600080612a37600060029054906101000a90046001600160a01b0316611f96565b9050600080612a44611c07565b91509150612a52828261388e565b600054612a6d906201000090046001600160a01b0316611f96565b9350600080612a7c8587612d6e565b9092509050612a8b82896146e0565b612a9582896146e0565b975097505050505050909192565b6000805481906201000090046001600160a01b031681858711612ac7576000612ad1565b612ad1868861499c565b9050620186a085603554612ae59190614df6565b612aef9190614c17565b811115612c95578515612b9e5760015473c989b6183E5af088FD04DB1A3C93bE69c8Ff25E09063aac2718a90849089906001600160a01b0316612b3183611f96565b612b3b908b6146e0565b6040518563ffffffff1660e01b8152600401612b5a9493929190614fa9565b602060405180830381865af4158015612b77573d6000803e3d6000fd5b505050506040513d601f19601f82011682018060405250810190612b9b91906146b1565b92505b6000612ba983611f96565b9050600080612bcc600060029054906101000a90046001600160a01b0316611f2a565b6033549193509150600090612bec906001600160a01b031686858561392e565b90506000612bf982613b56565b5090507f59400c8c523464b521238ea8f50e923f2bc64663557e6afec92a97f7efe92d058282604051612c2d929190614fd3565b60405180910390a16000612c3f612378565b90506000612c4c89611f96565b9050612c58878d6146e0565b612c6282846146e0565b1015612c8957612c7281836146e0565b612c7c888e6146e0565b612c86919061499c565b9a505b50505050505050612d64565b8515612d64576000612ca683611f96565b905086811015612cc957612cbc60008888612d9e565b9097509550612d62915050565b60015473c989b6183E5af088FD04DB1A3C93bE69c8Ff25E09063aac2718a9085908a906001600160a01b0316612cff868c6146e0565b6040518563ffffffff1660e01b8152600401612d1e9493929190614fa9565b602060405180830381865af4158015612d3b573d6000803e3d6000fd5b505050506040513d601f19601f82011682018060405250810190612d5f91906146b1565b93505b505b5050935093915050565b60008083831115612d8a57612d83848461499c565b9150612d97565b612d94838561499c565b90505b9250929050565b600080600080612e3f604051806102200160405280600015158152602001606081526020016000815260200160008152602001600081526020016000815260200160608152602001600081526020016060815260200160008152602001600081526020016060815260200160006001600160a01b0316815260200160008152602001600081526020016060815260200160006001600160a01b031681525090565b60001988148082526000935080612e5e5750612e5b87896146e0565b15155b8015612e6957508515155b1561346057612e766128c3565b61016082018190526000546001600160a01b036201000090910481166101808401819052603354909116610200840152612eb091906134ef565b6101a0820152610180810151612ec590611f96565b6101c0820152612ed3613cce565b6020820152612ee0613d65565b6040820152612eed612006565b6060820152610200810151610180820151604051637a55caf360e01b8152736b2ca816F59b3d66ded56A5aBE6f186Fa30650DA92637a55caf392612f3392600401614952565b602060405180830381865af4158015612f50573d6000803e3d6000fd5b505050506040513d601f19601f82011682018060405250810190612f7491906146b1565b60a0820152805173c989b6183E5af088FD04DB1A3C93bE69c8Ff25E09063ec0cc4fd90612faa57612fa5898b6146e0565b612fad565b60005b30846101600151856101a001518661020001518c88606001516040518863ffffffff1660e01b8152600401612fe89796959493929190615001565b600060405180830381865af4158015613005573d6000803e3d6000fd5b505050506040513d6000823e601f3d908101601f1916820160405261302d9190810190615050565b60c0830152608082018190521561316b5761304b81608001516120b0565b6101e0820152613059612006565b8160600151613068919061499c565b608082018190526101e08201516040517faebc771af58936b05e89b0be7d3f9761480181abcd4a649fbdd01753fda16970926130a5929091614af7565b60405180910390a1736b2ca816F59b3d66ded56A5aBE6f186Fa30650DA637a9a23e5826102000151836101600151846101a001518560200151866080015187604001518860c00151896101e001516040518963ffffffff1660e01b815260040161311698979695949392919061508c565b600060405180830381865af4158015613133573d6000803e3d6000fd5b505050506040513d6000823e601f3d908101601f1916820160405261315b919081019061510e565b60c0830152610100820152613207565b6102008101516101608201516101a083015160c0840151604051636138ea8560e01b8152736b2ca816F59b3d66ded56A5aBE6f186Fa30650DA94636138ea85946131bb9491939092600401615144565b600060405180830381865af41580156131d8573d6000803e3d6000fd5b505050506040513d6000823e601f3d908101601f191682016040526132009190810190614e5d565b6101008201525b736b2ca816F59b3d66ded56A5aBE6f186Fa30650DA63f1f2b573826101600151836101a001518460c00151856102000151613243611ebc6118f3565b875161325a578d8f61325591906146e0565b61325c565b8e5b88610100015160346040518963ffffffff1660e01b8152600401613287989796959493929190615180565b602060405180830381865af41580156132a4573d6000803e3d6000fd5b505050506040513d601f19601f820116820180604052508101906132c891906146b1565b8160e0018181516132d991906146e0565b9052508615613388576101808101516001546101c083015173c989b6183E5af088FD04DB1A3C93bE69c8Ff25E09263aac2718a9290918b916001600160a01b031690613325908c6146e0565b6040518563ffffffff1660e01b81526004016133449493929190614fa9565b602060405180830381865af4158015613361573d6000803e3d6000fd5b505050506040513d601f19601f8201168201806040525081019061338591906146b1565b91505b613390612378565b6101208201526101808101516133a590611f96565b6101408201526101c08101516133bb90876146e0565b878261014001518361012001516133d291906146e0565b6133dc91906146e0565b101561342a57868161014001518261012001516133f991906146e0565b61340391906146e0565b6101c082015161341390886146e0565b61341d919061499c565b61342790846146e0565b92505b670de0b6b3a76400008160a001518260e001516134479190614df6565b6134519190614c17565b8160a001519450945050613470565b6000806000809450945094509450505b93509350935093565b6060610703613486612006565b6120b0565b6000816001600160a01b0316634046ebae6040518163ffffffff1660e01b8152600401602060405180830381865afa1580156134cb573d6000803e3d6000fd5b505050506040513d601f19601f8201168201806040525081019061072d9190614b5f565b8151600090815b8181101561354157836001600160a01b031685828151811061351a5761351a614b95565b60200260200101516001600160a01b03160361353957915061072d9050565b6001016134f6565b50600019949350505050565b60006135a2826040518060400160405280602081526020017f5361666545524332303a206c6f772d6c6576656c2063616c6c206661696c6564815250856001600160a01b0316613dd49092919063ffffffff16565b80519091501561120457808060200190518101906135c09190614e91565b6112045760405162461bcd60e51b815260206004820152602a60248201527f5361666545524332303a204552433230206f7065726174696f6e20646964206e6044820152691bdd081cdd58d8d9595960b21b60648201526084016107cc565b6136298282613deb565b610cea5760405162461bcd60e51b815260206004820152601a60248201527f496e74657266616365206973206e6f7420737570706f7274656400000000000060448201526064016107cc565b600054610100900460ff1661369c5760405162461bcd60e51b81526004016107cc90614bcc565b6001600160a01b0381166136e45760405162461bcd60e51b815260206004820152600f60248201526e2d32b9379031b7b73a3937b63632b960891b60448201526064016107cc565b61370e817f4c2403fdcb3cff9b705d96bf0705858e3390412670a62c8bcba611ca7e20ab8661361f565b60006001600160a01b0316816001600160a01b0316635aa6e6756040518163ffffffff1660e01b8152600401602060405180830381865afa158015613757573d6000803e3d6000fd5b505050506040513d601f19601f8201168201806040525081019061377b9190614b5f565b6001600160a01b0316036137c35760405162461bcd60e51b815260206004820152600f60248201526e5a65726f20676f7665726e616e636560881b60448201526064016107cc565b6137f281610e0e60017f5165972ef41194f06c5007493031d0b927c20741adcb74403b954009fd2c361861499c565b61382142610e0e60017f6f55f470bdc9cb5f04223fd822021061668e4dccb43e8727b295106dc9769c8b61499c565b61385043610e0e60017f812a673dfca07956350df10f8a654925f561d7a0da09bdbe79e653939a14d9f161499c565b7f1a2dd071001ebf6e03174e3df5b305795a4ad5d41d8fdb9ba41dbbe23671342681424360405161388393929190614bab565b60405180910390a150565b815180156112045760006138a28484613ec9565b905073c989b6183E5af088FD04DB1A3C93bE69c8Ff25E063acf741a36138c66118f3565b6001546040516001600160e01b031960e085901b1681526138f892916001600160a01b031690899087906004016151f6565b60006040518083038186803b15801561391057600080fd5b505af4158015613924573d6000803e3d6000fd5b5050505050505050565b606060008061393b614087565b9150915073c989b6183E5af088FD04DB1A3C93bE69c8Ff25E06359d0ede687878585898d6001600160a01b031663f77c47916040518163ffffffff1660e01b8152600401602060405180830381865afa15801561399c573d6000803e3d6000fd5b505050506040513d601f19601f820116820180604052508101906139c09190614b5f565b6001600160a01b0316632630c12f6040518163ffffffff1660e01b8152600401602060405180830381865afa1580156139fd573d6000803e3d6000fd5b505050506040513d601f19601f82011682018060405250810190613a219190614b5f565b6040518763ffffffff1660e01b8152600401613a4296959493929190615234565b600060405180830381865af4158015613a5f573d6000803e3d6000fd5b505050506040513d6000823e601f3d908101601f19168201604052613a879190810190614e5d565b9250736b2ca816F59b3d66ded56A5aBE6f186Fa30650DA631a2221c788878787603460008c8c81518110613abd57613abd614b95565b60200260200101516001600160a01b03166001600160a01b03168152602001908152602001600020546040518663ffffffff1660e01b8152600401613b06959493929190615287565b600060405180830381865af4158015613b23573d6000803e3d6000fd5b505050506040513d6000823e601f3d908101601f19168201604052613b4b9190810190614e5d565b979650505050505050565b60645460405163423511a360e01b815260609160009181841c9073599d50a55Ae457d6d0014F71b32af2cAB05D5C969063423511a390613bb29073ba12222222228d8ba445958a75a0704d566bf2c89086908a906004016152d6565b600060405180830381865af4158015613bcf573d6000803e3d6000fd5b505050506040513d6000823e601f3d908101601f19168201604052613bf791908101906152fd565b6065546040516370a0823160e01b81529296509094506001600160a01b039081169163b6b55f25918416906370a0823190613c36903090600401614380565b602060405180830381865afa158015613c53573d6000803e3d6000fd5b505050506040513d601f19601f82011682018060405250810190613c7791906146b1565b6040518263ffffffff1660e01b8152600401613c9591815260200190565b600060405180830381600087803b158015613caf57600080fd5b505af1158015613cc3573d6000803e3d6000fd5b505050505050915091565b60645460405163464a5ef760e01b815260609173599d50a55Ae457d6d0014F71b32af2cAB05D5C969163464a5ef791613d209173ba12222222228d8ba445958a75a0704d566bf2c89190600401614aae565b600060405180830381865af4158015613d3d573d6000803e3d6000fd5b505050506040513d6000823e601f3d908101601f191682016040526107039190810190614e5d565b6000613d7360645460601c90565b6001600160a01b031663876f303b6040518163ffffffff1660e01b8152600401602060405180830381865afa158015613db0573d6000803e3d6000fd5b505050506040513d601f19601f8201168201806040525081019061070391906146b1565b6060613de38484600085614120565b949350505050565b60006001600160a01b038316613e325760405162461bcd60e51b815260206004820152600c60248201526b5a65726f206164647265737360a01b60448201526064016107cc565b823b6000819003613e4757600091505061072d565b6040516301ffc9a760e01b81526001600160e01b0319841660048201526001600160a01b038516906301ffc9a790602401602060405180830381865afa925050508015613eb1575060408051601f3d908101601f19168201909252613eae91810190614e91565b60015b15613ebf57915061072d9050565b5060009392505050565b60008054603354600254606093620100009093046001600160a01b039081169392736b2ca816F59b3d66ded56A5aBE6f186Fa30650DA9263ef50284f92909116908590613f146128c3565b613f1f611ebc6118f3565b60348c8c6005546040518a63ffffffff1660e01b8152600401613f4a99989796959493929190615343565b600060405180830381865af4158015613f67573d6000803e3d6000fd5b505050506040513d6000823e601f3d908101601f19168201604052613f8f91908101906152fd565b60015460048054603654604051631248faf160e21b81526001600160a01b03808a16948201949094526024810186905293831660448501529116606483015260848201529194509150600090819073c989b6183E5af088FD04DB1A3C93bE69c8Ff25E090634923ebc49060a4016040805180830381865af4158015614018573d6000803e3d6000fd5b505050506040513d601f19601f8201168201806040525081019061403c91906153c7565b915091507f4c300a656bfa0935e36cd55e92634bc20b2b7e0a0ebf424a2a25bfaac3a01e768786848460405161407594939291906153eb565b60405180910390a15050505092915050565b60645460405163552ad6a160e11b815260609160009173599d50a55Ae457d6d0014F71b32af2cAB05D5C969163aa55ad42916140db9173ba12222222228d8ba445958a75a0704d566bf2c891600401614aae565b600060405180830381865af41580156140f8573d6000803e3d6000fd5b505050506040513d6000823e601f3d908101601f19168201604052610d4b91908101906152fd565b6060824710156141815760405162461bcd60e51b815260206004820152602660248201527f416464726573733a20696e73756666696369656e742062616c616e636520666f6044820152651c8818d85b1b60d21b60648201526084016107cc565b600080866001600160a01b0316858760405161419d9190615424565b60006040518083038185875af1925050503d80600081146141da576040519150601f19603f3d011682016040523d82523d6000602084013e6141df565b606091505b5091509150613b4b878383876060831561425a578251600003614253576001600160a01b0385163b6142535760405162461bcd60e51b815260206004820152601d60248201527f416464726573733a2063616c6c20746f206e6f6e2d636f6e747261637400000060448201526064016107cc565b5081613de3565b613de3838381511561426f5781518083602001fd5b8060405162461bcd60e51b81526004016107cc91906143ee565b60006020828403121561429b57600080fd5b81356001600160e01b03198116811461281457600080fd5b6001600160a01b0381168114611a7a57600080fd5b600080600080608085870312156142de57600080fd5b84356142e9816142b3565b935060208501356142f9816142b3565b92506040850135614309816142b3565b91506060850135614319816142b3565b939692955090935050565b6000806040838503121561433757600080fd5b8235614342816142b3565b946020939093013593505050565b6000806040838503121561436357600080fd5b823591506020830135614375816142b3565b809150509250929050565b6001600160a01b0391909116815260200190565b6000602082840312156143a657600080fd5b8135612814816142b3565b6000602082840312156143c357600080fd5b5035919050565b60005b838110156143e55781810151838201526020016143cd565b50506000910152565b602081526000825180602084015261440d8160408501602087016143ca565b601f01601f19169190910160400192915050565b6000806020838503121561443457600080fd5b82356001600160401b038082111561444b57600080fd5b818501915085601f83011261445f57600080fd5b81358181111561446e57600080fd5b86602082850101111561448057600080fd5b60209290920196919550909350505050565b634e487b7160e01b600052604160045260246000fd5b604051601f8201601f191681016001600160401b03811182821017156144d0576144d0614492565b604052919050565b60006001600160401b038211156144f1576144f1614492565b5060051b60200190565b600082601f83011261450c57600080fd5b8135602061452161451c836144d8565b6144a8565b82815260059290921b8401810191818101908684111561454057600080fd5b8286015b8481101561455b5780358352918301918301614544565b509695505050505050565b6000806040838503121561457957600080fd5b82356001600160401b038082111561459057600080fd5b818501915085601f8301126145a457600080fd5b813560206145b461451c836144d8565b82815260059290921b840181019181810190898411156145d357600080fd5b948201945b838610156145fa5785356145eb816142b3565b825294820194908201906145d8565b9650508601359250508082111561461057600080fd5b5061461d858286016144fb565b9150509250929050565b8015158114611a7a57600080fd5b6000806040838503121561464857600080fd5b82359150602083013561437581614627565b600081518084526020808501945080840160005b838110156146935781516001600160a01b03168752958201959082019060010161466e565b509495945050505050565b602081526000612814602083018461465a565b6000602082840312156146c357600080fd5b5051919050565b634e487b7160e01b600052601160045260246000fd5b8082018082111561072d5761072d6146ca565b60006020828403121561470557600080fd5b81516001600160401b038082111561471c57600080fd5b818401915084601f83011261473057600080fd5b81518181111561474257614742614492565b614755601f8201601f19166020016144a8565b915080825285602082850101111561476c57600080fd5b61477d8160208401602086016143ca565b50949350505050565b600181811c9082168061479a57607f821691505b60208210810361281b57634e487b7160e01b600052602260045260246000fd5b601f82111561120457600081815260208120601f850160051c810160208610156147e15750805b601f850160051c820191505b81811015614800578281556001016147ed565b505050505050565b81516001600160401b0381111561482157614821614492565b6148358161482f8454614786565b846147ba565b602080601f83116001811461486a57600084156148525750858301515b600019600386901b1c1916600185901b178555614800565b600085815260208120601f198616915b828110156148995788860151825594840194600190910190840161487a565b50858210156148b75787850151600019600388901b60f8161c191681555b5050505050600190811b01905550565b60006020808352600084546148db81614786565b808487015260406001808416600081146148fc576001811461491657614944565b60ff1985168984015283151560051b890183019550614944565b896000528660002060005b8581101561493c5781548b8201860152908301908801614921565b8a0184019650505b509398975050505050505050565b6001600160a01b0392831681529116602082015260400190565b6001600160a01b039586168152602081019490945260408401929092526060830152909116608082015260a00190565b8181038181111561072d5761072d6146ca565b6001600160a01b03841681526040602082018190528101829052818360608301376000818301606090810191909152601f909201601f1916010192915050565b6001600160401b03831115614a0657614a06614492565b614a1a83614a148354614786565b836147ba565b6000601f841160018114614a4e5760008515614a365750838201355b600019600387901b1c1916600186901b178355610914565b600083815260209020601f19861690835b82811015614a7f5786850135825560209485019460019092019101614a5f565b5086821015614a9c5760001960f88860031b161c19848701351681555b505060018560011b0183555050505050565b6001600160a01b03929092168252602082015260400190565b600081518084526020808501945080840160005b8381101561469357815187529582019590820190600101614adb565b828152604060208201526000613de36040830184614ac7565b87815286602082015260e060408201526000614b2f60e083018861465a565b6001600160a01b0396871660608401529486166080830152509190931660a082015260c001919091529392505050565b600060208284031215614b7157600080fd5b8151612814816142b3565b600060018201614b8e57614b8e6146ca565b5060010190565b634e487b7160e01b600052603260045260246000fd5b6001600160a01b039390931683526020830191909152604082015260600190565b6020808252602b908201527f496e697469616c697a61626c653a20636f6e7472616374206973206e6f74206960408201526a6e697469616c697a696e6760a81b606082015260800190565b600082614c3457634e487b7160e01b600052601260045260246000fd5b500490565b608081526000614c4c608083018761465a565b8281036020840152614c5e8187614ac7565b604084019590955250506001600160a01b039190911660609091015292915050565b6001600160a01b038616815260a060208201819052600090614ca49083018761465a565b8281036040840152614cb6818761465a565b90508281036060840152614cca8186614ac7565b9050828103608084015261236c8185614ac7565b600082601f830112614cef57600080fd5b81516020614cff61451c836144d8565b82815260059290921b84018101918181019086841115614d1e57600080fd5b8286015b8481101561455b578051614d35816142b3565b8352918301918301614d22565b600082601f830112614d5357600080fd5b81516020614d6361451c836144d8565b82815260059290921b84018101918181019086841115614d8257600080fd5b8286015b8481101561455b5780518352918301918301614d86565b60008060408385031215614db057600080fd5b82516001600160401b0380821115614dc757600080fd5b614dd386838701614cde565b93506020850151915080821115614de957600080fd5b5061461d85828601614d42565b808202811582820484141761072d5761072d6146ca565b6020815260006128146020830184614ac7565b600060018060a01b03808916835280881660208401525085604083015284606083015283608083015260c060a083015261236c60c083018461465a565b600060208284031215614e6f57600080fd5b81516001600160401b03811115614e8557600080fd5b61162e84828501614d42565b600060208284031215614ea357600080fd5b815161281481614627565b6001600160a01b0384168152606060208201819052600090614ed29083018561465a565b8281036040840152614ee4818561465a565b9695505050505050565b600080600060608486031215614f0357600080fd5b83516001600160401b0380821115614f1a57600080fd5b614f2687838801614cde565b94506020860151915080821115614f3c57600080fd5b614f4887838801614d42565b93506040860151915080821115614f5e57600080fd5b50614f6b86828701614d42565b9150509250925092565b600060208284031215614f8757600080fd5b81516001600160401b03811115614f9d57600080fd5b61162e84828501614cde565b6001600160a01b039485168152602081019390935292166040820152606081019190915260800190565b604081526000614fe66040830185614ac7565b8281036020840152614ff88185614ac7565b95945050505050565b878152600060018060a01b03808916602084015260e0604084015261502960e084018961465a565b606084019790975294909416608082015260a081019290925260c090910152509392505050565b6000806040838503121561506357600080fd5b8251915060208301516001600160401b0381111561508057600080fd5b61461d85828601614d42565b6001600160a01b0389168152610100602082018190526000906150b18382018b61465a565b905088604084015282810360608401526150cb8189614ac7565b90508660808401528560a084015282810360c08401526150eb8186614ac7565b905082810360e08401526150ff8185614ac7565b9b9a5050505050505050505050565b6000806040838503121561512157600080fd5b82516001600160401b038082111561513857600080fd5b614dd386838701614d42565b6001600160a01b03851681526080602082018190526000906151689083018661465a565b8460408401528281036060840152613b4b8185614ac7565b60006101008083526151948184018c61465a565b905089602084015282810360408401526151ae818a614ac7565b6001600160a01b0389811660608601528816608085015260a0840187905283810360c085015290506151e08186614ac7565b9150508260e08301529998505050505050505050565b6001600160a01b038581168252841660208201526080604082018190526000906152229083018561465a565b8281036060840152613b4b8185614ac7565b86815260c06020820152600061524d60c083018861465a565b828103604084015261525f8188614ac7565b6060840196909652505060808101929092526001600160a01b031660a0909101529392505050565b6001600160a01b038616815260a0602082018190526000906152ab9083018761465a565b85604084015282810360608401526152c38186614ac7565b9150508260808301529695505050505050565b60018060a01b0384168152826020820152606060408201526000614ff86060830184614ac7565b6000806040838503121561531057600080fd5b82516001600160401b0381111561532657600080fd5b61533285828601614d42565b925050602083015190509250929050565b6001600160a01b038a81168252898116602083015260408201899052610120606083018190526000916153788483018b61465a565b91508089166080850152508660a084015282810360c084015261539b818761465a565b905082810360e08401526153af8186614ac7565b915050826101008301529a9950505050505050505050565b600080604083850312156153da57600080fd5b505080516020909101519092909150565b6080815260006153fe608083018761465a565b82810360208401526154108187614ac7565b604084019590955250506060015292915050565b600082516154368184602087016143ca565b919091019291505056fea2646970667358221220fcc119c3fd2c6dbc71e5638429e85838e44225697725e8432e92e553174ae37a64736f6c63430008110033",
  "deployedBytecode": "0x608060405234801561001057600080fd5b50600436106102ab5760003560e01c80636ffb4c8e11610172578063a3f4df7e116100d9578063c2b18aa011610092578063c2b18aa0146105f5578063cd4c81561461060a578063ceee861d1461061d578063d295ea7014610641578063de3d047c1461064a578063dee1f0e41461065d578063f77c47911461067057600080fd5b8063a3f4df7e14610566578063a6f19c84146105a2578063ab9e3eee146105b5578063b2457556146105bc578063b429afeb146105cf578063bd38837b146105e257600080fd5b8063877887821161012b57806387788782146104e757806387c7f770146104f05780638b4c770714610503578063936725ec1461052757806396b7b14e1461054b5780639d0bcca01461055e57600080fd5b80636ffb4c8e1461045857806371ee01751461046b57806373a50ef51461047457806378327438146104985780637cc96380146104b85780637efc77fa146104c057600080fd5b80634593144c1161021657806354679963116101cf57806354679963146103e75780635641ec03146103fc5780635cfc1a51146104045780636207a0cf1461040e57806363e27734146104325780636855f30e1461044557600080fd5b80634593144c1461038c5780634ad0b684146103945780634e71d92d1461039c5780634fa5d854146103a45780634fac6ccd146103c157806351e03fbe146103d457600080fd5b8063261efa1211610268578063261efa1214610331578063325a19f11461033a57806333c5b58e1461034257806338d52e0f1461034a5780633cd8045e146103705780633e0dc34e1461038357600080fd5b806301e1d114146102b057806301ffc9a7146102cb57806306552ff3146102ee5780630acd12c7146103035780630e30428d1461030b57806322b6f5e21461031e575b600080fd5b6102b8610678565b6040519081526020015b60405180910390f35b6102de6102d9366004614289565b610708565b60405190151581526020016102c2565b6103016102fc3660046142c8565b610733565b005b6102b861091b565b610301610319366004614324565b610a44565b61030161032c366004614350565b610ae8565b6102b860365481565b6102b8610b98565b6102b8610bcc565b600054610363906201000090046001600160a01b031681565b6040516102c29190614380565b600154610363906001600160a01b031681565b6102b860645481565b6102b8610c44565b6032546102b8565b610301610c74565b6103ac610cee565b604080519283526020830191909152016102c2565b6103016103cf366004614394565b610d53565b6102b86103e23660046143b1565b610e85565b6103ef611054565b6040516102c291906143ee565b6103016110e2565b600160ff1b6102b8565b6103ef60405180604001604052806005815260200164312e302e3160d81b81525081565b610301610440366004614421565b611182565b6103016104533660046143b1565b611209565b6103016104663660046143b1565b611281565b6102b860355481565b6103ef604051806040016040528060058152602001640322e332e360dc1b81525081565b6102b86104a6366004614394565b60346020526000908152604090205481565b6102b86112f9565b6103ef604051806040016040528060088152602001672130b630b731b2b960c11b81525081565b6102b860055481565b6102b86104fe366004614324565b611329565b6103ef604051806040016040528060058152602001640312e302e360dc1b81525081565b6103ef604051806040016040528060058152602001640332e302e360dc1b81525081565b610301610559366004614566565b6114b3565b610363611552565b6103ef6040518060400160405280601981526020017f42616c616e63657220426f6f737465642053747261746567790000000000000081525081565b606554610363906001600160a01b031681565b60016102de565b6102b86105ca366004614635565b611582565b6102de6105dd366004614394565b611638565b603354610363906001600160a01b031681565b6105fd61165d565b6040516102c2919061469e565b600454610363906001600160a01b031681565b6103ef604051806040016040528060058152602001640312e322e360dc1b81525081565b6102b860025481565b6103016106583660046143b1565b6117f2565b6102de61066b366004614394565b61186e565b6103636118f3565b600061068360325490565b6000546040516370a0823160e01b8152620100009091046001600160a01b0316906370a08231906106b8903090600401614380565b602060405180830381865afa1580156106d5573d6000803e3d6000fd5b505050506040513d601f19601f820116820180604052508101906106f991906146b1565b61070391906146e0565b905090565b60006001600160e01b0319821663f73147b360e01b148061072d575061072d82611923565b92915050565b600054610100900460ff16158080156107535750600054600160ff909116105b8061076d5750303b15801561076d575060005460ff166001145b6107d55760405162461bcd60e51b815260206004820152602e60248201527f496e697469616c697a61626c653a20636f6e747261637420697320616c72656160448201526d191e481a5b9a5d1a585b1a5e995960921b60648201526084015b60405180910390fd5b6000805460ff1916600117905580156107f8576000805461ff0019166101001790555b61080182611948565b61080c858585611a7d565b60405163923a3ca960e01b815273__$e2d6e18942209f9a9d99e72afc74bc8af1$__9063923a3ca990610843908590600401614380565b600060405180830381865af4158015610860573d6000803e3d6000fd5b505050506040513d6000823e601f3d908101601f1916820160405261088891908101906146f3565b6006906108959082614808565b507f13bdeb5b5bb760c04b92d93e56c576c6805359d41a13d3cca178aa7c8526b98460066040516108c691906148c7565b60405180910390a18015610914576000805461ff0019169055604051600181527f7f26b83ff96e1f2b6a682f133852f6798a09c465da95921460cefb38474024989060200160405180910390a15b5050505050565b60015460008054604051633e53813360e11b815291926001600160a01b0390811692620100009092041690839073__$ec217c54da363a68ad871e6868efec481c$__90637ca70266906109749086908690600401614952565b602060405180830381865af4158015610991573d6000803e3d6000fd5b505050506040513d601f19601f820116820180604052508101906109b591906146b1565b905060008060006109c4611b1f565b92509250925073__$ec217c54da363a68ad871e6868efec481c$__639ad00ec2868686868b6040518663ffffffff1660e01b8152600401610a0995949392919061496c565b60006040518083038186803b158015610a2157600080fd5b505af4158015610a35573d6000803e3d6000fd5b50929998505050505050505050565b73__$8f1afe7577f9ab973017c74eca19b86f3c$__63142395ef610a666118f3565b6040516001600160e01b031960e084901b1681526001600160a01b03918216600482015290851660248201526044810184905260640160006040518083038186803b158015610ab457600080fd5b505af4158015610ac8573d6000803e3d6000fd5b5050506001600160a01b0390921660009081526034602052604090205550565b73__$ec217c54da363a68ad871e6868efec481c$__63b4339948610b0a6118f3565b6040516001600160e01b031960e084901b1681526001600160a01b03918216600482015260248101869052908416604482015260640160006040518083038186803b158015610b5857600080fd5b505af4158015610b6c573d6000803e3d6000fd5b505050600592909255600480546001600160a01b0319166001600160a01b039290921691909117905550565b6000610703610bc860017f6f55f470bdc9cb5f04223fd822021061668e4dccb43e8727b295106dc9769c8b61499c565b5490565b600073__$ec217c54da363a68ad871e6868efec481c$__63493f6edc610bf06118f3565b6040518263ffffffff1660e01b8152600401610c0c9190614380565b60006040518083038186803b158015610c2457600080fd5b505af4158015610c38573d6000803e3d6000fd5b50505050610703611b3a565b6000610703610bc860017f812a673dfca07956350df10f8a654925f561d7a0da09bdbe79e653939a14d9f161499c565b73__$ec217c54da363a68ad871e6868efec481c$__63d19cc38a610c966118f3565b6040518263ffffffff1660e01b8152600401610cb29190614380565b60006040518083038186803b158015610cca57600080fd5b505af4158015610cde573d6000803e3d6000fd5b50505050610cea611c07565b5050565b60015460408051808201909152600a81526914d08e8811195b9a595960b21b60208201526000918291906001600160a01b03163314610d405760405162461bcd60e51b81526004016107cc91906143ee565b50610d4b6001611cc3565b915091509091565b333014610da25760405162461bcd60e51b815260206004820152601b60248201527f496e637265617365207265766973696f6e20666f7262696464656e000000000060448201526064016107cc565b6000610dd2610bc860017f22573091f17911fb166032a3d9e0554aa73d31b7b7ddea4a4dd2995650af84bd61499c565b610ddd9060016146e0565b9050610e1181610e0e60017f22573091f17911fb166032a3d9e0554aa73d31b7b7ddea4a4dd2995650af84bd61499c565b55565b610e4082610e0e60017fbfaaa2fb63266ff27c2da975f5894955056f50419af651a81f6c5060581857e461499c565b604080518281526001600160a01b03841660208201527ff27e2ef832a4eb8ed8ec553b875eecd44764cda95b1c24170e281539e0a869c8910160405180910390a15050565b60015460008054604051633e53813360e11b815291926001600160a01b0390811692620100009092041690839073__$ec217c54da363a68ad871e6868efec481c$__90637ca7026690610ede9086908690600401614952565b602060405180830381865af4158015610efb573d6000803e3d6000fd5b505050506040513d601f19601f82011682018060405250810190610f1f91906146b1565b905080851115610fcb57600080610f3e610f39848961499c565b611df2565b604051631594b05b60e01b8152909850919350915073__$ec217c54da363a68ad871e6868efec481c$__90631594b05b90610f859087908790879087908c9060040161496c565b602060405180830381865af4158015610fa2573d6000803e3d6000fd5b505050506040513d601f19601f82011682018060405250810190610fc691906146b1565b925050505b6040516333bbb20360e11b815260048101869052602481018290526001600160a01b0380841660448301528416606482015273__$ec217c54da363a68ad871e6868efec481c$__9063677764069060840160006040518083038186803b15801561103457600080fd5b505af4158015611048573d6000803e3d6000fd5b50505050505050919050565b6006805461106190614786565b80601f016020809104026020016040519081016040528092919081815260200182805461108d90614786565b80156110da5780601f106110af576101008083540402835291602001916110da565b820191906000526020600020905b8154815290600101906020018083116110bd57829003601f168201915b505050505081565b6110ea611e23565b73__$ec217c54da363a68ad871e6868efec481c$__63bd02068261110c6118f3565b60005460015460405160e085901b6001600160e01b03191681526001600160a01b039384166004820152620100009092048316602483015291909116604482015260640160006040518083038186803b15801561116857600080fd5b505af415801561117c573d6000803e3d6000fd5b50505050565b73__$ec217c54da363a68ad871e6868efec481c$__63eae13e766111a46118f3565b84846040518463ffffffff1660e01b81526004016111c4939291906149af565b60006040518083038186803b1580156111dc57600080fd5b505af41580156111f0573d6000803e3d6000fd5b5060069250611204915083905084836149ef565b505050565b73__$8f1afe7577f9ab973017c74eca19b86f3c$__63a0113d4861122b6118f3565b836040518363ffffffff1660e01b8152600401611249929190614aae565b60006040518083038186803b15801561126157600080fd5b505af4158015611275573d6000803e3d6000fd5b50505060369190915550565b73__$8f1afe7577f9ab973017c74eca19b86f3c$__63d2c3cf256112a36118f3565b836040518363ffffffff1660e01b81526004016112c1929190614aae565b60006040518083038186803b1580156112d957600080fd5b505af41580156112ed573d6000803e3d6000fd5b50505060359190915550565b6000610703610bc860017f22573091f17911fb166032a3d9e0554aa73d31b7b7ddea4a4dd2995650af84bd61499c565b60335460408051808201909152600a81526914d08e8811195b9a595960b21b60208201526000916001600160a01b03169033821461137a5760405162461bcd60e51b81526004016107cc91906143ee565b5060008061138786611f2a565b91509150600061139687611f96565b9050858110156113fc5760006113aa612006565b905080156113fa5760006113bd826120b0565b90507faebc771af58936b05e89b0be7d3f9761480181abcd4a649fbdd01753fda1697082826040516113f0929190614af7565b60405180910390a1505b505b73__$e930d50fb5f4f1298547dbcb2bb0591990$__6399c1fde4878486886114226118f3565b60005460405160e088901b6001600160e01b031916815261145d9695949392916201000090046001600160a01b031690603490600401614b10565b602060405180830381865af415801561147a573d6000803e3d6000fd5b505050506040513d601f19601f8201168201806040525081019061149e91906146b1565b94506114a8612378565b505050505092915050565b60335460408051808201909152600a81526914d08e8811195b9a595960b21b6020820152906001600160a01b031633146115005760405162461bcd60e51b81526004016107cc91906143ee565b508151815160408051808201909152600d81526c54532d3139206c656e6774687360981b60208201529082146115495760405162461bcd60e51b81526004016107cc91906143ee565b5061117c612378565b6000610703610bc860017fbfaaa2fb63266ff27c2da975f5894955056f50419af651a81f6c5060581857e461499c565b600154600080546040516001625acc3160e01b031981529192839273__$ec217c54da363a68ad871e6868efec481c$__9263ffa533cf926115db926001600160a01b039182169262010000900490911690600401614952565b602060405180830381865af41580156115f8573d6000803e3d6000fd5b505050506040513d601f19601f8201168201806040525081019061161c91906146b1565b905080156116315761162e818461238c565b91505b5092915050565b60006116426118f3565b6001600160a01b0316826001600160a01b0316149050919050565b606060005b60088110156116f7576065546040516354c49fe960e01b8152600481018390526000916001600160a01b0316906354c49fe990602401602060405180830381865afa1580156116b5573d6000803e3d6000fd5b505050506040513d601f19601f820116820180604052508101906116d99190614b5f565b6001600160a01b0316146116f7576116f081614b7c565b9050611662565b806001600160401b0381111561170f5761170f614492565b604051908082528060200260200182016040528015611738578160200160208202803683370190505b50915060005b818110156117ed576065546040516354c49fe960e01b8152600481018390526001600160a01b03909116906354c49fe990602401602060405180830381865afa15801561178f573d6000803e3d6000fd5b505050506040513d601f19601f820116820180604052508101906117b39190614b5f565b8382815181106117c5576117c5614b95565b6001600160a01b03909216602092830291909101909101526117e681614b7c565b905061173e565b505090565b73__$ec217c54da363a68ad871e6868efec481c$__630568a9d56118146118f3565b600254846040518463ffffffff1660e01b815260040161183693929190614bab565b60006040518083038186803b15801561184e57600080fd5b505af4158015611862573d6000803e3d6000fd5b50505060029190915550565b6000816001600160a01b03166118826118f3565b6001600160a01b0316635aa6e6756040518163ffffffff1660e01b8152600401602060405180830381865afa1580156118bf573d6000803e3d6000fd5b505050506040513d601f19601f820116820180604052508101906118e39190614b5f565b6001600160a01b03161492915050565b6000610703610bc860017f5165972ef41194f06c5007493031d0b927c20741adcb74403b954009fd2c361861499c565b60006001600160e01b0319821663c19fa56160e01b148061072d575061072d826123b3565b600054610100900460ff1661196f5760405162461bcd60e51b81526004016107cc90614bcc565b806001600160a01b03166338fff2d06040518163ffffffff1660e01b8152600401602060405180830381865afa1580156119ad573d6000803e3d6000fd5b505050506040513d601f19601f820116820180604052508101906119d191906146b1565b60645560405163a8ea687560e01b8152733b8ca519122cdd8efb272b0d3085453404b25bd09063a8ea687590611a0b908490600401614380565b602060405180830381865afa158015611a28573d6000803e3d6000fd5b505050506040513d601f19601f82011682018060405250810190611a4c9190614b5f565b606580546001600160a01b0319166001600160a01b03928316908117909155611a7a918316906000196123e8565b50565b600054610100900460ff16611aa45760405162461bcd60e51b81526004016107cc90614bcc565b611aae8383612522565b603380546001600160a01b0319166001600160a01b038316179055611ad76064620186a0614c17565b6035557fe4166dfcf23bbd3e3f764a99dc8fa740554c03c82d6019b81cf265f396f6f2fe611b096064620186a0614c17565b60405190815260200160405180910390a1505050565b6000806000611b2f600019611df2565b925092509250909192565b6000806000611b5d600060029054906101000a90046001600160a01b0316611f2a565b9150915073__$e930d50fb5f4f1298547dbcb2bb0591990$__63c9bce69083611b8c611b87612006565b6126f6565b6033546040516001600160e01b031960e086901b168152611bbf93929187916001600160a01b0390911690600401614c39565b602060405180830381865af4158015611bdc573d6000803e3d6000fd5b505050506040513d601f19601f82011682018060405250810190611c0091906146b1565b9250505090565b6060806000806000611c17612821565b603354929550909350915073__$8f1afe7577f9ab973017c74eca19b86f3c$__9063e99de4da906001600160a01b0316611c4f6128c3565b8686866040518663ffffffff1660e01b8152600401611c72959493929190614c80565b600060405180830381865af4158015611c8f573d6000803e3d6000fd5b505050506040513d6000823e601f3d908101601f19168201604052611cb79190810190614d9d565b90969095509350505050565b600080600080611cd3600161295a565b915091506000611ce1612a13565b919650945090506000611d28878015611d145750620186a085603554611d079190614df6565b611d119190614c17565b83115b611d1f576000611d21565b825b8486612aa3565b91506000905080611d75611d3c85886146e0565b6000548590611d59906201000090046001600160a01b0316611f96565b603254611d6691906146e0565b611d7091906146e0565b612d6e565b915091506040805187815260208101879052908101899052606081018890526080810183905260a081018290527f3e9abbc366dbf9fe260e2640c06eefbedd7720cf986ae553374e46b804f4ff559060c00160405180910390a1611dd982896146e0565b611de382896146e0565b97509750505050505050915091565b6000806000806000611e04600161295a565b91509150611e13868284612d9e565b5091989097509095509350505050565b6000611e2d613479565b90507f768a28cb3459382a3d2173feb2dad0235f8de680b109872da581a3aa269fe5f481604051611e5e9190614e0d565b60405180910390a1600080548190611e84906201000090046001600160a01b0316611f2a565b603354919350915073__$e930d50fb5f4f1298547dbcb2bb0591990$__906358b54f16906001600160a01b0316611ec1611ebc6118f3565b61348b565b846034600019886040518763ffffffff1660e01b8152600401611ee996959493929190614e20565b602060405180830381865af4158015611f06573d6000803e3d6000fd5b505050506040513d601f19601f8201168201806040525081019061154991906146b1565b60606000611f366128c3565b9150611f4282846134ef565b90506000198114156040518060400160405280600f81526020016e53423a2057726f6e672076616c756560881b81525090611f905760405162461bcd60e51b81526004016107cc91906143ee565b50915091565b6040516370a0823160e01b81526000906001600160a01b038316906370a0823190611fc5903090600401614380565b602060405180830381865afa158015611fe2573d6000803e3d6000fd5b505050506040513d601f19601f8201168201806040525081019061072d91906146b1565b600061201460645460601c90565b6001600160a01b03166370a08231306040518263ffffffff1660e01b815260040161203f9190614380565b602060405180830381865afa15801561205c573d6000803e3d6000fd5b505050506040513d601f19601f8201168201806040525081019061208091906146b1565b6065546040516370a0823160e01b81526001600160a01b03909116906370a08231906106b8903090600401614380565b6064546065546040516370a0823160e01b8152606092916001600160a01b03169082841c9060009082906370a08231906120ee903090600401614380565b602060405180830381865afa15801561210b573d6000803e3d6000fd5b505050506040513d601f19601f8201168201806040525081019061212f91906146b1565b90506000836001600160a01b03166370a08231306040518263ffffffff1660e01b815260040161215f9190614380565b602060405180830381865afa15801561217c573d6000803e3d6000fd5b505050506040513d601f19601f820116820180604052508101906121a091906146b1565b905060008288116121b25760006121bc565b6121bc838961499c565b905080156121cf57818111156121cf5750805b801561223057604051632e1a7d4d60e01b8152600481018290526001600160a01b03861690632e1a7d4d90602401600060405180830381600087803b15801561221757600080fd5b505af115801561222b573d6000803e3d6000fd5b505050505b61223a82846146e0565b8810156122da5760405163209f6ae760e01b815273__$e2d6e18942209f9a9d99e72afc74bc8af1$__9063209f6ae7906122909073ba12222222228d8ba445958a75a0704d566bf2c8908a908690600401614bab565b600060405180830381865af41580156122ad573d6000803e3d6000fd5b505050506040513d6000823e601f3d908101601f191682016040526122d59190810190614e5d565b61236c565b604051634b4c46fd60e01b815273__$e2d6e18942209f9a9d99e72afc74bc8af1$__90634b4c46fd906123279073ba12222222228d8ba445958a75a0704d566bf2c8908a90600401614aae565b600060405180830381865af4158015612344573d6000803e3d6000fd5b505050506040513d6000823e601f3d908101601f1916820160405261236c9190810190614e5d565b98975050505050505050565b6000612382611b3a565b6032819055919050565b600080600061239a8461295a565b915091506123a9858284612aa3565b5095945050505050565b60006001600160e01b0319821663b7b79fa960e01b148061072d57506301ffc9a760e01b6001600160e01b031983161461072d565b8015806124615750604051636eb1769f60e11b81526001600160a01b0384169063dd62ed3e9061241e9030908690600401614952565b602060405180830381865afa15801561243b573d6000803e3d6000fd5b505050506040513d601f19601f8201168201806040525081019061245f91906146b1565b155b6124cc5760405162461bcd60e51b815260206004820152603660248201527f5361666545524332303a20617070726f76652066726f6d206e6f6e2d7a65726f60448201527520746f206e6f6e2d7a65726f20616c6c6f77616e636560501b60648201526084016107cc565b6112048363095ea7b360e01b84846040516024016124eb929190614aae565b60408051601f198184030181529190526020810180516001600160e01b03166001600160e01b03199093169290921790915261354d565b600054610100900460ff166125495760405162461bcd60e51b81526004016107cc90614bcc565b612573817fd2de0374d4479f33e63ae5ed6ca772a10463dd883a90c612050b51fab619640061361f565b61257c82613675565b60405163b429afeb60e01b81526001600160a01b0382169063b429afeb906125a8908590600401614380565b602060405180830381865afa1580156125c5573d6000803e3d6000fd5b505050506040513d601f19601f820116820180604052508101906125e99190614e91565b6040518060400160405280600f81526020016e53423a2057726f6e672076616c756560881b8152509061262f5760405162461bcd60e51b81526004016107cc91906143ee565b50806001600160a01b03166338d52e0f6040518163ffffffff1660e01b8152600401602060405180830381865afa15801561266e573d6000803e3d6000fd5b505050506040513d601f19601f820116820180604052508101906126929190614b5f565b600080546001600160a01b03928316620100000262010000600160b01b031990911617905560018054929091166001600160a01b031992831617905560048054909116739cc199d4353b5fb3e6c8eebc99f5139e0d8ea06b17905550612710600555565b60606000612702612006565b90508060000361275d576127146128c3565b516001600160401b0381111561272c5761272c614492565b604051908082528060200260200182016040528015612755578160200160208202803683370190505b509392505050565b6064805460405163f91294e960e01b815273ba12222222228d8ba445958a75a0704d566bf2c8600482015273239e55f427d44c3cc793f49bfb507ebe76638a2b6024820152604481019190915290810184905273__$e2d6e18942209f9a9d99e72afc74bc8af1$__9063f91294e990608401600060405180830381865af41580156127ec573d6000803e3d6000fd5b505050506040513d6000823e601f3d908101601f191682016040526128149190810190614e5d565b9392505050565b50919050565b6065546060908190819073__$e2d6e18942209f9a9d99e72afc74bc8af1$__90633a7e535c906001600160a01b03166128586128c3565b61286061165d565b6040518463ffffffff1660e01b815260040161287e93929190614eae565b600060405180830381865af415801561289b573d6000803e3d6000fd5b505050506040513d6000823e601f3d908101601f19168201604052611b2f9190810190614eee565b606454604051633db1bdf160e11b815260609173__$e2d6e18942209f9a9d99e72afc74bc8af1$__91637b637be2916129159173ba12222222228d8ba445958a75a0704d566bf2c89190600401614aae565b600060405180830381865af4158015612932573d6000803e3d6000fd5b505050506040513d6000823e601f3d908101601f191682016040526107039190810190614f75565b6000808215612a075760325461296e612378565b600154604051636e5b9cc760e11b815260048101849052602481018390526001600160a01b03909116604482015290935073__$e930d50fb5f4f1298547dbcb2bb0591990$__9063dcb7398e90606401602060405180830381865af41580156129db573d6000803e3d6000fd5b505050506040513d601f19601f820116820180604052508101906129ff91906146b1565b915050915091565b50506032546000915091565b600080600080612a37600060029054906101000a90046001600160a01b0316611f96565b9050600080612a44611c07565b91509150612a52828261388e565b600054612a6d906201000090046001600160a01b0316611f96565b9350600080612a7c8587612d6e565b9092509050612a8b82896146e0565b612a9582896146e0565b975097505050505050909192565b6000805481906201000090046001600160a01b031681858711612ac7576000612ad1565b612ad1868861499c565b9050620186a085603554612ae59190614df6565b612aef9190614c17565b811115612c95578515612b9e5760015473__$8f1afe7577f9ab973017c74eca19b86f3c$__9063aac2718a90849089906001600160a01b0316612b3183611f96565b612b3b908b6146e0565b6040518563ffffffff1660e01b8152600401612b5a9493929190614fa9565b602060405180830381865af4158015612b77573d6000803e3d6000fd5b505050506040513d601f19601f82011682018060405250810190612b9b91906146b1565b92505b6000612ba983611f96565b9050600080612bcc600060029054906101000a90046001600160a01b0316611f2a565b6033549193509150600090612bec906001600160a01b031686858561392e565b90506000612bf982613b56565b5090507f59400c8c523464b521238ea8f50e923f2bc64663557e6afec92a97f7efe92d058282604051612c2d929190614fd3565b60405180910390a16000612c3f612378565b90506000612c4c89611f96565b9050612c58878d6146e0565b612c6282846146e0565b1015612c8957612c7281836146e0565b612c7c888e6146e0565b612c86919061499c565b9a505b50505050505050612d64565b8515612d64576000612ca683611f96565b905086811015612cc957612cbc60008888612d9e565b9097509550612d62915050565b60015473__$8f1afe7577f9ab973017c74eca19b86f3c$__9063aac2718a9085908a906001600160a01b0316612cff868c6146e0565b6040518563ffffffff1660e01b8152600401612d1e9493929190614fa9565b602060405180830381865af4158015612d3b573d6000803e3d6000fd5b505050506040513d601f19601f82011682018060405250810190612d5f91906146b1565b93505b505b5050935093915050565b60008083831115612d8a57612d83848461499c565b9150612d97565b612d94838561499c565b90505b9250929050565b600080600080612e3f604051806102200160405280600015158152602001606081526020016000815260200160008152602001600081526020016000815260200160608152602001600081526020016060815260200160008152602001600081526020016060815260200160006001600160a01b0316815260200160008152602001600081526020016060815260200160006001600160a01b031681525090565b60001988148082526000935080612e5e5750612e5b87896146e0565b15155b8015612e6957508515155b1561346057612e766128c3565b61016082018190526000546001600160a01b036201000090910481166101808401819052603354909116610200840152612eb091906134ef565b6101a0820152610180810151612ec590611f96565b6101c0820152612ed3613cce565b6020820152612ee0613d65565b6040820152612eed612006565b6060820152610200810151610180820151604051637a55caf360e01b815273__$e930d50fb5f4f1298547dbcb2bb0591990$__92637a55caf392612f3392600401614952565b602060405180830381865af4158015612f50573d6000803e3d6000fd5b505050506040513d601f19601f82011682018060405250810190612f7491906146b1565b60a0820152805173__$8f1afe7577f9ab973017c74eca19b86f3c$__9063ec0cc4fd90612faa57612fa5898b6146e0565b612fad565b60005b30846101600151856101a001518661020001518c88606001516040518863ffffffff1660e01b8152600401612fe89796959493929190615001565b600060405180830381865af4158015613005573d6000803e3d6000fd5b505050506040513d6000823e601f3d908101601f1916820160405261302d9190810190615050565b60c0830152608082018190521561316b5761304b81608001516120b0565b6101e0820152613059612006565b8160600151613068919061499c565b608082018190526101e08201516040517faebc771af58936b05e89b0be7d3f9761480181abcd4a649fbdd01753fda16970926130a5929091614af7565b60405180910390a173__$e930d50fb5f4f1298547dbcb2bb0591990$__637a9a23e5826102000151836101600151846101a001518560200151866080015187604001518860c00151896101e001516040518963ffffffff1660e01b815260040161311698979695949392919061508c565b600060405180830381865af4158015613133573d6000803e3d6000fd5b505050506040513d6000823e601f3d908101601f1916820160405261315b919081019061510e565b60c0830152610100820152613207565b6102008101516101608201516101a083015160c0840151604051636138ea8560e01b815273__$e930d50fb5f4f1298547dbcb2bb0591990$__94636138ea85946131bb9491939092600401615144565b600060405180830381865af41580156131d8573d6000803e3d6000fd5b505050506040513d6000823e601f3d908101601f191682016040526132009190810190614e5d565b6101008201525b73__$e930d50fb5f4f1298547dbcb2bb0591990$__63f1f2b573826101600151836101a001518460c00151856102000151613243611ebc6118f3565b875161325a578d8f61325591906146e0565b61325c565b8e5b88610100015160346040518963ffffffff1660e01b8152600401613287989796959493929190615180565b602060405180830381865af41580156132a4573d6000803e3d6000fd5b505050506040513d601f19601f820116820180604052508101906132c891906146b1565b8160e0018181516132d991906146e0565b9052508615613388576101808101516001546101c083015173__$8f1afe7577f9ab973017c74eca19b86f3c$__9263aac2718a9290918b916001600160a01b031690613325908c6146e0565b6040518563ffffffff1660e01b81526004016133449493929190614fa9565b602060405180830381865af4158015613361573d6000803e3d6000fd5b505050506040513d601f19601f8201168201806040525081019061338591906146b1565b91505b613390612378565b6101208201526101808101516133a590611f96565b6101408201526101c08101516133bb90876146e0565b878261014001518361012001516133d291906146e0565b6133dc91906146e0565b101561342a57868161014001518261012001516133f991906146e0565b61340391906146e0565b6101c082015161341390886146e0565b61341d919061499c565b61342790846146e0565b92505b670de0b6b3a76400008160a001518260e001516134479190614df6565b6134519190614c17565b8160a001519450945050613470565b6000806000809450945094509450505b93509350935093565b6060610703613486612006565b6120b0565b6000816001600160a01b0316634046ebae6040518163ffffffff1660e01b8152600401602060405180830381865afa1580156134cb573d6000803e3d6000fd5b505050506040513d601f19601f8201168201806040525081019061072d9190614b5f565b8151600090815b8181101561354157836001600160a01b031685828151811061351a5761351a614b95565b60200260200101516001600160a01b03160361353957915061072d9050565b6001016134f6565b50600019949350505050565b60006135a2826040518060400160405280602081526020017f5361666545524332303a206c6f772d6c6576656c2063616c6c206661696c6564815250856001600160a01b0316613dd49092919063ffffffff16565b80519091501561120457808060200190518101906135c09190614e91565b6112045760405162461bcd60e51b815260206004820152602a60248201527f5361666545524332303a204552433230206f7065726174696f6e20646964206e6044820152691bdd081cdd58d8d9595960b21b60648201526084016107cc565b6136298282613deb565b610cea5760405162461bcd60e51b815260206004820152601a60248201527f496e74657266616365206973206e6f7420737570706f7274656400000000000060448201526064016107cc565b600054610100900460ff1661369c5760405162461bcd60e51b81526004016107cc90614bcc565b6001600160a01b0381166136e45760405162461bcd60e51b815260206004820152600f60248201526e2d32b9379031b7b73a3937b63632b960891b60448201526064016107cc565b61370e817f4c2403fdcb3cff9b705d96bf0705858e3390412670a62c8bcba611ca7e20ab8661361f565b60006001600160a01b0316816001600160a01b0316635aa6e6756040518163ffffffff1660e01b8152600401602060405180830381865afa158015613757573d6000803e3d6000fd5b505050506040513d601f19601f8201168201806040525081019061377b9190614b5f565b6001600160a01b0316036137c35760405162461bcd60e51b815260206004820152600f60248201526e5a65726f20676f7665726e616e636560881b60448201526064016107cc565b6137f281610e0e60017f5165972ef41194f06c5007493031d0b927c20741adcb74403b954009fd2c361861499c565b61382142610e0e60017f6f55f470bdc9cb5f04223fd822021061668e4dccb43e8727b295106dc9769c8b61499c565b61385043610e0e60017f812a673dfca07956350df10f8a654925f561d7a0da09bdbe79e653939a14d9f161499c565b7f1a2dd071001ebf6e03174e3df5b305795a4ad5d41d8fdb9ba41dbbe23671342681424360405161388393929190614bab565b60405180910390a150565b815180156112045760006138a28484613ec9565b905073__$8f1afe7577f9ab973017c74eca19b86f3c$__63acf741a36138c66118f3565b6001546040516001600160e01b031960e085901b1681526138f892916001600160a01b031690899087906004016151f6565b60006040518083038186803b15801561391057600080fd5b505af4158015613924573d6000803e3d6000fd5b5050505050505050565b606060008061393b614087565b9150915073__$8f1afe7577f9ab973017c74eca19b86f3c$__6359d0ede687878585898d6001600160a01b031663f77c47916040518163ffffffff1660e01b8152600401602060405180830381865afa15801561399c573d6000803e3d6000fd5b505050506040513d601f19601f820116820180604052508101906139c09190614b5f565b6001600160a01b0316632630c12f6040518163ffffffff1660e01b8152600401602060405180830381865afa1580156139fd573d6000803e3d6000fd5b505050506040513d601f19601f82011682018060405250810190613a219190614b5f565b6040518763ffffffff1660e01b8152600401613a4296959493929190615234565b600060405180830381865af4158015613a5f573d6000803e3d6000fd5b505050506040513d6000823e601f3d908101601f19168201604052613a879190810190614e5d565b925073__$e930d50fb5f4f1298547dbcb2bb0591990$__631a2221c788878787603460008c8c81518110613abd57613abd614b95565b60200260200101516001600160a01b03166001600160a01b03168152602001908152602001600020546040518663ffffffff1660e01b8152600401613b06959493929190615287565b600060405180830381865af4158015613b23573d6000803e3d6000fd5b505050506040513d6000823e601f3d908101601f19168201604052613b4b9190810190614e5d565b979650505050505050565b60645460405163423511a360e01b815260609160009181841c9073__$e2d6e18942209f9a9d99e72afc74bc8af1$__9063423511a390613bb29073ba12222222228d8ba445958a75a0704d566bf2c89086908a906004016152d6565b600060405180830381865af4158015613bcf573d6000803e3d6000fd5b505050506040513d6000823e601f3d908101601f19168201604052613bf791908101906152fd565b6065546040516370a0823160e01b81529296509094506001600160a01b039081169163b6b55f25918416906370a0823190613c36903090600401614380565b602060405180830381865afa158015613c53573d6000803e3d6000fd5b505050506040513d601f19601f82011682018060405250810190613c7791906146b1565b6040518263ffffffff1660e01b8152600401613c9591815260200190565b600060405180830381600087803b158015613caf57600080fd5b505af1158015613cc3573d6000803e3d6000fd5b505050505050915091565b60645460405163464a5ef760e01b815260609173__$e2d6e18942209f9a9d99e72afc74bc8af1$__9163464a5ef791613d209173ba12222222228d8ba445958a75a0704d566bf2c89190600401614aae565b600060405180830381865af4158015613d3d573d6000803e3d6000fd5b505050506040513d6000823e601f3d908101601f191682016040526107039190810190614e5d565b6000613d7360645460601c90565b6001600160a01b031663876f303b6040518163ffffffff1660e01b8152600401602060405180830381865afa158015613db0573d6000803e3d6000fd5b505050506040513d601f19601f8201168201806040525081019061070391906146b1565b6060613de38484600085614120565b949350505050565b60006001600160a01b038316613e325760405162461bcd60e51b815260206004820152600c60248201526b5a65726f206164647265737360a01b60448201526064016107cc565b823b6000819003613e4757600091505061072d565b6040516301ffc9a760e01b81526001600160e01b0319841660048201526001600160a01b038516906301ffc9a790602401602060405180830381865afa925050508015613eb1575060408051601f3d908101601f19168201909252613eae91810190614e91565b60015b15613ebf57915061072d9050565b5060009392505050565b60008054603354600254606093620100009093046001600160a01b03908116939273__$e930d50fb5f4f1298547dbcb2bb0591990$__9263ef50284f92909116908590613f146128c3565b613f1f611ebc6118f3565b60348c8c6005546040518a63ffffffff1660e01b8152600401613f4a99989796959493929190615343565b600060405180830381865af4158015613f67573d6000803e3d6000fd5b505050506040513d6000823e601f3d908101601f19168201604052613f8f91908101906152fd565b60015460048054603654604051631248faf160e21b81526001600160a01b03808a16948201949094526024810186905293831660448501529116606483015260848201529194509150600090819073__$8f1afe7577f9ab973017c74eca19b86f3c$__90634923ebc49060a4016040805180830381865af4158015614018573d6000803e3d6000fd5b505050506040513d601f19601f8201168201806040525081019061403c91906153c7565b915091507f4c300a656bfa0935e36cd55e92634bc20b2b7e0a0ebf424a2a25bfaac3a01e768786848460405161407594939291906153eb565b60405180910390a15050505092915050565b60645460405163552ad6a160e11b815260609160009173__$e2d6e18942209f9a9d99e72afc74bc8af1$__9163aa55ad42916140db9173ba12222222228d8ba445958a75a0704d566bf2c891600401614aae565b600060405180830381865af41580156140f8573d6000803e3d6000fd5b505050506040513d6000823e601f3d908101601f19168201604052610d4b91908101906152fd565b6060824710156141815760405162461bcd60e51b815260206004820152602660248201527f416464726573733a20696e73756666696369656e742062616c616e636520666f6044820152651c8818d85b1b60d21b60648201526084016107cc565b600080866001600160a01b0316858760405161419d9190615424565b60006040518083038185875af1925050503d80600081146141da576040519150601f19603f3d011682016040523d82523d6000602084013e6141df565b606091505b5091509150613b4b878383876060831561425a578251600003614253576001600160a01b0385163b6142535760405162461bcd60e51b815260206004820152601d60248201527f416464726573733a2063616c6c20746f206e6f6e2d636f6e747261637400000060448201526064016107cc565b5081613de3565b613de3838381511561426f5781518083602001fd5b8060405162461bcd60e51b81526004016107cc91906143ee565b60006020828403121561429b57600080fd5b81356001600160e01b03198116811461281457600080fd5b6001600160a01b0381168114611a7a57600080fd5b600080600080608085870312156142de57600080fd5b84356142e9816142b3565b935060208501356142f9816142b3565b92506040850135614309816142b3565b91506060850135614319816142b3565b939692955090935050565b6000806040838503121561433757600080fd5b8235614342816142b3565b946020939093013593505050565b6000806040838503121561436357600080fd5b823591506020830135614375816142b3565b809150509250929050565b6001600160a01b0391909116815260200190565b6000602082840312156143a657600080fd5b8135612814816142b3565b6000602082840312156143c357600080fd5b5035919050565b60005b838110156143e55781810151838201526020016143cd565b50506000910152565b602081526000825180602084015261440d8160408501602087016143ca565b601f01601f19169190910160400192915050565b6000806020838503121561443457600080fd5b82356001600160401b038082111561444b57600080fd5b818501915085601f83011261445f57600080fd5b81358181111561446e57600080fd5b86602082850101111561448057600080fd5b60209290920196919550909350505050565b634e487b7160e01b600052604160045260246000fd5b604051601f8201601f191681016001600160401b03811182821017156144d0576144d0614492565b604052919050565b60006001600160401b038211156144f1576144f1614492565b5060051b60200190565b600082601f83011261450c57600080fd5b8135602061452161451c836144d8565b6144a8565b82815260059290921b8401810191818101908684111561454057600080fd5b8286015b8481101561455b5780358352918301918301614544565b509695505050505050565b6000806040838503121561457957600080fd5b82356001600160401b038082111561459057600080fd5b818501915085601f8301126145a457600080fd5b813560206145b461451c836144d8565b82815260059290921b840181019181810190898411156145d357600080fd5b948201945b838610156145fa5785356145eb816142b3565b825294820194908201906145d8565b9650508601359250508082111561461057600080fd5b5061461d858286016144fb565b9150509250929050565b8015158114611a7a57600080fd5b6000806040838503121561464857600080fd5b82359150602083013561437581614627565b600081518084526020808501945080840160005b838110156146935781516001600160a01b03168752958201959082019060010161466e565b509495945050505050565b602081526000612814602083018461465a565b6000602082840312156146c357600080fd5b5051919050565b634e487b7160e01b600052601160045260246000fd5b8082018082111561072d5761072d6146ca565b60006020828403121561470557600080fd5b81516001600160401b038082111561471c57600080fd5b818401915084601f83011261473057600080fd5b81518181111561474257614742614492565b614755601f8201601f19166020016144a8565b915080825285602082850101111561476c57600080fd5b61477d8160208401602086016143ca565b50949350505050565b600181811c9082168061479a57607f821691505b60208210810361281b57634e487b7160e01b600052602260045260246000fd5b601f82111561120457600081815260208120601f850160051c810160208610156147e15750805b601f850160051c820191505b81811015614800578281556001016147ed565b505050505050565b81516001600160401b0381111561482157614821614492565b6148358161482f8454614786565b846147ba565b602080601f83116001811461486a57600084156148525750858301515b600019600386901b1c1916600185901b178555614800565b600085815260208120601f198616915b828110156148995788860151825594840194600190910190840161487a565b50858210156148b75787850151600019600388901b60f8161c191681555b5050505050600190811b01905550565b60006020808352600084546148db81614786565b808487015260406001808416600081146148fc576001811461491657614944565b60ff1985168984015283151560051b890183019550614944565b896000528660002060005b8581101561493c5781548b8201860152908301908801614921565b8a0184019650505b509398975050505050505050565b6001600160a01b0392831681529116602082015260400190565b6001600160a01b039586168152602081019490945260408401929092526060830152909116608082015260a00190565b8181038181111561072d5761072d6146ca565b6001600160a01b03841681526040602082018190528101829052818360608301376000818301606090810191909152601f909201601f1916010192915050565b6001600160401b03831115614a0657614a06614492565b614a1a83614a148354614786565b836147ba565b6000601f841160018114614a4e5760008515614a365750838201355b600019600387901b1c1916600186901b178355610914565b600083815260209020601f19861690835b82811015614a7f5786850135825560209485019460019092019101614a5f565b5086821015614a9c5760001960f88860031b161c19848701351681555b505060018560011b0183555050505050565b6001600160a01b03929092168252602082015260400190565b600081518084526020808501945080840160005b8381101561469357815187529582019590820190600101614adb565b828152604060208201526000613de36040830184614ac7565b87815286602082015260e060408201526000614b2f60e083018861465a565b6001600160a01b0396871660608401529486166080830152509190931660a082015260c001919091529392505050565b600060208284031215614b7157600080fd5b8151612814816142b3565b600060018201614b8e57614b8e6146ca565b5060010190565b634e487b7160e01b600052603260045260246000fd5b6001600160a01b039390931683526020830191909152604082015260600190565b6020808252602b908201527f496e697469616c697a61626c653a20636f6e7472616374206973206e6f74206960408201526a6e697469616c697a696e6760a81b606082015260800190565b600082614c3457634e487b7160e01b600052601260045260246000fd5b500490565b608081526000614c4c608083018761465a565b8281036020840152614c5e8187614ac7565b604084019590955250506001600160a01b039190911660609091015292915050565b6001600160a01b038616815260a060208201819052600090614ca49083018761465a565b8281036040840152614cb6818761465a565b90508281036060840152614cca8186614ac7565b9050828103608084015261236c8185614ac7565b600082601f830112614cef57600080fd5b81516020614cff61451c836144d8565b82815260059290921b84018101918181019086841115614d1e57600080fd5b8286015b8481101561455b578051614d35816142b3565b8352918301918301614d22565b600082601f830112614d5357600080fd5b81516020614d6361451c836144d8565b82815260059290921b84018101918181019086841115614d8257600080fd5b8286015b8481101561455b5780518352918301918301614d86565b60008060408385031215614db057600080fd5b82516001600160401b0380821115614dc757600080fd5b614dd386838701614cde565b93506020850151915080821115614de957600080fd5b5061461d85828601614d42565b808202811582820484141761072d5761072d6146ca565b6020815260006128146020830184614ac7565b600060018060a01b03808916835280881660208401525085604083015284606083015283608083015260c060a083015261236c60c083018461465a565b600060208284031215614e6f57600080fd5b81516001600160401b03811115614e8557600080fd5b61162e84828501614d42565b600060208284031215614ea357600080fd5b815161281481614627565b6001600160a01b0384168152606060208201819052600090614ed29083018561465a565b8281036040840152614ee4818561465a565b9695505050505050565b600080600060608486031215614f0357600080fd5b83516001600160401b0380821115614f1a57600080fd5b614f2687838801614cde565b94506020860151915080821115614f3c57600080fd5b614f4887838801614d42565b93506040860151915080821115614f5e57600080fd5b50614f6b86828701614d42565b9150509250925092565b600060208284031215614f8757600080fd5b81516001600160401b03811115614f9d57600080fd5b61162e84828501614cde565b6001600160a01b039485168152602081019390935292166040820152606081019190915260800190565b604081526000614fe66040830185614ac7565b8281036020840152614ff88185614ac7565b95945050505050565b878152600060018060a01b03808916602084015260e0604084015261502960e084018961465a565b606084019790975294909416608082015260a081019290925260c090910152509392505050565b6000806040838503121561506357600080fd5b8251915060208301516001600160401b0381111561508057600080fd5b61461d85828601614d42565b6001600160a01b0389168152610100602082018190526000906150b18382018b61465a565b905088604084015282810360608401526150cb8189614ac7565b90508660808401528560a084015282810360c08401526150eb8186614ac7565b905082810360e08401526150ff8185614ac7565b9b9a5050505050505050505050565b6000806040838503121561512157600080fd5b82516001600160401b038082111561513857600080fd5b614dd386838701614d42565b6001600160a01b03851681526080602082018190526000906151689083018661465a565b8460408401528281036060840152613b4b8185614ac7565b60006101008083526151948184018c61465a565b905089602084015282810360408401526151ae818a614ac7565b6001600160a01b0389811660608601528816608085015260a0840187905283810360c085015290506151e08186614ac7565b9150508260e08301529998505050505050505050565b6001600160a01b038581168252841660208201526080604082018190526000906152229083018561465a565b8281036060840152613b4b8185614ac7565b86815260c06020820152600061524d60c083018861465a565b828103604084015261525f8188614ac7565b6060840196909652505060808101929092526001600160a01b031660a0909101529392505050565b6001600160a01b038616815260a0602082018190526000906152ab9083018761465a565b85604084015282810360608401526152c38186614ac7565b9150508260808301529695505050505050565b60018060a01b0384168152826020820152606060408201526000614ff86060830184614ac7565b6000806040838503121561531057600080fd5b82516001600160401b0381111561532657600080fd5b61533285828601614d42565b925050602083015190509250929050565b6001600160a01b038a81168252898116602083015260408201899052610120606083018190526000916153788483018b61465a565b91508089166080850152508660a084015282810360c084015261539b818761465a565b905082810360e08401526153af8186614ac7565b915050826101008301529a9950505050505050505050565b600080604083850312156153da57600080fd5b505080516020909101519092909150565b6080815260006153fe608083018761465a565b82810360208401526154108187614ac7565b604084019590955250506060015292915050565b600082516154368184602087016143ca565b919091019291505056fea2646970667358221220fcc119c3fd2c6dbc71e5638429e85838e44225697725e8432e92e553174ae37a64736f6c63430008110033",
  "libraries": {
    "StrategyLib": "0x3BEB969c0cd273eA1d7a39137a757Cf1c474510a",
    "ConverterStrategyBaseLib": "0x6b2ca816F59b3d66ded56A5aBE6f186Fa30650DA",
    "ConverterStrategyBaseLib2": "0xc989b6183E5af088FD04DB1A3C93bE69c8Ff25E0",
    "BalancerLogicLib": "0x599d50a55Ae457d6d0014F71b32af2cAB05D5C96"
  },
  "devdoc": {
    "author": "a17, dvpublic",
    "kind": "dev",
    "methods": {
      "claim()": {
        "details": "Manual claim rewards."
      },
      "created()": {
        "returns": {
          "_0": "Creation timestamp"
        }
      },
      "createdBlock()": {
        "returns": {
          "_0": "Creation block number"
        }
      },
      "doHardWork()": {
        "returns": {
          "earned": "Earned amount in terms of {asset}",
          "lost": "Lost amount in terms of {asset}"
        }
      },
      "emergencyExit()": {
        "details": "In case of any issue operator can withdraw all from pool."
      },
      "increaseRevision(address)": {
        "details": "Revision should be increased on each contract upgrade"
      },
      "investAll(uint256,bool)": {
        "params": {
          "updateTotalAssetsBeforeInvest_": "Recalculate total assets amount before depositing.                                       It can be false if we know exactly, that the amount is already actual."
        },
        "returns": {
          "strategyLoss": "Loss should be covered from Insurance"
        }
      },
      "isController(address)": {
        "details": "Return true if given address is controller"
      },
      "onTransferAmounts(address[],uint256[])": {
        "params": {
          "amounts_": "Amount of {asset_} that has been sent to the user's balance",
          "assets_": "Any asset sent to the balance, i.e. inside repayTheBorrow"
        }
      },
      "previousImplementation()": {
        "details": "Previous logic implementation"
      },
      "requirePayAmountBack(address,uint256)": {
        "params": {
          "amount_": "Required amount of the {theAsset_}",
          "theAsset_": "Required asset (either collateral or borrow)"
        },
        "returns": {
          "amountOut": "Amount sent to balance of TetuConverter, amountOut <= amount_"
        }
      },
      "revision()": {
        "details": "Contract upgrade counter"
      },
      "rewardTokens()": {
        "details": "Returns reward token addresses array."
      },
      "setCompoundRatio(uint256)": {
        "details": "PlatformVoter can change compound ratio for some strategies.      A strategy can implement another logic for some uniq cases."
      },
      "setReinvestThresholdPercent(uint256)": {
        "params": {
          "percent_": "New value of the percent, decimals = {REINVEST_THRESHOLD_PERCENT_DENOMINATOR}"
        }
      },
      "setStrategySpecificName(string)": {
        "details": "The name will be used for UI."
      },
      "supportsInterface(bytes4)": {
        "details": "See {IERC165-supportsInterface}."
      },
      "totalAssets()": {
        "details": "Total amount of underlying assets under control of this strategy."
      },
      "withdrawAllToSplitter()": {
        "details": "Withdraws all underlying assets to the vault",
        "returns": {
          "strategyLoss": "Loss should be covered from Insurance"
        }
      },
      "withdrawToSplitter(uint256)": {
        "details": "Withdraws some assets to the splitter",
        "returns": {
          "strategyLoss": "Loss should be covered from Insurance"
        }
      }
    },
    "title": "Delta-neutral converter strategy for Balancer boosted pools",
    "version": 1
  },
  "userdoc": {
    "events": {
      "Recycle(address[],uint256[],uint256,uint256)": {
        "notice": "Recycle was made"
      }
    },
    "kind": "user",
    "methods": {
      "CONTROLLABLE_VERSION()": {
        "notice": "Version of the contract"
      },
      "capacity()": {
        "notice": "Unlimited capacity by default"
      },
      "controller()": {
        "notice": "Return controller address saved in the contract slot"
      },
      "created()": {
        "notice": "Return creation timestamp"
      },
      "createdBlock()": {
        "notice": "Return creation block number"
      },
      "doHardWork()": {
        "notice": "Do hard work with reinvesting"
      },
      "investAll(uint256,bool)": {
        "notice": "Stakes everything the strategy holds into the reward pool. amount_ Amount transferred to the strategy balance just before calling this function"
      },
      "investedAssets()": {
        "notice": "Amount of underlying assets converted to pool assets and invested to the pool."
      },
      "isGovernance(address)": {
        "notice": "Return true if given address is setup as governance in Controller"
      },
      "isReadyToHardWork()": {
        "notice": "Is strategy ready to hard work"
      },
      "liquidationThresholds(address)": {
        "notice": "Minimum token amounts that can be liquidated"
      },
      "onTransferAmounts(address[],uint256[])": {
        "notice": "TetuConverter calls this function when it sends any amount to user's balance"
      },
      "performanceFee()": {
        "notice": "A percent of total profit that is sent to the {performanceReceiver} before compounding"
      },
      "performanceFeeRatio()": {
        "notice": "Ratio to split performance fee on toPerf + toInsurance, [0..100_000]         100_000 - send full amount toPerf, 0 - send full amount toInsurance."
      },
      "performanceReceiver()": {
        "notice": "{performanceFee}% of total profit is sent to {performanceReceiver} before compounding"
      },
      "poolId()": {
        "notice": "i.e. for \"Balancer Boosted Aave USD\": 0x48e6b98ef6329f8f0a30ebb8c7c960330d64808500000000000000000000075bi.e. for \"Balancer Boosted Tetu USD\": 0xb3d658d5b95bf04e2932370dd1ff976fe18dd66a000000000000000000000ace"
      },
      "reinvestThresholdPercent()": {
        "notice": "Percent of asset amount that can be not invested, it's allowed to just keep it on balance         decimals = {DENOMINATOR}"
      },
      "requirePayAmountBack(address,uint256)": {
        "notice": "Converters asks to send some amount back."
      },
      "setPerformanceFeeRatio(uint256)": {
        "notice": "[0..100_000], 100_000 - send full amount toPerf, 0 - send full amount toInsurance."
      },
      "setupPerformanceFee(uint256,address)": {
        "notice": "Set performance fee and receiver"
      }
    },
    "version": 1
  },
  "storageLayout": {
    "storage": [
      {
        "astId": 11696,
        "contract": "contracts/strategies/balancer/BalancerBoostedStrategy.sol:BalancerBoostedStrategy",
        "label": "_initialized",
        "offset": 0,
        "slot": "0",
        "type": "t_uint8"
      },
      {
        "astId": 11699,
        "contract": "contracts/strategies/balancer/BalancerBoostedStrategy.sol:BalancerBoostedStrategy",
        "label": "_initializing",
        "offset": 1,
        "slot": "0",
        "type": "t_bool"
      },
      {
        "astId": 16585,
        "contract": "contracts/strategies/balancer/BalancerBoostedStrategy.sol:BalancerBoostedStrategy",
        "label": "asset",
        "offset": 2,
        "slot": "0",
        "type": "t_address"
      },
      {
        "astId": 16589,
        "contract": "contracts/strategies/balancer/BalancerBoostedStrategy.sol:BalancerBoostedStrategy",
        "label": "splitter",
        "offset": 0,
        "slot": "1",
        "type": "t_address"
      },
      {
        "astId": 16593,
        "contract": "contracts/strategies/balancer/BalancerBoostedStrategy.sol:BalancerBoostedStrategy",
        "label": "compoundRatio",
        "offset": 0,
        "slot": "2",
        "type": "t_uint256"
      },
      {
        "astId": 16595,
        "contract": "contracts/strategies/balancer/BalancerBoostedStrategy.sol:BalancerBoostedStrategy",
        "label": "__deprecatedSlot1",
        "offset": 0,
        "slot": "3",
        "type": "t_uint256"
      },
      {
        "astId": 16599,
        "contract": "contracts/strategies/balancer/BalancerBoostedStrategy.sol:BalancerBoostedStrategy",
        "label": "performanceReceiver",
        "offset": 0,
        "slot": "4",
        "type": "t_address"
      },
      {
        "astId": 16603,
        "contract": "contracts/strategies/balancer/BalancerBoostedStrategy.sol:BalancerBoostedStrategy",
        "label": "performanceFee",
        "offset": 0,
        "slot": "5",
        "type": "t_uint256"
      },
      {
        "astId": 16607,
        "contract": "contracts/strategies/balancer/BalancerBoostedStrategy.sol:BalancerBoostedStrategy",
        "label": "strategySpecificName",
        "offset": 0,
        "slot": "6",
        "type": "t_string_storage"
      },
      {
        "astId": 17004,
        "contract": "contracts/strategies/balancer/BalancerBoostedStrategy.sol:BalancerBoostedStrategy",
        "label": "__gap",
        "offset": 0,
        "slot": "7",
        "type": "t_array(t_uint256)43_storage"
      },
      {
        "astId": 63536,
        "contract": "contracts/strategies/balancer/BalancerBoostedStrategy.sol:BalancerBoostedStrategy",
        "label": "_investedAssets",
        "offset": 0,
        "slot": "50",
        "type": "t_uint256"
      },
      {
        "astId": 63540,
        "contract": "contracts/strategies/balancer/BalancerBoostedStrategy.sol:BalancerBoostedStrategy",
        "label": "converter",
        "offset": 0,
        "slot": "51",
        "type": "t_contract(ITetuConverter)42883"
      },
      {
        "astId": 63545,
        "contract": "contracts/strategies/balancer/BalancerBoostedStrategy.sol:BalancerBoostedStrategy",
        "label": "liquidationThresholds",
        "offset": 0,
        "slot": "52",
        "type": "t_mapping(t_address,t_uint256)"
      },
      {
        "astId": 63548,
        "contract": "contracts/strategies/balancer/BalancerBoostedStrategy.sol:BalancerBoostedStrategy",
        "label": "reinvestThresholdPercent",
        "offset": 0,
        "slot": "53",
        "type": "t_uint256"
      },
      {
        "astId": 63551,
        "contract": "contracts/strategies/balancer/BalancerBoostedStrategy.sol:BalancerBoostedStrategy",
        "label": "performanceFeeRatio",
        "offset": 0,
        "slot": "54",
        "type": "t_uint256"
      },
      {
        "astId": 65043,
        "contract": "contracts/strategies/balancer/BalancerBoostedStrategy.sol:BalancerBoostedStrategy",
        "label": "__gap",
        "offset": 0,
        "slot": "55",
        "type": "t_array(t_uint256)45_storage"
      },
      {
        "astId": 70250,
        "contract": "contracts/strategies/balancer/BalancerBoostedStrategy.sol:BalancerBoostedStrategy",
        "label": "poolId",
        "offset": 0,
        "slot": "100",
        "type": "t_bytes32"
      },
      {
        "astId": 70253,
        "contract": "contracts/strategies/balancer/BalancerBoostedStrategy.sol:BalancerBoostedStrategy",
        "label": "gauge",
        "offset": 0,
        "slot": "101",
        "type": "t_contract(IBalancerGauge)59404"
      },
      {
        "astId": 70682,
        "contract": "contracts/strategies/balancer/BalancerBoostedStrategy.sol:BalancerBoostedStrategy",
        "label": "__gap",
        "offset": 0,
        "slot": "102",
        "type": "t_array(t_uint256)48_storage"
      }
    ],
    "types": {
      "t_address": {
        "encoding": "inplace",
        "label": "address",
        "numberOfBytes": "20"
      },
      "t_array(t_uint256)43_storage": {
        "base": "t_uint256",
        "encoding": "inplace",
        "label": "uint256[43]",
        "numberOfBytes": "1376"
      },
      "t_array(t_uint256)45_storage": {
        "base": "t_uint256",
        "encoding": "inplace",
        "label": "uint256[45]",
        "numberOfBytes": "1440"
      },
      "t_array(t_uint256)48_storage": {
        "base": "t_uint256",
        "encoding": "inplace",
        "label": "uint256[48]",
        "numberOfBytes": "1536"
      },
      "t_bool": {
        "encoding": "inplace",
        "label": "bool",
        "numberOfBytes": "1"
      },
      "t_bytes32": {
        "encoding": "inplace",
        "label": "bytes32",
        "numberOfBytes": "32"
      },
      "t_contract(IBalancerGauge)59404": {
        "encoding": "inplace",
        "label": "contract IBalancerGauge",
        "numberOfBytes": "20"
      },
      "t_contract(ITetuConverter)42883": {
        "encoding": "inplace",
        "label": "contract ITetuConverter",
        "numberOfBytes": "20"
      },
      "t_mapping(t_address,t_uint256)": {
        "encoding": "mapping",
        "key": "t_address",
        "label": "mapping(address => uint256)",
        "numberOfBytes": "32",
        "value": "t_uint256"
      },
      "t_string_storage": {
        "encoding": "bytes",
        "label": "string",
        "numberOfBytes": "32"
      },
      "t_uint256": {
        "encoding": "inplace",
        "label": "uint256",
        "numberOfBytes": "32"
      },
      "t_uint8": {
        "encoding": "inplace",
        "label": "uint8",
        "numberOfBytes": "1"
      }
    }
  }
}