{
  "address": "0x609865Ff47DAFC5345fb6Dd3fBa973a3FD8f716D",
  "abi": [
    {
      "inputs": [
        {
          "internalType": "address",
          "name": "pool_",
          "type": "address"
        }
      ],
      "name": "createSpecificName",
      "outputs": [
        {
          "internalType": "string",
          "name": "",
          "type": "string"
        }
      ],
      "stateMutability": "view",
      "type": "function"
    },
    {
      "inputs": [
        {
          "internalType": "contract IBVault",
          "name": "vault_",
          "type": "IBVault"
        },
        {
          "internalType": "bytes32",
          "name": "poolId_",
          "type": "bytes32"
        }
      ],
      "name": "depositorPoolAssets",
      "outputs": [
        {
          "internalType": "address[]",
          "name": "poolAssets",
          "type": "address[]"
        }
      ],
      "stateMutability": "view",
      "type": "function"
    },
    {
      "inputs": [
        {
          "internalType": "contract IBVault",
          "name": "vault_",
          "type": "IBVault"
        },
        {
          "internalType": "bytes32",
          "name": "poolId_",
          "type": "bytes32"
        }
      ],
      "name": "depositorPoolReserves",
      "outputs": [
        {
          "internalType": "uint256[]",
          "name": "reservesOut",
          "type": "uint256[]"
        }
      ],
      "stateMutability": "view",
      "type": "function"
    },
    {
      "inputs": [
        {
          "internalType": "contract IBVault",
          "name": "vault_",
          "type": "IBVault"
        },
        {
          "internalType": "bytes32",
          "name": "poolId_",
          "type": "bytes32"
        }
      ],
      "name": "depositorPoolWeights",
      "outputs": [
        {
          "internalType": "uint256[]",
          "name": "weights",
          "type": "uint256[]"
        },
        {
          "internalType": "uint256",
          "name": "totalWeight",
          "type": "uint256"
        }
      ],
      "stateMutability": "view",
      "type": "function"
    }
  ],
  "transactionHash": "0xfc430ce7cc40d97b71f533f0fe8d6bd03c2ac999bdd91c718c3b509fb562982d",
  "args": [],
  "numDeployments": 4,
  "solcInputHash": "da7663c7a5124ff56d6132b7a2200099",
  "bytecode": "0x61494361003a600b82828239805160001a60731461002d57634e487b7160e01b600052600060045260246000fd5b30600052607381538281f3fe730000000000000000000000000000000000000000301460806040526004361061009d5760003560e01c80634b4c46fd116100705780634b4c46fd146101485780637b637be214610168578063923a3ca914610188578063aa55ad42146101a8578063f91294e9146101bb57600080fd5b8063209f6ae7146100a25780633a7e535c146100d8578063423511a314610107578063464a5ef714610135575b600080fd5b8180156100ae57600080fd5b506100c26100bd366004613e17565b6101db565b6040516100cf9190613e87565b60405180910390f35b8180156100e457600080fd5b506100f86100f3366004613f7e565b610737565b6040516100cf9392919061402c565b81801561011357600080fd5b5061012761012236600461406f565b610be3565b6040516100cf92919061411d565b6100c261014336600461413f565b6111d6565b81801561015457600080fd5b506100c261016336600461413f565b6115e1565b61017b61017636600461413f565b611dbc565b6040516100cf919061416b565b61019b61019636600461417e565b611fbf565b6040516100cf91906141eb565b6101276101b636600461413f565b61204d565b8180156101c757600080fd5b506100c26101d63660046141fe565b612219565b60606101e5613dd7565b6101ef8460601c90565b6001600160a01b03166382687a566040518163ffffffff1660e01b8152600401602060405180830381865afa15801561022c573d6000803e3d6000fd5b505050506040513d601f19601f820116820180604052508101906102509190614244565b8152604051631f29a8cd60e31b8152600481018590526001600160a01b0386169063f94d466890602401600060405180830381865afa158015610297573d6000803e3d6000fd5b505050506040513d6000823e601f3d908101601f191682016040526102bf91908101906142b8565b50606083015260408201819052805160208301528151815181106102e5576102e5614385565b60200260200101516001600160a01b03166370a08231306040518263ffffffff1660e01b8152600401610318919061439b565b602060405180830381865afa158015610335573d6000803e3d6000fd5b505050506040513d601f19601f820116820180604052508101906103599190614244565b8311156040518060400160405280601781526020017654532d37206e6f7420656e6f7567682062616c616e636560481b815250906103b35760405162461bcd60e51b81526004016103aa91906141eb565b60405180910390fd5b50846001600160a01b0316638bdb391385303060405180608001604052806103dc886040015190565b815260200187602001516001600160401b038111156103fd576103fd613ea1565b604051908082528060200260200182016040528015610426578160200160208202803683370190505b50815260200160028a6040516020016104409291906143d5565b6040516020818303038152906040528152602001600015158152506040518563ffffffff1660e01b815260040161047a9493929190614483565b600060405180830381600087803b15801561049457600080fd5b505af11580156104a8573d6000803e3d6000fd5b5050604080516080810182523080825260006020808401829052938301919091526060820152908401519092506104e291506001906144cb565b6001600160401b038111156104f9576104f9613ea1565b604051908082528060200260200182016040528015610522578160200160208202803683370190505b5092506000805b836020015181101561072c57835181146107245760008460400151828151811061055557610555614385565b60200260200101516001600160a01b03166370a08231306040518263ffffffff1660e01b8152600401610588919061439b565b602060405180830381865afa1580156105a5573d6000803e3d6000fd5b505050506040513d601f19601f820116820180604052508101906105c99190614244565b90508015610717576106f889866040015184815181106105eb576105eb614385565b60200260200101516001600160a01b03166338fff2d06040518163ffffffff1660e01b8152600401602060405180830381865afa158015610630573d6000803e3d6000fd5b505050506040513d601f19601f820116820180604052508101906106549190614244565b8760400151858151811061066a5761066a614385565b60200260200101518860400151868151811061068857610688614385565b60200260200101516001600160a01b0316634de046d56040518163ffffffff1660e01b8152600401602060405180830381865afa1580156106cd573d6000803e3d6000fd5b505050506040513d601f19601f820116820180604052508101906106f191906144de565b8589612512565b86848151811061070a5761070a614385565b6020026020010181815250505b610720836144fb565b9250505b600101610529565b505050509392505050565b815181516060918291829190806001600160401b0381111561075b5761075b613ea1565b604051908082528060200260200182016040528015610784578160200160208202803683370190505b509450806001600160401b0381111561079f5761079f613ea1565b6040519080825280602002602001820160405280156107c8578160200160208202803683370190505b509350816001600160401b038111156107e3576107e3613ea1565b60405190808252806020026020018201604052801561080c578160200160208202803683370190505b50925060005b828110156108c55787818151811061082c5761082c614385565b60200260200101516001600160a01b03166370a08231306040518263ffffffff1660e01b815260040161085f919061439b565b602060405180830381865afa15801561087c573d6000803e3d6000fd5b505050506040513d601f19601f820116820180604052508101906108a09190614244565b8482815181106108b2576108b2614385565b6020908102919091010152600101610812565b5060005b818110156109c8578681815181106108e3576108e3614385565b60200260200101518682815181106108fd576108fd614385565b60200260200101906001600160a01b031690816001600160a01b03168152505086818151811061092f5761092f614385565b60200260200101516001600160a01b03166370a08231306040518263ffffffff1660e01b8152600401610962919061439b565b602060405180830381865afa15801561097f573d6000803e3d6000fd5b505050506040513d601f19601f820116820180604052508101906109a39190614244565b8582815181106109b5576109b5614385565b60209081029190910101526001016108c9565b50876001600160a01b03166339f4caba6040518163ffffffff1660e01b8152600401602060405180830381865afa158015610a07573d6000803e3d6000fd5b505050506040513d601f19601f82011682018060405250810190610a2b91906144de565b6001600160a01b0316636a627842896040518263ffffffff1660e01b8152600401610a56919061439b565b6020604051808303816000875af1158015610a75573d6000803e3d6000fd5b505050506040513d601f19601f82011682018060405250810190610a999190614244565b50876001600160a01b031663e6f1daf26040518163ffffffff1660e01b8152600401600060405180830381600087803b158015610ad557600080fd5b505af1158015610ae9573d6000803e3d6000fd5b5050505060005b81811015610bc757848181518110610b0a57610b0a614385565b6020026020010151878281518110610b2457610b24614385565b60200260200101516001600160a01b03166370a08231306040518263ffffffff1660e01b8152600401610b57919061439b565b602060405180830381865afa158015610b74573d6000803e3d6000fd5b505050506040513d601f19601f82011682018060405250810190610b989190614244565b610ba291906144cb565b858281518110610bb457610bb4614385565b6020908102919091010152600101610af0565b50610bd28585612755565b909990985092965091945050505050565b60606000610bef613dd7565b604051631f29a8cd60e31b8152600481018690526001600160a01b0387169063f94d466890602401600060405180830381865afa158015610c34573d6000803e3d6000fd5b505050506040513d6000823e601f3d908101601f19168201604052610c5c91908101906142b8565b50606083015260408201819052516020820152610c798560601c90565b6001600160a01b03166382687a566040518163ffffffff1660e01b8152600401602060405180830381865afa158015610cb6573d6000803e3d6000fd5b505050506040513d601f19601f82011682018060405250810190610cda9190614244565b808252604082015180519091908110610cf557610cf5614385565b60200260200101516001600160a01b03166370a08231306040518263ffffffff1660e01b8152600401610d28919061439b565b602060405180830381865afa158015610d45573d6000803e3d6000fd5b505050506040513d601f19601f82011682018060405250810190610d699190614244565b91506000610d808783604001518460000151612943565b9050610d9b8583604001518460600151848660000151612c47565b6040805160808101825230808252600060208084018290529383019190915260608201819052918501519296509250906001600160401b03811115610de257610de2613ea1565b604051908082528060200260200182016040528015610e0b578160200160208202803683370190505b509050600060018460200151610e2191906144cb565b6001600160401b03811115610e3857610e38613ea1565b604051908082528060200260200182016040528015610e61578160200160208202803683370190505b5090506000805b8560200151811015611067578551811461105f57610fbc8b87604001518381518110610e9657610e96614385565b60200260200101516001600160a01b03166338fff2d06040518163ffffffff1660e01b8152600401602060405180830381865afa158015610edb573d6000803e3d6000fd5b505050506040513d601f19601f82011682018060405250810190610eff9190614244565b88604001518481518110610f1557610f15614385565b60200260200101516001600160a01b0316634de046d56040518163ffffffff1660e01b8152600401602060405180830381865afa158015610f5a573d6000803e3d6000fd5b505050506040513d601f19601f82011682018060405250810190610f7e91906144de565b89604001518581518110610f9457610f94614385565b60200260200101518c8781518110610fae57610fae614385565b60200260200101518a612512565b848281518110610fce57610fce614385565b602002602001018181525050838181518110610fec57610fec614385565b602002602001015183838151811061100657611006614385565b6020026020010181815250506110538660400151828151811061102b5761102b614385565b602002602001015185838151811061104557611045614385565b60200260200101518d613189565b61105c826144fb565b91505b600101610e68565b50896001600160a01b031663b95cac288a303060405180608001604052806110908c6040015190565b815260200189815260200160018960006040516020016110b293929190614514565b6040516020818303038152906040528152602001600015158152506040518563ffffffff1660e01b81526004016110ec9493929190614483565b600060405180830381600087803b15801561110657600080fd5b505af115801561111a573d6000803e3d6000fd5b50505060408601518651815160009350811061113857611138614385565b60200260200101516001600160a01b03166370a08231306040518263ffffffff1660e01b815260040161116b919061439b565b602060405180830381865afa158015611188573d6000803e3d6000fd5b505050506040513d601f19601f820116820180604052508101906111ac9190614244565b90508681116111bc5760006111c6565b6111c687826144cb565b9650505050505050935093915050565b604051631f29a8cd60e31b8152600481018290526060906000906001600160a01b0385169063f94d466890602401600060405180830381865afa158015611221573d6000803e3d6000fd5b505050506040513d6000823e601f3d908101601f1916820160405261124991908101906142b8565b5050905060006112598460601c90565b6001600160a01b03166382687a566040518163ffffffff1660e01b8152600401602060405180830381865afa158015611296573d6000803e3d6000fd5b505050506040513d601f19601f820116820180604052508101906112ba9190614244565b82519091506112ca6001826144cb565b6001600160401b038111156112e1576112e1613ea1565b60405190808252806020026020018201604052801561130a578160200160208202803683370190505b5093506000805b828110156115d6578084146115ce57600085828151811061133457611334614385565b602002602001015190506000896001600160a01b031663f94d4668836001600160a01b03166338fff2d06040518163ffffffff1660e01b8152600401602060405180830381865afa15801561138d573d6000803e3d6000fd5b505050506040513d601f19601f820116820180604052508101906113b19190614244565b6040518263ffffffff1660e01b81526004016113cf91815260200190565b600060405180830381865afa1580156113ec573d6000803e3d6000fd5b505050506040513d6000823e601f3d908101601f1916820160405261141491908101906142b8565b509150506000826001600160a01b0316634d64cd746040518163ffffffff1660e01b8152600401602060405180830381865afa158015611458573d6000803e3d6000fd5b505050506040513d601f19601f8201168201806040525081019061147c9190614244565b90506000836001600160a01b03166316b8d6ff6040518163ffffffff1660e01b8152600401602060405180830381865afa1580156114be573d6000803e3d6000fd5b505050506040513d601f19601f820116820180604052508101906114e29190614244565b9050670de0b6b3a7640000846001600160a01b031663f5431aa86040518163ffffffff1660e01b8152600401602060405180830381865afa15801561152b573d6000803e3d6000fd5b505050506040513d601f19601f8201168201806040525081019061154f9190614244565b84838151811061156157611561614385565b60200260200101516115739190614549565b61157d9190614560565b83838151811061158f5761158f614385565b60200260200101516115a19190614582565b8a87815181106115b3576115b3614385565b60209081029190910101526115c7866144fb565b9550505050505b600101611311565b505050505092915050565b60606115eb613dd7565b6115f58360601c90565b6001600160a01b03166382687a566040518163ffffffff1660e01b8152600401602060405180830381865afa158015611632573d6000803e3d6000fd5b505050506040513d601f19601f820116820180604052508101906116569190614244565b8152604051631f29a8cd60e31b8152600481018490526001600160a01b0385169063f94d466890602401600060405180830381865afa15801561169d573d6000803e3d6000fd5b505050506040513d6000823e601f3d908101601f191682016040526116c591908101906142b8565b5060608301526040820181905251602082018190526116e6906001906144cb565b6001600160401b038111156116fd576116fd613ea1565b604051908082528060200260200182016040528015611726578160200160208202803683370190505b506040805160808101825230808252600060208301819052828401919091526060820181905291840151845181519496509193909190811061176a5761176a614385565b60200260200101516001600160a01b03166370a08231306040518263ffffffff1660e01b815260040161179d919061439b565b602060405180830381865afa1580156117ba573d6000803e3d6000fd5b505050506040513d601f19601f820116820180604052508101906117de9190614244565b90508015611cba5760006064846040015185600001518151811061180457611804614385565b60200260200101516001600160a01b031663313ce5676040518163ffffffff1660e01b8152600401602060405180830381865afa158015611849573d6000803e3d6000fd5b505050506040513d601f19601f8201168201806040525081019061186d9190614595565b61187890600a61469c565b6118829190614560565b905060005b6002811015611aae57876001600160a01b0316638bdb391388303060405180608001604052806118b88c6040015190565b81526020018b602001516001600160401b038111156118d9576118d9613ea1565b604051908082528060200260200182016040528015611902578160200160208202803683370190505b50815260200160028a60405160200161191c9291906143d5565b6040516020818303038152906040528152602001600015158152506040518563ffffffff1660e01b81526004016119569493929190614483565b600060405180830381600087803b15801561197057600080fd5b505af1158015611984573d6000803e3d6000fd5b5050505084604001518560000151815181106119a2576119a2614385565b60200260200101516001600160a01b03166370a08231306040518263ffffffff1660e01b81526004016119d5919061439b565b602060405180830381865afa1580156119f2573d6000803e3d6000fd5b505050506040513d601f19601f82011682018060405250810190611a169190614244565b925081831080611a265750806001145b611aae57604051631f29a8cd60e31b8152600481018890526001600160a01b0389169063f94d466890602401600060405180830381865afa158015611a6f573d6000803e3d6000fd5b505050506040513d6000823e601f3d908101601f19168201604052611a9791908101906142b8565b50606087015250611aa7816144fb565b9050611887565b506000805b8560200151811015611cb65785518114611cae57600086604001518281518110611adf57611adf614385565b60200260200101516001600160a01b03166370a08231306040518263ffffffff1660e01b8152600401611b12919061439b565b602060405180830381865afa158015611b2f573d6000803e3d6000fd5b505050506040513d601f19601f82011682018060405250810190611b539190614244565b90508015611ca157611c828a88604001518481518110611b7557611b75614385565b60200260200101516001600160a01b03166338fff2d06040518163ffffffff1660e01b8152600401602060405180830381865afa158015611bba573d6000803e3d6000fd5b505050506040513d601f19601f82011682018060405250810190611bde9190614244565b89604001518581518110611bf457611bf4614385565b60200260200101518a604001518681518110611c1257611c12614385565b60200260200101516001600160a01b0316634de046d56040518163ffffffff1660e01b8152600401602060405180830381865afa158015611c57573d6000803e3d6000fd5b505050506040513d601f19601f82011682018060405250810190611c7b91906144de565b858b612512565b888481518110611c9457611c94614385565b6020026020010181815250505b611caa836144fb565b9250505b600101611ab3565b5050505b60008360400151846000015181518110611cd657611cd6614385565b60200260200101516001600160a01b03166370a08231306040518263ffffffff1660e01b8152600401611d09919061439b565b602060405180830381865afa158015611d26573d6000803e3d6000fd5b505050506040513d601f19601f82011682018060405250810190611d4a9190614244565b90508015611db1576000805b8560200151811015611dae5785518114611da657611d78898988888786613234565b878381518110611d8a57611d8a614385565b60200260200101818151611d9e9190614582565b905250611dae565b600101611d56565b50505b505050505b92915050565b604051631f29a8cd60e31b8152600481018290526060906000906001600160a01b0385169063f94d466890602401600060405180830381865afa158015611e07573d6000803e3d6000fd5b505050506040513d6000823e601f3d908101601f19168201604052611e2f91908101906142b8565b505090506000611e3f8460601c90565b6001600160a01b03166382687a566040518163ffffffff1660e01b8152600401602060405180830381865afa158015611e7c573d6000803e3d6000fd5b505050506040513d601f19601f82011682018060405250810190611ea09190614244565b8251909150611eb06001826144cb565b6001600160401b03811115611ec757611ec7613ea1565b604051908082528060200260200182016040528015611ef0578160200160208202803683370190505b5093506000805b828110156115d657808414611fb757848181518110611f1857611f18614385565b60200260200101516001600160a01b0316634de046d56040518163ffffffff1660e01b8152600401602060405180830381865afa158015611f5d573d6000803e3d6000fd5b505050506040513d601f19601f82011682018060405250810190611f8191906144de565b868381518110611f9357611f93614385565b6001600160a01b0390921660209283029190910190910152611fb4826144fb565b91505b600101611ef7565b6060816001600160a01b03166395d89b416040518163ffffffff1660e01b8152600401600060405180830381865afa158015611fff573d6000803e3d6000fd5b505050506040513d6000823e601f3d908101601f1916820160405261202791908101906146ab565b604051602001612037919061473e565b6040516020818303038152906040529050919050565b60606000806000856001600160a01b031663f94d4668866040518263ffffffff1660e01b815260040161208291815260200190565b600060405180830381865afa15801561209f573d6000803e3d6000fd5b505050506040513d6000823e601f3d908101601f191682016040526120c791908101906142b8565b508151919350915060006120db8760601c90565b6001600160a01b03166382687a566040518163ffffffff1660e01b8152600401602060405180830381865afa158015612118573d6000803e3d6000fd5b505050506040513d601f19601f8201168201806040525081019061213c9190614244565b90506121496001836144cb565b6001600160401b0381111561216057612160613ea1565b604051908082528060200260200182016040528015612189578160200160208202803683370190505b5095506000805b8381101561220c57828114612204578481815181106121b1576121b1614385565b6020026020010151876121c49190614582565b96508481815181106121d8576121d8614385565b60200260200101518883815181106121f2576121f2614385565b60209081029190910101526001820191505b600101612190565b5050505050509250929050565b6060612223613dd7565b61222d8460601c90565b6001600160a01b03166382687a566040518163ffffffff1660e01b8152600401602060405180830381865afa15801561226a573d6000803e3d6000fd5b505050506040513d601f19601f8201168201806040525081019061228e9190614244565b8152604051631f29a8cd60e31b8152600481018590526001600160a01b0387169063f94d466890602401600060405180830381865afa1580156122d5573d6000803e3d6000fd5b505050506040513d6000823e601f3d908101601f191682016040526122fd91908101906142b8565b50606083015260408083018281529151602084015280516080810190915290516000916001600160a01b0388169163c7b2c52c918891309182918190815260200188602001516001600160401b0381111561235a5761235a613ea1565b604051908082528060200260200182016040528015612383578160200160208202803683370190505b50815260200160028b60405160200161239d9291906143d5565b6040516020818303038152906040528152602001600015158152506040518563ffffffff1660e01b81526004016123d79493929190614483565b6000604051808303816000875af11580156123f6573d6000803e3d6000fd5b505050506040513d6000823e601f3d908101601f1916820160405261241e919081019061476f565b91505060006001836020015161243491906144cb565b6001600160401b0381111561244b5761244b613ea1565b604051908082528060200260200182016040528015612474578160200160208202803683370190505b50935060005b836020015181101561250657835181146124fe576000846040015182815181106124a6576124a6614385565b602002602001015190506124d48a828685815181106124c7576124c7614385565b60200260200101516133ac565b8684815181106124e6576124e6614385565b60209081029190910101526124fa836144fb565b9250505b60010161247a565b50505050949350505050565b600080846001600160a01b03166370a08231306040518263ffffffff1660e01b8152600401612541919061439b565b602060405180830381865afa15801561255e573d6000803e3d6000fd5b505050506040513d601f19601f820116820180604052508101906125829190614244565b60405163095ea7b360e01b81526001600160a01b038a81166004830152602482018790529192509087169063095ea7b3906044016020604051808303816000875af11580156125d5573d6000803e3d6000fd5b505050506040513d601f19601f820116820180604052508101906125f991906147b5565b50876001600160a01b03166352bbbe296040518060c001604052808a81526020016000600181111561262d5761262d6143af565b8152602001896001600160a01b03168152602001886001600160a01b0316815260200187815260200160405180602001604052806000815250815250856001426040518563ffffffff1660e01b815260040161268c94939291906147d7565b6020604051808303816000875af11580156126ab573d6000803e3d6000fd5b505050506040513d601f19601f820116820180604052508101906126cf9190614244565b506040516370a0823160e01b815281906001600160a01b038716906370a08231906126fe90309060040161439b565b602060405180830381865afa15801561271b573d6000803e3d6000fd5b505050506040513d601f19601f8201168201806040525081019061273f9190614244565b61274991906144cb565b98975050505050505050565b60608082518451146040518060400160405280600d81526020016c54532d3139206c656e6774687360981b815250906127a15760405162461bcd60e51b81526004016103aa91906141eb565b508351600090815b818110156127f2578581815181106127c3576127c3614385565b60200260200101516000146127e057826127dc816144fb565b9350505b806127ea816144fb565b9150506127a9565b50816001600160401b0381111561280b5761280b613ea1565b604051908082528060200260200182016040528015612834578160200160208202803683370190505b509350816001600160401b0381111561284f5761284f613ea1565b604051908082528060200260200182016040528015612878578160200160208202803683370190505b5092506000805b8281101561293857600087828151811061289b5761289b614385565b6020026020010151905080600014612925578882815181106128bf576128bf614385565b60200260200101518784815181106128d9576128d9614385565b60200260200101906001600160a01b031690816001600160a01b0316815250508086848151811061290c5761290c614385565b602090810291909101015282612921816144fb565b9350505b5080612930816144fb565b91505061287f565b505050509250929050565b8151606090806001600160401b0381111561296057612960613ea1565b604051908082528060200260200182016040528015612989578160200160208202803683370190505b50915060005b81811015612c3e57838114612c365760008582815181106129b2576129b2614385565b602002602001015190506000876001600160a01b031663f94d4668836001600160a01b03166338fff2d06040518163ffffffff1660e01b8152600401602060405180830381865afa158015612a0b573d6000803e3d6000fd5b505050506040513d601f19601f82011682018060405250810190612a2f9190614244565b6040518263ffffffff1660e01b8152600401612a4d91815260200190565b600060405180830381865afa158015612a6a573d6000803e3d6000fd5b505050506040513d6000823e601f3d908101601f19168201604052612a9291908101906142b8565b50915050670de0b6b3a7640000826001600160a01b031663f5431aa86040518163ffffffff1660e01b8152600401602060405180830381865afa158015612add573d6000803e3d6000fd5b505050506040513d601f19601f82011682018060405250810190612b019190614244565b82846001600160a01b03166316b8d6ff6040518163ffffffff1660e01b8152600401602060405180830381865afa158015612b40573d6000803e3d6000fd5b505050506040513d601f19601f82011682018060405250810190612b649190614244565b81518110612b7457612b74614385565b6020026020010151612b869190614549565b612b909190614560565b81836001600160a01b0316634d64cd746040518163ffffffff1660e01b8152600401602060405180830381865afa158015612bcf573d6000803e3d6000fd5b505050506040513d601f19601f82011682018060405250810190612bf39190614244565b81518110612c0357612c03614385565b6020026020010151612c159190614582565b858481518110612c2757612c27614385565b60200260200101818152505050505b60010161298f565b50509392505050565b60408051606081810183528082526000602083015291810182905285516020808301829052865160408051808201909152601281527154532d342077726f6e67206c656e6774687360701b92810192909252909114612cb95760405162461bcd60e51b81526004016103aa91906141eb565b50865181602001511480612cdd5750865160018260200151612cdb91906144cb565b145b6040518060400160405280601281526020017154532d342077726f6e67206c656e6774687360701b81525090612d265760405162461bcd60e51b81526004016103aa91906141eb565b5080602001516001600160401b03811115612d4357612d43613ea1565b604051908082528060200260200182016040528015612d6c578160200160208202803683370190505b50815260208101516001600160401b03811115612d8b57612d8b613ea1565b604051908082528060200260200182016040528015612db4578160200160208202803683370190505b50604082015260005b8160200151811015612f5957838114612f5157858181518110612de257612de2614385565b6020026020010151600014156040518060400160405280601181526020017054532d35207a65726f2062616c616e636560781b81525090612e365760405162461bcd60e51b81526004016103aa91906141eb565b50868181518110612e4957612e49614385565b60200260200101516001600160a01b031663313ce5676040518163ffffffff1660e01b8152600401602060405180830381865afa158015612e8e573d6000803e3d6000fd5b505050506040513d601f19601f82011682018060405250810190612eb29190614595565b612ebd90600a61469c565b8251805183908110612ed157612ed1614385565b602002602001018181525050848181518110612eef57612eef614385565b6020026020010151868281518110612f0957612f09614385565b6020026020010151670de0b6b3a7640000612f249190614549565b612f2e9190614560565b82604001518281518110612f4457612f44614385565b6020026020010181815250505b600101612dbd565b5060018160200151612f6b91906144cb565b6001600160401b03811115612f8257612f82613ea1565b604051908082528060200260200182016040528015612fab578160200160208202803683370190505b5091506000805b826020015181101561317d5784811461317557600083604001518281518110612fdd57612fdd614385565b60200260200101518a8481518110612ff757612ff7614385565b60200260200101516130099190614549565b90506000805b85602001518210156131515787821461314657855180518590811061303657613036614385565b60200260200101518a858151811061305057613050614385565b60200260200101518760000151848151811061306e5761306e614385565b60200260200101518860400151858151811061308c5761308c614385565b60200260200101518d86815181106130a6576130a6614385565b6020026020010151876130b99190614549565b6130c39190614560565b6130cd9190614549565b6130d79190614560565b6130e19190614560565b8782815181106130f3576130f3614385565b6020026020010181815250508b818151811061311157613111614385565b602002602001015187828151811061312b5761312b614385565b6020026020010151116131515780613142816144fb565b9150505b60018201915061300f565b856020015182036131645750505061317d565b8461316e816144fb565b9550505050505b600101612fb2565b50505095945050505050565b604051636eb1769f60e11b81523060048201526001600160a01b03828116602483015283919085169063dd62ed3e90604401602060405180830381865afa1580156131d8573d6000803e3d6000fd5b505050506040513d601f19601f820116820180604052508101906131fc9190614244565b101561322f576132176001600160a01b038416826000613860565b61322f6001600160a01b03841682600160ff1b613860565b505050565b6000806132838888886040015189600001518151811061325657613256614385565b60200260200101518960400151878151811061327457613274614385565b6020026020010151888a612512565b9050612749888760400151858151811061329f5761329f614385565b60200260200101516001600160a01b03166338fff2d06040518163ffffffff1660e01b8152600401602060405180830381865afa1580156132e4573d6000803e3d6000fd5b505050506040513d601f19601f820116820180604052508101906133089190614244565b8860400151868151811061331e5761331e614385565b60200260200101518960400151878151811061333c5761333c614385565b60200260200101516001600160a01b0316634de046d56040518163ffffffff1660e01b8152600401602060405180830381865afa158015613381573d6000803e3d6000fd5b505050506040513d601f19601f820116820180604052508101906133a591906144de565b858a612512565b6000806000846001600160a01b03166363fe3b566040518163ffffffff1660e01b81526004016040805180830381865afa1580156133ee573d6000803e3d6000fd5b505050506040513d601f19601f820116820180604052508101906134129190614899565b9150915060006040518060600160405280876001600160a01b03166355c676286040518163ffffffff1660e01b8152600401602060405180830381865afa158015613461573d6000803e3d6000fd5b505050506040513d601f19601f820116820180604052508101906134859190614244565b81526020018481526020018381525090506000876001600160a01b031663f94d4668886001600160a01b03166338fff2d06040518163ffffffff1660e01b8152600401602060405180830381865afa1580156134e5573d6000803e3d6000fd5b505050506040513d601f19601f820116820180604052508101906135099190614244565b6040518263ffffffff1660e01b815260040161352791815260200190565b600060405180830381865afa158015613544573d6000803e3d6000fd5b505050506040513d6000823e601f3d908101601f1916820160405261356c91908101906142b8565b509150506000876001600160a01b0316631dd746ea6040518163ffffffff1660e01b8152600401600060405180830381865afa1580156135b0573d6000803e3d6000fd5b505050506040513d6000823e601f3d908101601f191682016040526135d891908101906148bd565b90506135e48282613997565b670de0b6b3a76400008160008151811061360057613600614385565b60200260200101516136129190614560565b61361c9088614549565b96506000886001600160a01b0316634d64cd746040518163ffffffff1660e01b8152600401602060405180830381865afa15801561365e573d6000803e3d6000fd5b505050506040513d601f19601f820116820180604052508101906136829190614244565b9050600083828151811061369857613698614385565b602002602001015190506000846000815181106136b7576136b7614385565b60200260200101518b6001600160a01b03166318160ddd6040518163ffffffff1660e01b8152600401602060405180830381865afa1580156136fd573d6000803e3d6000fd5b505050506040513d601f19601f820116820180604052508101906137219190614244565b61372b91906144cb565b905060006137398388613a28565b90506000868d6001600160a01b03166316b8d6ff6040518163ffffffff1660e01b8152600401602060405180830381865afa15801561377c573d6000803e3d6000fd5b505050506040513d601f19601f820116820180604052508101906137a09190614244565b815181106137b0576137b0614385565b6020026020010151826137c39190614582565b90506000836137d28e84614549565b6137dc9190614560565b905060008184116137ee5760006137f8565b6137f882856144cb565b90506000613806828c613aae565b905088888151811061381a5761381a614385565b6020026020010151818861382e91906144cb565b61384090670de0b6b3a7640000614549565b61384a9190614560565b9d50505050505050505050505050509392505050565b8015806138da5750604051636eb1769f60e11b81523060048201526001600160a01b03838116602483015284169063dd62ed3e90604401602060405180830381865afa1580156138b4573d6000803e3d6000fd5b505050506040513d601f19601f820116820180604052508101906138d89190614244565b155b6139455760405162461bcd60e51b815260206004820152603660248201527f5361666545524332303a20617070726f76652066726f6d206e6f6e2d7a65726f60448201527520746f206e6f6e2d7a65726f20616c6c6f77616e636560501b60648201526084016103aa565b604080516001600160a01b038416602482015260448082018490528251808303909101815260649091019091526020810180516001600160e01b031663095ea7b360e01b17905261322f908490613b75565b815160005b81811015613a2257670de0b6b3a76400008382815181106139bf576139bf614385565b60200260200101518583815181106139d9576139d9614385565b60200260200101516139eb9190614549565b6139f59190614560565b848281518110613a0757613a07614385565b6020908102919091010152613a1b816144fb565b905061399c565b50505050565b60008160200151831015613a7e576000670de0b6b3a76400008360000151858560200151613a5691906144cb565b613a609190614549565b613a6a9190614560565b9050613a7681856144cb565b915050611db6565b81604001518311613a90575081611db6565b81516040830151600091670de0b6b3a764000091613a5690876144cb565b60008160200151831015613b21578151613ad090670de0b6b3a7640000614582565b60208301518351670de0b6b3a764000091613aea91614549565b613af49190614560565b613afe9085614582565b613b1090670de0b6b3a7640000614549565b613b1a9190614560565b9050611db6565b81604001518311613b33575081611db6565b8151613b4790670de0b6b3a76400006144cb565b60408301518351670de0b6b3a764000091613b6191614549565b613b6b9190614560565b613afe90856144cb565b6000613bca826040518060400160405280602081526020017f5361666545524332303a206c6f772d6c6576656c2063616c6c206661696c6564815250856001600160a01b0316613c479092919063ffffffff16565b80519091501561322f5780806020019051810190613be891906147b5565b61322f5760405162461bcd60e51b815260206004820152602a60248201527f5361666545524332303a204552433230206f7065726174696f6e20646964206e6044820152691bdd081cdd58d8d9595960b21b60648201526084016103aa565b6060613c568484600085613c5e565b949350505050565b606082471015613cbf5760405162461bcd60e51b815260206004820152602660248201527f416464726573733a20696e73756666696369656e742062616c616e636520666f6044820152651c8818d85b1b60d21b60648201526084016103aa565b600080866001600160a01b03168587604051613cdb91906148f1565b60006040518083038185875af1925050503d8060008114613d18576040519150601f19603f3d011682016040523d82523d6000602084013e613d1d565b606091505b5091509150613d2e87838387613d39565b979650505050505050565b60608315613da8578251600003613da1576001600160a01b0385163b613da15760405162461bcd60e51b815260206004820152601d60248201527f416464726573733a2063616c6c20746f206e6f6e2d636f6e747261637400000060448201526064016103aa565b5081613c56565b613c568383815115613dbd5781518083602001fd5b8060405162461bcd60e51b81526004016103aa91906141eb565b6040518060800160405280600081526020016000815260200160608152602001606081525090565b6001600160a01b0381168114613e1457600080fd5b50565b600080600060608486031215613e2c57600080fd5b8335613e3781613dff565b95602085013595506040909401359392505050565b600081518084526020808501945080840160005b83811015613e7c57815187529582019590820190600101613e60565b509495945050505050565b602081526000613e9a6020830184613e4c565b9392505050565b634e487b7160e01b600052604160045260246000fd5b604051601f8201601f191681016001600160401b0381118282101715613edf57613edf613ea1565b604052919050565b60006001600160401b03821115613f0057613f00613ea1565b5060051b60200190565b600082601f830112613f1b57600080fd5b81356020613f30613f2b83613ee7565b613eb7565b82815260059290921b84018101918181019086841115613f4f57600080fd5b8286015b84811015613f73578035613f6681613dff565b8352918301918301613f53565b509695505050505050565b600080600060608486031215613f9357600080fd5b8335613f9e81613dff565b925060208401356001600160401b0380821115613fba57600080fd5b613fc687838801613f0a565b93506040860135915080821115613fdc57600080fd5b50613fe986828701613f0a565b9150509250925092565b600081518084526020808501945080840160005b83811015613e7c5781516001600160a01b031687529582019590820190600101614007565b60608152600061403f6060830186613ff3565b82810360208401526140518186613e4c565b905082810360408401526140658185613e4c565b9695505050505050565b60008060006060848603121561408457600080fd5b833561408f81613dff565b9250602084810135925060408501356001600160401b038111156140b257600080fd5b8501601f810187136140c357600080fd5b80356140d1613f2b82613ee7565b81815260059190911b820183019083810190898311156140f057600080fd5b928401925b8284101561410e578335825292840192908401906140f5565b80955050505050509250925092565b6040815260006141306040830185613e4c565b90508260208301529392505050565b6000806040838503121561415257600080fd5b823561415d81613dff565b946020939093013593505050565b602081526000613e9a6020830184613ff3565b60006020828403121561419057600080fd5b8135613e9a81613dff565b60005b838110156141b657818101518382015260200161419e565b50506000910152565b600081518084526141d781602086016020860161419b565b601f01601f19169290920160200192915050565b602081526000613e9a60208301846141bf565b6000806000806080858703121561421457600080fd5b843561421f81613dff565b9350602085013561422f81613dff565b93969395505050506040820135916060013590565b60006020828403121561425657600080fd5b5051919050565b600082601f83011261426e57600080fd5b8151602061427e613f2b83613ee7565b82815260059290921b8401810191818101908684111561429d57600080fd5b8286015b84811015613f7357805183529183019183016142a1565b6000806000606084860312156142cd57600080fd5b83516001600160401b03808211156142e457600080fd5b818601915086601f8301126142f857600080fd5b81516020614308613f2b83613ee7565b82815260059290921b8401810191818101908a84111561432757600080fd5b948201945b8386101561434e57855161433f81613dff565b8252948201949082019061432c565b9189015191975090935050508082111561436757600080fd5b506143748682870161425d565b925050604084015190509250925092565b634e487b7160e01b600052603260045260246000fd5b6001600160a01b0391909116815260200190565b634e487b7160e01b600052602160045260246000fd5b60038110613e1457613e146143af565b604081016143e2846143c5565b9281526020015290565b8051608080845281519084018190526000916020919082019060a0860190845b818110156144315783516001600160a01b03168352928401929184019160010161440c565b50508285015191508581038387015261444a8183613e4c565b925050506040830151848203604086015261446582826141bf565b915050606083015161447b606086018215159052565b509392505050565b8481526001600160a01b03848116602083015283166040820152608060608201819052600090614065908301846143ec565b634e487b7160e01b600052601160045260246000fd5b81810381811115611db657611db66144b5565b6000602082840312156144f057600080fd5b8151613e9a81613dff565b60006001820161450d5761450d6144b5565b5060010190565b61451d846143c5565b8381526060602082015260006145366060830185613e4c565b905060ff83166040830152949350505050565b8082028115828204841417611db657611db66144b5565b60008261457d57634e487b7160e01b600052601260045260246000fd5b500490565b80820180821115611db657611db66144b5565b6000602082840312156145a757600080fd5b815160ff81168114613e9a57600080fd5b600181815b808511156145f35781600019048211156145d9576145d96144b5565b808516156145e657918102915b93841c93908002906145bd565b509250929050565b60008261460a57506001611db6565b8161461757506000611db6565b816001811461462d576002811461463757614653565b6001915050611db6565b60ff841115614648576146486144b5565b50506001821b611db6565b5060208310610133831016604e8410600b8410161715614676575081810a611db6565b61468083836145b8565b8060001904821115614694576146946144b5565b029392505050565b6000613e9a60ff8416836145fb565b6000602082840312156146bd57600080fd5b81516001600160401b03808211156146d457600080fd5b818401915084601f8301126146e857600080fd5b8151818111156146fa576146fa613ea1565b61470d601f8201601f1916602001613eb7565b915080825285602082850101111561472457600080fd5b61473581602084016020860161419b565b50949350505050565b6802130b630b731b2b9160bd1b81526000825161476281600985016020870161419b565b9190910160090192915050565b6000806040838503121561478257600080fd5b8251915060208301516001600160401b0381111561479f57600080fd5b6147ab8582860161425d565b9150509250929050565b6000602082840312156147c757600080fd5b81518015158114613e9a57600080fd5b60e08152845160e082015260006020860151600281106147f9576147f96143af565b61010083015260408601516001600160a01b03908116610120840152606087015116610140830152608086015161016083015260a086015160c06101808401526148476101a08401826141bf565b915050614887602083018680516001600160a01b039081168352602080830151151590840152604080830151909116908301526060908101511515910152565b60a082019390935260c0015292915050565b600080604083850312156148ac57600080fd5b505080516020909101519092909150565b6000602082840312156148cf57600080fd5b81516001600160401b038111156148e557600080fd5b613c568482850161425d565b6000825161490381846020870161419b565b919091019291505056fea2646970667358221220de96ee63a3923555dc6fa65dae011725bd9a11295637e7240d3108a926e5557b64736f6c63430008110033",
  "devdoc": {
    "details": "Many of functions are declared as external to reduce contract size",
    "kind": "dev",
    "methods": {
      "depositorEnter(IBVault,bytes32,uint256[])": {
        "params": {
          "amountsDesired_": "Amounts of assets on the balance of the depositor         The order of assets is the same as in getPoolTokens, but there is no pool-bpt         i.e. for \"Balancer Boosted Aave USD\" we have DAI, USDC, USDT"
        },
        "returns": {
          "amountsConsumedOut": "Amounts of assets deposited to balanceR pool         The order of assets is the same as in getPoolTokens, but there is no pool-bpt",
          "liquidityOut": "Total amount of liquidity added to balanceR pool in terms of pool-bpt tokens"
        }
      },
      "depositorExit(IBVault,bytes32,uint256)": {
        "params": {
          "liquidityAmount_": "Amount to withdraw in bpt"
        },
        "returns": {
          "amountsOut": "Result amounts of underlying (DAI, USDC..) that will be received from BalanceR         The order of assets is the same as in getPoolTokens, but there is no pool-bpt"
        }
      },
      "depositorExitFull(IBVault,bytes32)": {
        "details": "We make at most N attempts to withdraw (not more, each attempt takes a lot of gas).      Each attempt reduces available balance at ~1e4 times.",
        "returns": {
          "amountsOut": "Result amounts of underlying (DAI, USDC..) that will be received from BalanceR                    The order of assets is the same as in getPoolTokens, but there is no pool-bpt"
        }
      },
      "depositorPoolReserves(IBVault,bytes32)": {
        "returns": {
          "reservesOut": "Total amounts of embedded assets, i.e. for \"Balancer Boosted Tetu USD\" we return:                     0: balance USDT + (tUSDT recalculated to USDT)                     1: balance USDC + (tUSDC recalculated to USDC)                     2: balance DAI + (balance tDAI recalculated to DAI)"
        }
      },
      "depositorPoolWeights(IBVault,bytes32)": {
        "returns": {
          "totalWeight": "Total sum of all items of {weights}",
          "weights": "Array with weights, length = getPoolTokens.tokens - 1 (all assets except BPT)"
        }
      },
      "depositorQuoteExit(IBVault,IBalancerHelper,bytes32,uint256)": {
        "returns": {
          "amountsOut": "Result amounts of underlying (DAI, USDC..) that will be received from BalanceR         The order of assets is the same as in getPoolTokens, but there is no pool-bpt"
        }
      }
    },
    "version": 1
  },
  "userdoc": {
    "kind": "user",
    "methods": {
      "createSpecificName(address)": {
        "notice": "Utils"
      },
      "depositorClaimRewards(IBalancerGauge,address[],address[])": {
        "notice": "Rewards"
      },
      "depositorEnter(IBVault,bytes32,uint256[])": {
        "notice": "Deposit given amount to the pool."
      },
      "depositorExit(IBVault,bytes32,uint256)": {
        "notice": "Withdraw given amount of LP-tokens from the pool."
      },
      "depositorExitFull(IBVault,bytes32)": {
        "notice": "Withdraw all available amount of LP-tokens from the pool         BalanceR doesn't allow to withdraw exact amount, so it's allowed to leave dust amount on the balance"
      },
      "depositorPoolAssets(IBVault,bytes32)": {
        "notice": "Returns pool assets, same as getPoolTokens but without pool-bpt"
      },
      "depositorPoolReserves(IBVault,bytes32)": {
        "notice": "Total amounts of the main assets under control of the pool, i.e amounts of USDT, USDC, DAI"
      },
      "depositorPoolWeights(IBVault,bytes32)": {
        "notice": "Returns pool weights"
      },
      "depositorQuoteExit(IBVault,IBalancerHelper,bytes32,uint256)": {
        "notice": "Quotes output for given amount of LP-tokens from the pool."
      }
    },
    "notice": "Functions of BalancerBoostedDepositor",
    "version": 1
  },
  "storageLayout": {
    "storage": [],
    "types": null
  }
}