{
  "address": "0x79d12eA649352f14aFA67EaeD60b7028EcA07320",
  "abi": [
    {
      "inputs": [
        {
          "internalType": "contract IBVault",
          "name": "vault_",
          "type": "IBVault"
        },
        {
          "internalType": "bytes32",
          "name": "poolId_",
          "type": "bytes32"
        }
      ],
      "name": "depositorPoolAssets",
      "outputs": [
        {
          "internalType": "address[]",
          "name": "poolAssets",
          "type": "address[]"
        }
      ],
      "stateMutability": "view",
      "type": "function"
    },
    {
      "inputs": [
        {
          "internalType": "contract IBVault",
          "name": "vault_",
          "type": "IBVault"
        },
        {
          "internalType": "bytes32",
          "name": "poolId_",
          "type": "bytes32"
        }
      ],
      "name": "depositorPoolReserves",
      "outputs": [
        {
          "internalType": "uint256[]",
          "name": "reservesOut",
          "type": "uint256[]"
        }
      ],
      "stateMutability": "view",
      "type": "function"
    },
    {
      "inputs": [
        {
          "internalType": "contract IBVault",
          "name": "vault_",
          "type": "IBVault"
        },
        {
          "internalType": "bytes32",
          "name": "poolId_",
          "type": "bytes32"
        }
      ],
      "name": "depositorPoolWeights",
      "outputs": [
        {
          "internalType": "uint256[]",
          "name": "weights",
          "type": "uint256[]"
        },
        {
          "internalType": "uint256",
          "name": "totalWeight",
          "type": "uint256"
        }
      ],
      "stateMutability": "view",
      "type": "function"
    }
  ],
  "transactionHash": "0xdbbac0b5e5b4dfe5c5d3f8dc75a761a026f186bccd67a3f976657f4360a060c4",
  "args": [],
  "numDeployments": 1,
  "solcInputHash": "548db540d2af41393408ff74368ec198",
  "bytecode": "0x6146d861003a600b82828239805160001a60731461002d57634e487b7160e01b600052600060045260246000fd5b30600052607381538281f3fe73000000000000000000000000000000000000000030146080604052600436106100925760003560e01c80634b4c46fd116100655780634b4c46fd1461013d5780637b637be21461015d578063aa55ad421461017d578063f91294e91461019057600080fd5b8063209f6ae7146100975780633a7e535c146100cd578063423511a3146100fc578063464a5ef71461012a575b600080fd5b8180156100a357600080fd5b506100b76100b2366004613c8d565b6101b0565b6040516100c49190613cfd565b60405180910390f35b8180156100d957600080fd5b506100ed6100e8366004613df4565b61070c565b6040516100c493929190613ea2565b81801561010857600080fd5b5061011c610117366004613ee5565b610ae7565b6040516100c4929190613f93565b6100b7610138366004613fb5565b6110da565b81801561014957600080fd5b506100b7610158366004613fb5565b6114e5565b61017061016b366004613fb5565b611cc0565b6040516100c49190613fe1565b61011c61018b366004613fb5565b611ec3565b81801561019c57600080fd5b506100b76101ab366004613ff4565b61208f565b60606101ba613c4d565b6101c48460601c90565b6001600160a01b03166382687a566040518163ffffffff1660e01b8152600401602060405180830381865afa158015610201573d6000803e3d6000fd5b505050506040513d601f19601f82011682018060405250810190610225919061403a565b8152604051631f29a8cd60e31b8152600481018590526001600160a01b0386169063f94d466890602401600060405180830381865afa15801561026c573d6000803e3d6000fd5b505050506040513d6000823e601f3d908101601f1916820160405261029491908101906140ae565b50606083015260408201819052805160208301528151815181106102ba576102ba61417b565b60200260200101516001600160a01b03166370a08231306040518263ffffffff1660e01b81526004016102ed9190614191565b602060405180830381865afa15801561030a573d6000803e3d6000fd5b505050506040513d601f19601f8201168201806040525081019061032e919061403a565b8311156040518060400160405280601781526020017654532d37206e6f7420656e6f7567682062616c616e636560481b815250906103885760405162461bcd60e51b815260040161037f91906141f5565b60405180910390fd5b50846001600160a01b0316638bdb391385303060405180608001604052806103b1886040015190565b815260200187602001516001600160401b038111156103d2576103d2613d17565b6040519080825280602002602001820160405280156103fb578160200160208202803683370190505b50815260200160028a60405160200161041592919061422e565b6040516020818303038152906040528152602001600015158152506040518563ffffffff1660e01b815260040161044f94939291906142dc565b600060405180830381600087803b15801561046957600080fd5b505af115801561047d573d6000803e3d6000fd5b5050604080516080810182523080825260006020808401829052938301919091526060820152908401519092506104b79150600190614324565b6001600160401b038111156104ce576104ce613d17565b6040519080825280602002602001820160405280156104f7578160200160208202803683370190505b5092506000805b836020015181101561070157835181146106f95760008460400151828151811061052a5761052a61417b565b60200260200101516001600160a01b03166370a08231306040518263ffffffff1660e01b815260040161055d9190614191565b602060405180830381865afa15801561057a573d6000803e3d6000fd5b505050506040513d601f19601f8201168201806040525081019061059e919061403a565b905080156106ec576106cd89866040015184815181106105c0576105c061417b565b60200260200101516001600160a01b03166338fff2d06040518163ffffffff1660e01b8152600401602060405180830381865afa158015610605573d6000803e3d6000fd5b505050506040513d601f19601f82011682018060405250810190610629919061403a565b8760400151858151811061063f5761063f61417b565b60200260200101518860400151868151811061065d5761065d61417b565b60200260200101516001600160a01b0316634de046d56040518163ffffffff1660e01b8152600401602060405180830381865afa1580156106a2573d6000803e3d6000fd5b505050506040513d601f19601f820116820180604052508101906106c69190614337565b8589612388565b8684815181106106df576106df61417b565b6020026020010181815250505b6106f583614354565b9250505b6001016104fe565b505050509392505050565b815181516060918291829190806001600160401b0381111561073057610730613d17565b604051908082528060200260200182016040528015610759578160200160208202803683370190505b509450806001600160401b0381111561077457610774613d17565b60405190808252806020026020018201604052801561079d578160200160208202803683370190505b509350816001600160401b038111156107b8576107b8613d17565b6040519080825280602002602001820160405280156107e1578160200160208202803683370190505b50925060005b8281101561089a578781815181106108015761080161417b565b60200260200101516001600160a01b03166370a08231306040518263ffffffff1660e01b81526004016108349190614191565b602060405180830381865afa158015610851573d6000803e3d6000fd5b505050506040513d601f19601f82011682018060405250810190610875919061403a565b8482815181106108875761088761417b565b60209081029190910101526001016107e7565b5060005b8181101561099d578681815181106108b8576108b861417b565b60200260200101518682815181106108d2576108d261417b565b60200260200101906001600160a01b031690816001600160a01b0316815250508681815181106109045761090461417b565b60200260200101516001600160a01b03166370a08231306040518263ffffffff1660e01b81526004016109379190614191565b602060405180830381865afa158015610954573d6000803e3d6000fd5b505050506040513d601f19601f82011682018060405250810190610978919061403a565b85828151811061098a5761098a61417b565b602090810291909101015260010161089e565b50876001600160a01b031663e6f1daf26040518163ffffffff1660e01b8152600401600060405180830381600087803b1580156109d957600080fd5b505af11580156109ed573d6000803e3d6000fd5b5050505060005b81811015610acb57848181518110610a0e57610a0e61417b565b6020026020010151878281518110610a2857610a2861417b565b60200260200101516001600160a01b03166370a08231306040518263ffffffff1660e01b8152600401610a5b9190614191565b602060405180830381865afa158015610a78573d6000803e3d6000fd5b505050506040513d601f19601f82011682018060405250810190610a9c919061403a565b610aa69190614324565b858281518110610ab857610ab861417b565b60209081029190910101526001016109f4565b50610ad685856125cb565b909990985092965091945050505050565b60606000610af3613c4d565b604051631f29a8cd60e31b8152600481018690526001600160a01b0387169063f94d466890602401600060405180830381865afa158015610b38573d6000803e3d6000fd5b505050506040513d6000823e601f3d908101601f19168201604052610b6091908101906140ae565b50606083015260408201819052516020820152610b7d8560601c90565b6001600160a01b03166382687a566040518163ffffffff1660e01b8152600401602060405180830381865afa158015610bba573d6000803e3d6000fd5b505050506040513d601f19601f82011682018060405250810190610bde919061403a565b808252604082015180519091908110610bf957610bf961417b565b60200260200101516001600160a01b03166370a08231306040518263ffffffff1660e01b8152600401610c2c9190614191565b602060405180830381865afa158015610c49573d6000803e3d6000fd5b505050506040513d601f19601f82011682018060405250810190610c6d919061403a565b91506000610c8487836040015184600001516127b9565b9050610c9f8583604001518460600151848660000151612abd565b6040805160808101825230808252600060208084018290529383019190915260608201819052918501519296509250906001600160401b03811115610ce657610ce6613d17565b604051908082528060200260200182016040528015610d0f578160200160208202803683370190505b509050600060018460200151610d259190614324565b6001600160401b03811115610d3c57610d3c613d17565b604051908082528060200260200182016040528015610d65578160200160208202803683370190505b5090506000805b8560200151811015610f6b5785518114610f6357610ec08b87604001518381518110610d9a57610d9a61417b565b60200260200101516001600160a01b03166338fff2d06040518163ffffffff1660e01b8152600401602060405180830381865afa158015610ddf573d6000803e3d6000fd5b505050506040513d601f19601f82011682018060405250810190610e03919061403a565b88604001518481518110610e1957610e1961417b565b60200260200101516001600160a01b0316634de046d56040518163ffffffff1660e01b8152600401602060405180830381865afa158015610e5e573d6000803e3d6000fd5b505050506040513d601f19601f82011682018060405250810190610e829190614337565b89604001518581518110610e9857610e9861417b565b60200260200101518c8781518110610eb257610eb261417b565b60200260200101518a612388565b848281518110610ed257610ed261417b565b602002602001018181525050838181518110610ef057610ef061417b565b6020026020010151838381518110610f0a57610f0a61417b565b602002602001018181525050610f5786604001518281518110610f2f57610f2f61417b565b6020026020010151858381518110610f4957610f4961417b565b60200260200101518d612fff565b610f6082614354565b91505b600101610d6c565b50896001600160a01b031663b95cac288a30306040518060800160405280610f948c6040015190565b81526020018981526020016001896000604051602001610fb69392919061436d565b6040516020818303038152906040528152602001600015158152506040518563ffffffff1660e01b8152600401610ff094939291906142dc565b600060405180830381600087803b15801561100a57600080fd5b505af115801561101e573d6000803e3d6000fd5b50505060408601518651815160009350811061103c5761103c61417b565b60200260200101516001600160a01b03166370a08231306040518263ffffffff1660e01b815260040161106f9190614191565b602060405180830381865afa15801561108c573d6000803e3d6000fd5b505050506040513d601f19601f820116820180604052508101906110b0919061403a565b90508681116110c05760006110ca565b6110ca8782614324565b9650505050505050935093915050565b604051631f29a8cd60e31b8152600481018290526060906000906001600160a01b0385169063f94d466890602401600060405180830381865afa158015611125573d6000803e3d6000fd5b505050506040513d6000823e601f3d908101601f1916820160405261114d91908101906140ae565b50509050600061115d8460601c90565b6001600160a01b03166382687a566040518163ffffffff1660e01b8152600401602060405180830381865afa15801561119a573d6000803e3d6000fd5b505050506040513d601f19601f820116820180604052508101906111be919061403a565b82519091506111ce600182614324565b6001600160401b038111156111e5576111e5613d17565b60405190808252806020026020018201604052801561120e578160200160208202803683370190505b5093506000805b828110156114da578084146114d25760008582815181106112385761123861417b565b602002602001015190506000896001600160a01b031663f94d4668836001600160a01b03166338fff2d06040518163ffffffff1660e01b8152600401602060405180830381865afa158015611291573d6000803e3d6000fd5b505050506040513d601f19601f820116820180604052508101906112b5919061403a565b6040518263ffffffff1660e01b81526004016112d391815260200190565b600060405180830381865afa1580156112f0573d6000803e3d6000fd5b505050506040513d6000823e601f3d908101601f1916820160405261131891908101906140ae565b509150506000826001600160a01b0316634d64cd746040518163ffffffff1660e01b8152600401602060405180830381865afa15801561135c573d6000803e3d6000fd5b505050506040513d601f19601f82011682018060405250810190611380919061403a565b90506000836001600160a01b03166316b8d6ff6040518163ffffffff1660e01b8152600401602060405180830381865afa1580156113c2573d6000803e3d6000fd5b505050506040513d601f19601f820116820180604052508101906113e6919061403a565b9050670de0b6b3a7640000846001600160a01b031663f5431aa86040518163ffffffff1660e01b8152600401602060405180830381865afa15801561142f573d6000803e3d6000fd5b505050506040513d601f19601f82011682018060405250810190611453919061403a565b8483815181106114655761146561417b565b602002602001015161147791906143a2565b61148191906143b9565b8383815181106114935761149361417b565b60200260200101516114a591906143db565b8a87815181106114b7576114b761417b565b60209081029190910101526114cb86614354565b9550505050505b600101611215565b505050505092915050565b60606114ef613c4d565b6114f98360601c90565b6001600160a01b03166382687a566040518163ffffffff1660e01b8152600401602060405180830381865afa158015611536573d6000803e3d6000fd5b505050506040513d601f19601f8201168201806040525081019061155a919061403a565b8152604051631f29a8cd60e31b8152600481018490526001600160a01b0385169063f94d466890602401600060405180830381865afa1580156115a1573d6000803e3d6000fd5b505050506040513d6000823e601f3d908101601f191682016040526115c991908101906140ae565b5060608301526040820181905251602082018190526115ea90600190614324565b6001600160401b0381111561160157611601613d17565b60405190808252806020026020018201604052801561162a578160200160208202803683370190505b506040805160808101825230808252600060208301819052828401919091526060820181905291840151845181519496509193909190811061166e5761166e61417b565b60200260200101516001600160a01b03166370a08231306040518263ffffffff1660e01b81526004016116a19190614191565b602060405180830381865afa1580156116be573d6000803e3d6000fd5b505050506040513d601f19601f820116820180604052508101906116e2919061403a565b90508015611bbe576000606484604001518560000151815181106117085761170861417b565b60200260200101516001600160a01b031663313ce5676040518163ffffffff1660e01b8152600401602060405180830381865afa15801561174d573d6000803e3d6000fd5b505050506040513d601f19601f8201168201806040525081019061177191906143ee565b61177c90600a6144f5565b61178691906143b9565b905060005b60028110156119b257876001600160a01b0316638bdb391388303060405180608001604052806117bc8c6040015190565b81526020018b602001516001600160401b038111156117dd576117dd613d17565b604051908082528060200260200182016040528015611806578160200160208202803683370190505b50815260200160028a60405160200161182092919061422e565b6040516020818303038152906040528152602001600015158152506040518563ffffffff1660e01b815260040161185a94939291906142dc565b600060405180830381600087803b15801561187457600080fd5b505af1158015611888573d6000803e3d6000fd5b5050505084604001518560000151815181106118a6576118a661417b565b60200260200101516001600160a01b03166370a08231306040518263ffffffff1660e01b81526004016118d99190614191565b602060405180830381865afa1580156118f6573d6000803e3d6000fd5b505050506040513d601f19601f8201168201806040525081019061191a919061403a565b92508183108061192a5750806001145b6119b257604051631f29a8cd60e31b8152600481018890526001600160a01b0389169063f94d466890602401600060405180830381865afa158015611973573d6000803e3d6000fd5b505050506040513d6000823e601f3d908101601f1916820160405261199b91908101906140ae565b506060870152506119ab81614354565b905061178b565b506000805b8560200151811015611bba5785518114611bb2576000866040015182815181106119e3576119e361417b565b60200260200101516001600160a01b03166370a08231306040518263ffffffff1660e01b8152600401611a169190614191565b602060405180830381865afa158015611a33573d6000803e3d6000fd5b505050506040513d601f19601f82011682018060405250810190611a57919061403a565b90508015611ba557611b868a88604001518481518110611a7957611a7961417b565b60200260200101516001600160a01b03166338fff2d06040518163ffffffff1660e01b8152600401602060405180830381865afa158015611abe573d6000803e3d6000fd5b505050506040513d601f19601f82011682018060405250810190611ae2919061403a565b89604001518581518110611af857611af861417b565b60200260200101518a604001518681518110611b1657611b1661417b565b60200260200101516001600160a01b0316634de046d56040518163ffffffff1660e01b8152600401602060405180830381865afa158015611b5b573d6000803e3d6000fd5b505050506040513d601f19601f82011682018060405250810190611b7f9190614337565b858b612388565b888481518110611b9857611b9861417b565b6020026020010181815250505b611bae83614354565b9250505b6001016119b7565b5050505b60008360400151846000015181518110611bda57611bda61417b565b60200260200101516001600160a01b03166370a08231306040518263ffffffff1660e01b8152600401611c0d9190614191565b602060405180830381865afa158015611c2a573d6000803e3d6000fd5b505050506040513d601f19601f82011682018060405250810190611c4e919061403a565b90508015611cb5576000805b8560200151811015611cb25785518114611caa57611c7c8989888887866130aa565b878381518110611c8e57611c8e61417b565b60200260200101818151611ca291906143db565b905250611cb2565b600101611c5a565b50505b505050505b92915050565b604051631f29a8cd60e31b8152600481018290526060906000906001600160a01b0385169063f94d466890602401600060405180830381865afa158015611d0b573d6000803e3d6000fd5b505050506040513d6000823e601f3d908101601f19168201604052611d3391908101906140ae565b505090506000611d438460601c90565b6001600160a01b03166382687a566040518163ffffffff1660e01b8152600401602060405180830381865afa158015611d80573d6000803e3d6000fd5b505050506040513d601f19601f82011682018060405250810190611da4919061403a565b8251909150611db4600182614324565b6001600160401b03811115611dcb57611dcb613d17565b604051908082528060200260200182016040528015611df4578160200160208202803683370190505b5093506000805b828110156114da57808414611ebb57848181518110611e1c57611e1c61417b565b60200260200101516001600160a01b0316634de046d56040518163ffffffff1660e01b8152600401602060405180830381865afa158015611e61573d6000803e3d6000fd5b505050506040513d601f19601f82011682018060405250810190611e859190614337565b868381518110611e9757611e9761417b565b6001600160a01b0390921660209283029190910190910152611eb882614354565b91505b600101611dfb565b60606000806000856001600160a01b031663f94d4668866040518263ffffffff1660e01b8152600401611ef891815260200190565b600060405180830381865afa158015611f15573d6000803e3d6000fd5b505050506040513d6000823e601f3d908101601f19168201604052611f3d91908101906140ae565b50815191935091506000611f518760601c90565b6001600160a01b03166382687a566040518163ffffffff1660e01b8152600401602060405180830381865afa158015611f8e573d6000803e3d6000fd5b505050506040513d601f19601f82011682018060405250810190611fb2919061403a565b9050611fbf600183614324565b6001600160401b03811115611fd657611fd6613d17565b604051908082528060200260200182016040528015611fff578160200160208202803683370190505b5095506000805b838110156120825782811461207a578481815181106120275761202761417b565b60200260200101518761203a91906143db565b965084818151811061204e5761204e61417b565b60200260200101518883815181106120685761206861417b565b60209081029190910101526001820191505b600101612006565b5050505050509250929050565b6060612099613c4d565b6120a38460601c90565b6001600160a01b03166382687a566040518163ffffffff1660e01b8152600401602060405180830381865afa1580156120e0573d6000803e3d6000fd5b505050506040513d601f19601f82011682018060405250810190612104919061403a565b8152604051631f29a8cd60e31b8152600481018590526001600160a01b0387169063f94d466890602401600060405180830381865afa15801561214b573d6000803e3d6000fd5b505050506040513d6000823e601f3d908101601f1916820160405261217391908101906140ae565b50606083015260408083018281529151602084015280516080810190915290516000916001600160a01b0388169163c7b2c52c918891309182918190815260200188602001516001600160401b038111156121d0576121d0613d17565b6040519080825280602002602001820160405280156121f9578160200160208202803683370190505b50815260200160028b60405160200161221392919061422e565b6040516020818303038152906040528152602001600015158152506040518563ffffffff1660e01b815260040161224d94939291906142dc565b6000604051808303816000875af115801561226c573d6000803e3d6000fd5b505050506040513d6000823e601f3d908101601f191682016040526122949190810190614504565b9150506000600183602001516122aa9190614324565b6001600160401b038111156122c1576122c1613d17565b6040519080825280602002602001820160405280156122ea578160200160208202803683370190505b50935060005b836020015181101561237c57835181146123745760008460400151828151811061231c5761231c61417b565b6020026020010151905061234a8a8286858151811061233d5761233d61417b565b6020026020010151613222565b86848151811061235c5761235c61417b565b602090810291909101015261237083614354565b9250505b6001016122f0565b50505050949350505050565b600080846001600160a01b03166370a08231306040518263ffffffff1660e01b81526004016123b79190614191565b602060405180830381865afa1580156123d4573d6000803e3d6000fd5b505050506040513d601f19601f820116820180604052508101906123f8919061403a565b60405163095ea7b360e01b81526001600160a01b038a81166004830152602482018790529192509087169063095ea7b3906044016020604051808303816000875af115801561244b573d6000803e3d6000fd5b505050506040513d601f19601f8201168201806040525081019061246f919061454a565b50876001600160a01b03166352bbbe296040518060c001604052808a8152602001600060018111156124a3576124a3614208565b8152602001896001600160a01b03168152602001886001600160a01b0316815260200187815260200160405180602001604052806000815250815250856001426040518563ffffffff1660e01b8152600401612502949392919061456c565b6020604051808303816000875af1158015612521573d6000803e3d6000fd5b505050506040513d601f19601f82011682018060405250810190612545919061403a565b506040516370a0823160e01b815281906001600160a01b038716906370a0823190612574903090600401614191565b602060405180830381865afa158015612591573d6000803e3d6000fd5b505050506040513d601f19601f820116820180604052508101906125b5919061403a565b6125bf9190614324565b98975050505050505050565b60608082518451146040518060400160405280600d81526020016c54532d3139206c656e6774687360981b815250906126175760405162461bcd60e51b815260040161037f91906141f5565b508351600090815b81811015612668578581815181106126395761263961417b565b6020026020010151600014612656578261265281614354565b9350505b8061266081614354565b91505061261f565b50816001600160401b0381111561268157612681613d17565b6040519080825280602002602001820160405280156126aa578160200160208202803683370190505b509350816001600160401b038111156126c5576126c5613d17565b6040519080825280602002602001820160405280156126ee578160200160208202803683370190505b5092506000805b828110156127ae5760008782815181106127115761271161417b565b602002602001015190508060001461279b578882815181106127355761273561417b565b602002602001015187848151811061274f5761274f61417b565b60200260200101906001600160a01b031690816001600160a01b031681525050808684815181106127825761278261417b565b60209081029190910101528261279781614354565b9350505b50806127a681614354565b9150506126f5565b505050509250929050565b8151606090806001600160401b038111156127d6576127d6613d17565b6040519080825280602002602001820160405280156127ff578160200160208202803683370190505b50915060005b81811015612ab457838114612aac5760008582815181106128285761282861417b565b602002602001015190506000876001600160a01b031663f94d4668836001600160a01b03166338fff2d06040518163ffffffff1660e01b8152600401602060405180830381865afa158015612881573d6000803e3d6000fd5b505050506040513d601f19601f820116820180604052508101906128a5919061403a565b6040518263ffffffff1660e01b81526004016128c391815260200190565b600060405180830381865afa1580156128e0573d6000803e3d6000fd5b505050506040513d6000823e601f3d908101601f1916820160405261290891908101906140ae565b50915050670de0b6b3a7640000826001600160a01b031663f5431aa86040518163ffffffff1660e01b8152600401602060405180830381865afa158015612953573d6000803e3d6000fd5b505050506040513d601f19601f82011682018060405250810190612977919061403a565b82846001600160a01b03166316b8d6ff6040518163ffffffff1660e01b8152600401602060405180830381865afa1580156129b6573d6000803e3d6000fd5b505050506040513d601f19601f820116820180604052508101906129da919061403a565b815181106129ea576129ea61417b565b60200260200101516129fc91906143a2565b612a0691906143b9565b81836001600160a01b0316634d64cd746040518163ffffffff1660e01b8152600401602060405180830381865afa158015612a45573d6000803e3d6000fd5b505050506040513d601f19601f82011682018060405250810190612a69919061403a565b81518110612a7957612a7961417b565b6020026020010151612a8b91906143db565b858481518110612a9d57612a9d61417b565b60200260200101818152505050505b600101612805565b50509392505050565b60408051606081810183528082526000602083015291810182905285516020808301829052865160408051808201909152601281527154532d342077726f6e67206c656e6774687360701b92810192909252909114612b2f5760405162461bcd60e51b815260040161037f91906141f5565b50865181602001511480612b535750865160018260200151612b519190614324565b145b6040518060400160405280601281526020017154532d342077726f6e67206c656e6774687360701b81525090612b9c5760405162461bcd60e51b815260040161037f91906141f5565b5080602001516001600160401b03811115612bb957612bb9613d17565b604051908082528060200260200182016040528015612be2578160200160208202803683370190505b50815260208101516001600160401b03811115612c0157612c01613d17565b604051908082528060200260200182016040528015612c2a578160200160208202803683370190505b50604082015260005b8160200151811015612dcf57838114612dc757858181518110612c5857612c5861417b565b6020026020010151600014156040518060400160405280601181526020017054532d35207a65726f2062616c616e636560781b81525090612cac5760405162461bcd60e51b815260040161037f91906141f5565b50868181518110612cbf57612cbf61417b565b60200260200101516001600160a01b031663313ce5676040518163ffffffff1660e01b8152600401602060405180830381865afa158015612d04573d6000803e3d6000fd5b505050506040513d601f19601f82011682018060405250810190612d2891906143ee565b612d3390600a6144f5565b8251805183908110612d4757612d4761417b565b602002602001018181525050848181518110612d6557612d6561417b565b6020026020010151868281518110612d7f57612d7f61417b565b6020026020010151670de0b6b3a7640000612d9a91906143a2565b612da491906143b9565b82604001518281518110612dba57612dba61417b565b6020026020010181815250505b600101612c33565b5060018160200151612de19190614324565b6001600160401b03811115612df857612df8613d17565b604051908082528060200260200182016040528015612e21578160200160208202803683370190505b5091506000805b8260200151811015612ff357848114612feb57600083604001518281518110612e5357612e5361417b565b60200260200101518a8481518110612e6d57612e6d61417b565b6020026020010151612e7f91906143a2565b90506000805b8560200151821015612fc757878214612fbc578551805185908110612eac57612eac61417b565b60200260200101518a8581518110612ec657612ec661417b565b602002602001015187600001518481518110612ee457612ee461417b565b602002602001015188604001518581518110612f0257612f0261417b565b60200260200101518d8681518110612f1c57612f1c61417b565b602002602001015187612f2f91906143a2565b612f3991906143b9565b612f4391906143a2565b612f4d91906143b9565b612f5791906143b9565b878281518110612f6957612f6961417b565b6020026020010181815250508b8181518110612f8757612f8761417b565b6020026020010151878281518110612fa157612fa161417b565b602002602001015111612fc75780612fb881614354565b9150505b600182019150612e85565b85602001518203612fda57505050612ff3565b84612fe481614354565b9550505050505b600101612e28565b50505095945050505050565b604051636eb1769f60e11b81523060048201526001600160a01b03828116602483015283919085169063dd62ed3e90604401602060405180830381865afa15801561304e573d6000803e3d6000fd5b505050506040513d601f19601f82011682018060405250810190613072919061403a565b10156130a55761308d6001600160a01b0384168260006136d6565b6130a56001600160a01b03841682600160ff1b6136d6565b505050565b6000806130f9888888604001518960000151815181106130cc576130cc61417b565b6020026020010151896040015187815181106130ea576130ea61417b565b6020026020010151888a612388565b90506125bf88876040015185815181106131155761311561417b565b60200260200101516001600160a01b03166338fff2d06040518163ffffffff1660e01b8152600401602060405180830381865afa15801561315a573d6000803e3d6000fd5b505050506040513d601f19601f8201168201806040525081019061317e919061403a565b886040015186815181106131945761319461417b565b6020026020010151896040015187815181106131b2576131b261417b565b60200260200101516001600160a01b0316634de046d56040518163ffffffff1660e01b8152600401602060405180830381865afa1580156131f7573d6000803e3d6000fd5b505050506040513d601f19601f8201168201806040525081019061321b9190614337565b858a612388565b6000806000846001600160a01b03166363fe3b566040518163ffffffff1660e01b81526004016040805180830381865afa158015613264573d6000803e3d6000fd5b505050506040513d601f19601f82011682018060405250810190613288919061462e565b9150915060006040518060600160405280876001600160a01b03166355c676286040518163ffffffff1660e01b8152600401602060405180830381865afa1580156132d7573d6000803e3d6000fd5b505050506040513d601f19601f820116820180604052508101906132fb919061403a565b81526020018481526020018381525090506000876001600160a01b031663f94d4668886001600160a01b03166338fff2d06040518163ffffffff1660e01b8152600401602060405180830381865afa15801561335b573d6000803e3d6000fd5b505050506040513d601f19601f8201168201806040525081019061337f919061403a565b6040518263ffffffff1660e01b815260040161339d91815260200190565b600060405180830381865afa1580156133ba573d6000803e3d6000fd5b505050506040513d6000823e601f3d908101601f191682016040526133e291908101906140ae565b509150506000876001600160a01b0316631dd746ea6040518163ffffffff1660e01b8152600401600060405180830381865afa158015613426573d6000803e3d6000fd5b505050506040513d6000823e601f3d908101601f1916820160405261344e9190810190614652565b905061345a828261380d565b670de0b6b3a7640000816000815181106134765761347661417b565b602002602001015161348891906143b9565b61349290886143a2565b96506000886001600160a01b0316634d64cd746040518163ffffffff1660e01b8152600401602060405180830381865afa1580156134d4573d6000803e3d6000fd5b505050506040513d601f19601f820116820180604052508101906134f8919061403a565b9050600083828151811061350e5761350e61417b565b6020026020010151905060008460008151811061352d5761352d61417b565b60200260200101518b6001600160a01b03166318160ddd6040518163ffffffff1660e01b8152600401602060405180830381865afa158015613573573d6000803e3d6000fd5b505050506040513d601f19601f82011682018060405250810190613597919061403a565b6135a19190614324565b905060006135af838861389e565b90506000868d6001600160a01b03166316b8d6ff6040518163ffffffff1660e01b8152600401602060405180830381865afa1580156135f2573d6000803e3d6000fd5b505050506040513d601f19601f82011682018060405250810190613616919061403a565b815181106136265761362661417b565b60200260200101518261363991906143db565b90506000836136488e846143a2565b61365291906143b9565b9050600081841161366457600061366e565b61366e8285614324565b9050600061367c828c613924565b90508888815181106136905761369061417b565b602002602001015181886136a49190614324565b6136b690670de0b6b3a76400006143a2565b6136c091906143b9565b9d50505050505050505050505050509392505050565b8015806137505750604051636eb1769f60e11b81523060048201526001600160a01b03838116602483015284169063dd62ed3e90604401602060405180830381865afa15801561372a573d6000803e3d6000fd5b505050506040513d601f19601f8201168201806040525081019061374e919061403a565b155b6137bb5760405162461bcd60e51b815260206004820152603660248201527f5361666545524332303a20617070726f76652066726f6d206e6f6e2d7a65726f60448201527520746f206e6f6e2d7a65726f20616c6c6f77616e636560501b606482015260840161037f565b604080516001600160a01b038416602482015260448082018490528251808303909101815260649091019091526020810180516001600160e01b031663095ea7b360e01b1790526130a59084906139eb565b815160005b8181101561389857670de0b6b3a76400008382815181106138355761383561417b565b602002602001015185838151811061384f5761384f61417b565b602002602001015161386191906143a2565b61386b91906143b9565b84828151811061387d5761387d61417b565b602090810291909101015261389181614354565b9050613812565b50505050565b600081602001518310156138f4576000670de0b6b3a764000083600001518585602001516138cc9190614324565b6138d691906143a2565b6138e091906143b9565b90506138ec8185614324565b915050611cba565b81604001518311613906575081611cba565b81516040830151600091670de0b6b3a7640000916138cc9087614324565b6000816020015183101561399757815161394690670de0b6b3a76400006143db565b60208301518351670de0b6b3a764000091613960916143a2565b61396a91906143b9565b61397490856143db565b61398690670de0b6b3a76400006143a2565b61399091906143b9565b9050611cba565b816040015183116139a9575081611cba565b81516139bd90670de0b6b3a7640000614324565b60408301518351670de0b6b3a7640000916139d7916143a2565b6139e191906143b9565b6139749085614324565b6000613a40826040518060400160405280602081526020017f5361666545524332303a206c6f772d6c6576656c2063616c6c206661696c6564815250856001600160a01b0316613abd9092919063ffffffff16565b8051909150156130a55780806020019051810190613a5e919061454a565b6130a55760405162461bcd60e51b815260206004820152602a60248201527f5361666545524332303a204552433230206f7065726174696f6e20646964206e6044820152691bdd081cdd58d8d9595960b21b606482015260840161037f565b6060613acc8484600085613ad4565b949350505050565b606082471015613b355760405162461bcd60e51b815260206004820152602660248201527f416464726573733a20696e73756666696369656e742062616c616e636520666f6044820152651c8818d85b1b60d21b606482015260840161037f565b600080866001600160a01b03168587604051613b519190614686565b60006040518083038185875af1925050503d8060008114613b8e576040519150601f19603f3d011682016040523d82523d6000602084013e613b93565b606091505b5091509150613ba487838387613baf565b979650505050505050565b60608315613c1e578251600003613c17576001600160a01b0385163b613c175760405162461bcd60e51b815260206004820152601d60248201527f416464726573733a2063616c6c20746f206e6f6e2d636f6e7472616374000000604482015260640161037f565b5081613acc565b613acc8383815115613c335781518083602001fd5b8060405162461bcd60e51b815260040161037f91906141f5565b6040518060800160405280600081526020016000815260200160608152602001606081525090565b6001600160a01b0381168114613c8a57600080fd5b50565b600080600060608486031215613ca257600080fd5b8335613cad81613c75565b95602085013595506040909401359392505050565b600081518084526020808501945080840160005b83811015613cf257815187529582019590820190600101613cd6565b509495945050505050565b602081526000613d106020830184613cc2565b9392505050565b634e487b7160e01b600052604160045260246000fd5b604051601f8201601f191681016001600160401b0381118282101715613d5557613d55613d17565b604052919050565b60006001600160401b03821115613d7657613d76613d17565b5060051b60200190565b600082601f830112613d9157600080fd5b81356020613da6613da183613d5d565b613d2d565b82815260059290921b84018101918181019086841115613dc557600080fd5b8286015b84811015613de9578035613ddc81613c75565b8352918301918301613dc9565b509695505050505050565b600080600060608486031215613e0957600080fd5b8335613e1481613c75565b925060208401356001600160401b0380821115613e3057600080fd5b613e3c87838801613d80565b93506040860135915080821115613e5257600080fd5b50613e5f86828701613d80565b9150509250925092565b600081518084526020808501945080840160005b83811015613cf25781516001600160a01b031687529582019590820190600101613e7d565b606081526000613eb56060830186613e69565b8281036020840152613ec78186613cc2565b90508281036040840152613edb8185613cc2565b9695505050505050565b600080600060608486031215613efa57600080fd5b8335613f0581613c75565b9250602084810135925060408501356001600160401b03811115613f2857600080fd5b8501601f81018713613f3957600080fd5b8035613f47613da182613d5d565b81815260059190911b82018301908381019089831115613f6657600080fd5b928401925b82841015613f8457833582529284019290840190613f6b565b80955050505050509250925092565b604081526000613fa66040830185613cc2565b90508260208301529392505050565b60008060408385031215613fc857600080fd5b8235613fd381613c75565b946020939093013593505050565b602081526000613d106020830184613e69565b6000806000806080858703121561400a57600080fd5b843561401581613c75565b9350602085013561402581613c75565b93969395505050506040820135916060013590565b60006020828403121561404c57600080fd5b5051919050565b600082601f83011261406457600080fd5b81516020614074613da183613d5d565b82815260059290921b8401810191818101908684111561409357600080fd5b8286015b84811015613de95780518352918301918301614097565b6000806000606084860312156140c357600080fd5b83516001600160401b03808211156140da57600080fd5b818601915086601f8301126140ee57600080fd5b815160206140fe613da183613d5d565b82815260059290921b8401810191818101908a84111561411d57600080fd5b948201945b8386101561414457855161413581613c75565b82529482019490820190614122565b9189015191975090935050508082111561415d57600080fd5b5061416a86828701614053565b925050604084015190509250925092565b634e487b7160e01b600052603260045260246000fd5b6001600160a01b0391909116815260200190565b60005b838110156141c05781810151838201526020016141a8565b50506000910152565b600081518084526141e18160208601602086016141a5565b601f01601f19169290920160200192915050565b602081526000613d1060208301846141c9565b634e487b7160e01b600052602160045260246000fd5b60038110613c8a57613c8a614208565b6040810161423b8461421e565b9281526020015290565b8051608080845281519084018190526000916020919082019060a0860190845b8181101561428a5783516001600160a01b031683529284019291840191600101614265565b5050828501519150858103838701526142a38183613cc2565b92505050604083015184820360408601526142be82826141c9565b91505060608301516142d4606086018215159052565b509392505050565b8481526001600160a01b03848116602083015283166040820152608060608201819052600090613edb90830184614245565b634e487b7160e01b600052601160045260246000fd5b81810381811115611cba57611cba61430e565b60006020828403121561434957600080fd5b8151613d1081613c75565b6000600182016143665761436661430e565b5060010190565b6143768461421e565b83815260606020820152600061438f6060830185613cc2565b905060ff83166040830152949350505050565b8082028115828204841417611cba57611cba61430e565b6000826143d657634e487b7160e01b600052601260045260246000fd5b500490565b80820180821115611cba57611cba61430e565b60006020828403121561440057600080fd5b815160ff81168114613d1057600080fd5b600181815b8085111561444c5781600019048211156144325761443261430e565b8085161561443f57918102915b93841c9390800290614416565b509250929050565b60008261446357506001611cba565b8161447057506000611cba565b81600181146144865760028114614490576144ac565b6001915050611cba565b60ff8411156144a1576144a161430e565b50506001821b611cba565b5060208310610133831016604e8410600b84101617156144cf575081810a611cba565b6144d98383614411565b80600019048211156144ed576144ed61430e565b029392505050565b6000613d1060ff841683614454565b6000806040838503121561451757600080fd5b8251915060208301516001600160401b0381111561453457600080fd5b61454085828601614053565b9150509250929050565b60006020828403121561455c57600080fd5b81518015158114613d1057600080fd5b60e08152845160e0820152600060208601516002811061458e5761458e614208565b61010083015260408601516001600160a01b03908116610120840152606087015116610140830152608086015161016083015260a086015160c06101808401526145dc6101a08401826141c9565b91505061461c602083018680516001600160a01b039081168352602080830151151590840152604080830151909116908301526060908101511515910152565b60a082019390935260c0015292915050565b6000806040838503121561464157600080fd5b505080516020909101519092909150565b60006020828403121561466457600080fd5b81516001600160401b0381111561467a57600080fd5b613acc84828501614053565b600082516146988184602087016141a5565b919091019291505056fea2646970667358221220930e429f3ea5360b41d04efeef7ed79c91e4fb87bdc4bb93da9e00dcc7b0a1d564736f6c63430008110033",
  "devdoc": {
    "details": "Many of functions are declared as external to reduce contract size",
    "kind": "dev",
    "methods": {
      "depositorEnter(IBVault,bytes32,uint256[])": {
        "params": {
          "amountsDesired_": "Amounts of assets on the balance of the depositor         The order of assets is the same as in getPoolTokens, but there is no pool-bpt         i.e. for \"Balancer Boosted Aave USD\" we have DAI, USDC, USDT"
        },
        "returns": {
          "amountsConsumedOut": "Amounts of assets deposited to balanceR pool         The order of assets is the same as in getPoolTokens, but there is no pool-bpt",
          "liquidityOut": "Total amount of liquidity added to balanceR pool in terms of pool-bpt tokens"
        }
      },
      "depositorExit(IBVault,bytes32,uint256)": {
        "params": {
          "liquidityAmount_": "Amount to withdraw in bpt"
        },
        "returns": {
          "amountsOut": "Result amounts of underlying (DAI, USDC..) that will be received from BalanceR         The order of assets is the same as in getPoolTokens, but there is no pool-bpt"
        }
      },
      "depositorExitFull(IBVault,bytes32)": {
        "details": "We make at most N attempts to withdraw (not more, each attempt takes a lot of gas).      Each attempt reduces available balance at ~1e4 times.",
        "returns": {
          "amountsOut": "Result amounts of underlying (DAI, USDC..) that will be received from BalanceR                    The order of assets is the same as in getPoolTokens, but there is no pool-bpt"
        }
      },
      "depositorPoolReserves(IBVault,bytes32)": {
        "returns": {
          "reservesOut": "Total amounts of embedded assets, i.e. for \"Balancer Boosted Tetu USD\" we return:                     0: balance USDT + (tUSDT recalculated to USDT)                     1: balance USDC + (tUSDC recalculated to USDC)                     2: balance DAI + (balance tDAI recalculated to DAI)"
        }
      },
      "depositorPoolWeights(IBVault,bytes32)": {
        "returns": {
          "totalWeight": "Total sum of all items of {weights}",
          "weights": "Array with weights, length = getPoolTokens.tokens - 1 (all assets except BPT)"
        }
      },
      "depositorQuoteExit(IBVault,IBalancerHelper,bytes32,uint256)": {
        "returns": {
          "amountsOut": "Result amounts of underlying (DAI, USDC..) that will be received from BalanceR         The order of assets is the same as in getPoolTokens, but there is no pool-bpt"
        }
      }
    },
    "version": 1
  },
  "userdoc": {
    "kind": "user",
    "methods": {
      "depositorClaimRewards(IBalancerGauge,address[],address[])": {
        "notice": "Rewards"
      },
      "depositorEnter(IBVault,bytes32,uint256[])": {
        "notice": "Deposit given amount to the pool."
      },
      "depositorExit(IBVault,bytes32,uint256)": {
        "notice": "Withdraw given amount of LP-tokens from the pool."
      },
      "depositorExitFull(IBVault,bytes32)": {
        "notice": "Withdraw all available amount of LP-tokens from the pool         BalanceR doesn't allow to withdraw exact amount, so it's allowed to leave dust amount on the balance"
      },
      "depositorPoolAssets(IBVault,bytes32)": {
        "notice": "Returns pool assets, same as getPoolTokens but without pool-bpt"
      },
      "depositorPoolReserves(IBVault,bytes32)": {
        "notice": "Total amounts of the main assets under control of the pool, i.e amounts of USDT, USDC, DAI"
      },
      "depositorPoolWeights(IBVault,bytes32)": {
        "notice": "Returns pool weights"
      },
      "depositorQuoteExit(IBVault,IBalancerHelper,bytes32,uint256)": {
        "notice": "Quotes output for given amount of LP-tokens from the pool."
      }
    },
    "notice": "Functions of BalancerBoostedDepositor",
    "version": 1
  },
  "storageLayout": {
    "storage": [],
    "types": null
  }
}