{
  "address": "0x2b84aeA7F52237b7b66456bf4ad9c68596Cf3CE7",
  "abi": [
    {
      "anonymous": false,
      "inputs": [
        {
          "indexed": false,
          "internalType": "address",
          "name": "token",
          "type": "address"
        },
        {
          "indexed": false,
          "internalType": "uint256",
          "name": "amount",
          "type": "uint256"
        }
      ],
      "name": "Claimed",
      "type": "event"
    },
    {
      "anonymous": false,
      "inputs": [
        {
          "indexed": false,
          "internalType": "uint256",
          "name": "oldValue",
          "type": "uint256"
        },
        {
          "indexed": false,
          "internalType": "uint256",
          "name": "newValue",
          "type": "uint256"
        }
      ],
      "name": "CompoundRatioChanged",
      "type": "event"
    },
    {
      "anonymous": false,
      "inputs": [
        {
          "indexed": false,
          "internalType": "address",
          "name": "controller",
          "type": "address"
        },
        {
          "indexed": false,
          "internalType": "uint256",
          "name": "ts",
          "type": "uint256"
        },
        {
          "indexed": false,
          "internalType": "uint256",
          "name": "block",
          "type": "uint256"
        }
      ],
      "name": "ContractInitialized",
      "type": "event"
    },
    {
      "anonymous": false,
      "inputs": [
        {
          "indexed": false,
          "internalType": "uint256",
          "name": "amount",
          "type": "uint256"
        }
      ],
      "name": "DepositToPool",
      "type": "event"
    },
    {
      "anonymous": false,
      "inputs": [
        {
          "indexed": false,
          "internalType": "address",
          "name": "sender",
          "type": "address"
        },
        {
          "indexed": false,
          "internalType": "uint256",
          "name": "amount",
          "type": "uint256"
        }
      ],
      "name": "EmergencyExit",
      "type": "event"
    },
    {
      "anonymous": false,
      "inputs": [
        {
          "indexed": false,
          "internalType": "uint8",
          "name": "version",
          "type": "uint8"
        }
      ],
      "name": "Initialized",
      "type": "event"
    },
    {
      "anonymous": false,
      "inputs": [
        {
          "indexed": false,
          "internalType": "uint256",
          "name": "balance",
          "type": "uint256"
        }
      ],
      "name": "InvestAll",
      "type": "event"
    },
    {
      "anonymous": false,
      "inputs": [
        {
          "indexed": false,
          "internalType": "address",
          "name": "token",
          "type": "address"
        },
        {
          "indexed": false,
          "internalType": "uint256",
          "name": "amount",
          "type": "uint256"
        }
      ],
      "name": "LiquidationThresholdChanged",
      "type": "event"
    },
    {
      "anonymous": false,
      "inputs": [
        {
          "indexed": false,
          "internalType": "address",
          "name": "sender",
          "type": "address"
        }
      ],
      "name": "ManualClaim",
      "type": "event"
    },
    {
      "anonymous": false,
      "inputs": [
        {
          "indexed": false,
          "internalType": "uint256[]",
          "name": "withdrawnAmounts",
          "type": "uint256[]"
        }
      ],
      "name": "OnDepositorEmergencyExit",
      "type": "event"
    },
    {
      "anonymous": false,
      "inputs": [
        {
          "indexed": false,
          "internalType": "uint256[]",
          "name": "amounts",
          "type": "uint256[]"
        },
        {
          "indexed": false,
          "internalType": "uint256[]",
          "name": "consumedAmounts",
          "type": "uint256[]"
        }
      ],
      "name": "OnDepositorEnter",
      "type": "event"
    },
    {
      "anonymous": false,
      "inputs": [
        {
          "indexed": false,
          "internalType": "uint256",
          "name": "liquidityAmount",
          "type": "uint256"
        },
        {
          "indexed": false,
          "internalType": "uint256[]",
          "name": "withdrawnAmounts",
          "type": "uint256[]"
        }
      ],
      "name": "OnDepositorExit",
      "type": "event"
    },
    {
      "anonymous": false,
      "inputs": [
        {
          "indexed": false,
          "internalType": "address[]",
          "name": "rewardTokens",
          "type": "address[]"
        },
        {
          "indexed": false,
          "internalType": "uint256[]",
          "name": "amountsToForward",
          "type": "uint256[]"
        },
        {
          "indexed": false,
          "internalType": "uint256",
          "name": "toPerf",
          "type": "uint256"
        },
        {
          "indexed": false,
          "internalType": "uint256",
          "name": "toInsurance",
          "type": "uint256"
        }
      ],
      "name": "Recycle",
      "type": "event"
    },
    {
      "anonymous": false,
      "inputs": [
        {
          "indexed": false,
          "internalType": "uint256",
          "name": "amount",
          "type": "uint256"
        }
      ],
      "name": "ReinvestThresholdPercentChanged",
      "type": "event"
    },
    {
      "anonymous": false,
      "inputs": [
        {
          "indexed": false,
          "internalType": "uint256",
          "name": "value",
          "type": "uint256"
        },
        {
          "indexed": false,
          "internalType": "address",
          "name": "oldLogic",
          "type": "address"
        }
      ],
      "name": "RevisionIncreased",
      "type": "event"
    },
    {
      "anonymous": false,
      "inputs": [
        {
          "indexed": false,
          "internalType": "string",
          "name": "name",
          "type": "string"
        }
      ],
      "name": "StrategySpecificNameChanged",
      "type": "event"
    },
    {
      "anonymous": false,
      "inputs": [
        {
          "indexed": false,
          "internalType": "uint256",
          "name": "amount",
          "type": "uint256"
        }
      ],
      "name": "WithdrawAllFromPool",
      "type": "event"
    },
    {
      "anonymous": false,
      "inputs": [
        {
          "indexed": false,
          "internalType": "uint256",
          "name": "amount",
          "type": "uint256"
        }
      ],
      "name": "WithdrawAllToSplitter",
      "type": "event"
    },
    {
      "anonymous": false,
      "inputs": [
        {
          "indexed": false,
          "internalType": "uint256",
          "name": "amount",
          "type": "uint256"
        }
      ],
      "name": "WithdrawFromPool",
      "type": "event"
    },
    {
      "anonymous": false,
      "inputs": [
        {
          "indexed": false,
          "internalType": "uint256",
          "name": "amount",
          "type": "uint256"
        },
        {
          "indexed": false,
          "internalType": "uint256",
          "name": "sent",
          "type": "uint256"
        },
        {
          "indexed": false,
          "internalType": "uint256",
          "name": "balance",
          "type": "uint256"
        }
      ],
      "name": "WithdrawToSplitter",
      "type": "event"
    },
    {
      "inputs": [],
      "name": "BALANCER_BOOSTED_DEPOSITOR_VERSION",
      "outputs": [
        {
          "internalType": "string",
          "name": "",
          "type": "string"
        }
      ],
      "stateMutability": "view",
      "type": "function"
    },
    {
      "inputs": [],
      "name": "CONTROLLABLE_VERSION",
      "outputs": [
        {
          "internalType": "string",
          "name": "",
          "type": "string"
        }
      ],
      "stateMutability": "view",
      "type": "function"
    },
    {
      "inputs": [],
      "name": "CONVERTER_STRATEGY_BASE_VERSION",
      "outputs": [
        {
          "internalType": "string",
          "name": "",
          "type": "string"
        }
      ],
      "stateMutability": "view",
      "type": "function"
    },
    {
      "inputs": [],
      "name": "NAME",
      "outputs": [
        {
          "internalType": "string",
          "name": "",
          "type": "string"
        }
      ],
      "stateMutability": "view",
      "type": "function"
    },
    {
      "inputs": [],
      "name": "PLATFORM",
      "outputs": [
        {
          "internalType": "string",
          "name": "",
          "type": "string"
        }
      ],
      "stateMutability": "view",
      "type": "function"
    },
    {
      "inputs": [],
      "name": "STRATEGY_BASE_VERSION",
      "outputs": [
        {
          "internalType": "string",
          "name": "",
          "type": "string"
        }
      ],
      "stateMutability": "view",
      "type": "function"
    },
    {
      "inputs": [],
      "name": "STRATEGY_VERSION",
      "outputs": [
        {
          "internalType": "string",
          "name": "",
          "type": "string"
        }
      ],
      "stateMutability": "view",
      "type": "function"
    },
    {
      "inputs": [],
      "name": "asset",
      "outputs": [
        {
          "internalType": "address",
          "name": "",
          "type": "address"
        }
      ],
      "stateMutability": "view",
      "type": "function"
    },
    {
      "inputs": [],
      "name": "calcInvestedAssets",
      "outputs": [
        {
          "internalType": "uint256",
          "name": "",
          "type": "uint256"
        }
      ],
      "stateMutability": "nonpayable",
      "type": "function"
    },
    {
      "inputs": [],
      "name": "capacity",
      "outputs": [
        {
          "internalType": "uint256",
          "name": "",
          "type": "uint256"
        }
      ],
      "stateMutability": "view",
      "type": "function"
    },
    {
      "inputs": [],
      "name": "claim",
      "outputs": [],
      "stateMutability": "nonpayable",
      "type": "function"
    },
    {
      "inputs": [],
      "name": "compoundRatio",
      "outputs": [
        {
          "internalType": "uint256",
          "name": "",
          "type": "uint256"
        }
      ],
      "stateMutability": "view",
      "type": "function"
    },
    {
      "inputs": [],
      "name": "controller",
      "outputs": [
        {
          "internalType": "address",
          "name": "",
          "type": "address"
        }
      ],
      "stateMutability": "view",
      "type": "function"
    },
    {
      "inputs": [],
      "name": "converter",
      "outputs": [
        {
          "internalType": "contract ITetuConverter",
          "name": "",
          "type": "address"
        }
      ],
      "stateMutability": "view",
      "type": "function"
    },
    {
      "inputs": [],
      "name": "created",
      "outputs": [
        {
          "internalType": "uint256",
          "name": "",
          "type": "uint256"
        }
      ],
      "stateMutability": "view",
      "type": "function"
    },
    {
      "inputs": [],
      "name": "createdBlock",
      "outputs": [
        {
          "internalType": "uint256",
          "name": "",
          "type": "uint256"
        }
      ],
      "stateMutability": "view",
      "type": "function"
    },
    {
      "inputs": [],
      "name": "doHardWork",
      "outputs": [
        {
          "internalType": "uint256",
          "name": "earned",
          "type": "uint256"
        },
        {
          "internalType": "uint256",
          "name": "lost",
          "type": "uint256"
        }
      ],
      "stateMutability": "nonpayable",
      "type": "function"
    },
    {
      "inputs": [],
      "name": "emergencyExit",
      "outputs": [],
      "stateMutability": "nonpayable",
      "type": "function"
    },
    {
      "inputs": [],
      "name": "gauge",
      "outputs": [
        {
          "internalType": "contract IBalancerGauge",
          "name": "",
          "type": "address"
        }
      ],
      "stateMutability": "view",
      "type": "function"
    },
    {
      "inputs": [
        {
          "internalType": "address",
          "name": "oldLogic",
          "type": "address"
        }
      ],
      "name": "increaseRevision",
      "outputs": [],
      "stateMutability": "nonpayable",
      "type": "function"
    },
    {
      "inputs": [
        {
          "internalType": "address",
          "name": "controller_",
          "type": "address"
        },
        {
          "internalType": "address",
          "name": "splitter_",
          "type": "address"
        },
        {
          "internalType": "address",
          "name": "converter_",
          "type": "address"
        },
        {
          "internalType": "address",
          "name": "pool_",
          "type": "address"
        }
      ],
      "name": "init",
      "outputs": [],
      "stateMutability": "nonpayable",
      "type": "function"
    },
    {
      "inputs": [
        {
          "internalType": "uint256",
          "name": "",
          "type": "uint256"
        },
        {
          "internalType": "bool",
          "name": "updateTotalAssetsBeforeInvest_",
          "type": "bool"
        }
      ],
      "name": "investAll",
      "outputs": [
        {
          "internalType": "uint256",
          "name": "strategyLoss",
          "type": "uint256"
        }
      ],
      "stateMutability": "nonpayable",
      "type": "function"
    },
    {
      "inputs": [],
      "name": "investedAssets",
      "outputs": [
        {
          "internalType": "uint256",
          "name": "",
          "type": "uint256"
        }
      ],
      "stateMutability": "view",
      "type": "function"
    },
    {
      "inputs": [
        {
          "internalType": "address",
          "name": "_value",
          "type": "address"
        }
      ],
      "name": "isController",
      "outputs": [
        {
          "internalType": "bool",
          "name": "",
          "type": "bool"
        }
      ],
      "stateMutability": "view",
      "type": "function"
    },
    {
      "inputs": [
        {
          "internalType": "address",
          "name": "_value",
          "type": "address"
        }
      ],
      "name": "isGovernance",
      "outputs": [
        {
          "internalType": "bool",
          "name": "",
          "type": "bool"
        }
      ],
      "stateMutability": "view",
      "type": "function"
    },
    {
      "inputs": [],
      "name": "isReadyToHardWork",
      "outputs": [
        {
          "internalType": "bool",
          "name": "",
          "type": "bool"
        }
      ],
      "stateMutability": "view",
      "type": "function"
    },
    {
      "inputs": [
        {
          "internalType": "address",
          "name": "",
          "type": "address"
        }
      ],
      "name": "liquidationThresholds",
      "outputs": [
        {
          "internalType": "uint256",
          "name": "",
          "type": "uint256"
        }
      ],
      "stateMutability": "view",
      "type": "function"
    },
    {
      "inputs": [
        {
          "internalType": "address[]",
          "name": "assets_",
          "type": "address[]"
        },
        {
          "internalType": "uint256[]",
          "name": "amounts_",
          "type": "uint256[]"
        }
      ],
      "name": "onTransferAmounts",
      "outputs": [],
      "stateMutability": "nonpayable",
      "type": "function"
    },
    {
      "inputs": [],
      "name": "performanceFee",
      "outputs": [
        {
          "internalType": "uint256",
          "name": "",
          "type": "uint256"
        }
      ],
      "stateMutability": "view",
      "type": "function"
    },
    {
      "inputs": [],
      "name": "performanceReceiver",
      "outputs": [
        {
          "internalType": "address",
          "name": "",
          "type": "address"
        }
      ],
      "stateMutability": "view",
      "type": "function"
    },
    {
      "inputs": [],
      "name": "poolId",
      "outputs": [
        {
          "internalType": "bytes32",
          "name": "",
          "type": "bytes32"
        }
      ],
      "stateMutability": "view",
      "type": "function"
    },
    {
      "inputs": [],
      "name": "previousImplementation",
      "outputs": [
        {
          "internalType": "address",
          "name": "",
          "type": "address"
        }
      ],
      "stateMutability": "view",
      "type": "function"
    },
    {
      "inputs": [],
      "name": "reinvestThresholdPercent",
      "outputs": [
        {
          "internalType": "uint256",
          "name": "",
          "type": "uint256"
        }
      ],
      "stateMutability": "view",
      "type": "function"
    },
    {
      "inputs": [
        {
          "internalType": "address",
          "name": "theAsset_",
          "type": "address"
        },
        {
          "internalType": "uint256",
          "name": "amount_",
          "type": "uint256"
        }
      ],
      "name": "requirePayAmountBack",
      "outputs": [
        {
          "internalType": "uint256",
          "name": "amountOut",
          "type": "uint256"
        }
      ],
      "stateMutability": "nonpayable",
      "type": "function"
    },
    {
      "inputs": [],
      "name": "revision",
      "outputs": [
        {
          "internalType": "uint256",
          "name": "",
          "type": "uint256"
        }
      ],
      "stateMutability": "view",
      "type": "function"
    },
    {
      "inputs": [],
      "name": "rewardTokens",
      "outputs": [
        {
          "internalType": "address[]",
          "name": "tokens",
          "type": "address[]"
        }
      ],
      "stateMutability": "view",
      "type": "function"
    },
    {
      "inputs": [
        {
          "internalType": "uint256",
          "name": "value",
          "type": "uint256"
        }
      ],
      "name": "setCompoundRatio",
      "outputs": [],
      "stateMutability": "nonpayable",
      "type": "function"
    },
    {
      "inputs": [
        {
          "internalType": "address",
          "name": "token",
          "type": "address"
        },
        {
          "internalType": "uint256",
          "name": "amount",
          "type": "uint256"
        }
      ],
      "name": "setLiquidationThreshold",
      "outputs": [],
      "stateMutability": "nonpayable",
      "type": "function"
    },
    {
      "inputs": [
        {
          "internalType": "uint256",
          "name": "percent_",
          "type": "uint256"
        }
      ],
      "name": "setReinvestThresholdPercent",
      "outputs": [],
      "stateMutability": "nonpayable",
      "type": "function"
    },
    {
      "inputs": [
        {
          "internalType": "string",
          "name": "name",
          "type": "string"
        }
      ],
      "name": "setStrategySpecificName",
      "outputs": [],
      "stateMutability": "nonpayable",
      "type": "function"
    },
    {
      "inputs": [
        {
          "internalType": "uint256",
          "name": "fee_",
          "type": "uint256"
        },
        {
          "internalType": "address",
          "name": "receiver_",
          "type": "address"
        }
      ],
      "name": "setupPerformanceFee",
      "outputs": [],
      "stateMutability": "nonpayable",
      "type": "function"
    },
    {
      "inputs": [],
      "name": "splitter",
      "outputs": [
        {
          "internalType": "address",
          "name": "",
          "type": "address"
        }
      ],
      "stateMutability": "view",
      "type": "function"
    },
    {
      "inputs": [],
      "name": "strategySpecificName",
      "outputs": [
        {
          "internalType": "string",
          "name": "",
          "type": "string"
        }
      ],
      "stateMutability": "view",
      "type": "function"
    },
    {
      "inputs": [
        {
          "internalType": "bytes4",
          "name": "interfaceId",
          "type": "bytes4"
        }
      ],
      "name": "supportsInterface",
      "outputs": [
        {
          "internalType": "bool",
          "name": "",
          "type": "bool"
        }
      ],
      "stateMutability": "view",
      "type": "function"
    },
    {
      "inputs": [],
      "name": "totalAssets",
      "outputs": [
        {
          "internalType": "uint256",
          "name": "",
          "type": "uint256"
        }
      ],
      "stateMutability": "view",
      "type": "function"
    },
    {
      "inputs": [],
      "name": "withdrawAllToSplitter",
      "outputs": [
        {
          "internalType": "uint256",
          "name": "strategyLoss",
          "type": "uint256"
        }
      ],
      "stateMutability": "nonpayable",
      "type": "function"
    },
    {
      "inputs": [
        {
          "internalType": "uint256",
          "name": "amount",
          "type": "uint256"
        }
      ],
      "name": "withdrawToSplitter",
      "outputs": [
        {
          "internalType": "uint256",
          "name": "strategyLoss",
          "type": "uint256"
        }
      ],
      "stateMutability": "nonpayable",
      "type": "function"
    }
  ],
  "transactionHash": "0x219c60369e8e67082611c15d6d851d02c5fd953f427e09754efd94d7d6d57837",
  "args": [],
  "numDeployments": 1,
  "solcInputHash": "548db540d2af41393408ff74368ec198",
  "bytecode": "0x60806040523480156200001157600080fd5b506200001c62000022565b620000e3565b600054610100900460ff16156200008f5760405162461bcd60e51b815260206004820152602760248201527f496e697469616c697a61626c653a20636f6e747261637420697320696e697469604482015266616c697a696e6760c81b606482015260840160405180910390fd5b60005460ff90811614620000e1576000805460ff191660ff9081179091556040519081527f7f26b83ff96e1f2b6a682f133852f6798a09c465da95921460cefb38474024989060200160405180910390a15b565b6152a480620000f36000396000f3fe608060405234801561001057600080fd5b50600436106102955760003560e01c806371ee017511610167578063a6f19c84116100ce578063cd4c815611610087578063cd4c8156146105b4578063ceee861d146105c7578063d295ea70146105eb578063de3d047c146105f4578063dee1f0e414610607578063f77c47911461061a57600080fd5b8063a6f19c841461054c578063ab9e3eee1461055f578063b245755614610566578063b429afeb14610579578063bd38837b1461058c578063c2b18aa01461059f57600080fd5b806387c7f7701161012057806387c7f770146104be5780638b4c7707146103ef578063936725ec146104d157806396b7b14e146104f55780639d0bcca014610508578063a3f4df7e1461051057600080fd5b806371ee01751461043957806373a50ef51461044257806378327438146104665780637cc96380146104865780637efc77fa1461048e57806387788782146104b557600080fd5b80634593144c1161020b57806354679963116101c457806354679963146103c85780635641ec03146103dd5780635cfc1a51146103e55780636207a0cf146103ef57806363e27734146104135780636ffb4c8e1461042657600080fd5b80634593144c1461036d5780634ad0b684146103755780634e71d92d1461037d5780634fa5d854146103855780634fac6ccd146103a257806351e03fbe146103b557600080fd5b806322b6f5e21161025d57806322b6f5e214610308578063325a19f11461031b57806333c5b58e1461032357806338d52e0f1461032b5780633cd8045e146103515780633e0dc34e1461036457600080fd5b806301e1d1141461029a57806301ffc9a7146102b557806306552ff3146102d85780630acd12c7146102ed5780630e30428d146102f5575b600080fd5b6102a2610622565b6040519081526020015b60405180910390f35b6102c86102c336600461433e565b6106b2565b60405190151581526020016102ac565b6102eb6102e636600461437d565b6106dd565b005b6102a2610803565b6102eb6103033660046143d9565b6109e6565b6102eb610316366004614405565b610aad565b6102a2610bdb565b6102a2610c0f565b600054610344906201000090046001600160a01b031681565b6040516102ac9190614435565b600154610344906001600160a01b031681565b6102a260645481565b6102a2610c87565b6032546102a2565b6102eb610cb7565b61038d610d68565b604080519283526020830191909152016102ac565b6102eb6103b0366004614449565b610dcd565b6102a26103c3366004614466565b610ef8565b6103d061110b565b6040516102ac91906144a3565b6102eb611199565b600160ff1b6102a2565b6103d0604051806040016040528060058152602001640312e302e360dc1b81525081565b6102eb61042136600461451c565b6112d7565b6102eb610434366004614466565b61138f565b6102a260355481565b6103d060405180604001604052806005815260200164322e322e3560d81b81525081565b6102a2610474366004614449565b60346020526000908152604090205481565b6102a2611480565b6103d0604051806040016040528060088152602001672130b630b731b2b960c11b81525081565b6102a260055481565b6102a26104cc3660046143d9565b6114b0565b6103d0604051806040016040528060058152602001640332e302e360dc1b81525081565b6102eb610503366004614633565b61163a565b6103446116df565b6103d06040518060400160405280601981526020017f42616c616e63657220426f6f737465642053747261746567790000000000000081525081565b606554610344906001600160a01b031681565b60016102c8565b6102a2610574366004614702565b61170f565b6102c8610587366004614449565b61184d565b603354610344906001600160a01b031681565b6105a7611872565b6040516102ac919061476b565b600454610344906001600160a01b031681565b6103d060405180604001604052806005815260200164189718971b60d91b81525081565b6102a260025481565b6102eb610602366004614466565b611a07565b6102c8610615366004614449565b611b01565b610344611b86565b600061062d60325490565b6000546040516370a0823160e01b8152620100009091046001600160a01b0316906370a0823190610662903090600401614435565b602060405180830381865afa15801561067f573d6000803e3d6000fd5b505050506040513d601f19601f820116820180604052508101906106a3919061477e565b6106ad91906147ad565b905090565b60006001600160e01b0319821663f73147b360e01b14806106d757506106d782611bb6565b92915050565b600054610100900460ff16158080156106fd5750600054600160ff909116105b806107175750303b158015610717575060005460ff166001145b61077f5760405162461bcd60e51b815260206004820152602e60248201527f496e697469616c697a61626c653a20636f6e747261637420697320616c72656160448201526d191e481a5b9a5d1a585b1a5e995960921b60648201526084015b60405180910390fd5b6000805460ff1916600117905580156107a2576000805461ff0019166101001790555b6107ab82611bdb565b6107b6858585611d10565b80156107fc576000805461ff0019169055604051600181527f7f26b83ff96e1f2b6a682f133852f6798a09c465da95921460cefb38474024989060200160405180910390a15b5050505050565b6001546000805460405163201de59f60e01b815291926001600160a01b03908116926201000090920416907356DCD1d1B26Ae44E6001d73705F99905Eb9850Bc9063201de59f90610858908590600401614435565b60006040518083038186803b15801561087057600080fd5b505af4158015610884573d6000803e3d6000fd5b50506040516370a0823160e01b8152600092506001600160a01b03841691506370a08231906108b7903090600401614435565b602060405180830381865afa1580156108d4573d6000803e3d6000fd5b505050506040513d601f19601f820116820180604052508101906108f8919061477e565b90506000806000610907611db2565b9250925092507356DCD1d1B26Ae44E6001d73705F99905Eb9850Bc631594b05b868686868b6040518663ffffffff1660e01b815260040161094c9594939291906147c0565b602060405180830381865af4158015610969573d6000803e3d6000fd5b505050506040513d601f19601f8201168201806040525081019061098d919061477e565b935083156109a9576109a96001600160a01b0386168786611dce565b6040518481527f97f6cbf669d73908a8de3b762891f88fcc476520fd70cb3d414dc9ac86e0a2e59060200160405180910390a19695505050505050565b7356DCD1d1B26Ae44E6001d73705F99905Eb9850Bc63493f6edc610a08611b86565b6040518263ffffffff1660e01b8152600401610a249190614435565b60006040518083038186803b158015610a3c57600080fd5b505af4158015610a50573d6000803e3d6000fd5b5050506001600160a01b03831660009081526034602052604090819020839055517f297f3fbc14027d2b4a4f7dac3dff2ad6b386024299045b0e163f131bb24b611d9150610aa190849084906147f0565b60405180910390a15050565b7356DCD1d1B26Ae44E6001d73705F99905Eb9850Bc634bead669610acf611b86565b6040518263ffffffff1660e01b8152600401610aeb9190614435565b60006040518083038186803b158015610b0357600080fd5b505af4158015610b17573d6000803e3d6000fd5b50505050620186a08211156040518060400160405280600c81526020016b0a6847440a8dede40d0d2ced60a31b81525090610b655760405162461bcd60e51b815260040161077691906144a3565b5060408051808201909152600f81526e53423a2057726f6e672076616c756560881b60208201526001600160a01b038216610bb35760405162461bcd60e51b815260040161077691906144a3565b50600591909155600480546001600160a01b0319166001600160a01b03909216919091179055565b60006106ad610c0b60017f6f55f470bdc9cb5f04223fd822021061668e4dccb43e8727b295106dc9769c8b614809565b5490565b60007356DCD1d1B26Ae44E6001d73705F99905Eb9850Bc63493f6edc610c33611b86565b6040518263ffffffff1660e01b8152600401610c4f9190614435565b60006040518083038186803b158015610c6757600080fd5b505af4158015610c7b573d6000803e3d6000fd5b505050506106ad611e29565b60006106ad610c0b60017f812a673dfca07956350df10f8a654925f561d7a0da09bdbe79e653939a14d9f1614809565b7356DCD1d1B26Ae44E6001d73705F99905Eb9850Bc63493f6edc610cd9611b86565b6040518263ffffffff1660e01b8152600401610cf59190614435565b60006040518083038186803b158015610d0d57600080fd5b505af4158015610d21573d6000803e3d6000fd5b50505050610d2d611ef6565b50507fed7f50f936a5ed7428d20f18e78d6dfe8bc37fd2f4e3cdb348327c769724492833604051610d5e9190614435565b60405180910390a1565b60015460408051808201909152600a81526914d08e8811195b9a595960b21b60208201526000918291906001600160a01b03163314610dba5760405162461bcd60e51b815260040161077691906144a3565b50610dc56001611fb2565b915091509091565b333014610e1c5760405162461bcd60e51b815260206004820152601b60248201527f496e637265617365207265766973696f6e20666f7262696464656e00000000006044820152606401610776565b6000610e4c610c0b60017f22573091f17911fb166032a3d9e0554aa73d31b7b7ddea4a4dd2995650af84bd614809565b610e579060016147ad565b9050610e8b81610e8860017f22573091f17911fb166032a3d9e0554aa73d31b7b7ddea4a4dd2995650af84bd614809565b55565b610eba82610e8860017fbfaaa2fb63266ff27c2da975f5894955056f50419af651a81f6c5060581857e4614809565b604080518281526001600160a01b03841660208201527ff27e2ef832a4eb8ed8ec553b875eecd44764cda95b1c24170e281539e0a869c89101610aa1565b6001546000805460405163201de59f60e01b815291926001600160a01b03908116926201000090920416907356DCD1d1B26Ae44E6001d73705F99905Eb9850Bc9063201de59f90610f4d908590600401614435565b60006040518083038186803b158015610f6557600080fd5b505af4158015610f79573d6000803e3d6000fd5b50506040516370a0823160e01b8152600092506001600160a01b03841691506370a0823190610fac903090600401614435565b602060405180830381865afa158015610fc9573d6000803e3d6000fd5b505050506040513d601f19601f82011682018060405250810190610fed919061477e565b9050808511156110995760008061100c6110078489614809565b612087565b604051631594b05b60e01b815290985091935091507356DCD1d1B26Ae44E6001d73705F99905Eb9850Bc90631594b05b906110539087908790879087908c906004016147c0565b602060405180830381865af4158015611070573d6000803e3d6000fd5b505050506040513d601f19601f82011682018060405250810190611094919061477e565b925050505b60006110a586836120a2565b905080156110c1576110c16001600160a01b0384168583611dce565b60408051878152602081018390529081018390527f21b38dd19808c509ae6afc969adfaf7d35fe949c37abd493b963cf9b68cc1acb9060600160405180910390a150505050919050565b600680546111189061481c565b80601f01602080910402602001604051908101604052809291908181526020018280546111449061481c565b80156111915780601f1061116657610100808354040283529160200191611191565b820191906000526020600020905b81548152906001019060200180831161117457829003601f168201915b505050505081565b7356DCD1d1B26Ae44E6001d73705F99905Eb9850Bc63493f6edc6111bb611b86565b6040518263ffffffff1660e01b81526004016111d79190614435565b60006040518083038186803b1580156111ef57600080fd5b505af4158015611203573d6000803e3d6000fd5b5050505061120f6120ba565b600080546040516370a0823160e01b8152620100009091046001600160a01b0316919082906370a0823190611248903090600401614435565b602060405180830381865afa158015611265573d6000803e3d6000fd5b505050506040513d601f19601f82011682018060405250810190611289919061477e565b6001549091506112a6906001600160a01b03848116911683611dce565b7ff779df072f94d207563b1ba8c286814086f1e6bb436a2652e307dccc56ed79e83382604051610aa19291906147f0565b7356DCD1d1B26Ae44E6001d73705F99905Eb9850Bc63493f6edc6112f9611b86565b6040518263ffffffff1660e01b81526004016113159190614435565b60006040518083038186803b15801561132d57600080fd5b505af4158015611341573d6000803e3d6000fd5b505050508060069081611354919061489e565b507f13bdeb5b5bb760c04b92d93e56c576c6805359d41a13d3cca178aa7c8526b9848160405161138491906144a3565b60405180910390a150565b7356DCD1d1B26Ae44E6001d73705F99905Eb9850Bc63493f6edc6113b1611b86565b6040518263ffffffff1660e01b81526004016113cd9190614435565b60006040518083038186803b1580156113e557600080fd5b505af41580156113f9573d6000803e3d6000fd5b50505050620186a08111156040518060400160405280600f81526020016e53423a2057726f6e672076616c756560881b8152509061144a5760405162461bcd60e51b815260040161077691906144a3565b5060358190556040518181527fe4166dfcf23bbd3e3f764a99dc8fa740554c03c82d6019b81cf265f396f6f2fe90602001611384565b60006106ad610c0b60017f22573091f17911fb166032a3d9e0554aa73d31b7b7ddea4a4dd2995650af84bd614809565b60335460408051808201909152600a81526914d08e8811195b9a595960b21b60208201526000916001600160a01b0316903382146115015760405162461bcd60e51b815260040161077691906144a3565b5060008061150e866121c1565b91509150600061151d8761222d565b90508581101561158357600061153161229d565b9050801561158157600061154482612347565b90507faebc771af58936b05e89b0be7d3f9761480181abcd4a649fbdd01753fda16970828260405161157792919061498d565b60405180910390a1505b505b734CAE21Efa11950616A4Ba7A7D7722aCDF6E477ce6399c1fde4878486886115a9611b86565b60005460405160e088901b6001600160e01b03191681526115e49695949392916201000090046001600160a01b0316906034906004016149a6565b602060405180830381865af4158015611601573d6000803e3d6000fd5b505050506040513d601f19601f82011682018060405250810190611625919061477e565b945061162f612614565b505050505092915050565b60335460408051808201909152600a81526914d08e8811195b9a595960b21b6020820152906001600160a01b031633146116875760405162461bcd60e51b815260040161077691906144a3565b508151815160408051808201909152600d81526c54532d3139206c656e6774687360981b60208201529082146116d05760405162461bcd60e51b815260040161077691906144a3565b506116d9612614565b50505050565b60006106ad610c0b60017fbfaaa2fb63266ff27c2da975f5894955056f50419af651a81f6c5060581857e4614809565b60015460405163201de59f60e01b81526000917356DCD1d1B26Ae44E6001d73705F99905Eb9850Bc9163201de59f91611756916001600160a01b0390911690600401614435565b60006040518083038186803b15801561176e57600080fd5b505af4158015611782573d6000803e3d6000fd5b5050600080546040516370a0823160e01b81529193506201000090046001600160a01b031691506370a08231906117bd903090600401614435565b602060405180830381865afa1580156117da573d6000803e3d6000fd5b505050506040513d601f19601f820116820180604052508101906117fe919061477e565b90508015611813576118108184612628565b91505b6040518181527f94bcfc9a8eba5229c2956ccb1858733fce588bc02145ac053c40b9827a33837f9060200160405180910390a15092915050565b6000611857611b86565b6001600160a01b0316826001600160a01b0316149050919050565b606060005b600881101561190c576065546040516354c49fe960e01b8152600481018390526000916001600160a01b0316906354c49fe990602401602060405180830381865afa1580156118ca573d6000803e3d6000fd5b505050506040513d601f19601f820116820180604052508101906118ee91906149f5565b6001600160a01b03161461190c5761190581614a12565b9050611877565b806001600160401b03811115611924576119246144d6565b60405190808252806020026020018201604052801561194d578160200160208202803683370190505b50915060005b81811015611a02576065546040516354c49fe960e01b8152600481018390526001600160a01b03909116906354c49fe990602401602060405180830381865afa1580156119a4573d6000803e3d6000fd5b505050506040513d601f19601f820116820180604052508101906119c891906149f5565b8382815181106119da576119da614a2b565b6001600160a01b03909216602092830291909101909101526119fb81614a12565b9050611953565b505090565b7356DCD1d1B26Ae44E6001d73705F99905Eb9850Bc63ac1d8b35611a29611b86565b6040518263ffffffff1660e01b8152600401611a459190614435565b60006040518083038186803b158015611a5d57600080fd5b505af4158015611a71573d6000803e3d6000fd5b50505050620186a08111156040518060400160405280600c81526020016b0a6847440a8dede40d0d2ced60a31b81525090611abf5760405162461bcd60e51b815260040161077691906144a3565b5060025460408051918252602082018390527f89979f75740477f1609671a960c1f57e40a47e58bdf1623bc683d806fb6407e5910160405180910390a1600255565b6000816001600160a01b0316611b15611b86565b6001600160a01b0316635aa6e6756040518163ffffffff1660e01b8152600401602060405180830381865afa158015611b52573d6000803e3d6000fd5b505050506040513d601f19601f82011682018060405250810190611b7691906149f5565b6001600160a01b03161492915050565b60006106ad610c0b60017f5165972ef41194f06c5007493031d0b927c20741adcb74403b954009fd2c3618614809565b60006001600160e01b0319821663c19fa56160e01b14806106d757506106d782612775565b600054610100900460ff16611c025760405162461bcd60e51b815260040161077690614a41565b806001600160a01b03166338fff2d06040518163ffffffff1660e01b8152600401602060405180830381865afa158015611c40573d6000803e3d6000fd5b505050506040513d601f19601f82011682018060405250810190611c64919061477e565b60645560405163a8ea687560e01b8152733b8ca519122cdd8efb272b0d3085453404b25bd09063a8ea687590611c9e908490600401614435565b602060405180830381865afa158015611cbb573d6000803e3d6000fd5b505050506040513d601f19601f82011682018060405250810190611cdf91906149f5565b606580546001600160a01b0319166001600160a01b03928316908117909155611d0d918316906000196127aa565b50565b600054610100900460ff16611d375760405162461bcd60e51b815260040161077690614a41565b611d4183836128ae565b603380546001600160a01b0319166001600160a01b038316179055611d6a6064620186a0614a8c565b6035557fe4166dfcf23bbd3e3f764a99dc8fa740554c03c82d6019b81cf265f396f6f2fe611d9c6064620186a0614a8c565b60405190815260200160405180910390a1505050565b6000806000611dc2600019612a82565b91959094509092509050565b611e248363a9059cbb60e01b8484604051602401611ded9291906147f0565b60408051601f198184030181529190526020810180516001600160e01b03166001600160e01b031990931692909217909152612fb1565b505050565b6000806000611e4c600060029054906101000a90046001600160a01b03166121c1565b91509150734CAE21Efa11950616A4Ba7A7D7722aCDF6E477ce63c9bce69083611e7b611e7661229d565b613083565b6033546040516001600160e01b031960e086901b168152611eae93929187916001600160a01b0390911690600401614aae565b602060405180830381865af4158015611ecb573d6000803e3d6000fd5b505050506040513d601f19601f82011682018060405250810190611eef919061477e565b9250505090565b6060806000806000611f066131a7565b60335492955090935091507358065724B3C55ee64D1AE73B3830aCae6Aa8911F9063e99de4da906001600160a01b0316611f3e613254565b8686866040518663ffffffff1660e01b8152600401611f61959493929190614af5565b600060405180830381865af4158015611f7e573d6000803e3d6000fd5b505050506040513d6000823e601f3d908101601f19168201604052611fa69190810190614c12565b90969095509350505050565b603254600090819081611fc3612614565b9050611fd282826000806132eb565b90945092506000806000611fe4613333565b91945092509050611ff583886147ad565b965061200182876147ad565b955087801561202a5750620186a08460355461201d9190614c6b565b6120279190614a8c565b81115b1561207d5761203a816000612628565b5061207761204882866147ad565b600054612063906201000090046001600160a01b031661222d565b60325461207091906147ad565b89896132eb565b90975095505b5050505050915091565b600080600061209584612a82565b9196909550909350915050565b60008183106120b157816120b3565b825b9392505050565b60006120c46133a8565b90507f768a28cb3459382a3d2173feb2dad0235f8de680b109872da581a3aa269fe5f4816040516120f59190614c82565b60405180910390a160008054819061211b906201000090046001600160a01b03166121c1565b6033549193509150734CAE21Efa11950616A4Ba7A7D7722aCDF6E477ce906358b54f16906001600160a01b0316612158612153611b86565b6133ba565b846034600019886040518763ffffffff1660e01b815260040161218096959493929190614c95565b602060405180830381865af415801561219d573d6000803e3d6000fd5b505050506040513d601f19601f820116820180604052508101906116d0919061477e565b606060006121cd613254565b91506121d9828461341e565b90506000198114156040518060400160405280600f81526020016e53423a2057726f6e672076616c756560881b815250906122275760405162461bcd60e51b815260040161077691906144a3565b50915091565b6040516370a0823160e01b81526000906001600160a01b038316906370a082319061225c903090600401614435565b602060405180830381865afa158015612279573d6000803e3d6000fd5b505050506040513d601f19601f820116820180604052508101906106d7919061477e565b60006122ab60645460601c90565b6001600160a01b03166370a08231306040518263ffffffff1660e01b81526004016122d69190614435565b602060405180830381865afa1580156122f3573d6000803e3d6000fd5b505050506040513d601f19601f82011682018060405250810190612317919061477e565b6065546040516370a0823160e01b81526001600160a01b03909116906370a0823190610662903090600401614435565b6064546065546040516370a0823160e01b8152606092916001600160a01b03169082841c9060009082906370a0823190612385903090600401614435565b602060405180830381865afa1580156123a2573d6000803e3d6000fd5b505050506040513d601f19601f820116820180604052508101906123c6919061477e565b90506000836001600160a01b03166370a08231306040518263ffffffff1660e01b81526004016123f69190614435565b602060405180830381865afa158015612413573d6000803e3d6000fd5b505050506040513d601f19601f82011682018060405250810190612437919061477e565b90506000828811612449576000612453565b6124538389614809565b9050801561246657818111156124665750805b80156124c757604051632e1a7d4d60e01b8152600481018290526001600160a01b03861690632e1a7d4d90602401600060405180830381600087803b1580156124ae57600080fd5b505af11580156124c2573d6000803e3d6000fd5b505050505b6124d182846147ad565b8810156125765760405163209f6ae760e01b815273ba12222222228d8ba445958a75a0704d566bf2c8600482015260248101879052604481018290527379d12eA649352f14aFA67EaeD60b7028EcA073209063209f6ae790606401600060405180830381865af4158015612549573d6000803e3d6000fd5b505050506040513d6000823e601f3d908101601f191682016040526125719190810190614cd2565b612608565b604051634b4c46fd60e01b81527379d12eA649352f14aFA67EaeD60b7028EcA0732090634b4c46fd906125c39073ba12222222228d8ba445958a75a0704d566bf2c8908a906004016147f0565b600060405180830381865af41580156125e0573d6000803e3d6000fd5b505050506040513d6000823e601f3d908101601f191682016040526126089190810190614cd2565b98975050505050505050565b600061261e611e29565b6032819055919050565b6000806126348361347c565b603554909350909150620186a09061264d908390614c6b565b6126579190614a8c565b84111561276e57600080546201000090046001600160a01b03169061267b8261222d565b905060008061269e600060029054906101000a90046001600160a01b03166121c1565b60335491935091506000906126be906001600160a01b03168a85856134c5565b905060006126cb826136ed565b5090507f59400c8c523464b521238ea8f50e923f2bc64663557e6afec92a97f7efe92d0582826040516126ff929190614d06565b60405180910390a16000612711612614565b9050600061271e8861222d565b905061272a878a6147ad565b61273482846147ad565b10156127655761274481836147ad565b61274e888b6147ad565b6127589190614809565b612762908b6147ad565b99505b50505050505050505b5092915050565b60006001600160e01b0319821663b7b79fa960e01b14806106d757506301ffc9a760e01b6001600160e01b03198316146106d7565b8015806128245750604051636eb1769f60e11b81523060048201526001600160a01b03838116602483015284169063dd62ed3e90604401602060405180830381865afa1580156127fe573d6000803e3d6000fd5b505050506040513d601f19601f82011682018060405250810190612822919061477e565b155b61288f5760405162461bcd60e51b815260206004820152603660248201527f5361666545524332303a20617070726f76652066726f6d206e6f6e2d7a65726f60448201527520746f206e6f6e2d7a65726f20616c6c6f77616e636560501b6064820152608401610776565b611e248363095ea7b360e01b8484604051602401611ded9291906147f0565b600054610100900460ff166128d55760405162461bcd60e51b815260040161077690614a41565b6128ff817fd2de0374d4479f33e63ae5ed6ca772a10463dd883a90c612050b51fab6196400613865565b612908826138bf565b60405163b429afeb60e01b81526001600160a01b0382169063b429afeb90612934908590600401614435565b602060405180830381865afa158015612951573d6000803e3d6000fd5b505050506040513d601f19601f820116820180604052508101906129759190614d34565b6040518060400160405280600f81526020016e53423a2057726f6e672076616c756560881b815250906129bb5760405162461bcd60e51b815260040161077691906144a3565b50806001600160a01b03166338d52e0f6040518163ffffffff1660e01b8152600401602060405180830381865afa1580156129fa573d6000803e3d6000fd5b505050506040513d601f19601f82011682018060405250810190612a1e91906149f5565b600080546001600160a01b03928316620100000262010000600160b01b031990911617905560018054929091166001600160a01b031992831617905560048054909116739cc199d4353b5fb3e6c8eebc99f5139e0d8ea06b17905550612710600555565b6000806000612b04604051806101c0016040528060001515815260200160008152602001606081526020016000815260200160008152602001600081526020016000815260200160608152602001600081526020016060815260200160008152602001600081526020016060815260200160006001600160a01b031681525090565b60001985148152612b15600161347c565b6020830191909152815190925080612b2c57508415155b8015612b3b5750602081015115155b15612f9d57612b48613254565b6101808201819052600080546001600160a01b036201000090910481166101a0850181905260335490911692612b7d9161341e565b90506000612b8f846101a0015161222d565b9050612b99613ae2565b6040850152612ba6613b79565b6060850152612bb361229d565b60808501526101a0840151604051637a55caf360e01b81526001600160a01b0380861660048301529091166024820152734CAE21Efa11950616A4Ba7A7D7722aCDF6E477ce90637a55caf390604401602060405180830381865af4158015612c1f573d6000803e3d6000fd5b505050506040513d601f19601f82011682018060405250810190612c43919061477e565b60c085015283517358065724B3C55ee64D1AE73B3830aCae6Aa8911F9063ec0cc4fd90612c705789612c73565b60005b3087610180015186888a602001518b608001516040518863ffffffff1660e01b8152600401612ca89796959493929190614d51565b600060405180830381865af4158015612cc5573d6000803e3d6000fd5b505050506040513d6000823e601f3d908101601f19168201604052612ced9190810190614da0565b60e086015260a0850181905215612e15576000612d0d8560a00151612347565b9050612d1761229d565b8560800151612d269190614809565b60a086018190526040517faebc771af58936b05e89b0be7d3f9761480181abcd4a649fbdd01753fda1697091612d5d91849061498d565b60405180910390a1734CAE21Efa11950616A4Ba7A7D7722aCDF6E477ce637a9a23e5858761018001518689604001518a60a001518b606001518c60e00151896040518963ffffffff1660e01b8152600401612dbf989796959493929190614ddc565b600060405180830381865af4158015612ddc573d6000803e3d6000fd5b505050506040513d6000823e601f3d908101601f19168201604052612e049190810190614e5e565b60e087015261012086015250612ea6565b61018084015160e0850151604051636138ea8560e01b8152734CAE21Efa11950616A4Ba7A7D7722aCDF6E477ce92636138ea8592612e5a928892918891600401614e94565b600060405180830381865af4158015612e77573d6000803e3d6000fd5b505050506040513d6000823e601f3d908101601f19168201604052612e9f9190810190614cd2565b6101208501525b612ec2846101800151838660e00151868c896101200151613be8565b8461010001818151612ed491906147ad565b905250612edf612614565b6101408501526101a0840151612ef49061222d565b6101608501526020840151612f0a9082906147ad565b846101600151856101400151612f2091906147ad565b1015612f6357836101600151846101400151612f3c91906147ad565b818560200151612f4c91906147ad565b612f569190614809565b612f6090866147ad565b94505b670de0b6b3a76400008460c00151856101000151612f819190614c6b565b612f8b9190614a8c565b8460c001519650965050505050612faa565b6000806000935093509350505b9193909250565b6000613006826040518060400160405280602081526020017f5361666545524332303a206c6f772d6c6576656c2063616c6c206661696c6564815250856001600160a01b0316613ded9092919063ffffffff16565b805190915015611e2457808060200190518101906130249190614d34565b611e245760405162461bcd60e51b815260206004820152602a60248201527f5361666545524332303a204552433230206f7065726174696f6e20646964206e6044820152691bdd081cdd58d8d9595960b21b6064820152608401610776565b6060600061308f61229d565b9050806000036130ea576130a1613254565b516001600160401b038111156130b9576130b96144d6565b6040519080825280602002602001820160405280156130e2578160200160208202803683370190505b509392505050565b6064805460405163f91294e960e01b815273ba12222222228d8ba445958a75a0704d566bf2c8600482015273239e55f427d44c3cc793f49bfb507ebe76638a2b602482015260448101919091529081018490527379d12eA649352f14aFA67EaeD60b7028EcA073209063f91294e990608401600060405180830381865af4158015613179573d6000803e3d6000fd5b505050506040513d6000823e601f3d908101601f191682016040526120b39190810190614cd2565b50919050565b606554606090819081907379d12eA649352f14aFA67EaeD60b7028EcA0732090633a7e535c906001600160a01b03166131de613254565b6131e6611872565b6040518463ffffffff1660e01b815260040161320493929190614ed0565b600060405180830381865af4158015613221573d6000803e3d6000fd5b505050506040513d6000823e601f3d908101601f191682016040526132499190810190614f10565b925092509250909192565b606454604051633db1bdf160e11b81526060917379d12eA649352f14aFA67EaeD60b7028EcA0732091637b637be2916132a69173ba12222222228d8ba445958a75a0704d566bf2c891906004016147f0565b600060405180830381865af41580156132c3573d6000803e3d6000fd5b505050506040513d6000823e601f3d908101601f191682016040526106ad9190810190614f97565b60008085851115613311576133008686614809565b61330a90856147ad565b9350613328565b61331b8587614809565b61332590846147ad565b92505b509194909350915050565b600080600080613357600060029054906101000a90046001600160a01b031661222d565b9050600080613364611ef6565b915091506133728282613e04565b60005461338d906201000090046001600160a01b031661222d565b935061339b838588886132eb565b9097909650939450505050565b60606106ad6133b561229d565b612347565b6000816001600160a01b0316634046ebae6040518163ffffffff1660e01b8152600401602060405180830381865afa1580156133fa573d6000803e3d6000fd5b505050506040513d601f19601f820116820180604052508101906106d791906149f5565b8151600090815b8181101561347057836001600160a01b031685828151811061344957613449614a2b565b60200260200101516001600160a01b0316036134685791506106d79050565b600101613425565b50600019949350505050565b60325460009081908361348f5780613497565b613497612614565b9250836134a55760006134bd565b8083106134b35760006134bd565b6134bd8382614809565b915050915091565b60606000806134d2613ea4565b915091507358065724B3C55ee64D1AE73B3830aCae6Aa8911F6359d0ede687878585898d6001600160a01b031663f77c47916040518163ffffffff1660e01b8152600401602060405180830381865afa158015613533573d6000803e3d6000fd5b505050506040513d601f19601f8201168201806040525081019061355791906149f5565b6001600160a01b0316632630c12f6040518163ffffffff1660e01b8152600401602060405180830381865afa158015613594573d6000803e3d6000fd5b505050506040513d601f19601f820116820180604052508101906135b891906149f5565b6040518763ffffffff1660e01b81526004016135d996959493929190614fcb565b600060405180830381865af41580156135f6573d6000803e3d6000fd5b505050506040513d6000823e601f3d908101601f1916820160405261361e9190810190614cd2565b9250734CAE21Efa11950616A4Ba7A7D7722aCDF6E477ce631a2221c788878787603460008c8c8151811061365457613654614a2b565b60200260200101516001600160a01b03166001600160a01b03168152602001908152602001600020546040518663ffffffff1660e01b815260040161369d95949392919061501e565b600060405180830381865af41580156136ba573d6000803e3d6000fd5b505050506040513d6000823e601f3d908101601f191682016040526136e29190810190614cd2565b979650505050505050565b60645460405163423511a360e01b815260609160009181841c907379d12eA649352f14aFA67EaeD60b7028EcA073209063423511a3906137499073ba12222222228d8ba445958a75a0704d566bf2c89086908a9060040161506d565b600060405180830381865af4158015613766573d6000803e3d6000fd5b505050506040513d6000823e601f3d908101601f1916820160405261378e9190810190615094565b6065546040516370a0823160e01b81529296509094506001600160a01b039081169163b6b55f25918416906370a08231906137cd903090600401614435565b602060405180830381865afa1580156137ea573d6000803e3d6000fd5b505050506040513d601f19601f8201168201806040525081019061380e919061477e565b6040518263ffffffff1660e01b815260040161382c91815260200190565b600060405180830381600087803b15801561384657600080fd5b505af115801561385a573d6000803e3d6000fd5b505050505050915091565b61386f8282613f3d565b6138bb5760405162461bcd60e51b815260206004820152601a60248201527f496e74657266616365206973206e6f7420737570706f727465640000000000006044820152606401610776565b5050565b600054610100900460ff166138e65760405162461bcd60e51b815260040161077690614a41565b6001600160a01b03811661392e5760405162461bcd60e51b815260206004820152600f60248201526e2d32b9379031b7b73a3937b63632b960891b6044820152606401610776565b613958817f4c2403fdcb3cff9b705d96bf0705858e3390412670a62c8bcba611ca7e20ab86613865565b60006001600160a01b0316816001600160a01b0316635aa6e6756040518163ffffffff1660e01b8152600401602060405180830381865afa1580156139a1573d6000803e3d6000fd5b505050506040513d601f19601f820116820180604052508101906139c591906149f5565b6001600160a01b031603613a0d5760405162461bcd60e51b815260206004820152600f60248201526e5a65726f20676f7665726e616e636560881b6044820152606401610776565b613a3c81610e8860017f5165972ef41194f06c5007493031d0b927c20741adcb74403b954009fd2c3618614809565b613a6b42610e8860017f6f55f470bdc9cb5f04223fd822021061668e4dccb43e8727b295106dc9769c8b614809565b613a9a43610e8860017f812a673dfca07956350df10f8a654925f561d7a0da09bdbe79e653939a14d9f1614809565b604080516001600160a01b038316815242602082015243918101919091527f1a2dd071001ebf6e03174e3df5b305795a4ad5d41d8fdb9ba41dbbe23671342690606001611384565b60645460405163464a5ef760e01b81526060917379d12eA649352f14aFA67EaeD60b7028EcA073209163464a5ef791613b349173ba12222222228d8ba445958a75a0704d566bf2c891906004016147f0565b600060405180830381865af4158015613b51573d6000803e3d6000fd5b505050506040513d6000823e601f3d908101601f191682016040526106ad9190810190614cd2565b6000613b8760645460601c90565b6001600160a01b031663876f303b6040518163ffffffff1660e01b8152600401602060405180830381865afa158015613bc4573d6000803e3d6000fd5b505050506040513d601f19601f820116820180604052508101906106ad919061477e565b6000805b8751811015613c2457828181518110613c0757613c07614a2b565b602002602001015182613c1a91906147ad565b9150600101613bec565b506000613c32612153611b86565b90506000198414158015613c685750620186a0613c51816103e86147ad565b613c5b9086614c6b565b613c659190614a8c565b82115b15613d3857734CAE21Efa11950616A4Ba7A7D7722aCDF6E477ce632c4cf7a386838a603460008e8e81518110613ca057613ca0614a2b565b60200260200101516001600160a01b03166001600160a01b03168152602001908152602001600020548d8c6040518763ffffffff1660e01b8152600401613cec969594939291906150da565b600060405180830381865af4158015613d09573d6000803e3d6000fd5b505050506040513d6000823e601f3d908101601f19168201604052613d319190810190614da0565b5050613de2565b828781518110613d4a57613d4a614a2b565b6020026020010151734CAE21Efa11950616A4Ba7A7D7722aCDF6E477ce6358b54f1687848b60348a8f6040518763ffffffff1660e01b8152600401613d9496959493929190614c95565b602060405180830381865af4158015613db1573d6000803e3d6000fd5b505050506040513d601f19601f82011682018060405250810190613dd5919061477e565b613ddf91906147ad565b91505b509695505050505050565b6060613dfc848460008561401b565b949350505050565b81518015611e24576000613e1884846140eb565b90507358065724B3C55ee64D1AE73B3830aCae6Aa8911F63acf741a3613e3c611b86565b6001546040516001600160e01b031960e085901b168152613e6e92916001600160a01b03169089908790600401615133565b60006040518083038186803b158015613e8657600080fd5b505af4158015613e9a573d6000803e3d6000fd5b5050505050505050565b60645460405163552ad6a160e11b81526060916000917379d12eA649352f14aFA67EaeD60b7028EcA073209163aa55ad4291613ef89173ba12222222228d8ba445958a75a0704d566bf2c8916004016147f0565b600060405180830381865af4158015613f15573d6000803e3d6000fd5b505050506040513d6000823e601f3d908101601f19168201604052610dc59190810190615094565b60006001600160a01b038316613f845760405162461bcd60e51b815260206004820152600c60248201526b5a65726f206164647265737360a01b6044820152606401610776565b823b6000819003613f995760009150506106d7565b6040516301ffc9a760e01b81526001600160e01b0319841660048201526001600160a01b038516906301ffc9a790602401602060405180830381865afa925050508015614003575060408051601f3d908101601f1916820190925261400091810190614d34565b60015b156140115791506106d79050565b5060009392505050565b60608247101561407c5760405162461bcd60e51b815260206004820152602660248201527f416464726573733a20696e73756666696369656e742062616c616e636520666f6044820152651c8818d85b1b60d21b6064820152608401610776565b600080866001600160a01b031685876040516140989190615171565b60006040518083038185875af1925050503d80600081146140d5576040519150601f19603f3d011682016040523d82523d6000602084013e6140da565b606091505b50915091506136e2878383876142a0565b60008054603354600254606093620100009093046001600160a01b039081169392734CAE21Efa11950616A4Ba7A7D7722aCDF6E477ce9263ef50284f92909116908590614136613254565b614141612153611b86565b60348c8c6005546040518a63ffffffff1660e01b815260040161416c9998979695949392919061518d565b600060405180830381865af4158015614189573d6000803e3d6000fd5b505050506040513d6000823e601f3d908101601f191682016040526141b19190810190615094565b600154600480546040516323f5a0c560e21b81526001600160a01b0380891693820193909352602481018590529282166044840152166064820152919450915060009081907358065724B3C55ee64D1AE73B3830aCae6Aa8911F90638fd68314906084016040805180830381865af4158015614231573d6000803e3d6000fd5b505050506040513d601f19601f820116820180604052508101906142559190615211565b915091507f4c300a656bfa0935e36cd55e92634bc20b2b7e0a0ebf424a2a25bfaac3a01e768786848460405161428e9493929190615235565b60405180910390a15050505092915050565b6060831561430f578251600003614308576001600160a01b0385163b6143085760405162461bcd60e51b815260206004820152601d60248201527f416464726573733a2063616c6c20746f206e6f6e2d636f6e74726163740000006044820152606401610776565b5081613dfc565b613dfc83838151156143245781518083602001fd5b8060405162461bcd60e51b815260040161077691906144a3565b60006020828403121561435057600080fd5b81356001600160e01b0319811681146120b357600080fd5b6001600160a01b0381168114611d0d57600080fd5b6000806000806080858703121561439357600080fd5b843561439e81614368565b935060208501356143ae81614368565b925060408501356143be81614368565b915060608501356143ce81614368565b939692955090935050565b600080604083850312156143ec57600080fd5b82356143f781614368565b946020939093013593505050565b6000806040838503121561441857600080fd5b82359150602083013561442a81614368565b809150509250929050565b6001600160a01b0391909116815260200190565b60006020828403121561445b57600080fd5b81356120b381614368565b60006020828403121561447857600080fd5b5035919050565b60005b8381101561449a578181015183820152602001614482565b50506000910152565b60208152600082518060208401526144c281604085016020870161447f565b601f01601f19169190910160400192915050565b634e487b7160e01b600052604160045260246000fd5b604051601f8201601f191681016001600160401b0381118282101715614514576145146144d6565b604052919050565b6000602080838503121561452f57600080fd5b82356001600160401b038082111561454657600080fd5b818501915085601f83011261455a57600080fd5b81358181111561456c5761456c6144d6565b61457e601f8201601f191685016144ec565b9150808252868482850101111561459457600080fd5b8084840185840137600090820190930192909252509392505050565b60006001600160401b038211156145c9576145c96144d6565b5060051b60200190565b600082601f8301126145e457600080fd5b813560206145f96145f4836145b0565b6144ec565b82815260059290921b8401810191818101908684111561461857600080fd5b8286015b84811015613de2578035835291830191830161461c565b6000806040838503121561464657600080fd5b82356001600160401b038082111561465d57600080fd5b818501915085601f83011261467157600080fd5b813560206146816145f4836145b0565b82815260059290921b840181019181810190898411156146a057600080fd5b948201945b838610156146c75785356146b881614368565b825294820194908201906146a5565b965050860135925050808211156146dd57600080fd5b506146ea858286016145d3565b9150509250929050565b8015158114611d0d57600080fd5b6000806040838503121561471557600080fd5b82359150602083013561442a816146f4565b600081518084526020808501945080840160005b838110156147605781516001600160a01b03168752958201959082019060010161473b565b509495945050505050565b6020815260006120b36020830184614727565b60006020828403121561479057600080fd5b5051919050565b634e487b7160e01b600052601160045260246000fd5b808201808211156106d7576106d7614797565b6001600160a01b039586168152602081019490945260408401929092526060830152909116608082015260a00190565b6001600160a01b03929092168252602082015260400190565b818103818111156106d7576106d7614797565b600181811c9082168061483057607f821691505b6020821081036131a157634e487b7160e01b600052602260045260246000fd5b601f821115611e2457600081815260208120601f850160051c810160208610156148775750805b601f850160051c820191505b8181101561489657828155600101614883565b505050505050565b81516001600160401b038111156148b7576148b76144d6565b6148cb816148c5845461481c565b84614850565b602080601f83116001811461490057600084156148e85750858301515b600019600386901b1c1916600185901b178555614896565b600085815260208120601f198616915b8281101561492f57888601518255948401946001909101908401614910565b508582101561494d5787850151600019600388901b60f8161c191681555b5050505050600190811b01905550565b600081518084526020808501945080840160005b8381101561476057815187529582019590820190600101614971565b828152604060208201526000613dfc604083018461495d565b87815286602082015260e0604082015260006149c560e0830188614727565b6001600160a01b0396871660608401529486166080830152509190931660a082015260c001919091529392505050565b600060208284031215614a0757600080fd5b81516120b381614368565b600060018201614a2457614a24614797565b5060010190565b634e487b7160e01b600052603260045260246000fd5b6020808252602b908201527f496e697469616c697a61626c653a20636f6e7472616374206973206e6f74206960408201526a6e697469616c697a696e6760a81b606082015260800190565b600082614aa957634e487b7160e01b600052601260045260246000fd5b500490565b608081526000614ac16080830187614727565b8281036020840152614ad3818761495d565b604084019590955250506001600160a01b039190911660609091015292915050565b6001600160a01b038616815260a060208201819052600090614b1990830187614727565b8281036040840152614b2b8187614727565b90508281036060840152614b3f818661495d565b90508281036080840152613ddf818561495d565b600082601f830112614b6457600080fd5b81516020614b746145f4836145b0565b82815260059290921b84018101918181019086841115614b9357600080fd5b8286015b84811015613de2578051614baa81614368565b8352918301918301614b97565b600082601f830112614bc857600080fd5b81516020614bd86145f4836145b0565b82815260059290921b84018101918181019086841115614bf757600080fd5b8286015b84811015613de25780518352918301918301614bfb565b60008060408385031215614c2557600080fd5b82516001600160401b0380821115614c3c57600080fd5b614c4886838701614b53565b93506020850151915080821115614c5e57600080fd5b506146ea85828601614bb7565b80820281158282048414176106d7576106d7614797565b6020815260006120b3602083018461495d565b600060018060a01b03808916835280881660208401525085604083015284606083015283608083015260c060a083015261260860c0830184614727565b600060208284031215614ce457600080fd5b81516001600160401b03811115614cfa57600080fd5b613dfc84828501614bb7565b604081526000614d19604083018561495d565b8281036020840152614d2b818561495d565b95945050505050565b600060208284031215614d4657600080fd5b81516120b3816146f4565b878152600060018060a01b03808916602084015260e06040840152614d7960e0840189614727565b606084019790975294909416608082015260a081019290925260c090910152509392505050565b60008060408385031215614db357600080fd5b8251915060208301516001600160401b03811115614dd057600080fd5b6146ea85828601614bb7565b6001600160a01b038916815261010060208201819052600090614e018382018b614727565b90508860408401528281036060840152614e1b818961495d565b90508660808401528560a084015282810360c0840152614e3b818661495d565b905082810360e0840152614e4f818561495d565b9b9a5050505050505050505050565b60008060408385031215614e7157600080fd5b82516001600160401b0380821115614e8857600080fd5b614c4886838701614bb7565b6001600160a01b0385168152608060208201819052600090614eb890830186614727565b84604084015282810360608401526136e2818561495d565b6001600160a01b0384168152606060208201819052600090614ef490830185614727565b8281036040840152614f068185614727565b9695505050505050565b600080600060608486031215614f2557600080fd5b83516001600160401b0380821115614f3c57600080fd5b614f4887838801614b53565b94506020860151915080821115614f5e57600080fd5b614f6a87838801614bb7565b93506040860151915080821115614f8057600080fd5b50614f8d86828701614bb7565b9150509250925092565b600060208284031215614fa957600080fd5b81516001600160401b03811115614fbf57600080fd5b613dfc84828501614b53565b86815260c060208201526000614fe460c0830188614727565b8281036040840152614ff6818861495d565b6060840196909652505060808101929092526001600160a01b031660a0909101529392505050565b6001600160a01b038616815260a06020820181905260009061504290830187614727565b856040840152828103606084015261505a818661495d565b9150508260808301529695505050505050565b60018060a01b0384168152826020820152606060408201526000614d2b606083018461495d565b600080604083850312156150a757600080fd5b82516001600160401b038111156150bd57600080fd5b6150c985828601614bb7565b925050602083015190509250929050565b6001600160a01b03878116825286166020820152604081018590526060810184905260c06080820181905260009061511490830185614727565b82810360a0840152615126818561495d565b9998505050505050505050565b6001600160a01b0385811682528416602082015260806040820181905260009061515f90830185614727565b82810360608401526136e2818561495d565b6000825161518381846020870161447f565b9190910192915050565b6001600160a01b038a81168252898116602083015260408201899052610120606083018190526000916151c28483018b614727565b91508089166080850152508660a084015282810360c08401526151e58187614727565b905082810360e08401526151f9818661495d565b915050826101008301529a9950505050505050505050565b6000806040838503121561522457600080fd5b505080516020909101519092909150565b6080815260006152486080830187614727565b828103602084015261525a818761495d565b60408401959095525050606001529291505056fea2646970667358221220256476b335f55d8ccea714000e37545ceb65f39b11bfa3e0d39db4045eecdd0e64736f6c63430008110033",
  "deployedBytecode": "0x608060405234801561001057600080fd5b50600436106102955760003560e01c806371ee017511610167578063a6f19c84116100ce578063cd4c815611610087578063cd4c8156146105b4578063ceee861d146105c7578063d295ea70146105eb578063de3d047c146105f4578063dee1f0e414610607578063f77c47911461061a57600080fd5b8063a6f19c841461054c578063ab9e3eee1461055f578063b245755614610566578063b429afeb14610579578063bd38837b1461058c578063c2b18aa01461059f57600080fd5b806387c7f7701161012057806387c7f770146104be5780638b4c7707146103ef578063936725ec146104d157806396b7b14e146104f55780639d0bcca014610508578063a3f4df7e1461051057600080fd5b806371ee01751461043957806373a50ef51461044257806378327438146104665780637cc96380146104865780637efc77fa1461048e57806387788782146104b557600080fd5b80634593144c1161020b57806354679963116101c457806354679963146103c85780635641ec03146103dd5780635cfc1a51146103e55780636207a0cf146103ef57806363e27734146104135780636ffb4c8e1461042657600080fd5b80634593144c1461036d5780634ad0b684146103755780634e71d92d1461037d5780634fa5d854146103855780634fac6ccd146103a257806351e03fbe146103b557600080fd5b806322b6f5e21161025d57806322b6f5e214610308578063325a19f11461031b57806333c5b58e1461032357806338d52e0f1461032b5780633cd8045e146103515780633e0dc34e1461036457600080fd5b806301e1d1141461029a57806301ffc9a7146102b557806306552ff3146102d85780630acd12c7146102ed5780630e30428d146102f5575b600080fd5b6102a2610622565b6040519081526020015b60405180910390f35b6102c86102c336600461433e565b6106b2565b60405190151581526020016102ac565b6102eb6102e636600461437d565b6106dd565b005b6102a2610803565b6102eb6103033660046143d9565b6109e6565b6102eb610316366004614405565b610aad565b6102a2610bdb565b6102a2610c0f565b600054610344906201000090046001600160a01b031681565b6040516102ac9190614435565b600154610344906001600160a01b031681565b6102a260645481565b6102a2610c87565b6032546102a2565b6102eb610cb7565b61038d610d68565b604080519283526020830191909152016102ac565b6102eb6103b0366004614449565b610dcd565b6102a26103c3366004614466565b610ef8565b6103d061110b565b6040516102ac91906144a3565b6102eb611199565b600160ff1b6102a2565b6103d0604051806040016040528060058152602001640312e302e360dc1b81525081565b6102eb61042136600461451c565b6112d7565b6102eb610434366004614466565b61138f565b6102a260355481565b6103d060405180604001604052806005815260200164322e322e3560d81b81525081565b6102a2610474366004614449565b60346020526000908152604090205481565b6102a2611480565b6103d0604051806040016040528060088152602001672130b630b731b2b960c11b81525081565b6102a260055481565b6102a26104cc3660046143d9565b6114b0565b6103d0604051806040016040528060058152602001640332e302e360dc1b81525081565b6102eb610503366004614633565b61163a565b6103446116df565b6103d06040518060400160405280601981526020017f42616c616e63657220426f6f737465642053747261746567790000000000000081525081565b606554610344906001600160a01b031681565b60016102c8565b6102a2610574366004614702565b61170f565b6102c8610587366004614449565b61184d565b603354610344906001600160a01b031681565b6105a7611872565b6040516102ac919061476b565b600454610344906001600160a01b031681565b6103d060405180604001604052806005815260200164189718971b60d91b81525081565b6102a260025481565b6102eb610602366004614466565b611a07565b6102c8610615366004614449565b611b01565b610344611b86565b600061062d60325490565b6000546040516370a0823160e01b8152620100009091046001600160a01b0316906370a0823190610662903090600401614435565b602060405180830381865afa15801561067f573d6000803e3d6000fd5b505050506040513d601f19601f820116820180604052508101906106a3919061477e565b6106ad91906147ad565b905090565b60006001600160e01b0319821663f73147b360e01b14806106d757506106d782611bb6565b92915050565b600054610100900460ff16158080156106fd5750600054600160ff909116105b806107175750303b158015610717575060005460ff166001145b61077f5760405162461bcd60e51b815260206004820152602e60248201527f496e697469616c697a61626c653a20636f6e747261637420697320616c72656160448201526d191e481a5b9a5d1a585b1a5e995960921b60648201526084015b60405180910390fd5b6000805460ff1916600117905580156107a2576000805461ff0019166101001790555b6107ab82611bdb565b6107b6858585611d10565b80156107fc576000805461ff0019169055604051600181527f7f26b83ff96e1f2b6a682f133852f6798a09c465da95921460cefb38474024989060200160405180910390a15b5050505050565b6001546000805460405163201de59f60e01b815291926001600160a01b039081169262010000909204169073__$ec217c54da363a68ad871e6868efec481c$__9063201de59f90610858908590600401614435565b60006040518083038186803b15801561087057600080fd5b505af4158015610884573d6000803e3d6000fd5b50506040516370a0823160e01b8152600092506001600160a01b03841691506370a08231906108b7903090600401614435565b602060405180830381865afa1580156108d4573d6000803e3d6000fd5b505050506040513d601f19601f820116820180604052508101906108f8919061477e565b90506000806000610907611db2565b92509250925073__$ec217c54da363a68ad871e6868efec481c$__631594b05b868686868b6040518663ffffffff1660e01b815260040161094c9594939291906147c0565b602060405180830381865af4158015610969573d6000803e3d6000fd5b505050506040513d601f19601f8201168201806040525081019061098d919061477e565b935083156109a9576109a96001600160a01b0386168786611dce565b6040518481527f97f6cbf669d73908a8de3b762891f88fcc476520fd70cb3d414dc9ac86e0a2e59060200160405180910390a19695505050505050565b73__$ec217c54da363a68ad871e6868efec481c$__63493f6edc610a08611b86565b6040518263ffffffff1660e01b8152600401610a249190614435565b60006040518083038186803b158015610a3c57600080fd5b505af4158015610a50573d6000803e3d6000fd5b5050506001600160a01b03831660009081526034602052604090819020839055517f297f3fbc14027d2b4a4f7dac3dff2ad6b386024299045b0e163f131bb24b611d9150610aa190849084906147f0565b60405180910390a15050565b73__$ec217c54da363a68ad871e6868efec481c$__634bead669610acf611b86565b6040518263ffffffff1660e01b8152600401610aeb9190614435565b60006040518083038186803b158015610b0357600080fd5b505af4158015610b17573d6000803e3d6000fd5b50505050620186a08211156040518060400160405280600c81526020016b0a6847440a8dede40d0d2ced60a31b81525090610b655760405162461bcd60e51b815260040161077691906144a3565b5060408051808201909152600f81526e53423a2057726f6e672076616c756560881b60208201526001600160a01b038216610bb35760405162461bcd60e51b815260040161077691906144a3565b50600591909155600480546001600160a01b0319166001600160a01b03909216919091179055565b60006106ad610c0b60017f6f55f470bdc9cb5f04223fd822021061668e4dccb43e8727b295106dc9769c8b614809565b5490565b600073__$ec217c54da363a68ad871e6868efec481c$__63493f6edc610c33611b86565b6040518263ffffffff1660e01b8152600401610c4f9190614435565b60006040518083038186803b158015610c6757600080fd5b505af4158015610c7b573d6000803e3d6000fd5b505050506106ad611e29565b60006106ad610c0b60017f812a673dfca07956350df10f8a654925f561d7a0da09bdbe79e653939a14d9f1614809565b73__$ec217c54da363a68ad871e6868efec481c$__63493f6edc610cd9611b86565b6040518263ffffffff1660e01b8152600401610cf59190614435565b60006040518083038186803b158015610d0d57600080fd5b505af4158015610d21573d6000803e3d6000fd5b50505050610d2d611ef6565b50507fed7f50f936a5ed7428d20f18e78d6dfe8bc37fd2f4e3cdb348327c769724492833604051610d5e9190614435565b60405180910390a1565b60015460408051808201909152600a81526914d08e8811195b9a595960b21b60208201526000918291906001600160a01b03163314610dba5760405162461bcd60e51b815260040161077691906144a3565b50610dc56001611fb2565b915091509091565b333014610e1c5760405162461bcd60e51b815260206004820152601b60248201527f496e637265617365207265766973696f6e20666f7262696464656e00000000006044820152606401610776565b6000610e4c610c0b60017f22573091f17911fb166032a3d9e0554aa73d31b7b7ddea4a4dd2995650af84bd614809565b610e579060016147ad565b9050610e8b81610e8860017f22573091f17911fb166032a3d9e0554aa73d31b7b7ddea4a4dd2995650af84bd614809565b55565b610eba82610e8860017fbfaaa2fb63266ff27c2da975f5894955056f50419af651a81f6c5060581857e4614809565b604080518281526001600160a01b03841660208201527ff27e2ef832a4eb8ed8ec553b875eecd44764cda95b1c24170e281539e0a869c89101610aa1565b6001546000805460405163201de59f60e01b815291926001600160a01b039081169262010000909204169073__$ec217c54da363a68ad871e6868efec481c$__9063201de59f90610f4d908590600401614435565b60006040518083038186803b158015610f6557600080fd5b505af4158015610f79573d6000803e3d6000fd5b50506040516370a0823160e01b8152600092506001600160a01b03841691506370a0823190610fac903090600401614435565b602060405180830381865afa158015610fc9573d6000803e3d6000fd5b505050506040513d601f19601f82011682018060405250810190610fed919061477e565b9050808511156110995760008061100c6110078489614809565b612087565b604051631594b05b60e01b8152909850919350915073__$ec217c54da363a68ad871e6868efec481c$__90631594b05b906110539087908790879087908c906004016147c0565b602060405180830381865af4158015611070573d6000803e3d6000fd5b505050506040513d601f19601f82011682018060405250810190611094919061477e565b925050505b60006110a586836120a2565b905080156110c1576110c16001600160a01b0384168583611dce565b60408051878152602081018390529081018390527f21b38dd19808c509ae6afc969adfaf7d35fe949c37abd493b963cf9b68cc1acb9060600160405180910390a150505050919050565b600680546111189061481c565b80601f01602080910402602001604051908101604052809291908181526020018280546111449061481c565b80156111915780601f1061116657610100808354040283529160200191611191565b820191906000526020600020905b81548152906001019060200180831161117457829003601f168201915b505050505081565b73__$ec217c54da363a68ad871e6868efec481c$__63493f6edc6111bb611b86565b6040518263ffffffff1660e01b81526004016111d79190614435565b60006040518083038186803b1580156111ef57600080fd5b505af4158015611203573d6000803e3d6000fd5b5050505061120f6120ba565b600080546040516370a0823160e01b8152620100009091046001600160a01b0316919082906370a0823190611248903090600401614435565b602060405180830381865afa158015611265573d6000803e3d6000fd5b505050506040513d601f19601f82011682018060405250810190611289919061477e565b6001549091506112a6906001600160a01b03848116911683611dce565b7ff779df072f94d207563b1ba8c286814086f1e6bb436a2652e307dccc56ed79e83382604051610aa19291906147f0565b73__$ec217c54da363a68ad871e6868efec481c$__63493f6edc6112f9611b86565b6040518263ffffffff1660e01b81526004016113159190614435565b60006040518083038186803b15801561132d57600080fd5b505af4158015611341573d6000803e3d6000fd5b505050508060069081611354919061489e565b507f13bdeb5b5bb760c04b92d93e56c576c6805359d41a13d3cca178aa7c8526b9848160405161138491906144a3565b60405180910390a150565b73__$ec217c54da363a68ad871e6868efec481c$__63493f6edc6113b1611b86565b6040518263ffffffff1660e01b81526004016113cd9190614435565b60006040518083038186803b1580156113e557600080fd5b505af41580156113f9573d6000803e3d6000fd5b50505050620186a08111156040518060400160405280600f81526020016e53423a2057726f6e672076616c756560881b8152509061144a5760405162461bcd60e51b815260040161077691906144a3565b5060358190556040518181527fe4166dfcf23bbd3e3f764a99dc8fa740554c03c82d6019b81cf265f396f6f2fe90602001611384565b60006106ad610c0b60017f22573091f17911fb166032a3d9e0554aa73d31b7b7ddea4a4dd2995650af84bd614809565b60335460408051808201909152600a81526914d08e8811195b9a595960b21b60208201526000916001600160a01b0316903382146115015760405162461bcd60e51b815260040161077691906144a3565b5060008061150e866121c1565b91509150600061151d8761222d565b90508581101561158357600061153161229d565b9050801561158157600061154482612347565b90507faebc771af58936b05e89b0be7d3f9761480181abcd4a649fbdd01753fda16970828260405161157792919061498d565b60405180910390a1505b505b73__$e930d50fb5f4f1298547dbcb2bb0591990$__6399c1fde4878486886115a9611b86565b60005460405160e088901b6001600160e01b03191681526115e49695949392916201000090046001600160a01b0316906034906004016149a6565b602060405180830381865af4158015611601573d6000803e3d6000fd5b505050506040513d601f19601f82011682018060405250810190611625919061477e565b945061162f612614565b505050505092915050565b60335460408051808201909152600a81526914d08e8811195b9a595960b21b6020820152906001600160a01b031633146116875760405162461bcd60e51b815260040161077691906144a3565b508151815160408051808201909152600d81526c54532d3139206c656e6774687360981b60208201529082146116d05760405162461bcd60e51b815260040161077691906144a3565b506116d9612614565b50505050565b60006106ad610c0b60017fbfaaa2fb63266ff27c2da975f5894955056f50419af651a81f6c5060581857e4614809565b60015460405163201de59f60e01b815260009173__$ec217c54da363a68ad871e6868efec481c$__9163201de59f91611756916001600160a01b0390911690600401614435565b60006040518083038186803b15801561176e57600080fd5b505af4158015611782573d6000803e3d6000fd5b5050600080546040516370a0823160e01b81529193506201000090046001600160a01b031691506370a08231906117bd903090600401614435565b602060405180830381865afa1580156117da573d6000803e3d6000fd5b505050506040513d601f19601f820116820180604052508101906117fe919061477e565b90508015611813576118108184612628565b91505b6040518181527f94bcfc9a8eba5229c2956ccb1858733fce588bc02145ac053c40b9827a33837f9060200160405180910390a15092915050565b6000611857611b86565b6001600160a01b0316826001600160a01b0316149050919050565b606060005b600881101561190c576065546040516354c49fe960e01b8152600481018390526000916001600160a01b0316906354c49fe990602401602060405180830381865afa1580156118ca573d6000803e3d6000fd5b505050506040513d601f19601f820116820180604052508101906118ee91906149f5565b6001600160a01b03161461190c5761190581614a12565b9050611877565b806001600160401b03811115611924576119246144d6565b60405190808252806020026020018201604052801561194d578160200160208202803683370190505b50915060005b81811015611a02576065546040516354c49fe960e01b8152600481018390526001600160a01b03909116906354c49fe990602401602060405180830381865afa1580156119a4573d6000803e3d6000fd5b505050506040513d601f19601f820116820180604052508101906119c891906149f5565b8382815181106119da576119da614a2b565b6001600160a01b03909216602092830291909101909101526119fb81614a12565b9050611953565b505090565b73__$ec217c54da363a68ad871e6868efec481c$__63ac1d8b35611a29611b86565b6040518263ffffffff1660e01b8152600401611a459190614435565b60006040518083038186803b158015611a5d57600080fd5b505af4158015611a71573d6000803e3d6000fd5b50505050620186a08111156040518060400160405280600c81526020016b0a6847440a8dede40d0d2ced60a31b81525090611abf5760405162461bcd60e51b815260040161077691906144a3565b5060025460408051918252602082018390527f89979f75740477f1609671a960c1f57e40a47e58bdf1623bc683d806fb6407e5910160405180910390a1600255565b6000816001600160a01b0316611b15611b86565b6001600160a01b0316635aa6e6756040518163ffffffff1660e01b8152600401602060405180830381865afa158015611b52573d6000803e3d6000fd5b505050506040513d601f19601f82011682018060405250810190611b7691906149f5565b6001600160a01b03161492915050565b60006106ad610c0b60017f5165972ef41194f06c5007493031d0b927c20741adcb74403b954009fd2c3618614809565b60006001600160e01b0319821663c19fa56160e01b14806106d757506106d782612775565b600054610100900460ff16611c025760405162461bcd60e51b815260040161077690614a41565b806001600160a01b03166338fff2d06040518163ffffffff1660e01b8152600401602060405180830381865afa158015611c40573d6000803e3d6000fd5b505050506040513d601f19601f82011682018060405250810190611c64919061477e565b60645560405163a8ea687560e01b8152733b8ca519122cdd8efb272b0d3085453404b25bd09063a8ea687590611c9e908490600401614435565b602060405180830381865afa158015611cbb573d6000803e3d6000fd5b505050506040513d601f19601f82011682018060405250810190611cdf91906149f5565b606580546001600160a01b0319166001600160a01b03928316908117909155611d0d918316906000196127aa565b50565b600054610100900460ff16611d375760405162461bcd60e51b815260040161077690614a41565b611d4183836128ae565b603380546001600160a01b0319166001600160a01b038316179055611d6a6064620186a0614a8c565b6035557fe4166dfcf23bbd3e3f764a99dc8fa740554c03c82d6019b81cf265f396f6f2fe611d9c6064620186a0614a8c565b60405190815260200160405180910390a1505050565b6000806000611dc2600019612a82565b91959094509092509050565b611e248363a9059cbb60e01b8484604051602401611ded9291906147f0565b60408051601f198184030181529190526020810180516001600160e01b03166001600160e01b031990931692909217909152612fb1565b505050565b6000806000611e4c600060029054906101000a90046001600160a01b03166121c1565b9150915073__$e930d50fb5f4f1298547dbcb2bb0591990$__63c9bce69083611e7b611e7661229d565b613083565b6033546040516001600160e01b031960e086901b168152611eae93929187916001600160a01b0390911690600401614aae565b602060405180830381865af4158015611ecb573d6000803e3d6000fd5b505050506040513d601f19601f82011682018060405250810190611eef919061477e565b9250505090565b6060806000806000611f066131a7565b603354929550909350915073__$8f1afe7577f9ab973017c74eca19b86f3c$__9063e99de4da906001600160a01b0316611f3e613254565b8686866040518663ffffffff1660e01b8152600401611f61959493929190614af5565b600060405180830381865af4158015611f7e573d6000803e3d6000fd5b505050506040513d6000823e601f3d908101601f19168201604052611fa69190810190614c12565b90969095509350505050565b603254600090819081611fc3612614565b9050611fd282826000806132eb565b90945092506000806000611fe4613333565b91945092509050611ff583886147ad565b965061200182876147ad565b955087801561202a5750620186a08460355461201d9190614c6b565b6120279190614a8c565b81115b1561207d5761203a816000612628565b5061207761204882866147ad565b600054612063906201000090046001600160a01b031661222d565b60325461207091906147ad565b89896132eb565b90975095505b5050505050915091565b600080600061209584612a82565b9196909550909350915050565b60008183106120b157816120b3565b825b9392505050565b60006120c46133a8565b90507f768a28cb3459382a3d2173feb2dad0235f8de680b109872da581a3aa269fe5f4816040516120f59190614c82565b60405180910390a160008054819061211b906201000090046001600160a01b03166121c1565b603354919350915073__$e930d50fb5f4f1298547dbcb2bb0591990$__906358b54f16906001600160a01b0316612158612153611b86565b6133ba565b846034600019886040518763ffffffff1660e01b815260040161218096959493929190614c95565b602060405180830381865af415801561219d573d6000803e3d6000fd5b505050506040513d601f19601f820116820180604052508101906116d0919061477e565b606060006121cd613254565b91506121d9828461341e565b90506000198114156040518060400160405280600f81526020016e53423a2057726f6e672076616c756560881b815250906122275760405162461bcd60e51b815260040161077691906144a3565b50915091565b6040516370a0823160e01b81526000906001600160a01b038316906370a082319061225c903090600401614435565b602060405180830381865afa158015612279573d6000803e3d6000fd5b505050506040513d601f19601f820116820180604052508101906106d7919061477e565b60006122ab60645460601c90565b6001600160a01b03166370a08231306040518263ffffffff1660e01b81526004016122d69190614435565b602060405180830381865afa1580156122f3573d6000803e3d6000fd5b505050506040513d601f19601f82011682018060405250810190612317919061477e565b6065546040516370a0823160e01b81526001600160a01b03909116906370a0823190610662903090600401614435565b6064546065546040516370a0823160e01b8152606092916001600160a01b03169082841c9060009082906370a0823190612385903090600401614435565b602060405180830381865afa1580156123a2573d6000803e3d6000fd5b505050506040513d601f19601f820116820180604052508101906123c6919061477e565b90506000836001600160a01b03166370a08231306040518263ffffffff1660e01b81526004016123f69190614435565b602060405180830381865afa158015612413573d6000803e3d6000fd5b505050506040513d601f19601f82011682018060405250810190612437919061477e565b90506000828811612449576000612453565b6124538389614809565b9050801561246657818111156124665750805b80156124c757604051632e1a7d4d60e01b8152600481018290526001600160a01b03861690632e1a7d4d90602401600060405180830381600087803b1580156124ae57600080fd5b505af11580156124c2573d6000803e3d6000fd5b505050505b6124d182846147ad565b8810156125765760405163209f6ae760e01b815273ba12222222228d8ba445958a75a0704d566bf2c86004820152602481018790526044810182905273__$e2d6e18942209f9a9d99e72afc74bc8af1$__9063209f6ae790606401600060405180830381865af4158015612549573d6000803e3d6000fd5b505050506040513d6000823e601f3d908101601f191682016040526125719190810190614cd2565b612608565b604051634b4c46fd60e01b815273__$e2d6e18942209f9a9d99e72afc74bc8af1$__90634b4c46fd906125c39073ba12222222228d8ba445958a75a0704d566bf2c8908a906004016147f0565b600060405180830381865af41580156125e0573d6000803e3d6000fd5b505050506040513d6000823e601f3d908101601f191682016040526126089190810190614cd2565b98975050505050505050565b600061261e611e29565b6032819055919050565b6000806126348361347c565b603554909350909150620186a09061264d908390614c6b565b6126579190614a8c565b84111561276e57600080546201000090046001600160a01b03169061267b8261222d565b905060008061269e600060029054906101000a90046001600160a01b03166121c1565b60335491935091506000906126be906001600160a01b03168a85856134c5565b905060006126cb826136ed565b5090507f59400c8c523464b521238ea8f50e923f2bc64663557e6afec92a97f7efe92d0582826040516126ff929190614d06565b60405180910390a16000612711612614565b9050600061271e8861222d565b905061272a878a6147ad565b61273482846147ad565b10156127655761274481836147ad565b61274e888b6147ad565b6127589190614809565b612762908b6147ad565b99505b50505050505050505b5092915050565b60006001600160e01b0319821663b7b79fa960e01b14806106d757506301ffc9a760e01b6001600160e01b03198316146106d7565b8015806128245750604051636eb1769f60e11b81523060048201526001600160a01b03838116602483015284169063dd62ed3e90604401602060405180830381865afa1580156127fe573d6000803e3d6000fd5b505050506040513d601f19601f82011682018060405250810190612822919061477e565b155b61288f5760405162461bcd60e51b815260206004820152603660248201527f5361666545524332303a20617070726f76652066726f6d206e6f6e2d7a65726f60448201527520746f206e6f6e2d7a65726f20616c6c6f77616e636560501b6064820152608401610776565b611e248363095ea7b360e01b8484604051602401611ded9291906147f0565b600054610100900460ff166128d55760405162461bcd60e51b815260040161077690614a41565b6128ff817fd2de0374d4479f33e63ae5ed6ca772a10463dd883a90c612050b51fab6196400613865565b612908826138bf565b60405163b429afeb60e01b81526001600160a01b0382169063b429afeb90612934908590600401614435565b602060405180830381865afa158015612951573d6000803e3d6000fd5b505050506040513d601f19601f820116820180604052508101906129759190614d34565b6040518060400160405280600f81526020016e53423a2057726f6e672076616c756560881b815250906129bb5760405162461bcd60e51b815260040161077691906144a3565b50806001600160a01b03166338d52e0f6040518163ffffffff1660e01b8152600401602060405180830381865afa1580156129fa573d6000803e3d6000fd5b505050506040513d601f19601f82011682018060405250810190612a1e91906149f5565b600080546001600160a01b03928316620100000262010000600160b01b031990911617905560018054929091166001600160a01b031992831617905560048054909116739cc199d4353b5fb3e6c8eebc99f5139e0d8ea06b17905550612710600555565b6000806000612b04604051806101c0016040528060001515815260200160008152602001606081526020016000815260200160008152602001600081526020016000815260200160608152602001600081526020016060815260200160008152602001600081526020016060815260200160006001600160a01b031681525090565b60001985148152612b15600161347c565b6020830191909152815190925080612b2c57508415155b8015612b3b5750602081015115155b15612f9d57612b48613254565b6101808201819052600080546001600160a01b036201000090910481166101a0850181905260335490911692612b7d9161341e565b90506000612b8f846101a0015161222d565b9050612b99613ae2565b6040850152612ba6613b79565b6060850152612bb361229d565b60808501526101a0840151604051637a55caf360e01b81526001600160a01b038086166004830152909116602482015273__$e930d50fb5f4f1298547dbcb2bb0591990$__90637a55caf390604401602060405180830381865af4158015612c1f573d6000803e3d6000fd5b505050506040513d601f19601f82011682018060405250810190612c43919061477e565b60c0850152835173__$8f1afe7577f9ab973017c74eca19b86f3c$__9063ec0cc4fd90612c705789612c73565b60005b3087610180015186888a602001518b608001516040518863ffffffff1660e01b8152600401612ca89796959493929190614d51565b600060405180830381865af4158015612cc5573d6000803e3d6000fd5b505050506040513d6000823e601f3d908101601f19168201604052612ced9190810190614da0565b60e086015260a0850181905215612e15576000612d0d8560a00151612347565b9050612d1761229d565b8560800151612d269190614809565b60a086018190526040517faebc771af58936b05e89b0be7d3f9761480181abcd4a649fbdd01753fda1697091612d5d91849061498d565b60405180910390a173__$e930d50fb5f4f1298547dbcb2bb0591990$__637a9a23e5858761018001518689604001518a60a001518b606001518c60e00151896040518963ffffffff1660e01b8152600401612dbf989796959493929190614ddc565b600060405180830381865af4158015612ddc573d6000803e3d6000fd5b505050506040513d6000823e601f3d908101601f19168201604052612e049190810190614e5e565b60e087015261012086015250612ea6565b61018084015160e0850151604051636138ea8560e01b815273__$e930d50fb5f4f1298547dbcb2bb0591990$__92636138ea8592612e5a928892918891600401614e94565b600060405180830381865af4158015612e77573d6000803e3d6000fd5b505050506040513d6000823e601f3d908101601f19168201604052612e9f9190810190614cd2565b6101208501525b612ec2846101800151838660e00151868c896101200151613be8565b8461010001818151612ed491906147ad565b905250612edf612614565b6101408501526101a0840151612ef49061222d565b6101608501526020840151612f0a9082906147ad565b846101600151856101400151612f2091906147ad565b1015612f6357836101600151846101400151612f3c91906147ad565b818560200151612f4c91906147ad565b612f569190614809565b612f6090866147ad565b94505b670de0b6b3a76400008460c00151856101000151612f819190614c6b565b612f8b9190614a8c565b8460c001519650965050505050612faa565b6000806000935093509350505b9193909250565b6000613006826040518060400160405280602081526020017f5361666545524332303a206c6f772d6c6576656c2063616c6c206661696c6564815250856001600160a01b0316613ded9092919063ffffffff16565b805190915015611e2457808060200190518101906130249190614d34565b611e245760405162461bcd60e51b815260206004820152602a60248201527f5361666545524332303a204552433230206f7065726174696f6e20646964206e6044820152691bdd081cdd58d8d9595960b21b6064820152608401610776565b6060600061308f61229d565b9050806000036130ea576130a1613254565b516001600160401b038111156130b9576130b96144d6565b6040519080825280602002602001820160405280156130e2578160200160208202803683370190505b509392505050565b6064805460405163f91294e960e01b815273ba12222222228d8ba445958a75a0704d566bf2c8600482015273239e55f427d44c3cc793f49bfb507ebe76638a2b6024820152604481019190915290810184905273__$e2d6e18942209f9a9d99e72afc74bc8af1$__9063f91294e990608401600060405180830381865af4158015613179573d6000803e3d6000fd5b505050506040513d6000823e601f3d908101601f191682016040526120b39190810190614cd2565b50919050565b6065546060908190819073__$e2d6e18942209f9a9d99e72afc74bc8af1$__90633a7e535c906001600160a01b03166131de613254565b6131e6611872565b6040518463ffffffff1660e01b815260040161320493929190614ed0565b600060405180830381865af4158015613221573d6000803e3d6000fd5b505050506040513d6000823e601f3d908101601f191682016040526132499190810190614f10565b925092509250909192565b606454604051633db1bdf160e11b815260609173__$e2d6e18942209f9a9d99e72afc74bc8af1$__91637b637be2916132a69173ba12222222228d8ba445958a75a0704d566bf2c891906004016147f0565b600060405180830381865af41580156132c3573d6000803e3d6000fd5b505050506040513d6000823e601f3d908101601f191682016040526106ad9190810190614f97565b60008085851115613311576133008686614809565b61330a90856147ad565b9350613328565b61331b8587614809565b61332590846147ad565b92505b509194909350915050565b600080600080613357600060029054906101000a90046001600160a01b031661222d565b9050600080613364611ef6565b915091506133728282613e04565b60005461338d906201000090046001600160a01b031661222d565b935061339b838588886132eb565b9097909650939450505050565b60606106ad6133b561229d565b612347565b6000816001600160a01b0316634046ebae6040518163ffffffff1660e01b8152600401602060405180830381865afa1580156133fa573d6000803e3d6000fd5b505050506040513d601f19601f820116820180604052508101906106d791906149f5565b8151600090815b8181101561347057836001600160a01b031685828151811061344957613449614a2b565b60200260200101516001600160a01b0316036134685791506106d79050565b600101613425565b50600019949350505050565b60325460009081908361348f5780613497565b613497612614565b9250836134a55760006134bd565b8083106134b35760006134bd565b6134bd8382614809565b915050915091565b60606000806134d2613ea4565b9150915073__$8f1afe7577f9ab973017c74eca19b86f3c$__6359d0ede687878585898d6001600160a01b031663f77c47916040518163ffffffff1660e01b8152600401602060405180830381865afa158015613533573d6000803e3d6000fd5b505050506040513d601f19601f8201168201806040525081019061355791906149f5565b6001600160a01b0316632630c12f6040518163ffffffff1660e01b8152600401602060405180830381865afa158015613594573d6000803e3d6000fd5b505050506040513d601f19601f820116820180604052508101906135b891906149f5565b6040518763ffffffff1660e01b81526004016135d996959493929190614fcb565b600060405180830381865af41580156135f6573d6000803e3d6000fd5b505050506040513d6000823e601f3d908101601f1916820160405261361e9190810190614cd2565b925073__$e930d50fb5f4f1298547dbcb2bb0591990$__631a2221c788878787603460008c8c8151811061365457613654614a2b565b60200260200101516001600160a01b03166001600160a01b03168152602001908152602001600020546040518663ffffffff1660e01b815260040161369d95949392919061501e565b600060405180830381865af41580156136ba573d6000803e3d6000fd5b505050506040513d6000823e601f3d908101601f191682016040526136e29190810190614cd2565b979650505050505050565b60645460405163423511a360e01b815260609160009181841c9073__$e2d6e18942209f9a9d99e72afc74bc8af1$__9063423511a3906137499073ba12222222228d8ba445958a75a0704d566bf2c89086908a9060040161506d565b600060405180830381865af4158015613766573d6000803e3d6000fd5b505050506040513d6000823e601f3d908101601f1916820160405261378e9190810190615094565b6065546040516370a0823160e01b81529296509094506001600160a01b039081169163b6b55f25918416906370a08231906137cd903090600401614435565b602060405180830381865afa1580156137ea573d6000803e3d6000fd5b505050506040513d601f19601f8201168201806040525081019061380e919061477e565b6040518263ffffffff1660e01b815260040161382c91815260200190565b600060405180830381600087803b15801561384657600080fd5b505af115801561385a573d6000803e3d6000fd5b505050505050915091565b61386f8282613f3d565b6138bb5760405162461bcd60e51b815260206004820152601a60248201527f496e74657266616365206973206e6f7420737570706f727465640000000000006044820152606401610776565b5050565b600054610100900460ff166138e65760405162461bcd60e51b815260040161077690614a41565b6001600160a01b03811661392e5760405162461bcd60e51b815260206004820152600f60248201526e2d32b9379031b7b73a3937b63632b960891b6044820152606401610776565b613958817f4c2403fdcb3cff9b705d96bf0705858e3390412670a62c8bcba611ca7e20ab86613865565b60006001600160a01b0316816001600160a01b0316635aa6e6756040518163ffffffff1660e01b8152600401602060405180830381865afa1580156139a1573d6000803e3d6000fd5b505050506040513d601f19601f820116820180604052508101906139c591906149f5565b6001600160a01b031603613a0d5760405162461bcd60e51b815260206004820152600f60248201526e5a65726f20676f7665726e616e636560881b6044820152606401610776565b613a3c81610e8860017f5165972ef41194f06c5007493031d0b927c20741adcb74403b954009fd2c3618614809565b613a6b42610e8860017f6f55f470bdc9cb5f04223fd822021061668e4dccb43e8727b295106dc9769c8b614809565b613a9a43610e8860017f812a673dfca07956350df10f8a654925f561d7a0da09bdbe79e653939a14d9f1614809565b604080516001600160a01b038316815242602082015243918101919091527f1a2dd071001ebf6e03174e3df5b305795a4ad5d41d8fdb9ba41dbbe23671342690606001611384565b60645460405163464a5ef760e01b815260609173__$e2d6e18942209f9a9d99e72afc74bc8af1$__9163464a5ef791613b349173ba12222222228d8ba445958a75a0704d566bf2c891906004016147f0565b600060405180830381865af4158015613b51573d6000803e3d6000fd5b505050506040513d6000823e601f3d908101601f191682016040526106ad9190810190614cd2565b6000613b8760645460601c90565b6001600160a01b031663876f303b6040518163ffffffff1660e01b8152600401602060405180830381865afa158015613bc4573d6000803e3d6000fd5b505050506040513d601f19601f820116820180604052508101906106ad919061477e565b6000805b8751811015613c2457828181518110613c0757613c07614a2b565b602002602001015182613c1a91906147ad565b9150600101613bec565b506000613c32612153611b86565b90506000198414158015613c685750620186a0613c51816103e86147ad565b613c5b9086614c6b565b613c659190614a8c565b82115b15613d385773__$e930d50fb5f4f1298547dbcb2bb0591990$__632c4cf7a386838a603460008e8e81518110613ca057613ca0614a2b565b60200260200101516001600160a01b03166001600160a01b03168152602001908152602001600020548d8c6040518763ffffffff1660e01b8152600401613cec969594939291906150da565b600060405180830381865af4158015613d09573d6000803e3d6000fd5b505050506040513d6000823e601f3d908101601f19168201604052613d319190810190614da0565b5050613de2565b828781518110613d4a57613d4a614a2b565b602002602001015173__$e930d50fb5f4f1298547dbcb2bb0591990$__6358b54f1687848b60348a8f6040518763ffffffff1660e01b8152600401613d9496959493929190614c95565b602060405180830381865af4158015613db1573d6000803e3d6000fd5b505050506040513d601f19601f82011682018060405250810190613dd5919061477e565b613ddf91906147ad565b91505b509695505050505050565b6060613dfc848460008561401b565b949350505050565b81518015611e24576000613e1884846140eb565b905073__$8f1afe7577f9ab973017c74eca19b86f3c$__63acf741a3613e3c611b86565b6001546040516001600160e01b031960e085901b168152613e6e92916001600160a01b03169089908790600401615133565b60006040518083038186803b158015613e8657600080fd5b505af4158015613e9a573d6000803e3d6000fd5b5050505050505050565b60645460405163552ad6a160e11b815260609160009173__$e2d6e18942209f9a9d99e72afc74bc8af1$__9163aa55ad4291613ef89173ba12222222228d8ba445958a75a0704d566bf2c8916004016147f0565b600060405180830381865af4158015613f15573d6000803e3d6000fd5b505050506040513d6000823e601f3d908101601f19168201604052610dc59190810190615094565b60006001600160a01b038316613f845760405162461bcd60e51b815260206004820152600c60248201526b5a65726f206164647265737360a01b6044820152606401610776565b823b6000819003613f995760009150506106d7565b6040516301ffc9a760e01b81526001600160e01b0319841660048201526001600160a01b038516906301ffc9a790602401602060405180830381865afa925050508015614003575060408051601f3d908101601f1916820190925261400091810190614d34565b60015b156140115791506106d79050565b5060009392505050565b60608247101561407c5760405162461bcd60e51b815260206004820152602660248201527f416464726573733a20696e73756666696369656e742062616c616e636520666f6044820152651c8818d85b1b60d21b6064820152608401610776565b600080866001600160a01b031685876040516140989190615171565b60006040518083038185875af1925050503d80600081146140d5576040519150601f19603f3d011682016040523d82523d6000602084013e6140da565b606091505b50915091506136e2878383876142a0565b60008054603354600254606093620100009093046001600160a01b03908116939273__$e930d50fb5f4f1298547dbcb2bb0591990$__9263ef50284f92909116908590614136613254565b614141612153611b86565b60348c8c6005546040518a63ffffffff1660e01b815260040161416c9998979695949392919061518d565b600060405180830381865af4158015614189573d6000803e3d6000fd5b505050506040513d6000823e601f3d908101601f191682016040526141b19190810190615094565b600154600480546040516323f5a0c560e21b81526001600160a01b03808916938201939093526024810185905292821660448401521660648201529194509150600090819073__$8f1afe7577f9ab973017c74eca19b86f3c$__90638fd68314906084016040805180830381865af4158015614231573d6000803e3d6000fd5b505050506040513d601f19601f820116820180604052508101906142559190615211565b915091507f4c300a656bfa0935e36cd55e92634bc20b2b7e0a0ebf424a2a25bfaac3a01e768786848460405161428e9493929190615235565b60405180910390a15050505092915050565b6060831561430f578251600003614308576001600160a01b0385163b6143085760405162461bcd60e51b815260206004820152601d60248201527f416464726573733a2063616c6c20746f206e6f6e2d636f6e74726163740000006044820152606401610776565b5081613dfc565b613dfc83838151156143245781518083602001fd5b8060405162461bcd60e51b815260040161077691906144a3565b60006020828403121561435057600080fd5b81356001600160e01b0319811681146120b357600080fd5b6001600160a01b0381168114611d0d57600080fd5b6000806000806080858703121561439357600080fd5b843561439e81614368565b935060208501356143ae81614368565b925060408501356143be81614368565b915060608501356143ce81614368565b939692955090935050565b600080604083850312156143ec57600080fd5b82356143f781614368565b946020939093013593505050565b6000806040838503121561441857600080fd5b82359150602083013561442a81614368565b809150509250929050565b6001600160a01b0391909116815260200190565b60006020828403121561445b57600080fd5b81356120b381614368565b60006020828403121561447857600080fd5b5035919050565b60005b8381101561449a578181015183820152602001614482565b50506000910152565b60208152600082518060208401526144c281604085016020870161447f565b601f01601f19169190910160400192915050565b634e487b7160e01b600052604160045260246000fd5b604051601f8201601f191681016001600160401b0381118282101715614514576145146144d6565b604052919050565b6000602080838503121561452f57600080fd5b82356001600160401b038082111561454657600080fd5b818501915085601f83011261455a57600080fd5b81358181111561456c5761456c6144d6565b61457e601f8201601f191685016144ec565b9150808252868482850101111561459457600080fd5b8084840185840137600090820190930192909252509392505050565b60006001600160401b038211156145c9576145c96144d6565b5060051b60200190565b600082601f8301126145e457600080fd5b813560206145f96145f4836145b0565b6144ec565b82815260059290921b8401810191818101908684111561461857600080fd5b8286015b84811015613de2578035835291830191830161461c565b6000806040838503121561464657600080fd5b82356001600160401b038082111561465d57600080fd5b818501915085601f83011261467157600080fd5b813560206146816145f4836145b0565b82815260059290921b840181019181810190898411156146a057600080fd5b948201945b838610156146c75785356146b881614368565b825294820194908201906146a5565b965050860135925050808211156146dd57600080fd5b506146ea858286016145d3565b9150509250929050565b8015158114611d0d57600080fd5b6000806040838503121561471557600080fd5b82359150602083013561442a816146f4565b600081518084526020808501945080840160005b838110156147605781516001600160a01b03168752958201959082019060010161473b565b509495945050505050565b6020815260006120b36020830184614727565b60006020828403121561479057600080fd5b5051919050565b634e487b7160e01b600052601160045260246000fd5b808201808211156106d7576106d7614797565b6001600160a01b039586168152602081019490945260408401929092526060830152909116608082015260a00190565b6001600160a01b03929092168252602082015260400190565b818103818111156106d7576106d7614797565b600181811c9082168061483057607f821691505b6020821081036131a157634e487b7160e01b600052602260045260246000fd5b601f821115611e2457600081815260208120601f850160051c810160208610156148775750805b601f850160051c820191505b8181101561489657828155600101614883565b505050505050565b81516001600160401b038111156148b7576148b76144d6565b6148cb816148c5845461481c565b84614850565b602080601f83116001811461490057600084156148e85750858301515b600019600386901b1c1916600185901b178555614896565b600085815260208120601f198616915b8281101561492f57888601518255948401946001909101908401614910565b508582101561494d5787850151600019600388901b60f8161c191681555b5050505050600190811b01905550565b600081518084526020808501945080840160005b8381101561476057815187529582019590820190600101614971565b828152604060208201526000613dfc604083018461495d565b87815286602082015260e0604082015260006149c560e0830188614727565b6001600160a01b0396871660608401529486166080830152509190931660a082015260c001919091529392505050565b600060208284031215614a0757600080fd5b81516120b381614368565b600060018201614a2457614a24614797565b5060010190565b634e487b7160e01b600052603260045260246000fd5b6020808252602b908201527f496e697469616c697a61626c653a20636f6e7472616374206973206e6f74206960408201526a6e697469616c697a696e6760a81b606082015260800190565b600082614aa957634e487b7160e01b600052601260045260246000fd5b500490565b608081526000614ac16080830187614727565b8281036020840152614ad3818761495d565b604084019590955250506001600160a01b039190911660609091015292915050565b6001600160a01b038616815260a060208201819052600090614b1990830187614727565b8281036040840152614b2b8187614727565b90508281036060840152614b3f818661495d565b90508281036080840152613ddf818561495d565b600082601f830112614b6457600080fd5b81516020614b746145f4836145b0565b82815260059290921b84018101918181019086841115614b9357600080fd5b8286015b84811015613de2578051614baa81614368565b8352918301918301614b97565b600082601f830112614bc857600080fd5b81516020614bd86145f4836145b0565b82815260059290921b84018101918181019086841115614bf757600080fd5b8286015b84811015613de25780518352918301918301614bfb565b60008060408385031215614c2557600080fd5b82516001600160401b0380821115614c3c57600080fd5b614c4886838701614b53565b93506020850151915080821115614c5e57600080fd5b506146ea85828601614bb7565b80820281158282048414176106d7576106d7614797565b6020815260006120b3602083018461495d565b600060018060a01b03808916835280881660208401525085604083015284606083015283608083015260c060a083015261260860c0830184614727565b600060208284031215614ce457600080fd5b81516001600160401b03811115614cfa57600080fd5b613dfc84828501614bb7565b604081526000614d19604083018561495d565b8281036020840152614d2b818561495d565b95945050505050565b600060208284031215614d4657600080fd5b81516120b3816146f4565b878152600060018060a01b03808916602084015260e06040840152614d7960e0840189614727565b606084019790975294909416608082015260a081019290925260c090910152509392505050565b60008060408385031215614db357600080fd5b8251915060208301516001600160401b03811115614dd057600080fd5b6146ea85828601614bb7565b6001600160a01b038916815261010060208201819052600090614e018382018b614727565b90508860408401528281036060840152614e1b818961495d565b90508660808401528560a084015282810360c0840152614e3b818661495d565b905082810360e0840152614e4f818561495d565b9b9a5050505050505050505050565b60008060408385031215614e7157600080fd5b82516001600160401b0380821115614e8857600080fd5b614c4886838701614bb7565b6001600160a01b0385168152608060208201819052600090614eb890830186614727565b84604084015282810360608401526136e2818561495d565b6001600160a01b0384168152606060208201819052600090614ef490830185614727565b8281036040840152614f068185614727565b9695505050505050565b600080600060608486031215614f2557600080fd5b83516001600160401b0380821115614f3c57600080fd5b614f4887838801614b53565b94506020860151915080821115614f5e57600080fd5b614f6a87838801614bb7565b93506040860151915080821115614f8057600080fd5b50614f8d86828701614bb7565b9150509250925092565b600060208284031215614fa957600080fd5b81516001600160401b03811115614fbf57600080fd5b613dfc84828501614b53565b86815260c060208201526000614fe460c0830188614727565b8281036040840152614ff6818861495d565b6060840196909652505060808101929092526001600160a01b031660a0909101529392505050565b6001600160a01b038616815260a06020820181905260009061504290830187614727565b856040840152828103606084015261505a818661495d565b9150508260808301529695505050505050565b60018060a01b0384168152826020820152606060408201526000614d2b606083018461495d565b600080604083850312156150a757600080fd5b82516001600160401b038111156150bd57600080fd5b6150c985828601614bb7565b925050602083015190509250929050565b6001600160a01b03878116825286166020820152604081018590526060810184905260c06080820181905260009061511490830185614727565b82810360a0840152615126818561495d565b9998505050505050505050565b6001600160a01b0385811682528416602082015260806040820181905260009061515f90830185614727565b82810360608401526136e2818561495d565b6000825161518381846020870161447f565b9190910192915050565b6001600160a01b038a81168252898116602083015260408201899052610120606083018190526000916151c28483018b614727565b91508089166080850152508660a084015282810360c08401526151e58187614727565b905082810360e08401526151f9818661495d565b915050826101008301529a9950505050505050505050565b6000806040838503121561522457600080fd5b505080516020909101519092909150565b6080815260006152486080830187614727565b828103602084015261525a818761495d565b60408401959095525050606001529291505056fea2646970667358221220256476b335f55d8ccea714000e37545ceb65f39b11bfa3e0d39db4045eecdd0e64736f6c63430008110033",
  "libraries": {
    "StrategyLib": "0x56DCD1d1B26Ae44E6001d73705F99905Eb9850Bc",
    "ConverterStrategyBaseLib": "0x4CAE21Efa11950616A4Ba7A7D7722aCDF6E477ce",
    "ConverterStrategyBaseLib2": "0x58065724B3C55ee64D1AE73B3830aCae6Aa8911F",
    "BalancerLogicLib": "0x79d12eA649352f14aFA67EaeD60b7028EcA07320"
  },
  "devdoc": {
    "author": "a17, dvpublic",
    "kind": "dev",
    "methods": {
      "claim()": {
        "details": "Manual claim rewards."
      },
      "created()": {
        "returns": {
          "_0": "Creation timestamp"
        }
      },
      "createdBlock()": {
        "returns": {
          "_0": "Creation block number"
        }
      },
      "doHardWork()": {
        "returns": {
          "earned": "Earned amount in terms of {asset}",
          "lost": "Lost amount in terms of {asset}"
        }
      },
      "emergencyExit()": {
        "details": "In case of any issue operator can withdraw all from pool."
      },
      "increaseRevision(address)": {
        "details": "Revision should be increased on each contract upgrade"
      },
      "investAll(uint256,bool)": {
        "params": {
          "updateTotalAssetsBeforeInvest_": "Recalculate total assets amount before depositing.                                       It can be false if we know exactly, that the amount is already actual."
        },
        "returns": {
          "strategyLoss": "Loss should be covered from Insurance"
        }
      },
      "isController(address)": {
        "details": "Return true if given address is controller"
      },
      "onTransferAmounts(address[],uint256[])": {
        "params": {
          "amounts_": "Amount of {asset_} that has been sent to the user's balance",
          "assets_": "Any asset sent to the balance, i.e. inside repayTheBorrow"
        }
      },
      "previousImplementation()": {
        "details": "Previous logic implementation"
      },
      "requirePayAmountBack(address,uint256)": {
        "params": {
          "amount_": "Required amount of the {theAsset_}",
          "theAsset_": "Required asset (either collateral or borrow)"
        },
        "returns": {
          "amountOut": "Amount sent to balance of TetuConverter, amountOut <= amount_"
        }
      },
      "revision()": {
        "details": "Contract upgrade counter"
      },
      "rewardTokens()": {
        "details": "Returns reward token addresses array."
      },
      "setCompoundRatio(uint256)": {
        "details": "PlatformVoter can change compound ratio for some strategies.      A strategy can implement another logic for some uniq cases."
      },
      "setReinvestThresholdPercent(uint256)": {
        "params": {
          "percent_": "New value of the percent, decimals = {REINVEST_THRESHOLD_PERCENT_DENOMINATOR}"
        }
      },
      "setStrategySpecificName(string)": {
        "details": "The name will be used for UI."
      },
      "supportsInterface(bytes4)": {
        "details": "See {IERC165-supportsInterface}."
      },
      "totalAssets()": {
        "details": "Total amount of underlying assets under control of this strategy."
      },
      "withdrawAllToSplitter()": {
        "details": "Withdraws all underlying assets to the vault",
        "returns": {
          "strategyLoss": "Loss should be covered from Insurance"
        }
      },
      "withdrawToSplitter(uint256)": {
        "details": "Withdraws some assets to the splitter",
        "returns": {
          "strategyLoss": "Loss should be covered from Insurance"
        }
      }
    },
    "title": "Delta-neutral converter strategy for Balancer boosted pools",
    "version": 1
  },
  "userdoc": {
    "events": {
      "Recycle(address[],uint256[],uint256,uint256)": {
        "notice": "Recycle was made"
      }
    },
    "kind": "user",
    "methods": {
      "CONTROLLABLE_VERSION()": {
        "notice": "Version of the contract"
      },
      "capacity()": {
        "notice": "Unlimited capacity by default"
      },
      "controller()": {
        "notice": "Return controller address saved in the contract slot"
      },
      "created()": {
        "notice": "Return creation timestamp"
      },
      "createdBlock()": {
        "notice": "Return creation block number"
      },
      "doHardWork()": {
        "notice": "Do hard work with reinvesting"
      },
      "investAll(uint256,bool)": {
        "notice": "Stakes everything the strategy holds into the reward pool. amount_ Amount transferred to the strategy balance just before calling this function"
      },
      "investedAssets()": {
        "notice": "Amount of underlying assets converted to pool assets and invested to the pool."
      },
      "isGovernance(address)": {
        "notice": "Return true if given address is setup as governance in Controller"
      },
      "isReadyToHardWork()": {
        "notice": "Is strategy ready to hard work"
      },
      "liquidationThresholds(address)": {
        "notice": "Minimum token amounts that can be liquidated"
      },
      "onTransferAmounts(address[],uint256[])": {
        "notice": "TetuConverter calls this function when it sends any amount to user's balance"
      },
      "performanceFee()": {
        "notice": "A percent of total profit that is sent to the {performanceReceiver} before compounding"
      },
      "performanceReceiver()": {
        "notice": "{performanceFee}% of total profit is sent to {performanceReceiver} before compounding"
      },
      "poolId()": {
        "notice": "i.e. for \"Balancer Boosted Aave USD\": 0x48e6b98ef6329f8f0a30ebb8c7c960330d64808500000000000000000000075bi.e. for \"Balancer Boosted Tetu USD\": 0xb3d658d5b95bf04e2932370dd1ff976fe18dd66a000000000000000000000ace"
      },
      "reinvestThresholdPercent()": {
        "notice": "Percent of asset amount that can be not invested, it's allowed to just keep it on balance         decimals = {DENOMINATOR}"
      },
      "requirePayAmountBack(address,uint256)": {
        "notice": "Converters asks to send some amount back."
      },
      "setupPerformanceFee(uint256,address)": {
        "notice": "Set performance fee and receiver"
      }
    },
    "version": 1
  },
  "storageLayout": {
    "storage": [
      {
        "astId": 11689,
        "contract": "contracts/strategies/balancer/BalancerBoostedStrategy.sol:BalancerBoostedStrategy",
        "label": "_initialized",
        "offset": 0,
        "slot": "0",
        "type": "t_uint8"
      },
      {
        "astId": 11692,
        "contract": "contracts/strategies/balancer/BalancerBoostedStrategy.sol:BalancerBoostedStrategy",
        "label": "_initializing",
        "offset": 1,
        "slot": "0",
        "type": "t_bool"
      },
      {
        "astId": 16584,
        "contract": "contracts/strategies/balancer/BalancerBoostedStrategy.sol:BalancerBoostedStrategy",
        "label": "asset",
        "offset": 2,
        "slot": "0",
        "type": "t_address"
      },
      {
        "astId": 16588,
        "contract": "contracts/strategies/balancer/BalancerBoostedStrategy.sol:BalancerBoostedStrategy",
        "label": "splitter",
        "offset": 0,
        "slot": "1",
        "type": "t_address"
      },
      {
        "astId": 16592,
        "contract": "contracts/strategies/balancer/BalancerBoostedStrategy.sol:BalancerBoostedStrategy",
        "label": "compoundRatio",
        "offset": 0,
        "slot": "2",
        "type": "t_uint256"
      },
      {
        "astId": 16594,
        "contract": "contracts/strategies/balancer/BalancerBoostedStrategy.sol:BalancerBoostedStrategy",
        "label": "__deprecatedSlot1",
        "offset": 0,
        "slot": "3",
        "type": "t_uint256"
      },
      {
        "astId": 16598,
        "contract": "contracts/strategies/balancer/BalancerBoostedStrategy.sol:BalancerBoostedStrategy",
        "label": "performanceReceiver",
        "offset": 0,
        "slot": "4",
        "type": "t_address"
      },
      {
        "astId": 16602,
        "contract": "contracts/strategies/balancer/BalancerBoostedStrategy.sol:BalancerBoostedStrategy",
        "label": "performanceFee",
        "offset": 0,
        "slot": "5",
        "type": "t_uint256"
      },
      {
        "astId": 16606,
        "contract": "contracts/strategies/balancer/BalancerBoostedStrategy.sol:BalancerBoostedStrategy",
        "label": "strategySpecificName",
        "offset": 0,
        "slot": "6",
        "type": "t_string_storage"
      },
      {
        "astId": 17191,
        "contract": "contracts/strategies/balancer/BalancerBoostedStrategy.sol:BalancerBoostedStrategy",
        "label": "__gap",
        "offset": 0,
        "slot": "7",
        "type": "t_array(t_uint256)43_storage"
      },
      {
        "astId": 61807,
        "contract": "contracts/strategies/balancer/BalancerBoostedStrategy.sol:BalancerBoostedStrategy",
        "label": "_investedAssets",
        "offset": 0,
        "slot": "50",
        "type": "t_uint256"
      },
      {
        "astId": 61811,
        "contract": "contracts/strategies/balancer/BalancerBoostedStrategy.sol:BalancerBoostedStrategy",
        "label": "converter",
        "offset": 0,
        "slot": "51",
        "type": "t_contract(ITetuConverter)42230"
      },
      {
        "astId": 61816,
        "contract": "contracts/strategies/balancer/BalancerBoostedStrategy.sol:BalancerBoostedStrategy",
        "label": "liquidationThresholds",
        "offset": 0,
        "slot": "52",
        "type": "t_mapping(t_address,t_uint256)"
      },
      {
        "astId": 61819,
        "contract": "contracts/strategies/balancer/BalancerBoostedStrategy.sol:BalancerBoostedStrategy",
        "label": "reinvestThresholdPercent",
        "offset": 0,
        "slot": "53",
        "type": "t_uint256"
      },
      {
        "astId": 63249,
        "contract": "contracts/strategies/balancer/BalancerBoostedStrategy.sol:BalancerBoostedStrategy",
        "label": "__gap",
        "offset": 0,
        "slot": "54",
        "type": "t_array(t_uint256)46_storage"
      },
      {
        "astId": 67944,
        "contract": "contracts/strategies/balancer/BalancerBoostedStrategy.sol:BalancerBoostedStrategy",
        "label": "poolId",
        "offset": 0,
        "slot": "100",
        "type": "t_bytes32"
      },
      {
        "astId": 67947,
        "contract": "contracts/strategies/balancer/BalancerBoostedStrategy.sol:BalancerBoostedStrategy",
        "label": "gauge",
        "offset": 0,
        "slot": "101",
        "type": "t_contract(IBalancerGauge)57687"
      },
      {
        "astId": 68376,
        "contract": "contracts/strategies/balancer/BalancerBoostedStrategy.sol:BalancerBoostedStrategy",
        "label": "__gap",
        "offset": 0,
        "slot": "102",
        "type": "t_array(t_uint256)48_storage"
      }
    ],
    "types": {
      "t_address": {
        "encoding": "inplace",
        "label": "address",
        "numberOfBytes": "20"
      },
      "t_array(t_uint256)43_storage": {
        "base": "t_uint256",
        "encoding": "inplace",
        "label": "uint256[43]",
        "numberOfBytes": "1376"
      },
      "t_array(t_uint256)46_storage": {
        "base": "t_uint256",
        "encoding": "inplace",
        "label": "uint256[46]",
        "numberOfBytes": "1472"
      },
      "t_array(t_uint256)48_storage": {
        "base": "t_uint256",
        "encoding": "inplace",
        "label": "uint256[48]",
        "numberOfBytes": "1536"
      },
      "t_bool": {
        "encoding": "inplace",
        "label": "bool",
        "numberOfBytes": "1"
      },
      "t_bytes32": {
        "encoding": "inplace",
        "label": "bytes32",
        "numberOfBytes": "32"
      },
      "t_contract(IBalancerGauge)57687": {
        "encoding": "inplace",
        "label": "contract IBalancerGauge",
        "numberOfBytes": "20"
      },
      "t_contract(ITetuConverter)42230": {
        "encoding": "inplace",
        "label": "contract ITetuConverter",
        "numberOfBytes": "20"
      },
      "t_mapping(t_address,t_uint256)": {
        "encoding": "mapping",
        "key": "t_address",
        "label": "mapping(address => uint256)",
        "numberOfBytes": "32",
        "value": "t_uint256"
      },
      "t_string_storage": {
        "encoding": "bytes",
        "label": "string",
        "numberOfBytes": "32"
      },
      "t_uint256": {
        "encoding": "inplace",
        "label": "uint256",
        "numberOfBytes": "32"
      },
      "t_uint8": {
        "encoding": "inplace",
        "label": "uint8",
        "numberOfBytes": "1"
      }
    }
  }
}