{
  "address": "0x69A8bE095999e8AaD3dc6E35b52ddDc12EF34375",
  "abi": [
    {
      "anonymous": false,
      "inputs": [
        {
          "indexed": false,
          "internalType": "uint8",
          "name": "version",
          "type": "uint8"
        }
      ],
      "name": "Initialized",
      "type": "event"
    },
    {
      "anonymous": false,
      "inputs": [
        {
          "indexed": true,
          "internalType": "address",
          "name": "previousOwner",
          "type": "address"
        },
        {
          "indexed": true,
          "internalType": "address",
          "name": "newOwner",
          "type": "address"
        }
      ],
      "name": "OwnershipTransferred",
      "type": "event"
    },
    {
      "inputs": [],
      "name": "DEFAULT_EXTRA_MAIN",
      "outputs": [
        {
          "internalType": "uint256",
          "name": "",
          "type": "uint256"
        }
      ],
      "stateMutability": "view",
      "type": "function"
    },
    {
      "inputs": [],
      "name": "TETU_DENOMINATOR",
      "outputs": [
        {
          "internalType": "uint256",
          "name": "",
          "type": "uint256"
        }
      ],
      "stateMutability": "view",
      "type": "function"
    },
    {
      "inputs": [
        {
          "internalType": "uint256",
          "name": "",
          "type": "uint256"
        }
      ],
      "name": "activeRebalancers",
      "outputs": [
        {
          "internalType": "address",
          "name": "",
          "type": "address"
        }
      ],
      "stateMutability": "view",
      "type": "function"
    },
    {
      "inputs": [],
      "name": "checker",
      "outputs": [
        {
          "internalType": "bool",
          "name": "canExec",
          "type": "bool"
        },
        {
          "internalType": "bytes",
          "name": "execPayload",
          "type": "bytes"
        }
      ],
      "stateMutability": "view",
      "type": "function"
    },
    {
      "inputs": [
        {
          "internalType": "address",
          "name": "_rebalancerWithExtraMain",
          "type": "address"
        },
        {
          "internalType": "uint256",
          "name": "_tetuNominator",
          "type": "uint256"
        }
      ],
      "name": "initialize",
      "outputs": [],
      "stateMutability": "nonpayable",
      "type": "function"
    },
    {
      "inputs": [],
      "name": "owner",
      "outputs": [
        {
          "internalType": "address",
          "name": "",
          "type": "address"
        }
      ],
      "stateMutability": "view",
      "type": "function"
    },
    {
      "inputs": [],
      "name": "rebalancerWithExtraMain",
      "outputs": [
        {
          "internalType": "address",
          "name": "",
          "type": "address"
        }
      ],
      "stateMutability": "view",
      "type": "function"
    },
    {
      "inputs": [],
      "name": "renounceOwnership",
      "outputs": [],
      "stateMutability": "nonpayable",
      "type": "function"
    },
    {
      "inputs": [
        {
          "internalType": "uint256",
          "name": "_tetuNominator",
          "type": "uint256"
        }
      ],
      "name": "setNominator",
      "outputs": [],
      "stateMutability": "nonpayable",
      "type": "function"
    },
    {
      "inputs": [],
      "name": "tetuNominator",
      "outputs": [
        {
          "internalType": "uint256",
          "name": "",
          "type": "uint256"
        }
      ],
      "stateMutability": "view",
      "type": "function"
    },
    {
      "inputs": [
        {
          "internalType": "address",
          "name": "newOwner",
          "type": "address"
        }
      ],
      "name": "transferOwnership",
      "outputs": [],
      "stateMutability": "nonpayable",
      "type": "function"
    },
    {
      "inputs": [
        {
          "internalType": "address[]",
          "name": "_rebalancers",
          "type": "address[]"
        }
      ],
      "name": "updateRebalancers",
      "outputs": [],
      "stateMutability": "nonpayable",
      "type": "function"
    }
  ],
  "transactionHash": "0x2fc9df02952e78749bc50b973dbb6be028cf101ed77f9951b45148c26734f6f2",
  "args": [],
  "numDeployments": 1,
  "solcInputHash": "bbdd8ef8590e2d529a8f5ec117d2076c",
  "bytecode": "0x608060405234801561001057600080fd5b506111a8806100206000396000f3fe608060405234801561001057600080fd5b50600436106100b45760003560e01c8063c0f981e711610071578063c0f981e71461013e578063cd6dc68714610147578063cf5303cf1461015a578063e731e0da14610170578063f125ab6614610183578063f2fde38b1461018c57600080fd5b8063715018a6146100b95780638da5cb5b146100c35780638fbdcb2b146100ed57806390e65ba1146101005780639d2bbc5114610118578063b77f65b71461012b575b600080fd5b6100c161019f565b005b6033546001600160a01b03165b6040516001600160a01b0390911681526020015b60405180910390f35b6100c16100fb366004610c21565b6101b3565b61010a620f424081565b6040519081526020016100e4565b6100c1610126366004610c3a565b6101c0565b6065546100d0906001600160a01b031681565b61010a60665481565b6100c1610155366004610cc4565b6101d9565b610162610310565b6040516100e4929190610cf0565b6100d061017e366004610c21565b610a00565b61010a6103e881565b6100c161019a366004610d48565b610a2a565b6101a7610aa3565b6101b16000610afd565b565b6101bb610aa3565b606655565b6101c8610aa3565b6101d460678383610ba9565b505050565b600054610100900460ff16158080156101f95750600054600160ff909116105b806102135750303b158015610213575060005460ff166001145b61027b5760405162461bcd60e51b815260206004820152602e60248201527f496e697469616c697a61626c653a20636f6e747261637420697320616c72656160448201526d191e481a5b9a5d1a585b1a5e995960921b60648201526084015b60405180910390fd5b6000805460ff19166001179055801561029e576000805461ff0019166101001790555b6102a6610b4f565b606580546001600160a01b0319166001600160a01b038516179055606682905580156101d4576000805461ff0019169055604051600181527f7f26b83ff96e1f2b6a682f133852f6798a09c465da95921460cefb38474024989060200160405180910390a1505050565b6000606060005b6067548110156109cd5760006067828154811061033657610336610d6c565b60009182526020808320909101546040805163026b1d5f60e01b815290516001600160a01b039092169450849263026b1d5f926004808401938290030181865afa158015610388573d6000803e3d6000fd5b505050506040513d601f19601f820116820180604052508101906103ac9190610d82565b90506000816001600160a01b0316634de046d56040518163ffffffff1660e01b8152600401602060405180830381865afa1580156103ee573d6000803e3d6000fd5b505050506040513d601f19601f820116820180604052508101906104129190610d82565b6001600160a01b031663313ce5676040518163ffffffff1660e01b8152600401602060405180830381865afa15801561044f573d6000803e3d6000fd5b505050506040513d601f19601f820116820180604052508101906104739190610d9f565b60ff1690506000826001600160a01b031663f174e2416040518163ffffffff1660e01b8152600401602060405180830381865afa1580156104b8573d6000803e3d6000fd5b505050506040513d601f19601f820116820180604052508101906104dc9190610d82565b6001600160a01b031663313ce5676040518163ffffffff1660e01b8152600401602060405180830381865afa158015610519573d6000803e3d6000fd5b505050506040513d601f19601f8201168201806040525081019061053d9190610d9f565b60ff1690506000836001600160a01b0316638d928af86040518163ffffffff1660e01b8152600401602060405180830381865afa158015610582573d6000803e3d6000fd5b505050506040513d601f19601f820116820180604052508101906105a69190610d82565b6001600160a01b031663f94d4668856001600160a01b03166338fff2d06040518163ffffffff1660e01b8152600401602060405180830381865afa1580156105f2573d6000803e3d6000fd5b505050506040513d601f19601f820116820180604052508101906106169190610dc2565b6040518263ffffffff1660e01b815260040161063491815260200190565b600060405180830381865afa158015610651573d6000803e3d6000fd5b505050506040513d6000823e601f3d908101601f191682016040526106799190810190610eb1565b5091506000905061068b846012610f95565b61069690600a611092565b82866001600160a01b0316634d64cd746040518163ffffffff1660e01b8152600401602060405180830381865afa1580156106d5573d6000803e3d6000fd5b505050506040513d601f19601f820116820180604052508101906106f99190610dc2565b8151811061070957610709610d6c565b602002602001015161071b919061109e565b9050600061072a846012610f95565b61073590600a611092565b83876001600160a01b03166316b8d6ff6040518163ffffffff1660e01b8152600401602060405180830381865afa158015610774573d6000803e3d6000fd5b505050506040513d601f19601f820116820180604052508101906107989190610dc2565b815181106107a8576107a8610d6c565b60200260200101516107ba919061109e565b9050600080876001600160a01b03166363fe3b566040518163ffffffff1660e01b81526004016040805180830381865afa1580156107fc573d6000803e3d6000fd5b505050506040513d601f19601f8201168201806040525081019061082091906110b5565b90925090506000600261083383856110d9565b61083d91906110ec565b905060006103e860665483856108539190610f95565b61085d919061109e565b61086791906110ec565b6108719083610f95565b905060006103e860665484866108879190610f95565b610891919061109e565b61089b91906110ec565b6108a590846110d9565b9050826108b287896110d9565b10156108c9575050505050505050505050506109bb565b838711806108d657508487105b15610938575050606554604080516001600160a01b0390921660248084019190915281518084039091018152604490920190526020810180516001600160e01b03166321c2819160e01b17905260019e909d509b505050505050505050505050565b8087118061094557508187105b156109ae575050604080516001600160a01b039b909b1660248c0152620f42406044808d01919091528151808d0390910181526064909b0190525050506020870180516001600160e01b031663df633d8d60e01b17905250600199959850949650505050505050565b5050505050505050505050505b806109c58161110e565b915050610317565b5050604080518082019091526012815271616c6c20706f6f6c7320696e2072616e676560701b6020820152600092909150565b60678181548110610a1057600080fd5b6000918252602090912001546001600160a01b0316905081565b610a32610aa3565b6001600160a01b038116610a975760405162461bcd60e51b815260206004820152602660248201527f4f776e61626c653a206e6577206f776e657220697320746865207a65726f206160448201526564647265737360d01b6064820152608401610272565b610aa081610afd565b50565b6033546001600160a01b031633146101b15760405162461bcd60e51b815260206004820181905260248201527f4f776e61626c653a2063616c6c6572206973206e6f7420746865206f776e65726044820152606401610272565b603380546001600160a01b038381166001600160a01b0319831681179093556040519116919082907f8be0079c531659141344cd1fd0a4f28419497f9722a3daafe3b4186f6b6457e090600090a35050565b600054610100900460ff16610b765760405162461bcd60e51b815260040161027290611127565b6101b1600054610100900460ff16610ba05760405162461bcd60e51b815260040161027290611127565b6101b133610afd565b828054828255906000526020600020908101928215610bfc579160200282015b82811115610bfc5781546001600160a01b0319166001600160a01b03843516178255602090920191600190910190610bc9565b50610c08929150610c0c565b5090565b5b80821115610c085760008155600101610c0d565b600060208284031215610c3357600080fd5b5035919050565b60008060208385031215610c4d57600080fd5b823567ffffffffffffffff80821115610c6557600080fd5b818501915085601f830112610c7957600080fd5b813581811115610c8857600080fd5b8660208260051b8501011115610c9d57600080fd5b60209290920196919550909350505050565b6001600160a01b0381168114610aa057600080fd5b60008060408385031215610cd757600080fd5b8235610ce281610caf565b946020939093013593505050565b821515815260006020604081840152835180604085015260005b81811015610d2657858101830151858201606001528201610d0a565b506000606082860101526060601f19601f830116850101925050509392505050565b600060208284031215610d5a57600080fd5b8135610d6581610caf565b9392505050565b634e487b7160e01b600052603260045260246000fd5b600060208284031215610d9457600080fd5b8151610d6581610caf565b600060208284031215610db157600080fd5b815160ff81168114610d6557600080fd5b600060208284031215610dd457600080fd5b5051919050565b634e487b7160e01b600052604160045260246000fd5b604051601f8201601f1916810167ffffffffffffffff81118282101715610e1a57610e1a610ddb565b604052919050565b600067ffffffffffffffff821115610e3c57610e3c610ddb565b5060051b60200190565b600082601f830112610e5757600080fd5b81516020610e6c610e6783610e22565b610df1565b82815260059290921b84018101918181019086841115610e8b57600080fd5b8286015b84811015610ea65780518352918301918301610e8f565b509695505050505050565b600080600060608486031215610ec657600080fd5b835167ffffffffffffffff80821115610ede57600080fd5b818601915086601f830112610ef257600080fd5b81516020610f02610e6783610e22565b82815260059290921b8401810191818101908a841115610f2157600080fd5b948201945b83861015610f48578551610f3981610caf565b82529482019490820190610f26565b91890151919750909350505080821115610f6157600080fd5b50610f6e86828701610e46565b925050604084015190509250925092565b634e487b7160e01b600052601160045260246000fd5b81810381811115610fa857610fa8610f7f565b92915050565b600181815b80851115610fe9578160001904821115610fcf57610fcf610f7f565b80851615610fdc57918102915b93841c9390800290610fb3565b509250929050565b60008261100057506001610fa8565b8161100d57506000610fa8565b8160018114611023576002811461102d57611049565b6001915050610fa8565b60ff84111561103e5761103e610f7f565b50506001821b610fa8565b5060208310610133831016604e8410600b841016171561106c575081810a610fa8565b6110768383610fae565b806000190482111561108a5761108a610f7f565b029392505050565b6000610d658383610ff1565b8082028115828204841417610fa857610fa8610f7f565b600080604083850312156110c857600080fd5b505080516020909101519092909150565b80820180821115610fa857610fa8610f7f565b60008261110957634e487b7160e01b600052601260045260246000fd5b500490565b60006001820161112057611120610f7f565b5060010190565b6020808252602b908201527f496e697469616c697a61626c653a20636f6e7472616374206973206e6f74206960408201526a6e697469616c697a696e6760a81b60608201526080019056fea2646970667358221220d0cd8e88d001cf224f57af183be3d7e644ec1780fa5fc5b72cb1d509cead5e5164736f6c63430008110033",
  "devdoc": {
    "kind": "dev",
    "methods": {
      "owner()": {
        "details": "Returns the address of the current owner."
      },
      "renounceOwnership()": {
        "details": "Leaves the contract without owner. It will not be possible to call `onlyOwner` functions anymore. Can only be called by the current owner. NOTE: Renouncing ownership will leave the contract without an owner, thereby removing any functionality that is only available to the owner."
      },
      "transferOwnership(address)": {
        "details": "Transfers ownership of the contract to a new account (`newOwner`). Can only be called by the current owner."
      }
    },
    "version": 1
  },
  "userdoc": {
    "kind": "user",
    "methods": {},
    "version": 1
  },
  "storageLayout": {
    "storage": [
      {
        "astId": 138,
        "contract": "contracts/tools/BoostedPoolsRebalanceResolver.sol:BoostedPoolsRebalanceResolver",
        "label": "_initialized",
        "offset": 0,
        "slot": "0",
        "type": "t_uint8"
      },
      {
        "astId": 141,
        "contract": "contracts/tools/BoostedPoolsRebalanceResolver.sol:BoostedPoolsRebalanceResolver",
        "label": "_initializing",
        "offset": 1,
        "slot": "0",
        "type": "t_bool"
      },
      {
        "astId": 625,
        "contract": "contracts/tools/BoostedPoolsRebalanceResolver.sol:BoostedPoolsRebalanceResolver",
        "label": "__gap",
        "offset": 0,
        "slot": "1",
        "type": "t_array(t_uint256)50_storage"
      },
      {
        "astId": 10,
        "contract": "contracts/tools/BoostedPoolsRebalanceResolver.sol:BoostedPoolsRebalanceResolver",
        "label": "_owner",
        "offset": 0,
        "slot": "51",
        "type": "t_address"
      },
      {
        "astId": 130,
        "contract": "contracts/tools/BoostedPoolsRebalanceResolver.sol:BoostedPoolsRebalanceResolver",
        "label": "__gap",
        "offset": 0,
        "slot": "52",
        "type": "t_array(t_uint256)49_storage"
      },
      {
        "astId": 107397,
        "contract": "contracts/tools/BoostedPoolsRebalanceResolver.sol:BoostedPoolsRebalanceResolver",
        "label": "rebalancerWithExtraMain",
        "offset": 0,
        "slot": "101",
        "type": "t_address"
      },
      {
        "astId": 107399,
        "contract": "contracts/tools/BoostedPoolsRebalanceResolver.sol:BoostedPoolsRebalanceResolver",
        "label": "tetuNominator",
        "offset": 0,
        "slot": "102",
        "type": "t_uint256"
      },
      {
        "astId": 107402,
        "contract": "contracts/tools/BoostedPoolsRebalanceResolver.sol:BoostedPoolsRebalanceResolver",
        "label": "activeRebalancers",
        "offset": 0,
        "slot": "103",
        "type": "t_array(t_address)dyn_storage"
      }
    ],
    "types": {
      "t_address": {
        "encoding": "inplace",
        "label": "address",
        "numberOfBytes": "20"
      },
      "t_array(t_address)dyn_storage": {
        "base": "t_address",
        "encoding": "dynamic_array",
        "label": "address[]",
        "numberOfBytes": "32"
      },
      "t_array(t_uint256)49_storage": {
        "base": "t_uint256",
        "encoding": "inplace",
        "label": "uint256[49]",
        "numberOfBytes": "1568"
      },
      "t_array(t_uint256)50_storage": {
        "base": "t_uint256",
        "encoding": "inplace",
        "label": "uint256[50]",
        "numberOfBytes": "1600"
      },
      "t_bool": {
        "encoding": "inplace",
        "label": "bool",
        "numberOfBytes": "1"
      },
      "t_uint256": {
        "encoding": "inplace",
        "label": "uint256",
        "numberOfBytes": "32"
      },
      "t_uint8": {
        "encoding": "inplace",
        "label": "uint8",
        "numberOfBytes": "1"
      }
    }
  }
}