{
  "address": "0x9735961D23019bdEA6D123987650ACcc58a8fDD5",
  "abi": [
    {
      "anonymous": false,
      "inputs": [
        {
          "indexed": false,
          "internalType": "uint8",
          "name": "version",
          "type": "uint8"
        }
      ],
      "name": "Initialized",
      "type": "event"
    },
    {
      "anonymous": false,
      "inputs": [
        {
          "indexed": true,
          "internalType": "address",
          "name": "previousOwner",
          "type": "address"
        },
        {
          "indexed": true,
          "internalType": "address",
          "name": "newOwner",
          "type": "address"
        }
      ],
      "name": "OwnershipTransferred",
      "type": "event"
    },
    {
      "inputs": [],
      "name": "DEFAULT_EXTRA_MAIN",
      "outputs": [
        {
          "internalType": "uint256",
          "name": "",
          "type": "uint256"
        }
      ],
      "stateMutability": "view",
      "type": "function"
    },
    {
      "inputs": [],
      "name": "TETU_DENOMINATOR",
      "outputs": [
        {
          "internalType": "uint256",
          "name": "",
          "type": "uint256"
        }
      ],
      "stateMutability": "view",
      "type": "function"
    },
    {
      "inputs": [
        {
          "internalType": "address",
          "name": "operator",
          "type": "address"
        },
        {
          "internalType": "bool",
          "name": "status",
          "type": "bool"
        }
      ],
      "name": "changeOperatorStatus",
      "outputs": [],
      "stateMutability": "nonpayable",
      "type": "function"
    },
    {
      "inputs": [],
      "name": "checker",
      "outputs": [
        {
          "internalType": "bool",
          "name": "canExec",
          "type": "bool"
        },
        {
          "internalType": "bytes",
          "name": "execPayload",
          "type": "bytes"
        }
      ],
      "stateMutability": "view",
      "type": "function"
    },
    {
      "inputs": [],
      "name": "delay",
      "outputs": [
        {
          "internalType": "uint256",
          "name": "",
          "type": "uint256"
        }
      ],
      "stateMutability": "view",
      "type": "function"
    },
    {
      "inputs": [
        {
          "internalType": "address[]",
          "name": "_rebalancers",
          "type": "address[]"
        }
      ],
      "name": "initialize",
      "outputs": [],
      "stateMutability": "nonpayable",
      "type": "function"
    },
    {
      "inputs": [],
      "name": "lastCall",
      "outputs": [
        {
          "internalType": "uint256",
          "name": "",
          "type": "uint256"
        }
      ],
      "stateMutability": "view",
      "type": "function"
    },
    {
      "inputs": [
        {
          "internalType": "address",
          "name": "",
          "type": "address"
        }
      ],
      "name": "lastCallPerRebalancer",
      "outputs": [
        {
          "internalType": "uint256",
          "name": "",
          "type": "uint256"
        }
      ],
      "stateMutability": "view",
      "type": "function"
    },
    {
      "inputs": [],
      "name": "maxGas",
      "outputs": [
        {
          "internalType": "uint256",
          "name": "",
          "type": "uint256"
        }
      ],
      "stateMutability": "view",
      "type": "function"
    },
    {
      "inputs": [],
      "name": "maxGasAdjusted",
      "outputs": [
        {
          "internalType": "uint256",
          "name": "",
          "type": "uint256"
        }
      ],
      "stateMutability": "view",
      "type": "function"
    },
    {
      "inputs": [
        {
          "internalType": "address",
          "name": "",
          "type": "address"
        }
      ],
      "name": "operators",
      "outputs": [
        {
          "internalType": "bool",
          "name": "",
          "type": "bool"
        }
      ],
      "stateMutability": "view",
      "type": "function"
    },
    {
      "inputs": [],
      "name": "owner",
      "outputs": [
        {
          "internalType": "address",
          "name": "",
          "type": "address"
        }
      ],
      "stateMutability": "view",
      "type": "function"
    },
    {
      "inputs": [
        {
          "internalType": "address",
          "name": "balancerRebalancer",
          "type": "address"
        },
        {
          "internalType": "uint256",
          "name": "amount",
          "type": "uint256"
        },
        {
          "internalType": "bool",
          "name": "extra",
          "type": "bool"
        }
      ],
      "name": "rebalance",
      "outputs": [],
      "stateMutability": "nonpayable",
      "type": "function"
    },
    {
      "inputs": [
        {
          "internalType": "uint256",
          "name": "",
          "type": "uint256"
        }
      ],
      "name": "rebalancers",
      "outputs": [
        {
          "internalType": "address",
          "name": "",
          "type": "address"
        }
      ],
      "stateMutability": "view",
      "type": "function"
    },
    {
      "inputs": [],
      "name": "renounceOwnership",
      "outputs": [],
      "stateMutability": "nonpayable",
      "type": "function"
    },
    {
      "inputs": [
        {
          "internalType": "uint256",
          "name": "value",
          "type": "uint256"
        }
      ],
      "name": "setDelay",
      "outputs": [],
      "stateMutability": "nonpayable",
      "type": "function"
    },
    {
      "inputs": [
        {
          "internalType": "uint256",
          "name": "value",
          "type": "uint256"
        }
      ],
      "name": "setMaxGas",
      "outputs": [],
      "stateMutability": "nonpayable",
      "type": "function"
    },
    {
      "inputs": [
        {
          "internalType": "uint256",
          "name": "_tetuNominator",
          "type": "uint256"
        }
      ],
      "name": "setNominator",
      "outputs": [],
      "stateMutability": "nonpayable",
      "type": "function"
    },
    {
      "inputs": [],
      "name": "tetuNominator",
      "outputs": [
        {
          "internalType": "uint256",
          "name": "",
          "type": "uint256"
        }
      ],
      "stateMutability": "view",
      "type": "function"
    },
    {
      "inputs": [
        {
          "internalType": "address",
          "name": "newOwner",
          "type": "address"
        }
      ],
      "name": "transferOwnership",
      "outputs": [],
      "stateMutability": "nonpayable",
      "type": "function"
    },
    {
      "inputs": [
        {
          "internalType": "address[]",
          "name": "_rebalancers",
          "type": "address[]"
        }
      ],
      "name": "updateRebalancers",
      "outputs": [],
      "stateMutability": "nonpayable",
      "type": "function"
    },
    {
      "inputs": [
        {
          "internalType": "address",
          "name": "token",
          "type": "address"
        },
        {
          "internalType": "uint256",
          "name": "amount",
          "type": "uint256"
        }
      ],
      "name": "withdraw",
      "outputs": [],
      "stateMutability": "nonpayable",
      "type": "function"
    }
  ],
  "transactionHash": "0xf69761495361a06aeeb0cf5d1afd0880358a4d09fcc0b776bbf8b05b647f27f2",
  "args": [],
  "numDeployments": 1,
  "solcInputHash": "a78c0224d4177b944b133844581a1f3c",
  "bytecode": "0x608060405234801561001057600080fd5b50611c9b806100206000396000f3fe608060405234801561001057600080fd5b50600436106101425760003560e01c806390e65ba1116100b8578063cf5303cf1161007c578063cf5303cf14610292578063da516aa9146102a8578063e177246e146102b1578063f125ab66146102c4578063f2fde38b146102cd578063f3fef3a3146102e057600080fd5b806390e65ba1146102395780639d2bbc5114610243578063a224cee714610256578063c0f981e714610269578063cf3a2c181461027257600080fd5b80636a42b8f81161010a5780636a42b8f8146101e9578063715018a6146101f257806388a24825146101fa5780638da5cb5b146102025780638e928076146102135780638fbdcb2b1461022657600080fd5b806313e7c9d8146101475780634fa851351461017f578063501d815c146101aa5780636463a73e146101c15780636575c458146101d6575b600080fd5b61016a6101553660046115ef565b606a6020526000908152604090205460ff1681565b60405190151581526020015b60405180910390f35b61019261018d366004611613565b6102f3565b6040516001600160a01b039091168152602001610176565b6101b360685481565b604051908152602001610176565b6101d46101cf36600461163a565b61031d565b005b6101d46101e436600461167c565b6105f6565b6101b360675481565b6101d4610629565b6101b361063d565b6033546001600160a01b0316610192565b6101d4610221366004611613565b61069a565b6101d4610234366004611613565b6106a7565b6101b3620f424081565b6101d46102513660046116b5565b6106b4565b6101d46102643660046116b5565b6106cd565b6101b360655481565b6101b36102803660046115ef565b606b6020526000908152604090205481565b61029a610801565b60405161017692919061177a565b6101b360695481565b6101d46102bf366004611613565b610f3b565b6101b36103e881565b6101d46102db3660046115ef565b610f48565b6101d46102ee366004611795565b610fc1565b6066818154811061030357600080fd5b6000918252602090912001546001600160a01b0316905081565b336000908152606a602052604090205460ff166103735760405162461bcd60e51b815260206004820152600f60248201526e2737ba1030b71037b832b930ba37b960891b60448201526064015b60405180910390fd5b828115610580576000816001600160a01b031663026b1d5f6040518163ffffffff1660e01b8152600401602060405180830381865afa1580156103ba573d6000803e3d6000fd5b505050506040513d601f19601f820116820180604052508101906103de91906117c1565b90506000816001600160a01b0316634de046d56040518163ffffffff1660e01b8152600401602060405180830381865afa158015610420573d6000803e3d6000fd5b505050506040513d601f19601f8201168201806040525081019061044491906117c1565b6040516370a0823160e01b815230600482015290915085906001600160a01b038316906370a0823190602401602060405180830381865afa15801561048d573d6000803e3d6000fd5b505050506040513d601f19601f820116820180604052508101906104b191906117de565b10156104f35760405162461bcd60e51b81526020600482015260116024820152704e6f7420656e6f75676820746f6b656e7360781b604482015260640161036a565b6105076001600160a01b0382168787610fe1565b60405163df633d8d60e01b8152306004820152602481018690526001600160a01b0387169063df633d8d906044016020604051808303816000875af1158015610554573d6000803e3d6000fd5b505050506040513d601f19601f8201168201806040525081019061057891906117de565b5050506105ec565b6040516321c2819160e01b81523060048201526001600160a01b038216906321c28191906024016020604051808303816000875af11580156105c6573d6000803e3d6000fd5b505050506040513d601f19601f820116820180604052508101906105ea91906117de565b505b5050426069555050565b6105fe611129565b6001600160a01b03919091166000908152606a60205260409020805460ff1916911515919091179055565b610631611129565b61063b6000611183565b565b606854606954600091908290610653904261180d565b9050600062015180610666836064611826565b6106709190611853565b9050606461067e8285611826565b6106889190611853565b6106929084611867565b935050505090565b6106a2611129565b606855565b6106af611129565b606555565b6106bc611129565b6106c860668383611562565b505050565b600054610100900460ff16158080156106ed5750600054600160ff909116105b806107075750303b158015610707575060005460ff166001145b61076a5760405162461bcd60e51b815260206004820152602e60248201527f496e697469616c697a61626c653a20636f6e747261637420697320616c72656160448201526d191e481a5b9a5d1a585b1a5e995960921b606482015260840161036a565b6000805460ff19166001179055801561078d576000805461ff0019166101001790555b6107956111d5565b610e10606755640826299e006068556101f46065556107b660668484611562565b5080156106c8576000805461ff0019169055604051600181527f7f26b83ff96e1f2b6a682f133852f6798a09c465da95921460cefb38474024989060200160405180910390a1505050565b6000606061080d61063d565b3a111561085357600061082c610827633b9aca003a611853565b611204565b60405160200161083c919061187a565b604051602081830303815290604052915091509091565b60675460005b606654811015610f04574282606b60006066858154811061087c5761087c6118b0565b60009182526020808320909101546001600160a01b031683528201929092526040019020546108ab9190611867565b11610ef2576000606682815481106108c5576108c56118b0565b600091825260209182902001546040805163026b1d5f60e01b815290516001600160a01b039092169263026b1d5f926004808401938290030181865afa158015610913573d6000803e3d6000fd5b505050506040513d601f19601f8201168201806040525081019061093791906117c1565b90506000816001600160a01b0316634de046d56040518163ffffffff1660e01b8152600401602060405180830381865afa158015610979573d6000803e3d6000fd5b505050506040513d601f19601f8201168201806040525081019061099d91906117c1565b6001600160a01b031663313ce5676040518163ffffffff1660e01b8152600401602060405180830381865afa1580156109da573d6000803e3d6000fd5b505050506040513d601f19601f820116820180604052508101906109fe91906118c6565b60ff1690506000826001600160a01b031663f174e2416040518163ffffffff1660e01b8152600401602060405180830381865afa158015610a43573d6000803e3d6000fd5b505050506040513d601f19601f82011682018060405250810190610a6791906117c1565b6001600160a01b031663313ce5676040518163ffffffff1660e01b8152600401602060405180830381865afa158015610aa4573d6000803e3d6000fd5b505050506040513d601f19601f82011682018060405250810190610ac891906118c6565b60ff1690506000836001600160a01b0316638d928af86040518163ffffffff1660e01b8152600401602060405180830381865afa158015610b0d573d6000803e3d6000fd5b505050506040513d601f19601f82011682018060405250810190610b3191906117c1565b6001600160a01b031663f94d4668856001600160a01b03166338fff2d06040518163ffffffff1660e01b8152600401602060405180830381865afa158015610b7d573d6000803e3d6000fd5b505050506040513d601f19601f82011682018060405250810190610ba191906117de565b6040518263ffffffff1660e01b8152600401610bbf91815260200190565b600060405180830381865afa158015610bdc573d6000803e3d6000fd5b505050506040513d6000823e601f3d908101601f19168201604052610c0491908101906119bf565b50915060009050610c1684601261180d565b610c2190600a611b71565b82866001600160a01b0316634d64cd746040518163ffffffff1660e01b8152600401602060405180830381865afa158015610c60573d6000803e3d6000fd5b505050506040513d601f19601f82011682018060405250810190610c8491906117de565b81518110610c9457610c946118b0565b6020026020010151610ca69190611826565b90506000610cb584601261180d565b610cc090600a611b71565b83876001600160a01b03166316b8d6ff6040518163ffffffff1660e01b8152600401602060405180830381865afa158015610cff573d6000803e3d6000fd5b505050506040513d601f19601f82011682018060405250810190610d2391906117de565b81518110610d3357610d336118b0565b6020026020010151610d459190611826565b9050600080876001600160a01b03166363fe3b566040518163ffffffff1660e01b81526004016040805180830381865afa158015610d87573d6000803e3d6000fd5b505050506040513d601f19601f82011682018060405250810190610dab9190611b7d565b909250905060006002610dbe8385611867565b610dc89190611853565b905060006103e86065548385610dde919061180d565b610de89190611826565b610df29190611853565b610dfc908361180d565b905060006103e86065548486610e12919061180d565b610e1c9190611826565b610e269190611853565b610e309084611867565b905082610e3d8789611867565b1015610e53575050505050505050505050610ef2565b600081881180610e6257508288105b9050600160668e81548110610e7957610e796118b0565b6000918252602090912001546040516001600160a01b039091166024820152620f424060448201528215156064820152608401604051602081830303815290604052636463a73e60e01b6020820180516001600160e01b0383818316178352505050509f509f5050505050505050505050505050509091565b80610efc81611ba1565b915050610859565b50600060405180604001604052806012815260200171616c6c20706f6f6c7320696e2072616e676560701b81525092509250509091565b610f43611129565b606755565b610f50611129565b6001600160a01b038116610fb55760405162461bcd60e51b815260206004820152602660248201527f4f776e61626c653a206e6577206f776e657220697320746865207a65726f206160448201526564647265737360d01b606482015260840161036a565b610fbe81611183565b50565b610fc9611129565b610fdd6001600160a01b038316338361130d565b5050565b80158061105b5750604051636eb1769f60e11b81523060048201526001600160a01b03838116602483015284169063dd62ed3e90604401602060405180830381865afa158015611035573d6000803e3d6000fd5b505050506040513d601f19601f8201168201806040525081019061105991906117de565b155b6110c65760405162461bcd60e51b815260206004820152603660248201527f5361666545524332303a20617070726f76652066726f6d206e6f6e2d7a65726f60448201527520746f206e6f6e2d7a65726f20616c6c6f77616e636560501b606482015260840161036a565b6040516001600160a01b0383166024820152604481018290526106c890849063095ea7b360e01b906064015b60408051601f198184030181529190526020810180516001600160e01b03166001600160e01b03199093169290921790915261133d565b6033546001600160a01b0316331461063b5760405162461bcd60e51b815260206004820181905260248201527f4f776e61626c653a2063616c6c6572206973206e6f7420746865206f776e6572604482015260640161036a565b603380546001600160a01b038381166001600160a01b0319831681179093556040519116919082907f8be0079c531659141344cd1fd0a4f28419497f9722a3daafe3b4186f6b6457e090600090a35050565b600054610100900460ff166111fc5760405162461bcd60e51b815260040161036a90611bba565b61063b61140f565b60608160000361122b5750506040805180820190915260018152600360fc1b602082015290565b8160005b8115611255578061123f81611ba1565b915061124e9050600a83611853565b915061122f565b60008167ffffffffffffffff811115611270576112706118e9565b6040519080825280601f01601f19166020018201604052801561129a576020820181803683370190505b5090505b8415611305576112af60018361180d565b91506112bc600a86611c05565b6112c7906030611867565b60f81b8183815181106112dc576112dc6118b0565b60200101906001600160f81b031916908160001a9053506112fe600a86611853565b945061129e565b949350505050565b6040516001600160a01b0383166024820152604481018290526106c890849063a9059cbb60e01b906064016110f2565b6000611392826040518060400160405280602081526020017f5361666545524332303a206c6f772d6c6576656c2063616c6c206661696c6564815250856001600160a01b031661143f9092919063ffffffff16565b8051909150156106c857808060200190518101906113b09190611c19565b6106c85760405162461bcd60e51b815260206004820152602a60248201527f5361666545524332303a204552433230206f7065726174696f6e20646964206e6044820152691bdd081cdd58d8d9595960b21b606482015260840161036a565b600054610100900460ff166114365760405162461bcd60e51b815260040161036a90611bba565b61063b33611183565b6060611305848460008585600080866001600160a01b031685876040516114669190611c36565b60006040518083038185875af1925050503d80600081146114a3576040519150601f19603f3d011682016040523d82523d6000602084013e6114a8565b606091505b50915091506114b9878383876114c4565b979650505050505050565b6060831561153357825160000361152c576001600160a01b0385163b61152c5760405162461bcd60e51b815260206004820152601d60248201527f416464726573733a2063616c6c20746f206e6f6e2d636f6e7472616374000000604482015260640161036a565b5081611305565b61130583838151156115485781518083602001fd5b8060405162461bcd60e51b815260040161036a9190611c52565b8280548282559060005260206000209081019282156115b5579160200282015b828111156115b55781546001600160a01b0319166001600160a01b03843516178255602090920191600190910190611582565b506115c19291506115c5565b5090565b5b808211156115c157600081556001016115c6565b6001600160a01b0381168114610fbe57600080fd5b60006020828403121561160157600080fd5b813561160c816115da565b9392505050565b60006020828403121561162557600080fd5b5035919050565b8015158114610fbe57600080fd5b60008060006060848603121561164f57600080fd5b833561165a816115da565b92506020840135915060408401356116718161162c565b809150509250925092565b6000806040838503121561168f57600080fd5b823561169a816115da565b915060208301356116aa8161162c565b809150509250929050565b600080602083850312156116c857600080fd5b823567ffffffffffffffff808211156116e057600080fd5b818501915085601f8301126116f457600080fd5b81358181111561170357600080fd5b8660208260051b850101111561171857600080fd5b60209290920196919550909350505050565b60005b8381101561174557818101518382015260200161172d565b50506000910152565b6000815180845261176681602086016020860161172a565b601f01601f19169290920160200192915050565b8215158152604060208201526000611305604083018461174e565b600080604083850312156117a857600080fd5b82356117b3816115da565b946020939093013593505050565b6000602082840312156117d357600080fd5b815161160c816115da565b6000602082840312156117f057600080fd5b5051919050565b634e487b7160e01b600052601160045260246000fd5b81810381811115611820576118206117f7565b92915050565b8082028115828204841417611820576118206117f7565b634e487b7160e01b600052601260045260246000fd5b6000826118625761186261183d565b500490565b80820180821115611820576118206117f7565b6d02a37b7903434b3b41033b0b99d160951b8152600082516118a381600e85016020870161172a565b91909101600e0192915050565b634e487b7160e01b600052603260045260246000fd5b6000602082840312156118d857600080fd5b815160ff8116811461160c57600080fd5b634e487b7160e01b600052604160045260246000fd5b604051601f8201601f1916810167ffffffffffffffff81118282101715611928576119286118e9565b604052919050565b600067ffffffffffffffff82111561194a5761194a6118e9565b5060051b60200190565b600082601f83011261196557600080fd5b8151602061197a61197583611930565b6118ff565b82815260059290921b8401810191818101908684111561199957600080fd5b8286015b848110156119b4578051835291830191830161199d565b509695505050505050565b6000806000606084860312156119d457600080fd5b835167ffffffffffffffff808211156119ec57600080fd5b818601915086601f830112611a0057600080fd5b81516020611a1061197583611930565b82815260059290921b8401810191818101908a841115611a2f57600080fd5b948201945b83861015611a56578551611a47816115da565b82529482019490820190611a34565b91890151919750909350505080821115611a6f57600080fd5b50611a7c86828701611954565b925050604084015190509250925092565b600181815b80851115611ac8578160001904821115611aae57611aae6117f7565b80851615611abb57918102915b93841c9390800290611a92565b509250929050565b600082611adf57506001611820565b81611aec57506000611820565b8160018114611b025760028114611b0c57611b28565b6001915050611820565b60ff841115611b1d57611b1d6117f7565b50506001821b611820565b5060208310610133831016604e8410600b8410161715611b4b575081810a611820565b611b558383611a8d565b8060001904821115611b6957611b696117f7565b029392505050565b600061160c8383611ad0565b60008060408385031215611b9057600080fd5b505080516020909101519092909150565b600060018201611bb357611bb36117f7565b5060010190565b6020808252602b908201527f496e697469616c697a61626c653a20636f6e7472616374206973206e6f74206960408201526a6e697469616c697a696e6760a81b606082015260800190565b600082611c1457611c1461183d565b500690565b600060208284031215611c2b57600080fd5b815161160c8161162c565b60008251611c4881846020870161172a565b9190910192915050565b60208152600061160c602083018461174e56fea264697066735822122083fd0da142c4f936bc6fe4651e79c3216fab3e7cc59caa934397e9e91668397d64736f6c63430008110033",
  "devdoc": {
    "kind": "dev",
    "methods": {
      "owner()": {
        "details": "Returns the address of the current owner."
      },
      "renounceOwnership()": {
        "details": "Leaves the contract without owner. It will not be possible to call `onlyOwner` functions anymore. Can only be called by the current owner. NOTE: Renouncing ownership will leave the contract without an owner, thereby removing any functionality that is only available to the owner."
      },
      "transferOwnership(address)": {
        "details": "Transfers ownership of the contract to a new account (`newOwner`). Can only be called by the current owner."
      }
    },
    "stateVariables": {
      "tetuNominator": {
        "details": "500 by default - 50% of the target"
      }
    },
    "version": 1
  },
  "userdoc": {
    "kind": "user",
    "methods": {},
    "version": 1
  },
  "storageLayout": {
    "storage": [
      {
        "astId": 138,
        "contract": "contracts/tools/BoostedPoolsRebalanceResolver.sol:BoostedPoolsRebalanceResolver",
        "label": "_initialized",
        "offset": 0,
        "slot": "0",
        "type": "t_uint8"
      },
      {
        "astId": 141,
        "contract": "contracts/tools/BoostedPoolsRebalanceResolver.sol:BoostedPoolsRebalanceResolver",
        "label": "_initializing",
        "offset": 1,
        "slot": "0",
        "type": "t_bool"
      },
      {
        "astId": 625,
        "contract": "contracts/tools/BoostedPoolsRebalanceResolver.sol:BoostedPoolsRebalanceResolver",
        "label": "__gap",
        "offset": 0,
        "slot": "1",
        "type": "t_array(t_uint256)50_storage"
      },
      {
        "astId": 10,
        "contract": "contracts/tools/BoostedPoolsRebalanceResolver.sol:BoostedPoolsRebalanceResolver",
        "label": "_owner",
        "offset": 0,
        "slot": "51",
        "type": "t_address"
      },
      {
        "astId": 130,
        "contract": "contracts/tools/BoostedPoolsRebalanceResolver.sol:BoostedPoolsRebalanceResolver",
        "label": "__gap",
        "offset": 0,
        "slot": "52",
        "type": "t_array(t_uint256)49_storage"
      },
      {
        "astId": 107901,
        "contract": "contracts/tools/BoostedPoolsRebalanceResolver.sol:BoostedPoolsRebalanceResolver",
        "label": "tetuNominator",
        "offset": 0,
        "slot": "101",
        "type": "t_uint256"
      },
      {
        "astId": 107904,
        "contract": "contracts/tools/BoostedPoolsRebalanceResolver.sol:BoostedPoolsRebalanceResolver",
        "label": "rebalancers",
        "offset": 0,
        "slot": "102",
        "type": "t_array(t_address)dyn_storage"
      },
      {
        "astId": 107906,
        "contract": "contracts/tools/BoostedPoolsRebalanceResolver.sol:BoostedPoolsRebalanceResolver",
        "label": "delay",
        "offset": 0,
        "slot": "103",
        "type": "t_uint256"
      },
      {
        "astId": 107908,
        "contract": "contracts/tools/BoostedPoolsRebalanceResolver.sol:BoostedPoolsRebalanceResolver",
        "label": "maxGas",
        "offset": 0,
        "slot": "104",
        "type": "t_uint256"
      },
      {
        "astId": 107910,
        "contract": "contracts/tools/BoostedPoolsRebalanceResolver.sol:BoostedPoolsRebalanceResolver",
        "label": "lastCall",
        "offset": 0,
        "slot": "105",
        "type": "t_uint256"
      },
      {
        "astId": 107914,
        "contract": "contracts/tools/BoostedPoolsRebalanceResolver.sol:BoostedPoolsRebalanceResolver",
        "label": "operators",
        "offset": 0,
        "slot": "106",
        "type": "t_mapping(t_address,t_bool)"
      },
      {
        "astId": 107918,
        "contract": "contracts/tools/BoostedPoolsRebalanceResolver.sol:BoostedPoolsRebalanceResolver",
        "label": "lastCallPerRebalancer",
        "offset": 0,
        "slot": "107",
        "type": "t_mapping(t_address,t_uint256)"
      }
    ],
    "types": {
      "t_address": {
        "encoding": "inplace",
        "label": "address",
        "numberOfBytes": "20"
      },
      "t_array(t_address)dyn_storage": {
        "base": "t_address",
        "encoding": "dynamic_array",
        "label": "address[]",
        "numberOfBytes": "32"
      },
      "t_array(t_uint256)49_storage": {
        "base": "t_uint256",
        "encoding": "inplace",
        "label": "uint256[49]",
        "numberOfBytes": "1568"
      },
      "t_array(t_uint256)50_storage": {
        "base": "t_uint256",
        "encoding": "inplace",
        "label": "uint256[50]",
        "numberOfBytes": "1600"
      },
      "t_bool": {
        "encoding": "inplace",
        "label": "bool",
        "numberOfBytes": "1"
      },
      "t_mapping(t_address,t_bool)": {
        "encoding": "mapping",
        "key": "t_address",
        "label": "mapping(address => bool)",
        "numberOfBytes": "32",
        "value": "t_bool"
      },
      "t_mapping(t_address,t_uint256)": {
        "encoding": "mapping",
        "key": "t_address",
        "label": "mapping(address => uint256)",
        "numberOfBytes": "32",
        "value": "t_uint256"
      },
      "t_uint256": {
        "encoding": "inplace",
        "label": "uint256",
        "numberOfBytes": "32"
      },
      "t_uint8": {
        "encoding": "inplace",
        "label": "uint8",
        "numberOfBytes": "1"
      }
    }
  }
}