{
  "address": "0xD171baC203b87Cdd20a47cBE0fDC5Ca95c5A1CB2",
  "abi": [
    {
      "inputs": [],
      "name": "SUM_PROPORTIONS",
      "outputs": [
        {
          "internalType": "uint256",
          "name": "",
          "type": "uint256"
        }
      ],
      "stateMutability": "view",
      "type": "function"
    }
  ],
  "transactionHash": "0xf44d80071825a4c5c02f645da6e4410845c344b520e113dcb3249420a8360e23",
  "args": [],
  "numDeployments": 5,
  "solcInputHash": "9a67e5b94f62a52096a4af4ce8592dcc",
  "bytecode": "0x611fe461003a600b82828239805160001a60731461002d57634e487b7160e01b600052600060045260246000fd5b30600052607381538281f3fe73000000000000000000000000000000000000000030146080604052600436106100405760003560e01c806343f8b62c14610045578063d0c9e36314610067575b600080fd5b81801561005157600080fd5b50610065610060366004611bd4565b610088565b005b610076670de0b6b3a764000081565b60405190815260200160405180910390f35b60408051808201909152601081526f54532d3234207a65726f2076616c756560801b6020820152846100d65760405162461bcd60e51b81526004016100cd9190611ca4565b60405180910390fd5b5060408051808201909152601481527354532d333220746f6f20686967682076616c756560601b6020820152670de0b6b3a7640000851061012a5760405162461bcd60e51b81526004016100cd9190611ca4565b50610133611b35565b6001600160a01b038088168252861660208201526040810185905260608101849052608081018390526101408101829052600061016f8a610260565b604080516002808252606082018352929350600092909160208301908036833701905050905088816000815181106101a9576101a9611ccd565b60200260200101906001600160a01b031690816001600160a01b03168152505087816001815181106101dd576101dd611ccd565b60200260200101906001600160a01b031690816001600160a01b0316815250506102098282600261032b565b8460a001516000018560a0015160200182905282905250506102538360405180604001604052808e6001600160a01b031681526020018d6001600160a01b0316815250600161052a565b5050505050505050505050565b6000816001600160a01b031663f77c47916040518163ffffffff1660e01b8152600401602060405180830381865afa1580156102a0573d6000803e3d6000fd5b505050506040513d601f19601f820116820180604052508101906102c49190611ce3565b6001600160a01b0316632630c12f6040518163ffffffff1660e01b8152600401602060405180830381865afa158015610301573d6000803e3d6000fd5b505050506040513d601f19601f820116820180604052508101906103259190611ce3565b92915050565b6060808267ffffffffffffffff81111561034757610347611cb7565b604051908082528060200260200182016040528015610370578160200160208202803683370190505b5091508267ffffffffffffffff81111561038c5761038c611cb7565b6040519080825280602002602001820160405280156103b5578160200160208202803683370190505b50905060005b83811015610521578481815181106103d5576103d5611ccd565b60200260200101516001600160a01b031663313ce5676040518163ffffffff1660e01b8152600401602060405180830381865afa15801561041a573d6000803e3d6000fd5b505050506040513d601f19601f8201168201806040525081019061043e9190611d00565b61044990600a611e1d565b82828151811061045b5761045b611ccd565b602002602001018181525050856001600160a01b031663b3596f0786838151811061048857610488611ccd565b60200260200101516040518263ffffffff1660e01b81526004016104bb91906001600160a01b0391909116815260200190565b602060405180830381865afa1580156104d8573d6000803e3d6000fd5b505050506040513d601f19601f820116820180604052508101906104fc9190611e2c565b83828151811061050e5761050e611ccd565b60209081029190910101526001016103bb565b50935093915050565b82516040516370a0823160e01b81523060048201526001600160a01b03909116906370a0823190602401602060405180830381865afa158015610571573d6000803e3d6000fd5b505050506040513d601f19601f820116820180604052508101906105959190611e2c565b60c084015260208301516040516370a0823160e01b81523060048201526001600160a01b03909116906370a0823190602401602060405180830381865afa1580156105e4573d6000803e3d6000fd5b505050506040513d601f19601f820116820180604052508101906106089190611e2c565b60e084015281518351602085015160405163dd27ede760e01b81526001600160a01b039093169263dd27ede792610646923092600190600401611e45565b60408051808303816000875af1158015610664573d6000803e3d6000fd5b505050506040513d601f19601f820116820180604052508101906106889190611e6f565b5061010084015281516020840151845160405163dd27ede760e01b81526001600160a01b039093169263dd27ede7926106c8923092600190600401611e45565b60408051808303816000875af11580156106e6573d6000803e3d6000fd5b505050506040513d601f19601f8201168201806040525081019061070a9190611e6f565b5061012084015261071c838383610721565b505050565b60008360a001516020015160008151811061073e5761073e611ccd565b60200260200101518460a001516000015160008151811061076157610761611ccd565b60200260200101518560c001516107789190611e93565b6107829190611eaa565b905060008460a00151602001516001815181106107a1576107a1611ccd565b60200260200101518560a00151600001516001815181106107c4576107c4611ccd565b60200260200101518660e001516107db9190611e93565b6107e59190611eaa565b905060008560a001516020015160008151811061080457610804611ccd565b60200260200101518660a001516000015160008151811061082757610827611ccd565b602002602001015187610140015161083f9190611e93565b6108499190611eaa565b9050806108568385611ecc565b1115610d76576000816108698486611ecc565b6108739190611edf565b9050600082670de0b6b3a76400008960400151846108919190611e93565b61089b9190611eaa565b6108a59190611ecc565b90506000670de0b6b3a76400008960400151670de0b6b3a76400006108ca9190611edf565b6108d49085611e93565b6108de9190611eaa565b905085821115610b2b5760006040518061016001604052808a81526020018b602001516001600160a01b031681526020018b600001516001600160a01b031681526020018b60400151670de0b6b3a764000061093a9190611edf565b81526020018b6040015181526020018b60a001516020015160008151811061096457610964611ccd565b60200260200101518c60a001516000015160018151811061098757610987611ccd565b60200260200101518d60a00151602001516001815181106109aa576109aa611ccd565b60200260200101518e60a00151600001516000815181106109cd576109cd611ccd565b6020026020010151670de0b6b3a76400006109e89190611e93565b6109f29190611e93565b6109fc9190611eaa565b610a069190611eaa565b81526020018b608001518152602001600081526020018b61014001518152602001600181526020016000815250905060648a610100015110610b0a576040805180820190915260118152701514cb4c8cc81b9bdd08185b1b1bddd959607a1b602082015288610a885760405162461bcd60e51b81526004016100cd9190611ca4565b5060008a60a0015160000151600081518110610aa657610aa6611ccd565b60200260200101518b60a0015160200151600081518110610ac957610ac9611ccd565b60200260200101518986610add9190611edf565b610ae79190611e93565b610af19190611eaa565b9050610b048b83838e6101000151610d7e565b50610b25565b610b22818b60a001518c60e001518d60c00151610de7565b50505b50610d72565b85821015610d725760006040518061016001604052808a81526020018b600001516001600160a01b031681526020018b602001516001600160a01b031681526020018b6040015181526020018b60400151670de0b6b3a7640000610b8f9190611edf565b81526020018b60a0015160200151600181518110610baf57610baf611ccd565b60200260200101518c60a0015160000151600081518110610bd257610bd2611ccd565b60200260200101518d60a0015160200151600081518110610bf557610bf5611ccd565b60200260200101518e60a0015160000151600181518110610c1857610c18611ccd565b6020026020010151670de0b6b3a7640000610c339190611e93565b610c3d9190611e93565b610c479190611eaa565b610c519190611eaa565b81526020018b6060015181526020018b6101400151815260200160008152602001600081526020016001815250905060648a610120015110610d55576040805180820190915260118152701514cb4c8cc81b9bdd08185b1b1bddd959607a1b602082015288610cd35760405162461bcd60e51b81526004016100cd9190611ca4565b5060008a60a0015160000151600181518110610cf157610cf1611ccd565b60200260200101518b60a0015160200151600181518110610d1457610d14611ccd565b60200260200101518885610d289190611edf565b610d329190611e93565b610d3c9190611eaa565b9050610d4f8b83838e6101200151610d7e565b50610d70565b610d6d818b60a001518c60c001518d60e00151610de7565b50505b505b5050505b505050505050565b6000670de0b6b3a76400008460a0015184610d999190611e93565b610da39190611eaa565b90506000610db18284610f54565b905060648110610d765784515160408601516020870151610dd492919084610f6c565b505050610d76868660000151600061052a565b6000808560e0015160001480610e005750610100860151155b6040518060400160405280601381526020017254532d333020696e76616c69642076616c756560681b81525090610e4a5760405162461bcd60e51b81526004016100cd9190611ca4565b5061010086015115610ec5578561010001518310610e8657610e7d868588610100015186610e789190611edf565b61112e565b91509150610f4b565b6000610ea4878787878b6101000151610e9f9190611edf565b6112c7565b509050610ebb87610eb58388611edf565b8661112e565b9250925050610f4b565b60e086015115610f40578560e001518410156040518060400160405280601781526020017654532d37206e6f7420656e6f7567682062616c616e636560481b81525090610f255760405162461bcd60e51b81526004016100cd9190611ca4565b50610e7d868760e0015186610f3a9190611edf565b8561112e565b610e7d86858561112e565b94509492505050565b6000818310610f635781610f65565b825b9392505050565b6040516370a0823160e01b81523060048201526000908190819081906001600160a01b038716906370a0823190602401602060405180830381865afa158015610fb9573d6000803e3d6000fd5b505050506040513d601f19601f82011682018060405250810190610fdd9190611e2c565b90506000886001600160a01b031663dd27ede7308a8a60016040518563ffffffff1660e01b81526004016110149493929190611e45565b60408051808303816000875af1158015611032573d6000803e3d6000fd5b505050506040513d601f19601f820116820180604052508101906110569190611e6f565b509050611071818710611069578161106b565b865b83610f54565b60405163667df24960e01b81523060048201526001600160a01b038a811660248301528981166044830152606482018390529194506000918b169063667df2499060840160408051808303816000875af11580156110d3573d6000803e3d6000fd5b505050506040513d601f19601f820116820180604052508101906110f79190611e6f565b9096509050808611156111115761110e8187611edf565b95505b61111e8a8a8a87876114d0565b9550505050509450945094915050565b6060838101516080808601516040805160016020820152808201949094528385019190915280518084039094018452910190526000908190819084156111fe57670de0b6b3a7640000876080015188606001518960a00151886111919190611e93565b61119b9190611e93565b6111a59190611eaa565b6111af9190611eaa565b9150858211156040518060400160405280601081526020016f54532d392077726f6e672076616c756560801b815250906111fc5760405162461bcd60e51b81526004016100cd9190611ca4565b505b6020870151611219906112118489611edf565b8951516116b5565b739D12c2Ab7BdB3743247AbE5c65cD4A7463B4Ef4B63ca27d10d886000015160000151838a602001518b60400151878c6112539190611edf565b8d60c001516040518763ffffffff1660e01b815260040161127996959493929190611ef2565b6040805180830381865af4158015611295573d6000803e3d6000fd5b505050506040513d601f19601f820116820180604052508101906112b99190611e6f565b935093505050935093915050565b60008060008560200151876101400151815181106112e7576112e7611ccd565b602002602001015186600001518861012001518151811061130a5761130a611ccd565b602002602001015187602001518961012001518151811061132d5761132d611ccd565b602002602001015188600001518a61014001518151811061135057611350611ccd565b6020026020010151876113639190611e93565b61136d9190611e93565b6113779190611eaa565b6113819190611eaa565b9050620186a061139361012c82611ecc565b61139d9083611e93565b6113a79190611eaa565b90508085116040518060400160405280601781526020017654532d37206e6f7420656e6f7567682062616c616e636560481b815250906113fa5760405162461bcd60e51b81526004016100cd9190611ca4565b5086518051602091820151918901516040808b015160c08c01519151637de8f56960e01b81526001600160a01b03948516600482015294841660248601529183166044850152911660648301526084820183905261012c60a483015260c4820152600060e4820152739D12c2Ab7BdB3743247AbE5c65cD4A7463B4Ef4B90637de8f56990610104016040805180830381865af415801561149e573d6000803e3d6000fd5b505050506040513d601f19601f820116820180604052508101906114c29190611e6f565b909890975095505050505050565b600080606484106116ab576114ef6001600160a01b038616888661175b565b6040516314b685e960e21b81526001600160a01b038781166004830152868116602483015260448201869052306064830152600091908916906352da17a4906084016080604051808303816000875af1158015611550573d6000803e3d6000fd5b505050506040513d601f19601f820116820180604052508101906115749190611f3a565b5050604080516001600160a01b03808c1682528a1660208201529081018890523060608201526080810183905260a0810182905291945091507f1d1ba11e7ca20f5dc77d8cfd75b68d11520677808f89f6ba0f0e50dc52c450129060c00160405180910390a16040516370a0823160e01b81523060048201526000906001600160a01b038816906370a0823190602401602060405180830381865afa158015611621573d6000803e3d6000fd5b505050506040513d601f19601f820116820180604052508101906116459190611e2c565b905080851161165557600061165f565b61165f8186611edf565b60408051808201909152600f81526e53423a2057726f6e672076616c756560881b602082015290935082156116a75760405162461bcd60e51b81526004016100cd9190611ca4565b5050505b9550959350505050565b604051636eb1769f60e11b81523060048201526001600160a01b03828116602483015283919085169063dd62ed3e90604401602060405180830381865afa158015611704573d6000803e3d6000fd5b505050506040513d601f19601f820116820180604052508101906117289190611e2c565b101561071c576117436001600160a01b0384168260006117be565b61071c6001600160a01b03841682600160ff1b6117be565b6040516001600160a01b03831660248201526044810182905261071c90849063a9059cbb60e01b906064015b60408051601f198184030181529190526020810180516001600160e01b03166001600160e01b0319909316929092179091526118d3565b8015806118385750604051636eb1769f60e11b81523060048201526001600160a01b03838116602483015284169063dd62ed3e90604401602060405180830381865afa158015611812573d6000803e3d6000fd5b505050506040513d601f19601f820116820180604052508101906118369190611e2c565b155b6118a35760405162461bcd60e51b815260206004820152603660248201527f5361666545524332303a20617070726f76652066726f6d206e6f6e2d7a65726f60448201527520746f206e6f6e2d7a65726f20616c6c6f77616e636560501b60648201526084016100cd565b6040516001600160a01b03831660248201526044810182905261071c90849063095ea7b360e01b90606401611787565b6000611928826040518060400160405280602081526020017f5361666545524332303a206c6f772d6c6576656c2063616c6c206661696c6564815250856001600160a01b03166119a59092919063ffffffff16565b80519091501561071c57808060200190518101906119469190611f70565b61071c5760405162461bcd60e51b815260206004820152602a60248201527f5361666545524332303a204552433230206f7065726174696f6e20646964206e6044820152691bdd081cdd58d8d9595960b21b60648201526084016100cd565b60606119b484846000856119bc565b949350505050565b606082471015611a1d5760405162461bcd60e51b815260206004820152602660248201527f416464726573733a20696e73756666696369656e742062616c616e636520666f6044820152651c8818d85b1b60d21b60648201526084016100cd565b600080866001600160a01b03168587604051611a399190611f92565b60006040518083038185875af1925050503d8060008114611a76576040519150601f19603f3d011682016040523d82523d6000602084013e611a7b565b606091505b5091509150611a8c87838387611a97565b979650505050505050565b60608315611b06578251600003611aff576001600160a01b0385163b611aff5760405162461bcd60e51b815260206004820152601d60248201527f416464726573733a2063616c6c20746f206e6f6e2d636f6e747261637400000060448201526064016100cd565b50816119b4565b6119b48383815115611b1b5781518083602001fd5b8060405162461bcd60e51b81526004016100cd9190611ca4565b60405180610160016040528060006001600160a01b0316815260200160006001600160a01b03168152602001600081526020016000815260200160008152602001611b93604051806040016040528060608152602001606081525090565b815260200160008152602001600081526020016000815260200160008152602001600081525090565b6001600160a01b0381168114611bd157600080fd5b50565b600080600080600080600080610100898b031215611bf157600080fd5b8835611bfc81611bbc565b97506020890135611c0c81611bbc565b96506040890135611c1c81611bbc565b95506060890135611c2c81611bbc565b979a969950949760808101359660a0820135965060c0820135955060e0909101359350915050565b60005b83811015611c6f578181015183820152602001611c57565b50506000910152565b60008151808452611c90816020860160208601611c54565b601f01601f19169290920160200192915050565b602081526000610f656020830184611c78565b634e487b7160e01b600052604160045260246000fd5b634e487b7160e01b600052603260045260246000fd5b600060208284031215611cf557600080fd5b8151610f6581611bbc565b600060208284031215611d1257600080fd5b815160ff81168114610f6557600080fd5b634e487b7160e01b600052601160045260246000fd5b600181815b80851115611d74578160001904821115611d5a57611d5a611d23565b80851615611d6757918102915b93841c9390800290611d3e565b509250929050565b600082611d8b57506001610325565b81611d9857506000610325565b8160018114611dae5760028114611db857611dd4565b6001915050610325565b60ff841115611dc957611dc9611d23565b50506001821b610325565b5060208310610133831016604e8410600b8410161715611df7575081810a610325565b611e018383611d39565b8060001904821115611e1557611e15611d23565b029392505050565b6000610f6560ff841683611d7c565b600060208284031215611e3e57600080fd5b5051919050565b6001600160a01b039485168152928416602084015292166040820152901515606082015260800190565b60008060408385031215611e8257600080fd5b505080516020909101519092909150565b808202811582820484141761032557610325611d23565b600082611ec757634e487b7160e01b600052601260045260246000fd5b500490565b8082018082111561032557610325611d23565b8181038181111561032557610325611d23565b600060018060a01b03808916835260c06020840152611f1460c0840189611c78565b9681166040840152949094166060820152608081019290925260a0909101525092915050565b60008060008060808587031215611f5057600080fd5b505082516020840151604085015160609095015191969095509092509050565b600060208284031215611f8257600080fd5b81518015158114610f6557600080fd5b60008251611fa4818460208701611c54565b919091019291505056fea2646970667358221220c384339e790d332a0318cd79cf3dad39de879bfd0a2c5f581f590767aebc2b6b64736f6c63430008110033",
  "deployedBytecode": "0x73000000000000000000000000000000000000000030146080604052600436106100405760003560e01c806343f8b62c14610045578063d0c9e36314610067575b600080fd5b81801561005157600080fd5b50610065610060366004611bd4565b610088565b005b610076670de0b6b3a764000081565b60405190815260200160405180910390f35b60408051808201909152601081526f54532d3234207a65726f2076616c756560801b6020820152846100d65760405162461bcd60e51b81526004016100cd9190611ca4565b60405180910390fd5b5060408051808201909152601481527354532d333220746f6f20686967682076616c756560601b6020820152670de0b6b3a7640000851061012a5760405162461bcd60e51b81526004016100cd9190611ca4565b50610133611b35565b6001600160a01b038088168252861660208201526040810185905260608101849052608081018390526101408101829052600061016f8a610260565b604080516002808252606082018352929350600092909160208301908036833701905050905088816000815181106101a9576101a9611ccd565b60200260200101906001600160a01b031690816001600160a01b03168152505087816001815181106101dd576101dd611ccd565b60200260200101906001600160a01b031690816001600160a01b0316815250506102098282600261032b565b8460a001516000018560a0015160200182905282905250506102538360405180604001604052808e6001600160a01b031681526020018d6001600160a01b0316815250600161052a565b5050505050505050505050565b6000816001600160a01b031663f77c47916040518163ffffffff1660e01b8152600401602060405180830381865afa1580156102a0573d6000803e3d6000fd5b505050506040513d601f19601f820116820180604052508101906102c49190611ce3565b6001600160a01b0316632630c12f6040518163ffffffff1660e01b8152600401602060405180830381865afa158015610301573d6000803e3d6000fd5b505050506040513d601f19601f820116820180604052508101906103259190611ce3565b92915050565b6060808267ffffffffffffffff81111561034757610347611cb7565b604051908082528060200260200182016040528015610370578160200160208202803683370190505b5091508267ffffffffffffffff81111561038c5761038c611cb7565b6040519080825280602002602001820160405280156103b5578160200160208202803683370190505b50905060005b83811015610521578481815181106103d5576103d5611ccd565b60200260200101516001600160a01b031663313ce5676040518163ffffffff1660e01b8152600401602060405180830381865afa15801561041a573d6000803e3d6000fd5b505050506040513d601f19601f8201168201806040525081019061043e9190611d00565b61044990600a611e1d565b82828151811061045b5761045b611ccd565b602002602001018181525050856001600160a01b031663b3596f0786838151811061048857610488611ccd565b60200260200101516040518263ffffffff1660e01b81526004016104bb91906001600160a01b0391909116815260200190565b602060405180830381865afa1580156104d8573d6000803e3d6000fd5b505050506040513d601f19601f820116820180604052508101906104fc9190611e2c565b83828151811061050e5761050e611ccd565b60209081029190910101526001016103bb565b50935093915050565b82516040516370a0823160e01b81523060048201526001600160a01b03909116906370a0823190602401602060405180830381865afa158015610571573d6000803e3d6000fd5b505050506040513d601f19601f820116820180604052508101906105959190611e2c565b60c084015260208301516040516370a0823160e01b81523060048201526001600160a01b03909116906370a0823190602401602060405180830381865afa1580156105e4573d6000803e3d6000fd5b505050506040513d601f19601f820116820180604052508101906106089190611e2c565b60e084015281518351602085015160405163dd27ede760e01b81526001600160a01b039093169263dd27ede792610646923092600190600401611e45565b60408051808303816000875af1158015610664573d6000803e3d6000fd5b505050506040513d601f19601f820116820180604052508101906106889190611e6f565b5061010084015281516020840151845160405163dd27ede760e01b81526001600160a01b039093169263dd27ede7926106c8923092600190600401611e45565b60408051808303816000875af11580156106e6573d6000803e3d6000fd5b505050506040513d601f19601f8201168201806040525081019061070a9190611e6f565b5061012084015261071c838383610721565b505050565b60008360a001516020015160008151811061073e5761073e611ccd565b60200260200101518460a001516000015160008151811061076157610761611ccd565b60200260200101518560c001516107789190611e93565b6107829190611eaa565b905060008460a00151602001516001815181106107a1576107a1611ccd565b60200260200101518560a00151600001516001815181106107c4576107c4611ccd565b60200260200101518660e001516107db9190611e93565b6107e59190611eaa565b905060008560a001516020015160008151811061080457610804611ccd565b60200260200101518660a001516000015160008151811061082757610827611ccd565b602002602001015187610140015161083f9190611e93565b6108499190611eaa565b9050806108568385611ecc565b1115610d76576000816108698486611ecc565b6108739190611edf565b9050600082670de0b6b3a76400008960400151846108919190611e93565b61089b9190611eaa565b6108a59190611ecc565b90506000670de0b6b3a76400008960400151670de0b6b3a76400006108ca9190611edf565b6108d49085611e93565b6108de9190611eaa565b905085821115610b2b5760006040518061016001604052808a81526020018b602001516001600160a01b031681526020018b600001516001600160a01b031681526020018b60400151670de0b6b3a764000061093a9190611edf565b81526020018b6040015181526020018b60a001516020015160008151811061096457610964611ccd565b60200260200101518c60a001516000015160018151811061098757610987611ccd565b60200260200101518d60a00151602001516001815181106109aa576109aa611ccd565b60200260200101518e60a00151600001516000815181106109cd576109cd611ccd565b6020026020010151670de0b6b3a76400006109e89190611e93565b6109f29190611e93565b6109fc9190611eaa565b610a069190611eaa565b81526020018b608001518152602001600081526020018b61014001518152602001600181526020016000815250905060648a610100015110610b0a576040805180820190915260118152701514cb4c8cc81b9bdd08185b1b1bddd959607a1b602082015288610a885760405162461bcd60e51b81526004016100cd9190611ca4565b5060008a60a0015160000151600081518110610aa657610aa6611ccd565b60200260200101518b60a0015160200151600081518110610ac957610ac9611ccd565b60200260200101518986610add9190611edf565b610ae79190611e93565b610af19190611eaa565b9050610b048b83838e6101000151610d7e565b50610b25565b610b22818b60a001518c60e001518d60c00151610de7565b50505b50610d72565b85821015610d725760006040518061016001604052808a81526020018b600001516001600160a01b031681526020018b602001516001600160a01b031681526020018b6040015181526020018b60400151670de0b6b3a7640000610b8f9190611edf565b81526020018b60a0015160200151600181518110610baf57610baf611ccd565b60200260200101518c60a0015160000151600081518110610bd257610bd2611ccd565b60200260200101518d60a0015160200151600081518110610bf557610bf5611ccd565b60200260200101518e60a0015160000151600181518110610c1857610c18611ccd565b6020026020010151670de0b6b3a7640000610c339190611e93565b610c3d9190611e93565b610c479190611eaa565b610c519190611eaa565b81526020018b6060015181526020018b6101400151815260200160008152602001600081526020016001815250905060648a610120015110610d55576040805180820190915260118152701514cb4c8cc81b9bdd08185b1b1bddd959607a1b602082015288610cd35760405162461bcd60e51b81526004016100cd9190611ca4565b5060008a60a0015160000151600181518110610cf157610cf1611ccd565b60200260200101518b60a0015160200151600181518110610d1457610d14611ccd565b60200260200101518885610d289190611edf565b610d329190611e93565b610d3c9190611eaa565b9050610d4f8b83838e6101200151610d7e565b50610d70565b610d6d818b60a001518c60c001518d60e00151610de7565b50505b505b5050505b505050505050565b6000670de0b6b3a76400008460a0015184610d999190611e93565b610da39190611eaa565b90506000610db18284610f54565b905060648110610d765784515160408601516020870151610dd492919084610f6c565b505050610d76868660000151600061052a565b6000808560e0015160001480610e005750610100860151155b6040518060400160405280601381526020017254532d333020696e76616c69642076616c756560681b81525090610e4a5760405162461bcd60e51b81526004016100cd9190611ca4565b5061010086015115610ec5578561010001518310610e8657610e7d868588610100015186610e789190611edf565b61112e565b91509150610f4b565b6000610ea4878787878b6101000151610e9f9190611edf565b6112c7565b509050610ebb87610eb58388611edf565b8661112e565b9250925050610f4b565b60e086015115610f40578560e001518410156040518060400160405280601781526020017654532d37206e6f7420656e6f7567682062616c616e636560481b81525090610f255760405162461bcd60e51b81526004016100cd9190611ca4565b50610e7d868760e0015186610f3a9190611edf565b8561112e565b610e7d86858561112e565b94509492505050565b6000818310610f635781610f65565b825b9392505050565b6040516370a0823160e01b81523060048201526000908190819081906001600160a01b038716906370a0823190602401602060405180830381865afa158015610fb9573d6000803e3d6000fd5b505050506040513d601f19601f82011682018060405250810190610fdd9190611e2c565b90506000886001600160a01b031663dd27ede7308a8a60016040518563ffffffff1660e01b81526004016110149493929190611e45565b60408051808303816000875af1158015611032573d6000803e3d6000fd5b505050506040513d601f19601f820116820180604052508101906110569190611e6f565b509050611071818710611069578161106b565b865b83610f54565b60405163667df24960e01b81523060048201526001600160a01b038a811660248301528981166044830152606482018390529194506000918b169063667df2499060840160408051808303816000875af11580156110d3573d6000803e3d6000fd5b505050506040513d601f19601f820116820180604052508101906110f79190611e6f565b9096509050808611156111115761110e8187611edf565b95505b61111e8a8a8a87876114d0565b9550505050509450945094915050565b6060838101516080808601516040805160016020820152808201949094528385019190915280518084039094018452910190526000908190819084156111fe57670de0b6b3a7640000876080015188606001518960a00151886111919190611e93565b61119b9190611e93565b6111a59190611eaa565b6111af9190611eaa565b9150858211156040518060400160405280601081526020016f54532d392077726f6e672076616c756560801b815250906111fc5760405162461bcd60e51b81526004016100cd9190611ca4565b505b6020870151611219906112118489611edf565b8951516116b5565b73__$e930d50fb5f4f1298547dbcb2bb0591990$__63ca27d10d886000015160000151838a602001518b60400151878c6112539190611edf565b8d60c001516040518763ffffffff1660e01b815260040161127996959493929190611ef2565b6040805180830381865af4158015611295573d6000803e3d6000fd5b505050506040513d601f19601f820116820180604052508101906112b99190611e6f565b935093505050935093915050565b60008060008560200151876101400151815181106112e7576112e7611ccd565b602002602001015186600001518861012001518151811061130a5761130a611ccd565b602002602001015187602001518961012001518151811061132d5761132d611ccd565b602002602001015188600001518a61014001518151811061135057611350611ccd565b6020026020010151876113639190611e93565b61136d9190611e93565b6113779190611eaa565b6113819190611eaa565b9050620186a061139361012c82611ecc565b61139d9083611e93565b6113a79190611eaa565b90508085116040518060400160405280601781526020017654532d37206e6f7420656e6f7567682062616c616e636560481b815250906113fa5760405162461bcd60e51b81526004016100cd9190611ca4565b5086518051602091820151918901516040808b015160c08c01519151637de8f56960e01b81526001600160a01b03948516600482015294841660248601529183166044850152911660648301526084820183905261012c60a483015260c4820152600060e482015273__$e930d50fb5f4f1298547dbcb2bb0591990$__90637de8f56990610104016040805180830381865af415801561149e573d6000803e3d6000fd5b505050506040513d601f19601f820116820180604052508101906114c29190611e6f565b909890975095505050505050565b600080606484106116ab576114ef6001600160a01b038616888661175b565b6040516314b685e960e21b81526001600160a01b038781166004830152868116602483015260448201869052306064830152600091908916906352da17a4906084016080604051808303816000875af1158015611550573d6000803e3d6000fd5b505050506040513d601f19601f820116820180604052508101906115749190611f3a565b5050604080516001600160a01b03808c1682528a1660208201529081018890523060608201526080810183905260a0810182905291945091507f1d1ba11e7ca20f5dc77d8cfd75b68d11520677808f89f6ba0f0e50dc52c450129060c00160405180910390a16040516370a0823160e01b81523060048201526000906001600160a01b038816906370a0823190602401602060405180830381865afa158015611621573d6000803e3d6000fd5b505050506040513d601f19601f820116820180604052508101906116459190611e2c565b905080851161165557600061165f565b61165f8186611edf565b60408051808201909152600f81526e53423a2057726f6e672076616c756560881b602082015290935082156116a75760405162461bcd60e51b81526004016100cd9190611ca4565b5050505b9550959350505050565b604051636eb1769f60e11b81523060048201526001600160a01b03828116602483015283919085169063dd62ed3e90604401602060405180830381865afa158015611704573d6000803e3d6000fd5b505050506040513d601f19601f820116820180604052508101906117289190611e2c565b101561071c576117436001600160a01b0384168260006117be565b61071c6001600160a01b03841682600160ff1b6117be565b6040516001600160a01b03831660248201526044810182905261071c90849063a9059cbb60e01b906064015b60408051601f198184030181529190526020810180516001600160e01b03166001600160e01b0319909316929092179091526118d3565b8015806118385750604051636eb1769f60e11b81523060048201526001600160a01b03838116602483015284169063dd62ed3e90604401602060405180830381865afa158015611812573d6000803e3d6000fd5b505050506040513d601f19601f820116820180604052508101906118369190611e2c565b155b6118a35760405162461bcd60e51b815260206004820152603660248201527f5361666545524332303a20617070726f76652066726f6d206e6f6e2d7a65726f60448201527520746f206e6f6e2d7a65726f20616c6c6f77616e636560501b60648201526084016100cd565b6040516001600160a01b03831660248201526044810182905261071c90849063095ea7b360e01b90606401611787565b6000611928826040518060400160405280602081526020017f5361666545524332303a206c6f772d6c6576656c2063616c6c206661696c6564815250856001600160a01b03166119a59092919063ffffffff16565b80519091501561071c57808060200190518101906119469190611f70565b61071c5760405162461bcd60e51b815260206004820152602a60248201527f5361666545524332303a204552433230206f7065726174696f6e20646964206e6044820152691bdd081cdd58d8d9595960b21b60648201526084016100cd565b60606119b484846000856119bc565b949350505050565b606082471015611a1d5760405162461bcd60e51b815260206004820152602660248201527f416464726573733a20696e73756666696369656e742062616c616e636520666f6044820152651c8818d85b1b60d21b60648201526084016100cd565b600080866001600160a01b03168587604051611a399190611f92565b60006040518083038185875af1925050503d8060008114611a76576040519150601f19603f3d011682016040523d82523d6000602084013e611a7b565b606091505b5091509150611a8c87838387611a97565b979650505050505050565b60608315611b06578251600003611aff576001600160a01b0385163b611aff5760405162461bcd60e51b815260206004820152601d60248201527f416464726573733a2063616c6c20746f206e6f6e2d636f6e747261637400000060448201526064016100cd565b50816119b4565b6119b48383815115611b1b5781518083602001fd5b8060405162461bcd60e51b81526004016100cd9190611ca4565b60405180610160016040528060006001600160a01b0316815260200160006001600160a01b03168152602001600081526020016000815260200160008152602001611b93604051806040016040528060608152602001606081525090565b815260200160008152602001600081526020016000815260200160008152602001600081525090565b6001600160a01b0381168114611bd157600080fd5b50565b600080600080600080600080610100898b031215611bf157600080fd5b8835611bfc81611bbc565b97506020890135611c0c81611bbc565b96506040890135611c1c81611bbc565b95506060890135611c2c81611bbc565b979a969950949760808101359660a0820135965060c0820135955060e0909101359350915050565b60005b83811015611c6f578181015183820152602001611c57565b50506000910152565b60008151808452611c90816020860160208601611c54565b601f01601f19169290920160200192915050565b602081526000610f656020830184611c78565b634e487b7160e01b600052604160045260246000fd5b634e487b7160e01b600052603260045260246000fd5b600060208284031215611cf557600080fd5b8151610f6581611bbc565b600060208284031215611d1257600080fd5b815160ff81168114610f6557600080fd5b634e487b7160e01b600052601160045260246000fd5b600181815b80851115611d74578160001904821115611d5a57611d5a611d23565b80851615611d6757918102915b93841c9390800290611d3e565b509250929050565b600082611d8b57506001610325565b81611d9857506000610325565b8160018114611dae5760028114611db857611dd4565b6001915050610325565b60ff841115611dc957611dc9611d23565b50506001821b610325565b5060208310610133831016604e8410600b8410161715611df7575081810a610325565b611e018383611d39565b8060001904821115611e1557611e15611d23565b029392505050565b6000610f6560ff841683611d7c565b600060208284031215611e3e57600080fd5b5051919050565b6001600160a01b039485168152928416602084015292166040820152901515606082015260800190565b60008060408385031215611e8257600080fd5b505080516020909101519092909150565b808202811582820484141761032557610325611d23565b600082611ec757634e487b7160e01b600052601260045260246000fd5b500490565b8082018082111561032557610325611d23565b8181038181111561032557610325611d23565b600060018060a01b03808916835260c06020840152611f1460c0840189611c78565b9681166040840152949094166060820152608081019290925260a0909101525092915050565b60008060008060808587031215611f5057600080fd5b505082516020840151604085015160609095015191969095509092509050565b600060208284031215611f8257600080fd5b81518015158114610f6557600080fd5b60008251611fa4818460208701611c54565b919091019291505056fea2646970667358221220c384339e790d332a0318cd79cf3dad39de879bfd0a2c5f581f590767aebc2b6b64736f6c63430008110033",
  "libraries": {
    "ConverterStrategyBaseLib": "0x9D12c2Ab7BdB3743247AbE5c65cD4A7463B4Ef4B"
  },
  "devdoc": {
    "details": "Swap through liquidator is still allowed to be able to get required profitToCover, but this amount is small",
    "kind": "dev",
    "methods": {
      "rebalanceAssets(ITetuConverter,ITetuLiquidator,address,address,uint256,uint256,uint256,uint256)": {
        "params": {
          "addition0": "Additional amount A0 of {asset0}.                  Balance0 = A0 + B0                  We need following balances in results: B0 : Balance1 === {proportion}:{100_000-proportion}",
          "prop0": "Proportion of {asset0}, > 0. Proportion of {asset1} is calculates as 1e18 - prop0",
          "threshold0": "Min allowed amount of {asset0}-collateral, 0 - use default min value",
          "threshold1": "Min allowed amount of {asset1}-collateral, 0 - use default min value"
        }
      }
    },
    "version": 1
  },
  "userdoc": {
    "kind": "user",
    "methods": {
      "SUM_PROPORTIONS()": {
        "notice": "prop0 + prop1"
      },
      "rebalanceAssets(ITetuConverter,ITetuLiquidator,address,address,uint256,uint256,uint256,uint256)": {
        "notice": "Set balances of {asset0} and {asset1} in proportions {prop0}:{prop1} using borrow/repay (no swaps)"
      }
    },
    "notice": "Library to make new borrow, extend/reduce exist borrows and repay to keep proper assets proportions",
    "version": 1
  },
  "storageLayout": {
    "storage": [],
    "types": null
  }
}