{
  "address": "0x301Be1652dC990D0237140797b3a71110C6131c8",
  "abi": [
    {
      "anonymous": false,
      "inputs": [
        {
          "indexed": false,
          "internalType": "address",
          "name": "collateralAsset",
          "type": "address"
        },
        {
          "indexed": false,
          "internalType": "address",
          "name": "borrowAsset",
          "type": "address"
        },
        {
          "indexed": false,
          "internalType": "uint256",
          "name": "amountRepay",
          "type": "uint256"
        },
        {
          "indexed": false,
          "internalType": "address",
          "name": "recepient",
          "type": "address"
        },
        {
          "indexed": false,
          "internalType": "uint256",
          "name": "returnedAssetAmountOut",
          "type": "uint256"
        },
        {
          "indexed": false,
          "internalType": "uint256",
          "name": "returnedBorrowAmountOut",
          "type": "uint256"
        }
      ],
      "name": "ClosePosition",
      "type": "event"
    },
    {
      "anonymous": false,
      "inputs": [
        {
          "indexed": false,
          "internalType": "address",
          "name": "tokenIn",
          "type": "address"
        },
        {
          "indexed": false,
          "internalType": "address",
          "name": "tokenOut",
          "type": "address"
        },
        {
          "indexed": false,
          "internalType": "uint256",
          "name": "amountIn",
          "type": "uint256"
        },
        {
          "indexed": false,
          "internalType": "uint256",
          "name": "spentAmountIn",
          "type": "uint256"
        },
        {
          "indexed": false,
          "internalType": "uint256",
          "name": "receivedAmountOut",
          "type": "uint256"
        }
      ],
      "name": "Liquidation",
      "type": "event"
    },
    {
      "anonymous": false,
      "inputs": [
        {
          "indexed": false,
          "internalType": "address",
          "name": "converter",
          "type": "address"
        },
        {
          "indexed": false,
          "internalType": "address",
          "name": "collateralAsset",
          "type": "address"
        },
        {
          "indexed": false,
          "internalType": "uint256",
          "name": "collateralAmount",
          "type": "uint256"
        },
        {
          "indexed": false,
          "internalType": "address",
          "name": "borrowAsset",
          "type": "address"
        },
        {
          "indexed": false,
          "internalType": "uint256",
          "name": "borrowedAmount",
          "type": "uint256"
        },
        {
          "indexed": false,
          "internalType": "address",
          "name": "recepient",
          "type": "address"
        }
      ],
      "name": "OpenPosition",
      "type": "event"
    },
    {
      "inputs": [
        {
          "internalType": "contract ITetuConverter",
          "name": "converter",
          "type": "ITetuConverter"
        },
        {
          "internalType": "address",
          "name": "token",
          "type": "address"
        }
      ],
      "name": "getAssetPriceFromConverter",
      "outputs": [
        {
          "internalType": "uint256",
          "name": "",
          "type": "uint256"
        }
      ],
      "stateMutability": "view",
      "type": "function"
    },
    {
      "inputs": [
        {
          "internalType": "address[]",
          "name": "tokens_",
          "type": "address[]"
        },
        {
          "internalType": "uint256",
          "name": "indexAsset",
          "type": "uint256"
        }
      ],
      "name": "getAvailableBalances",
      "outputs": [
        {
          "internalType": "uint256[]",
          "name": "",
          "type": "uint256[]"
        }
      ],
      "stateMutability": "view",
      "type": "function"
    },
    {
      "inputs": [
        {
          "internalType": "uint256",
          "name": "amount_",
          "type": "uint256"
        },
        {
          "internalType": "address[]",
          "name": "tokens_",
          "type": "address[]"
        },
        {
          "internalType": "uint256[]",
          "name": "weights_",
          "type": "uint256[]"
        },
        {
          "internalType": "uint256",
          "name": "totalWeight_",
          "type": "uint256"
        },
        {
          "internalType": "uint256",
          "name": "indexAsset_",
          "type": "uint256"
        },
        {
          "internalType": "contract IPriceOracle",
          "name": "priceOracle",
          "type": "IPriceOracle"
        }
      ],
      "name": "getCollaterals",
      "outputs": [
        {
          "internalType": "uint256[]",
          "name": "tokenAmountsOut",
          "type": "uint256[]"
        }
      ],
      "stateMutability": "view",
      "type": "function"
    }
  ],
  "transactionHash": "0xecedd73037fe324f645fe2217fed16fa6b1a2fbd26d38de367044dd1e8fdf80d",
  "args": [],
  "numDeployments": 1,
  "solcInputHash": "c59f7e8a32e735828e193e20f2f070bc",
  "bytecode": "0x615e706200003b600b82828239805160001a60731461002e57634e487b7160e01b600052600060045260246000fd5b30600052607381538281f3fe73000000000000000000000000000000000000000030146080604052600436106101155760003560e01c80637a55caf3116100ac578063acf741a31161007b578063acf741a3146102f4578063bc846df214610316578063ca27d10d14610344578063d361fe1214610364578063e89a4b181461038457600080fd5b80637a55caf31461027957806385f3ecac1461028c578063954d7e73146102ac57806397783a6c146102e157600080fd5b806359d0ede6116100e857806359d0ede6146101dd5780636e32b87b146101fd5780637047292d1461022b578063749e2cd11461024b57600080fd5b80630f5103ff1461011a5780631a2221c714610152578063205810a61461018157806323744915146101af575b600080fd5b81801561012657600080fd5b5061013a610135366004614b2e565b6103a4565b60405161014993929190614c2f565b60405180910390f35b81801561015e57600080fd5b5061017261016d366004614c72565b6103cd565b60405161014993929190614cf9565b81801561018d57600080fd5b506101a161019c366004614d2f565b6106da565b604051610149929190614dac565b8180156101bb57600080fd5b506101cf6101ca366004614e02565b610875565b604051610149929190614ef1565b6101f06101eb366004614f0a565b61091e565b6040516101499190614f9d565b81801561020957600080fd5b5061021d610218366004614fb0565b610b62565b604051908152602001610149565b81801561023757600080fd5b506101cf610246366004615037565b611078565b81801561025757600080fd5b5061026b6102663660046150d1565b6113ed565b604051610149929190615198565b61021d6102873660046151bd565b6116ad565b81801561029857600080fd5b5061026b6102a73660046151f6565b6117e7565b8180156102b857600080fd5b506102cc6102c7366004615275565b611991565b60408051928352602083019190915201610149565b6101f06102ef3660046152c6565b6119ae565b81801561030057600080fd5b5061031461030f36600461530a565b611ac1565b005b81801561032257600080fd5b5061033661033136600461533b565b611c4c565b6040516101499291906153e1565b81801561035057600080fd5b506102cc61035f36600461542a565b611c68565b81801561037057600080fd5b506101cf61037f3660046154ea565b611c88565b81801561039057600080fd5b506102cc61039f36600461557c565b611f5e565b60608060606103b98b8b8b8b89898d8d611f6f565b919d909c50909a5098505050505050505050565b60608060008087519050806001600160401b038111156103ef576103ef6149ce565b604051908082528060200260200182016040528015610418578160200160208202803683370190505b509250806001600160401b03811115610433576104336149ce565b60405190808252806020026020018201604052801561045c578160200160208202803683370190505b50935060005b818110156106cd578781036104ae57868181518110610483576104836155e1565b602002602001015185828151811061049d5761049d6155e1565b6020026020010181815250506106c5565b60008782815181106104c2576104c26155e1565b6020026020010151111561062057600061050f8a8a815181106104e7576104e76155e1565b6020026020010151898481518110610501576105016155e1565b60200260200101518d6123d7565b6105778b604051806020016040528060008152508c8c81518110610535576105356155e1565b60200260200101518d868151811061054f5761054f6155e1565b60200260200101518c8781518110610569576105696155e1565b60200260200101518c612482565b868481518110610589576105896155e1565b602090810291909101015290506105a0818561560d565b93508482815181106105b4576105b46155e1565b6020026020010151600014156040518060400160405280601a81526020017f54532d3130207a65726f20626f72726f77656420616d6f756e740000000000008152509061061d5760405162461bcd60e51b81526004016106149190615670565b60405180910390fd5b50505b888181518110610632576106326155e1565b60200260200101516001600160a01b03166370a08231306040518263ffffffff1660e01b81526004016106659190615683565b602060405180830381865afa158015610682573d6000803e3d6000fd5b505050506040513d601f19601f820116820180604052508101906106a69190615697565b8582815181106106b8576106b86155e1565b6020026020010181815250505b600101610462565b5050955095509592505050565b606080600080876001600160a01b031663ef5cfb8c306040518263ffffffff1660e01b815260040161070c9190615683565b6000604051808303816000875af115801561072b573d6000803e3d6000fd5b505050506040513d6000823e601f3d908101601f19168201604052610753919081019061576f565b9150915061076387878484612941565b8151919550935060005b818110156108685786600087838151811061078a5761078a6155e1565b60200260200101516001600160a01b03166001600160a01b03168152602001908152602001600020548682815181106107c5576107c56155e1565b60200260200101516001600160a01b03166370a08231306040518263ffffffff1660e01b81526004016107f89190615683565b602060405180830381865afa158015610815573d6000803e3d6000fd5b505050506040513d601f19601f820116820180604052508101906108399190615697565b61084391906157d2565b858281518110610855576108556155e1565b602090810291909101015260010161076d565b5050505094509492505050565b6000606081610884858d6157d2565b9050808b111561089257809a505b600061089f8e8d8d612e1a565b905060006108b08a8a8a858f612f29565b905060005b8a51811015610909578681815181106108d0576108d06155e1565b60200260200101518c82815181106108ea576108ea6155e1565b602002602001018181516108fe919061560d565b9052506001016108b5565b509e999d50989b505050505050505050505050565b8451606090806001600160401b0381111561093b5761093b6149ce565b604051908082528060200260200182016040528015610964578160200160208202803683370190505b509150600080610975858a85613093565b9150915060005b83811015610b54576000888a8381518110610999576109996155e1565b60200260200101518d6109ac91906157e5565b6109b691906157fc565b90508782036109e357808683815181106109d2576109d26155e1565b602002602001018181525050610b4b565b60008389815181106109f7576109f76155e1565b6020026020010151858481518110610a1157610a116155e1565b6020026020010151858581518110610a2b57610a2b6155e1565b6020026020010151878c81518110610a4557610a456155e1565b602002602001015185610a5891906157e5565b610a6291906157e5565b610a6c91906157fc565b610a7691906157fc565b905060008c8481518110610a8c57610a8c6155e1565b60200260200101516001600160a01b03166370a08231306040518263ffffffff1660e01b8152600401610abf9190615683565b602060405180830381865afa158015610adc573d6000803e3d6000fd5b505050506040513d601f19601f82011682018060405250810190610b009190615697565b905081811015610b485781610b1582826157d2565b610b1f90856157e5565b610b2991906157fc565b888581518110610b3b57610b3b6155e1565b6020026020010181815250505b50505b5060010161097c565b505050509695505050505050565b6000610b8f6040518060800160405280600081526020016060815260200160608152602001606081525090565b8651816000018181525050610c69846001600160a01b031663f77c47916040518163ffffffff1660e01b8152600401602060405180830381865afa158015610bdb573d6000803e3d6000fd5b505050506040513d601f19601f82011682018060405250810190610bff919061581e565b6001600160a01b0316632630c12f6040518163ffffffff1660e01b8152600401602060405180830381865afa158015610c3c573d6000803e3d6000fd5b505050506040513d601f19601f82011682018060405250810190610c60919061581e565b82518990613093565b6040830152602082015260005b8151811015610f4157858103610cb257868181518110610c9857610c986155e1565b602002602001015183610cab919061560d565b9250610f39565b6000878281518110610cc657610cc66155e1565b60200260200101518560008b8581518110610ce357610ce36155e1565b60200260200101516001600160a01b03166001600160a01b0316815260200190815260200160002054610d16919061560d565b9050600080876001600160a01b03166348498f2e308d8c81518110610d3d57610d3d6155e1565b60200260200101518e8881518110610d5757610d576155e1565b60200260200101516040518463ffffffff1660e01b8152600401610d9b939291906001600160a01b0393841681529183166020830152909116604082015260600190565b60408051808303816000875af1158015610db9573d6000803e3d6000fd5b505050506040513d601f19601f82011682018060405250810190610ddd9190615842565b9092509050610dec818761560d565b9550818310610eb25784604001518481518110610e0b57610e0b6155e1565b602002602001015185602001518a81518110610e2957610e296155e1565b602002602001015186604001518b81518110610e4757610e476155e1565b602002602001015187602001518781518110610e6557610e656155e1565b60200260200101518587610e7991906157d2565b610e8391906157e5565b610e8d91906157e5565b610e9791906157fc565b610ea191906157fc565b610eab908761560d565b9550610f35565b846060015151600003610f085784516001600160401b03811115610ed857610ed86149ce565b604051908082528060200260200182016040528015610f01578160200160208202803683370190505b5060608601525b610f1283836157d2565b85606001518581518110610f2857610f286155e1565b6020026020010181815250505b5050505b600101610c76565b5080516060820151510361106d5760005b815181101561106b5781606001518181518110610f7157610f716155e1565b60200260200101516000031561106357600082604001518281518110610f9957610f996155e1565b602002602001015183602001518881518110610fb757610fb76155e1565b602002602001015184604001518981518110610fd557610fd56155e1565b602002602001015185602001518581518110610ff357610ff36155e1565b602002602001015186606001518681518110611011576110116155e1565b602002602001015161102391906157e5565b61102d91906157e5565b61103791906157fc565b61104191906157fc565b9050838111156110545760009350611061565b61105e81856157d2565b93505b505b600101610f52565b505b505b95945050505050565b600060606110b0604051806080016040528060006001600160a01b031681526020016000815260200160008152602001600081525090565b8585815181106110c2576110c26155e1565b60209081029190910101516001600160a01b031681528551806001600160401b038111156110f2576110f26149ce565b60405190808252806020026020018201604052801561111b578160200160208202803683370190505b50925060005b818110156111b4578087146111ac576111728b84600001518a848151811061114b5761114b6155e1565b6020026020010151898581518110611165576111656155e1565b6020026020010151613281565b84602001868481518110611188576111886155e1565b60200260200101828152508281525050508260200151856111a9919061560d565b94505b600101611121565b5060005b818110156113de578087146113d6578381815181106111d9576111d96155e1565b60200260200101518682815181106111f3576111f36155e1565b602002602001015111156113d65761126b8a898381518110611217576112176155e1565b60200260200101518560000151878581518110611236576112366155e1565b60200260200101518a8681518110611250576112506155e1565b602002602001015161126291906157d2565b61012c8e613569565b6060850181905260408501919091521561129157606083015161128e908661560d565b94505b6040830151156113d65782604001518482815181106112b2576112b26155e1565b602002602001018181516112c6919061560d565b915081815250508a6001600160a01b031663291f89c48983815181106112ee576112ee6155e1565b60209081029190910101516040808701518751606089015192516001600160e01b031960e087901b1681526001600160a01b0394851660048201526024810192909252929092166044830152606482015261012c608482015260a401602060405180830381865afa158015611367573d6000803e3d6000fd5b505050506040513d601f19601f8201168201806040525081019061138b9190615866565b604051806040016040528060128152602001711514cb4c4d881c1c9a58d9481a5b5c1858dd60721b815250906113d45760405162461bcd60e51b81526004016106149190615670565b505b6001016111b8565b5050505b965096945050505050565b60608061141b6040518060800160405280600081526020016060815260200160608152602001600081525090565b8b518082526001600160401b03811115611437576114376149ce565b604051908082528060200260200182016040528015611460578160200160208202803683370190505b5081519093506001600160401b0381111561147d5761147d6149ce565b6040519080825280602002602001820160405280156114a6578160200160208202803683370190505b5081519092506001600160401b038111156114c3576114c36149ce565b6040519080825280602002602001820160405280156114ec578160200160208202803683370190505b5060208201525b80516060820151101561159f578360008d836060015181518110611519576115196155e1565b60200260200101516001600160a01b03166001600160a01b031681526020019081526020016000205489826060015181518110611558576115586155e1565b602002602001015161156a919061560d565b8160200151826060015181518110611584576115846155e1565b602090810291909101015260608101805160010190526114f3565b6116066040518061012001604052808f81526020018e81526020018d81526020018c6001600160a01b03168152602001836020015181526020018a6001600160a01b03168152602001896001600160a01b0316815260200188815260200187815250613894565b60408301526000606083015292505b80516060820151101561169d57806040015181606001518151811061163c5761163c6155e1565b60200260200101518982606001518151811061165a5761165a6155e1565b602002602001015161166c919061560d565b82826060015181518110611682576116826155e1565b60209081029190910101526060810180516001019052611615565b509a509a98505050505050505050565b6000826001600160a01b031663f77c47916040518163ffffffff1660e01b8152600401602060405180830381865afa1580156116ed573d6000803e3d6000fd5b505050506040513d601f19601f82011682018060405250810190611711919061581e565b6001600160a01b0316632630c12f6040518163ffffffff1660e01b8152600401602060405180830381865afa15801561174e573d6000803e3d6000fd5b505050506040513d601f19601f82011682018060405250810190611772919061581e565b6001600160a01b031663b3596f07836040518263ffffffff1660e01b815260040161179d9190615683565b602060405180830381865afa1580156117ba573d6000803e3d6000fd5b505050506040513d601f19601f820116820180604052508101906117de9190615697565b90505b92915050565b80516060908190806001600160401b03811115611806576118066149ce565b60405190808252806020026020018201604052801561182f578160200160208202803683370190505b509250806001600160401b0381111561184a5761184a6149ce565b604051908082528060200260200182016040528015611873578160200160208202803683370190505b50915060005b8181101561198657620186a088868381518110611898576118986155e1565b60200260200101516118aa91906157e5565b6118b491906157fc565b8382815181106118c6576118c66155e1565b6020026020010181815250508281815181106118e4576118e46155e1565b60200260200101518582815181106118fe576118fe6155e1565b602002602001015161191091906157d2565b848281518110611922576119226155e1565b60200260200101818152505061197e87848381518110611944576119446155e1565b602002602001015188848151811061195e5761195e6155e1565b60200260200101516001600160a01b0316613c1f9092919063ffffffff16565b600101611879565b505094509492505050565b6000806119a086868686613281565b915091505b94509492505050565b81516060906000816001600160401b038111156119cd576119cd6149ce565b6040519080825280602002602001820160405280156119f6578160200160208202803683370190505b50905060005b82811015611ab857808514611ab057858181518110611a1d57611a1d6155e1565b60200260200101516001600160a01b03166370a08231306040518263ffffffff1660e01b8152600401611a509190615683565b602060405180830381865afa158015611a6d573d6000803e3d6000fd5b505050506040513d601f19601f82011682018060405250810190611a919190615697565b828281518110611aa357611aa36155e1565b6020026020010181815250505b6001016119fc565b50949350505050565b6000825190506000856001600160a01b031663f645d4f96040518163ffffffff1660e01b8152600401602060405180830381865afa158015611b07573d6000803e3d6000fd5b505050506040513d601f19601f82011682018060405250810190611b2b919061581e565b905060005b82811015611b7d57611b75858281518110611b4d57611b4d6155e1565b6020026020010151858381518110611b6757611b676155e1565b6020026020010151846123d7565b600101611b30565b50806001600160a01b0316637e0ddbef8585886001600160a01b031663fbfa77cf6040518163ffffffff1660e01b8152600401602060405180830381865afa158015611bcd573d6000803e3d6000fd5b505050506040513d601f19601f82011682018060405250810190611bf1919061581e565b60016040518563ffffffff1660e01b8152600401611c129493929190615888565b600060405180830381600087803b158015611c2c57600080fd5b505af1158015611c40573d6000803e3d6000fd5b50505050505050505050565b816000611c5c8787878587612f29565b90509550959350505050565b600080611c79888888888888612482565b91509150965096945050505050565b84516000906060908a1590806001600160401b03811115611cab57611cab6149ce565b604051908082528060200260200182016040528015611cd4578160200160208202803683370190505b50925060005b81811015611e7a57808914611e725760008c60008c8481518110611d0057611d006155e1565b60200260200101516001600160a01b03166001600160a01b0316815260200190815260200160002054905080600014611e70576000896001600160a01b031663667df2498e8e8e81518110611d5757611d576155e1565b60200260200101518f8781518110611d7157611d716155e1565b60209081029190910101516040516001600160e01b031960e086901b1681526001600160a01b0393841660048201529183166024830152919091166044820152606481018590526084016020604051808303816000875af1158015611dda573d6000803e3d6000fd5b505050506040513d601f19601f82011682018060405250810190611dfe9190615697565b90508480611e0b57508e15155b15611e305781868481518110611e2357611e236155e1565b6020026020010181815250505b808f1115611e4b57808f611e4491906157d2565b9e50611e50565b60009e505b80891115611e6957611e62818a6157d2565b9850611e6e565b600098505b505b505b600101611cda565b508180611e875750600086115b6040518060400160405280601e81526020017f54532d31312074727920746f20776974686472617720746f6f206d756368000081525090611edb5760405162461bcd60e51b81526004016106149190615670565b5081611f1d578b15611f1657606486611efd8e680579a814e10a7400006157e5565b611f0791906157fc565b611f1191906157fc565b611f27565b6000611f27565b670de0b6b3a76400005b93508315611f4f57670de0b6b3a7640000611f4286866157e5565b611f4c91906157fc565b93505b50509850989650505050505050565b600080611c79888888888888613569565b6060806060611fcc604051806101200160405280600081526020016000815260200160006001600160a01b031681526020016000815260200160008152602001600081526020016000815260200160008152602001600081525090565b875160808201819052875160408051808201909152601281527154532d342077726f6e67206c656e6774687360701b6020820152911461201f5760405162461bcd60e51b81526004016106149190615670565b506001600160a01b038c16600090815260208790526040902054606082015260808101516001600160401b0381111561205a5761205a6149ce565b604051908082528060200260200182016040528015612083578160200160208202803683370190505b50915080608001516001612097919061560d565b6001600160401b038111156120ae576120ae6149ce565b6040519080825280602002602001820160405280156120d7578160200160208202803683370190505b50935080608001516001600160401b038111156120f6576120f66149ce565b60405190808252806020026020018201604052801561211f578160200160208202803683370190505b50925060005b81608001518110156123c757888181518110612143576121436155e1565b602002602001015182604001906001600160a01b031690816001600160a01b031681525050620186a08c89838151811061217f5761217f6155e1565b602002602001015161219191906157e5565b61219b91906157fc565b80835215612370576000196121b48c8460400151613c82565b146121ec5781600001518582815181106121d0576121d06155e1565b602002602001018181516121e4919061560d565b905250612370565b6040808301516001600160a01b031660009081526020889052205460a08301819052825161221a919061560d565b60c083019081526040808401516001600160a01b0316600090815260208a905220549051101561225b5781600001518582815181106121d0576121d06155e1565b6122778a83604001518f8560c001516113888760600151613569565b610100840181905260e0840191909152156122c057816101000151858360800151815181106122a8576122a86155e1565b602002602001018181516122bc919061560d565b9052505b8160e001516000036122e35781600001518582815181106121d0576121d06155e1565b60a082015182516122f4919061560d565b8260e00151146040518060400160405280600f81526020016e53423a2057726f6e672076616c756560881b815250906123405760405162461bcd60e51b81526004016106149190615670565b508160a00151848281518110612358576123586155e1565b6020026020010181815161236c919061560d565b9052505b8160000151888281518110612387576123876155e1565b602002602001015161239991906157d2565b6020830181905283518490839081106123b4576123b46155e1565b6020908102919091010152600101612125565b5050985098509895505050505050565b604051636eb1769f60e11b81523060048201526001600160a01b03828116602483015283919085169063dd62ed3e90604401602060405180830381865afa158015612426573d6000803e3d6000fd5b505050506040513d601f19601f8201168201806040525081019061244a9190615697565b101561247d576124656001600160a01b038416826000613ce0565b61247d6001600160a01b03841682600160ff1b613ce0565b505050565b6000808260000361249257600a92505b60408051808201909152601081526f54532d392077726f6e672076616c756560801b60208201528385116124d95760405162461bcd60e51b81526004016106149190615670565b506125136040518060c001604052806000815260200160608152602001606081526020016060815260200160008152602001600081525090565b61251c88613df5565b8082526000190161253f57612535898989898989613e1c565b92509250506113e2565b60405163430ffb1760e01b81526001600160a01b038a169063430ffb1790612576908b908b908a908c906213c68090600401615927565b600060405180830381865afa158015612593573d6000803e3d6000fd5b505050506040513d6000823e601f3d908101601f191682016040526125bb9190810190615968565b50606084015260408301526020820181905251801561293a5760005b818110156129385782516126e757826040015181815181106125fb576125fb6155e1565b6020026020010151871061262c578260400151818151811061261f5761261f6155e1565b602002602001015161262e565b865b6080840152604083015180518290811061264a5761264a6155e1565b6020026020010151871061267b578260600151818151811061266e5761266e6155e1565b60200260200101516126cc565b82604001518181518110612691576126916155e1565b602002602001015187846060015183815181106126b0576126b06155e1565b60200260200101516126c291906157e5565b6126cc91906157fc565b60a084015260808301516126e090886157d2565b96506127e5565b826060015181815181106126fd576126fd6155e1565b6020026020010151871061272e5782606001518181518110612721576127216155e1565b6020026020010151612730565b865b60a0840152606083015180518290811061274c5761274c6155e1565b6020026020010151871061277d5782604001518181518110612770576127706155e1565b60200260200101516127ce565b82606001518181518110612793576127936155e1565b602002602001015187846040015183815181106127b2576127b26155e1565b60200260200101516127c491906157e5565b6127ce91906157fc565b608084015260a08301516127e290886157d2565b96505b85871080156127f357508615155b156127fd57600096505b60a08301511561292a578a6001600160a01b0316630adb2d858460200151838151811061282c5761282c6155e1565b60200260200101518b86608001518c8860a00151306040518763ffffffff1660e01b815260040161286296959493929190615a67565b6020604051808303816000875af1158015612881573d6000803e3d6000fd5b505050506040513d601f19601f820116820180604052508101906128a59190615697565b6128af908561560d565b93508260800151856128c1919061560d565b94507ff63c9c64ebdd1eb99706ca3f7489f7fbdd9c8756363cef40b2fc6e293fa150ec836020015182815181106128fa576128fa6155e1565b60200260200101518a85608001518b8760a001513060405161292196959493929190615a67565b60405180910390a15b8615612938576001016125d7565b505b50506113e2565b835182518451606092839290918214801561295c5750845181145b61299f5760405162461bcd60e51b81526020600482015260146024820152730a88298744082e4e4c2f2e640dad2e6dac2e8c6d60631b6044820152606401610614565b60006129ab828461560d565b90506000816001600160401b038111156129c7576129c76149ce565b6040519080825280602002602001820160405280156129f0578160200160208202803683370190505b5090506000826001600160401b03811115612a0d57612a0d6149ce565b604051908082528060200260200182016040528015612a36578160200160208202803683370190505b5090506000805b86811015612b8d5760008c8281518110612a5957612a596155e1565b6020026020010151905080600003612a715750612b7b565b60008e8381518110612a8557612a856155e1565b602002602001015190506000805b85811015612b1257878181518110612aad57612aad6155e1565b60200260200101516001600160a01b0316836001600160a01b031603612b005783878281518110612ae057612ae06155e1565b60200260200101818151612af4919061560d565b90525060019150612b12565b80612b0a81615a9f565b915050612a93565b5080612b775781878681518110612b2b57612b2b6155e1565b60200260200101906001600160a01b031690816001600160a01b03168152505082868681518110612b5e57612b5e6155e1565b602090810291909101015284612b7381615a9f565b9550505b5050505b80612b8581615a9f565b915050612a3d565b5060005b85811015612ce15760008a8281518110612bad57612bad6155e1565b6020026020010151905080600003612bc55750612ccf565b60008c8381518110612bd957612bd96155e1565b602002602001015190506000805b85811015612c6657878181518110612c0157612c016155e1565b60200260200101516001600160a01b0316836001600160a01b031603612c545783878281518110612c3457612c346155e1565b60200260200101818151612c48919061560d565b90525060019150612c66565b80612c5e81615a9f565b915050612be7565b5080612ccb5781878681518110612c7f57612c7f6155e1565b60200260200101906001600160a01b031690816001600160a01b03168152505082868681518110612cb257612cb26155e1565b602090810291909101015284612cc781615a9f565b9550505b5050505b80612cd981615a9f565b915050612b91565b50806001600160401b03811115612cfa57612cfa6149ce565b604051908082528060200260200182016040528015612d23578160200160208202803683370190505b509750806001600160401b03811115612d3e57612d3e6149ce565b604051908082528060200260200182016040528015612d67578160200160208202803683370190505b50965060005b81811015612e0a57838181518110612d8757612d876155e1565b6020026020010151898281518110612da157612da16155e1565b60200260200101906001600160a01b031690816001600160a01b031681525050828181518110612dd357612dd36155e1565b6020026020010151888281518110612ded57612ded6155e1565b602090810291909101015280612e0281615a9f565b915050612d6d565b5050505050505094509492505050565b606060008215612e5c5782841015612e4e5782612e3f85670de0b6b3a76400006157e5565b612e4991906157fc565b612e5f565b670de0b6b3a7640000612e5f565b60005b8551909150806001600160401b03811115612e7c57612e7c6149ce565b604051908082528060200260200182016040528015612ea5578160200160208202803683370190505b5092508115612f205760005b81811015612f1e57670de0b6b3a764000083888381518110612ed557612ed56155e1565b6020026020010151612ee791906157e5565b612ef191906157fc565b848281518110612f0357612f036155e1565b6020908102919091010152612f1781615a9f565b9050612eb1565b505b50509392505050565b8451600090815b8181101561106b57868103612f6b57848181518110612f5157612f516155e1565b602002602001015183612f64919061560d565b925061308b565b6000848281518110612f7f57612f7f6155e1565b6020026020010151868381518110612f9957612f996155e1565b6020026020010151612fab919061560d565b9050801561308957866001600160a01b031663667df249308b8b81518110612fd557612fd56155e1565b60200260200101518c8681518110612fef57612fef6155e1565b60209081029190910101516040516001600160e01b031960e086901b1681526001600160a01b0393841660048201529183166024830152919091166044820152606481018490526084016020604051808303816000875af1158015613058573d6000803e3d6000fd5b505050506040513d601f19601f8201168201806040525081019061307c9190615697565b613086908561560d565b93505b505b600101612f30565b606080826001600160401b038111156130ae576130ae6149ce565b6040519080825280602002602001820160405280156130d7578160200160208202803683370190505b509150826001600160401b038111156130f2576130f26149ce565b60405190808252806020026020018201604052801561311b578160200160208202803683370190505b50905060005b838110156132785784818151811061313b5761313b6155e1565b60200260200101516001600160a01b031663313ce5676040518163ffffffff1660e01b8152600401602060405180830381865afa158015613180573d6000803e3d6000fd5b505050506040513d601f19601f820116820180604052508101906131a49190615ab8565b6131af90600a615bbf565b8282815181106131c1576131c16155e1565b602002602001018181525050856001600160a01b031663b3596f078683815181106131ee576131ee6155e1565b60200260200101516040518263ffffffff1660e01b81526004016132129190615683565b602060405180830381865afa15801561322f573d6000803e3d6000fd5b505050506040513d601f19601f820116820180604052508101906132539190615697565b838281518110613265576132656155e1565b6020908102919091010152600101613121565b50935093915050565b604051632424c79760e11b81523060048201526001600160a01b038481166024830152838116604483015260009182918291908816906348498f2e9060640160408051808303816000875af11580156132de573d6000803e3d6000fd5b505050506040513d601f19601f820116820180604052508101906133029190615842565b50905060008185106133145781613316565b845b90506000866001600160a01b03166370a08231306040518263ffffffff1660e01b81526004016133469190615683565b602060405180830381865afa158015613363573d6000803e3d6000fd5b505050506040513d601f19601f820116820180604052508101906133879190615697565b905061339d6001600160a01b0388168a84613c1f565b6040516314b685e960e21b81526001600160a01b038981166004830152888116602483015260448201849052306064830152600091908b16906352da17a4906084016080604051808303816000875af11580156133fe573d6000803e3d6000fd5b505050506040513d601f19601f820116820180604052508101906134229190615bce565b5050604080516001600160a01b03808e1682528c1660208201529081018690523060608201526080810183905260a0810182905291975091507f1d1ba11e7ca20f5dc77d8cfd75b68d11520677808f89f6ba0f0e50dc52c450129060c00160405180910390a16040516370a0823160e01b81526000906001600160a01b038a16906370a08231906134b7903090600401615683565b602060405180830381865afa1580156134d4573d6000803e3d6000fd5b505050506040513d601f19601f820116820180604052508101906134f89190615697565b9050808311613508576000613512565b61351281846157d2565b60408051808201909152600f81526e53423a2057726f6e672076616c756560881b6020820152909650821561355a5760405162461bcd60e51b81526004016106149190615670565b50505050505094509492505050565b604051633744088160e11b81526001600160a01b038681166004830152858116602483015260009182918291908a1690636e88110290604401600060405180830381865afa1580156135bf573d6000803e3d6000fd5b505050506040513d6000823e601f3d908101601f191682016040526135e79190810190615c49565b50805160408051808201909152601a81527f54532d3135204e6f206c69717569646174696f6e20726f757465000000000000602082015291925061363e5760405162461bcd60e51b81526004016106149190615670565b50604051637cbf210b60e11b81526000906001600160a01b038b169063f97e4216906136709085908b90600401615db8565b602060405180830381865afa15801561368d573d6000803e3d6000fd5b505050506040513d601f19601f820116820180604052508101906136b19190615697565b905084811115613887576136c689888c6123d7565b6040516370a0823160e01b81526000906001600160a01b038a16906370a08231906136f5903090600401615683565b602060405180830381865afa158015613712573d6000803e3d6000fd5b505050506040513d601f19601f820116820180604052508101906137369190615697565b6040516310fe133960e31b81529091506001600160a01b038c16906387f099c8906137699086908c908c90600401615dcb565b600060405180830381600087803b15801561378357600080fd5b505af1158015613797573d6000803e3d6000fd5b50506040516370a0823160e01b8152600092506001600160a01b038c1691506370a08231906137ca903090600401615683565b602060405180830381865afa1580156137e7573d6000803e3d6000fd5b505050506040513d601f19601f8201168201806040525081019061380b9190615697565b905081811161381b576000613825565b61382582826157d2565b604080516001600160a01b03808f1682528d1660208201529081018b9052606081018b9052608081018290528a97509095507f5a821a618ddb1a1fd304234a69c9d7f20c129d122fcf35593d13a071926643079060a00160405180910390a150505b5050965096945050505050565b6060806138c26040518060800160405280600081526020016060815260200160608152602001606081525090565b6020840151518082526001600160401b038111156138e2576138e26149ce565b60405190808252806020026020018201604052801561390b578160200160208202803683370190505b5081519092506001600160401b03811115613928576139286149ce565b604051908082528060200260200182016040528015613951578160200160208202803683370190505b509250613a2a8460a001516001600160a01b031663f77c47916040518163ffffffff1660e01b8152600401602060405180830381865afa158015613999573d6000803e3d6000fd5b505050506040513d601f19601f820116820180604052508101906139bd919061581e565b6001600160a01b0316632630c12f6040518163ffffffff1660e01b8152600401602060405180830381865afa1580156139fa573d6000803e3d6000fd5b505050506040513d601f19601f82011682018060405250810190613a1e919061581e565b60208601518351613093565b604083015260208201526000805b8251811015613b515785602001518181518110613a5757613a576155e1565b60200260200101516001600160a01b031686606001516001600160a01b031603613a8357809150613b49565b60408601518114613b4957600080613aba86896040015181518110613aaa57613aaa6155e1565b60200260200101518987866142e7565b9150915081878481518110613ad157613ad16155e1565b60200260200101818151613ae5919061560d565b90525060408801518651829188918110613b0157613b016155e1565b60200260200101818151613b15919061560d565b9052508751604089015187518891908110613b3257613b326155e1565b602002602001015110613b46575050613b51565b50505b600101613a38565b50846000015183866040015181518110613b6d57613b6d6155e1565b6020026020010151108015613b86575080856040015114155b15613c1857600080613bb785886040015181518110613ba757613ba76155e1565b60200260200101518886866142e7565b9150915081868481518110613bce57613bce6155e1565b60200260200101818151613be2919061560d565b90525060408701518551829187918110613bfe57613bfe6155e1565b60200260200101818151613c12919061560d565b90525050505b5050915091565b6040516001600160a01b03831660248201526044810182905261247d90849063a9059cbb60e01b906064015b60408051601f198184030181529190526020810180516001600160e01b03166001600160e01b03199093169290921790915261447e565b8151600090815b81811015613cd457836001600160a01b0316858281518110613cad57613cad6155e1565b60200260200101516001600160a01b031603613ccc5791506117e19050565b600101613c89565b50600019949350505050565b801580613d5a5750604051636eb1769f60e11b81523060048201526001600160a01b03838116602483015284169063dd62ed3e90604401602060405180830381865afa158015613d34573d6000803e3d6000fd5b505050506040513d601f19601f82011682018060405250810190613d589190615697565b155b613dc55760405162461bcd60e51b815260206004820152603660248201527f5361666545524332303a20617070726f76652066726f6d206e6f6e2d7a65726f60448201527520746f206e6f6e2d7a65726f20616c6c6f77616e636560501b6064820152608401610614565b6040516001600160a01b03831660248201526044810182905261247d90849063095ea7b360e01b90606401613c4b565b60008151600003613e0857506000919050565b818060200190518101906117e19190615697565b600080613e6e6040518061012001604052806060815260200160608152602001606081526020016000815260200160008152602001600081526020016000815260200160008152602001600081525090565b60405163430ffb1760e01b81526001600160a01b038a169063430ffb1790613ea5908b908b908a908c906213c68090600401615927565b600060405180830381865afa158015613ec2573d6000803e3d6000fd5b505050506040513d6000823e601f3d908101601f19168201604052613eea9190810190615968565b506040840152602083015280825251600093508392508015613887576000808a806020019051810190613f1d9190615df0565b9250925050613f2d8c8b8b614550565b61010085015260005b838110156142d757670de0b6b3a764000085604001518281518110613f5d57613f5d6155e1565b6020026020010151866101000151613f7591906157e5565b613f7f91906157fc565b60c086018190528290613f9290856157e5565b613f9c91906157fc565b60a08601819052602086015180518b92919084908110613fbe57613fbe6155e1565b6020026020010151613fd0919061560d565b11613fe357670de0b6b3a764000061402c565b8460a0015185602001518281518110613ffe57613ffe6155e1565b6020026020010151614010919061560d565b6140228a670de0b6b3a76400006157e5565b61402c91906157fc565b60e0860181905260208601518051670de0b6b3a764000092919084908110614056576140566155e1565b602002602001015161406891906157e5565b61407291906157fc565b856060018181525050670de0b6b3a76400008560e001518660400151838151811061409f5761409f6155e1565b60200260200101516140b191906157e5565b6140bb91906157fc565b60808601819052610100860151670de0b6b3a7640000916140db916157e5565b6140e591906157fc565b60c0860181905282906140f890856157e5565b61410291906157fc565b60a0860181905260608601516141179161560d565b8911156141505784606001518560a00151614132919061560d565b61413c908a6157d2565b98508789101561414b57600098505b614155565b600098505b84608001518d6001600160a01b0316630adb2d858760000151848151811061417f5761417f6155e1565b60200260200101518e89606001518f8b60800151306040518763ffffffff1660e01b81526004016141b596959493929190615a67565b6020604051808303816000875af11580156141d4573d6000803e3d6000fd5b505050506040513d601f19601f820116820180604052508101906141f89190615697565b146040518060400160405280600f81526020016e53423a2057726f6e672076616c756560881b8152509061423f5760405162461bcd60e51b81526004016106149190615670565b507ff63c9c64ebdd1eb99706ca3f7489f7fbdd9c8756363cef40b2fc6e293fa150ec85600001518281518110614277576142776155e1565b60200260200101518c87606001518d89608001513060405161429e96959493929190615a67565b60405180910390a160808501516142b5908761560d565b95508460600151876142c7919061560d565b965088156142d757600101613f36565b5050505050965096945050505050565b60008084608001518381518110614300576143006155e1565b60200260200101516000146119a5576000620186a080876101000151614326919061560d565b8660400151886040015181518110614340576143406155e1565b60200260200101518760200151878151811061435e5761435e6155e1565b60200260200101518860400151888151811061437c5761437c6155e1565b602002602001015189602001518b604001518151811061439e5761439e6155e1565b60200260200101518c8c600001516143b691906157d2565b6143c091906157e5565b6143ca91906157e5565b6143d491906157fc565b6143de91906157fc565b6143e891906157e5565b6143f291906157fc565b90506144708660c0015187602001518681518110614412576144126155e1565b60200260200101518860200151896040015181518110614434576144346155e1565b6020026020010151614463858b608001518a81518110614456576144566155e1565b6020026020010151614810565b61012c8b60e00151613569565b909890975095505050505050565b60006144d3826040518060400160405280602081526020017f5361666545524332303a206c6f772d6c6576656c2063616c6c206661696c6564815250856001600160a01b03166148269092919063ffffffff16565b80519091501561247d57808060200190518101906144f19190615866565b61247d5760405162461bcd60e51b815260206004820152602a60248201527f5361666545524332303a204552433230206f7065726174696f6e20646964206e6044820152691bdd081cdd58d8d9595960b21b6064820152608401610614565b600080846001600160a01b031663f77c47916040518163ffffffff1660e01b8152600401602060405180830381865afa158015614591573d6000803e3d6000fd5b505050506040513d601f19601f820116820180604052508101906145b5919061581e565b6001600160a01b0316632630c12f6040518163ffffffff1660e01b8152600401602060405180830381865afa1580156145f2573d6000803e3d6000fd5b505050506040513d601f19601f82011682018060405250810190614616919061581e565b90506000816001600160a01b031663b3596f07866040518263ffffffff1660e01b81526004016146469190615683565b602060405180830381865afa158015614663573d6000803e3d6000fd5b505050506040513d601f19601f820116820180604052508101906146879190615697565b90506000826001600160a01b031663b3596f07866040518263ffffffff1660e01b81526004016146b79190615683565b602060405180830381865afa1580156146d4573d6000803e3d6000fd5b505050506040513d601f19601f820116820180604052508101906146f89190615697565b9050846001600160a01b031663313ce5676040518163ffffffff1660e01b8152600401602060405180830381865afa158015614738573d6000803e3d6000fd5b505050506040513d601f19601f8201168201806040525081019061475c9190615ab8565b61476790600a615bbf565b82876001600160a01b031663313ce5676040518163ffffffff1660e01b8152600401602060405180830381865afa1580156147a6573d6000803e3d6000fd5b505050506040513d601f19601f820116820180604052508101906147ca9190615ab8565b6147d590600a615bbf565b6147e784670de0b6b3a76400006157e5565b6147f191906157e5565b6147fb91906157fc565b61480591906157fc565b979650505050505050565b600081831061481f57816117de565b5090919050565b6060614835848460008561483d565b949350505050565b60608247101561489e5760405162461bcd60e51b815260206004820152602660248201527f416464726573733a20696e73756666696369656e742062616c616e636520666f6044820152651c8818d85b1b60d21b6064820152608401610614565b600080866001600160a01b031685876040516148ba9190615e1e565b60006040518083038185875af1925050503d80600081146148f7576040519150601f19603f3d011682016040523d82523d6000602084013e6148fc565b606091505b50915091506148058783838760608315614977578251600003614970576001600160a01b0385163b6149705760405162461bcd60e51b815260206004820152601d60248201527f416464726573733a2063616c6c20746f206e6f6e2d636f6e74726163740000006044820152606401610614565b5081614835565b614835838381511561498c5781518083602001fd5b8060405162461bcd60e51b81526004016106149190615670565b6001600160a01b03811681146149bb57600080fd5b50565b80356149c9816149a6565b919050565b634e487b7160e01b600052604160045260246000fd5b604051608081016001600160401b0381118282101715614a0657614a066149ce565b60405290565b604051601f8201601f191681016001600160401b0381118282101715614a3457614a346149ce565b604052919050565b60006001600160401b03821115614a5557614a556149ce565b5060051b60200190565b600082601f830112614a7057600080fd5b81356020614a85614a8083614a3c565b614a0c565b82815260059290921b84018101918181019086841115614aa457600080fd5b8286015b84811015614ac8578035614abb816149a6565b8352918301918301614aa8565b509695505050505050565b600082601f830112614ae457600080fd5b81356020614af4614a8083614a3c565b82815260059290921b84018101918181019086841115614b1357600080fd5b8286015b84811015614ac85780358352918301918301614b17565b600080600080600080600080610100898b031215614b4b57600080fd5b614b54896149be565b97506020890135965060408901356001600160401b0380821115614b7757600080fd5b614b838c838d01614a5f565b9750614b9160608c016149be565b965060808b0135955060a08b0135945060c08b0135915080821115614bb557600080fd5b614bc18c838d01614a5f565b935060e08b0135915080821115614bd757600080fd5b50614be48b828c01614ad3565b9150509295985092959890939650565b600081518084526020808501945080840160005b83811015614c2457815187529582019590820190600101614c08565b509495945050505050565b606081526000614c426060830186614bf4565b8281036020840152614c548186614bf4565b90508281036040840152614c688185614bf4565b9695505050505050565b600080600080600060a08688031215614c8a57600080fd5b8535614c95816149a6565b945060208601356001600160401b0380821115614cb157600080fd5b614cbd89838a01614a5f565b9550604088013594506060880135915080821115614cda57600080fd5b50614ce788828901614ad3565b95989497509295608001359392505050565b606081526000614d0c6060830186614bf4565b8281036020840152614d1e8186614bf4565b915050826040830152949350505050565b60008060008060808587031215614d4557600080fd5b8435614d50816149a6565b935060208501356001600160401b0380821115614d6c57600080fd5b614d7888838901614a5f565b94506040870135915080821115614d8e57600080fd5b50614d9b87828801614ad3565b949793965093946060013593505050565b604080825283519082018190526000906020906060840190828701845b82811015614dee5781516001600160a01b031684529284019290840190600101614dc9565b50505083810382850152614c688186614bf4565b6000806000806000806000806000806101408b8d031215614e2257600080fd5b8a356001600160401b0380821115614e3957600080fd5b614e458e838f01614ad3565b9b5060208d01359a5060408d0135995060608d0135985060808d0135915080821115614e7057600080fd5b614e7c8e838f01614ad3565b975060a08d0135915080821115614e9257600080fd5b614e9e8e838f01614a5f565b965060c08d01359550614eb360e08e016149be565b94506101008d013593506101208d0135915080821115614ed257600080fd5b50614edf8d828e01614ad3565b9150509295989b9194979a5092959850565b8281526040602082015260006148356040830184614bf4565b60008060008060008060c08789031215614f2357600080fd5b8635955060208701356001600160401b0380821115614f4157600080fd5b614f4d8a838b01614a5f565b96506040890135915080821115614f6357600080fd5b50614f7089828a01614ad3565b945050606087013592506080870135915060a0870135614f8f816149a6565b809150509295509295509295565b6020815260006117de6020830184614bf4565b600080600080600060a08688031215614fc857600080fd5b85356001600160401b0380821115614fdf57600080fd5b614feb89838a01614a5f565b9650602088013591508082111561500157600080fd5b5061500e88828901614ad3565b945050604086013592506060860135615026816149a6565b949793965091946080013592915050565b60008060008060008060c0878903121561505057600080fd5b863561505b816149a6565b9550602087013561506b816149a6565b94506040870135935060608701356001600160401b038082111561508e57600080fd5b61509a8a838b01614a5f565b94506080890135935060a08901359150808211156150b757600080fd5b506150c489828a01614ad3565b9150509295509295509295565b6000806000806000806000806000806101408b8d0312156150f157600080fd5b8a35995060208b01356001600160401b038082111561510f57600080fd5b61511b8e838f01614a5f565b9a5060408d0135995061513060608e016149be565b985060808d013591508082111561514657600080fd5b506151538d828e01614ad3565b96505061516260a08c016149be565b945061517060c08c016149be565b935060e08b013592506101008b013591506101208b013590509295989b9194979a5092959850565b6040815260006151ab6040830185614bf4565b828103602084015261106f8185614bf4565b600080604083850312156151d057600080fd5b82356151db816149a6565b915060208301356151eb816149a6565b809150509250929050565b6000806000806080858703121561520c57600080fd5b84359350602085013561521e816149a6565b925060408501356001600160401b038082111561523a57600080fd5b61524688838901614a5f565b9350606087013591508082111561525c57600080fd5b5061526987828801614ad3565b91505092959194509250565b6000806000806080858703121561528b57600080fd5b8435615296816149a6565b935060208501356152a6816149a6565b925060408501356152b6816149a6565b9396929550929360600135925050565b600080604083850312156152d957600080fd5b82356001600160401b038111156152ef57600080fd5b6152fb85828601614a5f565b95602094909401359450505050565b6000806000806080858703121561532057600080fd5b843561532b816149a6565b9350602085013561521e816149a6565b600080600080600060a0868803121561535357600080fd5b85356001600160401b038082111561536a57600080fd5b61537689838a01614a5f565b9650602088013595506040880135915061538f826149a6565b909350606087013590808211156153a557600080fd5b6153b189838a01614ad3565b935060808801359150808211156153c757600080fd5b506153d488828901614ad3565b9150509295509295909350565b6040815260006153f46040830185614bf4565b90508260208301529392505050565b60006001600160401b0382111561541c5761541c6149ce565b50601f01601f191660200190565b60008060008060008060c0878903121561544357600080fd5b863561544e816149a6565b955060208701356001600160401b0381111561546957600080fd5b8701601f8101891361547a57600080fd5b8035615488614a8082615403565b8181528a602083850101111561549d57600080fd5b816020840160208301376000602083830101528097505050506154c2604088016149be565b93506154d0606088016149be565b92506080870135915060a087013590509295509295509295565b600080600080600080600080610100898b03121561550757600080fd5b88359750602089013596506040890135615520816149a6565b955060608901356001600160401b0381111561553b57600080fd5b6155478b828c01614a5f565b9550506080890135935060a089013561555f816149a6565b979a969950949793969295929450505060c08201359160e0013590565b60008060008060008060c0878903121561559557600080fd5b86356155a0816149a6565b955060208701356155b0816149a6565b945060408701356155c0816149a6565b959894975094956060810135955060808101359460a0909101359350915050565b634e487b7160e01b600052603260045260246000fd5b634e487b7160e01b600052601160045260246000fd5b808201808211156117e1576117e16155f7565b60005b8381101561563b578181015183820152602001615623565b50506000910152565b6000815180845261565c816020860160208601615620565b601f01601f19169290920160200192915050565b6020815260006117de6020830184615644565b6001600160a01b0391909116815260200190565b6000602082840312156156a957600080fd5b5051919050565b600082601f8301126156c157600080fd5b815160206156d1614a8083614a3c565b82815260059290921b840181019181810190868411156156f057600080fd5b8286015b84811015614ac8578051615707816149a6565b83529183019183016156f4565b600082601f83011261572557600080fd5b81516020615735614a8083614a3c565b82815260059290921b8401810191818101908684111561575457600080fd5b8286015b84811015614ac85780518352918301918301615758565b6000806040838503121561578257600080fd5b82516001600160401b038082111561579957600080fd5b6157a5868387016156b0565b935060208501519150808211156157bb57600080fd5b506157c885828601615714565b9150509250929050565b818103818111156117e1576117e16155f7565b80820281158282048414176117e1576117e16155f7565b60008261581957634e487b7160e01b600052601260045260246000fd5b500490565b60006020828403121561583057600080fd5b815161583b816149a6565b9392505050565b6000806040838503121561585557600080fd5b505080516020909101519092909150565b60006020828403121561587857600080fd5b8151801515811461583b57600080fd5b6080808252855190820181905260009060209060a0840190828901845b828110156158ca5781516001600160a01b0316845292840192908401906001016158a5565b5050508381038285015286518082528783019183019060005b818110156158ff578351835292840192918401916001016158e3565b50506001600160a01b0387166040860152925061591a915050565b821515606083015261106f565b60a08152600061593a60a0830188615644565b6001600160a01b03968716602084015260408301959095525091909316606082015260800191909152919050565b6000806000806080858703121561597e57600080fd5b84516001600160401b038082111561599557600080fd5b6159a1888389016156b0565b95506020915081870151818111156159b857600080fd5b6159c489828a01615714565b9550506040870151818111156159d957600080fd5b6159e589828a01615714565b9450506060870151818111156159fa57600080fd5b87019050601f81018813615a0d57600080fd5b8051615a1b614a8082614a3c565b81815260059190911b8201830190838101908a831115615a3a57600080fd5b928401925b82841015615a5857835182529284019290840190615a3f565b979a9699509497505050505050565b6001600160a01b039687168152948616602086015260408501939093529084166060840152608083015290911660a082015260c00190565b600060018201615ab157615ab16155f7565b5060010190565b600060208284031215615aca57600080fd5b815160ff8116811461583b57600080fd5b600181815b80851115615b16578160001904821115615afc57615afc6155f7565b80851615615b0957918102915b93841c9390800290615ae0565b509250929050565b600082615b2d575060016117e1565b81615b3a575060006117e1565b8160018114615b505760028114615b5a57615b76565b60019150506117e1565b60ff841115615b6b57615b6b6155f7565b50506001821b6117e1565b5060208310610133831016604e8410600b8410161715615b99575081810a6117e1565b615ba38383615adb565b8060001904821115615bb757615bb76155f7565b029392505050565b60006117de60ff841683615b1e565b60008060008060808587031215615be457600080fd5b505082516020840151604085015160609095015191969095509092509050565b600082601f830112615c1557600080fd5b8151615c23614a8082615403565b818152846020838601011115615c3857600080fd5b614835826020830160208701615620565b6000806040808486031215615c5d57600080fd5b83516001600160401b0380821115615c7457600080fd5b818601915086601f830112615c8857600080fd5b81516020615c98614a8083614a3c565b82815260079290921b8401810191818101908a841115615cb757600080fd5b948201945b83861015615d31576080868c031215615cd55760008081fd5b615cdd6149e4565b8651615ce8816149a6565b815286840151615cf7816149a6565b8185015286880151615d08816149a6565b81890152606087810151615d1b816149a6565b9082015282526080959095019490820190615cbc565b91890151919750909450505080831115615d4a57600080fd5b50506157c885828601615c04565b600081518084526020808501945080840160005b83811015614c2457815180516001600160a01b039081168952848201518116858a01526040808301518216908a0152606091820151169088015260809096019590820190600101615d6c565b6040815260006153f46040830185615d58565b606081526000615dde6060830186615d58565b60208301949094525060400152919050565b600080600060608486031215615e0557600080fd5b8351925060208401519150604084015190509250925092565b60008251615e30818460208701615620565b919091019291505056fea264697066735822122038fd3914b2677bba2e6573f0153afd36a928ceee1ac65e06df97eff0495f34c264736f6c63430008110033",
  "devdoc": {
    "kind": "dev",
    "methods": {
      "calcInvestedAssets(address[],uint256[],uint256,ITetuConverter,mapping(address => uint256) storage)": {
        "details": "This is writable function because we need to update current balances in the internal protocols.",
        "returns": {
          "amountOut": "Invested asset amount under control (in terms of {asset})"
        }
      },
      "closePosition(ITetuConverter,address,address,uint256)": {
        "params": {
          "amountToRepay": "Amount to repay in terms of {borrowAsset}"
        },
        "returns": {
          "repaidAmountOut": "Amount that was actually repaid",
          "returnedAssetAmountOut": "Amount of collateral received back after repaying"
        }
      },
      "convertAfterWithdraw(ITetuConverter,ITetuLiquidator,uint256,address[],uint256,uint256[])": {
        "returns": {
          "collateralOut": "Total amount of collateral returned after closing positions",
          "repaidAmountsOut": "What amounts were spent in exchange of the {collateralOut}"
        }
      },
      "getLiquidityAmountRatio(uint256,mapping(address => uint256) storage,address,address[],uint256,ITetuConverter,uint256,uint256)": {
        "details": "This is a writable function with read-only behavior (because of the quote-call)",
        "params": {
          "baseAmounts_": "Available balances of the converted assets",
          "strategy_": "Address of the strategy",
          "targetAmount_": "Required amount of main asset to be withdrawn from the strategy                      0 - withdraw all"
        }
      },
      "getTokenAmounts(ITetuConverter,address[],uint256,uint256[],uint256)": {
        "params": {
          "thresholdMainAsset_": "Min allowed value of collateral in terms of main asset, 0 - use default min value"
        },
        "returns": {
          "borrowedAmounts": "Amounts borrowed for {spendCollateral}",
          "spentCollateral": "Total collateral amount spent for borrowing",
          "tokenAmountsOut": "Amounts available for deposit"
        }
      },
      "liquidate(ITetuLiquidator,address,address,uint256,uint256,uint256)": {
        "params": {
          "receivedAmountOut": "Amount of {tokenOut_} has been returned by the liquidator",
          "spentAmountIn": "Amount of {tokenIn} has been consumed by the liquidator"
        }
      },
      "openPosition(ITetuConverter,bytes,address,address,uint256,uint256)": {
        "params": {
          "amountIn_": "Meaning depends on {entryData_}.",
          "entryData_": "Encoded entry kind and additional params if necessary (set of params depends on the kind)                   See TetuConverter\\EntryKinds.sol\\ENTRY_KIND_XXX constants for possible entry kinds                   0 or empty: Amount of collateral {amountIn_} is fixed, amount of borrow should be max possible."
        }
      },
      "prepareRewardsList(ITetuConverter,address[],uint256[],mapping(address => uint256) storage)": {
        "details": "The post-processing is rewards conversion to the main asset",
        "params": {
          "amountsOut": "Amounts of available rewards",
          "amounts_": "Amounts of rewards claimed from the internal pool",
          "tokensOut": "List of available rewards - not zero amounts, reward tokens don't repeat",
          "tokens_": "List of rewards claimed from the internal pool"
        }
      },
      "recycle(address,uint256,address[],ITetuLiquidator,mapping(address => uint256) storage,mapping(address => uint256) storage,address[],uint256[])": {
        "params": {
          "baseAmounts_": "Base amounts for rewards tokens                     The base amounts allow to separate just received and previously received rewards.",
          "liquidationThresholds_": "Liquidation thresholds for rewards tokens",
          "rewardAmounts_": "Amounts of {rewardTokens_}; we assume, there are no zero amounts here",
          "rewardTokens_": "Full list of reward tokens received from tetuConverter and depositor",
          "tokens_": "tokens received from {_depositorPoolAssets}"
        },
        "returns": {
          "amountsToForward": "Amounts to be sent to forwarder",
          "receivedAmounts": "Received amounts of the tokens         This array has +1 item at the end: received amount of the main asset                                            there was no possibility to use separate var for it, stack too deep",
          "spentAmounts": "Spent amounts of the tokens"
        }
      },
      "sendPerformanceFee(uint256,address,address[],uint256[])": {
        "params": {
          "performanceFee_": "Max is FEE_DENOMINATOR"
        },
        "returns": {
          "performanceAmounts": "Theses amounts were sent to {performanceReceiver_}",
          "rewardAmounts": "= rewardAmounts_ - performanceAmounts"
        }
      },
      "swapToGivenAmount(uint256,address[],uint256,address,uint256[],ITetuConverter,ITetuLiquidator,uint256,uint256,mapping(address => uint256) storage)": {
        "params": {
          "indexTargetAsset_": "Index of target asset in tokens_ array",
          "liquidationThresholdForTargetAsset_": "Liquidation thresholds for the target asset",
          "overswap_": "Allow to swap more then required (i.e. 1_000 => +1%)                  to avoid additional swap if the swap return amount a bit less than we expected",
          "targetAmount_": "Required amount of tokens[indexTheAsset_] that should be received by swap(s)",
          "tokens_": "tokens received from {_depositorPoolAssets}",
          "underlying_": "Index of underlying",
          "withdrawnAmounts_": "Amounts withdrawn from the pool"
        },
        "returns": {
          "spentAmounts": "Any amounts spent during the swaps",
          "withdrawnAmountsOut": "withdrawnAmounts + any amounts received during the swaps"
        }
      }
    },
    "version": 1
  },
  "userdoc": {
    "events": {
      "ClosePosition(address,address,uint256,address,uint256,uint256)": {
        "notice": "Some borrow(s) was/were repaid"
      },
      "Liquidation(address,address,uint256,uint256,uint256)": {
        "notice": "A liquidation was made"
      },
      "OpenPosition(address,address,uint256,address,uint256,address)": {
        "notice": "A borrow was made"
      }
    },
    "kind": "user",
    "methods": {
      "calcInvestedAssets(address[],uint256[],uint256,ITetuConverter,mapping(address => uint256) storage)": {
        "notice": "Calculate amount we will receive when we withdraw all from pool"
      },
      "closePosition(ITetuConverter,address,address,uint256)": {
        "notice": "Close the given position, pay {amountToRepay}, return collateral amount in result"
      },
      "convertAfterWithdraw(ITetuConverter,ITetuLiquidator,uint256,address[],uint256,uint256[])": {
        "notice": "Convert {p.amountsToConvert_} to the main asset"
      },
      "getAssetPriceFromConverter(ITetuConverter,address)": {
        "notice": "OTHER HELPERS"
      },
      "getAvailableBalances(address[],uint256)": {
        "notice": "Get balances of the {tokens_} except balance of the token at {indexAsset} position"
      },
      "getCollaterals(uint256,address[],uint256[],uint256,uint256,IPriceOracle)": {
        "notice": "For each {token_} calculate a part of {amount_} to be used as collateral according to the weights.         I.e. we have 300 USDC, we need to split it on 100 USDC, 100 USDT, 100 DAI         USDC is main asset, USDT and DAI should be borrowed. We check amounts of USDT and DAI on the balance         and return collaterals reduced on that amounts. For main asset, we return full amount always (100 USDC)."
      },
      "getLiquidityAmountRatio(uint256,mapping(address => uint256) storage,address,address[],uint256,ITetuConverter,uint256,uint256)": {
        "notice": "Get a ratio to calculate amount of liquidity that should be withdrawn from the pool to get {targetAmount_}               liquidityAmount = _depositorLiquidity() * {liquidityRatioOut} / 1e18         User needs to withdraw {targetAmount_} in main asset.         There are two kinds of available liquidity:         1) liquidity in the pool - {depositorLiquidity_}         2) Converted amounts on balance of the strategy - {baseAmounts_}         To withdraw {targetAmount_} we need         1) Reconvert converted amounts back to main asset         2) IF result amount is not necessary - withdraw some liquidity from the pool            and also convert it to the main asset."
      },
      "getTokenAmounts(ITetuConverter,address[],uint256,uint256[],uint256)": {
        "notice": "Make borrow and save amounts of tokens available for deposit to tokenAmounts"
      },
      "liquidate(ITetuLiquidator,address,address,uint256,uint256,uint256)": {
        "notice": "Make liquidation if estimated amountOut exceeds the given threshold"
      },
      "openPosition(ITetuConverter,bytes,address,address,uint256,uint256)": {
        "notice": "Make one or several borrow necessary to supply/borrow required {amountIn_} according to {entryData_}         Max possible collateral should be approved before calling of this function."
      },
      "postWithdrawActions(uint256[],uint256,uint256,uint256,uint256[],address[],uint256,ITetuConverter,uint256,uint256[])": {
        "notice": "WITHDRAW HELPERS"
      },
      "prepareRewardsList(ITetuConverter,address[],uint256[],mapping(address => uint256) storage)": {
        "notice": "Claim rewards from tetuConverter, generate result list of all available rewards"
      },
      "recycle(address,uint256,address[],ITetuLiquidator,mapping(address => uint256) storage,mapping(address => uint256) storage,address[],uint256[])": {
        "notice": "Recycle the amounts: liquidate a part of each amount, send the other part to the forwarder. We have two kinds of rewards: 1) rewards in depositor's assets (the assets returned by _depositorPoolAssets) 2) any other rewards All received rewards are immediately \"recycled\". It means, they are divided on two parts: to forwarder, to compound   Compound-part of Rewards-2 can be liquidated   Compound part of Rewards-1 should be just added to baseAmounts All forwarder-parts are returned in amountsToForward and should be transferred to the forwarder."
      },
      "sendPerformanceFee(uint256,address,address[],uint256[])": {
        "notice": "Send {performanceFee_} of {rewardAmounts_} to {performanceReceiver}"
      },
      "sendTokensToForwarder(address,address,address[],uint256[])": {
        "notice": "sendTokensToForwarder"
      },
      "swapToGivenAmount(uint256,address[],uint256,address,uint256[],ITetuConverter,ITetuLiquidator,uint256,uint256,mapping(address => uint256) storage)": {
        "notice": "Swap available {amounts_} of {tokens_} to receive {targetAmount_} of {tokens[indexTheAsset_]}"
      }
    },
    "version": 1
  },
  "storageLayout": {
    "storage": [],
    "types": null
  }
}