{
  "address": "0xc989b6183E5af088FD04DB1A3C93bE69c8Ff25E0",
  "abi": [
    {
      "anonymous": false,
      "inputs": [
        {
          "indexed": false,
          "internalType": "address",
          "name": "token",
          "type": "address"
        },
        {
          "indexed": false,
          "internalType": "uint256",
          "name": "amount",
          "type": "uint256"
        }
      ],
      "name": "LiquidationThresholdChanged",
      "type": "event"
    },
    {
      "anonymous": false,
      "inputs": [
        {
          "indexed": false,
          "internalType": "uint256",
          "name": "newRatio",
          "type": "uint256"
        }
      ],
      "name": "OnChangePerformanceFeeRatio",
      "type": "event"
    },
    {
      "anonymous": false,
      "inputs": [
        {
          "indexed": false,
          "internalType": "uint256",
          "name": "amount",
          "type": "uint256"
        }
      ],
      "name": "ReinvestThresholdPercentChanged",
      "type": "event"
    },
    {
      "inputs": [],
      "name": "PRICE_CHANGE_PROFIT_TOLERANCE",
      "outputs": [
        {
          "internalType": "uint256",
          "name": "",
          "type": "uint256"
        }
      ],
      "stateMutability": "view",
      "type": "function"
    },
    {
      "inputs": [
        {
          "internalType": "address[]",
          "name": "tokens_",
          "type": "address[]"
        },
        {
          "internalType": "uint256",
          "name": "indexAsset",
          "type": "uint256"
        }
      ],
      "name": "getAvailableBalances",
      "outputs": [
        {
          "internalType": "uint256[]",
          "name": "",
          "type": "uint256[]"
        }
      ],
      "stateMutability": "view",
      "type": "function"
    },
    {
      "inputs": [
        {
          "internalType": "uint256",
          "name": "amount_",
          "type": "uint256"
        },
        {
          "internalType": "address[]",
          "name": "tokens_",
          "type": "address[]"
        },
        {
          "internalType": "uint256[]",
          "name": "weights_",
          "type": "uint256[]"
        },
        {
          "internalType": "uint256",
          "name": "totalWeight_",
          "type": "uint256"
        },
        {
          "internalType": "uint256",
          "name": "indexAsset_",
          "type": "uint256"
        },
        {
          "internalType": "contract IPriceOracle",
          "name": "priceOracle",
          "type": "IPriceOracle"
        }
      ],
      "name": "getCollaterals",
      "outputs": [
        {
          "internalType": "uint256[]",
          "name": "tokenAmountsOut",
          "type": "uint256[]"
        }
      ],
      "stateMutability": "view",
      "type": "function"
    }
  ],
  "transactionHash": "0x909b4fde20859a73da64aca09ec723877f58a3eab0cdee4c3b829884398aecc6",
  "args": [],
  "numDeployments": 8,
  "solcInputHash": "6bd7d46da56be05a9d96508884766e30",
  "bytecode": "0x61299361003a600b82828239805160001a60731461002d57634e487b7160e01b600052600060045260246000fd5b30600052607381538281f3fe73000000000000000000000000000000000000000030146080604052600436106100b35760003560e01c8063a0113d481161007b578063a0113d481461015e578063aac2718a1461017e578063acf741a31461019e578063d2c3cf25146101be578063e99de4da146101de578063ec0cc4fd1461020c57600080fd5b8063142395ef146100b85780631997c9ee146100da5780634923ebc4146100f657806359d0ede61461012b57806397783a6c1461014b575b600080fd5b8180156100c457600080fd5b506100d86100d3366004611f28565b61023a565b005b6100e36101f481565b6040519081526020015b60405180910390f35b81801561010257600080fd5b50610116610111366004611f69565b6102e9565b604080519283526020830191909152016100ed565b61013e6101393660046120fc565b610418565b6040516100ed91906121ca565b61013e6101593660046121dd565b610831565b81801561016a57600080fd5b506100d8610179366004612221565b610946565b81801561018a57600080fd5b506100e361019936600461224d565b610a3c565b8180156101aa57600080fd5b506100d86101b9366004612295565b610c50565b8180156101ca57600080fd5b506100d86101d9366004612221565b610ded565b8180156101ea57600080fd5b506101fe6101f936600461231d565b610ed2565b6040516100ed9291906123dc565b81801561021857600080fd5b5061022c61022736600461243c565b6110fe565b6040516100ed9291906124c5565b60405163124fdbb760e21b8152733BEB969c0cd273eA1d7a39137a757Cf1c474510a9063493f6edc906102719086906004016124de565b60006040518083038186803b15801561028957600080fd5b505af415801561029d573d6000803e3d6000fd5b5050604080516001600160a01b0386168152602081018590527f297f3fbc14027d2b4a4f7dac3dff2ad6b386024299045b0e163f131bb24b611d935001905060405180910390a1505050565b6000806000856001600160a01b031663fbfa77cf6040518163ffffffff1660e01b8152600401602060405180830381865afa15801561032c573d6000803e3d6000fd5b505050506040513d601f19601f8201168201806040525081019061035091906124f2565b6001600160a01b03166389cf32046040518163ffffffff1660e01b8152600401602060405180830381865afa15801561038d573d6000803e3d6000fd5b505050506040513d601f19601f820116820180604052508101906103b191906124f2565b9050620186a06103c18589612525565b6103cb919061253c565b92506103d7838861255e565b915082156103f3576103f36001600160a01b03891686856113cb565b811561040d5761040d6001600160a01b03891682846113cb565b509550959350505050565b8451606090806001600160401b0381111561043557610435611fc4565b60405190808252806020026020018201604052801561045e578160200160208202803683370190505b5091506000816001600160401b0381111561047b5761047b611fc4565b6040519080825280602002602001820160405280156104a4578160200160208202803683370190505b5090506000826001600160401b038111156104c1576104c1611fc4565b6040519080825280602002602001820160405280156104ea578160200160208202803683370190505b50905060005b838110156106475789818151811061050a5761050a612571565b60200260200101516001600160a01b031663313ce5676040518163ffffffff1660e01b8152600401602060405180830381865afa15801561054f573d6000803e3d6000fd5b505050506040513d601f19601f820116820180604052508101906105739190612587565b61057e90600a61268e565b82828151811061059057610590612571565b602002602001018181525050856001600160a01b031663b3596f078b83815181106105bd576105bd612571565b60200260200101516040518263ffffffff1660e01b81526004016105e191906124de565b602060405180830381865afa1580156105fe573d6000803e3d6000fd5b505050506040513d601f19601f82011682018060405250810190610622919061269d565b83828151811061063457610634612571565b60209081029190910101526001016104f0565b5060005b83811015610823576000888a838151811061066857610668612571565b60200260200101518d61067b9190612525565b610685919061253c565b90508782036106b257808683815181106106a1576106a1612571565b60200260200101818152505061081a565b60008389815181106106c6576106c6612571565b60200260200101518584815181106106e0576106e0612571565b60200260200101518585815181106106fa576106fa612571565b6020026020010151878c8151811061071457610714612571565b6020026020010151856107279190612525565b6107319190612525565b61073b919061253c565b610745919061253c565b905060008c848151811061075b5761075b612571565b60200260200101516001600160a01b03166370a08231306040518263ffffffff1660e01b815260040161078e91906124de565b602060405180830381865afa1580156107ab573d6000803e3d6000fd5b505050506040513d601f19601f820116820180604052508101906107cf919061269d565b90508181101561081757816107e4828261255e565b6107ee9085612525565b6107f8919061253c565b88858151811061080a5761080a612571565b6020026020010181815250505b50505b5060010161064b565b505050509695505050505050565b81516060906000816001600160401b0381111561085057610850611fc4565b604051908082528060200260200182016040528015610879578160200160208202803683370190505b50905060005b8281101561093b57808514610933578581815181106108a0576108a0612571565b60200260200101516001600160a01b03166370a08231306040518263ffffffff1660e01b81526004016108d391906124de565b602060405180830381865afa1580156108f0573d6000803e3d6000fd5b505050506040513d601f19601f82011682018060405250810190610914919061269d565b82828151811061092657610926612571565b6020026020010181815250505b60010161087f565b509150505b92915050565b60405163124fdbb760e21b8152733BEB969c0cd273eA1d7a39137a757Cf1c474510a9063493f6edc9061097d9085906004016124de565b60006040518083038186803b15801561099557600080fd5b505af41580156109a9573d6000803e3d6000fd5b50505050620186a08111156040518060400160405280600f81526020016e53423a2057726f6e672076616c756560881b81525090610a035760405162461bcd60e51b81526004016109fa91906126da565b60405180910390fd5b506040518181527fb5b2a3bc0ef94ce3d822104d87c3cab64bcedd0e1c8a3792d6f2c4ee68e72a7f906020015b60405180910390a15050565b600080610ab585876001600160a01b03166370a08231306040518263ffffffff1660e01b8152600401610a6f91906124de565b602060405180830381865afa158015610a8c573d6000803e3d6000fd5b505050506040513d601f19601f82011682018060405250810190610ab0919061269d565b611433565b90508015610c455760408051808201909152601181527054532d35207a65726f2062616c616e636560781b602082015283610b035760405162461bcd60e51b81526004016109fa91906126da565b50620186a0610b14846101f4612525565b610b1e919061253c565b811115604051806040016040528060158152602001740a8a65a646240cac2e4dccac840e8dede40d0d2ced605b1b81525090610b6d5760405162461bcd60e51b81526004016109fa91906126da565b50610c45846001600160a01b031663fbfa77cf6040518163ffffffff1660e01b8152600401602060405180830381865afa158015610baf573d6000803e3d6000fd5b505050506040513d601f19601f82011682018060405250810190610bd391906124f2565b6001600160a01b03166389cf32046040518163ffffffff1660e01b8152600401602060405180830381865afa158015610c10573d6000803e3d6000fd5b505050506040513d601f19601f82011682018060405250810190610c3491906124f2565b6001600160a01b03881690836113cb565b90505b949350505050565b6000825190506000856001600160a01b031663f645d4f96040518163ffffffff1660e01b8152600401602060405180830381865afa158015610c96573d6000803e3d6000fd5b505050506040513d601f19601f82011682018060405250810190610cba91906124f2565b905060005b82811015610d0c57610d04858281518110610cdc57610cdc612571565b6020026020010151858381518110610cf657610cf6612571565b60200260200101518461144b565b600101610cbf565b50610d1784846114f1565b8094508195505050806001600160a01b0316637e0ddbef8585886001600160a01b031663fbfa77cf6040518163ffffffff1660e01b8152600401602060405180830381865afa158015610d6e573d6000803e3d6000fd5b505050506040513d601f19601f82011682018060405250810190610d9291906124f2565b60016040518563ffffffff1660e01b8152600401610db3949392919061270d565b600060405180830381600087803b158015610dcd57600080fd5b505af1158015610de1573d6000803e3d6000fd5b50505050505050505050565b60405163124fdbb760e21b8152733BEB969c0cd273eA1d7a39137a757Cf1c474510a9063493f6edc90610e249085906004016124de565b60006040518083038186803b158015610e3c57600080fd5b505af4158015610e50573d6000803e3d6000fd5b50505050620186a08111156040518060400160405280600f81526020016e53423a2057726f6e672076616c756560881b81525090610ea15760405162461bcd60e51b81526004016109fa91906126da565b506040518181527fe4166dfcf23bbd3e3f764a99dc8fa740554c03c82d6019b81cf265f396f6f2fe90602001610a30565b606080600080886001600160a01b031663ef5cfb8c306040518263ffffffff1660e01b8152600401610f0491906124de565b6000604051808303816000875af1158015610f23573d6000803e3d6000fd5b505050506040513d6000823e601f3d908101601f19168201604052610f4b919081019061280b565b91509150610f9f878784848c8d516001600160401b03811115610f7057610f70611fc4565b604051908082528060200260200182016040528015610f99578160200160208202803683370190505b506116df565b8151919550935060005b818110156110e25760005b8a518110156110d9578a8181518110610fcf57610fcf612571565b60200260200101516001600160a01b0316878381518110610ff257610ff2612571565b60200260200101516001600160a01b0316036110d15787818151811061101a5761101a612571565b60200260200101518b828151811061103457611034612571565b60200260200101516001600160a01b03166370a08231306040518263ffffffff1660e01b815260040161106791906124de565b602060405180830381865afa158015611084573d6000803e3d6000fd5b505050506040513d601f19601f820116820180604052508101906110a8919061269d565b6110b2919061255e565b8683815181106110c4576110c4612571565b6020026020010181815250505b600101610fb4565b50600101610fa9565b506110ed85856114f1565b909b909a5098505050505050505050565b8451600090606090891590806001600160401b0381111561112157611121611fc4565b60405190808252806020026020018201604052801561114a578160200160208202803683370190505b50925060005b8181101561132c578089146113245760008a828151811061117357611173612571565b60200260200101516001600160a01b03166370a08231306040518263ffffffff1660e01b81526004016111a691906124de565b602060405180830381865afa1580156111c3573d6000803e3d6000fd5b505050506040513d601f19601f820116820180604052508101906111e7919061269d565b90508015611322576000896001600160a01b031663667df2498e8e8e8151811061121357611213612571565b60200260200101518f878151811061122d5761122d612571565b60209081029190910101516040516001600160e01b031960e086901b1681526001600160a01b03938416600482015291831660248301529190911660448201526064810185905260840160408051808303816000875af1158015611295573d6000803e3d6000fd5b505050506040513d601f19601f820116820180604052508101906112b991906128cf565b50905084806112c757508d15155b156112ec57818684815181106112df576112df612571565b6020026020010181815250505b808e116112fa576000611304565b611304818f61255e565b9d5080891161131457600061131e565b61131e818a61255e565b9850505b505b600101611150565b5060008280611339575086155b611379578b15611372576064876113598e680579a814e10a740000612525565b611363919061253c565b61136d919061253c565b611383565b6000611383565b670de0b6b3a76400005b9050806000036113945760006113ba565b6113ba670de0b6b3a76400006113aa8884612525565b6113b4919061253c565b87611433565b945050505097509795505050505050565b6040516001600160a01b03831660248201526044810182905261142e90849063a9059cbb60e01b906064015b60408051601f198184030181529190526020810180516001600160e01b03166001600160e01b031990931692909217909152611c06565b505050565b60008183106114425781611444565b825b9392505050565b604051636eb1769f60e11b81523060048201526001600160a01b03828116602483015283919085169063dd62ed3e90604401602060405180830381865afa15801561149a573d6000803e3d6000fd5b505050506040513d601f19601f820116820180604052508101906114be919061269d565b101561142e576114d96001600160a01b038416826000611cd8565b61142e6001600160a01b03841682600160ff1b611cd8565b60608082518451146040518060400160405280600d81526020016c54532d3139206c656e6774687360981b8152509061153d5760405162461bcd60e51b81526004016109fa91906126da565b508351600090815b8181101561158e5785818151811061155f5761155f612571565b602002602001015160001461157c5782611578816128f3565b9350505b80611586816128f3565b915050611545565b50816001600160401b038111156115a7576115a7611fc4565b6040519080825280602002602001820160405280156115d0578160200160208202803683370190505b509350816001600160401b038111156115eb576115eb611fc4565b604051908082528060200260200182016040528015611614578160200160208202803683370190505b5092506000805b828110156116d457600087828151811061163757611637612571565b60200260200101519050806000146116c15788828151811061165b5761165b612571565b602002602001015187848151811061167557611675612571565b60200260200101906001600160a01b031690816001600160a01b031681525050808684815181106116a8576116a8612571565b6020908102919091010152826116bd816128f3565b9350505b50806116cc816128f3565b91505061161b565b505050509250929050565b60408051600380825260808201909252606091829160009160208201848036833701905050905088518160008151811061171b5761171b612571565b60200260200101818152505086518160018151811061173c5761173c612571565b60200260200101818152505084518160028151811061175d5761175d612571565b60200260200101818152505087518160008151811061177e5761177e612571565b60200260200101511480156117ad57508551816001815181106117a3576117a3612571565b6020026020010151145b80156117d357508351816002815181106117c9576117c9612571565b6020026020010151145b6040518060400160405280600d81526020016c54532d3139206c656e6774687360981b815250906118175760405162461bcd60e51b81526004016109fa91906126da565b5060008160028151811061182d5761182d612571565b60200260200101518260018151811061184857611848612571565b60200260200101518360008151811061186357611863612571565b6020026020010151611875919061290c565b61187f919061290c565b90506000816001600160401b0381111561189b5761189b611fc4565b6040519080825280602002602001820160405280156118c4578160200160208202803683370190505b5090506000826001600160401b038111156118e1576118e1611fc4565b60405190808252806020026020018201604052801561190a578160200160208202803683370190505b5090506000805b6003811015611acc576000811561193657816001146119305789611938565b8b611938565b8d5b9050600082156119565782600114611950578b611958565b8d611958565b8f5b905060005b88848151811061196f5761196f612571565b6020026020010151811015611ab857600083828151811061199257611992612571565b6020026020010151905060008383815181106119b0576119b0612571565b602002602001015190506000805b88811015611a3d578a81815181106119d8576119d8612571565b60200260200101516001600160a01b0316836001600160a01b031603611a2b57838a8281518110611a0b57611a0b612571565b60200260200101818151611a1f919061290c565b90525060019150611a3d565b80611a35816128f3565b9150506119be565b5080611aa257818a8981518110611a5657611a56612571565b60200260200101906001600160a01b031690816001600160a01b03168152505082898981518110611a8957611a89612571565b602090810291909101015287611a9e816128f3565b9850505b5050508080611ab0906128f3565b91505061195d565b50505080611ac5906128f3565b9050611911565b50806001600160401b03811115611ae557611ae5611fc4565b604051908082528060200260200182016040528015611b0e578160200160208202803683370190505b509650806001600160401b03811115611b2957611b29611fc4565b604051908082528060200260200182016040528015611b52578160200160208202803683370190505b50955060005b81811015611bf557838181518110611b7257611b72612571565b6020026020010151888281518110611b8c57611b8c612571565b60200260200101906001600160a01b031690816001600160a01b031681525050828181518110611bbe57611bbe612571565b6020026020010151878281518110611bd857611bd8612571565b602090810291909101015280611bed816128f3565b915050611b58565b505050505050965096945050505050565b6000611c5b826040518060400160405280602081526020017f5361666545524332303a206c6f772d6c6576656c2063616c6c206661696c6564815250856001600160a01b0316611ded9092919063ffffffff16565b80519091501561142e5780806020019051810190611c79919061291f565b61142e5760405162461bcd60e51b815260206004820152602a60248201527f5361666545524332303a204552433230206f7065726174696f6e20646964206e6044820152691bdd081cdd58d8d9595960b21b60648201526084016109fa565b801580611d525750604051636eb1769f60e11b81523060048201526001600160a01b03838116602483015284169063dd62ed3e90604401602060405180830381865afa158015611d2c573d6000803e3d6000fd5b505050506040513d601f19601f82011682018060405250810190611d50919061269d565b155b611dbd5760405162461bcd60e51b815260206004820152603660248201527f5361666545524332303a20617070726f76652066726f6d206e6f6e2d7a65726f60448201527520746f206e6f6e2d7a65726f20616c6c6f77616e636560501b60648201526084016109fa565b6040516001600160a01b03831660248201526044810182905261142e90849063095ea7b360e01b906064016113f7565b6060610c48848460008585600080866001600160a01b03168587604051611e149190612941565b60006040518083038185875af1925050503d8060008114611e51576040519150601f19603f3d011682016040523d82523d6000602084013e611e56565b606091505b5091509150611e6787838387611e72565b979650505050505050565b60608315611ee1578251600003611eda576001600160a01b0385163b611eda5760405162461bcd60e51b815260206004820152601d60248201527f416464726573733a2063616c6c20746f206e6f6e2d636f6e747261637400000060448201526064016109fa565b5081610c48565b610c488383815115611ef65781518083602001fd5b8060405162461bcd60e51b81526004016109fa91906126da565b6001600160a01b0381168114611f2557600080fd5b50565b600080600060608486031215611f3d57600080fd5b8335611f4881611f10565b92506020840135611f5881611f10565b929592945050506040919091013590565b600080600080600060a08688031215611f8157600080fd5b8535611f8c81611f10565b9450602086013593506040860135611fa381611f10565b92506060860135611fb381611f10565b949793965091946080013592915050565b634e487b7160e01b600052604160045260246000fd5b604051601f8201601f191681016001600160401b038111828210171561200257612002611fc4565b604052919050565b60006001600160401b0382111561202357612023611fc4565b5060051b60200190565b600082601f83011261203e57600080fd5b8135602061205361204e8361200a565b611fda565b82815260059290921b8401810191818101908684111561207257600080fd5b8286015b8481101561209657803561208981611f10565b8352918301918301612076565b509695505050505050565b600082601f8301126120b257600080fd5b813560206120c261204e8361200a565b82815260059290921b840181019181810190868411156120e157600080fd5b8286015b8481101561209657803583529183019183016120e5565b60008060008060008060c0878903121561211557600080fd5b8635955060208701356001600160401b038082111561213357600080fd5b61213f8a838b0161202d565b9650604089013591508082111561215557600080fd5b5061216289828a016120a1565b945050606087013592506080870135915060a087013561218181611f10565b809150509295509295509295565b600081518084526020808501945080840160005b838110156121bf578151875295820195908201906001016121a3565b509495945050505050565b602081526000611444602083018461218f565b600080604083850312156121f057600080fd5b82356001600160401b0381111561220657600080fd5b6122128582860161202d565b95602094909401359450505050565b6000806040838503121561223457600080fd5b823561223f81611f10565b946020939093013593505050565b6000806000806080858703121561226357600080fd5b843561226e81611f10565b935060208501359250604085013561228581611f10565b9396929550929360600135925050565b600080600080608085870312156122ab57600080fd5b84356122b681611f10565b935060208501356122c681611f10565b925060408501356001600160401b03808211156122e257600080fd5b6122ee8883890161202d565b9350606087013591508082111561230457600080fd5b50612311878288016120a1565b91505092959194509250565b600080600080600060a0868803121561233557600080fd5b853561234081611f10565b945060208601356001600160401b038082111561235c57600080fd5b61236889838a0161202d565b9550604088013591508082111561237e57600080fd5b61238a89838a0161202d565b945060608801359150808211156123a057600080fd5b6123ac89838a016120a1565b935060808801359150808211156123c257600080fd5b506123cf888289016120a1565b9150509295509295909350565b604080825283519082018190526000906020906060840190828701845b8281101561241e5781516001600160a01b0316845292840192908401906001016123f9565b50505083810382850152612432818661218f565b9695505050505050565b600080600080600080600060e0888a03121561245757600080fd5b87359650602088013561246981611f10565b955060408801356001600160401b0381111561248457600080fd5b6124908a828b0161202d565b9550506060880135935060808801356124a881611f10565b9699959850939692959460a0840135945060c09093013592915050565b828152604060208201526000610c48604083018461218f565b6001600160a01b0391909116815260200190565b60006020828403121561250457600080fd5b815161144481611f10565b634e487b7160e01b600052601160045260246000fd5b80820281158282048414176109405761094061250f565b60008261255957634e487b7160e01b600052601260045260246000fd5b500490565b818103818111156109405761094061250f565b634e487b7160e01b600052603260045260246000fd5b60006020828403121561259957600080fd5b815160ff8116811461144457600080fd5b600181815b808511156125e55781600019048211156125cb576125cb61250f565b808516156125d857918102915b93841c93908002906125af565b509250929050565b6000826125fc57506001610940565b8161260957506000610940565b816001811461261f576002811461262957612645565b6001915050610940565b60ff84111561263a5761263a61250f565b50506001821b610940565b5060208310610133831016604e8410600b8410161715612668575081810a610940565b61267283836125aa565b80600019048211156126865761268661250f565b029392505050565b600061144460ff8416836125ed565b6000602082840312156126af57600080fd5b5051919050565b60005b838110156126d15781810151838201526020016126b9565b50506000910152565b60208152600082518060208401526126f98160408501602087016126b6565b601f01601f19169190910160400192915050565b6080808252855190820181905260009060209060a0840190828901845b8281101561274f5781516001600160a01b03168452928401929084019060010161272a565b5050508381038285015286518082528783019183019060005b8181101561278457835183529284019291840191600101612768565b50506001600160a01b0387166040860152925061279f915050565b821515606083015295945050505050565b600082601f8301126127c157600080fd5b815160206127d161204e8361200a565b82815260059290921b840181019181810190868411156127f057600080fd5b8286015b8481101561209657805183529183019183016127f4565b6000806040838503121561281e57600080fd5b82516001600160401b038082111561283557600080fd5b818501915085601f83011261284957600080fd5b8151602061285961204e8361200a565b82815260059290921b8401810191818101908984111561287857600080fd5b948201945b8386101561289f57855161289081611f10565b8252948201949082019061287d565b918801519196509093505050808211156128b857600080fd5b506128c5858286016127b0565b9150509250929050565b600080604083850312156128e257600080fd5b505080516020909101519092909150565b6000600182016129055761290561250f565b5060010190565b808201808211156109405761094061250f565b60006020828403121561293157600080fd5b8151801515811461144457600080fd5b600082516129538184602087016126b6565b919091019291505056fea2646970667358221220b8c80748b993e41882672c502acd478407f5d243ec632c53810cabc91c6cbf7364736f6c63430008110033",
  "deployedBytecode": "0x73000000000000000000000000000000000000000030146080604052600436106100b35760003560e01c8063a0113d481161007b578063a0113d481461015e578063aac2718a1461017e578063acf741a31461019e578063d2c3cf25146101be578063e99de4da146101de578063ec0cc4fd1461020c57600080fd5b8063142395ef146100b85780631997c9ee146100da5780634923ebc4146100f657806359d0ede61461012b57806397783a6c1461014b575b600080fd5b8180156100c457600080fd5b506100d86100d3366004611f28565b61023a565b005b6100e36101f481565b6040519081526020015b60405180910390f35b81801561010257600080fd5b50610116610111366004611f69565b6102e9565b604080519283526020830191909152016100ed565b61013e6101393660046120fc565b610418565b6040516100ed91906121ca565b61013e6101593660046121dd565b610831565b81801561016a57600080fd5b506100d8610179366004612221565b610946565b81801561018a57600080fd5b506100e361019936600461224d565b610a3c565b8180156101aa57600080fd5b506100d86101b9366004612295565b610c50565b8180156101ca57600080fd5b506100d86101d9366004612221565b610ded565b8180156101ea57600080fd5b506101fe6101f936600461231d565b610ed2565b6040516100ed9291906123dc565b81801561021857600080fd5b5061022c61022736600461243c565b6110fe565b6040516100ed9291906124c5565b60405163124fdbb760e21b815273__$ec217c54da363a68ad871e6868efec481c$__9063493f6edc906102719086906004016124de565b60006040518083038186803b15801561028957600080fd5b505af415801561029d573d6000803e3d6000fd5b5050604080516001600160a01b0386168152602081018590527f297f3fbc14027d2b4a4f7dac3dff2ad6b386024299045b0e163f131bb24b611d935001905060405180910390a1505050565b6000806000856001600160a01b031663fbfa77cf6040518163ffffffff1660e01b8152600401602060405180830381865afa15801561032c573d6000803e3d6000fd5b505050506040513d601f19601f8201168201806040525081019061035091906124f2565b6001600160a01b03166389cf32046040518163ffffffff1660e01b8152600401602060405180830381865afa15801561038d573d6000803e3d6000fd5b505050506040513d601f19601f820116820180604052508101906103b191906124f2565b9050620186a06103c18589612525565b6103cb919061253c565b92506103d7838861255e565b915082156103f3576103f36001600160a01b03891686856113cb565b811561040d5761040d6001600160a01b03891682846113cb565b509550959350505050565b8451606090806001600160401b0381111561043557610435611fc4565b60405190808252806020026020018201604052801561045e578160200160208202803683370190505b5091506000816001600160401b0381111561047b5761047b611fc4565b6040519080825280602002602001820160405280156104a4578160200160208202803683370190505b5090506000826001600160401b038111156104c1576104c1611fc4565b6040519080825280602002602001820160405280156104ea578160200160208202803683370190505b50905060005b838110156106475789818151811061050a5761050a612571565b60200260200101516001600160a01b031663313ce5676040518163ffffffff1660e01b8152600401602060405180830381865afa15801561054f573d6000803e3d6000fd5b505050506040513d601f19601f820116820180604052508101906105739190612587565b61057e90600a61268e565b82828151811061059057610590612571565b602002602001018181525050856001600160a01b031663b3596f078b83815181106105bd576105bd612571565b60200260200101516040518263ffffffff1660e01b81526004016105e191906124de565b602060405180830381865afa1580156105fe573d6000803e3d6000fd5b505050506040513d601f19601f82011682018060405250810190610622919061269d565b83828151811061063457610634612571565b60209081029190910101526001016104f0565b5060005b83811015610823576000888a838151811061066857610668612571565b60200260200101518d61067b9190612525565b610685919061253c565b90508782036106b257808683815181106106a1576106a1612571565b60200260200101818152505061081a565b60008389815181106106c6576106c6612571565b60200260200101518584815181106106e0576106e0612571565b60200260200101518585815181106106fa576106fa612571565b6020026020010151878c8151811061071457610714612571565b6020026020010151856107279190612525565b6107319190612525565b61073b919061253c565b610745919061253c565b905060008c848151811061075b5761075b612571565b60200260200101516001600160a01b03166370a08231306040518263ffffffff1660e01b815260040161078e91906124de565b602060405180830381865afa1580156107ab573d6000803e3d6000fd5b505050506040513d601f19601f820116820180604052508101906107cf919061269d565b90508181101561081757816107e4828261255e565b6107ee9085612525565b6107f8919061253c565b88858151811061080a5761080a612571565b6020026020010181815250505b50505b5060010161064b565b505050509695505050505050565b81516060906000816001600160401b0381111561085057610850611fc4565b604051908082528060200260200182016040528015610879578160200160208202803683370190505b50905060005b8281101561093b57808514610933578581815181106108a0576108a0612571565b60200260200101516001600160a01b03166370a08231306040518263ffffffff1660e01b81526004016108d391906124de565b602060405180830381865afa1580156108f0573d6000803e3d6000fd5b505050506040513d601f19601f82011682018060405250810190610914919061269d565b82828151811061092657610926612571565b6020026020010181815250505b60010161087f565b509150505b92915050565b60405163124fdbb760e21b815273__$ec217c54da363a68ad871e6868efec481c$__9063493f6edc9061097d9085906004016124de565b60006040518083038186803b15801561099557600080fd5b505af41580156109a9573d6000803e3d6000fd5b50505050620186a08111156040518060400160405280600f81526020016e53423a2057726f6e672076616c756560881b81525090610a035760405162461bcd60e51b81526004016109fa91906126da565b60405180910390fd5b506040518181527fb5b2a3bc0ef94ce3d822104d87c3cab64bcedd0e1c8a3792d6f2c4ee68e72a7f906020015b60405180910390a15050565b600080610ab585876001600160a01b03166370a08231306040518263ffffffff1660e01b8152600401610a6f91906124de565b602060405180830381865afa158015610a8c573d6000803e3d6000fd5b505050506040513d601f19601f82011682018060405250810190610ab0919061269d565b611433565b90508015610c455760408051808201909152601181527054532d35207a65726f2062616c616e636560781b602082015283610b035760405162461bcd60e51b81526004016109fa91906126da565b50620186a0610b14846101f4612525565b610b1e919061253c565b811115604051806040016040528060158152602001740a8a65a646240cac2e4dccac840e8dede40d0d2ced605b1b81525090610b6d5760405162461bcd60e51b81526004016109fa91906126da565b50610c45846001600160a01b031663fbfa77cf6040518163ffffffff1660e01b8152600401602060405180830381865afa158015610baf573d6000803e3d6000fd5b505050506040513d601f19601f82011682018060405250810190610bd391906124f2565b6001600160a01b03166389cf32046040518163ffffffff1660e01b8152600401602060405180830381865afa158015610c10573d6000803e3d6000fd5b505050506040513d601f19601f82011682018060405250810190610c3491906124f2565b6001600160a01b03881690836113cb565b90505b949350505050565b6000825190506000856001600160a01b031663f645d4f96040518163ffffffff1660e01b8152600401602060405180830381865afa158015610c96573d6000803e3d6000fd5b505050506040513d601f19601f82011682018060405250810190610cba91906124f2565b905060005b82811015610d0c57610d04858281518110610cdc57610cdc612571565b6020026020010151858381518110610cf657610cf6612571565b60200260200101518461144b565b600101610cbf565b50610d1784846114f1565b8094508195505050806001600160a01b0316637e0ddbef8585886001600160a01b031663fbfa77cf6040518163ffffffff1660e01b8152600401602060405180830381865afa158015610d6e573d6000803e3d6000fd5b505050506040513d601f19601f82011682018060405250810190610d9291906124f2565b60016040518563ffffffff1660e01b8152600401610db3949392919061270d565b600060405180830381600087803b158015610dcd57600080fd5b505af1158015610de1573d6000803e3d6000fd5b50505050505050505050565b60405163124fdbb760e21b815273__$ec217c54da363a68ad871e6868efec481c$__9063493f6edc90610e249085906004016124de565b60006040518083038186803b158015610e3c57600080fd5b505af4158015610e50573d6000803e3d6000fd5b50505050620186a08111156040518060400160405280600f81526020016e53423a2057726f6e672076616c756560881b81525090610ea15760405162461bcd60e51b81526004016109fa91906126da565b506040518181527fe4166dfcf23bbd3e3f764a99dc8fa740554c03c82d6019b81cf265f396f6f2fe90602001610a30565b606080600080886001600160a01b031663ef5cfb8c306040518263ffffffff1660e01b8152600401610f0491906124de565b6000604051808303816000875af1158015610f23573d6000803e3d6000fd5b505050506040513d6000823e601f3d908101601f19168201604052610f4b919081019061280b565b91509150610f9f878784848c8d516001600160401b03811115610f7057610f70611fc4565b604051908082528060200260200182016040528015610f99578160200160208202803683370190505b506116df565b8151919550935060005b818110156110e25760005b8a518110156110d9578a8181518110610fcf57610fcf612571565b60200260200101516001600160a01b0316878381518110610ff257610ff2612571565b60200260200101516001600160a01b0316036110d15787818151811061101a5761101a612571565b60200260200101518b828151811061103457611034612571565b60200260200101516001600160a01b03166370a08231306040518263ffffffff1660e01b815260040161106791906124de565b602060405180830381865afa158015611084573d6000803e3d6000fd5b505050506040513d601f19601f820116820180604052508101906110a8919061269d565b6110b2919061255e565b8683815181106110c4576110c4612571565b6020026020010181815250505b600101610fb4565b50600101610fa9565b506110ed85856114f1565b909b909a5098505050505050505050565b8451600090606090891590806001600160401b0381111561112157611121611fc4565b60405190808252806020026020018201604052801561114a578160200160208202803683370190505b50925060005b8181101561132c578089146113245760008a828151811061117357611173612571565b60200260200101516001600160a01b03166370a08231306040518263ffffffff1660e01b81526004016111a691906124de565b602060405180830381865afa1580156111c3573d6000803e3d6000fd5b505050506040513d601f19601f820116820180604052508101906111e7919061269d565b90508015611322576000896001600160a01b031663667df2498e8e8e8151811061121357611213612571565b60200260200101518f878151811061122d5761122d612571565b60209081029190910101516040516001600160e01b031960e086901b1681526001600160a01b03938416600482015291831660248301529190911660448201526064810185905260840160408051808303816000875af1158015611295573d6000803e3d6000fd5b505050506040513d601f19601f820116820180604052508101906112b991906128cf565b50905084806112c757508d15155b156112ec57818684815181106112df576112df612571565b6020026020010181815250505b808e116112fa576000611304565b611304818f61255e565b9d5080891161131457600061131e565b61131e818a61255e565b9850505b505b600101611150565b5060008280611339575086155b611379578b15611372576064876113598e680579a814e10a740000612525565b611363919061253c565b61136d919061253c565b611383565b6000611383565b670de0b6b3a76400005b9050806000036113945760006113ba565b6113ba670de0b6b3a76400006113aa8884612525565b6113b4919061253c565b87611433565b945050505097509795505050505050565b6040516001600160a01b03831660248201526044810182905261142e90849063a9059cbb60e01b906064015b60408051601f198184030181529190526020810180516001600160e01b03166001600160e01b031990931692909217909152611c06565b505050565b60008183106114425781611444565b825b9392505050565b604051636eb1769f60e11b81523060048201526001600160a01b03828116602483015283919085169063dd62ed3e90604401602060405180830381865afa15801561149a573d6000803e3d6000fd5b505050506040513d601f19601f820116820180604052508101906114be919061269d565b101561142e576114d96001600160a01b038416826000611cd8565b61142e6001600160a01b03841682600160ff1b611cd8565b60608082518451146040518060400160405280600d81526020016c54532d3139206c656e6774687360981b8152509061153d5760405162461bcd60e51b81526004016109fa91906126da565b508351600090815b8181101561158e5785818151811061155f5761155f612571565b602002602001015160001461157c5782611578816128f3565b9350505b80611586816128f3565b915050611545565b50816001600160401b038111156115a7576115a7611fc4565b6040519080825280602002602001820160405280156115d0578160200160208202803683370190505b509350816001600160401b038111156115eb576115eb611fc4565b604051908082528060200260200182016040528015611614578160200160208202803683370190505b5092506000805b828110156116d457600087828151811061163757611637612571565b60200260200101519050806000146116c15788828151811061165b5761165b612571565b602002602001015187848151811061167557611675612571565b60200260200101906001600160a01b031690816001600160a01b031681525050808684815181106116a8576116a8612571565b6020908102919091010152826116bd816128f3565b9350505b50806116cc816128f3565b91505061161b565b505050509250929050565b60408051600380825260808201909252606091829160009160208201848036833701905050905088518160008151811061171b5761171b612571565b60200260200101818152505086518160018151811061173c5761173c612571565b60200260200101818152505084518160028151811061175d5761175d612571565b60200260200101818152505087518160008151811061177e5761177e612571565b60200260200101511480156117ad57508551816001815181106117a3576117a3612571565b6020026020010151145b80156117d357508351816002815181106117c9576117c9612571565b6020026020010151145b6040518060400160405280600d81526020016c54532d3139206c656e6774687360981b815250906118175760405162461bcd60e51b81526004016109fa91906126da565b5060008160028151811061182d5761182d612571565b60200260200101518260018151811061184857611848612571565b60200260200101518360008151811061186357611863612571565b6020026020010151611875919061290c565b61187f919061290c565b90506000816001600160401b0381111561189b5761189b611fc4565b6040519080825280602002602001820160405280156118c4578160200160208202803683370190505b5090506000826001600160401b038111156118e1576118e1611fc4565b60405190808252806020026020018201604052801561190a578160200160208202803683370190505b5090506000805b6003811015611acc576000811561193657816001146119305789611938565b8b611938565b8d5b9050600082156119565782600114611950578b611958565b8d611958565b8f5b905060005b88848151811061196f5761196f612571565b6020026020010151811015611ab857600083828151811061199257611992612571565b6020026020010151905060008383815181106119b0576119b0612571565b602002602001015190506000805b88811015611a3d578a81815181106119d8576119d8612571565b60200260200101516001600160a01b0316836001600160a01b031603611a2b57838a8281518110611a0b57611a0b612571565b60200260200101818151611a1f919061290c565b90525060019150611a3d565b80611a35816128f3565b9150506119be565b5080611aa257818a8981518110611a5657611a56612571565b60200260200101906001600160a01b031690816001600160a01b03168152505082898981518110611a8957611a89612571565b602090810291909101015287611a9e816128f3565b9850505b5050508080611ab0906128f3565b91505061195d565b50505080611ac5906128f3565b9050611911565b50806001600160401b03811115611ae557611ae5611fc4565b604051908082528060200260200182016040528015611b0e578160200160208202803683370190505b509650806001600160401b03811115611b2957611b29611fc4565b604051908082528060200260200182016040528015611b52578160200160208202803683370190505b50955060005b81811015611bf557838181518110611b7257611b72612571565b6020026020010151888281518110611b8c57611b8c612571565b60200260200101906001600160a01b031690816001600160a01b031681525050828181518110611bbe57611bbe612571565b6020026020010151878281518110611bd857611bd8612571565b602090810291909101015280611bed816128f3565b915050611b58565b505050505050965096945050505050565b6000611c5b826040518060400160405280602081526020017f5361666545524332303a206c6f772d6c6576656c2063616c6c206661696c6564815250856001600160a01b0316611ded9092919063ffffffff16565b80519091501561142e5780806020019051810190611c79919061291f565b61142e5760405162461bcd60e51b815260206004820152602a60248201527f5361666545524332303a204552433230206f7065726174696f6e20646964206e6044820152691bdd081cdd58d8d9595960b21b60648201526084016109fa565b801580611d525750604051636eb1769f60e11b81523060048201526001600160a01b03838116602483015284169063dd62ed3e90604401602060405180830381865afa158015611d2c573d6000803e3d6000fd5b505050506040513d601f19601f82011682018060405250810190611d50919061269d565b155b611dbd5760405162461bcd60e51b815260206004820152603660248201527f5361666545524332303a20617070726f76652066726f6d206e6f6e2d7a65726f60448201527520746f206e6f6e2d7a65726f20616c6c6f77616e636560501b60648201526084016109fa565b6040516001600160a01b03831660248201526044810182905261142e90849063095ea7b360e01b906064016113f7565b6060610c48848460008585600080866001600160a01b03168587604051611e149190612941565b60006040518083038185875af1925050503d8060008114611e51576040519150601f19603f3d011682016040523d82523d6000602084013e611e56565b606091505b5091509150611e6787838387611e72565b979650505050505050565b60608315611ee1578251600003611eda576001600160a01b0385163b611eda5760405162461bcd60e51b815260206004820152601d60248201527f416464726573733a2063616c6c20746f206e6f6e2d636f6e747261637400000060448201526064016109fa565b5081610c48565b610c488383815115611ef65781518083602001fd5b8060405162461bcd60e51b81526004016109fa91906126da565b6001600160a01b0381168114611f2557600080fd5b50565b600080600060608486031215611f3d57600080fd5b8335611f4881611f10565b92506020840135611f5881611f10565b929592945050506040919091013590565b600080600080600060a08688031215611f8157600080fd5b8535611f8c81611f10565b9450602086013593506040860135611fa381611f10565b92506060860135611fb381611f10565b949793965091946080013592915050565b634e487b7160e01b600052604160045260246000fd5b604051601f8201601f191681016001600160401b038111828210171561200257612002611fc4565b604052919050565b60006001600160401b0382111561202357612023611fc4565b5060051b60200190565b600082601f83011261203e57600080fd5b8135602061205361204e8361200a565b611fda565b82815260059290921b8401810191818101908684111561207257600080fd5b8286015b8481101561209657803561208981611f10565b8352918301918301612076565b509695505050505050565b600082601f8301126120b257600080fd5b813560206120c261204e8361200a565b82815260059290921b840181019181810190868411156120e157600080fd5b8286015b8481101561209657803583529183019183016120e5565b60008060008060008060c0878903121561211557600080fd5b8635955060208701356001600160401b038082111561213357600080fd5b61213f8a838b0161202d565b9650604089013591508082111561215557600080fd5b5061216289828a016120a1565b945050606087013592506080870135915060a087013561218181611f10565b809150509295509295509295565b600081518084526020808501945080840160005b838110156121bf578151875295820195908201906001016121a3565b509495945050505050565b602081526000611444602083018461218f565b600080604083850312156121f057600080fd5b82356001600160401b0381111561220657600080fd5b6122128582860161202d565b95602094909401359450505050565b6000806040838503121561223457600080fd5b823561223f81611f10565b946020939093013593505050565b6000806000806080858703121561226357600080fd5b843561226e81611f10565b935060208501359250604085013561228581611f10565b9396929550929360600135925050565b600080600080608085870312156122ab57600080fd5b84356122b681611f10565b935060208501356122c681611f10565b925060408501356001600160401b03808211156122e257600080fd5b6122ee8883890161202d565b9350606087013591508082111561230457600080fd5b50612311878288016120a1565b91505092959194509250565b600080600080600060a0868803121561233557600080fd5b853561234081611f10565b945060208601356001600160401b038082111561235c57600080fd5b61236889838a0161202d565b9550604088013591508082111561237e57600080fd5b61238a89838a0161202d565b945060608801359150808211156123a057600080fd5b6123ac89838a016120a1565b935060808801359150808211156123c257600080fd5b506123cf888289016120a1565b9150509295509295909350565b604080825283519082018190526000906020906060840190828701845b8281101561241e5781516001600160a01b0316845292840192908401906001016123f9565b50505083810382850152612432818661218f565b9695505050505050565b600080600080600080600060e0888a03121561245757600080fd5b87359650602088013561246981611f10565b955060408801356001600160401b0381111561248457600080fd5b6124908a828b0161202d565b9550506060880135935060808801356124a881611f10565b9699959850939692959460a0840135945060c09093013592915050565b828152604060208201526000610c48604083018461218f565b6001600160a01b0391909116815260200190565b60006020828403121561250457600080fd5b815161144481611f10565b634e487b7160e01b600052601160045260246000fd5b80820281158282048414176109405761094061250f565b60008261255957634e487b7160e01b600052601260045260246000fd5b500490565b818103818111156109405761094061250f565b634e487b7160e01b600052603260045260246000fd5b60006020828403121561259957600080fd5b815160ff8116811461144457600080fd5b600181815b808511156125e55781600019048211156125cb576125cb61250f565b808516156125d857918102915b93841c93908002906125af565b509250929050565b6000826125fc57506001610940565b8161260957506000610940565b816001811461261f576002811461262957612645565b6001915050610940565b60ff84111561263a5761263a61250f565b50506001821b610940565b5060208310610133831016604e8410600b8410161715612668575081810a610940565b61267283836125aa565b80600019048211156126865761268661250f565b029392505050565b600061144460ff8416836125ed565b6000602082840312156126af57600080fd5b5051919050565b60005b838110156126d15781810151838201526020016126b9565b50506000910152565b60208152600082518060208401526126f98160408501602087016126b6565b601f01601f19169190910160400192915050565b6080808252855190820181905260009060209060a0840190828901845b8281101561274f5781516001600160a01b03168452928401929084019060010161272a565b5050508381038285015286518082528783019183019060005b8181101561278457835183529284019291840191600101612768565b50506001600160a01b0387166040860152925061279f915050565b821515606083015295945050505050565b600082601f8301126127c157600080fd5b815160206127d161204e8361200a565b82815260059290921b840181019181810190868411156127f057600080fd5b8286015b8481101561209657805183529183019183016127f4565b6000806040838503121561281e57600080fd5b82516001600160401b038082111561283557600080fd5b818501915085601f83011261284957600080fd5b8151602061285961204e8361200a565b82815260059290921b8401810191818101908984111561287857600080fd5b948201945b8386101561289f57855161289081611f10565b8252948201949082019061287d565b918801519196509093505050808211156128b857600080fd5b506128c5858286016127b0565b9150509250929050565b600080604083850312156128e257600080fd5b505080516020909101519092909150565b6000600182016129055761290561250f565b5060010190565b808201808211156109405761094061250f565b60006020828403121561293157600080fd5b8151801515811461144457600080fd5b600082516129538184602087016126b6565b919091019291505056fea2646970667358221220b8c80748b993e41882672c502acd478407f5d243ec632c53810cabc91c6cbf7364736f6c63430008110033",
  "libraries": {
    "StrategyLib": "0x3BEB969c0cd273eA1d7a39137a757Cf1c474510a"
  },
  "devdoc": {
    "kind": "dev",
    "methods": {
      "claimConverterRewards(ITetuConverter,address[],address[],uint256[],uint256[])": {
        "details": "The post-processing is rewards conversion to the main asset",
        "params": {
          "amountsOut": "Amounts of available rewards",
          "rewardTokens_": "Amounts of rewards claimed from the internal pool",
          "tokensOut": "List of available rewards - not zero amounts, reward tokens don't repeat",
          "tokens_": "tokens received from {_depositorPoolAssets}"
        }
      },
      "getLiquidityAmount(uint256,address,address[],uint256,ITetuConverter,uint256,uint256)": {
        "details": "This is a writable function with read-only behavior (because of the quote-call)",
        "params": {
          "strategy_": "Address of the strategy",
          "targetAmount_": "Required amount of main asset to be withdrawn from the strategy; 0 - withdraw all"
        },
        "returns": {
          "amountsToConvertOut": "Amounts of {tokens} that should be converted to the main asset",
          "resultAmount": "Amount of liquidity that should be withdrawn from the pool, cannot exceed depositorLiquidity"
        }
      },
      "sendPerformanceFee(address,uint256,address,address,uint256)": {
        "params": {
          "amount_": "Amount of underlying asset to be sent to",
          "asset_": "Underlying asset",
          "ratio": "[0..100_000], 100_000 - send full amount to perf, 0 - send full amount to the insurance.",
          "receiver_": "Performance receiver"
        }
      },
      "sendToInsurance(address,uint256,address,uint256)": {
        "params": {
          "strategyBalance": "Total strategy balance = balance of underlying + current invested assets amount"
        },
        "returns": {
          "_0": "Amount of underlying sent to the insurance"
        }
      }
    },
    "stateVariables": {
      "PRICE_CHANGE_PROFIT_TOLERANCE": {
        "details": "0.5% of max profit for strategy TVL"
      }
    },
    "version": 1
  },
  "userdoc": {
    "events": {
      "OnChangePerformanceFeeRatio(uint256)": {
        "notice": "EVENTS"
      }
    },
    "kind": "user",
    "methods": {
      "PRICE_CHANGE_PROFIT_TOLERANCE()": {
        "notice": "Limit max amount of profit that can be send to insurance after price changing"
      },
      "claimConverterRewards(ITetuConverter,address[],address[],uint256[],uint256[])": {
        "notice": "Claim rewards from tetuConverter, generate result list of all available rewards and airdrops"
      },
      "getAvailableBalances(address[],uint256)": {
        "notice": "Get balances of the {tokens_} except balance of the token at {indexAsset} position"
      },
      "getCollaterals(uint256,address[],uint256[],uint256,uint256,IPriceOracle)": {
        "notice": "For each {token_} calculate a part of {amount_} to be used as collateral according to the weights.         I.e. we have 300 USDC, we need to split it on 100 USDC, 100 USDT, 100 DAI         USDC is main asset, USDT and DAI should be borrowed. We check amounts of USDT and DAI on the balance         and return collaterals reduced on that amounts. For main asset, we return full amount always (100 USDC)."
      },
      "getLiquidityAmount(uint256,address,address[],uint256,ITetuConverter,uint256,uint256)": {
        "notice": "Calculate amount of liquidity that should be withdrawn from the pool to get {targetAmount_}               liquidityAmount = _depositorLiquidity() * {liquidityRatioOut} / 1e18         User needs to withdraw {targetAmount_} in main asset.         There are two kinds of available liquidity:         1) liquidity in the pool - {depositorLiquidity_}         2) Converted amounts on balance of the strategy - {baseAmounts_}         To withdraw {targetAmount_} we need         1) Reconvert converted amounts back to main asset         2) IF result amount is not necessary - withdraw some liquidity from the pool            and also convert it to the main asset."
      },
      "sendPerformanceFee(address,uint256,address,address,uint256)": {
        "notice": "Send {amount_} of {asset_} to {receiver_} and insurance"
      },
      "sendToInsurance(address,uint256,address,uint256)": {
        "notice": "Send given amount of underlying to the insurance"
      }
    },
    "notice": "Continuation of ConverterStrategyBaseLib (workaround for size limits)",
    "version": 1
  },
  "storageLayout": {
    "storage": [],
    "types": null
  }
}