{
  "address": "0x8b3B9714aFe0F4Ff5c7F28e5490D1f8A18957e12",
  "abi": [
    {
      "inputs": [
        {
          "internalType": "address[]",
          "name": "tokens_",
          "type": "address[]"
        },
        {
          "internalType": "uint256",
          "name": "indexAsset",
          "type": "uint256"
        }
      ],
      "name": "getAvailableBalances",
      "outputs": [
        {
          "internalType": "uint256[]",
          "name": "",
          "type": "uint256[]"
        }
      ],
      "stateMutability": "view",
      "type": "function"
    }
  ],
  "transactionHash": "0x7206c88e5e0420b08252fb7c53c4e04b2d31f7434e788dd81696b890c602bdaa",
  "args": [],
  "numDeployments": 2,
  "solcInputHash": "73ee6c07758b6f7906178ce0cc087c46",
  "bytecode": "0x610e8361003a600b82828239805160001a60731461002d57634e487b7160e01b600052600060045260246000fd5b30600052607381538281f3fe730000000000000000000000000000000000000000301460806040526004361061004b5760003560e01c806385f3ecac1461005057806397783a6c14610087578063acf741a3146100a7575b600080fd5b81801561005c57600080fd5b5061007061006b366004610af2565b6100c9565b60405161007e929190610bad565b60405180910390f35b61009a610095366004610bdb565b610275565b60405161007e9190610c20565b8180156100b357600080fd5b506100c76100c2366004610c3a565b61038b565b005b805160609081908067ffffffffffffffff8111156100e9576100e96109b8565b604051908082528060200260200182016040528015610112578160200160208202803683370190505b5092508067ffffffffffffffff81111561012e5761012e6109b8565b604051908082528060200260200182016040528015610157578160200160208202803683370190505b50915060005b8181101561026a57620186a08886838151811061017c5761017c610c6b565b602002602001015161018e9190610c97565b6101989190610cae565b8382815181106101aa576101aa610c6b565b6020026020010181815250508281815181106101c8576101c8610c6b565b60200260200101518582815181106101e2576101e2610c6b565b60200260200101516101f49190610cd0565b84828151811061020657610206610c6b565b6020026020010181815250506102628784838151811061022857610228610c6b565b602002602001015188848151811061024257610242610c6b565b60200260200101516001600160a01b03166105169092919063ffffffff16565b60010161015d565b505094509492505050565b815160609060008167ffffffffffffffff811115610295576102956109b8565b6040519080825280602002602001820160405280156102be578160200160208202803683370190505b50905060005b8281101561038057808514610378578581815181106102e5576102e5610c6b565b60209081029190910101516040516370a0823160e01b81523060048201526001600160a01b03909116906370a0823190602401602060405180830381865afa158015610335573d6000803e3d6000fd5b505050506040513d601f19601f820116820180604052508101906103599190610ce3565b82828151811061036b5761036b610c6b565b6020026020010181815250505b6001016102c4565b509150505b92915050565b6000825190506000856001600160a01b031663f645d4f96040518163ffffffff1660e01b8152600401602060405180830381865afa1580156103d1573d6000803e3d6000fd5b505050506040513d601f19601f820116820180604052508101906103f59190610cfc565b905060005b828110156104475761043f85828151811061041757610417610c6b565b602002602001015185838151811061043157610431610c6b565b60200260200101518461057e565b6001016103fa565b50806001600160a01b0316637e0ddbef8585886001600160a01b031663fbfa77cf6040518163ffffffff1660e01b8152600401602060405180830381865afa158015610497573d6000803e3d6000fd5b505050506040513d601f19601f820116820180604052508101906104bb9190610cfc565b60016040518563ffffffff1660e01b81526004016104dc9493929190610d19565b600060405180830381600087803b1580156104f657600080fd5b505af115801561050a573d6000803e3d6000fd5b50505050505050505050565b6040516001600160a01b03831660248201526044810182905261057990849063a9059cbb60e01b906064015b60408051601f198184030181529190526020810180516001600160e01b03166001600160e01b031990931692909217909152610624565b505050565b604051636eb1769f60e11b81523060048201526001600160a01b03828116602483015283919085169063dd62ed3e90604401602060405180830381865afa1580156105cd573d6000803e3d6000fd5b505050506040513d601f19601f820116820180604052508101906105f19190610ce3565b10156105795761060c6001600160a01b0384168260006106fb565b6105796001600160a01b03841682600160ff1b6106fb565b6000610679826040518060400160405280602081526020017f5361666545524332303a206c6f772d6c6576656c2063616c6c206661696c6564815250856001600160a01b03166108109092919063ffffffff16565b80519091501561057957808060200190518101906106979190610db8565b6105795760405162461bcd60e51b815260206004820152602a60248201527f5361666545524332303a204552433230206f7065726174696f6e20646964206e6044820152691bdd081cdd58d8d9595960b21b60648201526084015b60405180910390fd5b8015806107755750604051636eb1769f60e11b81523060048201526001600160a01b03838116602483015284169063dd62ed3e90604401602060405180830381865afa15801561074f573d6000803e3d6000fd5b505050506040513d601f19601f820116820180604052508101906107739190610ce3565b155b6107e05760405162461bcd60e51b815260206004820152603660248201527f5361666545524332303a20617070726f76652066726f6d206e6f6e2d7a65726f60448201527520746f206e6f6e2d7a65726f20616c6c6f77616e636560501b60648201526084016106f2565b6040516001600160a01b03831660248201526044810182905261057990849063095ea7b360e01b90606401610542565b606061081f8484600085610827565b949350505050565b6060824710156108885760405162461bcd60e51b815260206004820152602660248201527f416464726573733a20696e73756666696369656e742062616c616e636520666f6044820152651c8818d85b1b60d21b60648201526084016106f2565b600080866001600160a01b031685876040516108a49190610dfe565b60006040518083038185875af1925050503d80600081146108e1576040519150601f19603f3d011682016040523d82523d6000602084013e6108e6565b606091505b50915091506108f787838387610902565b979650505050505050565b6060831561097157825160000361096a576001600160a01b0385163b61096a5760405162461bcd60e51b815260206004820152601d60248201527f416464726573733a2063616c6c20746f206e6f6e2d636f6e747261637400000060448201526064016106f2565b508161081f565b61081f83838151156109865781518083602001fd5b8060405162461bcd60e51b81526004016106f29190610e1a565b6001600160a01b03811681146109b557600080fd5b50565b634e487b7160e01b600052604160045260246000fd5b604051601f8201601f1916810167ffffffffffffffff811182821017156109f7576109f76109b8565b604052919050565b600067ffffffffffffffff821115610a1957610a196109b8565b5060051b60200190565b600082601f830112610a3457600080fd5b81356020610a49610a44836109ff565b6109ce565b82815260059290921b84018101918181019086841115610a6857600080fd5b8286015b84811015610a8c578035610a7f816109a0565b8352918301918301610a6c565b509695505050505050565b600082601f830112610aa857600080fd5b81356020610ab8610a44836109ff565b82815260059290921b84018101918181019086841115610ad757600080fd5b8286015b84811015610a8c5780358352918301918301610adb565b60008060008060808587031215610b0857600080fd5b843593506020850135610b1a816109a0565b9250604085013567ffffffffffffffff80821115610b3757600080fd5b610b4388838901610a23565b93506060870135915080821115610b5957600080fd5b50610b6687828801610a97565b91505092959194509250565b600081518084526020808501945080840160005b83811015610ba257815187529582019590820190600101610b86565b509495945050505050565b604081526000610bc06040830185610b72565b8281036020840152610bd28185610b72565b95945050505050565b60008060408385031215610bee57600080fd5b823567ffffffffffffffff811115610c0557600080fd5b610c1185828601610a23565b95602094909401359450505050565b602081526000610c336020830184610b72565b9392505050565b60008060008060808587031215610c5057600080fd5b8435610c5b816109a0565b93506020850135610b1a816109a0565b634e487b7160e01b600052603260045260246000fd5b634e487b7160e01b600052601160045260246000fd5b808202811582820484141761038557610385610c81565b600082610ccb57634e487b7160e01b600052601260045260246000fd5b500490565b8181038181111561038557610385610c81565b600060208284031215610cf557600080fd5b5051919050565b600060208284031215610d0e57600080fd5b8151610c33816109a0565b6080808252855190820181905260009060209060a0840190828901845b82811015610d5b5781516001600160a01b031684529284019290840190600101610d36565b5050508381038285015286518082528783019183019060005b81811015610d9057835183529284019291840191600101610d74565b50506001600160a01b03871660408601529250610dab915050565b8215156060830152610bd2565b600060208284031215610dca57600080fd5b81518015158114610c3357600080fd5b60005b83811015610df5578181015183820152602001610ddd565b50506000910152565b60008251610e10818460208701610dda565b9190910192915050565b6020815260008251806020840152610e39816040850160208701610dda565b601f01601f1916919091016040019291505056fea264697066735822122017535cba6fb307b02e89184971e31b92ac01561e0cb6410c159664deab3044d764736f6c63430008110033",
  "devdoc": {
    "kind": "dev",
    "methods": {
      "sendPerformanceFee(uint256,address,address[],uint256[])": {
        "params": {
          "performanceFee_": "Max is FEE_DENOMINATOR"
        },
        "returns": {
          "performanceAmounts": "Theses amounts were sent to {performanceReceiver_}",
          "rewardAmounts": "= rewardAmounts_ - performanceAmounts"
        }
      }
    },
    "version": 1
  },
  "userdoc": {
    "kind": "user",
    "methods": {
      "getAvailableBalances(address[],uint256)": {
        "notice": "Get balances of the {tokens_} except balance of the token at {indexAsset} position"
      },
      "sendPerformanceFee(uint256,address,address[],uint256[])": {
        "notice": "Send {performanceFee_} of {rewardAmounts_} to {performanceReceiver}"
      }
    },
    "notice": "Continuation of ConverterStrategyBaseLib (workaround for size limits)",
    "version": 1
  },
  "storageLayout": {
    "storage": [],
    "types": null
  }
}