{
  "address": "0x962Fd398B1bF4e871c7424f5a6097e9E8F35Cb39",
  "abi": [
    {
      "anonymous": false,
      "inputs": [
        {
          "indexed": false,
          "internalType": "address",
          "name": "collateralAsset",
          "type": "address"
        },
        {
          "indexed": false,
          "internalType": "address",
          "name": "borrowAsset",
          "type": "address"
        },
        {
          "indexed": false,
          "internalType": "uint256",
          "name": "amountRepay",
          "type": "uint256"
        },
        {
          "indexed": false,
          "internalType": "address",
          "name": "recepient",
          "type": "address"
        },
        {
          "indexed": false,
          "internalType": "uint256",
          "name": "returnedAssetAmountOut",
          "type": "uint256"
        },
        {
          "indexed": false,
          "internalType": "uint256",
          "name": "returnedBorrowAmountOut",
          "type": "uint256"
        }
      ],
      "name": "ClosePosition",
      "type": "event"
    },
    {
      "anonymous": false,
      "inputs": [
        {
          "indexed": false,
          "internalType": "uint256",
          "name": "investedAssetsBefore",
          "type": "uint256"
        },
        {
          "indexed": false,
          "internalType": "uint256",
          "name": "investedAssetsOut",
          "type": "uint256"
        }
      ],
      "name": "FixPriceChanges",
      "type": "event"
    },
    {
      "anonymous": false,
      "inputs": [
        {
          "indexed": false,
          "internalType": "address",
          "name": "tokenIn",
          "type": "address"
        },
        {
          "indexed": false,
          "internalType": "address",
          "name": "tokenOut",
          "type": "address"
        },
        {
          "indexed": false,
          "internalType": "uint256",
          "name": "amountIn",
          "type": "uint256"
        },
        {
          "indexed": false,
          "internalType": "uint256",
          "name": "spentAmountIn",
          "type": "uint256"
        },
        {
          "indexed": false,
          "internalType": "uint256",
          "name": "receivedAmountOut",
          "type": "uint256"
        }
      ],
      "name": "Liquidation",
      "type": "event"
    },
    {
      "anonymous": false,
      "inputs": [
        {
          "indexed": false,
          "internalType": "address",
          "name": "converter",
          "type": "address"
        },
        {
          "indexed": false,
          "internalType": "address",
          "name": "collateralAsset",
          "type": "address"
        },
        {
          "indexed": false,
          "internalType": "uint256",
          "name": "collateralAmount",
          "type": "uint256"
        },
        {
          "indexed": false,
          "internalType": "address",
          "name": "borrowAsset",
          "type": "address"
        },
        {
          "indexed": false,
          "internalType": "uint256",
          "name": "borrowedAmount",
          "type": "uint256"
        },
        {
          "indexed": false,
          "internalType": "address",
          "name": "recepient",
          "type": "address"
        }
      ],
      "name": "OpenPosition",
      "type": "event"
    },
    {
      "anonymous": false,
      "inputs": [
        {
          "indexed": false,
          "internalType": "address",
          "name": "asset",
          "type": "address"
        },
        {
          "indexed": false,
          "internalType": "uint256",
          "name": "amount",
          "type": "uint256"
        }
      ],
      "name": "ReturnAssetToConverter",
      "type": "event"
    },
    {
      "inputs": [
        {
          "internalType": "contract ITetuConverter",
          "name": "converter",
          "type": "ITetuConverter"
        },
        {
          "internalType": "address",
          "name": "token",
          "type": "address"
        }
      ],
      "name": "getAssetPriceFromConverter",
      "outputs": [
        {
          "internalType": "uint256",
          "name": "",
          "type": "uint256"
        }
      ],
      "stateMutability": "view",
      "type": "function"
    }
  ],
  "transactionHash": "0xe0959ab9d78f7d9d6dd985b343a3fe776080784917fb0946acd276f8380c3ec1",
  "args": [],
  "numDeployments": 10,
  "solcInputHash": "6bd7d46da56be05a9d96508884766e30",
  "bytecode": "0x6158ec6200003b600b82828239805160001a60731461002e57634e487b7160e01b600052600060045260246000fd5b30600052607381538281f3fe73000000000000000000000000000000000000000030146080604052600436106100c95760003560e01c8063954d7e7311610086578063954d7e73146101c857806399c1fde4146101e8578063c9bce69014610208578063ca27d10d14610228578063dcb7398e14610248578063ef50284f14610268578063f1f2b5731461029657600080fd5b80631a2221c7146100ce57806358b54f16146101045780636138ea85146101325780637a55caf3146101525780637a9a23e5146101655780637de8f56914610193575b600080fd5b8180156100da57600080fd5b506100ee6100e93660046149c4565b6102b6565b6040516100fb9190614a86565b60405180910390f35b81801561011057600080fd5b5061012461011f366004614a99565b610564565b6040519081526020016100fb565b81801561013e57600080fd5b506100ee61014d366004614b16565b610581565b610124610160366004614b95565b6105db565b81801561017157600080fd5b50610185610180366004614bce565b610715565b6040516100fb929190614ca8565b81801561019f57600080fd5b506101b36101ae366004614cdb565b6107a2565b604080519283526020830191909152016100fb565b8180156101d457600080fd5b506101b36101e3366004614d69565b6107c6565b8180156101f457600080fd5b50610124610203366004614dba565b6107e3565b81801561021457600080fd5b50610124610223366004614e4d565b6109fc565b81801561023457600080fd5b506101b3610243366004614ef3565b610f3e565b81801561025457600080fd5b50610124610263366004614fb3565b610f5f565b81801561027457600080fd5b50610288610283366004614fec565b61101a565b6040516100fb9291906150c3565b8180156102a257600080fd5b506101246102b13660046150e5565b6113ce565b8351606090806001600160401b038111156102d3576102d3614864565b6040519080825280602002602001820160405280156102fc578160200160208202803683370190505b50915060005b818110156104935785811461048b57848181518110610323576103236151ab565b60200260200101516000146103e65761036f878781518110610347576103476151ab565b6020026020010151868381518110610361576103616151ab565b60200260200101518a6114d7565b6103e38860405180602001604052806000815250898981518110610395576103956151ab565b60200260200101518a85815181106103af576103af6151ab565b60200260200101518986815181106103c9576103c96151ab565b60200260200101516103de8a620186a0611582565b611598565b50505b8681815181106103f8576103f86151ab565b60200260200101516001600160a01b03166370a08231306040518263ffffffff1660e01b815260040161042b91906151c1565b602060405180830381865afa158015610448573d6000803e3d6000fd5b505050506040513d601f19601f8201168201806040525081019061046c91906151d5565b83828151811061047e5761047e6151ab565b6020026020010181815250505b600101610302565b5061053c8486815181106104a9576104a96151ab565b60200260200101518787815181106104c3576104c36151ab565b60200260200101516001600160a01b03166370a08231306040518263ffffffff1660e01b81526004016104f691906151c1565b602060405180830381865afa158015610513573d6000803e3d6000fd5b505050506040513d601f19601f8201168201806040525081019061053791906151d5565b611a21565b82868151811061054e5761054e6151ab565b6020026020010181815250505095945050505050565b6000610574878787878787611a30565b90505b9695505050505050565b60606105d284848787516001600160401b038111156105a2576105a2614864565b6040519080825280602002602001820160405280156105cb578160200160208202803683370190505b50866121eb565b95945050505050565b6000826001600160a01b031663f77c47916040518163ffffffff1660e01b8152600401602060405180830381865afa15801561061b573d6000803e3d6000fd5b505050506040513d601f19601f8201168201806040525081019061063f91906151ee565b6001600160a01b0316632630c12f6040518163ffffffff1660e01b8152600401602060405180830381865afa15801561067c573d6000803e3d6000fd5b505050506040513d601f19601f820116820180604052508101906106a091906151ee565b6001600160a01b031663b3596f07836040518263ffffffff1660e01b81526004016106cb91906151c1565b602060405180830381865afa1580156106e8573d6000803e3d6000fd5b505050506040513d601f19601f8201168201806040525081019061070c91906151d5565b90505b92915050565b60608060006107258888886123c8565b90506107348a8a8d84896121eb565b8a5190935060005b8181101561078f57858181518110610756576107566151ab565b6020026020010151878281518110610770576107706151ab565b602002602001018181516107849190615228565b90525060010161073c565b5085925050509850989650505050505050565b6000806107b58a8a8a8a8a8a8a8a6124cf565b915091509850989650505050505050565b6000806107d58686868661264c565b915091505b94509492505050565b6000808688815181106107f8576107f86151ab565b60200260200101519050806001600160a01b03166370a08231306040518263ffffffff1660e01b815260040161082e91906151c1565b602060405180830381865afa15801561084b573d6000803e3d6000fd5b505050506040513d601f19601f8201168201806040525081019061086f91906151d5565b91508882101561098857610916610886838b61523b565b888a878a8a6001600160a01b0316634046ebae6040518163ffffffff1660e01b8152600401602060405180830381865afa1580156108c8573d6000803e3d6000fd5b505050506040513d601f19601f820116820180604052508101906108ec91906151ee565b6001600160a01b038816600090815260208b9052604090205461091161012c80615228565b612773565b50506040516370a0823160e01b81526001600160a01b038216906370a08231906109449030906004016151c1565b602060405180830381865afa158015610961573d6000803e3d6000fd5b505050506040513d601f19601f8201168201806040525081019061098591906151d5565b91505b6109928983611a21565b915081156109ae576109ae6001600160a01b0382168784612936565b604080516001600160a01b0383168152602081018490527f178d2d6770c9dbd24f8d3e4dc08998cad5a42857f107435518f65c761e253bcc910160405180910390a150979650505050505050565b6000610a296040518060800160405280600081526020016060815260200160608152602001606081525090565b8551816000018181525050610b03836001600160a01b031663f77c47916040518163ffffffff1660e01b8152600401602060405180830381865afa158015610a75573d6000803e3d6000fd5b505050506040513d601f19601f82011682018060405250810190610a9991906151ee565b6001600160a01b0316632630c12f6040518163ffffffff1660e01b8152600401602060405180830381865afa158015610ad6573d6000803e3d6000fd5b505050506040513d601f19601f82011682018060405250810190610afa91906151ee565b82518890612999565b6040830152602082015260005b8151811015610e0857848103610b4c57858181518110610b3257610b326151ab565b602002602001015183610b459190615228565b9250610e00565b6000868281518110610b6057610b606151ab565b6020026020010151888381518110610b7a57610b7a6151ab565b60200260200101516001600160a01b03166370a08231306040518263ffffffff1660e01b8152600401610bad91906151c1565b602060405180830381865afa158015610bca573d6000803e3d6000fd5b505050506040513d601f19601f82011682018060405250810190610bee91906151d5565b610bf89190615228565b9050600080866001600160a01b031663dd27ede7308c8b81518110610c1f57610c1f6151ab565b60200260200101518d8881518110610c3957610c396151ab565b602002602001015160006040518563ffffffff1660e01b8152600401610c62949392919061524e565b60408051808303816000875af1158015610c80573d6000803e3d6000fd5b505050506040513d601f19601f82011682018060405250810190610ca49190615278565b9092509050610cb38187615228565b9550818310610d795784604001518481518110610cd257610cd26151ab565b602002602001015185602001518981518110610cf057610cf06151ab565b602002602001015186604001518a81518110610d0e57610d0e6151ab565b602002602001015187602001518781518110610d2c57610d2c6151ab565b60200260200101518587610d40919061523b565b610d4a919061529c565b610d54919061529c565b610d5e91906152b3565b610d6891906152b3565b610d729087615228565b9550610dfc565b846060015151600003610dcf5784516001600160401b03811115610d9f57610d9f614864565b604051908082528060200260200182016040528015610dc8578160200160208202803683370190505b5060608601525b610dd9838361523b565b85606001518581518110610def57610def6151ab565b6020026020010181815250505b5050505b600101610b10565b50805160608201515103610f345760005b8151811015610f325781606001518181518110610e3857610e386151ab565b602002602001015160000315610f2a57600082604001518281518110610e6057610e606151ab565b602002602001015183602001518781518110610e7e57610e7e6151ab565b602002602001015184604001518881518110610e9c57610e9c6151ab565b602002602001015185602001518581518110610eba57610eba6151ab565b602002602001015186606001518681518110610ed857610ed86151ab565b6020026020010151610eea919061529c565b610ef4919061529c565b610efe91906152b3565b610f0891906152b3565b905083811115610f1b5760009350610f28565b610f25818561523b565b93505b505b600101610e19565b505b505b949350505050565b600080610f4f888888888888611598565b915091505b965096945050505050565b600080610f6c8585612b87565b90925090508015610fd957604051630855081f60e01b815260048101839052602481018290526001600160a01b03841690630855081f90604401600060405180830381600087803b158015610fc057600080fd5b505af1158015610fd4573d6000803e3d6000fd5b505050505b60408051868152602081018690527f3e60abe0a0e1f40e1cea1431e7b150cef698f6d8aa08b3d4e445d7a26bd93e2a910160405180910390a1509392505050565b6060600061106f6040518061010001604052806000815260200160008152602001600081526020016000815260200160006001600160a01b031681526020016000815260200160008152602001600081525090565b855160c08201819052855160408051808201909152601281527154532d342077726f6e67206c656e6774687360701b602082015291146110cb5760405162461bcd60e51b81526004016110c29190615325565b60405180910390fd5b506001600160a01b038b166000908152602088905260409020546110f290620186a0611582565b60a082015260c08101516001600160401b0381111561111357611113614864565b60405190808252806020026020018201604052801561113c578160200160208202803683370190505b50925060005b8160c001518110156113be57620186a061115c868261523b565b87838151811061116e5761116e6151ab565b6020026020010151611180919061529c565b61118a91906152b3565b60608301819052620186a0906111a1908d9061529c565b6111ab91906152b3565b6020830152606082015186518790839081106111c9576111c96151ab565b60200260200101516111db919061523b565b604083015286518790829081106111f4576111f46151ab565b6020908102919091018101516001600160a01b031660808401526040830151908301516112219190615228565b808352156113855760001961123a8b8460800151612bb7565b146112dc578b6001600160a01b031682608001516001600160a01b03160361127257604082015161126b9084615228565b9250611385565b60808201516001600160a01b031660009081526020899052604090205461129c90620186a0611582565b8260400151106112d7576112c58d8a84608001518f86604001516113888860a0015160006124cf565b60e0840181905261126b915084615228565b611385565b60808201516001600160a01b031660009081526020899052604090205461130690620186a0611582565b8251106113855761132c8d8a84608001518f86600001516113888860a0015160016124cf565b60e08401525081516060830151875188908490811061134d5761134d6151ab565b602002602001015161135f919061523b565b8360e0015161136e919061529c565b61137891906152b3565b6113829084615228565b92505b81602001518260600151611399919061523b565b8482815181106113ab576113ab6151ab565b6020908102919091010152600101611142565b5050995099975050505050505050565b6000805b895181101561140a578381815181106113ed576113ed6151ab565b6020026020010151826114009190615228565b91506001016113d2565b50600019841415801561143f5750620186a0611428816103e8615228565b611432908661529c565b61143c91906152b3565b81115b156114965761148f86868a8560008e8e8151811061145f5761145f6151ab565b60200260200101516001600160a01b03166001600160a01b03168152602001908152602001600020548d8c612c15565b50506114cb565b8288815181106114a8576114a86151ab565b60200260200101516114be87878b86898f611a30565b6114c89190615228565b90505b98975050505050505050565b604051636eb1769f60e11b81523060048201526001600160a01b03828116602483015283919085169063dd62ed3e90604401602060405180830381865afa158015611526573d6000803e3d6000fd5b505050506040513d601f19601f8201168201806040525081019061154a91906151d5565b101561157d576115656001600160a01b038416826000612fc2565b61157d6001600160a01b03841682600160ff1b612fc2565b505050565b6000818311611591578161070c565b5090919050565b600080826000036115a857600a92505b8284116115ba57506000905080610f54565b6115f36040518060c001604052806000815260200160608152602001606081526020016060815260200160008152602001600081525090565b6115fc886130d7565b8082526000190161161f576116158989898989896130fe565b9250925050610f54565b60405163430ffb1760e01b81526001600160a01b038a169063430ffb1790611656908b908b908a908c906213c68090600401615338565b600060405180830381865afa158015611673573d6000803e3d6000fd5b505050506040513d6000823e601f3d908101601f1916820160405261169b91908101906153d4565b506060840152604083015260208201819052518015611a1a5760005b81811015611a185782516117c757826040015181815181106116db576116db6151ab565b6020026020010151871061170c57826040015181815181106116ff576116ff6151ab565b602002602001015161170e565b865b6080840152604083015180518290811061172a5761172a6151ab565b6020026020010151871061175b578260600151818151811061174e5761174e6151ab565b60200260200101516117ac565b82604001518181518110611771576117716151ab565b60200260200101518784606001518381518110611790576117906151ab565b60200260200101516117a2919061529c565b6117ac91906152b3565b60a084015260808301516117c0908861523b565b96506118c5565b826060015181815181106117dd576117dd6151ab565b6020026020010151871061180e5782606001518181518110611801576118016151ab565b6020026020010151611810565b865b60a0840152606083015180518290811061182c5761182c6151ab565b6020026020010151871061185d5782604001518181518110611850576118506151ab565b60200260200101516118ae565b82606001518181518110611873576118736151ab565b60200260200101518784604001518381518110611892576118926151ab565b60200260200101516118a4919061529c565b6118ae91906152b3565b608084015260a08301516118c2908861523b565b96505b85871080156118d357508615155b156118dd57600096505b60a083015115611a0a578a6001600160a01b0316630adb2d858460200151838151811061190c5761190c6151ab565b60200260200101518b86608001518c8860a00151306040518763ffffffff1660e01b8152600401611942969594939291906154d5565b6020604051808303816000875af1158015611961573d6000803e3d6000fd5b505050506040513d601f19601f8201168201806040525081019061198591906151d5565b61198f9085615228565b93508260800151856119a19190615228565b94507ff63c9c64ebdd1eb99706ca3f7489f7fbdd9c8756363cef40b2fc6e293fa150ec836020015182815181106119da576119da6151ab565b60200260200101518a85608001518b8760a0015130604051611a01969594939291906154d5565b60405180910390a15b8615611a18576001016116b7565b505b5050610f54565b6000818310611591578161070c565b6000821561057757611aa56040518061018001604052806000815260200160006001600160a01b03168152602001600081526020016000815260200160008152602001600081526020016060815260200160008152602001600081526020016060815260200160608152602001600081525090565b828681518110611ab757611ab76151ab565b6020908102919091018101516001600160a01b0316908201819052835182526040516370a0823160e01b81526370a0823190611af79030906004016151c1565b602060405180830381865afa158015611b14573d6000803e3d6000fd5b505050506040513d601f19601f82011682018060405250810190611b3891906151d5565b60a082015260005b81518110156121df578087146121d757886001600160a01b031663dd27ede7308460200151878581518110611b7757611b776151ab565b602002602001015160016040518563ffffffff1660e01b8152600401611ba0949392919061524e565b60408051808303816000875af1158015611bbe573d6000803e3d6000fd5b505050506040513d601f19601f82011682018060405250810190611be29190615278565b61010084015260e08301528351600090859083908110611c0457611c046151ab565b60200260200101516001600160a01b03166370a08231306040518263ffffffff1660e01b8152600401611c3791906151c1565b602060405180830381865afa158015611c54573d6000803e3d6000fd5b505050506040513d601f19601f82011682018060405250810190611c7891906151d5565b90508260e001516000141580611c8d57508015155b156121d55782610120015151600003611d7c57611d6f8a6001600160a01b031663f77c47916040518163ffffffff1660e01b8152600401602060405180830381865afa158015611ce1573d6000803e3d6000fd5b505050506040513d601f19601f82011682018060405250810190611d0591906151ee565b6001600160a01b0316632630c12f6040518163ffffffff1660e01b8152600401602060405180830381865afa158015611d42573d6000803e3d6000fd5b505050506040513d601f19601f82011682018060405250810190611d6691906151ee565b84518790612999565b6101408501526101208401525b60e083015115611f99576000611dab878560e001518661010001518761012001518861014001518e8989613613565b90508015801590611dbf575060a084015115155b15611ecf57611dd2818560a00151611a21565b9050611e418b8b8660200151898781518110611df057611df06151ab565b60200260200101518561012c8e60008e8c81518110611e1157611e116151ab565b60200260200101516001600160a01b03166001600160a01b031681526020019081526020016000205460006124cf565b5080915050858381518110611e5857611e586151ab565b60200260200101516001600160a01b03166370a08231306040518263ffffffff1660e01b8152600401611e8b91906151c1565b602060405180830381865afa158015611ea8573d6000803e3d6000fd5b505050506040513d601f19601f82011682018060405250810190611ecc91906151d5565b91505b80611ef98c8660200151898781518110611eeb57611eeb6151ab565b6020026020010151866137dd565b611f03919061523b565b611f0d9086615228565b9450858381518110611f2157611f216151ab565b60200260200101516001600160a01b03166370a08231306040518263ffffffff1660e01b8152600401611f5491906151c1565b602060405180830381865afa158015611f71573d6000803e3d6000fd5b505050506040513d601f19601f82011682018060405250810190611f9591906151d5565b9150505b80156120b6576000611ff98b8b888681518110611fb857611fb86151ab565b602002602001015187602001518661012c8e60008c602001516001600160a01b03166001600160a01b031681526020019081526020016000205460006124cf565b50905080156120b4578361014001518381518110612019576120196151ab565b60200260200101518461012001518a81518110612038576120386151ab565b60200260200101518561014001518b81518110612057576120576151ab565b60200260200101518661012001518681518110612076576120766151ab565b602002602001015184612089919061529c565b612093919061529c565b61209d91906152b3565b6120a791906152b3565b6120b19086615228565b94505b505b82602001516001600160a01b03166370a08231306040518263ffffffff1660e01b81526004016120e691906151c1565b602060405180830381865afa158015612103573d6000803e3d6000fd5b505050506040513d601f19601f8201168201806040525081019061212791906151d5565b610160840181905260a084015160408051808201909152601681527554532d32302062616c616e636520646563726561736560501b60208201529110156121815760405162461bcd60e51b81526004016110c29190615325565b508260a00151836101600151612197919061523b565b8611156121cf578260a001518361016001516121b3919061523b565b6121bd908761523b565b61016084015160a085015295506121d5565b506121df565b505b600101611b40565b50509695505050505050565b8451606090806001600160401b0381111561220857612208614864565b604051908082528060200260200182016040528015612231578160200160208202803683370190505b50915060005b818110156123bd5786810361228357848181518110612258576122586151ab565b6020026020010151838281518110612272576122726151ab565b6020026020010181815250506123b5565b6000848281518110612297576122976151ab565b60200260200101518683815181106122b1576122b16151ab565b60200260200101516122c39190615228565b905080156123b357866001600160a01b031663667df249308b8b815181106122ed576122ed6151ab565b60200260200101518c8681518110612307576123076151ab565b60209081029190910101516040516001600160e01b031960e086901b1681526001600160a01b03938416600482015291831660248301529190911660448201526064810184905260840160408051808303816000875af115801561236f573d6000803e3d6000fd5b505050506040513d601f19601f820116820180604052508101906123939190615278565b508483815181106123a6576123a66151ab565b6020026020010181815250505b505b600101612237565b505095945050505050565b60606000821561240a57828410156123fc57826123ed85670de0b6b3a764000061529c565b6123f791906152b3565b61240d565b670de0b6b3a764000061240d565b60005b8551909150806001600160401b0381111561242a5761242a614864565b604051908082528060200260200182016040528015612453578160200160208202803683370190505b50925081156124c65760005b818110156124c457670de0b6b3a764000083888381518110612483576124836151ab565b6020026020010151612495919061529c565b61249f91906152b3565b8482815181106124b1576124b16151ab565b602090810291909101015260010161245f565b505b50509392505050565b604051633744088160e11b81526001600160a01b038781166004830152868116602483015260009182918291908b1690636e88110290604401600060405180830381865afa158015612525573d6000803e3d6000fd5b505050506040513d6000823e601f3d908101601f1916820160405261254d9190810190615552565b50805160408051808201909152601a81527f54532d3135204e6f206c69717569646174696f6e20726f75746500000000000060208201529192506125a45760405162461bcd60e51b81526004016110c29190615325565b50604051637cbf210b60e11b81526000906001600160a01b038c169063f97e4216906125d69085908c906004016156cb565b602060405180830381865afa1580156125f3573d6000803e3d6000fd5b505050506040513d601f19601f8201168201806040525081019061261791906151d5565b905085811161262857600080612639565b876126398d848e8e8e8e8e8d61399d565b9350935050509850989650505050505050565b6000806000846001600160a01b03166370a08231306040518263ffffffff1660e01b815260040161267d91906151c1565b602060405180830381865afa15801561269a573d6000803e3d6000fd5b505050506040513d601f19601f820116820180604052508101906126be91906151d5565b90506000876001600160a01b031663dd27ede730898960016040518563ffffffff1660e01b81526004016126f5949392919061524e565b60408051808303816000875af1158015612713573d6000803e3d6000fd5b505050506040513d601f19601f820116820180604052508101906127379190615278565b509050600061275482871061274c578261274e565b865b84611a21565b90506127638989898487613c8d565b9450945050505094509492505050565b60608061279a60405180606001604052806000815260200160608152602001600081525090565b89518082526001600160401b038111156127b6576127b6614864565b6040519080825280602002602001820160405280156127df578160200160208202803683370190505b5060208201525b8051604082015110156128b25789816040015181518110612809576128096151ab565b60200260200101516001600160a01b03166370a08231306040518263ffffffff1660e01b815260040161283c91906151c1565b602060405180830381865afa158015612859573d6000803e3d6000fd5b505050506040513d601f19601f8201168201806040525081019061287d91906151d5565b8160200151826040015181518110612897576128976151ab565b602090810291909101015260408101805160010190526127e6565b6129246040518061012001604052808d81526020018c81526020018b81526020018a6001600160a01b0316815260200183602001518152602001896001600160a01b03168152602001886001600160a01b0316815260200161291788620186a0611582565b8152602001869052613e6e565b909c909b509950505050505050505050565b6040516001600160a01b03831660248201526044810182905261157d90849063a9059cbb60e01b906064015b60408051601f198184030181529190526020810180516001600160e01b03166001600160e01b0319909316929092179091526141f9565b606080826001600160401b038111156129b4576129b4614864565b6040519080825280602002602001820160405280156129dd578160200160208202803683370190505b509150826001600160401b038111156129f8576129f8614864565b604051908082528060200260200182016040528015612a21578160200160208202803683370190505b50905060005b83811015612b7e57848181518110612a4157612a416151ab565b60200260200101516001600160a01b031663313ce5676040518163ffffffff1660e01b8152600401602060405180830381865afa158015612a86573d6000803e3d6000fd5b505050506040513d601f19601f82011682018060405250810190612aaa91906156de565b612ab590600a6157e5565b828281518110612ac757612ac76151ab565b602002602001018181525050856001600160a01b031663b3596f07868381518110612af457612af46151ab565b60200260200101516040518263ffffffff1660e01b8152600401612b1891906151c1565b602060405180830381865afa158015612b35573d6000803e3d6000fd5b505050506040513d601f19601f82011682018060405250810190612b5991906151d5565b838281518110612b6b57612b6b6151ab565b6020908102919091010152600101612a27565b50935093915050565b60008083831115612ba357612b9c848461523b565b9150612bb0565b612bad838561523b565b90505b9250929050565b8151600090815b81811015612c0957836001600160a01b0316858281518110612be257612be26151ab565b60200260200101516001600160a01b031603612c0157915061070f9050565b600101612bbe565b50600019949350505050565b60006060612c626040518060e0016040528060006001600160a01b031681526020016000815260200160008152602001600081526020016000815260200160008152602001600081525090565b848781518110612c7457612c746151ab565b60209081029190910101516001600160a01b03168082526040516370a0823160e01b81526370a0823190612cac9030906004016151c1565b602060405180830381865afa158015612cc9573d6000803e3d6000fd5b505050506040513d601f19601f82011682018060405250810190612ced91906151d5565b60a0820152845160c082015284516001600160401b03811115612d1257612d12614864565b604051908082528060200260200182016040528015612d3b578160200160208202803683370190505b50915060005b8160c00151811015612de35787811480612d745750848181518110612d6857612d686151ab565b60200260200101516000145b612ddb57612dba8a8360000151888481518110612d9357612d936151ab565b6020026020010151888581518110612dad57612dad6151ab565b602002602001015161264c565b9050838281518110612dce57612dce6151ab565b6020026020010181815250505b600101612d41565b5060005b8160c00151811015612f175787811480612e1a5750848181518110612e0e57612e0e6151ab565b60200260200101516000145b612f0f57828181518110612e3057612e306151ab565b6020026020010151858281518110612e4a57612e4a6151ab565b60200260200101511115612f0f57612ec58a8a888481518110612e6f57612e6f6151ab565b60200260200101518560000151878681518110612e8e57612e8e6151ab565b60200260200101518a8781518110612ea857612ea86151ab565b6020026020010151612eba919061523b565b61012c8d60006124cf565b606084018190526040840191909152612ede9085615228565b93508160400151838281518110612ef757612ef76151ab565b60200260200101818151612f0b9190615228565b9052505b600101612de7565b5080516040516370a0823160e01b81526001600160a01b03909116906370a0823190612f479030906004016151c1565b602060405180830381865afa158015612f64573d6000803e3d6000fd5b505050506040513d601f19601f82011682018060405250810190612f8891906151d5565b6080820181905260a082015110612fa0576000612fb4565b8060a001518160800151612fb4919061523b565b925050965096945050505050565b80158061303c5750604051636eb1769f60e11b81523060048201526001600160a01b03838116602483015284169063dd62ed3e90604401602060405180830381865afa158015613016573d6000803e3d6000fd5b505050506040513d601f19601f8201168201806040525081019061303a91906151d5565b155b6130a75760405162461bcd60e51b815260206004820152603660248201527f5361666545524332303a20617070726f76652066726f6d206e6f6e2d7a65726f60448201527520746f206e6f6e2d7a65726f20616c6c6f77616e636560501b60648201526084016110c2565b6040516001600160a01b03831660248201526044810182905261157d90849063095ea7b360e01b90606401612962565b600081516000036130ea57506000919050565b8180602001905181019061070f91906151d5565b6000806131506040518061012001604052806060815260200160608152602001606081526020016000815260200160008152602001600081526020016000815260200160008152602001600081525090565b60405163430ffb1760e01b81526001600160a01b038a169063430ffb1790613187908b908b908a908c906213c68090600401615338565b600060405180830381865afa1580156131a4573d6000803e3d6000fd5b505050506040513d6000823e601f3d908101601f191682016040526131cc91908101906153d4565b5060408401526020830152808252518015613606576000808a8060200190518101906131f891906157f4565b92509250506132088c8b8b6142cb565b61010085015260005b8381101561360257670de0b6b3a764000085604001518281518110613238576132386151ab565b6020026020010151866101000151613250919061529c565b61325a91906152b3565b60c08601819052829061326d908561529c565b61327791906152b3565b60a08601819052602086015180518b92919084908110613299576132996151ab565b60200260200101516132ab9190615228565b116132be57670de0b6b3a7640000613307565b8460a00151856020015182815181106132d9576132d96151ab565b60200260200101516132eb9190615228565b6132fd8a670de0b6b3a764000061529c565b61330791906152b3565b60e0860181905260208601518051670de0b6b3a764000092919084908110613331576133316151ab565b6020026020010151613343919061529c565b61334d91906152b3565b856060018181525050670de0b6b3a76400008560e001518660400151838151811061337a5761337a6151ab565b602002602001015161338c919061529c565b61339691906152b3565b608086015260608501518811806133af57506080850151155b156133f75788888660a00151876020015184815181106133d1576133d16151ab565b60200260200101516133e39190615228565b6133ed9190615228565b11613602576135fa565b84608001518d6001600160a01b0316630adb2d8587600001518481518110613421576134216151ab565b60200260200101518e89606001518f8b60800151306040518763ffffffff1660e01b8152600401613457969594939291906154d5565b6020604051808303816000875af1158015613476573d6000803e3d6000fd5b505050506040513d601f19601f8201168201806040525081019061349a91906151d5565b146040518060400160405280600f81526020016e53423a2057726f6e672076616c756560881b815250906134e15760405162461bcd60e51b81526004016110c29190615325565b507ff63c9c64ebdd1eb99706ca3f7489f7fbdd9c8756363cef40b2fc6e293fa150ec85600001518281518110613519576135196151ab565b60200260200101518c87606001518d896080015130604051613540969594939291906154d5565b60405180910390a160808501516135579087615228565b95508460600151876135699190615228565b9650670de0b6b3a76400008560800151866101000151613589919061529c565b61359391906152b3565b60c0860181905282906135a6908561529c565b6135b091906152b3565b60a0860181905260608601516135c591615228565b89116135d25760006135f0565b84606001518560a001516135e69190615228565b6135f0908a61523b565b9850878910613602575b600101613211565b5050505b5050965096945050505050565b600087156114cb57811561365e57600061362d838a611a21565b90508861363a828a61529c565b61364491906152b3565b61364e908961523b565b975061365a818a61523b565b9850505b6000858581518110613672576136726151ab565b602002602001015187858151811061368c5761368c6151ab565b60200260200101518786815181106136a6576136a66151ab565b60200260200101518988815181106136c0576136c06151ab565b60200260200101516136d2919061529c565b6136e490670de0b6b3a764000061529c565b6136ee91906152b3565b6136f891906152b3565b905088158015906137245750670de0b6b3a7640000896137188a8461529c565b61372291906152b3565b115b61372f57600061377d565b670de0b6b3a7640000896137438a8461529c565b61374d91906152b3565b613757919061523b565b6137618b8a611a21565b61377390670de0b6b3a764000061529c565b61377d91906152b3565b915081156137d057620186a06137aa83836137a08d670de0b6b3a764000061529c565b61053791906152b3565b6137b9620186a06103e8615228565b6137c3919061529c565b6137cd91906152b3565b91505b5098975050505050505050565b600080836001600160a01b03166370a08231306040518263ffffffff1660e01b815260040161380c91906151c1565b602060405180830381865afa158015613829573d6000803e3d6000fd5b505050506040513d601f19601f8201168201806040525081019061384d91906151d5565b90506000866001600160a01b031663dd27ede730888860016040518563ffffffff1660e01b8152600401613884949392919061524e565b60408051808303816000875af11580156138a2573d6000803e3d6000fd5b505050506040513d601f19601f820116820180604052508101906138c69190615278565b50905060006138e28286106138db578261274e565b8584611a21565b60405163667df24960e01b81523060048201526001600160a01b0389811660248301528881166044830152606482018390529192506000918a169063667df2499060840160408051808303816000875af1158015613944573d6000803e3d6000fd5b505050506040513d601f19601f820116820180604052508101906139689190615278565b9095509050808511156139825761397f818661523b565b94505b61398f8989898588613c8d565b505050505050949350505050565b60006139aa8685896114d7565b6040516370a0823160e01b81526000906001600160a01b038716906370a08231906139d99030906004016151c1565b602060405180830381865afa1580156139f6573d6000803e3d6000fd5b505050506040513d601f19601f82011682018060405250810190613a1a91906151d5565b6040516310fe133960e31b81529091506001600160a01b038916906387f099c890613a4d908c9089908990600401615822565b600060405180830381600087803b158015613a6757600080fd5b505af1158015613a7b573d6000803e3d6000fd5b50506040516370a0823160e01b8152600092506001600160a01b03891691506370a0823190613aae9030906004016151c1565b602060405180830381865afa158015613acb573d6000803e3d6000fd5b505050506040513d601f19601f82011682018060405250810190613aef91906151d5565b90508181116040518060400160405280601681526020017554532d32302062616c616e636520646563726561736560501b81525090613b415760405162461bcd60e51b81526004016110c29190615325565b50613b4c828261523b565b92508380613bdc5750604051630a47e27160e21b81526001600160a01b03898116600483015260248201889052888116604483015260648201859052608482018790528c169063291f89c49060a401602060405180830381865afa158015613bb8573d6000803e3d6000fd5b505050506040513d601f19601f82011682018060405250810190613bdc9190615847565b604051806040016040528060128152602001711514cb4c4d881c1c9a58d9481a5b5c1858dd60721b81525090613c255760405162461bcd60e51b81526004016110c29190615325565b50604080516001600160a01b03808b1682528916602082015290810187905260608101879052608081018490527f5a821a618ddb1a1fd304234a69c9d7f20c129d122fcf35593d13a071926643079060a00160405180910390a1505098975050505050505050565b600080613ca46001600160a01b0386168886612936565b6040516314b685e960e21b81526001600160a01b038781166004830152868116602483015260448201869052306064830152600091908916906352da17a4906084016080604051808303816000875af1158015613d05573d6000803e3d6000fd5b505050506040513d601f19601f82011682018060405250810190613d299190615864565b5050604080516001600160a01b03808c1682528a1660208201529081018890523060608201526080810183905260a0810182905291945091507f1d1ba11e7ca20f5dc77d8cfd75b68d11520677808f89f6ba0f0e50dc52c450129060c00160405180910390a16040516370a0823160e01b81526000906001600160a01b038816906370a0823190613dbe9030906004016151c1565b602060405180830381865afa158015613ddb573d6000803e3d6000fd5b505050506040513d601f19601f82011682018060405250810190613dff91906151d5565b9050808511613e0f576000613e19565b613e19818661523b565b60408051808201909152600f81526e53423a2057726f6e672076616c756560881b60208201529093508215613e615760405162461bcd60e51b81526004016110c29190615325565b5050509550959350505050565b606080613e9c6040518060800160405280600081526020016060815260200160608152602001606081525090565b6020840151518082526001600160401b03811115613ebc57613ebc614864565b604051908082528060200260200182016040528015613ee5578160200160208202803683370190505b5081519092506001600160401b03811115613f0257613f02614864565b604051908082528060200260200182016040528015613f2b578160200160208202803683370190505b5092506140048460a001516001600160a01b031663f77c47916040518163ffffffff1660e01b8152600401602060405180830381865afa158015613f73573d6000803e3d6000fd5b505050506040513d601f19601f82011682018060405250810190613f9791906151ee565b6001600160a01b0316632630c12f6040518163ffffffff1660e01b8152600401602060405180830381865afa158015613fd4573d6000803e3d6000fd5b505050506040513d601f19601f82011682018060405250810190613ff891906151ee565b60208601518351612999565b604083015260208201526000805b825181101561412b5785602001518181518110614031576140316151ab565b60200260200101516001600160a01b031686606001516001600160a01b03160361405d57809150614123565b604086015181146141235760008061409486896040015181518110614084576140846151ab565b602002602001015189878661458b565b91509150818784815181106140ab576140ab6151ab565b602002602001018181516140bf9190615228565b905250604088015186518291889181106140db576140db6151ab565b602002602001018181516140ef9190615228565b905250875160408901518751889190811061410c5761410c6151ab565b60200260200101511061412057505061412b565b50505b600101614012565b50846000015183866040015181518110614147576141476151ab565b6020026020010151108015614160575080856040015114155b156141f25760008061419185886040015181518110614181576141816151ab565b602002602001015188868661458b565b91509150818684815181106141a8576141a86151ab565b602002602001018181516141bc9190615228565b905250604087015185518291879181106141d8576141d86151ab565b602002602001018181516141ec9190615228565b90525050505b5050915091565b600061424e826040518060400160405280602081526020017f5361666545524332303a206c6f772d6c6576656c2063616c6c206661696c6564815250856001600160a01b03166147299092919063ffffffff16565b80519091501561157d578080602001905181019061426c9190615847565b61157d5760405162461bcd60e51b815260206004820152602a60248201527f5361666545524332303a204552433230206f7065726174696f6e20646964206e6044820152691bdd081cdd58d8d9595960b21b60648201526084016110c2565b600080846001600160a01b031663f77c47916040518163ffffffff1660e01b8152600401602060405180830381865afa15801561430c573d6000803e3d6000fd5b505050506040513d601f19601f8201168201806040525081019061433091906151ee565b6001600160a01b0316632630c12f6040518163ffffffff1660e01b8152600401602060405180830381865afa15801561436d573d6000803e3d6000fd5b505050506040513d601f19601f8201168201806040525081019061439191906151ee565b90506000816001600160a01b031663b3596f07866040518263ffffffff1660e01b81526004016143c191906151c1565b602060405180830381865afa1580156143de573d6000803e3d6000fd5b505050506040513d601f19601f8201168201806040525081019061440291906151d5565b90506000826001600160a01b031663b3596f07866040518263ffffffff1660e01b815260040161443291906151c1565b602060405180830381865afa15801561444f573d6000803e3d6000fd5b505050506040513d601f19601f8201168201806040525081019061447391906151d5565b9050846001600160a01b031663313ce5676040518163ffffffff1660e01b8152600401602060405180830381865afa1580156144b3573d6000803e3d6000fd5b505050506040513d601f19601f820116820180604052508101906144d791906156de565b6144e290600a6157e5565b82876001600160a01b031663313ce5676040518163ffffffff1660e01b8152600401602060405180830381865afa158015614521573d6000803e3d6000fd5b505050506040513d601f19601f8201168201806040525081019061454591906156de565b61455090600a6157e5565b61456284670de0b6b3a764000061529c565b61456c919061529c565b61457691906152b3565b61458091906152b3565b979650505050505050565b600080846080015183815181106145a4576145a46151ab565b60200260200101516000146107da576000620186a0808761010001516145ca9190615228565b86604001518860400151815181106145e4576145e46151ab565b602002602001015187602001518781518110614602576146026151ab565b602002602001015188604001518881518110614620576146206151ab565b602002602001015189602001518b6040015181518110614642576146426151ab565b60200260200101518c8c6000015161465a919061523b565b614664919061529c565b61466e919061529c565b61467891906152b3565b61468291906152b3565b61468c919061529c565b61469691906152b3565b905061471b8660a001518760c00151886020015187815181106146bb576146bb6151ab565b602002602001015189602001518a60400151815181106146dd576146dd6151ab565b602002602001015161470c868c608001518b815181106146ff576146ff6151ab565b6020026020010151611a21565b61012c8c60e0015160006124cf565b909890975095505050505050565b6060610f36848460008585600080866001600160a01b03168587604051614750919061589a565b60006040518083038185875af1925050503d806000811461478d576040519150601f19603f3d011682016040523d82523d6000602084013e614792565b606091505b5091509150614580878383876060831561480d578251600003614806576001600160a01b0385163b6148065760405162461bcd60e51b815260206004820152601d60248201527f416464726573733a2063616c6c20746f206e6f6e2d636f6e747261637400000060448201526064016110c2565b5081610f36565b610f3683838151156148225781518083602001fd5b8060405162461bcd60e51b81526004016110c29190615325565b6001600160a01b038116811461485157600080fd5b50565b803561485f8161483c565b919050565b634e487b7160e01b600052604160045260246000fd5b604051608081016001600160401b038111828210171561489c5761489c614864565b60405290565b604051601f8201601f191681016001600160401b03811182821017156148ca576148ca614864565b604052919050565b60006001600160401b038211156148eb576148eb614864565b5060051b60200190565b600082601f83011261490657600080fd5b8135602061491b614916836148d2565b6148a2565b82815260059290921b8401810191818101908684111561493a57600080fd5b8286015b8481101561495e5780356149518161483c565b835291830191830161493e565b509695505050505050565b600082601f83011261497a57600080fd5b8135602061498a614916836148d2565b82815260059290921b840181019181810190868411156149a957600080fd5b8286015b8481101561495e57803583529183019183016149ad565b600080600080600060a086880312156149dc57600080fd5b85356149e78161483c565b945060208601356001600160401b0380821115614a0357600080fd5b614a0f89838a016148f5565b9550604088013594506060880135915080821115614a2c57600080fd5b50614a3988828901614969565b95989497509295608001359392505050565b600081518084526020808501945080840160005b83811015614a7b57815187529582019590820190600101614a5f565b509495945050505050565b60208152600061070c6020830184614a4b565b60008060008060008060c08789031215614ab257600080fd5b8635614abd8161483c565b95506020870135614acd8161483c565b945060408701359350606087013592506080870135915060a08701356001600160401b03811115614afd57600080fd5b614b0989828a016148f5565b9150509295509295509295565b60008060008060808587031215614b2c57600080fd5b8435614b378161483c565b935060208501356001600160401b0380821115614b5357600080fd5b614b5f888389016148f5565b9450604087013593506060870135915080821115614b7c57600080fd5b50614b8987828801614969565b91505092959194509250565b60008060408385031215614ba857600080fd5b8235614bb38161483c565b91506020830135614bc38161483c565b809150509250929050565b600080600080600080600080610100898b031215614beb57600080fd5b614bf489614854565b975060208901356001600160401b0380821115614c1057600080fd5b614c1c8c838d016148f5565b985060408b0135975060608b0135915080821115614c3957600080fd5b614c458c838d01614969565b965060808b0135955060a08b0135945060c08b0135915080821115614c6957600080fd5b614c758c838d01614969565b935060e08b0135915080821115614c8b57600080fd5b50614c988b828c01614969565b9150509295985092959890939650565b604081526000614cbb6040830185614a4b565b82810360208401526105d28185614a4b565b801515811461485157600080fd5b600080600080600080600080610100898b031215614cf857600080fd5b8835614d038161483c565b97506020890135614d138161483c565b96506040890135614d238161483c565b95506060890135614d338161483c565b94506080890135935060a0890135925060c0890135915060e0890135614d5881614ccd565b809150509295985092959890939650565b60008060008060808587031215614d7f57600080fd5b8435614d8a8161483c565b93506020850135614d9a8161483c565b92506040850135614daa8161483c565b9396929550929360600135925050565b600080600080600080600060e0888a031215614dd557600080fd5b873596506020880135955060408801356001600160401b03811115614df957600080fd5b614e058a828b016148f5565b9550506060880135614e168161483c565b93506080880135614e268161483c565b925060a0880135614e368161483c565b8092505060c0880135905092959891949750929550565b60008060008060808587031215614e6357600080fd5b84356001600160401b0380821115614e7a57600080fd5b614e86888389016148f5565b95506020870135915080821115614e9c57600080fd5b50614ea987828801614969565b935050604085013591506060850135614ec18161483c565b939692955090935050565b60006001600160401b03821115614ee557614ee5614864565b50601f01601f191660200190565b60008060008060008060c08789031215614f0c57600080fd5b8635614f178161483c565b955060208701356001600160401b03811115614f3257600080fd5b8701601f81018913614f4357600080fd5b8035614f5161491682614ecc565b8181528a6020838501011115614f6657600080fd5b81602084016020830137600060208383010152809750505050614f8b60408801614854565b9350614f9960608801614854565b92506080870135915060a087013590509295509295509295565b600080600060608486031215614fc857600080fd5b83359250602084013591506040840135614fe18161483c565b809150509250925092565b60008060008060008060008060006101208a8c03121561500b57600080fd5b6150148a614854565b985061502260208b01614854565b975060408a0135965060608a01356001600160401b038082111561504557600080fd5b6150518d838e016148f5565b975061505f60808d01614854565b965060a08c0135955060c08c013591508082111561507c57600080fd5b6150888d838e016148f5565b945060e08c013591508082111561509e57600080fd5b506150ab8c828d01614969565b9250506101008a013590509295985092959850929598565b6040815260006150d66040830185614a4b565b90508260208301529392505050565b600080600080600080600080610100898b03121561510257600080fd5b88356001600160401b038082111561511957600080fd5b6151258c838d016148f5565b995060208b0135985060408b013591508082111561514257600080fd5b61514e8c838d01614969565b975061515c60608c01614854565b965061516a60808c01614854565b955060a08b0135945060c08b013591508082111561518757600080fd5b506151948b828c01614969565b92505060e089013590509295985092959890939650565b634e487b7160e01b600052603260045260246000fd5b6001600160a01b0391909116815260200190565b6000602082840312156151e757600080fd5b5051919050565b60006020828403121561520057600080fd5b815161520b8161483c565b9392505050565b634e487b7160e01b600052601160045260246000fd5b8082018082111561070f5761070f615212565b8181038181111561070f5761070f615212565b6001600160a01b039485168152928416602084015292166040820152901515606082015260800190565b6000806040838503121561528b57600080fd5b505080516020909101519092909150565b808202811582820484141761070f5761070f615212565b6000826152d057634e487b7160e01b600052601260045260246000fd5b500490565b60005b838110156152f05781810151838201526020016152d8565b50506000910152565b600081518084526153118160208601602086016152d5565b601f01601f19169290920160200192915050565b60208152600061070c60208301846152f9565b60a08152600061534b60a08301886152f9565b6001600160a01b03968716602084015260408301959095525091909316606082015260800191909152919050565b600082601f83011261538a57600080fd5b8151602061539a614916836148d2565b82815260059290921b840181019181810190868411156153b957600080fd5b8286015b8481101561495e57805183529183019183016153bd565b600080600080608085870312156153ea57600080fd5b84516001600160401b038082111561540157600080fd5b818701915087601f83011261541557600080fd5b81516020615425614916836148d2565b82815260059290921b8401810191818101908b84111561544457600080fd5b948201945b8386101561546b57855161545c8161483c565b82529482019490820190615449565b918a015191985090935050508082111561548457600080fd5b61549088838901615379565b945060408701519150808211156154a657600080fd5b6154b288838901615379565b935060608701519150808211156154c857600080fd5b50614b8987828801615379565b6001600160a01b039687168152948616602086015260408501939093529084166060840152608083015290911660a082015260c00190565b600082601f83011261551e57600080fd5b815161552c61491682614ecc565b81815284602083860101111561554157600080fd5b610f368260208301602087016152d5565b600080604080848603121561556657600080fd5b83516001600160401b038082111561557d57600080fd5b818601915086601f83011261559157600080fd5b815160206155a1614916836148d2565b82815260079290921b8401810191818101908a8411156155c057600080fd5b948201945b8386101561563a576080868c0312156155de5760008081fd5b6155e661487a565b86516155f18161483c565b8152868401516156008161483c565b81850152868801516156118161483c565b818901526060878101516156248161483c565b90820152825260809590950194908201906155c5565b9189015191975090945050508083111561565357600080fd5b50506156618582860161550d565b9150509250929050565b600081518084526020808501945080840160005b83811015614a7b57815180516001600160a01b039081168952848201518116858a01526040808301518216908a015260609182015116908801526080909601959082019060010161567f565b6040815260006150d6604083018561566b565b6000602082840312156156f057600080fd5b815160ff8116811461520b57600080fd5b600181815b8085111561573c57816000190482111561572257615722615212565b8085161561572f57918102915b93841c9390800290615706565b509250929050565b6000826157535750600161070f565b816157605750600061070f565b816001811461577657600281146157805761579c565b600191505061070f565b60ff84111561579157615791615212565b50506001821b61070f565b5060208310610133831016604e8410600b84101617156157bf575081810a61070f565b6157c98383615701565b80600019048211156157dd576157dd615212565b029392505050565b600061070c60ff841683615744565b60008060006060848603121561580957600080fd5b8351925060208401519150604084015190509250925092565b606081526000615835606083018661566b565b60208301949094525060400152919050565b60006020828403121561585957600080fd5b815161520b81614ccd565b6000806000806080858703121561587a57600080fd5b505082516020840151604085015160609095015191969095509092509050565b600082516158ac8184602087016152d5565b919091019291505056fea2646970667358221220223ef41060354c303aa425fdc0d3cd74224fc9f7620d5059e9e80b1e09827a5a64736f6c63430008110033",
  "devdoc": {
    "kind": "dev",
    "methods": {
      "calcInvestedAssets(address[],uint256[],uint256,ITetuConverter)": {
        "details": "This is writable function because we need to update current balances in the internal protocols.",
        "returns": {
          "amountOut": "Invested asset amount under control (in terms of {asset})"
        }
      },
      "closePosition(ITetuConverter,address,address,uint256)": {
        "params": {
          "amountToRepay": "Amount to repay in terms of {borrowAsset}"
        },
        "returns": {
          "repaidAmountOut": "Amount that was actually repaid",
          "returnedAssetAmountOut": "Amount of collateral received back after repaying"
        }
      },
      "closePositionsToGetAmount(ITetuConverter,ITetuLiquidator,uint256,mapping(address => uint256) storage,uint256,address[])": {
        "details": "We assume here that this function is called before closing any positions in the current block",
        "params": {
          "liquidationThresholds": "Min allowed amounts-out for liquidations",
          "requestedAmount": "Requested amount of main asset that should be added to the current balance"
        },
        "returns": {
          "expectedAmount": "Main asset amount expected to be received on balance after all conversions and swaps"
        }
      },
      "getTokenAmounts(ITetuConverter,address[],uint256,uint256[],uint256)": {
        "params": {
          "collaterals_": "Amounts of main asset that can be used as collateral to borrow {tokens_}",
          "thresholdMainAsset_": "Value of liquidation threshold for the main (collateral) asset",
          "tokens_": "Tokens received from {_depositorPoolAssets}"
        },
        "returns": {
          "tokenAmountsOut": "Amounts available for deposit"
        }
      },
      "liquidate(ITetuConverter,ITetuLiquidator,address,address,uint256,uint256,uint256,bool)": {
        "params": {
          "receivedAmountOut": "Amount of {tokenOut_} has been returned by the liquidator",
          "skipValidation": "Don't check correctness of conversion using TetuConverter's oracle (i.e. for reward tokens)",
          "spentAmountIn": "Amount of {tokenIn} has been consumed by the liquidator"
        }
      },
      "makeRequestedAmount(address[],uint256,uint256[],ITetuConverter,ITetuLiquidator,uint256,uint256[],mapping(address => uint256) storage)": {
        "params": {
          "amountsToConvert_": "Amounts available for conversion after withdrawing from the pool",
          "expectedMainAssetAmounts": "Amounts of main asset that we expect to receive after conversion amountsToConvert_",
          "indexAsset_": "Index of main {asset} in {tokens}",
          "requestedAmount": "Amount to be withdrawn in terms of the asset in addition to the exist balance.        Max uint means attempt to withdraw all possible invested assets.",
          "tokens_": "Results of _depositorPoolAssets() call (list of depositor's asset in proper order)"
        },
        "returns": {
          "expectedAmount": "Expected total amount of main asset after all conversions, swaps and repays"
        }
      },
      "openPosition(ITetuConverter,bytes,address,address,uint256,uint256)": {
        "params": {
          "amountIn_": "Meaning depends on {entryData_}.",
          "entryData_": "Encoded entry kind and additional params if necessary (set of params depends on the kind)                   See TetuConverter\\EntryKinds.sol\\ENTRY_KIND_XXX constants for possible entry kinds                   0 or empty: Amount of collateral {amountIn_} is fixed, amount of borrow should be max possible."
        }
      },
      "postWithdrawActions(ITetuConverter,address[],uint256,uint256[],uint256,uint256,uint256[],uint256[])": {
        "params": {
          "amountsToConvert": "Amounts of {tokens} to be converted, they are located on the balance before withdraw",
          "withdrawnAmounts": "Amounts of {tokens} that were withdrew from the pool"
        }
      },
      "recycle(ITetuConverter,address,uint256,address[],ITetuLiquidator,mapping(address => uint256) storage,address[],uint256[],uint256)": {
        "params": {
          "asset": "Underlying asset",
          "compoundRatio": "Compound ration in the range [0...COMPOUND_DENOMINATOR]",
          "liquidationThresholds": "Liquidation thresholds for rewards tokens",
          "performanceFee": "Performance fee in the range [0...FEE_DENOMINATOR]",
          "rewardAmounts": "Amounts of {rewardTokens_}; we assume, there are no zero amounts here",
          "rewardTokens": "Full list of reward tokens received from tetuConverter and depositor",
          "tokens": "tokens received from {_depositorPoolAssets}"
        },
        "returns": {
          "amountToPerformanceAndInsurance": "Amount of underlying to be sent to performance receiver and insurance",
          "amountsToForward": "Amounts of {rewardTokens} to be sent to forwarder, zero amounts are allowed here"
        }
      },
      "swapToGivenAmountAndSendToConverter(uint256,uint256,address[],address,address,address,mapping(address => uint256) storage)": {
        "params": {
          "amount_": "Amount of the main asset requested by converter",
          "asset": "Main asset or underlying (it can be different from tokens[indexTheAsset])",
          "indexTheAsset": "Index of the asset required by converter in the {tokens}"
        },
        "returns": {
          "amountOut": "Amount of the main asset sent to converter"
        }
      }
    },
    "stateVariables": {
      "DEFAULT_LIQUIDATION_THRESHOLD": {
        "details": "Absolute value for any token"
      },
      "GAP_CONVERSION": {
        "details": "We assume that: conversion-result-calculated-by-prices - liquidation-result <= the-gap"
      }
    },
    "version": 1
  },
  "userdoc": {
    "events": {
      "ClosePosition(address,address,uint256,address,uint256,uint256)": {
        "notice": "Some borrow(s) was/were repaid"
      },
      "Liquidation(address,address,uint256,uint256,uint256)": {
        "notice": "A liquidation was made"
      },
      "OpenPosition(address,address,uint256,address,uint256,address)": {
        "notice": "A borrow was made"
      }
    },
    "kind": "user",
    "methods": {
      "calcInvestedAssets(address[],uint256[],uint256,ITetuConverter)": {
        "notice": "Calculate amount we will receive when we withdraw all from pool"
      },
      "closePosition(ITetuConverter,address,address,uint256)": {
        "notice": "Close the given position, pay {amountToRepay}, return collateral amount in result"
      },
      "closePositionsToGetAmount(ITetuConverter,ITetuLiquidator,uint256,mapping(address => uint256) storage,uint256,address[])": {
        "notice": "Close debts (if it's allowed) in converter until we don't have {requestedAmount} on balance"
      },
      "coverPossibleStrategyLoss(uint256,uint256,address)": {
        "notice": "Register income and cover possible loss"
      },
      "getTokenAmounts(ITetuConverter,address[],uint256,uint256[],uint256)": {
        "notice": "Make borrow and save amounts of tokens available for deposit to tokenAmounts"
      },
      "liquidate(ITetuConverter,ITetuLiquidator,address,address,uint256,uint256,uint256,bool)": {
        "notice": "Make liquidation if estimated amountOut exceeds the given threshold"
      },
      "makeRequestedAmount(address[],uint256,uint256[],ITetuConverter,ITetuLiquidator,uint256,uint256[],mapping(address => uint256) storage)": {
        "notice": "Convert {amountsToConvert_} to the main {asset}         Swap leftovers (if any) to the main asset.         If result amount is less than expected, try to close any other available debts (1 repay per block only)"
      },
      "openPosition(ITetuConverter,bytes,address,address,uint256,uint256)": {
        "notice": "Make one or several borrow necessary to supply/borrow required {amountIn_} according to {entryData_}         Max possible collateral should be approved before calling of this function."
      },
      "postWithdrawActions(ITetuConverter,address[],uint256,uint256[],uint256,uint256,uint256[],uint256[])": {
        "notice": "Add {withdrawnAmounts} to {amountsToConvert}, calculate {expectedAmountMainAsset}"
      },
      "postWithdrawActionsEmpty(ITetuConverter,address[],uint256,uint256[])": {
        "notice": "return {withdrawnAmounts} with zero values and expected amount calculated using {amountsToConvert_}"
      },
      "recycle(ITetuConverter,address,uint256,address[],ITetuLiquidator,mapping(address => uint256) storage,address[],uint256[],uint256)": {
        "notice": "Recycle the amounts: split each amount on tree parts: performance+insurance (P), forwarder (F), compound (C)         Liquidate P+C, send F to the forwarder. We have two kinds of rewards: 1) rewards in depositor's assets (the assets returned by _depositorPoolAssets) 2) any other rewards All received rewards divided on three parts: to performance receiver+insurance, to forwarder, to compound   Compound-part of Rewards-2 can be liquidated   Compound part of Rewards-1 should be just left on the balance   All forwarder-parts are returned in amountsToForward and should be transferred to the forwarder outside.   Performance amounts are liquidated, result amount of underlying is returned in {amountToPerformanceAndInsurance}"
      }
    },
    "version": 1
  },
  "storageLayout": {
    "storage": [],
    "types": null
  }
}