{
  "address": "0x3A986013f2b9772415F7b4433a904ae271688f1B",
  "abi": [
    {
      "anonymous": false,
      "inputs": [
        {
          "indexed": false,
          "internalType": "address",
          "name": "collateralAsset",
          "type": "address"
        },
        {
          "indexed": false,
          "internalType": "address",
          "name": "borrowAsset",
          "type": "address"
        },
        {
          "indexed": false,
          "internalType": "uint256",
          "name": "amountRepay",
          "type": "uint256"
        },
        {
          "indexed": false,
          "internalType": "address",
          "name": "recepient",
          "type": "address"
        },
        {
          "indexed": false,
          "internalType": "uint256",
          "name": "returnedAssetAmountOut",
          "type": "uint256"
        },
        {
          "indexed": false,
          "internalType": "uint256",
          "name": "returnedBorrowAmountOut",
          "type": "uint256"
        }
      ],
      "name": "ClosePosition",
      "type": "event"
    },
    {
      "anonymous": false,
      "inputs": [
        {
          "indexed": false,
          "internalType": "address",
          "name": "tokenIn",
          "type": "address"
        },
        {
          "indexed": false,
          "internalType": "address",
          "name": "tokenOut",
          "type": "address"
        },
        {
          "indexed": false,
          "internalType": "uint256",
          "name": "amountIn",
          "type": "uint256"
        },
        {
          "indexed": false,
          "internalType": "uint256",
          "name": "spentAmountIn",
          "type": "uint256"
        },
        {
          "indexed": false,
          "internalType": "uint256",
          "name": "receivedAmountOut",
          "type": "uint256"
        }
      ],
      "name": "Liquidation",
      "type": "event"
    },
    {
      "anonymous": false,
      "inputs": [
        {
          "indexed": false,
          "internalType": "address",
          "name": "converter",
          "type": "address"
        },
        {
          "indexed": false,
          "internalType": "address",
          "name": "collateralAsset",
          "type": "address"
        },
        {
          "indexed": false,
          "internalType": "uint256",
          "name": "collateralAmount",
          "type": "uint256"
        },
        {
          "indexed": false,
          "internalType": "address",
          "name": "borrowAsset",
          "type": "address"
        },
        {
          "indexed": false,
          "internalType": "uint256",
          "name": "borrowedAmount",
          "type": "uint256"
        },
        {
          "indexed": false,
          "internalType": "address",
          "name": "recepient",
          "type": "address"
        }
      ],
      "name": "OpenPosition",
      "type": "event"
    },
    {
      "anonymous": false,
      "inputs": [
        {
          "indexed": false,
          "internalType": "address",
          "name": "asset",
          "type": "address"
        },
        {
          "indexed": false,
          "internalType": "uint256",
          "name": "amount",
          "type": "uint256"
        }
      ],
      "name": "ReturnAssetToConverter",
      "type": "event"
    },
    {
      "inputs": [
        {
          "internalType": "contract ITetuConverter",
          "name": "converter",
          "type": "ITetuConverter"
        },
        {
          "internalType": "address",
          "name": "token",
          "type": "address"
        }
      ],
      "name": "getAssetPriceFromConverter",
      "outputs": [
        {
          "internalType": "uint256",
          "name": "",
          "type": "uint256"
        }
      ],
      "stateMutability": "view",
      "type": "function"
    }
  ],
  "transactionHash": "0x600c463fe54c4781ca19832be4b8d15bb665c8a04cb7c7264b23eae6fed0f88d",
  "args": [],
  "numDeployments": 9,
  "solcInputHash": "a5be390281433c3c08945b536a65e5ac",
  "bytecode": "0x6156676200003b600b82828239805160001a60731461002e57634e487b7160e01b600052600060045260246000fd5b30600052607381538281f3fe73000000000000000000000000000000000000000030146080604052600436106100be5760003560e01c80637de8f5691161007b5780637de8f569146101b6578063954d7e73146101eb57806399c1fde41461020b578063c9bce6901461022b578063ca27d10d1461024b578063ef50284f1461026b57600080fd5b80631a2221c7146100c35780632c4cf7a3146100f957806358b54f16146101275780636138ea85146101555780637a55caf3146101755780637a9a23e514610188575b600080fd5b8180156100cf57600080fd5b506100e36100de366004614798565b610299565b6040516100f0919061485a565b60405180910390f35b81801561010557600080fd5b5061011961011436600461486d565b610547565b6040516100f0929190614907565b81801561013357600080fd5b50610147610142366004614920565b6108f5565b6040519081526020016100f0565b81801561016157600080fd5b506100e3610170366004614990565b6110ba565b610147610183366004614a0f565b611114565b81801561019457600080fd5b506101a86101a3366004614a48565b61124e565b6040516100f0929190614b22565b8180156101c257600080fd5b506101d66101d1366004614b55565b6112db565b604080519283526020830191909152016100f0565b8180156101f757600080fd5b506101d6610206366004614be3565b6112ff565b81801561021757600080fd5b50610147610226366004614c34565b61131c565b81801561023757600080fd5b50610147610246366004614cc7565b611535565b81801561025757600080fd5b506101d6610266366004614d6d565b611a77565b81801561027757600080fd5b5061028b610286366004614e2d565b611a97565b6040516100f0929190614f04565b8351606090806001600160401b038111156102b6576102b6614638565b6040519080825280602002602001820160405280156102df578160200160208202803683370190505b50915060005b818110156104765785811461046e5784818151811061030657610306614f26565b60200260200101516000146103c95761035287878151811061032a5761032a614f26565b602002602001015186838151811061034457610344614f26565b60200260200101518a611e42565b6103c6886040518060200160405280600081525089898151811061037857610378614f26565b60200260200101518a858151811061039257610392614f26565b60200260200101518986815181106103ac576103ac614f26565b60200260200101516103c18a620186a0611eed565b611f03565b50505b8681815181106103db576103db614f26565b60200260200101516001600160a01b03166370a08231306040518263ffffffff1660e01b815260040161040e9190614f3c565b602060405180830381865afa15801561042b573d6000803e3d6000fd5b505050506040513d601f19601f8201168201806040525081019061044f9190614f50565b83828151811061046157610461614f26565b6020026020010181815250505b6001016102e5565b5061051f84868151811061048c5761048c614f26565b60200260200101518787815181106104a6576104a6614f26565b60200260200101516001600160a01b03166370a08231306040518263ffffffff1660e01b81526004016104d99190614f3c565b602060405180830381865afa1580156104f6573d6000803e3d6000fd5b505050506040513d601f19601f8201168201806040525081019061051a9190614f50565b61238c565b82868151811061053157610531614f26565b6020026020010181815250505095945050505050565b600060606105946040518060e0016040528060006001600160a01b031681526020016000815260200160008152602001600081526020016000815260200160008152602001600081525090565b8487815181106105a6576105a6614f26565b60209081029190910101516001600160a01b03168082526040516370a0823160e01b81526370a08231906105de903090600401614f3c565b602060405180830381865afa1580156105fb573d6000803e3d6000fd5b505050506040513d601f19601f8201168201806040525081019061061f9190614f50565b60a0820152845160c082015284516001600160401b0381111561064457610644614638565b60405190808252806020026020018201604052801561066d578160200160208202803683370190505b50915060005b8160c0015181101561071557878114806106a6575084818151811061069a5761069a614f26565b60200260200101516000145b61070d576106ec8a83600001518884815181106106c5576106c5614f26565b60200260200101518885815181106106df576106df614f26565b602002602001015161239b565b905083828151811061070057610700614f26565b6020026020010181815250505b600101610673565b5060005b8160c00151811015610849578781148061074c575084818151811061074057610740614f26565b60200260200101516000145b6108415782818151811061076257610762614f26565b602002602001015185828151811061077c5761077c614f26565b60200260200101511115610841576107f78a8a8884815181106107a1576107a1614f26565b602002602001015185600001518786815181106107c0576107c0614f26565b60200260200101518a87815181106107da576107da614f26565b60200260200101516107ec9190614f7f565b61012c8d60006124c2565b6060840181905260408401919091526108109085614f92565b9350816040015183828151811061082957610829614f26565b6020026020010181815161083d9190614f92565b9052505b600101610719565b5080516040516370a0823160e01b81526001600160a01b03909116906370a0823190610879903090600401614f3c565b602060405180830381865afa158015610896573d6000803e3d6000fd5b505050506040513d601f19601f820116820180604052508101906108ba9190614f50565b6080820181905260a0820151106108d25760006108e6565b8060a0015181608001516108e69190614f7f565b9250505b965096945050505050565b600082156110b05761096a6040518061018001604052806000815260200160006001600160a01b03168152602001600081526020016000815260200160008152602001600081526020016060815260200160008152602001600081526020016060815260200160608152602001600081525090565b82868151811061097c5761097c614f26565b6020908102919091018101516001600160a01b0316908201819052835182526040516370a0823160e01b81526370a08231906109bc903090600401614f3c565b602060405180830381865afa1580156109d9573d6000803e3d6000fd5b505050506040513d601f19601f820116820180604052508101906109fd9190614f50565b60a082015260005b81518110156110ad578087146110a557886001600160a01b031663dd27ede7308460200151878581518110610a3c57610a3c614f26565b602002602001015160016040518563ffffffff1660e01b8152600401610a659493929190614fa5565b60408051808303816000875af1158015610a83573d6000803e3d6000fd5b505050506040513d601f19601f82011682018060405250810190610aa79190614fcf565b61010084015260e08301528351600090859083908110610ac957610ac9614f26565b60200260200101516001600160a01b03166370a08231306040518263ffffffff1660e01b8152600401610afc9190614f3c565b602060405180830381865afa158015610b19573d6000803e3d6000fd5b505050506040513d601f19601f82011682018060405250810190610b3d9190614f50565b90508260e001516000141580610b5257508015155b156110a35782610120015151600003610c4157610c348a6001600160a01b031663f77c47916040518163ffffffff1660e01b8152600401602060405180830381865afa158015610ba6573d6000803e3d6000fd5b505050506040513d601f19601f82011682018060405250810190610bca9190614ff3565b6001600160a01b0316632630c12f6040518163ffffffff1660e01b8152600401602060405180830381865afa158015610c07573d6000803e3d6000fd5b505050506040513d601f19601f82011682018060405250810190610c2b9190614ff3565b8451879061263f565b6101408501526101208401525b60e083015115610e5e576000610c70878560e001518661010001518761012001518861014001518e898961282d565b90508015801590610c84575060a084015115155b15610d9457610c97818560a0015161238c565b9050610d068b8b8660200151898781518110610cb557610cb5614f26565b60200260200101518561012c8e60008e8c81518110610cd657610cd6614f26565b60200260200101516001600160a01b03166001600160a01b031681526020019081526020016000205460006124c2565b5080915050858381518110610d1d57610d1d614f26565b60200260200101516001600160a01b03166370a08231306040518263ffffffff1660e01b8152600401610d509190614f3c565b602060405180830381865afa158015610d6d573d6000803e3d6000fd5b505050506040513d601f19601f82011682018060405250810190610d919190614f50565b91505b80610dbe8c8660200151898781518110610db057610db0614f26565b6020026020010151866129f8565b610dc89190614f7f565b610dd29086614f92565b9450858381518110610de657610de6614f26565b60200260200101516001600160a01b03166370a08231306040518263ffffffff1660e01b8152600401610e199190614f3c565b602060405180830381865afa158015610e36573d6000803e3d6000fd5b505050506040513d601f19601f82011682018060405250810190610e5a9190614f50565b9150505b8015610f7b576000610ebe8b8b888681518110610e7d57610e7d614f26565b602002602001015187602001518661012c8e60008c602001516001600160a01b03166001600160a01b031681526020019081526020016000205460006124c2565b5090508015610f79578361014001518381518110610ede57610ede614f26565b60200260200101518461012001518a81518110610efd57610efd614f26565b60200260200101518561014001518b81518110610f1c57610f1c614f26565b60200260200101518661012001518681518110610f3b57610f3b614f26565b602002602001015184610f4e9190615017565b610f589190615017565b610f62919061502e565b610f6c919061502e565b610f769086614f92565b94505b505b82602001516001600160a01b03166370a08231306040518263ffffffff1660e01b8152600401610fab9190614f3c565b602060405180830381865afa158015610fc8573d6000803e3d6000fd5b505050506040513d601f19601f82011682018060405250810190610fec9190614f50565b610160840181905260a084015160408051808201909152601681527554532d32302062616c616e636520646563726561736560501b602082015291101561104f5760405162461bcd60e51b815260040161104691906150a0565b60405180910390fd5b508260a001518361016001516110659190614f7f565b86111561109d578260a001518361016001516110819190614f7f565b61108b9087614f7f565b61016084015160a085015295506110a3565b506110ad565b505b600101610a05565b50505b9695505050505050565b606061110b84848787516001600160401b038111156110db576110db614638565b604051908082528060200260200182016040528015611104578160200160208202803683370190505b5086612bb8565b95945050505050565b6000826001600160a01b031663f77c47916040518163ffffffff1660e01b8152600401602060405180830381865afa158015611154573d6000803e3d6000fd5b505050506040513d601f19601f820116820180604052508101906111789190614ff3565b6001600160a01b0316632630c12f6040518163ffffffff1660e01b8152600401602060405180830381865afa1580156111b5573d6000803e3d6000fd5b505050506040513d601f19601f820116820180604052508101906111d99190614ff3565b6001600160a01b031663b3596f07836040518263ffffffff1660e01b81526004016112049190614f3c565b602060405180830381865afa158015611221573d6000803e3d6000fd5b505050506040513d601f19601f820116820180604052508101906112459190614f50565b90505b92915050565b606080600061125e888888612d95565b905061126d8a8a8d8489612bb8565b8a5190935060005b818110156112c85785818151811061128f5761128f614f26565b60200260200101518782815181106112a9576112a9614f26565b602002602001018181516112bd9190614f92565b905250600101611275565b5085925050509850989650505050505050565b6000806112ee8a8a8a8a8a8a8a8a6124c2565b915091509850989650505050505050565b60008061130e8686868661239b565b915091505b94509492505050565b60008086888151811061133157611331614f26565b60200260200101519050806001600160a01b03166370a08231306040518263ffffffff1660e01b81526004016113679190614f3c565b602060405180830381865afa158015611384573d6000803e3d6000fd5b505050506040513d601f19601f820116820180604052508101906113a89190614f50565b9150888210156114c15761144f6113bf838b614f7f565b888a878a8a6001600160a01b0316634046ebae6040518163ffffffff1660e01b8152600401602060405180830381865afa158015611401573d6000803e3d6000fd5b505050506040513d601f19601f820116820180604052508101906114259190614ff3565b6001600160a01b038816600090815260208b9052604090205461144a61012c80614f92565b612e9c565b50506040516370a0823160e01b81526001600160a01b038216906370a082319061147d903090600401614f3c565b602060405180830381865afa15801561149a573d6000803e3d6000fd5b505050506040513d601f19601f820116820180604052508101906114be9190614f50565b91505b6114cb898361238c565b915081156114e7576114e76001600160a01b038216878461305f565b604080516001600160a01b0383168152602081018490527f178d2d6770c9dbd24f8d3e4dc08998cad5a42857f107435518f65c761e253bcc910160405180910390a150979650505050505050565b60006115626040518060800160405280600081526020016060815260200160608152602001606081525090565b855181600001818152505061163c836001600160a01b031663f77c47916040518163ffffffff1660e01b8152600401602060405180830381865afa1580156115ae573d6000803e3d6000fd5b505050506040513d601f19601f820116820180604052508101906115d29190614ff3565b6001600160a01b0316632630c12f6040518163ffffffff1660e01b8152600401602060405180830381865afa15801561160f573d6000803e3d6000fd5b505050506040513d601f19601f820116820180604052508101906116339190614ff3565b8251889061263f565b6040830152602082015260005b8151811015611941578481036116855785818151811061166b5761166b614f26565b60200260200101518361167e9190614f92565b9250611939565b600086828151811061169957611699614f26565b60200260200101518883815181106116b3576116b3614f26565b60200260200101516001600160a01b03166370a08231306040518263ffffffff1660e01b81526004016116e69190614f3c565b602060405180830381865afa158015611703573d6000803e3d6000fd5b505050506040513d601f19601f820116820180604052508101906117279190614f50565b6117319190614f92565b9050600080866001600160a01b031663dd27ede7308c8b8151811061175857611758614f26565b60200260200101518d888151811061177257611772614f26565b602002602001015160006040518563ffffffff1660e01b815260040161179b9493929190614fa5565b60408051808303816000875af11580156117b9573d6000803e3d6000fd5b505050506040513d601f19601f820116820180604052508101906117dd9190614fcf565b90925090506117ec8187614f92565b95508183106118b2578460400151848151811061180b5761180b614f26565b60200260200101518560200151898151811061182957611829614f26565b602002602001015186604001518a8151811061184757611847614f26565b60200260200101518760200151878151811061186557611865614f26565b602002602001015185876118799190614f7f565b6118839190615017565b61188d9190615017565b611897919061502e565b6118a1919061502e565b6118ab9087614f92565b9550611935565b8460600151516000036119085784516001600160401b038111156118d8576118d8614638565b604051908082528060200260200182016040528015611901578160200160208202803683370190505b5060608601525b6119128383614f7f565b8560600151858151811061192857611928614f26565b6020026020010181815250505b5050505b600101611649565b50805160608201515103611a6d5760005b8151811015611a6b578160600151818151811061197157611971614f26565b602002602001015160000315611a635760008260400151828151811061199957611999614f26565b6020026020010151836020015187815181106119b7576119b7614f26565b6020026020010151846040015188815181106119d5576119d5614f26565b6020026020010151856020015185815181106119f3576119f3614f26565b602002602001015186606001518681518110611a1157611a11614f26565b6020026020010151611a239190615017565b611a2d9190615017565b611a37919061502e565b611a41919061502e565b905083811115611a545760009350611a61565b611a5e8185614f7f565b93505b505b600101611952565b505b505b949350505050565b600080611a88888888888888611f03565b91509150965096945050505050565b60606000611aec6040518061010001604052806000815260200160008152602001600081526020016000815260200160006001600160a01b031681526020016000815260200160008152602001600081525090565b855160c08201819052855160408051808201909152601281527154532d342077726f6e67206c656e6774687360701b60208201529114611b3f5760405162461bcd60e51b815260040161104691906150a0565b506001600160a01b038b16600090815260208890526040902054611b6690620186a0611eed565b60a082015260c08101516001600160401b03811115611b8757611b87614638565b604051908082528060200260200182016040528015611bb0578160200160208202803683370190505b50925060005b8160c00151811015611e3257620186a0611bd08682614f7f565b878381518110611be257611be2614f26565b6020026020010151611bf49190615017565b611bfe919061502e565b60608301819052620186a090611c15908d90615017565b611c1f919061502e565b602083015260608201518651879083908110611c3d57611c3d614f26565b6020026020010151611c4f9190614f7f565b60408301528651879082908110611c6857611c68614f26565b6020908102919091018101516001600160a01b03166080840152604083015190830151611c959190614f92565b80835215611df957600019611cae8b84608001516130c2565b14611d50578b6001600160a01b031682608001516001600160a01b031603611ce6576040820151611cdf9084614f92565b9250611df9565b60808201516001600160a01b0316600090815260208990526040902054611d1090620186a0611eed565b826040015110611d4b57611d398d8a84608001518f86604001516113888860a0015160006124c2565b60e08401819052611cdf915084614f92565b611df9565b60808201516001600160a01b0316600090815260208990526040902054611d7a90620186a0611eed565b825110611df957611da08d8a84608001518f86600001516113888860a0015160016124c2565b60e084015250815160608301518751889084908110611dc157611dc1614f26565b6020026020010151611dd39190614f7f565b8360e00151611de29190615017565b611dec919061502e565b611df69084614f92565b92505b81602001518260600151611e0d9190614f7f565b848281518110611e1f57611e1f614f26565b6020908102919091010152600101611bb6565b5050995099975050505050505050565b604051636eb1769f60e11b81523060048201526001600160a01b03828116602483015283919085169063dd62ed3e90604401602060405180830381865afa158015611e91573d6000803e3d6000fd5b505050506040513d601f19601f82011682018060405250810190611eb59190614f50565b1015611ee857611ed06001600160a01b038416826000613120565b611ee86001600160a01b03841682600160ff1b613120565b505050565b6000818311611efc5781611245565b5090919050565b60008082600003611f1357600a92505b828411611f25575060009050806108ea565b611f5e6040518060c001604052806000815260200160608152602001606081526020016060815260200160008152602001600081525090565b611f6788613235565b80825260001901611f8a57611f8089898989898961325c565b92509250506108ea565b60405163430ffb1760e01b81526001600160a01b038a169063430ffb1790611fc1908b908b908a908c906213c680906004016150b3565b600060405180830381865afa158015611fde573d6000803e3d6000fd5b505050506040513d6000823e601f3d908101601f19168201604052612006919081019061514f565b5060608401526040830152602082018190525180156123855760005b81811015612383578251612132578260400151818151811061204657612046614f26565b60200260200101518710612077578260400151818151811061206a5761206a614f26565b6020026020010151612079565b865b6080840152604083015180518290811061209557612095614f26565b602002602001015187106120c657826060015181815181106120b9576120b9614f26565b6020026020010151612117565b826040015181815181106120dc576120dc614f26565b602002602001015187846060015183815181106120fb576120fb614f26565b602002602001015161210d9190615017565b612117919061502e565b60a0840152608083015161212b9088614f7f565b9650612230565b8260600151818151811061214857612148614f26565b60200260200101518710612179578260600151818151811061216c5761216c614f26565b602002602001015161217b565b865b60a0840152606083015180518290811061219757612197614f26565b602002602001015187106121c857826040015181815181106121bb576121bb614f26565b6020026020010151612219565b826060015181815181106121de576121de614f26565b602002602001015187846040015183815181106121fd576121fd614f26565b602002602001015161220f9190615017565b612219919061502e565b608084015260a083015161222d9088614f7f565b96505b858710801561223e57508615155b1561224857600096505b60a083015115612375578a6001600160a01b0316630adb2d858460200151838151811061227757612277614f26565b60200260200101518b86608001518c8860a00151306040518763ffffffff1660e01b81526004016122ad96959493929190615250565b6020604051808303816000875af11580156122cc573d6000803e3d6000fd5b505050506040513d601f19601f820116820180604052508101906122f09190614f50565b6122fa9085614f92565b935082608001518561230c9190614f92565b94507ff63c9c64ebdd1eb99706ca3f7489f7fbdd9c8756363cef40b2fc6e293fa150ec8360200151828151811061234557612345614f26565b60200260200101518a85608001518b8760a001513060405161236c96959493929190615250565b60405180910390a15b861561238357600101612022565b505b50506108ea565b6000818310611efc5781611245565b6000806000846001600160a01b03166370a08231306040518263ffffffff1660e01b81526004016123cc9190614f3c565b602060405180830381865afa1580156123e9573d6000803e3d6000fd5b505050506040513d601f19601f8201168201806040525081019061240d9190614f50565b90506000876001600160a01b031663dd27ede730898960016040518563ffffffff1660e01b81526004016124449493929190614fa5565b60408051808303816000875af1158015612462573d6000803e3d6000fd5b505050506040513d601f19601f820116820180604052508101906124869190614fcf565b50905060006124a382871061249b578261249d565b865b8461238c565b90506124b28989898487613771565b9450945050505094509492505050565b604051633744088160e11b81526001600160a01b038781166004830152868116602483015260009182918291908b1690636e88110290604401600060405180830381865afa158015612518573d6000803e3d6000fd5b505050506040513d6000823e601f3d908101601f1916820160405261254091908101906152cd565b50805160408051808201909152601a81527f54532d3135204e6f206c69717569646174696f6e20726f75746500000000000060208201529192506125975760405162461bcd60e51b815260040161104691906150a0565b50604051637cbf210b60e11b81526000906001600160a01b038c169063f97e4216906125c99085908c90600401615446565b602060405180830381865afa1580156125e6573d6000803e3d6000fd5b505050506040513d601f19601f8201168201806040525081019061260a9190614f50565b905085811161261b5760008061262c565b8761262c8d848e8e8e8e8e8d613952565b9350935050509850989650505050505050565b606080826001600160401b0381111561265a5761265a614638565b604051908082528060200260200182016040528015612683578160200160208202803683370190505b509150826001600160401b0381111561269e5761269e614638565b6040519080825280602002602001820160405280156126c7578160200160208202803683370190505b50905060005b83811015612824578481815181106126e7576126e7614f26565b60200260200101516001600160a01b031663313ce5676040518163ffffffff1660e01b8152600401602060405180830381865afa15801561272c573d6000803e3d6000fd5b505050506040513d601f19601f820116820180604052508101906127509190615459565b61275b90600a615560565b82828151811061276d5761276d614f26565b602002602001018181525050856001600160a01b031663b3596f0786838151811061279a5761279a614f26565b60200260200101516040518263ffffffff1660e01b81526004016127be9190614f3c565b602060405180830381865afa1580156127db573d6000803e3d6000fd5b505050506040513d601f19601f820116820180604052508101906127ff9190614f50565b83828151811061281157612811614f26565b60209081029190910101526001016126cd565b50935093915050565b600087156129ec578115612878576000612847838a61238c565b905088612854828a615017565b61285e919061502e565b6128689089614f7f565b9750612874818a614f7f565b9850505b600085858151811061288c5761288c614f26565b60200260200101518785815181106128a6576128a6614f26565b60200260200101518786815181106128c0576128c0614f26565b60200260200101518988815181106128da576128da614f26565b60200260200101516128ec9190615017565b6128fe90670de0b6b3a7640000615017565b612908919061502e565b612912919061502e565b9050881580159061293e5750670de0b6b3a7640000896129328a84615017565b61293c919061502e565b115b612949576000612997565b670de0b6b3a76400008961295d8a84615017565b612967919061502e565b6129719190614f7f565b61297b8b8a61238c565b61298d90670de0b6b3a7640000615017565b612997919061502e565b915081156129ea57620186a06129c483836129ba8d670de0b6b3a7640000615017565b61051a919061502e565b6129d3620186a06103e8614f92565b6129dd9190615017565b6129e7919061502e565b91505b505b98975050505050505050565b600080836001600160a01b03166370a08231306040518263ffffffff1660e01b8152600401612a279190614f3c565b602060405180830381865afa158015612a44573d6000803e3d6000fd5b505050506040513d601f19601f82011682018060405250810190612a689190614f50565b90506000866001600160a01b031663dd27ede730888860016040518563ffffffff1660e01b8152600401612a9f9493929190614fa5565b60408051808303816000875af1158015612abd573d6000803e3d6000fd5b505050506040513d601f19601f82011682018060405250810190612ae19190614fcf565b5090506000612afd828610612af6578261249d565b858461238c565b60405163667df24960e01b81523060048201526001600160a01b0389811660248301528881166044830152606482018390529192506000918a169063667df2499060840160408051808303816000875af1158015612b5f573d6000803e3d6000fd5b505050506040513d601f19601f82011682018060405250810190612b839190614fcf565b909550905080851115612b9d57612b9a8186614f7f565b94505b612baa8989898588613771565b505050505050949350505050565b8451606090806001600160401b03811115612bd557612bd5614638565b604051908082528060200260200182016040528015612bfe578160200160208202803683370190505b50915060005b81811015612d8a57868103612c5057848181518110612c2557612c25614f26565b6020026020010151838281518110612c3f57612c3f614f26565b602002602001018181525050612d82565b6000848281518110612c6457612c64614f26565b6020026020010151868381518110612c7e57612c7e614f26565b6020026020010151612c909190614f92565b90508015612d8057866001600160a01b031663667df249308b8b81518110612cba57612cba614f26565b60200260200101518c8681518110612cd457612cd4614f26565b60209081029190910101516040516001600160e01b031960e086901b1681526001600160a01b03938416600482015291831660248301529190911660448201526064810184905260840160408051808303816000875af1158015612d3c573d6000803e3d6000fd5b505050506040513d601f19601f82011682018060405250810190612d609190614fcf565b50848381518110612d7357612d73614f26565b6020026020010181815250505b505b600101612c04565b505095945050505050565b606060008215612dd75782841015612dc95782612dba85670de0b6b3a7640000615017565b612dc4919061502e565b612dda565b670de0b6b3a7640000612dda565b60005b8551909150806001600160401b03811115612df757612df7614638565b604051908082528060200260200182016040528015612e20578160200160208202803683370190505b5092508115612e935760005b81811015612e9157670de0b6b3a764000083888381518110612e5057612e50614f26565b6020026020010151612e629190615017565b612e6c919061502e565b848281518110612e7e57612e7e614f26565b6020908102919091010152600101612e2c565b505b50509392505050565b606080612ec360405180606001604052806000815260200160608152602001600081525090565b89518082526001600160401b03811115612edf57612edf614638565b604051908082528060200260200182016040528015612f08578160200160208202803683370190505b5060208201525b805160408201511015612fdb5789816040015181518110612f3257612f32614f26565b60200260200101516001600160a01b03166370a08231306040518263ffffffff1660e01b8152600401612f659190614f3c565b602060405180830381865afa158015612f82573d6000803e3d6000fd5b505050506040513d601f19601f82011682018060405250810190612fa69190614f50565b8160200151826040015181518110612fc057612fc0614f26565b60209081029190910101526040810180516001019052612f0f565b61304d6040518061012001604052808d81526020018c81526020018b81526020018a6001600160a01b0316815260200183602001518152602001896001600160a01b03168152602001886001600160a01b0316815260200161304088620186a0611eed565b8152602001869052613c42565b909c909b509950505050505050505050565b6040516001600160a01b038316602482015260448101829052611ee890849063a9059cbb60e01b906064015b60408051601f198184030181529190526020810180516001600160e01b03166001600160e01b031990931692909217909152613fcd565b8151600090815b8181101561311457836001600160a01b03168582815181106130ed576130ed614f26565b60200260200101516001600160a01b03160361310c5791506112489050565b6001016130c9565b50600019949350505050565b80158061319a5750604051636eb1769f60e11b81523060048201526001600160a01b03838116602483015284169063dd62ed3e90604401602060405180830381865afa158015613174573d6000803e3d6000fd5b505050506040513d601f19601f820116820180604052508101906131989190614f50565b155b6132055760405162461bcd60e51b815260206004820152603660248201527f5361666545524332303a20617070726f76652066726f6d206e6f6e2d7a65726f60448201527520746f206e6f6e2d7a65726f20616c6c6f77616e636560501b6064820152608401611046565b6040516001600160a01b038316602482015260448101829052611ee890849063095ea7b360e01b9060640161308b565b6000815160000361324857506000919050565b818060200190518101906112489190614f50565b6000806132ae6040518061012001604052806060815260200160608152602001606081526020016000815260200160008152602001600081526020016000815260200160008152602001600081525090565b60405163430ffb1760e01b81526001600160a01b038a169063430ffb17906132e5908b908b908a908c906213c680906004016150b3565b600060405180830381865afa158015613302573d6000803e3d6000fd5b505050506040513d6000823e601f3d908101601f1916820160405261332a919081019061514f565b5060408401526020830152808252518015613764576000808a806020019051810190613356919061556f565b92509250506133668c8b8b61409f565b61010085015260005b8381101561376057670de0b6b3a76400008560400151828151811061339657613396614f26565b60200260200101518661010001516133ae9190615017565b6133b8919061502e565b60c0860181905282906133cb9085615017565b6133d5919061502e565b60a08601819052602086015180518b929190849081106133f7576133f7614f26565b60200260200101516134099190614f92565b1161341c57670de0b6b3a7640000613465565b8460a001518560200151828151811061343757613437614f26565b60200260200101516134499190614f92565b61345b8a670de0b6b3a7640000615017565b613465919061502e565b60e0860181905260208601518051670de0b6b3a76400009291908490811061348f5761348f614f26565b60200260200101516134a19190615017565b6134ab919061502e565b856060018181525050670de0b6b3a76400008560e00151866040015183815181106134d8576134d8614f26565b60200260200101516134ea9190615017565b6134f4919061502e565b6080860152606085015188118061350d57506080850151155b156135555788888660a001518760200151848151811061352f5761352f614f26565b60200260200101516135419190614f92565b61354b9190614f92565b1161376057613758565b84608001518d6001600160a01b0316630adb2d858760000151848151811061357f5761357f614f26565b60200260200101518e89606001518f8b60800151306040518763ffffffff1660e01b81526004016135b596959493929190615250565b6020604051808303816000875af11580156135d4573d6000803e3d6000fd5b505050506040513d601f19601f820116820180604052508101906135f89190614f50565b146040518060400160405280600f81526020016e53423a2057726f6e672076616c756560881b8152509061363f5760405162461bcd60e51b815260040161104691906150a0565b507ff63c9c64ebdd1eb99706ca3f7489f7fbdd9c8756363cef40b2fc6e293fa150ec8560000151828151811061367757613677614f26565b60200260200101518c87606001518d89608001513060405161369e96959493929190615250565b60405180910390a160808501516136b59087614f92565b95508460600151876136c79190614f92565b9650670de0b6b3a764000085608001518661010001516136e79190615017565b6136f1919061502e565b60c0860181905282906137049085615017565b61370e919061502e565b60a08601819052606086015161372391614f92565b891161373057600061374e565b84606001518560a001516137449190614f92565b61374e908a614f7f565b9850878910613760575b60010161336f565b5050505b5050965096945050505050565b6000806137886001600160a01b038616888661305f565b6040516314b685e960e21b81526001600160a01b038781166004830152868116602483015260448201869052306064830152600091908916906352da17a4906084016080604051808303816000875af11580156137e9573d6000803e3d6000fd5b505050506040513d601f19601f8201168201806040525081019061380d919061559d565b5050604080516001600160a01b03808c1682528a1660208201529081018890523060608201526080810183905260a0810182905291945091507f1d1ba11e7ca20f5dc77d8cfd75b68d11520677808f89f6ba0f0e50dc52c450129060c00160405180910390a16040516370a0823160e01b81526000906001600160a01b038816906370a08231906138a2903090600401614f3c565b602060405180830381865afa1580156138bf573d6000803e3d6000fd5b505050506040513d601f19601f820116820180604052508101906138e39190614f50565b90508085116138f35760006138fd565b6138fd8186614f7f565b60408051808201909152600f81526e53423a2057726f6e672076616c756560881b602082015290935082156139455760405162461bcd60e51b815260040161104691906150a0565b5050509550959350505050565b600061395f868589611e42565b6040516370a0823160e01b81526000906001600160a01b038716906370a082319061398e903090600401614f3c565b602060405180830381865afa1580156139ab573d6000803e3d6000fd5b505050506040513d601f19601f820116820180604052508101906139cf9190614f50565b6040516310fe133960e31b81529091506001600160a01b038916906387f099c890613a02908c90899089906004016155d3565b600060405180830381600087803b158015613a1c57600080fd5b505af1158015613a30573d6000803e3d6000fd5b50506040516370a0823160e01b8152600092506001600160a01b03891691506370a0823190613a63903090600401614f3c565b602060405180830381865afa158015613a80573d6000803e3d6000fd5b505050506040513d601f19601f82011682018060405250810190613aa49190614f50565b90508181116040518060400160405280601681526020017554532d32302062616c616e636520646563726561736560501b81525090613af65760405162461bcd60e51b815260040161104691906150a0565b50613b018282614f7f565b92508380613b915750604051630a47e27160e21b81526001600160a01b03898116600483015260248201889052888116604483015260648201859052608482018790528c169063291f89c49060a401602060405180830381865afa158015613b6d573d6000803e3d6000fd5b505050506040513d601f19601f82011682018060405250810190613b9191906155f8565b604051806040016040528060128152602001711514cb4c4d881c1c9a58d9481a5b5c1858dd60721b81525090613bda5760405162461bcd60e51b815260040161104691906150a0565b50604080516001600160a01b03808b1682528916602082015290810187905260608101879052608081018490527f5a821a618ddb1a1fd304234a69c9d7f20c129d122fcf35593d13a071926643079060a00160405180910390a1505098975050505050505050565b606080613c706040518060800160405280600081526020016060815260200160608152602001606081525090565b6020840151518082526001600160401b03811115613c9057613c90614638565b604051908082528060200260200182016040528015613cb9578160200160208202803683370190505b5081519092506001600160401b03811115613cd657613cd6614638565b604051908082528060200260200182016040528015613cff578160200160208202803683370190505b509250613dd88460a001516001600160a01b031663f77c47916040518163ffffffff1660e01b8152600401602060405180830381865afa158015613d47573d6000803e3d6000fd5b505050506040513d601f19601f82011682018060405250810190613d6b9190614ff3565b6001600160a01b0316632630c12f6040518163ffffffff1660e01b8152600401602060405180830381865afa158015613da8573d6000803e3d6000fd5b505050506040513d601f19601f82011682018060405250810190613dcc9190614ff3565b6020860151835161263f565b604083015260208201526000805b8251811015613eff5785602001518181518110613e0557613e05614f26565b60200260200101516001600160a01b031686606001516001600160a01b031603613e3157809150613ef7565b60408601518114613ef757600080613e6886896040015181518110613e5857613e58614f26565b602002602001015189878661435f565b9150915081878481518110613e7f57613e7f614f26565b60200260200101818151613e939190614f92565b90525060408801518651829188918110613eaf57613eaf614f26565b60200260200101818151613ec39190614f92565b9052508751604089015187518891908110613ee057613ee0614f26565b602002602001015110613ef4575050613eff565b50505b600101613de6565b50846000015183866040015181518110613f1b57613f1b614f26565b6020026020010151108015613f34575080856040015114155b15613fc657600080613f6585886040015181518110613f5557613f55614f26565b602002602001015188868661435f565b9150915081868481518110613f7c57613f7c614f26565b60200260200101818151613f909190614f92565b90525060408701518551829187918110613fac57613fac614f26565b60200260200101818151613fc09190614f92565b90525050505b5050915091565b6000614022826040518060400160405280602081526020017f5361666545524332303a206c6f772d6c6576656c2063616c6c206661696c6564815250856001600160a01b03166144fd9092919063ffffffff16565b805190915015611ee8578080602001905181019061404091906155f8565b611ee85760405162461bcd60e51b815260206004820152602a60248201527f5361666545524332303a204552433230206f7065726174696f6e20646964206e6044820152691bdd081cdd58d8d9595960b21b6064820152608401611046565b600080846001600160a01b031663f77c47916040518163ffffffff1660e01b8152600401602060405180830381865afa1580156140e0573d6000803e3d6000fd5b505050506040513d601f19601f820116820180604052508101906141049190614ff3565b6001600160a01b0316632630c12f6040518163ffffffff1660e01b8152600401602060405180830381865afa158015614141573d6000803e3d6000fd5b505050506040513d601f19601f820116820180604052508101906141659190614ff3565b90506000816001600160a01b031663b3596f07866040518263ffffffff1660e01b81526004016141959190614f3c565b602060405180830381865afa1580156141b2573d6000803e3d6000fd5b505050506040513d601f19601f820116820180604052508101906141d69190614f50565b90506000826001600160a01b031663b3596f07866040518263ffffffff1660e01b81526004016142069190614f3c565b602060405180830381865afa158015614223573d6000803e3d6000fd5b505050506040513d601f19601f820116820180604052508101906142479190614f50565b9050846001600160a01b031663313ce5676040518163ffffffff1660e01b8152600401602060405180830381865afa158015614287573d6000803e3d6000fd5b505050506040513d601f19601f820116820180604052508101906142ab9190615459565b6142b690600a615560565b82876001600160a01b031663313ce5676040518163ffffffff1660e01b8152600401602060405180830381865afa1580156142f5573d6000803e3d6000fd5b505050506040513d601f19601f820116820180604052508101906143199190615459565b61432490600a615560565b61433684670de0b6b3a7640000615017565b6143409190615017565b61434a919061502e565b614354919061502e565b979650505050505050565b6000808460800151838151811061437857614378614f26565b6020026020010151600014611313576000620186a08087610100015161439e9190614f92565b86604001518860400151815181106143b8576143b8614f26565b6020026020010151876020015187815181106143d6576143d6614f26565b6020026020010151886040015188815181106143f4576143f4614f26565b602002602001015189602001518b604001518151811061441657614416614f26565b60200260200101518c8c6000015161442e9190614f7f565b6144389190615017565b6144429190615017565b61444c919061502e565b614456919061502e565b6144609190615017565b61446a919061502e565b90506144ef8660a001518760c001518860200151878151811061448f5761448f614f26565b602002602001015189602001518a60400151815181106144b1576144b1614f26565b60200260200101516144e0868c608001518b815181106144d3576144d3614f26565b602002602001015161238c565b61012c8c60e0015160006124c2565b909890975095505050505050565b6060611a6f848460008585600080866001600160a01b031685876040516145249190615615565b60006040518083038185875af1925050503d8060008114614561576040519150601f19603f3d011682016040523d82523d6000602084013e614566565b606091505b509150915061435487838387606083156145e15782516000036145da576001600160a01b0385163b6145da5760405162461bcd60e51b815260206004820152601d60248201527f416464726573733a2063616c6c20746f206e6f6e2d636f6e74726163740000006044820152606401611046565b5081611a6f565b611a6f83838151156145f65781518083602001fd5b8060405162461bcd60e51b815260040161104691906150a0565b6001600160a01b038116811461462557600080fd5b50565b803561463381614610565b919050565b634e487b7160e01b600052604160045260246000fd5b604051608081016001600160401b038111828210171561467057614670614638565b60405290565b604051601f8201601f191681016001600160401b038111828210171561469e5761469e614638565b604052919050565b60006001600160401b038211156146bf576146bf614638565b5060051b60200190565b600082601f8301126146da57600080fd5b813560206146ef6146ea836146a6565b614676565b82815260059290921b8401810191818101908684111561470e57600080fd5b8286015b8481101561473257803561472581614610565b8352918301918301614712565b509695505050505050565b600082601f83011261474e57600080fd5b8135602061475e6146ea836146a6565b82815260059290921b8401810191818101908684111561477d57600080fd5b8286015b848110156147325780358352918301918301614781565b600080600080600060a086880312156147b057600080fd5b85356147bb81614610565b945060208601356001600160401b03808211156147d757600080fd5b6147e389838a016146c9565b955060408801359450606088013591508082111561480057600080fd5b5061480d8882890161473d565b95989497509295608001359392505050565b600081518084526020808501945080840160005b8381101561484f57815187529582019590820190600101614833565b509495945050505050565b602081526000611245602083018461481f565b60008060008060008060c0878903121561488657600080fd5b863561489181614610565b955060208701356148a181614610565b9450604087013593506060870135925060808701356001600160401b03808211156148cb57600080fd5b6148d78a838b016146c9565b935060a08901359150808211156148ed57600080fd5b506148fa89828a0161473d565b9150509295509295509295565b828152604060208201526000611a6f604083018461481f565b60008060008060008060c0878903121561493957600080fd5b863561494481614610565b9550602087013561495481614610565b945060408701359350606087013592506080870135915060a08701356001600160401b0381111561498457600080fd5b6148fa89828a016146c9565b600080600080608085870312156149a657600080fd5b84356149b181614610565b935060208501356001600160401b03808211156149cd57600080fd5b6149d9888389016146c9565b94506040870135935060608701359150808211156149f657600080fd5b50614a038782880161473d565b91505092959194509250565b60008060408385031215614a2257600080fd5b8235614a2d81614610565b91506020830135614a3d81614610565b809150509250929050565b600080600080600080600080610100898b031215614a6557600080fd5b614a6e89614628565b975060208901356001600160401b0380821115614a8a57600080fd5b614a968c838d016146c9565b985060408b0135975060608b0135915080821115614ab357600080fd5b614abf8c838d0161473d565b965060808b0135955060a08b0135945060c08b0135915080821115614ae357600080fd5b614aef8c838d0161473d565b935060e08b0135915080821115614b0557600080fd5b50614b128b828c0161473d565b9150509295985092959890939650565b604081526000614b35604083018561481f565b828103602084015261110b818561481f565b801515811461462557600080fd5b600080600080600080600080610100898b031215614b7257600080fd5b8835614b7d81614610565b97506020890135614b8d81614610565b96506040890135614b9d81614610565b95506060890135614bad81614610565b94506080890135935060a0890135925060c0890135915060e0890135614bd281614b47565b809150509295985092959890939650565b60008060008060808587031215614bf957600080fd5b8435614c0481614610565b93506020850135614c1481614610565b92506040850135614c2481614610565b9396929550929360600135925050565b600080600080600080600060e0888a031215614c4f57600080fd5b873596506020880135955060408801356001600160401b03811115614c7357600080fd5b614c7f8a828b016146c9565b9550506060880135614c9081614610565b93506080880135614ca081614610565b925060a0880135614cb081614610565b8092505060c0880135905092959891949750929550565b60008060008060808587031215614cdd57600080fd5b84356001600160401b0380821115614cf457600080fd5b614d00888389016146c9565b95506020870135915080821115614d1657600080fd5b50614d238782880161473d565b935050604085013591506060850135614d3b81614610565b939692955090935050565b60006001600160401b03821115614d5f57614d5f614638565b50601f01601f191660200190565b60008060008060008060c08789031215614d8657600080fd5b8635614d9181614610565b955060208701356001600160401b03811115614dac57600080fd5b8701601f81018913614dbd57600080fd5b8035614dcb6146ea82614d46565b8181528a6020838501011115614de057600080fd5b81602084016020830137600060208383010152809750505050614e0560408801614628565b9350614e1360608801614628565b92506080870135915060a087013590509295509295509295565b60008060008060008060008060006101208a8c031215614e4c57600080fd5b614e558a614628565b9850614e6360208b01614628565b975060408a0135965060608a01356001600160401b0380821115614e8657600080fd5b614e928d838e016146c9565b9750614ea060808d01614628565b965060a08c0135955060c08c0135915080821115614ebd57600080fd5b614ec98d838e016146c9565b945060e08c0135915080821115614edf57600080fd5b50614eec8c828d0161473d565b9250506101008a013590509295985092959850929598565b604081526000614f17604083018561481f565b90508260208301529392505050565b634e487b7160e01b600052603260045260246000fd5b6001600160a01b0391909116815260200190565b600060208284031215614f6257600080fd5b5051919050565b634e487b7160e01b600052601160045260246000fd5b8181038181111561124857611248614f69565b8082018082111561124857611248614f69565b6001600160a01b039485168152928416602084015292166040820152901515606082015260800190565b60008060408385031215614fe257600080fd5b505080516020909101519092909150565b60006020828403121561500557600080fd5b815161501081614610565b9392505050565b808202811582820484141761124857611248614f69565b60008261504b57634e487b7160e01b600052601260045260246000fd5b500490565b60005b8381101561506b578181015183820152602001615053565b50506000910152565b6000815180845261508c816020860160208601615050565b601f01601f19169290920160200192915050565b6020815260006112456020830184615074565b60a0815260006150c660a0830188615074565b6001600160a01b03968716602084015260408301959095525091909316606082015260800191909152919050565b600082601f83011261510557600080fd5b815160206151156146ea836146a6565b82815260059290921b8401810191818101908684111561513457600080fd5b8286015b848110156147325780518352918301918301615138565b6000806000806080858703121561516557600080fd5b84516001600160401b038082111561517c57600080fd5b818701915087601f83011261519057600080fd5b815160206151a06146ea836146a6565b82815260059290921b8401810191818101908b8411156151bf57600080fd5b948201945b838610156151e65785516151d781614610565b825294820194908201906151c4565b918a01519198509093505050808211156151ff57600080fd5b61520b888389016150f4565b9450604087015191508082111561522157600080fd5b61522d888389016150f4565b9350606087015191508082111561524357600080fd5b50614a03878288016150f4565b6001600160a01b039687168152948616602086015260408501939093529084166060840152608083015290911660a082015260c00190565b600082601f83011261529957600080fd5b81516152a76146ea82614d46565b8181528460208386010111156152bc57600080fd5b611a6f826020830160208701615050565b60008060408084860312156152e157600080fd5b83516001600160401b03808211156152f857600080fd5b818601915086601f83011261530c57600080fd5b8151602061531c6146ea836146a6565b82815260079290921b8401810191818101908a84111561533b57600080fd5b948201945b838610156153b5576080868c0312156153595760008081fd5b61536161464e565b865161536c81614610565b81528684015161537b81614610565b818501528688015161538c81614610565b8189015260608781015161539f81614610565b9082015282526080959095019490820190615340565b918901519197509094505050808311156153ce57600080fd5b50506153dc85828601615288565b9150509250929050565b600081518084526020808501945080840160005b8381101561484f57815180516001600160a01b039081168952848201518116858a01526040808301518216908a01526060918201511690880152608090960195908201906001016153fa565b604081526000614f1760408301856153e6565b60006020828403121561546b57600080fd5b815160ff8116811461501057600080fd5b600181815b808511156154b757816000190482111561549d5761549d614f69565b808516156154aa57918102915b93841c9390800290615481565b509250929050565b6000826154ce57506001611248565b816154db57506000611248565b81600181146154f157600281146154fb57615517565b6001915050611248565b60ff84111561550c5761550c614f69565b50506001821b611248565b5060208310610133831016604e8410600b841016171561553a575081810a611248565b615544838361547c565b806000190482111561555857615558614f69565b029392505050565b600061124560ff8416836154bf565b60008060006060848603121561558457600080fd5b8351925060208401519150604084015190509250925092565b600080600080608085870312156155b357600080fd5b505082516020840151604085015160609095015191969095509092509050565b6060815260006155e660608301866153e6565b60208301949094525060400152919050565b60006020828403121561560a57600080fd5b815161501081614b47565b60008251615627818460208701615050565b919091019291505056fea26469706673582212208d05493f9206bbfb76f75c02d14cd442beeffc8ad4ad491afeb950a0998e238d64736f6c63430008110033",
  "devdoc": {
    "kind": "dev",
    "methods": {
      "calcInvestedAssets(address[],uint256[],uint256,ITetuConverter)": {
        "details": "This is writable function because we need to update current balances in the internal protocols.",
        "returns": {
          "amountOut": "Invested asset amount under control (in terms of {asset})"
        }
      },
      "closePosition(ITetuConverter,address,address,uint256)": {
        "params": {
          "amountToRepay": "Amount to repay in terms of {borrowAsset}"
        },
        "returns": {
          "repaidAmountOut": "Amount that was actually repaid",
          "returnedAssetAmountOut": "Amount of collateral received back after repaying"
        }
      },
      "closePositionsToGetAmount(ITetuConverter,ITetuLiquidator,uint256,mapping(address => uint256) storage,uint256,address[])": {
        "details": "We assume here that this function is called before closing any positions in the current block",
        "params": {
          "liquidationThresholds": "Min allowed amounts-out for liquidations",
          "requestedAmount": "Requested amount of main asset that should be added to the current balance"
        },
        "returns": {
          "expectedAmount": "Main asset amount expected to be received on balance after all conversions and swaps"
        }
      },
      "convertAfterWithdraw(ITetuConverter,ITetuLiquidator,uint256,uint256,address[],uint256[])": {
        "params": {
          "amountsToConvert": "Amounts to convert, the order of asset is same as in {tokens}",
          "indexAsset": "Index of the main asset in {tokens}",
          "liquidationThreshold": "Min allowed amount of main asset to be liquidated in {liquidator}",
          "tokens": "Tokens received from {_depositorPoolAssets}"
        },
        "returns": {
          "collateralOut": "Total amount of main asset returned after closing positions",
          "repaidAmountsOut": "What amounts were spent in exchange of the {collateralOut}"
        }
      },
      "getTokenAmounts(ITetuConverter,address[],uint256,uint256[],uint256)": {
        "params": {
          "collaterals_": "Amounts of main asset that can be used as collateral to borrow {tokens_}",
          "thresholdMainAsset_": "Value of liquidation threshold for the main (collateral) asset",
          "tokens_": "Tokens received from {_depositorPoolAssets}"
        },
        "returns": {
          "tokenAmountsOut": "Amounts available for deposit"
        }
      },
      "liquidate(ITetuConverter,ITetuLiquidator,address,address,uint256,uint256,uint256,bool)": {
        "params": {
          "receivedAmountOut": "Amount of {tokenOut_} has been returned by the liquidator",
          "skipValidation": "Don't check correctness of conversion using TetuConverter's oracle (i.e. for reward tokens)",
          "spentAmountIn": "Amount of {tokenIn} has been consumed by the liquidator"
        }
      },
      "openPosition(ITetuConverter,bytes,address,address,uint256,uint256)": {
        "params": {
          "amountIn_": "Meaning depends on {entryData_}.",
          "entryData_": "Encoded entry kind and additional params if necessary (set of params depends on the kind)                   See TetuConverter\\EntryKinds.sol\\ENTRY_KIND_XXX constants for possible entry kinds                   0 or empty: Amount of collateral {amountIn_} is fixed, amount of borrow should be max possible."
        }
      },
      "postWithdrawActions(ITetuConverter,address[],uint256,uint256[],uint256,uint256,uint256[],uint256[])": {
        "params": {
          "amountsToConvert": "Amounts of {tokens} to be converted, they are located on the balance before withdraw",
          "withdrawnAmounts": "Amounts of {tokens} that were withdrew from the pool"
        }
      },
      "recycle(ITetuConverter,address,uint256,address[],ITetuLiquidator,mapping(address => uint256) storage,address[],uint256[],uint256)": {
        "params": {
          "asset": "Underlying asset",
          "compoundRatio": "Compound ration in the range [0...COMPOUND_DENOMINATOR]",
          "liquidationThresholds": "Liquidation thresholds for rewards tokens",
          "performanceFee": "Performance fee in the range [0...FEE_DENOMINATOR]",
          "rewardAmounts": "Amounts of {rewardTokens_}; we assume, there are no zero amounts here",
          "rewardTokens": "Full list of reward tokens received from tetuConverter and depositor",
          "tokens": "tokens received from {_depositorPoolAssets}"
        },
        "returns": {
          "amountToPerformanceAndInsurance": "Amount of underlying to be sent to performance receiver and insurance",
          "amountsToForward": "Amounts of {rewardTokens} to be sent to forwarder, zero amounts are allowed here"
        }
      },
      "swapToGivenAmountAndSendToConverter(uint256,uint256,address[],address,address,address,mapping(address => uint256) storage)": {
        "params": {
          "amount_": "Amount of the main asset requested by converter",
          "asset": "Main asset or underlying (it can be different from tokens[indexTheAsset])",
          "indexTheAsset": "Index of the asset required by converter in the {tokens}"
        },
        "returns": {
          "amountOut": "Amount of the main asset sent to converter"
        }
      }
    },
    "stateVariables": {
      "DEFAULT_LIQUIDATION_THRESHOLD": {
        "details": "Absolute value for any token"
      },
      "GAP_CONVERSION": {
        "details": "We assume that: conversion-result-calculated-by-prices - liquidation-result <= the-gap"
      }
    },
    "version": 1
  },
  "userdoc": {
    "events": {
      "ClosePosition(address,address,uint256,address,uint256,uint256)": {
        "notice": "Some borrow(s) was/were repaid"
      },
      "Liquidation(address,address,uint256,uint256,uint256)": {
        "notice": "A liquidation was made"
      },
      "OpenPosition(address,address,uint256,address,uint256,address)": {
        "notice": "A borrow was made"
      }
    },
    "kind": "user",
    "methods": {
      "calcInvestedAssets(address[],uint256[],uint256,ITetuConverter)": {
        "notice": "Calculate amount we will receive when we withdraw all from pool"
      },
      "closePosition(ITetuConverter,address,address,uint256)": {
        "notice": "Close the given position, pay {amountToRepay}, return collateral amount in result"
      },
      "closePositionsToGetAmount(ITetuConverter,ITetuLiquidator,uint256,mapping(address => uint256) storage,uint256,address[])": {
        "notice": "Close debts (if it's allowed) in converter until we don't have {requestedAmount} on balance"
      },
      "convertAfterWithdraw(ITetuConverter,ITetuLiquidator,uint256,uint256,address[],uint256[])": {
        "notice": "Convert {amountsToConvert_} (available on balance) to the main asset         Swap leftovers if any.         Result amount can be less than requested one, we don't try to close any other debts here"
      },
      "getTokenAmounts(ITetuConverter,address[],uint256,uint256[],uint256)": {
        "notice": "Make borrow and save amounts of tokens available for deposit to tokenAmounts"
      },
      "liquidate(ITetuConverter,ITetuLiquidator,address,address,uint256,uint256,uint256,bool)": {
        "notice": "Make liquidation if estimated amountOut exceeds the given threshold"
      },
      "openPosition(ITetuConverter,bytes,address,address,uint256,uint256)": {
        "notice": "Make one or several borrow necessary to supply/borrow required {amountIn_} according to {entryData_}         Max possible collateral should be approved before calling of this function."
      },
      "postWithdrawActions(ITetuConverter,address[],uint256,uint256[],uint256,uint256,uint256[],uint256[])": {
        "notice": "Add {withdrawnAmounts} to {amountsToConvert}, calculate {expectedAmountMainAsset}"
      },
      "postWithdrawActionsEmpty(ITetuConverter,address[],uint256,uint256[])": {
        "notice": "return {withdrawnAmounts} with zero values and expected amount calculated using {amountsToConvert_}"
      },
      "recycle(ITetuConverter,address,uint256,address[],ITetuLiquidator,mapping(address => uint256) storage,address[],uint256[],uint256)": {
        "notice": "Recycle the amounts: split each amount on tree parts: performance+insurance (P), forwarder (F), compound (C)         Liquidate P+C, send F to the forwarder. We have two kinds of rewards: 1) rewards in depositor's assets (the assets returned by _depositorPoolAssets) 2) any other rewards All received rewards divided on three parts: to performance receiver+insurance, to forwarder, to compound   Compound-part of Rewards-2 can be liquidated   Compound part of Rewards-1 should be just left on the balance   All forwarder-parts are returned in amountsToForward and should be transferred to the forwarder outside.   Performance amounts are liquidated, result amount of underlying is returned in {amountToPerformanceAndInsurance}"
      }
    },
    "version": 1
  },
  "storageLayout": {
    "storage": [],
    "types": null
  }
}