{
  "address": "0x2995F72f9AAbC8b363e137bd43574feCb39757d5",
  "abi": [
    {
      "inputs": [
        {
          "internalType": "address[]",
          "name": "tokens_",
          "type": "address[]"
        },
        {
          "internalType": "uint256",
          "name": "indexAsset",
          "type": "uint256"
        }
      ],
      "name": "getAvailableBalances",
      "outputs": [
        {
          "internalType": "uint256[]",
          "name": "",
          "type": "uint256[]"
        }
      ],
      "stateMutability": "view",
      "type": "function"
    },
    {
      "inputs": [
        {
          "internalType": "uint256",
          "name": "amount_",
          "type": "uint256"
        },
        {
          "internalType": "address[]",
          "name": "tokens_",
          "type": "address[]"
        },
        {
          "internalType": "uint256[]",
          "name": "weights_",
          "type": "uint256[]"
        },
        {
          "internalType": "uint256",
          "name": "totalWeight_",
          "type": "uint256"
        },
        {
          "internalType": "uint256",
          "name": "indexAsset_",
          "type": "uint256"
        },
        {
          "internalType": "contract IPriceOracle",
          "name": "priceOracle",
          "type": "IPriceOracle"
        }
      ],
      "name": "getCollaterals",
      "outputs": [
        {
          "internalType": "uint256[]",
          "name": "tokenAmountsOut",
          "type": "uint256[]"
        }
      ],
      "stateMutability": "view",
      "type": "function"
    }
  ],
  "transactionHash": "0x07aae411f4123231a797ebeef4d5f588b1e493f3dba13dc4dc07eca08e064b7b",
  "args": [],
  "numDeployments": 4,
  "solcInputHash": "6798e17122d1864c179f6dfdd6019869",
  "bytecode": "0x61260161003a600b82828239805160001a60731461002d57634e487b7160e01b600052600060045260246000fd5b30600052607381538281f3fe730000000000000000000000000000000000000000301460806040526004361061006c5760003560e01c806359d0ede614610071578063712953271461009a57806397783a6c146100c8578063acf741a3146100db578063e99de4da146100fd578063ec0cc4fd1461012b575b600080fd5b61008461007f366004611d66565b610159565b6040516100919190611e34565b60405180910390f35b8180156100a657600080fd5b506100ba6100b5366004611e47565b610581565b604051610091929190611ed9565b6100846100d6366004611f07565b610852565b8180156100e757600080fd5b506100fb6100f6366004611f4b565b610967565b005b81801561010957600080fd5b5061011d610118366004611fd3565b610b04565b604051610091929190612062565b81801561013757600080fd5b5061014b6101463660046120c2565b610d2f565b60405161009192919061214b565b8451606090806001600160401b0381111561017657610176611c16565b60405190808252806020026020018201604052801561019f578160200160208202803683370190505b5091506000816001600160401b038111156101bc576101bc611c16565b6040519080825280602002602001820160405280156101e5578160200160208202803683370190505b5090506000826001600160401b0381111561020257610202611c16565b60405190808252806020026020018201604052801561022b578160200160208202803683370190505b50905060005b838110156103975789818151811061024b5761024b612164565b60200260200101516001600160a01b031663313ce5676040518163ffffffff1660e01b8152600401602060405180830381865afa158015610290573d6000803e3d6000fd5b505050506040513d601f19601f820116820180604052508101906102b4919061217a565b6102bf90600a612297565b8282815181106102d1576102d1612164565b602002602001018181525050856001600160a01b031663b3596f078b83815181106102fe576102fe612164565b60200260200101516040518263ffffffff1660e01b815260040161033191906001600160a01b0391909116815260200190565b602060405180830381865afa15801561034e573d6000803e3d6000fd5b505050506040513d601f19601f8201168201806040525081019061037291906122a6565b83828151811061038457610384612164565b6020908102919091010152600101610231565b5060005b83811015610573576000888a83815181106103b8576103b8612164565b60200260200101518d6103cb91906122bf565b6103d591906122d6565b905087820361040257808683815181106103f1576103f1612164565b60200260200101818152505061056a565b600083898151811061041657610416612164565b602002602001015185848151811061043057610430612164565b602002602001015185858151811061044a5761044a612164565b6020026020010151878c8151811061046457610464612164565b60200260200101518561047791906122bf565b61048191906122bf565b61048b91906122d6565b61049591906122d6565b905060008c84815181106104ab576104ab612164565b60209081029190910101516040516370a0823160e01b81523060048201526001600160a01b03909116906370a0823190602401602060405180830381865afa1580156104fb573d6000803e3d6000fd5b505050506040513d601f19601f8201168201806040525081019061051f91906122a6565b905081811015610567578161053482826122f8565b61053e90856122bf565b61054891906122d6565b88858151811061055a5761055a612164565b6020026020010181815250505b50505b5060010161039b565b505050509695505050505050565b6060806000856001600160a01b031663fbfa77cf6040518163ffffffff1660e01b8152600401602060405180830381865afa1580156105c4573d6000803e3d6000fd5b505050506040513d601f19601f820116820180604052508101906105e8919061230b565b6001600160a01b03166389cf32046040518163ffffffff1660e01b8152600401602060405180830381865afa158015610625573d6000803e3d6000fd5b505050506040513d601f19601f82011682018060405250810190610649919061230b565b8451909150806001600160401b0381111561066657610666611c16565b60405190808252806020026020018201604052801561068f578160200160208202803683370190505b509350806001600160401b038111156106aa576106aa611c16565b6040519080825280602002602001820160405280156106d3578160200160208202803683370190505b50925060005b8181101561084557620186a08a8783815181106106f8576106f8612164565b602002602001015161070a91906122bf565b61071491906122d6565b84828151811061072657610726612164565b60200260200101818152505083818151811061074457610744612164565b602002602001015186828151811061075e5761075e612164565b602002602001015161077091906122f8565b85828151811061078257610782612164565b602002602001018181525050600060028583815181106107a4576107a4612164565b60200260200101516107b691906122d6565b90506000818684815181106107cd576107cd612164565b60200260200101516107df91906122f8565b9050811561081e5761081e8b838b86815181106107fe576107fe612164565b60200260200101516001600160a01b03166110669092919063ffffffff16565b801561083b5761083b85828b86815181106107fe576107fe612164565b50506001016106d9565b5050509550959350505050565b81516060906000816001600160401b0381111561087157610871611c16565b60405190808252806020026020018201604052801561089a578160200160208202803683370190505b50905060005b8281101561095c57808514610954578581815181106108c1576108c1612164565b60209081029190910101516040516370a0823160e01b81523060048201526001600160a01b03909116906370a0823190602401602060405180830381865afa158015610911573d6000803e3d6000fd5b505050506040513d601f19601f8201168201806040525081019061093591906122a6565b82828151811061094757610947612164565b6020026020010181815250505b6001016108a0565b509150505b92915050565b6000825190506000856001600160a01b031663f645d4f96040518163ffffffff1660e01b8152600401602060405180830381865afa1580156109ad573d6000803e3d6000fd5b505050506040513d601f19601f820116820180604052508101906109d1919061230b565b905060005b82811015610a2357610a1b8582815181106109f3576109f3612164565b6020026020010151858381518110610a0d57610a0d612164565b6020026020010151846110ce565b6001016109d6565b50610a2e8484611174565b8094508195505050806001600160a01b0316637e0ddbef8585886001600160a01b031663fbfa77cf6040518163ffffffff1660e01b8152600401602060405180830381865afa158015610a85573d6000803e3d6000fd5b505050506040513d601f19601f82011682018060405250810190610aa9919061230b565b60016040518563ffffffff1660e01b8152600401610aca9493929190612328565b600060405180830381600087803b158015610ae457600080fd5b505af1158015610af8573d6000803e3d6000fd5b50505050505050505050565b604051633bd73ee360e21b8152306004820152606090819060009081906001600160a01b038a169063ef5cfb8c906024016000604051808303816000875af1158015610b54573d6000803e3d6000fd5b505050506040513d6000823e601f3d908101601f19168201604052610b7c9190810190612422565b91509150610bd0878784848c8d516001600160401b03811115610ba157610ba1611c16565b604051908082528060200260200182016040528015610bca578160200160208202803683370190505b50611360565b8151919550935060005b81811015610d135760005b8a51811015610d0a578a8181518110610c0057610c00612164565b60200260200101516001600160a01b0316878381518110610c2357610c23612164565b60200260200101516001600160a01b031603610d0257878181518110610c4b57610c4b612164565b60200260200101518b8281518110610c6557610c65612164565b60209081029190910101516040516370a0823160e01b81523060048201526001600160a01b03909116906370a0823190602401602060405180830381865afa158015610cb5573d6000803e3d6000fd5b505050506040513d601f19601f82011682018060405250810190610cd991906122a6565b610ce391906122f8565b868381518110610cf557610cf5612164565b6020026020010181815250505b600101610be5565b50600101610bda565b50610d1e8585611174565b909b909a5098505050505050505050565b8451600090606090891590806001600160401b03811115610d5257610d52611c16565b604051908082528060200260200182016040528015610d7b578160200160208202803683370190505b50925060005b81811015610f6557808914610f5d5760008a8281518110610da457610da4612164565b60209081029190910101516040516370a0823160e01b81523060048201526001600160a01b03909116906370a0823190602401602060405180830381865afa158015610df4573d6000803e3d6000fd5b505050506040513d601f19601f82011682018060405250810190610e1891906122a6565b90508015610f5b576000896001600160a01b031663667df2498e8e8e81518110610e4457610e44612164565b60200260200101518f8781518110610e5e57610e5e612164565b60209081029190910101516040516001600160e01b031960e086901b1681526001600160a01b03938416600482015291831660248301529190911660448201526064810185905260840160408051808303816000875af1158015610ec6573d6000803e3d6000fd5b505050506040513d601f19601f82011682018060405250810190610eea91906124e6565b5090508480610ef857508d15155b15610f1d5781868481518110610f1057610f10612164565b6020026020010181815250505b808e1115610f3657610f2f818f6122f8565b9d50610f3b565b60009d505b80891115610f5457610f4d818a6122f8565b9850610f59565b600098505b505b505b600101610d81565b508180610f725750600086115b6040518060400160405280601e81526020017f54532d31312074727920746f20776974686472617720746f6f206d756368000081525090610fcf5760405162461bcd60e51b8152600401610fc6919061252e565b60405180910390fd5b50600082611013578b1561100c57606487610ff38e680579a814e10a7400006122bf565b610ffd91906122d6565b61100791906122d6565b61101d565b600061101d565b670de0b6b3a76400005b905080156110525761104b670de0b6b3a764000061103b88846122bf565b61104591906122d6565b87611887565b9450611057565b600094505b50505097509795505050505050565b6040516001600160a01b0383166024820152604481018290526110c990849063a9059cbb60e01b906064015b60408051601f198184030181529190526020810180516001600160e01b03166001600160e01b03199093169290921790915261189f565b505050565b604051636eb1769f60e11b81523060048201526001600160a01b03828116602483015283919085169063dd62ed3e90604401602060405180830381865afa15801561111d573d6000803e3d6000fd5b505050506040513d601f19601f8201168201806040525081019061114191906122a6565b10156110c95761115c6001600160a01b038416826000611971565b6110c96001600160a01b03841682600160ff1b611971565b60608082518451146111bf5760405162461bcd60e51b81526020600482015260146024820152730a88298744082e4e4c2f2e640dad2e6dac2e8c6d60631b6044820152606401610fc6565b8351600090815b8181101561120f578581815181106111e0576111e0612164565b60200260200101516000146111fd57826111f981612561565b9350505b8061120781612561565b9150506111c6565b50816001600160401b0381111561122857611228611c16565b604051908082528060200260200182016040528015611251578160200160208202803683370190505b509350816001600160401b0381111561126c5761126c611c16565b604051908082528060200260200182016040528015611295578160200160208202803683370190505b5092506000805b828110156113555760008782815181106112b8576112b8612164565b6020026020010151905080600014611342578882815181106112dc576112dc612164565b60200260200101518784815181106112f6576112f6612164565b60200260200101906001600160a01b031690816001600160a01b0316815250508086848151811061132957611329612164565b60209081029190910101528261133e81612561565b9350505b508061134d81612561565b91505061129c565b505050509250929050565b60408051600380825260808201909252606091829160009160208201848036833701905050905088518160008151811061139c5761139c612164565b6020026020010181815250508651816001815181106113bd576113bd612164565b6020026020010181815250508451816002815181106113de576113de612164565b6020026020010181815250508751816000815181106113ff576113ff612164565b602002602001015114801561142e575085518160018151811061142457611424612164565b6020026020010151145b8015611454575083518160028151811061144a5761144a612164565b6020026020010151145b6040518060400160405280600d81526020016c54532d3139206c656e6774687360981b815250906114985760405162461bcd60e51b8152600401610fc6919061252e565b506000816002815181106114ae576114ae612164565b6020026020010151826001815181106114c9576114c9612164565b6020026020010151836000815181106114e4576114e4612164565b60200260200101516114f6919061257a565b611500919061257a565b90506000816001600160401b0381111561151c5761151c611c16565b604051908082528060200260200182016040528015611545578160200160208202803683370190505b5090506000826001600160401b0381111561156257611562611c16565b60405190808252806020026020018201604052801561158b578160200160208202803683370190505b5090506000805b600381101561174d57600081156115b757816001146115b157896115b9565b8b6115b9565b8d5b9050600082156115d757826001146115d1578b6115d9565b8d6115d9565b8f5b905060005b8884815181106115f0576115f0612164565b602002602001015181101561173957600083828151811061161357611613612164565b60200260200101519050600083838151811061163157611631612164565b602002602001015190506000805b888110156116be578a818151811061165957611659612164565b60200260200101516001600160a01b0316836001600160a01b0316036116ac57838a828151811061168c5761168c612164565b602002602001018181516116a0919061257a565b905250600191506116be565b806116b681612561565b91505061163f565b508061172357818a89815181106116d7576116d7612164565b60200260200101906001600160a01b031690816001600160a01b0316815250508289898151811061170a5761170a612164565b60209081029190910101528761171f81612561565b9850505b505050808061173190612561565b9150506115de565b5050508061174690612561565b9050611592565b50806001600160401b0381111561176657611766611c16565b60405190808252806020026020018201604052801561178f578160200160208202803683370190505b509650806001600160401b038111156117aa576117aa611c16565b6040519080825280602002602001820160405280156117d3578160200160208202803683370190505b50955060005b81811015611876578381815181106117f3576117f3612164565b602002602001015188828151811061180d5761180d612164565b60200260200101906001600160a01b031690816001600160a01b03168152505082818151811061183f5761183f612164565b602002602001015187828151811061185957611859612164565b60209081029190910101528061186e81612561565b9150506117d9565b505050505050965096945050505050565b60008183106118965781611898565b825b9392505050565b60006118f4826040518060400160405280602081526020017f5361666545524332303a206c6f772d6c6576656c2063616c6c206661696c6564815250856001600160a01b0316611a869092919063ffffffff16565b8051909150156110c95780806020019051810190611912919061258d565b6110c95760405162461bcd60e51b815260206004820152602a60248201527f5361666545524332303a204552433230206f7065726174696f6e20646964206e6044820152691bdd081cdd58d8d9595960b21b6064820152608401610fc6565b8015806119eb5750604051636eb1769f60e11b81523060048201526001600160a01b03838116602483015284169063dd62ed3e90604401602060405180830381865afa1580156119c5573d6000803e3d6000fd5b505050506040513d601f19601f820116820180604052508101906119e991906122a6565b155b611a565760405162461bcd60e51b815260206004820152603660248201527f5361666545524332303a20617070726f76652066726f6d206e6f6e2d7a65726f60448201527520746f206e6f6e2d7a65726f20616c6c6f77616e636560501b6064820152608401610fc6565b6040516001600160a01b0383166024820152604481018290526110c990849063095ea7b360e01b90606401611092565b6060611a958484600085611a9d565b949350505050565b606082471015611afe5760405162461bcd60e51b815260206004820152602660248201527f416464726573733a20696e73756666696369656e742062616c616e636520666f6044820152651c8818d85b1b60d21b6064820152608401610fc6565b600080866001600160a01b03168587604051611b1a91906125af565b60006040518083038185875af1925050503d8060008114611b57576040519150601f19603f3d011682016040523d82523d6000602084013e611b5c565b606091505b5091509150611b6d87838387611b78565b979650505050505050565b60608315611be7578251600003611be0576001600160a01b0385163b611be05760405162461bcd60e51b815260206004820152601d60248201527f416464726573733a2063616c6c20746f206e6f6e2d636f6e74726163740000006044820152606401610fc6565b5081611a95565b611a958383815115611bfc5781518083602001fd5b8060405162461bcd60e51b8152600401610fc6919061252e565b634e487b7160e01b600052604160045260246000fd5b604051601f8201601f191681016001600160401b0381118282101715611c5457611c54611c16565b604052919050565b60006001600160401b03821115611c7557611c75611c16565b5060051b60200190565b6001600160a01b0381168114611c9457600080fd5b50565b600082601f830112611ca857600080fd5b81356020611cbd611cb883611c5c565b611c2c565b82815260059290921b84018101918181019086841115611cdc57600080fd5b8286015b84811015611d00578035611cf381611c7f565b8352918301918301611ce0565b509695505050505050565b600082601f830112611d1c57600080fd5b81356020611d2c611cb883611c5c565b82815260059290921b84018101918181019086841115611d4b57600080fd5b8286015b84811015611d005780358352918301918301611d4f565b60008060008060008060c08789031215611d7f57600080fd5b8635955060208701356001600160401b0380821115611d9d57600080fd5b611da98a838b01611c97565b96506040890135915080821115611dbf57600080fd5b50611dcc89828a01611d0b565b945050606087013592506080870135915060a0870135611deb81611c7f565b809150509295509295509295565b600081518084526020808501945080840160005b83811015611e2957815187529582019590820190600101611e0d565b509495945050505050565b6020815260006118986020830184611df9565b600080600080600060a08688031215611e5f57600080fd5b853594506020860135611e7181611c7f565b93506040860135611e8181611c7f565b925060608601356001600160401b0380821115611e9d57600080fd5b611ea989838a01611c97565b93506080880135915080821115611ebf57600080fd5b50611ecc88828901611d0b565b9150509295509295909350565b604081526000611eec6040830185611df9565b8281036020840152611efe8185611df9565b95945050505050565b60008060408385031215611f1a57600080fd5b82356001600160401b03811115611f3057600080fd5b611f3c85828601611c97565b95602094909401359450505050565b60008060008060808587031215611f6157600080fd5b8435611f6c81611c7f565b93506020850135611f7c81611c7f565b925060408501356001600160401b0380821115611f9857600080fd5b611fa488838901611c97565b93506060870135915080821115611fba57600080fd5b50611fc787828801611d0b565b91505092959194509250565b600080600080600060a08688031215611feb57600080fd5b8535611ff681611c7f565b945060208601356001600160401b038082111561201257600080fd5b61201e89838a01611c97565b9550604088013591508082111561203457600080fd5b61204089838a01611c97565b9450606088013591508082111561205657600080fd5b611ea989838a01611d0b565b604080825283519082018190526000906020906060840190828701845b828110156120a45781516001600160a01b03168452928401929084019060010161207f565b505050838103828501526120b88186611df9565b9695505050505050565b600080600080600080600060e0888a0312156120dd57600080fd5b8735965060208801356120ef81611c7f565b955060408801356001600160401b0381111561210a57600080fd5b6121168a828b01611c97565b95505060608801359350608088013561212e81611c7f565b9699959850939692959460a0840135945060c09093013592915050565b828152604060208201526000611a956040830184611df9565b634e487b7160e01b600052603260045260246000fd5b60006020828403121561218c57600080fd5b815160ff8116811461189857600080fd5b634e487b7160e01b600052601160045260246000fd5b600181815b808511156121ee5781600019048211156121d4576121d461219d565b808516156121e157918102915b93841c93908002906121b8565b509250929050565b60008261220557506001610961565b8161221257506000610961565b816001811461222857600281146122325761224e565b6001915050610961565b60ff8411156122435761224361219d565b50506001821b610961565b5060208310610133831016604e8410600b8410161715612271575081810a610961565b61227b83836121b3565b806000190482111561228f5761228f61219d565b029392505050565b600061189860ff8416836121f6565b6000602082840312156122b857600080fd5b5051919050565b80820281158282048414176109615761096161219d565b6000826122f357634e487b7160e01b600052601260045260246000fd5b500490565b818103818111156109615761096161219d565b60006020828403121561231d57600080fd5b815161189881611c7f565b6080808252855190820181905260009060209060a0840190828901845b8281101561236a5781516001600160a01b031684529284019290840190600101612345565b5050508381038285015286518082528783019183019060005b8181101561239f57835183529284019291840191600101612383565b50506001600160a01b038716604086015292506123ba915050565b8215156060830152611efe565b600082601f8301126123d857600080fd5b815160206123e8611cb883611c5c565b82815260059290921b8401810191818101908684111561240757600080fd5b8286015b84811015611d00578051835291830191830161240b565b6000806040838503121561243557600080fd5b82516001600160401b038082111561244c57600080fd5b818501915085601f83011261246057600080fd5b81516020612470611cb883611c5c565b82815260059290921b8401810191818101908984111561248f57600080fd5b948201945b838610156124b65785516124a781611c7f565b82529482019490820190612494565b918801519196509093505050808211156124cf57600080fd5b506124dc858286016123c7565b9150509250929050565b600080604083850312156124f957600080fd5b505080516020909101519092909150565b60005b8381101561252557818101518382015260200161250d565b50506000910152565b602081526000825180602084015261254d81604085016020870161250a565b601f01601f19169190910160400192915050565b6000600182016125735761257361219d565b5060010190565b808201808211156109615761096161219d565b60006020828403121561259f57600080fd5b8151801515811461189857600080fd5b600082516125c181846020870161250a565b919091019291505056fea26469706673582212206be01ff7534fabc5190ef453eaab9364dfb17f231a04db0f581d5c09d57f8c5c64736f6c63430008110033",
  "devdoc": {
    "kind": "dev",
    "methods": {
      "claimConverterRewards(ITetuConverter,address[],address[],uint256[],uint256[])": {
        "details": "The post-processing is rewards conversion to the main asset",
        "params": {
          "amountsOut": "Amounts of available rewards",
          "rewardTokens_": "Amounts of rewards claimed from the internal pool",
          "tokensOut": "List of available rewards - not zero amounts, reward tokens don't repeat",
          "tokens_": "tokens received from {_depositorPoolAssets}"
        }
      },
      "getLiquidityAmount(uint256,address,address[],uint256,ITetuConverter,uint256,uint256)": {
        "details": "This is a writable function with read-only behavior (because of the quote-call)",
        "params": {
          "strategy_": "Address of the strategy",
          "targetAmount_": "Required amount of main asset to be withdrawn from the strategy                      0 - withdraw all"
        }
      },
      "sendPerformanceFee(uint256,address,address,address[],uint256[])": {
        "params": {
          "performanceFee_": "Max is FEE_DENOMINATOR"
        },
        "returns": {
          "performanceAmounts": "Theses amounts were sent to {performanceReceiver_}",
          "rewardAmounts": "= rewardAmounts_ - performanceAmounts"
        }
      }
    },
    "version": 1
  },
  "userdoc": {
    "kind": "user",
    "methods": {
      "claimConverterRewards(ITetuConverter,address[],address[],uint256[],uint256[])": {
        "notice": "Claim rewards from tetuConverter, generate result list of all available rewards and airdrops"
      },
      "getAvailableBalances(address[],uint256)": {
        "notice": "Get balances of the {tokens_} except balance of the token at {indexAsset} position"
      },
      "getCollaterals(uint256,address[],uint256[],uint256,uint256,IPriceOracle)": {
        "notice": "For each {token_} calculate a part of {amount_} to be used as collateral according to the weights.         I.e. we have 300 USDC, we need to split it on 100 USDC, 100 USDT, 100 DAI         USDC is main asset, USDT and DAI should be borrowed. We check amounts of USDT and DAI on the balance         and return collaterals reduced on that amounts. For main asset, we return full amount always (100 USDC)."
      },
      "getLiquidityAmount(uint256,address,address[],uint256,ITetuConverter,uint256,uint256)": {
        "notice": "Calculate amount of liquidity that should be withdrawn from the pool to get {targetAmount_}               liquidityAmount = _depositorLiquidity() * {liquidityRatioOut} / 1e18         User needs to withdraw {targetAmount_} in main asset.         There are two kinds of available liquidity:         1) liquidity in the pool - {depositorLiquidity_}         2) Converted amounts on balance of the strategy - {baseAmounts_}         To withdraw {targetAmount_} we need         1) Reconvert converted amounts back to main asset         2) IF result amount is not necessary - withdraw some liquidity from the pool            and also convert it to the main asset."
      },
      "sendPerformanceFee(uint256,address,address,address[],uint256[])": {
        "notice": "Send {performanceFee_} of {rewardAmounts_} to {performanceReceiver}"
      }
    },
    "notice": "Continuation of ConverterStrategyBaseLib (workaround for size limits)",
    "version": 1
  },
  "storageLayout": {
    "storage": [],
    "types": null
  }
}