{
  "address": "0xcBeeCF5041274888a3E44139901B36A7c0635409",
  "abi": [
    {
      "inputs": [
        {
          "internalType": "address[]",
          "name": "tokens_",
          "type": "address[]"
        },
        {
          "internalType": "uint256",
          "name": "indexAsset",
          "type": "uint256"
        }
      ],
      "name": "getAvailableBalances",
      "outputs": [
        {
          "internalType": "uint256[]",
          "name": "",
          "type": "uint256[]"
        }
      ],
      "stateMutability": "view",
      "type": "function"
    },
    {
      "inputs": [
        {
          "internalType": "uint256",
          "name": "amount_",
          "type": "uint256"
        },
        {
          "internalType": "address[]",
          "name": "tokens_",
          "type": "address[]"
        },
        {
          "internalType": "uint256[]",
          "name": "weights_",
          "type": "uint256[]"
        },
        {
          "internalType": "uint256",
          "name": "totalWeight_",
          "type": "uint256"
        },
        {
          "internalType": "uint256",
          "name": "indexAsset_",
          "type": "uint256"
        },
        {
          "internalType": "contract IPriceOracle",
          "name": "priceOracle",
          "type": "IPriceOracle"
        }
      ],
      "name": "getCollaterals",
      "outputs": [
        {
          "internalType": "uint256[]",
          "name": "tokenAmountsOut",
          "type": "uint256[]"
        }
      ],
      "stateMutability": "view",
      "type": "function"
    }
  ],
  "transactionHash": "0x722af79c07bdc4303db041c105f27a179e0fa2178d11750fcc6ea89b6c607fd2",
  "args": [],
  "numDeployments": 5,
  "solcInputHash": "70b8d8149359f1f5ee24b2fc01ec0f79",
  "bytecode": "0x61259c61003a600b82828239805160001a60731461002d57634e487b7160e01b600052600060045260246000fd5b30600052607381538281f3fe730000000000000000000000000000000000000000301460806040526004361061006c5760003560e01c806359d0ede614610071578063712953271461009a57806397783a6c146100c8578063acf741a3146100db578063e99de4da146100fd578063ec0cc4fd1461012b575b600080fd5b61008461007f366004611d01565b610159565b6040516100919190611dcf565b60405180910390f35b8180156100a657600080fd5b506100ba6100b5366004611de2565b610581565b604051610091929190611e74565b6100846100d6366004611ea2565b610852565b8180156100e757600080fd5b506100fb6100f6366004611ee6565b610967565b005b81801561010957600080fd5b5061011d610118366004611f6e565b610b04565b604051610091929190611ffd565b81801561013757600080fd5b5061014b61014636600461205d565b610d2f565b6040516100919291906120e6565b8451606090806001600160401b0381111561017657610176611bb1565b60405190808252806020026020018201604052801561019f578160200160208202803683370190505b5091506000816001600160401b038111156101bc576101bc611bb1565b6040519080825280602002602001820160405280156101e5578160200160208202803683370190505b5090506000826001600160401b0381111561020257610202611bb1565b60405190808252806020026020018201604052801561022b578160200160208202803683370190505b50905060005b838110156103975789818151811061024b5761024b6120ff565b60200260200101516001600160a01b031663313ce5676040518163ffffffff1660e01b8152600401602060405180830381865afa158015610290573d6000803e3d6000fd5b505050506040513d601f19601f820116820180604052508101906102b49190612115565b6102bf90600a612232565b8282815181106102d1576102d16120ff565b602002602001018181525050856001600160a01b031663b3596f078b83815181106102fe576102fe6120ff565b60200260200101516040518263ffffffff1660e01b815260040161033191906001600160a01b0391909116815260200190565b602060405180830381865afa15801561034e573d6000803e3d6000fd5b505050506040513d601f19601f820116820180604052508101906103729190612241565b838281518110610384576103846120ff565b6020908102919091010152600101610231565b5060005b83811015610573576000888a83815181106103b8576103b86120ff565b60200260200101518d6103cb919061225a565b6103d59190612271565b905087820361040257808683815181106103f1576103f16120ff565b60200260200101818152505061056a565b6000838981518110610416576104166120ff565b6020026020010151858481518110610430576104306120ff565b602002602001015185858151811061044a5761044a6120ff565b6020026020010151878c81518110610464576104646120ff565b602002602001015185610477919061225a565b610481919061225a565b61048b9190612271565b6104959190612271565b905060008c84815181106104ab576104ab6120ff565b60209081029190910101516040516370a0823160e01b81523060048201526001600160a01b03909116906370a0823190602401602060405180830381865afa1580156104fb573d6000803e3d6000fd5b505050506040513d601f19601f8201168201806040525081019061051f9190612241565b90508181101561056757816105348282612293565b61053e908561225a565b6105489190612271565b88858151811061055a5761055a6120ff565b6020026020010181815250505b50505b5060010161039b565b505050509695505050505050565b6060806000856001600160a01b031663fbfa77cf6040518163ffffffff1660e01b8152600401602060405180830381865afa1580156105c4573d6000803e3d6000fd5b505050506040513d601f19601f820116820180604052508101906105e891906122a6565b6001600160a01b03166389cf32046040518163ffffffff1660e01b8152600401602060405180830381865afa158015610625573d6000803e3d6000fd5b505050506040513d601f19601f8201168201806040525081019061064991906122a6565b8451909150806001600160401b0381111561066657610666611bb1565b60405190808252806020026020018201604052801561068f578160200160208202803683370190505b509350806001600160401b038111156106aa576106aa611bb1565b6040519080825280602002602001820160405280156106d3578160200160208202803683370190505b50925060005b8181101561084557620186a08a8783815181106106f8576106f86120ff565b602002602001015161070a919061225a565b6107149190612271565b848281518110610726576107266120ff565b602002602001018181525050838181518110610744576107446120ff565b602002602001015186828151811061075e5761075e6120ff565b60200260200101516107709190612293565b858281518110610782576107826120ff565b602002602001018181525050600060028583815181106107a4576107a46120ff565b60200260200101516107b69190612271565b90506000818684815181106107cd576107cd6120ff565b60200260200101516107df9190612293565b9050811561081e5761081e8b838b86815181106107fe576107fe6120ff565b60200260200101516001600160a01b0316610ffc9092919063ffffffff16565b801561083b5761083b85828b86815181106107fe576107fe6120ff565b50506001016106d9565b5050509550959350505050565b81516060906000816001600160401b0381111561087157610871611bb1565b60405190808252806020026020018201604052801561089a578160200160208202803683370190505b50905060005b8281101561095c57808514610954578581815181106108c1576108c16120ff565b60209081029190910101516040516370a0823160e01b81523060048201526001600160a01b03909116906370a0823190602401602060405180830381865afa158015610911573d6000803e3d6000fd5b505050506040513d601f19601f820116820180604052508101906109359190612241565b828281518110610947576109476120ff565b6020026020010181815250505b6001016108a0565b509150505b92915050565b6000825190506000856001600160a01b031663f645d4f96040518163ffffffff1660e01b8152600401602060405180830381865afa1580156109ad573d6000803e3d6000fd5b505050506040513d601f19601f820116820180604052508101906109d191906122a6565b905060005b82811015610a2357610a1b8582815181106109f3576109f36120ff565b6020026020010151858381518110610a0d57610a0d6120ff565b602002602001015184611064565b6001016109d6565b50610a2e848461110a565b8094508195505050806001600160a01b0316637e0ddbef8585886001600160a01b031663fbfa77cf6040518163ffffffff1660e01b8152600401602060405180830381865afa158015610a85573d6000803e3d6000fd5b505050506040513d601f19601f82011682018060405250810190610aa991906122a6565b60016040518563ffffffff1660e01b8152600401610aca94939291906122c3565b600060405180830381600087803b158015610ae457600080fd5b505af1158015610af8573d6000803e3d6000fd5b50505050505050505050565b604051633bd73ee360e21b8152306004820152606090819060009081906001600160a01b038a169063ef5cfb8c906024016000604051808303816000875af1158015610b54573d6000803e3d6000fd5b505050506040513d6000823e601f3d908101601f19168201604052610b7c91908101906123bd565b91509150610bd0878784848c8d516001600160401b03811115610ba157610ba1611bb1565b604051908082528060200260200182016040528015610bca578160200160208202803683370190505b506112fb565b8151919550935060005b81811015610d135760005b8a51811015610d0a578a8181518110610c0057610c006120ff565b60200260200101516001600160a01b0316878381518110610c2357610c236120ff565b60200260200101516001600160a01b031603610d0257878181518110610c4b57610c4b6120ff565b60200260200101518b8281518110610c6557610c656120ff565b60209081029190910101516040516370a0823160e01b81523060048201526001600160a01b03909116906370a0823190602401602060405180830381865afa158015610cb5573d6000803e3d6000fd5b505050506040513d601f19601f82011682018060405250810190610cd99190612241565b610ce39190612293565b868381518110610cf557610cf56120ff565b6020026020010181815250505b600101610be5565b50600101610bda565b50610d1e858561110a565b909b909a5098505050505050505050565b8451600090606090891590806001600160401b03811115610d5257610d52611bb1565b604051908082528060200260200182016040528015610d7b578160200160208202803683370190505b50925060005b81811015610f5d57808914610f555760008a8281518110610da457610da46120ff565b60209081029190910101516040516370a0823160e01b81523060048201526001600160a01b03909116906370a0823190602401602060405180830381865afa158015610df4573d6000803e3d6000fd5b505050506040513d601f19601f82011682018060405250810190610e189190612241565b90508015610f53576000896001600160a01b031663667df2498e8e8e81518110610e4457610e446120ff565b60200260200101518f8781518110610e5e57610e5e6120ff565b60209081029190910101516040516001600160e01b031960e086901b1681526001600160a01b03938416600482015291831660248301529190911660448201526064810185905260840160408051808303816000875af1158015610ec6573d6000803e3d6000fd5b505050506040513d601f19601f82011682018060405250810190610eea9190612481565b5090508480610ef857508d15155b15610f1d5781868481518110610f1057610f106120ff565b6020026020010181815250505b808e11610f2b576000610f35565b610f35818f612293565b9d50808911610f45576000610f4f565b610f4f818a612293565b9850505b505b600101610d81565b5060008280610f6a575086155b610faa578b15610fa357606487610f8a8e680579a814e10a74000061225a565b610f949190612271565b610f9e9190612271565b610fb4565b6000610fb4565b670de0b6b3a76400005b905080600003610fc5576000610feb565b610feb670de0b6b3a7640000610fdb888461225a565b610fe59190612271565b87611822565b945050505097509795505050505050565b6040516001600160a01b03831660248201526044810182905261105f90849063a9059cbb60e01b906064015b60408051601f198184030181529190526020810180516001600160e01b03166001600160e01b03199093169290921790915261183a565b505050565b604051636eb1769f60e11b81523060048201526001600160a01b03828116602483015283919085169063dd62ed3e90604401602060405180830381865afa1580156110b3573d6000803e3d6000fd5b505050506040513d601f19601f820116820180604052508101906110d79190612241565b101561105f576110f26001600160a01b03841682600061190c565b61105f6001600160a01b03841682600160ff1b61190c565b606080825184511461115a5760405162461bcd60e51b81526020600482015260146024820152730a88298744082e4e4c2f2e640dad2e6dac2e8c6d60631b60448201526064015b60405180910390fd5b8351600090815b818110156111aa5785818151811061117b5761117b6120ff565b60200260200101516000146111985782611194816124a5565b9350505b806111a2816124a5565b915050611161565b50816001600160401b038111156111c3576111c3611bb1565b6040519080825280602002602001820160405280156111ec578160200160208202803683370190505b509350816001600160401b0381111561120757611207611bb1565b604051908082528060200260200182016040528015611230578160200160208202803683370190505b5092506000805b828110156112f0576000878281518110611253576112536120ff565b60200260200101519050806000146112dd57888281518110611277576112776120ff565b6020026020010151878481518110611291576112916120ff565b60200260200101906001600160a01b031690816001600160a01b031681525050808684815181106112c4576112c46120ff565b6020908102919091010152826112d9816124a5565b9350505b50806112e8816124a5565b915050611237565b505050509250929050565b604080516003808252608082019092526060918291600091602082018480368337019050509050885181600081518110611337576113376120ff565b602002602001018181525050865181600181518110611358576113586120ff565b602002602001018181525050845181600281518110611379576113796120ff565b60200260200101818152505087518160008151811061139a5761139a6120ff565b60200260200101511480156113c957508551816001815181106113bf576113bf6120ff565b6020026020010151145b80156113ef57508351816002815181106113e5576113e56120ff565b6020026020010151145b6040518060400160405280600d81526020016c54532d3139206c656e6774687360981b815250906114335760405162461bcd60e51b815260040161115191906124e2565b50600081600281518110611449576114496120ff565b602002602001015182600181518110611464576114646120ff565b60200260200101518360008151811061147f5761147f6120ff565b60200260200101516114919190612515565b61149b9190612515565b90506000816001600160401b038111156114b7576114b7611bb1565b6040519080825280602002602001820160405280156114e0578160200160208202803683370190505b5090506000826001600160401b038111156114fd576114fd611bb1565b604051908082528060200260200182016040528015611526578160200160208202803683370190505b5090506000805b60038110156116e85760008115611552578160011461154c5789611554565b8b611554565b8d5b905060008215611572578260011461156c578b611574565b8d611574565b8f5b905060005b88848151811061158b5761158b6120ff565b60200260200101518110156116d45760008382815181106115ae576115ae6120ff565b6020026020010151905060008383815181106115cc576115cc6120ff565b602002602001015190506000805b88811015611659578a81815181106115f4576115f46120ff565b60200260200101516001600160a01b0316836001600160a01b03160361164757838a8281518110611627576116276120ff565b6020026020010181815161163b9190612515565b90525060019150611659565b80611651816124a5565b9150506115da565b50806116be57818a8981518110611672576116726120ff565b60200260200101906001600160a01b031690816001600160a01b031681525050828989815181106116a5576116a56120ff565b6020908102919091010152876116ba816124a5565b9850505b50505080806116cc906124a5565b915050611579565b505050806116e1906124a5565b905061152d565b50806001600160401b0381111561170157611701611bb1565b60405190808252806020026020018201604052801561172a578160200160208202803683370190505b509650806001600160401b0381111561174557611745611bb1565b60405190808252806020026020018201604052801561176e578160200160208202803683370190505b50955060005b818110156118115783818151811061178e5761178e6120ff565b60200260200101518882815181106117a8576117a86120ff565b60200260200101906001600160a01b031690816001600160a01b0316815250508281815181106117da576117da6120ff565b60200260200101518782815181106117f4576117f46120ff565b602090810291909101015280611809816124a5565b915050611774565b505050505050965096945050505050565b60008183106118315781611833565b825b9392505050565b600061188f826040518060400160405280602081526020017f5361666545524332303a206c6f772d6c6576656c2063616c6c206661696c6564815250856001600160a01b0316611a219092919063ffffffff16565b80519091501561105f57808060200190518101906118ad9190612528565b61105f5760405162461bcd60e51b815260206004820152602a60248201527f5361666545524332303a204552433230206f7065726174696f6e20646964206e6044820152691bdd081cdd58d8d9595960b21b6064820152608401611151565b8015806119865750604051636eb1769f60e11b81523060048201526001600160a01b03838116602483015284169063dd62ed3e90604401602060405180830381865afa158015611960573d6000803e3d6000fd5b505050506040513d601f19601f820116820180604052508101906119849190612241565b155b6119f15760405162461bcd60e51b815260206004820152603660248201527f5361666545524332303a20617070726f76652066726f6d206e6f6e2d7a65726f60448201527520746f206e6f6e2d7a65726f20616c6c6f77616e636560501b6064820152608401611151565b6040516001600160a01b03831660248201526044810182905261105f90849063095ea7b360e01b90606401611028565b6060611a308484600085611a38565b949350505050565b606082471015611a995760405162461bcd60e51b815260206004820152602660248201527f416464726573733a20696e73756666696369656e742062616c616e636520666f6044820152651c8818d85b1b60d21b6064820152608401611151565b600080866001600160a01b03168587604051611ab5919061254a565b60006040518083038185875af1925050503d8060008114611af2576040519150601f19603f3d011682016040523d82523d6000602084013e611af7565b606091505b5091509150611b0887838387611b13565b979650505050505050565b60608315611b82578251600003611b7b576001600160a01b0385163b611b7b5760405162461bcd60e51b815260206004820152601d60248201527f416464726573733a2063616c6c20746f206e6f6e2d636f6e74726163740000006044820152606401611151565b5081611a30565b611a308383815115611b975781518083602001fd5b8060405162461bcd60e51b815260040161115191906124e2565b634e487b7160e01b600052604160045260246000fd5b604051601f8201601f191681016001600160401b0381118282101715611bef57611bef611bb1565b604052919050565b60006001600160401b03821115611c1057611c10611bb1565b5060051b60200190565b6001600160a01b0381168114611c2f57600080fd5b50565b600082601f830112611c4357600080fd5b81356020611c58611c5383611bf7565b611bc7565b82815260059290921b84018101918181019086841115611c7757600080fd5b8286015b84811015611c9b578035611c8e81611c1a565b8352918301918301611c7b565b509695505050505050565b600082601f830112611cb757600080fd5b81356020611cc7611c5383611bf7565b82815260059290921b84018101918181019086841115611ce657600080fd5b8286015b84811015611c9b5780358352918301918301611cea565b60008060008060008060c08789031215611d1a57600080fd5b8635955060208701356001600160401b0380821115611d3857600080fd5b611d448a838b01611c32565b96506040890135915080821115611d5a57600080fd5b50611d6789828a01611ca6565b945050606087013592506080870135915060a0870135611d8681611c1a565b809150509295509295509295565b600081518084526020808501945080840160005b83811015611dc457815187529582019590820190600101611da8565b509495945050505050565b6020815260006118336020830184611d94565b600080600080600060a08688031215611dfa57600080fd5b853594506020860135611e0c81611c1a565b93506040860135611e1c81611c1a565b925060608601356001600160401b0380821115611e3857600080fd5b611e4489838a01611c32565b93506080880135915080821115611e5a57600080fd5b50611e6788828901611ca6565b9150509295509295909350565b604081526000611e876040830185611d94565b8281036020840152611e998185611d94565b95945050505050565b60008060408385031215611eb557600080fd5b82356001600160401b03811115611ecb57600080fd5b611ed785828601611c32565b95602094909401359450505050565b60008060008060808587031215611efc57600080fd5b8435611f0781611c1a565b93506020850135611f1781611c1a565b925060408501356001600160401b0380821115611f3357600080fd5b611f3f88838901611c32565b93506060870135915080821115611f5557600080fd5b50611f6287828801611ca6565b91505092959194509250565b600080600080600060a08688031215611f8657600080fd5b8535611f9181611c1a565b945060208601356001600160401b0380821115611fad57600080fd5b611fb989838a01611c32565b95506040880135915080821115611fcf57600080fd5b611fdb89838a01611c32565b94506060880135915080821115611ff157600080fd5b611e4489838a01611ca6565b604080825283519082018190526000906020906060840190828701845b8281101561203f5781516001600160a01b03168452928401929084019060010161201a565b505050838103828501526120538186611d94565b9695505050505050565b600080600080600080600060e0888a03121561207857600080fd5b87359650602088013561208a81611c1a565b955060408801356001600160401b038111156120a557600080fd5b6120b18a828b01611c32565b9550506060880135935060808801356120c981611c1a565b9699959850939692959460a0840135945060c09093013592915050565b828152604060208201526000611a306040830184611d94565b634e487b7160e01b600052603260045260246000fd5b60006020828403121561212757600080fd5b815160ff8116811461183357600080fd5b634e487b7160e01b600052601160045260246000fd5b600181815b8085111561218957816000190482111561216f5761216f612138565b8085161561217c57918102915b93841c9390800290612153565b509250929050565b6000826121a057506001610961565b816121ad57506000610961565b81600181146121c357600281146121cd576121e9565b6001915050610961565b60ff8411156121de576121de612138565b50506001821b610961565b5060208310610133831016604e8410600b841016171561220c575081810a610961565b612216838361214e565b806000190482111561222a5761222a612138565b029392505050565b600061183360ff841683612191565b60006020828403121561225357600080fd5b5051919050565b808202811582820484141761096157610961612138565b60008261228e57634e487b7160e01b600052601260045260246000fd5b500490565b8181038181111561096157610961612138565b6000602082840312156122b857600080fd5b815161183381611c1a565b6080808252855190820181905260009060209060a0840190828901845b828110156123055781516001600160a01b0316845292840192908401906001016122e0565b5050508381038285015286518082528783019183019060005b8181101561233a5783518352928401929184019160010161231e565b50506001600160a01b03871660408601529250612355915050565b8215156060830152611e99565b600082601f83011261237357600080fd5b81516020612383611c5383611bf7565b82815260059290921b840181019181810190868411156123a257600080fd5b8286015b84811015611c9b57805183529183019183016123a6565b600080604083850312156123d057600080fd5b82516001600160401b03808211156123e757600080fd5b818501915085601f8301126123fb57600080fd5b8151602061240b611c5383611bf7565b82815260059290921b8401810191818101908984111561242a57600080fd5b948201945b8386101561245157855161244281611c1a565b8252948201949082019061242f565b9188015191965090935050508082111561246a57600080fd5b5061247785828601612362565b9150509250929050565b6000806040838503121561249457600080fd5b505080516020909101519092909150565b6000600182016124b7576124b7612138565b5060010190565b60005b838110156124d95781810151838201526020016124c1565b50506000910152565b60208152600082518060208401526125018160408501602087016124be565b601f01601f19169190910160400192915050565b8082018082111561096157610961612138565b60006020828403121561253a57600080fd5b8151801515811461183357600080fd5b6000825161255c8184602087016124be565b919091019291505056fea26469706673582212200f3bf21d07aa6d173743d365f25ae551a8995f6fe39832a83b8df1583e5c256164736f6c63430008110033",
  "devdoc": {
    "kind": "dev",
    "methods": {
      "claimConverterRewards(ITetuConverter,address[],address[],uint256[],uint256[])": {
        "details": "The post-processing is rewards conversion to the main asset",
        "params": {
          "amountsOut": "Amounts of available rewards",
          "rewardTokens_": "Amounts of rewards claimed from the internal pool",
          "tokensOut": "List of available rewards - not zero amounts, reward tokens don't repeat",
          "tokens_": "tokens received from {_depositorPoolAssets}"
        }
      },
      "getLiquidityAmount(uint256,address,address[],uint256,ITetuConverter,uint256,uint256)": {
        "details": "This is a writable function with read-only behavior (because of the quote-call)",
        "params": {
          "strategy_": "Address of the strategy",
          "targetAmount_": "Required amount of main asset to be withdrawn from the strategy; 0 - withdraw all"
        },
        "returns": {
          "amountsToConvertOut": "Amounts of {tokens} that should be converted to the main asset",
          "resultAmount": "Amount of liquidity that should be withdrawn from the pool, cannot exceed depositorLiquidity"
        }
      },
      "sendPerformanceFee(uint256,address,address,address[],uint256[])": {
        "params": {
          "performanceFee_": "Max is FEE_DENOMINATOR"
        },
        "returns": {
          "performanceAmounts": "Theses amounts were sent to {performanceReceiver_}",
          "rewardAmountsOut": "= rewardAmounts_ - performanceAmounts"
        }
      }
    },
    "version": 1
  },
  "userdoc": {
    "kind": "user",
    "methods": {
      "claimConverterRewards(ITetuConverter,address[],address[],uint256[],uint256[])": {
        "notice": "Claim rewards from tetuConverter, generate result list of all available rewards and airdrops"
      },
      "getAvailableBalances(address[],uint256)": {
        "notice": "Get balances of the {tokens_} except balance of the token at {indexAsset} position"
      },
      "getCollaterals(uint256,address[],uint256[],uint256,uint256,IPriceOracle)": {
        "notice": "For each {token_} calculate a part of {amount_} to be used as collateral according to the weights.         I.e. we have 300 USDC, we need to split it on 100 USDC, 100 USDT, 100 DAI         USDC is main asset, USDT and DAI should be borrowed. We check amounts of USDT and DAI on the balance         and return collaterals reduced on that amounts. For main asset, we return full amount always (100 USDC)."
      },
      "getLiquidityAmount(uint256,address,address[],uint256,ITetuConverter,uint256,uint256)": {
        "notice": "Calculate amount of liquidity that should be withdrawn from the pool to get {targetAmount_}               liquidityAmount = _depositorLiquidity() * {liquidityRatioOut} / 1e18         User needs to withdraw {targetAmount_} in main asset.         There are two kinds of available liquidity:         1) liquidity in the pool - {depositorLiquidity_}         2) Converted amounts on balance of the strategy - {baseAmounts_}         To withdraw {targetAmount_} we need         1) Reconvert converted amounts back to main asset         2) IF result amount is not necessary - withdraw some liquidity from the pool            and also convert it to the main asset."
      },
      "sendPerformanceFee(uint256,address,address,address[],uint256[])": {
        "notice": "Send {performanceFee_} of {rewardAmounts_} to {performanceReceiver}"
      }
    },
    "notice": "Continuation of ConverterStrategyBaseLib (workaround for size limits)",
    "version": 1
  },
  "storageLayout": {
    "storage": [],
    "types": null
  }
}