{
  "address": "0xB343b580a9e7367b2531A88dC5081652453b45eF",
  "abi": [
    {
      "anonymous": false,
      "inputs": [
        {
          "indexed": false,
          "internalType": "uint256",
          "name": "investedAssetsBefore",
          "type": "uint256"
        },
        {
          "indexed": false,
          "internalType": "uint256",
          "name": "investedAssetsOut",
          "type": "uint256"
        }
      ],
      "name": "FixPriceChanges",
      "type": "event"
    },
    {
      "anonymous": false,
      "inputs": [
        {
          "indexed": false,
          "internalType": "address",
          "name": "token",
          "type": "address"
        },
        {
          "indexed": false,
          "internalType": "uint256",
          "name": "amount",
          "type": "uint256"
        }
      ],
      "name": "LiquidationThresholdChanged",
      "type": "event"
    },
    {
      "anonymous": false,
      "inputs": [
        {
          "indexed": false,
          "internalType": "uint256",
          "name": "lossUncovered",
          "type": "uint256"
        }
      ],
      "name": "NotEnoughInsurance",
      "type": "event"
    },
    {
      "anonymous": false,
      "inputs": [
        {
          "indexed": false,
          "internalType": "uint256",
          "name": "amount",
          "type": "uint256"
        }
      ],
      "name": "ReinvestThresholdPercentChanged",
      "type": "event"
    },
    {
      "anonymous": false,
      "inputs": [
        {
          "indexed": false,
          "internalType": "uint256",
          "name": "sentAmount",
          "type": "uint256"
        },
        {
          "indexed": false,
          "internalType": "uint256",
          "name": "unsentAmount",
          "type": "uint256"
        }
      ],
      "name": "SendToInsurance",
      "type": "event"
    },
    {
      "anonymous": false,
      "inputs": [
        {
          "indexed": false,
          "internalType": "uint256",
          "name": "lossCovered",
          "type": "uint256"
        },
        {
          "indexed": false,
          "internalType": "uint256",
          "name": "lossUncovered",
          "type": "uint256"
        },
        {
          "indexed": false,
          "internalType": "uint256",
          "name": "investedAssetsBefore",
          "type": "uint256"
        },
        {
          "indexed": false,
          "internalType": "uint256",
          "name": "investedAssetsAfter",
          "type": "uint256"
        }
      ],
      "name": "UncoveredLoss",
      "type": "event"
    },
    {
      "inputs": [],
      "name": "HARDWORK_LOSS_TOLERANCE",
      "outputs": [
        {
          "internalType": "uint256",
          "name": "",
          "type": "uint256"
        }
      ],
      "stateMutability": "view",
      "type": "function"
    },
    {
      "inputs": [],
      "name": "PRICE_CHANGE_PROFIT_TOLERANCE",
      "outputs": [
        {
          "internalType": "uint256",
          "name": "",
          "type": "uint256"
        }
      ],
      "stateMutability": "view",
      "type": "function"
    },
    {
      "inputs": [
        {
          "internalType": "contract ITetuConverter",
          "name": "converter",
          "type": "ITetuConverter"
        },
        {
          "internalType": "address",
          "name": "token",
          "type": "address"
        }
      ],
      "name": "getAssetPriceFromConverter",
      "outputs": [
        {
          "internalType": "uint256",
          "name": "",
          "type": "uint256"
        }
      ],
      "stateMutability": "view",
      "type": "function"
    },
    {
      "inputs": [
        {
          "internalType": "address[]",
          "name": "tokens_",
          "type": "address[]"
        },
        {
          "internalType": "uint256",
          "name": "indexAsset",
          "type": "uint256"
        }
      ],
      "name": "getAvailableBalances",
      "outputs": [
        {
          "internalType": "uint256[]",
          "name": "",
          "type": "uint256[]"
        }
      ],
      "stateMutability": "view",
      "type": "function"
    },
    {
      "inputs": [
        {
          "internalType": "contract ITetuConverter",
          "name": "converter",
          "type": "ITetuConverter"
        },
        {
          "internalType": "address",
          "name": "tokenA",
          "type": "address"
        },
        {
          "internalType": "address",
          "name": "tokenB",
          "type": "address"
        }
      ],
      "name": "getOracleAssetsPrices",
      "outputs": [
        {
          "internalType": "uint256",
          "name": "priceA",
          "type": "uint256"
        },
        {
          "internalType": "uint256",
          "name": "priceB",
          "type": "uint256"
        }
      ],
      "stateMutability": "view",
      "type": "function"
    }
  ],
  "transactionHash": "0xe836aa039824cd1963db2b3f6a19a486da58e703bb5761bdb865c25bea1eabb5",
  "args": [],
  "numDeployments": 13,
  "solcInputHash": "0ff1f8ce11c49b6b328e3a75cfa776f9",
  "bytecode": "0x61369a61003a600b82828239805160001a60731461002d57634e487b7160e01b600052600060045260246000fd5b30600052607381538281f3fe730000000000000000000000000000000000000000301460806040526004361061010a5760003560e01c806397783a6c116100a1578063d5ade5c111610070578063d5ade5c114610291578063e24a7eb2146102a4578063e99de4da146102c4578063ec0cc4fd146102f257600080fd5b806397783a6c14610210578063ac2a37d614610223578063c9bce69014610251578063d2c3cf251461027157600080fd5b806368f9467b116100dd57806368f9467b1461017a5780637a55caf31461019a5780637a9a23e5146101ad578063890ffb84146101db57600080fd5b806309d28c571461010f578063142395ef1461012b5780631997c9ee1461010f5780636138ea851461014d575b600080fd5b6101186101f481565b6040519081526020015b60405180910390f35b81801561013757600080fd5b5061014b610146366004612adc565b610312565b005b81801561015957600080fd5b5061016d610168366004612c65565b6103c1565b6040516101229190612d1f565b81801561018657600080fd5b5061014b610195366004612d32565b61041b565b6101186101a8366004612d67565b6104c5565b8180156101b957600080fd5b506101cd6101c8366004612da0565b610545565b604051610122929190612e7a565b8180156101e757600080fd5b506101fb6101f6366004612e9f565b6105d2565b60408051928352602083019190915201610122565b61016d61021e366004612ef1565b610797565b81801561022f57600080fd5b5061024361023e366004612f35565b6108aa565b604051610122929190612f9e565b81801561025d57600080fd5b5061011861026c366004612fb7565b610a9f565b81801561027d57600080fd5b5061014b61028c366004613036565b610ab5565b6101fb61029f366004613062565b610ba1565b8180156102b057600080fd5b506101186102bf3660046130ad565b610c9a565b8180156102d057600080fd5b506102e46102df3660046130d9565b610ded565b604051610122929190613198565b8180156102fe57600080fd5b5061024361030d3660046131f8565b611019565b60405163124fdbb760e21b8152733BEB969c0cd273eA1d7a39137a757Cf1c474510a9063493f6edc90610349908690600401613281565b60006040518083038186803b15801561036157600080fd5b505af4158015610375573d6000803e3d6000fd5b5050604080516001600160a01b0386168152602081018590527f297f3fbc14027d2b4a4f7dac3dff2ad6b386024299045b0e163f131bb24b611d935001905060405180910390a1505050565b606061041284848787516001600160401b038111156103e2576103e2612b2d565b60405190808252806020026020018201604052801561040b578160200160208202803683370190505b50866112d3565b95945050505050565b6040516370a0823160e01b81526000906001600160a01b038516906370a082319061044a903090600401613281565b602060405180830381865afa158015610467573d6000803e3d6000fd5b505050506040513d601f19601f8201168201806040525081019061048b9190613295565b9050600081836000015461049f91906132c4565b9050808410156104be57818411156104be576104bb82856132d7565b83555b5050505050565b60006104d0836114b0565b6001600160a01b031663b3596f07836040518263ffffffff1660e01b81526004016104fb9190613281565b602060405180830381865afa158015610518573d6000803e3d6000fd5b505050506040513d601f19601f8201168201806040525081019061053c9190613295565b90505b92915050565b6060806000610555888888611575565b90506105648a8a8d84896112d3565b8a5190935060005b818110156105bf57858181518110610586576105866132ea565b60200260200101518782815181106105a0576105a06132ea565b602002602001018181516105b491906132c4565b90525060010161056c565b5085925050509850989650505050505050565b60008060006105e1878561167c565b905080156107355760408051808201909152601181527054532d35207a65726f2062616c616e636560781b6020820152856106385760405162461bcd60e51b815260040161062f9190613324565b60405180910390fd5b5061065c81620186a061064d886101f4613357565b610657919061336e565b61167c565b9050610735866001600160a01b031663fbfa77cf6040518163ffffffff1660e01b8152600401602060405180830381865afa15801561069f573d6000803e3d6000fd5b505050506040513d601f19601f820116820180604052508101906106c39190613390565b6001600160a01b03166389cf32046040518163ffffffff1660e01b8152600401602060405180830381865afa158015610700573d6000803e3d6000fd5b505050506040513d601f19601f820116820180604052508101906107249190613390565b6001600160a01b038a169083611692565b809250808711610746576000610750565b61075081886132d7565b60408051858152602081018390529193507fbaad96f61e3091f46555dc5cf915745a34dbd0981adc3f1c6747a4d5a1ffa055910160405180910390a1509550959350505050565b81516060906000816001600160401b038111156107b6576107b6612b2d565b6040519080825280602002602001820160405280156107df578160200160208202803683370190505b50905060005b828110156108a15780851461089957858181518110610806576108066132ea565b60200260200101516001600160a01b03166370a08231306040518263ffffffff1660e01b81526004016108399190613281565b602060405180830381865afa158015610856573d6000803e3d6000fd5b505050506040513d601f19601f8201168201806040525081019061087a9190613295565b82828151811061088c5761088c6132ea565b6020026020010181815250505b6001016107e5565b50949350505050565b60408051600280825260608083018452600093909291906020830190803683370190505090506108d9856116e9565b816000815181106108ec576108ec6132ea565b602002602001018181525050610901846116e9565b81600181518110610914576109146132ea565b6020908102919091010152604080516002808252606082019092526000918160200160208202803683370190505090508581600081518110610958576109586132ea565b60200260200101906001600160a01b031690816001600160a01b031681525050848160018151811061098c5761098c6132ea565b6001600160a01b03929092166020928302919091018201526040805160028082526060820183526000939192909183019080368337019050509050826000815181106109da576109da6132ea565b6020026020010151816000815181106109f5576109f56132ea565b6020026020010181815250506000610a10838360008d611759565b9050888110610a20576000610a2a565b610a2a818a6132d7565b84518735908690600090610a4057610a406132ea565b60200260200101511080610a745750866001602002013585600181518110610a6a57610a6a6132ea565b6020026020010151105b610a7e5784610a8e565b6040805160008152602081019091525b945094505050509550959350505050565b600061041285858585611759565b949350505050565b60405163124fdbb760e21b8152733BEB969c0cd273eA1d7a39137a757Cf1c474510a9063493f6edc90610aec908590600401613281565b60006040518083038186803b158015610b0457600080fd5b505af4158015610b18573d6000803e3d6000fd5b50505050620186a08111156040518060400160405280600f81526020016e53423a2057726f6e672076616c756560881b81525090610b695760405162461bcd60e51b815260040161062f9190613324565b506040518181527fe4166dfcf23bbd3e3f764a99dc8fa740554c03c82d6019b81cf265f396f6f2fe9060200160405180910390a15050565b6000806000610baf866114b0565b60405163b3596f0760e01b81529091506001600160a01b0382169063b3596f0790610bde908890600401613281565b602060405180830381865afa158015610bfb573d6000803e3d6000fd5b505050506040513d601f19601f82011682018060405250810190610c1f9190613295565b60405163b3596f0760e01b81529093506001600160a01b0382169063b3596f0790610c4e908790600401613281565b602060405180830381865afa158015610c6b573d6000803e3d6000fd5b505050506040513d601f19601f82011682018060405250810190610c8f9190613295565b915050935093915050565b600080610ca78585611c66565b90925090508015610dac5782546040516370a0823160e01b81526000918291610d3c9185916001600160a01b03909116906370a0823190610cec903090600401613281565b602060405180830381865afa158015610d09573d6000803e3d6000fd5b505050506040513d601f19601f82011682018060405250810190610d2d9190613295565b610d3790896132c4565b611c96565b60018701549193509150610d5a906001600160a01b03168584611cc7565b8015610da9576040805183815260208101839052908101889052606081018790527f79ebefb350a48e2a470929fdbef327f4d53ceaafdd43e30e288f0279aa70e5fd9060800160405180910390a15b50505b60408051868152602081018690527f3e60abe0a0e1f40e1cea1431e7b150cef698f6d8aa08b3d4e445d7a26bd93e2a910160405180910390a1509392505050565b606080600080886001600160a01b031663ef5cfb8c306040518263ffffffff1660e01b8152600401610e1f9190613281565b6000604051808303816000875af1158015610e3e573d6000803e3d6000fd5b505050506040513d6000823e601f3d908101601f19168201604052610e66919081019061340f565b91509150610eba878784848c8d516001600160401b03811115610e8b57610e8b612b2d565b604051908082528060200260200182016040528015610eb4578160200160208202803683370190505b50611f43565b8151919550935060005b81811015610ffd5760005b8a51811015610ff4578a8181518110610eea57610eea6132ea565b60200260200101516001600160a01b0316878381518110610f0d57610f0d6132ea565b60200260200101516001600160a01b031603610fec57878181518110610f3557610f356132ea565b60200260200101518b8281518110610f4f57610f4f6132ea565b60200260200101516001600160a01b03166370a08231306040518263ffffffff1660e01b8152600401610f829190613281565b602060405180830381865afa158015610f9f573d6000803e3d6000fd5b505050506040513d601f19601f82011682018060405250810190610fc39190613295565b610fcd91906132d7565b868381518110610fdf57610fdf6132ea565b6020026020010181815250505b600101610ecf565b50600101610ec4565b50611008858561246a565b909b909a5098505050505050505050565b8451600090606090891590806001600160401b0381111561103c5761103c612b2d565b604051908082528060200260200182016040528015611065578160200160208202803683370190505b50925060005b818110156112345780891461122c5760008a828151811061108e5761108e6132ea565b602002602001015190506000816001600160a01b03166370a08231306040518263ffffffff1660e01b81526004016110c69190613281565b602060405180830381865afa1580156110e3573d6000803e3d6000fd5b505050506040513d601f19601f820116820180604052508101906111079190613295565b905080156112295760008a6001600160a01b031663667df2498f8f8f81518110611133576111336132ea565b60209081029190910101516040516001600160e01b031960e085901b1681526001600160a01b039283166004820152908216602482015290861660448201526064810185905260840160408051808303816000875af115801561119a573d6000803e3d6000fd5b505050506040513d601f19601f820116820180604052508101906111be91906134d3565b50905085806111cc57508e15155b156111f157818785815181106111e4576111e46132ea565b6020026020010181815250505b808f116111ff57600061120b565b808f61120b91906132d7565b9e50808a1161121b576000611225565b611225818b6132d7565b9950505b50505b60010161106b565b5060008280611241575086155b611281578b1561127a576064876112618e680579a814e10a740000613357565b61126b919061336e565b611275919061336e565b61128b565b600061128b565b670de0b6b3a76400005b90508060000361129c5760006112c2565b6112c2670de0b6b3a76400006112b28884613357565b6112bc919061336e565b8761167c565b945050505097509795505050505050565b8451606090806001600160401b038111156112f0576112f0612b2d565b604051908082528060200260200182016040528015611319578160200160208202803683370190505b50915060005b818110156114a55786810361136b57848181518110611340576113406132ea565b602002602001015183828151811061135a5761135a6132ea565b60200260200101818152505061149d565b600084828151811061137f5761137f6132ea565b6020026020010151868381518110611399576113996132ea565b60200260200101516113ab91906132c4565b9050801561149b57866001600160a01b031663667df249308b8b815181106113d5576113d56132ea565b60200260200101518c86815181106113ef576113ef6132ea565b60209081029190910101516040516001600160e01b031960e086901b1681526001600160a01b03938416600482015291831660248301529190911660448201526064810184905260840160408051808303816000875af1158015611457573d6000803e3d6000fd5b505050506040513d601f19601f8201168201806040525081019061147b91906134d3565b5084838151811061148e5761148e6132ea565b6020026020010181815250505b505b60010161131f565b505095945050505050565b6000816001600160a01b031663f77c47916040518163ffffffff1660e01b8152600401602060405180830381865afa1580156114f0573d6000803e3d6000fd5b505050506040513d601f19601f820116820180604052508101906115149190613390565b6001600160a01b0316632630c12f6040518163ffffffff1660e01b8152600401602060405180830381865afa158015611551573d6000803e3d6000fd5b505050506040513d601f19601f8201168201806040525081019061053f9190613390565b6060600082156115b757828410156115a9578261159a85670de0b6b3a7640000613357565b6115a4919061336e565b6115ba565b670de0b6b3a76400006115ba565b60005b8551909150806001600160401b038111156115d7576115d7612b2d565b604051908082528060200260200182016040528015611600578160200160208202803683370190505b50925081156116735760005b8181101561167157670de0b6b3a764000083888381518110611630576116306132ea565b60200260200101516116429190613357565b61164c919061336e565b84828151811061165e5761165e6132ea565b602090810291909101015260010161160c565b505b50509392505050565b600081831061168b578161053c565b5090919050565b604080516001600160a01b038416602482015260448082018490528251808303909101815260649091019091526020810180516001600160e01b031663a9059cbb60e01b1790526116e4908490612658565b505050565b6040516370a0823160e01b81526000906001600160a01b038316906370a0823190611718903090600401613281565b602060405180830381865afa158015611735573d6000803e3d6000fd5b505050506040513d601f19601f8201168201806040525081019061053f9190613295565b60006117a66040518060c001604052806000815260200160608152602001606081526020016060815260200160006001600160a01b0316815260200160006001600160a01b031681525090565b8551815285518690859081106117be576117be6132ea565b60209081029190910101516001600160a01b031660808201526117ec6117e3846114b0565b8251889061272a565b6040830152602082015260005b8151811015611b32578481036118355785818151811061181b5761181b6132ea565b60200260200101518361182e91906132c4565b9250611b2a565b868181518110611847576118476132ea565b60209081029190910101516001600160a01b0390811660a08401819052608084015160405163dd27ede760e01b81523060048201526024810192909252821660448201526000606482018190529182919087169063dd27ede79060840160408051808303816000875af11580156118c2573d6000803e3d6000fd5b505050506040513d601f19601f820116820180604052508101906118e691906134d3565b9150915081851015611902576118fd848884612918565b61190f565b61190c82866132d7565b94505b6000888481518110611923576119236132ea565b60200260200101518560a001516001600160a01b03166370a08231306040518263ffffffff1660e01b815260040161195b9190613281565b602060405180830381865afa158015611978573d6000803e3d6000fd5b505050506040513d601f19601f8201168201806040525081019061199c9190613295565b6119a690846132c4565b6119b091906132c4565b608086015160a087015160405163dd27ede760e01b81523060048201526001600160a01b03928316602482015290821660448201526000606482015291925088169063dd27ede79060840160408051808303816000875af1158015611a19573d6000803e3d6000fd5b505050506040513d601f19601f82011682018060405250810190611a3d91906134d3565b9093509150611a4c82876132c4565b9550828110611b125784604001518481518110611a6b57611a6b6132ea565b602002602001015185602001518981518110611a8957611a896132ea565b602002602001015186604001518a81518110611aa757611aa76132ea565b602002602001015187602001518781518110611ac557611ac56132ea565b60200260200101518685611ad991906132d7565b611ae39190613357565b611aed9190613357565b611af7919061336e565b611b01919061336e565b611b0b90876132c4565b9550611b26565b611b268585611b2184876132d7565b612918565b5050505b6001016117f9565b508051606082015151036108a15760005b8151811015611c5c5781606001518181518110611b6257611b626132ea565b602002602001015160000315611c5457600082604001518281518110611b8a57611b8a6132ea565b602002602001015183602001518781518110611ba857611ba86132ea565b602002602001015184604001518881518110611bc657611bc66132ea565b602002602001015185602001518581518110611be457611be46132ea565b602002602001015186606001518681518110611c0257611c026132ea565b6020026020010151611c149190613357565b611c1e9190613357565b611c28919061336e565b611c32919061336e565b905083811115611c455760009350611c52565b611c4f81856132d7565b93505b505b600101611b43565b5050949350505050565b60008083831115611c8257611c7b84846132d7565b9150611c8f565b611c8c83856132d7565b90505b9250929050565b600080611cad84620186a061064d866101f4613357565b9150818411611cbd576000611c8c565b611c8c82856132d7565b6000836001600160a01b03166338d52e0f6040518163ffffffff1660e01b8152600401602060405180830381865afa158015611d07573d6000803e3d6000fd5b505050506040513d601f19601f82011682018060405250810190611d2b9190613390565b90506000846001600160a01b031663fbfa77cf6040518163ffffffff1660e01b8152600401602060405180830381865afa158015611d6d573d6000803e3d6000fd5b505050506040513d601f19601f82011682018060405250810190611d919190613390565b90506000826001600160a01b03166370a08231836040518263ffffffff1660e01b8152600401611dc19190613281565b602060405180830381865afa158015611dde573d6000803e3d6000fd5b505050506040513d601f19601f82011682018060405250810190611e029190613295565b604051630855081f60e01b815260048101879052602481018690529091506001600160a01b03871690630855081f90604401600060405180830381600087803b158015611e4e57600080fd5b505af1158015611e62573d6000803e3d6000fd5b50506040516370a0823160e01b8152600092506001600160a01b03861691506370a0823190611e95908690600401613281565b602060405180830381865afa158015611eb2573d6000803e3d6000fd5b505050506040513d601f19601f82011682018060405250810190611ed69190613295565b90506000828211611ee8576000611ef2565b611ef283836132d7565b905085811015611f39577fdf392b47ba4bbae72ff7c68976df0acdc2813e181199d2b2f65187eeb0ee6105611f2782886132d7565b60405190815260200160405180910390a15b5050505050505050565b604080516003808252608082019092526060918291600091602082018480368337019050509050885181600081518110611f7f57611f7f6132ea565b602002602001018181525050865181600181518110611fa057611fa06132ea565b602002602001018181525050845181600281518110611fc157611fc16132ea565b602002602001018181525050875181600081518110611fe257611fe26132ea565b60200260200101511480156120115750855181600181518110612007576120076132ea565b6020026020010151145b8015612037575083518160028151811061202d5761202d6132ea565b6020026020010151145b6040518060400160405280600d81526020016c54532d3139206c656e6774687360981b8152509061207b5760405162461bcd60e51b815260040161062f9190613324565b50600081600281518110612091576120916132ea565b6020026020010151826001815181106120ac576120ac6132ea565b6020026020010151836000815181106120c7576120c76132ea565b60200260200101516120d991906132c4565b6120e391906132c4565b90506000816001600160401b038111156120ff576120ff612b2d565b604051908082528060200260200182016040528015612128578160200160208202803683370190505b5090506000826001600160401b0381111561214557612145612b2d565b60405190808252806020026020018201604052801561216e578160200160208202803683370190505b5090506000805b6003811015612330576000811561219a5781600114612194578961219c565b8b61219c565b8d5b9050600082156121ba57826001146121b4578b6121bc565b8d6121bc565b8f5b905060005b8884815181106121d3576121d36132ea565b602002602001015181101561231c5760008382815181106121f6576121f66132ea565b602002602001015190506000838381518110612214576122146132ea565b602002602001015190506000805b888110156122a1578a818151811061223c5761223c6132ea565b60200260200101516001600160a01b0316836001600160a01b03160361228f57838a828151811061226f5761226f6132ea565b6020026020010181815161228391906132c4565b905250600191506122a1565b80612299816134f7565b915050612222565b508061230657818a89815181106122ba576122ba6132ea565b60200260200101906001600160a01b031690816001600160a01b031681525050828989815181106122ed576122ed6132ea565b602090810291909101015287612302816134f7565b9850505b5050508080612314906134f7565b9150506121c1565b50505080612329906134f7565b9050612175565b50806001600160401b0381111561234957612349612b2d565b604051908082528060200260200182016040528015612372578160200160208202803683370190505b509650806001600160401b0381111561238d5761238d612b2d565b6040519080825280602002602001820160405280156123b6578160200160208202803683370190505b50955060005b81811015612459578381815181106123d6576123d66132ea565b60200260200101518882815181106123f0576123f06132ea565b60200260200101906001600160a01b031690816001600160a01b031681525050828181518110612422576124226132ea565b602002602001015187828151811061243c5761243c6132ea565b602090810291909101015280612451816134f7565b9150506123bc565b505050505050965096945050505050565b60608082518451146040518060400160405280600d81526020016c54532d3139206c656e6774687360981b815250906124b65760405162461bcd60e51b815260040161062f9190613324565b508351600090815b81811015612507578581815181106124d8576124d86132ea565b60200260200101516000146124f557826124f1816134f7565b9350505b806124ff816134f7565b9150506124be565b50816001600160401b0381111561252057612520612b2d565b604051908082528060200260200182016040528015612549578160200160208202803683370190505b509350816001600160401b0381111561256457612564612b2d565b60405190808252806020026020018201604052801561258d578160200160208202803683370190505b5092506000805b8281101561264d5760008782815181106125b0576125b06132ea565b602002602001015190508060001461263a578882815181106125d4576125d46132ea565b60200260200101518784815181106125ee576125ee6132ea565b60200260200101906001600160a01b031690816001600160a01b03168152505080868481518110612621576126216132ea565b602090810291909101015282612636816134f7565b9350505b5080612645816134f7565b915050612594565b505050509250929050565b60006126ad826040518060400160405280602081526020017f5361666545524332303a206c6f772d6c6576656c2063616c6c206661696c6564815250856001600160a01b03166129a19092919063ffffffff16565b8051909150156116e457808060200190518101906126cb9190613510565b6116e45760405162461bcd60e51b815260206004820152602a60248201527f5361666545524332303a204552433230206f7065726174696f6e20646964206e6044820152691bdd081cdd58d8d9595960b21b606482015260840161062f565b606080826001600160401b0381111561274557612745612b2d565b60405190808252806020026020018201604052801561276e578160200160208202803683370190505b509150826001600160401b0381111561278957612789612b2d565b6040519080825280602002602001820160405280156127b2578160200160208202803683370190505b50905060005b8381101561290f578481815181106127d2576127d26132ea565b60200260200101516001600160a01b031663313ce5676040518163ffffffff1660e01b8152600401602060405180830381865afa158015612817573d6000803e3d6000fd5b505050506040513d601f19601f8201168201806040525081019061283b9190613532565b61284690600a613639565b828281518110612858576128586132ea565b602002602001018181525050856001600160a01b031663b3596f07868381518110612885576128856132ea565b60200260200101516040518263ffffffff1660e01b81526004016128a99190613281565b602060405180830381865afa1580156128c6573d6000803e3d6000fd5b505050506040513d601f19601f820116820180604052508101906128ea9190613295565b8382815181106128fc576128fc6132ea565b60209081029190910101526001016127b8565b50935093915050565b82606001515160000361296e5782516001600160401b0381111561293e5761293e612b2d565b604051908082528060200260200182016040528015612967578160200160208202803683370190505b5060608401525b8083606001518381518110612985576129856132ea565b6020026020010181815161299991906132c4565b905250505050565b6060610aad848460008585600080866001600160a01b031685876040516129c89190613648565b60006040518083038185875af1925050503d8060008114612a05576040519150601f19603f3d011682016040523d82523d6000602084013e612a0a565b606091505b5091509150612a1b87838387612a26565b979650505050505050565b60608315612a95578251600003612a8e576001600160a01b0385163b612a8e5760405162461bcd60e51b815260206004820152601d60248201527f416464726573733a2063616c6c20746f206e6f6e2d636f6e7472616374000000604482015260640161062f565b5081610aad565b610aad8383815115612aaa5781518083602001fd5b8060405162461bcd60e51b815260040161062f9190613324565b6001600160a01b0381168114612ad957600080fd5b50565b600080600060608486031215612af157600080fd5b8335612afc81612ac4565b92506020840135612b0c81612ac4565b929592945050506040919091013590565b8035612b2881612ac4565b919050565b634e487b7160e01b600052604160045260246000fd5b604051601f8201601f191681016001600160401b0381118282101715612b6b57612b6b612b2d565b604052919050565b60006001600160401b03821115612b8c57612b8c612b2d565b5060051b60200190565b600082601f830112612ba757600080fd5b81356020612bbc612bb783612b73565b612b43565b82815260059290921b84018101918181019086841115612bdb57600080fd5b8286015b84811015612bff578035612bf281612ac4565b8352918301918301612bdf565b509695505050505050565b600082601f830112612c1b57600080fd5b81356020612c2b612bb783612b73565b82815260059290921b84018101918181019086841115612c4a57600080fd5b8286015b84811015612bff5780358352918301918301612c4e565b60008060008060808587031215612c7b57600080fd5b8435612c8681612ac4565b935060208501356001600160401b0380821115612ca257600080fd5b612cae88838901612b96565b9450604087013593506060870135915080821115612ccb57600080fd5b50612cd887828801612c0a565b91505092959194509250565b600081518084526020808501945080840160005b83811015612d1457815187529582019590820190600101612cf8565b509495945050505050565b60208152600061053c6020830184612ce4565b600080600060608486031215612d4757600080fd5b8335612d5281612ac4565b95602085013595506040909401359392505050565b60008060408385031215612d7a57600080fd5b8235612d8581612ac4565b91506020830135612d9581612ac4565b809150509250929050565b600080600080600080600080610100898b031215612dbd57600080fd5b612dc689612b1d565b975060208901356001600160401b0380821115612de257600080fd5b612dee8c838d01612b96565b985060408b0135975060608b0135915080821115612e0b57600080fd5b612e178c838d01612c0a565b965060808b0135955060a08b0135945060c08b0135915080821115612e3b57600080fd5b612e478c838d01612c0a565b935060e08b0135915080821115612e5d57600080fd5b50612e6a8b828c01612c0a565b9150509295985092959890939650565b604081526000612e8d6040830185612ce4565b82810360208401526104128185612ce4565b600080600080600060a08688031215612eb757600080fd5b8535612ec281612ac4565b9450602086013593506040860135612ed981612ac4565b94979396509394606081013594506080013592915050565b60008060408385031215612f0457600080fd5b82356001600160401b03811115612f1a57600080fd5b612f2685828601612b96565b95602094909401359450505050565b600080600080600060c08688031215612f4d57600080fd5b8535612f5881612ac4565b9450602086013593506040860135612f6f81612ac4565b92506060860135612f7f81612ac4565b915060c08601871015612f9157600080fd5b5092959194509260800190565b828152604060208201526000610aad6040830184612ce4565b60008060008060808587031215612fcd57600080fd5b84356001600160401b0380821115612fe457600080fd5b612ff088838901612b96565b9550602087013591508082111561300657600080fd5b5061301387828801612c0a565b93505060408501359150606085013561302b81612ac4565b939692955090935050565b6000806040838503121561304957600080fd5b823561305481612ac4565b946020939093013593505050565b60008060006060848603121561307757600080fd5b833561308281612ac4565b9250602084013561309281612ac4565b915060408401356130a281612ac4565b809150509250925092565b6000806000606084860312156130c257600080fd5b505081359360208301359350604090920135919050565b600080600080600060a086880312156130f157600080fd5b85356130fc81612ac4565b945060208601356001600160401b038082111561311857600080fd5b61312489838a01612b96565b9550604088013591508082111561313a57600080fd5b61314689838a01612b96565b9450606088013591508082111561315c57600080fd5b61316889838a01612c0a565b9350608088013591508082111561317e57600080fd5b5061318b88828901612c0a565b9150509295509295909350565b604080825283519082018190526000906020906060840190828701845b828110156131da5781516001600160a01b0316845292840192908401906001016131b5565b505050838103828501526131ee8186612ce4565b9695505050505050565b600080600080600080600060e0888a03121561321357600080fd5b87359650602088013561322581612ac4565b955060408801356001600160401b0381111561324057600080fd5b61324c8a828b01612b96565b95505060608801359350608088013561326481612ac4565b9699959850939692959460a0840135945060c09093013592915050565b6001600160a01b0391909116815260200190565b6000602082840312156132a757600080fd5b5051919050565b634e487b7160e01b600052601160045260246000fd5b8082018082111561053f5761053f6132ae565b8181038181111561053f5761053f6132ae565b634e487b7160e01b600052603260045260246000fd5b60005b8381101561331b578181015183820152602001613303565b50506000910152565b6020815260008251806020840152613343816040850160208701613300565b601f01601f19169190910160400192915050565b808202811582820484141761053f5761053f6132ae565b60008261338b57634e487b7160e01b600052601260045260246000fd5b500490565b6000602082840312156133a257600080fd5b81516133ad81612ac4565b9392505050565b600082601f8301126133c557600080fd5b815160206133d5612bb783612b73565b82815260059290921b840181019181810190868411156133f457600080fd5b8286015b84811015612bff57805183529183019183016133f8565b6000806040838503121561342257600080fd5b82516001600160401b038082111561343957600080fd5b818501915085601f83011261344d57600080fd5b8151602061345d612bb783612b73565b82815260059290921b8401810191818101908984111561347c57600080fd5b948201945b838610156134a357855161349481612ac4565b82529482019490820190613481565b918801519196509093505050808211156134bc57600080fd5b506134c9858286016133b4565b9150509250929050565b600080604083850312156134e657600080fd5b505080516020909101519092909150565b600060018201613509576135096132ae565b5060010190565b60006020828403121561352257600080fd5b815180151581146133ad57600080fd5b60006020828403121561354457600080fd5b815160ff811681146133ad57600080fd5b600181815b80851115613590578160001904821115613576576135766132ae565b8085161561358357918102915b93841c939080029061355a565b509250929050565b6000826135a75750600161053f565b816135b45750600061053f565b81600181146135ca57600281146135d4576135f0565b600191505061053f565b60ff8411156135e5576135e56132ae565b50506001821b61053f565b5060208310610133831016604e8410600b8410161715613613575081810a61053f565b61361d8383613555565b8060001904821115613631576136316132ae565b029392505050565b600061053c60ff841683613598565b6000825161365a818460208701613300565b919091019291505056fea26469706673582212205ebe8fb550472a801623888830bbab25e5b6faa67850523d06668b24971cab1764736f6c63430008110033",
  "deployedBytecode": "0x730000000000000000000000000000000000000000301460806040526004361061010a5760003560e01c806397783a6c116100a1578063d5ade5c111610070578063d5ade5c114610291578063e24a7eb2146102a4578063e99de4da146102c4578063ec0cc4fd146102f257600080fd5b806397783a6c14610210578063ac2a37d614610223578063c9bce69014610251578063d2c3cf251461027157600080fd5b806368f9467b116100dd57806368f9467b1461017a5780637a55caf31461019a5780637a9a23e5146101ad578063890ffb84146101db57600080fd5b806309d28c571461010f578063142395ef1461012b5780631997c9ee1461010f5780636138ea851461014d575b600080fd5b6101186101f481565b6040519081526020015b60405180910390f35b81801561013757600080fd5b5061014b610146366004612adc565b610312565b005b81801561015957600080fd5b5061016d610168366004612c65565b6103c1565b6040516101229190612d1f565b81801561018657600080fd5b5061014b610195366004612d32565b61041b565b6101186101a8366004612d67565b6104c5565b8180156101b957600080fd5b506101cd6101c8366004612da0565b610545565b604051610122929190612e7a565b8180156101e757600080fd5b506101fb6101f6366004612e9f565b6105d2565b60408051928352602083019190915201610122565b61016d61021e366004612ef1565b610797565b81801561022f57600080fd5b5061024361023e366004612f35565b6108aa565b604051610122929190612f9e565b81801561025d57600080fd5b5061011861026c366004612fb7565b610a9f565b81801561027d57600080fd5b5061014b61028c366004613036565b610ab5565b6101fb61029f366004613062565b610ba1565b8180156102b057600080fd5b506101186102bf3660046130ad565b610c9a565b8180156102d057600080fd5b506102e46102df3660046130d9565b610ded565b604051610122929190613198565b8180156102fe57600080fd5b5061024361030d3660046131f8565b611019565b60405163124fdbb760e21b815273__$ec217c54da363a68ad871e6868efec481c$__9063493f6edc90610349908690600401613281565b60006040518083038186803b15801561036157600080fd5b505af4158015610375573d6000803e3d6000fd5b5050604080516001600160a01b0386168152602081018590527f297f3fbc14027d2b4a4f7dac3dff2ad6b386024299045b0e163f131bb24b611d935001905060405180910390a1505050565b606061041284848787516001600160401b038111156103e2576103e2612b2d565b60405190808252806020026020018201604052801561040b578160200160208202803683370190505b50866112d3565b95945050505050565b6040516370a0823160e01b81526000906001600160a01b038516906370a082319061044a903090600401613281565b602060405180830381865afa158015610467573d6000803e3d6000fd5b505050506040513d601f19601f8201168201806040525081019061048b9190613295565b9050600081836000015461049f91906132c4565b9050808410156104be57818411156104be576104bb82856132d7565b83555b5050505050565b60006104d0836114b0565b6001600160a01b031663b3596f07836040518263ffffffff1660e01b81526004016104fb9190613281565b602060405180830381865afa158015610518573d6000803e3d6000fd5b505050506040513d601f19601f8201168201806040525081019061053c9190613295565b90505b92915050565b6060806000610555888888611575565b90506105648a8a8d84896112d3565b8a5190935060005b818110156105bf57858181518110610586576105866132ea565b60200260200101518782815181106105a0576105a06132ea565b602002602001018181516105b491906132c4565b90525060010161056c565b5085925050509850989650505050505050565b60008060006105e1878561167c565b905080156107355760408051808201909152601181527054532d35207a65726f2062616c616e636560781b6020820152856106385760405162461bcd60e51b815260040161062f9190613324565b60405180910390fd5b5061065c81620186a061064d886101f4613357565b610657919061336e565b61167c565b9050610735866001600160a01b031663fbfa77cf6040518163ffffffff1660e01b8152600401602060405180830381865afa15801561069f573d6000803e3d6000fd5b505050506040513d601f19601f820116820180604052508101906106c39190613390565b6001600160a01b03166389cf32046040518163ffffffff1660e01b8152600401602060405180830381865afa158015610700573d6000803e3d6000fd5b505050506040513d601f19601f820116820180604052508101906107249190613390565b6001600160a01b038a169083611692565b809250808711610746576000610750565b61075081886132d7565b60408051858152602081018390529193507fbaad96f61e3091f46555dc5cf915745a34dbd0981adc3f1c6747a4d5a1ffa055910160405180910390a1509550959350505050565b81516060906000816001600160401b038111156107b6576107b6612b2d565b6040519080825280602002602001820160405280156107df578160200160208202803683370190505b50905060005b828110156108a15780851461089957858181518110610806576108066132ea565b60200260200101516001600160a01b03166370a08231306040518263ffffffff1660e01b81526004016108399190613281565b602060405180830381865afa158015610856573d6000803e3d6000fd5b505050506040513d601f19601f8201168201806040525081019061087a9190613295565b82828151811061088c5761088c6132ea565b6020026020010181815250505b6001016107e5565b50949350505050565b60408051600280825260608083018452600093909291906020830190803683370190505090506108d9856116e9565b816000815181106108ec576108ec6132ea565b602002602001018181525050610901846116e9565b81600181518110610914576109146132ea565b6020908102919091010152604080516002808252606082019092526000918160200160208202803683370190505090508581600081518110610958576109586132ea565b60200260200101906001600160a01b031690816001600160a01b031681525050848160018151811061098c5761098c6132ea565b6001600160a01b03929092166020928302919091018201526040805160028082526060820183526000939192909183019080368337019050509050826000815181106109da576109da6132ea565b6020026020010151816000815181106109f5576109f56132ea565b6020026020010181815250506000610a10838360008d611759565b9050888110610a20576000610a2a565b610a2a818a6132d7565b84518735908690600090610a4057610a406132ea565b60200260200101511080610a745750866001602002013585600181518110610a6a57610a6a6132ea565b6020026020010151105b610a7e5784610a8e565b6040805160008152602081019091525b945094505050509550959350505050565b600061041285858585611759565b949350505050565b60405163124fdbb760e21b815273__$ec217c54da363a68ad871e6868efec481c$__9063493f6edc90610aec908590600401613281565b60006040518083038186803b158015610b0457600080fd5b505af4158015610b18573d6000803e3d6000fd5b50505050620186a08111156040518060400160405280600f81526020016e53423a2057726f6e672076616c756560881b81525090610b695760405162461bcd60e51b815260040161062f9190613324565b506040518181527fe4166dfcf23bbd3e3f764a99dc8fa740554c03c82d6019b81cf265f396f6f2fe9060200160405180910390a15050565b6000806000610baf866114b0565b60405163b3596f0760e01b81529091506001600160a01b0382169063b3596f0790610bde908890600401613281565b602060405180830381865afa158015610bfb573d6000803e3d6000fd5b505050506040513d601f19601f82011682018060405250810190610c1f9190613295565b60405163b3596f0760e01b81529093506001600160a01b0382169063b3596f0790610c4e908790600401613281565b602060405180830381865afa158015610c6b573d6000803e3d6000fd5b505050506040513d601f19601f82011682018060405250810190610c8f9190613295565b915050935093915050565b600080610ca78585611c66565b90925090508015610dac5782546040516370a0823160e01b81526000918291610d3c9185916001600160a01b03909116906370a0823190610cec903090600401613281565b602060405180830381865afa158015610d09573d6000803e3d6000fd5b505050506040513d601f19601f82011682018060405250810190610d2d9190613295565b610d3790896132c4565b611c96565b60018701549193509150610d5a906001600160a01b03168584611cc7565b8015610da9576040805183815260208101839052908101889052606081018790527f79ebefb350a48e2a470929fdbef327f4d53ceaafdd43e30e288f0279aa70e5fd9060800160405180910390a15b50505b60408051868152602081018690527f3e60abe0a0e1f40e1cea1431e7b150cef698f6d8aa08b3d4e445d7a26bd93e2a910160405180910390a1509392505050565b606080600080886001600160a01b031663ef5cfb8c306040518263ffffffff1660e01b8152600401610e1f9190613281565b6000604051808303816000875af1158015610e3e573d6000803e3d6000fd5b505050506040513d6000823e601f3d908101601f19168201604052610e66919081019061340f565b91509150610eba878784848c8d516001600160401b03811115610e8b57610e8b612b2d565b604051908082528060200260200182016040528015610eb4578160200160208202803683370190505b50611f43565b8151919550935060005b81811015610ffd5760005b8a51811015610ff4578a8181518110610eea57610eea6132ea565b60200260200101516001600160a01b0316878381518110610f0d57610f0d6132ea565b60200260200101516001600160a01b031603610fec57878181518110610f3557610f356132ea565b60200260200101518b8281518110610f4f57610f4f6132ea565b60200260200101516001600160a01b03166370a08231306040518263ffffffff1660e01b8152600401610f829190613281565b602060405180830381865afa158015610f9f573d6000803e3d6000fd5b505050506040513d601f19601f82011682018060405250810190610fc39190613295565b610fcd91906132d7565b868381518110610fdf57610fdf6132ea565b6020026020010181815250505b600101610ecf565b50600101610ec4565b50611008858561246a565b909b909a5098505050505050505050565b8451600090606090891590806001600160401b0381111561103c5761103c612b2d565b604051908082528060200260200182016040528015611065578160200160208202803683370190505b50925060005b818110156112345780891461122c5760008a828151811061108e5761108e6132ea565b602002602001015190506000816001600160a01b03166370a08231306040518263ffffffff1660e01b81526004016110c69190613281565b602060405180830381865afa1580156110e3573d6000803e3d6000fd5b505050506040513d601f19601f820116820180604052508101906111079190613295565b905080156112295760008a6001600160a01b031663667df2498f8f8f81518110611133576111336132ea565b60209081029190910101516040516001600160e01b031960e085901b1681526001600160a01b039283166004820152908216602482015290861660448201526064810185905260840160408051808303816000875af115801561119a573d6000803e3d6000fd5b505050506040513d601f19601f820116820180604052508101906111be91906134d3565b50905085806111cc57508e15155b156111f157818785815181106111e4576111e46132ea565b6020026020010181815250505b808f116111ff57600061120b565b808f61120b91906132d7565b9e50808a1161121b576000611225565b611225818b6132d7565b9950505b50505b60010161106b565b5060008280611241575086155b611281578b1561127a576064876112618e680579a814e10a740000613357565b61126b919061336e565b611275919061336e565b61128b565b600061128b565b670de0b6b3a76400005b90508060000361129c5760006112c2565b6112c2670de0b6b3a76400006112b28884613357565b6112bc919061336e565b8761167c565b945050505097509795505050505050565b8451606090806001600160401b038111156112f0576112f0612b2d565b604051908082528060200260200182016040528015611319578160200160208202803683370190505b50915060005b818110156114a55786810361136b57848181518110611340576113406132ea565b602002602001015183828151811061135a5761135a6132ea565b60200260200101818152505061149d565b600084828151811061137f5761137f6132ea565b6020026020010151868381518110611399576113996132ea565b60200260200101516113ab91906132c4565b9050801561149b57866001600160a01b031663667df249308b8b815181106113d5576113d56132ea565b60200260200101518c86815181106113ef576113ef6132ea565b60209081029190910101516040516001600160e01b031960e086901b1681526001600160a01b03938416600482015291831660248301529190911660448201526064810184905260840160408051808303816000875af1158015611457573d6000803e3d6000fd5b505050506040513d601f19601f8201168201806040525081019061147b91906134d3565b5084838151811061148e5761148e6132ea565b6020026020010181815250505b505b60010161131f565b505095945050505050565b6000816001600160a01b031663f77c47916040518163ffffffff1660e01b8152600401602060405180830381865afa1580156114f0573d6000803e3d6000fd5b505050506040513d601f19601f820116820180604052508101906115149190613390565b6001600160a01b0316632630c12f6040518163ffffffff1660e01b8152600401602060405180830381865afa158015611551573d6000803e3d6000fd5b505050506040513d601f19601f8201168201806040525081019061053f9190613390565b6060600082156115b757828410156115a9578261159a85670de0b6b3a7640000613357565b6115a4919061336e565b6115ba565b670de0b6b3a76400006115ba565b60005b8551909150806001600160401b038111156115d7576115d7612b2d565b604051908082528060200260200182016040528015611600578160200160208202803683370190505b50925081156116735760005b8181101561167157670de0b6b3a764000083888381518110611630576116306132ea565b60200260200101516116429190613357565b61164c919061336e565b84828151811061165e5761165e6132ea565b602090810291909101015260010161160c565b505b50509392505050565b600081831061168b578161053c565b5090919050565b604080516001600160a01b038416602482015260448082018490528251808303909101815260649091019091526020810180516001600160e01b031663a9059cbb60e01b1790526116e4908490612658565b505050565b6040516370a0823160e01b81526000906001600160a01b038316906370a0823190611718903090600401613281565b602060405180830381865afa158015611735573d6000803e3d6000fd5b505050506040513d601f19601f8201168201806040525081019061053f9190613295565b60006117a66040518060c001604052806000815260200160608152602001606081526020016060815260200160006001600160a01b0316815260200160006001600160a01b031681525090565b8551815285518690859081106117be576117be6132ea565b60209081029190910101516001600160a01b031660808201526117ec6117e3846114b0565b8251889061272a565b6040830152602082015260005b8151811015611b32578481036118355785818151811061181b5761181b6132ea565b60200260200101518361182e91906132c4565b9250611b2a565b868181518110611847576118476132ea565b60209081029190910101516001600160a01b0390811660a08401819052608084015160405163dd27ede760e01b81523060048201526024810192909252821660448201526000606482018190529182919087169063dd27ede79060840160408051808303816000875af11580156118c2573d6000803e3d6000fd5b505050506040513d601f19601f820116820180604052508101906118e691906134d3565b9150915081851015611902576118fd848884612918565b61190f565b61190c82866132d7565b94505b6000888481518110611923576119236132ea565b60200260200101518560a001516001600160a01b03166370a08231306040518263ffffffff1660e01b815260040161195b9190613281565b602060405180830381865afa158015611978573d6000803e3d6000fd5b505050506040513d601f19601f8201168201806040525081019061199c9190613295565b6119a690846132c4565b6119b091906132c4565b608086015160a087015160405163dd27ede760e01b81523060048201526001600160a01b03928316602482015290821660448201526000606482015291925088169063dd27ede79060840160408051808303816000875af1158015611a19573d6000803e3d6000fd5b505050506040513d601f19601f82011682018060405250810190611a3d91906134d3565b9093509150611a4c82876132c4565b9550828110611b125784604001518481518110611a6b57611a6b6132ea565b602002602001015185602001518981518110611a8957611a896132ea565b602002602001015186604001518a81518110611aa757611aa76132ea565b602002602001015187602001518781518110611ac557611ac56132ea565b60200260200101518685611ad991906132d7565b611ae39190613357565b611aed9190613357565b611af7919061336e565b611b01919061336e565b611b0b90876132c4565b9550611b26565b611b268585611b2184876132d7565b612918565b5050505b6001016117f9565b508051606082015151036108a15760005b8151811015611c5c5781606001518181518110611b6257611b626132ea565b602002602001015160000315611c5457600082604001518281518110611b8a57611b8a6132ea565b602002602001015183602001518781518110611ba857611ba86132ea565b602002602001015184604001518881518110611bc657611bc66132ea565b602002602001015185602001518581518110611be457611be46132ea565b602002602001015186606001518681518110611c0257611c026132ea565b6020026020010151611c149190613357565b611c1e9190613357565b611c28919061336e565b611c32919061336e565b905083811115611c455760009350611c52565b611c4f81856132d7565b93505b505b600101611b43565b5050949350505050565b60008083831115611c8257611c7b84846132d7565b9150611c8f565b611c8c83856132d7565b90505b9250929050565b600080611cad84620186a061064d866101f4613357565b9150818411611cbd576000611c8c565b611c8c82856132d7565b6000836001600160a01b03166338d52e0f6040518163ffffffff1660e01b8152600401602060405180830381865afa158015611d07573d6000803e3d6000fd5b505050506040513d601f19601f82011682018060405250810190611d2b9190613390565b90506000846001600160a01b031663fbfa77cf6040518163ffffffff1660e01b8152600401602060405180830381865afa158015611d6d573d6000803e3d6000fd5b505050506040513d601f19601f82011682018060405250810190611d919190613390565b90506000826001600160a01b03166370a08231836040518263ffffffff1660e01b8152600401611dc19190613281565b602060405180830381865afa158015611dde573d6000803e3d6000fd5b505050506040513d601f19601f82011682018060405250810190611e029190613295565b604051630855081f60e01b815260048101879052602481018690529091506001600160a01b03871690630855081f90604401600060405180830381600087803b158015611e4e57600080fd5b505af1158015611e62573d6000803e3d6000fd5b50506040516370a0823160e01b8152600092506001600160a01b03861691506370a0823190611e95908690600401613281565b602060405180830381865afa158015611eb2573d6000803e3d6000fd5b505050506040513d601f19601f82011682018060405250810190611ed69190613295565b90506000828211611ee8576000611ef2565b611ef283836132d7565b905085811015611f39577fdf392b47ba4bbae72ff7c68976df0acdc2813e181199d2b2f65187eeb0ee6105611f2782886132d7565b60405190815260200160405180910390a15b5050505050505050565b604080516003808252608082019092526060918291600091602082018480368337019050509050885181600081518110611f7f57611f7f6132ea565b602002602001018181525050865181600181518110611fa057611fa06132ea565b602002602001018181525050845181600281518110611fc157611fc16132ea565b602002602001018181525050875181600081518110611fe257611fe26132ea565b60200260200101511480156120115750855181600181518110612007576120076132ea565b6020026020010151145b8015612037575083518160028151811061202d5761202d6132ea565b6020026020010151145b6040518060400160405280600d81526020016c54532d3139206c656e6774687360981b8152509061207b5760405162461bcd60e51b815260040161062f9190613324565b50600081600281518110612091576120916132ea565b6020026020010151826001815181106120ac576120ac6132ea565b6020026020010151836000815181106120c7576120c76132ea565b60200260200101516120d991906132c4565b6120e391906132c4565b90506000816001600160401b038111156120ff576120ff612b2d565b604051908082528060200260200182016040528015612128578160200160208202803683370190505b5090506000826001600160401b0381111561214557612145612b2d565b60405190808252806020026020018201604052801561216e578160200160208202803683370190505b5090506000805b6003811015612330576000811561219a5781600114612194578961219c565b8b61219c565b8d5b9050600082156121ba57826001146121b4578b6121bc565b8d6121bc565b8f5b905060005b8884815181106121d3576121d36132ea565b602002602001015181101561231c5760008382815181106121f6576121f66132ea565b602002602001015190506000838381518110612214576122146132ea565b602002602001015190506000805b888110156122a1578a818151811061223c5761223c6132ea565b60200260200101516001600160a01b0316836001600160a01b03160361228f57838a828151811061226f5761226f6132ea565b6020026020010181815161228391906132c4565b905250600191506122a1565b80612299816134f7565b915050612222565b508061230657818a89815181106122ba576122ba6132ea565b60200260200101906001600160a01b031690816001600160a01b031681525050828989815181106122ed576122ed6132ea565b602090810291909101015287612302816134f7565b9850505b5050508080612314906134f7565b9150506121c1565b50505080612329906134f7565b9050612175565b50806001600160401b0381111561234957612349612b2d565b604051908082528060200260200182016040528015612372578160200160208202803683370190505b509650806001600160401b0381111561238d5761238d612b2d565b6040519080825280602002602001820160405280156123b6578160200160208202803683370190505b50955060005b81811015612459578381815181106123d6576123d66132ea565b60200260200101518882815181106123f0576123f06132ea565b60200260200101906001600160a01b031690816001600160a01b031681525050828181518110612422576124226132ea565b602002602001015187828151811061243c5761243c6132ea565b602090810291909101015280612451816134f7565b9150506123bc565b505050505050965096945050505050565b60608082518451146040518060400160405280600d81526020016c54532d3139206c656e6774687360981b815250906124b65760405162461bcd60e51b815260040161062f9190613324565b508351600090815b81811015612507578581815181106124d8576124d86132ea565b60200260200101516000146124f557826124f1816134f7565b9350505b806124ff816134f7565b9150506124be565b50816001600160401b0381111561252057612520612b2d565b604051908082528060200260200182016040528015612549578160200160208202803683370190505b509350816001600160401b0381111561256457612564612b2d565b60405190808252806020026020018201604052801561258d578160200160208202803683370190505b5092506000805b8281101561264d5760008782815181106125b0576125b06132ea565b602002602001015190508060001461263a578882815181106125d4576125d46132ea565b60200260200101518784815181106125ee576125ee6132ea565b60200260200101906001600160a01b031690816001600160a01b03168152505080868481518110612621576126216132ea565b602090810291909101015282612636816134f7565b9350505b5080612645816134f7565b915050612594565b505050509250929050565b60006126ad826040518060400160405280602081526020017f5361666545524332303a206c6f772d6c6576656c2063616c6c206661696c6564815250856001600160a01b03166129a19092919063ffffffff16565b8051909150156116e457808060200190518101906126cb9190613510565b6116e45760405162461bcd60e51b815260206004820152602a60248201527f5361666545524332303a204552433230206f7065726174696f6e20646964206e6044820152691bdd081cdd58d8d9595960b21b606482015260840161062f565b606080826001600160401b0381111561274557612745612b2d565b60405190808252806020026020018201604052801561276e578160200160208202803683370190505b509150826001600160401b0381111561278957612789612b2d565b6040519080825280602002602001820160405280156127b2578160200160208202803683370190505b50905060005b8381101561290f578481815181106127d2576127d26132ea565b60200260200101516001600160a01b031663313ce5676040518163ffffffff1660e01b8152600401602060405180830381865afa158015612817573d6000803e3d6000fd5b505050506040513d601f19601f8201168201806040525081019061283b9190613532565b61284690600a613639565b828281518110612858576128586132ea565b602002602001018181525050856001600160a01b031663b3596f07868381518110612885576128856132ea565b60200260200101516040518263ffffffff1660e01b81526004016128a99190613281565b602060405180830381865afa1580156128c6573d6000803e3d6000fd5b505050506040513d601f19601f820116820180604052508101906128ea9190613295565b8382815181106128fc576128fc6132ea565b60209081029190910101526001016127b8565b50935093915050565b82606001515160000361296e5782516001600160401b0381111561293e5761293e612b2d565b604051908082528060200260200182016040528015612967578160200160208202803683370190505b5060608401525b8083606001518381518110612985576129856132ea565b6020026020010181815161299991906132c4565b905250505050565b6060610aad848460008585600080866001600160a01b031685876040516129c89190613648565b60006040518083038185875af1925050503d8060008114612a05576040519150601f19603f3d011682016040523d82523d6000602084013e612a0a565b606091505b5091509150612a1b87838387612a26565b979650505050505050565b60608315612a95578251600003612a8e576001600160a01b0385163b612a8e5760405162461bcd60e51b815260206004820152601d60248201527f416464726573733a2063616c6c20746f206e6f6e2d636f6e7472616374000000604482015260640161062f565b5081610aad565b610aad8383815115612aaa5781518083602001fd5b8060405162461bcd60e51b815260040161062f9190613324565b6001600160a01b0381168114612ad957600080fd5b50565b600080600060608486031215612af157600080fd5b8335612afc81612ac4565b92506020840135612b0c81612ac4565b929592945050506040919091013590565b8035612b2881612ac4565b919050565b634e487b7160e01b600052604160045260246000fd5b604051601f8201601f191681016001600160401b0381118282101715612b6b57612b6b612b2d565b604052919050565b60006001600160401b03821115612b8c57612b8c612b2d565b5060051b60200190565b600082601f830112612ba757600080fd5b81356020612bbc612bb783612b73565b612b43565b82815260059290921b84018101918181019086841115612bdb57600080fd5b8286015b84811015612bff578035612bf281612ac4565b8352918301918301612bdf565b509695505050505050565b600082601f830112612c1b57600080fd5b81356020612c2b612bb783612b73565b82815260059290921b84018101918181019086841115612c4a57600080fd5b8286015b84811015612bff5780358352918301918301612c4e565b60008060008060808587031215612c7b57600080fd5b8435612c8681612ac4565b935060208501356001600160401b0380821115612ca257600080fd5b612cae88838901612b96565b9450604087013593506060870135915080821115612ccb57600080fd5b50612cd887828801612c0a565b91505092959194509250565b600081518084526020808501945080840160005b83811015612d1457815187529582019590820190600101612cf8565b509495945050505050565b60208152600061053c6020830184612ce4565b600080600060608486031215612d4757600080fd5b8335612d5281612ac4565b95602085013595506040909401359392505050565b60008060408385031215612d7a57600080fd5b8235612d8581612ac4565b91506020830135612d9581612ac4565b809150509250929050565b600080600080600080600080610100898b031215612dbd57600080fd5b612dc689612b1d565b975060208901356001600160401b0380821115612de257600080fd5b612dee8c838d01612b96565b985060408b0135975060608b0135915080821115612e0b57600080fd5b612e178c838d01612c0a565b965060808b0135955060a08b0135945060c08b0135915080821115612e3b57600080fd5b612e478c838d01612c0a565b935060e08b0135915080821115612e5d57600080fd5b50612e6a8b828c01612c0a565b9150509295985092959890939650565b604081526000612e8d6040830185612ce4565b82810360208401526104128185612ce4565b600080600080600060a08688031215612eb757600080fd5b8535612ec281612ac4565b9450602086013593506040860135612ed981612ac4565b94979396509394606081013594506080013592915050565b60008060408385031215612f0457600080fd5b82356001600160401b03811115612f1a57600080fd5b612f2685828601612b96565b95602094909401359450505050565b600080600080600060c08688031215612f4d57600080fd5b8535612f5881612ac4565b9450602086013593506040860135612f6f81612ac4565b92506060860135612f7f81612ac4565b915060c08601871015612f9157600080fd5b5092959194509260800190565b828152604060208201526000610aad6040830184612ce4565b60008060008060808587031215612fcd57600080fd5b84356001600160401b0380821115612fe457600080fd5b612ff088838901612b96565b9550602087013591508082111561300657600080fd5b5061301387828801612c0a565b93505060408501359150606085013561302b81612ac4565b939692955090935050565b6000806040838503121561304957600080fd5b823561305481612ac4565b946020939093013593505050565b60008060006060848603121561307757600080fd5b833561308281612ac4565b9250602084013561309281612ac4565b915060408401356130a281612ac4565b809150509250925092565b6000806000606084860312156130c257600080fd5b505081359360208301359350604090920135919050565b600080600080600060a086880312156130f157600080fd5b85356130fc81612ac4565b945060208601356001600160401b038082111561311857600080fd5b61312489838a01612b96565b9550604088013591508082111561313a57600080fd5b61314689838a01612b96565b9450606088013591508082111561315c57600080fd5b61316889838a01612c0a565b9350608088013591508082111561317e57600080fd5b5061318b88828901612c0a565b9150509295509295909350565b604080825283519082018190526000906020906060840190828701845b828110156131da5781516001600160a01b0316845292840192908401906001016131b5565b505050838103828501526131ee8186612ce4565b9695505050505050565b600080600080600080600060e0888a03121561321357600080fd5b87359650602088013561322581612ac4565b955060408801356001600160401b0381111561324057600080fd5b61324c8a828b01612b96565b95505060608801359350608088013561326481612ac4565b9699959850939692959460a0840135945060c09093013592915050565b6001600160a01b0391909116815260200190565b6000602082840312156132a757600080fd5b5051919050565b634e487b7160e01b600052601160045260246000fd5b8082018082111561053f5761053f6132ae565b8181038181111561053f5761053f6132ae565b634e487b7160e01b600052603260045260246000fd5b60005b8381101561331b578181015183820152602001613303565b50506000910152565b6020815260008251806020840152613343816040850160208701613300565b601f01601f19169190910160400192915050565b808202811582820484141761053f5761053f6132ae565b60008261338b57634e487b7160e01b600052601260045260246000fd5b500490565b6000602082840312156133a257600080fd5b81516133ad81612ac4565b9392505050565b600082601f8301126133c557600080fd5b815160206133d5612bb783612b73565b82815260059290921b840181019181810190868411156133f457600080fd5b8286015b84811015612bff57805183529183019183016133f8565b6000806040838503121561342257600080fd5b82516001600160401b038082111561343957600080fd5b818501915085601f83011261344d57600080fd5b8151602061345d612bb783612b73565b82815260059290921b8401810191818101908984111561347c57600080fd5b948201945b838610156134a357855161349481612ac4565b82529482019490820190613481565b918801519196509093505050808211156134bc57600080fd5b506134c9858286016133b4565b9150509250929050565b600080604083850312156134e657600080fd5b505080516020909101519092909150565b600060018201613509576135096132ae565b5060010190565b60006020828403121561352257600080fd5b815180151581146133ad57600080fd5b60006020828403121561354457600080fd5b815160ff811681146133ad57600080fd5b600181815b80851115613590578160001904821115613576576135766132ae565b8085161561358357918102915b93841c939080029061355a565b509250929050565b6000826135a75750600161053f565b816135b45750600061053f565b81600181146135ca57600281146135d4576135f0565b600191505061053f565b60ff8411156135e5576135e56132ae565b50506001821b61053f565b5060208310610133831016604e8410600b8410161715613613575081810a61053f565b61361d8383613555565b8060001904821115613631576136316132ae565b029392505050565b600061053c60ff841683613598565b6000825161365a818460208701613300565b919091019291505056fea26469706673582212205ebe8fb550472a801623888830bbab25e5b6faa67850523d06668b24971cab1764736f6c63430008110033",
  "libraries": {
    "StrategyLib": "0x3BEB969c0cd273eA1d7a39137a757Cf1c474510a"
  },
  "devdoc": {
    "kind": "dev",
    "methods": {
      "calcInvestedAssets(address[],uint256[],uint256,ITetuConverter)": {
        "details": "This is writable function because we need to update current balances in the internal protocols.",
        "params": {
          "indexAsset": "Index of the underlying (main asset) in {tokens}"
        },
        "returns": {
          "amountOut": "Invested asset amount under control (in terms of underlying)"
        }
      },
      "claimConverterRewards(ITetuConverter,address[],address[],uint256[],uint256[])": {
        "details": "The post-processing is rewards conversion to the main asset",
        "params": {
          "amountsOut": "Amounts of available rewards",
          "rewardTokens_": "Amounts of rewards claimed from the internal pool",
          "tokensOut": "List of available rewards - not zero amounts, reward tokens don't repeat",
          "tokens_": "tokens received from {_depositorPoolAssets}"
        }
      },
      "coverLossAfterPriceChanging(uint256,uint256,IStrategyV3.BaseState storage)": {
        "params": {
          "investedAssetsAfter": "Actual value of invested assets calculated at the current moment",
          "investedAssetsBefore": "Currently stored value of _csbs.investedAssets"
        }
      },
      "fixTooHighInvestedAssets(address,uint256,IConverterStrategyBase.ConverterStrategyBaseState storage)": {
        "details": "If profitToCover was sent only partly, we will postpone sending of remain amount up to the next call      of fixPriceChange in same manner",
        "params": {
          "oldTotalAssets": "Total asset at the moment after last call of fixPriceChange,                       decreased on the value of profitToCover."
        }
      },
      "getLiquidityAmount(uint256,address,address[],uint256,ITetuConverter,uint256,uint256)": {
        "details": "This is a writable function with read-only behavior (because of the quote-call)",
        "params": {
          "strategy_": "Address of the strategy",
          "targetAmount_": "Required amount of main asset to be withdrawn from the strategy; 0 - withdraw all"
        },
        "returns": {
          "amountsToConvertOut": "Amounts of {tokens} that should be converted to the main asset",
          "resultAmount": "Amount of liquidity that should be withdrawn from the pool, cannot exceed depositorLiquidity"
        }
      },
      "getTokenAmountsPair(ITetuConverter,uint256,address,address,uint256[2])": {
        "params": {
          "liquidationThresholdsAB": "[liquidityThreshold of token A, liquidityThreshold of tokenB]"
        },
        "returns": {
          "loss": "New total assets - old total assets",
          "tokenAmounts": "Balances of the token A and token B.                     If any balance is zero it's not possible to enter to the pool, so return empty array (len 0)"
        }
      },
      "postWithdrawActions(ITetuConverter,address[],uint256,uint256[],uint256,uint256,uint256[],uint256[])": {
        "params": {
          "amountsToConvert": "Amounts of {tokens} to be converted, they are located on the balance before withdraw",
          "withdrawnAmounts": "Amounts of {tokens} that were withdrew from the pool"
        }
      },
      "sendToInsurance(address,uint256,address,uint256,uint256)": {
        "params": {
          "balance": "Current balance of the underlying",
          "totalAssets_": "Total strategy balance = balance of underlying + current invested assets amount"
        },
        "returns": {
          "sentAmount": "Amount of underlying sent to the insurance",
          "unsentAmount": "Missed part of the {amount} that were not sent to the insurance"
        }
      }
    },
    "stateVariables": {
      "HARDWORK_LOSS_TOLERANCE": {
        "details": "0.5% of max loss for strategy TVL"
      },
      "PRICE_CHANGE_PROFIT_TOLERANCE": {
        "details": "0.5% of max profit for strategy TVL"
      }
    },
    "version": 1
  },
  "userdoc": {
    "events": {
      "NotEnoughInsurance(uint256)": {
        "notice": "Insurance balance were not enough to cover the loss, {lossUncovered} was uncovered"
      },
      "UncoveredLoss(uint256,uint256,uint256,uint256)": {
        "notice": "Compensation of losses is not carried out completely because loss amount exceeds allowed max"
      }
    },
    "kind": "user",
    "methods": {
      "HARDWORK_LOSS_TOLERANCE()": {
        "notice": "Same value as StrategySplitterV2.HARDWORK_LOSS_TOLERANCE"
      },
      "PRICE_CHANGE_PROFIT_TOLERANCE()": {
        "notice": "Limit max amount of profit that can be send to insurance after price changing"
      },
      "calcInvestedAssets(address[],uint256[],uint256,ITetuConverter)": {
        "notice": "Calculate amount we will receive when we withdraw all from pool"
      },
      "claimConverterRewards(ITetuConverter,address[],address[],uint256[],uint256[])": {
        "notice": "Claim rewards from tetuConverter, generate result list of all available rewards and airdrops"
      },
      "coverLossAfterPriceChanging(uint256,uint256,IStrategyV3.BaseState storage)": {
        "notice": "Register income and cover possible loss after price changing, emit FixPriceChanges"
      },
      "fixTooHighInvestedAssets(address,uint256,IConverterStrategyBase.ConverterStrategyBaseState storage)": {
        "notice": "Swap can give us more amount out than expected, so we will receive increasing of share price.         To prevent it, we need to send exceeded amount to insurance,         but it's too expensive to make such transfer at the end of withdrawAggByStep.         So, we postpone sending the profit until the next call of fixPriceChange         by manually setting investedAssets equal to the oldTotalAssets"
      },
      "getAvailableBalances(address[],uint256)": {
        "notice": "Get balances of the {tokens_} except balance of the token at {indexAsset} position"
      },
      "getLiquidityAmount(uint256,address,address[],uint256,ITetuConverter,uint256,uint256)": {
        "notice": "Calculate amount of liquidity that should be withdrawn from the pool to get {targetAmount_}               liquidityAmount = _depositorLiquidity() * {liquidityRatioOut} / 1e18         User needs to withdraw {targetAmount_} in main asset.         There are two kinds of available liquidity:         1) liquidity in the pool - {depositorLiquidity_}         2) Converted amounts on balance of the strategy - {baseAmounts_}         To withdraw {targetAmount_} we need         1) Reconvert converted amounts back to main asset         2) IF result amount is not necessary - withdraw some liquidity from the pool            and also convert it to the main asset."
      },
      "getOracleAssetsPrices(ITetuConverter,address,address)": {
        "notice": "Get prices of {tokenA} and {tokenB}"
      },
      "getTokenAmountsPair(ITetuConverter,uint256,address,address,uint256[2])": {
        "notice": "Calculate the token amounts for deposit and amount of loss (as old-total-asset - new-total-asset)"
      },
      "postWithdrawActions(ITetuConverter,address[],uint256,uint256[],uint256,uint256,uint256[],uint256[])": {
        "notice": "Add {withdrawnAmounts} to {amountsToConvert}, calculate {expectedAmountMainAsset}"
      },
      "postWithdrawActionsEmpty(ITetuConverter,address[],uint256,uint256[])": {
        "notice": "return {withdrawnAmounts} with zero values and expected amount calculated using {amountsToConvert_}"
      },
      "sendToInsurance(address,uint256,address,uint256,uint256)": {
        "notice": "Send given {amount} of {asset} (== underlying) to the insurance"
      }
    },
    "notice": "Continuation of ConverterStrategyBaseLib (workaround for size limits)",
    "version": 1
  },
  "storageLayout": {
    "storage": [],
    "types": null
  }
}