{
  "address": "0x9971fDd707a2878Dc201294DcAbef5A0F8901589",
  "abi": [
    {
      "anonymous": false,
      "inputs": [
        {
          "indexed": false,
          "internalType": "address",
          "name": "collateralAsset",
          "type": "address"
        },
        {
          "indexed": false,
          "internalType": "address",
          "name": "borrowAsset",
          "type": "address"
        },
        {
          "indexed": false,
          "internalType": "uint256",
          "name": "amountRepay",
          "type": "uint256"
        },
        {
          "indexed": false,
          "internalType": "address",
          "name": "recepient",
          "type": "address"
        },
        {
          "indexed": false,
          "internalType": "uint256",
          "name": "returnedAssetAmountOut",
          "type": "uint256"
        },
        {
          "indexed": false,
          "internalType": "uint256",
          "name": "returnedBorrowAmountOut",
          "type": "uint256"
        }
      ],
      "name": "ClosePosition",
      "type": "event"
    },
    {
      "anonymous": false,
      "inputs": [
        {
          "indexed": false,
          "internalType": "uint256",
          "name": "investedAssetsBefore",
          "type": "uint256"
        },
        {
          "indexed": false,
          "internalType": "uint256",
          "name": "investedAssetsOut",
          "type": "uint256"
        }
      ],
      "name": "FixPriceChanges",
      "type": "event"
    },
    {
      "anonymous": false,
      "inputs": [
        {
          "indexed": false,
          "internalType": "address",
          "name": "tokenIn",
          "type": "address"
        },
        {
          "indexed": false,
          "internalType": "address",
          "name": "tokenOut",
          "type": "address"
        },
        {
          "indexed": false,
          "internalType": "uint256",
          "name": "amountIn",
          "type": "uint256"
        },
        {
          "indexed": false,
          "internalType": "uint256",
          "name": "spentAmountIn",
          "type": "uint256"
        },
        {
          "indexed": false,
          "internalType": "uint256",
          "name": "receivedAmountOut",
          "type": "uint256"
        }
      ],
      "name": "Liquidation",
      "type": "event"
    },
    {
      "anonymous": false,
      "inputs": [
        {
          "indexed": false,
          "internalType": "address",
          "name": "converter",
          "type": "address"
        },
        {
          "indexed": false,
          "internalType": "address",
          "name": "collateralAsset",
          "type": "address"
        },
        {
          "indexed": false,
          "internalType": "uint256",
          "name": "collateralAmount",
          "type": "uint256"
        },
        {
          "indexed": false,
          "internalType": "address",
          "name": "borrowAsset",
          "type": "address"
        },
        {
          "indexed": false,
          "internalType": "uint256",
          "name": "borrowedAmount",
          "type": "uint256"
        },
        {
          "indexed": false,
          "internalType": "address",
          "name": "recepient",
          "type": "address"
        }
      ],
      "name": "OpenPosition",
      "type": "event"
    },
    {
      "anonymous": false,
      "inputs": [
        {
          "indexed": false,
          "internalType": "address",
          "name": "asset",
          "type": "address"
        },
        {
          "indexed": false,
          "internalType": "uint256",
          "name": "amount",
          "type": "uint256"
        }
      ],
      "name": "ReturnAssetToConverter",
      "type": "event"
    },
    {
      "inputs": [
        {
          "internalType": "contract ITetuConverter",
          "name": "converter",
          "type": "ITetuConverter"
        },
        {
          "internalType": "address",
          "name": "token",
          "type": "address"
        }
      ],
      "name": "getAssetPriceFromConverter",
      "outputs": [
        {
          "internalType": "uint256",
          "name": "",
          "type": "uint256"
        }
      ],
      "stateMutability": "view",
      "type": "function"
    },
    {
      "inputs": [
        {
          "internalType": "contract ITetuConverter",
          "name": "converter",
          "type": "ITetuConverter"
        },
        {
          "internalType": "address",
          "name": "tokenA",
          "type": "address"
        },
        {
          "internalType": "address",
          "name": "tokenB",
          "type": "address"
        }
      ],
      "name": "getOracleAssetsPrice",
      "outputs": [
        {
          "internalType": "uint256",
          "name": "",
          "type": "uint256"
        }
      ],
      "stateMutability": "view",
      "type": "function"
    }
  ],
  "transactionHash": "0xc76645add27095a721faa663941a7192f41b8e64d2b6c295a5e8910cad2f6a61",
  "args": [],
  "numDeployments": 13,
  "solcInputHash": "ab046f60baf4f728a1eee5f7d3f43ff0",
  "bytecode": "0x615b1a6200003b600b82828239805160001a60731461002e57634e487b7160e01b600052600060045260246000fd5b30600052607381538281f3fe73000000000000000000000000000000000000000030146080604052600436106100d45760003560e01c8063954d7e7311610086578063954d7e73146101e657806399c1fde414610206578063c9bce69014610226578063ca27d10d14610246578063dcb7398e14610266578063ef50284f14610286578063f1f2b573146102b457600080fd5b80631a2221c7146100d957806358b54f161461010f5780636138ea851461013d5780637a55caf31461015d5780637a9a23e5146101705780637de8f5691461019e5780637fd6c0a1146101d3575b600080fd5b8180156100e557600080fd5b506100f96100f4366004614bb2565b6102d4565b6040516101069190614c74565b60405180910390f35b81801561011b57600080fd5b5061012f61012a366004614c87565b610582565b604051908152602001610106565b81801561014957600080fd5b506100f9610158366004614d04565b61059f565b61012f61016b366004614d83565b6105f9565b81801561017c57600080fd5b5061019061018b366004614dbc565b610733565b604051610106929190614e96565b8180156101aa57600080fd5b506101be6101b9366004614ec9565b6107c1565b60408051928352602083019190915201610106565b61012f6101e1366004614f57565b6107e5565b8180156101f257600080fd5b506101be610201366004614fa2565b6109b7565b81801561021257600080fd5b5061012f610221366004614ff3565b6109d4565b81801561023257600080fd5b5061012f610241366004615086565b610bed565b81801561025257600080fd5b506101be61026136600461512c565b61112f565b81801561027257600080fd5b5061012f6102813660046151ec565b611150565b81801561029257600080fd5b506102a66102a136600461521a565b61120b565b6040516101069291906152f1565b8180156102c057600080fd5b5061012f6102cf366004615313565b6115bf565b8351606090806001600160401b038111156102f1576102f1614a52565b60405190808252806020026020018201604052801561031a578160200160208202803683370190505b50915060005b818110156104b1578581146104a957848181518110610341576103416153d9565b60200260200101516000146104045761038d878781518110610365576103656153d9565b602002602001015186838151811061037f5761037f6153d9565b60200260200101518a6116c8565b61040188604051806020016040528060008152508989815181106103b3576103b36153d9565b60200260200101518a85815181106103cd576103cd6153d9565b60200260200101518986815181106103e7576103e76153d9565b60200260200101516103fc8a620186a0611773565b611789565b50505b868181518110610416576104166153d9565b60200260200101516001600160a01b03166370a08231306040518263ffffffff1660e01b815260040161044991906153ef565b602060405180830381865afa158015610466573d6000803e3d6000fd5b505050506040513d601f19601f8201168201806040525081019061048a9190615403565b83828151811061049c5761049c6153d9565b6020026020010181815250505b600101610320565b5061055a8486815181106104c7576104c76153d9565b60200260200101518787815181106104e1576104e16153d9565b60200260200101516001600160a01b03166370a08231306040518263ffffffff1660e01b815260040161051491906153ef565b602060405180830381865afa158015610531573d6000803e3d6000fd5b505050506040513d601f19601f820116820180604052508101906105559190615403565b611c12565b82868151811061056c5761056c6153d9565b6020026020010181815250505095945050505050565b6000610592878787878787611c21565b90505b9695505050505050565b60606105f084848787516001600160401b038111156105c0576105c0614a52565b6040519080825280602002602001820160405280156105e9578160200160208202803683370190505b50866123dc565b95945050505050565b6000826001600160a01b031663f77c47916040518163ffffffff1660e01b8152600401602060405180830381865afa158015610639573d6000803e3d6000fd5b505050506040513d601f19601f8201168201806040525081019061065d919061541c565b6001600160a01b0316632630c12f6040518163ffffffff1660e01b8152600401602060405180830381865afa15801561069a573d6000803e3d6000fd5b505050506040513d601f19601f820116820180604052508101906106be919061541c565b6001600160a01b031663b3596f07836040518263ffffffff1660e01b81526004016106e991906153ef565b602060405180830381865afa158015610706573d6000803e3d6000fd5b505050506040513d601f19601f8201168201806040525081019061072a9190615403565b90505b92915050565b60608060006107438888886125b9565b90506107528a8a8d84896123dc565b8a5190935060005b818110156107ad57858181518110610774576107746153d9565b602002602001015187828151811061078e5761078e6153d9565b602002602001018181516107a29190615456565b90525060010161075a565b5085925050505b9850989650505050505050565b6000806107d48a8a8a8a8a8a8a8a6126c0565b915091509850989650505050505050565b600080846001600160a01b031663f77c47916040518163ffffffff1660e01b8152600401602060405180830381865afa158015610826573d6000803e3d6000fd5b505050506040513d601f19601f8201168201806040525081019061084a919061541c565b6001600160a01b0316632630c12f6040518163ffffffff1660e01b8152600401602060405180830381865afa158015610887573d6000803e3d6000fd5b505050506040513d601f19601f820116820180604052508101906108ab919061541c565b90506000816001600160a01b031663b3596f07866040518263ffffffff1660e01b81526004016108db91906153ef565b602060405180830381865afa1580156108f8573d6000803e3d6000fd5b505050506040513d601f19601f8201168201806040525081019061091c9190615403565b90506000826001600160a01b031663b3596f07866040518263ffffffff1660e01b815260040161094c91906153ef565b602060405180830381865afa158015610969573d6000803e3d6000fd5b505050506040513d601f19601f8201168201806040525081019061098d9190615403565b9050816109a282670de0b6b3a7640000615469565b6109ac9190615480565b979650505050505050565b6000806109c68686868661284f565b915091505b94509492505050565b6000808688815181106109e9576109e96153d9565b60200260200101519050806001600160a01b03166370a08231306040518263ffffffff1660e01b8152600401610a1f91906153ef565b602060405180830381865afa158015610a3c573d6000803e3d6000fd5b505050506040513d601f19601f82011682018060405250810190610a609190615403565b915088821015610b7957610b07610a77838b6154a2565b888a878a8a6001600160a01b0316634046ebae6040518163ffffffff1660e01b8152600401602060405180830381865afa158015610ab9573d6000803e3d6000fd5b505050506040513d601f19601f82011682018060405250810190610add919061541c565b6001600160a01b038816600090815260208b90526040902054610b0261012c80615456565b612976565b50506040516370a0823160e01b81526001600160a01b038216906370a0823190610b359030906004016153ef565b602060405180830381865afa158015610b52573d6000803e3d6000fd5b505050506040513d601f19601f82011682018060405250810190610b769190615403565b91505b610b838983611c12565b91508115610b9f57610b9f6001600160a01b0382168784612b39565b604080516001600160a01b0383168152602081018490527f178d2d6770c9dbd24f8d3e4dc08998cad5a42857f107435518f65c761e253bcc910160405180910390a150979650505050505050565b6000610c1a6040518060800160405280600081526020016060815260200160608152602001606081525090565b8551816000018181525050610cf4836001600160a01b031663f77c47916040518163ffffffff1660e01b8152600401602060405180830381865afa158015610c66573d6000803e3d6000fd5b505050506040513d601f19601f82011682018060405250810190610c8a919061541c565b6001600160a01b0316632630c12f6040518163ffffffff1660e01b8152600401602060405180830381865afa158015610cc7573d6000803e3d6000fd5b505050506040513d601f19601f82011682018060405250810190610ceb919061541c565b82518890612b9c565b6040830152602082015260005b8151811015610ff957848103610d3d57858181518110610d2357610d236153d9565b602002602001015183610d369190615456565b9250610ff1565b6000868281518110610d5157610d516153d9565b6020026020010151888381518110610d6b57610d6b6153d9565b60200260200101516001600160a01b03166370a08231306040518263ffffffff1660e01b8152600401610d9e91906153ef565b602060405180830381865afa158015610dbb573d6000803e3d6000fd5b505050506040513d601f19601f82011682018060405250810190610ddf9190615403565b610de99190615456565b9050600080866001600160a01b031663dd27ede7308c8b81518110610e1057610e106153d9565b60200260200101518d8881518110610e2a57610e2a6153d9565b602002602001015160006040518563ffffffff1660e01b8152600401610e5394939291906154b5565b60408051808303816000875af1158015610e71573d6000803e3d6000fd5b505050506040513d601f19601f82011682018060405250810190610e9591906154df565b9092509050610ea48187615456565b9550818310610f6a5784604001518481518110610ec357610ec36153d9565b602002602001015185602001518981518110610ee157610ee16153d9565b602002602001015186604001518a81518110610eff57610eff6153d9565b602002602001015187602001518781518110610f1d57610f1d6153d9565b60200260200101518587610f3191906154a2565b610f3b9190615469565b610f459190615469565b610f4f9190615480565b610f599190615480565b610f639087615456565b9550610fed565b846060015151600003610fc05784516001600160401b03811115610f9057610f90614a52565b604051908082528060200260200182016040528015610fb9578160200160208202803683370190505b5060608601525b610fca83836154a2565b85606001518581518110610fe057610fe06153d9565b6020026020010181815250505b5050505b600101610d01565b508051606082015151036111255760005b81518110156111235781606001518181518110611029576110296153d9565b60200260200101516000031561111b57600082604001518281518110611051576110516153d9565b60200260200101518360200151878151811061106f5761106f6153d9565b60200260200101518460400151888151811061108d5761108d6153d9565b6020026020010151856020015185815181106110ab576110ab6153d9565b6020026020010151866060015186815181106110c9576110c96153d9565b60200260200101516110db9190615469565b6110e59190615469565b6110ef9190615480565b6110f99190615480565b90508381111561110c5760009350611119565b61111681856154a2565b93505b505b60010161100a565b505b505b949350505050565b600080611140888888888888611789565b915091505b965096945050505050565b60008061115d8585612d8a565b909250905080156111ca57604051630855081f60e01b815260048101839052602481018290526001600160a01b03841690630855081f90604401600060405180830381600087803b1580156111b157600080fd5b505af11580156111c5573d6000803e3d6000fd5b505050505b60408051868152602081018690527f3e60abe0a0e1f40e1cea1431e7b150cef698f6d8aa08b3d4e445d7a26bd93e2a910160405180910390a1509392505050565b606060006112606040518061010001604052806000815260200160008152602001600081526020016000815260200160006001600160a01b031681526020016000815260200160008152602001600081525090565b855160c08201819052855160408051808201909152601281527154532d342077726f6e67206c656e6774687360701b602082015291146112bc5760405162461bcd60e51b81526004016112b39190615553565b60405180910390fd5b506001600160a01b038b166000908152602088905260409020546112e390620186a0611773565b60a082015260c08101516001600160401b0381111561130457611304614a52565b60405190808252806020026020018201604052801561132d578160200160208202803683370190505b50925060005b8160c001518110156115af57620186a061134d86826154a2565b87838151811061135f5761135f6153d9565b60200260200101516113719190615469565b61137b9190615480565b60608301819052620186a090611392908d90615469565b61139c9190615480565b6020830152606082015186518790839081106113ba576113ba6153d9565b60200260200101516113cc91906154a2565b604083015286518790829081106113e5576113e56153d9565b6020908102919091018101516001600160a01b031660808401526040830151908301516114129190615456565b808352156115765760001961142b8b8460800151612dba565b146114cd578b6001600160a01b031682608001516001600160a01b03160361146357604082015161145c9084615456565b9250611576565b60808201516001600160a01b031660009081526020899052604090205461148d90620186a0611773565b8260400151106114c8576114b68d8a84608001518f86604001516113888860a0015160006126c0565b60e0840181905261145c915084615456565b611576565b60808201516001600160a01b03166000908152602089905260409020546114f790620186a0611773565b8251106115765761151d8d8a84608001518f86600001516113888860a0015160016126c0565b60e08401525081516060830151875188908490811061153e5761153e6153d9565b602002602001015161155091906154a2565b8360e0015161155f9190615469565b6115699190615480565b6115739084615456565b92505b8160200151826060015161158a91906154a2565b84828151811061159c5761159c6153d9565b6020908102919091010152600101611333565b5050995099975050505050505050565b6000805b89518110156115fb578381815181106115de576115de6153d9565b6020026020010151826115f19190615456565b91506001016115c3565b5060001984141580156116305750620186a0611619816103e8615456565b6116239086615469565b61162d9190615480565b81115b156116875761168086868a8560008e8e81518110611650576116506153d9565b60200260200101516001600160a01b03166001600160a01b03168152602001908152602001600020548d8c612e18565b50506116bc565b828881518110611699576116996153d9565b60200260200101516116af87878b86898f611c21565b6116b99190615456565b90505b98975050505050505050565b604051636eb1769f60e11b81523060048201526001600160a01b03828116602483015283919085169063dd62ed3e90604401602060405180830381865afa158015611717573d6000803e3d6000fd5b505050506040513d601f19601f8201168201806040525081019061173b9190615403565b101561176e576117566001600160a01b0384168260006131c5565b61176e6001600160a01b03841682600160ff1b6131c5565b505050565b6000818311611782578161072a565b5090919050565b6000808260000361179957600a92505b8284116117ab57506000905080611145565b6117e46040518060c001604052806000815260200160608152602001606081526020016060815260200160008152602001600081525090565b6117ed886132da565b8082526000190161181057611806898989898989613301565b9250925050611145565b60405163430ffb1760e01b81526001600160a01b038a169063430ffb1790611847908b908b908a908c906213c68090600401615566565b600060405180830381865afa158015611864573d6000803e3d6000fd5b505050506040513d6000823e601f3d908101601f1916820160405261188c9190810190615602565b506060840152604083015260208201819052518015611c0b5760005b81811015611c095782516119b857826040015181815181106118cc576118cc6153d9565b602002602001015187106118fd57826040015181815181106118f0576118f06153d9565b60200260200101516118ff565b865b6080840152604083015180518290811061191b5761191b6153d9565b6020026020010151871061194c578260600151818151811061193f5761193f6153d9565b602002602001015161199d565b82604001518181518110611962576119626153d9565b60200260200101518784606001518381518110611981576119816153d9565b60200260200101516119939190615469565b61199d9190615480565b60a084015260808301516119b190886154a2565b9650611ab6565b826060015181815181106119ce576119ce6153d9565b602002602001015187106119ff57826060015181815181106119f2576119f26153d9565b6020026020010151611a01565b865b60a08401526060830151805182908110611a1d57611a1d6153d9565b60200260200101518710611a4e5782604001518181518110611a4157611a416153d9565b6020026020010151611a9f565b82606001518181518110611a6457611a646153d9565b60200260200101518784604001518381518110611a8357611a836153d9565b6020026020010151611a959190615469565b611a9f9190615480565b608084015260a0830151611ab390886154a2565b96505b8587108015611ac457508615155b15611ace57600096505b60a083015115611bfb578a6001600160a01b0316630adb2d8584602001518381518110611afd57611afd6153d9565b60200260200101518b86608001518c8860a00151306040518763ffffffff1660e01b8152600401611b3396959493929190615703565b6020604051808303816000875af1158015611b52573d6000803e3d6000fd5b505050506040513d601f19601f82011682018060405250810190611b769190615403565b611b809085615456565b9350826080015185611b929190615456565b94507ff63c9c64ebdd1eb99706ca3f7489f7fbdd9c8756363cef40b2fc6e293fa150ec83602001518281518110611bcb57611bcb6153d9565b60200260200101518a85608001518b8760a0015130604051611bf296959493929190615703565b60405180910390a15b8615611c09576001016118a8565b505b5050611145565b6000818310611782578161072a565b6000821561059557611c966040518061018001604052806000815260200160006001600160a01b03168152602001600081526020016000815260200160008152602001600081526020016060815260200160008152602001600081526020016060815260200160608152602001600081525090565b828681518110611ca857611ca86153d9565b6020908102919091018101516001600160a01b0316908201819052835182526040516370a0823160e01b81526370a0823190611ce89030906004016153ef565b602060405180830381865afa158015611d05573d6000803e3d6000fd5b505050506040513d601f19601f82011682018060405250810190611d299190615403565b60a082015260005b81518110156123d0578087146123c857886001600160a01b031663dd27ede7308460200151878581518110611d6857611d686153d9565b602002602001015160016040518563ffffffff1660e01b8152600401611d9194939291906154b5565b60408051808303816000875af1158015611daf573d6000803e3d6000fd5b505050506040513d601f19601f82011682018060405250810190611dd391906154df565b61010084015260e08301528351600090859083908110611df557611df56153d9565b60200260200101516001600160a01b03166370a08231306040518263ffffffff1660e01b8152600401611e2891906153ef565b602060405180830381865afa158015611e45573d6000803e3d6000fd5b505050506040513d601f19601f82011682018060405250810190611e699190615403565b90508260e001516000141580611e7e57508015155b156123c65782610120015151600003611f6d57611f608a6001600160a01b031663f77c47916040518163ffffffff1660e01b8152600401602060405180830381865afa158015611ed2573d6000803e3d6000fd5b505050506040513d601f19601f82011682018060405250810190611ef6919061541c565b6001600160a01b0316632630c12f6040518163ffffffff1660e01b8152600401602060405180830381865afa158015611f33573d6000803e3d6000fd5b505050506040513d601f19601f82011682018060405250810190611f57919061541c565b84518790612b9c565b6101408501526101208401525b60e08301511561218a576000611f9c878560e001518661010001518761012001518861014001518e8989613816565b90508015801590611fb0575060a084015115155b156120c057611fc3818560a00151611c12565b90506120328b8b8660200151898781518110611fe157611fe16153d9565b60200260200101518561012c8e60008e8c81518110612002576120026153d9565b60200260200101516001600160a01b03166001600160a01b031681526020019081526020016000205460006126c0565b5080915050858381518110612049576120496153d9565b60200260200101516001600160a01b03166370a08231306040518263ffffffff1660e01b815260040161207c91906153ef565b602060405180830381865afa158015612099573d6000803e3d6000fd5b505050506040513d601f19601f820116820180604052508101906120bd9190615403565b91505b806120ea8c86602001518987815181106120dc576120dc6153d9565b6020026020010151866139e0565b6120f491906154a2565b6120fe9086615456565b9450858381518110612112576121126153d9565b60200260200101516001600160a01b03166370a08231306040518263ffffffff1660e01b815260040161214591906153ef565b602060405180830381865afa158015612162573d6000803e3d6000fd5b505050506040513d601f19601f820116820180604052508101906121869190615403565b9150505b80156122a75760006121ea8b8b8886815181106121a9576121a96153d9565b602002602001015187602001518661012c8e60008c602001516001600160a01b03166001600160a01b031681526020019081526020016000205460006126c0565b50905080156122a557836101400151838151811061220a5761220a6153d9565b60200260200101518461012001518a81518110612229576122296153d9565b60200260200101518561014001518b81518110612248576122486153d9565b60200260200101518661012001518681518110612267576122676153d9565b60200260200101518461227a9190615469565b6122849190615469565b61228e9190615480565b6122989190615480565b6122a29086615456565b94505b505b82602001516001600160a01b03166370a08231306040518263ffffffff1660e01b81526004016122d791906153ef565b602060405180830381865afa1580156122f4573d6000803e3d6000fd5b505050506040513d601f19601f820116820180604052508101906123189190615403565b610160840181905260a084015160408051808201909152601681527554532d32302062616c616e636520646563726561736560501b60208201529110156123725760405162461bcd60e51b81526004016112b39190615553565b508260a0015183610160015161238891906154a2565b8611156123c0578260a001518361016001516123a491906154a2565b6123ae90876154a2565b61016084015160a085015295506123c6565b506123d0565b505b600101611d31565b50509695505050505050565b8451606090806001600160401b038111156123f9576123f9614a52565b604051908082528060200260200182016040528015612422578160200160208202803683370190505b50915060005b818110156125ae5786810361247457848181518110612449576124496153d9565b6020026020010151838281518110612463576124636153d9565b6020026020010181815250506125a6565b6000848281518110612488576124886153d9565b60200260200101518683815181106124a2576124a26153d9565b60200260200101516124b49190615456565b905080156125a457866001600160a01b031663667df249308b8b815181106124de576124de6153d9565b60200260200101518c86815181106124f8576124f86153d9565b60209081029190910101516040516001600160e01b031960e086901b1681526001600160a01b03938416600482015291831660248301529190911660448201526064810184905260840160408051808303816000875af1158015612560573d6000803e3d6000fd5b505050506040513d601f19601f8201168201806040525081019061258491906154df565b50848381518110612597576125976153d9565b6020026020010181815250505b505b600101612428565b505095945050505050565b6060600082156125fb57828410156125ed57826125de85670de0b6b3a7640000615469565b6125e89190615480565b6125fe565b670de0b6b3a76400006125fe565b60005b8551909150806001600160401b0381111561261b5761261b614a52565b604051908082528060200260200182016040528015612644578160200160208202803683370190505b50925081156126b75760005b818110156126b557670de0b6b3a764000083888381518110612674576126746153d9565b60200260200101516126869190615469565b6126909190615480565b8482815181106126a2576126a26153d9565b6020908102919091010152600101612650565b505b50509392505050565b600080856000036126d6575060009050806107b4565b604051633744088160e11b81526001600160a01b0389811660048301528881166024830152600091908b1690636e88110290604401600060405180830381865afa158015612728573d6000803e3d6000fd5b505050506040513d6000823e601f3d908101601f191682016040526127509190810190615780565b50805160408051808201909152601a81527f54532d3135204e6f206c69717569646174696f6e20726f75746500000000000060208201529192506127a75760405162461bcd60e51b81526004016112b39190615553565b50604051637cbf210b60e11b81526000906001600160a01b038c169063f97e4216906127d99085908c906004016158f9565b602060405180830381865afa1580156127f6573d6000803e3d6000fd5b505050506040513d601f19601f8201168201806040525081019061281a9190615403565b905085811161282b5760008061283c565b8761283c8d848e8e8e8e8e8d613ba0565b9350935050509850989650505050505050565b6000806000846001600160a01b03166370a08231306040518263ffffffff1660e01b815260040161288091906153ef565b602060405180830381865afa15801561289d573d6000803e3d6000fd5b505050506040513d601f19601f820116820180604052508101906128c19190615403565b90506000876001600160a01b031663dd27ede730898960016040518563ffffffff1660e01b81526004016128f894939291906154b5565b60408051808303816000875af1158015612916573d6000803e3d6000fd5b505050506040513d601f19601f8201168201806040525081019061293a91906154df565b509050600061295782871061294f5782612951565b865b84611c12565b90506129668989898487613e90565b9450945050505094509492505050565b60608061299d60405180606001604052806000815260200160608152602001600081525090565b89518082526001600160401b038111156129b9576129b9614a52565b6040519080825280602002602001820160405280156129e2578160200160208202803683370190505b5060208201525b805160408201511015612ab55789816040015181518110612a0c57612a0c6153d9565b60200260200101516001600160a01b03166370a08231306040518263ffffffff1660e01b8152600401612a3f91906153ef565b602060405180830381865afa158015612a5c573d6000803e3d6000fd5b505050506040513d601f19601f82011682018060405250810190612a809190615403565b8160200151826040015181518110612a9a57612a9a6153d9565b602090810291909101015260408101805160010190526129e9565b612b276040518061012001604052808d81526020018c81526020018b81526020018a6001600160a01b0316815260200183602001518152602001896001600160a01b03168152602001886001600160a01b03168152602001612b1a88620186a0611773565b8152602001869052614071565b909c909b509950505050505050505050565b6040516001600160a01b03831660248201526044810182905261176e90849063a9059cbb60e01b906064015b60408051601f198184030181529190526020810180516001600160e01b03166001600160e01b0319909316929092179091526143fc565b606080826001600160401b03811115612bb757612bb7614a52565b604051908082528060200260200182016040528015612be0578160200160208202803683370190505b509150826001600160401b03811115612bfb57612bfb614a52565b604051908082528060200260200182016040528015612c24578160200160208202803683370190505b50905060005b83811015612d8157848181518110612c4457612c446153d9565b60200260200101516001600160a01b031663313ce5676040518163ffffffff1660e01b8152600401602060405180830381865afa158015612c89573d6000803e3d6000fd5b505050506040513d601f19601f82011682018060405250810190612cad919061590c565b612cb890600a615a13565b828281518110612cca57612cca6153d9565b602002602001018181525050856001600160a01b031663b3596f07868381518110612cf757612cf76153d9565b60200260200101516040518263ffffffff1660e01b8152600401612d1b91906153ef565b602060405180830381865afa158015612d38573d6000803e3d6000fd5b505050506040513d601f19601f82011682018060405250810190612d5c9190615403565b838281518110612d6e57612d6e6153d9565b6020908102919091010152600101612c2a565b50935093915050565b60008083831115612da657612d9f84846154a2565b9150612db3565b612db083856154a2565b90505b9250929050565b8151600090815b81811015612e0c57836001600160a01b0316858281518110612de557612de56153d9565b60200260200101516001600160a01b031603612e0457915061072d9050565b600101612dc1565b50600019949350505050565b60006060612e656040518060e0016040528060006001600160a01b031681526020016000815260200160008152602001600081526020016000815260200160008152602001600081525090565b848781518110612e7757612e776153d9565b60209081029190910101516001600160a01b03168082526040516370a0823160e01b81526370a0823190612eaf9030906004016153ef565b602060405180830381865afa158015612ecc573d6000803e3d6000fd5b505050506040513d601f19601f82011682018060405250810190612ef09190615403565b60a0820152845160c082015284516001600160401b03811115612f1557612f15614a52565b604051908082528060200260200182016040528015612f3e578160200160208202803683370190505b50915060005b8160c00151811015612fe65787811480612f775750848181518110612f6b57612f6b6153d9565b60200260200101516000145b612fde57612fbd8a8360000151888481518110612f9657612f966153d9565b6020026020010151888581518110612fb057612fb06153d9565b602002602001015161284f565b9050838281518110612fd157612fd16153d9565b6020026020010181815250505b600101612f44565b5060005b8160c0015181101561311a578781148061301d5750848181518110613011576130116153d9565b60200260200101516000145b61311257828181518110613033576130336153d9565b602002602001015185828151811061304d5761304d6153d9565b60200260200101511115613112576130c88a8a888481518110613072576130726153d9565b60200260200101518560000151878681518110613091576130916153d9565b60200260200101518a87815181106130ab576130ab6153d9565b60200260200101516130bd91906154a2565b61012c8d60006126c0565b6060840181905260408401919091526130e19085615456565b935081604001518382815181106130fa576130fa6153d9565b6020026020010181815161310e9190615456565b9052505b600101612fea565b5080516040516370a0823160e01b81526001600160a01b03909116906370a082319061314a9030906004016153ef565b602060405180830381865afa158015613167573d6000803e3d6000fd5b505050506040513d601f19601f8201168201806040525081019061318b9190615403565b6080820181905260a0820151106131a35760006131b7565b8060a0015181608001516131b791906154a2565b925050965096945050505050565b80158061323f5750604051636eb1769f60e11b81523060048201526001600160a01b03838116602483015284169063dd62ed3e90604401602060405180830381865afa158015613219573d6000803e3d6000fd5b505050506040513d601f19601f8201168201806040525081019061323d9190615403565b155b6132aa5760405162461bcd60e51b815260206004820152603660248201527f5361666545524332303a20617070726f76652066726f6d206e6f6e2d7a65726f60448201527520746f206e6f6e2d7a65726f20616c6c6f77616e636560501b60648201526084016112b3565b6040516001600160a01b03831660248201526044810182905261176e90849063095ea7b360e01b90606401612b65565b600081516000036132ed57506000919050565b8180602001905181019061072d9190615403565b6000806133536040518061012001604052806060815260200160608152602001606081526020016000815260200160008152602001600081526020016000815260200160008152602001600081525090565b60405163430ffb1760e01b81526001600160a01b038a169063430ffb179061338a908b908b908a908c906213c68090600401615566565b600060405180830381865afa1580156133a7573d6000803e3d6000fd5b505050506040513d6000823e601f3d908101601f191682016040526133cf9190810190615602565b5060408401526020830152808252518015613809576000808a8060200190518101906133fb9190615a22565b925092505061340b8c8b8b6144ce565b61010085015260005b8381101561380557670de0b6b3a76400008560400151828151811061343b5761343b6153d9565b60200260200101518661010001516134539190615469565b61345d9190615480565b60c0860181905282906134709085615469565b61347a9190615480565b60a08601819052602086015180518b9291908490811061349c5761349c6153d9565b60200260200101516134ae9190615456565b116134c157670de0b6b3a764000061350a565b8460a00151856020015182815181106134dc576134dc6153d9565b60200260200101516134ee9190615456565b6135008a670de0b6b3a7640000615469565b61350a9190615480565b60e0860181905260208601518051670de0b6b3a764000092919084908110613534576135346153d9565b60200260200101516135469190615469565b6135509190615480565b856060018181525050670de0b6b3a76400008560e001518660400151838151811061357d5761357d6153d9565b602002602001015161358f9190615469565b6135999190615480565b608086015260608501518811806135b257506080850151155b156135fa5788888660a00151876020015184815181106135d4576135d46153d9565b60200260200101516135e69190615456565b6135f09190615456565b11613805576137fd565b84608001518d6001600160a01b0316630adb2d8587600001518481518110613624576136246153d9565b60200260200101518e89606001518f8b60800151306040518763ffffffff1660e01b815260040161365a96959493929190615703565b6020604051808303816000875af1158015613679573d6000803e3d6000fd5b505050506040513d601f19601f8201168201806040525081019061369d9190615403565b146040518060400160405280600f81526020016e53423a2057726f6e672076616c756560881b815250906136e45760405162461bcd60e51b81526004016112b39190615553565b507ff63c9c64ebdd1eb99706ca3f7489f7fbdd9c8756363cef40b2fc6e293fa150ec8560000151828151811061371c5761371c6153d9565b60200260200101518c87606001518d89608001513060405161374396959493929190615703565b60405180910390a1608085015161375a9087615456565b955084606001518761376c9190615456565b9650670de0b6b3a7640000856080015186610100015161378c9190615469565b6137969190615480565b60c0860181905282906137a99085615469565b6137b39190615480565b60a0860181905260608601516137c891615456565b89116137d55760006137f3565b84606001518560a001516137e99190615456565b6137f3908a6154a2565b9850878910613805575b600101613414565b5050505b5050965096945050505050565b600087156116bc578115613861576000613830838a611c12565b90508861383d828a615469565b6138479190615480565b61385190896154a2565b975061385d818a6154a2565b9850505b6000858581518110613875576138756153d9565b602002602001015187858151811061388f5761388f6153d9565b60200260200101518786815181106138a9576138a96153d9565b60200260200101518988815181106138c3576138c36153d9565b60200260200101516138d59190615469565b6138e790670de0b6b3a7640000615469565b6138f19190615480565b6138fb9190615480565b905088158015906139275750670de0b6b3a76400008961391b8a84615469565b6139259190615480565b115b613932576000613980565b670de0b6b3a7640000896139468a84615469565b6139509190615480565b61395a91906154a2565b6139648b8a611c12565b61397690670de0b6b3a7640000615469565b6139809190615480565b915081156139d357620186a06139ad83836139a38d670de0b6b3a7640000615469565b6105559190615480565b6139bc620186a06103e8615456565b6139c69190615469565b6139d09190615480565b91505b5098975050505050505050565b600080836001600160a01b03166370a08231306040518263ffffffff1660e01b8152600401613a0f91906153ef565b602060405180830381865afa158015613a2c573d6000803e3d6000fd5b505050506040513d601f19601f82011682018060405250810190613a509190615403565b90506000866001600160a01b031663dd27ede730888860016040518563ffffffff1660e01b8152600401613a8794939291906154b5565b60408051808303816000875af1158015613aa5573d6000803e3d6000fd5b505050506040513d601f19601f82011682018060405250810190613ac991906154df565b5090506000613ae5828610613ade5782612951565b8584611c12565b60405163667df24960e01b81523060048201526001600160a01b0389811660248301528881166044830152606482018390529192506000918a169063667df2499060840160408051808303816000875af1158015613b47573d6000803e3d6000fd5b505050506040513d601f19601f82011682018060405250810190613b6b91906154df565b909550905080851115613b8557613b8281866154a2565b94505b613b928989898588613e90565b505050505050949350505050565b6000613bad8685896116c8565b6040516370a0823160e01b81526000906001600160a01b038716906370a0823190613bdc9030906004016153ef565b602060405180830381865afa158015613bf9573d6000803e3d6000fd5b505050506040513d601f19601f82011682018060405250810190613c1d9190615403565b6040516310fe133960e31b81529091506001600160a01b038916906387f099c890613c50908c9089908990600401615a50565b600060405180830381600087803b158015613c6a57600080fd5b505af1158015613c7e573d6000803e3d6000fd5b50506040516370a0823160e01b8152600092506001600160a01b03891691506370a0823190613cb19030906004016153ef565b602060405180830381865afa158015613cce573d6000803e3d6000fd5b505050506040513d601f19601f82011682018060405250810190613cf29190615403565b90508181116040518060400160405280601681526020017554532d32302062616c616e636520646563726561736560501b81525090613d445760405162461bcd60e51b81526004016112b39190615553565b50613d4f82826154a2565b92508380613ddf5750604051630a47e27160e21b81526001600160a01b03898116600483015260248201889052888116604483015260648201859052608482018790528c169063291f89c49060a401602060405180830381865afa158015613dbb573d6000803e3d6000fd5b505050506040513d601f19601f82011682018060405250810190613ddf9190615a75565b604051806040016040528060128152602001711514cb4c4d881c1c9a58d9481a5b5c1858dd60721b81525090613e285760405162461bcd60e51b81526004016112b39190615553565b50604080516001600160a01b03808b1682528916602082015290810187905260608101879052608081018490527f5a821a618ddb1a1fd304234a69c9d7f20c129d122fcf35593d13a071926643079060a00160405180910390a1505098975050505050505050565b600080613ea76001600160a01b0386168886612b39565b6040516314b685e960e21b81526001600160a01b038781166004830152868116602483015260448201869052306064830152600091908916906352da17a4906084016080604051808303816000875af1158015613f08573d6000803e3d6000fd5b505050506040513d601f19601f82011682018060405250810190613f2c9190615a92565b5050604080516001600160a01b03808c1682528a1660208201529081018890523060608201526080810183905260a0810182905291945091507f1d1ba11e7ca20f5dc77d8cfd75b68d11520677808f89f6ba0f0e50dc52c450129060c00160405180910390a16040516370a0823160e01b81526000906001600160a01b038816906370a0823190613fc19030906004016153ef565b602060405180830381865afa158015613fde573d6000803e3d6000fd5b505050506040513d601f19601f820116820180604052508101906140029190615403565b905080851161401257600061401c565b61401c81866154a2565b60408051808201909152600f81526e53423a2057726f6e672076616c756560881b602082015290935082156140645760405162461bcd60e51b81526004016112b39190615553565b5050509550959350505050565b60608061409f6040518060800160405280600081526020016060815260200160608152602001606081525090565b6020840151518082526001600160401b038111156140bf576140bf614a52565b6040519080825280602002602001820160405280156140e8578160200160208202803683370190505b5081519092506001600160401b0381111561410557614105614a52565b60405190808252806020026020018201604052801561412e578160200160208202803683370190505b5092506142078460a001516001600160a01b031663f77c47916040518163ffffffff1660e01b8152600401602060405180830381865afa158015614176573d6000803e3d6000fd5b505050506040513d601f19601f8201168201806040525081019061419a919061541c565b6001600160a01b0316632630c12f6040518163ffffffff1660e01b8152600401602060405180830381865afa1580156141d7573d6000803e3d6000fd5b505050506040513d601f19601f820116820180604052508101906141fb919061541c565b60208601518351612b9c565b604083015260208201526000805b825181101561432e5785602001518181518110614234576142346153d9565b60200260200101516001600160a01b031686606001516001600160a01b03160361426057809150614326565b604086015181146143265760008061429786896040015181518110614287576142876153d9565b6020026020010151898786614779565b91509150818784815181106142ae576142ae6153d9565b602002602001018181516142c29190615456565b905250604088015186518291889181106142de576142de6153d9565b602002602001018181516142f29190615456565b905250875160408901518751889190811061430f5761430f6153d9565b60200260200101511061432357505061432e565b50505b600101614215565b5084600001518386604001518151811061434a5761434a6153d9565b6020026020010151108015614363575080856040015114155b156143f55760008061439485886040015181518110614384576143846153d9565b6020026020010151888686614779565b91509150818684815181106143ab576143ab6153d9565b602002602001018181516143bf9190615456565b905250604087015185518291879181106143db576143db6153d9565b602002602001018181516143ef9190615456565b90525050505b5050915091565b6000614451826040518060400160405280602081526020017f5361666545524332303a206c6f772d6c6576656c2063616c6c206661696c6564815250856001600160a01b03166149179092919063ffffffff16565b80519091501561176e578080602001905181019061446f9190615a75565b61176e5760405162461bcd60e51b815260206004820152602a60248201527f5361666545524332303a204552433230206f7065726174696f6e20646964206e6044820152691bdd081cdd58d8d9595960b21b60648201526084016112b3565b600080846001600160a01b031663f77c47916040518163ffffffff1660e01b8152600401602060405180830381865afa15801561450f573d6000803e3d6000fd5b505050506040513d601f19601f82011682018060405250810190614533919061541c565b6001600160a01b0316632630c12f6040518163ffffffff1660e01b8152600401602060405180830381865afa158015614570573d6000803e3d6000fd5b505050506040513d601f19601f82011682018060405250810190614594919061541c565b90506000816001600160a01b031663b3596f07866040518263ffffffff1660e01b81526004016145c491906153ef565b602060405180830381865afa1580156145e1573d6000803e3d6000fd5b505050506040513d601f19601f820116820180604052508101906146059190615403565b90506000826001600160a01b031663b3596f07866040518263ffffffff1660e01b815260040161463591906153ef565b602060405180830381865afa158015614652573d6000803e3d6000fd5b505050506040513d601f19601f820116820180604052508101906146769190615403565b9050846001600160a01b031663313ce5676040518163ffffffff1660e01b8152600401602060405180830381865afa1580156146b6573d6000803e3d6000fd5b505050506040513d601f19601f820116820180604052508101906146da919061590c565b6146e590600a615a13565b82876001600160a01b031663313ce5676040518163ffffffff1660e01b8152600401602060405180830381865afa158015614724573d6000803e3d6000fd5b505050506040513d601f19601f82011682018060405250810190614748919061590c565b61475390600a615a13565b61476584670de0b6b3a7640000615469565b61476f9190615469565b6109a29190615480565b60008084608001518381518110614792576147926153d9565b60200260200101516000146109cb576000620186a0808761010001516147b89190615456565b86604001518860400151815181106147d2576147d26153d9565b6020026020010151876020015187815181106147f0576147f06153d9565b60200260200101518860400151888151811061480e5761480e6153d9565b602002602001015189602001518b6040015181518110614830576148306153d9565b60200260200101518c8c6000015161484891906154a2565b6148529190615469565b61485c9190615469565b6148669190615480565b6148709190615480565b61487a9190615469565b6148849190615480565b90506149098660a001518760c00151886020015187815181106148a9576148a96153d9565b602002602001015189602001518a60400151815181106148cb576148cb6153d9565b60200260200101516148fa868c608001518b815181106148ed576148ed6153d9565b6020026020010151611c12565b61012c8c60e0015160006126c0565b909890975095505050505050565b6060611127848460008585600080866001600160a01b0316858760405161493e9190615ac8565b60006040518083038185875af1925050503d806000811461497b576040519150601f19603f3d011682016040523d82523d6000602084013e614980565b606091505b50915091506109ac87838387606083156149fb5782516000036149f4576001600160a01b0385163b6149f45760405162461bcd60e51b815260206004820152601d60248201527f416464726573733a2063616c6c20746f206e6f6e2d636f6e747261637400000060448201526064016112b3565b5081611127565b6111278383815115614a105781518083602001fd5b8060405162461bcd60e51b81526004016112b39190615553565b6001600160a01b0381168114614a3f57600080fd5b50565b8035614a4d81614a2a565b919050565b634e487b7160e01b600052604160045260246000fd5b604051608081016001600160401b0381118282101715614a8a57614a8a614a52565b60405290565b604051601f8201601f191681016001600160401b0381118282101715614ab857614ab8614a52565b604052919050565b60006001600160401b03821115614ad957614ad9614a52565b5060051b60200190565b600082601f830112614af457600080fd5b81356020614b09614b0483614ac0565b614a90565b82815260059290921b84018101918181019086841115614b2857600080fd5b8286015b84811015614b4c578035614b3f81614a2a565b8352918301918301614b2c565b509695505050505050565b600082601f830112614b6857600080fd5b81356020614b78614b0483614ac0565b82815260059290921b84018101918181019086841115614b9757600080fd5b8286015b84811015614b4c5780358352918301918301614b9b565b600080600080600060a08688031215614bca57600080fd5b8535614bd581614a2a565b945060208601356001600160401b0380821115614bf157600080fd5b614bfd89838a01614ae3565b9550604088013594506060880135915080821115614c1a57600080fd5b50614c2788828901614b57565b95989497509295608001359392505050565b600081518084526020808501945080840160005b83811015614c6957815187529582019590820190600101614c4d565b509495945050505050565b60208152600061072a6020830184614c39565b60008060008060008060c08789031215614ca057600080fd5b8635614cab81614a2a565b95506020870135614cbb81614a2a565b945060408701359350606087013592506080870135915060a08701356001600160401b03811115614ceb57600080fd5b614cf789828a01614ae3565b9150509295509295509295565b60008060008060808587031215614d1a57600080fd5b8435614d2581614a2a565b935060208501356001600160401b0380821115614d4157600080fd5b614d4d88838901614ae3565b9450604087013593506060870135915080821115614d6a57600080fd5b50614d7787828801614b57565b91505092959194509250565b60008060408385031215614d9657600080fd5b8235614da181614a2a565b91506020830135614db181614a2a565b809150509250929050565b600080600080600080600080610100898b031215614dd957600080fd5b614de289614a42565b975060208901356001600160401b0380821115614dfe57600080fd5b614e0a8c838d01614ae3565b985060408b0135975060608b0135915080821115614e2757600080fd5b614e338c838d01614b57565b965060808b0135955060a08b0135945060c08b0135915080821115614e5757600080fd5b614e638c838d01614b57565b935060e08b0135915080821115614e7957600080fd5b50614e868b828c01614b57565b9150509295985092959890939650565b604081526000614ea96040830185614c39565b82810360208401526105f08185614c39565b8015158114614a3f57600080fd5b600080600080600080600080610100898b031215614ee657600080fd5b8835614ef181614a2a565b97506020890135614f0181614a2a565b96506040890135614f1181614a2a565b95506060890135614f2181614a2a565b94506080890135935060a0890135925060c0890135915060e0890135614f4681614ebb565b809150509295985092959890939650565b600080600060608486031215614f6c57600080fd5b8335614f7781614a2a565b92506020840135614f8781614a2a565b91506040840135614f9781614a2a565b809150509250925092565b60008060008060808587031215614fb857600080fd5b8435614fc381614a2a565b93506020850135614fd381614a2a565b92506040850135614fe381614a2a565b9396929550929360600135925050565b600080600080600080600060e0888a03121561500e57600080fd5b873596506020880135955060408801356001600160401b0381111561503257600080fd5b61503e8a828b01614ae3565b955050606088013561504f81614a2a565b9350608088013561505f81614a2a565b925060a088013561506f81614a2a565b8092505060c0880135905092959891949750929550565b6000806000806080858703121561509c57600080fd5b84356001600160401b03808211156150b357600080fd5b6150bf88838901614ae3565b955060208701359150808211156150d557600080fd5b506150e287828801614b57565b9350506040850135915060608501356150fa81614a2a565b939692955090935050565b60006001600160401b0382111561511e5761511e614a52565b50601f01601f191660200190565b60008060008060008060c0878903121561514557600080fd5b863561515081614a2a565b955060208701356001600160401b0381111561516b57600080fd5b8701601f8101891361517c57600080fd5b803561518a614b0482615105565b8181528a602083850101111561519f57600080fd5b816020840160208301376000602083830101528097505050506151c460408801614a42565b93506151d260608801614a42565b92506080870135915060a087013590509295509295509295565b60008060006060848603121561520157600080fd5b83359250602084013591506040840135614f9781614a2a565b60008060008060008060008060006101208a8c03121561523957600080fd5b6152428a614a42565b985061525060208b01614a42565b975060408a0135965060608a01356001600160401b038082111561527357600080fd5b61527f8d838e01614ae3565b975061528d60808d01614a42565b965060a08c0135955060c08c01359150808211156152aa57600080fd5b6152b68d838e01614ae3565b945060e08c01359150808211156152cc57600080fd5b506152d98c828d01614b57565b9250506101008a013590509295985092959850929598565b6040815260006153046040830185614c39565b90508260208301529392505050565b600080600080600080600080610100898b03121561533057600080fd5b88356001600160401b038082111561534757600080fd5b6153538c838d01614ae3565b995060208b0135985060408b013591508082111561537057600080fd5b61537c8c838d01614b57565b975061538a60608c01614a42565b965061539860808c01614a42565b955060a08b0135945060c08b01359150808211156153b557600080fd5b506153c28b828c01614b57565b92505060e089013590509295985092959890939650565b634e487b7160e01b600052603260045260246000fd5b6001600160a01b0391909116815260200190565b60006020828403121561541557600080fd5b5051919050565b60006020828403121561542e57600080fd5b815161543981614a2a565b9392505050565b634e487b7160e01b600052601160045260246000fd5b8082018082111561072d5761072d615440565b808202811582820484141761072d5761072d615440565b60008261549d57634e487b7160e01b600052601260045260246000fd5b500490565b8181038181111561072d5761072d615440565b6001600160a01b039485168152928416602084015292166040820152901515606082015260800190565b600080604083850312156154f257600080fd5b505080516020909101519092909150565b60005b8381101561551e578181015183820152602001615506565b50506000910152565b6000815180845261553f816020860160208601615503565b601f01601f19169290920160200192915050565b60208152600061072a6020830184615527565b60a08152600061557960a0830188615527565b6001600160a01b03968716602084015260408301959095525091909316606082015260800191909152919050565b600082601f8301126155b857600080fd5b815160206155c8614b0483614ac0565b82815260059290921b840181019181810190868411156155e757600080fd5b8286015b84811015614b4c57805183529183019183016155eb565b6000806000806080858703121561561857600080fd5b84516001600160401b038082111561562f57600080fd5b818701915087601f83011261564357600080fd5b81516020615653614b0483614ac0565b82815260059290921b8401810191818101908b84111561567257600080fd5b948201945b8386101561569957855161568a81614a2a565b82529482019490820190615677565b918a01519198509093505050808211156156b257600080fd5b6156be888389016155a7565b945060408701519150808211156156d457600080fd5b6156e0888389016155a7565b935060608701519150808211156156f657600080fd5b50614d77878288016155a7565b6001600160a01b039687168152948616602086015260408501939093529084166060840152608083015290911660a082015260c00190565b600082601f83011261574c57600080fd5b815161575a614b0482615105565b81815284602083860101111561576f57600080fd5b611127826020830160208701615503565b600080604080848603121561579457600080fd5b83516001600160401b03808211156157ab57600080fd5b818601915086601f8301126157bf57600080fd5b815160206157cf614b0483614ac0565b82815260079290921b8401810191818101908a8411156157ee57600080fd5b948201945b83861015615868576080868c03121561580c5760008081fd5b615814614a68565b865161581f81614a2a565b81528684015161582e81614a2a565b818501528688015161583f81614a2a565b8189015260608781015161585281614a2a565b90820152825260809590950194908201906157f3565b9189015191975090945050508083111561588157600080fd5b505061588f8582860161573b565b9150509250929050565b600081518084526020808501945080840160005b83811015614c6957815180516001600160a01b039081168952848201518116858a01526040808301518216908a01526060918201511690880152608090960195908201906001016158ad565b6040815260006153046040830185615899565b60006020828403121561591e57600080fd5b815160ff8116811461543957600080fd5b600181815b8085111561596a57816000190482111561595057615950615440565b8085161561595d57918102915b93841c9390800290615934565b509250929050565b6000826159815750600161072d565b8161598e5750600061072d565b81600181146159a457600281146159ae576159ca565b600191505061072d565b60ff8411156159bf576159bf615440565b50506001821b61072d565b5060208310610133831016604e8410600b84101617156159ed575081810a61072d565b6159f7838361592f565b8060001904821115615a0b57615a0b615440565b029392505050565b600061072a60ff841683615972565b600080600060608486031215615a3757600080fd5b8351925060208401519150604084015190509250925092565b606081526000615a636060830186615899565b60208301949094525060400152919050565b600060208284031215615a8757600080fd5b815161543981614ebb565b60008060008060808587031215615aa857600080fd5b505082516020840151604085015160609095015191969095509092509050565b60008251615ada818460208701615503565b919091019291505056fea2646970667358221220d68b96dfcb6df9a6deef8f050b4c7cdbb87017d351287a036ffdca1abebf02cd64736f6c63430008110033",
  "devdoc": {
    "kind": "dev",
    "methods": {
      "calcInvestedAssets(address[],uint256[],uint256,ITetuConverter)": {
        "details": "This is writable function because we need to update current balances in the internal protocols.",
        "returns": {
          "amountOut": "Invested asset amount under control (in terms of {asset})"
        }
      },
      "closePosition(ITetuConverter,address,address,uint256)": {
        "params": {
          "amountToRepay": "Amount to repay in terms of {borrowAsset}"
        },
        "returns": {
          "repaidAmountOut": "Amount that was actually repaid",
          "returnedAssetAmountOut": "Amount of collateral received back after repaying"
        }
      },
      "closePositionsToGetAmount(ITetuConverter,ITetuLiquidator,uint256,mapping(address => uint256) storage,uint256,address[])": {
        "details": "We assume here that this function is called before closing any positions in the current block",
        "params": {
          "liquidationThresholds": "Min allowed amounts-out for liquidations",
          "requestedAmount": "Requested amount of main asset that should be added to the current balance"
        },
        "returns": {
          "expectedAmount": "Main asset amount expected to be received on balance after all conversions and swaps"
        }
      },
      "getOracleAssetsPrice(ITetuConverter,address,address)": {
        "params": {
          "converter": "The Tetu converter.",
          "tokenA": "The first token address.",
          "tokenB": "The second token address."
        },
        "returns": {
          "_0": "The price ratio of the two tokens."
        }
      },
      "getTokenAmounts(ITetuConverter,address[],uint256,uint256[],uint256)": {
        "params": {
          "collaterals_": "Amounts of main asset that can be used as collateral to borrow {tokens_}",
          "thresholdMainAsset_": "Value of liquidation threshold for the main (collateral) asset",
          "tokens_": "Tokens received from {_depositorPoolAssets}"
        },
        "returns": {
          "tokenAmountsOut": "Amounts available for deposit"
        }
      },
      "liquidate(ITetuConverter,ITetuLiquidator,address,address,uint256,uint256,uint256,bool)": {
        "params": {
          "receivedAmountOut": "Amount of {tokenOut_} has been returned by the liquidator",
          "skipValidation": "Don't check correctness of conversion using TetuConverter's oracle (i.e. for reward tokens)",
          "spentAmountIn": "Amount of {tokenIn} has been consumed by the liquidator"
        }
      },
      "makeRequestedAmount(address[],uint256,uint256[],ITetuConverter,ITetuLiquidator,uint256,uint256[],mapping(address => uint256) storage)": {
        "params": {
          "amountsToConvert_": "Amounts available for conversion after withdrawing from the pool",
          "expectedMainAssetAmounts": "Amounts of main asset that we expect to receive after conversion amountsToConvert_",
          "indexAsset_": "Index of main {asset} in {tokens}",
          "requestedAmount": "Amount to be withdrawn in terms of the asset in addition to the exist balance.        Max uint means attempt to withdraw all possible invested assets.",
          "tokens_": "Results of _depositorPoolAssets() call (list of depositor's asset in proper order)"
        },
        "returns": {
          "expectedAmount": "Expected total amount of main asset after all conversions, swaps and repays"
        }
      },
      "openPosition(ITetuConverter,bytes,address,address,uint256,uint256)": {
        "params": {
          "amountIn_": "Meaning depends on {entryData_}.",
          "entryData_": "Encoded entry kind and additional params if necessary (set of params depends on the kind)                   See TetuConverter\\EntryKinds.sol\\ENTRY_KIND_XXX constants for possible entry kinds                   0 or empty: Amount of collateral {amountIn_} is fixed, amount of borrow should be max possible."
        }
      },
      "postWithdrawActions(ITetuConverter,address[],uint256,uint256[],uint256,uint256,uint256[],uint256[])": {
        "params": {
          "amountsToConvert": "Amounts of {tokens} to be converted, they are located on the balance before withdraw",
          "withdrawnAmounts": "Amounts of {tokens} that were withdrew from the pool"
        }
      },
      "recycle(ITetuConverter,address,uint256,address[],ITetuLiquidator,mapping(address => uint256) storage,address[],uint256[],uint256)": {
        "params": {
          "asset": "Underlying asset",
          "compoundRatio": "Compound ration in the range [0...COMPOUND_DENOMINATOR]",
          "liquidationThresholds": "Liquidation thresholds for rewards tokens",
          "performanceFee": "Performance fee in the range [0...FEE_DENOMINATOR]",
          "rewardAmounts": "Amounts of {rewardTokens_}; we assume, there are no zero amounts here",
          "rewardTokens": "Full list of reward tokens received from tetuConverter and depositor",
          "tokens": "tokens received from {_depositorPoolAssets}"
        },
        "returns": {
          "amountToPerformanceAndInsurance": "Amount of underlying to be sent to performance receiver and insurance",
          "amountsToForward": "Amounts of {rewardTokens} to be sent to forwarder, zero amounts are allowed here"
        }
      },
      "swapToGivenAmountAndSendToConverter(uint256,uint256,address[],address,address,address,mapping(address => uint256) storage)": {
        "params": {
          "amount_": "Amount of the main asset requested by converter",
          "asset": "Main asset or underlying (it can be different from tokens[indexTheAsset])",
          "indexTheAsset": "Index of the asset required by converter in the {tokens}"
        },
        "returns": {
          "amountOut": "Amount of the main asset sent to converter"
        }
      }
    },
    "stateVariables": {
      "DEFAULT_LIQUIDATION_THRESHOLD": {
        "details": "Absolute value for any token"
      },
      "GAP_CONVERSION": {
        "details": "We assume that: conversion-result-calculated-by-prices - liquidation-result <= the-gap"
      }
    },
    "version": 1
  },
  "userdoc": {
    "events": {
      "ClosePosition(address,address,uint256,address,uint256,uint256)": {
        "notice": "Some borrow(s) was/were repaid"
      },
      "Liquidation(address,address,uint256,uint256,uint256)": {
        "notice": "A liquidation was made"
      },
      "OpenPosition(address,address,uint256,address,uint256,address)": {
        "notice": "A borrow was made"
      }
    },
    "kind": "user",
    "methods": {
      "calcInvestedAssets(address[],uint256[],uint256,ITetuConverter)": {
        "notice": "Calculate amount we will receive when we withdraw all from pool"
      },
      "closePosition(ITetuConverter,address,address,uint256)": {
        "notice": "Close the given position, pay {amountToRepay}, return collateral amount in result"
      },
      "closePositionsToGetAmount(ITetuConverter,ITetuLiquidator,uint256,mapping(address => uint256) storage,uint256,address[])": {
        "notice": "Close debts (if it's allowed) in converter until we don't have {requestedAmount} on balance"
      },
      "coverPossibleStrategyLoss(uint256,uint256,address)": {
        "notice": "Register income and cover possible loss"
      },
      "getOracleAssetsPrice(ITetuConverter,address,address)": {
        "notice": "Get the price ratio of the two given tokens from the oracle."
      },
      "getTokenAmounts(ITetuConverter,address[],uint256,uint256[],uint256)": {
        "notice": "Make borrow and save amounts of tokens available for deposit to tokenAmounts"
      },
      "liquidate(ITetuConverter,ITetuLiquidator,address,address,uint256,uint256,uint256,bool)": {
        "notice": "Make liquidation if estimated amountOut exceeds the given threshold"
      },
      "makeRequestedAmount(address[],uint256,uint256[],ITetuConverter,ITetuLiquidator,uint256,uint256[],mapping(address => uint256) storage)": {
        "notice": "Convert {amountsToConvert_} to the main {asset}         Swap leftovers (if any) to the main asset.         If result amount is less than expected, try to close any other available debts (1 repay per block only)"
      },
      "openPosition(ITetuConverter,bytes,address,address,uint256,uint256)": {
        "notice": "Make one or several borrow necessary to supply/borrow required {amountIn_} according to {entryData_}         Max possible collateral should be approved before calling of this function."
      },
      "postWithdrawActions(ITetuConverter,address[],uint256,uint256[],uint256,uint256,uint256[],uint256[])": {
        "notice": "Add {withdrawnAmounts} to {amountsToConvert}, calculate {expectedAmountMainAsset}"
      },
      "postWithdrawActionsEmpty(ITetuConverter,address[],uint256,uint256[])": {
        "notice": "return {withdrawnAmounts} with zero values and expected amount calculated using {amountsToConvert_}"
      },
      "recycle(ITetuConverter,address,uint256,address[],ITetuLiquidator,mapping(address => uint256) storage,address[],uint256[],uint256)": {
        "notice": "Recycle the amounts: split each amount on tree parts: performance+insurance (P), forwarder (F), compound (C)         Liquidate P+C, send F to the forwarder. We have two kinds of rewards: 1) rewards in depositor's assets (the assets returned by _depositorPoolAssets) 2) any other rewards All received rewards divided on three parts: to performance receiver+insurance, to forwarder, to compound   Compound-part of Rewards-2 can be liquidated   Compound part of Rewards-1 should be just left on the balance   All forwarder-parts are returned in amountsToForward and should be transferred to the forwarder outside.   Performance amounts are liquidated, result amount of underlying is returned in {amountToPerformanceAndInsurance}"
      }
    },
    "version": 1
  },
  "storageLayout": {
    "storage": [],
    "types": null
  }
}