{
  "address": "0xd046d0428bDD6D5cCf67fE2cbC8d5039c24A8f6a",
  "abi": [
    {
      "anonymous": false,
      "inputs": [
        {
          "indexed": false,
          "internalType": "uint256",
          "name": "gains",
          "type": "uint256"
        },
        {
          "indexed": false,
          "internalType": "uint256",
          "name": "losses",
          "type": "uint256"
        }
      ],
      "name": "BorrowResults",
      "type": "event"
    },
    {
      "anonymous": false,
      "inputs": [
        {
          "indexed": false,
          "internalType": "int256",
          "name": "debtToInsuranceBefore",
          "type": "int256"
        },
        {
          "indexed": false,
          "internalType": "int256",
          "name": "increaseToDebt",
          "type": "int256"
        }
      ],
      "name": "ChangeDebtToInsuranceOnProfit",
      "type": "event"
    },
    {
      "anonymous": false,
      "inputs": [
        {
          "indexed": false,
          "internalType": "uint256",
          "name": "investedAssetsBefore",
          "type": "uint256"
        },
        {
          "indexed": false,
          "internalType": "uint256",
          "name": "investedAssetsOut",
          "type": "uint256"
        },
        {
          "indexed": false,
          "internalType": "int256",
          "name": "debtToInsuranceBefore",
          "type": "int256"
        },
        {
          "indexed": false,
          "internalType": "int256",
          "name": "debtToInsuranceAfter",
          "type": "int256"
        },
        {
          "indexed": false,
          "internalType": "int256",
          "name": "increaseToDebt",
          "type": "int256"
        }
      ],
      "name": "FixPriceChanges",
      "type": "event"
    },
    {
      "anonymous": false,
      "inputs": [
        {
          "indexed": false,
          "internalType": "address",
          "name": "token",
          "type": "address"
        },
        {
          "indexed": false,
          "internalType": "uint256",
          "name": "amount",
          "type": "uint256"
        }
      ],
      "name": "LiquidationThresholdChanged",
      "type": "event"
    },
    {
      "anonymous": false,
      "inputs": [
        {
          "indexed": false,
          "internalType": "uint256",
          "name": "lossToCover",
          "type": "uint256"
        },
        {
          "indexed": false,
          "internalType": "int256",
          "name": "debtToInsuranceInc",
          "type": "int256"
        },
        {
          "indexed": false,
          "internalType": "uint256",
          "name": "amountCovered",
          "type": "uint256"
        },
        {
          "indexed": false,
          "internalType": "uint256",
          "name": "lossUncovered",
          "type": "uint256"
        }
      ],
      "name": "OnCoverLoss",
      "type": "event"
    },
    {
      "anonymous": false,
      "inputs": [
        {
          "indexed": false,
          "internalType": "address[]",
          "name": "tokens",
          "type": "address[]"
        },
        {
          "indexed": false,
          "internalType": "uint256[]",
          "name": "deltaGains",
          "type": "uint256[]"
        },
        {
          "indexed": false,
          "internalType": "uint256[]",
          "name": "deltaLosses",
          "type": "uint256[]"
        },
        {
          "indexed": false,
          "internalType": "uint256[]",
          "name": "prices",
          "type": "uint256[]"
        },
        {
          "indexed": false,
          "internalType": "int256",
          "name": "increaseToDebt",
          "type": "int256"
        }
      ],
      "name": "OnIncreaseDebtToInsurance",
      "type": "event"
    },
    {
      "anonymous": false,
      "inputs": [
        {
          "indexed": false,
          "internalType": "uint256",
          "name": "amount",
          "type": "uint256"
        }
      ],
      "name": "ReinvestThresholdPercentChanged",
      "type": "event"
    },
    {
      "anonymous": false,
      "inputs": [
        {
          "indexed": false,
          "internalType": "uint256",
          "name": "sentAmount",
          "type": "uint256"
        },
        {
          "indexed": false,
          "internalType": "uint256",
          "name": "unsentAmount",
          "type": "uint256"
        }
      ],
      "name": "SendToInsurance",
      "type": "event"
    },
    {
      "anonymous": false,
      "inputs": [
        {
          "indexed": false,
          "internalType": "uint256",
          "name": "lossCovered",
          "type": "uint256"
        },
        {
          "indexed": false,
          "internalType": "uint256",
          "name": "lossUncovered",
          "type": "uint256"
        },
        {
          "indexed": false,
          "internalType": "uint256",
          "name": "investedAssetsBefore",
          "type": "uint256"
        },
        {
          "indexed": false,
          "internalType": "uint256",
          "name": "investedAssetsAfter",
          "type": "uint256"
        }
      ],
      "name": "UncoveredLoss",
      "type": "event"
    },
    {
      "inputs": [],
      "name": "HARDWORK_LOSS_TOLERANCE",
      "outputs": [
        {
          "internalType": "uint256",
          "name": "",
          "type": "uint256"
        }
      ],
      "stateMutability": "view",
      "type": "function"
    },
    {
      "inputs": [],
      "name": "PRICE_CHANGE_PROFIT_TOLERANCE",
      "outputs": [
        {
          "internalType": "uint256",
          "name": "",
          "type": "uint256"
        }
      ],
      "stateMutability": "view",
      "type": "function"
    },
    {
      "inputs": [
        {
          "internalType": "contract ITetuConverter",
          "name": "converter",
          "type": "ITetuConverter"
        },
        {
          "internalType": "address",
          "name": "token",
          "type": "address"
        }
      ],
      "name": "getAssetPriceFromConverter",
      "outputs": [
        {
          "internalType": "uint256",
          "name": "",
          "type": "uint256"
        }
      ],
      "stateMutability": "view",
      "type": "function"
    },
    {
      "inputs": [
        {
          "internalType": "address[]",
          "name": "tokens_",
          "type": "address[]"
        },
        {
          "internalType": "uint256",
          "name": "indexAsset",
          "type": "uint256"
        }
      ],
      "name": "getAvailableBalances",
      "outputs": [
        {
          "internalType": "uint256[]",
          "name": "",
          "type": "uint256[]"
        }
      ],
      "stateMutability": "view",
      "type": "function"
    },
    {
      "inputs": [
        {
          "internalType": "uint256",
          "name": "targetAmount",
          "type": "uint256"
        },
        {
          "internalType": "address[]",
          "name": "tokens",
          "type": "address[]"
        },
        {
          "internalType": "uint256",
          "name": "indexAsset",
          "type": "uint256"
        },
        {
          "internalType": "contract ITetuConverter",
          "name": "converter",
          "type": "ITetuConverter"
        },
        {
          "internalType": "uint256[]",
          "name": "quoteAmounts",
          "type": "uint256[]"
        },
        {
          "internalType": "uint256",
          "name": "depositorLiquidity",
          "type": "uint256"
        },
        {
          "internalType": "uint256",
          "name": "indexUnderlying",
          "type": "uint256"
        }
      ],
      "name": "getLiquidityAmount",
      "outputs": [
        {
          "internalType": "uint256",
          "name": "resultAmount",
          "type": "uint256"
        }
      ],
      "stateMutability": "view",
      "type": "function"
    },
    {
      "inputs": [
        {
          "internalType": "contract ITetuConverter",
          "name": "converter",
          "type": "ITetuConverter"
        },
        {
          "internalType": "address",
          "name": "tokenA",
          "type": "address"
        },
        {
          "internalType": "address",
          "name": "tokenB",
          "type": "address"
        }
      ],
      "name": "getOracleAssetsPrice",
      "outputs": [
        {
          "internalType": "uint256",
          "name": "price",
          "type": "uint256"
        }
      ],
      "stateMutability": "view",
      "type": "function"
    }
  ],
  "transactionHash": "0x824281ed07d5a7459f336deaa3803b8a0b9cf8037095bf6f843bdf2b5b450d48",
  "args": [],
  "numDeployments": 18,
  "solcInputHash": "beebd18f82b76c6876687623c23a6793",
  "bytecode": "0x6143a561003a600b82828239805160001a60731461002d57634e487b7160e01b600052600060045260246000fd5b30600052607381538281f3fe730000000000000000000000000000000000000000301460806040526004361061012b5760003560e01c80637325f33f116100b757806397783a6c1161007b57806397783a6c146102e6578063a279fb66146102f9578063ac2a37d614610319578063d2c3cf2514610347578063e99de4da1461036757600080fd5b80637325f33f146102435780637a55caf3146102725780637a9a23e5146102855780637fd6c0a1146102b3578063890ffb84146102c657600080fd5b806326eadaa3116100fe57806326eadaa31461018157806336436118146101a157806347835cb2146101d65780636138ea85146101f657806368f9467b1461022357600080fd5b80630252e2c71461013057806309d28c5714610156578063142395ef1461015f5780631997c9ee14610156575b600080fd5b61014361013e366004613667565b610395565b6040519081526020015b60405180910390f35b6101436101f481565b81801561016b57600080fd5b5061017f61017a366004613705565b6107fe565b005b81801561018d57600080fd5b5061017f61019c366004613746565b6108ad565b8180156101ad57600080fd5b506101c16101bc36600461376d565b6108be565b6040805192835260208301919091520161014d565b8180156101e257600080fd5b5061017f6101f13660046137eb565b61091f565b81801561020257600080fd5b50610216610211366004613824565b610ab1565b60405161014d91906138de565b81801561022f57600080fd5b5061017f61023e3660046138f1565b610b0b565b81801561024f57600080fd5b5061026361025e366004613934565b610bb4565b60405161014d939291906139c8565b6101436102803660046137eb565b610bd7565b81801561029157600080fd5b506102a56102a03660046139fd565b610c57565b60405161014d929190613ad7565b6101436102c1366004613afc565b610ce4565b8180156102d257600080fd5b506101c16102e1366004613b47565b610e0c565b6102166102f4366004613b99565b610e2a565b81801561030557600080fd5b50610143610314366004613bdd565b610f3d565b81801561032557600080fd5b50610339610334366004613c21565b610fc8565b60405161014d929190613c8a565b81801561035357600080fd5b5061017f610362366004613ca3565b6111c1565b81801561037357600080fd5b50610387610382366004613ccf565b6112b6565b60405161014d929190613d8e565b600080600019891461076c5787516000806103b96103b28a6114e2565b8c856115a7565b9150915060005b8b518110156104ae57808b1461047f578181815181106103e2576103e2613de4565b60200260200101518388815181106103fc576103fc613de4565b602002602001015183898151811061041657610416613de4565b602002602001015185848151811061043057610430613de4565b60200260200101518c858151811061044a5761044a613de4565b602002602001015161045c9190613e10565b6104669190613e10565b6104709190613e3d565b61047a9190613e3d565b61049a565b88818151811061049157610491613de4565b60200260200101515b6104a49086613e51565b94506001016103c0565b5060005b838110156106cc578a81146106c45760008c82815181106104d5576104d5613de4565b60200260200101516001600160a01b03166370a08231306040518263ffffffff1660e01b81526004016105089190613e64565b602060405180830381865afa158015610525573d6000803e3d6000fd5b505050506040513d601f19601f820116820180604052508101906105499190613e78565b905080156106c257600083838151811061056557610565613de4565b6020026020010151858e8151811061057f5761057f613de4565b6020026020010151858f8151811061059957610599613de4565b60200260200101518786815181106105b3576105b3613de4565b6020026020010151856105c69190613e10565b6105d09190613e10565b6105da9190613e3d565b6105e49190613e3d565b9050808f116105f4576000610600565b808f6106009190613e91565b9e5060008d8a146106a15784848151811061061d5761061d613de4565b6020026020010151868b8151811061063757610637613de4565b6020026020010151868c8151811061065157610651613de4565b602002602001015188878151811061066b5761066b613de4565b60200260200101518661067e9190613e10565b6106889190613e10565b6106929190613e3d565b61069c9190613e3d565b6106a3565b815b90508088116106b35760006106bd565b6106bd8189613e91565b975050505b505b6001016104b2565b50858a1461076857808a815181106106e6576106e6613de4565b602002602001015182878151811061070057610700613de4565b602002602001015182888151811061071a5761071a613de4565b6020026020010151848d8151811061073457610734613de4565b60200260200101518f6107479190613e10565b6107519190613e10565b61075b9190613e3d565b6107659190613e3d565b9b505b5050505b600081156107b05789156107a9576064826107908c680579a814e10a740000613e10565b61079a9190613e3d565b6107a49190613e3d565b6107ba565b60006107ba565b670de0b6b3a76400005b905080156107ed576107e8670de0b6b3a76400006107d88784613e10565b6107e29190613e3d565b86611795565b6107f0565b60005b9a9950505050505050505050565b60405163124fdbb760e21b8152734f5b979a3f97f898c61b2f168917c9ddcc73365a9063493f6edc90610835908690600401613e64565b60006040518083038186803b15801561084d57600080fd5b505af4158015610861573d6000803e3d6000fd5b5050604080516001600160a01b0386168152602081018590527f297f3fbc14027d2b4a4f7dac3dff2ad6b386024299045b0e163f131bb24b611d935001905060405180910390a1505050565b6108b9838383846117ab565b505050565b6001850154855460009182916001600160a01b03909116906060806108e6888a898789611a79565b828e559197509250905060006108ff8989858589611f6e565b905061090e8c8589848f612248565b955050505050509550959350505050565b6000826001600160a01b031663f77c47916040518163ffffffff1660e01b8152600401602060405180830381865afa15801561095f573d6000803e3d6000fd5b505050506040513d601f19601f820116820180604052508101906109839190613ea4565b6001600160a01b03166347b03bba6040518163ffffffff1660e01b8152600401602060405180830381865afa1580156109c0573d6000803e3d6000fd5b505050506040513d601f19601f820116820180604052508101906109e49190613ea4565b9050600080826001600160a01b0316634be4e9a6856040518263ffffffff1660e01b8152600401610a159190613e64565b60408051808303816000875af1158015610a33573d6000803e3d6000fd5b505050506040513d601f19601f82011682018060405250810190610a579190613ec8565b9150915081600014158015610a6b57508015155b15610aaa5760408051838152602081018390527f37aa4ac70052a1bb5d5498a38dae3128bbc585be2886ae01b87e34c85fdccff2910160405180910390a15b5050505050565b6060610b0284848787516001600160401b03811115610ad257610ad2613507565b604051908082528060200260200182016040528015610afb578160200160208202803683370190505b5086612447565b95945050505050565b6040516370a0823160e01b81526000906001600160a01b038516906370a0823190610b3a903090600401613e64565b602060405180830381865afa158015610b57573d6000803e3d6000fd5b505050506040513d601f19601f82011682018060405250810190610b7b9190613e78565b90506000818360000154610b8f9190613e51565b905080841015610aaa5781841115610aaa57610bab8285613e91565b83555050505050565b6000606080610bc68888888888611a79565b925092509250955095509592505050565b6000610be2836114e2565b6001600160a01b031663b3596f07836040518263ffffffff1660e01b8152600401610c0d9190613e64565b602060405180830381865afa158015610c2a573d6000803e3d6000fd5b505050506040513d601f19601f82011682018060405250810190610c4e9190613e78565b90505b92915050565b6060806000610c67888888612619565b9050610c768a8a8d8489612447565b8a5190935060005b81811015610cd157858181518110610c9857610c98613de4565b6020026020010151878281518110610cb257610cb2613de4565b60200260200101818151610cc69190613e51565b905250600101610c7e565b5085925050509850989650505050505050565b600080610cf0856114e2565b90506000816001600160a01b031663b3596f07866040518263ffffffff1660e01b8152600401610d209190613e64565b602060405180830381865afa158015610d3d573d6000803e3d6000fd5b505050506040513d601f19601f82011682018060405250810190610d619190613e78565b90506000826001600160a01b031663b3596f07866040518263ffffffff1660e01b8152600401610d919190613e64565b602060405180830381865afa158015610dae573d6000803e3d6000fd5b505050506040513d601f19601f82011682018060405250810190610dd29190613e78565b905060008211610de457600019610e01565b81610df782670de0b6b3a7640000613e10565b610e019190613e3d565b979650505050505050565b600080610e1c8787878787612720565b915091509550959350505050565b81516060906000816001600160401b03811115610e4957610e49613507565b604051908082528060200260200182016040528015610e72578160200160208202803683370190505b50905060005b82811015610f3457808514610f2c57858181518110610e9957610e99613de4565b60200260200101516001600160a01b03166370a08231306040518263ffffffff1660e01b8152600401610ecc9190613e64565b602060405180830381865afa158015610ee9573d6000803e3d6000fd5b505050506040513d601f19601f82011682018060405250810190610f0d9190613e78565b828281518110610f1f57610f1f613de4565b6020026020010181815250505b600101610e78565b50949350505050565b838215610b025781546001600160a01b039081169060009088168214610f6b57610f66826128dc565b610f6d565b865b6001850154909150610f9690839087906001600160a01b0316610f90858b613e51565b85612720565b5050816001600160a01b0316886001600160a01b031603610fbd57610fba886128dc565b92505b505095945050505050565b6040805160028082526060808301845260009390929190602083019080368337019050509050610ff7856128dc565b8160008151811061100a5761100a613de4565b60200260200101818152505061101f846128dc565b8160018151811061103257611032613de4565b602090810291909101015260408051600280825260608201909252600091816020016020820280368337019050509050858160008151811061107657611076613de4565b60200260200101906001600160a01b031690816001600160a01b03168152505084816001815181106110aa576110aa613de4565b6001600160a01b03929092166020928302919091018201526040805160028082526060820183526000939192909183019080368337019050509050826000815181106110f8576110f8613de4565b60200260200101518160008151811061111357611113613de4565b6020026020010181815250506000611130838360008d6001611a79565b5050905088811061114257600061114c565b61114c818a613e91565b8451873590869060009061116257611162613de4565b60200260200101511080611196575086600160200201358560018151811061118c5761118c613de4565b6020026020010151105b6111a057846111b0565b6040805160008152602081019091525b945094505050509550959350505050565b60405163124fdbb760e21b8152734f5b979a3f97f898c61b2f168917c9ddcc73365a9063493f6edc906111f8908590600401613e64565b60006040518083038186803b15801561121057600080fd5b505af4158015611224573d6000803e3d6000fd5b50505050620186a08111156040518060400160405280600f81526020016e53423a2057726f6e672076616c756560881b8152509061127e5760405162461bcd60e51b81526004016112759190613f10565b60405180910390fd5b506040518181527fe4166dfcf23bbd3e3f764a99dc8fa740554c03c82d6019b81cf265f396f6f2fe9060200160405180910390a15050565b606080600080886001600160a01b031663ef5cfb8c306040518263ffffffff1660e01b81526004016112e89190613e64565b6000604051808303816000875af1158015611307573d6000803e3d6000fd5b505050506040513d6000823e601f3d908101601f1916820160405261132f9190810190613f9e565b91509150611383878784848c8d516001600160401b0381111561135457611354613507565b60405190808252806020026020018201604052801561137d578160200160208202803683370190505b5061294c565b8151919550935060005b818110156114c65760005b8a518110156114bd578a81815181106113b3576113b3613de4565b60200260200101516001600160a01b03168783815181106113d6576113d6613de4565b60200260200101516001600160a01b0316036114b5578781815181106113fe576113fe613de4565b60200260200101518b828151811061141857611418613de4565b60200260200101516001600160a01b03166370a08231306040518263ffffffff1660e01b815260040161144b9190613e64565b602060405180830381865afa158015611468573d6000803e3d6000fd5b505050506040513d601f19601f8201168201806040525081019061148c9190613e78565b6114969190613e91565b8683815181106114a8576114a8613de4565b6020026020010181815250505b600101611398565b5060010161138d565b506114d18585612e73565b909b909a5098505050505050505050565b6000816001600160a01b031663f77c47916040518163ffffffff1660e01b8152600401602060405180830381865afa158015611522573d6000803e3d6000fd5b505050506040513d601f19601f820116820180604052508101906115469190613ea4565b6001600160a01b0316632630c12f6040518163ffffffff1660e01b8152600401602060405180830381865afa158015611583573d6000803e3d6000fd5b505050506040513d601f19601f82011682018060405250810190610c519190613ea4565b606080826001600160401b038111156115c2576115c2613507565b6040519080825280602002602001820160405280156115eb578160200160208202803683370190505b509150826001600160401b0381111561160657611606613507565b60405190808252806020026020018201604052801561162f578160200160208202803683370190505b50905060005b8381101561178c5784818151811061164f5761164f613de4565b60200260200101516001600160a01b031663313ce5676040518163ffffffff1660e01b8152600401602060405180830381865afa158015611694573d6000803e3d6000fd5b505050506040513d601f19601f820116820180604052508101906116b89190614062565b6116c390600a614169565b8282815181106116d5576116d5613de4565b602002602001018181525050856001600160a01b031663b3596f0786838151811061170257611702613de4565b60200260200101516040518263ffffffff1660e01b81526004016117269190613e64565b602060405180830381865afa158015611743573d6000803e3d6000fd5b505050506040513d601f19601f820116820180604052508101906117679190613e78565b83828151811061177957611779613de4565b6020908102919091010152600101611635565b50935093915050565b60008183106117a45781610c4e565b5090919050565b6000836001600160a01b03166338d52e0f6040518163ffffffff1660e01b8152600401602060405180830381865afa1580156117eb573d6000803e3d6000fd5b505050506040513d601f19601f8201168201806040525081019061180f9190613ea4565b90506000846001600160a01b031663fbfa77cf6040518163ffffffff1660e01b8152600401602060405180830381865afa158015611851573d6000803e3d6000fd5b505050506040513d601f19601f820116820180604052508101906118759190613ea4565b90506000826001600160a01b03166370a08231836040518263ffffffff1660e01b81526004016118a59190613e64565b602060405180830381865afa1580156118c2573d6000803e3d6000fd5b505050506040513d601f19601f820116820180604052508101906118e69190613e78565b604051630855081f60e01b815260006004820152602481018790529091506001600160a01b03871690630855081f90604401600060405180830381600087803b15801561193257600080fd5b505af1158015611946573d6000803e3d6000fd5b50506040516370a0823160e01b8152600092506001600160a01b03861691506370a0823190611979908690600401613e64565b602060405180830381865afa158015611996573d6000803e3d6000fd5b505050506040513d601f19601f820116820180604052508101906119ba9190613e78565b905084156119dc57848860030160008282546119d69190614178565b90915550505b60006119e88284613061565b905060006119f68883613061565b90507ff13a1512eb9fa6413cdb85c01e914c6df0dadc043d9aeec658469e95f5d05967888015611a445789611a2b8482613e91565b611a35908b6141a0565b611a3f91906141d0565b611a47565b60005b60408051928352602083019190915281018490526060810183905260800160405180910390a150505050505050505050565b6000606080611abb6040518060800160405280600081526020016060815260200160006001600160a01b0316815260200160006001600160a01b031681525090565b885181528851899088908110611ad357611ad3613de4565b60209081029190910101516001600160a01b03166040820152611b01611af8876114e2565b82518b906115a7565b909350915060005b8151811015611e3357878103611b4557888181518110611b2b57611b2b613de4565b602002602001015185611b3e9190613e51565b9450611e2b565b898181518110611b5757611b57613de4565b60209081029190910101516001600160a01b0390811660608401819052604080850151905163dd27ede760e01b8152306004820152602481019290925282166044820152600060648201819052918291908a169063dd27ede79060840160408051808303816000875af1158015611bd2573d6000803e3d6000fd5b505050506040513d601f19601f82011682018060405250810190611bf69190613ec8565b9150915081871015611c1257611c0d848b8461307b565b611c1f565b611c1c8288613e91565b96505b60008b8481518110611c3357611c33613de4565b602002602001015185606001516001600160a01b03166370a08231306040518263ffffffff1660e01b8152600401611c6b9190613e64565b602060405180830381865afa158015611c88573d6000803e3d6000fd5b505050506040513d601f19601f82011682018060405250810190611cac9190613e78565b611cb69084613e51565b611cc09190613e51565b6040808701516060880151915163dd27ede760e01b81523060048201526001600160a01b039182166024820152918116604483015260006064830152919250908b169063dd27ede79060840160408051808303816000875af1158015611d2a573d6000803e3d6000fd5b505050506040513d601f19601f82011682018060405250810190611d4e9190613ec8565b9093509150611d5d8289613e51565b9750828110611e1357858481518110611d7857611d78613de4565b6020026020010151878c81518110611d9257611d92613de4565b6020026020010151878d81518110611dac57611dac613de4565b6020026020010151898781518110611dc657611dc6613de4565b60200260200101518685611dda9190613e91565b611de49190613e10565b611dee9190613e10565b611df89190613e3d565b611e029190613e3d565b611e0c9089613e51565b9750611e27565b611e278585611e228487613e91565b61307b565b5050505b600101611b09565b50805160208201515103611f4f5760005b8151811015611f4d5781602001518181518110611e6357611e63613de4565b602002602001015160000315611f45576000838281518110611e8757611e87613de4565b6020026020010151858a81518110611ea157611ea1613de4565b6020026020010151858b81518110611ebb57611ebb613de4565b6020026020010151878581518110611ed557611ed5613de4565b602002602001015186602001518681518110611ef357611ef3613de4565b6020026020010151611f059190613e10565b611f0f9190613e10565b611f199190613e3d565b611f239190613e3d565b905085811115611f365760009550611f43565b611f408187613e91565b95505b505b600101611e44565b505b8415611f6257611f5f8987613104565b50505b50955095509592505050565b600080826001600160a01b031663f77c47916040518163ffffffff1660e01b8152600401602060405180830381865afa158015611faf573d6000803e3d6000fd5b505050506040513d601f19601f82011682018060405250810190611fd39190613ea4565b6001600160a01b03166347b03bba6040518163ffffffff1660e01b8152600401602060405180830381865afa158015612010573d6000803e3d6000fd5b505050506040513d601f19601f820116820180604052508101906120349190613ea4565b9050600080826001600160a01b03166338bc8c5e8a6040518263ffffffff1660e01b81526004016120659190614237565b6000604051808303816000875af1158015612084573d6000803e3d6000fd5b505050506040513d6000823e601f3d908101601f191682016040526120ac919081019061424a565b8a51919350915060005b818110156121fb57898103612118578381815181106120d7576120d7613de4565b6020026020010151866120ea9190614296565b95508281815181106120fe576120fe613de4565b6020026020010151866121119190614178565b95506121f3565b87818151811061212a5761212a613de4565b6020026020010151898b8151811061214457612144613de4565b6020026020010151898c8151811061215e5761215e613de4565b60200260200101518b848151811061217857612178613de4565b602002602001015187858151811061219257612192613de4565b60200260200101518786815181106121ac576121ac613de4565b60200260200101516121be9190614296565b6121c891906141a0565b6121d291906141a0565b6121dc91906141d0565b6121e691906141d0565b6121f09087614178565b95505b6001016120b6565b507f3c494ff6e1b11028d08783f71eb95f6a0f9705f6b74f85470926baa577ad52308a84848b896040516122339594939291906142bd565b60405180910390a15050505095945050505050565b6003850154600090858511156122c2576122628686613e91565b915083156122bd578387600301600082825461227e9190614178565b909155505060408051828152602081018690527f9dca6303e24e8874cf8b056d48a1351b6a2725e7a309caa33a6a4f74a455ab25910160405180910390a15b6123ea565b60006122ce8688613e91565b905080156123e85783546040516370a0823160e01b81526000916001600160a01b0316906370a0823190612306903090600401613e64565b602060405180830381865afa158015612323573d6000803e3d6000fd5b505050506040513d601f19601f820116820180604052508101906123479190613e78565b6123519088613e51565b9050600080612360848461324e565b91509150806000146123b55760408051838152602081018390529081018b9052606081018a90527f79ebefb350a48e2a470929fdbef327f4d53ceaafdd43e30e288f0279aa70e5fd9060800160405180910390a15b60018701546123e4908c906001600160a01b031684876123d5828e6141a0565b6123df91906141d0565b6117ab565b5050505b505b60038701546040805188815260208101889052808201849052606081019290925260808201869052517fdefa80b22e5fab3e2037351d0afab9e865dd4e3e4738002818eed2e6b25cc0139181900360a00190a15095945050505050565b8451606090806001600160401b0381111561246457612464613507565b60405190808252806020026020018201604052801561248d578160200160208202803683370190505b50915060005b81811015610fbd578681036124df578481815181106124b4576124b4613de4565b60200260200101518382815181106124ce576124ce613de4565b602002602001018181525050612611565b60008482815181106124f3576124f3613de4565b602002602001015186838151811061250d5761250d613de4565b602002602001015161251f9190613e51565b9050801561260f57866001600160a01b031663667df249308b8b8151811061254957612549613de4565b60200260200101518c868151811061256357612563613de4565b60209081029190910101516040516001600160e01b031960e086901b1681526001600160a01b03938416600482015291831660248301529190911660448201526064810184905260840160408051808303816000875af11580156125cb573d6000803e3d6000fd5b505050506040513d601f19601f820116820180604052508101906125ef9190613ec8565b5084838151811061260257612602613de4565b6020026020010181815250505b505b600101612493565b60606000821561265b578284101561264d578261263e85670de0b6b3a7640000613e10565b6126489190613e3d565b61265e565b670de0b6b3a764000061265e565b60005b8551909150806001600160401b0381111561267b5761267b613507565b6040519080825280602002602001820160405280156126a4578160200160208202803683370190505b50925081156127175760005b8181101561271557670de0b6b3a7640000838883815181106126d4576126d4613de4565b60200260200101516126e69190613e10565b6126f09190613e3d565b84828151811061270257612702613de4565b60209081029190910101526001016126b0565b505b50509392505050565b600080600061272f8785611795565b9050801561287a5760408051808201909152601181527054532d35207a65726f2062616c616e636560781b60208201528561277d5760405162461bcd60e51b81526004016112759190613f10565b506127a181620186a0612792886101f4613e10565b61279c9190613e3d565b611795565b905061287a866001600160a01b031663fbfa77cf6040518163ffffffff1660e01b8152600401602060405180830381865afa1580156127e4573d6000803e3d6000fd5b505050506040513d601f19601f820116820180604052508101906128089190613ea4565b6001600160a01b03166389cf32046040518163ffffffff1660e01b8152600401602060405180830381865afa158015612845573d6000803e3d6000fd5b505050506040513d601f19601f820116820180604052508101906128699190613ea4565b6001600160a01b038a16908361327a565b80925080871161288b576000612895565b6128958188613e91565b60408051858152602081018390529193507fbaad96f61e3091f46555dc5cf915745a34dbd0981adc3f1c6747a4d5a1ffa055910160405180910390a1509550959350505050565b6040516370a0823160e01b81526000906001600160a01b038316906370a082319061290b903090600401613e64565b602060405180830381865afa158015612928573d6000803e3d6000fd5b505050506040513d601f19601f82011682018060405250810190610c519190613e78565b60408051600380825260808201909252606091829160009160208201848036833701905050905088518160008151811061298857612988613de4565b6020026020010181815250508651816001815181106129a9576129a9613de4565b6020026020010181815250508451816002815181106129ca576129ca613de4565b6020026020010181815250508751816000815181106129eb576129eb613de4565b6020026020010151148015612a1a5750855181600181518110612a1057612a10613de4565b6020026020010151145b8015612a405750835181600281518110612a3657612a36613de4565b6020026020010151145b6040518060400160405280600d81526020016c54532d3139206c656e6774687360981b81525090612a845760405162461bcd60e51b81526004016112759190613f10565b50600081600281518110612a9a57612a9a613de4565b602002602001015182600181518110612ab557612ab5613de4565b602002602001015183600081518110612ad057612ad0613de4565b6020026020010151612ae29190613e51565b612aec9190613e51565b90506000816001600160401b03811115612b0857612b08613507565b604051908082528060200260200182016040528015612b31578160200160208202803683370190505b5090506000826001600160401b03811115612b4e57612b4e613507565b604051908082528060200260200182016040528015612b77578160200160208202803683370190505b5090506000805b6003811015612d395760008115612ba35781600114612b9d5789612ba5565b8b612ba5565b8d5b905060008215612bc35782600114612bbd578b612bc5565b8d612bc5565b8f5b905060005b888481518110612bdc57612bdc613de4565b6020026020010151811015612d25576000838281518110612bff57612bff613de4565b602002602001015190506000838381518110612c1d57612c1d613de4565b602002602001015190506000805b88811015612caa578a8181518110612c4557612c45613de4565b60200260200101516001600160a01b0316836001600160a01b031603612c9857838a8281518110612c7857612c78613de4565b60200260200101818151612c8c9190613e51565b90525060019150612caa565b80612ca28161431d565b915050612c2b565b5080612d0f57818a8981518110612cc357612cc3613de4565b60200260200101906001600160a01b031690816001600160a01b03168152505082898981518110612cf657612cf6613de4565b602090810291909101015287612d0b8161431d565b9850505b5050508080612d1d9061431d565b915050612bca565b50505080612d329061431d565b9050612b7e565b50806001600160401b03811115612d5257612d52613507565b604051908082528060200260200182016040528015612d7b578160200160208202803683370190505b509650806001600160401b03811115612d9657612d96613507565b604051908082528060200260200182016040528015612dbf578160200160208202803683370190505b50955060005b81811015612e6257838181518110612ddf57612ddf613de4565b6020026020010151888281518110612df957612df9613de4565b60200260200101906001600160a01b031690816001600160a01b031681525050828181518110612e2b57612e2b613de4565b6020026020010151878281518110612e4557612e45613de4565b602090810291909101015280612e5a8161431d565b915050612dc5565b505050505050965096945050505050565b60608082518451146040518060400160405280600d81526020016c54532d3139206c656e6774687360981b81525090612ebf5760405162461bcd60e51b81526004016112759190613f10565b508351600090815b81811015612f1057858181518110612ee157612ee1613de4565b6020026020010151600014612efe5782612efa8161431d565b9350505b80612f088161431d565b915050612ec7565b50816001600160401b03811115612f2957612f29613507565b604051908082528060200260200182016040528015612f52578160200160208202803683370190505b509350816001600160401b03811115612f6d57612f6d613507565b604051908082528060200260200182016040528015612f96578160200160208202803683370190505b5092506000805b82811015613056576000878281518110612fb957612fb9613de4565b602002602001015190508060001461304357888281518110612fdd57612fdd613de4565b6020026020010151878481518110612ff757612ff7613de4565b60200260200101906001600160a01b031690816001600160a01b0316815250508086848151811061302a5761302a613de4565b60209081029190910101528261303f8161431d565b9350505b508061304e8161431d565b915050612f9d565b505050509250929050565b6000818311613071576000610c4e565b610c4e8284613e91565b8260200151516000036130d15782516001600160401b038111156130a1576130a1613507565b6040519080825280602002602001820160405280156130ca578160200160208202803683370190505b5060208401525b80836020015183815181106130e8576130e8613de4565b602002602001018181516130fc9190613e51565b905250505050565b6060806000836001600160a01b031663f77c47916040518163ffffffff1660e01b8152600401602060405180830381865afa158015613147573d6000803e3d6000fd5b505050506040513d601f19601f8201168201806040525081019061316b9190613ea4565b6001600160a01b03166347b03bba6040518163ffffffff1660e01b8152600401602060405180830381865afa1580156131a8573d6000803e3d6000fd5b505050506040513d601f19601f820116820180604052508101906131cc9190613ea4565b604051631c5e462f60e11b81529091506001600160a01b038216906338bc8c5e906131fb908890600401614237565b6000604051808303816000875af115801561321a573d6000803e3d6000fd5b505050506040513d6000823e601f3d908101601f19168201604052613242919081019061424a565b92509250509250929050565b60008061326584620186a0612792866101f4613e10565b91506132718483613061565b90509250929050565b604080516001600160a01b03848116602483015260448083018590528351808403909101815260649092018352602080830180516001600160e01b031663a9059cbb60e01b17905283518085019094528084527f5361666545524332303a206c6f772d6c6576656c2063616c6c206661696c6564908401526108b99286929160009161330a918516908490613387565b8051909150156108b957808060200190518101906133289190614336565b6108b95760405162461bcd60e51b815260206004820152602a60248201527f5361666545524332303a204552433230206f7065726174696f6e20646964206e6044820152691bdd081cdd58d8d9595960b21b6064820152608401611275565b6060613396848460008561339e565b949350505050565b6060824710156133ff5760405162461bcd60e51b815260206004820152602660248201527f416464726573733a20696e73756666696369656e742062616c616e636520666f6044820152651c8818d85b1b60d21b6064820152608401611275565b600080866001600160a01b0316858760405161341b9190614353565b60006040518083038185875af1925050503d8060008114613458576040519150601f19603f3d011682016040523d82523d6000602084013e61345d565b606091505b5091509150610e0187838387606083156134d85782516000036134d1576001600160a01b0385163b6134d15760405162461bcd60e51b815260206004820152601d60248201527f416464726573733a2063616c6c20746f206e6f6e2d636f6e74726163740000006044820152606401611275565b5081613396565b61339683838151156134ed5781518083602001fd5b8060405162461bcd60e51b81526004016112759190613f10565b634e487b7160e01b600052604160045260246000fd5b604051601f8201601f191681016001600160401b038111828210171561354557613545613507565b604052919050565b60006001600160401b0382111561356657613566613507565b5060051b60200190565b6001600160a01b038116811461358557600080fd5b50565b600082601f83011261359957600080fd5b813560206135ae6135a98361354d565b61351d565b82815260059290921b840181019181810190868411156135cd57600080fd5b8286015b848110156135f15780356135e481613570565b83529183019183016135d1565b509695505050505050565b803561360781613570565b919050565b600082601f83011261361d57600080fd5b8135602061362d6135a98361354d565b82815260059290921b8401810191818101908684111561364c57600080fd5b8286015b848110156135f15780358352918301918301613650565b600080600080600080600060e0888a03121561368257600080fd5b8735965060208801356001600160401b03808211156136a057600080fd5b6136ac8b838c01613588565b975060408a0135965060608a013591506136c582613570565b909450608089013590808211156136db57600080fd5b506136e88a828b0161360c565b93505060a0880135915060c0880135905092959891949750929550565b60008060006060848603121561371a57600080fd5b833561372581613570565b9250602084013561373581613570565b929592945050506040919091013590565b60008060006060848603121561375b57600080fd5b83359250602084013561373581613570565b600080600080600060a0868803121561378557600080fd5b853594506020860135935060408601356001600160401b03808211156137aa57600080fd5b6137b689838a0161360c565b945060608801359150808211156137cc57600080fd5b506137d988828901613588565b95989497509295608001359392505050565b600080604083850312156137fe57600080fd5b823561380981613570565b9150602083013561381981613570565b809150509250929050565b6000806000806080858703121561383a57600080fd5b843561384581613570565b935060208501356001600160401b038082111561386157600080fd5b61386d88838901613588565b945060408701359350606087013591508082111561388a57600080fd5b506138978782880161360c565b91505092959194509250565b600081518084526020808501945080840160005b838110156138d3578151875295820195908201906001016138b7565b509495945050505050565b602081526000610c4e60208301846138a3565b60008060006060848603121561390657600080fd5b833561391181613570565b95602085013595506040909401359392505050565b801515811461358557600080fd5b600080600080600060a0868803121561394c57600080fd5b85356001600160401b038082111561396357600080fd5b61396f89838a01613588565b9650602088013591508082111561398557600080fd5b506139928882890161360c565b9450506040860135925060608601356139aa81613570565b915060808601356139ba81613926565b809150509295509295909350565b8381526060602082015260006139e160608301856138a3565b82810360408401526139f381856138a3565b9695505050505050565b600080600080600080600080610100898b031215613a1a57600080fd5b613a23896135fc565b975060208901356001600160401b0380821115613a3f57600080fd5b613a4b8c838d01613588565b985060408b0135975060608b0135915080821115613a6857600080fd5b613a748c838d0161360c565b965060808b0135955060a08b0135945060c08b0135915080821115613a9857600080fd5b613aa48c838d0161360c565b935060e08b0135915080821115613aba57600080fd5b50613ac78b828c0161360c565b9150509295985092959890939650565b604081526000613aea60408301856138a3565b8281036020840152610b0281856138a3565b600080600060608486031215613b1157600080fd5b8335613b1c81613570565b92506020840135613b2c81613570565b91506040840135613b3c81613570565b809150509250925092565b600080600080600060a08688031215613b5f57600080fd5b8535613b6a81613570565b9450602086013593506040860135613b8181613570565b94979396509394606081013594506080013592915050565b60008060408385031215613bac57600080fd5b82356001600160401b03811115613bc257600080fd5b613bce85828601613588565b95602094909401359450505050565b600080600080600060a08688031215613bf557600080fd5b8535613c0081613570565b97602087013597506040870135966060810135965060800135945092505050565b600080600080600060c08688031215613c3957600080fd5b8535613c4481613570565b9450602086013593506040860135613c5b81613570565b92506060860135613c6b81613570565b915060c08601871015613c7d57600080fd5b5092959194509260800190565b82815260406020820152600061339660408301846138a3565b60008060408385031215613cb657600080fd5b8235613cc181613570565b946020939093013593505050565b600080600080600060a08688031215613ce757600080fd5b8535613cf281613570565b945060208601356001600160401b0380821115613d0e57600080fd5b613d1a89838a01613588565b95506040880135915080821115613d3057600080fd5b613d3c89838a01613588565b94506060880135915080821115613d5257600080fd5b613d5e89838a0161360c565b93506080880135915080821115613d7457600080fd5b50613d818882890161360c565b9150509295509295909350565b604080825283519082018190526000906020906060840190828701845b82811015613dd05781516001600160a01b031684529284019290840190600101613dab565b505050838103828501526139f381866138a3565b634e487b7160e01b600052603260045260246000fd5b634e487b7160e01b600052601160045260246000fd5b8082028115828204841417610c5157610c51613dfa565b634e487b7160e01b600052601260045260246000fd5b600082613e4c57613e4c613e27565b500490565b80820180821115610c5157610c51613dfa565b6001600160a01b0391909116815260200190565b600060208284031215613e8a57600080fd5b5051919050565b81810381811115610c5157610c51613dfa565b600060208284031215613eb657600080fd5b8151613ec181613570565b9392505050565b60008060408385031215613edb57600080fd5b505080516020909101519092909150565b60005b83811015613f07578181015183820152602001613eef565b50506000910152565b6020815260008251806020840152613f2f816040850160208701613eec565b601f01601f19169190910160400192915050565b600082601f830112613f5457600080fd5b81516020613f646135a98361354d565b82815260059290921b84018101918181019086841115613f8357600080fd5b8286015b848110156135f15780518352918301918301613f87565b60008060408385031215613fb157600080fd5b82516001600160401b0380821115613fc857600080fd5b818501915085601f830112613fdc57600080fd5b81516020613fec6135a98361354d565b82815260059290921b8401810191818101908984111561400b57600080fd5b948201945b8386101561403257855161402381613570565b82529482019490820190614010565b9188015191965090935050508082111561404b57600080fd5b5061405885828601613f43565b9150509250929050565b60006020828403121561407457600080fd5b815160ff81168114613ec157600080fd5b600181815b808511156140c05781600019048211156140a6576140a6613dfa565b808516156140b357918102915b93841c939080029061408a565b509250929050565b6000826140d757506001610c51565b816140e457506000610c51565b81600181146140fa576002811461410457614120565b6001915050610c51565b60ff84111561411557614115613dfa565b50506001821b610c51565b5060208310610133831016604e8410600b8410161715614143575081810a610c51565b61414d8383614085565b806000190482111561416157614161613dfa565b029392505050565b6000610c4e60ff8416836140c8565b808201828112600083128015821682158216171561419857614198613dfa565b505092915050565b80820260008212600160ff1b841416156141bc576141bc613dfa565b8181058314821517610c5157610c51613dfa565b6000826141df576141df613e27565b600160ff1b8214600019841416156141f9576141f9613dfa565b500590565b600081518084526020808501945080840160005b838110156138d35781516001600160a01b031687529582019590820190600101614212565b602081526000610c4e60208301846141fe565b6000806040838503121561425d57600080fd5b82516001600160401b038082111561427457600080fd5b61428086838701613f43565b9350602085015191508082111561404b57600080fd5b81810360008312801583831316838312821617156142b6576142b6613dfa565b5092915050565b60a0815260006142d060a08301886141fe565b82810360208401526142e281886138a3565b905082810360408401526142f681876138a3565b9050828103606084015261430a81866138a3565b9150508260808301529695505050505050565b60006001820161432f5761432f613dfa565b5060010190565b60006020828403121561434857600080fd5b8151613ec181613926565b60008251614365818460208701613eec565b919091019291505056fea2646970667358221220f8d3412313077e25943a463f86d5b48cdb41fb1c7466a1f49f7400712e45906064736f6c63430008110033",
  "deployedBytecode": "0x730000000000000000000000000000000000000000301460806040526004361061012b5760003560e01c80637325f33f116100b757806397783a6c1161007b57806397783a6c146102e6578063a279fb66146102f9578063ac2a37d614610319578063d2c3cf2514610347578063e99de4da1461036757600080fd5b80637325f33f146102435780637a55caf3146102725780637a9a23e5146102855780637fd6c0a1146102b3578063890ffb84146102c657600080fd5b806326eadaa3116100fe57806326eadaa31461018157806336436118146101a157806347835cb2146101d65780636138ea85146101f657806368f9467b1461022357600080fd5b80630252e2c71461013057806309d28c5714610156578063142395ef1461015f5780631997c9ee14610156575b600080fd5b61014361013e366004613667565b610395565b6040519081526020015b60405180910390f35b6101436101f481565b81801561016b57600080fd5b5061017f61017a366004613705565b6107fe565b005b81801561018d57600080fd5b5061017f61019c366004613746565b6108ad565b8180156101ad57600080fd5b506101c16101bc36600461376d565b6108be565b6040805192835260208301919091520161014d565b8180156101e257600080fd5b5061017f6101f13660046137eb565b61091f565b81801561020257600080fd5b50610216610211366004613824565b610ab1565b60405161014d91906138de565b81801561022f57600080fd5b5061017f61023e3660046138f1565b610b0b565b81801561024f57600080fd5b5061026361025e366004613934565b610bb4565b60405161014d939291906139c8565b6101436102803660046137eb565b610bd7565b81801561029157600080fd5b506102a56102a03660046139fd565b610c57565b60405161014d929190613ad7565b6101436102c1366004613afc565b610ce4565b8180156102d257600080fd5b506101c16102e1366004613b47565b610e0c565b6102166102f4366004613b99565b610e2a565b81801561030557600080fd5b50610143610314366004613bdd565b610f3d565b81801561032557600080fd5b50610339610334366004613c21565b610fc8565b60405161014d929190613c8a565b81801561035357600080fd5b5061017f610362366004613ca3565b6111c1565b81801561037357600080fd5b50610387610382366004613ccf565b6112b6565b60405161014d929190613d8e565b600080600019891461076c5787516000806103b96103b28a6114e2565b8c856115a7565b9150915060005b8b518110156104ae57808b1461047f578181815181106103e2576103e2613de4565b60200260200101518388815181106103fc576103fc613de4565b602002602001015183898151811061041657610416613de4565b602002602001015185848151811061043057610430613de4565b60200260200101518c858151811061044a5761044a613de4565b602002602001015161045c9190613e10565b6104669190613e10565b6104709190613e3d565b61047a9190613e3d565b61049a565b88818151811061049157610491613de4565b60200260200101515b6104a49086613e51565b94506001016103c0565b5060005b838110156106cc578a81146106c45760008c82815181106104d5576104d5613de4565b60200260200101516001600160a01b03166370a08231306040518263ffffffff1660e01b81526004016105089190613e64565b602060405180830381865afa158015610525573d6000803e3d6000fd5b505050506040513d601f19601f820116820180604052508101906105499190613e78565b905080156106c257600083838151811061056557610565613de4565b6020026020010151858e8151811061057f5761057f613de4565b6020026020010151858f8151811061059957610599613de4565b60200260200101518786815181106105b3576105b3613de4565b6020026020010151856105c69190613e10565b6105d09190613e10565b6105da9190613e3d565b6105e49190613e3d565b9050808f116105f4576000610600565b808f6106009190613e91565b9e5060008d8a146106a15784848151811061061d5761061d613de4565b6020026020010151868b8151811061063757610637613de4565b6020026020010151868c8151811061065157610651613de4565b602002602001015188878151811061066b5761066b613de4565b60200260200101518661067e9190613e10565b6106889190613e10565b6106929190613e3d565b61069c9190613e3d565b6106a3565b815b90508088116106b35760006106bd565b6106bd8189613e91565b975050505b505b6001016104b2565b50858a1461076857808a815181106106e6576106e6613de4565b602002602001015182878151811061070057610700613de4565b602002602001015182888151811061071a5761071a613de4565b6020026020010151848d8151811061073457610734613de4565b60200260200101518f6107479190613e10565b6107519190613e10565b61075b9190613e3d565b6107659190613e3d565b9b505b5050505b600081156107b05789156107a9576064826107908c680579a814e10a740000613e10565b61079a9190613e3d565b6107a49190613e3d565b6107ba565b60006107ba565b670de0b6b3a76400005b905080156107ed576107e8670de0b6b3a76400006107d88784613e10565b6107e29190613e3d565b86611795565b6107f0565b60005b9a9950505050505050505050565b60405163124fdbb760e21b815273__$ec217c54da363a68ad871e6868efec481c$__9063493f6edc90610835908690600401613e64565b60006040518083038186803b15801561084d57600080fd5b505af4158015610861573d6000803e3d6000fd5b5050604080516001600160a01b0386168152602081018590527f297f3fbc14027d2b4a4f7dac3dff2ad6b386024299045b0e163f131bb24b611d935001905060405180910390a1505050565b6108b9838383846117ab565b505050565b6001850154855460009182916001600160a01b03909116906060806108e6888a898789611a79565b828e559197509250905060006108ff8989858589611f6e565b905061090e8c8589848f612248565b955050505050509550959350505050565b6000826001600160a01b031663f77c47916040518163ffffffff1660e01b8152600401602060405180830381865afa15801561095f573d6000803e3d6000fd5b505050506040513d601f19601f820116820180604052508101906109839190613ea4565b6001600160a01b03166347b03bba6040518163ffffffff1660e01b8152600401602060405180830381865afa1580156109c0573d6000803e3d6000fd5b505050506040513d601f19601f820116820180604052508101906109e49190613ea4565b9050600080826001600160a01b0316634be4e9a6856040518263ffffffff1660e01b8152600401610a159190613e64565b60408051808303816000875af1158015610a33573d6000803e3d6000fd5b505050506040513d601f19601f82011682018060405250810190610a579190613ec8565b9150915081600014158015610a6b57508015155b15610aaa5760408051838152602081018390527f37aa4ac70052a1bb5d5498a38dae3128bbc585be2886ae01b87e34c85fdccff2910160405180910390a15b5050505050565b6060610b0284848787516001600160401b03811115610ad257610ad2613507565b604051908082528060200260200182016040528015610afb578160200160208202803683370190505b5086612447565b95945050505050565b6040516370a0823160e01b81526000906001600160a01b038516906370a0823190610b3a903090600401613e64565b602060405180830381865afa158015610b57573d6000803e3d6000fd5b505050506040513d601f19601f82011682018060405250810190610b7b9190613e78565b90506000818360000154610b8f9190613e51565b905080841015610aaa5781841115610aaa57610bab8285613e91565b83555050505050565b6000606080610bc68888888888611a79565b925092509250955095509592505050565b6000610be2836114e2565b6001600160a01b031663b3596f07836040518263ffffffff1660e01b8152600401610c0d9190613e64565b602060405180830381865afa158015610c2a573d6000803e3d6000fd5b505050506040513d601f19601f82011682018060405250810190610c4e9190613e78565b90505b92915050565b6060806000610c67888888612619565b9050610c768a8a8d8489612447565b8a5190935060005b81811015610cd157858181518110610c9857610c98613de4565b6020026020010151878281518110610cb257610cb2613de4565b60200260200101818151610cc69190613e51565b905250600101610c7e565b5085925050509850989650505050505050565b600080610cf0856114e2565b90506000816001600160a01b031663b3596f07866040518263ffffffff1660e01b8152600401610d209190613e64565b602060405180830381865afa158015610d3d573d6000803e3d6000fd5b505050506040513d601f19601f82011682018060405250810190610d619190613e78565b90506000826001600160a01b031663b3596f07866040518263ffffffff1660e01b8152600401610d919190613e64565b602060405180830381865afa158015610dae573d6000803e3d6000fd5b505050506040513d601f19601f82011682018060405250810190610dd29190613e78565b905060008211610de457600019610e01565b81610df782670de0b6b3a7640000613e10565b610e019190613e3d565b979650505050505050565b600080610e1c8787878787612720565b915091509550959350505050565b81516060906000816001600160401b03811115610e4957610e49613507565b604051908082528060200260200182016040528015610e72578160200160208202803683370190505b50905060005b82811015610f3457808514610f2c57858181518110610e9957610e99613de4565b60200260200101516001600160a01b03166370a08231306040518263ffffffff1660e01b8152600401610ecc9190613e64565b602060405180830381865afa158015610ee9573d6000803e3d6000fd5b505050506040513d601f19601f82011682018060405250810190610f0d9190613e78565b828281518110610f1f57610f1f613de4565b6020026020010181815250505b600101610e78565b50949350505050565b838215610b025781546001600160a01b039081169060009088168214610f6b57610f66826128dc565b610f6d565b865b6001850154909150610f9690839087906001600160a01b0316610f90858b613e51565b85612720565b5050816001600160a01b0316886001600160a01b031603610fbd57610fba886128dc565b92505b505095945050505050565b6040805160028082526060808301845260009390929190602083019080368337019050509050610ff7856128dc565b8160008151811061100a5761100a613de4565b60200260200101818152505061101f846128dc565b8160018151811061103257611032613de4565b602090810291909101015260408051600280825260608201909252600091816020016020820280368337019050509050858160008151811061107657611076613de4565b60200260200101906001600160a01b031690816001600160a01b03168152505084816001815181106110aa576110aa613de4565b6001600160a01b03929092166020928302919091018201526040805160028082526060820183526000939192909183019080368337019050509050826000815181106110f8576110f8613de4565b60200260200101518160008151811061111357611113613de4565b6020026020010181815250506000611130838360008d6001611a79565b5050905088811061114257600061114c565b61114c818a613e91565b8451873590869060009061116257611162613de4565b60200260200101511080611196575086600160200201358560018151811061118c5761118c613de4565b6020026020010151105b6111a057846111b0565b6040805160008152602081019091525b945094505050509550959350505050565b60405163124fdbb760e21b815273__$ec217c54da363a68ad871e6868efec481c$__9063493f6edc906111f8908590600401613e64565b60006040518083038186803b15801561121057600080fd5b505af4158015611224573d6000803e3d6000fd5b50505050620186a08111156040518060400160405280600f81526020016e53423a2057726f6e672076616c756560881b8152509061127e5760405162461bcd60e51b81526004016112759190613f10565b60405180910390fd5b506040518181527fe4166dfcf23bbd3e3f764a99dc8fa740554c03c82d6019b81cf265f396f6f2fe9060200160405180910390a15050565b606080600080886001600160a01b031663ef5cfb8c306040518263ffffffff1660e01b81526004016112e89190613e64565b6000604051808303816000875af1158015611307573d6000803e3d6000fd5b505050506040513d6000823e601f3d908101601f1916820160405261132f9190810190613f9e565b91509150611383878784848c8d516001600160401b0381111561135457611354613507565b60405190808252806020026020018201604052801561137d578160200160208202803683370190505b5061294c565b8151919550935060005b818110156114c65760005b8a518110156114bd578a81815181106113b3576113b3613de4565b60200260200101516001600160a01b03168783815181106113d6576113d6613de4565b60200260200101516001600160a01b0316036114b5578781815181106113fe576113fe613de4565b60200260200101518b828151811061141857611418613de4565b60200260200101516001600160a01b03166370a08231306040518263ffffffff1660e01b815260040161144b9190613e64565b602060405180830381865afa158015611468573d6000803e3d6000fd5b505050506040513d601f19601f8201168201806040525081019061148c9190613e78565b6114969190613e91565b8683815181106114a8576114a8613de4565b6020026020010181815250505b600101611398565b5060010161138d565b506114d18585612e73565b909b909a5098505050505050505050565b6000816001600160a01b031663f77c47916040518163ffffffff1660e01b8152600401602060405180830381865afa158015611522573d6000803e3d6000fd5b505050506040513d601f19601f820116820180604052508101906115469190613ea4565b6001600160a01b0316632630c12f6040518163ffffffff1660e01b8152600401602060405180830381865afa158015611583573d6000803e3d6000fd5b505050506040513d601f19601f82011682018060405250810190610c519190613ea4565b606080826001600160401b038111156115c2576115c2613507565b6040519080825280602002602001820160405280156115eb578160200160208202803683370190505b509150826001600160401b0381111561160657611606613507565b60405190808252806020026020018201604052801561162f578160200160208202803683370190505b50905060005b8381101561178c5784818151811061164f5761164f613de4565b60200260200101516001600160a01b031663313ce5676040518163ffffffff1660e01b8152600401602060405180830381865afa158015611694573d6000803e3d6000fd5b505050506040513d601f19601f820116820180604052508101906116b89190614062565b6116c390600a614169565b8282815181106116d5576116d5613de4565b602002602001018181525050856001600160a01b031663b3596f0786838151811061170257611702613de4565b60200260200101516040518263ffffffff1660e01b81526004016117269190613e64565b602060405180830381865afa158015611743573d6000803e3d6000fd5b505050506040513d601f19601f820116820180604052508101906117679190613e78565b83828151811061177957611779613de4565b6020908102919091010152600101611635565b50935093915050565b60008183106117a45781610c4e565b5090919050565b6000836001600160a01b03166338d52e0f6040518163ffffffff1660e01b8152600401602060405180830381865afa1580156117eb573d6000803e3d6000fd5b505050506040513d601f19601f8201168201806040525081019061180f9190613ea4565b90506000846001600160a01b031663fbfa77cf6040518163ffffffff1660e01b8152600401602060405180830381865afa158015611851573d6000803e3d6000fd5b505050506040513d601f19601f820116820180604052508101906118759190613ea4565b90506000826001600160a01b03166370a08231836040518263ffffffff1660e01b81526004016118a59190613e64565b602060405180830381865afa1580156118c2573d6000803e3d6000fd5b505050506040513d601f19601f820116820180604052508101906118e69190613e78565b604051630855081f60e01b815260006004820152602481018790529091506001600160a01b03871690630855081f90604401600060405180830381600087803b15801561193257600080fd5b505af1158015611946573d6000803e3d6000fd5b50506040516370a0823160e01b8152600092506001600160a01b03861691506370a0823190611979908690600401613e64565b602060405180830381865afa158015611996573d6000803e3d6000fd5b505050506040513d601f19601f820116820180604052508101906119ba9190613e78565b905084156119dc57848860030160008282546119d69190614178565b90915550505b60006119e88284613061565b905060006119f68883613061565b90507ff13a1512eb9fa6413cdb85c01e914c6df0dadc043d9aeec658469e95f5d05967888015611a445789611a2b8482613e91565b611a35908b6141a0565b611a3f91906141d0565b611a47565b60005b60408051928352602083019190915281018490526060810183905260800160405180910390a150505050505050505050565b6000606080611abb6040518060800160405280600081526020016060815260200160006001600160a01b0316815260200160006001600160a01b031681525090565b885181528851899088908110611ad357611ad3613de4565b60209081029190910101516001600160a01b03166040820152611b01611af8876114e2565b82518b906115a7565b909350915060005b8151811015611e3357878103611b4557888181518110611b2b57611b2b613de4565b602002602001015185611b3e9190613e51565b9450611e2b565b898181518110611b5757611b57613de4565b60209081029190910101516001600160a01b0390811660608401819052604080850151905163dd27ede760e01b8152306004820152602481019290925282166044820152600060648201819052918291908a169063dd27ede79060840160408051808303816000875af1158015611bd2573d6000803e3d6000fd5b505050506040513d601f19601f82011682018060405250810190611bf69190613ec8565b9150915081871015611c1257611c0d848b8461307b565b611c1f565b611c1c8288613e91565b96505b60008b8481518110611c3357611c33613de4565b602002602001015185606001516001600160a01b03166370a08231306040518263ffffffff1660e01b8152600401611c6b9190613e64565b602060405180830381865afa158015611c88573d6000803e3d6000fd5b505050506040513d601f19601f82011682018060405250810190611cac9190613e78565b611cb69084613e51565b611cc09190613e51565b6040808701516060880151915163dd27ede760e01b81523060048201526001600160a01b039182166024820152918116604483015260006064830152919250908b169063dd27ede79060840160408051808303816000875af1158015611d2a573d6000803e3d6000fd5b505050506040513d601f19601f82011682018060405250810190611d4e9190613ec8565b9093509150611d5d8289613e51565b9750828110611e1357858481518110611d7857611d78613de4565b6020026020010151878c81518110611d9257611d92613de4565b6020026020010151878d81518110611dac57611dac613de4565b6020026020010151898781518110611dc657611dc6613de4565b60200260200101518685611dda9190613e91565b611de49190613e10565b611dee9190613e10565b611df89190613e3d565b611e029190613e3d565b611e0c9089613e51565b9750611e27565b611e278585611e228487613e91565b61307b565b5050505b600101611b09565b50805160208201515103611f4f5760005b8151811015611f4d5781602001518181518110611e6357611e63613de4565b602002602001015160000315611f45576000838281518110611e8757611e87613de4565b6020026020010151858a81518110611ea157611ea1613de4565b6020026020010151858b81518110611ebb57611ebb613de4565b6020026020010151878581518110611ed557611ed5613de4565b602002602001015186602001518681518110611ef357611ef3613de4565b6020026020010151611f059190613e10565b611f0f9190613e10565b611f199190613e3d565b611f239190613e3d565b905085811115611f365760009550611f43565b611f408187613e91565b95505b505b600101611e44565b505b8415611f6257611f5f8987613104565b50505b50955095509592505050565b600080826001600160a01b031663f77c47916040518163ffffffff1660e01b8152600401602060405180830381865afa158015611faf573d6000803e3d6000fd5b505050506040513d601f19601f82011682018060405250810190611fd39190613ea4565b6001600160a01b03166347b03bba6040518163ffffffff1660e01b8152600401602060405180830381865afa158015612010573d6000803e3d6000fd5b505050506040513d601f19601f820116820180604052508101906120349190613ea4565b9050600080826001600160a01b03166338bc8c5e8a6040518263ffffffff1660e01b81526004016120659190614237565b6000604051808303816000875af1158015612084573d6000803e3d6000fd5b505050506040513d6000823e601f3d908101601f191682016040526120ac919081019061424a565b8a51919350915060005b818110156121fb57898103612118578381815181106120d7576120d7613de4565b6020026020010151866120ea9190614296565b95508281815181106120fe576120fe613de4565b6020026020010151866121119190614178565b95506121f3565b87818151811061212a5761212a613de4565b6020026020010151898b8151811061214457612144613de4565b6020026020010151898c8151811061215e5761215e613de4565b60200260200101518b848151811061217857612178613de4565b602002602001015187858151811061219257612192613de4565b60200260200101518786815181106121ac576121ac613de4565b60200260200101516121be9190614296565b6121c891906141a0565b6121d291906141a0565b6121dc91906141d0565b6121e691906141d0565b6121f09087614178565b95505b6001016120b6565b507f3c494ff6e1b11028d08783f71eb95f6a0f9705f6b74f85470926baa577ad52308a84848b896040516122339594939291906142bd565b60405180910390a15050505095945050505050565b6003850154600090858511156122c2576122628686613e91565b915083156122bd578387600301600082825461227e9190614178565b909155505060408051828152602081018690527f9dca6303e24e8874cf8b056d48a1351b6a2725e7a309caa33a6a4f74a455ab25910160405180910390a15b6123ea565b60006122ce8688613e91565b905080156123e85783546040516370a0823160e01b81526000916001600160a01b0316906370a0823190612306903090600401613e64565b602060405180830381865afa158015612323573d6000803e3d6000fd5b505050506040513d601f19601f820116820180604052508101906123479190613e78565b6123519088613e51565b9050600080612360848461324e565b91509150806000146123b55760408051838152602081018390529081018b9052606081018a90527f79ebefb350a48e2a470929fdbef327f4d53ceaafdd43e30e288f0279aa70e5fd9060800160405180910390a15b60018701546123e4908c906001600160a01b031684876123d5828e6141a0565b6123df91906141d0565b6117ab565b5050505b505b60038701546040805188815260208101889052808201849052606081019290925260808201869052517fdefa80b22e5fab3e2037351d0afab9e865dd4e3e4738002818eed2e6b25cc0139181900360a00190a15095945050505050565b8451606090806001600160401b0381111561246457612464613507565b60405190808252806020026020018201604052801561248d578160200160208202803683370190505b50915060005b81811015610fbd578681036124df578481815181106124b4576124b4613de4565b60200260200101518382815181106124ce576124ce613de4565b602002602001018181525050612611565b60008482815181106124f3576124f3613de4565b602002602001015186838151811061250d5761250d613de4565b602002602001015161251f9190613e51565b9050801561260f57866001600160a01b031663667df249308b8b8151811061254957612549613de4565b60200260200101518c868151811061256357612563613de4565b60209081029190910101516040516001600160e01b031960e086901b1681526001600160a01b03938416600482015291831660248301529190911660448201526064810184905260840160408051808303816000875af11580156125cb573d6000803e3d6000fd5b505050506040513d601f19601f820116820180604052508101906125ef9190613ec8565b5084838151811061260257612602613de4565b6020026020010181815250505b505b600101612493565b60606000821561265b578284101561264d578261263e85670de0b6b3a7640000613e10565b6126489190613e3d565b61265e565b670de0b6b3a764000061265e565b60005b8551909150806001600160401b0381111561267b5761267b613507565b6040519080825280602002602001820160405280156126a4578160200160208202803683370190505b50925081156127175760005b8181101561271557670de0b6b3a7640000838883815181106126d4576126d4613de4565b60200260200101516126e69190613e10565b6126f09190613e3d565b84828151811061270257612702613de4565b60209081029190910101526001016126b0565b505b50509392505050565b600080600061272f8785611795565b9050801561287a5760408051808201909152601181527054532d35207a65726f2062616c616e636560781b60208201528561277d5760405162461bcd60e51b81526004016112759190613f10565b506127a181620186a0612792886101f4613e10565b61279c9190613e3d565b611795565b905061287a866001600160a01b031663fbfa77cf6040518163ffffffff1660e01b8152600401602060405180830381865afa1580156127e4573d6000803e3d6000fd5b505050506040513d601f19601f820116820180604052508101906128089190613ea4565b6001600160a01b03166389cf32046040518163ffffffff1660e01b8152600401602060405180830381865afa158015612845573d6000803e3d6000fd5b505050506040513d601f19601f820116820180604052508101906128699190613ea4565b6001600160a01b038a16908361327a565b80925080871161288b576000612895565b6128958188613e91565b60408051858152602081018390529193507fbaad96f61e3091f46555dc5cf915745a34dbd0981adc3f1c6747a4d5a1ffa055910160405180910390a1509550959350505050565b6040516370a0823160e01b81526000906001600160a01b038316906370a082319061290b903090600401613e64565b602060405180830381865afa158015612928573d6000803e3d6000fd5b505050506040513d601f19601f82011682018060405250810190610c519190613e78565b60408051600380825260808201909252606091829160009160208201848036833701905050905088518160008151811061298857612988613de4565b6020026020010181815250508651816001815181106129a9576129a9613de4565b6020026020010181815250508451816002815181106129ca576129ca613de4565b6020026020010181815250508751816000815181106129eb576129eb613de4565b6020026020010151148015612a1a5750855181600181518110612a1057612a10613de4565b6020026020010151145b8015612a405750835181600281518110612a3657612a36613de4565b6020026020010151145b6040518060400160405280600d81526020016c54532d3139206c656e6774687360981b81525090612a845760405162461bcd60e51b81526004016112759190613f10565b50600081600281518110612a9a57612a9a613de4565b602002602001015182600181518110612ab557612ab5613de4565b602002602001015183600081518110612ad057612ad0613de4565b6020026020010151612ae29190613e51565b612aec9190613e51565b90506000816001600160401b03811115612b0857612b08613507565b604051908082528060200260200182016040528015612b31578160200160208202803683370190505b5090506000826001600160401b03811115612b4e57612b4e613507565b604051908082528060200260200182016040528015612b77578160200160208202803683370190505b5090506000805b6003811015612d395760008115612ba35781600114612b9d5789612ba5565b8b612ba5565b8d5b905060008215612bc35782600114612bbd578b612bc5565b8d612bc5565b8f5b905060005b888481518110612bdc57612bdc613de4565b6020026020010151811015612d25576000838281518110612bff57612bff613de4565b602002602001015190506000838381518110612c1d57612c1d613de4565b602002602001015190506000805b88811015612caa578a8181518110612c4557612c45613de4565b60200260200101516001600160a01b0316836001600160a01b031603612c9857838a8281518110612c7857612c78613de4565b60200260200101818151612c8c9190613e51565b90525060019150612caa565b80612ca28161431d565b915050612c2b565b5080612d0f57818a8981518110612cc357612cc3613de4565b60200260200101906001600160a01b031690816001600160a01b03168152505082898981518110612cf657612cf6613de4565b602090810291909101015287612d0b8161431d565b9850505b5050508080612d1d9061431d565b915050612bca565b50505080612d329061431d565b9050612b7e565b50806001600160401b03811115612d5257612d52613507565b604051908082528060200260200182016040528015612d7b578160200160208202803683370190505b509650806001600160401b03811115612d9657612d96613507565b604051908082528060200260200182016040528015612dbf578160200160208202803683370190505b50955060005b81811015612e6257838181518110612ddf57612ddf613de4565b6020026020010151888281518110612df957612df9613de4565b60200260200101906001600160a01b031690816001600160a01b031681525050828181518110612e2b57612e2b613de4565b6020026020010151878281518110612e4557612e45613de4565b602090810291909101015280612e5a8161431d565b915050612dc5565b505050505050965096945050505050565b60608082518451146040518060400160405280600d81526020016c54532d3139206c656e6774687360981b81525090612ebf5760405162461bcd60e51b81526004016112759190613f10565b508351600090815b81811015612f1057858181518110612ee157612ee1613de4565b6020026020010151600014612efe5782612efa8161431d565b9350505b80612f088161431d565b915050612ec7565b50816001600160401b03811115612f2957612f29613507565b604051908082528060200260200182016040528015612f52578160200160208202803683370190505b509350816001600160401b03811115612f6d57612f6d613507565b604051908082528060200260200182016040528015612f96578160200160208202803683370190505b5092506000805b82811015613056576000878281518110612fb957612fb9613de4565b602002602001015190508060001461304357888281518110612fdd57612fdd613de4565b6020026020010151878481518110612ff757612ff7613de4565b60200260200101906001600160a01b031690816001600160a01b0316815250508086848151811061302a5761302a613de4565b60209081029190910101528261303f8161431d565b9350505b508061304e8161431d565b915050612f9d565b505050509250929050565b6000818311613071576000610c4e565b610c4e8284613e91565b8260200151516000036130d15782516001600160401b038111156130a1576130a1613507565b6040519080825280602002602001820160405280156130ca578160200160208202803683370190505b5060208401525b80836020015183815181106130e8576130e8613de4565b602002602001018181516130fc9190613e51565b905250505050565b6060806000836001600160a01b031663f77c47916040518163ffffffff1660e01b8152600401602060405180830381865afa158015613147573d6000803e3d6000fd5b505050506040513d601f19601f8201168201806040525081019061316b9190613ea4565b6001600160a01b03166347b03bba6040518163ffffffff1660e01b8152600401602060405180830381865afa1580156131a8573d6000803e3d6000fd5b505050506040513d601f19601f820116820180604052508101906131cc9190613ea4565b604051631c5e462f60e11b81529091506001600160a01b038216906338bc8c5e906131fb908890600401614237565b6000604051808303816000875af115801561321a573d6000803e3d6000fd5b505050506040513d6000823e601f3d908101601f19168201604052613242919081019061424a565b92509250509250929050565b60008061326584620186a0612792866101f4613e10565b91506132718483613061565b90509250929050565b604080516001600160a01b03848116602483015260448083018590528351808403909101815260649092018352602080830180516001600160e01b031663a9059cbb60e01b17905283518085019094528084527f5361666545524332303a206c6f772d6c6576656c2063616c6c206661696c6564908401526108b99286929160009161330a918516908490613387565b8051909150156108b957808060200190518101906133289190614336565b6108b95760405162461bcd60e51b815260206004820152602a60248201527f5361666545524332303a204552433230206f7065726174696f6e20646964206e6044820152691bdd081cdd58d8d9595960b21b6064820152608401611275565b6060613396848460008561339e565b949350505050565b6060824710156133ff5760405162461bcd60e51b815260206004820152602660248201527f416464726573733a20696e73756666696369656e742062616c616e636520666f6044820152651c8818d85b1b60d21b6064820152608401611275565b600080866001600160a01b0316858760405161341b9190614353565b60006040518083038185875af1925050503d8060008114613458576040519150601f19603f3d011682016040523d82523d6000602084013e61345d565b606091505b5091509150610e0187838387606083156134d85782516000036134d1576001600160a01b0385163b6134d15760405162461bcd60e51b815260206004820152601d60248201527f416464726573733a2063616c6c20746f206e6f6e2d636f6e74726163740000006044820152606401611275565b5081613396565b61339683838151156134ed5781518083602001fd5b8060405162461bcd60e51b81526004016112759190613f10565b634e487b7160e01b600052604160045260246000fd5b604051601f8201601f191681016001600160401b038111828210171561354557613545613507565b604052919050565b60006001600160401b0382111561356657613566613507565b5060051b60200190565b6001600160a01b038116811461358557600080fd5b50565b600082601f83011261359957600080fd5b813560206135ae6135a98361354d565b61351d565b82815260059290921b840181019181810190868411156135cd57600080fd5b8286015b848110156135f15780356135e481613570565b83529183019183016135d1565b509695505050505050565b803561360781613570565b919050565b600082601f83011261361d57600080fd5b8135602061362d6135a98361354d565b82815260059290921b8401810191818101908684111561364c57600080fd5b8286015b848110156135f15780358352918301918301613650565b600080600080600080600060e0888a03121561368257600080fd5b8735965060208801356001600160401b03808211156136a057600080fd5b6136ac8b838c01613588565b975060408a0135965060608a013591506136c582613570565b909450608089013590808211156136db57600080fd5b506136e88a828b0161360c565b93505060a0880135915060c0880135905092959891949750929550565b60008060006060848603121561371a57600080fd5b833561372581613570565b9250602084013561373581613570565b929592945050506040919091013590565b60008060006060848603121561375b57600080fd5b83359250602084013561373581613570565b600080600080600060a0868803121561378557600080fd5b853594506020860135935060408601356001600160401b03808211156137aa57600080fd5b6137b689838a0161360c565b945060608801359150808211156137cc57600080fd5b506137d988828901613588565b95989497509295608001359392505050565b600080604083850312156137fe57600080fd5b823561380981613570565b9150602083013561381981613570565b809150509250929050565b6000806000806080858703121561383a57600080fd5b843561384581613570565b935060208501356001600160401b038082111561386157600080fd5b61386d88838901613588565b945060408701359350606087013591508082111561388a57600080fd5b506138978782880161360c565b91505092959194509250565b600081518084526020808501945080840160005b838110156138d3578151875295820195908201906001016138b7565b509495945050505050565b602081526000610c4e60208301846138a3565b60008060006060848603121561390657600080fd5b833561391181613570565b95602085013595506040909401359392505050565b801515811461358557600080fd5b600080600080600060a0868803121561394c57600080fd5b85356001600160401b038082111561396357600080fd5b61396f89838a01613588565b9650602088013591508082111561398557600080fd5b506139928882890161360c565b9450506040860135925060608601356139aa81613570565b915060808601356139ba81613926565b809150509295509295909350565b8381526060602082015260006139e160608301856138a3565b82810360408401526139f381856138a3565b9695505050505050565b600080600080600080600080610100898b031215613a1a57600080fd5b613a23896135fc565b975060208901356001600160401b0380821115613a3f57600080fd5b613a4b8c838d01613588565b985060408b0135975060608b0135915080821115613a6857600080fd5b613a748c838d0161360c565b965060808b0135955060a08b0135945060c08b0135915080821115613a9857600080fd5b613aa48c838d0161360c565b935060e08b0135915080821115613aba57600080fd5b50613ac78b828c0161360c565b9150509295985092959890939650565b604081526000613aea60408301856138a3565b8281036020840152610b0281856138a3565b600080600060608486031215613b1157600080fd5b8335613b1c81613570565b92506020840135613b2c81613570565b91506040840135613b3c81613570565b809150509250925092565b600080600080600060a08688031215613b5f57600080fd5b8535613b6a81613570565b9450602086013593506040860135613b8181613570565b94979396509394606081013594506080013592915050565b60008060408385031215613bac57600080fd5b82356001600160401b03811115613bc257600080fd5b613bce85828601613588565b95602094909401359450505050565b600080600080600060a08688031215613bf557600080fd5b8535613c0081613570565b97602087013597506040870135966060810135965060800135945092505050565b600080600080600060c08688031215613c3957600080fd5b8535613c4481613570565b9450602086013593506040860135613c5b81613570565b92506060860135613c6b81613570565b915060c08601871015613c7d57600080fd5b5092959194509260800190565b82815260406020820152600061339660408301846138a3565b60008060408385031215613cb657600080fd5b8235613cc181613570565b946020939093013593505050565b600080600080600060a08688031215613ce757600080fd5b8535613cf281613570565b945060208601356001600160401b0380821115613d0e57600080fd5b613d1a89838a01613588565b95506040880135915080821115613d3057600080fd5b613d3c89838a01613588565b94506060880135915080821115613d5257600080fd5b613d5e89838a0161360c565b93506080880135915080821115613d7457600080fd5b50613d818882890161360c565b9150509295509295909350565b604080825283519082018190526000906020906060840190828701845b82811015613dd05781516001600160a01b031684529284019290840190600101613dab565b505050838103828501526139f381866138a3565b634e487b7160e01b600052603260045260246000fd5b634e487b7160e01b600052601160045260246000fd5b8082028115828204841417610c5157610c51613dfa565b634e487b7160e01b600052601260045260246000fd5b600082613e4c57613e4c613e27565b500490565b80820180821115610c5157610c51613dfa565b6001600160a01b0391909116815260200190565b600060208284031215613e8a57600080fd5b5051919050565b81810381811115610c5157610c51613dfa565b600060208284031215613eb657600080fd5b8151613ec181613570565b9392505050565b60008060408385031215613edb57600080fd5b505080516020909101519092909150565b60005b83811015613f07578181015183820152602001613eef565b50506000910152565b6020815260008251806020840152613f2f816040850160208701613eec565b601f01601f19169190910160400192915050565b600082601f830112613f5457600080fd5b81516020613f646135a98361354d565b82815260059290921b84018101918181019086841115613f8357600080fd5b8286015b848110156135f15780518352918301918301613f87565b60008060408385031215613fb157600080fd5b82516001600160401b0380821115613fc857600080fd5b818501915085601f830112613fdc57600080fd5b81516020613fec6135a98361354d565b82815260059290921b8401810191818101908984111561400b57600080fd5b948201945b8386101561403257855161402381613570565b82529482019490820190614010565b9188015191965090935050508082111561404b57600080fd5b5061405885828601613f43565b9150509250929050565b60006020828403121561407457600080fd5b815160ff81168114613ec157600080fd5b600181815b808511156140c05781600019048211156140a6576140a6613dfa565b808516156140b357918102915b93841c939080029061408a565b509250929050565b6000826140d757506001610c51565b816140e457506000610c51565b81600181146140fa576002811461410457614120565b6001915050610c51565b60ff84111561411557614115613dfa565b50506001821b610c51565b5060208310610133831016604e8410600b8410161715614143575081810a610c51565b61414d8383614085565b806000190482111561416157614161613dfa565b029392505050565b6000610c4e60ff8416836140c8565b808201828112600083128015821682158216171561419857614198613dfa565b505092915050565b80820260008212600160ff1b841416156141bc576141bc613dfa565b8181058314821517610c5157610c51613dfa565b6000826141df576141df613e27565b600160ff1b8214600019841416156141f9576141f9613dfa565b500590565b600081518084526020808501945080840160005b838110156138d35781516001600160a01b031687529582019590820190600101614212565b602081526000610c4e60208301846141fe565b6000806040838503121561425d57600080fd5b82516001600160401b038082111561427457600080fd5b61428086838701613f43565b9350602085015191508082111561404b57600080fd5b81810360008312801583831316838312821617156142b6576142b6613dfa565b5092915050565b60a0815260006142d060a08301886141fe565b82810360208401526142e281886138a3565b905082810360408401526142f681876138a3565b9050828103606084015261430a81866138a3565b9150508260808301529695505050505050565b60006001820161432f5761432f613dfa565b5060010190565b60006020828403121561434857600080fd5b8151613ec181613926565b60008251614365818460208701613eec565b919091019291505056fea2646970667358221220f8d3412313077e25943a463f86d5b48cdb41fb1c7466a1f49f7400712e45906064736f6c63430008110033",
  "libraries": {
    "StrategyLib": "0x4f5b979a3f97f898c61b2f168917c9ddcc73365a"
  },
  "devdoc": {
    "events": {
      "BorrowResults(uint256,uint256)": {
        "params": {
          "gains": "Amount received by all pool adapters for the provided collateral, in underlying",
          "losses": "Amount paid by all pool adapters for the debts, in underlying"
        }
      },
      "ChangeDebtToInsuranceOnProfit(int256,int256)": {
        "details": "See comments in {_coverLossAfterPriceChanging}: actual profit-to-cover amount can be less than {increaseToDebt}",
        "params": {
          "debtToInsuranceBefore": "Value of debtToInsurance before fix-price-change",
          "increaseToDebt": "Value on which {debtToInsuranceBefore} was incremented"
        }
      },
      "FixPriceChanges(uint256,uint256,int256,int256,int256)": {
        "params": {
          "debtToInsuranceAfter": "New value of the debt to insurance",
          "debtToInsuranceBefore": "Value of the debt to insurance before fix price change",
          "increaseToDebt": "Amount on which debt was increased. Actual value {debtToInsuranceAfter}-{debtToInsuranceBefore} can be less than increaseToDebt because some amount can be left uncovered."
        }
      },
      "OnCoverLoss(uint256,int256,uint256,uint256)": {
        "params": {
          "amountCovered": "Actually covered amount of loss. If amountCovered < lossToCover => the insurance is not enough",
          "debtToInsuranceInc": "The amount by which the debt to insurance increases",
          "lossToCover": "Amount of loss that should be covered (it fits to allowed limits, no revert)",
          "lossUncovered": "Amount of uncovered losses (not enough insurance)"
        }
      },
      "OnIncreaseDebtToInsurance(address[],uint256[],uint256[],uint256[],int256)": {
        "params": {
          "deltaGains": "Amounts by which the debt has reduced (supply profit) [sync with {tokens}]",
          "deltaLosses": "Amounts by which the debt has increased (increase of amount-to-pay) [sync with {tokens}]",
          "increaseToDebt": "Total amount of increasing of the debt to the insurance in underlying",
          "prices": "Prices of the {tokens}",
          "tokens": "List of possible collateral/borrow assets. One of the is unerlying."
        }
      }
    },
    "kind": "dev",
    "methods": {
      "calcInvestedAssets(address[],uint256[],uint256,ITetuConverter,bool)": {
        "details": "This is writable function because we need to update current balances in the internal protocols.",
        "params": {
          "indexAsset": "Index of the underlying (main asset) in {tokens}",
          "makeCheckpoint_": "True - call IBookkeeper.checkpoint in the converter"
        },
        "returns": {
          "amountOut": "Invested asset amount under control (in terms of underlying)",
          "decs": "10**decimals",
          "prices": "Asset prices in USD, decimals 18"
        }
      },
      "claimConverterRewards(ITetuConverter,address[],address[],uint256[],uint256[])": {
        "details": "The post-processing is rewards conversion to the main asset",
        "params": {
          "amountsOut": "Amounts of available rewards",
          "rewardTokens_": "Amounts of rewards claimed from the internal pool",
          "tokensOut": "List of available rewards - not zero amounts, reward tokens don't repeat",
          "tokens_": "tokens received from {_depositorPoolAssets}"
        }
      },
      "fixPriceChanges(IConverterStrategyBase.ConverterStrategyBaseState storage,IStrategyV3.BaseState storage,uint256[],address[],uint256)": {
        "params": {
          "amountsInPool": "Amount of tokens that can be received from the pool after withdrawing all liquidity. The order of tokens is same as in the {tokens}",
          "indexAsset": "Index of the underlying in {tokens}",
          "tokens": "Result of {_depositorPoolAssets}"
        },
        "returns": {
          "earnedOut": "Profit that was received because of price changes. It should be sent back to insurance.",
          "investedAssetsOut": "Updated value of {csbs.investedAssets}"
        }
      },
      "fixTooHighInvestedAssets(address,uint256,IConverterStrategyBase.ConverterStrategyBaseState storage)": {
        "details": "If profitToCover was sent only partly, we will postpone sending of remain amount up to the next call      of fixPriceChange in same manner",
        "params": {
          "oldTotalAssets": "Total asset at the moment after last call of fixPriceChange,                       decreased on the value of profitToCover."
        }
      },
      "getLiquidityAmount(uint256,address[],uint256,ITetuConverter,uint256[],uint256,uint256)": {
        "params": {
          "quoteAmounts": "Results of _depositorQuoteExit(depositorLiquidity)",
          "targetAmount": "Required amount of main asset to be withdrawn from the strategy; type(uint).max - withdraw all"
        },
        "returns": {
          "resultAmount": "Amount of liquidity that should be withdrawn from the pool, cannot exceed depositorLiquidity"
        }
      },
      "getTokenAmountsPair(ITetuConverter,uint256,address,address,uint256[2])": {
        "params": {
          "liquidationThresholdsAB": "[liquidityThreshold of token A, liquidityThreshold of tokenB]"
        },
        "returns": {
          "loss": "New total assets - old total assets",
          "tokenAmounts": "Balances of the token A and token B.                     If any balance is zero it's not possible to enter to the pool, so return empty array (len 0)"
        }
      },
      "postWithdrawActions(ITetuConverter,address[],uint256,uint256[],uint256,uint256,uint256[],uint256[])": {
        "params": {
          "amountsToConvert": "Amounts of {tokens} to be converted, they are located on the balance before withdraw",
          "withdrawnAmounts": "Amounts of {tokens} that were withdrew from the pool"
        }
      },
      "sendProfitGetAssetBalance(address,uint256,uint256,uint256,IStrategyV3.BaseState storage)": {
        "params": {
          "balanceTheAsset_": "Current balance of {theAsset_}",
          "earnedByPrices_": "ProfitToCover received from fixPriceChange()",
          "investedAssets_": "Value of investedAssets after call fixPriceChange()",
          "theAsset_": "The asset passed from Converter"
        },
        "returns": {
          "balanceTheAssetOut": "Final balance of {theAsset_} (after sending profit-to-cover to the insurance)"
        }
      },
      "sendToInsurance(address,uint256,address,uint256,uint256)": {
        "params": {
          "balance": "Current balance of the underlying",
          "totalAssets_": "Total strategy balance = balance of underlying + current invested assets amount"
        },
        "returns": {
          "sentAmount": "Amount of underlying sent to the insurance",
          "unsentAmount": "Missed part of the {amount} that were not sent to the insurance"
        }
      }
    },
    "stateVariables": {
      "HARDWORK_LOSS_TOLERANCE": {
        "details": "0.5% of max loss for strategy TVL"
      },
      "PRICE_CHANGE_PROFIT_TOLERANCE": {
        "details": "0.5% of max profit for strategy TVL"
      }
    },
    "version": 1
  },
  "userdoc": {
    "events": {
      "BorrowResults(uint256,uint256)": {
        "notice": "Register amounts received for supplying collaterals and amount paid for the debts"
      },
      "ChangeDebtToInsuranceOnProfit(int256,int256)": {
        "notice": "Value of {debtToInsurance} was increased on {increaseToDebt} inside fix-price-change in the case when invested-asset amounts were increased."
      },
      "OnIncreaseDebtToInsurance(address[],uint256[],uint256[],uint256[],int256)": {
        "notice": "Increase to debts between new and previous checkpoints."
      },
      "UncoveredLoss(uint256,uint256,uint256,uint256)": {
        "notice": "Amount {lossCovered}+{lossUncovered} should be covered, but it's too high and will produce revert on the splitter side. So, only {lossCovered} can be covered, {lossUncovered} are not covered"
      }
    },
    "kind": "user",
    "methods": {
      "HARDWORK_LOSS_TOLERANCE()": {
        "notice": "Same value as StrategySplitterV2.HARDWORK_LOSS_TOLERANCE"
      },
      "PRICE_CHANGE_PROFIT_TOLERANCE()": {
        "notice": "Limit max amount of profit that can be send to insurance after price changing"
      },
      "calcInvestedAssets(address[],uint256[],uint256,ITetuConverter,bool)": {
        "notice": "Calculate amount we will receive when we withdraw all from pool"
      },
      "claimConverterRewards(ITetuConverter,address[],address[],uint256[],uint256[])": {
        "notice": "Claim rewards from tetuConverter, generate result list of all available rewards and airdrops"
      },
      "coverLossAndCheckResults(IConverterStrategyBase.ConverterStrategyBaseState storage,address,uint256)": {
        "notice": "Call coverPossibleStrategyLoss, covered loss will be sent to vault.         If the loss were covered only partially, emit {NotEnoughInsurance}"
      },
      "fixPriceChanges(IConverterStrategyBase.ConverterStrategyBaseState storage,IStrategyV3.BaseState storage,uint256[],address[],uint256)": {
        "notice": "Calculate profit/loss happened because of price changing. Try to cover the loss, send the profit to the insurance. Increment debt to insurance on amount of increase of the debts."
      },
      "fixTooHighInvestedAssets(address,uint256,IConverterStrategyBase.ConverterStrategyBaseState storage)": {
        "notice": "Swap can give us more amount out than expected, so we will receive increasing of share price.         To prevent it, we need to send exceeded amount to insurance,         but it's too expensive to make such transfer at the end of withdrawAggByStep.         So, we postpone sending the profit until the next call of fixPriceChange         by manually setting investedAssets equal to the oldTotalAssets"
      },
      "getAvailableBalances(address[],uint256)": {
        "notice": "Get balances of the {tokens_} except balance of the token at {indexAsset} position"
      },
      "getLiquidityAmount(uint256,address[],uint256,ITetuConverter,uint256[],uint256,uint256)": {
        "notice": "Calculate amount of liquidity that should be withdrawn from the pool to get {targetAmount_}               liquidityAmount = _depositorLiquidity() * {liquidityRatioOut} / 1e18         User needs to withdraw {targetAmount_} in some asset.         There are three kinds of available liquidity:         1) liquidity in the pool - {depositorLiquidity_}         2) Converted amounts on balance of the strategy - {baseAmounts_}         3) Liquidity locked in the debts."
      },
      "getOracleAssetsPrice(ITetuConverter,address,address)": {
        "notice": "Get price of {tokenB} in term of {tokenA} with 18 decimals"
      },
      "getTokenAmountsPair(ITetuConverter,uint256,address,address,uint256[2])": {
        "notice": "Calculate the token amounts for deposit and amount of loss (as old-total-asset - new-total-asset)"
      },
      "postWithdrawActions(ITetuConverter,address[],uint256,uint256[],uint256,uint256,uint256[],uint256[])": {
        "notice": "Add {withdrawnAmounts} to {amountsToConvert}, calculate {expectedAmountMainAsset}"
      },
      "postWithdrawActionsEmpty(ITetuConverter,address[],uint256,uint256[])": {
        "notice": "return {withdrawnAmounts} with zero values and expected amount calculated using {amountsToConvert_}"
      },
      "registerBorrowResults(ITetuConverter,address)": {
        "notice": "Register amounts received for supplying collaterals and amount paid for the debts         for the current period (a new period is started after each hardwork operation)"
      },
      "sendProfitGetAssetBalance(address,uint256,uint256,uint256,IStrategyV3.BaseState storage)": {
        "notice": "Send ProfitToCover to insurance - code fragment of the requirePayAmountBack()         moved here to reduce size of requirePayAmountBack()"
      },
      "sendToInsurance(address,uint256,address,uint256,uint256)": {
        "notice": "Send given {amount} of {asset} (== underlying) to the insurance"
      }
    },
    "notice": "Continuation of ConverterStrategyBaseLib (workaround for size limits)",
    "version": 1
  },
  "storageLayout": {
    "storage": [],
    "types": null
  }
}