{
  "address": "0xf696eAB7b15f3C8A32582093Fc204884B5630508",
  "abi": [
    {
      "anonymous": false,
      "inputs": [
        {
          "indexed": false,
          "internalType": "uint256",
          "name": "investedAssetsBefore",
          "type": "uint256"
        },
        {
          "indexed": false,
          "internalType": "uint256",
          "name": "investedAssetsOut",
          "type": "uint256"
        }
      ],
      "name": "FixPriceChanges",
      "type": "event"
    },
    {
      "anonymous": false,
      "inputs": [
        {
          "indexed": false,
          "internalType": "address",
          "name": "token",
          "type": "address"
        },
        {
          "indexed": false,
          "internalType": "uint256",
          "name": "amount",
          "type": "uint256"
        }
      ],
      "name": "LiquidationThresholdChanged",
      "type": "event"
    },
    {
      "anonymous": false,
      "inputs": [
        {
          "indexed": false,
          "internalType": "uint256",
          "name": "amount",
          "type": "uint256"
        }
      ],
      "name": "ReinvestThresholdPercentChanged",
      "type": "event"
    },
    {
      "anonymous": false,
      "inputs": [
        {
          "indexed": false,
          "internalType": "uint256",
          "name": "lossCovered",
          "type": "uint256"
        },
        {
          "indexed": false,
          "internalType": "uint256",
          "name": "lossUncovered",
          "type": "uint256"
        },
        {
          "indexed": false,
          "internalType": "uint256",
          "name": "investedAssetsBefore",
          "type": "uint256"
        },
        {
          "indexed": false,
          "internalType": "uint256",
          "name": "investedAssetsAfter",
          "type": "uint256"
        }
      ],
      "name": "UncoveredLoss",
      "type": "event"
    },
    {
      "anonymous": false,
      "inputs": [
        {
          "indexed": false,
          "internalType": "uint256",
          "name": "sentAmount",
          "type": "uint256"
        },
        {
          "indexed": false,
          "internalType": "uint256",
          "name": "unsentAmount",
          "type": "uint256"
        },
        {
          "indexed": false,
          "internalType": "uint256",
          "name": "balance",
          "type": "uint256"
        },
        {
          "indexed": false,
          "internalType": "uint256",
          "name": "totalAssets",
          "type": "uint256"
        }
      ],
      "name": "UnsentAmountToInsurance",
      "type": "event"
    },
    {
      "inputs": [],
      "name": "HARDWORK_LOSS_TOLERANCE",
      "outputs": [
        {
          "internalType": "uint256",
          "name": "",
          "type": "uint256"
        }
      ],
      "stateMutability": "view",
      "type": "function"
    },
    {
      "inputs": [],
      "name": "PRICE_CHANGE_PROFIT_TOLERANCE",
      "outputs": [
        {
          "internalType": "uint256",
          "name": "",
          "type": "uint256"
        }
      ],
      "stateMutability": "view",
      "type": "function"
    },
    {
      "inputs": [
        {
          "internalType": "contract ITetuConverter",
          "name": "converter",
          "type": "ITetuConverter"
        },
        {
          "internalType": "address",
          "name": "token",
          "type": "address"
        }
      ],
      "name": "getAssetPriceFromConverter",
      "outputs": [
        {
          "internalType": "uint256",
          "name": "",
          "type": "uint256"
        }
      ],
      "stateMutability": "view",
      "type": "function"
    },
    {
      "inputs": [
        {
          "internalType": "address[]",
          "name": "tokens_",
          "type": "address[]"
        },
        {
          "internalType": "uint256",
          "name": "indexAsset",
          "type": "uint256"
        }
      ],
      "name": "getAvailableBalances",
      "outputs": [
        {
          "internalType": "uint256[]",
          "name": "",
          "type": "uint256[]"
        }
      ],
      "stateMutability": "view",
      "type": "function"
    },
    {
      "inputs": [
        {
          "internalType": "contract ITetuConverter",
          "name": "converter",
          "type": "ITetuConverter"
        },
        {
          "internalType": "address",
          "name": "tokenA",
          "type": "address"
        },
        {
          "internalType": "address",
          "name": "tokenB",
          "type": "address"
        }
      ],
      "name": "getOracleAssetsPrices",
      "outputs": [
        {
          "internalType": "uint256",
          "name": "priceA",
          "type": "uint256"
        },
        {
          "internalType": "uint256",
          "name": "priceB",
          "type": "uint256"
        }
      ],
      "stateMutability": "view",
      "type": "function"
    }
  ],
  "transactionHash": "0xe4f81c5c9d57eca165755c3ab1990091fbf563f5e4e7d64523790c587a287349",
  "args": [],
  "numDeployments": 10,
  "solcInputHash": "558b39190e0fb33c747b822350e63a15",
  "bytecode": "0x6133f961003a600b82828239805160001a60731461002d57634e487b7160e01b600052600060045260246000fd5b30600052607381538281f3fe73000000000000000000000000000000000000000030146080604052600436106100ef5760003560e01c8063aac2718a116100a1578063d5ade5c111610070578063d5ade5c114610256578063e24a7eb214610269578063e99de4da14610289578063ec0cc4fd146102b757600080fd5b8063aac2718a146101b3578063ac2a37d6146101e8578063c9bce69014610216578063d2c3cf251461023657600080fd5b806309d28c57146100f4578063142395ef146101105780631997c9ee146100f45780636138ea85146101325780637a55caf31461015f5780637a9a23e51461017257806397783a6c146101a0575b600080fd5b6100fd6101f481565b6040519081526020015b60405180910390f35b81801561011c57600080fd5b5061013061012b36600461287a565b6102d7565b005b81801561013e57600080fd5b5061015261014d366004612a03565b610386565b6040516101079190612abd565b6100fd61016d366004612ad0565b6103e0565b81801561017e57600080fd5b5061019261018d366004612b09565b610460565b604051610107929190612be3565b6101526101ae366004612c08565b6104ed565b8180156101bf57600080fd5b506101d36101ce366004612c4c565b610600565b60408051928352602083019190915201610107565b8180156101f457600080fd5b50610208610203366004612c94565b61084b565b604051610107929190612cfd565b81801561022257600080fd5b506100fd610231366004612d16565b610a51565b81801561024257600080fd5b50610130610251366004612d95565b610a67565b6101d3610264366004612dc1565b610b53565b81801561027557600080fd5b506100fd610284366004612e0c565b610c4c565b81801561029557600080fd5b506102a96102a4366004612e38565b610dee565b604051610107929190612ef7565b8180156102c357600080fd5b506102086102d2366004612f57565b61101a565b60405163124fdbb760e21b8152733BEB969c0cd273eA1d7a39137a757Cf1c474510a9063493f6edc9061030e908690600401612fe0565b60006040518083038186803b15801561032657600080fd5b505af415801561033a573d6000803e3d6000fd5b5050604080516001600160a01b0386168152602081018590527f297f3fbc14027d2b4a4f7dac3dff2ad6b386024299045b0e163f131bb24b611d935001905060405180910390a1505050565b60606103d784848787516001600160401b038111156103a7576103a76128cb565b6040519080825280602002602001820160405280156103d0578160200160208202803683370190505b50866112d4565b95945050505050565b60006103eb836114b1565b6001600160a01b031663b3596f07836040518263ffffffff1660e01b81526004016104169190612fe0565b602060405180830381865afa158015610433573d6000803e3d6000fd5b505050506040513d601f19601f820116820180604052508101906104579190612ff4565b90505b92915050565b6060806000610470888888611576565b905061047f8a8a8d84896112d4565b8a5190935060005b818110156104da578581815181106104a1576104a161300d565b60200260200101518782815181106104bb576104bb61300d565b602002602001018181516104cf9190613039565b905250600101610487565b5085925050509850989650505050505050565b81516060906000816001600160401b0381111561050c5761050c6128cb565b604051908082528060200260200182016040528015610535578160200160208202803683370190505b50905060005b828110156105f7578085146105ef5785818151811061055c5761055c61300d565b60200260200101516001600160a01b03166370a08231306040518263ffffffff1660e01b815260040161058f9190612fe0565b602060405180830381865afa1580156105ac573d6000803e3d6000fd5b505050506040513d601f19601f820116820180604052508101906105d09190612ff4565b8282815181106105e2576105e261300d565b6020026020010181815250505b60010161053b565b50949350505050565b6000806000866001600160a01b03166370a08231306040518263ffffffff1660e01b81526004016106319190612fe0565b602060405180830381865afa15801561064e573d6000803e3d6000fd5b505050506040513d601f19601f820116820180604052508101906106729190612ff4565b90506000610680878361167d565b905080156107d45760408051808201909152601181527054532d35207a65726f2062616c616e636560781b6020820152856106d75760405162461bcd60e51b81526004016106ce9190613070565b60405180910390fd5b506106fb81620186a06106ec886101f46130a3565b6106f691906130ba565b61167d565b90506107d4866001600160a01b031663fbfa77cf6040518163ffffffff1660e01b8152600401602060405180830381865afa15801561073e573d6000803e3d6000fd5b505050506040513d601f19601f8201168201806040525081019061076291906130dc565b6001600160a01b03166389cf32046040518163ffffffff1660e01b8152600401602060405180830381865afa15801561079f573d6000803e3d6000fd5b505050506040513d601f19601f820116820180604052508101906107c391906130dc565b6001600160a01b038a169083611693565b8093508087116107e55760006107ef565b6107ef8188613100565b92508215610840576040805185815260208101859052908101839052606081018690527f9f5451334f175461ca51eecfd14a2735a1b60706d05d76168e6fed6f597eb5bb9060800160405180910390a15b505094509492505050565b604080516002808252606080830184526000939092919060208301908036833701905050905061087a856116ea565b8160008151811061088d5761088d61300d565b6020026020010181815250506108a2846116ea565b816001815181106108b5576108b561300d565b60209081029190910101526040805160028082526060820190925260009181602001602082028036833701905050905085816000815181106108f9576108f961300d565b60200260200101906001600160a01b031690816001600160a01b031681525050848160018151811061092d5761092d61300d565b6001600160a01b039290921660209283029190910182015260408051600280825260608201835260009391929091830190803683370190505090508260008151811061097b5761097b61300d565b6020026020010151816000815181106109965761099661300d565b60200260200101818152505060006109b1838360008d61175a565b90508881106109c15760006109cb565b6109cb818a613100565b6109dc8760005b6020020135611c67565b856000815181106109ef576109ef61300d565b60200260200101511080610a265750610a098760016109d2565b85600181518110610a1c57610a1c61300d565b6020026020010151105b610a305784610a40565b6040805160008152602081019091525b945094505050509550959350505050565b60006103d78585858561175a565b949350505050565b60405163124fdbb760e21b8152733BEB969c0cd273eA1d7a39137a757Cf1c474510a9063493f6edc90610a9e908590600401612fe0565b60006040518083038186803b158015610ab657600080fd5b505af4158015610aca573d6000803e3d6000fd5b50505050620186a08111156040518060400160405280600f81526020016e53423a2057726f6e672076616c756560881b81525090610b1b5760405162461bcd60e51b81526004016106ce9190613070565b506040518181527fe4166dfcf23bbd3e3f764a99dc8fa740554c03c82d6019b81cf265f396f6f2fe9060200160405180910390a15050565b6000806000610b61866114b1565b60405163b3596f0760e01b81529091506001600160a01b0382169063b3596f0790610b90908890600401612fe0565b602060405180830381865afa158015610bad573d6000803e3d6000fd5b505050506040513d601f19601f82011682018060405250810190610bd19190612ff4565b60405163b3596f0760e01b81529093506001600160a01b0382169063b3596f0790610c00908790600401612fe0565b602060405180830381865afa158015610c1d573d6000803e3d6000fd5b505050506040513d601f19601f82011682018060405250810190610c419190612ff4565b915050935093915050565b600080610c598585611c80565b90925090508015610dad5782546040516370a0823160e01b81526000918291610cee9185916001600160a01b03909116906370a0823190610c9e903090600401612fe0565b602060405180830381865afa158015610cbb573d6000803e3d6000fd5b505050506040513d601f19601f82011682018060405250810190610cdf9190612ff4565b610ce99089613039565b611cb0565b6001870154604051630855081f60e01b815260048101889052602481018490529294509092506001600160a01b031690630855081f90604401600060405180830381600087803b158015610d4157600080fd5b505af1158015610d55573d6000803e3d6000fd5b5050505080600014610daa576040805183815260208101839052908101889052606081018790527f79ebefb350a48e2a470929fdbef327f4d53ceaafdd43e30e288f0279aa70e5fd9060800160405180910390a15b50505b60408051868152602081018690527f3e60abe0a0e1f40e1cea1431e7b150cef698f6d8aa08b3d4e445d7a26bd93e2a910160405180910390a1509392505050565b606080600080886001600160a01b031663ef5cfb8c306040518263ffffffff1660e01b8152600401610e209190612fe0565b6000604051808303816000875af1158015610e3f573d6000803e3d6000fd5b505050506040513d6000823e601f3d908101601f19168201604052610e67919081019061316e565b91509150610ebb878784848c8d516001600160401b03811115610e8c57610e8c6128cb565b604051908082528060200260200182016040528015610eb5578160200160208202803683370190505b50611ce1565b8151919550935060005b81811015610ffe5760005b8a51811015610ff5578a8181518110610eeb57610eeb61300d565b60200260200101516001600160a01b0316878381518110610f0e57610f0e61300d565b60200260200101516001600160a01b031603610fed57878181518110610f3657610f3661300d565b60200260200101518b8281518110610f5057610f5061300d565b60200260200101516001600160a01b03166370a08231306040518263ffffffff1660e01b8152600401610f839190612fe0565b602060405180830381865afa158015610fa0573d6000803e3d6000fd5b505050506040513d601f19601f82011682018060405250810190610fc49190612ff4565b610fce9190613100565b868381518110610fe057610fe061300d565b6020026020010181815250505b600101610ed0565b50600101610ec5565b506110098585612208565b909b909a5098505050505050505050565b8451600090606090891590806001600160401b0381111561103d5761103d6128cb565b604051908082528060200260200182016040528015611066578160200160208202803683370190505b50925060005b818110156112355780891461122d5760008a828151811061108f5761108f61300d565b602002602001015190506000816001600160a01b03166370a08231306040518263ffffffff1660e01b81526004016110c79190612fe0565b602060405180830381865afa1580156110e4573d6000803e3d6000fd5b505050506040513d601f19601f820116820180604052508101906111089190612ff4565b9050801561122a5760008a6001600160a01b031663667df2498f8f8f815181106111345761113461300d565b60209081029190910101516040516001600160e01b031960e085901b1681526001600160a01b039283166004820152908216602482015290861660448201526064810185905260840160408051808303816000875af115801561119b573d6000803e3d6000fd5b505050506040513d601f19601f820116820180604052508101906111bf9190613232565b50905085806111cd57508e15155b156111f257818785815181106111e5576111e561300d565b6020026020010181815250505b808f1161120057600061120c565b808f61120c9190613100565b9e50808a1161121c576000611226565b611226818b613100565b9950505b50505b60010161106c565b5060008280611242575086155b611282578b1561127b576064876112628e680579a814e10a7400006130a3565b61126c91906130ba565b61127691906130ba565b61128c565b600061128c565b670de0b6b3a76400005b90508060000361129d5760006112c3565b6112c3670de0b6b3a76400006112b388846130a3565b6112bd91906130ba565b8761167d565b945050505097509795505050505050565b8451606090806001600160401b038111156112f1576112f16128cb565b60405190808252806020026020018201604052801561131a578160200160208202803683370190505b50915060005b818110156114a65786810361136c578481815181106113415761134161300d565b602002602001015183828151811061135b5761135b61300d565b60200260200101818152505061149e565b60008482815181106113805761138061300d565b602002602001015186838151811061139a5761139a61300d565b60200260200101516113ac9190613039565b9050801561149c57866001600160a01b031663667df249308b8b815181106113d6576113d661300d565b60200260200101518c86815181106113f0576113f061300d565b60209081029190910101516040516001600160e01b031960e086901b1681526001600160a01b03938416600482015291831660248301529190911660448201526064810184905260840160408051808303816000875af1158015611458573d6000803e3d6000fd5b505050506040513d601f19601f8201168201806040525081019061147c9190613232565b5084838151811061148f5761148f61300d565b6020026020010181815250505b505b600101611320565b505095945050505050565b6000816001600160a01b031663f77c47916040518163ffffffff1660e01b8152600401602060405180830381865afa1580156114f1573d6000803e3d6000fd5b505050506040513d601f19601f8201168201806040525081019061151591906130dc565b6001600160a01b0316632630c12f6040518163ffffffff1660e01b8152600401602060405180830381865afa158015611552573d6000803e3d6000fd5b505050506040513d601f19601f8201168201806040525081019061045a91906130dc565b6060600082156115b857828410156115aa578261159b85670de0b6b3a76400006130a3565b6115a591906130ba565b6115bb565b670de0b6b3a76400006115bb565b60005b8551909150806001600160401b038111156115d8576115d86128cb565b604051908082528060200260200182016040528015611601578160200160208202803683370190505b50925081156116745760005b8181101561167257670de0b6b3a7640000838883815181106116315761163161300d565b602002602001015161164391906130a3565b61164d91906130ba565b84828151811061165f5761165f61300d565b602090810291909101015260010161160d565b505b50509392505050565b600081831061168c5781610457565b5090919050565b604080516001600160a01b038416602482015260448082018490528251808303909101815260649091019091526020810180516001600160e01b031663a9059cbb60e01b1790526116e59084906123f6565b505050565b6040516370a0823160e01b81526000906001600160a01b038316906370a0823190611719903090600401612fe0565b602060405180830381865afa158015611736573d6000803e3d6000fd5b505050506040513d601f19601f8201168201806040525081019061045a9190612ff4565b60006117a76040518060c001604052806000815260200160608152602001606081526020016060815260200160006001600160a01b0316815260200160006001600160a01b031681525090565b8551815285518690859081106117bf576117bf61300d565b60209081029190910101516001600160a01b031660808201526117ed6117e4846114b1565b825188906124c8565b6040830152602082015260005b8151811015611b33578481036118365785818151811061181c5761181c61300d565b60200260200101518361182f9190613039565b9250611b2b565b8681815181106118485761184861300d565b60209081029190910101516001600160a01b0390811660a08401819052608084015160405163dd27ede760e01b81523060048201526024810192909252821660448201526000606482018190529182919087169063dd27ede79060840160408051808303816000875af11580156118c3573d6000803e3d6000fd5b505050506040513d601f19601f820116820180604052508101906118e79190613232565b9150915081851015611903576118fe8488846126b6565b611910565b61190d8286613100565b94505b60008884815181106119245761192461300d565b60200260200101518560a001516001600160a01b03166370a08231306040518263ffffffff1660e01b815260040161195c9190612fe0565b602060405180830381865afa158015611979573d6000803e3d6000fd5b505050506040513d601f19601f8201168201806040525081019061199d9190612ff4565b6119a79084613039565b6119b19190613039565b608086015160a087015160405163dd27ede760e01b81523060048201526001600160a01b03928316602482015290821660448201526000606482015291925088169063dd27ede79060840160408051808303816000875af1158015611a1a573d6000803e3d6000fd5b505050506040513d601f19601f82011682018060405250810190611a3e9190613232565b9093509150611a4d8287613039565b9550828110611b135784604001518481518110611a6c57611a6c61300d565b602002602001015185602001518981518110611a8a57611a8a61300d565b602002602001015186604001518a81518110611aa857611aa861300d565b602002602001015187602001518781518110611ac657611ac661300d565b60200260200101518685611ada9190613100565b611ae491906130a3565b611aee91906130a3565b611af891906130ba565b611b0291906130ba565b611b0c9087613039565b9550611b27565b611b278585611b228487613100565b6126b6565b5050505b6001016117fa565b508051606082015151036105f75760005b8151811015611c5d5781606001518181518110611b6357611b6361300d565b602002602001015160000315611c5557600082604001518281518110611b8b57611b8b61300d565b602002602001015183602001518781518110611ba957611ba961300d565b602002602001015184604001518881518110611bc757611bc761300d565b602002602001015185602001518581518110611be557611be561300d565b602002602001015186606001518681518110611c0357611c0361300d565b6020026020010151611c1591906130a3565b611c1f91906130a3565b611c2991906130ba565b611c3391906130ba565b905083811115611c465760009350611c53565b611c508185613100565b93505b505b600101611b44565b5050949350505050565b6000620186a08211611c7c57620186a061045a565b5090565b60008083831115611c9c57611c958484613100565b9150611ca9565b611ca68385613100565b90505b9250929050565b600080611cc784620186a06106ec866101f46130a3565b9150818411611cd7576000611ca6565b611ca68285613100565b604080516003808252608082019092526060918291600091602082018480368337019050509050885181600081518110611d1d57611d1d61300d565b602002602001018181525050865181600181518110611d3e57611d3e61300d565b602002602001018181525050845181600281518110611d5f57611d5f61300d565b602002602001018181525050875181600081518110611d8057611d8061300d565b6020026020010151148015611daf5750855181600181518110611da557611da561300d565b6020026020010151145b8015611dd55750835181600281518110611dcb57611dcb61300d565b6020026020010151145b6040518060400160405280600d81526020016c54532d3139206c656e6774687360981b81525090611e195760405162461bcd60e51b81526004016106ce9190613070565b50600081600281518110611e2f57611e2f61300d565b602002602001015182600181518110611e4a57611e4a61300d565b602002602001015183600081518110611e6557611e6561300d565b6020026020010151611e779190613039565b611e819190613039565b90506000816001600160401b03811115611e9d57611e9d6128cb565b604051908082528060200260200182016040528015611ec6578160200160208202803683370190505b5090506000826001600160401b03811115611ee357611ee36128cb565b604051908082528060200260200182016040528015611f0c578160200160208202803683370190505b5090506000805b60038110156120ce5760008115611f385781600114611f325789611f3a565b8b611f3a565b8d5b905060008215611f585782600114611f52578b611f5a565b8d611f5a565b8f5b905060005b888481518110611f7157611f7161300d565b60200260200101518110156120ba576000838281518110611f9457611f9461300d565b602002602001015190506000838381518110611fb257611fb261300d565b602002602001015190506000805b8881101561203f578a8181518110611fda57611fda61300d565b60200260200101516001600160a01b0316836001600160a01b03160361202d57838a828151811061200d5761200d61300d565b602002602001018181516120219190613039565b9052506001915061203f565b8061203781613256565b915050611fc0565b50806120a457818a89815181106120585761205861300d565b60200260200101906001600160a01b031690816001600160a01b0316815250508289898151811061208b5761208b61300d565b6020908102919091010152876120a081613256565b9850505b50505080806120b290613256565b915050611f5f565b505050806120c790613256565b9050611f13565b50806001600160401b038111156120e7576120e76128cb565b604051908082528060200260200182016040528015612110578160200160208202803683370190505b509650806001600160401b0381111561212b5761212b6128cb565b604051908082528060200260200182016040528015612154578160200160208202803683370190505b50955060005b818110156121f7578381815181106121745761217461300d565b602002602001015188828151811061218e5761218e61300d565b60200260200101906001600160a01b031690816001600160a01b0316815250508281815181106121c0576121c061300d565b60200260200101518782815181106121da576121da61300d565b6020908102919091010152806121ef81613256565b91505061215a565b505050505050965096945050505050565b60608082518451146040518060400160405280600d81526020016c54532d3139206c656e6774687360981b815250906122545760405162461bcd60e51b81526004016106ce9190613070565b508351600090815b818110156122a5578581815181106122765761227661300d565b6020026020010151600014612293578261228f81613256565b9350505b8061229d81613256565b91505061225c565b50816001600160401b038111156122be576122be6128cb565b6040519080825280602002602001820160405280156122e7578160200160208202803683370190505b509350816001600160401b03811115612302576123026128cb565b60405190808252806020026020018201604052801561232b578160200160208202803683370190505b5092506000805b828110156123eb57600087828151811061234e5761234e61300d565b60200260200101519050806000146123d8578882815181106123725761237261300d565b602002602001015187848151811061238c5761238c61300d565b60200260200101906001600160a01b031690816001600160a01b031681525050808684815181106123bf576123bf61300d565b6020908102919091010152826123d481613256565b9350505b50806123e381613256565b915050612332565b505050509250929050565b600061244b826040518060400160405280602081526020017f5361666545524332303a206c6f772d6c6576656c2063616c6c206661696c6564815250856001600160a01b031661273f9092919063ffffffff16565b8051909150156116e55780806020019051810190612469919061326f565b6116e55760405162461bcd60e51b815260206004820152602a60248201527f5361666545524332303a204552433230206f7065726174696f6e20646964206e6044820152691bdd081cdd58d8d9595960b21b60648201526084016106ce565b606080826001600160401b038111156124e3576124e36128cb565b60405190808252806020026020018201604052801561250c578160200160208202803683370190505b509150826001600160401b03811115612527576125276128cb565b604051908082528060200260200182016040528015612550578160200160208202803683370190505b50905060005b838110156126ad578481815181106125705761257061300d565b60200260200101516001600160a01b031663313ce5676040518163ffffffff1660e01b8152600401602060405180830381865afa1580156125b5573d6000803e3d6000fd5b505050506040513d601f19601f820116820180604052508101906125d99190613291565b6125e490600a613398565b8282815181106125f6576125f661300d565b602002602001018181525050856001600160a01b031663b3596f078683815181106126235761262361300d565b60200260200101516040518263ffffffff1660e01b81526004016126479190612fe0565b602060405180830381865afa158015612664573d6000803e3d6000fd5b505050506040513d601f19601f820116820180604052508101906126889190612ff4565b83828151811061269a5761269a61300d565b6020908102919091010152600101612556565b50935093915050565b82606001515160000361270c5782516001600160401b038111156126dc576126dc6128cb565b604051908082528060200260200182016040528015612705578160200160208202803683370190505b5060608401525b80836060015183815181106127235761272361300d565b602002602001018181516127379190613039565b905250505050565b6060610a5f848460008585600080866001600160a01b0316858760405161276691906133a7565b60006040518083038185875af1925050503d80600081146127a3576040519150601f19603f3d011682016040523d82523d6000602084013e6127a8565b606091505b50915091506127b9878383876127c4565b979650505050505050565b6060831561283357825160000361282c576001600160a01b0385163b61282c5760405162461bcd60e51b815260206004820152601d60248201527f416464726573733a2063616c6c20746f206e6f6e2d636f6e747261637400000060448201526064016106ce565b5081610a5f565b610a5f83838151156128485781518083602001fd5b8060405162461bcd60e51b81526004016106ce9190613070565b6001600160a01b038116811461287757600080fd5b50565b60008060006060848603121561288f57600080fd5b833561289a81612862565b925060208401356128aa81612862565b929592945050506040919091013590565b80356128c681612862565b919050565b634e487b7160e01b600052604160045260246000fd5b604051601f8201601f191681016001600160401b0381118282101715612909576129096128cb565b604052919050565b60006001600160401b0382111561292a5761292a6128cb565b5060051b60200190565b600082601f83011261294557600080fd5b8135602061295a61295583612911565b6128e1565b82815260059290921b8401810191818101908684111561297957600080fd5b8286015b8481101561299d57803561299081612862565b835291830191830161297d565b509695505050505050565b600082601f8301126129b957600080fd5b813560206129c961295583612911565b82815260059290921b840181019181810190868411156129e857600080fd5b8286015b8481101561299d57803583529183019183016129ec565b60008060008060808587031215612a1957600080fd5b8435612a2481612862565b935060208501356001600160401b0380821115612a4057600080fd5b612a4c88838901612934565b9450604087013593506060870135915080821115612a6957600080fd5b50612a76878288016129a8565b91505092959194509250565b600081518084526020808501945080840160005b83811015612ab257815187529582019590820190600101612a96565b509495945050505050565b6020815260006104576020830184612a82565b60008060408385031215612ae357600080fd5b8235612aee81612862565b91506020830135612afe81612862565b809150509250929050565b600080600080600080600080610100898b031215612b2657600080fd5b612b2f896128bb565b975060208901356001600160401b0380821115612b4b57600080fd5b612b578c838d01612934565b985060408b0135975060608b0135915080821115612b7457600080fd5b612b808c838d016129a8565b965060808b0135955060a08b0135945060c08b0135915080821115612ba457600080fd5b612bb08c838d016129a8565b935060e08b0135915080821115612bc657600080fd5b50612bd38b828c016129a8565b9150509295985092959890939650565b604081526000612bf66040830185612a82565b82810360208401526103d78185612a82565b60008060408385031215612c1b57600080fd5b82356001600160401b03811115612c3157600080fd5b612c3d85828601612934565b95602094909401359450505050565b60008060008060808587031215612c6257600080fd5b8435612c6d81612862565b9350602085013592506040850135612c8481612862565b9396929550929360600135925050565b600080600080600060c08688031215612cac57600080fd5b8535612cb781612862565b9450602086013593506040860135612cce81612862565b92506060860135612cde81612862565b915060c08601871015612cf057600080fd5b5092959194509260800190565b828152604060208201526000610a5f6040830184612a82565b60008060008060808587031215612d2c57600080fd5b84356001600160401b0380821115612d4357600080fd5b612d4f88838901612934565b95506020870135915080821115612d6557600080fd5b50612d72878288016129a8565b935050604085013591506060850135612d8a81612862565b939692955090935050565b60008060408385031215612da857600080fd5b8235612db381612862565b946020939093013593505050565b600080600060608486031215612dd657600080fd5b8335612de181612862565b92506020840135612df181612862565b91506040840135612e0181612862565b809150509250925092565b600080600060608486031215612e2157600080fd5b505081359360208301359350604090920135919050565b600080600080600060a08688031215612e5057600080fd5b8535612e5b81612862565b945060208601356001600160401b0380821115612e7757600080fd5b612e8389838a01612934565b95506040880135915080821115612e9957600080fd5b612ea589838a01612934565b94506060880135915080821115612ebb57600080fd5b612ec789838a016129a8565b93506080880135915080821115612edd57600080fd5b50612eea888289016129a8565b9150509295509295909350565b604080825283519082018190526000906020906060840190828701845b82811015612f395781516001600160a01b031684529284019290840190600101612f14565b50505083810382850152612f4d8186612a82565b9695505050505050565b600080600080600080600060e0888a031215612f7257600080fd5b873596506020880135612f8481612862565b955060408801356001600160401b03811115612f9f57600080fd5b612fab8a828b01612934565b955050606088013593506080880135612fc381612862565b9699959850939692959460a0840135945060c09093013592915050565b6001600160a01b0391909116815260200190565b60006020828403121561300657600080fd5b5051919050565b634e487b7160e01b600052603260045260246000fd5b634e487b7160e01b600052601160045260246000fd5b8082018082111561045a5761045a613023565b60005b8381101561306757818101518382015260200161304f565b50506000910152565b602081526000825180602084015261308f81604085016020870161304c565b601f01601f19169190910160400192915050565b808202811582820484141761045a5761045a613023565b6000826130d757634e487b7160e01b600052601260045260246000fd5b500490565b6000602082840312156130ee57600080fd5b81516130f981612862565b9392505050565b8181038181111561045a5761045a613023565b600082601f83011261312457600080fd5b8151602061313461295583612911565b82815260059290921b8401810191818101908684111561315357600080fd5b8286015b8481101561299d5780518352918301918301613157565b6000806040838503121561318157600080fd5b82516001600160401b038082111561319857600080fd5b818501915085601f8301126131ac57600080fd5b815160206131bc61295583612911565b82815260059290921b840181019181810190898411156131db57600080fd5b948201945b838610156132025785516131f381612862565b825294820194908201906131e0565b9188015191965090935050508082111561321b57600080fd5b5061322885828601613113565b9150509250929050565b6000806040838503121561324557600080fd5b505080516020909101519092909150565b60006001820161326857613268613023565b5060010190565b60006020828403121561328157600080fd5b815180151581146130f957600080fd5b6000602082840312156132a357600080fd5b815160ff811681146130f957600080fd5b600181815b808511156132ef5781600019048211156132d5576132d5613023565b808516156132e257918102915b93841c93908002906132b9565b509250929050565b6000826133065750600161045a565b816133135750600061045a565b816001811461332957600281146133335761334f565b600191505061045a565b60ff84111561334457613344613023565b50506001821b61045a565b5060208310610133831016604e8410600b8410161715613372575081810a61045a565b61337c83836132b4565b806000190482111561339057613390613023565b029392505050565b600061045760ff8416836132f7565b600082516133b981846020870161304c565b919091019291505056fea2646970667358221220b8de1297b81fac205217156da1266c85c0ed80777ff8b379a27c4e58219d0ecc64736f6c63430008110033",
  "deployedBytecode": "0x73000000000000000000000000000000000000000030146080604052600436106100ef5760003560e01c8063aac2718a116100a1578063d5ade5c111610070578063d5ade5c114610256578063e24a7eb214610269578063e99de4da14610289578063ec0cc4fd146102b757600080fd5b8063aac2718a146101b3578063ac2a37d6146101e8578063c9bce69014610216578063d2c3cf251461023657600080fd5b806309d28c57146100f4578063142395ef146101105780631997c9ee146100f45780636138ea85146101325780637a55caf31461015f5780637a9a23e51461017257806397783a6c146101a0575b600080fd5b6100fd6101f481565b6040519081526020015b60405180910390f35b81801561011c57600080fd5b5061013061012b36600461287a565b6102d7565b005b81801561013e57600080fd5b5061015261014d366004612a03565b610386565b6040516101079190612abd565b6100fd61016d366004612ad0565b6103e0565b81801561017e57600080fd5b5061019261018d366004612b09565b610460565b604051610107929190612be3565b6101526101ae366004612c08565b6104ed565b8180156101bf57600080fd5b506101d36101ce366004612c4c565b610600565b60408051928352602083019190915201610107565b8180156101f457600080fd5b50610208610203366004612c94565b61084b565b604051610107929190612cfd565b81801561022257600080fd5b506100fd610231366004612d16565b610a51565b81801561024257600080fd5b50610130610251366004612d95565b610a67565b6101d3610264366004612dc1565b610b53565b81801561027557600080fd5b506100fd610284366004612e0c565b610c4c565b81801561029557600080fd5b506102a96102a4366004612e38565b610dee565b604051610107929190612ef7565b8180156102c357600080fd5b506102086102d2366004612f57565b61101a565b60405163124fdbb760e21b815273__$ec217c54da363a68ad871e6868efec481c$__9063493f6edc9061030e908690600401612fe0565b60006040518083038186803b15801561032657600080fd5b505af415801561033a573d6000803e3d6000fd5b5050604080516001600160a01b0386168152602081018590527f297f3fbc14027d2b4a4f7dac3dff2ad6b386024299045b0e163f131bb24b611d935001905060405180910390a1505050565b60606103d784848787516001600160401b038111156103a7576103a76128cb565b6040519080825280602002602001820160405280156103d0578160200160208202803683370190505b50866112d4565b95945050505050565b60006103eb836114b1565b6001600160a01b031663b3596f07836040518263ffffffff1660e01b81526004016104169190612fe0565b602060405180830381865afa158015610433573d6000803e3d6000fd5b505050506040513d601f19601f820116820180604052508101906104579190612ff4565b90505b92915050565b6060806000610470888888611576565b905061047f8a8a8d84896112d4565b8a5190935060005b818110156104da578581815181106104a1576104a161300d565b60200260200101518782815181106104bb576104bb61300d565b602002602001018181516104cf9190613039565b905250600101610487565b5085925050509850989650505050505050565b81516060906000816001600160401b0381111561050c5761050c6128cb565b604051908082528060200260200182016040528015610535578160200160208202803683370190505b50905060005b828110156105f7578085146105ef5785818151811061055c5761055c61300d565b60200260200101516001600160a01b03166370a08231306040518263ffffffff1660e01b815260040161058f9190612fe0565b602060405180830381865afa1580156105ac573d6000803e3d6000fd5b505050506040513d601f19601f820116820180604052508101906105d09190612ff4565b8282815181106105e2576105e261300d565b6020026020010181815250505b60010161053b565b50949350505050565b6000806000866001600160a01b03166370a08231306040518263ffffffff1660e01b81526004016106319190612fe0565b602060405180830381865afa15801561064e573d6000803e3d6000fd5b505050506040513d601f19601f820116820180604052508101906106729190612ff4565b90506000610680878361167d565b905080156107d45760408051808201909152601181527054532d35207a65726f2062616c616e636560781b6020820152856106d75760405162461bcd60e51b81526004016106ce9190613070565b60405180910390fd5b506106fb81620186a06106ec886101f46130a3565b6106f691906130ba565b61167d565b90506107d4866001600160a01b031663fbfa77cf6040518163ffffffff1660e01b8152600401602060405180830381865afa15801561073e573d6000803e3d6000fd5b505050506040513d601f19601f8201168201806040525081019061076291906130dc565b6001600160a01b03166389cf32046040518163ffffffff1660e01b8152600401602060405180830381865afa15801561079f573d6000803e3d6000fd5b505050506040513d601f19601f820116820180604052508101906107c391906130dc565b6001600160a01b038a169083611693565b8093508087116107e55760006107ef565b6107ef8188613100565b92508215610840576040805185815260208101859052908101839052606081018690527f9f5451334f175461ca51eecfd14a2735a1b60706d05d76168e6fed6f597eb5bb9060800160405180910390a15b505094509492505050565b604080516002808252606080830184526000939092919060208301908036833701905050905061087a856116ea565b8160008151811061088d5761088d61300d565b6020026020010181815250506108a2846116ea565b816001815181106108b5576108b561300d565b60209081029190910101526040805160028082526060820190925260009181602001602082028036833701905050905085816000815181106108f9576108f961300d565b60200260200101906001600160a01b031690816001600160a01b031681525050848160018151811061092d5761092d61300d565b6001600160a01b039290921660209283029190910182015260408051600280825260608201835260009391929091830190803683370190505090508260008151811061097b5761097b61300d565b6020026020010151816000815181106109965761099661300d565b60200260200101818152505060006109b1838360008d61175a565b90508881106109c15760006109cb565b6109cb818a613100565b6109dc8760005b6020020135611c67565b856000815181106109ef576109ef61300d565b60200260200101511080610a265750610a098760016109d2565b85600181518110610a1c57610a1c61300d565b6020026020010151105b610a305784610a40565b6040805160008152602081019091525b945094505050509550959350505050565b60006103d78585858561175a565b949350505050565b60405163124fdbb760e21b815273__$ec217c54da363a68ad871e6868efec481c$__9063493f6edc90610a9e908590600401612fe0565b60006040518083038186803b158015610ab657600080fd5b505af4158015610aca573d6000803e3d6000fd5b50505050620186a08111156040518060400160405280600f81526020016e53423a2057726f6e672076616c756560881b81525090610b1b5760405162461bcd60e51b81526004016106ce9190613070565b506040518181527fe4166dfcf23bbd3e3f764a99dc8fa740554c03c82d6019b81cf265f396f6f2fe9060200160405180910390a15050565b6000806000610b61866114b1565b60405163b3596f0760e01b81529091506001600160a01b0382169063b3596f0790610b90908890600401612fe0565b602060405180830381865afa158015610bad573d6000803e3d6000fd5b505050506040513d601f19601f82011682018060405250810190610bd19190612ff4565b60405163b3596f0760e01b81529093506001600160a01b0382169063b3596f0790610c00908790600401612fe0565b602060405180830381865afa158015610c1d573d6000803e3d6000fd5b505050506040513d601f19601f82011682018060405250810190610c419190612ff4565b915050935093915050565b600080610c598585611c80565b90925090508015610dad5782546040516370a0823160e01b81526000918291610cee9185916001600160a01b03909116906370a0823190610c9e903090600401612fe0565b602060405180830381865afa158015610cbb573d6000803e3d6000fd5b505050506040513d601f19601f82011682018060405250810190610cdf9190612ff4565b610ce99089613039565b611cb0565b6001870154604051630855081f60e01b815260048101889052602481018490529294509092506001600160a01b031690630855081f90604401600060405180830381600087803b158015610d4157600080fd5b505af1158015610d55573d6000803e3d6000fd5b5050505080600014610daa576040805183815260208101839052908101889052606081018790527f79ebefb350a48e2a470929fdbef327f4d53ceaafdd43e30e288f0279aa70e5fd9060800160405180910390a15b50505b60408051868152602081018690527f3e60abe0a0e1f40e1cea1431e7b150cef698f6d8aa08b3d4e445d7a26bd93e2a910160405180910390a1509392505050565b606080600080886001600160a01b031663ef5cfb8c306040518263ffffffff1660e01b8152600401610e209190612fe0565b6000604051808303816000875af1158015610e3f573d6000803e3d6000fd5b505050506040513d6000823e601f3d908101601f19168201604052610e67919081019061316e565b91509150610ebb878784848c8d516001600160401b03811115610e8c57610e8c6128cb565b604051908082528060200260200182016040528015610eb5578160200160208202803683370190505b50611ce1565b8151919550935060005b81811015610ffe5760005b8a51811015610ff5578a8181518110610eeb57610eeb61300d565b60200260200101516001600160a01b0316878381518110610f0e57610f0e61300d565b60200260200101516001600160a01b031603610fed57878181518110610f3657610f3661300d565b60200260200101518b8281518110610f5057610f5061300d565b60200260200101516001600160a01b03166370a08231306040518263ffffffff1660e01b8152600401610f839190612fe0565b602060405180830381865afa158015610fa0573d6000803e3d6000fd5b505050506040513d601f19601f82011682018060405250810190610fc49190612ff4565b610fce9190613100565b868381518110610fe057610fe061300d565b6020026020010181815250505b600101610ed0565b50600101610ec5565b506110098585612208565b909b909a5098505050505050505050565b8451600090606090891590806001600160401b0381111561103d5761103d6128cb565b604051908082528060200260200182016040528015611066578160200160208202803683370190505b50925060005b818110156112355780891461122d5760008a828151811061108f5761108f61300d565b602002602001015190506000816001600160a01b03166370a08231306040518263ffffffff1660e01b81526004016110c79190612fe0565b602060405180830381865afa1580156110e4573d6000803e3d6000fd5b505050506040513d601f19601f820116820180604052508101906111089190612ff4565b9050801561122a5760008a6001600160a01b031663667df2498f8f8f815181106111345761113461300d565b60209081029190910101516040516001600160e01b031960e085901b1681526001600160a01b039283166004820152908216602482015290861660448201526064810185905260840160408051808303816000875af115801561119b573d6000803e3d6000fd5b505050506040513d601f19601f820116820180604052508101906111bf9190613232565b50905085806111cd57508e15155b156111f257818785815181106111e5576111e561300d565b6020026020010181815250505b808f1161120057600061120c565b808f61120c9190613100565b9e50808a1161121c576000611226565b611226818b613100565b9950505b50505b60010161106c565b5060008280611242575086155b611282578b1561127b576064876112628e680579a814e10a7400006130a3565b61126c91906130ba565b61127691906130ba565b61128c565b600061128c565b670de0b6b3a76400005b90508060000361129d5760006112c3565b6112c3670de0b6b3a76400006112b388846130a3565b6112bd91906130ba565b8761167d565b945050505097509795505050505050565b8451606090806001600160401b038111156112f1576112f16128cb565b60405190808252806020026020018201604052801561131a578160200160208202803683370190505b50915060005b818110156114a65786810361136c578481815181106113415761134161300d565b602002602001015183828151811061135b5761135b61300d565b60200260200101818152505061149e565b60008482815181106113805761138061300d565b602002602001015186838151811061139a5761139a61300d565b60200260200101516113ac9190613039565b9050801561149c57866001600160a01b031663667df249308b8b815181106113d6576113d661300d565b60200260200101518c86815181106113f0576113f061300d565b60209081029190910101516040516001600160e01b031960e086901b1681526001600160a01b03938416600482015291831660248301529190911660448201526064810184905260840160408051808303816000875af1158015611458573d6000803e3d6000fd5b505050506040513d601f19601f8201168201806040525081019061147c9190613232565b5084838151811061148f5761148f61300d565b6020026020010181815250505b505b600101611320565b505095945050505050565b6000816001600160a01b031663f77c47916040518163ffffffff1660e01b8152600401602060405180830381865afa1580156114f1573d6000803e3d6000fd5b505050506040513d601f19601f8201168201806040525081019061151591906130dc565b6001600160a01b0316632630c12f6040518163ffffffff1660e01b8152600401602060405180830381865afa158015611552573d6000803e3d6000fd5b505050506040513d601f19601f8201168201806040525081019061045a91906130dc565b6060600082156115b857828410156115aa578261159b85670de0b6b3a76400006130a3565b6115a591906130ba565b6115bb565b670de0b6b3a76400006115bb565b60005b8551909150806001600160401b038111156115d8576115d86128cb565b604051908082528060200260200182016040528015611601578160200160208202803683370190505b50925081156116745760005b8181101561167257670de0b6b3a7640000838883815181106116315761163161300d565b602002602001015161164391906130a3565b61164d91906130ba565b84828151811061165f5761165f61300d565b602090810291909101015260010161160d565b505b50509392505050565b600081831061168c5781610457565b5090919050565b604080516001600160a01b038416602482015260448082018490528251808303909101815260649091019091526020810180516001600160e01b031663a9059cbb60e01b1790526116e59084906123f6565b505050565b6040516370a0823160e01b81526000906001600160a01b038316906370a0823190611719903090600401612fe0565b602060405180830381865afa158015611736573d6000803e3d6000fd5b505050506040513d601f19601f8201168201806040525081019061045a9190612ff4565b60006117a76040518060c001604052806000815260200160608152602001606081526020016060815260200160006001600160a01b0316815260200160006001600160a01b031681525090565b8551815285518690859081106117bf576117bf61300d565b60209081029190910101516001600160a01b031660808201526117ed6117e4846114b1565b825188906124c8565b6040830152602082015260005b8151811015611b33578481036118365785818151811061181c5761181c61300d565b60200260200101518361182f9190613039565b9250611b2b565b8681815181106118485761184861300d565b60209081029190910101516001600160a01b0390811660a08401819052608084015160405163dd27ede760e01b81523060048201526024810192909252821660448201526000606482018190529182919087169063dd27ede79060840160408051808303816000875af11580156118c3573d6000803e3d6000fd5b505050506040513d601f19601f820116820180604052508101906118e79190613232565b9150915081851015611903576118fe8488846126b6565b611910565b61190d8286613100565b94505b60008884815181106119245761192461300d565b60200260200101518560a001516001600160a01b03166370a08231306040518263ffffffff1660e01b815260040161195c9190612fe0565b602060405180830381865afa158015611979573d6000803e3d6000fd5b505050506040513d601f19601f8201168201806040525081019061199d9190612ff4565b6119a79084613039565b6119b19190613039565b608086015160a087015160405163dd27ede760e01b81523060048201526001600160a01b03928316602482015290821660448201526000606482015291925088169063dd27ede79060840160408051808303816000875af1158015611a1a573d6000803e3d6000fd5b505050506040513d601f19601f82011682018060405250810190611a3e9190613232565b9093509150611a4d8287613039565b9550828110611b135784604001518481518110611a6c57611a6c61300d565b602002602001015185602001518981518110611a8a57611a8a61300d565b602002602001015186604001518a81518110611aa857611aa861300d565b602002602001015187602001518781518110611ac657611ac661300d565b60200260200101518685611ada9190613100565b611ae491906130a3565b611aee91906130a3565b611af891906130ba565b611b0291906130ba565b611b0c9087613039565b9550611b27565b611b278585611b228487613100565b6126b6565b5050505b6001016117fa565b508051606082015151036105f75760005b8151811015611c5d5781606001518181518110611b6357611b6361300d565b602002602001015160000315611c5557600082604001518281518110611b8b57611b8b61300d565b602002602001015183602001518781518110611ba957611ba961300d565b602002602001015184604001518881518110611bc757611bc761300d565b602002602001015185602001518581518110611be557611be561300d565b602002602001015186606001518681518110611c0357611c0361300d565b6020026020010151611c1591906130a3565b611c1f91906130a3565b611c2991906130ba565b611c3391906130ba565b905083811115611c465760009350611c53565b611c508185613100565b93505b505b600101611b44565b5050949350505050565b6000620186a08211611c7c57620186a061045a565b5090565b60008083831115611c9c57611c958484613100565b9150611ca9565b611ca68385613100565b90505b9250929050565b600080611cc784620186a06106ec866101f46130a3565b9150818411611cd7576000611ca6565b611ca68285613100565b604080516003808252608082019092526060918291600091602082018480368337019050509050885181600081518110611d1d57611d1d61300d565b602002602001018181525050865181600181518110611d3e57611d3e61300d565b602002602001018181525050845181600281518110611d5f57611d5f61300d565b602002602001018181525050875181600081518110611d8057611d8061300d565b6020026020010151148015611daf5750855181600181518110611da557611da561300d565b6020026020010151145b8015611dd55750835181600281518110611dcb57611dcb61300d565b6020026020010151145b6040518060400160405280600d81526020016c54532d3139206c656e6774687360981b81525090611e195760405162461bcd60e51b81526004016106ce9190613070565b50600081600281518110611e2f57611e2f61300d565b602002602001015182600181518110611e4a57611e4a61300d565b602002602001015183600081518110611e6557611e6561300d565b6020026020010151611e779190613039565b611e819190613039565b90506000816001600160401b03811115611e9d57611e9d6128cb565b604051908082528060200260200182016040528015611ec6578160200160208202803683370190505b5090506000826001600160401b03811115611ee357611ee36128cb565b604051908082528060200260200182016040528015611f0c578160200160208202803683370190505b5090506000805b60038110156120ce5760008115611f385781600114611f325789611f3a565b8b611f3a565b8d5b905060008215611f585782600114611f52578b611f5a565b8d611f5a565b8f5b905060005b888481518110611f7157611f7161300d565b60200260200101518110156120ba576000838281518110611f9457611f9461300d565b602002602001015190506000838381518110611fb257611fb261300d565b602002602001015190506000805b8881101561203f578a8181518110611fda57611fda61300d565b60200260200101516001600160a01b0316836001600160a01b03160361202d57838a828151811061200d5761200d61300d565b602002602001018181516120219190613039565b9052506001915061203f565b8061203781613256565b915050611fc0565b50806120a457818a89815181106120585761205861300d565b60200260200101906001600160a01b031690816001600160a01b0316815250508289898151811061208b5761208b61300d565b6020908102919091010152876120a081613256565b9850505b50505080806120b290613256565b915050611f5f565b505050806120c790613256565b9050611f13565b50806001600160401b038111156120e7576120e76128cb565b604051908082528060200260200182016040528015612110578160200160208202803683370190505b509650806001600160401b0381111561212b5761212b6128cb565b604051908082528060200260200182016040528015612154578160200160208202803683370190505b50955060005b818110156121f7578381815181106121745761217461300d565b602002602001015188828151811061218e5761218e61300d565b60200260200101906001600160a01b031690816001600160a01b0316815250508281815181106121c0576121c061300d565b60200260200101518782815181106121da576121da61300d565b6020908102919091010152806121ef81613256565b91505061215a565b505050505050965096945050505050565b60608082518451146040518060400160405280600d81526020016c54532d3139206c656e6774687360981b815250906122545760405162461bcd60e51b81526004016106ce9190613070565b508351600090815b818110156122a5578581815181106122765761227661300d565b6020026020010151600014612293578261228f81613256565b9350505b8061229d81613256565b91505061225c565b50816001600160401b038111156122be576122be6128cb565b6040519080825280602002602001820160405280156122e7578160200160208202803683370190505b509350816001600160401b03811115612302576123026128cb565b60405190808252806020026020018201604052801561232b578160200160208202803683370190505b5092506000805b828110156123eb57600087828151811061234e5761234e61300d565b60200260200101519050806000146123d8578882815181106123725761237261300d565b602002602001015187848151811061238c5761238c61300d565b60200260200101906001600160a01b031690816001600160a01b031681525050808684815181106123bf576123bf61300d565b6020908102919091010152826123d481613256565b9350505b50806123e381613256565b915050612332565b505050509250929050565b600061244b826040518060400160405280602081526020017f5361666545524332303a206c6f772d6c6576656c2063616c6c206661696c6564815250856001600160a01b031661273f9092919063ffffffff16565b8051909150156116e55780806020019051810190612469919061326f565b6116e55760405162461bcd60e51b815260206004820152602a60248201527f5361666545524332303a204552433230206f7065726174696f6e20646964206e6044820152691bdd081cdd58d8d9595960b21b60648201526084016106ce565b606080826001600160401b038111156124e3576124e36128cb565b60405190808252806020026020018201604052801561250c578160200160208202803683370190505b509150826001600160401b03811115612527576125276128cb565b604051908082528060200260200182016040528015612550578160200160208202803683370190505b50905060005b838110156126ad578481815181106125705761257061300d565b60200260200101516001600160a01b031663313ce5676040518163ffffffff1660e01b8152600401602060405180830381865afa1580156125b5573d6000803e3d6000fd5b505050506040513d601f19601f820116820180604052508101906125d99190613291565b6125e490600a613398565b8282815181106125f6576125f661300d565b602002602001018181525050856001600160a01b031663b3596f078683815181106126235761262361300d565b60200260200101516040518263ffffffff1660e01b81526004016126479190612fe0565b602060405180830381865afa158015612664573d6000803e3d6000fd5b505050506040513d601f19601f820116820180604052508101906126889190612ff4565b83828151811061269a5761269a61300d565b6020908102919091010152600101612556565b50935093915050565b82606001515160000361270c5782516001600160401b038111156126dc576126dc6128cb565b604051908082528060200260200182016040528015612705578160200160208202803683370190505b5060608401525b80836060015183815181106127235761272361300d565b602002602001018181516127379190613039565b905250505050565b6060610a5f848460008585600080866001600160a01b0316858760405161276691906133a7565b60006040518083038185875af1925050503d80600081146127a3576040519150601f19603f3d011682016040523d82523d6000602084013e6127a8565b606091505b50915091506127b9878383876127c4565b979650505050505050565b6060831561283357825160000361282c576001600160a01b0385163b61282c5760405162461bcd60e51b815260206004820152601d60248201527f416464726573733a2063616c6c20746f206e6f6e2d636f6e747261637400000060448201526064016106ce565b5081610a5f565b610a5f83838151156128485781518083602001fd5b8060405162461bcd60e51b81526004016106ce9190613070565b6001600160a01b038116811461287757600080fd5b50565b60008060006060848603121561288f57600080fd5b833561289a81612862565b925060208401356128aa81612862565b929592945050506040919091013590565b80356128c681612862565b919050565b634e487b7160e01b600052604160045260246000fd5b604051601f8201601f191681016001600160401b0381118282101715612909576129096128cb565b604052919050565b60006001600160401b0382111561292a5761292a6128cb565b5060051b60200190565b600082601f83011261294557600080fd5b8135602061295a61295583612911565b6128e1565b82815260059290921b8401810191818101908684111561297957600080fd5b8286015b8481101561299d57803561299081612862565b835291830191830161297d565b509695505050505050565b600082601f8301126129b957600080fd5b813560206129c961295583612911565b82815260059290921b840181019181810190868411156129e857600080fd5b8286015b8481101561299d57803583529183019183016129ec565b60008060008060808587031215612a1957600080fd5b8435612a2481612862565b935060208501356001600160401b0380821115612a4057600080fd5b612a4c88838901612934565b9450604087013593506060870135915080821115612a6957600080fd5b50612a76878288016129a8565b91505092959194509250565b600081518084526020808501945080840160005b83811015612ab257815187529582019590820190600101612a96565b509495945050505050565b6020815260006104576020830184612a82565b60008060408385031215612ae357600080fd5b8235612aee81612862565b91506020830135612afe81612862565b809150509250929050565b600080600080600080600080610100898b031215612b2657600080fd5b612b2f896128bb565b975060208901356001600160401b0380821115612b4b57600080fd5b612b578c838d01612934565b985060408b0135975060608b0135915080821115612b7457600080fd5b612b808c838d016129a8565b965060808b0135955060a08b0135945060c08b0135915080821115612ba457600080fd5b612bb08c838d016129a8565b935060e08b0135915080821115612bc657600080fd5b50612bd38b828c016129a8565b9150509295985092959890939650565b604081526000612bf66040830185612a82565b82810360208401526103d78185612a82565b60008060408385031215612c1b57600080fd5b82356001600160401b03811115612c3157600080fd5b612c3d85828601612934565b95602094909401359450505050565b60008060008060808587031215612c6257600080fd5b8435612c6d81612862565b9350602085013592506040850135612c8481612862565b9396929550929360600135925050565b600080600080600060c08688031215612cac57600080fd5b8535612cb781612862565b9450602086013593506040860135612cce81612862565b92506060860135612cde81612862565b915060c08601871015612cf057600080fd5b5092959194509260800190565b828152604060208201526000610a5f6040830184612a82565b60008060008060808587031215612d2c57600080fd5b84356001600160401b0380821115612d4357600080fd5b612d4f88838901612934565b95506020870135915080821115612d6557600080fd5b50612d72878288016129a8565b935050604085013591506060850135612d8a81612862565b939692955090935050565b60008060408385031215612da857600080fd5b8235612db381612862565b946020939093013593505050565b600080600060608486031215612dd657600080fd5b8335612de181612862565b92506020840135612df181612862565b91506040840135612e0181612862565b809150509250925092565b600080600060608486031215612e2157600080fd5b505081359360208301359350604090920135919050565b600080600080600060a08688031215612e5057600080fd5b8535612e5b81612862565b945060208601356001600160401b0380821115612e7757600080fd5b612e8389838a01612934565b95506040880135915080821115612e9957600080fd5b612ea589838a01612934565b94506060880135915080821115612ebb57600080fd5b612ec789838a016129a8565b93506080880135915080821115612edd57600080fd5b50612eea888289016129a8565b9150509295509295909350565b604080825283519082018190526000906020906060840190828701845b82811015612f395781516001600160a01b031684529284019290840190600101612f14565b50505083810382850152612f4d8186612a82565b9695505050505050565b600080600080600080600060e0888a031215612f7257600080fd5b873596506020880135612f8481612862565b955060408801356001600160401b03811115612f9f57600080fd5b612fab8a828b01612934565b955050606088013593506080880135612fc381612862565b9699959850939692959460a0840135945060c09093013592915050565b6001600160a01b0391909116815260200190565b60006020828403121561300657600080fd5b5051919050565b634e487b7160e01b600052603260045260246000fd5b634e487b7160e01b600052601160045260246000fd5b8082018082111561045a5761045a613023565b60005b8381101561306757818101518382015260200161304f565b50506000910152565b602081526000825180602084015261308f81604085016020870161304c565b601f01601f19169190910160400192915050565b808202811582820484141761045a5761045a613023565b6000826130d757634e487b7160e01b600052601260045260246000fd5b500490565b6000602082840312156130ee57600080fd5b81516130f981612862565b9392505050565b8181038181111561045a5761045a613023565b600082601f83011261312457600080fd5b8151602061313461295583612911565b82815260059290921b8401810191818101908684111561315357600080fd5b8286015b8481101561299d5780518352918301918301613157565b6000806040838503121561318157600080fd5b82516001600160401b038082111561319857600080fd5b818501915085601f8301126131ac57600080fd5b815160206131bc61295583612911565b82815260059290921b840181019181810190898411156131db57600080fd5b948201945b838610156132025785516131f381612862565b825294820194908201906131e0565b9188015191965090935050508082111561321b57600080fd5b5061322885828601613113565b9150509250929050565b6000806040838503121561324557600080fd5b505080516020909101519092909150565b60006001820161326857613268613023565b5060010190565b60006020828403121561328157600080fd5b815180151581146130f957600080fd5b6000602082840312156132a357600080fd5b815160ff811681146130f957600080fd5b600181815b808511156132ef5781600019048211156132d5576132d5613023565b808516156132e257918102915b93841c93908002906132b9565b509250929050565b6000826133065750600161045a565b816133135750600061045a565b816001811461332957600281146133335761334f565b600191505061045a565b60ff84111561334457613344613023565b50506001821b61045a565b5060208310610133831016604e8410600b8410161715613372575081810a61045a565b61337c83836132b4565b806000190482111561339057613390613023565b029392505050565b600061045760ff8416836132f7565b600082516133b981846020870161304c565b919091019291505056fea2646970667358221220b8de1297b81fac205217156da1266c85c0ed80777ff8b379a27c4e58219d0ecc64736f6c63430008110033",
  "libraries": {
    "StrategyLib": "0x3BEB969c0cd273eA1d7a39137a757Cf1c474510a"
  },
  "devdoc": {
    "kind": "dev",
    "methods": {
      "calcInvestedAssets(address[],uint256[],uint256,ITetuConverter)": {
        "details": "This is writable function because we need to update current balances in the internal protocols.",
        "params": {
          "indexAsset": "Index of the underlying (main asset) in {tokens}"
        },
        "returns": {
          "amountOut": "Invested asset amount under control (in terms of underlying)"
        }
      },
      "claimConverterRewards(ITetuConverter,address[],address[],uint256[],uint256[])": {
        "details": "The post-processing is rewards conversion to the main asset",
        "params": {
          "amountsOut": "Amounts of available rewards",
          "rewardTokens_": "Amounts of rewards claimed from the internal pool",
          "tokensOut": "List of available rewards - not zero amounts, reward tokens don't repeat",
          "tokens_": "tokens received from {_depositorPoolAssets}"
        }
      },
      "getLiquidityAmount(uint256,address,address[],uint256,ITetuConverter,uint256,uint256)": {
        "details": "This is a writable function with read-only behavior (because of the quote-call)",
        "params": {
          "strategy_": "Address of the strategy",
          "targetAmount_": "Required amount of main asset to be withdrawn from the strategy; 0 - withdraw all"
        },
        "returns": {
          "amountsToConvertOut": "Amounts of {tokens} that should be converted to the main asset",
          "resultAmount": "Amount of liquidity that should be withdrawn from the pool, cannot exceed depositorLiquidity"
        }
      },
      "getTokenAmountsPair(ITetuConverter,uint256,address,address,uint256[2])": {
        "params": {
          "liquidationThresholdsAB": "[liquidityThreshold of token A, liquidityThreshold of tokenB]"
        },
        "returns": {
          "loss": "New total assets - old total assets",
          "tokenAmounts": "Balances of the token A and token B.                     If any balance is zero it's not possible to enter to the pool, so return empty array (len 0)"
        }
      },
      "postWithdrawActions(ITetuConverter,address[],uint256,uint256[],uint256,uint256,uint256[],uint256[])": {
        "params": {
          "amountsToConvert": "Amounts of {tokens} to be converted, they are located on the balance before withdraw",
          "withdrawnAmounts": "Amounts of {tokens} that were withdrew from the pool"
        }
      },
      "sendToInsurance(address,uint256,address,uint256)": {
        "params": {
          "totalAssets_": "Total strategy balance = balance of underlying + current invested assets amount"
        },
        "returns": {
          "sentAmount": "Amount of underlying sent to the insurance",
          "unsentAmount": "Missed part of the {amount} that were not sent to the insurance"
        }
      }
    },
    "stateVariables": {
      "HARDWORK_LOSS_TOLERANCE": {
        "details": "0.5% of max loss for strategy TVL"
      },
      "PRICE_CHANGE_PROFIT_TOLERANCE": {
        "details": "0.5% of max profit for strategy TVL"
      }
    },
    "version": 1
  },
  "userdoc": {
    "events": {
      "UncoveredLoss(uint256,uint256,uint256,uint256)": {
        "notice": "Compensation of losses is not carried out completely"
      },
      "UnsentAmountToInsurance(uint256,uint256,uint256,uint256)": {
        "notice": "Payment to insurance was carried out only partially"
      }
    },
    "kind": "user",
    "methods": {
      "HARDWORK_LOSS_TOLERANCE()": {
        "notice": "Same value as StrategySplitterV2.HARDWORK_LOSS_TOLERANCE"
      },
      "PRICE_CHANGE_PROFIT_TOLERANCE()": {
        "notice": "Limit max amount of profit that can be send to insurance after price changing"
      },
      "calcInvestedAssets(address[],uint256[],uint256,ITetuConverter)": {
        "notice": "Calculate amount we will receive when we withdraw all from pool"
      },
      "claimConverterRewards(ITetuConverter,address[],address[],uint256[],uint256[])": {
        "notice": "Claim rewards from tetuConverter, generate result list of all available rewards and airdrops"
      },
      "coverLossAfterPriceChanging(uint256,uint256,IStrategyV3.BaseState storage)": {
        "notice": "Register income and cover possible loss after price changing, emit FixPriceChanges"
      },
      "getAvailableBalances(address[],uint256)": {
        "notice": "Get balances of the {tokens_} except balance of the token at {indexAsset} position"
      },
      "getLiquidityAmount(uint256,address,address[],uint256,ITetuConverter,uint256,uint256)": {
        "notice": "Calculate amount of liquidity that should be withdrawn from the pool to get {targetAmount_}               liquidityAmount = _depositorLiquidity() * {liquidityRatioOut} / 1e18         User needs to withdraw {targetAmount_} in main asset.         There are two kinds of available liquidity:         1) liquidity in the pool - {depositorLiquidity_}         2) Converted amounts on balance of the strategy - {baseAmounts_}         To withdraw {targetAmount_} we need         1) Reconvert converted amounts back to main asset         2) IF result amount is not necessary - withdraw some liquidity from the pool            and also convert it to the main asset."
      },
      "getOracleAssetsPrices(ITetuConverter,address,address)": {
        "notice": "Get prices of {tokenA} and {tokenB}"
      },
      "getTokenAmountsPair(ITetuConverter,uint256,address,address,uint256[2])": {
        "notice": "Calculate the token amounts for deposit and amount of loss (as old-total-asset - new-total-asset)"
      },
      "postWithdrawActions(ITetuConverter,address[],uint256,uint256[],uint256,uint256,uint256[],uint256[])": {
        "notice": "Add {withdrawnAmounts} to {amountsToConvert}, calculate {expectedAmountMainAsset}"
      },
      "postWithdrawActionsEmpty(ITetuConverter,address[],uint256,uint256[])": {
        "notice": "return {withdrawnAmounts} with zero values and expected amount calculated using {amountsToConvert_}"
      },
      "sendToInsurance(address,uint256,address,uint256)": {
        "notice": "Send given amount of underlying to the insurance"
      }
    },
    "notice": "Continuation of ConverterStrategyBaseLib (workaround for size limits)",
    "version": 1
  },
  "storageLayout": {
    "storage": [],
    "types": null
  }
}