{
  "address": "0x62Ba5e9f1d8EBf2828B16E81Fd237ec61baF4aF7",
  "abi": [
    {
      "inputs": [],
      "name": "PLAN_REPAY_SWAP_REPAY",
      "outputs": [
        {
          "internalType": "uint256",
          "name": "",
          "type": "uint256"
        }
      ],
      "stateMutability": "view",
      "type": "function"
    },
    {
      "inputs": [],
      "name": "PLAN_SWAP_ONLY",
      "outputs": [
        {
          "internalType": "uint256",
          "name": "",
          "type": "uint256"
        }
      ],
      "stateMutability": "view",
      "type": "function"
    },
    {
      "inputs": [],
      "name": "PLAN_SWAP_REPAY",
      "outputs": [
        {
          "internalType": "uint256",
          "name": "",
          "type": "uint256"
        }
      ],
      "stateMutability": "view",
      "type": "function"
    }
  ],
  "transactionHash": "0x11ca1090e71bae76b076003a9684cf4bbb55a89916b241800eefa3ccd5aa9ad8",
  "args": [],
  "numDeployments": 1,
  "solcInputHash": "536c58559ac86f8a9e19624958fb1c28",
  "bytecode": "0x6116bc61003a600b82828239805160001a60731461002d57634e487b7160e01b600052600060045260246000fd5b30600052607381538281f3fe73000000000000000000000000000000000000000030146080604052600436106100565760003560e01c80631b3c6d411461005b5780634091aebd146100765780636221aa71146100b1578063c153a359146100b9575b600080fd5b610063600081565b6040519081526020015b60405180910390f35b81801561008257600080fd5b506100966100913660046114c8565b6100c1565b6040805193845260208401929092529082015260600161006d565b610063600181565b610063600281565b60008060006101a96040518061014001604052808c6000600281106100e8576100e86115be565b60200201516001600160a01b031681526020018c60016002811061010e5761010e6115be565b60200201516001600160a01b031681526020018b81526020018a815260200189815260200188815260200187815260200186600160068110610152576101526115be565b602002015181526020018660026006811061016f5761016f6115be565b602002015181526020018660006006811061018c5761018c6115be565b6020020151151590526060860151608087015160a08801516101bc565b9250925092509750975097945050505050565b600080600061022460405180610120016040528060008152602001600081526020016000815260200160008152602001600081526020016000815260200160006001600160a01b0316815260200160006001600160a01b031681526020016000151581525090565b8760400151868151811061023a5761023a6115be565b60209081029190910101516001600160a01b031660c0820152604088015180518690811061026a5761026a6115be565b60209081029190910101516001600160a01b031660e082015260c088015180518790811061029a5761029a6115be565b602090810291909101015160c08201516040516370a0823160e01b81523060048201526001600160a01b03909116906370a0823190602401602060405180830381865afa1580156102ef573d6000803e3d6000fd5b505050506040513d601f19601f8201168201806040525081019061031391906115d4565b61031d9190611603565b815260c0880151805186908110610336576103366115be565b602002602001015188604001518681518110610354576103546115be565b60209081029190910101516040516370a0823160e01b81523060048201526001600160a01b03909116906370a0823190602401602060405180830381865afa1580156103a4573d6000803e3d6000fd5b505050506040513d601f19601f820116820180604052508101906103c891906115d4565b6103d29190611603565b602082015260e0880151600119016103f1576001610100820152610736565b6104178860600151878151811061040a5761040a6115be565b602002602001015161076d565b87101561042b576001610100820152610736565b875160e082015160c083015160405163dd27ede760e01b81523060048201526001600160a01b03928316602482015290821660448201526001606482015291169063dd27ede79060840160408051808303816000875af1158015610493573d6000803e3d6000fd5b505050506040513d601f19601f820116820180604052508101906104b79190611616565b60a083015260808201819052606411156105fb57875160c082015160e083015160405163dd27ede760e01b81523060048201526001600160a01b03928316602482015290821660448201526001606482015291169063dd27ede79060840160408051808303816000875af1158015610533573d6000803e3d6000fd5b505050506040513d601f19601f820116820180604052508101906105579190611616565b60608301526040820181905260641115610578576001610100820152610736565b60018860e00151036105db576105cf88604051806040016040528084600001518152602001846020015181525060405180604001604052808a8152602001898152508b61010001518560600151866040015161078a565b91955093509150610736565b6105cf8789836060015184604001518a8a87600001518860200151610912565b60018860e001510361065c576040805180820182526020808401518252835181830152825180840190935287835282018890526101008a01516105cf928b929161064d90670de0b6b3a764000061163a565b8560a00151866080015161078a565b61072e600019881461070e578860a00151878151811061067e5761067e6115be565b60200260200101518960800151878151811061069c5761069c6115be565b60200260200101518a60a0015188815181106106ba576106ba6115be565b60200260200101518b608001518a815181106106d8576106d86115be565b60200260200101518b6106eb919061164d565b6106f5919061164d565b6106ff9190611664565b6107099190611664565b610712565b6000195b898360a001518460800151898b87602001518860000151610912565b919550935091505b806101000151156107625761075c888260000151836020015189898d61010001516109dd565b90945092505b509450945094915050565b6000620186a0821161078257620186a0610784565b815b92915050565b60008080806107a0896001602002015186610a9e565b90506000606482106108b6578a600001516001600160a01b031663667df249308d604001518c6000600281106107d8576107d86115be565b6020020151815181106107ed576107ed6115be565b60200260200101518e604001518d60016002811061080d5761080d6115be565b602002015181518110610822576108226115be565b60209081029190910101516040516001600160e01b031960e086901b1681526001600160a01b03938416600482015291831660248301529190911660448201526064810185905260840160408051808303816000875af115801561088a573d6000803e3d6000fd5b505050506040513d601f19601f820116820180604052508101906108ae9190611616565b5090506108bb565b600091505b89516020808c01518b51918c01516108dc938f939092918d8d8d898b610ab6565b89519094506108ec906001611603565b60208a015185906108fe906001611603565b945094509450505096509650969350505050565b6000806000806109308c8a8c8e608001518f60a001518d8d8c610f3b565b9050801580159061094057508515155b156109bb5761094f8187610a9e565b9050600061096c8c606001518a8151811061040a5761040a6115be565b90508082111561098d578193508860016109869190611603565b94506109b9565b610998816001611603565b87106109b9576109a9816001611603565b93506109b6896001611603565b94505b505b83836109c8896001611603565b93509350935050985098509895505050505050565b6000806000806109fa8a608001518b60a001518b8b898c8c61110b565b9150915081891015610a4e57610a1f8a60600151878151811061040a5761040a6115be565b610a29828a61163a565b1115610a4957610a39818961163a565b9250610a46866001611603565b93505b610a91565b610a678a60600151888151811061040a5761040a6115be565b610a71838b61163a565b1115610a9157610a81828a61163a565b9250610a8e876001611603565b93505b5050965096945050505050565b6000818310610aad5781610aaf565b825b9392505050565b6000610b0e604051806101400160405280600081526020016000815260200160008152602001600081526020016000815260200160008152602001600081526020016000815260200160008152602001600081525090565b610b2087670de0b6b3a764000061163a565b81526020810187905260a08c015180518a908110610b4057610b406115be565b60200260200101518c608001518a81518110610b5e57610b5e6115be565b6020026020010151858d610b729190611603565b610b7c919061164d565b610b869190611664565b604082015260a08c0151805189908110610ba257610ba26115be565b60200260200101518c608001518981518110610bc057610bc06115be565b6020026020010151848c610bd4919061163a565b610bde919061164d565b610be89190611664565b606082015260a08c0151805189908110610c0457610c046115be565b60200260200101518c608001518981518110610c2257610c226115be565b60200260200101518487610c36919061163a565b610c40919061164d565b610c4a9190611664565b61010082015260808c015180518691908a908110610c6a57610c6a6115be565b60200260200101518d60a001518b81518110610c8857610c886115be565b60200260200101518e60a001518b81518110610ca657610ca66115be565b60200260200101518f608001518d81518110610cc457610cc46115be565b60200260200101518a670de0b6b3a7640000610ce0919061164d565b610cea919061164d565b610cf4919061164d565b610cfe9190611664565b610d089190611664565b610d129190611664565b60808083019190915260408201516101208301528c015180518a908110610d3b57610d3b6115be565b60200260200101518c608001518981518110610d5957610d596115be565b6020026020010151670de0b6b3a7640000610d74919061164d565b610d7e9190611664565b60a0820152805160808201516020830151670de0b6b3a764000091610da29161164d565b610dac9190611664565b610db69190611603565b8161012001518260400151610dcb919061163a565b8260200151610dda919061164d565b670de0b6b3a76400008360a00151846101200151610df8919061164d565b610e029190611664565b8360600151610e119190611603565b8351610e1d919061164d565b610e27919061163a565b610e319190611664565b60c082018190526101008201511015610ed557602081015160a08201518251670de0b6b3a764000091610e639161164d565b610e6d9190611664565b610e779190611603565b8160400151610e86919061164d565b60608201518251610e97919061164d565b82604001518360200151610eab919061164d565b610eb5919061163a565b8260400151610ec4919061164d565b610ece9190611664565b6101208201525b8b608001518981518110610eeb57610eeb6115be565b60200260200101518c60a001518a81518110610f0957610f096115be565b6020026020010151826101200151610f21919061164d565b610f2b9190611664565b9c9b505050505050505050505050565b600087156110ff578115610f86576000610f55838a610a9e565b905088610f62828a61164d565b610f6c9190611664565b610f76908961163a565b9750610f82818a61163a565b9850505b6000858581518110610f9a57610f9a6115be565b6020026020010151878581518110610fb457610fb46115be565b6020026020010151878681518110610fce57610fce6115be565b6020026020010151898881518110610fe857610fe86115be565b6020026020010151610ffa919061164d565b61100c90670de0b6b3a764000061164d565b6110169190611664565b6110209190611664565b9050881580159061104c5750670de0b6b3a7640000896110408a8461164d565b61104a9190611664565b115b6110575760006110a5565b670de0b6b3a76400008961106b8a8461164d565b6110759190611664565b61107f919061163a565b6110898b8a610a9e565b61109b90670de0b6b3a764000061164d565b6110a59190611664565b915081156110fd57620186a06110d783836110c88d670de0b6b3a764000061164d565b6110d29190611664565b610a9e565b6110e6620186a06103e8611603565b6110f0919061164d565b6110fa9190611664565b91505b505b98975050505050505050565b6000806000888581518110611122576111226115be565b60200260200101518a868151811061113c5761113c6115be565b60200260200101518961114f919061164d565b6111599190611664565b9050600089858151811061116f5761116f6115be565b60200260200101518b8681518110611189576111896115be565b60200260200101518961119c919061164d565b6111a69190611664565b905086156111db57670de0b6b3a7640000876111c28385611603565b6111cc919061164d565b6111d69190611664565b6111de565b60005b92508a86815181106111f2576111f26115be565b60200260200101518a878151811061120c5761120c6115be565b60200260200101518483856112219190611603565b61122b919061163a565b611235919061164d565b61123f9190611664565b93508a8581518110611253576112536115be565b60200260200101518a868151811061126d5761126d6115be565b602002602001015184611280919061164d565b61128a9190611664565b9250505097509795505050505050565b634e487b7160e01b600052604160045260246000fd5b604051601f8201601f1916810167ffffffffffffffff811182821017156112d9576112d961129a565b604052919050565b80356001600160a01b03811681146112f857600080fd5b919050565b600082601f83011261130e57600080fd5b6040516040810181811067ffffffffffffffff821117156113315761133161129a565b806040525080604084018581111561134857600080fd5b845b818110156113695761135b816112e1565b83526020928301920161134a565b509195945050505050565b600067ffffffffffffffff82111561138e5761138e61129a565b5060051b60200190565b600082601f8301126113a957600080fd5b813560206113be6113b983611374565b6112b0565b82815260059290921b840181019181810190868411156113dd57600080fd5b8286015b848110156113ff576113f2816112e1565b83529183019183016113e1565b509695505050505050565b600082601f83011261141b57600080fd5b8135602061142b6113b983611374565b82815260059290921b8401810191818101908684111561144a57600080fd5b8286015b848110156113ff578035835291830191830161144e565b600082601f83011261147657600080fd5b60405160c0810181811067ffffffffffffffff821117156114995761149961129a565b6040528060c08401858111156114ae57600080fd5b845b818110156113695780358352602092830192016114b0565b60008060008060008060006101a0888a0312156114e457600080fd5b6114ee89896112fd565b9650604088013567ffffffffffffffff8082111561150b57600080fd5b6115178b838c01611398565b975060608a013591508082111561152d57600080fd5b6115398b838c0161140a565b965060808a013591508082111561154f57600080fd5b61155b8b838c0161140a565b955060a08a013591508082111561157157600080fd5b61157d8b838c0161140a565b945060c08a013591508082111561159357600080fd5b506115a08a828b0161140a565b9250506115b08960e08a01611465565b905092959891949750929550565b634e487b7160e01b600052603260045260246000fd5b6000602082840312156115e657600080fd5b5051919050565b634e487b7160e01b600052601160045260246000fd5b80820180821115610784576107846115ed565b6000806040838503121561162957600080fd5b505080516020909101519092909150565b81810381811115610784576107846115ed565b8082028115828204841417610784576107846115ed565b60008261168157634e487b7160e01b600052601260045260246000fd5b50049056fea26469706673582212208ddad3df499ef3bed7d454c52739002a37230a14561b32594e6d9354166fde1464736f6c63430008110033",
  "devdoc": {
    "kind": "dev",
    "methods": {
      "buildIterationPlan(address[2],address[],uint256[],uint256[],uint256[],uint256[],uint256[6])": {
        "params": {
          "balanceAdditions": "Amounts that will be added to the current balances of the {tokens}                         to the moment of the plan execution",
          "converterLiquidator": "[TetuConverter, TetuLiquidator]",
          "decs": "10**decimal for each token of the {tokens}",
          "liquidationThresholds": "Liquidation thresholds for the {tokens}. If amount is less then the threshold,                              we cannot swap it.",
          "packedData": "Several values packed to fixed-size array (to reduce number of params)    0: usePoolProportions: 1 - read proportions from the pool through IPoolProportionsProvider(this)    1: planKind: selected plan, one of PLAN_XXX    2: propNotUnderlying18: value of not-underlying proportion [0..1e18] if usePoolProportions == 0    3: requestedAmount: total amount that should be withdrawn, it can be type(uint).max    4: indexAsset: index of the underlying in {tokens} array    5: indexToken: index of the token in {tokens} array. We are going to withdraw the token and convert it to the asset",
          "prices": "Prices of the {tokens}, decimals 18, [$/token]",
          "tokens": "List of the pool tokens. One of them is underlying and one of then is not-underlying               that we are going to withdraw"
        }
      }
    },
    "version": 1
  },
  "userdoc": {
    "kind": "user",
    "methods": {
      "PLAN_REPAY_SWAP_REPAY()": {
        "notice": "Repay available amount-to-repay, swap all or part of collateral to borrowed-asset, make one repay if needed.         Swap + second repay tries to make asset balances to proportions required by the pool.         Proportions are read from pool through IPoolProportionsProvider(this) and re-read after swapping.         (uint256, uint256) - (entry kind, propNotUnderlying18) propNotUnderlying18 Required proportion of not-underlying for the final swap of leftovers, [0...1e18].                     The assets should be swapped to get following result proportions:                     not-underlying : underlying === propNotUnderlying18 : (1e18 - propNotUnderlying18)                     Pass type(uint).max to read proportions from the pool."
      },
      "PLAN_SWAP_ONLY()": {
        "notice": "Swap leftovers to required proportions, don't repay any debts         (uint256, uint256) - (entry kind, propNotUnderlying18) propNotUnderlying18 Required proportion of not-underlying for the final swap of leftovers, [0...1e18].                     The assets should be swapped to get following result proportions:                     not-underlying : underlying === propNotUnderlying18 : (1e18 - propNotUnderlying18)                     Pass type(uint).max to read proportions from the pool."
      },
      "PLAN_SWAP_REPAY()": {
        "notice": "Swap collateral asset to get required amount-to-repay, then repay and get more collateral back.         It tries to minimizes count of repay-operations.         If there are no debts, swap leftovers to get required proportions of the asset.         (uint256, uint256) - (entry kind, propNotUnderlying18) propNotUnderlying18 Required proportion of not-underlying for the final swap of leftovers, [0...1e18].                     The assets should be swapped to get following result proportions:                     not-underlying : underlying === propNotUnderlying18 : (1e18 - propNotUnderlying18)                     Pass type(uint).max to read proportions from the pool."
      },
      "buildIterationPlan(address[2],address[],uint256[],uint256[],uint256[],uint256[],uint256[6])": {
        "notice": "Build plan to make single iteration of withdraw according to the selected plan         The goal is to withdraw {requestedAmount} and receive {asset}:{token} in proper proportions on the balance"
      }
    },
    "notice": "Support of withdraw iteration plans",
    "version": 1
  },
  "storageLayout": {
    "storage": [],
    "types": null
  }
}