{
  "address": "0x46A6376d539E5dE5b7330504E29C7F7dCc7f90Fd",
  "abi": [
    {
      "inputs": [],
      "name": "PLAN_REPAY_SWAP_REPAY",
      "outputs": [
        {
          "internalType": "uint256",
          "name": "",
          "type": "uint256"
        }
      ],
      "stateMutability": "view",
      "type": "function"
    },
    {
      "inputs": [],
      "name": "PLAN_SWAP_ONLY",
      "outputs": [
        {
          "internalType": "uint256",
          "name": "",
          "type": "uint256"
        }
      ],
      "stateMutability": "view",
      "type": "function"
    },
    {
      "inputs": [],
      "name": "PLAN_SWAP_REPAY",
      "outputs": [
        {
          "internalType": "uint256",
          "name": "",
          "type": "uint256"
        }
      ],
      "stateMutability": "view",
      "type": "function"
    }
  ],
  "transactionHash": "0x5cbf04969e50057fecfd0944b408647e9af93b95ce568a0011a1c2063fbbd8ac",
  "args": [],
  "numDeployments": 6,
  "solcInputHash": "b61f6c8d2f8976a66eab3172665489c0",
  "bytecode": "0x61165561003a600b82828239805160001a60731461002d57634e487b7160e01b600052600060045260246000fd5b30600052607381538281f3fe73000000000000000000000000000000000000000030146080604052600436106100565760003560e01c80631b3c6d411461005b5780634091aebd146100765780636221aa71146100b1578063c153a359146100b9575b600080fd5b610063600081565b6040519081526020015b60405180910390f35b81801561008257600080fd5b50610096610091366004611461565b6100c1565b6040805193845260208401929092529082015260600161006d565b610063600181565b610063600281565b60008060006101a96040518061014001604052808c6000600281106100e8576100e8611557565b60200201516001600160a01b031681526020018c60016002811061010e5761010e611557565b60200201516001600160a01b031681526020018b81526020018a81526020018981526020018881526020018781526020018660016006811061015257610152611557565b602002015181526020018660026006811061016f5761016f611557565b602002015181526020018660006006811061018c5761018c611557565b6020020151151590526060860151608087015160a08801516101bc565b9250925092509750975097945050505050565b600080600061022460405180610120016040528060008152602001600081526020016000815260200160008152602001600081526020016000815260200160006001600160a01b0316815260200160006001600160a01b031681526020016000151581525090565b8760400151868151811061023a5761023a611557565b60209081029190910101516001600160a01b031660c0820152604088015180518690811061026a5761026a611557565b60209081029190910101516001600160a01b031660e082015260c088015180518790811061029a5761029a611557565b602090810291909101015160c08201516040516370a0823160e01b81523060048201526001600160a01b03909116906370a0823190602401602060405180830381865afa1580156102ef573d6000803e3d6000fd5b505050506040513d601f19601f82011682018060405250810190610313919061156d565b61031d919061159c565b815260c088015180518690811061033657610336611557565b60200260200101518860400151868151811061035457610354611557565b60209081029190910101516040516370a0823160e01b81523060048201526001600160a01b03909116906370a0823190602401602060405180830381865afa1580156103a4573d6000803e3d6000fd5b505050506040513d601f19601f820116820180604052508101906103c8919061156d565b6103d2919061159c565b602082015260e0880151600119016103f157600161010082015261072e565b8760600151868151811061040757610407611557565b602002602001015187101561042357600161010082015261072e565b875160e082015160c083015160405163dd27ede760e01b81523060048201526001600160a01b03928316602482015290821660448201526001606482015291169063dd27ede79060840160408051808303816000875af115801561048b573d6000803e3d6000fd5b505050506040513d601f19601f820116820180604052508101906104af91906115af565b60a083015260808201819052606411156105f357875160c082015160e083015160405163dd27ede760e01b81523060048201526001600160a01b03928316602482015290821660448201526001606482015291169063dd27ede79060840160408051808303816000875af115801561052b573d6000803e3d6000fd5b505050506040513d601f19601f8201168201806040525081019061054f91906115af565b6060830152604082018190526064111561057057600161010082015261072e565b60018860e00151036105d3576105c788604051806040016040528084600001518152602001846020015181525060405180604001604052808a8152602001898152508b610100015185606001518660400151610765565b9195509350915061072e565b6105c78789836060015184604001518a8a876000015188602001516108f2565b60018860e0015103610654576040805180820182526020808401518252835181830152825180840190935287835282018890526101008a01516105c7928b929161064590670de0b6b3a76400006115d3565b8560a001518660800151610765565b6107266000198814610706578860a00151878151811061067657610676611557565b60200260200101518960800151878151811061069457610694611557565b60200260200101518a60a0015188815181106106b2576106b2611557565b60200260200101518b608001518a815181106106d0576106d0611557565b60200260200101518b6106e391906115e6565b6106ed91906115e6565b6106f791906115fd565b61070191906115fd565b61070a565b6000195b898360a001518460800151898b876020015188600001516108f2565b919550935091505b8061010001511561075a57610754888260000151836020015189898d61010001516109c2565b90945092505b509450945094915050565b600080808061077b896001602002015186610a91565b9050600060648210610896578a5160408c01518a5181516000936001600160a01b03169263667df24992309281106107b5576107b5611557565b60200260200101518f604001518e6001600281106107d5576107d5611557565b6020020151815181106107ea576107ea611557565b60209081029190910101516040516001600160e01b031960e086901b1681526001600160a01b03938416600482015291831660248301529190911660448201526064810186905260840160408051808303816000875af1158015610852573d6000803e3d6000fd5b505050506040513d601f19601f8201168201806040525081019061087691906115af565b9092509050808211156108905761088d81836115d3565b91505b5061089b565b600091505b89516020808c01518b51918c01516108bc938f939092918d8d8d898b610aab565b89519094506108cc90600161159c565b60208a015185906108de90600161159c565b945094509450505096509650969350505050565b6000806000806109108c8a8c8e608001518f60a001518d8d8c610ed4565b9050801580159061092057508515155b156109a05761092f8187610a91565b905060008b60600151898151811061094957610949611557565b60200260200101519050808211156109725781935088600161096b919061159c565b945061099e565b61097d81600161159c565b871061099e5761098e81600161159c565b935061099b89600161159c565b94505b505b83836109ad89600161159c565b93509350935050985098509895505050505050565b6000806000806109df8a608001518b60a001518b8b898c8c6110a4565b9150915081891015610a3a5789606001518681518110610a0157610a01611557565b60200260200101518189610a1591906115d3565b1115610a3557610a2581896115d3565b9250610a3286600161159c565b93505b610a84565b89606001518781518110610a5057610a50611557565b6020026020010151828a610a6491906115d3565b1115610a8457610a74828a6115d3565b9250610a8187600161159c565b93505b5050965096945050505050565b6000818310610aa05781610aa2565b825b90505b92915050565b6000610b03604051806101400160405280600081526020016000815260200160008152602001600081526020016000815260200160008152602001600081526020016000815260200160008152602001600081525090565b610b1587670de0b6b3a76400006115d3565b81526020810187905260a08c015180518a908110610b3557610b35611557565b60200260200101518c608001518a81518110610b5357610b53611557565b6020026020010151858d610b67919061159c565b610b7191906115e6565b610b7b91906115fd565b604082015260a08c0151805189908110610b9757610b97611557565b60200260200101518c608001518981518110610bb557610bb5611557565b6020026020010151848c610bc991906115d3565b610bd391906115e6565b610bdd91906115fd565b606082015260a08c0151805189908110610bf957610bf9611557565b60200260200101518c608001518981518110610c1757610c17611557565b60200260200101518487610c2b91906115d3565b610c3591906115e6565b610c3f91906115fd565b61010082015260808c015180518691908a908110610c5f57610c5f611557565b60200260200101518d60a001518b81518110610c7d57610c7d611557565b60200260200101518e60a001518b81518110610c9b57610c9b611557565b60200260200101518f608001518d81518110610cb957610cb9611557565b60200260200101518a670de0b6b3a7640000610cd591906115e6565b610cdf91906115e6565b610ce991906115e6565b610cf391906115fd565b610cfd91906115fd565b610d0791906115fd565b608082018190526040820151610120830152670de0b6b3a764000060a08301819052825160208401519092610d3b916115e6565b610d4591906115fd565b610d4f919061159c565b8161012001518260400151610d6491906115d3565b8260200151610d7391906115e6565b670de0b6b3a76400008360a00151846101200151610d9191906115e6565b610d9b91906115fd565b8360600151610daa919061159c565b8351610db691906115e6565b610dc091906115d3565b610dca91906115fd565b60c082018190526101008201511015610e6e57602081015160a08201518251670de0b6b3a764000091610dfc916115e6565b610e0691906115fd565b610e10919061159c565b8160400151610e1f91906115e6565b60608201518251610e3091906115e6565b82604001518360200151610e4491906115e6565b610e4e91906115d3565b8260400151610e5d91906115e6565b610e6791906115fd565b6101208201525b8b608001518981518110610e8457610e84611557565b60200260200101518c60a001518a81518110610ea257610ea2611557565b6020026020010151826101200151610eba91906115e6565b610ec491906115fd565b9c9b505050505050505050505050565b60008715611098578115610f1f576000610eee838a610a91565b905088610efb828a6115e6565b610f0591906115fd565b610f0f90896115d3565b9750610f1b818a6115d3565b9850505b6000858581518110610f3357610f33611557565b6020026020010151878581518110610f4d57610f4d611557565b6020026020010151878681518110610f6757610f67611557565b6020026020010151898881518110610f8157610f81611557565b6020026020010151610f9391906115e6565b610fa590670de0b6b3a76400006115e6565b610faf91906115fd565b610fb991906115fd565b90508815801590610fe55750670de0b6b3a764000089610fd98a846115e6565b610fe391906115fd565b115b610ff057600061103e565b670de0b6b3a7640000896110048a846115e6565b61100e91906115fd565b61101891906115d3565b6110228b8a610a91565b61103490670de0b6b3a76400006115e6565b61103e91906115fd565b9150811561109657620186a061107083836110618d670de0b6b3a76400006115e6565b61106b91906115fd565b610a91565b61107f620186a06103e861159c565b61108991906115e6565b61109391906115fd565b91505b505b98975050505050505050565b60008060008885815181106110bb576110bb611557565b60200260200101518a86815181106110d5576110d5611557565b6020026020010151896110e891906115e6565b6110f291906115fd565b9050600089858151811061110857611108611557565b60200260200101518b868151811061112257611122611557565b60200260200101518961113591906115e6565b61113f91906115fd565b9050861561117457670de0b6b3a76400008761115b838561159c565b61116591906115e6565b61116f91906115fd565b611177565b60005b92508a868151811061118b5761118b611557565b60200260200101518a87815181106111a5576111a5611557565b60200260200101518483856111ba919061159c565b6111c491906115d3565b6111ce91906115e6565b6111d891906115fd565b93508a85815181106111ec576111ec611557565b60200260200101518a868151811061120657611206611557565b60200260200101518461121991906115e6565b61122391906115fd565b9250505097509795505050505050565b634e487b7160e01b600052604160045260246000fd5b604051601f8201601f1916810167ffffffffffffffff8111828210171561127257611272611233565b604052919050565b80356001600160a01b038116811461129157600080fd5b919050565b600082601f8301126112a757600080fd5b6040516040810181811067ffffffffffffffff821117156112ca576112ca611233565b80604052508060408401858111156112e157600080fd5b845b81811015611302576112f48161127a565b8352602092830192016112e3565b509195945050505050565b600067ffffffffffffffff82111561132757611327611233565b5060051b60200190565b600082601f83011261134257600080fd5b813560206113576113528361130d565b611249565b82815260059290921b8401810191818101908684111561137657600080fd5b8286015b848110156113985761138b8161127a565b835291830191830161137a565b509695505050505050565b600082601f8301126113b457600080fd5b813560206113c46113528361130d565b82815260059290921b840181019181810190868411156113e357600080fd5b8286015b8481101561139857803583529183019183016113e7565b600082601f83011261140f57600080fd5b60405160c0810181811067ffffffffffffffff8211171561143257611432611233565b6040528060c084018581111561144757600080fd5b845b81811015611302578035835260209283019201611449565b60008060008060008060006101a0888a03121561147d57600080fd5b6114878989611296565b9650604088013567ffffffffffffffff808211156114a457600080fd5b6114b08b838c01611331565b975060608a01359150808211156114c657600080fd5b6114d28b838c016113a3565b965060808a01359150808211156114e857600080fd5b6114f48b838c016113a3565b955060a08a013591508082111561150a57600080fd5b6115168b838c016113a3565b945060c08a013591508082111561152c57600080fd5b506115398a828b016113a3565b9250506115498960e08a016113fe565b905092959891949750929550565b634e487b7160e01b600052603260045260246000fd5b60006020828403121561157f57600080fd5b5051919050565b634e487b7160e01b600052601160045260246000fd5b80820180821115610aa557610aa5611586565b600080604083850312156115c257600080fd5b505080516020909101519092909150565b81810381811115610aa557610aa5611586565b8082028115828204841417610aa557610aa5611586565b60008261161a57634e487b7160e01b600052601260045260246000fd5b50049056fea264697066735822122017cbbea9711276fcf168c2d4de52c35fe6bb61a02fcfc105607a6da66f7a779b64736f6c63430008110033",
  "devdoc": {
    "kind": "dev",
    "methods": {
      "buildIterationPlan(address[2],address[],uint256[],uint256[],uint256[],uint256[],uint256[6])": {
        "params": {
          "balanceAdditions": "Amounts that will be added to the current balances of the {tokens}                         to the moment of the plan execution",
          "converterLiquidator": "[TetuConverter, TetuLiquidator]",
          "decs": "10**decimal for each token of the {tokens}",
          "liquidationThresholds": "Liquidation thresholds for the {tokens}. If amount is less then the threshold,                              we cannot swap it.",
          "packedData": "Several values packed to fixed-size array (to reduce number of params)    0: usePoolProportions: 1 - read proportions from the pool through IPoolProportionsProvider(this)    1: planKind: selected plan, one of PLAN_XXX    2: propNotUnderlying18: value of not-underlying proportion [0..1e18] if usePoolProportions == 0    3: requestedAmount: total amount that should be withdrawn, it can be type(uint).max    4: indexAsset: index of the underlying in {tokens} array    5: indexToken: index of the token in {tokens} array. We are going to withdraw the token and convert it to the asset",
          "prices": "Prices of the {tokens}, decimals 18, [$/token]",
          "tokens": "List of the pool tokens. One of them is underlying and one of then is not-underlying               that we are going to withdraw"
        }
      }
    },
    "version": 1
  },
  "userdoc": {
    "kind": "user",
    "methods": {
      "PLAN_REPAY_SWAP_REPAY()": {
        "notice": "Repay available amount-to-repay, swap all or part of collateral to borrowed-asset, make one repay if needed.         Swap + second repay tries to make asset balances to proportions required by the pool.         Proportions are read from pool through IPoolProportionsProvider(this) and re-read after swapping.         This mode is intended i.e. for rebalancing debts using single iteration.         (uint256, uint256) - (entry kind, propNotUnderlying18) propNotUnderlying18 Required proportion of not-underlying for the final swap of leftovers, [0...1e18].                     The assets should be swapped to get following result proportions:                     not-underlying : underlying === propNotUnderlying18 : (1e18 - propNotUnderlying18)                     Pass type(uint).max to read proportions from the pool."
      },
      "PLAN_SWAP_ONLY()": {
        "notice": "Swap leftovers to required proportions, don't repay any debts         (uint256, uint256) - (entry kind, propNotUnderlying18) propNotUnderlying18 Required proportion of not-underlying for the final swap of leftovers, [0...1e18].                     The assets should be swapped to get following result proportions:                     not-underlying : underlying === propNotUnderlying18 : (1e18 - propNotUnderlying18)                     Pass type(uint).max to read proportions from the pool."
      },
      "PLAN_SWAP_REPAY()": {
        "notice": "Swap collateral asset to get required amount-to-repay, then repay and get more collateral back.         It tries to minimizes count of repay-operations.         If there are no debts, swap leftovers to get required proportions of the asset.         This mode is intended i.e. for \"withdraw all\"         (uint256, uint256) - (entry kind, propNotUnderlying18) propNotUnderlying18 Required proportion of not-underlying for the final swap of leftovers, [0...1e18].                     The assets should be swapped to get following result proportions:                     not-underlying : underlying === propNotUnderlying18 : (1e18 - propNotUnderlying18)                     Pass type(uint).max to read proportions from the pool."
      },
      "buildIterationPlan(address[2],address[],uint256[],uint256[],uint256[],uint256[],uint256[6])": {
        "notice": "Build plan to make single iteration of withdraw according to the selected plan         The goal is to withdraw {requestedAmount} and receive {asset}:{token} in proper proportions on the balance"
      }
    },
    "notice": "Support of withdraw iteration plans",
    "version": 1
  },
  "storageLayout": {
    "storage": [],
    "types": null
  }
}