{
  "address": "0xe8a6f1eb3Dd4946883F4348432055c36B3441F6D",
  "abi": [
    {
      "anonymous": false,
      "inputs": [
        {
          "indexed": false,
          "internalType": "address",
          "name": "controller",
          "type": "address"
        },
        {
          "indexed": false,
          "internalType": "uint256",
          "name": "ts",
          "type": "uint256"
        },
        {
          "indexed": false,
          "internalType": "uint256",
          "name": "block",
          "type": "uint256"
        }
      ],
      "name": "ContractInitialized",
      "type": "event"
    },
    {
      "anonymous": false,
      "inputs": [
        {
          "indexed": false,
          "internalType": "uint8",
          "name": "version",
          "type": "uint8"
        }
      ],
      "name": "Initialized",
      "type": "event"
    },
    {
      "anonymous": false,
      "inputs": [
        {
          "indexed": false,
          "internalType": "uint256[]",
          "name": "withdrawnAmounts",
          "type": "uint256[]"
        }
      ],
      "name": "OnDepositorEmergencyExit",
      "type": "event"
    },
    {
      "anonymous": false,
      "inputs": [
        {
          "indexed": false,
          "internalType": "uint256[]",
          "name": "amounts",
          "type": "uint256[]"
        },
        {
          "indexed": false,
          "internalType": "uint256[]",
          "name": "consumedAmounts",
          "type": "uint256[]"
        }
      ],
      "name": "OnDepositorEnter",
      "type": "event"
    },
    {
      "anonymous": false,
      "inputs": [
        {
          "indexed": false,
          "internalType": "uint256",
          "name": "liquidityAmount",
          "type": "uint256"
        },
        {
          "indexed": false,
          "internalType": "uint256[]",
          "name": "withdrawnAmounts",
          "type": "uint256[]"
        }
      ],
      "name": "OnDepositorExit",
      "type": "event"
    },
    {
      "anonymous": false,
      "inputs": [
        {
          "indexed": false,
          "internalType": "uint256",
          "name": "investedAssetsNewPrices",
          "type": "uint256"
        },
        {
          "indexed": false,
          "internalType": "uint256",
          "name": "earnedByPrices",
          "type": "uint256"
        },
        {
          "indexed": false,
          "internalType": "uint256",
          "name": "earnedHandleRewards",
          "type": "uint256"
        },
        {
          "indexed": false,
          "internalType": "uint256",
          "name": "lostHandleRewards",
          "type": "uint256"
        },
        {
          "indexed": false,
          "internalType": "uint256",
          "name": "earnedDeposit",
          "type": "uint256"
        },
        {
          "indexed": false,
          "internalType": "uint256",
          "name": "lostDeposit",
          "type": "uint256"
        }
      ],
      "name": "OnHardWorkEarnedLost",
      "type": "event"
    },
    {
      "anonymous": false,
      "inputs": [
        {
          "indexed": false,
          "internalType": "address[]",
          "name": "rewardTokens",
          "type": "address[]"
        },
        {
          "indexed": false,
          "internalType": "uint256[]",
          "name": "amountsToForward",
          "type": "uint256[]"
        },
        {
          "indexed": false,
          "internalType": "uint256",
          "name": "toPerf",
          "type": "uint256"
        },
        {
          "indexed": false,
          "internalType": "uint256",
          "name": "toInsurance",
          "type": "uint256"
        }
      ],
      "name": "Recycle",
      "type": "event"
    },
    {
      "anonymous": false,
      "inputs": [
        {
          "indexed": false,
          "internalType": "uint256",
          "name": "value",
          "type": "uint256"
        },
        {
          "indexed": false,
          "internalType": "address",
          "name": "oldLogic",
          "type": "address"
        }
      ],
      "name": "RevisionIncreased",
      "type": "event"
    },
    {
      "inputs": [],
      "name": "CONTROLLABLE_VERSION",
      "outputs": [
        {
          "internalType": "string",
          "name": "",
          "type": "string"
        }
      ],
      "stateMutability": "view",
      "type": "function"
    },
    {
      "inputs": [],
      "name": "CONVERTER_STRATEGY_BASE_VERSION",
      "outputs": [
        {
          "internalType": "string",
          "name": "",
          "type": "string"
        }
      ],
      "stateMutability": "view",
      "type": "function"
    },
    {
      "inputs": [],
      "name": "KYBER_DEPOSITOR_VERSION",
      "outputs": [
        {
          "internalType": "string",
          "name": "",
          "type": "string"
        }
      ],
      "stateMutability": "view",
      "type": "function"
    },
    {
      "inputs": [],
      "name": "NAME",
      "outputs": [
        {
          "internalType": "string",
          "name": "",
          "type": "string"
        }
      ],
      "stateMutability": "view",
      "type": "function"
    },
    {
      "inputs": [],
      "name": "PLATFORM",
      "outputs": [
        {
          "internalType": "string",
          "name": "",
          "type": "string"
        }
      ],
      "stateMutability": "view",
      "type": "function"
    },
    {
      "inputs": [],
      "name": "STRATEGY_BASE_VERSION",
      "outputs": [
        {
          "internalType": "string",
          "name": "",
          "type": "string"
        }
      ],
      "stateMutability": "view",
      "type": "function"
    },
    {
      "inputs": [],
      "name": "STRATEGY_VERSION",
      "outputs": [
        {
          "internalType": "string",
          "name": "",
          "type": "string"
        }
      ],
      "stateMutability": "view",
      "type": "function"
    },
    {
      "inputs": [],
      "name": "asset",
      "outputs": [
        {
          "internalType": "address",
          "name": "",
          "type": "address"
        }
      ],
      "stateMutability": "view",
      "type": "function"
    },
    {
      "inputs": [],
      "name": "calcInvestedAssets",
      "outputs": [
        {
          "internalType": "uint256",
          "name": "",
          "type": "uint256"
        }
      ],
      "stateMutability": "nonpayable",
      "type": "function"
    },
    {
      "inputs": [],
      "name": "canFarm",
      "outputs": [
        {
          "internalType": "bool",
          "name": "",
          "type": "bool"
        }
      ],
      "stateMutability": "view",
      "type": "function"
    },
    {
      "inputs": [],
      "name": "capacity",
      "outputs": [
        {
          "internalType": "uint256",
          "name": "",
          "type": "uint256"
        }
      ],
      "stateMutability": "view",
      "type": "function"
    },
    {
      "inputs": [
        {
          "internalType": "uint256",
          "name": "pId",
          "type": "uint256"
        }
      ],
      "name": "changePId",
      "outputs": [],
      "stateMutability": "nonpayable",
      "type": "function"
    },
    {
      "inputs": [],
      "name": "claim",
      "outputs": [],
      "stateMutability": "nonpayable",
      "type": "function"
    },
    {
      "inputs": [],
      "name": "compoundRatio",
      "outputs": [
        {
          "internalType": "uint256",
          "name": "",
          "type": "uint256"
        }
      ],
      "stateMutability": "view",
      "type": "function"
    },
    {
      "inputs": [],
      "name": "controller",
      "outputs": [
        {
          "internalType": "address",
          "name": "",
          "type": "address"
        }
      ],
      "stateMutability": "view",
      "type": "function"
    },
    {
      "inputs": [],
      "name": "converter",
      "outputs": [
        {
          "internalType": "contract ITetuConverter",
          "name": "",
          "type": "address"
        }
      ],
      "stateMutability": "view",
      "type": "function"
    },
    {
      "inputs": [],
      "name": "created",
      "outputs": [
        {
          "internalType": "uint256",
          "name": "",
          "type": "uint256"
        }
      ],
      "stateMutability": "view",
      "type": "function"
    },
    {
      "inputs": [],
      "name": "createdBlock",
      "outputs": [
        {
          "internalType": "uint256",
          "name": "",
          "type": "uint256"
        }
      ],
      "stateMutability": "view",
      "type": "function"
    },
    {
      "inputs": [],
      "name": "disableFuse",
      "outputs": [],
      "stateMutability": "nonpayable",
      "type": "function"
    },
    {
      "inputs": [],
      "name": "doHardWork",
      "outputs": [
        {
          "internalType": "uint256",
          "name": "earned",
          "type": "uint256"
        },
        {
          "internalType": "uint256",
          "name": "lost",
          "type": "uint256"
        }
      ],
      "stateMutability": "nonpayable",
      "type": "function"
    },
    {
      "inputs": [],
      "name": "emergencyExit",
      "outputs": [],
      "stateMutability": "nonpayable",
      "type": "function"
    },
    {
      "inputs": [],
      "name": "getState",
      "outputs": [
        {
          "internalType": "address",
          "name": "tokenA",
          "type": "address"
        },
        {
          "internalType": "address",
          "name": "tokenB",
          "type": "address"
        },
        {
          "internalType": "address",
          "name": "profitHolder",
          "type": "address"
        },
        {
          "internalType": "contract IPool",
          "name": "pool",
          "type": "address"
        },
        {
          "internalType": "uint128",
          "name": "totalLiquidity",
          "type": "uint128"
        },
        {
          "internalType": "uint256",
          "name": "fuseThreshold",
          "type": "uint256"
        },
        {
          "internalType": "int24[]",
          "name": "ticks",
          "type": "int24[]"
        },
        {
          "internalType": "uint256[]",
          "name": "profitHolderBalances",
          "type": "uint256[]"
        },
        {
          "internalType": "bool[]",
          "name": "flags",
          "type": "bool[]"
        }
      ],
      "stateMutability": "view",
      "type": "function"
    },
    {
      "inputs": [
        {
          "internalType": "address",
          "name": "oldLogic",
          "type": "address"
        }
      ],
      "name": "increaseRevision",
      "outputs": [],
      "stateMutability": "nonpayable",
      "type": "function"
    },
    {
      "inputs": [
        {
          "internalType": "address",
          "name": "controller_",
          "type": "address"
        },
        {
          "internalType": "address",
          "name": "splitter_",
          "type": "address"
        },
        {
          "internalType": "address",
          "name": "converter_",
          "type": "address"
        },
        {
          "internalType": "address",
          "name": "pool_",
          "type": "address"
        },
        {
          "internalType": "int24",
          "name": "tickRange_",
          "type": "int24"
        },
        {
          "internalType": "int24",
          "name": "rebalanceTickRange_",
          "type": "int24"
        },
        {
          "internalType": "bool",
          "name": "isStablePool",
          "type": "bool"
        },
        {
          "internalType": "uint256",
          "name": "pId",
          "type": "uint256"
        }
      ],
      "name": "init",
      "outputs": [],
      "stateMutability": "nonpayable",
      "type": "function"
    },
    {
      "inputs": [
        {
          "internalType": "uint256",
          "name": "",
          "type": "uint256"
        },
        {
          "internalType": "bool",
          "name": "updateTotalAssetsBeforeInvest_",
          "type": "bool"
        }
      ],
      "name": "investAll",
      "outputs": [
        {
          "internalType": "uint256",
          "name": "strategyLoss",
          "type": "uint256"
        }
      ],
      "stateMutability": "nonpayable",
      "type": "function"
    },
    {
      "inputs": [],
      "name": "investedAssets",
      "outputs": [
        {
          "internalType": "uint256",
          "name": "",
          "type": "uint256"
        }
      ],
      "stateMutability": "view",
      "type": "function"
    },
    {
      "inputs": [
        {
          "internalType": "address",
          "name": "_value",
          "type": "address"
        }
      ],
      "name": "isController",
      "outputs": [
        {
          "internalType": "bool",
          "name": "",
          "type": "bool"
        }
      ],
      "stateMutability": "view",
      "type": "function"
    },
    {
      "inputs": [
        {
          "internalType": "address",
          "name": "_value",
          "type": "address"
        }
      ],
      "name": "isGovernance",
      "outputs": [
        {
          "internalType": "bool",
          "name": "",
          "type": "bool"
        }
      ],
      "stateMutability": "view",
      "type": "function"
    },
    {
      "inputs": [],
      "name": "isReadyToHardWork",
      "outputs": [
        {
          "internalType": "bool",
          "name": "",
          "type": "bool"
        }
      ],
      "stateMutability": "view",
      "type": "function"
    },
    {
      "inputs": [
        {
          "internalType": "address",
          "name": "",
          "type": "address"
        }
      ],
      "name": "liquidationThresholds",
      "outputs": [
        {
          "internalType": "uint256",
          "name": "",
          "type": "uint256"
        }
      ],
      "stateMutability": "view",
      "type": "function"
    },
    {
      "inputs": [],
      "name": "needRebalance",
      "outputs": [
        {
          "internalType": "bool",
          "name": "",
          "type": "bool"
        }
      ],
      "stateMutability": "view",
      "type": "function"
    },
    {
      "inputs": [
        {
          "internalType": "address",
          "name": "",
          "type": "address"
        },
        {
          "internalType": "address",
          "name": "",
          "type": "address"
        },
        {
          "internalType": "uint256",
          "name": "",
          "type": "uint256"
        },
        {
          "internalType": "bytes",
          "name": "",
          "type": "bytes"
        }
      ],
      "name": "onERC721Received",
      "outputs": [
        {
          "internalType": "bytes4",
          "name": "",
          "type": "bytes4"
        }
      ],
      "stateMutability": "pure",
      "type": "function"
    },
    {
      "inputs": [
        {
          "internalType": "address[]",
          "name": "assets_",
          "type": "address[]"
        },
        {
          "internalType": "uint256[]",
          "name": "amounts_",
          "type": "uint256[]"
        }
      ],
      "name": "onTransferAmounts",
      "outputs": [],
      "stateMutability": "nonpayable",
      "type": "function"
    },
    {
      "inputs": [],
      "name": "performanceFee",
      "outputs": [
        {
          "internalType": "uint256",
          "name": "",
          "type": "uint256"
        }
      ],
      "stateMutability": "view",
      "type": "function"
    },
    {
      "inputs": [],
      "name": "performanceFeeRatio",
      "outputs": [
        {
          "internalType": "uint256",
          "name": "",
          "type": "uint256"
        }
      ],
      "stateMutability": "view",
      "type": "function"
    },
    {
      "inputs": [],
      "name": "performanceReceiver",
      "outputs": [
        {
          "internalType": "address",
          "name": "",
          "type": "address"
        }
      ],
      "stateMutability": "view",
      "type": "function"
    },
    {
      "inputs": [],
      "name": "previousImplementation",
      "outputs": [
        {
          "internalType": "address",
          "name": "",
          "type": "address"
        }
      ],
      "stateMutability": "view",
      "type": "function"
    },
    {
      "inputs": [],
      "name": "quoteRebalanceSwap",
      "outputs": [
        {
          "internalType": "bool",
          "name": "",
          "type": "bool"
        },
        {
          "internalType": "uint256",
          "name": "",
          "type": "uint256"
        }
      ],
      "stateMutability": "nonpayable",
      "type": "function"
    },
    {
      "inputs": [],
      "name": "rebalance",
      "outputs": [],
      "stateMutability": "nonpayable",
      "type": "function"
    },
    {
      "inputs": [
        {
          "internalType": "bool",
          "name": "direction",
          "type": "bool"
        },
        {
          "internalType": "uint256",
          "name": "amount",
          "type": "uint256"
        },
        {
          "internalType": "address",
          "name": "agg",
          "type": "address"
        },
        {
          "internalType": "bytes",
          "name": "swapData",
          "type": "bytes"
        }
      ],
      "name": "rebalanceSwapByAgg",
      "outputs": [],
      "stateMutability": "nonpayable",
      "type": "function"
    },
    {
      "inputs": [],
      "name": "reinvestThresholdPercent",
      "outputs": [
        {
          "internalType": "uint256",
          "name": "",
          "type": "uint256"
        }
      ],
      "stateMutability": "view",
      "type": "function"
    },
    {
      "inputs": [
        {
          "internalType": "address",
          "name": "theAsset_",
          "type": "address"
        },
        {
          "internalType": "uint256",
          "name": "amount_",
          "type": "uint256"
        }
      ],
      "name": "requirePayAmountBack",
      "outputs": [
        {
          "internalType": "uint256",
          "name": "amountOut",
          "type": "uint256"
        }
      ],
      "stateMutability": "nonpayable",
      "type": "function"
    },
    {
      "inputs": [],
      "name": "revision",
      "outputs": [
        {
          "internalType": "uint256",
          "name": "",
          "type": "uint256"
        }
      ],
      "stateMutability": "view",
      "type": "function"
    },
    {
      "inputs": [
        {
          "internalType": "uint256",
          "name": "value",
          "type": "uint256"
        }
      ],
      "name": "setCompoundRatio",
      "outputs": [],
      "stateMutability": "nonpayable",
      "type": "function"
    },
    {
      "inputs": [
        {
          "internalType": "uint256",
          "name": "newFuseThreshold",
          "type": "uint256"
        }
      ],
      "name": "setFuseThreshold",
      "outputs": [],
      "stateMutability": "nonpayable",
      "type": "function"
    },
    {
      "inputs": [
        {
          "internalType": "address",
          "name": "token",
          "type": "address"
        },
        {
          "internalType": "uint256",
          "name": "amount",
          "type": "uint256"
        }
      ],
      "name": "setLiquidationThreshold",
      "outputs": [],
      "stateMutability": "nonpayable",
      "type": "function"
    },
    {
      "inputs": [
        {
          "internalType": "uint256",
          "name": "ratio_",
          "type": "uint256"
        }
      ],
      "name": "setPerformanceFeeRatio",
      "outputs": [],
      "stateMutability": "nonpayable",
      "type": "function"
    },
    {
      "inputs": [
        {
          "internalType": "uint256",
          "name": "percent_",
          "type": "uint256"
        }
      ],
      "name": "setReinvestThresholdPercent",
      "outputs": [],
      "stateMutability": "nonpayable",
      "type": "function"
    },
    {
      "inputs": [
        {
          "internalType": "address",
          "name": "strategyProfitHolder",
          "type": "address"
        }
      ],
      "name": "setStrategyProfitHolder",
      "outputs": [],
      "stateMutability": "nonpayable",
      "type": "function"
    },
    {
      "inputs": [
        {
          "internalType": "string",
          "name": "name",
          "type": "string"
        }
      ],
      "name": "setStrategySpecificName",
      "outputs": [],
      "stateMutability": "nonpayable",
      "type": "function"
    },
    {
      "inputs": [
        {
          "internalType": "uint256",
          "name": "fee_",
          "type": "uint256"
        },
        {
          "internalType": "address",
          "name": "receiver_",
          "type": "address"
        }
      ],
      "name": "setupPerformanceFee",
      "outputs": [],
      "stateMutability": "nonpayable",
      "type": "function"
    },
    {
      "inputs": [],
      "name": "splitter",
      "outputs": [
        {
          "internalType": "address",
          "name": "",
          "type": "address"
        }
      ],
      "stateMutability": "view",
      "type": "function"
    },
    {
      "inputs": [],
      "name": "strategySpecificName",
      "outputs": [
        {
          "internalType": "string",
          "name": "",
          "type": "string"
        }
      ],
      "stateMutability": "view",
      "type": "function"
    },
    {
      "inputs": [
        {
          "internalType": "bytes4",
          "name": "interfaceId",
          "type": "bytes4"
        }
      ],
      "name": "supportsInterface",
      "outputs": [
        {
          "internalType": "bool",
          "name": "",
          "type": "bool"
        }
      ],
      "stateMutability": "view",
      "type": "function"
    },
    {
      "inputs": [],
      "name": "totalAssets",
      "outputs": [
        {
          "internalType": "uint256",
          "name": "",
          "type": "uint256"
        }
      ],
      "stateMutability": "view",
      "type": "function"
    },
    {
      "inputs": [],
      "name": "withdrawAllToSplitter",
      "outputs": [
        {
          "internalType": "uint256",
          "name": "strategyLoss",
          "type": "uint256"
        }
      ],
      "stateMutability": "nonpayable",
      "type": "function"
    },
    {
      "inputs": [
        {
          "internalType": "uint256",
          "name": "amount",
          "type": "uint256"
        }
      ],
      "name": "withdrawToSplitter",
      "outputs": [
        {
          "internalType": "uint256",
          "name": "strategyLoss",
          "type": "uint256"
        }
      ],
      "stateMutability": "nonpayable",
      "type": "function"
    }
  ],
  "transactionHash": "0xe60d4b1e6e5d834d2f0d5533cfa63ba768ec76551a246560093e2bc04d13d228",
  "args": [],
  "numDeployments": 2,
  "solcInputHash": "e3392ebe03c0207abfeb5aef7c0ac055",
  "bytecode": "0x60806040523480156200001157600080fd5b506200001c62000022565b620000e3565b600054610100900460ff16156200008f5760405162461bcd60e51b815260206004820152602760248201527f496e697469616c697a61626c653a20636f6e747261637420697320696e697469604482015266616c697a696e6760c81b606482015260840160405180910390fd5b60005460ff90811614620000e1576000805460ff191660ff9081179091556040519081527f7f26b83ff96e1f2b6a682f133852f6798a09c465da95921460cefb38474024989060200160405180910390a15b565b615f7380620000f36000396000f3fe608060405234801561001057600080fd5b50600436106103135760003560e01c806365f50a8d116101ae57806396b7b14e116100ff578063cd4c8156116100ad578063dee1f0e41161007c578063dee1f0e41461073f578063eb5620db14610752578063f77c479114610765578063ffb86c6a1461076d57600080fd5b8063cd4c8156146106ec578063ceee861d146106ff578063d295ea7014610723578063de3d047c1461072c57600080fd5b806396b7b14e1461065a5780639d0bcca01461066d578063a3f4df7e14610675578063ab9e3eee146106ac578063b2457556146106b3578063b429afeb146106c6578063bd38837b146106d957600080fd5b80637cc963801161015c5780637cc96380146105de5780637d7c2a1c146105e65780637efc77fa146105ee57806380e7ac7c14610612578063877887821461061a57806387c7f77014610623578063936725ec1461063657600080fd5b806365f50a8d146105455780636855f30e146105585780636b5fba5a1461056b5780636ffb4c8e1461057e57806371ee01751461059157806373a50ef51461059a57806378327438146105be57600080fd5b80633cd8045e1161026857806351e03fbe1161021657806351e03fbe146104b057806354679963146104c35780635641ec03146104d8578063569c39cb146104e05780635cfc1a51146105045780636207a0cf1461050e57806363e277341461053257600080fd5b80633cd8045e146104365780634593144c146104495780634ad0b684146104515780634e71d92d146104595780634fa5d854146104615780634fac6ccd1461047e57806351b9c8341461049157600080fd5b8063261efa12116102c5578063261efa12146103cf57806328abdef0146103d8578063321793a8146103e0578063325a19f1146103f357806333c5b58e146103fb578063388cff6b1461040357806338d52e0f1461041657600080fd5b806301e1d1141461031857806301ffc9a7146103335780630acd12c7146103565780630e30428d1461035e578063150b7a02146103735780631865c57d1461039f57806322b6f5e2146103bc575b600080fd5b610320610775565b6040519081526020015b60405180910390f35b610346610341366004614b5e565b610800565b604051901515815260200161032a565b61032061082b565b61037161036c366004614b9d565b61094d565b005b610386610381366004614c8c565b6109f1565b6040516001600160e01b0319909116815260200161032a565b6103a7610a02565b60405161032a99989796959493929190614d64565b6103716103ca366004614e1e565b610e5a565b61032060725481565b610371610f0a565b6103716103ee366004614e4e565b611083565b61032061115c565b610320611190565b610371610411366004614e8c565b611208565b603c54610429906001600160a01b031681565b60405161032a9190614f28565b603d54610429906001600160a01b031681565b6103206114fd565b606e54610320565b61037161152d565b6104696115a7565b6040805192835260208301919091520161032a565b61037161048c366004614f3c565b61160c565b61049961173e565b60408051921515835260208301919091520161032a565b6103206104be366004614e4e565b6117c9565b6104cb611991565b60405161032a9190614fa9565b610371611a1f565b6104cb604051806040016040528060058152602001640312e302e360dc1b81525081565b600160ff1b610320565b6104cb60405180604001604052806005815260200164312e302e3160d81b81525081565b610371610540366004614fbc565b611a9f565b610371610553366004614e4e565b611b26565b610371610566366004614e4e565b611bf4565b610371610579366004614f3c565b611c7c565b61037161058c366004614e4e565b611d0d565b61032060715481565b6104cb604051806040016040528060058152602001640322e332e360dc1b81525081565b6103206105cc366004614f3c565b60706020526000908152604090205481565b610320611d95565b610371611dc5565b6104cb6040518060400160405280600581526020016425bcb132b960d91b81525081565b610346611ea7565b61032060415481565b610320610631366004614b9d565b611f2d565b6104cb604051806040016040528060058152602001640332e302e360dc1b81525081565b6103716106683660046150b6565b6120b8565b610429612157565b6104cb604051806040016040528060188152602001774b7962657220436f6e76657274657220537472617465677960401b81525081565b6001610346565b6103206106c1366004615177565b612187565b6103466106d4366004614f3c565b612236565b606f54610429906001600160a01b031681565b604054610429906001600160a01b031681565b6104cb604051806040016040528060058152602001640312e322e360dc1b81525081565b610320603e5481565b61037161073a366004614e4e565b61225b565b61034661074d366004614f3c565b6122eb565b61037161076036600461519c565b612370565b610429612466565b610346612496565b6000610780606e5490565b603c546040516370a0823160e01b81526001600160a01b03909116906370a08231906107b0903090600401614f28565b602060405180830381865afa1580156107cd573d6000803e3d6000fd5b505050506040513d601f19601f820116820180604052508101906107f191906151ef565b6107fb919061521e565b905090565b60006001600160e01b0319821663f73147b360e01b14806108255750610825826125a0565b92915050565b603d54603c54604051633e53813360e11b81526000926001600160a01b039081169216908390733BEB969c0cd273eA1d7a39137a757Cf1c474510a90637ca702669061087d9086908690600401615231565b602060405180830381865af415801561089a573d6000803e3d6000fd5b505050506040513d601f19601f820116820180604052508101906108be91906151ef565b905060008060006108cd6125c5565b925092509250733BEB969c0cd273eA1d7a39137a757Cf1c474510a639ad00ec2868686868b6040518663ffffffff1660e01b815260040161091295949392919061524b565b60006040518083038186803b15801561092a57600080fd5b505af415801561093e573d6000803e3d6000fd5b50929998505050505050505050565b733C8b18162cBb11B9D0afe3828f4A6C6e247f30E063142395ef61096f612466565b6040516001600160e01b031960e084901b1681526001600160a01b03918216600482015290851660248201526044810184905260640160006040518083038186803b1580156109bd57600080fd5b505af41580156109d1573d6000803e3d6000fd5b5050506001600160a01b0390921660009081526070602052604090205550565b630a85bd0160e11b5b949350505050565b600254600354600480546040805183815260a081019091526001600160a01b0394851694938416936000939216918391829160609182918291906020820160808036833750506004548251929550600160c01b900460020b91859150600090610a6d57610a6d61527b565b600292830b60209182029290920101526004548451600160d81b90910490910b9084906001908110610aa157610aa161527b565b600292830b60209182029290920101526004548451600160a01b909104820b9185918110610ad157610ad161527b565b600292830b60209182029290920101526005548451910b9084906003908110610afc57610afc61527b565b60029290920b602092830291909101909101526005546006546001546001600160a01b03169850600160201b9091046001600160801b0316955093506003604051908082528060200260200182016040528015610b63578160200160208202803683370190505b506040516370a0823160e01b81529092506001600160a01b038a16906370a0823190610b93908a90600401614f28565b602060405180830381865afa158015610bb0573d6000803e3d6000fd5b505050506040513d601f19601f82011682018060405250810190610bd491906151ef565b82600081518110610be757610be761527b565b60209081029190910101526040516370a0823160e01b81526001600160a01b038916906370a0823190610c1e908a90600401614f28565b602060405180830381865afa158015610c3b573d6000803e3d6000fd5b505050506040513d601f19601f82011682018060405250810190610c5f91906151ef565b82600181518110610c7257610c7261527b565b60209081029190910101526040516370a0823160e01b8152731c954e8fe737f99f68fa1ccda3e51ebdb291948c906370a0823190610cb4908a90600401614f28565b602060405180830381865afa158015610cd1573d6000803e3d6000fd5b505050506040513d601f19601f82011682018060405250810190610cf591906151ef565b82600281518110610d0857610d0861527b565b602090810291909101015260408051600480825260a0820190925290816020016020820280368337019050506005548151919250600160a01b900460ff16908290600090610d5857610d5861527b565b91151560209283029190910190910152600a54815160ff9091169082906001908110610d8657610d8661527b565b911515602092830291909101909101526040516304de78eb60e11b81526001600482015273dF1B8F6250f82aD1F6E982cef422b31A4334FD6e906309bcf1d6906024016040805180830381865af4158015610de5573d6000803e3d6000fd5b505050506040513d601f19601f82011682018060405250810190610e099190615291565b82600281518110610e1c57610e1c61527b565b6020026020010183600381518110610e3657610e3661527b565b60200260200101821515151581525082151515158152505050909192939495969798565b733BEB969c0cd273eA1d7a39137a757Cf1c474510a63b4339948610e7c612466565b6040516001600160e01b031960e084901b1681526001600160a01b03918216600482015260248101869052908416604482015260640160006040518083038186803b158015610eca57600080fd5b505af4158015610ede573d6000803e3d6000fd5b505050604192909255604080546001600160a01b0319166001600160a01b039290921691909117905550565b733BEB969c0cd273eA1d7a39137a757Cf1c474510a63493f6edc610f2c612466565b6040518263ffffffff1660e01b8152600401610f489190614f28565b60006040518083038186803b158015610f6057600080fd5b505af4158015610f74573d6000803e3d6000fd5b50506005805460ff60a01b191690555050606f54600254600354604051637fd6c0a160e01b81526001600160a01b0393841660048201529183166024830152919091166044820152739971fDd707a2878Dc201294DcAbef5A0F890158990637fd6c0a190606401602060405180830381865af4158015610ff8573d6000803e3d6000fd5b505050506040513d601f19601f8201168201806040525081019061101c91906151ef565b60016006018190555073dF1B8F6250f82aD1F6E982cef422b31A4334FD6e63f460770b6040518163ffffffff1660e01b815260040160006040518083038186803b15801561106957600080fd5b505af415801561107d573d6000803e3d6000fd5b50505050565b733BEB969c0cd273eA1d7a39137a757Cf1c474510a63493f6edc6110a5612466565b6040518263ffffffff1660e01b81526004016110c19190614f28565b60006040518083038186803b1580156110d957600080fd5b505af41580156110ed573d6000803e3d6000fd5b505050600682905550604051631c77945b60e31b81526004810182905273dF1B8F6250f82aD1F6E982cef422b31A4334FD6e9063e3bca2d89060240160006040518083038186803b15801561114157600080fd5b505af4158015611155573d6000803e3d6000fd5b5050505050565b60006107fb61118c60017f6f55f470bdc9cb5f04223fd822021061668e4dccb43e8727b295106dc9769c8b6152c0565b5490565b6000733BEB969c0cd273eA1d7a39137a757Cf1c474510a63493f6edc6111b4612466565b6040518263ffffffff1660e01b81526004016111d09190614f28565b60006040518083038186803b1580156111e857600080fd5b505af41580156111fc573d6000803e3d6000fd5b505050506107fb6125e0565b600054610100900460ff16158080156112285750600054600160ff909116105b806112425750303b158015611242575060005460ff166001145b6112aa5760405162461bcd60e51b815260206004820152602e60248201527f496e697469616c697a61626c653a20636f6e747261637420697320616c72656160448201526d191e481a5b9a5d1a585b1a5e995960921b60648201526084015b60405180910390fd5b6000805460ff1916600117905580156112cd576000805461ff0019166101001790555b6112d88989896126b1565b73dF1B8F6250f82aD1F6E982cef422b31A4334FD6e634e23f86760018b8a8a8a8a8f6001600160a01b03166338d52e0f6040518163ffffffff1660e01b8152600401602060405180830381865afa158015611337573d6000803e3d6000fd5b505050506040513d601f19601f8201168201806040525081019061135b91906152d3565b6040516001600160e01b031960e08a901b16815260048101979097526001600160a01b03958616602488015293851660448701529184166064860152600290810b60848601520b60a48401521660c482015285151560e48201526101040160006040518083038186803b1580156113d157600080fd5b505af41580156113e5573d6000803e3d6000fd5b5050506009839055506040516318b3a88560e31b81526001600482015273dF1B8F6250f82aD1F6E982cef422b31A4334FD6e9063c59d442890602401600060405180830381865af415801561143e573d6000803e3d6000fd5b505050506040513d6000823e601f3d908101601f191682016040526114669190810190615320565b60429061147390826153f0565b507f13bdeb5b5bb760c04b92d93e56c576c6805359d41a13d3cca178aa7c8526b98460426040516114a491906154af565b60405180910390a180156114f2576000805461ff0019169055604051600181527f7f26b83ff96e1f2b6a682f133852f6798a09c465da95921460cefb38474024989060200160405180910390a15b505050505050505050565b60006107fb61118c60017f812a673dfca07956350df10f8a654925f561d7a0da09bdbe79e653939a14d9f16152c0565b733BEB969c0cd273eA1d7a39137a757Cf1c474510a63d19cc38a61154f612466565b6040518263ffffffff1660e01b815260040161156b9190614f28565b60006040518083038186803b15801561158357600080fd5b505af4158015611597573d6000803e3d6000fd5b505050506115a3612753565b5050565b603d5460408051808201909152600a81526914d08e8811195b9a595960b21b60208201526000918291906001600160a01b031633146115f95760405162461bcd60e51b81526004016112a19190614fa9565b50611604600161280f565b915091509091565b33301461165b5760405162461bcd60e51b815260206004820152601b60248201527f496e637265617365207265766973696f6e20666f7262696464656e000000000060448201526064016112a1565b600061168b61118c60017f22573091f17911fb166032a3d9e0554aa73d31b7b7ddea4a4dd2995650af84bd6152c0565b61169690600161521e565b90506116ca816116c760017f22573091f17911fb166032a3d9e0554aa73d31b7b7ddea4a4dd2995650af84bd6152c0565b55565b6116f9826116c760017fbfaaa2fb63266ff27c2da975f5894955056f50419af651a81f6c5060581857e46152c0565b604080518281526001600160a01b03841660208201527ff27e2ef832a4eb8ed8ec553b875eecd44764cda95b1c24170e281539e0a869c8910160405180910390a15050565b606f546040516347efaccf60e01b8152600160048201526001600160a01b039091166024820152600090819073dF1B8F6250f82aD1F6E982cef422b31A4334FD6e906347efaccf906044016040805180830381865af41580156117a5573d6000803e3d6000fd5b505050506040513d601f19601f82011682018060405250810190611604919061553a565b603d54603c54604051633e53813360e11b81526000926001600160a01b039081169216908390733BEB969c0cd273eA1d7a39137a757Cf1c474510a90637ca702669061181b9086908690600401615231565b602060405180830381865af4158015611838573d6000803e3d6000fd5b505050506040513d601f19601f8201168201806040525081019061185c91906151ef565b9050808511156119085760008061187b61187684896152c0565b612943565b604051631594b05b60e01b81529098509193509150733BEB969c0cd273eA1d7a39137a757Cf1c474510a90631594b05b906118c29087908790879087908c9060040161524b565b602060405180830381865af41580156118df573d6000803e3d6000fd5b505050506040513d601f19601f8201168201806040525081019061190391906151ef565b925050505b6040516333bbb20360e11b815260048101869052602481018290526001600160a01b03808416604483015284166064820152733BEB969c0cd273eA1d7a39137a757Cf1c474510a9063677764069060840160006040518083038186803b15801561197157600080fd5b505af4158015611985573d6000803e3d6000fd5b50505050505050919050565b6042805461199e90615368565b80601f01602080910402602001604051908101604052809291908181526020018280546119ca90615368565b8015611a175780601f106119ec57610100808354040283529160200191611a17565b820191906000526020600020905b8154815290600101906020018083116119fa57829003601f168201915b505050505081565b611a27612974565b733BEB969c0cd273eA1d7a39137a757Cf1c474510a63bd020682611a49612466565b603c54603d5460405160e085901b6001600160e01b03191681526001600160a01b039384166004820152918316602483015291909116604482015260640160006040518083038186803b15801561106957600080fd5b733BEB969c0cd273eA1d7a39137a757Cf1c474510a63eae13e76611ac1612466565b84846040518463ffffffff1660e01b8152600401611ae193929190615568565b60006040518083038186803b158015611af957600080fd5b505af4158015611b0d573d6000803e3d6000fd5b5060429250611b21915083905084836155a8565b505050565b733BEB969c0cd273eA1d7a39137a757Cf1c474510a63493f6edc611b48612466565b6040518263ffffffff1660e01b8152600401611b649190614f28565b60006040518083038186803b158015611b7c57600080fd5b505af4158015611b90573d6000803e3d6000fd5b5050600a546040805180820190915260208082527f4b532d3134204c6971756964697479206d75737420626520756e7374616b656490820152925060ff16159050611bee5760405162461bcd60e51b81526004016112a19190614fa9565b50600955565b733C8b18162cBb11B9D0afe3828f4A6C6e247f30E063a0113d48611c16612466565b6040516001600160e01b031960e084901b1681526001600160a01b0390911660048201526024810184905260440160006040518083038186803b158015611c5c57600080fd5b505af4158015611c70573d6000803e3d6000fd5b50505060729190915550565b733BEB969c0cd273eA1d7a39137a757Cf1c474510a63493f6edc611c9e612466565b6040518263ffffffff1660e01b8152600401611cba9190614f28565b60006040518083038186803b158015611cd257600080fd5b505af4158015611ce6573d6000803e3d6000fd5b5050600180546001600160a01b0319166001600160a01b0394909416939093179092555050565b733C8b18162cBb11B9D0afe3828f4A6C6e247f30E063d2c3cf25611d2f612466565b6040516001600160e01b031960e084901b1681526001600160a01b0390911660048201526024810184905260440160006040518083038186803b158015611d7557600080fd5b505af4158015611d89573d6000803e3d6000fd5b50505060719190915550565b60006107fb61118c60017f22573091f17911fb166032a3d9e0554aa73d31b7b7ddea4a4dd2995650af84bd6152c0565b6000806000611dd2612a77565b606f54603d546040516358d4b9ff60e01b8152600160048201526001600160a01b03928316602482015282841660448201526064810185905260848101869052911660a4820152929550909350915060009073dF1B8F6250f82aD1F6E982cef422b31A4334FD6e906358d4b9ff9060c401600060405180830381865af4158015611e60573d6000803e3d6000fd5b505050506040513d6000823e601f3d908101601f19168201604052611e8891908101906156c2565b90508051600203611e9f57611e9c81612bf6565b50505b611155612c83565b600954604051639ee0b2a960e01b815260009173dF1B8F6250f82aD1F6E982cef422b31A4334FD6e91639ee0b2a991611ee69160040190815260200190565b602060405180830381865af4158015611f03573d6000803e3d6000fd5b505050506040513d601f19601f82011682018060405250810190611f2791906156f6565b15905090565b606f5460408051808201909152600a81526914d08e8811195b9a595960b21b60208201526000916001600160a01b031690338214611f7e5760405162461bcd60e51b81526004016112a19190614fa9565b50600080611f8b86612c97565b915091506000611f9a87612d03565b90508581101561200757600554600160201b90046001600160801b03168015612005576000611fc882612d73565b90507faebc771af58936b05e89b0be7d3f9761480181abcd4a649fbdd01753fda169708282604051611ffb929190615713565b60405180910390a1505b505b739971fDd707a2878Dc201294DcAbef5A0F89015896399c1fde48784868861202d612466565b603c546040516001600160e01b031960e089901b1681526120629695949392916001600160a01b031690607090600401615765565b602060405180830381865af415801561207f573d6000803e3d6000fd5b505050506040513d601f19601f820116820180604052508101906120a391906151ef565b94506120ad612c83565b505050505092915050565b606f5460408051808201909152600a81526914d08e8811195b9a595960b21b6020820152906001600160a01b031633146121055760405162461bcd60e51b81526004016112a19190614fa9565b508151815160408051808201909152600d81526c54532d3139206c656e6774687360981b602082015290821461214e5760405162461bcd60e51b81526004016112a19190614fa9565b5061107d612c83565b60006107fb61118c60017fbfaaa2fb63266ff27c2da975f5894955056f50419af651a81f6c5060581857e46152c0565b603d54603c546040516001625acc3160e01b031981526000928392733BEB969c0cd273eA1d7a39137a757Cf1c474510a9263ffa533cf926121d9926001600160a01b0391821692911690600401615231565b602060405180830381865af41580156121f6573d6000803e3d6000fd5b505050506040513d601f19601f8201168201806040525081019061221a91906151ef565b9050801561222f5761222c8184612dfe565b91505b5092915050565b6000612240612466565b6001600160a01b0316826001600160a01b0316149050919050565b733BEB969c0cd273eA1d7a39137a757Cf1c474510a630568a9d561227d612466565b603e546040516001600160e01b031960e085901b1681526001600160a01b03909216600483015260248201526044810184905260640160006040518083038186803b1580156122cb57600080fd5b505af41580156122df573d6000803e3d6000fd5b505050603e9190915550565b6000816001600160a01b03166122ff612466565b6001600160a01b0316635aa6e6756040518163ffffffff1660e01b8152600401602060405180830381865afa15801561233c573d6000803e3d6000fd5b505050506040513d601f19601f8201168201806040525081019061236091906152d3565b6001600160a01b03161492915050565b60008061237b612a77565b50606f54604080516080810182528a15158152602081018a90526001600160a01b038981168284015260608201899052603d549251633aa0b78160e11b815295975093955060009473dF1B8F6250f82aD1F6E982cef422b31A4334FD6e946375416f02946123f894600194918316938a938c9216906004016157b4565b600060405180830381865af4158015612415573d6000803e3d6000fd5b505050506040513d6000823e601f3d908101601f1916820160405261243d91908101906156c2565b905080516002036124545761245181612bf6565b50505b61245c612c83565b5050505050505050565b60006107fb61118c60017f5165972ef41194f06c5007493031d0b927c20741adcb74403b954009fd2c36186152c0565b6040516304de78eb60e11b8152600160048201526000908190819073dF1B8F6250f82aD1F6E982cef422b31A4334FD6e906309bcf1d6906024016040805180830381865af41580156124ec573d6000803e3d6000fd5b505050506040513d601f19601f820116820180604052508101906125109190615291565b604051636f1cd37160e01b815260016004820152919350915073dF1B8F6250f82aD1F6E982cef422b31A4334FD6e90636f1cd37190602401602060405180830381865af4158015612565573d6000803e3d6000fd5b505050506040513d601f19601f8201168201806040525081019061258991906156f6565b806125915750815b806125995750805b9250505090565b60006001600160e01b0319821663c19fa56160e01b1480610825575061082582612ea8565b60008060006125d5600019612943565b925092509250909192565b603c54600090819081906125fc906001600160a01b0316612c97565b91509150739971fDd707a2878Dc201294DcAbef5A0F890158963c9bce6908361263d6126386005546001600160801b03600160201b9091041690565b612edd565b606f546040516001600160e01b031960e086901b16815261267093929187916001600160a01b039091169060040161582c565b602060405180830381865af415801561268d573d6000803e3d6000fd5b505050506040513d601f19601f8201168201806040525081019061259991906151ef565b600054610100900460ff166126d85760405162461bcd60e51b81526004016112a190615873565b6126e28383612f27565b606f80546001600160a01b0319166001600160a01b03831617905561270b6064620186a06158be565b6071557fe4166dfcf23bbd3e3f764a99dc8fa740554c03c82d6019b81cf265f396f6f2fe61273d6064620186a06158be565b60405190815260200160405180910390a1505050565b60608060008060006127636130ef565b606f549295509093509150733C8b18162cBb11B9D0afe3828f4A6C6e247f30E09063e99de4da906001600160a01b031661279b61316e565b8686866040518663ffffffff1660e01b81526004016127be9594939291906158e0565b600060405180830381865af41580156127db573d6000803e3d6000fd5b505050506040513d6000823e601f3d908101601f1916820160405261280391908101906159ae565b90969095509350505050565b60008060008061281f6001613202565b91509150600061282d6132be565b91965094509050600061287f87801561284557508415155b801561286b5750620186a08560715461285e9190615a07565b61286891906158be565b83115b612876576000612878565b825b8486613397565b915060009050806128c6612893858861521e565b603c5485906128aa906001600160a01b0316612d03565b606e546128b7919061521e565b6128c1919061521e565b613658565b915091506040805187815260208101879052908101899052606081018890526080810183905260a081018290527f3e9abbc366dbf9fe260e2640c06eefbedd7720cf986ae553374e46b804f4ff559060c00160405180910390a161292a828961521e565b612934828961521e565b97509750505050505050915091565b60008060008060006129556001613202565b91509150612964868284613688565b5091989097509095509350505050565b600061297e613d87565b90507f768a28cb3459382a3d2173feb2dad0235f8de680b109872da581a3aa269fe5f4816040516129af9190615a1e565b60405180910390a1603c5460009081906129d1906001600160a01b0316612c97565b606f549193509150739971fDd707a2878Dc201294DcAbef5A0F8901589906358b54f16906001600160a01b0316612a0e612a09612466565b613dab565b846070600019886040518763ffffffff1660e01b8152600401612a3696959493929190615a31565b602060405180830381865af4158015612a53573d6000803e3d6000fd5b505050506040513d601f19601f8201168201806040525081019061214e91906151ef565b6000806000612a84612466565b60405163124fdbb760e21b8152909150733BEB969c0cd273eA1d7a39137a757Cf1c474510a9063493f6edc90612abe908490600401614f28565b60006040518083038186803b158015612ad657600080fd5b505af4158015612aea573d6000803e3d6000fd5b50505050612af6612496565b6040518060400160405280601881526020017712d4cb4e48139bc81c9958985b185b98d9481b995959195960421b81525090612b455760405162461bcd60e51b81526004016112a19190614fa9565b50612b506001613202565b9350839050612b5d610775565b612b6791906152c0565b604051637ed25b6f60e01b81526001600482015290925073dF1B8F6250f82aD1F6E982cef422b31A4334FD6e90637ed25b6f9060240160006040518083038186803b158015612bb557600080fd5b505af4158015612bc9573d6000803e3d6000fd5b5050600554600160201b90046001600160801b0316159150612bf1905057612bef613d87565b505b909192565b6060600073dF1B8F6250f82aD1F6E982cef422b31A4334FD6e6374287da16001856040518363ffffffff1660e01b8152600401612c34929190615713565b600060405180830381865af4158015612c51573d6000803e3d6000fd5b505050506040513d6000823e601f3d908101601f19168201604052612c799190810190615a6e565b9094909350915050565b6000612c8d6125e0565b606e819055919050565b60606000612ca361316e565b9150612caf8284613e0f565b90506000198114156040518060400160405280600f81526020016e53423a2057726f6e672076616c756560881b81525090612cfd5760405162461bcd60e51b81526004016112a19190614fa9565b50915091565b6040516370a0823160e01b81526000906001600160a01b038316906370a0823190612d32903090600401614f28565b602060405180830381865afa158015612d4f573d6000803e3d6000fd5b505050506040513d601f19601f8201168201806040525081019061082591906151ef565b60405163131c667560e01b8152600160048201526001600160801b038216602482015260609073dF1B8F6250f82aD1F6E982cef422b31A4334FD6e9063131c6675906044015b600060405180830381865af4158015612dd6573d6000803e3d6000fd5b505050506040513d6000823e601f3d908101601f1916820160405261082591908101906156c2565b600554600090600160a01b900460ff1615612e97576040805160028082526060820183526000926020830190803683370190505090508381600081518110612e4857612e4861527b565b6020026020010181815250507f59400c8c523464b521238ea8f50e923f2bc64663557e6afec92a97f7efe92d058182604051612e85929190615ab4565b60405180910390a16000915050610825565b612ea18383613e6d565b9050610825565b60006001600160e01b0319821663b7b79fa960e01b148061082557506301ffc9a760e01b6001600160e01b0319831614610825565b60405163df24faf760e01b8152600160048201526001600160801b038216602482015260609073dF1B8F6250f82aD1F6E982cef422b31A4334FD6e9063df24faf790604401612db9565b600054610100900460ff16612f4e5760405162461bcd60e51b81526004016112a190615873565b612f78817fd2de0374d4479f33e63ae5ed6ca772a10463dd883a90c612050b51fab6196400613e94565b612f8182613eea565b60405163b429afeb60e01b81526001600160a01b0382169063b429afeb90612fad908590600401614f28565b602060405180830381865afa158015612fca573d6000803e3d6000fd5b505050506040513d601f19601f82011682018060405250810190612fee91906156f6565b6040518060400160405280600f81526020016e53423a2057726f6e672076616c756560881b815250906130345760405162461bcd60e51b81526004016112a19190614fa9565b50806001600160a01b03166338d52e0f6040518163ffffffff1660e01b8152600401602060405180830381865afa158015613073573d6000803e3d6000fd5b505050506040513d601f19601f8201168201806040525081019061309791906152d3565b603c80546001600160a01b039283166001600160a01b031991821617909155603d80549390921692811692909217905560408054909116739cc199d4353b5fb3e6c8eebc99f5139e0d8ea06b17905550612710604155565b60405163fe94e4db60e01b8152600160048201526060908190819073dF1B8F6250f82aD1F6E982cef422b31A4334FD6e9063fe94e4db90602401600060405180830381865af4158015613146573d6000803e3d6000fd5b505050506040513d6000823e601f3d908101601f191682016040526125d59190810190615ae2565b6040805160028082526060808301845292602083019080368337505060025482519293506001600160a01b0316918391506000906131ae576131ae61527b565b6001600160a01b0392831660209182029290920101526003548251911690829060019081106131df576131df61527b565b60200260200101906001600160a01b031690816001600160a01b03168152505090565b60008082156132af57606e54613216612c83565b603d54604051636e5b9cc760e11b815260048101849052602481018390526001600160a01b039091166044820152909350739971fDd707a2878Dc201294DcAbef5A0F89015899063dcb7398e90606401602060405180830381865af4158015613283573d6000803e3d6000fd5b505050506040513d601f19601f820116820180604052508101906132a791906151ef565b915050915091565b5050606e546000915091565b50565b60008060008060006132ce612753565b600254919350915073dF1B8F6250f82aD1F6E982cef422b31A4334FD6e906334d2ec3d906001600160a01b0316613303612466565b85856040518563ffffffff1660e01b81526004016133249493929190615b69565b602060405180830381865af4158015613341573d6000803e3d6000fd5b505050506040513d601f19601f8201168201806040525081019061336591906151ef565b9450613371828261410f565b603c548590859061338a906001600160a01b0316612d03565b9450945094505050909192565b603c5460009081906001600160a01b0316818587116133b75760006133c1565b6133c186886152c0565b9050620186a0856071546133d59190615a07565b6133df91906158be565b81111561357f57851561348e57603d54733C8b18162cBb11B9D0afe3828f4A6C6e247f30E09063aac2718a90849089906001600160a01b031661342183612d03565b61342b908b61521e565b6040518563ffffffff1660e01b815260040161344a9493929190615ba7565b602060405180830381865af4158015613467573d6000803e3d6000fd5b505050506040513d601f19601f8201168201806040525081019061348b91906151ef565b92505b600061349983612d03565b603c5490915060009081906134b6906001600160a01b0316612c97565b606f5491935091506000906134d6906001600160a01b03168685856141a5565b905060006134e382612bf6565b5090507f59400c8c523464b521238ea8f50e923f2bc64663557e6afec92a97f7efe92d058282604051613517929190615ab4565b60405180910390a16000613529612c83565b9050600061353689612d03565b9050613542878d61521e565b61354c828461521e565b10156135735761355c818361521e565b613566888e61521e565b61357091906152c0565b9a505b5050505050505061364e565b851561364e57600061359083612d03565b9050868110156135b3576135a660008888613688565b909750955061364c915050565b603d54733C8b18162cBb11B9D0afe3828f4A6C6e247f30E09063aac2718a9085908a906001600160a01b03166135e9868c61521e565b6040518563ffffffff1660e01b81526004016136089493929190615ba7565b602060405180830381865af4158015613625573d6000803e3d6000fd5b505050506040513d601f19601f8201168201806040525081019061364991906151ef565b93505b505b5050935093915050565b600080838311156136745761366d84846152c0565b9150613681565b61367e83856152c0565b90505b9250929050565b600080600080613697876143dc565b613732604051806102200160405280600015158152602001606081526020016000815260200160008152602001600081526020016000815260200160608152602001600081526020016060815260200160008152602001600081526020016060815260200160006001600160a01b0316815260200160008152602001600081526020016060815260200160006001600160a01b031681525090565b60001988148082526000935080613751575061374e878961521e565b15155b801561375c57508515155b15613d6e5761376961316e565b6101608201819052603c546001600160a01b039081166101808401819052606f5490911661020084015261379d9190613e0f565b6101a08201526101808101516137b290612d03565b6101c08201526137c061442f565b6020820152600554600160201b90046001600160801b03166040820152600554600160201b90046001600160801b03166060820152610200810151610180820151604051637a55caf360e01b8152739971fDd707a2878Dc201294DcAbef5A0F890158992637a55caf39261383692600401615231565b602060405180830381865af4158015613853573d6000803e3d6000fd5b505050506040513d601f19601f8201168201806040525081019061387791906151ef565b60a08201528051733C8b18162cBb11B9D0afe3828f4A6C6e247f30E09063ec0cc4fd906138ad576138a8898b61521e565b6138b0565b60005b30846101600151856101a001518661020001518c88606001516040518863ffffffff1660e01b81526004016138eb9796959493929190615bd1565b600060405180830381865af4158015613908573d6000803e3d6000fd5b505050506040513d6000823e601f3d908101601f191682016040526139309190810190615c20565b60c08301526080820181905215613a795761394e8160800151612d73565b6101e0820152600554600160201b90046001600160801b0316816060015161397691906152c0565b608082018190526101e08201516040517faebc771af58936b05e89b0be7d3f9761480181abcd4a649fbdd01753fda16970926139b3929091615713565b60405180910390a1739971fDd707a2878Dc201294DcAbef5A0F8901589637a9a23e5826102000151836101600151846101a001518560200151866080015187604001518860c00151896101e001516040518963ffffffff1660e01b8152600401613a24989796959493929190615c5c565b600060405180830381865af4158015613a41573d6000803e3d6000fd5b505050506040513d6000823e601f3d908101601f19168201604052613a699190810190615cde565b60c0830152610100820152613b15565b6102008101516101608201516101a083015160c0840151604051636138ea8560e01b8152739971fDd707a2878Dc201294DcAbef5A0F890158994636138ea8594613ac99491939092600401615d14565b600060405180830381865af4158015613ae6573d6000803e3d6000fd5b505050506040513d6000823e601f3d908101601f19168201604052613b0e91908101906156c2565b6101008201525b739971fDd707a2878Dc201294DcAbef5A0F890158963f1f2b573826101600151836101a001518460c00151856102000151613b51612a09612466565b8751613b68578d8f613b63919061521e565b613b6a565b8e5b88610100015160706040518963ffffffff1660e01b8152600401613b95989796959493929190615d50565b602060405180830381865af4158015613bb2573d6000803e3d6000fd5b505050506040513d601f19601f82011682018060405250810190613bd691906151ef565b8160e001818151613be7919061521e565b9052508615613c9657610180810151603d546101c0830151733C8b18162cBb11B9D0afe3828f4A6C6e247f30E09263aac2718a9290918b916001600160a01b031690613c33908c61521e565b6040518563ffffffff1660e01b8152600401613c529493929190615ba7565b602060405180830381865af4158015613c6f573d6000803e3d6000fd5b505050506040513d601f19601f82011682018060405250810190613c9391906151ef565b91505b613c9e612c83565b610120820152610180810151613cb390612d03565b6101408201526101c0810151613cc9908761521e565b87826101400151836101200151613ce0919061521e565b613cea919061521e565b1015613d385786816101400151826101200151613d07919061521e565b613d11919061521e565b6101c0820151613d21908861521e565b613d2b91906152c0565b613d35908461521e565b92505b670de0b6b3a76400008160a001518260e00151613d559190615a07565b613d5f91906158be565b8160a001519450945050613d7e565b6000806000809450945094509450505b93509350935093565b60606107fb613da66005546001600160801b03600160201b9091041690565b612d73565b6000816001600160a01b0316634046ebae6040518163ffffffff1660e01b8152600401602060405180830381865afa158015613deb573d6000803e3d6000fd5b505050506040513d601f19601f8201168201806040525081019061082591906152d3565b8151600090815b81811015613e6157836001600160a01b0316858281518110613e3a57613e3a61527b565b60200260200101516001600160a01b031603613e595791506108259050565b600101613e16565b50600019949350505050565b6000806000613e7b84613202565b91509150613e8a858284613397565b5095945050505050565b613e9e82826144aa565b6115a35760405162461bcd60e51b815260206004820152601a60248201527f496e74657266616365206973206e6f7420737570706f7274656400000000000060448201526064016112a1565b600054610100900460ff16613f115760405162461bcd60e51b81526004016112a190615873565b6001600160a01b038116613f595760405162461bcd60e51b815260206004820152600f60248201526e2d32b9379031b7b73a3937b63632b960891b60448201526064016112a1565b613f83817f4c2403fdcb3cff9b705d96bf0705858e3390412670a62c8bcba611ca7e20ab86613e94565b60006001600160a01b0316816001600160a01b0316635aa6e6756040518163ffffffff1660e01b8152600401602060405180830381865afa158015613fcc573d6000803e3d6000fd5b505050506040513d601f19601f82011682018060405250810190613ff091906152d3565b6001600160a01b0316036140385760405162461bcd60e51b815260206004820152600f60248201526e5a65726f20676f7665726e616e636560881b60448201526064016112a1565b614067816116c760017f5165972ef41194f06c5007493031d0b927c20741adcb74403b954009fd2c36186152c0565b614096426116c760017f6f55f470bdc9cb5f04223fd822021061668e4dccb43e8727b295106dc9769c8b6152c0565b6140c5436116c760017f812a673dfca07956350df10f8a654925f561d7a0da09bdbe79e653939a14d9f16152c0565b604080516001600160a01b0383168152426020820152438183015290517f1a2dd071001ebf6e03174e3df5b305795a4ad5d41d8fdb9ba41dbbe2367134269181900360600190a150565b81518015611b215760006141238484614588565b9050733C8b18162cBb11B9D0afe3828f4A6C6e247f30E063acf741a3614147612466565b603d546040516001600160e01b031960e085901b16815261417992916001600160a01b03169089908790600401615b69565b60006040518083038186803b15801561419157600080fd5b505af415801561245c573d6000803e3d6000fd5b60606141af612496565b15604051806040016040528060138152602001724b532d31204e65656420726562616c616e636560681b815250906141fa5760405162461bcd60e51b81526004016112a19190614fa9565b50604080516002808252606082018352909160208301908036833701905050600480546005546040516319c75b9360e31b81526001600160a01b03831693810193909352600160c01b8204600290810b6024850152600160d81b90920490910b60448301526301000000900460ff1615156064820152909150600090819073dF1B8F6250f82aD1F6E982cef422b31A4334FD6e9063ce3adc9890608401600060405180830381865af41580156142b4573d6000803e3d6000fd5b505050506040513d6000823e601f3d908101601f191682016040526142dc9190810190615320565b6002549091506142f6906001600160a01b0316878961473b565b60025460035460405163ca27d10d60e01b8152739971fDd707a2878Dc201294DcAbef5A0F89015899263ca27d10d92614349928c9287926001600160a01b03918216929116908d90600090600401615dc6565b6040805180830381865af4158015614365573d6000803e3d6000fd5b505050506040513d601f19601f820116820180604052508101906143899190615e0e565b8460018151811061439c5761439c61527b565b602090810291909101015291506143b382876152c0565b836000815181106143c6576143c661527b565b6020026020010181815250505050949350505050565b6143e4612496565b15604051806040016040528060138152602001724b532d31204e65656420726562616c616e636560681b815250906115a35760405162461bcd60e51b81526004016112a19190614fa9565b6040516327ceccd560e11b81526001600482015260609073dF1B8F6250f82aD1F6E982cef422b31A4334FD6e90634f9d99aa90602401600060405180830381865af4158015614482573d6000803e3d6000fd5b505050506040513d6000823e601f3d908101601f191682016040526107fb91908101906156c2565b60006001600160a01b0383166144f15760405162461bcd60e51b815260206004820152600c60248201526b5a65726f206164647265737360a01b60448201526064016112a1565b823b6000819003614506576000915050610825565b6040516301ffc9a760e01b81526001600160e01b0319841660048201526001600160a01b038516906301ffc9a790602401602060405180830381865afa925050508015614570575060408051601f3d908101601f1916820190925261456d918101906156f6565b60015b1561457e5791506108259050565b5060009392505050565b603c54606f54603e546060926001600160a01b0390811692600092739971fDd707a2878Dc201294DcAbef5A0F89015899263ef50284f92169085906145cb61316e565b6145d6612a09612466565b60708c8c6041546040518a63ffffffff1660e01b815260040161460199989796959493929190615e32565b600060405180830381865af415801561461e573d6000803e3d6000fd5b505050506040513d6000823e601f3d908101601f191682016040526146469190810190615a6e565b603d54604080546072549151631248faf160e21b81526001600160a01b03808916600483015260248201869052938416604482015292166064830152608482015291945091506000908190733C8b18162cBb11B9D0afe3828f4A6C6e247f30E090634923ebc49060a4016040805180830381865af41580156146cc573d6000803e3d6000fd5b505050506040513d601f19601f820116820180604052508101906146f09190615e0e565b915091507f4c300a656bfa0935e36cd55e92634bc20b2b7e0a0ebf424a2a25bfaac3a01e76878684846040516147299493929190615eb6565b60405180910390a15050505092915050565b604051636eb1769f60e11b815282906001600160a01b0385169063dd62ed3e9061476b9030908690600401615231565b602060405180830381865afa158015614788573d6000803e3d6000fd5b505050506040513d601f19601f820116820180604052508101906147ac91906151ef565b1015611b21576147c76001600160a01b0384168260006147db565b611b216001600160a01b03841682600160ff1b5b8015806148545750604051636eb1769f60e11b81526001600160a01b0384169063dd62ed3e906148119030908690600401615231565b602060405180830381865afa15801561482e573d6000803e3d6000fd5b505050506040513d601f19601f8201168201806040525081019061485291906151ef565b155b6148bf5760405162461bcd60e51b815260206004820152603660248201527f5361666545524332303a20617070726f76652066726f6d206e6f6e2d7a65726f60448201527520746f206e6f6e2d7a65726f20616c6c6f77616e636560501b60648201526084016112a1565b604080516001600160a01b03848116602483015260448083018590528351808403909101815260649092018352602080830180516001600160e01b031663095ea7b360e01b17905283518085019094528084527f5361666545524332303a206c6f772d6c6576656c2063616c6c206661696c656490840152611b219286929160009161494f9185169084906149cc565b805190915015611b21578080602001905181019061496d91906156f6565b611b215760405162461bcd60e51b815260206004820152602a60248201527f5361666545524332303a204552433230206f7065726174696f6e20646964206e6044820152691bdd081cdd58d8d9595960b21b60648201526084016112a1565b60606149db84846000856149e5565b90505b9392505050565b606082471015614a465760405162461bcd60e51b815260206004820152602660248201527f416464726573733a20696e73756666696369656e742062616c616e636520666f6044820152651c8818d85b1b60d21b60648201526084016112a1565b600080866001600160a01b03168587604051614a629190615f21565b60006040518083038185875af1925050503d8060008114614a9f576040519150601f19603f3d011682016040523d82523d6000602084013e614aa4565b606091505b5091509150614ab587838387614ac0565b979650505050505050565b60608315614b2f578251600003614b28576001600160a01b0385163b614b285760405162461bcd60e51b815260206004820152601d60248201527f416464726573733a2063616c6c20746f206e6f6e2d636f6e747261637400000060448201526064016112a1565b50816109fa565b6109fa8383815115614b445781518083602001fd5b8060405162461bcd60e51b81526004016112a19190614fa9565b600060208284031215614b7057600080fd5b81356001600160e01b0319811681146149de57600080fd5b6001600160a01b03811681146132bb57600080fd5b60008060408385031215614bb057600080fd5b8235614bbb81614b88565b946020939093013593505050565b634e487b7160e01b600052604160045260246000fd5b604051601f8201601f191681016001600160401b0381118282101715614c0757614c07614bc9565b604052919050565b60006001600160401b03821115614c2857614c28614bc9565b50601f01601f191660200190565b600082601f830112614c4757600080fd5b8135614c5a614c5582614c0f565b614bdf565b818152846020838601011115614c6f57600080fd5b816020850160208301376000918101602001919091529392505050565b60008060008060808587031215614ca257600080fd5b8435614cad81614b88565b93506020850135614cbd81614b88565b92506040850135915060608501356001600160401b03811115614cdf57600080fd5b614ceb87828801614c36565b91505092959194509250565b600081518084526020808501945080840160005b83811015614d2757815187529582019590820190600101614d0b565b509495945050505050565b600081518084526020808501945080840160005b83811015614d27578151151587529582019590820190600101614d46565b6001600160a01b038a81168252898116602080840191909152898216604084015290881660608301526001600160801b038716608083015260a0820186905261012060c08301819052855190830181905260009161014084019187820191845b82811015614de357835160020b85529381019392810192600101614dc4565b5050505082810360e0840152614df98186614cf7565b9050828103610100840152614e0e8185614d32565b9c9b505050505050505050505050565b60008060408385031215614e3157600080fd5b823591506020830135614e4381614b88565b809150509250929050565b600060208284031215614e6057600080fd5b5035919050565b8035600281900b8114614e7957600080fd5b919050565b80151581146132bb57600080fd5b600080600080600080600080610100898b031215614ea957600080fd5b8835614eb481614b88565b97506020890135614ec481614b88565b96506040890135614ed481614b88565b95506060890135614ee481614b88565b9450614ef260808a01614e67565b9350614f0060a08a01614e67565b925060c0890135614f1081614e7e565b8092505060e089013590509295985092959890939650565b6001600160a01b0391909116815260200190565b600060208284031215614f4e57600080fd5b81356149de81614b88565b60005b83811015614f74578181015183820152602001614f5c565b50506000910152565b60008151808452614f95816020860160208601614f59565b601f01601f19169290920160200192915050565b6020815260006149de6020830184614f7d565b60008060208385031215614fcf57600080fd5b82356001600160401b0380821115614fe657600080fd5b818501915085601f830112614ffa57600080fd5b81358181111561500957600080fd5b86602082850101111561501b57600080fd5b60209290920196919550909350505050565b60006001600160401b0382111561504657615046614bc9565b5060051b60200190565b600082601f83011261506157600080fd5b81356020615071614c558361502d565b82815260059290921b8401810191818101908684111561509057600080fd5b8286015b848110156150ab5780358352918301918301615094565b509695505050505050565b600080604083850312156150c957600080fd5b82356001600160401b03808211156150e057600080fd5b818501915085601f8301126150f457600080fd5b81356020615104614c558361502d565b82815260059290921b8401810191818101908984111561512357600080fd5b948201945b8386101561514a57853561513b81614b88565b82529482019490820190615128565b9650508601359250508082111561516057600080fd5b5061516d85828601615050565b9150509250929050565b6000806040838503121561518a57600080fd5b823591506020830135614e4381614e7e565b600080600080608085870312156151b257600080fd5b84356151bd81614e7e565b93506020850135925060408501356151d481614b88565b915060608501356001600160401b03811115614cdf57600080fd5b60006020828403121561520157600080fd5b5051919050565b634e487b7160e01b600052601160045260246000fd5b8082018082111561082557610825615208565b6001600160a01b0392831681529116602082015260400190565b6001600160a01b039586168152602081019490945260408401929092526060830152909116608082015260a00190565b634e487b7160e01b600052603260045260246000fd5b600080604083850312156152a457600080fd5b82516152af81614e7e565b6020840151909250614e4381614e7e565b8181038181111561082557610825615208565b6000602082840312156152e557600080fd5b81516149de81614b88565b60006152fe614c5584614c0f565b905082815283838301111561531257600080fd5b6149de836020830184614f59565b60006020828403121561533257600080fd5b81516001600160401b0381111561534857600080fd5b8201601f8101841361535957600080fd5b61222c848251602084016152f0565b600181811c9082168061537c57607f821691505b60208210810361539c57634e487b7160e01b600052602260045260246000fd5b50919050565b601f821115611b2157600081815260208120601f850160051c810160208610156153c95750805b601f850160051c820191505b818110156153e8578281556001016153d5565b505050505050565b81516001600160401b0381111561540957615409614bc9565b61541d816154178454615368565b846153a2565b602080601f831160018114615452576000841561543a5750858301515b600019600386901b1c1916600185901b1785556153e8565b600085815260208120601f198616915b8281101561548157888601518255948401946001909101908401615462565b508582101561549f5787850151600019600388901b60f8161c191681555b5050505050600190811b01905550565b60006020808352600084546154c381615368565b808487015260406001808416600081146154e457600181146154fe5761552c565b60ff1985168984015283151560051b89018301955061552c565b896000528660002060005b858110156155245781548b8201860152908301908801615509565b8a0184019650505b509398975050505050505050565b6000806040838503121561554d57600080fd5b825161555881614e7e565b6020939093015192949293505050565b6001600160a01b03841681526040602082018190528101829052818360608301376000818301606090810191909152601f909201601f1916010192915050565b6001600160401b038311156155bf576155bf614bc9565b6155d3836155cd8354615368565b836153a2565b6000601f84116001811461560757600085156155ef5750838201355b600019600387901b1c1916600186901b178355611155565b600083815260209020601f19861690835b828110156156385786850135825560209485019460019092019101615618565b50868210156156555760001960f88860031b161c19848701351681555b505060018560011b0183555050505050565b600082601f83011261567857600080fd5b81516020615688614c558361502d565b82815260059290921b840181019181810190868411156156a757600080fd5b8286015b848110156150ab57805183529183019183016156ab565b6000602082840312156156d457600080fd5b81516001600160401b038111156156ea57600080fd5b61222c84828501615667565b60006020828403121561570857600080fd5b81516149de81614e7e565b8281526040602082015260006149db6040830184614cf7565b600081518084526020808501945080840160005b83811015614d275781516001600160a01b031687529582019590820190600101615740565b87815286602082015260e06040820152600061578460e083018861572c565b6001600160a01b0396871660608401529486166080830152509190931660a082015260c001919091529392505050565b868152600060018060a01b03808816602084015286604084015260c060608401528551151560c0840152602086015160e08401528060408701511661010084015260608601516080610120850152615810610140850182614f7d565b6080850196909652509290921660a09091015250949350505050565b60808152600061583f608083018761572c565b82810360208401526158518187614cf7565b604084019590955250506001600160a01b039190911660609091015292915050565b6020808252602b908201527f496e697469616c697a61626c653a20636f6e7472616374206973206e6f74206960408201526a6e697469616c697a696e6760a81b606082015260800190565b6000826158db57634e487b7160e01b600052601260045260246000fd5b500490565b6001600160a01b038616815260a0602082018190526000906159049083018761572c565b8281036040840152615916818761572c565b9050828103606084015261592a8186614cf7565b9050828103608084015261593e8185614cf7565b98975050505050505050565b600082601f83011261595b57600080fd5b8151602061596b614c558361502d565b82815260059290921b8401810191818101908684111561598a57600080fd5b8286015b848110156150ab5780516159a181614b88565b835291830191830161598e565b600080604083850312156159c157600080fd5b82516001600160401b03808211156159d857600080fd5b6159e48683870161594a565b935060208501519150808211156159fa57600080fd5b5061516d85828601615667565b808202811582820484141761082557610825615208565b6020815260006149de6020830184614cf7565b600060018060a01b03808916835280881660208401525085604083015284606083015283608083015260c060a083015261593e60c083018461572c565b60008060408385031215615a8157600080fd5b82516001600160401b03811115615a9757600080fd5b615aa385828601615667565b925050602083015190509250929050565b604081526000615ac76040830185614cf7565b8281036020840152615ad98185614cf7565b95945050505050565b600080600060608486031215615af757600080fd5b83516001600160401b0380821115615b0e57600080fd5b615b1a8783880161594a565b94506020860151915080821115615b3057600080fd5b615b3c87838801615667565b93506040860151915080821115615b5257600080fd5b50615b5f86828701615667565b9150509250925092565b6001600160a01b03858116825284166020820152608060408201819052600090615b959083018561572c565b8281036060840152614ab58185614cf7565b6001600160a01b039485168152602081019390935292166040820152606081019190915260800190565b878152600060018060a01b03808916602084015260e06040840152615bf960e084018961572c565b606084019790975294909416608082015260a081019290925260c090910152509392505050565b60008060408385031215615c3357600080fd5b8251915060208301516001600160401b03811115615c5057600080fd5b61516d85828601615667565b6001600160a01b038916815261010060208201819052600090615c818382018b61572c565b90508860408401528281036060840152615c9b8189614cf7565b90508660808401528560a084015282810360c0840152615cbb8186614cf7565b905082810360e0840152615ccf8185614cf7565b9b9a5050505050505050505050565b60008060408385031215615cf157600080fd5b82516001600160401b0380821115615d0857600080fd5b6159e486838701615667565b6001600160a01b0385168152608060208201819052600090615d389083018661572c565b8460408401528281036060840152614ab58185614cf7565b6000610100808352615d648184018c61572c565b90508960208401528281036040840152615d7e818a614cf7565b6001600160a01b0389811660608601528816608085015260a0840187905283810360c08501529050615db08186614cf7565b9150508260e08301529998505050505050505050565b600060018060a01b03808916835260c06020840152615de860c0840189614f7d565b9681166040840152949094166060820152608081019290925260a0909101525092915050565b60008060408385031215615e2157600080fd5b505080516020909101519092909150565b6001600160a01b038a8116825289811660208301526040820189905261012060608301819052600091615e678483018b61572c565b91508089166080850152508660a084015282810360c0840152615e8a818761572c565b905082810360e0840152615e9e8186614cf7565b915050826101008301529a9950505050505050505050565b6080808252855190820181905260009060209060a0840190828901845b82811015615ef85781516001600160a01b031684529284019290840190600101615ed3565b50505083810382850152615f0c8188614cf7565b60408501969096525050506060015292915050565b60008251615f33818460208701614f59565b919091019291505056fea26469706673582212206d90b21467ef5c985cf3f838b4be60d9316a266ae2b6239c9dbc8dd33cea316a64736f6c63430008110033",
  "deployedBytecode": "0x608060405234801561001057600080fd5b50600436106103135760003560e01c806365f50a8d116101ae57806396b7b14e116100ff578063cd4c8156116100ad578063dee1f0e41161007c578063dee1f0e41461073f578063eb5620db14610752578063f77c479114610765578063ffb86c6a1461076d57600080fd5b8063cd4c8156146106ec578063ceee861d146106ff578063d295ea7014610723578063de3d047c1461072c57600080fd5b806396b7b14e1461065a5780639d0bcca01461066d578063a3f4df7e14610675578063ab9e3eee146106ac578063b2457556146106b3578063b429afeb146106c6578063bd38837b146106d957600080fd5b80637cc963801161015c5780637cc96380146105de5780637d7c2a1c146105e65780637efc77fa146105ee57806380e7ac7c14610612578063877887821461061a57806387c7f77014610623578063936725ec1461063657600080fd5b806365f50a8d146105455780636855f30e146105585780636b5fba5a1461056b5780636ffb4c8e1461057e57806371ee01751461059157806373a50ef51461059a57806378327438146105be57600080fd5b80633cd8045e1161026857806351e03fbe1161021657806351e03fbe146104b057806354679963146104c35780635641ec03146104d8578063569c39cb146104e05780635cfc1a51146105045780636207a0cf1461050e57806363e277341461053257600080fd5b80633cd8045e146104365780634593144c146104495780634ad0b684146104515780634e71d92d146104595780634fa5d854146104615780634fac6ccd1461047e57806351b9c8341461049157600080fd5b8063261efa12116102c5578063261efa12146103cf57806328abdef0146103d8578063321793a8146103e0578063325a19f1146103f357806333c5b58e146103fb578063388cff6b1461040357806338d52e0f1461041657600080fd5b806301e1d1141461031857806301ffc9a7146103335780630acd12c7146103565780630e30428d1461035e578063150b7a02146103735780631865c57d1461039f57806322b6f5e2146103bc575b600080fd5b610320610775565b6040519081526020015b60405180910390f35b610346610341366004614b5e565b610800565b604051901515815260200161032a565b61032061082b565b61037161036c366004614b9d565b61094d565b005b610386610381366004614c8c565b6109f1565b6040516001600160e01b0319909116815260200161032a565b6103a7610a02565b60405161032a99989796959493929190614d64565b6103716103ca366004614e1e565b610e5a565b61032060725481565b610371610f0a565b6103716103ee366004614e4e565b611083565b61032061115c565b610320611190565b610371610411366004614e8c565b611208565b603c54610429906001600160a01b031681565b60405161032a9190614f28565b603d54610429906001600160a01b031681565b6103206114fd565b606e54610320565b61037161152d565b6104696115a7565b6040805192835260208301919091520161032a565b61037161048c366004614f3c565b61160c565b61049961173e565b60408051921515835260208301919091520161032a565b6103206104be366004614e4e565b6117c9565b6104cb611991565b60405161032a9190614fa9565b610371611a1f565b6104cb604051806040016040528060058152602001640312e302e360dc1b81525081565b600160ff1b610320565b6104cb60405180604001604052806005815260200164312e302e3160d81b81525081565b610371610540366004614fbc565b611a9f565b610371610553366004614e4e565b611b26565b610371610566366004614e4e565b611bf4565b610371610579366004614f3c565b611c7c565b61037161058c366004614e4e565b611d0d565b61032060715481565b6104cb604051806040016040528060058152602001640322e332e360dc1b81525081565b6103206105cc366004614f3c565b60706020526000908152604090205481565b610320611d95565b610371611dc5565b6104cb6040518060400160405280600581526020016425bcb132b960d91b81525081565b610346611ea7565b61032060415481565b610320610631366004614b9d565b611f2d565b6104cb604051806040016040528060058152602001640332e302e360dc1b81525081565b6103716106683660046150b6565b6120b8565b610429612157565b6104cb604051806040016040528060188152602001774b7962657220436f6e76657274657220537472617465677960401b81525081565b6001610346565b6103206106c1366004615177565b612187565b6103466106d4366004614f3c565b612236565b606f54610429906001600160a01b031681565b604054610429906001600160a01b031681565b6104cb604051806040016040528060058152602001640312e322e360dc1b81525081565b610320603e5481565b61037161073a366004614e4e565b61225b565b61034661074d366004614f3c565b6122eb565b61037161076036600461519c565b612370565b610429612466565b610346612496565b6000610780606e5490565b603c546040516370a0823160e01b81526001600160a01b03909116906370a08231906107b0903090600401614f28565b602060405180830381865afa1580156107cd573d6000803e3d6000fd5b505050506040513d601f19601f820116820180604052508101906107f191906151ef565b6107fb919061521e565b905090565b60006001600160e01b0319821663f73147b360e01b14806108255750610825826125a0565b92915050565b603d54603c54604051633e53813360e11b81526000926001600160a01b03908116921690839073__$ec217c54da363a68ad871e6868efec481c$__90637ca702669061087d9086908690600401615231565b602060405180830381865af415801561089a573d6000803e3d6000fd5b505050506040513d601f19601f820116820180604052508101906108be91906151ef565b905060008060006108cd6125c5565b92509250925073__$ec217c54da363a68ad871e6868efec481c$__639ad00ec2868686868b6040518663ffffffff1660e01b815260040161091295949392919061524b565b60006040518083038186803b15801561092a57600080fd5b505af415801561093e573d6000803e3d6000fd5b50929998505050505050505050565b73__$8f1afe7577f9ab973017c74eca19b86f3c$__63142395ef61096f612466565b6040516001600160e01b031960e084901b1681526001600160a01b03918216600482015290851660248201526044810184905260640160006040518083038186803b1580156109bd57600080fd5b505af41580156109d1573d6000803e3d6000fd5b5050506001600160a01b0390921660009081526070602052604090205550565b630a85bd0160e11b5b949350505050565b600254600354600480546040805183815260a081019091526001600160a01b0394851694938416936000939216918391829160609182918291906020820160808036833750506004548251929550600160c01b900460020b91859150600090610a6d57610a6d61527b565b600292830b60209182029290920101526004548451600160d81b90910490910b9084906001908110610aa157610aa161527b565b600292830b60209182029290920101526004548451600160a01b909104820b9185918110610ad157610ad161527b565b600292830b60209182029290920101526005548451910b9084906003908110610afc57610afc61527b565b60029290920b602092830291909101909101526005546006546001546001600160a01b03169850600160201b9091046001600160801b0316955093506003604051908082528060200260200182016040528015610b63578160200160208202803683370190505b506040516370a0823160e01b81529092506001600160a01b038a16906370a0823190610b93908a90600401614f28565b602060405180830381865afa158015610bb0573d6000803e3d6000fd5b505050506040513d601f19601f82011682018060405250810190610bd491906151ef565b82600081518110610be757610be761527b565b60209081029190910101526040516370a0823160e01b81526001600160a01b038916906370a0823190610c1e908a90600401614f28565b602060405180830381865afa158015610c3b573d6000803e3d6000fd5b505050506040513d601f19601f82011682018060405250810190610c5f91906151ef565b82600181518110610c7257610c7261527b565b60209081029190910101526040516370a0823160e01b8152731c954e8fe737f99f68fa1ccda3e51ebdb291948c906370a0823190610cb4908a90600401614f28565b602060405180830381865afa158015610cd1573d6000803e3d6000fd5b505050506040513d601f19601f82011682018060405250810190610cf591906151ef565b82600281518110610d0857610d0861527b565b602090810291909101015260408051600480825260a0820190925290816020016020820280368337019050506005548151919250600160a01b900460ff16908290600090610d5857610d5861527b565b91151560209283029190910190910152600a54815160ff9091169082906001908110610d8657610d8661527b565b911515602092830291909101909101526040516304de78eb60e11b81526001600482015273__$0dcf4453b1418804c305d2bbf5bd62b729$__906309bcf1d6906024016040805180830381865af4158015610de5573d6000803e3d6000fd5b505050506040513d601f19601f82011682018060405250810190610e099190615291565b82600281518110610e1c57610e1c61527b565b6020026020010183600381518110610e3657610e3661527b565b60200260200101821515151581525082151515158152505050909192939495969798565b73__$ec217c54da363a68ad871e6868efec481c$__63b4339948610e7c612466565b6040516001600160e01b031960e084901b1681526001600160a01b03918216600482015260248101869052908416604482015260640160006040518083038186803b158015610eca57600080fd5b505af4158015610ede573d6000803e3d6000fd5b505050604192909255604080546001600160a01b0319166001600160a01b039290921691909117905550565b73__$ec217c54da363a68ad871e6868efec481c$__63493f6edc610f2c612466565b6040518263ffffffff1660e01b8152600401610f489190614f28565b60006040518083038186803b158015610f6057600080fd5b505af4158015610f74573d6000803e3d6000fd5b50506005805460ff60a01b191690555050606f54600254600354604051637fd6c0a160e01b81526001600160a01b039384166004820152918316602483015291909116604482015273__$e930d50fb5f4f1298547dbcb2bb0591990$__90637fd6c0a190606401602060405180830381865af4158015610ff8573d6000803e3d6000fd5b505050506040513d601f19601f8201168201806040525081019061101c91906151ef565b60016006018190555073__$0dcf4453b1418804c305d2bbf5bd62b729$__63f460770b6040518163ffffffff1660e01b815260040160006040518083038186803b15801561106957600080fd5b505af415801561107d573d6000803e3d6000fd5b50505050565b73__$ec217c54da363a68ad871e6868efec481c$__63493f6edc6110a5612466565b6040518263ffffffff1660e01b81526004016110c19190614f28565b60006040518083038186803b1580156110d957600080fd5b505af41580156110ed573d6000803e3d6000fd5b505050600682905550604051631c77945b60e31b81526004810182905273__$0dcf4453b1418804c305d2bbf5bd62b729$__9063e3bca2d89060240160006040518083038186803b15801561114157600080fd5b505af4158015611155573d6000803e3d6000fd5b5050505050565b60006107fb61118c60017f6f55f470bdc9cb5f04223fd822021061668e4dccb43e8727b295106dc9769c8b6152c0565b5490565b600073__$ec217c54da363a68ad871e6868efec481c$__63493f6edc6111b4612466565b6040518263ffffffff1660e01b81526004016111d09190614f28565b60006040518083038186803b1580156111e857600080fd5b505af41580156111fc573d6000803e3d6000fd5b505050506107fb6125e0565b600054610100900460ff16158080156112285750600054600160ff909116105b806112425750303b158015611242575060005460ff166001145b6112aa5760405162461bcd60e51b815260206004820152602e60248201527f496e697469616c697a61626c653a20636f6e747261637420697320616c72656160448201526d191e481a5b9a5d1a585b1a5e995960921b60648201526084015b60405180910390fd5b6000805460ff1916600117905580156112cd576000805461ff0019166101001790555b6112d88989896126b1565b73__$0dcf4453b1418804c305d2bbf5bd62b729$__634e23f86760018b8a8a8a8a8f6001600160a01b03166338d52e0f6040518163ffffffff1660e01b8152600401602060405180830381865afa158015611337573d6000803e3d6000fd5b505050506040513d601f19601f8201168201806040525081019061135b91906152d3565b6040516001600160e01b031960e08a901b16815260048101979097526001600160a01b03958616602488015293851660448701529184166064860152600290810b60848601520b60a48401521660c482015285151560e48201526101040160006040518083038186803b1580156113d157600080fd5b505af41580156113e5573d6000803e3d6000fd5b5050506009839055506040516318b3a88560e31b81526001600482015273__$0dcf4453b1418804c305d2bbf5bd62b729$__9063c59d442890602401600060405180830381865af415801561143e573d6000803e3d6000fd5b505050506040513d6000823e601f3d908101601f191682016040526114669190810190615320565b60429061147390826153f0565b507f13bdeb5b5bb760c04b92d93e56c576c6805359d41a13d3cca178aa7c8526b98460426040516114a491906154af565b60405180910390a180156114f2576000805461ff0019169055604051600181527f7f26b83ff96e1f2b6a682f133852f6798a09c465da95921460cefb38474024989060200160405180910390a15b505050505050505050565b60006107fb61118c60017f812a673dfca07956350df10f8a654925f561d7a0da09bdbe79e653939a14d9f16152c0565b73__$ec217c54da363a68ad871e6868efec481c$__63d19cc38a61154f612466565b6040518263ffffffff1660e01b815260040161156b9190614f28565b60006040518083038186803b15801561158357600080fd5b505af4158015611597573d6000803e3d6000fd5b505050506115a3612753565b5050565b603d5460408051808201909152600a81526914d08e8811195b9a595960b21b60208201526000918291906001600160a01b031633146115f95760405162461bcd60e51b81526004016112a19190614fa9565b50611604600161280f565b915091509091565b33301461165b5760405162461bcd60e51b815260206004820152601b60248201527f496e637265617365207265766973696f6e20666f7262696464656e000000000060448201526064016112a1565b600061168b61118c60017f22573091f17911fb166032a3d9e0554aa73d31b7b7ddea4a4dd2995650af84bd6152c0565b61169690600161521e565b90506116ca816116c760017f22573091f17911fb166032a3d9e0554aa73d31b7b7ddea4a4dd2995650af84bd6152c0565b55565b6116f9826116c760017fbfaaa2fb63266ff27c2da975f5894955056f50419af651a81f6c5060581857e46152c0565b604080518281526001600160a01b03841660208201527ff27e2ef832a4eb8ed8ec553b875eecd44764cda95b1c24170e281539e0a869c8910160405180910390a15050565b606f546040516347efaccf60e01b8152600160048201526001600160a01b039091166024820152600090819073__$0dcf4453b1418804c305d2bbf5bd62b729$__906347efaccf906044016040805180830381865af41580156117a5573d6000803e3d6000fd5b505050506040513d601f19601f82011682018060405250810190611604919061553a565b603d54603c54604051633e53813360e11b81526000926001600160a01b03908116921690839073__$ec217c54da363a68ad871e6868efec481c$__90637ca702669061181b9086908690600401615231565b602060405180830381865af4158015611838573d6000803e3d6000fd5b505050506040513d601f19601f8201168201806040525081019061185c91906151ef565b9050808511156119085760008061187b61187684896152c0565b612943565b604051631594b05b60e01b8152909850919350915073__$ec217c54da363a68ad871e6868efec481c$__90631594b05b906118c29087908790879087908c9060040161524b565b602060405180830381865af41580156118df573d6000803e3d6000fd5b505050506040513d601f19601f8201168201806040525081019061190391906151ef565b925050505b6040516333bbb20360e11b815260048101869052602481018290526001600160a01b0380841660448301528416606482015273__$ec217c54da363a68ad871e6868efec481c$__9063677764069060840160006040518083038186803b15801561197157600080fd5b505af4158015611985573d6000803e3d6000fd5b50505050505050919050565b6042805461199e90615368565b80601f01602080910402602001604051908101604052809291908181526020018280546119ca90615368565b8015611a175780601f106119ec57610100808354040283529160200191611a17565b820191906000526020600020905b8154815290600101906020018083116119fa57829003601f168201915b505050505081565b611a27612974565b73__$ec217c54da363a68ad871e6868efec481c$__63bd020682611a49612466565b603c54603d5460405160e085901b6001600160e01b03191681526001600160a01b039384166004820152918316602483015291909116604482015260640160006040518083038186803b15801561106957600080fd5b73__$ec217c54da363a68ad871e6868efec481c$__63eae13e76611ac1612466565b84846040518463ffffffff1660e01b8152600401611ae193929190615568565b60006040518083038186803b158015611af957600080fd5b505af4158015611b0d573d6000803e3d6000fd5b5060429250611b21915083905084836155a8565b505050565b73__$ec217c54da363a68ad871e6868efec481c$__63493f6edc611b48612466565b6040518263ffffffff1660e01b8152600401611b649190614f28565b60006040518083038186803b158015611b7c57600080fd5b505af4158015611b90573d6000803e3d6000fd5b5050600a546040805180820190915260208082527f4b532d3134204c6971756964697479206d75737420626520756e7374616b656490820152925060ff16159050611bee5760405162461bcd60e51b81526004016112a19190614fa9565b50600955565b73__$8f1afe7577f9ab973017c74eca19b86f3c$__63a0113d48611c16612466565b6040516001600160e01b031960e084901b1681526001600160a01b0390911660048201526024810184905260440160006040518083038186803b158015611c5c57600080fd5b505af4158015611c70573d6000803e3d6000fd5b50505060729190915550565b73__$ec217c54da363a68ad871e6868efec481c$__63493f6edc611c9e612466565b6040518263ffffffff1660e01b8152600401611cba9190614f28565b60006040518083038186803b158015611cd257600080fd5b505af4158015611ce6573d6000803e3d6000fd5b5050600180546001600160a01b0319166001600160a01b0394909416939093179092555050565b73__$8f1afe7577f9ab973017c74eca19b86f3c$__63d2c3cf25611d2f612466565b6040516001600160e01b031960e084901b1681526001600160a01b0390911660048201526024810184905260440160006040518083038186803b158015611d7557600080fd5b505af4158015611d89573d6000803e3d6000fd5b50505060719190915550565b60006107fb61118c60017f22573091f17911fb166032a3d9e0554aa73d31b7b7ddea4a4dd2995650af84bd6152c0565b6000806000611dd2612a77565b606f54603d546040516358d4b9ff60e01b8152600160048201526001600160a01b03928316602482015282841660448201526064810185905260848101869052911660a4820152929550909350915060009073__$0dcf4453b1418804c305d2bbf5bd62b729$__906358d4b9ff9060c401600060405180830381865af4158015611e60573d6000803e3d6000fd5b505050506040513d6000823e601f3d908101601f19168201604052611e8891908101906156c2565b90508051600203611e9f57611e9c81612bf6565b50505b611155612c83565b600954604051639ee0b2a960e01b815260009173__$0dcf4453b1418804c305d2bbf5bd62b729$__91639ee0b2a991611ee69160040190815260200190565b602060405180830381865af4158015611f03573d6000803e3d6000fd5b505050506040513d601f19601f82011682018060405250810190611f2791906156f6565b15905090565b606f5460408051808201909152600a81526914d08e8811195b9a595960b21b60208201526000916001600160a01b031690338214611f7e5760405162461bcd60e51b81526004016112a19190614fa9565b50600080611f8b86612c97565b915091506000611f9a87612d03565b90508581101561200757600554600160201b90046001600160801b03168015612005576000611fc882612d73565b90507faebc771af58936b05e89b0be7d3f9761480181abcd4a649fbdd01753fda169708282604051611ffb929190615713565b60405180910390a1505b505b73__$e930d50fb5f4f1298547dbcb2bb0591990$__6399c1fde48784868861202d612466565b603c546040516001600160e01b031960e089901b1681526120629695949392916001600160a01b031690607090600401615765565b602060405180830381865af415801561207f573d6000803e3d6000fd5b505050506040513d601f19601f820116820180604052508101906120a391906151ef565b94506120ad612c83565b505050505092915050565b606f5460408051808201909152600a81526914d08e8811195b9a595960b21b6020820152906001600160a01b031633146121055760405162461bcd60e51b81526004016112a19190614fa9565b508151815160408051808201909152600d81526c54532d3139206c656e6774687360981b602082015290821461214e5760405162461bcd60e51b81526004016112a19190614fa9565b5061107d612c83565b60006107fb61118c60017fbfaaa2fb63266ff27c2da975f5894955056f50419af651a81f6c5060581857e46152c0565b603d54603c546040516001625acc3160e01b03198152600092839273__$ec217c54da363a68ad871e6868efec481c$__9263ffa533cf926121d9926001600160a01b0391821692911690600401615231565b602060405180830381865af41580156121f6573d6000803e3d6000fd5b505050506040513d601f19601f8201168201806040525081019061221a91906151ef565b9050801561222f5761222c8184612dfe565b91505b5092915050565b6000612240612466565b6001600160a01b0316826001600160a01b0316149050919050565b73__$ec217c54da363a68ad871e6868efec481c$__630568a9d561227d612466565b603e546040516001600160e01b031960e085901b1681526001600160a01b03909216600483015260248201526044810184905260640160006040518083038186803b1580156122cb57600080fd5b505af41580156122df573d6000803e3d6000fd5b505050603e9190915550565b6000816001600160a01b03166122ff612466565b6001600160a01b0316635aa6e6756040518163ffffffff1660e01b8152600401602060405180830381865afa15801561233c573d6000803e3d6000fd5b505050506040513d601f19601f8201168201806040525081019061236091906152d3565b6001600160a01b03161492915050565b60008061237b612a77565b50606f54604080516080810182528a15158152602081018a90526001600160a01b038981168284015260608201899052603d549251633aa0b78160e11b815295975093955060009473__$0dcf4453b1418804c305d2bbf5bd62b729$__946375416f02946123f894600194918316938a938c9216906004016157b4565b600060405180830381865af4158015612415573d6000803e3d6000fd5b505050506040513d6000823e601f3d908101601f1916820160405261243d91908101906156c2565b905080516002036124545761245181612bf6565b50505b61245c612c83565b5050505050505050565b60006107fb61118c60017f5165972ef41194f06c5007493031d0b927c20741adcb74403b954009fd2c36186152c0565b6040516304de78eb60e11b8152600160048201526000908190819073__$0dcf4453b1418804c305d2bbf5bd62b729$__906309bcf1d6906024016040805180830381865af41580156124ec573d6000803e3d6000fd5b505050506040513d601f19601f820116820180604052508101906125109190615291565b604051636f1cd37160e01b815260016004820152919350915073__$0dcf4453b1418804c305d2bbf5bd62b729$__90636f1cd37190602401602060405180830381865af4158015612565573d6000803e3d6000fd5b505050506040513d601f19601f8201168201806040525081019061258991906156f6565b806125915750815b806125995750805b9250505090565b60006001600160e01b0319821663c19fa56160e01b1480610825575061082582612ea8565b60008060006125d5600019612943565b925092509250909192565b603c54600090819081906125fc906001600160a01b0316612c97565b9150915073__$e930d50fb5f4f1298547dbcb2bb0591990$__63c9bce6908361263d6126386005546001600160801b03600160201b9091041690565b612edd565b606f546040516001600160e01b031960e086901b16815261267093929187916001600160a01b039091169060040161582c565b602060405180830381865af415801561268d573d6000803e3d6000fd5b505050506040513d601f19601f8201168201806040525081019061259991906151ef565b600054610100900460ff166126d85760405162461bcd60e51b81526004016112a190615873565b6126e28383612f27565b606f80546001600160a01b0319166001600160a01b03831617905561270b6064620186a06158be565b6071557fe4166dfcf23bbd3e3f764a99dc8fa740554c03c82d6019b81cf265f396f6f2fe61273d6064620186a06158be565b60405190815260200160405180910390a1505050565b60608060008060006127636130ef565b606f54929550909350915073__$8f1afe7577f9ab973017c74eca19b86f3c$__9063e99de4da906001600160a01b031661279b61316e565b8686866040518663ffffffff1660e01b81526004016127be9594939291906158e0565b600060405180830381865af41580156127db573d6000803e3d6000fd5b505050506040513d6000823e601f3d908101601f1916820160405261280391908101906159ae565b90969095509350505050565b60008060008061281f6001613202565b91509150600061282d6132be565b91965094509050600061287f87801561284557508415155b801561286b5750620186a08560715461285e9190615a07565b61286891906158be565b83115b612876576000612878565b825b8486613397565b915060009050806128c6612893858861521e565b603c5485906128aa906001600160a01b0316612d03565b606e546128b7919061521e565b6128c1919061521e565b613658565b915091506040805187815260208101879052908101899052606081018890526080810183905260a081018290527f3e9abbc366dbf9fe260e2640c06eefbedd7720cf986ae553374e46b804f4ff559060c00160405180910390a161292a828961521e565b612934828961521e565b97509750505050505050915091565b60008060008060006129556001613202565b91509150612964868284613688565b5091989097509095509350505050565b600061297e613d87565b90507f768a28cb3459382a3d2173feb2dad0235f8de680b109872da581a3aa269fe5f4816040516129af9190615a1e565b60405180910390a1603c5460009081906129d1906001600160a01b0316612c97565b606f54919350915073__$e930d50fb5f4f1298547dbcb2bb0591990$__906358b54f16906001600160a01b0316612a0e612a09612466565b613dab565b846070600019886040518763ffffffff1660e01b8152600401612a3696959493929190615a31565b602060405180830381865af4158015612a53573d6000803e3d6000fd5b505050506040513d601f19601f8201168201806040525081019061214e91906151ef565b6000806000612a84612466565b60405163124fdbb760e21b815290915073__$ec217c54da363a68ad871e6868efec481c$__9063493f6edc90612abe908490600401614f28565b60006040518083038186803b158015612ad657600080fd5b505af4158015612aea573d6000803e3d6000fd5b50505050612af6612496565b6040518060400160405280601881526020017712d4cb4e48139bc81c9958985b185b98d9481b995959195960421b81525090612b455760405162461bcd60e51b81526004016112a19190614fa9565b50612b506001613202565b9350839050612b5d610775565b612b6791906152c0565b604051637ed25b6f60e01b81526001600482015290925073__$0dcf4453b1418804c305d2bbf5bd62b729$__90637ed25b6f9060240160006040518083038186803b158015612bb557600080fd5b505af4158015612bc9573d6000803e3d6000fd5b5050600554600160201b90046001600160801b0316159150612bf1905057612bef613d87565b505b909192565b6060600073__$0dcf4453b1418804c305d2bbf5bd62b729$__6374287da16001856040518363ffffffff1660e01b8152600401612c34929190615713565b600060405180830381865af4158015612c51573d6000803e3d6000fd5b505050506040513d6000823e601f3d908101601f19168201604052612c799190810190615a6e565b9094909350915050565b6000612c8d6125e0565b606e819055919050565b60606000612ca361316e565b9150612caf8284613e0f565b90506000198114156040518060400160405280600f81526020016e53423a2057726f6e672076616c756560881b81525090612cfd5760405162461bcd60e51b81526004016112a19190614fa9565b50915091565b6040516370a0823160e01b81526000906001600160a01b038316906370a0823190612d32903090600401614f28565b602060405180830381865afa158015612d4f573d6000803e3d6000fd5b505050506040513d601f19601f8201168201806040525081019061082591906151ef565b60405163131c667560e01b8152600160048201526001600160801b038216602482015260609073__$0dcf4453b1418804c305d2bbf5bd62b729$__9063131c6675906044015b600060405180830381865af4158015612dd6573d6000803e3d6000fd5b505050506040513d6000823e601f3d908101601f1916820160405261082591908101906156c2565b600554600090600160a01b900460ff1615612e97576040805160028082526060820183526000926020830190803683370190505090508381600081518110612e4857612e4861527b565b6020026020010181815250507f59400c8c523464b521238ea8f50e923f2bc64663557e6afec92a97f7efe92d058182604051612e85929190615ab4565b60405180910390a16000915050610825565b612ea18383613e6d565b9050610825565b60006001600160e01b0319821663b7b79fa960e01b148061082557506301ffc9a760e01b6001600160e01b0319831614610825565b60405163df24faf760e01b8152600160048201526001600160801b038216602482015260609073__$0dcf4453b1418804c305d2bbf5bd62b729$__9063df24faf790604401612db9565b600054610100900460ff16612f4e5760405162461bcd60e51b81526004016112a190615873565b612f78817fd2de0374d4479f33e63ae5ed6ca772a10463dd883a90c612050b51fab6196400613e94565b612f8182613eea565b60405163b429afeb60e01b81526001600160a01b0382169063b429afeb90612fad908590600401614f28565b602060405180830381865afa158015612fca573d6000803e3d6000fd5b505050506040513d601f19601f82011682018060405250810190612fee91906156f6565b6040518060400160405280600f81526020016e53423a2057726f6e672076616c756560881b815250906130345760405162461bcd60e51b81526004016112a19190614fa9565b50806001600160a01b03166338d52e0f6040518163ffffffff1660e01b8152600401602060405180830381865afa158015613073573d6000803e3d6000fd5b505050506040513d601f19601f8201168201806040525081019061309791906152d3565b603c80546001600160a01b039283166001600160a01b031991821617909155603d80549390921692811692909217905560408054909116739cc199d4353b5fb3e6c8eebc99f5139e0d8ea06b17905550612710604155565b60405163fe94e4db60e01b8152600160048201526060908190819073__$0dcf4453b1418804c305d2bbf5bd62b729$__9063fe94e4db90602401600060405180830381865af4158015613146573d6000803e3d6000fd5b505050506040513d6000823e601f3d908101601f191682016040526125d59190810190615ae2565b6040805160028082526060808301845292602083019080368337505060025482519293506001600160a01b0316918391506000906131ae576131ae61527b565b6001600160a01b0392831660209182029290920101526003548251911690829060019081106131df576131df61527b565b60200260200101906001600160a01b031690816001600160a01b03168152505090565b60008082156132af57606e54613216612c83565b603d54604051636e5b9cc760e11b815260048101849052602481018390526001600160a01b03909116604482015290935073__$e930d50fb5f4f1298547dbcb2bb0591990$__9063dcb7398e90606401602060405180830381865af4158015613283573d6000803e3d6000fd5b505050506040513d601f19601f820116820180604052508101906132a791906151ef565b915050915091565b5050606e546000915091565b50565b60008060008060006132ce612753565b600254919350915073__$0dcf4453b1418804c305d2bbf5bd62b729$__906334d2ec3d906001600160a01b0316613303612466565b85856040518563ffffffff1660e01b81526004016133249493929190615b69565b602060405180830381865af4158015613341573d6000803e3d6000fd5b505050506040513d601f19601f8201168201806040525081019061336591906151ef565b9450613371828261410f565b603c548590859061338a906001600160a01b0316612d03565b9450945094505050909192565b603c5460009081906001600160a01b0316818587116133b75760006133c1565b6133c186886152c0565b9050620186a0856071546133d59190615a07565b6133df91906158be565b81111561357f57851561348e57603d5473__$8f1afe7577f9ab973017c74eca19b86f3c$__9063aac2718a90849089906001600160a01b031661342183612d03565b61342b908b61521e565b6040518563ffffffff1660e01b815260040161344a9493929190615ba7565b602060405180830381865af4158015613467573d6000803e3d6000fd5b505050506040513d601f19601f8201168201806040525081019061348b91906151ef565b92505b600061349983612d03565b603c5490915060009081906134b6906001600160a01b0316612c97565b606f5491935091506000906134d6906001600160a01b03168685856141a5565b905060006134e382612bf6565b5090507f59400c8c523464b521238ea8f50e923f2bc64663557e6afec92a97f7efe92d058282604051613517929190615ab4565b60405180910390a16000613529612c83565b9050600061353689612d03565b9050613542878d61521e565b61354c828461521e565b10156135735761355c818361521e565b613566888e61521e565b61357091906152c0565b9a505b5050505050505061364e565b851561364e57600061359083612d03565b9050868110156135b3576135a660008888613688565b909750955061364c915050565b603d5473__$8f1afe7577f9ab973017c74eca19b86f3c$__9063aac2718a9085908a906001600160a01b03166135e9868c61521e565b6040518563ffffffff1660e01b81526004016136089493929190615ba7565b602060405180830381865af4158015613625573d6000803e3d6000fd5b505050506040513d601f19601f8201168201806040525081019061364991906151ef565b93505b505b5050935093915050565b600080838311156136745761366d84846152c0565b9150613681565b61367e83856152c0565b90505b9250929050565b600080600080613697876143dc565b613732604051806102200160405280600015158152602001606081526020016000815260200160008152602001600081526020016000815260200160608152602001600081526020016060815260200160008152602001600081526020016060815260200160006001600160a01b0316815260200160008152602001600081526020016060815260200160006001600160a01b031681525090565b60001988148082526000935080613751575061374e878961521e565b15155b801561375c57508515155b15613d6e5761376961316e565b6101608201819052603c546001600160a01b039081166101808401819052606f5490911661020084015261379d9190613e0f565b6101a08201526101808101516137b290612d03565b6101c08201526137c061442f565b6020820152600554600160201b90046001600160801b03166040820152600554600160201b90046001600160801b03166060820152610200810151610180820151604051637a55caf360e01b815273__$e930d50fb5f4f1298547dbcb2bb0591990$__92637a55caf39261383692600401615231565b602060405180830381865af4158015613853573d6000803e3d6000fd5b505050506040513d601f19601f8201168201806040525081019061387791906151ef565b60a0820152805173__$8f1afe7577f9ab973017c74eca19b86f3c$__9063ec0cc4fd906138ad576138a8898b61521e565b6138b0565b60005b30846101600151856101a001518661020001518c88606001516040518863ffffffff1660e01b81526004016138eb9796959493929190615bd1565b600060405180830381865af4158015613908573d6000803e3d6000fd5b505050506040513d6000823e601f3d908101601f191682016040526139309190810190615c20565b60c08301526080820181905215613a795761394e8160800151612d73565b6101e0820152600554600160201b90046001600160801b0316816060015161397691906152c0565b608082018190526101e08201516040517faebc771af58936b05e89b0be7d3f9761480181abcd4a649fbdd01753fda16970926139b3929091615713565b60405180910390a173__$e930d50fb5f4f1298547dbcb2bb0591990$__637a9a23e5826102000151836101600151846101a001518560200151866080015187604001518860c00151896101e001516040518963ffffffff1660e01b8152600401613a24989796959493929190615c5c565b600060405180830381865af4158015613a41573d6000803e3d6000fd5b505050506040513d6000823e601f3d908101601f19168201604052613a699190810190615cde565b60c0830152610100820152613b15565b6102008101516101608201516101a083015160c0840151604051636138ea8560e01b815273__$e930d50fb5f4f1298547dbcb2bb0591990$__94636138ea8594613ac99491939092600401615d14565b600060405180830381865af4158015613ae6573d6000803e3d6000fd5b505050506040513d6000823e601f3d908101601f19168201604052613b0e91908101906156c2565b6101008201525b73__$e930d50fb5f4f1298547dbcb2bb0591990$__63f1f2b573826101600151836101a001518460c00151856102000151613b51612a09612466565b8751613b68578d8f613b63919061521e565b613b6a565b8e5b88610100015160706040518963ffffffff1660e01b8152600401613b95989796959493929190615d50565b602060405180830381865af4158015613bb2573d6000803e3d6000fd5b505050506040513d601f19601f82011682018060405250810190613bd691906151ef565b8160e001818151613be7919061521e565b9052508615613c9657610180810151603d546101c083015173__$8f1afe7577f9ab973017c74eca19b86f3c$__9263aac2718a9290918b916001600160a01b031690613c33908c61521e565b6040518563ffffffff1660e01b8152600401613c529493929190615ba7565b602060405180830381865af4158015613c6f573d6000803e3d6000fd5b505050506040513d601f19601f82011682018060405250810190613c9391906151ef565b91505b613c9e612c83565b610120820152610180810151613cb390612d03565b6101408201526101c0810151613cc9908761521e565b87826101400151836101200151613ce0919061521e565b613cea919061521e565b1015613d385786816101400151826101200151613d07919061521e565b613d11919061521e565b6101c0820151613d21908861521e565b613d2b91906152c0565b613d35908461521e565b92505b670de0b6b3a76400008160a001518260e00151613d559190615a07565b613d5f91906158be565b8160a001519450945050613d7e565b6000806000809450945094509450505b93509350935093565b60606107fb613da66005546001600160801b03600160201b9091041690565b612d73565b6000816001600160a01b0316634046ebae6040518163ffffffff1660e01b8152600401602060405180830381865afa158015613deb573d6000803e3d6000fd5b505050506040513d601f19601f8201168201806040525081019061082591906152d3565b8151600090815b81811015613e6157836001600160a01b0316858281518110613e3a57613e3a61527b565b60200260200101516001600160a01b031603613e595791506108259050565b600101613e16565b50600019949350505050565b6000806000613e7b84613202565b91509150613e8a858284613397565b5095945050505050565b613e9e82826144aa565b6115a35760405162461bcd60e51b815260206004820152601a60248201527f496e74657266616365206973206e6f7420737570706f7274656400000000000060448201526064016112a1565b600054610100900460ff16613f115760405162461bcd60e51b81526004016112a190615873565b6001600160a01b038116613f595760405162461bcd60e51b815260206004820152600f60248201526e2d32b9379031b7b73a3937b63632b960891b60448201526064016112a1565b613f83817f4c2403fdcb3cff9b705d96bf0705858e3390412670a62c8bcba611ca7e20ab86613e94565b60006001600160a01b0316816001600160a01b0316635aa6e6756040518163ffffffff1660e01b8152600401602060405180830381865afa158015613fcc573d6000803e3d6000fd5b505050506040513d601f19601f82011682018060405250810190613ff091906152d3565b6001600160a01b0316036140385760405162461bcd60e51b815260206004820152600f60248201526e5a65726f20676f7665726e616e636560881b60448201526064016112a1565b614067816116c760017f5165972ef41194f06c5007493031d0b927c20741adcb74403b954009fd2c36186152c0565b614096426116c760017f6f55f470bdc9cb5f04223fd822021061668e4dccb43e8727b295106dc9769c8b6152c0565b6140c5436116c760017f812a673dfca07956350df10f8a654925f561d7a0da09bdbe79e653939a14d9f16152c0565b604080516001600160a01b0383168152426020820152438183015290517f1a2dd071001ebf6e03174e3df5b305795a4ad5d41d8fdb9ba41dbbe2367134269181900360600190a150565b81518015611b215760006141238484614588565b905073__$8f1afe7577f9ab973017c74eca19b86f3c$__63acf741a3614147612466565b603d546040516001600160e01b031960e085901b16815261417992916001600160a01b03169089908790600401615b69565b60006040518083038186803b15801561419157600080fd5b505af415801561245c573d6000803e3d6000fd5b60606141af612496565b15604051806040016040528060138152602001724b532d31204e65656420726562616c616e636560681b815250906141fa5760405162461bcd60e51b81526004016112a19190614fa9565b50604080516002808252606082018352909160208301908036833701905050600480546005546040516319c75b9360e31b81526001600160a01b03831693810193909352600160c01b8204600290810b6024850152600160d81b90920490910b60448301526301000000900460ff1615156064820152909150600090819073__$0dcf4453b1418804c305d2bbf5bd62b729$__9063ce3adc9890608401600060405180830381865af41580156142b4573d6000803e3d6000fd5b505050506040513d6000823e601f3d908101601f191682016040526142dc9190810190615320565b6002549091506142f6906001600160a01b0316878961473b565b60025460035460405163ca27d10d60e01b815273__$e930d50fb5f4f1298547dbcb2bb0591990$__9263ca27d10d92614349928c9287926001600160a01b03918216929116908d90600090600401615dc6565b6040805180830381865af4158015614365573d6000803e3d6000fd5b505050506040513d601f19601f820116820180604052508101906143899190615e0e565b8460018151811061439c5761439c61527b565b602090810291909101015291506143b382876152c0565b836000815181106143c6576143c661527b565b6020026020010181815250505050949350505050565b6143e4612496565b15604051806040016040528060138152602001724b532d31204e65656420726562616c616e636560681b815250906115a35760405162461bcd60e51b81526004016112a19190614fa9565b6040516327ceccd560e11b81526001600482015260609073__$0dcf4453b1418804c305d2bbf5bd62b729$__90634f9d99aa90602401600060405180830381865af4158015614482573d6000803e3d6000fd5b505050506040513d6000823e601f3d908101601f191682016040526107fb91908101906156c2565b60006001600160a01b0383166144f15760405162461bcd60e51b815260206004820152600c60248201526b5a65726f206164647265737360a01b60448201526064016112a1565b823b6000819003614506576000915050610825565b6040516301ffc9a760e01b81526001600160e01b0319841660048201526001600160a01b038516906301ffc9a790602401602060405180830381865afa925050508015614570575060408051601f3d908101601f1916820190925261456d918101906156f6565b60015b1561457e5791506108259050565b5060009392505050565b603c54606f54603e546060926001600160a01b039081169260009273__$e930d50fb5f4f1298547dbcb2bb0591990$__9263ef50284f92169085906145cb61316e565b6145d6612a09612466565b60708c8c6041546040518a63ffffffff1660e01b815260040161460199989796959493929190615e32565b600060405180830381865af415801561461e573d6000803e3d6000fd5b505050506040513d6000823e601f3d908101601f191682016040526146469190810190615a6e565b603d54604080546072549151631248faf160e21b81526001600160a01b0380891660048301526024820186905293841660448201529216606483015260848201529194509150600090819073__$8f1afe7577f9ab973017c74eca19b86f3c$__90634923ebc49060a4016040805180830381865af41580156146cc573d6000803e3d6000fd5b505050506040513d601f19601f820116820180604052508101906146f09190615e0e565b915091507f4c300a656bfa0935e36cd55e92634bc20b2b7e0a0ebf424a2a25bfaac3a01e76878684846040516147299493929190615eb6565b60405180910390a15050505092915050565b604051636eb1769f60e11b815282906001600160a01b0385169063dd62ed3e9061476b9030908690600401615231565b602060405180830381865afa158015614788573d6000803e3d6000fd5b505050506040513d601f19601f820116820180604052508101906147ac91906151ef565b1015611b21576147c76001600160a01b0384168260006147db565b611b216001600160a01b03841682600160ff1b5b8015806148545750604051636eb1769f60e11b81526001600160a01b0384169063dd62ed3e906148119030908690600401615231565b602060405180830381865afa15801561482e573d6000803e3d6000fd5b505050506040513d601f19601f8201168201806040525081019061485291906151ef565b155b6148bf5760405162461bcd60e51b815260206004820152603660248201527f5361666545524332303a20617070726f76652066726f6d206e6f6e2d7a65726f60448201527520746f206e6f6e2d7a65726f20616c6c6f77616e636560501b60648201526084016112a1565b604080516001600160a01b03848116602483015260448083018590528351808403909101815260649092018352602080830180516001600160e01b031663095ea7b360e01b17905283518085019094528084527f5361666545524332303a206c6f772d6c6576656c2063616c6c206661696c656490840152611b219286929160009161494f9185169084906149cc565b805190915015611b21578080602001905181019061496d91906156f6565b611b215760405162461bcd60e51b815260206004820152602a60248201527f5361666545524332303a204552433230206f7065726174696f6e20646964206e6044820152691bdd081cdd58d8d9595960b21b60648201526084016112a1565b60606149db84846000856149e5565b90505b9392505050565b606082471015614a465760405162461bcd60e51b815260206004820152602660248201527f416464726573733a20696e73756666696369656e742062616c616e636520666f6044820152651c8818d85b1b60d21b60648201526084016112a1565b600080866001600160a01b03168587604051614a629190615f21565b60006040518083038185875af1925050503d8060008114614a9f576040519150601f19603f3d011682016040523d82523d6000602084013e614aa4565b606091505b5091509150614ab587838387614ac0565b979650505050505050565b60608315614b2f578251600003614b28576001600160a01b0385163b614b285760405162461bcd60e51b815260206004820152601d60248201527f416464726573733a2063616c6c20746f206e6f6e2d636f6e747261637400000060448201526064016112a1565b50816109fa565b6109fa8383815115614b445781518083602001fd5b8060405162461bcd60e51b81526004016112a19190614fa9565b600060208284031215614b7057600080fd5b81356001600160e01b0319811681146149de57600080fd5b6001600160a01b03811681146132bb57600080fd5b60008060408385031215614bb057600080fd5b8235614bbb81614b88565b946020939093013593505050565b634e487b7160e01b600052604160045260246000fd5b604051601f8201601f191681016001600160401b0381118282101715614c0757614c07614bc9565b604052919050565b60006001600160401b03821115614c2857614c28614bc9565b50601f01601f191660200190565b600082601f830112614c4757600080fd5b8135614c5a614c5582614c0f565b614bdf565b818152846020838601011115614c6f57600080fd5b816020850160208301376000918101602001919091529392505050565b60008060008060808587031215614ca257600080fd5b8435614cad81614b88565b93506020850135614cbd81614b88565b92506040850135915060608501356001600160401b03811115614cdf57600080fd5b614ceb87828801614c36565b91505092959194509250565b600081518084526020808501945080840160005b83811015614d2757815187529582019590820190600101614d0b565b509495945050505050565b600081518084526020808501945080840160005b83811015614d27578151151587529582019590820190600101614d46565b6001600160a01b038a81168252898116602080840191909152898216604084015290881660608301526001600160801b038716608083015260a0820186905261012060c08301819052855190830181905260009161014084019187820191845b82811015614de357835160020b85529381019392810192600101614dc4565b5050505082810360e0840152614df98186614cf7565b9050828103610100840152614e0e8185614d32565b9c9b505050505050505050505050565b60008060408385031215614e3157600080fd5b823591506020830135614e4381614b88565b809150509250929050565b600060208284031215614e6057600080fd5b5035919050565b8035600281900b8114614e7957600080fd5b919050565b80151581146132bb57600080fd5b600080600080600080600080610100898b031215614ea957600080fd5b8835614eb481614b88565b97506020890135614ec481614b88565b96506040890135614ed481614b88565b95506060890135614ee481614b88565b9450614ef260808a01614e67565b9350614f0060a08a01614e67565b925060c0890135614f1081614e7e565b8092505060e089013590509295985092959890939650565b6001600160a01b0391909116815260200190565b600060208284031215614f4e57600080fd5b81356149de81614b88565b60005b83811015614f74578181015183820152602001614f5c565b50506000910152565b60008151808452614f95816020860160208601614f59565b601f01601f19169290920160200192915050565b6020815260006149de6020830184614f7d565b60008060208385031215614fcf57600080fd5b82356001600160401b0380821115614fe657600080fd5b818501915085601f830112614ffa57600080fd5b81358181111561500957600080fd5b86602082850101111561501b57600080fd5b60209290920196919550909350505050565b60006001600160401b0382111561504657615046614bc9565b5060051b60200190565b600082601f83011261506157600080fd5b81356020615071614c558361502d565b82815260059290921b8401810191818101908684111561509057600080fd5b8286015b848110156150ab5780358352918301918301615094565b509695505050505050565b600080604083850312156150c957600080fd5b82356001600160401b03808211156150e057600080fd5b818501915085601f8301126150f457600080fd5b81356020615104614c558361502d565b82815260059290921b8401810191818101908984111561512357600080fd5b948201945b8386101561514a57853561513b81614b88565b82529482019490820190615128565b9650508601359250508082111561516057600080fd5b5061516d85828601615050565b9150509250929050565b6000806040838503121561518a57600080fd5b823591506020830135614e4381614e7e565b600080600080608085870312156151b257600080fd5b84356151bd81614e7e565b93506020850135925060408501356151d481614b88565b915060608501356001600160401b03811115614cdf57600080fd5b60006020828403121561520157600080fd5b5051919050565b634e487b7160e01b600052601160045260246000fd5b8082018082111561082557610825615208565b6001600160a01b0392831681529116602082015260400190565b6001600160a01b039586168152602081019490945260408401929092526060830152909116608082015260a00190565b634e487b7160e01b600052603260045260246000fd5b600080604083850312156152a457600080fd5b82516152af81614e7e565b6020840151909250614e4381614e7e565b8181038181111561082557610825615208565b6000602082840312156152e557600080fd5b81516149de81614b88565b60006152fe614c5584614c0f565b905082815283838301111561531257600080fd5b6149de836020830184614f59565b60006020828403121561533257600080fd5b81516001600160401b0381111561534857600080fd5b8201601f8101841361535957600080fd5b61222c848251602084016152f0565b600181811c9082168061537c57607f821691505b60208210810361539c57634e487b7160e01b600052602260045260246000fd5b50919050565b601f821115611b2157600081815260208120601f850160051c810160208610156153c95750805b601f850160051c820191505b818110156153e8578281556001016153d5565b505050505050565b81516001600160401b0381111561540957615409614bc9565b61541d816154178454615368565b846153a2565b602080601f831160018114615452576000841561543a5750858301515b600019600386901b1c1916600185901b1785556153e8565b600085815260208120601f198616915b8281101561548157888601518255948401946001909101908401615462565b508582101561549f5787850151600019600388901b60f8161c191681555b5050505050600190811b01905550565b60006020808352600084546154c381615368565b808487015260406001808416600081146154e457600181146154fe5761552c565b60ff1985168984015283151560051b89018301955061552c565b896000528660002060005b858110156155245781548b8201860152908301908801615509565b8a0184019650505b509398975050505050505050565b6000806040838503121561554d57600080fd5b825161555881614e7e565b6020939093015192949293505050565b6001600160a01b03841681526040602082018190528101829052818360608301376000818301606090810191909152601f909201601f1916010192915050565b6001600160401b038311156155bf576155bf614bc9565b6155d3836155cd8354615368565b836153a2565b6000601f84116001811461560757600085156155ef5750838201355b600019600387901b1c1916600186901b178355611155565b600083815260209020601f19861690835b828110156156385786850135825560209485019460019092019101615618565b50868210156156555760001960f88860031b161c19848701351681555b505060018560011b0183555050505050565b600082601f83011261567857600080fd5b81516020615688614c558361502d565b82815260059290921b840181019181810190868411156156a757600080fd5b8286015b848110156150ab57805183529183019183016156ab565b6000602082840312156156d457600080fd5b81516001600160401b038111156156ea57600080fd5b61222c84828501615667565b60006020828403121561570857600080fd5b81516149de81614e7e565b8281526040602082015260006149db6040830184614cf7565b600081518084526020808501945080840160005b83811015614d275781516001600160a01b031687529582019590820190600101615740565b87815286602082015260e06040820152600061578460e083018861572c565b6001600160a01b0396871660608401529486166080830152509190931660a082015260c001919091529392505050565b868152600060018060a01b03808816602084015286604084015260c060608401528551151560c0840152602086015160e08401528060408701511661010084015260608601516080610120850152615810610140850182614f7d565b6080850196909652509290921660a09091015250949350505050565b60808152600061583f608083018761572c565b82810360208401526158518187614cf7565b604084019590955250506001600160a01b039190911660609091015292915050565b6020808252602b908201527f496e697469616c697a61626c653a20636f6e7472616374206973206e6f74206960408201526a6e697469616c697a696e6760a81b606082015260800190565b6000826158db57634e487b7160e01b600052601260045260246000fd5b500490565b6001600160a01b038616815260a0602082018190526000906159049083018761572c565b8281036040840152615916818761572c565b9050828103606084015261592a8186614cf7565b9050828103608084015261593e8185614cf7565b98975050505050505050565b600082601f83011261595b57600080fd5b8151602061596b614c558361502d565b82815260059290921b8401810191818101908684111561598a57600080fd5b8286015b848110156150ab5780516159a181614b88565b835291830191830161598e565b600080604083850312156159c157600080fd5b82516001600160401b03808211156159d857600080fd5b6159e48683870161594a565b935060208501519150808211156159fa57600080fd5b5061516d85828601615667565b808202811582820484141761082557610825615208565b6020815260006149de6020830184614cf7565b600060018060a01b03808916835280881660208401525085604083015284606083015283608083015260c060a083015261593e60c083018461572c565b60008060408385031215615a8157600080fd5b82516001600160401b03811115615a9757600080fd5b615aa385828601615667565b925050602083015190509250929050565b604081526000615ac76040830185614cf7565b8281036020840152615ad98185614cf7565b95945050505050565b600080600060608486031215615af757600080fd5b83516001600160401b0380821115615b0e57600080fd5b615b1a8783880161594a565b94506020860151915080821115615b3057600080fd5b615b3c87838801615667565b93506040860151915080821115615b5257600080fd5b50615b5f86828701615667565b9150509250925092565b6001600160a01b03858116825284166020820152608060408201819052600090615b959083018561572c565b8281036060840152614ab58185614cf7565b6001600160a01b039485168152602081019390935292166040820152606081019190915260800190565b878152600060018060a01b03808916602084015260e06040840152615bf960e084018961572c565b606084019790975294909416608082015260a081019290925260c090910152509392505050565b60008060408385031215615c3357600080fd5b8251915060208301516001600160401b03811115615c5057600080fd5b61516d85828601615667565b6001600160a01b038916815261010060208201819052600090615c818382018b61572c565b90508860408401528281036060840152615c9b8189614cf7565b90508660808401528560a084015282810360c0840152615cbb8186614cf7565b905082810360e0840152615ccf8185614cf7565b9b9a5050505050505050505050565b60008060408385031215615cf157600080fd5b82516001600160401b0380821115615d0857600080fd5b6159e486838701615667565b6001600160a01b0385168152608060208201819052600090615d389083018661572c565b8460408401528281036060840152614ab58185614cf7565b6000610100808352615d648184018c61572c565b90508960208401528281036040840152615d7e818a614cf7565b6001600160a01b0389811660608601528816608085015260a0840187905283810360c08501529050615db08186614cf7565b9150508260e08301529998505050505050505050565b600060018060a01b03808916835260c06020840152615de860c0840189614f7d565b9681166040840152949094166060820152608081019290925260a0909101525092915050565b60008060408385031215615e2157600080fd5b505080516020909101519092909150565b6001600160a01b038a8116825289811660208301526040820189905261012060608301819052600091615e678483018b61572c565b91508089166080850152508660a084015282810360c0840152615e8a818761572c565b905082810360e0840152615e9e8186614cf7565b915050826101008301529a9950505050505050505050565b6080808252855190820181905260009060209060a0840190828901845b82811015615ef85781516001600160a01b031684529284019290840190600101615ed3565b50505083810382850152615f0c8188614cf7565b60408501969096525050506060015292915050565b60008251615f33818460208701614f59565b919091019291505056fea26469706673582212206d90b21467ef5c985cf3f838b4be60d9316a266ae2b6239c9dbc8dd33cea316a64736f6c63430008110033",
  "libraries": {
    "StrategyLib": "0x3BEB969c0cd273eA1d7a39137a757Cf1c474510a",
    "ConverterStrategyBaseLib": "0x9971fDd707a2878Dc201294DcAbef5A0F8901589",
    "ConverterStrategyBaseLib2": "0x3C8b18162cBb11B9D0afe3828f4A6C6e247f30E0",
    "KyberConverterStrategyLogicLib": "0xdF1B8F6250f82aD1F6E982cef422b31A4334FD6e"
  },
  "devdoc": {
    "kind": "dev",
    "methods": {
      "claim()": {
        "details": "Manual claim rewards."
      },
      "created()": {
        "returns": {
          "_0": "Creation timestamp"
        }
      },
      "createdBlock()": {
        "returns": {
          "_0": "Creation block number"
        }
      },
      "doHardWork()": {
        "returns": {
          "earned": "Earned amount in terms of {asset}",
          "lost": "Lost amount in terms of {asset}"
        }
      },
      "emergencyExit()": {
        "details": "In case of any issue operator can withdraw all from pool."
      },
      "increaseRevision(address)": {
        "details": "Revision should be increased on each contract upgrade"
      },
      "init(address,address,address,address,int24,int24,bool,uint256)": {
        "params": {
          "controller_": "The address of the controller.",
          "converter_": "The address of the converter.",
          "pool_": "The address of the pool.",
          "rebalanceTickRange_": "The tick range for rebalancing.",
          "splitter_": "The address of the splitter.",
          "tickRange_": "The tick range for the liquidity position."
        }
      },
      "investAll(uint256,bool)": {
        "params": {
          "updateTotalAssetsBeforeInvest_": "Recalculate total assets amount before depositing.                                       It can be false if we know exactly, that the amount is already actual."
        },
        "returns": {
          "strategyLoss": "Loss should be covered from Insurance"
        }
      },
      "isController(address)": {
        "details": "Return true if given address is controller"
      },
      "needRebalance()": {
        "returns": {
          "_0": "A boolean indicating if the strategy needs rebalancing."
        }
      },
      "onTransferAmounts(address[],uint256[])": {
        "params": {
          "amounts_": "Amount of {asset_} that has been sent to the user's balance",
          "assets_": "Any asset sent to the balance, i.e. inside repayTheBorrow"
        }
      },
      "previousImplementation()": {
        "details": "Previous logic implementation"
      },
      "quoteRebalanceSwap()": {
        "returns": {
          "_0": "swapAtoB, swapAmount"
        }
      },
      "rebalance()": {
        "details": "The rebalancing functionality is the core of this strategy.      Swap method is used."
      },
      "requirePayAmountBack(address,uint256)": {
        "params": {
          "amount_": "Required amount of the {theAsset_}",
          "theAsset_": "Required asset (either collateral or borrow)"
        },
        "returns": {
          "amountOut": "Amount sent to balance of TetuConverter, amountOut <= amount_"
        }
      },
      "revision()": {
        "details": "Contract upgrade counter"
      },
      "setCompoundRatio(uint256)": {
        "details": "PlatformVoter can change compound ratio for some strategies.      A strategy can implement another logic for some uniq cases."
      },
      "setFuseThreshold(uint256)": {
        "params": {
          "newFuseThreshold": "The new fuse threshold value."
        }
      },
      "setReinvestThresholdPercent(uint256)": {
        "params": {
          "percent_": "New value of the percent, decimals = {REINVEST_THRESHOLD_PERCENT_DENOMINATOR}"
        }
      },
      "setStrategySpecificName(string)": {
        "details": "The name will be used for UI."
      },
      "supportsInterface(bytes4)": {
        "details": "See {IERC165-supportsInterface}."
      },
      "totalAssets()": {
        "details": "Total amount of underlying assets under control of this strategy."
      },
      "withdrawAllToSplitter()": {
        "details": "Withdraws all underlying assets to the vault",
        "returns": {
          "strategyLoss": "Loss should be covered from Insurance"
        }
      },
      "withdrawToSplitter(uint256)": {
        "details": "Withdraws some assets to the splitter",
        "returns": {
          "strategyLoss": "Loss should be covered from Insurance"
        }
      }
    },
    "version": 1
  },
  "userdoc": {
    "events": {
      "Recycle(address[],uint256[],uint256,uint256)": {
        "notice": "Recycle was made"
      }
    },
    "kind": "user",
    "methods": {
      "CONTROLLABLE_VERSION()": {
        "notice": "Version of the contract"
      },
      "NAME()": {
        "notice": "CONSTANTS"
      },
      "capacity()": {
        "notice": "Unlimited capacity by default"
      },
      "controller()": {
        "notice": "Return controller address saved in the contract slot"
      },
      "created()": {
        "notice": "Return creation timestamp"
      },
      "createdBlock()": {
        "notice": "Return creation block number"
      },
      "disableFuse()": {
        "notice": "Disable fuse for the strategy."
      },
      "doHardWork()": {
        "notice": "Do hard work with reinvesting"
      },
      "getState()": {
        "notice": "Returns the current state of the contract."
      },
      "init(address,address,address,address,int24,int24,bool,uint256)": {
        "notice": "Initialize the strategy with the given parameters."
      },
      "investAll(uint256,bool)": {
        "notice": "Stakes everything the strategy holds into the reward pool. amount_ Amount transferred to the strategy balance just before calling this function"
      },
      "investedAssets()": {
        "notice": "Amount of underlying assets converted to pool assets and invested to the pool."
      },
      "isGovernance(address)": {
        "notice": "Return true if given address is setup as governance in Controller"
      },
      "isReadyToHardWork()": {
        "notice": "Is strategy ready to hard work"
      },
      "liquidationThresholds(address)": {
        "notice": "Minimum token amounts that can be liquidated"
      },
      "needRebalance()": {
        "notice": "Check if the strategy needs rebalancing."
      },
      "onERC721Received(address,address,uint256,bytes)": {
        "notice": "CALLBACKS"
      },
      "onTransferAmounts(address[],uint256[])": {
        "notice": "TetuConverter calls this function when it sends any amount to user's balance"
      },
      "performanceFee()": {
        "notice": "A percent of total profit that is sent to the {performanceReceiver} before compounding"
      },
      "performanceFeeRatio()": {
        "notice": "Ratio to split performance fee on toPerf + toInsurance, [0..100_000]         100_000 - send full amount toPerf, 0 - send full amount toInsurance."
      },
      "performanceReceiver()": {
        "notice": "{performanceFee}% of total profit is sent to {performanceReceiver} before compounding"
      },
      "reinvestThresholdPercent()": {
        "notice": "Percent of asset amount that can be not invested, it's allowed to just keep it on balance         decimals = {DENOMINATOR}"
      },
      "requirePayAmountBack(address,uint256)": {
        "notice": "Converters asks to send some amount back."
      },
      "setFuseThreshold(uint256)": {
        "notice": "Set the fuse threshold for the strategy."
      },
      "setPerformanceFeeRatio(uint256)": {
        "notice": "[0..100_000], 100_000 - send full amount toPerf, 0 - send full amount toInsurance."
      },
      "setupPerformanceFee(uint256,address)": {
        "notice": "Set performance fee and receiver"
      }
    },
    "version": 1
  },
  "storageLayout": {
    "storage": [
      {
        "astId": 11302,
        "contract": "contracts/strategies/kyber/KyberConverterStrategy.sol:KyberConverterStrategy",
        "label": "_initialized",
        "offset": 0,
        "slot": "0",
        "type": "t_uint8"
      },
      {
        "astId": 11305,
        "contract": "contracts/strategies/kyber/KyberConverterStrategy.sol:KyberConverterStrategy",
        "label": "_initializing",
        "offset": 1,
        "slot": "0",
        "type": "t_bool"
      },
      {
        "astId": 87858,
        "contract": "contracts/strategies/kyber/KyberConverterStrategy.sol:KyberConverterStrategy",
        "label": "state",
        "offset": 0,
        "slot": "1",
        "type": "t_struct(State)83906_storage"
      },
      {
        "astId": 88231,
        "contract": "contracts/strategies/kyber/KyberConverterStrategy.sol:KyberConverterStrategy",
        "label": "__gap",
        "offset": 0,
        "slot": "11",
        "type": "t_array(t_uint256)49_storage"
      },
      {
        "astId": 16191,
        "contract": "contracts/strategies/kyber/KyberConverterStrategy.sol:KyberConverterStrategy",
        "label": "asset",
        "offset": 0,
        "slot": "60",
        "type": "t_address"
      },
      {
        "astId": 16195,
        "contract": "contracts/strategies/kyber/KyberConverterStrategy.sol:KyberConverterStrategy",
        "label": "splitter",
        "offset": 0,
        "slot": "61",
        "type": "t_address"
      },
      {
        "astId": 16199,
        "contract": "contracts/strategies/kyber/KyberConverterStrategy.sol:KyberConverterStrategy",
        "label": "compoundRatio",
        "offset": 0,
        "slot": "62",
        "type": "t_uint256"
      },
      {
        "astId": 16201,
        "contract": "contracts/strategies/kyber/KyberConverterStrategy.sol:KyberConverterStrategy",
        "label": "__deprecatedSlot1",
        "offset": 0,
        "slot": "63",
        "type": "t_uint256"
      },
      {
        "astId": 16205,
        "contract": "contracts/strategies/kyber/KyberConverterStrategy.sol:KyberConverterStrategy",
        "label": "performanceReceiver",
        "offset": 0,
        "slot": "64",
        "type": "t_address"
      },
      {
        "astId": 16209,
        "contract": "contracts/strategies/kyber/KyberConverterStrategy.sol:KyberConverterStrategy",
        "label": "performanceFee",
        "offset": 0,
        "slot": "65",
        "type": "t_uint256"
      },
      {
        "astId": 16213,
        "contract": "contracts/strategies/kyber/KyberConverterStrategy.sol:KyberConverterStrategy",
        "label": "strategySpecificName",
        "offset": 0,
        "slot": "66",
        "type": "t_string_storage"
      },
      {
        "astId": 16610,
        "contract": "contracts/strategies/kyber/KyberConverterStrategy.sol:KyberConverterStrategy",
        "label": "__gap",
        "offset": 0,
        "slot": "67",
        "type": "t_array(t_uint256)43_storage"
      },
      {
        "astId": 66474,
        "contract": "contracts/strategies/kyber/KyberConverterStrategy.sol:KyberConverterStrategy",
        "label": "_investedAssets",
        "offset": 0,
        "slot": "110",
        "type": "t_uint256"
      },
      {
        "astId": 66478,
        "contract": "contracts/strategies/kyber/KyberConverterStrategy.sol:KyberConverterStrategy",
        "label": "converter",
        "offset": 0,
        "slot": "111",
        "type": "t_contract(ITetuConverter)42955"
      },
      {
        "astId": 66483,
        "contract": "contracts/strategies/kyber/KyberConverterStrategy.sol:KyberConverterStrategy",
        "label": "liquidationThresholds",
        "offset": 0,
        "slot": "112",
        "type": "t_mapping(t_address,t_uint256)"
      },
      {
        "astId": 66486,
        "contract": "contracts/strategies/kyber/KyberConverterStrategy.sol:KyberConverterStrategy",
        "label": "reinvestThresholdPercent",
        "offset": 0,
        "slot": "113",
        "type": "t_uint256"
      },
      {
        "astId": 66489,
        "contract": "contracts/strategies/kyber/KyberConverterStrategy.sol:KyberConverterStrategy",
        "label": "performanceFeeRatio",
        "offset": 0,
        "slot": "114",
        "type": "t_uint256"
      },
      {
        "astId": 67985,
        "contract": "contracts/strategies/kyber/KyberConverterStrategy.sol:KyberConverterStrategy",
        "label": "__gap",
        "offset": 0,
        "slot": "115",
        "type": "t_array(t_uint256)45_storage"
      }
    ],
    "types": {
      "t_address": {
        "encoding": "inplace",
        "label": "address",
        "numberOfBytes": "20"
      },
      "t_array(t_uint256)43_storage": {
        "base": "t_uint256",
        "encoding": "inplace",
        "label": "uint256[43]",
        "numberOfBytes": "1376"
      },
      "t_array(t_uint256)45_storage": {
        "base": "t_uint256",
        "encoding": "inplace",
        "label": "uint256[45]",
        "numberOfBytes": "1440"
      },
      "t_array(t_uint256)49_storage": {
        "base": "t_uint256",
        "encoding": "inplace",
        "label": "uint256[49]",
        "numberOfBytes": "1568"
      },
      "t_bool": {
        "encoding": "inplace",
        "label": "bool",
        "numberOfBytes": "1"
      },
      "t_contract(IPool)62161": {
        "encoding": "inplace",
        "label": "contract IPool",
        "numberOfBytes": "20"
      },
      "t_contract(ITetuConverter)42955": {
        "encoding": "inplace",
        "label": "contract ITetuConverter",
        "numberOfBytes": "20"
      },
      "t_int24": {
        "encoding": "inplace",
        "label": "int24",
        "numberOfBytes": "3"
      },
      "t_mapping(t_address,t_uint256)": {
        "encoding": "mapping",
        "key": "t_address",
        "label": "mapping(address => uint256)",
        "numberOfBytes": "32",
        "value": "t_uint256"
      },
      "t_string_storage": {
        "encoding": "bytes",
        "label": "string",
        "numberOfBytes": "32"
      },
      "t_struct(State)83906_storage": {
        "encoding": "inplace",
        "label": "struct KyberConverterStrategyLogicLib.State",
        "members": [
          {
            "astId": 83872,
            "contract": "contracts/strategies/kyber/KyberConverterStrategy.sol:KyberConverterStrategy",
            "label": "strategyProfitHolder",
            "offset": 0,
            "slot": "0",
            "type": "t_address"
          },
          {
            "astId": 83874,
            "contract": "contracts/strategies/kyber/KyberConverterStrategy.sol:KyberConverterStrategy",
            "label": "tokenA",
            "offset": 0,
            "slot": "1",
            "type": "t_address"
          },
          {
            "astId": 83876,
            "contract": "contracts/strategies/kyber/KyberConverterStrategy.sol:KyberConverterStrategy",
            "label": "tokenB",
            "offset": 0,
            "slot": "2",
            "type": "t_address"
          },
          {
            "astId": 83879,
            "contract": "contracts/strategies/kyber/KyberConverterStrategy.sol:KyberConverterStrategy",
            "label": "pool",
            "offset": 0,
            "slot": "3",
            "type": "t_contract(IPool)62161"
          },
          {
            "astId": 83881,
            "contract": "contracts/strategies/kyber/KyberConverterStrategy.sol:KyberConverterStrategy",
            "label": "tickSpacing",
            "offset": 20,
            "slot": "3",
            "type": "t_int24"
          },
          {
            "astId": 83883,
            "contract": "contracts/strategies/kyber/KyberConverterStrategy.sol:KyberConverterStrategy",
            "label": "isStablePool",
            "offset": 23,
            "slot": "3",
            "type": "t_bool"
          },
          {
            "astId": 83885,
            "contract": "contracts/strategies/kyber/KyberConverterStrategy.sol:KyberConverterStrategy",
            "label": "lowerTick",
            "offset": 24,
            "slot": "3",
            "type": "t_int24"
          },
          {
            "astId": 83887,
            "contract": "contracts/strategies/kyber/KyberConverterStrategy.sol:KyberConverterStrategy",
            "label": "upperTick",
            "offset": 27,
            "slot": "3",
            "type": "t_int24"
          },
          {
            "astId": 83889,
            "contract": "contracts/strategies/kyber/KyberConverterStrategy.sol:KyberConverterStrategy",
            "label": "rebalanceTickRange",
            "offset": 0,
            "slot": "4",
            "type": "t_int24"
          },
          {
            "astId": 83891,
            "contract": "contracts/strategies/kyber/KyberConverterStrategy.sol:KyberConverterStrategy",
            "label": "depositorSwapTokens",
            "offset": 3,
            "slot": "4",
            "type": "t_bool"
          },
          {
            "astId": 83893,
            "contract": "contracts/strategies/kyber/KyberConverterStrategy.sol:KyberConverterStrategy",
            "label": "totalLiquidity",
            "offset": 4,
            "slot": "4",
            "type": "t_uint128"
          },
          {
            "astId": 83895,
            "contract": "contracts/strategies/kyber/KyberConverterStrategy.sol:KyberConverterStrategy",
            "label": "isFuseTriggered",
            "offset": 20,
            "slot": "4",
            "type": "t_bool"
          },
          {
            "astId": 83897,
            "contract": "contracts/strategies/kyber/KyberConverterStrategy.sol:KyberConverterStrategy",
            "label": "fuseThreshold",
            "offset": 0,
            "slot": "5",
            "type": "t_uint256"
          },
          {
            "astId": 83899,
            "contract": "contracts/strategies/kyber/KyberConverterStrategy.sol:KyberConverterStrategy",
            "label": "lastPrice",
            "offset": 0,
            "slot": "6",
            "type": "t_uint256"
          },
          {
            "astId": 83901,
            "contract": "contracts/strategies/kyber/KyberConverterStrategy.sol:KyberConverterStrategy",
            "label": "tokenId",
            "offset": 0,
            "slot": "7",
            "type": "t_uint256"
          },
          {
            "astId": 83903,
            "contract": "contracts/strategies/kyber/KyberConverterStrategy.sol:KyberConverterStrategy",
            "label": "pId",
            "offset": 0,
            "slot": "8",
            "type": "t_uint256"
          },
          {
            "astId": 83905,
            "contract": "contracts/strategies/kyber/KyberConverterStrategy.sol:KyberConverterStrategy",
            "label": "staked",
            "offset": 0,
            "slot": "9",
            "type": "t_bool"
          }
        ],
        "numberOfBytes": "320"
      },
      "t_uint128": {
        "encoding": "inplace",
        "label": "uint128",
        "numberOfBytes": "16"
      },
      "t_uint256": {
        "encoding": "inplace",
        "label": "uint256",
        "numberOfBytes": "32"
      },
      "t_uint8": {
        "encoding": "inplace",
        "label": "uint8",
        "numberOfBytes": "1"
      }
    }
  }
}