{
  "address": "0x5bCd198D521DEA0f22477923D43b406e311bc439",
  "abi": [
    {
      "inputs": [],
      "name": "SELL_GAP",
      "outputs": [
        {
          "internalType": "uint256",
          "name": "",
          "type": "uint256"
        }
      ],
      "stateMutability": "view",
      "type": "function"
    },
    {
      "inputs": [
        {
          "internalType": "contract IPool",
          "name": "pool",
          "type": "IPool"
        },
        {
          "internalType": "int24",
          "name": "tickRange",
          "type": "int24"
        },
        {
          "internalType": "int24",
          "name": "tickSpacing",
          "type": "int24"
        }
      ],
      "name": "calcTickRange",
      "outputs": [
        {
          "internalType": "int24",
          "name": "lowerTick",
          "type": "int24"
        },
        {
          "internalType": "int24",
          "name": "upperTick",
          "type": "int24"
        }
      ],
      "stateMutability": "view",
      "type": "function"
    },
    {
      "inputs": [
        {
          "internalType": "contract IPool",
          "name": "pool",
          "type": "IPool"
        },
        {
          "internalType": "int24",
          "name": "lowerTick",
          "type": "int24"
        },
        {
          "internalType": "int24",
          "name": "upperTick",
          "type": "int24"
        },
        {
          "internalType": "bool",
          "name": "depositorSwapTokens",
          "type": "bool"
        }
      ],
      "name": "getEntryData",
      "outputs": [
        {
          "internalType": "bytes",
          "name": "entryData",
          "type": "bytes"
        }
      ],
      "stateMutability": "view",
      "type": "function"
    },
    {
      "inputs": [
        {
          "internalType": "uint256",
          "name": "debtAmount",
          "type": "uint256"
        },
        {
          "internalType": "contract ITetuConverter",
          "name": "tetuConverter",
          "type": "ITetuConverter"
        },
        {
          "internalType": "address",
          "name": "tokenB",
          "type": "address"
        }
      ],
      "name": "needCloseDebt",
      "outputs": [
        {
          "internalType": "bool",
          "name": "",
          "type": "bool"
        }
      ],
      "stateMutability": "view",
      "type": "function"
    }
  ],
  "transactionHash": "0xfbdd23d031d2301b2f940606463aa8eba9a8e15f43ea649c0dff4521bfe94e16",
  "args": [],
  "numDeployments": 1,
  "solcInputHash": "5cbdd8c9e2bb62fe08226b38dae0bf21",
  "bytecode": "0x61264961003a600b82828239805160001a60731461002d57634e487b7160e01b600052600060045260246000fd5b30600052607381538281f3fe73000000000000000000000000000000000000000030146080604052600436106100a85760003560e01c806367acb54b1161007057806367acb54b1461016f5780638c5628791461018f5780639ebb2af9146101b2578063ce3adc98146101d2578063f8328d9f146101f257600080fd5b806316894048146100ad5780631f377298146100cf578063430b38c51461010257806344283676146101225780634775e1bb1461014f575b600080fd5b8180156100b957600080fd5b506100cd6100c8366004611da5565b6101fa565b005b8180156100db57600080fd5b506100ef6100ea366004611e4c565b610297565b6040519081526020015b60405180910390f35b81801561010e57600080fd5b506100cd61011d366004611e97565b610324565b610135610130366004611f31565b61048b565b60408051600293840b81529190920b6020820152016100f9565b81801561015b57600080fd5b506100cd61016a366004611f71565b6105ba565b81801561017b57600080fd5b506100ef61018a366004612012565b610658565b6101a261019d36600461207a565b6108ed565b60405190151581526020016100f9565b8180156101be57600080fd5b506100cd6101cd3660046120a1565b610ab3565b6101e56101e0366004612103565b610c1b565b6040516100f991906121af565b6100ef606481565b6102078888888888610ec4565b821561028d5760405163556138c560e11b8152733c8b18162cbb11b9d0afe3828f4a6c6e247f30e09063aac2718a9061024a908a908790869088906004016121c2565b602060405180830381865af4158015610267573d6000803e3d6000fd5b505050506040513d601f19601f8201168201806040525081019061028b91906121ec565b505b5050505050505050565b60405163dd27ede760e01b81523060048201526001600160a01b0383811660248301528281166044830152600160648301526000919085169063dd27ede79060840160408051808303816000875af11580156102f7573d6000803e3d6000fd5b505050506040513d601f19601f8201168201806040525081019061031b9190612205565b50949350505050565b60038601546001870154600288015460048901546001600160a01b039384169392831692909116906301000000900460ff166103638b84848c8c610ec4565b86156103e95760405163556138c560e11b8152733c8b18162cbb11b9d0afe3828f4a6c6e247f30e09063aac2718a906103a69086908b908a908c906004016121c2565b602060405180830381865af41580156103c3573d6000803e3d6000fd5b505050506040513d601f19601f820116820180604052508101906103e791906121ec565b505b60038a0154600090819061041f908790600160c01b8104600290810b91600160d81b8104820b91600160a01b909104900b6111b6565b91509150600061043187848487610c1b565b905061043f8e8787846111fe565b5060039b909b01805465ffffffffffff60c01b1916600160c01b62ffffff9384160262ffffff60d81b191617600160d81b92909c16919091029a909a1790995550505050505050505050565b6000806000856001600160a01b031663217ac2376040518163ffffffff1660e01b8152600401608060405180830381865afa1580156104ce573d6000803e3d6000fd5b505050506040513d601f19601f820116820180604052508101906104f29190612229565b505091505060008160020b1280156105255750600281900b8461051581846122a9565b61051f91906122e3565b60020b14155b1561055d5783600181610538888561230a565b61054291906122a9565b61054c919061230a565b61055691906122e3565b9250610580565b8380610569878461230a565b61057391906122a9565b61057d91906122e3565b92505b8460020b6000146105a5576105968560026122e3565b6105a0908461232f565b6105af565b6105af848461232f565b915050935093915050565b6105c8898989898989611288565b821561028b5760405163556138c560e11b8152733c8b18162cbb11b9d0afe3828f4a6c6e247f30e09063aac2718a9061060b9089908790869088906004016121c2565b602060405180830381865af4158015610628573d6000803e3d6000fd5b505050506040513d601f19601f8201168201806040525081019061064c91906121ec565b50505050505050505050565b6040516370a0823160e01b81526001600160a01b03858116600483015260009182918616906370a0823190602401602060405180830381865afa1580156106a3573d6000803e3d6000fd5b505050506040513d601f19601f820116820180604052508101906106c791906121ec565b6040516370a0823160e01b81526001600160a01b0388811660048301529192506000918616906370a0823190602401602060405180830381865afa158015610713573d6000803e3d6000fd5b505050506040513d601f19601f8201168201806040525081019061073791906121ec565b905081881161075d576107556001600160a01b03871688308b611695565b8792506108e2565b878215610786576107796001600160a01b038816893086611695565b6107838382612354565b90505b81156108d4576000876001600160a01b031663313ce5676040518163ffffffff1660e01b8152600401602060405180830381865afa1580156107cc573d6000803e3d6000fd5b505050506040513d601f19601f820116820180604052508101906107f09190612367565b6107fb90600a612475565b604051635620c32d60e11b81528390734D8e5270A53946a9D2144E4512b66757333d569d9063ac41865a90610836908b908e90600401612484565b602060405180830381865af4158015610853573d6000803e3d6000fd5b505050506040513d601f19601f8201168201806040525081019061087791906121ec565b610881919061249e565b61088b91906124b5565b905060006108998285611706565b90506108b06001600160a01b0389168b3084611695565b816108bb828561249e565b6108c591906124b5565b6108cf9084612354565b925050505b6108de818a612354565b9350505b505095945050505050565b600080836001600160a01b031663f77c47916040518163ffffffff1660e01b8152600401602060405180830381865afa15801561092e573d6000803e3d6000fd5b505050506040513d601f19601f8201168201806040525081019061095291906124c9565b6001600160a01b0316632630c12f6040518163ffffffff1660e01b8152600401602060405180830381865afa15801561098f573d6000803e3d6000fd5b505050506040513d601f19601f820116820180604052508101906109b391906124c9565b905067016345785d8a0000836001600160a01b031663313ce5676040518163ffffffff1660e01b8152600401602060405180830381865afa1580156109fc573d6000803e3d6000fd5b505050506040513d601f19601f82011682018060405250810190610a209190612367565b610a2b90600a612475565b60405163b3596f0760e01b81526001600160a01b03868116600483015284169063b3596f0790602401602060405180830381865afa158015610a71573d6000803e3d6000fd5b505050506040513d601f19601f82011682018060405250810190610a9591906121ec565b610a9f908861249e565b610aa991906124b5565b1195945050505050565b60038501546001860154600287015460048801546001600160a01b039384169392831692909116906301000000900460ff16610af38b8b8686868d611288565b8615610b795760405163556138c560e11b8152733c8b18162cbb11b9d0afe3828f4a6c6e247f30e09063aac2718a90610b369086908b908a908c906004016121c2565b602060405180830381865af4158015610b53573d6000803e3d6000fd5b505050506040513d601f19601f82011682018060405250810190610b7791906121ec565b505b60038901546000908190610baf908790600160c01b8104600290810b91600160d81b8104820b91600160a01b909104900b6111b6565b915091506000610bc187848487610c1b565b9050610bcf8e8787846111fe565b5060039a909a01805465ffffffffffff60c01b1916600160c01b62ffffff9384160262ffffff60d81b191617600160d81b92909b16919091029990991790985550505050505050505050565b60606000856001600160a01b031663d21220a76040518163ffffffff1660e01b8152600401602060405180830381865afa158015610c5d573d6000803e3d6000fd5b505050506040513d601f19601f82011682018060405250810190610c8191906124c9565b90506000734D8e5270A53946a9D2144E4512b66757333d569d63ac41865a88846040518363ffffffff1660e01b8152600401610cbe929190612484565b602060405180830381865af4158015610cdb573d6000803e3d6000fd5b505050506040513d601f19601f82011682018060405250810190610cff91906121ec565b90506000826001600160a01b031663313ce5676040518163ffffffff1660e01b8152600401602060405180830381865afa158015610d41573d6000803e3d6000fd5b505050506040513d601f19601f82011682018060405250810190610d659190612367565b60ff169050816000610d7883600a6124e6565b6040516305f08b0f60e21b81526001600160a01b038c16600482015260028b810b60248301528a900b604482015260648101849052608481018290529091506000908190734D8e5270A53946a9D2144E4512b66757333d569d906317c22c3c9060a401606060405180830381865af4158015610df8573d6000803e3d6000fd5b505050506040513d601f19601f82011682018060405250810190610e1c91906124f2565b50915091508815610e6f57600183610e34888461249e565b610e3e91906124b5565b6040805160ff9093166020840152820152606081018390526080016040516020818303038152906040529750610eb5565b60018284610e7d898561249e565b610e8791906124b5565b6040805160ff9094166020850152830191909152606082015260800160405160208183030381529060405297505b50505050505050949350505050565b610ed18160400151611720565b6000610ede868686610297565b9050610eeb8187866108ed565b156111ae576000610efb866117b6565b90506000610f08866117b6565b905060008460000151610f1b5786610f1d565b875b9050610f328186602001518760400151611821565b60008086604001516001600160a01b03168760600151604051610f559190612535565b6000604051808303816000865af19150503d8060008114610f92576040519150601f19603f3d011682016040523d82523d6000602084013e610f97565b606091505b5091509150818190610fc55760405162461bcd60e51b8152600401610fbc91906121af565b60405180910390fd5b5050506000610fd3896117b6565b90506000610fe0896117b6565b90508a6001600160a01b031663291f89c48489602001518a60000151611006578d611008565b8c5b8b5161101d576110188a88612354565b611027565b6110278987612354565b6040516001600160e01b031960e087901b1681526001600160a01b0394851660048201526024810193909352921660448201526064810191909152608481018b905260a401602060405180830381865afa158015611089573d6000803e3d6000fd5b505050506040513d601f19601f820116820180604052508101906110ad9190612551565b604051806040016040528060128152602001711514cb4c4d881c1c9a58d9481a5b5c1858dd60721b815250906110f65760405162461bcd60e51b8152600401610fbc91906121af565b50739971fdd707a2878dc201294dcabef5a0f890158963954d7e738c8c8c61111e8b87611706565b6040516001600160e01b031960e087901b1681526001600160a01b03948516600482015292841660248401529216604482015260648101919091526084016040805180830381865af4158015611178573d6000803e3d6000fd5b505050506040513d601f19601f8201168201806040525081019061119c9190612205565b50506111a7896117b6565b5050505050505b505050505050565b600080806111c4868661230a565b90506111f0878560020b8360020b146111e7576111e26002846122a9565b6111ea565b60005b8661048b565b909890975095505050505050565b739971fdd707a2878dc201294dcabef5a0f890158963ca27d10d85838686611225896117b6565b60006040518763ffffffff1660e01b81526004016112489695949392919061256e565b6040805180830381865af4158015611264573d6000803e3d6000fd5b505050506040513d601f19601f820116820180604052508101906111ae9190612205565b6000611295878585610297565b90506112a28188856108ed565b1561168c5760006112b2856117b6565b905060006112bf856117b6565b9050828110156114ee57604051635620c32d60e11b8152600090734D8e5270A53946a9D2144E4512b66757333d569d9063ac41865a90611305908b908a90600401612484565b602060405180830381865af4158015611322573d6000803e3d6000fd5b505050506040513d601f19601f8201168201806040525081019061134691906121ec565b90506000866001600160a01b031663313ce5676040518163ffffffff1660e01b8152600401602060405180830381865afa158015611388573d6000803e3d6000fd5b505050506040513d601f19601f820116820180604052508101906113ac9190612367565b6113b790600a612475565b6113c18487612354565b6113cb908461249e565b6113d591906124b5565b90506113e26064826124b5565b6113ec90826125b6565b9050739971fdd707a2878dc201294dcabef5a0f8901589637de8f5698c8c6001600160a01b0316634046ebae6040518163ffffffff1660e01b8152600401602060405180830381865afa158015611447573d6000803e3d6000fd5b505050506040513d601f19601f8201168201806040525081019061146b91906124c9565b8b8b611477878b611706565b8c6000806040518963ffffffff1660e01b815260040161149e9897969594939291906125c9565b6040805180830381865af41580156114ba573d6000803e3d6000fd5b505050506040513d601f19601f820116820180604052508101906114de9190612205565b50506114e9876117b6565b925050505b739971fdd707a2878dc201294dcabef5a0f890158963954d7e738a88886115158887611706565b6040516001600160e01b031960e087901b1681526001600160a01b03948516600482015292841660248401529216604482015260648101919091526084016040805180830381865af415801561156f573d6000803e3d6000fd5b505050506040513d601f19601f820116820180604052508101906115939190612205565b505061159e856117b6565b9050739971fdd707a2878dc201294dcabef5a0f8901589637de8f5698a8a6001600160a01b0316634046ebae6040518163ffffffff1660e01b8152600401602060405180830381865afa1580156115f9573d6000803e3d6000fd5b505050506040513d601f19601f8201168201806040525081019061161d91906124c9565b888a868a6000806040518963ffffffff1660e01b81526004016116479897969594939291906125c9565b6040805180830381865af4158015611663573d6000803e3d6000fd5b505050506040513d601f19601f820116820180604052508101906116879190612205565b505050505b50505050505050565b6040516001600160a01b03808516602483015283166044820152606481018290526117009085906323b872dd60e01b906084015b60408051601f198184030181529190526020810180516001600160e01b03166001600160e01b0319909316929092179091526118ca565b50505050565b60008183106117155781611717565b825b90505b92915050565b6001600160a01b038116731111111254eeb25477b68fb85ed929f73a960582148061176757506001600160a01b038116736352a56caadc4f1e25cd6c75970fa768a3304e64145b6040518060400160405280601481526020017325a9969899102ab735b737bbb7103937baba32b960611b815250906117b25760405162461bcd60e51b8152600401610fbc91906121af565b5050565b6040516370a0823160e01b81523060048201526000906001600160a01b038316906370a0823190602401602060405180830381865afa1580156117fd573d6000803e3d6000fd5b505050506040513d601f19601f8201168201806040525081019061171a91906121ec565b604051636eb1769f60e11b815282906001600160a01b0385169063dd62ed3e906118519030908690600401612484565b602060405180830381865afa15801561186e573d6000803e3d6000fd5b505050506040513d601f19601f8201168201806040525081019061189291906121ec565b10156118c5576118ad6001600160a01b03841682600061199c565b6118c56001600160a01b03841682600160ff1b61199c565b505050565b600061191f826040518060400160405280602081526020017f5361666545524332303a206c6f772d6c6576656c2063616c6c206661696c6564815250856001600160a01b0316611ab09092919063ffffffff16565b8051909150156118c5578080602001905181019061193d9190612551565b6118c55760405162461bcd60e51b815260206004820152602a60248201527f5361666545524332303a204552433230206f7065726174696f6e20646964206e6044820152691bdd081cdd58d8d9595960b21b6064820152608401610fbc565b801580611a155750604051636eb1769f60e11b81526001600160a01b0384169063dd62ed3e906119d29030908690600401612484565b602060405180830381865afa1580156119ef573d6000803e3d6000fd5b505050506040513d601f19601f82011682018060405250810190611a1391906121ec565b155b611a805760405162461bcd60e51b815260206004820152603660248201527f5361666545524332303a20617070726f76652066726f6d206e6f6e2d7a65726f60448201527520746f206e6f6e2d7a65726f20616c6c6f77616e636560501b6064820152608401610fbc565b6040516001600160a01b0383166024820152604481018290526118c590849063095ea7b360e01b906064016116c9565b6060611abf8484600085611ac7565b949350505050565b606082471015611b285760405162461bcd60e51b815260206004820152602660248201527f416464726573733a20696e73756666696369656e742062616c616e636520666f6044820152651c8818d85b1b60d21b6064820152608401610fbc565b600080866001600160a01b03168587604051611b449190612535565b60006040518083038185875af1925050503d8060008114611b81576040519150601f19603f3d011682016040523d82523d6000602084013e611b86565b606091505b5091509150611b9787838387611ba2565b979650505050505050565b60608315611c11578251600003611c0a576001600160a01b0385163b611c0a5760405162461bcd60e51b815260206004820152601d60248201527f416464726573733a2063616c6c20746f206e6f6e2d636f6e74726163740000006044820152606401610fbc565b5081611abf565b611abf8383815115611c265781518083602001fd5b8060405162461bcd60e51b8152600401610fbc91906121af565b6001600160a01b0381168114611c5557600080fd5b50565b634e487b7160e01b600052604160045260246000fd5b6040516080810167ffffffffffffffff81118282101715611c9157611c91611c58565b60405290565b604051601f8201601f1916810167ffffffffffffffff81118282101715611cc057611cc0611c58565b604052919050565b8015158114611c5557600080fd5b600060808284031215611ce857600080fd5b611cf0611c6e565b90508135611cfd81611cc8565b8152602082810135818301526040830135611d1781611c40565b6040830152606083013567ffffffffffffffff80821115611d3757600080fd5b818501915085601f830112611d4b57600080fd5b813581811115611d5d57611d5d611c58565b611d6f601f8201601f19168501611c97565b91508082528684828501011115611d8557600080fd5b808484018584013760008482840101525080606085015250505092915050565b600080600080600080600080610100898b031215611dc257600080fd5b8835611dcd81611c40565b97506020890135611ddd81611c40565b96506040890135611ded81611c40565b955060608901359450608089013567ffffffffffffffff811115611e1057600080fd5b611e1c8b828c01611cd6565b94505060a0890135925060c0890135915060e0890135611e3b81611c40565b809150509295985092959890939650565b600080600060608486031215611e6157600080fd5b8335611e6c81611c40565b92506020840135611e7c81611c40565b91506040840135611e8c81611c40565b809150509250925092565b600080600080600080600060e0888a031215611eb257600080fd5b8735611ebd81611c40565b96506020880135955060408801359450606088013567ffffffffffffffff811115611ee757600080fd5b611ef38a828b01611cd6565b9450506080880135925060a0880135915060c0880135611f1281611c40565b8091505092959891949750929550565b8060020b8114611c5557600080fd5b600080600060608486031215611f4657600080fd5b8335611f5181611c40565b92506020840135611f6181611f22565b91506040840135611e8c81611f22565b60008060008060008060008060006101208a8c031215611f9057600080fd5b8935611f9b81611c40565b985060208a0135611fab81611c40565b975060408a0135611fbb81611c40565b965060608a0135611fcb81611c40565b955060808a0135611fdb81611c40565b945060a08a0135935060c08a0135925060e08a013591506101008a013561200181611c40565b809150509295985092959850929598565b600080600080600060a0868803121561202a57600080fd5b85359450602086013561203c81611c40565b9350604086013561204c81611c40565b9250606086013561205c81611c40565b9150608086013561206c81611c40565b809150509295509295909350565b60008060006060848603121561208f57600080fd5b833592506020840135611e7c81611c40565b600080600080600080600060e0888a0312156120bc57600080fd5b87356120c781611c40565b965060208801356120d781611c40565b955060408801359450606088013593506080880135925060a0880135915060c0880135611f1281611c40565b6000806000806080858703121561211957600080fd5b843561212481611c40565b9350602085013561213481611f22565b9250604085013561214481611f22565b9150606085013561215481611cc8565b939692955090935050565b60005b8381101561217a578181015183820152602001612162565b50506000910152565b6000815180845261219b81602086016020860161215f565b601f01601f19169290920160200192915050565b6020815260006117176020830184612183565b6001600160a01b039485168152602081019390935292166040820152606081019190915260800190565b6000602082840312156121fe57600080fd5b5051919050565b6000806040838503121561221857600080fd5b505080516020909101519092909150565b6000806000806080858703121561223f57600080fd5b845161224a81611c40565b602086015190945061225b81611f22565b604086015190935061226c81611f22565b606086015190925061215481611cc8565b634e487b7160e01b600052601260045260246000fd5b634e487b7160e01b600052601160045260246000fd5b60008160020b8360020b806122c0576122c061227d565b627fffff198214600019821416156122da576122da612293565b90059392505050565b60008260020b8260020b028060020b915080821461230357612303612293565b5092915050565b600282810b9082900b03627fffff198112627fffff8213171561171a5761171a612293565b600281810b9083900b01627fffff8113627fffff198212171561171a5761171a612293565b8181038181111561171a5761171a612293565b60006020828403121561237957600080fd5b815160ff8116811461238a57600080fd5b9392505050565b600181815b808511156123cc5781600019048211156123b2576123b2612293565b808516156123bf57918102915b93841c9390800290612396565b509250929050565b6000826123e35750600161171a565b816123f05750600061171a565b816001811461240657600281146124105761242c565b600191505061171a565b60ff84111561242157612421612293565b50506001821b61171a565b5060208310610133831016604e8410600b841016171561244f575081810a61171a565b6124598383612391565b806000190482111561246d5761246d612293565b029392505050565b600061171760ff8416836123d4565b6001600160a01b0392831681529116602082015260400190565b808202811582820484141761171a5761171a612293565b6000826124c4576124c461227d565b500490565b6000602082840312156124db57600080fd5b815161238a81611c40565b600061171783836123d4565b60008060006060848603121561250757600080fd5b835192506020840151915060408401516fffffffffffffffffffffffffffffffff81168114611e8c57600080fd5b6000825161254781846020870161215f565b9190910192915050565b60006020828403121561256357600080fd5b815161238a81611cc8565b600060018060a01b03808916835260c0602084015261259060c0840189612183565b9681166040840152949094166060820152608081019290925260a0909101525092915050565b8082018082111561171a5761171a612293565b6001600160a01b03988916815296881660208801529487166040870152929095166060850152608084015260a083019390935260c082019290925290151560e0820152610100019056fea2646970667358221220d2470ccb3ef5e47e174cea5b9a0f388998f802a337567488324bef5fb65f14ae64736f6c63430008110033",
  "deployedBytecode": "0x73000000000000000000000000000000000000000030146080604052600436106100a85760003560e01c806367acb54b1161007057806367acb54b1461016f5780638c5628791461018f5780639ebb2af9146101b2578063ce3adc98146101d2578063f8328d9f146101f257600080fd5b806316894048146100ad5780631f377298146100cf578063430b38c51461010257806344283676146101225780634775e1bb1461014f575b600080fd5b8180156100b957600080fd5b506100cd6100c8366004611da5565b6101fa565b005b8180156100db57600080fd5b506100ef6100ea366004611e4c565b610297565b6040519081526020015b60405180910390f35b81801561010e57600080fd5b506100cd61011d366004611e97565b610324565b610135610130366004611f31565b61048b565b60408051600293840b81529190920b6020820152016100f9565b81801561015b57600080fd5b506100cd61016a366004611f71565b6105ba565b81801561017b57600080fd5b506100ef61018a366004612012565b610658565b6101a261019d36600461207a565b6108ed565b60405190151581526020016100f9565b8180156101be57600080fd5b506100cd6101cd3660046120a1565b610ab3565b6101e56101e0366004612103565b610c1b565b6040516100f991906121af565b6100ef606481565b6102078888888888610ec4565b821561028d5760405163556138c560e11b8152733c8b18162cbb11b9d0afe3828f4a6c6e247f30e09063aac2718a9061024a908a908790869088906004016121c2565b602060405180830381865af4158015610267573d6000803e3d6000fd5b505050506040513d601f19601f8201168201806040525081019061028b91906121ec565b505b5050505050505050565b60405163dd27ede760e01b81523060048201526001600160a01b0383811660248301528281166044830152600160648301526000919085169063dd27ede79060840160408051808303816000875af11580156102f7573d6000803e3d6000fd5b505050506040513d601f19601f8201168201806040525081019061031b9190612205565b50949350505050565b60038601546001870154600288015460048901546001600160a01b039384169392831692909116906301000000900460ff166103638b84848c8c610ec4565b86156103e95760405163556138c560e11b8152733c8b18162cbb11b9d0afe3828f4a6c6e247f30e09063aac2718a906103a69086908b908a908c906004016121c2565b602060405180830381865af41580156103c3573d6000803e3d6000fd5b505050506040513d601f19601f820116820180604052508101906103e791906121ec565b505b60038a0154600090819061041f908790600160c01b8104600290810b91600160d81b8104820b91600160a01b909104900b6111b6565b91509150600061043187848487610c1b565b905061043f8e8787846111fe565b5060039b909b01805465ffffffffffff60c01b1916600160c01b62ffffff9384160262ffffff60d81b191617600160d81b92909c16919091029a909a1790995550505050505050505050565b6000806000856001600160a01b031663217ac2376040518163ffffffff1660e01b8152600401608060405180830381865afa1580156104ce573d6000803e3d6000fd5b505050506040513d601f19601f820116820180604052508101906104f29190612229565b505091505060008160020b1280156105255750600281900b8461051581846122a9565b61051f91906122e3565b60020b14155b1561055d5783600181610538888561230a565b61054291906122a9565b61054c919061230a565b61055691906122e3565b9250610580565b8380610569878461230a565b61057391906122a9565b61057d91906122e3565b92505b8460020b6000146105a5576105968560026122e3565b6105a0908461232f565b6105af565b6105af848461232f565b915050935093915050565b6105c8898989898989611288565b821561028b5760405163556138c560e11b8152733c8b18162cbb11b9d0afe3828f4a6c6e247f30e09063aac2718a9061060b9089908790869088906004016121c2565b602060405180830381865af4158015610628573d6000803e3d6000fd5b505050506040513d601f19601f8201168201806040525081019061064c91906121ec565b50505050505050505050565b6040516370a0823160e01b81526001600160a01b03858116600483015260009182918616906370a0823190602401602060405180830381865afa1580156106a3573d6000803e3d6000fd5b505050506040513d601f19601f820116820180604052508101906106c791906121ec565b6040516370a0823160e01b81526001600160a01b0388811660048301529192506000918616906370a0823190602401602060405180830381865afa158015610713573d6000803e3d6000fd5b505050506040513d601f19601f8201168201806040525081019061073791906121ec565b905081881161075d576107556001600160a01b03871688308b611695565b8792506108e2565b878215610786576107796001600160a01b038816893086611695565b6107838382612354565b90505b81156108d4576000876001600160a01b031663313ce5676040518163ffffffff1660e01b8152600401602060405180830381865afa1580156107cc573d6000803e3d6000fd5b505050506040513d601f19601f820116820180604052508101906107f09190612367565b6107fb90600a612475565b604051635620c32d60e11b8152839073__$6668ebb5ac5ad37edc54ad8f6bc25d5212$__9063ac41865a90610836908b908e90600401612484565b602060405180830381865af4158015610853573d6000803e3d6000fd5b505050506040513d601f19601f8201168201806040525081019061087791906121ec565b610881919061249e565b61088b91906124b5565b905060006108998285611706565b90506108b06001600160a01b0389168b3084611695565b816108bb828561249e565b6108c591906124b5565b6108cf9084612354565b925050505b6108de818a612354565b9350505b505095945050505050565b600080836001600160a01b031663f77c47916040518163ffffffff1660e01b8152600401602060405180830381865afa15801561092e573d6000803e3d6000fd5b505050506040513d601f19601f8201168201806040525081019061095291906124c9565b6001600160a01b0316632630c12f6040518163ffffffff1660e01b8152600401602060405180830381865afa15801561098f573d6000803e3d6000fd5b505050506040513d601f19601f820116820180604052508101906109b391906124c9565b905067016345785d8a0000836001600160a01b031663313ce5676040518163ffffffff1660e01b8152600401602060405180830381865afa1580156109fc573d6000803e3d6000fd5b505050506040513d601f19601f82011682018060405250810190610a209190612367565b610a2b90600a612475565b60405163b3596f0760e01b81526001600160a01b03868116600483015284169063b3596f0790602401602060405180830381865afa158015610a71573d6000803e3d6000fd5b505050506040513d601f19601f82011682018060405250810190610a9591906121ec565b610a9f908861249e565b610aa991906124b5565b1195945050505050565b60038501546001860154600287015460048801546001600160a01b039384169392831692909116906301000000900460ff16610af38b8b8686868d611288565b8615610b795760405163556138c560e11b8152733c8b18162cbb11b9d0afe3828f4a6c6e247f30e09063aac2718a90610b369086908b908a908c906004016121c2565b602060405180830381865af4158015610b53573d6000803e3d6000fd5b505050506040513d601f19601f82011682018060405250810190610b7791906121ec565b505b60038901546000908190610baf908790600160c01b8104600290810b91600160d81b8104820b91600160a01b909104900b6111b6565b915091506000610bc187848487610c1b565b9050610bcf8e8787846111fe565b5060039a909a01805465ffffffffffff60c01b1916600160c01b62ffffff9384160262ffffff60d81b191617600160d81b92909b16919091029990991790985550505050505050505050565b60606000856001600160a01b031663d21220a76040518163ffffffff1660e01b8152600401602060405180830381865afa158015610c5d573d6000803e3d6000fd5b505050506040513d601f19601f82011682018060405250810190610c8191906124c9565b9050600073__$6668ebb5ac5ad37edc54ad8f6bc25d5212$__63ac41865a88846040518363ffffffff1660e01b8152600401610cbe929190612484565b602060405180830381865af4158015610cdb573d6000803e3d6000fd5b505050506040513d601f19601f82011682018060405250810190610cff91906121ec565b90506000826001600160a01b031663313ce5676040518163ffffffff1660e01b8152600401602060405180830381865afa158015610d41573d6000803e3d6000fd5b505050506040513d601f19601f82011682018060405250810190610d659190612367565b60ff169050816000610d7883600a6124e6565b6040516305f08b0f60e21b81526001600160a01b038c16600482015260028b810b60248301528a900b60448201526064810184905260848101829052909150600090819073__$6668ebb5ac5ad37edc54ad8f6bc25d5212$__906317c22c3c9060a401606060405180830381865af4158015610df8573d6000803e3d6000fd5b505050506040513d601f19601f82011682018060405250810190610e1c91906124f2565b50915091508815610e6f57600183610e34888461249e565b610e3e91906124b5565b6040805160ff9093166020840152820152606081018390526080016040516020818303038152906040529750610eb5565b60018284610e7d898561249e565b610e8791906124b5565b6040805160ff9094166020850152830191909152606082015260800160405160208183030381529060405297505b50505050505050949350505050565b610ed18160400151611720565b6000610ede868686610297565b9050610eeb8187866108ed565b156111ae576000610efb866117b6565b90506000610f08866117b6565b905060008460000151610f1b5786610f1d565b875b9050610f328186602001518760400151611821565b60008086604001516001600160a01b03168760600151604051610f559190612535565b6000604051808303816000865af19150503d8060008114610f92576040519150601f19603f3d011682016040523d82523d6000602084013e610f97565b606091505b5091509150818190610fc55760405162461bcd60e51b8152600401610fbc91906121af565b60405180910390fd5b5050506000610fd3896117b6565b90506000610fe0896117b6565b90508a6001600160a01b031663291f89c48489602001518a60000151611006578d611008565b8c5b8b5161101d576110188a88612354565b611027565b6110278987612354565b6040516001600160e01b031960e087901b1681526001600160a01b0394851660048201526024810193909352921660448201526064810191909152608481018b905260a401602060405180830381865afa158015611089573d6000803e3d6000fd5b505050506040513d601f19601f820116820180604052508101906110ad9190612551565b604051806040016040528060128152602001711514cb4c4d881c1c9a58d9481a5b5c1858dd60721b815250906110f65760405162461bcd60e51b8152600401610fbc91906121af565b50739971fdd707a2878dc201294dcabef5a0f890158963954d7e738c8c8c61111e8b87611706565b6040516001600160e01b031960e087901b1681526001600160a01b03948516600482015292841660248401529216604482015260648101919091526084016040805180830381865af4158015611178573d6000803e3d6000fd5b505050506040513d601f19601f8201168201806040525081019061119c9190612205565b50506111a7896117b6565b5050505050505b505050505050565b600080806111c4868661230a565b90506111f0878560020b8360020b146111e7576111e26002846122a9565b6111ea565b60005b8661048b565b909890975095505050505050565b739971fdd707a2878dc201294dcabef5a0f890158963ca27d10d85838686611225896117b6565b60006040518763ffffffff1660e01b81526004016112489695949392919061256e565b6040805180830381865af4158015611264573d6000803e3d6000fd5b505050506040513d601f19601f820116820180604052508101906111ae9190612205565b6000611295878585610297565b90506112a28188856108ed565b1561168c5760006112b2856117b6565b905060006112bf856117b6565b9050828110156114ee57604051635620c32d60e11b815260009073__$6668ebb5ac5ad37edc54ad8f6bc25d5212$__9063ac41865a90611305908b908a90600401612484565b602060405180830381865af4158015611322573d6000803e3d6000fd5b505050506040513d601f19601f8201168201806040525081019061134691906121ec565b90506000866001600160a01b031663313ce5676040518163ffffffff1660e01b8152600401602060405180830381865afa158015611388573d6000803e3d6000fd5b505050506040513d601f19601f820116820180604052508101906113ac9190612367565b6113b790600a612475565b6113c18487612354565b6113cb908461249e565b6113d591906124b5565b90506113e26064826124b5565b6113ec90826125b6565b9050739971fdd707a2878dc201294dcabef5a0f8901589637de8f5698c8c6001600160a01b0316634046ebae6040518163ffffffff1660e01b8152600401602060405180830381865afa158015611447573d6000803e3d6000fd5b505050506040513d601f19601f8201168201806040525081019061146b91906124c9565b8b8b611477878b611706565b8c6000806040518963ffffffff1660e01b815260040161149e9897969594939291906125c9565b6040805180830381865af41580156114ba573d6000803e3d6000fd5b505050506040513d601f19601f820116820180604052508101906114de9190612205565b50506114e9876117b6565b925050505b739971fdd707a2878dc201294dcabef5a0f890158963954d7e738a88886115158887611706565b6040516001600160e01b031960e087901b1681526001600160a01b03948516600482015292841660248401529216604482015260648101919091526084016040805180830381865af415801561156f573d6000803e3d6000fd5b505050506040513d601f19601f820116820180604052508101906115939190612205565b505061159e856117b6565b9050739971fdd707a2878dc201294dcabef5a0f8901589637de8f5698a8a6001600160a01b0316634046ebae6040518163ffffffff1660e01b8152600401602060405180830381865afa1580156115f9573d6000803e3d6000fd5b505050506040513d601f19601f8201168201806040525081019061161d91906124c9565b888a868a6000806040518963ffffffff1660e01b81526004016116479897969594939291906125c9565b6040805180830381865af4158015611663573d6000803e3d6000fd5b505050506040513d601f19601f820116820180604052508101906116879190612205565b505050505b50505050505050565b6040516001600160a01b03808516602483015283166044820152606481018290526117009085906323b872dd60e01b906084015b60408051601f198184030181529190526020810180516001600160e01b03166001600160e01b0319909316929092179091526118ca565b50505050565b60008183106117155781611717565b825b90505b92915050565b6001600160a01b038116731111111254eeb25477b68fb85ed929f73a960582148061176757506001600160a01b038116736352a56caadc4f1e25cd6c75970fa768a3304e64145b6040518060400160405280601481526020017325a9969899102ab735b737bbb7103937baba32b960611b815250906117b25760405162461bcd60e51b8152600401610fbc91906121af565b5050565b6040516370a0823160e01b81523060048201526000906001600160a01b038316906370a0823190602401602060405180830381865afa1580156117fd573d6000803e3d6000fd5b505050506040513d601f19601f8201168201806040525081019061171a91906121ec565b604051636eb1769f60e11b815282906001600160a01b0385169063dd62ed3e906118519030908690600401612484565b602060405180830381865afa15801561186e573d6000803e3d6000fd5b505050506040513d601f19601f8201168201806040525081019061189291906121ec565b10156118c5576118ad6001600160a01b03841682600061199c565b6118c56001600160a01b03841682600160ff1b61199c565b505050565b600061191f826040518060400160405280602081526020017f5361666545524332303a206c6f772d6c6576656c2063616c6c206661696c6564815250856001600160a01b0316611ab09092919063ffffffff16565b8051909150156118c5578080602001905181019061193d9190612551565b6118c55760405162461bcd60e51b815260206004820152602a60248201527f5361666545524332303a204552433230206f7065726174696f6e20646964206e6044820152691bdd081cdd58d8d9595960b21b6064820152608401610fbc565b801580611a155750604051636eb1769f60e11b81526001600160a01b0384169063dd62ed3e906119d29030908690600401612484565b602060405180830381865afa1580156119ef573d6000803e3d6000fd5b505050506040513d601f19601f82011682018060405250810190611a1391906121ec565b155b611a805760405162461bcd60e51b815260206004820152603660248201527f5361666545524332303a20617070726f76652066726f6d206e6f6e2d7a65726f60448201527520746f206e6f6e2d7a65726f20616c6c6f77616e636560501b6064820152608401610fbc565b6040516001600160a01b0383166024820152604481018290526118c590849063095ea7b360e01b906064016116c9565b6060611abf8484600085611ac7565b949350505050565b606082471015611b285760405162461bcd60e51b815260206004820152602660248201527f416464726573733a20696e73756666696369656e742062616c616e636520666f6044820152651c8818d85b1b60d21b6064820152608401610fbc565b600080866001600160a01b03168587604051611b449190612535565b60006040518083038185875af1925050503d8060008114611b81576040519150601f19603f3d011682016040523d82523d6000602084013e611b86565b606091505b5091509150611b9787838387611ba2565b979650505050505050565b60608315611c11578251600003611c0a576001600160a01b0385163b611c0a5760405162461bcd60e51b815260206004820152601d60248201527f416464726573733a2063616c6c20746f206e6f6e2d636f6e74726163740000006044820152606401610fbc565b5081611abf565b611abf8383815115611c265781518083602001fd5b8060405162461bcd60e51b8152600401610fbc91906121af565b6001600160a01b0381168114611c5557600080fd5b50565b634e487b7160e01b600052604160045260246000fd5b6040516080810167ffffffffffffffff81118282101715611c9157611c91611c58565b60405290565b604051601f8201601f1916810167ffffffffffffffff81118282101715611cc057611cc0611c58565b604052919050565b8015158114611c5557600080fd5b600060808284031215611ce857600080fd5b611cf0611c6e565b90508135611cfd81611cc8565b8152602082810135818301526040830135611d1781611c40565b6040830152606083013567ffffffffffffffff80821115611d3757600080fd5b818501915085601f830112611d4b57600080fd5b813581811115611d5d57611d5d611c58565b611d6f601f8201601f19168501611c97565b91508082528684828501011115611d8557600080fd5b808484018584013760008482840101525080606085015250505092915050565b600080600080600080600080610100898b031215611dc257600080fd5b8835611dcd81611c40565b97506020890135611ddd81611c40565b96506040890135611ded81611c40565b955060608901359450608089013567ffffffffffffffff811115611e1057600080fd5b611e1c8b828c01611cd6565b94505060a0890135925060c0890135915060e0890135611e3b81611c40565b809150509295985092959890939650565b600080600060608486031215611e6157600080fd5b8335611e6c81611c40565b92506020840135611e7c81611c40565b91506040840135611e8c81611c40565b809150509250925092565b600080600080600080600060e0888a031215611eb257600080fd5b8735611ebd81611c40565b96506020880135955060408801359450606088013567ffffffffffffffff811115611ee757600080fd5b611ef38a828b01611cd6565b9450506080880135925060a0880135915060c0880135611f1281611c40565b8091505092959891949750929550565b8060020b8114611c5557600080fd5b600080600060608486031215611f4657600080fd5b8335611f5181611c40565b92506020840135611f6181611f22565b91506040840135611e8c81611f22565b60008060008060008060008060006101208a8c031215611f9057600080fd5b8935611f9b81611c40565b985060208a0135611fab81611c40565b975060408a0135611fbb81611c40565b965060608a0135611fcb81611c40565b955060808a0135611fdb81611c40565b945060a08a0135935060c08a0135925060e08a013591506101008a013561200181611c40565b809150509295985092959850929598565b600080600080600060a0868803121561202a57600080fd5b85359450602086013561203c81611c40565b9350604086013561204c81611c40565b9250606086013561205c81611c40565b9150608086013561206c81611c40565b809150509295509295909350565b60008060006060848603121561208f57600080fd5b833592506020840135611e7c81611c40565b600080600080600080600060e0888a0312156120bc57600080fd5b87356120c781611c40565b965060208801356120d781611c40565b955060408801359450606088013593506080880135925060a0880135915060c0880135611f1281611c40565b6000806000806080858703121561211957600080fd5b843561212481611c40565b9350602085013561213481611f22565b9250604085013561214481611f22565b9150606085013561215481611cc8565b939692955090935050565b60005b8381101561217a578181015183820152602001612162565b50506000910152565b6000815180845261219b81602086016020860161215f565b601f01601f19169290920160200192915050565b6020815260006117176020830184612183565b6001600160a01b039485168152602081019390935292166040820152606081019190915260800190565b6000602082840312156121fe57600080fd5b5051919050565b6000806040838503121561221857600080fd5b505080516020909101519092909150565b6000806000806080858703121561223f57600080fd5b845161224a81611c40565b602086015190945061225b81611f22565b604086015190935061226c81611f22565b606086015190925061215481611cc8565b634e487b7160e01b600052601260045260246000fd5b634e487b7160e01b600052601160045260246000fd5b60008160020b8360020b806122c0576122c061227d565b627fffff198214600019821416156122da576122da612293565b90059392505050565b60008260020b8260020b028060020b915080821461230357612303612293565b5092915050565b600282810b9082900b03627fffff198112627fffff8213171561171a5761171a612293565b600281810b9083900b01627fffff8113627fffff198212171561171a5761171a612293565b8181038181111561171a5761171a612293565b60006020828403121561237957600080fd5b815160ff8116811461238a57600080fd5b9392505050565b600181815b808511156123cc5781600019048211156123b2576123b2612293565b808516156123bf57918102915b93841c9390800290612396565b509250929050565b6000826123e35750600161171a565b816123f05750600061171a565b816001811461240657600281146124105761242c565b600191505061171a565b60ff84111561242157612421612293565b50506001821b61171a565b5060208310610133831016604e8410600b841016171561244f575081810a61171a565b6124598383612391565b806000190482111561246d5761246d612293565b029392505050565b600061171760ff8416836123d4565b6001600160a01b0392831681529116602082015260400190565b808202811582820484141761171a5761171a612293565b6000826124c4576124c461227d565b500490565b6000602082840312156124db57600080fd5b815161238a81611c40565b600061171783836123d4565b60008060006060848603121561250757600080fd5b835192506020840151915060408401516fffffffffffffffffffffffffffffffff81168114611e8c57600080fd5b6000825161254781846020870161215f565b9190910192915050565b60006020828403121561256357600080fd5b815161238a81611cc8565b600060018060a01b03808916835260c0602084015261259060c0840189612183565b9681166040840152949094166060820152608081019290925260a0909101525092915050565b8082018082111561171a5761171a612293565b6001600160a01b03988916815296881660208801529487166040870152929095166060850152608084015260a083019390935260c082019290925290151560e0820152610100019056fea2646970667358221220d2470ccb3ef5e47e174cea5b9a0f388998f802a337567488324bef5fb65f14ae64736f6c63430008110033",
  "libraries": {
    "KyberLib": "0x4D8e5270A53946a9D2144E4512b66757333d569d",
    "ConverterStrategyBaseLib": "0x9971fDd707a2878Dc201294DcAbef5A0F8901589",
    "ConverterStrategyBaseLib2": "0x3C8b18162cBb11B9D0afe3828f4A6C6e247f30E0"
  },
  "devdoc": {
    "kind": "dev",
    "methods": {
      "closeDebt(ITetuConverter,address,IPool,address,address,uint256,uint256,uint256,address)": {
        "details": "Closes the debt positions for the given token pair.",
        "params": {
          "controller": "The controller address.",
          "pool": "The IUniswapV3Pool instance.",
          "tetuConverter": "The ITetuConverter instance.",
          "tokenA": "The address of tokenA.",
          "tokenB": "The address of tokenB."
        }
      },
      "getDebtTotalDebtAmountOut(ITetuConverter,address,address)": {
        "details": "Returns the total debt amount out for the given token pair.",
        "params": {
          "tetuConverter": "The ITetuConverter instance.",
          "tokenA": "The address of tokenA.",
          "tokenB": "The address of tokenB."
        },
        "returns": {
          "totalDebtAmountOut": "The total debt amount out for the token pair."
        }
      },
      "needCloseDebt(uint256,ITetuConverter,address)": {
        "details": "we close debt only if it is more than $0.1"
      },
      "rebalanceDebt(ITetuConverter,address,KyberConverterStrategyLogicLib.State storage,uint256,uint256,uint256,address)": {
        "details": "Rebalances the debt by either filling up or closing and reopening debt positions. Sets new tick range."
      }
    },
    "version": 1
  },
  "userdoc": {
    "kind": "user",
    "methods": {},
    "version": 1
  },
  "storageLayout": {
    "storage": [],
    "types": null
  }
}