{
  "address": "0x3e6126b6D1C5E07E22e06BeecAA29f0B5E13Bb33",
  "abi": [
    {
      "anonymous": false,
      "inputs": [
        {
          "indexed": false,
          "internalType": "uint256",
          "name": "fee0",
          "type": "uint256"
        },
        {
          "indexed": false,
          "internalType": "uint256",
          "name": "fee1",
          "type": "uint256"
        }
      ],
      "name": "KyberFeesClaimed",
      "type": "event"
    },
    {
      "anonymous": false,
      "inputs": [
        {
          "indexed": false,
          "internalType": "uint256",
          "name": "reward",
          "type": "uint256"
        }
      ],
      "name": "KyberRewardsClaimed",
      "type": "event"
    },
    {
      "anonymous": false,
      "inputs": [
        {
          "indexed": false,
          "internalType": "uint256",
          "name": "loss",
          "type": "uint256"
        },
        {
          "indexed": false,
          "internalType": "uint256",
          "name": "profitToCover",
          "type": "uint256"
        },
        {
          "indexed": false,
          "internalType": "uint256",
          "name": "coveredByRewards",
          "type": "uint256"
        }
      ],
      "name": "Rebalanced",
      "type": "event"
    },
    {
      "inputs": [],
      "name": "KNC",
      "outputs": [
        {
          "internalType": "address",
          "name": "",
          "type": "address"
        }
      ],
      "stateMutability": "view",
      "type": "function"
    },
    {
      "inputs": [
        {
          "internalType": "address",
          "name": "asset",
          "type": "address"
        },
        {
          "internalType": "address",
          "name": "controller",
          "type": "address"
        },
        {
          "internalType": "address[]",
          "name": "rewardTokens",
          "type": "address[]"
        },
        {
          "internalType": "uint256[]",
          "name": "amounts",
          "type": "uint256[]"
        }
      ],
      "name": "calcEarned",
      "outputs": [
        {
          "internalType": "uint256",
          "name": "",
          "type": "uint256"
        }
      ],
      "stateMutability": "view",
      "type": "function"
    },
    {
      "inputs": [
        {
          "internalType": "contract IPool",
          "name": "pool",
          "type": "IPool"
        },
        {
          "internalType": "int24",
          "name": "lowerTick",
          "type": "int24"
        },
        {
          "internalType": "int24",
          "name": "upperTick",
          "type": "int24"
        },
        {
          "internalType": "bool",
          "name": "depositorSwapTokens",
          "type": "bool"
        }
      ],
      "name": "getEntryData",
      "outputs": [
        {
          "internalType": "bytes",
          "name": "entryData",
          "type": "bytes"
        }
      ],
      "stateMutability": "view",
      "type": "function"
    },
    {
      "inputs": [
        {
          "internalType": "uint256",
          "name": "pId",
          "type": "uint256"
        }
      ],
      "name": "isFarmEnded",
      "outputs": [
        {
          "internalType": "bool",
          "name": "",
          "type": "bool"
        }
      ],
      "stateMutability": "view",
      "type": "function"
    }
  ],
  "transactionHash": "0x5bfb8152986aae199388ecb310b7242654f1bd08b231a9903038d15e375792a2",
  "args": [],
  "numDeployments": 4,
  "solcInputHash": "02fd187ff67ff49fb918dbe5a02fbd27",
  "bytecode": "0x6157f06200003b600b82828239805160001a60731461002e57634e487b7160e01b600052600060045260246000fd5b30600052607381538281f3fe73000000000000000000000000000000000000000030146080604052600436106101155760003560e01c80637ed25b6f116100ac578063a7aced091161007b578063a7aced09146102c0578063bd85be29146102d3578063ce3adc98146102f3578063d0290dfa14610306578063e992d8d81461032657600080fd5b80637ed25b6f146102585780638aa04c461461027a5780638fb5468e1461029a5780639ee0b2a9146102ad57600080fd5b806334d2ec3d116100e857806334d2ec3d146101c55780637269cb3a146101d857806374287da1146101fb5780637e41e8491461022957600080fd5b806309bcf1d61461011a578063131c66751461014957806328f0aec4146101765780632aed8d4114610197575b600080fd5b61012d61012836600461409b565b61034e565b6040805192151583529015156020830152015b60405180910390f35b81801561015557600080fd5b506101696101643660046140cc565b6103b8565b6040516101409190614137565b61018961018436600461409b565b610c1e565b604051908152602001610140565b8180156101a357600080fd5b506101b76101b2366004614269565b610d7d565b60405161014092919061430c565b6101896101d33660046143ca565b610f83565b6101eb6101e63660046144b2565b611145565b6040519015158152602001610140565b81801561020757600080fd5b5061021b6102163660046144d7565b61126e565b60405161014092919061451d565b81801561023557600080fd5b50610249610244366004614558565b611c79565b6040516101409392919061457d565b81801561026457600080fd5b5061027861027336600461409b565b61214b565b005b81801561028657600080fd5b506101696102953660046145e8565b612172565b6101696102a836600461409b565b612547565b6101eb6102bb36600461409b565b61274f565b6101696102ce3660046140cc565b6127e0565b6102e66102e136600461409b565b6129f9565b60405161014091906146c1565b6102e66103013660046146ee565b612b11565b81801561031257600080fd5b5061027861032136600461474a565b612b9f565b610341731c954e8fe737f99f68fa1ccda3e51ebdb291948c81565b6040516101409190614823565b6000806000610360846012015461274f565b60048501546013860154919250630100000090046001600160801b03161580159160ff1690829061038f575082155b8015610399575080155b94508180156103a55750825b80156103ae5750805b9350505050915091565b604080516002808252606080830184529260208301908036833750506040805160808101825260018701546001600160a01b03908116825260128801546020808401919091526002890154821683850152600389015490911660608301526004880154835180850190945260148452734b532d372057726f6e67206c697175696469747960601b9184019190915293945092630100000090046001600160801b03908116925085168210156104895760405162461bcd60e51b815260040161048091906146c1565b60405180910390fd5b50601385015460408051600180825281830190925260ff90921691600091602080830190803683370190505090508660110154816000815181106104cf576104cf614837565b602090810291909101015260408051600180825281830190925260009181602001602082028036833701905050905060008084156106725760006105318560008151811061051f5761051f614837565b60200260200101518960200151613266565b9050801561055b57875161055b90731c954e8fe737f99f68fa1ccda3e51ebdb291948c908361345d565b6105648b6134b8565b8093508194505050866001600160801b03168460008151811061058957610589614837565b6020908102919091018101919091528801516040516319ad699960e21b815260008051602061579b833981519152916366b5a664916105cf91908990899060040161484d565b600060405180830381600087803b1580156105e957600080fd5b505af11580156105fd573d6000803e3d6000fd5b5050604051634c1ecae760e11b815260008051602061579b833981519152925063983d95ce9150610632908890600401614137565b600060405180830381600087803b15801561064c57600080fd5b505af1158015610660573d6000803e3d6000fd5b50505060138c01805460ff1916905550505b600060008051602061575a8339815191526001600160a01b03166398e04d776040518060a00160405280886000815181106106af576106af614837565b602002602001015181526020018d6001600160801b031681526020016000815260200160008152602001428152506040518263ffffffff1660e01b81526004016107379190600060a082019050825182526001600160801b03602084015116602083015260408301516040830152606083015160608301526080830151608083015292915050565b6060604051808303816000875af1158015610756573d6000803e3d6000fd5b505050506040513d601f19601f8201168201806040525081019061077a9190614878565b8b60008151811061078d5761078d614837565b602002602001018c6001815181106107a7576107a7614837565b60209081029190910101929092529190529050801561096e5760008060008051602061575a8339815191526001600160a01b031663ed0d8dd260405180608001604052808a6000815181106107fe576107fe614837565b602002602001015181526020016000815260200160008152602001428152506040518263ffffffff1660e01b815260040161085f91908151815260208083015190820152604080830151908201526060918201519181019190915260800190565b6060604051808303816000875af115801561087e573d6000803e3d6000fd5b505050506040513d601f19601f820116820180604052508101906108a29190614878565b92509250508c60000160030160159054906101000a900460ff1615610918576108cb81866148bc565b94506108d782856148bc565b60408051838152602081018590529195507f79d10cdd430b68b5e77606c7f4bfa75e525eeb63a8281e1ca886c88cc4f7301a910160405180910390a161096b565b61092282866148bc565b945061092e81856148bc565b60408051848152602081018490529195507f79d10cdd430b68b5e77606c7f4bfa75e525eeb63a8281e1ca886c88cc4f7301a910160405180910390a15b50505b604088810151905163bf1316c160e01b81526001600160a01b0390911660048201526000602482015230604482015260008051602061575a8339815191529063bf1316c190606401600060405180830381600087803b1580156109d057600080fd5b505af11580156109e4573d6000803e3d6000fd5b50505050606088015160405163bf1316c160e01b81526001600160a01b0390911660048201526000602482015230604482015260008051602061575a8339815191529063bf1316c190606401600060405180830381600087803b158015610a4a57600080fd5b505af1158015610a5e573d6000803e3d6000fd5b505050506000831115610a885787516040890151610a88916001600160a01b03909116908561345d565b8115610aab5787516060890151610aab916001600160a01b03909116908461345d565b610ab58a886148cf565b60048c01805472ffffffffffffffffffffffffffffffff000000191663010000006001600160801b0384169081029190911790915590975015801590610b055750610b03886020015161274f565b155b15610c1057866001600160801b031684600081518110610b2757610b27614837565b602090810291909101015260405163598b8e7160e01b815260008051602061579b8339815191529063598b8e7190610b63908890600401614137565b600060405180830381600087803b158015610b7d57600080fd5b505af1158015610b91573d6000803e3d6000fd5b50505060138c01805460ff191660011790555060208801516040516341e817ab60e01b815260008051602061579b833981519152916341e817ab91610bdd91908990899060040161484d565b600060405180830381600087803b158015610bf757600080fd5b505af1158015610c0b573d6000803e3d6000fd5b505050505b505050505050505092915050565b805460038201546000916001600160a01b03169060ff600160a81b8204169083908190610c6d908590600160c81b8104600290810b91600160e01b8104820b91600160b01b909104900b6136c6565b91509150600080739BEC9494e8050973BbeA08638e79b14978A9A69A636795021f878686896040518563ffffffff1660e01b8152600401610cb194939291906148ef565b6040805180830381865af4158015610ccd573d6000803e3d6000fd5b505050506040513d601f19601f82011682018060405250810190610cf1919061491b565b90925090506000610d0282846148bc565b116040518060400160405280601081526020016f54532d3234207a65726f2076616c756560801b81525090610d4a5760405162461bcd60e51b815260040161048091906146c1565b50610d5581836148bc565b610d6782670de0b6b3a764000061493f565b610d71919061496c565b98975050505050505050565b6000606081610d9260a08a0160808b01614980565b9050600088600360200201359050600060405180604001604052808860020160009054906101000a90046001600160a01b03166001600160a01b03166001600160a01b031681526020018860030160009054906101000a90046001600160a01b03166001600160a01b03166001600160a01b0316815250905060008760000160009054906101000a90046001600160a01b031690506060600073D9fFe2185e50a9E7fC68934C763dbcA25b8634f063bd13c5298f8f8f8f898f6040518763ffffffff1660e01b8152600401610e6c969594939291906149a6565b600060405180830381865af4158015610e89573d6000803e3d6000fd5b505050506040513d6000823e601f3d908101601f19168201604052610eb19190810190614ab8565b919950925090508015610ee65760018a015484516020860151610ee492899285926001600160a01b0390921691886136f0565b505b6001851480610efd5750600285148015610efd5750875b15610f725760038a0154610f33908490600160c81b8104600290810b91600160e01b8104820b91600160b01b909104900b6136c6565b60038c01805465ffffffffffff60c81b1916600160e01b62ffffff9384160262ffffff60c81b191617600160c81b939092169290920217905590955085905b505050505050965096945050505050565b600080846001600160a01b0316634046ebae6040518163ffffffff1660e01b8152600401602060405180830381865afa158015610fc4573d6000803e3d6000fd5b505050506040513d601f19601f82011682018060405250810190610fe89190614b1c565b84519091506000805b8281101561113757600087828151811061100d5761100d614837565b60200260200101519050896001600160a01b0316816001600160a01b03160361105c5786828151811061104257611042614837565b60200260200101518361105591906148bc565b9250611126565b846001600160a01b031663a9dd14d689848151811061107d5761107d614837565b60200260200101518c8a868151811061109857611098614837565b60209081029190910101516040516001600160e01b031960e086901b1681526001600160a01b0393841660048201529290911660248301526044820152606401602060405180830381865afa1580156110f5573d6000803e3d6000fd5b505050506040513d601f19601f820116820180604052508101906111199190614b39565b61112390846148bc565b92505b5061113081614b52565b9050610ff1565b50925050505b949350505050565b8154604051638bb4a44360e01b815260009173D9fFe2185e50a9E7fC68934C763dbcA25b8634f09163498162cf9186918691739BEC9494e8050973BbeA08638e79b14978A9A69A91638bb4a443916111ab916001600160a01b0390911690600401614823565b602060405180830381865af41580156111c8573d6000803e3d6000fd5b505050506040513d601f19601f820116820180604052508101906111ec9190614b76565b6040516001600160e01b031960e086901b16815260048101939093526001600160a01b03909116602483015260020b604482015260640160a060405180830381865af4158015611240573d6000803e3d6000fd5b505050506040513d601f19601f820116820180604052508101906112649190614b93565b5090949350505050565b6040805160a08101825283546001600160a01b031681526003840154600160e01b8104600290810b6020840152600160c81b8204900b928201929092526011840154606080830191909152601285015460808301529160009190600160a81b900460ff168280826112f557600288015460038901546001600160a01b03918216911661130d565b600388015460028901546001600160a01b0391821691165b91509150821561138a578660018151811061132a5761132a614837565b60200260200101518760008151811061134557611345614837565b60200260200101518860008151811061136057611360614837565b602002602001018960018151811061137a5761137a614837565b6020908102919091010191909152525b60408051600280825260608201835290916020830190803683375050506060850151909650600090156114d657606085015160405163133f757160e31b815260009160008051602061575a833981519152916399fbab88916113f29160040190815260200190565b61016060405180830381865afa158015611410573d6000803e3d6000fd5b505050506040513d601f19601f820116820180604052508101906114349190614d18565b509050856040015160020b816060015160020b1415806114625750856020015160020b816080015160020b14155b156114d4576060860151604051630852cd8d60e31b8152600481019190915260008051602061575a833981519152906342966c6890602401600060405180830381600087803b1580156114b457600080fd5b505af11580156114c8573d6000803e3d6000fd5b50506000606089015250505b505b84606001516000036118c95760408051610180810182526001600160a01b0385811682528481166020808401919091528c5484516363cd2c8760e11b8152855160008051602061575a8339815191529663ea54063296959086019493169263c79a590e92600480820193918290030181865afa15801561155a573d6000803e3d6000fd5b505050506040513d601f19601f8201168201806040525081019061157e9190614de8565b62ffffff168152602001886040015160020b8152602001886020015160020b8152602001732434c77cd2C07d883219551dd6595867157901a1637127e2498a600001518b604001518c602001516040518463ffffffff1660e01b81526004016115e993929190614e03565b6040805180830381865af4158015611605573d6000803e3d6000fd5b505050506040513d601f19601f820116820180604052508101906116299190614e28565b81526020018b60008151811061164157611641614837565b602002602001015181526020018b60018151811061166157611661614837565b602002602001015181526020016000815260200160008152602001306001600160a01b03168152602001428152506040518263ffffffff1660e01b81526004016116ab9190614ec2565b6080604051808303816000875af11580156116ca573d6000803e3d6000fd5b505050506040513d601f19601f820116820180604052508101906116ee9190614fa4565b886060018b60008151811061170557611705614837565b602002602001018c60018151811061171f5761171f614837565b602090810291909101019290925291905291909152606086015160118b0155608086015190915061174f9061274f565b6118c4576040805160018082528183019092526000916020808301908036833701905050905085606001518160008151811061178d5761178d614837565b6020908102919091010152604080516001808252818301909252600091816020016020820280368337019050509050826001600160801b0316816000815181106117d9576117d9614837565b602090810291909101015260405163598b8e7160e01b815260008051602061579b8339815191529063598b8e7190611815908590600401614137565b600060405180830381600087803b15801561182f57600080fd5b505af1158015611843573d6000803e3d6000fd5b50505060138c01805460ff191660011790555060808701516040516341e817ab60e01b815260008051602061579b833981519152916341e817ab9161188f91908690869060040161484d565b600060405180830381600087803b1580156118a957600080fd5b505af11580156118bd573d6000803e3d6000fd5b5050505050505b611c16565b60008051602061575a8339815191526001600160a01b031663c238a3a36040518060e0016040528088606001518152602001732434c77cd2C07d883219551dd6595867157901a1637127e2498a600001518b604001518c602001516040518463ffffffff1660e01b815260040161194293929190614e03565b6040805180830381865af415801561195e573d6000803e3d6000fd5b505050506040513d601f19601f820116820180604052508101906119829190614e28565b81526020018b60008151811061199a5761199a614837565b602002602001015181526020018b6001815181106119ba576119ba614837565b602002602001015181526020016000815260200160008152602001428152506040518263ffffffff1660e01b81526004016119f59190614fe2565b6080604051808303816000875af1158015611a14573d6000803e3d6000fd5b505050506040513d601f19601f82011682018060405250810190611a389190615037565b5089600081518110611a4c57611a4c614837565b602002602001018a600181518110611a6657611a66614837565b6020908102919091010191909152526080860151909150611a869061274f565b611c165760408051600180825281830190925260009160208083019080368337019050509050856060015181600081518110611ac457611ac4614837565b602090810291909101015260048a0154630100000090046001600160801b0316600003611b5e5760405163598b8e7160e01b815260008051602061579b8339815191529063598b8e7190611b1c908490600401614137565b600060405180830381600087803b158015611b3657600080fd5b505af1158015611b4a573d6000803e3d6000fd5b50505060138b01805460ff19166001179055505b60408051600180825281830190925260009160208083019080368337019050509050826001600160801b031681600081518110611b9d57611b9d614837565b602090810291909101015260808701516040516341e817ab60e01b815260008051602061579b833981519152916341e817ab91611be191908690869060040161484d565b600060405180830381600087803b158015611bfb57600080fd5b505af1158015611c0f573d6000803e3d6000fd5b5050505050505b600489018054829190600390611c3d908490630100000090046001600160801b0316615076565b92506101000a8154816001600160801b0302191690836001600160801b03160217905550806001600160801b0316955050505050509250929050565b6001820154601183015460408051600380825260808201909252606093849384936001600160a01b03909216929091602082018580368337505050600288015481519196506001600160a01b0316908690600090611cd957611cd9614837565b6001600160a01b0392831660209182029290920101526003880154865191169086906001908110611d0c57611d0c614837565b60200260200101906001600160a01b031690816001600160a01b031681525050731c954e8fe737f99f68fa1ccda3e51ebdb291948c85600281518110611d5457611d54614837565b6001600160a01b03929092166020928302919091018201526040805160038082526080820190925291820160608036833701905050925060005b8551811015611de857611db9868281518110611dac57611dac614837565b60200260200101516137c1565b848281518110611dcb57611dcb614837565b602090810291909101015280611de081614b52565b915050611d8e565b50604080516003808252608082019092529060208201606080368337019050509350600081118015611e2d57506004870154630100000090046001600160801b031615155b15611fca57611e3b876134b8565b85600081518110611e4e57611e4e614837565b6020026020010186600181518110611e6857611e68614837565b6020026020010182815250828152505050611e87818860120154613266565b84600281518110611e9a57611e9a614837565b60200260200101818152505085611fca57600084600081518110611ec057611ec0614837565b60200260200101511115611f2057611f208285600081518110611ee557611ee5614837565b602002602001015187600081518110611f0057611f00614837565b60200260200101516001600160a01b031661345d9092919063ffffffff16565b600084600181518110611f3557611f35614837565b60200260200101511115611f7557611f758285600181518110611f5a57611f5a614837565b602002602001015187600181518110611f0057611f00614837565b600084600281518110611f8a57611f8a614837565b60200260200101511115611fca57611fca8285600281518110611faf57611faf614837565b602002602001015187600281518110611f0057611f00614837565b85156121425760005b8551811015612140576000868281518110611ff057611ff0614837565b60200260200101516001600160a01b03166370a08231856040518263ffffffff1660e01b81526004016120239190614823565b602060405180830381865afa158015612040573d6000803e3d6000fd5b505050506040513d601f19601f820116820180604052508101906120649190614b39565b9050801561212f5786828151811061207e5761207e614837565b60209081029190910101516040516323b872dd60e01b81526001600160a01b03868116600483015230602483015260448201849052909116906323b872dd906064016020604051808303816000875af11580156120df573d6000803e3d6000fd5b505050506040513d601f19601f820116820180604052508101906121039190615096565b508086838151811061211757612117614837565b6020026020010181815161212b91906148bc565b9052505b5061213981614b52565b9050611fd3565b505b50509250925092565b60006121568261034e565b915050801561216e5761216a826000611c79565b5050505b5050565b606061217c613fa8565b6121948161218d60208c018c614980565b8c87613837565b8954604051638bb4a44360e01b81526000918291739BEC9494e8050973BbeA08638e79b14978A9A69A91638bb4a443916121da916001600160a01b031690600401614823565b602060405180830381865af41580156121f7573d6000803e3d6000fd5b505050506040513d601f19601f8201168201806040525081019061221b9190614b76565b602084015160405163498162cf60e01b8152600481018f90526001600160a01b039091166024820152600282900b604482015290915073D9fFe2185e50a9E7fC68934C763dbcA25b8634f09063498162cf9060640160a060405180830381865af415801561228d573d6000803e3d6000fd5b505050506040513d601f19601f820116820180604052508101906122b19190614b93565b61010086015260e0850152915081156123395773D9fFe2185e50a9E7fC68934C763dbcA25b8634f0636280ea0e8d8560e001518661010001516040518463ffffffff1660e01b8152600401612308939291906150c9565b60006040518083038186803b15801561232057600080fd5b505af4158015612334573d6000803e3d6000fd5b505050505b8615806123435750815b6040518060400160405280601881526020017712d4cb4e48139bc81c9958985b185b98d9481b995959195960421b815250906123925760405162461bcd60e51b815260040161048091906146c1565b50818061239c5750845b1561253857739BEC9494e8050973BbeA08638e79b14978A9A69A63e4ee4bf78c8e8c8e8d8960c00151886040518863ffffffff1660e01b81526004016123e8979695949392919061516e565b60006040518083038186803b15801561240057600080fd5b505af4158015612414573d6000803e3d6000fd5b50505050600073E11BFbFAf8e53ADC8e67552e8A1607a1b9CB735963ac2a37d685602001518d876060015188608001518960c001516040518663ffffffff1660e01b81526004016124699594939291906151f4565b600060405180830381865af4158015612486573d6000803e3d6000fd5b505050506040513d6000823e601f3d908101601f191682016040526124ae9190810190615228565b9550905080156124f0576124e989828f60010160009054906101000a90046001600160a01b03168760600151886080015189604001516136f0565b6101208501525b61012084015160408051838152602081018d905280820192909252517f83387a3342ff1ebc5e437dc9ae0f98274afda12a11cf547eebec05a3e0b8f8a79181900360600190a1505b50505098975050505050505050565b6040805160028082526060808301845292602083019080368337505083546040805163217ac23760e01b815290519394506000936001600160a01b03909216925063217ac2379160048083019260809291908290030181865afa1580156125b2573d6000803e3d6000fd5b505050506040513d601f19601f820116820180604052508101906125d69190615264565b5050506003840154600480860154604051630544f36560e31b8152939450732434c77cd2C07d883219551dd6595867157901a193632a279b2893612646938793600160c81b8304600290810b94600160e01b909404900b9263010000009091046001600160801b031691016152b8565b6040805180830381865af4158015612662573d6000803e3d6000fd5b505050506040513d601f19601f82011682018060405250810190612686919061491b565b8360008151811061269957612699614837565b60200260200101846001815181106126b3576126b3614837565b6020908102919091010191909152526003830154600160a81b900460ff161561274957816001815181106126e9576126e9614837565b60200260200101518260008151811061270457612704614837565b60200260200101518360008151811061271f5761271f614837565b602002602001018460018151811061273957612739614837565b6020908102919091010191909152525b50919050565b604051632f380b3560e01b815260048101829052600090819060008051602061579b83398151915290632f380b3590602401600060405180830381865afa15801561279e573d6000803e3d6000fd5b505050506040513d6000823e601f3d908101601f191682016040526127c691908101906152ff565b505050505063ffffffff1692505050428110915050919050565b606060008360000160009054906101000a90046001600160a01b03166001600160a01b031663217ac2376040518163ffffffff1660e01b8152600401608060405180830381865afa158015612839573d6000803e3d6000fd5b505050506040513d601f19601f8201168201806040525081019061285d9190615264565b509192506002915061286c9050565b604051908082528060200260200182016040528015612895578160200160208202803683370190505b506003850154604051630544f36560e31b8152919350732434c77cd2C07d883219551dd6595867157901a191632a279b28916128ef918591600160c81b8104600290810b92600160e01b909204900b9089906004016152b8565b6040805180830381865af415801561290b573d6000803e3d6000fd5b505050506040513d601f19601f8201168201806040525081019061292f919061491b565b8360008151811061294257612942614837565b602002602001018460018151811061295c5761295c614837565b6020908102919091010191909152526003840154600160a81b900460ff16156129f2578160018151811061299257612992614837565b6020026020010151826000815181106129ad576129ad614837565b6020026020010151836000815181106129c8576129c8614837565b60200260200101846001815181106129e2576129e2614837565b6020908102919091010191909152525b5092915050565b6002810154604080516395d89b4160e01b815290516060926001600160a01b0316916395d89b419160048083019260009291908290030181865afa158015612a45573d6000803e3d6000fd5b505050506040513d6000823e601f3d908101601f19168201604052612a6d9190810190615444565b8260030160009054906101000a90046001600160a01b03166001600160a01b03166395d89b416040518163ffffffff1660e01b8152600401600060405180830381865afa158015612ac2573d6000803e3d6000fd5b505050506040513d6000823e601f3d908101601f19168201604052612aea9190810190615444565b604051602001612afb92919061548c565b6040516020818303038152906040529050919050565b6040516319c75b9360e31b8152606090739BEC9494e8050973BbeA08638e79b14978A9A69A9063ce3adc9890612b519088908890889088906004016148ef565b600060405180830381865af4158015612b6e573d6000803e3d6000fd5b505050506040513d6000823e601f3d908101601f19168201604052612b969190810190615444565b95945050505050565b600087600160200201516001600160a01b031614156040518060400160405280601181526020017054532d31207a65726f206164647265737360781b81525090612bfc5760405162461bcd60e51b815260040161048091906146c1565b50600087600160200201516001600160a01b0316630dfe16816040518163ffffffff1660e01b8152600401602060405180830381865afa158015612c44573d6000803e3d6000fd5b505050506040513d601f19601f82011682018060405250810190612c689190614b1c565b9050600088600160200201516001600160a01b031663d21220a76040518163ffffffff1660e01b8152600401602060405180830381865afa158015612cb1573d6000803e3d6000fd5b505050506040513d601f19601f82011682018060405250810190612cd59190614b1c565b9050612cdf614013565b60208a015160405163045b969b60e51b8152600091732434c77cd2C07d883219551dd6595867157901a191638b72d36091612d1c91600401614823565b602060405180830381865af4158015612d39573d6000803e3d6000fd5b505050506040513d601f19601f82011682018060405250810190612d5d9190614b76565b90508960020b600014612e2d5780612d75818c6154da565b612d7f9190615514565b60020b8a60020b14604051806040016040528060188152602001774b532d3320496e636f7272656374207469636b52616e676560401b81525090612dd65760405162461bcd60e51b815260040161048091906146c1565b5080612de2818b6154da565b612dec9190615514565b60020b8960020b1460405180606001604052806021815260200161577a6021913990612e2b5760405162461bcd60e51b815260040161048091906146c1565b505b600281900b825260208b01516040516322141b3b60e11b8152739BEC9494e8050973BbeA08638e79b14978A9A69A91634428367691612e7391908e908690600401614e03565b6040805180830381865af4158015612e8f573d6000803e3d6000fd5b505050506040513d601f19601f82011682018060405250810190612eb39190615534565b600290810b60408086019190915291810b602080860191909152908b900b60608086019190915282516080810184528e8301516001600160a01b0390811682528c811693820193909352878316818501529186169082015290516341fcc75560e01b815273D9fFe2185e50a9E7fC68934C763dbcA25b8634f092506341fcc75591612f4b918f919086908c908c908c90600401615563565b60006040518083038186803b158015612f6357600080fd5b505af4158015612f77573d6000803e3d6000fd5b5050505060008a600060028110612f9057612f90614837565b60200201516001600160a01b0316634046ebae6040518163ffffffff1660e01b8152600401602060405180830381865afa158015612fd2573d6000803e3d6000fd5b505050506040513d601f19601f82011682018060405250810190612ff69190614b1c565b60405163095ea7b360e01b81529091506001600160a01b0385169063095ea7b390613029908490600019906004016155ee565b6020604051808303816000875af1158015613048573d6000803e3d6000fd5b505050506040513d601f19601f8201168201806040525081019061306c9190615096565b5060405163095ea7b360e01b81526001600160a01b0384169063095ea7b39061309d908490600019906004016155ee565b6020604051808303816000875af11580156130bc573d6000803e3d6000fd5b505050506040513d601f19601f820116820180604052508101906130e09190615096565b5060405163095ea7b360e01b81526001600160a01b0385169063095ea7b39061311f9060008051602061575a83398151915290600019906004016155ee565b6020604051808303816000875af115801561313e573d6000803e3d6000fd5b505050506040513d601f19601f820116820180604052508101906131629190615096565b5060405163095ea7b360e01b81526001600160a01b0384169063095ea7b3906131a19060008051602061575a83398151915290600019906004016155ee565b6020604051808303816000875af11580156131c0573d6000803e3d6000fd5b505050506040513d601f19601f820116820180604052508101906131e49190615096565b5060405163a22cb46560e01b815260008051602061579b83398151915260048201526001602482015260008051602061575a8339815191529063a22cb46590604401600060405180830381600087803b15801561324057600080fd5b505af1158015613254573d6000803e3d6000fd5b50505050505050505050505050505050565b60408051600180825281830190925260009182919060208083019080368337019050509050838160008151811061329f5761329f614837565b602090810291909101015260408051600180825281830190925260009181602001602082028036833701905050905083816000815181106132e2576132e2614837565b60209081029190910181019190915260408051918201815282825280516001808252818301909252600091816020015b60608152602001906001900390816133125790505090508160405160200161333a9190615607565b6040516020818303038152906040528160008151811061335c5761335c614837565b60200260200101819052506000613386731c954e8fe737f99f68fa1ccda3e51ebdb291948c6137c1565b604051630c07c01b60e11b815290915060008051602061579b8339815191529063180f8036906133bc908890869060040161564c565b600060405180830381600087803b1580156133d657600080fd5b505af11580156133ea573d6000803e3d6000fd5b505050508061340c731c954e8fe737f99f68fa1ccda3e51ebdb291948c6137c1565b61341691906156be565b95508515613452576040518681527fc058de407254813731731bca5bcc8949f893c829ef3ae53b8aad1df003366a7f9060200160405180910390a15b505050505092915050565b6134b38363a9059cbb60e01b848460405160240161347c9291906155ee565b60408051601f198184030181529190526020810180516001600160e01b03166001600160e01b031990931692909217909152613985565b505050565b60408051600180825281830190925260009182918291602080830190803683370190505090508360110154816000815181106134f6576134f6614837565b6020908102919091010152600284015460038501546001600160a01b0391821691166000613523836137c1565b90506000613530836137c1565b9050600060008051602061575a8339815191526001600160a01b03166399fbab888760008151811061356457613564614837565b60200260200101516040518263ffffffff1660e01b815260040161358a91815260200190565b61016060405180830381865afa1580156135a8573d6000803e3d6000fd5b505050506040513d601f19601f820116820180604052508101906135cc9190614d18565b5060c0810151909150156136bb57885460405163b825627560e01b815260008051602061579b8339815191529163b825627591613622918a9160009182916001600160a01b0390911690829042906004016156d1565b600060405180830381600087803b15801561363c57600080fd5b505af1158015613650573d6000803e3d6000fd5b505050508261365e866137c1565b61366891906156be565b975081613674856137c1565b61367e91906156be565b604080518a8152602081018390529198507f79d10cdd430b68b5e77606c7f4bfa75e525eeb63a8281e1ca886c88cc4f7301a910160405180910390a15b505050505050915091565b60008060006136d487613a57565b90506136e281878787613abb565b925092505094509492505050565b600085156137b7576040516367acb54b60e01b8152600481018790526001600160a01b0380871660248301528086166044830152808516606483015283166084820152739BEC9494e8050973BbeA08638e79b14978A9A69A906367acb54b9060a401602060405180830381865af415801561376f573d6000803e3d6000fd5b505050506040513d601f19601f820116820180604052508101906137939190614b39565b905060006137a182886156be565b905080156137b5576137b588600083613b85565b505b9695505050505050565b6040516370a0823160e01b81526000906001600160a01b038316906370a08231906137f0903090600401614823565b602060405180830381865afa15801561380d573d6000803e3d6000fd5b505050506040513d601f19601f820116820180604052508101906138319190614b39565b92915050565b81546001600160a01b031660408086019190915280518082019091526005830160026000835b828210156138e957604080518082019091526005830285018054829060ff16600381111561388d5761388d6150b3565b600381111561389e5761389e6150b3565b815260408051608081019182905260209092019190600184019060049082845b8154815260200190600101908083116138be575050505050815250508152602001906001019061385d565b505050908552506001600160a01b03838116602080870191909152600284015482166060870181905260038501549283166080880152600160a01b90920460ff16151560a08701526000918252829052604090205461394790613dfe565b60c08501515260808401516001600160a01b031660009081526020829052604090205461397390613dfe565b60c08501516001602002015250505050565b60006139da826040518060400160405280602081526020017f5361666545524332303a206c6f772d6c6576656c2063616c6c206661696c6564815250856001600160a01b0316613e169092919063ffffffff16565b8051909150156134b357808060200190518101906139f89190615096565b6134b35760405162461bcd60e51b815260206004820152602a60248201527f5361666545524332303a204552433230206f7065726174696f6e20646964206e6044820152691bdd081cdd58d8d9595960b21b6064820152608401610480565b6000816001600160a01b031663217ac2376040518163ffffffff1660e01b8152600401608060405180830381865afa158015613a97573d6000803e3d6000fd5b505050506040513d601f19601f820116820180604052508101906112649190615264565b60008080613ac98686615718565b905060008460020b8260020b14613aea57613ae56002836154da565b613aed565b60005b60405163cd8e20e760e01b815260028a810b600483015282810b602483015287900b604482015290915073D9fFe2185e50a9E7fC68934C763dbcA25b8634f09063cd8e20e7906064016040805180830381865af4158015613b52573d6000803e3d6000fd5b505050506040513d601f19601f82011682018060405250810190613b769190615534565b93509350505094509492505050565b6000836001600160a01b03166338d52e0f6040518163ffffffff1660e01b8152600401602060405180830381865afa158015613bc5573d6000803e3d6000fd5b505050506040513d601f19601f82011682018060405250810190613be99190614b1c565b90506000846001600160a01b031663fbfa77cf6040518163ffffffff1660e01b8152600401602060405180830381865afa158015613c2b573d6000803e3d6000fd5b505050506040513d601f19601f82011682018060405250810190613c4f9190614b1c565b90506000826001600160a01b03166370a08231836040518263ffffffff1660e01b8152600401613c7f9190614823565b602060405180830381865afa158015613c9c573d6000803e3d6000fd5b505050506040513d601f19601f82011682018060405250810190613cc09190614b39565b604051630855081f60e01b815260048101879052602481018690529091506001600160a01b03871690630855081f90604401600060405180830381600087803b158015613d0c57600080fd5b505af1158015613d20573d6000803e3d6000fd5b50506040516370a0823160e01b8152600092506001600160a01b03861691506370a0823190613d53908690600401614823565b602060405180830381865afa158015613d70573d6000803e3d6000fd5b505050506040513d601f19601f82011682018060405250810190613d949190614b39565b9050818111613da4576000613dae565b613dae82826156be565b905084811015613df5577fdf392b47ba4bbae72ff7c68976df0acdc2813e181199d2b2f65187eeb0ee6105613de382876156be565b60405190815260200160405180910390a15b50505050505050565b60008115613e0c5781613831565b620186a092915050565b6060613e258484600085613e2f565b90505b9392505050565b606082471015613e905760405162461bcd60e51b815260206004820152602660248201527f416464726573733a20696e73756666696369656e742062616c616e636520666f6044820152651c8818d85b1b60d21b6064820152608401610480565b600080866001600160a01b03168587604051613eac919061573d565b60006040518083038185875af1925050503d8060008114613ee9576040519150601f19603f3d011682016040523d82523d6000602084013e613eee565b606091505b5091509150613eff87838387613f0a565b979650505050505050565b60608315613f79578251600003613f72576001600160a01b0385163b613f725760405162461bcd60e51b815260206004820152601d60248201527f416464726573733a2063616c6c20746f206e6f6e2d636f6e74726163740000006044820152606401610480565b508161113d565b61113d8383815115613f8e5781518083602001fd5b8060405162461bcd60e51b815260040161048091906146c1565b604051806101400160405280613fbc614031565b815260006020820181905260408201819052606082018190526080820181905260a082015260c001613fec61405e565b8152602001613ff961405e565b815260200161400661405e565b8152602001600081525090565b60405180608001604052806004906020820280368337509192915050565b60405180604001604052806002905b61404861407c565b8152602001906001900390816140405790505090565b60405180604001604052806002906020820280368337509192915050565b604080518082019091528060008152602001614096614013565b905290565b6000602082840312156140ad57600080fd5b5035919050565b6001600160801b03811681146140c957600080fd5b50565b600080604083850312156140df57600080fd5b8235915060208301356140f1816140b4565b809150509250929050565b600081518084526020808501945080840160005b8381101561412c57815187529582019590820190600101614110565b509495945050505050565b602081526000613e2860208301846140fc565b806080810183101561383157600080fd5b634e487b7160e01b600052604160045260246000fd5b60405161010081016001600160401b03811182821017156141945761419461415b565b60405290565b604080519081016001600160401b03811182821017156141945761419461415b565b604051601f8201601f191681016001600160401b03811182821017156141e4576141e461415b565b604052919050565b60006001600160401b038211156142055761420561415b565b50601f01601f191660200190565b600082601f83011261422457600080fd5b8135614237614232826141ec565b6141bc565b81815284602083860101111561424c57600080fd5b816020850160208301376000918101602001919091529392505050565b6000806000806000806101a0878903121561428357600080fd5b60a087018881111561429457600080fd5b8796506142a1898261414a565b9550506101208701356001600160401b03808211156142bf57600080fd5b6142cb8a838b01614213565b95506101408901359150808211156142e257600080fd5b506142ef89828a01614213565b935050610160870135915061018087013590509295509295509295565b8215158152604060208201526000613e2560408301846140fc565b6001600160a01b03811681146140c957600080fd5b803561434781614327565b919050565b60006001600160401b038211156143655761436561415b565b5060051b60200190565b600082601f83011261438057600080fd5b813560206143906142328361434c565b82815260059290921b840181019181810190868411156143af57600080fd5b8286015b848110156137b557803583529183019183016143b3565b600080600080608085870312156143e057600080fd5b84356143eb81614327565b93506020858101356143fc81614327565b935060408601356001600160401b038082111561441857600080fd5b818801915088601f83011261442c57600080fd5b813561443a6142328261434c565b81815260059190911b8301840190848101908b83111561445957600080fd5b938501935b8285101561448057843561447181614327565b8252938501939085019061445e565b96505050606088013592508083111561449857600080fd5b50506144a68782880161436f565b91505092959194509250565b600080604083850312156144c557600080fd5b8235915060208301356140f181614327565b600080604083850312156144ea57600080fd5b8235915060208301356001600160401b0381111561450757600080fd5b6145138582860161436f565b9150509250929050565b60408152600061453060408301856140fc565b90508260208301529392505050565b80151581146140c957600080fd5b80356143478161453f565b6000806040838503121561456b57600080fd5b8235915060208301356140f18161453f565b606080825284519082018190526000906020906080840190828801845b828110156145bf5781516001600160a01b03168452928401929084019060010161459a565b505050838103828501526145d381876140fc565b91505082810360408401526137b781856140fc565b600080600080600080600080610120898b03121561460557600080fd5b88359750606089018a81111561461a57600080fd5b60208a0197503595506080890135945060a089013561463881614327565b935060c08901356146488161453f565b925060e089013591506101008901356146608161453f565b809150509295985092959890939650565b60005b8381101561468c578181015183820152602001614674565b50506000910152565b600081518084526146ad816020860160208601614671565b601f01601f19169290920160200192915050565b602081526000613e286020830184614695565b8060020b81146140c957600080fd5b8035614347816146d4565b6000806000806080858703121561470457600080fd5b843561470f81614327565b9350602085013561471f816146d4565b9250604085013561472f816146d4565b9150606085013561473f8161453f565b939692955090935050565b6000806000806000806000806101e0898b03121561476757600080fd5b8835975060208a603f8b011261477c57600080fd5b61478461419a565b8060608c018d81111561479657600080fd5b838d015b818110156147ba5780356147ad81614327565b845292840192840161479a565b50819a506147c7816146e3565b9950505050506147d960808a016146e3565b94506147e760a08a0161433c565b93506147f560c08a0161454d565b92506148048a60e08b0161414a565b91506148148a6101608b0161414a565b90509295985092959890939650565b6001600160a01b0391909116815260200190565b634e487b7160e01b600052603260045260246000fd5b83815260606020820152600061486660608301856140fc565b82810360408401526137b781856140fc565b60008060006060848603121561488d57600080fd5b8351925060208401519150604084015190509250925092565b634e487b7160e01b600052601160045260246000fd5b80820180821115613831576138316148a6565b6001600160801b038281168282160390808211156129f2576129f26148a6565b6001600160a01b03949094168452600292830b6020850152910b60408301521515606082015260800190565b6000806040838503121561492e57600080fd5b505080516020909101519092909150565b8082028115828204841417613831576138316148a6565b634e487b7160e01b600052601260045260246000fd5b60008261497b5761497b614956565b500490565b60006020828403121561499257600080fd5b8135613e2881614327565b60808183375050565b60006101c08289835b60058110156149e15781356149c381614327565b6001600160a01b0316835260209283019291909101906001016149af565b50505060808860a0850137806101208401526149ff81840188614695565b9050828103610140840152614a148187614695565b91505061016082018460005b6002811015614a485781516001600160a01b0316835260209283019290910190600101614a20565b505050826101a0830152979650505050505050565b600082601f830112614a6e57600080fd5b81516020614a7e6142328361434c565b82815260059290921b84018101918181019086841115614a9d57600080fd5b8286015b848110156137b55780518352918301918301614aa1565b600080600060608486031215614acd57600080fd5b8351614ad88161453f565b60208501519093506001600160401b03811115614af457600080fd5b614b0086828701614a5d565b925050604084015190509250925092565b805161434781614327565b600060208284031215614b2e57600080fd5b8151613e2881614327565b600060208284031215614b4b57600080fd5b5051919050565b600060018201614b6457614b646148a6565b5060010190565b8051614347816146d4565b600060208284031215614b8857600080fd5b8151613e28816146d4565b600080600060a08486031215614ba857600080fd5b8351614bb38161453f565b92506020603f85018613614bc657600080fd5b614bce61419a565b806060870188811115614be057600080fd5b8388015b81811015614c04578051614bf78161453f565b8452928401928401614be4565b5081955088607f890112614c1757600080fd5b614c1f61419a565b925082915060a0880189811115614c3557600080fd5b80821015614c5c57815160048110614c4d5760008081fd5b84529284019290840190614c35565b50508093505050509250925092565b805169ffffffffffffffffffff8116811461434757600080fd5b8051614347816140b4565b805162ffffff8116811461434757600080fd5b600060608284031215614cb557600080fd5b604051606081018181106001600160401b0382111715614cd757614cd761415b565b80604052508091508251614cea81614327565b8152614cf860208401614c90565b60208201526040830151614d0b81614327565b6040919091015292915050565b600080828403610160811215614d2d57600080fd5b61010080821215614d3d57600080fd5b614d45614171565b915084516bffffffffffffffffffffffff81168114614d6357600080fd5b8252614d7160208601614b11565b6020830152614d8260408601614c6b565b6040830152614d9360608601614b6b565b6060830152614da460808601614b6b565b6080830152614db560a08601614c85565b60a083015260c085015160c083015260e085015160e0830152819350614ddd86828701614ca3565b925050509250929050565b600060208284031215614dfa57600080fd5b613e2882614c90565b6001600160a01b03939093168352600291820b6020840152900b604082015260600190565b600060408284031215614e3a57600080fd5b82601f830112614e4957600080fd5b614e5161419a565b806040840185811115614e6357600080fd5b845b81811015614e86578051614e78816146d4565b845260209384019301614e65565b509095945050505050565b8060005b6002808210614ea45750614ebc565b8251900b845260209384019390910190600101614e95565b50505050565b81516001600160a01b031681526101a081016020830151614eee60208401826001600160a01b03169052565b506040830151614f05604084018262ffffff169052565b506060830151614f1a606084018260020b9052565b506080830151614f2f608084018260020b9052565b5060a0830151614f4260a0840182614e91565b5060c083015160e083810191909152830151610100808401919091528301516101208084019190915283015161014080840191909152830151610160614f92818501836001600160a01b03169052565b80850151610180850152505092915050565b60008060008060808587031215614fba57600080fd5b845193506020850151614fcc816140b4565b6040860151606090960151949790965092505050565b81518152602080830151610100830191614ffe90840182614e91565b506040830151606083015260608301516080830152608083015160a083015260a083015160c083015260c083015160e083015292915050565b6000806000806080858703121561504d57600080fd5b8451615058816140b4565b60208601516040870151606090970151919890975090945092505050565b6001600160801b038181168382160190808211156129f2576129f26148a6565b6000602082840312156150a857600080fd5b8151613e288161453f565b634e487b7160e01b600052602160045260246000fd5b83815260a0810160208083018560005b60028110156150f85781511515835291830191908301906001016150d9565b505050606083018460005b600281101561513f578151600480821061512c57634e487b7160e01b6000526021815260246000fd5b5083529183019190830190600101615103565b50505050949350505050565b8060005b6002811015614ebc57815184526020938401939091019060010161514f565b6101208101818960005b60028110156151aa57813561518c81614327565b6001600160a01b031683526020928301929190910190600101615178565b5050506040820188905260608201879052608082018690526001600160a01b03851660a08301526151de60c083018561514b565b8260020b61010083015298975050505050505050565b6001600160a01b0386811682526020820186905284811660408301528316606082015260c081016137b7608083018461514b565b6000806040838503121561523b57600080fd5b8251915060208301516001600160401b0381111561525857600080fd5b61451385828601614a5d565b6000806000806080858703121561527a57600080fd5b845161528581614327565b6020860151909450615296816146d4565b60408601519093506152a7816146d4565b606086015190925061473f8161453f565b6001600160a01b03949094168452600292830b6020850152910b60408301526001600160801b0316606082015260800190565b805163ffffffff8116811461434757600080fd5b600080600080600080600080610100898b03121561531c57600080fd5b885161532781614327565b975060206153368a82016152eb565b975061534460408b016152eb565b965060608a0151955060808a0151945060a08a0151935060c08a01516001600160401b038082111561537557600080fd5b818c0191508c601f83011261538957600080fd5b81516153976142328261434c565b81815260059190911b8301840190848101908f8311156153b657600080fd5b938501935b828510156153dd5784516153ce81614327565b825293850193908501906153bb565b60e08f015190975094505050808311156153f657600080fd5b50506154048b828c01614a5d565b9150509295985092959890939650565b6000615422614232846141ec565b905082815283838301111561543657600080fd5b613e28836020830184614671565b60006020828403121561545657600080fd5b81516001600160401b0381111561546c57600080fd5b8201601f8101841361547d57600080fd5b61113d84825160208401615414565b65025bcb132b9160d51b8152600083516154ad816006850160208801614671565b602f60f81b60069184019182015283516154ce816007840160208801614671565b01600701949350505050565b60008160020b8360020b806154f1576154f1614956565b627fffff1982146000198214161561550b5761550b6148a6565b90059392505050565b60008260020b8260020b028060020b91508082146129f2576129f26148a6565b6000806040838503121561554757600080fd5b8251615552816146d4565b60208401519092506140f1816146d4565b868152610240810160208083018860005b600481101561559a5781516001600160a01b031683529183019190830190600101615574565b50505060a083018760005b60048110156155c557815160020b835291830191908301906001016155a5565b505050508415156101208301526155e061014083018561499d565b613eff6101c083018461499d565b6001600160a01b03929092168252602082015260400190565b6020808252825182820182905280516040840181905260009291820190839060608601905b808310156137b5578351825292840192600192909201919084019061562c565b60408152600061565f60408301856140fc565b6020838203818501528185518084528284019150828160051b85010183880160005b838110156156af57601f1987840301855261569d838351614695565b94860194925090850190600101615681565b50909998505050505050505050565b81810381811115613831576138316148a6565b60c0815260006156e460c08301896140fc565b60208301979097525060408101949094526001600160a01b039290921660608401521515608083015260a090910152919050565b600282810b9082900b03627fffff198112627fffff82131715613831576138316148a6565b6000825161574f818460208701614671565b919091019291505056fe000000000000000000000000e222fbe074a436145b255442d919e4e3a6c6a4804b532d3420496e636f727265637420726562616c616e63655469636b52616e67650000000000000000000000007d5ba536ab244aaa1ea42ab88428847f25e3e676a264697066735822122007f59c1c4f33abd45512057e8e7a7f08a809e1590af0ef214c54849753ce873464736f6c63430008110033",
  "deployedBytecode": "0x73000000000000000000000000000000000000000030146080604052600436106101155760003560e01c80637ed25b6f116100ac578063a7aced091161007b578063a7aced09146102c0578063bd85be29146102d3578063ce3adc98146102f3578063d0290dfa14610306578063e992d8d81461032657600080fd5b80637ed25b6f146102585780638aa04c461461027a5780638fb5468e1461029a5780639ee0b2a9146102ad57600080fd5b806334d2ec3d116100e857806334d2ec3d146101c55780637269cb3a146101d857806374287da1146101fb5780637e41e8491461022957600080fd5b806309bcf1d61461011a578063131c66751461014957806328f0aec4146101765780632aed8d4114610197575b600080fd5b61012d61012836600461409b565b61034e565b6040805192151583529015156020830152015b60405180910390f35b81801561015557600080fd5b506101696101643660046140cc565b6103b8565b6040516101409190614137565b61018961018436600461409b565b610c1e565b604051908152602001610140565b8180156101a357600080fd5b506101b76101b2366004614269565b610d7d565b60405161014092919061430c565b6101896101d33660046143ca565b610f83565b6101eb6101e63660046144b2565b611145565b6040519015158152602001610140565b81801561020757600080fd5b5061021b6102163660046144d7565b61126e565b60405161014092919061451d565b81801561023557600080fd5b50610249610244366004614558565b611c79565b6040516101409392919061457d565b81801561026457600080fd5b5061027861027336600461409b565b61214b565b005b81801561028657600080fd5b506101696102953660046145e8565b612172565b6101696102a836600461409b565b612547565b6101eb6102bb36600461409b565b61274f565b6101696102ce3660046140cc565b6127e0565b6102e66102e136600461409b565b6129f9565b60405161014091906146c1565b6102e66103013660046146ee565b612b11565b81801561031257600080fd5b5061027861032136600461474a565b612b9f565b610341731c954e8fe737f99f68fa1ccda3e51ebdb291948c81565b6040516101409190614823565b6000806000610360846012015461274f565b60048501546013860154919250630100000090046001600160801b03161580159160ff1690829061038f575082155b8015610399575080155b94508180156103a55750825b80156103ae5750805b9350505050915091565b604080516002808252606080830184529260208301908036833750506040805160808101825260018701546001600160a01b03908116825260128801546020808401919091526002890154821683850152600389015490911660608301526004880154835180850190945260148452734b532d372057726f6e67206c697175696469747960601b9184019190915293945092630100000090046001600160801b03908116925085168210156104895760405162461bcd60e51b815260040161048091906146c1565b60405180910390fd5b50601385015460408051600180825281830190925260ff90921691600091602080830190803683370190505090508660110154816000815181106104cf576104cf614837565b602090810291909101015260408051600180825281830190925260009181602001602082028036833701905050905060008084156106725760006105318560008151811061051f5761051f614837565b60200260200101518960200151613266565b9050801561055b57875161055b90731c954e8fe737f99f68fa1ccda3e51ebdb291948c908361345d565b6105648b6134b8565b8093508194505050866001600160801b03168460008151811061058957610589614837565b6020908102919091018101919091528801516040516319ad699960e21b815260008051602061579b833981519152916366b5a664916105cf91908990899060040161484d565b600060405180830381600087803b1580156105e957600080fd5b505af11580156105fd573d6000803e3d6000fd5b5050604051634c1ecae760e11b815260008051602061579b833981519152925063983d95ce9150610632908890600401614137565b600060405180830381600087803b15801561064c57600080fd5b505af1158015610660573d6000803e3d6000fd5b50505060138c01805460ff1916905550505b600060008051602061575a8339815191526001600160a01b03166398e04d776040518060a00160405280886000815181106106af576106af614837565b602002602001015181526020018d6001600160801b031681526020016000815260200160008152602001428152506040518263ffffffff1660e01b81526004016107379190600060a082019050825182526001600160801b03602084015116602083015260408301516040830152606083015160608301526080830151608083015292915050565b6060604051808303816000875af1158015610756573d6000803e3d6000fd5b505050506040513d601f19601f8201168201806040525081019061077a9190614878565b8b60008151811061078d5761078d614837565b602002602001018c6001815181106107a7576107a7614837565b60209081029190910101929092529190529050801561096e5760008060008051602061575a8339815191526001600160a01b031663ed0d8dd260405180608001604052808a6000815181106107fe576107fe614837565b602002602001015181526020016000815260200160008152602001428152506040518263ffffffff1660e01b815260040161085f91908151815260208083015190820152604080830151908201526060918201519181019190915260800190565b6060604051808303816000875af115801561087e573d6000803e3d6000fd5b505050506040513d601f19601f820116820180604052508101906108a29190614878565b92509250508c60000160030160159054906101000a900460ff1615610918576108cb81866148bc565b94506108d782856148bc565b60408051838152602081018590529195507f79d10cdd430b68b5e77606c7f4bfa75e525eeb63a8281e1ca886c88cc4f7301a910160405180910390a161096b565b61092282866148bc565b945061092e81856148bc565b60408051848152602081018490529195507f79d10cdd430b68b5e77606c7f4bfa75e525eeb63a8281e1ca886c88cc4f7301a910160405180910390a15b50505b604088810151905163bf1316c160e01b81526001600160a01b0390911660048201526000602482015230604482015260008051602061575a8339815191529063bf1316c190606401600060405180830381600087803b1580156109d057600080fd5b505af11580156109e4573d6000803e3d6000fd5b50505050606088015160405163bf1316c160e01b81526001600160a01b0390911660048201526000602482015230604482015260008051602061575a8339815191529063bf1316c190606401600060405180830381600087803b158015610a4a57600080fd5b505af1158015610a5e573d6000803e3d6000fd5b505050506000831115610a885787516040890151610a88916001600160a01b03909116908561345d565b8115610aab5787516060890151610aab916001600160a01b03909116908461345d565b610ab58a886148cf565b60048c01805472ffffffffffffffffffffffffffffffff000000191663010000006001600160801b0384169081029190911790915590975015801590610b055750610b03886020015161274f565b155b15610c1057866001600160801b031684600081518110610b2757610b27614837565b602090810291909101015260405163598b8e7160e01b815260008051602061579b8339815191529063598b8e7190610b63908890600401614137565b600060405180830381600087803b158015610b7d57600080fd5b505af1158015610b91573d6000803e3d6000fd5b50505060138c01805460ff191660011790555060208801516040516341e817ab60e01b815260008051602061579b833981519152916341e817ab91610bdd91908990899060040161484d565b600060405180830381600087803b158015610bf757600080fd5b505af1158015610c0b573d6000803e3d6000fd5b505050505b505050505050505092915050565b805460038201546000916001600160a01b03169060ff600160a81b8204169083908190610c6d908590600160c81b8104600290810b91600160e01b8104820b91600160b01b909104900b6136c6565b9150915060008073__$e39b8e0b8c056c0f44229269132abaa363$__636795021f878686896040518563ffffffff1660e01b8152600401610cb194939291906148ef565b6040805180830381865af4158015610ccd573d6000803e3d6000fd5b505050506040513d601f19601f82011682018060405250810190610cf1919061491b565b90925090506000610d0282846148bc565b116040518060400160405280601081526020016f54532d3234207a65726f2076616c756560801b81525090610d4a5760405162461bcd60e51b815260040161048091906146c1565b50610d5581836148bc565b610d6782670de0b6b3a764000061493f565b610d71919061496c565b98975050505050505050565b6000606081610d9260a08a0160808b01614980565b9050600088600360200201359050600060405180604001604052808860020160009054906101000a90046001600160a01b03166001600160a01b03166001600160a01b031681526020018860030160009054906101000a90046001600160a01b03166001600160a01b03166001600160a01b0316815250905060008760000160009054906101000a90046001600160a01b031690506060600073__$b1ba452cecccdd06eb05ace2d0a762c7e1$__63bd13c5298f8f8f8f898f6040518763ffffffff1660e01b8152600401610e6c969594939291906149a6565b600060405180830381865af4158015610e89573d6000803e3d6000fd5b505050506040513d6000823e601f3d908101601f19168201604052610eb19190810190614ab8565b919950925090508015610ee65760018a015484516020860151610ee492899285926001600160a01b0390921691886136f0565b505b6001851480610efd5750600285148015610efd5750875b15610f725760038a0154610f33908490600160c81b8104600290810b91600160e01b8104820b91600160b01b909104900b6136c6565b60038c01805465ffffffffffff60c81b1916600160e01b62ffffff9384160262ffffff60c81b191617600160c81b939092169290920217905590955085905b505050505050965096945050505050565b600080846001600160a01b0316634046ebae6040518163ffffffff1660e01b8152600401602060405180830381865afa158015610fc4573d6000803e3d6000fd5b505050506040513d601f19601f82011682018060405250810190610fe89190614b1c565b84519091506000805b8281101561113757600087828151811061100d5761100d614837565b60200260200101519050896001600160a01b0316816001600160a01b03160361105c5786828151811061104257611042614837565b60200260200101518361105591906148bc565b9250611126565b846001600160a01b031663a9dd14d689848151811061107d5761107d614837565b60200260200101518c8a868151811061109857611098614837565b60209081029190910101516040516001600160e01b031960e086901b1681526001600160a01b0393841660048201529290911660248301526044820152606401602060405180830381865afa1580156110f5573d6000803e3d6000fd5b505050506040513d601f19601f820116820180604052508101906111199190614b39565b61112390846148bc565b92505b5061113081614b52565b9050610ff1565b50925050505b949350505050565b8154604051638bb4a44360e01b815260009173__$b1ba452cecccdd06eb05ace2d0a762c7e1$__9163498162cf918691869173__$e39b8e0b8c056c0f44229269132abaa363$__91638bb4a443916111ab916001600160a01b0390911690600401614823565b602060405180830381865af41580156111c8573d6000803e3d6000fd5b505050506040513d601f19601f820116820180604052508101906111ec9190614b76565b6040516001600160e01b031960e086901b16815260048101939093526001600160a01b03909116602483015260020b604482015260640160a060405180830381865af4158015611240573d6000803e3d6000fd5b505050506040513d601f19601f820116820180604052508101906112649190614b93565b5090949350505050565b6040805160a08101825283546001600160a01b031681526003840154600160e01b8104600290810b6020840152600160c81b8204900b928201929092526011840154606080830191909152601285015460808301529160009190600160a81b900460ff168280826112f557600288015460038901546001600160a01b03918216911661130d565b600388015460028901546001600160a01b0391821691165b91509150821561138a578660018151811061132a5761132a614837565b60200260200101518760008151811061134557611345614837565b60200260200101518860008151811061136057611360614837565b602002602001018960018151811061137a5761137a614837565b6020908102919091010191909152525b60408051600280825260608201835290916020830190803683375050506060850151909650600090156114d657606085015160405163133f757160e31b815260009160008051602061575a833981519152916399fbab88916113f29160040190815260200190565b61016060405180830381865afa158015611410573d6000803e3d6000fd5b505050506040513d601f19601f820116820180604052508101906114349190614d18565b509050856040015160020b816060015160020b1415806114625750856020015160020b816080015160020b14155b156114d4576060860151604051630852cd8d60e31b8152600481019190915260008051602061575a833981519152906342966c6890602401600060405180830381600087803b1580156114b457600080fd5b505af11580156114c8573d6000803e3d6000fd5b50506000606089015250505b505b84606001516000036118c95760408051610180810182526001600160a01b0385811682528481166020808401919091528c5484516363cd2c8760e11b8152855160008051602061575a8339815191529663ea54063296959086019493169263c79a590e92600480820193918290030181865afa15801561155a573d6000803e3d6000fd5b505050506040513d601f19601f8201168201806040525081019061157e9190614de8565b62ffffff168152602001886040015160020b8152602001886020015160020b815260200173__$6668ebb5ac5ad37edc54ad8f6bc25d5212$__637127e2498a600001518b604001518c602001516040518463ffffffff1660e01b81526004016115e993929190614e03565b6040805180830381865af4158015611605573d6000803e3d6000fd5b505050506040513d601f19601f820116820180604052508101906116299190614e28565b81526020018b60008151811061164157611641614837565b602002602001015181526020018b60018151811061166157611661614837565b602002602001015181526020016000815260200160008152602001306001600160a01b03168152602001428152506040518263ffffffff1660e01b81526004016116ab9190614ec2565b6080604051808303816000875af11580156116ca573d6000803e3d6000fd5b505050506040513d601f19601f820116820180604052508101906116ee9190614fa4565b886060018b60008151811061170557611705614837565b602002602001018c60018151811061171f5761171f614837565b602090810291909101019290925291905291909152606086015160118b0155608086015190915061174f9061274f565b6118c4576040805160018082528183019092526000916020808301908036833701905050905085606001518160008151811061178d5761178d614837565b6020908102919091010152604080516001808252818301909252600091816020016020820280368337019050509050826001600160801b0316816000815181106117d9576117d9614837565b602090810291909101015260405163598b8e7160e01b815260008051602061579b8339815191529063598b8e7190611815908590600401614137565b600060405180830381600087803b15801561182f57600080fd5b505af1158015611843573d6000803e3d6000fd5b50505060138c01805460ff191660011790555060808701516040516341e817ab60e01b815260008051602061579b833981519152916341e817ab9161188f91908690869060040161484d565b600060405180830381600087803b1580156118a957600080fd5b505af11580156118bd573d6000803e3d6000fd5b5050505050505b611c16565b60008051602061575a8339815191526001600160a01b031663c238a3a36040518060e001604052808860600151815260200173__$6668ebb5ac5ad37edc54ad8f6bc25d5212$__637127e2498a600001518b604001518c602001516040518463ffffffff1660e01b815260040161194293929190614e03565b6040805180830381865af415801561195e573d6000803e3d6000fd5b505050506040513d601f19601f820116820180604052508101906119829190614e28565b81526020018b60008151811061199a5761199a614837565b602002602001015181526020018b6001815181106119ba576119ba614837565b602002602001015181526020016000815260200160008152602001428152506040518263ffffffff1660e01b81526004016119f59190614fe2565b6080604051808303816000875af1158015611a14573d6000803e3d6000fd5b505050506040513d601f19601f82011682018060405250810190611a389190615037565b5089600081518110611a4c57611a4c614837565b602002602001018a600181518110611a6657611a66614837565b6020908102919091010191909152526080860151909150611a869061274f565b611c165760408051600180825281830190925260009160208083019080368337019050509050856060015181600081518110611ac457611ac4614837565b602090810291909101015260048a0154630100000090046001600160801b0316600003611b5e5760405163598b8e7160e01b815260008051602061579b8339815191529063598b8e7190611b1c908490600401614137565b600060405180830381600087803b158015611b3657600080fd5b505af1158015611b4a573d6000803e3d6000fd5b50505060138b01805460ff19166001179055505b60408051600180825281830190925260009160208083019080368337019050509050826001600160801b031681600081518110611b9d57611b9d614837565b602090810291909101015260808701516040516341e817ab60e01b815260008051602061579b833981519152916341e817ab91611be191908690869060040161484d565b600060405180830381600087803b158015611bfb57600080fd5b505af1158015611c0f573d6000803e3d6000fd5b5050505050505b600489018054829190600390611c3d908490630100000090046001600160801b0316615076565b92506101000a8154816001600160801b0302191690836001600160801b03160217905550806001600160801b0316955050505050509250929050565b6001820154601183015460408051600380825260808201909252606093849384936001600160a01b03909216929091602082018580368337505050600288015481519196506001600160a01b0316908690600090611cd957611cd9614837565b6001600160a01b0392831660209182029290920101526003880154865191169086906001908110611d0c57611d0c614837565b60200260200101906001600160a01b031690816001600160a01b031681525050731c954e8fe737f99f68fa1ccda3e51ebdb291948c85600281518110611d5457611d54614837565b6001600160a01b03929092166020928302919091018201526040805160038082526080820190925291820160608036833701905050925060005b8551811015611de857611db9868281518110611dac57611dac614837565b60200260200101516137c1565b848281518110611dcb57611dcb614837565b602090810291909101015280611de081614b52565b915050611d8e565b50604080516003808252608082019092529060208201606080368337019050509350600081118015611e2d57506004870154630100000090046001600160801b031615155b15611fca57611e3b876134b8565b85600081518110611e4e57611e4e614837565b6020026020010186600181518110611e6857611e68614837565b6020026020010182815250828152505050611e87818860120154613266565b84600281518110611e9a57611e9a614837565b60200260200101818152505085611fca57600084600081518110611ec057611ec0614837565b60200260200101511115611f2057611f208285600081518110611ee557611ee5614837565b602002602001015187600081518110611f0057611f00614837565b60200260200101516001600160a01b031661345d9092919063ffffffff16565b600084600181518110611f3557611f35614837565b60200260200101511115611f7557611f758285600181518110611f5a57611f5a614837565b602002602001015187600181518110611f0057611f00614837565b600084600281518110611f8a57611f8a614837565b60200260200101511115611fca57611fca8285600281518110611faf57611faf614837565b602002602001015187600281518110611f0057611f00614837565b85156121425760005b8551811015612140576000868281518110611ff057611ff0614837565b60200260200101516001600160a01b03166370a08231856040518263ffffffff1660e01b81526004016120239190614823565b602060405180830381865afa158015612040573d6000803e3d6000fd5b505050506040513d601f19601f820116820180604052508101906120649190614b39565b9050801561212f5786828151811061207e5761207e614837565b60209081029190910101516040516323b872dd60e01b81526001600160a01b03868116600483015230602483015260448201849052909116906323b872dd906064016020604051808303816000875af11580156120df573d6000803e3d6000fd5b505050506040513d601f19601f820116820180604052508101906121039190615096565b508086838151811061211757612117614837565b6020026020010181815161212b91906148bc565b9052505b5061213981614b52565b9050611fd3565b505b50509250925092565b60006121568261034e565b915050801561216e5761216a826000611c79565b5050505b5050565b606061217c613fa8565b6121948161218d60208c018c614980565b8c87613837565b8954604051638bb4a44360e01b8152600091829173__$e39b8e0b8c056c0f44229269132abaa363$__91638bb4a443916121da916001600160a01b031690600401614823565b602060405180830381865af41580156121f7573d6000803e3d6000fd5b505050506040513d601f19601f8201168201806040525081019061221b9190614b76565b602084015160405163498162cf60e01b8152600481018f90526001600160a01b039091166024820152600282900b604482015290915073__$b1ba452cecccdd06eb05ace2d0a762c7e1$__9063498162cf9060640160a060405180830381865af415801561228d573d6000803e3d6000fd5b505050506040513d601f19601f820116820180604052508101906122b19190614b93565b61010086015260e0850152915081156123395773__$b1ba452cecccdd06eb05ace2d0a762c7e1$__636280ea0e8d8560e001518661010001516040518463ffffffff1660e01b8152600401612308939291906150c9565b60006040518083038186803b15801561232057600080fd5b505af4158015612334573d6000803e3d6000fd5b505050505b8615806123435750815b6040518060400160405280601881526020017712d4cb4e48139bc81c9958985b185b98d9481b995959195960421b815250906123925760405162461bcd60e51b815260040161048091906146c1565b50818061239c5750845b156125385773__$e39b8e0b8c056c0f44229269132abaa363$__63e4ee4bf78c8e8c8e8d8960c00151886040518863ffffffff1660e01b81526004016123e8979695949392919061516e565b60006040518083038186803b15801561240057600080fd5b505af4158015612414573d6000803e3d6000fd5b50505050600073__$8f1afe7577f9ab973017c74eca19b86f3c$__63ac2a37d685602001518d876060015188608001518960c001516040518663ffffffff1660e01b81526004016124699594939291906151f4565b600060405180830381865af4158015612486573d6000803e3d6000fd5b505050506040513d6000823e601f3d908101601f191682016040526124ae9190810190615228565b9550905080156124f0576124e989828f60010160009054906101000a90046001600160a01b03168760600151886080015189604001516136f0565b6101208501525b61012084015160408051838152602081018d905280820192909252517f83387a3342ff1ebc5e437dc9ae0f98274afda12a11cf547eebec05a3e0b8f8a79181900360600190a1505b50505098975050505050505050565b6040805160028082526060808301845292602083019080368337505083546040805163217ac23760e01b815290519394506000936001600160a01b03909216925063217ac2379160048083019260809291908290030181865afa1580156125b2573d6000803e3d6000fd5b505050506040513d601f19601f820116820180604052508101906125d69190615264565b5050506003840154600480860154604051630544f36560e31b815293945073__$6668ebb5ac5ad37edc54ad8f6bc25d5212$__93632a279b2893612646938793600160c81b8304600290810b94600160e01b909404900b9263010000009091046001600160801b031691016152b8565b6040805180830381865af4158015612662573d6000803e3d6000fd5b505050506040513d601f19601f82011682018060405250810190612686919061491b565b8360008151811061269957612699614837565b60200260200101846001815181106126b3576126b3614837565b6020908102919091010191909152526003830154600160a81b900460ff161561274957816001815181106126e9576126e9614837565b60200260200101518260008151811061270457612704614837565b60200260200101518360008151811061271f5761271f614837565b602002602001018460018151811061273957612739614837565b6020908102919091010191909152525b50919050565b604051632f380b3560e01b815260048101829052600090819060008051602061579b83398151915290632f380b3590602401600060405180830381865afa15801561279e573d6000803e3d6000fd5b505050506040513d6000823e601f3d908101601f191682016040526127c691908101906152ff565b505050505063ffffffff1692505050428110915050919050565b606060008360000160009054906101000a90046001600160a01b03166001600160a01b031663217ac2376040518163ffffffff1660e01b8152600401608060405180830381865afa158015612839573d6000803e3d6000fd5b505050506040513d601f19601f8201168201806040525081019061285d9190615264565b509192506002915061286c9050565b604051908082528060200260200182016040528015612895578160200160208202803683370190505b506003850154604051630544f36560e31b815291935073__$6668ebb5ac5ad37edc54ad8f6bc25d5212$__91632a279b28916128ef918591600160c81b8104600290810b92600160e01b909204900b9089906004016152b8565b6040805180830381865af415801561290b573d6000803e3d6000fd5b505050506040513d601f19601f8201168201806040525081019061292f919061491b565b8360008151811061294257612942614837565b602002602001018460018151811061295c5761295c614837565b6020908102919091010191909152526003840154600160a81b900460ff16156129f2578160018151811061299257612992614837565b6020026020010151826000815181106129ad576129ad614837565b6020026020010151836000815181106129c8576129c8614837565b60200260200101846001815181106129e2576129e2614837565b6020908102919091010191909152525b5092915050565b6002810154604080516395d89b4160e01b815290516060926001600160a01b0316916395d89b419160048083019260009291908290030181865afa158015612a45573d6000803e3d6000fd5b505050506040513d6000823e601f3d908101601f19168201604052612a6d9190810190615444565b8260030160009054906101000a90046001600160a01b03166001600160a01b03166395d89b416040518163ffffffff1660e01b8152600401600060405180830381865afa158015612ac2573d6000803e3d6000fd5b505050506040513d6000823e601f3d908101601f19168201604052612aea9190810190615444565b604051602001612afb92919061548c565b6040516020818303038152906040529050919050565b6040516319c75b9360e31b815260609073__$e39b8e0b8c056c0f44229269132abaa363$__9063ce3adc9890612b519088908890889088906004016148ef565b600060405180830381865af4158015612b6e573d6000803e3d6000fd5b505050506040513d6000823e601f3d908101601f19168201604052612b969190810190615444565b95945050505050565b600087600160200201516001600160a01b031614156040518060400160405280601181526020017054532d31207a65726f206164647265737360781b81525090612bfc5760405162461bcd60e51b815260040161048091906146c1565b50600087600160200201516001600160a01b0316630dfe16816040518163ffffffff1660e01b8152600401602060405180830381865afa158015612c44573d6000803e3d6000fd5b505050506040513d601f19601f82011682018060405250810190612c689190614b1c565b9050600088600160200201516001600160a01b031663d21220a76040518163ffffffff1660e01b8152600401602060405180830381865afa158015612cb1573d6000803e3d6000fd5b505050506040513d601f19601f82011682018060405250810190612cd59190614b1c565b9050612cdf614013565b60208a015160405163045b969b60e51b815260009173__$6668ebb5ac5ad37edc54ad8f6bc25d5212$__91638b72d36091612d1c91600401614823565b602060405180830381865af4158015612d39573d6000803e3d6000fd5b505050506040513d601f19601f82011682018060405250810190612d5d9190614b76565b90508960020b600014612e2d5780612d75818c6154da565b612d7f9190615514565b60020b8a60020b14604051806040016040528060188152602001774b532d3320496e636f7272656374207469636b52616e676560401b81525090612dd65760405162461bcd60e51b815260040161048091906146c1565b5080612de2818b6154da565b612dec9190615514565b60020b8960020b1460405180606001604052806021815260200161577a6021913990612e2b5760405162461bcd60e51b815260040161048091906146c1565b505b600281900b825260208b01516040516322141b3b60e11b815273__$e39b8e0b8c056c0f44229269132abaa363$__91634428367691612e7391908e908690600401614e03565b6040805180830381865af4158015612e8f573d6000803e3d6000fd5b505050506040513d601f19601f82011682018060405250810190612eb39190615534565b600290810b60408086019190915291810b602080860191909152908b900b60608086019190915282516080810184528e8301516001600160a01b0390811682528c811693820193909352878316818501529186169082015290516341fcc75560e01b815273__$b1ba452cecccdd06eb05ace2d0a762c7e1$__92506341fcc75591612f4b918f919086908c908c908c90600401615563565b60006040518083038186803b158015612f6357600080fd5b505af4158015612f77573d6000803e3d6000fd5b5050505060008a600060028110612f9057612f90614837565b60200201516001600160a01b0316634046ebae6040518163ffffffff1660e01b8152600401602060405180830381865afa158015612fd2573d6000803e3d6000fd5b505050506040513d601f19601f82011682018060405250810190612ff69190614b1c565b60405163095ea7b360e01b81529091506001600160a01b0385169063095ea7b390613029908490600019906004016155ee565b6020604051808303816000875af1158015613048573d6000803e3d6000fd5b505050506040513d601f19601f8201168201806040525081019061306c9190615096565b5060405163095ea7b360e01b81526001600160a01b0384169063095ea7b39061309d908490600019906004016155ee565b6020604051808303816000875af11580156130bc573d6000803e3d6000fd5b505050506040513d601f19601f820116820180604052508101906130e09190615096565b5060405163095ea7b360e01b81526001600160a01b0385169063095ea7b39061311f9060008051602061575a83398151915290600019906004016155ee565b6020604051808303816000875af115801561313e573d6000803e3d6000fd5b505050506040513d601f19601f820116820180604052508101906131629190615096565b5060405163095ea7b360e01b81526001600160a01b0384169063095ea7b3906131a19060008051602061575a83398151915290600019906004016155ee565b6020604051808303816000875af11580156131c0573d6000803e3d6000fd5b505050506040513d601f19601f820116820180604052508101906131e49190615096565b5060405163a22cb46560e01b815260008051602061579b83398151915260048201526001602482015260008051602061575a8339815191529063a22cb46590604401600060405180830381600087803b15801561324057600080fd5b505af1158015613254573d6000803e3d6000fd5b50505050505050505050505050505050565b60408051600180825281830190925260009182919060208083019080368337019050509050838160008151811061329f5761329f614837565b602090810291909101015260408051600180825281830190925260009181602001602082028036833701905050905083816000815181106132e2576132e2614837565b60209081029190910181019190915260408051918201815282825280516001808252818301909252600091816020015b60608152602001906001900390816133125790505090508160405160200161333a9190615607565b6040516020818303038152906040528160008151811061335c5761335c614837565b60200260200101819052506000613386731c954e8fe737f99f68fa1ccda3e51ebdb291948c6137c1565b604051630c07c01b60e11b815290915060008051602061579b8339815191529063180f8036906133bc908890869060040161564c565b600060405180830381600087803b1580156133d657600080fd5b505af11580156133ea573d6000803e3d6000fd5b505050508061340c731c954e8fe737f99f68fa1ccda3e51ebdb291948c6137c1565b61341691906156be565b95508515613452576040518681527fc058de407254813731731bca5bcc8949f893c829ef3ae53b8aad1df003366a7f9060200160405180910390a15b505050505092915050565b6134b38363a9059cbb60e01b848460405160240161347c9291906155ee565b60408051601f198184030181529190526020810180516001600160e01b03166001600160e01b031990931692909217909152613985565b505050565b60408051600180825281830190925260009182918291602080830190803683370190505090508360110154816000815181106134f6576134f6614837565b6020908102919091010152600284015460038501546001600160a01b0391821691166000613523836137c1565b90506000613530836137c1565b9050600060008051602061575a8339815191526001600160a01b03166399fbab888760008151811061356457613564614837565b60200260200101516040518263ffffffff1660e01b815260040161358a91815260200190565b61016060405180830381865afa1580156135a8573d6000803e3d6000fd5b505050506040513d601f19601f820116820180604052508101906135cc9190614d18565b5060c0810151909150156136bb57885460405163b825627560e01b815260008051602061579b8339815191529163b825627591613622918a9160009182916001600160a01b0390911690829042906004016156d1565b600060405180830381600087803b15801561363c57600080fd5b505af1158015613650573d6000803e3d6000fd5b505050508261365e866137c1565b61366891906156be565b975081613674856137c1565b61367e91906156be565b604080518a8152602081018390529198507f79d10cdd430b68b5e77606c7f4bfa75e525eeb63a8281e1ca886c88cc4f7301a910160405180910390a15b505050505050915091565b60008060006136d487613a57565b90506136e281878787613abb565b925092505094509492505050565b600085156137b7576040516367acb54b60e01b8152600481018790526001600160a01b038087166024830152808616604483015280851660648301528316608482015273__$e39b8e0b8c056c0f44229269132abaa363$__906367acb54b9060a401602060405180830381865af415801561376f573d6000803e3d6000fd5b505050506040513d601f19601f820116820180604052508101906137939190614b39565b905060006137a182886156be565b905080156137b5576137b588600083613b85565b505b9695505050505050565b6040516370a0823160e01b81526000906001600160a01b038316906370a08231906137f0903090600401614823565b602060405180830381865afa15801561380d573d6000803e3d6000fd5b505050506040513d601f19601f820116820180604052508101906138319190614b39565b92915050565b81546001600160a01b031660408086019190915280518082019091526005830160026000835b828210156138e957604080518082019091526005830285018054829060ff16600381111561388d5761388d6150b3565b600381111561389e5761389e6150b3565b815260408051608081019182905260209092019190600184019060049082845b8154815260200190600101908083116138be575050505050815250508152602001906001019061385d565b505050908552506001600160a01b03838116602080870191909152600284015482166060870181905260038501549283166080880152600160a01b90920460ff16151560a08701526000918252829052604090205461394790613dfe565b60c08501515260808401516001600160a01b031660009081526020829052604090205461397390613dfe565b60c08501516001602002015250505050565b60006139da826040518060400160405280602081526020017f5361666545524332303a206c6f772d6c6576656c2063616c6c206661696c6564815250856001600160a01b0316613e169092919063ffffffff16565b8051909150156134b357808060200190518101906139f89190615096565b6134b35760405162461bcd60e51b815260206004820152602a60248201527f5361666545524332303a204552433230206f7065726174696f6e20646964206e6044820152691bdd081cdd58d8d9595960b21b6064820152608401610480565b6000816001600160a01b031663217ac2376040518163ffffffff1660e01b8152600401608060405180830381865afa158015613a97573d6000803e3d6000fd5b505050506040513d601f19601f820116820180604052508101906112649190615264565b60008080613ac98686615718565b905060008460020b8260020b14613aea57613ae56002836154da565b613aed565b60005b60405163cd8e20e760e01b815260028a810b600483015282810b602483015287900b604482015290915073__$b1ba452cecccdd06eb05ace2d0a762c7e1$__9063cd8e20e7906064016040805180830381865af4158015613b52573d6000803e3d6000fd5b505050506040513d601f19601f82011682018060405250810190613b769190615534565b93509350505094509492505050565b6000836001600160a01b03166338d52e0f6040518163ffffffff1660e01b8152600401602060405180830381865afa158015613bc5573d6000803e3d6000fd5b505050506040513d601f19601f82011682018060405250810190613be99190614b1c565b90506000846001600160a01b031663fbfa77cf6040518163ffffffff1660e01b8152600401602060405180830381865afa158015613c2b573d6000803e3d6000fd5b505050506040513d601f19601f82011682018060405250810190613c4f9190614b1c565b90506000826001600160a01b03166370a08231836040518263ffffffff1660e01b8152600401613c7f9190614823565b602060405180830381865afa158015613c9c573d6000803e3d6000fd5b505050506040513d601f19601f82011682018060405250810190613cc09190614b39565b604051630855081f60e01b815260048101879052602481018690529091506001600160a01b03871690630855081f90604401600060405180830381600087803b158015613d0c57600080fd5b505af1158015613d20573d6000803e3d6000fd5b50506040516370a0823160e01b8152600092506001600160a01b03861691506370a0823190613d53908690600401614823565b602060405180830381865afa158015613d70573d6000803e3d6000fd5b505050506040513d601f19601f82011682018060405250810190613d949190614b39565b9050818111613da4576000613dae565b613dae82826156be565b905084811015613df5577fdf392b47ba4bbae72ff7c68976df0acdc2813e181199d2b2f65187eeb0ee6105613de382876156be565b60405190815260200160405180910390a15b50505050505050565b60008115613e0c5781613831565b620186a092915050565b6060613e258484600085613e2f565b90505b9392505050565b606082471015613e905760405162461bcd60e51b815260206004820152602660248201527f416464726573733a20696e73756666696369656e742062616c616e636520666f6044820152651c8818d85b1b60d21b6064820152608401610480565b600080866001600160a01b03168587604051613eac919061573d565b60006040518083038185875af1925050503d8060008114613ee9576040519150601f19603f3d011682016040523d82523d6000602084013e613eee565b606091505b5091509150613eff87838387613f0a565b979650505050505050565b60608315613f79578251600003613f72576001600160a01b0385163b613f725760405162461bcd60e51b815260206004820152601d60248201527f416464726573733a2063616c6c20746f206e6f6e2d636f6e74726163740000006044820152606401610480565b508161113d565b61113d8383815115613f8e5781518083602001fd5b8060405162461bcd60e51b815260040161048091906146c1565b604051806101400160405280613fbc614031565b815260006020820181905260408201819052606082018190526080820181905260a082015260c001613fec61405e565b8152602001613ff961405e565b815260200161400661405e565b8152602001600081525090565b60405180608001604052806004906020820280368337509192915050565b60405180604001604052806002905b61404861407c565b8152602001906001900390816140405790505090565b60405180604001604052806002906020820280368337509192915050565b604080518082019091528060008152602001614096614013565b905290565b6000602082840312156140ad57600080fd5b5035919050565b6001600160801b03811681146140c957600080fd5b50565b600080604083850312156140df57600080fd5b8235915060208301356140f1816140b4565b809150509250929050565b600081518084526020808501945080840160005b8381101561412c57815187529582019590820190600101614110565b509495945050505050565b602081526000613e2860208301846140fc565b806080810183101561383157600080fd5b634e487b7160e01b600052604160045260246000fd5b60405161010081016001600160401b03811182821017156141945761419461415b565b60405290565b604080519081016001600160401b03811182821017156141945761419461415b565b604051601f8201601f191681016001600160401b03811182821017156141e4576141e461415b565b604052919050565b60006001600160401b038211156142055761420561415b565b50601f01601f191660200190565b600082601f83011261422457600080fd5b8135614237614232826141ec565b6141bc565b81815284602083860101111561424c57600080fd5b816020850160208301376000918101602001919091529392505050565b6000806000806000806101a0878903121561428357600080fd5b60a087018881111561429457600080fd5b8796506142a1898261414a565b9550506101208701356001600160401b03808211156142bf57600080fd5b6142cb8a838b01614213565b95506101408901359150808211156142e257600080fd5b506142ef89828a01614213565b935050610160870135915061018087013590509295509295509295565b8215158152604060208201526000613e2560408301846140fc565b6001600160a01b03811681146140c957600080fd5b803561434781614327565b919050565b60006001600160401b038211156143655761436561415b565b5060051b60200190565b600082601f83011261438057600080fd5b813560206143906142328361434c565b82815260059290921b840181019181810190868411156143af57600080fd5b8286015b848110156137b557803583529183019183016143b3565b600080600080608085870312156143e057600080fd5b84356143eb81614327565b93506020858101356143fc81614327565b935060408601356001600160401b038082111561441857600080fd5b818801915088601f83011261442c57600080fd5b813561443a6142328261434c565b81815260059190911b8301840190848101908b83111561445957600080fd5b938501935b8285101561448057843561447181614327565b8252938501939085019061445e565b96505050606088013592508083111561449857600080fd5b50506144a68782880161436f565b91505092959194509250565b600080604083850312156144c557600080fd5b8235915060208301356140f181614327565b600080604083850312156144ea57600080fd5b8235915060208301356001600160401b0381111561450757600080fd5b6145138582860161436f565b9150509250929050565b60408152600061453060408301856140fc565b90508260208301529392505050565b80151581146140c957600080fd5b80356143478161453f565b6000806040838503121561456b57600080fd5b8235915060208301356140f18161453f565b606080825284519082018190526000906020906080840190828801845b828110156145bf5781516001600160a01b03168452928401929084019060010161459a565b505050838103828501526145d381876140fc565b91505082810360408401526137b781856140fc565b600080600080600080600080610120898b03121561460557600080fd5b88359750606089018a81111561461a57600080fd5b60208a0197503595506080890135945060a089013561463881614327565b935060c08901356146488161453f565b925060e089013591506101008901356146608161453f565b809150509295985092959890939650565b60005b8381101561468c578181015183820152602001614674565b50506000910152565b600081518084526146ad816020860160208601614671565b601f01601f19169290920160200192915050565b602081526000613e286020830184614695565b8060020b81146140c957600080fd5b8035614347816146d4565b6000806000806080858703121561470457600080fd5b843561470f81614327565b9350602085013561471f816146d4565b9250604085013561472f816146d4565b9150606085013561473f8161453f565b939692955090935050565b6000806000806000806000806101e0898b03121561476757600080fd5b8835975060208a603f8b011261477c57600080fd5b61478461419a565b8060608c018d81111561479657600080fd5b838d015b818110156147ba5780356147ad81614327565b845292840192840161479a565b50819a506147c7816146e3565b9950505050506147d960808a016146e3565b94506147e760a08a0161433c565b93506147f560c08a0161454d565b92506148048a60e08b0161414a565b91506148148a6101608b0161414a565b90509295985092959890939650565b6001600160a01b0391909116815260200190565b634e487b7160e01b600052603260045260246000fd5b83815260606020820152600061486660608301856140fc565b82810360408401526137b781856140fc565b60008060006060848603121561488d57600080fd5b8351925060208401519150604084015190509250925092565b634e487b7160e01b600052601160045260246000fd5b80820180821115613831576138316148a6565b6001600160801b038281168282160390808211156129f2576129f26148a6565b6001600160a01b03949094168452600292830b6020850152910b60408301521515606082015260800190565b6000806040838503121561492e57600080fd5b505080516020909101519092909150565b8082028115828204841417613831576138316148a6565b634e487b7160e01b600052601260045260246000fd5b60008261497b5761497b614956565b500490565b60006020828403121561499257600080fd5b8135613e2881614327565b60808183375050565b60006101c08289835b60058110156149e15781356149c381614327565b6001600160a01b0316835260209283019291909101906001016149af565b50505060808860a0850137806101208401526149ff81840188614695565b9050828103610140840152614a148187614695565b91505061016082018460005b6002811015614a485781516001600160a01b0316835260209283019290910190600101614a20565b505050826101a0830152979650505050505050565b600082601f830112614a6e57600080fd5b81516020614a7e6142328361434c565b82815260059290921b84018101918181019086841115614a9d57600080fd5b8286015b848110156137b55780518352918301918301614aa1565b600080600060608486031215614acd57600080fd5b8351614ad88161453f565b60208501519093506001600160401b03811115614af457600080fd5b614b0086828701614a5d565b925050604084015190509250925092565b805161434781614327565b600060208284031215614b2e57600080fd5b8151613e2881614327565b600060208284031215614b4b57600080fd5b5051919050565b600060018201614b6457614b646148a6565b5060010190565b8051614347816146d4565b600060208284031215614b8857600080fd5b8151613e28816146d4565b600080600060a08486031215614ba857600080fd5b8351614bb38161453f565b92506020603f85018613614bc657600080fd5b614bce61419a565b806060870188811115614be057600080fd5b8388015b81811015614c04578051614bf78161453f565b8452928401928401614be4565b5081955088607f890112614c1757600080fd5b614c1f61419a565b925082915060a0880189811115614c3557600080fd5b80821015614c5c57815160048110614c4d5760008081fd5b84529284019290840190614c35565b50508093505050509250925092565b805169ffffffffffffffffffff8116811461434757600080fd5b8051614347816140b4565b805162ffffff8116811461434757600080fd5b600060608284031215614cb557600080fd5b604051606081018181106001600160401b0382111715614cd757614cd761415b565b80604052508091508251614cea81614327565b8152614cf860208401614c90565b60208201526040830151614d0b81614327565b6040919091015292915050565b600080828403610160811215614d2d57600080fd5b61010080821215614d3d57600080fd5b614d45614171565b915084516bffffffffffffffffffffffff81168114614d6357600080fd5b8252614d7160208601614b11565b6020830152614d8260408601614c6b565b6040830152614d9360608601614b6b565b6060830152614da460808601614b6b565b6080830152614db560a08601614c85565b60a083015260c085015160c083015260e085015160e0830152819350614ddd86828701614ca3565b925050509250929050565b600060208284031215614dfa57600080fd5b613e2882614c90565b6001600160a01b03939093168352600291820b6020840152900b604082015260600190565b600060408284031215614e3a57600080fd5b82601f830112614e4957600080fd5b614e5161419a565b806040840185811115614e6357600080fd5b845b81811015614e86578051614e78816146d4565b845260209384019301614e65565b509095945050505050565b8060005b6002808210614ea45750614ebc565b8251900b845260209384019390910190600101614e95565b50505050565b81516001600160a01b031681526101a081016020830151614eee60208401826001600160a01b03169052565b506040830151614f05604084018262ffffff169052565b506060830151614f1a606084018260020b9052565b506080830151614f2f608084018260020b9052565b5060a0830151614f4260a0840182614e91565b5060c083015160e083810191909152830151610100808401919091528301516101208084019190915283015161014080840191909152830151610160614f92818501836001600160a01b03169052565b80850151610180850152505092915050565b60008060008060808587031215614fba57600080fd5b845193506020850151614fcc816140b4565b6040860151606090960151949790965092505050565b81518152602080830151610100830191614ffe90840182614e91565b506040830151606083015260608301516080830152608083015160a083015260a083015160c083015260c083015160e083015292915050565b6000806000806080858703121561504d57600080fd5b8451615058816140b4565b60208601516040870151606090970151919890975090945092505050565b6001600160801b038181168382160190808211156129f2576129f26148a6565b6000602082840312156150a857600080fd5b8151613e288161453f565b634e487b7160e01b600052602160045260246000fd5b83815260a0810160208083018560005b60028110156150f85781511515835291830191908301906001016150d9565b505050606083018460005b600281101561513f578151600480821061512c57634e487b7160e01b6000526021815260246000fd5b5083529183019190830190600101615103565b50505050949350505050565b8060005b6002811015614ebc57815184526020938401939091019060010161514f565b6101208101818960005b60028110156151aa57813561518c81614327565b6001600160a01b031683526020928301929190910190600101615178565b5050506040820188905260608201879052608082018690526001600160a01b03851660a08301526151de60c083018561514b565b8260020b61010083015298975050505050505050565b6001600160a01b0386811682526020820186905284811660408301528316606082015260c081016137b7608083018461514b565b6000806040838503121561523b57600080fd5b8251915060208301516001600160401b0381111561525857600080fd5b61451385828601614a5d565b6000806000806080858703121561527a57600080fd5b845161528581614327565b6020860151909450615296816146d4565b60408601519093506152a7816146d4565b606086015190925061473f8161453f565b6001600160a01b03949094168452600292830b6020850152910b60408301526001600160801b0316606082015260800190565b805163ffffffff8116811461434757600080fd5b600080600080600080600080610100898b03121561531c57600080fd5b885161532781614327565b975060206153368a82016152eb565b975061534460408b016152eb565b965060608a0151955060808a0151945060a08a0151935060c08a01516001600160401b038082111561537557600080fd5b818c0191508c601f83011261538957600080fd5b81516153976142328261434c565b81815260059190911b8301840190848101908f8311156153b657600080fd5b938501935b828510156153dd5784516153ce81614327565b825293850193908501906153bb565b60e08f015190975094505050808311156153f657600080fd5b50506154048b828c01614a5d565b9150509295985092959890939650565b6000615422614232846141ec565b905082815283838301111561543657600080fd5b613e28836020830184614671565b60006020828403121561545657600080fd5b81516001600160401b0381111561546c57600080fd5b8201601f8101841361547d57600080fd5b61113d84825160208401615414565b65025bcb132b9160d51b8152600083516154ad816006850160208801614671565b602f60f81b60069184019182015283516154ce816007840160208801614671565b01600701949350505050565b60008160020b8360020b806154f1576154f1614956565b627fffff1982146000198214161561550b5761550b6148a6565b90059392505050565b60008260020b8260020b028060020b91508082146129f2576129f26148a6565b6000806040838503121561554757600080fd5b8251615552816146d4565b60208401519092506140f1816146d4565b868152610240810160208083018860005b600481101561559a5781516001600160a01b031683529183019190830190600101615574565b50505060a083018760005b60048110156155c557815160020b835291830191908301906001016155a5565b505050508415156101208301526155e061014083018561499d565b613eff6101c083018461499d565b6001600160a01b03929092168252602082015260400190565b6020808252825182820182905280516040840181905260009291820190839060608601905b808310156137b5578351825292840192600192909201919084019061562c565b60408152600061565f60408301856140fc565b6020838203818501528185518084528284019150828160051b85010183880160005b838110156156af57601f1987840301855261569d838351614695565b94860194925090850190600101615681565b50909998505050505050505050565b81810381811115613831576138316148a6565b60c0815260006156e460c08301896140fc565b60208301979097525060408101949094526001600160a01b039290921660608401521515608083015260a090910152919050565b600282810b9082900b03627fffff198112627fffff82131715613831576138316148a6565b6000825161574f818460208701614671565b919091019291505056fe000000000000000000000000e222fbe074a436145b255442d919e4e3a6c6a4804b532d3420496e636f727265637420726562616c616e63655469636b52616e67650000000000000000000000007d5ba536ab244aaa1ea42ab88428847f25e3e676a264697066735822122007f59c1c4f33abd45512057e8e7a7f08a809e1590af0ef214c54849753ce873464736f6c63430008110033",
  "libraries": {
    "KyberLib": "0x2434c77cd2C07d883219551dd6595867157901a1",
    "KyberDebtLib": "0x9BEC9494e8050973BbeA08638e79b14978A9A69A",
    "ConverterStrategyBaseLib2": "0xE11BFbFAf8e53ADC8e67552e8A1607a1b9CB7359",
    "PairBasedStrategyLogicLib": "0xD9fFe2185e50a9E7fC68934C763dbcA25b8634f0"
  },
  "devdoc": {
    "kind": "dev",
    "methods": {
      "initStrategyState(KyberConverterStrategyLogicLib.State storage,address[2],int24,int24,address,bool,uint256[4],uint256[4])": {
        "params": {
          "controllerPool": "[controller, pool]",
          "fuseThresholdsA": "Fuse thresholds for token A (stable pool only)",
          "fuseThresholdsB": "Fuse thresholds for token B (stable pool only)"
        }
      },
      "needStrategyRebalance(PairBasedStrategyLogicLib.PairState storage,ITetuConverter)": {
        "returns": {
          "needRebalance": "A boolean indicating if {rebalanceNoSwaps} should be called"
        }
      },
      "rebalanceNoSwaps(PairBasedStrategyLogicLib.PairState storage,address[2],uint256,uint256,address,bool,mapping(address => uint256) storage,bool)": {
        "params": {
          "checkNeedRebalance_": "True if the function should ensure that the rebalance is required",
          "converterLiquidator": "[TetuConverter, TetuLiquidator]",
          "totalAssets_": "Current value of totalAssets()"
        },
        "returns": {
          "tokenAmounts": "Token amounts for deposit. If length == 0 - rebalance wasn't made and no deposit is required."
        }
      },
      "withdrawByAggStep(address[5],uint256[4],bytes,bytes,PairBasedStrategyLogicLib.PairState storage,mapping(address => uint256) storage)": {
        "params": {
          "addr_": "[tokenToSwap, aggregator, controller, converter, splitter]",
          "values_": "[amountToSwap_, profitToCover, oldTotalAssets, entryToPool]"
        },
        "returns": {
          "completed": "All debts were closed, leftovers were swapped to proper proportions",
          "tokenAmountsOut": "Amounts to be deposited to pool. This array is empty if no deposit allowed/required."
        }
      }
    },
    "stateVariables": {
      "DEFAULT_FUSE_THRESHOLD": {
        "details": "0.5% by default"
      }
    },
    "version": 1
  },
  "userdoc": {
    "kind": "user",
    "methods": {
      "getPropNotUnderlying18(PairBasedStrategyLogicLib.PairState storage)": {
        "notice": "Get proportion of not-underlying in the pool, [0...1e18]         prop.underlying : prop.not.underlying = 1e18 - PropNotUnderlying18 : propNotUnderlying18"
      },
      "needStrategyRebalance(PairBasedStrategyLogicLib.PairState storage,ITetuConverter)": {
        "notice": "Determine if the strategy needs to be rebalanced."
      },
      "rebalanceNoSwaps(PairBasedStrategyLogicLib.PairState storage,address[2],uint256,uint256,address,bool,mapping(address => uint256) storage,bool)": {
        "notice": "Make rebalance without swaps (using borrowing only)."
      }
    },
    "version": 1
  },
  "storageLayout": {
    "storage": [],
    "types": null
  }
}