{
  "address": "0x0833e0692011bFdFF6DcB1409e44ABd4cE10C002",
  "abi": [
    {
      "inputs": [
        {
          "internalType": "contract IPool",
          "name": "pool",
          "type": "IPool"
        },
        {
          "internalType": "int24",
          "name": "tickRange",
          "type": "int24"
        },
        {
          "internalType": "int24",
          "name": "tickSpacing",
          "type": "int24"
        }
      ],
      "name": "calcTickRange",
      "outputs": [
        {
          "internalType": "int24",
          "name": "lowerTick",
          "type": "int24"
        },
        {
          "internalType": "int24",
          "name": "upperTick",
          "type": "int24"
        }
      ],
      "stateMutability": "view",
      "type": "function"
    },
    {
      "inputs": [
        {
          "internalType": "contract IPool",
          "name": "pool",
          "type": "IPool"
        }
      ],
      "name": "getCurrentTick",
      "outputs": [
        {
          "internalType": "int24",
          "name": "tick",
          "type": "int24"
        }
      ],
      "stateMutability": "view",
      "type": "function"
    },
    {
      "inputs": [
        {
          "internalType": "contract IPool",
          "name": "pool",
          "type": "IPool"
        },
        {
          "internalType": "int24",
          "name": "lowerTick",
          "type": "int24"
        },
        {
          "internalType": "int24",
          "name": "upperTick",
          "type": "int24"
        },
        {
          "internalType": "bool",
          "name": "depositorSwapTokens",
          "type": "bool"
        }
      ],
      "name": "getEntryData",
      "outputs": [
        {
          "internalType": "bytes",
          "name": "entryData",
          "type": "bytes"
        }
      ],
      "stateMutability": "view",
      "type": "function"
    }
  ],
  "transactionHash": "0xc7d6bc85fcf4bffd0256b80a7dd4c772ca3d5fc010d6aedf9bfbba1e6a3bf644",
  "args": [],
  "numDeployments": 10,
  "solcInputHash": "beebd18f82b76c6876687623c23a6793",
  "bytecode": "0x610e8661003a600b82828239805160001a60731461002d57634e487b7160e01b600052600060045260246000fd5b30600052607381538281f3fe73000000000000000000000000000000000000000030146080604052600436106100565760003560e01c8063442836761461005b5780638bb4a4431461008d578063ce3adc98146100b3578063e4ee4bf7146100d3575b600080fd5b61006e610069366004610985565b6100f5565b60408051600293840b81529190920b6020820152015b60405180910390f35b6100a061009b3660046109d0565b6101f5565b60405160029190910b8152602001610084565b6100c66100c1366004610a02565b610263565b6040516100849190610aa4565b8180156100df57600080fd5b506100f36100ee366004610ace565b6102af565b005b6000806000856001600160a01b031663217ac2376040518163ffffffff1660e01b8152600401608060405180830381865afa158015610138573d6000803e3d6000fd5b505050506040513d601f19601f8201168201806040525081019061015c9190610b49565b505060405163cd8e20e760e01b8152600282810b600483015288810b602483015287900b604482015290925073F9a2e80F33DCd31D67afa675b6A31af09cd9430d915063cd8e20e7906064016040805180830381865af41580156101c4573d6000803e3d6000fd5b505050506040513d601f19601f820116820180604052508101906101e89190610b9d565b9250925050935093915050565b6000816001600160a01b031663217ac2376040518163ffffffff1660e01b8152600401608060405180830381865afa158015610235573d6000803e3d6000fd5b505050506040513d601f19601f820116820180604052508101906102599190610b49565b5090949350505050565b60606000806102748787878761039c565b604080516001602082015290810183905260608101829052919350915060800160405160208183030381529060405292505050949350505050565b600386015460009081906102e5908490600160c81b8104600290810b91600160e01b8104820b91600160b01b909104900b610690565b895460038b0154929450909250600091829161031a916001600160a01b039091169086908690600160a81b900460ff1661039c565b90925090506103538b8b8b8b8b8b610332888a610bed565b610344670de0b6b3a76400008b610c00565b61034e9190610c2d565b61075a565b5050600397909701805465ffffffffffff60c81b1916600160e01b62ffffff998a160262ffffff60c81b191617600160c81b929098169190910296909617909555505050505050565b6000806000866001600160a01b031663d21220a76040518163ffffffff1660e01b8152600401602060405180830381865afa1580156103df573d6000803e3d6000fd5b505050506040513d601f19601f820116820180604052508101906104039190610c41565b604051635620c32d60e11b81526001600160a01b03808a1660048301528216602482015290915060009073421AbA1614Fc2D6C02610DBa96Ff93e8243bb0019063ac41865a90604401602060405180830381865af4158015610469573d6000803e3d6000fd5b505050506040513d601f19601f8201168201806040525081019061048d9190610c5e565b90506000826001600160a01b031663313ce5676040518163ffffffff1660e01b8152600401602060405180830381865afa1580156104cf573d6000803e3d6000fd5b505050506040513d601f19601f820116820180604052508101906104f39190610c77565b60ff16905081600061050683600a610d7e565b60408051808201909152601081526f54532d3234207a65726f2076616c756560801b6020820152909150816105575760405162461bcd60e51b815260040161054e9190610aa4565b60405180910390fd5b506040516305f08b0f60e21b81526001600160a01b038c16600482015260028b810b60248301528a900b60448201526064810183905260848101829052600090819073421AbA1614Fc2D6C02610DBa96Ff93e8243bb001906317c22c3c9060a401606060405180830381865af41580156105d5573d6000803e3d6000fd5b505050506040513d601f19601f820116820180604052508101906105f99190610d8a565b5091509150896106425761061582670de0b6b3a7640000610c00565b838761062984670de0b6b3a7640000610c00565b6106339190610c00565b61063d9190610c2d565b61067c565b828661065683670de0b6b3a7640000610c00565b6106609190610c00565b61066a9190610c2d565b61067c83670de0b6b3a7640000610c00565b985098505050505050505094509492505050565b6000808061069e8686610dcd565b905060008460020b8260020b146106bf576106ba600283610df2565b6106c2565b60005b60405163cd8e20e760e01b815260028a810b600483015282810b602483015287900b604482015290915073F9a2e80F33DCd31D67afa675b6A31af09cd9430d9063cd8e20e7906064016040805180830381865af4158015610727573d6000803e3d6000fd5b505050506040513d601f19601f8201168201806040525081019061074b9190610b9d565b93509350505094509492505050565b600286015460038701546001600160a01b03918216911673aCd21eA06C28740DF896dd4b2E84817Cd6BA8Fe06343f8b62c61079860208c018c6109d0565b6107a860408d0160208e016109d0565b60405160e084901b6001600160e01b03191681526001600160a01b03928316600482015290821660248201528186166044820152908416606482015260848101869052863560a4820152602087013560c482015260e481018a90526101040160006040518083038186803b15801561081f57600080fd5b505af4158015610833573d6000803e3d6000fd5b5050505086600014610953576040516370a0823160e01b815230600482015273d046d0428bDD6D5cCf67fE2cbC8d5039c24A8f6a9063890ffb849084908a9089908b906001600160a01b038516906370a0823190602401602060405180830381865afa1580156108a7573d6000803e3d6000fd5b505050506040513d601f19601f820116820180604052508101906108cb9190610c5e565b6040516001600160e01b031960e088901b1681526001600160a01b03958616600482015260248101949094529390911660448301526064820152608481019190915260a4016040805180830381865af415801561092c573d6000803e3d6000fd5b505050506040513d601f19601f820116820180604052508101906109509190610e2c565b50505b505050505050505050565b6001600160a01b038116811461097357600080fd5b50565b8060020b811461097357600080fd5b60008060006060848603121561099a57600080fd5b83356109a58161095e565b925060208401356109b581610976565b915060408401356109c581610976565b809150509250925092565b6000602082840312156109e257600080fd5b81356109ed8161095e565b9392505050565b801515811461097357600080fd5b60008060008060808587031215610a1857600080fd5b8435610a238161095e565b93506020850135610a3381610976565b92506040850135610a4381610976565b91506060850135610a53816109f4565b939692955090935050565b6000815180845260005b81811015610a8457602081850181015186830182015201610a68565b506000602082860101526020601f19601f83011685010191505092915050565b6020815260006109ed6020830184610a5e565b8060408101831015610ac857600080fd5b92915050565b6000806000806000806000610120888a031215610aea57600080fd5b610af48989610ab7565b965060408801359550606088013594506080880135935060a0880135610b198161095e565b9250610b288960c08a01610ab7565b9150610100880135610b3981610976565b8091505092959891949750929550565b60008060008060808587031215610b5f57600080fd5b8451610b6a8161095e565b6020860151909450610b7b81610976565b6040860151909350610b8c81610976565b6060860151909250610a53816109f4565b60008060408385031215610bb057600080fd5b8251610bbb81610976565b6020840151909250610bcc81610976565b809150509250929050565b634e487b7160e01b600052601160045260246000fd5b80820180821115610ac857610ac8610bd7565b8082028115828204841417610ac857610ac8610bd7565b634e487b7160e01b600052601260045260246000fd5b600082610c3c57610c3c610c17565b500490565b600060208284031215610c5357600080fd5b81516109ed8161095e565b600060208284031215610c7057600080fd5b5051919050565b600060208284031215610c8957600080fd5b815160ff811681146109ed57600080fd5b600181815b80851115610cd5578160001904821115610cbb57610cbb610bd7565b80851615610cc857918102915b93841c9390800290610c9f565b509250929050565b600082610cec57506001610ac8565b81610cf957506000610ac8565b8160018114610d0f5760028114610d1957610d35565b6001915050610ac8565b60ff841115610d2a57610d2a610bd7565b50506001821b610ac8565b5060208310610133831016604e8410600b8410161715610d58575081810a610ac8565b610d628383610c9a565b8060001904821115610d7657610d76610bd7565b029392505050565b60006109ed8383610cdd565b600080600060608486031215610d9f57600080fd5b835192506020840151915060408401516fffffffffffffffffffffffffffffffff811681146109c557600080fd5b600282810b9082900b03627fffff198112627fffff82131715610ac857610ac8610bd7565b60008160020b8360020b80610e0957610e09610c17565b627fffff19821460001982141615610e2357610e23610bd7565b90059392505050565b60008060408385031215610e3f57600080fd5b50508051602090910151909290915056fea264697066735822122031ef60142c6386cb4f4e769d0066432cc007b491b399a49d0468000a66a203b264736f6c63430008110033",
  "deployedBytecode": "0x73000000000000000000000000000000000000000030146080604052600436106100565760003560e01c8063442836761461005b5780638bb4a4431461008d578063ce3adc98146100b3578063e4ee4bf7146100d3575b600080fd5b61006e610069366004610985565b6100f5565b60408051600293840b81529190920b6020820152015b60405180910390f35b6100a061009b3660046109d0565b6101f5565b60405160029190910b8152602001610084565b6100c66100c1366004610a02565b610263565b6040516100849190610aa4565b8180156100df57600080fd5b506100f36100ee366004610ace565b6102af565b005b6000806000856001600160a01b031663217ac2376040518163ffffffff1660e01b8152600401608060405180830381865afa158015610138573d6000803e3d6000fd5b505050506040513d601f19601f8201168201806040525081019061015c9190610b49565b505060405163cd8e20e760e01b8152600282810b600483015288810b602483015287900b604482015290925073__$b1ba452cecccdd06eb05ace2d0a762c7e1$__915063cd8e20e7906064016040805180830381865af41580156101c4573d6000803e3d6000fd5b505050506040513d601f19601f820116820180604052508101906101e89190610b9d565b9250925050935093915050565b6000816001600160a01b031663217ac2376040518163ffffffff1660e01b8152600401608060405180830381865afa158015610235573d6000803e3d6000fd5b505050506040513d601f19601f820116820180604052508101906102599190610b49565b5090949350505050565b60606000806102748787878761039c565b604080516001602082015290810183905260608101829052919350915060800160405160208183030381529060405292505050949350505050565b600386015460009081906102e5908490600160c81b8104600290810b91600160e01b8104820b91600160b01b909104900b610690565b895460038b0154929450909250600091829161031a916001600160a01b039091169086908690600160a81b900460ff1661039c565b90925090506103538b8b8b8b8b8b610332888a610bed565b610344670de0b6b3a76400008b610c00565b61034e9190610c2d565b61075a565b5050600397909701805465ffffffffffff60c81b1916600160e01b62ffffff998a160262ffffff60c81b191617600160c81b929098169190910296909617909555505050505050565b6000806000866001600160a01b031663d21220a76040518163ffffffff1660e01b8152600401602060405180830381865afa1580156103df573d6000803e3d6000fd5b505050506040513d601f19601f820116820180604052508101906104039190610c41565b604051635620c32d60e11b81526001600160a01b03808a1660048301528216602482015290915060009073__$6668ebb5ac5ad37edc54ad8f6bc25d5212$__9063ac41865a90604401602060405180830381865af4158015610469573d6000803e3d6000fd5b505050506040513d601f19601f8201168201806040525081019061048d9190610c5e565b90506000826001600160a01b031663313ce5676040518163ffffffff1660e01b8152600401602060405180830381865afa1580156104cf573d6000803e3d6000fd5b505050506040513d601f19601f820116820180604052508101906104f39190610c77565b60ff16905081600061050683600a610d7e565b60408051808201909152601081526f54532d3234207a65726f2076616c756560801b6020820152909150816105575760405162461bcd60e51b815260040161054e9190610aa4565b60405180910390fd5b506040516305f08b0f60e21b81526001600160a01b038c16600482015260028b810b60248301528a900b60448201526064810183905260848101829052600090819073__$6668ebb5ac5ad37edc54ad8f6bc25d5212$__906317c22c3c9060a401606060405180830381865af41580156105d5573d6000803e3d6000fd5b505050506040513d601f19601f820116820180604052508101906105f99190610d8a565b5091509150896106425761061582670de0b6b3a7640000610c00565b838761062984670de0b6b3a7640000610c00565b6106339190610c00565b61063d9190610c2d565b61067c565b828661065683670de0b6b3a7640000610c00565b6106609190610c00565b61066a9190610c2d565b61067c83670de0b6b3a7640000610c00565b985098505050505050505094509492505050565b6000808061069e8686610dcd565b905060008460020b8260020b146106bf576106ba600283610df2565b6106c2565b60005b60405163cd8e20e760e01b815260028a810b600483015282810b602483015287900b604482015290915073__$b1ba452cecccdd06eb05ace2d0a762c7e1$__9063cd8e20e7906064016040805180830381865af4158015610727573d6000803e3d6000fd5b505050506040513d601f19601f8201168201806040525081019061074b9190610b9d565b93509350505094509492505050565b600286015460038701546001600160a01b03918216911673__$295fb458e6648e6381ea46363bb426e5e7$__6343f8b62c61079860208c018c6109d0565b6107a860408d0160208e016109d0565b60405160e084901b6001600160e01b03191681526001600160a01b03928316600482015290821660248201528186166044820152908416606482015260848101869052863560a4820152602087013560c482015260e481018a90526101040160006040518083038186803b15801561081f57600080fd5b505af4158015610833573d6000803e3d6000fd5b5050505086600014610953576040516370a0823160e01b815230600482015273__$8f1afe7577f9ab973017c74eca19b86f3c$__9063890ffb849084908a9089908b906001600160a01b038516906370a0823190602401602060405180830381865afa1580156108a7573d6000803e3d6000fd5b505050506040513d601f19601f820116820180604052508101906108cb9190610c5e565b6040516001600160e01b031960e088901b1681526001600160a01b03958616600482015260248101949094529390911660448301526064820152608481019190915260a4016040805180830381865af415801561092c573d6000803e3d6000fd5b505050506040513d601f19601f820116820180604052508101906109509190610e2c565b50505b505050505050505050565b6001600160a01b038116811461097357600080fd5b50565b8060020b811461097357600080fd5b60008060006060848603121561099a57600080fd5b83356109a58161095e565b925060208401356109b581610976565b915060408401356109c581610976565b809150509250925092565b6000602082840312156109e257600080fd5b81356109ed8161095e565b9392505050565b801515811461097357600080fd5b60008060008060808587031215610a1857600080fd5b8435610a238161095e565b93506020850135610a3381610976565b92506040850135610a4381610976565b91506060850135610a53816109f4565b939692955090935050565b6000815180845260005b81811015610a8457602081850181015186830182015201610a68565b506000602082860101526020601f19601f83011685010191505092915050565b6020815260006109ed6020830184610a5e565b8060408101831015610ac857600080fd5b92915050565b6000806000806000806000610120888a031215610aea57600080fd5b610af48989610ab7565b965060408801359550606088013594506080880135935060a0880135610b198161095e565b9250610b288960c08a01610ab7565b9150610100880135610b3981610976565b8091505092959891949750929550565b60008060008060808587031215610b5f57600080fd5b8451610b6a8161095e565b6020860151909450610b7b81610976565b6040860151909350610b8c81610976565b6060860151909250610a53816109f4565b60008060408385031215610bb057600080fd5b8251610bbb81610976565b6020840151909250610bcc81610976565b809150509250929050565b634e487b7160e01b600052601160045260246000fd5b80820180821115610ac857610ac8610bd7565b8082028115828204841417610ac857610ac8610bd7565b634e487b7160e01b600052601260045260246000fd5b600082610c3c57610c3c610c17565b500490565b600060208284031215610c5357600080fd5b81516109ed8161095e565b600060208284031215610c7057600080fd5b5051919050565b600060208284031215610c8957600080fd5b815160ff811681146109ed57600080fd5b600181815b80851115610cd5578160001904821115610cbb57610cbb610bd7565b80851615610cc857918102915b93841c9390800290610c9f565b509250929050565b600082610cec57506001610ac8565b81610cf957506000610ac8565b8160018114610d0f5760028114610d1957610d35565b6001915050610ac8565b60ff841115610d2a57610d2a610bd7565b50506001821b610ac8565b5060208310610133831016604e8410600b8410161715610d58575081810a610ac8565b610d628383610c9a565b8060001904821115610d7657610d76610bd7565b029392505050565b60006109ed8383610cdd565b600080600060608486031215610d9f57600080fd5b835192506020840151915060408401516fffffffffffffffffffffffffffffffff811681146109c557600080fd5b600282810b9082900b03627fffff198112627fffff82131715610ac857610ac8610bd7565b60008160020b8360020b80610e0957610e09610c17565b627fffff19821460001982141615610e2357610e23610bd7565b90059392505050565b60008060408385031215610e3f57600080fd5b50508051602090910151909290915056fea264697066735822122031ef60142c6386cb4f4e769d0066432cc007b491b399a49d0468000a66a203b264736f6c63430008110033",
  "libraries": {
    "KyberLib": "0x421AbA1614Fc2D6C02610DBa96Ff93e8243bb001",
    "ConverterStrategyBaseLib2": "0xd046d0428bDD6D5cCf67fE2cbC8d5039c24A8f6a",
    "BorrowLib": "0xaCd21eA06C28740DF896dd4b2E84817Cd6BA8Fe0",
    "PairBasedStrategyLogicLib": "0xF9a2e80F33DCd31D67afa675b6A31af09cd9430d"
  },
  "devdoc": {
    "kind": "dev",
    "methods": {
      "rebalanceNoSwaps(address[2],PairBasedStrategyLogicLib.PairState storage,uint256,uint256,address,uint256[2],int24)": {
        "params": {
          "liquidationThresholdsAB": "[liquidityThreshold of token A, liquidityThreshold of tokenB]"
        }
      }
    },
    "version": 1
  },
  "userdoc": {
    "kind": "user",
    "methods": {},
    "version": 1
  },
  "storageLayout": {
    "storage": [],
    "types": null
  }
}