{
  "address": "0xB7423B804F03585D3203897Fa861693cAd60F963",
  "abi": [
    {
      "anonymous": false,
      "inputs": [
        {
          "indexed": false,
          "internalType": "address",
          "name": "controller",
          "type": "address"
        },
        {
          "indexed": false,
          "internalType": "uint256",
          "name": "ts",
          "type": "uint256"
        },
        {
          "indexed": false,
          "internalType": "uint256",
          "name": "block",
          "type": "uint256"
        }
      ],
      "name": "ContractInitialized",
      "type": "event"
    },
    {
      "anonymous": false,
      "inputs": [
        {
          "indexed": false,
          "internalType": "uint8",
          "name": "version",
          "type": "uint8"
        }
      ],
      "name": "Initialized",
      "type": "event"
    },
    {
      "anonymous": false,
      "inputs": [
        {
          "indexed": false,
          "internalType": "uint256[]",
          "name": "withdrawnAmounts",
          "type": "uint256[]"
        }
      ],
      "name": "OnDepositorEmergencyExit",
      "type": "event"
    },
    {
      "anonymous": false,
      "inputs": [
        {
          "indexed": false,
          "internalType": "uint256[]",
          "name": "amounts",
          "type": "uint256[]"
        },
        {
          "indexed": false,
          "internalType": "uint256[]",
          "name": "consumedAmounts",
          "type": "uint256[]"
        }
      ],
      "name": "OnDepositorEnter",
      "type": "event"
    },
    {
      "anonymous": false,
      "inputs": [
        {
          "indexed": false,
          "internalType": "uint256",
          "name": "liquidityAmount",
          "type": "uint256"
        },
        {
          "indexed": false,
          "internalType": "uint256[]",
          "name": "withdrawnAmounts",
          "type": "uint256[]"
        }
      ],
      "name": "OnDepositorExit",
      "type": "event"
    },
    {
      "anonymous": false,
      "inputs": [
        {
          "indexed": false,
          "internalType": "uint256",
          "name": "investedAssetsNewPrices",
          "type": "uint256"
        },
        {
          "indexed": false,
          "internalType": "uint256",
          "name": "earnedByPrices",
          "type": "uint256"
        },
        {
          "indexed": false,
          "internalType": "uint256",
          "name": "earnedHandleRewards",
          "type": "uint256"
        },
        {
          "indexed": false,
          "internalType": "uint256",
          "name": "lostHandleRewards",
          "type": "uint256"
        },
        {
          "indexed": false,
          "internalType": "uint256",
          "name": "earnedDeposit",
          "type": "uint256"
        },
        {
          "indexed": false,
          "internalType": "uint256",
          "name": "lostDeposit",
          "type": "uint256"
        }
      ],
      "name": "OnHardWorkEarnedLost",
      "type": "event"
    },
    {
      "anonymous": false,
      "inputs": [
        {
          "indexed": false,
          "internalType": "uint256",
          "name": "value",
          "type": "uint256"
        },
        {
          "indexed": false,
          "internalType": "address",
          "name": "oldLogic",
          "type": "address"
        }
      ],
      "name": "RevisionIncreased",
      "type": "event"
    },
    {
      "inputs": [],
      "name": "CONTROLLABLE_VERSION",
      "outputs": [
        {
          "internalType": "string",
          "name": "",
          "type": "string"
        }
      ],
      "stateMutability": "view",
      "type": "function"
    },
    {
      "inputs": [],
      "name": "CONVERTER_STRATEGY_BASE_VERSION",
      "outputs": [
        {
          "internalType": "string",
          "name": "",
          "type": "string"
        }
      ],
      "stateMutability": "view",
      "type": "function"
    },
    {
      "inputs": [],
      "name": "KYBER_DEPOSITOR_VERSION",
      "outputs": [
        {
          "internalType": "string",
          "name": "",
          "type": "string"
        }
      ],
      "stateMutability": "view",
      "type": "function"
    },
    {
      "inputs": [],
      "name": "NAME",
      "outputs": [
        {
          "internalType": "string",
          "name": "",
          "type": "string"
        }
      ],
      "stateMutability": "view",
      "type": "function"
    },
    {
      "inputs": [],
      "name": "PLATFORM",
      "outputs": [
        {
          "internalType": "string",
          "name": "",
          "type": "string"
        }
      ],
      "stateMutability": "view",
      "type": "function"
    },
    {
      "inputs": [],
      "name": "STRATEGY_BASE_VERSION",
      "outputs": [
        {
          "internalType": "string",
          "name": "",
          "type": "string"
        }
      ],
      "stateMutability": "view",
      "type": "function"
    },
    {
      "inputs": [],
      "name": "STRATEGY_VERSION",
      "outputs": [
        {
          "internalType": "string",
          "name": "",
          "type": "string"
        }
      ],
      "stateMutability": "view",
      "type": "function"
    },
    {
      "inputs": [],
      "name": "asset",
      "outputs": [
        {
          "internalType": "address",
          "name": "",
          "type": "address"
        }
      ],
      "stateMutability": "view",
      "type": "function"
    },
    {
      "inputs": [],
      "name": "calcInvestedAssets",
      "outputs": [
        {
          "internalType": "uint256",
          "name": "",
          "type": "uint256"
        }
      ],
      "stateMutability": "nonpayable",
      "type": "function"
    },
    {
      "inputs": [],
      "name": "canFarm",
      "outputs": [
        {
          "internalType": "bool",
          "name": "",
          "type": "bool"
        }
      ],
      "stateMutability": "view",
      "type": "function"
    },
    {
      "inputs": [],
      "name": "capacity",
      "outputs": [
        {
          "internalType": "uint256",
          "name": "",
          "type": "uint256"
        }
      ],
      "stateMutability": "view",
      "type": "function"
    },
    {
      "inputs": [
        {
          "internalType": "uint256",
          "name": "pId",
          "type": "uint256"
        }
      ],
      "name": "changePId",
      "outputs": [],
      "stateMutability": "nonpayable",
      "type": "function"
    },
    {
      "inputs": [],
      "name": "claim",
      "outputs": [],
      "stateMutability": "nonpayable",
      "type": "function"
    },
    {
      "inputs": [],
      "name": "compoundRatio",
      "outputs": [
        {
          "internalType": "uint256",
          "name": "",
          "type": "uint256"
        }
      ],
      "stateMutability": "view",
      "type": "function"
    },
    {
      "inputs": [],
      "name": "controller",
      "outputs": [
        {
          "internalType": "address",
          "name": "",
          "type": "address"
        }
      ],
      "stateMutability": "view",
      "type": "function"
    },
    {
      "inputs": [],
      "name": "converter",
      "outputs": [
        {
          "internalType": "contract ITetuConverter",
          "name": "",
          "type": "address"
        }
      ],
      "stateMutability": "view",
      "type": "function"
    },
    {
      "inputs": [],
      "name": "created",
      "outputs": [
        {
          "internalType": "uint256",
          "name": "",
          "type": "uint256"
        }
      ],
      "stateMutability": "view",
      "type": "function"
    },
    {
      "inputs": [],
      "name": "createdBlock",
      "outputs": [
        {
          "internalType": "uint256",
          "name": "",
          "type": "uint256"
        }
      ],
      "stateMutability": "view",
      "type": "function"
    },
    {
      "inputs": [],
      "name": "doHardWork",
      "outputs": [
        {
          "internalType": "uint256",
          "name": "earned",
          "type": "uint256"
        },
        {
          "internalType": "uint256",
          "name": "lost",
          "type": "uint256"
        }
      ],
      "stateMutability": "nonpayable",
      "type": "function"
    },
    {
      "inputs": [],
      "name": "emergencyExit",
      "outputs": [],
      "stateMutability": "nonpayable",
      "type": "function"
    },
    {
      "inputs": [],
      "name": "getDefaultState",
      "outputs": [
        {
          "internalType": "address[]",
          "name": "addr",
          "type": "address[]"
        },
        {
          "internalType": "int24[]",
          "name": "tickData",
          "type": "int24[]"
        },
        {
          "internalType": "uint256[]",
          "name": "nums",
          "type": "uint256[]"
        },
        {
          "internalType": "bool[]",
          "name": "boolValues",
          "type": "bool[]"
        }
      ],
      "stateMutability": "view",
      "type": "function"
    },
    {
      "inputs": [],
      "name": "getPropNotUnderlying18",
      "outputs": [
        {
          "internalType": "uint256",
          "name": "",
          "type": "uint256"
        }
      ],
      "stateMutability": "view",
      "type": "function"
    },
    {
      "inputs": [
        {
          "internalType": "uint256",
          "name": "slot",
          "type": "uint256"
        }
      ],
      "name": "getSlot",
      "outputs": [
        {
          "internalType": "bytes32",
          "name": "result",
          "type": "bytes32"
        }
      ],
      "stateMutability": "view",
      "type": "function"
    },
    {
      "inputs": [],
      "name": "getSpecificState",
      "outputs": [
        {
          "internalType": "uint256[]",
          "name": "nums",
          "type": "uint256[]"
        },
        {
          "internalType": "bool[]",
          "name": "flags",
          "type": "bool[]"
        }
      ],
      "stateMutability": "view",
      "type": "function"
    },
    {
      "inputs": [
        {
          "internalType": "address",
          "name": "oldLogic",
          "type": "address"
        }
      ],
      "name": "increaseRevision",
      "outputs": [],
      "stateMutability": "nonpayable",
      "type": "function"
    },
    {
      "inputs": [
        {
          "internalType": "address",
          "name": "controller_",
          "type": "address"
        },
        {
          "internalType": "address",
          "name": "splitter_",
          "type": "address"
        },
        {
          "internalType": "address",
          "name": "converter_",
          "type": "address"
        },
        {
          "internalType": "address",
          "name": "pool_",
          "type": "address"
        },
        {
          "internalType": "int24",
          "name": "tickRange_",
          "type": "int24"
        },
        {
          "internalType": "int24",
          "name": "rebalanceTickRange_",
          "type": "int24"
        },
        {
          "internalType": "bool",
          "name": "isStablePool",
          "type": "bool"
        },
        {
          "internalType": "uint256",
          "name": "pId",
          "type": "uint256"
        },
        {
          "internalType": "uint256[4]",
          "name": "fuseThresholdsA",
          "type": "uint256[4]"
        },
        {
          "internalType": "uint256[4]",
          "name": "fuseThresholdsB",
          "type": "uint256[4]"
        }
      ],
      "name": "init",
      "outputs": [],
      "stateMutability": "nonpayable",
      "type": "function"
    },
    {
      "inputs": [
        {
          "internalType": "uint256",
          "name": "",
          "type": "uint256"
        },
        {
          "internalType": "bool",
          "name": "updateTotalAssetsBeforeInvest_",
          "type": "bool"
        }
      ],
      "name": "investAll",
      "outputs": [
        {
          "internalType": "uint256",
          "name": "strategyLoss",
          "type": "uint256"
        }
      ],
      "stateMutability": "nonpayable",
      "type": "function"
    },
    {
      "inputs": [],
      "name": "investedAssets",
      "outputs": [
        {
          "internalType": "uint256",
          "name": "",
          "type": "uint256"
        }
      ],
      "stateMutability": "view",
      "type": "function"
    },
    {
      "inputs": [
        {
          "internalType": "address",
          "name": "_value",
          "type": "address"
        }
      ],
      "name": "isController",
      "outputs": [
        {
          "internalType": "bool",
          "name": "",
          "type": "bool"
        }
      ],
      "stateMutability": "view",
      "type": "function"
    },
    {
      "inputs": [
        {
          "internalType": "address",
          "name": "_value",
          "type": "address"
        }
      ],
      "name": "isGovernance",
      "outputs": [
        {
          "internalType": "bool",
          "name": "",
          "type": "bool"
        }
      ],
      "stateMutability": "view",
      "type": "function"
    },
    {
      "inputs": [],
      "name": "isReadyToHardWork",
      "outputs": [
        {
          "internalType": "bool",
          "name": "",
          "type": "bool"
        }
      ],
      "stateMutability": "view",
      "type": "function"
    },
    {
      "inputs": [
        {
          "internalType": "address",
          "name": "",
          "type": "address"
        }
      ],
      "name": "liquidationThresholds",
      "outputs": [
        {
          "internalType": "uint256",
          "name": "",
          "type": "uint256"
        }
      ],
      "stateMutability": "view",
      "type": "function"
    },
    {
      "inputs": [],
      "name": "needRebalance",
      "outputs": [
        {
          "internalType": "bool",
          "name": "",
          "type": "bool"
        }
      ],
      "stateMutability": "view",
      "type": "function"
    },
    {
      "inputs": [
        {
          "internalType": "address",
          "name": "",
          "type": "address"
        },
        {
          "internalType": "address",
          "name": "",
          "type": "address"
        },
        {
          "internalType": "uint256",
          "name": "",
          "type": "uint256"
        },
        {
          "internalType": "bytes",
          "name": "",
          "type": "bytes"
        }
      ],
      "name": "onERC721Received",
      "outputs": [
        {
          "internalType": "bytes4",
          "name": "",
          "type": "bytes4"
        }
      ],
      "stateMutability": "pure",
      "type": "function"
    },
    {
      "inputs": [
        {
          "internalType": "address[]",
          "name": "assets_",
          "type": "address[]"
        },
        {
          "internalType": "uint256[]",
          "name": "amounts_",
          "type": "uint256[]"
        }
      ],
      "name": "onTransferAmounts",
      "outputs": [],
      "stateMutability": "nonpayable",
      "type": "function"
    },
    {
      "inputs": [],
      "name": "performanceFee",
      "outputs": [
        {
          "internalType": "uint256",
          "name": "",
          "type": "uint256"
        }
      ],
      "stateMutability": "view",
      "type": "function"
    },
    {
      "inputs": [],
      "name": "performanceFeeRatio",
      "outputs": [
        {
          "internalType": "uint256",
          "name": "",
          "type": "uint256"
        }
      ],
      "stateMutability": "view",
      "type": "function"
    },
    {
      "inputs": [],
      "name": "performanceReceiver",
      "outputs": [
        {
          "internalType": "address",
          "name": "",
          "type": "address"
        }
      ],
      "stateMutability": "view",
      "type": "function"
    },
    {
      "inputs": [],
      "name": "previousImplementation",
      "outputs": [
        {
          "internalType": "address",
          "name": "",
          "type": "address"
        }
      ],
      "stateMutability": "view",
      "type": "function"
    },
    {
      "inputs": [
        {
          "internalType": "bytes",
          "name": "planEntryData",
          "type": "bytes"
        }
      ],
      "name": "quoteWithdrawByAgg",
      "outputs": [
        {
          "internalType": "address",
          "name": "tokenToSwap",
          "type": "address"
        },
        {
          "internalType": "uint256",
          "name": "amountToSwap",
          "type": "uint256"
        }
      ],
      "stateMutability": "nonpayable",
      "type": "function"
    },
    {
      "inputs": [
        {
          "internalType": "bool",
          "name": "checkNeedRebalance",
          "type": "bool"
        }
      ],
      "name": "rebalanceNoSwaps",
      "outputs": [],
      "stateMutability": "nonpayable",
      "type": "function"
    },
    {
      "inputs": [],
      "name": "reinvestThresholdPercent",
      "outputs": [
        {
          "internalType": "uint256",
          "name": "",
          "type": "uint256"
        }
      ],
      "stateMutability": "view",
      "type": "function"
    },
    {
      "inputs": [
        {
          "internalType": "address",
          "name": "theAsset_",
          "type": "address"
        },
        {
          "internalType": "uint256",
          "name": "amount_",
          "type": "uint256"
        }
      ],
      "name": "requirePayAmountBack",
      "outputs": [
        {
          "internalType": "uint256",
          "name": "amountOut",
          "type": "uint256"
        }
      ],
      "stateMutability": "pure",
      "type": "function"
    },
    {
      "inputs": [],
      "name": "revision",
      "outputs": [
        {
          "internalType": "uint256",
          "name": "",
          "type": "uint256"
        }
      ],
      "stateMutability": "view",
      "type": "function"
    },
    {
      "inputs": [
        {
          "internalType": "uint256",
          "name": "value",
          "type": "uint256"
        }
      ],
      "name": "setCompoundRatio",
      "outputs": [],
      "stateMutability": "nonpayable",
      "type": "function"
    },
    {
      "inputs": [
        {
          "internalType": "uint256",
          "name": "index01",
          "type": "uint256"
        },
        {
          "internalType": "uint256",
          "name": "status",
          "type": "uint256"
        }
      ],
      "name": "setFuseStatus",
      "outputs": [],
      "stateMutability": "nonpayable",
      "type": "function"
    },
    {
      "inputs": [
        {
          "internalType": "uint256",
          "name": "index01",
          "type": "uint256"
        },
        {
          "internalType": "uint256[4]",
          "name": "values",
          "type": "uint256[4]"
        }
      ],
      "name": "setFuseThresholds",
      "outputs": [],
      "stateMutability": "nonpayable",
      "type": "function"
    },
    {
      "inputs": [
        {
          "internalType": "address",
          "name": "token",
          "type": "address"
        },
        {
          "internalType": "uint256",
          "name": "amount",
          "type": "uint256"
        }
      ],
      "name": "setLiquidationThreshold",
      "outputs": [],
      "stateMutability": "nonpayable",
      "type": "function"
    },
    {
      "inputs": [
        {
          "internalType": "uint256",
          "name": "percent_",
          "type": "uint256"
        }
      ],
      "name": "setReinvestThresholdPercent",
      "outputs": [],
      "stateMutability": "nonpayable",
      "type": "function"
    },
    {
      "inputs": [
        {
          "internalType": "address",
          "name": "strategyProfitHolder",
          "type": "address"
        }
      ],
      "name": "setStrategyProfitHolder",
      "outputs": [],
      "stateMutability": "nonpayable",
      "type": "function"
    },
    {
      "inputs": [
        {
          "internalType": "string",
          "name": "name",
          "type": "string"
        }
      ],
      "name": "setStrategySpecificName",
      "outputs": [],
      "stateMutability": "nonpayable",
      "type": "function"
    },
    {
      "inputs": [
        {
          "internalType": "uint256",
          "name": "done",
          "type": "uint256"
        }
      ],
      "name": "setWithdrawDone",
      "outputs": [],
      "stateMutability": "nonpayable",
      "type": "function"
    },
    {
      "inputs": [
        {
          "internalType": "uint256",
          "name": "fee_",
          "type": "uint256"
        },
        {
          "internalType": "address",
          "name": "receiver_",
          "type": "address"
        },
        {
          "internalType": "uint256",
          "name": "ratio_",
          "type": "uint256"
        }
      ],
      "name": "setupPerformanceFee",
      "outputs": [],
      "stateMutability": "nonpayable",
      "type": "function"
    },
    {
      "inputs": [],
      "name": "splitter",
      "outputs": [
        {
          "internalType": "address",
          "name": "",
          "type": "address"
        }
      ],
      "stateMutability": "view",
      "type": "function"
    },
    {
      "inputs": [],
      "name": "strategySpecificName",
      "outputs": [
        {
          "internalType": "string",
          "name": "",
          "type": "string"
        }
      ],
      "stateMutability": "view",
      "type": "function"
    },
    {
      "inputs": [
        {
          "internalType": "bytes4",
          "name": "interfaceId",
          "type": "bytes4"
        }
      ],
      "name": "supportsInterface",
      "outputs": [
        {
          "internalType": "bool",
          "name": "",
          "type": "bool"
        }
      ],
      "stateMutability": "view",
      "type": "function"
    },
    {
      "inputs": [],
      "name": "totalAssets",
      "outputs": [
        {
          "internalType": "uint256",
          "name": "",
          "type": "uint256"
        }
      ],
      "stateMutability": "view",
      "type": "function"
    },
    {
      "inputs": [],
      "name": "withdrawAllToSplitter",
      "outputs": [
        {
          "internalType": "uint256",
          "name": "strategyLoss",
          "type": "uint256"
        }
      ],
      "stateMutability": "nonpayable",
      "type": "function"
    },
    {
      "inputs": [
        {
          "internalType": "address",
          "name": "tokenToSwap_",
          "type": "address"
        },
        {
          "internalType": "address",
          "name": "aggregator_",
          "type": "address"
        },
        {
          "internalType": "uint256",
          "name": "amountToSwap_",
          "type": "uint256"
        },
        {
          "internalType": "bytes",
          "name": "swapData",
          "type": "bytes"
        },
        {
          "internalType": "bytes",
          "name": "planEntryData",
          "type": "bytes"
        },
        {
          "internalType": "uint256",
          "name": "entryToPool",
          "type": "uint256"
        }
      ],
      "name": "withdrawByAggStep",
      "outputs": [
        {
          "internalType": "bool",
          "name": "completed",
          "type": "bool"
        }
      ],
      "stateMutability": "nonpayable",
      "type": "function"
    },
    {
      "inputs": [
        {
          "internalType": "uint256",
          "name": "amount",
          "type": "uint256"
        }
      ],
      "name": "withdrawToSplitter",
      "outputs": [
        {
          "internalType": "uint256",
          "name": "strategyLoss",
          "type": "uint256"
        }
      ],
      "stateMutability": "nonpayable",
      "type": "function"
    }
  ],
  "transactionHash": "0x97666bbee5ac74808ef4d48074d012c0e63e7b93dbc7e4a64bd15c3ec4861155",
  "args": [],
  "numDeployments": 4,
  "solcInputHash": "02fd187ff67ff49fb918dbe5a02fbd27",
  "bytecode": "0x60806040523480156200001157600080fd5b506200001c62000022565b620000e3565b600054610100900460ff16156200008f5760405162461bcd60e51b815260206004820152602760248201527f496e697469616c697a61626c653a20636f6e747261637420697320696e697469604482015266616c697a696e6760c81b606482015260840160405180910390fd5b60005460ff90811614620000e1576000805460ff191660ff9081179091556040519081527f7f26b83ff96e1f2b6a682f133852f6798a09c465da95921460cefb38474024989060200160405180910390a15b565b615b5780620000f36000396000f3fe608060405234801561001057600080fd5b50600436106103645760003560e01c80636b5fba5a116101c95780639d0bcca0116100ff578063cd4c8156116100ad578063dee1f0e41161007c578063dee1f0e4146107e0578063f77c4791146107f3578063fe26565c146107fb578063ffb86c6a1461080e57600080fd5b8063cd4c815614610790578063ceee861d146107a1578063d295ea70146107c5578063de3d047c146107cd57600080fd5b80639d0bcca0146106e0578063a3f4df7e146106e8578063ab9e3eee1461071f578063b245755614610727578063b429afeb1461073a578063b77c975b1461074d578063bd38837b1461077f57600080fd5b80637eba7ba61161017757806387c7f7701161014657806387c7f77014610683578063936725ec1461069657806394b8aa17146106ba57806396b7b14e146106cd57600080fd5b80637eba7ba61461063d5780637efc77fa1461064f57806380e7ac7c14610673578063877887821461067b57600080fd5b80636b5fba5a146105b05780636ffb4c8e146105c35780637063a237146105d657806371ee0175146105e957806373a50ef5146105f157806378327438146106155780637cc963801461063557600080fd5b80634ba31b011161029e578063546799631161024c5780636207a0cf1161021b5780636207a0cf1461055357806363e277341461057757806365f50a8d1461058a578063693b134a1461059d57600080fd5b806354679963146105085780635641ec031461051d578063569c39cb146105255780635cfc1a511461054957600080fd5b80634ba31b01146104875780634e71d92d1461048f5780634fa5d854146104975780634fac6ccd146104b457806351e03fbe146104c757806352bbbb74146104da5780635412335d146104f057600080fd5b80632221eb3c1161031657806338d52e0f116102e557806338d52e0f1461044c5780633cd8045e146104665780634593144c146104775780634ad0b6841461047f57600080fd5b80632221eb3c14610421578063261efa1214610434578063325a19f11461043c57806333c5b58e1461044457600080fd5b806301e1d1141461036957806301ffc9a714610384578063066a6fc3146103a75780630acd12c7146103ba5780630e30428d146103c2578063150b7a02146103d75780631d2dca9e1461040e575b600080fd5b610371610816565b6040519081526020015b60405180910390f35b61039761039236600461459d565b6108a1565b604051901515815260200161037b565b6103976103b53660046146a9565b6108e7565b610371610a47565b6103d56103d0366004614743565b610b69565b005b6103f56103e536600461476f565b630a85bd0160e11b949350505050565b6040516001600160e01b0319909116815260200161037b565b6103d561041c3660046147e8565b610c0d565b6103d561042f366004614805565b610e09565b604a54610371565b610371610e7f565b610371610eaf565b6046546001600160a01b03165b60405161037b919061481e565b6047546001600160a01b0316610459565b610371610f27565b607954610371565b610371610f57565b6103d5610fce565b61049f611048565b6040805192835260208301919091520161037b565b6103d56104c2366004614832565b6110b6565b6103716104d5366004614805565b6111e8565b6104e26113b0565b60405161037b9291906148bc565b6104f86116a0565b60405161037b94939291906148ea565b61051061172f565b60405161037b91906149e9565b6103d56117c4565b610510604051806040016040528060058152602001640312e302e360dc1b81525081565b600160ff1b610371565b61051060405180604001604052806005815260200164322e302e3160d81b81525081565b6103d56105853660046149fc565b61185e565b6103d5610598366004614805565b61193c565b6103d56105ab366004614a6d565b611a0a565b6103d56105be366004614832565b611aca565b6103d56105d1366004614805565b611b5b565b6103d56105e4366004614af6565b611be3565b607b54610371565b610510604051806040016040528060058152602001640332e302e360dc1b81525081565b610371610623366004614832565b60786020526000908152604090205481565b610371611c81565b61037161064b366004614805565b5490565b6105106040518060400160405280600581526020016425bcb132b960d91b81525081565b610397611cb1565b604954610371565b610371610691366004614743565b611d37565b61051060405180604001604052806005815260200164332e302e3160d81b81525081565b6103d56106c8366004614b4e565b611d7c565b6103d56106db366004614c9a565b612092565b610459612137565b610510604051806040016040528060188152602001774b7962657220436f6e76657274657220537472617465677960401b81525081565b610397612167565b610371610735366004614d5b565b612181565b610397610748366004614832565b612230565b61076061075b366004614d8b565b612255565b604080516001600160a01b03909316835260208301919091520161037b565b607a546001600160a01b0316610459565b6048546001600160a01b0316610459565b61051060405180604001604052806005815260200164322e302e3360d81b81525081565b604b54610371565b6103d56107db366004614805565b612347565b6103976107ee366004614832565b6123d2565b610459612457565b6103d5610809366004614dbf565b612487565b610397612558565b600061082160795490565b6046546040516370a0823160e01b81526001600160a01b03909116906370a082319061085190309060040161481e565b602060405180830381865afa15801561086e573d6000803e3d6000fd5b505050506040513d601f19601f820116820180604052508101906108929190614de1565b61089c9190614e10565b905090565b60006001600160e01b03198216631e94dddf60e01b14806108d257506001600160e01b0319821663f73147b360e01b145b806108e157506108e182612675565b92915050565b60008060006108f461269a565b915091506060733e6126b6D1C5E07E22e06BeecAA29f0B5E13Bb33632aed8d416040518060a001604052808d6001600160a01b03166001600160a01b031681526020018c6001600160a01b03166001600160a01b03168152602001610957612457565b6001600160a01b039081168252607a54811660208084019190915260475490911660409283015281516080810183528d8152908101889052808201879052606081018a905290516001600160e01b031960e085901b1681526109c79291908c908c90600190607890600401614e46565b600060405180830381865af41580156109e4573d6000803e3d6000fd5b505050506040513d6000823e601f3d908101601f19168201604052610a0c9190810190614f22565b9094509050610a1a8161274c565b6000601155838015610a2f5750610a2f61277b565b15610a3a5760016010555b5050509695505050505050565b604754604654604051633e53813360e11b81526000926001600160a01b0390811692169083907300B6384Da9F9f1e31Feed637628Eb490732981b990637ca7026690610a999086908690600401614f68565b602060405180830381865af4158015610ab6573d6000803e3d6000fd5b505050506040513d601f19601f82011682018060405250810190610ada9190614de1565b90506000806000610ae96127a3565b9250925092507300B6384Da9F9f1e31Feed637628Eb490732981b9639ad00ec2868686868b6040518663ffffffff1660e01b8152600401610b2e959493929190614f82565b60006040518083038186803b158015610b4657600080fd5b505af4158015610b5a573d6000803e3d6000fd5b50929998505050505050505050565b73E11BFbFAf8e53ADC8e67552e8A1607a1b9CB735963142395ef610b8b612457565b6040516001600160e01b031960e084901b1681526001600160a01b03918216600482015290851660248201526044810184905260640160006040518083038186803b158015610bd957600080fd5b505af4158015610bed573d6000803e3d6000fd5b5050506001600160a01b0390921660009081526078602052604090205550565b6000610c17612457565b60405163124fdbb760e21b81529091507300B6384Da9F9f1e31Feed637628Eb490732981b99063493f6edc90610c5190849060040161481e565b60006040518083038186803b158015610c6957600080fd5b505af4158015610c7d573d6000803e3d6000fd5b50506040516304de78eb60e11b81526001600482015260009250829150733e6126b6D1C5E07E22e06BeecAA29f0B5E13Bb33906309bcf1d6906024016040805180830381865af4158015610cd5573d6000803e3d6000fd5b505050506040513d601f19601f82011682018060405250810190610cf99190614fb2565b915091508180610d065750805b15610d1057600093505b600080610d1b61269a565b60408051808201909152607a546001600160a01b031681529193509150600090733e6126b6D1C5E07E22e06BeecAA29f0B5E13Bb3390638aa04c469060019060208101610d678b6127be565b6001600160a01b0390811690915260475487918991168d60788d80610d8957508c5b6040518963ffffffff1660e01b8152600401610dac98979695949392919061500d565b600060405180830381865af4158015610dc9573d6000803e3d6000fd5b505050506040513d6000823e601f3d908101601f19168201604052610df1919081019061505f565b9050610dfc8161274c565b5050426011555050505050565b7300B6384Da9F9f1e31Feed637628Eb490732981b963493f6edc610e2b612457565b6040518263ffffffff1660e01b8152600401610e47919061481e565b60006040518083038186803b158015610e5f57600080fd5b505af4158015610e73573d6000803e3d6000fd5b50505060109190915550565b600061089c61064b60017f6f55f470bdc9cb5f04223fd822021061668e4dccb43e8727b295106dc9769c8b615093565b60007300B6384Da9F9f1e31Feed637628Eb490732981b963493f6edc610ed3612457565b6040518263ffffffff1660e01b8152600401610eef919061481e565b60006040518083038186803b158015610f0757600080fd5b505af4158015610f1b573d6000803e3d6000fd5b5050505061089c612822565b600061089c61064b60017f812a673dfca07956350df10f8a654925f561d7a0da09bdbe79e653939a14d9f1615093565b604051630a3c2bb160e21b815260016004820152600090733e6126b6D1C5E07E22e06BeecAA29f0B5E13Bb33906328f0aec490602401602060405180830381865af4158015610faa573d6000803e3d6000fd5b505050506040513d601f19601f8201168201806040525081019061089c9190614de1565b7300B6384Da9F9f1e31Feed637628Eb490732981b963d19cc38a610ff0612457565b6040518263ffffffff1660e01b815260040161100c919061481e565b60006040518083038186803b15801561102457600080fd5b505af4158015611038573d6000803e3d6000fd5b5050505061104461294f565b5050565b60475460408051808201909152600a81526914d08e8811195b9a595960b21b60208201526000918291906001600160a01b031633146110a35760405162461bcd60e51b815260040161109a91906149e9565b60405180910390fd5b506110ae6001612a0b565b915091509091565b3330146111055760405162461bcd60e51b815260206004820152601b60248201527f496e637265617365207265766973696f6e20666f7262696464656e0000000000604482015260640161109a565b600061113561064b60017f22573091f17911fb166032a3d9e0554aa73d31b7b7ddea4a4dd2995650af84bd615093565b611140906001614e10565b90506111748161117160017f22573091f17911fb166032a3d9e0554aa73d31b7b7ddea4a4dd2995650af84bd615093565b55565b6111a38261117160017fbfaaa2fb63266ff27c2da975f5894955056f50419af651a81f6c5060581857e4615093565b604080518281526001600160a01b03841660208201527ff27e2ef832a4eb8ed8ec553b875eecd44764cda95b1c24170e281539e0a869c8910160405180910390a15050565b604754604654604051633e53813360e11b81526000926001600160a01b0390811692169083907300B6384Da9F9f1e31Feed637628Eb490732981b990637ca702669061123a9086908690600401614f68565b602060405180830381865af4158015611257573d6000803e3d6000fd5b505050506040513d601f19601f8201168201806040525081019061127b9190614de1565b9050808511156113275760008061129a6112958489615093565b612b5a565b604051631594b05b60e01b815290985091935091507300B6384Da9F9f1e31Feed637628Eb490732981b990631594b05b906112e19087908790879087908c90600401614f82565b602060405180830381865af41580156112fe573d6000803e3d6000fd5b505050506040513d601f19601f820116820180604052508101906113229190614de1565b925050505b6040516333bbb20360e11b815260048101869052602481018290526001600160a01b038084166044830152841660648201527300B6384Da9F9f1e31Feed637628Eb490732981b99063677764069060840160006040518083038186803b15801561139057600080fd5b505af41580156113a4573d6000803e3d6000fd5b50505050505050919050565b6002546040805160038082526080820190925260609283926001600160a01b03909116919060208201848036833750506003546040516370a0823160e01b81529295506001600160a01b0316916370a08231915061141290849060040161481e565b602060405180830381865afa15801561142f573d6000803e3d6000fd5b505050506040513d601f19601f820116820180604052508101906114539190614de1565b83600081518110611466576114666150a6565b6020908102919091010152600480546040516370a0823160e01b81526001600160a01b03909116916370a08231916114a09185910161481e565b602060405180830381865afa1580156114bd573d6000803e3d6000fd5b505050506040513d601f19601f820116820180604052508101906114e19190614de1565b836001815181106114f4576114f46150a6565b60209081029190910101526040516370a0823160e01b8152731c954e8fe737f99f68fa1ccda3e51ebdb291948c906370a082319061153690849060040161481e565b602060405180830381865afa158015611553573d6000803e3d6000fd5b505050506040513d601f19601f820116820180604052508101906115779190614de1565b8360028151811061158a5761158a6150a6565b602090810291909101015260408051600380825260808201909252908160200160208202803683375050601454825192945060ff16918491506000906115d2576115d26150a6565b911515602092830291909101909101526040516304de78eb60e11b815260016004820152733e6126b6D1C5E07E22e06BeecAA29f0B5E13Bb33906309bcf1d6906024016040805180830381865af4158015611631573d6000803e3d6000fd5b505050506040513d601f19601f820116820180604052508101906116559190614fb2565b83600181518110611668576116686150a6565b6020026020010184600281518110611682576116826150a6565b60200260200101821515151581525082151515158152505050509091565b604051636e81b62960e01b81526001600482015260609081908190819073D9fFe2185e50a9E7fC68934C763dbcA25b8634f090636e81b62990602401600060405180830381865af41580156116f9573d6000803e3d6000fd5b505050506040513d6000823e601f3d908101601f191682016040526117219190810190615184565b935093509350935090919293565b60606046600601805461174190615282565b80601f016020809104026020016040519081016040528092919081815260200182805461176d90615282565b80156117ba5780601f1061178f576101008083540402835291602001916117ba565b820191906000526020600020905b81548152906001019060200180831161179d57829003601f168201915b5050505050905090565b6117cc612b8b565b7300B6384Da9F9f1e31Feed637628Eb490732981b963bd0206826117ee612457565b60465460475460405160e085901b6001600160e01b03191681526001600160a01b039384166004820152918316602483015291909116604482015260640160006040518083038186803b15801561184457600080fd5b505af4158015611858573d6000803e3d6000fd5b50505050565b7300B6384Da9F9f1e31Feed637628Eb490732981b963493f6edc611880612457565b6040518263ffffffff1660e01b815260040161189c919061481e565b60006040518083038186803b1580156118b457600080fd5b505af41580156118c8573d6000803e3d6000fd5b5050604051637fc1c15b60e01b81527300B6384Da9F9f1e31Feed637628Eb490732981b99250637fc1c15b915061190890604690869086906004016152bc565b60006040518083038186803b15801561192057600080fd5b505af4158015611934573d6000803e3d6000fd5b505050505050565b7300B6384Da9F9f1e31Feed637628Eb490732981b963493f6edc61195e612457565b6040518263ffffffff1660e01b815260040161197a919061481e565b60006040518083038186803b15801561199257600080fd5b505af41580156119a6573d6000803e3d6000fd5b50506014546040805180820190915260208082527f4b532d3134204c6971756964697479206d75737420626520756e7374616b656490820152925060ff16159050611a045760405162461bcd60e51b815260040161109a91906149e9565b50601355565b7300B6384Da9F9f1e31Feed637628Eb490732981b963493f6edc611a2c612457565b6040518263ffffffff1660e01b8152600401611a48919061481e565b60006040518083038186803b158015611a6057600080fd5b505af4158015611a74573d6000803e3d6000fd5b507319C8E33058Dcc261f7739F7B16A2468cae50679d9250630593c4c99150600690508460028110611aa857611aa86150a6565b60050201836040518363ffffffff1660e01b81526004016119089291906152f2565b7300B6384Da9F9f1e31Feed637628Eb490732981b963493f6edc611aec612457565b6040518263ffffffff1660e01b8152600401611b08919061481e565b60006040518083038186803b158015611b2057600080fd5b505af4158015611b34573d6000803e3d6000fd5b5050600280546001600160a01b0319166001600160a01b0394909416939093179092555050565b73E11BFbFAf8e53ADC8e67552e8A1607a1b9CB735963d2c3cf25611b7d612457565b6040516001600160e01b031960e084901b1681526001600160a01b0390911660048201526024810184905260440160006040518083038186803b158015611bc357600080fd5b505af4158015611bd7573d6000803e3d6000fd5b505050607b9190915550565b7300B6384Da9F9f1e31Feed637628Eb490732981b963ed6b63c16046858585611c0a612457565b6040516001600160e01b031960e088901b168152600481019590955260248501939093526001600160a01b039182166044850152606484015216608482015260a40160006040518083038186803b158015611c6457600080fd5b505af4158015611c78573d6000803e3d6000fd5b50505050505050565b600061089c61064b60017f22573091f17911fb166032a3d9e0554aa73d31b7b7ddea4a4dd2995650af84bd615093565b601354604051639ee0b2a960e01b8152600091733e6126b6D1C5E07E22e06BeecAA29f0B5E13Bb3391639ee0b2a991611cf09160040190815260200190565b602060405180830381865af4158015611d0d573d6000803e3d6000fd5b505050506040513d601f19601f82011682018060405250810190611d319190615306565b15905090565b60408051808201825260158152741514cb4c8e081b9bdd081a5b5c1b195b595b9d1959605a1b6020820152905162461bcd60e51b815260009161109a916004016149e9565b600054610100900460ff1615808015611d9c5750600054600160ff909116105b80611db65750303b158015611db6575060005460ff166001145b611e195760405162461bcd60e51b815260206004820152602e60248201527f496e697469616c697a61626c653a20636f6e747261637420697320616c72656160448201526d191e481a5b9a5d1a585b1a5e995960921b606482015260840161109a565b6000805460ff191660011790558015611e3c576000805461ff0019166101001790555b611e478b8b8b612c97565b733e6126b6D1C5E07E22e06BeecAA29f0B5E13Bb3363d0290dfa600160405180604001604052808f6001600160a01b03166001600160a01b031681526020018c6001600160a01b03166001600160a01b03168152508a8a8f6001600160a01b03166338d52e0f6040518163ffffffff1660e01b8152600401602060405180830381865afa158015611edc573d6000803e3d6000fd5b505050506040513d601f19601f82011682018060405250810190611f009190615323565b8b8a8a6040518963ffffffff1660e01b8152600401611f26989796959493929190615340565b60006040518083038186803b158015611f3e57600080fd5b505af4158015611f52573d6000803e3d6000fd5b50505060138590555060405163bd85be2960e01b8152600160048201527300B6384Da9F9f1e31Feed637628Eb490732981b990637fc1c15b90604690733e6126b6D1C5E07E22e06BeecAA29f0B5E13Bb339063bd85be2990602401600060405180830381865af4158015611fca573d6000803e3d6000fd5b505050506040513d6000823e601f3d908101601f19168201604052611ff291908101906153cb565b6040518363ffffffff1660e01b815260040161200f929190615413565b60006040518083038186803b15801561202757600080fd5b505af415801561203b573d6000803e3d6000fd5b505050508015612085576000805461ff0019169055604051600181527f7f26b83ff96e1f2b6a682f133852f6798a09c465da95921460cefb38474024989060200160405180910390a15b5050505050505050505050565b607a5460408051808201909152600a81526914d08e8811195b9a595960b21b6020820152906001600160a01b031633146120df5760405162461bcd60e51b815260040161109a91906149e9565b5080518251146040518060400160405280600d81526020016c54532d3139206c656e6774687360981b815250906121295760405162461bcd60e51b815260040161109a91906149e9565b50612132612d39565b505050565b600061089c61064b60017fbfaaa2fb63266ff27c2da975f5894955056f50419af651a81f6c5060581857e4615093565b6000612171612558565b15801561089c5750611d3161277b565b6047546046546040516001625acc3160e01b0319815260009283927300B6384Da9F9f1e31Feed637628Eb490732981b99263ffa533cf926121d3926001600160a01b0391821692911690600401614f68565b602060405180830381865af41580156121f0573d6000803e3d6000fd5b505050506040513d601f19601f820116820180604052508101906122149190614de1565b90508015612229576122268184612d4d565b91505b5092915050565b600061223a612457565b6001600160a01b0316826001600160a01b0316149050919050565b6005546000908190630100000090046001600160801b03168181156122825761227d82612df1565b6122a0565b60408051600280825260608201835290916020830190803683375050505b905073D9fFe2185e50a9E7fC68934C763dbcA25b8634f06350d2e0ba600187846122c8612457565b607a546040516001600160e01b031960e088901b1681526122fc95949392916001600160a01b031690607890600401615434565b6040805180830381865af4158015612318573d6000803e3d6000fd5b505050506040513d601f19601f8201168201806040525081019061233c9190615485565b935093505050915091565b7300B6384Da9F9f1e31Feed637628Eb490732981b9636d51f043604661236b612457565b6040516001600160e01b031960e085901b16815260048101929092526001600160a01b031660248201526044810184905260640160006040518083038186803b1580156123b757600080fd5b505af41580156123cb573d6000803e3d6000fd5b5050505050565b6000816001600160a01b03166123e6612457565b6001600160a01b0316635aa6e6756040518163ffffffff1660e01b8152600401602060405180830381865afa158015612423573d6000803e3d6000fd5b505050506040513d601f19601f820116820180604052508101906124479190615323565b6001600160a01b03161492915050565b600061089c61064b60017f5165972ef41194f06c5007493031d0b927c20741adcb74403b954009fd2c3618615093565b7300B6384Da9F9f1e31Feed637628Eb490732981b963493f6edc6124a9612457565b6040518263ffffffff1660e01b81526004016124c5919061481e565b60006040518083038186803b1580156124dd57600080fd5b505af41580156124f1573d6000803e3d6000fd5b507319C8E33058Dcc261f7739F7B16A2468cae50679d9250636bffb3469150600690508460028110612525576125256150a6565b6005020183600381111561253b5761253b6154b3565b6040518363ffffffff1660e01b81526004016119089291906154c9565b6040516304de78eb60e11b81526001600482015260009081908190733e6126b6D1C5E07E22e06BeecAA29f0B5E13Bb33906309bcf1d6906024016040805180830381865af41580156125ae573d6000803e3d6000fd5b505050506040513d601f19601f820116820180604052508101906125d29190614fb2565b607a54604051633934e59d60e11b8152600160048201526001600160a01b0390911660248201529193509150733e6126b6D1C5E07E22e06BeecAA29f0B5E13Bb3390637269cb3a90604401602060405180830381865af415801561263a573d6000803e3d6000fd5b505050506040513d601f19601f8201168201806040525081019061265e9190615306565b806126665750815b8061266e5750805b9250505090565b60006001600160e01b0319821663c19fa56160e01b14806108e157506108e182612e7c565b6000806126a76001612eb1565b92508290506126b4610816565b6126be9190615093565b604051637ed25b6f60e01b815260016004820152909150733e6126b6D1C5E07E22e06BeecAA29f0B5E13Bb3390637ed25b6f9060240160006040518083038186803b15801561270c57600080fd5b505af4158015612720573d6000803e3d6000fd5b5050600554630100000090046001600160801b0316159150612748905057612746612f5e565b505b9091565b80516002148015612762575061276061277b565b155b156127735761277081612fe3565b50505b611044612d39565b60006127916006825b600502015460ff16613070565b8061089c575061089c60066001612784565b60008060006127b3600019612b5a565b925092509250909192565b6000816001600160a01b0316634046ebae6040518163ffffffff1660e01b8152600401602060405180830381865afa1580156127fe573d6000803e3d6000fd5b505050506040513d601f19601f820116820180604052508101906108e19190615323565b6046546000908190819061283e906001600160a01b031661308d565b91509150600061285e6005546001600160801b0363010000009091041690565b905073E11BFbFAf8e53ADC8e67552e8A1607a1b9CB735963c9bce69084831561288f5761288a84612df1565b6128d3565b85516001600160401b038111156128a8576128a86145e6565b6040519080825280602002602001820160405280156128d1578160200160208202803683370190505b505b607a546040516001600160e01b031960e086901b16815261290693929188916001600160a01b0390911690600401615534565b602060405180830381865af4158015612923573d6000803e3d6000fd5b505050506040513d601f19601f820116820180604052508101906129479190614de1565b935050505090565b606080600080600061295f6130f9565b607a54929550909350915073E11BFbFAf8e53ADC8e67552e8A1607a1b9CB73599063e99de4da906001600160a01b031661299761317f565b8686866040518663ffffffff1660e01b81526004016129ba95949392919061557b565b600060405180830381865af41580156129d7573d6000803e3d6000fd5b505050506040513d6000823e601f3d908101601f191682016040526129ff91908101906155e5565b90969095509350505050565b600080600080612a1b6001612eb1565b91509150612a2885613213565b612b4d576000612a366132c6565b919650945090506000612a89878015612a4e57508415155b8015612a755750607b54620186a090612a6890879061563e565b612a729190615655565b83115b612a80576000612a82565b825b8486613391565b91506000905080612ad0612a9d8588614e10565b6046548590612ab4906001600160a01b03166135c5565b607954612ac19190614e10565b612acb9190614e10565b613635565b915091506040805187815260208101879052908101899052606081018890526080810183905260a081018290527f3e9abbc366dbf9fe260e2640c06eefbedd7720cf986ae553374e46b804f4ff559060c00160405180910390a1612b348289614e10565b612b3e8289614e10565b97509750505050505050915091565b5060009485945092505050565b6000806000806000612b6c6001612eb1565b91509150612b7b868284613665565b5091989097509095509350505050565b6000612b95612f5e565b90507f768a28cb3459382a3d2173feb2dad0235f8de680b109872da581a3aa269fe5f481604051612bc69190615677565b60405180910390a16046546000908190612be8906001600160a01b031661308d565b607a54919350915073F9B0b9d962c5D6a3e9b1316F73386a12d7F2703a906358b54f16906001600160a01b0316612c25612c20612457565b6127be565b846078600019886040518763ffffffff1660e01b8152600401612c4d9695949392919061568a565b602060405180830381865af4158015612c6a573d6000803e3d6000fd5b505050506040513d601f19601f82011682018060405250810190612c8e9190614de1565b50611858612d39565b600054610100900460ff16612cbe5760405162461bcd60e51b815260040161109a906156c7565b612cc88383613d3f565b607a80546001600160a01b0319166001600160a01b038316179055612cf16064620186a0615655565b607b557fe4166dfcf23bbd3e3f764a99dc8fa740554c03c82d6019b81cf265f396f6f2fe612d236064620186a0615655565b60405190815260200160405180910390a1505050565b6000612d43612822565b6079819055919050565b6000612d5761277b565b15612de0576040805160028082526060820183526000926020830190803683370190505090508381600081518110612d9157612d916150a6565b6020026020010181815250507f59400c8c523464b521238ea8f50e923f2bc64663557e6afec92a97f7efe92d058182604051612dce929190615712565b60405180910390a160009150506108e1565b612dea8383613de8565b90506108e1565b60405163a7aced0960e01b8152600160048201526001600160801b0382166024820152606090733e6126b6D1C5E07E22e06BeecAA29f0B5E13Bb339063a7aced09906044015b600060405180830381865af4158015612e54573d6000803e3d6000fd5b505050506040513d6000823e601f3d908101601f191682016040526108e1919081019061505f565b60006001600160e01b0319821663b7b79fa960e01b14806108e157506301ffc9a760e01b6001600160e01b03198316146108e1565b6000808215612f5257607954612ec5612d39565b6040516371253f5960e11b815260048101839052602481018290526046604482015290935073E11BFbFAf8e53ADC8e67552e8A1607a1b9CB73599063e24a7eb290606401602060405180830381865af4158015612f26573d6000803e3d6000fd5b505050506040513d601f19601f82011682018060405250810190612f4a9190614de1565b915050915091565b50506079546000915091565b60606000612f7c6005546001600160801b0363010000009091041690565b90508015612f9257612f8d81613e0f565b612fdd565b612f9a61317f565b516001600160401b03811115612fb257612fb26145e6565b604051908082528060200260200182016040528015612fdb578160200160208202803683370190505b505b91505090565b60606000733e6126b6D1C5E07E22e06BeecAA29f0B5E13Bb336374287da16001856040518363ffffffff1660e01b8152600401613021929190615737565b600060405180830381865af415801561303e573d6000803e3d6000fd5b505050506040513d6000823e601f3d908101601f191682016040526130669190810190615750565b9094909350915050565b60006001826003811115613086576130866154b3565b1192915050565b6060600061309961317f565b91506130a58284613e59565b90506000198114156040518060400160405280600f81526020016e53423a2057726f6e672076616c756560881b815250906130f35760405162461bcd60e51b815260040161109a91906149e9565b50915091565b604051637e41e84960e01b8152600160048201819052602482015260609081908190733e6126b6D1C5E07E22e06BeecAA29f0B5E13Bb3390637e41e84990604401600060405180830381865af4158015613157573d6000803e3d6000fd5b505050506040513d6000823e601f3d908101601f191682016040526127b39190810190615796565b6040805160028082526060808301845292602083019080368337505060035482519293506001600160a01b0316918391506000906131bf576131bf6150a6565b6001600160a01b0392831660209182029290920101526004548251911690829060019081106131f0576131f06150a6565b60200260200101906001600160a01b031690816001600160a01b03168152505090565b600061321d612558565b15604051806040016040528060138152602001724b532d31204e65656420726562616c616e636560681b815250906132685760405162461bcd60e51b815260040161109a91906149e9565b5061327161277b565b15604051806040016040528060148152602001734b532d313420467573652069732061637469766560601b815250906132bd5760405162461bcd60e51b815260040161109a91906149e9565b50600092915050565b604654600090819081906001600160a01b031681806132e361294f565b91509150733e6126b6D1C5E07E22e06BeecAA29f0B5E13Bb336334d2ec3d8461330a612457565b85856040518563ffffffff1660e01b815260040161332b949392919061581d565b602060405180830381865af4158015613348573d6000803e3d6000fd5b505050506040513d601f19601f8201168201806040525081019061336c9190614de1565b95506133788282613eb7565b8585613383856135c5565b955095509550505050909192565b60465460009081906001600160a01b0316818587116133b15760006133bb565b6133bb8688615093565b90506000620186a0866079600201546133d4919061563e565b6133de9190615655565b8211905060006133ed846135c5565b6001600160a01b03851660009081526078602052604090205490915061341290613f64565b8811156134fa5781806134255750878110155b156134e65760475473E11BFbFAf8e53ADC8e67552e8A1607a1b9CB73599063aac2718a9086908b906001600160a01b0316613460868d614e10565b6040516001600160e01b031960e087901b1681526001600160a01b03948516600482015260248101939093529216604482015260648101919091526084016040805180830381865af41580156134ba573d6000803e3d6000fd5b505050506040513d601f19601f820116820180604052508101906134de919061585b565b5094506134fa565b6134f260008989613665565b909850965050505b81156135b95760008061350c8661308d565b607a54919350915060009061352c906001600160a01b0316878585613f7c565b905061353781614134565b61358457600061354682612fe3565b5090507f59400c8c523464b521238ea8f50e923f2bc64663557e6afec92a97f7efe92d05828260405161357a929190615712565b60405180910390a1505b600061358e612d39565b90506135b161359d868d614e10565b8a6135a78b6135c5565b612ac19085614e10565b9a5050505050505b50505050935093915050565b6040516370a0823160e01b81526000906001600160a01b038316906370a08231906135f490309060040161481e565b602060405180830381865afa158015613611573d6000803e3d6000fd5b505050506040513d601f19601f820116820180604052508101906108e19190614de1565b600080838311156136515761364a8484615093565b915061365e565b61365b8385615093565b90505b9250929050565b60008060008061367487614180565b61370f604051806102200160405280600015158152602001606081526020016000815260200160008152602001600081526020016000815260200160608152602001600081526020016060815260200160008152602001600081526020016060815260200160006001600160a01b0316815260200160008152602001600081526020016060815260200160006001600160a01b031681525090565b60001988148082528061372a57506137278789614e10565b15155b801561373557508515155b15613d265761374261317f565b61016082018190526046546001600160a01b039081166101808401819052607a549091166102008401526137769190613e59565b6101a082015261018081015161378b906135c5565b6101c08201526137996141d3565b6020820152600554630100000090046001600160801b03166040820152600554630100000090046001600160801b03166060820152610200810151610180820151604051637a55caf360e01b815273E11BFbFAf8e53ADC8e67552e8A1607a1b9CB735992637a55caf39261380f92600401614f68565b602060405180830381865af415801561382c573d6000803e3d6000fd5b505050506040513d601f19601f820116820180604052508101906138509190614de1565b60a0820152805173E11BFbFAf8e53ADC8e67552e8A1607a1b9CB73599063ec0cc4fd9061388657613881898b614e10565b613889565b60005b30846101600151856101a001518661020001518c88606001516040518863ffffffff1660e01b81526004016138c4979695949392919061587f565b600060405180830381865af41580156138e1573d6000803e3d6000fd5b505050506040513d6000823e601f3d908101601f1916820160405261390991908101906158ce565b60c08301526080820181905215613a52576139278160800151613e0f565b6101e0820152600554630100000090046001600160801b0316816060015161394f9190615093565b608082018190526101e08201516040517faebc771af58936b05e89b0be7d3f9761480181abcd4a649fbdd01753fda169709261398c929091615737565b60405180910390a173E11BFbFAf8e53ADC8e67552e8A1607a1b9CB7359637a9a23e5826102000151836101600151846101a001518560200151866080015187604001518860c00151896101e001516040518963ffffffff1660e01b81526004016139fd9897969594939291906158fe565b600060405180830381865af4158015613a1a573d6000803e3d6000fd5b505050506040513d6000823e601f3d908101601f19168201604052613a429190810190615980565b60c0830152610100820152613aee565b6102008101516101608201516101a083015160c0840151604051636138ea8560e01b815273E11BFbFAf8e53ADC8e67552e8A1607a1b9CB735994636138ea8594613aa294919390926004016159b6565b600060405180830381865af4158015613abf573d6000803e3d6000fd5b505050506040513d6000823e601f3d908101601f19168201604052613ae7919081019061505f565b6101008201525b73F9B0b9d962c5D6a3e9b1316F73386a12d7F2703a63f1f2b573826101600151836101a001518460c00151856102000151613b2a612c20612457565b8751613b51578d8f896101c00151613b429190614e10565b613b4c9190614e10565b613b53565b8e5b88610100015160786040518963ffffffff1660e01b8152600401613b7e9897969594939291906159f2565b602060405180830381865af4158015613b9b573d6000803e3d6000fd5b505050506040513d601f19601f82011682018060405250810190613bbf9190614de1565b8160e001818151613bd09190614e10565b9052508615613c9e576101808101516047546101c083015173E11BFbFAf8e53ADC8e67552e8A1607a1b9CB73599263aac2718a9290918b916001600160a01b031690613c1c908c614e10565b6040516001600160e01b031960e087901b1681526001600160a01b03948516600482015260248101939093529216604482015260648101919091526084016040805180830381865af4158015613c76573d6000803e3d6000fd5b505050506040513d601f19601f82011682018060405250810190613c9a919061585b565b5091505b613ca6612d39565b610120820152610180810151613cbb906135c5565b6101408201526101c0810151613cec90613cd59088614e10565b83836101400151846101200151612ac19190614e10565b60a083015160e0840151919550670de0b6b3a76400009250613d0d9161563e565b613d179190615655565b8160a001519450945050613d36565b6000806000809450945094509450505b93509350935093565b600054610100900460ff16613d665760405162461bcd60e51b815260040161109a906156c7565b613d90817fd2de0374d4479f33e63ae5ed6ca772a10463dd883a90c612050b51fab619640061424e565b613d99826142a4565b604051631797527d60e01b8152604660048201526001600160a01b038084166024830152821660448201527300B6384Da9F9f1e31Feed637628Eb490732981b990631797527d90606401611908565b6000806000613df684612eb1565b91509150613e05858284613391565b5095945050505050565b60405163131c667560e01b8152600160048201526001600160801b0382166024820152606090733e6126b6D1C5E07E22e06BeecAA29f0B5E13Bb339063131c667590604401612e37565b8151600090815b81811015613eab57836001600160a01b0316858281518110613e8457613e846150a6565b60200260200101516001600160a01b031603613ea35791506108e19050565b600101613e60565b50600019949350505050565b81511561104457607a5473F9B0b9d962c5D6a3e9b1316F73386a12d7F2703a9063e43fe165906046906001600160a01b0316613ef161317f565b613ef9612457565b607888886040518863ffffffff1660e01b8152600401613f1f9796959493929190615a68565b600060405180830381865af4158015613f3c573d6000803e3d6000fd5b505050506040513d6000823e601f3d908101601f19168201604052612132919081019061505f565b60008115613f7257816108e1565b620186a092915050565b6060613f86612558565b15604051806040016040528060138152602001724b532d31204e65656420726562616c616e636560681b81525090613fd15760405162461bcd60e51b815260040161109a91906149e9565b50600154600480546040516319c75b9360e31b81526001600160a01b0390931691830191909152600160c81b8104600290810b6024840152600160e01b8204900b6044830152600160a81b900460ff1615156064820152600090733e6126b6D1C5E07E22e06BeecAA29f0B5E13Bb339063ce3adc9890608401600060405180830381865af4158015614067573d6000803e3d6000fd5b505050506040513d6000823e601f3d908101601f1916820160405261408f91908101906153cb565b60035460048054604051633f14c85760e01b815293945073D9fFe2185e50a9E7fC68934C763dbcA25b8634f093633f14c857936140e5938c938c936001600160a01b039384169390911691899160789101615ad3565b600060405180830381865af4158015614102573d6000803e3d6000fd5b505050506040513d6000823e601f3d908101601f1916820160405261412a919081019061505f565b9695505050505050565b8051600090815b8181101561417657838181518110614155576141556150a6565b602002602001015160000361416e575060019392505050565b60010161413b565b5060009392505050565b614188612558565b15604051806040016040528060138152602001724b532d31204e65656420726562616c616e636560681b815250906110445760405162461bcd60e51b815260040161109a91906149e9565b6040516347daa34760e11b815260016004820152606090733e6126b6D1C5E07E22e06BeecAA29f0B5E13Bb3390638fb5468e90602401600060405180830381865af4158015614226573d6000803e3d6000fd5b505050506040513d6000823e601f3d908101601f1916820160405261089c919081019061505f565b61425882826144c9565b6110445760405162461bcd60e51b815260206004820152601a60248201527f496e74657266616365206973206e6f7420737570706f72746564000000000000604482015260640161109a565b600054610100900460ff166142cb5760405162461bcd60e51b815260040161109a906156c7565b6001600160a01b0381166143135760405162461bcd60e51b815260206004820152600f60248201526e2d32b9379031b7b73a3937b63632b960891b604482015260640161109a565b61433d817f4c2403fdcb3cff9b705d96bf0705858e3390412670a62c8bcba611ca7e20ab8661424e565b60006001600160a01b0316816001600160a01b0316635aa6e6756040518163ffffffff1660e01b8152600401602060405180830381865afa158015614386573d6000803e3d6000fd5b505050506040513d601f19601f820116820180604052508101906143aa9190615323565b6001600160a01b0316036143f25760405162461bcd60e51b815260206004820152600f60248201526e5a65726f20676f7665726e616e636560881b604482015260640161109a565b6144218161117160017f5165972ef41194f06c5007493031d0b927c20741adcb74403b954009fd2c3618615093565b6144504261117160017f6f55f470bdc9cb5f04223fd822021061668e4dccb43e8727b295106dc9769c8b615093565b61447f4361117160017f812a673dfca07956350df10f8a654925f561d7a0da09bdbe79e653939a14d9f1615093565b604080516001600160a01b0383168152426020820152438183015290517f1a2dd071001ebf6e03174e3df5b305795a4ad5d41d8fdb9ba41dbbe2367134269181900360600190a150565b60006001600160a01b0383166145105760405162461bcd60e51b815260206004820152600c60248201526b5a65726f206164647265737360a01b604482015260640161109a565b823b60008190036145255760009150506108e1565b6040516301ffc9a760e01b81526001600160e01b0319841660048201526001600160a01b038516906301ffc9a790602401602060405180830381865afa92505050801561458f575060408051601f3d908101601f1916820190925261458c91810190615306565b60015b156141765791506108e19050565b6000602082840312156145af57600080fd5b81356001600160e01b0319811681146145c757600080fd5b9392505050565b6001600160a01b03811681146145e357600080fd5b50565b634e487b7160e01b600052604160045260246000fd5b604051601f8201601f191681016001600160401b0381118282101715614624576146246145e6565b604052919050565b60006001600160401b03821115614645576146456145e6565b50601f01601f191660200190565b600082601f83011261466457600080fd5b81356146776146728261462c565b6145fc565b81815284602083860101111561468c57600080fd5b816020850160208301376000918101602001919091529392505050565b60008060008060008060c087890312156146c257600080fd5b86356146cd816145ce565b955060208701356146dd816145ce565b94506040870135935060608701356001600160401b038082111561470057600080fd5b61470c8a838b01614653565b9450608089013591508082111561472257600080fd5b5061472f89828a01614653565b92505060a087013590509295509295509295565b6000806040838503121561475657600080fd5b8235614761816145ce565b946020939093013593505050565b6000806000806080858703121561478557600080fd5b8435614790816145ce565b935060208501356147a0816145ce565b92506040850135915060608501356001600160401b038111156147c257600080fd5b6147ce87828801614653565b91505092959194509250565b80151581146145e357600080fd5b6000602082840312156147fa57600080fd5b81356145c7816147da565b60006020828403121561481757600080fd5b5035919050565b6001600160a01b0391909116815260200190565b60006020828403121561484457600080fd5b81356145c7816145ce565b600081518084526020808501945080840160005b8381101561487f57815187529582019590820190600101614863565b509495945050505050565b600081518084526020808501945080840160005b8381101561487f57815115158752958201959082019060010161489e565b6040815260006148cf604083018561484f565b82810360208401526148e1818561488a565b95945050505050565b6080808252855190820181905260009060209060a0840190828901845b8281101561492c5781516001600160a01b031684529284019290840190600101614907565b5050508381038285015286518082528783019183019060005b8181101561496457835160020b83529284019291840191600101614945565b50508481036040860152614978818861484f565b92505050828103606084015261498e818561488a565b979650505050505050565b60005b838110156149b457818101518382015260200161499c565b50506000910152565b600081518084526149d5816020860160208601614999565b601f01601f19169290920160200192915050565b6020815260006145c760208301846149bd565b60008060208385031215614a0f57600080fd5b82356001600160401b0380821115614a2657600080fd5b818501915085601f830112614a3a57600080fd5b813581811115614a4957600080fd5b866020828501011115614a5b57600080fd5b60209290920196919550909350505050565b60008060a08385031215614a8057600080fd5b82359150602084603f850112614a9557600080fd5b604051608081018181106001600160401b0382111715614ab757614ab76145e6565b6040528060a0860187811115614acc57600080fd5b8387015b81811015614ae75780358352918401918401614ad0565b50505080925050509250929050565b600080600060608486031215614b0b57600080fd5b833592506020840135614b1d816145ce565b929592945050506040919091013590565b8060020b81146145e357600080fd5b80608081018310156108e157600080fd5b6000806000806000806000806000806102008b8d031215614b6e57600080fd5b8a35614b79816145ce565b995060208b0135614b89816145ce565b985060408b0135614b99816145ce565b975060608b0135614ba9816145ce565b965060808b0135614bb981614b2e565b955060a08b0135614bc981614b2e565b945060c08b0135614bd9816147da565b935060e08b01359250614bf08c6101008d01614b3d565b9150614c008c6101808d01614b3d565b90509295989b9194979a5092959850565b60006001600160401b03821115614c2a57614c2a6145e6565b5060051b60200190565b600082601f830112614c4557600080fd5b81356020614c5561467283614c11565b82815260059290921b84018101918181019086841115614c7457600080fd5b8286015b84811015614c8f5780358352918301918301614c78565b509695505050505050565b60008060408385031215614cad57600080fd5b82356001600160401b0380821115614cc457600080fd5b818501915085601f830112614cd857600080fd5b81356020614ce861467283614c11565b82815260059290921b84018101918181019089841115614d0757600080fd5b948201945b83861015614d2e578535614d1f816145ce565b82529482019490820190614d0c565b96505086013592505080821115614d4457600080fd5b50614d5185828601614c34565b9150509250929050565b60008060408385031215614d6e57600080fd5b823591506020830135614d80816147da565b809150509250929050565b600060208284031215614d9d57600080fd5b81356001600160401b03811115614db357600080fd5b61222684828501614653565b60008060408385031215614dd257600080fd5b50508035926020909101359150565b600060208284031215614df357600080fd5b5051919050565b634e487b7160e01b600052601160045260246000fd5b808201808211156108e1576108e1614dfa565b8060005b6004811015611858578151845260209384019390910190600101614e27565b60006101a08289835b6005811015614e775781516001600160a01b0316835260209283019290910190600101614e4f565b505050614e8760a0840189614e23565b80610120840152614e9a818401886149bd565b9050828103610140840152614eaf81876149bd565b61016084019590955250506101800152949350505050565b600082601f830112614ed857600080fd5b81516020614ee861467283614c11565b82815260059290921b84018101918181019086841115614f0757600080fd5b8286015b84811015614c8f5780518352918301918301614f0b565b60008060408385031215614f3557600080fd5b8251614f40816147da565b60208401519092506001600160401b03811115614f5c57600080fd5b614d5185828601614ec7565b6001600160a01b0392831681529116602082015260400190565b6001600160a01b039586168152602081019490945260408401929092526060830152909116608082015260a00190565b60008060408385031215614fc557600080fd5b8251614fd0816147da565b6020840151909250614d80816147da565b8060005b60028110156118585781516001600160a01b0316845260209384019390910190600101614fe5565b8881526101208101615022602083018a614fe1565b606082019790975260808101959095526001600160a01b039390931660a085015290151560c084015260e083015215156101009091015292915050565b60006020828403121561507157600080fd5b81516001600160401b0381111561508757600080fd5b61222684828501614ec7565b818103818111156108e1576108e1614dfa565b634e487b7160e01b600052603260045260246000fd5b600082601f8301126150cd57600080fd5b815160206150dd61467283614c11565b82815260059290921b840181019181810190868411156150fc57600080fd5b8286015b84811015614c8f578051615113816145ce565b8352918301918301615100565b600082601f83011261513157600080fd5b8151602061514161467283614c11565b82815260059290921b8401810191818101908684111561516057600080fd5b8286015b84811015614c8f578051615177816147da565b8352918301918301615164565b6000806000806080858703121561519a57600080fd5b84516001600160401b03808211156151b157600080fd5b6151bd888389016150bc565b95506020915081870151818111156151d457600080fd5b8701601f810189136151e557600080fd5b80516151f361467282614c11565b81815260059190911b8201840190848101908b83111561521257600080fd5b928501925b8284101561523957835161522a81614b2e565b82529285019290850190615217565b60408b015190985094505050508082111561525357600080fd5b61525f88838901614ec7565b9350606087015191508082111561527557600080fd5b506147ce87828801615120565b600181811c9082168061529657607f821691505b6020821081036152b657634e487b7160e01b600052602260045260246000fd5b50919050565b83815260406020820152816040820152818360608301376000818301606090810191909152601f909201601f1916010192915050565b82815260a081016145c76020830184614e23565b60006020828403121561531857600080fd5b81516145c7816147da565b60006020828403121561533557600080fd5b81516145c7816145ce565b8881526101e08101615355602083018a614fe1565b8760020b60608301528660020b608083015260018060a01b03861660a083015284151560c083015260808460e08401376080836101608401379998505050505050505050565b60006153a96146728461462c565b90508281528383830111156153bd57600080fd5b6145c7836020830184614999565b6000602082840312156153dd57600080fd5b81516001600160401b038111156153f357600080fd5b8201601f8101841361540457600080fd5b6122268482516020840161539b565b82815260406020820152600061542c60408301846149bd565b949350505050565b86815260c06020820152600061544d60c08301886149bd565b828103604084015261545f818861484f565b6001600160a01b0396871660608501529490951660808301525060a00152949350505050565b6000806040838503121561549857600080fd5b82516154a3816145ce565b6020939093015192949293505050565b634e487b7160e01b600052602160045260246000fd5b82815260408101600483106154ee57634e487b7160e01b600052602160045260246000fd5b8260208301529392505050565b600081518084526020808501945080840160005b8381101561487f5781516001600160a01b03168752958201959082019060010161550f565b60808152600061554760808301876154fb565b8281036020840152615559818761484f565b604084019590955250506001600160a01b039190911660609091015292915050565b6001600160a01b038616815260a06020820181905260009061559f908301876154fb565b82810360408401526155b181876154fb565b905082810360608401526155c5818661484f565b905082810360808401526155d9818561484f565b98975050505050505050565b600080604083850312156155f857600080fd5b82516001600160401b038082111561560f57600080fd5b61561b868387016150bc565b9350602085015191508082111561563157600080fd5b50614d5185828601614ec7565b80820281158282048414176108e1576108e1614dfa565b60008261567257634e487b7160e01b600052601260045260246000fd5b500490565b6020815260006145c7602083018461484f565b600060018060a01b03808916835280881660208401525085604083015284606083015283608083015260c060a08301526155d960c08301846154fb565b6020808252602b908201527f496e697469616c697a61626c653a20636f6e7472616374206973206e6f74206960408201526a6e697469616c697a696e6760a81b606082015260800190565b604081526000615725604083018561484f565b82810360208401526148e1818561484f565b82815260406020820152600061542c604083018461484f565b6000806040838503121561576357600080fd5b82516001600160401b0381111561577957600080fd5b61578585828601614ec7565b925050602083015190509250929050565b6000806000606084860312156157ab57600080fd5b83516001600160401b03808211156157c257600080fd5b6157ce878388016150bc565b945060208601519150808211156157e457600080fd5b6157f087838801614ec7565b9350604086015191508082111561580657600080fd5b5061581386828701614ec7565b9150509250925092565b6001600160a01b03858116825284166020820152608060408201819052600090615849908301856154fb565b828103606084015261498e818561484f565b6000806040838503121561586e57600080fd5b505080516020909101519092909150565b878152600060018060a01b03808916602084015260e060408401526158a760e08401896154fb565b606084019790975294909416608082015260a081019290925260c090910152509392505050565b600080604083850312156158e157600080fd5b8251915060208301516001600160401b03811115614f5c57600080fd5b6001600160a01b0389168152610100602082018190526000906159238382018b6154fb565b9050886040840152828103606084015261593d818961484f565b90508660808401528560a084015282810360c084015261595d818661484f565b905082810360e0840152615971818561484f565b9b9a5050505050505050505050565b6000806040838503121561599357600080fd5b82516001600160401b03808211156159aa57600080fd5b61561b86838701614ec7565b6001600160a01b03851681526080602082018190526000906159da908301866154fb565b846040840152828103606084015261498e818561484f565b6000610100808352615a068184018c6154fb565b90508960208401528281036040840152615a20818a61484f565b6001600160a01b0389811660608601528816608085015260a0840187905283810360c08501529050615a52818661484f565b9150508260e08301529998505050505050505050565b878152600060018060a01b03808916602084015260e06040840152615a9060e08401896154fb565b818816606085015286608085015283810360a0850152615ab081876154fb565b91505082810360c0840152615ac5818561484f565b9a9950505050505050505050565b6001600160a01b0387811682526020820187905285811660408301528416606082015260c060808201819052600090615b0e908301856149bd565b90508260a083015297965050505050505056fea264697066735822122076589eecedce2d63179db089744959244c6d9abd81b96d16ed3fe219c6d8b53764736f6c63430008110033",
  "deployedBytecode": "0x608060405234801561001057600080fd5b50600436106103645760003560e01c80636b5fba5a116101c95780639d0bcca0116100ff578063cd4c8156116100ad578063dee1f0e41161007c578063dee1f0e4146107e0578063f77c4791146107f3578063fe26565c146107fb578063ffb86c6a1461080e57600080fd5b8063cd4c815614610790578063ceee861d146107a1578063d295ea70146107c5578063de3d047c146107cd57600080fd5b80639d0bcca0146106e0578063a3f4df7e146106e8578063ab9e3eee1461071f578063b245755614610727578063b429afeb1461073a578063b77c975b1461074d578063bd38837b1461077f57600080fd5b80637eba7ba61161017757806387c7f7701161014657806387c7f77014610683578063936725ec1461069657806394b8aa17146106ba57806396b7b14e146106cd57600080fd5b80637eba7ba61461063d5780637efc77fa1461064f57806380e7ac7c14610673578063877887821461067b57600080fd5b80636b5fba5a146105b05780636ffb4c8e146105c35780637063a237146105d657806371ee0175146105e957806373a50ef5146105f157806378327438146106155780637cc963801461063557600080fd5b80634ba31b011161029e578063546799631161024c5780636207a0cf1161021b5780636207a0cf1461055357806363e277341461057757806365f50a8d1461058a578063693b134a1461059d57600080fd5b806354679963146105085780635641ec031461051d578063569c39cb146105255780635cfc1a511461054957600080fd5b80634ba31b01146104875780634e71d92d1461048f5780634fa5d854146104975780634fac6ccd146104b457806351e03fbe146104c757806352bbbb74146104da5780635412335d146104f057600080fd5b80632221eb3c1161031657806338d52e0f116102e557806338d52e0f1461044c5780633cd8045e146104665780634593144c146104775780634ad0b6841461047f57600080fd5b80632221eb3c14610421578063261efa1214610434578063325a19f11461043c57806333c5b58e1461044457600080fd5b806301e1d1141461036957806301ffc9a714610384578063066a6fc3146103a75780630acd12c7146103ba5780630e30428d146103c2578063150b7a02146103d75780631d2dca9e1461040e575b600080fd5b610371610816565b6040519081526020015b60405180910390f35b61039761039236600461459d565b6108a1565b604051901515815260200161037b565b6103976103b53660046146a9565b6108e7565b610371610a47565b6103d56103d0366004614743565b610b69565b005b6103f56103e536600461476f565b630a85bd0160e11b949350505050565b6040516001600160e01b0319909116815260200161037b565b6103d561041c3660046147e8565b610c0d565b6103d561042f366004614805565b610e09565b604a54610371565b610371610e7f565b610371610eaf565b6046546001600160a01b03165b60405161037b919061481e565b6047546001600160a01b0316610459565b610371610f27565b607954610371565b610371610f57565b6103d5610fce565b61049f611048565b6040805192835260208301919091520161037b565b6103d56104c2366004614832565b6110b6565b6103716104d5366004614805565b6111e8565b6104e26113b0565b60405161037b9291906148bc565b6104f86116a0565b60405161037b94939291906148ea565b61051061172f565b60405161037b91906149e9565b6103d56117c4565b610510604051806040016040528060058152602001640312e302e360dc1b81525081565b600160ff1b610371565b61051060405180604001604052806005815260200164322e302e3160d81b81525081565b6103d56105853660046149fc565b61185e565b6103d5610598366004614805565b61193c565b6103d56105ab366004614a6d565b611a0a565b6103d56105be366004614832565b611aca565b6103d56105d1366004614805565b611b5b565b6103d56105e4366004614af6565b611be3565b607b54610371565b610510604051806040016040528060058152602001640332e302e360dc1b81525081565b610371610623366004614832565b60786020526000908152604090205481565b610371611c81565b61037161064b366004614805565b5490565b6105106040518060400160405280600581526020016425bcb132b960d91b81525081565b610397611cb1565b604954610371565b610371610691366004614743565b611d37565b61051060405180604001604052806005815260200164332e302e3160d81b81525081565b6103d56106c8366004614b4e565b611d7c565b6103d56106db366004614c9a565b612092565b610459612137565b610510604051806040016040528060188152602001774b7962657220436f6e76657274657220537472617465677960401b81525081565b610397612167565b610371610735366004614d5b565b612181565b610397610748366004614832565b612230565b61076061075b366004614d8b565b612255565b604080516001600160a01b03909316835260208301919091520161037b565b607a546001600160a01b0316610459565b6048546001600160a01b0316610459565b61051060405180604001604052806005815260200164322e302e3360d81b81525081565b604b54610371565b6103d56107db366004614805565b612347565b6103976107ee366004614832565b6123d2565b610459612457565b6103d5610809366004614dbf565b612487565b610397612558565b600061082160795490565b6046546040516370a0823160e01b81526001600160a01b03909116906370a082319061085190309060040161481e565b602060405180830381865afa15801561086e573d6000803e3d6000fd5b505050506040513d601f19601f820116820180604052508101906108929190614de1565b61089c9190614e10565b905090565b60006001600160e01b03198216631e94dddf60e01b14806108d257506001600160e01b0319821663f73147b360e01b145b806108e157506108e182612675565b92915050565b60008060006108f461269a565b91509150606073__$0dcf4453b1418804c305d2bbf5bd62b729$__632aed8d416040518060a001604052808d6001600160a01b03166001600160a01b031681526020018c6001600160a01b03166001600160a01b03168152602001610957612457565b6001600160a01b039081168252607a54811660208084019190915260475490911660409283015281516080810183528d8152908101889052808201879052606081018a905290516001600160e01b031960e085901b1681526109c79291908c908c90600190607890600401614e46565b600060405180830381865af41580156109e4573d6000803e3d6000fd5b505050506040513d6000823e601f3d908101601f19168201604052610a0c9190810190614f22565b9094509050610a1a8161274c565b6000601155838015610a2f5750610a2f61277b565b15610a3a5760016010555b5050509695505050505050565b604754604654604051633e53813360e11b81526000926001600160a01b03908116921690839073__$7dde4232fad0cb3c495beb9e735b7d0c63$__90637ca7026690610a999086908690600401614f68565b602060405180830381865af4158015610ab6573d6000803e3d6000fd5b505050506040513d601f19601f82011682018060405250810190610ada9190614de1565b90506000806000610ae96127a3565b92509250925073__$7dde4232fad0cb3c495beb9e735b7d0c63$__639ad00ec2868686868b6040518663ffffffff1660e01b8152600401610b2e959493929190614f82565b60006040518083038186803b158015610b4657600080fd5b505af4158015610b5a573d6000803e3d6000fd5b50929998505050505050505050565b73__$8f1afe7577f9ab973017c74eca19b86f3c$__63142395ef610b8b612457565b6040516001600160e01b031960e084901b1681526001600160a01b03918216600482015290851660248201526044810184905260640160006040518083038186803b158015610bd957600080fd5b505af4158015610bed573d6000803e3d6000fd5b5050506001600160a01b0390921660009081526078602052604090205550565b6000610c17612457565b60405163124fdbb760e21b815290915073__$7dde4232fad0cb3c495beb9e735b7d0c63$__9063493f6edc90610c5190849060040161481e565b60006040518083038186803b158015610c6957600080fd5b505af4158015610c7d573d6000803e3d6000fd5b50506040516304de78eb60e11b8152600160048201526000925082915073__$0dcf4453b1418804c305d2bbf5bd62b729$__906309bcf1d6906024016040805180830381865af4158015610cd5573d6000803e3d6000fd5b505050506040513d601f19601f82011682018060405250810190610cf99190614fb2565b915091508180610d065750805b15610d1057600093505b600080610d1b61269a565b60408051808201909152607a546001600160a01b03168152919350915060009073__$0dcf4453b1418804c305d2bbf5bd62b729$__90638aa04c469060019060208101610d678b6127be565b6001600160a01b0390811690915260475487918991168d60788d80610d8957508c5b6040518963ffffffff1660e01b8152600401610dac98979695949392919061500d565b600060405180830381865af4158015610dc9573d6000803e3d6000fd5b505050506040513d6000823e601f3d908101601f19168201604052610df1919081019061505f565b9050610dfc8161274c565b5050426011555050505050565b73__$7dde4232fad0cb3c495beb9e735b7d0c63$__63493f6edc610e2b612457565b6040518263ffffffff1660e01b8152600401610e47919061481e565b60006040518083038186803b158015610e5f57600080fd5b505af4158015610e73573d6000803e3d6000fd5b50505060109190915550565b600061089c61064b60017f6f55f470bdc9cb5f04223fd822021061668e4dccb43e8727b295106dc9769c8b615093565b600073__$7dde4232fad0cb3c495beb9e735b7d0c63$__63493f6edc610ed3612457565b6040518263ffffffff1660e01b8152600401610eef919061481e565b60006040518083038186803b158015610f0757600080fd5b505af4158015610f1b573d6000803e3d6000fd5b5050505061089c612822565b600061089c61064b60017f812a673dfca07956350df10f8a654925f561d7a0da09bdbe79e653939a14d9f1615093565b604051630a3c2bb160e21b81526001600482015260009073__$0dcf4453b1418804c305d2bbf5bd62b729$__906328f0aec490602401602060405180830381865af4158015610faa573d6000803e3d6000fd5b505050506040513d601f19601f8201168201806040525081019061089c9190614de1565b73__$7dde4232fad0cb3c495beb9e735b7d0c63$__63d19cc38a610ff0612457565b6040518263ffffffff1660e01b815260040161100c919061481e565b60006040518083038186803b15801561102457600080fd5b505af4158015611038573d6000803e3d6000fd5b5050505061104461294f565b5050565b60475460408051808201909152600a81526914d08e8811195b9a595960b21b60208201526000918291906001600160a01b031633146110a35760405162461bcd60e51b815260040161109a91906149e9565b60405180910390fd5b506110ae6001612a0b565b915091509091565b3330146111055760405162461bcd60e51b815260206004820152601b60248201527f496e637265617365207265766973696f6e20666f7262696464656e0000000000604482015260640161109a565b600061113561064b60017f22573091f17911fb166032a3d9e0554aa73d31b7b7ddea4a4dd2995650af84bd615093565b611140906001614e10565b90506111748161117160017f22573091f17911fb166032a3d9e0554aa73d31b7b7ddea4a4dd2995650af84bd615093565b55565b6111a38261117160017fbfaaa2fb63266ff27c2da975f5894955056f50419af651a81f6c5060581857e4615093565b604080518281526001600160a01b03841660208201527ff27e2ef832a4eb8ed8ec553b875eecd44764cda95b1c24170e281539e0a869c8910160405180910390a15050565b604754604654604051633e53813360e11b81526000926001600160a01b03908116921690839073__$7dde4232fad0cb3c495beb9e735b7d0c63$__90637ca702669061123a9086908690600401614f68565b602060405180830381865af4158015611257573d6000803e3d6000fd5b505050506040513d601f19601f8201168201806040525081019061127b9190614de1565b9050808511156113275760008061129a6112958489615093565b612b5a565b604051631594b05b60e01b8152909850919350915073__$7dde4232fad0cb3c495beb9e735b7d0c63$__90631594b05b906112e19087908790879087908c90600401614f82565b602060405180830381865af41580156112fe573d6000803e3d6000fd5b505050506040513d601f19601f820116820180604052508101906113229190614de1565b925050505b6040516333bbb20360e11b815260048101869052602481018290526001600160a01b0380841660448301528416606482015273__$7dde4232fad0cb3c495beb9e735b7d0c63$__9063677764069060840160006040518083038186803b15801561139057600080fd5b505af41580156113a4573d6000803e3d6000fd5b50505050505050919050565b6002546040805160038082526080820190925260609283926001600160a01b03909116919060208201848036833750506003546040516370a0823160e01b81529295506001600160a01b0316916370a08231915061141290849060040161481e565b602060405180830381865afa15801561142f573d6000803e3d6000fd5b505050506040513d601f19601f820116820180604052508101906114539190614de1565b83600081518110611466576114666150a6565b6020908102919091010152600480546040516370a0823160e01b81526001600160a01b03909116916370a08231916114a09185910161481e565b602060405180830381865afa1580156114bd573d6000803e3d6000fd5b505050506040513d601f19601f820116820180604052508101906114e19190614de1565b836001815181106114f4576114f46150a6565b60209081029190910101526040516370a0823160e01b8152731c954e8fe737f99f68fa1ccda3e51ebdb291948c906370a082319061153690849060040161481e565b602060405180830381865afa158015611553573d6000803e3d6000fd5b505050506040513d601f19601f820116820180604052508101906115779190614de1565b8360028151811061158a5761158a6150a6565b602090810291909101015260408051600380825260808201909252908160200160208202803683375050601454825192945060ff16918491506000906115d2576115d26150a6565b911515602092830291909101909101526040516304de78eb60e11b81526001600482015273__$0dcf4453b1418804c305d2bbf5bd62b729$__906309bcf1d6906024016040805180830381865af4158015611631573d6000803e3d6000fd5b505050506040513d601f19601f820116820180604052508101906116559190614fb2565b83600181518110611668576116686150a6565b6020026020010184600281518110611682576116826150a6565b60200260200101821515151581525082151515158152505050509091565b604051636e81b62960e01b81526001600482015260609081908190819073__$b1ba452cecccdd06eb05ace2d0a762c7e1$__90636e81b62990602401600060405180830381865af41580156116f9573d6000803e3d6000fd5b505050506040513d6000823e601f3d908101601f191682016040526117219190810190615184565b935093509350935090919293565b60606046600601805461174190615282565b80601f016020809104026020016040519081016040528092919081815260200182805461176d90615282565b80156117ba5780601f1061178f576101008083540402835291602001916117ba565b820191906000526020600020905b81548152906001019060200180831161179d57829003601f168201915b5050505050905090565b6117cc612b8b565b73__$7dde4232fad0cb3c495beb9e735b7d0c63$__63bd0206826117ee612457565b60465460475460405160e085901b6001600160e01b03191681526001600160a01b039384166004820152918316602483015291909116604482015260640160006040518083038186803b15801561184457600080fd5b505af4158015611858573d6000803e3d6000fd5b50505050565b73__$7dde4232fad0cb3c495beb9e735b7d0c63$__63493f6edc611880612457565b6040518263ffffffff1660e01b815260040161189c919061481e565b60006040518083038186803b1580156118b457600080fd5b505af41580156118c8573d6000803e3d6000fd5b5050604051637fc1c15b60e01b815273__$7dde4232fad0cb3c495beb9e735b7d0c63$__9250637fc1c15b915061190890604690869086906004016152bc565b60006040518083038186803b15801561192057600080fd5b505af4158015611934573d6000803e3d6000fd5b505050505050565b73__$7dde4232fad0cb3c495beb9e735b7d0c63$__63493f6edc61195e612457565b6040518263ffffffff1660e01b815260040161197a919061481e565b60006040518083038186803b15801561199257600080fd5b505af41580156119a6573d6000803e3d6000fd5b50506014546040805180820190915260208082527f4b532d3134204c6971756964697479206d75737420626520756e7374616b656490820152925060ff16159050611a045760405162461bcd60e51b815260040161109a91906149e9565b50601355565b73__$7dde4232fad0cb3c495beb9e735b7d0c63$__63493f6edc611a2c612457565b6040518263ffffffff1660e01b8152600401611a48919061481e565b60006040518083038186803b158015611a6057600080fd5b505af4158015611a74573d6000803e3d6000fd5b5073__$79fe6ec7a3db45dafbed12dca1c6dad764$__9250630593c4c99150600690508460028110611aa857611aa86150a6565b60050201836040518363ffffffff1660e01b81526004016119089291906152f2565b73__$7dde4232fad0cb3c495beb9e735b7d0c63$__63493f6edc611aec612457565b6040518263ffffffff1660e01b8152600401611b08919061481e565b60006040518083038186803b158015611b2057600080fd5b505af4158015611b34573d6000803e3d6000fd5b5050600280546001600160a01b0319166001600160a01b0394909416939093179092555050565b73__$8f1afe7577f9ab973017c74eca19b86f3c$__63d2c3cf25611b7d612457565b6040516001600160e01b031960e084901b1681526001600160a01b0390911660048201526024810184905260440160006040518083038186803b158015611bc357600080fd5b505af4158015611bd7573d6000803e3d6000fd5b505050607b9190915550565b73__$7dde4232fad0cb3c495beb9e735b7d0c63$__63ed6b63c16046858585611c0a612457565b6040516001600160e01b031960e088901b168152600481019590955260248501939093526001600160a01b039182166044850152606484015216608482015260a40160006040518083038186803b158015611c6457600080fd5b505af4158015611c78573d6000803e3d6000fd5b50505050505050565b600061089c61064b60017f22573091f17911fb166032a3d9e0554aa73d31b7b7ddea4a4dd2995650af84bd615093565b601354604051639ee0b2a960e01b815260009173__$0dcf4453b1418804c305d2bbf5bd62b729$__91639ee0b2a991611cf09160040190815260200190565b602060405180830381865af4158015611d0d573d6000803e3d6000fd5b505050506040513d601f19601f82011682018060405250810190611d319190615306565b15905090565b60408051808201825260158152741514cb4c8e081b9bdd081a5b5c1b195b595b9d1959605a1b6020820152905162461bcd60e51b815260009161109a916004016149e9565b600054610100900460ff1615808015611d9c5750600054600160ff909116105b80611db65750303b158015611db6575060005460ff166001145b611e195760405162461bcd60e51b815260206004820152602e60248201527f496e697469616c697a61626c653a20636f6e747261637420697320616c72656160448201526d191e481a5b9a5d1a585b1a5e995960921b606482015260840161109a565b6000805460ff191660011790558015611e3c576000805461ff0019166101001790555b611e478b8b8b612c97565b73__$0dcf4453b1418804c305d2bbf5bd62b729$__63d0290dfa600160405180604001604052808f6001600160a01b03166001600160a01b031681526020018c6001600160a01b03166001600160a01b03168152508a8a8f6001600160a01b03166338d52e0f6040518163ffffffff1660e01b8152600401602060405180830381865afa158015611edc573d6000803e3d6000fd5b505050506040513d601f19601f82011682018060405250810190611f009190615323565b8b8a8a6040518963ffffffff1660e01b8152600401611f26989796959493929190615340565b60006040518083038186803b158015611f3e57600080fd5b505af4158015611f52573d6000803e3d6000fd5b50505060138590555060405163bd85be2960e01b81526001600482015273__$7dde4232fad0cb3c495beb9e735b7d0c63$__90637fc1c15b9060469073__$0dcf4453b1418804c305d2bbf5bd62b729$__9063bd85be2990602401600060405180830381865af4158015611fca573d6000803e3d6000fd5b505050506040513d6000823e601f3d908101601f19168201604052611ff291908101906153cb565b6040518363ffffffff1660e01b815260040161200f929190615413565b60006040518083038186803b15801561202757600080fd5b505af415801561203b573d6000803e3d6000fd5b505050508015612085576000805461ff0019169055604051600181527f7f26b83ff96e1f2b6a682f133852f6798a09c465da95921460cefb38474024989060200160405180910390a15b5050505050505050505050565b607a5460408051808201909152600a81526914d08e8811195b9a595960b21b6020820152906001600160a01b031633146120df5760405162461bcd60e51b815260040161109a91906149e9565b5080518251146040518060400160405280600d81526020016c54532d3139206c656e6774687360981b815250906121295760405162461bcd60e51b815260040161109a91906149e9565b50612132612d39565b505050565b600061089c61064b60017fbfaaa2fb63266ff27c2da975f5894955056f50419af651a81f6c5060581857e4615093565b6000612171612558565b15801561089c5750611d3161277b565b6047546046546040516001625acc3160e01b03198152600092839273__$7dde4232fad0cb3c495beb9e735b7d0c63$__9263ffa533cf926121d3926001600160a01b0391821692911690600401614f68565b602060405180830381865af41580156121f0573d6000803e3d6000fd5b505050506040513d601f19601f820116820180604052508101906122149190614de1565b90508015612229576122268184612d4d565b91505b5092915050565b600061223a612457565b6001600160a01b0316826001600160a01b0316149050919050565b6005546000908190630100000090046001600160801b03168181156122825761227d82612df1565b6122a0565b60408051600280825260608201835290916020830190803683375050505b905073__$b1ba452cecccdd06eb05ace2d0a762c7e1$__6350d2e0ba600187846122c8612457565b607a546040516001600160e01b031960e088901b1681526122fc95949392916001600160a01b031690607890600401615434565b6040805180830381865af4158015612318573d6000803e3d6000fd5b505050506040513d601f19601f8201168201806040525081019061233c9190615485565b935093505050915091565b73__$7dde4232fad0cb3c495beb9e735b7d0c63$__636d51f043604661236b612457565b6040516001600160e01b031960e085901b16815260048101929092526001600160a01b031660248201526044810184905260640160006040518083038186803b1580156123b757600080fd5b505af41580156123cb573d6000803e3d6000fd5b5050505050565b6000816001600160a01b03166123e6612457565b6001600160a01b0316635aa6e6756040518163ffffffff1660e01b8152600401602060405180830381865afa158015612423573d6000803e3d6000fd5b505050506040513d601f19601f820116820180604052508101906124479190615323565b6001600160a01b03161492915050565b600061089c61064b60017f5165972ef41194f06c5007493031d0b927c20741adcb74403b954009fd2c3618615093565b73__$7dde4232fad0cb3c495beb9e735b7d0c63$__63493f6edc6124a9612457565b6040518263ffffffff1660e01b81526004016124c5919061481e565b60006040518083038186803b1580156124dd57600080fd5b505af41580156124f1573d6000803e3d6000fd5b5073__$79fe6ec7a3db45dafbed12dca1c6dad764$__9250636bffb3469150600690508460028110612525576125256150a6565b6005020183600381111561253b5761253b6154b3565b6040518363ffffffff1660e01b81526004016119089291906154c9565b6040516304de78eb60e11b8152600160048201526000908190819073__$0dcf4453b1418804c305d2bbf5bd62b729$__906309bcf1d6906024016040805180830381865af41580156125ae573d6000803e3d6000fd5b505050506040513d601f19601f820116820180604052508101906125d29190614fb2565b607a54604051633934e59d60e11b8152600160048201526001600160a01b039091166024820152919350915073__$0dcf4453b1418804c305d2bbf5bd62b729$__90637269cb3a90604401602060405180830381865af415801561263a573d6000803e3d6000fd5b505050506040513d601f19601f8201168201806040525081019061265e9190615306565b806126665750815b8061266e5750805b9250505090565b60006001600160e01b0319821663c19fa56160e01b14806108e157506108e182612e7c565b6000806126a76001612eb1565b92508290506126b4610816565b6126be9190615093565b604051637ed25b6f60e01b81526001600482015290915073__$0dcf4453b1418804c305d2bbf5bd62b729$__90637ed25b6f9060240160006040518083038186803b15801561270c57600080fd5b505af4158015612720573d6000803e3d6000fd5b5050600554630100000090046001600160801b0316159150612748905057612746612f5e565b505b9091565b80516002148015612762575061276061277b565b155b156127735761277081612fe3565b50505b611044612d39565b60006127916006825b600502015460ff16613070565b8061089c575061089c60066001612784565b60008060006127b3600019612b5a565b925092509250909192565b6000816001600160a01b0316634046ebae6040518163ffffffff1660e01b8152600401602060405180830381865afa1580156127fe573d6000803e3d6000fd5b505050506040513d601f19601f820116820180604052508101906108e19190615323565b6046546000908190819061283e906001600160a01b031661308d565b91509150600061285e6005546001600160801b0363010000009091041690565b905073__$8f1afe7577f9ab973017c74eca19b86f3c$__63c9bce69084831561288f5761288a84612df1565b6128d3565b85516001600160401b038111156128a8576128a86145e6565b6040519080825280602002602001820160405280156128d1578160200160208202803683370190505b505b607a546040516001600160e01b031960e086901b16815261290693929188916001600160a01b0390911690600401615534565b602060405180830381865af4158015612923573d6000803e3d6000fd5b505050506040513d601f19601f820116820180604052508101906129479190614de1565b935050505090565b606080600080600061295f6130f9565b607a54929550909350915073__$8f1afe7577f9ab973017c74eca19b86f3c$__9063e99de4da906001600160a01b031661299761317f565b8686866040518663ffffffff1660e01b81526004016129ba95949392919061557b565b600060405180830381865af41580156129d7573d6000803e3d6000fd5b505050506040513d6000823e601f3d908101601f191682016040526129ff91908101906155e5565b90969095509350505050565b600080600080612a1b6001612eb1565b91509150612a2885613213565b612b4d576000612a366132c6565b919650945090506000612a89878015612a4e57508415155b8015612a755750607b54620186a090612a6890879061563e565b612a729190615655565b83115b612a80576000612a82565b825b8486613391565b91506000905080612ad0612a9d8588614e10565b6046548590612ab4906001600160a01b03166135c5565b607954612ac19190614e10565b612acb9190614e10565b613635565b915091506040805187815260208101879052908101899052606081018890526080810183905260a081018290527f3e9abbc366dbf9fe260e2640c06eefbedd7720cf986ae553374e46b804f4ff559060c00160405180910390a1612b348289614e10565b612b3e8289614e10565b97509750505050505050915091565b5060009485945092505050565b6000806000806000612b6c6001612eb1565b91509150612b7b868284613665565b5091989097509095509350505050565b6000612b95612f5e565b90507f768a28cb3459382a3d2173feb2dad0235f8de680b109872da581a3aa269fe5f481604051612bc69190615677565b60405180910390a16046546000908190612be8906001600160a01b031661308d565b607a54919350915073__$e930d50fb5f4f1298547dbcb2bb0591990$__906358b54f16906001600160a01b0316612c25612c20612457565b6127be565b846078600019886040518763ffffffff1660e01b8152600401612c4d9695949392919061568a565b602060405180830381865af4158015612c6a573d6000803e3d6000fd5b505050506040513d601f19601f82011682018060405250810190612c8e9190614de1565b50611858612d39565b600054610100900460ff16612cbe5760405162461bcd60e51b815260040161109a906156c7565b612cc88383613d3f565b607a80546001600160a01b0319166001600160a01b038316179055612cf16064620186a0615655565b607b557fe4166dfcf23bbd3e3f764a99dc8fa740554c03c82d6019b81cf265f396f6f2fe612d236064620186a0615655565b60405190815260200160405180910390a1505050565b6000612d43612822565b6079819055919050565b6000612d5761277b565b15612de0576040805160028082526060820183526000926020830190803683370190505090508381600081518110612d9157612d916150a6565b6020026020010181815250507f59400c8c523464b521238ea8f50e923f2bc64663557e6afec92a97f7efe92d058182604051612dce929190615712565b60405180910390a160009150506108e1565b612dea8383613de8565b90506108e1565b60405163a7aced0960e01b8152600160048201526001600160801b038216602482015260609073__$0dcf4453b1418804c305d2bbf5bd62b729$__9063a7aced09906044015b600060405180830381865af4158015612e54573d6000803e3d6000fd5b505050506040513d6000823e601f3d908101601f191682016040526108e1919081019061505f565b60006001600160e01b0319821663b7b79fa960e01b14806108e157506301ffc9a760e01b6001600160e01b03198316146108e1565b6000808215612f5257607954612ec5612d39565b6040516371253f5960e11b815260048101839052602481018290526046604482015290935073__$8f1afe7577f9ab973017c74eca19b86f3c$__9063e24a7eb290606401602060405180830381865af4158015612f26573d6000803e3d6000fd5b505050506040513d601f19601f82011682018060405250810190612f4a9190614de1565b915050915091565b50506079546000915091565b60606000612f7c6005546001600160801b0363010000009091041690565b90508015612f9257612f8d81613e0f565b612fdd565b612f9a61317f565b516001600160401b03811115612fb257612fb26145e6565b604051908082528060200260200182016040528015612fdb578160200160208202803683370190505b505b91505090565b6060600073__$0dcf4453b1418804c305d2bbf5bd62b729$__6374287da16001856040518363ffffffff1660e01b8152600401613021929190615737565b600060405180830381865af415801561303e573d6000803e3d6000fd5b505050506040513d6000823e601f3d908101601f191682016040526130669190810190615750565b9094909350915050565b60006001826003811115613086576130866154b3565b1192915050565b6060600061309961317f565b91506130a58284613e59565b90506000198114156040518060400160405280600f81526020016e53423a2057726f6e672076616c756560881b815250906130f35760405162461bcd60e51b815260040161109a91906149e9565b50915091565b604051637e41e84960e01b815260016004820181905260248201526060908190819073__$0dcf4453b1418804c305d2bbf5bd62b729$__90637e41e84990604401600060405180830381865af4158015613157573d6000803e3d6000fd5b505050506040513d6000823e601f3d908101601f191682016040526127b39190810190615796565b6040805160028082526060808301845292602083019080368337505060035482519293506001600160a01b0316918391506000906131bf576131bf6150a6565b6001600160a01b0392831660209182029290920101526004548251911690829060019081106131f0576131f06150a6565b60200260200101906001600160a01b031690816001600160a01b03168152505090565b600061321d612558565b15604051806040016040528060138152602001724b532d31204e65656420726562616c616e636560681b815250906132685760405162461bcd60e51b815260040161109a91906149e9565b5061327161277b565b15604051806040016040528060148152602001734b532d313420467573652069732061637469766560601b815250906132bd5760405162461bcd60e51b815260040161109a91906149e9565b50600092915050565b604654600090819081906001600160a01b031681806132e361294f565b9150915073__$0dcf4453b1418804c305d2bbf5bd62b729$__6334d2ec3d8461330a612457565b85856040518563ffffffff1660e01b815260040161332b949392919061581d565b602060405180830381865af4158015613348573d6000803e3d6000fd5b505050506040513d601f19601f8201168201806040525081019061336c9190614de1565b95506133788282613eb7565b8585613383856135c5565b955095509550505050909192565b60465460009081906001600160a01b0316818587116133b15760006133bb565b6133bb8688615093565b90506000620186a0866079600201546133d4919061563e565b6133de9190615655565b8211905060006133ed846135c5565b6001600160a01b03851660009081526078602052604090205490915061341290613f64565b8811156134fa5781806134255750878110155b156134e65760475473__$8f1afe7577f9ab973017c74eca19b86f3c$__9063aac2718a9086908b906001600160a01b0316613460868d614e10565b6040516001600160e01b031960e087901b1681526001600160a01b03948516600482015260248101939093529216604482015260648101919091526084016040805180830381865af41580156134ba573d6000803e3d6000fd5b505050506040513d601f19601f820116820180604052508101906134de919061585b565b5094506134fa565b6134f260008989613665565b909850965050505b81156135b95760008061350c8661308d565b607a54919350915060009061352c906001600160a01b0316878585613f7c565b905061353781614134565b61358457600061354682612fe3565b5090507f59400c8c523464b521238ea8f50e923f2bc64663557e6afec92a97f7efe92d05828260405161357a929190615712565b60405180910390a1505b600061358e612d39565b90506135b161359d868d614e10565b8a6135a78b6135c5565b612ac19085614e10565b9a5050505050505b50505050935093915050565b6040516370a0823160e01b81526000906001600160a01b038316906370a08231906135f490309060040161481e565b602060405180830381865afa158015613611573d6000803e3d6000fd5b505050506040513d601f19601f820116820180604052508101906108e19190614de1565b600080838311156136515761364a8484615093565b915061365e565b61365b8385615093565b90505b9250929050565b60008060008061367487614180565b61370f604051806102200160405280600015158152602001606081526020016000815260200160008152602001600081526020016000815260200160608152602001600081526020016060815260200160008152602001600081526020016060815260200160006001600160a01b0316815260200160008152602001600081526020016060815260200160006001600160a01b031681525090565b60001988148082528061372a57506137278789614e10565b15155b801561373557508515155b15613d265761374261317f565b61016082018190526046546001600160a01b039081166101808401819052607a549091166102008401526137769190613e59565b6101a082015261018081015161378b906135c5565b6101c08201526137996141d3565b6020820152600554630100000090046001600160801b03166040820152600554630100000090046001600160801b03166060820152610200810151610180820151604051637a55caf360e01b815273__$8f1afe7577f9ab973017c74eca19b86f3c$__92637a55caf39261380f92600401614f68565b602060405180830381865af415801561382c573d6000803e3d6000fd5b505050506040513d601f19601f820116820180604052508101906138509190614de1565b60a0820152805173__$8f1afe7577f9ab973017c74eca19b86f3c$__9063ec0cc4fd9061388657613881898b614e10565b613889565b60005b30846101600151856101a001518661020001518c88606001516040518863ffffffff1660e01b81526004016138c4979695949392919061587f565b600060405180830381865af41580156138e1573d6000803e3d6000fd5b505050506040513d6000823e601f3d908101601f1916820160405261390991908101906158ce565b60c08301526080820181905215613a52576139278160800151613e0f565b6101e0820152600554630100000090046001600160801b0316816060015161394f9190615093565b608082018190526101e08201516040517faebc771af58936b05e89b0be7d3f9761480181abcd4a649fbdd01753fda169709261398c929091615737565b60405180910390a173__$8f1afe7577f9ab973017c74eca19b86f3c$__637a9a23e5826102000151836101600151846101a001518560200151866080015187604001518860c00151896101e001516040518963ffffffff1660e01b81526004016139fd9897969594939291906158fe565b600060405180830381865af4158015613a1a573d6000803e3d6000fd5b505050506040513d6000823e601f3d908101601f19168201604052613a429190810190615980565b60c0830152610100820152613aee565b6102008101516101608201516101a083015160c0840151604051636138ea8560e01b815273__$8f1afe7577f9ab973017c74eca19b86f3c$__94636138ea8594613aa294919390926004016159b6565b600060405180830381865af4158015613abf573d6000803e3d6000fd5b505050506040513d6000823e601f3d908101601f19168201604052613ae7919081019061505f565b6101008201525b73__$e930d50fb5f4f1298547dbcb2bb0591990$__63f1f2b573826101600151836101a001518460c00151856102000151613b2a612c20612457565b8751613b51578d8f896101c00151613b429190614e10565b613b4c9190614e10565b613b53565b8e5b88610100015160786040518963ffffffff1660e01b8152600401613b7e9897969594939291906159f2565b602060405180830381865af4158015613b9b573d6000803e3d6000fd5b505050506040513d601f19601f82011682018060405250810190613bbf9190614de1565b8160e001818151613bd09190614e10565b9052508615613c9e576101808101516047546101c083015173__$8f1afe7577f9ab973017c74eca19b86f3c$__9263aac2718a9290918b916001600160a01b031690613c1c908c614e10565b6040516001600160e01b031960e087901b1681526001600160a01b03948516600482015260248101939093529216604482015260648101919091526084016040805180830381865af4158015613c76573d6000803e3d6000fd5b505050506040513d601f19601f82011682018060405250810190613c9a919061585b565b5091505b613ca6612d39565b610120820152610180810151613cbb906135c5565b6101408201526101c0810151613cec90613cd59088614e10565b83836101400151846101200151612ac19190614e10565b60a083015160e0840151919550670de0b6b3a76400009250613d0d9161563e565b613d179190615655565b8160a001519450945050613d36565b6000806000809450945094509450505b93509350935093565b600054610100900460ff16613d665760405162461bcd60e51b815260040161109a906156c7565b613d90817fd2de0374d4479f33e63ae5ed6ca772a10463dd883a90c612050b51fab619640061424e565b613d99826142a4565b604051631797527d60e01b8152604660048201526001600160a01b0380841660248301528216604482015273__$7dde4232fad0cb3c495beb9e735b7d0c63$__90631797527d90606401611908565b6000806000613df684612eb1565b91509150613e05858284613391565b5095945050505050565b60405163131c667560e01b8152600160048201526001600160801b038216602482015260609073__$0dcf4453b1418804c305d2bbf5bd62b729$__9063131c667590604401612e37565b8151600090815b81811015613eab57836001600160a01b0316858281518110613e8457613e846150a6565b60200260200101516001600160a01b031603613ea35791506108e19050565b600101613e60565b50600019949350505050565b81511561104457607a5473__$e930d50fb5f4f1298547dbcb2bb0591990$__9063e43fe165906046906001600160a01b0316613ef161317f565b613ef9612457565b607888886040518863ffffffff1660e01b8152600401613f1f9796959493929190615a68565b600060405180830381865af4158015613f3c573d6000803e3d6000fd5b505050506040513d6000823e601f3d908101601f19168201604052612132919081019061505f565b60008115613f7257816108e1565b620186a092915050565b6060613f86612558565b15604051806040016040528060138152602001724b532d31204e65656420726562616c616e636560681b81525090613fd15760405162461bcd60e51b815260040161109a91906149e9565b50600154600480546040516319c75b9360e31b81526001600160a01b0390931691830191909152600160c81b8104600290810b6024840152600160e01b8204900b6044830152600160a81b900460ff161515606482015260009073__$0dcf4453b1418804c305d2bbf5bd62b729$__9063ce3adc9890608401600060405180830381865af4158015614067573d6000803e3d6000fd5b505050506040513d6000823e601f3d908101601f1916820160405261408f91908101906153cb565b60035460048054604051633f14c85760e01b815293945073__$b1ba452cecccdd06eb05ace2d0a762c7e1$__93633f14c857936140e5938c938c936001600160a01b039384169390911691899160789101615ad3565b600060405180830381865af4158015614102573d6000803e3d6000fd5b505050506040513d6000823e601f3d908101601f1916820160405261412a919081019061505f565b9695505050505050565b8051600090815b8181101561417657838181518110614155576141556150a6565b602002602001015160000361416e575060019392505050565b60010161413b565b5060009392505050565b614188612558565b15604051806040016040528060138152602001724b532d31204e65656420726562616c616e636560681b815250906110445760405162461bcd60e51b815260040161109a91906149e9565b6040516347daa34760e11b81526001600482015260609073__$0dcf4453b1418804c305d2bbf5bd62b729$__90638fb5468e90602401600060405180830381865af4158015614226573d6000803e3d6000fd5b505050506040513d6000823e601f3d908101601f1916820160405261089c919081019061505f565b61425882826144c9565b6110445760405162461bcd60e51b815260206004820152601a60248201527f496e74657266616365206973206e6f7420737570706f72746564000000000000604482015260640161109a565b600054610100900460ff166142cb5760405162461bcd60e51b815260040161109a906156c7565b6001600160a01b0381166143135760405162461bcd60e51b815260206004820152600f60248201526e2d32b9379031b7b73a3937b63632b960891b604482015260640161109a565b61433d817f4c2403fdcb3cff9b705d96bf0705858e3390412670a62c8bcba611ca7e20ab8661424e565b60006001600160a01b0316816001600160a01b0316635aa6e6756040518163ffffffff1660e01b8152600401602060405180830381865afa158015614386573d6000803e3d6000fd5b505050506040513d601f19601f820116820180604052508101906143aa9190615323565b6001600160a01b0316036143f25760405162461bcd60e51b815260206004820152600f60248201526e5a65726f20676f7665726e616e636560881b604482015260640161109a565b6144218161117160017f5165972ef41194f06c5007493031d0b927c20741adcb74403b954009fd2c3618615093565b6144504261117160017f6f55f470bdc9cb5f04223fd822021061668e4dccb43e8727b295106dc9769c8b615093565b61447f4361117160017f812a673dfca07956350df10f8a654925f561d7a0da09bdbe79e653939a14d9f1615093565b604080516001600160a01b0383168152426020820152438183015290517f1a2dd071001ebf6e03174e3df5b305795a4ad5d41d8fdb9ba41dbbe2367134269181900360600190a150565b60006001600160a01b0383166145105760405162461bcd60e51b815260206004820152600c60248201526b5a65726f206164647265737360a01b604482015260640161109a565b823b60008190036145255760009150506108e1565b6040516301ffc9a760e01b81526001600160e01b0319841660048201526001600160a01b038516906301ffc9a790602401602060405180830381865afa92505050801561458f575060408051601f3d908101601f1916820190925261458c91810190615306565b60015b156141765791506108e19050565b6000602082840312156145af57600080fd5b81356001600160e01b0319811681146145c757600080fd5b9392505050565b6001600160a01b03811681146145e357600080fd5b50565b634e487b7160e01b600052604160045260246000fd5b604051601f8201601f191681016001600160401b0381118282101715614624576146246145e6565b604052919050565b60006001600160401b03821115614645576146456145e6565b50601f01601f191660200190565b600082601f83011261466457600080fd5b81356146776146728261462c565b6145fc565b81815284602083860101111561468c57600080fd5b816020850160208301376000918101602001919091529392505050565b60008060008060008060c087890312156146c257600080fd5b86356146cd816145ce565b955060208701356146dd816145ce565b94506040870135935060608701356001600160401b038082111561470057600080fd5b61470c8a838b01614653565b9450608089013591508082111561472257600080fd5b5061472f89828a01614653565b92505060a087013590509295509295509295565b6000806040838503121561475657600080fd5b8235614761816145ce565b946020939093013593505050565b6000806000806080858703121561478557600080fd5b8435614790816145ce565b935060208501356147a0816145ce565b92506040850135915060608501356001600160401b038111156147c257600080fd5b6147ce87828801614653565b91505092959194509250565b80151581146145e357600080fd5b6000602082840312156147fa57600080fd5b81356145c7816147da565b60006020828403121561481757600080fd5b5035919050565b6001600160a01b0391909116815260200190565b60006020828403121561484457600080fd5b81356145c7816145ce565b600081518084526020808501945080840160005b8381101561487f57815187529582019590820190600101614863565b509495945050505050565b600081518084526020808501945080840160005b8381101561487f57815115158752958201959082019060010161489e565b6040815260006148cf604083018561484f565b82810360208401526148e1818561488a565b95945050505050565b6080808252855190820181905260009060209060a0840190828901845b8281101561492c5781516001600160a01b031684529284019290840190600101614907565b5050508381038285015286518082528783019183019060005b8181101561496457835160020b83529284019291840191600101614945565b50508481036040860152614978818861484f565b92505050828103606084015261498e818561488a565b979650505050505050565b60005b838110156149b457818101518382015260200161499c565b50506000910152565b600081518084526149d5816020860160208601614999565b601f01601f19169290920160200192915050565b6020815260006145c760208301846149bd565b60008060208385031215614a0f57600080fd5b82356001600160401b0380821115614a2657600080fd5b818501915085601f830112614a3a57600080fd5b813581811115614a4957600080fd5b866020828501011115614a5b57600080fd5b60209290920196919550909350505050565b60008060a08385031215614a8057600080fd5b82359150602084603f850112614a9557600080fd5b604051608081018181106001600160401b0382111715614ab757614ab76145e6565b6040528060a0860187811115614acc57600080fd5b8387015b81811015614ae75780358352918401918401614ad0565b50505080925050509250929050565b600080600060608486031215614b0b57600080fd5b833592506020840135614b1d816145ce565b929592945050506040919091013590565b8060020b81146145e357600080fd5b80608081018310156108e157600080fd5b6000806000806000806000806000806102008b8d031215614b6e57600080fd5b8a35614b79816145ce565b995060208b0135614b89816145ce565b985060408b0135614b99816145ce565b975060608b0135614ba9816145ce565b965060808b0135614bb981614b2e565b955060a08b0135614bc981614b2e565b945060c08b0135614bd9816147da565b935060e08b01359250614bf08c6101008d01614b3d565b9150614c008c6101808d01614b3d565b90509295989b9194979a5092959850565b60006001600160401b03821115614c2a57614c2a6145e6565b5060051b60200190565b600082601f830112614c4557600080fd5b81356020614c5561467283614c11565b82815260059290921b84018101918181019086841115614c7457600080fd5b8286015b84811015614c8f5780358352918301918301614c78565b509695505050505050565b60008060408385031215614cad57600080fd5b82356001600160401b0380821115614cc457600080fd5b818501915085601f830112614cd857600080fd5b81356020614ce861467283614c11565b82815260059290921b84018101918181019089841115614d0757600080fd5b948201945b83861015614d2e578535614d1f816145ce565b82529482019490820190614d0c565b96505086013592505080821115614d4457600080fd5b50614d5185828601614c34565b9150509250929050565b60008060408385031215614d6e57600080fd5b823591506020830135614d80816147da565b809150509250929050565b600060208284031215614d9d57600080fd5b81356001600160401b03811115614db357600080fd5b61222684828501614653565b60008060408385031215614dd257600080fd5b50508035926020909101359150565b600060208284031215614df357600080fd5b5051919050565b634e487b7160e01b600052601160045260246000fd5b808201808211156108e1576108e1614dfa565b8060005b6004811015611858578151845260209384019390910190600101614e27565b60006101a08289835b6005811015614e775781516001600160a01b0316835260209283019290910190600101614e4f565b505050614e8760a0840189614e23565b80610120840152614e9a818401886149bd565b9050828103610140840152614eaf81876149bd565b61016084019590955250506101800152949350505050565b600082601f830112614ed857600080fd5b81516020614ee861467283614c11565b82815260059290921b84018101918181019086841115614f0757600080fd5b8286015b84811015614c8f5780518352918301918301614f0b565b60008060408385031215614f3557600080fd5b8251614f40816147da565b60208401519092506001600160401b03811115614f5c57600080fd5b614d5185828601614ec7565b6001600160a01b0392831681529116602082015260400190565b6001600160a01b039586168152602081019490945260408401929092526060830152909116608082015260a00190565b60008060408385031215614fc557600080fd5b8251614fd0816147da565b6020840151909250614d80816147da565b8060005b60028110156118585781516001600160a01b0316845260209384019390910190600101614fe5565b8881526101208101615022602083018a614fe1565b606082019790975260808101959095526001600160a01b039390931660a085015290151560c084015260e083015215156101009091015292915050565b60006020828403121561507157600080fd5b81516001600160401b0381111561508757600080fd5b61222684828501614ec7565b818103818111156108e1576108e1614dfa565b634e487b7160e01b600052603260045260246000fd5b600082601f8301126150cd57600080fd5b815160206150dd61467283614c11565b82815260059290921b840181019181810190868411156150fc57600080fd5b8286015b84811015614c8f578051615113816145ce565b8352918301918301615100565b600082601f83011261513157600080fd5b8151602061514161467283614c11565b82815260059290921b8401810191818101908684111561516057600080fd5b8286015b84811015614c8f578051615177816147da565b8352918301918301615164565b6000806000806080858703121561519a57600080fd5b84516001600160401b03808211156151b157600080fd5b6151bd888389016150bc565b95506020915081870151818111156151d457600080fd5b8701601f810189136151e557600080fd5b80516151f361467282614c11565b81815260059190911b8201840190848101908b83111561521257600080fd5b928501925b8284101561523957835161522a81614b2e565b82529285019290850190615217565b60408b015190985094505050508082111561525357600080fd5b61525f88838901614ec7565b9350606087015191508082111561527557600080fd5b506147ce87828801615120565b600181811c9082168061529657607f821691505b6020821081036152b657634e487b7160e01b600052602260045260246000fd5b50919050565b83815260406020820152816040820152818360608301376000818301606090810191909152601f909201601f1916010192915050565b82815260a081016145c76020830184614e23565b60006020828403121561531857600080fd5b81516145c7816147da565b60006020828403121561533557600080fd5b81516145c7816145ce565b8881526101e08101615355602083018a614fe1565b8760020b60608301528660020b608083015260018060a01b03861660a083015284151560c083015260808460e08401376080836101608401379998505050505050505050565b60006153a96146728461462c565b90508281528383830111156153bd57600080fd5b6145c7836020830184614999565b6000602082840312156153dd57600080fd5b81516001600160401b038111156153f357600080fd5b8201601f8101841361540457600080fd5b6122268482516020840161539b565b82815260406020820152600061542c60408301846149bd565b949350505050565b86815260c06020820152600061544d60c08301886149bd565b828103604084015261545f818861484f565b6001600160a01b0396871660608501529490951660808301525060a00152949350505050565b6000806040838503121561549857600080fd5b82516154a3816145ce565b6020939093015192949293505050565b634e487b7160e01b600052602160045260246000fd5b82815260408101600483106154ee57634e487b7160e01b600052602160045260246000fd5b8260208301529392505050565b600081518084526020808501945080840160005b8381101561487f5781516001600160a01b03168752958201959082019060010161550f565b60808152600061554760808301876154fb565b8281036020840152615559818761484f565b604084019590955250506001600160a01b039190911660609091015292915050565b6001600160a01b038616815260a06020820181905260009061559f908301876154fb565b82810360408401526155b181876154fb565b905082810360608401526155c5818661484f565b905082810360808401526155d9818561484f565b98975050505050505050565b600080604083850312156155f857600080fd5b82516001600160401b038082111561560f57600080fd5b61561b868387016150bc565b9350602085015191508082111561563157600080fd5b50614d5185828601614ec7565b80820281158282048414176108e1576108e1614dfa565b60008261567257634e487b7160e01b600052601260045260246000fd5b500490565b6020815260006145c7602083018461484f565b600060018060a01b03808916835280881660208401525085604083015284606083015283608083015260c060a08301526155d960c08301846154fb565b6020808252602b908201527f496e697469616c697a61626c653a20636f6e7472616374206973206e6f74206960408201526a6e697469616c697a696e6760a81b606082015260800190565b604081526000615725604083018561484f565b82810360208401526148e1818561484f565b82815260406020820152600061542c604083018461484f565b6000806040838503121561576357600080fd5b82516001600160401b0381111561577957600080fd5b61578585828601614ec7565b925050602083015190509250929050565b6000806000606084860312156157ab57600080fd5b83516001600160401b03808211156157c257600080fd5b6157ce878388016150bc565b945060208601519150808211156157e457600080fd5b6157f087838801614ec7565b9350604086015191508082111561580657600080fd5b5061581386828701614ec7565b9150509250925092565b6001600160a01b03858116825284166020820152608060408201819052600090615849908301856154fb565b828103606084015261498e818561484f565b6000806040838503121561586e57600080fd5b505080516020909101519092909150565b878152600060018060a01b03808916602084015260e060408401526158a760e08401896154fb565b606084019790975294909416608082015260a081019290925260c090910152509392505050565b600080604083850312156158e157600080fd5b8251915060208301516001600160401b03811115614f5c57600080fd5b6001600160a01b0389168152610100602082018190526000906159238382018b6154fb565b9050886040840152828103606084015261593d818961484f565b90508660808401528560a084015282810360c084015261595d818661484f565b905082810360e0840152615971818561484f565b9b9a5050505050505050505050565b6000806040838503121561599357600080fd5b82516001600160401b03808211156159aa57600080fd5b61561b86838701614ec7565b6001600160a01b03851681526080602082018190526000906159da908301866154fb565b846040840152828103606084015261498e818561484f565b6000610100808352615a068184018c6154fb565b90508960208401528281036040840152615a20818a61484f565b6001600160a01b0389811660608601528816608085015260a0840187905283810360c08501529050615a52818661484f565b9150508260e08301529998505050505050505050565b878152600060018060a01b03808916602084015260e06040840152615a9060e08401896154fb565b818816606085015286608085015283810360a0850152615ab081876154fb565b91505082810360c0840152615ac5818561484f565b9a9950505050505050505050565b6001600160a01b0387811682526020820187905285811660408301528416606082015260c060808201819052600090615b0e908301856149bd565b90508260a083015297965050505050505056fea264697066735822122076589eecedce2d63179db089744959244c6d9abd81b96d16ed3fe219c6d8b53764736f6c63430008110033",
  "libraries": {
    "ConverterStrategyBaseLib": "0xF9B0b9d962c5D6a3e9b1316F73386a12d7F2703a",
    "ConverterStrategyBaseLib2": "0xE11BFbFAf8e53ADC8e67552e8A1607a1b9CB7359",
    "StrategyLib2": "0x00B6384Da9F9f1e31Feed637628Eb490732981b9",
    "KyberConverterStrategyLogicLib": "0x3e6126b6D1C5E07E22e06BeecAA29f0B5E13Bb33",
    "PairBasedStrategyLib": "0x19C8E33058Dcc261f7739F7B16A2468cae50679d",
    "PairBasedStrategyLogicLib": "0xD9fFe2185e50a9E7fC68934C763dbcA25b8634f0"
  },
  "devdoc": {
    "kind": "dev",
    "methods": {
      "claim()": {
        "details": "Manual claim rewards."
      },
      "created()": {
        "returns": {
          "_0": "Creation timestamp"
        }
      },
      "createdBlock()": {
        "returns": {
          "_0": "Creation block number"
        }
      },
      "doHardWork()": {
        "returns": {
          "earned": "Earned amount in terms of {asset}",
          "lost": "Lost amount in terms of {asset}"
        }
      },
      "emergencyExit()": {
        "details": "In case of any issue operator can withdraw all from pool."
      },
      "getDefaultState()": {
        "returns": {
          "addr": "[tokenA, tokenB, pool, profitHolder]",
          "boolValues": "[isStablePool, depositorSwapTokens]",
          "nums": "[totalLiquidity, fuse-status-tokenA, fuse-status-tokenB, withdrawDone, 4 thresholds of token A, 4 thresholds of token B]",
          "tickData": "[tickSpacing, lowerTick, upperTick, rebalanceTickRange]"
        }
      },
      "getPropNotUnderlying18()": {
        "returns": {
          "_0": "Proportion of the not-underlying [0...1e18]"
        }
      },
      "getSlot(uint256)": {
        "details": "Gets a slot as bytes32"
      },
      "getSpecificState()": {
        "returns": {
          "flags": "[staked, needStake, needUnstake]",
          "nums": "Balances of the profit holder for [tokenA, tokenB, KNC]"
        }
      },
      "increaseRevision(address)": {
        "details": "Revision should be increased on each contract upgrade"
      },
      "init(address,address,address,address,int24,int24,bool,uint256,uint256[4],uint256[4])": {
        "params": {
          "controller_": "The address of the controller.",
          "converter_": "The address of the converter.",
          "fuseThresholdsA": "Price thresholds for token A [LOWER_LIMIT_ON, LOWER_LIMIT_OFF, UPPER_LIMIT_ON, UPPER_LIMIT_OFF]",
          "fuseThresholdsB": "Price thresholds for token B [LOWER_LIMIT_ON, LOWER_LIMIT_OFF, UPPER_LIMIT_ON, UPPER_LIMIT_OFF]",
          "pool_": "The address of the pool.",
          "rebalanceTickRange_": "The tick range for rebalancing.",
          "splitter_": "The address of the splitter.",
          "tickRange_": "The tick range for the liquidity position."
        }
      },
      "investAll(uint256,bool)": {
        "params": {
          "updateTotalAssetsBeforeInvest_": "Recalculate total assets amount before depositing.                                       It can be false if we know exactly, that the amount is already actual."
        },
        "returns": {
          "strategyLoss": "Loss should be covered from Insurance"
        }
      },
      "isController(address)": {
        "details": "Return true if given address is controller"
      },
      "isReadyToHardWork()": {
        "returns": {
          "_0": "A boolean indicating if the strategy is ready for hard work."
        }
      },
      "needRebalance()": {
        "returns": {
          "_0": "A boolean indicating if the strategy needs rebalancing."
        }
      },
      "onTransferAmounts(address[],uint256[])": {
        "params": {
          "amounts_": "Amount of {asset_} that has been sent to the user's balance",
          "assets_": "Any asset sent to the balance, i.e. inside repayTheBorrow"
        }
      },
      "performanceFee()": {
        "details": "use FEE_DENOMINATOR"
      },
      "previousImplementation()": {
        "details": "Previous logic implementation"
      },
      "rebalanceNoSwaps(bool)": {
        "params": {
          "checkNeedRebalance": "Revert if rebalance is not needed. Pass false to deposit after withdrawByAgg-iterations"
        }
      },
      "requirePayAmountBack(address,uint256)": {
        "params": {
          "amount_": "Required amount of the {theAsset_}",
          "theAsset_": "Required asset (either collateral or borrow)"
        },
        "returns": {
          "amountOut": "Amount sent to balance of TetuConverter, amountOut <= amount_"
        }
      },
      "revision()": {
        "details": "Contract upgrade counter"
      },
      "setCompoundRatio(uint256)": {
        "details": "PlatformVoter can change compound ratio for some strategies.      A strategy can implement another logic for some uniq cases."
      },
      "setFuseStatus(uint256,uint256)": {
        "params": {
          "index01": "0 - token A, 1 - token B",
          "status": "See PairBasedStrategyLib.FuseStatus enum for possile values"
        }
      },
      "setFuseThresholds(uint256,uint256[4])": {
        "params": {
          "index01": "0 - token A, 1 - token B",
          "values": "Price thresholds: [LOWER_LIMIT_ON, LOWER_LIMIT_OFF, UPPER_LIMIT_ON, UPPER_LIMIT_OFF]"
        }
      },
      "setLiquidationThreshold(address,uint256)": {
        "details": "Liquidation thresholds are used to detect dust in many cases, not only in liquidation case",
        "params": {
          "amount": "Min amount of token allowed to liquidate, token's decimals are used."
        }
      },
      "setReinvestThresholdPercent(uint256)": {
        "params": {
          "percent_": "New value of the percent, decimals = {REINVEST_THRESHOLD_PERCENT_DENOMINATOR}"
        }
      },
      "setStrategySpecificName(string)": {
        "details": "The name will be used for UI."
      },
      "setWithdrawDone(uint256)": {
        "params": {
          "done": "0 - full withdraw required, 1 - full withdraw was done"
        }
      },
      "supportsInterface(bytes4)": {
        "details": "See {IERC165-supportsInterface}."
      },
      "totalAssets()": {
        "details": "Total amount of underlying assets under control of this strategy."
      },
      "withdrawAllToSplitter()": {
        "details": "Withdraws all underlying assets to the vault",
        "returns": {
          "strategyLoss": "Loss should be covered from Insurance"
        }
      },
      "withdrawByAggStep(address,address,uint256,bytes,bytes,uint256)": {
        "details": "All swap-by-agg data should be prepared using {quoteWithdrawByAgg} off-chain",
        "params": {
          "aggregator_": "Aggregator that should be used on next swap. 0 - use liquidator",
          "amountToSwap_": "Amount that should be swapped. 0 - no swap",
          "entryToPool": "Allow to enter to the pool at the end. Use false if you are going to make several iterations.                    It's possible to enter back to the pool by calling {rebalanceNoSwaps} at any moment                    0 - not allowed, 1 - allowed, 2 - allowed only if completed",
          "planEntryData": "PLAN_XXX + additional data, see IterationPlanKinds",
          "swapData": "Swap rote that was prepared off-chain.",
          "tokenToSwap_": "What token should be swapped to other"
        },
        "returns": {
          "completed": "All debts were closed, leftovers were swapped to the required proportions."
        }
      },
      "withdrawToSplitter(uint256)": {
        "details": "Withdraws some assets to the splitter",
        "returns": {
          "strategyLoss": "Loss should be covered from Insurance"
        }
      }
    },
    "version": 1
  },
  "userdoc": {
    "kind": "user",
    "methods": {
      "CONTROLLABLE_VERSION()": {
        "notice": "Version of the contract"
      },
      "capacity()": {
        "notice": "Unlimited capacity by default"
      },
      "controller()": {
        "notice": "Return controller address saved in the contract slot"
      },
      "created()": {
        "notice": "Return creation timestamp"
      },
      "createdBlock()": {
        "notice": "Return creation block number"
      },
      "doHardWork()": {
        "notice": "Do hard work with reinvesting"
      },
      "getDefaultState()": {
        "notice": "Returns the current state of the contract"
      },
      "getPropNotUnderlying18()": {
        "notice": "Calculate proportions of [underlying, not-underlying] required by the internal pool of the strategy"
      },
      "getSpecificState()": {
        "notice": "Returns the current state of the contract."
      },
      "init(address,address,address,address,int24,int24,bool,uint256,uint256[4],uint256[4])": {
        "notice": "Initialize the strategy with the given parameters."
      },
      "investAll(uint256,bool)": {
        "notice": "Stakes everything the strategy holds into the reward pool. amount_ Amount transferred to the strategy balance just before calling this function"
      },
      "investedAssets()": {
        "notice": "Amount of underlying assets converted to pool assets and invested to the pool."
      },
      "isGovernance(address)": {
        "notice": "Return true if given address is setup as governance in Controller"
      },
      "isReadyToHardWork()": {
        "notice": "Check if the strategy is ready for hard work."
      },
      "liquidationThresholds(address)": {
        "notice": "Minimum token amounts that can be liquidated"
      },
      "needRebalance()": {
        "notice": "Check if the strategy needs rebalancing."
      },
      "onTransferAmounts(address[],uint256[])": {
        "notice": "TetuConverter calls this function when it sends any amount to user's balance"
      },
      "performanceFee()": {
        "notice": "A percent of total profit that is sent to the {performanceReceiver} before compounding"
      },
      "performanceReceiver()": {
        "notice": "{performanceFee}% of total profit is sent to the {performanceReceiver} before compounding"
      },
      "quoteWithdrawByAgg(bytes)": {
        "notice": "Get info about a swap required by next call of {withdrawByAggStep} within the given plan"
      },
      "rebalanceNoSwaps(bool)": {
        "notice": "Rebalance using borrow/repay only, no swaps"
      },
      "requirePayAmountBack(address,uint256)": {
        "notice": "Converters asks to send some amount back."
      },
      "setFuseStatus(uint256,uint256)": {
        "notice": "Manually set status of the fuse"
      },
      "setFuseThresholds(uint256,uint256[4])": {
        "notice": "Set thresholds for the fuse: [LOWER_LIMIT_ON, LOWER_LIMIT_OFF, UPPER_LIMIT_ON, UPPER_LIMIT_OFF]         Decimals 18. The thresholds are compared with prices from TetuConverter's price oracle.         Example: [0.9, 0.92, 1.08, 1.1]         Price falls below 0.9 - fuse is ON. Price rises back up to 0.92 - fuse is OFF.         Price raises more and reaches 1.1 - fuse is ON again. Price falls back and reaches 1.08 - fuse OFF again."
      },
      "setWithdrawDone(uint256)": {
        "notice": "Set withdrawDone value.         When a fuse was triggered ON, all debts should be closed and asset should be converted to underlying.         After completion of the conversion withdrawDone can be set to 1.         So, {getFuseStatus} will return  withdrawDone=1 and you will know, that withdraw is not required"
      },
      "setupPerformanceFee(uint256,address,uint256)": {
        "notice": "Set performance fee, receiver and ratio"
      },
      "withdrawByAggStep(address,address,uint256,bytes,bytes,uint256)": {
        "notice": "Make withdraw iteration: [exit from the pool], [make 1 swap], [repay a debt], [enter to the pool]         Typical sequence of the actions is: exit from the pool, make 1 swap, repay 1 debt.         You can enter to the pool if you are sure that you won't have borrow + repay on AAVE3 in the same block."
      }
    },
    "version": 1
  },
  "storageLayout": {
    "storage": [
      {
        "astId": 11353,
        "contract": "contracts/strategies/kyber/KyberConverterStrategy.sol:KyberConverterStrategy",
        "label": "_initialized",
        "offset": 0,
        "slot": "0",
        "type": "t_uint8"
      },
      {
        "astId": 11356,
        "contract": "contracts/strategies/kyber/KyberConverterStrategy.sol:KyberConverterStrategy",
        "label": "_initializing",
        "offset": 1,
        "slot": "0",
        "type": "t_bool"
      },
      {
        "astId": 90850,
        "contract": "contracts/strategies/kyber/KyberConverterStrategy.sol:KyberConverterStrategy",
        "label": "state",
        "offset": 0,
        "slot": "1",
        "type": "t_struct(State)87876_storage"
      },
      {
        "astId": 91151,
        "contract": "contracts/strategies/kyber/KyberConverterStrategy.sol:KyberConverterStrategy",
        "label": "__gap",
        "offset": 0,
        "slot": "21",
        "type": "t_array(t_uint256)49_storage"
      },
      {
        "astId": 16695,
        "contract": "contracts/strategies/kyber/KyberConverterStrategy.sol:KyberConverterStrategy",
        "label": "baseState",
        "offset": 0,
        "slot": "70",
        "type": "t_struct(BaseState)5205_storage"
      },
      {
        "astId": 17142,
        "contract": "contracts/strategies/kyber/KyberConverterStrategy.sol:KyberConverterStrategy",
        "label": "__gap",
        "offset": 0,
        "slot": "77",
        "type": "t_array(t_uint256)43_storage"
      },
      {
        "astId": 70612,
        "contract": "contracts/strategies/kyber/KyberConverterStrategy.sol:KyberConverterStrategy",
        "label": "liquidationThresholds",
        "offset": 0,
        "slot": "120",
        "type": "t_mapping(t_address,t_uint256)"
      },
      {
        "astId": 70616,
        "contract": "contracts/strategies/kyber/KyberConverterStrategy.sol:KyberConverterStrategy",
        "label": "_csbs",
        "offset": 0,
        "slot": "121",
        "type": "t_struct(ConverterStrategyBaseState)70555_storage"
      },
      {
        "astId": 71938,
        "contract": "contracts/strategies/kyber/KyberConverterStrategy.sol:KyberConverterStrategy",
        "label": "__gap",
        "offset": 0,
        "slot": "124",
        "type": "t_array(t_uint256)46_storage"
      }
    ],
    "types": {
      "t_address": {
        "encoding": "inplace",
        "label": "address",
        "numberOfBytes": "20"
      },
      "t_array(t_struct(FuseStateParams)92956_storage)2_storage": {
        "base": "t_struct(FuseStateParams)92956_storage",
        "encoding": "inplace",
        "label": "struct PairBasedStrategyLib.FuseStateParams[2]",
        "numberOfBytes": "320"
      },
      "t_array(t_uint256)43_storage": {
        "base": "t_uint256",
        "encoding": "inplace",
        "label": "uint256[43]",
        "numberOfBytes": "1376"
      },
      "t_array(t_uint256)46_storage": {
        "base": "t_uint256",
        "encoding": "inplace",
        "label": "uint256[46]",
        "numberOfBytes": "1472"
      },
      "t_array(t_uint256)49_storage": {
        "base": "t_uint256",
        "encoding": "inplace",
        "label": "uint256[49]",
        "numberOfBytes": "1568"
      },
      "t_array(t_uint256)4_storage": {
        "base": "t_uint256",
        "encoding": "inplace",
        "label": "uint256[4]",
        "numberOfBytes": "128"
      },
      "t_bool": {
        "encoding": "inplace",
        "label": "bool",
        "numberOfBytes": "1"
      },
      "t_contract(ITetuConverter)44122": {
        "encoding": "inplace",
        "label": "contract ITetuConverter",
        "numberOfBytes": "20"
      },
      "t_enum(FuseStatus)92921": {
        "encoding": "inplace",
        "label": "enum PairBasedStrategyLib.FuseStatus",
        "numberOfBytes": "1"
      },
      "t_int24": {
        "encoding": "inplace",
        "label": "int24",
        "numberOfBytes": "3"
      },
      "t_mapping(t_address,t_uint256)": {
        "encoding": "mapping",
        "key": "t_address",
        "label": "mapping(address => uint256)",
        "numberOfBytes": "32",
        "value": "t_uint256"
      },
      "t_string_storage": {
        "encoding": "bytes",
        "label": "string",
        "numberOfBytes": "32"
      },
      "t_struct(BaseState)5205_storage": {
        "encoding": "inplace",
        "label": "struct IStrategyV3.BaseState",
        "members": [
          {
            "astId": 5186,
            "contract": "contracts/strategies/kyber/KyberConverterStrategy.sol:KyberConverterStrategy",
            "label": "asset",
            "offset": 0,
            "slot": "0",
            "type": "t_address"
          },
          {
            "astId": 5189,
            "contract": "contracts/strategies/kyber/KyberConverterStrategy.sol:KyberConverterStrategy",
            "label": "splitter",
            "offset": 0,
            "slot": "1",
            "type": "t_address"
          },
          {
            "astId": 5192,
            "contract": "contracts/strategies/kyber/KyberConverterStrategy.sol:KyberConverterStrategy",
            "label": "performanceReceiver",
            "offset": 0,
            "slot": "2",
            "type": "t_address"
          },
          {
            "astId": 5195,
            "contract": "contracts/strategies/kyber/KyberConverterStrategy.sol:KyberConverterStrategy",
            "label": "performanceFee",
            "offset": 0,
            "slot": "3",
            "type": "t_uint256"
          },
          {
            "astId": 5198,
            "contract": "contracts/strategies/kyber/KyberConverterStrategy.sol:KyberConverterStrategy",
            "label": "performanceFeeRatio",
            "offset": 0,
            "slot": "4",
            "type": "t_uint256"
          },
          {
            "astId": 5201,
            "contract": "contracts/strategies/kyber/KyberConverterStrategy.sol:KyberConverterStrategy",
            "label": "compoundRatio",
            "offset": 0,
            "slot": "5",
            "type": "t_uint256"
          },
          {
            "astId": 5204,
            "contract": "contracts/strategies/kyber/KyberConverterStrategy.sol:KyberConverterStrategy",
            "label": "strategySpecificName",
            "offset": 0,
            "slot": "6",
            "type": "t_string_storage"
          }
        ],
        "numberOfBytes": "224"
      },
      "t_struct(ConverterStrategyBaseState)70555_storage": {
        "encoding": "inplace",
        "label": "struct ConverterStrategyBase.ConverterStrategyBaseState",
        "members": [
          {
            "astId": 70547,
            "contract": "contracts/strategies/kyber/KyberConverterStrategy.sol:KyberConverterStrategy",
            "label": "investedAssets",
            "offset": 0,
            "slot": "0",
            "type": "t_uint256"
          },
          {
            "astId": 70551,
            "contract": "contracts/strategies/kyber/KyberConverterStrategy.sol:KyberConverterStrategy",
            "label": "converter",
            "offset": 0,
            "slot": "1",
            "type": "t_contract(ITetuConverter)44122"
          },
          {
            "astId": 70554,
            "contract": "contracts/strategies/kyber/KyberConverterStrategy.sol:KyberConverterStrategy",
            "label": "reinvestThresholdPercent",
            "offset": 0,
            "slot": "2",
            "type": "t_uint256"
          }
        ],
        "numberOfBytes": "96"
      },
      "t_struct(FuseStateParams)92956_storage": {
        "encoding": "inplace",
        "label": "struct PairBasedStrategyLib.FuseStateParams",
        "members": [
          {
            "astId": 92950,
            "contract": "contracts/strategies/kyber/KyberConverterStrategy.sol:KyberConverterStrategy",
            "label": "status",
            "offset": 0,
            "slot": "0",
            "type": "t_enum(FuseStatus)92921"
          },
          {
            "astId": 92955,
            "contract": "contracts/strategies/kyber/KyberConverterStrategy.sol:KyberConverterStrategy",
            "label": "thresholds",
            "offset": 0,
            "slot": "1",
            "type": "t_array(t_uint256)4_storage"
          }
        ],
        "numberOfBytes": "160"
      },
      "t_struct(PairState)94922_storage": {
        "encoding": "inplace",
        "label": "struct PairBasedStrategyLogicLib.PairState",
        "members": [
          {
            "astId": 94886,
            "contract": "contracts/strategies/kyber/KyberConverterStrategy.sol:KyberConverterStrategy",
            "label": "pool",
            "offset": 0,
            "slot": "0",
            "type": "t_address"
          },
          {
            "astId": 94888,
            "contract": "contracts/strategies/kyber/KyberConverterStrategy.sol:KyberConverterStrategy",
            "label": "strategyProfitHolder",
            "offset": 0,
            "slot": "1",
            "type": "t_address"
          },
          {
            "astId": 94891,
            "contract": "contracts/strategies/kyber/KyberConverterStrategy.sol:KyberConverterStrategy",
            "label": "tokenA",
            "offset": 0,
            "slot": "2",
            "type": "t_address"
          },
          {
            "astId": 94894,
            "contract": "contracts/strategies/kyber/KyberConverterStrategy.sol:KyberConverterStrategy",
            "label": "tokenB",
            "offset": 0,
            "slot": "3",
            "type": "t_address"
          },
          {
            "astId": 94896,
            "contract": "contracts/strategies/kyber/KyberConverterStrategy.sol:KyberConverterStrategy",
            "label": "isStablePool",
            "offset": 20,
            "slot": "3",
            "type": "t_bool"
          },
          {
            "astId": 94899,
            "contract": "contracts/strategies/kyber/KyberConverterStrategy.sol:KyberConverterStrategy",
            "label": "depositorSwapTokens",
            "offset": 21,
            "slot": "3",
            "type": "t_bool"
          },
          {
            "astId": 94901,
            "contract": "contracts/strategies/kyber/KyberConverterStrategy.sol:KyberConverterStrategy",
            "label": "tickSpacing",
            "offset": 22,
            "slot": "3",
            "type": "t_int24"
          },
          {
            "astId": 94903,
            "contract": "contracts/strategies/kyber/KyberConverterStrategy.sol:KyberConverterStrategy",
            "label": "lowerTick",
            "offset": 25,
            "slot": "3",
            "type": "t_int24"
          },
          {
            "astId": 94905,
            "contract": "contracts/strategies/kyber/KyberConverterStrategy.sol:KyberConverterStrategy",
            "label": "upperTick",
            "offset": 28,
            "slot": "3",
            "type": "t_int24"
          },
          {
            "astId": 94907,
            "contract": "contracts/strategies/kyber/KyberConverterStrategy.sol:KyberConverterStrategy",
            "label": "rebalanceTickRange",
            "offset": 0,
            "slot": "4",
            "type": "t_int24"
          },
          {
            "astId": 94909,
            "contract": "contracts/strategies/kyber/KyberConverterStrategy.sol:KyberConverterStrategy",
            "label": "totalLiquidity",
            "offset": 3,
            "slot": "4",
            "type": "t_uint128"
          },
          {
            "astId": 94915,
            "contract": "contracts/strategies/kyber/KyberConverterStrategy.sol:KyberConverterStrategy",
            "label": "fuseAB",
            "offset": 0,
            "slot": "5",
            "type": "t_array(t_struct(FuseStateParams)92956_storage)2_storage"
          },
          {
            "astId": 94918,
            "contract": "contracts/strategies/kyber/KyberConverterStrategy.sol:KyberConverterStrategy",
            "label": "withdrawDone",
            "offset": 0,
            "slot": "15",
            "type": "t_uint256"
          },
          {
            "astId": 94921,
            "contract": "contracts/strategies/kyber/KyberConverterStrategy.sol:KyberConverterStrategy",
            "label": "lastRebalanceNoSwap",
            "offset": 0,
            "slot": "16",
            "type": "t_uint256"
          }
        ],
        "numberOfBytes": "544"
      },
      "t_struct(State)87876_storage": {
        "encoding": "inplace",
        "label": "struct KyberConverterStrategyLogicLib.State",
        "members": [
          {
            "astId": 87869,
            "contract": "contracts/strategies/kyber/KyberConverterStrategy.sol:KyberConverterStrategy",
            "label": "pair",
            "offset": 0,
            "slot": "0",
            "type": "t_struct(PairState)94922_storage"
          },
          {
            "astId": 87871,
            "contract": "contracts/strategies/kyber/KyberConverterStrategy.sol:KyberConverterStrategy",
            "label": "tokenId",
            "offset": 0,
            "slot": "17",
            "type": "t_uint256"
          },
          {
            "astId": 87873,
            "contract": "contracts/strategies/kyber/KyberConverterStrategy.sol:KyberConverterStrategy",
            "label": "pId",
            "offset": 0,
            "slot": "18",
            "type": "t_uint256"
          },
          {
            "astId": 87875,
            "contract": "contracts/strategies/kyber/KyberConverterStrategy.sol:KyberConverterStrategy",
            "label": "staked",
            "offset": 0,
            "slot": "19",
            "type": "t_bool"
          }
        ],
        "numberOfBytes": "640"
      },
      "t_uint128": {
        "encoding": "inplace",
        "label": "uint128",
        "numberOfBytes": "16"
      },
      "t_uint256": {
        "encoding": "inplace",
        "label": "uint256",
        "numberOfBytes": "32"
      },
      "t_uint8": {
        "encoding": "inplace",
        "label": "uint8",
        "numberOfBytes": "1"
      }
    }
  }
}