{
  "address": "0x421AbA1614Fc2D6C02610DBa96Ff93e8243bb001",
  "abi": [
    {
      "inputs": [
        {
          "internalType": "address",
          "name": "pool_",
          "type": "address"
        },
        {
          "internalType": "int24",
          "name": "lowerTick_",
          "type": "int24"
        },
        {
          "internalType": "int24",
          "name": "upperTick_",
          "type": "int24"
        },
        {
          "internalType": "uint256",
          "name": "amount0Desired_",
          "type": "uint256"
        },
        {
          "internalType": "uint256",
          "name": "amount1Desired_",
          "type": "uint256"
        }
      ],
      "name": "addLiquidityPreview",
      "outputs": [
        {
          "internalType": "uint256",
          "name": "amount0Consumed",
          "type": "uint256"
        },
        {
          "internalType": "uint256",
          "name": "amount1Consumed",
          "type": "uint256"
        },
        {
          "internalType": "uint128",
          "name": "liquidityOut",
          "type": "uint128"
        }
      ],
      "stateMutability": "view",
      "type": "function"
    },
    {
      "inputs": [
        {
          "internalType": "uint160",
          "name": "sqrtRatioX96",
          "type": "uint160"
        },
        {
          "internalType": "int24",
          "name": "lowerTick",
          "type": "int24"
        },
        {
          "internalType": "int24",
          "name": "upperTick",
          "type": "int24"
        },
        {
          "internalType": "uint128",
          "name": "liquidity",
          "type": "uint128"
        }
      ],
      "name": "getAmountsForLiquidity",
      "outputs": [
        {
          "internalType": "uint256",
          "name": "amount0",
          "type": "uint256"
        },
        {
          "internalType": "uint256",
          "name": "amount1",
          "type": "uint256"
        }
      ],
      "stateMutability": "pure",
      "type": "function"
    },
    {
      "inputs": [
        {
          "internalType": "uint160",
          "name": "sqrtRatioX96",
          "type": "uint160"
        },
        {
          "internalType": "int24",
          "name": "lowerTick",
          "type": "int24"
        },
        {
          "internalType": "int24",
          "name": "upperTick",
          "type": "int24"
        },
        {
          "internalType": "uint256",
          "name": "amount0",
          "type": "uint256"
        },
        {
          "internalType": "uint256",
          "name": "amount1",
          "type": "uint256"
        }
      ],
      "name": "getLiquidityForAmounts",
      "outputs": [
        {
          "internalType": "uint128",
          "name": "liquidity",
          "type": "uint128"
        }
      ],
      "stateMutability": "pure",
      "type": "function"
    },
    {
      "inputs": [
        {
          "internalType": "contract IPool",
          "name": "pool",
          "type": "IPool"
        },
        {
          "internalType": "int24",
          "name": "tickLower",
          "type": "int24"
        },
        {
          "internalType": "int24",
          "name": "tickUpper",
          "type": "int24"
        }
      ],
      "name": "getPreviousTicks",
      "outputs": [
        {
          "internalType": "int24[2]",
          "name": "ticks",
          "type": "int24[2]"
        }
      ],
      "stateMutability": "view",
      "type": "function"
    },
    {
      "inputs": [
        {
          "internalType": "address",
          "name": "pool_",
          "type": "address"
        },
        {
          "internalType": "address",
          "name": "tokenIn",
          "type": "address"
        }
      ],
      "name": "getPrice",
      "outputs": [
        {
          "internalType": "uint256",
          "name": "",
          "type": "uint256"
        }
      ],
      "stateMutability": "view",
      "type": "function"
    },
    {
      "inputs": [
        {
          "internalType": "contract IPool",
          "name": "pool",
          "type": "IPool"
        }
      ],
      "name": "getTickSpacing",
      "outputs": [
        {
          "internalType": "int24",
          "name": "",
          "type": "int24"
        }
      ],
      "stateMutability": "view",
      "type": "function"
    },
    {
      "inputs": [
        {
          "internalType": "uint256",
          "name": "a",
          "type": "uint256"
        },
        {
          "internalType": "uint256",
          "name": "b",
          "type": "uint256"
        },
        {
          "internalType": "uint256",
          "name": "denominator",
          "type": "uint256"
        }
      ],
      "name": "mulDiv",
      "outputs": [
        {
          "internalType": "uint256",
          "name": "result",
          "type": "uint256"
        }
      ],
      "stateMutability": "pure",
      "type": "function"
    }
  ],
  "transactionHash": "0x3465a5518dd044131454a7dc97593b0bcd8602f47fb6ef71e8f269e91a48ad7e",
  "args": [],
  "numDeployments": 5,
  "solcInputHash": "beebd18f82b76c6876687623c23a6793",
  "bytecode": "0x6117fc61003a600b82828239805160001a60731461002d57634e487b7160e01b600052600060045260246000fd5b30600052607381538281f3fe73000000000000000000000000000000000000000030146080604052600436106100775760003560e01c80630337236a1461007c57806317c22c3c146100ac5780632a279b28146100e35780637127e2491461010b5780638b72d3601461012b578063aa9a091214610151578063ac41865a14610172575b600080fd5b61008f61008a366004611319565b610185565b6040516001600160801b0390911681526020015b60405180910390f35b6100bf6100ba366004611319565b610262565b6040805193845260208401929092526001600160801b0316908201526060016100a3565b6100f66100f1366004611374565b610302565b604080519283526020830191909152016100a3565b61011e6101193660046113dc565b6103b8565b6040516100a39190611427565b61013e610139366004611460565b6103ea565b60405160029190910b81526020016100a3565b61016461015f36600461147d565b610454565b6040519081526020016100a3565b6101646101803660046114a9565b610508565b600080610191866109ac565b9050600061019e866109ac565b9050806001600160a01b0316826001600160a01b031611156101bc57905b816001600160a01b0316886001600160a01b0316116101e7576101e0828287610dc7565b9250610257565b806001600160a01b0316886001600160a01b0316101561024957600061020e898388610dc7565b9050600061021d848b88610e3a565b9050806001600160801b0316826001600160801b03161061023e5780610240565b815b94505050610257565b610254828286610e3a565b92505b505095945050505050565b6000806000808890506000816001600160a01b031663217ac2376040518163ffffffff1660e01b8152600401608060405180830381865afa1580156102ab573d6000803e3d6000fd5b505050506040513d601f19601f820116820180604052508101906102cf91906114e2565b50505090506102e1818a8a8a8a610185565b92506102ef818a8a86610302565b909b909a50929850919650505050505050565b6000806000610310866109ac565b9050600061031d866109ac565b9050806001600160a01b0316826001600160a01b0316111561033b57905b816001600160a01b0316886001600160a01b0316116103665761035f828287610e70565b93506103ad565b806001600160a01b0316886001600160a01b0316101561039f5761038b888287610e70565b9350610398828987610eda565b92506103ad565b6103aa828287610eda565b92505b505094509492505050565b6103c06112d4565b6103ca8484610f24565b5060020b81526103da8483610f24565b5060020b60208201529392505050565b6000816001600160a01b03166348626a8c6040518163ffffffff1660e01b8152600401602060405180830381865afa15801561042a573d6000803e3d6000fd5b505050506040513d601f19601f8201168201806040525081019061044e919061153b565b92915050565b600080806000198587098587029250828110838203039150508060000361048d576000841161048257600080fd5b508290049050610501565b80841161049957600080fd5b600084868809851960019081018716968790049682860381900495909211909303600082900391909104909201919091029190911760038402600290811880860282030280860282030280860282030280860282030280860282030280860290910302029150505b9392505050565b6000808390506000816001600160a01b0316630dfe16816040518163ffffffff1660e01b8152600401602060405180830381865afa15801561054e573d6000803e3d6000fd5b505050506040513d601f19601f820116820180604052508101906105729190611558565b90506000826001600160a01b031663d21220a76040518163ffffffff1660e01b8152600401602060405180830381865afa1580156105b4573d6000803e3d6000fd5b505050506040513d601f19601f820116820180604052508101906105d89190611558565b90506000826001600160a01b0316866001600160a01b03161461065c57816001600160a01b031663313ce5676040518163ffffffff1660e01b8152600401602060405180830381865afa158015610633573d6000803e3d6000fd5b505050506040513d601f19601f820116820180604052508101906106579190611575565b6106be565b826001600160a01b031663313ce5676040518163ffffffff1660e01b8152600401602060405180830381865afa15801561069a573d6000803e3d6000fd5b505050506040513d601f19601f820116820180604052508101906106be9190611575565b60ff1690506000826001600160a01b0316876001600160a01b03161461074557826001600160a01b031663313ce5676040518163ffffffff1660e01b8152600401602060405180830381865afa15801561071c573d6000803e3d6000fd5b505050506040513d601f19601f820116820180604052508101906107409190611575565b6107a7565b836001600160a01b031663313ce5676040518163ffffffff1660e01b8152600401602060405180830381865afa158015610783573d6000803e3d6000fd5b505050506040513d601f19601f820116820180604052508101906107a79190611575565b60ff1690506000856001600160a01b031663217ac2376040518163ffffffff1660e01b8152600401608060405180830381865afa1580156107ec573d6000803e3d6000fd5b505050506040513d601f19601f8201168201806040525081019061081091906114e2565b5050509050600060128310610826576001610850565b61085061083485600a611692565b61083f85600a611692565b61084991906116b4565b600161122b565b90506000610866836001600160a01b0316611241565b9050600080886001600160a01b03168c6001600160a01b0316036108ee5786601d841061089457600061089f565b61089f84601d6116c8565b6108a991906116db565b6108b490600a611692565b90506000600160601b6108d0836001600160a01b0389166116ee565b6108da91906116b4565b90506108e681806116ee565b925050610954565b86601d84116108fe576000610909565b610909601d856116c8565b61091391906116db565b61091e90600a611692565b905060006001600160a01b03861661093a83600160601b6116ee565b61094491906116b4565b905061095081806116ee565b9250505b670de0b6b3a7640000811161096a57600161097c565b61097c670de0b6b3a7640000826116b4565b8161098786856116b4565b61099191906116b4565b61099b91906116b4565b9d9c50505050505050505050505050565b60008060008360020b126109c3578260020b6109d0565b8260020b6109d090611705565b90506109df620d89e719611721565b60020b811115610a1a5760405162461bcd60e51b81526020600482015260016024820152601560fa1b60448201526064015b60405180910390fd5b600081600116600003610a3157600160801b610a43565b6ffffcb933bd6fad37aa2d162d1a5940015b6001600160881b031690506002821615610a78576080610a73826ffff97272373d413259a46990580e213a6116ee565b901c90505b6004821615610aa2576080610a9d826ffff2e50f5f656932ef12357cf3c7fdcc6116ee565b901c90505b6008821615610acc576080610ac7826fffe5caca7e10e4e61c3624eaa0941cd06116ee565b901c90505b6010821615610af6576080610af1826fffcb9843d60f6159c9db58835c9266446116ee565b901c90505b6020821615610b20576080610b1b826fff973b41fa98c081472e6896dfb254c06116ee565b901c90505b6040821615610b4a576080610b45826fff2ea16466c96a3843ec78b326b528616116ee565b901c90505b6080821615610b74576080610b6f826ffe5dee046a99a2a811c461f1969c30536116ee565b901c90505b610100821615610b9f576080610b9a826ffcbe86c7900a88aedcffc83b479aa3a46116ee565b901c90505b610200821615610bca576080610bc5826ff987a7253ac413176f2b074cf7815e546116ee565b901c90505b610400821615610bf5576080610bf0826ff3392b0822b70005940c7a398e4b70f36116ee565b901c90505b610800821615610c20576080610c1b826fe7159475a2c29b7443b29c7fa6e889d96116ee565b901c90505b611000821615610c4b576080610c46826fd097f3bdfd2022b8845ad8f792aa58256116ee565b901c90505b612000821615610c76576080610c71826fa9f746462d870fdf8a65dc1f90e061e56116ee565b901c90505b614000821615610ca1576080610c9c826f70d869a156d2a1b890bb3df62baf32f76116ee565b901c90505b618000821615610ccc576080610cc7826f31be135f97d08fd981231505542fcfa66116ee565b901c90505b62010000821615610cf8576080610cf3826f09aa508b5b7a84e1c677de54f3e99bc96116ee565b901c90505b62020000821615610d23576080610d1e826e5d6af8dedb81196699c329225ee6046116ee565b901c90505b62040000821615610d4d576080610d48826d2216e584f5fa1ea926041bedfe986116ee565b901c90505b62080000821615610d75576080610d70826b048a170391f7dc42444e8fa26116ee565b901c90505b60008460020b1315610d9057610d8d816000196116b4565b90505b610d9f64010000000082611743565b15610dab576001610dae565b60005b610dbf9060ff16602083901c6116db565b949350505050565b6000826001600160a01b0316846001600160a01b03161115610de7579192915b6000610e0a856001600160a01b0316856001600160a01b0316600160601b610454565b9050610e31610e2c8483610e1e8989611757565b6001600160a01b0316610454565b611279565b95945050505050565b6000826001600160a01b0316846001600160a01b03161115610e5a579192915b610dbf610e2c83600160601b610e1e8888611757565b6000826001600160a01b0316846001600160a01b03161115610e90579192915b610dbf6001610ecb600160601b600160e01b03606086901b16610eb38888611757565b6001600160a01b0316876001600160a01b0316611294565b866001600160a01b0316611294565b6000826001600160a01b0316846001600160a01b03161115610efa579192915b610dbf6001600160801b038316610f118686611757565b6001600160a01b0316600160601b611294565b600080600283900b620d89e71913801590610f515750610f47620d89e719611721565b60020b8360020b13155b610f915760405162461bcd60e51b81526020600482015260116024820152707469636b206e6f7420696e2072616e676560781b6044820152606401610a11565b60405163c0ac75cf60e01b8152600284900b60048201526001600160a01b0385169063c0ac75cf906024016040805180830381865afa158015610fd8573d6000803e3d6000fd5b505050506040513d601f19601f82011682018060405250810190610ffc919061177e565b9092509050600282900b15158061101757508060020b600014155b6112245760008360020b131561112c57611034620d89e719611721565b91505b8260020b8260020b13156110b85760405163c0ac75cf60e01b8152600283900b60048201526001600160a01b0385169063c0ac75cf906024016040805180830381865afa15801561108c573d6000803e3d6000fd5b505050506040513d601f19601f820116820180604052508101906110b0919061177e565b509150611037565b60405163c0ac75cf60e01b8152600283900b60048201526001600160a01b0385169063c0ac75cf906024016040805180830381865afa1580156110ff573d6000803e3d6000fd5b505050506040513d601f19601f82011682018060405250810190611123919061177e565b91506112249050565b50620d89e7195b8260020b8160020b12156111b55760405163c0ac75cf60e01b8152600282900b60048201526001600160a01b0385169063c0ac75cf906024016040805180830381865afa158015611188573d6000803e3d6000fd5b505050506040513d601f19601f820116820180604052508101906111ac919061177e565b91506111339050565b60405163c0ac75cf60e01b8152600282900b60048201526001600160a01b0385169063c0ac75cf906024016040805180830381865afa1580156111fc573d6000803e3d6000fd5b505050506040513d601f19601f82011682018060405250810190611220919061177e565b5091505b9250929050565b600081831161123a5781610501565b5090919050565b60008160000361125357506000919050565b60005b821561044e57611267600a846116b4565b9250611272816117ad565b9050611256565b806001600160801b038116811461128f57600080fd5b919050565b60006112a1848484610454565b9050600082806112b3576112b361169e565b84860911156105015760001981106112ca57600080fd5b80610e31816117ad565b60405180604001604052806002906020820280368337509192915050565b6001600160a01b038116811461130757600080fd5b50565b8060020b811461130757600080fd5b600080600080600060a0868803121561133157600080fd5b853561133c816112f2565b9450602086013561134c8161130a565b9350604086013561135c8161130a565b94979396509394606081013594506080013592915050565b6000806000806080858703121561138a57600080fd5b8435611395816112f2565b935060208501356113a58161130a565b925060408501356113b58161130a565b915060608501356001600160801b03811681146113d157600080fd5b939692955090935050565b6000806000606084860312156113f157600080fd5b83356113fc816112f2565b9250602084013561140c8161130a565b9150604084013561141c8161130a565b809150509250925092565b60408101818360005b600280821061143f5750611457565b8251900b835260209283019290910190600101611430565b50505092915050565b60006020828403121561147257600080fd5b8135610501816112f2565b60008060006060848603121561149257600080fd5b505081359360208301359350604090920135919050565b600080604083850312156114bc57600080fd5b82356114c7816112f2565b915060208301356114d7816112f2565b809150509250929050565b600080600080608085870312156114f857600080fd5b8451611503816112f2565b60208601519094506115148161130a565b60408601519093506115258161130a565b606086015190925080151581146113d157600080fd5b60006020828403121561154d57600080fd5b81516105018161130a565b60006020828403121561156a57600080fd5b8151610501816112f2565b60006020828403121561158757600080fd5b815160ff8116811461050157600080fd5b634e487b7160e01b600052601160045260246000fd5b600181815b808511156115e95781600019048211156115cf576115cf611598565b808516156115dc57918102915b93841c93908002906115b3565b509250929050565b6000826116005750600161044e565b8161160d5750600061044e565b8160018114611623576002811461162d57611649565b600191505061044e565b60ff84111561163e5761163e611598565b50506001821b61044e565b5060208310610133831016604e8410600b841016171561166c575081810a61044e565b61167683836115ae565b806000190482111561168a5761168a611598565b029392505050565b600061050183836115f1565b634e487b7160e01b600052601260045260246000fd5b6000826116c3576116c361169e565b500490565b8181038181111561044e5761044e611598565b8082018082111561044e5761044e611598565b808202811582820484141761044e5761044e611598565b6000600160ff1b820161171a5761171a611598565b5060000390565b60008160020b627fffff19810361173a5761173a611598565b60000392915050565b6000826117525761175261169e565b500690565b6001600160a01b0382811682821603908082111561177757611777611598565b5092915050565b6000806040838503121561179157600080fd5b825161179c8161130a565b60208401519092506114d78161130a565b6000600182016117bf576117bf611598565b506001019056fea2646970667358221220bf5142b5dc288ec997919b6dc54b837983344ed446791fc79690ea241d1647dd64736f6c63430008110033",
  "devdoc": {
    "kind": "dev",
    "methods": {
      "getPrice(address,address)": {
        "returns": {
          "_0": "price with decimals of paired token"
        }
      },
      "mulDiv(uint256,uint256,uint256)": {
        "details": "Credit to Remco Bloemen under MIT license https://xn--2-umb.com/21/muldiv",
        "params": {
          "a": "The multiplicand",
          "b": "The multiplier",
          "denominator": "The divisor"
        },
        "returns": {
          "result": "The 256-bit result"
        }
      }
    },
    "stateVariables": {
      "MAX_SQRT_RATIO": {
        "details": "The maximum value that can be returned from #getSqrtRatioAtTick. Equivalent to getSqrtRatioAtTick(MAX_TICK)"
      },
      "MAX_TICK": {
        "details": "The maximum tick that may be passed to #getSqrtRatioAtTick computed from log base 1.0001 of 2**128"
      },
      "MIN_SQRT_RATIO": {
        "details": "The minimum value that can be returned from #getSqrtRatioAtTick. Equivalent to getSqrtRatioAtTick(MIN_TICK)"
      },
      "MIN_TICK": {
        "details": "The minimum tick that may be passed to #getSqrtRatioAtTick computed from log base 1.0001 of 2**-128"
      }
    },
    "version": 1
  },
  "userdoc": {
    "kind": "user",
    "methods": {
      "getAmountsForLiquidity(uint160,int24,int24,uint128)": {
        "notice": "Computes the token0 and token1 value for a given amount of liquidity, the current pool prices and the prices at the tick boundaries"
      },
      "getLiquidityForAmounts(uint160,int24,int24,uint256,uint256)": {
        "notice": "Computes the maximum amount of liquidity received for a given amount of token0, token1, the current pool prices and the prices at the tick boundaries"
      },
      "getPrice(address,address)": {
        "notice": "Calculates price in pool"
      },
      "mulDiv(uint256,uint256,uint256)": {
        "notice": "Calculates floor(abdenominator) with full precision. Throws if result overflows a uint or denominator == 0"
      }
    },
    "version": 1
  },
  "storageLayout": {
    "storage": [],
    "types": null
  }
}