{
  "address": "0x66CD058213669a21af45817cA95eD2504B9be336",
  "abi": [
    {
      "anonymous": false,
      "inputs": [
        {
          "indexed": false,
          "internalType": "address",
          "name": "controller",
          "type": "address"
        },
        {
          "indexed": false,
          "internalType": "uint256",
          "name": "ts",
          "type": "uint256"
        },
        {
          "indexed": false,
          "internalType": "uint256",
          "name": "block",
          "type": "uint256"
        }
      ],
      "name": "ContractInitialized",
      "type": "event"
    },
    {
      "anonymous": false,
      "inputs": [
        {
          "indexed": false,
          "internalType": "uint8",
          "name": "version",
          "type": "uint8"
        }
      ],
      "name": "Initialized",
      "type": "event"
    },
    {
      "anonymous": false,
      "inputs": [
        {
          "indexed": false,
          "internalType": "uint256[]",
          "name": "withdrawnAmounts",
          "type": "uint256[]"
        }
      ],
      "name": "OnDepositorEmergencyExit",
      "type": "event"
    },
    {
      "anonymous": false,
      "inputs": [
        {
          "indexed": false,
          "internalType": "uint256[]",
          "name": "amounts",
          "type": "uint256[]"
        },
        {
          "indexed": false,
          "internalType": "uint256[]",
          "name": "consumedAmounts",
          "type": "uint256[]"
        }
      ],
      "name": "OnDepositorEnter",
      "type": "event"
    },
    {
      "anonymous": false,
      "inputs": [
        {
          "indexed": false,
          "internalType": "uint256",
          "name": "liquidityAmount",
          "type": "uint256"
        },
        {
          "indexed": false,
          "internalType": "uint256[]",
          "name": "withdrawnAmounts",
          "type": "uint256[]"
        }
      ],
      "name": "OnDepositorExit",
      "type": "event"
    },
    {
      "anonymous": false,
      "inputs": [
        {
          "indexed": false,
          "internalType": "uint256",
          "name": "investedAssetsNewPrices",
          "type": "uint256"
        },
        {
          "indexed": false,
          "internalType": "uint256",
          "name": "earnedByPrices",
          "type": "uint256"
        },
        {
          "indexed": false,
          "internalType": "uint256",
          "name": "earnedHandleRewards",
          "type": "uint256"
        },
        {
          "indexed": false,
          "internalType": "uint256",
          "name": "lostHandleRewards",
          "type": "uint256"
        },
        {
          "indexed": false,
          "internalType": "uint256",
          "name": "earnedDeposit",
          "type": "uint256"
        },
        {
          "indexed": false,
          "internalType": "uint256",
          "name": "lostDeposit",
          "type": "uint256"
        }
      ],
      "name": "OnHardWorkEarnedLost",
      "type": "event"
    },
    {
      "anonymous": false,
      "inputs": [
        {
          "indexed": false,
          "internalType": "uint256",
          "name": "value",
          "type": "uint256"
        },
        {
          "indexed": false,
          "internalType": "address",
          "name": "oldLogic",
          "type": "address"
        }
      ],
      "name": "RevisionIncreased",
      "type": "event"
    },
    {
      "inputs": [],
      "name": "CONTROLLABLE_VERSION",
      "outputs": [
        {
          "internalType": "string",
          "name": "",
          "type": "string"
        }
      ],
      "stateMutability": "view",
      "type": "function"
    },
    {
      "inputs": [],
      "name": "CONVERTER_STRATEGY_BASE_VERSION",
      "outputs": [
        {
          "internalType": "string",
          "name": "",
          "type": "string"
        }
      ],
      "stateMutability": "view",
      "type": "function"
    },
    {
      "inputs": [],
      "name": "KYBER_DEPOSITOR_VERSION",
      "outputs": [
        {
          "internalType": "string",
          "name": "",
          "type": "string"
        }
      ],
      "stateMutability": "view",
      "type": "function"
    },
    {
      "inputs": [],
      "name": "NAME",
      "outputs": [
        {
          "internalType": "string",
          "name": "",
          "type": "string"
        }
      ],
      "stateMutability": "view",
      "type": "function"
    },
    {
      "inputs": [],
      "name": "PLATFORM",
      "outputs": [
        {
          "internalType": "string",
          "name": "",
          "type": "string"
        }
      ],
      "stateMutability": "view",
      "type": "function"
    },
    {
      "inputs": [],
      "name": "STRATEGY_BASE_VERSION",
      "outputs": [
        {
          "internalType": "string",
          "name": "",
          "type": "string"
        }
      ],
      "stateMutability": "view",
      "type": "function"
    },
    {
      "inputs": [],
      "name": "STRATEGY_VERSION",
      "outputs": [
        {
          "internalType": "string",
          "name": "",
          "type": "string"
        }
      ],
      "stateMutability": "view",
      "type": "function"
    },
    {
      "inputs": [],
      "name": "asset",
      "outputs": [
        {
          "internalType": "address",
          "name": "",
          "type": "address"
        }
      ],
      "stateMutability": "view",
      "type": "function"
    },
    {
      "inputs": [],
      "name": "calcInvestedAssets",
      "outputs": [
        {
          "internalType": "uint256",
          "name": "investedAssetsOut",
          "type": "uint256"
        }
      ],
      "stateMutability": "nonpayable",
      "type": "function"
    },
    {
      "inputs": [],
      "name": "canFarm",
      "outputs": [
        {
          "internalType": "bool",
          "name": "",
          "type": "bool"
        }
      ],
      "stateMutability": "view",
      "type": "function"
    },
    {
      "inputs": [],
      "name": "capacity",
      "outputs": [
        {
          "internalType": "uint256",
          "name": "",
          "type": "uint256"
        }
      ],
      "stateMutability": "view",
      "type": "function"
    },
    {
      "inputs": [
        {
          "internalType": "uint256",
          "name": "pId",
          "type": "uint256"
        }
      ],
      "name": "changePId",
      "outputs": [],
      "stateMutability": "nonpayable",
      "type": "function"
    },
    {
      "inputs": [],
      "name": "claim",
      "outputs": [],
      "stateMutability": "nonpayable",
      "type": "function"
    },
    {
      "inputs": [],
      "name": "compoundRatio",
      "outputs": [
        {
          "internalType": "uint256",
          "name": "",
          "type": "uint256"
        }
      ],
      "stateMutability": "view",
      "type": "function"
    },
    {
      "inputs": [],
      "name": "controller",
      "outputs": [
        {
          "internalType": "address",
          "name": "",
          "type": "address"
        }
      ],
      "stateMutability": "view",
      "type": "function"
    },
    {
      "inputs": [],
      "name": "converter",
      "outputs": [
        {
          "internalType": "contract ITetuConverter",
          "name": "",
          "type": "address"
        }
      ],
      "stateMutability": "view",
      "type": "function"
    },
    {
      "inputs": [],
      "name": "created",
      "outputs": [
        {
          "internalType": "uint256",
          "name": "",
          "type": "uint256"
        }
      ],
      "stateMutability": "view",
      "type": "function"
    },
    {
      "inputs": [],
      "name": "createdBlock",
      "outputs": [
        {
          "internalType": "uint256",
          "name": "",
          "type": "uint256"
        }
      ],
      "stateMutability": "view",
      "type": "function"
    },
    {
      "inputs": [],
      "name": "debtToInsurance",
      "outputs": [
        {
          "internalType": "int256",
          "name": "",
          "type": "int256"
        }
      ],
      "stateMutability": "view",
      "type": "function"
    },
    {
      "inputs": [],
      "name": "doHardWork",
      "outputs": [
        {
          "internalType": "uint256",
          "name": "earned",
          "type": "uint256"
        },
        {
          "internalType": "uint256",
          "name": "lost",
          "type": "uint256"
        }
      ],
      "stateMutability": "nonpayable",
      "type": "function"
    },
    {
      "inputs": [],
      "name": "emergencyExit",
      "outputs": [],
      "stateMutability": "nonpayable",
      "type": "function"
    },
    {
      "inputs": [],
      "name": "getDefaultState",
      "outputs": [
        {
          "internalType": "address[]",
          "name": "addr",
          "type": "address[]"
        },
        {
          "internalType": "int24[]",
          "name": "tickData",
          "type": "int24[]"
        },
        {
          "internalType": "uint256[]",
          "name": "nums",
          "type": "uint256[]"
        },
        {
          "internalType": "bool[]",
          "name": "boolValues",
          "type": "bool[]"
        }
      ],
      "stateMutability": "view",
      "type": "function"
    },
    {
      "inputs": [],
      "name": "getPropNotUnderlying18",
      "outputs": [
        {
          "internalType": "uint256",
          "name": "",
          "type": "uint256"
        }
      ],
      "stateMutability": "view",
      "type": "function"
    },
    {
      "inputs": [
        {
          "internalType": "uint256",
          "name": "slot",
          "type": "uint256"
        }
      ],
      "name": "getSlot",
      "outputs": [
        {
          "internalType": "bytes32",
          "name": "result",
          "type": "bytes32"
        }
      ],
      "stateMutability": "view",
      "type": "function"
    },
    {
      "inputs": [],
      "name": "getSpecificState",
      "outputs": [
        {
          "internalType": "uint256[]",
          "name": "nums",
          "type": "uint256[]"
        },
        {
          "internalType": "bool[]",
          "name": "flags",
          "type": "bool[]"
        }
      ],
      "stateMutability": "view",
      "type": "function"
    },
    {
      "inputs": [
        {
          "internalType": "address",
          "name": "oldLogic",
          "type": "address"
        }
      ],
      "name": "increaseRevision",
      "outputs": [],
      "stateMutability": "nonpayable",
      "type": "function"
    },
    {
      "inputs": [
        {
          "internalType": "address",
          "name": "controller_",
          "type": "address"
        },
        {
          "internalType": "address",
          "name": "splitter_",
          "type": "address"
        },
        {
          "internalType": "address",
          "name": "converter_",
          "type": "address"
        },
        {
          "internalType": "address",
          "name": "pool_",
          "type": "address"
        },
        {
          "internalType": "int24",
          "name": "tickRange_",
          "type": "int24"
        },
        {
          "internalType": "int24",
          "name": "rebalanceTickRange_",
          "type": "int24"
        },
        {
          "internalType": "bool",
          "name": "isStablePool",
          "type": "bool"
        },
        {
          "internalType": "uint256",
          "name": "pId",
          "type": "uint256"
        },
        {
          "internalType": "uint256[4]",
          "name": "fuseThresholds",
          "type": "uint256[4]"
        }
      ],
      "name": "init",
      "outputs": [],
      "stateMutability": "nonpayable",
      "type": "function"
    },
    {
      "inputs": [
        {
          "internalType": "uint256",
          "name": "",
          "type": "uint256"
        },
        {
          "internalType": "bool",
          "name": "updateTotalAssetsBeforeInvest_",
          "type": "bool"
        }
      ],
      "name": "investAll",
      "outputs": [
        {
          "internalType": "uint256",
          "name": "strategyLoss",
          "type": "uint256"
        }
      ],
      "stateMutability": "nonpayable",
      "type": "function"
    },
    {
      "inputs": [],
      "name": "investedAssets",
      "outputs": [
        {
          "internalType": "uint256",
          "name": "",
          "type": "uint256"
        }
      ],
      "stateMutability": "view",
      "type": "function"
    },
    {
      "inputs": [
        {
          "internalType": "address",
          "name": "_value",
          "type": "address"
        }
      ],
      "name": "isController",
      "outputs": [
        {
          "internalType": "bool",
          "name": "",
          "type": "bool"
        }
      ],
      "stateMutability": "view",
      "type": "function"
    },
    {
      "inputs": [
        {
          "internalType": "address",
          "name": "_value",
          "type": "address"
        }
      ],
      "name": "isGovernance",
      "outputs": [
        {
          "internalType": "bool",
          "name": "",
          "type": "bool"
        }
      ],
      "stateMutability": "view",
      "type": "function"
    },
    {
      "inputs": [],
      "name": "isReadyToHardWork",
      "outputs": [
        {
          "internalType": "bool",
          "name": "",
          "type": "bool"
        }
      ],
      "stateMutability": "view",
      "type": "function"
    },
    {
      "inputs": [
        {
          "internalType": "address",
          "name": "",
          "type": "address"
        }
      ],
      "name": "liquidationThresholds",
      "outputs": [
        {
          "internalType": "uint256",
          "name": "",
          "type": "uint256"
        }
      ],
      "stateMutability": "view",
      "type": "function"
    },
    {
      "inputs": [],
      "name": "needRebalance",
      "outputs": [
        {
          "internalType": "bool",
          "name": "",
          "type": "bool"
        }
      ],
      "stateMutability": "view",
      "type": "function"
    },
    {
      "inputs": [
        {
          "internalType": "address",
          "name": "",
          "type": "address"
        },
        {
          "internalType": "address",
          "name": "",
          "type": "address"
        },
        {
          "internalType": "uint256",
          "name": "",
          "type": "uint256"
        },
        {
          "internalType": "bytes",
          "name": "",
          "type": "bytes"
        }
      ],
      "name": "onERC721Received",
      "outputs": [
        {
          "internalType": "bytes4",
          "name": "",
          "type": "bytes4"
        }
      ],
      "stateMutability": "pure",
      "type": "function"
    },
    {
      "inputs": [
        {
          "internalType": "address[]",
          "name": "assets_",
          "type": "address[]"
        },
        {
          "internalType": "uint256[]",
          "name": "amounts_",
          "type": "uint256[]"
        }
      ],
      "name": "onTransferAmounts",
      "outputs": [],
      "stateMutability": "nonpayable",
      "type": "function"
    },
    {
      "inputs": [],
      "name": "performanceFee",
      "outputs": [
        {
          "internalType": "uint256",
          "name": "",
          "type": "uint256"
        }
      ],
      "stateMutability": "view",
      "type": "function"
    },
    {
      "inputs": [],
      "name": "performanceFeeRatio",
      "outputs": [
        {
          "internalType": "uint256",
          "name": "",
          "type": "uint256"
        }
      ],
      "stateMutability": "view",
      "type": "function"
    },
    {
      "inputs": [],
      "name": "performanceReceiver",
      "outputs": [
        {
          "internalType": "address",
          "name": "",
          "type": "address"
        }
      ],
      "stateMutability": "view",
      "type": "function"
    },
    {
      "inputs": [],
      "name": "previousImplementation",
      "outputs": [
        {
          "internalType": "address",
          "name": "",
          "type": "address"
        }
      ],
      "stateMutability": "view",
      "type": "function"
    },
    {
      "inputs": [
        {
          "internalType": "bytes",
          "name": "planEntryData",
          "type": "bytes"
        }
      ],
      "name": "quoteWithdrawByAgg",
      "outputs": [
        {
          "internalType": "address",
          "name": "tokenToSwap",
          "type": "address"
        },
        {
          "internalType": "uint256",
          "name": "amountToSwap",
          "type": "uint256"
        }
      ],
      "stateMutability": "nonpayable",
      "type": "function"
    },
    {
      "inputs": [
        {
          "internalType": "bool",
          "name": "checkNeedRebalance",
          "type": "bool"
        }
      ],
      "name": "rebalanceNoSwaps",
      "outputs": [],
      "stateMutability": "nonpayable",
      "type": "function"
    },
    {
      "inputs": [],
      "name": "reinvestThresholdPercent",
      "outputs": [
        {
          "internalType": "uint256",
          "name": "",
          "type": "uint256"
        }
      ],
      "stateMutability": "view",
      "type": "function"
    },
    {
      "inputs": [
        {
          "internalType": "address",
          "name": "theAsset_",
          "type": "address"
        },
        {
          "internalType": "uint256",
          "name": "amount_",
          "type": "uint256"
        }
      ],
      "name": "requirePayAmountBack",
      "outputs": [
        {
          "internalType": "uint256",
          "name": "amountOut",
          "type": "uint256"
        }
      ],
      "stateMutability": "nonpayable",
      "type": "function"
    },
    {
      "inputs": [],
      "name": "revision",
      "outputs": [
        {
          "internalType": "uint256",
          "name": "",
          "type": "uint256"
        }
      ],
      "stateMutability": "view",
      "type": "function"
    },
    {
      "inputs": [
        {
          "internalType": "uint256",
          "name": "value",
          "type": "uint256"
        }
      ],
      "name": "setCompoundRatio",
      "outputs": [],
      "stateMutability": "nonpayable",
      "type": "function"
    },
    {
      "inputs": [
        {
          "internalType": "uint256",
          "name": "status",
          "type": "uint256"
        }
      ],
      "name": "setFuseStatus",
      "outputs": [],
      "stateMutability": "nonpayable",
      "type": "function"
    },
    {
      "inputs": [
        {
          "internalType": "uint256[4]",
          "name": "values",
          "type": "uint256[4]"
        }
      ],
      "name": "setFuseThresholds",
      "outputs": [],
      "stateMutability": "nonpayable",
      "type": "function"
    },
    {
      "inputs": [
        {
          "internalType": "address",
          "name": "token",
          "type": "address"
        },
        {
          "internalType": "uint256",
          "name": "amount",
          "type": "uint256"
        }
      ],
      "name": "setLiquidationThreshold",
      "outputs": [],
      "stateMutability": "nonpayable",
      "type": "function"
    },
    {
      "inputs": [
        {
          "internalType": "uint256",
          "name": "percent_",
          "type": "uint256"
        }
      ],
      "name": "setReinvestThresholdPercent",
      "outputs": [],
      "stateMutability": "nonpayable",
      "type": "function"
    },
    {
      "inputs": [
        {
          "internalType": "address",
          "name": "strategyProfitHolder",
          "type": "address"
        }
      ],
      "name": "setStrategyProfitHolder",
      "outputs": [],
      "stateMutability": "nonpayable",
      "type": "function"
    },
    {
      "inputs": [
        {
          "internalType": "string",
          "name": "name",
          "type": "string"
        }
      ],
      "name": "setStrategySpecificName",
      "outputs": [],
      "stateMutability": "nonpayable",
      "type": "function"
    },
    {
      "inputs": [
        {
          "internalType": "uint256",
          "name": "done",
          "type": "uint256"
        }
      ],
      "name": "setWithdrawDone",
      "outputs": [],
      "stateMutability": "nonpayable",
      "type": "function"
    },
    {
      "inputs": [
        {
          "internalType": "uint256",
          "name": "fee_",
          "type": "uint256"
        },
        {
          "internalType": "address",
          "name": "receiver_",
          "type": "address"
        },
        {
          "internalType": "uint256",
          "name": "ratio_",
          "type": "uint256"
        }
      ],
      "name": "setupPerformanceFee",
      "outputs": [],
      "stateMutability": "nonpayable",
      "type": "function"
    },
    {
      "inputs": [],
      "name": "splitter",
      "outputs": [
        {
          "internalType": "address",
          "name": "",
          "type": "address"
        }
      ],
      "stateMutability": "view",
      "type": "function"
    },
    {
      "inputs": [],
      "name": "strategySpecificName",
      "outputs": [
        {
          "internalType": "string",
          "name": "",
          "type": "string"
        }
      ],
      "stateMutability": "view",
      "type": "function"
    },
    {
      "inputs": [
        {
          "internalType": "bytes4",
          "name": "interfaceId",
          "type": "bytes4"
        }
      ],
      "name": "supportsInterface",
      "outputs": [
        {
          "internalType": "bool",
          "name": "",
          "type": "bool"
        }
      ],
      "stateMutability": "view",
      "type": "function"
    },
    {
      "inputs": [],
      "name": "totalAssets",
      "outputs": [
        {
          "internalType": "uint256",
          "name": "",
          "type": "uint256"
        }
      ],
      "stateMutability": "view",
      "type": "function"
    },
    {
      "inputs": [],
      "name": "withdrawAllToSplitter",
      "outputs": [
        {
          "internalType": "uint256",
          "name": "strategyLoss",
          "type": "uint256"
        }
      ],
      "stateMutability": "nonpayable",
      "type": "function"
    },
    {
      "inputs": [
        {
          "internalType": "address",
          "name": "tokenToSwap_",
          "type": "address"
        },
        {
          "internalType": "address",
          "name": "aggregator_",
          "type": "address"
        },
        {
          "internalType": "uint256",
          "name": "amountToSwap_",
          "type": "uint256"
        },
        {
          "internalType": "bytes",
          "name": "swapData",
          "type": "bytes"
        },
        {
          "internalType": "bytes",
          "name": "planEntryData",
          "type": "bytes"
        },
        {
          "internalType": "uint256",
          "name": "entryToPool",
          "type": "uint256"
        }
      ],
      "name": "withdrawByAggStep",
      "outputs": [
        {
          "internalType": "bool",
          "name": "completed",
          "type": "bool"
        }
      ],
      "stateMutability": "nonpayable",
      "type": "function"
    },
    {
      "inputs": [
        {
          "internalType": "uint256",
          "name": "amount",
          "type": "uint256"
        }
      ],
      "name": "withdrawToSplitter",
      "outputs": [
        {
          "internalType": "uint256",
          "name": "strategyLoss",
          "type": "uint256"
        }
      ],
      "stateMutability": "nonpayable",
      "type": "function"
    }
  ],
  "transactionHash": "0xec103b0192e6a6e4579c1984f83f341d0889519d645e351ea2708432e4ca42e2",
  "args": [],
  "numDeployments": 8,
  "solcInputHash": "beebd18f82b76c6876687623c23a6793",
  "bytecode": "0x60806040523480156200001157600080fd5b506200001c62000022565b620000e3565b600054610100900460ff16156200008f5760405162461bcd60e51b815260206004820152602760248201527f496e697469616c697a61626c653a20636f6e747261637420697320696e697469604482015266616c697a696e6760c81b606482015260840160405180910390fd5b60005460ff90811614620000e1576000805460ff191660ff9081179091556040519081527f7f26b83ff96e1f2b6a682f133852f6798a09c465da95921460cefb38474024989060200160405180910390a15b565b615e5480620000f36000396000f3fe608060405234801561001057600080fd5b506004361061037f5760003560e01c806365f50a8d116101e45780639d0bcca01161011a578063ce2f1842116100ad578063dee1f0e41161007c578063dee1f0e4146107d4578063dfeb1032146107e7578063f77c4791146107fa578063ffb86c6a1461080257600080fd5b8063ce2f1842146107b1578063ceee861d14610589578063d295ea70146107b9578063de3d047c146107c157600080fd5b8063b429afeb116100e9578063b429afeb1461074a578063b77c975b1461075d578063bd38837b1461078f578063cd4c8156146107a057600080fd5b80639d0bcca0146106f0578063a3f4df7e146106f8578063ab9e3eee1461072f578063b24575561461073757600080fd5b80637cc96380116101925780638778878211610161578063877887821461069e57806387c7f770146106a6578063936725ec146106b957806396b7b14e146106dd57600080fd5b80637cc96380146106585780637eba7ba6146106605780637efc77fa1461067257806380e7ac7c1461069657600080fd5b806365f50a8d146105c05780636b5fba5a146105d35780636ffb4c8e146105e65780637063a237146105f957806371ee01751461060c57806373a50ef514610614578063783274381461063857600080fd5b80634593144c116102b957806352bbbb7411610267578063569c39cb11610236578063569c39cb1461055b5780635cfc1a511461057f5780636207a0cf1461058957806363e27734146105ad57600080fd5b806352bbbb74146105105780635412335d14610526578063546799631461053e5780635641ec031461055357600080fd5b80634593144c146104ad5780634ad0b684146104b55780634ba31b01146104bd5780634e71d92d146104c55780634fa5d854146104cd5780634fac6ccd146104ea57806351e03fbe146104fd57600080fd5b80631d2dca9e1161033157806333c5b58e1161030057806333c5b58e1461046757806338d52e0f1461046f5780633cd8045e1461048957806342fdb4711461049a57600080fd5b80631d2dca9e146104315780632221eb3c14610444578063261efa1214610457578063325a19f11461045f57600080fd5b806301e1d1141461038457806301ffc9a71461039f578063066a6fc3146103c25780630acd12c7146103d55780630d923929146103dd5780630e30428d146103f2578063150b7a0214610405575b600080fd5b61038c61080a565b6040519081526020015b60405180910390f35b6103b26103ad366004614a0f565b610895565b6040519015158152602001610396565b6103b26103d0366004614b14565b6108db565b61038c610aba565b6103f06103eb366004614bcb565b610bdc565b005b6103f0610400366004614c83565b610ef4565b610418610413366004614caf565b610f98565b6040516001600160e01b03199091168152602001610396565b6103f061043f366004614d1a565b610fa9565b6103f0610452366004614d37565b6111a9565b60685461038c565b61038c61121f565b61038c61124f565b6064546001600160a01b03165b6040516103969190614d50565b6065546001600160a01b031661047c565b6103f06104a8366004614d37565b6112cf565b61038c6113be565b60975461038c565b61038c6113ee565b6103f0611465565b6104d56114df565b60408051928352602083019190915201610396565b6103f06104f8366004614d64565b611544565b61038c61050b366004614d37565b611676565b61051861183e565b604051610396929190614dee565b61052e611b2e565b6040516103969493929190614e1c565b610546611bbd565b6040516103969190614f10565b6103f0611c52565b610546604051806040016040528060058152602001640312e302e360dc1b81525081565b600160ff1b61038c565b610546604051806040016040528060058152602001640332e312e360dc1b81525081565b6103f06105bb366004614f23565b611ceb565b6103f06105ce366004614d37565b611dc9565b6103f06105e1366004614d64565b611e97565b6103f06105f4366004614d37565b611f28565b6103f0610607366004614f94565b611fb0565b60995461038c565b610546604051806040016040528060058152602001640332e302e360dc1b81525081565b61038c610646366004614d64565b60966020526000908152604090205481565b61038c61204e565b61038c61066e366004614d37565b5490565b6105466040518060400160405280600581526020016425bcb132b960d91b81525081565b6103b261207e565b60675461038c565b61038c6106b4366004614c83565b612104565b61054660405180604001604052806005815260200164332e302e3160d81b81525081565b6103f06106eb366004615055565b6123ea565b61047c61248f565b610546604051806040016040528060188152602001774b7962657220436f6e76657274657220537472617465677960401b81525081565b6103b26124bf565b61038c610745366004615116565b6124d9565b6103b2610758366004614d64565b612588565b61077061076b366004615146565b6125ad565b604080516001600160a01b039093168352602083019190915201610396565b6098546001600160a01b031661047c565b6066546001600160a01b031661047c565b609a5461038c565b60695461038c565b6103f06107cf366004614d37565b61269f565b6103b26107e2366004614d64565b6126fc565b6103f06107f536600461517a565b612781565b61047c612829565b6103b2612859565b600061081560975490565b6064546040516370a0823160e01b81526001600160a01b03909116906370a0823190610845903090600401614d50565b602060405180830381865afa158015610862573d6000803e3d6000fd5b505050506040513d601f19601f8201168201806040525081019061088691906151f7565b6108909190615226565b905090565b60006001600160e01b03198216631e94dddf60e01b14806108c657506001600160e01b0319821663f73147b360e01b145b806108d557506108d582612976565b92915050565b60008060006108e861299b565b915091506060738064be7e82EbB4dD148894Ed528f28f9D3BC686663911ec05360976040518060a001604052808e6001600160a01b03166001600160a01b031681526020018d6001600160a01b03166001600160a01b0316815260200161094d612829565b6001600160a01b039081168252609854811660208084019190915260655490911660409283015281516080810183528e8152908101899052808201889052606081018b905290516001600160e01b031960e086901b1681526109be939291908d908d9060019060969060040161525c565b600060405180830381865af41580156109db573d6000803e3d6000fd5b505050506040513d6000823e601f3d908101601f19168201604052610a039190810190615340565b9094509050610a1181612a51565b6000601055838015610a265750610a26612a80565b15610a31576001600f555b606480546040516368f9467b60e01b81526001600160a01b039091166004820152602481018490526097604482015273d046d0428bDD6D5cCf67fE2cbC8d5039c24A8f6a916368f9467b910160006040518083038186803b158015610a9557600080fd5b505af4158015610aa9573d6000803e3d6000fd5b505050505050509695505050505050565b606554606454604051633e53813360e11b81526000926001600160a01b03908116921690839073c19A300bC5f9eC67BDd2D7D8FCeC05e96766d9d190637ca7026690610b0c9086908690600401615386565b602060405180830381865af4158015610b29573d6000803e3d6000fd5b505050506040513d601f19601f82011682018060405250810190610b4d91906151f7565b90506000806000610b5c612a92565b92509250925073c19A300bC5f9eC67BDd2D7D8FCeC05e96766d9d1639ad00ec2868686868b6040518663ffffffff1660e01b8152600401610ba19594939291906153a0565b60006040518083038186803b158015610bb957600080fd5b505af4158015610bcd573d6000803e3d6000fd5b50929998505050505050505050565b600054610100900460ff1615808015610bfc5750600054600160ff909116105b80610c165750303b158015610c16575060005460ff166001145b610c7e5760405162461bcd60e51b815260206004820152602e60248201527f496e697469616c697a61626c653a20636f6e747261637420697320616c72656160448201526d191e481a5b9a5d1a585b1a5e995960921b60648201526084015b60405180910390fd5b6000805460ff191660011790558015610ca1576000805461ff0019166101001790555b610cac8a8a8a612aad565b738064be7e82EbB4dD148894Ed528f28f9D3BC6866630bf00b70600160405180604001604052808e6001600160a01b03166001600160a01b031681526020018b6001600160a01b03166001600160a01b031681525089898e6001600160a01b03166338d52e0f6040518163ffffffff1660e01b8152600401602060405180830381865afa158015610d41573d6000803e3d6000fd5b505050506040513d601f19601f82011682018060405250810190610d6591906153d0565b8a896040518863ffffffff1660e01b8152600401610d899796959493929190615419565b60006040518083038186803b158015610da157600080fd5b505af4158015610db5573d6000803e3d6000fd5b50505060338490555060405163bd85be2960e01b81526001600482015273c19A300bC5f9eC67BDd2D7D8FCeC05e96766d9d190637fc1c15b90606490738064be7e82EbB4dD148894Ed528f28f9D3BC68669063bd85be2990602401600060405180830381865af4158015610e2d573d6000803e3d6000fd5b505050506040513d6000823e601f3d908101601f19168201604052610e55919081019061546a565b6040518363ffffffff1660e01b8152600401610e729291906154d7565b60006040518083038186803b158015610e8a57600080fd5b505af4158015610e9e573d6000803e3d6000fd5b505050508015610ee8576000805461ff0019169055604051600181527f7f26b83ff96e1f2b6a682f133852f6798a09c465da95921460cefb38474024989060200160405180910390a15b50505050505050505050565b73d046d0428bDD6D5cCf67fE2cbC8d5039c24A8f6a63142395ef610f16612829565b6040516001600160e01b031960e084901b1681526001600160a01b03918216600482015290851660248201526044810184905260640160006040518083038186803b158015610f6457600080fd5b505af4158015610f78573d6000803e3d6000fd5b5050506001600160a01b0390921660009081526096602052604090205550565b630a85bd0160e11b5b949350505050565b6000610fb3612829565b60405163124fdbb760e21b815290915073c19A300bC5f9eC67BDd2D7D8FCeC05e96766d9d19063493f6edc90610fed908490600401614d50565b60006040518083038186803b15801561100557600080fd5b505af4158015611019573d6000803e3d6000fd5b50506040516304de78eb60e11b81526001600482015260009250829150738064be7e82EbB4dD148894Ed528f28f9D3BC6866906309bcf1d6906024016040805180830381865af4158015611071573d6000803e3d6000fd5b505050506040513d601f19601f8201168201806040525081019061109591906154f0565b9150915081806110a25750805b156110ac57600093505b6000806110b761299b565b604080518082019091526098546001600160a01b031681529193509150600090738064be7e82EbB4dD148894Ed528f28f9D3BC68669063e7530e7a90609790600190602081016111068c612b4f565b6001600160a01b0390811690915260655488918a91168e60968e8061112857508d5b6040518a63ffffffff1660e01b815260040161114c9998979695949392919061551f565b600060405180830381865af4158015611169573d6000803e3d6000fd5b505050506040513d6000823e601f3d908101601f19168201604052611191919081019061557a565b905061119c81612a51565b5050426010555050505050565b73c19A300bC5f9eC67BDd2D7D8FCeC05e96766d9d163493f6edc6111cb612829565b6040518263ffffffff1660e01b81526004016111e79190614d50565b60006040518083038186803b1580156111ff57600080fd5b505af4158015611213573d6000803e3d6000fd5b505050600f9190915550565b600061089061066e60017f6f55f470bdc9cb5f04223fd822021061668e4dccb43e8727b295106dc9769c8b6155ae565b600073c19A300bC5f9eC67BDd2D7D8FCeC05e96766d9d163493f6edc611273612829565b6040518263ffffffff1660e01b815260040161128f9190614d50565b60006040518083038186803b1580156112a757600080fd5b505af41580156112bb573d6000803e3d6000fd5b505050506112c7612bb3565b509092915050565b73c19A300bC5f9eC67BDd2D7D8FCeC05e96766d9d163493f6edc6112f1612829565b6040518263ffffffff1660e01b815260040161130d9190614d50565b60006040518083038186803b15801561132557600080fd5b505af4158015611339573d6000803e3d6000fd5b5073DAFAF8466Da28008b20C244f3242B0439922F0189250636bffb34691506006905083600381111561136e5761136e6155c1565b6040518363ffffffff1660e01b815260040161138b9291906155d7565b60006040518083038186803b1580156113a357600080fd5b505af41580156113b7573d6000803e3d6000fd5b5050505050565b600061089061066e60017f812a673dfca07956350df10f8a654925f561d7a0da09bdbe79e653939a14d9f16155ae565b604051630a3c2bb160e21b815260016004820152600090738064be7e82EbB4dD148894Ed528f28f9D3BC6866906328f0aec490602401602060405180830381865af4158015611441573d6000803e3d6000fd5b505050506040513d601f19601f8201168201806040525081019061089091906151f7565b73c19A300bC5f9eC67BDd2D7D8FCeC05e96766d9d163d19cc38a611487612829565b6040518263ffffffff1660e01b81526004016114a39190614d50565b60006040518083038186803b1580156114bb57600080fd5b505af41580156114cf573d6000803e3d6000fd5b505050506114db612c84565b5050565b60655460408051808201909152600a81526914d08e8811195b9a595960b21b60208201526000918291906001600160a01b031633146115315760405162461bcd60e51b8152600401610c759190614f10565b5061153c6001612d40565b915091509091565b3330146115935760405162461bcd60e51b815260206004820152601b60248201527f496e637265617365207265766973696f6e20666f7262696464656e00000000006044820152606401610c75565b60006115c361066e60017f22573091f17911fb166032a3d9e0554aa73d31b7b7ddea4a4dd2995650af84bd6155ae565b6115ce906001615226565b9050611602816115ff60017f22573091f17911fb166032a3d9e0554aa73d31b7b7ddea4a4dd2995650af84bd6155ae565b55565b611631826115ff60017fbfaaa2fb63266ff27c2da975f5894955056f50419af651a81f6c5060581857e46155ae565b604080518281526001600160a01b03841660208201527ff27e2ef832a4eb8ed8ec553b875eecd44764cda95b1c24170e281539e0a869c8910160405180910390a15050565b606554606454604051633e53813360e11b81526000926001600160a01b03908116921690839073c19A300bC5f9eC67BDd2D7D8FCeC05e96766d9d190637ca70266906116c89086908690600401615386565b602060405180830381865af41580156116e5573d6000803e3d6000fd5b505050506040513d601f19601f8201168201806040525081019061170991906151f7565b9050808511156117b55760008061172861172384896155ae565b612efe565b604051631594b05b60e01b8152909850919350915073c19A300bC5f9eC67BDd2D7D8FCeC05e96766d9d190631594b05b9061176f9087908790879087908c906004016153a0565b602060405180830381865af415801561178c573d6000803e3d6000fd5b505050506040513d601f19601f820116820180604052508101906117b091906151f7565b925050505b6040516333bbb20360e11b815260048101869052602481018290526001600160a01b0380841660448301528416606482015273c19A300bC5f9eC67BDd2D7D8FCeC05e96766d9d19063677764069060840160006040518083038186803b15801561181e57600080fd5b505af4158015611832573d6000803e3d6000fd5b50505050505050919050565b6002546040805160038082526080820190925260609283926001600160a01b03909116919060208201848036833750506003546040516370a0823160e01b81529295506001600160a01b0316916370a0823191506118a0908490600401614d50565b602060405180830381865afa1580156118bd573d6000803e3d6000fd5b505050506040513d601f19601f820116820180604052508101906118e191906151f7565b836000815181106118f4576118f4615609565b6020908102919091010152600480546040516370a0823160e01b81526001600160a01b03909116916370a082319161192e91859101614d50565b602060405180830381865afa15801561194b573d6000803e3d6000fd5b505050506040513d601f19601f8201168201806040525081019061196f91906151f7565b8360018151811061198257611982615609565b60209081029190910101526040516370a0823160e01b8152731c954e8fe737f99f68fa1ccda3e51ebdb291948c906370a08231906119c4908490600401614d50565b602060405180830381865afa1580156119e1573d6000803e3d6000fd5b505050506040513d601f19601f82011682018060405250810190611a0591906151f7565b83600281518110611a1857611a18615609565b602090810291909101015260408051600380825260808201909252908160200160208202803683375050603454825192945060ff1691849150600090611a6057611a60615609565b911515602092830291909101909101526040516304de78eb60e11b815260016004820152738064be7e82EbB4dD148894Ed528f28f9D3BC6866906309bcf1d6906024016040805180830381865af4158015611abf573d6000803e3d6000fd5b505050506040513d601f19601f82011682018060405250810190611ae391906154f0565b83600181518110611af657611af6615609565b6020026020010184600281518110611b1057611b10615609565b60200260200101821515151581525082151515158152505050509091565b604051636e81b62960e01b81526001600482015260609081908190819073F9a2e80F33DCd31D67afa675b6A31af09cd9430d90636e81b62990602401600060405180830381865af4158015611b87573d6000803e3d6000fd5b505050506040513d6000823e601f3d908101601f19168201604052611baf91908101906156e7565b935093509350935090919293565b606060646006018054611bcf906157e5565b80601f0160208091040260200160405190810160405280929190818152602001828054611bfb906157e5565b8015611c485780601f10611c1d57610100808354040283529160200191611c48565b820191906000526020600020905b815481529060010190602001808311611c2b57829003601f168201915b5050505050905090565b611c5a612f2f565b73c19A300bC5f9eC67BDd2D7D8FCeC05e96766d9d163bd020682611c7c612829565b6064805460655460405160e086901b6001600160e01b03191681526001600160a01b03948516600482015291841660248301529290921660448301520160006040518083038186803b158015611cd157600080fd5b505af4158015611ce5573d6000803e3d6000fd5b50505050565b73c19A300bC5f9eC67BDd2D7D8FCeC05e96766d9d163493f6edc611d0d612829565b6040518263ffffffff1660e01b8152600401611d299190614d50565b60006040518083038186803b158015611d4157600080fd5b505af4158015611d55573d6000803e3d6000fd5b5050604051637fc1c15b60e01b815273c19A300bC5f9eC67BDd2D7D8FCeC05e96766d9d19250637fc1c15b9150611d95906064908690869060040161581f565b60006040518083038186803b158015611dad57600080fd5b505af4158015611dc1573d6000803e3d6000fd5b505050505050565b73c19A300bC5f9eC67BDd2D7D8FCeC05e96766d9d163493f6edc611deb612829565b6040518263ffffffff1660e01b8152600401611e079190614d50565b60006040518083038186803b158015611e1f57600080fd5b505af4158015611e33573d6000803e3d6000fd5b50506034546040805180820190915260208082527f4b532d3134204c6971756964697479206d75737420626520756e7374616b656490820152925060ff16159050611e915760405162461bcd60e51b8152600401610c759190614f10565b50603355565b73c19A300bC5f9eC67BDd2D7D8FCeC05e96766d9d163493f6edc611eb9612829565b6040518263ffffffff1660e01b8152600401611ed59190614d50565b60006040518083038186803b158015611eed57600080fd5b505af4158015611f01573d6000803e3d6000fd5b5050600280546001600160a01b0319166001600160a01b0394909416939093179092555050565b73d046d0428bDD6D5cCf67fE2cbC8d5039c24A8f6a63d2c3cf25611f4a612829565b6040516001600160e01b031960e084901b1681526001600160a01b0390911660048201526024810184905260440160006040518083038186803b158015611f9057600080fd5b505af4158015611fa4573d6000803e3d6000fd5b50505060999190915550565b73c19A300bC5f9eC67BDd2D7D8FCeC05e96766d9d163ed6b63c16064858585611fd7612829565b6040516001600160e01b031960e088901b168152600481019590955260248501939093526001600160a01b039182166044850152606484015216608482015260a40160006040518083038186803b15801561203157600080fd5b505af4158015612045573d6000803e3d6000fd5b50505050505050565b600061089061066e60017f22573091f17911fb166032a3d9e0554aa73d31b7b7ddea4a4dd2995650af84bd6155ae565b603354604051639ee0b2a960e01b8152600091738064be7e82EbB4dD148894Ed528f28f9D3BC686691639ee0b2a9916120bd9160040190815260200190565b602060405180830381865af41580156120da573d6000803e3d6000fd5b505050506040513d601f19601f820116820180604052508101906120fe9190615855565b15905090565b600061210e6149c7565b61211a84826000612f7a565b805160408051808201909152600a81526914d08e8811195b9a595960b21b6020820152906001600160a01b031633146121665760405162461bcd60e51b8152600401610c759190614f10565b5060408051808201909152601081526f54532d3234207a65726f2076616c756560801b6020820152836121ac5760405162461bcd60e51b8152600401610c759190614f10565b5060001981606001511415604051806040016040528060118152602001701514cb4c4d081ddc9bdb99c8185cdcd95d607a1b815250906121ff5760405162461bcd60e51b8152600401610c759190614f10565b5060008061220d6001612ff4565b608085015160405163513cfdb360e11b81526001600160a01b038a16600482015260248101919091526044810183905260648181018390526084820152919350915073d046d0428bDD6D5cCf67fE2cbC8d5039c24A8f6a9063a279fb669060a401602060405180830381865af415801561228b573d6000803e3d6000fd5b505050506040513d601f19601f820116820180604052508101906122af91906151f7565b60808401526000620186a06122c66103e882615226565b6122d09088615872565b6122da9190615889565b9050808460800151106123065783516122fe906001600160a01b03891690886130be565b8594506123d7565b826000036123415761231d6103e8620186a0615226565b620186a085608001516123309190615872565b61233a9190615889565b94506123d7565b6000620186a06123546103e86002615872565b61236190620186a0615226565b61236b9089615872565b6123759190615889565b905061239085608001518261238a91906155ae565b86613110565b50600061239c89613375565b90508281116123d0576123b46103e8620186a0615226565b6123c1620186a083615872565b6123cb9190615889565b6123d2565b875b965050505b6123df6133e5565b505050505092915050565b60985460408051808201909152600a81526914d08e8811195b9a595960b21b6020820152906001600160a01b031633146124375760405162461bcd60e51b8152600401610c759190614f10565b5080518251146040518060400160405280600d81526020016c54532d3139206c656e6774687360981b815250906124815760405162461bcd60e51b8152600401610c759190614f10565b5061248a6133e5565b505050565b600061089061066e60017fbfaaa2fb63266ff27c2da975f5894955056f50419af651a81f6c5060581857e46155ae565b60006124c9612859565b15801561089057506120fe612a80565b6065546064546040516001625acc3160e01b03198152600092839273c19A300bC5f9eC67BDd2D7D8FCeC05e96766d9d19263ffa533cf9261252b926001600160a01b0391821692911690600401615386565b602060405180830381865af4158015612548573d6000803e3d6000fd5b505050506040513d601f19601f8201168201806040525081019061256c91906151f7565b905080156125815761257e81846133fb565b91505b5092915050565b6000612592612829565b6001600160a01b0316826001600160a01b0316149050919050565b6005546000908190630100000090046001600160801b03168181156125da576125d58261349f565b6125f8565b60408051600280825260608201835290916020830190803683375050505b905073F9a2e80F33DCd31D67afa675b6A31af09cd9430d6350d2e0ba60018784612620612829565b6098546040516001600160e01b031960e088901b16815261265495949392916001600160a01b0316906096906004016158ab565b6040805180830381865af4158015612670573d6000803e3d6000fd5b505050506040513d601f19601f8201168201806040525081019061269491906158fc565b935093505050915091565b73c19A300bC5f9eC67BDd2D7D8FCeC05e96766d9d1636d51f04360646126c3612829565b6040516001600160e01b031960e085901b16815260048101929092526001600160a01b031660248201526044810184905260640161138b565b6000816001600160a01b0316612710612829565b6001600160a01b0316635aa6e6756040518163ffffffff1660e01b8152600401602060405180830381865afa15801561274d573d6000803e3d6000fd5b505050506040513d601f19601f8201168201806040525081019061277191906153d0565b6001600160a01b03161492915050565b73c19A300bC5f9eC67BDd2D7D8FCeC05e96766d9d163493f6edc6127a3612829565b6040518263ffffffff1660e01b81526004016127bf9190614d50565b60006040518083038186803b1580156127d757600080fd5b505af41580156127eb573d6000803e3d6000fd5b5050604051630593c4c960e01b815273DAFAF8466Da28008b20C244f3242B0439922F0189250630593c4c9915061138b90600690859060040161592a565b600061089061066e60017f5165972ef41194f06c5007493031d0b927c20741adcb74403b954009fd2c36186155ae565b6040516304de78eb60e11b81526001600482015260009081908190738064be7e82EbB4dD148894Ed528f28f9D3BC6866906309bcf1d6906024016040805180830381865af41580156128af573d6000803e3d6000fd5b505050506040513d601f19601f820116820180604052508101906128d391906154f0565b609854604051633934e59d60e11b8152600160048201526001600160a01b0390911660248201529193509150738064be7e82EbB4dD148894Ed528f28f9D3BC686690637269cb3a90604401602060405180830381865af415801561293b573d6000803e3d6000fd5b505050506040513d601f19601f8201168201806040525081019061295f9190615855565b806129675750815b8061296f5750805b9250505090565b60006001600160e01b0319821663c19fa56160e01b14806108d557506108d582613529565b6000806129a86001612ff4565b92508290506129b561080a565b6129bf91906155ae565b604051637ed25b6f60e01b815260016004820152909150738064be7e82EbB4dD148894Ed528f28f9D3BC686690637ed25b6f9060240160006040518083038186803b158015612a0d57600080fd5b505af4158015612a21573d6000803e3d6000fd5b5050600554630100000090046001600160801b03169150508015612a4c57612a4a81600061355e565b505b509091565b80516002148015612a675750612a65612a80565b155b15612a7857612a75816135f7565b50505b6114db6133e5565b6006546000906108909060ff16613684565b6000806000612aa2600019612efe565b925092509250909192565b600054610100900460ff16612ad45760405162461bcd60e51b8152600401610c759061593e565b612ade83836136a1565b609880546001600160a01b0319166001600160a01b038316179055612b076064620186a0615889565b6099557fe4166dfcf23bbd3e3f764a99dc8fa740554c03c82d6019b81cf265f396f6f2fe612b396064620186a0615889565b60405190815260200160405180910390a1505050565b6000816001600160a01b0316634046ebae6040518163ffffffff1660e01b8152600401602060405180830381865afa158015612b8f573d6000803e3d6000fd5b505050506040513d601f19601f820116820180604052508101906108d591906153d0565b606454600090606090819083908190612bd4906001600160a01b031661374a565b9150915073d046d0428bDD6D5cCf67fE2cbC8d5039c24A8f6a637325f33f83612bfc856137b6565b6098546040516001600160e01b031960e086901b168152612c3293929187916001600160a01b03909116906001906004016159c2565b600060405180830381865af4158015612c4f573d6000803e3d6000fd5b505050506040513d6000823e601f3d908101601f19168201604052612c779190810190615a10565b9450945094505050909192565b6060806000806000612c94613834565b609854929550909350915073d046d0428bDD6D5cCf67fE2cbC8d5039c24A8f6a9063e99de4da906001600160a01b0316612ccc6138ba565b8686866040518663ffffffff1660e01b8152600401612cef959493929190615a7c565b600060405180830381865af4158015612d0c573d6000803e3d6000fd5b505050506040513d6000823e601f3d908101601f19168201604052612d349190810190615ae6565b90969095509350505050565b600080600080612d506001612ff4565b91509150612d5d8561394e565b612e7c576000806000612d6e613a01565b9250925092506000612dc0898015612d8557508615155b8015612dac5750609954620186a090612d9f908990615872565b612da99190615889565b83115b612db7576000612db9565b825b8688613acc565b9150612e049050612dd18388615226565b6064548390612de8906001600160a01b0316613375565b609754612df59190615226565b612dff9190615226565b613ce3565b90985096506040805187815260208101879052908101859052606081018490526080810189905260a081018890527f3e9abbc366dbf9fe260e2640c06eefbedd7720cf986ae553374e46b804f4ff559060c00160405180910390a1612e698489615226565b9750612e758388615226565b9650505050505b6098546064546040516323c1ae5960e11b815273d046d0428bDD6D5cCf67fE2cbC8d5039c24A8f6a926347835cb292612ec7926001600160a01b039283169290911690600401615386565b60006040518083038186803b158015612edf57600080fd5b505af4158015612ef3573d6000803e3d6000fd5b505050505050915091565b6000806000806000612f106001612ff4565b91509150612f1f868284613d13565b5091989097509095509350505050565b6000612f39613f3f565b90507f768a28cb3459382a3d2173feb2dad0235f8de680b109872da581a3aa269fe5f481604051612f6a9190615b3f565b60405180910390a16114db6133e5565b612f826138ba565b604083018190526001600160a01b038085166020850152609854168352612fa99084613fc6565b6060830152612fb783613375565b608083015280612fe1576040820151606454612fdc91906001600160a01b0316613fc6565b612fe7565b81606001515b60a0909201919091525050565b60008082156130b1576064546000908190613017906001600160a01b031661374a565b9150915073d046d0428bDD6D5cCf67fE2cbC8d5039c24A8f6a633643611860976064613042866137b6565b86866040518663ffffffff1660e01b8152600401613064959493929190615b52565b6040805180830381865af4158015613080573d6000803e3d6000fd5b505050506040513d601f19601f820116820180604052508101906130a49190615b96565b90945092506130b9915050565b505060975460005b915091565b604080516001600160a01b038416602482015260448082018490528251808303909101815260649091019091526020810180516001600160e01b031663a9059cbb60e01b17905261248a908490614024565b60008061312d6005546001600160801b0363010000009091041690565b9050600061313a8261349f565b9050600073d046d0428bDD6D5cCf67fE2cbC8d5039c24A8f6a630252e2c78787604001518860600151896000015187898c60a001516040518863ffffffff1660e01b81526004016131919796959493929190615bba565b602060405180830381865af41580156131ae573d6000803e3d6000fd5b505050506040513d601f19601f820116820180604052508101906131d291906151f7565b905080156132445760006131e782600061355e565b600554909150630100000090046001600160801b031661320790856155ae565b91507faebc771af58936b05e89b0be7d3f9761480181abcd4a649fbdd01753fda16970828260405161323a929190615c12565b60405180910390a1505b600073d10E42f78d93dE8840CfC0A2A39c7cEf74aEEF3A63c432aee187604001518860600151896000015161327f61327a612829565b612b4f565b6000198d1461329d578c8c608001516132989190615226565b61329f565b8c5b60966040518763ffffffff1660e01b81526004016132c296959493929190615c2b565b602060405180830381865af41580156132df573d6000803e3d6000fd5b505050506040513d601f19601f8201168201806040525081019061330391906151f7565b905085608001518110156040518060400160405280601681526020017554532d32302062616c616e636520646563726561736560501b8152509061335a5760405162461bcd60e51b8152600401610c759190614f10565b50608086015161336a90826155ae565b979650505050505050565b6040516370a0823160e01b81526000906001600160a01b038316906370a08231906133a4903090600401614d50565b602060405180830381865afa1580156133c1573d6000803e3d6000fd5b505050506040513d601f19601f820116820180604052508101906108d591906151f7565b60006133ef612bb3565b50506097819055919050565b6000613405612a80565b1561348e57604080516002808252606082018352600092602083019080368337019050509050838160008151811061343f5761343f615609565b6020026020010181815250507f59400c8c523464b521238ea8f50e923f2bc64663557e6afec92a97f7efe92d05818260405161347c929190615c6e565b60405180910390a160009150506108d5565b61349883836140f6565b90506108d5565b60405163a7aced0960e01b8152600160048201526001600160801b0382166024820152606090738064be7e82EbB4dD148894Ed528f28f9D3BC68669063a7aced0990604401600060405180830381865af4158015613501573d6000803e3d6000fd5b505050506040513d6000823e601f3d908101601f191682016040526108d5919081019061557a565b60006001600160e01b0319821663b7b79fa960e01b14806108d557506301ffc9a760e01b6001600160e01b03198316146108d5565b60405163fbb10d6760e01b8152600160048201526001600160801b03831660248201528115156044820152606090738064be7e82EbB4dD148894Ed528f28f9D3BC68669063fbb10d6790606401600060405180830381865af41580156135c8573d6000803e3d6000fd5b505050506040513d6000823e601f3d908101601f191682016040526135f0919081019061557a565b9392505050565b60606000738064be7e82EbB4dD148894Ed528f28f9D3BC68666374287da16001856040518363ffffffff1660e01b8152600401613635929190615c12565b600060405180830381865af4158015613652573d6000803e3d6000fd5b505050506040513d6000823e601f3d908101601f1916820160405261367a9190810190615c93565b9094909350915050565b6000600182600381111561369a5761369a6155c1565b1192915050565b600054610100900460ff166136c85760405162461bcd60e51b8152600401610c759061593e565b6136f2817fd2de0374d4479f33e63ae5ed6ca772a10463dd883a90c612050b51fab619640061411d565b6136fb82614173565b604051631797527d60e01b81526064600482018190526001600160a01b0380851660248401528316604483015273c19A300bC5f9eC67BDd2D7D8FCeC05e96766d9d191631797527d9101611d95565b606060006137566138ba565b91506137628284613fc6565b90506000198114156040518060400160405280600f81526020016e53423a2057726f6e672076616c756560881b815250906137b05760405162461bcd60e51b8152600401610c759190614f10565b50915091565b606060006137d46005546001600160801b0363010000009091041690565b905080156137ea576137e58161349f565b6135f0565b82516001600160401b0381111561380357613803614a51565b60405190808252806020026020018201604052801561382c578160200160208202803683370190505b509392505050565b604051637e41e84960e01b8152600160048201819052602482015260609081908190738064be7e82EbB4dD148894Ed528f28f9D3BC686690637e41e84990604401600060405180830381865af4158015613892573d6000803e3d6000fd5b505050506040513d6000823e601f3d908101601f19168201604052612aa29190810190615cd9565b6040805160028082526060808301845292602083019080368337505060035482519293506001600160a01b0316918391506000906138fa576138fa615609565b6001600160a01b03928316602091820292909201015260045482519116908290600190811061392b5761392b615609565b60200260200101906001600160a01b031690816001600160a01b03168152505090565b6000613958612859565b15604051806040016040528060138152602001724b532d31204e65656420726562616c616e636560681b815250906139a35760405162461bcd60e51b8152600401610c759190614f10565b506139ac612a80565b15604051806040016040528060148152602001734b532d313420467573652069732061637469766560601b815250906139f85760405162461bcd60e51b8152600401610c759190614f10565b50600092915050565b606454600090819081906001600160a01b03168180613a1e612c84565b91509150738064be7e82EbB4dD148894Ed528f28f9D3BC68666334d2ec3d84613a45612829565b85856040518563ffffffff1660e01b8152600401613a669493929190615d27565b602060405180830381865af4158015613a83573d6000803e3d6000fd5b505050506040513d601f19601f82011682018060405250810190613aa791906151f7565b9550613ab38282614398565b8585613abe85613375565b955095509550505050909192565b60645460009081906001600160a01b031681858711613aec576000613af6565b613af686886155ae565b90506000620186a086609760020154613b0f9190615872565b613b199190615889565b821190506000613b2884613375565b6001600160a01b038516600090815260966020526040902054909150613b4d906143f3565b881115613c18578180613b605750878110155b15613c045760655473d046d0428bDD6D5cCf67fE2cbC8d5039c24A8f6a9063890ffb849086908b906001600160a01b0316613b9b868d615226565b866040518663ffffffff1660e01b8152600401613bbc959493929190615d65565b6040805180830381865af4158015613bd8573d6000803e3d6000fd5b505050506040513d601f19601f82011682018060405250810190613bfc9190615b96565b509450613c18565b613c1060008989613d13565b909850965050505b8115613cd757600080613c2a8661374a565b6098549193509150600090613c4a906001600160a01b031687858561440b565b9050613c55816146c2565b613ca2576000613c64826135f7565b5090507f59400c8c523464b521238ea8f50e923f2bc64663557e6afec92a97f7efe92d058282604051613c98929190615c6e565b60405180910390a1505b6000613cac6133e5565b9050613ccf613cbb868d615226565b8a613cc58b613375565b612df59085615226565b9a5050505050505b50505050935093915050565b60008083831115613cff57613cf884846155ae565b9150613d0c565b613d0983856155ae565b90505b9250929050565b60008060008060006000198814613d5757620186a0613d346103e882615226565b613d3e898b615226565b613d489190615872565b613d529190615889565b613d59565b875b9050613d648161470e565b8015801590613d7257508515155b15613f3557613d7f6149c7565b606454613d97906001600160a01b0316826001612f7a565b80516020820151604051637a55caf360e01b815273d046d0428bDD6D5cCf67fE2cbC8d5039c24A8f6a92637a55caf392613dd392600401615386565b602060405180830381865af4158015613df0573d6000803e3d6000fd5b505050506040513d601f19601f82011682018060405250810190613e1491906151f7565b9450670de0b6b3a764000085613e33613e2d8585613110565b8b614761565b613e3d9190615872565b613e479190615889565b95506000613e588260200151613375565b90506000613e81613e7884608001518b613e729190615226565b8c614761565b83612df56133e5565b965090508015613f31576020830151606554608085015173d046d0428bDD6D5cCf67fE2cbC8d5039c24A8f6a9263890ffb8492909185916001600160a01b031690613ecc908f615226565b876040518663ffffffff1660e01b8152600401613eed959493929190615d65565b6040805180830381865af4158015613f09573d6000803e3d6000fd5b505050506040513d601f19601f82011682018060405250810190613f2d9190615b96565b5094505b5050505b5093509350935093565b60606000613f5d6005546001600160801b0363010000009091041690565b90508015613f7557613f7081600161355e565b613fc0565b613f7d6138ba565b516001600160401b03811115613f9557613f95614a51565b604051908082528060200260200182016040528015613fbe578160200160208202803683370190505b505b91505090565b8151600090815b8181101561401857836001600160a01b0316858281518110613ff157613ff1615609565b60200260200101516001600160a01b0316036140105791506108d59050565b600101613fcd565b50600019949350505050565b6000614079826040518060400160405280602081526020017f5361666545524332303a206c6f772d6c6576656c2063616c6c206661696c6564815250856001600160a01b031661477b9092919063ffffffff16565b80519091501561248a57808060200190518101906140979190615855565b61248a5760405162461bcd60e51b815260206004820152602a60248201527f5361666545524332303a204552433230206f7065726174696f6e20646964206e6044820152691bdd081cdd58d8d9595960b21b6064820152608401610c75565b600080600061410484612ff4565b91509150614113858284613acc565b5095945050505050565b614127828261478a565b6114db5760405162461bcd60e51b815260206004820152601a60248201527f496e74657266616365206973206e6f7420737570706f727465640000000000006044820152606401610c75565b600054610100900460ff1661419a5760405162461bcd60e51b8152600401610c759061593e565b6001600160a01b0381166141e25760405162461bcd60e51b815260206004820152600f60248201526e2d32b9379031b7b73a3937b63632b960891b6044820152606401610c75565b61420c817f4c2403fdcb3cff9b705d96bf0705858e3390412670a62c8bcba611ca7e20ab8661411d565b60006001600160a01b0316816001600160a01b0316635aa6e6756040518163ffffffff1660e01b8152600401602060405180830381865afa158015614255573d6000803e3d6000fd5b505050506040513d601f19601f8201168201806040525081019061427991906153d0565b6001600160a01b0316036142c15760405162461bcd60e51b815260206004820152600f60248201526e5a65726f20676f7665726e616e636560881b6044820152606401610c75565b6142f0816115ff60017f5165972ef41194f06c5007493031d0b927c20741adcb74403b954009fd2c36186155ae565b61431f426115ff60017f6f55f470bdc9cb5f04223fd822021061668e4dccb43e8727b295106dc9769c8b6155ae565b61434e436115ff60017f812a673dfca07956350df10f8a654925f561d7a0da09bdbe79e653939a14d9f16155ae565b604080516001600160a01b0383168152426020820152438183015290517f1a2dd071001ebf6e03174e3df5b305795a4ad5d41d8fdb9ba41dbbe2367134269181900360600190a150565b8151156114db5773d10E42f78d93dE8840CfC0A2A39c7cEf74aEEF3A635dcb6130606460976143c56138ba565b6143cd612829565b609688886040518863ffffffff1660e01b8152600401611d959796959493929190615d99565b6000811561440157816108d5565b620186a092915050565b6060614415612859565b15604051806040016040528060138152602001724b532d31204e65656420726562616c616e636560681b815250906144605760405162461bcd60e51b8152600401610c759190614f10565b5060015460048054604051636795021f60e01b81526001600160a01b0390931691830191909152600160c81b8104600290810b6024840152600160e01b8204900b6044830152600160a81b900460ff16151560648201526000908190738064be7e82EbB4dD148894Ed528f28f9D3BC686690636795021f906084016040805180830381865af41580156144f7573d6000803e3d6000fd5b505050506040513d601f19601f8201168201806040525081019061451b9190615b96565b6003546004549294509092506001600160a01b039081169173F9a2e80F33DCd31D67afa675b6A31af09cd9430d91631c2040d5918b918b91869116614560888a615226565b6145728a670de0b6b3a7640000615872565b61457c9190615889565b60405160e087901b6001600160e01b03191681526001600160a01b0395861660048201526024810194909452918416604484015290921660648201526084810191909152609660a482015260c401600060405180830381865af41580156145e7573d6000803e3d6000fd5b505050506040513d6000823e601f3d908101601f1916820160405261460f919081019061557a565b9350806001600160a01b03168660008151811061462e5761462e615609565b60200260200101516001600160a01b0316146146b7578360018151811061465757614657615609565b60200260200101518460008151811061467257614672615609565b60200260200101518560008151811061468d5761468d615609565b60200260200101866001815181106146a7576146a7615609565b6020908102919091010191909152525b505050949350505050565b8051600090815b81811015614704578381815181106146e3576146e3615609565b60200260200101516000036146fc575060019392505050565b6001016146c9565b5060009392505050565b614716612859565b15604051806040016040528060138152602001724b532d31204e65656420726562616c616e636560681b815250906114db5760405162461bcd60e51b8152600401610c759190614f10565b60008183116147715760006135f0565b6135f082846155ae565b6060610fa1848460008561485e565b60006001600160a01b0383166147d15760405162461bcd60e51b815260206004820152600c60248201526b5a65726f206164647265737360a01b6044820152606401610c75565b823b60008190036147e65760009150506108d5565b6040516301ffc9a760e01b81526001600160e01b0319841660048201526001600160a01b038516906301ffc9a790602401602060405180830381865afa925050508015614850575060408051601f3d908101601f1916820190925261484d91810190615855565b60015b156147045791506108d59050565b6060824710156148bf5760405162461bcd60e51b815260206004820152602660248201527f416464726573733a20696e73756666696369656e742062616c616e636520666f6044820152651c8818d85b1b60d21b6064820152608401610c75565b600080866001600160a01b031685876040516148db9190615e02565b60006040518083038185875af1925050503d8060008114614918576040519150601f19603f3d011682016040523d82523d6000602084013e61491d565b606091505b509150915061336a8783838760608315614998578251600003614991576001600160a01b0385163b6149915760405162461bcd60e51b815260206004820152601d60248201527f416464726573733a2063616c6c20746f206e6f6e2d636f6e74726163740000006044820152606401610c75565b5081610fa1565b610fa183838151156149ad5781518083602001fd5b8060405162461bcd60e51b8152600401610c759190614f10565b6040518060c0016040528060006001600160a01b0316815260200160006001600160a01b03168152602001606081526020016000815260200160008152602001600081525090565b600060208284031215614a2157600080fd5b81356001600160e01b0319811681146135f057600080fd5b6001600160a01b0381168114614a4e57600080fd5b50565b634e487b7160e01b600052604160045260246000fd5b604051601f8201601f191681016001600160401b0381118282101715614a8f57614a8f614a51565b604052919050565b60006001600160401b03821115614ab057614ab0614a51565b50601f01601f191660200190565b600082601f830112614acf57600080fd5b8135614ae2614add82614a97565b614a67565b818152846020838601011115614af757600080fd5b816020850160208301376000918101602001919091529392505050565b60008060008060008060c08789031215614b2d57600080fd5b8635614b3881614a39565b95506020870135614b4881614a39565b94506040870135935060608701356001600160401b0380821115614b6b57600080fd5b614b778a838b01614abe565b94506080890135915080821115614b8d57600080fd5b50614b9a89828a01614abe565b92505060a087013590509295509295509295565b8060020b8114614a4e57600080fd5b8015158114614a4e57600080fd5b6000806000806000806000806000610180808b8d031215614beb57600080fd5b8a35614bf681614a39565b995060208b0135614c0681614a39565b985060408b0135614c1681614a39565b975060608b0135614c2681614a39565b965060808b0135614c3681614bae565b955060a08b0135614c4681614bae565b945060c08b0135614c5681614bbd565b935060e08b01359250808b018c1015614c6e57600080fd5b506101008a0190509295985092959850929598565b60008060408385031215614c9657600080fd5b8235614ca181614a39565b946020939093013593505050565b60008060008060808587031215614cc557600080fd5b8435614cd081614a39565b93506020850135614ce081614a39565b92506040850135915060608501356001600160401b03811115614d0257600080fd5b614d0e87828801614abe565b91505092959194509250565b600060208284031215614d2c57600080fd5b81356135f081614bbd565b600060208284031215614d4957600080fd5b5035919050565b6001600160a01b0391909116815260200190565b600060208284031215614d7657600080fd5b81356135f081614a39565b600081518084526020808501945080840160005b83811015614db157815187529582019590820190600101614d95565b509495945050505050565b600081518084526020808501945080840160005b83811015614db1578151151587529582019590820190600101614dd0565b604081526000614e016040830185614d81565b8281036020840152614e138185614dbc565b95945050505050565b6080808252855190820181905260009060209060a0840190828901845b82811015614e5e5781516001600160a01b031684529284019290840190600101614e39565b5050508381038285015286518082528783019183019060005b81811015614e9657835160020b83529284019291840191600101614e77565b50508481036040860152614eaa8188614d81565b92505050828103606084015261336a8185614dbc565b60005b83811015614edb578181015183820152602001614ec3565b50506000910152565b60008151808452614efc816020860160208601614ec0565b601f01601f19169290920160200192915050565b6020815260006135f06020830184614ee4565b60008060208385031215614f3657600080fd5b82356001600160401b0380821115614f4d57600080fd5b818501915085601f830112614f6157600080fd5b813581811115614f7057600080fd5b866020828501011115614f8257600080fd5b60209290920196919550909350505050565b600080600060608486031215614fa957600080fd5b833592506020840135614fbb81614a39565b929592945050506040919091013590565b60006001600160401b03821115614fe557614fe5614a51565b5060051b60200190565b600082601f83011261500057600080fd5b81356020615010614add83614fcc565b82815260059290921b8401810191818101908684111561502f57600080fd5b8286015b8481101561504a5780358352918301918301615033565b509695505050505050565b6000806040838503121561506857600080fd5b82356001600160401b038082111561507f57600080fd5b818501915085601f83011261509357600080fd5b813560206150a3614add83614fcc565b82815260059290921b840181019181810190898411156150c257600080fd5b948201945b838610156150e95785356150da81614a39565b825294820194908201906150c7565b965050860135925050808211156150ff57600080fd5b5061510c85828601614fef565b9150509250929050565b6000806040838503121561512957600080fd5b82359150602083013561513b81614bbd565b809150509250929050565b60006020828403121561515857600080fd5b81356001600160401b0381111561516e57600080fd5b61257e84828501614abe565b60006080828403121561518c57600080fd5b82601f83011261519b57600080fd5b604051608081018181106001600160401b03821117156151bd576151bd614a51565b6040528060808401858111156151d257600080fd5b845b818110156151ec5780358352602092830192016151d4565b509195945050505050565b60006020828403121561520957600080fd5b5051919050565b634e487b7160e01b600052601160045260246000fd5b808201808211156108d5576108d5615210565b8060005b6004811015611ce557815184526020938401939091019060010161523d565b60006101c089835260208084018a60005b60058110156152935781516001600160a01b03168352918301919083019060010161526d565b505050506152a460c0840189615239565b806101408401526152b781840188614ee4565b90508281036101608401526152cc8187614ee4565b61018084019590955250506101a0015295945050505050565b600082601f8301126152f657600080fd5b81516020615306614add83614fcc565b82815260059290921b8401810191818101908684111561532557600080fd5b8286015b8481101561504a5780518352918301918301615329565b6000806040838503121561535357600080fd5b825161535e81614bbd565b60208401519092506001600160401b0381111561537a57600080fd5b61510c858286016152e5565b6001600160a01b0392831681529116602082015260400190565b6001600160a01b039586168152602081019490945260408401929092526060830152909116608082015260a00190565b6000602082840312156153e257600080fd5b81516135f081614a39565b8060005b6002811015611ce55781516001600160a01b03168452602093840193909101906001016153f1565b878152610160810161542e60208301896153ed565b8660020b60608301528560020b608083015260018060a01b03851660a083015283151560c083015260808360e084013798975050505050505050565b60006020828403121561547c57600080fd5b81516001600160401b0381111561549257600080fd5b8201601f810184136154a357600080fd5b80516154b1614add82614a97565b8181528560208385010111156154c657600080fd5b614e13826020830160208601614ec0565b828152604060208201526000610fa16040830184614ee4565b6000806040838503121561550357600080fd5b825161550e81614bbd565b602084015190925061513b81614bbd565b89815260208101899052610140810161553b604083018a6153ed565b608082019790975260a08101959095526001600160a01b039390931660c085015290151560e08401526101008301521515610120909101529392505050565b60006020828403121561558c57600080fd5b81516001600160401b038111156155a257600080fd5b61257e848285016152e5565b818103818111156108d5576108d5615210565b634e487b7160e01b600052602160045260246000fd5b82815260408101600483106155fc57634e487b7160e01b600052602160045260246000fd5b8260208301529392505050565b634e487b7160e01b600052603260045260246000fd5b600082601f83011261563057600080fd5b81516020615640614add83614fcc565b82815260059290921b8401810191818101908684111561565f57600080fd5b8286015b8481101561504a57805161567681614a39565b8352918301918301615663565b600082601f83011261569457600080fd5b815160206156a4614add83614fcc565b82815260059290921b840181019181810190868411156156c357600080fd5b8286015b8481101561504a5780516156da81614bbd565b83529183019183016156c7565b600080600080608085870312156156fd57600080fd5b84516001600160401b038082111561571457600080fd5b6157208883890161561f565b955060209150818701518181111561573757600080fd5b8701601f8101891361574857600080fd5b8051615756614add82614fcc565b81815260059190911b8201840190848101908b83111561577557600080fd5b928501925b8284101561579c57835161578d81614bae565b8252928501929085019061577a565b60408b01519098509450505050808211156157b657600080fd5b6157c2888389016152e5565b935060608701519150808211156157d857600080fd5b50614d0e87828801615683565b600181811c908216806157f957607f821691505b60208210810361581957634e487b7160e01b600052602260045260246000fd5b50919050565b83815260406020820152816040820152818360608301376000818301606090810191909152601f909201601f1916010192915050565b60006020828403121561586757600080fd5b81516135f081614bbd565b80820281158282048414176108d5576108d5615210565b6000826158a657634e487b7160e01b600052601260045260246000fd5b500490565b86815260c0602082015260006158c460c0830188614ee4565b82810360408401526158d68188614d81565b6001600160a01b0396871660608501529490951660808301525060a00152949350505050565b6000806040838503121561590f57600080fd5b825161591a81614a39565b6020939093015192949293505050565b82815260a081016135f06020830184615239565b6020808252602b908201527f496e697469616c697a61626c653a20636f6e7472616374206973206e6f74206960408201526a6e697469616c697a696e6760a81b606082015260800190565b600081518084526020808501945080840160005b83811015614db15781516001600160a01b03168752958201959082019060010161599d565b60a0815260006159d560a0830188615989565b82810360208401526159e78188614d81565b604084019690965250506001600160a01b03929092166060830152151560809091015292915050565b600080600060608486031215615a2557600080fd5b8351925060208401516001600160401b0380821115615a4357600080fd5b615a4f878388016152e5565b93506040860151915080821115615a6557600080fd5b50615a72868287016152e5565b9150509250925092565b6001600160a01b038616815260a060208201819052600090615aa090830187615989565b8281036040840152615ab28187615989565b90508281036060840152615ac68186614d81565b90508281036080840152615ada8185614d81565b98975050505050505050565b60008060408385031215615af957600080fd5b82516001600160401b0380821115615b1057600080fd5b615b1c8683870161561f565b93506020850151915080821115615b3257600080fd5b5061510c858286016152e5565b6020815260006135f06020830184614d81565b85815284602082015260a060408201526000615b7160a0830186614d81565b8281036060840152615b838186615989565b9150508260808301529695505050505050565b60008060408385031215615ba957600080fd5b505080516020909101519092909150565b87815260e060208201526000615bd360e0830189615989565b604083018890526001600160a01b03871660608401528281036080840152615bfb8187614d81565b60a0840195909552505060c0015295945050505050565b828152604060208201526000610fa16040830184614d81565b60c081526000615c3e60c0830189615989565b6020830197909752506001600160a01b039485166040820152929093166060830152608082015260a00152919050565b604081526000615c816040830185614d81565b8281036020840152614e138185614d81565b60008060408385031215615ca657600080fd5b82516001600160401b03811115615cbc57600080fd5b615cc8858286016152e5565b925050602083015190509250929050565b600080600060608486031215615cee57600080fd5b83516001600160401b0380821115615d0557600080fd5b615d118783880161561f565b94506020860151915080821115615a4357600080fd5b6001600160a01b03858116825284166020820152608060408201819052600090615d5390830185615989565b828103606084015261336a8185614d81565b6001600160a01b03958616815260208101949094529190931660408301526060820192909252608081019190915260a00190565b87815286602082015260e060408201526000615db860e0830188615989565b6001600160a01b03871660608401526080830186905282810360a0840152615de08186615989565b905082810360c0840152615df48185614d81565b9a9950505050505050505050565b60008251615e14818460208701614ec0565b919091019291505056fea26469706673582212204b8cb787cfcbf26f7a8cc4f9da22bf942378b7c5b044bc184bfcc0966171b82664736f6c63430008110033",
  "deployedBytecode": "0x608060405234801561001057600080fd5b506004361061037f5760003560e01c806365f50a8d116101e45780639d0bcca01161011a578063ce2f1842116100ad578063dee1f0e41161007c578063dee1f0e4146107d4578063dfeb1032146107e7578063f77c4791146107fa578063ffb86c6a1461080257600080fd5b8063ce2f1842146107b1578063ceee861d14610589578063d295ea70146107b9578063de3d047c146107c157600080fd5b8063b429afeb116100e9578063b429afeb1461074a578063b77c975b1461075d578063bd38837b1461078f578063cd4c8156146107a057600080fd5b80639d0bcca0146106f0578063a3f4df7e146106f8578063ab9e3eee1461072f578063b24575561461073757600080fd5b80637cc96380116101925780638778878211610161578063877887821461069e57806387c7f770146106a6578063936725ec146106b957806396b7b14e146106dd57600080fd5b80637cc96380146106585780637eba7ba6146106605780637efc77fa1461067257806380e7ac7c1461069657600080fd5b806365f50a8d146105c05780636b5fba5a146105d35780636ffb4c8e146105e65780637063a237146105f957806371ee01751461060c57806373a50ef514610614578063783274381461063857600080fd5b80634593144c116102b957806352bbbb7411610267578063569c39cb11610236578063569c39cb1461055b5780635cfc1a511461057f5780636207a0cf1461058957806363e27734146105ad57600080fd5b806352bbbb74146105105780635412335d14610526578063546799631461053e5780635641ec031461055357600080fd5b80634593144c146104ad5780634ad0b684146104b55780634ba31b01146104bd5780634e71d92d146104c55780634fa5d854146104cd5780634fac6ccd146104ea57806351e03fbe146104fd57600080fd5b80631d2dca9e1161033157806333c5b58e1161030057806333c5b58e1461046757806338d52e0f1461046f5780633cd8045e1461048957806342fdb4711461049a57600080fd5b80631d2dca9e146104315780632221eb3c14610444578063261efa1214610457578063325a19f11461045f57600080fd5b806301e1d1141461038457806301ffc9a71461039f578063066a6fc3146103c25780630acd12c7146103d55780630d923929146103dd5780630e30428d146103f2578063150b7a0214610405575b600080fd5b61038c61080a565b6040519081526020015b60405180910390f35b6103b26103ad366004614a0f565b610895565b6040519015158152602001610396565b6103b26103d0366004614b14565b6108db565b61038c610aba565b6103f06103eb366004614bcb565b610bdc565b005b6103f0610400366004614c83565b610ef4565b610418610413366004614caf565b610f98565b6040516001600160e01b03199091168152602001610396565b6103f061043f366004614d1a565b610fa9565b6103f0610452366004614d37565b6111a9565b60685461038c565b61038c61121f565b61038c61124f565b6064546001600160a01b03165b6040516103969190614d50565b6065546001600160a01b031661047c565b6103f06104a8366004614d37565b6112cf565b61038c6113be565b60975461038c565b61038c6113ee565b6103f0611465565b6104d56114df565b60408051928352602083019190915201610396565b6103f06104f8366004614d64565b611544565b61038c61050b366004614d37565b611676565b61051861183e565b604051610396929190614dee565b61052e611b2e565b6040516103969493929190614e1c565b610546611bbd565b6040516103969190614f10565b6103f0611c52565b610546604051806040016040528060058152602001640312e302e360dc1b81525081565b600160ff1b61038c565b610546604051806040016040528060058152602001640332e312e360dc1b81525081565b6103f06105bb366004614f23565b611ceb565b6103f06105ce366004614d37565b611dc9565b6103f06105e1366004614d64565b611e97565b6103f06105f4366004614d37565b611f28565b6103f0610607366004614f94565b611fb0565b60995461038c565b610546604051806040016040528060058152602001640332e302e360dc1b81525081565b61038c610646366004614d64565b60966020526000908152604090205481565b61038c61204e565b61038c61066e366004614d37565b5490565b6105466040518060400160405280600581526020016425bcb132b960d91b81525081565b6103b261207e565b60675461038c565b61038c6106b4366004614c83565b612104565b61054660405180604001604052806005815260200164332e302e3160d81b81525081565b6103f06106eb366004615055565b6123ea565b61047c61248f565b610546604051806040016040528060188152602001774b7962657220436f6e76657274657220537472617465677960401b81525081565b6103b26124bf565b61038c610745366004615116565b6124d9565b6103b2610758366004614d64565b612588565b61077061076b366004615146565b6125ad565b604080516001600160a01b039093168352602083019190915201610396565b6098546001600160a01b031661047c565b6066546001600160a01b031661047c565b609a5461038c565b60695461038c565b6103f06107cf366004614d37565b61269f565b6103b26107e2366004614d64565b6126fc565b6103f06107f536600461517a565b612781565b61047c612829565b6103b2612859565b600061081560975490565b6064546040516370a0823160e01b81526001600160a01b03909116906370a0823190610845903090600401614d50565b602060405180830381865afa158015610862573d6000803e3d6000fd5b505050506040513d601f19601f8201168201806040525081019061088691906151f7565b6108909190615226565b905090565b60006001600160e01b03198216631e94dddf60e01b14806108c657506001600160e01b0319821663f73147b360e01b145b806108d557506108d582612976565b92915050565b60008060006108e861299b565b91509150606073__$0dcf4453b1418804c305d2bbf5bd62b729$__63911ec05360976040518060a001604052808e6001600160a01b03166001600160a01b031681526020018d6001600160a01b03166001600160a01b0316815260200161094d612829565b6001600160a01b039081168252609854811660208084019190915260655490911660409283015281516080810183528e8152908101899052808201889052606081018b905290516001600160e01b031960e086901b1681526109be939291908d908d9060019060969060040161525c565b600060405180830381865af41580156109db573d6000803e3d6000fd5b505050506040513d6000823e601f3d908101601f19168201604052610a039190810190615340565b9094509050610a1181612a51565b6000601055838015610a265750610a26612a80565b15610a31576001600f555b606480546040516368f9467b60e01b81526001600160a01b039091166004820152602481018490526097604482015273__$8f1afe7577f9ab973017c74eca19b86f3c$__916368f9467b910160006040518083038186803b158015610a9557600080fd5b505af4158015610aa9573d6000803e3d6000fd5b505050505050509695505050505050565b606554606454604051633e53813360e11b81526000926001600160a01b03908116921690839073__$7dde4232fad0cb3c495beb9e735b7d0c63$__90637ca7026690610b0c9086908690600401615386565b602060405180830381865af4158015610b29573d6000803e3d6000fd5b505050506040513d601f19601f82011682018060405250810190610b4d91906151f7565b90506000806000610b5c612a92565b92509250925073__$7dde4232fad0cb3c495beb9e735b7d0c63$__639ad00ec2868686868b6040518663ffffffff1660e01b8152600401610ba19594939291906153a0565b60006040518083038186803b158015610bb957600080fd5b505af4158015610bcd573d6000803e3d6000fd5b50929998505050505050505050565b600054610100900460ff1615808015610bfc5750600054600160ff909116105b80610c165750303b158015610c16575060005460ff166001145b610c7e5760405162461bcd60e51b815260206004820152602e60248201527f496e697469616c697a61626c653a20636f6e747261637420697320616c72656160448201526d191e481a5b9a5d1a585b1a5e995960921b60648201526084015b60405180910390fd5b6000805460ff191660011790558015610ca1576000805461ff0019166101001790555b610cac8a8a8a612aad565b73__$0dcf4453b1418804c305d2bbf5bd62b729$__630bf00b70600160405180604001604052808e6001600160a01b03166001600160a01b031681526020018b6001600160a01b03166001600160a01b031681525089898e6001600160a01b03166338d52e0f6040518163ffffffff1660e01b8152600401602060405180830381865afa158015610d41573d6000803e3d6000fd5b505050506040513d601f19601f82011682018060405250810190610d6591906153d0565b8a896040518863ffffffff1660e01b8152600401610d899796959493929190615419565b60006040518083038186803b158015610da157600080fd5b505af4158015610db5573d6000803e3d6000fd5b50505060338490555060405163bd85be2960e01b81526001600482015273__$7dde4232fad0cb3c495beb9e735b7d0c63$__90637fc1c15b9060649073__$0dcf4453b1418804c305d2bbf5bd62b729$__9063bd85be2990602401600060405180830381865af4158015610e2d573d6000803e3d6000fd5b505050506040513d6000823e601f3d908101601f19168201604052610e55919081019061546a565b6040518363ffffffff1660e01b8152600401610e729291906154d7565b60006040518083038186803b158015610e8a57600080fd5b505af4158015610e9e573d6000803e3d6000fd5b505050508015610ee8576000805461ff0019169055604051600181527f7f26b83ff96e1f2b6a682f133852f6798a09c465da95921460cefb38474024989060200160405180910390a15b50505050505050505050565b73__$8f1afe7577f9ab973017c74eca19b86f3c$__63142395ef610f16612829565b6040516001600160e01b031960e084901b1681526001600160a01b03918216600482015290851660248201526044810184905260640160006040518083038186803b158015610f6457600080fd5b505af4158015610f78573d6000803e3d6000fd5b5050506001600160a01b0390921660009081526096602052604090205550565b630a85bd0160e11b5b949350505050565b6000610fb3612829565b60405163124fdbb760e21b815290915073__$7dde4232fad0cb3c495beb9e735b7d0c63$__9063493f6edc90610fed908490600401614d50565b60006040518083038186803b15801561100557600080fd5b505af4158015611019573d6000803e3d6000fd5b50506040516304de78eb60e11b8152600160048201526000925082915073__$0dcf4453b1418804c305d2bbf5bd62b729$__906309bcf1d6906024016040805180830381865af4158015611071573d6000803e3d6000fd5b505050506040513d601f19601f8201168201806040525081019061109591906154f0565b9150915081806110a25750805b156110ac57600093505b6000806110b761299b565b604080518082019091526098546001600160a01b03168152919350915060009073__$0dcf4453b1418804c305d2bbf5bd62b729$__9063e7530e7a90609790600190602081016111068c612b4f565b6001600160a01b0390811690915260655488918a91168e60968e8061112857508d5b6040518a63ffffffff1660e01b815260040161114c9998979695949392919061551f565b600060405180830381865af4158015611169573d6000803e3d6000fd5b505050506040513d6000823e601f3d908101601f19168201604052611191919081019061557a565b905061119c81612a51565b5050426010555050505050565b73__$7dde4232fad0cb3c495beb9e735b7d0c63$__63493f6edc6111cb612829565b6040518263ffffffff1660e01b81526004016111e79190614d50565b60006040518083038186803b1580156111ff57600080fd5b505af4158015611213573d6000803e3d6000fd5b505050600f9190915550565b600061089061066e60017f6f55f470bdc9cb5f04223fd822021061668e4dccb43e8727b295106dc9769c8b6155ae565b600073__$7dde4232fad0cb3c495beb9e735b7d0c63$__63493f6edc611273612829565b6040518263ffffffff1660e01b815260040161128f9190614d50565b60006040518083038186803b1580156112a757600080fd5b505af41580156112bb573d6000803e3d6000fd5b505050506112c7612bb3565b509092915050565b73__$7dde4232fad0cb3c495beb9e735b7d0c63$__63493f6edc6112f1612829565b6040518263ffffffff1660e01b815260040161130d9190614d50565b60006040518083038186803b15801561132557600080fd5b505af4158015611339573d6000803e3d6000fd5b5073__$79fe6ec7a3db45dafbed12dca1c6dad764$__9250636bffb34691506006905083600381111561136e5761136e6155c1565b6040518363ffffffff1660e01b815260040161138b9291906155d7565b60006040518083038186803b1580156113a357600080fd5b505af41580156113b7573d6000803e3d6000fd5b5050505050565b600061089061066e60017f812a673dfca07956350df10f8a654925f561d7a0da09bdbe79e653939a14d9f16155ae565b604051630a3c2bb160e21b81526001600482015260009073__$0dcf4453b1418804c305d2bbf5bd62b729$__906328f0aec490602401602060405180830381865af4158015611441573d6000803e3d6000fd5b505050506040513d601f19601f8201168201806040525081019061089091906151f7565b73__$7dde4232fad0cb3c495beb9e735b7d0c63$__63d19cc38a611487612829565b6040518263ffffffff1660e01b81526004016114a39190614d50565b60006040518083038186803b1580156114bb57600080fd5b505af41580156114cf573d6000803e3d6000fd5b505050506114db612c84565b5050565b60655460408051808201909152600a81526914d08e8811195b9a595960b21b60208201526000918291906001600160a01b031633146115315760405162461bcd60e51b8152600401610c759190614f10565b5061153c6001612d40565b915091509091565b3330146115935760405162461bcd60e51b815260206004820152601b60248201527f496e637265617365207265766973696f6e20666f7262696464656e00000000006044820152606401610c75565b60006115c361066e60017f22573091f17911fb166032a3d9e0554aa73d31b7b7ddea4a4dd2995650af84bd6155ae565b6115ce906001615226565b9050611602816115ff60017f22573091f17911fb166032a3d9e0554aa73d31b7b7ddea4a4dd2995650af84bd6155ae565b55565b611631826115ff60017fbfaaa2fb63266ff27c2da975f5894955056f50419af651a81f6c5060581857e46155ae565b604080518281526001600160a01b03841660208201527ff27e2ef832a4eb8ed8ec553b875eecd44764cda95b1c24170e281539e0a869c8910160405180910390a15050565b606554606454604051633e53813360e11b81526000926001600160a01b03908116921690839073__$7dde4232fad0cb3c495beb9e735b7d0c63$__90637ca70266906116c89086908690600401615386565b602060405180830381865af41580156116e5573d6000803e3d6000fd5b505050506040513d601f19601f8201168201806040525081019061170991906151f7565b9050808511156117b55760008061172861172384896155ae565b612efe565b604051631594b05b60e01b8152909850919350915073__$7dde4232fad0cb3c495beb9e735b7d0c63$__90631594b05b9061176f9087908790879087908c906004016153a0565b602060405180830381865af415801561178c573d6000803e3d6000fd5b505050506040513d601f19601f820116820180604052508101906117b091906151f7565b925050505b6040516333bbb20360e11b815260048101869052602481018290526001600160a01b0380841660448301528416606482015273__$7dde4232fad0cb3c495beb9e735b7d0c63$__9063677764069060840160006040518083038186803b15801561181e57600080fd5b505af4158015611832573d6000803e3d6000fd5b50505050505050919050565b6002546040805160038082526080820190925260609283926001600160a01b03909116919060208201848036833750506003546040516370a0823160e01b81529295506001600160a01b0316916370a0823191506118a0908490600401614d50565b602060405180830381865afa1580156118bd573d6000803e3d6000fd5b505050506040513d601f19601f820116820180604052508101906118e191906151f7565b836000815181106118f4576118f4615609565b6020908102919091010152600480546040516370a0823160e01b81526001600160a01b03909116916370a082319161192e91859101614d50565b602060405180830381865afa15801561194b573d6000803e3d6000fd5b505050506040513d601f19601f8201168201806040525081019061196f91906151f7565b8360018151811061198257611982615609565b60209081029190910101526040516370a0823160e01b8152731c954e8fe737f99f68fa1ccda3e51ebdb291948c906370a08231906119c4908490600401614d50565b602060405180830381865afa1580156119e1573d6000803e3d6000fd5b505050506040513d601f19601f82011682018060405250810190611a0591906151f7565b83600281518110611a1857611a18615609565b602090810291909101015260408051600380825260808201909252908160200160208202803683375050603454825192945060ff1691849150600090611a6057611a60615609565b911515602092830291909101909101526040516304de78eb60e11b81526001600482015273__$0dcf4453b1418804c305d2bbf5bd62b729$__906309bcf1d6906024016040805180830381865af4158015611abf573d6000803e3d6000fd5b505050506040513d601f19601f82011682018060405250810190611ae391906154f0565b83600181518110611af657611af6615609565b6020026020010184600281518110611b1057611b10615609565b60200260200101821515151581525082151515158152505050509091565b604051636e81b62960e01b81526001600482015260609081908190819073__$b1ba452cecccdd06eb05ace2d0a762c7e1$__90636e81b62990602401600060405180830381865af4158015611b87573d6000803e3d6000fd5b505050506040513d6000823e601f3d908101601f19168201604052611baf91908101906156e7565b935093509350935090919293565b606060646006018054611bcf906157e5565b80601f0160208091040260200160405190810160405280929190818152602001828054611bfb906157e5565b8015611c485780601f10611c1d57610100808354040283529160200191611c48565b820191906000526020600020905b815481529060010190602001808311611c2b57829003601f168201915b5050505050905090565b611c5a612f2f565b73__$7dde4232fad0cb3c495beb9e735b7d0c63$__63bd020682611c7c612829565b6064805460655460405160e086901b6001600160e01b03191681526001600160a01b03948516600482015291841660248301529290921660448301520160006040518083038186803b158015611cd157600080fd5b505af4158015611ce5573d6000803e3d6000fd5b50505050565b73__$7dde4232fad0cb3c495beb9e735b7d0c63$__63493f6edc611d0d612829565b6040518263ffffffff1660e01b8152600401611d299190614d50565b60006040518083038186803b158015611d4157600080fd5b505af4158015611d55573d6000803e3d6000fd5b5050604051637fc1c15b60e01b815273__$7dde4232fad0cb3c495beb9e735b7d0c63$__9250637fc1c15b9150611d95906064908690869060040161581f565b60006040518083038186803b158015611dad57600080fd5b505af4158015611dc1573d6000803e3d6000fd5b505050505050565b73__$7dde4232fad0cb3c495beb9e735b7d0c63$__63493f6edc611deb612829565b6040518263ffffffff1660e01b8152600401611e079190614d50565b60006040518083038186803b158015611e1f57600080fd5b505af4158015611e33573d6000803e3d6000fd5b50506034546040805180820190915260208082527f4b532d3134204c6971756964697479206d75737420626520756e7374616b656490820152925060ff16159050611e915760405162461bcd60e51b8152600401610c759190614f10565b50603355565b73__$7dde4232fad0cb3c495beb9e735b7d0c63$__63493f6edc611eb9612829565b6040518263ffffffff1660e01b8152600401611ed59190614d50565b60006040518083038186803b158015611eed57600080fd5b505af4158015611f01573d6000803e3d6000fd5b5050600280546001600160a01b0319166001600160a01b0394909416939093179092555050565b73__$8f1afe7577f9ab973017c74eca19b86f3c$__63d2c3cf25611f4a612829565b6040516001600160e01b031960e084901b1681526001600160a01b0390911660048201526024810184905260440160006040518083038186803b158015611f9057600080fd5b505af4158015611fa4573d6000803e3d6000fd5b50505060999190915550565b73__$7dde4232fad0cb3c495beb9e735b7d0c63$__63ed6b63c16064858585611fd7612829565b6040516001600160e01b031960e088901b168152600481019590955260248501939093526001600160a01b039182166044850152606484015216608482015260a40160006040518083038186803b15801561203157600080fd5b505af4158015612045573d6000803e3d6000fd5b50505050505050565b600061089061066e60017f22573091f17911fb166032a3d9e0554aa73d31b7b7ddea4a4dd2995650af84bd6155ae565b603354604051639ee0b2a960e01b815260009173__$0dcf4453b1418804c305d2bbf5bd62b729$__91639ee0b2a9916120bd9160040190815260200190565b602060405180830381865af41580156120da573d6000803e3d6000fd5b505050506040513d601f19601f820116820180604052508101906120fe9190615855565b15905090565b600061210e6149c7565b61211a84826000612f7a565b805160408051808201909152600a81526914d08e8811195b9a595960b21b6020820152906001600160a01b031633146121665760405162461bcd60e51b8152600401610c759190614f10565b5060408051808201909152601081526f54532d3234207a65726f2076616c756560801b6020820152836121ac5760405162461bcd60e51b8152600401610c759190614f10565b5060001981606001511415604051806040016040528060118152602001701514cb4c4d081ddc9bdb99c8185cdcd95d607a1b815250906121ff5760405162461bcd60e51b8152600401610c759190614f10565b5060008061220d6001612ff4565b608085015160405163513cfdb360e11b81526001600160a01b038a16600482015260248101919091526044810183905260648181018390526084820152919350915073__$8f1afe7577f9ab973017c74eca19b86f3c$__9063a279fb669060a401602060405180830381865af415801561228b573d6000803e3d6000fd5b505050506040513d601f19601f820116820180604052508101906122af91906151f7565b60808401526000620186a06122c66103e882615226565b6122d09088615872565b6122da9190615889565b9050808460800151106123065783516122fe906001600160a01b03891690886130be565b8594506123d7565b826000036123415761231d6103e8620186a0615226565b620186a085608001516123309190615872565b61233a9190615889565b94506123d7565b6000620186a06123546103e86002615872565b61236190620186a0615226565b61236b9089615872565b6123759190615889565b905061239085608001518261238a91906155ae565b86613110565b50600061239c89613375565b90508281116123d0576123b46103e8620186a0615226565b6123c1620186a083615872565b6123cb9190615889565b6123d2565b875b965050505b6123df6133e5565b505050505092915050565b60985460408051808201909152600a81526914d08e8811195b9a595960b21b6020820152906001600160a01b031633146124375760405162461bcd60e51b8152600401610c759190614f10565b5080518251146040518060400160405280600d81526020016c54532d3139206c656e6774687360981b815250906124815760405162461bcd60e51b8152600401610c759190614f10565b5061248a6133e5565b505050565b600061089061066e60017fbfaaa2fb63266ff27c2da975f5894955056f50419af651a81f6c5060581857e46155ae565b60006124c9612859565b15801561089057506120fe612a80565b6065546064546040516001625acc3160e01b03198152600092839273__$7dde4232fad0cb3c495beb9e735b7d0c63$__9263ffa533cf9261252b926001600160a01b0391821692911690600401615386565b602060405180830381865af4158015612548573d6000803e3d6000fd5b505050506040513d601f19601f8201168201806040525081019061256c91906151f7565b905080156125815761257e81846133fb565b91505b5092915050565b6000612592612829565b6001600160a01b0316826001600160a01b0316149050919050565b6005546000908190630100000090046001600160801b03168181156125da576125d58261349f565b6125f8565b60408051600280825260608201835290916020830190803683375050505b905073__$b1ba452cecccdd06eb05ace2d0a762c7e1$__6350d2e0ba60018784612620612829565b6098546040516001600160e01b031960e088901b16815261265495949392916001600160a01b0316906096906004016158ab565b6040805180830381865af4158015612670573d6000803e3d6000fd5b505050506040513d601f19601f8201168201806040525081019061269491906158fc565b935093505050915091565b73__$7dde4232fad0cb3c495beb9e735b7d0c63$__636d51f04360646126c3612829565b6040516001600160e01b031960e085901b16815260048101929092526001600160a01b031660248201526044810184905260640161138b565b6000816001600160a01b0316612710612829565b6001600160a01b0316635aa6e6756040518163ffffffff1660e01b8152600401602060405180830381865afa15801561274d573d6000803e3d6000fd5b505050506040513d601f19601f8201168201806040525081019061277191906153d0565b6001600160a01b03161492915050565b73__$7dde4232fad0cb3c495beb9e735b7d0c63$__63493f6edc6127a3612829565b6040518263ffffffff1660e01b81526004016127bf9190614d50565b60006040518083038186803b1580156127d757600080fd5b505af41580156127eb573d6000803e3d6000fd5b5050604051630593c4c960e01b815273__$79fe6ec7a3db45dafbed12dca1c6dad764$__9250630593c4c9915061138b90600690859060040161592a565b600061089061066e60017f5165972ef41194f06c5007493031d0b927c20741adcb74403b954009fd2c36186155ae565b6040516304de78eb60e11b8152600160048201526000908190819073__$0dcf4453b1418804c305d2bbf5bd62b729$__906309bcf1d6906024016040805180830381865af41580156128af573d6000803e3d6000fd5b505050506040513d601f19601f820116820180604052508101906128d391906154f0565b609854604051633934e59d60e11b8152600160048201526001600160a01b039091166024820152919350915073__$0dcf4453b1418804c305d2bbf5bd62b729$__90637269cb3a90604401602060405180830381865af415801561293b573d6000803e3d6000fd5b505050506040513d601f19601f8201168201806040525081019061295f9190615855565b806129675750815b8061296f5750805b9250505090565b60006001600160e01b0319821663c19fa56160e01b14806108d557506108d582613529565b6000806129a86001612ff4565b92508290506129b561080a565b6129bf91906155ae565b604051637ed25b6f60e01b81526001600482015290915073__$0dcf4453b1418804c305d2bbf5bd62b729$__90637ed25b6f9060240160006040518083038186803b158015612a0d57600080fd5b505af4158015612a21573d6000803e3d6000fd5b5050600554630100000090046001600160801b03169150508015612a4c57612a4a81600061355e565b505b509091565b80516002148015612a675750612a65612a80565b155b15612a7857612a75816135f7565b50505b6114db6133e5565b6006546000906108909060ff16613684565b6000806000612aa2600019612efe565b925092509250909192565b600054610100900460ff16612ad45760405162461bcd60e51b8152600401610c759061593e565b612ade83836136a1565b609880546001600160a01b0319166001600160a01b038316179055612b076064620186a0615889565b6099557fe4166dfcf23bbd3e3f764a99dc8fa740554c03c82d6019b81cf265f396f6f2fe612b396064620186a0615889565b60405190815260200160405180910390a1505050565b6000816001600160a01b0316634046ebae6040518163ffffffff1660e01b8152600401602060405180830381865afa158015612b8f573d6000803e3d6000fd5b505050506040513d601f19601f820116820180604052508101906108d591906153d0565b606454600090606090819083908190612bd4906001600160a01b031661374a565b9150915073__$8f1afe7577f9ab973017c74eca19b86f3c$__637325f33f83612bfc856137b6565b6098546040516001600160e01b031960e086901b168152612c3293929187916001600160a01b03909116906001906004016159c2565b600060405180830381865af4158015612c4f573d6000803e3d6000fd5b505050506040513d6000823e601f3d908101601f19168201604052612c779190810190615a10565b9450945094505050909192565b6060806000806000612c94613834565b609854929550909350915073__$8f1afe7577f9ab973017c74eca19b86f3c$__9063e99de4da906001600160a01b0316612ccc6138ba565b8686866040518663ffffffff1660e01b8152600401612cef959493929190615a7c565b600060405180830381865af4158015612d0c573d6000803e3d6000fd5b505050506040513d6000823e601f3d908101601f19168201604052612d349190810190615ae6565b90969095509350505050565b600080600080612d506001612ff4565b91509150612d5d8561394e565b612e7c576000806000612d6e613a01565b9250925092506000612dc0898015612d8557508615155b8015612dac5750609954620186a090612d9f908990615872565b612da99190615889565b83115b612db7576000612db9565b825b8688613acc565b9150612e049050612dd18388615226565b6064548390612de8906001600160a01b0316613375565b609754612df59190615226565b612dff9190615226565b613ce3565b90985096506040805187815260208101879052908101859052606081018490526080810189905260a081018890527f3e9abbc366dbf9fe260e2640c06eefbedd7720cf986ae553374e46b804f4ff559060c00160405180910390a1612e698489615226565b9750612e758388615226565b9650505050505b6098546064546040516323c1ae5960e11b815273__$8f1afe7577f9ab973017c74eca19b86f3c$__926347835cb292612ec7926001600160a01b039283169290911690600401615386565b60006040518083038186803b158015612edf57600080fd5b505af4158015612ef3573d6000803e3d6000fd5b505050505050915091565b6000806000806000612f106001612ff4565b91509150612f1f868284613d13565b5091989097509095509350505050565b6000612f39613f3f565b90507f768a28cb3459382a3d2173feb2dad0235f8de680b109872da581a3aa269fe5f481604051612f6a9190615b3f565b60405180910390a16114db6133e5565b612f826138ba565b604083018190526001600160a01b038085166020850152609854168352612fa99084613fc6565b6060830152612fb783613375565b608083015280612fe1576040820151606454612fdc91906001600160a01b0316613fc6565b612fe7565b81606001515b60a0909201919091525050565b60008082156130b1576064546000908190613017906001600160a01b031661374a565b9150915073__$8f1afe7577f9ab973017c74eca19b86f3c$__633643611860976064613042866137b6565b86866040518663ffffffff1660e01b8152600401613064959493929190615b52565b6040805180830381865af4158015613080573d6000803e3d6000fd5b505050506040513d601f19601f820116820180604052508101906130a49190615b96565b90945092506130b9915050565b505060975460005b915091565b604080516001600160a01b038416602482015260448082018490528251808303909101815260649091019091526020810180516001600160e01b031663a9059cbb60e01b17905261248a908490614024565b60008061312d6005546001600160801b0363010000009091041690565b9050600061313a8261349f565b9050600073__$8f1afe7577f9ab973017c74eca19b86f3c$__630252e2c78787604001518860600151896000015187898c60a001516040518863ffffffff1660e01b81526004016131919796959493929190615bba565b602060405180830381865af41580156131ae573d6000803e3d6000fd5b505050506040513d601f19601f820116820180604052508101906131d291906151f7565b905080156132445760006131e782600061355e565b600554909150630100000090046001600160801b031661320790856155ae565b91507faebc771af58936b05e89b0be7d3f9761480181abcd4a649fbdd01753fda16970828260405161323a929190615c12565b60405180910390a1505b600073__$e930d50fb5f4f1298547dbcb2bb0591990$__63c432aee187604001518860600151896000015161327f61327a612829565b612b4f565b6000198d1461329d578c8c608001516132989190615226565b61329f565b8c5b60966040518763ffffffff1660e01b81526004016132c296959493929190615c2b565b602060405180830381865af41580156132df573d6000803e3d6000fd5b505050506040513d601f19601f8201168201806040525081019061330391906151f7565b905085608001518110156040518060400160405280601681526020017554532d32302062616c616e636520646563726561736560501b8152509061335a5760405162461bcd60e51b8152600401610c759190614f10565b50608086015161336a90826155ae565b979650505050505050565b6040516370a0823160e01b81526000906001600160a01b038316906370a08231906133a4903090600401614d50565b602060405180830381865afa1580156133c1573d6000803e3d6000fd5b505050506040513d601f19601f820116820180604052508101906108d591906151f7565b60006133ef612bb3565b50506097819055919050565b6000613405612a80565b1561348e57604080516002808252606082018352600092602083019080368337019050509050838160008151811061343f5761343f615609565b6020026020010181815250507f59400c8c523464b521238ea8f50e923f2bc64663557e6afec92a97f7efe92d05818260405161347c929190615c6e565b60405180910390a160009150506108d5565b61349883836140f6565b90506108d5565b60405163a7aced0960e01b8152600160048201526001600160801b038216602482015260609073__$0dcf4453b1418804c305d2bbf5bd62b729$__9063a7aced0990604401600060405180830381865af4158015613501573d6000803e3d6000fd5b505050506040513d6000823e601f3d908101601f191682016040526108d5919081019061557a565b60006001600160e01b0319821663b7b79fa960e01b14806108d557506301ffc9a760e01b6001600160e01b03198316146108d5565b60405163fbb10d6760e01b8152600160048201526001600160801b0383166024820152811515604482015260609073__$0dcf4453b1418804c305d2bbf5bd62b729$__9063fbb10d6790606401600060405180830381865af41580156135c8573d6000803e3d6000fd5b505050506040513d6000823e601f3d908101601f191682016040526135f0919081019061557a565b9392505050565b6060600073__$0dcf4453b1418804c305d2bbf5bd62b729$__6374287da16001856040518363ffffffff1660e01b8152600401613635929190615c12565b600060405180830381865af4158015613652573d6000803e3d6000fd5b505050506040513d6000823e601f3d908101601f1916820160405261367a9190810190615c93565b9094909350915050565b6000600182600381111561369a5761369a6155c1565b1192915050565b600054610100900460ff166136c85760405162461bcd60e51b8152600401610c759061593e565b6136f2817fd2de0374d4479f33e63ae5ed6ca772a10463dd883a90c612050b51fab619640061411d565b6136fb82614173565b604051631797527d60e01b81526064600482018190526001600160a01b0380851660248401528316604483015273__$7dde4232fad0cb3c495beb9e735b7d0c63$__91631797527d9101611d95565b606060006137566138ba565b91506137628284613fc6565b90506000198114156040518060400160405280600f81526020016e53423a2057726f6e672076616c756560881b815250906137b05760405162461bcd60e51b8152600401610c759190614f10565b50915091565b606060006137d46005546001600160801b0363010000009091041690565b905080156137ea576137e58161349f565b6135f0565b82516001600160401b0381111561380357613803614a51565b60405190808252806020026020018201604052801561382c578160200160208202803683370190505b509392505050565b604051637e41e84960e01b815260016004820181905260248201526060908190819073__$0dcf4453b1418804c305d2bbf5bd62b729$__90637e41e84990604401600060405180830381865af4158015613892573d6000803e3d6000fd5b505050506040513d6000823e601f3d908101601f19168201604052612aa29190810190615cd9565b6040805160028082526060808301845292602083019080368337505060035482519293506001600160a01b0316918391506000906138fa576138fa615609565b6001600160a01b03928316602091820292909201015260045482519116908290600190811061392b5761392b615609565b60200260200101906001600160a01b031690816001600160a01b03168152505090565b6000613958612859565b15604051806040016040528060138152602001724b532d31204e65656420726562616c616e636560681b815250906139a35760405162461bcd60e51b8152600401610c759190614f10565b506139ac612a80565b15604051806040016040528060148152602001734b532d313420467573652069732061637469766560601b815250906139f85760405162461bcd60e51b8152600401610c759190614f10565b50600092915050565b606454600090819081906001600160a01b03168180613a1e612c84565b9150915073__$0dcf4453b1418804c305d2bbf5bd62b729$__6334d2ec3d84613a45612829565b85856040518563ffffffff1660e01b8152600401613a669493929190615d27565b602060405180830381865af4158015613a83573d6000803e3d6000fd5b505050506040513d601f19601f82011682018060405250810190613aa791906151f7565b9550613ab38282614398565b8585613abe85613375565b955095509550505050909192565b60645460009081906001600160a01b031681858711613aec576000613af6565b613af686886155ae565b90506000620186a086609760020154613b0f9190615872565b613b199190615889565b821190506000613b2884613375565b6001600160a01b038516600090815260966020526040902054909150613b4d906143f3565b881115613c18578180613b605750878110155b15613c045760655473__$8f1afe7577f9ab973017c74eca19b86f3c$__9063890ffb849086908b906001600160a01b0316613b9b868d615226565b866040518663ffffffff1660e01b8152600401613bbc959493929190615d65565b6040805180830381865af4158015613bd8573d6000803e3d6000fd5b505050506040513d601f19601f82011682018060405250810190613bfc9190615b96565b509450613c18565b613c1060008989613d13565b909850965050505b8115613cd757600080613c2a8661374a565b6098549193509150600090613c4a906001600160a01b031687858561440b565b9050613c55816146c2565b613ca2576000613c64826135f7565b5090507f59400c8c523464b521238ea8f50e923f2bc64663557e6afec92a97f7efe92d058282604051613c98929190615c6e565b60405180910390a1505b6000613cac6133e5565b9050613ccf613cbb868d615226565b8a613cc58b613375565b612df59085615226565b9a5050505050505b50505050935093915050565b60008083831115613cff57613cf884846155ae565b9150613d0c565b613d0983856155ae565b90505b9250929050565b60008060008060006000198814613d5757620186a0613d346103e882615226565b613d3e898b615226565b613d489190615872565b613d529190615889565b613d59565b875b9050613d648161470e565b8015801590613d7257508515155b15613f3557613d7f6149c7565b606454613d97906001600160a01b0316826001612f7a565b80516020820151604051637a55caf360e01b815273__$8f1afe7577f9ab973017c74eca19b86f3c$__92637a55caf392613dd392600401615386565b602060405180830381865af4158015613df0573d6000803e3d6000fd5b505050506040513d601f19601f82011682018060405250810190613e1491906151f7565b9450670de0b6b3a764000085613e33613e2d8585613110565b8b614761565b613e3d9190615872565b613e479190615889565b95506000613e588260200151613375565b90506000613e81613e7884608001518b613e729190615226565b8c614761565b83612df56133e5565b965090508015613f31576020830151606554608085015173__$8f1afe7577f9ab973017c74eca19b86f3c$__9263890ffb8492909185916001600160a01b031690613ecc908f615226565b876040518663ffffffff1660e01b8152600401613eed959493929190615d65565b6040805180830381865af4158015613f09573d6000803e3d6000fd5b505050506040513d601f19601f82011682018060405250810190613f2d9190615b96565b5094505b5050505b5093509350935093565b60606000613f5d6005546001600160801b0363010000009091041690565b90508015613f7557613f7081600161355e565b613fc0565b613f7d6138ba565b516001600160401b03811115613f9557613f95614a51565b604051908082528060200260200182016040528015613fbe578160200160208202803683370190505b505b91505090565b8151600090815b8181101561401857836001600160a01b0316858281518110613ff157613ff1615609565b60200260200101516001600160a01b0316036140105791506108d59050565b600101613fcd565b50600019949350505050565b6000614079826040518060400160405280602081526020017f5361666545524332303a206c6f772d6c6576656c2063616c6c206661696c6564815250856001600160a01b031661477b9092919063ffffffff16565b80519091501561248a57808060200190518101906140979190615855565b61248a5760405162461bcd60e51b815260206004820152602a60248201527f5361666545524332303a204552433230206f7065726174696f6e20646964206e6044820152691bdd081cdd58d8d9595960b21b6064820152608401610c75565b600080600061410484612ff4565b91509150614113858284613acc565b5095945050505050565b614127828261478a565b6114db5760405162461bcd60e51b815260206004820152601a60248201527f496e74657266616365206973206e6f7420737570706f727465640000000000006044820152606401610c75565b600054610100900460ff1661419a5760405162461bcd60e51b8152600401610c759061593e565b6001600160a01b0381166141e25760405162461bcd60e51b815260206004820152600f60248201526e2d32b9379031b7b73a3937b63632b960891b6044820152606401610c75565b61420c817f4c2403fdcb3cff9b705d96bf0705858e3390412670a62c8bcba611ca7e20ab8661411d565b60006001600160a01b0316816001600160a01b0316635aa6e6756040518163ffffffff1660e01b8152600401602060405180830381865afa158015614255573d6000803e3d6000fd5b505050506040513d601f19601f8201168201806040525081019061427991906153d0565b6001600160a01b0316036142c15760405162461bcd60e51b815260206004820152600f60248201526e5a65726f20676f7665726e616e636560881b6044820152606401610c75565b6142f0816115ff60017f5165972ef41194f06c5007493031d0b927c20741adcb74403b954009fd2c36186155ae565b61431f426115ff60017f6f55f470bdc9cb5f04223fd822021061668e4dccb43e8727b295106dc9769c8b6155ae565b61434e436115ff60017f812a673dfca07956350df10f8a654925f561d7a0da09bdbe79e653939a14d9f16155ae565b604080516001600160a01b0383168152426020820152438183015290517f1a2dd071001ebf6e03174e3df5b305795a4ad5d41d8fdb9ba41dbbe2367134269181900360600190a150565b8151156114db5773__$e930d50fb5f4f1298547dbcb2bb0591990$__635dcb6130606460976143c56138ba565b6143cd612829565b609688886040518863ffffffff1660e01b8152600401611d959796959493929190615d99565b6000811561440157816108d5565b620186a092915050565b6060614415612859565b15604051806040016040528060138152602001724b532d31204e65656420726562616c616e636560681b815250906144605760405162461bcd60e51b8152600401610c759190614f10565b5060015460048054604051636795021f60e01b81526001600160a01b0390931691830191909152600160c81b8104600290810b6024840152600160e01b8204900b6044830152600160a81b900460ff1615156064820152600090819073__$0dcf4453b1418804c305d2bbf5bd62b729$__90636795021f906084016040805180830381865af41580156144f7573d6000803e3d6000fd5b505050506040513d601f19601f8201168201806040525081019061451b9190615b96565b6003546004549294509092506001600160a01b039081169173__$b1ba452cecccdd06eb05ace2d0a762c7e1$__91631c2040d5918b918b91869116614560888a615226565b6145728a670de0b6b3a7640000615872565b61457c9190615889565b60405160e087901b6001600160e01b03191681526001600160a01b0395861660048201526024810194909452918416604484015290921660648201526084810191909152609660a482015260c401600060405180830381865af41580156145e7573d6000803e3d6000fd5b505050506040513d6000823e601f3d908101601f1916820160405261460f919081019061557a565b9350806001600160a01b03168660008151811061462e5761462e615609565b60200260200101516001600160a01b0316146146b7578360018151811061465757614657615609565b60200260200101518460008151811061467257614672615609565b60200260200101518560008151811061468d5761468d615609565b60200260200101866001815181106146a7576146a7615609565b6020908102919091010191909152525b505050949350505050565b8051600090815b81811015614704578381815181106146e3576146e3615609565b60200260200101516000036146fc575060019392505050565b6001016146c9565b5060009392505050565b614716612859565b15604051806040016040528060138152602001724b532d31204e65656420726562616c616e636560681b815250906114db5760405162461bcd60e51b8152600401610c759190614f10565b60008183116147715760006135f0565b6135f082846155ae565b6060610fa1848460008561485e565b60006001600160a01b0383166147d15760405162461bcd60e51b815260206004820152600c60248201526b5a65726f206164647265737360a01b6044820152606401610c75565b823b60008190036147e65760009150506108d5565b6040516301ffc9a760e01b81526001600160e01b0319841660048201526001600160a01b038516906301ffc9a790602401602060405180830381865afa925050508015614850575060408051601f3d908101601f1916820190925261484d91810190615855565b60015b156147045791506108d59050565b6060824710156148bf5760405162461bcd60e51b815260206004820152602660248201527f416464726573733a20696e73756666696369656e742062616c616e636520666f6044820152651c8818d85b1b60d21b6064820152608401610c75565b600080866001600160a01b031685876040516148db9190615e02565b60006040518083038185875af1925050503d8060008114614918576040519150601f19603f3d011682016040523d82523d6000602084013e61491d565b606091505b509150915061336a8783838760608315614998578251600003614991576001600160a01b0385163b6149915760405162461bcd60e51b815260206004820152601d60248201527f416464726573733a2063616c6c20746f206e6f6e2d636f6e74726163740000006044820152606401610c75565b5081610fa1565b610fa183838151156149ad5781518083602001fd5b8060405162461bcd60e51b8152600401610c759190614f10565b6040518060c0016040528060006001600160a01b0316815260200160006001600160a01b03168152602001606081526020016000815260200160008152602001600081525090565b600060208284031215614a2157600080fd5b81356001600160e01b0319811681146135f057600080fd5b6001600160a01b0381168114614a4e57600080fd5b50565b634e487b7160e01b600052604160045260246000fd5b604051601f8201601f191681016001600160401b0381118282101715614a8f57614a8f614a51565b604052919050565b60006001600160401b03821115614ab057614ab0614a51565b50601f01601f191660200190565b600082601f830112614acf57600080fd5b8135614ae2614add82614a97565b614a67565b818152846020838601011115614af757600080fd5b816020850160208301376000918101602001919091529392505050565b60008060008060008060c08789031215614b2d57600080fd5b8635614b3881614a39565b95506020870135614b4881614a39565b94506040870135935060608701356001600160401b0380821115614b6b57600080fd5b614b778a838b01614abe565b94506080890135915080821115614b8d57600080fd5b50614b9a89828a01614abe565b92505060a087013590509295509295509295565b8060020b8114614a4e57600080fd5b8015158114614a4e57600080fd5b6000806000806000806000806000610180808b8d031215614beb57600080fd5b8a35614bf681614a39565b995060208b0135614c0681614a39565b985060408b0135614c1681614a39565b975060608b0135614c2681614a39565b965060808b0135614c3681614bae565b955060a08b0135614c4681614bae565b945060c08b0135614c5681614bbd565b935060e08b01359250808b018c1015614c6e57600080fd5b506101008a0190509295985092959850929598565b60008060408385031215614c9657600080fd5b8235614ca181614a39565b946020939093013593505050565b60008060008060808587031215614cc557600080fd5b8435614cd081614a39565b93506020850135614ce081614a39565b92506040850135915060608501356001600160401b03811115614d0257600080fd5b614d0e87828801614abe565b91505092959194509250565b600060208284031215614d2c57600080fd5b81356135f081614bbd565b600060208284031215614d4957600080fd5b5035919050565b6001600160a01b0391909116815260200190565b600060208284031215614d7657600080fd5b81356135f081614a39565b600081518084526020808501945080840160005b83811015614db157815187529582019590820190600101614d95565b509495945050505050565b600081518084526020808501945080840160005b83811015614db1578151151587529582019590820190600101614dd0565b604081526000614e016040830185614d81565b8281036020840152614e138185614dbc565b95945050505050565b6080808252855190820181905260009060209060a0840190828901845b82811015614e5e5781516001600160a01b031684529284019290840190600101614e39565b5050508381038285015286518082528783019183019060005b81811015614e9657835160020b83529284019291840191600101614e77565b50508481036040860152614eaa8188614d81565b92505050828103606084015261336a8185614dbc565b60005b83811015614edb578181015183820152602001614ec3565b50506000910152565b60008151808452614efc816020860160208601614ec0565b601f01601f19169290920160200192915050565b6020815260006135f06020830184614ee4565b60008060208385031215614f3657600080fd5b82356001600160401b0380821115614f4d57600080fd5b818501915085601f830112614f6157600080fd5b813581811115614f7057600080fd5b866020828501011115614f8257600080fd5b60209290920196919550909350505050565b600080600060608486031215614fa957600080fd5b833592506020840135614fbb81614a39565b929592945050506040919091013590565b60006001600160401b03821115614fe557614fe5614a51565b5060051b60200190565b600082601f83011261500057600080fd5b81356020615010614add83614fcc565b82815260059290921b8401810191818101908684111561502f57600080fd5b8286015b8481101561504a5780358352918301918301615033565b509695505050505050565b6000806040838503121561506857600080fd5b82356001600160401b038082111561507f57600080fd5b818501915085601f83011261509357600080fd5b813560206150a3614add83614fcc565b82815260059290921b840181019181810190898411156150c257600080fd5b948201945b838610156150e95785356150da81614a39565b825294820194908201906150c7565b965050860135925050808211156150ff57600080fd5b5061510c85828601614fef565b9150509250929050565b6000806040838503121561512957600080fd5b82359150602083013561513b81614bbd565b809150509250929050565b60006020828403121561515857600080fd5b81356001600160401b0381111561516e57600080fd5b61257e84828501614abe565b60006080828403121561518c57600080fd5b82601f83011261519b57600080fd5b604051608081018181106001600160401b03821117156151bd576151bd614a51565b6040528060808401858111156151d257600080fd5b845b818110156151ec5780358352602092830192016151d4565b509195945050505050565b60006020828403121561520957600080fd5b5051919050565b634e487b7160e01b600052601160045260246000fd5b808201808211156108d5576108d5615210565b8060005b6004811015611ce557815184526020938401939091019060010161523d565b60006101c089835260208084018a60005b60058110156152935781516001600160a01b03168352918301919083019060010161526d565b505050506152a460c0840189615239565b806101408401526152b781840188614ee4565b90508281036101608401526152cc8187614ee4565b61018084019590955250506101a0015295945050505050565b600082601f8301126152f657600080fd5b81516020615306614add83614fcc565b82815260059290921b8401810191818101908684111561532557600080fd5b8286015b8481101561504a5780518352918301918301615329565b6000806040838503121561535357600080fd5b825161535e81614bbd565b60208401519092506001600160401b0381111561537a57600080fd5b61510c858286016152e5565b6001600160a01b0392831681529116602082015260400190565b6001600160a01b039586168152602081019490945260408401929092526060830152909116608082015260a00190565b6000602082840312156153e257600080fd5b81516135f081614a39565b8060005b6002811015611ce55781516001600160a01b03168452602093840193909101906001016153f1565b878152610160810161542e60208301896153ed565b8660020b60608301528560020b608083015260018060a01b03851660a083015283151560c083015260808360e084013798975050505050505050565b60006020828403121561547c57600080fd5b81516001600160401b0381111561549257600080fd5b8201601f810184136154a357600080fd5b80516154b1614add82614a97565b8181528560208385010111156154c657600080fd5b614e13826020830160208601614ec0565b828152604060208201526000610fa16040830184614ee4565b6000806040838503121561550357600080fd5b825161550e81614bbd565b602084015190925061513b81614bbd565b89815260208101899052610140810161553b604083018a6153ed565b608082019790975260a08101959095526001600160a01b039390931660c085015290151560e08401526101008301521515610120909101529392505050565b60006020828403121561558c57600080fd5b81516001600160401b038111156155a257600080fd5b61257e848285016152e5565b818103818111156108d5576108d5615210565b634e487b7160e01b600052602160045260246000fd5b82815260408101600483106155fc57634e487b7160e01b600052602160045260246000fd5b8260208301529392505050565b634e487b7160e01b600052603260045260246000fd5b600082601f83011261563057600080fd5b81516020615640614add83614fcc565b82815260059290921b8401810191818101908684111561565f57600080fd5b8286015b8481101561504a57805161567681614a39565b8352918301918301615663565b600082601f83011261569457600080fd5b815160206156a4614add83614fcc565b82815260059290921b840181019181810190868411156156c357600080fd5b8286015b8481101561504a5780516156da81614bbd565b83529183019183016156c7565b600080600080608085870312156156fd57600080fd5b84516001600160401b038082111561571457600080fd5b6157208883890161561f565b955060209150818701518181111561573757600080fd5b8701601f8101891361574857600080fd5b8051615756614add82614fcc565b81815260059190911b8201840190848101908b83111561577557600080fd5b928501925b8284101561579c57835161578d81614bae565b8252928501929085019061577a565b60408b01519098509450505050808211156157b657600080fd5b6157c2888389016152e5565b935060608701519150808211156157d857600080fd5b50614d0e87828801615683565b600181811c908216806157f957607f821691505b60208210810361581957634e487b7160e01b600052602260045260246000fd5b50919050565b83815260406020820152816040820152818360608301376000818301606090810191909152601f909201601f1916010192915050565b60006020828403121561586757600080fd5b81516135f081614bbd565b80820281158282048414176108d5576108d5615210565b6000826158a657634e487b7160e01b600052601260045260246000fd5b500490565b86815260c0602082015260006158c460c0830188614ee4565b82810360408401526158d68188614d81565b6001600160a01b0396871660608501529490951660808301525060a00152949350505050565b6000806040838503121561590f57600080fd5b825161591a81614a39565b6020939093015192949293505050565b82815260a081016135f06020830184615239565b6020808252602b908201527f496e697469616c697a61626c653a20636f6e7472616374206973206e6f74206960408201526a6e697469616c697a696e6760a81b606082015260800190565b600081518084526020808501945080840160005b83811015614db15781516001600160a01b03168752958201959082019060010161599d565b60a0815260006159d560a0830188615989565b82810360208401526159e78188614d81565b604084019690965250506001600160a01b03929092166060830152151560809091015292915050565b600080600060608486031215615a2557600080fd5b8351925060208401516001600160401b0380821115615a4357600080fd5b615a4f878388016152e5565b93506040860151915080821115615a6557600080fd5b50615a72868287016152e5565b9150509250925092565b6001600160a01b038616815260a060208201819052600090615aa090830187615989565b8281036040840152615ab28187615989565b90508281036060840152615ac68186614d81565b90508281036080840152615ada8185614d81565b98975050505050505050565b60008060408385031215615af957600080fd5b82516001600160401b0380821115615b1057600080fd5b615b1c8683870161561f565b93506020850151915080821115615b3257600080fd5b5061510c858286016152e5565b6020815260006135f06020830184614d81565b85815284602082015260a060408201526000615b7160a0830186614d81565b8281036060840152615b838186615989565b9150508260808301529695505050505050565b60008060408385031215615ba957600080fd5b505080516020909101519092909150565b87815260e060208201526000615bd360e0830189615989565b604083018890526001600160a01b03871660608401528281036080840152615bfb8187614d81565b60a0840195909552505060c0015295945050505050565b828152604060208201526000610fa16040830184614d81565b60c081526000615c3e60c0830189615989565b6020830197909752506001600160a01b039485166040820152929093166060830152608082015260a00152919050565b604081526000615c816040830185614d81565b8281036020840152614e138185614d81565b60008060408385031215615ca657600080fd5b82516001600160401b03811115615cbc57600080fd5b615cc8858286016152e5565b925050602083015190509250929050565b600080600060608486031215615cee57600080fd5b83516001600160401b0380821115615d0557600080fd5b615d118783880161561f565b94506020860151915080821115615a4357600080fd5b6001600160a01b03858116825284166020820152608060408201819052600090615d5390830185615989565b828103606084015261336a8185614d81565b6001600160a01b03958616815260208101949094529190931660408301526060820192909252608081019190915260a00190565b87815286602082015260e060408201526000615db860e0830188615989565b6001600160a01b03871660608401526080830186905282810360a0840152615de08186615989565b905082810360c0840152615df48185614d81565b9a9950505050505050505050565b60008251615e14818460208701614ec0565b919091019291505056fea26469706673582212204b8cb787cfcbf26f7a8cc4f9da22bf942378b7c5b044bc184bfcc0966171b82664736f6c63430008110033",
  "libraries": {
    "ConverterStrategyBaseLib": "0xd10E42f78d93dE8840CfC0A2A39c7cEf74aEEF3A",
    "ConverterStrategyBaseLib2": "0xd046d0428bDD6D5cCf67fE2cbC8d5039c24A8f6a",
    "StrategyLib2": "0xc19A300bC5f9eC67BDd2D7D8FCeC05e96766d9d1",
    "KyberConverterStrategyLogicLib": "0x8064be7e82EbB4dD148894Ed528f28f9D3BC6866",
    "PairBasedStrategyLib": "0xDAFAF8466Da28008b20C244f3242B0439922F018",
    "PairBasedStrategyLogicLib": "0xF9a2e80F33DCd31D67afa675b6A31af09cd9430d"
  },
  "devdoc": {
    "kind": "dev",
    "methods": {
      "claim()": {
        "details": "Manual claim rewards."
      },
      "created()": {
        "returns": {
          "_0": "Creation timestamp"
        }
      },
      "createdBlock()": {
        "returns": {
          "_0": "Creation block number"
        }
      },
      "doHardWork()": {
        "returns": {
          "earned": "Earned amount in terms of {asset}",
          "lost": "Lost amount in terms of {asset}"
        }
      },
      "emergencyExit()": {
        "details": "In case of any issue operator can withdraw all from pool."
      },
      "getDefaultState()": {
        "returns": {
          "addr": "[tokenA, tokenB, pool, profitHolder]",
          "boolValues": "[isStablePool, depositorSwapTokens]",
          "nums": "[totalLiquidity, fuse-status-tokenA, fuse-status-tokenB, withdrawDone, 4 thresholds of token A, 4 thresholds of token B]",
          "tickData": "[tickSpacing, lowerTick, upperTick, rebalanceTickRange]"
        }
      },
      "getPropNotUnderlying18()": {
        "returns": {
          "_0": "Proportion of the not-underlying [0...1e18]"
        }
      },
      "getSlot(uint256)": {
        "details": "Gets a slot as bytes32"
      },
      "getSpecificState()": {
        "returns": {
          "flags": "[staked, needStake, needUnstake]",
          "nums": "Balances of the profit holder for [tokenA, tokenB, KNC]"
        }
      },
      "increaseRevision(address)": {
        "details": "Revision should be increased on each contract upgrade"
      },
      "init(address,address,address,address,int24,int24,bool,uint256,uint256[4])": {
        "params": {
          "controller_": "The address of the controller.",
          "converter_": "The address of the converter.",
          "fuseThresholds": "Price thresholds for tokens [LOWER_LIMIT_ON, LOWER_LIMIT_OFF, UPPER_LIMIT_ON, UPPER_LIMIT_OFF]",
          "pool_": "The address of the pool.",
          "rebalanceTickRange_": "The tick range for rebalancing.",
          "splitter_": "The address of the splitter.",
          "tickRange_": "The tick range for the liquidity position."
        }
      },
      "investAll(uint256,bool)": {
        "params": {
          "updateTotalAssetsBeforeInvest_": "Recalculate total assets amount before depositing.                                       It can be false if we know exactly, that the amount is already actual."
        },
        "returns": {
          "strategyLoss": "Loss should be covered from Insurance"
        }
      },
      "isController(address)": {
        "details": "Return true if given address is controller"
      },
      "isReadyToHardWork()": {
        "returns": {
          "_0": "A boolean indicating if the strategy is ready for hard work."
        }
      },
      "needRebalance()": {
        "returns": {
          "_0": "A boolean indicating if the strategy needs rebalancing."
        }
      },
      "onTransferAmounts(address[],uint256[])": {
        "params": {
          "amounts_": "Amount of {asset_} that has been sent to the user's balance",
          "assets_": "Any asset sent to the balance, i.e. inside repayTheBorrow"
        }
      },
      "performanceFee()": {
        "details": "use FEE_DENOMINATOR"
      },
      "previousImplementation()": {
        "details": "Previous logic implementation"
      },
      "rebalanceNoSwaps(bool)": {
        "params": {
          "checkNeedRebalance": "Revert if rebalance is not needed. Pass false to deposit after withdrawByAgg-iterations"
        }
      },
      "requirePayAmountBack(address,uint256)": {
        "params": {
          "amount_": "Required amount of {theAsset_}",
          "theAsset_": "Required asset (either collateral or borrow), it can be NOT underlying"
        },
        "returns": {
          "amountOut": "Amount that was send OR can be claimed on the next call.                   The caller should control own balance to know if the amount was actually send                   (because we need compatibility with exist not-NSR strategies)"
        }
      },
      "revision()": {
        "details": "Contract upgrade counter"
      },
      "setCompoundRatio(uint256)": {
        "details": "PlatformVoter can change compound ratio for some strategies.      A strategy can implement another logic for some uniq cases."
      },
      "setFuseStatus(uint256)": {
        "params": {
          "status": "See PairBasedStrategyLib.FuseStatus enum for possile values"
        }
      },
      "setFuseThresholds(uint256[4])": {
        "params": {
          "values": "Price thresholds: [LOWER_LIMIT_ON, LOWER_LIMIT_OFF, UPPER_LIMIT_ON, UPPER_LIMIT_OFF]"
        }
      },
      "setLiquidationThreshold(address,uint256)": {
        "details": "Liquidation thresholds are used to detect dust in many cases, not only in liquidation case",
        "params": {
          "amount": "Min amount of token allowed to liquidate, token's decimals are used."
        }
      },
      "setReinvestThresholdPercent(uint256)": {
        "params": {
          "percent_": "New value of the percent, decimals = {REINVEST_THRESHOLD_PERCENT_DENOMINATOR}"
        }
      },
      "setStrategySpecificName(string)": {
        "details": "The name will be used for UI."
      },
      "setWithdrawDone(uint256)": {
        "params": {
          "done": "0 - full withdraw required, 1 - full withdraw was done"
        }
      },
      "supportsInterface(bytes4)": {
        "details": "See {IERC165-supportsInterface}."
      },
      "totalAssets()": {
        "details": "Total amount of underlying assets under control of this strategy."
      },
      "withdrawAllToSplitter()": {
        "details": "Withdraws all underlying assets to the vault",
        "returns": {
          "strategyLoss": "Loss should be covered from Insurance"
        }
      },
      "withdrawByAggStep(address,address,uint256,bytes,bytes,uint256)": {
        "details": "All swap-by-agg data should be prepared using {quoteWithdrawByAgg} off-chain",
        "params": {
          "aggregator_": "Aggregator that should be used on next swap. 0 - use liquidator",
          "amountToSwap_": "Amount that should be swapped. 0 - no swap",
          "entryToPool": "Allow to enter to the pool at the end. Use false if you are going to make several iterations.                    It's possible to enter back to the pool by calling {rebalanceNoSwaps} at any moment                    0 - not allowed, 1 - allowed, 2 - allowed only if completed",
          "planEntryData": "PLAN_XXX + additional data, see IterationPlanKinds",
          "swapData": "Swap rote that was prepared off-chain.",
          "tokenToSwap_": "What token should be swapped to other"
        },
        "returns": {
          "completed": "All debts were closed, leftovers were swapped to the required proportions."
        }
      },
      "withdrawToSplitter(uint256)": {
        "details": "Withdraws some assets to the splitter",
        "returns": {
          "strategyLoss": "Loss should be covered from Insurance"
        }
      }
    },
    "version": 1
  },
  "userdoc": {
    "kind": "user",
    "methods": {
      "CONTROLLABLE_VERSION()": {
        "notice": "Version of the contract"
      },
      "capacity()": {
        "notice": "Unlimited capacity by default"
      },
      "controller()": {
        "notice": "Return controller address saved in the contract slot"
      },
      "created()": {
        "notice": "Return creation timestamp"
      },
      "createdBlock()": {
        "notice": "Return creation block number"
      },
      "doHardWork()": {
        "notice": "Do hard work with reinvesting"
      },
      "getDefaultState()": {
        "notice": "Returns the current state of the contract"
      },
      "getPropNotUnderlying18()": {
        "notice": "Calculate proportions of [underlying, not-underlying] required by the internal pool of the strategy"
      },
      "getSpecificState()": {
        "notice": "Returns the current state of the contract."
      },
      "init(address,address,address,address,int24,int24,bool,uint256,uint256[4])": {
        "notice": "Initialize the strategy with the given parameters."
      },
      "investAll(uint256,bool)": {
        "notice": "Stakes everything the strategy holds into the reward pool. amount_ Amount transferred to the strategy balance just before calling this function"
      },
      "investedAssets()": {
        "notice": "Amount of underlying assets converted to pool assets and invested to the pool."
      },
      "isGovernance(address)": {
        "notice": "Return true if given address is setup as governance in Controller"
      },
      "isReadyToHardWork()": {
        "notice": "Check if the strategy is ready for hard work."
      },
      "liquidationThresholds(address)": {
        "notice": "Minimum token amounts that can be liquidated"
      },
      "needRebalance()": {
        "notice": "Check if the strategy needs rebalancing."
      },
      "onTransferAmounts(address[],uint256[])": {
        "notice": "TetuConverter calls this function when it sends any amount to user's balance"
      },
      "performanceFee()": {
        "notice": "A percent of total profit that is sent to the {performanceReceiver} before compounding"
      },
      "performanceReceiver()": {
        "notice": "{performanceFee}% of total profit is sent to the {performanceReceiver} before compounding"
      },
      "quoteWithdrawByAgg(bytes)": {
        "notice": "Get info about a swap required by next call of {withdrawByAggStep} within the given plan"
      },
      "rebalanceNoSwaps(bool)": {
        "notice": "Rebalance using borrow/repay only, no swaps"
      },
      "requirePayAmountBack(address,uint256)": {
        "notice": "Converters asks to send some amount back.         The results depend on whether the required amount is on the balance:         1. The {amount_} exists on the balance: send the amount to TetuConverter, return {amount_}         2. The {amount_} doesn't exist on the balance. Try to receive the {amount_}.         2.1. if the required amount is received: return {amount_}         2.2. if less amount X (X < {amount_}) is received return X - gap         In the case 2 no amount is send to TetuConverter.         Converter should make second call of requirePayAmountBack({amountOut}) to receive the assets."
      },
      "setFuseStatus(uint256)": {
        "notice": "Manually set status of the fuse"
      },
      "setFuseThresholds(uint256[4])": {
        "notice": "Set thresholds for the fuse: [LOWER_LIMIT_ON, LOWER_LIMIT_OFF, UPPER_LIMIT_ON, UPPER_LIMIT_OFF]         Decimals 18. The thresholds are compared with prices from TetuConverter's price oracle.         Example: [0.9, 0.92, 1.08, 1.1]         Price falls below 0.9 - fuse is ON. Price rises back up to 0.92 - fuse is OFF.         Price raises more and reaches 1.1 - fuse is ON again. Price falls back and reaches 1.08 - fuse OFF again."
      },
      "setWithdrawDone(uint256)": {
        "notice": "Set withdrawDone value.         When a fuse was triggered ON, all debts should be closed and asset should be converted to underlying.         After completion of the conversion withdrawDone can be set to 1.         So, {getFuseStatus} will return  withdrawDone=1 and you will know, that withdraw is not required"
      },
      "setupPerformanceFee(uint256,address,uint256)": {
        "notice": "Set performance fee, receiver and ratio"
      },
      "withdrawByAggStep(address,address,uint256,bytes,bytes,uint256)": {
        "notice": "Make withdraw iteration: [exit from the pool], [make 1 swap], [repay a debt], [enter to the pool]         Typical sequence of the actions is: exit from the pool, make 1 swap, repay 1 debt.         You can enter to the pool if you are sure that you won't have borrow + repay on AAVE3 in the same block."
      }
    },
    "version": 1
  },
  "storageLayout": {
    "storage": [
      {
        "astId": 11499,
        "contract": "contracts/strategies/kyber/KyberConverterStrategy.sol:KyberConverterStrategy",
        "label": "_initialized",
        "offset": 0,
        "slot": "0",
        "type": "t_uint8"
      },
      {
        "astId": 11502,
        "contract": "contracts/strategies/kyber/KyberConverterStrategy.sol:KyberConverterStrategy",
        "label": "_initializing",
        "offset": 1,
        "slot": "0",
        "type": "t_bool"
      },
      {
        "astId": 115288,
        "contract": "contracts/strategies/kyber/KyberConverterStrategy.sol:KyberConverterStrategy",
        "label": "state",
        "offset": 0,
        "slot": "1",
        "type": "t_struct(State)112441_storage"
      },
      {
        "astId": 115295,
        "contract": "contracts/strategies/kyber/KyberConverterStrategy.sol:KyberConverterStrategy",
        "label": "__gap",
        "offset": 0,
        "slot": "63",
        "type": "t_array(t_uint256)37_storage"
      },
      {
        "astId": 16849,
        "contract": "contracts/strategies/kyber/KyberConverterStrategy.sol:KyberConverterStrategy",
        "label": "baseState",
        "offset": 0,
        "slot": "100",
        "type": "t_struct(BaseState)5446_storage"
      },
      {
        "astId": 17296,
        "contract": "contracts/strategies/kyber/KyberConverterStrategy.sol:KyberConverterStrategy",
        "label": "__gap",
        "offset": 0,
        "slot": "107",
        "type": "t_array(t_uint256)43_storage"
      },
      {
        "astId": 94149,
        "contract": "contracts/strategies/kyber/KyberConverterStrategy.sol:KyberConverterStrategy",
        "label": "liquidationThresholds",
        "offset": 0,
        "slot": "150",
        "type": "t_mapping(t_address,t_uint256)"
      },
      {
        "astId": 94153,
        "contract": "contracts/strategies/kyber/KyberConverterStrategy.sol:KyberConverterStrategy",
        "label": "_csbs",
        "offset": 0,
        "slot": "151",
        "type": "t_struct(ConverterStrategyBaseState)90096_storage"
      },
      {
        "astId": 95636,
        "contract": "contracts/strategies/kyber/KyberConverterStrategy.sol:KyberConverterStrategy",
        "label": "__gap",
        "offset": 0,
        "slot": "204",
        "type": "t_array(t_uint256)46_storage"
      }
    ],
    "types": {
      "t_address": {
        "encoding": "inplace",
        "label": "address",
        "numberOfBytes": "20"
      },
      "t_array(t_uint256)10_storage": {
        "base": "t_uint256",
        "encoding": "inplace",
        "label": "uint256[10]",
        "numberOfBytes": "320"
      },
      "t_array(t_uint256)33_storage": {
        "base": "t_uint256",
        "encoding": "inplace",
        "label": "uint256[33]",
        "numberOfBytes": "1056"
      },
      "t_array(t_uint256)37_storage": {
        "base": "t_uint256",
        "encoding": "inplace",
        "label": "uint256[37]",
        "numberOfBytes": "1184"
      },
      "t_array(t_uint256)43_storage": {
        "base": "t_uint256",
        "encoding": "inplace",
        "label": "uint256[43]",
        "numberOfBytes": "1376"
      },
      "t_array(t_uint256)46_storage": {
        "base": "t_uint256",
        "encoding": "inplace",
        "label": "uint256[46]",
        "numberOfBytes": "1472"
      },
      "t_array(t_uint256)49_storage": {
        "base": "t_uint256",
        "encoding": "inplace",
        "label": "uint256[49]",
        "numberOfBytes": "1568"
      },
      "t_array(t_uint256)4_storage": {
        "base": "t_uint256",
        "encoding": "inplace",
        "label": "uint256[4]",
        "numberOfBytes": "128"
      },
      "t_bool": {
        "encoding": "inplace",
        "label": "bool",
        "numberOfBytes": "1"
      },
      "t_contract(ITetuConverter)51397": {
        "encoding": "inplace",
        "label": "contract ITetuConverter",
        "numberOfBytes": "20"
      },
      "t_enum(FuseStatus)117362": {
        "encoding": "inplace",
        "label": "enum PairBasedStrategyLib.FuseStatus",
        "numberOfBytes": "1"
      },
      "t_int24": {
        "encoding": "inplace",
        "label": "int24",
        "numberOfBytes": "3"
      },
      "t_int256": {
        "encoding": "inplace",
        "label": "int256",
        "numberOfBytes": "32"
      },
      "t_mapping(t_address,t_uint256)": {
        "encoding": "mapping",
        "key": "t_address",
        "label": "mapping(address => uint256)",
        "numberOfBytes": "32",
        "value": "t_uint256"
      },
      "t_string_storage": {
        "encoding": "bytes",
        "label": "string",
        "numberOfBytes": "32"
      },
      "t_struct(BaseState)5446_storage": {
        "encoding": "inplace",
        "label": "struct IStrategyV3.BaseState",
        "members": [
          {
            "astId": 5427,
            "contract": "contracts/strategies/kyber/KyberConverterStrategy.sol:KyberConverterStrategy",
            "label": "asset",
            "offset": 0,
            "slot": "0",
            "type": "t_address"
          },
          {
            "astId": 5430,
            "contract": "contracts/strategies/kyber/KyberConverterStrategy.sol:KyberConverterStrategy",
            "label": "splitter",
            "offset": 0,
            "slot": "1",
            "type": "t_address"
          },
          {
            "astId": 5433,
            "contract": "contracts/strategies/kyber/KyberConverterStrategy.sol:KyberConverterStrategy",
            "label": "performanceReceiver",
            "offset": 0,
            "slot": "2",
            "type": "t_address"
          },
          {
            "astId": 5436,
            "contract": "contracts/strategies/kyber/KyberConverterStrategy.sol:KyberConverterStrategy",
            "label": "performanceFee",
            "offset": 0,
            "slot": "3",
            "type": "t_uint256"
          },
          {
            "astId": 5439,
            "contract": "contracts/strategies/kyber/KyberConverterStrategy.sol:KyberConverterStrategy",
            "label": "performanceFeeRatio",
            "offset": 0,
            "slot": "4",
            "type": "t_uint256"
          },
          {
            "astId": 5442,
            "contract": "contracts/strategies/kyber/KyberConverterStrategy.sol:KyberConverterStrategy",
            "label": "compoundRatio",
            "offset": 0,
            "slot": "5",
            "type": "t_uint256"
          },
          {
            "astId": 5445,
            "contract": "contracts/strategies/kyber/KyberConverterStrategy.sol:KyberConverterStrategy",
            "label": "strategySpecificName",
            "offset": 0,
            "slot": "6",
            "type": "t_string_storage"
          }
        ],
        "numberOfBytes": "224"
      },
      "t_struct(ConverterStrategyBaseState)90096_storage": {
        "encoding": "inplace",
        "label": "struct IConverterStrategyBase.ConverterStrategyBaseState",
        "members": [
          {
            "astId": 90078,
            "contract": "contracts/strategies/kyber/KyberConverterStrategy.sol:KyberConverterStrategy",
            "label": "investedAssets",
            "offset": 0,
            "slot": "0",
            "type": "t_uint256"
          },
          {
            "astId": 90082,
            "contract": "contracts/strategies/kyber/KyberConverterStrategy.sol:KyberConverterStrategy",
            "label": "converter",
            "offset": 0,
            "slot": "1",
            "type": "t_contract(ITetuConverter)51397"
          },
          {
            "astId": 90085,
            "contract": "contracts/strategies/kyber/KyberConverterStrategy.sol:KyberConverterStrategy",
            "label": "reinvestThresholdPercent",
            "offset": 0,
            "slot": "2",
            "type": "t_uint256"
          },
          {
            "astId": 90088,
            "contract": "contracts/strategies/kyber/KyberConverterStrategy.sol:KyberConverterStrategy",
            "label": "debtToInsurance",
            "offset": 0,
            "slot": "3",
            "type": "t_int256"
          },
          {
            "astId": 90095,
            "contract": "contracts/strategies/kyber/KyberConverterStrategy.sol:KyberConverterStrategy",
            "label": "__gap",
            "offset": 0,
            "slot": "4",
            "type": "t_array(t_uint256)49_storage"
          }
        ],
        "numberOfBytes": "1696"
      },
      "t_struct(FuseStateParams)117402_storage": {
        "encoding": "inplace",
        "label": "struct PairBasedStrategyLib.FuseStateParams",
        "members": [
          {
            "astId": 117391,
            "contract": "contracts/strategies/kyber/KyberConverterStrategy.sol:KyberConverterStrategy",
            "label": "status",
            "offset": 0,
            "slot": "0",
            "type": "t_enum(FuseStatus)117362"
          },
          {
            "astId": 117396,
            "contract": "contracts/strategies/kyber/KyberConverterStrategy.sol:KyberConverterStrategy",
            "label": "thresholds",
            "offset": 0,
            "slot": "1",
            "type": "t_array(t_uint256)4_storage"
          },
          {
            "astId": 117401,
            "contract": "contracts/strategies/kyber/KyberConverterStrategy.sol:KyberConverterStrategy",
            "label": "__gap",
            "offset": 0,
            "slot": "5",
            "type": "t_array(t_uint256)4_storage"
          }
        ],
        "numberOfBytes": "288"
      },
      "t_struct(PairState)119568_storage": {
        "encoding": "inplace",
        "label": "struct PairBasedStrategyLogicLib.PairState",
        "members": [
          {
            "astId": 119527,
            "contract": "contracts/strategies/kyber/KyberConverterStrategy.sol:KyberConverterStrategy",
            "label": "pool",
            "offset": 0,
            "slot": "0",
            "type": "t_address"
          },
          {
            "astId": 119529,
            "contract": "contracts/strategies/kyber/KyberConverterStrategy.sol:KyberConverterStrategy",
            "label": "strategyProfitHolder",
            "offset": 0,
            "slot": "1",
            "type": "t_address"
          },
          {
            "astId": 119532,
            "contract": "contracts/strategies/kyber/KyberConverterStrategy.sol:KyberConverterStrategy",
            "label": "tokenA",
            "offset": 0,
            "slot": "2",
            "type": "t_address"
          },
          {
            "astId": 119535,
            "contract": "contracts/strategies/kyber/KyberConverterStrategy.sol:KyberConverterStrategy",
            "label": "tokenB",
            "offset": 0,
            "slot": "3",
            "type": "t_address"
          },
          {
            "astId": 119537,
            "contract": "contracts/strategies/kyber/KyberConverterStrategy.sol:KyberConverterStrategy",
            "label": "isStablePool",
            "offset": 20,
            "slot": "3",
            "type": "t_bool"
          },
          {
            "astId": 119540,
            "contract": "contracts/strategies/kyber/KyberConverterStrategy.sol:KyberConverterStrategy",
            "label": "depositorSwapTokens",
            "offset": 21,
            "slot": "3",
            "type": "t_bool"
          },
          {
            "astId": 119542,
            "contract": "contracts/strategies/kyber/KyberConverterStrategy.sol:KyberConverterStrategy",
            "label": "tickSpacing",
            "offset": 22,
            "slot": "3",
            "type": "t_int24"
          },
          {
            "astId": 119544,
            "contract": "contracts/strategies/kyber/KyberConverterStrategy.sol:KyberConverterStrategy",
            "label": "lowerTick",
            "offset": 25,
            "slot": "3",
            "type": "t_int24"
          },
          {
            "astId": 119546,
            "contract": "contracts/strategies/kyber/KyberConverterStrategy.sol:KyberConverterStrategy",
            "label": "upperTick",
            "offset": 28,
            "slot": "3",
            "type": "t_int24"
          },
          {
            "astId": 119548,
            "contract": "contracts/strategies/kyber/KyberConverterStrategy.sol:KyberConverterStrategy",
            "label": "rebalanceTickRange",
            "offset": 0,
            "slot": "4",
            "type": "t_int24"
          },
          {
            "astId": 119550,
            "contract": "contracts/strategies/kyber/KyberConverterStrategy.sol:KyberConverterStrategy",
            "label": "totalLiquidity",
            "offset": 3,
            "slot": "4",
            "type": "t_uint128"
          },
          {
            "astId": 119554,
            "contract": "contracts/strategies/kyber/KyberConverterStrategy.sol:KyberConverterStrategy",
            "label": "fuseAB",
            "offset": 0,
            "slot": "5",
            "type": "t_struct(FuseStateParams)117402_storage"
          },
          {
            "astId": 119557,
            "contract": "contracts/strategies/kyber/KyberConverterStrategy.sol:KyberConverterStrategy",
            "label": "withdrawDone",
            "offset": 0,
            "slot": "14",
            "type": "t_uint256"
          },
          {
            "astId": 119560,
            "contract": "contracts/strategies/kyber/KyberConverterStrategy.sol:KyberConverterStrategy",
            "label": "lastRebalanceNoSwap",
            "offset": 0,
            "slot": "15",
            "type": "t_uint256"
          },
          {
            "astId": 119567,
            "contract": "contracts/strategies/kyber/KyberConverterStrategy.sol:KyberConverterStrategy",
            "label": "__gap",
            "offset": 0,
            "slot": "16",
            "type": "t_array(t_uint256)33_storage"
          }
        ],
        "numberOfBytes": "1568"
      },
      "t_struct(State)112441_storage": {
        "encoding": "inplace",
        "label": "struct KyberConverterStrategyLogicLib.State",
        "members": [
          {
            "astId": 112429,
            "contract": "contracts/strategies/kyber/KyberConverterStrategy.sol:KyberConverterStrategy",
            "label": "pair",
            "offset": 0,
            "slot": "0",
            "type": "t_struct(PairState)119568_storage"
          },
          {
            "astId": 112431,
            "contract": "contracts/strategies/kyber/KyberConverterStrategy.sol:KyberConverterStrategy",
            "label": "tokenId",
            "offset": 0,
            "slot": "49",
            "type": "t_uint256"
          },
          {
            "astId": 112433,
            "contract": "contracts/strategies/kyber/KyberConverterStrategy.sol:KyberConverterStrategy",
            "label": "pId",
            "offset": 0,
            "slot": "50",
            "type": "t_uint256"
          },
          {
            "astId": 112435,
            "contract": "contracts/strategies/kyber/KyberConverterStrategy.sol:KyberConverterStrategy",
            "label": "staked",
            "offset": 0,
            "slot": "51",
            "type": "t_bool"
          },
          {
            "astId": 112440,
            "contract": "contracts/strategies/kyber/KyberConverterStrategy.sol:KyberConverterStrategy",
            "label": "__gap",
            "offset": 0,
            "slot": "52",
            "type": "t_array(t_uint256)10_storage"
          }
        ],
        "numberOfBytes": "1984"
      },
      "t_uint128": {
        "encoding": "inplace",
        "label": "uint128",
        "numberOfBytes": "16"
      },
      "t_uint256": {
        "encoding": "inplace",
        "label": "uint256",
        "numberOfBytes": "32"
      },
      "t_uint8": {
        "encoding": "inplace",
        "label": "uint8",
        "numberOfBytes": "1"
      }
    }
  }
}