{
  "address": "0x3eCD66374506a2b9EF6344aFc0A66e52f4db818C",
  "abi": [
    {
      "anonymous": false,
      "inputs": [
        {
          "indexed": false,
          "internalType": "address",
          "name": "controller",
          "type": "address"
        },
        {
          "indexed": false,
          "internalType": "uint256",
          "name": "ts",
          "type": "uint256"
        },
        {
          "indexed": false,
          "internalType": "uint256",
          "name": "block",
          "type": "uint256"
        }
      ],
      "name": "ContractInitialized",
      "type": "event"
    },
    {
      "anonymous": false,
      "inputs": [
        {
          "indexed": false,
          "internalType": "uint8",
          "name": "version",
          "type": "uint8"
        }
      ],
      "name": "Initialized",
      "type": "event"
    },
    {
      "anonymous": false,
      "inputs": [
        {
          "indexed": false,
          "internalType": "uint256[]",
          "name": "withdrawnAmounts",
          "type": "uint256[]"
        }
      ],
      "name": "OnDepositorEmergencyExit",
      "type": "event"
    },
    {
      "anonymous": false,
      "inputs": [
        {
          "indexed": false,
          "internalType": "uint256[]",
          "name": "amounts",
          "type": "uint256[]"
        },
        {
          "indexed": false,
          "internalType": "uint256[]",
          "name": "consumedAmounts",
          "type": "uint256[]"
        }
      ],
      "name": "OnDepositorEnter",
      "type": "event"
    },
    {
      "anonymous": false,
      "inputs": [
        {
          "indexed": false,
          "internalType": "uint256",
          "name": "liquidityAmount",
          "type": "uint256"
        },
        {
          "indexed": false,
          "internalType": "uint256[]",
          "name": "withdrawnAmounts",
          "type": "uint256[]"
        }
      ],
      "name": "OnDepositorExit",
      "type": "event"
    },
    {
      "anonymous": false,
      "inputs": [
        {
          "indexed": false,
          "internalType": "uint256",
          "name": "investedAssetsNewPrices",
          "type": "uint256"
        },
        {
          "indexed": false,
          "internalType": "uint256",
          "name": "earnedByPrices",
          "type": "uint256"
        },
        {
          "indexed": false,
          "internalType": "uint256",
          "name": "earnedHandleRewards",
          "type": "uint256"
        },
        {
          "indexed": false,
          "internalType": "uint256",
          "name": "lostHandleRewards",
          "type": "uint256"
        },
        {
          "indexed": false,
          "internalType": "uint256",
          "name": "earnedDeposit",
          "type": "uint256"
        },
        {
          "indexed": false,
          "internalType": "uint256",
          "name": "lostDeposit",
          "type": "uint256"
        }
      ],
      "name": "OnHardWorkEarnedLost",
      "type": "event"
    },
    {
      "anonymous": false,
      "inputs": [
        {
          "indexed": false,
          "internalType": "uint256",
          "name": "value",
          "type": "uint256"
        },
        {
          "indexed": false,
          "internalType": "address",
          "name": "oldLogic",
          "type": "address"
        }
      ],
      "name": "RevisionIncreased",
      "type": "event"
    },
    {
      "inputs": [],
      "name": "CONTROLLABLE_VERSION",
      "outputs": [
        {
          "internalType": "string",
          "name": "",
          "type": "string"
        }
      ],
      "stateMutability": "view",
      "type": "function"
    },
    {
      "inputs": [],
      "name": "CONVERTER_STRATEGY_BASE_VERSION",
      "outputs": [
        {
          "internalType": "string",
          "name": "",
          "type": "string"
        }
      ],
      "stateMutability": "view",
      "type": "function"
    },
    {
      "inputs": [],
      "name": "KYBER_DEPOSITOR_VERSION",
      "outputs": [
        {
          "internalType": "string",
          "name": "",
          "type": "string"
        }
      ],
      "stateMutability": "view",
      "type": "function"
    },
    {
      "inputs": [],
      "name": "NAME",
      "outputs": [
        {
          "internalType": "string",
          "name": "",
          "type": "string"
        }
      ],
      "stateMutability": "view",
      "type": "function"
    },
    {
      "inputs": [],
      "name": "PLATFORM",
      "outputs": [
        {
          "internalType": "string",
          "name": "",
          "type": "string"
        }
      ],
      "stateMutability": "view",
      "type": "function"
    },
    {
      "inputs": [],
      "name": "STRATEGY_BASE_VERSION",
      "outputs": [
        {
          "internalType": "string",
          "name": "",
          "type": "string"
        }
      ],
      "stateMutability": "view",
      "type": "function"
    },
    {
      "inputs": [],
      "name": "STRATEGY_VERSION",
      "outputs": [
        {
          "internalType": "string",
          "name": "",
          "type": "string"
        }
      ],
      "stateMutability": "view",
      "type": "function"
    },
    {
      "inputs": [],
      "name": "asset",
      "outputs": [
        {
          "internalType": "address",
          "name": "",
          "type": "address"
        }
      ],
      "stateMutability": "view",
      "type": "function"
    },
    {
      "inputs": [],
      "name": "calcInvestedAssets",
      "outputs": [
        {
          "internalType": "uint256",
          "name": "",
          "type": "uint256"
        }
      ],
      "stateMutability": "nonpayable",
      "type": "function"
    },
    {
      "inputs": [],
      "name": "canFarm",
      "outputs": [
        {
          "internalType": "bool",
          "name": "",
          "type": "bool"
        }
      ],
      "stateMutability": "view",
      "type": "function"
    },
    {
      "inputs": [],
      "name": "capacity",
      "outputs": [
        {
          "internalType": "uint256",
          "name": "",
          "type": "uint256"
        }
      ],
      "stateMutability": "view",
      "type": "function"
    },
    {
      "inputs": [
        {
          "internalType": "uint256",
          "name": "pId",
          "type": "uint256"
        }
      ],
      "name": "changePId",
      "outputs": [],
      "stateMutability": "nonpayable",
      "type": "function"
    },
    {
      "inputs": [],
      "name": "claim",
      "outputs": [],
      "stateMutability": "nonpayable",
      "type": "function"
    },
    {
      "inputs": [],
      "name": "compoundRatio",
      "outputs": [
        {
          "internalType": "uint256",
          "name": "",
          "type": "uint256"
        }
      ],
      "stateMutability": "view",
      "type": "function"
    },
    {
      "inputs": [],
      "name": "controller",
      "outputs": [
        {
          "internalType": "address",
          "name": "",
          "type": "address"
        }
      ],
      "stateMutability": "view",
      "type": "function"
    },
    {
      "inputs": [],
      "name": "converter",
      "outputs": [
        {
          "internalType": "contract ITetuConverter",
          "name": "",
          "type": "address"
        }
      ],
      "stateMutability": "view",
      "type": "function"
    },
    {
      "inputs": [],
      "name": "created",
      "outputs": [
        {
          "internalType": "uint256",
          "name": "",
          "type": "uint256"
        }
      ],
      "stateMutability": "view",
      "type": "function"
    },
    {
      "inputs": [],
      "name": "createdBlock",
      "outputs": [
        {
          "internalType": "uint256",
          "name": "",
          "type": "uint256"
        }
      ],
      "stateMutability": "view",
      "type": "function"
    },
    {
      "inputs": [],
      "name": "doHardWork",
      "outputs": [
        {
          "internalType": "uint256",
          "name": "earned",
          "type": "uint256"
        },
        {
          "internalType": "uint256",
          "name": "lost",
          "type": "uint256"
        }
      ],
      "stateMutability": "nonpayable",
      "type": "function"
    },
    {
      "inputs": [],
      "name": "emergencyExit",
      "outputs": [],
      "stateMutability": "nonpayable",
      "type": "function"
    },
    {
      "inputs": [],
      "name": "getDefaultState",
      "outputs": [
        {
          "internalType": "address[]",
          "name": "addr",
          "type": "address[]"
        },
        {
          "internalType": "int24[]",
          "name": "tickData",
          "type": "int24[]"
        },
        {
          "internalType": "uint256[]",
          "name": "nums",
          "type": "uint256[]"
        },
        {
          "internalType": "bool[]",
          "name": "boolValues",
          "type": "bool[]"
        }
      ],
      "stateMutability": "view",
      "type": "function"
    },
    {
      "inputs": [],
      "name": "getPropNotUnderlying18",
      "outputs": [
        {
          "internalType": "uint256",
          "name": "",
          "type": "uint256"
        }
      ],
      "stateMutability": "view",
      "type": "function"
    },
    {
      "inputs": [
        {
          "internalType": "uint256",
          "name": "slot",
          "type": "uint256"
        }
      ],
      "name": "getSlot",
      "outputs": [
        {
          "internalType": "bytes32",
          "name": "result",
          "type": "bytes32"
        }
      ],
      "stateMutability": "view",
      "type": "function"
    },
    {
      "inputs": [],
      "name": "getSpecificState",
      "outputs": [
        {
          "internalType": "uint256[]",
          "name": "nums",
          "type": "uint256[]"
        },
        {
          "internalType": "bool[]",
          "name": "flags",
          "type": "bool[]"
        }
      ],
      "stateMutability": "view",
      "type": "function"
    },
    {
      "inputs": [
        {
          "internalType": "address",
          "name": "oldLogic",
          "type": "address"
        }
      ],
      "name": "increaseRevision",
      "outputs": [],
      "stateMutability": "nonpayable",
      "type": "function"
    },
    {
      "inputs": [
        {
          "internalType": "address",
          "name": "controller_",
          "type": "address"
        },
        {
          "internalType": "address",
          "name": "splitter_",
          "type": "address"
        },
        {
          "internalType": "address",
          "name": "converter_",
          "type": "address"
        },
        {
          "internalType": "address",
          "name": "pool_",
          "type": "address"
        },
        {
          "internalType": "int24",
          "name": "tickRange_",
          "type": "int24"
        },
        {
          "internalType": "int24",
          "name": "rebalanceTickRange_",
          "type": "int24"
        },
        {
          "internalType": "bool",
          "name": "isStablePool",
          "type": "bool"
        },
        {
          "internalType": "uint256",
          "name": "pId",
          "type": "uint256"
        },
        {
          "internalType": "uint256[4]",
          "name": "fuseThresholds",
          "type": "uint256[4]"
        }
      ],
      "name": "init",
      "outputs": [],
      "stateMutability": "nonpayable",
      "type": "function"
    },
    {
      "inputs": [
        {
          "internalType": "uint256",
          "name": "",
          "type": "uint256"
        },
        {
          "internalType": "bool",
          "name": "updateTotalAssetsBeforeInvest_",
          "type": "bool"
        }
      ],
      "name": "investAll",
      "outputs": [
        {
          "internalType": "uint256",
          "name": "strategyLoss",
          "type": "uint256"
        }
      ],
      "stateMutability": "nonpayable",
      "type": "function"
    },
    {
      "inputs": [],
      "name": "investedAssets",
      "outputs": [
        {
          "internalType": "uint256",
          "name": "",
          "type": "uint256"
        }
      ],
      "stateMutability": "view",
      "type": "function"
    },
    {
      "inputs": [
        {
          "internalType": "address",
          "name": "_value",
          "type": "address"
        }
      ],
      "name": "isController",
      "outputs": [
        {
          "internalType": "bool",
          "name": "",
          "type": "bool"
        }
      ],
      "stateMutability": "view",
      "type": "function"
    },
    {
      "inputs": [
        {
          "internalType": "address",
          "name": "_value",
          "type": "address"
        }
      ],
      "name": "isGovernance",
      "outputs": [
        {
          "internalType": "bool",
          "name": "",
          "type": "bool"
        }
      ],
      "stateMutability": "view",
      "type": "function"
    },
    {
      "inputs": [],
      "name": "isReadyToHardWork",
      "outputs": [
        {
          "internalType": "bool",
          "name": "",
          "type": "bool"
        }
      ],
      "stateMutability": "view",
      "type": "function"
    },
    {
      "inputs": [
        {
          "internalType": "address",
          "name": "",
          "type": "address"
        }
      ],
      "name": "liquidationThresholds",
      "outputs": [
        {
          "internalType": "uint256",
          "name": "",
          "type": "uint256"
        }
      ],
      "stateMutability": "view",
      "type": "function"
    },
    {
      "inputs": [],
      "name": "needRebalance",
      "outputs": [
        {
          "internalType": "bool",
          "name": "",
          "type": "bool"
        }
      ],
      "stateMutability": "view",
      "type": "function"
    },
    {
      "inputs": [
        {
          "internalType": "address",
          "name": "",
          "type": "address"
        },
        {
          "internalType": "address",
          "name": "",
          "type": "address"
        },
        {
          "internalType": "uint256",
          "name": "",
          "type": "uint256"
        },
        {
          "internalType": "bytes",
          "name": "",
          "type": "bytes"
        }
      ],
      "name": "onERC721Received",
      "outputs": [
        {
          "internalType": "bytes4",
          "name": "",
          "type": "bytes4"
        }
      ],
      "stateMutability": "pure",
      "type": "function"
    },
    {
      "inputs": [
        {
          "internalType": "address[]",
          "name": "assets_",
          "type": "address[]"
        },
        {
          "internalType": "uint256[]",
          "name": "amounts_",
          "type": "uint256[]"
        }
      ],
      "name": "onTransferAmounts",
      "outputs": [],
      "stateMutability": "nonpayable",
      "type": "function"
    },
    {
      "inputs": [],
      "name": "performanceFee",
      "outputs": [
        {
          "internalType": "uint256",
          "name": "",
          "type": "uint256"
        }
      ],
      "stateMutability": "view",
      "type": "function"
    },
    {
      "inputs": [],
      "name": "performanceFeeRatio",
      "outputs": [
        {
          "internalType": "uint256",
          "name": "",
          "type": "uint256"
        }
      ],
      "stateMutability": "view",
      "type": "function"
    },
    {
      "inputs": [],
      "name": "performanceReceiver",
      "outputs": [
        {
          "internalType": "address",
          "name": "",
          "type": "address"
        }
      ],
      "stateMutability": "view",
      "type": "function"
    },
    {
      "inputs": [],
      "name": "previousImplementation",
      "outputs": [
        {
          "internalType": "address",
          "name": "",
          "type": "address"
        }
      ],
      "stateMutability": "view",
      "type": "function"
    },
    {
      "inputs": [
        {
          "internalType": "bytes",
          "name": "planEntryData",
          "type": "bytes"
        }
      ],
      "name": "quoteWithdrawByAgg",
      "outputs": [
        {
          "internalType": "address",
          "name": "tokenToSwap",
          "type": "address"
        },
        {
          "internalType": "uint256",
          "name": "amountToSwap",
          "type": "uint256"
        }
      ],
      "stateMutability": "nonpayable",
      "type": "function"
    },
    {
      "inputs": [
        {
          "internalType": "bool",
          "name": "checkNeedRebalance",
          "type": "bool"
        }
      ],
      "name": "rebalanceNoSwaps",
      "outputs": [],
      "stateMutability": "nonpayable",
      "type": "function"
    },
    {
      "inputs": [],
      "name": "reinvestThresholdPercent",
      "outputs": [
        {
          "internalType": "uint256",
          "name": "",
          "type": "uint256"
        }
      ],
      "stateMutability": "view",
      "type": "function"
    },
    {
      "inputs": [
        {
          "internalType": "address",
          "name": "theAsset_",
          "type": "address"
        },
        {
          "internalType": "uint256",
          "name": "amount_",
          "type": "uint256"
        }
      ],
      "name": "requirePayAmountBack",
      "outputs": [
        {
          "internalType": "uint256",
          "name": "amountOut",
          "type": "uint256"
        }
      ],
      "stateMutability": "nonpayable",
      "type": "function"
    },
    {
      "inputs": [],
      "name": "revision",
      "outputs": [
        {
          "internalType": "uint256",
          "name": "",
          "type": "uint256"
        }
      ],
      "stateMutability": "view",
      "type": "function"
    },
    {
      "inputs": [
        {
          "internalType": "uint256",
          "name": "value",
          "type": "uint256"
        }
      ],
      "name": "setCompoundRatio",
      "outputs": [],
      "stateMutability": "nonpayable",
      "type": "function"
    },
    {
      "inputs": [
        {
          "internalType": "uint256",
          "name": "status",
          "type": "uint256"
        }
      ],
      "name": "setFuseStatus",
      "outputs": [],
      "stateMutability": "nonpayable",
      "type": "function"
    },
    {
      "inputs": [
        {
          "internalType": "uint256[4]",
          "name": "values",
          "type": "uint256[4]"
        }
      ],
      "name": "setFuseThresholds",
      "outputs": [],
      "stateMutability": "nonpayable",
      "type": "function"
    },
    {
      "inputs": [
        {
          "internalType": "address",
          "name": "token",
          "type": "address"
        },
        {
          "internalType": "uint256",
          "name": "amount",
          "type": "uint256"
        }
      ],
      "name": "setLiquidationThreshold",
      "outputs": [],
      "stateMutability": "nonpayable",
      "type": "function"
    },
    {
      "inputs": [
        {
          "internalType": "uint256",
          "name": "percent_",
          "type": "uint256"
        }
      ],
      "name": "setReinvestThresholdPercent",
      "outputs": [],
      "stateMutability": "nonpayable",
      "type": "function"
    },
    {
      "inputs": [
        {
          "internalType": "address",
          "name": "strategyProfitHolder",
          "type": "address"
        }
      ],
      "name": "setStrategyProfitHolder",
      "outputs": [],
      "stateMutability": "nonpayable",
      "type": "function"
    },
    {
      "inputs": [
        {
          "internalType": "string",
          "name": "name",
          "type": "string"
        }
      ],
      "name": "setStrategySpecificName",
      "outputs": [],
      "stateMutability": "nonpayable",
      "type": "function"
    },
    {
      "inputs": [
        {
          "internalType": "uint256",
          "name": "done",
          "type": "uint256"
        }
      ],
      "name": "setWithdrawDone",
      "outputs": [],
      "stateMutability": "nonpayable",
      "type": "function"
    },
    {
      "inputs": [
        {
          "internalType": "uint256",
          "name": "fee_",
          "type": "uint256"
        },
        {
          "internalType": "address",
          "name": "receiver_",
          "type": "address"
        },
        {
          "internalType": "uint256",
          "name": "ratio_",
          "type": "uint256"
        }
      ],
      "name": "setupPerformanceFee",
      "outputs": [],
      "stateMutability": "nonpayable",
      "type": "function"
    },
    {
      "inputs": [],
      "name": "splitter",
      "outputs": [
        {
          "internalType": "address",
          "name": "",
          "type": "address"
        }
      ],
      "stateMutability": "view",
      "type": "function"
    },
    {
      "inputs": [],
      "name": "strategySpecificName",
      "outputs": [
        {
          "internalType": "string",
          "name": "",
          "type": "string"
        }
      ],
      "stateMutability": "view",
      "type": "function"
    },
    {
      "inputs": [
        {
          "internalType": "bytes4",
          "name": "interfaceId",
          "type": "bytes4"
        }
      ],
      "name": "supportsInterface",
      "outputs": [
        {
          "internalType": "bool",
          "name": "",
          "type": "bool"
        }
      ],
      "stateMutability": "view",
      "type": "function"
    },
    {
      "inputs": [],
      "name": "totalAssets",
      "outputs": [
        {
          "internalType": "uint256",
          "name": "",
          "type": "uint256"
        }
      ],
      "stateMutability": "view",
      "type": "function"
    },
    {
      "inputs": [],
      "name": "withdrawAllToSplitter",
      "outputs": [
        {
          "internalType": "uint256",
          "name": "strategyLoss",
          "type": "uint256"
        }
      ],
      "stateMutability": "nonpayable",
      "type": "function"
    },
    {
      "inputs": [
        {
          "internalType": "address",
          "name": "tokenToSwap_",
          "type": "address"
        },
        {
          "internalType": "address",
          "name": "aggregator_",
          "type": "address"
        },
        {
          "internalType": "uint256",
          "name": "amountToSwap_",
          "type": "uint256"
        },
        {
          "internalType": "bytes",
          "name": "swapData",
          "type": "bytes"
        },
        {
          "internalType": "bytes",
          "name": "planEntryData",
          "type": "bytes"
        },
        {
          "internalType": "uint256",
          "name": "entryToPool",
          "type": "uint256"
        }
      ],
      "name": "withdrawByAggStep",
      "outputs": [
        {
          "internalType": "bool",
          "name": "completed",
          "type": "bool"
        }
      ],
      "stateMutability": "nonpayable",
      "type": "function"
    },
    {
      "inputs": [
        {
          "internalType": "uint256",
          "name": "amount",
          "type": "uint256"
        }
      ],
      "name": "withdrawToSplitter",
      "outputs": [
        {
          "internalType": "uint256",
          "name": "strategyLoss",
          "type": "uint256"
        }
      ],
      "stateMutability": "nonpayable",
      "type": "function"
    }
  ],
  "transactionHash": "0x478cd8f0833de0bc6eb98da94a5ccada0c29fe82421b78544679eb442b7ef928",
  "args": [],
  "numDeployments": 6,
  "solcInputHash": "b61f6c8d2f8976a66eab3172665489c0",
  "bytecode": "0x60806040523480156200001157600080fd5b506200001c62000022565b620000e3565b600054610100900460ff16156200008f5760405162461bcd60e51b815260206004820152602760248201527f496e697469616c697a61626c653a20636f6e747261637420697320696e697469604482015266616c697a696e6760c81b606482015260840160405180910390fd5b60005460ff90811614620000e1576000805460ff191660ff9081179091556040519081527f7f26b83ff96e1f2b6a682f133852f6798a09c465da95921460cefb38474024989060200160405180910390a15b565b615d7780620000f36000396000f3fe608060405234801561001057600080fd5b50600436106103645760003560e01c806365f50a8d116101c95780639d0bcca0116100ff578063cd4c8156116100ad578063dee1f0e41161007c578063dee1f0e41461078d578063dfeb1032146107a0578063f77c4791146107b3578063ffb86c6a146107bb57600080fd5b8063cd4c815614610761578063ceee861d1461056e578063d295ea7014610772578063de3d047c1461077a57600080fd5b80639d0bcca0146106b1578063a3f4df7e146106b9578063ab9e3eee146106f0578063b2457556146106f8578063b429afeb1461070b578063b77c975b1461071e578063bd38837b1461075057600080fd5b80637cc96380116101775780638778878211610146578063877887821461065f57806387c7f77014610667578063936725ec1461067a57806396b7b14e1461069e57600080fd5b80637cc96380146106195780637eba7ba6146106215780637efc77fa1461063357806380e7ac7c1461065757600080fd5b806365f50a8d146105a55780636b5fba5a146105b85780636ffb4c8e146105cb5780637063a237146105de57806371ee0175146105f157806373a50ef51461056e57806378327438146105f957600080fd5b80634593144c1161029e57806352bbbb741161024c578063569c39cb1161021b578063569c39cb146105405780635cfc1a51146105645780636207a0cf1461056e57806363e277341461059257600080fd5b806352bbbb74146104f55780635412335d1461050b57806354679963146105235780635641ec031461053857600080fd5b80634593144c146104925780634ad0b6841461049a5780634ba31b01146104a25780634e71d92d146104aa5780634fa5d854146104b25780634fac6ccd146104cf57806351e03fbe146104e257600080fd5b80631d2dca9e1161031657806333c5b58e116102e557806333c5b58e1461044c57806338d52e0f146104545780633cd8045e1461046e57806342fdb4711461047f57600080fd5b80631d2dca9e146104165780632221eb3c14610429578063261efa121461043c578063325a19f11461044457600080fd5b806301e1d1141461036957806301ffc9a714610384578063066a6fc3146103a75780630acd12c7146103ba5780630d923929146103c25780630e30428d146103d7578063150b7a02146103ea575b600080fd5b6103716107c3565b6040519081526020015b60405180910390f35b610397610392366004614982565b61084e565b604051901515815260200161037b565b6103976103b5366004614a87565b610894565b610371610a70565b6103d56103d0366004614b3e565b610b92565b005b6103d56103e5366004614bf6565b610eaa565b6103fd6103f8366004614c22565b610f4e565b6040516001600160e01b0319909116815260200161037b565b6103d5610424366004614c8d565b610f5f565b6103d5610437366004614caa565b61115b565b606854610371565b6103716111d1565b610371611201565b6064546001600160a01b03165b60405161037b9190614cc3565b6065546001600160a01b0316610461565b6103d561048d366004614caa565b611279565b610371611368565b609754610371565b610371611398565b6103d561140f565b6104ba611489565b6040805192835260208301919091520161037b565b6103d56104dd366004614cd7565b6114ee565b6103716104f0366004614caa565b611620565b6104fd6117e8565b60405161037b929190614d61565b610513611ad8565b60405161037b9493929190614d8f565b61052b611b67565b60405161037b9190614e83565b6103d5611bfc565b61052b604051806040016040528060058152602001640312e302e360dc1b81525081565b600160ff1b610371565b61052b604051806040016040528060058152602001640332e302e360dc1b81525081565b6103d56105a0366004614e96565b611c95565b6103d56105b3366004614caa565b611d73565b6103d56105c6366004614cd7565b611e41565b6103d56105d9366004614caa565b611ed2565b6103d56105ec366004614f07565b611f5a565b609954610371565b610371610607366004614cd7565b60966020526000908152604090205481565b610371611ff8565b61037161062f366004614caa565b5490565b61052b6040518060400160405280600581526020016425bcb132b960d91b81525081565b610397612028565b606754610371565b610371610675366004614bf6565b6120ae565b61052b60405180604001604052806005815260200164332e302e3160d81b81525081565b6103d56106ac366004614fc8565b612394565b610461612439565b61052b604051806040016040528060188152602001774b7962657220436f6e76657274657220537472617465677960401b81525081565b610397612469565b610371610706366004615089565b612483565b610397610719366004614cd7565b612532565b61073161072c3660046150b9565b612557565b604080516001600160a01b03909316835260208301919091520161037b565b6098546001600160a01b0316610461565b6066546001600160a01b0316610461565b606954610371565b6103d5610788366004614caa565b612649565b61039761079b366004614cd7565b6126a6565b6103d56107ae3660046150ed565b61272b565b6104616127d3565b610397612803565b60006107ce60975490565b6064546040516370a0823160e01b81526001600160a01b03909116906370a08231906107fe903090600401614cc3565b602060405180830381865afa15801561081b573d6000803e3d6000fd5b505050506040513d601f19601f8201168201806040525081019061083f919061516a565b6108499190615199565b905090565b60006001600160e01b03198216631e94dddf60e01b148061087f57506001600160e01b0319821663f73147b360e01b145b8061088e575061088e82612920565b92915050565b60008060006108a1612945565b915091506060732DbADFbD05B939Ab1886Fc2438be3Cad44BbCBa0632aed8d416040518060a001604052808d6001600160a01b03166001600160a01b031681526020018c6001600160a01b03166001600160a01b031681526020016109046127d3565b6001600160a01b039081168252609854811660208084019190915260655490911660409283015281516080810183528d8152908101889052808201879052606081018a905290516001600160e01b031960e085901b1681526109749291908c908c906001906096906004016151cf565b600060405180830381865af4158015610991573d6000803e3d6000fd5b505050506040513d6000823e601f3d908101601f191682016040526109b991908101906152ab565b90945090506109c7816129f7565b60006010558380156109dc57506109dc612a26565b156109e7576001600f555b606480546040516368f9467b60e01b81526001600160a01b0390911660048201526024810184905260976044820152731FcdC0662a43dD6f78A3EbD893277fae778baF9c916368f9467b910160006040518083038186803b158015610a4b57600080fd5b505af4158015610a5f573d6000803e3d6000fd5b505050505050509695505050505050565b606554606454604051633e53813360e11b81526000926001600160a01b0390811692169083907300B6384Da9F9f1e31Feed637628Eb490732981b990637ca7026690610ac290869086906004016152f1565b602060405180830381865af4158015610adf573d6000803e3d6000fd5b505050506040513d601f19601f82011682018060405250810190610b03919061516a565b90506000806000610b12612a38565b9250925092507300B6384Da9F9f1e31Feed637628Eb490732981b9639ad00ec2868686868b6040518663ffffffff1660e01b8152600401610b5795949392919061530b565b60006040518083038186803b158015610b6f57600080fd5b505af4158015610b83573d6000803e3d6000fd5b50929998505050505050505050565b600054610100900460ff1615808015610bb25750600054600160ff909116105b80610bcc5750303b158015610bcc575060005460ff166001145b610c345760405162461bcd60e51b815260206004820152602e60248201527f496e697469616c697a61626c653a20636f6e747261637420697320616c72656160448201526d191e481a5b9a5d1a585b1a5e995960921b60648201526084015b60405180910390fd5b6000805460ff191660011790558015610c57576000805461ff0019166101001790555b610c628a8a8a612a53565b732DbADFbD05B939Ab1886Fc2438be3Cad44BbCBa0630bf00b70600160405180604001604052808e6001600160a01b03166001600160a01b031681526020018b6001600160a01b03166001600160a01b031681525089898e6001600160a01b03166338d52e0f6040518163ffffffff1660e01b8152600401602060405180830381865afa158015610cf7573d6000803e3d6000fd5b505050506040513d601f19601f82011682018060405250810190610d1b919061533b565b8a896040518863ffffffff1660e01b8152600401610d3f9796959493929190615384565b60006040518083038186803b158015610d5757600080fd5b505af4158015610d6b573d6000803e3d6000fd5b50505060338490555060405163bd85be2960e01b8152600160048201527300B6384Da9F9f1e31Feed637628Eb490732981b990637fc1c15b90606490732DbADFbD05B939Ab1886Fc2438be3Cad44BbCBa09063bd85be2990602401600060405180830381865af4158015610de3573d6000803e3d6000fd5b505050506040513d6000823e601f3d908101601f19168201604052610e0b91908101906153d5565b6040518363ffffffff1660e01b8152600401610e28929190615442565b60006040518083038186803b158015610e4057600080fd5b505af4158015610e54573d6000803e3d6000fd5b505050508015610e9e576000805461ff0019169055604051600181527f7f26b83ff96e1f2b6a682f133852f6798a09c465da95921460cefb38474024989060200160405180910390a15b50505050505050505050565b731FcdC0662a43dD6f78A3EbD893277fae778baF9c63142395ef610ecc6127d3565b6040516001600160e01b031960e084901b1681526001600160a01b03918216600482015290851660248201526044810184905260640160006040518083038186803b158015610f1a57600080fd5b505af4158015610f2e573d6000803e3d6000fd5b5050506001600160a01b0390921660009081526096602052604090205550565b630a85bd0160e11b5b949350505050565b6000610f696127d3565b60405163124fdbb760e21b81529091507300B6384Da9F9f1e31Feed637628Eb490732981b99063493f6edc90610fa3908490600401614cc3565b60006040518083038186803b158015610fbb57600080fd5b505af4158015610fcf573d6000803e3d6000fd5b50506040516304de78eb60e11b81526001600482015260009250829150732DbADFbD05B939Ab1886Fc2438be3Cad44BbCBa0906309bcf1d6906024016040805180830381865af4158015611027573d6000803e3d6000fd5b505050506040513d601f19601f8201168201806040525081019061104b919061545b565b9150915081806110585750805b1561106257600093505b60008061106d612945565b604080518082019091526098546001600160a01b031681529193509150600090732DbADFbD05B939Ab1886Fc2438be3Cad44BbCBa090638aa04c4690600190602081016110b98b612af5565b6001600160a01b0390811690915260655487918991168d60968d806110db57508c5b6040518963ffffffff1660e01b81526004016110fe98979695949392919061548a565b600060405180830381865af415801561111b573d6000803e3d6000fd5b505050506040513d6000823e601f3d908101601f1916820160405261114391908101906154dc565b905061114e816129f7565b5050426010555050505050565b7300B6384Da9F9f1e31Feed637628Eb490732981b963493f6edc61117d6127d3565b6040518263ffffffff1660e01b81526004016111999190614cc3565b60006040518083038186803b1580156111b157600080fd5b505af41580156111c5573d6000803e3d6000fd5b505050600f9190915550565b600061084961062f60017f6f55f470bdc9cb5f04223fd822021061668e4dccb43e8727b295106dc9769c8b615510565b60007300B6384Da9F9f1e31Feed637628Eb490732981b963493f6edc6112256127d3565b6040518263ffffffff1660e01b81526004016112419190614cc3565b60006040518083038186803b15801561125957600080fd5b505af415801561126d573d6000803e3d6000fd5b50505050610849612b59565b7300B6384Da9F9f1e31Feed637628Eb490732981b963493f6edc61129b6127d3565b6040518263ffffffff1660e01b81526004016112b79190614cc3565b60006040518083038186803b1580156112cf57600080fd5b505af41580156112e3573d6000803e3d6000fd5b5073a8788689d9360D0ddca76d5Cc475945a119b11Fe9250636bffb34691506006905083600381111561131857611318615523565b6040518363ffffffff1660e01b8152600401611335929190615539565b60006040518083038186803b15801561134d57600080fd5b505af4158015611361573d6000803e3d6000fd5b5050505050565b600061084961062f60017f812a673dfca07956350df10f8a654925f561d7a0da09bdbe79e653939a14d9f1615510565b604051630a3c2bb160e21b815260016004820152600090732DbADFbD05B939Ab1886Fc2438be3Cad44BbCBa0906328f0aec490602401602060405180830381865af41580156113eb573d6000803e3d6000fd5b505050506040513d601f19601f82011682018060405250810190610849919061516a565b7300B6384Da9F9f1e31Feed637628Eb490732981b963d19cc38a6114316127d3565b6040518263ffffffff1660e01b815260040161144d9190614cc3565b60006040518083038186803b15801561146557600080fd5b505af4158015611479573d6000803e3d6000fd5b50505050611485612c86565b5050565b60655460408051808201909152600a81526914d08e8811195b9a595960b21b60208201526000918291906001600160a01b031633146114db5760405162461bcd60e51b8152600401610c2b9190614e83565b506114e66001612d42565b915091509091565b33301461153d5760405162461bcd60e51b815260206004820152601b60248201527f496e637265617365207265766973696f6e20666f7262696464656e00000000006044820152606401610c2b565b600061156d61062f60017f22573091f17911fb166032a3d9e0554aa73d31b7b7ddea4a4dd2995650af84bd615510565b611578906001615199565b90506115ac816115a960017f22573091f17911fb166032a3d9e0554aa73d31b7b7ddea4a4dd2995650af84bd615510565b55565b6115db826115a960017fbfaaa2fb63266ff27c2da975f5894955056f50419af651a81f6c5060581857e4615510565b604080518281526001600160a01b03841660208201527ff27e2ef832a4eb8ed8ec553b875eecd44764cda95b1c24170e281539e0a869c8910160405180910390a15050565b606554606454604051633e53813360e11b81526000926001600160a01b0390811692169083907300B6384Da9F9f1e31Feed637628Eb490732981b990637ca702669061167290869086906004016152f1565b602060405180830381865af415801561168f573d6000803e3d6000fd5b505050506040513d601f19601f820116820180604052508101906116b3919061516a565b90508085111561175f576000806116d26116cd8489615510565b612e91565b604051631594b05b60e01b815290985091935091507300B6384Da9F9f1e31Feed637628Eb490732981b990631594b05b906117199087908790879087908c9060040161530b565b602060405180830381865af4158015611736573d6000803e3d6000fd5b505050506040513d601f19601f8201168201806040525081019061175a919061516a565b925050505b6040516333bbb20360e11b815260048101869052602481018290526001600160a01b038084166044830152841660648201527300B6384Da9F9f1e31Feed637628Eb490732981b99063677764069060840160006040518083038186803b1580156117c857600080fd5b505af41580156117dc573d6000803e3d6000fd5b50505050505050919050565b6002546040805160038082526080820190925260609283926001600160a01b03909116919060208201848036833750506003546040516370a0823160e01b81529295506001600160a01b0316916370a08231915061184a908490600401614cc3565b602060405180830381865afa158015611867573d6000803e3d6000fd5b505050506040513d601f19601f8201168201806040525081019061188b919061516a565b8360008151811061189e5761189e61556b565b6020908102919091010152600480546040516370a0823160e01b81526001600160a01b03909116916370a08231916118d891859101614cc3565b602060405180830381865afa1580156118f5573d6000803e3d6000fd5b505050506040513d601f19601f82011682018060405250810190611919919061516a565b8360018151811061192c5761192c61556b565b60209081029190910101526040516370a0823160e01b8152731c954e8fe737f99f68fa1ccda3e51ebdb291948c906370a082319061196e908490600401614cc3565b602060405180830381865afa15801561198b573d6000803e3d6000fd5b505050506040513d601f19601f820116820180604052508101906119af919061516a565b836002815181106119c2576119c261556b565b602090810291909101015260408051600380825260808201909252908160200160208202803683375050603454825192945060ff1691849150600090611a0a57611a0a61556b565b911515602092830291909101909101526040516304de78eb60e11b815260016004820152732DbADFbD05B939Ab1886Fc2438be3Cad44BbCBa0906309bcf1d6906024016040805180830381865af4158015611a69573d6000803e3d6000fd5b505050506040513d601f19601f82011682018060405250810190611a8d919061545b565b83600181518110611aa057611aa061556b565b6020026020010184600281518110611aba57611aba61556b565b60200260200101821515151581525082151515158152505050509091565b604051636e81b62960e01b8152600160048201526060908190819081907356d8b66A796b967Af1E2e78D23669E4ad393325a90636e81b62990602401600060405180830381865af4158015611b31573d6000803e3d6000fd5b505050506040513d6000823e601f3d908101601f19168201604052611b599190810190615649565b935093509350935090919293565b606060646006018054611b7990615747565b80601f0160208091040260200160405190810160405280929190818152602001828054611ba590615747565b8015611bf25780601f10611bc757610100808354040283529160200191611bf2565b820191906000526020600020905b815481529060010190602001808311611bd557829003601f168201915b5050505050905090565b611c04612ec2565b7300B6384Da9F9f1e31Feed637628Eb490732981b963bd020682611c266127d3565b6064805460655460405160e086901b6001600160e01b03191681526001600160a01b03948516600482015291841660248301529290921660448301520160006040518083038186803b158015611c7b57600080fd5b505af4158015611c8f573d6000803e3d6000fd5b50505050565b7300B6384Da9F9f1e31Feed637628Eb490732981b963493f6edc611cb76127d3565b6040518263ffffffff1660e01b8152600401611cd39190614cc3565b60006040518083038186803b158015611ceb57600080fd5b505af4158015611cff573d6000803e3d6000fd5b5050604051637fc1c15b60e01b81527300B6384Da9F9f1e31Feed637628Eb490732981b99250637fc1c15b9150611d3f9060649086908690600401615781565b60006040518083038186803b158015611d5757600080fd5b505af4158015611d6b573d6000803e3d6000fd5b505050505050565b7300B6384Da9F9f1e31Feed637628Eb490732981b963493f6edc611d956127d3565b6040518263ffffffff1660e01b8152600401611db19190614cc3565b60006040518083038186803b158015611dc957600080fd5b505af4158015611ddd573d6000803e3d6000fd5b50506034546040805180820190915260208082527f4b532d3134204c6971756964697479206d75737420626520756e7374616b656490820152925060ff16159050611e3b5760405162461bcd60e51b8152600401610c2b9190614e83565b50603355565b7300B6384Da9F9f1e31Feed637628Eb490732981b963493f6edc611e636127d3565b6040518263ffffffff1660e01b8152600401611e7f9190614cc3565b60006040518083038186803b158015611e9757600080fd5b505af4158015611eab573d6000803e3d6000fd5b5050600280546001600160a01b0319166001600160a01b0394909416939093179092555050565b731FcdC0662a43dD6f78A3EbD893277fae778baF9c63d2c3cf25611ef46127d3565b6040516001600160e01b031960e084901b1681526001600160a01b0390911660048201526024810184905260440160006040518083038186803b158015611f3a57600080fd5b505af4158015611f4e573d6000803e3d6000fd5b50505060999190915550565b7300B6384Da9F9f1e31Feed637628Eb490732981b963ed6b63c16064858585611f816127d3565b6040516001600160e01b031960e088901b168152600481019590955260248501939093526001600160a01b039182166044850152606484015216608482015260a40160006040518083038186803b158015611fdb57600080fd5b505af4158015611fef573d6000803e3d6000fd5b50505050505050565b600061084961062f60017f22573091f17911fb166032a3d9e0554aa73d31b7b7ddea4a4dd2995650af84bd615510565b603354604051639ee0b2a960e01b8152600091732DbADFbD05B939Ab1886Fc2438be3Cad44BbCBa091639ee0b2a9916120679160040190815260200190565b602060405180830381865af4158015612084573d6000803e3d6000fd5b505050506040513d601f19601f820116820180604052508101906120a891906157b7565b15905090565b60006120b861493a565b6120c484826000612fce565b805160408051808201909152600a81526914d08e8811195b9a595960b21b6020820152906001600160a01b031633146121105760405162461bcd60e51b8152600401610c2b9190614e83565b5060408051808201909152601081526f54532d3234207a65726f2076616c756560801b6020820152836121565760405162461bcd60e51b8152600401610c2b9190614e83565b5060001981606001511415604051806040016040528060118152602001701514cb4c4d081ddc9bdb99c8185cdcd95d607a1b815250906121a95760405162461bcd60e51b8152600401610c2b9190614e83565b506000806121b76001613048565b608085015160405163513cfdb360e11b81526001600160a01b038a166004820152602481019190915260448101839052606481810183905260848201529193509150731FcdC0662a43dD6f78A3EbD893277fae778baF9c9063a279fb669060a401602060405180830381865af4158015612235573d6000803e3d6000fd5b505050506040513d601f19601f82011682018060405250810190612259919061516a565b60808401526000620186a06122706103e882615199565b61227a90886157d4565b61228491906157eb565b9050808460800151106122b05783516122a8906001600160a01b03891690886130f5565b859450612381565b826000036122eb576122c76103e8620186a0615199565b620186a085608001516122da91906157d4565b6122e491906157eb565b9450612381565b6000620186a06122fe6103e860026157d4565b61230b90620186a0615199565b61231590896157d4565b61231f91906157eb565b905061233a8560800151826123349190615510565b86613147565b506000612346896133a5565b905082811161237a5761235e6103e8620186a0615199565b61236b620186a0836157d4565b61237591906157eb565b61237c565b875b965050505b612389613415565b505050505092915050565b60985460408051808201909152600a81526914d08e8811195b9a595960b21b6020820152906001600160a01b031633146123e15760405162461bcd60e51b8152600401610c2b9190614e83565b5080518251146040518060400160405280600d81526020016c54532d3139206c656e6774687360981b8152509061242b5760405162461bcd60e51b8152600401610c2b9190614e83565b50612434613415565b505050565b600061084961062f60017fbfaaa2fb63266ff27c2da975f5894955056f50419af651a81f6c5060581857e4615510565b6000612473612803565b15801561084957506120a8612a26565b6065546064546040516001625acc3160e01b0319815260009283927300B6384Da9F9f1e31Feed637628Eb490732981b99263ffa533cf926124d5926001600160a01b03918216929116906004016152f1565b602060405180830381865af41580156124f2573d6000803e3d6000fd5b505050506040513d601f19601f82011682018060405250810190612516919061516a565b9050801561252b576125288184613429565b91505b5092915050565b600061253c6127d3565b6001600160a01b0316826001600160a01b0316149050919050565b6005546000908190630100000090046001600160801b03168181156125845761257f826134cd565b6125a2565b60408051600280825260608201835290916020830190803683375050505b90507356d8b66A796b967Af1E2e78D23669E4ad393325a6350d2e0ba600187846125ca6127d3565b6098546040516001600160e01b031960e088901b1681526125fe95949392916001600160a01b03169060969060040161580d565b6040805180830381865af415801561261a573d6000803e3d6000fd5b505050506040513d601f19601f8201168201806040525081019061263e919061585e565b935093505050915091565b7300B6384Da9F9f1e31Feed637628Eb490732981b9636d51f043606461266d6127d3565b6040516001600160e01b031960e085901b16815260048101929092526001600160a01b0316602482015260448101849052606401611335565b6000816001600160a01b03166126ba6127d3565b6001600160a01b0316635aa6e6756040518163ffffffff1660e01b8152600401602060405180830381865afa1580156126f7573d6000803e3d6000fd5b505050506040513d601f19601f8201168201806040525081019061271b919061533b565b6001600160a01b03161492915050565b7300B6384Da9F9f1e31Feed637628Eb490732981b963493f6edc61274d6127d3565b6040518263ffffffff1660e01b81526004016127699190614cc3565b60006040518083038186803b15801561278157600080fd5b505af4158015612795573d6000803e3d6000fd5b5050604051630593c4c960e01b815273a8788689d9360D0ddca76d5Cc475945a119b11Fe9250630593c4c9915061133590600690859060040161588c565b600061084961062f60017f5165972ef41194f06c5007493031d0b927c20741adcb74403b954009fd2c3618615510565b6040516304de78eb60e11b81526001600482015260009081908190732DbADFbD05B939Ab1886Fc2438be3Cad44BbCBa0906309bcf1d6906024016040805180830381865af4158015612859573d6000803e3d6000fd5b505050506040513d601f19601f8201168201806040525081019061287d919061545b565b609854604051633934e59d60e11b8152600160048201526001600160a01b0390911660248201529193509150732DbADFbD05B939Ab1886Fc2438be3Cad44BbCBa090637269cb3a90604401602060405180830381865af41580156128e5573d6000803e3d6000fd5b505050506040513d601f19601f8201168201806040525081019061290991906157b7565b806129115750815b806129195750805b9250505090565b60006001600160e01b0319821663c19fa56160e01b148061088e575061088e82613558565b6000806129526001613048565b925082905061295f6107c3565b6129699190615510565b604051637ed25b6f60e01b815260016004820152909150732DbADFbD05B939Ab1886Fc2438be3Cad44BbCBa090637ed25b6f9060240160006040518083038186803b1580156129b757600080fd5b505af41580156129cb573d6000803e3d6000fd5b5050600554630100000090046001600160801b03161591506129f39050576129f161358d565b505b9091565b80516002148015612a0d5750612a0b612a26565b155b15612a1e57612a1b81613612565b50505b611485613415565b6006546000906108499060ff1661369f565b6000806000612a48600019612e91565b925092509250909192565b600054610100900460ff16612a7a5760405162461bcd60e51b8152600401610c2b906158a0565b612a8483836136bc565b609880546001600160a01b0319166001600160a01b038316179055612aad6064620186a06157eb565b6099557fe4166dfcf23bbd3e3f764a99dc8fa740554c03c82d6019b81cf265f396f6f2fe612adf6064620186a06157eb565b60405190815260200160405180910390a1505050565b6000816001600160a01b0316634046ebae6040518163ffffffff1660e01b8152600401602060405180830381865afa158015612b35573d6000803e3d6000fd5b505050506040513d601f19601f8201168201806040525081019061088e919061533b565b60645460009081908190612b75906001600160a01b0316613765565b915091506000612b956005546001600160801b0363010000009091041690565b9050731FcdC0662a43dD6f78A3EbD893277fae778baF9c63c9bce690848315612bc657612bc1846134cd565b612c0a565b85516001600160401b03811115612bdf57612bdf6149c4565b604051908082528060200260200182016040528015612c08578160200160208202803683370190505b505b6098546040516001600160e01b031960e086901b168152612c3d93929188916001600160a01b0390911690600401615924565b602060405180830381865af4158015612c5a573d6000803e3d6000fd5b505050506040513d601f19601f82011682018060405250810190612c7e919061516a565b935050505090565b6060806000806000612c966137d1565b6098549295509093509150731FcdC0662a43dD6f78A3EbD893277fae778baF9c9063e99de4da906001600160a01b0316612cce613857565b8686866040518663ffffffff1660e01b8152600401612cf195949392919061596b565b600060405180830381865af4158015612d0e573d6000803e3d6000fd5b505050506040513d6000823e601f3d908101601f19168201604052612d3691908101906159d5565b90969095509350505050565b600080600080612d526001613048565b91509150612d5f856138eb565b612e84576000612d6d61399e565b919650945090506000612dc0878015612d8557508415155b8015612dac5750609954620186a090612d9f9087906157d4565b612da991906157eb565b83115b612db7576000612db9565b825b8486613a69565b91506000905080612e07612dd48588615199565b6064548590612deb906001600160a01b03166133a5565b609754612df89190615199565b612e029190615199565b613c80565b915091506040805187815260208101879052908101899052606081018890526080810183905260a081018290527f3e9abbc366dbf9fe260e2640c06eefbedd7720cf986ae553374e46b804f4ff559060c00160405180910390a1612e6b8289615199565b612e758289615199565b97509750505050505050915091565b5060009485945092505050565b6000806000806000612ea36001613048565b91509150612eb2868284613cb0565b5091989097509095509350505050565b6000612ecc61358d565b90507f768a28cb3459382a3d2173feb2dad0235f8de680b109872da581a3aa269fe5f481604051612efd9190615a2e565b60405180910390a16064546000908190612f1f906001600160a01b0316613765565b609854919350915073ad3A39Fa4242B5E2d39aCCF039D090381226B417906358b54f16906001600160a01b0316612f5c612f576127d3565b612af5565b846096600019886040518763ffffffff1660e01b8152600401612f8496959493929190615a41565b602060405180830381865af4158015612fa1573d6000803e3d6000fd5b505050506040513d601f19601f82011682018060405250810190612fc5919061516a565b50611c8f613415565b612fd6613857565b604083018190526001600160a01b038085166020850152609854168352612ffd9084613ef2565b606083015261300b836133a5565b60808301528061303557604082015160645461303091906001600160a01b0316613ef2565b61303b565b81606001515b60a0909201919091525050565b60008082156130e95760975461305c613415565b6040516371253f5960e11b81526004810183905260248101829052606460448201819052919450731FcdC0662a43dD6f78A3EbD893277fae778baF9c9163e24a7eb29101602060405180830381865af41580156130bd573d6000803e3d6000fd5b505050506040513d601f19601f820116820180604052508101906130e1919061516a565b915050915091565b50506097546000915091565b604080516001600160a01b038416602482015260448082018490528251808303909101815260649091019091526020810180516001600160e01b031663a9059cbb60e01b179052612434908490613f50565b6000806131646005546001600160801b0363010000009091041690565b90506000613171826134cd565b90506000731FcdC0662a43dD6f78A3EbD893277fae778baF9c630252e2c78787604001518860600151896000015187898c60a001516040518863ffffffff1660e01b81526004016131c89796959493929190615a7e565b602060405180830381865af41580156131e5573d6000803e3d6000fd5b505050506040513d601f19601f82011682018060405250810190613209919061516a565b9050801561327957600061321c82614022565b600554909150630100000090046001600160801b031661323c9085615510565b91507faebc771af58936b05e89b0be7d3f9761480181abcd4a649fbdd01753fda16970828260405161326f929190615ad6565b60405180910390a1505b600073ad3A39Fa4242B5E2d39aCCF039D090381226B41763c432aee18760400151886060015189600001516132af612f576127d3565b6000198d146132cd578c8c608001516132c89190615199565b6132cf565b8c5b60966040518763ffffffff1660e01b81526004016132f296959493929190615aef565b602060405180830381865af415801561330f573d6000803e3d6000fd5b505050506040513d601f19601f82011682018060405250810190613333919061516a565b905085608001518110156040518060400160405280601681526020017554532d32302062616c616e636520646563726561736560501b8152509061338a5760405162461bcd60e51b8152600401610c2b9190614e83565b50608086015161339a9082615510565b979650505050505050565b6040516370a0823160e01b81526000906001600160a01b038316906370a08231906133d4903090600401614cc3565b602060405180830381865afa1580156133f1573d6000803e3d6000fd5b505050506040513d601f19601f8201168201806040525081019061088e919061516a565b600061341f612b59565b6097819055919050565b6000613433612a26565b156134bc57604080516002808252606082018352600092602083019080368337019050509050838160008151811061346d5761346d61556b565b6020026020010181815250507f59400c8c523464b521238ea8f50e923f2bc64663557e6afec92a97f7efe92d0581826040516134aa929190615b32565b60405180910390a1600091505061088e565b6134c6838361406c565b905061088e565b60405163a7aced0960e01b8152600160048201526001600160801b0382166024820152606090732DbADFbD05B939Ab1886Fc2438be3Cad44BbCBa09063a7aced09906044015b600060405180830381865af4158015613530573d6000803e3d6000fd5b505050506040513d6000823e601f3d908101601f1916820160405261088e91908101906154dc565b60006001600160e01b0319821663b7b79fa960e01b148061088e57506301ffc9a760e01b6001600160e01b031983161461088e565b606060006135ab6005546001600160801b0363010000009091041690565b905080156135c1576135bc81614022565b61360c565b6135c9613857565b516001600160401b038111156135e1576135e16149c4565b60405190808252806020026020018201604052801561360a578160200160208202803683370190505b505b91505090565b60606000732DbADFbD05B939Ab1886Fc2438be3Cad44BbCBa06374287da16001856040518363ffffffff1660e01b8152600401613650929190615ad6565b600060405180830381865af415801561366d573d6000803e3d6000fd5b505050506040513d6000823e601f3d908101601f191682016040526136959190810190615b57565b9094909350915050565b600060018260038111156136b5576136b5615523565b1192915050565b600054610100900460ff166136e35760405162461bcd60e51b8152600401610c2b906158a0565b61370d817fd2de0374d4479f33e63ae5ed6ca772a10463dd883a90c612050b51fab6196400614093565b613716826140e9565b604051631797527d60e01b81526064600482018190526001600160a01b038085166024840152831660448301527300B6384Da9F9f1e31Feed637628Eb490732981b991631797527d9101611d3f565b60606000613771613857565b915061377d8284613ef2565b90506000198114156040518060400160405280600f81526020016e53423a2057726f6e672076616c756560881b815250906137cb5760405162461bcd60e51b8152600401610c2b9190614e83565b50915091565b604051637e41e84960e01b8152600160048201819052602482015260609081908190732DbADFbD05B939Ab1886Fc2438be3Cad44BbCBa090637e41e84990604401600060405180830381865af415801561382f573d6000803e3d6000fd5b505050506040513d6000823e601f3d908101601f19168201604052612a489190810190615b9d565b6040805160028082526060808301845292602083019080368337505060035482519293506001600160a01b0316918391506000906138975761389761556b565b6001600160a01b0392831660209182029290920101526004548251911690829060019081106138c8576138c861556b565b60200260200101906001600160a01b031690816001600160a01b03168152505090565b60006138f5612803565b15604051806040016040528060138152602001724b532d31204e65656420726562616c616e636560681b815250906139405760405162461bcd60e51b8152600401610c2b9190614e83565b50613949612a26565b15604051806040016040528060148152602001734b532d313420467573652069732061637469766560601b815250906139955760405162461bcd60e51b8152600401610c2b9190614e83565b50600092915050565b606454600090819081906001600160a01b031681806139bb612c86565b91509150732DbADFbD05B939Ab1886Fc2438be3Cad44BbCBa06334d2ec3d846139e26127d3565b85856040518563ffffffff1660e01b8152600401613a039493929190615c24565b602060405180830381865af4158015613a20573d6000803e3d6000fd5b505050506040513d601f19601f82011682018060405250810190613a44919061516a565b9550613a50828261430e565b8585613a5b856133a5565b955095509550505050909192565b60645460009081906001600160a01b031681858711613a89576000613a93565b613a938688615510565b90506000620186a086609760020154613aac91906157d4565b613ab691906157eb565b821190506000613ac5846133a5565b6001600160a01b038516600090815260966020526040902054909150613aea90614376565b881115613bb5578180613afd5750878110155b15613ba157606554731FcdC0662a43dD6f78A3EbD893277fae778baF9c9063890ffb849086908b906001600160a01b0316613b38868d615199565b866040518663ffffffff1660e01b8152600401613b59959493929190615c62565b6040805180830381865af4158015613b75573d6000803e3d6000fd5b505050506040513d601f19601f82011682018060405250810190613b999190615c96565b509450613bb5565b613bad60008989613cb0565b909850965050505b8115613c7457600080613bc786613765565b6098549193509150600090613be7906001600160a01b031687858561438e565b9050613bf281614645565b613c3f576000613c0182613612565b5090507f59400c8c523464b521238ea8f50e923f2bc64663557e6afec92a97f7efe92d058282604051613c35929190615b32565b60405180910390a1505b6000613c49613415565b9050613c6c613c58868d615199565b8a613c628b6133a5565b612df89085615199565b9a5050505050505b50505050935093915050565b60008083831115613c9c57613c958484615510565b9150613ca9565b613ca68385615510565b90505b9250929050565b60008060008060006000198814613cf457620186a0613cd16103e882615199565b613cdb898b615199565b613ce591906157d4565b613cef91906157eb565b613cf6565b875b9050613d0181614691565b8015801590613d0f57508515155b15613ee857613d1c61493a565b606454613d34906001600160a01b0316826001612fce565b80516020820151604051637a55caf360e01b8152731FcdC0662a43dD6f78A3EbD893277fae778baF9c92637a55caf392613d70926004016152f1565b602060405180830381865af4158015613d8d573d6000803e3d6000fd5b505050506040513d601f19601f82011682018060405250810190613db1919061516a565b9450670de0b6b3a764000085613dc78484613147565b613dd191906157d4565b613ddb91906157eb565b95506000613dec82602001516133a5565b90506000613e348a84608001518b613e049190615199565b11613e10576000613e2b565b8a84608001518b613e219190615199565b613e2b9190615510565b83612df8613415565b965090508015613ee45760208301516065546080850151731FcdC0662a43dD6f78A3EbD893277fae778baF9c9263890ffb8492909185916001600160a01b031690613e7f908f615199565b876040518663ffffffff1660e01b8152600401613ea0959493929190615c62565b6040805180830381865af4158015613ebc573d6000803e3d6000fd5b505050506040513d601f19601f82011682018060405250810190613ee09190615c96565b5094505b5050505b5093509350935093565b8151600090815b81811015613f4457836001600160a01b0316858281518110613f1d57613f1d61556b565b60200260200101516001600160a01b031603613f3c57915061088e9050565b600101613ef9565b50600019949350505050565b6000613fa5826040518060400160405280602081526020017f5361666545524332303a206c6f772d6c6576656c2063616c6c206661696c6564815250856001600160a01b03166146e49092919063ffffffff16565b8051909150156124345780806020019051810190613fc391906157b7565b6124345760405162461bcd60e51b815260206004820152602a60248201527f5361666545524332303a204552433230206f7065726174696f6e20646964206e6044820152691bdd081cdd58d8d9595960b21b6064820152608401610c2b565b60405163131c667560e01b8152600160048201526001600160801b0382166024820152606090732DbADFbD05B939Ab1886Fc2438be3Cad44BbCBa09063131c667590604401613513565b600080600061407a84613048565b91509150614089858284613a69565b5095945050505050565b61409d82826146fd565b6114855760405162461bcd60e51b815260206004820152601a60248201527f496e74657266616365206973206e6f7420737570706f727465640000000000006044820152606401610c2b565b600054610100900460ff166141105760405162461bcd60e51b8152600401610c2b906158a0565b6001600160a01b0381166141585760405162461bcd60e51b815260206004820152600f60248201526e2d32b9379031b7b73a3937b63632b960891b6044820152606401610c2b565b614182817f4c2403fdcb3cff9b705d96bf0705858e3390412670a62c8bcba611ca7e20ab86614093565b60006001600160a01b0316816001600160a01b0316635aa6e6756040518163ffffffff1660e01b8152600401602060405180830381865afa1580156141cb573d6000803e3d6000fd5b505050506040513d601f19601f820116820180604052508101906141ef919061533b565b6001600160a01b0316036142375760405162461bcd60e51b815260206004820152600f60248201526e5a65726f20676f7665726e616e636560881b6044820152606401610c2b565b614266816115a960017f5165972ef41194f06c5007493031d0b927c20741adcb74403b954009fd2c3618615510565b614295426115a960017f6f55f470bdc9cb5f04223fd822021061668e4dccb43e8727b295106dc9769c8b615510565b6142c4436115a960017f812a673dfca07956350df10f8a654925f561d7a0da09bdbe79e653939a14d9f1615510565b604080516001600160a01b0383168152426020820152438183015290517f1a2dd071001ebf6e03174e3df5b305795a4ad5d41d8fdb9ba41dbbe2367134269181900360600190a150565b8151156114855760985473ad3A39Fa4242B5E2d39aCCF039D090381226B4179063e43fe165906064906001600160a01b0316614348613857565b6143506127d3565b609688886040518863ffffffff1660e01b8152600401611d3f9796959493929190615cba565b60008115614384578161088e565b620186a092915050565b6060614398612803565b15604051806040016040528060138152602001724b532d31204e65656420726562616c616e636560681b815250906143e35760405162461bcd60e51b8152600401610c2b9190614e83565b5060015460048054604051636795021f60e01b81526001600160a01b0390931691830191909152600160c81b8104600290810b6024840152600160e01b8204900b6044830152600160a81b900460ff16151560648201526000908190732DbADFbD05B939Ab1886Fc2438be3Cad44BbCBa090636795021f906084016040805180830381865af415801561447a573d6000803e3d6000fd5b505050506040513d601f19601f8201168201806040525081019061449e9190615c96565b6003546004549294509092506001600160a01b03908116917356d8b66A796b967Af1E2e78D23669E4ad393325a91631c2040d5918b918b918691166144e3888a615199565b6144f58a670de0b6b3a76400006157d4565b6144ff91906157eb565b60405160e087901b6001600160e01b03191681526001600160a01b0395861660048201526024810194909452918416604484015290921660648201526084810191909152609660a482015260c401600060405180830381865af415801561456a573d6000803e3d6000fd5b505050506040513d6000823e601f3d908101601f1916820160405261459291908101906154dc565b9350806001600160a01b0316866000815181106145b1576145b161556b565b60200260200101516001600160a01b03161461463a57836001815181106145da576145da61556b565b6020026020010151846000815181106145f5576145f561556b565b6020026020010151856000815181106146105761461061556b565b602002602001018660018151811061462a5761462a61556b565b6020908102919091010191909152525b505050949350505050565b8051600090815b81811015614687578381815181106146665761466661556b565b602002602001015160000361467f575060019392505050565b60010161464c565b5060009392505050565b614699612803565b15604051806040016040528060138152602001724b532d31204e65656420726562616c616e636560681b815250906114855760405162461bcd60e51b8152600401610c2b9190614e83565b60606146f384846000856147d1565b90505b9392505050565b60006001600160a01b0383166147445760405162461bcd60e51b815260206004820152600c60248201526b5a65726f206164647265737360a01b6044820152606401610c2b565b823b600081900361475957600091505061088e565b6040516301ffc9a760e01b81526001600160e01b0319841660048201526001600160a01b038516906301ffc9a790602401602060405180830381865afa9250505080156147c3575060408051601f3d908101601f191682019092526147c0918101906157b7565b60015b1561468757915061088e9050565b6060824710156148325760405162461bcd60e51b815260206004820152602660248201527f416464726573733a20696e73756666696369656e742062616c616e636520666f6044820152651c8818d85b1b60d21b6064820152608401610c2b565b600080866001600160a01b0316858760405161484e9190615d25565b60006040518083038185875af1925050503d806000811461488b576040519150601f19603f3d011682016040523d82523d6000602084013e614890565b606091505b509150915061339a878383876060831561490b578251600003614904576001600160a01b0385163b6149045760405162461bcd60e51b815260206004820152601d60248201527f416464726573733a2063616c6c20746f206e6f6e2d636f6e74726163740000006044820152606401610c2b565b5081610f57565b610f5783838151156149205781518083602001fd5b8060405162461bcd60e51b8152600401610c2b9190614e83565b6040518060c0016040528060006001600160a01b0316815260200160006001600160a01b03168152602001606081526020016000815260200160008152602001600081525090565b60006020828403121561499457600080fd5b81356001600160e01b0319811681146146f657600080fd5b6001600160a01b03811681146149c157600080fd5b50565b634e487b7160e01b600052604160045260246000fd5b604051601f8201601f191681016001600160401b0381118282101715614a0257614a026149c4565b604052919050565b60006001600160401b03821115614a2357614a236149c4565b50601f01601f191660200190565b600082601f830112614a4257600080fd5b8135614a55614a5082614a0a565b6149da565b818152846020838601011115614a6a57600080fd5b816020850160208301376000918101602001919091529392505050565b60008060008060008060c08789031215614aa057600080fd5b8635614aab816149ac565b95506020870135614abb816149ac565b94506040870135935060608701356001600160401b0380821115614ade57600080fd5b614aea8a838b01614a31565b94506080890135915080821115614b0057600080fd5b50614b0d89828a01614a31565b92505060a087013590509295509295509295565b8060020b81146149c157600080fd5b80151581146149c157600080fd5b6000806000806000806000806000610180808b8d031215614b5e57600080fd5b8a35614b69816149ac565b995060208b0135614b79816149ac565b985060408b0135614b89816149ac565b975060608b0135614b99816149ac565b965060808b0135614ba981614b21565b955060a08b0135614bb981614b21565b945060c08b0135614bc981614b30565b935060e08b01359250808b018c1015614be157600080fd5b506101008a0190509295985092959850929598565b60008060408385031215614c0957600080fd5b8235614c14816149ac565b946020939093013593505050565b60008060008060808587031215614c3857600080fd5b8435614c43816149ac565b93506020850135614c53816149ac565b92506040850135915060608501356001600160401b03811115614c7557600080fd5b614c8187828801614a31565b91505092959194509250565b600060208284031215614c9f57600080fd5b81356146f681614b30565b600060208284031215614cbc57600080fd5b5035919050565b6001600160a01b0391909116815260200190565b600060208284031215614ce957600080fd5b81356146f6816149ac565b600081518084526020808501945080840160005b83811015614d2457815187529582019590820190600101614d08565b509495945050505050565b600081518084526020808501945080840160005b83811015614d24578151151587529582019590820190600101614d43565b604081526000614d746040830185614cf4565b8281036020840152614d868185614d2f565b95945050505050565b6080808252855190820181905260009060209060a0840190828901845b82811015614dd15781516001600160a01b031684529284019290840190600101614dac565b5050508381038285015286518082528783019183019060005b81811015614e0957835160020b83529284019291840191600101614dea565b50508481036040860152614e1d8188614cf4565b92505050828103606084015261339a8185614d2f565b60005b83811015614e4e578181015183820152602001614e36565b50506000910152565b60008151808452614e6f816020860160208601614e33565b601f01601f19169290920160200192915050565b6020815260006146f66020830184614e57565b60008060208385031215614ea957600080fd5b82356001600160401b0380821115614ec057600080fd5b818501915085601f830112614ed457600080fd5b813581811115614ee357600080fd5b866020828501011115614ef557600080fd5b60209290920196919550909350505050565b600080600060608486031215614f1c57600080fd5b833592506020840135614f2e816149ac565b929592945050506040919091013590565b60006001600160401b03821115614f5857614f586149c4565b5060051b60200190565b600082601f830112614f7357600080fd5b81356020614f83614a5083614f3f565b82815260059290921b84018101918181019086841115614fa257600080fd5b8286015b84811015614fbd5780358352918301918301614fa6565b509695505050505050565b60008060408385031215614fdb57600080fd5b82356001600160401b0380821115614ff257600080fd5b818501915085601f83011261500657600080fd5b81356020615016614a5083614f3f565b82815260059290921b8401810191818101908984111561503557600080fd5b948201945b8386101561505c57853561504d816149ac565b8252948201949082019061503a565b9650508601359250508082111561507257600080fd5b5061507f85828601614f62565b9150509250929050565b6000806040838503121561509c57600080fd5b8235915060208301356150ae81614b30565b809150509250929050565b6000602082840312156150cb57600080fd5b81356001600160401b038111156150e157600080fd5b61252884828501614a31565b6000608082840312156150ff57600080fd5b82601f83011261510e57600080fd5b604051608081018181106001600160401b0382111715615130576151306149c4565b60405280608084018581111561514557600080fd5b845b8181101561515f578035835260209283019201615147565b509195945050505050565b60006020828403121561517c57600080fd5b5051919050565b634e487b7160e01b600052601160045260246000fd5b8082018082111561088e5761088e615183565b8060005b6004811015611c8f5781518452602093840193909101906001016151b0565b60006101a08289835b60058110156152005781516001600160a01b03168352602092830192909101906001016151d8565b50505061521060a08401896151ac565b8061012084015261522381840188614e57565b90508281036101408401526152388187614e57565b61016084019590955250506101800152949350505050565b600082601f83011261526157600080fd5b81516020615271614a5083614f3f565b82815260059290921b8401810191818101908684111561529057600080fd5b8286015b84811015614fbd5780518352918301918301615294565b600080604083850312156152be57600080fd5b82516152c981614b30565b60208401519092506001600160401b038111156152e557600080fd5b61507f85828601615250565b6001600160a01b0392831681529116602082015260400190565b6001600160a01b039586168152602081019490945260408401929092526060830152909116608082015260a00190565b60006020828403121561534d57600080fd5b81516146f6816149ac565b8060005b6002811015611c8f5781516001600160a01b031684526020938401939091019060010161535c565b87815261016081016153996020830189615358565b8660020b60608301528560020b608083015260018060a01b03851660a083015283151560c083015260808360e084013798975050505050505050565b6000602082840312156153e757600080fd5b81516001600160401b038111156153fd57600080fd5b8201601f8101841361540e57600080fd5b805161541c614a5082614a0a565b81815285602083850101111561543157600080fd5b614d86826020830160208601614e33565b8281526040602082015260006146f36040830184614e57565b6000806040838503121561546e57600080fd5b825161547981614b30565b60208401519092506150ae81614b30565b888152610120810161549f602083018a615358565b606082019790975260808101959095526001600160a01b039390931660a085015290151560c084015260e083015215156101009091015292915050565b6000602082840312156154ee57600080fd5b81516001600160401b0381111561550457600080fd5b61252884828501615250565b8181038181111561088e5761088e615183565b634e487b7160e01b600052602160045260246000fd5b828152604081016004831061555e57634e487b7160e01b600052602160045260246000fd5b8260208301529392505050565b634e487b7160e01b600052603260045260246000fd5b600082601f83011261559257600080fd5b815160206155a2614a5083614f3f565b82815260059290921b840181019181810190868411156155c157600080fd5b8286015b84811015614fbd5780516155d8816149ac565b83529183019183016155c5565b600082601f8301126155f657600080fd5b81516020615606614a5083614f3f565b82815260059290921b8401810191818101908684111561562557600080fd5b8286015b84811015614fbd57805161563c81614b30565b8352918301918301615629565b6000806000806080858703121561565f57600080fd5b84516001600160401b038082111561567657600080fd5b61568288838901615581565b955060209150818701518181111561569957600080fd5b8701601f810189136156aa57600080fd5b80516156b8614a5082614f3f565b81815260059190911b8201840190848101908b8311156156d757600080fd5b928501925b828410156156fe5783516156ef81614b21565b825292850192908501906156dc565b60408b015190985094505050508082111561571857600080fd5b61572488838901615250565b9350606087015191508082111561573a57600080fd5b50614c81878288016155e5565b600181811c9082168061575b57607f821691505b60208210810361577b57634e487b7160e01b600052602260045260246000fd5b50919050565b83815260406020820152816040820152818360608301376000818301606090810191909152601f909201601f1916010192915050565b6000602082840312156157c957600080fd5b81516146f681614b30565b808202811582820484141761088e5761088e615183565b60008261580857634e487b7160e01b600052601260045260246000fd5b500490565b86815260c06020820152600061582660c0830188614e57565b82810360408401526158388188614cf4565b6001600160a01b0396871660608501529490951660808301525060a00152949350505050565b6000806040838503121561587157600080fd5b825161587c816149ac565b6020939093015192949293505050565b82815260a081016146f660208301846151ac565b6020808252602b908201527f496e697469616c697a61626c653a20636f6e7472616374206973206e6f74206960408201526a6e697469616c697a696e6760a81b606082015260800190565b600081518084526020808501945080840160005b83811015614d245781516001600160a01b0316875295820195908201906001016158ff565b60808152600061593760808301876158eb565b82810360208401526159498187614cf4565b604084019590955250506001600160a01b039190911660609091015292915050565b6001600160a01b038616815260a06020820181905260009061598f908301876158eb565b82810360408401526159a181876158eb565b905082810360608401526159b58186614cf4565b905082810360808401526159c98185614cf4565b98975050505050505050565b600080604083850312156159e857600080fd5b82516001600160401b03808211156159ff57600080fd5b615a0b86838701615581565b93506020850151915080821115615a2157600080fd5b5061507f85828601615250565b6020815260006146f66020830184614cf4565b600060018060a01b03808916835280881660208401525085604083015284606083015283608083015260c060a08301526159c960c08301846158eb565b87815260e060208201526000615a9760e08301896158eb565b604083018890526001600160a01b03871660608401528281036080840152615abf8187614cf4565b60a0840195909552505060c0015295945050505050565b8281526040602082015260006146f36040830184614cf4565b60c081526000615b0260c08301896158eb565b6020830197909752506001600160a01b039485166040820152929093166060830152608082015260a00152919050565b604081526000615b456040830185614cf4565b8281036020840152614d868185614cf4565b60008060408385031215615b6a57600080fd5b82516001600160401b03811115615b8057600080fd5b615b8c85828601615250565b925050602083015190509250929050565b600080600060608486031215615bb257600080fd5b83516001600160401b0380821115615bc957600080fd5b615bd587838801615581565b94506020860151915080821115615beb57600080fd5b615bf787838801615250565b93506040860151915080821115615c0d57600080fd5b50615c1a86828701615250565b9150509250925092565b6001600160a01b03858116825284166020820152608060408201819052600090615c50908301856158eb565b828103606084015261339a8185614cf4565b6001600160a01b03958616815260208101949094529190931660408301526060820192909252608081019190915260a00190565b60008060408385031215615ca957600080fd5b505080516020909101519092909150565b878152600060018060a01b03808916602084015260e06040840152615ce260e08401896158eb565b818816606085015286608085015283810360a0850152615d0281876158eb565b91505082810360c0840152615d178185614cf4565b9a9950505050505050505050565b60008251615d37818460208701614e33565b919091019291505056fea264697066735822122098a8a697865f91ee1a49a9593d5ebdfa741b1406ebd70688d638cf5b8de68b7664736f6c63430008110033",
  "deployedBytecode": "0x608060405234801561001057600080fd5b50600436106103645760003560e01c806365f50a8d116101c95780639d0bcca0116100ff578063cd4c8156116100ad578063dee1f0e41161007c578063dee1f0e41461078d578063dfeb1032146107a0578063f77c4791146107b3578063ffb86c6a146107bb57600080fd5b8063cd4c815614610761578063ceee861d1461056e578063d295ea7014610772578063de3d047c1461077a57600080fd5b80639d0bcca0146106b1578063a3f4df7e146106b9578063ab9e3eee146106f0578063b2457556146106f8578063b429afeb1461070b578063b77c975b1461071e578063bd38837b1461075057600080fd5b80637cc96380116101775780638778878211610146578063877887821461065f57806387c7f77014610667578063936725ec1461067a57806396b7b14e1461069e57600080fd5b80637cc96380146106195780637eba7ba6146106215780637efc77fa1461063357806380e7ac7c1461065757600080fd5b806365f50a8d146105a55780636b5fba5a146105b85780636ffb4c8e146105cb5780637063a237146105de57806371ee0175146105f157806373a50ef51461056e57806378327438146105f957600080fd5b80634593144c1161029e57806352bbbb741161024c578063569c39cb1161021b578063569c39cb146105405780635cfc1a51146105645780636207a0cf1461056e57806363e277341461059257600080fd5b806352bbbb74146104f55780635412335d1461050b57806354679963146105235780635641ec031461053857600080fd5b80634593144c146104925780634ad0b6841461049a5780634ba31b01146104a25780634e71d92d146104aa5780634fa5d854146104b25780634fac6ccd146104cf57806351e03fbe146104e257600080fd5b80631d2dca9e1161031657806333c5b58e116102e557806333c5b58e1461044c57806338d52e0f146104545780633cd8045e1461046e57806342fdb4711461047f57600080fd5b80631d2dca9e146104165780632221eb3c14610429578063261efa121461043c578063325a19f11461044457600080fd5b806301e1d1141461036957806301ffc9a714610384578063066a6fc3146103a75780630acd12c7146103ba5780630d923929146103c25780630e30428d146103d7578063150b7a02146103ea575b600080fd5b6103716107c3565b6040519081526020015b60405180910390f35b610397610392366004614982565b61084e565b604051901515815260200161037b565b6103976103b5366004614a87565b610894565b610371610a70565b6103d56103d0366004614b3e565b610b92565b005b6103d56103e5366004614bf6565b610eaa565b6103fd6103f8366004614c22565b610f4e565b6040516001600160e01b0319909116815260200161037b565b6103d5610424366004614c8d565b610f5f565b6103d5610437366004614caa565b61115b565b606854610371565b6103716111d1565b610371611201565b6064546001600160a01b03165b60405161037b9190614cc3565b6065546001600160a01b0316610461565b6103d561048d366004614caa565b611279565b610371611368565b609754610371565b610371611398565b6103d561140f565b6104ba611489565b6040805192835260208301919091520161037b565b6103d56104dd366004614cd7565b6114ee565b6103716104f0366004614caa565b611620565b6104fd6117e8565b60405161037b929190614d61565b610513611ad8565b60405161037b9493929190614d8f565b61052b611b67565b60405161037b9190614e83565b6103d5611bfc565b61052b604051806040016040528060058152602001640312e302e360dc1b81525081565b600160ff1b610371565b61052b604051806040016040528060058152602001640332e302e360dc1b81525081565b6103d56105a0366004614e96565b611c95565b6103d56105b3366004614caa565b611d73565b6103d56105c6366004614cd7565b611e41565b6103d56105d9366004614caa565b611ed2565b6103d56105ec366004614f07565b611f5a565b609954610371565b610371610607366004614cd7565b60966020526000908152604090205481565b610371611ff8565b61037161062f366004614caa565b5490565b61052b6040518060400160405280600581526020016425bcb132b960d91b81525081565b610397612028565b606754610371565b610371610675366004614bf6565b6120ae565b61052b60405180604001604052806005815260200164332e302e3160d81b81525081565b6103d56106ac366004614fc8565b612394565b610461612439565b61052b604051806040016040528060188152602001774b7962657220436f6e76657274657220537472617465677960401b81525081565b610397612469565b610371610706366004615089565b612483565b610397610719366004614cd7565b612532565b61073161072c3660046150b9565b612557565b604080516001600160a01b03909316835260208301919091520161037b565b6098546001600160a01b0316610461565b6066546001600160a01b0316610461565b606954610371565b6103d5610788366004614caa565b612649565b61039761079b366004614cd7565b6126a6565b6103d56107ae3660046150ed565b61272b565b6104616127d3565b610397612803565b60006107ce60975490565b6064546040516370a0823160e01b81526001600160a01b03909116906370a08231906107fe903090600401614cc3565b602060405180830381865afa15801561081b573d6000803e3d6000fd5b505050506040513d601f19601f8201168201806040525081019061083f919061516a565b6108499190615199565b905090565b60006001600160e01b03198216631e94dddf60e01b148061087f57506001600160e01b0319821663f73147b360e01b145b8061088e575061088e82612920565b92915050565b60008060006108a1612945565b91509150606073__$0dcf4453b1418804c305d2bbf5bd62b729$__632aed8d416040518060a001604052808d6001600160a01b03166001600160a01b031681526020018c6001600160a01b03166001600160a01b031681526020016109046127d3565b6001600160a01b039081168252609854811660208084019190915260655490911660409283015281516080810183528d8152908101889052808201879052606081018a905290516001600160e01b031960e085901b1681526109749291908c908c906001906096906004016151cf565b600060405180830381865af4158015610991573d6000803e3d6000fd5b505050506040513d6000823e601f3d908101601f191682016040526109b991908101906152ab565b90945090506109c7816129f7565b60006010558380156109dc57506109dc612a26565b156109e7576001600f555b606480546040516368f9467b60e01b81526001600160a01b039091166004820152602481018490526097604482015273__$8f1afe7577f9ab973017c74eca19b86f3c$__916368f9467b910160006040518083038186803b158015610a4b57600080fd5b505af4158015610a5f573d6000803e3d6000fd5b505050505050509695505050505050565b606554606454604051633e53813360e11b81526000926001600160a01b03908116921690839073__$7dde4232fad0cb3c495beb9e735b7d0c63$__90637ca7026690610ac290869086906004016152f1565b602060405180830381865af4158015610adf573d6000803e3d6000fd5b505050506040513d601f19601f82011682018060405250810190610b03919061516a565b90506000806000610b12612a38565b92509250925073__$7dde4232fad0cb3c495beb9e735b7d0c63$__639ad00ec2868686868b6040518663ffffffff1660e01b8152600401610b5795949392919061530b565b60006040518083038186803b158015610b6f57600080fd5b505af4158015610b83573d6000803e3d6000fd5b50929998505050505050505050565b600054610100900460ff1615808015610bb25750600054600160ff909116105b80610bcc5750303b158015610bcc575060005460ff166001145b610c345760405162461bcd60e51b815260206004820152602e60248201527f496e697469616c697a61626c653a20636f6e747261637420697320616c72656160448201526d191e481a5b9a5d1a585b1a5e995960921b60648201526084015b60405180910390fd5b6000805460ff191660011790558015610c57576000805461ff0019166101001790555b610c628a8a8a612a53565b73__$0dcf4453b1418804c305d2bbf5bd62b729$__630bf00b70600160405180604001604052808e6001600160a01b03166001600160a01b031681526020018b6001600160a01b03166001600160a01b031681525089898e6001600160a01b03166338d52e0f6040518163ffffffff1660e01b8152600401602060405180830381865afa158015610cf7573d6000803e3d6000fd5b505050506040513d601f19601f82011682018060405250810190610d1b919061533b565b8a896040518863ffffffff1660e01b8152600401610d3f9796959493929190615384565b60006040518083038186803b158015610d5757600080fd5b505af4158015610d6b573d6000803e3d6000fd5b50505060338490555060405163bd85be2960e01b81526001600482015273__$7dde4232fad0cb3c495beb9e735b7d0c63$__90637fc1c15b9060649073__$0dcf4453b1418804c305d2bbf5bd62b729$__9063bd85be2990602401600060405180830381865af4158015610de3573d6000803e3d6000fd5b505050506040513d6000823e601f3d908101601f19168201604052610e0b91908101906153d5565b6040518363ffffffff1660e01b8152600401610e28929190615442565b60006040518083038186803b158015610e4057600080fd5b505af4158015610e54573d6000803e3d6000fd5b505050508015610e9e576000805461ff0019169055604051600181527f7f26b83ff96e1f2b6a682f133852f6798a09c465da95921460cefb38474024989060200160405180910390a15b50505050505050505050565b73__$8f1afe7577f9ab973017c74eca19b86f3c$__63142395ef610ecc6127d3565b6040516001600160e01b031960e084901b1681526001600160a01b03918216600482015290851660248201526044810184905260640160006040518083038186803b158015610f1a57600080fd5b505af4158015610f2e573d6000803e3d6000fd5b5050506001600160a01b0390921660009081526096602052604090205550565b630a85bd0160e11b5b949350505050565b6000610f696127d3565b60405163124fdbb760e21b815290915073__$7dde4232fad0cb3c495beb9e735b7d0c63$__9063493f6edc90610fa3908490600401614cc3565b60006040518083038186803b158015610fbb57600080fd5b505af4158015610fcf573d6000803e3d6000fd5b50506040516304de78eb60e11b8152600160048201526000925082915073__$0dcf4453b1418804c305d2bbf5bd62b729$__906309bcf1d6906024016040805180830381865af4158015611027573d6000803e3d6000fd5b505050506040513d601f19601f8201168201806040525081019061104b919061545b565b9150915081806110585750805b1561106257600093505b60008061106d612945565b604080518082019091526098546001600160a01b03168152919350915060009073__$0dcf4453b1418804c305d2bbf5bd62b729$__90638aa04c4690600190602081016110b98b612af5565b6001600160a01b0390811690915260655487918991168d60968d806110db57508c5b6040518963ffffffff1660e01b81526004016110fe98979695949392919061548a565b600060405180830381865af415801561111b573d6000803e3d6000fd5b505050506040513d6000823e601f3d908101601f1916820160405261114391908101906154dc565b905061114e816129f7565b5050426010555050505050565b73__$7dde4232fad0cb3c495beb9e735b7d0c63$__63493f6edc61117d6127d3565b6040518263ffffffff1660e01b81526004016111999190614cc3565b60006040518083038186803b1580156111b157600080fd5b505af41580156111c5573d6000803e3d6000fd5b505050600f9190915550565b600061084961062f60017f6f55f470bdc9cb5f04223fd822021061668e4dccb43e8727b295106dc9769c8b615510565b600073__$7dde4232fad0cb3c495beb9e735b7d0c63$__63493f6edc6112256127d3565b6040518263ffffffff1660e01b81526004016112419190614cc3565b60006040518083038186803b15801561125957600080fd5b505af415801561126d573d6000803e3d6000fd5b50505050610849612b59565b73__$7dde4232fad0cb3c495beb9e735b7d0c63$__63493f6edc61129b6127d3565b6040518263ffffffff1660e01b81526004016112b79190614cc3565b60006040518083038186803b1580156112cf57600080fd5b505af41580156112e3573d6000803e3d6000fd5b5073__$79fe6ec7a3db45dafbed12dca1c6dad764$__9250636bffb34691506006905083600381111561131857611318615523565b6040518363ffffffff1660e01b8152600401611335929190615539565b60006040518083038186803b15801561134d57600080fd5b505af4158015611361573d6000803e3d6000fd5b5050505050565b600061084961062f60017f812a673dfca07956350df10f8a654925f561d7a0da09bdbe79e653939a14d9f1615510565b604051630a3c2bb160e21b81526001600482015260009073__$0dcf4453b1418804c305d2bbf5bd62b729$__906328f0aec490602401602060405180830381865af41580156113eb573d6000803e3d6000fd5b505050506040513d601f19601f82011682018060405250810190610849919061516a565b73__$7dde4232fad0cb3c495beb9e735b7d0c63$__63d19cc38a6114316127d3565b6040518263ffffffff1660e01b815260040161144d9190614cc3565b60006040518083038186803b15801561146557600080fd5b505af4158015611479573d6000803e3d6000fd5b50505050611485612c86565b5050565b60655460408051808201909152600a81526914d08e8811195b9a595960b21b60208201526000918291906001600160a01b031633146114db5760405162461bcd60e51b8152600401610c2b9190614e83565b506114e66001612d42565b915091509091565b33301461153d5760405162461bcd60e51b815260206004820152601b60248201527f496e637265617365207265766973696f6e20666f7262696464656e00000000006044820152606401610c2b565b600061156d61062f60017f22573091f17911fb166032a3d9e0554aa73d31b7b7ddea4a4dd2995650af84bd615510565b611578906001615199565b90506115ac816115a960017f22573091f17911fb166032a3d9e0554aa73d31b7b7ddea4a4dd2995650af84bd615510565b55565b6115db826115a960017fbfaaa2fb63266ff27c2da975f5894955056f50419af651a81f6c5060581857e4615510565b604080518281526001600160a01b03841660208201527ff27e2ef832a4eb8ed8ec553b875eecd44764cda95b1c24170e281539e0a869c8910160405180910390a15050565b606554606454604051633e53813360e11b81526000926001600160a01b03908116921690839073__$7dde4232fad0cb3c495beb9e735b7d0c63$__90637ca702669061167290869086906004016152f1565b602060405180830381865af415801561168f573d6000803e3d6000fd5b505050506040513d601f19601f820116820180604052508101906116b3919061516a565b90508085111561175f576000806116d26116cd8489615510565b612e91565b604051631594b05b60e01b8152909850919350915073__$7dde4232fad0cb3c495beb9e735b7d0c63$__90631594b05b906117199087908790879087908c9060040161530b565b602060405180830381865af4158015611736573d6000803e3d6000fd5b505050506040513d601f19601f8201168201806040525081019061175a919061516a565b925050505b6040516333bbb20360e11b815260048101869052602481018290526001600160a01b0380841660448301528416606482015273__$7dde4232fad0cb3c495beb9e735b7d0c63$__9063677764069060840160006040518083038186803b1580156117c857600080fd5b505af41580156117dc573d6000803e3d6000fd5b50505050505050919050565b6002546040805160038082526080820190925260609283926001600160a01b03909116919060208201848036833750506003546040516370a0823160e01b81529295506001600160a01b0316916370a08231915061184a908490600401614cc3565b602060405180830381865afa158015611867573d6000803e3d6000fd5b505050506040513d601f19601f8201168201806040525081019061188b919061516a565b8360008151811061189e5761189e61556b565b6020908102919091010152600480546040516370a0823160e01b81526001600160a01b03909116916370a08231916118d891859101614cc3565b602060405180830381865afa1580156118f5573d6000803e3d6000fd5b505050506040513d601f19601f82011682018060405250810190611919919061516a565b8360018151811061192c5761192c61556b565b60209081029190910101526040516370a0823160e01b8152731c954e8fe737f99f68fa1ccda3e51ebdb291948c906370a082319061196e908490600401614cc3565b602060405180830381865afa15801561198b573d6000803e3d6000fd5b505050506040513d601f19601f820116820180604052508101906119af919061516a565b836002815181106119c2576119c261556b565b602090810291909101015260408051600380825260808201909252908160200160208202803683375050603454825192945060ff1691849150600090611a0a57611a0a61556b565b911515602092830291909101909101526040516304de78eb60e11b81526001600482015273__$0dcf4453b1418804c305d2bbf5bd62b729$__906309bcf1d6906024016040805180830381865af4158015611a69573d6000803e3d6000fd5b505050506040513d601f19601f82011682018060405250810190611a8d919061545b565b83600181518110611aa057611aa061556b565b6020026020010184600281518110611aba57611aba61556b565b60200260200101821515151581525082151515158152505050509091565b604051636e81b62960e01b81526001600482015260609081908190819073__$b1ba452cecccdd06eb05ace2d0a762c7e1$__90636e81b62990602401600060405180830381865af4158015611b31573d6000803e3d6000fd5b505050506040513d6000823e601f3d908101601f19168201604052611b599190810190615649565b935093509350935090919293565b606060646006018054611b7990615747565b80601f0160208091040260200160405190810160405280929190818152602001828054611ba590615747565b8015611bf25780601f10611bc757610100808354040283529160200191611bf2565b820191906000526020600020905b815481529060010190602001808311611bd557829003601f168201915b5050505050905090565b611c04612ec2565b73__$7dde4232fad0cb3c495beb9e735b7d0c63$__63bd020682611c266127d3565b6064805460655460405160e086901b6001600160e01b03191681526001600160a01b03948516600482015291841660248301529290921660448301520160006040518083038186803b158015611c7b57600080fd5b505af4158015611c8f573d6000803e3d6000fd5b50505050565b73__$7dde4232fad0cb3c495beb9e735b7d0c63$__63493f6edc611cb76127d3565b6040518263ffffffff1660e01b8152600401611cd39190614cc3565b60006040518083038186803b158015611ceb57600080fd5b505af4158015611cff573d6000803e3d6000fd5b5050604051637fc1c15b60e01b815273__$7dde4232fad0cb3c495beb9e735b7d0c63$__9250637fc1c15b9150611d3f9060649086908690600401615781565b60006040518083038186803b158015611d5757600080fd5b505af4158015611d6b573d6000803e3d6000fd5b505050505050565b73__$7dde4232fad0cb3c495beb9e735b7d0c63$__63493f6edc611d956127d3565b6040518263ffffffff1660e01b8152600401611db19190614cc3565b60006040518083038186803b158015611dc957600080fd5b505af4158015611ddd573d6000803e3d6000fd5b50506034546040805180820190915260208082527f4b532d3134204c6971756964697479206d75737420626520756e7374616b656490820152925060ff16159050611e3b5760405162461bcd60e51b8152600401610c2b9190614e83565b50603355565b73__$7dde4232fad0cb3c495beb9e735b7d0c63$__63493f6edc611e636127d3565b6040518263ffffffff1660e01b8152600401611e7f9190614cc3565b60006040518083038186803b158015611e9757600080fd5b505af4158015611eab573d6000803e3d6000fd5b5050600280546001600160a01b0319166001600160a01b0394909416939093179092555050565b73__$8f1afe7577f9ab973017c74eca19b86f3c$__63d2c3cf25611ef46127d3565b6040516001600160e01b031960e084901b1681526001600160a01b0390911660048201526024810184905260440160006040518083038186803b158015611f3a57600080fd5b505af4158015611f4e573d6000803e3d6000fd5b50505060999190915550565b73__$7dde4232fad0cb3c495beb9e735b7d0c63$__63ed6b63c16064858585611f816127d3565b6040516001600160e01b031960e088901b168152600481019590955260248501939093526001600160a01b039182166044850152606484015216608482015260a40160006040518083038186803b158015611fdb57600080fd5b505af4158015611fef573d6000803e3d6000fd5b50505050505050565b600061084961062f60017f22573091f17911fb166032a3d9e0554aa73d31b7b7ddea4a4dd2995650af84bd615510565b603354604051639ee0b2a960e01b815260009173__$0dcf4453b1418804c305d2bbf5bd62b729$__91639ee0b2a9916120679160040190815260200190565b602060405180830381865af4158015612084573d6000803e3d6000fd5b505050506040513d601f19601f820116820180604052508101906120a891906157b7565b15905090565b60006120b861493a565b6120c484826000612fce565b805160408051808201909152600a81526914d08e8811195b9a595960b21b6020820152906001600160a01b031633146121105760405162461bcd60e51b8152600401610c2b9190614e83565b5060408051808201909152601081526f54532d3234207a65726f2076616c756560801b6020820152836121565760405162461bcd60e51b8152600401610c2b9190614e83565b5060001981606001511415604051806040016040528060118152602001701514cb4c4d081ddc9bdb99c8185cdcd95d607a1b815250906121a95760405162461bcd60e51b8152600401610c2b9190614e83565b506000806121b76001613048565b608085015160405163513cfdb360e11b81526001600160a01b038a16600482015260248101919091526044810183905260648181018390526084820152919350915073__$8f1afe7577f9ab973017c74eca19b86f3c$__9063a279fb669060a401602060405180830381865af4158015612235573d6000803e3d6000fd5b505050506040513d601f19601f82011682018060405250810190612259919061516a565b60808401526000620186a06122706103e882615199565b61227a90886157d4565b61228491906157eb565b9050808460800151106122b05783516122a8906001600160a01b03891690886130f5565b859450612381565b826000036122eb576122c76103e8620186a0615199565b620186a085608001516122da91906157d4565b6122e491906157eb565b9450612381565b6000620186a06122fe6103e860026157d4565b61230b90620186a0615199565b61231590896157d4565b61231f91906157eb565b905061233a8560800151826123349190615510565b86613147565b506000612346896133a5565b905082811161237a5761235e6103e8620186a0615199565b61236b620186a0836157d4565b61237591906157eb565b61237c565b875b965050505b612389613415565b505050505092915050565b60985460408051808201909152600a81526914d08e8811195b9a595960b21b6020820152906001600160a01b031633146123e15760405162461bcd60e51b8152600401610c2b9190614e83565b5080518251146040518060400160405280600d81526020016c54532d3139206c656e6774687360981b8152509061242b5760405162461bcd60e51b8152600401610c2b9190614e83565b50612434613415565b505050565b600061084961062f60017fbfaaa2fb63266ff27c2da975f5894955056f50419af651a81f6c5060581857e4615510565b6000612473612803565b15801561084957506120a8612a26565b6065546064546040516001625acc3160e01b03198152600092839273__$7dde4232fad0cb3c495beb9e735b7d0c63$__9263ffa533cf926124d5926001600160a01b03918216929116906004016152f1565b602060405180830381865af41580156124f2573d6000803e3d6000fd5b505050506040513d601f19601f82011682018060405250810190612516919061516a565b9050801561252b576125288184613429565b91505b5092915050565b600061253c6127d3565b6001600160a01b0316826001600160a01b0316149050919050565b6005546000908190630100000090046001600160801b03168181156125845761257f826134cd565b6125a2565b60408051600280825260608201835290916020830190803683375050505b905073__$b1ba452cecccdd06eb05ace2d0a762c7e1$__6350d2e0ba600187846125ca6127d3565b6098546040516001600160e01b031960e088901b1681526125fe95949392916001600160a01b03169060969060040161580d565b6040805180830381865af415801561261a573d6000803e3d6000fd5b505050506040513d601f19601f8201168201806040525081019061263e919061585e565b935093505050915091565b73__$7dde4232fad0cb3c495beb9e735b7d0c63$__636d51f043606461266d6127d3565b6040516001600160e01b031960e085901b16815260048101929092526001600160a01b0316602482015260448101849052606401611335565b6000816001600160a01b03166126ba6127d3565b6001600160a01b0316635aa6e6756040518163ffffffff1660e01b8152600401602060405180830381865afa1580156126f7573d6000803e3d6000fd5b505050506040513d601f19601f8201168201806040525081019061271b919061533b565b6001600160a01b03161492915050565b73__$7dde4232fad0cb3c495beb9e735b7d0c63$__63493f6edc61274d6127d3565b6040518263ffffffff1660e01b81526004016127699190614cc3565b60006040518083038186803b15801561278157600080fd5b505af4158015612795573d6000803e3d6000fd5b5050604051630593c4c960e01b815273__$79fe6ec7a3db45dafbed12dca1c6dad764$__9250630593c4c9915061133590600690859060040161588c565b600061084961062f60017f5165972ef41194f06c5007493031d0b927c20741adcb74403b954009fd2c3618615510565b6040516304de78eb60e11b8152600160048201526000908190819073__$0dcf4453b1418804c305d2bbf5bd62b729$__906309bcf1d6906024016040805180830381865af4158015612859573d6000803e3d6000fd5b505050506040513d601f19601f8201168201806040525081019061287d919061545b565b609854604051633934e59d60e11b8152600160048201526001600160a01b039091166024820152919350915073__$0dcf4453b1418804c305d2bbf5bd62b729$__90637269cb3a90604401602060405180830381865af41580156128e5573d6000803e3d6000fd5b505050506040513d601f19601f8201168201806040525081019061290991906157b7565b806129115750815b806129195750805b9250505090565b60006001600160e01b0319821663c19fa56160e01b148061088e575061088e82613558565b6000806129526001613048565b925082905061295f6107c3565b6129699190615510565b604051637ed25b6f60e01b81526001600482015290915073__$0dcf4453b1418804c305d2bbf5bd62b729$__90637ed25b6f9060240160006040518083038186803b1580156129b757600080fd5b505af41580156129cb573d6000803e3d6000fd5b5050600554630100000090046001600160801b03161591506129f39050576129f161358d565b505b9091565b80516002148015612a0d5750612a0b612a26565b155b15612a1e57612a1b81613612565b50505b611485613415565b6006546000906108499060ff1661369f565b6000806000612a48600019612e91565b925092509250909192565b600054610100900460ff16612a7a5760405162461bcd60e51b8152600401610c2b906158a0565b612a8483836136bc565b609880546001600160a01b0319166001600160a01b038316179055612aad6064620186a06157eb565b6099557fe4166dfcf23bbd3e3f764a99dc8fa740554c03c82d6019b81cf265f396f6f2fe612adf6064620186a06157eb565b60405190815260200160405180910390a1505050565b6000816001600160a01b0316634046ebae6040518163ffffffff1660e01b8152600401602060405180830381865afa158015612b35573d6000803e3d6000fd5b505050506040513d601f19601f8201168201806040525081019061088e919061533b565b60645460009081908190612b75906001600160a01b0316613765565b915091506000612b956005546001600160801b0363010000009091041690565b905073__$8f1afe7577f9ab973017c74eca19b86f3c$__63c9bce690848315612bc657612bc1846134cd565b612c0a565b85516001600160401b03811115612bdf57612bdf6149c4565b604051908082528060200260200182016040528015612c08578160200160208202803683370190505b505b6098546040516001600160e01b031960e086901b168152612c3d93929188916001600160a01b0390911690600401615924565b602060405180830381865af4158015612c5a573d6000803e3d6000fd5b505050506040513d601f19601f82011682018060405250810190612c7e919061516a565b935050505090565b6060806000806000612c966137d1565b609854929550909350915073__$8f1afe7577f9ab973017c74eca19b86f3c$__9063e99de4da906001600160a01b0316612cce613857565b8686866040518663ffffffff1660e01b8152600401612cf195949392919061596b565b600060405180830381865af4158015612d0e573d6000803e3d6000fd5b505050506040513d6000823e601f3d908101601f19168201604052612d3691908101906159d5565b90969095509350505050565b600080600080612d526001613048565b91509150612d5f856138eb565b612e84576000612d6d61399e565b919650945090506000612dc0878015612d8557508415155b8015612dac5750609954620186a090612d9f9087906157d4565b612da991906157eb565b83115b612db7576000612db9565b825b8486613a69565b91506000905080612e07612dd48588615199565b6064548590612deb906001600160a01b03166133a5565b609754612df89190615199565b612e029190615199565b613c80565b915091506040805187815260208101879052908101899052606081018890526080810183905260a081018290527f3e9abbc366dbf9fe260e2640c06eefbedd7720cf986ae553374e46b804f4ff559060c00160405180910390a1612e6b8289615199565b612e758289615199565b97509750505050505050915091565b5060009485945092505050565b6000806000806000612ea36001613048565b91509150612eb2868284613cb0565b5091989097509095509350505050565b6000612ecc61358d565b90507f768a28cb3459382a3d2173feb2dad0235f8de680b109872da581a3aa269fe5f481604051612efd9190615a2e565b60405180910390a16064546000908190612f1f906001600160a01b0316613765565b609854919350915073__$e930d50fb5f4f1298547dbcb2bb0591990$__906358b54f16906001600160a01b0316612f5c612f576127d3565b612af5565b846096600019886040518763ffffffff1660e01b8152600401612f8496959493929190615a41565b602060405180830381865af4158015612fa1573d6000803e3d6000fd5b505050506040513d601f19601f82011682018060405250810190612fc5919061516a565b50611c8f613415565b612fd6613857565b604083018190526001600160a01b038085166020850152609854168352612ffd9084613ef2565b606083015261300b836133a5565b60808301528061303557604082015160645461303091906001600160a01b0316613ef2565b61303b565b81606001515b60a0909201919091525050565b60008082156130e95760975461305c613415565b6040516371253f5960e11b8152600481018390526024810182905260646044820181905291945073__$8f1afe7577f9ab973017c74eca19b86f3c$__9163e24a7eb29101602060405180830381865af41580156130bd573d6000803e3d6000fd5b505050506040513d601f19601f820116820180604052508101906130e1919061516a565b915050915091565b50506097546000915091565b604080516001600160a01b038416602482015260448082018490528251808303909101815260649091019091526020810180516001600160e01b031663a9059cbb60e01b179052612434908490613f50565b6000806131646005546001600160801b0363010000009091041690565b90506000613171826134cd565b9050600073__$8f1afe7577f9ab973017c74eca19b86f3c$__630252e2c78787604001518860600151896000015187898c60a001516040518863ffffffff1660e01b81526004016131c89796959493929190615a7e565b602060405180830381865af41580156131e5573d6000803e3d6000fd5b505050506040513d601f19601f82011682018060405250810190613209919061516a565b9050801561327957600061321c82614022565b600554909150630100000090046001600160801b031661323c9085615510565b91507faebc771af58936b05e89b0be7d3f9761480181abcd4a649fbdd01753fda16970828260405161326f929190615ad6565b60405180910390a1505b600073__$e930d50fb5f4f1298547dbcb2bb0591990$__63c432aee18760400151886060015189600001516132af612f576127d3565b6000198d146132cd578c8c608001516132c89190615199565b6132cf565b8c5b60966040518763ffffffff1660e01b81526004016132f296959493929190615aef565b602060405180830381865af415801561330f573d6000803e3d6000fd5b505050506040513d601f19601f82011682018060405250810190613333919061516a565b905085608001518110156040518060400160405280601681526020017554532d32302062616c616e636520646563726561736560501b8152509061338a5760405162461bcd60e51b8152600401610c2b9190614e83565b50608086015161339a9082615510565b979650505050505050565b6040516370a0823160e01b81526000906001600160a01b038316906370a08231906133d4903090600401614cc3565b602060405180830381865afa1580156133f1573d6000803e3d6000fd5b505050506040513d601f19601f8201168201806040525081019061088e919061516a565b600061341f612b59565b6097819055919050565b6000613433612a26565b156134bc57604080516002808252606082018352600092602083019080368337019050509050838160008151811061346d5761346d61556b565b6020026020010181815250507f59400c8c523464b521238ea8f50e923f2bc64663557e6afec92a97f7efe92d0581826040516134aa929190615b32565b60405180910390a1600091505061088e565b6134c6838361406c565b905061088e565b60405163a7aced0960e01b8152600160048201526001600160801b038216602482015260609073__$0dcf4453b1418804c305d2bbf5bd62b729$__9063a7aced09906044015b600060405180830381865af4158015613530573d6000803e3d6000fd5b505050506040513d6000823e601f3d908101601f1916820160405261088e91908101906154dc565b60006001600160e01b0319821663b7b79fa960e01b148061088e57506301ffc9a760e01b6001600160e01b031983161461088e565b606060006135ab6005546001600160801b0363010000009091041690565b905080156135c1576135bc81614022565b61360c565b6135c9613857565b516001600160401b038111156135e1576135e16149c4565b60405190808252806020026020018201604052801561360a578160200160208202803683370190505b505b91505090565b6060600073__$0dcf4453b1418804c305d2bbf5bd62b729$__6374287da16001856040518363ffffffff1660e01b8152600401613650929190615ad6565b600060405180830381865af415801561366d573d6000803e3d6000fd5b505050506040513d6000823e601f3d908101601f191682016040526136959190810190615b57565b9094909350915050565b600060018260038111156136b5576136b5615523565b1192915050565b600054610100900460ff166136e35760405162461bcd60e51b8152600401610c2b906158a0565b61370d817fd2de0374d4479f33e63ae5ed6ca772a10463dd883a90c612050b51fab6196400614093565b613716826140e9565b604051631797527d60e01b81526064600482018190526001600160a01b0380851660248401528316604483015273__$7dde4232fad0cb3c495beb9e735b7d0c63$__91631797527d9101611d3f565b60606000613771613857565b915061377d8284613ef2565b90506000198114156040518060400160405280600f81526020016e53423a2057726f6e672076616c756560881b815250906137cb5760405162461bcd60e51b8152600401610c2b9190614e83565b50915091565b604051637e41e84960e01b815260016004820181905260248201526060908190819073__$0dcf4453b1418804c305d2bbf5bd62b729$__90637e41e84990604401600060405180830381865af415801561382f573d6000803e3d6000fd5b505050506040513d6000823e601f3d908101601f19168201604052612a489190810190615b9d565b6040805160028082526060808301845292602083019080368337505060035482519293506001600160a01b0316918391506000906138975761389761556b565b6001600160a01b0392831660209182029290920101526004548251911690829060019081106138c8576138c861556b565b60200260200101906001600160a01b031690816001600160a01b03168152505090565b60006138f5612803565b15604051806040016040528060138152602001724b532d31204e65656420726562616c616e636560681b815250906139405760405162461bcd60e51b8152600401610c2b9190614e83565b50613949612a26565b15604051806040016040528060148152602001734b532d313420467573652069732061637469766560601b815250906139955760405162461bcd60e51b8152600401610c2b9190614e83565b50600092915050565b606454600090819081906001600160a01b031681806139bb612c86565b9150915073__$0dcf4453b1418804c305d2bbf5bd62b729$__6334d2ec3d846139e26127d3565b85856040518563ffffffff1660e01b8152600401613a039493929190615c24565b602060405180830381865af4158015613a20573d6000803e3d6000fd5b505050506040513d601f19601f82011682018060405250810190613a44919061516a565b9550613a50828261430e565b8585613a5b856133a5565b955095509550505050909192565b60645460009081906001600160a01b031681858711613a89576000613a93565b613a938688615510565b90506000620186a086609760020154613aac91906157d4565b613ab691906157eb565b821190506000613ac5846133a5565b6001600160a01b038516600090815260966020526040902054909150613aea90614376565b881115613bb5578180613afd5750878110155b15613ba15760655473__$8f1afe7577f9ab973017c74eca19b86f3c$__9063890ffb849086908b906001600160a01b0316613b38868d615199565b866040518663ffffffff1660e01b8152600401613b59959493929190615c62565b6040805180830381865af4158015613b75573d6000803e3d6000fd5b505050506040513d601f19601f82011682018060405250810190613b999190615c96565b509450613bb5565b613bad60008989613cb0565b909850965050505b8115613c7457600080613bc786613765565b6098549193509150600090613be7906001600160a01b031687858561438e565b9050613bf281614645565b613c3f576000613c0182613612565b5090507f59400c8c523464b521238ea8f50e923f2bc64663557e6afec92a97f7efe92d058282604051613c35929190615b32565b60405180910390a1505b6000613c49613415565b9050613c6c613c58868d615199565b8a613c628b6133a5565b612df89085615199565b9a5050505050505b50505050935093915050565b60008083831115613c9c57613c958484615510565b9150613ca9565b613ca68385615510565b90505b9250929050565b60008060008060006000198814613cf457620186a0613cd16103e882615199565b613cdb898b615199565b613ce591906157d4565b613cef91906157eb565b613cf6565b875b9050613d0181614691565b8015801590613d0f57508515155b15613ee857613d1c61493a565b606454613d34906001600160a01b0316826001612fce565b80516020820151604051637a55caf360e01b815273__$8f1afe7577f9ab973017c74eca19b86f3c$__92637a55caf392613d70926004016152f1565b602060405180830381865af4158015613d8d573d6000803e3d6000fd5b505050506040513d601f19601f82011682018060405250810190613db1919061516a565b9450670de0b6b3a764000085613dc78484613147565b613dd191906157d4565b613ddb91906157eb565b95506000613dec82602001516133a5565b90506000613e348a84608001518b613e049190615199565b11613e10576000613e2b565b8a84608001518b613e219190615199565b613e2b9190615510565b83612df8613415565b965090508015613ee4576020830151606554608085015173__$8f1afe7577f9ab973017c74eca19b86f3c$__9263890ffb8492909185916001600160a01b031690613e7f908f615199565b876040518663ffffffff1660e01b8152600401613ea0959493929190615c62565b6040805180830381865af4158015613ebc573d6000803e3d6000fd5b505050506040513d601f19601f82011682018060405250810190613ee09190615c96565b5094505b5050505b5093509350935093565b8151600090815b81811015613f4457836001600160a01b0316858281518110613f1d57613f1d61556b565b60200260200101516001600160a01b031603613f3c57915061088e9050565b600101613ef9565b50600019949350505050565b6000613fa5826040518060400160405280602081526020017f5361666545524332303a206c6f772d6c6576656c2063616c6c206661696c6564815250856001600160a01b03166146e49092919063ffffffff16565b8051909150156124345780806020019051810190613fc391906157b7565b6124345760405162461bcd60e51b815260206004820152602a60248201527f5361666545524332303a204552433230206f7065726174696f6e20646964206e6044820152691bdd081cdd58d8d9595960b21b6064820152608401610c2b565b60405163131c667560e01b8152600160048201526001600160801b038216602482015260609073__$0dcf4453b1418804c305d2bbf5bd62b729$__9063131c667590604401613513565b600080600061407a84613048565b91509150614089858284613a69565b5095945050505050565b61409d82826146fd565b6114855760405162461bcd60e51b815260206004820152601a60248201527f496e74657266616365206973206e6f7420737570706f727465640000000000006044820152606401610c2b565b600054610100900460ff166141105760405162461bcd60e51b8152600401610c2b906158a0565b6001600160a01b0381166141585760405162461bcd60e51b815260206004820152600f60248201526e2d32b9379031b7b73a3937b63632b960891b6044820152606401610c2b565b614182817f4c2403fdcb3cff9b705d96bf0705858e3390412670a62c8bcba611ca7e20ab86614093565b60006001600160a01b0316816001600160a01b0316635aa6e6756040518163ffffffff1660e01b8152600401602060405180830381865afa1580156141cb573d6000803e3d6000fd5b505050506040513d601f19601f820116820180604052508101906141ef919061533b565b6001600160a01b0316036142375760405162461bcd60e51b815260206004820152600f60248201526e5a65726f20676f7665726e616e636560881b6044820152606401610c2b565b614266816115a960017f5165972ef41194f06c5007493031d0b927c20741adcb74403b954009fd2c3618615510565b614295426115a960017f6f55f470bdc9cb5f04223fd822021061668e4dccb43e8727b295106dc9769c8b615510565b6142c4436115a960017f812a673dfca07956350df10f8a654925f561d7a0da09bdbe79e653939a14d9f1615510565b604080516001600160a01b0383168152426020820152438183015290517f1a2dd071001ebf6e03174e3df5b305795a4ad5d41d8fdb9ba41dbbe2367134269181900360600190a150565b8151156114855760985473__$e930d50fb5f4f1298547dbcb2bb0591990$__9063e43fe165906064906001600160a01b0316614348613857565b6143506127d3565b609688886040518863ffffffff1660e01b8152600401611d3f9796959493929190615cba565b60008115614384578161088e565b620186a092915050565b6060614398612803565b15604051806040016040528060138152602001724b532d31204e65656420726562616c616e636560681b815250906143e35760405162461bcd60e51b8152600401610c2b9190614e83565b5060015460048054604051636795021f60e01b81526001600160a01b0390931691830191909152600160c81b8104600290810b6024840152600160e01b8204900b6044830152600160a81b900460ff1615156064820152600090819073__$0dcf4453b1418804c305d2bbf5bd62b729$__90636795021f906084016040805180830381865af415801561447a573d6000803e3d6000fd5b505050506040513d601f19601f8201168201806040525081019061449e9190615c96565b6003546004549294509092506001600160a01b039081169173__$b1ba452cecccdd06eb05ace2d0a762c7e1$__91631c2040d5918b918b918691166144e3888a615199565b6144f58a670de0b6b3a76400006157d4565b6144ff91906157eb565b60405160e087901b6001600160e01b03191681526001600160a01b0395861660048201526024810194909452918416604484015290921660648201526084810191909152609660a482015260c401600060405180830381865af415801561456a573d6000803e3d6000fd5b505050506040513d6000823e601f3d908101601f1916820160405261459291908101906154dc565b9350806001600160a01b0316866000815181106145b1576145b161556b565b60200260200101516001600160a01b03161461463a57836001815181106145da576145da61556b565b6020026020010151846000815181106145f5576145f561556b565b6020026020010151856000815181106146105761461061556b565b602002602001018660018151811061462a5761462a61556b565b6020908102919091010191909152525b505050949350505050565b8051600090815b81811015614687578381815181106146665761466661556b565b602002602001015160000361467f575060019392505050565b60010161464c565b5060009392505050565b614699612803565b15604051806040016040528060138152602001724b532d31204e65656420726562616c616e636560681b815250906114855760405162461bcd60e51b8152600401610c2b9190614e83565b60606146f384846000856147d1565b90505b9392505050565b60006001600160a01b0383166147445760405162461bcd60e51b815260206004820152600c60248201526b5a65726f206164647265737360a01b6044820152606401610c2b565b823b600081900361475957600091505061088e565b6040516301ffc9a760e01b81526001600160e01b0319841660048201526001600160a01b038516906301ffc9a790602401602060405180830381865afa9250505080156147c3575060408051601f3d908101601f191682019092526147c0918101906157b7565b60015b1561468757915061088e9050565b6060824710156148325760405162461bcd60e51b815260206004820152602660248201527f416464726573733a20696e73756666696369656e742062616c616e636520666f6044820152651c8818d85b1b60d21b6064820152608401610c2b565b600080866001600160a01b0316858760405161484e9190615d25565b60006040518083038185875af1925050503d806000811461488b576040519150601f19603f3d011682016040523d82523d6000602084013e614890565b606091505b509150915061339a878383876060831561490b578251600003614904576001600160a01b0385163b6149045760405162461bcd60e51b815260206004820152601d60248201527f416464726573733a2063616c6c20746f206e6f6e2d636f6e74726163740000006044820152606401610c2b565b5081610f57565b610f5783838151156149205781518083602001fd5b8060405162461bcd60e51b8152600401610c2b9190614e83565b6040518060c0016040528060006001600160a01b0316815260200160006001600160a01b03168152602001606081526020016000815260200160008152602001600081525090565b60006020828403121561499457600080fd5b81356001600160e01b0319811681146146f657600080fd5b6001600160a01b03811681146149c157600080fd5b50565b634e487b7160e01b600052604160045260246000fd5b604051601f8201601f191681016001600160401b0381118282101715614a0257614a026149c4565b604052919050565b60006001600160401b03821115614a2357614a236149c4565b50601f01601f191660200190565b600082601f830112614a4257600080fd5b8135614a55614a5082614a0a565b6149da565b818152846020838601011115614a6a57600080fd5b816020850160208301376000918101602001919091529392505050565b60008060008060008060c08789031215614aa057600080fd5b8635614aab816149ac565b95506020870135614abb816149ac565b94506040870135935060608701356001600160401b0380821115614ade57600080fd5b614aea8a838b01614a31565b94506080890135915080821115614b0057600080fd5b50614b0d89828a01614a31565b92505060a087013590509295509295509295565b8060020b81146149c157600080fd5b80151581146149c157600080fd5b6000806000806000806000806000610180808b8d031215614b5e57600080fd5b8a35614b69816149ac565b995060208b0135614b79816149ac565b985060408b0135614b89816149ac565b975060608b0135614b99816149ac565b965060808b0135614ba981614b21565b955060a08b0135614bb981614b21565b945060c08b0135614bc981614b30565b935060e08b01359250808b018c1015614be157600080fd5b506101008a0190509295985092959850929598565b60008060408385031215614c0957600080fd5b8235614c14816149ac565b946020939093013593505050565b60008060008060808587031215614c3857600080fd5b8435614c43816149ac565b93506020850135614c53816149ac565b92506040850135915060608501356001600160401b03811115614c7557600080fd5b614c8187828801614a31565b91505092959194509250565b600060208284031215614c9f57600080fd5b81356146f681614b30565b600060208284031215614cbc57600080fd5b5035919050565b6001600160a01b0391909116815260200190565b600060208284031215614ce957600080fd5b81356146f6816149ac565b600081518084526020808501945080840160005b83811015614d2457815187529582019590820190600101614d08565b509495945050505050565b600081518084526020808501945080840160005b83811015614d24578151151587529582019590820190600101614d43565b604081526000614d746040830185614cf4565b8281036020840152614d868185614d2f565b95945050505050565b6080808252855190820181905260009060209060a0840190828901845b82811015614dd15781516001600160a01b031684529284019290840190600101614dac565b5050508381038285015286518082528783019183019060005b81811015614e0957835160020b83529284019291840191600101614dea565b50508481036040860152614e1d8188614cf4565b92505050828103606084015261339a8185614d2f565b60005b83811015614e4e578181015183820152602001614e36565b50506000910152565b60008151808452614e6f816020860160208601614e33565b601f01601f19169290920160200192915050565b6020815260006146f66020830184614e57565b60008060208385031215614ea957600080fd5b82356001600160401b0380821115614ec057600080fd5b818501915085601f830112614ed457600080fd5b813581811115614ee357600080fd5b866020828501011115614ef557600080fd5b60209290920196919550909350505050565b600080600060608486031215614f1c57600080fd5b833592506020840135614f2e816149ac565b929592945050506040919091013590565b60006001600160401b03821115614f5857614f586149c4565b5060051b60200190565b600082601f830112614f7357600080fd5b81356020614f83614a5083614f3f565b82815260059290921b84018101918181019086841115614fa257600080fd5b8286015b84811015614fbd5780358352918301918301614fa6565b509695505050505050565b60008060408385031215614fdb57600080fd5b82356001600160401b0380821115614ff257600080fd5b818501915085601f83011261500657600080fd5b81356020615016614a5083614f3f565b82815260059290921b8401810191818101908984111561503557600080fd5b948201945b8386101561505c57853561504d816149ac565b8252948201949082019061503a565b9650508601359250508082111561507257600080fd5b5061507f85828601614f62565b9150509250929050565b6000806040838503121561509c57600080fd5b8235915060208301356150ae81614b30565b809150509250929050565b6000602082840312156150cb57600080fd5b81356001600160401b038111156150e157600080fd5b61252884828501614a31565b6000608082840312156150ff57600080fd5b82601f83011261510e57600080fd5b604051608081018181106001600160401b0382111715615130576151306149c4565b60405280608084018581111561514557600080fd5b845b8181101561515f578035835260209283019201615147565b509195945050505050565b60006020828403121561517c57600080fd5b5051919050565b634e487b7160e01b600052601160045260246000fd5b8082018082111561088e5761088e615183565b8060005b6004811015611c8f5781518452602093840193909101906001016151b0565b60006101a08289835b60058110156152005781516001600160a01b03168352602092830192909101906001016151d8565b50505061521060a08401896151ac565b8061012084015261522381840188614e57565b90508281036101408401526152388187614e57565b61016084019590955250506101800152949350505050565b600082601f83011261526157600080fd5b81516020615271614a5083614f3f565b82815260059290921b8401810191818101908684111561529057600080fd5b8286015b84811015614fbd5780518352918301918301615294565b600080604083850312156152be57600080fd5b82516152c981614b30565b60208401519092506001600160401b038111156152e557600080fd5b61507f85828601615250565b6001600160a01b0392831681529116602082015260400190565b6001600160a01b039586168152602081019490945260408401929092526060830152909116608082015260a00190565b60006020828403121561534d57600080fd5b81516146f6816149ac565b8060005b6002811015611c8f5781516001600160a01b031684526020938401939091019060010161535c565b87815261016081016153996020830189615358565b8660020b60608301528560020b608083015260018060a01b03851660a083015283151560c083015260808360e084013798975050505050505050565b6000602082840312156153e757600080fd5b81516001600160401b038111156153fd57600080fd5b8201601f8101841361540e57600080fd5b805161541c614a5082614a0a565b81815285602083850101111561543157600080fd5b614d86826020830160208601614e33565b8281526040602082015260006146f36040830184614e57565b6000806040838503121561546e57600080fd5b825161547981614b30565b60208401519092506150ae81614b30565b888152610120810161549f602083018a615358565b606082019790975260808101959095526001600160a01b039390931660a085015290151560c084015260e083015215156101009091015292915050565b6000602082840312156154ee57600080fd5b81516001600160401b0381111561550457600080fd5b61252884828501615250565b8181038181111561088e5761088e615183565b634e487b7160e01b600052602160045260246000fd5b828152604081016004831061555e57634e487b7160e01b600052602160045260246000fd5b8260208301529392505050565b634e487b7160e01b600052603260045260246000fd5b600082601f83011261559257600080fd5b815160206155a2614a5083614f3f565b82815260059290921b840181019181810190868411156155c157600080fd5b8286015b84811015614fbd5780516155d8816149ac565b83529183019183016155c5565b600082601f8301126155f657600080fd5b81516020615606614a5083614f3f565b82815260059290921b8401810191818101908684111561562557600080fd5b8286015b84811015614fbd57805161563c81614b30565b8352918301918301615629565b6000806000806080858703121561565f57600080fd5b84516001600160401b038082111561567657600080fd5b61568288838901615581565b955060209150818701518181111561569957600080fd5b8701601f810189136156aa57600080fd5b80516156b8614a5082614f3f565b81815260059190911b8201840190848101908b8311156156d757600080fd5b928501925b828410156156fe5783516156ef81614b21565b825292850192908501906156dc565b60408b015190985094505050508082111561571857600080fd5b61572488838901615250565b9350606087015191508082111561573a57600080fd5b50614c81878288016155e5565b600181811c9082168061575b57607f821691505b60208210810361577b57634e487b7160e01b600052602260045260246000fd5b50919050565b83815260406020820152816040820152818360608301376000818301606090810191909152601f909201601f1916010192915050565b6000602082840312156157c957600080fd5b81516146f681614b30565b808202811582820484141761088e5761088e615183565b60008261580857634e487b7160e01b600052601260045260246000fd5b500490565b86815260c06020820152600061582660c0830188614e57565b82810360408401526158388188614cf4565b6001600160a01b0396871660608501529490951660808301525060a00152949350505050565b6000806040838503121561587157600080fd5b825161587c816149ac565b6020939093015192949293505050565b82815260a081016146f660208301846151ac565b6020808252602b908201527f496e697469616c697a61626c653a20636f6e7472616374206973206e6f74206960408201526a6e697469616c697a696e6760a81b606082015260800190565b600081518084526020808501945080840160005b83811015614d245781516001600160a01b0316875295820195908201906001016158ff565b60808152600061593760808301876158eb565b82810360208401526159498187614cf4565b604084019590955250506001600160a01b039190911660609091015292915050565b6001600160a01b038616815260a06020820181905260009061598f908301876158eb565b82810360408401526159a181876158eb565b905082810360608401526159b58186614cf4565b905082810360808401526159c98185614cf4565b98975050505050505050565b600080604083850312156159e857600080fd5b82516001600160401b03808211156159ff57600080fd5b615a0b86838701615581565b93506020850151915080821115615a2157600080fd5b5061507f85828601615250565b6020815260006146f66020830184614cf4565b600060018060a01b03808916835280881660208401525085604083015284606083015283608083015260c060a08301526159c960c08301846158eb565b87815260e060208201526000615a9760e08301896158eb565b604083018890526001600160a01b03871660608401528281036080840152615abf8187614cf4565b60a0840195909552505060c0015295945050505050565b8281526040602082015260006146f36040830184614cf4565b60c081526000615b0260c08301896158eb565b6020830197909752506001600160a01b039485166040820152929093166060830152608082015260a00152919050565b604081526000615b456040830185614cf4565b8281036020840152614d868185614cf4565b60008060408385031215615b6a57600080fd5b82516001600160401b03811115615b8057600080fd5b615b8c85828601615250565b925050602083015190509250929050565b600080600060608486031215615bb257600080fd5b83516001600160401b0380821115615bc957600080fd5b615bd587838801615581565b94506020860151915080821115615beb57600080fd5b615bf787838801615250565b93506040860151915080821115615c0d57600080fd5b50615c1a86828701615250565b9150509250925092565b6001600160a01b03858116825284166020820152608060408201819052600090615c50908301856158eb565b828103606084015261339a8185614cf4565b6001600160a01b03958616815260208101949094529190931660408301526060820192909252608081019190915260a00190565b60008060408385031215615ca957600080fd5b505080516020909101519092909150565b878152600060018060a01b03808916602084015260e06040840152615ce260e08401896158eb565b818816606085015286608085015283810360a0850152615d0281876158eb565b91505082810360c0840152615d178185614cf4565b9a9950505050505050505050565b60008251615d37818460208701614e33565b919091019291505056fea264697066735822122098a8a697865f91ee1a49a9593d5ebdfa741b1406ebd70688d638cf5b8de68b7664736f6c63430008110033",
  "libraries": {
    "ConverterStrategyBaseLib": "0xad3A39Fa4242B5E2d39aCCF039D090381226B417",
    "ConverterStrategyBaseLib2": "0x1FcdC0662a43dD6f78A3EbD893277fae778baF9c",
    "StrategyLib2": "0x00B6384Da9F9f1e31Feed637628Eb490732981b9",
    "KyberConverterStrategyLogicLib": "0x2DbADFbD05B939Ab1886Fc2438be3Cad44BbCBa0",
    "PairBasedStrategyLib": "0xa8788689d9360D0ddca76d5Cc475945a119b11Fe",
    "PairBasedStrategyLogicLib": "0x56d8b66A796b967Af1E2e78D23669E4ad393325a"
  },
  "devdoc": {
    "kind": "dev",
    "methods": {
      "claim()": {
        "details": "Manual claim rewards."
      },
      "created()": {
        "returns": {
          "_0": "Creation timestamp"
        }
      },
      "createdBlock()": {
        "returns": {
          "_0": "Creation block number"
        }
      },
      "doHardWork()": {
        "returns": {
          "earned": "Earned amount in terms of {asset}",
          "lost": "Lost amount in terms of {asset}"
        }
      },
      "emergencyExit()": {
        "details": "In case of any issue operator can withdraw all from pool."
      },
      "getDefaultState()": {
        "returns": {
          "addr": "[tokenA, tokenB, pool, profitHolder]",
          "boolValues": "[isStablePool, depositorSwapTokens]",
          "nums": "[totalLiquidity, fuse-status-tokenA, fuse-status-tokenB, withdrawDone, 4 thresholds of token A, 4 thresholds of token B]",
          "tickData": "[tickSpacing, lowerTick, upperTick, rebalanceTickRange]"
        }
      },
      "getPropNotUnderlying18()": {
        "returns": {
          "_0": "Proportion of the not-underlying [0...1e18]"
        }
      },
      "getSlot(uint256)": {
        "details": "Gets a slot as bytes32"
      },
      "getSpecificState()": {
        "returns": {
          "flags": "[staked, needStake, needUnstake]",
          "nums": "Balances of the profit holder for [tokenA, tokenB, KNC]"
        }
      },
      "increaseRevision(address)": {
        "details": "Revision should be increased on each contract upgrade"
      },
      "init(address,address,address,address,int24,int24,bool,uint256,uint256[4])": {
        "params": {
          "controller_": "The address of the controller.",
          "converter_": "The address of the converter.",
          "fuseThresholds": "Price thresholds for tokens [LOWER_LIMIT_ON, LOWER_LIMIT_OFF, UPPER_LIMIT_ON, UPPER_LIMIT_OFF]",
          "pool_": "The address of the pool.",
          "rebalanceTickRange_": "The tick range for rebalancing.",
          "splitter_": "The address of the splitter.",
          "tickRange_": "The tick range for the liquidity position."
        }
      },
      "investAll(uint256,bool)": {
        "params": {
          "updateTotalAssetsBeforeInvest_": "Recalculate total assets amount before depositing.                                       It can be false if we know exactly, that the amount is already actual."
        },
        "returns": {
          "strategyLoss": "Loss should be covered from Insurance"
        }
      },
      "isController(address)": {
        "details": "Return true if given address is controller"
      },
      "isReadyToHardWork()": {
        "returns": {
          "_0": "A boolean indicating if the strategy is ready for hard work."
        }
      },
      "needRebalance()": {
        "returns": {
          "_0": "A boolean indicating if the strategy needs rebalancing."
        }
      },
      "onTransferAmounts(address[],uint256[])": {
        "params": {
          "amounts_": "Amount of {asset_} that has been sent to the user's balance",
          "assets_": "Any asset sent to the balance, i.e. inside repayTheBorrow"
        }
      },
      "performanceFee()": {
        "details": "use FEE_DENOMINATOR"
      },
      "previousImplementation()": {
        "details": "Previous logic implementation"
      },
      "rebalanceNoSwaps(bool)": {
        "params": {
          "checkNeedRebalance": "Revert if rebalance is not needed. Pass false to deposit after withdrawByAgg-iterations"
        }
      },
      "requirePayAmountBack(address,uint256)": {
        "params": {
          "amount_": "Required amount of {theAsset_}",
          "theAsset_": "Required asset (either collateral or borrow), it can be NOT underlying"
        },
        "returns": {
          "amountOut": "Amount that was send OR can be claimed on the next call.                   The caller should control own balance to know if the amount was actually send                   (because we need compatibility with exist not-NSR strategies)"
        }
      },
      "revision()": {
        "details": "Contract upgrade counter"
      },
      "setCompoundRatio(uint256)": {
        "details": "PlatformVoter can change compound ratio for some strategies.      A strategy can implement another logic for some uniq cases."
      },
      "setFuseStatus(uint256)": {
        "params": {
          "status": "See PairBasedStrategyLib.FuseStatus enum for possile values"
        }
      },
      "setFuseThresholds(uint256[4])": {
        "params": {
          "values": "Price thresholds: [LOWER_LIMIT_ON, LOWER_LIMIT_OFF, UPPER_LIMIT_ON, UPPER_LIMIT_OFF]"
        }
      },
      "setLiquidationThreshold(address,uint256)": {
        "details": "Liquidation thresholds are used to detect dust in many cases, not only in liquidation case",
        "params": {
          "amount": "Min amount of token allowed to liquidate, token's decimals are used."
        }
      },
      "setReinvestThresholdPercent(uint256)": {
        "params": {
          "percent_": "New value of the percent, decimals = {REINVEST_THRESHOLD_PERCENT_DENOMINATOR}"
        }
      },
      "setStrategySpecificName(string)": {
        "details": "The name will be used for UI."
      },
      "setWithdrawDone(uint256)": {
        "params": {
          "done": "0 - full withdraw required, 1 - full withdraw was done"
        }
      },
      "supportsInterface(bytes4)": {
        "details": "See {IERC165-supportsInterface}."
      },
      "totalAssets()": {
        "details": "Total amount of underlying assets under control of this strategy."
      },
      "withdrawAllToSplitter()": {
        "details": "Withdraws all underlying assets to the vault",
        "returns": {
          "strategyLoss": "Loss should be covered from Insurance"
        }
      },
      "withdrawByAggStep(address,address,uint256,bytes,bytes,uint256)": {
        "details": "All swap-by-agg data should be prepared using {quoteWithdrawByAgg} off-chain",
        "params": {
          "aggregator_": "Aggregator that should be used on next swap. 0 - use liquidator",
          "amountToSwap_": "Amount that should be swapped. 0 - no swap",
          "entryToPool": "Allow to enter to the pool at the end. Use false if you are going to make several iterations.                    It's possible to enter back to the pool by calling {rebalanceNoSwaps} at any moment                    0 - not allowed, 1 - allowed, 2 - allowed only if completed",
          "planEntryData": "PLAN_XXX + additional data, see IterationPlanKinds",
          "swapData": "Swap rote that was prepared off-chain.",
          "tokenToSwap_": "What token should be swapped to other"
        },
        "returns": {
          "completed": "All debts were closed, leftovers were swapped to the required proportions."
        }
      },
      "withdrawToSplitter(uint256)": {
        "details": "Withdraws some assets to the splitter",
        "returns": {
          "strategyLoss": "Loss should be covered from Insurance"
        }
      }
    },
    "version": 1
  },
  "userdoc": {
    "kind": "user",
    "methods": {
      "CONTROLLABLE_VERSION()": {
        "notice": "Version of the contract"
      },
      "capacity()": {
        "notice": "Unlimited capacity by default"
      },
      "controller()": {
        "notice": "Return controller address saved in the contract slot"
      },
      "created()": {
        "notice": "Return creation timestamp"
      },
      "createdBlock()": {
        "notice": "Return creation block number"
      },
      "doHardWork()": {
        "notice": "Do hard work with reinvesting"
      },
      "getDefaultState()": {
        "notice": "Returns the current state of the contract"
      },
      "getPropNotUnderlying18()": {
        "notice": "Calculate proportions of [underlying, not-underlying] required by the internal pool of the strategy"
      },
      "getSpecificState()": {
        "notice": "Returns the current state of the contract."
      },
      "init(address,address,address,address,int24,int24,bool,uint256,uint256[4])": {
        "notice": "Initialize the strategy with the given parameters."
      },
      "investAll(uint256,bool)": {
        "notice": "Stakes everything the strategy holds into the reward pool. amount_ Amount transferred to the strategy balance just before calling this function"
      },
      "investedAssets()": {
        "notice": "Amount of underlying assets converted to pool assets and invested to the pool."
      },
      "isGovernance(address)": {
        "notice": "Return true if given address is setup as governance in Controller"
      },
      "isReadyToHardWork()": {
        "notice": "Check if the strategy is ready for hard work."
      },
      "liquidationThresholds(address)": {
        "notice": "Minimum token amounts that can be liquidated"
      },
      "needRebalance()": {
        "notice": "Check if the strategy needs rebalancing."
      },
      "onTransferAmounts(address[],uint256[])": {
        "notice": "TetuConverter calls this function when it sends any amount to user's balance"
      },
      "performanceFee()": {
        "notice": "A percent of total profit that is sent to the {performanceReceiver} before compounding"
      },
      "performanceReceiver()": {
        "notice": "{performanceFee}% of total profit is sent to the {performanceReceiver} before compounding"
      },
      "quoteWithdrawByAgg(bytes)": {
        "notice": "Get info about a swap required by next call of {withdrawByAggStep} within the given plan"
      },
      "rebalanceNoSwaps(bool)": {
        "notice": "Rebalance using borrow/repay only, no swaps"
      },
      "requirePayAmountBack(address,uint256)": {
        "notice": "Converters asks to send some amount back.         The results depend on whether the required amount is on the balance:         1. The {amount_} exists on the balance: send the amount to TetuConverter, return {amount_}         2. The {amount_} doesn't exist on the balance. Try to receive the {amount_}.         2.1. if the required amount is received: return {amount_}         2.2. if less amount X (X < {amount_}) is received return X - gap         In the case 2 no amount is send to TetuConverter.         Converter should make second call of requirePayAmountBack({amountOut}) to receive the assets."
      },
      "setFuseStatus(uint256)": {
        "notice": "Manually set status of the fuse"
      },
      "setFuseThresholds(uint256[4])": {
        "notice": "Set thresholds for the fuse: [LOWER_LIMIT_ON, LOWER_LIMIT_OFF, UPPER_LIMIT_ON, UPPER_LIMIT_OFF]         Decimals 18. The thresholds are compared with prices from TetuConverter's price oracle.         Example: [0.9, 0.92, 1.08, 1.1]         Price falls below 0.9 - fuse is ON. Price rises back up to 0.92 - fuse is OFF.         Price raises more and reaches 1.1 - fuse is ON again. Price falls back and reaches 1.08 - fuse OFF again."
      },
      "setWithdrawDone(uint256)": {
        "notice": "Set withdrawDone value.         When a fuse was triggered ON, all debts should be closed and asset should be converted to underlying.         After completion of the conversion withdrawDone can be set to 1.         So, {getFuseStatus} will return  withdrawDone=1 and you will know, that withdraw is not required"
      },
      "setupPerformanceFee(uint256,address,uint256)": {
        "notice": "Set performance fee, receiver and ratio"
      },
      "withdrawByAggStep(address,address,uint256,bytes,bytes,uint256)": {
        "notice": "Make withdraw iteration: [exit from the pool], [make 1 swap], [repay a debt], [enter to the pool]         Typical sequence of the actions is: exit from the pool, make 1 swap, repay 1 debt.         You can enter to the pool if you are sure that you won't have borrow + repay on AAVE3 in the same block."
      }
    },
    "version": 1
  },
  "storageLayout": {
    "storage": [
      {
        "astId": 11353,
        "contract": "contracts/strategies/kyber/KyberConverterStrategy.sol:KyberConverterStrategy",
        "label": "_initialized",
        "offset": 0,
        "slot": "0",
        "type": "t_uint8"
      },
      {
        "astId": 11356,
        "contract": "contracts/strategies/kyber/KyberConverterStrategy.sol:KyberConverterStrategy",
        "label": "_initializing",
        "offset": 1,
        "slot": "0",
        "type": "t_bool"
      },
      {
        "astId": 102528,
        "contract": "contracts/strategies/kyber/KyberConverterStrategy.sol:KyberConverterStrategy",
        "label": "state",
        "offset": 0,
        "slot": "1",
        "type": "t_struct(State)99446_storage"
      },
      {
        "astId": 102535,
        "contract": "contracts/strategies/kyber/KyberConverterStrategy.sol:KyberConverterStrategy",
        "label": "__gap",
        "offset": 0,
        "slot": "63",
        "type": "t_array(t_uint256)37_storage"
      },
      {
        "astId": 16695,
        "contract": "contracts/strategies/kyber/KyberConverterStrategy.sol:KyberConverterStrategy",
        "label": "baseState",
        "offset": 0,
        "slot": "100",
        "type": "t_struct(BaseState)5205_storage"
      },
      {
        "astId": 17142,
        "contract": "contracts/strategies/kyber/KyberConverterStrategy.sol:KyberConverterStrategy",
        "label": "__gap",
        "offset": 0,
        "slot": "107",
        "type": "t_array(t_uint256)43_storage"
      },
      {
        "astId": 82417,
        "contract": "contracts/strategies/kyber/KyberConverterStrategy.sol:KyberConverterStrategy",
        "label": "liquidationThresholds",
        "offset": 0,
        "slot": "150",
        "type": "t_mapping(t_address,t_uint256)"
      },
      {
        "astId": 82421,
        "contract": "contracts/strategies/kyber/KyberConverterStrategy.sol:KyberConverterStrategy",
        "label": "_csbs",
        "offset": 0,
        "slot": "151",
        "type": "t_struct(ConverterStrategyBaseState)78490_storage"
      },
      {
        "astId": 83888,
        "contract": "contracts/strategies/kyber/KyberConverterStrategy.sol:KyberConverterStrategy",
        "label": "__gap",
        "offset": 0,
        "slot": "204",
        "type": "t_array(t_uint256)46_storage"
      }
    ],
    "types": {
      "t_address": {
        "encoding": "inplace",
        "label": "address",
        "numberOfBytes": "20"
      },
      "t_array(t_uint256)10_storage": {
        "base": "t_uint256",
        "encoding": "inplace",
        "label": "uint256[10]",
        "numberOfBytes": "320"
      },
      "t_array(t_uint256)33_storage": {
        "base": "t_uint256",
        "encoding": "inplace",
        "label": "uint256[33]",
        "numberOfBytes": "1056"
      },
      "t_array(t_uint256)37_storage": {
        "base": "t_uint256",
        "encoding": "inplace",
        "label": "uint256[37]",
        "numberOfBytes": "1184"
      },
      "t_array(t_uint256)43_storage": {
        "base": "t_uint256",
        "encoding": "inplace",
        "label": "uint256[43]",
        "numberOfBytes": "1376"
      },
      "t_array(t_uint256)46_storage": {
        "base": "t_uint256",
        "encoding": "inplace",
        "label": "uint256[46]",
        "numberOfBytes": "1472"
      },
      "t_array(t_uint256)4_storage": {
        "base": "t_uint256",
        "encoding": "inplace",
        "label": "uint256[4]",
        "numberOfBytes": "128"
      },
      "t_array(t_uint256)50_storage": {
        "base": "t_uint256",
        "encoding": "inplace",
        "label": "uint256[50]",
        "numberOfBytes": "1600"
      },
      "t_bool": {
        "encoding": "inplace",
        "label": "bool",
        "numberOfBytes": "1"
      },
      "t_contract(ITetuConverter)49176": {
        "encoding": "inplace",
        "label": "contract ITetuConverter",
        "numberOfBytes": "20"
      },
      "t_enum(FuseStatus)104599": {
        "encoding": "inplace",
        "label": "enum PairBasedStrategyLib.FuseStatus",
        "numberOfBytes": "1"
      },
      "t_int24": {
        "encoding": "inplace",
        "label": "int24",
        "numberOfBytes": "3"
      },
      "t_mapping(t_address,t_uint256)": {
        "encoding": "mapping",
        "key": "t_address",
        "label": "mapping(address => uint256)",
        "numberOfBytes": "32",
        "value": "t_uint256"
      },
      "t_string_storage": {
        "encoding": "bytes",
        "label": "string",
        "numberOfBytes": "32"
      },
      "t_struct(BaseState)5205_storage": {
        "encoding": "inplace",
        "label": "struct IStrategyV3.BaseState",
        "members": [
          {
            "astId": 5186,
            "contract": "contracts/strategies/kyber/KyberConverterStrategy.sol:KyberConverterStrategy",
            "label": "asset",
            "offset": 0,
            "slot": "0",
            "type": "t_address"
          },
          {
            "astId": 5189,
            "contract": "contracts/strategies/kyber/KyberConverterStrategy.sol:KyberConverterStrategy",
            "label": "splitter",
            "offset": 0,
            "slot": "1",
            "type": "t_address"
          },
          {
            "astId": 5192,
            "contract": "contracts/strategies/kyber/KyberConverterStrategy.sol:KyberConverterStrategy",
            "label": "performanceReceiver",
            "offset": 0,
            "slot": "2",
            "type": "t_address"
          },
          {
            "astId": 5195,
            "contract": "contracts/strategies/kyber/KyberConverterStrategy.sol:KyberConverterStrategy",
            "label": "performanceFee",
            "offset": 0,
            "slot": "3",
            "type": "t_uint256"
          },
          {
            "astId": 5198,
            "contract": "contracts/strategies/kyber/KyberConverterStrategy.sol:KyberConverterStrategy",
            "label": "performanceFeeRatio",
            "offset": 0,
            "slot": "4",
            "type": "t_uint256"
          },
          {
            "astId": 5201,
            "contract": "contracts/strategies/kyber/KyberConverterStrategy.sol:KyberConverterStrategy",
            "label": "compoundRatio",
            "offset": 0,
            "slot": "5",
            "type": "t_uint256"
          },
          {
            "astId": 5204,
            "contract": "contracts/strategies/kyber/KyberConverterStrategy.sol:KyberConverterStrategy",
            "label": "strategySpecificName",
            "offset": 0,
            "slot": "6",
            "type": "t_string_storage"
          }
        ],
        "numberOfBytes": "224"
      },
      "t_struct(ConverterStrategyBaseState)78490_storage": {
        "encoding": "inplace",
        "label": "struct IConverterStrategyBase.ConverterStrategyBaseState",
        "members": [
          {
            "astId": 78477,
            "contract": "contracts/strategies/kyber/KyberConverterStrategy.sol:KyberConverterStrategy",
            "label": "investedAssets",
            "offset": 0,
            "slot": "0",
            "type": "t_uint256"
          },
          {
            "astId": 78481,
            "contract": "contracts/strategies/kyber/KyberConverterStrategy.sol:KyberConverterStrategy",
            "label": "converter",
            "offset": 0,
            "slot": "1",
            "type": "t_contract(ITetuConverter)49176"
          },
          {
            "astId": 78484,
            "contract": "contracts/strategies/kyber/KyberConverterStrategy.sol:KyberConverterStrategy",
            "label": "reinvestThresholdPercent",
            "offset": 0,
            "slot": "2",
            "type": "t_uint256"
          },
          {
            "astId": 78489,
            "contract": "contracts/strategies/kyber/KyberConverterStrategy.sol:KyberConverterStrategy",
            "label": "__gap",
            "offset": 0,
            "slot": "3",
            "type": "t_array(t_uint256)50_storage"
          }
        ],
        "numberOfBytes": "1696"
      },
      "t_struct(FuseStateParams)104639_storage": {
        "encoding": "inplace",
        "label": "struct PairBasedStrategyLib.FuseStateParams",
        "members": [
          {
            "astId": 104628,
            "contract": "contracts/strategies/kyber/KyberConverterStrategy.sol:KyberConverterStrategy",
            "label": "status",
            "offset": 0,
            "slot": "0",
            "type": "t_enum(FuseStatus)104599"
          },
          {
            "astId": 104633,
            "contract": "contracts/strategies/kyber/KyberConverterStrategy.sol:KyberConverterStrategy",
            "label": "thresholds",
            "offset": 0,
            "slot": "1",
            "type": "t_array(t_uint256)4_storage"
          },
          {
            "astId": 104638,
            "contract": "contracts/strategies/kyber/KyberConverterStrategy.sol:KyberConverterStrategy",
            "label": "__gap",
            "offset": 0,
            "slot": "5",
            "type": "t_array(t_uint256)4_storage"
          }
        ],
        "numberOfBytes": "288"
      },
      "t_struct(PairState)106737_storage": {
        "encoding": "inplace",
        "label": "struct PairBasedStrategyLogicLib.PairState",
        "members": [
          {
            "astId": 106696,
            "contract": "contracts/strategies/kyber/KyberConverterStrategy.sol:KyberConverterStrategy",
            "label": "pool",
            "offset": 0,
            "slot": "0",
            "type": "t_address"
          },
          {
            "astId": 106698,
            "contract": "contracts/strategies/kyber/KyberConverterStrategy.sol:KyberConverterStrategy",
            "label": "strategyProfitHolder",
            "offset": 0,
            "slot": "1",
            "type": "t_address"
          },
          {
            "astId": 106701,
            "contract": "contracts/strategies/kyber/KyberConverterStrategy.sol:KyberConverterStrategy",
            "label": "tokenA",
            "offset": 0,
            "slot": "2",
            "type": "t_address"
          },
          {
            "astId": 106704,
            "contract": "contracts/strategies/kyber/KyberConverterStrategy.sol:KyberConverterStrategy",
            "label": "tokenB",
            "offset": 0,
            "slot": "3",
            "type": "t_address"
          },
          {
            "astId": 106706,
            "contract": "contracts/strategies/kyber/KyberConverterStrategy.sol:KyberConverterStrategy",
            "label": "isStablePool",
            "offset": 20,
            "slot": "3",
            "type": "t_bool"
          },
          {
            "astId": 106709,
            "contract": "contracts/strategies/kyber/KyberConverterStrategy.sol:KyberConverterStrategy",
            "label": "depositorSwapTokens",
            "offset": 21,
            "slot": "3",
            "type": "t_bool"
          },
          {
            "astId": 106711,
            "contract": "contracts/strategies/kyber/KyberConverterStrategy.sol:KyberConverterStrategy",
            "label": "tickSpacing",
            "offset": 22,
            "slot": "3",
            "type": "t_int24"
          },
          {
            "astId": 106713,
            "contract": "contracts/strategies/kyber/KyberConverterStrategy.sol:KyberConverterStrategy",
            "label": "lowerTick",
            "offset": 25,
            "slot": "3",
            "type": "t_int24"
          },
          {
            "astId": 106715,
            "contract": "contracts/strategies/kyber/KyberConverterStrategy.sol:KyberConverterStrategy",
            "label": "upperTick",
            "offset": 28,
            "slot": "3",
            "type": "t_int24"
          },
          {
            "astId": 106717,
            "contract": "contracts/strategies/kyber/KyberConverterStrategy.sol:KyberConverterStrategy",
            "label": "rebalanceTickRange",
            "offset": 0,
            "slot": "4",
            "type": "t_int24"
          },
          {
            "astId": 106719,
            "contract": "contracts/strategies/kyber/KyberConverterStrategy.sol:KyberConverterStrategy",
            "label": "totalLiquidity",
            "offset": 3,
            "slot": "4",
            "type": "t_uint128"
          },
          {
            "astId": 106723,
            "contract": "contracts/strategies/kyber/KyberConverterStrategy.sol:KyberConverterStrategy",
            "label": "fuseAB",
            "offset": 0,
            "slot": "5",
            "type": "t_struct(FuseStateParams)104639_storage"
          },
          {
            "astId": 106726,
            "contract": "contracts/strategies/kyber/KyberConverterStrategy.sol:KyberConverterStrategy",
            "label": "withdrawDone",
            "offset": 0,
            "slot": "14",
            "type": "t_uint256"
          },
          {
            "astId": 106729,
            "contract": "contracts/strategies/kyber/KyberConverterStrategy.sol:KyberConverterStrategy",
            "label": "lastRebalanceNoSwap",
            "offset": 0,
            "slot": "15",
            "type": "t_uint256"
          },
          {
            "astId": 106736,
            "contract": "contracts/strategies/kyber/KyberConverterStrategy.sol:KyberConverterStrategy",
            "label": "__gap",
            "offset": 0,
            "slot": "16",
            "type": "t_array(t_uint256)33_storage"
          }
        ],
        "numberOfBytes": "1568"
      },
      "t_struct(State)99446_storage": {
        "encoding": "inplace",
        "label": "struct KyberConverterStrategyLogicLib.State",
        "members": [
          {
            "astId": 99434,
            "contract": "contracts/strategies/kyber/KyberConverterStrategy.sol:KyberConverterStrategy",
            "label": "pair",
            "offset": 0,
            "slot": "0",
            "type": "t_struct(PairState)106737_storage"
          },
          {
            "astId": 99436,
            "contract": "contracts/strategies/kyber/KyberConverterStrategy.sol:KyberConverterStrategy",
            "label": "tokenId",
            "offset": 0,
            "slot": "49",
            "type": "t_uint256"
          },
          {
            "astId": 99438,
            "contract": "contracts/strategies/kyber/KyberConverterStrategy.sol:KyberConverterStrategy",
            "label": "pId",
            "offset": 0,
            "slot": "50",
            "type": "t_uint256"
          },
          {
            "astId": 99440,
            "contract": "contracts/strategies/kyber/KyberConverterStrategy.sol:KyberConverterStrategy",
            "label": "staked",
            "offset": 0,
            "slot": "51",
            "type": "t_bool"
          },
          {
            "astId": 99445,
            "contract": "contracts/strategies/kyber/KyberConverterStrategy.sol:KyberConverterStrategy",
            "label": "__gap",
            "offset": 0,
            "slot": "52",
            "type": "t_array(t_uint256)10_storage"
          }
        ],
        "numberOfBytes": "1984"
      },
      "t_uint128": {
        "encoding": "inplace",
        "label": "uint128",
        "numberOfBytes": "16"
      },
      "t_uint256": {
        "encoding": "inplace",
        "label": "uint256",
        "numberOfBytes": "32"
      },
      "t_uint8": {
        "encoding": "inplace",
        "label": "uint8",
        "numberOfBytes": "1"
      }
    }
  }
}