{
  "address": "0xE5779B35180c1048562c733A7E62f8Fe1d253C41",
  "abi": [
    {
      "anonymous": false,
      "inputs": [
        {
          "indexed": false,
          "internalType": "uint256",
          "name": "fuseStatus",
          "type": "uint256"
        }
      ],
      "name": "FuseStatusChanged",
      "type": "event"
    },
    {
      "anonymous": false,
      "inputs": [
        {
          "indexed": false,
          "internalType": "uint256[4]",
          "name": "newFuseThresholds",
          "type": "uint256[4]"
        }
      ],
      "name": "NewFuseThresholds",
      "type": "event"
    },
    {
      "anonymous": false,
      "inputs": [
        {
          "indexed": false,
          "internalType": "uint256",
          "name": "amountToSwap",
          "type": "uint256"
        },
        {
          "indexed": false,
          "internalType": "uint256",
          "name": "amountIn",
          "type": "uint256"
        },
        {
          "indexed": false,
          "internalType": "uint256",
          "name": "amountOut",
          "type": "uint256"
        },
        {
          "indexed": false,
          "internalType": "uint256",
          "name": "expectedAmountOut",
          "type": "uint256"
        },
        {
          "indexed": false,
          "internalType": "address",
          "name": "aggregator",
          "type": "address"
        },
        {
          "indexed": false,
          "internalType": "address",
          "name": "assetIn",
          "type": "address"
        },
        {
          "indexed": false,
          "internalType": "address",
          "name": "assetOut",
          "type": "address"
        }
      ],
      "name": "SwapByAgg",
      "type": "event"
    },
    {
      "inputs": [],
      "name": "ENTRY_TO_POOL_IS_ALLOWED",
      "outputs": [
        {
          "internalType": "uint256",
          "name": "",
          "type": "uint256"
        }
      ],
      "stateMutability": "view",
      "type": "function"
    },
    {
      "inputs": [],
      "name": "ENTRY_TO_POOL_IS_ALLOWED_IF_COMPLETED",
      "outputs": [
        {
          "internalType": "uint256",
          "name": "",
          "type": "uint256"
        }
      ],
      "stateMutability": "view",
      "type": "function"
    },
    {
      "inputs": [],
      "name": "FUSE_IDX_LOWER_LIMIT_OFF",
      "outputs": [
        {
          "internalType": "uint256",
          "name": "",
          "type": "uint256"
        }
      ],
      "stateMutability": "view",
      "type": "function"
    },
    {
      "inputs": [],
      "name": "FUSE_IDX_LOWER_LIMIT_ON",
      "outputs": [
        {
          "internalType": "uint256",
          "name": "",
          "type": "uint256"
        }
      ],
      "stateMutability": "view",
      "type": "function"
    },
    {
      "inputs": [],
      "name": "FUSE_IDX_UPPER_LIMIT_OFF",
      "outputs": [
        {
          "internalType": "uint256",
          "name": "",
          "type": "uint256"
        }
      ],
      "stateMutability": "view",
      "type": "function"
    },
    {
      "inputs": [],
      "name": "FUSE_IDX_UPPER_LIMIT_ON",
      "outputs": [
        {
          "internalType": "uint256",
          "name": "",
          "type": "uint256"
        }
      ],
      "stateMutability": "view",
      "type": "function"
    },
    {
      "inputs": [],
      "name": "GAP_AMOUNT_TO_SWAP",
      "outputs": [
        {
          "internalType": "uint256",
          "name": "",
          "type": "uint256"
        }
      ],
      "stateMutability": "view",
      "type": "function"
    },
    {
      "inputs": [],
      "name": "IDX_ADDR_DEFAULT_STATE_POOL",
      "outputs": [
        {
          "internalType": "uint256",
          "name": "",
          "type": "uint256"
        }
      ],
      "stateMutability": "view",
      "type": "function"
    },
    {
      "inputs": [],
      "name": "IDX_ADDR_DEFAULT_STATE_PROFIT_HOLDER",
      "outputs": [
        {
          "internalType": "uint256",
          "name": "",
          "type": "uint256"
        }
      ],
      "stateMutability": "view",
      "type": "function"
    },
    {
      "inputs": [],
      "name": "IDX_ADDR_DEFAULT_STATE_TOKEN_A",
      "outputs": [
        {
          "internalType": "uint256",
          "name": "",
          "type": "uint256"
        }
      ],
      "stateMutability": "view",
      "type": "function"
    },
    {
      "inputs": [],
      "name": "IDX_ADDR_DEFAULT_STATE_TOKEN_B",
      "outputs": [
        {
          "internalType": "uint256",
          "name": "",
          "type": "uint256"
        }
      ],
      "stateMutability": "view",
      "type": "function"
    },
    {
      "inputs": [],
      "name": "IDX_BOOL_VALUES_DEFAULT_STATE_DEPOSITOR_SWAP_TOKENS",
      "outputs": [
        {
          "internalType": "uint256",
          "name": "",
          "type": "uint256"
        }
      ],
      "stateMutability": "view",
      "type": "function"
    },
    {
      "inputs": [],
      "name": "IDX_BOOL_VALUES_DEFAULT_STATE_IS_STABLE_POOL",
      "outputs": [
        {
          "internalType": "uint256",
          "name": "",
          "type": "uint256"
        }
      ],
      "stateMutability": "view",
      "type": "function"
    },
    {
      "inputs": [],
      "name": "IDX_NUMS_DEFAULT_STATE_FUSE_STATUS",
      "outputs": [
        {
          "internalType": "uint256",
          "name": "",
          "type": "uint256"
        }
      ],
      "stateMutability": "view",
      "type": "function"
    },
    {
      "inputs": [],
      "name": "IDX_NUMS_DEFAULT_STATE_LAST_REBALANCE_NO_SWAP",
      "outputs": [
        {
          "internalType": "uint256",
          "name": "",
          "type": "uint256"
        }
      ],
      "stateMutability": "view",
      "type": "function"
    },
    {
      "inputs": [],
      "name": "IDX_NUMS_DEFAULT_STATE_RESERVED_0",
      "outputs": [
        {
          "internalType": "uint256",
          "name": "",
          "type": "uint256"
        }
      ],
      "stateMutability": "view",
      "type": "function"
    },
    {
      "inputs": [],
      "name": "IDX_NUMS_DEFAULT_STATE_RESERVED_1",
      "outputs": [
        {
          "internalType": "uint256",
          "name": "",
          "type": "uint256"
        }
      ],
      "stateMutability": "view",
      "type": "function"
    },
    {
      "inputs": [],
      "name": "IDX_NUMS_DEFAULT_STATE_RESERVED_2",
      "outputs": [
        {
          "internalType": "uint256",
          "name": "",
          "type": "uint256"
        }
      ],
      "stateMutability": "view",
      "type": "function"
    },
    {
      "inputs": [],
      "name": "IDX_NUMS_DEFAULT_STATE_RESERVED_3",
      "outputs": [
        {
          "internalType": "uint256",
          "name": "",
          "type": "uint256"
        }
      ],
      "stateMutability": "view",
      "type": "function"
    },
    {
      "inputs": [],
      "name": "IDX_NUMS_DEFAULT_STATE_RESERVED_4",
      "outputs": [
        {
          "internalType": "uint256",
          "name": "",
          "type": "uint256"
        }
      ],
      "stateMutability": "view",
      "type": "function"
    },
    {
      "inputs": [],
      "name": "IDX_NUMS_DEFAULT_STATE_THRESHOLD_0",
      "outputs": [
        {
          "internalType": "uint256",
          "name": "",
          "type": "uint256"
        }
      ],
      "stateMutability": "view",
      "type": "function"
    },
    {
      "inputs": [],
      "name": "IDX_NUMS_DEFAULT_STATE_THRESHOLD_1",
      "outputs": [
        {
          "internalType": "uint256",
          "name": "",
          "type": "uint256"
        }
      ],
      "stateMutability": "view",
      "type": "function"
    },
    {
      "inputs": [],
      "name": "IDX_NUMS_DEFAULT_STATE_THRESHOLD_2",
      "outputs": [
        {
          "internalType": "uint256",
          "name": "",
          "type": "uint256"
        }
      ],
      "stateMutability": "view",
      "type": "function"
    },
    {
      "inputs": [],
      "name": "IDX_NUMS_DEFAULT_STATE_THRESHOLD_3",
      "outputs": [
        {
          "internalType": "uint256",
          "name": "",
          "type": "uint256"
        }
      ],
      "stateMutability": "view",
      "type": "function"
    },
    {
      "inputs": [],
      "name": "IDX_NUMS_DEFAULT_STATE_TOTAL_LIQUIDITY",
      "outputs": [
        {
          "internalType": "uint256",
          "name": "",
          "type": "uint256"
        }
      ],
      "stateMutability": "view",
      "type": "function"
    },
    {
      "inputs": [],
      "name": "IDX_NUMS_DEFAULT_STATE_WITHDRAW_DONE",
      "outputs": [
        {
          "internalType": "uint256",
          "name": "",
          "type": "uint256"
        }
      ],
      "stateMutability": "view",
      "type": "function"
    },
    {
      "inputs": [],
      "name": "IDX_TICK_DEFAULT_STATE_LOWER_TICK",
      "outputs": [
        {
          "internalType": "uint256",
          "name": "",
          "type": "uint256"
        }
      ],
      "stateMutability": "view",
      "type": "function"
    },
    {
      "inputs": [],
      "name": "IDX_TICK_DEFAULT_STATE_REBALANCE_TICK_RANGE",
      "outputs": [
        {
          "internalType": "uint256",
          "name": "",
          "type": "uint256"
        }
      ],
      "stateMutability": "view",
      "type": "function"
    },
    {
      "inputs": [],
      "name": "IDX_TICK_DEFAULT_STATE_TICK_SPACING",
      "outputs": [
        {
          "internalType": "uint256",
          "name": "",
          "type": "uint256"
        }
      ],
      "stateMutability": "view",
      "type": "function"
    },
    {
      "inputs": [],
      "name": "IDX_TICK_DEFAULT_STATE_UPPER_TICK",
      "outputs": [
        {
          "internalType": "uint256",
          "name": "",
          "type": "uint256"
        }
      ],
      "stateMutability": "view",
      "type": "function"
    },
    {
      "inputs": [],
      "name": "INCORRECT_ASSET",
      "outputs": [
        {
          "internalType": "string",
          "name": "",
          "type": "string"
        }
      ],
      "stateMutability": "view",
      "type": "function"
    },
    {
      "inputs": [],
      "name": "INCORRECT_REBALANCE_TICK_RANGE",
      "outputs": [
        {
          "internalType": "string",
          "name": "",
          "type": "string"
        }
      ],
      "stateMutability": "view",
      "type": "function"
    },
    {
      "inputs": [],
      "name": "INCORRECT_TICK_RANGE",
      "outputs": [
        {
          "internalType": "string",
          "name": "",
          "type": "string"
        }
      ],
      "stateMutability": "view",
      "type": "function"
    },
    {
      "inputs": [],
      "name": "UNKNOWN_SWAP_ROUTER",
      "outputs": [
        {
          "internalType": "string",
          "name": "",
          "type": "string"
        }
      ],
      "stateMutability": "view",
      "type": "function"
    },
    {
      "inputs": [
        {
          "internalType": "uint256",
          "name": "poolPriceDecimals",
          "type": "uint256"
        }
      ],
      "name": "getPoolPriceAdjustment",
      "outputs": [
        {
          "internalType": "uint256",
          "name": "adjustment",
          "type": "uint256"
        }
      ],
      "stateMutability": "pure",
      "type": "function"
    }
  ],
  "transactionHash": "0x6168fa2e05dc12b4e9d5884f6b91d6a658b4fdc9f73e9c65b824bb777874765f",
  "args": [],
  "numDeployments": 15,
  "solcInputHash": "a408f1fd06b60723e7f996d4b67ed7ec",
  "bytecode": "0x61486c61003a600b82828239805160001a60731461002d57634e487b7160e01b600052600060045260246000fd5b30600052607381538281f3fe73000000000000000000000000000000000000000030146080604052600436106102475760003560e01c8063767e17e811610145578063c143e087116100c2578063d7a1d53511610086578063d7a1d535146102e8578063e0c24b3a1461042e578063e642319514610436578063ec88f9ff146102a2578063f7ebc365146102a257600080fd5b8063c143e08714610313578063c63891c7146102a2578063c8ce726c146102e0578063cdb549351461041e578063d3a9335c1461042657600080fd5b8063a200f62b11610109578063a200f62b146102e0578063a7231ef6146103da578063aea02d91146103e2578063c00d3e0b146102e8578063c06ab65f146103ea57600080fd5b8063767e17e8146102e0578063831fd9ea146103135780638f875cc814610313578063927154f0146103a75780639c2d8d63146102e857600080fd5b806337d11dc1116101d357806360339c591161019757806360339c59146102e8578063603938b814610313578063673d63db1461031b5780636bffb346146103575780637545be261461037757600080fd5b806337d11dc1146102e857806343fc304a146102f057806346326a29146102f8578063556ce728146103005780635be05524146102e057600080fd5b8063137c52b21161021a578063137c52b2146102a25780631429888b146102aa57806314ad109e146102b2578063217052d1146102a257806335f33bc2146102e057600080fd5b8063058ba3db1461024c5780630593c4c91461026a5780631033193e1461028c5780631200fb3c146102a2575b600080fd5b61025461043e565b6040516102619190613b3f565b60405180910390f35b81801561027657600080fd5b5061028a610285366004613be2565b61045a565b005b610294600981565b604051908152602001610261565b610294600181565b610294600781565b8180156102be57600080fd5b506102d26102cd366004613e23565b6105f6565b604051610261929190613ed7565b610294600281565b610294600081565b610294600c81565b610294600a81565b61029461030e366004613ef0565b610758565b610294600381565b6102546040518060400160405280601981526020017f5042532d3320496e636f7272656374207469636b52616e67650000000000000081525081565b81801561036357600080fd5b5061028a610372366004613f09565b610785565b81801561038357600080fd5b50610397610392366004613fce565b6107e9565b6040519015158152602001610261565b610254604051806040016040528060148152602001732821299698902ab735b737bbb7103937baba32b960611b81525081565b610294600b81565b610294600581565b61025460405180604001604052806015815260200174141094cb4d48125b98dbdc9c9958dd08185cdcd95d605a1b81525081565b610294606481565b610294600481565b610294600681565b610294600881565b6040518060600160405280602281526020016148156022913981565b805115801561046b57506020810151155b8061047b57506020810151815111155b6040518060400160405280601381526020017254532d333020696e76616c69642076616c756560681b815250906104ce5760405162461bcd60e51b81526004016104c59190613b3f565b60405180910390fd5b5060408101511580156104e357506060810151155b806104f657506060810151604082015110155b6040518060400160405280601381526020017254532d333020696e76616c69642076616c756560681b815250906105405760405162461bcd60e51b81526004016104c59190613b3f565b508051158015906105545750604081015115155b156105ab5780516040808301518151808301909252601382527254532d333020696e76616c69642076616c756560681b60208301529091106105a95760405162461bcd60e51b81526004016104c59190613b3f565b505b6105ba60018301826004613a9c565b507fef6880b7ef7308e1a0fdc54890042b9fc1d2355795cd67a12c76d38438e643b5816040516105ea91906140d7565b60405180910390a15050565b600080808061061661060e8b835b60200201516109b6565b8a6002610a7b565b9150915060006040518061016001604052808c60006002811061063b5761063b6140c1565b60200201516001600160a01b031681526020018c600160028110610661576106616140c1565b60200201516001600160a01b031681526020018b81526020018a8152602001848152602001838152602001898152602001888152602001600019886000600281106106ae576106ae6140c1565b6020020151146106bf578751610721565b306001600160a01b0316634ba31b016040518163ffffffff1660e01b8152600401602060405180830381865afa1580156106fd573d6000803e3d6000fd5b505050506040513d601f19601f820116820180604052508101906107219190614108565b8152875160001914602082015260400187600160200201519052905061074681610c69565b94509450505050965096945050505050565b60006012821061076957600161077f565b610774826012614137565b61077f90600a61422e565b92915050565b81548190839060ff191660018360038111156107a3576107a361423a565b02179055507f5a7ee3c5ef7f4e3625ee638c3a95481dc4cbfaceda022d1e8fba8ed7fa2208e18160038111156107db576107db61423a565b6040519081526020016105ea565b600080806108026107fa8e83610604565b8d6002610a7b565b9150915060006040518061016001604052808f600060028110610827576108276140c1565b60200201516001600160a01b031681526020018f60016002811061084d5761084d6140c1565b60200201516001600160a01b031681526020018e81526020018d815260200184815260200183815260200160026001600160401b0381111561089157610891613b52565b6040519080825280602002602001820160405280156108ba578160200160208202803683370190505b508152602081018890528651604090910190600019146108db57865161093d565b306001600160a01b0316634ba31b016040518163ffffffff1660e01b8152600401602060405180830381865afa158015610919573d6000803e3d6000fd5b505050506040513d601f19601f8201168201806040525081019061093d9190614108565b815286516000191460208201526040018660016020020151815250905060006040518060a0016040528089151581526020018d6001600160a01b031681526020018b6001600160a01b031681526020018c81526020018a81525090506109a38282610ddc565b9f9e505050505050505050505050505050565b6000816001600160a01b031663f77c47916040518163ffffffff1660e01b8152600401602060405180830381865afa1580156109f6573d6000803e3d6000fd5b505050506040513d601f19601f82011682018060405250810190610a1a9190614250565b6001600160a01b0316632630c12f6040518163ffffffff1660e01b8152600401602060405180830381865afa158015610a57573d6000803e3d6000fd5b505050506040513d601f19601f8201168201806040525081019061077f9190614250565b606080826001600160401b03811115610a9657610a96613b52565b604051908082528060200260200182016040528015610abf578160200160208202803683370190505b509150826001600160401b03811115610ada57610ada613b52565b604051908082528060200260200182016040528015610b03578160200160208202803683370190505b50905060005b83811015610c6057848181518110610b2357610b236140c1565b60200260200101516001600160a01b031663313ce5676040518163ffffffff1660e01b8152600401602060405180830381865afa158015610b68573d6000803e3d6000fd5b505050506040513d601f19601f82011682018060405250810190610b8c919061426d565b610b9790600a614290565b828281518110610ba957610ba96140c1565b602002602001018181525050856001600160a01b031663b3596f07868381518110610bd657610bd66140c1565b60200260200101516040518263ffffffff1660e01b8152600401610bfa919061429f565b602060405180830381865afa158015610c17573d6000803e3d6000fd5b505050506040513d601f19601f82011682018060405250810190610c3b9190614108565b838281518110610c4d57610c4d6140c1565b6020908102919091010152600101610b09565b50935093915050565b6000806000730118015B5D5F7f104292DB79Ae47AA0e962A09be632be98102604051806040016040528087600001516001600160a01b03166001600160a01b0316815260200187602001516001600160a01b03166001600160a01b03168152508660400151876060015188608001518960a001518a60c001516040518060e001604052808d6101200151610cfe576000610d01565b60015b60ff1681526020018d60e0015181526020018d61010001518152602001600019815260200160008152602001600181526020018d61014001518152506040518863ffffffff1660e01b8152600401610d5f979695949392919061434a565b606060405180830381865af4158015610d7c573d6000803e3d6000fd5b505050506040513d601f19601f82011682018060405250810190610da091906143fc565b50925090508015610dd6576040840151610dbb600183614137565b81518110610dcb57610dcb6140c1565b602002602001015192505b50915091565b600080600080730118015B5D5F7f104292DB79Ae47AA0e962A09be632be98102604051806040016040528089600001516001600160a01b03166001600160a01b0316815260200189602001516001600160a01b03166001600160a01b0316815250886040015189606001518a608001518b60a001518c60c001516040518060e001604052808f6101200151610e72576000610e75565b60015b60ff1681526020018f60e0015181526020018f61010001518152602001600019815260200160008152602001600181526020018f61014001518152506040518863ffffffff1660e01b8152600401610ed3979695949392919061434a565b606060405180830381865af4158015610ef0573d6000803e3d6000fd5b505050506040513d601f19601f82011682018060405250810190610f1491906143fc565b9250925092506000604051806080016040528060028960e001511480610f3c575060e0890151155b15151515815260200160018960e001511480610f5a575060e0890151155b1515815260e0890180516001908114602084015290511460409091015290508315801590610f86575080515b15610fc557610fbd8787610f9b600188614137565b6000610fa860018a614137565b14610fb4576000610fb7565b60015b8761124f565b610100890152505b8115801590610fd5575060208101515b156110e357865160408801516110df91906000610ff3600187614137565b14610fff576000611002565b60015b81518110611012576110126140c1565b6020026020010151896040015160018661102c9190614137565b8151811061103c5761103c6140c1565b60200260200101518a604001516001876110569190614137565b81518110611066576110666140c1565b60200260200101516001600160a01b03166370a08231306040518263ffffffff1660e01b8152600401611099919061429f565b602060405180830381865afa1580156110b6573d6000803e3d6000fd5b505050506040513d601f19601f820116820180604052508101906110da9190614108565b6118af565b5050505b8315611244576040810151156111fd576111038787610f9b600188614137565b610100890152506060810151801561111a57508115155b156111f8576000806111518982611132600188614137565b1461113e576000611141565b60015b61114c600188614137565b611a73565b9150915080156111925761118d8961116a600187614137565b6000611177600189614137565b14611183576000611186565b60015b6001612008565b6111f5565b60608901516111a2600186614137565b815181106111b2576111b26140c1565b60200260200101518211156111f5576111f58960006111d2600188614137565b146111de5760006111e1565b60015b6111ec600188614137565b8560001961212e565b50505b611244565b8115801561120d57508661012001515b801561121d575061010087015115155b80156112365750866101000151670de0b6b3a764000014155b156112445761124487612408565b501595945050505050565b600080856000015161126357856060015192505b855160009061127657866040015161127c565b87602001515b905087604001518681518110611294576112946140c1565b60200260200101516001600160a01b03166370a08231306040518263ffffffff1660e01b81526004016112c7919061429f565b602060405180830381865afa1580156112e4573d6000803e3d6000fd5b505050506040513d601f19601f820116820180604052508101906113089190614108565b8411156040518060400160405280601781526020017654532d37206e6f7420656e6f7567682062616c616e636560481b815250906113595760405162461bcd60e51b81526004016104c59190613b3f565b5087604001518681518110611370576113706140c1565b60200260200101516001600160a01b031687602001516001600160a01b0316146040518060400160405280601181526020017054532d323520737761702062792061676760781b815250906113d85760405162461bcd60e51b81526004016104c59190613b3f565b50876060015186815181106113ef576113ef6140c1565b60200260200101518411156118275761142688604001518781518110611417576114176140c1565b602002602001015185836125eb565b600061144e89604001518781518110611441576114416140c1565b602002602001015161265c565b8851909150156114de576114668589606001516126cc565b94506114d68960000151838b604001518a81518110611487576114876140c1565b60200260200101518c604001518a815181106114a5576114a56140c1565b60200260200101518961012c8f606001518e815181106114c7576114c76140c1565b602002602001015160016126e4565b509350611591565b88602001516001600160a01b0316826001600160a01b03161461150457611504826127ef565b600080836001600160a01b03168a60800151604051611523919061442a565b6000604051808303816000865af19150503d8060008114611560576040519150601f19603f3d011682016040523d82523d6000602084013e611565565b606091505b509150915081819061158a5760405162461bcd60e51b81526004016104c59190613b3f565b5086955050505b88600001516001600160a01b031663291f89c48a6040015189815181106115ba576115ba6140c1565b6020026020010151878c604001518a815181106115d9576115d96140c1565b6020026020010151856115fb8f604001518d81518110611441576114416140c1565b6116059190614137565b61012c6040518663ffffffff1660e01b8152600401611628959493929190614446565b602060405180830381865afa158015611645573d6000803e3d6000fd5b505050506040513d601f19601f82011682018060405250810190611669919061447a565b604051806040016040528060128152602001711514cb4c4d881c1c9a58d9481a5b5c1858dd60721b815250906116b25760405162461bcd60e51b81526004016104c59190613b3f565b507f650da787b25801954b4e03c78b9c6b07fddcbda246347411c49d282c7225f592886060015186836116f48d604001518b81518110611441576114416140c1565b6116fe9190614137565b8c60a001518b81518110611714576117146140c1565b60200260200101518d608001518b81518110611732576117326140c1565b60200260200101518e60a001518c81518110611750576117506140c1565b60200260200101518f608001518e8151811061176e5761176e6140c1565b60200260200101518c6117819190614497565b61178b9190614497565b61179591906144c4565b61179f91906144c4565b868e604001518d815181106117b6576117b66140c1565b60200260200101518f604001518d815181106117d4576117d46140c1565b602090810291909101810151604080519889529188019690965286019390935260608501919091526001600160a01b03908116608085015290811660a08401521660c082015260e00160405180910390a1505b8288610120015161183d5788610100015161189f565b306001600160a01b0316634ba31b016040518163ffffffff1660e01b8152600401602060405180830381865afa15801561187b573d6000803e3d6000fd5b505050506040513d601f19601f8201168201806040525081019061189f9190614108565b92509250505b9550959350505050565b600080600080856001600160a01b03166370a08231306040518263ffffffff1660e01b81526004016118e1919061429f565b602060405180830381865afa1580156118fe573d6000803e3d6000fd5b505050506040513d601f19601f820116820180604052508101906119229190614108565b90506000886001600160a01b031663dd27ede7308a8a60016040518563ffffffff1660e01b815260040161195994939291906144d8565b60408051808303816000875af1158015611977573d6000803e3d6000fd5b505050506040513d601f19601f8201168201806040525081019061199b9190614502565b5090506119b68187106119ae57816119b0565b865b836126cc565b60405163667df24960e01b81523060048201526001600160a01b038a811660248301528981166044830152606482018390529194506000918b169063667df2499060840160408051808303816000875af1158015611a18573d6000803e3d6000fd5b505050506040513d601f19601f82011682018060405250810190611a3c9190614502565b909650905080861115611a5657611a538187614137565b95505b611a638a8a8a87876128ac565b9550505050509450945094915050565b600080611aaf6040518060c001604052806000815260200160008152602001600081526020016000815260200160008152602001600081525090565b8560a001518581518110611ac557611ac56140c1565b602002602001015186608001518681518110611ae357611ae36140c1565b602002602001015187604001518781518110611b0157611b016140c1565b60200260200101516001600160a01b03166370a08231306040518263ffffffff1660e01b8152600401611b34919061429f565b602060405180830381865afa158015611b51573d6000803e3d6000fd5b505050506040513d601f19601f82011682018060405250810190611b759190614108565b611b7f9190614497565b611b8991906144c4565b604082015260a0860151805185908110611ba557611ba56140c1565b602002602001015186608001518581518110611bc357611bc36140c1565b602002602001015187604001518681518110611be157611be16140c1565b60200260200101516001600160a01b03166370a08231306040518263ffffffff1660e01b8152600401611c14919061429f565b602060405180830381865afa158015611c31573d6000803e3d6000fd5b505050506040513d601f19601f82011682018060405250810190611c559190614108565b611c5f9190614497565b611c6991906144c4565b60608201528415611c7f57856101000151611c97565b610100860151611c9790670de0b6b3a7640000614137565b81528415611cbc57610100860151611cb790670de0b6b3a7640000614137565b611cc3565b8561010001515b602082015260a0860151805186908110611cdf57611cdf6140c1565b602002602001015186608001518581518110611cfd57611cfd6140c1565b60200260200101518760a001518681518110611d1b57611d1b6140c1565b602002602001015188608001518881518110611d3957611d396140c1565b6020026020010151611d4b9190614497565b611d5d90670de0b6b3a7640000614497565b611d6791906144c4565b611d7191906144c4565b81608001818152505060008087600001516001600160a01b031663e4c2be70308a604001518a81518110611da757611da76140c1565b60200260200101518b604001518a81518110611dc557611dc56140c1565b602002602001015160016040518563ffffffff1660e01b8152600401611dee94939291906144d8565b6040805180830381865afa158015611e0a573d6000803e3d6000fd5b505050506040513d601f19601f82011682018060405250810190611e2e9190614502565b9150915081600003611f0e5760208301518351600091611e4d91614526565b845160608601516040870151611e639190614526565b611e6d9190614497565b611e7791906144c4565b9050836040015181118015611f0657508860a001518881518110611e9d57611e9d6140c1565b602002602001015189608001518981518110611ebb57611ebb6140c1565b60200260200101518a606001518a81518110611ed957611ed96140c1565b6020026020010151611eeb9190614497565b611ef591906144c4565b6040850151611f049083614137565b115b945050611faa565b8260000151670de0b6b3a7640000838386608001518760200151611f329190614497565b611f3c9190614497565b611f4691906144c4565b611f5091906144c4565b611f5a9190614539565b83604001518460200151611f6e9190614497565b60608501518551611f7f9190614497565b611f899190614561565b611f939190614588565b60a0840181905260001215611faa578260a0015194505b87608001518681518110611fc057611fc06140c1565b60200260200101518860a001518781518110611fde57611fde6140c1565b602002602001015186611ff19190614497565b611ffb91906144c4565b9450505050935093915050565b61212884848487604001518781518110612024576120246140c1565b60200260200101516001600160a01b03166370a08231306040518263ffffffff1660e01b8152600401612057919061429f565b602060405180830381865afa158015612074573d6000803e3d6000fd5b505050506040513d601f19601f820116820180604052508101906120989190614108565b886040015187815181106120ae576120ae6140c1565b60200260200101516001600160a01b03166370a08231306040518263ffffffff1660e01b81526004016120e1919061429f565b602060405180830381865afa1580156120fe573d6000803e3d6000fd5b505050506040513d601f19601f820116820180604052508101906121229190614108565b86612a95565b50505050565b600085604001518481518110612146576121466140c1565b60200260200101516001600160a01b03166370a08231306040518263ffffffff1660e01b8152600401612179919061429f565b602060405180830381865afa158015612196573d6000803e3d6000fd5b505050506040513d601f19601f820116820180604052508101906121ba9190614108565b90506122068660000151876040015187815181106121da576121da6140c1565b6020026020010151886040015187815181106121f8576121f86140c1565b6020026020010151866118af565b505050600086604001518581518110612221576122216140c1565b60200260200101516001600160a01b03166370a08231306040518263ffffffff1660e01b8152600401612254919061429f565b602060405180830381865afa158015612271573d6000803e3d6000fd5b505050506040513d601f19601f820116820180604052508101906122959190614108565b905060008183116122a75760006122b1565b6122b18284614137565b905084811080156122e95750876060015186815181106122d3576122d36140c1565b602002602001015181866122e79190614137565b115b156123fe57600088600001516001600160a01b031663e4c2be70308b604001518b8151811061231a5761231a6140c1565b60200260200101518c604001518b81518110612338576123386140c1565b602002602001015160016040518563ffffffff1660e01b815260040161236194939291906144d8565b6040805180830381865afa15801561237d573d6000803e3d6000fd5b505050506040513d601f19601f820116820180604052508101906123a19190614502565b509050886060015187815181106123ba576123ba6140c1565b6020026020010151811180156123cf57508481105b156123ef576123ea8989896123e4868b614137565b8561212e565b6123fc565b6123fc89888a6000612008565b505b5050505050505050565b60008160400151600081518110612421576124216140c1565b60200260200101516001600160a01b03166370a08231306040518263ffffffff1660e01b8152600401612454919061429f565b602060405180830381865afa158015612471573d6000803e3d6000fd5b505050506040513d601f19601f820116820180604052508101906124959190614108565b9050600082604001516001815181106124b0576124b06140c1565b60200260200101516001600160a01b03166370a08231306040518263ffffffff1660e01b81526004016124e3919061429f565b602060405180830381865afa158015612500573d6000803e3d6000fd5b505050506040513d601f19601f820116820180604052508101906125249190614108565b905060008061254785608001518660a00151868689610100015160006001612db8565b915091508184111561259a57846060015160008151811061256a5761256a6140c1565b6020026020010151828561257e9190614137565b111561259557612595856000600187876001612a95565b6125e4565b808311156125e45784606001516000815181106125b9576125b96140c1565b602002602001015181846125cd9190614137565b11156125e4576125e4856001600086886001612a95565b5050505050565b60405163095ea7b360e01b81526001600160a01b0384169063095ea7b3906126199084908690600401613ed7565b6020604051808303816000875af1158015612638573d6000803e3d6000fd5b505050506040513d601f19601f82011682018060405250810190612128919061447a565b6040516370a0823160e01b81526000906001600160a01b038316906370a082319061268b90309060040161429f565b602060405180830381865afa1580156126a8573d6000803e3d6000fd5b505050506040513d601f19601f8201168201806040525081019061077f9190614108565b60008183106126db57816126dd565b825b9392505050565b6000808386116126f9575060009050806127e2565b604051633744088160e11b81526001600160a01b0389811660048301528881166024830152600091908b1690636e88110290604401600060405180830381865afa15801561274b573d6000803e3d6000fd5b505050506040513d6000823e601f3d908101601f1916820160405261277391908101906145fb565b50805160408051808201909152601a81527f54532d3135204e6f206c69717569646174696f6e20726f75746500000000000060208201529192506127ca5760405162461bcd60e51b81526004016104c59190613b3f565b50866127dc8c838d8d8d8d8d8c612f47565b92509250505b9850989650505050505050565b6001600160a01b038116731111111254eeb25477b68fb85ed929f73a960582148061283657506001600160a01b038116736352a56caadc4f1e25cd6c75970fa768a3304e64145b8061285d57506001600160a01b038116736dd434082eab5cd134b33719ec1ff05fe985b97b145b604051806040016040528060148152602001732821299698902ab735b737bbb7103937baba32b960611b815250906128a85760405162461bcd60e51b81526004016104c59190613b3f565b5050565b600080606484106118a5576128cb6001600160a01b0386168886613225565b6040516314b685e960e21b81526001600160a01b038781166004830152868116602483015260448201869052306064830152600091908916906352da17a4906084016080604051808303816000875af115801561292c573d6000803e3d6000fd5b505050506040513d601f19601f820116820180604052508101906129509190614714565b5050604080516001600160a01b03808c1682528a1660208201529081018890523060608201526080810183905260a0810182905291945091507f1d1ba11e7ca20f5dc77d8cfd75b68d11520677808f89f6ba0f0e50dc52c450129060c00160405180910390a16040516370a0823160e01b81526000906001600160a01b038816906370a08231906129e590309060040161429f565b602060405180830381865afa158015612a02573d6000803e3d6000fd5b505050506040513d601f19601f82011682018060405250810190612a269190614108565b9050808511612a36576000612a40565b612a408186614137565b60408051808201909152600f81526e53423a2057726f6e672076616c756560881b60208201529093508215612a885760405162461bcd60e51b81526004016104c59190613b3f565b5050509550959350505050565b8015612bac57600086600001516001600160a01b031663e4c2be703089604001518881518110612ac757612ac76140c1565b60200260200101518a604001518a81518110612ae557612ae56140c1565b602002602001015160006040518563ffffffff1660e01b8152600401612b0e94939291906144d8565b6040805180830381865afa158015612b2a573d6000803e3d6000fd5b505050506040513d601f19601f82011682018060405250810190612b4e9190614502565b509050606481106040518060400160405280601a81526020017f54532d3239206f70706f7369746520646562742065786973747300000000000081525090612ba95760405162461bcd60e51b81526004016104c59190613b3f565b50505b600060405180610160016040528060405180604001604052808a600001516001600160a01b031681526020018a602001516001600160a01b0316815250815260200188604001518881518110612c0457612c046140c1565b60200260200101516001600160a01b0316815260200188604001518781518110612c3057612c306140c1565b60200260200101516001600160a01b0316815260200160008814612c5957886101000151612c71565b610100890151612c7190670de0b6b3a7640000614137565b81526020018715612c9957610100890151612c9490670de0b6b3a7640000614137565b612ca0565b8861010001515b81526020018860a001518781518110612cbb57612cbb6140c1565b602002602001015189608001518981518110612cd957612cd96140c1565b60200260200101518a60a001518a81518110612cf757612cf76140c1565b60200260200101518b608001518a81518110612d1557612d156140c1565b6020026020010151670de0b6b3a7640000612d309190614497565b612d3a9190614497565b612d4491906144c4565b612d4e91906144c4565b815260200188606001518881518110612d6957612d696140c1565b6020026020010151815260200160008152602001600081526020018781526020018681525090506123fc8160405180604001604052808a6080015181526020018a60a001518152508686613280565b6000806000888581518110612dcf57612dcf6140c1565b60200260200101518a8681518110612de957612de96140c1565b602002602001015189612dfc9190614497565b612e0691906144c4565b90506000898581518110612e1c57612e1c6140c1565b60200260200101518b8681518110612e3657612e366140c1565b602002602001015189612e499190614497565b612e5391906144c4565b90508615612e8857670de0b6b3a764000087612e6f8385614526565b612e799190614497565b612e8391906144c4565b612e8b565b60005b92508a8681518110612e9f57612e9f6140c1565b60200260200101518a8781518110612eb957612eb96140c1565b6020026020010151848385612ece9190614526565b612ed89190614137565b612ee29190614497565b612eec91906144c4565b93508a8581518110612f0057612f006140c1565b60200260200101518a8681518110612f1a57612f1a6140c1565b602002602001015184612f2d9190614497565b612f3791906144c4565b9250505097509795505050505050565b6000612f548685896133ed565b6040516370a0823160e01b81526000906001600160a01b038716906370a0823190612f8390309060040161429f565b602060405180830381865afa158015612fa0573d6000803e3d6000fd5b505050506040513d601f19601f82011682018060405250810190612fc49190614108565b6040516310fe133960e31b81529091506001600160a01b038916906387f099c890612ff7908c908990899060040161474a565b600060405180830381600087803b15801561301157600080fd5b505af1158015613025573d6000803e3d6000fd5b50506040516370a0823160e01b8152600092506001600160a01b03891691506370a082319061305890309060040161429f565b602060405180830381865afa158015613075573d6000803e3d6000fd5b505050506040513d601f19601f820116820180604052508101906130999190614108565b90508181116040518060400160405280601681526020017554532d32302062616c616e636520646563726561736560501b815250906130eb5760405162461bcd60e51b81526004016104c59190613b3f565b506130f68282614137565b925083806131745750604051630a47e27160e21b81526001600160a01b038c169063291f89c490613133908b908a908c9089908c90600401614446565b602060405180830381865afa158015613150573d6000803e3d6000fd5b505050506040513d601f19601f82011682018060405250810190613174919061447a565b604051806040016040528060128152602001711514cb4c4d881c1c9a58d9481a5b5c1858dd60721b815250906131bd5760405162461bcd60e51b81526004016104c59190613b3f565b50604080516001600160a01b03808b1682528916602082015290810187905260608101879052608081018490527f5a821a618ddb1a1fd304234a69c9d7f20c129d122fcf35593d13a071926643079060a00160405180910390a1505098975050505050505050565b61327b8363a9059cbb60e01b8484604051602401613244929190613ed7565b60408051601f198184030181529190526020810180516001600160e01b03166001600160e01b031990931692909217909152613498565b505050565b6000808560e00151600014806132995750610100860151155b6040518060400160405280601381526020017254532d333020696e76616c69642076616c756560681b815250906132e35760405162461bcd60e51b81526004016104c59190613b3f565b506101008601511561335e57856101000151831061331f576133168685886101000151866133119190614137565b61356a565b915091506133e4565b600061333d878787878b61010001516133389190614137565b613703565b5090506133548761334e8388614137565b8661356a565b92509250506133e4565b60e0860151156133d9578560e001518410156040518060400160405280601781526020017654532d37206e6f7420656e6f7567682062616c616e636560481b815250906133be5760405162461bcd60e51b81526004016104c59190613b3f565b50613316868760e00151866133d39190614137565b8561356a565b61331686858561356a565b94509492505050565b604051636eb1769f60e11b81523060048201526001600160a01b03828116602483015283919085169063dd62ed3e90604401602060405180830381865afa15801561343c573d6000803e3d6000fd5b505050506040513d601f19601f820116820180604052508101906134609190614108565b101561327b5760405163095ea7b360e01b81526001600160a01b0384169063095ea7b390612619908490600160ff1b90600401613ed7565b60006134ed826040518060400160405280602081526020017f5361666545524332303a206c6f772d6c6576656c2063616c6c206661696c6564815250856001600160a01b031661390c9092919063ffffffff16565b80519091501561327b578080602001905181019061350b919061447a565b61327b5760405162461bcd60e51b815260206004820152602a60248201527f5361666545524332303a204552433230206f7065726174696f6e20646964206e6044820152691bdd081cdd58d8d9595960b21b60648201526084016104c5565b60608381015160808086015160408051600160208201528082019490945283850191909152805180840390940184529101905260009081908190841561363a57670de0b6b3a7640000876080015188606001518960a00151886135cd9190614497565b6135d79190614497565b6135e191906144c4565b6135eb91906144c4565b9150858211156040518060400160405280601081526020016f54532d392077726f6e672076616c756560801b815250906136385760405162461bcd60e51b81526004016104c59190613b3f565b505b60208701516136559061364d8489614137565b8951516133ed565b730Be4e6b976CFA3F158Fb42F45A4C654F1B4D1Ab163ca27d10d886000015160000151838a602001518b60400151878c61368f9190614137565b8d60c001516040518763ffffffff1660e01b81526004016136b5969594939291906147cc565b6040805180830381865af41580156136d1573d6000803e3d6000fd5b505050506040513d601f19601f820116820180604052508101906136f59190614502565b935093505050935093915050565b6000806000856020015187610140015181518110613723576137236140c1565b6020026020010151866000015188610120015181518110613746576137466140c1565b6020026020010151876020015189610120015181518110613769576137696140c1565b602002602001015188600001518a61014001518151811061378c5761378c6140c1565b60200260200101518761379f9190614497565b6137a99190614497565b6137b391906144c4565b6137bd91906144c4565b9050620186a06137cf61012c82614526565b6137d99083614497565b6137e391906144c4565b90508085116040518060400160405280601781526020017654532d37206e6f7420656e6f7567682062616c616e636560481b815250906138365760405162461bcd60e51b81526004016104c59190613b3f565b5086518051602091820151918901516040808b015160c08c01519151637de8f56960e01b81526001600160a01b03948516600482015294841660248601529183166044850152911660648301526084820183905261012c60a483015260c4820152600060e4820152730Be4e6b976CFA3F158Fb42F45A4C654F1B4D1Ab190637de8f56990610104016040805180830381865af41580156138da573d6000803e3d6000fd5b505050506040513d601f19601f820116820180604052508101906138fe9190614502565b909890975095505050505050565b606061391b8484600085613923565b949350505050565b6060824710156139845760405162461bcd60e51b815260206004820152602660248201527f416464726573733a20696e73756666696369656e742062616c616e636520666f6044820152651c8818d85b1b60d21b60648201526084016104c5565b600080866001600160a01b031685876040516139a0919061442a565b60006040518083038185875af1925050503d80600081146139dd576040519150601f19603f3d011682016040523d82523d6000602084013e6139e2565b606091505b50915091506139f3878383876139fe565b979650505050505050565b60608315613a6d578251600003613a66576001600160a01b0385163b613a665760405162461bcd60e51b815260206004820152601d60248201527f416464726573733a2063616c6c20746f206e6f6e2d636f6e747261637400000060448201526064016104c5565b508161391b565b61391b8383815115613a825781518083602001fd5b8060405162461bcd60e51b81526004016104c59190613b3f565b8260048101928215613aca579160200282015b82811115613aca578251825591602001919060010190613aaf565b50613ad6929150613ada565b5090565b5b80821115613ad65760008155600101613adb565b60005b83811015613b0a578181015183820152602001613af2565b50506000910152565b60008151808452613b2b816020860160208601613aef565b601f01601f19169290920160200192915050565b6020815260006126dd6020830184613b13565b634e487b7160e01b600052604160045260246000fd5b604051608081016001600160401b0381118282101715613b8a57613b8a613b52565b60405290565b604080519081016001600160401b0381118282101715613b8a57613b8a613b52565b604051601f8201601f191681016001600160401b0381118282101715613bda57613bda613b52565b604052919050565b60008060a08385031215613bf557600080fd5b82359150602084603f850112613c0a57600080fd5b604051608081018181106001600160401b0382111715613c2c57613c2c613b52565b6040528060a0860187811115613c4157600080fd5b8387015b81811015613c5c5780358352918401918401613c45565b50505080925050509250929050565b6001600160a01b0381168114613c8057600080fd5b50565b8035613c8e81613c6b565b919050565b600082601f830112613ca457600080fd5b613cac613b90565b806040840185811115613cbe57600080fd5b845b81811015613ce1578035613cd381613c6b565b845260209384019301613cc0565b509095945050505050565b60006001600160401b03821115613d0557613d05613b52565b5060051b60200190565b600082601f830112613d2057600080fd5b81356020613d35613d3083613cec565b613bb2565b82815260059290921b84018101918181019086841115613d5457600080fd5b8286015b84811015613d78578035613d6b81613c6b565b8352918301918301613d58565b509695505050505050565b600082601f830112613d9457600080fd5b81356020613da4613d3083613cec565b82815260059290921b84018101918181019086841115613dc357600080fd5b8286015b84811015613d785780358352918301918301613dc7565b600082601f830112613def57600080fd5b613df7613b90565b806040840185811115613e0957600080fd5b845b81811015613ce1578035845260209384019301613e0b565b6000806000806000806101008789031215613e3d57600080fd5b613e478888613c93565b955060408701356001600160401b0380821115613e6357600080fd5b613e6f8a838b01613d0f565b96506060890135915080821115613e8557600080fd5b613e918a838b01613d83565b95506080890135915080821115613ea757600080fd5b50613eb489828a01613d83565b93505060a08701359150613ecb8860c08901613dde565b90509295509295509295565b6001600160a01b03929092168252602082015260400190565b600060208284031215613f0257600080fd5b5035919050565b60008060408385031215613f1c57600080fd5b82359150602083013560048110613f3257600080fd5b809150509250929050565b60006001600160401b03821115613f5657613f56613b52565b50601f01601f191660200190565b600082601f830112613f7557600080fd5b8135613f83613d3082613f3d565b818152846020838601011115613f9857600080fd5b816020850160208301376000918101602001919091529392505050565b8015158114613c8057600080fd5b8035613c8e81613fb5565b6000806000806000806000806000806101808b8d031215613fee57600080fd5b613ff88c8c613c93565b995060408b01356001600160401b038082111561401457600080fd5b6140208e838f01613d0f565b9a5060608d013591508082111561403657600080fd5b6140428e838f01613d83565b995061405060808e01613c83565b985060a08d0135975061406560c08e01613c83565b965060e08d013591508082111561407b57600080fd5b506140888d828e01613f64565b9450506140986101008c01613fc3565b92506101208b013591506140b08c6101408d01613dde565b90509295989b9194979a5092959850565b634e487b7160e01b600052603260045260246000fd5b60808101818360005b60048110156140ff5781518352602092830192909101906001016140e0565b50505092915050565b60006020828403121561411a57600080fd5b5051919050565b634e487b7160e01b600052601160045260246000fd5b8181038181111561077f5761077f614121565b600181815b8085111561418557816000190482111561416b5761416b614121565b8085161561417857918102915b93841c939080029061414f565b509250929050565b60008261419c5750600161077f565b816141a95750600061077f565b81600181146141bf57600281146141c9576141e5565b600191505061077f565b60ff8411156141da576141da614121565b50506001821b61077f565b5060208310610133831016604e8410600b8410161715614208575081810a61077f565b614212838361414a565b806000190482111561422657614226614121565b029392505050565b60006126dd838361418d565b634e487b7160e01b600052602160045260246000fd5b60006020828403121561426257600080fd5b81516126dd81613c6b565b60006020828403121561427f57600080fd5b815160ff811681146126dd57600080fd5b60006126dd60ff84168361418d565b6001600160a01b0391909116815260200190565b600081518084526020808501945080840160005b838110156142ec5781516001600160a01b0316875295820195908201906001016142c7565b509495945050505050565b600081518084526020808501945080840160005b838110156142ec5781518752958201959082019060010161430b565b8060005b600781101561212857815184526020938401939091019060010161432b565b60006101c0828a835b600281101561437b5781516001600160a01b0316835260209283019290910190600101614353565b5050508060408401526143908184018a6142b3565b905082810360608401526143a481896142f7565b905082810360808401526143b881886142f7565b905082810360a08401526143cc81876142f7565b905082810360c08401526143e081866142f7565b9150506143f060e0830184614327565b98975050505050505050565b60008060006060848603121561441157600080fd5b8351925060208401519150604084015190509250925092565b6000825161443c818460208701613aef565b9190910192915050565b6001600160a01b03958616815260208101949094529190931660408301526060820192909252608081019190915260a00190565b60006020828403121561448c57600080fd5b81516126dd81613fb5565b808202811582820484141761077f5761077f614121565b634e487b7160e01b600052601260045260246000fd5b6000826144d3576144d36144ae565b500490565b6001600160a01b039485168152928416602084015292166040820152901515606082015260800190565b6000806040838503121561451557600080fd5b505080516020909101519092909150565b8082018082111561077f5761077f614121565b808201828112600083128015821682158216171561455957614559614121565b505092915050565b818103600083128015838313168383128216171561458157614581614121565b5092915050565b600082614597576145976144ae565b600160ff1b8214600019841416156145b1576145b1614121565b500590565b600082601f8301126145c757600080fd5b81516145d5613d3082613f3d565b8181528460208386010111156145ea57600080fd5b61391b826020830160208701613aef565b600080604080848603121561460f57600080fd5b83516001600160401b038082111561462657600080fd5b818601915086601f83011261463a57600080fd5b8151602061464a613d3083613cec565b82815260079290921b8401810191818101908a84111561466957600080fd5b948201945b838610156146e3576080868c0312156146875760008081fd5b61468f613b68565b865161469a81613c6b565b8152868401516146a981613c6b565b81850152868801516146ba81613c6b565b818901526060878101516146cd81613c6b565b908201528252608095909501949082019061466e565b918901519197509094505050808311156146fc57600080fd5b505061470a858286016145b6565b9150509250929050565b6000806000806080858703121561472a57600080fd5b505082516020840151604085015160609095015191969095509092509050565b6060808252845182820181905260009190608090818501906020808a01865b838110156147b157815180516001600160a01b039081168752848201518116858801526040808301518216908801529088015116878601529385019390820190600101614769565b50508601979097526040909401949094525090949350505050565b600060018060a01b03808916835260c060208401526147ee60c0840189613b13565b9681166040840152949094166060820152608081019290925260a090910152509291505056fe5042532d3420496e636f727265637420726562616c616e63655469636b52616e6765a2646970667358221220c8a99e8b5addb5b446bc3b4ddddfcec75611a6c57eb3f5a39866806e9265f0cd64736f6c63430008110033",
  "deployedBytecode": "0x73000000000000000000000000000000000000000030146080604052600436106102475760003560e01c8063767e17e811610145578063c143e087116100c2578063d7a1d53511610086578063d7a1d535146102e8578063e0c24b3a1461042e578063e642319514610436578063ec88f9ff146102a2578063f7ebc365146102a257600080fd5b8063c143e08714610313578063c63891c7146102a2578063c8ce726c146102e0578063cdb549351461041e578063d3a9335c1461042657600080fd5b8063a200f62b11610109578063a200f62b146102e0578063a7231ef6146103da578063aea02d91146103e2578063c00d3e0b146102e8578063c06ab65f146103ea57600080fd5b8063767e17e8146102e0578063831fd9ea146103135780638f875cc814610313578063927154f0146103a75780639c2d8d63146102e857600080fd5b806337d11dc1116101d357806360339c591161019757806360339c59146102e8578063603938b814610313578063673d63db1461031b5780636bffb346146103575780637545be261461037757600080fd5b806337d11dc1146102e857806343fc304a146102f057806346326a29146102f8578063556ce728146103005780635be05524146102e057600080fd5b8063137c52b21161021a578063137c52b2146102a25780631429888b146102aa57806314ad109e146102b2578063217052d1146102a257806335f33bc2146102e057600080fd5b8063058ba3db1461024c5780630593c4c91461026a5780631033193e1461028c5780631200fb3c146102a2575b600080fd5b61025461043e565b6040516102619190613b3f565b60405180910390f35b81801561027657600080fd5b5061028a610285366004613be2565b61045a565b005b610294600981565b604051908152602001610261565b610294600181565b610294600781565b8180156102be57600080fd5b506102d26102cd366004613e23565b6105f6565b604051610261929190613ed7565b610294600281565b610294600081565b610294600c81565b610294600a81565b61029461030e366004613ef0565b610758565b610294600381565b6102546040518060400160405280601981526020017f5042532d3320496e636f7272656374207469636b52616e67650000000000000081525081565b81801561036357600080fd5b5061028a610372366004613f09565b610785565b81801561038357600080fd5b50610397610392366004613fce565b6107e9565b6040519015158152602001610261565b610254604051806040016040528060148152602001732821299698902ab735b737bbb7103937baba32b960611b81525081565b610294600b81565b610294600581565b61025460405180604001604052806015815260200174141094cb4d48125b98dbdc9c9958dd08185cdcd95d605a1b81525081565b610294606481565b610294600481565b610294600681565b610294600881565b6040518060600160405280602281526020016148156022913981565b805115801561046b57506020810151155b8061047b57506020810151815111155b6040518060400160405280601381526020017254532d333020696e76616c69642076616c756560681b815250906104ce5760405162461bcd60e51b81526004016104c59190613b3f565b60405180910390fd5b5060408101511580156104e357506060810151155b806104f657506060810151604082015110155b6040518060400160405280601381526020017254532d333020696e76616c69642076616c756560681b815250906105405760405162461bcd60e51b81526004016104c59190613b3f565b508051158015906105545750604081015115155b156105ab5780516040808301518151808301909252601382527254532d333020696e76616c69642076616c756560681b60208301529091106105a95760405162461bcd60e51b81526004016104c59190613b3f565b505b6105ba60018301826004613a9c565b507fef6880b7ef7308e1a0fdc54890042b9fc1d2355795cd67a12c76d38438e643b5816040516105ea91906140d7565b60405180910390a15050565b600080808061061661060e8b835b60200201516109b6565b8a6002610a7b565b9150915060006040518061016001604052808c60006002811061063b5761063b6140c1565b60200201516001600160a01b031681526020018c600160028110610661576106616140c1565b60200201516001600160a01b031681526020018b81526020018a8152602001848152602001838152602001898152602001888152602001600019886000600281106106ae576106ae6140c1565b6020020151146106bf578751610721565b306001600160a01b0316634ba31b016040518163ffffffff1660e01b8152600401602060405180830381865afa1580156106fd573d6000803e3d6000fd5b505050506040513d601f19601f820116820180604052508101906107219190614108565b8152875160001914602082015260400187600160200201519052905061074681610c69565b94509450505050965096945050505050565b60006012821061076957600161077f565b610774826012614137565b61077f90600a61422e565b92915050565b81548190839060ff191660018360038111156107a3576107a361423a565b02179055507f5a7ee3c5ef7f4e3625ee638c3a95481dc4cbfaceda022d1e8fba8ed7fa2208e18160038111156107db576107db61423a565b6040519081526020016105ea565b600080806108026107fa8e83610604565b8d6002610a7b565b9150915060006040518061016001604052808f600060028110610827576108276140c1565b60200201516001600160a01b031681526020018f60016002811061084d5761084d6140c1565b60200201516001600160a01b031681526020018e81526020018d815260200184815260200183815260200160026001600160401b0381111561089157610891613b52565b6040519080825280602002602001820160405280156108ba578160200160208202803683370190505b508152602081018890528651604090910190600019146108db57865161093d565b306001600160a01b0316634ba31b016040518163ffffffff1660e01b8152600401602060405180830381865afa158015610919573d6000803e3d6000fd5b505050506040513d601f19601f8201168201806040525081019061093d9190614108565b815286516000191460208201526040018660016020020151815250905060006040518060a0016040528089151581526020018d6001600160a01b031681526020018b6001600160a01b031681526020018c81526020018a81525090506109a38282610ddc565b9f9e505050505050505050505050505050565b6000816001600160a01b031663f77c47916040518163ffffffff1660e01b8152600401602060405180830381865afa1580156109f6573d6000803e3d6000fd5b505050506040513d601f19601f82011682018060405250810190610a1a9190614250565b6001600160a01b0316632630c12f6040518163ffffffff1660e01b8152600401602060405180830381865afa158015610a57573d6000803e3d6000fd5b505050506040513d601f19601f8201168201806040525081019061077f9190614250565b606080826001600160401b03811115610a9657610a96613b52565b604051908082528060200260200182016040528015610abf578160200160208202803683370190505b509150826001600160401b03811115610ada57610ada613b52565b604051908082528060200260200182016040528015610b03578160200160208202803683370190505b50905060005b83811015610c6057848181518110610b2357610b236140c1565b60200260200101516001600160a01b031663313ce5676040518163ffffffff1660e01b8152600401602060405180830381865afa158015610b68573d6000803e3d6000fd5b505050506040513d601f19601f82011682018060405250810190610b8c919061426d565b610b9790600a614290565b828281518110610ba957610ba96140c1565b602002602001018181525050856001600160a01b031663b3596f07868381518110610bd657610bd66140c1565b60200260200101516040518263ffffffff1660e01b8152600401610bfa919061429f565b602060405180830381865afa158015610c17573d6000803e3d6000fd5b505050506040513d601f19601f82011682018060405250810190610c3b9190614108565b838281518110610c4d57610c4d6140c1565b6020908102919091010152600101610b09565b50935093915050565b600080600073__$c47fce1b4718dfd79949bdda1ff0df9edc$__632be98102604051806040016040528087600001516001600160a01b03166001600160a01b0316815260200187602001516001600160a01b03166001600160a01b03168152508660400151876060015188608001518960a001518a60c001516040518060e001604052808d6101200151610cfe576000610d01565b60015b60ff1681526020018d60e0015181526020018d61010001518152602001600019815260200160008152602001600181526020018d61014001518152506040518863ffffffff1660e01b8152600401610d5f979695949392919061434a565b606060405180830381865af4158015610d7c573d6000803e3d6000fd5b505050506040513d601f19601f82011682018060405250810190610da091906143fc565b50925090508015610dd6576040840151610dbb600183614137565b81518110610dcb57610dcb6140c1565b602002602001015192505b50915091565b60008060008073__$c47fce1b4718dfd79949bdda1ff0df9edc$__632be98102604051806040016040528089600001516001600160a01b03166001600160a01b0316815260200189602001516001600160a01b03166001600160a01b0316815250886040015189606001518a608001518b60a001518c60c001516040518060e001604052808f6101200151610e72576000610e75565b60015b60ff1681526020018f60e0015181526020018f61010001518152602001600019815260200160008152602001600181526020018f61014001518152506040518863ffffffff1660e01b8152600401610ed3979695949392919061434a565b606060405180830381865af4158015610ef0573d6000803e3d6000fd5b505050506040513d601f19601f82011682018060405250810190610f1491906143fc565b9250925092506000604051806080016040528060028960e001511480610f3c575060e0890151155b15151515815260200160018960e001511480610f5a575060e0890151155b1515815260e0890180516001908114602084015290511460409091015290508315801590610f86575080515b15610fc557610fbd8787610f9b600188614137565b6000610fa860018a614137565b14610fb4576000610fb7565b60015b8761124f565b610100890152505b8115801590610fd5575060208101515b156110e357865160408801516110df91906000610ff3600187614137565b14610fff576000611002565b60015b81518110611012576110126140c1565b6020026020010151896040015160018661102c9190614137565b8151811061103c5761103c6140c1565b60200260200101518a604001516001876110569190614137565b81518110611066576110666140c1565b60200260200101516001600160a01b03166370a08231306040518263ffffffff1660e01b8152600401611099919061429f565b602060405180830381865afa1580156110b6573d6000803e3d6000fd5b505050506040513d601f19601f820116820180604052508101906110da9190614108565b6118af565b5050505b8315611244576040810151156111fd576111038787610f9b600188614137565b610100890152506060810151801561111a57508115155b156111f8576000806111518982611132600188614137565b1461113e576000611141565b60015b61114c600188614137565b611a73565b9150915080156111925761118d8961116a600187614137565b6000611177600189614137565b14611183576000611186565b60015b6001612008565b6111f5565b60608901516111a2600186614137565b815181106111b2576111b26140c1565b60200260200101518211156111f5576111f58960006111d2600188614137565b146111de5760006111e1565b60015b6111ec600188614137565b8560001961212e565b50505b611244565b8115801561120d57508661012001515b801561121d575061010087015115155b80156112365750866101000151670de0b6b3a764000014155b156112445761124487612408565b501595945050505050565b600080856000015161126357856060015192505b855160009061127657866040015161127c565b87602001515b905087604001518681518110611294576112946140c1565b60200260200101516001600160a01b03166370a08231306040518263ffffffff1660e01b81526004016112c7919061429f565b602060405180830381865afa1580156112e4573d6000803e3d6000fd5b505050506040513d601f19601f820116820180604052508101906113089190614108565b8411156040518060400160405280601781526020017654532d37206e6f7420656e6f7567682062616c616e636560481b815250906113595760405162461bcd60e51b81526004016104c59190613b3f565b5087604001518681518110611370576113706140c1565b60200260200101516001600160a01b031687602001516001600160a01b0316146040518060400160405280601181526020017054532d323520737761702062792061676760781b815250906113d85760405162461bcd60e51b81526004016104c59190613b3f565b50876060015186815181106113ef576113ef6140c1565b60200260200101518411156118275761142688604001518781518110611417576114176140c1565b602002602001015185836125eb565b600061144e89604001518781518110611441576114416140c1565b602002602001015161265c565b8851909150156114de576114668589606001516126cc565b94506114d68960000151838b604001518a81518110611487576114876140c1565b60200260200101518c604001518a815181106114a5576114a56140c1565b60200260200101518961012c8f606001518e815181106114c7576114c76140c1565b602002602001015160016126e4565b509350611591565b88602001516001600160a01b0316826001600160a01b03161461150457611504826127ef565b600080836001600160a01b03168a60800151604051611523919061442a565b6000604051808303816000865af19150503d8060008114611560576040519150601f19603f3d011682016040523d82523d6000602084013e611565565b606091505b509150915081819061158a5760405162461bcd60e51b81526004016104c59190613b3f565b5086955050505b88600001516001600160a01b031663291f89c48a6040015189815181106115ba576115ba6140c1565b6020026020010151878c604001518a815181106115d9576115d96140c1565b6020026020010151856115fb8f604001518d81518110611441576114416140c1565b6116059190614137565b61012c6040518663ffffffff1660e01b8152600401611628959493929190614446565b602060405180830381865afa158015611645573d6000803e3d6000fd5b505050506040513d601f19601f82011682018060405250810190611669919061447a565b604051806040016040528060128152602001711514cb4c4d881c1c9a58d9481a5b5c1858dd60721b815250906116b25760405162461bcd60e51b81526004016104c59190613b3f565b507f650da787b25801954b4e03c78b9c6b07fddcbda246347411c49d282c7225f592886060015186836116f48d604001518b81518110611441576114416140c1565b6116fe9190614137565b8c60a001518b81518110611714576117146140c1565b60200260200101518d608001518b81518110611732576117326140c1565b60200260200101518e60a001518c81518110611750576117506140c1565b60200260200101518f608001518e8151811061176e5761176e6140c1565b60200260200101518c6117819190614497565b61178b9190614497565b61179591906144c4565b61179f91906144c4565b868e604001518d815181106117b6576117b66140c1565b60200260200101518f604001518d815181106117d4576117d46140c1565b602090810291909101810151604080519889529188019690965286019390935260608501919091526001600160a01b03908116608085015290811660a08401521660c082015260e00160405180910390a1505b8288610120015161183d5788610100015161189f565b306001600160a01b0316634ba31b016040518163ffffffff1660e01b8152600401602060405180830381865afa15801561187b573d6000803e3d6000fd5b505050506040513d601f19601f8201168201806040525081019061189f9190614108565b92509250505b9550959350505050565b600080600080856001600160a01b03166370a08231306040518263ffffffff1660e01b81526004016118e1919061429f565b602060405180830381865afa1580156118fe573d6000803e3d6000fd5b505050506040513d601f19601f820116820180604052508101906119229190614108565b90506000886001600160a01b031663dd27ede7308a8a60016040518563ffffffff1660e01b815260040161195994939291906144d8565b60408051808303816000875af1158015611977573d6000803e3d6000fd5b505050506040513d601f19601f8201168201806040525081019061199b9190614502565b5090506119b68187106119ae57816119b0565b865b836126cc565b60405163667df24960e01b81523060048201526001600160a01b038a811660248301528981166044830152606482018390529194506000918b169063667df2499060840160408051808303816000875af1158015611a18573d6000803e3d6000fd5b505050506040513d601f19601f82011682018060405250810190611a3c9190614502565b909650905080861115611a5657611a538187614137565b95505b611a638a8a8a87876128ac565b9550505050509450945094915050565b600080611aaf6040518060c001604052806000815260200160008152602001600081526020016000815260200160008152602001600081525090565b8560a001518581518110611ac557611ac56140c1565b602002602001015186608001518681518110611ae357611ae36140c1565b602002602001015187604001518781518110611b0157611b016140c1565b60200260200101516001600160a01b03166370a08231306040518263ffffffff1660e01b8152600401611b34919061429f565b602060405180830381865afa158015611b51573d6000803e3d6000fd5b505050506040513d601f19601f82011682018060405250810190611b759190614108565b611b7f9190614497565b611b8991906144c4565b604082015260a0860151805185908110611ba557611ba56140c1565b602002602001015186608001518581518110611bc357611bc36140c1565b602002602001015187604001518681518110611be157611be16140c1565b60200260200101516001600160a01b03166370a08231306040518263ffffffff1660e01b8152600401611c14919061429f565b602060405180830381865afa158015611c31573d6000803e3d6000fd5b505050506040513d601f19601f82011682018060405250810190611c559190614108565b611c5f9190614497565b611c6991906144c4565b60608201528415611c7f57856101000151611c97565b610100860151611c9790670de0b6b3a7640000614137565b81528415611cbc57610100860151611cb790670de0b6b3a7640000614137565b611cc3565b8561010001515b602082015260a0860151805186908110611cdf57611cdf6140c1565b602002602001015186608001518581518110611cfd57611cfd6140c1565b60200260200101518760a001518681518110611d1b57611d1b6140c1565b602002602001015188608001518881518110611d3957611d396140c1565b6020026020010151611d4b9190614497565b611d5d90670de0b6b3a7640000614497565b611d6791906144c4565b611d7191906144c4565b81608001818152505060008087600001516001600160a01b031663e4c2be70308a604001518a81518110611da757611da76140c1565b60200260200101518b604001518a81518110611dc557611dc56140c1565b602002602001015160016040518563ffffffff1660e01b8152600401611dee94939291906144d8565b6040805180830381865afa158015611e0a573d6000803e3d6000fd5b505050506040513d601f19601f82011682018060405250810190611e2e9190614502565b9150915081600003611f0e5760208301518351600091611e4d91614526565b845160608601516040870151611e639190614526565b611e6d9190614497565b611e7791906144c4565b9050836040015181118015611f0657508860a001518881518110611e9d57611e9d6140c1565b602002602001015189608001518981518110611ebb57611ebb6140c1565b60200260200101518a606001518a81518110611ed957611ed96140c1565b6020026020010151611eeb9190614497565b611ef591906144c4565b6040850151611f049083614137565b115b945050611faa565b8260000151670de0b6b3a7640000838386608001518760200151611f329190614497565b611f3c9190614497565b611f4691906144c4565b611f5091906144c4565b611f5a9190614539565b83604001518460200151611f6e9190614497565b60608501518551611f7f9190614497565b611f899190614561565b611f939190614588565b60a0840181905260001215611faa578260a0015194505b87608001518681518110611fc057611fc06140c1565b60200260200101518860a001518781518110611fde57611fde6140c1565b602002602001015186611ff19190614497565b611ffb91906144c4565b9450505050935093915050565b61212884848487604001518781518110612024576120246140c1565b60200260200101516001600160a01b03166370a08231306040518263ffffffff1660e01b8152600401612057919061429f565b602060405180830381865afa158015612074573d6000803e3d6000fd5b505050506040513d601f19601f820116820180604052508101906120989190614108565b886040015187815181106120ae576120ae6140c1565b60200260200101516001600160a01b03166370a08231306040518263ffffffff1660e01b81526004016120e1919061429f565b602060405180830381865afa1580156120fe573d6000803e3d6000fd5b505050506040513d601f19601f820116820180604052508101906121229190614108565b86612a95565b50505050565b600085604001518481518110612146576121466140c1565b60200260200101516001600160a01b03166370a08231306040518263ffffffff1660e01b8152600401612179919061429f565b602060405180830381865afa158015612196573d6000803e3d6000fd5b505050506040513d601f19601f820116820180604052508101906121ba9190614108565b90506122068660000151876040015187815181106121da576121da6140c1565b6020026020010151886040015187815181106121f8576121f86140c1565b6020026020010151866118af565b505050600086604001518581518110612221576122216140c1565b60200260200101516001600160a01b03166370a08231306040518263ffffffff1660e01b8152600401612254919061429f565b602060405180830381865afa158015612271573d6000803e3d6000fd5b505050506040513d601f19601f820116820180604052508101906122959190614108565b905060008183116122a75760006122b1565b6122b18284614137565b905084811080156122e95750876060015186815181106122d3576122d36140c1565b602002602001015181866122e79190614137565b115b156123fe57600088600001516001600160a01b031663e4c2be70308b604001518b8151811061231a5761231a6140c1565b60200260200101518c604001518b81518110612338576123386140c1565b602002602001015160016040518563ffffffff1660e01b815260040161236194939291906144d8565b6040805180830381865afa15801561237d573d6000803e3d6000fd5b505050506040513d601f19601f820116820180604052508101906123a19190614502565b509050886060015187815181106123ba576123ba6140c1565b6020026020010151811180156123cf57508481105b156123ef576123ea8989896123e4868b614137565b8561212e565b6123fc565b6123fc89888a6000612008565b505b5050505050505050565b60008160400151600081518110612421576124216140c1565b60200260200101516001600160a01b03166370a08231306040518263ffffffff1660e01b8152600401612454919061429f565b602060405180830381865afa158015612471573d6000803e3d6000fd5b505050506040513d601f19601f820116820180604052508101906124959190614108565b9050600082604001516001815181106124b0576124b06140c1565b60200260200101516001600160a01b03166370a08231306040518263ffffffff1660e01b81526004016124e3919061429f565b602060405180830381865afa158015612500573d6000803e3d6000fd5b505050506040513d601f19601f820116820180604052508101906125249190614108565b905060008061254785608001518660a00151868689610100015160006001612db8565b915091508184111561259a57846060015160008151811061256a5761256a6140c1565b6020026020010151828561257e9190614137565b111561259557612595856000600187876001612a95565b6125e4565b808311156125e45784606001516000815181106125b9576125b96140c1565b602002602001015181846125cd9190614137565b11156125e4576125e4856001600086886001612a95565b5050505050565b60405163095ea7b360e01b81526001600160a01b0384169063095ea7b3906126199084908690600401613ed7565b6020604051808303816000875af1158015612638573d6000803e3d6000fd5b505050506040513d601f19601f82011682018060405250810190612128919061447a565b6040516370a0823160e01b81526000906001600160a01b038316906370a082319061268b90309060040161429f565b602060405180830381865afa1580156126a8573d6000803e3d6000fd5b505050506040513d601f19601f8201168201806040525081019061077f9190614108565b60008183106126db57816126dd565b825b9392505050565b6000808386116126f9575060009050806127e2565b604051633744088160e11b81526001600160a01b0389811660048301528881166024830152600091908b1690636e88110290604401600060405180830381865afa15801561274b573d6000803e3d6000fd5b505050506040513d6000823e601f3d908101601f1916820160405261277391908101906145fb565b50805160408051808201909152601a81527f54532d3135204e6f206c69717569646174696f6e20726f75746500000000000060208201529192506127ca5760405162461bcd60e51b81526004016104c59190613b3f565b50866127dc8c838d8d8d8d8d8c612f47565b92509250505b9850989650505050505050565b6001600160a01b038116731111111254eeb25477b68fb85ed929f73a960582148061283657506001600160a01b038116736352a56caadc4f1e25cd6c75970fa768a3304e64145b8061285d57506001600160a01b038116736dd434082eab5cd134b33719ec1ff05fe985b97b145b604051806040016040528060148152602001732821299698902ab735b737bbb7103937baba32b960611b815250906128a85760405162461bcd60e51b81526004016104c59190613b3f565b5050565b600080606484106118a5576128cb6001600160a01b0386168886613225565b6040516314b685e960e21b81526001600160a01b038781166004830152868116602483015260448201869052306064830152600091908916906352da17a4906084016080604051808303816000875af115801561292c573d6000803e3d6000fd5b505050506040513d601f19601f820116820180604052508101906129509190614714565b5050604080516001600160a01b03808c1682528a1660208201529081018890523060608201526080810183905260a0810182905291945091507f1d1ba11e7ca20f5dc77d8cfd75b68d11520677808f89f6ba0f0e50dc52c450129060c00160405180910390a16040516370a0823160e01b81526000906001600160a01b038816906370a08231906129e590309060040161429f565b602060405180830381865afa158015612a02573d6000803e3d6000fd5b505050506040513d601f19601f82011682018060405250810190612a269190614108565b9050808511612a36576000612a40565b612a408186614137565b60408051808201909152600f81526e53423a2057726f6e672076616c756560881b60208201529093508215612a885760405162461bcd60e51b81526004016104c59190613b3f565b5050509550959350505050565b8015612bac57600086600001516001600160a01b031663e4c2be703089604001518881518110612ac757612ac76140c1565b60200260200101518a604001518a81518110612ae557612ae56140c1565b602002602001015160006040518563ffffffff1660e01b8152600401612b0e94939291906144d8565b6040805180830381865afa158015612b2a573d6000803e3d6000fd5b505050506040513d601f19601f82011682018060405250810190612b4e9190614502565b509050606481106040518060400160405280601a81526020017f54532d3239206f70706f7369746520646562742065786973747300000000000081525090612ba95760405162461bcd60e51b81526004016104c59190613b3f565b50505b600060405180610160016040528060405180604001604052808a600001516001600160a01b031681526020018a602001516001600160a01b0316815250815260200188604001518881518110612c0457612c046140c1565b60200260200101516001600160a01b0316815260200188604001518781518110612c3057612c306140c1565b60200260200101516001600160a01b0316815260200160008814612c5957886101000151612c71565b610100890151612c7190670de0b6b3a7640000614137565b81526020018715612c9957610100890151612c9490670de0b6b3a7640000614137565b612ca0565b8861010001515b81526020018860a001518781518110612cbb57612cbb6140c1565b602002602001015189608001518981518110612cd957612cd96140c1565b60200260200101518a60a001518a81518110612cf757612cf76140c1565b60200260200101518b608001518a81518110612d1557612d156140c1565b6020026020010151670de0b6b3a7640000612d309190614497565b612d3a9190614497565b612d4491906144c4565b612d4e91906144c4565b815260200188606001518881518110612d6957612d696140c1565b6020026020010151815260200160008152602001600081526020018781526020018681525090506123fc8160405180604001604052808a6080015181526020018a60a001518152508686613280565b6000806000888581518110612dcf57612dcf6140c1565b60200260200101518a8681518110612de957612de96140c1565b602002602001015189612dfc9190614497565b612e0691906144c4565b90506000898581518110612e1c57612e1c6140c1565b60200260200101518b8681518110612e3657612e366140c1565b602002602001015189612e499190614497565b612e5391906144c4565b90508615612e8857670de0b6b3a764000087612e6f8385614526565b612e799190614497565b612e8391906144c4565b612e8b565b60005b92508a8681518110612e9f57612e9f6140c1565b60200260200101518a8781518110612eb957612eb96140c1565b6020026020010151848385612ece9190614526565b612ed89190614137565b612ee29190614497565b612eec91906144c4565b93508a8581518110612f0057612f006140c1565b60200260200101518a8681518110612f1a57612f1a6140c1565b602002602001015184612f2d9190614497565b612f3791906144c4565b9250505097509795505050505050565b6000612f548685896133ed565b6040516370a0823160e01b81526000906001600160a01b038716906370a0823190612f8390309060040161429f565b602060405180830381865afa158015612fa0573d6000803e3d6000fd5b505050506040513d601f19601f82011682018060405250810190612fc49190614108565b6040516310fe133960e31b81529091506001600160a01b038916906387f099c890612ff7908c908990899060040161474a565b600060405180830381600087803b15801561301157600080fd5b505af1158015613025573d6000803e3d6000fd5b50506040516370a0823160e01b8152600092506001600160a01b03891691506370a082319061305890309060040161429f565b602060405180830381865afa158015613075573d6000803e3d6000fd5b505050506040513d601f19601f820116820180604052508101906130999190614108565b90508181116040518060400160405280601681526020017554532d32302062616c616e636520646563726561736560501b815250906130eb5760405162461bcd60e51b81526004016104c59190613b3f565b506130f68282614137565b925083806131745750604051630a47e27160e21b81526001600160a01b038c169063291f89c490613133908b908a908c9089908c90600401614446565b602060405180830381865afa158015613150573d6000803e3d6000fd5b505050506040513d601f19601f82011682018060405250810190613174919061447a565b604051806040016040528060128152602001711514cb4c4d881c1c9a58d9481a5b5c1858dd60721b815250906131bd5760405162461bcd60e51b81526004016104c59190613b3f565b50604080516001600160a01b03808b1682528916602082015290810187905260608101879052608081018490527f5a821a618ddb1a1fd304234a69c9d7f20c129d122fcf35593d13a071926643079060a00160405180910390a1505098975050505050505050565b61327b8363a9059cbb60e01b8484604051602401613244929190613ed7565b60408051601f198184030181529190526020810180516001600160e01b03166001600160e01b031990931692909217909152613498565b505050565b6000808560e00151600014806132995750610100860151155b6040518060400160405280601381526020017254532d333020696e76616c69642076616c756560681b815250906132e35760405162461bcd60e51b81526004016104c59190613b3f565b506101008601511561335e57856101000151831061331f576133168685886101000151866133119190614137565b61356a565b915091506133e4565b600061333d878787878b61010001516133389190614137565b613703565b5090506133548761334e8388614137565b8661356a565b92509250506133e4565b60e0860151156133d9578560e001518410156040518060400160405280601781526020017654532d37206e6f7420656e6f7567682062616c616e636560481b815250906133be5760405162461bcd60e51b81526004016104c59190613b3f565b50613316868760e00151866133d39190614137565b8561356a565b61331686858561356a565b94509492505050565b604051636eb1769f60e11b81523060048201526001600160a01b03828116602483015283919085169063dd62ed3e90604401602060405180830381865afa15801561343c573d6000803e3d6000fd5b505050506040513d601f19601f820116820180604052508101906134609190614108565b101561327b5760405163095ea7b360e01b81526001600160a01b0384169063095ea7b390612619908490600160ff1b90600401613ed7565b60006134ed826040518060400160405280602081526020017f5361666545524332303a206c6f772d6c6576656c2063616c6c206661696c6564815250856001600160a01b031661390c9092919063ffffffff16565b80519091501561327b578080602001905181019061350b919061447a565b61327b5760405162461bcd60e51b815260206004820152602a60248201527f5361666545524332303a204552433230206f7065726174696f6e20646964206e6044820152691bdd081cdd58d8d9595960b21b60648201526084016104c5565b60608381015160808086015160408051600160208201528082019490945283850191909152805180840390940184529101905260009081908190841561363a57670de0b6b3a7640000876080015188606001518960a00151886135cd9190614497565b6135d79190614497565b6135e191906144c4565b6135eb91906144c4565b9150858211156040518060400160405280601081526020016f54532d392077726f6e672076616c756560801b815250906136385760405162461bcd60e51b81526004016104c59190613b3f565b505b60208701516136559061364d8489614137565b8951516133ed565b73__$e930d50fb5f4f1298547dbcb2bb0591990$__63ca27d10d886000015160000151838a602001518b60400151878c61368f9190614137565b8d60c001516040518763ffffffff1660e01b81526004016136b5969594939291906147cc565b6040805180830381865af41580156136d1573d6000803e3d6000fd5b505050506040513d601f19601f820116820180604052508101906136f59190614502565b935093505050935093915050565b6000806000856020015187610140015181518110613723576137236140c1565b6020026020010151866000015188610120015181518110613746576137466140c1565b6020026020010151876020015189610120015181518110613769576137696140c1565b602002602001015188600001518a61014001518151811061378c5761378c6140c1565b60200260200101518761379f9190614497565b6137a99190614497565b6137b391906144c4565b6137bd91906144c4565b9050620186a06137cf61012c82614526565b6137d99083614497565b6137e391906144c4565b90508085116040518060400160405280601781526020017654532d37206e6f7420656e6f7567682062616c616e636560481b815250906138365760405162461bcd60e51b81526004016104c59190613b3f565b5086518051602091820151918901516040808b015160c08c01519151637de8f56960e01b81526001600160a01b03948516600482015294841660248601529183166044850152911660648301526084820183905261012c60a483015260c4820152600060e482015273__$e930d50fb5f4f1298547dbcb2bb0591990$__90637de8f56990610104016040805180830381865af41580156138da573d6000803e3d6000fd5b505050506040513d601f19601f820116820180604052508101906138fe9190614502565b909890975095505050505050565b606061391b8484600085613923565b949350505050565b6060824710156139845760405162461bcd60e51b815260206004820152602660248201527f416464726573733a20696e73756666696369656e742062616c616e636520666f6044820152651c8818d85b1b60d21b60648201526084016104c5565b600080866001600160a01b031685876040516139a0919061442a565b60006040518083038185875af1925050503d80600081146139dd576040519150601f19603f3d011682016040523d82523d6000602084013e6139e2565b606091505b50915091506139f3878383876139fe565b979650505050505050565b60608315613a6d578251600003613a66576001600160a01b0385163b613a665760405162461bcd60e51b815260206004820152601d60248201527f416464726573733a2063616c6c20746f206e6f6e2d636f6e747261637400000060448201526064016104c5565b508161391b565b61391b8383815115613a825781518083602001fd5b8060405162461bcd60e51b81526004016104c59190613b3f565b8260048101928215613aca579160200282015b82811115613aca578251825591602001919060010190613aaf565b50613ad6929150613ada565b5090565b5b80821115613ad65760008155600101613adb565b60005b83811015613b0a578181015183820152602001613af2565b50506000910152565b60008151808452613b2b816020860160208601613aef565b601f01601f19169290920160200192915050565b6020815260006126dd6020830184613b13565b634e487b7160e01b600052604160045260246000fd5b604051608081016001600160401b0381118282101715613b8a57613b8a613b52565b60405290565b604080519081016001600160401b0381118282101715613b8a57613b8a613b52565b604051601f8201601f191681016001600160401b0381118282101715613bda57613bda613b52565b604052919050565b60008060a08385031215613bf557600080fd5b82359150602084603f850112613c0a57600080fd5b604051608081018181106001600160401b0382111715613c2c57613c2c613b52565b6040528060a0860187811115613c4157600080fd5b8387015b81811015613c5c5780358352918401918401613c45565b50505080925050509250929050565b6001600160a01b0381168114613c8057600080fd5b50565b8035613c8e81613c6b565b919050565b600082601f830112613ca457600080fd5b613cac613b90565b806040840185811115613cbe57600080fd5b845b81811015613ce1578035613cd381613c6b565b845260209384019301613cc0565b509095945050505050565b60006001600160401b03821115613d0557613d05613b52565b5060051b60200190565b600082601f830112613d2057600080fd5b81356020613d35613d3083613cec565b613bb2565b82815260059290921b84018101918181019086841115613d5457600080fd5b8286015b84811015613d78578035613d6b81613c6b565b8352918301918301613d58565b509695505050505050565b600082601f830112613d9457600080fd5b81356020613da4613d3083613cec565b82815260059290921b84018101918181019086841115613dc357600080fd5b8286015b84811015613d785780358352918301918301613dc7565b600082601f830112613def57600080fd5b613df7613b90565b806040840185811115613e0957600080fd5b845b81811015613ce1578035845260209384019301613e0b565b6000806000806000806101008789031215613e3d57600080fd5b613e478888613c93565b955060408701356001600160401b0380821115613e6357600080fd5b613e6f8a838b01613d0f565b96506060890135915080821115613e8557600080fd5b613e918a838b01613d83565b95506080890135915080821115613ea757600080fd5b50613eb489828a01613d83565b93505060a08701359150613ecb8860c08901613dde565b90509295509295509295565b6001600160a01b03929092168252602082015260400190565b600060208284031215613f0257600080fd5b5035919050565b60008060408385031215613f1c57600080fd5b82359150602083013560048110613f3257600080fd5b809150509250929050565b60006001600160401b03821115613f5657613f56613b52565b50601f01601f191660200190565b600082601f830112613f7557600080fd5b8135613f83613d3082613f3d565b818152846020838601011115613f9857600080fd5b816020850160208301376000918101602001919091529392505050565b8015158114613c8057600080fd5b8035613c8e81613fb5565b6000806000806000806000806000806101808b8d031215613fee57600080fd5b613ff88c8c613c93565b995060408b01356001600160401b038082111561401457600080fd5b6140208e838f01613d0f565b9a5060608d013591508082111561403657600080fd5b6140428e838f01613d83565b995061405060808e01613c83565b985060a08d0135975061406560c08e01613c83565b965060e08d013591508082111561407b57600080fd5b506140888d828e01613f64565b9450506140986101008c01613fc3565b92506101208b013591506140b08c6101408d01613dde565b90509295989b9194979a5092959850565b634e487b7160e01b600052603260045260246000fd5b60808101818360005b60048110156140ff5781518352602092830192909101906001016140e0565b50505092915050565b60006020828403121561411a57600080fd5b5051919050565b634e487b7160e01b600052601160045260246000fd5b8181038181111561077f5761077f614121565b600181815b8085111561418557816000190482111561416b5761416b614121565b8085161561417857918102915b93841c939080029061414f565b509250929050565b60008261419c5750600161077f565b816141a95750600061077f565b81600181146141bf57600281146141c9576141e5565b600191505061077f565b60ff8411156141da576141da614121565b50506001821b61077f565b5060208310610133831016604e8410600b8410161715614208575081810a61077f565b614212838361414a565b806000190482111561422657614226614121565b029392505050565b60006126dd838361418d565b634e487b7160e01b600052602160045260246000fd5b60006020828403121561426257600080fd5b81516126dd81613c6b565b60006020828403121561427f57600080fd5b815160ff811681146126dd57600080fd5b60006126dd60ff84168361418d565b6001600160a01b0391909116815260200190565b600081518084526020808501945080840160005b838110156142ec5781516001600160a01b0316875295820195908201906001016142c7565b509495945050505050565b600081518084526020808501945080840160005b838110156142ec5781518752958201959082019060010161430b565b8060005b600781101561212857815184526020938401939091019060010161432b565b60006101c0828a835b600281101561437b5781516001600160a01b0316835260209283019290910190600101614353565b5050508060408401526143908184018a6142b3565b905082810360608401526143a481896142f7565b905082810360808401526143b881886142f7565b905082810360a08401526143cc81876142f7565b905082810360c08401526143e081866142f7565b9150506143f060e0830184614327565b98975050505050505050565b60008060006060848603121561441157600080fd5b8351925060208401519150604084015190509250925092565b6000825161443c818460208701613aef565b9190910192915050565b6001600160a01b03958616815260208101949094529190931660408301526060820192909252608081019190915260a00190565b60006020828403121561448c57600080fd5b81516126dd81613fb5565b808202811582820484141761077f5761077f614121565b634e487b7160e01b600052601260045260246000fd5b6000826144d3576144d36144ae565b500490565b6001600160a01b039485168152928416602084015292166040820152901515606082015260800190565b6000806040838503121561451557600080fd5b505080516020909101519092909150565b8082018082111561077f5761077f614121565b808201828112600083128015821682158216171561455957614559614121565b505092915050565b818103600083128015838313168383128216171561458157614581614121565b5092915050565b600082614597576145976144ae565b600160ff1b8214600019841416156145b1576145b1614121565b500590565b600082601f8301126145c757600080fd5b81516145d5613d3082613f3d565b8181528460208386010111156145ea57600080fd5b61391b826020830160208701613aef565b600080604080848603121561460f57600080fd5b83516001600160401b038082111561462657600080fd5b818601915086601f83011261463a57600080fd5b8151602061464a613d3083613cec565b82815260079290921b8401810191818101908a84111561466957600080fd5b948201945b838610156146e3576080868c0312156146875760008081fd5b61468f613b68565b865161469a81613c6b565b8152868401516146a981613c6b565b81850152868801516146ba81613c6b565b818901526060878101516146cd81613c6b565b908201528252608095909501949082019061466e565b918901519197509094505050808311156146fc57600080fd5b505061470a858286016145b6565b9150509250929050565b6000806000806080858703121561472a57600080fd5b505082516020840151604085015160609095015191969095509092509050565b6060808252845182820181905260009190608090818501906020808a01865b838110156147b157815180516001600160a01b039081168752848201518116858801526040808301518216908801529088015116878601529385019390820190600101614769565b50508601979097526040909401949094525090949350505050565b600060018060a01b03808916835260c060208401526147ee60c0840189613b13565b9681166040840152949094166060820152608081019290925260a090910152509291505056fe5042532d3420496e636f727265637420726562616c616e63655469636b52616e6765a2646970667358221220c8a99e8b5addb5b446bc3b4ddddfcec75611a6c57eb3f5a39866806e9265f0cd64736f6c63430008110033",
  "libraries": {
    "ConverterStrategyBaseLib": "0x0Be4e6b976CFA3F158Fb42F45A4C654F1B4D1Ab1",
    "IterationPlanLib": "0x0118015B5D5F7f104292DB79Ae47AA0e962A09be"
  },
  "devdoc": {
    "details": "The library contains quoteWithdrawStep/withdrawStep-related logic",
    "kind": "dev",
    "methods": {
      "quoteWithdrawStep(address[2],address[],uint256[],uint256[],uint256,uint256[2])": {
        "params": {
          "amountsFromPool": "Amounts of {tokens} that will be received from the pool before calling withdraw",
          "converterLiquidator_": "[TetuConverter, TetuLiquidator]",
          "entryDataValues": "[propNotUnderlying18, entryDataParam]     propNotUnderlying18 Required proportion of not-underlying for the final swap of leftovers, [0...1e18].                           The leftovers should be swapped to get following result proportions of the assets:                           not-underlying : underlying === propNotUnderlying18 : 1e18 - propNotUnderlying18                            Value type(uint).max means that the proportions should be read from the pool.     entryDataParam It contains \"required-amount-to-reduce-debt\" in REPAY-SWAP-REPAY case",
          "liquidationThresholds": "Liquidation thresholds for the {tokens}",
          "tokens": "Tokens used by depositor (length == 2: underlying and not-underlying)"
        },
        "returns": {
          "amountToSwap": "Amount that will be swapped on the next swap. 0 - no swap                      This amount is NOT reduced on {GAP_AMOUNT_TO_SWAP}, it should be reduced after the call if necessary.",
          "tokenToSwap": "Address of the token that will be swapped on the next swap. 0 - no swap"
        }
      },
      "withdrawStep(address[2],address[],uint256[],address,uint256,address,bytes,bool,uint256,uint256[2])": {
        "params": {
          "aggregator_": "Aggregator that should be used for the next swap. 0 - no swap",
          "amountToSwap_": "Amount that will be swapped on the next swap. 0 - no swap",
          "converterLiquidator_": "[TetuConverter, TetuLiquidator]",
          "entryDataValues": "[propNotUnderlying18, entryDataParam]     propNotUnderlying18 Required proportion of not-underlying for the final swap of leftovers, [0...1e18].                           The leftovers should be swapped to get following result proportions of the assets:                           not-underlying : underlying === propNotUnderlying18 : 1e18 - propNotUnderlying18     entryDataParam It contains \"required-amount-to-reduce-debt\" in REPAY-SWAP-REPAY case",
          "liquidationThresholds": "Liquidation thresholds for the {tokens}",
          "planKind": "One of IterationPlanLib.PLAN_XXX",
          "swapData_": "Swap data to be passed to the aggregator on the next swap.                  Swap data contains swap-route, amount and all other required info for the swap.                  Swap data should be prepared on-chain on the base of data received by {quoteWithdrawStep}",
          "tokenToSwap_": "Address of the token that will be swapped on the next swap. 0 - no swap",
          "tokens": "Tokens used by depositor (length == 2: underlying and not-underlying)",
          "useLiquidator_": "Use liquidator instead of aggregator.                       Aggregator swaps amount reduced on {GAP_AMOUNT_TO_SWAP}.                       Liquidator doesn't use {GAP_AMOUNT_TO_SWAP}.                       It's allowed to pass liquidator address in {aggregator_} and set {useLiquidator_} to false -                       the liquidator will be used in same way as aggregator in this case."
        },
        "returns": {
          "completed": "All debts were closed, leftovers were swapped to the required proportions"
        }
      }
    },
    "stateVariables": {
      "OPENOCEAN": {
        "details": "See https://docs.openocean.finance/dev/contracts-of-chains"
      },
      "OPENOCEAN_ZKEVM": {
        "details": "See https://docs.openocean.finance/dev/contracts-of-chains"
      }
    },
    "version": 1
  },
  "userdoc": {
    "kind": "user",
    "methods": {
      "ENTRY_TO_POOL_IS_ALLOWED()": {
        "notice": "Enter to the pool at the end of withdrawByAggStep"
      },
      "ENTRY_TO_POOL_IS_ALLOWED_IF_COMPLETED()": {
        "notice": "Enter to the pool at the end of withdrawByAggStep only if full withdrawing has been completed"
      },
      "FUSE_IDX_LOWER_LIMIT_ON()": {
        "notice": "Fuse thresholds are set as array: [LOWER_LIMIT_ON, LOWER_LIMIT_OFF, UPPER_LIMIT_ON, UPPER_LIMIT_OFF]         If the price falls below LOWER_LIMIT_ON the fuse is turned ON         When the prices raises back and reaches LOWER_LIMIT_OFF, the fuse is turned OFF         In the same way, if the price raises above UPPER_LIMIT_ON the fuse is turned ON         When the prices falls back and reaches UPPER_LIMIT_OFF, the fuse is turned OFF         Example: [0.9, 0.92, 1.08, 1.1]         Price falls below 0.9 - fuse is ON. Price rises back up to 0.92 - fuse is OFF.         Price raises more and reaches 1.1 - fuse is ON again. Price falls back and reaches 1.08 - fuse OFF again."
      },
      "GAP_AMOUNT_TO_SWAP()": {
        "notice": "A gap to reduce AmountToSwap calculated inside quoteWithdrawByAgg, [0...100_000]"
      },
      "quoteWithdrawStep(address[2],address[],uint256[],uint256[],uint256,uint256[2])": {
        "notice": "Get info for the swap that will be made on the next call of {withdrawStep}"
      },
      "withdrawStep(address[2],address[],uint256[],address,uint256,address,bytes,bool,uint256,uint256[2])": {
        "notice": "Make withdraw step with 0 or 1 swap only. The step can make one of the following actions:         1) repay direct debt 2) repay reverse debt 3) final swap leftovers of not-underlying asset"
      }
    },
    "notice": "Library for the UniV3-like strategies with two tokens in the pool",
    "version": 1
  },
  "storageLayout": {
    "storage": [],
    "types": null
  }
}