{
  "address": "0xE8dfB7074F4E14b7eDD1E08C03Fa6079c9E091b5",
  "abi": [
    {
      "inputs": [
        {
          "internalType": "int24",
          "name": "tick",
          "type": "int24"
        },
        {
          "internalType": "int24",
          "name": "tickRange",
          "type": "int24"
        },
        {
          "internalType": "int24",
          "name": "tickSpacing",
          "type": "int24"
        }
      ],
      "name": "calcTickRange",
      "outputs": [
        {
          "internalType": "int24",
          "name": "lowerTick",
          "type": "int24"
        },
        {
          "internalType": "int24",
          "name": "upperTick",
          "type": "int24"
        }
      ],
      "stateMutability": "pure",
      "type": "function"
    }
  ],
  "transactionHash": "0x1b785105e5b16a4da767fb5226e6bd9a4c9c16e1b656b994bb66e112740e245b",
  "args": [],
  "numDeployments": 12,
  "solcInputHash": "da1a131c81810b0ec86f8a1b7470ae1a",
  "bytecode": "0x6126cb61003a600b82828239805160001a60731461002d57634e487b7160e01b600052600060045260246000fd5b30600052607381538281f3fe73000000000000000000000000000000000000000030146080604052600436106100925760003560e01c80636e81b629116100655780636e81b62914610150578063b8b4a44914610173578063bd13c52914610193578063cd8e20e7146101c257600080fd5b80631c2040d5146100975780634aa00915146100cd57806350d2e0ba146100ef57806351265e891461012e575b600080fd5b8180156100a357600080fd5b506100b76100b2366004611a86565b6101ef565b6040516100c49190611b26565b60405180910390f35b8180156100d957600080fd5b506100ed6100e8366004611b47565b61031c565b005b8180156100fb57600080fd5b5061010f61010a366004611c91565b6103a9565b604080516001600160a01b0390931683526020830191909152016100c4565b61014161013c366004611d95565b610504565b6040516100c493929190611e13565b61016361015e366004611e39565b6106ba565b6040516100c49493929190611e8b565b81801561017f57600080fd5b506100ed61018e366004611f44565b610a7d565b81801561019f57600080fd5b506101b36101ae366004611faa565b610dc8565b6040516100c49392919061209b565b6101d56101d03660046120c6565b611293565b60408051600293840b81529190920b6020820152016100c4565b606073158Da3ec4771bC05F4898BBF53141cB773754E7C634b4bd6f7888860405180604001604052808a6001600160a01b03166001600160a01b03168152602001896001600160a01b03166001600160a01b0316815250604051806040016040528061027e8960008e6001600160a01b03166001600160a01b0316815260200190815260200160002054611358565b81526001600160a01b038b16600090815260208a81526040909120549101906102a690611358565b815250886040518663ffffffff1660e01b81526004016102ca959493929190612158565b600060405180830381865af41580156102e7573d6000803e3d6000fd5b505050506040513d6000823e601f3d908101601f1916820160405261030f91908101906121ff565b90505b9695505050505050565b60008215610395576040516335ffd9a360e11b815273626aB57b826869B8AE32D32487E0AB6405625bb390636bffb346906103609060058801908690600401612234565b60006040518083038186803b15801561037857600080fd5b505af415801561038c573d6000803e3d6000fd5b50505050600190505b80156103a3576000600e8501555b50505050565b6000806103b46119c4565b6040805180820190915260028a01546001600160a01b03908116825260038b01541660208201526103e9908290868b8a611371565b73626aB57b826869B8AE32D32487E0AB6405625bb36314ad109e6040518060400160405280886001600160a01b03166001600160a01b031681526020016104338560200151611557565b6001600160a01b0316905283516040808601516060870151825180840184526080890151815260a0890151602082015292516001600160e01b031960e088901b1681526104879594938f9291600401612248565b6040805180830381865af41580156104a3573d6000803e3d6000fd5b505050506040513d601f19601f820116820180604052508101906104c791906122b2565b909350915081156104f857620186a06104e16064846122f6565b6104eb9190612323565b6104f59083612337565b91505b50965096945050505050565b60008060008660030160149054906101000a900460ff16156106a35760028701546003880154604051637fd6c0a160e01b81526001600160a01b03808a16600483015292831660248201529116604482015260009073c1Ed5dD095C703421F623F416b88bbf57a1E101290637fd6c0a190606401602060405180830381865af4158015610595573d6000803e3d6000fd5b505050506040513d601f19601f820116820180604052508101906105b9919061234a565b604080516060810190915260058a01805492935061067492829060ff1660038111156105e7576105e7611ddb565b60038111156105f8576105f8611ddb565b815260408051608081019182905260209092019190600184019060049082845b81548152602001906001019080831161061857505050918352505060408051608081019182905260209092019190600584019060049082845b8154815260200190600101908083116106515750505050508152505082876115bb565b9093509150828061069b575061068982611733565b15801561069b575061069b8887611750565b9350506106b0565b6106ad8786611750565b92505b9450945094915050565b60408051600480825260a082019092526060918291829182919060208201608080368337505060408051600480825260a08201909252929650905060208201608080368337505060408051600d8082526101c082019092529295509050602082016101a0803683375050604080516002808252606082018352939550929150602083019080368337505050600286015485519192506001600160a01b031690859060009061076a5761076a612363565b6001600160a01b039283166020918202929092010152600386015485519116908590600190811061079d5761079d612363565b6001600160a01b03928316602091820292909201015285548551911690859060029081106107cd576107cd612363565b6001600160a01b039283166020918202929092010152600186015485519116908590600390811061080057610800612363565b60200260200101906001600160a01b031690816001600160a01b0316815250508460030160169054906101000a900460020b8360008151811061084557610845612363565b600292830b602091820292909201015260038601548451600160c81b90910490910b908490600190811061087b5761087b612363565b600292830b602091820292909201015260038601548451600160e01b909104820b91859181106108ad576108ad612363565b600292830b602091820292909201015260048601548451910b90849060039081106108da576108da612363565b602002602001019060020b908160020b815250508460040160039054906101000a90046001600160801b03166001600160801b03168260008151811061092257610922612363565b6020908102919091010152600585015460ff16600381111561094657610946611ddb565b8260018151811061095957610959612363565b60200260200101818152505084600e01548260038151811061097d5761097d612363565b60200260200101818152505060005b60048110156109e3576006860181600481106109aa576109aa612363565b0154836109b8836004612379565b815181106109c8576109c8612363565b60209081029190910101526109dc8161238c565b905061098c565b5084600f015482600c815181106109fc576109fc612363565b6020026020010181815250508460030160149054906101000a900460ff1681600081518110610a2d57610a2d612363565b6020026020010190151590811515815250508460030160159054906101000a900460ff1681600181518110610a6457610a64612363565b6020026020010190151590811515815250509193509193565b610a8a60208501856123a5565b85546001600160a01b0319166001600160a01b03919091161785556000610ab760408601602087016123a5565b90506000610acb60608701604088016123a5565b90506000610adf60808801606089016123a5565b9050610aee60208701876123c2565b60038901805462ffffff92909216600160b01b0262ffffff60b01b19909216919091179055610b2360408701602088016123c2565b60038901805462ffffff92909216600160c81b0262ffffff60c81b19909216919091179055610b5860608701604088016123c2565b60038901805462ffffff92909216600160e01b0262ffffff60e01b19909216919091179055610b8d60808701606088016123c2565b60048901805462ffffff191662ffffff929092169190911790556001600160a01b038281169084161480610bd25750806001600160a01b0316836001600160a01b0316145b60405180604001604052806015815260200174141094cb4d48125b98dbdc9c9958dd08185cdcd95d605a1b81525090610c275760405162461bcd60e51b8152600401610c1e9190612423565b60405180910390fd5b50816001600160a01b0316836001600160a01b031603610c84576002880180546001600160a01b038085166001600160a01b031990921691909117909155600389018054600161ff0160a01b031916918316919091179055610cc9565b6002880180546001600160a01b038084166001600160a01b031990921691909117909155600389018054600161ff0160a01b03191691841691909117600160a81b1790555b8415610dbe5760038801805460ff60a01b1916600160a01b1790556040516335ffd9a360e11b815273626aB57b826869B8AE32D32487E0AB6405625bb390636bffb34690610d219060058c0190600190600401612234565b60006040518083038186803b158015610d3957600080fd5b505af4158015610d4d573d6000803e3d6000fd5b5050604051630593c4c960e01b815273626aB57b826869B8AE32D32487E0AB6405625bb39250630593c4c99150610d8d9060058c01908890600401612436565b60006040518083038186803b158015610da557600080fd5b505af4158015610db9573d6000803e3d6000fd5b505050505b5050505050505050565b600060606000610dd6611a03565b610de360208b018b6123a5565b6001600160a01b03166020820152896001602002016020810190610e0791906123a5565b6001600160a01b03166040820152896002602002016020810190610e2b91906123a5565b6001600160a01b03166060820152896003602002016020810190610e4f91906123a5565b6001600160a01b03166080820152896004602002016020810190610e7391906123a5565b6001600160a01b031660a0820152883560c0820152602089013560e0820152604089013561010082015280516060820151610eb49190889088908b90611371565b73626aB57b826869B8AE32D32487E0AB6405625bb3637545be26604051806040016040528084608001516001600160a01b03166001600160a01b03168152602001610f06856000015160200151611557565b6001600160a01b03166001600160a01b031681525083600001516000015184600001516040015185602001518660c0015187604001518f60006001600160a01b03168a604001516001600160a01b0316148a600001516060015160405180604001604052808d600001516080015181526020018d6000015160a001518152506040518b63ffffffff1660e01b8152600401610faa9a9998979695949392919061244c565b602060405180830381865af4158015610fc7573d6000803e3d6000fd5b505050506040513d601f19601f82011682018060405250810190610feb91906124e3565b93508060e0015160001461115857805151805173c1Ed5dD095C703421F623F416b88bbf57a1E10129163890ffb849160009061102957611029612363565b60200260200101518360e001518460a0015185610100015186600001516000015160008151811061105c5761105c612363565b60209081029190910101516040516370a0823160e01b81523060048201526001600160a01b03909116906370a0823190602401602060405180830381865afa1580156110ac573d6000803e3d6000fd5b505050506040513d601f19601f820116820180604052508101906110d0919061234a565b6040516001600160e01b031960e088901b1681526001600160a01b03958616600482015260248101949094529390911660448301526064820152608481019190915260a4016040805180830381865af4158015611131573d6000803e3d6000fd5b505050506040513d601f19601f820116820180604052508101906111559190612500565b50505b73c1Ed5dD095C703421F623F416b88bbf57a1E101263ac2a37d6826080015183610100015184600001516000015160008151811061119857611198612363565b60200260200101518560000151600001516001815181106111bb576111bb612363565b602002602001015160405180604001604052808860000151604001516000815181106111e9576111e9612363565b6020026020010151815260200188600001516040015160018151811061121157611211612363565b60200260200101518152506040518663ffffffff1660e01b815260040161123c959493929190612524565b600060405180830381865af4158015611259573d6000803e3d6000fd5b505050506040513d6000823e601f3d908101601f191682016040526112819190810190612558565b949b949a509850929650505050505050565b60008060008560020b1280156112c45750600285900b836112b4818861259f565b6112be91906125d9565b60020b14155b156112fc57826001816112d78789612600565b6112e1919061259f565b6112eb9190612600565b6112f591906125d9565b915061131f565b82806113088688612600565b611312919061259f565b61131c91906125d9565b91505b8360020b600014611344576113358460026125d9565b61133f9083612625565b61134e565b61134e8383612625565b9050935093915050565b60008115611366578161136b565b620186a05b92915050565b6001600160a01b0381166020860181905260405163124fdbb760e21b815260048101919091527306c875daA1Dc2E27dd7381EB3b6be4F99553a6099063493f6edc9060240160006040518083038186803b1580156113ce57600080fd5b505af41580156113e2573d6000803e3d6000fd5b505050506113ef82611791565b6060860181905261140090836117b8565b60a0870152608086015260408051600280825260608201835290916020830190803683375050508086528451602086015182519192909160009061144657611446612363565b60200260200101876000015160018151811061146457611464612363565b6001600160a01b0393841660209182029290920101529116905260408051600280825260608201909252908160200160208202803683375050506040860152845180516114ed9185916000919082906114bf576114bf612363565b60200260200101516001600160a01b03166001600160a01b0316815260200190815260200160002054611358565b856040015160008151811061150457611504612363565b60200260200101818152505061152d83600087600001516001815181106114bf576114bf612363565b856040015160018151811061154457611544612363565b6020026020010181815250505050505050565b6000816001600160a01b0316634046ebae6040518163ffffffff1660e01b8152600401602060405180830381865afa158015611597573d6000803e3d6000fd5b505050506040513d601f19601f8201168201806040525081019061136b919061264a565b60008080855160038111156115d2576115d2611ddb565b14611718576001855160038111156115ec576115ec611ddb565b0361164c576020850151518411158061160a57506020850151518311155b1561161b5750600190506002611718565b6020850151604001518410158061163a57506020850151604001518310155b1561164757506001905060035b611718565b60028551600381111561166157611661611ddb565b036116c15760208581015101518410801590611684575060208581015101518310155b156116475760208501516040015160019250841015806116ac57506020850151604001518310155b156116b957506003611718565b506001611718565b60208501516060015184118015906116e157506020850151606001518311155b156117185760208581015101516001925084111580611707575060208581015101518311155b1561171457506002611718565b5060015b8182611725578551611727565b815b91509150935093915050565b6000600182600381111561174957611749611ddb565b1192915050565b6003820154600483015460009161178a918491600160c81b8104600290810b92600160e01b8304820b92600160b01b9004820b910b61191a565b9392505050565b600081516000036117a457506000919050565b8180602001905181019061136b919061234a565b6000808315806117c85750600284145b1561184c57828060200190518101906117e19190612500565b925050670de0b6b3a7640000821115806117fc575060001982145b6040518060400160405280601381526020017254532d333020696e76616c69642076616c756560681b815250906118465760405162461bcd60e51b8152600401610c1e9190612423565b50611913565b60408051808201909152601081526f54532d392077726f6e672076616c756560801b6020820152600185146118945760405162461bcd60e51b8152600401610c1e9190612423565b50828060200190518101906118a99190612667565b909350915050670de0b6b3a7640000821115806118c7575060001982145b6040518060400160405280601381526020017254532d333020696e76616c69642076616c756560681b815250906119115760405162461bcd60e51b8152600401610c1e9190612423565b505b9250929050565b6000600283900b61192b8686612600565b60020b03611954578460020b8660020b128061194d57508360020b8660020b12155b90506119bb565b600060026119628787612600565b61196c919061259f565b9050600061197a8288612625565b90508060020b8860020b136119a157600284900b6119988983612600565b60020b136119b6565b600284900b6119b0828a612600565b60020b12155b925050505b95945050505050565b6040518060c001604052806060815260200160006001600160a01b03168152602001606081526020016000815260200160008152602001600081525090565b604051806101400160405280611a176119c4565b815260006020820181905260408201819052606082018190526080820181905260a0820181905260c0820181905260e0820181905261010082018190526101209091015290565b6001600160a01b0381168114611a7357600080fd5b50565b8035611a8181611a5e565b919050565b60008060008060008060c08789031215611a9f57600080fd5b8635611aaa81611a5e565b9550602087013594506040870135611ac181611a5e565b93506060870135611ad181611a5e565b9598949750929560808101359460a0909101359350915050565b600081518084526020808501945080840160005b83811015611b1b57815187529582019590820190600101611aff565b509495945050505050565b60208152600061178a6020830184611aeb565b8015158114611a7357600080fd5b600080600060608486031215611b5c57600080fd5b833592506020840135611b6e81611b39565b9150604084013560048110611b8257600080fd5b809150509250925092565b634e487b7160e01b600052604160045260246000fd5b6040805190810167ffffffffffffffff81118282101715611bc657611bc6611b8d565b60405290565b604051601f8201601f1916810167ffffffffffffffff81118282101715611bf557611bf5611b8d565b604052919050565b600082601f830112611c0e57600080fd5b813567ffffffffffffffff811115611c2857611c28611b8d565b611c3b601f8201601f1916602001611bcc565b818152846020838601011115611c5057600080fd5b816020850160208301376000918101602001919091529392505050565b600067ffffffffffffffff821115611c8757611c87611b8d565b5060051b60200190565b60008060008060008060c08789031215611caa57600080fd5b8635955060208088013567ffffffffffffffff80821115611cca57600080fd5b611cd68b838c01611bfd565b975060408a0135915080821115611cec57600080fd5b508801601f81018a13611cfe57600080fd5b8035611d11611d0c82611c6d565b611bcc565b81815260059190911b8201830190838101908c831115611d3057600080fd5b928401925b82841015611d4e57833582529284019290840190611d35565b8098505050505050611d6260608801611a76565b9250611d7060808801611a76565b915060a087013590509295509295509295565b8035600281900b8114611a8157600080fd5b60008060008060808587031215611dab57600080fd5b843593506020850135611dbd81611a5e565b9250611dcb60408601611d83565b9396929550929360600135925050565b634e487b7160e01b600052602160045260246000fd5b60048110611e0f57634e487b7160e01b600052602160045260246000fd5b9052565b8315158152821515602082015260608101611e316040830184611df1565b949350505050565b600060208284031215611e4b57600080fd5b5035919050565b600081518084526020808501945080840160005b83811015611b1b5781516001600160a01b031687529582019590820190600101611e66565b608081526000611e9e6080830187611e52565b82810360208481019190915286518083528782019282019060005b81811015611ed857845160020b83529383019391830191600101611eb9565b50508481036040860152611eec8188611aeb565b858103606087015286518082528388019450908301915060005b81811015611f24578451151583529383019391830191600101611f06565b50909998505050505050505050565b806080810183101561136b57600080fd5b60008060008060006101c08688031215611f5d57600080fd5b85359450611f6e8760208801611f33565b9350611f7d8760a08801611f33565b9250610120860135611f8e81611b39565b9150611f9e876101408801611f33565b90509295509295909350565b6000806000806000806101c08789031215611fc457600080fd5b60a0870188811115611fd557600080fd5b879650611fe28982611f33565b95505061012087013567ffffffffffffffff8082111561200157600080fd5b61200d8a838b01611bfd565b955061014089013591508082111561202457600080fd5b5061203189828a01611bfd565b9350508761017f88011261204457600080fd5b61204c611ba3565b806101a089018a81111561205f57600080fd5b6101608a015b8181101561208657803561207881611a5e565b845260209384019301612065565b50819450803593505050509295509295509295565b83151581526060602082015260006120b66060830185611aeb565b9050826040830152949350505050565b6000806000606084860312156120db57600080fd5b6120e484611d83565b92506120f260208501611d83565b915061210060408501611d83565b90509250925092565b8060005b60028110156103a35781516001600160a01b031684526020938401939091019060010161210d565b8060005b60028110156103a3578151845260209384019390910190600101612139565b6001600160a01b03861681526020810185905260e0810161217c6040830186612109565b6121896080830185612135565b8260c08301529695505050505050565b600082601f8301126121aa57600080fd5b815160206121ba611d0c83611c6d565b82815260059290921b840181019181810190868411156121d957600080fd5b8286015b848110156121f457805183529183019183016121dd565b509695505050505050565b60006020828403121561221157600080fd5b815167ffffffffffffffff81111561222857600080fd5b611e3184828501612199565b8281526040810161178a6020830184611df1565b6000610100612257838a612109565b80604084015261226981840189611e52565b9050828103606084015261227d8188611aeb565b905082810360808401526122918187611aeb565b9150508360a08301526122a760c0830184612135565b979650505050505050565b600080604083850312156122c557600080fd5b82516122d081611a5e565b6020939093015192949293505050565b634e487b7160e01b600052601160045260246000fd5b808202811582820484141761136b5761136b6122e0565b634e487b7160e01b600052601260045260246000fd5b6000826123325761233261230d565b500490565b8181038181111561136b5761136b6122e0565b60006020828403121561235c57600080fd5b5051919050565b634e487b7160e01b600052603260045260246000fd5b8082018082111561136b5761136b6122e0565b60006001820161239e5761239e6122e0565b5060010190565b6000602082840312156123b757600080fd5b813561178a81611a5e565b6000602082840312156123d457600080fd5b61178a82611d83565b6000815180845260005b81811015612403576020818501810151868301820152016123e7565b506000602082860101526020601f19601f83011685010191505092915050565b60208152600061178a60208301846123dd565b82815260a0810160808360208401379392505050565b600061018061245b838e612109565b80604084015261246d8184018d611e52565b90508281036060840152612481818c611aeb565b6001600160a01b038b8116608086015260a085018b9052891660c085015283810360e085015290506124b381886123dd565b915050841515610100830152836101208301526124d4610140830184612135565b9b9a5050505050505050505050565b6000602082840312156124f557600080fd5b815161178a81611b39565b6000806040838503121561251357600080fd5b505080516020909101519092909150565b6001600160a01b0386811682526020820186905284811660408301528316606082015260c081016103126080830184612135565b6000806040838503121561256b57600080fd5b82519150602083015167ffffffffffffffff81111561258957600080fd5b61259585828601612199565b9150509250929050565b60008160020b8360020b806125b6576125b661230d565b627fffff198214600019821416156125d0576125d06122e0565b90059392505050565b60008260020b8260020b028060020b91508082146125f9576125f96122e0565b5092915050565b600282810b9082900b03627fffff198112627fffff8213171561136b5761136b6122e0565b600281810b9083900b01627fffff8113627fffff198212171561136b5761136b6122e0565b60006020828403121561265c57600080fd5b815161178a81611a5e565b60008060006060848603121561267c57600080fd5b835192506020840151915060408401519050925092509256fea2646970667358221220aa5b22fa323aced4edee678c6bf4038b3de3ae72f46cd27489feb7ff65bf689d64736f6c63430008110033",
  "deployedBytecode": "0x73000000000000000000000000000000000000000030146080604052600436106100925760003560e01c80636e81b629116100655780636e81b62914610150578063b8b4a44914610173578063bd13c52914610193578063cd8e20e7146101c257600080fd5b80631c2040d5146100975780634aa00915146100cd57806350d2e0ba146100ef57806351265e891461012e575b600080fd5b8180156100a357600080fd5b506100b76100b2366004611a86565b6101ef565b6040516100c49190611b26565b60405180910390f35b8180156100d957600080fd5b506100ed6100e8366004611b47565b61031c565b005b8180156100fb57600080fd5b5061010f61010a366004611c91565b6103a9565b604080516001600160a01b0390931683526020830191909152016100c4565b61014161013c366004611d95565b610504565b6040516100c493929190611e13565b61016361015e366004611e39565b6106ba565b6040516100c49493929190611e8b565b81801561017f57600080fd5b506100ed61018e366004611f44565b610a7d565b81801561019f57600080fd5b506101b36101ae366004611faa565b610dc8565b6040516100c49392919061209b565b6101d56101d03660046120c6565b611293565b60408051600293840b81529190920b6020820152016100c4565b606073__$295fb458e6648e6381ea46363bb426e5e7$__634b4bd6f7888860405180604001604052808a6001600160a01b03166001600160a01b03168152602001896001600160a01b03166001600160a01b0316815250604051806040016040528061027e8960008e6001600160a01b03166001600160a01b0316815260200190815260200160002054611358565b81526001600160a01b038b16600090815260208a81526040909120549101906102a690611358565b815250886040518663ffffffff1660e01b81526004016102ca959493929190612158565b600060405180830381865af41580156102e7573d6000803e3d6000fd5b505050506040513d6000823e601f3d908101601f1916820160405261030f91908101906121ff565b90505b9695505050505050565b60008215610395576040516335ffd9a360e11b815273__$79fe6ec7a3db45dafbed12dca1c6dad764$__90636bffb346906103609060058801908690600401612234565b60006040518083038186803b15801561037857600080fd5b505af415801561038c573d6000803e3d6000fd5b50505050600190505b80156103a3576000600e8501555b50505050565b6000806103b46119c4565b6040805180820190915260028a01546001600160a01b03908116825260038b01541660208201526103e9908290868b8a611371565b73__$79fe6ec7a3db45dafbed12dca1c6dad764$__6314ad109e6040518060400160405280886001600160a01b03166001600160a01b031681526020016104338560200151611557565b6001600160a01b0316905283516040808601516060870151825180840184526080890151815260a0890151602082015292516001600160e01b031960e088901b1681526104879594938f9291600401612248565b6040805180830381865af41580156104a3573d6000803e3d6000fd5b505050506040513d601f19601f820116820180604052508101906104c791906122b2565b909350915081156104f857620186a06104e16064846122f6565b6104eb9190612323565b6104f59083612337565b91505b50965096945050505050565b60008060008660030160149054906101000a900460ff16156106a35760028701546003880154604051637fd6c0a160e01b81526001600160a01b03808a16600483015292831660248201529116604482015260009073__$8f1afe7577f9ab973017c74eca19b86f3c$__90637fd6c0a190606401602060405180830381865af4158015610595573d6000803e3d6000fd5b505050506040513d601f19601f820116820180604052508101906105b9919061234a565b604080516060810190915260058a01805492935061067492829060ff1660038111156105e7576105e7611ddb565b60038111156105f8576105f8611ddb565b815260408051608081019182905260209092019190600184019060049082845b81548152602001906001019080831161061857505050918352505060408051608081019182905260209092019190600584019060049082845b8154815260200190600101908083116106515750505050508152505082876115bb565b9093509150828061069b575061068982611733565b15801561069b575061069b8887611750565b9350506106b0565b6106ad8786611750565b92505b9450945094915050565b60408051600480825260a082019092526060918291829182919060208201608080368337505060408051600480825260a08201909252929650905060208201608080368337505060408051600d8082526101c082019092529295509050602082016101a0803683375050604080516002808252606082018352939550929150602083019080368337505050600286015485519192506001600160a01b031690859060009061076a5761076a612363565b6001600160a01b039283166020918202929092010152600386015485519116908590600190811061079d5761079d612363565b6001600160a01b03928316602091820292909201015285548551911690859060029081106107cd576107cd612363565b6001600160a01b039283166020918202929092010152600186015485519116908590600390811061080057610800612363565b60200260200101906001600160a01b031690816001600160a01b0316815250508460030160169054906101000a900460020b8360008151811061084557610845612363565b600292830b602091820292909201015260038601548451600160c81b90910490910b908490600190811061087b5761087b612363565b600292830b602091820292909201015260038601548451600160e01b909104820b91859181106108ad576108ad612363565b600292830b602091820292909201015260048601548451910b90849060039081106108da576108da612363565b602002602001019060020b908160020b815250508460040160039054906101000a90046001600160801b03166001600160801b03168260008151811061092257610922612363565b6020908102919091010152600585015460ff16600381111561094657610946611ddb565b8260018151811061095957610959612363565b60200260200101818152505084600e01548260038151811061097d5761097d612363565b60200260200101818152505060005b60048110156109e3576006860181600481106109aa576109aa612363565b0154836109b8836004612379565b815181106109c8576109c8612363565b60209081029190910101526109dc8161238c565b905061098c565b5084600f015482600c815181106109fc576109fc612363565b6020026020010181815250508460030160149054906101000a900460ff1681600081518110610a2d57610a2d612363565b6020026020010190151590811515815250508460030160159054906101000a900460ff1681600181518110610a6457610a64612363565b6020026020010190151590811515815250509193509193565b610a8a60208501856123a5565b85546001600160a01b0319166001600160a01b03919091161785556000610ab760408601602087016123a5565b90506000610acb60608701604088016123a5565b90506000610adf60808801606089016123a5565b9050610aee60208701876123c2565b60038901805462ffffff92909216600160b01b0262ffffff60b01b19909216919091179055610b2360408701602088016123c2565b60038901805462ffffff92909216600160c81b0262ffffff60c81b19909216919091179055610b5860608701604088016123c2565b60038901805462ffffff92909216600160e01b0262ffffff60e01b19909216919091179055610b8d60808701606088016123c2565b60048901805462ffffff191662ffffff929092169190911790556001600160a01b038281169084161480610bd25750806001600160a01b0316836001600160a01b0316145b60405180604001604052806015815260200174141094cb4d48125b98dbdc9c9958dd08185cdcd95d605a1b81525090610c275760405162461bcd60e51b8152600401610c1e9190612423565b60405180910390fd5b50816001600160a01b0316836001600160a01b031603610c84576002880180546001600160a01b038085166001600160a01b031990921691909117909155600389018054600161ff0160a01b031916918316919091179055610cc9565b6002880180546001600160a01b038084166001600160a01b031990921691909117909155600389018054600161ff0160a01b03191691841691909117600160a81b1790555b8415610dbe5760038801805460ff60a01b1916600160a01b1790556040516335ffd9a360e11b815273__$79fe6ec7a3db45dafbed12dca1c6dad764$__90636bffb34690610d219060058c0190600190600401612234565b60006040518083038186803b158015610d3957600080fd5b505af4158015610d4d573d6000803e3d6000fd5b5050604051630593c4c960e01b815273__$79fe6ec7a3db45dafbed12dca1c6dad764$__9250630593c4c99150610d8d9060058c01908890600401612436565b60006040518083038186803b158015610da557600080fd5b505af4158015610db9573d6000803e3d6000fd5b505050505b5050505050505050565b600060606000610dd6611a03565b610de360208b018b6123a5565b6001600160a01b03166020820152896001602002016020810190610e0791906123a5565b6001600160a01b03166040820152896002602002016020810190610e2b91906123a5565b6001600160a01b03166060820152896003602002016020810190610e4f91906123a5565b6001600160a01b03166080820152896004602002016020810190610e7391906123a5565b6001600160a01b031660a0820152883560c0820152602089013560e0820152604089013561010082015280516060820151610eb49190889088908b90611371565b73__$79fe6ec7a3db45dafbed12dca1c6dad764$__637545be26604051806040016040528084608001516001600160a01b03166001600160a01b03168152602001610f06856000015160200151611557565b6001600160a01b03166001600160a01b031681525083600001516000015184600001516040015185602001518660c0015187604001518f60006001600160a01b03168a604001516001600160a01b0316148a600001516060015160405180604001604052808d600001516080015181526020018d6000015160a001518152506040518b63ffffffff1660e01b8152600401610faa9a9998979695949392919061244c565b602060405180830381865af4158015610fc7573d6000803e3d6000fd5b505050506040513d601f19601f82011682018060405250810190610feb91906124e3565b93508060e0015160001461115857805151805173__$8f1afe7577f9ab973017c74eca19b86f3c$__9163890ffb849160009061102957611029612363565b60200260200101518360e001518460a0015185610100015186600001516000015160008151811061105c5761105c612363565b60209081029190910101516040516370a0823160e01b81523060048201526001600160a01b03909116906370a0823190602401602060405180830381865afa1580156110ac573d6000803e3d6000fd5b505050506040513d601f19601f820116820180604052508101906110d0919061234a565b6040516001600160e01b031960e088901b1681526001600160a01b03958616600482015260248101949094529390911660448301526064820152608481019190915260a4016040805180830381865af4158015611131573d6000803e3d6000fd5b505050506040513d601f19601f820116820180604052508101906111559190612500565b50505b73__$8f1afe7577f9ab973017c74eca19b86f3c$__63ac2a37d6826080015183610100015184600001516000015160008151811061119857611198612363565b60200260200101518560000151600001516001815181106111bb576111bb612363565b602002602001015160405180604001604052808860000151604001516000815181106111e9576111e9612363565b6020026020010151815260200188600001516040015160018151811061121157611211612363565b60200260200101518152506040518663ffffffff1660e01b815260040161123c959493929190612524565b600060405180830381865af4158015611259573d6000803e3d6000fd5b505050506040513d6000823e601f3d908101601f191682016040526112819190810190612558565b949b949a509850929650505050505050565b60008060008560020b1280156112c45750600285900b836112b4818861259f565b6112be91906125d9565b60020b14155b156112fc57826001816112d78789612600565b6112e1919061259f565b6112eb9190612600565b6112f591906125d9565b915061131f565b82806113088688612600565b611312919061259f565b61131c91906125d9565b91505b8360020b600014611344576113358460026125d9565b61133f9083612625565b61134e565b61134e8383612625565b9050935093915050565b60008115611366578161136b565b620186a05b92915050565b6001600160a01b0381166020860181905260405163124fdbb760e21b8152600481019190915273__$7dde4232fad0cb3c495beb9e735b7d0c63$__9063493f6edc9060240160006040518083038186803b1580156113ce57600080fd5b505af41580156113e2573d6000803e3d6000fd5b505050506113ef82611791565b6060860181905261140090836117b8565b60a0870152608086015260408051600280825260608201835290916020830190803683375050508086528451602086015182519192909160009061144657611446612363565b60200260200101876000015160018151811061146457611464612363565b6001600160a01b0393841660209182029290920101529116905260408051600280825260608201909252908160200160208202803683375050506040860152845180516114ed9185916000919082906114bf576114bf612363565b60200260200101516001600160a01b03166001600160a01b0316815260200190815260200160002054611358565b856040015160008151811061150457611504612363565b60200260200101818152505061152d83600087600001516001815181106114bf576114bf612363565b856040015160018151811061154457611544612363565b6020026020010181815250505050505050565b6000816001600160a01b0316634046ebae6040518163ffffffff1660e01b8152600401602060405180830381865afa158015611597573d6000803e3d6000fd5b505050506040513d601f19601f8201168201806040525081019061136b919061264a565b60008080855160038111156115d2576115d2611ddb565b14611718576001855160038111156115ec576115ec611ddb565b0361164c576020850151518411158061160a57506020850151518311155b1561161b5750600190506002611718565b6020850151604001518410158061163a57506020850151604001518310155b1561164757506001905060035b611718565b60028551600381111561166157611661611ddb565b036116c15760208581015101518410801590611684575060208581015101518310155b156116475760208501516040015160019250841015806116ac57506020850151604001518310155b156116b957506003611718565b506001611718565b60208501516060015184118015906116e157506020850151606001518311155b156117185760208581015101516001925084111580611707575060208581015101518311155b1561171457506002611718565b5060015b8182611725578551611727565b815b91509150935093915050565b6000600182600381111561174957611749611ddb565b1192915050565b6003820154600483015460009161178a918491600160c81b8104600290810b92600160e01b8304820b92600160b01b9004820b910b61191a565b9392505050565b600081516000036117a457506000919050565b8180602001905181019061136b919061234a565b6000808315806117c85750600284145b1561184c57828060200190518101906117e19190612500565b925050670de0b6b3a7640000821115806117fc575060001982145b6040518060400160405280601381526020017254532d333020696e76616c69642076616c756560681b815250906118465760405162461bcd60e51b8152600401610c1e9190612423565b50611913565b60408051808201909152601081526f54532d392077726f6e672076616c756560801b6020820152600185146118945760405162461bcd60e51b8152600401610c1e9190612423565b50828060200190518101906118a99190612667565b909350915050670de0b6b3a7640000821115806118c7575060001982145b6040518060400160405280601381526020017254532d333020696e76616c69642076616c756560681b815250906119115760405162461bcd60e51b8152600401610c1e9190612423565b505b9250929050565b6000600283900b61192b8686612600565b60020b03611954578460020b8660020b128061194d57508360020b8660020b12155b90506119bb565b600060026119628787612600565b61196c919061259f565b9050600061197a8288612625565b90508060020b8860020b136119a157600284900b6119988983612600565b60020b136119b6565b600284900b6119b0828a612600565b60020b12155b925050505b95945050505050565b6040518060c001604052806060815260200160006001600160a01b03168152602001606081526020016000815260200160008152602001600081525090565b604051806101400160405280611a176119c4565b815260006020820181905260408201819052606082018190526080820181905260a0820181905260c0820181905260e0820181905261010082018190526101209091015290565b6001600160a01b0381168114611a7357600080fd5b50565b8035611a8181611a5e565b919050565b60008060008060008060c08789031215611a9f57600080fd5b8635611aaa81611a5e565b9550602087013594506040870135611ac181611a5e565b93506060870135611ad181611a5e565b9598949750929560808101359460a0909101359350915050565b600081518084526020808501945080840160005b83811015611b1b57815187529582019590820190600101611aff565b509495945050505050565b60208152600061178a6020830184611aeb565b8015158114611a7357600080fd5b600080600060608486031215611b5c57600080fd5b833592506020840135611b6e81611b39565b9150604084013560048110611b8257600080fd5b809150509250925092565b634e487b7160e01b600052604160045260246000fd5b6040805190810167ffffffffffffffff81118282101715611bc657611bc6611b8d565b60405290565b604051601f8201601f1916810167ffffffffffffffff81118282101715611bf557611bf5611b8d565b604052919050565b600082601f830112611c0e57600080fd5b813567ffffffffffffffff811115611c2857611c28611b8d565b611c3b601f8201601f1916602001611bcc565b818152846020838601011115611c5057600080fd5b816020850160208301376000918101602001919091529392505050565b600067ffffffffffffffff821115611c8757611c87611b8d565b5060051b60200190565b60008060008060008060c08789031215611caa57600080fd5b8635955060208088013567ffffffffffffffff80821115611cca57600080fd5b611cd68b838c01611bfd565b975060408a0135915080821115611cec57600080fd5b508801601f81018a13611cfe57600080fd5b8035611d11611d0c82611c6d565b611bcc565b81815260059190911b8201830190838101908c831115611d3057600080fd5b928401925b82841015611d4e57833582529284019290840190611d35565b8098505050505050611d6260608801611a76565b9250611d7060808801611a76565b915060a087013590509295509295509295565b8035600281900b8114611a8157600080fd5b60008060008060808587031215611dab57600080fd5b843593506020850135611dbd81611a5e565b9250611dcb60408601611d83565b9396929550929360600135925050565b634e487b7160e01b600052602160045260246000fd5b60048110611e0f57634e487b7160e01b600052602160045260246000fd5b9052565b8315158152821515602082015260608101611e316040830184611df1565b949350505050565b600060208284031215611e4b57600080fd5b5035919050565b600081518084526020808501945080840160005b83811015611b1b5781516001600160a01b031687529582019590820190600101611e66565b608081526000611e9e6080830187611e52565b82810360208481019190915286518083528782019282019060005b81811015611ed857845160020b83529383019391830191600101611eb9565b50508481036040860152611eec8188611aeb565b858103606087015286518082528388019450908301915060005b81811015611f24578451151583529383019391830191600101611f06565b50909998505050505050505050565b806080810183101561136b57600080fd5b60008060008060006101c08688031215611f5d57600080fd5b85359450611f6e8760208801611f33565b9350611f7d8760a08801611f33565b9250610120860135611f8e81611b39565b9150611f9e876101408801611f33565b90509295509295909350565b6000806000806000806101c08789031215611fc457600080fd5b60a0870188811115611fd557600080fd5b879650611fe28982611f33565b95505061012087013567ffffffffffffffff8082111561200157600080fd5b61200d8a838b01611bfd565b955061014089013591508082111561202457600080fd5b5061203189828a01611bfd565b9350508761017f88011261204457600080fd5b61204c611ba3565b806101a089018a81111561205f57600080fd5b6101608a015b8181101561208657803561207881611a5e565b845260209384019301612065565b50819450803593505050509295509295509295565b83151581526060602082015260006120b66060830185611aeb565b9050826040830152949350505050565b6000806000606084860312156120db57600080fd5b6120e484611d83565b92506120f260208501611d83565b915061210060408501611d83565b90509250925092565b8060005b60028110156103a35781516001600160a01b031684526020938401939091019060010161210d565b8060005b60028110156103a3578151845260209384019390910190600101612139565b6001600160a01b03861681526020810185905260e0810161217c6040830186612109565b6121896080830185612135565b8260c08301529695505050505050565b600082601f8301126121aa57600080fd5b815160206121ba611d0c83611c6d565b82815260059290921b840181019181810190868411156121d957600080fd5b8286015b848110156121f457805183529183019183016121dd565b509695505050505050565b60006020828403121561221157600080fd5b815167ffffffffffffffff81111561222857600080fd5b611e3184828501612199565b8281526040810161178a6020830184611df1565b6000610100612257838a612109565b80604084015261226981840189611e52565b9050828103606084015261227d8188611aeb565b905082810360808401526122918187611aeb565b9150508360a08301526122a760c0830184612135565b979650505050505050565b600080604083850312156122c557600080fd5b82516122d081611a5e565b6020939093015192949293505050565b634e487b7160e01b600052601160045260246000fd5b808202811582820484141761136b5761136b6122e0565b634e487b7160e01b600052601260045260246000fd5b6000826123325761233261230d565b500490565b8181038181111561136b5761136b6122e0565b60006020828403121561235c57600080fd5b5051919050565b634e487b7160e01b600052603260045260246000fd5b8082018082111561136b5761136b6122e0565b60006001820161239e5761239e6122e0565b5060010190565b6000602082840312156123b757600080fd5b813561178a81611a5e565b6000602082840312156123d457600080fd5b61178a82611d83565b6000815180845260005b81811015612403576020818501810151868301820152016123e7565b506000602082860101526020601f19601f83011685010191505092915050565b60208152600061178a60208301846123dd565b82815260a0810160808360208401379392505050565b600061018061245b838e612109565b80604084015261246d8184018d611e52565b90508281036060840152612481818c611aeb565b6001600160a01b038b8116608086015260a085018b9052891660c085015283810360e085015290506124b381886123dd565b915050841515610100830152836101208301526124d4610140830184612135565b9b9a5050505050505050505050565b6000602082840312156124f557600080fd5b815161178a81611b39565b6000806040838503121561251357600080fd5b505080516020909101519092909150565b6001600160a01b0386811682526020820186905284811660408301528316606082015260c081016103126080830184612135565b6000806040838503121561256b57600080fd5b82519150602083015167ffffffffffffffff81111561258957600080fd5b61259585828601612199565b9150509250929050565b60008160020b8360020b806125b6576125b661230d565b627fffff198214600019821416156125d0576125d06122e0565b90059392505050565b60008260020b8260020b028060020b91508082146125f9576125f96122e0565b5092915050565b600282810b9082900b03627fffff198112627fffff8213171561136b5761136b6122e0565b600281810b9083900b01627fffff8113627fffff198212171561136b5761136b6122e0565b60006020828403121561265c57600080fd5b815161178a81611a5e565b60008060006060848603121561267c57600080fd5b835192506020840151915060408401519050925092509256fea2646970667358221220aa5b22fa323aced4edee678c6bf4038b3de3ae72f46cd27489feb7ff65bf689d64736f6c63430008110033",
  "libraries": {
    "BorrowLib": "0x158Da3ec4771bC05F4898BBF53141cB773754E7C",
    "ConverterStrategyBaseLib2": "0xc1Ed5dD095C703421F623F416b88bbf57a1E1012",
    "PairBasedStrategyLib": "0x626aB57b826869B8AE32D32487E0AB6405625bb3",
    "StrategyLib2": "0x06c875daA1Dc2E27dd7381EB3b6be4F99553a609"
  },
  "devdoc": {
    "kind": "dev",
    "methods": {
      "_beforeDeposit(ITetuConverter,uint256,address,address,uint256,mapping(address => uint256) storage)": {
        "params": {
          "amount_": "Amount of tokenA",
          "liquidationThresholds": "Dust-thresholds for the tokens A and B",
          "prop0": "Required proportion of underlying, > 0. Proportion of not-underlying is calculates as 1e18 - {prop0}",
          "tokenA": "Underlying",
          "tokenB": "Not-underlying"
        },
        "returns": {
          "tokenAmounts": "Amounts of token A and B to be deposited, [A, B]"
        }
      },
      "getDefaultState(PairBasedStrategyLogicLib.PairState storage)": {
        "returns": {
          "addr": "[tokenA, tokenB, pool, profitHolder]",
          "boolValues": "[isStablePool, depositorSwapTokens]",
          "nums": "[totalLiquidity, fuse-status-tokenA, withdrawDone, 4 thresholds of token A, lastRebalanceNoSwap, 5 reserved values]",
          "tickData": "[tickSpacing, lowerTick, upperTick, rebalanceTickRange]"
        }
      },
      "needStrategyRebalance(PairBasedStrategyLogicLib.PairState storage,ITetuConverter,int24,uint256)": {
        "returns": {
          "needRebalance": "A boolean indicating if {rebalanceNoSwaps} should be called"
        }
      },
      "quoteWithdrawByAgg(PairBasedStrategyLogicLib.PairState storage,bytes,uint256[],address,ITetuConverter,mapping(address => uint256) storage)": {
        "params": {
          "amounts_": "Amounts of [underlying, not-underlying] that will be received from the pool before withdrawing"
        }
      },
      "setInitialDepositorValues(PairBasedStrategyLogicLib.PairState storage,address[4],int24[4],bool,uint256[4])": {
        "params": {
          "addr": "[pool, asset, pool.token0(), pool.token1()]        asset: Underlying asset of the depositor.",
          "fuseThresholds": "Fuse thresholds for tokens (stable pool only)",
          "pairState": "Depositor storage state struct to be initialized",
          "tickData": "[tickSpacing, lowerTick, upperTick, rebalanceTickRange]"
        }
      },
      "withdrawByAggStep(address[5],uint256[4],bytes,bytes,address[2],mapping(address => uint256) storage)": {
        "params": {
          "addr_": "[tokenToSwap, aggregator, controller, converter, splitter]",
          "tokens": "[underlying, not-underlying] (values been read from pairBase)",
          "values_": "[amountToSwap_, profitToCover, oldTotalAssets, not used here]"
        },
        "returns": {
          "completed": "All debts were closed, leftovers were swapped to proper proportions",
          "tokenAmounts": "Amounts to be deposited to pool. If {tokenAmounts} contains zero amount return empty array."
        }
      }
    },
    "version": 1
  },
  "userdoc": {
    "kind": "user",
    "methods": {
      "_beforeDeposit(ITetuConverter,uint256,address,address,uint256,mapping(address => uint256) storage)": {
        "notice": "Prepare array of amounts ready to deposit, borrow missed amounts"
      },
      "getDefaultState(PairBasedStrategyLogicLib.PairState storage)": {
        "notice": "Returns the current state of the contract"
      },
      "needStrategyRebalance(PairBasedStrategyLogicLib.PairState storage,ITetuConverter,int24,uint256)": {
        "notice": "Determine if the strategy needs to be rebalanced."
      },
      "quoteWithdrawByAgg(PairBasedStrategyLogicLib.PairState storage,bytes,uint256[],address,ITetuConverter,mapping(address => uint256) storage)": {
        "notice": "Get info about a swap required by next call of {withdrawByAggStep} within the given plan"
      },
      "setInitialDepositorValues(PairBasedStrategyLogicLib.PairState storage,address[4],int24[4],bool,uint256[4])": {
        "notice": "Set the initial values to PairState instance"
      },
      "withdrawByAggStep(address[5],uint256[4],bytes,bytes,address[2],mapping(address => uint256) storage)": {
        "notice": "Calculate amounts to be deposited to pool, calculate loss, fix profitToCover"
      }
    },
    "notice": "Library for the UniV3-like strategies with two tokens in the pool",
    "version": 1
  },
  "storageLayout": {
    "storage": [],
    "types": null
  }
}