{
  "address": "0xb17ba411Fa350Aa24495cBfE948182f2054FddeC",
  "abi": [
    {
      "inputs": [
        {
          "internalType": "address",
          "name": "strategy_",
          "type": "address"
        }
      ],
      "stateMutability": "nonpayable",
      "type": "constructor"
    },
    {
      "inputs": [],
      "name": "VERSION",
      "outputs": [
        {
          "internalType": "string",
          "name": "",
          "type": "string"
        }
      ],
      "stateMutability": "view",
      "type": "function"
    },
    {
      "inputs": [],
      "name": "acceptOwnership",
      "outputs": [],
      "stateMutability": "nonpayable",
      "type": "function"
    },
    {
      "inputs": [],
      "name": "call",
      "outputs": [],
      "stateMutability": "nonpayable",
      "type": "function"
    },
    {
      "inputs": [
        {
          "internalType": "address",
          "name": "operator",
          "type": "address"
        },
        {
          "internalType": "bool",
          "name": "status",
          "type": "bool"
        }
      ],
      "name": "changeOperatorStatus",
      "outputs": [],
      "stateMutability": "nonpayable",
      "type": "function"
    },
    {
      "inputs": [],
      "name": "checker",
      "outputs": [
        {
          "internalType": "bool",
          "name": "canExec",
          "type": "bool"
        },
        {
          "internalType": "bytes",
          "name": "execPayload",
          "type": "bytes"
        }
      ],
      "stateMutability": "view",
      "type": "function"
    },
    {
      "inputs": [],
      "name": "delay",
      "outputs": [
        {
          "internalType": "uint256",
          "name": "",
          "type": "uint256"
        }
      ],
      "stateMutability": "view",
      "type": "function"
    },
    {
      "inputs": [],
      "name": "lastRebalance",
      "outputs": [
        {
          "internalType": "uint256",
          "name": "",
          "type": "uint256"
        }
      ],
      "stateMutability": "view",
      "type": "function"
    },
    {
      "inputs": [
        {
          "internalType": "address",
          "name": "value",
          "type": "address"
        }
      ],
      "name": "offerOwnership",
      "outputs": [],
      "stateMutability": "nonpayable",
      "type": "function"
    },
    {
      "inputs": [
        {
          "internalType": "address",
          "name": "",
          "type": "address"
        }
      ],
      "name": "operators",
      "outputs": [
        {
          "internalType": "bool",
          "name": "",
          "type": "bool"
        }
      ],
      "stateMutability": "view",
      "type": "function"
    },
    {
      "inputs": [],
      "name": "owner",
      "outputs": [
        {
          "internalType": "address",
          "name": "",
          "type": "address"
        }
      ],
      "stateMutability": "view",
      "type": "function"
    },
    {
      "inputs": [],
      "name": "pendingOwner",
      "outputs": [
        {
          "internalType": "address",
          "name": "",
          "type": "address"
        }
      ],
      "stateMutability": "view",
      "type": "function"
    },
    {
      "inputs": [
        {
          "internalType": "uint256",
          "name": "value",
          "type": "uint256"
        }
      ],
      "name": "setDelay",
      "outputs": [],
      "stateMutability": "nonpayable",
      "type": "function"
    },
    {
      "inputs": [],
      "name": "strategy",
      "outputs": [
        {
          "internalType": "address",
          "name": "",
          "type": "address"
        }
      ],
      "stateMutability": "view",
      "type": "function"
    }
  ],
  "transactionHash": "0x1037842ae95704be3a8bff8b098d7d02bd2e3ca1dad47aa7668e662aba55ae6a",
  "args": [
    "0x3019e52aCb4717cDF79323592f1F897d243278F4"
  ],
  "numDeployments": 1,
  "solcInputHash": "574b45bd4588bcafa47b84395c5d31a0",
  "bytecode": "0x60a060405234801561001057600080fd5b50604051610ea2380380610ea283398101604081905261002f91610057565b600080546001600160a01b03191633179055603c6002556001600160a01b0316608052610087565b60006020828403121561006957600080fd5b81516001600160a01b038116811461008057600080fd5b9392505050565b608051610de46100be6000396000818161018401528181610265015281816102ff0152818161039201526104e80152610de46000f3fe608060405234801561001057600080fd5b50600436106100bf5760003560e01c80638da5cb5b1161007c5780638da5cb5b146101415780638e3e92f21461016c578063a8c62e761461017f578063cf5303cf146101a6578063e177246e146101bc578063e30c3978146101cf578063ffa1ad74146101e257600080fd5b8063106b9ca1146100c457806313e7c9d8146100e057806328b5e32b146101135780636575c4581461011d5780636a42b8f81461013057806379ba509714610139575b600080fd5b6100cd60035481565b6040519081526020015b60405180910390f35b6101036100ee366004610898565b60046020526000908152604090205460ff1681565b60405190151581526020016100d7565b61011b610213565b005b61011b61012b3660046108ca565b6103ce565b6100cd60025481565b61011b610423565b600054610154906001600160a01b031681565b6040516001600160a01b0390911681526020016100d7565b61011b61017a366004610898565b610494565b6101547f000000000000000000000000000000000000000000000000000000000000000081565b6101ae6104e0565b6040516100d7929190610953565b61011b6101ca366004610976565b6106d4565b600154610154906001600160a01b031681565b610206604051806040016040528060058152602001640322e302e360dc1b81525081565b6040516100d7919061098f565b3360009081526004602052604090205460ff166102635760405162461bcd60e51b815260206004820152600960248201526810b7b832b930ba37b960b91b60448201526064015b60405180910390fd5b7f00000000000000000000000000000000000000000000000000000000000000006001600160a01b0316637d7c2a1c6040518163ffffffff1660e01b8152600401600060405180830381600087803b1580156102be57600080fd5b505af19250505080156102cf575060015b6103c8576102db6109a2565b806308c379a00361035b57506102ef6109f9565b806102fa575061035d565b6103237f0000000000000000000000000000000000000000000000000000000000000000610703565b81604051602001610335929190610a83565b60408051601f198184030181529082905262461bcd60e51b825261025a9160040161098f565b505b3d808015610387576040519150601f19603f3d011682016040523d82523d6000602084013e61038c565b606091505b506103b67f0000000000000000000000000000000000000000000000000000000000000000610703565b81604051602001610335929190610add565b42600355565b6000546001600160a01b031633146103f85760405162461bcd60e51b815260040161025a90610b42565b6001600160a01b03919091166000908152600460205260409020805460ff1916911515919091179055565b6001546001600160a01b0316331461046d5760405162461bcd60e51b815260206004820152600d60248201526c10b832b73234b733a7bbb732b960991b604482015260640161025a565b60018054600080546001600160a01b03199081166001600160a01b03841617909155169055565b6000546001600160a01b031633146104be5760405162461bcd60e51b815260040161025a90610b42565b600180546001600160a01b0319166001600160a01b0392909216919091179055565b6000606060007f000000000000000000000000000000000000000000000000000000000000000090506000816001600160a01b0316633cd8045e6040518163ffffffff1660e01b8152600401602060405180830381865afa158015610549573d6000803e3d6000fd5b505050506040513d601f19601f8201168201806040525081019061056d9190610b62565b604051630150908f60e31b81526001600160a01b03848116600483015291925090821690630a84847890602401602060405180830381865afa1580156105b7573d6000803e3d6000fd5b505050506040513d601f19601f820116820180604052508101906105db9190610b7f565b1580156105f65750426002546003546105f49190610bb2565b105b801561065f5750816001600160a01b031663ffb86c6a6040518163ffffffff1660e01b8152600401602060405180830381865afa15801561063b573d6000803e3d6000fd5b505050506040513d601f19601f8201168201806040525081019061065f9190610b7f565b156106995750506040805160048152602481019091526020810180516001600160e01b03166328b5e32b60e01b1790526001939092509050565b6000604051806040016040528060168152602001754e6f7420726561647920746f20726562616c616e636560501b8152509350935050509091565b6000546001600160a01b031633146106fe5760405162461bcd60e51b815260040161025a90610b42565b600255565b60408051602880825260608281019093526000919060208201818036833701905050905060005b6014811015610843576000610740826013610bcb565b61074b906008610bde565b610756906002610cd9565b610769906001600160a01b038716610cfb565b60f81b9050600060108260f81c6107809190610d0f565b60f81b905060008160f81c60106107979190610d31565b8360f81c6107a59190610d4d565b60f81b90506107b38261084a565b856107bf866002610bde565b815181106107cf576107cf610d66565b60200101906001600160f81b031916908160001a9053506107ef8161084a565b856107fb866002610bde565b610806906001610bb2565b8151811061081657610816610d66565b60200101906001600160f81b031916908160001a905350505050808061083b90610d7c565b91505061072a565b5092915050565b6000600a60f883901c10156108715761086860f883901c6030610d95565b60f81b92915050565b61086860f883901c6057610d95565b6001600160a01b038116811461089557600080fd5b50565b6000602082840312156108aa57600080fd5b81356108b581610880565b9392505050565b801515811461089557600080fd5b600080604083850312156108dd57600080fd5b82356108e881610880565b915060208301356108f8816108bc565b809150509250929050565b60005b8381101561091e578181015183820152602001610906565b50506000910152565b6000815180845261093f816020860160208601610903565b601f01601f19169290920160200192915050565b821515815260406020820152600061096e6040830184610927565b949350505050565b60006020828403121561098857600080fd5b5035919050565b6020815260006108b56020830184610927565b600060033d11156109bb5760046000803e5060005160e01c5b90565b601f8201601f1916810167ffffffffffffffff811182821017156109f257634e487b7160e01b600052604160045260246000fd5b6040525050565b600060443d1015610a075790565b6040516003193d81016004833e81513d67ffffffffffffffff8160248401118184111715610a3757505050505090565b8285019150815181811115610a4f5750505050505090565b843d8701016020828501011115610a695750505050505090565b610a78602082860101876109be565b509095945050505050565b710a6e8e4c2e8cacef240cae4e4dee4744060f60731b815260008351610ab0816012850160208801610903565b600160fd1b6012918401918201528351610ad1816013840160208801610903565b01601301949350505050565b7f5374726174656779206c6f772d6c6576656c206572726f723a20307800000000815260008351610b1581601c850160208801610903565b600160fd1b601c918401918201528351610b3681601d840160208801610903565b01601d01949350505050565b60208082526006908201526510b7bbb732b960d11b604082015260600190565b600060208284031215610b7457600080fd5b81516108b581610880565b600060208284031215610b9157600080fd5b81516108b5816108bc565b634e487b7160e01b600052601160045260246000fd5b80820180821115610bc557610bc5610b9c565b92915050565b81810381811115610bc557610bc5610b9c565b8082028115828204841417610bc557610bc5610b9c565b600181815b80851115610c30578160001904821115610c1657610c16610b9c565b80851615610c2357918102915b93841c9390800290610bfa565b509250929050565b600082610c4757506001610bc5565b81610c5457506000610bc5565b8160018114610c6a5760028114610c7457610c90565b6001915050610bc5565b60ff841115610c8557610c85610b9c565b50506001821b610bc5565b5060208310610133831016604e8410600b8410161715610cb3575081810a610bc5565b610cbd8383610bf5565b8060001904821115610cd157610cd1610b9c565b029392505050565b60006108b58383610c38565b634e487b7160e01b600052601260045260246000fd5b600082610d0a57610d0a610ce5565b500490565b600060ff831680610d2257610d22610ce5565b8060ff84160491505092915050565b60ff818116838216029081169081811461084357610843610b9c565b60ff8281168282160390811115610bc557610bc5610b9c565b634e487b7160e01b600052603260045260246000fd5b600060018201610d8e57610d8e610b9c565b5060010190565b60ff8181168382160190811115610bc557610bc5610b9c56fea2646970667358221220ed904407eacc9d3fdb04ca1b6f4789fe33ccc2ff0d1f28be8957a1893c2a3cba64736f6c63430008110033",
  "devdoc": {
    "author": "a17",
    "kind": "dev",
    "methods": {},
    "title": "Gelato resolver for rebalancing strategies",
    "version": 1
  },
  "userdoc": {
    "kind": "user",
    "methods": {},
    "version": 1
  },
  "storageLayout": {
    "storage": [
      {
        "astId": 122488,
        "contract": "contracts/tools/RebalanceResolver.sol:RebalanceResolver",
        "label": "owner",
        "offset": 0,
        "slot": "0",
        "type": "t_address"
      },
      {
        "astId": 122490,
        "contract": "contracts/tools/RebalanceResolver.sol:RebalanceResolver",
        "label": "pendingOwner",
        "offset": 0,
        "slot": "1",
        "type": "t_address"
      },
      {
        "astId": 122492,
        "contract": "contracts/tools/RebalanceResolver.sol:RebalanceResolver",
        "label": "delay",
        "offset": 0,
        "slot": "2",
        "type": "t_uint256"
      },
      {
        "astId": 122494,
        "contract": "contracts/tools/RebalanceResolver.sol:RebalanceResolver",
        "label": "lastRebalance",
        "offset": 0,
        "slot": "3",
        "type": "t_uint256"
      },
      {
        "astId": 122498,
        "contract": "contracts/tools/RebalanceResolver.sol:RebalanceResolver",
        "label": "operators",
        "offset": 0,
        "slot": "4",
        "type": "t_mapping(t_address,t_bool)"
      }
    ],
    "types": {
      "t_address": {
        "encoding": "inplace",
        "label": "address",
        "numberOfBytes": "20"
      },
      "t_bool": {
        "encoding": "inplace",
        "label": "bool",
        "numberOfBytes": "1"
      },
      "t_mapping(t_address,t_bool)": {
        "encoding": "mapping",
        "key": "t_address",
        "label": "mapping(address => bool)",
        "numberOfBytes": "32",
        "value": "t_bool"
      },
      "t_uint256": {
        "encoding": "inplace",
        "label": "uint256",
        "numberOfBytes": "32"
      }
    }
  }
}