{
  "address": "0xa97BE2967D868a043E2eF0e5f6157933addDCf51",
  "abi": [
    {
      "anonymous": false,
      "inputs": [
        {
          "indexed": false,
          "internalType": "address",
          "name": "controller",
          "type": "address"
        },
        {
          "indexed": false,
          "internalType": "uint256",
          "name": "ts",
          "type": "uint256"
        },
        {
          "indexed": false,
          "internalType": "uint256",
          "name": "block",
          "type": "uint256"
        }
      ],
      "name": "ContractInitialized",
      "type": "event"
    },
    {
      "anonymous": false,
      "inputs": [
        {
          "indexed": false,
          "internalType": "uint8",
          "name": "version",
          "type": "uint8"
        }
      ],
      "name": "Initialized",
      "type": "event"
    },
    {
      "anonymous": false,
      "inputs": [
        {
          "indexed": false,
          "internalType": "uint256",
          "name": "value",
          "type": "uint256"
        },
        {
          "indexed": false,
          "internalType": "address",
          "name": "oldLogic",
          "type": "address"
        }
      ],
      "name": "RevisionIncreased",
      "type": "event"
    },
    {
      "inputs": [],
      "name": "CONTROLLABLE_VERSION",
      "outputs": [
        {
          "internalType": "string",
          "name": "",
          "type": "string"
        }
      ],
      "stateMutability": "view",
      "type": "function"
    },
    {
      "inputs": [],
      "name": "DELAY_RATE_DENOMINATOR",
      "outputs": [
        {
          "internalType": "uint256",
          "name": "",
          "type": "uint256"
        }
      ],
      "stateMutability": "view",
      "type": "function"
    },
    {
      "inputs": [],
      "name": "VERSION",
      "outputs": [
        {
          "internalType": "string",
          "name": "",
          "type": "string"
        }
      ],
      "stateMutability": "view",
      "type": "function"
    },
    {
      "inputs": [],
      "name": "acceptOwnership",
      "outputs": [],
      "stateMutability": "nonpayable",
      "type": "function"
    },
    {
      "inputs": [
        {
          "internalType": "address[]",
          "name": "_strategies",
          "type": "address[]"
        }
      ],
      "name": "call",
      "outputs": [
        {
          "internalType": "uint256",
          "name": "amountOfCalls",
          "type": "uint256"
        }
      ],
      "stateMutability": "nonpayable",
      "type": "function"
    },
    {
      "inputs": [
        {
          "internalType": "address",
          "name": "operator",
          "type": "address"
        },
        {
          "internalType": "bool",
          "name": "status",
          "type": "bool"
        }
      ],
      "name": "changeOperatorStatus",
      "outputs": [],
      "stateMutability": "nonpayable",
      "type": "function"
    },
    {
      "inputs": [],
      "name": "checker",
      "outputs": [
        {
          "internalType": "bool",
          "name": "canExec",
          "type": "bool"
        },
        {
          "internalType": "bytes",
          "name": "execPayload",
          "type": "bytes"
        }
      ],
      "stateMutability": "view",
      "type": "function"
    },
    {
      "inputs": [],
      "name": "controller",
      "outputs": [
        {
          "internalType": "address",
          "name": "",
          "type": "address"
        }
      ],
      "stateMutability": "view",
      "type": "function"
    },
    {
      "inputs": [],
      "name": "created",
      "outputs": [
        {
          "internalType": "uint256",
          "name": "",
          "type": "uint256"
        }
      ],
      "stateMutability": "view",
      "type": "function"
    },
    {
      "inputs": [],
      "name": "createdBlock",
      "outputs": [
        {
          "internalType": "uint256",
          "name": "",
          "type": "uint256"
        }
      ],
      "stateMutability": "view",
      "type": "function"
    },
    {
      "inputs": [],
      "name": "delay",
      "outputs": [
        {
          "internalType": "uint256",
          "name": "",
          "type": "uint256"
        }
      ],
      "stateMutability": "view",
      "type": "function"
    },
    {
      "inputs": [
        {
          "internalType": "address",
          "name": "",
          "type": "address"
        }
      ],
      "name": "delayRate",
      "outputs": [
        {
          "internalType": "uint256",
          "name": "",
          "type": "uint256"
        }
      ],
      "stateMutability": "view",
      "type": "function"
    },
    {
      "inputs": [
        {
          "internalType": "address",
          "name": "oldLogic",
          "type": "address"
        }
      ],
      "name": "increaseRevision",
      "outputs": [],
      "stateMutability": "nonpayable",
      "type": "function"
    },
    {
      "inputs": [
        {
          "internalType": "address",
          "name": "controller_",
          "type": "address"
        }
      ],
      "name": "init",
      "outputs": [],
      "stateMutability": "nonpayable",
      "type": "function"
    },
    {
      "inputs": [
        {
          "internalType": "address",
          "name": "_value",
          "type": "address"
        }
      ],
      "name": "isController",
      "outputs": [
        {
          "internalType": "bool",
          "name": "",
          "type": "bool"
        }
      ],
      "stateMutability": "view",
      "type": "function"
    },
    {
      "inputs": [
        {
          "internalType": "address",
          "name": "_value",
          "type": "address"
        }
      ],
      "name": "isGovernance",
      "outputs": [
        {
          "internalType": "bool",
          "name": "",
          "type": "bool"
        }
      ],
      "stateMutability": "view",
      "type": "function"
    },
    {
      "inputs": [
        {
          "internalType": "address",
          "name": "strategy",
          "type": "address"
        }
      ],
      "name": "lastRebalance",
      "outputs": [
        {
          "internalType": "uint256",
          "name": "lastRebalanceTimestamp",
          "type": "uint256"
        }
      ],
      "stateMutability": "view",
      "type": "function"
    },
    {
      "inputs": [],
      "name": "maxGas",
      "outputs": [
        {
          "internalType": "uint256",
          "name": "",
          "type": "uint256"
        }
      ],
      "stateMutability": "view",
      "type": "function"
    },
    {
      "inputs": [
        {
          "internalType": "address",
          "name": "value",
          "type": "address"
        }
      ],
      "name": "offerOwnership",
      "outputs": [],
      "stateMutability": "nonpayable",
      "type": "function"
    },
    {
      "inputs": [
        {
          "internalType": "address",
          "name": "",
          "type": "address"
        }
      ],
      "name": "operators",
      "outputs": [
        {
          "internalType": "bool",
          "name": "",
          "type": "bool"
        }
      ],
      "stateMutability": "view",
      "type": "function"
    },
    {
      "inputs": [],
      "name": "owner",
      "outputs": [
        {
          "internalType": "address",
          "name": "",
          "type": "address"
        }
      ],
      "stateMutability": "view",
      "type": "function"
    },
    {
      "inputs": [],
      "name": "pendingOwner",
      "outputs": [
        {
          "internalType": "address",
          "name": "",
          "type": "address"
        }
      ],
      "stateMutability": "view",
      "type": "function"
    },
    {
      "inputs": [],
      "name": "previousImplementation",
      "outputs": [
        {
          "internalType": "address",
          "name": "",
          "type": "address"
        }
      ],
      "stateMutability": "view",
      "type": "function"
    },
    {
      "inputs": [],
      "name": "revision",
      "outputs": [
        {
          "internalType": "uint256",
          "name": "",
          "type": "uint256"
        }
      ],
      "stateMutability": "view",
      "type": "function"
    },
    {
      "inputs": [
        {
          "internalType": "uint256",
          "name": "value",
          "type": "uint256"
        }
      ],
      "name": "setDelay",
      "outputs": [],
      "stateMutability": "nonpayable",
      "type": "function"
    },
    {
      "inputs": [
        {
          "internalType": "address[]",
          "name": "_strategies",
          "type": "address[]"
        },
        {
          "internalType": "uint256",
          "name": "value",
          "type": "uint256"
        }
      ],
      "name": "setDelayRate",
      "outputs": [],
      "stateMutability": "nonpayable",
      "type": "function"
    },
    {
      "inputs": [
        {
          "internalType": "uint256",
          "name": "value",
          "type": "uint256"
        }
      ],
      "name": "setMaxGas",
      "outputs": [],
      "stateMutability": "nonpayable",
      "type": "function"
    },
    {
      "inputs": [
        {
          "internalType": "bytes4",
          "name": "interfaceId",
          "type": "bytes4"
        }
      ],
      "name": "supportsInterface",
      "outputs": [
        {
          "internalType": "bool",
          "name": "",
          "type": "bool"
        }
      ],
      "stateMutability": "view",
      "type": "function"
    }
  ],
  "transactionHash": "0xb3558fa286c966395bafc2bf44e57234b7ba2d7c162da88f4f0ab9721dd250dc",
  "args": [],
  "numDeployments": 4,
  "solcInputHash": "cb56cce874088bceea769ea68c6b03ac",
  "bytecode": "0x608060405234801561001057600080fd5b5061001961001e565b6100dd565b600054610100900460ff161561008a5760405162461bcd60e51b815260206004820152602760248201527f496e697469616c697a61626c653a20636f6e747261637420697320696e697469604482015266616c697a696e6760c81b606482015260840160405180910390fd5b60005460ff908116146100db576000805460ff191660ff9081179091556040519081527f7f26b83ff96e1f2b6a682f133852f6798a09c465da95921460cefb38474024989060200160405180910390a15b565b611f34806100ec6000396000f3fe608060405234801561001057600080fd5b50600436106101845760003560e01c80638e3e92f2116100d9578063e177246e11610087578063e177246e14610338578063e30c39781461034b578063e5ad5c2a1461035e578063f6f5d9cc14610371578063f77c479114610391578063fdd0fd2d14610399578063ffa1ad74146103c257600080fd5b80638e3e92f21461029d5780638e928076146102b0578063936725ec146102c35780639d0bcca0146102f4578063b429afeb146102fc578063cf5303cf1461030f578063dee1f0e41461032557600080fd5b8063501d815c11610136578063501d815c1461022d5780636575c458146102365780636a42b8f81461024957806379ba5097146102525780637cc963801461025a57806383d2e5f3146102625780638da5cb5b1461026c57600080fd5b806301ffc9a714610189578063070a0ea9146101b157806313e7c9d8146101c657806319ab453c146101e9578063325a19f1146101fc5780634593144c146102125780634fac6ccd1461021a575b600080fd5b61019c6101973660046117a2565b6103e6565b60405190151581526020015b60405180910390f35b6101c46101bf3660046118b8565b610411565b005b61019c6101d43660046118fd565b60066020526000908152604090205460ff1681565b6101c46101f73660046118fd565b6104af565b6102046105ea565b6040519081526020016101a8565b610204610623565b6101c46102283660046118fd565b610653565b61020460035481565b6101c4610244366004611928565b61077e565b61020460025481565b6101c46107d9565b610204610857565b610204620186a081565b600054610285906201000090046001600160a01b031681565b6040516001600160a01b0390911681526020016101a8565b6101c46102ab3660046118fd565b610887565b6101c46102be366004611961565b6108d9565b6102e7604051806040016040528060058152602001640332e302e360dc1b81525081565b6040516101a891906119ca565b61028561090e565b61019c61030a3660046118fd565b61093e565b610317610963565b6040516101a89291906119dd565b61019c6103333660046118fd565b610e17565b6101c4610346366004611961565b610e9c565b600154610285906001600160a01b031681565b61020461036c366004611a00565b610ed1565b61020461037f3660046118fd565b60056020526000908152604090205481565b61028561108f565b6102046103a73660046118fd565b6001600160a01b031660009081526004602052604090205490565b6102e760405180604001604052806005815260200164312e312e3160d81b81525081565b60006001600160e01b0319821663c19fa56160e01b148061040b575061040b826110bf565b92915050565b6000546201000090046001600160a01b0316331461044a5760405162461bcd60e51b815260040161044190611a35565b60405180910390fd5b60005b82518110156104aa57816005600085848151811061046d5761046d611a55565b60200260200101516001600160a01b03166001600160a01b0316815260200190815260200160002081905550806104a390611a81565b905061044d565b505050565b600054610100900460ff16158080156104cf5750600054600160ff909116105b806104e95750303b1580156104e9575060005460ff166001145b61054c5760405162461bcd60e51b815260206004820152602e60248201527f496e697469616c697a61626c653a20636f6e747261637420697320616c72656160448201526d191e481a5b9a5d1a585b1a5e995960921b6064820152608401610441565b6000805460ff19166001179055801561056f576000805461ff0019166101001790555b610578826110f4565b6000805462010000600160b01b031916336201000002179055603c600255640826299e0060035580156105e6576000805461ff0019169055604051600181527f7f26b83ff96e1f2b6a682f133852f6798a09c465da95921460cefb3847402498906020015b60405180910390a15b5050565b600061061e61061a60017f6f55f470bdc9cb5f04223fd822021061668e4dccb43e8727b295106dc9769c8b611a9a565b5490565b905090565b600061061e61061a60017f812a673dfca07956350df10f8a654925f561d7a0da09bdbe79e653939a14d9f1611a9a565b3330146106a25760405162461bcd60e51b815260206004820152601b60248201527f496e637265617365207265766973696f6e20666f7262696464656e00000000006044820152606401610441565b60006106d261061a60017f22573091f17911fb166032a3d9e0554aa73d31b7b7ddea4a4dd2995650af84bd611a9a565b6106dd906001611aad565b90506107118161070e60017f22573091f17911fb166032a3d9e0554aa73d31b7b7ddea4a4dd2995650af84bd611a9a565b55565b6107408261070e60017fbfaaa2fb63266ff27c2da975f5894955056f50419af651a81f6c5060581857e4611a9a565b604080518281526001600160a01b03841660208201527ff27e2ef832a4eb8ed8ec553b875eecd44764cda95b1c24170e281539e0a869c891016105dd565b6000546201000090046001600160a01b031633146107ae5760405162461bcd60e51b815260040161044190611a35565b6001600160a01b03919091166000908152600660205260409020805460ff1916911515919091179055565b6001546001600160a01b031633146108235760405162461bcd60e51b815260206004820152600d60248201526c10b832b73234b733a7bbb732b960991b6044820152606401610441565b600180546000805462010000600160b01b0319166001600160a01b03831662010000021790556001600160a01b0319169055565b600061061e61061a60017f22573091f17911fb166032a3d9e0554aa73d31b7b7ddea4a4dd2995650af84bd611a9a565b6000546201000090046001600160a01b031633146108b75760405162461bcd60e51b815260040161044190611a35565b600180546001600160a01b0319166001600160a01b0392909216919091179055565b6000546201000090046001600160a01b031633146109095760405162461bcd60e51b815260040161044190611a35565b600355565b600061061e61061a60017fbfaaa2fb63266ff27c2da975f5894955056f50419af651a81f6c5060581857e4611a9a565b600061094861108f565b6001600160a01b0316826001600160a01b0316149050919050565b60006060600061097161108f565b90506000816001600160a01b031663d6abd26a6040518163ffffffff1660e01b8152600401602060405180830381865afa1580156109b3573d6000803e3d6000fd5b505050506040513d601f19601f820116820180604052508101906109d79190611ac0565b604080516127108082526204e22082019092529192506000918291602082016204e2008036833701905050905060005b83811015610c9557604051634632752560e11b8152600481018290526000906001600160a01b03871690638c64ea4a90602401602060405180830381865afa158015610a57573d6000803e3d6000fd5b505050506040513d601f19601f82011682018060405250810190610a7b9190611ad9565b6001600160a01b0316633cd8045e6040518163ffffffff1660e01b8152600401602060405180830381865afa158015610ab8573d6000803e3d6000fd5b505050506040513d601f19601f82011682018060405250810190610adc9190611ad9565b905060005b816001600160a01b0316633f74bb896040518163ffffffff1660e01b8152600401602060405180830381865afa158015610b1f573d6000803e3d6000fd5b505050506040513d601f19601f82011682018060405250810190610b439190611ac0565b811015610c825760405163d574ea3d60e01b8152600481018290526000906001600160a01b0384169063d574ea3d90602401602060405180830381865afa158015610b92573d6000803e3d6000fd5b505050506040513d601f19601f82011682018060405250810190610bb69190611ad9565b604051630150908f60e31b81526001600160a01b03808316600483015291925090841690630a84847890602401602060405180830381865afa158015610c00573d6000803e3d6000fd5b505050506040513d601f19601f82011682018060405250810190610c249190611af6565b158015610c355750610c358161135d565b15610c715780858781518110610c4d57610c4d611a55565b6001600160a01b0390921660209283029190910190910152610c6e86611a81565b95505b50610c7b81611a81565b9050610ae1565b505080610c8e90611a81565b9050610a07565b5060008267ffffffffffffffff811115610cb157610cb16117d3565b604051908082528060200260200182016040528015610cda578160200160208202803683370190505b50905060005b83811015610d785760006001600160a01b0316838281518110610d0557610d05611a55565b60200260200101516001600160a01b031614610d6857828181518110610d2d57610d2d611a55565b6020026020010151828281518110610d4757610d47611a55565b60200260200101906001600160a01b031690816001600160a01b0316815250505b610d7181611a81565b9050610ce0565b5082600003610dbc576000604051806040016040528060138152602001724e6f207265616479207374726174656769657360681b8152509650965050505050509091565b600163e5ad5c2a60e01b82604051602401610dd79190611b13565b60408051601f198184030181529190526020810180516001600160e01b03166001600160e01b031990931692909217909152909890975095505050505050565b6000816001600160a01b0316610e2b61108f565b6001600160a01b0316635aa6e6756040518163ffffffff1660e01b8152600401602060405180830381865afa158015610e68573d6000803e3d6000fd5b505050506040513d601f19601f82011682018060405250810190610e8c9190611ad9565b6001600160a01b03161492915050565b6000546201000090046001600160a01b03163314610ecc5760405162461bcd60e51b815260040161044190611a35565b600255565b3360009081526006602052604081205460ff16610f1c5760405162461bcd60e51b815260206004820152600960248201526810b7b832b930ba37b960b91b6044820152606401610441565b81516000805b82811015611087576000858281518110610f3e57610f3e611a55565b60200260200101519050806001600160a01b0316637d7c2a1c6040518163ffffffff1660e01b8152600401600060405180830381600087803b158015610f8357600080fd5b505af1925050508015610f94575060015b61104d57610fa0611b60565b806308c379a0036110005750610fb4611b7c565b80610fbf5750611002565b610fc8826114f1565b81604051602001610fda929190611c06565b60408051601f198184030181529082905262461bcd60e51b8252610441916004016119ca565b505b3d80801561102c576040519150601f19603f3d011682016040523d82523d6000602084013e611031565b606091505b5061103b826114f1565b81604051602001610fda929190611c60565b6001600160a01b03811660009081526004602052604090204290558261107281611a81565b935050508061108090611a81565b9050610f22565b509392505050565b600061061e61061a60017f5165972ef41194f06c5007493031d0b927c20741adcb74403b954009fd2c3618611a9a565b60006001600160e01b0319821663b7b79fa960e01b148061040b57506301ffc9a760e01b6001600160e01b031983161461040b565b600054610100900460ff1661115f5760405162461bcd60e51b815260206004820152602b60248201527f496e697469616c697a61626c653a20636f6e7472616374206973206e6f74206960448201526a6e697469616c697a696e6760a81b6064820152608401610441565b6001600160a01b0381166111a75760405162461bcd60e51b815260206004820152600f60248201526e2d32b9379031b7b73a3937b63632b960891b6044820152606401610441565b6111d1817f4c2403fdcb3cff9b705d96bf0705858e3390412670a62c8bcba611ca7e20ab86611638565b60006001600160a01b0316816001600160a01b0316635aa6e6756040518163ffffffff1660e01b8152600401602060405180830381865afa15801561121a573d6000803e3d6000fd5b505050506040513d601f19601f8201168201806040525081019061123e9190611ad9565b6001600160a01b0316036112865760405162461bcd60e51b815260206004820152600f60248201526e5a65726f20676f7665726e616e636560881b6044820152606401610441565b6112b58161070e60017f5165972ef41194f06c5007493031d0b927c20741adcb74403b954009fd2c3618611a9a565b6112e44261070e60017f6f55f470bdc9cb5f04223fd822021061668e4dccb43e8727b295106dc9769c8b611a9a565b6113134361070e60017f812a673dfca07956350df10f8a654925f561d7a0da09bdbe79e653939a14d9f1611a9a565b604080516001600160a01b0383168152426020820152438183015290517f1a2dd071001ebf6e03174e3df5b305795a4ad5d41d8fdb9ba41dbbe2367134269181900360600190a150565b60008082905060405180604001604052806009815260200168556e6973776170563360b81b81525080519060200120816001600160a01b0316637efc77fa6040518163ffffffff1660e01b8152600401600060405180830381865afa1580156113ca573d6000803e3d6000fd5b505050506040513d6000823e601f3d908101601f191682016040526113f29190810190611cc5565b805190602001201480156114635750826001600160a01b031663ffb86c6a6040518163ffffffff1660e01b8152600401602060405180830381865afa15801561143f573d6000803e3d6000fd5b505050506040513d601f19601f820116820180604052508101906114639190611af6565b156114e8576002546001600160a01b03841660009081526005602052604090205480156114a957620186a08160025461149c9190611d5d565b6114a69190611d8a565b91505b42826114ca876001600160a01b031660009081526004602052604090205490565b6114d49190611aad565b10156114e557506001949350505050565b50505b50600092915050565b60408051602880825260608281019093526000919060208201818036833701905050905060005b601481101561163157600061152e826013611a9a565b611539906008611d5d565b611544906002611e82565b611557906001600160a01b038716611d8a565b60f81b9050600060108260f81c61156e9190611e8e565b60f81b905060008160f81c60106115859190611eb0565b8360f81c6115939190611ecc565b60f81b90506115a18261168e565b856115ad866002611d5d565b815181106115bd576115bd611a55565b60200101906001600160f81b031916908160001a9053506115dd8161168e565b856115e9866002611d5d565b6115f4906001611aad565b8151811061160457611604611a55565b60200101906001600160f81b031916908160001a905350505050808061162990611a81565b915050611518565b5092915050565b61164282826116c4565b6105e65760405162461bcd60e51b815260206004820152601a60248201527f496e74657266616365206973206e6f7420737570706f727465640000000000006044820152606401610441565b6000600a60f883901c10156116b5576116ac60f883901c6030611ee5565b60f81b92915050565b6116ac60f883901c6057611ee5565b60006001600160a01b03831661170b5760405162461bcd60e51b815260206004820152600c60248201526b5a65726f206164647265737360a01b6044820152606401610441565b823b600081900361172057600091505061040b565b6040516301ffc9a760e01b81526001600160e01b0319841660048201526001600160a01b038516906301ffc9a790602401602060405180830381865afa92505050801561178a575060408051601f3d908101601f1916820190925261178791810190611af6565b60015b1561179857915061040b9050565b5060009392505050565b6000602082840312156117b457600080fd5b81356001600160e01b0319811681146117cc57600080fd5b9392505050565b634e487b7160e01b600052604160045260246000fd5b601f8201601f1916810167ffffffffffffffff8111828210171561180f5761180f6117d3565b6040525050565b6001600160a01b038116811461182b57600080fd5b50565b600082601f83011261183f57600080fd5b8135602067ffffffffffffffff82111561185b5761185b6117d3565b8160051b60405161186e838301826117e9565b9283528481018201928281018785111561188757600080fd5b83870192505b848310156118ad5782356118a081611816565b815291830191830161188d565b509695505050505050565b600080604083850312156118cb57600080fd5b823567ffffffffffffffff8111156118e257600080fd5b6118ee8582860161182e565b95602094909401359450505050565b60006020828403121561190f57600080fd5b81356117cc81611816565b801515811461182b57600080fd5b6000806040838503121561193b57600080fd5b823561194681611816565b915060208301356119568161191a565b809150509250929050565b60006020828403121561197357600080fd5b5035919050565b60005b8381101561199557818101518382015260200161197d565b50506000910152565b600081518084526119b681602086016020860161197a565b601f01601f19169290920160200192915050565b6020815260006117cc602083018461199e565b82151581526040602082015260006119f8604083018461199e565b949350505050565b600060208284031215611a1257600080fd5b813567ffffffffffffffff811115611a2957600080fd5b6119f88482850161182e565b60208082526006908201526510b7bbb732b960d11b604082015260600190565b634e487b7160e01b600052603260045260246000fd5b634e487b7160e01b600052601160045260246000fd5b600060018201611a9357611a93611a6b565b5060010190565b8181038181111561040b5761040b611a6b565b8082018082111561040b5761040b611a6b565b600060208284031215611ad257600080fd5b5051919050565b600060208284031215611aeb57600080fd5b81516117cc81611816565b600060208284031215611b0857600080fd5b81516117cc8161191a565b6020808252825182820181905260009190848201906040850190845b81811015611b545783516001600160a01b031683529284019291840191600101611b2f565b50909695505050505050565b600060033d1115611b795760046000803e5060005160e01c5b90565b600060443d1015611b8a5790565b6040516003193d81016004833e81513d67ffffffffffffffff8160248401118184111715611bba57505050505090565b8285019150815181811115611bd25750505050505090565b843d8701016020828501011115611bec5750505050505090565b611bfb602082860101876117e9565b509095945050505050565b710a6e8e4c2e8cacef240cae4e4dee4744060f60731b815260008351611c3381601285016020880161197a565b600160fd1b6012918401918201528351611c5481601384016020880161197a565b01601301949350505050565b7f5374726174656779206c6f772d6c6576656c206572726f723a20307800000000815260008351611c9881601c85016020880161197a565b600160fd1b601c918401918201528351611cb981601d84016020880161197a565b01601d01949350505050565b600060208284031215611cd757600080fd5b815167ffffffffffffffff80821115611cef57600080fd5b818401915084601f830112611d0357600080fd5b815181811115611d1557611d156117d3565b6040519150611d2e601f8201601f1916602001836117e9565b808252856020828501011115611d4357600080fd5b611d5481602084016020860161197a565b50949350505050565b808202811582820484141761040b5761040b611a6b565b634e487b7160e01b600052601260045260246000fd5b600082611d9957611d99611d74565b500490565b600181815b80851115611dd9578160001904821115611dbf57611dbf611a6b565b80851615611dcc57918102915b93841c9390800290611da3565b509250929050565b600082611df05750600161040b565b81611dfd5750600061040b565b8160018114611e135760028114611e1d57611e39565b600191505061040b565b60ff841115611e2e57611e2e611a6b565b50506001821b61040b565b5060208310610133831016604e8410600b8410161715611e5c575081810a61040b565b611e668383611d9e565b8060001904821115611e7a57611e7a611a6b565b029392505050565b60006117cc8383611de1565b600060ff831680611ea157611ea1611d74565b8060ff84160491505092915050565b60ff818116838216029081169081811461163157611631611a6b565b60ff828116828216039081111561040b5761040b611a6b565b60ff818116838216019081111561040b5761040b611a6b56fea2646970667358221220aeaeea960122a9a66e1e9dcaa260bedc9ebaa261bfe4218e81c5133ee5212e0a64736f6c63430008110033",
  "devdoc": {
    "author": "a17",
    "kind": "dev",
    "methods": {
      "created()": {
        "returns": {
          "_0": "Creation timestamp"
        }
      },
      "createdBlock()": {
        "returns": {
          "_0": "Creation block number"
        }
      },
      "increaseRevision(address)": {
        "details": "Revision should be increased on each contract upgrade"
      },
      "isController(address)": {
        "details": "Return true if given address is controller"
      },
      "previousImplementation()": {
        "details": "Previous logic implementation"
      },
      "revision()": {
        "details": "Contract upgrade counter"
      },
      "supportsInterface(bytes4)": {
        "details": "See {IERC165-supportsInterface}."
      }
    },
    "title": "Gelato resolver for rebalancing strategies",
    "version": 1
  },
  "userdoc": {
    "kind": "user",
    "methods": {
      "CONTROLLABLE_VERSION()": {
        "notice": "Version of the contract"
      },
      "controller()": {
        "notice": "Return controller address saved in the contract slot"
      },
      "created()": {
        "notice": "Return creation timestamp"
      },
      "createdBlock()": {
        "notice": "Return creation block number"
      },
      "isGovernance(address)": {
        "notice": "Return true if given address is setup as governance in Controller"
      }
    },
    "version": 1
  },
  "storageLayout": {
    "storage": [
      {
        "astId": 1820,
        "contract": "contracts/tools/RebalanceResolver.sol:RebalanceResolver",
        "label": "_initialized",
        "offset": 0,
        "slot": "0",
        "type": "t_uint8"
      },
      {
        "astId": 1823,
        "contract": "contracts/tools/RebalanceResolver.sol:RebalanceResolver",
        "label": "_initializing",
        "offset": 1,
        "slot": "0",
        "type": "t_bool"
      },
      {
        "astId": 2540,
        "contract": "contracts/tools/RebalanceResolver.sol:RebalanceResolver",
        "label": "owner",
        "offset": 2,
        "slot": "0",
        "type": "t_address"
      },
      {
        "astId": 2542,
        "contract": "contracts/tools/RebalanceResolver.sol:RebalanceResolver",
        "label": "pendingOwner",
        "offset": 0,
        "slot": "1",
        "type": "t_address"
      },
      {
        "astId": 2544,
        "contract": "contracts/tools/RebalanceResolver.sol:RebalanceResolver",
        "label": "delay",
        "offset": 0,
        "slot": "2",
        "type": "t_uint256"
      },
      {
        "astId": 2546,
        "contract": "contracts/tools/RebalanceResolver.sol:RebalanceResolver",
        "label": "maxGas",
        "offset": 0,
        "slot": "3",
        "type": "t_uint256"
      },
      {
        "astId": 2550,
        "contract": "contracts/tools/RebalanceResolver.sol:RebalanceResolver",
        "label": "_lastRebalance",
        "offset": 0,
        "slot": "4",
        "type": "t_mapping(t_address,t_uint256)"
      },
      {
        "astId": 2554,
        "contract": "contracts/tools/RebalanceResolver.sol:RebalanceResolver",
        "label": "delayRate",
        "offset": 0,
        "slot": "5",
        "type": "t_mapping(t_address,t_uint256)"
      },
      {
        "astId": 2558,
        "contract": "contracts/tools/RebalanceResolver.sol:RebalanceResolver",
        "label": "operators",
        "offset": 0,
        "slot": "6",
        "type": "t_mapping(t_address,t_bool)"
      },
      {
        "astId": 2561,
        "contract": "contracts/tools/RebalanceResolver.sol:RebalanceResolver",
        "label": "deprecated",
        "offset": 0,
        "slot": "7",
        "type": "t_struct(AddressSet)1526_storage"
      }
    ],
    "types": {
      "t_address": {
        "encoding": "inplace",
        "label": "address",
        "numberOfBytes": "20"
      },
      "t_array(t_bytes32)dyn_storage": {
        "base": "t_bytes32",
        "encoding": "dynamic_array",
        "label": "bytes32[]",
        "numberOfBytes": "32"
      },
      "t_bool": {
        "encoding": "inplace",
        "label": "bool",
        "numberOfBytes": "1"
      },
      "t_bytes32": {
        "encoding": "inplace",
        "label": "bytes32",
        "numberOfBytes": "32"
      },
      "t_mapping(t_address,t_bool)": {
        "encoding": "mapping",
        "key": "t_address",
        "label": "mapping(address => bool)",
        "numberOfBytes": "32",
        "value": "t_bool"
      },
      "t_mapping(t_address,t_uint256)": {
        "encoding": "mapping",
        "key": "t_address",
        "label": "mapping(address => uint256)",
        "numberOfBytes": "32",
        "value": "t_uint256"
      },
      "t_mapping(t_bytes32,t_uint256)": {
        "encoding": "mapping",
        "key": "t_bytes32",
        "label": "mapping(bytes32 => uint256)",
        "numberOfBytes": "32",
        "value": "t_uint256"
      },
      "t_struct(AddressSet)1526_storage": {
        "encoding": "inplace",
        "label": "struct EnumerableSet.AddressSet",
        "members": [
          {
            "astId": 1525,
            "contract": "contracts/tools/RebalanceResolver.sol:RebalanceResolver",
            "label": "_inner",
            "offset": 0,
            "slot": "0",
            "type": "t_struct(Set)1211_storage"
          }
        ],
        "numberOfBytes": "64"
      },
      "t_struct(Set)1211_storage": {
        "encoding": "inplace",
        "label": "struct EnumerableSet.Set",
        "members": [
          {
            "astId": 1206,
            "contract": "contracts/tools/RebalanceResolver.sol:RebalanceResolver",
            "label": "_values",
            "offset": 0,
            "slot": "0",
            "type": "t_array(t_bytes32)dyn_storage"
          },
          {
            "astId": 1210,
            "contract": "contracts/tools/RebalanceResolver.sol:RebalanceResolver",
            "label": "_indexes",
            "offset": 0,
            "slot": "1",
            "type": "t_mapping(t_bytes32,t_uint256)"
          }
        ],
        "numberOfBytes": "64"
      },
      "t_uint256": {
        "encoding": "inplace",
        "label": "uint256",
        "numberOfBytes": "32"
      },
      "t_uint8": {
        "encoding": "inplace",
        "label": "uint8",
        "numberOfBytes": "1"
      }
    }
  }
}