{
  "address": "0xc1867Ad5a4d9a58F9c8c2c73574Fde44C921162a",
  "abi": [
    {
      "anonymous": false,
      "inputs": [
        {
          "indexed": false,
          "internalType": "address",
          "name": "controller",
          "type": "address"
        },
        {
          "indexed": false,
          "internalType": "uint256",
          "name": "ts",
          "type": "uint256"
        },
        {
          "indexed": false,
          "internalType": "uint256",
          "name": "block",
          "type": "uint256"
        }
      ],
      "name": "ContractInitialized",
      "type": "event"
    },
    {
      "anonymous": false,
      "inputs": [
        {
          "indexed": false,
          "internalType": "uint8",
          "name": "version",
          "type": "uint8"
        }
      ],
      "name": "Initialized",
      "type": "event"
    },
    {
      "anonymous": false,
      "inputs": [
        {
          "indexed": false,
          "internalType": "uint256",
          "name": "value",
          "type": "uint256"
        },
        {
          "indexed": false,
          "internalType": "address",
          "name": "oldLogic",
          "type": "address"
        }
      ],
      "name": "RevisionIncreased",
      "type": "event"
    },
    {
      "inputs": [],
      "name": "CONTROLLABLE_VERSION",
      "outputs": [
        {
          "internalType": "string",
          "name": "",
          "type": "string"
        }
      ],
      "stateMutability": "view",
      "type": "function"
    },
    {
      "inputs": [],
      "name": "DELAY_RATE_DENOMINATOR",
      "outputs": [
        {
          "internalType": "uint256",
          "name": "",
          "type": "uint256"
        }
      ],
      "stateMutability": "view",
      "type": "function"
    },
    {
      "inputs": [],
      "name": "VERSION",
      "outputs": [
        {
          "internalType": "string",
          "name": "",
          "type": "string"
        }
      ],
      "stateMutability": "view",
      "type": "function"
    },
    {
      "inputs": [],
      "name": "acceptOwnership",
      "outputs": [],
      "stateMutability": "nonpayable",
      "type": "function"
    },
    {
      "inputs": [],
      "name": "allStrategies",
      "outputs": [
        {
          "internalType": "address[]",
          "name": "",
          "type": "address[]"
        }
      ],
      "stateMutability": "view",
      "type": "function"
    },
    {
      "inputs": [
        {
          "internalType": "address[]",
          "name": "_strategies",
          "type": "address[]"
        }
      ],
      "name": "call",
      "outputs": [
        {
          "internalType": "uint256",
          "name": "amountOfCalls",
          "type": "uint256"
        }
      ],
      "stateMutability": "nonpayable",
      "type": "function"
    },
    {
      "inputs": [
        {
          "internalType": "address",
          "name": "operator",
          "type": "address"
        },
        {
          "internalType": "bool",
          "name": "status",
          "type": "bool"
        }
      ],
      "name": "changeOperatorStatus",
      "outputs": [],
      "stateMutability": "nonpayable",
      "type": "function"
    },
    {
      "inputs": [
        {
          "internalType": "address",
          "name": "strategy",
          "type": "address"
        },
        {
          "internalType": "bool",
          "name": "add",
          "type": "bool"
        }
      ],
      "name": "changeStrategyStatus",
      "outputs": [],
      "stateMutability": "nonpayable",
      "type": "function"
    },
    {
      "inputs": [],
      "name": "checker",
      "outputs": [
        {
          "internalType": "bool",
          "name": "canExec",
          "type": "bool"
        },
        {
          "internalType": "bytes",
          "name": "execPayload",
          "type": "bytes"
        }
      ],
      "stateMutability": "view",
      "type": "function"
    },
    {
      "inputs": [],
      "name": "controller",
      "outputs": [
        {
          "internalType": "address",
          "name": "",
          "type": "address"
        }
      ],
      "stateMutability": "view",
      "type": "function"
    },
    {
      "inputs": [],
      "name": "created",
      "outputs": [
        {
          "internalType": "uint256",
          "name": "",
          "type": "uint256"
        }
      ],
      "stateMutability": "view",
      "type": "function"
    },
    {
      "inputs": [],
      "name": "createdBlock",
      "outputs": [
        {
          "internalType": "uint256",
          "name": "",
          "type": "uint256"
        }
      ],
      "stateMutability": "view",
      "type": "function"
    },
    {
      "inputs": [],
      "name": "delay",
      "outputs": [
        {
          "internalType": "uint256",
          "name": "",
          "type": "uint256"
        }
      ],
      "stateMutability": "view",
      "type": "function"
    },
    {
      "inputs": [
        {
          "internalType": "address",
          "name": "",
          "type": "address"
        }
      ],
      "name": "delayRate",
      "outputs": [
        {
          "internalType": "uint256",
          "name": "",
          "type": "uint256"
        }
      ],
      "stateMutability": "view",
      "type": "function"
    },
    {
      "inputs": [
        {
          "internalType": "address",
          "name": "oldLogic",
          "type": "address"
        }
      ],
      "name": "increaseRevision",
      "outputs": [],
      "stateMutability": "nonpayable",
      "type": "function"
    },
    {
      "inputs": [
        {
          "internalType": "address",
          "name": "controller_",
          "type": "address"
        }
      ],
      "name": "init",
      "outputs": [],
      "stateMutability": "nonpayable",
      "type": "function"
    },
    {
      "inputs": [
        {
          "internalType": "address",
          "name": "_value",
          "type": "address"
        }
      ],
      "name": "isController",
      "outputs": [
        {
          "internalType": "bool",
          "name": "",
          "type": "bool"
        }
      ],
      "stateMutability": "view",
      "type": "function"
    },
    {
      "inputs": [
        {
          "internalType": "address",
          "name": "_value",
          "type": "address"
        }
      ],
      "name": "isGovernance",
      "outputs": [
        {
          "internalType": "bool",
          "name": "",
          "type": "bool"
        }
      ],
      "stateMutability": "view",
      "type": "function"
    },
    {
      "inputs": [
        {
          "internalType": "address",
          "name": "strategy",
          "type": "address"
        }
      ],
      "name": "lastRebalance",
      "outputs": [
        {
          "internalType": "uint256",
          "name": "lastRebalanceTimestamp",
          "type": "uint256"
        }
      ],
      "stateMutability": "view",
      "type": "function"
    },
    {
      "inputs": [],
      "name": "maxGas",
      "outputs": [
        {
          "internalType": "uint256",
          "name": "",
          "type": "uint256"
        }
      ],
      "stateMutability": "view",
      "type": "function"
    },
    {
      "inputs": [
        {
          "internalType": "address",
          "name": "value",
          "type": "address"
        }
      ],
      "name": "offerOwnership",
      "outputs": [],
      "stateMutability": "nonpayable",
      "type": "function"
    },
    {
      "inputs": [
        {
          "internalType": "address",
          "name": "",
          "type": "address"
        }
      ],
      "name": "operators",
      "outputs": [
        {
          "internalType": "bool",
          "name": "",
          "type": "bool"
        }
      ],
      "stateMutability": "view",
      "type": "function"
    },
    {
      "inputs": [],
      "name": "owner",
      "outputs": [
        {
          "internalType": "address",
          "name": "",
          "type": "address"
        }
      ],
      "stateMutability": "view",
      "type": "function"
    },
    {
      "inputs": [],
      "name": "pendingOwner",
      "outputs": [
        {
          "internalType": "address",
          "name": "",
          "type": "address"
        }
      ],
      "stateMutability": "view",
      "type": "function"
    },
    {
      "inputs": [],
      "name": "previousImplementation",
      "outputs": [
        {
          "internalType": "address",
          "name": "",
          "type": "address"
        }
      ],
      "stateMutability": "view",
      "type": "function"
    },
    {
      "inputs": [],
      "name": "revision",
      "outputs": [
        {
          "internalType": "uint256",
          "name": "",
          "type": "uint256"
        }
      ],
      "stateMutability": "view",
      "type": "function"
    },
    {
      "inputs": [
        {
          "internalType": "uint256",
          "name": "value",
          "type": "uint256"
        }
      ],
      "name": "setDelay",
      "outputs": [],
      "stateMutability": "nonpayable",
      "type": "function"
    },
    {
      "inputs": [
        {
          "internalType": "address[]",
          "name": "_strategies",
          "type": "address[]"
        },
        {
          "internalType": "uint256",
          "name": "value",
          "type": "uint256"
        }
      ],
      "name": "setDelayRate",
      "outputs": [],
      "stateMutability": "nonpayable",
      "type": "function"
    },
    {
      "inputs": [
        {
          "internalType": "uint256",
          "name": "value",
          "type": "uint256"
        }
      ],
      "name": "setMaxGas",
      "outputs": [],
      "stateMutability": "nonpayable",
      "type": "function"
    },
    {
      "inputs": [
        {
          "internalType": "bytes4",
          "name": "interfaceId",
          "type": "bytes4"
        }
      ],
      "name": "supportsInterface",
      "outputs": [
        {
          "internalType": "bool",
          "name": "",
          "type": "bool"
        }
      ],
      "stateMutability": "view",
      "type": "function"
    }
  ],
  "transactionHash": "0x09b055de3bfe71d9fe0c6a67173e07f9651c34ed72b79a221011486e11d03c39",
  "args": [],
  "numDeployments": 1,
  "solcInputHash": "3634cf54accc8b221b08d412855dadd1",
  "bytecode": "0x608060405234801561001057600080fd5b5061001961001e565b6100dd565b600054610100900460ff161561008a5760405162461bcd60e51b815260206004820152602760248201527f496e697469616c697a61626c653a20636f6e747261637420697320696e697469604482015266616c697a696e6760c81b606482015260840160405180910390fd5b60005460ff908116146100db576000805460ff191660ff9081179091556040519081527f7f26b83ff96e1f2b6a682f133852f6798a09c465da95921460cefb38474024989060200160405180910390a15b565b611ec3806100ec6000396000f3fe608060405234801561001057600080fd5b50600436106101ba5760003560e01c80638e3e92f2116100f4578063dee1f0e4116100a2578063f6f5d9cc11610071578063f6f5d9cc146103cf578063f77c4791146103ef578063fdd0fd2d146103f7578063ffa1ad741461042057600080fd5b8063dee1f0e414610383578063e177246e14610396578063e30c3978146103a9578063e5ad5c2a146103bc57600080fd5b80638e3e92f2146102e85780638e928076146102fb578063936725ec1461030e5780639d0bcca01461033f578063b429afeb14610347578063cc42d9ba1461035a578063cf5303cf1461036d57600080fd5b8063501d815c1161016c57806379ba50971161013b57806379ba50971461029d5780637cc96380146102a557806383d2e5f3146102ad5780638da5cb5b146102b757600080fd5b8063501d815c146102635780635d7e641e1461026c5780636575c458146102815780636a42b8f81461029457600080fd5b806301ffc9a7146101bf578063070a0ea9146101e757806313e7c9d8146101fc57806319ab453c1461021f578063325a19f1146102325780634593144c146102485780634fac6ccd14610250575b600080fd5b6101d26101cd3660046117d3565b610444565b60405190151581526020015b60405180910390f35b6101fa6101f53660046118e2565b61046f565b005b6101d261020a366004611927565b60066020526000908152604090205460ff1681565b6101fa61022d366004611927565b61050d565b61023a610648565b6040519081526020016101de565b61023a610681565b6101fa61025e366004611927565b6106b1565b61023a60035481565b6102746107dc565b6040516101de9190611944565b6101fa61028f36600461199f565b6107e8565b61023a60025481565b6101fa610843565b61023a6108c1565b61023a620186a081565b6000546102d0906201000090046001600160a01b031681565b6040516001600160a01b0390911681526020016101de565b6101fa6102f6366004611927565b6108f1565b6101fa6103093660046119d8565b610943565b610332604051806040016040528060058152602001640332e302e360dc1b81525081565b6040516101de9190611a41565b6102d0610978565b6101d2610355366004611927565b6109a8565b6101fa61036836600461199f565b6109cd565b610375610a9d565b6040516101de929190611a54565b6101d2610391366004611927565b610dc0565b6101fa6103a43660046119d8565b610e45565b6001546102d0906001600160a01b031681565b61023a6103ca366004611a77565b610e7a565b61023a6103dd366004611927565b60056020526000908152604090205481565b6102d0611038565b61023a610405366004611927565b6001600160a01b031660009081526004602052604090205490565b610332604051806040016040528060058152602001640312e302e360dc1b81525081565b60006001600160e01b0319821663c19fa56160e01b1480610469575061046982611068565b92915050565b6000546201000090046001600160a01b031633146104a85760405162461bcd60e51b815260040161049f90611aac565b60405180910390fd5b60005b82518110156105085781600560008584815181106104cb576104cb611acc565b60200260200101516001600160a01b03166001600160a01b03168152602001908152602001600020819055508061050190611af8565b90506104ab565b505050565b600054610100900460ff161580801561052d5750600054600160ff909116105b806105475750303b158015610547575060005460ff166001145b6105aa5760405162461bcd60e51b815260206004820152602e60248201527f496e697469616c697a61626c653a20636f6e747261637420697320616c72656160448201526d191e481a5b9a5d1a585b1a5e995960921b606482015260840161049f565b6000805460ff1916600117905580156105cd576000805461ff0019166101001790555b6105d68261109d565b6000805462010000600160b01b031916336201000002179055603c600255640826299e006003558015610644576000805461ff0019169055604051600181527f7f26b83ff96e1f2b6a682f133852f6798a09c465da95921460cefb3847402498906020015b60405180910390a15b5050565b600061067c61067860017f6f55f470bdc9cb5f04223fd822021061668e4dccb43e8727b295106dc9769c8b611b11565b5490565b905090565b600061067c61067860017f812a673dfca07956350df10f8a654925f561d7a0da09bdbe79e653939a14d9f1611b11565b3330146107005760405162461bcd60e51b815260206004820152601b60248201527f496e637265617365207265766973696f6e20666f7262696464656e0000000000604482015260640161049f565b600061073061067860017f22573091f17911fb166032a3d9e0554aa73d31b7b7ddea4a4dd2995650af84bd611b11565b61073b906001611b24565b905061076f8161076c60017f22573091f17911fb166032a3d9e0554aa73d31b7b7ddea4a4dd2995650af84bd611b11565b55565b61079e8261076c60017fbfaaa2fb63266ff27c2da975f5894955056f50419af651a81f6c5060581857e4611b11565b604080518281526001600160a01b03841660208201527ff27e2ef832a4eb8ed8ec553b875eecd44764cda95b1c24170e281539e0a869c8910161063b565b606061067c6007611306565b6000546201000090046001600160a01b031633146108185760405162461bcd60e51b815260040161049f90611aac565b6001600160a01b03919091166000908152600660205260409020805460ff1916911515919091179055565b6001546001600160a01b0316331461088d5760405162461bcd60e51b815260206004820152600d60248201526c10b832b73234b733a7bbb732b960991b604482015260640161049f565b600180546000805462010000600160b01b0319166001600160a01b03831662010000021790556001600160a01b0319169055565b600061067c61067860017f22573091f17911fb166032a3d9e0554aa73d31b7b7ddea4a4dd2995650af84bd611b11565b6000546201000090046001600160a01b031633146109215760405162461bcd60e51b815260040161049f90611aac565b600180546001600160a01b0319166001600160a01b0392909216919091179055565b6000546201000090046001600160a01b031633146109735760405162461bcd60e51b815260040161049f90611aac565b600355565b600061067c61067860017fbfaaa2fb63266ff27c2da975f5894955056f50419af651a81f6c5060581857e4611b11565b60006109b2611038565b6001600160a01b0316826001600160a01b0316149050919050565b3360009081526006602052604090205460ff16610a185760405162461bcd60e51b815260206004820152600960248201526810b7b832b930ba37b960b91b604482015260640161049f565b8015610a5d57610a2960078361131a565b6106445760405162461bcd60e51b8152602060048201526005602482015264195e1a5cdd60da1b604482015260640161049f565b610a6860078361132f565b6106445760405162461bcd60e51b815260206004820152600660248201526508595e1a5cdd60d21b604482015260640161049f565b60025460009060609082610ab16007611344565b905060008167ffffffffffffffff811115610ace57610ace6117fd565b604051908082528060200260200182016040528015610af7578160200160208202803683370190505b5090506000805b83811015610c3a576000610b1360078361134e565b6001600160a01b03811660009081526005602052604090205490915086908015610b5257620186a0610b45828a611b37565b610b4f9190611b64565b91505b826001600160a01b031663ffb86c6a6040518163ffffffff1660e01b8152600401602060405180830381865afa158015610b90573d6000803e3d6000fd5b505050506040513d601f19601f82011682018060405250810190610bb49190611b78565b8015610be857504282610bdc856001600160a01b031660009081526004602052604090205490565b610be69190611b24565b105b15610c265782868581518110610c0057610c00611acc565b6001600160a01b039092166020928302919091019091015284610c2281611af8565b9550505b50505080610c3390611af8565b9050610afe565b5080600003610c7d576000604051806040016040528060138152602001724e6f207265616479207374726174656769657360681b81525095509550505050509091565b60008167ffffffffffffffff811115610c9857610c986117fd565b604051908082528060200260200182016040528015610cc1578160200160208202803683370190505b5090506000805b85811015610d635760006001600160a01b0316858281518110610ced57610ced611acc565b60200260200101516001600160a01b031614610d5357848181518110610d1557610d15611acc565b6020026020010151838381518110610d2f57610d2f611acc565b6001600160a01b0390921660209283029190910190910152610d5082611af8565b91505b610d5c81611af8565b9050610cc8565b50600163e5ad5c2a60e01b83604051602401610d7f9190611944565b60408051601f198184030181529190526020810180516001600160e01b03166001600160e01b03199093169290921790915290999098509650505050505050565b6000816001600160a01b0316610dd4611038565b6001600160a01b0316635aa6e6756040518163ffffffff1660e01b8152600401602060405180830381865afa158015610e11573d6000803e3d6000fd5b505050506040513d601f19601f82011682018060405250810190610e359190611b95565b6001600160a01b03161492915050565b6000546201000090046001600160a01b03163314610e755760405162461bcd60e51b815260040161049f90611aac565b600255565b3360009081526006602052604081205460ff16610ec55760405162461bcd60e51b815260206004820152600960248201526810b7b832b930ba37b960b91b604482015260640161049f565b81516000805b82811015611030576000858281518110610ee757610ee7611acc565b60200260200101519050806001600160a01b0316637d7c2a1c6040518163ffffffff1660e01b8152600401600060405180830381600087803b158015610f2c57600080fd5b505af1925050508015610f3d575060015b610ff657610f49611bb2565b806308c379a003610fa95750610f5d611bce565b80610f685750610fab565b610f718261135a565b81604051602001610f83929190611c58565b60408051601f198184030181529082905262461bcd60e51b825261049f91600401611a41565b505b3d808015610fd5576040519150601f19603f3d011682016040523d82523d6000602084013e610fda565b606091505b50610fe48261135a565b81604051602001610f83929190611cb2565b6001600160a01b03811660009081526004602052604090204290558261101b81611af8565b935050508061102990611af8565b9050610ecb565b509392505050565b600061067c61067860017f5165972ef41194f06c5007493031d0b927c20741adcb74403b954009fd2c3618611b11565b60006001600160e01b0319821663b7b79fa960e01b148061046957506301ffc9a760e01b6001600160e01b0319831614610469565b600054610100900460ff166111085760405162461bcd60e51b815260206004820152602b60248201527f496e697469616c697a61626c653a20636f6e7472616374206973206e6f74206960448201526a6e697469616c697a696e6760a81b606482015260840161049f565b6001600160a01b0381166111505760405162461bcd60e51b815260206004820152600f60248201526e2d32b9379031b7b73a3937b63632b960891b604482015260640161049f565b61117a817f4c2403fdcb3cff9b705d96bf0705858e3390412670a62c8bcba611ca7e20ab866114a1565b60006001600160a01b0316816001600160a01b0316635aa6e6756040518163ffffffff1660e01b8152600401602060405180830381865afa1580156111c3573d6000803e3d6000fd5b505050506040513d601f19601f820116820180604052508101906111e79190611b95565b6001600160a01b03160361122f5760405162461bcd60e51b815260206004820152600f60248201526e5a65726f20676f7665726e616e636560881b604482015260640161049f565b61125e8161076c60017f5165972ef41194f06c5007493031d0b927c20741adcb74403b954009fd2c3618611b11565b61128d4261076c60017f6f55f470bdc9cb5f04223fd822021061668e4dccb43e8727b295106dc9769c8b611b11565b6112bc4361076c60017f812a673dfca07956350df10f8a654925f561d7a0da09bdbe79e653939a14d9f1611b11565b604080516001600160a01b0383168152426020820152438183015290517f1a2dd071001ebf6e03174e3df5b305795a4ad5d41d8fdb9ba41dbbe2367134269181900360600190a150565b60606000611313836114f7565b9392505050565b6000611313836001600160a01b038416611553565b6000611313836001600160a01b0384166115a2565b6000610469825490565b60006113138383611695565b60408051602880825260608281019093526000919060208201818036833701905050905060005b601481101561149a576000611397826013611b11565b6113a2906008611b37565b6113ad906002611dfb565b6113c0906001600160a01b038716611b64565b60f81b9050600060108260f81c6113d79190611e07565b60f81b905060008160f81c60106113ee9190611e29565b8360f81c6113fc9190611e45565b60f81b905061140a826116bf565b85611416866002611b37565b8151811061142657611426611acc565b60200101906001600160f81b031916908160001a905350611446816116bf565b85611452866002611b37565b61145d906001611b24565b8151811061146d5761146d611acc565b60200101906001600160f81b031916908160001a905350505050808061149290611af8565b915050611381565b5092915050565b6114ab82826116f5565b6106445760405162461bcd60e51b815260206004820152601a60248201527f496e74657266616365206973206e6f7420737570706f72746564000000000000604482015260640161049f565b60608160000180548060200260200160405190810160405280929190818152602001828054801561154757602002820191906000526020600020905b815481526020019060010190808311611533575b50505050509050919050565b600081815260018301602052604081205461159a57508154600181810184556000848152602080822090930184905584548482528286019093526040902091909155610469565b506000610469565b6000818152600183016020526040812054801561168b5760006115c6600183611b11565b85549091506000906115da90600190611b11565b905081811461163f5760008660000182815481106115fa576115fa611acc565b906000526020600020015490508087600001848154811061161d5761161d611acc565b6000918252602080832090910192909255918252600188019052604090208390555b855486908061165057611650611e5e565b600190038181906000526020600020016000905590558560010160008681526020019081526020016000206000905560019350505050610469565b6000915050610469565b60008260000182815481106116ac576116ac611acc565b9060005260206000200154905092915050565b6000600a60f883901c10156116e6576116dd60f883901c6030611e74565b60f81b92915050565b6116dd60f883901c6057611e74565b60006001600160a01b03831661173c5760405162461bcd60e51b815260206004820152600c60248201526b5a65726f206164647265737360a01b604482015260640161049f565b823b6000819003611751576000915050610469565b6040516301ffc9a760e01b81526001600160e01b0319841660048201526001600160a01b038516906301ffc9a790602401602060405180830381865afa9250505080156117bb575060408051601f3d908101601f191682019092526117b891810190611b78565b60015b156117c95791506104699050565b5060009392505050565b6000602082840312156117e557600080fd5b81356001600160e01b03198116811461131357600080fd5b634e487b7160e01b600052604160045260246000fd5b601f8201601f1916810167ffffffffffffffff81118282101715611839576118396117fd565b6040525050565b6001600160a01b038116811461185557600080fd5b50565b600082601f83011261186957600080fd5b8135602067ffffffffffffffff821115611885576118856117fd565b8160051b60405161189883830182611813565b928352848101820192828101878511156118b157600080fd5b83870192505b848310156118d75782356118ca81611840565b81529183019183016118b7565b509695505050505050565b600080604083850312156118f557600080fd5b823567ffffffffffffffff81111561190c57600080fd5b61191885828601611858565b95602094909401359450505050565b60006020828403121561193957600080fd5b813561131381611840565b6020808252825182820181905260009190848201906040850190845b818110156119855783516001600160a01b031683529284019291840191600101611960565b50909695505050505050565b801515811461185557600080fd5b600080604083850312156119b257600080fd5b82356119bd81611840565b915060208301356119cd81611991565b809150509250929050565b6000602082840312156119ea57600080fd5b5035919050565b60005b83811015611a0c5781810151838201526020016119f4565b50506000910152565b60008151808452611a2d8160208601602086016119f1565b601f01601f19169290920160200192915050565b6020815260006113136020830184611a15565b8215158152604060208201526000611a6f6040830184611a15565b949350505050565b600060208284031215611a8957600080fd5b813567ffffffffffffffff811115611aa057600080fd5b611a6f84828501611858565b60208082526006908201526510b7bbb732b960d11b604082015260600190565b634e487b7160e01b600052603260045260246000fd5b634e487b7160e01b600052601160045260246000fd5b600060018201611b0a57611b0a611ae2565b5060010190565b8181038181111561046957610469611ae2565b8082018082111561046957610469611ae2565b808202811582820484141761046957610469611ae2565b634e487b7160e01b600052601260045260246000fd5b600082611b7357611b73611b4e565b500490565b600060208284031215611b8a57600080fd5b815161131381611991565b600060208284031215611ba757600080fd5b815161131381611840565b600060033d1115611bcb5760046000803e5060005160e01c5b90565b600060443d1015611bdc5790565b6040516003193d81016004833e81513d67ffffffffffffffff8160248401118184111715611c0c57505050505090565b8285019150815181811115611c245750505050505090565b843d8701016020828501011115611c3e5750505050505090565b611c4d60208286010187611813565b509095945050505050565b710a6e8e4c2e8cacef240cae4e4dee4744060f60731b815260008351611c858160128501602088016119f1565b600160fd1b6012918401918201528351611ca68160138401602088016119f1565b01601301949350505050565b7f5374726174656779206c6f772d6c6576656c206572726f723a20307800000000815260008351611cea81601c8501602088016119f1565b600160fd1b601c918401918201528351611d0b81601d8401602088016119f1565b01601d01949350505050565b600181815b80851115611d52578160001904821115611d3857611d38611ae2565b80851615611d4557918102915b93841c9390800290611d1c565b509250929050565b600082611d6957506001610469565b81611d7657506000610469565b8160018114611d8c5760028114611d9657611db2565b6001915050610469565b60ff841115611da757611da7611ae2565b50506001821b610469565b5060208310610133831016604e8410600b8410161715611dd5575081810a610469565b611ddf8383611d17565b8060001904821115611df357611df3611ae2565b029392505050565b60006113138383611d5a565b600060ff831680611e1a57611e1a611b4e565b8060ff84160491505092915050565b60ff818116838216029081169081811461149a5761149a611ae2565b60ff828116828216039081111561046957610469611ae2565b634e487b7160e01b600052603160045260246000fd5b60ff818116838216019081111561046957610469611ae256fea26469706673582212205816e1a9390d2b8ca6027aed623075ea50a455f720232c2c4641b4416165855264736f6c63430008110033",
  "devdoc": {
    "author": "a17",
    "kind": "dev",
    "methods": {
      "created()": {
        "returns": {
          "_0": "Creation timestamp"
        }
      },
      "createdBlock()": {
        "returns": {
          "_0": "Creation block number"
        }
      },
      "increaseRevision(address)": {
        "details": "Revision should be increased on each contract upgrade"
      },
      "isController(address)": {
        "details": "Return true if given address is controller"
      },
      "previousImplementation()": {
        "details": "Previous logic implementation"
      },
      "revision()": {
        "details": "Contract upgrade counter"
      },
      "supportsInterface(bytes4)": {
        "details": "See {IERC165-supportsInterface}."
      }
    },
    "title": "Gelato resolver for rebalancing strategies",
    "version": 1
  },
  "userdoc": {
    "kind": "user",
    "methods": {
      "CONTROLLABLE_VERSION()": {
        "notice": "Version of the contract"
      },
      "controller()": {
        "notice": "Return controller address saved in the contract slot"
      },
      "created()": {
        "notice": "Return creation timestamp"
      },
      "createdBlock()": {
        "notice": "Return creation block number"
      },
      "isGovernance(address)": {
        "notice": "Return true if given address is setup as governance in Controller"
      }
    },
    "version": 1
  },
  "storageLayout": {
    "storage": [
      {
        "astId": 1543,
        "contract": "contracts/tools/RebalanceResolver.sol:RebalanceResolver",
        "label": "_initialized",
        "offset": 0,
        "slot": "0",
        "type": "t_uint8"
      },
      {
        "astId": 1546,
        "contract": "contracts/tools/RebalanceResolver.sol:RebalanceResolver",
        "label": "_initializing",
        "offset": 1,
        "slot": "0",
        "type": "t_bool"
      },
      {
        "astId": 2254,
        "contract": "contracts/tools/RebalanceResolver.sol:RebalanceResolver",
        "label": "owner",
        "offset": 2,
        "slot": "0",
        "type": "t_address"
      },
      {
        "astId": 2256,
        "contract": "contracts/tools/RebalanceResolver.sol:RebalanceResolver",
        "label": "pendingOwner",
        "offset": 0,
        "slot": "1",
        "type": "t_address"
      },
      {
        "astId": 2258,
        "contract": "contracts/tools/RebalanceResolver.sol:RebalanceResolver",
        "label": "delay",
        "offset": 0,
        "slot": "2",
        "type": "t_uint256"
      },
      {
        "astId": 2260,
        "contract": "contracts/tools/RebalanceResolver.sol:RebalanceResolver",
        "label": "maxGas",
        "offset": 0,
        "slot": "3",
        "type": "t_uint256"
      },
      {
        "astId": 2264,
        "contract": "contracts/tools/RebalanceResolver.sol:RebalanceResolver",
        "label": "_lastRebalance",
        "offset": 0,
        "slot": "4",
        "type": "t_mapping(t_address,t_uint256)"
      },
      {
        "astId": 2268,
        "contract": "contracts/tools/RebalanceResolver.sol:RebalanceResolver",
        "label": "delayRate",
        "offset": 0,
        "slot": "5",
        "type": "t_mapping(t_address,t_uint256)"
      },
      {
        "astId": 2272,
        "contract": "contracts/tools/RebalanceResolver.sol:RebalanceResolver",
        "label": "operators",
        "offset": 0,
        "slot": "6",
        "type": "t_mapping(t_address,t_bool)"
      },
      {
        "astId": 2275,
        "contract": "contracts/tools/RebalanceResolver.sol:RebalanceResolver",
        "label": "strategies",
        "offset": 0,
        "slot": "7",
        "type": "t_struct(AddressSet)1249_storage"
      }
    ],
    "types": {
      "t_address": {
        "encoding": "inplace",
        "label": "address",
        "numberOfBytes": "20"
      },
      "t_array(t_bytes32)dyn_storage": {
        "base": "t_bytes32",
        "encoding": "dynamic_array",
        "label": "bytes32[]",
        "numberOfBytes": "32"
      },
      "t_bool": {
        "encoding": "inplace",
        "label": "bool",
        "numberOfBytes": "1"
      },
      "t_bytes32": {
        "encoding": "inplace",
        "label": "bytes32",
        "numberOfBytes": "32"
      },
      "t_mapping(t_address,t_bool)": {
        "encoding": "mapping",
        "key": "t_address",
        "label": "mapping(address => bool)",
        "numberOfBytes": "32",
        "value": "t_bool"
      },
      "t_mapping(t_address,t_uint256)": {
        "encoding": "mapping",
        "key": "t_address",
        "label": "mapping(address => uint256)",
        "numberOfBytes": "32",
        "value": "t_uint256"
      },
      "t_mapping(t_bytes32,t_uint256)": {
        "encoding": "mapping",
        "key": "t_bytes32",
        "label": "mapping(bytes32 => uint256)",
        "numberOfBytes": "32",
        "value": "t_uint256"
      },
      "t_struct(AddressSet)1249_storage": {
        "encoding": "inplace",
        "label": "struct EnumerableSet.AddressSet",
        "members": [
          {
            "astId": 1248,
            "contract": "contracts/tools/RebalanceResolver.sol:RebalanceResolver",
            "label": "_inner",
            "offset": 0,
            "slot": "0",
            "type": "t_struct(Set)934_storage"
          }
        ],
        "numberOfBytes": "64"
      },
      "t_struct(Set)934_storage": {
        "encoding": "inplace",
        "label": "struct EnumerableSet.Set",
        "members": [
          {
            "astId": 929,
            "contract": "contracts/tools/RebalanceResolver.sol:RebalanceResolver",
            "label": "_values",
            "offset": 0,
            "slot": "0",
            "type": "t_array(t_bytes32)dyn_storage"
          },
          {
            "astId": 933,
            "contract": "contracts/tools/RebalanceResolver.sol:RebalanceResolver",
            "label": "_indexes",
            "offset": 0,
            "slot": "1",
            "type": "t_mapping(t_bytes32,t_uint256)"
          }
        ],
        "numberOfBytes": "64"
      },
      "t_uint256": {
        "encoding": "inplace",
        "label": "uint256",
        "numberOfBytes": "32"
      },
      "t_uint8": {
        "encoding": "inplace",
        "label": "uint8",
        "numberOfBytes": "1"
      }
    }
  }
}