{
  "address": "0x1C183e97e14fDF228D691a9C35fCd6a225f25068",
  "abi": [
    {
      "anonymous": false,
      "inputs": [
        {
          "indexed": true,
          "internalType": "address",
          "name": "previousOwner",
          "type": "address"
        },
        {
          "indexed": true,
          "internalType": "address",
          "name": "newOwner",
          "type": "address"
        }
      ],
      "name": "OwnershipTransferred",
      "type": "event"
    },
    {
      "inputs": [],
      "name": "owner",
      "outputs": [
        {
          "internalType": "address",
          "name": "",
          "type": "address"
        }
      ],
      "stateMutability": "view",
      "type": "function"
    },
    {
      "inputs": [
        {
          "internalType": "address",
          "name": "balancerRebalancer",
          "type": "address"
        },
        {
          "internalType": "uint256",
          "name": "amount",
          "type": "uint256"
        }
      ],
      "name": "rebalanceWithExtraMain",
      "outputs": [],
      "stateMutability": "nonpayable",
      "type": "function"
    },
    {
      "inputs": [],
      "name": "renounceOwnership",
      "outputs": [],
      "stateMutability": "nonpayable",
      "type": "function"
    },
    {
      "inputs": [
        {
          "internalType": "address",
          "name": "newOwner",
          "type": "address"
        }
      ],
      "name": "transferOwnership",
      "outputs": [],
      "stateMutability": "nonpayable",
      "type": "function"
    },
    {
      "inputs": [
        {
          "internalType": "address",
          "name": "token",
          "type": "address"
        },
        {
          "internalType": "uint256",
          "name": "amount",
          "type": "uint256"
        }
      ],
      "name": "withdraw",
      "outputs": [],
      "stateMutability": "nonpayable",
      "type": "function"
    }
  ],
  "transactionHash": "0xcc4ccae6a5183e0657e82d61d9ceb13af3cf4b9cc92af7a6fab3521bb654bfd6",
  "args": [],
  "numDeployments": 1,
  "solcInputHash": "bbdd8ef8590e2d529a8f5ec117d2076c",
  "bytecode": "0x608060405234801561001057600080fd5b5061001a3361001f565b61006f565b600080546001600160a01b038381166001600160a01b0319831681178455604051919092169283917f8be0079c531659141344cd1fd0a4f28419497f9722a3daafe3b4186f6b6457e09190a35050565b61096a8061007e6000396000f3fe608060405234801561001057600080fd5b50600436106100575760003560e01c8063715018a61461005c5780638da5cb5b14610066578063df633d8d14610085578063f2fde38b14610098578063f3fef3a3146100ab575b600080fd5b6100646100be565b005b600054604080516001600160a01b039092168252519081900360200190f35b610064610093366004610819565b6100d2565b6100646100a6366004610845565b6102e2565b6100646100b9366004610819565b61035b565b6100c661037b565b6100d060006103d5565b565b60008290506000816001600160a01b031663026b1d5f6040518163ffffffff1660e01b8152600401602060405180830381865afa158015610117573d6000803e3d6000fd5b505050506040513d601f19601f8201168201806040525081019061013b9190610869565b90506000816001600160a01b0316634de046d56040518163ffffffff1660e01b8152600401602060405180830381865afa15801561017d573d6000803e3d6000fd5b505050506040513d601f19601f820116820180604052508101906101a19190610869565b6040516370a0823160e01b815230600482015290915084906001600160a01b038316906370a0823190602401602060405180830381865afa1580156101ea573d6000803e3d6000fd5b505050506040513d601f19601f8201168201806040525081019061020e9190610886565b10156102555760405162461bcd60e51b81526020600482015260116024820152704e6f7420656e6f75676820746f6b656e7360781b60448201526064015b60405180910390fd5b6102696001600160a01b0382168686610425565b60405163df633d8d60e01b8152306004820152602481018590526001600160a01b0386169063df633d8d906044016020604051808303816000875af11580156102b6573d6000803e3d6000fd5b505050506040513d601f19601f820116820180604052508101906102da9190610886565b505050505050565b6102ea61037b565b6001600160a01b03811661034f5760405162461bcd60e51b815260206004820152602660248201527f4f776e61626c653a206e6577206f776e657220697320746865207a65726f206160448201526564647265737360d01b606482015260840161024c565b610358816103d5565b50565b61036361037b565b6103776001600160a01b0383163383610572565b5050565b6000546001600160a01b031633146100d05760405162461bcd60e51b815260206004820181905260248201527f4f776e61626c653a2063616c6c6572206973206e6f7420746865206f776e6572604482015260640161024c565b600080546001600160a01b038381166001600160a01b0319831681178455604051919092169283917f8be0079c531659141344cd1fd0a4f28419497f9722a3daafe3b4186f6b6457e09190a35050565b80158061049f5750604051636eb1769f60e11b81523060048201526001600160a01b03838116602483015284169063dd62ed3e90604401602060405180830381865afa158015610479573d6000803e3d6000fd5b505050506040513d601f19601f8201168201806040525081019061049d9190610886565b155b61050a5760405162461bcd60e51b815260206004820152603660248201527f5361666545524332303a20617070726f76652066726f6d206e6f6e2d7a65726f60448201527520746f206e6f6e2d7a65726f20616c6c6f77616e636560501b606482015260840161024c565b6040516001600160a01b03831660248201526044810182905261056d90849063095ea7b360e01b906064015b60408051601f198184030181529190526020810180516001600160e01b03166001600160e01b0319909316929092179091526105a2565b505050565b6040516001600160a01b03831660248201526044810182905261056d90849063a9059cbb60e01b90606401610536565b60006105f7826040518060400160405280602081526020017f5361666545524332303a206c6f772d6c6576656c2063616c6c206661696c6564815250856001600160a01b03166106749092919063ffffffff16565b80519091501561056d5780806020019051810190610615919061089f565b61056d5760405162461bcd60e51b815260206004820152602a60248201527f5361666545524332303a204552433230206f7065726174696f6e20646964206e6044820152691bdd081cdd58d8d9595960b21b606482015260840161024c565b6060610683848460008561068b565b949350505050565b6060824710156106ec5760405162461bcd60e51b815260206004820152602660248201527f416464726573733a20696e73756666696369656e742062616c616e636520666f6044820152651c8818d85b1b60d21b606482015260840161024c565b600080866001600160a01b0316858760405161070891906108e5565b60006040518083038185875af1925050503d8060008114610745576040519150601f19603f3d011682016040523d82523d6000602084013e61074a565b606091505b509150915061075b87838387610766565b979650505050505050565b606083156107d55782516000036107ce576001600160a01b0385163b6107ce5760405162461bcd60e51b815260206004820152601d60248201527f416464726573733a2063616c6c20746f206e6f6e2d636f6e7472616374000000604482015260640161024c565b5081610683565b61068383838151156107ea5781518083602001fd5b8060405162461bcd60e51b815260040161024c9190610901565b6001600160a01b038116811461035857600080fd5b6000806040838503121561082c57600080fd5b823561083781610804565b946020939093013593505050565b60006020828403121561085757600080fd5b813561086281610804565b9392505050565b60006020828403121561087b57600080fd5b815161086281610804565b60006020828403121561089857600080fd5b5051919050565b6000602082840312156108b157600080fd5b8151801515811461086257600080fd5b60005b838110156108dc5781810151838201526020016108c4565b50506000910152565b600082516108f78184602087016108c1565b9190910192915050565b60208152600082518060208401526109208160408501602087016108c1565b601f01601f1916919091016040019291505056fea2646970667358221220fa7ababcf2195a6f925d9ee4eed3944107ac3d4d9c686ed6fc712bdc5f9abfb764736f6c63430008110033",
  "devdoc": {
    "kind": "dev",
    "methods": {
      "owner()": {
        "details": "Returns the address of the current owner."
      },
      "renounceOwnership()": {
        "details": "Leaves the contract without owner. It will not be possible to call `onlyOwner` functions anymore. Can only be called by the current owner. NOTE: Renouncing ownership will leave the contract without an owner, thereby removing any functionality that is only available to the owner."
      },
      "transferOwnership(address)": {
        "details": "Transfers ownership of the contract to a new account (`newOwner`). Can only be called by the current owner."
      }
    },
    "version": 1
  },
  "userdoc": {
    "kind": "user",
    "methods": {},
    "version": 1
  },
  "storageLayout": {
    "storage": [
      {
        "astId": 634,
        "contract": "contracts/tools/RebalancerWithExtraMain.sol:RebalancerWithExtraMain",
        "label": "_owner",
        "offset": 0,
        "slot": "0",
        "type": "t_address"
      }
    ],
    "types": {
      "t_address": {
        "encoding": "inplace",
        "label": "address",
        "numberOfBytes": "20"
      }
    }
  }
}