{
  "address": "0x77292bc1150c2fD7E77BB9026eCaFd3E971bd48b",
  "abi": [
    {
      "anonymous": false,
      "inputs": [
        {
          "indexed": false,
          "internalType": "address",
          "name": "controller",
          "type": "address"
        },
        {
          "indexed": false,
          "internalType": "uint256",
          "name": "ts",
          "type": "uint256"
        },
        {
          "indexed": false,
          "internalType": "uint256",
          "name": "block",
          "type": "uint256"
        }
      ],
      "name": "ContractInitialized",
      "type": "event"
    },
    {
      "anonymous": false,
      "inputs": [
        {
          "indexed": false,
          "internalType": "uint8",
          "name": "version",
          "type": "uint8"
        }
      ],
      "name": "Initialized",
      "type": "event"
    },
    {
      "anonymous": false,
      "inputs": [
        {
          "indexed": false,
          "internalType": "uint256",
          "name": "value",
          "type": "uint256"
        },
        {
          "indexed": false,
          "internalType": "address",
          "name": "oldLogic",
          "type": "address"
        }
      ],
      "name": "RevisionIncreased",
      "type": "event"
    },
    {
      "inputs": [],
      "name": "CONTROLLABLE_VERSION",
      "outputs": [
        {
          "internalType": "string",
          "name": "",
          "type": "string"
        }
      ],
      "stateMutability": "view",
      "type": "function"
    },
    {
      "inputs": [],
      "name": "DELAY_RATE_DENOMINATOR",
      "outputs": [
        {
          "internalType": "uint256",
          "name": "",
          "type": "uint256"
        }
      ],
      "stateMutability": "view",
      "type": "function"
    },
    {
      "inputs": [],
      "name": "VERSION",
      "outputs": [
        {
          "internalType": "string",
          "name": "",
          "type": "string"
        }
      ],
      "stateMutability": "view",
      "type": "function"
    },
    {
      "inputs": [],
      "name": "acceptOwnership",
      "outputs": [],
      "stateMutability": "nonpayable",
      "type": "function"
    },
    {
      "inputs": [
        {
          "internalType": "address[]",
          "name": "_strategies",
          "type": "address[]"
        }
      ],
      "name": "call",
      "outputs": [
        {
          "internalType": "uint256",
          "name": "amountOfCalls",
          "type": "uint256"
        }
      ],
      "stateMutability": "nonpayable",
      "type": "function"
    },
    {
      "inputs": [
        {
          "internalType": "address",
          "name": "operator",
          "type": "address"
        },
        {
          "internalType": "bool",
          "name": "status",
          "type": "bool"
        }
      ],
      "name": "changeOperatorStatus",
      "outputs": [],
      "stateMutability": "nonpayable",
      "type": "function"
    },
    {
      "inputs": [],
      "name": "checker",
      "outputs": [
        {
          "internalType": "bool",
          "name": "canExec",
          "type": "bool"
        },
        {
          "internalType": "bytes",
          "name": "execPayload",
          "type": "bytes"
        }
      ],
      "stateMutability": "view",
      "type": "function"
    },
    {
      "inputs": [],
      "name": "controller",
      "outputs": [
        {
          "internalType": "address",
          "name": "",
          "type": "address"
        }
      ],
      "stateMutability": "view",
      "type": "function"
    },
    {
      "inputs": [],
      "name": "created",
      "outputs": [
        {
          "internalType": "uint256",
          "name": "",
          "type": "uint256"
        }
      ],
      "stateMutability": "view",
      "type": "function"
    },
    {
      "inputs": [],
      "name": "createdBlock",
      "outputs": [
        {
          "internalType": "uint256",
          "name": "",
          "type": "uint256"
        }
      ],
      "stateMutability": "view",
      "type": "function"
    },
    {
      "inputs": [],
      "name": "delay",
      "outputs": [
        {
          "internalType": "uint256",
          "name": "",
          "type": "uint256"
        }
      ],
      "stateMutability": "view",
      "type": "function"
    },
    {
      "inputs": [
        {
          "internalType": "address",
          "name": "",
          "type": "address"
        }
      ],
      "name": "delayRate",
      "outputs": [
        {
          "internalType": "uint256",
          "name": "",
          "type": "uint256"
        }
      ],
      "stateMutability": "view",
      "type": "function"
    },
    {
      "inputs": [
        {
          "internalType": "address",
          "name": "oldLogic",
          "type": "address"
        }
      ],
      "name": "increaseRevision",
      "outputs": [],
      "stateMutability": "nonpayable",
      "type": "function"
    },
    {
      "inputs": [
        {
          "internalType": "address",
          "name": "controller_",
          "type": "address"
        }
      ],
      "name": "init",
      "outputs": [],
      "stateMutability": "nonpayable",
      "type": "function"
    },
    {
      "inputs": [
        {
          "internalType": "address",
          "name": "_value",
          "type": "address"
        }
      ],
      "name": "isController",
      "outputs": [
        {
          "internalType": "bool",
          "name": "",
          "type": "bool"
        }
      ],
      "stateMutability": "view",
      "type": "function"
    },
    {
      "inputs": [
        {
          "internalType": "address",
          "name": "_value",
          "type": "address"
        }
      ],
      "name": "isGovernance",
      "outputs": [
        {
          "internalType": "bool",
          "name": "",
          "type": "bool"
        }
      ],
      "stateMutability": "view",
      "type": "function"
    },
    {
      "inputs": [
        {
          "internalType": "address",
          "name": "strategy",
          "type": "address"
        }
      ],
      "name": "lastRebalance",
      "outputs": [
        {
          "internalType": "uint256",
          "name": "lastRebalanceTimestamp",
          "type": "uint256"
        }
      ],
      "stateMutability": "view",
      "type": "function"
    },
    {
      "inputs": [],
      "name": "maxGas",
      "outputs": [
        {
          "internalType": "uint256",
          "name": "",
          "type": "uint256"
        }
      ],
      "stateMutability": "view",
      "type": "function"
    },
    {
      "inputs": [
        {
          "internalType": "address",
          "name": "value",
          "type": "address"
        }
      ],
      "name": "offerOwnership",
      "outputs": [],
      "stateMutability": "nonpayable",
      "type": "function"
    },
    {
      "inputs": [
        {
          "internalType": "address",
          "name": "",
          "type": "address"
        }
      ],
      "name": "operators",
      "outputs": [
        {
          "internalType": "bool",
          "name": "",
          "type": "bool"
        }
      ],
      "stateMutability": "view",
      "type": "function"
    },
    {
      "inputs": [],
      "name": "owner",
      "outputs": [
        {
          "internalType": "address",
          "name": "",
          "type": "address"
        }
      ],
      "stateMutability": "view",
      "type": "function"
    },
    {
      "inputs": [],
      "name": "pendingOwner",
      "outputs": [
        {
          "internalType": "address",
          "name": "",
          "type": "address"
        }
      ],
      "stateMutability": "view",
      "type": "function"
    },
    {
      "inputs": [],
      "name": "previousImplementation",
      "outputs": [
        {
          "internalType": "address",
          "name": "",
          "type": "address"
        }
      ],
      "stateMutability": "view",
      "type": "function"
    },
    {
      "inputs": [],
      "name": "revision",
      "outputs": [
        {
          "internalType": "uint256",
          "name": "",
          "type": "uint256"
        }
      ],
      "stateMutability": "view",
      "type": "function"
    },
    {
      "inputs": [
        {
          "internalType": "uint256",
          "name": "value",
          "type": "uint256"
        }
      ],
      "name": "setDelay",
      "outputs": [],
      "stateMutability": "nonpayable",
      "type": "function"
    },
    {
      "inputs": [
        {
          "internalType": "address[]",
          "name": "_strategies",
          "type": "address[]"
        },
        {
          "internalType": "uint256",
          "name": "value",
          "type": "uint256"
        }
      ],
      "name": "setDelayRate",
      "outputs": [],
      "stateMutability": "nonpayable",
      "type": "function"
    },
    {
      "inputs": [
        {
          "internalType": "uint256",
          "name": "value",
          "type": "uint256"
        }
      ],
      "name": "setMaxGas",
      "outputs": [],
      "stateMutability": "nonpayable",
      "type": "function"
    },
    {
      "inputs": [
        {
          "internalType": "bytes4",
          "name": "interfaceId",
          "type": "bytes4"
        }
      ],
      "name": "supportsInterface",
      "outputs": [
        {
          "internalType": "bool",
          "name": "",
          "type": "bool"
        }
      ],
      "stateMutability": "view",
      "type": "function"
    }
  ],
  "transactionHash": "0x2c45349c34ce2ccbd074bfe5f315772f650be09cc54bfecd23f52cf30476e166",
  "args": [],
  "numDeployments": 3,
  "solcInputHash": "6798e17122d1864c179f6dfdd6019869",
  "bytecode": "0x608060405234801561001057600080fd5b5061001961001e565b6100dd565b600054610100900460ff161561008a5760405162461bcd60e51b815260206004820152602760248201527f496e697469616c697a61626c653a20636f6e747261637420697320696e697469604482015266616c697a696e6760c81b606482015260840160405180910390fd5b60005460ff908116146100db576000805460ff191660ff9081179091556040519081527f7f26b83ff96e1f2b6a682f133852f6798a09c465da95921460cefb38474024989060200160405180910390a15b565b612008806100ec6000396000f3fe608060405234801561001057600080fd5b50600436106101845760003560e01c80638e3e92f2116100d9578063e177246e11610087578063e177246e14610338578063e30c39781461034b578063e5ad5c2a1461035e578063f6f5d9cc14610371578063f77c479114610391578063fdd0fd2d14610399578063ffa1ad74146103c257600080fd5b80638e3e92f21461029d5780638e928076146102b0578063936725ec146102c35780639d0bcca0146102f4578063b429afeb146102fc578063cf5303cf1461030f578063dee1f0e41461032557600080fd5b8063501d815c11610136578063501d815c1461022d5780636575c458146102365780636a42b8f81461024957806379ba5097146102525780637cc963801461025a57806383d2e5f3146102625780638da5cb5b1461026c57600080fd5b806301ffc9a714610189578063070a0ea9146101b157806313e7c9d8146101c657806319ab453c146101e9578063325a19f1146101fc5780634593144c146102125780634fac6ccd1461021a575b600080fd5b61019c610197366004611876565b6103e6565b60405190151581526020015b60405180910390f35b6101c46101bf36600461198c565b610411565b005b61019c6101d43660046119d1565b60066020526000908152604090205460ff1681565b6101c46101f73660046119d1565b6104af565b6102046105ea565b6040519081526020016101a8565b610204610623565b6101c46102283660046119d1565b610653565b61020460035481565b6101c46102443660046119fc565b61077e565b61020460025481565b6101c46107d9565b610204610857565b610204620186a081565b600054610285906201000090046001600160a01b031681565b6040516001600160a01b0390911681526020016101a8565b6101c46102ab3660046119d1565b610887565b6101c46102be366004611a35565b6108d9565b6102e7604051806040016040528060058152602001640332e302e360dc1b81525081565b6040516101a89190611a9e565b61028561090e565b61019c61030a3660046119d1565b61093e565b610317610963565b6040516101a8929190611ab1565b61019c6103333660046119d1565b610eeb565b6101c4610346366004611a35565b610f70565b600154610285906001600160a01b031681565b61020461036c366004611ad4565b610fa5565b61020461037f3660046119d1565b60056020526000908152604090205481565b610285611163565b6102046103a73660046119d1565b6001600160a01b031660009081526004602052604090205490565b6102e7604051806040016040528060058152602001640312e312e360dc1b81525081565b60006001600160e01b0319821663c19fa56160e01b148061040b575061040b82611193565b92915050565b6000546201000090046001600160a01b0316331461044a5760405162461bcd60e51b815260040161044190611b09565b60405180910390fd5b60005b82518110156104aa57816005600085848151811061046d5761046d611b29565b60200260200101516001600160a01b03166001600160a01b0316815260200190815260200160002081905550806104a390611b55565b905061044d565b505050565b600054610100900460ff16158080156104cf5750600054600160ff909116105b806104e95750303b1580156104e9575060005460ff166001145b61054c5760405162461bcd60e51b815260206004820152602e60248201527f496e697469616c697a61626c653a20636f6e747261637420697320616c72656160448201526d191e481a5b9a5d1a585b1a5e995960921b6064820152608401610441565b6000805460ff19166001179055801561056f576000805461ff0019166101001790555b610578826111c8565b6000805462010000600160b01b031916336201000002179055603c600255640826299e0060035580156105e6576000805461ff0019169055604051600181527f7f26b83ff96e1f2b6a682f133852f6798a09c465da95921460cefb3847402498906020015b60405180910390a15b5050565b600061061e61061a60017f6f55f470bdc9cb5f04223fd822021061668e4dccb43e8727b295106dc9769c8b611b6e565b5490565b905090565b600061061e61061a60017f812a673dfca07956350df10f8a654925f561d7a0da09bdbe79e653939a14d9f1611b6e565b3330146106a25760405162461bcd60e51b815260206004820152601b60248201527f496e637265617365207265766973696f6e20666f7262696464656e00000000006044820152606401610441565b60006106d261061a60017f22573091f17911fb166032a3d9e0554aa73d31b7b7ddea4a4dd2995650af84bd611b6e565b6106dd906001611b81565b90506107118161070e60017f22573091f17911fb166032a3d9e0554aa73d31b7b7ddea4a4dd2995650af84bd611b6e565b55565b6107408261070e60017fbfaaa2fb63266ff27c2da975f5894955056f50419af651a81f6c5060581857e4611b6e565b604080518281526001600160a01b03841660208201527ff27e2ef832a4eb8ed8ec553b875eecd44764cda95b1c24170e281539e0a869c891016105dd565b6000546201000090046001600160a01b031633146107ae5760405162461bcd60e51b815260040161044190611b09565b6001600160a01b03919091166000908152600660205260409020805460ff1916911515919091179055565b6001546001600160a01b031633146108235760405162461bcd60e51b815260206004820152600d60248201526c10b832b73234b733a7bbb732b960991b6044820152606401610441565b600180546000805462010000600160b01b0319166001600160a01b03831662010000021790556001600160a01b0319169055565b600061061e61061a60017f22573091f17911fb166032a3d9e0554aa73d31b7b7ddea4a4dd2995650af84bd611b6e565b6000546201000090046001600160a01b031633146108b75760405162461bcd60e51b815260040161044190611b09565b600180546001600160a01b0319166001600160a01b0392909216919091179055565b6000546201000090046001600160a01b031633146109095760405162461bcd60e51b815260040161044190611b09565b600355565b600061061e61061a60017fbfaaa2fb63266ff27c2da975f5894955056f50419af651a81f6c5060581857e4611b6e565b6000610948611163565b6001600160a01b0316826001600160a01b0316149050919050565b600060606000610971611163565b90506000816001600160a01b031663d6abd26a6040518163ffffffff1660e01b8152600401602060405180830381865afa1580156109b3573d6000803e3d6000fd5b505050506040513d601f19601f820116820180604052508101906109d79190611b94565b90506000805b82811015610bc757604051634632752560e11b8152600481018290526000906001600160a01b03861690638c64ea4a90602401602060405180830381865afa158015610a2d573d6000803e3d6000fd5b505050506040513d601f19601f82011682018060405250810190610a519190611bad565b6001600160a01b0316633cd8045e6040518163ffffffff1660e01b8152600401602060405180830381865afa158015610a8e573d6000803e3d6000fd5b505050506040513d601f19601f82011682018060405250810190610ab29190611bad565b905060005b816001600160a01b0316633f74bb896040518163ffffffff1660e01b8152600401602060405180830381865afa158015610af5573d6000803e3d6000fd5b505050506040513d601f19601f82011682018060405250810190610b199190611b94565b811015610bb45760405163d574ea3d60e01b815260048101829052610b93906001600160a01b0384169063d574ea3d906024015b602060405180830381865afa158015610b6a573d6000803e3d6000fd5b505050506040513d601f19601f82011682018060405250810190610b8e9190611bad565b611431565b15610ba457610ba184611b55565b93505b610bad81611b55565b9050610ab7565b505080610bc090611b55565b90506109dd565b5080600003610c09576000604051806040016040528060138152602001724e6f207265616479207374726174656769657360681b815250945094505050509091565b60008167ffffffffffffffff811115610c2457610c246118a7565b604051908082528060200260200182016040528015610c4d578160200160208202803683370190505b5090506000805b84811015610e8f57604051634632752560e11b8152600481018290526000906001600160a01b03881690638c64ea4a90602401602060405180830381865afa158015610ca4573d6000803e3d6000fd5b505050506040513d601f19601f82011682018060405250810190610cc89190611bad565b6001600160a01b0316633cd8045e6040518163ffffffff1660e01b8152600401602060405180830381865afa158015610d05573d6000803e3d6000fd5b505050506040513d601f19601f82011682018060405250810190610d299190611bad565b905060005b816001600160a01b0316633f74bb896040518163ffffffff1660e01b8152600401602060405180830381865afa158015610d6c573d6000803e3d6000fd5b505050506040513d601f19601f82011682018060405250810190610d909190611b94565b811015610e7c5760405163d574ea3d60e01b815260048101829052610dc8906001600160a01b0384169063d574ea3d90602401610b4d565b15610e6c5760405163d574ea3d60e01b8152600481018290526001600160a01b0383169063d574ea3d90602401602060405180830381865afa158015610e12573d6000803e3d6000fd5b505050506040513d601f19601f82011682018060405250810190610e369190611bad565b858581518110610e4857610e48611b29565b6001600160a01b0390921660209283029190910190910152610e6984611b55565b93505b610e7581611b55565b9050610d2e565b505080610e8890611b55565b9050610c54565b50600163e5ad5c2a60e01b83604051602401610eab9190611bca565b60408051601f198184030181529190526020810180516001600160e01b03166001600160e01b031990931692909217909152909890975095505050505050565b6000816001600160a01b0316610eff611163565b6001600160a01b0316635aa6e6756040518163ffffffff1660e01b8152600401602060405180830381865afa158015610f3c573d6000803e3d6000fd5b505050506040513d601f19601f82011682018060405250810190610f609190611bad565b6001600160a01b03161492915050565b6000546201000090046001600160a01b03163314610fa05760405162461bcd60e51b815260040161044190611b09565b600255565b3360009081526006602052604081205460ff16610ff05760405162461bcd60e51b815260206004820152600960248201526810b7b832b930ba37b960b91b6044820152606401610441565b81516000805b8281101561115b57600085828151811061101257611012611b29565b60200260200101519050806001600160a01b0316637d7c2a1c6040518163ffffffff1660e01b8152600401600060405180830381600087803b15801561105757600080fd5b505af1925050508015611068575060015b61112157611074611c17565b806308c379a0036110d45750611088611c33565b8061109357506110d6565b61109c826115c5565b816040516020016110ae929190611cbd565b60408051601f198184030181529082905262461bcd60e51b825261044191600401611a9e565b505b3d808015611100576040519150601f19603f3d011682016040523d82523d6000602084013e611105565b606091505b5061110f826115c5565b816040516020016110ae929190611d17565b6001600160a01b03811660009081526004602052604090204290558261114681611b55565b935050508061115490611b55565b9050610ff6565b509392505050565b600061061e61061a60017f5165972ef41194f06c5007493031d0b927c20741adcb74403b954009fd2c3618611b6e565b60006001600160e01b0319821663b7b79fa960e01b148061040b57506301ffc9a760e01b6001600160e01b031983161461040b565b600054610100900460ff166112335760405162461bcd60e51b815260206004820152602b60248201527f496e697469616c697a61626c653a20636f6e7472616374206973206e6f74206960448201526a6e697469616c697a696e6760a81b6064820152608401610441565b6001600160a01b03811661127b5760405162461bcd60e51b815260206004820152600f60248201526e2d32b9379031b7b73a3937b63632b960891b6044820152606401610441565b6112a5817f4c2403fdcb3cff9b705d96bf0705858e3390412670a62c8bcba611ca7e20ab8661170c565b60006001600160a01b0316816001600160a01b0316635aa6e6756040518163ffffffff1660e01b8152600401602060405180830381865afa1580156112ee573d6000803e3d6000fd5b505050506040513d601f19601f820116820180604052508101906113129190611bad565b6001600160a01b03160361135a5760405162461bcd60e51b815260206004820152600f60248201526e5a65726f20676f7665726e616e636560881b6044820152606401610441565b6113898161070e60017f5165972ef41194f06c5007493031d0b927c20741adcb74403b954009fd2c3618611b6e565b6113b84261070e60017f6f55f470bdc9cb5f04223fd822021061668e4dccb43e8727b295106dc9769c8b611b6e565b6113e74361070e60017f812a673dfca07956350df10f8a654925f561d7a0da09bdbe79e653939a14d9f1611b6e565b604080516001600160a01b0383168152426020820152438183015290517f1a2dd071001ebf6e03174e3df5b305795a4ad5d41d8fdb9ba41dbbe2367134269181900360600190a150565b60008082905060405180604001604052806009815260200168556e6973776170563360b81b81525080519060200120816001600160a01b0316637efc77fa6040518163ffffffff1660e01b8152600401600060405180830381865afa15801561149e573d6000803e3d6000fd5b505050506040513d6000823e601f3d908101601f191682016040526114c69190810190611d7c565b805190602001201480156115375750826001600160a01b031663ffb86c6a6040518163ffffffff1660e01b8152600401602060405180830381865afa158015611513573d6000803e3d6000fd5b505050506040513d601f19601f820116820180604052508101906115379190611e14565b156115bc576002546001600160a01b038416600090815260056020526040902054801561157d57620186a0816002546115709190611e31565b61157a9190611e5e565b91505b428261159e876001600160a01b031660009081526004602052604090205490565b6115a89190611b81565b10156115b957506001949350505050565b50505b50600092915050565b60408051602880825260608281019093526000919060208201818036833701905050905060005b6014811015611705576000611602826013611b6e565b61160d906008611e31565b611618906002611f56565b61162b906001600160a01b038716611e5e565b60f81b9050600060108260f81c6116429190611f62565b60f81b905060008160f81c60106116599190611f84565b8360f81c6116679190611fa0565b60f81b905061167582611762565b85611681866002611e31565b8151811061169157611691611b29565b60200101906001600160f81b031916908160001a9053506116b181611762565b856116bd866002611e31565b6116c8906001611b81565b815181106116d8576116d8611b29565b60200101906001600160f81b031916908160001a90535050505080806116fd90611b55565b9150506115ec565b5092915050565b6117168282611798565b6105e65760405162461bcd60e51b815260206004820152601a60248201527f496e74657266616365206973206e6f7420737570706f727465640000000000006044820152606401610441565b6000600a60f883901c10156117895761178060f883901c6030611fb9565b60f81b92915050565b61178060f883901c6057611fb9565b60006001600160a01b0383166117df5760405162461bcd60e51b815260206004820152600c60248201526b5a65726f206164647265737360a01b6044820152606401610441565b823b60008190036117f457600091505061040b565b6040516301ffc9a760e01b81526001600160e01b0319841660048201526001600160a01b038516906301ffc9a790602401602060405180830381865afa92505050801561185e575060408051601f3d908101601f1916820190925261185b91810190611e14565b60015b1561186c57915061040b9050565b5060009392505050565b60006020828403121561188857600080fd5b81356001600160e01b0319811681146118a057600080fd5b9392505050565b634e487b7160e01b600052604160045260246000fd5b601f8201601f1916810167ffffffffffffffff811182821017156118e3576118e36118a7565b6040525050565b6001600160a01b03811681146118ff57600080fd5b50565b600082601f83011261191357600080fd5b8135602067ffffffffffffffff82111561192f5761192f6118a7565b8160051b604051611942838301826118bd565b9283528481018201928281018785111561195b57600080fd5b83870192505b84831015611981578235611974816118ea565b8152918301918301611961565b509695505050505050565b6000806040838503121561199f57600080fd5b823567ffffffffffffffff8111156119b657600080fd5b6119c285828601611902565b95602094909401359450505050565b6000602082840312156119e357600080fd5b81356118a0816118ea565b80151581146118ff57600080fd5b60008060408385031215611a0f57600080fd5b8235611a1a816118ea565b91506020830135611a2a816119ee565b809150509250929050565b600060208284031215611a4757600080fd5b5035919050565b60005b83811015611a69578181015183820152602001611a51565b50506000910152565b60008151808452611a8a816020860160208601611a4e565b601f01601f19169290920160200192915050565b6020815260006118a06020830184611a72565b8215158152604060208201526000611acc6040830184611a72565b949350505050565b600060208284031215611ae657600080fd5b813567ffffffffffffffff811115611afd57600080fd5b611acc84828501611902565b60208082526006908201526510b7bbb732b960d11b604082015260600190565b634e487b7160e01b600052603260045260246000fd5b634e487b7160e01b600052601160045260246000fd5b600060018201611b6757611b67611b3f565b5060010190565b8181038181111561040b5761040b611b3f565b8082018082111561040b5761040b611b3f565b600060208284031215611ba657600080fd5b5051919050565b600060208284031215611bbf57600080fd5b81516118a0816118ea565b6020808252825182820181905260009190848201906040850190845b81811015611c0b5783516001600160a01b031683529284019291840191600101611be6565b50909695505050505050565b600060033d1115611c305760046000803e5060005160e01c5b90565b600060443d1015611c415790565b6040516003193d81016004833e81513d67ffffffffffffffff8160248401118184111715611c7157505050505090565b8285019150815181811115611c895750505050505090565b843d8701016020828501011115611ca35750505050505090565b611cb2602082860101876118bd565b509095945050505050565b710a6e8e4c2e8cacef240cae4e4dee4744060f60731b815260008351611cea816012850160208801611a4e565b600160fd1b6012918401918201528351611d0b816013840160208801611a4e565b01601301949350505050565b7f5374726174656779206c6f772d6c6576656c206572726f723a20307800000000815260008351611d4f81601c850160208801611a4e565b600160fd1b601c918401918201528351611d7081601d840160208801611a4e565b01601d01949350505050565b600060208284031215611d8e57600080fd5b815167ffffffffffffffff80821115611da657600080fd5b818401915084601f830112611dba57600080fd5b815181811115611dcc57611dcc6118a7565b6040519150611de5601f8201601f1916602001836118bd565b808252856020828501011115611dfa57600080fd5b611e0b816020840160208601611a4e565b50949350505050565b600060208284031215611e2657600080fd5b81516118a0816119ee565b808202811582820484141761040b5761040b611b3f565b634e487b7160e01b600052601260045260246000fd5b600082611e6d57611e6d611e48565b500490565b600181815b80851115611ead578160001904821115611e9357611e93611b3f565b80851615611ea057918102915b93841c9390800290611e77565b509250929050565b600082611ec45750600161040b565b81611ed15750600061040b565b8160018114611ee75760028114611ef157611f0d565b600191505061040b565b60ff841115611f0257611f02611b3f565b50506001821b61040b565b5060208310610133831016604e8410600b8410161715611f30575081810a61040b565b611f3a8383611e72565b8060001904821115611f4e57611f4e611b3f565b029392505050565b60006118a08383611eb5565b600060ff831680611f7557611f75611e48565b8060ff84160491505092915050565b60ff818116838216029081169081811461170557611705611b3f565b60ff828116828216039081111561040b5761040b611b3f565b60ff818116838216019081111561040b5761040b611b3f56fea2646970667358221220e5af19a3c715a9b245eeae0cdd8048df3df2e15a8ea00cef598ed56ec1e40ba464736f6c63430008110033",
  "devdoc": {
    "author": "a17",
    "kind": "dev",
    "methods": {
      "created()": {
        "returns": {
          "_0": "Creation timestamp"
        }
      },
      "createdBlock()": {
        "returns": {
          "_0": "Creation block number"
        }
      },
      "increaseRevision(address)": {
        "details": "Revision should be increased on each contract upgrade"
      },
      "isController(address)": {
        "details": "Return true if given address is controller"
      },
      "previousImplementation()": {
        "details": "Previous logic implementation"
      },
      "revision()": {
        "details": "Contract upgrade counter"
      },
      "supportsInterface(bytes4)": {
        "details": "See {IERC165-supportsInterface}."
      }
    },
    "title": "Gelato resolver for rebalancing strategies",
    "version": 1
  },
  "userdoc": {
    "kind": "user",
    "methods": {
      "CONTROLLABLE_VERSION()": {
        "notice": "Version of the contract"
      },
      "controller()": {
        "notice": "Return controller address saved in the contract slot"
      },
      "created()": {
        "notice": "Return creation timestamp"
      },
      "createdBlock()": {
        "notice": "Return creation block number"
      },
      "isGovernance(address)": {
        "notice": "Return true if given address is setup as governance in Controller"
      }
    },
    "version": 1
  },
  "storageLayout": {
    "storage": [
      {
        "astId": 11689,
        "contract": "contracts/tools/RebalanceResolver.sol:RebalanceResolver",
        "label": "_initialized",
        "offset": 0,
        "slot": "0",
        "type": "t_uint8"
      },
      {
        "astId": 11692,
        "contract": "contracts/tools/RebalanceResolver.sol:RebalanceResolver",
        "label": "_initializing",
        "offset": 1,
        "slot": "0",
        "type": "t_bool"
      },
      {
        "astId": 109494,
        "contract": "contracts/tools/RebalanceResolver.sol:RebalanceResolver",
        "label": "owner",
        "offset": 2,
        "slot": "0",
        "type": "t_address"
      },
      {
        "astId": 109496,
        "contract": "contracts/tools/RebalanceResolver.sol:RebalanceResolver",
        "label": "pendingOwner",
        "offset": 0,
        "slot": "1",
        "type": "t_address"
      },
      {
        "astId": 109498,
        "contract": "contracts/tools/RebalanceResolver.sol:RebalanceResolver",
        "label": "delay",
        "offset": 0,
        "slot": "2",
        "type": "t_uint256"
      },
      {
        "astId": 109500,
        "contract": "contracts/tools/RebalanceResolver.sol:RebalanceResolver",
        "label": "maxGas",
        "offset": 0,
        "slot": "3",
        "type": "t_uint256"
      },
      {
        "astId": 109504,
        "contract": "contracts/tools/RebalanceResolver.sol:RebalanceResolver",
        "label": "_lastRebalance",
        "offset": 0,
        "slot": "4",
        "type": "t_mapping(t_address,t_uint256)"
      },
      {
        "astId": 109508,
        "contract": "contracts/tools/RebalanceResolver.sol:RebalanceResolver",
        "label": "delayRate",
        "offset": 0,
        "slot": "5",
        "type": "t_mapping(t_address,t_uint256)"
      },
      {
        "astId": 109512,
        "contract": "contracts/tools/RebalanceResolver.sol:RebalanceResolver",
        "label": "operators",
        "offset": 0,
        "slot": "6",
        "type": "t_mapping(t_address,t_bool)"
      },
      {
        "astId": 109515,
        "contract": "contracts/tools/RebalanceResolver.sol:RebalanceResolver",
        "label": "deprecated",
        "offset": 0,
        "slot": "7",
        "type": "t_struct(AddressSet)11395_storage"
      }
    ],
    "types": {
      "t_address": {
        "encoding": "inplace",
        "label": "address",
        "numberOfBytes": "20"
      },
      "t_array(t_bytes32)dyn_storage": {
        "base": "t_bytes32",
        "encoding": "dynamic_array",
        "label": "bytes32[]",
        "numberOfBytes": "32"
      },
      "t_bool": {
        "encoding": "inplace",
        "label": "bool",
        "numberOfBytes": "1"
      },
      "t_bytes32": {
        "encoding": "inplace",
        "label": "bytes32",
        "numberOfBytes": "32"
      },
      "t_mapping(t_address,t_bool)": {
        "encoding": "mapping",
        "key": "t_address",
        "label": "mapping(address => bool)",
        "numberOfBytes": "32",
        "value": "t_bool"
      },
      "t_mapping(t_address,t_uint256)": {
        "encoding": "mapping",
        "key": "t_address",
        "label": "mapping(address => uint256)",
        "numberOfBytes": "32",
        "value": "t_uint256"
      },
      "t_mapping(t_bytes32,t_uint256)": {
        "encoding": "mapping",
        "key": "t_bytes32",
        "label": "mapping(bytes32 => uint256)",
        "numberOfBytes": "32",
        "value": "t_uint256"
      },
      "t_struct(AddressSet)11395_storage": {
        "encoding": "inplace",
        "label": "struct EnumerableSet.AddressSet",
        "members": [
          {
            "astId": 11394,
            "contract": "contracts/tools/RebalanceResolver.sol:RebalanceResolver",
            "label": "_inner",
            "offset": 0,
            "slot": "0",
            "type": "t_struct(Set)11080_storage"
          }
        ],
        "numberOfBytes": "64"
      },
      "t_struct(Set)11080_storage": {
        "encoding": "inplace",
        "label": "struct EnumerableSet.Set",
        "members": [
          {
            "astId": 11075,
            "contract": "contracts/tools/RebalanceResolver.sol:RebalanceResolver",
            "label": "_values",
            "offset": 0,
            "slot": "0",
            "type": "t_array(t_bytes32)dyn_storage"
          },
          {
            "astId": 11079,
            "contract": "contracts/tools/RebalanceResolver.sol:RebalanceResolver",
            "label": "_indexes",
            "offset": 0,
            "slot": "1",
            "type": "t_mapping(t_bytes32,t_uint256)"
          }
        ],
        "numberOfBytes": "64"
      },
      "t_uint256": {
        "encoding": "inplace",
        "label": "uint256",
        "numberOfBytes": "32"
      },
      "t_uint8": {
        "encoding": "inplace",
        "label": "uint8",
        "numberOfBytes": "1"
      }
    }
  }
}