{
  "address": "0x3781D8595924F38E1Bc6F117B6b492D78b98dB47",
  "abi": [
    {
      "inputs": [
        {
          "internalType": "address",
          "name": "_asset",
          "type": "address"
        },
        {
          "internalType": "address",
          "name": "_vault",
          "type": "address"
        },
        {
          "internalType": "address",
          "name": "_externalRateProvider",
          "type": "address"
        }
      ],
      "stateMutability": "nonpayable",
      "type": "constructor"
    },
    {
      "inputs": [],
      "name": "asset",
      "outputs": [
        {
          "internalType": "address",
          "name": "",
          "type": "address"
        }
      ],
      "stateMutability": "view",
      "type": "function"
    },
    {
      "inputs": [],
      "name": "externalRateProvider",
      "outputs": [
        {
          "internalType": "address",
          "name": "",
          "type": "address"
        }
      ],
      "stateMutability": "view",
      "type": "function"
    },
    {
      "inputs": [],
      "name": "getRate",
      "outputs": [
        {
          "internalType": "uint256",
          "name": "",
          "type": "uint256"
        }
      ],
      "stateMutability": "view",
      "type": "function"
    },
    {
      "inputs": [],
      "name": "vault",
      "outputs": [
        {
          "internalType": "address",
          "name": "",
          "type": "address"
        }
      ],
      "stateMutability": "view",
      "type": "function"
    }
  ],
  "transactionHash": "0xb90673c66829acd806922ac60e4dbd482e3c1af70c27facec832132ddf2c0121",
  "args": [
    "0x3A58a54C066FdC0f2D55FC9C89F0415C92eBf3C4",
    "0xF813a454C975ad418e8dB18764a2191D182478F4",
    "0xdEd6C522d803E35f65318a9a4d7333a22d582199"
  ],
  "numDeployments": 1,
  "solcInputHash": "05c047e6f092e3676405eaec2ac75492",
  "bytecode": "0x60e060405234801561001057600080fd5b506040516105d03803806105d083398101604081905261002f916100df565b6001600160a01b0383161580159061004f57506001600160a01b03821615155b801561006357506001600160a01b03811615155b6100a65760405162461bcd60e51b815260206004820152601060248201526f6d616e6461746f727920706172616d7360801b604482015260640160405180910390fd5b6001600160a01b0392831660805290821660a0521660c052610122565b80516001600160a01b03811681146100da57600080fd5b919050565b6000806000606084860312156100f457600080fd5b6100fd846100c3565b925061010b602085016100c3565b9150610119604085016100c3565b90509250925092565b60805160a05160c05161046e61016260003960008181609a015261018e01526000818160d701526102240152600081816056015260fe015261046e6000f3fe608060405234801561001057600080fd5b506004361061004c5760003560e01c806338d52e0f146100515780634a3722ac14610095578063679aefce146100bc578063fbfa77cf146100d2575b600080fd5b6100787f000000000000000000000000000000000000000000000000000000000000000081565b6040516001600160a01b0390911681526020015b60405180910390f35b6100787f000000000000000000000000000000000000000000000000000000000000000081565b6100c46100f9565b60405190815260200161008c565b6100787f000000000000000000000000000000000000000000000000000000000000000081565b6000807f00000000000000000000000000000000000000000000000000000000000000006001600160a01b031663313ce5676040518163ffffffff1660e01b8152600401602060405180830381865afa15801561015a573d6000803e3d6000fd5b505050506040513d601f19601f8201168201806040525081019061017e91906102b1565b61018990600a6103d7565b9050807f00000000000000000000000000000000000000000000000000000000000000006001600160a01b031663679aefce6040518163ffffffff1660e01b8152600401602060405180830381865afa1580156101ea573d6000803e3d6000fd5b505050506040513d601f19601f8201168201806040525081019061020e91906103e6565b6040516303d1689d60e11b8152600481018490527f00000000000000000000000000000000000000000000000000000000000000006001600160a01b0316906307a2d13a90602401602060405180830381865afa158015610273573d6000803e3d6000fd5b505050506040513d601f19601f8201168201806040525081019061029791906103e6565b6102a191906103ff565b6102ab9190610416565b91505090565b6000602082840312156102c357600080fd5b815160ff811681146102d457600080fd5b9392505050565b634e487b7160e01b600052601160045260246000fd5b600181815b8085111561032c578160001904821115610312576103126102db565b8085161561031f57918102915b93841c93908002906102f6565b509250929050565b600082610343575060016103d1565b81610350575060006103d1565b816001811461036657600281146103705761038c565b60019150506103d1565b60ff841115610381576103816102db565b50506001821b6103d1565b5060208310610133831016604e8410600b84101617156103af575081810a6103d1565b6103b983836102f1565b80600019048211156103cd576103cd6102db565b0290505b92915050565b60006102d460ff841683610334565b6000602082840312156103f857600080fd5b5051919050565b80820281158282048414176103d1576103d16102db565b60008261043357634e487b7160e01b600052601260045260246000fd5b50049056fea2646970667358221220d7114fee576edb21293a922ee43539673ca83442ad7638222a7a82b771985d0864736f6c63430008110033",
  "devdoc": {
    "author": "AlehNat",
    "details": "Rete provider which uses external rate provider to calculate rate.      It is used to calculate rate for tokens like stMatic. We have external rate for MATIC/stMatic.",
    "kind": "dev",
    "methods": {
      "getRate()": {
        "details": "Returns an 18 decimal fixed point number that is the exchange rate of the token to some other underlying token. The meaning of this rate depends on the context."
      }
    },
    "version": 1
  },
  "userdoc": {
    "kind": "user",
    "methods": {},
    "version": 1
  },
  "storageLayout": {
    "storage": [],
    "types": null
  }
}