{
  "address": "0x3BEB969c0cd273eA1d7a39137a757Cf1c474510a",
  "abi": [
    {
      "anonymous": false,
      "inputs": [
        {
          "indexed": false,
          "internalType": "uint256",
          "name": "oldValue",
          "type": "uint256"
        },
        {
          "indexed": false,
          "internalType": "uint256",
          "name": "newValue",
          "type": "uint256"
        }
      ],
      "name": "CompoundRatioChanged",
      "type": "event"
    },
    {
      "anonymous": false,
      "inputs": [
        {
          "indexed": false,
          "internalType": "address",
          "name": "sender",
          "type": "address"
        },
        {
          "indexed": false,
          "internalType": "uint256",
          "name": "amount",
          "type": "uint256"
        }
      ],
      "name": "EmergencyExit",
      "type": "event"
    },
    {
      "anonymous": false,
      "inputs": [
        {
          "indexed": false,
          "internalType": "uint256",
          "name": "balance",
          "type": "uint256"
        }
      ],
      "name": "InvestAll",
      "type": "event"
    },
    {
      "anonymous": false,
      "inputs": [
        {
          "indexed": false,
          "internalType": "address",
          "name": "sender",
          "type": "address"
        }
      ],
      "name": "ManualClaim",
      "type": "event"
    },
    {
      "anonymous": false,
      "inputs": [
        {
          "indexed": false,
          "internalType": "string",
          "name": "name",
          "type": "string"
        }
      ],
      "name": "StrategySpecificNameChanged",
      "type": "event"
    },
    {
      "anonymous": false,
      "inputs": [
        {
          "indexed": false,
          "internalType": "uint256",
          "name": "amount",
          "type": "uint256"
        }
      ],
      "name": "WithdrawAllToSplitter",
      "type": "event"
    },
    {
      "anonymous": false,
      "inputs": [
        {
          "indexed": false,
          "internalType": "uint256",
          "name": "amount",
          "type": "uint256"
        },
        {
          "indexed": false,
          "internalType": "uint256",
          "name": "sent",
          "type": "uint256"
        },
        {
          "indexed": false,
          "internalType": "uint256",
          "name": "balance",
          "type": "uint256"
        }
      ],
      "name": "WithdrawToSplitter",
      "type": "event"
    },
    {
      "inputs": [
        {
          "internalType": "address",
          "name": "controller",
          "type": "address"
        },
        {
          "internalType": "uint256",
          "name": "fee_",
          "type": "uint256"
        },
        {
          "internalType": "address",
          "name": "receiver_",
          "type": "address"
        }
      ],
      "name": "_checkSetupPerformanceFee",
      "outputs": [],
      "stateMutability": "view",
      "type": "function"
    },
    {
      "inputs": [
        {
          "internalType": "address",
          "name": "splitter",
          "type": "address"
        },
        {
          "internalType": "address",
          "name": "asset",
          "type": "address"
        }
      ],
      "name": "_checkSplitterSenderAndGetBalance",
      "outputs": [
        {
          "internalType": "uint256",
          "name": "balance",
          "type": "uint256"
        }
      ],
      "stateMutability": "view",
      "type": "function"
    },
    {
      "inputs": [
        {
          "internalType": "address",
          "name": "_asset",
          "type": "address"
        },
        {
          "internalType": "uint256",
          "name": "balanceBefore",
          "type": "uint256"
        },
        {
          "internalType": "uint256",
          "name": "expectedWithdrewUSD",
          "type": "uint256"
        },
        {
          "internalType": "uint256",
          "name": "assetPrice",
          "type": "uint256"
        },
        {
          "internalType": "address",
          "name": "_splitter",
          "type": "address"
        }
      ],
      "name": "checkWithdrawImpact",
      "outputs": [
        {
          "internalType": "uint256",
          "name": "balance",
          "type": "uint256"
        }
      ],
      "stateMutability": "view",
      "type": "function"
    },
    {
      "inputs": [
        {
          "internalType": "address",
          "name": "controller",
          "type": "address"
        }
      ],
      "name": "onlyGovernance",
      "outputs": [],
      "stateMutability": "view",
      "type": "function"
    },
    {
      "inputs": [
        {
          "internalType": "address",
          "name": "controller",
          "type": "address"
        }
      ],
      "name": "onlyOperators",
      "outputs": [],
      "stateMutability": "view",
      "type": "function"
    },
    {
      "inputs": [
        {
          "internalType": "address",
          "name": "controller",
          "type": "address"
        }
      ],
      "name": "onlyPlatformVoter",
      "outputs": [],
      "stateMutability": "view",
      "type": "function"
    },
    {
      "inputs": [
        {
          "internalType": "address",
          "name": "splitter",
          "type": "address"
        }
      ],
      "name": "onlySplitter",
      "outputs": [],
      "stateMutability": "view",
      "type": "function"
    }
  ],
  "transactionHash": "0x2b084ebe8de267b6fdff536a49e2e2bebfeb3e7fc4fac52c78e5c52b40a61a1e",
  "args": [],
  "numDeployments": 4,
  "solcInputHash": "d2e3098aa88da593efafca5c7f907838",
  "bytecode": "0x61118c61003a600b82828239805160001a60731461002d57634e487b7160e01b600052600060045260246000fd5b30600052607381538281f3fe73000000000000000000000000000000000000000030146080604052600436106100d45760003560e01c80639ad00ec2116100865780639ad00ec21461018c578063ac1d8b35146101ac578063b4339948146101bf578063bd020682146101d2578063d19cc38a146101f2578063eae13e7614610212578063ffa533cf1461023257600080fd5b80630568a9d5146100d95780631594b05b146100fb578063201de59f14610120578063493f6edc146101335780634bead6691461014657806367776406146101595780637ca7026614610179575b600080fd5b8180156100e557600080fd5b506100f96100f4366004610dc1565b610252565b005b61010e610109366004610df6565b6102eb565b60405190815260200160405180910390f35b6100f961012e366004610e4c565b6104f8565b6100f9610141366004610e4c565b610546565b6100f9610154366004610e4c565b6105ef565b81801561016557600080fd5b506100f9610174366004610e70565b6106a6565b61010e610187366004610eba565b610716565b81801561019857600080fd5b506100f96101a7366004610df6565b610792565b6100f96101ba366004610e4c565b6107f8565b6100f96101cd366004610ef3565b610840565b8180156101de57600080fd5b506100f96101ed366004610f35565b6108e4565b8180156101fe57600080fd5b506100f961020d366004610e4c565b6109ad565b81801561021e57600080fd5b506100f961022d366004610f75565b6109ec565b81801561023e57600080fd5b5061010e61024d366004610eba565b610a26565b61025b836107f8565b60408051808201909152600c81526b0a6847440a8dede40d0d2ced60a31b6020820152620186a08211156102ab5760405162461bcd60e51b81526004016102a2919061101e565b60405180910390fd5b5060408051838152602081018390527f89979f75740477f1609671a960c1f57e40a47e58bdf1623bc683d806fb6407e591015b60405180910390a1505050565b6040516370a0823160e01b81523060048201526000906001600160a01b038716906370a0823190602401602060405180830381865afa158015610332573d6000803e3d6000fd5b505050506040513d601f19601f820116820180604052508101906103569190611051565b9050821580159061036657508315155b156104ef57600085821161037b576000610385565b6103858683611080565b90506000670de0b6b3a764000061039c8684611093565b6103a691906110aa565b90506000846001600160a01b031663fbfa77cf6040518163ffffffff1660e01b8152600401602060405180830381865afa1580156103e8573d6000803e3d6000fd5b505050506040513d601f19601f8201168201806040525081019061040c91906110cc565b6001600160a01b031663e941fa786040518163ffffffff1660e01b8152600401602060405180830381865afa158015610449573d6000803e3d6000fd5b505050506040513d601f19601f8201168201806040525081019061046d9190611051565b9050600082881161047f576000610489565b6104898389611080565b9050818861049a620186a084611093565b6104a491906110aa565b11156040518060400160405280600c81526020016b0a6847440a8dede40d0d2ced60a31b815250906104e95760405162461bcd60e51b81526004016102a2919061101e565b50505050505b95945050505050565b60408051808201909152600a81526914d08e8811195b9a595960b21b60208201526001600160a01b03821633146105425760405162461bcd60e51b81526004016102a2919061101e565b5050565b6040516336b87bd760e11b81523360048201526001600160a01b03821690636d70f7ae90602401602060405180830381865afa15801561058a573d6000803e3d6000fd5b505050506040513d601f19601f820116820180604052508101906105ae91906110e9565b6040518060400160405280600a81526020016914d08e8811195b9a595960b21b815250906105425760405162461bcd60e51b81526004016102a2919061101e565b336001600160a01b0316816001600160a01b0316635aa6e6756040518163ffffffff1660e01b8152600401602060405180830381865afa158015610637573d6000803e3d6000fd5b505050506040513d601f19601f8201168201806040525081019061065b91906110cc565b6001600160a01b0316146040518060400160405280600a81526020016914d08e8811195b9a595960b21b815250906105425760405162461bcd60e51b81526004016102a2919061101e565b60006106b28585610ada565b905080156106ce576106ce6001600160a01b0384168383610af0565b60408051868152602081018390529081018590527f21b38dd19808c509ae6afc969adfaf7d35fe949c37abd493b963cf9b68cc1acb9060600160405180910390a15050505050565b6000610721836104f8565b6040516370a0823160e01b81523060048201526001600160a01b038316906370a0823190602401602060405180830381865afa158015610765573d6000803e3d6000fd5b505050506040513d601f19601f820116820180604052508101906107899190611051565b90505b92915050565b60006107a186868686866102eb565b905080156107bd576107bd6001600160a01b0387168383610af0565b6040518181527f97f6cbf669d73908a8de3b762891f88fcc476520fd70cb3d414dc9ac86e0a2e59060200160405180910390a1505050505050565b336001600160a01b0316816001600160a01b0316634d8b16556040518163ffffffff1660e01b8152600401602060405180830381865afa158015610637573d6000803e3d6000fd5b610849836105ef565b60408051808201909152600c81526b0a6847440a8dede40d0d2ced60a31b6020820152620186a08311156108905760405162461bcd60e51b81526004016102a2919061101e565b5060408051808201909152600f81526e53423a2057726f6e672076616c756560881b60208201526001600160a01b0382166108de5760405162461bcd60e51b81526004016102a2919061101e565b50505050565b6108ed83610546565b6040516370a0823160e01b81523060048201526000906001600160a01b038416906370a0823190602401602060405180830381865afa158015610934573d6000803e3d6000fd5b505050506040513d601f19601f820116820180604052508101906109589190611051565b905061096e6001600160a01b0384168383610af0565b60408051338152602081018390527ff779df072f94d207563b1ba8c286814086f1e6bb436a2652e307dccc56ed79e8910160405180910390a150505050565b6109b681610546565b6040513381527fed7f50f936a5ed7428d20f18e78d6dfe8bc37fd2f4e3cdb348327c76972449289060200160405180910390a150565b6109f583610546565b7f13bdeb5b5bb760c04b92d93e56c576c6805359d41a13d3cca178aa7c8526b98482826040516102de92919061110b565b6000610a31836104f8565b6040516370a0823160e01b81523060048201526001600160a01b038316906370a0823190602401602060405180830381865afa158015610a75573d6000803e3d6000fd5b505050506040513d601f19601f82011682018060405250810190610a999190611051565b90507f94bcfc9a8eba5229c2956ccb1858733fce588bc02145ac053c40b9827a33837f81604051610acc91815260200190565b60405180910390a192915050565b6000818310610ae95781610789565b5090919050565b604080516001600160a01b038416602482015260448082018490528251808303909101815260649091019091526020810180516001600160e01b031663a9059cbb60e01b179052610b42908490610b47565b505050565b6000610b9c826040518060400160405280602081526020017f5361666545524332303a206c6f772d6c6576656c2063616c6c206661696c6564815250856001600160a01b0316610c199092919063ffffffff16565b805190915015610b425780806020019051810190610bba91906110e9565b610b425760405162461bcd60e51b815260206004820152602a60248201527f5361666545524332303a204552433230206f7065726174696f6e20646964206e6044820152691bdd081cdd58d8d9595960b21b60648201526084016102a2565b6060610c288484600085610c30565b949350505050565b606082471015610c915760405162461bcd60e51b815260206004820152602660248201527f416464726573733a20696e73756666696369656e742062616c616e636520666f6044820152651c8818d85b1b60d21b60648201526084016102a2565b600080866001600160a01b03168587604051610cad919061113a565b60006040518083038185875af1925050503d8060008114610cea576040519150601f19603f3d011682016040523d82523d6000602084013e610cef565b606091505b5091509150610d0087838387610d0b565b979650505050505050565b60608315610d7a578251600003610d73576001600160a01b0385163b610d735760405162461bcd60e51b815260206004820152601d60248201527f416464726573733a2063616c6c20746f206e6f6e2d636f6e747261637400000060448201526064016102a2565b5081610c28565b610c288383815115610d8f5781518083602001fd5b8060405162461bcd60e51b81526004016102a2919061101e565b6001600160a01b0381168114610dbe57600080fd5b50565b600080600060608486031215610dd657600080fd5b8335610de181610da9565b95602085013595506040909401359392505050565b600080600080600060a08688031215610e0e57600080fd5b8535610e1981610da9565b94506020860135935060408601359250606086013591506080860135610e3e81610da9565b809150509295509295909350565b600060208284031215610e5e57600080fd5b8135610e6981610da9565b9392505050565b60008060008060808587031215610e8657600080fd5b84359350602085013592506040850135610e9f81610da9565b91506060850135610eaf81610da9565b939692955090935050565b60008060408385031215610ecd57600080fd5b8235610ed881610da9565b91506020830135610ee881610da9565b809150509250929050565b600080600060608486031215610f0857600080fd5b8335610f1381610da9565b9250602084013591506040840135610f2a81610da9565b809150509250925092565b600080600060608486031215610f4a57600080fd5b8335610f5581610da9565b92506020840135610f6581610da9565b91506040840135610f2a81610da9565b600080600060408486031215610f8a57600080fd5b8335610f9581610da9565b9250602084013567ffffffffffffffff80821115610fb257600080fd5b818601915086601f830112610fc657600080fd5b813581811115610fd557600080fd5b876020828501011115610fe757600080fd5b6020830194508093505050509250925092565b60005b83811015611015578181015183820152602001610ffd565b50506000910152565b602081526000825180602084015261103d816040850160208701610ffa565b601f01601f19169190910160400192915050565b60006020828403121561106357600080fd5b5051919050565b634e487b7160e01b600052601160045260246000fd5b8181038181111561078c5761078c61106a565b808202811582820484141761078c5761078c61106a565b6000826110c757634e487b7160e01b600052601260045260246000fd5b500490565b6000602082840312156110de57600080fd5b8151610e6981610da9565b6000602082840312156110fb57600080fd5b81518015158114610e6957600080fd5b60208152816020820152818360408301376000818301604090810191909152601f909201601f19160101919050565b6000825161114c818460208701610ffa565b919091019291505056fea26469706673582212202fa102ec8a979ea73f997f311cd89c7de15725fef7c93395931efad1da474eda64736f6c63430008110033",
  "devdoc": {
    "kind": "dev",
    "methods": {
      "checkWithdrawImpact(address,uint256,uint256,uint256,address)": {
        "params": {
          "assetPrice": "Price of the asset, decimals 18",
          "balanceBefore": "Asset balance of the strategy before withdrawing",
          "expectedWithdrewUSD": "Expected amount in USD, decimals are same to {_asset}"
        },
        "returns": {
          "balance": "Current asset balance of the strategy"
        }
      },
      "onlyGovernance(address)": {
        "details": "Restrict access only for governance"
      },
      "onlyOperators(address)": {
        "details": "Restrict access only for operators"
      },
      "onlyPlatformVoter(address)": {
        "details": "Restrict access only for platform voter"
      },
      "onlySplitter(address)": {
        "details": "Restrict access only for splitter"
      }
    },
    "stateVariables": {
      "COMPOUND_DENOMINATOR": {
        "details": "Denominator for compound ratio"
      },
      "FEE_DENOMINATOR": {
        "details": "Denominator for fee calculation."
      }
    },
    "version": 1
  },
  "userdoc": {
    "kind": "user",
    "methods": {
      "checkWithdrawImpact(address,uint256,uint256,uint256,address)": {
        "notice": "Calculate withdrawn amount in USD using the {assetPrice}.         Revert if the amount is different from expected too much (high price impact)"
      }
    },
    "version": 1
  },
  "storageLayout": {
    "storage": [],
    "types": null
  }
}