{
  "address": "0x385A7C981fBaaA8d09252176ff5f4fc3fe22d976",
  "abi": [
    {
      "inputs": [
        {
          "internalType": "address",
          "name": "strategy_",
          "type": "address"
        },
        {
          "internalType": "address[]",
          "name": "tokens_",
          "type": "address[]"
        }
      ],
      "stateMutability": "nonpayable",
      "type": "constructor"
    },
    {
      "inputs": [
        {
          "internalType": "address",
          "name": "token",
          "type": "address"
        }
      ],
      "name": "addToken",
      "outputs": [],
      "stateMutability": "nonpayable",
      "type": "function"
    },
    {
      "inputs": [],
      "name": "strategy",
      "outputs": [
        {
          "internalType": "address",
          "name": "",
          "type": "address"
        }
      ],
      "stateMutability": "view",
      "type": "function"
    },
    {
      "inputs": [
        {
          "internalType": "uint256",
          "name": "",
          "type": "uint256"
        }
      ],
      "name": "tokens",
      "outputs": [
        {
          "internalType": "address",
          "name": "",
          "type": "address"
        }
      ],
      "stateMutability": "view",
      "type": "function"
    },
    {
      "inputs": [],
      "name": "tokensLength",
      "outputs": [
        {
          "internalType": "uint256",
          "name": "",
          "type": "uint256"
        }
      ],
      "stateMutability": "view",
      "type": "function"
    }
  ],
  "transactionHash": "0x213fde732b3b235b82cdc5e38000dbc3475a8b78e542ea1fbaa25e434e74887c",
  "args": [
    "0x792Bcc2f14FdCB9FAf7E12223a564e7459eA4201",
    [
      "0x2791Bca1f2de4661ED88A30C99A7a9449Aa84174",
      "0xc2132D05D31c914a87C6611C10748AEb04B58e8F",
      "0x1C954E8fe737F99f68Fa1CCda3e51ebDB291948C"
    ]
  ],
  "numDeployments": 1,
  "solcInputHash": "b61f6c8d2f8976a66eab3172665489c0",
  "bytecode": "0x60a06040523480156200001157600080fd5b5060405162000eae38038062000eae833981016040819052620000349162000550565b6001600160a01b0382166080528051620000569060009060208401906200049c565b50805160005b81811015620000bd57620000aa84600160ff1b85848151811062000084576200008462000639565b60200260200101516001600160a01b0316620000c760201b62000255179092919060201c565b620000b5816200064f565b90506200005c565b5050505062000735565b801580620001455750604051636eb1769f60e11b81523060048201526001600160a01b03838116602483015284169063dd62ed3e90604401602060405180830381865afa1580156200011d573d6000803e3d6000fd5b505050506040513d601f19601f8201168201806040525081019062000143919062000677565b155b620001bd5760405162461bcd60e51b815260206004820152603660248201527f5361666545524332303a20617070726f76652066726f6d206e6f6e2d7a65726f60448201527f20746f206e6f6e2d7a65726f20616c6c6f77616e63650000000000000000000060648201526084015b60405180910390fd5b604080516001600160a01b038416602482015260448082018490528251808303909101815260649091019091526020810180516001600160e01b0390811663095ea7b360e01b17909152620002159185916200021a16565b505050565b600062000276826040518060400160405280602081526020017f5361666545524332303a206c6f772d6c6576656c2063616c6c206661696c6564815250856001600160a01b0316620002f860201b6200038c179092919060201c565b80519091501562000215578080602001905181019062000297919062000691565b620002155760405162461bcd60e51b815260206004820152602a60248201527f5361666545524332303a204552433230206f7065726174696f6e20646964206e6044820152691bdd081cdd58d8d9595960b21b6064820152608401620001b4565b606062000309848460008562000311565b949350505050565b606082471015620003745760405162461bcd60e51b815260206004820152602660248201527f416464726573733a20696e73756666696369656e742062616c616e636520666f6044820152651c8818d85b1b60d21b6064820152608401620001b4565b600080866001600160a01b03168587604051620003929190620006e2565b60006040518083038185875af1925050503d8060008114620003d1576040519150601f19603f3d011682016040523d82523d6000602084013e620003d6565b606091505b509092509050620003ea87838387620003f5565b979650505050505050565b606083156200046957825160000362000461576001600160a01b0385163b620004615760405162461bcd60e51b815260206004820152601d60248201527f416464726573733a2063616c6c20746f206e6f6e2d636f6e74726163740000006044820152606401620001b4565b508162000309565b620003098383815115620004805781518083602001fd5b8060405162461bcd60e51b8152600401620001b4919062000700565b828054828255906000526020600020908101928215620004f4579160200282015b82811115620004f457825182546001600160a01b0319166001600160a01b03909116178255602090920191600190910190620004bd565b506200050292915062000506565b5090565b5b8082111562000502576000815560010162000507565b80516001600160a01b03811681146200053557600080fd5b919050565b634e487b7160e01b600052604160045260246000fd5b600080604083850312156200056457600080fd5b6200056f836200051d565b602084810151919350906001600160401b03808211156200058f57600080fd5b818601915086601f830112620005a457600080fd5b815181811115620005b957620005b96200053a565b8060051b604051601f19603f83011681018181108582111715620005e157620005e16200053a565b6040529182528482019250838101850191898311156200060057600080fd5b938501935b82851015620006295762000619856200051d565b8452938501939285019262000605565b8096505050505050509250929050565b634e487b7160e01b600052603260045260246000fd5b6000600182016200067057634e487b7160e01b600052601160045260246000fd5b5060010190565b6000602082840312156200068a57600080fd5b5051919050565b600060208284031215620006a457600080fd5b81518015158114620006b557600080fd5b9392505050565b60005b83811015620006d9578181015183820152602001620006bf565b50506000910152565b60008251620006f6818460208701620006bc565b9190910192915050565b602081526000825180602084015262000721816040850160208701620006bc565b601f01601f19169190910160400192915050565b60805161075862000756600039600081816086015260fa01526107586000f3fe608060405234801561001057600080fd5b506004361061004c5760003560e01c80634f64b2be14610051578063a8c62e7614610081578063d48bfca7146100a8578063d92fc67b146100bd575b600080fd5b61006461005f3660046105ee565b6100ce565b6040516001600160a01b0390911681526020015b60405180910390f35b6100647f000000000000000000000000000000000000000000000000000000000000000081565b6100bb6100b6366004610607565b6100f8565b005b600054604051908152602001610078565b600081815481106100de57600080fd5b6000918252602090912001546001600160a01b0316905081565b7f0000000000000000000000000000000000000000000000000000000000000000336001600160a01b038216146101645760405162461bcd60e51b815260206004820152600b60248201526a14d4120e8819195b9a595960aa1b60448201526064015b60405180910390fd5b60008054905b818110156101f557836001600160a01b03166000828154811061018f5761018f610637565b6000918252602090912001546001600160a01b0316036101e55760405162461bcd60e51b81526020600482015260116024820152705350483a20746f6b656e2065786973747360781b604482015260640161015b565b6101ee8161064d565b905061016a565b50600080546001810182559080527f290decd9548b62a8d60345a988386fc84ba6bc95484008f6362f93160ef3e5630180546001600160a01b0319166001600160a01b0385169081179091556102509083600160ff1b610255565b505050565b8015806102cf5750604051636eb1769f60e11b81523060048201526001600160a01b03838116602483015284169063dd62ed3e90604401602060405180830381865afa1580156102a9573d6000803e3d6000fd5b505050506040513d601f19601f820116820180604052508101906102cd9190610674565b155b61033a5760405162461bcd60e51b815260206004820152603660248201527f5361666545524332303a20617070726f76652066726f6d206e6f6e2d7a65726f60448201527520746f206e6f6e2d7a65726f20616c6c6f77616e636560501b606482015260840161015b565b604080516001600160a01b038416602482015260448082018490528251808303909101815260649091019091526020810180516001600160e01b031663095ea7b360e01b1790526102509084906103a3565b606061039b8484600085610475565b949350505050565b60006103f8826040518060400160405280602081526020017f5361666545524332303a206c6f772d6c6576656c2063616c6c206661696c6564815250856001600160a01b031661038c9092919063ffffffff16565b8051909150156102505780806020019051810190610416919061068d565b6102505760405162461bcd60e51b815260206004820152602a60248201527f5361666545524332303a204552433230206f7065726174696f6e20646964206e6044820152691bdd081cdd58d8d9595960b21b606482015260840161015b565b6060824710156104d65760405162461bcd60e51b815260206004820152602660248201527f416464726573733a20696e73756666696369656e742062616c616e636520666f6044820152651c8818d85b1b60d21b606482015260840161015b565b600080866001600160a01b031685876040516104f291906106d3565b60006040518083038185875af1925050503d806000811461052f576040519150601f19603f3d011682016040523d82523d6000602084013e610534565b606091505b509150915061054587838387610550565b979650505050505050565b606083156105bf5782516000036105b8576001600160a01b0385163b6105b85760405162461bcd60e51b815260206004820152601d60248201527f416464726573733a2063616c6c20746f206e6f6e2d636f6e7472616374000000604482015260640161015b565b508161039b565b61039b83838151156105d45781518083602001fd5b8060405162461bcd60e51b815260040161015b91906106ef565b60006020828403121561060057600080fd5b5035919050565b60006020828403121561061957600080fd5b81356001600160a01b038116811461063057600080fd5b9392505050565b634e487b7160e01b600052603260045260246000fd5b60006001820161066d57634e487b7160e01b600052601160045260246000fd5b5060010190565b60006020828403121561068657600080fd5b5051919050565b60006020828403121561069f57600080fd5b8151801515811461063057600080fd5b60005b838110156106ca5781810151838201526020016106b2565b50506000910152565b600082516106e58184602087016106af565b9190910192915050565b602081526000825180602084015261070e8160408501602087016106af565b601f01601f1916919091016040019291505056fea26469706673582212209b56675fa7c7ac7e4c00439fd6a01ce44c4cfa33161f2c45224a536d3def176364736f6c63430008110033",
  "devdoc": {
    "kind": "dev",
    "methods": {},
    "version": 1
  },
  "userdoc": {
    "kind": "user",
    "methods": {},
    "version": 1
  },
  "storageLayout": {
    "storage": [
      {
        "astId": 89118,
        "contract": "contracts/strategies/StrategyProfitHolder.sol:StrategyProfitHolder",
        "label": "tokens",
        "offset": 0,
        "slot": "0",
        "type": "t_array(t_address)dyn_storage"
      }
    ],
    "types": {
      "t_address": {
        "encoding": "inplace",
        "label": "address",
        "numberOfBytes": "20"
      },
      "t_array(t_address)dyn_storage": {
        "base": "t_address",
        "encoding": "dynamic_array",
        "label": "address[]",
        "numberOfBytes": "32"
      }
    }
  }
}