{
  "address": "0x5B743D8D9B01Fd0cE5A60D740ED14137bf2159fE",
  "abi": [
    {
      "anonymous": false,
      "inputs": [
        {
          "indexed": false,
          "internalType": "uint256",
          "name": "oldValue",
          "type": "uint256"
        },
        {
          "indexed": false,
          "internalType": "uint256",
          "name": "newValue",
          "type": "uint256"
        }
      ],
      "name": "CompoundRatioChanged",
      "type": "event"
    },
    {
      "anonymous": false,
      "inputs": [
        {
          "indexed": false,
          "internalType": "address",
          "name": "sender",
          "type": "address"
        },
        {
          "indexed": false,
          "internalType": "uint256",
          "name": "amount",
          "type": "uint256"
        }
      ],
      "name": "EmergencyExit",
      "type": "event"
    },
    {
      "anonymous": false,
      "inputs": [
        {
          "indexed": false,
          "internalType": "uint256",
          "name": "balance",
          "type": "uint256"
        }
      ],
      "name": "InvestAll",
      "type": "event"
    },
    {
      "anonymous": false,
      "inputs": [
        {
          "indexed": false,
          "internalType": "address",
          "name": "sender",
          "type": "address"
        }
      ],
      "name": "ManualClaim",
      "type": "event"
    },
    {
      "anonymous": false,
      "inputs": [
        {
          "indexed": false,
          "internalType": "uint256",
          "name": "fee",
          "type": "uint256"
        },
        {
          "indexed": false,
          "internalType": "address",
          "name": "receiver",
          "type": "address"
        },
        {
          "indexed": false,
          "internalType": "uint256",
          "name": "ratio",
          "type": "uint256"
        }
      ],
      "name": "PerformanceFeeChanged",
      "type": "event"
    },
    {
      "anonymous": false,
      "inputs": [
        {
          "indexed": false,
          "internalType": "string",
          "name": "name",
          "type": "string"
        }
      ],
      "name": "StrategySpecificNameChanged",
      "type": "event"
    },
    {
      "anonymous": false,
      "inputs": [
        {
          "indexed": false,
          "internalType": "uint256",
          "name": "amount",
          "type": "uint256"
        }
      ],
      "name": "WithdrawAllToSplitter",
      "type": "event"
    },
    {
      "anonymous": false,
      "inputs": [
        {
          "indexed": false,
          "internalType": "uint256",
          "name": "amount",
          "type": "uint256"
        },
        {
          "indexed": false,
          "internalType": "uint256",
          "name": "sent",
          "type": "uint256"
        },
        {
          "indexed": false,
          "internalType": "uint256",
          "name": "balance",
          "type": "uint256"
        }
      ],
      "name": "WithdrawToSplitter",
      "type": "event"
    },
    {
      "inputs": [
        {
          "internalType": "address",
          "name": "splitter",
          "type": "address"
        },
        {
          "internalType": "address",
          "name": "asset",
          "type": "address"
        }
      ],
      "name": "_checkSplitterSenderAndGetBalance",
      "outputs": [
        {
          "internalType": "uint256",
          "name": "balance",
          "type": "uint256"
        }
      ],
      "stateMutability": "view",
      "type": "function"
    },
    {
      "inputs": [
        {
          "internalType": "address",
          "name": "_asset",
          "type": "address"
        },
        {
          "internalType": "uint256",
          "name": "balanceBefore",
          "type": "uint256"
        },
        {
          "internalType": "uint256",
          "name": "expectedWithdrewUSD",
          "type": "uint256"
        },
        {
          "internalType": "uint256",
          "name": "assetPrice",
          "type": "uint256"
        },
        {
          "internalType": "address",
          "name": "_splitter",
          "type": "address"
        }
      ],
      "name": "checkWithdrawImpact",
      "outputs": [
        {
          "internalType": "uint256",
          "name": "balance",
          "type": "uint256"
        }
      ],
      "stateMutability": "view",
      "type": "function"
    },
    {
      "inputs": [
        {
          "internalType": "address",
          "name": "controller",
          "type": "address"
        }
      ],
      "name": "onlyGovernance",
      "outputs": [],
      "stateMutability": "view",
      "type": "function"
    },
    {
      "inputs": [
        {
          "internalType": "address",
          "name": "controller",
          "type": "address"
        }
      ],
      "name": "onlyOperators",
      "outputs": [],
      "stateMutability": "view",
      "type": "function"
    },
    {
      "inputs": [
        {
          "internalType": "address",
          "name": "controller",
          "type": "address"
        }
      ],
      "name": "onlyPlatformVoter",
      "outputs": [],
      "stateMutability": "view",
      "type": "function"
    },
    {
      "inputs": [
        {
          "internalType": "address",
          "name": "splitter",
          "type": "address"
        }
      ],
      "name": "onlySplitter",
      "outputs": [],
      "stateMutability": "view",
      "type": "function"
    }
  ],
  "transactionHash": "0x48b665b540e419d343e179c80dc4ebd41ae8e0084dd5082b0ac8a3a95a6b4c8b",
  "args": [],
  "numDeployments": 2,
  "solcInputHash": "35469204f68c9950ae3bdde5d82790ff",
  "bytecode": "0x6115d961003a600b82828239805160001a60731461002d57634e487b7160e01b600052600060045260246000fd5b30600052607381538281f3fe73000000000000000000000000000000000000000030146080604052600436106100ef5760003560e01c80637ca70266116100a1578063bd02068211610070578063bd0206821461021a578063d19cc38a1461023a578063ed6b63c11461025a578063ffa533cf1461027a57600080fd5b80637ca70266146101b45780637fc1c15b146101c75780639ad00ec2146101e7578063ac1d8b351461020757600080fd5b80631594b05b146100f45780631797527d14610119578063201de59f1461013b578063493f6edc1461014e5780634bead6691461016157806367776406146101745780636d51f04314610194575b600080fd5b610107610102366004611069565b61029a565b60405190815260200160405180910390f35b81801561012557600080fd5b506101396101343660046110bf565b6104b5565b005b610139610149366004611101565b61061a565b61013961015c366004611101565b610668565b61013961016f366004611101565b610716565b81801561018057600080fd5b5061013961018f366004611125565b6107cd565b8180156101a057600080fd5b506101396101af36600461116f565b61083d565b6101076101c23660046111a7565b6108d8565b8180156101d357600080fd5b506101396101e23660046111e0565b610959565b8180156101f357600080fd5b50610139610202366004611069565b6109a7565b610139610215366004611101565b610a0d565b81801561022657600080fd5b5061013961023536600461125c565b610a55565b81801561024657600080fd5b50610139610255366004611101565b610b1a565b81801561026657600080fd5b5061013961027536600461128c565b610b5d565b81801561028657600080fd5b506101076102953660046111a7565b610b9c565b6040516370a0823160e01b81526000906001600160a01b038716906370a08231906102c99030906004016112d4565b602060405180830381865afa1580156102e6573d6000803e3d6000fd5b505050506040513d601f19601f8201168201806040525081019061030a91906112e8565b9050821580159061031a57508315155b156104ac57600085821161032f576000610339565b6103398683611317565b90506000670de0b6b3a7640000610350868461132a565b61035a9190611341565b90506000846001600160a01b031663fbfa77cf6040518163ffffffff1660e01b8152600401602060405180830381865afa15801561039c573d6000803e3d6000fd5b505050506040513d601f19601f820116820180604052508101906103c09190611363565b6001600160a01b031663e941fa786040518163ffffffff1660e01b8152600401602060405180830381865afa1580156103fd573d6000803e3d6000fd5b505050506040513d601f19601f8201168201806040525081019061042191906112e8565b9050600082881161043357600061043d565b61043d8389611317565b9050818861044e620186a08461132a565b6104589190611341565b11156040518060400160405280600c81526020016b0a6847440a8dede40d0d2ced60a31b815250906104a65760405162461bcd60e51b815260040161049d91906113a4565b60405180910390fd5b50505050505b95945050505050565b806001600160a01b03166338d52e0f6040518163ffffffff1660e01b8152600401602060405180830381865afa1580156104f3573d6000803e3d6000fd5b505050506040513d601f19601f820116820180604052508101906105179190611363565b83546001600160a01b039182166001600160a01b031991821617855560018501805492841692821683179055600285018054909116739cc199d4353b5fb3e6c8eebc99f5139e0d8ea06b179055612710600385015560405163b429afeb60e01b815263b429afeb9061058d9085906004016112d4565b602060405180830381865afa1580156105aa573d6000803e3d6000fd5b505050506040513d601f19601f820116820180604052508101906105ce91906113d7565b6040518060400160405280600f81526020016e53423a2057726f6e672076616c756560881b815250906106145760405162461bcd60e51b815260040161049d91906113a4565b50505050565b60408051808201909152600a81526914d08e8811195b9a595960b21b60208201526001600160a01b03821633146106645760405162461bcd60e51b815260040161049d91906113a4565b5050565b6040516336b87bd760e11b81526001600160a01b03821690636d70f7ae906106949033906004016112d4565b602060405180830381865afa1580156106b1573d6000803e3d6000fd5b505050506040513d601f19601f820116820180604052508101906106d591906113d7565b6040518060400160405280600a81526020016914d08e8811195b9a595960b21b815250906106645760405162461bcd60e51b815260040161049d91906113a4565b336001600160a01b0316816001600160a01b0316635aa6e6756040518163ffffffff1660e01b8152600401602060405180830381865afa15801561075e573d6000803e3d6000fd5b505050506040513d601f19601f820116820180604052508101906107829190611363565b6001600160a01b0316146040518060400160405280600a81526020016914d08e8811195b9a595960b21b815250906106645760405162461bcd60e51b815260040161049d91906113a4565b60006107d98585610c55565b905080156107f5576107f56001600160a01b0384168383610c6b565b60408051868152602081018390529081018590527f21b38dd19808c509ae6afc969adfaf7d35fe949c37abd493b963cf9b68cc1acb9060600160405180910390a15050505050565b61084682610a0d565b60408051808201909152600c81526b0a6847440a8dede40d0d2ced60a31b6020820152620186a082111561088d5760405162461bcd60e51b815260040161049d91906113a4565b506005830180549082905560408051828152602081018490527f89979f75740477f1609671a960c1f57e40a47e58bdf1623bc683d806fb6407e591015b60405180910390a150505050565b60006108e38361061a565b6040516370a0823160e01b81526001600160a01b038316906370a082319061090f9030906004016112d4565b602060405180830381865afa15801561092c573d6000803e3d6000fd5b505050506040513d601f19601f8201168201806040525081019061095091906112e8565b90505b92915050565b60068301610968828483611497565b507f13bdeb5b5bb760c04b92d93e56c576c6805359d41a13d3cca178aa7c8526b984828260405161099a929190611558565b60405180910390a1505050565b60006109b6868686868661029a565b905080156109d2576109d26001600160a01b0387168383610c6b565b6040518181527f97f6cbf669d73908a8de3b762891f88fcc476520fd70cb3d414dc9ac86e0a2e59060200160405180910390a1505050505050565b336001600160a01b0316816001600160a01b0316634d8b16556040518163ffffffff1660e01b8152600401602060405180830381865afa15801561075e573d6000803e3d6000fd5b610a5e83610668565b6040516370a0823160e01b81526000906001600160a01b038416906370a0823190610a8d9030906004016112d4565b602060405180830381865afa158015610aaa573d6000803e3d6000fd5b505050506040513d601f19601f82011682018060405250810190610ace91906112e8565b9050610ae46001600160a01b0384168383610c6b565b60408051338152602081018390527ff779df072f94d207563b1ba8c286814086f1e6bb436a2652e307dccc56ed79e891016108ca565b610b2381610668565b7fed7f50f936a5ed7428d20f18e78d6dfe8bc37fd2f4e3cdb348327c769724492833604051610b5291906112d4565b60405180910390a150565b610b6981858585610cc2565b5060038401929092556002830180546001600160a01b0319166001600160a01b0392909216919091179055600490910155565b6000610ba78361061a565b6040516370a0823160e01b81526001600160a01b038316906370a0823190610bd39030906004016112d4565b602060405180830381865afa158015610bf0573d6000803e3d6000fd5b505050506040513d601f19601f82011682018060405250810190610c1491906112e8565b90507f94bcfc9a8eba5229c2956ccb1858733fce588bc02145ac053c40b9827a33837f81604051610c4791815260200190565b60405180910390a192915050565b6000818310610c645781610950565b5090919050565b604080516001600160a01b038416602482015260448082018490528251808303909101815260649091019091526020810180516001600160e01b031663a9059cbb60e01b179052610cbd908490610def565b505050565b610ccb84610716565b60408051808201909152600c81526b0a6847440a8dede40d0d2ced60a31b6020820152620186a0841115610d125760405162461bcd60e51b815260040161049d91906113a4565b5060408051808201909152600f81526e53423a2057726f6e672076616c756560881b60208201526001600160a01b038316610d605760405162461bcd60e51b815260040161049d91906113a4565b5060408051808201909152600c81526b0a6847440a8dede40d0d2ced60a31b6020820152620186a0821115610da85760405162461bcd60e51b815260040161049d91906113a4565b50604080518481526001600160a01b03841660208201529081018290527f22ef19bf026fe7720860106a8b759014d7862a967e17ecf25ce94ce71ae87103906060016108ca565b6000610e44826040518060400160405280602081526020017f5361666545524332303a206c6f772d6c6576656c2063616c6c206661696c6564815250856001600160a01b0316610ec19092919063ffffffff16565b805190915015610cbd5780806020019051810190610e6291906113d7565b610cbd5760405162461bcd60e51b815260206004820152602a60248201527f5361666545524332303a204552433230206f7065726174696f6e20646964206e6044820152691bdd081cdd58d8d9595960b21b606482015260840161049d565b6060610ed08484600085610ed8565b949350505050565b606082471015610f395760405162461bcd60e51b815260206004820152602660248201527f416464726573733a20696e73756666696369656e742062616c616e636520666f6044820152651c8818d85b1b60d21b606482015260840161049d565b600080866001600160a01b03168587604051610f559190611587565b60006040518083038185875af1925050503d8060008114610f92576040519150601f19603f3d011682016040523d82523d6000602084013e610f97565b606091505b5091509150610fa887838387610fb3565b979650505050505050565b6060831561102257825160000361101b576001600160a01b0385163b61101b5760405162461bcd60e51b815260206004820152601d60248201527f416464726573733a2063616c6c20746f206e6f6e2d636f6e7472616374000000604482015260640161049d565b5081610ed0565b610ed083838151156110375781518083602001fd5b8060405162461bcd60e51b815260040161049d91906113a4565b6001600160a01b038116811461106657600080fd5b50565b600080600080600060a0868803121561108157600080fd5b853561108c81611051565b945060208601359350604086013592506060860135915060808601356110b181611051565b809150509295509295909350565b6000806000606084860312156110d457600080fd5b8335925060208401356110e681611051565b915060408401356110f681611051565b809150509250925092565b60006020828403121561111357600080fd5b813561111e81611051565b9392505050565b6000806000806080858703121561113b57600080fd5b8435935060208501359250604085013561115481611051565b9150606085013561116481611051565b939692955090935050565b60008060006060848603121561118457600080fd5b83359250602084013561119681611051565b929592945050506040919091013590565b600080604083850312156111ba57600080fd5b82356111c581611051565b915060208301356111d581611051565b809150509250929050565b6000806000604084860312156111f557600080fd5b83359250602084013567ffffffffffffffff8082111561121457600080fd5b818601915086601f83011261122857600080fd5b81358181111561123757600080fd5b87602082850101111561124957600080fd5b6020830194508093505050509250925092565b60008060006060848603121561127157600080fd5b833561127c81611051565b925060208401356110e681611051565b600080600080600060a086880312156112a457600080fd5b853594506020860135935060408601356112bd81611051565b92506060860135915060808601356110b181611051565b6001600160a01b0391909116815260200190565b6000602082840312156112fa57600080fd5b5051919050565b634e487b7160e01b600052601160045260246000fd5b8181038181111561095357610953611301565b808202811582820484141761095357610953611301565b60008261135e57634e487b7160e01b600052601260045260246000fd5b500490565b60006020828403121561137557600080fd5b815161111e81611051565b60005b8381101561139b578181015183820152602001611383565b50506000910152565b60208152600082518060208401526113c3816040850160208701611380565b601f01601f19169190910160400192915050565b6000602082840312156113e957600080fd5b8151801515811461111e57600080fd5b634e487b7160e01b600052604160045260246000fd5b600181811c9082168061142357607f821691505b60208210810361144357634e487b7160e01b600052602260045260246000fd5b50919050565b601f821115610cbd57600081815260208120601f850160051c810160208610156114705750805b601f850160051c820191505b8181101561148f5782815560010161147c565b505050505050565b67ffffffffffffffff8311156114af576114af6113f9565b6114c3836114bd835461140f565b83611449565b6000601f8411600181146114f757600085156114df5750838201355b600019600387901b1c1916600186901b178355611551565b600083815260209020601f19861690835b828110156115285786850135825560209485019460019092019101611508565b50868210156115455760001960f88860031b161c19848701351681555b505060018560011b0183555b5050505050565b60208152816020820152818360408301376000818301604090810191909152601f909201601f19160101919050565b60008251611599818460208701611380565b919091019291505056fea26469706673582212203c1e8ccbb93495a751d798dcd7143241897bf9988ec94045feedec063cdf88d164736f6c63430008110033",
  "devdoc": {
    "kind": "dev",
    "methods": {
      "checkWithdrawImpact(address,uint256,uint256,uint256,address)": {
        "params": {
          "assetPrice": "Price of the asset, decimals 18",
          "balanceBefore": "Asset balance of the strategy before withdrawing",
          "expectedWithdrewUSD": "Expected amount in USD, decimals are same to {_asset}"
        },
        "returns": {
          "balance": "Current asset balance of the strategy"
        }
      },
      "onlyGovernance(address)": {
        "details": "Restrict access only for governance"
      },
      "onlyOperators(address)": {
        "details": "Restrict access only for operators"
      },
      "onlyPlatformVoter(address)": {
        "details": "Restrict access only for platform voter"
      },
      "onlySplitter(address)": {
        "details": "Restrict access only for splitter"
      }
    },
    "stateVariables": {
      "COMPOUND_DENOMINATOR": {
        "details": "Denominator for compound ratio"
      },
      "FEE_DENOMINATOR": {
        "details": "Denominator for fee calculation."
      }
    },
    "version": 1
  },
  "userdoc": {
    "kind": "user",
    "methods": {
      "checkWithdrawImpact(address,uint256,uint256,uint256,address)": {
        "notice": "Calculate withdrawn amount in USD using the {assetPrice}.         Revert if the amount is different from expected too much (high price impact)"
      }
    },
    "version": 1
  },
  "storageLayout": {
    "storage": [],
    "types": null
  }
}