{
  "address": "0x29ce0ca8d0A625Ebe1d0A2F94a2aC9Cc0f9948F1",
  "abi": [
    {
      "anonymous": false,
      "inputs": [
        {
          "indexed": true,
          "internalType": "address",
          "name": "implementation",
          "type": "address"
        }
      ],
      "name": "Upgraded",
      "type": "event"
    },
    {
      "stateMutability": "payable",
      "type": "fallback"
    },
    {
      "inputs": [],
      "name": "PROXY_CONTROLLED_VERSION",
      "outputs": [
        {
          "internalType": "string",
          "name": "",
          "type": "string"
        }
      ],
      "stateMutability": "view",
      "type": "function"
    },
    {
      "inputs": [],
      "name": "implementation",
      "outputs": [
        {
          "internalType": "address",
          "name": "",
          "type": "address"
        }
      ],
      "stateMutability": "view",
      "type": "function"
    },
    {
      "inputs": [
        {
          "internalType": "address",
          "name": "_logic",
          "type": "address"
        }
      ],
      "name": "initProxy",
      "outputs": [],
      "stateMutability": "nonpayable",
      "type": "function"
    },
    {
      "inputs": [
        {
          "internalType": "address",
          "name": "_newImplementation",
          "type": "address"
        }
      ],
      "name": "upgrade",
      "outputs": [],
      "stateMutability": "nonpayable",
      "type": "function"
    },
    {
      "stateMutability": "payable",
      "type": "receive"
    }
  ],
  "transactionHash": "0x5b8b7637a46199b9444c76fbf636aea5802c59a284ad2dc9f121281441f9bbcb",
  "args": [],
  "numDeployments": 1,
  "solcInputHash": "e5087fc34b67c5c164018f34f0fe91fa",
  "bytecode": "0x608060405234801561001057600080fd5b5061003c60017f360894a13ba1a3210667c828492db98dca3e2076cc3735a920a3ca505d382bbd61006f565b7f360894a13ba1a3210667c828492db98dca3e2076cc3735a920a3ca505d382bbc1461006a5761006a610096565b6100ac565b8181038181111561009057634e487b7160e01b600052601160045260246000fd5b92915050565b634e487b7160e01b600052600160045260246000fd5b61068a806100bb6000396000f3fe6080604052600436106100435760003560e01c80630900f0101461005a5780633bc845301461007a5780635c60da1b146100c15780639c020061146100ee57610052565b366100525761005061010e565b005b61005061010e565b34801561006657600080fd5b5061005061007536600461055d565b61012e565b34801561008657600080fd5b506100ab60405180604001604052806005815260200164312e302e3160d81b81525081565b6040516100b8919061058d565b60405180910390f35b3480156100cd57600080fd5b506100d661035c565b6040516001600160a01b0390911681526020016100b8565b3480156100fa57600080fd5b5061005061010936600461055d565b610379565b61012c6101276000805160206106358339815191525490565b61040d565b565b6040516301ffc9a760e01b815263c19fa56160e01b60048201526001600160a01b038216906301ffc9a790602401602060405180830381865afa158015610179573d6000803e3d6000fd5b505050506040513d601f19601f8201168201806040525081019061019d91906105db565b6101c25760405162461bcd60e51b81526004016101b9906105fd565b60405180910390fd5b60405163b429afeb60e01b8152336004820152309063b429afeb90602401602060405180830381865afa1580156101fd573d6000803e3d6000fd5b505050506040513d601f19601f8201168201806040525081019061022191906105db565b6102605760405162461bcd60e51b815260206004820152601060248201526f283937bc3c9d102337b93134b23232b760811b60448201526064016101b9565b30634fac6ccd61027c6000805160206106358339815191525490565b6040516001600160e01b031960e084901b1681526001600160a01b039091166004820152602401600060405180830381600087803b1580156102bd57600080fd5b505af11580156102d1573d6000803e3d6000fd5b505050506102de81610431565b60405163b429afeb60e01b8152336004820152309063b429afeb90602401602060405180830381865afa158015610319573d6000803e3d6000fd5b505050506040513d601f19601f8201168201806040525081019061033d91906105db565b6103595760405162461bcd60e51b81526004016101b9906105fd565b50565b60006103746000805160206106358339815191525490565b905090565b6040516301ffc9a760e01b815263c19fa56160e01b60048201526001600160a01b038216906301ffc9a790602401602060405180830381865afa1580156103c4573d6000803e3d6000fd5b505050506040513d601f19601f820116820180604052508101906103e891906105db565b6104045760405162461bcd60e51b81526004016101b9906105fd565b61035981610471565b3660008037600080366000845af43d6000803e80801561042c573d6000f35b3d6000fd5b61043a816104d5565b6040516001600160a01b038216907fbc7cd75a20ee27fd9adebab32041f755214dbc6bffa90cc0225b39da2e5c2d3b90600090a250565b60006104896000805160206106358339815191525490565b6001600160a01b0316146104d05760405162461bcd60e51b815260206004820152600e60248201526d105b1c9958591e481a5b9a5d195960921b60448201526064016101b9565b610359815b6001600160a01b0381163b61054b5760405162461bcd60e51b815260206004820152603660248201527f5570677261646561626c6550726f78793a206e657720696d706c656d656e74616044820152751d1a5bdb881a5cc81b9bdd08184818dbdb9d1c9858dd60521b60648201526084016101b9565b60008051602061063583398151915255565b60006020828403121561056f57600080fd5b81356001600160a01b038116811461058657600080fd5b9392505050565b600060208083528351808285015260005b818110156105ba5785810183015185820160400152820161059e565b506000604082860101526040601f19601f8301168501019250505092915050565b6000602082840312156105ed57600080fd5b8151801515811461058657600080fd5b6020808252601b908201527f50726f78793a2057726f6e6720696d706c656d656e746174696f6e000000000060408201526060019056fe360894a13ba1a3210667c828492db98dca3e2076cc3735a920a3ca505d382bbca2646970667358221220d0b43224e70cc79b37238f0c182f9cb1d408d61758821ceeeb2fcbb9457398bd64736f6c63430008110033",
  "devdoc": {
    "author": "belbix",
    "details": "Only Controller has access and should implement time-lock for upgrade action.",
    "kind": "dev",
    "methods": {
      "initProxy(address)": {
        "details": "Initialize proxy implementation. Need to call after deploy new proxy."
      },
      "upgrade(address)": {
        "details": "Upgrade allowed only for Controller and should be done only after time-lock period",
        "params": {
          "_newImplementation": "Implementation address"
        }
      }
    },
    "stateVariables": {
      "PROXY_CONTROLLED_VERSION": {
        "details": "Should be incremented when contract changed"
      }
    },
    "title": "EIP1967 Upgradable proxy implementation.",
    "version": 1
  },
  "userdoc": {
    "kind": "user",
    "methods": {
      "PROXY_CONTROLLED_VERSION()": {
        "notice": "Version of the contract"
      },
      "implementation()": {
        "notice": "Return current logic implementation"
      },
      "upgrade(address)": {
        "notice": "Upgrade contract logic"
      }
    },
    "version": 1
  },
  "storageLayout": {
    "storage": [],
    "types": null
  }
}