{
  "address": "0xa6A62F6F24f27BA0cf8D9300e0D344fBC9147B66",
  "abi": [
    {
      "inputs": [
        {
          "internalType": "address",
          "name": "_asset",
          "type": "address"
        },
        {
          "internalType": "uint256",
          "name": "balanceBefore",
          "type": "uint256"
        },
        {
          "internalType": "uint256",
          "name": "investedAssetsUSD",
          "type": "uint256"
        },
        {
          "internalType": "uint256",
          "name": "assetPrice",
          "type": "uint256"
        },
        {
          "internalType": "address",
          "name": "_splitter",
          "type": "address"
        }
      ],
      "name": "checkWithdrawImpact",
      "outputs": [
        {
          "internalType": "uint256",
          "name": "balance",
          "type": "uint256"
        }
      ],
      "stateMutability": "view",
      "type": "function"
    },
    {
      "inputs": [
        {
          "internalType": "address",
          "name": "controller",
          "type": "address"
        }
      ],
      "name": "onlyGovernance",
      "outputs": [],
      "stateMutability": "view",
      "type": "function"
    },
    {
      "inputs": [
        {
          "internalType": "address",
          "name": "controller",
          "type": "address"
        }
      ],
      "name": "onlyOperators",
      "outputs": [],
      "stateMutability": "view",
      "type": "function"
    },
    {
      "inputs": [
        {
          "internalType": "address",
          "name": "controller",
          "type": "address"
        }
      ],
      "name": "onlyPlatformVoter",
      "outputs": [],
      "stateMutability": "view",
      "type": "function"
    },
    {
      "inputs": [
        {
          "internalType": "address",
          "name": "splitter",
          "type": "address"
        }
      ],
      "name": "onlySplitter",
      "outputs": [],
      "stateMutability": "view",
      "type": "function"
    }
  ],
  "transactionHash": "0xe21d2122237191983053c32be994aed1a25557c6d3715ee0a03672e0fffcc550",
  "args": [],
  "numDeployments": 2,
  "solcInputHash": "cbef185973eef437de50ae38355bc170",
  "bytecode": "0x6106bb61003a600b82828239805160001a60731461002d57634e487b7160e01b600052600060045260246000fd5b30600052607381538281f3fe73000000000000000000000000000000000000000030146080604052600436106100615760003560e01c80631594b05b14610066578063201de59f1461008b578063493f6edc146100a05780634bead669146100b3578063ac1d8b35146100c6575b600080fd5b6100796100743660046104fd565b6100d9565b60405190815260200160405180910390f35b61009e610099366004610553565b6102ef565b005b61009e6100ae366004610553565b61033d565b61009e6100c1366004610553565b6103e6565b61009e6100d4366004610553565b61049d565b6040516370a0823160e01b81523060048201526000906001600160a01b038716906370a0823190602401602060405180830381865afa158015610120573d6000803e3d6000fd5b505050506040513d601f19601f820116820180604052508101906101449190610577565b9050821580159061015457508315155b156102e6576000858211610169576000610173565b61017386836105a6565b90506000670de0b6b3a764000061018a86846105bf565b61019491906105d6565b90506000846001600160a01b031663fbfa77cf6040518163ffffffff1660e01b8152600401602060405180830381865afa1580156101d6573d6000803e3d6000fd5b505050506040513d601f19601f820116820180604052508101906101fa91906105f8565b6001600160a01b031663e941fa786040518163ffffffff1660e01b8152600401602060405180830381865afa158015610237573d6000803e3d6000fd5b505050506040513d601f19601f8201168201806040525081019061025b9190610577565b9050600082881161026d576000610277565b61027783896105a6565b90508188610288620186a0846105bf565b61029291906105d6565b11156040518060400160405280600c81526020016b0a6847440a8dede40d0d2ced60a31b815250906102e05760405162461bcd60e51b81526004016102d79190610615565b60405180910390fd5b50505050505b95945050505050565b60408051808201909152600a81526914d08e8811195b9a595960b21b60208201526001600160a01b03821633146103395760405162461bcd60e51b81526004016102d79190610615565b5050565b6040516336b87bd760e11b81523360048201526001600160a01b03821690636d70f7ae90602401602060405180830381865afa158015610381573d6000803e3d6000fd5b505050506040513d601f19601f820116820180604052508101906103a59190610663565b6040518060400160405280600a81526020016914d08e8811195b9a595960b21b815250906103395760405162461bcd60e51b81526004016102d79190610615565b336001600160a01b0316816001600160a01b0316635aa6e6756040518163ffffffff1660e01b8152600401602060405180830381865afa15801561042e573d6000803e3d6000fd5b505050506040513d601f19601f8201168201806040525081019061045291906105f8565b6001600160a01b0316146040518060400160405280600a81526020016914d08e8811195b9a595960b21b815250906103395760405162461bcd60e51b81526004016102d79190610615565b336001600160a01b0316816001600160a01b0316634d8b16556040518163ffffffff1660e01b8152600401602060405180830381865afa15801561042e573d6000803e3d6000fd5b6001600160a01b03811681146104fa57600080fd5b50565b600080600080600060a0868803121561051557600080fd5b8535610520816104e5565b94506020860135935060408601359250606086013591506080860135610545816104e5565b809150509295509295909350565b60006020828403121561056557600080fd5b8135610570816104e5565b9392505050565b60006020828403121561058957600080fd5b5051919050565b634e487b7160e01b600052601160045260246000fd5b818103818111156105b9576105b9610590565b92915050565b80820281158282048414176105b9576105b9610590565b6000826105f357634e487b7160e01b600052601260045260246000fd5b500490565b60006020828403121561060a57600080fd5b8151610570816104e5565b600060208083528351808285015260005b8181101561064257858101830151858201604001528201610626565b506000604082860101526040601f19601f8301168501019250505092915050565b60006020828403121561067557600080fd5b8151801515811461057057600080fdfea26469706673582212201e3227120bbd4480cbfddd9307a9dca187c5aa1117d34119e2cf3fc0d8369dcf64736f6c63430008110033",
  "devdoc": {
    "kind": "dev",
    "methods": {
      "checkWithdrawImpact(address,uint256,uint256,uint256,address)": {
        "params": {
          "assetPrice": "Price of the asset, decimals 18",
          "balanceBefore": "Asset balance of the strategy before withdrawing",
          "investedAssetsUSD": "Expected amount in USD, decimals are same to {_asset}"
        },
        "returns": {
          "balance": "Current asset balance of the strategy"
        }
      },
      "onlyGovernance(address)": {
        "details": "Restrict access only for governance"
      },
      "onlyOperators(address)": {
        "details": "Restrict access only for operators"
      },
      "onlyPlatformVoter(address)": {
        "details": "Restrict access only for platform voter"
      },
      "onlySplitter(address)": {
        "details": "Restrict access only for splitter"
      }
    },
    "stateVariables": {
      "FEE_DENOMINATOR": {
        "details": "Denominator for fee calculation."
      }
    },
    "version": 1
  },
  "userdoc": {
    "kind": "user",
    "methods": {
      "checkWithdrawImpact(address,uint256,uint256,uint256,address)": {
        "notice": "Calculate withdrawn amount in USD using the {assetPrice}.         Revert if the amount is different from expected too much (high price impact)"
      }
    },
    "version": 1
  },
  "storageLayout": {
    "storage": [],
    "types": null
  }
}