{
  "address": "0xacE2aC58E1E5A7BFE274916c4d82914D490Ed4a5",
  "abi": [
    {
      "inputs": [
        {
          "internalType": "contract IERC20",
          "name": "asset_",
          "type": "address"
        },
        {
          "internalType": "string",
          "name": "_name",
          "type": "string"
        },
        {
          "internalType": "string",
          "name": "_symbol",
          "type": "string"
        },
        {
          "internalType": "address",
          "name": "_strategy",
          "type": "address"
        },
        {
          "internalType": "uint256",
          "name": "_buffer",
          "type": "uint256"
        }
      ],
      "stateMutability": "nonpayable",
      "type": "constructor"
    },
    {
      "anonymous": false,
      "inputs": [
        {
          "indexed": true,
          "internalType": "address",
          "name": "owner",
          "type": "address"
        },
        {
          "indexed": true,
          "internalType": "address",
          "name": "spender",
          "type": "address"
        },
        {
          "indexed": false,
          "internalType": "uint256",
          "name": "value",
          "type": "uint256"
        }
      ],
      "name": "Approval",
      "type": "event"
    },
    {
      "anonymous": false,
      "inputs": [
        {
          "indexed": true,
          "internalType": "address",
          "name": "sender",
          "type": "address"
        },
        {
          "indexed": true,
          "internalType": "address",
          "name": "owner",
          "type": "address"
        },
        {
          "indexed": false,
          "internalType": "uint256",
          "name": "assets",
          "type": "uint256"
        },
        {
          "indexed": false,
          "internalType": "uint256",
          "name": "shares",
          "type": "uint256"
        }
      ],
      "name": "Deposit",
      "type": "event"
    },
    {
      "anonymous": false,
      "inputs": [
        {
          "indexed": false,
          "internalType": "address",
          "name": "splitter",
          "type": "address"
        },
        {
          "indexed": false,
          "internalType": "uint256",
          "name": "amount",
          "type": "uint256"
        }
      ],
      "name": "Invest",
      "type": "event"
    },
    {
      "anonymous": false,
      "inputs": [
        {
          "indexed": true,
          "internalType": "address",
          "name": "from",
          "type": "address"
        },
        {
          "indexed": true,
          "internalType": "address",
          "name": "to",
          "type": "address"
        },
        {
          "indexed": false,
          "internalType": "uint256",
          "name": "value",
          "type": "uint256"
        }
      ],
      "name": "Transfer",
      "type": "event"
    },
    {
      "anonymous": false,
      "inputs": [
        {
          "indexed": true,
          "internalType": "address",
          "name": "sender",
          "type": "address"
        },
        {
          "indexed": true,
          "internalType": "address",
          "name": "receiver",
          "type": "address"
        },
        {
          "indexed": true,
          "internalType": "address",
          "name": "owner",
          "type": "address"
        },
        {
          "indexed": false,
          "internalType": "uint256",
          "name": "assets",
          "type": "uint256"
        },
        {
          "indexed": false,
          "internalType": "uint256",
          "name": "shares",
          "type": "uint256"
        }
      ],
      "name": "Withdraw",
      "type": "event"
    },
    {
      "inputs": [],
      "name": "BUFFER_DENOMINATOR",
      "outputs": [
        {
          "internalType": "uint256",
          "name": "",
          "type": "uint256"
        }
      ],
      "stateMutability": "view",
      "type": "function"
    },
    {
      "inputs": [],
      "name": "DOMAIN_SEPARATOR",
      "outputs": [
        {
          "internalType": "bytes32",
          "name": "",
          "type": "bytes32"
        }
      ],
      "stateMutability": "view",
      "type": "function"
    },
    {
      "inputs": [],
      "name": "VAULT_VERSION",
      "outputs": [
        {
          "internalType": "string",
          "name": "",
          "type": "string"
        }
      ],
      "stateMutability": "view",
      "type": "function"
    },
    {
      "inputs": [
        {
          "internalType": "address",
          "name": "owner",
          "type": "address"
        },
        {
          "internalType": "address",
          "name": "spender",
          "type": "address"
        }
      ],
      "name": "allowance",
      "outputs": [
        {
          "internalType": "uint256",
          "name": "",
          "type": "uint256"
        }
      ],
      "stateMutability": "view",
      "type": "function"
    },
    {
      "inputs": [
        {
          "internalType": "address",
          "name": "spender",
          "type": "address"
        },
        {
          "internalType": "uint256",
          "name": "amount",
          "type": "uint256"
        }
      ],
      "name": "approve",
      "outputs": [
        {
          "internalType": "bool",
          "name": "",
          "type": "bool"
        }
      ],
      "stateMutability": "nonpayable",
      "type": "function"
    },
    {
      "inputs": [],
      "name": "asset",
      "outputs": [
        {
          "internalType": "address",
          "name": "",
          "type": "address"
        }
      ],
      "stateMutability": "view",
      "type": "function"
    },
    {
      "inputs": [
        {
          "internalType": "address",
          "name": "account",
          "type": "address"
        }
      ],
      "name": "balanceOf",
      "outputs": [
        {
          "internalType": "uint256",
          "name": "",
          "type": "uint256"
        }
      ],
      "stateMutability": "view",
      "type": "function"
    },
    {
      "inputs": [],
      "name": "buffer",
      "outputs": [
        {
          "internalType": "uint256",
          "name": "",
          "type": "uint256"
        }
      ],
      "stateMutability": "view",
      "type": "function"
    },
    {
      "inputs": [
        {
          "internalType": "uint256",
          "name": "shares",
          "type": "uint256"
        }
      ],
      "name": "convertToAssets",
      "outputs": [
        {
          "internalType": "uint256",
          "name": "",
          "type": "uint256"
        }
      ],
      "stateMutability": "view",
      "type": "function"
    },
    {
      "inputs": [
        {
          "internalType": "uint256",
          "name": "assets",
          "type": "uint256"
        }
      ],
      "name": "convertToShares",
      "outputs": [
        {
          "internalType": "uint256",
          "name": "",
          "type": "uint256"
        }
      ],
      "stateMutability": "view",
      "type": "function"
    },
    {
      "inputs": [],
      "name": "decimals",
      "outputs": [
        {
          "internalType": "uint8",
          "name": "",
          "type": "uint8"
        }
      ],
      "stateMutability": "view",
      "type": "function"
    },
    {
      "inputs": [
        {
          "internalType": "address",
          "name": "spender",
          "type": "address"
        },
        {
          "internalType": "uint256",
          "name": "subtractedValue",
          "type": "uint256"
        }
      ],
      "name": "decreaseAllowance",
      "outputs": [
        {
          "internalType": "bool",
          "name": "",
          "type": "bool"
        }
      ],
      "stateMutability": "nonpayable",
      "type": "function"
    },
    {
      "inputs": [
        {
          "internalType": "uint256",
          "name": "assets",
          "type": "uint256"
        },
        {
          "internalType": "address",
          "name": "receiver",
          "type": "address"
        }
      ],
      "name": "deposit",
      "outputs": [
        {
          "internalType": "uint256",
          "name": "shares",
          "type": "uint256"
        }
      ],
      "stateMutability": "nonpayable",
      "type": "function"
    },
    {
      "inputs": [
        {
          "internalType": "address",
          "name": "spender",
          "type": "address"
        },
        {
          "internalType": "uint256",
          "name": "addedValue",
          "type": "uint256"
        }
      ],
      "name": "increaseAllowance",
      "outputs": [
        {
          "internalType": "bool",
          "name": "",
          "type": "bool"
        }
      ],
      "stateMutability": "nonpayable",
      "type": "function"
    },
    {
      "inputs": [
        {
          "internalType": "address",
          "name": "",
          "type": "address"
        }
      ],
      "name": "maxDeposit",
      "outputs": [
        {
          "internalType": "uint256",
          "name": "",
          "type": "uint256"
        }
      ],
      "stateMutability": "view",
      "type": "function"
    },
    {
      "inputs": [
        {
          "internalType": "address",
          "name": "",
          "type": "address"
        }
      ],
      "name": "maxMint",
      "outputs": [
        {
          "internalType": "uint256",
          "name": "",
          "type": "uint256"
        }
      ],
      "stateMutability": "view",
      "type": "function"
    },
    {
      "inputs": [
        {
          "internalType": "address",
          "name": "owner",
          "type": "address"
        }
      ],
      "name": "maxRedeem",
      "outputs": [
        {
          "internalType": "uint256",
          "name": "",
          "type": "uint256"
        }
      ],
      "stateMutability": "view",
      "type": "function"
    },
    {
      "inputs": [
        {
          "internalType": "address",
          "name": "owner",
          "type": "address"
        }
      ],
      "name": "maxWithdraw",
      "outputs": [
        {
          "internalType": "uint256",
          "name": "",
          "type": "uint256"
        }
      ],
      "stateMutability": "view",
      "type": "function"
    },
    {
      "inputs": [
        {
          "internalType": "uint256",
          "name": "shares",
          "type": "uint256"
        },
        {
          "internalType": "address",
          "name": "receiver",
          "type": "address"
        }
      ],
      "name": "mint",
      "outputs": [
        {
          "internalType": "uint256",
          "name": "assets",
          "type": "uint256"
        }
      ],
      "stateMutability": "nonpayable",
      "type": "function"
    },
    {
      "inputs": [],
      "name": "name",
      "outputs": [
        {
          "internalType": "string",
          "name": "",
          "type": "string"
        }
      ],
      "stateMutability": "view",
      "type": "function"
    },
    {
      "inputs": [
        {
          "internalType": "address",
          "name": "owner",
          "type": "address"
        }
      ],
      "name": "nonces",
      "outputs": [
        {
          "internalType": "uint256",
          "name": "",
          "type": "uint256"
        }
      ],
      "stateMutability": "view",
      "type": "function"
    },
    {
      "inputs": [
        {
          "internalType": "address",
          "name": "owner",
          "type": "address"
        },
        {
          "internalType": "address",
          "name": "spender",
          "type": "address"
        },
        {
          "internalType": "uint256",
          "name": "value",
          "type": "uint256"
        },
        {
          "internalType": "uint256",
          "name": "deadline",
          "type": "uint256"
        },
        {
          "internalType": "uint8",
          "name": "v",
          "type": "uint8"
        },
        {
          "internalType": "bytes32",
          "name": "r",
          "type": "bytes32"
        },
        {
          "internalType": "bytes32",
          "name": "s",
          "type": "bytes32"
        }
      ],
      "name": "permit",
      "outputs": [],
      "stateMutability": "nonpayable",
      "type": "function"
    },
    {
      "inputs": [
        {
          "internalType": "uint256",
          "name": "assets",
          "type": "uint256"
        }
      ],
      "name": "previewDeposit",
      "outputs": [
        {
          "internalType": "uint256",
          "name": "",
          "type": "uint256"
        }
      ],
      "stateMutability": "view",
      "type": "function"
    },
    {
      "inputs": [
        {
          "internalType": "uint256",
          "name": "shares",
          "type": "uint256"
        }
      ],
      "name": "previewMint",
      "outputs": [
        {
          "internalType": "uint256",
          "name": "",
          "type": "uint256"
        }
      ],
      "stateMutability": "view",
      "type": "function"
    },
    {
      "inputs": [
        {
          "internalType": "uint256",
          "name": "shares",
          "type": "uint256"
        }
      ],
      "name": "previewRedeem",
      "outputs": [
        {
          "internalType": "uint256",
          "name": "",
          "type": "uint256"
        }
      ],
      "stateMutability": "view",
      "type": "function"
    },
    {
      "inputs": [
        {
          "internalType": "uint256",
          "name": "assets",
          "type": "uint256"
        }
      ],
      "name": "previewWithdraw",
      "outputs": [
        {
          "internalType": "uint256",
          "name": "",
          "type": "uint256"
        }
      ],
      "stateMutability": "view",
      "type": "function"
    },
    {
      "inputs": [
        {
          "internalType": "uint256",
          "name": "shares",
          "type": "uint256"
        },
        {
          "internalType": "address",
          "name": "receiver",
          "type": "address"
        },
        {
          "internalType": "address",
          "name": "owner",
          "type": "address"
        }
      ],
      "name": "redeem",
      "outputs": [
        {
          "internalType": "uint256",
          "name": "assets",
          "type": "uint256"
        }
      ],
      "stateMutability": "nonpayable",
      "type": "function"
    },
    {
      "inputs": [],
      "name": "sharePrice",
      "outputs": [
        {
          "internalType": "uint256",
          "name": "",
          "type": "uint256"
        }
      ],
      "stateMutability": "view",
      "type": "function"
    },
    {
      "inputs": [],
      "name": "strategy",
      "outputs": [
        {
          "internalType": "contract IStrategyStrict",
          "name": "",
          "type": "address"
        }
      ],
      "stateMutability": "view",
      "type": "function"
    },
    {
      "inputs": [],
      "name": "strategyAssets",
      "outputs": [
        {
          "internalType": "uint256",
          "name": "",
          "type": "uint256"
        }
      ],
      "stateMutability": "view",
      "type": "function"
    },
    {
      "inputs": [
        {
          "internalType": "bytes4",
          "name": "interfaceId",
          "type": "bytes4"
        }
      ],
      "name": "supportsInterface",
      "outputs": [
        {
          "internalType": "bool",
          "name": "",
          "type": "bool"
        }
      ],
      "stateMutability": "view",
      "type": "function"
    },
    {
      "inputs": [],
      "name": "symbol",
      "outputs": [
        {
          "internalType": "string",
          "name": "",
          "type": "string"
        }
      ],
      "stateMutability": "view",
      "type": "function"
    },
    {
      "inputs": [],
      "name": "totalAssets",
      "outputs": [
        {
          "internalType": "uint256",
          "name": "",
          "type": "uint256"
        }
      ],
      "stateMutability": "view",
      "type": "function"
    },
    {
      "inputs": [],
      "name": "totalSupply",
      "outputs": [
        {
          "internalType": "uint256",
          "name": "",
          "type": "uint256"
        }
      ],
      "stateMutability": "view",
      "type": "function"
    },
    {
      "inputs": [
        {
          "internalType": "address",
          "name": "to",
          "type": "address"
        },
        {
          "internalType": "uint256",
          "name": "amount",
          "type": "uint256"
        }
      ],
      "name": "transfer",
      "outputs": [
        {
          "internalType": "bool",
          "name": "",
          "type": "bool"
        }
      ],
      "stateMutability": "nonpayable",
      "type": "function"
    },
    {
      "inputs": [
        {
          "internalType": "address",
          "name": "from",
          "type": "address"
        },
        {
          "internalType": "address",
          "name": "to",
          "type": "address"
        },
        {
          "internalType": "uint256",
          "name": "amount",
          "type": "uint256"
        }
      ],
      "name": "transferFrom",
      "outputs": [
        {
          "internalType": "bool",
          "name": "",
          "type": "bool"
        }
      ],
      "stateMutability": "nonpayable",
      "type": "function"
    },
    {
      "inputs": [
        {
          "internalType": "uint256",
          "name": "assets",
          "type": "uint256"
        },
        {
          "internalType": "address",
          "name": "receiver",
          "type": "address"
        },
        {
          "internalType": "address",
          "name": "owner",
          "type": "address"
        }
      ],
      "name": "withdraw",
      "outputs": [
        {
          "internalType": "uint256",
          "name": "shares",
          "type": "uint256"
        }
      ],
      "stateMutability": "nonpayable",
      "type": "function"
    },
    {
      "inputs": [],
      "name": "withdrawAll",
      "outputs": [],
      "stateMutability": "nonpayable",
      "type": "function"
    }
  ],
  "transactionHash": "0xb28cc29597ab4f80fe3714ca543f39f2ebbf4962cbad8962ee8eb9cf324e32bd",
  "args": [
    "0x8f3Cf7ad23Cd3CaDbD9735AFf958023239c6A063",
    "tDAI",
    "tDAI",
    "0x746D93618E8EAc1c5bC4A889C9FE0dA79A0038cf",
    "0"
  ],
  "numDeployments": 1,
  "solcInputHash": "2e258ab5b9d65489c7163756a2de9647",
  "bytecode": "0x6101806040523480156200001257600080fd5b5060405162002ee038038062002ee083398101604081905262000035916200058d565b8484848180604051806040016040528060018152602001603160f81b81525084848160039081620000679190620006bc565b506004620000768282620006bc565b5050825160209384012082519284019290922060e08390526101008190524660a0818152604080517f8b73c3c69bb8fe3d512ecc4cf759cc79239f7b179b0ffacaa9a75d522b39400f818901819052818301979097526060810194909452608080850193909352308483018190528151808603909301835260c09485019091528151919096012090529290925261012052505060016007555050600880546001600160a01b0319166001600160a01b0392909216919091179055620001406014620186a062000788565b8111156200017f5760405162461bcd60e51b815260206004820152600760248201526610a12aa32322a960c91b60448201526064015b60405180910390fd5b6200018a85620001d4565b610160819052620001bc827f1b223b0cd6a1cc62d33fa5c6399124d92f9422d4af5ebbf8a74b60ffa13816156200021c565b506001600160a01b03166101405250620007f0915050565b620001df816200027a565b620002195760405162461bcd60e51b815260206004820152600960248201526804e6f742045524332360bc1b604482015260640162000176565b50565b620002288282620003c9565b620002765760405162461bcd60e51b815260206004820152601a60248201527f496e74657266616365206973206e6f7420737570706f72746564000000000000604482015260640162000176565b5050565b60006001600160a01b038216620002c35760405162461bcd60e51b815260206004820152600c60248201526b5a65726f206164647265737360a01b604482015260640162000176565b813b6000819003620002d85750600092915050565b6000836001600160a01b03166318160ddd6040518163ffffffff1660e01b8152600401602060405180830381865afa92505050801562000337575060408051601f3d908101601f191682019092526200033491810190620007ab565b60015b15620003435760019150505b6040516370a0823160e01b81523060048201526000906001600160a01b038616906370a0823190602401602060405180830381865afa925050508015620003a9575060408051601f3d908101601f19168201909252620003a691810190620007ab565b60015b15620003b55760019150505b818015620003c05750805b95945050505050565b60006001600160a01b038316620004125760405162461bcd60e51b815260206004820152600c60248201526b5a65726f206164647265737360a01b604482015260640162000176565b823b600081900362000429576000915050620004ac565b6040516301ffc9a760e01b81526001600160e01b0319841660048201526001600160a01b038516906301ffc9a790602401602060405180830381865afa92505050801562000496575060408051601f3d908101601f191682019092526200049391810190620007c5565b60015b15620004a6579150620004ac9050565b60009150505b92915050565b6001600160a01b03811681146200021957600080fd5b634e487b7160e01b600052604160045260246000fd5b600082601f830112620004f057600080fd5b81516001600160401b03808211156200050d576200050d620004c8565b604051601f8301601f19908116603f01168101908282118183101715620005385762000538620004c8565b816040528381526020925086838588010111156200055557600080fd5b600091505b838210156200057957858201830151818301840152908201906200055a565b600093810190920192909252949350505050565b600080600080600060a08688031215620005a657600080fd5b8551620005b381620004b2565b60208701519095506001600160401b0380821115620005d157600080fd5b620005df89838a01620004de565b95506040880151915080821115620005f657600080fd5b506200060588828901620004de565b93505060608601516200061881620004b2565b80925050608086015190509295509295909350565b600181811c908216806200064257607f821691505b6020821081036200066357634e487b7160e01b600052602260045260246000fd5b50919050565b601f821115620006b757600081815260208120601f850160051c81016020861015620006925750805b601f850160051c820191505b81811015620006b3578281556001016200069e565b5050505b505050565b81516001600160401b03811115620006d857620006d8620004c8565b620006f081620006e984546200062d565b8462000669565b602080601f8311600181146200072857600084156200070f5750858301515b600019600386901b1c1916600185901b178555620006b3565b600085815260208120601f198616915b82811015620007595788860151825594840194600190910190840162000738565b5085821015620007785787850151600019600388901b60f8161c191681555b5050505050600190811b01905550565b600082620007a657634e487b7160e01b600052601260045260246000fd5b500490565b600060208284031215620007be57600080fd5b5051919050565b600060208284031215620007d857600080fd5b81518015158114620007e957600080fd5b9392505050565b60805160a05160c05160e0516101005161012051610140516101605161266062000880600039600081816104c00152818161180b0152611b420152600081816103dc0152818161051d01528181610c6801528181611695015261182c01526000611470015260006114bf0152600061149a015260006113f30152600061141d0152600061144701526126606000f3fe608060405234801561001057600080fd5b50600436106102325760003560e01c806394bf804d11610130578063c63d75b6116100b8578063da76ed931161007c578063da76ed931461049e578063dd62ed3e146104a8578063edaafe20146104bb578063ef8b30f7146104e2578063f4595b89146104f557600080fd5b8063c63d75b614610338578063c6e6f59214610452578063ce96cb7714610465578063d505accf14610478578063d905777e1461048b57600080fd5b8063a9059cbb116100ff578063a9059cbb146103fe578063b3d7f6b914610411578063b460af9414610424578063b4d0c36b14610437578063ba0876521461043f57600080fd5b806394bf804d146103a957806395d89b41146103bc578063a457c2d7146103c4578063a8c62e76146103d757600080fd5b80633644e515116101be5780636e553f65116101825780636e553f651461035e57806370a08231146103715780637ecebe0014610384578063853828b61461039757806387269729146103a157600080fd5b80633644e515146102f857806338d52e0f146103005780633950935114610325578063402d267d146103385780634cdad5061461034b57600080fd5b8063095ea7b311610205578063095ea7b31461029d5780630a28a477146102b057806318160ddd146102c357806323b872dd146102cb578063313ce567146102de57600080fd5b806301e1d1141461023757806301ffc9a71461025257806306fdde031461027557806307a2d13a1461028a575b600080fd5b61023f610519565b6040519081526020015b60405180910390f35b6102656102603660046121a5565b610618565b6040519015158152602001610249565b61027d610643565b60405161024991906121f3565b61023f610298366004612226565b6106d5565b6102656102ab36600461225b565b61070a565b61023f6102be366004612226565b610722565b60025461023f565b6102656102d9366004612285565b61074a565b6102e661076e565b60405160ff9091168152602001610249565b61023f6107dc565b6008546001600160a01b03165b6040516001600160a01b039091168152602001610249565b61026561033336600461225b565b6107e6565b61023f6103463660046122c1565b610808565b61023f610359366004612226565b610817565b61023f61036c3660046122dc565b610822565b61023f61037f3660046122c1565b610922565b61023f6103923660046122c1565b61093d565b61039f61095b565b005b61023f610971565b61023f6103b73660046122dc565b6109ca565b61027d610a7a565b6102656103d236600461225b565b610a89565b61030d7f000000000000000000000000000000000000000000000000000000000000000081565b61026561040c36600461225b565b610b04565b61023f61041f366004612226565b610b12565b61023f610432366004612308565b610b39565b61023f610c64565b61023f61044d366004612308565b610ce8565b61023f610460366004612226565b610e47565b61023f6104733660046122c1565b610e6f565b61039f610486366004612353565b610e7d565b61023f6104993660046122c1565b610fe1565b61023f620186a081565b61023f6104b63660046123c0565b610fec565b61023f7f000000000000000000000000000000000000000000000000000000000000000081565b61023f6104f0366004612226565b611017565b61027d604051806040016040528060058152602001640312e302e360dc1b81525081565b60007f00000000000000000000000000000000000000000000000000000000000000006001600160a01b03166301e1d1146040518163ffffffff1660e01b8152600401602060405180830381865afa158015610579573d6000803e3d6000fd5b505050506040513d601f19601f8201168201806040525081019061059d91906123ea565b6008546040516370a0823160e01b81523060048201526001600160a01b03909116906370a0823190602401602060405180830381865afa1580156105e5573d6000803e3d6000fd5b505050506040513d601f19601f8201168201806040525081019061060991906123ea565b6106139190612419565b905090565b60006001600160e01b03198216634e3f56ad60e01b148061063d575061063d82611022565b92915050565b6060600380546106529061242c565b80601f016020809104026020016040519081016040528092919081815260200182805461067e9061242c565b80156106cb5780601f106106a0576101008083540402835291602001916106cb565b820191906000526020600020905b8154815290600101906020018083116106ae57829003601f168201915b5050505050905090565b6000806106e160025490565b90508015610701576106fc6106f4610519565b849083611057565b610703565b825b9392505050565b600033610718818585611076565b5060019392505050565b60008061072e60025490565b90508015610701576106fc81610742610519565b85919061119a565b6000336107588582856111c8565b610763858585611242565b506001949350505050565b6008546040805163313ce56760e01b815290516000926001600160a01b03169163313ce5679160048083019260209291908290030181865afa1580156107b8573d6000803e3d6000fd5b505050506040513d601f19601f820116820180604052508101906106139190612460565b60006106136113e6565b6000336107188185856107f98383610fec565b6108039190612419565b611076565b600061063d600160001961247d565b600061063d826106d5565b600061082c61150d565b61083582610808565b83111561085d5760405162461bcd60e51b815260040161085490612490565b60405180910390fd5b61086683611017565b9050806000036108a65760405162461bcd60e51b815260206004820152600b60248201526a5a45524f5f53484152455360a81b6044820152606401610854565b6008546108be906001600160a01b0316333086611566565b6108c882826115d1565b60408051848152602081018390526001600160a01b0384169133917fdcbc1c05240f31ff3ad067ef1ee35ce4997762752e3a095284754544f4c709d7910160405180910390a36109188382611690565b61063d6001600755565b6001600160a01b031660009081526020819052604090205490565b6001600160a01b03811660009081526005602052604081205461063d565b61096e61096733610922565b3333610ce8565b50565b60008061097c61076e565b61098a9060ff16600a612591565b9050600061099760025490565b905080156109c157806109a8610519565b6109b2908461259d565b6109bc91906125b4565b6109c3565b815b9250505090565b60006109d461150d565b6109dd82610808565b8311156109fc5760405162461bcd60e51b815260040161085490612490565b610a0583610b12565b600854909150610a20906001600160a01b0316333084611566565b610a2a82846115d1565b60408051828152602081018590526001600160a01b0384169133917fdcbc1c05240f31ff3ad067ef1ee35ce4997762752e3a095284754544f4c709d7910160405180910390a36109188184611690565b6060600480546106529061242c565b60003381610a978286610fec565b905083811015610af75760405162461bcd60e51b815260206004820152602560248201527f45524332303a2064656372656173656420616c6c6f77616e63652062656c6f77604482015264207a65726f60d81b6064820152608401610854565b6107638286868403611076565b600033610718818585611242565b600080610b1e60025490565b90508015610701576106fc610b31610519565b84908361119a565b6000610b4361150d565b610b4c82610e6f565b841115610b6b5760405162461bcd60e51b815260040161085490612490565b610b7484610722565b9050336001600160a01b03831614610be4576001600160a01b03821660009081526001602090815260408083203384529091529020546000198114610be257610bbd828261247d565b6001600160a01b03841660009081526001602090815260408083203384529091529020555b505b610bee8482611784565b610bf88282611856565b60408051858152602081018390526001600160a01b03808516929086169133917ffbde797d201c681b91056529119e0b02407c7bb96a4a2c75c01fc9667232c8db910160405180910390a4600854610c5a906001600160a01b03168486611988565b6107036001600755565b60007f00000000000000000000000000000000000000000000000000000000000000006001600160a01b03166301e1d1146040518163ffffffff1660e01b8152600401602060405180830381865afa158015610cc4573d6000803e3d6000fd5b505050506040513d601f19601f8201168201806040525081019061061391906123ea565b6000610cf261150d565b610cfb82610fe1565b841115610d1a5760405162461bcd60e51b815260040161085490612490565b336001600160a01b03831614610d88576001600160a01b03821660009081526001602090815260408083203384529091529020546000198114610d8657610d61858261247d565b6001600160a01b03841660009081526001602090815260408083203384529091529020555b505b610d9184610817565b905080600003610dd15760405162461bcd60e51b815260206004820152600b60248201526a5a45524f5f41535345545360a81b6044820152606401610854565b610ddb8185611784565b610de58285611856565b60408051828152602081018690526001600160a01b03808516929086169133917ffbde797d201c681b91056529119e0b02407c7bb96a4a2c75c01fc9667232c8db910160405180910390a4600854610c5a906001600160a01b03168483611988565b600080610e5360025490565b90508015610701576106fc81610e67610519565b859190611057565b600061063d61029883610922565b83421115610ecd5760405162461bcd60e51b815260206004820152601d60248201527f45524332305065726d69743a206578706972656420646561646c696e650000006044820152606401610854565b60007f6e71edae12b1b97f4d1f60370fef10105fa2faae0126114a169c64845d6126c9888888610efc8c6119b8565b6040805160208101969096526001600160a01b0394851690860152929091166060840152608083015260a082015260c0810186905260e0016040516020818303038152906040528051906020012090506000610f57826119e0565b90506000610f6782878787611a2e565b9050896001600160a01b0316816001600160a01b031614610fca5760405162461bcd60e51b815260206004820152601e60248201527f45524332305065726d69743a20696e76616c6964207369676e617475726500006044820152606401610854565b610fd58a8a8a611076565b50505050505050505050565b600061063d82610922565b6001600160a01b03918216600090815260016020908152604080832093909416825291909152205490565b600061063d82610e47565b60006001600160e01b0319821663b7b79fa960e01b148061063d57506301ffc9a760e01b6001600160e01b031983161461063d565b82820281151584158583048514171661106f57600080fd5b0492915050565b6001600160a01b0383166110d85760405162461bcd60e51b8152602060048201526024808201527f45524332303a20617070726f76652066726f6d20746865207a65726f206164646044820152637265737360e01b6064820152608401610854565b6001600160a01b0382166111395760405162461bcd60e51b815260206004820152602260248201527f45524332303a20617070726f766520746f20746865207a65726f206164647265604482015261737360f01b6064820152608401610854565b6001600160a01b0383811660008181526001602090815260408083209487168084529482529182902085905590518481527f8c5be1e5ebec7d5bd14f71427d1e84f3dd0314c0f7b2291e5b200ac8c7c3b925910160405180910390a3505050565b8282028115158415858304851417166111b257600080fd5b6001826001830304018115150290509392505050565b60006111d48484610fec565b9050600019811461123c578181101561122f5760405162461bcd60e51b815260206004820152601d60248201527f45524332303a20696e73756666696369656e7420616c6c6f77616e63650000006044820152606401610854565b61123c8484848403611076565b50505050565b6001600160a01b0383166112a65760405162461bcd60e51b815260206004820152602560248201527f45524332303a207472616e736665722066726f6d20746865207a65726f206164604482015264647265737360d81b6064820152608401610854565b6001600160a01b0382166113085760405162461bcd60e51b815260206004820152602360248201527f45524332303a207472616e7366657220746f20746865207a65726f206164647260448201526265737360e81b6064820152608401610854565b6001600160a01b038316600090815260208190526040902054818110156113805760405162461bcd60e51b815260206004820152602660248201527f45524332303a207472616e7366657220616d6f756e7420657863656564732062604482015265616c616e636560d01b6064820152608401610854565b6001600160a01b03848116600081815260208181526040808320878703905593871680835291849020805487019055925185815290927fddf252ad1be2c89b69c2b068fc378daa952ba7f163c4a11628f55a4df523b3ef910160405180910390a361123c565b6000306001600160a01b037f00000000000000000000000000000000000000000000000000000000000000001614801561143f57507f000000000000000000000000000000000000000000000000000000000000000046145b1561146957507f000000000000000000000000000000000000000000000000000000000000000090565b50604080517f00000000000000000000000000000000000000000000000000000000000000006020808301919091527f0000000000000000000000000000000000000000000000000000000000000000828401527f000000000000000000000000000000000000000000000000000000000000000060608301524660808301523060a0808401919091528351808403909101815260c0909201909252805191012090565b60026007540361155f5760405162461bcd60e51b815260206004820152601f60248201527f5265656e7472616e637947756172643a207265656e7472616e742063616c6c006044820152606401610854565b6002600755565b6040516001600160a01b038085166024830152831660448201526064810182905261123c9085906323b872dd60e01b906084015b60408051601f198184030181529190526020810180516001600160e01b03166001600160e01b031990931692909217909152611a58565b6001600160a01b0382166116275760405162461bcd60e51b815260206004820152601f60248201527f45524332303a206d696e7420746f20746865207a65726f2061646472657373006044820152606401610854565b80600260008282546116399190612419565b90915550506001600160a01b038216600081815260208181526040808320805486019055518481527fddf252ad1be2c89b69c2b068fc378daa952ba7f163c4a11628f55a4df523b3ef910160405180910390a35050565b6008547f0000000000000000000000000000000000000000000000000000000000000000906001600160a01b031660006116ca8383611b2a565b9050801561177d576116e66001600160a01b0383168483611988565b826001600160a01b031663df8725366040518163ffffffff1660e01b8152600401600060405180830381600087803b15801561172157600080fd5b505af1158015611735573d6000803e3d6000fd5b5050604080516001600160a01b0387168152602081018590527fd90d253a9de34d2fdd5a75ae49ea17fcb43af32fc8ea08cc6d2341991dd3872e935001905060405180910390a15b5050505050565b6008546040516370a0823160e01b81523060048201526000916001600160a01b0316906370a0823190602401602060405180830381865afa1580156117cd573d6000803e3d6000fd5b505050506040513d601f19601f820116820180604052508101906117f191906123ea565b90508281101561185157611851838361180960025490565b7f00000000000000000000000000000000000000000000000000000000000000007f000000000000000000000000000000000000000000000000000000000000000086611c8f565b505050565b6001600160a01b0382166118b65760405162461bcd60e51b815260206004820152602160248201527f45524332303a206275726e2066726f6d20746865207a65726f206164647265736044820152607360f81b6064820152608401610854565b6001600160a01b0382166000908152602081905260409020548181101561192a5760405162461bcd60e51b815260206004820152602260248201527f45524332303a206275726e20616d6f756e7420657863656564732062616c616e604482015261636560f01b6064820152608401610854565b6001600160a01b0383166000818152602081815260408083208686039055600280548790039055518581529192917fddf252ad1be2c89b69c2b068fc378daa952ba7f163c4a11628f55a4df523b3ef910160405180910390a3505050565b6040516001600160a01b03831660248201526044810182905261185190849063a9059cbb60e01b9060640161159a565b6001600160a01b03811660009081526005602052604090208054600181018255905b50919050565b600061063d6119ed6113e6565b8360405161190160f01b6020820152602281018390526042810182905260009060620160405160208183030381529060405280519060200120905092915050565b6000806000611a3f87878787611e0f565b91509150611a4c81611ec9565b5090505b949350505050565b6000611aad826040518060400160405280602081526020017f5361666545524332303a206c6f772d6c6576656c2063616c6c206661696c6564815250856001600160a01b031661200e9092919063ffffffff16565b8051909150156118515780806020019051810190611acb91906125d6565b6118515760405162461bcd60e51b815260206004820152602a60248201527f5361666545524332303a204552433230206f7065726174696f6e20646964206e6044820152691bdd081cdd58d8d9595960b21b6064820152608401610854565b6040516370a0823160e01b81523060048201526000907f00000000000000000000000000000000000000000000000000000000000000009082906001600160a01b038516906370a0823190602401602060405180830381865afa158015611b95573d6000803e3d6000fd5b505050506040513d601f19601f82011682018060405250810190611bb991906123ea565b90506000856001600160a01b03166301e1d1146040518163ffffffff1660e01b8152600401602060405180830381865afa158015611bfb573d6000803e3d6000fd5b505050506040513d601f19601f82011682018060405250810190611c1f91906123ea565b90506000620186a0611c31858261247d565b611c3b8486612419565b611c45919061259d565b611c4f91906125b4565b9050808210611c6557600094505050505061063d565b6000611c71838361247d565b905083811115611c815783611c83565b805b9550505050505061063d565b838503611cee57816001600160a01b031663bfd131f16040518163ffffffff1660e01b8152600401600060405180830381600087803b158015611cd157600080fd5b505af1158015611ce5573d6000803e3d6000fd5b50505050611e07565b6000826001600160a01b03166301e1d1146040518163ffffffff1660e01b8152600401602060405180830381865afa158015611d2e573d6000803e3d6000fd5b505050506040513d601f19601f82011682018060405250810190611d5291906123ea565b90506000620186a08589611d668686612419565b611d70919061247d565b611d7a919061259d565b611d8491906125b4565b90506000611da684611d968b85612419565b611da0919061247d565b8461201d565b6040516319d1885d60e31b8152600481018290529091506001600160a01b0386169063ce8c42e890602401600060405180830381600087803b158015611deb57600080fd5b505af1158015611dff573d6000803e3d6000fd5b505050505050505b505050505050565b6000806fa2a8918ca85bafe22016d0b997e4df60600160ff1b03831115611e3c5750600090506003611ec0565b6040805160008082526020820180845289905260ff881692820192909252606081018690526080810185905260019060a0016020604051602081039080840390855afa158015611e90573d6000803e3d6000fd5b5050604051601f1901519150506001600160a01b038116611eb957600060019250925050611ec0565b9150600090505b94509492505050565b6000816004811115611edd57611edd6125f8565b03611ee55750565b6001816004811115611ef957611ef96125f8565b03611f415760405162461bcd60e51b815260206004820152601860248201527745434453413a20696e76616c6964207369676e617475726560401b6044820152606401610854565b6002816004811115611f5557611f556125f8565b03611fa25760405162461bcd60e51b815260206004820152601f60248201527f45434453413a20696e76616c6964207369676e6174757265206c656e677468006044820152606401610854565b6003816004811115611fb657611fb66125f8565b0361096e5760405162461bcd60e51b815260206004820152602260248201527f45434453413a20696e76616c6964207369676e6174757265202773272076616c604482015261756560f01b6064820152608401610854565b6060611a50848460008561202c565b60008183106107015781610703565b60608247101561208d5760405162461bcd60e51b815260206004820152602660248201527f416464726573733a20696e73756666696369656e742062616c616e636520666f6044820152651c8818d85b1b60d21b6064820152608401610854565b600080866001600160a01b031685876040516120a9919061260e565b60006040518083038185875af1925050503d80600081146120e6576040519150601f19603f3d011682016040523d82523d6000602084013e6120eb565b606091505b50915091506120fc87838387612107565b979650505050505050565b6060831561217657825160000361216f576001600160a01b0385163b61216f5760405162461bcd60e51b815260206004820152601d60248201527f416464726573733a2063616c6c20746f206e6f6e2d636f6e74726163740000006044820152606401610854565b5081611a50565b611a50838381511561218b5781518083602001fd5b8060405162461bcd60e51b815260040161085491906121f3565b6000602082840312156121b757600080fd5b81356001600160e01b03198116811461070357600080fd5b60005b838110156121ea5781810151838201526020016121d2565b50506000910152565b60208152600082518060208401526122128160408501602087016121cf565b601f01601f19169190910160400192915050565b60006020828403121561223857600080fd5b5035919050565b80356001600160a01b038116811461225657600080fd5b919050565b6000806040838503121561226e57600080fd5b6122778361223f565b946020939093013593505050565b60008060006060848603121561229a57600080fd5b6122a38461223f565b92506122b16020850161223f565b9150604084013590509250925092565b6000602082840312156122d357600080fd5b6107038261223f565b600080604083850312156122ef57600080fd5b823591506122ff6020840161223f565b90509250929050565b60008060006060848603121561231d57600080fd5b8335925061232d6020850161223f565b915061233b6040850161223f565b90509250925092565b60ff8116811461096e57600080fd5b600080600080600080600060e0888a03121561236e57600080fd5b6123778861223f565b96506123856020890161223f565b9550604088013594506060880135935060808801356123a381612344565b9699959850939692959460a0840135945060c09093013592915050565b600080604083850312156123d357600080fd5b6123dc8361223f565b91506122ff6020840161223f565b6000602082840312156123fc57600080fd5b5051919050565b634e487b7160e01b600052601160045260246000fd5b8082018082111561063d5761063d612403565b600181811c9082168061244057607f821691505b6020821081036119da57634e487b7160e01b600052602260045260246000fd5b60006020828403121561247257600080fd5b815161070381612344565b8181038181111561063d5761063d612403565b60208082526003908201526209a82b60eb1b604082015260600190565b600181815b808511156124e85781600019048211156124ce576124ce612403565b808516156124db57918102915b93841c93908002906124b2565b509250929050565b6000826124ff5750600161063d565b8161250c5750600061063d565b8160018114612522576002811461252c57612548565b600191505061063d565b60ff84111561253d5761253d612403565b50506001821b61063d565b5060208310610133831016604e8410600b841016171561256b575081810a61063d565b61257583836124ad565b806000190482111561258957612589612403565b029392505050565b600061070383836124f0565b808202811582820484141761063d5761063d612403565b6000826125d157634e487b7160e01b600052601260045260246000fd5b500490565b6000602082840312156125e857600080fd5b8151801515811461070357600080fd5b634e487b7160e01b600052602160045260246000fd5b600082516126208184602087016121cf565b919091019291505056fea26469706673582212203e22e31ab7521c65abcdeea4ce2648e35816adac2f81ef4f7d613de6ef1affd164736f6c63430008110033",
  "devdoc": {
    "kind": "dev",
    "methods": {
      "DOMAIN_SEPARATOR()": {
        "details": "See {IERC20Permit-DOMAIN_SEPARATOR}."
      },
      "allowance(address,address)": {
        "details": "See {IERC20-allowance}."
      },
      "approve(address,uint256)": {
        "details": "See {IERC20-approve}. NOTE: If `amount` is the maximum `uint256`, the allowance is not updated on `transferFrom`. This is semantically equivalent to an infinite approval. Requirements: - `spender` cannot be the zero address."
      },
      "asset()": {
        "details": "Returns the address of the underlying token used for the Vault for accounting, depositing, and withdrawing. - MUST be an ERC-20 token contract. - MUST NOT revert."
      },
      "balanceOf(address)": {
        "details": "See {IERC20-balanceOf}."
      },
      "convertToAssets(uint256)": {
        "details": "Returns the amount of assets that the Vault would exchange for the amount of shares provided, in an ideal scenario where all the conditions are met. - MUST NOT be inclusive of any fees that are charged against assets in the Vault. - MUST NOT show any variations depending on the caller. - MUST NOT reflect slippage or other on-chain conditions, when performing the actual exchange. - MUST NOT revert. NOTE: This calculation MAY NOT reflect the per-user price-per-share, and instead should reflect the average-users price-per-share, meaning what the average user should expect to see when exchanging to and from."
      },
      "convertToShares(uint256)": {
        "details": "Returns the amount of shares that the Vault would exchange for the amount of assets provided, in an ideal scenario where all the conditions are met. - MUST NOT be inclusive of any fees that are charged against assets in the Vault. - MUST NOT show any variations depending on the caller. - MUST NOT reflect slippage or other on-chain conditions, when performing the actual exchange. - MUST NOT revert. NOTE: This calculation MAY NOT reflect the per-user price-per-share, and instead should reflect the average-users price-per-share, meaning what the average user should expect to see when exchanging to and from."
      },
      "decreaseAllowance(address,uint256)": {
        "details": "Atomically decreases the allowance granted to `spender` by the caller. This is an alternative to {approve} that can be used as a mitigation for problems described in {IERC20-approve}. Emits an {Approval} event indicating the updated allowance. Requirements: - `spender` cannot be the zero address. - `spender` must have allowance for the caller of at least `subtractedValue`."
      },
      "deposit(uint256,address)": {
        "details": "Mints vault shares to receiver by depositing exactly amount of assets."
      },
      "increaseAllowance(address,uint256)": {
        "details": "Atomically increases the allowance granted to `spender` by the caller. This is an alternative to {approve} that can be used as a mitigation for problems described in {IERC20-approve}. Emits an {Approval} event indicating the updated allowance. Requirements: - `spender` cannot be the zero address."
      },
      "maxRedeem(address)": {
        "details": "Returns the maximum amount of Vault shares that can be redeemed from the owner balance in the Vault, through a redeem call. - MUST return a limited value if owner is subject to some withdrawal limit or timelock. - MUST return balanceOf(owner) if owner is not subject to any withdrawal limit or timelock. - MUST NOT revert."
      },
      "maxWithdraw(address)": {
        "details": "Returns the maximum amount of the underlying asset that can be withdrawn from the owner balance in the Vault, through a withdraw call. - MUST return a limited value if owner is subject to some withdrawal limit or timelock. - MUST NOT revert."
      },
      "mint(uint256,address)": {
        "details": "Mints exactly shares Vault shares to receiver by depositing amount of underlying tokens. - MUST emit the Deposit event. - MAY support an additional flow in which the underlying tokens are owned by the Vault contract before the mint   execution, and are accounted for during mint. - MUST revert if all of shares cannot be minted (due to deposit limit being reached, slippage, the user not   approving enough underlying tokens to the Vault contract, etc). NOTE: most implementations will require pre-approval of the Vault with the Vaults underlying asset token."
      },
      "name()": {
        "details": "Returns the name of the token."
      },
      "nonces(address)": {
        "details": "See {IERC20Permit-nonces}."
      },
      "permit(address,address,uint256,uint256,uint8,bytes32,bytes32)": {
        "details": "See {IERC20Permit-permit}."
      },
      "previewDeposit(uint256)": {
        "details": "Allows an on-chain or off-chain user to simulate the effects of their deposit at the current block, given current on-chain conditions. - MUST return as close to and no more than the exact amount of Vault shares that would be minted in a deposit   call in the same transaction. I.e. deposit should return the same or more shares as previewDeposit if called   in the same transaction. - MUST NOT account for deposit limits like those returned from maxDeposit and should always act as though the   deposit would be accepted, regardless if the user has enough tokens approved, etc. - MUST be inclusive of deposit fees. Integrators should be aware of the existence of deposit fees. - MUST NOT revert. NOTE: any unfavorable discrepancy between convertToShares and previewDeposit SHOULD be considered slippage in share price or some other type of condition, meaning the depositor will lose assets by depositing."
      },
      "previewMint(uint256)": {
        "details": "Allows an on-chain or off-chain user to simulate the effects of their mint at the current block, given current on-chain conditions. - MUST return as close to and no fewer than the exact amount of assets that would be deposited in a mint call   in the same transaction. I.e. mint should return the same or fewer assets as previewMint if called in the   same transaction. - MUST NOT account for mint limits like those returned from maxMint and should always act as though the mint   would be accepted, regardless if the user has enough tokens approved, etc. - MUST be inclusive of deposit fees. Integrators should be aware of the existence of deposit fees. - MUST NOT revert. NOTE: any unfavorable discrepancy between convertToAssets and previewMint SHOULD be considered slippage in share price or some other type of condition, meaning the depositor will lose assets by minting."
      },
      "previewRedeem(uint256)": {
        "details": "Allows an on-chain or off-chain user to simulate the effects of their redeemption at the current block, given current on-chain conditions. - MUST return as close to and no more than the exact amount of assets that would be withdrawn in a redeem call   in the same transaction. I.e. redeem should return the same or more assets as previewRedeem if called in the   same transaction. - MUST NOT account for redemption limits like those returned from maxRedeem and should always act as though the   redemption would be accepted, regardless if the user has enough shares, etc. - MUST be inclusive of withdrawal fees. Integrators should be aware of the existence of withdrawal fees. - MUST NOT revert. NOTE: any unfavorable discrepancy between convertToAssets and previewRedeem SHOULD be considered slippage in share price or some other type of condition, meaning the depositor will lose assets by redeeming."
      },
      "previewWithdraw(uint256)": {
        "details": "Allows an on-chain or off-chain user to simulate the effects of their withdrawal at the current block, given current on-chain conditions. - MUST return as close to and no fewer than the exact amount of Vault shares that would be burned in a withdraw   call in the same transaction. I.e. withdraw should return the same or fewer shares as previewWithdraw if   called   in the same transaction. - MUST NOT account for withdrawal limits like those returned from maxWithdraw and should always act as though   the withdrawal would be accepted, regardless if the user has enough shares, etc. - MUST be inclusive of withdrawal fees. Integrators should be aware of the existence of withdrawal fees. - MUST NOT revert. NOTE: any unfavorable discrepancy between convertToShares and previewWithdraw SHOULD be considered slippage in share price or some other type of condition, meaning the depositor will lose assets by depositing."
      },
      "redeem(uint256,address,address)": {
        "details": "Redeems shares from owner and sends assets to receiver."
      },
      "sharePrice()": {
        "details": "Price of 1 full share"
      },
      "strategyAssets()": {
        "details": "Amount of assets under control of strategy."
      },
      "supportsInterface(bytes4)": {
        "details": "See {IERC165-supportsInterface}."
      },
      "symbol()": {
        "details": "Returns the symbol of the token, usually a shorter version of the name."
      },
      "totalAssets()": {
        "details": "Total amount of the underlying asset that is managed by Vault"
      },
      "totalSupply()": {
        "details": "See {IERC20-totalSupply}."
      },
      "transfer(address,uint256)": {
        "details": "See {IERC20-transfer}. Requirements: - `to` cannot be the zero address. - the caller must have a balance of at least `amount`."
      },
      "transferFrom(address,address,uint256)": {
        "details": "See {IERC20-transferFrom}. Emits an {Approval} event indicating the updated allowance. This is not required by the EIP. See the note at the beginning of {ERC20}. NOTE: Does not update the allowance if the current allowance is the maximum `uint256`. Requirements: - `from` and `to` cannot be the zero address. - `from` must have a balance of at least `amount`. - the caller must have allowance for ``from``'s tokens of at least `amount`."
      },
      "withdraw(uint256,address,address)": {
        "details": "Burns shares from owner and sends exactly assets of underlying tokens to receiver. - MUST emit the Withdraw event. - MAY support an additional flow in which the underlying tokens are owned by the Vault contract before the   withdraw execution, and are accounted for during withdraw. - MUST revert if all of assets cannot be withdrawn (due to withdrawal limit being reached, slippage, the owner   not having enough shares, etc). Note that some implementations will require pre-requesting to the Vault before a withdrawal may be performed. Those methods should be performed separately."
      },
      "withdrawAll()": {
        "details": "Withdraw all available shares for tx sender.      The revert is expected if the balance is higher than `maxRedeem`      It suppose to be used only on UI - for on-chain interactions withdraw concrete amount with properly checks."
      }
    },
    "stateVariables": {
      "BUFFER_DENOMINATOR": {
        "details": "Denominator for buffer calculation. 100% of the buffer amount."
      },
      "VAULT_VERSION": {
        "details": "Version of this contract. Adjust manually on each code modification."
      },
      "buffer": {
        "details": "Percent of assets that will always stay in this vault."
      },
      "strategy": {
        "details": "Connected strategy. Can not be changed."
      }
    },
    "version": 1
  },
  "userdoc": {
    "kind": "user",
    "methods": {},
    "version": 1
  },
  "storageLayout": {
    "storage": [
      {
        "astId": 5665,
        "contract": "@tetu_io/tetu-contracts-v2/contracts/vault/ERC4626Strict.sol:ERC4626Strict",
        "label": "_balances",
        "offset": 0,
        "slot": "0",
        "type": "t_mapping(t_address,t_uint256)"
      },
      {
        "astId": 5671,
        "contract": "@tetu_io/tetu-contracts-v2/contracts/vault/ERC4626Strict.sol:ERC4626Strict",
        "label": "_allowances",
        "offset": 0,
        "slot": "1",
        "type": "t_mapping(t_address,t_mapping(t_address,t_uint256))"
      },
      {
        "astId": 5673,
        "contract": "@tetu_io/tetu-contracts-v2/contracts/vault/ERC4626Strict.sol:ERC4626Strict",
        "label": "_totalSupply",
        "offset": 0,
        "slot": "2",
        "type": "t_uint256"
      },
      {
        "astId": 5675,
        "contract": "@tetu_io/tetu-contracts-v2/contracts/vault/ERC4626Strict.sol:ERC4626Strict",
        "label": "_name",
        "offset": 0,
        "slot": "3",
        "type": "t_string_storage"
      },
      {
        "astId": 5677,
        "contract": "@tetu_io/tetu-contracts-v2/contracts/vault/ERC4626Strict.sol:ERC4626Strict",
        "label": "_symbol",
        "offset": 0,
        "slot": "4",
        "type": "t_string_storage"
      },
      {
        "astId": 6259,
        "contract": "@tetu_io/tetu-contracts-v2/contracts/vault/ERC4626Strict.sol:ERC4626Strict",
        "label": "_nonces",
        "offset": 0,
        "slot": "5",
        "type": "t_mapping(t_address,t_struct(Counter)4457_storage)"
      },
      {
        "astId": 6267,
        "contract": "@tetu_io/tetu-contracts-v2/contracts/vault/ERC4626Strict.sol:ERC4626Strict",
        "label": "_PERMIT_TYPEHASH_DEPRECATED_SLOT",
        "offset": 0,
        "slot": "6",
        "type": "t_bytes32"
      },
      {
        "astId": 10044,
        "contract": "@tetu_io/tetu-contracts-v2/contracts/vault/ERC4626Strict.sol:ERC4626Strict",
        "label": "_status",
        "offset": 0,
        "slot": "7",
        "type": "t_uint256"
      },
      {
        "astId": 14128,
        "contract": "@tetu_io/tetu-contracts-v2/contracts/vault/ERC4626Strict.sol:ERC4626Strict",
        "label": "_asset",
        "offset": 0,
        "slot": "8",
        "type": "t_contract(IERC20)2451"
      }
    ],
    "types": {
      "t_address": {
        "encoding": "inplace",
        "label": "address",
        "numberOfBytes": "20"
      },
      "t_bytes32": {
        "encoding": "inplace",
        "label": "bytes32",
        "numberOfBytes": "32"
      },
      "t_contract(IERC20)2451": {
        "encoding": "inplace",
        "label": "contract IERC20",
        "numberOfBytes": "20"
      },
      "t_mapping(t_address,t_mapping(t_address,t_uint256))": {
        "encoding": "mapping",
        "key": "t_address",
        "label": "mapping(address => mapping(address => uint256))",
        "numberOfBytes": "32",
        "value": "t_mapping(t_address,t_uint256)"
      },
      "t_mapping(t_address,t_struct(Counter)4457_storage)": {
        "encoding": "mapping",
        "key": "t_address",
        "label": "mapping(address => struct Counters.Counter)",
        "numberOfBytes": "32",
        "value": "t_struct(Counter)4457_storage"
      },
      "t_mapping(t_address,t_uint256)": {
        "encoding": "mapping",
        "key": "t_address",
        "label": "mapping(address => uint256)",
        "numberOfBytes": "32",
        "value": "t_uint256"
      },
      "t_string_storage": {
        "encoding": "bytes",
        "label": "string",
        "numberOfBytes": "32"
      },
      "t_struct(Counter)4457_storage": {
        "encoding": "inplace",
        "label": "struct Counters.Counter",
        "members": [
          {
            "astId": 4456,
            "contract": "@tetu_io/tetu-contracts-v2/contracts/vault/ERC4626Strict.sol:ERC4626Strict",
            "label": "_value",
            "offset": 0,
            "slot": "0",
            "type": "t_uint256"
          }
        ],
        "numberOfBytes": "32"
      },
      "t_uint256": {
        "encoding": "inplace",
        "label": "uint256",
        "numberOfBytes": "32"
      }
    }
  }
}