{
  "address": "0xE232647153DC596843e81542f666CfA862Cdb620",
  "abi": [
    {
      "inputs": [
        {
          "internalType": "address",
          "name": "_pool",
          "type": "address"
        },
        {
          "internalType": "address",
          "name": "_liquidator",
          "type": "address"
        },
        {
          "internalType": "address",
          "name": "_xTetuAddress",
          "type": "address"
        }
      ],
      "stateMutability": "nonpayable",
      "type": "constructor"
    },
    {
      "anonymous": false,
      "inputs": [
        {
          "indexed": false,
          "internalType": "address",
          "name": "token",
          "type": "address"
        },
        {
          "indexed": false,
          "internalType": "uint256",
          "name": "amount",
          "type": "uint256"
        }
      ],
      "name": "Claimed",
      "type": "event"
    },
    {
      "anonymous": false,
      "inputs": [
        {
          "indexed": false,
          "internalType": "uint256",
          "name": "oldValue",
          "type": "uint256"
        },
        {
          "indexed": false,
          "internalType": "uint256",
          "name": "newValue",
          "type": "uint256"
        }
      ],
      "name": "CompoundRatioChanged",
      "type": "event"
    },
    {
      "anonymous": false,
      "inputs": [
        {
          "indexed": false,
          "internalType": "uint256",
          "name": "amount",
          "type": "uint256"
        }
      ],
      "name": "DepositToPool",
      "type": "event"
    },
    {
      "anonymous": false,
      "inputs": [
        {
          "indexed": false,
          "internalType": "address",
          "name": "sender",
          "type": "address"
        },
        {
          "indexed": false,
          "internalType": "uint256",
          "name": "amount",
          "type": "uint256"
        }
      ],
      "name": "EmergencyExit",
      "type": "event"
    },
    {
      "anonymous": false,
      "inputs": [
        {
          "indexed": false,
          "internalType": "uint256",
          "name": "balance",
          "type": "uint256"
        }
      ],
      "name": "InvestAll",
      "type": "event"
    },
    {
      "anonymous": false,
      "inputs": [
        {
          "indexed": false,
          "internalType": "address",
          "name": "sender",
          "type": "address"
        }
      ],
      "name": "ManualClaim",
      "type": "event"
    },
    {
      "anonymous": false,
      "inputs": [
        {
          "indexed": false,
          "internalType": "uint256",
          "name": "amount",
          "type": "uint256"
        }
      ],
      "name": "WithdrawAllFromPool",
      "type": "event"
    },
    {
      "anonymous": false,
      "inputs": [
        {
          "indexed": false,
          "internalType": "uint256",
          "name": "amount",
          "type": "uint256"
        }
      ],
      "name": "WithdrawAllToVault",
      "type": "event"
    },
    {
      "anonymous": false,
      "inputs": [
        {
          "indexed": false,
          "internalType": "uint256",
          "name": "amount",
          "type": "uint256"
        }
      ],
      "name": "WithdrawFromPool",
      "type": "event"
    },
    {
      "anonymous": false,
      "inputs": [
        {
          "indexed": false,
          "internalType": "uint256",
          "name": "amount",
          "type": "uint256"
        },
        {
          "indexed": false,
          "internalType": "uint256",
          "name": "sent",
          "type": "uint256"
        },
        {
          "indexed": false,
          "internalType": "uint256",
          "name": "balance",
          "type": "uint256"
        }
      ],
      "name": "WithdrawToVault",
      "type": "event"
    },
    {
      "inputs": [],
      "name": "NAME",
      "outputs": [
        {
          "internalType": "string",
          "name": "",
          "type": "string"
        }
      ],
      "stateMutability": "view",
      "type": "function"
    },
    {
      "inputs": [],
      "name": "PLATFORM",
      "outputs": [
        {
          "internalType": "string",
          "name": "",
          "type": "string"
        }
      ],
      "stateMutability": "view",
      "type": "function"
    },
    {
      "inputs": [],
      "name": "STRATEGY_VERSION",
      "outputs": [
        {
          "internalType": "string",
          "name": "",
          "type": "string"
        }
      ],
      "stateMutability": "view",
      "type": "function"
    },
    {
      "inputs": [],
      "name": "STRICT_STRATEGY_BASE_VERSION",
      "outputs": [
        {
          "internalType": "string",
          "name": "",
          "type": "string"
        }
      ],
      "stateMutability": "view",
      "type": "function"
    },
    {
      "inputs": [],
      "name": "asset",
      "outputs": [
        {
          "internalType": "address",
          "name": "",
          "type": "address"
        }
      ],
      "stateMutability": "view",
      "type": "function"
    },
    {
      "inputs": [],
      "name": "compoundRatio",
      "outputs": [
        {
          "internalType": "uint256",
          "name": "",
          "type": "uint256"
        }
      ],
      "stateMutability": "view",
      "type": "function"
    },
    {
      "inputs": [],
      "name": "doHardWork",
      "outputs": [
        {
          "internalType": "uint256",
          "name": "earned",
          "type": "uint256"
        },
        {
          "internalType": "uint256",
          "name": "lost",
          "type": "uint256"
        }
      ],
      "stateMutability": "nonpayable",
      "type": "function"
    },
    {
      "inputs": [],
      "name": "getRate",
      "outputs": [
        {
          "internalType": "uint256",
          "name": "",
          "type": "uint256"
        }
      ],
      "stateMutability": "view",
      "type": "function"
    },
    {
      "inputs": [
        {
          "internalType": "address",
          "name": "_vault",
          "type": "address"
        }
      ],
      "name": "init",
      "outputs": [],
      "stateMutability": "nonpayable",
      "type": "function"
    },
    {
      "inputs": [],
      "name": "investAll",
      "outputs": [],
      "stateMutability": "nonpayable",
      "type": "function"
    },
    {
      "inputs": [],
      "name": "investedAssets",
      "outputs": [
        {
          "internalType": "uint256",
          "name": "",
          "type": "uint256"
        }
      ],
      "stateMutability": "view",
      "type": "function"
    },
    {
      "inputs": [],
      "name": "isReadyToHardWork",
      "outputs": [
        {
          "internalType": "bool",
          "name": "",
          "type": "bool"
        }
      ],
      "stateMutability": "view",
      "type": "function"
    },
    {
      "inputs": [],
      "name": "liquidator",
      "outputs": [
        {
          "internalType": "contract ITetuLiquidator",
          "name": "",
          "type": "address"
        }
      ],
      "stateMutability": "view",
      "type": "function"
    },
    {
      "inputs": [],
      "name": "pool",
      "outputs": [
        {
          "internalType": "contract ISmartVault",
          "name": "",
          "type": "address"
        }
      ],
      "stateMutability": "view",
      "type": "function"
    },
    {
      "inputs": [
        {
          "internalType": "bytes4",
          "name": "interfaceId",
          "type": "bytes4"
        }
      ],
      "name": "supportsInterface",
      "outputs": [
        {
          "internalType": "bool",
          "name": "",
          "type": "bool"
        }
      ],
      "stateMutability": "view",
      "type": "function"
    },
    {
      "inputs": [],
      "name": "totalAssets",
      "outputs": [
        {
          "internalType": "uint256",
          "name": "",
          "type": "uint256"
        }
      ],
      "stateMutability": "view",
      "type": "function"
    },
    {
      "inputs": [],
      "name": "vault",
      "outputs": [
        {
          "internalType": "address",
          "name": "",
          "type": "address"
        }
      ],
      "stateMutability": "view",
      "type": "function"
    },
    {
      "inputs": [],
      "name": "withdrawAllToVault",
      "outputs": [],
      "stateMutability": "nonpayable",
      "type": "function"
    },
    {
      "inputs": [
        {
          "internalType": "uint256",
          "name": "amount",
          "type": "uint256"
        }
      ],
      "name": "withdrawToVault",
      "outputs": [],
      "stateMutability": "nonpayable",
      "type": "function"
    },
    {
      "inputs": [],
      "name": "xTetuAddress",
      "outputs": [
        {
          "internalType": "address",
          "name": "",
          "type": "address"
        }
      ],
      "stateMutability": "view",
      "type": "function"
    }
  ],
  "transactionHash": "0x7534d2d79988becb324bbe4dc8dd5434f1f0d32591ff83875c81278d57d7af60",
  "args": [
    "0xa0a88Eaf9b0c4f09dE183F5ba3ba4Bd967a92093",
    "0xC737eaB847Ae6A92028862fE38b828db41314772",
    "0x225084D30cc297F3b177d9f93f5C3Ab8fb6a1454"
  ],
  "numDeployments": 1,
  "solcInputHash": "2b2701d8c168e024218cf5150904697d",
  "bytecode": "0x60e06040523480156200001157600080fd5b5060405162001bb838038062001bb88339810160408190526200003491620000ee565b6001600160a01b038316158015906200005557506001600160a01b03821615155b80156200006a57506001600160a01b03811615155b620000a65760405162461bcd60e51b8152602060048201526008602482015267216164647265737360c01b604482015260640160405180910390fd5b6001600160a01b0392831660805290821660a0521660c0526003805460ff1916600117905562000138565b80516001600160a01b0381168114620000e957600080fd5b919050565b6000806000606084860312156200010457600080fd5b6200010f84620000d1565b92506200011f60208501620000d1565b91506200012f60408501620000d1565b90509250925092565b60805160a05160c0516119f5620001c36000396000818161021c01528181610e650152610ea70152600081816101d001528181610fb70152611015015260008181610174015281816104dd015281816105980152818161066f01528181610d4601528181610d8101528181610deb01528181610ee501528181611088015261114b01526119f56000f3fe608060405234801561001057600080fd5b506004361061012c5760003560e01c8063679aefce116100ad578063bfd131f111610071578063bfd131f1146102af578063ce8c42e8146102b7578063d295ea70146102ca578063df872536146102d3578063fbfa77cf146102db57600080fd5b8063679aefce1461026f5780637efc77fa1461027757806395af806d1461023e578063a3f4df7e1461029a578063ab9e3eee146102a257600080fd5b80634046ebae116100f45780634046ebae146101cb5780634ad0b684146101f25780634fa5d854146101fa5780635eb8106b146102175780636207a0cf1461023e57600080fd5b806301e1d1141461013157806301ffc9a71461014c57806316f0115b1461016f57806319ab453c146101a357806338d52e0f146101b8575b600080fd5b6101396102ee565b6040519081526020015b60405180910390f35b61015f61015a3660046115bc565b610378565b6040519015158152602001610143565b6101967f000000000000000000000000000000000000000000000000000000000000000081565b60405161014391906115e6565b6101b66101b136600461160f565b6103a3565b005b600054610196906001600160a01b031681565b6101967f000000000000000000000000000000000000000000000000000000000000000081565b6101396104c3565b610202610553565b60408051928352602083019190915201610143565b6101967f000000000000000000000000000000000000000000000000000000000000000081565b610262604051806040016040528060058152602001640312e302e360dc1b81525081565b6040516101439190611650565b610139610715565b610262604051806040016040528060048152602001635445545560e01b81525081565b610262610822565b60035461015f9060ff1681565b6101b661083e565b6101b66102c5366004611683565b610964565b61013960025481565b6101b6610b2a565b600154610196906001600160a01b031681565b60006102f86104c3565b6000546040516370a0823160e01b81526001600160a01b03909116906370a08231906103289030906004016115e6565b602060405180830381865afa158015610345573d6000803e3d6000fd5b505050506040513d601f19601f82011682018060405250810190610369919061169c565b61037391906116cb565b905090565b60006001600160e01b031982166306c88ec360e21b148061039d575061039d82610c35565b92915050565b60015460408051808201909152601781527614d08e88105b1c9958591e481a5b9a5d1a585b1a5e9959604a1b6020820152906001600160a01b0316156104055760405162461bcd60e51b81526004016103fc9190611650565b60405180910390fd5b50610430817f4e3f56ad6ba6deccf74921df43100aa937a5117d48d52b20927cbbf00af1b1a7610c6a565b806001600160a01b03166338d52e0f6040518163ffffffff1660e01b8152600401602060405180830381865afa15801561046e573d6000803e3d6000fd5b505050506040513d601f19601f8201168201806040525081019061049291906116ee565b600080546001600160a01b039283166001600160a01b03199182161790915560018054939092169216919091179055565b604051638cb1d67f60e01b81526000906001600160a01b037f00000000000000000000000000000000000000000000000000000000000000001690638cb1d67f906105129030906004016115e6565b602060405180830381865afa15801561052f573d6000803e3d6000fd5b505050506040513d601f19601f82011682018060405250810190610373919061169c565b600080548190819061056d906001600160a01b0316610cc4565b9050801561057e5761057e81610d34565b604051638cb1d67f60e01b81526000906001600160a01b037f00000000000000000000000000000000000000000000000000000000000000001690638cb1d67f906105cd9030906004016115e6565b602060405180830381865afa1580156105ea573d6000803e3d6000fd5b505050506040513d601f19601f8201168201806040525081019061060e919061169c565b9050610618610de9565b610620610e5e565b610628610ee1565b6000805461063e906001600160a01b0316610cc4565b9050801561064f5761064f81610d34565b604051638cb1d67f60e01b81526000955085945084906001600160a01b037f00000000000000000000000000000000000000000000000000000000000000001690638cb1d67f906106a49030906004016115e6565b602060405180830381865afa1580156106c1573d6000803e3d6000fd5b505050506040513d601f19601f820116820180604052508101906106e5919061169c565b905082811115610700576106f9838261170b565b955061070d565b61070a818461170b565b94505b505050509091565b600080546040805163313ce56760e01b8152905183926001600160a01b03169163313ce5679160048083019260209291908290030181865afa15801561075f573d6000803e3d6000fd5b505050506040513d601f19601f82011682018060405250810190610783919061171e565b61078e90600a611825565b6001546040516303d1689d60e11b81526004810183905291925082916001600160a01b03909116906307a2d13a90602401602060405180830381865afa1580156107dc573d6000803e3d6000fd5b505050506040513d601f19601f82011682018060405250810190610800919061169c565b61081290670de0b6b3a7640000611834565b61081c919061184b565b91505090565b60405180606001604052806023815260200161199d6023913981565b60015460005460408051808201909152600a81526914d08e8811195b9a595960b21b60208201526001600160a01b0392831692909116903383146108955760405162461bcd60e51b81526004016103fc9190611650565b5061089e61107e565b50506040516370a0823160e01b81526000906001600160a01b038316906370a08231906108cf9030906004016115e6565b602060405180830381865afa1580156108ec573d6000803e3d6000fd5b505050506040513d601f19601f82011682018060405250810190610910919061169c565b9050801561092c5761092c6001600160a01b03831684836110c0565b6040518181527f1e1c9eed3e86bfabb3b6632fe0d8620ffa4a5885dee801a9c3b944a98fddc5989060200160405180910390a1505050565b60015460005460408051808201909152600a81526914d08e8811195b9a595960b21b60208201526001600160a01b0392831692909116903383146109bb5760405162461bcd60e51b81526004016103fc9190611650565b506040516370a0823160e01b81526000906001600160a01b038316906370a08231906109eb9030906004016115e6565b602060405180830381865afa158015610a08573d6000803e3d6000fd5b505050506040513d601f19601f82011682018060405250810190610a2c919061169c565b905080841115610aba57610a48610a43828661170b565b611128565b50506040516370a0823160e01b81526001600160a01b038316906370a0823190610a769030906004016115e6565b602060405180830381865afa158015610a93573d6000803e3d6000fd5b505050506040513d601f19601f82011682018060405250810190610ab7919061169c565b90505b6000610ac685836111b2565b90508015610ae257610ae26001600160a01b03841685836110c0565b60408051868152602081018390529081018390527fe043359a001ab7a9959ca1779f6e441544969bd35de019af53a54f4e4f8a9a3e9060600160405180910390a15050505050565b60015460408051808201909152600a81526914d08e8811195b9a595960b21b6020820152906001600160a01b03163314610b775760405162461bcd60e51b81526004016103fc9190611650565b50600080546040516370a0823160e01b81526001600160a01b03909116919082906370a0823190610bac9030906004016115e6565b602060405180830381865afa158015610bc9573d6000803e3d6000fd5b505050506040513d601f19601f82011682018060405250810190610bed919061169c565b90508015610bfe57610bfe81610d34565b6040518181527f94bcfc9a8eba5229c2956ccb1858733fce588bc02145ac053c40b9827a33837f9060200160405180910390a15050565b60006001600160e01b0319821663b7b79fa960e01b148061039d57506301ffc9a760e01b6001600160e01b031983161461039d565b610c7482826111ca565b610cc05760405162461bcd60e51b815260206004820152601a60248201527f496e74657266616365206973206e6f7420737570706f7274656400000000000060448201526064016103fc565b5050565b6040516370a0823160e01b81526000906001600160a01b038316906370a0823190610cf39030906004016115e6565b602060405180830381865afa158015610d10573d6000803e3d6000fd5b505050506040513d601f19601f8201168201806040525081019061039d919061169c565b600054610d6b906001600160a01b03167f0000000000000000000000000000000000000000000000000000000000000000836112a8565b6040516332e2261360e21b8152600481018290527f00000000000000000000000000000000000000000000000000000000000000006001600160a01b03169063cb88984c906024015b600060405180830381600087803b158015610dce57600080fd5b505af1158015610de2573d6000803e3d6000fd5b5050505050565b7f00000000000000000000000000000000000000000000000000000000000000006001600160a01b03166345b35f566040518163ffffffff1660e01b8152600401600060405180830381600087803b158015610e4457600080fd5b505af1158015610e58573d6000803e3d6000fd5b50505050565b6000610e897f0000000000000000000000000000000000000000000000000000000000000000610cc4565b90508015610ede57604051632e1a7d4d60e01b8152600481018290527f00000000000000000000000000000000000000000000000000000000000000006001600160a01b031690632e1a7d4d90602401610db4565b50565b60007f00000000000000000000000000000000000000000000000000000000000000006001600160a01b031663c2b18aa06040518163ffffffff1660e01b8152600401600060405180830381865afa158015610f41573d6000803e3d6000fd5b505050506040513d6000823e601f3d908101601f19168201604052610f699190810190611883565b905060005b8151811015610cc0576000828281518110610f8b57610f8b611948565b602002602001015190506000610fa082610cc4565b9050801561107457610fdc6001600160a01b0383167f0000000000000000000000000000000000000000000000000000000000000000836112a8565b60005460405163304d095d60e21b81526001600160a01b03848116600483015291821660248201526044810183905261138860648201527f00000000000000000000000000000000000000000000000000000000000000009091169063c134257490608401600060405180830381600087803b15801561105b57600080fd5b505af115801561106f573d6000803e3d6000fd5b505050505b5050600101610f6e565b60008060006110ac7f0000000000000000000000000000000000000000000000000000000000000000610cc4565b90506110b781611128565b92509250509091565b6040516001600160a01b03831660248201526044810182905261112390849063a9059cbb60e01b906064015b60408051601f198184030181529190526020810180516001600160e01b03166001600160e01b03199093169290921790915261135a565b505050565b604051632e1a7d4d60e01b81526004810182905260009081906001600160a01b037f00000000000000000000000000000000000000000000000000000000000000001690632e1a7d4d90602401600060405180830381600087803b15801561118f57600080fd5b505af11580156111a3573d6000803e3d6000fd5b50600096879650945050505050565b60008183106111c157816111c3565b825b9392505050565b60006001600160a01b0383166112115760405162461bcd60e51b815260206004820152600c60248201526b5a65726f206164647265737360a01b60448201526064016103fc565b823b600081900361122657600091505061039d565b6040516301ffc9a760e01b81526001600160e01b0319841660048201526001600160a01b038516906301ffc9a790602401602060405180830381865afa925050508015611290575060408051601f3d908101601f1916820190925261128d9181019061195e565b60015b1561129e57915061039d9050565b5060009392505050565b604051636eb1769f60e11b81523060048201526001600160a01b038381166024830152600091839186169063dd62ed3e90604401602060405180830381865afa1580156112f9573d6000803e3d6000fd5b505050506040513d601f19601f8201168201806040525081019061131d919061169c565b61132791906116cb565b6040516001600160a01b038516602482015260448101829052909150610e5890859063095ea7b360e01b906064016110ec565b60006113af826040518060400160405280602081526020017f5361666545524332303a206c6f772d6c6576656c2063616c6c206661696c6564815250856001600160a01b031661142c9092919063ffffffff16565b80519091501561112357808060200190518101906113cd919061195e565b6111235760405162461bcd60e51b815260206004820152602a60248201527f5361666545524332303a204552433230206f7065726174696f6e20646964206e6044820152691bdd081cdd58d8d9595960b21b60648201526084016103fc565b606061143b8484600085611443565b949350505050565b6060824710156114a45760405162461bcd60e51b815260206004820152602660248201527f416464726573733a20696e73756666696369656e742062616c616e636520666f6044820152651c8818d85b1b60d21b60648201526084016103fc565b600080866001600160a01b031685876040516114c09190611980565b60006040518083038185875af1925050503d80600081146114fd576040519150601f19603f3d011682016040523d82523d6000602084013e611502565b606091505b50915091506115138783838761151e565b979650505050505050565b6060831561158d578251600003611586576001600160a01b0385163b6115865760405162461bcd60e51b815260206004820152601d60248201527f416464726573733a2063616c6c20746f206e6f6e2d636f6e747261637400000060448201526064016103fc565b508161143b565b61143b83838151156115a25781518083602001fd5b8060405162461bcd60e51b81526004016103fc9190611650565b6000602082840312156115ce57600080fd5b81356001600160e01b0319811681146111c357600080fd5b6001600160a01b0391909116815260200190565b6001600160a01b0381168114610ede57600080fd5b60006020828403121561162157600080fd5b81356111c3816115fa565b60005b8381101561164757818101518382015260200161162f565b50506000910152565b602081526000825180602084015261166f81604085016020870161162c565b601f01601f19169190910160400192915050565b60006020828403121561169557600080fd5b5035919050565b6000602082840312156116ae57600080fd5b5051919050565b634e487b7160e01b600052601160045260246000fd5b8082018082111561039d5761039d6116b5565b80516116e9816115fa565b919050565b60006020828403121561170057600080fd5b81516111c3816115fa565b8181038181111561039d5761039d6116b5565b60006020828403121561173057600080fd5b815160ff811681146111c357600080fd5b600181815b8085111561177c578160001904821115611762576117626116b5565b8085161561176f57918102915b93841c9390800290611746565b509250929050565b6000826117935750600161039d565b816117a05750600061039d565b81600181146117b657600281146117c0576117dc565b600191505061039d565b60ff8411156117d1576117d16116b5565b50506001821b61039d565b5060208310610133831016604e8410600b84101617156117ff575081810a61039d565b6118098383611741565b806000190482111561181d5761181d6116b5565b029392505050565b60006111c360ff841683611784565b808202811582820484141761039d5761039d6116b5565b60008261186857634e487b7160e01b600052601260045260246000fd5b500490565b634e487b7160e01b600052604160045260246000fd5b6000602080838503121561189657600080fd5b825167ffffffffffffffff808211156118ae57600080fd5b818501915085601f8301126118c257600080fd5b8151818111156118d4576118d461186d565b8060051b604051601f19603f830116810181811085821117156118f9576118f961186d565b60405291825284820192508381018501918883111561191757600080fd5b938501935b8285101561193c5761192d856116de565b8452938501939285019261191c565b98975050505050505050565b634e487b7160e01b600052603260045260246000fd5b60006020828403121561197057600080fd5b815180151581146111c357600080fd5b6000825161199281846020870161162c565b919091019291505056fe5465747556312053696e676c6520546f6b656e20537472696374205374726174656779a2646970667358221220df2687681c03d4a06c5848c3e9dd75061b3c280ff789d83149c8d898e867182b64736f6c63430008110033",
  "devdoc": {
    "author": "AlehNat",
    "kind": "dev",
    "methods": {
      "getRate()": {
        "details": "Returns an 18 decimal fixed point number that is the exchange rate of the token to some other underlying token. The meaning of this rate depends on the context."
      },
      "init(address)": {
        "details": "Initialize with the vault. Can be called only once."
      },
      "investAll()": {
        "details": "Stakes everything the strategy holds into the reward pool."
      },
      "investedAssets()": {
        "details": "Amount of underlying assets invested to the pool."
      },
      "supportsInterface(bytes4)": {
        "details": "See {IERC165-supportsInterface}."
      },
      "totalAssets()": {
        "details": "Total amount of underlying assets under control of this strategy."
      },
      "withdrawAllToVault()": {
        "details": "Withdraws all underlying assets to the vault"
      },
      "withdrawToVault(uint256)": {
        "details": "Withdraws some assets to the vault"
      }
    },
    "stateVariables": {
      "isReadyToHardWork": {
        "details": "Usually, indicate that claimable rewards have reasonable amount."
      }
    },
    "title": "Simple auto compounding strategy for TETU V1 vaults.",
    "version": 1
  },
  "userdoc": {
    "kind": "user",
    "methods": {},
    "version": 1
  },
  "storageLayout": {
    "storage": [
      {
        "astId": 16535,
        "contract": "contracts/strategies/tetu-v1/TetuV1SingleTokenStrictStrategy.sol:TetuV1SingleTokenStrictStrategy",
        "label": "asset",
        "offset": 0,
        "slot": "0",
        "type": "t_address"
      },
      {
        "astId": 16539,
        "contract": "contracts/strategies/tetu-v1/TetuV1SingleTokenStrictStrategy.sol:TetuV1SingleTokenStrictStrategy",
        "label": "vault",
        "offset": 0,
        "slot": "1",
        "type": "t_address"
      },
      {
        "astId": 16543,
        "contract": "contracts/strategies/tetu-v1/TetuV1SingleTokenStrictStrategy.sol:TetuV1SingleTokenStrictStrategy",
        "label": "compoundRatio",
        "offset": 0,
        "slot": "2",
        "type": "t_uint256"
      },
      {
        "astId": 67630,
        "contract": "contracts/strategies/tetu-v1/TetuV1SingleTokenStrictStrategy.sol:TetuV1SingleTokenStrictStrategy",
        "label": "isReadyToHardWork",
        "offset": 0,
        "slot": "3",
        "type": "t_bool"
      }
    ],
    "types": {
      "t_address": {
        "encoding": "inplace",
        "label": "address",
        "numberOfBytes": "20"
      },
      "t_bool": {
        "encoding": "inplace",
        "label": "bool",
        "numberOfBytes": "1"
      },
      "t_uint256": {
        "encoding": "inplace",
        "label": "uint256",
        "numberOfBytes": "32"
      }
    }
  }
}