{
  "address": "0x3aEC84b4bF6297C34b27327Bdc556Bd429238d1D",
  "abi": [
    {
      "anonymous": false,
      "inputs": [
        {
          "indexed": false,
          "internalType": "address",
          "name": "controller",
          "type": "address"
        },
        {
          "indexed": false,
          "internalType": "uint256",
          "name": "ts",
          "type": "uint256"
        },
        {
          "indexed": false,
          "internalType": "uint256",
          "name": "block",
          "type": "uint256"
        }
      ],
      "name": "ContractInitialized",
      "type": "event"
    },
    {
      "anonymous": false,
      "inputs": [
        {
          "indexed": false,
          "internalType": "uint8",
          "name": "version",
          "type": "uint8"
        }
      ],
      "name": "Initialized",
      "type": "event"
    },
    {
      "anonymous": false,
      "inputs": [
        {
          "indexed": false,
          "internalType": "uint256[]",
          "name": "withdrawnAmounts",
          "type": "uint256[]"
        }
      ],
      "name": "OnDepositorEmergencyExit",
      "type": "event"
    },
    {
      "anonymous": false,
      "inputs": [
        {
          "indexed": false,
          "internalType": "uint256[]",
          "name": "amounts",
          "type": "uint256[]"
        },
        {
          "indexed": false,
          "internalType": "uint256[]",
          "name": "consumedAmounts",
          "type": "uint256[]"
        }
      ],
      "name": "OnDepositorEnter",
      "type": "event"
    },
    {
      "anonymous": false,
      "inputs": [
        {
          "indexed": false,
          "internalType": "uint256",
          "name": "liquidityAmount",
          "type": "uint256"
        },
        {
          "indexed": false,
          "internalType": "uint256[]",
          "name": "withdrawnAmounts",
          "type": "uint256[]"
        }
      ],
      "name": "OnDepositorExit",
      "type": "event"
    },
    {
      "anonymous": false,
      "inputs": [
        {
          "indexed": false,
          "internalType": "uint256",
          "name": "investedAssetsNewPrices",
          "type": "uint256"
        },
        {
          "indexed": false,
          "internalType": "uint256",
          "name": "earnedByPrices",
          "type": "uint256"
        },
        {
          "indexed": false,
          "internalType": "uint256",
          "name": "earnedHandleRewards",
          "type": "uint256"
        },
        {
          "indexed": false,
          "internalType": "uint256",
          "name": "lostHandleRewards",
          "type": "uint256"
        },
        {
          "indexed": false,
          "internalType": "uint256",
          "name": "earnedDeposit",
          "type": "uint256"
        },
        {
          "indexed": false,
          "internalType": "uint256",
          "name": "lostDeposit",
          "type": "uint256"
        }
      ],
      "name": "OnHardWorkEarnedLost",
      "type": "event"
    },
    {
      "anonymous": false,
      "inputs": [
        {
          "indexed": false,
          "internalType": "uint256",
          "name": "value",
          "type": "uint256"
        },
        {
          "indexed": false,
          "internalType": "address",
          "name": "oldLogic",
          "type": "address"
        }
      ],
      "name": "RevisionIncreased",
      "type": "event"
    },
    {
      "inputs": [],
      "name": "CONTROLLABLE_VERSION",
      "outputs": [
        {
          "internalType": "string",
          "name": "",
          "type": "string"
        }
      ],
      "stateMutability": "view",
      "type": "function"
    },
    {
      "inputs": [],
      "name": "CONVERTER_STRATEGY_BASE_VERSION",
      "outputs": [
        {
          "internalType": "string",
          "name": "",
          "type": "string"
        }
      ],
      "stateMutability": "view",
      "type": "function"
    },
    {
      "inputs": [],
      "name": "NAME",
      "outputs": [
        {
          "internalType": "string",
          "name": "",
          "type": "string"
        }
      ],
      "stateMutability": "view",
      "type": "function"
    },
    {
      "inputs": [],
      "name": "PLATFORM",
      "outputs": [
        {
          "internalType": "string",
          "name": "",
          "type": "string"
        }
      ],
      "stateMutability": "view",
      "type": "function"
    },
    {
      "inputs": [],
      "name": "STRATEGY_BASE_VERSION",
      "outputs": [
        {
          "internalType": "string",
          "name": "",
          "type": "string"
        }
      ],
      "stateMutability": "view",
      "type": "function"
    },
    {
      "inputs": [],
      "name": "STRATEGY_VERSION",
      "outputs": [
        {
          "internalType": "string",
          "name": "",
          "type": "string"
        }
      ],
      "stateMutability": "view",
      "type": "function"
    },
    {
      "inputs": [],
      "name": "UNISWAPV3_DEPOSITOR_VERSION",
      "outputs": [
        {
          "internalType": "string",
          "name": "",
          "type": "string"
        }
      ],
      "stateMutability": "view",
      "type": "function"
    },
    {
      "inputs": [],
      "name": "asset",
      "outputs": [
        {
          "internalType": "address",
          "name": "",
          "type": "address"
        }
      ],
      "stateMutability": "view",
      "type": "function"
    },
    {
      "inputs": [],
      "name": "calcInvestedAssets",
      "outputs": [
        {
          "internalType": "uint256",
          "name": "",
          "type": "uint256"
        }
      ],
      "stateMutability": "nonpayable",
      "type": "function"
    },
    {
      "inputs": [],
      "name": "capacity",
      "outputs": [
        {
          "internalType": "uint256",
          "name": "",
          "type": "uint256"
        }
      ],
      "stateMutability": "view",
      "type": "function"
    },
    {
      "inputs": [],
      "name": "claim",
      "outputs": [],
      "stateMutability": "nonpayable",
      "type": "function"
    },
    {
      "inputs": [],
      "name": "compoundRatio",
      "outputs": [
        {
          "internalType": "uint256",
          "name": "",
          "type": "uint256"
        }
      ],
      "stateMutability": "view",
      "type": "function"
    },
    {
      "inputs": [],
      "name": "controller",
      "outputs": [
        {
          "internalType": "address",
          "name": "",
          "type": "address"
        }
      ],
      "stateMutability": "view",
      "type": "function"
    },
    {
      "inputs": [],
      "name": "converter",
      "outputs": [
        {
          "internalType": "contract ITetuConverter",
          "name": "",
          "type": "address"
        }
      ],
      "stateMutability": "view",
      "type": "function"
    },
    {
      "inputs": [],
      "name": "created",
      "outputs": [
        {
          "internalType": "uint256",
          "name": "",
          "type": "uint256"
        }
      ],
      "stateMutability": "view",
      "type": "function"
    },
    {
      "inputs": [],
      "name": "createdBlock",
      "outputs": [
        {
          "internalType": "uint256",
          "name": "",
          "type": "uint256"
        }
      ],
      "stateMutability": "view",
      "type": "function"
    },
    {
      "inputs": [],
      "name": "doHardWork",
      "outputs": [
        {
          "internalType": "uint256",
          "name": "earned",
          "type": "uint256"
        },
        {
          "internalType": "uint256",
          "name": "lost",
          "type": "uint256"
        }
      ],
      "stateMutability": "nonpayable",
      "type": "function"
    },
    {
      "inputs": [],
      "name": "emergencyExit",
      "outputs": [],
      "stateMutability": "nonpayable",
      "type": "function"
    },
    {
      "inputs": [],
      "name": "getDefaultState",
      "outputs": [
        {
          "internalType": "address[]",
          "name": "addr",
          "type": "address[]"
        },
        {
          "internalType": "int24[]",
          "name": "tickData",
          "type": "int24[]"
        },
        {
          "internalType": "uint256[]",
          "name": "nums",
          "type": "uint256[]"
        },
        {
          "internalType": "bool[]",
          "name": "boolValues",
          "type": "bool[]"
        }
      ],
      "stateMutability": "view",
      "type": "function"
    },
    {
      "inputs": [],
      "name": "getFees",
      "outputs": [
        {
          "internalType": "uint256",
          "name": "fee0",
          "type": "uint256"
        },
        {
          "internalType": "uint256",
          "name": "fee1",
          "type": "uint256"
        }
      ],
      "stateMutability": "view",
      "type": "function"
    },
    {
      "inputs": [],
      "name": "getPropNotUnderlying18",
      "outputs": [
        {
          "internalType": "uint256",
          "name": "",
          "type": "uint256"
        }
      ],
      "stateMutability": "view",
      "type": "function"
    },
    {
      "inputs": [
        {
          "internalType": "uint256",
          "name": "slot",
          "type": "uint256"
        }
      ],
      "name": "getSlot",
      "outputs": [
        {
          "internalType": "bytes32",
          "name": "result",
          "type": "bytes32"
        }
      ],
      "stateMutability": "view",
      "type": "function"
    },
    {
      "inputs": [],
      "name": "getSpecificState",
      "outputs": [
        {
          "internalType": "uint256[]",
          "name": "nums",
          "type": "uint256[]"
        }
      ],
      "stateMutability": "view",
      "type": "function"
    },
    {
      "inputs": [
        {
          "internalType": "address",
          "name": "oldLogic",
          "type": "address"
        }
      ],
      "name": "increaseRevision",
      "outputs": [],
      "stateMutability": "nonpayable",
      "type": "function"
    },
    {
      "inputs": [
        {
          "internalType": "address",
          "name": "controller_",
          "type": "address"
        },
        {
          "internalType": "address",
          "name": "splitter_",
          "type": "address"
        },
        {
          "internalType": "address",
          "name": "converter_",
          "type": "address"
        },
        {
          "internalType": "address",
          "name": "pool_",
          "type": "address"
        },
        {
          "internalType": "int24",
          "name": "tickRange_",
          "type": "int24"
        },
        {
          "internalType": "int24",
          "name": "rebalanceTickRange_",
          "type": "int24"
        },
        {
          "internalType": "uint256[4]",
          "name": "fuseThresholdsA",
          "type": "uint256[4]"
        },
        {
          "internalType": "uint256[4]",
          "name": "fuseThresholdsB",
          "type": "uint256[4]"
        }
      ],
      "name": "init",
      "outputs": [],
      "stateMutability": "nonpayable",
      "type": "function"
    },
    {
      "inputs": [
        {
          "internalType": "uint256",
          "name": "",
          "type": "uint256"
        },
        {
          "internalType": "bool",
          "name": "updateTotalAssetsBeforeInvest_",
          "type": "bool"
        }
      ],
      "name": "investAll",
      "outputs": [
        {
          "internalType": "uint256",
          "name": "strategyLoss",
          "type": "uint256"
        }
      ],
      "stateMutability": "nonpayable",
      "type": "function"
    },
    {
      "inputs": [],
      "name": "investedAssets",
      "outputs": [
        {
          "internalType": "uint256",
          "name": "",
          "type": "uint256"
        }
      ],
      "stateMutability": "view",
      "type": "function"
    },
    {
      "inputs": [
        {
          "internalType": "address",
          "name": "_value",
          "type": "address"
        }
      ],
      "name": "isController",
      "outputs": [
        {
          "internalType": "bool",
          "name": "",
          "type": "bool"
        }
      ],
      "stateMutability": "view",
      "type": "function"
    },
    {
      "inputs": [
        {
          "internalType": "address",
          "name": "_value",
          "type": "address"
        }
      ],
      "name": "isGovernance",
      "outputs": [
        {
          "internalType": "bool",
          "name": "",
          "type": "bool"
        }
      ],
      "stateMutability": "view",
      "type": "function"
    },
    {
      "inputs": [],
      "name": "isReadyToHardWork",
      "outputs": [
        {
          "internalType": "bool",
          "name": "",
          "type": "bool"
        }
      ],
      "stateMutability": "view",
      "type": "function"
    },
    {
      "inputs": [
        {
          "internalType": "address",
          "name": "",
          "type": "address"
        }
      ],
      "name": "liquidationThresholds",
      "outputs": [
        {
          "internalType": "uint256",
          "name": "",
          "type": "uint256"
        }
      ],
      "stateMutability": "view",
      "type": "function"
    },
    {
      "inputs": [],
      "name": "needRebalance",
      "outputs": [
        {
          "internalType": "bool",
          "name": "",
          "type": "bool"
        }
      ],
      "stateMutability": "view",
      "type": "function"
    },
    {
      "inputs": [
        {
          "internalType": "address[]",
          "name": "assets_",
          "type": "address[]"
        },
        {
          "internalType": "uint256[]",
          "name": "amounts_",
          "type": "uint256[]"
        }
      ],
      "name": "onTransferAmounts",
      "outputs": [],
      "stateMutability": "nonpayable",
      "type": "function"
    },
    {
      "inputs": [],
      "name": "performanceFee",
      "outputs": [
        {
          "internalType": "uint256",
          "name": "",
          "type": "uint256"
        }
      ],
      "stateMutability": "view",
      "type": "function"
    },
    {
      "inputs": [],
      "name": "performanceFeeRatio",
      "outputs": [
        {
          "internalType": "uint256",
          "name": "",
          "type": "uint256"
        }
      ],
      "stateMutability": "view",
      "type": "function"
    },
    {
      "inputs": [],
      "name": "performanceReceiver",
      "outputs": [
        {
          "internalType": "address",
          "name": "",
          "type": "address"
        }
      ],
      "stateMutability": "view",
      "type": "function"
    },
    {
      "inputs": [],
      "name": "previousImplementation",
      "outputs": [
        {
          "internalType": "address",
          "name": "",
          "type": "address"
        }
      ],
      "stateMutability": "view",
      "type": "function"
    },
    {
      "inputs": [
        {
          "internalType": "bytes",
          "name": "planEntryData",
          "type": "bytes"
        }
      ],
      "name": "quoteWithdrawByAgg",
      "outputs": [
        {
          "internalType": "address",
          "name": "tokenToSwap",
          "type": "address"
        },
        {
          "internalType": "uint256",
          "name": "amountToSwap",
          "type": "uint256"
        }
      ],
      "stateMutability": "nonpayable",
      "type": "function"
    },
    {
      "inputs": [
        {
          "internalType": "bool",
          "name": "checkNeedRebalance",
          "type": "bool"
        }
      ],
      "name": "rebalanceNoSwaps",
      "outputs": [],
      "stateMutability": "nonpayable",
      "type": "function"
    },
    {
      "inputs": [],
      "name": "reinvestThresholdPercent",
      "outputs": [
        {
          "internalType": "uint256",
          "name": "",
          "type": "uint256"
        }
      ],
      "stateMutability": "view",
      "type": "function"
    },
    {
      "inputs": [
        {
          "internalType": "address",
          "name": "theAsset_",
          "type": "address"
        },
        {
          "internalType": "uint256",
          "name": "amount_",
          "type": "uint256"
        }
      ],
      "name": "requirePayAmountBack",
      "outputs": [
        {
          "internalType": "uint256",
          "name": "amountOut",
          "type": "uint256"
        }
      ],
      "stateMutability": "pure",
      "type": "function"
    },
    {
      "inputs": [],
      "name": "revision",
      "outputs": [
        {
          "internalType": "uint256",
          "name": "",
          "type": "uint256"
        }
      ],
      "stateMutability": "view",
      "type": "function"
    },
    {
      "inputs": [
        {
          "internalType": "uint256",
          "name": "value",
          "type": "uint256"
        }
      ],
      "name": "setCompoundRatio",
      "outputs": [],
      "stateMutability": "nonpayable",
      "type": "function"
    },
    {
      "inputs": [
        {
          "internalType": "uint256",
          "name": "index01",
          "type": "uint256"
        },
        {
          "internalType": "uint256",
          "name": "status",
          "type": "uint256"
        }
      ],
      "name": "setFuseStatus",
      "outputs": [],
      "stateMutability": "nonpayable",
      "type": "function"
    },
    {
      "inputs": [
        {
          "internalType": "uint256",
          "name": "index01",
          "type": "uint256"
        },
        {
          "internalType": "uint256[4]",
          "name": "values",
          "type": "uint256[4]"
        }
      ],
      "name": "setFuseThresholds",
      "outputs": [],
      "stateMutability": "nonpayable",
      "type": "function"
    },
    {
      "inputs": [
        {
          "internalType": "address",
          "name": "token",
          "type": "address"
        },
        {
          "internalType": "uint256",
          "name": "amount",
          "type": "uint256"
        }
      ],
      "name": "setLiquidationThreshold",
      "outputs": [],
      "stateMutability": "nonpayable",
      "type": "function"
    },
    {
      "inputs": [
        {
          "internalType": "uint256",
          "name": "percent_",
          "type": "uint256"
        }
      ],
      "name": "setReinvestThresholdPercent",
      "outputs": [],
      "stateMutability": "nonpayable",
      "type": "function"
    },
    {
      "inputs": [
        {
          "internalType": "address",
          "name": "strategyProfitHolder",
          "type": "address"
        }
      ],
      "name": "setStrategyProfitHolder",
      "outputs": [],
      "stateMutability": "nonpayable",
      "type": "function"
    },
    {
      "inputs": [
        {
          "internalType": "string",
          "name": "name",
          "type": "string"
        }
      ],
      "name": "setStrategySpecificName",
      "outputs": [],
      "stateMutability": "nonpayable",
      "type": "function"
    },
    {
      "inputs": [
        {
          "internalType": "uint256",
          "name": "done",
          "type": "uint256"
        }
      ],
      "name": "setWithdrawDone",
      "outputs": [],
      "stateMutability": "nonpayable",
      "type": "function"
    },
    {
      "inputs": [
        {
          "internalType": "uint256",
          "name": "fee_",
          "type": "uint256"
        },
        {
          "internalType": "address",
          "name": "receiver_",
          "type": "address"
        },
        {
          "internalType": "uint256",
          "name": "ratio_",
          "type": "uint256"
        }
      ],
      "name": "setupPerformanceFee",
      "outputs": [],
      "stateMutability": "nonpayable",
      "type": "function"
    },
    {
      "inputs": [],
      "name": "splitter",
      "outputs": [
        {
          "internalType": "address",
          "name": "",
          "type": "address"
        }
      ],
      "stateMutability": "view",
      "type": "function"
    },
    {
      "inputs": [],
      "name": "strategySpecificName",
      "outputs": [
        {
          "internalType": "string",
          "name": "",
          "type": "string"
        }
      ],
      "stateMutability": "view",
      "type": "function"
    },
    {
      "inputs": [
        {
          "internalType": "bytes4",
          "name": "interfaceId",
          "type": "bytes4"
        }
      ],
      "name": "supportsInterface",
      "outputs": [
        {
          "internalType": "bool",
          "name": "",
          "type": "bool"
        }
      ],
      "stateMutability": "view",
      "type": "function"
    },
    {
      "inputs": [],
      "name": "totalAssets",
      "outputs": [
        {
          "internalType": "uint256",
          "name": "",
          "type": "uint256"
        }
      ],
      "stateMutability": "view",
      "type": "function"
    },
    {
      "inputs": [
        {
          "internalType": "uint256",
          "name": "amount0Owed",
          "type": "uint256"
        },
        {
          "internalType": "uint256",
          "name": "amount1Owed",
          "type": "uint256"
        },
        {
          "internalType": "bytes",
          "name": "",
          "type": "bytes"
        }
      ],
      "name": "uniswapV3MintCallback",
      "outputs": [],
      "stateMutability": "nonpayable",
      "type": "function"
    },
    {
      "inputs": [],
      "name": "withdrawAllToSplitter",
      "outputs": [
        {
          "internalType": "uint256",
          "name": "strategyLoss",
          "type": "uint256"
        }
      ],
      "stateMutability": "nonpayable",
      "type": "function"
    },
    {
      "inputs": [
        {
          "internalType": "address",
          "name": "tokenToSwap_",
          "type": "address"
        },
        {
          "internalType": "address",
          "name": "aggregator_",
          "type": "address"
        },
        {
          "internalType": "uint256",
          "name": "amountToSwap_",
          "type": "uint256"
        },
        {
          "internalType": "bytes",
          "name": "swapData",
          "type": "bytes"
        },
        {
          "internalType": "bytes",
          "name": "planEntryData",
          "type": "bytes"
        },
        {
          "internalType": "uint256",
          "name": "entryToPool",
          "type": "uint256"
        }
      ],
      "name": "withdrawByAggStep",
      "outputs": [
        {
          "internalType": "bool",
          "name": "completed",
          "type": "bool"
        }
      ],
      "stateMutability": "nonpayable",
      "type": "function"
    },
    {
      "inputs": [
        {
          "internalType": "uint256",
          "name": "amount",
          "type": "uint256"
        }
      ],
      "name": "withdrawToSplitter",
      "outputs": [
        {
          "internalType": "uint256",
          "name": "strategyLoss",
          "type": "uint256"
        }
      ],
      "stateMutability": "nonpayable",
      "type": "function"
    }
  ],
  "transactionHash": "0x1296078a1301551eb8a0ecda4f24847dd46dc6225002cf3e502968e99ec8cce4",
  "args": [],
  "numDeployments": 29,
  "solcInputHash": "02fd187ff67ff49fb918dbe5a02fbd27",
  "bytecode": "0x60806040523480156200001157600080fd5b506200001c62000022565b620000e3565b600054610100900460ff16156200008f5760405162461bcd60e51b815260206004820152602760248201527f496e697469616c697a61626c653a20636f6e747261637420697320696e697469604482015266616c697a696e6760c81b606482015260840160405180910390fd5b60005460ff90811614620000e1576000805460ff191660ff9081179091556040519081527f7f26b83ff96e1f2b6a682f133852f6798a09c465da95921460cefb38474024989060200160405180910390a15b565b615bd880620000f36000396000f3fe608060405234801561001057600080fd5b50600436106103495760003560e01c80637063a237116101c9578063ab9e3eee116100ff578063d295ea70116100ad578063dee1f0e41161007c578063dee1f0e414610772578063f77c479114610785578063fe26565c1461078d578063ffb86c6a146107a057600080fd5b8063d295ea701461073c578063d348799714610744578063db8d55f114610757578063de3d047c1461075f57600080fd5b8063ab9e3eee146106ba578063b2457556146106c2578063b429afeb146106d5578063b77c975b146106e8578063bd38837b1461071a578063cd4c81561461072b578063ceee861d146104dc57600080fd5b8063877887821161017757806396b7b14e1161014657806396b7b14e1461063f578063996a6c9c146106525780639d0bcca014610676578063a3f4df7e1461067e57600080fd5b806387788782146105ed57806387c7f770146105f5578063890fbedc14610608578063936725ec1461061b57600080fd5b80637063a2371461054c57806371ee01751461055f57806373a50ef514610567578063783274381461058b5780637cc96380146105ab5780637eba7ba6146105b35780637efc77fa146105c557600080fd5b80634ba31b011161029e578063546799631161024c57806363e277341161021b57806363e2773414610500578063693b134a146105135780636b5fba5a146105265780636ffb4c8e1461053957600080fd5b806354679963146104b55780635641ec03146104ca5780635cfc1a51146104d25780636207a0cf146104dc57600080fd5b80634ba31b01146104355780634e71d92d1461043d5780634fa5d854146104455780634fac6ccd1461046257806351e03fbe1461047557806352bbbb74146104885780635412335d1461049d57600080fd5b8063261efa12116102fb578063261efa12146103e2578063325a19f1146103ea57806333c5b58e146103f257806338d52e0f146103fa5780633cd8045e146104145780634593144c146104255780634ad0b6841461042d57600080fd5b806301e1d1141461034e57806301ffc9a714610369578063066a6fc31461038c5780630acd12c71461039f5780630e30428d146103a75780631d2dca9e146103bc5780632221eb3c146103cf575b600080fd5b6103566107a8565b6040519081526020015b60405180910390f35b61037c61037736600461462e565b610833565b6040519015158152602001610360565b61037c61039a366004614733565b610879565b6103566109d9565b6103ba6103b53660046147cd565b610afb565b005b6103ba6103ca366004614807565b610b9f565b6103ba6103dd366004614824565b610d04565b603e54610356565b610356610d7a565b610356610daa565b603a546001600160a01b03165b604051610360919061483d565b603b546001600160a01b0316610407565b610356610e22565b606d54610356565b610356610e52565b6103ba610ec9565b61044d610f43565b60408051928352602083019190915201610360565b6103ba610470366004614851565b610fb1565b610356610483366004614824565b6110e3565b6104906112ab565b60405161036091906148a9565b6104a56113fb565b60405161036094939291906148ee565b6104bd61148a565b60405161036091906149e2565b6103ba61151f565b600160ff1b610356565b6104bd60405180604001604052806005815260200164322e302e3360d81b81525081565b6103ba61050e366004614a36565b6115b9565b6103ba610521366004614a6b565b611697565b6103ba610534366004614851565b611757565b6103ba610547366004614824565b6117e8565b6103ba61055a366004614af4565b611870565b606f54610356565b6104bd604051806040016040528060058152602001640332e302e360dc1b81525081565b610356610599366004614851565b606c6020526000908152604090205481565b61035661190e565b6103566105c1366004614824565b5490565b6104bd60405180604001604052806009815260200168556e6973776170563360b81b81525081565b603d54610356565b6103566106033660046147cd565b61193e565b6103ba610616366004614b4c565b611983565b6104bd60405180604001604052806005815260200164332e302e3160d81b81525081565b6103ba61064d366004614c7b565b611c5a565b6104bd604051806040016040528060058152602001640c4b8c0b8d60da1b81525081565b610407611cff565b6104bd6040518060400160405280601c81526020017f556e6973776170563320436f6e7665727465722053747261746567790000000081525081565b61037c611d2f565b6103566106d0366004614d3c565b611dda565b61037c6106e3366004614851565b611e89565b6106fb6106f6366004614d6c565b611eae565b604080516001600160a01b039093168352602083019190915201610360565b606e546001600160a01b0316610407565b603c546001600160a01b0316610407565b603f54610356565b6103ba610752366004614da0565b611fa0565b61044d612091565b6103ba61076d366004614824565b612109565b61037c610780366004614851565b612194565b610407612219565b6103ba61079b366004614df2565b612249565b61037c61231a565b60006107b3606d5490565b603a546040516370a0823160e01b81526001600160a01b03909116906370a08231906107e390309060040161483d565b602060405180830381865afa158015610800573d6000803e3d6000fd5b505050506040513d601f19601f820116820180604052508101906108249190614e14565b61082e9190614e43565b905090565b60006001600160e01b03198216631e94dddf60e01b148061086457506001600160e01b0319821663f73147b360e01b145b80610873575061087382612368565b92915050565b600080600061088661238d565b91509150606073228E3c9F56fb8D4b8bec2b71DdA2AA3f13ff0434632aed8d416040518060a001604052808d6001600160a01b03166001600160a01b031681526020018c6001600160a01b03166001600160a01b031681526020016108e9612219565b6001600160a01b039081168252606e548116602080840191909152603b5490911660409283015281516080810183528d8152908101889052808201879052606081018a905290516001600160e01b031960e085901b1681526109599291908c908c90600190606c90600401614e79565b600060405180830381865af4158015610976573d6000803e3d6000fd5b505050506040513d6000823e601f3d908101601f1916820160405261099e9190810190614f55565b90945090506109ac816123da565b60006011558380156109c157506109c1612409565b156109cc5760016010555b5050509695505050505050565b603b54603a54604051633e53813360e11b81526000926001600160a01b0390811692169083907300B6384Da9F9f1e31Feed637628Eb490732981b990637ca7026690610a2b9086908690600401614f9b565b602060405180830381865af4158015610a48573d6000803e3d6000fd5b505050506040513d601f19601f82011682018060405250810190610a6c9190614e14565b90506000806000610a7b612431565b9250925092507300B6384Da9F9f1e31Feed637628Eb490732981b9639ad00ec2868686868b6040518663ffffffff1660e01b8152600401610ac0959493929190614fb5565b60006040518083038186803b158015610ad857600080fd5b505af4158015610aec573d6000803e3d6000fd5b50929998505050505050505050565b73E11BFbFAf8e53ADC8e67552e8A1607a1b9CB735963142395ef610b1d612219565b6040516001600160e01b031960e084901b1681526001600160a01b03918216600482015290851660248201526044810184905260640160006040518083038186803b158015610b6b57600080fd5b505af4158015610b7f573d6000803e3d6000fd5b5050506001600160a01b039092166000908152606c602052604090205550565b6000610ba9612219565b60405163124fdbb760e21b81529091507300B6384Da9F9f1e31Feed637628Eb490732981b99063493f6edc90610be390849060040161483d565b60006040518083038186803b158015610bfb57600080fd5b505af4158015610c0f573d6000803e3d6000fd5b50505050600080610c1e61238d565b60408051808201909152606e546001600160a01b03168152919350915060009073228E3c9F56fb8D4b8bec2b71DdA2AA3f13ff04349063c1bbbea79060019060208101610c6a8961244c565b6001600160a01b03908116909152603b546040516001600160e01b031960e087901b168152610ca994939289928b929116908d90606c90600401614fe5565b600060405180830381865af4158015610cc6573d6000803e3d6000fd5b505050506040513d6000823e601f3d908101601f19168201604052610cee9190810190615054565b9050610cf9816123da565b505042601155505050565b7300B6384Da9F9f1e31Feed637628Eb490732981b963493f6edc610d26612219565b6040518263ffffffff1660e01b8152600401610d42919061483d565b60006040518083038186803b158015610d5a57600080fd5b505af4158015610d6e573d6000803e3d6000fd5b50505060109190915550565b600061082e6105c160017f6f55f470bdc9cb5f04223fd822021061668e4dccb43e8727b295106dc9769c8b615088565b60007300B6384Da9F9f1e31Feed637628Eb490732981b963493f6edc610dce612219565b6040518263ffffffff1660e01b8152600401610dea919061483d565b60006040518083038186803b158015610e0257600080fd5b505af4158015610e16573d6000803e3d6000fd5b5050505061082e6124b0565b600061082e6105c160017f812a673dfca07956350df10f8a654925f561d7a0da09bdbe79e653939a14d9f1615088565b604051630a3c2bb160e21b81526001600482015260009073228E3c9F56fb8D4b8bec2b71DdA2AA3f13ff0434906328f0aec490602401602060405180830381865af4158015610ea5573d6000803e3d6000fd5b505050506040513d601f19601f8201168201806040525081019061082e9190614e14565b7300B6384Da9F9f1e31Feed637628Eb490732981b963d19cc38a610eeb612219565b6040518263ffffffff1660e01b8152600401610f07919061483d565b60006040518083038186803b158015610f1f57600080fd5b505af4158015610f33573d6000803e3d6000fd5b50505050610f3f6125dd565b5050565b603b5460408051808201909152600a81526914d08e8811195b9a595960b21b60208201526000918291906001600160a01b03163314610f9e5760405162461bcd60e51b8152600401610f9591906149e2565b60405180910390fd5b50610fa96001612699565b915091509091565b3330146110005760405162461bcd60e51b815260206004820152601b60248201527f496e637265617365207265766973696f6e20666f7262696464656e00000000006044820152606401610f95565b60006110306105c160017f22573091f17911fb166032a3d9e0554aa73d31b7b7ddea4a4dd2995650af84bd615088565b61103b906001614e43565b905061106f8161106c60017f22573091f17911fb166032a3d9e0554aa73d31b7b7ddea4a4dd2995650af84bd615088565b55565b61109e8261106c60017fbfaaa2fb63266ff27c2da975f5894955056f50419af651a81f6c5060581857e4615088565b604080518281526001600160a01b03841660208201527ff27e2ef832a4eb8ed8ec553b875eecd44764cda95b1c24170e281539e0a869c8910160405180910390a15050565b603b54603a54604051633e53813360e11b81526000926001600160a01b0390811692169083907300B6384Da9F9f1e31Feed637628Eb490732981b990637ca70266906111359086908690600401614f9b565b602060405180830381865af4158015611152573d6000803e3d6000fd5b505050506040513d601f19601f820116820180604052508101906111769190614e14565b905080851115611222576000806111956111908489615088565b6127e8565b604051631594b05b60e01b815290985091935091507300B6384Da9F9f1e31Feed637628Eb490732981b990631594b05b906111dc9087908790879087908c90600401614fb5565b602060405180830381865af41580156111f9573d6000803e3d6000fd5b505050506040513d601f19601f8201168201806040525081019061121d9190614e14565b925050505b6040516333bbb20360e11b815260048101869052602481018290526001600160a01b038084166044830152841660648201527300B6384Da9F9f1e31Feed637628Eb490732981b99063677764069060840160006040518083038186803b15801561128b57600080fd5b505af415801561129f573d6000803e3d6000fd5b50505050505050919050565b600280546040805183815260608082018352936001600160a01b0390931692909160208301908036833750506003546040516370a0823160e01b81529294506001600160a01b0316916370a08231915061130990849060040161483d565b602060405180830381865afa158015611326573d6000803e3d6000fd5b505050506040513d601f19601f8201168201806040525081019061134a9190614e14565b8260008151811061135d5761135d61509b565b6020908102919091010152600480546040516370a0823160e01b81526001600160a01b03909116916370a08231916113979185910161483d565b602060405180830381865afa1580156113b4573d6000803e3d6000fd5b505050506040513d601f19601f820116820180604052508101906113d89190614e14565b826001815181106113eb576113eb61509b565b6020026020010181815250505090565b604051636e81b62960e01b81526001600482015260609081908190819073D9fFe2185e50a9E7fC68934C763dbcA25b8634f090636e81b62990602401600060405180830381865af4158015611454573d6000803e3d6000fd5b505050506040513d6000823e601f3d908101601f1916820160405261147c9190810190615179565b935093509350935090919293565b6060603a600601805461149c90615283565b80601f01602080910402602001604051908101604052809291908181526020018280546114c890615283565b80156115155780601f106114ea57610100808354040283529160200191611515565b820191906000526020600020905b8154815290600101906020018083116114f857829003601f168201915b5050505050905090565b611527612819565b7300B6384Da9F9f1e31Feed637628Eb490732981b963bd020682611549612219565b603a54603b5460405160e085901b6001600160e01b03191681526001600160a01b039384166004820152918316602483015291909116604482015260640160006040518083038186803b15801561159f57600080fd5b505af41580156115b3573d6000803e3d6000fd5b50505050565b7300B6384Da9F9f1e31Feed637628Eb490732981b963493f6edc6115db612219565b6040518263ffffffff1660e01b81526004016115f7919061483d565b60006040518083038186803b15801561160f57600080fd5b505af4158015611623573d6000803e3d6000fd5b5050604051637fc1c15b60e01b81527300B6384Da9F9f1e31Feed637628Eb490732981b99250637fc1c15b915061166390603a90869086906004016152bd565b60006040518083038186803b15801561167b57600080fd5b505af415801561168f573d6000803e3d6000fd5b505050505050565b7300B6384Da9F9f1e31Feed637628Eb490732981b963493f6edc6116b9612219565b6040518263ffffffff1660e01b81526004016116d5919061483d565b60006040518083038186803b1580156116ed57600080fd5b505af4158015611701573d6000803e3d6000fd5b507319C8E33058Dcc261f7739F7B16A2468cae50679d9250630593c4c991506006905084600281106117355761173561509b565b60050201836040518363ffffffff1660e01b81526004016116639291906152f3565b7300B6384Da9F9f1e31Feed637628Eb490732981b963493f6edc611779612219565b6040518263ffffffff1660e01b8152600401611795919061483d565b60006040518083038186803b1580156117ad57600080fd5b505af41580156117c1573d6000803e3d6000fd5b5050600280546001600160a01b0319166001600160a01b0394909416939093179092555050565b73E11BFbFAf8e53ADC8e67552e8A1607a1b9CB735963d2c3cf2561180a612219565b6040516001600160e01b031960e084901b1681526001600160a01b0390911660048201526024810184905260440160006040518083038186803b15801561185057600080fd5b505af4158015611864573d6000803e3d6000fd5b505050606f9190915550565b7300B6384Da9F9f1e31Feed637628Eb490732981b963ed6b63c1603a858585611897612219565b6040516001600160e01b031960e088901b168152600481019590955260248501939093526001600160a01b039182166044850152606484015216608482015260a40160006040518083038186803b1580156118f157600080fd5b505af4158015611905573d6000803e3d6000fd5b50505050505050565b600061082e6105c160017f22573091f17911fb166032a3d9e0554aa73d31b7b7ddea4a4dd2995650af84bd615088565b60408051808201825260158152741514cb4c8e081b9bdd081a5b5c1b195b595b9d1959605a1b6020820152905162461bcd60e51b8152600091610f95916004016149e2565b600054610100900460ff16158080156119a35750600054600160ff909116105b806119bd5750303b1580156119bd575060005460ff166001145b611a205760405162461bcd60e51b815260206004820152602e60248201527f496e697469616c697a61626c653a20636f6e747261637420697320616c72656160448201526d191e481a5b9a5d1a585b1a5e995960921b6064820152608401610f95565b6000805460ff191660011790558015611a43576000805461ff0019166101001790555b611a4e898989612925565b73228E3c9F56fb8D4b8bec2b71DdA2AA3f13ff043463d81d13f260018b8989898e6001600160a01b03166338d52e0f6040518163ffffffff1660e01b8152600401602060405180830381865afa158015611aac573d6000803e3d6000fd5b505050506040513d601f19601f82011682018060405250810190611ad09190615307565b8a8a6040518963ffffffff1660e01b8152600401611af5989796959493929190615324565b60006040518083038186803b158015611b0d57600080fd5b505af4158015611b21573d6000803e3d6000fd5b505060405163bd85be2960e01b8152600160048201527300B6384Da9F9f1e31Feed637628Eb490732981b99250637fc1c15b9150603a9073228E3c9F56fb8D4b8bec2b71DdA2AA3f13ff04349063bd85be2990602401600060405180830381865af4158015611b94573d6000803e3d6000fd5b505050506040513d6000823e601f3d908101601f19168201604052611bbc91908101906153af565b6040518363ffffffff1660e01b8152600401611bd99291906153f7565b60006040518083038186803b158015611bf157600080fd5b505af4158015611c05573d6000803e3d6000fd5b505050508015611c4f576000805461ff0019169055604051600181527f7f26b83ff96e1f2b6a682f133852f6798a09c465da95921460cefb38474024989060200160405180910390a15b505050505050505050565b606e5460408051808201909152600a81526914d08e8811195b9a595960b21b6020820152906001600160a01b03163314611ca75760405162461bcd60e51b8152600401610f9591906149e2565b5080518251146040518060400160405280600d81526020016c54532d3139206c656e6774687360981b81525090611cf15760405162461bcd60e51b8152600401610f9591906149e2565b50611cfa6129c7565b505050565b600061082e6105c160017fbfaaa2fb63266ff27c2da975f5894955056f50419af651a81f6c5060581857e4615088565b6000611d3961231a565b158015611d4b5750611d49612409565b155b801561082e5750606e5460405163119aa29360e11b8152600160048201526001600160a01b03909116602482015273228E3c9F56fb8D4b8bec2b71DdA2AA3f13ff0434906323354526906044015b602060405180830381865af4158015611db6573d6000803e3d6000fd5b505050506040513d601f19601f8201168201806040525081019061082e9190615410565b603b54603a546040516001625acc3160e01b0319815260009283927300B6384Da9F9f1e31Feed637628Eb490732981b99263ffa533cf92611e2c926001600160a01b0391821692911690600401614f9b565b602060405180830381865af4158015611e49573d6000803e3d6000fd5b505050506040513d601f19601f82011682018060405250810190611e6d9190614e14565b90508015611e8257611e7f81846129db565b91505b5092915050565b6000611e93612219565b6001600160a01b0316826001600160a01b0316149050919050565b6005546000908190630100000090046001600160801b0316818115611edb57611ed682612a7f565b611ef9565b60408051600280825260608201835290916020830190803683375050505b905073D9fFe2185e50a9E7fC68934C763dbcA25b8634f06350d2e0ba60018784611f21612219565b606e546040516001600160e01b031960e088901b168152611f5595949392916001600160a01b031690606c9060040161542d565b6040805180830381865af4158015611f71573d6000803e3d6000fd5b505050506040513d601f19601f82011682018060405250810190611f95919061547e565b935093505050915091565b60015460408051808201909152601a81527f5533532d3131204e6f742063616c6c6261636b2063616c6c65720000000000006020820152906001600160a01b031633146120005760405162461bcd60e51b8152600401610f9591906149e2565b50831561204e5760045461204e9033908690600160a81b900460ff16612031576003546001600160a01b031661203e565b6004546001600160a01b03165b6001600160a01b03169190612b09565b82156115b3576004546115b39033908590600160a81b900460ff1661207e576004546001600160a01b031661203e565b6003546001600160a01b03169190612b09565b604051630ba4ccab60e11b815260016004820152600090819073228E3c9F56fb8D4b8bec2b71DdA2AA3f13ff0434906317499956906024016040805180830381865af41580156120e5573d6000803e3d6000fd5b505050506040513d601f19601f82011682018060405250810190610fa991906154ac565b7300B6384Da9F9f1e31Feed637628Eb490732981b9636d51f043603a61212d612219565b6040516001600160e01b031960e085901b16815260048101929092526001600160a01b031660248201526044810184905260640160006040518083038186803b15801561217957600080fd5b505af415801561218d573d6000803e3d6000fd5b5050505050565b6000816001600160a01b03166121a8612219565b6001600160a01b0316635aa6e6756040518163ffffffff1660e01b8152600401602060405180830381865afa1580156121e5573d6000803e3d6000fd5b505050506040513d601f19601f820116820180604052508101906122099190615307565b6001600160a01b03161492915050565b600061082e6105c160017f5165972ef41194f06c5007493031d0b927c20741adcb74403b954009fd2c3618615088565b7300B6384Da9F9f1e31Feed637628Eb490732981b963493f6edc61226b612219565b6040518263ffffffff1660e01b8152600401612287919061483d565b60006040518083038186803b15801561229f57600080fd5b505af41580156122b3573d6000803e3d6000fd5b507319C8E33058Dcc261f7739F7B16A2468cae50679d9250636bffb34691506006905084600281106122e7576122e761509b565b600502018360038111156122fd576122fd6154d0565b6040518363ffffffff1660e01b81526004016116639291906154e6565b606e54604051633934e59d60e11b8152600160048201526001600160a01b03909116602482015260009073228E3c9F56fb8D4b8bec2b71DdA2AA3f13ff043490637269cb3a90604401611d99565b60006001600160e01b0319821663c19fa56160e01b1480610873575061087382612b5b565b60008061239a6001612b90565b92508290506123a76107a8565b6123b19190615088565b600554909150630100000090046001600160801b0316156123d6576123d4612c3d565b505b9091565b805160021480156123f057506123ee612409565b155b15612401576123fe81612cc2565b50505b610f3f6129c7565b600061241f6006825b600502015460ff16612dca565b8061082e575061082e60066001612412565b60008060006124416000196127e8565b925092509250909192565b6000816001600160a01b0316634046ebae6040518163ffffffff1660e01b8152600401602060405180830381865afa15801561248c573d6000803e3d6000fd5b505050506040513d601f19601f820116820180604052508101906108739190615307565b603a54600090819081906124cc906001600160a01b0316612de7565b9150915060006124ec6005546001600160801b0363010000009091041690565b905073E11BFbFAf8e53ADC8e67552e8A1607a1b9CB735963c9bce69084831561251d5761251884612a7f565b612561565b85516001600160401b0381111561253657612536614670565b60405190808252806020026020018201604052801561255f578160200160208202803683370190505b505b606e546040516001600160e01b031960e086901b16815261259493929188916001600160a01b0390911690600401615551565b602060405180830381865af41580156125b1573d6000803e3d6000fd5b505050506040513d601f19601f820116820180604052508101906125d59190614e14565b935050505090565b60608060008060006125ed612e53565b606e54929550909350915073E11BFbFAf8e53ADC8e67552e8A1607a1b9CB73599063e99de4da906001600160a01b0316612625612ede565b8686866040518663ffffffff1660e01b8152600401612648959493929190615598565b600060405180830381865af4158015612665573d6000803e3d6000fd5b505050506040513d6000823e601f3d908101601f1916820160405261268d9190810190615602565b90969095509350505050565b6000806000806126a96001612b90565b915091506126b685612f72565b6127db5760006126c4613027565b9196509450905060006127178780156126dc57508415155b80156127035750606f54620186a0906126f690879061565b565b6127009190615672565b83115b61270e576000612710565b825b84866130f0565b9150600090508061275e61272b8588614e43565b603a548590612742906001600160a01b0316613324565b606d5461274f9190614e43565b6127599190614e43565b613394565b915091506040805187815260208101879052908101899052606081018890526080810183905260a081018290527f3e9abbc366dbf9fe260e2640c06eefbedd7720cf986ae553374e46b804f4ff559060c00160405180910390a16127c28289614e43565b6127cc8289614e43565b97509750505050505050915091565b5060009485945092505050565b60008060008060006127fa6001612b90565b915091506128098682846133c4565b5091989097509095509350505050565b6000612823612c3d565b90507f768a28cb3459382a3d2173feb2dad0235f8de680b109872da581a3aa269fe5f48160405161285491906148a9565b60405180910390a1603a546000908190612876906001600160a01b0316612de7565b606e54919350915073F9B0b9d962c5D6a3e9b1316F73386a12d7F2703a906358b54f16906001600160a01b03166128b36128ae612219565b61244c565b84606c600019886040518763ffffffff1660e01b81526004016128db96959493929190615694565b602060405180830381865af41580156128f8573d6000803e3d6000fd5b505050506040513d601f19601f8201168201806040525081019061291c9190614e14565b506115b36129c7565b600054610100900460ff1661294c5760405162461bcd60e51b8152600401610f95906156d1565b6129568383613a9e565b606e80546001600160a01b0319166001600160a01b03831617905561297f6064620186a0615672565b606f557fe4166dfcf23bbd3e3f764a99dc8fa740554c03c82d6019b81cf265f396f6f2fe6129b16064620186a0615672565b60405190815260200160405180910390a1505050565b60006129d16124b0565b606d819055919050565b60006129e5612409565b15612a6e576040805160028082526060820183526000926020830190803683370190505090508381600081518110612a1f57612a1f61509b565b6020026020010181815250507f59400c8c523464b521238ea8f50e923f2bc64663557e6afec92a97f7efe92d058182604051612a5c92919061571c565b60405180910390a16000915050610873565b612a788383613b47565b9050610873565b60405163a7aced0960e01b8152600160048201526001600160801b038216602482015260609073228E3c9F56fb8D4b8bec2b71DdA2AA3f13ff04349063a7aced0990604401600060405180830381865af4158015612ae1573d6000803e3d6000fd5b505050506040513d6000823e601f3d908101601f191682016040526108739190810190615054565b604080516001600160a01b038416602482015260448082018490528251808303909101815260649091019091526020810180516001600160e01b031663a9059cbb60e01b179052611cfa908490613b6e565b60006001600160e01b0319821663b7b79fa960e01b148061087357506301ffc9a760e01b6001600160e01b0319831614610873565b6000808215612c3157606d54612ba46129c7565b6040516371253f5960e11b81526004810183905260248101829052603a604482015290935073E11BFbFAf8e53ADC8e67552e8A1607a1b9CB73599063e24a7eb290606401602060405180830381865af4158015612c05573d6000803e3d6000fd5b505050506040513d601f19601f82011682018060405250810190612c299190614e14565b915050915091565b5050606d546000915091565b60606000612c5b6005546001600160801b0363010000009091041690565b90508015612c7157612c6c81613c40565b612cbc565b612c79612ede565b516001600160401b03811115612c9157612c91614670565b604051908082528060200260200182016040528015612cba578160200160208202803683370190505b505b91505090565b60015460048054600554604051638008936760e01b815260609460009473228E3c9F56fb8D4b8bec2b71DdA2AA3f13ff043494638008936794612d48946001600160a01b0390941693600160c81b8304600290810b94600160e01b850490910b938c93630100000090046001600160801b031692600160a81b90910460ff16910161574a565b600060405180830381865af4158015612d65573d6000803e3d6000fd5b505050506040513d6000823e601f3d908101601f19168201604052612d8d91908101906157a0565b600580546001600160801b0390921663010000000272ffffffffffffffffffffffffffffffff000000199092169190911790559094909350915050565b60006001826003811115612de057612de06154d0565b1192915050565b60606000612df3612ede565b9150612dff8284613d54565b90506000198114156040518060400160405280600f81526020016e53423a2057726f6e672076616c756560881b81525090612e4d5760405162461bcd60e51b8152600401610f9591906149e2565b50915091565b60405163af31673360e01b8152600160048201526060908190819073228E3c9F56fb8D4b8bec2b71DdA2AA3f13ff04349063af31673390602401600060405180830381865af4158015612eaa573d6000803e3d6000fd5b505050506040513d6000823e601f3d908101601f19168201604052612ed29190810190615806565b91959094509092509050565b6040805160028082526060808301845292602083019080368337505060035482519293506001600160a01b031691839150600090612f1e57612f1e61509b565b6001600160a01b039283166020918202929092010152600454825191169082906001908110612f4f57612f4f61509b565b60200260200101906001600160a01b031690816001600160a01b03168152505090565b6000612f7c61231a565b15604051806040016040528060148152602001735533532d31204e65656420726562616c616e636560601b81525090612fc85760405162461bcd60e51b8152600401610f9591906149e2565b50612fd1612409565b15604051806040016040528060158152602001745533532d313420467573652069732061637469766560581b8152509061301e5760405162461bcd60e51b8152600401610f9591906149e2565b50600092915050565b60008060008060006130376125dd565b603a5491935091506001600160a01b031673228E3c9F56fb8D4b8bec2b71DdA2AA3f13ff04346334d2ec3d8261306b612219565b86866040518563ffffffff1660e01b815260040161308c949392919061588d565b602060405180830381865af41580156130a9573d6000803e3d6000fd5b505050506040513d601f19601f820116820180604052508101906130cd9190614e14565b95506130d98383613db2565b600094506130e681613324565b9350505050909192565b603a5460009081906001600160a01b03168185871161311057600061311a565b61311a8688615088565b90506000620186a086606d60020154613133919061565b565b61313d9190615672565b82119050600061314c84613324565b6001600160a01b0385166000908152606c602052604090205490915061317190613e5f565b8811156132595781806131845750878110155b1561324557603b5473E11BFbFAf8e53ADC8e67552e8A1607a1b9CB73599063aac2718a9086908b906001600160a01b03166131bf868d614e43565b6040516001600160e01b031960e087901b1681526001600160a01b03948516600482015260248101939093529216604482015260648101919091526084016040805180830381865af4158015613219573d6000803e3d6000fd5b505050506040513d601f19601f8201168201806040525081019061323d91906154ac565b509450613259565b613251600089896133c4565b909850965050505b81156133185760008061326b86612de7565b606e54919350915060009061328b906001600160a01b0316878585613e77565b905061329681614032565b6132e35760006132a582612cc2565b5090507f59400c8c523464b521238ea8f50e923f2bc64663557e6afec92a97f7efe92d0582826040516132d992919061571c565b60405180910390a1505b60006132ed6129c7565b90506133106132fc868d614e43565b8a6133068b613324565b61274f9085614e43565b9a5050505050505b50505050935093915050565b6040516370a0823160e01b81526000906001600160a01b038316906370a082319061335390309060040161483d565b602060405180830381865afa158015613370573d6000803e3d6000fd5b505050506040513d601f19601f820116820180604052508101906108739190614e14565b600080838311156133b0576133a98484615088565b91506133bd565b6133ba8385615088565b90505b9250929050565b6000806000806133d38761407e565b61346e604051806102200160405280600015158152602001606081526020016000815260200160008152602001600081526020016000815260200160608152602001600081526020016060815260200160008152602001600081526020016060815260200160006001600160a01b0316815260200160008152602001600081526020016060815260200160006001600160a01b031681525090565b60001988148082528061348957506134868789614e43565b15155b801561349457508515155b15613a85576134a1612ede565b6101608201819052603a546001600160a01b039081166101808401819052606e549091166102008401526134d59190613d54565b6101a08201526101808101516134ea90613324565b6101c08201526134f86140d2565b6020820152600554630100000090046001600160801b03166040820152600554630100000090046001600160801b03166060820152610200810151610180820151604051637a55caf360e01b815273E11BFbFAf8e53ADC8e67552e8A1607a1b9CB735992637a55caf39261356e92600401614f9b565b602060405180830381865af415801561358b573d6000803e3d6000fd5b505050506040513d601f19601f820116820180604052508101906135af9190614e14565b60a0820152805173E11BFbFAf8e53ADC8e67552e8A1607a1b9CB73599063ec0cc4fd906135e5576135e0898b614e43565b6135e8565b60005b30846101600151856101a001518661020001518c88606001516040518863ffffffff1660e01b815260040161362397969594939291906158cb565b600060405180830381865af4158015613640573d6000803e3d6000fd5b505050506040513d6000823e601f3d908101601f19168201604052613668919081019061591a565b60c083015260808201819052156137b1576136868160800151613c40565b6101e0820152600554630100000090046001600160801b031681606001516136ae9190615088565b608082018190526101e08201516040517faebc771af58936b05e89b0be7d3f9761480181abcd4a649fbdd01753fda16970926136eb92909161594a565b60405180910390a173E11BFbFAf8e53ADC8e67552e8A1607a1b9CB7359637a9a23e5826102000151836101600151846101a001518560200151866080015187604001518860c00151896101e001516040518963ffffffff1660e01b815260040161375c989796959493929190615963565b600060405180830381865af4158015613779573d6000803e3d6000fd5b505050506040513d6000823e601f3d908101601f191682016040526137a191908101906159e5565b60c083015261010082015261384d565b6102008101516101608201516101a083015160c0840151604051636138ea8560e01b815273E11BFbFAf8e53ADC8e67552e8A1607a1b9CB735994636138ea85946138019491939092600401615a1b565b600060405180830381865af415801561381e573d6000803e3d6000fd5b505050506040513d6000823e601f3d908101601f191682016040526138469190810190615054565b6101008201525b73F9B0b9d962c5D6a3e9b1316F73386a12d7F2703a63f1f2b573826101600151836101a001518460c001518561020001516138896128ae612219565b87516138b0578d8f896101c001516138a19190614e43565b6138ab9190614e43565b6138b2565b8e5b886101000151606c6040518963ffffffff1660e01b81526004016138dd989796959493929190615a57565b602060405180830381865af41580156138fa573d6000803e3d6000fd5b505050506040513d601f19601f8201168201806040525081019061391e9190614e14565b8160e00181815161392f9190614e43565b90525086156139fd57610180810151603b546101c083015173E11BFbFAf8e53ADC8e67552e8A1607a1b9CB73599263aac2718a9290918b916001600160a01b03169061397b908c614e43565b6040516001600160e01b031960e087901b1681526001600160a01b03948516600482015260248101939093529216604482015260648101919091526084016040805180830381865af41580156139d5573d6000803e3d6000fd5b505050506040513d601f19601f820116820180604052508101906139f991906154ac565b5091505b613a056129c7565b610120820152610180810151613a1a90613324565b6101408201526101c0810151613a4b90613a349088614e43565b8383610140015184610120015161274f9190614e43565b60a083015160e0840151919550670de0b6b3a76400009250613a6c9161565b565b613a769190615672565b8160a001519450945050613a95565b6000806000809450945094509450505b93509350935093565b600054610100900460ff16613ac55760405162461bcd60e51b8152600401610f95906156d1565b613aef817fd2de0374d4479f33e63ae5ed6ca772a10463dd883a90c612050b51fab619640061414d565b613af8826141a3565b604051631797527d60e01b8152603a60048201526001600160a01b038084166024830152821660448201527300B6384Da9F9f1e31Feed637628Eb490732981b990631797527d90606401611663565b6000806000613b5584612b90565b91509150613b648582846130f0565b5095945050505050565b6000613bc3826040518060400160405280602081526020017f5361666545524332303a206c6f772d6c6576656c2063616c6c206661696c6564815250856001600160a01b03166143c89092919063ffffffff16565b805190915015611cfa5780806020019051810190613be19190615410565b611cfa5760405162461bcd60e51b815260206004820152602a60248201527f5361666545524332303a204552433230206f7065726174696f6e20646964206e6044820152691bdd081cdd58d8d9595960b21b6064820152608401610f95565b6060600080613c4d612091565b604051633ae60bcb60e01b8152600160048201526001600160801b0387166024820152919350915073228E3c9F56fb8D4b8bec2b71DdA2AA3f13ff043490633ae60bcb90604401600060405180830381865af4158015613cb1573d6000803e3d6000fd5b505050506040513d6000823e601f3d908101601f19168201604052613cd99190810190615054565b604051632b25a6cf60e01b815260016004820152602481018490526044810183905290935073228E3c9F56fb8D4b8bec2b71DdA2AA3f13ff043490632b25a6cf9060640160006040518083038186803b158015613d3557600080fd5b505af4158015613d49573d6000803e3d6000fd5b505050505050919050565b8151600090815b81811015613da657836001600160a01b0316858281518110613d7f57613d7f61509b565b60200260200101516001600160a01b031603613d9e5791506108739050565b600101613d5b565b50600019949350505050565b815115610f3f57606e5473F9B0b9d962c5D6a3e9b1316F73386a12d7F2703a9063e43fe16590603a906001600160a01b0316613dec612ede565b613df4612219565b606c88886040518863ffffffff1660e01b8152600401613e1a9796959493929190615acd565b600060405180830381865af4158015613e37573d6000803e3d6000fd5b505050506040513d6000823e601f3d908101601f19168201604052611cfa9190810190615054565b60008115613e6d5781610873565b620186a092915050565b6060613e8161231a565b15604051806040016040528060148152602001735533532d31204e65656420726562616c616e636560601b81525090613ecd5760405162461bcd60e51b8152600401610f9591906149e2565b506001546004805460405163a1d4398960e01b81526001600160a01b0390931691830191909152600160c81b8104600290810b6024840152600160e01b8204900b6044830152600160a81b900460ff161515606482015260009073228E3c9F56fb8D4b8bec2b71DdA2AA3f13ff04349063a1d4398990608401600060405180830381865af4158015613f63573d6000803e3d6000fd5b505050506040513d6000823e601f3d908101601f19168201604052613f8b91908101906153af565b60035460048054604051633f14c85760e01b815293945073D9fFe2185e50a9E7fC68934C763dbcA25b8634f093633f14c85793613fe1938c938c936001600160a01b0393841693909116918991606c9101615b38565b600060405180830381865af4158015613ffe573d6000803e3d6000fd5b505050506040513d6000823e601f3d908101601f191682016040526140269190810190615054565b9150505b949350505050565b8051600090815b81811015614074578381815181106140535761405361509b565b602002602001015160000361406c575060019392505050565b600101614039565b5060009392505050565b61408661231a565b15604051806040016040528060148152602001735533532d31204e65656420726562616c616e636560601b81525090610f3f5760405162461bcd60e51b8152600401610f9591906149e2565b6040516347daa34760e11b81526001600482015260609073228E3c9F56fb8D4b8bec2b71DdA2AA3f13ff043490638fb5468e90602401600060405180830381865af4158015614125573d6000803e3d6000fd5b505050506040513d6000823e601f3d908101601f1916820160405261082e9190810190615054565b61415782826143e1565b610f3f5760405162461bcd60e51b815260206004820152601a60248201527f496e74657266616365206973206e6f7420737570706f727465640000000000006044820152606401610f95565b600054610100900460ff166141ca5760405162461bcd60e51b8152600401610f95906156d1565b6001600160a01b0381166142125760405162461bcd60e51b815260206004820152600f60248201526e2d32b9379031b7b73a3937b63632b960891b6044820152606401610f95565b61423c817f4c2403fdcb3cff9b705d96bf0705858e3390412670a62c8bcba611ca7e20ab8661414d565b60006001600160a01b0316816001600160a01b0316635aa6e6756040518163ffffffff1660e01b8152600401602060405180830381865afa158015614285573d6000803e3d6000fd5b505050506040513d601f19601f820116820180604052508101906142a99190615307565b6001600160a01b0316036142f15760405162461bcd60e51b815260206004820152600f60248201526e5a65726f20676f7665726e616e636560881b6044820152606401610f95565b6143208161106c60017f5165972ef41194f06c5007493031d0b927c20741adcb74403b954009fd2c3618615088565b61434f4261106c60017f6f55f470bdc9cb5f04223fd822021061668e4dccb43e8727b295106dc9769c8b615088565b61437e4361106c60017f812a673dfca07956350df10f8a654925f561d7a0da09bdbe79e653939a14d9f1615088565b604080516001600160a01b0383168152426020820152438183015290517f1a2dd071001ebf6e03174e3df5b305795a4ad5d41d8fdb9ba41dbbe2367134269181900360600190a150565b60606143d784846000856144b5565b90505b9392505050565b60006001600160a01b0383166144285760405162461bcd60e51b815260206004820152600c60248201526b5a65726f206164647265737360a01b6044820152606401610f95565b823b600081900361443d576000915050610873565b6040516301ffc9a760e01b81526001600160e01b0319841660048201526001600160a01b038516906301ffc9a790602401602060405180830381865afa9250505080156144a7575060408051601f3d908101601f191682019092526144a491810190615410565b60015b156140745791506108739050565b6060824710156145165760405162461bcd60e51b815260206004820152602660248201527f416464726573733a20696e73756666696369656e742062616c616e636520666f6044820152651c8818d85b1b60d21b6064820152608401610f95565b600080866001600160a01b031685876040516145329190615b86565b60006040518083038185875af1925050503d806000811461456f576040519150601f19603f3d011682016040523d82523d6000602084013e614574565b606091505b509150915061458587838387614590565b979650505050505050565b606083156145ff5782516000036145f8576001600160a01b0385163b6145f85760405162461bcd60e51b815260206004820152601d60248201527f416464726573733a2063616c6c20746f206e6f6e2d636f6e74726163740000006044820152606401610f95565b508161402a565b61402a83838151156146145781518083602001fd5b8060405162461bcd60e51b8152600401610f9591906149e2565b60006020828403121561464057600080fd5b81356001600160e01b0319811681146143da57600080fd5b6001600160a01b038116811461466d57600080fd5b50565b634e487b7160e01b600052604160045260246000fd5b604051601f8201601f191681016001600160401b03811182821017156146ae576146ae614670565b604052919050565b60006001600160401b038211156146cf576146cf614670565b50601f01601f191660200190565b600082601f8301126146ee57600080fd5b81356147016146fc826146b6565b614686565b81815284602083860101111561471657600080fd5b816020850160208301376000918101602001919091529392505050565b60008060008060008060c0878903121561474c57600080fd5b863561475781614658565b9550602087013561476781614658565b94506040870135935060608701356001600160401b038082111561478a57600080fd5b6147968a838b016146dd565b945060808901359150808211156147ac57600080fd5b506147b989828a016146dd565b92505060a087013590509295509295509295565b600080604083850312156147e057600080fd5b82356147eb81614658565b946020939093013593505050565b801515811461466d57600080fd5b60006020828403121561481957600080fd5b81356143da816147f9565b60006020828403121561483657600080fd5b5035919050565b6001600160a01b0391909116815260200190565b60006020828403121561486357600080fd5b81356143da81614658565b600081518084526020808501945080840160005b8381101561489e57815187529582019590820190600101614882565b509495945050505050565b6020815260006143da602083018461486e565b600081518084526020808501945080840160005b8381101561489e5781511515875295820195908201906001016148d0565b6080808252855190820181905260009060209060a0840190828901845b828110156149305781516001600160a01b03168452928401929084019060010161490b565b5050508381038285015286518082528783019183019060005b8181101561496857835160020b83529284019291840191600101614949565b5050848103604086015261497c818861486e565b92505050828103606084015261458581856148bc565b60005b838110156149ad578181015183820152602001614995565b50506000910152565b600081518084526149ce816020860160208601614992565b601f01601f19169290920160200192915050565b6020815260006143da60208301846149b6565b60008083601f840112614a0757600080fd5b5081356001600160401b03811115614a1e57600080fd5b6020830191508360208285010111156133bd57600080fd5b60008060208385031215614a4957600080fd5b82356001600160401b03811115614a5f57600080fd5b61268d858286016149f5565b60008060a08385031215614a7e57600080fd5b82359150602084603f850112614a9357600080fd5b604051608081018181106001600160401b0382111715614ab557614ab5614670565b6040528060a0860187811115614aca57600080fd5b8387015b81811015614ae55780358352918401918401614ace565b50505080925050509250929050565b600080600060608486031215614b0957600080fd5b833592506020840135614b1b81614658565b929592945050506040919091013590565b8060020b811461466d57600080fd5b806080810183101561087357600080fd5b6000806000806000806000806101c0898b031215614b6957600080fd5b8835614b7481614658565b97506020890135614b8481614658565b96506040890135614b9481614658565b95506060890135614ba481614658565b94506080890135614bb481614b2c565b935060a0890135614bc481614b2c565b9250614bd38a60c08b01614b3b565b9150614be38a6101408b01614b3b565b90509295985092959890939650565b60006001600160401b03821115614c0b57614c0b614670565b5060051b60200190565b600082601f830112614c2657600080fd5b81356020614c366146fc83614bf2565b82815260059290921b84018101918181019086841115614c5557600080fd5b8286015b84811015614c705780358352918301918301614c59565b509695505050505050565b60008060408385031215614c8e57600080fd5b82356001600160401b0380821115614ca557600080fd5b818501915085601f830112614cb957600080fd5b81356020614cc96146fc83614bf2565b82815260059290921b84018101918181019089841115614ce857600080fd5b948201945b83861015614d0f578535614d0081614658565b82529482019490820190614ced565b96505086013592505080821115614d2557600080fd5b50614d3285828601614c15565b9150509250929050565b60008060408385031215614d4f57600080fd5b823591506020830135614d61816147f9565b809150509250929050565b600060208284031215614d7e57600080fd5b81356001600160401b03811115614d9457600080fd5b611e7f848285016146dd565b60008060008060608587031215614db657600080fd5b843593506020850135925060408501356001600160401b03811115614dda57600080fd5b614de6878288016149f5565b95989497509550505050565b60008060408385031215614e0557600080fd5b50508035926020909101359150565b600060208284031215614e2657600080fd5b5051919050565b634e487b7160e01b600052601160045260246000fd5b8082018082111561087357610873614e2d565b8060005b60048110156115b3578151845260209384019390910190600101614e5a565b60006101a08289835b6005811015614eaa5781516001600160a01b0316835260209283019290910190600101614e82565b505050614eba60a0840189614e56565b80610120840152614ecd818401886149b6565b9050828103610140840152614ee281876149b6565b61016084019590955250506101800152949350505050565b600082601f830112614f0b57600080fd5b81516020614f1b6146fc83614bf2565b82815260059290921b84018101918181019086841115614f3a57600080fd5b8286015b84811015614c705780518352918301918301614f3e565b60008060408385031215614f6857600080fd5b8251614f73816147f9565b60208401519092506001600160401b03811115614f8f57600080fd5b614d3285828601614efa565b6001600160a01b0392831681529116602082015260400190565b6001600160a01b039586168152602081019490945260408401929092526060830152909116608082015260a00190565b878152610100810160208083018960005b600281101561501c5781516001600160a01b031683529183019190830190600101614ff6565b50505050606082019690965260808101949094526001600160a01b039290921660a0840152151560c083015260e09091015292915050565b60006020828403121561506657600080fd5b81516001600160401b0381111561507c57600080fd5b611e7f84828501614efa565b8181038181111561087357610873614e2d565b634e487b7160e01b600052603260045260246000fd5b600082601f8301126150c257600080fd5b815160206150d26146fc83614bf2565b82815260059290921b840181019181810190868411156150f157600080fd5b8286015b84811015614c7057805161510881614658565b83529183019183016150f5565b600082601f83011261512657600080fd5b815160206151366146fc83614bf2565b82815260059290921b8401810191818101908684111561515557600080fd5b8286015b84811015614c7057805161516c816147f9565b8352918301918301615159565b6000806000806080858703121561518f57600080fd5b84516001600160401b03808211156151a657600080fd5b6151b2888389016150b1565b95506020915081870151818111156151c957600080fd5b8701601f810189136151da57600080fd5b80516151e86146fc82614bf2565b81815260059190911b8201840190848101908b83111561520757600080fd5b928501925b8284101561522e57835161521f81614b2c565b8252928501929085019061520c565b60408b015190985094505050508082111561524857600080fd5b61525488838901614efa565b9350606087015191508082111561526a57600080fd5b5061527787828801615115565b91505092959194509250565b600181811c9082168061529757607f821691505b6020821081036152b757634e487b7160e01b600052602260045260246000fd5b50919050565b83815260406020820152816040820152818360608301376000818301606090810191909152601f909201601f1916010192915050565b82815260a081016143da6020830184614e56565b60006020828403121561531957600080fd5b81516143da81614658565b8881526001600160a01b0388811660208301528781166040830152600287810b606084015286900b60808084019190915290851660a08301526101c08201908460c08401376080836101408401379998505050505050505050565b600061538d6146fc846146b6565b90508281528383830111156153a157600080fd5b6143da836020830184614992565b6000602082840312156153c157600080fd5b81516001600160401b038111156153d757600080fd5b8201601f810184136153e857600080fd5b611e7f8482516020840161537f565b8281526040602082015260006143d760408301846149b6565b60006020828403121561542257600080fd5b81516143da816147f9565b86815260c06020820152600061544660c08301886149b6565b8281036040840152615458818861486e565b6001600160a01b0396871660608501529490951660808301525060a00152949350505050565b6000806040838503121561549157600080fd5b825161549c81614658565b6020939093015192949293505050565b600080604083850312156154bf57600080fd5b505080516020909101519092909150565b634e487b7160e01b600052602160045260246000fd5b828152604081016004831061550b57634e487b7160e01b600052602160045260246000fd5b8260208301529392505050565b600081518084526020808501945080840160005b8381101561489e5781516001600160a01b03168752958201959082019060010161552c565b6080815260006155646080830187615518565b8281036020840152615576818761486e565b604084019590955250506001600160a01b039190911660609091015292915050565b6001600160a01b038616815260a0602082018190526000906155bc90830187615518565b82810360408401526155ce8187615518565b905082810360608401526155e2818661486e565b905082810360808401526155f6818561486e565b98975050505050505050565b6000806040838503121561561557600080fd5b82516001600160401b038082111561562c57600080fd5b615638868387016150b1565b9350602085015191508082111561564e57600080fd5b50614d3285828601614efa565b808202811582820484141761087357610873614e2d565b60008261568f57634e487b7160e01b600052601260045260246000fd5b500490565b600060018060a01b03808916835280881660208401525085604083015284606083015283608083015260c060a08301526155f660c0830184615518565b6020808252602b908201527f496e697469616c697a61626c653a20636f6e7472616374206973206e6f74206960408201526a6e697469616c697a696e6760a81b606082015260800190565b60408152600061572f604083018561486e565b8281036020840152615741818561486e565b95945050505050565b60018060a01b03871681528560020b60208201528460020b604082015260c06060820152600061577d60c083018661486e565b6001600160801b039490941660808301525090151560a090910152949350505050565b6000806000606084860312156157b557600080fd5b83516001600160401b038111156157cb57600080fd5b6157d786828701614efa565b9350506020840151915060408401516001600160801b03811681146157fb57600080fd5b809150509250925092565b60008060006060848603121561581b57600080fd5b83516001600160401b038082111561583257600080fd5b61583e878388016150b1565b9450602086015191508082111561585457600080fd5b61586087838801614efa565b9350604086015191508082111561587657600080fd5b5061588386828701614efa565b9150509250925092565b6001600160a01b038581168252841660208201526080604082018190526000906158b990830185615518565b8281036060840152614585818561486e565b878152600060018060a01b03808916602084015260e060408401526158f360e0840189615518565b606084019790975294909416608082015260a081019290925260c090910152509392505050565b6000806040838503121561592d57600080fd5b8251915060208301516001600160401b03811115614f8f57600080fd5b8281526040602082015260006143d7604083018461486e565b6001600160a01b0389168152610100602082018190526000906159888382018b615518565b905088604084015282810360608401526159a2818961486e565b90508660808401528560a084015282810360c08401526159c2818661486e565b905082810360e08401526159d6818561486e565b9b9a5050505050505050505050565b600080604083850312156159f857600080fd5b82516001600160401b0380821115615a0f57600080fd5b61563886838701614efa565b6001600160a01b0385168152608060208201819052600090615a3f90830186615518565b8460408401528281036060840152614585818561486e565b6000610100808352615a6b8184018c615518565b90508960208401528281036040840152615a85818a61486e565b6001600160a01b0389811660608601528816608085015260a0840187905283810360c08501529050615ab7818661486e565b9150508260e08301529998505050505050505050565b878152600060018060a01b03808916602084015260e06040840152615af560e0840189615518565b818816606085015286608085015283810360a0850152615b158187615518565b91505082810360c0840152615b2a818561486e565b9a9950505050505050505050565b6001600160a01b0387811682526020820187905285811660408301528416606082015260c060808201819052600090615b73908301856149b6565b90508260a0830152979650505050505050565b60008251615b98818460208701614992565b919091019291505056fea2646970667358221220a37232edf54252af2ee278f69955af2ce82c9393e0987aff66f77abd3c216e6a64736f6c63430008110033",
  "deployedBytecode": "0x608060405234801561001057600080fd5b50600436106103495760003560e01c80637063a237116101c9578063ab9e3eee116100ff578063d295ea70116100ad578063dee1f0e41161007c578063dee1f0e414610772578063f77c479114610785578063fe26565c1461078d578063ffb86c6a146107a057600080fd5b8063d295ea701461073c578063d348799714610744578063db8d55f114610757578063de3d047c1461075f57600080fd5b8063ab9e3eee146106ba578063b2457556146106c2578063b429afeb146106d5578063b77c975b146106e8578063bd38837b1461071a578063cd4c81561461072b578063ceee861d146104dc57600080fd5b8063877887821161017757806396b7b14e1161014657806396b7b14e1461063f578063996a6c9c146106525780639d0bcca014610676578063a3f4df7e1461067e57600080fd5b806387788782146105ed57806387c7f770146105f5578063890fbedc14610608578063936725ec1461061b57600080fd5b80637063a2371461054c57806371ee01751461055f57806373a50ef514610567578063783274381461058b5780637cc96380146105ab5780637eba7ba6146105b35780637efc77fa146105c557600080fd5b80634ba31b011161029e578063546799631161024c57806363e277341161021b57806363e2773414610500578063693b134a146105135780636b5fba5a146105265780636ffb4c8e1461053957600080fd5b806354679963146104b55780635641ec03146104ca5780635cfc1a51146104d25780636207a0cf146104dc57600080fd5b80634ba31b01146104355780634e71d92d1461043d5780634fa5d854146104455780634fac6ccd1461046257806351e03fbe1461047557806352bbbb74146104885780635412335d1461049d57600080fd5b8063261efa12116102fb578063261efa12146103e2578063325a19f1146103ea57806333c5b58e146103f257806338d52e0f146103fa5780633cd8045e146104145780634593144c146104255780634ad0b6841461042d57600080fd5b806301e1d1141461034e57806301ffc9a714610369578063066a6fc31461038c5780630acd12c71461039f5780630e30428d146103a75780631d2dca9e146103bc5780632221eb3c146103cf575b600080fd5b6103566107a8565b6040519081526020015b60405180910390f35b61037c61037736600461462e565b610833565b6040519015158152602001610360565b61037c61039a366004614733565b610879565b6103566109d9565b6103ba6103b53660046147cd565b610afb565b005b6103ba6103ca366004614807565b610b9f565b6103ba6103dd366004614824565b610d04565b603e54610356565b610356610d7a565b610356610daa565b603a546001600160a01b03165b604051610360919061483d565b603b546001600160a01b0316610407565b610356610e22565b606d54610356565b610356610e52565b6103ba610ec9565b61044d610f43565b60408051928352602083019190915201610360565b6103ba610470366004614851565b610fb1565b610356610483366004614824565b6110e3565b6104906112ab565b60405161036091906148a9565b6104a56113fb565b60405161036094939291906148ee565b6104bd61148a565b60405161036091906149e2565b6103ba61151f565b600160ff1b610356565b6104bd60405180604001604052806005815260200164322e302e3360d81b81525081565b6103ba61050e366004614a36565b6115b9565b6103ba610521366004614a6b565b611697565b6103ba610534366004614851565b611757565b6103ba610547366004614824565b6117e8565b6103ba61055a366004614af4565b611870565b606f54610356565b6104bd604051806040016040528060058152602001640332e302e360dc1b81525081565b610356610599366004614851565b606c6020526000908152604090205481565b61035661190e565b6103566105c1366004614824565b5490565b6104bd60405180604001604052806009815260200168556e6973776170563360b81b81525081565b603d54610356565b6103566106033660046147cd565b61193e565b6103ba610616366004614b4c565b611983565b6104bd60405180604001604052806005815260200164332e302e3160d81b81525081565b6103ba61064d366004614c7b565b611c5a565b6104bd604051806040016040528060058152602001640c4b8c0b8d60da1b81525081565b610407611cff565b6104bd6040518060400160405280601c81526020017f556e6973776170563320436f6e7665727465722053747261746567790000000081525081565b61037c611d2f565b6103566106d0366004614d3c565b611dda565b61037c6106e3366004614851565b611e89565b6106fb6106f6366004614d6c565b611eae565b604080516001600160a01b039093168352602083019190915201610360565b606e546001600160a01b0316610407565b603c546001600160a01b0316610407565b603f54610356565b6103ba610752366004614da0565b611fa0565b61044d612091565b6103ba61076d366004614824565b612109565b61037c610780366004614851565b612194565b610407612219565b6103ba61079b366004614df2565b612249565b61037c61231a565b60006107b3606d5490565b603a546040516370a0823160e01b81526001600160a01b03909116906370a08231906107e390309060040161483d565b602060405180830381865afa158015610800573d6000803e3d6000fd5b505050506040513d601f19601f820116820180604052508101906108249190614e14565b61082e9190614e43565b905090565b60006001600160e01b03198216631e94dddf60e01b148061086457506001600160e01b0319821663f73147b360e01b145b80610873575061087382612368565b92915050565b600080600061088661238d565b91509150606073__$166cd655d2cd990700b75f7db5b5f84c53$__632aed8d416040518060a001604052808d6001600160a01b03166001600160a01b031681526020018c6001600160a01b03166001600160a01b031681526020016108e9612219565b6001600160a01b039081168252606e548116602080840191909152603b5490911660409283015281516080810183528d8152908101889052808201879052606081018a905290516001600160e01b031960e085901b1681526109599291908c908c90600190606c90600401614e79565b600060405180830381865af4158015610976573d6000803e3d6000fd5b505050506040513d6000823e601f3d908101601f1916820160405261099e9190810190614f55565b90945090506109ac816123da565b60006011558380156109c157506109c1612409565b156109cc5760016010555b5050509695505050505050565b603b54603a54604051633e53813360e11b81526000926001600160a01b03908116921690839073__$7dde4232fad0cb3c495beb9e735b7d0c63$__90637ca7026690610a2b9086908690600401614f9b565b602060405180830381865af4158015610a48573d6000803e3d6000fd5b505050506040513d601f19601f82011682018060405250810190610a6c9190614e14565b90506000806000610a7b612431565b92509250925073__$7dde4232fad0cb3c495beb9e735b7d0c63$__639ad00ec2868686868b6040518663ffffffff1660e01b8152600401610ac0959493929190614fb5565b60006040518083038186803b158015610ad857600080fd5b505af4158015610aec573d6000803e3d6000fd5b50929998505050505050505050565b73__$8f1afe7577f9ab973017c74eca19b86f3c$__63142395ef610b1d612219565b6040516001600160e01b031960e084901b1681526001600160a01b03918216600482015290851660248201526044810184905260640160006040518083038186803b158015610b6b57600080fd5b505af4158015610b7f573d6000803e3d6000fd5b5050506001600160a01b039092166000908152606c602052604090205550565b6000610ba9612219565b60405163124fdbb760e21b815290915073__$7dde4232fad0cb3c495beb9e735b7d0c63$__9063493f6edc90610be390849060040161483d565b60006040518083038186803b158015610bfb57600080fd5b505af4158015610c0f573d6000803e3d6000fd5b50505050600080610c1e61238d565b60408051808201909152606e546001600160a01b03168152919350915060009073__$166cd655d2cd990700b75f7db5b5f84c53$__9063c1bbbea79060019060208101610c6a8961244c565b6001600160a01b03908116909152603b546040516001600160e01b031960e087901b168152610ca994939289928b929116908d90606c90600401614fe5565b600060405180830381865af4158015610cc6573d6000803e3d6000fd5b505050506040513d6000823e601f3d908101601f19168201604052610cee9190810190615054565b9050610cf9816123da565b505042601155505050565b73__$7dde4232fad0cb3c495beb9e735b7d0c63$__63493f6edc610d26612219565b6040518263ffffffff1660e01b8152600401610d42919061483d565b60006040518083038186803b158015610d5a57600080fd5b505af4158015610d6e573d6000803e3d6000fd5b50505060109190915550565b600061082e6105c160017f6f55f470bdc9cb5f04223fd822021061668e4dccb43e8727b295106dc9769c8b615088565b600073__$7dde4232fad0cb3c495beb9e735b7d0c63$__63493f6edc610dce612219565b6040518263ffffffff1660e01b8152600401610dea919061483d565b60006040518083038186803b158015610e0257600080fd5b505af4158015610e16573d6000803e3d6000fd5b5050505061082e6124b0565b600061082e6105c160017f812a673dfca07956350df10f8a654925f561d7a0da09bdbe79e653939a14d9f1615088565b604051630a3c2bb160e21b81526001600482015260009073__$166cd655d2cd990700b75f7db5b5f84c53$__906328f0aec490602401602060405180830381865af4158015610ea5573d6000803e3d6000fd5b505050506040513d601f19601f8201168201806040525081019061082e9190614e14565b73__$7dde4232fad0cb3c495beb9e735b7d0c63$__63d19cc38a610eeb612219565b6040518263ffffffff1660e01b8152600401610f07919061483d565b60006040518083038186803b158015610f1f57600080fd5b505af4158015610f33573d6000803e3d6000fd5b50505050610f3f6125dd565b5050565b603b5460408051808201909152600a81526914d08e8811195b9a595960b21b60208201526000918291906001600160a01b03163314610f9e5760405162461bcd60e51b8152600401610f9591906149e2565b60405180910390fd5b50610fa96001612699565b915091509091565b3330146110005760405162461bcd60e51b815260206004820152601b60248201527f496e637265617365207265766973696f6e20666f7262696464656e00000000006044820152606401610f95565b60006110306105c160017f22573091f17911fb166032a3d9e0554aa73d31b7b7ddea4a4dd2995650af84bd615088565b61103b906001614e43565b905061106f8161106c60017f22573091f17911fb166032a3d9e0554aa73d31b7b7ddea4a4dd2995650af84bd615088565b55565b61109e8261106c60017fbfaaa2fb63266ff27c2da975f5894955056f50419af651a81f6c5060581857e4615088565b604080518281526001600160a01b03841660208201527ff27e2ef832a4eb8ed8ec553b875eecd44764cda95b1c24170e281539e0a869c8910160405180910390a15050565b603b54603a54604051633e53813360e11b81526000926001600160a01b03908116921690839073__$7dde4232fad0cb3c495beb9e735b7d0c63$__90637ca70266906111359086908690600401614f9b565b602060405180830381865af4158015611152573d6000803e3d6000fd5b505050506040513d601f19601f820116820180604052508101906111769190614e14565b905080851115611222576000806111956111908489615088565b6127e8565b604051631594b05b60e01b8152909850919350915073__$7dde4232fad0cb3c495beb9e735b7d0c63$__90631594b05b906111dc9087908790879087908c90600401614fb5565b602060405180830381865af41580156111f9573d6000803e3d6000fd5b505050506040513d601f19601f8201168201806040525081019061121d9190614e14565b925050505b6040516333bbb20360e11b815260048101869052602481018290526001600160a01b0380841660448301528416606482015273__$7dde4232fad0cb3c495beb9e735b7d0c63$__9063677764069060840160006040518083038186803b15801561128b57600080fd5b505af415801561129f573d6000803e3d6000fd5b50505050505050919050565b600280546040805183815260608082018352936001600160a01b0390931692909160208301908036833750506003546040516370a0823160e01b81529294506001600160a01b0316916370a08231915061130990849060040161483d565b602060405180830381865afa158015611326573d6000803e3d6000fd5b505050506040513d601f19601f8201168201806040525081019061134a9190614e14565b8260008151811061135d5761135d61509b565b6020908102919091010152600480546040516370a0823160e01b81526001600160a01b03909116916370a08231916113979185910161483d565b602060405180830381865afa1580156113b4573d6000803e3d6000fd5b505050506040513d601f19601f820116820180604052508101906113d89190614e14565b826001815181106113eb576113eb61509b565b6020026020010181815250505090565b604051636e81b62960e01b81526001600482015260609081908190819073__$b1ba452cecccdd06eb05ace2d0a762c7e1$__90636e81b62990602401600060405180830381865af4158015611454573d6000803e3d6000fd5b505050506040513d6000823e601f3d908101601f1916820160405261147c9190810190615179565b935093509350935090919293565b6060603a600601805461149c90615283565b80601f01602080910402602001604051908101604052809291908181526020018280546114c890615283565b80156115155780601f106114ea57610100808354040283529160200191611515565b820191906000526020600020905b8154815290600101906020018083116114f857829003601f168201915b5050505050905090565b611527612819565b73__$7dde4232fad0cb3c495beb9e735b7d0c63$__63bd020682611549612219565b603a54603b5460405160e085901b6001600160e01b03191681526001600160a01b039384166004820152918316602483015291909116604482015260640160006040518083038186803b15801561159f57600080fd5b505af41580156115b3573d6000803e3d6000fd5b50505050565b73__$7dde4232fad0cb3c495beb9e735b7d0c63$__63493f6edc6115db612219565b6040518263ffffffff1660e01b81526004016115f7919061483d565b60006040518083038186803b15801561160f57600080fd5b505af4158015611623573d6000803e3d6000fd5b5050604051637fc1c15b60e01b815273__$7dde4232fad0cb3c495beb9e735b7d0c63$__9250637fc1c15b915061166390603a90869086906004016152bd565b60006040518083038186803b15801561167b57600080fd5b505af415801561168f573d6000803e3d6000fd5b505050505050565b73__$7dde4232fad0cb3c495beb9e735b7d0c63$__63493f6edc6116b9612219565b6040518263ffffffff1660e01b81526004016116d5919061483d565b60006040518083038186803b1580156116ed57600080fd5b505af4158015611701573d6000803e3d6000fd5b5073__$79fe6ec7a3db45dafbed12dca1c6dad764$__9250630593c4c991506006905084600281106117355761173561509b565b60050201836040518363ffffffff1660e01b81526004016116639291906152f3565b73__$7dde4232fad0cb3c495beb9e735b7d0c63$__63493f6edc611779612219565b6040518263ffffffff1660e01b8152600401611795919061483d565b60006040518083038186803b1580156117ad57600080fd5b505af41580156117c1573d6000803e3d6000fd5b5050600280546001600160a01b0319166001600160a01b0394909416939093179092555050565b73__$8f1afe7577f9ab973017c74eca19b86f3c$__63d2c3cf2561180a612219565b6040516001600160e01b031960e084901b1681526001600160a01b0390911660048201526024810184905260440160006040518083038186803b15801561185057600080fd5b505af4158015611864573d6000803e3d6000fd5b505050606f9190915550565b73__$7dde4232fad0cb3c495beb9e735b7d0c63$__63ed6b63c1603a858585611897612219565b6040516001600160e01b031960e088901b168152600481019590955260248501939093526001600160a01b039182166044850152606484015216608482015260a40160006040518083038186803b1580156118f157600080fd5b505af4158015611905573d6000803e3d6000fd5b50505050505050565b600061082e6105c160017f22573091f17911fb166032a3d9e0554aa73d31b7b7ddea4a4dd2995650af84bd615088565b60408051808201825260158152741514cb4c8e081b9bdd081a5b5c1b195b595b9d1959605a1b6020820152905162461bcd60e51b8152600091610f95916004016149e2565b600054610100900460ff16158080156119a35750600054600160ff909116105b806119bd5750303b1580156119bd575060005460ff166001145b611a205760405162461bcd60e51b815260206004820152602e60248201527f496e697469616c697a61626c653a20636f6e747261637420697320616c72656160448201526d191e481a5b9a5d1a585b1a5e995960921b6064820152608401610f95565b6000805460ff191660011790558015611a43576000805461ff0019166101001790555b611a4e898989612925565b73__$166cd655d2cd990700b75f7db5b5f84c53$__63d81d13f260018b8989898e6001600160a01b03166338d52e0f6040518163ffffffff1660e01b8152600401602060405180830381865afa158015611aac573d6000803e3d6000fd5b505050506040513d601f19601f82011682018060405250810190611ad09190615307565b8a8a6040518963ffffffff1660e01b8152600401611af5989796959493929190615324565b60006040518083038186803b158015611b0d57600080fd5b505af4158015611b21573d6000803e3d6000fd5b505060405163bd85be2960e01b81526001600482015273__$7dde4232fad0cb3c495beb9e735b7d0c63$__9250637fc1c15b9150603a9073__$166cd655d2cd990700b75f7db5b5f84c53$__9063bd85be2990602401600060405180830381865af4158015611b94573d6000803e3d6000fd5b505050506040513d6000823e601f3d908101601f19168201604052611bbc91908101906153af565b6040518363ffffffff1660e01b8152600401611bd99291906153f7565b60006040518083038186803b158015611bf157600080fd5b505af4158015611c05573d6000803e3d6000fd5b505050508015611c4f576000805461ff0019169055604051600181527f7f26b83ff96e1f2b6a682f133852f6798a09c465da95921460cefb38474024989060200160405180910390a15b505050505050505050565b606e5460408051808201909152600a81526914d08e8811195b9a595960b21b6020820152906001600160a01b03163314611ca75760405162461bcd60e51b8152600401610f9591906149e2565b5080518251146040518060400160405280600d81526020016c54532d3139206c656e6774687360981b81525090611cf15760405162461bcd60e51b8152600401610f9591906149e2565b50611cfa6129c7565b505050565b600061082e6105c160017fbfaaa2fb63266ff27c2da975f5894955056f50419af651a81f6c5060581857e4615088565b6000611d3961231a565b158015611d4b5750611d49612409565b155b801561082e5750606e5460405163119aa29360e11b8152600160048201526001600160a01b03909116602482015273__$166cd655d2cd990700b75f7db5b5f84c53$__906323354526906044015b602060405180830381865af4158015611db6573d6000803e3d6000fd5b505050506040513d601f19601f8201168201806040525081019061082e9190615410565b603b54603a546040516001625acc3160e01b03198152600092839273__$7dde4232fad0cb3c495beb9e735b7d0c63$__9263ffa533cf92611e2c926001600160a01b0391821692911690600401614f9b565b602060405180830381865af4158015611e49573d6000803e3d6000fd5b505050506040513d601f19601f82011682018060405250810190611e6d9190614e14565b90508015611e8257611e7f81846129db565b91505b5092915050565b6000611e93612219565b6001600160a01b0316826001600160a01b0316149050919050565b6005546000908190630100000090046001600160801b0316818115611edb57611ed682612a7f565b611ef9565b60408051600280825260608201835290916020830190803683375050505b905073__$b1ba452cecccdd06eb05ace2d0a762c7e1$__6350d2e0ba60018784611f21612219565b606e546040516001600160e01b031960e088901b168152611f5595949392916001600160a01b031690606c9060040161542d565b6040805180830381865af4158015611f71573d6000803e3d6000fd5b505050506040513d601f19601f82011682018060405250810190611f95919061547e565b935093505050915091565b60015460408051808201909152601a81527f5533532d3131204e6f742063616c6c6261636b2063616c6c65720000000000006020820152906001600160a01b031633146120005760405162461bcd60e51b8152600401610f9591906149e2565b50831561204e5760045461204e9033908690600160a81b900460ff16612031576003546001600160a01b031661203e565b6004546001600160a01b03165b6001600160a01b03169190612b09565b82156115b3576004546115b39033908590600160a81b900460ff1661207e576004546001600160a01b031661203e565b6003546001600160a01b03169190612b09565b604051630ba4ccab60e11b815260016004820152600090819073__$166cd655d2cd990700b75f7db5b5f84c53$__906317499956906024016040805180830381865af41580156120e5573d6000803e3d6000fd5b505050506040513d601f19601f82011682018060405250810190610fa991906154ac565b73__$7dde4232fad0cb3c495beb9e735b7d0c63$__636d51f043603a61212d612219565b6040516001600160e01b031960e085901b16815260048101929092526001600160a01b031660248201526044810184905260640160006040518083038186803b15801561217957600080fd5b505af415801561218d573d6000803e3d6000fd5b5050505050565b6000816001600160a01b03166121a8612219565b6001600160a01b0316635aa6e6756040518163ffffffff1660e01b8152600401602060405180830381865afa1580156121e5573d6000803e3d6000fd5b505050506040513d601f19601f820116820180604052508101906122099190615307565b6001600160a01b03161492915050565b600061082e6105c160017f5165972ef41194f06c5007493031d0b927c20741adcb74403b954009fd2c3618615088565b73__$7dde4232fad0cb3c495beb9e735b7d0c63$__63493f6edc61226b612219565b6040518263ffffffff1660e01b8152600401612287919061483d565b60006040518083038186803b15801561229f57600080fd5b505af41580156122b3573d6000803e3d6000fd5b5073__$79fe6ec7a3db45dafbed12dca1c6dad764$__9250636bffb34691506006905084600281106122e7576122e761509b565b600502018360038111156122fd576122fd6154d0565b6040518363ffffffff1660e01b81526004016116639291906154e6565b606e54604051633934e59d60e11b8152600160048201526001600160a01b03909116602482015260009073__$166cd655d2cd990700b75f7db5b5f84c53$__90637269cb3a90604401611d99565b60006001600160e01b0319821663c19fa56160e01b1480610873575061087382612b5b565b60008061239a6001612b90565b92508290506123a76107a8565b6123b19190615088565b600554909150630100000090046001600160801b0316156123d6576123d4612c3d565b505b9091565b805160021480156123f057506123ee612409565b155b15612401576123fe81612cc2565b50505b610f3f6129c7565b600061241f6006825b600502015460ff16612dca565b8061082e575061082e60066001612412565b60008060006124416000196127e8565b925092509250909192565b6000816001600160a01b0316634046ebae6040518163ffffffff1660e01b8152600401602060405180830381865afa15801561248c573d6000803e3d6000fd5b505050506040513d601f19601f820116820180604052508101906108739190615307565b603a54600090819081906124cc906001600160a01b0316612de7565b9150915060006124ec6005546001600160801b0363010000009091041690565b905073__$8f1afe7577f9ab973017c74eca19b86f3c$__63c9bce69084831561251d5761251884612a7f565b612561565b85516001600160401b0381111561253657612536614670565b60405190808252806020026020018201604052801561255f578160200160208202803683370190505b505b606e546040516001600160e01b031960e086901b16815261259493929188916001600160a01b0390911690600401615551565b602060405180830381865af41580156125b1573d6000803e3d6000fd5b505050506040513d601f19601f820116820180604052508101906125d59190614e14565b935050505090565b60608060008060006125ed612e53565b606e54929550909350915073__$8f1afe7577f9ab973017c74eca19b86f3c$__9063e99de4da906001600160a01b0316612625612ede565b8686866040518663ffffffff1660e01b8152600401612648959493929190615598565b600060405180830381865af4158015612665573d6000803e3d6000fd5b505050506040513d6000823e601f3d908101601f1916820160405261268d9190810190615602565b90969095509350505050565b6000806000806126a96001612b90565b915091506126b685612f72565b6127db5760006126c4613027565b9196509450905060006127178780156126dc57508415155b80156127035750606f54620186a0906126f690879061565b565b6127009190615672565b83115b61270e576000612710565b825b84866130f0565b9150600090508061275e61272b8588614e43565b603a548590612742906001600160a01b0316613324565b606d5461274f9190614e43565b6127599190614e43565b613394565b915091506040805187815260208101879052908101899052606081018890526080810183905260a081018290527f3e9abbc366dbf9fe260e2640c06eefbedd7720cf986ae553374e46b804f4ff559060c00160405180910390a16127c28289614e43565b6127cc8289614e43565b97509750505050505050915091565b5060009485945092505050565b60008060008060006127fa6001612b90565b915091506128098682846133c4565b5091989097509095509350505050565b6000612823612c3d565b90507f768a28cb3459382a3d2173feb2dad0235f8de680b109872da581a3aa269fe5f48160405161285491906148a9565b60405180910390a1603a546000908190612876906001600160a01b0316612de7565b606e54919350915073__$e930d50fb5f4f1298547dbcb2bb0591990$__906358b54f16906001600160a01b03166128b36128ae612219565b61244c565b84606c600019886040518763ffffffff1660e01b81526004016128db96959493929190615694565b602060405180830381865af41580156128f8573d6000803e3d6000fd5b505050506040513d601f19601f8201168201806040525081019061291c9190614e14565b506115b36129c7565b600054610100900460ff1661294c5760405162461bcd60e51b8152600401610f95906156d1565b6129568383613a9e565b606e80546001600160a01b0319166001600160a01b03831617905561297f6064620186a0615672565b606f557fe4166dfcf23bbd3e3f764a99dc8fa740554c03c82d6019b81cf265f396f6f2fe6129b16064620186a0615672565b60405190815260200160405180910390a1505050565b60006129d16124b0565b606d819055919050565b60006129e5612409565b15612a6e576040805160028082526060820183526000926020830190803683370190505090508381600081518110612a1f57612a1f61509b565b6020026020010181815250507f59400c8c523464b521238ea8f50e923f2bc64663557e6afec92a97f7efe92d058182604051612a5c92919061571c565b60405180910390a16000915050610873565b612a788383613b47565b9050610873565b60405163a7aced0960e01b8152600160048201526001600160801b038216602482015260609073__$166cd655d2cd990700b75f7db5b5f84c53$__9063a7aced0990604401600060405180830381865af4158015612ae1573d6000803e3d6000fd5b505050506040513d6000823e601f3d908101601f191682016040526108739190810190615054565b604080516001600160a01b038416602482015260448082018490528251808303909101815260649091019091526020810180516001600160e01b031663a9059cbb60e01b179052611cfa908490613b6e565b60006001600160e01b0319821663b7b79fa960e01b148061087357506301ffc9a760e01b6001600160e01b0319831614610873565b6000808215612c3157606d54612ba46129c7565b6040516371253f5960e11b81526004810183905260248101829052603a604482015290935073__$8f1afe7577f9ab973017c74eca19b86f3c$__9063e24a7eb290606401602060405180830381865af4158015612c05573d6000803e3d6000fd5b505050506040513d601f19601f82011682018060405250810190612c299190614e14565b915050915091565b5050606d546000915091565b60606000612c5b6005546001600160801b0363010000009091041690565b90508015612c7157612c6c81613c40565b612cbc565b612c79612ede565b516001600160401b03811115612c9157612c91614670565b604051908082528060200260200182016040528015612cba578160200160208202803683370190505b505b91505090565b60015460048054600554604051638008936760e01b815260609460009473__$166cd655d2cd990700b75f7db5b5f84c53$__94638008936794612d48946001600160a01b0390941693600160c81b8304600290810b94600160e01b850490910b938c93630100000090046001600160801b031692600160a81b90910460ff16910161574a565b600060405180830381865af4158015612d65573d6000803e3d6000fd5b505050506040513d6000823e601f3d908101601f19168201604052612d8d91908101906157a0565b600580546001600160801b0390921663010000000272ffffffffffffffffffffffffffffffff000000199092169190911790559094909350915050565b60006001826003811115612de057612de06154d0565b1192915050565b60606000612df3612ede565b9150612dff8284613d54565b90506000198114156040518060400160405280600f81526020016e53423a2057726f6e672076616c756560881b81525090612e4d5760405162461bcd60e51b8152600401610f9591906149e2565b50915091565b60405163af31673360e01b8152600160048201526060908190819073__$166cd655d2cd990700b75f7db5b5f84c53$__9063af31673390602401600060405180830381865af4158015612eaa573d6000803e3d6000fd5b505050506040513d6000823e601f3d908101601f19168201604052612ed29190810190615806565b91959094509092509050565b6040805160028082526060808301845292602083019080368337505060035482519293506001600160a01b031691839150600090612f1e57612f1e61509b565b6001600160a01b039283166020918202929092010152600454825191169082906001908110612f4f57612f4f61509b565b60200260200101906001600160a01b031690816001600160a01b03168152505090565b6000612f7c61231a565b15604051806040016040528060148152602001735533532d31204e65656420726562616c616e636560601b81525090612fc85760405162461bcd60e51b8152600401610f9591906149e2565b50612fd1612409565b15604051806040016040528060158152602001745533532d313420467573652069732061637469766560581b8152509061301e5760405162461bcd60e51b8152600401610f9591906149e2565b50600092915050565b60008060008060006130376125dd565b603a5491935091506001600160a01b031673__$166cd655d2cd990700b75f7db5b5f84c53$__6334d2ec3d8261306b612219565b86866040518563ffffffff1660e01b815260040161308c949392919061588d565b602060405180830381865af41580156130a9573d6000803e3d6000fd5b505050506040513d601f19601f820116820180604052508101906130cd9190614e14565b95506130d98383613db2565b600094506130e681613324565b9350505050909192565b603a5460009081906001600160a01b03168185871161311057600061311a565b61311a8688615088565b90506000620186a086606d60020154613133919061565b565b61313d9190615672565b82119050600061314c84613324565b6001600160a01b0385166000908152606c602052604090205490915061317190613e5f565b8811156132595781806131845750878110155b1561324557603b5473__$8f1afe7577f9ab973017c74eca19b86f3c$__9063aac2718a9086908b906001600160a01b03166131bf868d614e43565b6040516001600160e01b031960e087901b1681526001600160a01b03948516600482015260248101939093529216604482015260648101919091526084016040805180830381865af4158015613219573d6000803e3d6000fd5b505050506040513d601f19601f8201168201806040525081019061323d91906154ac565b509450613259565b613251600089896133c4565b909850965050505b81156133185760008061326b86612de7565b606e54919350915060009061328b906001600160a01b0316878585613e77565b905061329681614032565b6132e35760006132a582612cc2565b5090507f59400c8c523464b521238ea8f50e923f2bc64663557e6afec92a97f7efe92d0582826040516132d992919061571c565b60405180910390a1505b60006132ed6129c7565b90506133106132fc868d614e43565b8a6133068b613324565b61274f9085614e43565b9a5050505050505b50505050935093915050565b6040516370a0823160e01b81526000906001600160a01b038316906370a082319061335390309060040161483d565b602060405180830381865afa158015613370573d6000803e3d6000fd5b505050506040513d601f19601f820116820180604052508101906108739190614e14565b600080838311156133b0576133a98484615088565b91506133bd565b6133ba8385615088565b90505b9250929050565b6000806000806133d38761407e565b61346e604051806102200160405280600015158152602001606081526020016000815260200160008152602001600081526020016000815260200160608152602001600081526020016060815260200160008152602001600081526020016060815260200160006001600160a01b0316815260200160008152602001600081526020016060815260200160006001600160a01b031681525090565b60001988148082528061348957506134868789614e43565b15155b801561349457508515155b15613a85576134a1612ede565b6101608201819052603a546001600160a01b039081166101808401819052606e549091166102008401526134d59190613d54565b6101a08201526101808101516134ea90613324565b6101c08201526134f86140d2565b6020820152600554630100000090046001600160801b03166040820152600554630100000090046001600160801b03166060820152610200810151610180820151604051637a55caf360e01b815273__$8f1afe7577f9ab973017c74eca19b86f3c$__92637a55caf39261356e92600401614f9b565b602060405180830381865af415801561358b573d6000803e3d6000fd5b505050506040513d601f19601f820116820180604052508101906135af9190614e14565b60a0820152805173__$8f1afe7577f9ab973017c74eca19b86f3c$__9063ec0cc4fd906135e5576135e0898b614e43565b6135e8565b60005b30846101600151856101a001518661020001518c88606001516040518863ffffffff1660e01b815260040161362397969594939291906158cb565b600060405180830381865af4158015613640573d6000803e3d6000fd5b505050506040513d6000823e601f3d908101601f19168201604052613668919081019061591a565b60c083015260808201819052156137b1576136868160800151613c40565b6101e0820152600554630100000090046001600160801b031681606001516136ae9190615088565b608082018190526101e08201516040517faebc771af58936b05e89b0be7d3f9761480181abcd4a649fbdd01753fda16970926136eb92909161594a565b60405180910390a173__$8f1afe7577f9ab973017c74eca19b86f3c$__637a9a23e5826102000151836101600151846101a001518560200151866080015187604001518860c00151896101e001516040518963ffffffff1660e01b815260040161375c989796959493929190615963565b600060405180830381865af4158015613779573d6000803e3d6000fd5b505050506040513d6000823e601f3d908101601f191682016040526137a191908101906159e5565b60c083015261010082015261384d565b6102008101516101608201516101a083015160c0840151604051636138ea8560e01b815273__$8f1afe7577f9ab973017c74eca19b86f3c$__94636138ea85946138019491939092600401615a1b565b600060405180830381865af415801561381e573d6000803e3d6000fd5b505050506040513d6000823e601f3d908101601f191682016040526138469190810190615054565b6101008201525b73__$e930d50fb5f4f1298547dbcb2bb0591990$__63f1f2b573826101600151836101a001518460c001518561020001516138896128ae612219565b87516138b0578d8f896101c001516138a19190614e43565b6138ab9190614e43565b6138b2565b8e5b886101000151606c6040518963ffffffff1660e01b81526004016138dd989796959493929190615a57565b602060405180830381865af41580156138fa573d6000803e3d6000fd5b505050506040513d601f19601f8201168201806040525081019061391e9190614e14565b8160e00181815161392f9190614e43565b90525086156139fd57610180810151603b546101c083015173__$8f1afe7577f9ab973017c74eca19b86f3c$__9263aac2718a9290918b916001600160a01b03169061397b908c614e43565b6040516001600160e01b031960e087901b1681526001600160a01b03948516600482015260248101939093529216604482015260648101919091526084016040805180830381865af41580156139d5573d6000803e3d6000fd5b505050506040513d601f19601f820116820180604052508101906139f991906154ac565b5091505b613a056129c7565b610120820152610180810151613a1a90613324565b6101408201526101c0810151613a4b90613a349088614e43565b8383610140015184610120015161274f9190614e43565b60a083015160e0840151919550670de0b6b3a76400009250613a6c9161565b565b613a769190615672565b8160a001519450945050613a95565b6000806000809450945094509450505b93509350935093565b600054610100900460ff16613ac55760405162461bcd60e51b8152600401610f95906156d1565b613aef817fd2de0374d4479f33e63ae5ed6ca772a10463dd883a90c612050b51fab619640061414d565b613af8826141a3565b604051631797527d60e01b8152603a60048201526001600160a01b0380841660248301528216604482015273__$7dde4232fad0cb3c495beb9e735b7d0c63$__90631797527d90606401611663565b6000806000613b5584612b90565b91509150613b648582846130f0565b5095945050505050565b6000613bc3826040518060400160405280602081526020017f5361666545524332303a206c6f772d6c6576656c2063616c6c206661696c6564815250856001600160a01b03166143c89092919063ffffffff16565b805190915015611cfa5780806020019051810190613be19190615410565b611cfa5760405162461bcd60e51b815260206004820152602a60248201527f5361666545524332303a204552433230206f7065726174696f6e20646964206e6044820152691bdd081cdd58d8d9595960b21b6064820152608401610f95565b6060600080613c4d612091565b604051633ae60bcb60e01b8152600160048201526001600160801b0387166024820152919350915073__$166cd655d2cd990700b75f7db5b5f84c53$__90633ae60bcb90604401600060405180830381865af4158015613cb1573d6000803e3d6000fd5b505050506040513d6000823e601f3d908101601f19168201604052613cd99190810190615054565b604051632b25a6cf60e01b815260016004820152602481018490526044810183905290935073__$166cd655d2cd990700b75f7db5b5f84c53$__90632b25a6cf9060640160006040518083038186803b158015613d3557600080fd5b505af4158015613d49573d6000803e3d6000fd5b505050505050919050565b8151600090815b81811015613da657836001600160a01b0316858281518110613d7f57613d7f61509b565b60200260200101516001600160a01b031603613d9e5791506108739050565b600101613d5b565b50600019949350505050565b815115610f3f57606e5473__$e930d50fb5f4f1298547dbcb2bb0591990$__9063e43fe16590603a906001600160a01b0316613dec612ede565b613df4612219565b606c88886040518863ffffffff1660e01b8152600401613e1a9796959493929190615acd565b600060405180830381865af4158015613e37573d6000803e3d6000fd5b505050506040513d6000823e601f3d908101601f19168201604052611cfa9190810190615054565b60008115613e6d5781610873565b620186a092915050565b6060613e8161231a565b15604051806040016040528060148152602001735533532d31204e65656420726562616c616e636560601b81525090613ecd5760405162461bcd60e51b8152600401610f9591906149e2565b506001546004805460405163a1d4398960e01b81526001600160a01b0390931691830191909152600160c81b8104600290810b6024840152600160e01b8204900b6044830152600160a81b900460ff161515606482015260009073__$166cd655d2cd990700b75f7db5b5f84c53$__9063a1d4398990608401600060405180830381865af4158015613f63573d6000803e3d6000fd5b505050506040513d6000823e601f3d908101601f19168201604052613f8b91908101906153af565b60035460048054604051633f14c85760e01b815293945073__$b1ba452cecccdd06eb05ace2d0a762c7e1$__93633f14c85793613fe1938c938c936001600160a01b0393841693909116918991606c9101615b38565b600060405180830381865af4158015613ffe573d6000803e3d6000fd5b505050506040513d6000823e601f3d908101601f191682016040526140269190810190615054565b9150505b949350505050565b8051600090815b81811015614074578381815181106140535761405361509b565b602002602001015160000361406c575060019392505050565b600101614039565b5060009392505050565b61408661231a565b15604051806040016040528060148152602001735533532d31204e65656420726562616c616e636560601b81525090610f3f5760405162461bcd60e51b8152600401610f9591906149e2565b6040516347daa34760e11b81526001600482015260609073__$166cd655d2cd990700b75f7db5b5f84c53$__90638fb5468e90602401600060405180830381865af4158015614125573d6000803e3d6000fd5b505050506040513d6000823e601f3d908101601f1916820160405261082e9190810190615054565b61415782826143e1565b610f3f5760405162461bcd60e51b815260206004820152601a60248201527f496e74657266616365206973206e6f7420737570706f727465640000000000006044820152606401610f95565b600054610100900460ff166141ca5760405162461bcd60e51b8152600401610f95906156d1565b6001600160a01b0381166142125760405162461bcd60e51b815260206004820152600f60248201526e2d32b9379031b7b73a3937b63632b960891b6044820152606401610f95565b61423c817f4c2403fdcb3cff9b705d96bf0705858e3390412670a62c8bcba611ca7e20ab8661414d565b60006001600160a01b0316816001600160a01b0316635aa6e6756040518163ffffffff1660e01b8152600401602060405180830381865afa158015614285573d6000803e3d6000fd5b505050506040513d601f19601f820116820180604052508101906142a99190615307565b6001600160a01b0316036142f15760405162461bcd60e51b815260206004820152600f60248201526e5a65726f20676f7665726e616e636560881b6044820152606401610f95565b6143208161106c60017f5165972ef41194f06c5007493031d0b927c20741adcb74403b954009fd2c3618615088565b61434f4261106c60017f6f55f470bdc9cb5f04223fd822021061668e4dccb43e8727b295106dc9769c8b615088565b61437e4361106c60017f812a673dfca07956350df10f8a654925f561d7a0da09bdbe79e653939a14d9f1615088565b604080516001600160a01b0383168152426020820152438183015290517f1a2dd071001ebf6e03174e3df5b305795a4ad5d41d8fdb9ba41dbbe2367134269181900360600190a150565b60606143d784846000856144b5565b90505b9392505050565b60006001600160a01b0383166144285760405162461bcd60e51b815260206004820152600c60248201526b5a65726f206164647265737360a01b6044820152606401610f95565b823b600081900361443d576000915050610873565b6040516301ffc9a760e01b81526001600160e01b0319841660048201526001600160a01b038516906301ffc9a790602401602060405180830381865afa9250505080156144a7575060408051601f3d908101601f191682019092526144a491810190615410565b60015b156140745791506108739050565b6060824710156145165760405162461bcd60e51b815260206004820152602660248201527f416464726573733a20696e73756666696369656e742062616c616e636520666f6044820152651c8818d85b1b60d21b6064820152608401610f95565b600080866001600160a01b031685876040516145329190615b86565b60006040518083038185875af1925050503d806000811461456f576040519150601f19603f3d011682016040523d82523d6000602084013e614574565b606091505b509150915061458587838387614590565b979650505050505050565b606083156145ff5782516000036145f8576001600160a01b0385163b6145f85760405162461bcd60e51b815260206004820152601d60248201527f416464726573733a2063616c6c20746f206e6f6e2d636f6e74726163740000006044820152606401610f95565b508161402a565b61402a83838151156146145781518083602001fd5b8060405162461bcd60e51b8152600401610f9591906149e2565b60006020828403121561464057600080fd5b81356001600160e01b0319811681146143da57600080fd5b6001600160a01b038116811461466d57600080fd5b50565b634e487b7160e01b600052604160045260246000fd5b604051601f8201601f191681016001600160401b03811182821017156146ae576146ae614670565b604052919050565b60006001600160401b038211156146cf576146cf614670565b50601f01601f191660200190565b600082601f8301126146ee57600080fd5b81356147016146fc826146b6565b614686565b81815284602083860101111561471657600080fd5b816020850160208301376000918101602001919091529392505050565b60008060008060008060c0878903121561474c57600080fd5b863561475781614658565b9550602087013561476781614658565b94506040870135935060608701356001600160401b038082111561478a57600080fd5b6147968a838b016146dd565b945060808901359150808211156147ac57600080fd5b506147b989828a016146dd565b92505060a087013590509295509295509295565b600080604083850312156147e057600080fd5b82356147eb81614658565b946020939093013593505050565b801515811461466d57600080fd5b60006020828403121561481957600080fd5b81356143da816147f9565b60006020828403121561483657600080fd5b5035919050565b6001600160a01b0391909116815260200190565b60006020828403121561486357600080fd5b81356143da81614658565b600081518084526020808501945080840160005b8381101561489e57815187529582019590820190600101614882565b509495945050505050565b6020815260006143da602083018461486e565b600081518084526020808501945080840160005b8381101561489e5781511515875295820195908201906001016148d0565b6080808252855190820181905260009060209060a0840190828901845b828110156149305781516001600160a01b03168452928401929084019060010161490b565b5050508381038285015286518082528783019183019060005b8181101561496857835160020b83529284019291840191600101614949565b5050848103604086015261497c818861486e565b92505050828103606084015261458581856148bc565b60005b838110156149ad578181015183820152602001614995565b50506000910152565b600081518084526149ce816020860160208601614992565b601f01601f19169290920160200192915050565b6020815260006143da60208301846149b6565b60008083601f840112614a0757600080fd5b5081356001600160401b03811115614a1e57600080fd5b6020830191508360208285010111156133bd57600080fd5b60008060208385031215614a4957600080fd5b82356001600160401b03811115614a5f57600080fd5b61268d858286016149f5565b60008060a08385031215614a7e57600080fd5b82359150602084603f850112614a9357600080fd5b604051608081018181106001600160401b0382111715614ab557614ab5614670565b6040528060a0860187811115614aca57600080fd5b8387015b81811015614ae55780358352918401918401614ace565b50505080925050509250929050565b600080600060608486031215614b0957600080fd5b833592506020840135614b1b81614658565b929592945050506040919091013590565b8060020b811461466d57600080fd5b806080810183101561087357600080fd5b6000806000806000806000806101c0898b031215614b6957600080fd5b8835614b7481614658565b97506020890135614b8481614658565b96506040890135614b9481614658565b95506060890135614ba481614658565b94506080890135614bb481614b2c565b935060a0890135614bc481614b2c565b9250614bd38a60c08b01614b3b565b9150614be38a6101408b01614b3b565b90509295985092959890939650565b60006001600160401b03821115614c0b57614c0b614670565b5060051b60200190565b600082601f830112614c2657600080fd5b81356020614c366146fc83614bf2565b82815260059290921b84018101918181019086841115614c5557600080fd5b8286015b84811015614c705780358352918301918301614c59565b509695505050505050565b60008060408385031215614c8e57600080fd5b82356001600160401b0380821115614ca557600080fd5b818501915085601f830112614cb957600080fd5b81356020614cc96146fc83614bf2565b82815260059290921b84018101918181019089841115614ce857600080fd5b948201945b83861015614d0f578535614d0081614658565b82529482019490820190614ced565b96505086013592505080821115614d2557600080fd5b50614d3285828601614c15565b9150509250929050565b60008060408385031215614d4f57600080fd5b823591506020830135614d61816147f9565b809150509250929050565b600060208284031215614d7e57600080fd5b81356001600160401b03811115614d9457600080fd5b611e7f848285016146dd565b60008060008060608587031215614db657600080fd5b843593506020850135925060408501356001600160401b03811115614dda57600080fd5b614de6878288016149f5565b95989497509550505050565b60008060408385031215614e0557600080fd5b50508035926020909101359150565b600060208284031215614e2657600080fd5b5051919050565b634e487b7160e01b600052601160045260246000fd5b8082018082111561087357610873614e2d565b8060005b60048110156115b3578151845260209384019390910190600101614e5a565b60006101a08289835b6005811015614eaa5781516001600160a01b0316835260209283019290910190600101614e82565b505050614eba60a0840189614e56565b80610120840152614ecd818401886149b6565b9050828103610140840152614ee281876149b6565b61016084019590955250506101800152949350505050565b600082601f830112614f0b57600080fd5b81516020614f1b6146fc83614bf2565b82815260059290921b84018101918181019086841115614f3a57600080fd5b8286015b84811015614c705780518352918301918301614f3e565b60008060408385031215614f6857600080fd5b8251614f73816147f9565b60208401519092506001600160401b03811115614f8f57600080fd5b614d3285828601614efa565b6001600160a01b0392831681529116602082015260400190565b6001600160a01b039586168152602081019490945260408401929092526060830152909116608082015260a00190565b878152610100810160208083018960005b600281101561501c5781516001600160a01b031683529183019190830190600101614ff6565b50505050606082019690965260808101949094526001600160a01b039290921660a0840152151560c083015260e09091015292915050565b60006020828403121561506657600080fd5b81516001600160401b0381111561507c57600080fd5b611e7f84828501614efa565b8181038181111561087357610873614e2d565b634e487b7160e01b600052603260045260246000fd5b600082601f8301126150c257600080fd5b815160206150d26146fc83614bf2565b82815260059290921b840181019181810190868411156150f157600080fd5b8286015b84811015614c7057805161510881614658565b83529183019183016150f5565b600082601f83011261512657600080fd5b815160206151366146fc83614bf2565b82815260059290921b8401810191818101908684111561515557600080fd5b8286015b84811015614c7057805161516c816147f9565b8352918301918301615159565b6000806000806080858703121561518f57600080fd5b84516001600160401b03808211156151a657600080fd5b6151b2888389016150b1565b95506020915081870151818111156151c957600080fd5b8701601f810189136151da57600080fd5b80516151e86146fc82614bf2565b81815260059190911b8201840190848101908b83111561520757600080fd5b928501925b8284101561522e57835161521f81614b2c565b8252928501929085019061520c565b60408b015190985094505050508082111561524857600080fd5b61525488838901614efa565b9350606087015191508082111561526a57600080fd5b5061527787828801615115565b91505092959194509250565b600181811c9082168061529757607f821691505b6020821081036152b757634e487b7160e01b600052602260045260246000fd5b50919050565b83815260406020820152816040820152818360608301376000818301606090810191909152601f909201601f1916010192915050565b82815260a081016143da6020830184614e56565b60006020828403121561531957600080fd5b81516143da81614658565b8881526001600160a01b0388811660208301528781166040830152600287810b606084015286900b60808084019190915290851660a08301526101c08201908460c08401376080836101408401379998505050505050505050565b600061538d6146fc846146b6565b90508281528383830111156153a157600080fd5b6143da836020830184614992565b6000602082840312156153c157600080fd5b81516001600160401b038111156153d757600080fd5b8201601f810184136153e857600080fd5b611e7f8482516020840161537f565b8281526040602082015260006143d760408301846149b6565b60006020828403121561542257600080fd5b81516143da816147f9565b86815260c06020820152600061544660c08301886149b6565b8281036040840152615458818861486e565b6001600160a01b0396871660608501529490951660808301525060a00152949350505050565b6000806040838503121561549157600080fd5b825161549c81614658565b6020939093015192949293505050565b600080604083850312156154bf57600080fd5b505080516020909101519092909150565b634e487b7160e01b600052602160045260246000fd5b828152604081016004831061550b57634e487b7160e01b600052602160045260246000fd5b8260208301529392505050565b600081518084526020808501945080840160005b8381101561489e5781516001600160a01b03168752958201959082019060010161552c565b6080815260006155646080830187615518565b8281036020840152615576818761486e565b604084019590955250506001600160a01b039190911660609091015292915050565b6001600160a01b038616815260a0602082018190526000906155bc90830187615518565b82810360408401526155ce8187615518565b905082810360608401526155e2818661486e565b905082810360808401526155f6818561486e565b98975050505050505050565b6000806040838503121561561557600080fd5b82516001600160401b038082111561562c57600080fd5b615638868387016150b1565b9350602085015191508082111561564e57600080fd5b50614d3285828601614efa565b808202811582820484141761087357610873614e2d565b60008261568f57634e487b7160e01b600052601260045260246000fd5b500490565b600060018060a01b03808916835280881660208401525085604083015284606083015283608083015260c060a08301526155f660c0830184615518565b6020808252602b908201527f496e697469616c697a61626c653a20636f6e7472616374206973206e6f74206960408201526a6e697469616c697a696e6760a81b606082015260800190565b60408152600061572f604083018561486e565b8281036020840152615741818561486e565b95945050505050565b60018060a01b03871681528560020b60208201528460020b604082015260c06060820152600061577d60c083018661486e565b6001600160801b039490941660808301525090151560a090910152949350505050565b6000806000606084860312156157b557600080fd5b83516001600160401b038111156157cb57600080fd5b6157d786828701614efa565b9350506020840151915060408401516001600160801b03811681146157fb57600080fd5b809150509250925092565b60008060006060848603121561581b57600080fd5b83516001600160401b038082111561583257600080fd5b61583e878388016150b1565b9450602086015191508082111561585457600080fd5b61586087838801614efa565b9350604086015191508082111561587657600080fd5b5061588386828701614efa565b9150509250925092565b6001600160a01b038581168252841660208201526080604082018190526000906158b990830185615518565b8281036060840152614585818561486e565b878152600060018060a01b03808916602084015260e060408401526158f360e0840189615518565b606084019790975294909416608082015260a081019290925260c090910152509392505050565b6000806040838503121561592d57600080fd5b8251915060208301516001600160401b03811115614f8f57600080fd5b8281526040602082015260006143d7604083018461486e565b6001600160a01b0389168152610100602082018190526000906159888382018b615518565b905088604084015282810360608401526159a2818961486e565b90508660808401528560a084015282810360c08401526159c2818661486e565b905082810360e08401526159d6818561486e565b9b9a5050505050505050505050565b600080604083850312156159f857600080fd5b82516001600160401b0380821115615a0f57600080fd5b61563886838701614efa565b6001600160a01b0385168152608060208201819052600090615a3f90830186615518565b8460408401528281036060840152614585818561486e565b6000610100808352615a6b8184018c615518565b90508960208401528281036040840152615a85818a61486e565b6001600160a01b0389811660608601528816608085015260a0840187905283810360c08501529050615ab7818661486e565b9150508260e08301529998505050505050505050565b878152600060018060a01b03808916602084015260e06040840152615af560e0840189615518565b818816606085015286608085015283810360a0850152615b158187615518565b91505082810360c0840152615b2a818561486e565b9a9950505050505050505050565b6001600160a01b0387811682526020820187905285811660408301528416606082015260c060808201819052600090615b73908301856149b6565b90508260a0830152979650505050505050565b60008251615b98818460208701614992565b919091019291505056fea2646970667358221220a37232edf54252af2ee278f69955af2ce82c9393e0987aff66f77abd3c216e6a64736f6c63430008110033",
  "libraries": {
    "ConverterStrategyBaseLib": "0xF9B0b9d962c5D6a3e9b1316F73386a12d7F2703a",
    "ConverterStrategyBaseLib2": "0xE11BFbFAf8e53ADC8e67552e8A1607a1b9CB7359",
    "StrategyLib2": "0x00B6384Da9F9f1e31Feed637628Eb490732981b9",
    "UniswapV3ConverterStrategyLogicLib": "0x228E3c9F56fb8D4b8bec2b71DdA2AA3f13ff0434",
    "PairBasedStrategyLib": "0x19C8E33058Dcc261f7739F7B16A2468cae50679d",
    "PairBasedStrategyLogicLib": "0xD9fFe2185e50a9E7fC68934C763dbcA25b8634f0"
  },
  "devdoc": {
    "author": "a17",
    "kind": "dev",
    "methods": {
      "claim()": {
        "details": "Manual claim rewards."
      },
      "created()": {
        "returns": {
          "_0": "Creation timestamp"
        }
      },
      "createdBlock()": {
        "returns": {
          "_0": "Creation block number"
        }
      },
      "doHardWork()": {
        "returns": {
          "earned": "Earned amount in terms of {asset}",
          "lost": "Lost amount in terms of {asset}"
        }
      },
      "emergencyExit()": {
        "details": "In case of any issue operator can withdraw all from pool."
      },
      "getDefaultState()": {
        "returns": {
          "addr": "[tokenA, tokenB, pool, profitHolder]",
          "boolValues": "[isStablePool, depositorSwapTokens]",
          "nums": "[totalLiquidity, fuse-status-tokenA, fuse-status-tokenB, withdrawDone, 4 thresholds of token A, 4 thresholds of token B]",
          "tickData": "[tickSpacing, lowerTick, upperTick, rebalanceTickRange]"
        }
      },
      "getFees()": {
        "returns": {
          "fee0": "and fee1."
        }
      },
      "getPropNotUnderlying18()": {
        "returns": {
          "_0": "Proportion of the not-underlying [0...1e18]"
        }
      },
      "getSlot(uint256)": {
        "details": "Gets a slot as bytes32"
      },
      "getSpecificState()": {
        "returns": {
          "nums": "Balances of [tokenA, tokenB] for profit holder"
        }
      },
      "increaseRevision(address)": {
        "details": "Revision should be increased on each contract upgrade"
      },
      "init(address,address,address,address,int24,int24,uint256[4],uint256[4])": {
        "params": {
          "controller_": "The address of the controller.",
          "converter_": "The address of the converter.",
          "fuseThresholdsA": "Price thresholds for token A [LOWER_LIMIT_ON, LOWER_LIMIT_OFF, UPPER_LIMIT_ON, UPPER_LIMIT_OFF]",
          "fuseThresholdsB": "Price thresholds for token B [LOWER_LIMIT_ON, LOWER_LIMIT_OFF, UPPER_LIMIT_ON, UPPER_LIMIT_OFF]",
          "pool_": "The address of the pool.",
          "rebalanceTickRange_": "The tick range for rebalancing.",
          "splitter_": "The address of the splitter.",
          "tickRange_": "The tick range for the liquidity position."
        }
      },
      "investAll(uint256,bool)": {
        "params": {
          "updateTotalAssetsBeforeInvest_": "Recalculate total assets amount before depositing.                                       It can be false if we know exactly, that the amount is already actual."
        },
        "returns": {
          "strategyLoss": "Loss should be covered from Insurance"
        }
      },
      "isController(address)": {
        "details": "Return true if given address is controller"
      },
      "isReadyToHardWork()": {
        "returns": {
          "_0": "A boolean indicating if the strategy is ready for hard work."
        }
      },
      "needRebalance()": {
        "returns": {
          "_0": "A boolean indicating if {rebalanceNoSwaps} should be called."
        }
      },
      "onTransferAmounts(address[],uint256[])": {
        "params": {
          "amounts_": "Amount of {asset_} that has been sent to the user's balance",
          "assets_": "Any asset sent to the balance, i.e. inside repayTheBorrow"
        }
      },
      "performanceFee()": {
        "details": "use FEE_DENOMINATOR"
      },
      "previousImplementation()": {
        "details": "Previous logic implementation"
      },
      "rebalanceNoSwaps(bool)": {
        "params": {
          "checkNeedRebalance": "Revert if rebalance is not needed. Pass false to deposit after withdrawByAgg-iterations"
        }
      },
      "requirePayAmountBack(address,uint256)": {
        "params": {
          "amount_": "Required amount of the {theAsset_}",
          "theAsset_": "Required asset (either collateral or borrow)"
        },
        "returns": {
          "amountOut": "Amount sent to balance of TetuConverter, amountOut <= amount_"
        }
      },
      "revision()": {
        "details": "Contract upgrade counter"
      },
      "setCompoundRatio(uint256)": {
        "details": "PlatformVoter can change compound ratio for some strategies.      A strategy can implement another logic for some uniq cases."
      },
      "setFuseStatus(uint256,uint256)": {
        "params": {
          "index01": "0 - token A, 1 - token B",
          "status": "See PairBasedStrategyLib.FuseStatus enum for possible values"
        }
      },
      "setFuseThresholds(uint256,uint256[4])": {
        "params": {
          "index01": "0 - token A, 1 - token B",
          "values": "Price thresholds: [LOWER_LIMIT_ON, LOWER_LIMIT_OFF, UPPER_LIMIT_ON, UPPER_LIMIT_OFF]"
        }
      },
      "setLiquidationThreshold(address,uint256)": {
        "details": "Liquidation thresholds are used to detect dust in many cases, not only in liquidation case",
        "params": {
          "amount": "Min amount of token allowed to liquidate, token's decimals are used."
        }
      },
      "setReinvestThresholdPercent(uint256)": {
        "params": {
          "percent_": "New value of the percent, decimals = {REINVEST_THRESHOLD_PERCENT_DENOMINATOR}"
        }
      },
      "setStrategyProfitHolder(address)": {
        "details": "Set a dedicated contract for rewards for properly counting.      It is safe to allow change it to operator - we suppose the contract only temporally store the last rewards."
      },
      "setStrategySpecificName(string)": {
        "details": "The name will be used for UI."
      },
      "setWithdrawDone(uint256)": {
        "params": {
          "done": "0 - full withdraw required, 1 - full withdraw was done"
        }
      },
      "supportsInterface(bytes4)": {
        "details": "See {IERC165-supportsInterface}."
      },
      "totalAssets()": {
        "details": "Total amount of underlying assets under control of this strategy."
      },
      "uniswapV3MintCallback(uint256,uint256,bytes)": {
        "params": {
          "amount0Owed": "The amount of token0 owed to the pool.",
          "amount1Owed": "The amount of token1 owed to the pool."
        }
      },
      "withdrawAllToSplitter()": {
        "details": "Withdraws all underlying assets to the vault",
        "returns": {
          "strategyLoss": "Loss should be covered from Insurance"
        }
      },
      "withdrawByAggStep(address,address,uint256,bytes,bytes,uint256)": {
        "details": "All swap-by-agg data should be prepared using {quoteWithdrawByAgg} off-chain",
        "params": {
          "aggregator_": "Aggregator that should be used on next swap. 0 - use liquidator",
          "amountToSwap_": "Amount that should be swapped. 0 - no swap",
          "entryToPool": "Allow to enter to the pool at the end. Use false if you are going to make several iterations.                    It's possible to enter back to the pool by calling {rebalanceNoSwaps} at any moment                    0 - not allowed, 1 - allowed, 2 - allowed only if completed",
          "planEntryData": "PLAN_XXX + additional data, see IterationPlanKinds",
          "swapData": "Swap rote that was prepared off-chain.",
          "tokenToSwap_": "What token should be swapped to other"
        },
        "returns": {
          "completed": "All debts were closed, leftovers were swapped to the required proportions."
        }
      },
      "withdrawToSplitter(uint256)": {
        "details": "Withdraws some assets to the splitter",
        "returns": {
          "strategyLoss": "Loss should be covered from Insurance"
        }
      }
    },
    "title": "Delta-neutral liquidity hedging converter fill-up/swap rebalancing strategy for UniswapV3",
    "version": 1
  },
  "userdoc": {
    "kind": "user",
    "methods": {
      "CONTROLLABLE_VERSION()": {
        "notice": "Version of the contract"
      },
      "capacity()": {
        "notice": "Unlimited capacity by default"
      },
      "controller()": {
        "notice": "Return controller address saved in the contract slot"
      },
      "created()": {
        "notice": "Return creation timestamp"
      },
      "createdBlock()": {
        "notice": "Return creation block number"
      },
      "doHardWork()": {
        "notice": "Do hard work with reinvesting"
      },
      "getDefaultState()": {
        "notice": "Returns the current state of the contract"
      },
      "getFees()": {
        "notice": "Returns the fees for the current state."
      },
      "getPropNotUnderlying18()": {
        "notice": "Calculate proportions of [underlying, not-underlying] required by the internal pool of the strategy"
      },
      "init(address,address,address,address,int24,int24,uint256[4],uint256[4])": {
        "notice": "Initialize the strategy with the given parameters."
      },
      "investAll(uint256,bool)": {
        "notice": "Stakes everything the strategy holds into the reward pool. amount_ Amount transferred to the strategy balance just before calling this function"
      },
      "investedAssets()": {
        "notice": "Amount of underlying assets converted to pool assets and invested to the pool."
      },
      "isGovernance(address)": {
        "notice": "Return true if given address is setup as governance in Controller"
      },
      "isReadyToHardWork()": {
        "notice": "Check if the strategy is ready for hard work."
      },
      "liquidationThresholds(address)": {
        "notice": "Minimum token amounts that can be liquidated"
      },
      "needRebalance()": {
        "notice": "Check if the strategy needs rebalancing."
      },
      "onTransferAmounts(address[],uint256[])": {
        "notice": "TetuConverter calls this function when it sends any amount to user's balance"
      },
      "performanceFee()": {
        "notice": "A percent of total profit that is sent to the {performanceReceiver} before compounding"
      },
      "performanceReceiver()": {
        "notice": "{performanceFee}% of total profit is sent to the {performanceReceiver} before compounding"
      },
      "quoteWithdrawByAgg(bytes)": {
        "notice": "Get info about a swap required by next call of {withdrawByAggStep} within the given plan"
      },
      "rebalanceNoSwaps(bool)": {
        "notice": "Rebalance using borrow/repay only, no swaps"
      },
      "requirePayAmountBack(address,uint256)": {
        "notice": "Converters asks to send some amount back."
      },
      "setFuseStatus(uint256,uint256)": {
        "notice": "Manually set status of the fuse"
      },
      "setFuseThresholds(uint256,uint256[4])": {
        "notice": "Set thresholds for the fuse: [LOWER_LIMIT_ON, LOWER_LIMIT_OFF, UPPER_LIMIT_ON, UPPER_LIMIT_OFF]         Decimals 18. The thresholds are compared with prices from TetuConverter's price oracle.         Example: [0.9, 0.92, 1.08, 1.1]         Price falls below 0.9 - fuse is ON. Price rises back up to 0.92 - fuse is OFF.         Price raises more and reaches 1.1 - fuse is ON again. Price falls back and reaches 1.08 - fuse OFF again."
      },
      "setWithdrawDone(uint256)": {
        "notice": "Set withdrawDone value.         When a fuse was triggered ON, all debts should be closed and asset should be converted to underlying.         After completion of the conversion withdrawDone can be set to 1.         So, {getFuseStatus} will return  withdrawDone=1 and you will know, that withdraw is not required"
      },
      "setupPerformanceFee(uint256,address,uint256)": {
        "notice": "Set performance fee, receiver and ratio"
      },
      "uniswapV3MintCallback(uint256,uint256,bytes)": {
        "notice": "Callback function called by Uniswap V3 pool on mint operation."
      },
      "withdrawByAggStep(address,address,uint256,bytes,bytes,uint256)": {
        "notice": "Make withdraw iteration: [exit from the pool], [make 1 swap], [repay a debt], [enter to the pool]         Typical sequence of the actions is: exit from the pool, make 1 swap, repay 1 debt.         You can enter to the pool if you are sure that you won't have borrow + repay on AAVE3 in the same block."
      }
    },
    "notice": "This strategy provides delta-neutral liquidity hedging for Uniswap V3 pools. It rebalances the liquidity         by utilizing fill-up and swap methods depending on the range size of the liquidity provided.",
    "version": 1
  },
  "storageLayout": {
    "storage": [
      {
        "astId": 11353,
        "contract": "contracts/strategies/uniswap/UniswapV3ConverterStrategy.sol:UniswapV3ConverterStrategy",
        "label": "_initialized",
        "offset": 0,
        "slot": "0",
        "type": "t_uint8"
      },
      {
        "astId": 11356,
        "contract": "contracts/strategies/uniswap/UniswapV3ConverterStrategy.sol:UniswapV3ConverterStrategy",
        "label": "_initializing",
        "offset": 1,
        "slot": "0",
        "type": "t_bool"
      },
      {
        "astId": 100436,
        "contract": "contracts/strategies/uniswap/UniswapV3ConverterStrategy.sol:UniswapV3ConverterStrategy",
        "label": "state",
        "offset": 0,
        "slot": "1",
        "type": "t_struct(State)98109_storage"
      },
      {
        "astId": 100817,
        "contract": "contracts/strategies/uniswap/UniswapV3ConverterStrategy.sol:UniswapV3ConverterStrategy",
        "label": "__gap",
        "offset": 0,
        "slot": "18",
        "type": "t_array(t_uint256)40_storage"
      },
      {
        "astId": 16695,
        "contract": "contracts/strategies/uniswap/UniswapV3ConverterStrategy.sol:UniswapV3ConverterStrategy",
        "label": "baseState",
        "offset": 0,
        "slot": "58",
        "type": "t_struct(BaseState)5205_storage"
      },
      {
        "astId": 17142,
        "contract": "contracts/strategies/uniswap/UniswapV3ConverterStrategy.sol:UniswapV3ConverterStrategy",
        "label": "__gap",
        "offset": 0,
        "slot": "65",
        "type": "t_array(t_uint256)43_storage"
      },
      {
        "astId": 70612,
        "contract": "contracts/strategies/uniswap/UniswapV3ConverterStrategy.sol:UniswapV3ConverterStrategy",
        "label": "liquidationThresholds",
        "offset": 0,
        "slot": "108",
        "type": "t_mapping(t_address,t_uint256)"
      },
      {
        "astId": 70616,
        "contract": "contracts/strategies/uniswap/UniswapV3ConverterStrategy.sol:UniswapV3ConverterStrategy",
        "label": "_csbs",
        "offset": 0,
        "slot": "109",
        "type": "t_struct(ConverterStrategyBaseState)70555_storage"
      },
      {
        "astId": 71938,
        "contract": "contracts/strategies/uniswap/UniswapV3ConverterStrategy.sol:UniswapV3ConverterStrategy",
        "label": "__gap",
        "offset": 0,
        "slot": "112",
        "type": "t_array(t_uint256)46_storage"
      }
    ],
    "types": {
      "t_address": {
        "encoding": "inplace",
        "label": "address",
        "numberOfBytes": "20"
      },
      "t_array(t_struct(FuseStateParams)92956_storage)2_storage": {
        "base": "t_struct(FuseStateParams)92956_storage",
        "encoding": "inplace",
        "label": "struct PairBasedStrategyLib.FuseStateParams[2]",
        "numberOfBytes": "320"
      },
      "t_array(t_uint256)40_storage": {
        "base": "t_uint256",
        "encoding": "inplace",
        "label": "uint256[40]",
        "numberOfBytes": "1280"
      },
      "t_array(t_uint256)43_storage": {
        "base": "t_uint256",
        "encoding": "inplace",
        "label": "uint256[43]",
        "numberOfBytes": "1376"
      },
      "t_array(t_uint256)46_storage": {
        "base": "t_uint256",
        "encoding": "inplace",
        "label": "uint256[46]",
        "numberOfBytes": "1472"
      },
      "t_array(t_uint256)4_storage": {
        "base": "t_uint256",
        "encoding": "inplace",
        "label": "uint256[4]",
        "numberOfBytes": "128"
      },
      "t_bool": {
        "encoding": "inplace",
        "label": "bool",
        "numberOfBytes": "1"
      },
      "t_contract(ITetuConverter)44122": {
        "encoding": "inplace",
        "label": "contract ITetuConverter",
        "numberOfBytes": "20"
      },
      "t_enum(FuseStatus)92921": {
        "encoding": "inplace",
        "label": "enum PairBasedStrategyLib.FuseStatus",
        "numberOfBytes": "1"
      },
      "t_int24": {
        "encoding": "inplace",
        "label": "int24",
        "numberOfBytes": "3"
      },
      "t_mapping(t_address,t_uint256)": {
        "encoding": "mapping",
        "key": "t_address",
        "label": "mapping(address => uint256)",
        "numberOfBytes": "32",
        "value": "t_uint256"
      },
      "t_string_storage": {
        "encoding": "bytes",
        "label": "string",
        "numberOfBytes": "32"
      },
      "t_struct(BaseState)5205_storage": {
        "encoding": "inplace",
        "label": "struct IStrategyV3.BaseState",
        "members": [
          {
            "astId": 5186,
            "contract": "contracts/strategies/uniswap/UniswapV3ConverterStrategy.sol:UniswapV3ConverterStrategy",
            "label": "asset",
            "offset": 0,
            "slot": "0",
            "type": "t_address"
          },
          {
            "astId": 5189,
            "contract": "contracts/strategies/uniswap/UniswapV3ConverterStrategy.sol:UniswapV3ConverterStrategy",
            "label": "splitter",
            "offset": 0,
            "slot": "1",
            "type": "t_address"
          },
          {
            "astId": 5192,
            "contract": "contracts/strategies/uniswap/UniswapV3ConverterStrategy.sol:UniswapV3ConverterStrategy",
            "label": "performanceReceiver",
            "offset": 0,
            "slot": "2",
            "type": "t_address"
          },
          {
            "astId": 5195,
            "contract": "contracts/strategies/uniswap/UniswapV3ConverterStrategy.sol:UniswapV3ConverterStrategy",
            "label": "performanceFee",
            "offset": 0,
            "slot": "3",
            "type": "t_uint256"
          },
          {
            "astId": 5198,
            "contract": "contracts/strategies/uniswap/UniswapV3ConverterStrategy.sol:UniswapV3ConverterStrategy",
            "label": "performanceFeeRatio",
            "offset": 0,
            "slot": "4",
            "type": "t_uint256"
          },
          {
            "astId": 5201,
            "contract": "contracts/strategies/uniswap/UniswapV3ConverterStrategy.sol:UniswapV3ConverterStrategy",
            "label": "compoundRatio",
            "offset": 0,
            "slot": "5",
            "type": "t_uint256"
          },
          {
            "astId": 5204,
            "contract": "contracts/strategies/uniswap/UniswapV3ConverterStrategy.sol:UniswapV3ConverterStrategy",
            "label": "strategySpecificName",
            "offset": 0,
            "slot": "6",
            "type": "t_string_storage"
          }
        ],
        "numberOfBytes": "224"
      },
      "t_struct(ConverterStrategyBaseState)70555_storage": {
        "encoding": "inplace",
        "label": "struct ConverterStrategyBase.ConverterStrategyBaseState",
        "members": [
          {
            "astId": 70547,
            "contract": "contracts/strategies/uniswap/UniswapV3ConverterStrategy.sol:UniswapV3ConverterStrategy",
            "label": "investedAssets",
            "offset": 0,
            "slot": "0",
            "type": "t_uint256"
          },
          {
            "astId": 70551,
            "contract": "contracts/strategies/uniswap/UniswapV3ConverterStrategy.sol:UniswapV3ConverterStrategy",
            "label": "converter",
            "offset": 0,
            "slot": "1",
            "type": "t_contract(ITetuConverter)44122"
          },
          {
            "astId": 70554,
            "contract": "contracts/strategies/uniswap/UniswapV3ConverterStrategy.sol:UniswapV3ConverterStrategy",
            "label": "reinvestThresholdPercent",
            "offset": 0,
            "slot": "2",
            "type": "t_uint256"
          }
        ],
        "numberOfBytes": "96"
      },
      "t_struct(FuseStateParams)92956_storage": {
        "encoding": "inplace",
        "label": "struct PairBasedStrategyLib.FuseStateParams",
        "members": [
          {
            "astId": 92950,
            "contract": "contracts/strategies/uniswap/UniswapV3ConverterStrategy.sol:UniswapV3ConverterStrategy",
            "label": "status",
            "offset": 0,
            "slot": "0",
            "type": "t_enum(FuseStatus)92921"
          },
          {
            "astId": 92955,
            "contract": "contracts/strategies/uniswap/UniswapV3ConverterStrategy.sol:UniswapV3ConverterStrategy",
            "label": "thresholds",
            "offset": 0,
            "slot": "1",
            "type": "t_array(t_uint256)4_storage"
          }
        ],
        "numberOfBytes": "160"
      },
      "t_struct(PairState)94922_storage": {
        "encoding": "inplace",
        "label": "struct PairBasedStrategyLogicLib.PairState",
        "members": [
          {
            "astId": 94886,
            "contract": "contracts/strategies/uniswap/UniswapV3ConverterStrategy.sol:UniswapV3ConverterStrategy",
            "label": "pool",
            "offset": 0,
            "slot": "0",
            "type": "t_address"
          },
          {
            "astId": 94888,
            "contract": "contracts/strategies/uniswap/UniswapV3ConverterStrategy.sol:UniswapV3ConverterStrategy",
            "label": "strategyProfitHolder",
            "offset": 0,
            "slot": "1",
            "type": "t_address"
          },
          {
            "astId": 94891,
            "contract": "contracts/strategies/uniswap/UniswapV3ConverterStrategy.sol:UniswapV3ConverterStrategy",
            "label": "tokenA",
            "offset": 0,
            "slot": "2",
            "type": "t_address"
          },
          {
            "astId": 94894,
            "contract": "contracts/strategies/uniswap/UniswapV3ConverterStrategy.sol:UniswapV3ConverterStrategy",
            "label": "tokenB",
            "offset": 0,
            "slot": "3",
            "type": "t_address"
          },
          {
            "astId": 94896,
            "contract": "contracts/strategies/uniswap/UniswapV3ConverterStrategy.sol:UniswapV3ConverterStrategy",
            "label": "isStablePool",
            "offset": 20,
            "slot": "3",
            "type": "t_bool"
          },
          {
            "astId": 94899,
            "contract": "contracts/strategies/uniswap/UniswapV3ConverterStrategy.sol:UniswapV3ConverterStrategy",
            "label": "depositorSwapTokens",
            "offset": 21,
            "slot": "3",
            "type": "t_bool"
          },
          {
            "astId": 94901,
            "contract": "contracts/strategies/uniswap/UniswapV3ConverterStrategy.sol:UniswapV3ConverterStrategy",
            "label": "tickSpacing",
            "offset": 22,
            "slot": "3",
            "type": "t_int24"
          },
          {
            "astId": 94903,
            "contract": "contracts/strategies/uniswap/UniswapV3ConverterStrategy.sol:UniswapV3ConverterStrategy",
            "label": "lowerTick",
            "offset": 25,
            "slot": "3",
            "type": "t_int24"
          },
          {
            "astId": 94905,
            "contract": "contracts/strategies/uniswap/UniswapV3ConverterStrategy.sol:UniswapV3ConverterStrategy",
            "label": "upperTick",
            "offset": 28,
            "slot": "3",
            "type": "t_int24"
          },
          {
            "astId": 94907,
            "contract": "contracts/strategies/uniswap/UniswapV3ConverterStrategy.sol:UniswapV3ConverterStrategy",
            "label": "rebalanceTickRange",
            "offset": 0,
            "slot": "4",
            "type": "t_int24"
          },
          {
            "astId": 94909,
            "contract": "contracts/strategies/uniswap/UniswapV3ConverterStrategy.sol:UniswapV3ConverterStrategy",
            "label": "totalLiquidity",
            "offset": 3,
            "slot": "4",
            "type": "t_uint128"
          },
          {
            "astId": 94915,
            "contract": "contracts/strategies/uniswap/UniswapV3ConverterStrategy.sol:UniswapV3ConverterStrategy",
            "label": "fuseAB",
            "offset": 0,
            "slot": "5",
            "type": "t_array(t_struct(FuseStateParams)92956_storage)2_storage"
          },
          {
            "astId": 94918,
            "contract": "contracts/strategies/uniswap/UniswapV3ConverterStrategy.sol:UniswapV3ConverterStrategy",
            "label": "withdrawDone",
            "offset": 0,
            "slot": "15",
            "type": "t_uint256"
          },
          {
            "astId": 94921,
            "contract": "contracts/strategies/uniswap/UniswapV3ConverterStrategy.sol:UniswapV3ConverterStrategy",
            "label": "lastRebalanceNoSwap",
            "offset": 0,
            "slot": "16",
            "type": "t_uint256"
          }
        ],
        "numberOfBytes": "544"
      },
      "t_struct(State)98109_storage": {
        "encoding": "inplace",
        "label": "struct UniswapV3ConverterStrategyLogicLib.State",
        "members": [
          {
            "astId": 98108,
            "contract": "contracts/strategies/uniswap/UniswapV3ConverterStrategy.sol:UniswapV3ConverterStrategy",
            "label": "pair",
            "offset": 0,
            "slot": "0",
            "type": "t_struct(PairState)94922_storage"
          }
        ],
        "numberOfBytes": "544"
      },
      "t_uint128": {
        "encoding": "inplace",
        "label": "uint128",
        "numberOfBytes": "16"
      },
      "t_uint256": {
        "encoding": "inplace",
        "label": "uint256",
        "numberOfBytes": "32"
      },
      "t_uint8": {
        "encoding": "inplace",
        "label": "uint8",
        "numberOfBytes": "1"
      }
    }
  }
}