{
  "address": "0x6CbC6FC85bC79F4BAD09126Bc7C1B753E0224Bb5",
  "abi": [
    {
      "anonymous": false,
      "inputs": [
        {
          "indexed": false,
          "internalType": "address",
          "name": "token",
          "type": "address"
        },
        {
          "indexed": false,
          "internalType": "uint256",
          "name": "amount",
          "type": "uint256"
        }
      ],
      "name": "Claimed",
      "type": "event"
    },
    {
      "anonymous": false,
      "inputs": [
        {
          "indexed": false,
          "internalType": "uint256",
          "name": "oldValue",
          "type": "uint256"
        },
        {
          "indexed": false,
          "internalType": "uint256",
          "name": "newValue",
          "type": "uint256"
        }
      ],
      "name": "CompoundRatioChanged",
      "type": "event"
    },
    {
      "anonymous": false,
      "inputs": [
        {
          "indexed": false,
          "internalType": "address",
          "name": "controller",
          "type": "address"
        },
        {
          "indexed": false,
          "internalType": "uint256",
          "name": "ts",
          "type": "uint256"
        },
        {
          "indexed": false,
          "internalType": "uint256",
          "name": "block",
          "type": "uint256"
        }
      ],
      "name": "ContractInitialized",
      "type": "event"
    },
    {
      "anonymous": false,
      "inputs": [
        {
          "indexed": false,
          "internalType": "uint256",
          "name": "amount",
          "type": "uint256"
        }
      ],
      "name": "DepositToPool",
      "type": "event"
    },
    {
      "anonymous": false,
      "inputs": [
        {
          "indexed": false,
          "internalType": "address",
          "name": "sender",
          "type": "address"
        },
        {
          "indexed": false,
          "internalType": "uint256",
          "name": "amount",
          "type": "uint256"
        }
      ],
      "name": "EmergencyExit",
      "type": "event"
    },
    {
      "anonymous": false,
      "inputs": [
        {
          "indexed": false,
          "internalType": "uint8",
          "name": "version",
          "type": "uint8"
        }
      ],
      "name": "Initialized",
      "type": "event"
    },
    {
      "anonymous": false,
      "inputs": [
        {
          "indexed": false,
          "internalType": "uint256",
          "name": "balance",
          "type": "uint256"
        }
      ],
      "name": "InvestAll",
      "type": "event"
    },
    {
      "anonymous": false,
      "inputs": [
        {
          "indexed": false,
          "internalType": "address",
          "name": "token",
          "type": "address"
        },
        {
          "indexed": false,
          "internalType": "uint256",
          "name": "amount",
          "type": "uint256"
        }
      ],
      "name": "LiquidationThresholdChanged",
      "type": "event"
    },
    {
      "anonymous": false,
      "inputs": [
        {
          "indexed": false,
          "internalType": "address",
          "name": "sender",
          "type": "address"
        }
      ],
      "name": "ManualClaim",
      "type": "event"
    },
    {
      "anonymous": false,
      "inputs": [
        {
          "indexed": false,
          "internalType": "uint256[]",
          "name": "withdrawnAmounts",
          "type": "uint256[]"
        }
      ],
      "name": "OnDepositorEmergencyExit",
      "type": "event"
    },
    {
      "anonymous": false,
      "inputs": [
        {
          "indexed": false,
          "internalType": "uint256[]",
          "name": "amounts",
          "type": "uint256[]"
        },
        {
          "indexed": false,
          "internalType": "uint256[]",
          "name": "consumedAmounts",
          "type": "uint256[]"
        }
      ],
      "name": "OnDepositorEnter",
      "type": "event"
    },
    {
      "anonymous": false,
      "inputs": [
        {
          "indexed": false,
          "internalType": "uint256",
          "name": "liquidityAmount",
          "type": "uint256"
        },
        {
          "indexed": false,
          "internalType": "uint256[]",
          "name": "withdrawnAmounts",
          "type": "uint256[]"
        }
      ],
      "name": "OnDepositorExit",
      "type": "event"
    },
    {
      "anonymous": false,
      "inputs": [
        {
          "indexed": false,
          "internalType": "address[]",
          "name": "rewardTokens",
          "type": "address[]"
        },
        {
          "indexed": false,
          "internalType": "uint256[]",
          "name": "amountsToForward",
          "type": "uint256[]"
        },
        {
          "indexed": false,
          "internalType": "uint256[]",
          "name": "performanceAmounts",
          "type": "uint256[]"
        }
      ],
      "name": "Recycle",
      "type": "event"
    },
    {
      "anonymous": false,
      "inputs": [
        {
          "indexed": false,
          "internalType": "uint256",
          "name": "amount",
          "type": "uint256"
        }
      ],
      "name": "ReinvestThresholdPercentChanged",
      "type": "event"
    },
    {
      "anonymous": false,
      "inputs": [
        {
          "indexed": false,
          "internalType": "address",
          "name": "asset",
          "type": "address"
        },
        {
          "indexed": false,
          "internalType": "uint256",
          "name": "amount",
          "type": "uint256"
        }
      ],
      "name": "ReturnAssetToConverter",
      "type": "event"
    },
    {
      "anonymous": false,
      "inputs": [
        {
          "indexed": false,
          "internalType": "uint256",
          "name": "value",
          "type": "uint256"
        },
        {
          "indexed": false,
          "internalType": "address",
          "name": "oldLogic",
          "type": "address"
        }
      ],
      "name": "RevisionIncreased",
      "type": "event"
    },
    {
      "anonymous": false,
      "inputs": [
        {
          "indexed": false,
          "internalType": "string",
          "name": "name",
          "type": "string"
        }
      ],
      "name": "StrategySpecificNameChanged",
      "type": "event"
    },
    {
      "anonymous": false,
      "inputs": [
        {
          "indexed": false,
          "internalType": "uint256",
          "name": "amount",
          "type": "uint256"
        }
      ],
      "name": "WithdrawAllFromPool",
      "type": "event"
    },
    {
      "anonymous": false,
      "inputs": [
        {
          "indexed": false,
          "internalType": "uint256",
          "name": "amount",
          "type": "uint256"
        }
      ],
      "name": "WithdrawAllToSplitter",
      "type": "event"
    },
    {
      "anonymous": false,
      "inputs": [
        {
          "indexed": false,
          "internalType": "uint256",
          "name": "amount",
          "type": "uint256"
        }
      ],
      "name": "WithdrawFromPool",
      "type": "event"
    },
    {
      "anonymous": false,
      "inputs": [
        {
          "indexed": false,
          "internalType": "uint256",
          "name": "amount",
          "type": "uint256"
        },
        {
          "indexed": false,
          "internalType": "uint256",
          "name": "sent",
          "type": "uint256"
        },
        {
          "indexed": false,
          "internalType": "uint256",
          "name": "balance",
          "type": "uint256"
        }
      ],
      "name": "WithdrawToSplitter",
      "type": "event"
    },
    {
      "inputs": [],
      "name": "CONTROLLABLE_VERSION",
      "outputs": [
        {
          "internalType": "string",
          "name": "",
          "type": "string"
        }
      ],
      "stateMutability": "view",
      "type": "function"
    },
    {
      "inputs": [],
      "name": "CONVERTER_STRATEGY_BASE_VERSION",
      "outputs": [
        {
          "internalType": "string",
          "name": "",
          "type": "string"
        }
      ],
      "stateMutability": "view",
      "type": "function"
    },
    {
      "inputs": [],
      "name": "NAME",
      "outputs": [
        {
          "internalType": "string",
          "name": "",
          "type": "string"
        }
      ],
      "stateMutability": "view",
      "type": "function"
    },
    {
      "inputs": [],
      "name": "PLATFORM",
      "outputs": [
        {
          "internalType": "string",
          "name": "",
          "type": "string"
        }
      ],
      "stateMutability": "view",
      "type": "function"
    },
    {
      "inputs": [],
      "name": "STRATEGY_BASE_VERSION",
      "outputs": [
        {
          "internalType": "string",
          "name": "",
          "type": "string"
        }
      ],
      "stateMutability": "view",
      "type": "function"
    },
    {
      "inputs": [],
      "name": "STRATEGY_VERSION",
      "outputs": [
        {
          "internalType": "string",
          "name": "",
          "type": "string"
        }
      ],
      "stateMutability": "view",
      "type": "function"
    },
    {
      "inputs": [],
      "name": "UNISWAPV3_DEPOSITOR_VERSION",
      "outputs": [
        {
          "internalType": "string",
          "name": "",
          "type": "string"
        }
      ],
      "stateMutability": "view",
      "type": "function"
    },
    {
      "inputs": [],
      "name": "asset",
      "outputs": [
        {
          "internalType": "address",
          "name": "",
          "type": "address"
        }
      ],
      "stateMutability": "view",
      "type": "function"
    },
    {
      "inputs": [
        {
          "internalType": "address",
          "name": "",
          "type": "address"
        }
      ],
      "name": "baseAmounts",
      "outputs": [
        {
          "internalType": "uint256",
          "name": "",
          "type": "uint256"
        }
      ],
      "stateMutability": "view",
      "type": "function"
    },
    {
      "inputs": [],
      "name": "calcInvestedAssets",
      "outputs": [
        {
          "internalType": "uint256",
          "name": "",
          "type": "uint256"
        }
      ],
      "stateMutability": "nonpayable",
      "type": "function"
    },
    {
      "inputs": [],
      "name": "capacity",
      "outputs": [
        {
          "internalType": "uint256",
          "name": "",
          "type": "uint256"
        }
      ],
      "stateMutability": "view",
      "type": "function"
    },
    {
      "inputs": [],
      "name": "claim",
      "outputs": [],
      "stateMutability": "nonpayable",
      "type": "function"
    },
    {
      "inputs": [],
      "name": "compoundRatio",
      "outputs": [
        {
          "internalType": "uint256",
          "name": "",
          "type": "uint256"
        }
      ],
      "stateMutability": "view",
      "type": "function"
    },
    {
      "inputs": [],
      "name": "controller",
      "outputs": [
        {
          "internalType": "address",
          "name": "",
          "type": "address"
        }
      ],
      "stateMutability": "view",
      "type": "function"
    },
    {
      "inputs": [],
      "name": "converter",
      "outputs": [
        {
          "internalType": "contract ITetuConverter",
          "name": "",
          "type": "address"
        }
      ],
      "stateMutability": "view",
      "type": "function"
    },
    {
      "inputs": [],
      "name": "created",
      "outputs": [
        {
          "internalType": "uint256",
          "name": "",
          "type": "uint256"
        }
      ],
      "stateMutability": "view",
      "type": "function"
    },
    {
      "inputs": [],
      "name": "createdBlock",
      "outputs": [
        {
          "internalType": "uint256",
          "name": "",
          "type": "uint256"
        }
      ],
      "stateMutability": "view",
      "type": "function"
    },
    {
      "inputs": [],
      "name": "disableFuse",
      "outputs": [],
      "stateMutability": "nonpayable",
      "type": "function"
    },
    {
      "inputs": [],
      "name": "doHardWork",
      "outputs": [
        {
          "internalType": "uint256",
          "name": "",
          "type": "uint256"
        },
        {
          "internalType": "uint256",
          "name": "",
          "type": "uint256"
        }
      ],
      "stateMutability": "nonpayable",
      "type": "function"
    },
    {
      "inputs": [],
      "name": "emergencyExit",
      "outputs": [],
      "stateMutability": "nonpayable",
      "type": "function"
    },
    {
      "inputs": [],
      "name": "getFees",
      "outputs": [
        {
          "internalType": "uint256",
          "name": "fee0",
          "type": "uint256"
        },
        {
          "internalType": "uint256",
          "name": "fee1",
          "type": "uint256"
        }
      ],
      "stateMutability": "view",
      "type": "function"
    },
    {
      "inputs": [],
      "name": "getState",
      "outputs": [
        {
          "internalType": "address",
          "name": "tokenA",
          "type": "address"
        },
        {
          "internalType": "address",
          "name": "tokenB",
          "type": "address"
        },
        {
          "internalType": "contract IUniswapV3Pool",
          "name": "pool",
          "type": "address"
        },
        {
          "internalType": "int24",
          "name": "tickSpacing",
          "type": "int24"
        },
        {
          "internalType": "int24",
          "name": "lowerTick",
          "type": "int24"
        },
        {
          "internalType": "int24",
          "name": "upperTick",
          "type": "int24"
        },
        {
          "internalType": "int24",
          "name": "rebalanceTickRange",
          "type": "int24"
        },
        {
          "internalType": "uint128",
          "name": "totalLiquidity",
          "type": "uint128"
        },
        {
          "internalType": "bool",
          "name": "isFuseTriggered",
          "type": "bool"
        },
        {
          "internalType": "uint256",
          "name": "fuseThreshold",
          "type": "uint256"
        },
        {
          "internalType": "uint256[]",
          "name": "rebalanceResults",
          "type": "uint256[]"
        }
      ],
      "stateMutability": "view",
      "type": "function"
    },
    {
      "inputs": [
        {
          "internalType": "address",
          "name": "oldLogic",
          "type": "address"
        }
      ],
      "name": "increaseRevision",
      "outputs": [],
      "stateMutability": "nonpayable",
      "type": "function"
    },
    {
      "inputs": [
        {
          "internalType": "address",
          "name": "controller_",
          "type": "address"
        },
        {
          "internalType": "address",
          "name": "splitter_",
          "type": "address"
        },
        {
          "internalType": "address",
          "name": "converter_",
          "type": "address"
        },
        {
          "internalType": "address",
          "name": "pool_",
          "type": "address"
        },
        {
          "internalType": "int24",
          "name": "tickRange_",
          "type": "int24"
        },
        {
          "internalType": "int24",
          "name": "rebalanceTickRange_",
          "type": "int24"
        }
      ],
      "name": "init",
      "outputs": [],
      "stateMutability": "nonpayable",
      "type": "function"
    },
    {
      "inputs": [
        {
          "internalType": "uint256",
          "name": "",
          "type": "uint256"
        },
        {
          "internalType": "bool",
          "name": "updateTotalAssetsBeforeInvest_",
          "type": "bool"
        }
      ],
      "name": "investAll",
      "outputs": [
        {
          "internalType": "uint256",
          "name": "strategyLoss",
          "type": "uint256"
        }
      ],
      "stateMutability": "nonpayable",
      "type": "function"
    },
    {
      "inputs": [],
      "name": "investedAssets",
      "outputs": [
        {
          "internalType": "uint256",
          "name": "",
          "type": "uint256"
        }
      ],
      "stateMutability": "view",
      "type": "function"
    },
    {
      "inputs": [
        {
          "internalType": "address",
          "name": "_value",
          "type": "address"
        }
      ],
      "name": "isController",
      "outputs": [
        {
          "internalType": "bool",
          "name": "",
          "type": "bool"
        }
      ],
      "stateMutability": "view",
      "type": "function"
    },
    {
      "inputs": [
        {
          "internalType": "address",
          "name": "_value",
          "type": "address"
        }
      ],
      "name": "isGovernance",
      "outputs": [
        {
          "internalType": "bool",
          "name": "",
          "type": "bool"
        }
      ],
      "stateMutability": "view",
      "type": "function"
    },
    {
      "inputs": [],
      "name": "isReadyToHardWork",
      "outputs": [
        {
          "internalType": "bool",
          "name": "",
          "type": "bool"
        }
      ],
      "stateMutability": "view",
      "type": "function"
    },
    {
      "inputs": [
        {
          "internalType": "address",
          "name": "",
          "type": "address"
        }
      ],
      "name": "liquidationThresholds",
      "outputs": [
        {
          "internalType": "uint256",
          "name": "",
          "type": "uint256"
        }
      ],
      "stateMutability": "view",
      "type": "function"
    },
    {
      "inputs": [],
      "name": "needRebalance",
      "outputs": [
        {
          "internalType": "bool",
          "name": "",
          "type": "bool"
        }
      ],
      "stateMutability": "view",
      "type": "function"
    },
    {
      "inputs": [
        {
          "internalType": "address[]",
          "name": "assets_",
          "type": "address[]"
        },
        {
          "internalType": "uint256[]",
          "name": "amounts_",
          "type": "uint256[]"
        }
      ],
      "name": "onTransferAmounts",
      "outputs": [],
      "stateMutability": "nonpayable",
      "type": "function"
    },
    {
      "inputs": [],
      "name": "performanceFee",
      "outputs": [
        {
          "internalType": "uint256",
          "name": "",
          "type": "uint256"
        }
      ],
      "stateMutability": "view",
      "type": "function"
    },
    {
      "inputs": [],
      "name": "performanceReceiver",
      "outputs": [
        {
          "internalType": "address",
          "name": "",
          "type": "address"
        }
      ],
      "stateMutability": "view",
      "type": "function"
    },
    {
      "inputs": [],
      "name": "previousImplementation",
      "outputs": [
        {
          "internalType": "address",
          "name": "",
          "type": "address"
        }
      ],
      "stateMutability": "view",
      "type": "function"
    },
    {
      "inputs": [],
      "name": "rebalance",
      "outputs": [],
      "stateMutability": "nonpayable",
      "type": "function"
    },
    {
      "inputs": [],
      "name": "reinvestThresholdPercent",
      "outputs": [
        {
          "internalType": "uint256",
          "name": "",
          "type": "uint256"
        }
      ],
      "stateMutability": "view",
      "type": "function"
    },
    {
      "inputs": [
        {
          "internalType": "address",
          "name": "theAsset_",
          "type": "address"
        },
        {
          "internalType": "uint256",
          "name": "amount_",
          "type": "uint256"
        }
      ],
      "name": "requirePayAmountBack",
      "outputs": [
        {
          "internalType": "uint256",
          "name": "amountOut",
          "type": "uint256"
        }
      ],
      "stateMutability": "nonpayable",
      "type": "function"
    },
    {
      "inputs": [],
      "name": "revision",
      "outputs": [
        {
          "internalType": "uint256",
          "name": "",
          "type": "uint256"
        }
      ],
      "stateMutability": "view",
      "type": "function"
    },
    {
      "inputs": [
        {
          "internalType": "uint256",
          "name": "value",
          "type": "uint256"
        }
      ],
      "name": "setCompoundRatio",
      "outputs": [],
      "stateMutability": "nonpayable",
      "type": "function"
    },
    {
      "inputs": [
        {
          "internalType": "uint256",
          "name": "newFuseThreshold",
          "type": "uint256"
        }
      ],
      "name": "setFuseThreshold",
      "outputs": [],
      "stateMutability": "nonpayable",
      "type": "function"
    },
    {
      "inputs": [
        {
          "internalType": "address",
          "name": "token",
          "type": "address"
        },
        {
          "internalType": "uint256",
          "name": "amount",
          "type": "uint256"
        }
      ],
      "name": "setLiquidationThreshold",
      "outputs": [],
      "stateMutability": "nonpayable",
      "type": "function"
    },
    {
      "inputs": [
        {
          "internalType": "uint256",
          "name": "percent_",
          "type": "uint256"
        }
      ],
      "name": "setReinvestThresholdPercent",
      "outputs": [],
      "stateMutability": "nonpayable",
      "type": "function"
    },
    {
      "inputs": [
        {
          "internalType": "string",
          "name": "name",
          "type": "string"
        }
      ],
      "name": "setStrategySpecificName",
      "outputs": [],
      "stateMutability": "nonpayable",
      "type": "function"
    },
    {
      "inputs": [
        {
          "internalType": "uint256",
          "name": "fee_",
          "type": "uint256"
        },
        {
          "internalType": "address",
          "name": "receiver_",
          "type": "address"
        }
      ],
      "name": "setupPerformanceFee",
      "outputs": [],
      "stateMutability": "nonpayable",
      "type": "function"
    },
    {
      "inputs": [],
      "name": "splitter",
      "outputs": [
        {
          "internalType": "address",
          "name": "",
          "type": "address"
        }
      ],
      "stateMutability": "view",
      "type": "function"
    },
    {
      "inputs": [],
      "name": "strategySpecificName",
      "outputs": [
        {
          "internalType": "string",
          "name": "",
          "type": "string"
        }
      ],
      "stateMutability": "view",
      "type": "function"
    },
    {
      "inputs": [
        {
          "internalType": "bytes4",
          "name": "interfaceId",
          "type": "bytes4"
        }
      ],
      "name": "supportsInterface",
      "outputs": [
        {
          "internalType": "bool",
          "name": "",
          "type": "bool"
        }
      ],
      "stateMutability": "view",
      "type": "function"
    },
    {
      "inputs": [],
      "name": "totalAssets",
      "outputs": [
        {
          "internalType": "uint256",
          "name": "",
          "type": "uint256"
        }
      ],
      "stateMutability": "view",
      "type": "function"
    },
    {
      "inputs": [
        {
          "internalType": "uint256",
          "name": "amount0Owed",
          "type": "uint256"
        },
        {
          "internalType": "uint256",
          "name": "amount1Owed",
          "type": "uint256"
        },
        {
          "internalType": "bytes",
          "name": "",
          "type": "bytes"
        }
      ],
      "name": "uniswapV3MintCallback",
      "outputs": [],
      "stateMutability": "nonpayable",
      "type": "function"
    },
    {
      "inputs": [],
      "name": "withdrawAllToSplitter",
      "outputs": [
        {
          "internalType": "uint256",
          "name": "strategyLoss",
          "type": "uint256"
        }
      ],
      "stateMutability": "nonpayable",
      "type": "function"
    },
    {
      "inputs": [
        {
          "internalType": "uint256",
          "name": "amount",
          "type": "uint256"
        }
      ],
      "name": "withdrawToSplitter",
      "outputs": [
        {
          "internalType": "uint256",
          "name": "strategyLoss",
          "type": "uint256"
        }
      ],
      "stateMutability": "nonpayable",
      "type": "function"
    }
  ],
  "transactionHash": "0x22c7319b7a01668571bc2caec00606b9a4f0aaf7bc28f10870d67fa0bc04ef1c",
  "args": [],
  "numDeployments": 4,
  "solcInputHash": "cbef185973eef437de50ae38355bc170",
  "bytecode": "0x60806040523480156200001157600080fd5b506200001c62000022565b620000e3565b600054610100900460ff16156200008f5760405162461bcd60e51b815260206004820152602760248201527f496e697469616c697a61626c653a20636f6e747261637420697320696e697469604482015266616c697a696e6760c81b606482015260840160405180910390fd5b60005460ff90811614620000e1576000805460ff191660ff9081179091556040519081527f7f26b83ff96e1f2b6a682f133852f6798a09c465da95921460cefb38474024989060200160405180910390a15b565b615f7e80620000f36000396000f3fe608060405234801561001057600080fd5b50600436106102cc5760003560e01c806373a50ef51161017d578063b2457556116100d9578063d348799711610092578063d34879971461065c578063db8d55f11461066f578063dc1000a714610677578063de3d047c14610697578063dee1f0e4146106aa578063f77c4791146106bd578063ffb86c6a146106c557600080fd5b8063b2457556146105e3578063b429afeb146105f6578063bd38837b14610609578063cd4c81561461061c578063ceee861d1461062f578063d295ea701461065357600080fd5b806387c7f7701161013657806387c7f77014610529578063936725ec1461053c57806396b7b14e14610560578063996a6c9c146105735780639d0bcca014610597578063a3f4df7e1461059f578063ab9e3eee146105db57600080fd5b806373a50ef5146104a457806378327438146104c85780637cc96380146104e85780637d7c2a1c146104f05780637efc77fa146104f8578063877887821461052057600080fd5b80634593144c1161022c57806354679963116101e5578063546799631461042a5780635641ec031461043f5780635cfc1a51146104475780636207a0cf1461045157806363e27734146104755780636ffb4c8e1461048857806371ee01751461049b57600080fd5b80634593144c146103cf5780634ad0b684146103d75780634e71d92d146103df5780634fa5d854146103e75780634fac6ccd1461040457806351e03fbe1461041757600080fd5b8063253de46611610289578063253de4661461035e57806328abdef014610371578063321793a814610379578063325a19f11461038c57806333c5b58e1461039457806338d52e0f1461039c5780633cd8045e146103bc57600080fd5b806301e1d114146102d157806301ffc9a7146102ec5780630acd12c71461030f5780630e30428d146103175780631865c57d1461032c57806322b6f5e21461034b575b600080fd5b6102d96106cd565b6040519081526020015b60405180910390f35b6102ff6102fa366004614c06565b610758565b60405190151581526020016102e3565b6102d9610783565b61032a610325366004614c45565b61095f565b005b610334610a26565b6040516102e39b9a99989796959493929190614cac565b61032a610359366004614d36565b610b2b565b61032a61036c366004614d75565b610c61565b61032a610f20565b61032a610387366004614df7565b611096565b6102d961116f565b6102d96111a3565b603d546103af906001600160a01b031681565b6040516102e39190614e10565b603e546103af906001600160a01b031681565b6102d96111ad565b6044546102d9565b61032a6111dd565b6103ef61128c565b604080519283526020830191909152016102e3565b61032a610412366004614e24565b6112f1565b6102d9610425366004614df7565b61141c565b610432611628565b6040516102e39190614e91565b61032a6116b6565b600160ff1b6102d9565b610432604051806040016040528060058152602001640312e322e360dc1b81525081565b61032a610483366004614f11565b6117f0565b61032a610496366004614df7565b6118a8565b6102d960475481565b61043260405180604001604052806005815260200164322e322e3160d81b81525081565b6102d96104d6366004614e24565b60466020526000908152604090205481565b6102d9611999565b61032a6119c9565b61043260405180604001604052806009815260200168556e6973776170563360b81b81525081565b6102d960425481565b6102d9610537366004614c45565b611c4e565b610432604051806040016040528060058152602001640332e302e360dc1b81525081565b61032a61056e366004615019565b6120b5565b61043260405180604001604052806005815260200164312e302e3160d81b81525081565b6103af612106565b6104326040518060400160405280601c81526020017f556e6973776170563320436f6e7665727465722053747261746567790000000081525081565b6102ff612136565b6102d96105f13660046150e8565b6121c1565b6102ff610604366004614e24565b6122f1565b6045546103af906001600160a01b031681565b6041546103af906001600160a01b031681565b610432604051806040016040528060058152602001640312e312e360dc1b81525081565b6102d9603f5481565b61032a61066a36600461510d565b612316565b6103ef6123f2565b6102d9610685366004614e24565b60406020819052600091825290205481565b61032a6106a5366004614df7565b61246a565b6102ff6106b8366004614e24565b612564565b6103af6125e9565b6102ff612619565b60006106d860445490565b603d546040516370a0823160e01b81526001600160a01b03909116906370a0823190610708903090600401614e10565b602060405180830381865afa158015610725573d6000803e3d6000fd5b505050506040513d601f19601f82011682018060405250810190610749919061518c565b61075391906151bb565b905090565b60006001600160e01b0319821663f73147b360e01b148061077d575061077d826126b0565b92915050565b603e54603d5460405163201de59f60e01b81526000926001600160a01b0390811692169073a6A62F6F24f27BA0cf8D9300e0D344fBC9147B669063201de59f906107d1908590600401614e10565b60006040518083038186803b1580156107e957600080fd5b505af41580156107fd573d6000803e3d6000fd5b50506040516370a0823160e01b8152600092506001600160a01b03841691506370a0823190610830903090600401614e10565b602060405180830381865afa15801561084d573d6000803e3d6000fd5b505050506040513d601f19601f82011682018060405250810190610871919061518c565b905060008060006108806126d5565b92509250925073a6A62F6F24f27BA0cf8D9300e0D344fBC9147B66631594b05b868686868b6040518663ffffffff1660e01b81526004016108c59594939291906151ce565b602060405180830381865af41580156108e2573d6000803e3d6000fd5b505050506040513d601f19601f82011682018060405250810190610906919061518c565b93508315610922576109226001600160a01b03861687866126f2565b6040518481527f97f6cbf669d73908a8de3b762891f88fcc476520fd70cb3d414dc9ac86e0a2e59060200160405180910390a19695505050505050565b73a6A62F6F24f27BA0cf8D9300e0D344fBC9147B6663493f6edc6109816125e9565b6040518263ffffffff1660e01b815260040161099d9190614e10565b60006040518083038186803b1580156109b557600080fd5b505af41580156109c9573d6000803e3d6000fd5b5050506001600160a01b03831660009081526046602052604090819020839055517f297f3fbc14027d2b4a4f7dac3dff2ad6b386024299045b0e163f131bb24b611d9150610a1a90849084906151fe565b60405180910390a15050565b6001546002805460038054600454600954600a5460408051868152608081019091526001600160a01b03988916989687169796851696600160a01b8604810b96600160c81b8704820b96600160e01b9004820b95600160301b810490920b94600160501b9092046001600160801b03169360ff9092169260609160208201838036833701905050905060016005015481600081518110610ac857610ac8615217565b60200260200101818152505060016006015481600181518110610aed57610aed615217565b60200260200101818152505060016007015481600281518110610b1257610b12615217565b602002602001018181525050909192939495969798999a565b73a6A62F6F24f27BA0cf8D9300e0D344fBC9147B66634bead669610b4d6125e9565b6040518263ffffffff1660e01b8152600401610b699190614e10565b60006040518083038186803b158015610b8157600080fd5b505af4158015610b95573d6000803e3d6000fd5b505050506127108211156040518060400160405280600c81526020016b0a6847440a8dede40d0d2ced60a31b81525090610beb5760405162461bcd60e51b8152600401610be29190614e91565b60405180910390fd5b5060408051808201909152600f81526e53423a2057726f6e672076616c756560881b60208201526001600160a01b038216610c395760405162461bcd60e51b8152600401610be29190614e91565b50604291909155604180546001600160a01b0319166001600160a01b03909216919091179055565b600054610100900460ff1615808015610c815750600054600160ff909116105b80610c9b5750303b158015610c9b575060005460ff166001145b610cfe5760405162461bcd60e51b815260206004820152602e60248201527f496e697469616c697a61626c653a20636f6e747261637420697320616c72656160448201526d191e481a5b9a5d1a585b1a5e995960921b6064820152608401610be2565b6000805460ff191660011790558015610d21576000805461ff0019166101001790555b610d8e866001600160a01b03166338d52e0f6040518163ffffffff1660e01b8152600401602060405180830381865afa158015610d62573d6000803e3d6000fd5b505050506040513d601f19601f82011682018060405250810190610d86919061522d565b85858561274d565b610d99878787612936565b604051636a65141d60e11b8152600160048201526001600160a01b038089166024830152861660448201527344C0FFB4b3FDEF4F4Da352D039E653Ae9831E2e39063d4ca283a9060640160006040518083038186803b158015610dfb57600080fd5b505af4158015610e0f573d6000803e3d6000fd5b5050604051631ade875b60e31b8152600160048201527344C0FFB4b3FDEF4F4Da352D039E653Ae9831E2e3925063d6f43ad89150602401600060405180830381865af4158015610e63573d6000803e3d6000fd5b505050506040513d6000823e601f3d908101601f19168201604052610e8b919081019061527a565b604390610e989082615342565b507f13bdeb5b5bb760c04b92d93e56c576c6805359d41a13d3cca178aa7c8526b9846043604051610ec99190615401565b60405180910390a18015610f17576000805461ff0019169055604051600181527f7f26b83ff96e1f2b6a682f133852f6798a09c465da95921460cefb38474024989060200160405180910390a15b50505050505050565b73a6A62F6F24f27BA0cf8D9300e0D344fBC9147B6663493f6edc610f426125e9565b6040518263ffffffff1660e01b8152600401610f5e9190614e10565b60006040518083038186803b158015610f7657600080fd5b505af4158015610f8a573d6000803e3d6000fd5b50506009805460ff191690555050604554600154600254604051637fd6c0a160e01b81526001600160a01b03938416600482015291831660248301529190911660448201527344C0FFB4b3FDEF4F4Da352D039E653Ae9831E2e390637fd6c0a190606401602060405180830381865af415801561100b573d6000803e3d6000fd5b505050506040513d601f19601f8201168201806040525081019061102f919061518c565b6001600a01819055507344C0FFB4b3FDEF4F4Da352D039E653Ae9831E2e363f460770b6040518163ffffffff1660e01b815260040160006040518083038186803b15801561107c57600080fd5b505af4158015611090573d6000803e3d6000fd5b50505050565b73a6A62F6F24f27BA0cf8D9300e0D344fBC9147B6663493f6edc6110b86125e9565b6040518263ffffffff1660e01b81526004016110d49190614e10565b60006040518083038186803b1580156110ec57600080fd5b505af4158015611100573d6000803e3d6000fd5b505050600a82905550604051631c77945b60e31b8152600481018290527344C0FFB4b3FDEF4F4Da352D039E653Ae9831E2e39063e3bca2d89060240160006040518083038186803b15801561115457600080fd5b505af4158015611168573d6000803e3d6000fd5b5050505050565b600061075361119f60017f6f55f470bdc9cb5f04223fd822021061668e4dccb43e8727b295106dc9769c8b61548c565b5490565b60006107536129d8565b600061075361119f60017f812a673dfca07956350df10f8a654925f561d7a0da09bdbe79e653939a14d9f161548c565b73a6A62F6F24f27BA0cf8D9300e0D344fBC9147B6663493f6edc6111ff6125e9565b6040518263ffffffff1660e01b815260040161121b9190614e10565b60006040518083038186803b15801561123357600080fd5b505af4158015611247573d6000803e3d6000fd5b50505050611253612a9e565b7fed7f50f936a5ed7428d20f18e78d6dfe8bc37fd2f4e3cdb348327c7697244928336040516112829190614e10565b60405180910390a1565b603e5460408051808201909152600a81526914d08e8811195b9a595960b21b60208201526000918291906001600160a01b031633146112de5760405162461bcd60e51b8152600401610be29190614e91565b506112e96001612bf9565b915091509091565b3330146113405760405162461bcd60e51b815260206004820152601b60248201527f496e637265617365207265766973696f6e20666f7262696464656e00000000006044820152606401610be2565b600061137061119f60017f22573091f17911fb166032a3d9e0554aa73d31b7b7ddea4a4dd2995650af84bd61548c565b61137b9060016151bb565b90506113af816113ac60017f22573091f17911fb166032a3d9e0554aa73d31b7b7ddea4a4dd2995650af84bd61548c565b55565b6113de826113ac60017fbfaaa2fb63266ff27c2da975f5894955056f50419af651a81f6c5060581857e461548c565b604080518281526001600160a01b03841660208201527ff27e2ef832a4eb8ed8ec553b875eecd44764cda95b1c24170e281539e0a869c89101610a1a565b603e54603d5460405163201de59f60e01b81526000926001600160a01b0390811692169073a6A62F6F24f27BA0cf8D9300e0D344fBC9147B669063201de59f9061146a908590600401614e10565b60006040518083038186803b15801561148257600080fd5b505af4158015611496573d6000803e3d6000fd5b50506040516370a0823160e01b8152600092506001600160a01b03841691506370a08231906114c9903090600401614e10565b602060405180830381865afa1580156114e6573d6000803e3d6000fd5b505050506040513d601f19601f8201168201806040525081019061150a919061518c565b9050808511156115b657600080611529611524848961548c565b612cb2565b604051631594b05b60e01b8152909850919350915073a6A62F6F24f27BA0cf8D9300e0D344fBC9147B6690631594b05b906115709087908790879087908c906004016151ce565b602060405180830381865af415801561158d573d6000803e3d6000fd5b505050506040513d601f19601f820116820180604052508101906115b1919061518c565b925050505b60006115c28683612ccf565b905080156115de576115de6001600160a01b03841685836126f2565b60408051878152602081018390529081018390527f21b38dd19808c509ae6afc969adfaf7d35fe949c37abd493b963cf9b68cc1acb9060600160405180910390a150505050919050565b60438054611635906152c2565b80601f0160208091040260200160405190810160405280929190818152602001828054611661906152c2565b80156116ae5780601f10611683576101008083540402835291602001916116ae565b820191906000526020600020905b81548152906001019060200180831161169157829003601f168201915b505050505081565b73a6A62F6F24f27BA0cf8D9300e0D344fBC9147B6663493f6edc6116d86125e9565b6040518263ffffffff1660e01b81526004016116f49190614e10565b60006040518083038186803b15801561170c57600080fd5b505af4158015611720573d6000803e3d6000fd5b5050505061172c612ce7565b603d546040516370a0823160e01b81526001600160a01b039091169060009082906370a0823190611761903090600401614e10565b602060405180830381865afa15801561177e573d6000803e3d6000fd5b505050506040513d601f19601f820116820180604052508101906117a2919061518c565b603e549091506117bf906001600160a01b038481169116836126f2565b7ff779df072f94d207563b1ba8c286814086f1e6bb436a2652e307dccc56ed79e83382604051610a1a9291906151fe565b73a6A62F6F24f27BA0cf8D9300e0D344fBC9147B6663493f6edc6118126125e9565b6040518263ffffffff1660e01b815260040161182e9190614e10565b60006040518083038186803b15801561184657600080fd5b505af415801561185a573d6000803e3d6000fd5b50505050806043908161186d9190615342565b507f13bdeb5b5bb760c04b92d93e56c576c6805359d41a13d3cca178aa7c8526b9848160405161189d9190614e91565b60405180910390a150565b73a6A62F6F24f27BA0cf8D9300e0D344fBC9147B6663493f6edc6118ca6125e9565b6040518263ffffffff1660e01b81526004016118e69190614e10565b60006040518083038186803b1580156118fe57600080fd5b505af4158015611912573d6000803e3d6000fd5b50505050620186a08111156040518060400160405280600f81526020016e53423a2057726f6e672076616c756560881b815250906119635760405162461bcd60e51b8152600401610be29190614e91565b5060478190556040518181527fe4166dfcf23bbd3e3f764a99dc8fa740554c03c82d6019b81cf265f396f6f2fe9060200161189d565b600061075361119f60017f22573091f17911fb166032a3d9e0554aa73d31b7b7ddea4a4dd2995650af84bd61548c565b60006119d36125e9565b60405163124fdbb760e21b815290915073a6A62F6F24f27BA0cf8D9300e0D344fBC9147B669063493f6edc90611a0d908490600401614e10565b60006040518083038186803b158015611a2557600080fd5b505af4158015611a39573d6000803e3d6000fd5b5050600454600160501b90046001600160801b0316159150611a61905057611a5f612d5c565b505b60455460009081907344C0FFB4b3FDEF4F4Da352D039E653Ae9831E2e39063b24d8db0906001906001600160a01b031686611a9b60445490565b6040516001600160e01b031960e087901b16815260048101949094526001600160a01b039283166024850152911660448301526064820152608401600060405180830381865af4158015611af3573d6000803e3d6000fd5b505050506040513d6000823e601f3d908101601f19168201604052611b1b91908101906154fa565b915091508151600203611c4657611b3182612d6e565b50508015611c4657600354600654600754604051638c64d45560e01b81526001600160a01b0384166004820152600160c81b8404600290810b6024830152600160e01b8504810b6044830152600160a01b90940490930b6064840152608483019190915260a48201527344C0FFB4b3FDEF4F4Da352D039E653Ae9831E2e390638c64d4559060c401606060405180830381865af4158015611bd6573d6000803e3d6000fd5b505050506040513d601f19601f82011682018060405250810190611bfa919061555c565b600580546001600160801b0319166001600160801b03929092169190911790556004805465ffffffffffff1916630100000062ffffff9384160262ffffff191617929091169190911790555b611090612e89565b6000611ca16040518061010001604052806000815260200160006001600160a01b031681526020016060815260200160008152602001600081526020016060815260200160608152602001600081525090565b6045546001600160a01b0316602080830182905260408051808201909152600a81526914d08e8811195b9a595960b21b91810191909152903314611cf85760405162461bcd60e51b8152600401610be29190614e91565b50611d0284612e9d565b606083018190526040808401929092528151808301909252600f82526e53423a2057726f6e672076616c756560881b602083015219611d545760405162461bcd60e51b8152600401610be29190614e91565b506040810151518152611d6684612ebc565b608082015280516001600160401b03811115611d8457611d84614ea4565b604051908082528060200260200182016040528015611dad578160200160208202803683370190505b5060a082015280516001600160401b03811115611dcc57611dcc614ea4565b604051908082528060200260200182016040528015611df5578160200160208202803683370190505b5060c08201526080810151831115611e6c57611e0f612f2c565b60e0820181905215611e6c57611e288160e00151612f42565b60a0820181905260e08201516040517faebc771af58936b05e89b0be7d3f9761480181abcd4a649fbdd01753fda1697092611e6392916155a4565b60405180910390a15b828160a00151826060015181518110611e8757611e87615217565b60200260200101518260800151611e9e91906151bb565b101561201e577346217F23768C13a2eB4d9e6D274384871355005d63664e90748260a00151836060015181518110611ed857611ed8615217565b60200260200101518360800151611eef91906151bb565b611ef9908661548c565b60408401516060850151603d5460a087015160208801516001600160a01b0390921691611f246125e9565b6001600160a01b0316634046ebae6040518163ffffffff1660e01b8152600401602060405180830381865afa158015611f61573d6000803e3d6000fd5b505050506040513d601f19601f82011682018060405250810190611f85919061522d565b6001600160a01b038d16600090815260466020526040902054611faa61012c806151bb565b6040518a63ffffffff1660e01b8152600401611fce999897969594939291906155f6565b600060405180830381865af4158015611feb573d6000803e3d6000fd5b505050506040513d6000823e601f3d908101601f191682016040526120139190810190615667565b60a083015260c08201525b6120588160a0015182606001518151811061203b5761203b615217565b6020026020010151826080015161205291906151bb565b84612ccf565b6020820151909250612075906001600160a01b03861690846126f2565b7f178d2d6770c9dbd24f8d3e4dc08998cad5a42857f107435518f65c761e253bcc84836040516120a69291906151fe565b60405180910390a15092915050565b8151815160408051808201909152600d81526c54532d3139206c656e6774687360981b60208201529082146120fd5760405162461bcd60e51b8152600401610be29190614e91565b50611090612e89565b600061075361119f60017fbfaaa2fb63266ff27c2da975f5894955056f50419af651a81f6c5060581857e461548c565b604554604051635ca1bcdf60e01b8152600160048201526001600160a01b0390911660248201526000907344C0FFB4b3FDEF4F4Da352D039E653Ae9831E2e390635ca1bcdf906044015b602060405180830381865af415801561219d573d6000803e3d6000fd5b505050506040513d601f19601f8201168201806040525081019061075391906156c0565b603e5460405163201de59f60e01b815260009173a6A62F6F24f27BA0cf8D9300e0D344fBC9147B669163201de59f91612208916001600160a01b0390911690600401614e10565b60006040518083038186803b15801561222057600080fd5b505af4158015612234573d6000803e3d6000fd5b5050603d546040516370a0823160e01b8152600093506001600160a01b0390911691506370a082319061226b903090600401614e10565b602060405180830381865afa158015612288573d6000803e3d6000fd5b505050506040513d601f19601f820116820180604052508101906122ac919061518c565b905080156122c1576122be81846130fc565b91505b6040518181527f94bcfc9a8eba5229c2956ccb1858733fce588bc02145ac053c40b9827a33837f906020016120a6565b60006122fb6125e9565b6001600160a01b0316826001600160a01b0316149050919050565b6003546001600160a01b031633146123625760405162461bcd60e51b815260206004820152600f60248201526e31b0b6363130b1b59031b0b63632b960891b6044820152606401610be2565b83156123af576004546123af9033908690600160481b900460ff16612392576001546001600160a01b031661239f565b6002546001600160a01b03165b6001600160a01b031691906126f2565b8215611090576004546110909033908590600160481b900460ff166123df576002546001600160a01b031661239f565b6001546001600160a01b031691906126f2565b604051631a2d761b60e11b81526001600482015260009081907344C0FFB4b3FDEF4F4Da352D039E653Ae9831E2e39063345aec36906024016040805180830381865af4158015612446573d6000803e3d6000fd5b505050506040513d601f19601f820116820180604052508101906112e991906156dd565b73a6A62F6F24f27BA0cf8D9300e0D344fBC9147B6663ac1d8b3561248c6125e9565b6040518263ffffffff1660e01b81526004016124a89190614e10565b60006040518083038186803b1580156124c057600080fd5b505af41580156124d4573d6000803e3d6000fd5b50505050620186a08111156040518060400160405280600c81526020016b0a6847440a8dede40d0d2ced60a31b815250906125225760405162461bcd60e51b8152600401610be29190614e91565b50603f5460408051918252602082018390527f89979f75740477f1609671a960c1f57e40a47e58bdf1623bc683d806fb6407e5910160405180910390a1603f55565b6000816001600160a01b03166125786125e9565b6001600160a01b0316635aa6e6756040518163ffffffff1660e01b8152600401602060405180830381865afa1580156125b5573d6000803e3d6000fd5b505050506040513d601f19601f820116820180604052508101906125d9919061522d565b6001600160a01b03161492915050565b600061075361119f60017f5165972ef41194f06c5007493031d0b927c20741adcb74403b954009fd2c361861548c565b60095460035460048054604051632beacd5760e11b815260ff9094161515918401919091526001600160a01b0382166024840152600160c81b8204600290810b6044850152600160e01b8304810b6064850152600160a01b909204820b6084840152600160301b9004900b60a48201526000907344C0FFB4b3FDEF4F4Da352D039E653Ae9831E2e3906357d59aae9060c401612180565b60006001600160e01b0319821663c19fa56160e01b148061077d575061077d8261319f565b60008060006126e6600060016131d4565b91959094509092509050565b6127488363a9059cbb60e01b84846040516024016127119291906151fe565b60408051601f198184030181529190526020810180516001600160e01b03166001600160e01b031990931692909217909152613678565b505050565b600054610100900460ff166127745760405162461bcd60e51b8152600401610be290615701565b60408051808201909152601181527054532d31207a65726f206164647265737360781b60208201526001600160a01b0384166127c35760405162461bcd60e51b8152600401610be29190614e91565b50600380546001600160a01b0319166001600160a01b038581169182179092556004805468ffffff0000000000001916600160301b62ffffff861602178155604051630175022560e21b815290810191909152600284810b602483015283900b604482015290851660648201527344C0FFB4b3FDEF4F4Da352D039E653Ae9831E2e3906305d408949060840160c060405180830381865af415801561286c573d6000803e3d6000fd5b505050506040513d601f19601f82011682018060405250810190612890919061574c565b60048054911515600160481b0260ff60481b19909216919091179055600280546001600160a01b039283166001600160a01b031991821617909155600180549390921692169190911790556003805462ffffff948516600160a01b0262ffffff60a01b19948616600160c81b0262ffffff60c81b1996909416600160e01b029590951665ffffffffffff60c81b1990911617919091179190911691909117905550505050565b600054610100900460ff1661295d5760405162461bcd60e51b8152600401610be290615701565b612967838361374a565b604580546001600160a01b0319166001600160a01b0383161790556129906064620186a06157c5565b6047557fe4166dfcf23bbd3e3f764a99dc8fa740554c03c82d6019b81cf265f396f6f2fe6129c26064620186a06157c5565b60405190815260200160405180910390a1505050565b603d54600090819081906129f4906001600160a01b0316612e9d565b915091507346217F23768C13a2eB4d9e6D274384871355005d63c9bce69083612a23612a1e612f2c565b613973565b6045546040516001600160e01b031960e086901b168152612a5693929187916001600160a01b03909116906004016157e7565b602060405180830381865af4158015612a73573d6000803e3d6000fd5b505050506040513d601f19601f82011682018060405250810190612a97919061518c565b9250505090565b6000806000612aab613a4d565b604554929550909350915060009081907346217F23768C13a2eB4d9e6D274384871355005d90635b12b551906001600160a01b0316612ae8613bae565b8888886040518663ffffffff1660e01b8152600401612b0b95949392919061582e565b600060405180830381865af4158015612b28573d6000803e3d6000fd5b505050506040513d6000823e601f3d908101601f19168201604052612b509190810190615898565b815191935091508015612bf1576000612b698484613c42565b9050736A7eB37dA27bBB21b23888Be3d87b98aeFed8a2363acf741a3612b8d6125e9565b603e546040516001600160e01b031960e085901b168152612bbf92916001600160a01b03169089908790600401615945565b60006040518083038186803b158015612bd757600080fd5b505af4158015612beb573d6000803e3d6000fd5b50505050505b505050505050565b604454600090819081612c0a612e89565b90506000612c16613e30565b91965094509050612c2983838787613ee6565b9095509350858015612c555750620186a082604754612c489190615983565b612c5291906157c5565b81115b15612caa576000612c6682846151bb565b9050612c738260006130fc565b50603d54612ca3908290612c8f906001600160a01b0316612ebc565b604454612c9c91906151bb565b8888613ee6565b9096509450505b505050915091565b6000806000612cc28460006131d4565b9196909550909350915050565b6000818310612cde5781612ce0565b825b9392505050565b6000612cf1612d5c565b90507f768a28cb3459382a3d2173feb2dad0235f8de680b109872da581a3aa269fe5f481604051612d22919061599a565b60405180910390a1603d546000908190612d44906001600160a01b0316612e9d565b91509150612d528282613f2e565b5050611090612e89565b6060610753612d69612f2c565b612f42565b606060008083600181518110612d8657612d86615217565b60200260200101511115612e845760035460048054604051638008936760e01b81527344C0FFB4b3FDEF4F4Da352D039E653Ae9831E2e393638008936793612e0f936001600160a01b03831693600160c81b8404600290810b94600160e01b9004900b928b92600160501b81046001600160801b031692600160481b90910460ff1691016159ad565b600060405180830381865af4158015612e2c573d6000803e3d6000fd5b505050506040513d6000823e601f3d908101601f19168201604052612e549190810190615a03565b600480546001600160801b03909216600160501b02600160501b600160d01b031990921691909117905590925090505b915091565b6000612e936129d8565b6044819055919050565b60606000612ea9613bae565b9150612eb58284613fdc565b9050915091565b6040516370a0823160e01b81526000906001600160a01b038316906370a0823190612eeb903090600401614e10565b602060405180830381865afa158015612f08573d6000803e3d6000fd5b505050506040513d601f19601f8201168201806040525081019061077d919061518c565b600454600160501b90046001600160801b031690565b6060600080612f4f6123f2565b915091508160016005016000828254612f6891906151bb565b909155505060078054829190600090612f829084906151bb565b925050819055507344C0FFB4b3FDEF4F4Da352D039E653Ae9831E2e36333fdd81d600160020160009054906101000a90046001600160a01b0316600160020160199054906101000a900460020b6001600201601c9054906101000a900460020b600160030160009054906101000a900460020b600160030160039054906101000a900460020b6001600301600a9054906101000a90046001600160801b0316600160040160009054906101000a90046001600160801b03168c600160030160099054906101000a900460ff166040518a63ffffffff1660e01b815260040161307299989796959493929190615a50565b600060405180830381865af415801561308f573d6000803e3d6000fd5b505050506040513d6000823e601f3d908101601f191682016040526130b79190810190615aaf565b600580546001600160801b0319166001600160801b0392831617905560048054600160501b600160d01b031916600160501b9390921692909202179055949350505050565b60095460009060ff161561318e57604080516002808252606082018352600092602083019080368337019050509050838160008151811061313f5761313f615217565b6020026020010181815250507f59400c8c523464b521238ea8f50e923f2bc64663557e6afec92a97f7efe92d05818260405161317c929190615af5565b60405180910390a1600091505061077d565b613198838361403a565b905061077d565b60006001600160e01b0319821663b7b79fa960e01b148061077d57506301ffc9a760e01b6001600160e01b031983161461077d565b6000806000806131e4600161417b565b9250905084806131f357508515155b80156131fe57508015155b1561366457600061320d613bae565b603d549091506001600160a01b031660006132288383613fdc565b6045549091506001600160a01b0316600061324284612ebc565b905060006040518060c001604052806132596141c4565b8152602001613266612f2c565b8152602001613273612f2c565b81526000602082015260408051637a55caf360e01b81526001600160a01b038088166004830152891660248201529101907346217F23768C13a2eB4d9e6D274384871355005d90637a55caf390604401602060405180830381865af41580156132e0573d6000803e3d6000fd5b505050506040513d601f19601f82011682018060405250810190613304919061518c565b81526020016000604051908082528060200260200182016040528015613334578160200160208202803683370190505b50905290507346217F23768C13a2eB4d9e6D274384871355005d6225eb888c61335d578d613360565b60005b308988888d88604001516040518863ffffffff1660e01b815260040161338c9796959493929190615b23565b600060405180830381865af41580156133a9573d6000803e3d6000fd5b505050506040513d6000823e601f3d908101601f191682016040526133d19190810190615b72565b60a0830152606080830182905290600090156134e8576133f48360600151612f42565b91507faebc771af58936b05e89b0be7d3f9761480181abcd4a649fbdd01753fda1697083606001518360405161342b9291906155a4565b60405180910390a17346217F23768C13a2eB4d9e6D274384871355005d632374491584600001518560400151866060015187602001518860a001518e8d8d613471612f2c565b8c6040518b63ffffffff1660e01b81526004016134979a99989796959493929190615bae565b600060405180830381865af41580156134b4573d6000803e3d6000fd5b505050506040513d6000823e601f3d908101601f191682016040526134dc9190810190615b72565b60a085015290506135b8565b7346217F23768C13a2eB4d9e6D274384871355005d63bc846df28988888c516001600160401b0381111561351e5761351e614ea4565b604051908082528060200260200182016040528015613547578160200160208202803683370190505b508860a001516040518663ffffffff1660e01b815260040161356d959493929190615c40565b600060405180830381865af415801561358a573d6000803e3d6000fd5b505050506040513d6000823e601f3d908101601f191682016040526135b29190810190615c7b565b90925090505b6135c888878560a001518861423f565b505060006135d4612e89565b905060006135e189612ebc565b90506135ed868c6151bb565b6135f782846151bb565b10156136285761360781836151bb565b613611878d6151bb565b61361b919061548c565b613625908d6151bb565b9b505b670de0b6b3a76400008560800151846136419190615983565b61364b91906157c5565b85608001519d509d505050505050505050505050613671565b6000806000935093509350505b9250925092565b60006136cd826040518060400160405280602081526020017f5361666545524332303a206c6f772d6c6576656c2063616c6c206661696c6564815250856001600160a01b031661437c9092919063ffffffff16565b80519091501561274857808060200190518101906136eb91906156c0565b6127485760405162461bcd60e51b815260206004820152602a60248201527f5361666545524332303a204552433230206f7065726174696f6e20646964206e6044820152691bdd081cdd58d8d9595960b21b6064820152608401610be2565b600054610100900460ff166137715760405162461bcd60e51b8152600401610be290615701565b61379b817fd2de0374d4479f33e63ae5ed6ca772a10463dd883a90c612050b51fab6196400614393565b6137a4826143ed565b60405163b429afeb60e01b81526001600160a01b0382169063b429afeb906137d0908590600401614e10565b602060405180830381865afa1580156137ed573d6000803e3d6000fd5b505050506040513d601f19601f8201168201806040525081019061381191906156c0565b6040518060400160405280600f81526020016e53423a2057726f6e672076616c756560881b815250906138575760405162461bcd60e51b8152600401610be29190614e91565b50806001600160a01b03166338d52e0f6040518163ffffffff1660e01b8152600401602060405180830381865afa158015613896573d6000803e3d6000fd5b505050506040513d601f19601f820116820180604052508101906138ba919061522d565b603d80546001600160a01b03199081166001600160a01b0393841617909155603e805490911683831617905560408051635aa6e67560e01b8152905191841691635aa6e675916004808201926020929091908290030181865afa158015613925573d6000803e3d6000fd5b505050506040513d601f19601f82011682018060405250810190613949919061522d565b604180546001600160a01b0319166001600160a01b03929092169190911790555050612710604255565b6003546004805460055460405163c68bc70360e01b81526060947344C0FFB4b3FDEF4F4Da352D039E653Ae9831E2e39463c68bc70394613a08946001600160a01b03841694600160c81b8504600290810b95600160e01b9004810b9484820b946301000000810490920b93600160501b83046001600160801b03908116949116928e92600160481b90910460ff169101615a50565b600060405180830381865af4158015613a25573d6000803e3d6000fd5b505050506040513d6000823e601f3d908101601f1916820160405261077d9190810190615cc1565b604080516002808252606082810190935282918291816020016020820280368337505060015482519295506001600160a01b031691859150600090613a9457613a94615217565b6001600160a01b039283166020918202929092010152600254845191169084906001908110613ac557613ac5615217565b6001600160a01b03928316602091820292909201015260035460048054600654600754604051630f0f4e5160e21b81527344C0FFB4b3FDEF4F4Da352D039E653Ae9831E2e396633c3d394496613b559691811695600160c81b8204600290810b96600160e01b909304810b9582820b956301000000840490920b949092600160481b900460ff16918f9101615cf5565b600060405180830381865af4158015613b72573d6000803e3d6000fd5b505050506040513d6000823e601f3d908101601f19168201604052613b9a9190810190615667565b600060068190556007559394909392509050565b6040805160028082526060808301845292602083019080368337505060015482519293506001600160a01b031691839150600090613bee57613bee615217565b6001600160a01b039283166020918202929092010152600254825191169082906001908110613c1f57613c1f615217565b60200260200101906001600160a01b031690816001600160a01b03168152505090565b60425460415460405163217cfb2b60e21b81526060926000928392736A7eB37dA27bBB21b23888Be3d87b98aeFed8a23926385f3ecac92613c95926001600160a01b03909116908a908a90600401615d60565b600060405180830381865af4158015613cb2573d6000803e3d6000fd5b505050506040513d6000823e601f3d908101601f19168201604052613cda9190810190615667565b603d54603f549294509092507346217F23768C13a2eB4d9e6D274384871355005d91632ed33962916001600160a01b031690613d14613bae565b613d1c6125e9565b6001600160a01b0316634046ebae6040518163ffffffff1660e01b8152600401602060405180830381865afa158015613d59573d6000803e3d6000fd5b505050506040513d601f19601f82011682018060405250810190613d7d919061522d565b60468b896040518863ffffffff1660e01b8152600401613da39796959493929190615d8a565b600060405180830381865af4158015613dc0573d6000803e3d6000fd5b505050506040513d6000823e601f3d908101601f19168201604052613de89190810190615cc1565b92507f171ec648141b517a8ef6cd93049918996f4e9d4a1fb9100a71f80ee513cc67a3858483604051613e1d93929190615df5565b60405180910390a1505092915050565b50565b60405163232421d960e01b815260016004820152600090819081907344C0FFB4b3FDEF4F4Da352D039E653Ae9831E2e39063232421d990602401602060405180830381865af4158015613e87573d6000803e3d6000fd5b505050506040513d601f19601f82011682018060405250810190613eab919061518c565b9250613eb5612a9e565b603d54613eca906001600160a01b0316612ebc565b60085490915015613ee15760088054600090915591505b909192565b60008085851115613f0c57613efb868661548c565b613f0590856151bb565b9350613f23565b613f16858761548c565b613f2090846151bb565b92505b509194909350915050565b600060606000736A7eB37dA27bBB21b23888Be3d87b98aeFed8a236397783a6c86866040518363ffffffff1660e01b8152600401613f6d929190615e6a565b600060405180830381865af4158015613f8a573d6000803e3d6000fd5b505050506040513d6000823e601f3d908101601f19168201604052613fb29190810190615cc1565b604554909150613fd0908690869084906001600160a01b031661423f565b90969095509350505050565b8151600090815b8181101561402e57836001600160a01b031685828151811061400757614007615217565b60200260200101516001600160a01b03160361402657915061077d9050565b600101613fe3565b50600019949350505050565b6000806140468361417b565b604754909350909150620186a09061405f908390615983565b61406991906157c5565b84111561417457603d546001600160a01b0316600061408782612ebc565b603d5490915060009081906140a4906001600160a01b0316612e9d565b60455491935091506000906140c4906001600160a01b03168a8585614610565b905060006140d182612d6e565b5090507f59400c8c523464b521238ea8f50e923f2bc64663557e6afec92a97f7efe92d058282604051614105929190615af5565b60405180910390a16000614117612e89565b9050600061412488612ebc565b9050614130878a6151bb565b61413a82846151bb565b101561416b5761414a81836151bb565b614154888b6151bb565b61415e919061548c565b614168908b6151bb565b99505b50505050505050505b5092915050565b60445460009081908361418e5780614196565b614196612e89565b9250836141a45760006141bc565b8083106141b25760006141bc565b6141bc838261548c565b915050915091565b604051630a65e5e760e01b8152600160048201526060907344C0FFB4b3FDEF4F4Da352D039E653Ae9831E2e390630a65e5e790602401600060405180830381865af4158015614217573d6000803e3d6000fd5b505050506040513d6000823e601f3d908101601f191682016040526107539190810190615cc1565b600060607346217F23768C13a2eB4d9e6D274384871355005d637047292d846142666125e9565b6001600160a01b0316634046ebae6040518163ffffffff1660e01b8152600401602060405180830381865afa1580156142a3573d6000803e3d6000fd5b505050506040513d601f19601f820116820180604052508101906142c7919061522d565b604660008b8b815181106142dd576142dd615217565b60200260200101516001600160a01b03166001600160a01b03168152602001908152602001600020548a8a8a6040518763ffffffff1660e01b815260040161432a96959493929190615e8c565b600060405180830381865af4158015614347573d6000803e3d6000fd5b505050506040513d6000823e601f3d908101601f1916820160405261436f9190810190615b72565b9150915094509492505050565b606061438b8484600085614800565b949350505050565b61439d82826148db565b6143e95760405162461bcd60e51b815260206004820152601a60248201527f496e74657266616365206973206e6f7420737570706f727465640000000000006044820152606401610be2565b5050565b600054610100900460ff166144145760405162461bcd60e51b8152600401610be290615701565b6001600160a01b03811661445c5760405162461bcd60e51b815260206004820152600f60248201526e2d32b9379031b7b73a3937b63632b960891b6044820152606401610be2565b614486817f4c2403fdcb3cff9b705d96bf0705858e3390412670a62c8bcba611ca7e20ab86614393565b60006001600160a01b0316816001600160a01b0316635aa6e6756040518163ffffffff1660e01b8152600401602060405180830381865afa1580156144cf573d6000803e3d6000fd5b505050506040513d601f19601f820116820180604052508101906144f3919061522d565b6001600160a01b03160361453b5760405162461bcd60e51b815260206004820152600f60248201526e5a65726f20676f7665726e616e636560881b6044820152606401610be2565b61456a816113ac60017f5165972ef41194f06c5007493031d0b927c20741adcb74403b954009fd2c361861548c565b614599426113ac60017f6f55f470bdc9cb5f04223fd822021061668e4dccb43e8727b295106dc9769c8b61548c565b6145c8436113ac60017f812a673dfca07956350df10f8a654925f561d7a0da09bdbe79e653939a14d9f161548c565b604080516001600160a01b038316815242602082015243918101919091527f1a2dd071001ebf6e03174e3df5b305795a4ad5d41d8fdb9ba41dbbe2367134269060600161189d565b60408051600280825260608083018452926020830190803683370190505060035460048054604051630302c45560e41b81526001600160a01b03841692810192909252600160c81b8304600290810b6024840152600160e01b8404810b6044840152600160a01b90930490920b6064820152600160481b90910460ff161515608482015290915060009081907344C0FFB4b3FDEF4F4Da352D039E653Ae9831E2e39063302c45509060a401600060405180830381865af41580156146d8573d6000803e3d6000fd5b505050506040513d6000823e601f3d908101601f19168201604052614700919081019061527a565b60015490915061471a906001600160a01b031687896149b9565b60015460025460405163ca27d10d60e01b81527346217F23768C13a2eB4d9e6D274384871355005d9263ca27d10d9261476d928c9287926001600160a01b03918216929116908d90600090600401615ee4565b6040805180830381865af4158015614789573d6000803e3d6000fd5b505050506040513d601f19601f820116820180604052508101906147ad91906156dd565b846001815181106147c0576147c0615217565b602090810291909101015291506147d7828761548c565b836000815181106147ea576147ea615217565b6020026020010181815250505050949350505050565b6060824710156148615760405162461bcd60e51b815260206004820152602660248201527f416464726573733a20696e73756666696369656e742062616c616e636520666f6044820152651c8818d85b1b60d21b6064820152608401610be2565b600080866001600160a01b0316858760405161487d9190615f2c565b60006040518083038185875af1925050503d80600081146148ba576040519150601f19603f3d011682016040523d82523d6000602084013e6148bf565b606091505b50915091506148d087838387614a5f565b979650505050505050565b60006001600160a01b0383166149225760405162461bcd60e51b815260206004820152600c60248201526b5a65726f206164647265737360a01b6044820152606401610be2565b823b600081900361493757600091505061077d565b6040516301ffc9a760e01b81526001600160e01b0319841660048201526001600160a01b038516906301ffc9a790602401602060405180830381865afa9250505080156149a1575060408051601f3d908101601f1916820190925261499e918101906156c0565b60015b156149af57915061077d9050565b5060009392505050565b604051636eb1769f60e11b81523060048201526001600160a01b03828116602483015283919085169063dd62ed3e90604401602060405180830381865afa158015614a08573d6000803e3d6000fd5b505050506040513d601f19601f82011682018060405250810190614a2c919061518c565b101561274857614a476001600160a01b038416826000614ad8565b6127486001600160a01b03841682600160ff1b614ad8565b60608315614ace578251600003614ac7576001600160a01b0385163b614ac75760405162461bcd60e51b815260206004820152601d60248201527f416464726573733a2063616c6c20746f206e6f6e2d636f6e74726163740000006044820152606401610be2565b508161438b565b61438b8383614bdc565b801580614b525750604051636eb1769f60e11b81523060048201526001600160a01b03838116602483015284169063dd62ed3e90604401602060405180830381865afa158015614b2c573d6000803e3d6000fd5b505050506040513d601f19601f82011682018060405250810190614b50919061518c565b155b614bbd5760405162461bcd60e51b815260206004820152603660248201527f5361666545524332303a20617070726f76652066726f6d206e6f6e2d7a65726f60448201527520746f206e6f6e2d7a65726f20616c6c6f77616e636560501b6064820152608401610be2565b6127488363095ea7b360e01b84846040516024016127119291906151fe565b815115614bec5781518083602001fd5b8060405162461bcd60e51b8152600401610be29190614e91565b600060208284031215614c1857600080fd5b81356001600160e01b031981168114612ce057600080fd5b6001600160a01b0381168114613e2d57600080fd5b60008060408385031215614c5857600080fd5b8235614c6381614c30565b946020939093013593505050565b600081518084526020808501945080840160005b83811015614ca157815187529582019590820190600101614c85565b509495945050505050565b6001600160a01b038c811682528b811660208301528a166040820152600289810b606083015288810b608083015287810b60a083015286900b60c08201526001600160801b03851660e082015283151561010082015261012081018390526101606101408201819052600090614d2483820185614c71565b9e9d5050505050505050505050505050565b60008060408385031215614d4957600080fd5b823591506020830135614d5b81614c30565b809150509250929050565b8060020b8114613e2d57600080fd5b60008060008060008060c08789031215614d8e57600080fd5b8635614d9981614c30565b95506020870135614da981614c30565b94506040870135614db981614c30565b93506060870135614dc981614c30565b92506080870135614dd981614d66565b915060a0870135614de981614d66565b809150509295509295509295565b600060208284031215614e0957600080fd5b5035919050565b6001600160a01b0391909116815260200190565b600060208284031215614e3657600080fd5b8135612ce081614c30565b60005b83811015614e5c578181015183820152602001614e44565b50506000910152565b60008151808452614e7d816020860160208601614e41565b601f01601f19169290920160200192915050565b602081526000612ce06020830184614e65565b634e487b7160e01b600052604160045260246000fd5b604051601f8201601f191681016001600160401b0381118282101715614ee257614ee2614ea4565b604052919050565b60006001600160401b03821115614f0357614f03614ea4565b50601f01601f191660200190565b600060208284031215614f2357600080fd5b81356001600160401b03811115614f3957600080fd5b8201601f81018413614f4a57600080fd5b8035614f5d614f5882614eea565b614eba565b818152856020838501011115614f7257600080fd5b81602084016020830137600091810160200191909152949350505050565b60006001600160401b03821115614fa957614fa9614ea4565b5060051b60200190565b600082601f830112614fc457600080fd5b81356020614fd4614f5883614f90565b82815260059290921b84018101918181019086841115614ff357600080fd5b8286015b8481101561500e5780358352918301918301614ff7565b509695505050505050565b6000806040838503121561502c57600080fd5b82356001600160401b038082111561504357600080fd5b818501915085601f83011261505757600080fd5b81356020615067614f5883614f90565b82815260059290921b8401810191818101908984111561508657600080fd5b948201945b838610156150ad57853561509e81614c30565b8252948201949082019061508b565b965050860135925050808211156150c357600080fd5b506150d085828601614fb3565b9150509250929050565b8015158114613e2d57600080fd5b600080604083850312156150fb57600080fd5b823591506020830135614d5b816150da565b6000806000806060858703121561512357600080fd5b843593506020850135925060408501356001600160401b038082111561514857600080fd5b818701915087601f83011261515c57600080fd5b81358181111561516b57600080fd5b88602082850101111561517d57600080fd5b95989497505060200194505050565b60006020828403121561519e57600080fd5b5051919050565b634e487b7160e01b600052601160045260246000fd5b8082018082111561077d5761077d6151a5565b6001600160a01b039586168152602081019490945260408401929092526060830152909116608082015260a00190565b6001600160a01b03929092168252602082015260400190565b634e487b7160e01b600052603260045260246000fd5b60006020828403121561523f57600080fd5b8151612ce081614c30565b6000615258614f5884614eea565b905082815283838301111561526c57600080fd5b612ce0836020830184614e41565b60006020828403121561528c57600080fd5b81516001600160401b038111156152a257600080fd5b8201601f810184136152b357600080fd5b61438b8482516020840161524a565b600181811c908216806152d657607f821691505b6020821081036152f657634e487b7160e01b600052602260045260246000fd5b50919050565b601f82111561274857600081815260208120601f850160051c810160208610156153235750805b601f850160051c820191505b81811015612bf15782815560010161532f565b81516001600160401b0381111561535b5761535b614ea4565b61536f8161536984546152c2565b846152fc565b602080601f8311600181146153a4576000841561538c5750858301515b600019600386901b1c1916600185901b178555612bf1565b600085815260208120601f198616915b828110156153d3578886015182559484019460019091019084016153b4565b50858210156153f15787850151600019600388901b60f8161c191681555b5050505050600190811b01905550565b6000602080835260008454615415816152c2565b8084870152604060018084166000811461543657600181146154505761547e565b60ff1985168984015283151560051b89018301955061547e565b896000528660002060005b858110156154765781548b820186015290830190880161545b565b8a0184019650505b509398975050505050505050565b8181038181111561077d5761077d6151a5565b600082601f8301126154b057600080fd5b815160206154c0614f5883614f90565b82815260059290921b840181019181810190868411156154df57600080fd5b8286015b8481101561500e57805183529183019183016154e3565b6000806040838503121561550d57600080fd5b82516001600160401b0381111561552357600080fd5b61552f8582860161549f565b9250506020830151614d5b816150da565b80516001600160801b038116811461555757600080fd5b919050565b60008060006060848603121561557157600080fd5b835161557c81614d66565b602085015190935061558d81614d66565b915061559b60408501615540565b90509250925092565b82815260406020820152600061438b6040830184614c71565b600081518084526020808501945080840160005b83811015614ca15781516001600160a01b0316875295820195908201906001016155d1565b60006101208b83528060208401526156108184018c6155bd565b604084018b90526001600160a01b038a81166060860152848203608086015290915061563c828a614c71565b97811660a08501529590951660c08301525060e0810192909252610100909101525095945050505050565b6000806040838503121561567a57600080fd5b82516001600160401b038082111561569157600080fd5b61569d8683870161549f565b935060208501519150808211156156b357600080fd5b506150d08582860161549f565b6000602082840312156156d257600080fd5b8151612ce0816150da565b600080604083850312156156f057600080fd5b505080516020909101519092909150565b6020808252602b908201527f496e697469616c697a61626c653a20636f6e7472616374206973206e6f74206960408201526a6e697469616c697a696e6760a81b606082015260800190565b60008060008060008060c0878903121561576557600080fd5b865161577081614d66565b602088015190965061578181614d66565b604088015190955061579281614d66565b60608801519094506157a381614c30565b60808801519093506157b481614c30565b60a0880151909250614de9816150da565b6000826157e257634e487b7160e01b600052601260045260246000fd5b500490565b6080815260006157fa60808301876155bd565b828103602084015261580c8187614c71565b604084019590955250506001600160a01b039190911660609091015292915050565b6001600160a01b038616815260a060208201819052600090615852908301876155bd565b828103604084015261586481876155bd565b905082810360608401526158788186614c71565b9050828103608084015261588c8185614c71565b98975050505050505050565b600080604083850312156158ab57600080fd5b82516001600160401b03808211156158c257600080fd5b818501915085601f8301126158d657600080fd5b815160206158e6614f5883614f90565b82815260059290921b8401810191818101908984111561590557600080fd5b948201945b8386101561592c57855161591d81614c30565b8252948201949082019061590a565b918801519196509093505050808211156156b357600080fd5b6001600160a01b03858116825284166020820152608060408201819052600090615971908301856155bd565b82810360608401526148d08185614c71565b808202811582820484141761077d5761077d6151a5565b602081526000612ce06020830184614c71565b60018060a01b03871681528560020b60208201528460020b604082015260c0606082015260006159e060c0830186614c71565b6001600160801b039490941660808301525090151560a090910152949350505050565b600080600060608486031215615a1857600080fd5b83516001600160401b03811115615a2e57600080fd5b615a3a8682870161549f565b9350506020840151915061559b60408501615540565b6001600160a01b03999099168952600297880b60208a015295870b604089015293860b60608801529190940b60808601526001600160801b0393841660a0860152831660c085015290911660e083015215156101008201526101200190565b600080600060608486031215615ac457600080fd5b83516001600160401b03811115615ada57600080fd5b615ae68682870161549f565b93505061558d60208501615540565b604081526000615b086040830185614c71565b8281036020840152615b1a8185614c71565b95945050505050565b878152600060018060a01b03808916602084015260e06040840152615b4b60e08401896155bd565b606084019790975294909416608082015260a081019290925260c090910152509392505050565b60008060408385031215615b8557600080fd5b8251915060208301516001600160401b03811115615ba257600080fd5b6150d08582860161549f565b6000610140808352615bc28184018e614c71565b90508b60208401528a60408401528960608401528281036080840152615be8818a614c71565b905082810360a0840152615bfc81896155bd565b60c084018890526001600160a01b03871660e085015261010084018690528381036101208501529050615c2f8185614c71565b9d9c50505050505050505050505050565b60a081526000615c5360a08301886155bd565b602083018790526001600160a01b038616604084015282810360608401526158788186614c71565b60008060408385031215615c8e57600080fd5b82516001600160401b03811115615ca457600080fd5b615cb08582860161549f565b925050602083015190509250929050565b600060208284031215615cd357600080fd5b81516001600160401b03811115615ce957600080fd5b61438b8482850161549f565b600061012060018060a01b038c1683528a60020b60208401528960020b60408401528860020b60608401528760020b60808401528660a08401528560c084015284151560e084015280610100840152615d50818401856155bd565b9c9b505050505050505050505050565b8481526001600160a01b0384166020820152608060408201819052600090615971908301856155bd565b600060018060a01b03808a16835288602084015260e06040840152615db260e08401896155bd565b818816606085015286608085015283810360a0850152615dd281876155bd565b91505082810360c0840152615de78185614c71565b9a9950505050505050505050565b606080825284519082018190526000906020906080840190828801845b82811015615e375781516001600160a01b031684529284019290840190600101615e12565b50505083810382850152615e4b8187614c71565b9150508281036040840152615e608185614c71565b9695505050505050565b604081526000615e7d60408301856155bd565b90508260208301529392505050565b6001600160a01b038781168252861660208201526040810185905260c060608201819052600090615ebf908301866155bd565b84608084015282810360a0840152615ed78185614c71565b9998505050505050505050565b600060018060a01b03808916835260c06020840152615f0660c0840189614e65565b9681166040840152949094166060820152608081019290925260a0909101525092915050565b60008251615f3e818460208701614e41565b919091019291505056fea26469706673582212206978037bbc0baff7afb48ca571bba2bbc211b29580e8915958fbdd329499b8a664736f6c63430008110033",
  "deployedBytecode": "0x608060405234801561001057600080fd5b50600436106102cc5760003560e01c806373a50ef51161017d578063b2457556116100d9578063d348799711610092578063d34879971461065c578063db8d55f11461066f578063dc1000a714610677578063de3d047c14610697578063dee1f0e4146106aa578063f77c4791146106bd578063ffb86c6a146106c557600080fd5b8063b2457556146105e3578063b429afeb146105f6578063bd38837b14610609578063cd4c81561461061c578063ceee861d1461062f578063d295ea701461065357600080fd5b806387c7f7701161013657806387c7f77014610529578063936725ec1461053c57806396b7b14e14610560578063996a6c9c146105735780639d0bcca014610597578063a3f4df7e1461059f578063ab9e3eee146105db57600080fd5b806373a50ef5146104a457806378327438146104c85780637cc96380146104e85780637d7c2a1c146104f05780637efc77fa146104f8578063877887821461052057600080fd5b80634593144c1161022c57806354679963116101e5578063546799631461042a5780635641ec031461043f5780635cfc1a51146104475780636207a0cf1461045157806363e27734146104755780636ffb4c8e1461048857806371ee01751461049b57600080fd5b80634593144c146103cf5780634ad0b684146103d75780634e71d92d146103df5780634fa5d854146103e75780634fac6ccd1461040457806351e03fbe1461041757600080fd5b8063253de46611610289578063253de4661461035e57806328abdef014610371578063321793a814610379578063325a19f11461038c57806333c5b58e1461039457806338d52e0f1461039c5780633cd8045e146103bc57600080fd5b806301e1d114146102d157806301ffc9a7146102ec5780630acd12c71461030f5780630e30428d146103175780631865c57d1461032c57806322b6f5e21461034b575b600080fd5b6102d96106cd565b6040519081526020015b60405180910390f35b6102ff6102fa366004614c06565b610758565b60405190151581526020016102e3565b6102d9610783565b61032a610325366004614c45565b61095f565b005b610334610a26565b6040516102e39b9a99989796959493929190614cac565b61032a610359366004614d36565b610b2b565b61032a61036c366004614d75565b610c61565b61032a610f20565b61032a610387366004614df7565b611096565b6102d961116f565b6102d96111a3565b603d546103af906001600160a01b031681565b6040516102e39190614e10565b603e546103af906001600160a01b031681565b6102d96111ad565b6044546102d9565b61032a6111dd565b6103ef61128c565b604080519283526020830191909152016102e3565b61032a610412366004614e24565b6112f1565b6102d9610425366004614df7565b61141c565b610432611628565b6040516102e39190614e91565b61032a6116b6565b600160ff1b6102d9565b610432604051806040016040528060058152602001640312e322e360dc1b81525081565b61032a610483366004614f11565b6117f0565b61032a610496366004614df7565b6118a8565b6102d960475481565b61043260405180604001604052806005815260200164322e322e3160d81b81525081565b6102d96104d6366004614e24565b60466020526000908152604090205481565b6102d9611999565b61032a6119c9565b61043260405180604001604052806009815260200168556e6973776170563360b81b81525081565b6102d960425481565b6102d9610537366004614c45565b611c4e565b610432604051806040016040528060058152602001640332e302e360dc1b81525081565b61032a61056e366004615019565b6120b5565b61043260405180604001604052806005815260200164312e302e3160d81b81525081565b6103af612106565b6104326040518060400160405280601c81526020017f556e6973776170563320436f6e7665727465722053747261746567790000000081525081565b6102ff612136565b6102d96105f13660046150e8565b6121c1565b6102ff610604366004614e24565b6122f1565b6045546103af906001600160a01b031681565b6041546103af906001600160a01b031681565b610432604051806040016040528060058152602001640312e312e360dc1b81525081565b6102d9603f5481565b61032a61066a36600461510d565b612316565b6103ef6123f2565b6102d9610685366004614e24565b60406020819052600091825290205481565b61032a6106a5366004614df7565b61246a565b6102ff6106b8366004614e24565b612564565b6103af6125e9565b6102ff612619565b60006106d860445490565b603d546040516370a0823160e01b81526001600160a01b03909116906370a0823190610708903090600401614e10565b602060405180830381865afa158015610725573d6000803e3d6000fd5b505050506040513d601f19601f82011682018060405250810190610749919061518c565b61075391906151bb565b905090565b60006001600160e01b0319821663f73147b360e01b148061077d575061077d826126b0565b92915050565b603e54603d5460405163201de59f60e01b81526000926001600160a01b0390811692169073__$ec217c54da363a68ad871e6868efec481c$__9063201de59f906107d1908590600401614e10565b60006040518083038186803b1580156107e957600080fd5b505af41580156107fd573d6000803e3d6000fd5b50506040516370a0823160e01b8152600092506001600160a01b03841691506370a0823190610830903090600401614e10565b602060405180830381865afa15801561084d573d6000803e3d6000fd5b505050506040513d601f19601f82011682018060405250810190610871919061518c565b905060008060006108806126d5565b92509250925073__$ec217c54da363a68ad871e6868efec481c$__631594b05b868686868b6040518663ffffffff1660e01b81526004016108c59594939291906151ce565b602060405180830381865af41580156108e2573d6000803e3d6000fd5b505050506040513d601f19601f82011682018060405250810190610906919061518c565b93508315610922576109226001600160a01b03861687866126f2565b6040518481527f97f6cbf669d73908a8de3b762891f88fcc476520fd70cb3d414dc9ac86e0a2e59060200160405180910390a19695505050505050565b73__$ec217c54da363a68ad871e6868efec481c$__63493f6edc6109816125e9565b6040518263ffffffff1660e01b815260040161099d9190614e10565b60006040518083038186803b1580156109b557600080fd5b505af41580156109c9573d6000803e3d6000fd5b5050506001600160a01b03831660009081526046602052604090819020839055517f297f3fbc14027d2b4a4f7dac3dff2ad6b386024299045b0e163f131bb24b611d9150610a1a90849084906151fe565b60405180910390a15050565b6001546002805460038054600454600954600a5460408051868152608081019091526001600160a01b03988916989687169796851696600160a01b8604810b96600160c81b8704820b96600160e01b9004820b95600160301b810490920b94600160501b9092046001600160801b03169360ff9092169260609160208201838036833701905050905060016005015481600081518110610ac857610ac8615217565b60200260200101818152505060016006015481600181518110610aed57610aed615217565b60200260200101818152505060016007015481600281518110610b1257610b12615217565b602002602001018181525050909192939495969798999a565b73__$ec217c54da363a68ad871e6868efec481c$__634bead669610b4d6125e9565b6040518263ffffffff1660e01b8152600401610b699190614e10565b60006040518083038186803b158015610b8157600080fd5b505af4158015610b95573d6000803e3d6000fd5b505050506127108211156040518060400160405280600c81526020016b0a6847440a8dede40d0d2ced60a31b81525090610beb5760405162461bcd60e51b8152600401610be29190614e91565b60405180910390fd5b5060408051808201909152600f81526e53423a2057726f6e672076616c756560881b60208201526001600160a01b038216610c395760405162461bcd60e51b8152600401610be29190614e91565b50604291909155604180546001600160a01b0319166001600160a01b03909216919091179055565b600054610100900460ff1615808015610c815750600054600160ff909116105b80610c9b5750303b158015610c9b575060005460ff166001145b610cfe5760405162461bcd60e51b815260206004820152602e60248201527f496e697469616c697a61626c653a20636f6e747261637420697320616c72656160448201526d191e481a5b9a5d1a585b1a5e995960921b6064820152608401610be2565b6000805460ff191660011790558015610d21576000805461ff0019166101001790555b610d8e866001600160a01b03166338d52e0f6040518163ffffffff1660e01b8152600401602060405180830381865afa158015610d62573d6000803e3d6000fd5b505050506040513d601f19601f82011682018060405250810190610d86919061522d565b85858561274d565b610d99878787612936565b604051636a65141d60e11b8152600160048201526001600160a01b0380891660248301528616604482015273__$166cd655d2cd990700b75f7db5b5f84c53$__9063d4ca283a9060640160006040518083038186803b158015610dfb57600080fd5b505af4158015610e0f573d6000803e3d6000fd5b5050604051631ade875b60e31b81526001600482015273__$166cd655d2cd990700b75f7db5b5f84c53$__925063d6f43ad89150602401600060405180830381865af4158015610e63573d6000803e3d6000fd5b505050506040513d6000823e601f3d908101601f19168201604052610e8b919081019061527a565b604390610e989082615342565b507f13bdeb5b5bb760c04b92d93e56c576c6805359d41a13d3cca178aa7c8526b9846043604051610ec99190615401565b60405180910390a18015610f17576000805461ff0019169055604051600181527f7f26b83ff96e1f2b6a682f133852f6798a09c465da95921460cefb38474024989060200160405180910390a15b50505050505050565b73__$ec217c54da363a68ad871e6868efec481c$__63493f6edc610f426125e9565b6040518263ffffffff1660e01b8152600401610f5e9190614e10565b60006040518083038186803b158015610f7657600080fd5b505af4158015610f8a573d6000803e3d6000fd5b50506009805460ff191690555050604554600154600254604051637fd6c0a160e01b81526001600160a01b039384166004820152918316602483015291909116604482015273__$166cd655d2cd990700b75f7db5b5f84c53$__90637fd6c0a190606401602060405180830381865af415801561100b573d6000803e3d6000fd5b505050506040513d601f19601f8201168201806040525081019061102f919061518c565b6001600a018190555073__$166cd655d2cd990700b75f7db5b5f84c53$__63f460770b6040518163ffffffff1660e01b815260040160006040518083038186803b15801561107c57600080fd5b505af4158015611090573d6000803e3d6000fd5b50505050565b73__$ec217c54da363a68ad871e6868efec481c$__63493f6edc6110b86125e9565b6040518263ffffffff1660e01b81526004016110d49190614e10565b60006040518083038186803b1580156110ec57600080fd5b505af4158015611100573d6000803e3d6000fd5b505050600a82905550604051631c77945b60e31b81526004810182905273__$166cd655d2cd990700b75f7db5b5f84c53$__9063e3bca2d89060240160006040518083038186803b15801561115457600080fd5b505af4158015611168573d6000803e3d6000fd5b5050505050565b600061075361119f60017f6f55f470bdc9cb5f04223fd822021061668e4dccb43e8727b295106dc9769c8b61548c565b5490565b60006107536129d8565b600061075361119f60017f812a673dfca07956350df10f8a654925f561d7a0da09bdbe79e653939a14d9f161548c565b73__$ec217c54da363a68ad871e6868efec481c$__63493f6edc6111ff6125e9565b6040518263ffffffff1660e01b815260040161121b9190614e10565b60006040518083038186803b15801561123357600080fd5b505af4158015611247573d6000803e3d6000fd5b50505050611253612a9e565b7fed7f50f936a5ed7428d20f18e78d6dfe8bc37fd2f4e3cdb348327c7697244928336040516112829190614e10565b60405180910390a1565b603e5460408051808201909152600a81526914d08e8811195b9a595960b21b60208201526000918291906001600160a01b031633146112de5760405162461bcd60e51b8152600401610be29190614e91565b506112e96001612bf9565b915091509091565b3330146113405760405162461bcd60e51b815260206004820152601b60248201527f496e637265617365207265766973696f6e20666f7262696464656e00000000006044820152606401610be2565b600061137061119f60017f22573091f17911fb166032a3d9e0554aa73d31b7b7ddea4a4dd2995650af84bd61548c565b61137b9060016151bb565b90506113af816113ac60017f22573091f17911fb166032a3d9e0554aa73d31b7b7ddea4a4dd2995650af84bd61548c565b55565b6113de826113ac60017fbfaaa2fb63266ff27c2da975f5894955056f50419af651a81f6c5060581857e461548c565b604080518281526001600160a01b03841660208201527ff27e2ef832a4eb8ed8ec553b875eecd44764cda95b1c24170e281539e0a869c89101610a1a565b603e54603d5460405163201de59f60e01b81526000926001600160a01b0390811692169073__$ec217c54da363a68ad871e6868efec481c$__9063201de59f9061146a908590600401614e10565b60006040518083038186803b15801561148257600080fd5b505af4158015611496573d6000803e3d6000fd5b50506040516370a0823160e01b8152600092506001600160a01b03841691506370a08231906114c9903090600401614e10565b602060405180830381865afa1580156114e6573d6000803e3d6000fd5b505050506040513d601f19601f8201168201806040525081019061150a919061518c565b9050808511156115b657600080611529611524848961548c565b612cb2565b604051631594b05b60e01b8152909850919350915073__$ec217c54da363a68ad871e6868efec481c$__90631594b05b906115709087908790879087908c906004016151ce565b602060405180830381865af415801561158d573d6000803e3d6000fd5b505050506040513d601f19601f820116820180604052508101906115b1919061518c565b925050505b60006115c28683612ccf565b905080156115de576115de6001600160a01b03841685836126f2565b60408051878152602081018390529081018390527f21b38dd19808c509ae6afc969adfaf7d35fe949c37abd493b963cf9b68cc1acb9060600160405180910390a150505050919050565b60438054611635906152c2565b80601f0160208091040260200160405190810160405280929190818152602001828054611661906152c2565b80156116ae5780601f10611683576101008083540402835291602001916116ae565b820191906000526020600020905b81548152906001019060200180831161169157829003601f168201915b505050505081565b73__$ec217c54da363a68ad871e6868efec481c$__63493f6edc6116d86125e9565b6040518263ffffffff1660e01b81526004016116f49190614e10565b60006040518083038186803b15801561170c57600080fd5b505af4158015611720573d6000803e3d6000fd5b5050505061172c612ce7565b603d546040516370a0823160e01b81526001600160a01b039091169060009082906370a0823190611761903090600401614e10565b602060405180830381865afa15801561177e573d6000803e3d6000fd5b505050506040513d601f19601f820116820180604052508101906117a2919061518c565b603e549091506117bf906001600160a01b038481169116836126f2565b7ff779df072f94d207563b1ba8c286814086f1e6bb436a2652e307dccc56ed79e83382604051610a1a9291906151fe565b73__$ec217c54da363a68ad871e6868efec481c$__63493f6edc6118126125e9565b6040518263ffffffff1660e01b815260040161182e9190614e10565b60006040518083038186803b15801561184657600080fd5b505af415801561185a573d6000803e3d6000fd5b50505050806043908161186d9190615342565b507f13bdeb5b5bb760c04b92d93e56c576c6805359d41a13d3cca178aa7c8526b9848160405161189d9190614e91565b60405180910390a150565b73__$ec217c54da363a68ad871e6868efec481c$__63493f6edc6118ca6125e9565b6040518263ffffffff1660e01b81526004016118e69190614e10565b60006040518083038186803b1580156118fe57600080fd5b505af4158015611912573d6000803e3d6000fd5b50505050620186a08111156040518060400160405280600f81526020016e53423a2057726f6e672076616c756560881b815250906119635760405162461bcd60e51b8152600401610be29190614e91565b5060478190556040518181527fe4166dfcf23bbd3e3f764a99dc8fa740554c03c82d6019b81cf265f396f6f2fe9060200161189d565b600061075361119f60017f22573091f17911fb166032a3d9e0554aa73d31b7b7ddea4a4dd2995650af84bd61548c565b60006119d36125e9565b60405163124fdbb760e21b815290915073__$ec217c54da363a68ad871e6868efec481c$__9063493f6edc90611a0d908490600401614e10565b60006040518083038186803b158015611a2557600080fd5b505af4158015611a39573d6000803e3d6000fd5b5050600454600160501b90046001600160801b0316159150611a61905057611a5f612d5c565b505b604554600090819073__$166cd655d2cd990700b75f7db5b5f84c53$__9063b24d8db0906001906001600160a01b031686611a9b60445490565b6040516001600160e01b031960e087901b16815260048101949094526001600160a01b039283166024850152911660448301526064820152608401600060405180830381865af4158015611af3573d6000803e3d6000fd5b505050506040513d6000823e601f3d908101601f19168201604052611b1b91908101906154fa565b915091508151600203611c4657611b3182612d6e565b50508015611c4657600354600654600754604051638c64d45560e01b81526001600160a01b0384166004820152600160c81b8404600290810b6024830152600160e01b8504810b6044830152600160a01b90940490930b6064840152608483019190915260a482015273__$166cd655d2cd990700b75f7db5b5f84c53$__90638c64d4559060c401606060405180830381865af4158015611bd6573d6000803e3d6000fd5b505050506040513d601f19601f82011682018060405250810190611bfa919061555c565b600580546001600160801b0319166001600160801b03929092169190911790556004805465ffffffffffff1916630100000062ffffff9384160262ffffff191617929091169190911790555b611090612e89565b6000611ca16040518061010001604052806000815260200160006001600160a01b031681526020016060815260200160008152602001600081526020016060815260200160608152602001600081525090565b6045546001600160a01b0316602080830182905260408051808201909152600a81526914d08e8811195b9a595960b21b91810191909152903314611cf85760405162461bcd60e51b8152600401610be29190614e91565b50611d0284612e9d565b606083018190526040808401929092528151808301909252600f82526e53423a2057726f6e672076616c756560881b602083015219611d545760405162461bcd60e51b8152600401610be29190614e91565b506040810151518152611d6684612ebc565b608082015280516001600160401b03811115611d8457611d84614ea4565b604051908082528060200260200182016040528015611dad578160200160208202803683370190505b5060a082015280516001600160401b03811115611dcc57611dcc614ea4565b604051908082528060200260200182016040528015611df5578160200160208202803683370190505b5060c08201526080810151831115611e6c57611e0f612f2c565b60e0820181905215611e6c57611e288160e00151612f42565b60a0820181905260e08201516040517faebc771af58936b05e89b0be7d3f9761480181abcd4a649fbdd01753fda1697092611e6392916155a4565b60405180910390a15b828160a00151826060015181518110611e8757611e87615217565b60200260200101518260800151611e9e91906151bb565b101561201e5773__$e930d50fb5f4f1298547dbcb2bb0591990$__63664e90748260a00151836060015181518110611ed857611ed8615217565b60200260200101518360800151611eef91906151bb565b611ef9908661548c565b60408401516060850151603d5460a087015160208801516001600160a01b0390921691611f246125e9565b6001600160a01b0316634046ebae6040518163ffffffff1660e01b8152600401602060405180830381865afa158015611f61573d6000803e3d6000fd5b505050506040513d601f19601f82011682018060405250810190611f85919061522d565b6001600160a01b038d16600090815260466020526040902054611faa61012c806151bb565b6040518a63ffffffff1660e01b8152600401611fce999897969594939291906155f6565b600060405180830381865af4158015611feb573d6000803e3d6000fd5b505050506040513d6000823e601f3d908101601f191682016040526120139190810190615667565b60a083015260c08201525b6120588160a0015182606001518151811061203b5761203b615217565b6020026020010151826080015161205291906151bb565b84612ccf565b6020820151909250612075906001600160a01b03861690846126f2565b7f178d2d6770c9dbd24f8d3e4dc08998cad5a42857f107435518f65c761e253bcc84836040516120a69291906151fe565b60405180910390a15092915050565b8151815160408051808201909152600d81526c54532d3139206c656e6774687360981b60208201529082146120fd5760405162461bcd60e51b8152600401610be29190614e91565b50611090612e89565b600061075361119f60017fbfaaa2fb63266ff27c2da975f5894955056f50419af651a81f6c5060581857e461548c565b604554604051635ca1bcdf60e01b8152600160048201526001600160a01b03909116602482015260009073__$166cd655d2cd990700b75f7db5b5f84c53$__90635ca1bcdf906044015b602060405180830381865af415801561219d573d6000803e3d6000fd5b505050506040513d601f19601f8201168201806040525081019061075391906156c0565b603e5460405163201de59f60e01b815260009173__$ec217c54da363a68ad871e6868efec481c$__9163201de59f91612208916001600160a01b0390911690600401614e10565b60006040518083038186803b15801561222057600080fd5b505af4158015612234573d6000803e3d6000fd5b5050603d546040516370a0823160e01b8152600093506001600160a01b0390911691506370a082319061226b903090600401614e10565b602060405180830381865afa158015612288573d6000803e3d6000fd5b505050506040513d601f19601f820116820180604052508101906122ac919061518c565b905080156122c1576122be81846130fc565b91505b6040518181527f94bcfc9a8eba5229c2956ccb1858733fce588bc02145ac053c40b9827a33837f906020016120a6565b60006122fb6125e9565b6001600160a01b0316826001600160a01b0316149050919050565b6003546001600160a01b031633146123625760405162461bcd60e51b815260206004820152600f60248201526e31b0b6363130b1b59031b0b63632b960891b6044820152606401610be2565b83156123af576004546123af9033908690600160481b900460ff16612392576001546001600160a01b031661239f565b6002546001600160a01b03165b6001600160a01b031691906126f2565b8215611090576004546110909033908590600160481b900460ff166123df576002546001600160a01b031661239f565b6001546001600160a01b031691906126f2565b604051631a2d761b60e11b815260016004820152600090819073__$166cd655d2cd990700b75f7db5b5f84c53$__9063345aec36906024016040805180830381865af4158015612446573d6000803e3d6000fd5b505050506040513d601f19601f820116820180604052508101906112e991906156dd565b73__$ec217c54da363a68ad871e6868efec481c$__63ac1d8b3561248c6125e9565b6040518263ffffffff1660e01b81526004016124a89190614e10565b60006040518083038186803b1580156124c057600080fd5b505af41580156124d4573d6000803e3d6000fd5b50505050620186a08111156040518060400160405280600c81526020016b0a6847440a8dede40d0d2ced60a31b815250906125225760405162461bcd60e51b8152600401610be29190614e91565b50603f5460408051918252602082018390527f89979f75740477f1609671a960c1f57e40a47e58bdf1623bc683d806fb6407e5910160405180910390a1603f55565b6000816001600160a01b03166125786125e9565b6001600160a01b0316635aa6e6756040518163ffffffff1660e01b8152600401602060405180830381865afa1580156125b5573d6000803e3d6000fd5b505050506040513d601f19601f820116820180604052508101906125d9919061522d565b6001600160a01b03161492915050565b600061075361119f60017f5165972ef41194f06c5007493031d0b927c20741adcb74403b954009fd2c361861548c565b60095460035460048054604051632beacd5760e11b815260ff9094161515918401919091526001600160a01b0382166024840152600160c81b8204600290810b6044850152600160e01b8304810b6064850152600160a01b909204820b6084840152600160301b9004900b60a482015260009073__$166cd655d2cd990700b75f7db5b5f84c53$__906357d59aae9060c401612180565b60006001600160e01b0319821663c19fa56160e01b148061077d575061077d8261319f565b60008060006126e6600060016131d4565b91959094509092509050565b6127488363a9059cbb60e01b84846040516024016127119291906151fe565b60408051601f198184030181529190526020810180516001600160e01b03166001600160e01b031990931692909217909152613678565b505050565b600054610100900460ff166127745760405162461bcd60e51b8152600401610be290615701565b60408051808201909152601181527054532d31207a65726f206164647265737360781b60208201526001600160a01b0384166127c35760405162461bcd60e51b8152600401610be29190614e91565b50600380546001600160a01b0319166001600160a01b038581169182179092556004805468ffffff0000000000001916600160301b62ffffff861602178155604051630175022560e21b815290810191909152600284810b602483015283900b6044820152908516606482015273__$166cd655d2cd990700b75f7db5b5f84c53$__906305d408949060840160c060405180830381865af415801561286c573d6000803e3d6000fd5b505050506040513d601f19601f82011682018060405250810190612890919061574c565b60048054911515600160481b0260ff60481b19909216919091179055600280546001600160a01b039283166001600160a01b031991821617909155600180549390921692169190911790556003805462ffffff948516600160a01b0262ffffff60a01b19948616600160c81b0262ffffff60c81b1996909416600160e01b029590951665ffffffffffff60c81b1990911617919091179190911691909117905550505050565b600054610100900460ff1661295d5760405162461bcd60e51b8152600401610be290615701565b612967838361374a565b604580546001600160a01b0319166001600160a01b0383161790556129906064620186a06157c5565b6047557fe4166dfcf23bbd3e3f764a99dc8fa740554c03c82d6019b81cf265f396f6f2fe6129c26064620186a06157c5565b60405190815260200160405180910390a1505050565b603d54600090819081906129f4906001600160a01b0316612e9d565b9150915073__$e930d50fb5f4f1298547dbcb2bb0591990$__63c9bce69083612a23612a1e612f2c565b613973565b6045546040516001600160e01b031960e086901b168152612a5693929187916001600160a01b03909116906004016157e7565b602060405180830381865af4158015612a73573d6000803e3d6000fd5b505050506040513d601f19601f82011682018060405250810190612a97919061518c565b9250505090565b6000806000612aab613a4d565b6045549295509093509150600090819073__$e930d50fb5f4f1298547dbcb2bb0591990$__90635b12b551906001600160a01b0316612ae8613bae565b8888886040518663ffffffff1660e01b8152600401612b0b95949392919061582e565b600060405180830381865af4158015612b28573d6000803e3d6000fd5b505050506040513d6000823e601f3d908101601f19168201604052612b509190810190615898565b815191935091508015612bf1576000612b698484613c42565b905073__$8f1afe7577f9ab973017c74eca19b86f3c$__63acf741a3612b8d6125e9565b603e546040516001600160e01b031960e085901b168152612bbf92916001600160a01b03169089908790600401615945565b60006040518083038186803b158015612bd757600080fd5b505af4158015612beb573d6000803e3d6000fd5b50505050505b505050505050565b604454600090819081612c0a612e89565b90506000612c16613e30565b91965094509050612c2983838787613ee6565b9095509350858015612c555750620186a082604754612c489190615983565b612c5291906157c5565b81115b15612caa576000612c6682846151bb565b9050612c738260006130fc565b50603d54612ca3908290612c8f906001600160a01b0316612ebc565b604454612c9c91906151bb565b8888613ee6565b9096509450505b505050915091565b6000806000612cc28460006131d4565b9196909550909350915050565b6000818310612cde5781612ce0565b825b9392505050565b6000612cf1612d5c565b90507f768a28cb3459382a3d2173feb2dad0235f8de680b109872da581a3aa269fe5f481604051612d22919061599a565b60405180910390a1603d546000908190612d44906001600160a01b0316612e9d565b91509150612d528282613f2e565b5050611090612e89565b6060610753612d69612f2c565b612f42565b606060008083600181518110612d8657612d86615217565b60200260200101511115612e845760035460048054604051638008936760e01b815273__$166cd655d2cd990700b75f7db5b5f84c53$__93638008936793612e0f936001600160a01b03831693600160c81b8404600290810b94600160e01b9004900b928b92600160501b81046001600160801b031692600160481b90910460ff1691016159ad565b600060405180830381865af4158015612e2c573d6000803e3d6000fd5b505050506040513d6000823e601f3d908101601f19168201604052612e549190810190615a03565b600480546001600160801b03909216600160501b02600160501b600160d01b031990921691909117905590925090505b915091565b6000612e936129d8565b6044819055919050565b60606000612ea9613bae565b9150612eb58284613fdc565b9050915091565b6040516370a0823160e01b81526000906001600160a01b038316906370a0823190612eeb903090600401614e10565b602060405180830381865afa158015612f08573d6000803e3d6000fd5b505050506040513d601f19601f8201168201806040525081019061077d919061518c565b600454600160501b90046001600160801b031690565b6060600080612f4f6123f2565b915091508160016005016000828254612f6891906151bb565b909155505060078054829190600090612f829084906151bb565b9250508190555073__$166cd655d2cd990700b75f7db5b5f84c53$__6333fdd81d600160020160009054906101000a90046001600160a01b0316600160020160199054906101000a900460020b6001600201601c9054906101000a900460020b600160030160009054906101000a900460020b600160030160039054906101000a900460020b6001600301600a9054906101000a90046001600160801b0316600160040160009054906101000a90046001600160801b03168c600160030160099054906101000a900460ff166040518a63ffffffff1660e01b815260040161307299989796959493929190615a50565b600060405180830381865af415801561308f573d6000803e3d6000fd5b505050506040513d6000823e601f3d908101601f191682016040526130b79190810190615aaf565b600580546001600160801b0319166001600160801b0392831617905560048054600160501b600160d01b031916600160501b9390921692909202179055949350505050565b60095460009060ff161561318e57604080516002808252606082018352600092602083019080368337019050509050838160008151811061313f5761313f615217565b6020026020010181815250507f59400c8c523464b521238ea8f50e923f2bc64663557e6afec92a97f7efe92d05818260405161317c929190615af5565b60405180910390a1600091505061077d565b613198838361403a565b905061077d565b60006001600160e01b0319821663b7b79fa960e01b148061077d57506301ffc9a760e01b6001600160e01b031983161461077d565b6000806000806131e4600161417b565b9250905084806131f357508515155b80156131fe57508015155b1561366457600061320d613bae565b603d549091506001600160a01b031660006132288383613fdc565b6045549091506001600160a01b0316600061324284612ebc565b905060006040518060c001604052806132596141c4565b8152602001613266612f2c565b8152602001613273612f2c565b81526000602082015260408051637a55caf360e01b81526001600160a01b0380881660048301528916602482015291019073__$e930d50fb5f4f1298547dbcb2bb0591990$__90637a55caf390604401602060405180830381865af41580156132e0573d6000803e3d6000fd5b505050506040513d601f19601f82011682018060405250810190613304919061518c565b81526020016000604051908082528060200260200182016040528015613334578160200160208202803683370190505b509052905073__$e930d50fb5f4f1298547dbcb2bb0591990$__6225eb888c61335d578d613360565b60005b308988888d88604001516040518863ffffffff1660e01b815260040161338c9796959493929190615b23565b600060405180830381865af41580156133a9573d6000803e3d6000fd5b505050506040513d6000823e601f3d908101601f191682016040526133d19190810190615b72565b60a0830152606080830182905290600090156134e8576133f48360600151612f42565b91507faebc771af58936b05e89b0be7d3f9761480181abcd4a649fbdd01753fda1697083606001518360405161342b9291906155a4565b60405180910390a173__$e930d50fb5f4f1298547dbcb2bb0591990$__632374491584600001518560400151866060015187602001518860a001518e8d8d613471612f2c565b8c6040518b63ffffffff1660e01b81526004016134979a99989796959493929190615bae565b600060405180830381865af41580156134b4573d6000803e3d6000fd5b505050506040513d6000823e601f3d908101601f191682016040526134dc9190810190615b72565b60a085015290506135b8565b73__$e930d50fb5f4f1298547dbcb2bb0591990$__63bc846df28988888c516001600160401b0381111561351e5761351e614ea4565b604051908082528060200260200182016040528015613547578160200160208202803683370190505b508860a001516040518663ffffffff1660e01b815260040161356d959493929190615c40565b600060405180830381865af415801561358a573d6000803e3d6000fd5b505050506040513d6000823e601f3d908101601f191682016040526135b29190810190615c7b565b90925090505b6135c888878560a001518861423f565b505060006135d4612e89565b905060006135e189612ebc565b90506135ed868c6151bb565b6135f782846151bb565b10156136285761360781836151bb565b613611878d6151bb565b61361b919061548c565b613625908d6151bb565b9b505b670de0b6b3a76400008560800151846136419190615983565b61364b91906157c5565b85608001519d509d505050505050505050505050613671565b6000806000935093509350505b9250925092565b60006136cd826040518060400160405280602081526020017f5361666545524332303a206c6f772d6c6576656c2063616c6c206661696c6564815250856001600160a01b031661437c9092919063ffffffff16565b80519091501561274857808060200190518101906136eb91906156c0565b6127485760405162461bcd60e51b815260206004820152602a60248201527f5361666545524332303a204552433230206f7065726174696f6e20646964206e6044820152691bdd081cdd58d8d9595960b21b6064820152608401610be2565b600054610100900460ff166137715760405162461bcd60e51b8152600401610be290615701565b61379b817fd2de0374d4479f33e63ae5ed6ca772a10463dd883a90c612050b51fab6196400614393565b6137a4826143ed565b60405163b429afeb60e01b81526001600160a01b0382169063b429afeb906137d0908590600401614e10565b602060405180830381865afa1580156137ed573d6000803e3d6000fd5b505050506040513d601f19601f8201168201806040525081019061381191906156c0565b6040518060400160405280600f81526020016e53423a2057726f6e672076616c756560881b815250906138575760405162461bcd60e51b8152600401610be29190614e91565b50806001600160a01b03166338d52e0f6040518163ffffffff1660e01b8152600401602060405180830381865afa158015613896573d6000803e3d6000fd5b505050506040513d601f19601f820116820180604052508101906138ba919061522d565b603d80546001600160a01b03199081166001600160a01b0393841617909155603e805490911683831617905560408051635aa6e67560e01b8152905191841691635aa6e675916004808201926020929091908290030181865afa158015613925573d6000803e3d6000fd5b505050506040513d601f19601f82011682018060405250810190613949919061522d565b604180546001600160a01b0319166001600160a01b03929092169190911790555050612710604255565b6003546004805460055460405163c68bc70360e01b815260609473__$166cd655d2cd990700b75f7db5b5f84c53$__9463c68bc70394613a08946001600160a01b03841694600160c81b8504600290810b95600160e01b9004810b9484820b946301000000810490920b93600160501b83046001600160801b03908116949116928e92600160481b90910460ff169101615a50565b600060405180830381865af4158015613a25573d6000803e3d6000fd5b505050506040513d6000823e601f3d908101601f1916820160405261077d9190810190615cc1565b604080516002808252606082810190935282918291816020016020820280368337505060015482519295506001600160a01b031691859150600090613a9457613a94615217565b6001600160a01b039283166020918202929092010152600254845191169084906001908110613ac557613ac5615217565b6001600160a01b03928316602091820292909201015260035460048054600654600754604051630f0f4e5160e21b815273__$166cd655d2cd990700b75f7db5b5f84c53$__96633c3d394496613b559691811695600160c81b8204600290810b96600160e01b909304810b9582820b956301000000840490920b949092600160481b900460ff16918f9101615cf5565b600060405180830381865af4158015613b72573d6000803e3d6000fd5b505050506040513d6000823e601f3d908101601f19168201604052613b9a9190810190615667565b600060068190556007559394909392509050565b6040805160028082526060808301845292602083019080368337505060015482519293506001600160a01b031691839150600090613bee57613bee615217565b6001600160a01b039283166020918202929092010152600254825191169082906001908110613c1f57613c1f615217565b60200260200101906001600160a01b031690816001600160a01b03168152505090565b60425460415460405163217cfb2b60e21b8152606092600092839273__$8f1afe7577f9ab973017c74eca19b86f3c$__926385f3ecac92613c95926001600160a01b03909116908a908a90600401615d60565b600060405180830381865af4158015613cb2573d6000803e3d6000fd5b505050506040513d6000823e601f3d908101601f19168201604052613cda9190810190615667565b603d54603f5492945090925073__$e930d50fb5f4f1298547dbcb2bb0591990$__91632ed33962916001600160a01b031690613d14613bae565b613d1c6125e9565b6001600160a01b0316634046ebae6040518163ffffffff1660e01b8152600401602060405180830381865afa158015613d59573d6000803e3d6000fd5b505050506040513d601f19601f82011682018060405250810190613d7d919061522d565b60468b896040518863ffffffff1660e01b8152600401613da39796959493929190615d8a565b600060405180830381865af4158015613dc0573d6000803e3d6000fd5b505050506040513d6000823e601f3d908101601f19168201604052613de89190810190615cc1565b92507f171ec648141b517a8ef6cd93049918996f4e9d4a1fb9100a71f80ee513cc67a3858483604051613e1d93929190615df5565b60405180910390a1505092915050565b50565b60405163232421d960e01b8152600160048201526000908190819073__$166cd655d2cd990700b75f7db5b5f84c53$__9063232421d990602401602060405180830381865af4158015613e87573d6000803e3d6000fd5b505050506040513d601f19601f82011682018060405250810190613eab919061518c565b9250613eb5612a9e565b603d54613eca906001600160a01b0316612ebc565b60085490915015613ee15760088054600090915591505b909192565b60008085851115613f0c57613efb868661548c565b613f0590856151bb565b9350613f23565b613f16858761548c565b613f2090846151bb565b92505b509194909350915050565b60006060600073__$8f1afe7577f9ab973017c74eca19b86f3c$__6397783a6c86866040518363ffffffff1660e01b8152600401613f6d929190615e6a565b600060405180830381865af4158015613f8a573d6000803e3d6000fd5b505050506040513d6000823e601f3d908101601f19168201604052613fb29190810190615cc1565b604554909150613fd0908690869084906001600160a01b031661423f565b90969095509350505050565b8151600090815b8181101561402e57836001600160a01b031685828151811061400757614007615217565b60200260200101516001600160a01b03160361402657915061077d9050565b600101613fe3565b50600019949350505050565b6000806140468361417b565b604754909350909150620186a09061405f908390615983565b61406991906157c5565b84111561417457603d546001600160a01b0316600061408782612ebc565b603d5490915060009081906140a4906001600160a01b0316612e9d565b60455491935091506000906140c4906001600160a01b03168a8585614610565b905060006140d182612d6e565b5090507f59400c8c523464b521238ea8f50e923f2bc64663557e6afec92a97f7efe92d058282604051614105929190615af5565b60405180910390a16000614117612e89565b9050600061412488612ebc565b9050614130878a6151bb565b61413a82846151bb565b101561416b5761414a81836151bb565b614154888b6151bb565b61415e919061548c565b614168908b6151bb565b99505b50505050505050505b5092915050565b60445460009081908361418e5780614196565b614196612e89565b9250836141a45760006141bc565b8083106141b25760006141bc565b6141bc838261548c565b915050915091565b604051630a65e5e760e01b81526001600482015260609073__$166cd655d2cd990700b75f7db5b5f84c53$__90630a65e5e790602401600060405180830381865af4158015614217573d6000803e3d6000fd5b505050506040513d6000823e601f3d908101601f191682016040526107539190810190615cc1565b6000606073__$e930d50fb5f4f1298547dbcb2bb0591990$__637047292d846142666125e9565b6001600160a01b0316634046ebae6040518163ffffffff1660e01b8152600401602060405180830381865afa1580156142a3573d6000803e3d6000fd5b505050506040513d601f19601f820116820180604052508101906142c7919061522d565b604660008b8b815181106142dd576142dd615217565b60200260200101516001600160a01b03166001600160a01b03168152602001908152602001600020548a8a8a6040518763ffffffff1660e01b815260040161432a96959493929190615e8c565b600060405180830381865af4158015614347573d6000803e3d6000fd5b505050506040513d6000823e601f3d908101601f1916820160405261436f9190810190615b72565b9150915094509492505050565b606061438b8484600085614800565b949350505050565b61439d82826148db565b6143e95760405162461bcd60e51b815260206004820152601a60248201527f496e74657266616365206973206e6f7420737570706f727465640000000000006044820152606401610be2565b5050565b600054610100900460ff166144145760405162461bcd60e51b8152600401610be290615701565b6001600160a01b03811661445c5760405162461bcd60e51b815260206004820152600f60248201526e2d32b9379031b7b73a3937b63632b960891b6044820152606401610be2565b614486817f4c2403fdcb3cff9b705d96bf0705858e3390412670a62c8bcba611ca7e20ab86614393565b60006001600160a01b0316816001600160a01b0316635aa6e6756040518163ffffffff1660e01b8152600401602060405180830381865afa1580156144cf573d6000803e3d6000fd5b505050506040513d601f19601f820116820180604052508101906144f3919061522d565b6001600160a01b03160361453b5760405162461bcd60e51b815260206004820152600f60248201526e5a65726f20676f7665726e616e636560881b6044820152606401610be2565b61456a816113ac60017f5165972ef41194f06c5007493031d0b927c20741adcb74403b954009fd2c361861548c565b614599426113ac60017f6f55f470bdc9cb5f04223fd822021061668e4dccb43e8727b295106dc9769c8b61548c565b6145c8436113ac60017f812a673dfca07956350df10f8a654925f561d7a0da09bdbe79e653939a14d9f161548c565b604080516001600160a01b038316815242602082015243918101919091527f1a2dd071001ebf6e03174e3df5b305795a4ad5d41d8fdb9ba41dbbe2367134269060600161189d565b60408051600280825260608083018452926020830190803683370190505060035460048054604051630302c45560e41b81526001600160a01b03841692810192909252600160c81b8304600290810b6024840152600160e01b8404810b6044840152600160a01b90930490920b6064820152600160481b90910460ff1615156084820152909150600090819073__$166cd655d2cd990700b75f7db5b5f84c53$__9063302c45509060a401600060405180830381865af41580156146d8573d6000803e3d6000fd5b505050506040513d6000823e601f3d908101601f19168201604052614700919081019061527a565b60015490915061471a906001600160a01b031687896149b9565b60015460025460405163ca27d10d60e01b815273__$e930d50fb5f4f1298547dbcb2bb0591990$__9263ca27d10d9261476d928c9287926001600160a01b03918216929116908d90600090600401615ee4565b6040805180830381865af4158015614789573d6000803e3d6000fd5b505050506040513d601f19601f820116820180604052508101906147ad91906156dd565b846001815181106147c0576147c0615217565b602090810291909101015291506147d7828761548c565b836000815181106147ea576147ea615217565b6020026020010181815250505050949350505050565b6060824710156148615760405162461bcd60e51b815260206004820152602660248201527f416464726573733a20696e73756666696369656e742062616c616e636520666f6044820152651c8818d85b1b60d21b6064820152608401610be2565b600080866001600160a01b0316858760405161487d9190615f2c565b60006040518083038185875af1925050503d80600081146148ba576040519150601f19603f3d011682016040523d82523d6000602084013e6148bf565b606091505b50915091506148d087838387614a5f565b979650505050505050565b60006001600160a01b0383166149225760405162461bcd60e51b815260206004820152600c60248201526b5a65726f206164647265737360a01b6044820152606401610be2565b823b600081900361493757600091505061077d565b6040516301ffc9a760e01b81526001600160e01b0319841660048201526001600160a01b038516906301ffc9a790602401602060405180830381865afa9250505080156149a1575060408051601f3d908101601f1916820190925261499e918101906156c0565b60015b156149af57915061077d9050565b5060009392505050565b604051636eb1769f60e11b81523060048201526001600160a01b03828116602483015283919085169063dd62ed3e90604401602060405180830381865afa158015614a08573d6000803e3d6000fd5b505050506040513d601f19601f82011682018060405250810190614a2c919061518c565b101561274857614a476001600160a01b038416826000614ad8565b6127486001600160a01b03841682600160ff1b614ad8565b60608315614ace578251600003614ac7576001600160a01b0385163b614ac75760405162461bcd60e51b815260206004820152601d60248201527f416464726573733a2063616c6c20746f206e6f6e2d636f6e74726163740000006044820152606401610be2565b508161438b565b61438b8383614bdc565b801580614b525750604051636eb1769f60e11b81523060048201526001600160a01b03838116602483015284169063dd62ed3e90604401602060405180830381865afa158015614b2c573d6000803e3d6000fd5b505050506040513d601f19601f82011682018060405250810190614b50919061518c565b155b614bbd5760405162461bcd60e51b815260206004820152603660248201527f5361666545524332303a20617070726f76652066726f6d206e6f6e2d7a65726f60448201527520746f206e6f6e2d7a65726f20616c6c6f77616e636560501b6064820152608401610be2565b6127488363095ea7b360e01b84846040516024016127119291906151fe565b815115614bec5781518083602001fd5b8060405162461bcd60e51b8152600401610be29190614e91565b600060208284031215614c1857600080fd5b81356001600160e01b031981168114612ce057600080fd5b6001600160a01b0381168114613e2d57600080fd5b60008060408385031215614c5857600080fd5b8235614c6381614c30565b946020939093013593505050565b600081518084526020808501945080840160005b83811015614ca157815187529582019590820190600101614c85565b509495945050505050565b6001600160a01b038c811682528b811660208301528a166040820152600289810b606083015288810b608083015287810b60a083015286900b60c08201526001600160801b03851660e082015283151561010082015261012081018390526101606101408201819052600090614d2483820185614c71565b9e9d5050505050505050505050505050565b60008060408385031215614d4957600080fd5b823591506020830135614d5b81614c30565b809150509250929050565b8060020b8114613e2d57600080fd5b60008060008060008060c08789031215614d8e57600080fd5b8635614d9981614c30565b95506020870135614da981614c30565b94506040870135614db981614c30565b93506060870135614dc981614c30565b92506080870135614dd981614d66565b915060a0870135614de981614d66565b809150509295509295509295565b600060208284031215614e0957600080fd5b5035919050565b6001600160a01b0391909116815260200190565b600060208284031215614e3657600080fd5b8135612ce081614c30565b60005b83811015614e5c578181015183820152602001614e44565b50506000910152565b60008151808452614e7d816020860160208601614e41565b601f01601f19169290920160200192915050565b602081526000612ce06020830184614e65565b634e487b7160e01b600052604160045260246000fd5b604051601f8201601f191681016001600160401b0381118282101715614ee257614ee2614ea4565b604052919050565b60006001600160401b03821115614f0357614f03614ea4565b50601f01601f191660200190565b600060208284031215614f2357600080fd5b81356001600160401b03811115614f3957600080fd5b8201601f81018413614f4a57600080fd5b8035614f5d614f5882614eea565b614eba565b818152856020838501011115614f7257600080fd5b81602084016020830137600091810160200191909152949350505050565b60006001600160401b03821115614fa957614fa9614ea4565b5060051b60200190565b600082601f830112614fc457600080fd5b81356020614fd4614f5883614f90565b82815260059290921b84018101918181019086841115614ff357600080fd5b8286015b8481101561500e5780358352918301918301614ff7565b509695505050505050565b6000806040838503121561502c57600080fd5b82356001600160401b038082111561504357600080fd5b818501915085601f83011261505757600080fd5b81356020615067614f5883614f90565b82815260059290921b8401810191818101908984111561508657600080fd5b948201945b838610156150ad57853561509e81614c30565b8252948201949082019061508b565b965050860135925050808211156150c357600080fd5b506150d085828601614fb3565b9150509250929050565b8015158114613e2d57600080fd5b600080604083850312156150fb57600080fd5b823591506020830135614d5b816150da565b6000806000806060858703121561512357600080fd5b843593506020850135925060408501356001600160401b038082111561514857600080fd5b818701915087601f83011261515c57600080fd5b81358181111561516b57600080fd5b88602082850101111561517d57600080fd5b95989497505060200194505050565b60006020828403121561519e57600080fd5b5051919050565b634e487b7160e01b600052601160045260246000fd5b8082018082111561077d5761077d6151a5565b6001600160a01b039586168152602081019490945260408401929092526060830152909116608082015260a00190565b6001600160a01b03929092168252602082015260400190565b634e487b7160e01b600052603260045260246000fd5b60006020828403121561523f57600080fd5b8151612ce081614c30565b6000615258614f5884614eea565b905082815283838301111561526c57600080fd5b612ce0836020830184614e41565b60006020828403121561528c57600080fd5b81516001600160401b038111156152a257600080fd5b8201601f810184136152b357600080fd5b61438b8482516020840161524a565b600181811c908216806152d657607f821691505b6020821081036152f657634e487b7160e01b600052602260045260246000fd5b50919050565b601f82111561274857600081815260208120601f850160051c810160208610156153235750805b601f850160051c820191505b81811015612bf15782815560010161532f565b81516001600160401b0381111561535b5761535b614ea4565b61536f8161536984546152c2565b846152fc565b602080601f8311600181146153a4576000841561538c5750858301515b600019600386901b1c1916600185901b178555612bf1565b600085815260208120601f198616915b828110156153d3578886015182559484019460019091019084016153b4565b50858210156153f15787850151600019600388901b60f8161c191681555b5050505050600190811b01905550565b6000602080835260008454615415816152c2565b8084870152604060018084166000811461543657600181146154505761547e565b60ff1985168984015283151560051b89018301955061547e565b896000528660002060005b858110156154765781548b820186015290830190880161545b565b8a0184019650505b509398975050505050505050565b8181038181111561077d5761077d6151a5565b600082601f8301126154b057600080fd5b815160206154c0614f5883614f90565b82815260059290921b840181019181810190868411156154df57600080fd5b8286015b8481101561500e57805183529183019183016154e3565b6000806040838503121561550d57600080fd5b82516001600160401b0381111561552357600080fd5b61552f8582860161549f565b9250506020830151614d5b816150da565b80516001600160801b038116811461555757600080fd5b919050565b60008060006060848603121561557157600080fd5b835161557c81614d66565b602085015190935061558d81614d66565b915061559b60408501615540565b90509250925092565b82815260406020820152600061438b6040830184614c71565b600081518084526020808501945080840160005b83811015614ca15781516001600160a01b0316875295820195908201906001016155d1565b60006101208b83528060208401526156108184018c6155bd565b604084018b90526001600160a01b038a81166060860152848203608086015290915061563c828a614c71565b97811660a08501529590951660c08301525060e0810192909252610100909101525095945050505050565b6000806040838503121561567a57600080fd5b82516001600160401b038082111561569157600080fd5b61569d8683870161549f565b935060208501519150808211156156b357600080fd5b506150d08582860161549f565b6000602082840312156156d257600080fd5b8151612ce0816150da565b600080604083850312156156f057600080fd5b505080516020909101519092909150565b6020808252602b908201527f496e697469616c697a61626c653a20636f6e7472616374206973206e6f74206960408201526a6e697469616c697a696e6760a81b606082015260800190565b60008060008060008060c0878903121561576557600080fd5b865161577081614d66565b602088015190965061578181614d66565b604088015190955061579281614d66565b60608801519094506157a381614c30565b60808801519093506157b481614c30565b60a0880151909250614de9816150da565b6000826157e257634e487b7160e01b600052601260045260246000fd5b500490565b6080815260006157fa60808301876155bd565b828103602084015261580c8187614c71565b604084019590955250506001600160a01b039190911660609091015292915050565b6001600160a01b038616815260a060208201819052600090615852908301876155bd565b828103604084015261586481876155bd565b905082810360608401526158788186614c71565b9050828103608084015261588c8185614c71565b98975050505050505050565b600080604083850312156158ab57600080fd5b82516001600160401b03808211156158c257600080fd5b818501915085601f8301126158d657600080fd5b815160206158e6614f5883614f90565b82815260059290921b8401810191818101908984111561590557600080fd5b948201945b8386101561592c57855161591d81614c30565b8252948201949082019061590a565b918801519196509093505050808211156156b357600080fd5b6001600160a01b03858116825284166020820152608060408201819052600090615971908301856155bd565b82810360608401526148d08185614c71565b808202811582820484141761077d5761077d6151a5565b602081526000612ce06020830184614c71565b60018060a01b03871681528560020b60208201528460020b604082015260c0606082015260006159e060c0830186614c71565b6001600160801b039490941660808301525090151560a090910152949350505050565b600080600060608486031215615a1857600080fd5b83516001600160401b03811115615a2e57600080fd5b615a3a8682870161549f565b9350506020840151915061559b60408501615540565b6001600160a01b03999099168952600297880b60208a015295870b604089015293860b60608801529190940b60808601526001600160801b0393841660a0860152831660c085015290911660e083015215156101008201526101200190565b600080600060608486031215615ac457600080fd5b83516001600160401b03811115615ada57600080fd5b615ae68682870161549f565b93505061558d60208501615540565b604081526000615b086040830185614c71565b8281036020840152615b1a8185614c71565b95945050505050565b878152600060018060a01b03808916602084015260e06040840152615b4b60e08401896155bd565b606084019790975294909416608082015260a081019290925260c090910152509392505050565b60008060408385031215615b8557600080fd5b8251915060208301516001600160401b03811115615ba257600080fd5b6150d08582860161549f565b6000610140808352615bc28184018e614c71565b90508b60208401528a60408401528960608401528281036080840152615be8818a614c71565b905082810360a0840152615bfc81896155bd565b60c084018890526001600160a01b03871660e085015261010084018690528381036101208501529050615c2f8185614c71565b9d9c50505050505050505050505050565b60a081526000615c5360a08301886155bd565b602083018790526001600160a01b038616604084015282810360608401526158788186614c71565b60008060408385031215615c8e57600080fd5b82516001600160401b03811115615ca457600080fd5b615cb08582860161549f565b925050602083015190509250929050565b600060208284031215615cd357600080fd5b81516001600160401b03811115615ce957600080fd5b61438b8482850161549f565b600061012060018060a01b038c1683528a60020b60208401528960020b60408401528860020b60608401528760020b60808401528660a08401528560c084015284151560e084015280610100840152615d50818401856155bd565b9c9b505050505050505050505050565b8481526001600160a01b0384166020820152608060408201819052600090615971908301856155bd565b600060018060a01b03808a16835288602084015260e06040840152615db260e08401896155bd565b818816606085015286608085015283810360a0850152615dd281876155bd565b91505082810360c0840152615de78185614c71565b9a9950505050505050505050565b606080825284519082018190526000906020906080840190828801845b82811015615e375781516001600160a01b031684529284019290840190600101615e12565b50505083810382850152615e4b8187614c71565b9150508281036040840152615e608185614c71565b9695505050505050565b604081526000615e7d60408301856155bd565b90508260208301529392505050565b6001600160a01b038781168252861660208201526040810185905260c060608201819052600090615ebf908301866155bd565b84608084015282810360a0840152615ed78185614c71565b9998505050505050505050565b600060018060a01b03808916835260c06020840152615f0660c0840189614e65565b9681166040840152949094166060820152608081019290925260a0909101525092915050565b60008251615f3e818460208701614e41565b919091019291505056fea26469706673582212206978037bbc0baff7afb48ca571bba2bbc211b29580e8915958fbdd329499b8a664736f6c63430008110033",
  "libraries": {
    "StrategyLib": "0xa6A62F6F24f27BA0cf8D9300e0D344fBC9147B66",
    "ConverterStrategyBaseLib": "0x46217F23768C13a2eB4d9e6D274384871355005d",
    "ConverterStrategyBaseLib2": "0x6A7eB37dA27bBB21b23888Be3d87b98aeFed8a23",
    "UniswapV3ConverterStrategyLogicLib": "0x44C0FFB4b3FDEF4F4Da352D039E653Ae9831E2e3"
  },
  "devdoc": {
    "author": "a17",
    "kind": "dev",
    "methods": {
      "claim()": {
        "details": "Manual claim rewards."
      },
      "created()": {
        "returns": {
          "_0": "Creation timestamp"
        }
      },
      "createdBlock()": {
        "returns": {
          "_0": "Creation block number"
        }
      },
      "emergencyExit()": {
        "details": "In case of any issue operator can withdraw all from pool."
      },
      "getFees()": {
        "returns": {
          "fee0": "and fee1."
        }
      },
      "increaseRevision(address)": {
        "details": "Revision should be increased on each contract upgrade"
      },
      "init(address,address,address,address,int24,int24)": {
        "params": {
          "controller_": "The address of the controller.",
          "converter_": "The address of the converter.",
          "pool_": "The address of the pool.",
          "rebalanceTickRange_": "The tick range for rebalancing.",
          "splitter_": "The address of the splitter.",
          "tickRange_": "The tick range for the liquidity position."
        }
      },
      "investAll(uint256,bool)": {
        "params": {
          "updateTotalAssetsBeforeInvest_": "Recalculate total assets amount before depositing.                                       It can be false if we know exactly, that the amount is already actual."
        },
        "returns": {
          "strategyLoss": "Loss should be covered from Insurance"
        }
      },
      "isController(address)": {
        "details": "Return true if given address is controller"
      },
      "isReadyToHardWork()": {
        "returns": {
          "_0": "A boolean indicating if the strategy is ready for hard work."
        }
      },
      "needRebalance()": {
        "returns": {
          "_0": "A boolean indicating if the strategy needs rebalancing."
        }
      },
      "onTransferAmounts(address[],uint256[])": {
        "params": {
          "amounts_": "Amount of {asset_} that has been sent to the user's balance",
          "assets_": "Any asset sent to the balance, i.e. inside repayTheBorrow"
        }
      },
      "previousImplementation()": {
        "details": "Previous logic implementation"
      },
      "rebalance()": {
        "details": "The rebalancing functionality is the core of this strategy.      Depending on the size of the range of liquidity provided, the Fill-up or Swap method is used.      There is also an attempt to cover rebalancing losses with rewards."
      },
      "requirePayAmountBack(address,uint256)": {
        "params": {
          "amount_": "Required amount of the {theAsset_}",
          "theAsset_": "Required asset (either collateral or borrow)"
        },
        "returns": {
          "amountOut": "Amount sent to balance of TetuConverter, amountOut <= amount_"
        }
      },
      "revision()": {
        "details": "Contract upgrade counter"
      },
      "setCompoundRatio(uint256)": {
        "details": "PlatformVoter can change compound ratio for some strategies.      A strategy can implement another logic for some uniq cases."
      },
      "setFuseThreshold(uint256)": {
        "params": {
          "newFuseThreshold": "The new fuse threshold value."
        }
      },
      "setReinvestThresholdPercent(uint256)": {
        "params": {
          "percent_": "New value of the percent, decimals = {REINVEST_THRESHOLD_PERCENT_DENOMINATOR}"
        }
      },
      "setStrategySpecificName(string)": {
        "details": "The name will be used for UI."
      },
      "supportsInterface(bytes4)": {
        "details": "See {IERC165-supportsInterface}."
      },
      "totalAssets()": {
        "details": "Total amount of underlying assets under control of this strategy."
      },
      "uniswapV3MintCallback(uint256,uint256,bytes)": {
        "params": {
          "amount0Owed": "The amount of token0 owed to the pool.",
          "amount1Owed": "The amount of token1 owed to the pool."
        }
      },
      "withdrawAllToSplitter()": {
        "details": "Withdraws all underlying assets to the vault",
        "returns": {
          "strategyLoss": "Loss should be covered from Insurance"
        }
      },
      "withdrawToSplitter(uint256)": {
        "details": "Withdraws some assets to the splitter",
        "returns": {
          "strategyLoss": "Loss should be covered from Insurance"
        }
      }
    },
    "title": "Delta-neutral liquidity hedging converter fill-up/swap rebalancing strategy for UniswapV3",
    "version": 1
  },
  "userdoc": {
    "events": {
      "LiquidationThresholdChanged(address,uint256)": {
        "notice": "Events"
      },
      "Recycle(address[],uint256[],uint256[])": {
        "notice": "Recycle was made"
      }
    },
    "kind": "user",
    "methods": {
      "CONTROLLABLE_VERSION()": {
        "notice": "Version of the contract"
      },
      "NAME()": {
        "notice": "CONSTANTS"
      },
      "baseAmounts(address)": {
        "notice": "DEPRECATED Balances of not-reward amounts"
      },
      "capacity()": {
        "notice": "Unlimited capacity by default"
      },
      "controller()": {
        "notice": "Return controller address saved in the contract slot"
      },
      "created()": {
        "notice": "Return creation timestamp"
      },
      "createdBlock()": {
        "notice": "Return creation block number"
      },
      "disableFuse()": {
        "notice": "Disable fuse for the strategy."
      },
      "doHardWork()": {
        "notice": "Do hard work"
      },
      "getFees()": {
        "notice": "Returns the fees for the current state."
      },
      "getState()": {
        "notice": "Returns the current state of the contract."
      },
      "init(address,address,address,address,int24,int24)": {
        "notice": "Initialize the strategy with the given parameters."
      },
      "investAll(uint256,bool)": {
        "notice": "Stakes everything the strategy holds into the reward pool. amount_ Amount transferred to the strategy balance just before calling this function"
      },
      "investedAssets()": {
        "notice": "Amount of underlying assets converted to pool assets and invested to the pool."
      },
      "isGovernance(address)": {
        "notice": "Return true if given address is setup as governance in Controller"
      },
      "isReadyToHardWork()": {
        "notice": "Check if the strategy is ready for hard work."
      },
      "liquidationThresholds(address)": {
        "notice": "Minimum token amounts that can be liquidated"
      },
      "needRebalance()": {
        "notice": "Check if the strategy needs rebalancing."
      },
      "onTransferAmounts(address[],uint256[])": {
        "notice": "TetuConverter calls this function when it sends any amount to user's balance"
      },
      "performanceFee()": {
        "notice": "A percent of total profit that is sent to the {performanceReceiver} before compounding"
      },
      "performanceReceiver()": {
        "notice": "{performanceFee}% of total profit is sent to {performanceReceiver} before compounding"
      },
      "reinvestThresholdPercent()": {
        "notice": "Percent of asset amount that can be not invested, it's allowed to just keep it on balance         decimals = {REINVEST_THRESHOLD_PERCENT_DENOMINATOR}"
      },
      "requirePayAmountBack(address,uint256)": {
        "notice": "Converters asks to send some amount back."
      },
      "setFuseThreshold(uint256)": {
        "notice": "Set the fuse threshold for the strategy."
      },
      "setupPerformanceFee(uint256,address)": {
        "notice": "Set performance fee and receiver"
      },
      "uniswapV3MintCallback(uint256,uint256,bytes)": {
        "notice": "Callback function called by Uniswap V3 pool on mint operation."
      }
    },
    "notice": "This strategy provides delta-neutral liquidity hedging for Uniswap V3 pools. It rebalances the liquidity         by utilizing fill-up and swap methods depending on the range size of the liquidity provided.         It also attempts to cover rebalancing losses with rewards.",
    "version": 1
  },
  "storageLayout": {
    "storage": [
      {
        "astId": 11062,
        "contract": "contracts/strategies/uniswap/UniswapV3ConverterStrategy.sol:UniswapV3ConverterStrategy",
        "label": "_initialized",
        "offset": 0,
        "slot": "0",
        "type": "t_uint8"
      },
      {
        "astId": 11065,
        "contract": "contracts/strategies/uniswap/UniswapV3ConverterStrategy.sol:UniswapV3ConverterStrategy",
        "label": "_initializing",
        "offset": 1,
        "slot": "0",
        "type": "t_bool"
      },
      {
        "astId": 68449,
        "contract": "contracts/strategies/uniswap/UniswapV3ConverterStrategy.sol:UniswapV3ConverterStrategy",
        "label": "state",
        "offset": 0,
        "slot": "1",
        "type": "t_struct(State)64890_storage"
      },
      {
        "astId": 69024,
        "contract": "contracts/strategies/uniswap/UniswapV3ConverterStrategy.sol:UniswapV3ConverterStrategy",
        "label": "__gap",
        "offset": 0,
        "slot": "12",
        "type": "t_array(t_uint256)49_storage"
      },
      {
        "astId": 15954,
        "contract": "contracts/strategies/uniswap/UniswapV3ConverterStrategy.sol:UniswapV3ConverterStrategy",
        "label": "asset",
        "offset": 0,
        "slot": "61",
        "type": "t_address"
      },
      {
        "astId": 15958,
        "contract": "contracts/strategies/uniswap/UniswapV3ConverterStrategy.sol:UniswapV3ConverterStrategy",
        "label": "splitter",
        "offset": 0,
        "slot": "62",
        "type": "t_address"
      },
      {
        "astId": 15962,
        "contract": "contracts/strategies/uniswap/UniswapV3ConverterStrategy.sol:UniswapV3ConverterStrategy",
        "label": "compoundRatio",
        "offset": 0,
        "slot": "63",
        "type": "t_uint256"
      },
      {
        "astId": 15967,
        "contract": "contracts/strategies/uniswap/UniswapV3ConverterStrategy.sol:UniswapV3ConverterStrategy",
        "label": "baseAmounts",
        "offset": 0,
        "slot": "64",
        "type": "t_mapping(t_address,t_uint256)"
      },
      {
        "astId": 15971,
        "contract": "contracts/strategies/uniswap/UniswapV3ConverterStrategy.sol:UniswapV3ConverterStrategy",
        "label": "performanceReceiver",
        "offset": 0,
        "slot": "65",
        "type": "t_address"
      },
      {
        "astId": 15975,
        "contract": "contracts/strategies/uniswap/UniswapV3ConverterStrategy.sol:UniswapV3ConverterStrategy",
        "label": "performanceFee",
        "offset": 0,
        "slot": "66",
        "type": "t_uint256"
      },
      {
        "astId": 15979,
        "contract": "contracts/strategies/uniswap/UniswapV3ConverterStrategy.sol:UniswapV3ConverterStrategy",
        "label": "strategySpecificName",
        "offset": 0,
        "slot": "67",
        "type": "t_string_storage"
      },
      {
        "astId": 55615,
        "contract": "contracts/strategies/uniswap/UniswapV3ConverterStrategy.sol:UniswapV3ConverterStrategy",
        "label": "_investedAssets",
        "offset": 0,
        "slot": "68",
        "type": "t_uint256"
      },
      {
        "astId": 55619,
        "contract": "contracts/strategies/uniswap/UniswapV3ConverterStrategy.sol:UniswapV3ConverterStrategy",
        "label": "converter",
        "offset": 0,
        "slot": "69",
        "type": "t_contract(ITetuConverter)40372"
      },
      {
        "astId": 55624,
        "contract": "contracts/strategies/uniswap/UniswapV3ConverterStrategy.sol:UniswapV3ConverterStrategy",
        "label": "liquidationThresholds",
        "offset": 0,
        "slot": "70",
        "type": "t_mapping(t_address,t_uint256)"
      },
      {
        "astId": 55627,
        "contract": "contracts/strategies/uniswap/UniswapV3ConverterStrategy.sol:UniswapV3ConverterStrategy",
        "label": "reinvestThresholdPercent",
        "offset": 0,
        "slot": "71",
        "type": "t_uint256"
      },
      {
        "astId": 57048,
        "contract": "contracts/strategies/uniswap/UniswapV3ConverterStrategy.sol:UniswapV3ConverterStrategy",
        "label": "__gap",
        "offset": 0,
        "slot": "72",
        "type": "t_array(t_uint256)46_storage"
      }
    ],
    "types": {
      "t_address": {
        "encoding": "inplace",
        "label": "address",
        "numberOfBytes": "20"
      },
      "t_array(t_uint256)46_storage": {
        "base": "t_uint256",
        "encoding": "inplace",
        "label": "uint256[46]",
        "numberOfBytes": "1472"
      },
      "t_array(t_uint256)49_storage": {
        "base": "t_uint256",
        "encoding": "inplace",
        "label": "uint256[49]",
        "numberOfBytes": "1568"
      },
      "t_bool": {
        "encoding": "inplace",
        "label": "bool",
        "numberOfBytes": "1"
      },
      "t_contract(ITetuConverter)40372": {
        "encoding": "inplace",
        "label": "contract ITetuConverter",
        "numberOfBytes": "20"
      },
      "t_contract(IUniswapV3Pool)53616": {
        "encoding": "inplace",
        "label": "contract IUniswapV3Pool",
        "numberOfBytes": "20"
      },
      "t_int24": {
        "encoding": "inplace",
        "label": "int24",
        "numberOfBytes": "3"
      },
      "t_mapping(t_address,t_uint256)": {
        "encoding": "mapping",
        "key": "t_address",
        "label": "mapping(address => uint256)",
        "numberOfBytes": "32",
        "value": "t_uint256"
      },
      "t_string_storage": {
        "encoding": "bytes",
        "label": "string",
        "numberOfBytes": "32"
      },
      "t_struct(State)64890_storage": {
        "encoding": "inplace",
        "label": "struct UniswapV3ConverterStrategyLogicLib.State",
        "members": [
          {
            "astId": 64850,
            "contract": "contracts/strategies/uniswap/UniswapV3ConverterStrategy.sol:UniswapV3ConverterStrategy",
            "label": "tokenA",
            "offset": 0,
            "slot": "0",
            "type": "t_address"
          },
          {
            "astId": 64852,
            "contract": "contracts/strategies/uniswap/UniswapV3ConverterStrategy.sol:UniswapV3ConverterStrategy",
            "label": "tokenB",
            "offset": 0,
            "slot": "1",
            "type": "t_address"
          },
          {
            "astId": 64855,
            "contract": "contracts/strategies/uniswap/UniswapV3ConverterStrategy.sol:UniswapV3ConverterStrategy",
            "label": "pool",
            "offset": 0,
            "slot": "2",
            "type": "t_contract(IUniswapV3Pool)53616"
          },
          {
            "astId": 64857,
            "contract": "contracts/strategies/uniswap/UniswapV3ConverterStrategy.sol:UniswapV3ConverterStrategy",
            "label": "tickSpacing",
            "offset": 20,
            "slot": "2",
            "type": "t_int24"
          },
          {
            "astId": 64859,
            "contract": "contracts/strategies/uniswap/UniswapV3ConverterStrategy.sol:UniswapV3ConverterStrategy",
            "label": "fillUp",
            "offset": 23,
            "slot": "2",
            "type": "t_bool"
          },
          {
            "astId": 64861,
            "contract": "contracts/strategies/uniswap/UniswapV3ConverterStrategy.sol:UniswapV3ConverterStrategy",
            "label": "isStablePool",
            "offset": 24,
            "slot": "2",
            "type": "t_bool"
          },
          {
            "astId": 64863,
            "contract": "contracts/strategies/uniswap/UniswapV3ConverterStrategy.sol:UniswapV3ConverterStrategy",
            "label": "lowerTick",
            "offset": 25,
            "slot": "2",
            "type": "t_int24"
          },
          {
            "astId": 64865,
            "contract": "contracts/strategies/uniswap/UniswapV3ConverterStrategy.sol:UniswapV3ConverterStrategy",
            "label": "upperTick",
            "offset": 28,
            "slot": "2",
            "type": "t_int24"
          },
          {
            "astId": 64867,
            "contract": "contracts/strategies/uniswap/UniswapV3ConverterStrategy.sol:UniswapV3ConverterStrategy",
            "label": "lowerTickFillup",
            "offset": 0,
            "slot": "3",
            "type": "t_int24"
          },
          {
            "astId": 64869,
            "contract": "contracts/strategies/uniswap/UniswapV3ConverterStrategy.sol:UniswapV3ConverterStrategy",
            "label": "upperTickFillup",
            "offset": 3,
            "slot": "3",
            "type": "t_int24"
          },
          {
            "astId": 64871,
            "contract": "contracts/strategies/uniswap/UniswapV3ConverterStrategy.sol:UniswapV3ConverterStrategy",
            "label": "rebalanceTickRange",
            "offset": 6,
            "slot": "3",
            "type": "t_int24"
          },
          {
            "astId": 64873,
            "contract": "contracts/strategies/uniswap/UniswapV3ConverterStrategy.sol:UniswapV3ConverterStrategy",
            "label": "depositorSwapTokens",
            "offset": 9,
            "slot": "3",
            "type": "t_bool"
          },
          {
            "astId": 64875,
            "contract": "contracts/strategies/uniswap/UniswapV3ConverterStrategy.sol:UniswapV3ConverterStrategy",
            "label": "totalLiquidity",
            "offset": 10,
            "slot": "3",
            "type": "t_uint128"
          },
          {
            "astId": 64877,
            "contract": "contracts/strategies/uniswap/UniswapV3ConverterStrategy.sol:UniswapV3ConverterStrategy",
            "label": "totalLiquidityFillup",
            "offset": 0,
            "slot": "4",
            "type": "t_uint128"
          },
          {
            "astId": 64879,
            "contract": "contracts/strategies/uniswap/UniswapV3ConverterStrategy.sol:UniswapV3ConverterStrategy",
            "label": "rebalanceEarned0",
            "offset": 0,
            "slot": "5",
            "type": "t_uint256"
          },
          {
            "astId": 64881,
            "contract": "contracts/strategies/uniswap/UniswapV3ConverterStrategy.sol:UniswapV3ConverterStrategy",
            "label": "rebalanceEarned1",
            "offset": 0,
            "slot": "6",
            "type": "t_uint256"
          },
          {
            "astId": 64883,
            "contract": "contracts/strategies/uniswap/UniswapV3ConverterStrategy.sol:UniswapV3ConverterStrategy",
            "label": "rebalanceLost",
            "offset": 0,
            "slot": "7",
            "type": "t_uint256"
          },
          {
            "astId": 64885,
            "contract": "contracts/strategies/uniswap/UniswapV3ConverterStrategy.sol:UniswapV3ConverterStrategy",
            "label": "isFuseTriggered",
            "offset": 0,
            "slot": "8",
            "type": "t_bool"
          },
          {
            "astId": 64887,
            "contract": "contracts/strategies/uniswap/UniswapV3ConverterStrategy.sol:UniswapV3ConverterStrategy",
            "label": "fuseThreshold",
            "offset": 0,
            "slot": "9",
            "type": "t_uint256"
          },
          {
            "astId": 64889,
            "contract": "contracts/strategies/uniswap/UniswapV3ConverterStrategy.sol:UniswapV3ConverterStrategy",
            "label": "lastPrice",
            "offset": 0,
            "slot": "10",
            "type": "t_uint256"
          }
        ],
        "numberOfBytes": "352"
      },
      "t_uint128": {
        "encoding": "inplace",
        "label": "uint128",
        "numberOfBytes": "16"
      },
      "t_uint256": {
        "encoding": "inplace",
        "label": "uint256",
        "numberOfBytes": "32"
      },
      "t_uint8": {
        "encoding": "inplace",
        "label": "uint8",
        "numberOfBytes": "1"
      }
    }
  }
}