{
  "address": "0xeb7901D946D9c4c108cf9762aaf1Dd285532D658",
  "abi": [
    {
      "anonymous": false,
      "inputs": [
        {
          "indexed": false,
          "internalType": "address",
          "name": "token",
          "type": "address"
        },
        {
          "indexed": false,
          "internalType": "uint256",
          "name": "amount",
          "type": "uint256"
        }
      ],
      "name": "Claimed",
      "type": "event"
    },
    {
      "anonymous": false,
      "inputs": [
        {
          "indexed": false,
          "internalType": "uint256",
          "name": "oldValue",
          "type": "uint256"
        },
        {
          "indexed": false,
          "internalType": "uint256",
          "name": "newValue",
          "type": "uint256"
        }
      ],
      "name": "CompoundRatioChanged",
      "type": "event"
    },
    {
      "anonymous": false,
      "inputs": [
        {
          "indexed": false,
          "internalType": "address",
          "name": "controller",
          "type": "address"
        },
        {
          "indexed": false,
          "internalType": "uint256",
          "name": "ts",
          "type": "uint256"
        },
        {
          "indexed": false,
          "internalType": "uint256",
          "name": "block",
          "type": "uint256"
        }
      ],
      "name": "ContractInitialized",
      "type": "event"
    },
    {
      "anonymous": false,
      "inputs": [
        {
          "indexed": false,
          "internalType": "uint256",
          "name": "amount",
          "type": "uint256"
        }
      ],
      "name": "DepositToPool",
      "type": "event"
    },
    {
      "anonymous": false,
      "inputs": [
        {
          "indexed": false,
          "internalType": "address",
          "name": "sender",
          "type": "address"
        },
        {
          "indexed": false,
          "internalType": "uint256",
          "name": "amount",
          "type": "uint256"
        }
      ],
      "name": "EmergencyExit",
      "type": "event"
    },
    {
      "anonymous": false,
      "inputs": [
        {
          "indexed": false,
          "internalType": "uint8",
          "name": "version",
          "type": "uint8"
        }
      ],
      "name": "Initialized",
      "type": "event"
    },
    {
      "anonymous": false,
      "inputs": [
        {
          "indexed": false,
          "internalType": "uint256",
          "name": "balance",
          "type": "uint256"
        }
      ],
      "name": "InvestAll",
      "type": "event"
    },
    {
      "anonymous": false,
      "inputs": [
        {
          "indexed": false,
          "internalType": "address",
          "name": "token",
          "type": "address"
        },
        {
          "indexed": false,
          "internalType": "uint256",
          "name": "amount",
          "type": "uint256"
        }
      ],
      "name": "LiquidationThresholdChanged",
      "type": "event"
    },
    {
      "anonymous": false,
      "inputs": [
        {
          "indexed": false,
          "internalType": "address",
          "name": "sender",
          "type": "address"
        }
      ],
      "name": "ManualClaim",
      "type": "event"
    },
    {
      "anonymous": false,
      "inputs": [
        {
          "indexed": false,
          "internalType": "uint256[]",
          "name": "withdrawnAmounts",
          "type": "uint256[]"
        }
      ],
      "name": "OnDepositorEmergencyExit",
      "type": "event"
    },
    {
      "anonymous": false,
      "inputs": [
        {
          "indexed": false,
          "internalType": "uint256[]",
          "name": "amounts",
          "type": "uint256[]"
        },
        {
          "indexed": false,
          "internalType": "uint256[]",
          "name": "consumedAmounts",
          "type": "uint256[]"
        }
      ],
      "name": "OnDepositorEnter",
      "type": "event"
    },
    {
      "anonymous": false,
      "inputs": [
        {
          "indexed": false,
          "internalType": "uint256",
          "name": "liquidityAmount",
          "type": "uint256"
        },
        {
          "indexed": false,
          "internalType": "uint256[]",
          "name": "withdrawnAmounts",
          "type": "uint256[]"
        }
      ],
      "name": "OnDepositorExit",
      "type": "event"
    },
    {
      "anonymous": false,
      "inputs": [
        {
          "indexed": false,
          "internalType": "address[]",
          "name": "rewardTokens",
          "type": "address[]"
        },
        {
          "indexed": false,
          "internalType": "uint256[]",
          "name": "receivedAmounts",
          "type": "uint256[]"
        },
        {
          "indexed": false,
          "internalType": "uint256[]",
          "name": "spentAmounts",
          "type": "uint256[]"
        },
        {
          "indexed": false,
          "internalType": "uint256[]",
          "name": "amountsToForward",
          "type": "uint256[]"
        },
        {
          "indexed": false,
          "internalType": "uint256[]",
          "name": "performanceAmounts",
          "type": "uint256[]"
        }
      ],
      "name": "Recycle",
      "type": "event"
    },
    {
      "anonymous": false,
      "inputs": [
        {
          "indexed": false,
          "internalType": "uint256",
          "name": "amount",
          "type": "uint256"
        }
      ],
      "name": "ReinvestThresholdPercentChanged",
      "type": "event"
    },
    {
      "anonymous": false,
      "inputs": [
        {
          "indexed": false,
          "internalType": "address",
          "name": "asset",
          "type": "address"
        },
        {
          "indexed": false,
          "internalType": "uint256",
          "name": "amount",
          "type": "uint256"
        }
      ],
      "name": "ReturnAssetToConverter",
      "type": "event"
    },
    {
      "anonymous": false,
      "inputs": [
        {
          "indexed": false,
          "internalType": "uint256",
          "name": "value",
          "type": "uint256"
        },
        {
          "indexed": false,
          "internalType": "address",
          "name": "oldLogic",
          "type": "address"
        }
      ],
      "name": "RevisionIncreased",
      "type": "event"
    },
    {
      "anonymous": false,
      "inputs": [
        {
          "indexed": false,
          "internalType": "address",
          "name": "asset",
          "type": "address"
        },
        {
          "indexed": false,
          "internalType": "int256",
          "name": "amount",
          "type": "int256"
        }
      ],
      "name": "UpdateBaseAmounts",
      "type": "event"
    },
    {
      "anonymous": false,
      "inputs": [
        {
          "indexed": false,
          "internalType": "uint256",
          "name": "amount",
          "type": "uint256"
        }
      ],
      "name": "WithdrawAllFromPool",
      "type": "event"
    },
    {
      "anonymous": false,
      "inputs": [
        {
          "indexed": false,
          "internalType": "uint256",
          "name": "amount",
          "type": "uint256"
        }
      ],
      "name": "WithdrawAllToSplitter",
      "type": "event"
    },
    {
      "anonymous": false,
      "inputs": [
        {
          "indexed": false,
          "internalType": "uint256",
          "name": "amount",
          "type": "uint256"
        }
      ],
      "name": "WithdrawFromPool",
      "type": "event"
    },
    {
      "anonymous": false,
      "inputs": [
        {
          "indexed": false,
          "internalType": "uint256",
          "name": "amount",
          "type": "uint256"
        },
        {
          "indexed": false,
          "internalType": "uint256",
          "name": "sent",
          "type": "uint256"
        },
        {
          "indexed": false,
          "internalType": "uint256",
          "name": "balance",
          "type": "uint256"
        }
      ],
      "name": "WithdrawToSplitter",
      "type": "event"
    },
    {
      "inputs": [],
      "name": "CONTROLLABLE_VERSION",
      "outputs": [
        {
          "internalType": "string",
          "name": "",
          "type": "string"
        }
      ],
      "stateMutability": "view",
      "type": "function"
    },
    {
      "inputs": [],
      "name": "CONVERTER_STRATEGY_BASE_VERSION",
      "outputs": [
        {
          "internalType": "string",
          "name": "",
          "type": "string"
        }
      ],
      "stateMutability": "view",
      "type": "function"
    },
    {
      "inputs": [],
      "name": "NAME",
      "outputs": [
        {
          "internalType": "string",
          "name": "",
          "type": "string"
        }
      ],
      "stateMutability": "view",
      "type": "function"
    },
    {
      "inputs": [],
      "name": "PLATFORM",
      "outputs": [
        {
          "internalType": "string",
          "name": "",
          "type": "string"
        }
      ],
      "stateMutability": "view",
      "type": "function"
    },
    {
      "inputs": [],
      "name": "STRATEGY_BASE_VERSION",
      "outputs": [
        {
          "internalType": "string",
          "name": "",
          "type": "string"
        }
      ],
      "stateMutability": "view",
      "type": "function"
    },
    {
      "inputs": [],
      "name": "STRATEGY_VERSION",
      "outputs": [
        {
          "internalType": "string",
          "name": "",
          "type": "string"
        }
      ],
      "stateMutability": "view",
      "type": "function"
    },
    {
      "inputs": [],
      "name": "UNISWAPV3_DEPOSITOR_VERSION",
      "outputs": [
        {
          "internalType": "string",
          "name": "",
          "type": "string"
        }
      ],
      "stateMutability": "view",
      "type": "function"
    },
    {
      "inputs": [],
      "name": "asset",
      "outputs": [
        {
          "internalType": "address",
          "name": "",
          "type": "address"
        }
      ],
      "stateMutability": "view",
      "type": "function"
    },
    {
      "inputs": [
        {
          "internalType": "address",
          "name": "",
          "type": "address"
        }
      ],
      "name": "baseAmounts",
      "outputs": [
        {
          "internalType": "uint256",
          "name": "",
          "type": "uint256"
        }
      ],
      "stateMutability": "view",
      "type": "function"
    },
    {
      "inputs": [],
      "name": "calcInvestedAssets",
      "outputs": [
        {
          "internalType": "uint256",
          "name": "",
          "type": "uint256"
        }
      ],
      "stateMutability": "nonpayable",
      "type": "function"
    },
    {
      "inputs": [],
      "name": "capacity",
      "outputs": [
        {
          "internalType": "uint256",
          "name": "",
          "type": "uint256"
        }
      ],
      "stateMutability": "view",
      "type": "function"
    },
    {
      "inputs": [],
      "name": "claim",
      "outputs": [],
      "stateMutability": "nonpayable",
      "type": "function"
    },
    {
      "inputs": [],
      "name": "compoundRatio",
      "outputs": [
        {
          "internalType": "uint256",
          "name": "",
          "type": "uint256"
        }
      ],
      "stateMutability": "view",
      "type": "function"
    },
    {
      "inputs": [],
      "name": "controller",
      "outputs": [
        {
          "internalType": "address",
          "name": "",
          "type": "address"
        }
      ],
      "stateMutability": "view",
      "type": "function"
    },
    {
      "inputs": [],
      "name": "converter",
      "outputs": [
        {
          "internalType": "contract ITetuConverter",
          "name": "",
          "type": "address"
        }
      ],
      "stateMutability": "view",
      "type": "function"
    },
    {
      "inputs": [],
      "name": "created",
      "outputs": [
        {
          "internalType": "uint256",
          "name": "",
          "type": "uint256"
        }
      ],
      "stateMutability": "view",
      "type": "function"
    },
    {
      "inputs": [],
      "name": "createdBlock",
      "outputs": [
        {
          "internalType": "uint256",
          "name": "",
          "type": "uint256"
        }
      ],
      "stateMutability": "view",
      "type": "function"
    },
    {
      "inputs": [],
      "name": "disableFuse",
      "outputs": [],
      "stateMutability": "nonpayable",
      "type": "function"
    },
    {
      "inputs": [],
      "name": "doHardWork",
      "outputs": [
        {
          "internalType": "uint256",
          "name": "",
          "type": "uint256"
        },
        {
          "internalType": "uint256",
          "name": "",
          "type": "uint256"
        }
      ],
      "stateMutability": "nonpayable",
      "type": "function"
    },
    {
      "inputs": [],
      "name": "emergencyExit",
      "outputs": [],
      "stateMutability": "nonpayable",
      "type": "function"
    },
    {
      "inputs": [],
      "name": "getState",
      "outputs": [
        {
          "internalType": "address",
          "name": "tokenA",
          "type": "address"
        },
        {
          "internalType": "address",
          "name": "tokenB",
          "type": "address"
        },
        {
          "internalType": "contract IUniswapV3Pool",
          "name": "pool",
          "type": "address"
        },
        {
          "internalType": "int24",
          "name": "tickSpacing",
          "type": "int24"
        },
        {
          "internalType": "int24",
          "name": "lowerTick",
          "type": "int24"
        },
        {
          "internalType": "int24",
          "name": "upperTick",
          "type": "int24"
        },
        {
          "internalType": "int24",
          "name": "rebalanceTickRange",
          "type": "int24"
        },
        {
          "internalType": "uint128",
          "name": "totalLiquidity",
          "type": "uint128"
        },
        {
          "internalType": "bool",
          "name": "isFuseTriggered",
          "type": "bool"
        },
        {
          "internalType": "uint256",
          "name": "fuseThreshold",
          "type": "uint256"
        },
        {
          "internalType": "uint256[]",
          "name": "rebalanceResults",
          "type": "uint256[]"
        }
      ],
      "stateMutability": "view",
      "type": "function"
    },
    {
      "inputs": [
        {
          "internalType": "address",
          "name": "oldLogic",
          "type": "address"
        }
      ],
      "name": "increaseRevision",
      "outputs": [],
      "stateMutability": "nonpayable",
      "type": "function"
    },
    {
      "inputs": [
        {
          "internalType": "address",
          "name": "controller_",
          "type": "address"
        },
        {
          "internalType": "address",
          "name": "splitter_",
          "type": "address"
        },
        {
          "internalType": "address",
          "name": "converter_",
          "type": "address"
        },
        {
          "internalType": "address",
          "name": "pool_",
          "type": "address"
        },
        {
          "internalType": "int24",
          "name": "tickRange_",
          "type": "int24"
        },
        {
          "internalType": "int24",
          "name": "rebalanceTickRange_",
          "type": "int24"
        }
      ],
      "name": "init",
      "outputs": [],
      "stateMutability": "nonpayable",
      "type": "function"
    },
    {
      "inputs": [
        {
          "internalType": "uint256",
          "name": "amount_",
          "type": "uint256"
        },
        {
          "internalType": "bool",
          "name": "updateTotalAssetsBeforeInvest_",
          "type": "bool"
        }
      ],
      "name": "investAll",
      "outputs": [
        {
          "internalType": "int256",
          "name": "totalAssetsDelta",
          "type": "int256"
        }
      ],
      "stateMutability": "nonpayable",
      "type": "function"
    },
    {
      "inputs": [],
      "name": "investedAssets",
      "outputs": [
        {
          "internalType": "uint256",
          "name": "",
          "type": "uint256"
        }
      ],
      "stateMutability": "view",
      "type": "function"
    },
    {
      "inputs": [
        {
          "internalType": "address",
          "name": "_value",
          "type": "address"
        }
      ],
      "name": "isController",
      "outputs": [
        {
          "internalType": "bool",
          "name": "",
          "type": "bool"
        }
      ],
      "stateMutability": "view",
      "type": "function"
    },
    {
      "inputs": [
        {
          "internalType": "address",
          "name": "_value",
          "type": "address"
        }
      ],
      "name": "isGovernance",
      "outputs": [
        {
          "internalType": "bool",
          "name": "",
          "type": "bool"
        }
      ],
      "stateMutability": "view",
      "type": "function"
    },
    {
      "inputs": [],
      "name": "isReadyToHardWork",
      "outputs": [
        {
          "internalType": "bool",
          "name": "",
          "type": "bool"
        }
      ],
      "stateMutability": "view",
      "type": "function"
    },
    {
      "inputs": [
        {
          "internalType": "address",
          "name": "",
          "type": "address"
        }
      ],
      "name": "liquidationThresholds",
      "outputs": [
        {
          "internalType": "uint256",
          "name": "",
          "type": "uint256"
        }
      ],
      "stateMutability": "view",
      "type": "function"
    },
    {
      "inputs": [],
      "name": "needRebalance",
      "outputs": [
        {
          "internalType": "bool",
          "name": "",
          "type": "bool"
        }
      ],
      "stateMutability": "view",
      "type": "function"
    },
    {
      "inputs": [
        {
          "internalType": "address[]",
          "name": "assets_",
          "type": "address[]"
        },
        {
          "internalType": "uint256[]",
          "name": "amounts_",
          "type": "uint256[]"
        }
      ],
      "name": "onTransferAmounts",
      "outputs": [],
      "stateMutability": "nonpayable",
      "type": "function"
    },
    {
      "inputs": [],
      "name": "performanceFee",
      "outputs": [
        {
          "internalType": "uint256",
          "name": "",
          "type": "uint256"
        }
      ],
      "stateMutability": "view",
      "type": "function"
    },
    {
      "inputs": [],
      "name": "performanceReceiver",
      "outputs": [
        {
          "internalType": "address",
          "name": "",
          "type": "address"
        }
      ],
      "stateMutability": "view",
      "type": "function"
    },
    {
      "inputs": [],
      "name": "previousImplementation",
      "outputs": [
        {
          "internalType": "address",
          "name": "",
          "type": "address"
        }
      ],
      "stateMutability": "view",
      "type": "function"
    },
    {
      "inputs": [],
      "name": "rebalance",
      "outputs": [],
      "stateMutability": "nonpayable",
      "type": "function"
    },
    {
      "inputs": [],
      "name": "reinvestThresholdPercent",
      "outputs": [
        {
          "internalType": "uint256",
          "name": "",
          "type": "uint256"
        }
      ],
      "stateMutability": "view",
      "type": "function"
    },
    {
      "inputs": [
        {
          "internalType": "address",
          "name": "theAsset_",
          "type": "address"
        },
        {
          "internalType": "uint256",
          "name": "amount_",
          "type": "uint256"
        }
      ],
      "name": "requirePayAmountBack",
      "outputs": [
        {
          "internalType": "uint256",
          "name": "amountOut",
          "type": "uint256"
        }
      ],
      "stateMutability": "nonpayable",
      "type": "function"
    },
    {
      "inputs": [],
      "name": "revision",
      "outputs": [
        {
          "internalType": "uint256",
          "name": "",
          "type": "uint256"
        }
      ],
      "stateMutability": "view",
      "type": "function"
    },
    {
      "inputs": [
        {
          "internalType": "uint256",
          "name": "value",
          "type": "uint256"
        }
      ],
      "name": "setCompoundRatio",
      "outputs": [],
      "stateMutability": "nonpayable",
      "type": "function"
    },
    {
      "inputs": [
        {
          "internalType": "uint256",
          "name": "newFuseThreshold",
          "type": "uint256"
        }
      ],
      "name": "setFuseThreshold",
      "outputs": [],
      "stateMutability": "nonpayable",
      "type": "function"
    },
    {
      "inputs": [
        {
          "internalType": "address",
          "name": "token",
          "type": "address"
        },
        {
          "internalType": "uint256",
          "name": "amount",
          "type": "uint256"
        }
      ],
      "name": "setLiquidationThreshold",
      "outputs": [],
      "stateMutability": "nonpayable",
      "type": "function"
    },
    {
      "inputs": [
        {
          "internalType": "uint256",
          "name": "percent_",
          "type": "uint256"
        }
      ],
      "name": "setReinvestThresholdPercent",
      "outputs": [],
      "stateMutability": "nonpayable",
      "type": "function"
    },
    {
      "inputs": [
        {
          "internalType": "uint256",
          "name": "fee_",
          "type": "uint256"
        },
        {
          "internalType": "address",
          "name": "receiver_",
          "type": "address"
        }
      ],
      "name": "setupPerformanceFee",
      "outputs": [],
      "stateMutability": "nonpayable",
      "type": "function"
    },
    {
      "inputs": [],
      "name": "splitter",
      "outputs": [
        {
          "internalType": "address",
          "name": "",
          "type": "address"
        }
      ],
      "stateMutability": "view",
      "type": "function"
    },
    {
      "inputs": [
        {
          "internalType": "bytes4",
          "name": "interfaceId",
          "type": "bytes4"
        }
      ],
      "name": "supportsInterface",
      "outputs": [
        {
          "internalType": "bool",
          "name": "",
          "type": "bool"
        }
      ],
      "stateMutability": "view",
      "type": "function"
    },
    {
      "inputs": [],
      "name": "totalAssets",
      "outputs": [
        {
          "internalType": "uint256",
          "name": "",
          "type": "uint256"
        }
      ],
      "stateMutability": "view",
      "type": "function"
    },
    {
      "inputs": [
        {
          "internalType": "uint256",
          "name": "amount0Owed",
          "type": "uint256"
        },
        {
          "internalType": "uint256",
          "name": "amount1Owed",
          "type": "uint256"
        },
        {
          "internalType": "bytes",
          "name": "",
          "type": "bytes"
        }
      ],
      "name": "uniswapV3MintCallback",
      "outputs": [],
      "stateMutability": "nonpayable",
      "type": "function"
    },
    {
      "inputs": [],
      "name": "withdrawAllToSplitter",
      "outputs": [
        {
          "internalType": "int256",
          "name": "",
          "type": "int256"
        }
      ],
      "stateMutability": "nonpayable",
      "type": "function"
    },
    {
      "inputs": [
        {
          "internalType": "uint256",
          "name": "amount",
          "type": "uint256"
        }
      ],
      "name": "withdrawToSplitter",
      "outputs": [
        {
          "internalType": "int256",
          "name": "totalAssetsDelta",
          "type": "int256"
        }
      ],
      "stateMutability": "nonpayable",
      "type": "function"
    }
  ],
  "transactionHash": "0xa9e31a8009b0f2ebcfab2e40c977264c7f0a6864937ee661f6f7c369c05f3f12",
  "args": [],
  "numDeployments": 2,
  "solcInputHash": "06d9c7122dc4435223f49d6cf111f8e7",
  "bytecode": "0x60806040523480156200001157600080fd5b506200001c62000022565b620000e3565b600054610100900460ff16156200008f5760405162461bcd60e51b815260206004820152602760248201527f496e697469616c697a61626c653a20636f6e747261637420697320696e697469604482015266616c697a696e6760c81b606482015260840160405180910390fd5b60005460ff90811614620000e1576000805460ff191660ff9081179091556040519081527f7f26b83ff96e1f2b6a682f133852f6798a09c465da95921460cefb38474024989060200160405180910390a15b565b615f0e80620000f36000396000f3fe608060405234801561001057600080fd5b50600436106102ab5760003560e01c806373a50ef511610172578063ab9e3eee116100d9578063d295ea7011610092578063d295ea70146105cf578063d3487997146105d8578063dc1000a7146105eb578063de3d047c1461060b578063dee1f0e41461061e578063f77c479114610631578063ffb86c6a1461063957600080fd5b8063ab9e3eee1461057b578063b245755614610583578063b429afeb14610596578063bd38837b146105a9578063cd4c8156146105bc578063ceee861d1461041b57600080fd5b806387c7f7701161012b57806387c7f770146104ed578063936725ec1461050057806396b7b14e14610524578063996a6c9c1461041b5780639d0bcca014610537578063a3f4df7e1461053f57600080fd5b806373a50ef514610468578063783274381461048c5780637cc96380146104ac5780637d7c2a1c146104b45780637efc77fa146104bc57806387788782146104e457600080fd5b80633cd8045e1161021657806351e03fbe116101cf57806351e03fbe146103f65780635641ec03146104095780635cfc1a51146104115780636207a0cf1461041b5780636ffb4c8e1461044c57806371ee01751461045f57600080fd5b80633cd8045e1461039b5780634593144c146103ae5780634ad0b684146103b65780634e71d92d146103be5780634fa5d854146103c65780634fac6ccd146103e357600080fd5b8063253de46611610268578063253de4661461033d57806328abdef014610350578063321793a814610358578063325a19f11461036b57806333c5b58e1461037357806338d52e0f1461037b57600080fd5b806301e1d114146102b057806301ffc9a7146102cb5780630acd12c7146102ee5780630e30428d146102f65780631865c57d1461030b57806322b6f5e21461032a575b600080fd5b6102b8610641565b6040519081526020015b60405180910390f35b6102de6102d9366004614d12565b6106cc565b60405190151581526020016102c2565b6102b86106f7565b610309610304366004614d51565b610904565b005b6103136109cb565b6040516102c29b9a99989796959493929190614db8565b610309610338366004614e42565b610ad0565b61030961034b366004614e81565b610c06565b610309610e07565b610309610366366004614f03565b610ee4565b6102b8610fbd565b6102b8610ff1565b603d5461038e906001600160a01b031681565b6040516102c29190614f1c565b603e5461038e906001600160a01b031681565b6102b8610ffb565b6043546102b8565b61030961102b565b6103ce6110da565b604080519283526020830191909152016102c2565b6103096103f1366004614f30565b61113f565b6102b8610404366004614f03565b61126a565b610309611480565b600160ff1b6102b8565b61043f604051806040016040528060058152602001640312e302e360dc1b81525081565b6040516102c29190614f9d565b61030961045a366004614f03565b6115de565b6102b860465481565b61043f60405180604001604052806005815260200164322e312e3160d81b81525081565b6102b861049a366004614f30565b60456020526000908152604090205481565b6102b86116d6565b610309611706565b61043f60405180604001604052806009815260200168556e6973776170563360b81b81525081565b6102b860425481565b6102b86104fb366004614d51565b611a3c565b61043f604051806040016040528060058152602001640332e302e360dc1b81525081565b610309610532366004615084565b611ed9565b61038e611fbd565b61043f6040518060400160405280601c81526020017f556e6973776170563320436f6e7665727465722053747261746567790000000081525081565b6102de611fed565b6102b8610591366004615153565b612077565b6102de6105a4366004614f30565b6121bf565b60445461038e906001600160a01b031681565b60415461038e906001600160a01b031681565b6102b8603f5481565b6103096105e6366004615178565b6121e4565b6102b86105f9366004614f30565b60406020819052600091825290205481565b610309610619366004614f03565b6122c0565b6102de61062c366004614f30565b6123ba565b61038e61243f565b6102de61246f565b600061064c60435490565b603d546040516370a0823160e01b81526001600160a01b03909116906370a082319061067c903090600401614f1c565b602060405180830381865afa158015610699573d6000803e3d6000fd5b505050506040513d601f19601f820116820180604052508101906106bd91906151f7565b6106c79190615226565b905090565b60006001600160e01b0319821663f73147b360e01b14806106f157506106f182612506565b92915050565b603e54603d5460405163201de59f60e01b81526000926001600160a01b039081169216907301AA10927D49d082d0ff1875D6a6228108178bb09063201de59f90610745908590600401614f1c565b60006040518083038186803b15801561075d57600080fd5b505af4158015610771573d6000803e3d6000fd5b50506040516370a0823160e01b8152600092506001600160a01b03841691506370a08231906107a4903090600401614f1c565b602060405180830381865afa1580156107c1573d6000803e3d6000fd5b505050506040513d601f19601f820116820180604052508101906107e591906151f7565b905060008060006107f461252b565b9250925092507301AA10927D49d082d0ff1875D6a6228108178bb0631594b05b868686868b6040518663ffffffff1660e01b8152600401610839959493929190615239565b602060405180830381865af4158015610856573d6000803e3d6000fd5b505050506040513d601f19601f8201168201806040525081019061087a91906151f7565b6001600160a01b038616600090815260406020819052902054909450808511156108a2578094505b5083156108c7576108b38585612557565b6108c76001600160a01b0386168786612623565b6040518481527f97f6cbf669d73908a8de3b762891f88fcc476520fd70cb3d414dc9ac86e0a2e59060200160405180910390a19695505050505050565b7301AA10927D49d082d0ff1875D6a6228108178bb063493f6edc61092661243f565b6040518263ffffffff1660e01b81526004016109429190614f1c565b60006040518083038186803b15801561095a57600080fd5b505af415801561096e573d6000803e3d6000fd5b5050506001600160a01b03831660009081526045602052604090819020839055517f297f3fbc14027d2b4a4f7dac3dff2ad6b386024299045b0e163f131bb24b611d91506109bf9084908490615269565b60405180910390a15050565b6001546002805460038054600454600954600a5460408051868152608081019091526001600160a01b03988916989687169796851696600160a01b8604810b96600160c81b8704820b96600160e01b9004820b95600160301b810490920b94600160501b9092046001600160801b03169360ff9092169260609160208201838036833701905050905060016005015481600081518110610a6d57610a6d615282565b60200260200101818152505060016006015481600181518110610a9257610a92615282565b60200260200101818152505060016007015481600281518110610ab757610ab7615282565b602002602001018181525050909192939495969798999a565b7301AA10927D49d082d0ff1875D6a6228108178bb0634bead669610af261243f565b6040518263ffffffff1660e01b8152600401610b0e9190614f1c565b60006040518083038186803b158015610b2657600080fd5b505af4158015610b3a573d6000803e3d6000fd5b505050506127108211156040518060400160405280600c81526020016b0a6847440a8dede40d0d2ced60a31b81525090610b905760405162461bcd60e51b8152600401610b879190614f9d565b60405180910390fd5b5060408051808201909152600f81526e53423a2057726f6e672076616c756560881b60208201526001600160a01b038216610bde5760405162461bcd60e51b8152600401610b879190614f9d565b50604291909155604180546001600160a01b0319166001600160a01b03909216919091179055565b600054610100900460ff1615808015610c265750600054600160ff909116105b80610c405750303b158015610c40575060005460ff166001145b610ca35760405162461bcd60e51b815260206004820152602e60248201527f496e697469616c697a61626c653a20636f6e747261637420697320616c72656160448201526d191e481a5b9a5d1a585b1a5e995960921b6064820152608401610b87565b6000805460ff191660011790558015610cc6576000805461ff0019166101001790555b610d33866001600160a01b03166338d52e0f6040518163ffffffff1660e01b8152600401602060405180830381865afa158015610d07573d6000803e3d6000fd5b505050506040513d601f19601f82011682018060405250810190610d2b9190615298565b85858561267e565b610d3e878787612867565b604051636a65141d60e11b8152600160048201526001600160a01b0380891660248301528616604482015273607822BceF6435F6af937085D250dFBEBC6147F59063d4ca283a9060640160006040518083038186803b158015610da057600080fd5b505af4158015610db4573d6000803e3d6000fd5b505050508015610dfe576000805461ff0019169055604051600181527f7f26b83ff96e1f2b6a682f133852f6798a09c465da95921460cefb38474024989060200160405180910390a15b50505050505050565b7301AA10927D49d082d0ff1875D6a6228108178bb063493f6edc610e2961243f565b6040518263ffffffff1660e01b8152600401610e459190614f1c565b60006040518083038186803b158015610e5d57600080fd5b505af4158015610e71573d6000803e3d6000fd5b50506009805460ff1916905550506040805163f460770b60e01b8152905173607822BceF6435F6af937085D250dFBEBC6147F59163f460770b916004808301926000929190829003018186803b158015610eca57600080fd5b505af4158015610ede573d6000803e3d6000fd5b50505050565b7301AA10927D49d082d0ff1875D6a6228108178bb063493f6edc610f0661243f565b6040518263ffffffff1660e01b8152600401610f229190614f1c565b60006040518083038186803b158015610f3a57600080fd5b505af4158015610f4e573d6000803e3d6000fd5b505050600a82905550604051631c77945b60e31b81526004810182905273607822BceF6435F6af937085D250dFBEBC6147F59063e3bca2d89060240160006040518083038186803b158015610fa257600080fd5b505af4158015610fb6573d6000803e3d6000fd5b5050505050565b60006106c7610fed60017f6f55f470bdc9cb5f04223fd822021061668e4dccb43e8727b295106dc9769c8b6152b5565b5490565b60006106c76128bc565b60006106c7610fed60017f812a673dfca07956350df10f8a654925f561d7a0da09bdbe79e653939a14d9f16152b5565b7301AA10927D49d082d0ff1875D6a6228108178bb063493f6edc61104d61243f565b6040518263ffffffff1660e01b81526004016110699190614f1c565b60006040518083038186803b15801561108157600080fd5b505af4158015611095573d6000803e3d6000fd5b505050506110a1612983565b7fed7f50f936a5ed7428d20f18e78d6dfe8bc37fd2f4e3cdb348327c7697244928336040516110d09190614f1c565b60405180910390a1565b603e5460408051808201909152600a81526914d08e8811195b9a595960b21b60208201526000918291906001600160a01b0316331461112c5760405162461bcd60e51b8152600401610b879190614f9d565b506111376001612b24565b915091509091565b33301461118e5760405162461bcd60e51b815260206004820152601b60248201527f496e637265617365207265766973696f6e20666f7262696464656e00000000006044820152606401610b87565b60006111be610fed60017f22573091f17911fb166032a3d9e0554aa73d31b7b7ddea4a4dd2995650af84bd6152b5565b6111c9906001615226565b90506111fd816111fa60017f22573091f17911fb166032a3d9e0554aa73d31b7b7ddea4a4dd2995650af84bd6152b5565b55565b61122c826111fa60017fbfaaa2fb63266ff27c2da975f5894955056f50419af651a81f6c5060581857e46152b5565b604080518281526001600160a01b03841660208201527ff27e2ef832a4eb8ed8ec553b875eecd44764cda95b1c24170e281539e0a869c891016109bf565b603e54603d5460405163201de59f60e01b81526000926001600160a01b039081169216907301AA10927D49d082d0ff1875D6a6228108178bb09063201de59f906112b8908590600401614f1c565b60006040518083038186803b1580156112d057600080fd5b505af41580156112e4573d6000803e3d6000fd5b50506040516370a0823160e01b8152600092506001600160a01b03841691506370a0823190611317903090600401614f1c565b602060405180830381865afa158015611334573d6000803e3d6000fd5b505050506040513d601f19601f8201168201806040525081019061135891906151f7565b9050808511156114045760008061137761137284896152b5565b612bdd565b604051631594b05b60e01b815290985091935091507301AA10927D49d082d0ff1875D6a6228108178bb090631594b05b906113be9087908790879087908c90600401615239565b602060405180830381865af41580156113db573d6000803e3d6000fd5b505050506040513d601f19601f820116820180604052508101906113ff91906151f7565b925050505b60006114108683612c57565b90508015611436576114228382612557565b6114366001600160a01b0384168583612623565b60408051878152602081018390529081018390527f21b38dd19808c509ae6afc969adfaf7d35fe949c37abd493b963cf9b68cc1acb9060600160405180910390a150505050919050565b7301AA10927D49d082d0ff1875D6a6228108178bb063493f6edc6114a261243f565b6040518263ffffffff1660e01b81526004016114be9190614f1c565b60006040518083038186803b1580156114d657600080fd5b505af41580156114ea573d6000803e3d6000fd5b505050506114f6612c6f565b603d546040516370a0823160e01b81526001600160a01b039091169060009082906370a082319061152b903090600401614f1c565b602060405180830381865afa158015611548573d6000803e3d6000fd5b505050506040513d601f19601f8201168201806040525081019061156c91906151f7565b6001600160a01b038316600090815260406020819052902054909150611593908390612557565b603e546115ad906001600160a01b03848116911683612623565b7ff779df072f94d207563b1ba8c286814086f1e6bb436a2652e307dccc56ed79e833826040516109bf929190615269565b7301AA10927D49d082d0ff1875D6a6228108178bb063493f6edc61160061243f565b6040518263ffffffff1660e01b815260040161161c9190614f1c565b60006040518083038186803b15801561163457600080fd5b505af4158015611648573d6000803e3d6000fd5b50505050620186a08111156040518060400160405280600f81526020016e53423a2057726f6e672076616c756560881b815250906116995760405162461bcd60e51b8152600401610b879190614f9d565b5060468190556040518181527fe4166dfcf23bbd3e3f764a99dc8fa740554c03c82d6019b81cf265f396f6f2fe906020015b60405180910390a150565b60006106c7610fed60017f22573091f17911fb166032a3d9e0554aa73d31b7b7ddea4a4dd2995650af84bd6152b5565b600061171061243f565b60405163124fdbb760e21b81529091507301AA10927D49d082d0ff1875D6a6228108178bb09063493f6edc9061174a908490600401614f1c565b60006040518083038186803b15801561176257600080fd5b505af4158015611776573d6000803e3d6000fd5b50505050611782612cfe565b50604454600090819073607822BceF6435F6af937085D250dFBEBC6147F59063b24d8db0906001906001600160a01b0316866117bd60435490565b6040516001600160e01b031960e087901b16815260048101949094526001600160a01b039283166024850152911660448301526064820152608401600060405180830381865af4158015611815573d6000803e3d6000fd5b505050506040513d6000823e601f3d908101601f1916820160405261183d9190810190615323565b9150915081516002036119685761185382612d10565b5050801561196857600354600654600754604051638c64d45560e01b81526001600160a01b0384166004820152600160c81b8404600290810b6024830152600160e01b8504810b6044830152600160a01b90940490930b6064840152608483019190915260a482015273607822BceF6435F6af937085D250dFBEBC6147F590638c64d4559060c401606060405180830381865af41580156118f8573d6000803e3d6000fd5b505050506040513d601f19601f8201168201806040525081019061191c9190615385565b600580546001600160801b0319166001600160801b03929092169190911790556004805465ffffffffffff1916630100000062ffffff9384160262ffffff191617929091169190911790555b60008060008073607822BceF6435F6af937085D250dFBEBC6147F563915a3eb46001604080518363ffffffff1660e01b81526004016119b1929190918252602082015260400190565b608060405180830381865af41580156119ce573d6000803e3d6000fd5b505050506040513d601f19601f820116820180604052508101906119f291906153cd565b60015493975091955093509150611a13906001600160a01b03168585612e0b565b600254611a2a906001600160a01b03168383612e0b565b611a32612e45565b5050505050505050565b6000611a8f6040518061010001604052806000815260200160006001600160a01b031681526020016060815260200160008152602001600081526020016060815260200160608152602001600081525090565b6044546001600160a01b0316602080830182905260408051808201909152600a81526914d08e8811195b9a595960b21b91810191909152903314611ae65760405162461bcd60e51b8152600401610b879190614f9d565b50611af084612e59565b606083018190526040808401929092528151808301909252600f82526e53423a2057726f6e672076616c756560881b602083015219611b425760405162461bcd60e51b8152600401610b879190614f9d565b506040808201515182526001600160a01b038516600090815260208290522054608082015280516001600160401b03811115611b8057611b80614fb0565b604051908082528060200260200182016040528015611ba9578160200160208202803683370190505b5060a082015280516001600160401b03811115611bc857611bc8614fb0565b604051908082528060200260200182016040528015611bf1578160200160208202803683370190505b5060c08201526080810151831115611c6857611c0b612e78565b60e0820181905215611c6857611c248160e00151612e8e565b60a0820181905260e08201516040517faebc771af58936b05e89b0be7d3f9761480181abcd4a649fbdd01753fda1697092611c5f9291615403565b60405180910390a15b828160a00151826060015181518110611c8357611c83615282565b60200260200101518260800151611c9a9190615226565b1015611e1c57732115ac07646ae50171EA3E74722Ae90a3A4d685763749e2cd18260a00151836060015181518110611cd457611cd4615282565b60200260200101518360800151611ceb9190615226565b611cf590866152b5565b60408401516060850151603d5460a087015160208801516001600160a01b0390921691611d2061243f565b6001600160a01b0316634046ebae6040518163ffffffff1660e01b8152600401602060405180830381865afa158015611d5d573d6000803e3d6000fd5b505050506040513d601f19601f82011682018060405250810190611d819190615298565b6001600160a01b038d16600090815260456020526040902054611da661012c80615226565b604080518b63ffffffff1660e01b8152600401611dcc9a99989796959493929190615455565b600060405180830381865af4158015611de9573d6000803e3d6000fd5b505050506040513d6000823e601f3d908101601f19168201604052611e1191908101906154cf565b60a083015260c08201525b611e568160a00151826060015181518110611e3957611e39615282565b60200260200101518260800151611e509190615226565b84612c57565b6020820151909250611e73906001600160a01b0386169084612623565b611e9981604001518260a001518360c00151846060015186611e9490615528565b613048565b7f178d2d6770c9dbd24f8d3e4dc08998cad5a42857f107435518f65c761e253bcc8483604051611eca929190615269565b60405180910390a15092915050565b8151815160408051808201909152600d81526c54532d3139206c656e6774687360981b6020820152908214611f215760405162461bcd60e51b8152600401610b879190614f9d565b5060005b81811015611fb457828181518110611f3f57611f3f615282565b6020026020010151600014611fac57611fac848281518110611f6357611f63615282565b6020026020010151848381518110611f7d57611f7d615282565b6020026020010151611fa7878581518110611f9a57611f9a615282565b60200260200101516130f6565b613166565b600101611f25565b50610ede612e45565b60006106c7610fed60017fbfaaa2fb63266ff27c2da975f5894955056f50419af651a81f6c5060581857e46152b5565b60448054604051635ca1bcdf60e01b8152600160048201526001600160a01b03909116602482015260009173607822BceF6435F6af937085D250dFBEBC6147F591635ca1bcdf91015b602060405180830381865af4158015612053573d6000803e3d6000fd5b505050506040513d601f19601f820116820180604052508101906106c79190615544565b603e5460405163201de59f60e01b81526000917301AA10927D49d082d0ff1875D6a6228108178bb09163201de59f916120be916001600160a01b0390911690600401614f1c565b60006040518083038186803b1580156120d657600080fd5b505af41580156120ea573d6000803e3d6000fd5b5050603d546040516370a0823160e01b81526001600160a01b0390911692506000915082906370a0823190612123903090600401614f1c565b602060405180830381865afa158015612140573d6000803e3d6000fd5b505050506040513d601f19601f8201168201806040525081019061216491906151f7565b9050612171828683613166565b8015612184576121818185613214565b92505b6040518181527f94bcfc9a8eba5229c2956ccb1858733fce588bc02145ac053c40b9827a33837f9060200160405180910390a1505092915050565b60006121c961243f565b6001600160a01b0316826001600160a01b0316149050919050565b6003546001600160a01b031633146122305760405162461bcd60e51b815260206004820152600f60248201526e31b0b6363130b1b59031b0b63632b960891b6044820152606401610b87565b831561227d5760045461227d9033908690600160481b900460ff16612260576001546001600160a01b031661226d565b6002546001600160a01b03165b6001600160a01b03169190612623565b8215610ede57600454610ede9033908590600160481b900460ff166122ad576002546001600160a01b031661226d565b6001546001600160a01b03169190612623565b7301AA10927D49d082d0ff1875D6a6228108178bb063ac1d8b356122e261243f565b6040518263ffffffff1660e01b81526004016122fe9190614f1c565b60006040518083038186803b15801561231657600080fd5b505af415801561232a573d6000803e3d6000fd5b50505050620186a08111156040518060400160405280600c81526020016b0a6847440a8dede40d0d2ced60a31b815250906123785760405162461bcd60e51b8152600401610b879190614f9d565b50603f5460408051918252602082018390527f89979f75740477f1609671a960c1f57e40a47e58bdf1623bc683d806fb6407e5910160405180910390a1603f55565b6000816001600160a01b03166123ce61243f565b6001600160a01b0316635aa6e6756040518163ffffffff1660e01b8152600401602060405180830381865afa15801561240b573d6000803e3d6000fd5b505050506040513d601f19601f8201168201806040525081019061242f9190615298565b6001600160a01b03161492915050565b60006106c7610fed60017f5165972ef41194f06c5007493031d0b927c20741adcb74403b954009fd2c36186152b5565b60095460035460048054604051632beacd5760e11b815260ff9094161515918401919091526001600160a01b0382166024840152600160c81b8204600290810b6044850152600160e01b8304810b6064850152600160a01b909204820b6084840152600160301b9004900b60a482015260009073607822BceF6435F6af937085D250dFBEBC6147F5906357d59aae9060c401612036565b60006001600160e01b0319821663c19fa56160e01b14806106f157506106f1826133a0565b60008060008061253b60016133d5565b9250905061254c6000600183613410565b909590945091925050565b6001600160a01b03821660009081526040602081815291819020548151808301909252600f82526e53423a2057726f6e672076616c756560881b92820192909252828210156125b95760405162461bcd60e51b8152600401610b879190614f9d565b506125c482826152b5565b6001600160a01b0384166000908152604060208190529020557fd1e935d17de6dcfd3ffb4f6d06f977c837be28001308e04923722e32d1863c7d8361260883615528565b604051612616929190615269565b60405180910390a1505050565b6126798363a9059cbb60e01b8484604051602401612642929190615269565b60408051601f198184030181529190526020810180516001600160e01b03166001600160e01b031990931692909217909152613853565b505050565b600054610100900460ff166126a55760405162461bcd60e51b8152600401610b8790615561565b60408051808201909152601181527054532d31207a65726f206164647265737360781b60208201526001600160a01b0384166126f45760405162461bcd60e51b8152600401610b879190614f9d565b50600380546001600160a01b0319166001600160a01b038581169182179092556004805468ffffff0000000000001916600160301b62ffffff861602178155604051630175022560e21b815290810191909152600284810b602483015283900b6044820152908516606482015273607822BceF6435F6af937085D250dFBEBC6147F5906305d408949060840160c060405180830381865af415801561279d573d6000803e3d6000fd5b505050506040513d601f19601f820116820180604052508101906127c191906155ac565b60048054911515600160481b0260ff60481b19909216919091179055600280546001600160a01b039283166001600160a01b031991821617909155600180549390921692169190911790556003805462ffffff948516600160a01b0262ffffff60a01b19948616600160c81b0262ffffff60c81b1996909416600160e01b029590951665ffffffffffff60c81b1990911617919091179190911691909117905550505050565b600054610100900460ff1661288e5760405162461bcd60e51b8152600401610b8790615561565b6128988383613925565b604480546001600160a01b0319166001600160a01b03929092169190911790555050565b603d54600090819081906128d8906001600160a01b0316612e59565b91509150732115ac07646ae50171EA3E74722Ae90a3A4d6857636e32b87b83612907612902612e78565b613b4e565b604454604080516001600160e01b031960e087901b16815261293b94939288926001600160a01b0390911691600401615625565b602060405180830381865af4158015612958573d6000803e3d6000fd5b505050506040513d601f19601f8201168201806040525081019061297c91906151f7565b9250505090565b60008061298e613c28565b60445491935091506000908190732115ac07646ae50171EA3E74722Ae90a3A4d6857906320138ba5906001600160a01b03166129c8613db5565b8787604080518663ffffffff1660e01b81526004016129eb959493929190615671565b600060405180830381865af4158015612a08573d6000803e3d6000fd5b505050506040513d6000823e601f3d908101601f19168201604052612a3091908101906156ce565b815191935091508015610fb6576000806000612a4c8686613e49565b925092509250612a628684846000196000613048565b603d548351612a96916001600160a01b031690859087908110612a8757612a87615282565b60200260200101516000612e0b565b73FeAe15C99631186844bb7E843E28508FF9492dD363acf741a3612ab861243f565b603e546040516001600160e01b031960e085901b168152612aea92916001600160a01b0316908b90879060040161577b565b60006040518083038186803b158015612b0257600080fd5b505af4158015612b16573d6000803e3d6000fd5b505050505050505050505050565b604354600090819081612b35612e45565b90506000612b4161404c565b91965094509050612b54838387876140a8565b9095509350858015612b805750620186a082604654612b7391906157b9565b612b7d91906157d0565b81115b15612bd5576000612b918284615226565b9050612b9e826000613214565b50603d54612bce908290612bba906001600160a01b03166130f6565b604354612bc79190615226565b88886140a8565b9096509450505b505050915091565b600080600080612bed60016133d5565b60408051808201909152601481527354532d3138206e6f20696e766573746d656e747360601b602082015290935090915081612c3c5760405162461bcd60e51b8152600401610b879190614f9d565b50612c4985600083613410565b909690955091935090915050565b6000818310612c665781612c68565b825b9392505050565b6000612c79612cfe565b90507f768a28cb3459382a3d2173feb2dad0235f8de680b109872da581a3aa269fe5f481604051612caa91906157f2565b60405180910390a1603d546000908190612ccc906001600160a01b0316612e59565b91509150600080612cdd84846140f0565b91509150612cee8486838686613048565b612cf6612e45565b505050505050565b60606106c7612d0b612e78565b612e8e565b60035460048054604051638008936760e01b815260609360009373607822BceF6435F6af937085D250dFBEBC6147F593638008936793612d92936001600160a01b03811693600160c81b8204600290810b94600160e01b909304900b928b92600160501b81046001600160801b031692600160481b90910460ff169101615805565b600060405180830381865af4158015612daf573d6000803e3d6000fd5b505050506040513d6000823e601f3d908101601f19168201604052612dd7919081019061585b565b600480546001600160801b03909216600160501b02600160501b600160d01b03199092169190911790559094909350915050565b80821115612e2a5761267983612e2183856152b5565b611fa7866130f6565b818111156126795761267983612e4084846152b5565b612557565b6000612e4f6128bc565b6043819055919050565b60606000612e65613db5565b9150612e71828461419e565b9050915091565b600454600160501b90046001600160801b031690565b6060600080612e9b6141fc565b915091508160016005016000828254612eb49190615226565b909155505060078054829190600090612ece908490615226565b9250508190555073607822BceF6435F6af937085D250dFBEBC6147F56333fdd81d600160020160009054906101000a90046001600160a01b0316600160020160199054906101000a900460020b6001600201601c9054906101000a900460020b600160030160009054906101000a900460020b600160030160039054906101000a900460020b6001600301600a9054906101000a90046001600160801b0316600160040160009054906101000a90046001600160801b03168c600160030160099054906101000a900460ff166040518a63ffffffff1660e01b8152600401612fbe999897969594939291906158a8565b600060405180830381865af4158015612fdb573d6000803e3d6000fd5b505050506040513d6000823e601f3d908101601f191682016040526130039190810190615907565b600580546001600160801b0319166001600160801b0392831617905560048054600160501b600160d01b031916600160501b9390921692909202179055949350505050565b845160005b81811015610dfe57600086828151811061306957613069615282565b60200260200101519050600086838151811061308757613087615282565b602002602001015190508583036130c85760008513156130b2576130ab8583615226565b91506130c8565b6130bb85615528565b6130c59082615226565b90505b6130ec8984815181106130dd576130dd615282565b60200260200101518383612e0b565b505060010161304d565b6040516370a0823160e01b81526000906001600160a01b038316906370a0823190613125903090600401614f1c565b602060405180830381865afa158015613142573d6000803e3d6000fd5b505050506040513d601f19601f820116820180604052508101906106f191906151f7565b6001600160a01b0383166000908152604060208190528120805484929061318e908490615226565b90915550506040517fd1e935d17de6dcfd3ffb4f6d06f977c837be28001308e04923722e32d1863c7d906131c59085908590615269565b60405180910390a160408051808201909152600f81526e53423a2057726f6e672076616c756560881b602082015282821015610ede5760405162461bcd60e51b8152600401610b879190614f9d565b600080613220836133d5565b604654909350909150620186a0906132399083906157b9565b61324391906157d0565b8411156133995760095460ff16156132ed57604080516002808252606082018352600092602083019080368337019050509050848160008151811061328a5761328a615282565b6020026020010181815250507f59400c8c523464b521238ea8f50e923f2bc64663557e6afec92a97f7efe92d0581826040516132c792919061594d565b60405180910390a16001546132e7906001600160a01b0316866000612e0b565b5061338f565b603d546000908190613307906001600160a01b0316612e59565b60445491935091506000908190819061332b906001600160a01b03168a8787614274565b925092509250600061333c84612d10565b5090507f59400c8c523464b521238ea8f50e923f2bc64663557e6afec92a97f7efe92d05848260405161337092919061594d565b60405180910390a161338886848388611e9487615528565b5050505050505b613397612e45565b505b5092915050565b60006001600160e01b0319821663b7b79fa960e01b14806106f157506301ffc9a760e01b6001600160e01b03198316146106f1565b6043546000908190836133e857806133f0565b6133f0612e45565b9250836133fe576000613408565b613408818461597b565b915050915091565b600080838061341e57508415155b801561342957508215155b15613844576000613438613db5565b603d549091506001600160a01b03166000613453838361419e565b6044546040805160c081019091529192506001600160a01b0316906000908061347a6144c5565b8152602001613487612e78565b8152602001613494612e78565b81526000602082015260408051637a55caf360e01b81526001600160a01b03808716600483015288166024820152910190732115ac07646ae50171EA3E74722Ae90a3A4d685790637a55caf390604401602060405180830381865af4158015613501573d6000803e3d6000fd5b505050506040513d601f19601f8201168201806040525081019061352591906151f7565b81526020016000604051908082528060200260200182016040528015613555578160200160208202803683370190505b5090529050732115ac07646ae50171EA3E74722Ae90a3A4d685763d361fe128a61357f578b613582565b60005b6040308988888f89604001516040518963ffffffff1660e01b81526004016135b198979695949392919061599b565b600060405180830381865af41580156135ce573d6000803e3d6000fd5b505050506040513d6000823e601f3d908101601f191682016040526135f691908101906159f7565b60a08301526060808301829052906000901561370d576136198360600151612e8e565b91507faebc771af58936b05e89b0be7d3f9761480181abcd4a649fbdd01753fda16970836060015183604051613650929190615403565b60405180910390a1732115ac07646ae50171EA3E74722Ae90a3A4d6857632374491584600001518560400151866060015187602001518860a001518d8c8c613696612e78565b8c6040518b63ffffffff1660e01b81526004016136bc9a99989796959493929190615a33565b600060405180830381865af41580156136d9573d6000803e3d6000fd5b505050506040513d6000823e601f3d908101601f1916820160405261370191908101906159f7565b60a085015290506137dd565b732115ac07646ae50171EA3E74722Ae90a3A4d685763bc846df28887878b516001600160401b0381111561374357613743614fb0565b60405190808252806020026020018201604052801561376c578160200160208202803683370190505b508860a001516040518663ffffffff1660e01b8152600401613792959493929190615ac5565b600060405180830381865af41580156137af573d6000803e3d6000fd5b505050506040513d6000823e601f3d908101601f191682016040526137d79190810190615b20565b90925090505b6000806137f089888760a0015189614540565b915091506138018985838a86613048565b613809612e45565b50670de0b6b3a764000085608001518461382391906157b9565b61382d91906157d0565b85608001519a509a5050505050505050505061384b565b5060009050805b935093915050565b60006138a8826040518060400160405280602081526020017f5361666545524332303a206c6f772d6c6576656c2063616c6c206661696c6564815250856001600160a01b031661467d9092919063ffffffff16565b80519091501561267957808060200190518101906138c69190615544565b6126795760405162461bcd60e51b815260206004820152602a60248201527f5361666545524332303a204552433230206f7065726174696f6e20646964206e6044820152691bdd081cdd58d8d9595960b21b6064820152608401610b87565b600054610100900460ff1661394c5760405162461bcd60e51b8152600401610b8790615561565b613976817fd2de0374d4479f33e63ae5ed6ca772a10463dd883a90c612050b51fab6196400614694565b61397f826146ee565b60405163b429afeb60e01b81526001600160a01b0382169063b429afeb906139ab908590600401614f1c565b602060405180830381865afa1580156139c8573d6000803e3d6000fd5b505050506040513d601f19601f820116820180604052508101906139ec9190615544565b6040518060400160405280600f81526020016e53423a2057726f6e672076616c756560881b81525090613a325760405162461bcd60e51b8152600401610b879190614f9d565b50806001600160a01b03166338d52e0f6040518163ffffffff1660e01b8152600401602060405180830381865afa158015613a71573d6000803e3d6000fd5b505050506040513d601f19601f82011682018060405250810190613a959190615298565b603d80546001600160a01b03199081166001600160a01b0393841617909155603e805490911683831617905560408051635aa6e67560e01b8152905191841691635aa6e675916004808201926020929091908290030181865afa158015613b00573d6000803e3d6000fd5b505050506040513d601f19601f82011682018060405250810190613b249190615298565b604180546001600160a01b0319166001600160a01b03929092169190911790555050612710604255565b6003546004805460055460405163c68bc70360e01b815260609473607822BceF6435F6af937085D250dFBEBC6147F59463c68bc70394613be3946001600160a01b03841694600160c81b8504600290810b95600160e01b9004810b9484820b946301000000810490920b93600160501b83046001600160801b03908116949116928e92600160481b90910460ff1691016158a8565b600060405180830381865af4158015613c00573d6000803e3d6000fd5b505050506040513d6000823e601f3d908101601f191682016040526106f19190810190615b66565b60035460048054600654600754604051630117844f60e61b81526001600160a01b03861694810194909452600160c81b8504600290810b6024860152600160e01b909504850b604485015282850b60648501526301000000830490940b608484015260a483015260c4820192909252600160481b90910460ff16151560e4820152606090819073607822BceF6435F6af937085D250dFBEBC6147F5906345e113c09061010401600060405180830381865af4158015613ceb573d6000803e3d6000fd5b505050506040513d6000823e601f3d908101601f19168201604052613d139190810190615b66565b600060068190556007556040805160028082526060820183529293509190602083019080368337505060015482519294506001600160a01b031691849150600090613d6057613d60615282565b6001600160a01b039283166020918202929092010152600254835191169083906001908110613d9157613d91615282565b60200260200101906001600160a01b031690816001600160a01b0316815250509091565b6040805160028082526060808301845292602083019080368337505060015482519293506001600160a01b031691839150600090613df557613df5615282565b6001600160a01b039283166020918202929092010152600254825191169082906001908110613e2657613e26615282565b60200260200101906001600160a01b031690816001600160a01b03168152505090565b60425460415460405163217cfb2b60e21b815260609283928392600092839273FeAe15C99631186844bb7E843E28508FF9492dD3926385f3ecac92613ea29290916001600160a01b03909116908c908c90600401615b9a565b600060405180830381865af4158015613ebf573d6000803e3d6000fd5b505050506040513d6000823e601f3d908101601f19168201604052613ee791908101906154cf565b603d54603f54929450909250732115ac07646ae50171EA3E74722Ae90a3A4d685791630f5103ff916001600160a01b031690613f21613db5565b613f2961243f565b6001600160a01b0316634046ebae6040518163ffffffff1660e01b8152600401602060405180830381865afa158015613f66573d6000803e3d6000fd5b505050506040513d601f19601f82011682018060405250810190613f8a9190615298565b604560408e8a6040518963ffffffff1660e01b8152600401613fb3989796959493929190615bc4565b600060405180830381865af4158015613fd0573d6000803e3d6000fd5b505050506040513d6000823e601f3d908101601f19168201604052613ff89190810190615c3d565b60405192975090955093507f9ed62bee08ffc98e5efa3255527e36fba3f5fa16b944a4bfad646bcf592acc4a906140389089908890889088908790615cc4565b60405180910390a150509250925092565b50565b603d5460009081908190819061406a906001600160a01b03166130f6565b9050614074612983565b603d54614089906001600160a01b03166130f6565b600854909250156140a05760088054600090915592505b61254c818386865b600080858511156140ce576140bd86866152b5565b6140c79085615226565b93506140e5565b6140d885876152b5565b6140e29084615226565b92505b509194909350915050565b60006060600073FeAe15C99631186844bb7E843E28508FF9492dD36397783a6c86866040518363ffffffff1660e01b815260040161412f929190615d43565b600060405180830381865af415801561414c573d6000803e3d6000fd5b505050506040513d6000823e601f3d908101601f191682016040526141749190810190615b66565b604454909150614192908690869084906001600160a01b0316614540565b90969095509350505050565b8151600090815b818110156141f057836001600160a01b03168582815181106141c9576141c9615282565b60200260200101516001600160a01b0316036141e85791506106f19050565b6001016141a5565b50600019949350505050565b604051631a2d761b60e11b815260016004820152600090819073607822BceF6435F6af937085D250dFBEBC6147F59063345aec36906024016040805180830381865af4158015614250573d6000803e3d6000fd5b505050506040513d601f19601f820116820180604052508101906111379190615d65565b6040805160028082526060828101909352829160009181602001602082028036833750506040805160028082526060820183529396509291506020830190803683370190505060035460048054604051630302c45560e41b81526001600160a01b03841692810192909252600160c81b8304600290810b6024840152600160e01b8404810b6044840152600160a01b90930490920b6064820152600160481b90910460ff161515608482015290925060009073607822BceF6435F6af937085D250dFBEBC6147F59063302c45509060a401600060405180830381865af4158015614362573d6000803e3d6000fd5b505050506040513d6000823e601f3d908101601f1916820160405261438a9190810190615d89565b6001549091506143a4906001600160a01b0316888a614911565b60015460025460405163ca27d10d60e01b8152732115ac07646ae50171EA3E74722Ae90a3A4d68579263ca27d10d926143f7928d9287926001600160a01b03918216929116908e90600090600401615e1c565b6040805180830381865af4158015614413573d6000803e3d6000fd5b505050506040513d601f19601f820116820180604052508101906144379190615d65565b8460018151811061444a5761444a615282565b6020908102919091010152915061446182886152b5565b8460008151811061447457614474615282565b6020026020010181815250508260018151811061449357614493615282565b6020026020010151846001815181106144ae576144ae615282565b602002602001018181525050509450945094915050565b604051630a65e5e760e01b81526001600482015260609073607822BceF6435F6af937085D250dFBEBC6147F590630a65e5e790602401600060405180830381865af4158015614518573d6000803e3d6000fd5b505050506040513d6000823e601f3d908101601f191682016040526106c79190810190615b66565b60006060732115ac07646ae50171EA3E74722Ae90a3A4d6857637047292d8461456761243f565b6001600160a01b0316634046ebae6040518163ffffffff1660e01b8152600401602060405180830381865afa1580156145a4573d6000803e3d6000fd5b505050506040513d601f19601f820116820180604052508101906145c89190615298565b604560008b8b815181106145de576145de615282565b60200260200101516001600160a01b03166001600160a01b03168152602001908152602001600020548a8a8a6040518763ffffffff1660e01b815260040161462b96959493929190615e64565b600060405180830381865af4158015614648573d6000803e3d6000fd5b505050506040513d6000823e601f3d908101601f1916820160405261467091908101906159f7565b9150915094509492505050565b606061468c84846000856149b7565b949350505050565b61469e8282614a92565b6146ea5760405162461bcd60e51b815260206004820152601a60248201527f496e74657266616365206973206e6f7420737570706f727465640000000000006044820152606401610b87565b5050565b600054610100900460ff166147155760405162461bcd60e51b8152600401610b8790615561565b6001600160a01b03811661475d5760405162461bcd60e51b815260206004820152600f60248201526e2d32b9379031b7b73a3937b63632b960891b6044820152606401610b87565b614787817f4c2403fdcb3cff9b705d96bf0705858e3390412670a62c8bcba611ca7e20ab86614694565b60006001600160a01b0316816001600160a01b0316635aa6e6756040518163ffffffff1660e01b8152600401602060405180830381865afa1580156147d0573d6000803e3d6000fd5b505050506040513d601f19601f820116820180604052508101906147f49190615298565b6001600160a01b03160361483c5760405162461bcd60e51b815260206004820152600f60248201526e5a65726f20676f7665726e616e636560881b6044820152606401610b87565b61486b816111fa60017f5165972ef41194f06c5007493031d0b927c20741adcb74403b954009fd2c36186152b5565b61489a426111fa60017f6f55f470bdc9cb5f04223fd822021061668e4dccb43e8727b295106dc9769c8b6152b5565b6148c9436111fa60017f812a673dfca07956350df10f8a654925f561d7a0da09bdbe79e653939a14d9f16152b5565b604080516001600160a01b038316815242602082015243918101919091527f1a2dd071001ebf6e03174e3df5b305795a4ad5d41d8fdb9ba41dbbe236713426906060016116cb565b604051636eb1769f60e11b81523060048201526001600160a01b03828116602483015283919085169063dd62ed3e90604401602060405180830381865afa158015614960573d6000803e3d6000fd5b505050506040513d601f19601f8201168201806040525081019061498491906151f7565b10156126795761499f6001600160a01b038416826000614b70565b6126796001600160a01b03841682600160ff1b614b70565b606082471015614a185760405162461bcd60e51b815260206004820152602660248201527f416464726573733a20696e73756666696369656e742062616c616e636520666f6044820152651c8818d85b1b60d21b6064820152608401610b87565b600080866001600160a01b03168587604051614a349190615ebc565b60006040518083038185875af1925050503d8060008114614a71576040519150601f19603f3d011682016040523d82523d6000602084013e614a76565b606091505b5091509150614a8787838387614c74565b979650505050505050565b60006001600160a01b038316614ad95760405162461bcd60e51b815260206004820152600c60248201526b5a65726f206164647265737360a01b6044820152606401610b87565b823b6000819003614aee5760009150506106f1565b6040516301ffc9a760e01b81526001600160e01b0319841660048201526001600160a01b038516906301ffc9a790602401602060405180830381865afa925050508015614b58575060408051601f3d908101601f19168201909252614b5591810190615544565b60015b15614b665791506106f19050565b5060009392505050565b801580614bea5750604051636eb1769f60e11b81523060048201526001600160a01b03838116602483015284169063dd62ed3e90604401602060405180830381865afa158015614bc4573d6000803e3d6000fd5b505050506040513d601f19601f82011682018060405250810190614be891906151f7565b155b614c555760405162461bcd60e51b815260206004820152603660248201527f5361666545524332303a20617070726f76652066726f6d206e6f6e2d7a65726f60448201527520746f206e6f6e2d7a65726f20616c6c6f77616e636560501b6064820152608401610b87565b6126798363095ea7b360e01b8484604051602401612642929190615269565b60608315614ce3578251600003614cdc576001600160a01b0385163b614cdc5760405162461bcd60e51b815260206004820152601d60248201527f416464726573733a2063616c6c20746f206e6f6e2d636f6e74726163740000006044820152606401610b87565b508161468c565b61468c8383815115614cf85781518083602001fd5b8060405162461bcd60e51b8152600401610b879190614f9d565b600060208284031215614d2457600080fd5b81356001600160e01b031981168114612c6857600080fd5b6001600160a01b038116811461404957600080fd5b60008060408385031215614d6457600080fd5b8235614d6f81614d3c565b946020939093013593505050565b600081518084526020808501945080840160005b83811015614dad57815187529582019590820190600101614d91565b509495945050505050565b6001600160a01b038c811682528b811660208301528a166040820152600289810b606083015288810b608083015287810b60a083015286900b60c08201526001600160801b03851660e082015283151561010082015261012081018390526101606101408201819052600090614e3083820185614d7d565b9e9d5050505050505050505050505050565b60008060408385031215614e5557600080fd5b823591506020830135614e6781614d3c565b809150509250929050565b8060020b811461404957600080fd5b60008060008060008060c08789031215614e9a57600080fd5b8635614ea581614d3c565b95506020870135614eb581614d3c565b94506040870135614ec581614d3c565b93506060870135614ed581614d3c565b92506080870135614ee581614e72565b915060a0870135614ef581614e72565b809150509295509295509295565b600060208284031215614f1557600080fd5b5035919050565b6001600160a01b0391909116815260200190565b600060208284031215614f4257600080fd5b8135612c6881614d3c565b60005b83811015614f68578181015183820152602001614f50565b50506000910152565b60008151808452614f89816020860160208601614f4d565b601f01601f19169290920160200192915050565b602081526000612c686020830184614f71565b634e487b7160e01b600052604160045260246000fd5b604051601f8201601f191681016001600160401b0381118282101715614fee57614fee614fb0565b604052919050565b60006001600160401b0382111561500f5761500f614fb0565b5060051b60200190565b600082601f83011261502a57600080fd5b8135602061503f61503a83614ff6565b614fc6565b82815260059290921b8401810191818101908684111561505e57600080fd5b8286015b848110156150795780358352918301918301615062565b509695505050505050565b6000806040838503121561509757600080fd5b82356001600160401b03808211156150ae57600080fd5b818501915085601f8301126150c257600080fd5b813560206150d261503a83614ff6565b82815260059290921b840181019181810190898411156150f157600080fd5b948201945b8386101561511857853561510981614d3c565b825294820194908201906150f6565b9650508601359250508082111561512e57600080fd5b5061513b85828601615019565b9150509250929050565b801515811461404957600080fd5b6000806040838503121561516657600080fd5b823591506020830135614e6781615145565b6000806000806060858703121561518e57600080fd5b843593506020850135925060408501356001600160401b03808211156151b357600080fd5b818701915087601f8301126151c757600080fd5b8135818111156151d657600080fd5b8860208285010111156151e857600080fd5b95989497505060200194505050565b60006020828403121561520957600080fd5b5051919050565b634e487b7160e01b600052601160045260246000fd5b808201808211156106f1576106f1615210565b6001600160a01b039586168152602081019490945260408401929092526060830152909116608082015260a00190565b6001600160a01b03929092168252602082015260400190565b634e487b7160e01b600052603260045260246000fd5b6000602082840312156152aa57600080fd5b8151612c6881614d3c565b818103818111156106f1576106f1615210565b600082601f8301126152d957600080fd5b815160206152e961503a83614ff6565b82815260059290921b8401810191818101908684111561530857600080fd5b8286015b84811015615079578051835291830191830161530c565b6000806040838503121561533657600080fd5b82516001600160401b0381111561534c57600080fd5b615358858286016152c8565b9250506020830151614e6781615145565b80516001600160801b038116811461538057600080fd5b919050565b60008060006060848603121561539a57600080fd5b83516153a581614e72565b60208501519093506153b681614e72565b91506153c460408501615369565b90509250925092565b600080600080608085870312156153e357600080fd5b505082516020840151604085015160609095015191969095509092509050565b82815260406020820152600061468c6040830184614d7d565b600081518084526020808501945080840160005b83811015614dad5781516001600160a01b031687529582019590820190600101615430565b60006101408c835280602084015261546f8184018d61541c565b604084018c90526001600160a01b038b81166060860152848203608086015290915061549b828b614d7d565b98811660a08501529690961660c08301525060e0810193909352610100830191909152610120909101525095945050505050565b600080604083850312156154e257600080fd5b82516001600160401b03808211156154f957600080fd5b615505868387016152c8565b9350602085015191508082111561551b57600080fd5b5061513b858286016152c8565b6000600160ff1b820161553d5761553d615210565b5060000390565b60006020828403121561555657600080fd5b8151612c6881615145565b6020808252602b908201527f496e697469616c697a61626c653a20636f6e7472616374206973206e6f74206960408201526a6e697469616c697a696e6760a81b606082015260800190565b60008060008060008060c087890312156155c557600080fd5b86516155d081614e72565b60208801519096506155e181614e72565b60408801519095506155f281614e72565b606088015190945061560381614d3c565b608088015190935061561481614d3c565b60a0880151909250614ef581615145565b60a08152600061563860a083018861541c565b828103602084015261564a8188614d7d565b604084019690965250506001600160a01b0392909216606083015260809091015292915050565b6001600160a01b038616815260a0602082018190526000906156959083018761541c565b82810360408401526156a7818761541c565b905082810360608401526156bb8186614d7d565b9150508260808301529695505050505050565b600080604083850312156156e157600080fd5b82516001600160401b03808211156156f857600080fd5b818501915085601f83011261570c57600080fd5b8151602061571c61503a83614ff6565b82815260059290921b8401810191818101908984111561573b57600080fd5b948201945b8386101561576257855161575381614d3c565b82529482019490820190615740565b9188015191965090935050508082111561551b57600080fd5b6001600160a01b038581168252841660208201526080604082018190526000906157a79083018561541c565b8281036060840152614a878185614d7d565b80820281158282048414176106f1576106f1615210565b6000826157ed57634e487b7160e01b600052601260045260246000fd5b500490565b602081526000612c686020830184614d7d565b60018060a01b03871681528560020b60208201528460020b604082015260c06060820152600061583860c0830186614d7d565b6001600160801b039490941660808301525090151560a090910152949350505050565b60008060006060848603121561587057600080fd5b83516001600160401b0381111561588657600080fd5b615892868287016152c8565b935050602084015191506153c460408501615369565b6001600160a01b03999099168952600297880b60208a015295870b604089015293860b60608801529190940b60808601526001600160801b0393841660a0860152831660c085015290911660e083015215156101008201526101200190565b60008060006060848603121561591c57600080fd5b83516001600160401b0381111561593257600080fd5b61593e868287016152c8565b9350506153b660208501615369565b6040815260006159606040830185614d7d565b82810360208401526159728185614d7d565b95945050505050565b818103600083128015838313168383128216171561339957613399615210565b888152602081018890526001600160a01b038781166040830152610100606083018190526000916159ce8483018a61541c565b60808501989098529590951660a08301525060c081019290925260e09091015250949350505050565b60008060408385031215615a0a57600080fd5b8251915060208301516001600160401b03811115615a2757600080fd5b61513b858286016152c8565b6000610140808352615a478184018e614d7d565b90508b60208401528a60408401528960608401528281036080840152615a6d818a614d7d565b905082810360a0840152615a81818961541c565b60c084018890526001600160a01b03871660e085015261010084018690528381036101208501529050615ab48185614d7d565b9d9c50505050505050505050505050565b60a081526000615ad860a083018861541c565b602083018790526001600160a01b03861660408401528281036060840152615b008186614d7d565b90508281036080840152615b148185614d7d565b98975050505050505050565b60008060408385031215615b3357600080fd5b82516001600160401b03811115615b4957600080fd5b615b55858286016152c8565b925050602083015190509250929050565b600060208284031215615b7857600080fd5b81516001600160401b03811115615b8e57600080fd5b61468c848285016152c8565b8481526001600160a01b03841660208201526080604082018190526000906157a79083018561541c565b6001600160a01b0389811682526020820189905261010060408301819052600091615bf18483018b61541c565b91508089166060850152508660808401528560a084015282810360c0840152615c1a818661541c565b905082810360e0840152615c2e8185614d7d565b9b9a5050505050505050505050565b600080600060608486031215615c5257600080fd5b83516001600160401b0380821115615c6957600080fd5b615c75878388016152c8565b94506020860151915080821115615c8b57600080fd5b615c97878388016152c8565b93506040860151915080821115615cad57600080fd5b50615cba868287016152c8565b9150509250925092565b60a0808252865190820181905260009060209060c0840190828a01845b82811015615d065781516001600160a01b031684529284019290840190600101615ce1565b50505083810382850152615d1a8189614d7d565b9150508281036040840152615d2f8187614d7d565b90508281036060840152615b008186614d7d565b604081526000615d56604083018561541c565b90508260208301529392505050565b60008060408385031215615d7857600080fd5b505080516020909101519092909150565b600060208284031215615d9b57600080fd5b81516001600160401b0380821115615db257600080fd5b818401915084601f830112615dc657600080fd5b815181811115615dd857615dd8614fb0565b615deb601f8201601f1916602001614fc6565b9150808252856020828501011115615e0257600080fd5b615e13816020840160208601614f4d565b50949350505050565b600060018060a01b03808916835260c06020840152615e3e60c0840189614f71565b9681166040840152949094166060820152608081019290925260a0909101525092915050565b6001600160a01b038781168252861660208201526040810185905260c060608201819052600090615e979083018661541c565b84608084015282810360a0840152615eaf8185614d7d565b9998505050505050505050565b60008251615ece818460208701614f4d565b919091019291505056fea264697066735822122054ed940d34f247d1ee0d85530a3627f2de9043999072f2e419b04e0d0fe39eff64736f6c63430008110033",
  "deployedBytecode": "0x608060405234801561001057600080fd5b50600436106102ab5760003560e01c806373a50ef511610172578063ab9e3eee116100d9578063d295ea7011610092578063d295ea70146105cf578063d3487997146105d8578063dc1000a7146105eb578063de3d047c1461060b578063dee1f0e41461061e578063f77c479114610631578063ffb86c6a1461063957600080fd5b8063ab9e3eee1461057b578063b245755614610583578063b429afeb14610596578063bd38837b146105a9578063cd4c8156146105bc578063ceee861d1461041b57600080fd5b806387c7f7701161012b57806387c7f770146104ed578063936725ec1461050057806396b7b14e14610524578063996a6c9c1461041b5780639d0bcca014610537578063a3f4df7e1461053f57600080fd5b806373a50ef514610468578063783274381461048c5780637cc96380146104ac5780637d7c2a1c146104b45780637efc77fa146104bc57806387788782146104e457600080fd5b80633cd8045e1161021657806351e03fbe116101cf57806351e03fbe146103f65780635641ec03146104095780635cfc1a51146104115780636207a0cf1461041b5780636ffb4c8e1461044c57806371ee01751461045f57600080fd5b80633cd8045e1461039b5780634593144c146103ae5780634ad0b684146103b65780634e71d92d146103be5780634fa5d854146103c65780634fac6ccd146103e357600080fd5b8063253de46611610268578063253de4661461033d57806328abdef014610350578063321793a814610358578063325a19f11461036b57806333c5b58e1461037357806338d52e0f1461037b57600080fd5b806301e1d114146102b057806301ffc9a7146102cb5780630acd12c7146102ee5780630e30428d146102f65780631865c57d1461030b57806322b6f5e21461032a575b600080fd5b6102b8610641565b6040519081526020015b60405180910390f35b6102de6102d9366004614d12565b6106cc565b60405190151581526020016102c2565b6102b86106f7565b610309610304366004614d51565b610904565b005b6103136109cb565b6040516102c29b9a99989796959493929190614db8565b610309610338366004614e42565b610ad0565b61030961034b366004614e81565b610c06565b610309610e07565b610309610366366004614f03565b610ee4565b6102b8610fbd565b6102b8610ff1565b603d5461038e906001600160a01b031681565b6040516102c29190614f1c565b603e5461038e906001600160a01b031681565b6102b8610ffb565b6043546102b8565b61030961102b565b6103ce6110da565b604080519283526020830191909152016102c2565b6103096103f1366004614f30565b61113f565b6102b8610404366004614f03565b61126a565b610309611480565b600160ff1b6102b8565b61043f604051806040016040528060058152602001640312e302e360dc1b81525081565b6040516102c29190614f9d565b61030961045a366004614f03565b6115de565b6102b860465481565b61043f60405180604001604052806005815260200164322e312e3160d81b81525081565b6102b861049a366004614f30565b60456020526000908152604090205481565b6102b86116d6565b610309611706565b61043f60405180604001604052806009815260200168556e6973776170563360b81b81525081565b6102b860425481565b6102b86104fb366004614d51565b611a3c565b61043f604051806040016040528060058152602001640332e302e360dc1b81525081565b610309610532366004615084565b611ed9565b61038e611fbd565b61043f6040518060400160405280601c81526020017f556e6973776170563320436f6e7665727465722053747261746567790000000081525081565b6102de611fed565b6102b8610591366004615153565b612077565b6102de6105a4366004614f30565b6121bf565b60445461038e906001600160a01b031681565b60415461038e906001600160a01b031681565b6102b8603f5481565b6103096105e6366004615178565b6121e4565b6102b86105f9366004614f30565b60406020819052600091825290205481565b610309610619366004614f03565b6122c0565b6102de61062c366004614f30565b6123ba565b61038e61243f565b6102de61246f565b600061064c60435490565b603d546040516370a0823160e01b81526001600160a01b03909116906370a082319061067c903090600401614f1c565b602060405180830381865afa158015610699573d6000803e3d6000fd5b505050506040513d601f19601f820116820180604052508101906106bd91906151f7565b6106c79190615226565b905090565b60006001600160e01b0319821663f73147b360e01b14806106f157506106f182612506565b92915050565b603e54603d5460405163201de59f60e01b81526000926001600160a01b0390811692169073__$ec217c54da363a68ad871e6868efec481c$__9063201de59f90610745908590600401614f1c565b60006040518083038186803b15801561075d57600080fd5b505af4158015610771573d6000803e3d6000fd5b50506040516370a0823160e01b8152600092506001600160a01b03841691506370a08231906107a4903090600401614f1c565b602060405180830381865afa1580156107c1573d6000803e3d6000fd5b505050506040513d601f19601f820116820180604052508101906107e591906151f7565b905060008060006107f461252b565b92509250925073__$ec217c54da363a68ad871e6868efec481c$__631594b05b868686868b6040518663ffffffff1660e01b8152600401610839959493929190615239565b602060405180830381865af4158015610856573d6000803e3d6000fd5b505050506040513d601f19601f8201168201806040525081019061087a91906151f7565b6001600160a01b038616600090815260406020819052902054909450808511156108a2578094505b5083156108c7576108b38585612557565b6108c76001600160a01b0386168786612623565b6040518481527f97f6cbf669d73908a8de3b762891f88fcc476520fd70cb3d414dc9ac86e0a2e59060200160405180910390a19695505050505050565b73__$ec217c54da363a68ad871e6868efec481c$__63493f6edc61092661243f565b6040518263ffffffff1660e01b81526004016109429190614f1c565b60006040518083038186803b15801561095a57600080fd5b505af415801561096e573d6000803e3d6000fd5b5050506001600160a01b03831660009081526045602052604090819020839055517f297f3fbc14027d2b4a4f7dac3dff2ad6b386024299045b0e163f131bb24b611d91506109bf9084908490615269565b60405180910390a15050565b6001546002805460038054600454600954600a5460408051868152608081019091526001600160a01b03988916989687169796851696600160a01b8604810b96600160c81b8704820b96600160e01b9004820b95600160301b810490920b94600160501b9092046001600160801b03169360ff9092169260609160208201838036833701905050905060016005015481600081518110610a6d57610a6d615282565b60200260200101818152505060016006015481600181518110610a9257610a92615282565b60200260200101818152505060016007015481600281518110610ab757610ab7615282565b602002602001018181525050909192939495969798999a565b73__$ec217c54da363a68ad871e6868efec481c$__634bead669610af261243f565b6040518263ffffffff1660e01b8152600401610b0e9190614f1c565b60006040518083038186803b158015610b2657600080fd5b505af4158015610b3a573d6000803e3d6000fd5b505050506127108211156040518060400160405280600c81526020016b0a6847440a8dede40d0d2ced60a31b81525090610b905760405162461bcd60e51b8152600401610b879190614f9d565b60405180910390fd5b5060408051808201909152600f81526e53423a2057726f6e672076616c756560881b60208201526001600160a01b038216610bde5760405162461bcd60e51b8152600401610b879190614f9d565b50604291909155604180546001600160a01b0319166001600160a01b03909216919091179055565b600054610100900460ff1615808015610c265750600054600160ff909116105b80610c405750303b158015610c40575060005460ff166001145b610ca35760405162461bcd60e51b815260206004820152602e60248201527f496e697469616c697a61626c653a20636f6e747261637420697320616c72656160448201526d191e481a5b9a5d1a585b1a5e995960921b6064820152608401610b87565b6000805460ff191660011790558015610cc6576000805461ff0019166101001790555b610d33866001600160a01b03166338d52e0f6040518163ffffffff1660e01b8152600401602060405180830381865afa158015610d07573d6000803e3d6000fd5b505050506040513d601f19601f82011682018060405250810190610d2b9190615298565b85858561267e565b610d3e878787612867565b604051636a65141d60e11b8152600160048201526001600160a01b0380891660248301528616604482015273__$166cd655d2cd990700b75f7db5b5f84c53$__9063d4ca283a9060640160006040518083038186803b158015610da057600080fd5b505af4158015610db4573d6000803e3d6000fd5b505050508015610dfe576000805461ff0019169055604051600181527f7f26b83ff96e1f2b6a682f133852f6798a09c465da95921460cefb38474024989060200160405180910390a15b50505050505050565b73__$ec217c54da363a68ad871e6868efec481c$__63493f6edc610e2961243f565b6040518263ffffffff1660e01b8152600401610e459190614f1c565b60006040518083038186803b158015610e5d57600080fd5b505af4158015610e71573d6000803e3d6000fd5b50506009805460ff1916905550506040805163f460770b60e01b8152905173__$166cd655d2cd990700b75f7db5b5f84c53$__9163f460770b916004808301926000929190829003018186803b158015610eca57600080fd5b505af4158015610ede573d6000803e3d6000fd5b50505050565b73__$ec217c54da363a68ad871e6868efec481c$__63493f6edc610f0661243f565b6040518263ffffffff1660e01b8152600401610f229190614f1c565b60006040518083038186803b158015610f3a57600080fd5b505af4158015610f4e573d6000803e3d6000fd5b505050600a82905550604051631c77945b60e31b81526004810182905273__$166cd655d2cd990700b75f7db5b5f84c53$__9063e3bca2d89060240160006040518083038186803b158015610fa257600080fd5b505af4158015610fb6573d6000803e3d6000fd5b5050505050565b60006106c7610fed60017f6f55f470bdc9cb5f04223fd822021061668e4dccb43e8727b295106dc9769c8b6152b5565b5490565b60006106c76128bc565b60006106c7610fed60017f812a673dfca07956350df10f8a654925f561d7a0da09bdbe79e653939a14d9f16152b5565b73__$ec217c54da363a68ad871e6868efec481c$__63493f6edc61104d61243f565b6040518263ffffffff1660e01b81526004016110699190614f1c565b60006040518083038186803b15801561108157600080fd5b505af4158015611095573d6000803e3d6000fd5b505050506110a1612983565b7fed7f50f936a5ed7428d20f18e78d6dfe8bc37fd2f4e3cdb348327c7697244928336040516110d09190614f1c565b60405180910390a1565b603e5460408051808201909152600a81526914d08e8811195b9a595960b21b60208201526000918291906001600160a01b0316331461112c5760405162461bcd60e51b8152600401610b879190614f9d565b506111376001612b24565b915091509091565b33301461118e5760405162461bcd60e51b815260206004820152601b60248201527f496e637265617365207265766973696f6e20666f7262696464656e00000000006044820152606401610b87565b60006111be610fed60017f22573091f17911fb166032a3d9e0554aa73d31b7b7ddea4a4dd2995650af84bd6152b5565b6111c9906001615226565b90506111fd816111fa60017f22573091f17911fb166032a3d9e0554aa73d31b7b7ddea4a4dd2995650af84bd6152b5565b55565b61122c826111fa60017fbfaaa2fb63266ff27c2da975f5894955056f50419af651a81f6c5060581857e46152b5565b604080518281526001600160a01b03841660208201527ff27e2ef832a4eb8ed8ec553b875eecd44764cda95b1c24170e281539e0a869c891016109bf565b603e54603d5460405163201de59f60e01b81526000926001600160a01b0390811692169073__$ec217c54da363a68ad871e6868efec481c$__9063201de59f906112b8908590600401614f1c565b60006040518083038186803b1580156112d057600080fd5b505af41580156112e4573d6000803e3d6000fd5b50506040516370a0823160e01b8152600092506001600160a01b03841691506370a0823190611317903090600401614f1c565b602060405180830381865afa158015611334573d6000803e3d6000fd5b505050506040513d601f19601f8201168201806040525081019061135891906151f7565b9050808511156114045760008061137761137284896152b5565b612bdd565b604051631594b05b60e01b8152909850919350915073__$ec217c54da363a68ad871e6868efec481c$__90631594b05b906113be9087908790879087908c90600401615239565b602060405180830381865af41580156113db573d6000803e3d6000fd5b505050506040513d601f19601f820116820180604052508101906113ff91906151f7565b925050505b60006114108683612c57565b90508015611436576114228382612557565b6114366001600160a01b0384168583612623565b60408051878152602081018390529081018390527f21b38dd19808c509ae6afc969adfaf7d35fe949c37abd493b963cf9b68cc1acb9060600160405180910390a150505050919050565b73__$ec217c54da363a68ad871e6868efec481c$__63493f6edc6114a261243f565b6040518263ffffffff1660e01b81526004016114be9190614f1c565b60006040518083038186803b1580156114d657600080fd5b505af41580156114ea573d6000803e3d6000fd5b505050506114f6612c6f565b603d546040516370a0823160e01b81526001600160a01b039091169060009082906370a082319061152b903090600401614f1c565b602060405180830381865afa158015611548573d6000803e3d6000fd5b505050506040513d601f19601f8201168201806040525081019061156c91906151f7565b6001600160a01b038316600090815260406020819052902054909150611593908390612557565b603e546115ad906001600160a01b03848116911683612623565b7ff779df072f94d207563b1ba8c286814086f1e6bb436a2652e307dccc56ed79e833826040516109bf929190615269565b73__$ec217c54da363a68ad871e6868efec481c$__63493f6edc61160061243f565b6040518263ffffffff1660e01b815260040161161c9190614f1c565b60006040518083038186803b15801561163457600080fd5b505af4158015611648573d6000803e3d6000fd5b50505050620186a08111156040518060400160405280600f81526020016e53423a2057726f6e672076616c756560881b815250906116995760405162461bcd60e51b8152600401610b879190614f9d565b5060468190556040518181527fe4166dfcf23bbd3e3f764a99dc8fa740554c03c82d6019b81cf265f396f6f2fe906020015b60405180910390a150565b60006106c7610fed60017f22573091f17911fb166032a3d9e0554aa73d31b7b7ddea4a4dd2995650af84bd6152b5565b600061171061243f565b60405163124fdbb760e21b815290915073__$ec217c54da363a68ad871e6868efec481c$__9063493f6edc9061174a908490600401614f1c565b60006040518083038186803b15801561176257600080fd5b505af4158015611776573d6000803e3d6000fd5b50505050611782612cfe565b50604454600090819073__$166cd655d2cd990700b75f7db5b5f84c53$__9063b24d8db0906001906001600160a01b0316866117bd60435490565b6040516001600160e01b031960e087901b16815260048101949094526001600160a01b039283166024850152911660448301526064820152608401600060405180830381865af4158015611815573d6000803e3d6000fd5b505050506040513d6000823e601f3d908101601f1916820160405261183d9190810190615323565b9150915081516002036119685761185382612d10565b5050801561196857600354600654600754604051638c64d45560e01b81526001600160a01b0384166004820152600160c81b8404600290810b6024830152600160e01b8504810b6044830152600160a01b90940490930b6064840152608483019190915260a482015273__$166cd655d2cd990700b75f7db5b5f84c53$__90638c64d4559060c401606060405180830381865af41580156118f8573d6000803e3d6000fd5b505050506040513d601f19601f8201168201806040525081019061191c9190615385565b600580546001600160801b0319166001600160801b03929092169190911790556004805465ffffffffffff1916630100000062ffffff9384160262ffffff191617929091169190911790555b60008060008073__$166cd655d2cd990700b75f7db5b5f84c53$__63915a3eb46001604080518363ffffffff1660e01b81526004016119b1929190918252602082015260400190565b608060405180830381865af41580156119ce573d6000803e3d6000fd5b505050506040513d601f19601f820116820180604052508101906119f291906153cd565b60015493975091955093509150611a13906001600160a01b03168585612e0b565b600254611a2a906001600160a01b03168383612e0b565b611a32612e45565b5050505050505050565b6000611a8f6040518061010001604052806000815260200160006001600160a01b031681526020016060815260200160008152602001600081526020016060815260200160608152602001600081525090565b6044546001600160a01b0316602080830182905260408051808201909152600a81526914d08e8811195b9a595960b21b91810191909152903314611ae65760405162461bcd60e51b8152600401610b879190614f9d565b50611af084612e59565b606083018190526040808401929092528151808301909252600f82526e53423a2057726f6e672076616c756560881b602083015219611b425760405162461bcd60e51b8152600401610b879190614f9d565b506040808201515182526001600160a01b038516600090815260208290522054608082015280516001600160401b03811115611b8057611b80614fb0565b604051908082528060200260200182016040528015611ba9578160200160208202803683370190505b5060a082015280516001600160401b03811115611bc857611bc8614fb0565b604051908082528060200260200182016040528015611bf1578160200160208202803683370190505b5060c08201526080810151831115611c6857611c0b612e78565b60e0820181905215611c6857611c248160e00151612e8e565b60a0820181905260e08201516040517faebc771af58936b05e89b0be7d3f9761480181abcd4a649fbdd01753fda1697092611c5f9291615403565b60405180910390a15b828160a00151826060015181518110611c8357611c83615282565b60200260200101518260800151611c9a9190615226565b1015611e1c5773__$e930d50fb5f4f1298547dbcb2bb0591990$__63749e2cd18260a00151836060015181518110611cd457611cd4615282565b60200260200101518360800151611ceb9190615226565b611cf590866152b5565b60408401516060850151603d5460a087015160208801516001600160a01b0390921691611d2061243f565b6001600160a01b0316634046ebae6040518163ffffffff1660e01b8152600401602060405180830381865afa158015611d5d573d6000803e3d6000fd5b505050506040513d601f19601f82011682018060405250810190611d819190615298565b6001600160a01b038d16600090815260456020526040902054611da661012c80615226565b604080518b63ffffffff1660e01b8152600401611dcc9a99989796959493929190615455565b600060405180830381865af4158015611de9573d6000803e3d6000fd5b505050506040513d6000823e601f3d908101601f19168201604052611e1191908101906154cf565b60a083015260c08201525b611e568160a00151826060015181518110611e3957611e39615282565b60200260200101518260800151611e509190615226565b84612c57565b6020820151909250611e73906001600160a01b0386169084612623565b611e9981604001518260a001518360c00151846060015186611e9490615528565b613048565b7f178d2d6770c9dbd24f8d3e4dc08998cad5a42857f107435518f65c761e253bcc8483604051611eca929190615269565b60405180910390a15092915050565b8151815160408051808201909152600d81526c54532d3139206c656e6774687360981b6020820152908214611f215760405162461bcd60e51b8152600401610b879190614f9d565b5060005b81811015611fb457828181518110611f3f57611f3f615282565b6020026020010151600014611fac57611fac848281518110611f6357611f63615282565b6020026020010151848381518110611f7d57611f7d615282565b6020026020010151611fa7878581518110611f9a57611f9a615282565b60200260200101516130f6565b613166565b600101611f25565b50610ede612e45565b60006106c7610fed60017fbfaaa2fb63266ff27c2da975f5894955056f50419af651a81f6c5060581857e46152b5565b60448054604051635ca1bcdf60e01b8152600160048201526001600160a01b03909116602482015260009173__$166cd655d2cd990700b75f7db5b5f84c53$__91635ca1bcdf91015b602060405180830381865af4158015612053573d6000803e3d6000fd5b505050506040513d601f19601f820116820180604052508101906106c79190615544565b603e5460405163201de59f60e01b815260009173__$ec217c54da363a68ad871e6868efec481c$__9163201de59f916120be916001600160a01b0390911690600401614f1c565b60006040518083038186803b1580156120d657600080fd5b505af41580156120ea573d6000803e3d6000fd5b5050603d546040516370a0823160e01b81526001600160a01b0390911692506000915082906370a0823190612123903090600401614f1c565b602060405180830381865afa158015612140573d6000803e3d6000fd5b505050506040513d601f19601f8201168201806040525081019061216491906151f7565b9050612171828683613166565b8015612184576121818185613214565b92505b6040518181527f94bcfc9a8eba5229c2956ccb1858733fce588bc02145ac053c40b9827a33837f9060200160405180910390a1505092915050565b60006121c961243f565b6001600160a01b0316826001600160a01b0316149050919050565b6003546001600160a01b031633146122305760405162461bcd60e51b815260206004820152600f60248201526e31b0b6363130b1b59031b0b63632b960891b6044820152606401610b87565b831561227d5760045461227d9033908690600160481b900460ff16612260576001546001600160a01b031661226d565b6002546001600160a01b03165b6001600160a01b03169190612623565b8215610ede57600454610ede9033908590600160481b900460ff166122ad576002546001600160a01b031661226d565b6001546001600160a01b03169190612623565b73__$ec217c54da363a68ad871e6868efec481c$__63ac1d8b356122e261243f565b6040518263ffffffff1660e01b81526004016122fe9190614f1c565b60006040518083038186803b15801561231657600080fd5b505af415801561232a573d6000803e3d6000fd5b50505050620186a08111156040518060400160405280600c81526020016b0a6847440a8dede40d0d2ced60a31b815250906123785760405162461bcd60e51b8152600401610b879190614f9d565b50603f5460408051918252602082018390527f89979f75740477f1609671a960c1f57e40a47e58bdf1623bc683d806fb6407e5910160405180910390a1603f55565b6000816001600160a01b03166123ce61243f565b6001600160a01b0316635aa6e6756040518163ffffffff1660e01b8152600401602060405180830381865afa15801561240b573d6000803e3d6000fd5b505050506040513d601f19601f8201168201806040525081019061242f9190615298565b6001600160a01b03161492915050565b60006106c7610fed60017f5165972ef41194f06c5007493031d0b927c20741adcb74403b954009fd2c36186152b5565b60095460035460048054604051632beacd5760e11b815260ff9094161515918401919091526001600160a01b0382166024840152600160c81b8204600290810b6044850152600160e01b8304810b6064850152600160a01b909204820b6084840152600160301b9004900b60a482015260009073__$166cd655d2cd990700b75f7db5b5f84c53$__906357d59aae9060c401612036565b60006001600160e01b0319821663c19fa56160e01b14806106f157506106f1826133a0565b60008060008061253b60016133d5565b9250905061254c6000600183613410565b909590945091925050565b6001600160a01b03821660009081526040602081815291819020548151808301909252600f82526e53423a2057726f6e672076616c756560881b92820192909252828210156125b95760405162461bcd60e51b8152600401610b879190614f9d565b506125c482826152b5565b6001600160a01b0384166000908152604060208190529020557fd1e935d17de6dcfd3ffb4f6d06f977c837be28001308e04923722e32d1863c7d8361260883615528565b604051612616929190615269565b60405180910390a1505050565b6126798363a9059cbb60e01b8484604051602401612642929190615269565b60408051601f198184030181529190526020810180516001600160e01b03166001600160e01b031990931692909217909152613853565b505050565b600054610100900460ff166126a55760405162461bcd60e51b8152600401610b8790615561565b60408051808201909152601181527054532d31207a65726f206164647265737360781b60208201526001600160a01b0384166126f45760405162461bcd60e51b8152600401610b879190614f9d565b50600380546001600160a01b0319166001600160a01b038581169182179092556004805468ffffff0000000000001916600160301b62ffffff861602178155604051630175022560e21b815290810191909152600284810b602483015283900b6044820152908516606482015273__$166cd655d2cd990700b75f7db5b5f84c53$__906305d408949060840160c060405180830381865af415801561279d573d6000803e3d6000fd5b505050506040513d601f19601f820116820180604052508101906127c191906155ac565b60048054911515600160481b0260ff60481b19909216919091179055600280546001600160a01b039283166001600160a01b031991821617909155600180549390921692169190911790556003805462ffffff948516600160a01b0262ffffff60a01b19948616600160c81b0262ffffff60c81b1996909416600160e01b029590951665ffffffffffff60c81b1990911617919091179190911691909117905550505050565b600054610100900460ff1661288e5760405162461bcd60e51b8152600401610b8790615561565b6128988383613925565b604480546001600160a01b0319166001600160a01b03929092169190911790555050565b603d54600090819081906128d8906001600160a01b0316612e59565b9150915073__$e930d50fb5f4f1298547dbcb2bb0591990$__636e32b87b83612907612902612e78565b613b4e565b604454604080516001600160e01b031960e087901b16815261293b94939288926001600160a01b0390911691600401615625565b602060405180830381865af4158015612958573d6000803e3d6000fd5b505050506040513d601f19601f8201168201806040525081019061297c91906151f7565b9250505090565b60008061298e613c28565b6044549193509150600090819073__$e930d50fb5f4f1298547dbcb2bb0591990$__906320138ba5906001600160a01b03166129c8613db5565b8787604080518663ffffffff1660e01b81526004016129eb959493929190615671565b600060405180830381865af4158015612a08573d6000803e3d6000fd5b505050506040513d6000823e601f3d908101601f19168201604052612a3091908101906156ce565b815191935091508015610fb6576000806000612a4c8686613e49565b925092509250612a628684846000196000613048565b603d548351612a96916001600160a01b031690859087908110612a8757612a87615282565b60200260200101516000612e0b565b73__$8f1afe7577f9ab973017c74eca19b86f3c$__63acf741a3612ab861243f565b603e546040516001600160e01b031960e085901b168152612aea92916001600160a01b0316908b90879060040161577b565b60006040518083038186803b158015612b0257600080fd5b505af4158015612b16573d6000803e3d6000fd5b505050505050505050505050565b604354600090819081612b35612e45565b90506000612b4161404c565b91965094509050612b54838387876140a8565b9095509350858015612b805750620186a082604654612b7391906157b9565b612b7d91906157d0565b81115b15612bd5576000612b918284615226565b9050612b9e826000613214565b50603d54612bce908290612bba906001600160a01b03166130f6565b604354612bc79190615226565b88886140a8565b9096509450505b505050915091565b600080600080612bed60016133d5565b60408051808201909152601481527354532d3138206e6f20696e766573746d656e747360601b602082015290935090915081612c3c5760405162461bcd60e51b8152600401610b879190614f9d565b50612c4985600083613410565b909690955091935090915050565b6000818310612c665781612c68565b825b9392505050565b6000612c79612cfe565b90507f768a28cb3459382a3d2173feb2dad0235f8de680b109872da581a3aa269fe5f481604051612caa91906157f2565b60405180910390a1603d546000908190612ccc906001600160a01b0316612e59565b91509150600080612cdd84846140f0565b91509150612cee8486838686613048565b612cf6612e45565b505050505050565b60606106c7612d0b612e78565b612e8e565b60035460048054604051638008936760e01b815260609360009373__$166cd655d2cd990700b75f7db5b5f84c53$__93638008936793612d92936001600160a01b03811693600160c81b8204600290810b94600160e01b909304900b928b92600160501b81046001600160801b031692600160481b90910460ff169101615805565b600060405180830381865af4158015612daf573d6000803e3d6000fd5b505050506040513d6000823e601f3d908101601f19168201604052612dd7919081019061585b565b600480546001600160801b03909216600160501b02600160501b600160d01b03199092169190911790559094909350915050565b80821115612e2a5761267983612e2183856152b5565b611fa7866130f6565b818111156126795761267983612e4084846152b5565b612557565b6000612e4f6128bc565b6043819055919050565b60606000612e65613db5565b9150612e71828461419e565b9050915091565b600454600160501b90046001600160801b031690565b6060600080612e9b6141fc565b915091508160016005016000828254612eb49190615226565b909155505060078054829190600090612ece908490615226565b9250508190555073__$166cd655d2cd990700b75f7db5b5f84c53$__6333fdd81d600160020160009054906101000a90046001600160a01b0316600160020160199054906101000a900460020b6001600201601c9054906101000a900460020b600160030160009054906101000a900460020b600160030160039054906101000a900460020b6001600301600a9054906101000a90046001600160801b0316600160040160009054906101000a90046001600160801b03168c600160030160099054906101000a900460ff166040518a63ffffffff1660e01b8152600401612fbe999897969594939291906158a8565b600060405180830381865af4158015612fdb573d6000803e3d6000fd5b505050506040513d6000823e601f3d908101601f191682016040526130039190810190615907565b600580546001600160801b0319166001600160801b0392831617905560048054600160501b600160d01b031916600160501b9390921692909202179055949350505050565b845160005b81811015610dfe57600086828151811061306957613069615282565b60200260200101519050600086838151811061308757613087615282565b602002602001015190508583036130c85760008513156130b2576130ab8583615226565b91506130c8565b6130bb85615528565b6130c59082615226565b90505b6130ec8984815181106130dd576130dd615282565b60200260200101518383612e0b565b505060010161304d565b6040516370a0823160e01b81526000906001600160a01b038316906370a0823190613125903090600401614f1c565b602060405180830381865afa158015613142573d6000803e3d6000fd5b505050506040513d601f19601f820116820180604052508101906106f191906151f7565b6001600160a01b0383166000908152604060208190528120805484929061318e908490615226565b90915550506040517fd1e935d17de6dcfd3ffb4f6d06f977c837be28001308e04923722e32d1863c7d906131c59085908590615269565b60405180910390a160408051808201909152600f81526e53423a2057726f6e672076616c756560881b602082015282821015610ede5760405162461bcd60e51b8152600401610b879190614f9d565b600080613220836133d5565b604654909350909150620186a0906132399083906157b9565b61324391906157d0565b8411156133995760095460ff16156132ed57604080516002808252606082018352600092602083019080368337019050509050848160008151811061328a5761328a615282565b6020026020010181815250507f59400c8c523464b521238ea8f50e923f2bc64663557e6afec92a97f7efe92d0581826040516132c792919061594d565b60405180910390a16001546132e7906001600160a01b0316866000612e0b565b5061338f565b603d546000908190613307906001600160a01b0316612e59565b60445491935091506000908190819061332b906001600160a01b03168a8787614274565b925092509250600061333c84612d10565b5090507f59400c8c523464b521238ea8f50e923f2bc64663557e6afec92a97f7efe92d05848260405161337092919061594d565b60405180910390a161338886848388611e9487615528565b5050505050505b613397612e45565b505b5092915050565b60006001600160e01b0319821663b7b79fa960e01b14806106f157506301ffc9a760e01b6001600160e01b03198316146106f1565b6043546000908190836133e857806133f0565b6133f0612e45565b9250836133fe576000613408565b613408818461597b565b915050915091565b600080838061341e57508415155b801561342957508215155b15613844576000613438613db5565b603d549091506001600160a01b03166000613453838361419e565b6044546040805160c081019091529192506001600160a01b0316906000908061347a6144c5565b8152602001613487612e78565b8152602001613494612e78565b81526000602082015260408051637a55caf360e01b81526001600160a01b0380871660048301528816602482015291019073__$e930d50fb5f4f1298547dbcb2bb0591990$__90637a55caf390604401602060405180830381865af4158015613501573d6000803e3d6000fd5b505050506040513d601f19601f8201168201806040525081019061352591906151f7565b81526020016000604051908082528060200260200182016040528015613555578160200160208202803683370190505b509052905073__$e930d50fb5f4f1298547dbcb2bb0591990$__63d361fe128a61357f578b613582565b60005b6040308988888f89604001516040518963ffffffff1660e01b81526004016135b198979695949392919061599b565b600060405180830381865af41580156135ce573d6000803e3d6000fd5b505050506040513d6000823e601f3d908101601f191682016040526135f691908101906159f7565b60a08301526060808301829052906000901561370d576136198360600151612e8e565b91507faebc771af58936b05e89b0be7d3f9761480181abcd4a649fbdd01753fda16970836060015183604051613650929190615403565b60405180910390a173__$e930d50fb5f4f1298547dbcb2bb0591990$__632374491584600001518560400151866060015187602001518860a001518d8c8c613696612e78565b8c6040518b63ffffffff1660e01b81526004016136bc9a99989796959493929190615a33565b600060405180830381865af41580156136d9573d6000803e3d6000fd5b505050506040513d6000823e601f3d908101601f1916820160405261370191908101906159f7565b60a085015290506137dd565b73__$e930d50fb5f4f1298547dbcb2bb0591990$__63bc846df28887878b516001600160401b0381111561374357613743614fb0565b60405190808252806020026020018201604052801561376c578160200160208202803683370190505b508860a001516040518663ffffffff1660e01b8152600401613792959493929190615ac5565b600060405180830381865af41580156137af573d6000803e3d6000fd5b505050506040513d6000823e601f3d908101601f191682016040526137d79190810190615b20565b90925090505b6000806137f089888760a0015189614540565b915091506138018985838a86613048565b613809612e45565b50670de0b6b3a764000085608001518461382391906157b9565b61382d91906157d0565b85608001519a509a5050505050505050505061384b565b5060009050805b935093915050565b60006138a8826040518060400160405280602081526020017f5361666545524332303a206c6f772d6c6576656c2063616c6c206661696c6564815250856001600160a01b031661467d9092919063ffffffff16565b80519091501561267957808060200190518101906138c69190615544565b6126795760405162461bcd60e51b815260206004820152602a60248201527f5361666545524332303a204552433230206f7065726174696f6e20646964206e6044820152691bdd081cdd58d8d9595960b21b6064820152608401610b87565b600054610100900460ff1661394c5760405162461bcd60e51b8152600401610b8790615561565b613976817fd2de0374d4479f33e63ae5ed6ca772a10463dd883a90c612050b51fab6196400614694565b61397f826146ee565b60405163b429afeb60e01b81526001600160a01b0382169063b429afeb906139ab908590600401614f1c565b602060405180830381865afa1580156139c8573d6000803e3d6000fd5b505050506040513d601f19601f820116820180604052508101906139ec9190615544565b6040518060400160405280600f81526020016e53423a2057726f6e672076616c756560881b81525090613a325760405162461bcd60e51b8152600401610b879190614f9d565b50806001600160a01b03166338d52e0f6040518163ffffffff1660e01b8152600401602060405180830381865afa158015613a71573d6000803e3d6000fd5b505050506040513d601f19601f82011682018060405250810190613a959190615298565b603d80546001600160a01b03199081166001600160a01b0393841617909155603e805490911683831617905560408051635aa6e67560e01b8152905191841691635aa6e675916004808201926020929091908290030181865afa158015613b00573d6000803e3d6000fd5b505050506040513d601f19601f82011682018060405250810190613b249190615298565b604180546001600160a01b0319166001600160a01b03929092169190911790555050612710604255565b6003546004805460055460405163c68bc70360e01b815260609473__$166cd655d2cd990700b75f7db5b5f84c53$__9463c68bc70394613be3946001600160a01b03841694600160c81b8504600290810b95600160e01b9004810b9484820b946301000000810490920b93600160501b83046001600160801b03908116949116928e92600160481b90910460ff1691016158a8565b600060405180830381865af4158015613c00573d6000803e3d6000fd5b505050506040513d6000823e601f3d908101601f191682016040526106f19190810190615b66565b60035460048054600654600754604051630117844f60e61b81526001600160a01b03861694810194909452600160c81b8504600290810b6024860152600160e01b909504850b604485015282850b60648501526301000000830490940b608484015260a483015260c4820192909252600160481b90910460ff16151560e4820152606090819073__$166cd655d2cd990700b75f7db5b5f84c53$__906345e113c09061010401600060405180830381865af4158015613ceb573d6000803e3d6000fd5b505050506040513d6000823e601f3d908101601f19168201604052613d139190810190615b66565b600060068190556007556040805160028082526060820183529293509190602083019080368337505060015482519294506001600160a01b031691849150600090613d6057613d60615282565b6001600160a01b039283166020918202929092010152600254835191169083906001908110613d9157613d91615282565b60200260200101906001600160a01b031690816001600160a01b0316815250509091565b6040805160028082526060808301845292602083019080368337505060015482519293506001600160a01b031691839150600090613df557613df5615282565b6001600160a01b039283166020918202929092010152600254825191169082906001908110613e2657613e26615282565b60200260200101906001600160a01b031690816001600160a01b03168152505090565b60425460415460405163217cfb2b60e21b815260609283928392600092839273__$8f1afe7577f9ab973017c74eca19b86f3c$__926385f3ecac92613ea29290916001600160a01b03909116908c908c90600401615b9a565b600060405180830381865af4158015613ebf573d6000803e3d6000fd5b505050506040513d6000823e601f3d908101601f19168201604052613ee791908101906154cf565b603d54603f5492945090925073__$e930d50fb5f4f1298547dbcb2bb0591990$__91630f5103ff916001600160a01b031690613f21613db5565b613f2961243f565b6001600160a01b0316634046ebae6040518163ffffffff1660e01b8152600401602060405180830381865afa158015613f66573d6000803e3d6000fd5b505050506040513d601f19601f82011682018060405250810190613f8a9190615298565b604560408e8a6040518963ffffffff1660e01b8152600401613fb3989796959493929190615bc4565b600060405180830381865af4158015613fd0573d6000803e3d6000fd5b505050506040513d6000823e601f3d908101601f19168201604052613ff89190810190615c3d565b60405192975090955093507f9ed62bee08ffc98e5efa3255527e36fba3f5fa16b944a4bfad646bcf592acc4a906140389089908890889088908790615cc4565b60405180910390a150509250925092565b50565b603d5460009081908190819061406a906001600160a01b03166130f6565b9050614074612983565b603d54614089906001600160a01b03166130f6565b600854909250156140a05760088054600090915592505b61254c818386865b600080858511156140ce576140bd86866152b5565b6140c79085615226565b93506140e5565b6140d885876152b5565b6140e29084615226565b92505b509194909350915050565b60006060600073__$8f1afe7577f9ab973017c74eca19b86f3c$__6397783a6c86866040518363ffffffff1660e01b815260040161412f929190615d43565b600060405180830381865af415801561414c573d6000803e3d6000fd5b505050506040513d6000823e601f3d908101601f191682016040526141749190810190615b66565b604454909150614192908690869084906001600160a01b0316614540565b90969095509350505050565b8151600090815b818110156141f057836001600160a01b03168582815181106141c9576141c9615282565b60200260200101516001600160a01b0316036141e85791506106f19050565b6001016141a5565b50600019949350505050565b604051631a2d761b60e11b815260016004820152600090819073__$166cd655d2cd990700b75f7db5b5f84c53$__9063345aec36906024016040805180830381865af4158015614250573d6000803e3d6000fd5b505050506040513d601f19601f820116820180604052508101906111379190615d65565b6040805160028082526060828101909352829160009181602001602082028036833750506040805160028082526060820183529396509291506020830190803683370190505060035460048054604051630302c45560e41b81526001600160a01b03841692810192909252600160c81b8304600290810b6024840152600160e01b8404810b6044840152600160a01b90930490920b6064820152600160481b90910460ff161515608482015290925060009073__$166cd655d2cd990700b75f7db5b5f84c53$__9063302c45509060a401600060405180830381865af4158015614362573d6000803e3d6000fd5b505050506040513d6000823e601f3d908101601f1916820160405261438a9190810190615d89565b6001549091506143a4906001600160a01b0316888a614911565b60015460025460405163ca27d10d60e01b815273__$e930d50fb5f4f1298547dbcb2bb0591990$__9263ca27d10d926143f7928d9287926001600160a01b03918216929116908e90600090600401615e1c565b6040805180830381865af4158015614413573d6000803e3d6000fd5b505050506040513d601f19601f820116820180604052508101906144379190615d65565b8460018151811061444a5761444a615282565b6020908102919091010152915061446182886152b5565b8460008151811061447457614474615282565b6020026020010181815250508260018151811061449357614493615282565b6020026020010151846001815181106144ae576144ae615282565b602002602001018181525050509450945094915050565b604051630a65e5e760e01b81526001600482015260609073__$166cd655d2cd990700b75f7db5b5f84c53$__90630a65e5e790602401600060405180830381865af4158015614518573d6000803e3d6000fd5b505050506040513d6000823e601f3d908101601f191682016040526106c79190810190615b66565b6000606073__$e930d50fb5f4f1298547dbcb2bb0591990$__637047292d8461456761243f565b6001600160a01b0316634046ebae6040518163ffffffff1660e01b8152600401602060405180830381865afa1580156145a4573d6000803e3d6000fd5b505050506040513d601f19601f820116820180604052508101906145c89190615298565b604560008b8b815181106145de576145de615282565b60200260200101516001600160a01b03166001600160a01b03168152602001908152602001600020548a8a8a6040518763ffffffff1660e01b815260040161462b96959493929190615e64565b600060405180830381865af4158015614648573d6000803e3d6000fd5b505050506040513d6000823e601f3d908101601f1916820160405261467091908101906159f7565b9150915094509492505050565b606061468c84846000856149b7565b949350505050565b61469e8282614a92565b6146ea5760405162461bcd60e51b815260206004820152601a60248201527f496e74657266616365206973206e6f7420737570706f727465640000000000006044820152606401610b87565b5050565b600054610100900460ff166147155760405162461bcd60e51b8152600401610b8790615561565b6001600160a01b03811661475d5760405162461bcd60e51b815260206004820152600f60248201526e2d32b9379031b7b73a3937b63632b960891b6044820152606401610b87565b614787817f4c2403fdcb3cff9b705d96bf0705858e3390412670a62c8bcba611ca7e20ab86614694565b60006001600160a01b0316816001600160a01b0316635aa6e6756040518163ffffffff1660e01b8152600401602060405180830381865afa1580156147d0573d6000803e3d6000fd5b505050506040513d601f19601f820116820180604052508101906147f49190615298565b6001600160a01b03160361483c5760405162461bcd60e51b815260206004820152600f60248201526e5a65726f20676f7665726e616e636560881b6044820152606401610b87565b61486b816111fa60017f5165972ef41194f06c5007493031d0b927c20741adcb74403b954009fd2c36186152b5565b61489a426111fa60017f6f55f470bdc9cb5f04223fd822021061668e4dccb43e8727b295106dc9769c8b6152b5565b6148c9436111fa60017f812a673dfca07956350df10f8a654925f561d7a0da09bdbe79e653939a14d9f16152b5565b604080516001600160a01b038316815242602082015243918101919091527f1a2dd071001ebf6e03174e3df5b305795a4ad5d41d8fdb9ba41dbbe236713426906060016116cb565b604051636eb1769f60e11b81523060048201526001600160a01b03828116602483015283919085169063dd62ed3e90604401602060405180830381865afa158015614960573d6000803e3d6000fd5b505050506040513d601f19601f8201168201806040525081019061498491906151f7565b10156126795761499f6001600160a01b038416826000614b70565b6126796001600160a01b03841682600160ff1b614b70565b606082471015614a185760405162461bcd60e51b815260206004820152602660248201527f416464726573733a20696e73756666696369656e742062616c616e636520666f6044820152651c8818d85b1b60d21b6064820152608401610b87565b600080866001600160a01b03168587604051614a349190615ebc565b60006040518083038185875af1925050503d8060008114614a71576040519150601f19603f3d011682016040523d82523d6000602084013e614a76565b606091505b5091509150614a8787838387614c74565b979650505050505050565b60006001600160a01b038316614ad95760405162461bcd60e51b815260206004820152600c60248201526b5a65726f206164647265737360a01b6044820152606401610b87565b823b6000819003614aee5760009150506106f1565b6040516301ffc9a760e01b81526001600160e01b0319841660048201526001600160a01b038516906301ffc9a790602401602060405180830381865afa925050508015614b58575060408051601f3d908101601f19168201909252614b5591810190615544565b60015b15614b665791506106f19050565b5060009392505050565b801580614bea5750604051636eb1769f60e11b81523060048201526001600160a01b03838116602483015284169063dd62ed3e90604401602060405180830381865afa158015614bc4573d6000803e3d6000fd5b505050506040513d601f19601f82011682018060405250810190614be891906151f7565b155b614c555760405162461bcd60e51b815260206004820152603660248201527f5361666545524332303a20617070726f76652066726f6d206e6f6e2d7a65726f60448201527520746f206e6f6e2d7a65726f20616c6c6f77616e636560501b6064820152608401610b87565b6126798363095ea7b360e01b8484604051602401612642929190615269565b60608315614ce3578251600003614cdc576001600160a01b0385163b614cdc5760405162461bcd60e51b815260206004820152601d60248201527f416464726573733a2063616c6c20746f206e6f6e2d636f6e74726163740000006044820152606401610b87565b508161468c565b61468c8383815115614cf85781518083602001fd5b8060405162461bcd60e51b8152600401610b879190614f9d565b600060208284031215614d2457600080fd5b81356001600160e01b031981168114612c6857600080fd5b6001600160a01b038116811461404957600080fd5b60008060408385031215614d6457600080fd5b8235614d6f81614d3c565b946020939093013593505050565b600081518084526020808501945080840160005b83811015614dad57815187529582019590820190600101614d91565b509495945050505050565b6001600160a01b038c811682528b811660208301528a166040820152600289810b606083015288810b608083015287810b60a083015286900b60c08201526001600160801b03851660e082015283151561010082015261012081018390526101606101408201819052600090614e3083820185614d7d565b9e9d5050505050505050505050505050565b60008060408385031215614e5557600080fd5b823591506020830135614e6781614d3c565b809150509250929050565b8060020b811461404957600080fd5b60008060008060008060c08789031215614e9a57600080fd5b8635614ea581614d3c565b95506020870135614eb581614d3c565b94506040870135614ec581614d3c565b93506060870135614ed581614d3c565b92506080870135614ee581614e72565b915060a0870135614ef581614e72565b809150509295509295509295565b600060208284031215614f1557600080fd5b5035919050565b6001600160a01b0391909116815260200190565b600060208284031215614f4257600080fd5b8135612c6881614d3c565b60005b83811015614f68578181015183820152602001614f50565b50506000910152565b60008151808452614f89816020860160208601614f4d565b601f01601f19169290920160200192915050565b602081526000612c686020830184614f71565b634e487b7160e01b600052604160045260246000fd5b604051601f8201601f191681016001600160401b0381118282101715614fee57614fee614fb0565b604052919050565b60006001600160401b0382111561500f5761500f614fb0565b5060051b60200190565b600082601f83011261502a57600080fd5b8135602061503f61503a83614ff6565b614fc6565b82815260059290921b8401810191818101908684111561505e57600080fd5b8286015b848110156150795780358352918301918301615062565b509695505050505050565b6000806040838503121561509757600080fd5b82356001600160401b03808211156150ae57600080fd5b818501915085601f8301126150c257600080fd5b813560206150d261503a83614ff6565b82815260059290921b840181019181810190898411156150f157600080fd5b948201945b8386101561511857853561510981614d3c565b825294820194908201906150f6565b9650508601359250508082111561512e57600080fd5b5061513b85828601615019565b9150509250929050565b801515811461404957600080fd5b6000806040838503121561516657600080fd5b823591506020830135614e6781615145565b6000806000806060858703121561518e57600080fd5b843593506020850135925060408501356001600160401b03808211156151b357600080fd5b818701915087601f8301126151c757600080fd5b8135818111156151d657600080fd5b8860208285010111156151e857600080fd5b95989497505060200194505050565b60006020828403121561520957600080fd5b5051919050565b634e487b7160e01b600052601160045260246000fd5b808201808211156106f1576106f1615210565b6001600160a01b039586168152602081019490945260408401929092526060830152909116608082015260a00190565b6001600160a01b03929092168252602082015260400190565b634e487b7160e01b600052603260045260246000fd5b6000602082840312156152aa57600080fd5b8151612c6881614d3c565b818103818111156106f1576106f1615210565b600082601f8301126152d957600080fd5b815160206152e961503a83614ff6565b82815260059290921b8401810191818101908684111561530857600080fd5b8286015b84811015615079578051835291830191830161530c565b6000806040838503121561533657600080fd5b82516001600160401b0381111561534c57600080fd5b615358858286016152c8565b9250506020830151614e6781615145565b80516001600160801b038116811461538057600080fd5b919050565b60008060006060848603121561539a57600080fd5b83516153a581614e72565b60208501519093506153b681614e72565b91506153c460408501615369565b90509250925092565b600080600080608085870312156153e357600080fd5b505082516020840151604085015160609095015191969095509092509050565b82815260406020820152600061468c6040830184614d7d565b600081518084526020808501945080840160005b83811015614dad5781516001600160a01b031687529582019590820190600101615430565b60006101408c835280602084015261546f8184018d61541c565b604084018c90526001600160a01b038b81166060860152848203608086015290915061549b828b614d7d565b98811660a08501529690961660c08301525060e0810193909352610100830191909152610120909101525095945050505050565b600080604083850312156154e257600080fd5b82516001600160401b03808211156154f957600080fd5b615505868387016152c8565b9350602085015191508082111561551b57600080fd5b5061513b858286016152c8565b6000600160ff1b820161553d5761553d615210565b5060000390565b60006020828403121561555657600080fd5b8151612c6881615145565b6020808252602b908201527f496e697469616c697a61626c653a20636f6e7472616374206973206e6f74206960408201526a6e697469616c697a696e6760a81b606082015260800190565b60008060008060008060c087890312156155c557600080fd5b86516155d081614e72565b60208801519096506155e181614e72565b60408801519095506155f281614e72565b606088015190945061560381614d3c565b608088015190935061561481614d3c565b60a0880151909250614ef581615145565b60a08152600061563860a083018861541c565b828103602084015261564a8188614d7d565b604084019690965250506001600160a01b0392909216606083015260809091015292915050565b6001600160a01b038616815260a0602082018190526000906156959083018761541c565b82810360408401526156a7818761541c565b905082810360608401526156bb8186614d7d565b9150508260808301529695505050505050565b600080604083850312156156e157600080fd5b82516001600160401b03808211156156f857600080fd5b818501915085601f83011261570c57600080fd5b8151602061571c61503a83614ff6565b82815260059290921b8401810191818101908984111561573b57600080fd5b948201945b8386101561576257855161575381614d3c565b82529482019490820190615740565b9188015191965090935050508082111561551b57600080fd5b6001600160a01b038581168252841660208201526080604082018190526000906157a79083018561541c565b8281036060840152614a878185614d7d565b80820281158282048414176106f1576106f1615210565b6000826157ed57634e487b7160e01b600052601260045260246000fd5b500490565b602081526000612c686020830184614d7d565b60018060a01b03871681528560020b60208201528460020b604082015260c06060820152600061583860c0830186614d7d565b6001600160801b039490941660808301525090151560a090910152949350505050565b60008060006060848603121561587057600080fd5b83516001600160401b0381111561588657600080fd5b615892868287016152c8565b935050602084015191506153c460408501615369565b6001600160a01b03999099168952600297880b60208a015295870b604089015293860b60608801529190940b60808601526001600160801b0393841660a0860152831660c085015290911660e083015215156101008201526101200190565b60008060006060848603121561591c57600080fd5b83516001600160401b0381111561593257600080fd5b61593e868287016152c8565b9350506153b660208501615369565b6040815260006159606040830185614d7d565b82810360208401526159728185614d7d565b95945050505050565b818103600083128015838313168383128216171561339957613399615210565b888152602081018890526001600160a01b038781166040830152610100606083018190526000916159ce8483018a61541c565b60808501989098529590951660a08301525060c081019290925260e09091015250949350505050565b60008060408385031215615a0a57600080fd5b8251915060208301516001600160401b03811115615a2757600080fd5b61513b858286016152c8565b6000610140808352615a478184018e614d7d565b90508b60208401528a60408401528960608401528281036080840152615a6d818a614d7d565b905082810360a0840152615a81818961541c565b60c084018890526001600160a01b03871660e085015261010084018690528381036101208501529050615ab48185614d7d565b9d9c50505050505050505050505050565b60a081526000615ad860a083018861541c565b602083018790526001600160a01b03861660408401528281036060840152615b008186614d7d565b90508281036080840152615b148185614d7d565b98975050505050505050565b60008060408385031215615b3357600080fd5b82516001600160401b03811115615b4957600080fd5b615b55858286016152c8565b925050602083015190509250929050565b600060208284031215615b7857600080fd5b81516001600160401b03811115615b8e57600080fd5b61468c848285016152c8565b8481526001600160a01b03841660208201526080604082018190526000906157a79083018561541c565b6001600160a01b0389811682526020820189905261010060408301819052600091615bf18483018b61541c565b91508089166060850152508660808401528560a084015282810360c0840152615c1a818661541c565b905082810360e0840152615c2e8185614d7d565b9b9a5050505050505050505050565b600080600060608486031215615c5257600080fd5b83516001600160401b0380821115615c6957600080fd5b615c75878388016152c8565b94506020860151915080821115615c8b57600080fd5b615c97878388016152c8565b93506040860151915080821115615cad57600080fd5b50615cba868287016152c8565b9150509250925092565b60a0808252865190820181905260009060209060c0840190828a01845b82811015615d065781516001600160a01b031684529284019290840190600101615ce1565b50505083810382850152615d1a8189614d7d565b9150508281036040840152615d2f8187614d7d565b90508281036060840152615b008186614d7d565b604081526000615d56604083018561541c565b90508260208301529392505050565b60008060408385031215615d7857600080fd5b505080516020909101519092909150565b600060208284031215615d9b57600080fd5b81516001600160401b0380821115615db257600080fd5b818401915084601f830112615dc657600080fd5b815181811115615dd857615dd8614fb0565b615deb601f8201601f1916602001614fc6565b9150808252856020828501011115615e0257600080fd5b615e13816020840160208601614f4d565b50949350505050565b600060018060a01b03808916835260c06020840152615e3e60c0840189614f71565b9681166040840152949094166060820152608081019290925260a0909101525092915050565b6001600160a01b038781168252861660208201526040810185905260c060608201819052600090615e979083018661541c565b84608084015282810360a0840152615eaf8185614d7d565b9998505050505050505050565b60008251615ece818460208701614f4d565b919091019291505056fea264697066735822122054ed940d34f247d1ee0d85530a3627f2de9043999072f2e419b04e0d0fe39eff64736f6c63430008110033",
  "libraries": {
    "StrategyLib": "0x01AA10927D49d082d0ff1875D6a6228108178bb0",
    "ConverterStrategyBaseLib": "0x2115ac07646ae50171EA3E74722Ae90a3A4d6857",
    "ConverterStrategyBaseLib2": "0xFeAe15C99631186844bb7E843E28508FF9492dD3",
    "UniswapV3ConverterStrategyLogicLib": "0x607822BceF6435F6af937085D250dFBEBC6147F5"
  },
  "devdoc": {
    "author": "a17",
    "kind": "dev",
    "methods": {
      "claim()": {
        "details": "Manual claim rewards."
      },
      "created()": {
        "returns": {
          "_0": "Creation timestamp"
        }
      },
      "createdBlock()": {
        "returns": {
          "_0": "Creation block number"
        }
      },
      "emergencyExit()": {
        "details": "In case of any issue operator can withdraw all from pool."
      },
      "increaseRevision(address)": {
        "details": "Revision should be increased on each contract upgrade"
      },
      "init(address,address,address,address,int24,int24)": {
        "params": {
          "controller_": "The address of the controller.",
          "converter_": "The address of the converter.",
          "pool_": "The address of the pool.",
          "rebalanceTickRange_": "The tick range for rebalancing.",
          "splitter_": "The address of the splitter.",
          "tickRange_": "The tick range for the liquidity position."
        }
      },
      "investAll(uint256,bool)": {
        "params": {
          "amount_": "Amount transferred to the strategy balance just before calling this function",
          "updateTotalAssetsBeforeInvest_": "Recalculate total assets amount before depositing.                                       It can be false if we know exactly, that the amount is already actual."
        },
        "returns": {
          "totalAssetsDelta": "The {strategy} can update its totalAssets amount internally before depositing {amount_}                          Return [totalAssets-before-deposit - totalAssets-before-call-of-investAll]"
        }
      },
      "isController(address)": {
        "details": "Return true if given address is controller"
      },
      "isReadyToHardWork()": {
        "returns": {
          "_0": "A boolean indicating if the strategy is ready for hard work."
        }
      },
      "needRebalance()": {
        "returns": {
          "_0": "A boolean indicating if the strategy needs rebalancing."
        }
      },
      "onTransferAmounts(address[],uint256[])": {
        "params": {
          "amounts_": "Amount of {asset_} that has been sent to the user's balance",
          "assets_": "Any asset sent to the balance, i.e. inside repayTheBorrow"
        }
      },
      "previousImplementation()": {
        "details": "Previous logic implementation"
      },
      "rebalance()": {
        "details": "The rebalancing functionality is the core of this strategy.      Depending on the size of the range of liquidity provided, the Fill-up or Swap method is used.      There is also an attempt to cover rebalancing losses with rewards."
      },
      "requirePayAmountBack(address,uint256)": {
        "params": {
          "amount_": "Required amount of the {theAsset_}",
          "theAsset_": "Required asset (either collateral or borrow)"
        },
        "returns": {
          "amountOut": "Amount sent to balance of TetuConverter, amountOut <= amount_"
        }
      },
      "revision()": {
        "details": "Contract upgrade counter"
      },
      "setCompoundRatio(uint256)": {
        "details": "PlatformVoter can change compound ratio for some strategies.      A strategy can implement another logic for some uniq cases."
      },
      "setFuseThreshold(uint256)": {
        "params": {
          "newFuseThreshold": "The new fuse threshold value."
        }
      },
      "setReinvestThresholdPercent(uint256)": {
        "params": {
          "percent_": "New value of the percent, decimals = {REINVEST_THRESHOLD_PERCENT_DENOMINATOR}"
        }
      },
      "supportsInterface(bytes4)": {
        "details": "See {IERC165-supportsInterface}."
      },
      "totalAssets()": {
        "details": "Total amount of underlying assets under control of this strategy."
      },
      "uniswapV3MintCallback(uint256,uint256,bytes)": {
        "params": {
          "amount0Owed": "The amount of token0 owed to the pool.",
          "amount1Owed": "The amount of token1 owed to the pool."
        }
      },
      "withdrawAllToSplitter()": {
        "details": "Withdraws all underlying assets to the vault",
        "returns": {
          "_0": "Return [totalAssets-before-withdraw - totalAssets-before-call-of-withdrawAllToSplitter]"
        }
      },
      "withdrawToSplitter(uint256)": {
        "details": "Withdraws some assets to the splitter",
        "returns": {
          "totalAssetsDelta": "=[totalAssets-before-withdraw - totalAssets-before-call-of-withdrawAllToSplitter]"
        }
      }
    },
    "title": "Delta-neutral liquidity hedging converter fill-up/swap rebalancing strategy for UniswapV3",
    "version": 1
  },
  "userdoc": {
    "events": {
      "LiquidationThresholdChanged(address,uint256)": {
        "notice": "Events"
      },
      "Recycle(address[],uint256[],uint256[],uint256[],uint256[])": {
        "notice": "Recycle was made"
      },
      "UpdateBaseAmounts(address,int256)": {
        "notice": "{baseAmounts} of {asset} is changed on the {amount} value"
      }
    },
    "kind": "user",
    "methods": {
      "CONTROLLABLE_VERSION()": {
        "notice": "Version of the contract"
      },
      "NAME()": {
        "notice": "CONSTANTS"
      },
      "baseAmounts(address)": {
        "notice": "Balances of not-reward amounts"
      },
      "capacity()": {
        "notice": "Unlimited capacity by default"
      },
      "controller()": {
        "notice": "Return controller address saved in the contract slot"
      },
      "created()": {
        "notice": "Return creation timestamp"
      },
      "createdBlock()": {
        "notice": "Return creation block number"
      },
      "disableFuse()": {
        "notice": "Disable fuse for the strategy."
      },
      "doHardWork()": {
        "notice": "Do hard work"
      },
      "getState()": {
        "notice": "Returns the current state of the contract."
      },
      "init(address,address,address,address,int24,int24)": {
        "notice": "Initialize the strategy with the given parameters."
      },
      "investAll(uint256,bool)": {
        "notice": "Stakes everything the strategy holds into the reward pool."
      },
      "investedAssets()": {
        "notice": "Amount of underlying assets converted to pool assets and invested to the pool."
      },
      "isGovernance(address)": {
        "notice": "Return true if given address is setup as governance in Controller"
      },
      "isReadyToHardWork()": {
        "notice": "Check if the strategy is ready for hard work."
      },
      "liquidationThresholds(address)": {
        "notice": "Minimum token amounts that can be liquidated"
      },
      "needRebalance()": {
        "notice": "Check if the strategy needs rebalancing."
      },
      "onTransferAmounts(address[],uint256[])": {
        "notice": "TetuConverter calls this function when it sends any amount to user's balance"
      },
      "performanceFee()": {
        "notice": "A percent of total profit that is sent to the {performanceReceiver} before compounding"
      },
      "performanceReceiver()": {
        "notice": "{performanceFee}% of total profit is sent to {performanceReceiver} before compounding"
      },
      "reinvestThresholdPercent()": {
        "notice": "Percent of asset amount that can be not invested, it's allowed to just keep it on balance         decimals = {REINVEST_THRESHOLD_PERCENT_DENOMINATOR}"
      },
      "requirePayAmountBack(address,uint256)": {
        "notice": "Converters asks to send some amount back."
      },
      "setFuseThreshold(uint256)": {
        "notice": "Set the fuse threshold for the strategy."
      },
      "setupPerformanceFee(uint256,address)": {
        "notice": "Set performance fee and receiver"
      },
      "uniswapV3MintCallback(uint256,uint256,bytes)": {
        "notice": "Callback function called by Uniswap V3 pool on mint operation."
      }
    },
    "notice": "This strategy provides delta-neutral liquidity hedging for Uniswap V3 pools. It rebalances the liquidity         by utilizing fill-up and swap methods depending on the range size of the liquidity provided.         It also attempts to cover rebalancing losses with rewards.",
    "version": 1
  },
  "storageLayout": {
    "storage": [
      {
        "astId": 10716,
        "contract": "contracts/strategies/uniswap/UniswapV3ConverterStrategy.sol:UniswapV3ConverterStrategy",
        "label": "_initialized",
        "offset": 0,
        "slot": "0",
        "type": "t_uint8"
      },
      {
        "astId": 10719,
        "contract": "contracts/strategies/uniswap/UniswapV3ConverterStrategy.sol:UniswapV3ConverterStrategy",
        "label": "_initializing",
        "offset": 1,
        "slot": "0",
        "type": "t_bool"
      },
      {
        "astId": 68141,
        "contract": "contracts/strategies/uniswap/UniswapV3ConverterStrategy.sol:UniswapV3ConverterStrategy",
        "label": "state",
        "offset": 0,
        "slot": "1",
        "type": "t_struct(State)64604_storage"
      },
      {
        "astId": 68703,
        "contract": "contracts/strategies/uniswap/UniswapV3ConverterStrategy.sol:UniswapV3ConverterStrategy",
        "label": "__gap",
        "offset": 0,
        "slot": "12",
        "type": "t_array(t_uint256)49_storage"
      },
      {
        "astId": 15608,
        "contract": "contracts/strategies/uniswap/UniswapV3ConverterStrategy.sol:UniswapV3ConverterStrategy",
        "label": "asset",
        "offset": 0,
        "slot": "61",
        "type": "t_address"
      },
      {
        "astId": 15612,
        "contract": "contracts/strategies/uniswap/UniswapV3ConverterStrategy.sol:UniswapV3ConverterStrategy",
        "label": "splitter",
        "offset": 0,
        "slot": "62",
        "type": "t_address"
      },
      {
        "astId": 15616,
        "contract": "contracts/strategies/uniswap/UniswapV3ConverterStrategy.sol:UniswapV3ConverterStrategy",
        "label": "compoundRatio",
        "offset": 0,
        "slot": "63",
        "type": "t_uint256"
      },
      {
        "astId": 15621,
        "contract": "contracts/strategies/uniswap/UniswapV3ConverterStrategy.sol:UniswapV3ConverterStrategy",
        "label": "baseAmounts",
        "offset": 0,
        "slot": "64",
        "type": "t_mapping(t_address,t_uint256)"
      },
      {
        "astId": 15625,
        "contract": "contracts/strategies/uniswap/UniswapV3ConverterStrategy.sol:UniswapV3ConverterStrategy",
        "label": "performanceReceiver",
        "offset": 0,
        "slot": "65",
        "type": "t_address"
      },
      {
        "astId": 15629,
        "contract": "contracts/strategies/uniswap/UniswapV3ConverterStrategy.sol:UniswapV3ConverterStrategy",
        "label": "performanceFee",
        "offset": 0,
        "slot": "66",
        "type": "t_uint256"
      },
      {
        "astId": 54915,
        "contract": "contracts/strategies/uniswap/UniswapV3ConverterStrategy.sol:UniswapV3ConverterStrategy",
        "label": "_investedAssets",
        "offset": 0,
        "slot": "67",
        "type": "t_uint256"
      },
      {
        "astId": 54919,
        "contract": "contracts/strategies/uniswap/UniswapV3ConverterStrategy.sol:UniswapV3ConverterStrategy",
        "label": "converter",
        "offset": 0,
        "slot": "68",
        "type": "t_contract(ITetuConverter)39735"
      },
      {
        "astId": 54924,
        "contract": "contracts/strategies/uniswap/UniswapV3ConverterStrategy.sol:UniswapV3ConverterStrategy",
        "label": "liquidationThresholds",
        "offset": 0,
        "slot": "69",
        "type": "t_mapping(t_address,t_uint256)"
      },
      {
        "astId": 54927,
        "contract": "contracts/strategies/uniswap/UniswapV3ConverterStrategy.sol:UniswapV3ConverterStrategy",
        "label": "reinvestThresholdPercent",
        "offset": 0,
        "slot": "70",
        "type": "t_uint256"
      },
      {
        "astId": 56557,
        "contract": "contracts/strategies/uniswap/UniswapV3ConverterStrategy.sol:UniswapV3ConverterStrategy",
        "label": "__gap",
        "offset": 0,
        "slot": "71",
        "type": "t_array(t_uint256)46_storage"
      }
    ],
    "types": {
      "t_address": {
        "encoding": "inplace",
        "label": "address",
        "numberOfBytes": "20"
      },
      "t_array(t_uint256)46_storage": {
        "base": "t_uint256",
        "encoding": "inplace",
        "label": "uint256[46]",
        "numberOfBytes": "1472"
      },
      "t_array(t_uint256)49_storage": {
        "base": "t_uint256",
        "encoding": "inplace",
        "label": "uint256[49]",
        "numberOfBytes": "1568"
      },
      "t_bool": {
        "encoding": "inplace",
        "label": "bool",
        "numberOfBytes": "1"
      },
      "t_contract(ITetuConverter)39735": {
        "encoding": "inplace",
        "label": "contract ITetuConverter",
        "numberOfBytes": "20"
      },
      "t_contract(IUniswapV3Pool)52927": {
        "encoding": "inplace",
        "label": "contract IUniswapV3Pool",
        "numberOfBytes": "20"
      },
      "t_int24": {
        "encoding": "inplace",
        "label": "int24",
        "numberOfBytes": "3"
      },
      "t_mapping(t_address,t_uint256)": {
        "encoding": "mapping",
        "key": "t_address",
        "label": "mapping(address => uint256)",
        "numberOfBytes": "32",
        "value": "t_uint256"
      },
      "t_struct(State)64604_storage": {
        "encoding": "inplace",
        "label": "struct UniswapV3ConverterStrategyLogicLib.State",
        "members": [
          {
            "astId": 64564,
            "contract": "contracts/strategies/uniswap/UniswapV3ConverterStrategy.sol:UniswapV3ConverterStrategy",
            "label": "tokenA",
            "offset": 0,
            "slot": "0",
            "type": "t_address"
          },
          {
            "astId": 64566,
            "contract": "contracts/strategies/uniswap/UniswapV3ConverterStrategy.sol:UniswapV3ConverterStrategy",
            "label": "tokenB",
            "offset": 0,
            "slot": "1",
            "type": "t_address"
          },
          {
            "astId": 64569,
            "contract": "contracts/strategies/uniswap/UniswapV3ConverterStrategy.sol:UniswapV3ConverterStrategy",
            "label": "pool",
            "offset": 0,
            "slot": "2",
            "type": "t_contract(IUniswapV3Pool)52927"
          },
          {
            "astId": 64571,
            "contract": "contracts/strategies/uniswap/UniswapV3ConverterStrategy.sol:UniswapV3ConverterStrategy",
            "label": "tickSpacing",
            "offset": 20,
            "slot": "2",
            "type": "t_int24"
          },
          {
            "astId": 64573,
            "contract": "contracts/strategies/uniswap/UniswapV3ConverterStrategy.sol:UniswapV3ConverterStrategy",
            "label": "fillUp",
            "offset": 23,
            "slot": "2",
            "type": "t_bool"
          },
          {
            "astId": 64575,
            "contract": "contracts/strategies/uniswap/UniswapV3ConverterStrategy.sol:UniswapV3ConverterStrategy",
            "label": "isStablePool",
            "offset": 24,
            "slot": "2",
            "type": "t_bool"
          },
          {
            "astId": 64577,
            "contract": "contracts/strategies/uniswap/UniswapV3ConverterStrategy.sol:UniswapV3ConverterStrategy",
            "label": "lowerTick",
            "offset": 25,
            "slot": "2",
            "type": "t_int24"
          },
          {
            "astId": 64579,
            "contract": "contracts/strategies/uniswap/UniswapV3ConverterStrategy.sol:UniswapV3ConverterStrategy",
            "label": "upperTick",
            "offset": 28,
            "slot": "2",
            "type": "t_int24"
          },
          {
            "astId": 64581,
            "contract": "contracts/strategies/uniswap/UniswapV3ConverterStrategy.sol:UniswapV3ConverterStrategy",
            "label": "lowerTickFillup",
            "offset": 0,
            "slot": "3",
            "type": "t_int24"
          },
          {
            "astId": 64583,
            "contract": "contracts/strategies/uniswap/UniswapV3ConverterStrategy.sol:UniswapV3ConverterStrategy",
            "label": "upperTickFillup",
            "offset": 3,
            "slot": "3",
            "type": "t_int24"
          },
          {
            "astId": 64585,
            "contract": "contracts/strategies/uniswap/UniswapV3ConverterStrategy.sol:UniswapV3ConverterStrategy",
            "label": "rebalanceTickRange",
            "offset": 6,
            "slot": "3",
            "type": "t_int24"
          },
          {
            "astId": 64587,
            "contract": "contracts/strategies/uniswap/UniswapV3ConverterStrategy.sol:UniswapV3ConverterStrategy",
            "label": "depositorSwapTokens",
            "offset": 9,
            "slot": "3",
            "type": "t_bool"
          },
          {
            "astId": 64589,
            "contract": "contracts/strategies/uniswap/UniswapV3ConverterStrategy.sol:UniswapV3ConverterStrategy",
            "label": "totalLiquidity",
            "offset": 10,
            "slot": "3",
            "type": "t_uint128"
          },
          {
            "astId": 64591,
            "contract": "contracts/strategies/uniswap/UniswapV3ConverterStrategy.sol:UniswapV3ConverterStrategy",
            "label": "totalLiquidityFillup",
            "offset": 0,
            "slot": "4",
            "type": "t_uint128"
          },
          {
            "astId": 64593,
            "contract": "contracts/strategies/uniswap/UniswapV3ConverterStrategy.sol:UniswapV3ConverterStrategy",
            "label": "rebalanceEarned0",
            "offset": 0,
            "slot": "5",
            "type": "t_uint256"
          },
          {
            "astId": 64595,
            "contract": "contracts/strategies/uniswap/UniswapV3ConverterStrategy.sol:UniswapV3ConverterStrategy",
            "label": "rebalanceEarned1",
            "offset": 0,
            "slot": "6",
            "type": "t_uint256"
          },
          {
            "astId": 64597,
            "contract": "contracts/strategies/uniswap/UniswapV3ConverterStrategy.sol:UniswapV3ConverterStrategy",
            "label": "rebalanceLost",
            "offset": 0,
            "slot": "7",
            "type": "t_uint256"
          },
          {
            "astId": 64599,
            "contract": "contracts/strategies/uniswap/UniswapV3ConverterStrategy.sol:UniswapV3ConverterStrategy",
            "label": "isFuseTriggered",
            "offset": 0,
            "slot": "8",
            "type": "t_bool"
          },
          {
            "astId": 64601,
            "contract": "contracts/strategies/uniswap/UniswapV3ConverterStrategy.sol:UniswapV3ConverterStrategy",
            "label": "fuseThreshold",
            "offset": 0,
            "slot": "9",
            "type": "t_uint256"
          },
          {
            "astId": 64603,
            "contract": "contracts/strategies/uniswap/UniswapV3ConverterStrategy.sol:UniswapV3ConverterStrategy",
            "label": "lastPrice",
            "offset": 0,
            "slot": "10",
            "type": "t_uint256"
          }
        ],
        "numberOfBytes": "352"
      },
      "t_uint128": {
        "encoding": "inplace",
        "label": "uint128",
        "numberOfBytes": "16"
      },
      "t_uint256": {
        "encoding": "inplace",
        "label": "uint256",
        "numberOfBytes": "32"
      },
      "t_uint8": {
        "encoding": "inplace",
        "label": "uint8",
        "numberOfBytes": "1"
      }
    }
  }
}