{
  "address": "0x0F0693C8E92FF4Cb0eD14306050dA589943cB1Bb",
  "abi": [
    {
      "anonymous": false,
      "inputs": [],
      "name": "DisableFuse",
      "type": "event"
    },
    {
      "anonymous": false,
      "inputs": [],
      "name": "FuseTriggered",
      "type": "event"
    },
    {
      "anonymous": false,
      "inputs": [
        {
          "indexed": false,
          "internalType": "uint256",
          "name": "newFuseThreshold",
          "type": "uint256"
        }
      ],
      "name": "NewFuseThreshold",
      "type": "event"
    },
    {
      "anonymous": false,
      "inputs": [],
      "name": "Rebalanced",
      "type": "event"
    },
    {
      "inputs": [],
      "name": "DEFAULT_FUSE_THRESHOLD",
      "outputs": [
        {
          "internalType": "uint256",
          "name": "",
          "type": "uint256"
        }
      ],
      "stateMutability": "view",
      "type": "function"
    },
    {
      "inputs": [
        {
          "internalType": "contract IUniswapV3Pool",
          "name": "pool",
          "type": "IUniswapV3Pool"
        },
        {
          "internalType": "int24",
          "name": "tickRange_",
          "type": "int24"
        },
        {
          "internalType": "int24",
          "name": "rebalanceTickRange_",
          "type": "int24"
        },
        {
          "internalType": "address",
          "name": "asset_",
          "type": "address"
        }
      ],
      "name": "calcInitialDepositorValues",
      "outputs": [
        {
          "internalType": "int24",
          "name": "tickSpacing",
          "type": "int24"
        },
        {
          "internalType": "int24",
          "name": "lowerTick",
          "type": "int24"
        },
        {
          "internalType": "int24",
          "name": "upperTick",
          "type": "int24"
        },
        {
          "internalType": "address",
          "name": "tokenA",
          "type": "address"
        },
        {
          "internalType": "address",
          "name": "tokenB",
          "type": "address"
        },
        {
          "internalType": "bool",
          "name": "_depositorSwapTokens",
          "type": "bool"
        }
      ],
      "stateMutability": "view",
      "type": "function"
    },
    {
      "inputs": [
        {
          "internalType": "contract IUniswapV3Pool",
          "name": "pool",
          "type": "IUniswapV3Pool"
        },
        {
          "internalType": "int24",
          "name": "lowerTick",
          "type": "int24"
        },
        {
          "internalType": "int24",
          "name": "upperTick",
          "type": "int24"
        },
        {
          "internalType": "int24",
          "name": "tickSpacing",
          "type": "int24"
        },
        {
          "internalType": "bool",
          "name": "depositorSwapTokens",
          "type": "bool"
        }
      ],
      "name": "getEntryData",
      "outputs": [
        {
          "internalType": "bytes",
          "name": "entryData",
          "type": "bytes"
        }
      ],
      "stateMutability": "view",
      "type": "function"
    },
    {
      "inputs": [
        {
          "internalType": "contract ITetuConverter",
          "name": "converter",
          "type": "ITetuConverter"
        },
        {
          "internalType": "address",
          "name": "tokenA",
          "type": "address"
        },
        {
          "internalType": "address",
          "name": "tokenB",
          "type": "address"
        }
      ],
      "name": "getOracleAssetsPrice",
      "outputs": [
        {
          "internalType": "uint256",
          "name": "",
          "type": "uint256"
        }
      ],
      "stateMutability": "view",
      "type": "function"
    },
    {
      "inputs": [
        {
          "internalType": "contract IUniswapV3Pool",
          "name": "pool",
          "type": "IUniswapV3Pool"
        }
      ],
      "name": "isStablePool",
      "outputs": [
        {
          "internalType": "bool",
          "name": "",
          "type": "bool"
        }
      ],
      "stateMutability": "view",
      "type": "function"
    },
    {
      "inputs": [
        {
          "internalType": "bool",
          "name": "isFuseTriggered",
          "type": "bool"
        },
        {
          "internalType": "contract IUniswapV3Pool",
          "name": "pool",
          "type": "IUniswapV3Pool"
        },
        {
          "internalType": "int24",
          "name": "lowerTick",
          "type": "int24"
        },
        {
          "internalType": "int24",
          "name": "upperTick",
          "type": "int24"
        },
        {
          "internalType": "int24",
          "name": "tickSpacing",
          "type": "int24"
        },
        {
          "internalType": "int24",
          "name": "rebalanceTickRange",
          "type": "int24"
        }
      ],
      "name": "needRebalance",
      "outputs": [
        {
          "internalType": "bool",
          "name": "",
          "type": "bool"
        }
      ],
      "stateMutability": "view",
      "type": "function"
    },
    {
      "inputs": [
        {
          "internalType": "contract IUniswapV3Pool",
          "name": "pool",
          "type": "IUniswapV3Pool"
        },
        {
          "internalType": "int24",
          "name": "lowerTick",
          "type": "int24"
        },
        {
          "internalType": "int24",
          "name": "upperTick",
          "type": "int24"
        },
        {
          "internalType": "int24",
          "name": "lowerTickFillup",
          "type": "int24"
        },
        {
          "internalType": "int24",
          "name": "upperTickFillup",
          "type": "int24"
        },
        {
          "internalType": "uint128",
          "name": "liquidity",
          "type": "uint128"
        },
        {
          "internalType": "uint128",
          "name": "liquidityFillup",
          "type": "uint128"
        },
        {
          "internalType": "uint128",
          "name": "liquidityAmountToExit",
          "type": "uint128"
        },
        {
          "internalType": "bool",
          "name": "_depositorSwapTokens",
          "type": "bool"
        }
      ],
      "name": "quoteExit",
      "outputs": [
        {
          "internalType": "uint256[]",
          "name": "amountsOut",
          "type": "uint256[]"
        }
      ],
      "stateMutability": "view",
      "type": "function"
    }
  ],
  "transactionHash": "0xd02b9a82481918d1d2f109f8f2c8ea127e535cb9d56ebbc294fe9c07a61be68b",
  "args": [],
  "numDeployments": 3,
  "solcInputHash": "73ee6c07758b6f7906178ce0cc087c46",
  "bytecode": "0x6154e261003a600b82828239805160001a60731461002d57634e487b7160e01b600052600060045260246000fd5b30600052607381538281f3fe73000000000000000000000000000000000000000030146080604052600436106101415760003560e01c80635ca1bcdf116100c2578063b24d8db011610086578063b24d8db01461037a578063c68bc703146103a8578063ce74e5d9146103bb578063d4ca283a146103c9578063e3bca2d8146103eb578063f460770b1461040b57600080fd5b80635ca1bcdf146102c35780637fd6c0a1146102d657806380089367146102e95780638c64d45514610318578063915a3eb41461034757600080fd5b806333fdd81d1161010957806333fdd81d1461022b578063345aec361461025a57806345e113c01461026d57806354747e5b1461028d57806357d59aae146102b057600080fd5b806305d40894146101465780630a65e5e7146101a2578063190fa314146101c2578063232421d9146101ea578063302c45501461020b575b600080fd5b6101596101543660046146dd565b610420565b60408051600297880b815295870b60208701529390950b928401929092526001600160a01b03908116606084015216608082015290151560a082015260c0015b60405180910390f35b6101b56101b0366004614739565b610a13565b604051610199919061478d565b6101d56101d0366004614739565b610e2b565b60408051928352602083019190915201610199565b6101fd6101f8366004614739565b610f0f565b604051908152602001610199565b61021e6102193660046147c5565b61108e565b604051610199919061487c565b81801561023757600080fd5b5061024b6102463660046148af565b61132d565b6040516101999392919061496b565b6101d5610268366004614739565b61173e565b81801561027957600080fd5b506101b561028836600461499e565b611906565b6102a061029b366004614a35565b611cc0565b6040519015158152602001610199565b6102a06102be366004614a52565b611d33565b6102a06102d1366004614ad4565b611e5e565b6101fd6102e4366004614b04565b6120ce565b8180156102f557600080fd5b50610309610304366004614b65565b61229e565b60405161019993929190614c7d565b81801561032457600080fd5b50610338610333366004614caf565b61254a565b60405161019993929190614d1d565b61035a610355366004614d43565b612ac1565b604080519485526020850193909352918301526060820152608001610199565b81801561038657600080fd5b5061039a610395366004614d65565b612bdb565b604051610199929190614dad565b6101b56103b63660046148af565b61317d565b6101fd6611c37937e0800081565b8180156103d557600080fd5b506103e96103e4366004614dd1565b613464565b005b8180156103f757600080fd5b506103e9610406366004614739565b6136c7565b81801561041757600080fd5b506103e96136fd565b60008060008060008073AA7423AB76D0D826840b0801D480A5a929292fCE63ea8668158b6001600160a01b031663ddca3f436040518163ffffffff1660e01b8152600401602060405180830381865afa158015610481573d6000803e3d6000fd5b505050506040513d601f19601f820116820180604052508101906104a59190614df8565b6040516001600160e01b031960e084901b16815262ffffff9091166004820152602401602060405180830381865af41580156104e5573d6000803e3d6000fd5b505050506040513d601f19601f820116820180604052508101906105099190614e1d565b955060008a6001600160a01b0316633850c7bd6040518163ffffffff1660e01b815260040160e060405180830381865afa15801561054b573d6000803e3d6000fd5b505050506040513d601f19601f8201168201806040525081019061056f9190614e5d565b50505050509150508960020b6000036105aa578661058d8183614f18565b6105979190614f52565b95506105a38787614f79565b94506106bc565b866105b5818c614f18565b6105bf9190614f52565b60020b8a60020b1461060e5760405162461bcd60e51b8152602060048201526013602482015272496e636f7272656374207469636b52616e676560681b60448201526064015b60405180910390fd5b86610619818b614f18565b6106239190614f52565b60020b8960020b146106775760405162461bcd60e51b815260206004820152601c60248201527f496e636f727265637420726562616c616e63655469636b52616e6765000000006044820152606401610605565b86806106838c84614f9e565b61068d9190614f18565b6106979190614f52565b955086806106a58c84614f79565b6106af9190614f18565b6106b99190614f52565b94505b8a6001600160a01b0316630dfe16816040518163ffffffff1660e01b8152600401602060405180830381865afa1580156106fa573d6000803e3d6000fd5b505050506040513d601f19601f8201168201806040525081019061071e9190614fc3565b6001600160a01b0316886001600160a01b031614806107af57508a6001600160a01b031663d21220a76040518163ffffffff1660e01b8152600401602060405180830381865afa158015610776573d6000803e3d6000fd5b505050506040513d601f19601f8201168201806040525081019061079a9190614fc3565b6001600160a01b0316886001600160a01b0316145b6107ed5760405162461bcd60e51b815260206004820152600f60248201526e125b98dbdc9c9958dd08185cdcd95d608a1b6044820152606401610605565b8a6001600160a01b0316630dfe16816040518163ffffffff1660e01b8152600401602060405180830381865afa15801561082b573d6000803e3d6000fd5b505050506040513d601f19601f8201168201806040525081019061084f9190614fc3565b6001600160a01b0316886001600160a01b031603610938578a6001600160a01b0316630dfe16816040518163ffffffff1660e01b8152600401602060405180830381865afa1580156108a5573d6000803e3d6000fd5b505050506040513d601f19601f820116820180604052508101906108c99190614fc3565b93508a6001600160a01b031663d21220a76040518163ffffffff1660e01b8152600401602060405180830381865afa158015610909573d6000803e3d6000fd5b505050506040513d601f19601f8201168201806040525081019061092d9190614fc3565b925060009150610a05565b8a6001600160a01b031663d21220a76040518163ffffffff1660e01b8152600401602060405180830381865afa158015610976573d6000803e3d6000fd5b505050506040513d601f19601f8201168201806040525081019061099a9190614fc3565b93508a6001600160a01b0316630dfe16816040518163ffffffff1660e01b8152600401602060405180830381865afa1580156109da573d6000803e3d6000fd5b505050506040513d601f19601f820116820180604052508101906109fe9190614fc3565b9250600191505b509499939850945094509450565b604080516002808252606080830184529260208301908036833701905050905060008260020160009054906101000a90046001600160a01b03166001600160a01b0316633850c7bd6040518163ffffffff1660e01b815260040160e060405180830381865afa158015610a8a573d6000803e3d6000fd5b505050506040513d601f19601f82011682018060405250810190610aae9190614e5d565b505050506002868101546003880154604051630544f36560e31b815295965073AA7423AB76D0D826840b0801D480A5a929292fCE95632a279b289550610b1e94508793600160c81b8404810b93600160e01b9004900b91600160501b90046001600160801b031690600401614fe0565b6040805180830381865af4158015610b3a573d6000803e3d6000fd5b505050506040513d601f19601f82011682018060405250810190610b5e9190615013565b83600081518110610b7157610b71615037565b6020026020010184600181518110610b8b57610b8b615037565b6020908102919091010191909152526003830154600480850154604051630544f36560e31b8152600093849373AA7423AB76D0D826840b0801D480A5a929292fCE93632a279b2893610bfc938993600282810b946301000000909304900b926001600160801b039092169101614fe0565b6040805180830381865af4158015610c18573d6000803e3d6000fd5b505050506040513d601f19601f82011682018060405250810190610c3c9190615013565b91509150600080610c4c8761173e565b91509150610cd18760020160009054906101000a90046001600160a01b03166001600160a01b0316630dfe16816040518163ffffffff1660e01b8152600401602060405180830381865afa158015610ca8573d6000803e3d6000fd5b505050506040513d601f19601f82011682018060405250810190610ccc9190614fc3565b613728565b610cdb838661504d565b610ce5919061504d565b86600081518110610cf857610cf8615037565b60200260200101818151610d0c919061504d565b90525060028701546040805163d21220a760e01b81529051610d5c926001600160a01b03169163d21220a79160048083019260209291908290030181865afa158015610ca8573d6000803e3d6000fd5b610d66828561504d565b610d70919061504d565b86600181518110610d8357610d83615037565b60200260200101818151610d97919061504d565b9052506003870154600160481b900460ff1615610e215785600181518110610dc157610dc1615037565b602002602001015186600081518110610ddc57610ddc615037565b602002602001015187600081518110610df757610df7615037565b6020026020010188600181518110610e1157610e11615037565b6020908102919091010191909152525b5050505050919050565b600381015481546000918291600160481b90910460ff1690610e55906001600160a01b0316613728565b6001850154909350610e6f906001600160a01b0316613728565b9150600081610e82578460050154610e88565b84600601545b9050600082610e9b578560060154610ea1565b85600501545b9050818510158015610eb35750808410155b610eef5760405162461bcd60e51b815260206004820152600d60248201526c57726f6e672062616c616e636560981b6044820152606401610605565b610ef98286615060565b9450610f058185615060565b9350505050915091565b60018101546000906001600160a01b03168180610f2b8561173e565b91509150846005015482610f3f919061504d565b9150846006015481610f51919061504d565b6003860154909150600160481b900460ff1615610f6a57905b6000836001600160a01b031663313ce5676040518163ffffffff1660e01b8152600401602060405180830381865afa158015610faa573d6000803e3d6000fd5b505050506040513d601f19601f82011682018060405250810190610fce9190615073565b610fd990600a615172565b6002870154604051635620c32d60e11b8152849173AA7423AB76D0D826840b0801D480A5a929292fCE9163ac41865a91611023916001600160a01b03909116908a90600401615181565b602060405180830381865af4158015611040573d6000803e3d6000fd5b505050506040513d601f19601f82011682018060405250810190611064919061519b565b61106e91906151b4565b61107891906151cb565b9050611084818461504d565b9695505050505050565b60606000866001600160a01b031663d21220a76040518163ffffffff1660e01b8152600401602060405180830381865afa1580156110d0573d6000803e3d6000fd5b505050506040513d601f19601f820116820180604052508101906110f49190614fc3565b9050600073AA7423AB76D0D826840b0801D480A5a929292fCE63ac41865a89846040518363ffffffff1660e01b8152600401611131929190615181565b602060405180830381865af415801561114e573d6000803e3d6000fd5b505050506040513d601f19601f82011682018060405250810190611172919061519b565b905061118088888888613793565b80975081985050506000826001600160a01b031663313ce5676040518163ffffffff1660e01b8152600401602060405180830381865afa1580156111c8573d6000803e3d6000fd5b505050506040513d601f19601f820116820180604052508101906111ec9190615073565b60ff1690508160006111ff83600a6151df565b905060008073AA7423AB76D0D826840b0801D480A5a929292fCE6317c22c3c8e8e8e88886040518663ffffffff1660e01b81526004016112439594939291906151eb565b606060405180830381865af4158015611260573d6000803e3d6000fd5b505050506040513d601f19601f82011682018060405250810190611284919061521f565b509150915088156112d75760018361129c88846151b4565b6112a691906151cb565b6040805160ff909316602084015282015260608101839052608001604051602081830303815290604052975061131d565b600182846112e589856151b4565b6112ef91906151cb565b6040805160ff9094166020850152830191909152606082015260800160405160208183030381529060405297505b5050505050505095945050505050565b60408051600280825260608281019093526000918291816020016020820280368337505060405163a34123a760e01b8152919450506001600160a01b038d169063a34123a790611385908e908e908a90600401614d1d565b60408051808303816000875af11580156113a3573d6000803e3d6000fd5b505050506040513d601f19601f820116820180604052508101906113c79190615013565b846000815181106113da576113da615037565b60200260200101856001815181106113f4576113f4615037565b6020908102919091010191909152526040516309e3d67b60e31b81526001600160a01b038d1690634f1eb3d89061143e9030908f908f906001600160801b0390819060040161524d565b60408051808303816000875af115801561145c573d6000803e3d6000fd5b505050506040513d601f19601f82011682018060405250810190611480919061528a565b50506001600160801b038616156116565760008761149e87896152b9565b6114a891906152e4565b90506000808e6001600160a01b031663a34123a78d8d866040518463ffffffff1660e01b81526004016114dd93929190614d1d565b60408051808303816000875af11580156114fb573d6000803e3d6000fd5b505050506040513d601f19601f8201168201806040525081019061151f9190615013565b915091508e6001600160a01b0316634f1eb3d8308e8e6001600160801b03806040518663ffffffff1660e01b815260040161155e95949392919061524d565b60408051808303816000875af115801561157c573d6000803e3d6000fd5b505050506040513d601f19601f820116820180604052508101906115a0919061528a565b505081866000815181106115b6576115b6615037565b602002602001018181516115ca919061504d565b90525085518190879060019081106115e4576115e4615037565b602002602001018181516115f8919061504d565b9052506001600160801b03808416908a1610156116465760405162461bcd60e51b815260206004820152600c60248201526b057726f6e672066696c6c75760a41b6044820152606401610605565b611650838a61530a565b93505050505b846001600160801b0316876001600160801b031610156116aa5760405162461bcd60e51b815260206004820152600f60248201526e57726f6e67206c697175696469747960881b6044820152606401610605565b6116b4858861530a565b9150831561172f57826001815181106116cf576116cf615037565b6020026020010151836000815181106116ea576116ea615037565b60200260200101518460008151811061170557611705615037565b602002602001018560018151811061171f5761171f615037565b6020908102919091010191909152525b99509950999650505050505050565b6040805160a0810182526002838101546001600160a01b0381168352600160c81b8104820b6020840152600160e01b9004900b818301526003830154600160501b90046001600160801b0316606082015230608082015290516352bb7e6960e01b8152600091829173AA7423AB76D0D826840b0801D480A5a929292fCE906352bb7e69906117d090849060040161532a565b6040805180830381865af41580156117ec573d6000803e3d6000fd5b505050506040513d601f19601f820116820180604052508101906118109190615013565b6040805160a0810182526002808901546001600160a01b03168252600389015480820b602084015263010000009004900b818301526004808901546001600160801b0316606083015230608083015291516352bb7e6960e01b81529396509194509091600091829173AA7423AB76D0D826840b0801D480A5a929292fCE916352bb7e69916118a09187910161532a565b6040805180830381865af41580156118bc573d6000803e3d6000fd5b505050506040513d601f19601f820116820180604052508101906118e09190615013565b90925090506118ef828761504d565b95506118fb818661504d565b945050505050915091565b6040805160028082526060808301845292602083019080368337505060405163a34123a760e01b8152919250506001600160a01b038a169063a34123a790611957908b908b90600090600401614d1d565b60408051808303816000875af1158015611975573d6000803e3d6000fd5b505050506040513d601f19601f820116820180604052508101906119999190615013565b50506040516309e3d67b60e31b81526001600160a01b038a1690634f1eb3d8906119d69030908c908c906001600160801b0390819060040161524d565b60408051808303816000875af11580156119f4573d6000803e3d6000fd5b505050506040513d601f19601f82011682018060405250810190611a18919061528a565b816001600160801b03169150806001600160801b0316905082600081518110611a4357611a43615037565b6020026020010183600181518110611a5d57611a5d615037565b60200260200101828152508281525050508460020b8660020b14611be25760405163a34123a760e01b81526001600160a01b038a169063a34123a790611aac9089908990600090600401614d1d565b60408051808303816000875af1158015611aca573d6000803e3d6000fd5b505050506040513d601f19601f82011682018060405250810190611aee9190615013565b50506000808a6001600160a01b0316634f1eb3d8308a8a6001600160801b03806040518663ffffffff1660e01b8152600401611b2e95949392919061524d565b60408051808303816000875af1158015611b4c573d6000803e3d6000fd5b505050506040513d601f19601f82011682018060405250810190611b70919061528a565b6001600160801b031691506001600160801b031691508183600081518110611b9a57611b9a615037565b60200260200101818151611bae919061504d565b9052508251819084906001908110611bc857611bc8615037565b60200260200101818151611bdc919061504d565b90525050505b8381600081518110611bf657611bf6615037565b60200260200101818151611c0a919061504d565b9052508051839082906001908110611c2457611c24615037565b60200260200101818151611c38919061504d565b9052508115611cb45780600181518110611c5457611c54615037565b602002602001015181600081518110611c6f57611c6f615037565b602002602001015182600081518110611c8a57611c8a615037565b6020026020010183600181518110611ca457611ca4615037565b6020908102919091010191909152525b98975050505050505050565b6000816001600160a01b031663ddca3f436040518163ffffffff1660e01b8152600401602060405180830381865afa158015611d00573d6000803e3d6000fd5b505050506040513d601f19601f82011682018060405250810190611d249190614df8565b62ffffff166064149050919050565b60008615611d4357506000611084565b6000866001600160a01b0316633850c7bd6040518163ffffffff1660e01b815260040160e060405180830381865afa158015611d83573d6000803e3d6000fd5b505050506040513d601f19601f82011682018060405250810190611da79190614e5d565b50505050509150508360020b8686611dbf9190614f9e565b60020b03611de9578560020b8160020b1280611de157508460020b8160020b12155b915050611084565b60006002611df78888614f9e565b611e019190614f18565b90506000611e0f8289614f79565b90508060020b8360020b1315611e3d57600285900b611e2e8285614f9e565b60020b12159350505050611084565b600285900b611e4c8483614f9e565b60020b139a9950505050505050505050565b6000806000611e6c8561173e565b91509150846005015482611e80919061504d565b9150846006015481611e92919061504d565b6003860154909150600160481b900460ff1615611eab57905b845460018601546040805163f77c479160e01b815290516001600160a01b0393841693928316926000929089169163f77c4791916004808201926020929091908290030181865afa158015611f04573d6000803e3d6000fd5b505050506040513d601f19601f82011682018060405250810190611f289190614fc3565b6001600160a01b0316632630c12f6040518163ffffffff1660e01b8152600401602060405180830381865afa158015611f65573d6000803e3d6000fd5b505050506040513d601f19601f82011682018060405250810190611f899190614fc3565b60405163b3596f0760e01b81526001600160a01b03858116600483015291925060009183169063b3596f0790602401602060405180830381865afa158015611fd5573d6000803e3d6000fd5b505050506040513d601f19601f82011682018060405250810190611ff9919061519b565b60405163b3596f0760e01b81526001600160a01b03858116600483015291925060009184169063b3596f0790602401602060405180830381865afa158015612045573d6000803e3d6000fd5b505050506040513d601f19601f82011682018060405250810190612069919061519b565b90506000670de0b6b3a7640000612080848a6151b4565b61208a91906151cb565b90506000670de0b6b3a76400006120a1848a6151b4565b6120ab91906151cb565b905060648211806120bc5750606481115b99505050505050505050505b92915050565b600080846001600160a01b031663f77c47916040518163ffffffff1660e01b8152600401602060405180830381865afa15801561210f573d6000803e3d6000fd5b505050506040513d601f19601f820116820180604052508101906121339190614fc3565b6001600160a01b0316632630c12f6040518163ffffffff1660e01b8152600401602060405180830381865afa158015612170573d6000803e3d6000fd5b505050506040513d601f19601f820116820180604052508101906121949190614fc3565b60405163b3596f0760e01b81526001600160a01b03868116600483015291925060009183169063b3596f0790602401602060405180830381865afa1580156121e0573d6000803e3d6000fd5b505050506040513d601f19601f82011682018060405250810190612204919061519b565b60405163b3596f0760e01b81526001600160a01b03868116600483015291925060009184169063b3596f0790602401602060405180830381865afa158015612250573d6000803e3d6000fd5b505050506040513d601f19601f82011682018060405250810190612274919061519b565b90508161228982670de0b6b3a76400006151b4565b61229391906151cb565b979650505050505050565b60408051600280825260608281019093526000918291816020016020820280368337019050509250831561233f57856001815181106122df576122df615037565b6020026020010151866000815181106122fa576122fa615037565b60200260200101518760008151811061231557612315615037565b602002602001018860018151811061232f5761232f615037565b6020908102919091010191909152525b600073AA7423AB76D0D826840b0801D480A5a929292fCE6317c22c3c8b8b8b8b60008151811061237157612371615037565b60200260200101518c60018151811061238c5761238c615037565b60200260200101516040518663ffffffff1660e01b81526004016123b49594939291906151eb565b606060405180830381865af41580156123d1573d6000803e3d6000fd5b505050506040513d601f19601f820116820180604052508101906123f5919061521f565b8660008151811061240857612408615037565b602002602001018760018151811061242257612422615037565b6020908102919091010192909252919052604051633c8a7d8d60e01b81529091506001600160a01b038b1690633c8a7d8d906124689030908d908d90879060040161537f565b60408051808303816000875af1158015612486573d6000803e3d6000fd5b505050506040513d601f19601f820116820180604052508101906124aa9190615013565b50506001600160801b03811692506124c281876153c1565b9150841561253d57836001815181106124dd576124dd615037565b6020026020010151846000815181106124f8576124f8615037565b60200260200101518560008151811061251357612513615037565b602002602001018660018151811061252d5761252d615037565b6020908102919091010191909152525b5096509650969350505050565b6000806000806125918a6001600160a01b0316630dfe16816040518163ffffffff1660e01b8152600401602060405180830381865afa158015610ca8573d6000803e3d6000fd5b905060006125d68b6001600160a01b031663d21220a76040518163ffffffff1660e01b8152600401602060405180830381865afa158015610ca8573d6000803e3d6000fd5b90508682101580156125e85750858110155b6126205760405162461bcd60e51b815260206004820152600960248201526857726f6e672066656560b81b6044820152606401610605565b61262a8783615060565b91506126368682615060565b905060008b6001600160a01b0316633850c7bd6040518163ffffffff1660e01b815260040160e060405180830381865afa158015612678573d6000803e3d6000fd5b505050506040513d601f19601f8201168201806040525081019061269c9190614e5d565b50505050509150508b6001600160a01b031663d21220a76040518163ffffffff1660e01b8152600401602060405180830381865afa1580156126e2573d6000803e3d6000fd5b505050506040513d601f19601f820116820180604052508101906127069190614fc3565b6001600160a01b031663313ce5676040518163ffffffff1660e01b8152600401602060405180830381865afa158015612743573d6000803e3d6000fd5b505050506040513d601f19601f820116820180604052508101906127679190615073565b61277290600a615172565b73AA7423AB76D0D826840b0801D480A5a929292fCE63ac41865a8e8f6001600160a01b031663d21220a76040518163ffffffff1660e01b8152600401602060405180830381865afa1580156127cb573d6000803e3d6000fd5b505050506040513d601f19601f820116820180604052508101906127ef9190614fc3565b6040518363ffffffff1660e01b815260040161280c929190615181565b602060405180830381865af4158015612829573d6000803e3d6000fd5b505050506040513d601f19601f8201168201806040525081019061284d919061519b565b61285790846151b4565b61286191906151cb565b83111561298f5788806128748184614f18565b61287e9190614f52565b6128889190614f79565b6040516305f08b0f60e21b81529096508a955073AA7423AB76D0D826840b0801D480A5a929292fCE906317c22c3c906128ce908f908a908a9089906000906004016151eb565b606060405180830381865af41580156128eb573d6000803e3d6000fd5b505050506040513d601f19601f8201168201806040525081019061290f919061521f565b604051633c8a7d8d60e01b81529096506001600160a01b038f169250633c8a7d8d91506129469030908a908a908a9060040161537f565b60408051808303816000875af1158015612964573d6000803e3d6000fd5b505050506040513d601f19601f820116820180604052508101906129889190615013565b5050612ab2565b8a9550888061299e8184614f18565b6129a89190614f52565b6129b29190614f9e565b6040516305f08b0f60e21b815290955073AA7423AB76D0D826840b0801D480A5a929292fCE906317c22c3c906129f5908f908a908a9060009089906004016151eb565b606060405180830381865af4158015612a12573d6000803e3d6000fd5b505050506040513d601f19601f82011682018060405250810190612a36919061521f565b604051633c8a7d8d60e01b81529096506001600160a01b038f169250633c8a7d8d9150612a6d9030908a908a908a9060040161537f565b60408051808303816000875af1158015612a8b573d6000803e3d6000fd5b505050506040513d601f19601f82011682018060405250810190612aaf9190615013565b50505b50505096509650969350505050565b8154600183015460038401546001600160a01b039283166000818152602086905260408082205495909416808252938120549094859485948594939192600160481b90910460ff16918583612b1a578b60050154612b20565b8b600601545b612b2987613728565b612b339190615060565b9050600084612b46578c60060154612b4c565b8c600501545b612b5587613728565b612b5f9190615060565b9050818411612b7757612b728483615060565b612b7a565b60005b9a50818411612b8a576000612b94565b612b948285615060565b9950808311612bac57612ba78382615060565b612baf565b60005b9850808311612bbf576000612bc9565b612bc98184615060565b97505050505050505092959194509250565b60408051600080825261028082018352600280880154600160e01b8104820b60208501818152600160c81b8304840b968601879052600160a01b8304840b606087018190526001600160a01b03808516608089018190528d54821660a08a015260018e015490911660c0890152600a8d015460e089015260098d015461010089015260038d015460ff600160481b8204811615156101208b015260058f01546101408b015260068f01546101608b01526101808a018990526101a08a018990526101c08a018990526101e08a018990526102008a01899052600160b81b8704811615156102208b0152600160c01b909604861615156102408a0152610260890188905260088e0154989997989397612d0b979490961695919491939192916601000000000000909104900b611d33565b612d4f5760405162461bcd60e51b8152602060048201526015602482015274139bc81c9958985b185b98da5b99c81b9959591959605a1b6044820152606401610605565b612d628682608001518360a001516120ce565b6102408201526102208101518015612d8d5750612d8d8160c001518261024001518360e001516138ac565b15612e395760088701805460ff191660011790556040517fb224dccea3c30282a142bed3cedb7af1657907dea7dc2828fb9ce06007f3159490600090a1612e028686836060015184608001518560a00151866101000151876101200151886101400151612dfd8a606001516138db565b6138fa565b6101208101516101608201526101408101516101808201526020810151600290810b6101c08301528151900b6101e082015261314a565b80610220015115612e5057610240810151600a8801555b73Ce925ef6275Cd8eDB59b439dEc9C276F45F1f5406332e8d30f8787846060015185608001518660a00151876102000151886101000151612e9657886101200151612e9d565b8861014001515b896101000151612eb257896101400151612eb9565b8961012001515b612edb8b606001518c602001518d600001518e604001518f610100015161108e565b612ee88c606001516138db565b6040518b63ffffffff1660e01b8152600401612f0d9a999897969594939291906153e1565b60006040518083038186803b158015612f2557600080fd5b505af4158015612f39573d6000803e3d6000fd5b50505050612fc36040518060e0016040528083606001516001600160a01b0316815260200183608001516001600160a01b031681526020018360a001516001600160a01b03168152602001836101000151151581526020018361012001518152602001836101400151815260200186815250612fbe8884608001518560a00151613939565b6139bf565b6101a084018190526101808401829052610160840183905260058a019290925560068901551561300c57806101a00151876007016000828254613006919061504d565b90915550505b6130288160600151826020015183600001518460400151613793565b600281810b6101e085015282810b6101c0850152898101805465ffffffffffff60c81b1916600160c81b62ffffff9586160262ffffff60e01b191617600160e01b9490931693909302919091179091556040805182815260608101825291906020830190803683370190505092508061010001516130ab578061016001516130b2565b8061018001515b6130bf8260800151613728565b6130c99190615060565b836000815181106130dc576130dc615037565b6020026020010181815250508061010001516130fd57806101800151613104565b8061016001515b6131118260a00151613728565b61311b9190615060565b8360018151811061312e5761312e615037565b6020026020010181815250508061020001511561314a57600191505b6040517fc741dbaad15a4f298fe8d80943fa8e005e7bcb2f5b0a0c8dec1fc35be457f14690600090a15094509492505050565b604080516002808252606080830184529260208301908036833701905050905060008a6001600160a01b0316633850c7bd6040518163ffffffff1660e01b815260040160e060405180830381865afa1580156131dd573d6000803e3d6000fd5b505050506040513d601f19601f820116820180604052508101906132019190614e5d565b5050604051630544f36560e31b815294955073AA7423AB76D0D826840b0801D480A5a929292fCE94632a279b28945061324793508692508f91508e908a90600401614fe0565b6040805180830381865af4158015613263573d6000803e3d6000fd5b505050506040513d601f19601f820116820180604052508101906132879190615013565b8360008151811061329a5761329a615037565b60200260200101846001815181106132b4576132b4615037565b6020908102919091010191909152526001600160801b038616158015906132e457506000856001600160801b0316115b156133dd5760008073AA7423AB76D0D826840b0801D480A5a929292fCE632a279b28848c8c8c6133148c8e6152b9565b61331e91906152e4565b6040518563ffffffff1660e01b815260040161333d9493929190614fe0565b6040805180830381865af4158015613359573d6000803e3d6000fd5b505050506040513d601f19601f8201168201806040525081019061337d9190615013565b91509150818460008151811061339557613395615037565b602002602001018181516133a9919061504d565b90525083518190859060019081106133c3576133c3615037565b602002602001018181516133d7919061504d565b90525050505b821561345657816001815181106133f6576133f6615037565b60200260200101518260008151811061341157613411615037565b60200260200101518360008151811061342c5761342c615037565b602002602001018460018151811061344657613446615037565b6020908102919091010191909152525b509998505050505050505050565b6000826001600160a01b0316634046ebae6040518163ffffffff1660e01b8152600401602060405180830381865afa1580156134a4573d6000803e3d6000fd5b505050506040513d601f19601f820116820180604052508101906134c89190614fc3565b845460405163095ea7b360e01b81526001600160a01b038084166004830152600019602483015292935091169063095ea7b3906044016020604051808303816000875af115801561351d573d6000803e3d6000fd5b505050506040513d601f19601f820116820180604052508101906135419190615456565b50600184015460405163095ea7b360e01b81526001600160a01b03838116600483015260001960248301529091169063095ea7b3906044016020604051808303816000875af1158015613598573d6000803e3d6000fd5b505050506040513d601f19601f820116820180604052508101906135bc9190615456565b506002808501546135d891600160a01b909104900b6004614f52565b60028581015491810b916135fe91600160c81b8204810b91600160e01b9004900b614f9e565b6002868101805460ff60b81b1981169390920b9390931215600160b81b02918217909255613639916001600160a01b03908116911617611cc0565b156136c15760028401805460ff60c01b1916600160c01b1790556611c37937e08000600985018190556040517fdf3e0a21768880619b1295cb9519494a0df71943ebb4ff056f72186cfcfb6d47916136949190815260200190565b60405180910390a1835460018501546136bb9184916001600160a01b0391821691166120ce565b600a8501555b50505050565b6040518181527fdf3e0a21768880619b1295cb9519494a0df71943ebb4ff056f72186cfcfb6d479060200160405180910390a150565b6040517f6b7ccec41cff3829e74e9b70bba25fca03418511799dd79dc80d774f15f35e1b90600090a1565b6040516370a0823160e01b81523060048201526000906001600160a01b038316906370a0823190602401602060405180830381865afa15801561376f573d6000803e3d6000fd5b505050506040513d601f19601f820116820180604052508101906120c8919061519b565b6000806000866001600160a01b0316633850c7bd6040518163ffffffff1660e01b815260040160e060405180830381865afa1580156137d6573d6000803e3d6000fd5b505050506040513d601f19601f820116820180604052508101906137fa9190614e5d565b50505050509150508360020b86866138129190614f9e565b60020b0361384257836138258183614f18565b61382f9190614f52565b925061383b8484614f79565b91506138a2565b600060026138508888614f9e565b61385a9190614f18565b905084806138688385614f9e565b6138729190614f18565b61387c9190614f52565b9350848061388a8385614f79565b6138949190614f18565b61389e9190614f52565b9250505b5094509492505050565b60008284116138c657816138c08585615060565b116138d3565b816138d18486615060565b115b949350505050565b60006138e682611cc0565b6138f2576101f46120c8565b606492915050565b6000846139075783613909565b825b9050600085613918578361391a565b845b905061392c8b8b8b8b8b87878a613e3c565b5050505050505050505050565b604051632424c79760e11b81523060048201526001600160a01b0383811660248301528281166044830152600091908516906348498f2e9060640160408051808303816000875af1158015613992573d6000803e3d6000fd5b505050506040513d601f19601f820116820180604052508101906139b69190615013565b95945050505050565b608082015160a0830151606084015160009081906139dd57836139df565b825b9050600086606001516139f257836139f4565b845b9050600082613a068960200151613728565b613a10908961504d565b613a1a9190615060565b90508760c00151811015613e32576000818960c00151613a3a9190615060565b9050838111613a6f57886060015115613a5e57613a578187615060565b9550613e30565b613a688188615060565b9650613e30565b886060015115613a825760009550613a87565b600096505b60008315613e215789604001516001600160a01b031663313ce5676040518163ffffffff1660e01b8152600401602060405180830381865afa158015613ad1573d6000803e3d6000fd5b505050506040513d601f19601f82011682018060405250810190613af59190615073565b613b0090600a615172565b8a516040808d01519051635620c32d60e11b8152879273AA7423AB76D0D826840b0801D480A5a929292fCE9263ac41865a92613b40929190600401615181565b602060405180830381865af4158015613b5d573d6000803e3d6000fd5b505050506040513d601f19601f82011682018060405250810190613b81919061519b565b613b8b91906151b4565b613b9591906151cb565b905081613ba2828761504d565b1115613dee57896060015115613cd05789602001516001600160a01b031663313ce5676040518163ffffffff1660e01b8152600401602060405180830381865afa158015613bf4573d6000803e3d6000fd5b505050506040513d601f19601f82011682018060405250810190613c189190615073565b613c2390600a615172565b8a5160208c0151604051635620c32d60e11b815273AA7423AB76D0D826840b0801D480A5a929292fCE9263ac41865a92613c5f92600401615181565b602060405180830381865af4158015613c7c573d6000803e3d6000fd5b505050506040513d601f19601f82011682018060405250810190613ca0919061519b565b83613cab848961504d565b613cb59190615060565b613cbf91906151b4565b613cc991906151cb565b9750613e2e565b89602001516001600160a01b031663313ce5676040518163ffffffff1660e01b8152600401602060405180830381865afa158015613d12573d6000803e3d6000fd5b505050506040513d601f19601f82011682018060405250810190613d369190615073565b613d4190600a615172565b8a5160208c0151604051635620c32d60e11b815273AA7423AB76D0D826840b0801D480A5a929292fCE9263ac41865a92613d7d92600401615181565b602060405180830381865af4158015613d9a573d6000803e3d6000fd5b505050506040513d601f19601f82011682018060405250810190613dbe919061519b565b83613dc9848961504d565b613dd39190615060565b613ddd91906151b4565b613de791906151cb565b9650613e2e565b80613df98684615060565b613e039190615060565b9550896060015115613e185760009750613e2e565b60009650613e2e565b613e2b8583615060565b95505b505b505b5050509250925092565b6000613e49898787614630565b90506000613e5687613728565b90506000613e6387613728565b9050858210158015613e755750848110155b613eb15760405162461bcd60e51b815260206004820152600d60248201526c57726f6e672062616c616e636560981b6044820152606401610605565b613ebb8683615060565b9150613ec78582615060565b90508281101561449057604051635620c32d60e11b815260009073AA7423AB76D0D826840b0801D480A5a929292fCE9063ac41865a90613f0d908d908c90600401615181565b602060405180830381865af4158015613f2a573d6000803e3d6000fd5b505050506040513d601f19601f82011682018060405250810190613f4e919061519b565b90506000886001600160a01b031663313ce5676040518163ffffffff1660e01b8152600401602060405180830381865afa158015613f90573d6000803e3d6000fd5b505050506040513d601f19601f82011682018060405250810190613fb49190615073565b613fbf90600a615172565b613fc98487615060565b613fd390846151b4565b613fdd91906151cb565b9050613fea6064826151cb565b613ff4908261504d565b9050838110156140e85773d91df94Ada3bA7187eb9637A5B3D82032BF9A8c063e89a4b188d6001600160a01b0316634046ebae6040518163ffffffff1660e01b8152600401602060405180830381865afa158015614056573d6000803e3d6000fd5b505050506040513d601f19601f8201168201806040525081019061407a9190614fc3565b8c8c858b60006040518763ffffffff1660e01b81526004016140a196959493929190615473565b6040805180830381865af41580156140bd573d6000803e3d6000fd5b505050506040513d601f19601f820116820180604052508101906140e19190615013565b505061448d565b73d91df94Ada3bA7187eb9637A5B3D82032BF9A8c063e89a4b188d6001600160a01b0316634046ebae6040518163ffffffff1660e01b8152600401602060405180830381865afa158015614140573d6000803e3d6000fd5b505050506040513d601f19601f820116820180604052508101906141649190614fc3565b8c8c888b60006040518763ffffffff1660e01b815260040161418b96959493929190615473565b6040805180830381865af41580156141a7573d6000803e3d6000fd5b505050506040513d601f19601f820116820180604052508101906141cb9190615013565b505073d91df94Ada3bA7187eb9637A5B3D82032BF9A8c063954d7e738e8c8c8b6141f48f613728565b6141fe9190615060565b6040516001600160e01b031960e087901b1681526001600160a01b03948516600482015292841660248401529216604482015260648101919091526084016040805180830381865af4158015614258573d6000803e3d6000fd5b505050506040513d601f19601f8201168201806040525081019061427c9190615013565b50506142898d8b8b614630565b9450841561448d57604051635620c32d60e11b815273AA7423AB76D0D826840b0801D480A5a929292fCE9063ac41865a906142ca908e908d90600401615181565b602060405180830381865af41580156142e7573d6000803e3d6000fd5b505050506040513d601f19601f8201168201806040525081019061430b919061519b565b9150886001600160a01b031663313ce5676040518163ffffffff1660e01b8152600401602060405180830381865afa15801561434b573d6000803e3d6000fd5b505050506040513d601f19601f8201168201806040525081019061436f9190615073565b61437a90600a615172565b61438486846151b4565b61438e91906151cb565b905061439b6064826151cb565b6143a5908261504d565b905073d91df94Ada3bA7187eb9637A5B3D82032BF9A8c063e89a4b188d6001600160a01b0316634046ebae6040518163ffffffff1660e01b8152600401602060405180830381865afa1580156143ff573d6000803e3d6000fd5b505050506040513d601f19601f820116820180604052508101906144239190614fc3565b8c8c858b60006040518763ffffffff1660e01b815260040161444a96959493929190615473565b6040805180830381865af4158015614466573d6000803e3d6000fd5b505050506040513d601f19601f8201168201806040525081019061448a9190615013565b50505b50505b821561452b5760405163954d7e7360e01b81526001600160a01b03808d166004830152808a166024830152881660448201526064810184905273d91df94Ada3bA7187eb9637A5B3D82032BF9A8c09063954d7e73906084016040805180830381865af4158015614504573d6000803e3d6000fd5b505050506040513d601f19601f820116820180604052508101906145289190615013565b50505b73d91df94Ada3bA7187eb9637A5B3D82032BF9A8c063e89a4b188b6001600160a01b0316634046ebae6040518163ffffffff1660e01b8152600401602060405180830381865afa158015614583573d6000803e3d6000fd5b505050506040513d601f19601f820116820180604052508101906145a79190614fc3565b898b896145b38d613728565b6145bd9190615060565b8960006040518763ffffffff1660e01b81526004016145e196959493929190615473565b6040805180830381865af41580156145fd573d6000803e3d6000fd5b505050506040513d601f19601f820116820180604052508101906146219190615013565b50505050505050505050505050565b604051632424c79760e11b81523060048201526001600160a01b0383811660248301528281166044830152600091908516906348498f2e9060640160408051808303816000875af1158015614689573d6000803e3d6000fd5b505050506040513d601f19601f820116820180604052508101906146ad9190615013565b50949350505050565b6001600160a01b03811681146146cb57600080fd5b50565b8060020b81146146cb57600080fd5b600080600080608085870312156146f357600080fd5b84356146fe816146b6565b9350602085013561470e816146ce565b9250604085013561471e816146ce565b9150606085013561472e816146b6565b939692955090935050565b60006020828403121561474b57600080fd5b5035919050565b600081518084526020808501945080840160005b8381101561478257815187529582019590820190600101614766565b509495945050505050565b6020815260006147a06020830184614752565b9392505050565b80151581146146cb57600080fd5b80356147c0816147a7565b919050565b600080600080600060a086880312156147dd57600080fd5b85356147e8816146b6565b945060208601356147f8816146ce565b93506040860135614808816146ce565b92506060860135614818816146ce565b91506080860135614828816147a7565b809150509295509295909350565b6000815180845260005b8181101561485c57602081850181015186830182015201614840565b506000602082860101526020601f19601f83011685010191505092915050565b6020815260006147a06020830184614836565b6001600160801b03811681146146cb57600080fd5b80356147c08161488f565b60008060008060008060008060006101208a8c0312156148ce57600080fd5b89356148d9816146b6565b985060208a01356148e9816146ce565b975060408a01356148f9816146ce565b965060608a0135614909816146ce565b955060808a0135614919816146ce565b945060a08a01356149298161488f565b935060c08a01356149398161488f565b925060e08a01356149498161488f565b91506101008a013561495a816147a7565b809150509295985092959850929598565b60608152600061497e6060830186614752565b6001600160801b0394851660208401529290931660409091015292915050565b600080600080600080600080610100898b0312156149bb57600080fd5b88356149c6816146b6565b975060208901356149d6816146ce565b965060408901356149e6816146ce565b955060608901356149f6816146ce565b94506080890135614a06816146ce565b935060a0890135925060c0890135915060e0890135614a24816147a7565b809150509295985092959890939650565b600060208284031215614a4757600080fd5b81356147a0816146b6565b60008060008060008060c08789031215614a6b57600080fd5b8635614a76816147a7565b95506020870135614a86816146b6565b94506040870135614a96816146ce565b93506060870135614aa6816146ce565b92506080870135614ab6816146ce565b915060a0870135614ac6816146ce565b809150509295509295509295565b60008060408385031215614ae757600080fd5b823591506020830135614af9816146b6565b809150509250929050565b600080600060608486031215614b1957600080fd5b8335614b24816146b6565b92506020840135614b34816146b6565b91506040840135614b44816146b6565b809150509250925092565b634e487b7160e01b600052604160045260246000fd5b60008060008060008060c08789031215614b7e57600080fd5b8635614b89816146b6565b9550602087810135614b9a816146ce565b95506040880135614baa816146ce565b9450606088013567ffffffffffffffff80821115614bc757600080fd5b818a0191508a601f830112614bdb57600080fd5b813581811115614bed57614bed614b4f565b8060051b604051601f19603f83011681018181108582111715614c1257614c12614b4f565b60405291825284820192508381018501918d831115614c3057600080fd5b938501935b82851015614c4e57843584529385019392850192614c35565b809850505050505050614c63608088016148a4565b9150614c7160a088016147b5565b90509295509295509295565b606081526000614c906060830186614752565b90508360208301526001600160801b0383166040830152949350505050565b60008060008060008060c08789031215614cc857600080fd5b8635614cd3816146b6565b95506020870135614ce3816146ce565b94506040870135614cf3816146ce565b93506060870135614d03816146ce565b9598949750929560808101359460a0909101359350915050565b600293840b81529190920b60208201526001600160801b03909116604082015260600190565b60008060408385031215614d5657600080fd5b50508035926020909101359150565b60008060008060808587031215614d7b57600080fd5b843593506020850135614d8d816146b6565b92506040850135614d9d816146b6565b9396929550929360600135925050565b604081526000614dc06040830185614752565b905082151560208301529392505050565b600080600060608486031215614de657600080fd5b833592506020840135614b34816146b6565b600060208284031215614e0a57600080fd5b815162ffffff811681146147a057600080fd5b600060208284031215614e2f57600080fd5b81516147a0816146ce565b805161ffff811681146147c057600080fd5b805160ff811681146147c057600080fd5b600080600080600080600060e0888a031215614e7857600080fd5b8751614e83816146b6565b6020890151909750614e94816146ce565b9550614ea260408901614e3a565b9450614eb060608901614e3a565b9350614ebe60808901614e3a565b9250614ecc60a08901614e4c565b915060c0880151614edc816147a7565b8091505092959891949750929550565b634e487b7160e01b600052601260045260246000fd5b634e487b7160e01b600052601160045260246000fd5b60008160020b8360020b80614f2f57614f2f614eec565b627fffff19821460001982141615614f4957614f49614f02565b90059392505050565b60008260020b8260020b028060020b9150808214614f7257614f72614f02565b5092915050565b600281810b9083900b01627fffff8113627fffff19821217156120c8576120c8614f02565b600282810b9082900b03627fffff198112627fffff821317156120c8576120c8614f02565b600060208284031215614fd557600080fd5b81516147a0816146b6565b6001600160a01b03949094168452600292830b6020850152910b60408301526001600160801b0316606082015260800190565b6000806040838503121561502657600080fd5b505080516020909101519092909150565b634e487b7160e01b600052603260045260246000fd5b808201808211156120c8576120c8614f02565b818103818111156120c8576120c8614f02565b60006020828403121561508557600080fd5b6147a082614e4c565b600181815b808511156150c95781600019048211156150af576150af614f02565b808516156150bc57918102915b93841c9390800290615093565b509250929050565b6000826150e0575060016120c8565b816150ed575060006120c8565b8160018114615103576002811461510d57615129565b60019150506120c8565b60ff84111561511e5761511e614f02565b50506001821b6120c8565b5060208310610133831016604e8410600b841016171561514c575081810a6120c8565b615156838361508e565b806000190482111561516a5761516a614f02565b029392505050565b60006147a060ff8416836150d1565b6001600160a01b0392831681529116602082015260400190565b6000602082840312156151ad57600080fd5b5051919050565b80820281158282048414176120c8576120c8614f02565b6000826151da576151da614eec565b500490565b60006147a083836150d1565b6001600160a01b03959095168552600293840b60208601529190920b60408401526060830191909152608082015260a00190565b60008060006060848603121561523457600080fd5b83519250602084015191506040840151614b448161488f565b6001600160a01b03959095168552600293840b60208601529190920b60408401526001600160801b03918216606084015216608082015260a00190565b6000806040838503121561529d57600080fd5b82516152a88161488f565b6020840151909250614af98161488f565b6001600160801b038181168382160280821691908281146152dc576152dc614f02565b505092915050565b60006001600160801b03808416806152fe576152fe614eec565b92169190910492915050565b6001600160801b03828116828216039080821115614f7257614f72614f02565b600060a08201905060018060a01b03808451168352602084015160020b6020840152604084015160020b60408401526001600160801b0360608501511660608401528060808501511660808401525092915050565b6001600160a01b03949094168452600292830b6020850152910b60408301526001600160801b0316606082015260a06080820181905260009082015260c00190565b6001600160801b03818116838216019080821115614f7257614f72614f02565b6001600160a01b038b811682528a81166020830152898116604083015288811660608301528716608082015285151560a082015260c0810185905260e08101849052610140610100820181905260009061543d83820186614836565b915050826101208301529b9a5050505050505050505050565b60006020828403121561546857600080fd5b81516147a0816147a7565b6001600160a01b03968716815294861660208601529290941660408401526060830152608082019290925260a081019190915260c0019056fea2646970667358221220eceea77fddeebbfad3205b8c6dcb05e3ea193cfba90dfcbf0f040b207f3601c264736f6c63430008110033",
  "deployedBytecode": "0x73000000000000000000000000000000000000000030146080604052600436106101415760003560e01c80635ca1bcdf116100c2578063b24d8db011610086578063b24d8db01461037a578063c68bc703146103a8578063ce74e5d9146103bb578063d4ca283a146103c9578063e3bca2d8146103eb578063f460770b1461040b57600080fd5b80635ca1bcdf146102c35780637fd6c0a1146102d657806380089367146102e95780638c64d45514610318578063915a3eb41461034757600080fd5b806333fdd81d1161010957806333fdd81d1461022b578063345aec361461025a57806345e113c01461026d57806354747e5b1461028d57806357d59aae146102b057600080fd5b806305d40894146101465780630a65e5e7146101a2578063190fa314146101c2578063232421d9146101ea578063302c45501461020b575b600080fd5b6101596101543660046146dd565b610420565b60408051600297880b815295870b60208701529390950b928401929092526001600160a01b03908116606084015216608082015290151560a082015260c0015b60405180910390f35b6101b56101b0366004614739565b610a13565b604051610199919061478d565b6101d56101d0366004614739565b610e2b565b60408051928352602083019190915201610199565b6101fd6101f8366004614739565b610f0f565b604051908152602001610199565b61021e6102193660046147c5565b61108e565b604051610199919061487c565b81801561023757600080fd5b5061024b6102463660046148af565b61132d565b6040516101999392919061496b565b6101d5610268366004614739565b61173e565b81801561027957600080fd5b506101b561028836600461499e565b611906565b6102a061029b366004614a35565b611cc0565b6040519015158152602001610199565b6102a06102be366004614a52565b611d33565b6102a06102d1366004614ad4565b611e5e565b6101fd6102e4366004614b04565b6120ce565b8180156102f557600080fd5b50610309610304366004614b65565b61229e565b60405161019993929190614c7d565b81801561032457600080fd5b50610338610333366004614caf565b61254a565b60405161019993929190614d1d565b61035a610355366004614d43565b612ac1565b604080519485526020850193909352918301526060820152608001610199565b81801561038657600080fd5b5061039a610395366004614d65565b612bdb565b604051610199929190614dad565b6101b56103b63660046148af565b61317d565b6101fd6611c37937e0800081565b8180156103d557600080fd5b506103e96103e4366004614dd1565b613464565b005b8180156103f757600080fd5b506103e9610406366004614739565b6136c7565b81801561041757600080fd5b506103e96136fd565b60008060008060008073__$0c70757f598a889e7e5bdfcf0bf5e1f3f7$__63ea8668158b6001600160a01b031663ddca3f436040518163ffffffff1660e01b8152600401602060405180830381865afa158015610481573d6000803e3d6000fd5b505050506040513d601f19601f820116820180604052508101906104a59190614df8565b6040516001600160e01b031960e084901b16815262ffffff9091166004820152602401602060405180830381865af41580156104e5573d6000803e3d6000fd5b505050506040513d601f19601f820116820180604052508101906105099190614e1d565b955060008a6001600160a01b0316633850c7bd6040518163ffffffff1660e01b815260040160e060405180830381865afa15801561054b573d6000803e3d6000fd5b505050506040513d601f19601f8201168201806040525081019061056f9190614e5d565b50505050509150508960020b6000036105aa578661058d8183614f18565b6105979190614f52565b95506105a38787614f79565b94506106bc565b866105b5818c614f18565b6105bf9190614f52565b60020b8a60020b1461060e5760405162461bcd60e51b8152602060048201526013602482015272496e636f7272656374207469636b52616e676560681b60448201526064015b60405180910390fd5b86610619818b614f18565b6106239190614f52565b60020b8960020b146106775760405162461bcd60e51b815260206004820152601c60248201527f496e636f727265637420726562616c616e63655469636b52616e6765000000006044820152606401610605565b86806106838c84614f9e565b61068d9190614f18565b6106979190614f52565b955086806106a58c84614f79565b6106af9190614f18565b6106b99190614f52565b94505b8a6001600160a01b0316630dfe16816040518163ffffffff1660e01b8152600401602060405180830381865afa1580156106fa573d6000803e3d6000fd5b505050506040513d601f19601f8201168201806040525081019061071e9190614fc3565b6001600160a01b0316886001600160a01b031614806107af57508a6001600160a01b031663d21220a76040518163ffffffff1660e01b8152600401602060405180830381865afa158015610776573d6000803e3d6000fd5b505050506040513d601f19601f8201168201806040525081019061079a9190614fc3565b6001600160a01b0316886001600160a01b0316145b6107ed5760405162461bcd60e51b815260206004820152600f60248201526e125b98dbdc9c9958dd08185cdcd95d608a1b6044820152606401610605565b8a6001600160a01b0316630dfe16816040518163ffffffff1660e01b8152600401602060405180830381865afa15801561082b573d6000803e3d6000fd5b505050506040513d601f19601f8201168201806040525081019061084f9190614fc3565b6001600160a01b0316886001600160a01b031603610938578a6001600160a01b0316630dfe16816040518163ffffffff1660e01b8152600401602060405180830381865afa1580156108a5573d6000803e3d6000fd5b505050506040513d601f19601f820116820180604052508101906108c99190614fc3565b93508a6001600160a01b031663d21220a76040518163ffffffff1660e01b8152600401602060405180830381865afa158015610909573d6000803e3d6000fd5b505050506040513d601f19601f8201168201806040525081019061092d9190614fc3565b925060009150610a05565b8a6001600160a01b031663d21220a76040518163ffffffff1660e01b8152600401602060405180830381865afa158015610976573d6000803e3d6000fd5b505050506040513d601f19601f8201168201806040525081019061099a9190614fc3565b93508a6001600160a01b0316630dfe16816040518163ffffffff1660e01b8152600401602060405180830381865afa1580156109da573d6000803e3d6000fd5b505050506040513d601f19601f820116820180604052508101906109fe9190614fc3565b9250600191505b509499939850945094509450565b604080516002808252606080830184529260208301908036833701905050905060008260020160009054906101000a90046001600160a01b03166001600160a01b0316633850c7bd6040518163ffffffff1660e01b815260040160e060405180830381865afa158015610a8a573d6000803e3d6000fd5b505050506040513d601f19601f82011682018060405250810190610aae9190614e5d565b505050506002868101546003880154604051630544f36560e31b815295965073__$0c70757f598a889e7e5bdfcf0bf5e1f3f7$__95632a279b289550610b1e94508793600160c81b8404810b93600160e01b9004900b91600160501b90046001600160801b031690600401614fe0565b6040805180830381865af4158015610b3a573d6000803e3d6000fd5b505050506040513d601f19601f82011682018060405250810190610b5e9190615013565b83600081518110610b7157610b71615037565b6020026020010184600181518110610b8b57610b8b615037565b6020908102919091010191909152526003830154600480850154604051630544f36560e31b8152600093849373__$0c70757f598a889e7e5bdfcf0bf5e1f3f7$__93632a279b2893610bfc938993600282810b946301000000909304900b926001600160801b039092169101614fe0565b6040805180830381865af4158015610c18573d6000803e3d6000fd5b505050506040513d601f19601f82011682018060405250810190610c3c9190615013565b91509150600080610c4c8761173e565b91509150610cd18760020160009054906101000a90046001600160a01b03166001600160a01b0316630dfe16816040518163ffffffff1660e01b8152600401602060405180830381865afa158015610ca8573d6000803e3d6000fd5b505050506040513d601f19601f82011682018060405250810190610ccc9190614fc3565b613728565b610cdb838661504d565b610ce5919061504d565b86600081518110610cf857610cf8615037565b60200260200101818151610d0c919061504d565b90525060028701546040805163d21220a760e01b81529051610d5c926001600160a01b03169163d21220a79160048083019260209291908290030181865afa158015610ca8573d6000803e3d6000fd5b610d66828561504d565b610d70919061504d565b86600181518110610d8357610d83615037565b60200260200101818151610d97919061504d565b9052506003870154600160481b900460ff1615610e215785600181518110610dc157610dc1615037565b602002602001015186600081518110610ddc57610ddc615037565b602002602001015187600081518110610df757610df7615037565b6020026020010188600181518110610e1157610e11615037565b6020908102919091010191909152525b5050505050919050565b600381015481546000918291600160481b90910460ff1690610e55906001600160a01b0316613728565b6001850154909350610e6f906001600160a01b0316613728565b9150600081610e82578460050154610e88565b84600601545b9050600082610e9b578560060154610ea1565b85600501545b9050818510158015610eb35750808410155b610eef5760405162461bcd60e51b815260206004820152600d60248201526c57726f6e672062616c616e636560981b6044820152606401610605565b610ef98286615060565b9450610f058185615060565b9350505050915091565b60018101546000906001600160a01b03168180610f2b8561173e565b91509150846005015482610f3f919061504d565b9150846006015481610f51919061504d565b6003860154909150600160481b900460ff1615610f6a57905b6000836001600160a01b031663313ce5676040518163ffffffff1660e01b8152600401602060405180830381865afa158015610faa573d6000803e3d6000fd5b505050506040513d601f19601f82011682018060405250810190610fce9190615073565b610fd990600a615172565b6002870154604051635620c32d60e11b8152849173__$0c70757f598a889e7e5bdfcf0bf5e1f3f7$__9163ac41865a91611023916001600160a01b03909116908a90600401615181565b602060405180830381865af4158015611040573d6000803e3d6000fd5b505050506040513d601f19601f82011682018060405250810190611064919061519b565b61106e91906151b4565b61107891906151cb565b9050611084818461504d565b9695505050505050565b60606000866001600160a01b031663d21220a76040518163ffffffff1660e01b8152600401602060405180830381865afa1580156110d0573d6000803e3d6000fd5b505050506040513d601f19601f820116820180604052508101906110f49190614fc3565b9050600073__$0c70757f598a889e7e5bdfcf0bf5e1f3f7$__63ac41865a89846040518363ffffffff1660e01b8152600401611131929190615181565b602060405180830381865af415801561114e573d6000803e3d6000fd5b505050506040513d601f19601f82011682018060405250810190611172919061519b565b905061118088888888613793565b80975081985050506000826001600160a01b031663313ce5676040518163ffffffff1660e01b8152600401602060405180830381865afa1580156111c8573d6000803e3d6000fd5b505050506040513d601f19601f820116820180604052508101906111ec9190615073565b60ff1690508160006111ff83600a6151df565b905060008073__$0c70757f598a889e7e5bdfcf0bf5e1f3f7$__6317c22c3c8e8e8e88886040518663ffffffff1660e01b81526004016112439594939291906151eb565b606060405180830381865af4158015611260573d6000803e3d6000fd5b505050506040513d601f19601f82011682018060405250810190611284919061521f565b509150915088156112d75760018361129c88846151b4565b6112a691906151cb565b6040805160ff909316602084015282015260608101839052608001604051602081830303815290604052975061131d565b600182846112e589856151b4565b6112ef91906151cb565b6040805160ff9094166020850152830191909152606082015260800160405160208183030381529060405297505b5050505050505095945050505050565b60408051600280825260608281019093526000918291816020016020820280368337505060405163a34123a760e01b8152919450506001600160a01b038d169063a34123a790611385908e908e908a90600401614d1d565b60408051808303816000875af11580156113a3573d6000803e3d6000fd5b505050506040513d601f19601f820116820180604052508101906113c79190615013565b846000815181106113da576113da615037565b60200260200101856001815181106113f4576113f4615037565b6020908102919091010191909152526040516309e3d67b60e31b81526001600160a01b038d1690634f1eb3d89061143e9030908f908f906001600160801b0390819060040161524d565b60408051808303816000875af115801561145c573d6000803e3d6000fd5b505050506040513d601f19601f82011682018060405250810190611480919061528a565b50506001600160801b038616156116565760008761149e87896152b9565b6114a891906152e4565b90506000808e6001600160a01b031663a34123a78d8d866040518463ffffffff1660e01b81526004016114dd93929190614d1d565b60408051808303816000875af11580156114fb573d6000803e3d6000fd5b505050506040513d601f19601f8201168201806040525081019061151f9190615013565b915091508e6001600160a01b0316634f1eb3d8308e8e6001600160801b03806040518663ffffffff1660e01b815260040161155e95949392919061524d565b60408051808303816000875af115801561157c573d6000803e3d6000fd5b505050506040513d601f19601f820116820180604052508101906115a0919061528a565b505081866000815181106115b6576115b6615037565b602002602001018181516115ca919061504d565b90525085518190879060019081106115e4576115e4615037565b602002602001018181516115f8919061504d565b9052506001600160801b03808416908a1610156116465760405162461bcd60e51b815260206004820152600c60248201526b057726f6e672066696c6c75760a41b6044820152606401610605565b611650838a61530a565b93505050505b846001600160801b0316876001600160801b031610156116aa5760405162461bcd60e51b815260206004820152600f60248201526e57726f6e67206c697175696469747960881b6044820152606401610605565b6116b4858861530a565b9150831561172f57826001815181106116cf576116cf615037565b6020026020010151836000815181106116ea576116ea615037565b60200260200101518460008151811061170557611705615037565b602002602001018560018151811061171f5761171f615037565b6020908102919091010191909152525b99509950999650505050505050565b6040805160a0810182526002838101546001600160a01b0381168352600160c81b8104820b6020840152600160e01b9004900b818301526003830154600160501b90046001600160801b0316606082015230608082015290516352bb7e6960e01b8152600091829173__$0c70757f598a889e7e5bdfcf0bf5e1f3f7$__906352bb7e69906117d090849060040161532a565b6040805180830381865af41580156117ec573d6000803e3d6000fd5b505050506040513d601f19601f820116820180604052508101906118109190615013565b6040805160a0810182526002808901546001600160a01b03168252600389015480820b602084015263010000009004900b818301526004808901546001600160801b0316606083015230608083015291516352bb7e6960e01b81529396509194509091600091829173__$0c70757f598a889e7e5bdfcf0bf5e1f3f7$__916352bb7e69916118a09187910161532a565b6040805180830381865af41580156118bc573d6000803e3d6000fd5b505050506040513d601f19601f820116820180604052508101906118e09190615013565b90925090506118ef828761504d565b95506118fb818661504d565b945050505050915091565b6040805160028082526060808301845292602083019080368337505060405163a34123a760e01b8152919250506001600160a01b038a169063a34123a790611957908b908b90600090600401614d1d565b60408051808303816000875af1158015611975573d6000803e3d6000fd5b505050506040513d601f19601f820116820180604052508101906119999190615013565b50506040516309e3d67b60e31b81526001600160a01b038a1690634f1eb3d8906119d69030908c908c906001600160801b0390819060040161524d565b60408051808303816000875af11580156119f4573d6000803e3d6000fd5b505050506040513d601f19601f82011682018060405250810190611a18919061528a565b816001600160801b03169150806001600160801b0316905082600081518110611a4357611a43615037565b6020026020010183600181518110611a5d57611a5d615037565b60200260200101828152508281525050508460020b8660020b14611be25760405163a34123a760e01b81526001600160a01b038a169063a34123a790611aac9089908990600090600401614d1d565b60408051808303816000875af1158015611aca573d6000803e3d6000fd5b505050506040513d601f19601f82011682018060405250810190611aee9190615013565b50506000808a6001600160a01b0316634f1eb3d8308a8a6001600160801b03806040518663ffffffff1660e01b8152600401611b2e95949392919061524d565b60408051808303816000875af1158015611b4c573d6000803e3d6000fd5b505050506040513d601f19601f82011682018060405250810190611b70919061528a565b6001600160801b031691506001600160801b031691508183600081518110611b9a57611b9a615037565b60200260200101818151611bae919061504d565b9052508251819084906001908110611bc857611bc8615037565b60200260200101818151611bdc919061504d565b90525050505b8381600081518110611bf657611bf6615037565b60200260200101818151611c0a919061504d565b9052508051839082906001908110611c2457611c24615037565b60200260200101818151611c38919061504d565b9052508115611cb45780600181518110611c5457611c54615037565b602002602001015181600081518110611c6f57611c6f615037565b602002602001015182600081518110611c8a57611c8a615037565b6020026020010183600181518110611ca457611ca4615037565b6020908102919091010191909152525b98975050505050505050565b6000816001600160a01b031663ddca3f436040518163ffffffff1660e01b8152600401602060405180830381865afa158015611d00573d6000803e3d6000fd5b505050506040513d601f19601f82011682018060405250810190611d249190614df8565b62ffffff166064149050919050565b60008615611d4357506000611084565b6000866001600160a01b0316633850c7bd6040518163ffffffff1660e01b815260040160e060405180830381865afa158015611d83573d6000803e3d6000fd5b505050506040513d601f19601f82011682018060405250810190611da79190614e5d565b50505050509150508360020b8686611dbf9190614f9e565b60020b03611de9578560020b8160020b1280611de157508460020b8160020b12155b915050611084565b60006002611df78888614f9e565b611e019190614f18565b90506000611e0f8289614f79565b90508060020b8360020b1315611e3d57600285900b611e2e8285614f9e565b60020b12159350505050611084565b600285900b611e4c8483614f9e565b60020b139a9950505050505050505050565b6000806000611e6c8561173e565b91509150846005015482611e80919061504d565b9150846006015481611e92919061504d565b6003860154909150600160481b900460ff1615611eab57905b845460018601546040805163f77c479160e01b815290516001600160a01b0393841693928316926000929089169163f77c4791916004808201926020929091908290030181865afa158015611f04573d6000803e3d6000fd5b505050506040513d601f19601f82011682018060405250810190611f289190614fc3565b6001600160a01b0316632630c12f6040518163ffffffff1660e01b8152600401602060405180830381865afa158015611f65573d6000803e3d6000fd5b505050506040513d601f19601f82011682018060405250810190611f899190614fc3565b60405163b3596f0760e01b81526001600160a01b03858116600483015291925060009183169063b3596f0790602401602060405180830381865afa158015611fd5573d6000803e3d6000fd5b505050506040513d601f19601f82011682018060405250810190611ff9919061519b565b60405163b3596f0760e01b81526001600160a01b03858116600483015291925060009184169063b3596f0790602401602060405180830381865afa158015612045573d6000803e3d6000fd5b505050506040513d601f19601f82011682018060405250810190612069919061519b565b90506000670de0b6b3a7640000612080848a6151b4565b61208a91906151cb565b90506000670de0b6b3a76400006120a1848a6151b4565b6120ab91906151cb565b905060648211806120bc5750606481115b99505050505050505050505b92915050565b600080846001600160a01b031663f77c47916040518163ffffffff1660e01b8152600401602060405180830381865afa15801561210f573d6000803e3d6000fd5b505050506040513d601f19601f820116820180604052508101906121339190614fc3565b6001600160a01b0316632630c12f6040518163ffffffff1660e01b8152600401602060405180830381865afa158015612170573d6000803e3d6000fd5b505050506040513d601f19601f820116820180604052508101906121949190614fc3565b60405163b3596f0760e01b81526001600160a01b03868116600483015291925060009183169063b3596f0790602401602060405180830381865afa1580156121e0573d6000803e3d6000fd5b505050506040513d601f19601f82011682018060405250810190612204919061519b565b60405163b3596f0760e01b81526001600160a01b03868116600483015291925060009184169063b3596f0790602401602060405180830381865afa158015612250573d6000803e3d6000fd5b505050506040513d601f19601f82011682018060405250810190612274919061519b565b90508161228982670de0b6b3a76400006151b4565b61229391906151cb565b979650505050505050565b60408051600280825260608281019093526000918291816020016020820280368337019050509250831561233f57856001815181106122df576122df615037565b6020026020010151866000815181106122fa576122fa615037565b60200260200101518760008151811061231557612315615037565b602002602001018860018151811061232f5761232f615037565b6020908102919091010191909152525b600073__$0c70757f598a889e7e5bdfcf0bf5e1f3f7$__6317c22c3c8b8b8b8b60008151811061237157612371615037565b60200260200101518c60018151811061238c5761238c615037565b60200260200101516040518663ffffffff1660e01b81526004016123b49594939291906151eb565b606060405180830381865af41580156123d1573d6000803e3d6000fd5b505050506040513d601f19601f820116820180604052508101906123f5919061521f565b8660008151811061240857612408615037565b602002602001018760018151811061242257612422615037565b6020908102919091010192909252919052604051633c8a7d8d60e01b81529091506001600160a01b038b1690633c8a7d8d906124689030908d908d90879060040161537f565b60408051808303816000875af1158015612486573d6000803e3d6000fd5b505050506040513d601f19601f820116820180604052508101906124aa9190615013565b50506001600160801b03811692506124c281876153c1565b9150841561253d57836001815181106124dd576124dd615037565b6020026020010151846000815181106124f8576124f8615037565b60200260200101518560008151811061251357612513615037565b602002602001018660018151811061252d5761252d615037565b6020908102919091010191909152525b5096509650969350505050565b6000806000806125918a6001600160a01b0316630dfe16816040518163ffffffff1660e01b8152600401602060405180830381865afa158015610ca8573d6000803e3d6000fd5b905060006125d68b6001600160a01b031663d21220a76040518163ffffffff1660e01b8152600401602060405180830381865afa158015610ca8573d6000803e3d6000fd5b90508682101580156125e85750858110155b6126205760405162461bcd60e51b815260206004820152600960248201526857726f6e672066656560b81b6044820152606401610605565b61262a8783615060565b91506126368682615060565b905060008b6001600160a01b0316633850c7bd6040518163ffffffff1660e01b815260040160e060405180830381865afa158015612678573d6000803e3d6000fd5b505050506040513d601f19601f8201168201806040525081019061269c9190614e5d565b50505050509150508b6001600160a01b031663d21220a76040518163ffffffff1660e01b8152600401602060405180830381865afa1580156126e2573d6000803e3d6000fd5b505050506040513d601f19601f820116820180604052508101906127069190614fc3565b6001600160a01b031663313ce5676040518163ffffffff1660e01b8152600401602060405180830381865afa158015612743573d6000803e3d6000fd5b505050506040513d601f19601f820116820180604052508101906127679190615073565b61277290600a615172565b73__$0c70757f598a889e7e5bdfcf0bf5e1f3f7$__63ac41865a8e8f6001600160a01b031663d21220a76040518163ffffffff1660e01b8152600401602060405180830381865afa1580156127cb573d6000803e3d6000fd5b505050506040513d601f19601f820116820180604052508101906127ef9190614fc3565b6040518363ffffffff1660e01b815260040161280c929190615181565b602060405180830381865af4158015612829573d6000803e3d6000fd5b505050506040513d601f19601f8201168201806040525081019061284d919061519b565b61285790846151b4565b61286191906151cb565b83111561298f5788806128748184614f18565b61287e9190614f52565b6128889190614f79565b6040516305f08b0f60e21b81529096508a955073__$0c70757f598a889e7e5bdfcf0bf5e1f3f7$__906317c22c3c906128ce908f908a908a9089906000906004016151eb565b606060405180830381865af41580156128eb573d6000803e3d6000fd5b505050506040513d601f19601f8201168201806040525081019061290f919061521f565b604051633c8a7d8d60e01b81529096506001600160a01b038f169250633c8a7d8d91506129469030908a908a908a9060040161537f565b60408051808303816000875af1158015612964573d6000803e3d6000fd5b505050506040513d601f19601f820116820180604052508101906129889190615013565b5050612ab2565b8a9550888061299e8184614f18565b6129a89190614f52565b6129b29190614f9e565b6040516305f08b0f60e21b815290955073__$0c70757f598a889e7e5bdfcf0bf5e1f3f7$__906317c22c3c906129f5908f908a908a9060009089906004016151eb565b606060405180830381865af4158015612a12573d6000803e3d6000fd5b505050506040513d601f19601f82011682018060405250810190612a36919061521f565b604051633c8a7d8d60e01b81529096506001600160a01b038f169250633c8a7d8d9150612a6d9030908a908a908a9060040161537f565b60408051808303816000875af1158015612a8b573d6000803e3d6000fd5b505050506040513d601f19601f82011682018060405250810190612aaf9190615013565b50505b50505096509650969350505050565b8154600183015460038401546001600160a01b039283166000818152602086905260408082205495909416808252938120549094859485948594939192600160481b90910460ff16918583612b1a578b60050154612b20565b8b600601545b612b2987613728565b612b339190615060565b9050600084612b46578c60060154612b4c565b8c600501545b612b5587613728565b612b5f9190615060565b9050818411612b7757612b728483615060565b612b7a565b60005b9a50818411612b8a576000612b94565b612b948285615060565b9950808311612bac57612ba78382615060565b612baf565b60005b9850808311612bbf576000612bc9565b612bc98184615060565b97505050505050505092959194509250565b60408051600080825261028082018352600280880154600160e01b8104820b60208501818152600160c81b8304840b968601879052600160a01b8304840b606087018190526001600160a01b03808516608089018190528d54821660a08a015260018e015490911660c0890152600a8d015460e089015260098d015461010089015260038d015460ff600160481b8204811615156101208b015260058f01546101408b015260068f01546101608b01526101808a018990526101a08a018990526101c08a018990526101e08a018990526102008a01899052600160b81b8704811615156102208b0152600160c01b909604861615156102408a0152610260890188905260088e0154989997989397612d0b979490961695919491939192916601000000000000909104900b611d33565b612d4f5760405162461bcd60e51b8152602060048201526015602482015274139bc81c9958985b185b98da5b99c81b9959591959605a1b6044820152606401610605565b612d628682608001518360a001516120ce565b6102408201526102208101518015612d8d5750612d8d8160c001518261024001518360e001516138ac565b15612e395760088701805460ff191660011790556040517fb224dccea3c30282a142bed3cedb7af1657907dea7dc2828fb9ce06007f3159490600090a1612e028686836060015184608001518560a00151866101000151876101200151886101400151612dfd8a606001516138db565b6138fa565b6101208101516101608201526101408101516101808201526020810151600290810b6101c08301528151900b6101e082015261314a565b80610220015115612e5057610240810151600a8801555b73__$105aa07724e80e292e8a4b4cc62d6ec972$__6332e8d30f8787846060015185608001518660a00151876102000151886101000151612e9657886101200151612e9d565b8861014001515b896101000151612eb257896101400151612eb9565b8961012001515b612edb8b606001518c602001518d600001518e604001518f610100015161108e565b612ee88c606001516138db565b6040518b63ffffffff1660e01b8152600401612f0d9a999897969594939291906153e1565b60006040518083038186803b158015612f2557600080fd5b505af4158015612f39573d6000803e3d6000fd5b50505050612fc36040518060e0016040528083606001516001600160a01b0316815260200183608001516001600160a01b031681526020018360a001516001600160a01b03168152602001836101000151151581526020018361012001518152602001836101400151815260200186815250612fbe8884608001518560a00151613939565b6139bf565b6101a084018190526101808401829052610160840183905260058a019290925560068901551561300c57806101a00151876007016000828254613006919061504d565b90915550505b6130288160600151826020015183600001518460400151613793565b600281810b6101e085015282810b6101c0850152898101805465ffffffffffff60c81b1916600160c81b62ffffff9586160262ffffff60e01b191617600160e01b9490931693909302919091179091556040805182815260608101825291906020830190803683370190505092508061010001516130ab578061016001516130b2565b8061018001515b6130bf8260800151613728565b6130c99190615060565b836000815181106130dc576130dc615037565b6020026020010181815250508061010001516130fd57806101800151613104565b8061016001515b6131118260a00151613728565b61311b9190615060565b8360018151811061312e5761312e615037565b6020026020010181815250508061020001511561314a57600191505b6040517fc741dbaad15a4f298fe8d80943fa8e005e7bcb2f5b0a0c8dec1fc35be457f14690600090a15094509492505050565b604080516002808252606080830184529260208301908036833701905050905060008a6001600160a01b0316633850c7bd6040518163ffffffff1660e01b815260040160e060405180830381865afa1580156131dd573d6000803e3d6000fd5b505050506040513d601f19601f820116820180604052508101906132019190614e5d565b5050604051630544f36560e31b815294955073__$0c70757f598a889e7e5bdfcf0bf5e1f3f7$__94632a279b28945061324793508692508f91508e908a90600401614fe0565b6040805180830381865af4158015613263573d6000803e3d6000fd5b505050506040513d601f19601f820116820180604052508101906132879190615013565b8360008151811061329a5761329a615037565b60200260200101846001815181106132b4576132b4615037565b6020908102919091010191909152526001600160801b038616158015906132e457506000856001600160801b0316115b156133dd5760008073__$0c70757f598a889e7e5bdfcf0bf5e1f3f7$__632a279b28848c8c8c6133148c8e6152b9565b61331e91906152e4565b6040518563ffffffff1660e01b815260040161333d9493929190614fe0565b6040805180830381865af4158015613359573d6000803e3d6000fd5b505050506040513d601f19601f8201168201806040525081019061337d9190615013565b91509150818460008151811061339557613395615037565b602002602001018181516133a9919061504d565b90525083518190859060019081106133c3576133c3615037565b602002602001018181516133d7919061504d565b90525050505b821561345657816001815181106133f6576133f6615037565b60200260200101518260008151811061341157613411615037565b60200260200101518360008151811061342c5761342c615037565b602002602001018460018151811061344657613446615037565b6020908102919091010191909152525b509998505050505050505050565b6000826001600160a01b0316634046ebae6040518163ffffffff1660e01b8152600401602060405180830381865afa1580156134a4573d6000803e3d6000fd5b505050506040513d601f19601f820116820180604052508101906134c89190614fc3565b845460405163095ea7b360e01b81526001600160a01b038084166004830152600019602483015292935091169063095ea7b3906044016020604051808303816000875af115801561351d573d6000803e3d6000fd5b505050506040513d601f19601f820116820180604052508101906135419190615456565b50600184015460405163095ea7b360e01b81526001600160a01b03838116600483015260001960248301529091169063095ea7b3906044016020604051808303816000875af1158015613598573d6000803e3d6000fd5b505050506040513d601f19601f820116820180604052508101906135bc9190615456565b506002808501546135d891600160a01b909104900b6004614f52565b60028581015491810b916135fe91600160c81b8204810b91600160e01b9004900b614f9e565b6002868101805460ff60b81b1981169390920b9390931215600160b81b02918217909255613639916001600160a01b03908116911617611cc0565b156136c15760028401805460ff60c01b1916600160c01b1790556611c37937e08000600985018190556040517fdf3e0a21768880619b1295cb9519494a0df71943ebb4ff056f72186cfcfb6d47916136949190815260200190565b60405180910390a1835460018501546136bb9184916001600160a01b0391821691166120ce565b600a8501555b50505050565b6040518181527fdf3e0a21768880619b1295cb9519494a0df71943ebb4ff056f72186cfcfb6d479060200160405180910390a150565b6040517f6b7ccec41cff3829e74e9b70bba25fca03418511799dd79dc80d774f15f35e1b90600090a1565b6040516370a0823160e01b81523060048201526000906001600160a01b038316906370a0823190602401602060405180830381865afa15801561376f573d6000803e3d6000fd5b505050506040513d601f19601f820116820180604052508101906120c8919061519b565b6000806000866001600160a01b0316633850c7bd6040518163ffffffff1660e01b815260040160e060405180830381865afa1580156137d6573d6000803e3d6000fd5b505050506040513d601f19601f820116820180604052508101906137fa9190614e5d565b50505050509150508360020b86866138129190614f9e565b60020b0361384257836138258183614f18565b61382f9190614f52565b925061383b8484614f79565b91506138a2565b600060026138508888614f9e565b61385a9190614f18565b905084806138688385614f9e565b6138729190614f18565b61387c9190614f52565b9350848061388a8385614f79565b6138949190614f18565b61389e9190614f52565b9250505b5094509492505050565b60008284116138c657816138c08585615060565b116138d3565b816138d18486615060565b115b949350505050565b60006138e682611cc0565b6138f2576101f46120c8565b606492915050565b6000846139075783613909565b825b9050600085613918578361391a565b845b905061392c8b8b8b8b8b87878a613e3c565b5050505050505050505050565b604051632424c79760e11b81523060048201526001600160a01b0383811660248301528281166044830152600091908516906348498f2e9060640160408051808303816000875af1158015613992573d6000803e3d6000fd5b505050506040513d601f19601f820116820180604052508101906139b69190615013565b95945050505050565b608082015160a0830151606084015160009081906139dd57836139df565b825b9050600086606001516139f257836139f4565b845b9050600082613a068960200151613728565b613a10908961504d565b613a1a9190615060565b90508760c00151811015613e32576000818960c00151613a3a9190615060565b9050838111613a6f57886060015115613a5e57613a578187615060565b9550613e30565b613a688188615060565b9650613e30565b886060015115613a825760009550613a87565b600096505b60008315613e215789604001516001600160a01b031663313ce5676040518163ffffffff1660e01b8152600401602060405180830381865afa158015613ad1573d6000803e3d6000fd5b505050506040513d601f19601f82011682018060405250810190613af59190615073565b613b0090600a615172565b8a516040808d01519051635620c32d60e11b8152879273__$0c70757f598a889e7e5bdfcf0bf5e1f3f7$__9263ac41865a92613b40929190600401615181565b602060405180830381865af4158015613b5d573d6000803e3d6000fd5b505050506040513d601f19601f82011682018060405250810190613b81919061519b565b613b8b91906151b4565b613b9591906151cb565b905081613ba2828761504d565b1115613dee57896060015115613cd05789602001516001600160a01b031663313ce5676040518163ffffffff1660e01b8152600401602060405180830381865afa158015613bf4573d6000803e3d6000fd5b505050506040513d601f19601f82011682018060405250810190613c189190615073565b613c2390600a615172565b8a5160208c0151604051635620c32d60e11b815273__$0c70757f598a889e7e5bdfcf0bf5e1f3f7$__9263ac41865a92613c5f92600401615181565b602060405180830381865af4158015613c7c573d6000803e3d6000fd5b505050506040513d601f19601f82011682018060405250810190613ca0919061519b565b83613cab848961504d565b613cb59190615060565b613cbf91906151b4565b613cc991906151cb565b9750613e2e565b89602001516001600160a01b031663313ce5676040518163ffffffff1660e01b8152600401602060405180830381865afa158015613d12573d6000803e3d6000fd5b505050506040513d601f19601f82011682018060405250810190613d369190615073565b613d4190600a615172565b8a5160208c0151604051635620c32d60e11b815273__$0c70757f598a889e7e5bdfcf0bf5e1f3f7$__9263ac41865a92613d7d92600401615181565b602060405180830381865af4158015613d9a573d6000803e3d6000fd5b505050506040513d601f19601f82011682018060405250810190613dbe919061519b565b83613dc9848961504d565b613dd39190615060565b613ddd91906151b4565b613de791906151cb565b9650613e2e565b80613df98684615060565b613e039190615060565b9550896060015115613e185760009750613e2e565b60009650613e2e565b613e2b8583615060565b95505b505b505b5050509250925092565b6000613e49898787614630565b90506000613e5687613728565b90506000613e6387613728565b9050858210158015613e755750848110155b613eb15760405162461bcd60e51b815260206004820152600d60248201526c57726f6e672062616c616e636560981b6044820152606401610605565b613ebb8683615060565b9150613ec78582615060565b90508281101561449057604051635620c32d60e11b815260009073__$0c70757f598a889e7e5bdfcf0bf5e1f3f7$__9063ac41865a90613f0d908d908c90600401615181565b602060405180830381865af4158015613f2a573d6000803e3d6000fd5b505050506040513d601f19601f82011682018060405250810190613f4e919061519b565b90506000886001600160a01b031663313ce5676040518163ffffffff1660e01b8152600401602060405180830381865afa158015613f90573d6000803e3d6000fd5b505050506040513d601f19601f82011682018060405250810190613fb49190615073565b613fbf90600a615172565b613fc98487615060565b613fd390846151b4565b613fdd91906151cb565b9050613fea6064826151cb565b613ff4908261504d565b9050838110156140e85773__$e930d50fb5f4f1298547dbcb2bb0591990$__63e89a4b188d6001600160a01b0316634046ebae6040518163ffffffff1660e01b8152600401602060405180830381865afa158015614056573d6000803e3d6000fd5b505050506040513d601f19601f8201168201806040525081019061407a9190614fc3565b8c8c858b60006040518763ffffffff1660e01b81526004016140a196959493929190615473565b6040805180830381865af41580156140bd573d6000803e3d6000fd5b505050506040513d601f19601f820116820180604052508101906140e19190615013565b505061448d565b73__$e930d50fb5f4f1298547dbcb2bb0591990$__63e89a4b188d6001600160a01b0316634046ebae6040518163ffffffff1660e01b8152600401602060405180830381865afa158015614140573d6000803e3d6000fd5b505050506040513d601f19601f820116820180604052508101906141649190614fc3565b8c8c888b60006040518763ffffffff1660e01b815260040161418b96959493929190615473565b6040805180830381865af41580156141a7573d6000803e3d6000fd5b505050506040513d601f19601f820116820180604052508101906141cb9190615013565b505073__$e930d50fb5f4f1298547dbcb2bb0591990$__63954d7e738e8c8c8b6141f48f613728565b6141fe9190615060565b6040516001600160e01b031960e087901b1681526001600160a01b03948516600482015292841660248401529216604482015260648101919091526084016040805180830381865af4158015614258573d6000803e3d6000fd5b505050506040513d601f19601f8201168201806040525081019061427c9190615013565b50506142898d8b8b614630565b9450841561448d57604051635620c32d60e11b815273__$0c70757f598a889e7e5bdfcf0bf5e1f3f7$__9063ac41865a906142ca908e908d90600401615181565b602060405180830381865af41580156142e7573d6000803e3d6000fd5b505050506040513d601f19601f8201168201806040525081019061430b919061519b565b9150886001600160a01b031663313ce5676040518163ffffffff1660e01b8152600401602060405180830381865afa15801561434b573d6000803e3d6000fd5b505050506040513d601f19601f8201168201806040525081019061436f9190615073565b61437a90600a615172565b61438486846151b4565b61438e91906151cb565b905061439b6064826151cb565b6143a5908261504d565b905073__$e930d50fb5f4f1298547dbcb2bb0591990$__63e89a4b188d6001600160a01b0316634046ebae6040518163ffffffff1660e01b8152600401602060405180830381865afa1580156143ff573d6000803e3d6000fd5b505050506040513d601f19601f820116820180604052508101906144239190614fc3565b8c8c858b60006040518763ffffffff1660e01b815260040161444a96959493929190615473565b6040805180830381865af4158015614466573d6000803e3d6000fd5b505050506040513d601f19601f8201168201806040525081019061448a9190615013565b50505b50505b821561452b5760405163954d7e7360e01b81526001600160a01b03808d166004830152808a166024830152881660448201526064810184905273__$e930d50fb5f4f1298547dbcb2bb0591990$__9063954d7e73906084016040805180830381865af4158015614504573d6000803e3d6000fd5b505050506040513d601f19601f820116820180604052508101906145289190615013565b50505b73__$e930d50fb5f4f1298547dbcb2bb0591990$__63e89a4b188b6001600160a01b0316634046ebae6040518163ffffffff1660e01b8152600401602060405180830381865afa158015614583573d6000803e3d6000fd5b505050506040513d601f19601f820116820180604052508101906145a79190614fc3565b898b896145b38d613728565b6145bd9190615060565b8960006040518763ffffffff1660e01b81526004016145e196959493929190615473565b6040805180830381865af41580156145fd573d6000803e3d6000fd5b505050506040513d601f19601f820116820180604052508101906146219190615013565b50505050505050505050505050565b604051632424c79760e11b81523060048201526001600160a01b0383811660248301528281166044830152600091908516906348498f2e9060640160408051808303816000875af1158015614689573d6000803e3d6000fd5b505050506040513d601f19601f820116820180604052508101906146ad9190615013565b50949350505050565b6001600160a01b03811681146146cb57600080fd5b50565b8060020b81146146cb57600080fd5b600080600080608085870312156146f357600080fd5b84356146fe816146b6565b9350602085013561470e816146ce565b9250604085013561471e816146ce565b9150606085013561472e816146b6565b939692955090935050565b60006020828403121561474b57600080fd5b5035919050565b600081518084526020808501945080840160005b8381101561478257815187529582019590820190600101614766565b509495945050505050565b6020815260006147a06020830184614752565b9392505050565b80151581146146cb57600080fd5b80356147c0816147a7565b919050565b600080600080600060a086880312156147dd57600080fd5b85356147e8816146b6565b945060208601356147f8816146ce565b93506040860135614808816146ce565b92506060860135614818816146ce565b91506080860135614828816147a7565b809150509295509295909350565b6000815180845260005b8181101561485c57602081850181015186830182015201614840565b506000602082860101526020601f19601f83011685010191505092915050565b6020815260006147a06020830184614836565b6001600160801b03811681146146cb57600080fd5b80356147c08161488f565b60008060008060008060008060006101208a8c0312156148ce57600080fd5b89356148d9816146b6565b985060208a01356148e9816146ce565b975060408a01356148f9816146ce565b965060608a0135614909816146ce565b955060808a0135614919816146ce565b945060a08a01356149298161488f565b935060c08a01356149398161488f565b925060e08a01356149498161488f565b91506101008a013561495a816147a7565b809150509295985092959850929598565b60608152600061497e6060830186614752565b6001600160801b0394851660208401529290931660409091015292915050565b600080600080600080600080610100898b0312156149bb57600080fd5b88356149c6816146b6565b975060208901356149d6816146ce565b965060408901356149e6816146ce565b955060608901356149f6816146ce565b94506080890135614a06816146ce565b935060a0890135925060c0890135915060e0890135614a24816147a7565b809150509295985092959890939650565b600060208284031215614a4757600080fd5b81356147a0816146b6565b60008060008060008060c08789031215614a6b57600080fd5b8635614a76816147a7565b95506020870135614a86816146b6565b94506040870135614a96816146ce565b93506060870135614aa6816146ce565b92506080870135614ab6816146ce565b915060a0870135614ac6816146ce565b809150509295509295509295565b60008060408385031215614ae757600080fd5b823591506020830135614af9816146b6565b809150509250929050565b600080600060608486031215614b1957600080fd5b8335614b24816146b6565b92506020840135614b34816146b6565b91506040840135614b44816146b6565b809150509250925092565b634e487b7160e01b600052604160045260246000fd5b60008060008060008060c08789031215614b7e57600080fd5b8635614b89816146b6565b9550602087810135614b9a816146ce565b95506040880135614baa816146ce565b9450606088013567ffffffffffffffff80821115614bc757600080fd5b818a0191508a601f830112614bdb57600080fd5b813581811115614bed57614bed614b4f565b8060051b604051601f19603f83011681018181108582111715614c1257614c12614b4f565b60405291825284820192508381018501918d831115614c3057600080fd5b938501935b82851015614c4e57843584529385019392850192614c35565b809850505050505050614c63608088016148a4565b9150614c7160a088016147b5565b90509295509295509295565b606081526000614c906060830186614752565b90508360208301526001600160801b0383166040830152949350505050565b60008060008060008060c08789031215614cc857600080fd5b8635614cd3816146b6565b95506020870135614ce3816146ce565b94506040870135614cf3816146ce565b93506060870135614d03816146ce565b9598949750929560808101359460a0909101359350915050565b600293840b81529190920b60208201526001600160801b03909116604082015260600190565b60008060408385031215614d5657600080fd5b50508035926020909101359150565b60008060008060808587031215614d7b57600080fd5b843593506020850135614d8d816146b6565b92506040850135614d9d816146b6565b9396929550929360600135925050565b604081526000614dc06040830185614752565b905082151560208301529392505050565b600080600060608486031215614de657600080fd5b833592506020840135614b34816146b6565b600060208284031215614e0a57600080fd5b815162ffffff811681146147a057600080fd5b600060208284031215614e2f57600080fd5b81516147a0816146ce565b805161ffff811681146147c057600080fd5b805160ff811681146147c057600080fd5b600080600080600080600060e0888a031215614e7857600080fd5b8751614e83816146b6565b6020890151909750614e94816146ce565b9550614ea260408901614e3a565b9450614eb060608901614e3a565b9350614ebe60808901614e3a565b9250614ecc60a08901614e4c565b915060c0880151614edc816147a7565b8091505092959891949750929550565b634e487b7160e01b600052601260045260246000fd5b634e487b7160e01b600052601160045260246000fd5b60008160020b8360020b80614f2f57614f2f614eec565b627fffff19821460001982141615614f4957614f49614f02565b90059392505050565b60008260020b8260020b028060020b9150808214614f7257614f72614f02565b5092915050565b600281810b9083900b01627fffff8113627fffff19821217156120c8576120c8614f02565b600282810b9082900b03627fffff198112627fffff821317156120c8576120c8614f02565b600060208284031215614fd557600080fd5b81516147a0816146b6565b6001600160a01b03949094168452600292830b6020850152910b60408301526001600160801b0316606082015260800190565b6000806040838503121561502657600080fd5b505080516020909101519092909150565b634e487b7160e01b600052603260045260246000fd5b808201808211156120c8576120c8614f02565b818103818111156120c8576120c8614f02565b60006020828403121561508557600080fd5b6147a082614e4c565b600181815b808511156150c95781600019048211156150af576150af614f02565b808516156150bc57918102915b93841c9390800290615093565b509250929050565b6000826150e0575060016120c8565b816150ed575060006120c8565b8160018114615103576002811461510d57615129565b60019150506120c8565b60ff84111561511e5761511e614f02565b50506001821b6120c8565b5060208310610133831016604e8410600b841016171561514c575081810a6120c8565b615156838361508e565b806000190482111561516a5761516a614f02565b029392505050565b60006147a060ff8416836150d1565b6001600160a01b0392831681529116602082015260400190565b6000602082840312156151ad57600080fd5b5051919050565b80820281158282048414176120c8576120c8614f02565b6000826151da576151da614eec565b500490565b60006147a083836150d1565b6001600160a01b03959095168552600293840b60208601529190920b60408401526060830191909152608082015260a00190565b60008060006060848603121561523457600080fd5b83519250602084015191506040840151614b448161488f565b6001600160a01b03959095168552600293840b60208601529190920b60408401526001600160801b03918216606084015216608082015260a00190565b6000806040838503121561529d57600080fd5b82516152a88161488f565b6020840151909250614af98161488f565b6001600160801b038181168382160280821691908281146152dc576152dc614f02565b505092915050565b60006001600160801b03808416806152fe576152fe614eec565b92169190910492915050565b6001600160801b03828116828216039080821115614f7257614f72614f02565b600060a08201905060018060a01b03808451168352602084015160020b6020840152604084015160020b60408401526001600160801b0360608501511660608401528060808501511660808401525092915050565b6001600160a01b03949094168452600292830b6020850152910b60408301526001600160801b0316606082015260a06080820181905260009082015260c00190565b6001600160801b03818116838216019080821115614f7257614f72614f02565b6001600160a01b038b811682528a81166020830152898116604083015288811660608301528716608082015285151560a082015260c0810185905260e08101849052610140610100820181905260009061543d83820186614836565b915050826101208301529b9a5050505050505050505050565b60006020828403121561546857600080fd5b81516147a0816147a7565b6001600160a01b03968716815294861660208601529290941660408401526060830152608082019290925260a081019190915260c0019056fea2646970667358221220eceea77fddeebbfad3205b8c6dcb05e3ea193cfba90dfcbf0f040b207f3601c264736f6c63430008110033",
  "libraries": {
    "UniswapV3Lib": "0xAA7423AB76D0D826840b0801D480A5a929292fCE",
    "UniswapV3DebtLib": "0xCe925ef6275Cd8eDB59b439dEc9C276F45F1f540",
    "ConverterStrategyBaseLib": "0xd91df94Ada3bA7187eb9637A5B3D82032BF9A8c0",
    "ConverterStrategyBaseLib2": "0x8b3B9714aFe0F4Ff5c7F28e5490D1f8A18957e12"
  },
  "devdoc": {
    "kind": "dev",
    "methods": {
      "addFillup(IUniswapV3Pool,int24,int24,int24,uint256,uint256)": {
        "params": {
          "fee0": "The fee amount for the first token in the pool.",
          "fee1": "The fee amount for the second token in the pool.",
          "lowerTick": "The current lower tick value for the pool.",
          "pool": "The Uniswap V3 pool to add liquidity to.",
          "tickSpacing": "The tick spacing for the pool.",
          "upperTick": "The current upper tick value for the pool."
        },
        "returns": {
          "liquidityOutFillup": "The liquidity amount added to the new range.",
          "lowerTickFillup": "The lower tick value for the new liquidity range.",
          "upperTickFillup": "The upper tick value for the new liquidity range."
        }
      },
      "calcInitialDepositorValues(IUniswapV3Pool,int24,int24,address)": {
        "params": {
          "asset_": "Underlying asset of the depositor.",
          "pool": "The Uniswap V3 pool to get the initial values from.",
          "rebalanceTickRange_": "The rebalance tick range for the pool.",
          "tickRange_": "The tick range for the pool."
        },
        "returns": {
          "_depositorSwapTokens": "A boolean representing whether to use reverse tokens for pool.",
          "lowerTick": "The lower tick value for the pool.",
          "tickSpacing": "The tick spacing for the pool.",
          "tokenA": "The address of the first token in the pool.",
          "tokenB": "The address of the second token in the pool.",
          "upperTick": "The upper tick value for the pool."
        }
      },
      "claimRewards(IUniswapV3Pool,int24,int24,int24,int24,uint256,uint256,bool)": {
        "params": {
          "_depositorSwapTokens": "A boolean indicating if need to use token B instead of token A.",
          "lowerTick": "The lower tick of the pool's main range.",
          "lowerTickFillup": "The lower tick of the pool's fill-up range.",
          "pool": "The Uniswap V3 pool instance.",
          "rebalanceEarned0": "The amount of token0 earned from rebalancing.",
          "rebalanceEarned1": "The amount of token1 earned from rebalancing.",
          "upperTick": "The upper tick of the pool's main range.",
          "upperTickFillup": "The upper tick of the pool's fill-up range."
        },
        "returns": {
          "amountsOut": "An array containing the amounts of token0 and token1 claimed as rewards."
        }
      },
      "enter(IUniswapV3Pool,int24,int24,uint256[],uint128,bool)": {
        "params": {
          "_depositorSwapTokens": "A boolean indicating if need to use token B instead of token A.",
          "amountsDesired_": "An array containing the desired amounts of tokens to provide liquidity.",
          "lowerTick": "The lower tick value for the pool.",
          "pool": "The Uniswap V3 pool to provide liquidity to.",
          "totalLiquidity": "The current total liquidity in the pool.",
          "upperTick": "The upper tick value for the pool."
        },
        "returns": {
          "amountsConsumed": "An array containing the consumed amounts for each token in the pool.",
          "liquidityOut": "The amount of liquidity added to the pool.",
          "totalLiquidityNew": "The updated total liquidity after providing liquidity."
        }
      },
      "exit(IUniswapV3Pool,int24,int24,int24,int24,uint128,uint128,uint128,bool)": {
        "params": {
          "_depositorSwapTokens": "A boolean indicating if need to use token B instead of token A.",
          "liquidity": "The current liquidity in the pool.",
          "liquidityAmountToExit": "The amount of liquidity to exit.",
          "liquidityFillup": "The current liquidity in the fillup range.",
          "lowerTick": "The lower tick value for the pool.",
          "lowerTickFillup": "The lower tick value for the fillup range in the pool.",
          "pool": "The Uniswap V3 pool to exit from.",
          "upperTick": "The upper tick value for the pool.",
          "upperTickFillup": "The upper tick value for the fillup range in the pool."
        },
        "returns": {
          "amountsOut": "An array containing the collected amounts for each token in the pool.",
          "totalLiquidity": "The updated total liquidity after the exit.",
          "totalLiquidityFillup": "The updated total liquidity in the fillup range after the exit."
        }
      },
      "getEntryData(IUniswapV3Pool,int24,int24,int24,bool)": {
        "params": {
          "depositorSwapTokens": "A boolean indicating if need to use token B instead of token A.",
          "lowerTick": "The lower tick of the pool's main range.",
          "pool": "The Uniswap V3 pool instance.",
          "tickSpacing": "The tick spacing of the pool.",
          "upperTick": "The upper tick of the pool's main range."
        },
        "returns": {
          "entryData": "A byte array containing the entry data for the pool."
        }
      },
      "getFees(UniswapV3ConverterStrategyLogicLib.State storage)": {
        "params": {
          "state": "The State storage containing the pool's information."
        },
        "returns": {
          "fee0": "The fees generated for the first token in the pool.",
          "fee1": "The fees generated for the second token in the pool."
        }
      },
      "getOracleAssetsPrice(ITetuConverter,address,address)": {
        "params": {
          "converter": "The Tetu converter.",
          "tokenA": "The first token address.",
          "tokenB": "The second token address."
        },
        "returns": {
          "_0": "The price ratio of the two tokens."
        }
      },
      "getPoolReserves(UniswapV3ConverterStrategyLogicLib.State storage)": {
        "params": {
          "state": "The State storage containing the pool's information."
        },
        "returns": {
          "reserves": "An array containing the reserve amounts of the contract owned liquidity."
        }
      },
      "getTokenAmounts(UniswapV3ConverterStrategyLogicLib.State storage)": {
        "params": {
          "state": "The state of the pool."
        },
        "returns": {
          "amountA": "The balance of tokenA.",
          "amountB": "The balance of tokenB."
        }
      },
      "getUpdateInfo(UniswapV3ConverterStrategyLogicLib.State storage,mapping(address => uint256) storage)": {
        "details": "Gets the update information for the strategy, including token amounts received and spent.",
        "params": {
          "baseAmounts": "Mapping of token addresses to their base amounts on the strategy balance (not rewards).",
          "state": "The State storage object."
        },
        "returns": {
          "receivedA": "The amount of tokenA received.",
          "receivedB": "The amount of tokenB received.",
          "spentA": "The amount of tokenA spent.",
          "spentB": "The amount of tokenB spent."
        }
      },
      "isStablePool(IUniswapV3Pool)": {
        "params": {
          "pool": "The Uniswap V3 pool."
        },
        "returns": {
          "_0": "A boolean indicating if the pool is stable."
        }
      },
      "needRebalance(bool,IUniswapV3Pool,int24,int24,int24,int24)": {
        "returns": {
          "_0": "A boolean indicating if the pool needs to be rebalanced."
        }
      },
      "quoteExit(IUniswapV3Pool,int24,int24,int24,int24,uint128,uint128,uint128,bool)": {
        "params": {
          "_depositorSwapTokens": "A boolean indicating if need to use token B instead of token A.",
          "liquidity": "The current liquidity in the pool.",
          "liquidityAmountToExit": "The amount of liquidity to exit.",
          "liquidityFillup": "The current liquidity in the fillup range.",
          "lowerTick": "The lower tick value for the pool.",
          "lowerTickFillup": "The lower tick value for the fillup range in the pool.",
          "pool": "The Uniswap V3 pool to quote the exit amounts for.",
          "upperTick": "The upper tick value for the pool.",
          "upperTickFillup": "The upper tick value for the fillup range in the pool."
        },
        "returns": {
          "amountsOut": "An array containing the estimated exit amounts for each token in the pool."
        }
      },
      "rebalance(UniswapV3ConverterStrategyLogicLib.State storage,ITetuConverter,address,uint256)": {
        "details": "Rebalances the current position, adjusts the tick range, and attempts to cover loss with pool rewards.",
        "params": {
          "controller": "The Tetu controller address.",
          "converter": "The TetuConverter contract.",
          "oldInvestedAssets": "The amount of invested assets before rebalancing.",
          "state": "The State storage object."
        },
        "returns": {
          "isNeedFillup": "Indicates if fill-up is required after rebalancing.",
          "tokenAmounts": "The token amounts for deposit (if length != 2 then do nothing)."
        }
      }
    },
    "version": 1
  },
  "userdoc": {
    "kind": "user",
    "methods": {
      "addFillup(IUniswapV3Pool,int24,int24,int24,uint256,uint256)": {
        "notice": "Add liquidity to a Uniswap V3 pool in a specified tick range according fill up rules."
      },
      "calcInitialDepositorValues(IUniswapV3Pool,int24,int24,address)": {
        "notice": "Calculate the initial values for a Uniswap V3 pool Depositor."
      },
      "claimRewards(IUniswapV3Pool,int24,int24,int24,int24,uint256,uint256,bool)": {
        "notice": "Claim rewards from the Uniswap V3 pool."
      },
      "enter(IUniswapV3Pool,int24,int24,uint256[],uint128,bool)": {
        "notice": "Enter the pool and provide liquidity with desired token amounts."
      },
      "exit(IUniswapV3Pool,int24,int24,int24,int24,uint128,uint128,uint128,bool)": {
        "notice": "Exit the pool and collect tokens proportional to the liquidity amount to exit."
      },
      "getEntryData(IUniswapV3Pool,int24,int24,int24,bool)": {
        "notice": "Get entry data for a Uniswap V3 pool."
      },
      "getFees(UniswapV3ConverterStrategyLogicLib.State storage)": {
        "notice": "Retrieve the fees generated by a Uniswap V3 pool managed by this contract."
      },
      "getOracleAssetsPrice(ITetuConverter,address,address)": {
        "notice": "Get the price ratio of the two given tokens from the oracle."
      },
      "getPoolReserves(UniswapV3ConverterStrategyLogicLib.State storage)": {
        "notice": "Retrieve the reserves of a Uniswap V3 pool managed by this contract."
      },
      "getTokenAmounts(UniswapV3ConverterStrategyLogicLib.State storage)": {
        "notice": "Get the token amounts held by the contract excluding earned parts."
      },
      "isStablePool(IUniswapV3Pool)": {
        "notice": "Check if the given pool is a stable pool."
      },
      "needRebalance(bool,IUniswapV3Pool,int24,int24,int24,int24)": {
        "notice": "Determine if the pool needs to be rebalanced."
      },
      "quoteExit(IUniswapV3Pool,int24,int24,int24,int24,uint128,uint128,uint128,bool)": {
        "notice": "Estimate the exit amounts for a given liquidity amount in a Uniswap V3 pool."
      }
    },
    "version": 1
  },
  "storageLayout": {
    "storage": [],
    "types": null
  }
}