{
  "address": "0x73248bDF0F534867Ce1Afed197fCce335B7BF895",
  "abi": [
    {
      "anonymous": false,
      "inputs": [
        {
          "indexed": false,
          "internalType": "address",
          "name": "controller",
          "type": "address"
        },
        {
          "indexed": false,
          "internalType": "uint256",
          "name": "ts",
          "type": "uint256"
        },
        {
          "indexed": false,
          "internalType": "uint256",
          "name": "block",
          "type": "uint256"
        }
      ],
      "name": "ContractInitialized",
      "type": "event"
    },
    {
      "anonymous": false,
      "inputs": [
        {
          "indexed": false,
          "internalType": "uint8",
          "name": "version",
          "type": "uint8"
        }
      ],
      "name": "Initialized",
      "type": "event"
    },
    {
      "anonymous": false,
      "inputs": [
        {
          "indexed": false,
          "internalType": "uint256[]",
          "name": "withdrawnAmounts",
          "type": "uint256[]"
        }
      ],
      "name": "OnDepositorEmergencyExit",
      "type": "event"
    },
    {
      "anonymous": false,
      "inputs": [
        {
          "indexed": false,
          "internalType": "uint256[]",
          "name": "amounts",
          "type": "uint256[]"
        },
        {
          "indexed": false,
          "internalType": "uint256[]",
          "name": "consumedAmounts",
          "type": "uint256[]"
        }
      ],
      "name": "OnDepositorEnter",
      "type": "event"
    },
    {
      "anonymous": false,
      "inputs": [
        {
          "indexed": false,
          "internalType": "uint256",
          "name": "liquidityAmount",
          "type": "uint256"
        },
        {
          "indexed": false,
          "internalType": "uint256[]",
          "name": "withdrawnAmounts",
          "type": "uint256[]"
        }
      ],
      "name": "OnDepositorExit",
      "type": "event"
    },
    {
      "anonymous": false,
      "inputs": [
        {
          "indexed": false,
          "internalType": "uint256",
          "name": "investedAssetsNewPrices",
          "type": "uint256"
        },
        {
          "indexed": false,
          "internalType": "uint256",
          "name": "earnedByPrices",
          "type": "uint256"
        },
        {
          "indexed": false,
          "internalType": "uint256",
          "name": "earnedHandleRewards",
          "type": "uint256"
        },
        {
          "indexed": false,
          "internalType": "uint256",
          "name": "lostHandleRewards",
          "type": "uint256"
        },
        {
          "indexed": false,
          "internalType": "uint256",
          "name": "earnedDeposit",
          "type": "uint256"
        },
        {
          "indexed": false,
          "internalType": "uint256",
          "name": "lostDeposit",
          "type": "uint256"
        }
      ],
      "name": "OnHardWorkEarnedLost",
      "type": "event"
    },
    {
      "anonymous": false,
      "inputs": [
        {
          "indexed": false,
          "internalType": "address[]",
          "name": "rewardTokens",
          "type": "address[]"
        },
        {
          "indexed": false,
          "internalType": "uint256[]",
          "name": "amountsToForward",
          "type": "uint256[]"
        },
        {
          "indexed": false,
          "internalType": "uint256",
          "name": "toPerf",
          "type": "uint256"
        },
        {
          "indexed": false,
          "internalType": "uint256",
          "name": "toInsurance",
          "type": "uint256"
        }
      ],
      "name": "Recycle",
      "type": "event"
    },
    {
      "anonymous": false,
      "inputs": [
        {
          "indexed": false,
          "internalType": "uint256",
          "name": "value",
          "type": "uint256"
        },
        {
          "indexed": false,
          "internalType": "address",
          "name": "oldLogic",
          "type": "address"
        }
      ],
      "name": "RevisionIncreased",
      "type": "event"
    },
    {
      "inputs": [],
      "name": "CONTROLLABLE_VERSION",
      "outputs": [
        {
          "internalType": "string",
          "name": "",
          "type": "string"
        }
      ],
      "stateMutability": "view",
      "type": "function"
    },
    {
      "inputs": [],
      "name": "CONVERTER_STRATEGY_BASE_VERSION",
      "outputs": [
        {
          "internalType": "string",
          "name": "",
          "type": "string"
        }
      ],
      "stateMutability": "view",
      "type": "function"
    },
    {
      "inputs": [],
      "name": "NAME",
      "outputs": [
        {
          "internalType": "string",
          "name": "",
          "type": "string"
        }
      ],
      "stateMutability": "view",
      "type": "function"
    },
    {
      "inputs": [],
      "name": "PLATFORM",
      "outputs": [
        {
          "internalType": "string",
          "name": "",
          "type": "string"
        }
      ],
      "stateMutability": "view",
      "type": "function"
    },
    {
      "inputs": [],
      "name": "STRATEGY_BASE_VERSION",
      "outputs": [
        {
          "internalType": "string",
          "name": "",
          "type": "string"
        }
      ],
      "stateMutability": "view",
      "type": "function"
    },
    {
      "inputs": [],
      "name": "STRATEGY_VERSION",
      "outputs": [
        {
          "internalType": "string",
          "name": "",
          "type": "string"
        }
      ],
      "stateMutability": "view",
      "type": "function"
    },
    {
      "inputs": [],
      "name": "UNISWAPV3_DEPOSITOR_VERSION",
      "outputs": [
        {
          "internalType": "string",
          "name": "",
          "type": "string"
        }
      ],
      "stateMutability": "view",
      "type": "function"
    },
    {
      "inputs": [],
      "name": "asset",
      "outputs": [
        {
          "internalType": "address",
          "name": "",
          "type": "address"
        }
      ],
      "stateMutability": "view",
      "type": "function"
    },
    {
      "inputs": [],
      "name": "calcInvestedAssets",
      "outputs": [
        {
          "internalType": "uint256",
          "name": "",
          "type": "uint256"
        }
      ],
      "stateMutability": "nonpayable",
      "type": "function"
    },
    {
      "inputs": [],
      "name": "capacity",
      "outputs": [
        {
          "internalType": "uint256",
          "name": "",
          "type": "uint256"
        }
      ],
      "stateMutability": "view",
      "type": "function"
    },
    {
      "inputs": [],
      "name": "claim",
      "outputs": [],
      "stateMutability": "nonpayable",
      "type": "function"
    },
    {
      "inputs": [],
      "name": "compoundRatio",
      "outputs": [
        {
          "internalType": "uint256",
          "name": "",
          "type": "uint256"
        }
      ],
      "stateMutability": "view",
      "type": "function"
    },
    {
      "inputs": [],
      "name": "controller",
      "outputs": [
        {
          "internalType": "address",
          "name": "",
          "type": "address"
        }
      ],
      "stateMutability": "view",
      "type": "function"
    },
    {
      "inputs": [],
      "name": "converter",
      "outputs": [
        {
          "internalType": "contract ITetuConverter",
          "name": "",
          "type": "address"
        }
      ],
      "stateMutability": "view",
      "type": "function"
    },
    {
      "inputs": [],
      "name": "created",
      "outputs": [
        {
          "internalType": "uint256",
          "name": "",
          "type": "uint256"
        }
      ],
      "stateMutability": "view",
      "type": "function"
    },
    {
      "inputs": [],
      "name": "createdBlock",
      "outputs": [
        {
          "internalType": "uint256",
          "name": "",
          "type": "uint256"
        }
      ],
      "stateMutability": "view",
      "type": "function"
    },
    {
      "inputs": [],
      "name": "disableFuse",
      "outputs": [],
      "stateMutability": "nonpayable",
      "type": "function"
    },
    {
      "inputs": [],
      "name": "doHardWork",
      "outputs": [
        {
          "internalType": "uint256",
          "name": "earned",
          "type": "uint256"
        },
        {
          "internalType": "uint256",
          "name": "lost",
          "type": "uint256"
        }
      ],
      "stateMutability": "nonpayable",
      "type": "function"
    },
    {
      "inputs": [],
      "name": "emergencyExit",
      "outputs": [],
      "stateMutability": "nonpayable",
      "type": "function"
    },
    {
      "inputs": [],
      "name": "getFees",
      "outputs": [
        {
          "internalType": "uint256",
          "name": "fee0",
          "type": "uint256"
        },
        {
          "internalType": "uint256",
          "name": "fee1",
          "type": "uint256"
        }
      ],
      "stateMutability": "view",
      "type": "function"
    },
    {
      "inputs": [],
      "name": "getState",
      "outputs": [
        {
          "internalType": "address",
          "name": "tokenA",
          "type": "address"
        },
        {
          "internalType": "address",
          "name": "tokenB",
          "type": "address"
        },
        {
          "internalType": "address",
          "name": "pool",
          "type": "address"
        },
        {
          "internalType": "address",
          "name": "profitHolder",
          "type": "address"
        },
        {
          "internalType": "int24",
          "name": "tickSpacing",
          "type": "int24"
        },
        {
          "internalType": "int24",
          "name": "lowerTick",
          "type": "int24"
        },
        {
          "internalType": "int24",
          "name": "upperTick",
          "type": "int24"
        },
        {
          "internalType": "int24",
          "name": "rebalanceTickRange",
          "type": "int24"
        },
        {
          "internalType": "uint128",
          "name": "totalLiquidity",
          "type": "uint128"
        },
        {
          "internalType": "bool",
          "name": "isFuseTriggered",
          "type": "bool"
        },
        {
          "internalType": "uint256",
          "name": "fuseThreshold",
          "type": "uint256"
        },
        {
          "internalType": "uint256[]",
          "name": "rebalanceResults",
          "type": "uint256[]"
        }
      ],
      "stateMutability": "view",
      "type": "function"
    },
    {
      "inputs": [
        {
          "internalType": "address",
          "name": "oldLogic",
          "type": "address"
        }
      ],
      "name": "increaseRevision",
      "outputs": [],
      "stateMutability": "nonpayable",
      "type": "function"
    },
    {
      "inputs": [
        {
          "internalType": "address",
          "name": "controller_",
          "type": "address"
        },
        {
          "internalType": "address",
          "name": "splitter_",
          "type": "address"
        },
        {
          "internalType": "address",
          "name": "converter_",
          "type": "address"
        },
        {
          "internalType": "address",
          "name": "pool_",
          "type": "address"
        },
        {
          "internalType": "int24",
          "name": "tickRange_",
          "type": "int24"
        },
        {
          "internalType": "int24",
          "name": "rebalanceTickRange_",
          "type": "int24"
        }
      ],
      "name": "init",
      "outputs": [],
      "stateMutability": "nonpayable",
      "type": "function"
    },
    {
      "inputs": [
        {
          "internalType": "uint256",
          "name": "",
          "type": "uint256"
        },
        {
          "internalType": "bool",
          "name": "updateTotalAssetsBeforeInvest_",
          "type": "bool"
        }
      ],
      "name": "investAll",
      "outputs": [
        {
          "internalType": "uint256",
          "name": "strategyLoss",
          "type": "uint256"
        }
      ],
      "stateMutability": "nonpayable",
      "type": "function"
    },
    {
      "inputs": [],
      "name": "investedAssets",
      "outputs": [
        {
          "internalType": "uint256",
          "name": "",
          "type": "uint256"
        }
      ],
      "stateMutability": "view",
      "type": "function"
    },
    {
      "inputs": [
        {
          "internalType": "address",
          "name": "_value",
          "type": "address"
        }
      ],
      "name": "isController",
      "outputs": [
        {
          "internalType": "bool",
          "name": "",
          "type": "bool"
        }
      ],
      "stateMutability": "view",
      "type": "function"
    },
    {
      "inputs": [
        {
          "internalType": "address",
          "name": "_value",
          "type": "address"
        }
      ],
      "name": "isGovernance",
      "outputs": [
        {
          "internalType": "bool",
          "name": "",
          "type": "bool"
        }
      ],
      "stateMutability": "view",
      "type": "function"
    },
    {
      "inputs": [],
      "name": "isReadyToHardWork",
      "outputs": [
        {
          "internalType": "bool",
          "name": "",
          "type": "bool"
        }
      ],
      "stateMutability": "view",
      "type": "function"
    },
    {
      "inputs": [
        {
          "internalType": "address",
          "name": "",
          "type": "address"
        }
      ],
      "name": "liquidationThresholds",
      "outputs": [
        {
          "internalType": "uint256",
          "name": "",
          "type": "uint256"
        }
      ],
      "stateMutability": "view",
      "type": "function"
    },
    {
      "inputs": [],
      "name": "needRebalance",
      "outputs": [
        {
          "internalType": "bool",
          "name": "",
          "type": "bool"
        }
      ],
      "stateMutability": "view",
      "type": "function"
    },
    {
      "inputs": [
        {
          "internalType": "address[]",
          "name": "assets_",
          "type": "address[]"
        },
        {
          "internalType": "uint256[]",
          "name": "amounts_",
          "type": "uint256[]"
        }
      ],
      "name": "onTransferAmounts",
      "outputs": [],
      "stateMutability": "nonpayable",
      "type": "function"
    },
    {
      "inputs": [],
      "name": "performanceFee",
      "outputs": [
        {
          "internalType": "uint256",
          "name": "",
          "type": "uint256"
        }
      ],
      "stateMutability": "view",
      "type": "function"
    },
    {
      "inputs": [],
      "name": "performanceFeeRatio",
      "outputs": [
        {
          "internalType": "uint256",
          "name": "",
          "type": "uint256"
        }
      ],
      "stateMutability": "view",
      "type": "function"
    },
    {
      "inputs": [],
      "name": "performanceReceiver",
      "outputs": [
        {
          "internalType": "address",
          "name": "",
          "type": "address"
        }
      ],
      "stateMutability": "view",
      "type": "function"
    },
    {
      "inputs": [],
      "name": "previousImplementation",
      "outputs": [
        {
          "internalType": "address",
          "name": "",
          "type": "address"
        }
      ],
      "stateMutability": "view",
      "type": "function"
    },
    {
      "inputs": [],
      "name": "quoteRebalanceSwap",
      "outputs": [
        {
          "internalType": "bool",
          "name": "",
          "type": "bool"
        },
        {
          "internalType": "uint256",
          "name": "",
          "type": "uint256"
        }
      ],
      "stateMutability": "nonpayable",
      "type": "function"
    },
    {
      "inputs": [],
      "name": "rebalance",
      "outputs": [],
      "stateMutability": "nonpayable",
      "type": "function"
    },
    {
      "inputs": [
        {
          "internalType": "bool",
          "name": "direction",
          "type": "bool"
        },
        {
          "internalType": "uint256",
          "name": "amount",
          "type": "uint256"
        },
        {
          "internalType": "address",
          "name": "agg",
          "type": "address"
        },
        {
          "internalType": "bytes",
          "name": "swapData",
          "type": "bytes"
        }
      ],
      "name": "rebalanceSwapByAgg",
      "outputs": [],
      "stateMutability": "nonpayable",
      "type": "function"
    },
    {
      "inputs": [],
      "name": "reinvestThresholdPercent",
      "outputs": [
        {
          "internalType": "uint256",
          "name": "",
          "type": "uint256"
        }
      ],
      "stateMutability": "view",
      "type": "function"
    },
    {
      "inputs": [
        {
          "internalType": "address",
          "name": "theAsset_",
          "type": "address"
        },
        {
          "internalType": "uint256",
          "name": "amount_",
          "type": "uint256"
        }
      ],
      "name": "requirePayAmountBack",
      "outputs": [
        {
          "internalType": "uint256",
          "name": "amountOut",
          "type": "uint256"
        }
      ],
      "stateMutability": "nonpayable",
      "type": "function"
    },
    {
      "inputs": [],
      "name": "revision",
      "outputs": [
        {
          "internalType": "uint256",
          "name": "",
          "type": "uint256"
        }
      ],
      "stateMutability": "view",
      "type": "function"
    },
    {
      "inputs": [
        {
          "internalType": "uint256",
          "name": "value",
          "type": "uint256"
        }
      ],
      "name": "setCompoundRatio",
      "outputs": [],
      "stateMutability": "nonpayable",
      "type": "function"
    },
    {
      "inputs": [
        {
          "internalType": "uint256",
          "name": "newFuseThreshold",
          "type": "uint256"
        }
      ],
      "name": "setFuseThreshold",
      "outputs": [],
      "stateMutability": "nonpayable",
      "type": "function"
    },
    {
      "inputs": [
        {
          "internalType": "address",
          "name": "token",
          "type": "address"
        },
        {
          "internalType": "uint256",
          "name": "amount",
          "type": "uint256"
        }
      ],
      "name": "setLiquidationThreshold",
      "outputs": [],
      "stateMutability": "nonpayable",
      "type": "function"
    },
    {
      "inputs": [
        {
          "internalType": "uint256",
          "name": "ratio_",
          "type": "uint256"
        }
      ],
      "name": "setPerformanceFeeRatio",
      "outputs": [],
      "stateMutability": "nonpayable",
      "type": "function"
    },
    {
      "inputs": [
        {
          "internalType": "uint256",
          "name": "percent_",
          "type": "uint256"
        }
      ],
      "name": "setReinvestThresholdPercent",
      "outputs": [],
      "stateMutability": "nonpayable",
      "type": "function"
    },
    {
      "inputs": [
        {
          "internalType": "address",
          "name": "strategyProfitHolder",
          "type": "address"
        }
      ],
      "name": "setStrategyProfitHolder",
      "outputs": [],
      "stateMutability": "nonpayable",
      "type": "function"
    },
    {
      "inputs": [
        {
          "internalType": "string",
          "name": "name",
          "type": "string"
        }
      ],
      "name": "setStrategySpecificName",
      "outputs": [],
      "stateMutability": "nonpayable",
      "type": "function"
    },
    {
      "inputs": [
        {
          "internalType": "uint256",
          "name": "fee_",
          "type": "uint256"
        },
        {
          "internalType": "address",
          "name": "receiver_",
          "type": "address"
        }
      ],
      "name": "setupPerformanceFee",
      "outputs": [],
      "stateMutability": "nonpayable",
      "type": "function"
    },
    {
      "inputs": [],
      "name": "splitter",
      "outputs": [
        {
          "internalType": "address",
          "name": "",
          "type": "address"
        }
      ],
      "stateMutability": "view",
      "type": "function"
    },
    {
      "inputs": [],
      "name": "strategySpecificName",
      "outputs": [
        {
          "internalType": "string",
          "name": "",
          "type": "string"
        }
      ],
      "stateMutability": "view",
      "type": "function"
    },
    {
      "inputs": [
        {
          "internalType": "bytes4",
          "name": "interfaceId",
          "type": "bytes4"
        }
      ],
      "name": "supportsInterface",
      "outputs": [
        {
          "internalType": "bool",
          "name": "",
          "type": "bool"
        }
      ],
      "stateMutability": "view",
      "type": "function"
    },
    {
      "inputs": [],
      "name": "totalAssets",
      "outputs": [
        {
          "internalType": "uint256",
          "name": "",
          "type": "uint256"
        }
      ],
      "stateMutability": "view",
      "type": "function"
    },
    {
      "inputs": [
        {
          "internalType": "uint256",
          "name": "amount0Owed",
          "type": "uint256"
        },
        {
          "internalType": "uint256",
          "name": "amount1Owed",
          "type": "uint256"
        },
        {
          "internalType": "bytes",
          "name": "",
          "type": "bytes"
        }
      ],
      "name": "uniswapV3MintCallback",
      "outputs": [],
      "stateMutability": "nonpayable",
      "type": "function"
    },
    {
      "inputs": [],
      "name": "withdrawAllToSplitter",
      "outputs": [
        {
          "internalType": "uint256",
          "name": "strategyLoss",
          "type": "uint256"
        }
      ],
      "stateMutability": "nonpayable",
      "type": "function"
    },
    {
      "inputs": [
        {
          "internalType": "uint256",
          "name": "amount",
          "type": "uint256"
        }
      ],
      "name": "withdrawToSplitter",
      "outputs": [
        {
          "internalType": "uint256",
          "name": "strategyLoss",
          "type": "uint256"
        }
      ],
      "stateMutability": "nonpayable",
      "type": "function"
    }
  ],
  "transactionHash": "0x7a74a76aebb4f5248e792472c66942e0eaaa0edaf678d9a9a797b97e4462b13d",
  "args": [],
  "numDeployments": 19,
  "solcInputHash": "f3c8b98bbcba9126d94e64a2d8674daf",
  "bytecode": "0x60806040523480156200001157600080fd5b506200001c62000022565b620000e3565b600054610100900460ff16156200008f5760405162461bcd60e51b815260206004820152602760248201527f496e697469616c697a61626c653a20636f6e747261637420697320696e697469604482015266616c697a696e6760c81b606482015260840160405180910390fd5b60005460ff90811614620000e1576000805460ff191660ff9081179091556040519081527f7f26b83ff96e1f2b6a682f133852f6798a09c465da95921460cefb38474024989060200160405180910390a15b565b615e1680620000f36000396000f3fe608060405234801561001057600080fd5b50600436106102f85760003560e01c80636ffb4c8e11610193578063ab9e3eee116100e4578063d348799711610092578063d3487997146106d7578063db8d55f1146106ea578063de3d047c146106f2578063dee1f0e414610705578063eb5620db14610718578063f77c47911461072b578063ffb86c6a1461073357600080fd5b8063ab9e3eee14610656578063b24575561461065e578063b429afeb14610671578063bd38837b14610684578063cd4c815614610697578063ceee861d146106aa578063d295ea70146106ce57600080fd5b80638778878211610141578063877887821461059b57806387c7f770146105a4578063936725ec146105b757806396b7b14e146105db578063996a6c9c146105ee5780639d0bcca014610612578063a3f4df7e1461061a57600080fd5b80636ffb4c8e1461050357806371ee01751461051657806373a50ef51461051f57806378327438146105435780637cc96380146105635780637d7c2a1c1461056b5780637efc77fa1461057357600080fd5b80634593144c1161024d57806354679963116101fb578063546799631461047f5780635641ec03146104945780635cfc1a511461049c5780636207a0cf146104a657806363e27734146104ca5780636855f30e146104dd5780636b5fba5a146104f057600080fd5b80634593144c146104055780634ad0b6841461040d5780634e71d92d146104155780634fa5d8541461041d5780634fac6ccd1461043a57806351b9c8341461044d57806351e03fbe1461046c57600080fd5b8063261efa12116102aa578063261efa121461039e57806328abdef0146103a7578063321793a8146103af578063325a19f1146103c257806333c5b58e146103ca57806338d52e0f146103d25780633cd8045e146103f257600080fd5b806301e1d114146102fd57806301ffc9a7146103185780630acd12c71461033b5780630e30428d146103435780631865c57d1461035857806322b6f5e214610378578063253de4661461038b575b600080fd5b61030561073b565b6040519081526020015b60405180910390f35b61032b61032636600461499c565b6107c6565b604051901515815260200161030f565b6103056107f1565b6103566103513660046149db565b610913565b005b6103606109b7565b60405161030f9c9b9a99989796959493929190614a42565b610356610386366004614ad3565b610b9c565b610356610399366004614b1a565b610c4c565b61030560735481565b610356610f31565b6103566103bd366004614b96565b611018565b6103056110f3565b610305611127565b603d546103e5906001600160a01b031681565b60405161030f9190614baf565b603e546103e5906001600160a01b031681565b61030561119f565b606f54610305565b6103566111cf565b610425611249565b6040805192835260208301919091520161030f565b610356610448366004614bc3565b6112ae565b6104556113e0565b60408051921515835260208301919091520161030f565b61030561047a366004614b96565b61146b565b610487611633565b60405161030f9190614c30565b6103566116c1565b600160ff1b610305565b610487604051806040016040528060058152602001640c4b8d0b8d60da1b81525081565b6103566104d8366004614c84565b61172e565b6103566104eb366004614b96565b6117b5565b6103566104fe366004614bc3565b61182d565b610356610511366004614b96565b6118be565b61030560725481565b610487604051806040016040528060058152602001640322e332e360dc1b81525081565b610305610551366004614bc3565b60716020526000908152604090205481565b610305611936565b610356611966565b61048760405180604001604052806009815260200168556e6973776170563360b81b81525081565b61030560425481565b6103056105b23660046149db565b611b65565b610487604051806040016040528060058152602001640332e302e360dc1b81525081565b6103566105e9366004614d8d565b611ce9565b610487604051806040016040528060058152602001640c4b8c0b8d60da1b81525081565b6103e5611d88565b6104876040518060400160405280601c81526020017f556e6973776170563320436f6e7665727465722053747261746567790000000081525081565b61032b611db8565b61030561066c366004614e5c565b611e43565b61032b61067f366004614bc3565b611ef2565b6070546103e5906001600160a01b031681565b6041546103e5906001600160a01b031681565b610487604051806040016040528060058152602001640312e322e360dc1b81525081565b610305603f5481565b6103566106e5366004614e81565b611f17565b610425612008565b610356610700366004614b96565b612080565b61032b610713366004614bc3565b612110565b610356610726366004614efa565b612195565b6103e5612337565b61032b612367565b6000610746606f5490565b603d546040516370a0823160e01b81526001600160a01b03909116906370a0823190610776903090600401614baf565b602060405180830381865afa158015610793573d6000803e3d6000fd5b505050506040513d601f19601f820116820180604052508101906107b79190614fa3565b6107c19190614fd2565b905090565b60006001600160e01b0319821663f73147b360e01b14806107eb57506107eb826123fe565b92915050565b603e54603d54604051633e53813360e11b81526000926001600160a01b039081169216908390733BEB969c0cd273eA1d7a39137a757Cf1c474510a90637ca70266906108439086908690600401614fe5565b602060405180830381865af4158015610860573d6000803e3d6000fd5b505050506040513d601f19601f820116820180604052508101906108849190614fa3565b90506000806000610893612423565b925092509250733BEB969c0cd273eA1d7a39137a757Cf1c474510a639ad00ec2868686868b6040518663ffffffff1660e01b81526004016108d8959493929190614fff565b60006040518083038186803b1580156108f057600080fd5b505af4158015610904573d6000803e3d6000fd5b50929998505050505050505050565b733C8b18162cBb11B9D0afe3828f4A6C6e247f30E063142395ef610935612337565b6040516001600160e01b031960e084901b1681526001600160a01b03918216600482015290851660248201526044810184905260640160006040518083038186803b15801561098357600080fd5b505af4158015610997573d6000803e3d6000fd5b5050506001600160a01b0390921660009081526071602052604090205550565b6001546002805460038054600c54600454600954600a5460408051878152608081019091526001600160a01b03998a1699978816988887169890951696600160a01b8704860b96600160c81b8104870b96600160e01b909104810b95600160301b810490910b94600160501b9091046001600160801b03169360ff9091169290916060919060208201838036833701905050600c546040516370a0823160e01b81529192506001600160a01b03808f16926370a0823192610a7c921690600401614baf565b602060405180830381865afa158015610a99573d6000803e3d6000fd5b505050506040513d601f19601f82011682018060405250810190610abd9190614fa3565b81600081518110610ad057610ad061502f565b6020908102919091010152600c546040516370a0823160e01b81526001600160a01b038d8116926370a0823192610b0d9290911690600401614baf565b602060405180830381865afa158015610b2a573d6000803e3d6000fd5b505050506040513d601f19601f82011682018060405250810190610b4e9190614fa3565b81600181518110610b6157610b6161502f565b602002602001018181525050600081600281518110610b8257610b8261502f565b602002602001018181525050909192939495969798999a9b565b733BEB969c0cd273eA1d7a39137a757Cf1c474510a63b4339948610bbe612337565b6040516001600160e01b031960e084901b1681526001600160a01b03918216600482015260248101869052908416604482015260640160006040518083038186803b158015610c0c57600080fd5b505af4158015610c20573d6000803e3d6000fd5b505050604292909255604180546001600160a01b0319166001600160a01b039290921691909117905550565b600054610100900460ff1615808015610c6c5750600054600160ff909116105b80610c865750303b158015610c86575060005460ff166001145b610cee5760405162461bcd60e51b815260206004820152602e60248201527f496e697469616c697a61626c653a20636f6e747261637420697320616c72656160448201526d191e481a5b9a5d1a585b1a5e995960921b60648201526084015b60405180910390fd5b6000805460ff191660011790558015610d11576000805461ff0019166101001790555b610d1c87878761243e565b732A9053266fad8d696ae2f960D21EC622B29e9fcd63928f8493600189888888888d6001600160a01b03166338d52e0f6040518163ffffffff1660e01b8152600401602060405180830381865afa158015610d7b573d6000803e3d6000fd5b505050506040513d601f19601f82011682018060405250810190610d9f9190615045565b6040516001600160e01b031960e08a901b16815260048101979097526001600160a01b03958616602488015293851660448701529184166064860152600290810b60848601520b60a48401521660c482015260e40160006040518083038186803b158015610e0c57600080fd5b505af4158015610e20573d6000803e3d6000fd5b5050604051631ade875b60e31b815260016004820152732A9053266fad8d696ae2f960D21EC622B29e9fcd925063d6f43ad89150602401600060405180830381865af4158015610e74573d6000803e3d6000fd5b505050506040513d6000823e601f3d908101601f19168201604052610e9c9190810190615092565b604390610ea9908261515a565b507f13bdeb5b5bb760c04b92d93e56c576c6805359d41a13d3cca178aa7c8526b9846043604051610eda9190615219565b60405180910390a18015610f28576000805461ff0019169055604051600181527f7f26b83ff96e1f2b6a682f133852f6798a09c465da95921460cefb38474024989060200160405180910390a15b50505050505050565b733BEB969c0cd273eA1d7a39137a757Cf1c474510a63493f6edc610f53612337565b6040518263ffffffff1660e01b8152600401610f6f9190614baf565b60006040518083038186803b158015610f8757600080fd5b505af4158015610f9b573d6000803e3d6000fd5b5050607054604051630dfae47f60e21b8152600160048201526001600160a01b039091166024820152732A9053266fad8d696ae2f960D21EC622B29e9fcd92506337eb91fc91506044015b60006040518083038186803b158015610ffe57600080fd5b505af4158015611012573d6000803e3d6000fd5b50505050565b733BEB969c0cd273eA1d7a39137a757Cf1c474510a63493f6edc61103a612337565b6040518263ffffffff1660e01b81526004016110569190614baf565b60006040518083038186803b15801561106e57600080fd5b505af4158015611082573d6000803e3d6000fd5b5050604051634479deaf60e11b81526001600482015260248101849052732A9053266fad8d696ae2f960D21EC622B29e9fcd92506388f3bd5e915060440160006040518083038186803b1580156110d857600080fd5b505af41580156110ec573d6000803e3d6000fd5b5050505050565b60006107c161112360017f6f55f470bdc9cb5f04223fd822021061668e4dccb43e8727b295106dc9769c8b6152a4565b5490565b6000733BEB969c0cd273eA1d7a39137a757Cf1c474510a63493f6edc61114b612337565b6040518263ffffffff1660e01b81526004016111679190614baf565b60006040518083038186803b15801561117f57600080fd5b505af4158015611193573d6000803e3d6000fd5b505050506107c16124e0565b60006107c161112360017f812a673dfca07956350df10f8a654925f561d7a0da09bdbe79e653939a14d9f16152a4565b733BEB969c0cd273eA1d7a39137a757Cf1c474510a63d19cc38a6111f1612337565b6040518263ffffffff1660e01b815260040161120d9190614baf565b60006040518083038186803b15801561122557600080fd5b505af4158015611239573d6000803e3d6000fd5b505050506112456125a6565b5050565b603e5460408051808201909152600a81526914d08e8811195b9a595960b21b60208201526000918291906001600160a01b0316331461129b5760405162461bcd60e51b8152600401610ce59190614c30565b506112a66001612662565b915091509091565b3330146112fd5760405162461bcd60e51b815260206004820152601b60248201527f496e637265617365207265766973696f6e20666f7262696464656e00000000006044820152606401610ce5565b600061132d61112360017f22573091f17911fb166032a3d9e0554aa73d31b7b7ddea4a4dd2995650af84bd6152a4565b611338906001614fd2565b905061136c8161136960017f22573091f17911fb166032a3d9e0554aa73d31b7b7ddea4a4dd2995650af84bd6152a4565b55565b61139b8261136960017fbfaaa2fb63266ff27c2da975f5894955056f50419af651a81f6c5060581857e46152a4565b604080518281526001600160a01b03841660208201527ff27e2ef832a4eb8ed8ec553b875eecd44764cda95b1c24170e281539e0a869c8910160405180910390a15050565b607054604051633bcd1d6b60e21b8152600160048201526001600160a01b0390911660248201526000908190732A9053266fad8d696ae2f960D21EC622B29e9fcd9063ef3475ac906044016040805180830381865af4158015611447573d6000803e3d6000fd5b505050506040513d601f19601f820116820180604052508101906112a691906152b7565b603e54603d54604051633e53813360e11b81526000926001600160a01b039081169216908390733BEB969c0cd273eA1d7a39137a757Cf1c474510a90637ca70266906114bd9086908690600401614fe5565b602060405180830381865af41580156114da573d6000803e3d6000fd5b505050506040513d601f19601f820116820180604052508101906114fe9190614fa3565b9050808511156115aa5760008061151d61151884896152a4565b612796565b604051631594b05b60e01b81529098509193509150733BEB969c0cd273eA1d7a39137a757Cf1c474510a90631594b05b906115649087908790879087908c90600401614fff565b602060405180830381865af4158015611581573d6000803e3d6000fd5b505050506040513d601f19601f820116820180604052508101906115a59190614fa3565b925050505b6040516333bbb20360e11b815260048101869052602481018290526001600160a01b03808416604483015284166064820152733BEB969c0cd273eA1d7a39137a757Cf1c474510a9063677764069060840160006040518083038186803b15801561161357600080fd5b505af4158015611627573d6000803e3d6000fd5b50505050505050919050565b60438054611640906150da565b80601f016020809104026020016040519081016040528092919081815260200182805461166c906150da565b80156116b95780601f1061168e576101008083540402835291602001916116b9565b820191906000526020600020905b81548152906001019060200180831161169c57829003601f168201915b505050505081565b6116c96127c7565b733BEB969c0cd273eA1d7a39137a757Cf1c474510a63bd0206826116eb612337565b603d54603e5460405160e085901b6001600160e01b03191681526001600160a01b0393841660048201529183166024830152919091166044820152606401610fe6565b733BEB969c0cd273eA1d7a39137a757Cf1c474510a63eae13e76611750612337565b84846040518463ffffffff1660e01b8152600401611770939291906152e5565b60006040518083038186803b15801561178857600080fd5b505af415801561179c573d6000803e3d6000fd5b50604392506117b091508390508483615325565b505050565b733C8b18162cBb11B9D0afe3828f4A6C6e247f30E063a0113d486117d7612337565b836040518363ffffffff1660e01b81526004016117f59291906153e4565b60006040518083038186803b15801561180d57600080fd5b505af4158015611821573d6000803e3d6000fd5b50505060739190915550565b733BEB969c0cd273eA1d7a39137a757Cf1c474510a63493f6edc61184f612337565b6040518263ffffffff1660e01b815260040161186b9190614baf565b60006040518083038186803b15801561188357600080fd5b505af4158015611897573d6000803e3d6000fd5b5050600c80546001600160a01b0319166001600160a01b0394909416939093179092555050565b733C8b18162cBb11B9D0afe3828f4A6C6e247f30E063d2c3cf256118e0612337565b836040518363ffffffff1660e01b81526004016118fe9291906153e4565b60006040518083038186803b15801561191657600080fd5b505af415801561192a573d6000803e3d6000fd5b50505060729190915550565b60006107c161112360017f22573091f17911fb166032a3d9e0554aa73d31b7b7ddea4a4dd2995650af84bd6152a4565b6000611970612337565b60405163124fdbb760e21b8152909150733BEB969c0cd273eA1d7a39137a757Cf1c474510a9063493f6edc906119aa908490600401614baf565b60006040518083038186803b1580156119c257600080fd5b505af41580156119d6573d6000803e3d6000fd5b5050505060006119e660016128ca565b9150506000816119f461073b565b6119fe91906152a4565b600454909150600160501b90046001600160801b031615611a2357611a21612983565b505b607054603e546040516343478f1760e01b8152600160048201526001600160a01b03928316602482015285831660448201526064810184905260848101859052911660a48201526000908190732A9053266fad8d696ae2f960D21EC622B29e9fcd906343478f179060c401600060405180830381865af4158015611aab573d6000803e3d6000fd5b505050506040513d6000823e601f3d908101601f19168201604052611ad39190810190615458565b915091508151600203611b5557611ae982612995565b50508015611b555760405163ec4955b960e01b815260016004820152732A9053266fad8d696ae2f960D21EC622B29e9fcd9063ec4955b99060240160006040518083038186803b158015611b3c57600080fd5b505af4158015611b50573d6000803e3d6000fd5b505050505b611b5d612a90565b505050505050565b60705460408051808201909152600a81526914d08e8811195b9a595960b21b60208201526000916001600160a01b031690338214611bb65760405162461bcd60e51b8152600401610ce59190614c30565b50600080611bc386612aa4565b915091506000611bd287612b10565b905085811015611c38576000611be6612b80565b90508015611c36576000611bf982612b96565b90507faebc771af58936b05e89b0be7d3f9761480181abcd4a649fbdd01753fda169708282604051611c2c92919061549e565b60405180910390a1505b505b734dC0dfFFd2de28f7A822Fe1139127e3dc1Af86FA6399c1fde487848688611c5e612337565b603d546040516001600160e01b031960e089901b168152611c939695949392916001600160a01b0316906071906004016154f0565b602060405180830381865af4158015611cb0573d6000803e3d6000fd5b505050506040513d601f19601f82011682018060405250810190611cd49190614fa3565b9450611cde612a90565b505050505092915050565b60705460408051808201909152600a81526914d08e8811195b9a595960b21b6020820152906001600160a01b03163314611d365760405162461bcd60e51b8152600401610ce59190614c30565b508151815160408051808201909152600d81526c54532d3139206c656e6774687360981b6020820152908214611d7f5760405162461bcd60e51b8152600401610ce59190614c30565b50611012612a90565b60006107c161112360017fbfaaa2fb63266ff27c2da975f5894955056f50419af651a81f6c5060581857e46152a4565b607054604051635ca1bcdf60e01b8152600160048201526001600160a01b039091166024820152600090732A9053266fad8d696ae2f960D21EC622B29e9fcd90635ca1bcdf906044015b602060405180830381865af4158015611e1f573d6000803e3d6000fd5b505050506040513d601f19601f820116820180604052508101906107c1919061553f565b603e54603d546040516001625acc3160e01b031981526000928392733BEB969c0cd273eA1d7a39137a757Cf1c474510a9263ffa533cf92611e95926001600160a01b0391821692911690600401614fe5565b602060405180830381865af4158015611eb2573d6000803e3d6000fd5b505050506040513d601f19601f82011682018060405250810190611ed69190614fa3565b90508015611eeb57611ee88184612caa565b91505b5092915050565b6000611efc612337565b6001600160a01b0316826001600160a01b0316149050919050565b60035460408051808201909152601a81527f5533532d3131204e6f742063616c6c6261636b2063616c6c65720000000000006020820152906001600160a01b03163314611f775760405162461bcd60e51b8152600401610ce59190614c30565b508315611fc557600454611fc59033908690600160481b900460ff16611fa8576001546001600160a01b0316611fb5565b6002546001600160a01b03165b6001600160a01b03169190612d4d565b8215611012576004546110129033908590600160481b900460ff16611ff5576002546001600160a01b0316611fb5565b6001546001600160a01b03169190612d4d565b604051631a2d761b60e11b8152600160048201526000908190732A9053266fad8d696ae2f960D21EC622B29e9fcd9063345aec36906024016040805180830381865af415801561205c573d6000803e3d6000fd5b505050506040513d601f19601f820116820180604052508101906112a6919061555c565b733BEB969c0cd273eA1d7a39137a757Cf1c474510a630568a9d56120a2612337565b603f546040516001600160e01b031960e085901b1681526001600160a01b03909216600483015260248201526044810184905260640160006040518083038186803b1580156120f057600080fd5b505af4158015612104573d6000803e3d6000fd5b505050603f9190915550565b6000816001600160a01b0316612124612337565b6001600160a01b0316635aa6e6756040518163ffffffff1660e01b8152600401602060405180830381865afa158015612161573d6000803e3d6000fd5b505050506040513d601f19601f820116820180604052508101906121859190615045565b6001600160a01b03161492915050565b600061219f612337565b60405163124fdbb760e21b8152909150733BEB969c0cd273eA1d7a39137a757Cf1c474510a9063493f6edc906121d9908490600401614baf565b60006040518083038186803b1580156121f157600080fd5b505af4158015612205573d6000803e3d6000fd5b50505050600061221560016128ca565b91505060008161222361073b565b61222d91906152a4565b600454909150600160501b90046001600160801b03161561225257612250612983565b505b607054604080516080810182528915158152602081018990526001600160a01b038881168284015260608201889052603e54925163c064742360e01b8152600094732A9053266fad8d696ae2f960D21EC622B29e9fcd9463c0647423946122c894600194938116938a938c921690600401615580565b600060405180830381865af41580156122e5573d6000803e3d6000fd5b505050506040513d6000823e601f3d908101601f1916820160405261230d91908101906155f8565b905080516002036123245761232181612995565b50505b61232c612a90565b505050505050505050565b60006107c161112360017f5165972ef41194f06c5007493031d0b927c20741adcb74403b954009fd2c36186152a4565b60095460035460048054604051632beacd5760e11b815260ff9094161515918401919091526001600160a01b0382166024840152600160c81b8204600290810b6044850152600160e01b8304810b6064850152600160a01b909204820b6084840152600160301b9004900b60a4820152600090732A9053266fad8d696ae2f960D21EC622B29e9fcd906357d59aae9060c401611e02565b60006001600160e01b0319821663c19fa56160e01b14806107eb57506107eb82612da3565b6000806000612433600019612796565b925092509250909192565b600054610100900460ff166124655760405162461bcd60e51b8152600401610ce59061562c565b61246f8383612dd8565b607080546001600160a01b0319166001600160a01b0383161790556124986064620186a0615677565b6072557fe4166dfcf23bbd3e3f764a99dc8fa740554c03c82d6019b81cf265f396f6f2fe6124ca6064620186a0615677565b60405190815260200160405180910390a1505050565b603d54600090819081906124fc906001600160a01b0316612aa4565b91509150734dC0dfFFd2de28f7A822Fe1139127e3dc1Af86FA63c9bce6908361252b612526612b80565b612fa0565b6070546040516001600160e01b031960e086901b16815261255e93929187916001600160a01b0390911690600401615699565b602060405180830381865af415801561257b573d6000803e3d6000fd5b505050506040513d601f19601f8201168201806040525081019061259f9190614fa3565b9250505090565b60608060008060006125b661302a565b6070549295509093509150733C8b18162cBb11B9D0afe3828f4A6C6e247f30E09063e99de4da906001600160a01b03166125ee6130b5565b8686866040518663ffffffff1660e01b81526004016126119594939291906156e0565b600060405180830381865af415801561262e573d6000803e3d6000fd5b505050506040513d6000823e601f3d908101601f1916820160405261265691908101906157ae565b90969095509350505050565b60008060008061267260016128ca565b91509150600061268061314c565b9196509450905060006126d287801561269857508415155b80156126be5750620186a0856072546126b19190615807565b6126bb9190615677565b83115b6126c95760006126cb565b825b8486613221565b915060009050806127196126e68588614fd2565b603d5485906126fd906001600160a01b0316612b10565b606f5461270a9190614fd2565b6127149190614fd2565b6134e2565b915091506040805187815260208101879052908101899052606081018890526080810183905260a081018290527f3e9abbc366dbf9fe260e2640c06eefbedd7720cf986ae553374e46b804f4ff559060c00160405180910390a161277d8289614fd2565b6127878289614fd2565b97509750505050505050915091565b60008060008060006127a860016128ca565b915091506127b7868284613512565b5091989097509095509350505050565b60006127d1612983565b90507f768a28cb3459382a3d2173feb2dad0235f8de680b109872da581a3aa269fe5f481604051612802919061581e565b60405180910390a1603d546000908190612824906001600160a01b0316612aa4565b6070549193509150734dC0dfFFd2de28f7A822Fe1139127e3dc1Af86FA906358b54f16906001600160a01b031661286161285c612337565b613bf0565b846071600019886040518763ffffffff1660e01b815260040161288996959493929190615831565b602060405180830381865af41580156128a6573d6000803e3d6000fd5b505050506040513d601f19601f82011682018060405250810190611d7f9190614fa3565b600080821561297757606f546128de612a90565b603e54604051636e5b9cc760e11b815260048101849052602481018390526001600160a01b039091166044820152909350734dC0dfFFd2de28f7A822Fe1139127e3dc1Af86FA9063dcb7398e90606401602060405180830381865af415801561294b573d6000803e3d6000fd5b505050506040513d601f19601f8201168201806040525081019061296f9190614fa3565b915050915091565b5050606f546000915091565b60606107c1612990612b80565b612b96565b60035460048054604051638008936760e01b8152606093600093732A9053266fad8d696ae2f960D21EC622B29e9fcd93638008936793612a17936001600160a01b03811693600160c81b8204600290810b94600160e01b909304900b928b92600160501b81046001600160801b031692600160481b90910460ff16910161586e565b600060405180830381865af4158015612a34573d6000803e3d6000fd5b505050506040513d6000823e601f3d908101601f19168201604052612a5c91908101906158c4565b600480546001600160801b03909216600160501b02600160501b600160d01b03199092169190911790559094909350915050565b6000612a9a6124e0565b606f819055919050565b60606000612ab06130b5565b9150612abc8284613c54565b90506000198114156040518060400160405280600f81526020016e53423a2057726f6e672076616c756560881b81525090612b0a5760405162461bcd60e51b8152600401610ce59190614c30565b50915091565b6040516370a0823160e01b81526000906001600160a01b038316906370a0823190612b3f903090600401614baf565b602060405180830381865afa158015612b5c573d6000803e3d6000fd5b505050506040513d601f19601f820116820180604052508101906107eb9190614fa3565b600454600160501b90046001600160801b031690565b6060600080612ba3612008565b6040516302c8fd9160e01b8152600160048201526001600160801b03871660248201529193509150732A9053266fad8d696ae2f960D21EC622B29e9fcd906302c8fd9190604401600060405180830381865af4158015612c07573d6000803e3d6000fd5b505050506040513d6000823e601f3d908101601f19168201604052612c2f91908101906155f8565b6040516336bddd6560e01b8152600160048201526024810184905260448101839052909350732A9053266fad8d696ae2f960D21EC622B29e9fcd906336bddd659060640160006040518083038186803b158015612c8b57600080fd5b505af4158015612c9f573d6000803e3d6000fd5b505050505050919050565b60095460009060ff1615612d3c576040805160028082526060820183526000926020830190803683370190505090508381600081518110612ced57612ced61502f565b6020026020010181815250507f59400c8c523464b521238ea8f50e923f2bc64663557e6afec92a97f7efe92d058182604051612d2a92919061592a565b60405180910390a160009150506107eb565b612d468383613cb2565b90506107eb565b6117b08363a9059cbb60e01b8484604051602401612d6c9291906153e4565b60408051601f198184030181529190526020810180516001600160e01b03166001600160e01b031990931692909217909152613cd9565b60006001600160e01b0319821663b7b79fa960e01b14806107eb57506301ffc9a760e01b6001600160e01b03198316146107eb565b600054610100900460ff16612dff5760405162461bcd60e51b8152600401610ce59061562c565b612e29817fd2de0374d4479f33e63ae5ed6ca772a10463dd883a90c612050b51fab6196400613dab565b612e3282613e01565b60405163b429afeb60e01b81526001600160a01b0382169063b429afeb90612e5e908590600401614baf565b602060405180830381865afa158015612e7b573d6000803e3d6000fd5b505050506040513d601f19601f82011682018060405250810190612e9f919061553f565b6040518060400160405280600f81526020016e53423a2057726f6e672076616c756560881b81525090612ee55760405162461bcd60e51b8152600401610ce59190614c30565b50806001600160a01b03166338d52e0f6040518163ffffffff1660e01b8152600401602060405180830381865afa158015612f24573d6000803e3d6000fd5b505050506040513d601f19601f82011682018060405250810190612f489190615045565b603d80546001600160a01b039283166001600160a01b031991821617909155603e80549390921692811692909217905560418054909116739cc199d4353b5fb3e6c8eebc99f5139e0d8ea06b17905550612710604255565b6040516363289c6f60e11b8152600160048201526001600160801b0382166024820152606090732A9053266fad8d696ae2f960D21EC622B29e9fcd9063c65138de90604401600060405180830381865af4158015613002573d6000803e3d6000fd5b505050506040513d6000823e601f3d908101601f191682016040526107eb91908101906155f8565b604051636345dc7960e11b81526001600482015260609081908190732A9053266fad8d696ae2f960D21EC622B29e9fcd9063c68bb8f290602401600060405180830381865af4158015613081573d6000803e3d6000fd5b505050506040513d6000823e601f3d908101601f191682016040526130a99190810190615958565b91959094509092509050565b6040805160028082526060808301845292602083019080368337505060015482519293506001600160a01b0316918391506000906130f5576130f561502f565b6001600160a01b0392831660209182029290920101526002548251911690829060019081106131265761312661502f565b60200260200101906001600160a01b031690816001600160a01b03168152505090565b50565b600080600080600061315c6125a6565b6001549193509150732A9053266fad8d696ae2f960D21EC622B29e9fcd906334d2ec3d906001600160a01b0316613191612337565b85856040518563ffffffff1660e01b81526004016131b294939291906159df565b602060405180830381865af41580156131cf573d6000803e3d6000fd5b505050506040513d601f19601f820116820180604052508101906131f39190614fa3565b94506131ff8282614026565b603d5460009450613218906001600160a01b0316612b10565b92505050909192565b603d5460009081906001600160a01b03168185871161324157600061324b565b61324b86886152a4565b9050620186a08560725461325f9190615807565b6132699190615677565b81111561340957851561331857603e54733C8b18162cBb11B9D0afe3828f4A6C6e247f30E09063aac2718a90849089906001600160a01b03166132ab83612b10565b6132b5908b614fd2565b6040518563ffffffff1660e01b81526004016132d49493929190615a28565b602060405180830381865af41580156132f1573d6000803e3d6000fd5b505050506040513d601f19601f820116820180604052508101906133159190614fa3565b92505b600061332383612b10565b603d549091506000908190613340906001600160a01b0316612aa4565b6070549193509150600090613360906001600160a01b03168685856140c6565b9050600061336d82612995565b5090507f59400c8c523464b521238ea8f50e923f2bc64663557e6afec92a97f7efe92d0582826040516133a192919061592a565b60405180910390a160006133b3612a90565b905060006133c089612b10565b90506133cc878d614fd2565b6133d68284614fd2565b10156133fd576133e68183614fd2565b6133f0888e614fd2565b6133fa91906152a4565b9a505b505050505050506134d8565b85156134d857600061341a83612b10565b90508681101561343d5761343060008888613512565b90975095506134d6915050565b603e54733C8b18162cBb11B9D0afe3828f4A6C6e247f30E09063aac2718a9085908a906001600160a01b0316613473868c614fd2565b6040518563ffffffff1660e01b81526004016134929493929190615a28565b602060405180830381865af41580156134af573d6000803e3d6000fd5b505050506040513d601f19601f820116820180604052508101906134d39190614fa3565b93505b505b5050935093915050565b600080838311156134fe576134f784846152a4565b915061350b565b61350883856152a4565b90505b9250929050565b600080600080613521876142ff565b6135bc604051806102200160405280600015158152602001606081526020016000815260200160008152602001600081526020016000815260200160608152602001600081526020016060815260200160008152602001600081526020016060815260200160006001600160a01b0316815260200160008152602001600081526020016060815260200160006001600160a01b031681525090565b600019881480825260009350806135db57506135d88789614fd2565b15155b80156135e657508515155b15613bd7576135f36130b5565b6101608201819052603d546001600160a01b0390811661018084018190526070549091166102008401526136279190613c54565b6101a082015261018081015161363c90612b10565b6101c082015261364a614353565b6020820152613657612b80565b6040820152613664612b80565b6060820152610200810151610180820151604051637a55caf360e01b8152734dC0dfFFd2de28f7A822Fe1139127e3dc1Af86FA92637a55caf3926136aa92600401614fe5565b602060405180830381865af41580156136c7573d6000803e3d6000fd5b505050506040513d601f19601f820116820180604052508101906136eb9190614fa3565b60a08201528051733C8b18162cBb11B9D0afe3828f4A6C6e247f30E09063ec0cc4fd906137215761371c898b614fd2565b613724565b60005b30846101600151856101a001518661020001518c88606001516040518863ffffffff1660e01b815260040161375f9796959493929190615a52565b600060405180830381865af415801561377c573d6000803e3d6000fd5b505050506040513d6000823e601f3d908101601f191682016040526137a49190810190615aa1565b60c083015260808201819052156138e2576137c28160800151612b96565b6101e08201526137d0612b80565b81606001516137df91906152a4565b608082018190526101e08201516040517faebc771af58936b05e89b0be7d3f9761480181abcd4a649fbdd01753fda169709261381c92909161549e565b60405180910390a1734dC0dfFFd2de28f7A822Fe1139127e3dc1Af86FA637a9a23e5826102000151836101600151846101a001518560200151866080015187604001518860c00151896101e001516040518963ffffffff1660e01b815260040161388d989796959493929190615add565b600060405180830381865af41580156138aa573d6000803e3d6000fd5b505050506040513d6000823e601f3d908101601f191682016040526138d29190810190615b5f565b60c083015261010082015261397e565b6102008101516101608201516101a083015160c0840151604051636138ea8560e01b8152734dC0dfFFd2de28f7A822Fe1139127e3dc1Af86FA94636138ea85946139329491939092600401615b95565b600060405180830381865af415801561394f573d6000803e3d6000fd5b505050506040513d6000823e601f3d908101601f1916820160405261397791908101906155f8565b6101008201525b734dC0dfFFd2de28f7A822Fe1139127e3dc1Af86FA63f1f2b573826101600151836101a001518460c001518561020001516139ba61285c612337565b87516139d1578d8f6139cc9190614fd2565b6139d3565b8e5b88610100015160716040518963ffffffff1660e01b81526004016139fe989796959493929190615bd1565b602060405180830381865af4158015613a1b573d6000803e3d6000fd5b505050506040513d601f19601f82011682018060405250810190613a3f9190614fa3565b8160e001818151613a509190614fd2565b9052508615613aff57610180810151603e546101c0830151733C8b18162cBb11B9D0afe3828f4A6C6e247f30E09263aac2718a9290918b916001600160a01b031690613a9c908c614fd2565b6040518563ffffffff1660e01b8152600401613abb9493929190615a28565b602060405180830381865af4158015613ad8573d6000803e3d6000fd5b505050506040513d601f19601f82011682018060405250810190613afc9190614fa3565b91505b613b07612a90565b610120820152610180810151613b1c90612b10565b6101408201526101c0810151613b329087614fd2565b87826101400151836101200151613b499190614fd2565b613b539190614fd2565b1015613ba15786816101400151826101200151613b709190614fd2565b613b7a9190614fd2565b6101c0820151613b8a9088614fd2565b613b9491906152a4565b613b9e9084614fd2565b92505b670de0b6b3a76400008160a001518260e00151613bbe9190615807565b613bc89190615677565b8160a001519450945050613be7565b6000806000809450945094509450505b93509350935093565b6000816001600160a01b0316634046ebae6040518163ffffffff1660e01b8152600401602060405180830381865afa158015613c30573d6000803e3d6000fd5b505050506040513d601f19601f820116820180604052508101906107eb9190615045565b8151600090815b81811015613ca657836001600160a01b0316858281518110613c7f57613c7f61502f565b60200260200101516001600160a01b031603613c9e5791506107eb9050565b600101613c5b565b50600019949350505050565b6000806000613cc0846128ca565b91509150613ccf858284613221565b5095945050505050565b6000613d2e826040518060400160405280602081526020017f5361666545524332303a206c6f772d6c6576656c2063616c6c206661696c6564815250856001600160a01b03166143ce9092919063ffffffff16565b8051909150156117b05780806020019051810190613d4c919061553f565b6117b05760405162461bcd60e51b815260206004820152602a60248201527f5361666545524332303a204552433230206f7065726174696f6e20646964206e6044820152691bdd081cdd58d8d9595960b21b6064820152608401610ce5565b613db582826143e7565b6112455760405162461bcd60e51b815260206004820152601a60248201527f496e74657266616365206973206e6f7420737570706f727465640000000000006044820152606401610ce5565b600054610100900460ff16613e285760405162461bcd60e51b8152600401610ce59061562c565b6001600160a01b038116613e705760405162461bcd60e51b815260206004820152600f60248201526e2d32b9379031b7b73a3937b63632b960891b6044820152606401610ce5565b613e9a817f4c2403fdcb3cff9b705d96bf0705858e3390412670a62c8bcba611ca7e20ab86613dab565b60006001600160a01b0316816001600160a01b0316635aa6e6756040518163ffffffff1660e01b8152600401602060405180830381865afa158015613ee3573d6000803e3d6000fd5b505050506040513d601f19601f82011682018060405250810190613f079190615045565b6001600160a01b031603613f4f5760405162461bcd60e51b815260206004820152600f60248201526e5a65726f20676f7665726e616e636560881b6044820152606401610ce5565b613f7e8161136960017f5165972ef41194f06c5007493031d0b927c20741adcb74403b954009fd2c36186152a4565b613fad4261136960017f6f55f470bdc9cb5f04223fd822021061668e4dccb43e8727b295106dc9769c8b6152a4565b613fdc4361136960017f812a673dfca07956350df10f8a654925f561d7a0da09bdbe79e653939a14d9f16152a4565b604080516001600160a01b0383168152426020820152438183015290517f1a2dd071001ebf6e03174e3df5b305795a4ad5d41d8fdb9ba41dbbe2367134269181900360600190a150565b815180156117b057600061403a84846144c5565b9050733C8b18162cBb11B9D0afe3828f4A6C6e247f30E063acf741a361405e612337565b603e546040516001600160e01b031960e085901b16815261409092916001600160a01b031690899087906004016159df565b60006040518083038186803b1580156140a857600080fd5b505af41580156140bc573d6000803e3d6000fd5b5050505050505050565b60606140d0612367565b15604051806040016040528060148152602001735533532d31204e65656420726562616c616e636560601b8152509061411c5760405162461bcd60e51b8152600401610ce59190614c30565b506040805160028082526060820183529091602083019080368337019050506003546004805460405163a1d4398960e01b81526001600160a01b03841692810192909252600160c81b8304600290810b6024840152600160e01b90930490920b6044820152600160481b90910460ff16151560648201529091506000908190732A9053266fad8d696ae2f960D21EC622B29e9fcd9063a1d4398990608401600060405180830381865af41580156141d7573d6000803e3d6000fd5b505050506040513d6000823e601f3d908101601f191682016040526141ff9190810190615092565b600154909150614219906001600160a01b0316878961467a565b60015460025460405163ca27d10d60e01b8152734dC0dfFFd2de28f7A822Fe1139127e3dc1Af86FA9263ca27d10d9261426c928c9287926001600160a01b03918216929116908d90600090600401615c47565b6040805180830381865af4158015614288573d6000803e3d6000fd5b505050506040513d601f19601f820116820180604052508101906142ac919061555c565b846001815181106142bf576142bf61502f565b602090810291909101015291506142d682876152a4565b836000815181106142e9576142e961502f565b6020026020010181815250505050949350505050565b614307612367565b15604051806040016040528060148152602001735533532d31204e65656420726562616c616e636560601b815250906112455760405162461bcd60e51b8152600401610ce59190614c30565b604051630a65e5e760e01b815260016004820152606090732A9053266fad8d696ae2f960D21EC622B29e9fcd90630a65e5e790602401600060405180830381865af41580156143a6573d6000803e3d6000fd5b505050506040513d6000823e601f3d908101601f191682016040526107c191908101906155f8565b60606143dd848460008561471e565b90505b9392505050565b60006001600160a01b03831661442e5760405162461bcd60e51b815260206004820152600c60248201526b5a65726f206164647265737360a01b6044820152606401610ce5565b823b60008190036144435760009150506107eb565b6040516301ffc9a760e01b81526001600160e01b0319841660048201526001600160a01b038516906301ffc9a790602401602060405180830381865afa9250505080156144ad575060408051601f3d908101601f191682019092526144aa9181019061553f565b60015b156144bb5791506107eb9050565b5060009392505050565b603d54607054603f546060926001600160a01b0390811692600092734dC0dfFFd2de28f7A822Fe1139127e3dc1Af86FA9263ef50284f92169085906145086130b5565b61451361285c612337565b60718c8c6042546040518a63ffffffff1660e01b815260040161453e99989796959493929190615c8f565b600060405180830381865af415801561455b573d6000803e3d6000fd5b505050506040513d6000823e601f3d908101601f191682016040526145839190810190615d13565b603e54604154607354604051631248faf160e21b81526001600160a01b038089166004830152602482018690529384166044820152929091166064830152608482015291945091506000908190733C8b18162cBb11B9D0afe3828f4A6C6e247f30E090634923ebc49060a4016040805180830381865af415801561460b573d6000803e3d6000fd5b505050506040513d601f19601f8201168201806040525081019061462f919061555c565b915091507f4c300a656bfa0935e36cd55e92634bc20b2b7e0a0ebf424a2a25bfaac3a01e76878684846040516146689493929190615d59565b60405180910390a15050505092915050565b604051636eb1769f60e11b815282906001600160a01b0385169063dd62ed3e906146aa9030908690600401614fe5565b602060405180830381865afa1580156146c7573d6000803e3d6000fd5b505050506040513d601f19601f820116820180604052508101906146eb9190614fa3565b10156117b0576147066001600160a01b0384168260006147fb565b6117b06001600160a01b03841682600160ff1b6147fb565b60608247101561477f5760405162461bcd60e51b815260206004820152602660248201527f416464726573733a20696e73756666696369656e742062616c616e636520666f6044820152651c8818d85b1b60d21b6064820152608401610ce5565b600080866001600160a01b0316858760405161479b9190615dc4565b60006040518083038185875af1925050503d80600081146147d8576040519150601f19603f3d011682016040523d82523d6000602084013e6147dd565b606091505b50915091506147ee878383876148fe565b925050505b949350505050565b8015806148745750604051636eb1769f60e11b81526001600160a01b0384169063dd62ed3e906148319030908690600401614fe5565b602060405180830381865afa15801561484e573d6000803e3d6000fd5b505050506040513d601f19601f820116820180604052508101906148729190614fa3565b155b6148df5760405162461bcd60e51b815260206004820152603660248201527f5361666545524332303a20617070726f76652066726f6d206e6f6e2d7a65726f60448201527520746f206e6f6e2d7a65726f20616c6c6f77616e636560501b6064820152608401610ce5565b6117b08363095ea7b360e01b8484604051602401612d6c9291906153e4565b6060831561496d578251600003614966576001600160a01b0385163b6149665760405162461bcd60e51b815260206004820152601d60248201527f416464726573733a2063616c6c20746f206e6f6e2d636f6e74726163740000006044820152606401610ce5565b50816147f3565b6147f383838151156149825781518083602001fd5b8060405162461bcd60e51b8152600401610ce59190614c30565b6000602082840312156149ae57600080fd5b81356001600160e01b0319811681146143e057600080fd5b6001600160a01b038116811461314957600080fd5b600080604083850312156149ee57600080fd5b82356149f9816149c6565b946020939093013593505050565b600081518084526020808501945080840160005b83811015614a3757815187529582019590820190600101614a1b565b509495945050505050565b6001600160a01b038d811682528c811660208301528b811660408301528a166060820152600289810b608083015288810b60a083015287810b60c083015286900b60e082015260006001600160801b03861661010083015284151561012083015283610140830152610180610160830152614ac1610180830184614a07565b9e9d5050505050505050505050505050565b60008060408385031215614ae657600080fd5b823591506020830135614af8816149c6565b809150509250929050565b8035600281900b8114614b1557600080fd5b919050565b60008060008060008060c08789031215614b3357600080fd5b8635614b3e816149c6565b95506020870135614b4e816149c6565b94506040870135614b5e816149c6565b93506060870135614b6e816149c6565b9250614b7c60808801614b03565b9150614b8a60a08801614b03565b90509295509295509295565b600060208284031215614ba857600080fd5b5035919050565b6001600160a01b0391909116815260200190565b600060208284031215614bd557600080fd5b81356143e0816149c6565b60005b83811015614bfb578181015183820152602001614be3565b50506000910152565b60008151808452614c1c816020860160208601614be0565b601f01601f19169290920160200192915050565b6020815260006143e06020830184614c04565b60008083601f840112614c5557600080fd5b5081356001600160401b03811115614c6c57600080fd5b60208301915083602082850101111561350b57600080fd5b60008060208385031215614c9757600080fd5b82356001600160401b03811115614cad57600080fd5b61265685828601614c43565b634e487b7160e01b600052604160045260246000fd5b604051601f8201601f191681016001600160401b0381118282101715614cf757614cf7614cb9565b604052919050565b60006001600160401b03821115614d1857614d18614cb9565b5060051b60200190565b600082601f830112614d3357600080fd5b81356020614d48614d4383614cff565b614ccf565b82815260059290921b84018101918181019086841115614d6757600080fd5b8286015b84811015614d825780358352918301918301614d6b565b509695505050505050565b60008060408385031215614da057600080fd5b82356001600160401b0380821115614db757600080fd5b818501915085601f830112614dcb57600080fd5b81356020614ddb614d4383614cff565b82815260059290921b84018101918181019089841115614dfa57600080fd5b948201945b83861015614e21578535614e12816149c6565b82529482019490820190614dff565b96505086013592505080821115614e3757600080fd5b50614e4485828601614d22565b9150509250929050565b801515811461314957600080fd5b60008060408385031215614e6f57600080fd5b823591506020830135614af881614e4e565b60008060008060608587031215614e9757600080fd5b843593506020850135925060408501356001600160401b03811115614ebb57600080fd5b614ec787828801614c43565b95989497509550505050565b60006001600160401b03821115614eec57614eec614cb9565b50601f01601f191660200190565b60008060008060808587031215614f1057600080fd5b8435614f1b81614e4e565b9350602085013592506040850135614f32816149c6565b915060608501356001600160401b03811115614f4d57600080fd5b8501601f81018713614f5e57600080fd5b8035614f6c614d4382614ed3565b818152886020838501011115614f8157600080fd5b8160208401602083013760006020838301015280935050505092959194509250565b600060208284031215614fb557600080fd5b5051919050565b634e487b7160e01b600052601160045260246000fd5b808201808211156107eb576107eb614fbc565b6001600160a01b0392831681529116602082015260400190565b6001600160a01b039586168152602081019490945260408401929092526060830152909116608082015260a00190565b634e487b7160e01b600052603260045260246000fd5b60006020828403121561505757600080fd5b81516143e0816149c6565b6000615070614d4384614ed3565b905082815283838301111561508457600080fd5b6143e0836020830184614be0565b6000602082840312156150a457600080fd5b81516001600160401b038111156150ba57600080fd5b8201601f810184136150cb57600080fd5b611ee884825160208401615062565b600181811c908216806150ee57607f821691505b60208210810361510e57634e487b7160e01b600052602260045260246000fd5b50919050565b601f8211156117b057600081815260208120601f850160051c8101602086101561513b5750805b601f850160051c820191505b81811015611b5d57828155600101615147565b81516001600160401b0381111561517357615173614cb9565b6151878161518184546150da565b84615114565b602080601f8311600181146151bc57600084156151a45750858301515b600019600386901b1c1916600185901b178555611b5d565b600085815260208120601f198616915b828110156151eb578886015182559484019460019091019084016151cc565b50858210156152095787850151600019600388901b60f8161c191681555b5050505050600190811b01905550565b600060208083526000845461522d816150da565b8084870152604060018084166000811461524e576001811461526857615296565b60ff1985168984015283151560051b890183019550615296565b896000528660002060005b8581101561528e5781548b8201860152908301908801615273565b8a0184019650505b509398975050505050505050565b818103818111156107eb576107eb614fbc565b600080604083850312156152ca57600080fd5b82516152d581614e4e565b6020939093015192949293505050565b6001600160a01b03841681526040602082018190528101829052818360608301376000818301606090810191909152601f909201601f1916010192915050565b6001600160401b0383111561533c5761533c614cb9565b6153508361534a83546150da565b83615114565b6000601f841160018114615384576000851561536c5750838201355b600019600387901b1c1916600186901b1783556110ec565b600083815260209020601f19861690835b828110156153b55786850135825560209485019460019092019101615395565b50868210156153d25760001960f88860031b161c19848701351681555b505060018560011b0183555050505050565b6001600160a01b03929092168252602082015260400190565b600082601f83011261540e57600080fd5b8151602061541e614d4383614cff565b82815260059290921b8401810191818101908684111561543d57600080fd5b8286015b84811015614d825780518352918301918301615441565b6000806040838503121561546b57600080fd5b82516001600160401b0381111561548157600080fd5b61548d858286016153fd565b9250506020830151614af881614e4e565b8281526040602082015260006143dd6040830184614a07565b600081518084526020808501945080840160005b83811015614a375781516001600160a01b0316875295820195908201906001016154cb565b87815286602082015260e06040820152600061550f60e08301886154b7565b6001600160a01b0396871660608401529486166080830152509190931660a082015260c001919091529392505050565b60006020828403121561555157600080fd5b81516143e081614e4e565b6000806040838503121561556f57600080fd5b505080516020909101519092909150565b868152600060018060a01b03808816602084015286604084015260c060608401528551151560c0840152602086015160e084015280604087015116610100840152606086015160806101208501526155dc610140850182614c04565b6080850196909652509290921660a09091015250949350505050565b60006020828403121561560a57600080fd5b81516001600160401b0381111561562057600080fd5b611ee8848285016153fd565b6020808252602b908201527f496e697469616c697a61626c653a20636f6e7472616374206973206e6f74206960408201526a6e697469616c697a696e6760a81b606082015260800190565b60008261569457634e487b7160e01b600052601260045260246000fd5b500490565b6080815260006156ac60808301876154b7565b82810360208401526156be8187614a07565b604084019590955250506001600160a01b039190911660609091015292915050565b6001600160a01b038616815260a060208201819052600090615704908301876154b7565b828103604084015261571681876154b7565b9050828103606084015261572a8186614a07565b9050828103608084015261573e8185614a07565b98975050505050505050565b600082601f83011261575b57600080fd5b8151602061576b614d4383614cff565b82815260059290921b8401810191818101908684111561578a57600080fd5b8286015b84811015614d825780516157a1816149c6565b835291830191830161578e565b600080604083850312156157c157600080fd5b82516001600160401b03808211156157d857600080fd5b6157e48683870161574a565b935060208501519150808211156157fa57600080fd5b50614e44858286016153fd565b80820281158282048414176107eb576107eb614fbc565b6020815260006143e06020830184614a07565b600060018060a01b03808916835280881660208401525085604083015284606083015283608083015260c060a083015261573e60c08301846154b7565b60018060a01b03871681528560020b60208201528460020b604082015260c0606082015260006158a160c0830186614a07565b6001600160801b039490941660808301525090151560a090910152949350505050565b6000806000606084860312156158d957600080fd5b83516001600160401b038111156158ef57600080fd5b6158fb868287016153fd565b9350506020840151915060408401516001600160801b038116811461591f57600080fd5b809150509250925092565b60408152600061593d6040830185614a07565b828103602084015261594f8185614a07565b95945050505050565b60008060006060848603121561596d57600080fd5b83516001600160401b038082111561598457600080fd5b6159908783880161574a565b945060208601519150808211156159a657600080fd5b6159b2878388016153fd565b935060408601519150808211156159c857600080fd5b506159d5868287016153fd565b9150509250925092565b6001600160a01b03858116825284166020820152608060408201819052600090615a0b908301856154b7565b8281036060840152615a1d8185614a07565b979650505050505050565b6001600160a01b039485168152602081019390935292166040820152606081019190915260800190565b878152600060018060a01b03808916602084015260e06040840152615a7a60e08401896154b7565b606084019790975294909416608082015260a081019290925260c090910152509392505050565b60008060408385031215615ab457600080fd5b8251915060208301516001600160401b03811115615ad157600080fd5b614e44858286016153fd565b6001600160a01b038916815261010060208201819052600090615b028382018b6154b7565b90508860408401528281036060840152615b1c8189614a07565b90508660808401528560a084015282810360c0840152615b3c8186614a07565b905082810360e0840152615b508185614a07565b9b9a5050505050505050505050565b60008060408385031215615b7257600080fd5b82516001600160401b0380821115615b8957600080fd5b6157e4868387016153fd565b6001600160a01b0385168152608060208201819052600090615bb9908301866154b7565b8460408401528281036060840152615a1d8185614a07565b6000610100808352615be58184018c6154b7565b90508960208401528281036040840152615bff818a614a07565b6001600160a01b0389811660608601528816608085015260a0840187905283810360c08501529050615c318186614a07565b9150508260e08301529998505050505050505050565b600060018060a01b03808916835260c06020840152615c6960c0840189614c04565b9681166040840152949094166060820152608081019290925260a0909101525092915050565b6001600160a01b038a8116825289811660208301526040820189905261012060608301819052600091615cc48483018b6154b7565b91508089166080850152508660a084015282810360c0840152615ce781876154b7565b905082810360e0840152615cfb8186614a07565b915050826101008301529a9950505050505050505050565b60008060408385031215615d2657600080fd5b82516001600160401b03811115615d3c57600080fd5b615d48858286016153fd565b925050602083015190509250929050565b6080808252855190820181905260009060209060a0840190828901845b82811015615d9b5781516001600160a01b031684529284019290840190600101615d76565b50505083810382850152615daf8188614a07565b60408501969096525050506060015292915050565b60008251615dd6818460208701614be0565b919091019291505056fea26469706673582212207ddc59751eddb12fc9d2fca1d24c3c2a8458f0944ad71d83d6fb96a10967312664736f6c63430008110033",
  "deployedBytecode": "0x608060405234801561001057600080fd5b50600436106102f85760003560e01c80636ffb4c8e11610193578063ab9e3eee116100e4578063d348799711610092578063d3487997146106d7578063db8d55f1146106ea578063de3d047c146106f2578063dee1f0e414610705578063eb5620db14610718578063f77c47911461072b578063ffb86c6a1461073357600080fd5b8063ab9e3eee14610656578063b24575561461065e578063b429afeb14610671578063bd38837b14610684578063cd4c815614610697578063ceee861d146106aa578063d295ea70146106ce57600080fd5b80638778878211610141578063877887821461059b57806387c7f770146105a4578063936725ec146105b757806396b7b14e146105db578063996a6c9c146105ee5780639d0bcca014610612578063a3f4df7e1461061a57600080fd5b80636ffb4c8e1461050357806371ee01751461051657806373a50ef51461051f57806378327438146105435780637cc96380146105635780637d7c2a1c1461056b5780637efc77fa1461057357600080fd5b80634593144c1161024d57806354679963116101fb578063546799631461047f5780635641ec03146104945780635cfc1a511461049c5780636207a0cf146104a657806363e27734146104ca5780636855f30e146104dd5780636b5fba5a146104f057600080fd5b80634593144c146104055780634ad0b6841461040d5780634e71d92d146104155780634fa5d8541461041d5780634fac6ccd1461043a57806351b9c8341461044d57806351e03fbe1461046c57600080fd5b8063261efa12116102aa578063261efa121461039e57806328abdef0146103a7578063321793a8146103af578063325a19f1146103c257806333c5b58e146103ca57806338d52e0f146103d25780633cd8045e146103f257600080fd5b806301e1d114146102fd57806301ffc9a7146103185780630acd12c71461033b5780630e30428d146103435780631865c57d1461035857806322b6f5e214610378578063253de4661461038b575b600080fd5b61030561073b565b6040519081526020015b60405180910390f35b61032b61032636600461499c565b6107c6565b604051901515815260200161030f565b6103056107f1565b6103566103513660046149db565b610913565b005b6103606109b7565b60405161030f9c9b9a99989796959493929190614a42565b610356610386366004614ad3565b610b9c565b610356610399366004614b1a565b610c4c565b61030560735481565b610356610f31565b6103566103bd366004614b96565b611018565b6103056110f3565b610305611127565b603d546103e5906001600160a01b031681565b60405161030f9190614baf565b603e546103e5906001600160a01b031681565b61030561119f565b606f54610305565b6103566111cf565b610425611249565b6040805192835260208301919091520161030f565b610356610448366004614bc3565b6112ae565b6104556113e0565b60408051921515835260208301919091520161030f565b61030561047a366004614b96565b61146b565b610487611633565b60405161030f9190614c30565b6103566116c1565b600160ff1b610305565b610487604051806040016040528060058152602001640c4b8d0b8d60da1b81525081565b6103566104d8366004614c84565b61172e565b6103566104eb366004614b96565b6117b5565b6103566104fe366004614bc3565b61182d565b610356610511366004614b96565b6118be565b61030560725481565b610487604051806040016040528060058152602001640322e332e360dc1b81525081565b610305610551366004614bc3565b60716020526000908152604090205481565b610305611936565b610356611966565b61048760405180604001604052806009815260200168556e6973776170563360b81b81525081565b61030560425481565b6103056105b23660046149db565b611b65565b610487604051806040016040528060058152602001640332e302e360dc1b81525081565b6103566105e9366004614d8d565b611ce9565b610487604051806040016040528060058152602001640c4b8c0b8d60da1b81525081565b6103e5611d88565b6104876040518060400160405280601c81526020017f556e6973776170563320436f6e7665727465722053747261746567790000000081525081565b61032b611db8565b61030561066c366004614e5c565b611e43565b61032b61067f366004614bc3565b611ef2565b6070546103e5906001600160a01b031681565b6041546103e5906001600160a01b031681565b610487604051806040016040528060058152602001640312e322e360dc1b81525081565b610305603f5481565b6103566106e5366004614e81565b611f17565b610425612008565b610356610700366004614b96565b612080565b61032b610713366004614bc3565b612110565b610356610726366004614efa565b612195565b6103e5612337565b61032b612367565b6000610746606f5490565b603d546040516370a0823160e01b81526001600160a01b03909116906370a0823190610776903090600401614baf565b602060405180830381865afa158015610793573d6000803e3d6000fd5b505050506040513d601f19601f820116820180604052508101906107b79190614fa3565b6107c19190614fd2565b905090565b60006001600160e01b0319821663f73147b360e01b14806107eb57506107eb826123fe565b92915050565b603e54603d54604051633e53813360e11b81526000926001600160a01b03908116921690839073__$ec217c54da363a68ad871e6868efec481c$__90637ca70266906108439086908690600401614fe5565b602060405180830381865af4158015610860573d6000803e3d6000fd5b505050506040513d601f19601f820116820180604052508101906108849190614fa3565b90506000806000610893612423565b92509250925073__$ec217c54da363a68ad871e6868efec481c$__639ad00ec2868686868b6040518663ffffffff1660e01b81526004016108d8959493929190614fff565b60006040518083038186803b1580156108f057600080fd5b505af4158015610904573d6000803e3d6000fd5b50929998505050505050505050565b73__$8f1afe7577f9ab973017c74eca19b86f3c$__63142395ef610935612337565b6040516001600160e01b031960e084901b1681526001600160a01b03918216600482015290851660248201526044810184905260640160006040518083038186803b15801561098357600080fd5b505af4158015610997573d6000803e3d6000fd5b5050506001600160a01b0390921660009081526071602052604090205550565b6001546002805460038054600c54600454600954600a5460408051878152608081019091526001600160a01b03998a1699978816988887169890951696600160a01b8704860b96600160c81b8104870b96600160e01b909104810b95600160301b810490910b94600160501b9091046001600160801b03169360ff9091169290916060919060208201838036833701905050600c546040516370a0823160e01b81529192506001600160a01b03808f16926370a0823192610a7c921690600401614baf565b602060405180830381865afa158015610a99573d6000803e3d6000fd5b505050506040513d601f19601f82011682018060405250810190610abd9190614fa3565b81600081518110610ad057610ad061502f565b6020908102919091010152600c546040516370a0823160e01b81526001600160a01b038d8116926370a0823192610b0d9290911690600401614baf565b602060405180830381865afa158015610b2a573d6000803e3d6000fd5b505050506040513d601f19601f82011682018060405250810190610b4e9190614fa3565b81600181518110610b6157610b6161502f565b602002602001018181525050600081600281518110610b8257610b8261502f565b602002602001018181525050909192939495969798999a9b565b73__$ec217c54da363a68ad871e6868efec481c$__63b4339948610bbe612337565b6040516001600160e01b031960e084901b1681526001600160a01b03918216600482015260248101869052908416604482015260640160006040518083038186803b158015610c0c57600080fd5b505af4158015610c20573d6000803e3d6000fd5b505050604292909255604180546001600160a01b0319166001600160a01b039290921691909117905550565b600054610100900460ff1615808015610c6c5750600054600160ff909116105b80610c865750303b158015610c86575060005460ff166001145b610cee5760405162461bcd60e51b815260206004820152602e60248201527f496e697469616c697a61626c653a20636f6e747261637420697320616c72656160448201526d191e481a5b9a5d1a585b1a5e995960921b60648201526084015b60405180910390fd5b6000805460ff191660011790558015610d11576000805461ff0019166101001790555b610d1c87878761243e565b73__$166cd655d2cd990700b75f7db5b5f84c53$__63928f8493600189888888888d6001600160a01b03166338d52e0f6040518163ffffffff1660e01b8152600401602060405180830381865afa158015610d7b573d6000803e3d6000fd5b505050506040513d601f19601f82011682018060405250810190610d9f9190615045565b6040516001600160e01b031960e08a901b16815260048101979097526001600160a01b03958616602488015293851660448701529184166064860152600290810b60848601520b60a48401521660c482015260e40160006040518083038186803b158015610e0c57600080fd5b505af4158015610e20573d6000803e3d6000fd5b5050604051631ade875b60e31b81526001600482015273__$166cd655d2cd990700b75f7db5b5f84c53$__925063d6f43ad89150602401600060405180830381865af4158015610e74573d6000803e3d6000fd5b505050506040513d6000823e601f3d908101601f19168201604052610e9c9190810190615092565b604390610ea9908261515a565b507f13bdeb5b5bb760c04b92d93e56c576c6805359d41a13d3cca178aa7c8526b9846043604051610eda9190615219565b60405180910390a18015610f28576000805461ff0019169055604051600181527f7f26b83ff96e1f2b6a682f133852f6798a09c465da95921460cefb38474024989060200160405180910390a15b50505050505050565b73__$ec217c54da363a68ad871e6868efec481c$__63493f6edc610f53612337565b6040518263ffffffff1660e01b8152600401610f6f9190614baf565b60006040518083038186803b158015610f8757600080fd5b505af4158015610f9b573d6000803e3d6000fd5b5050607054604051630dfae47f60e21b8152600160048201526001600160a01b03909116602482015273__$166cd655d2cd990700b75f7db5b5f84c53$__92506337eb91fc91506044015b60006040518083038186803b158015610ffe57600080fd5b505af4158015611012573d6000803e3d6000fd5b50505050565b73__$ec217c54da363a68ad871e6868efec481c$__63493f6edc61103a612337565b6040518263ffffffff1660e01b81526004016110569190614baf565b60006040518083038186803b15801561106e57600080fd5b505af4158015611082573d6000803e3d6000fd5b5050604051634479deaf60e11b8152600160048201526024810184905273__$166cd655d2cd990700b75f7db5b5f84c53$__92506388f3bd5e915060440160006040518083038186803b1580156110d857600080fd5b505af41580156110ec573d6000803e3d6000fd5b5050505050565b60006107c161112360017f6f55f470bdc9cb5f04223fd822021061668e4dccb43e8727b295106dc9769c8b6152a4565b5490565b600073__$ec217c54da363a68ad871e6868efec481c$__63493f6edc61114b612337565b6040518263ffffffff1660e01b81526004016111679190614baf565b60006040518083038186803b15801561117f57600080fd5b505af4158015611193573d6000803e3d6000fd5b505050506107c16124e0565b60006107c161112360017f812a673dfca07956350df10f8a654925f561d7a0da09bdbe79e653939a14d9f16152a4565b73__$ec217c54da363a68ad871e6868efec481c$__63d19cc38a6111f1612337565b6040518263ffffffff1660e01b815260040161120d9190614baf565b60006040518083038186803b15801561122557600080fd5b505af4158015611239573d6000803e3d6000fd5b505050506112456125a6565b5050565b603e5460408051808201909152600a81526914d08e8811195b9a595960b21b60208201526000918291906001600160a01b0316331461129b5760405162461bcd60e51b8152600401610ce59190614c30565b506112a66001612662565b915091509091565b3330146112fd5760405162461bcd60e51b815260206004820152601b60248201527f496e637265617365207265766973696f6e20666f7262696464656e00000000006044820152606401610ce5565b600061132d61112360017f22573091f17911fb166032a3d9e0554aa73d31b7b7ddea4a4dd2995650af84bd6152a4565b611338906001614fd2565b905061136c8161136960017f22573091f17911fb166032a3d9e0554aa73d31b7b7ddea4a4dd2995650af84bd6152a4565b55565b61139b8261136960017fbfaaa2fb63266ff27c2da975f5894955056f50419af651a81f6c5060581857e46152a4565b604080518281526001600160a01b03841660208201527ff27e2ef832a4eb8ed8ec553b875eecd44764cda95b1c24170e281539e0a869c8910160405180910390a15050565b607054604051633bcd1d6b60e21b8152600160048201526001600160a01b039091166024820152600090819073__$166cd655d2cd990700b75f7db5b5f84c53$__9063ef3475ac906044016040805180830381865af4158015611447573d6000803e3d6000fd5b505050506040513d601f19601f820116820180604052508101906112a691906152b7565b603e54603d54604051633e53813360e11b81526000926001600160a01b03908116921690839073__$ec217c54da363a68ad871e6868efec481c$__90637ca70266906114bd9086908690600401614fe5565b602060405180830381865af41580156114da573d6000803e3d6000fd5b505050506040513d601f19601f820116820180604052508101906114fe9190614fa3565b9050808511156115aa5760008061151d61151884896152a4565b612796565b604051631594b05b60e01b8152909850919350915073__$ec217c54da363a68ad871e6868efec481c$__90631594b05b906115649087908790879087908c90600401614fff565b602060405180830381865af4158015611581573d6000803e3d6000fd5b505050506040513d601f19601f820116820180604052508101906115a59190614fa3565b925050505b6040516333bbb20360e11b815260048101869052602481018290526001600160a01b0380841660448301528416606482015273__$ec217c54da363a68ad871e6868efec481c$__9063677764069060840160006040518083038186803b15801561161357600080fd5b505af4158015611627573d6000803e3d6000fd5b50505050505050919050565b60438054611640906150da565b80601f016020809104026020016040519081016040528092919081815260200182805461166c906150da565b80156116b95780601f1061168e576101008083540402835291602001916116b9565b820191906000526020600020905b81548152906001019060200180831161169c57829003601f168201915b505050505081565b6116c96127c7565b73__$ec217c54da363a68ad871e6868efec481c$__63bd0206826116eb612337565b603d54603e5460405160e085901b6001600160e01b03191681526001600160a01b0393841660048201529183166024830152919091166044820152606401610fe6565b73__$ec217c54da363a68ad871e6868efec481c$__63eae13e76611750612337565b84846040518463ffffffff1660e01b8152600401611770939291906152e5565b60006040518083038186803b15801561178857600080fd5b505af415801561179c573d6000803e3d6000fd5b50604392506117b091508390508483615325565b505050565b73__$8f1afe7577f9ab973017c74eca19b86f3c$__63a0113d486117d7612337565b836040518363ffffffff1660e01b81526004016117f59291906153e4565b60006040518083038186803b15801561180d57600080fd5b505af4158015611821573d6000803e3d6000fd5b50505060739190915550565b73__$ec217c54da363a68ad871e6868efec481c$__63493f6edc61184f612337565b6040518263ffffffff1660e01b815260040161186b9190614baf565b60006040518083038186803b15801561188357600080fd5b505af4158015611897573d6000803e3d6000fd5b5050600c80546001600160a01b0319166001600160a01b0394909416939093179092555050565b73__$8f1afe7577f9ab973017c74eca19b86f3c$__63d2c3cf256118e0612337565b836040518363ffffffff1660e01b81526004016118fe9291906153e4565b60006040518083038186803b15801561191657600080fd5b505af415801561192a573d6000803e3d6000fd5b50505060729190915550565b60006107c161112360017f22573091f17911fb166032a3d9e0554aa73d31b7b7ddea4a4dd2995650af84bd6152a4565b6000611970612337565b60405163124fdbb760e21b815290915073__$ec217c54da363a68ad871e6868efec481c$__9063493f6edc906119aa908490600401614baf565b60006040518083038186803b1580156119c257600080fd5b505af41580156119d6573d6000803e3d6000fd5b5050505060006119e660016128ca565b9150506000816119f461073b565b6119fe91906152a4565b600454909150600160501b90046001600160801b031615611a2357611a21612983565b505b607054603e546040516343478f1760e01b8152600160048201526001600160a01b03928316602482015285831660448201526064810184905260848101859052911660a4820152600090819073__$166cd655d2cd990700b75f7db5b5f84c53$__906343478f179060c401600060405180830381865af4158015611aab573d6000803e3d6000fd5b505050506040513d6000823e601f3d908101601f19168201604052611ad39190810190615458565b915091508151600203611b5557611ae982612995565b50508015611b555760405163ec4955b960e01b81526001600482015273__$166cd655d2cd990700b75f7db5b5f84c53$__9063ec4955b99060240160006040518083038186803b158015611b3c57600080fd5b505af4158015611b50573d6000803e3d6000fd5b505050505b611b5d612a90565b505050505050565b60705460408051808201909152600a81526914d08e8811195b9a595960b21b60208201526000916001600160a01b031690338214611bb65760405162461bcd60e51b8152600401610ce59190614c30565b50600080611bc386612aa4565b915091506000611bd287612b10565b905085811015611c38576000611be6612b80565b90508015611c36576000611bf982612b96565b90507faebc771af58936b05e89b0be7d3f9761480181abcd4a649fbdd01753fda169708282604051611c2c92919061549e565b60405180910390a1505b505b73__$e930d50fb5f4f1298547dbcb2bb0591990$__6399c1fde487848688611c5e612337565b603d546040516001600160e01b031960e089901b168152611c939695949392916001600160a01b0316906071906004016154f0565b602060405180830381865af4158015611cb0573d6000803e3d6000fd5b505050506040513d601f19601f82011682018060405250810190611cd49190614fa3565b9450611cde612a90565b505050505092915050565b60705460408051808201909152600a81526914d08e8811195b9a595960b21b6020820152906001600160a01b03163314611d365760405162461bcd60e51b8152600401610ce59190614c30565b508151815160408051808201909152600d81526c54532d3139206c656e6774687360981b6020820152908214611d7f5760405162461bcd60e51b8152600401610ce59190614c30565b50611012612a90565b60006107c161112360017fbfaaa2fb63266ff27c2da975f5894955056f50419af651a81f6c5060581857e46152a4565b607054604051635ca1bcdf60e01b8152600160048201526001600160a01b03909116602482015260009073__$166cd655d2cd990700b75f7db5b5f84c53$__90635ca1bcdf906044015b602060405180830381865af4158015611e1f573d6000803e3d6000fd5b505050506040513d601f19601f820116820180604052508101906107c1919061553f565b603e54603d546040516001625acc3160e01b03198152600092839273__$ec217c54da363a68ad871e6868efec481c$__9263ffa533cf92611e95926001600160a01b0391821692911690600401614fe5565b602060405180830381865af4158015611eb2573d6000803e3d6000fd5b505050506040513d601f19601f82011682018060405250810190611ed69190614fa3565b90508015611eeb57611ee88184612caa565b91505b5092915050565b6000611efc612337565b6001600160a01b0316826001600160a01b0316149050919050565b60035460408051808201909152601a81527f5533532d3131204e6f742063616c6c6261636b2063616c6c65720000000000006020820152906001600160a01b03163314611f775760405162461bcd60e51b8152600401610ce59190614c30565b508315611fc557600454611fc59033908690600160481b900460ff16611fa8576001546001600160a01b0316611fb5565b6002546001600160a01b03165b6001600160a01b03169190612d4d565b8215611012576004546110129033908590600160481b900460ff16611ff5576002546001600160a01b0316611fb5565b6001546001600160a01b03169190612d4d565b604051631a2d761b60e11b815260016004820152600090819073__$166cd655d2cd990700b75f7db5b5f84c53$__9063345aec36906024016040805180830381865af415801561205c573d6000803e3d6000fd5b505050506040513d601f19601f820116820180604052508101906112a6919061555c565b73__$ec217c54da363a68ad871e6868efec481c$__630568a9d56120a2612337565b603f546040516001600160e01b031960e085901b1681526001600160a01b03909216600483015260248201526044810184905260640160006040518083038186803b1580156120f057600080fd5b505af4158015612104573d6000803e3d6000fd5b505050603f9190915550565b6000816001600160a01b0316612124612337565b6001600160a01b0316635aa6e6756040518163ffffffff1660e01b8152600401602060405180830381865afa158015612161573d6000803e3d6000fd5b505050506040513d601f19601f820116820180604052508101906121859190615045565b6001600160a01b03161492915050565b600061219f612337565b60405163124fdbb760e21b815290915073__$ec217c54da363a68ad871e6868efec481c$__9063493f6edc906121d9908490600401614baf565b60006040518083038186803b1580156121f157600080fd5b505af4158015612205573d6000803e3d6000fd5b50505050600061221560016128ca565b91505060008161222361073b565b61222d91906152a4565b600454909150600160501b90046001600160801b03161561225257612250612983565b505b607054604080516080810182528915158152602081018990526001600160a01b038881168284015260608201889052603e54925163c064742360e01b815260009473__$166cd655d2cd990700b75f7db5b5f84c53$__9463c0647423946122c894600194938116938a938c921690600401615580565b600060405180830381865af41580156122e5573d6000803e3d6000fd5b505050506040513d6000823e601f3d908101601f1916820160405261230d91908101906155f8565b905080516002036123245761232181612995565b50505b61232c612a90565b505050505050505050565b60006107c161112360017f5165972ef41194f06c5007493031d0b927c20741adcb74403b954009fd2c36186152a4565b60095460035460048054604051632beacd5760e11b815260ff9094161515918401919091526001600160a01b0382166024840152600160c81b8204600290810b6044850152600160e01b8304810b6064850152600160a01b909204820b6084840152600160301b9004900b60a482015260009073__$166cd655d2cd990700b75f7db5b5f84c53$__906357d59aae9060c401611e02565b60006001600160e01b0319821663c19fa56160e01b14806107eb57506107eb82612da3565b6000806000612433600019612796565b925092509250909192565b600054610100900460ff166124655760405162461bcd60e51b8152600401610ce59061562c565b61246f8383612dd8565b607080546001600160a01b0319166001600160a01b0383161790556124986064620186a0615677565b6072557fe4166dfcf23bbd3e3f764a99dc8fa740554c03c82d6019b81cf265f396f6f2fe6124ca6064620186a0615677565b60405190815260200160405180910390a1505050565b603d54600090819081906124fc906001600160a01b0316612aa4565b9150915073__$e930d50fb5f4f1298547dbcb2bb0591990$__63c9bce6908361252b612526612b80565b612fa0565b6070546040516001600160e01b031960e086901b16815261255e93929187916001600160a01b0390911690600401615699565b602060405180830381865af415801561257b573d6000803e3d6000fd5b505050506040513d601f19601f8201168201806040525081019061259f9190614fa3565b9250505090565b60608060008060006125b661302a565b607054929550909350915073__$8f1afe7577f9ab973017c74eca19b86f3c$__9063e99de4da906001600160a01b03166125ee6130b5565b8686866040518663ffffffff1660e01b81526004016126119594939291906156e0565b600060405180830381865af415801561262e573d6000803e3d6000fd5b505050506040513d6000823e601f3d908101601f1916820160405261265691908101906157ae565b90969095509350505050565b60008060008061267260016128ca565b91509150600061268061314c565b9196509450905060006126d287801561269857508415155b80156126be5750620186a0856072546126b19190615807565b6126bb9190615677565b83115b6126c95760006126cb565b825b8486613221565b915060009050806127196126e68588614fd2565b603d5485906126fd906001600160a01b0316612b10565b606f5461270a9190614fd2565b6127149190614fd2565b6134e2565b915091506040805187815260208101879052908101899052606081018890526080810183905260a081018290527f3e9abbc366dbf9fe260e2640c06eefbedd7720cf986ae553374e46b804f4ff559060c00160405180910390a161277d8289614fd2565b6127878289614fd2565b97509750505050505050915091565b60008060008060006127a860016128ca565b915091506127b7868284613512565b5091989097509095509350505050565b60006127d1612983565b90507f768a28cb3459382a3d2173feb2dad0235f8de680b109872da581a3aa269fe5f481604051612802919061581e565b60405180910390a1603d546000908190612824906001600160a01b0316612aa4565b607054919350915073__$e930d50fb5f4f1298547dbcb2bb0591990$__906358b54f16906001600160a01b031661286161285c612337565b613bf0565b846071600019886040518763ffffffff1660e01b815260040161288996959493929190615831565b602060405180830381865af41580156128a6573d6000803e3d6000fd5b505050506040513d601f19601f82011682018060405250810190611d7f9190614fa3565b600080821561297757606f546128de612a90565b603e54604051636e5b9cc760e11b815260048101849052602481018390526001600160a01b03909116604482015290935073__$e930d50fb5f4f1298547dbcb2bb0591990$__9063dcb7398e90606401602060405180830381865af415801561294b573d6000803e3d6000fd5b505050506040513d601f19601f8201168201806040525081019061296f9190614fa3565b915050915091565b5050606f546000915091565b60606107c1612990612b80565b612b96565b60035460048054604051638008936760e01b815260609360009373__$166cd655d2cd990700b75f7db5b5f84c53$__93638008936793612a17936001600160a01b03811693600160c81b8204600290810b94600160e01b909304900b928b92600160501b81046001600160801b031692600160481b90910460ff16910161586e565b600060405180830381865af4158015612a34573d6000803e3d6000fd5b505050506040513d6000823e601f3d908101601f19168201604052612a5c91908101906158c4565b600480546001600160801b03909216600160501b02600160501b600160d01b03199092169190911790559094909350915050565b6000612a9a6124e0565b606f819055919050565b60606000612ab06130b5565b9150612abc8284613c54565b90506000198114156040518060400160405280600f81526020016e53423a2057726f6e672076616c756560881b81525090612b0a5760405162461bcd60e51b8152600401610ce59190614c30565b50915091565b6040516370a0823160e01b81526000906001600160a01b038316906370a0823190612b3f903090600401614baf565b602060405180830381865afa158015612b5c573d6000803e3d6000fd5b505050506040513d601f19601f820116820180604052508101906107eb9190614fa3565b600454600160501b90046001600160801b031690565b6060600080612ba3612008565b6040516302c8fd9160e01b8152600160048201526001600160801b0387166024820152919350915073__$166cd655d2cd990700b75f7db5b5f84c53$__906302c8fd9190604401600060405180830381865af4158015612c07573d6000803e3d6000fd5b505050506040513d6000823e601f3d908101601f19168201604052612c2f91908101906155f8565b6040516336bddd6560e01b815260016004820152602481018490526044810183905290935073__$166cd655d2cd990700b75f7db5b5f84c53$__906336bddd659060640160006040518083038186803b158015612c8b57600080fd5b505af4158015612c9f573d6000803e3d6000fd5b505050505050919050565b60095460009060ff1615612d3c576040805160028082526060820183526000926020830190803683370190505090508381600081518110612ced57612ced61502f565b6020026020010181815250507f59400c8c523464b521238ea8f50e923f2bc64663557e6afec92a97f7efe92d058182604051612d2a92919061592a565b60405180910390a160009150506107eb565b612d468383613cb2565b90506107eb565b6117b08363a9059cbb60e01b8484604051602401612d6c9291906153e4565b60408051601f198184030181529190526020810180516001600160e01b03166001600160e01b031990931692909217909152613cd9565b60006001600160e01b0319821663b7b79fa960e01b14806107eb57506301ffc9a760e01b6001600160e01b03198316146107eb565b600054610100900460ff16612dff5760405162461bcd60e51b8152600401610ce59061562c565b612e29817fd2de0374d4479f33e63ae5ed6ca772a10463dd883a90c612050b51fab6196400613dab565b612e3282613e01565b60405163b429afeb60e01b81526001600160a01b0382169063b429afeb90612e5e908590600401614baf565b602060405180830381865afa158015612e7b573d6000803e3d6000fd5b505050506040513d601f19601f82011682018060405250810190612e9f919061553f565b6040518060400160405280600f81526020016e53423a2057726f6e672076616c756560881b81525090612ee55760405162461bcd60e51b8152600401610ce59190614c30565b50806001600160a01b03166338d52e0f6040518163ffffffff1660e01b8152600401602060405180830381865afa158015612f24573d6000803e3d6000fd5b505050506040513d601f19601f82011682018060405250810190612f489190615045565b603d80546001600160a01b039283166001600160a01b031991821617909155603e80549390921692811692909217905560418054909116739cc199d4353b5fb3e6c8eebc99f5139e0d8ea06b17905550612710604255565b6040516363289c6f60e11b8152600160048201526001600160801b038216602482015260609073__$166cd655d2cd990700b75f7db5b5f84c53$__9063c65138de90604401600060405180830381865af4158015613002573d6000803e3d6000fd5b505050506040513d6000823e601f3d908101601f191682016040526107eb91908101906155f8565b604051636345dc7960e11b8152600160048201526060908190819073__$166cd655d2cd990700b75f7db5b5f84c53$__9063c68bb8f290602401600060405180830381865af4158015613081573d6000803e3d6000fd5b505050506040513d6000823e601f3d908101601f191682016040526130a99190810190615958565b91959094509092509050565b6040805160028082526060808301845292602083019080368337505060015482519293506001600160a01b0316918391506000906130f5576130f561502f565b6001600160a01b0392831660209182029290920101526002548251911690829060019081106131265761312661502f565b60200260200101906001600160a01b031690816001600160a01b03168152505090565b50565b600080600080600061315c6125a6565b600154919350915073__$166cd655d2cd990700b75f7db5b5f84c53$__906334d2ec3d906001600160a01b0316613191612337565b85856040518563ffffffff1660e01b81526004016131b294939291906159df565b602060405180830381865af41580156131cf573d6000803e3d6000fd5b505050506040513d601f19601f820116820180604052508101906131f39190614fa3565b94506131ff8282614026565b603d5460009450613218906001600160a01b0316612b10565b92505050909192565b603d5460009081906001600160a01b03168185871161324157600061324b565b61324b86886152a4565b9050620186a08560725461325f9190615807565b6132699190615677565b81111561340957851561331857603e5473__$8f1afe7577f9ab973017c74eca19b86f3c$__9063aac2718a90849089906001600160a01b03166132ab83612b10565b6132b5908b614fd2565b6040518563ffffffff1660e01b81526004016132d49493929190615a28565b602060405180830381865af41580156132f1573d6000803e3d6000fd5b505050506040513d601f19601f820116820180604052508101906133159190614fa3565b92505b600061332383612b10565b603d549091506000908190613340906001600160a01b0316612aa4565b6070549193509150600090613360906001600160a01b03168685856140c6565b9050600061336d82612995565b5090507f59400c8c523464b521238ea8f50e923f2bc64663557e6afec92a97f7efe92d0582826040516133a192919061592a565b60405180910390a160006133b3612a90565b905060006133c089612b10565b90506133cc878d614fd2565b6133d68284614fd2565b10156133fd576133e68183614fd2565b6133f0888e614fd2565b6133fa91906152a4565b9a505b505050505050506134d8565b85156134d857600061341a83612b10565b90508681101561343d5761343060008888613512565b90975095506134d6915050565b603e5473__$8f1afe7577f9ab973017c74eca19b86f3c$__9063aac2718a9085908a906001600160a01b0316613473868c614fd2565b6040518563ffffffff1660e01b81526004016134929493929190615a28565b602060405180830381865af41580156134af573d6000803e3d6000fd5b505050506040513d601f19601f820116820180604052508101906134d39190614fa3565b93505b505b5050935093915050565b600080838311156134fe576134f784846152a4565b915061350b565b61350883856152a4565b90505b9250929050565b600080600080613521876142ff565b6135bc604051806102200160405280600015158152602001606081526020016000815260200160008152602001600081526020016000815260200160608152602001600081526020016060815260200160008152602001600081526020016060815260200160006001600160a01b0316815260200160008152602001600081526020016060815260200160006001600160a01b031681525090565b600019881480825260009350806135db57506135d88789614fd2565b15155b80156135e657508515155b15613bd7576135f36130b5565b6101608201819052603d546001600160a01b0390811661018084018190526070549091166102008401526136279190613c54565b6101a082015261018081015161363c90612b10565b6101c082015261364a614353565b6020820152613657612b80565b6040820152613664612b80565b6060820152610200810151610180820151604051637a55caf360e01b815273__$e930d50fb5f4f1298547dbcb2bb0591990$__92637a55caf3926136aa92600401614fe5565b602060405180830381865af41580156136c7573d6000803e3d6000fd5b505050506040513d601f19601f820116820180604052508101906136eb9190614fa3565b60a0820152805173__$8f1afe7577f9ab973017c74eca19b86f3c$__9063ec0cc4fd906137215761371c898b614fd2565b613724565b60005b30846101600151856101a001518661020001518c88606001516040518863ffffffff1660e01b815260040161375f9796959493929190615a52565b600060405180830381865af415801561377c573d6000803e3d6000fd5b505050506040513d6000823e601f3d908101601f191682016040526137a49190810190615aa1565b60c083015260808201819052156138e2576137c28160800151612b96565b6101e08201526137d0612b80565b81606001516137df91906152a4565b608082018190526101e08201516040517faebc771af58936b05e89b0be7d3f9761480181abcd4a649fbdd01753fda169709261381c92909161549e565b60405180910390a173__$e930d50fb5f4f1298547dbcb2bb0591990$__637a9a23e5826102000151836101600151846101a001518560200151866080015187604001518860c00151896101e001516040518963ffffffff1660e01b815260040161388d989796959493929190615add565b600060405180830381865af41580156138aa573d6000803e3d6000fd5b505050506040513d6000823e601f3d908101601f191682016040526138d29190810190615b5f565b60c083015261010082015261397e565b6102008101516101608201516101a083015160c0840151604051636138ea8560e01b815273__$e930d50fb5f4f1298547dbcb2bb0591990$__94636138ea85946139329491939092600401615b95565b600060405180830381865af415801561394f573d6000803e3d6000fd5b505050506040513d6000823e601f3d908101601f1916820160405261397791908101906155f8565b6101008201525b73__$e930d50fb5f4f1298547dbcb2bb0591990$__63f1f2b573826101600151836101a001518460c001518561020001516139ba61285c612337565b87516139d1578d8f6139cc9190614fd2565b6139d3565b8e5b88610100015160716040518963ffffffff1660e01b81526004016139fe989796959493929190615bd1565b602060405180830381865af4158015613a1b573d6000803e3d6000fd5b505050506040513d601f19601f82011682018060405250810190613a3f9190614fa3565b8160e001818151613a509190614fd2565b9052508615613aff57610180810151603e546101c083015173__$8f1afe7577f9ab973017c74eca19b86f3c$__9263aac2718a9290918b916001600160a01b031690613a9c908c614fd2565b6040518563ffffffff1660e01b8152600401613abb9493929190615a28565b602060405180830381865af4158015613ad8573d6000803e3d6000fd5b505050506040513d601f19601f82011682018060405250810190613afc9190614fa3565b91505b613b07612a90565b610120820152610180810151613b1c90612b10565b6101408201526101c0810151613b329087614fd2565b87826101400151836101200151613b499190614fd2565b613b539190614fd2565b1015613ba15786816101400151826101200151613b709190614fd2565b613b7a9190614fd2565b6101c0820151613b8a9088614fd2565b613b9491906152a4565b613b9e9084614fd2565b92505b670de0b6b3a76400008160a001518260e00151613bbe9190615807565b613bc89190615677565b8160a001519450945050613be7565b6000806000809450945094509450505b93509350935093565b6000816001600160a01b0316634046ebae6040518163ffffffff1660e01b8152600401602060405180830381865afa158015613c30573d6000803e3d6000fd5b505050506040513d601f19601f820116820180604052508101906107eb9190615045565b8151600090815b81811015613ca657836001600160a01b0316858281518110613c7f57613c7f61502f565b60200260200101516001600160a01b031603613c9e5791506107eb9050565b600101613c5b565b50600019949350505050565b6000806000613cc0846128ca565b91509150613ccf858284613221565b5095945050505050565b6000613d2e826040518060400160405280602081526020017f5361666545524332303a206c6f772d6c6576656c2063616c6c206661696c6564815250856001600160a01b03166143ce9092919063ffffffff16565b8051909150156117b05780806020019051810190613d4c919061553f565b6117b05760405162461bcd60e51b815260206004820152602a60248201527f5361666545524332303a204552433230206f7065726174696f6e20646964206e6044820152691bdd081cdd58d8d9595960b21b6064820152608401610ce5565b613db582826143e7565b6112455760405162461bcd60e51b815260206004820152601a60248201527f496e74657266616365206973206e6f7420737570706f727465640000000000006044820152606401610ce5565b600054610100900460ff16613e285760405162461bcd60e51b8152600401610ce59061562c565b6001600160a01b038116613e705760405162461bcd60e51b815260206004820152600f60248201526e2d32b9379031b7b73a3937b63632b960891b6044820152606401610ce5565b613e9a817f4c2403fdcb3cff9b705d96bf0705858e3390412670a62c8bcba611ca7e20ab86613dab565b60006001600160a01b0316816001600160a01b0316635aa6e6756040518163ffffffff1660e01b8152600401602060405180830381865afa158015613ee3573d6000803e3d6000fd5b505050506040513d601f19601f82011682018060405250810190613f079190615045565b6001600160a01b031603613f4f5760405162461bcd60e51b815260206004820152600f60248201526e5a65726f20676f7665726e616e636560881b6044820152606401610ce5565b613f7e8161136960017f5165972ef41194f06c5007493031d0b927c20741adcb74403b954009fd2c36186152a4565b613fad4261136960017f6f55f470bdc9cb5f04223fd822021061668e4dccb43e8727b295106dc9769c8b6152a4565b613fdc4361136960017f812a673dfca07956350df10f8a654925f561d7a0da09bdbe79e653939a14d9f16152a4565b604080516001600160a01b0383168152426020820152438183015290517f1a2dd071001ebf6e03174e3df5b305795a4ad5d41d8fdb9ba41dbbe2367134269181900360600190a150565b815180156117b057600061403a84846144c5565b905073__$8f1afe7577f9ab973017c74eca19b86f3c$__63acf741a361405e612337565b603e546040516001600160e01b031960e085901b16815261409092916001600160a01b031690899087906004016159df565b60006040518083038186803b1580156140a857600080fd5b505af41580156140bc573d6000803e3d6000fd5b5050505050505050565b60606140d0612367565b15604051806040016040528060148152602001735533532d31204e65656420726562616c616e636560601b8152509061411c5760405162461bcd60e51b8152600401610ce59190614c30565b506040805160028082526060820183529091602083019080368337019050506003546004805460405163a1d4398960e01b81526001600160a01b03841692810192909252600160c81b8304600290810b6024840152600160e01b90930490920b6044820152600160481b90910460ff1615156064820152909150600090819073__$166cd655d2cd990700b75f7db5b5f84c53$__9063a1d4398990608401600060405180830381865af41580156141d7573d6000803e3d6000fd5b505050506040513d6000823e601f3d908101601f191682016040526141ff9190810190615092565b600154909150614219906001600160a01b0316878961467a565b60015460025460405163ca27d10d60e01b815273__$e930d50fb5f4f1298547dbcb2bb0591990$__9263ca27d10d9261426c928c9287926001600160a01b03918216929116908d90600090600401615c47565b6040805180830381865af4158015614288573d6000803e3d6000fd5b505050506040513d601f19601f820116820180604052508101906142ac919061555c565b846001815181106142bf576142bf61502f565b602090810291909101015291506142d682876152a4565b836000815181106142e9576142e961502f565b6020026020010181815250505050949350505050565b614307612367565b15604051806040016040528060148152602001735533532d31204e65656420726562616c616e636560601b815250906112455760405162461bcd60e51b8152600401610ce59190614c30565b604051630a65e5e760e01b81526001600482015260609073__$166cd655d2cd990700b75f7db5b5f84c53$__90630a65e5e790602401600060405180830381865af41580156143a6573d6000803e3d6000fd5b505050506040513d6000823e601f3d908101601f191682016040526107c191908101906155f8565b60606143dd848460008561471e565b90505b9392505050565b60006001600160a01b03831661442e5760405162461bcd60e51b815260206004820152600c60248201526b5a65726f206164647265737360a01b6044820152606401610ce5565b823b60008190036144435760009150506107eb565b6040516301ffc9a760e01b81526001600160e01b0319841660048201526001600160a01b038516906301ffc9a790602401602060405180830381865afa9250505080156144ad575060408051601f3d908101601f191682019092526144aa9181019061553f565b60015b156144bb5791506107eb9050565b5060009392505050565b603d54607054603f546060926001600160a01b039081169260009273__$e930d50fb5f4f1298547dbcb2bb0591990$__9263ef50284f92169085906145086130b5565b61451361285c612337565b60718c8c6042546040518a63ffffffff1660e01b815260040161453e99989796959493929190615c8f565b600060405180830381865af415801561455b573d6000803e3d6000fd5b505050506040513d6000823e601f3d908101601f191682016040526145839190810190615d13565b603e54604154607354604051631248faf160e21b81526001600160a01b03808916600483015260248201869052938416604482015292909116606483015260848201529194509150600090819073__$8f1afe7577f9ab973017c74eca19b86f3c$__90634923ebc49060a4016040805180830381865af415801561460b573d6000803e3d6000fd5b505050506040513d601f19601f8201168201806040525081019061462f919061555c565b915091507f4c300a656bfa0935e36cd55e92634bc20b2b7e0a0ebf424a2a25bfaac3a01e76878684846040516146689493929190615d59565b60405180910390a15050505092915050565b604051636eb1769f60e11b815282906001600160a01b0385169063dd62ed3e906146aa9030908690600401614fe5565b602060405180830381865afa1580156146c7573d6000803e3d6000fd5b505050506040513d601f19601f820116820180604052508101906146eb9190614fa3565b10156117b0576147066001600160a01b0384168260006147fb565b6117b06001600160a01b03841682600160ff1b6147fb565b60608247101561477f5760405162461bcd60e51b815260206004820152602660248201527f416464726573733a20696e73756666696369656e742062616c616e636520666f6044820152651c8818d85b1b60d21b6064820152608401610ce5565b600080866001600160a01b0316858760405161479b9190615dc4565b60006040518083038185875af1925050503d80600081146147d8576040519150601f19603f3d011682016040523d82523d6000602084013e6147dd565b606091505b50915091506147ee878383876148fe565b925050505b949350505050565b8015806148745750604051636eb1769f60e11b81526001600160a01b0384169063dd62ed3e906148319030908690600401614fe5565b602060405180830381865afa15801561484e573d6000803e3d6000fd5b505050506040513d601f19601f820116820180604052508101906148729190614fa3565b155b6148df5760405162461bcd60e51b815260206004820152603660248201527f5361666545524332303a20617070726f76652066726f6d206e6f6e2d7a65726f60448201527520746f206e6f6e2d7a65726f20616c6c6f77616e636560501b6064820152608401610ce5565b6117b08363095ea7b360e01b8484604051602401612d6c9291906153e4565b6060831561496d578251600003614966576001600160a01b0385163b6149665760405162461bcd60e51b815260206004820152601d60248201527f416464726573733a2063616c6c20746f206e6f6e2d636f6e74726163740000006044820152606401610ce5565b50816147f3565b6147f383838151156149825781518083602001fd5b8060405162461bcd60e51b8152600401610ce59190614c30565b6000602082840312156149ae57600080fd5b81356001600160e01b0319811681146143e057600080fd5b6001600160a01b038116811461314957600080fd5b600080604083850312156149ee57600080fd5b82356149f9816149c6565b946020939093013593505050565b600081518084526020808501945080840160005b83811015614a3757815187529582019590820190600101614a1b565b509495945050505050565b6001600160a01b038d811682528c811660208301528b811660408301528a166060820152600289810b608083015288810b60a083015287810b60c083015286900b60e082015260006001600160801b03861661010083015284151561012083015283610140830152610180610160830152614ac1610180830184614a07565b9e9d5050505050505050505050505050565b60008060408385031215614ae657600080fd5b823591506020830135614af8816149c6565b809150509250929050565b8035600281900b8114614b1557600080fd5b919050565b60008060008060008060c08789031215614b3357600080fd5b8635614b3e816149c6565b95506020870135614b4e816149c6565b94506040870135614b5e816149c6565b93506060870135614b6e816149c6565b9250614b7c60808801614b03565b9150614b8a60a08801614b03565b90509295509295509295565b600060208284031215614ba857600080fd5b5035919050565b6001600160a01b0391909116815260200190565b600060208284031215614bd557600080fd5b81356143e0816149c6565b60005b83811015614bfb578181015183820152602001614be3565b50506000910152565b60008151808452614c1c816020860160208601614be0565b601f01601f19169290920160200192915050565b6020815260006143e06020830184614c04565b60008083601f840112614c5557600080fd5b5081356001600160401b03811115614c6c57600080fd5b60208301915083602082850101111561350b57600080fd5b60008060208385031215614c9757600080fd5b82356001600160401b03811115614cad57600080fd5b61265685828601614c43565b634e487b7160e01b600052604160045260246000fd5b604051601f8201601f191681016001600160401b0381118282101715614cf757614cf7614cb9565b604052919050565b60006001600160401b03821115614d1857614d18614cb9565b5060051b60200190565b600082601f830112614d3357600080fd5b81356020614d48614d4383614cff565b614ccf565b82815260059290921b84018101918181019086841115614d6757600080fd5b8286015b84811015614d825780358352918301918301614d6b565b509695505050505050565b60008060408385031215614da057600080fd5b82356001600160401b0380821115614db757600080fd5b818501915085601f830112614dcb57600080fd5b81356020614ddb614d4383614cff565b82815260059290921b84018101918181019089841115614dfa57600080fd5b948201945b83861015614e21578535614e12816149c6565b82529482019490820190614dff565b96505086013592505080821115614e3757600080fd5b50614e4485828601614d22565b9150509250929050565b801515811461314957600080fd5b60008060408385031215614e6f57600080fd5b823591506020830135614af881614e4e565b60008060008060608587031215614e9757600080fd5b843593506020850135925060408501356001600160401b03811115614ebb57600080fd5b614ec787828801614c43565b95989497509550505050565b60006001600160401b03821115614eec57614eec614cb9565b50601f01601f191660200190565b60008060008060808587031215614f1057600080fd5b8435614f1b81614e4e565b9350602085013592506040850135614f32816149c6565b915060608501356001600160401b03811115614f4d57600080fd5b8501601f81018713614f5e57600080fd5b8035614f6c614d4382614ed3565b818152886020838501011115614f8157600080fd5b8160208401602083013760006020838301015280935050505092959194509250565b600060208284031215614fb557600080fd5b5051919050565b634e487b7160e01b600052601160045260246000fd5b808201808211156107eb576107eb614fbc565b6001600160a01b0392831681529116602082015260400190565b6001600160a01b039586168152602081019490945260408401929092526060830152909116608082015260a00190565b634e487b7160e01b600052603260045260246000fd5b60006020828403121561505757600080fd5b81516143e0816149c6565b6000615070614d4384614ed3565b905082815283838301111561508457600080fd5b6143e0836020830184614be0565b6000602082840312156150a457600080fd5b81516001600160401b038111156150ba57600080fd5b8201601f810184136150cb57600080fd5b611ee884825160208401615062565b600181811c908216806150ee57607f821691505b60208210810361510e57634e487b7160e01b600052602260045260246000fd5b50919050565b601f8211156117b057600081815260208120601f850160051c8101602086101561513b5750805b601f850160051c820191505b81811015611b5d57828155600101615147565b81516001600160401b0381111561517357615173614cb9565b6151878161518184546150da565b84615114565b602080601f8311600181146151bc57600084156151a45750858301515b600019600386901b1c1916600185901b178555611b5d565b600085815260208120601f198616915b828110156151eb578886015182559484019460019091019084016151cc565b50858210156152095787850151600019600388901b60f8161c191681555b5050505050600190811b01905550565b600060208083526000845461522d816150da565b8084870152604060018084166000811461524e576001811461526857615296565b60ff1985168984015283151560051b890183019550615296565b896000528660002060005b8581101561528e5781548b8201860152908301908801615273565b8a0184019650505b509398975050505050505050565b818103818111156107eb576107eb614fbc565b600080604083850312156152ca57600080fd5b82516152d581614e4e565b6020939093015192949293505050565b6001600160a01b03841681526040602082018190528101829052818360608301376000818301606090810191909152601f909201601f1916010192915050565b6001600160401b0383111561533c5761533c614cb9565b6153508361534a83546150da565b83615114565b6000601f841160018114615384576000851561536c5750838201355b600019600387901b1c1916600186901b1783556110ec565b600083815260209020601f19861690835b828110156153b55786850135825560209485019460019092019101615395565b50868210156153d25760001960f88860031b161c19848701351681555b505060018560011b0183555050505050565b6001600160a01b03929092168252602082015260400190565b600082601f83011261540e57600080fd5b8151602061541e614d4383614cff565b82815260059290921b8401810191818101908684111561543d57600080fd5b8286015b84811015614d825780518352918301918301615441565b6000806040838503121561546b57600080fd5b82516001600160401b0381111561548157600080fd5b61548d858286016153fd565b9250506020830151614af881614e4e565b8281526040602082015260006143dd6040830184614a07565b600081518084526020808501945080840160005b83811015614a375781516001600160a01b0316875295820195908201906001016154cb565b87815286602082015260e06040820152600061550f60e08301886154b7565b6001600160a01b0396871660608401529486166080830152509190931660a082015260c001919091529392505050565b60006020828403121561555157600080fd5b81516143e081614e4e565b6000806040838503121561556f57600080fd5b505080516020909101519092909150565b868152600060018060a01b03808816602084015286604084015260c060608401528551151560c0840152602086015160e084015280604087015116610100840152606086015160806101208501526155dc610140850182614c04565b6080850196909652509290921660a09091015250949350505050565b60006020828403121561560a57600080fd5b81516001600160401b0381111561562057600080fd5b611ee8848285016153fd565b6020808252602b908201527f496e697469616c697a61626c653a20636f6e7472616374206973206e6f74206960408201526a6e697469616c697a696e6760a81b606082015260800190565b60008261569457634e487b7160e01b600052601260045260246000fd5b500490565b6080815260006156ac60808301876154b7565b82810360208401526156be8187614a07565b604084019590955250506001600160a01b039190911660609091015292915050565b6001600160a01b038616815260a060208201819052600090615704908301876154b7565b828103604084015261571681876154b7565b9050828103606084015261572a8186614a07565b9050828103608084015261573e8185614a07565b98975050505050505050565b600082601f83011261575b57600080fd5b8151602061576b614d4383614cff565b82815260059290921b8401810191818101908684111561578a57600080fd5b8286015b84811015614d825780516157a1816149c6565b835291830191830161578e565b600080604083850312156157c157600080fd5b82516001600160401b03808211156157d857600080fd5b6157e48683870161574a565b935060208501519150808211156157fa57600080fd5b50614e44858286016153fd565b80820281158282048414176107eb576107eb614fbc565b6020815260006143e06020830184614a07565b600060018060a01b03808916835280881660208401525085604083015284606083015283608083015260c060a083015261573e60c08301846154b7565b60018060a01b03871681528560020b60208201528460020b604082015260c0606082015260006158a160c0830186614a07565b6001600160801b039490941660808301525090151560a090910152949350505050565b6000806000606084860312156158d957600080fd5b83516001600160401b038111156158ef57600080fd5b6158fb868287016153fd565b9350506020840151915060408401516001600160801b038116811461591f57600080fd5b809150509250925092565b60408152600061593d6040830185614a07565b828103602084015261594f8185614a07565b95945050505050565b60008060006060848603121561596d57600080fd5b83516001600160401b038082111561598457600080fd5b6159908783880161574a565b945060208601519150808211156159a657600080fd5b6159b2878388016153fd565b935060408601519150808211156159c857600080fd5b506159d5868287016153fd565b9150509250925092565b6001600160a01b03858116825284166020820152608060408201819052600090615a0b908301856154b7565b8281036060840152615a1d8185614a07565b979650505050505050565b6001600160a01b039485168152602081019390935292166040820152606081019190915260800190565b878152600060018060a01b03808916602084015260e06040840152615a7a60e08401896154b7565b606084019790975294909416608082015260a081019290925260c090910152509392505050565b60008060408385031215615ab457600080fd5b8251915060208301516001600160401b03811115615ad157600080fd5b614e44858286016153fd565b6001600160a01b038916815261010060208201819052600090615b028382018b6154b7565b90508860408401528281036060840152615b1c8189614a07565b90508660808401528560a084015282810360c0840152615b3c8186614a07565b905082810360e0840152615b508185614a07565b9b9a5050505050505050505050565b60008060408385031215615b7257600080fd5b82516001600160401b0380821115615b8957600080fd5b6157e4868387016153fd565b6001600160a01b0385168152608060208201819052600090615bb9908301866154b7565b8460408401528281036060840152615a1d8185614a07565b6000610100808352615be58184018c6154b7565b90508960208401528281036040840152615bff818a614a07565b6001600160a01b0389811660608601528816608085015260a0840187905283810360c08501529050615c318186614a07565b9150508260e08301529998505050505050505050565b600060018060a01b03808916835260c06020840152615c6960c0840189614c04565b9681166040840152949094166060820152608081019290925260a0909101525092915050565b6001600160a01b038a8116825289811660208301526040820189905261012060608301819052600091615cc48483018b6154b7565b91508089166080850152508660a084015282810360c0840152615ce781876154b7565b905082810360e0840152615cfb8186614a07565b915050826101008301529a9950505050505050505050565b60008060408385031215615d2657600080fd5b82516001600160401b03811115615d3c57600080fd5b615d48858286016153fd565b925050602083015190509250929050565b6080808252855190820181905260009060209060a0840190828901845b82811015615d9b5781516001600160a01b031684529284019290840190600101615d76565b50505083810382850152615daf8188614a07565b60408501969096525050506060015292915050565b60008251615dd6818460208701614be0565b919091019291505056fea26469706673582212207ddc59751eddb12fc9d2fca1d24c3c2a8458f0944ad71d83d6fb96a10967312664736f6c63430008110033",
  "libraries": {
    "StrategyLib": "0x3BEB969c0cd273eA1d7a39137a757Cf1c474510a",
    "ConverterStrategyBaseLib": "0x4dC0dfFFd2de28f7A822Fe1139127e3dc1Af86FA",
    "ConverterStrategyBaseLib2": "0x3C8b18162cBb11B9D0afe3828f4A6C6e247f30E0",
    "UniswapV3ConverterStrategyLogicLib": "0x2A9053266fad8d696ae2f960D21EC622B29e9fcd"
  },
  "devdoc": {
    "author": "a17",
    "kind": "dev",
    "methods": {
      "claim()": {
        "details": "Manual claim rewards."
      },
      "created()": {
        "returns": {
          "_0": "Creation timestamp"
        }
      },
      "createdBlock()": {
        "returns": {
          "_0": "Creation block number"
        }
      },
      "doHardWork()": {
        "returns": {
          "earned": "Earned amount in terms of {asset}",
          "lost": "Lost amount in terms of {asset}"
        }
      },
      "emergencyExit()": {
        "details": "In case of any issue operator can withdraw all from pool."
      },
      "getFees()": {
        "returns": {
          "fee0": "and fee1."
        }
      },
      "increaseRevision(address)": {
        "details": "Revision should be increased on each contract upgrade"
      },
      "init(address,address,address,address,int24,int24)": {
        "params": {
          "controller_": "The address of the controller.",
          "converter_": "The address of the converter.",
          "pool_": "The address of the pool.",
          "rebalanceTickRange_": "The tick range for rebalancing.",
          "splitter_": "The address of the splitter.",
          "tickRange_": "The tick range for the liquidity position."
        }
      },
      "investAll(uint256,bool)": {
        "params": {
          "updateTotalAssetsBeforeInvest_": "Recalculate total assets amount before depositing.                                       It can be false if we know exactly, that the amount is already actual."
        },
        "returns": {
          "strategyLoss": "Loss should be covered from Insurance"
        }
      },
      "isController(address)": {
        "details": "Return true if given address is controller"
      },
      "isReadyToHardWork()": {
        "returns": {
          "_0": "A boolean indicating if the strategy is ready for hard work."
        }
      },
      "needRebalance()": {
        "returns": {
          "_0": "A boolean indicating if the strategy needs rebalancing."
        }
      },
      "onTransferAmounts(address[],uint256[])": {
        "params": {
          "amounts_": "Amount of {asset_} that has been sent to the user's balance",
          "assets_": "Any asset sent to the balance, i.e. inside repayTheBorrow"
        }
      },
      "previousImplementation()": {
        "details": "Previous logic implementation"
      },
      "quoteRebalanceSwap()": {
        "returns": {
          "_0": "swapAtoB, swapAmount"
        }
      },
      "rebalance()": {
        "details": "The rebalancing functionality is the core of this strategy.      Depending on the size of the range of liquidity provided, the Fill-up or Swap method is used.      There is also an attempt to cover rebalancing losses with rewards."
      },
      "requirePayAmountBack(address,uint256)": {
        "params": {
          "amount_": "Required amount of the {theAsset_}",
          "theAsset_": "Required asset (either collateral or borrow)"
        },
        "returns": {
          "amountOut": "Amount sent to balance of TetuConverter, amountOut <= amount_"
        }
      },
      "revision()": {
        "details": "Contract upgrade counter"
      },
      "setCompoundRatio(uint256)": {
        "details": "PlatformVoter can change compound ratio for some strategies.      A strategy can implement another logic for some uniq cases."
      },
      "setFuseThreshold(uint256)": {
        "params": {
          "newFuseThreshold": "The new fuse threshold value."
        }
      },
      "setReinvestThresholdPercent(uint256)": {
        "params": {
          "percent_": "New value of the percent, decimals = {REINVEST_THRESHOLD_PERCENT_DENOMINATOR}"
        }
      },
      "setStrategySpecificName(string)": {
        "details": "The name will be used for UI."
      },
      "supportsInterface(bytes4)": {
        "details": "See {IERC165-supportsInterface}."
      },
      "totalAssets()": {
        "details": "Total amount of underlying assets under control of this strategy."
      },
      "uniswapV3MintCallback(uint256,uint256,bytes)": {
        "params": {
          "amount0Owed": "The amount of token0 owed to the pool.",
          "amount1Owed": "The amount of token1 owed to the pool."
        }
      },
      "withdrawAllToSplitter()": {
        "details": "Withdraws all underlying assets to the vault",
        "returns": {
          "strategyLoss": "Loss should be covered from Insurance"
        }
      },
      "withdrawToSplitter(uint256)": {
        "details": "Withdraws some assets to the splitter",
        "returns": {
          "strategyLoss": "Loss should be covered from Insurance"
        }
      }
    },
    "title": "Delta-neutral liquidity hedging converter fill-up/swap rebalancing strategy for UniswapV3",
    "version": 1
  },
  "userdoc": {
    "events": {
      "Recycle(address[],uint256[],uint256,uint256)": {
        "notice": "Recycle was made"
      }
    },
    "kind": "user",
    "methods": {
      "CONTROLLABLE_VERSION()": {
        "notice": "Version of the contract"
      },
      "NAME()": {
        "notice": "CONSTANTS"
      },
      "capacity()": {
        "notice": "Unlimited capacity by default"
      },
      "controller()": {
        "notice": "Return controller address saved in the contract slot"
      },
      "created()": {
        "notice": "Return creation timestamp"
      },
      "createdBlock()": {
        "notice": "Return creation block number"
      },
      "disableFuse()": {
        "notice": "Disable fuse for the strategy."
      },
      "doHardWork()": {
        "notice": "Do hard work with reinvesting"
      },
      "getFees()": {
        "notice": "Returns the fees for the current state."
      },
      "getState()": {
        "notice": "Returns the current state of the contract."
      },
      "init(address,address,address,address,int24,int24)": {
        "notice": "Initialize the strategy with the given parameters."
      },
      "investAll(uint256,bool)": {
        "notice": "Stakes everything the strategy holds into the reward pool. amount_ Amount transferred to the strategy balance just before calling this function"
      },
      "investedAssets()": {
        "notice": "Amount of underlying assets converted to pool assets and invested to the pool."
      },
      "isGovernance(address)": {
        "notice": "Return true if given address is setup as governance in Controller"
      },
      "isReadyToHardWork()": {
        "notice": "Check if the strategy is ready for hard work."
      },
      "liquidationThresholds(address)": {
        "notice": "Minimum token amounts that can be liquidated"
      },
      "needRebalance()": {
        "notice": "Check if the strategy needs rebalancing."
      },
      "onTransferAmounts(address[],uint256[])": {
        "notice": "TetuConverter calls this function when it sends any amount to user's balance"
      },
      "performanceFee()": {
        "notice": "A percent of total profit that is sent to the {performanceReceiver} before compounding"
      },
      "performanceFeeRatio()": {
        "notice": "Ratio to split performance fee on toPerf + toInsurance, [0..100_000]         100_000 - send full amount toPerf, 0 - send full amount toInsurance."
      },
      "performanceReceiver()": {
        "notice": "{performanceFee}% of total profit is sent to {performanceReceiver} before compounding"
      },
      "reinvestThresholdPercent()": {
        "notice": "Percent of asset amount that can be not invested, it's allowed to just keep it on balance         decimals = {DENOMINATOR}"
      },
      "requirePayAmountBack(address,uint256)": {
        "notice": "Converters asks to send some amount back."
      },
      "setFuseThreshold(uint256)": {
        "notice": "Set the fuse threshold for the strategy."
      },
      "setPerformanceFeeRatio(uint256)": {
        "notice": "[0..100_000], 100_000 - send full amount toPerf, 0 - send full amount toInsurance."
      },
      "setupPerformanceFee(uint256,address)": {
        "notice": "Set performance fee and receiver"
      },
      "uniswapV3MintCallback(uint256,uint256,bytes)": {
        "notice": "Callback function called by Uniswap V3 pool on mint operation."
      }
    },
    "notice": "This strategy provides delta-neutral liquidity hedging for Uniswap V3 pools. It rebalances the liquidity         by utilizing fill-up and swap methods depending on the range size of the liquidity provided.",
    "version": 1
  },
  "storageLayout": {
    "storage": [
      {
        "astId": 11696,
        "contract": "contracts/strategies/uniswap/UniswapV3ConverterStrategy.sol:UniswapV3ConverterStrategy",
        "label": "_initialized",
        "offset": 0,
        "slot": "0",
        "type": "t_uint8"
      },
      {
        "astId": 11699,
        "contract": "contracts/strategies/uniswap/UniswapV3ConverterStrategy.sol:UniswapV3ConverterStrategy",
        "label": "_initializing",
        "offset": 1,
        "slot": "0",
        "type": "t_bool"
      },
      {
        "astId": 87479,
        "contract": "contracts/strategies/uniswap/UniswapV3ConverterStrategy.sol:UniswapV3ConverterStrategy",
        "label": "state",
        "offset": 0,
        "slot": "1",
        "type": "t_struct(State)83109_storage"
      },
      {
        "astId": 87916,
        "contract": "contracts/strategies/uniswap/UniswapV3ConverterStrategy.sol:UniswapV3ConverterStrategy",
        "label": "__gap",
        "offset": 0,
        "slot": "13",
        "type": "t_array(t_uint256)48_storage"
      },
      {
        "astId": 16585,
        "contract": "contracts/strategies/uniswap/UniswapV3ConverterStrategy.sol:UniswapV3ConverterStrategy",
        "label": "asset",
        "offset": 0,
        "slot": "61",
        "type": "t_address"
      },
      {
        "astId": 16589,
        "contract": "contracts/strategies/uniswap/UniswapV3ConverterStrategy.sol:UniswapV3ConverterStrategy",
        "label": "splitter",
        "offset": 0,
        "slot": "62",
        "type": "t_address"
      },
      {
        "astId": 16593,
        "contract": "contracts/strategies/uniswap/UniswapV3ConverterStrategy.sol:UniswapV3ConverterStrategy",
        "label": "compoundRatio",
        "offset": 0,
        "slot": "63",
        "type": "t_uint256"
      },
      {
        "astId": 16595,
        "contract": "contracts/strategies/uniswap/UniswapV3ConverterStrategy.sol:UniswapV3ConverterStrategy",
        "label": "__deprecatedSlot1",
        "offset": 0,
        "slot": "64",
        "type": "t_uint256"
      },
      {
        "astId": 16599,
        "contract": "contracts/strategies/uniswap/UniswapV3ConverterStrategy.sol:UniswapV3ConverterStrategy",
        "label": "performanceReceiver",
        "offset": 0,
        "slot": "65",
        "type": "t_address"
      },
      {
        "astId": 16603,
        "contract": "contracts/strategies/uniswap/UniswapV3ConverterStrategy.sol:UniswapV3ConverterStrategy",
        "label": "performanceFee",
        "offset": 0,
        "slot": "66",
        "type": "t_uint256"
      },
      {
        "astId": 16607,
        "contract": "contracts/strategies/uniswap/UniswapV3ConverterStrategy.sol:UniswapV3ConverterStrategy",
        "label": "strategySpecificName",
        "offset": 0,
        "slot": "67",
        "type": "t_string_storage"
      },
      {
        "astId": 17004,
        "contract": "contracts/strategies/uniswap/UniswapV3ConverterStrategy.sol:UniswapV3ConverterStrategy",
        "label": "__gap",
        "offset": 0,
        "slot": "68",
        "type": "t_array(t_uint256)43_storage"
      },
      {
        "astId": 65534,
        "contract": "contracts/strategies/uniswap/UniswapV3ConverterStrategy.sol:UniswapV3ConverterStrategy",
        "label": "_investedAssets",
        "offset": 0,
        "slot": "111",
        "type": "t_uint256"
      },
      {
        "astId": 65538,
        "contract": "contracts/strategies/uniswap/UniswapV3ConverterStrategy.sol:UniswapV3ConverterStrategy",
        "label": "converter",
        "offset": 0,
        "slot": "112",
        "type": "t_contract(ITetuConverter)43310"
      },
      {
        "astId": 65543,
        "contract": "contracts/strategies/uniswap/UniswapV3ConverterStrategy.sol:UniswapV3ConverterStrategy",
        "label": "liquidationThresholds",
        "offset": 0,
        "slot": "113",
        "type": "t_mapping(t_address,t_uint256)"
      },
      {
        "astId": 65546,
        "contract": "contracts/strategies/uniswap/UniswapV3ConverterStrategy.sol:UniswapV3ConverterStrategy",
        "label": "reinvestThresholdPercent",
        "offset": 0,
        "slot": "114",
        "type": "t_uint256"
      },
      {
        "astId": 65549,
        "contract": "contracts/strategies/uniswap/UniswapV3ConverterStrategy.sol:UniswapV3ConverterStrategy",
        "label": "performanceFeeRatio",
        "offset": 0,
        "slot": "115",
        "type": "t_uint256"
      },
      {
        "astId": 67045,
        "contract": "contracts/strategies/uniswap/UniswapV3ConverterStrategy.sol:UniswapV3ConverterStrategy",
        "label": "__gap",
        "offset": 0,
        "slot": "116",
        "type": "t_array(t_uint256)45_storage"
      }
    ],
    "types": {
      "t_address": {
        "encoding": "inplace",
        "label": "address",
        "numberOfBytes": "20"
      },
      "t_array(t_uint256)43_storage": {
        "base": "t_uint256",
        "encoding": "inplace",
        "label": "uint256[43]",
        "numberOfBytes": "1376"
      },
      "t_array(t_uint256)45_storage": {
        "base": "t_uint256",
        "encoding": "inplace",
        "label": "uint256[45]",
        "numberOfBytes": "1440"
      },
      "t_array(t_uint256)48_storage": {
        "base": "t_uint256",
        "encoding": "inplace",
        "label": "uint256[48]",
        "numberOfBytes": "1536"
      },
      "t_bool": {
        "encoding": "inplace",
        "label": "bool",
        "numberOfBytes": "1"
      },
      "t_contract(ITetuConverter)43310": {
        "encoding": "inplace",
        "label": "contract ITetuConverter",
        "numberOfBytes": "20"
      },
      "t_contract(IUniswapV3Pool)63492": {
        "encoding": "inplace",
        "label": "contract IUniswapV3Pool",
        "numberOfBytes": "20"
      },
      "t_int24": {
        "encoding": "inplace",
        "label": "int24",
        "numberOfBytes": "3"
      },
      "t_mapping(t_address,t_uint256)": {
        "encoding": "mapping",
        "key": "t_address",
        "label": "mapping(address => uint256)",
        "numberOfBytes": "32",
        "value": "t_uint256"
      },
      "t_string_storage": {
        "encoding": "bytes",
        "label": "string",
        "numberOfBytes": "32"
      },
      "t_struct(State)83109_storage": {
        "encoding": "inplace",
        "label": "struct UniswapV3ConverterStrategyLogicLib.State",
        "members": [
          {
            "astId": 83067,
            "contract": "contracts/strategies/uniswap/UniswapV3ConverterStrategy.sol:UniswapV3ConverterStrategy",
            "label": "tokenA",
            "offset": 0,
            "slot": "0",
            "type": "t_address"
          },
          {
            "astId": 83069,
            "contract": "contracts/strategies/uniswap/UniswapV3ConverterStrategy.sol:UniswapV3ConverterStrategy",
            "label": "tokenB",
            "offset": 0,
            "slot": "1",
            "type": "t_address"
          },
          {
            "astId": 83072,
            "contract": "contracts/strategies/uniswap/UniswapV3ConverterStrategy.sol:UniswapV3ConverterStrategy",
            "label": "pool",
            "offset": 0,
            "slot": "2",
            "type": "t_contract(IUniswapV3Pool)63492"
          },
          {
            "astId": 83074,
            "contract": "contracts/strategies/uniswap/UniswapV3ConverterStrategy.sol:UniswapV3ConverterStrategy",
            "label": "tickSpacing",
            "offset": 20,
            "slot": "2",
            "type": "t_int24"
          },
          {
            "astId": 83076,
            "contract": "contracts/strategies/uniswap/UniswapV3ConverterStrategy.sol:UniswapV3ConverterStrategy",
            "label": "fillUp",
            "offset": 23,
            "slot": "2",
            "type": "t_bool"
          },
          {
            "astId": 83078,
            "contract": "contracts/strategies/uniswap/UniswapV3ConverterStrategy.sol:UniswapV3ConverterStrategy",
            "label": "isStablePool",
            "offset": 24,
            "slot": "2",
            "type": "t_bool"
          },
          {
            "astId": 83080,
            "contract": "contracts/strategies/uniswap/UniswapV3ConverterStrategy.sol:UniswapV3ConverterStrategy",
            "label": "lowerTick",
            "offset": 25,
            "slot": "2",
            "type": "t_int24"
          },
          {
            "astId": 83082,
            "contract": "contracts/strategies/uniswap/UniswapV3ConverterStrategy.sol:UniswapV3ConverterStrategy",
            "label": "upperTick",
            "offset": 28,
            "slot": "2",
            "type": "t_int24"
          },
          {
            "astId": 83084,
            "contract": "contracts/strategies/uniswap/UniswapV3ConverterStrategy.sol:UniswapV3ConverterStrategy",
            "label": "lowerTickFillup",
            "offset": 0,
            "slot": "3",
            "type": "t_int24"
          },
          {
            "astId": 83086,
            "contract": "contracts/strategies/uniswap/UniswapV3ConverterStrategy.sol:UniswapV3ConverterStrategy",
            "label": "upperTickFillup",
            "offset": 3,
            "slot": "3",
            "type": "t_int24"
          },
          {
            "astId": 83088,
            "contract": "contracts/strategies/uniswap/UniswapV3ConverterStrategy.sol:UniswapV3ConverterStrategy",
            "label": "rebalanceTickRange",
            "offset": 6,
            "slot": "3",
            "type": "t_int24"
          },
          {
            "astId": 83090,
            "contract": "contracts/strategies/uniswap/UniswapV3ConverterStrategy.sol:UniswapV3ConverterStrategy",
            "label": "depositorSwapTokens",
            "offset": 9,
            "slot": "3",
            "type": "t_bool"
          },
          {
            "astId": 83092,
            "contract": "contracts/strategies/uniswap/UniswapV3ConverterStrategy.sol:UniswapV3ConverterStrategy",
            "label": "totalLiquidity",
            "offset": 10,
            "slot": "3",
            "type": "t_uint128"
          },
          {
            "astId": 83094,
            "contract": "contracts/strategies/uniswap/UniswapV3ConverterStrategy.sol:UniswapV3ConverterStrategy",
            "label": "totalLiquidityFillup",
            "offset": 0,
            "slot": "4",
            "type": "t_uint128"
          },
          {
            "astId": 83096,
            "contract": "contracts/strategies/uniswap/UniswapV3ConverterStrategy.sol:UniswapV3ConverterStrategy",
            "label": "deprecated0",
            "offset": 0,
            "slot": "5",
            "type": "t_uint256"
          },
          {
            "astId": 83098,
            "contract": "contracts/strategies/uniswap/UniswapV3ConverterStrategy.sol:UniswapV3ConverterStrategy",
            "label": "deprecated1",
            "offset": 0,
            "slot": "6",
            "type": "t_uint256"
          },
          {
            "astId": 83100,
            "contract": "contracts/strategies/uniswap/UniswapV3ConverterStrategy.sol:UniswapV3ConverterStrategy",
            "label": "deprecated2",
            "offset": 0,
            "slot": "7",
            "type": "t_uint256"
          },
          {
            "astId": 83102,
            "contract": "contracts/strategies/uniswap/UniswapV3ConverterStrategy.sol:UniswapV3ConverterStrategy",
            "label": "isFuseTriggered",
            "offset": 0,
            "slot": "8",
            "type": "t_bool"
          },
          {
            "astId": 83104,
            "contract": "contracts/strategies/uniswap/UniswapV3ConverterStrategy.sol:UniswapV3ConverterStrategy",
            "label": "fuseThreshold",
            "offset": 0,
            "slot": "9",
            "type": "t_uint256"
          },
          {
            "astId": 83106,
            "contract": "contracts/strategies/uniswap/UniswapV3ConverterStrategy.sol:UniswapV3ConverterStrategy",
            "label": "lastPrice",
            "offset": 0,
            "slot": "10",
            "type": "t_uint256"
          },
          {
            "astId": 83108,
            "contract": "contracts/strategies/uniswap/UniswapV3ConverterStrategy.sol:UniswapV3ConverterStrategy",
            "label": "strategyProfitHolder",
            "offset": 0,
            "slot": "11",
            "type": "t_address"
          }
        ],
        "numberOfBytes": "384"
      },
      "t_uint128": {
        "encoding": "inplace",
        "label": "uint128",
        "numberOfBytes": "16"
      },
      "t_uint256": {
        "encoding": "inplace",
        "label": "uint256",
        "numberOfBytes": "32"
      },
      "t_uint8": {
        "encoding": "inplace",
        "label": "uint8",
        "numberOfBytes": "1"
      }
    }
  }
}