{
  "address": "0xC9E08402Cb08eA2b66da6282fDD1D288b0eedaAB",
  "abi": [
    {
      "anonymous": false,
      "inputs": [],
      "name": "DisableFuse",
      "type": "event"
    },
    {
      "anonymous": false,
      "inputs": [],
      "name": "FuseTriggered",
      "type": "event"
    },
    {
      "anonymous": false,
      "inputs": [
        {
          "indexed": false,
          "internalType": "uint256",
          "name": "newFuseThreshold",
          "type": "uint256"
        }
      ],
      "name": "NewFuseThreshold",
      "type": "event"
    },
    {
      "anonymous": false,
      "inputs": [],
      "name": "Rebalanced",
      "type": "event"
    },
    {
      "anonymous": false,
      "inputs": [
        {
          "indexed": false,
          "internalType": "uint256",
          "name": "fee0",
          "type": "uint256"
        },
        {
          "indexed": false,
          "internalType": "uint256",
          "name": "fee1",
          "type": "uint256"
        }
      ],
      "name": "UniV3FeesClaimed",
      "type": "event"
    },
    {
      "inputs": [],
      "name": "DEFAULT_FUSE_THRESHOLD",
      "outputs": [
        {
          "internalType": "uint256",
          "name": "",
          "type": "uint256"
        }
      ],
      "stateMutability": "view",
      "type": "function"
    },
    {
      "inputs": [
        {
          "internalType": "contract IUniswapV3Pool",
          "name": "pool",
          "type": "IUniswapV3Pool"
        },
        {
          "internalType": "int24",
          "name": "lowerTick",
          "type": "int24"
        },
        {
          "internalType": "int24",
          "name": "upperTick",
          "type": "int24"
        },
        {
          "internalType": "bool",
          "name": "depositorSwapTokens",
          "type": "bool"
        }
      ],
      "name": "getEntryData",
      "outputs": [
        {
          "internalType": "bytes",
          "name": "entryData",
          "type": "bytes"
        }
      ],
      "stateMutability": "view",
      "type": "function"
    },
    {
      "inputs": [
        {
          "internalType": "contract ITetuConverter",
          "name": "converter",
          "type": "ITetuConverter"
        },
        {
          "internalType": "address",
          "name": "tokenA",
          "type": "address"
        },
        {
          "internalType": "address",
          "name": "tokenB",
          "type": "address"
        }
      ],
      "name": "getOracleAssetsPrice",
      "outputs": [
        {
          "internalType": "uint256",
          "name": "",
          "type": "uint256"
        }
      ],
      "stateMutability": "view",
      "type": "function"
    },
    {
      "inputs": [
        {
          "internalType": "contract IUniswapV3Pool",
          "name": "pool",
          "type": "IUniswapV3Pool"
        }
      ],
      "name": "isStablePool",
      "outputs": [
        {
          "internalType": "bool",
          "name": "",
          "type": "bool"
        }
      ],
      "stateMutability": "view",
      "type": "function"
    },
    {
      "inputs": [
        {
          "internalType": "bool",
          "name": "isFuseTriggered",
          "type": "bool"
        },
        {
          "internalType": "contract IUniswapV3Pool",
          "name": "pool",
          "type": "IUniswapV3Pool"
        },
        {
          "internalType": "int24",
          "name": "lowerTick",
          "type": "int24"
        },
        {
          "internalType": "int24",
          "name": "upperTick",
          "type": "int24"
        },
        {
          "internalType": "int24",
          "name": "tickSpacing",
          "type": "int24"
        },
        {
          "internalType": "int24",
          "name": "rebalanceTickRange",
          "type": "int24"
        }
      ],
      "name": "needRebalance",
      "outputs": [
        {
          "internalType": "bool",
          "name": "",
          "type": "bool"
        }
      ],
      "stateMutability": "view",
      "type": "function"
    },
    {
      "inputs": [
        {
          "internalType": "contract IUniswapV3Pool",
          "name": "pool",
          "type": "IUniswapV3Pool"
        },
        {
          "internalType": "int24",
          "name": "lowerTick",
          "type": "int24"
        },
        {
          "internalType": "int24",
          "name": "upperTick",
          "type": "int24"
        },
        {
          "internalType": "int24",
          "name": "lowerTickFillup",
          "type": "int24"
        },
        {
          "internalType": "int24",
          "name": "upperTickFillup",
          "type": "int24"
        },
        {
          "internalType": "uint128",
          "name": "liquidity",
          "type": "uint128"
        },
        {
          "internalType": "uint128",
          "name": "liquidityFillup",
          "type": "uint128"
        },
        {
          "internalType": "uint128",
          "name": "liquidityAmountToExit",
          "type": "uint128"
        },
        {
          "internalType": "bool",
          "name": "_depositorSwapTokens",
          "type": "bool"
        }
      ],
      "name": "quoteExit",
      "outputs": [
        {
          "internalType": "uint256[]",
          "name": "amountsOut",
          "type": "uint256[]"
        }
      ],
      "stateMutability": "view",
      "type": "function"
    }
  ],
  "transactionHash": "0x8e91b039a7b3dee59dd81c4ab1f995f5aab3bd01dbb10dd75069474fd164a282",
  "args": [],
  "numDeployments": 11,
  "solcInputHash": "9148a0ed26a2e4620bc5049dd452242e",
  "bytecode": "0x615b8a6200003b600b82828239805160001a60731461002e57634e487b7160e01b600052600060045260246000fd5b30600052607381538281f3fe730000000000000000000000000000000000000000301460806040526004361061014c5760003560e01c806380089367116100c2578063c68bc70311610086578063c68bc7031461036e578063ce74e5d914610381578063d6f43ad81461038f578063e3bca2d8146103a2578063ef3475ac146103c2578063f460770b146103f957600080fd5b806380089367146102a05780638c64d455146102cf578063928f8493146102fe578063a1d4398914610320578063b24d8db01461034057600080fd5b8063345aec3611610114578063345aec36146102115780634cc115151461022457806354747e5b1461024457806357d59aae146102675780635ca1bcdf1461027a5780637fd6c0a11461028d57600080fd5b806302c8fd9114610151578063052a8899146101875780630a65e5e7146101b5578063190fa314146101c8578063232421d9146101f0575b600080fd5b81801561015d57600080fd5b5061017161016c366004614a1d565b61040e565b60405161017e9190614a88565b60405180910390f35b81801561019357600080fd5b506101a76101a2366004614beb565b6108f4565b60405161017e929190614cc8565b6101716101c3366004614ced565b610e1e565b6101db6101d6366004614ced565b611133565b6040805192835260208301919091520161017e565b6102036101fe366004614ced565b611226565b60405190815260200161017e565b6101db61021f366004614ced565b6113a5565b81801561023057600080fd5b5061017161023f366004614d2e565b61156d565b610257610252366004614e31565b611bab565b604051901515815260200161017e565b610257610275366004614e4e565b611c1e565b610257610288366004614ed0565b611d49565b61020361029b366004614ef5565b611fb9565b8180156102ac57600080fd5b506102c06102bb366004614f40565b61218b565b60405161017e9392919061502b565b8180156102db57600080fd5b506102ef6102ea36600461505d565b61245b565b60405161017e939291906150cb565b81801561030a57600080fd5b5061031e6103193660046150f1565b612a1a565b005b61033361032e36600461517e565b612d1c565b60405161017e919061522a565b81801561034c57600080fd5b5061036061035b36600461523d565b612dc2565b60405161017e929190615285565b61017161037c3660046152a9565b6133c3565b6102036611c37937e0800081565b61033361039d366004614ced565b6136c7565b8180156103ae57600080fd5b5061031e6103bd366004614ced565b613858565b8180156103ce57600080fd5b506103e26103dd366004614ed0565b61388e565b60408051921515835260208301919091520161017e565b81801561040557600080fd5b5061031e613d00565b600282810154600384015460048501546040805180820190915260158152745533532d372057726f6e67206c697175696469747960581b60208201526060946000946001600160a01b03811694600160c81b8204830b94600160e01b909204830b9381840b9363010000008304900b92600160501b83046001600160801b039081169391811692600160481b90920460ff1691908c168410156104cd5760405162461bcd60e51b81526004016104c4919061522a565b60405180910390fd5b506040805160028082526060820183529091602083019080368337019050509950876001600160a01b031663a34123a788888e6040518463ffffffff1660e01b815260040161051e939291906150cb565b60408051808303816000875af115801561053c573d6000803e3d6000fd5b505050506040513d601f19601f820116820180604052508101906105609190615365565b8b60008151811061057357610573615389565b602002602001018c60018151811061058d5761058d615389565b6020908102919091010191909152526040516309e3d67b60e31b81526001600160a01b03891690634f1eb3d8906105d79030908b908b906001600160801b0390819060040161539f565b60408051808303816000875af11580156105f5573d6000803e3d6000fd5b505050506040513d601f19601f8201168201806040525081019061061991906153dc565b50506001600160801b03821615610819576000836001600160801b03168c6001600160801b0316846001600160801b03166106549190615421565b61065e919061544e565b90506000808a6001600160a01b031663a34123a78989866040518463ffffffff1660e01b8152600401610693939291906150cb565b60408051808303816000875af11580156106b1573d6000803e3d6000fd5b505050506040513d601f19601f820116820180604052508101906106d59190615365565b6040516309e3d67b60e31b815291935091506001600160a01b038c1690634f1eb3d8906107159030908c908c906001600160801b0390819060040161539f565b60408051808303816000875af1158015610733573d6000803e3d6000fd5b505050506040513d601f19601f8201168201806040525081019061075791906153dc565b5050818d60008151811061076d5761076d615389565b602002602001018181516107819190615462565b9052508c5181908e90600190811061079b5761079b615389565b602002602001018181516107af9190615462565b90525060408051808201909152601281527105533532d382057726f6e672066696c6c75760741b60208201526001600160801b0380851690871610156108085760405162461bcd60e51b81526004016104c4919061522a565b506108138386615475565b9b505050505b6108238b84615475565b60038d018054600160501b600160d01b031916600160501b6001600160801b039384160217905560048d0180546fffffffffffffffffffffffffffffffff1916918b1691909117905580156108e5578960018151811061088557610885615389565b60200260200101518a6000815181106108a0576108a0615389565b60200260200101518b6000815181106108bb576108bb615389565b602002602001018c6001815181106108d5576108d5615389565b6020908102919091010191909152525b50505050505050505092915050565b60408051600280825260608083018452928392919060208301908036833701905050905060005b85518110156109d95785818151811061093657610936615389565b60209081029190910101516040516370a0823160e01b81523060048201526001600160a01b03909116906370a0823190602401602060405180830381865afa158015610986573d6000803e3d6000fd5b505050506040513d601f19601f820116820180604052508101906109aa919061549c565b8282815181106109bc576109bc615389565b6020908102919091010152806109d1816154b5565b91505061091b565b5060408051600280825260608201835290916020830190803683370190505091506001600160801b03841615610b505760405163a34123a760e01b81526001600160a01b038e169063a34123a790610a3a908f908f906000906004016150cb565b60408051808303816000875af1158015610a58573d6000803e3d6000fd5b505050506040513d601f19601f82011682018060405250810190610a7c9190615365565b50508c6001600160a01b0316634f1eb3d8308e8e6001600160801b03806040518663ffffffff1660e01b8152600401610ab995949392919061539f565b60408051808303816000875af1158015610ad7573d6000803e3d6000fd5b505050506040513d601f19601f82011682018060405250810190610afb91906153dc565b816001600160801b03169150806001600160801b0316905083600081518110610b2657610b26615389565b6020026020010184600181518110610b4057610b40615389565b6020908102919091010191909152525b6001600160801b03831615610cc65760405163a34123a760e01b81526001600160a01b038e169063a34123a790610b90908d908d906000906004016150cb565b60408051808303816000875af1158015610bae573d6000803e3d6000fd5b505050506040513d601f19601f82011682018060405250810190610bd29190615365565b50506000808e6001600160a01b0316634f1eb3d8308e8e6001600160801b03806040518663ffffffff1660e01b8152600401610c1295949392919061539f565b60408051808303816000875af1158015610c30573d6000803e3d6000fd5b505050506040513d601f19601f82011682018060405250810190610c5491906153dc565b6001600160801b031691506001600160801b031691508184600081518110610c7e57610c7e615389565b60200260200101818151610c929190615462565b9052508351819085906001908110610cac57610cac615389565b60200260200101818151610cc09190615462565b90525050505b7fd809a30c675e811f2837e53a49b9409406bb7e6f808658eef60d09ac30579e8982600081518110610cfa57610cfa615389565b602002602001015183600181518110610d1557610d15615389565b6020026020010151604051610d34929190918252602082015260400190565b60405180910390a18782600081518110610d5057610d50615389565b60200260200101818151610d649190615462565b9052508151879083906001908110610d7e57610d7e615389565b60200260200101818151610d929190615462565b9052508515610e0e5781600181518110610dae57610dae615389565b602002602001015182600081518110610dc957610dc9615389565b602002602001015183600081518110610de457610de4615389565b6020026020010184600181518110610dfe57610dfe615389565b6020908102919091010191909152525b9b509b9950505050505050505050565b604080516002808252606080830184529260208301908036833701905050905060008260020160009054906101000a90046001600160a01b03166001600160a01b0316633850c7bd6040518163ffffffff1660e01b815260040160e060405180830381865afa158015610e95573d6000803e3d6000fd5b505050506040513d601f19601f82011682018060405250810190610eb991906154f1565b505050506002868101546003880154604051630544f36560e31b815295965073AA7423AB76D0D826840b0801D480A5a929292fCE95632a279b289550610f2994508793600160c81b8404810b93600160e01b9004900b91600160501b90046001600160801b031690600401615570565b6040805180830381865af4158015610f45573d6000803e3d6000fd5b505050506040513d601f19601f82011682018060405250810190610f699190615365565b83600081518110610f7c57610f7c615389565b6020026020010184600181518110610f9657610f96615389565b6020908102919091010191909152526003830154600480850154604051630544f36560e31b8152600093849373AA7423AB76D0D826840b0801D480A5a929292fCE93632a279b2893611007938993600282810b946301000000909304900b926001600160801b039092169101615570565b6040805180830381865af4158015611023573d6000803e3d6000fd5b505050506040513d601f19601f820116820180604052508101906110479190615365565b91509150818460008151811061105f5761105f615389565b602002602001018181516110739190615462565b905250835181908590600190811061108d5761108d615389565b602002602001018181516110a19190615462565b9052506003850154600160481b900460ff161561112b57836001815181106110cb576110cb615389565b6020026020010151846000815181106110e6576110e6615389565b60200260200101518560008151811061110157611101615389565b602002602001018660018151811061111b5761111b615389565b6020908102919091010191909152525b505050919050565b600381015481546000918291600160481b90910460ff169061115d906001600160a01b0316613d2b565b6001850154909350611177906001600160a01b0316613d2b565b915060008161118a578460050154611190565b84600601545b90506000826111a35785600601546111a9565b85600501545b90508185101580156111bb5750808410155b604051806040016040528060138152602001725533532d322057726f6e672062616c616e636560681b815250906112055760405162461bcd60e51b81526004016104c4919061522a565b5061121082866155a3565b945061121c81856155a3565b9350505050915091565b60018101546000906001600160a01b03168180611242856113a5565b915091508460050154826112569190615462565b91508460060154816112689190615462565b6003860154909150600160481b900460ff161561128157905b6000836001600160a01b031663313ce5676040518163ffffffff1660e01b8152600401602060405180830381865afa1580156112c1573d6000803e3d6000fd5b505050506040513d601f19601f820116820180604052508101906112e591906155b6565b6112f090600a6156b5565b6002870154604051635620c32d60e11b8152849173AA7423AB76D0D826840b0801D480A5a929292fCE9163ac41865a9161133a916001600160a01b03909116908a906004016156c4565b602060405180830381865af4158015611357573d6000803e3d6000fd5b505050506040513d601f19601f8201168201806040525081019061137b919061549c565b6113859190615421565b61138f919061544e565b905061139b8184615462565b9695505050505050565b6040805160a0810182526002838101546001600160a01b0381168352600160c81b8104820b6020840152600160e01b9004900b818301526003830154600160501b90046001600160801b0316606082015230608082015290516352bb7e6960e01b8152600091829173AA7423AB76D0D826840b0801D480A5a929292fCE906352bb7e69906114379084906004016156de565b6040805180830381865af4158015611453573d6000803e3d6000fd5b505050506040513d601f19601f820116820180604052508101906114779190615365565b6040805160a0810182526002808901546001600160a01b03168252600389015480820b602084015263010000009004900b818301526004808901546001600160801b0316606083015230608083015291516352bb7e6960e01b81529396509194509091600091829173AA7423AB76D0D826840b0801D480A5a929292fCE916352bb7e6991611507918791016156de565b6040805180830381865af4158015611523573d6000803e3d6000fd5b505050506040513d601f19601f820116820180604052508101906115479190615365565b90925090506115568287615462565b95506115628186615462565b945050505050915091565b6040805160008152602081019091526002850154600160b81b900460ff16156115d25760405162461bcd60e51b815260206004820152601760248201527627b7363c903337b91039bbb0b81039ba3930ba32b3bc9760491b60448201526064016104c4565b6040805161026081018252600280880154600160e01b8104820b808452600160c81b8204830b60208501819052600160a01b8304840b9585018690526001600160a01b03808416606087018190528c548216608088015260018d015490911660a0870152600a8c015460c087015260098c015460e087015260038c015460ff600160481b82048116151561010089015260058e015461012089015260068e01546101408901526000610160890181905261018089018190526101a089018190526101c089018190526101e08901819052600160b81b8704821615156102008a0152600160c01b9096048116151561022089015261024088019590955260088d015496976116f29790951695919492939291600160301b909104900b611c1e565b60405180604001604052806019815260200178154cd4cb4e48139bc81c9958985b185b98d9481b9959591959603a1b815250906117425760405162461bcd60e51b81526004016104c4919061522a565b506117568582608001518360a00151611fb9565b61024082015261010081015160009061178290611777578260800151613d2b565b8260a001515b613d2b565b905060006117a783610100015161179d578360a00151613d2b565b8360800151613d2b565b90508261012001518210156117c6576101208301829052600588018290555b8261014001518110156117e3576101408301819052600688018190555b826102200151801561180857506118088360c001518461024001518560e00151613d96565b156118e25760088801805460ff191660011790556040517fb224dccea3c30282a142bed3cedb7af1657907dea7dc2828fb9ce06007f3159490600090a173a66fac511Ab94E55E6204261A7F136Be41725ea66388a77fb58885608001518660a001518761010001518861012001518961014001516118898b60600151613dc5565b8d6040518963ffffffff1660e01b81526004016118ad989796959493929190615770565b60006040518083038186803b1580156118c557600080fd5b505af41580156118d9573d6000803e3d6000fd5b50505050611b60565b73a66fac511Ab94E55E6204261A7F136Be41725ea66377564edb888a61190b8760600151613dc5565b896040518563ffffffff1660e01b815260040161192b94939291906157d1565b60006040518083038186803b15801561194357600080fd5b505af4158015611957573d6000803e3d6000fd5b50505050611a526040518060e0016040528085606001516001600160a01b0316815260200185608001516001600160a01b031681526020018560a001516001600160a01b0316815260200185610100015115158152602001856101200151815260200185610140015181526020018881525073a66fac511Ab94E55E6204261A7F136Be41725ea663afcd2a1d8a87608001518860a001516040518463ffffffff1660e01b8152600401611a0c939291906157fe565b602060405180830381865af4158015611a29573d6000803e3d6000fd5b505050506040513d601f19601f82011682018060405250810190611a4d919061549c565b613de5565b6101a086018190526101808601829052610160860183905260058b019290925560068a015515611a9b57826101a00151886007016000828254611a959190615462565b90915550505b6040805160028082526060820183529091602083019080368337019050509350826101000151611ad057826101600151611ad7565b8261018001515b611ae48460800151613d2b565b611aee91906155a3565b84600081518110611b0157611b01615389565b602002602001018181525050826101000151611b2257826101800151611b29565b8261016001515b611b368460a00151613d2b565b611b4091906155a3565b84600181518110611b5357611b53615389565b6020026020010181815250505b82610220015115611b7757610240830151600a8901555b6040517fc741dbaad15a4f298fe8d80943fa8e005e7bcb2f5b0a0c8dec1fc35be457f14690600090a1505050949350505050565b6000816001600160a01b031663ddca3f436040518163ffffffff1660e01b8152600401602060405180830381865afa158015611beb573d6000803e3d6000fd5b505050506040513d601f19601f82011682018060405250810190611c0f9190615821565b62ffffff166064149050919050565b60008615611c2e5750600061139b565b6000866001600160a01b0316633850c7bd6040518163ffffffff1660e01b815260040160e060405180830381865afa158015611c6e573d6000803e3d6000fd5b505050506040513d601f19601f82011682018060405250810190611c9291906154f1565b50505050509150508360020b8686611caa9190615846565b60020b03611cd4578560020b8160020b1280611ccc57508460020b8160020b12155b91505061139b565b60006002611ce28888615846565b611cec919061586b565b90506000611cfa82896158a5565b90508060020b8360020b1315611d2857600285900b611d198285615846565b60020b1215935050505061139b565b600285900b611d378483615846565b60020b139a9950505050505050505050565b6000806000611d57856113a5565b91509150846005015482611d6b9190615462565b9150846006015481611d7d9190615462565b6003860154909150600160481b900460ff1615611d9657905b845460018601546040805163f77c479160e01b815290516001600160a01b0393841693928316926000929089169163f77c4791916004808201926020929091908290030181865afa158015611def573d6000803e3d6000fd5b505050506040513d601f19601f82011682018060405250810190611e1391906158ca565b6001600160a01b0316632630c12f6040518163ffffffff1660e01b8152600401602060405180830381865afa158015611e50573d6000803e3d6000fd5b505050506040513d601f19601f82011682018060405250810190611e7491906158ca565b60405163b3596f0760e01b81526001600160a01b03858116600483015291925060009183169063b3596f0790602401602060405180830381865afa158015611ec0573d6000803e3d6000fd5b505050506040513d601f19601f82011682018060405250810190611ee4919061549c565b60405163b3596f0760e01b81526001600160a01b03858116600483015291925060009184169063b3596f0790602401602060405180830381865afa158015611f30573d6000803e3d6000fd5b505050506040513d601f19601f82011682018060405250810190611f54919061549c565b90506000670de0b6b3a7640000611f6b848a615421565b611f75919061544e565b90506000670de0b6b3a7640000611f8c848a615421565b611f96919061544e565b90506064821180611fa75750606481115b99505050505050505050505b92915050565b600080846001600160a01b031663f77c47916040518163ffffffff1660e01b8152600401602060405180830381865afa158015611ffa573d6000803e3d6000fd5b505050506040513d601f19601f8201168201806040525081019061201e91906158ca565b6001600160a01b0316632630c12f6040518163ffffffff1660e01b8152600401602060405180830381865afa15801561205b573d6000803e3d6000fd5b505050506040513d601f19601f8201168201806040525081019061207f91906158ca565b60405163b3596f0760e01b81526001600160a01b03868116600483015291925060009183169063b3596f0790602401602060405180830381865afa1580156120cb573d6000803e3d6000fd5b505050506040513d601f19601f820116820180604052508101906120ef919061549c565b60405163b3596f0760e01b81526001600160a01b03868116600483015291925060009184169063b3596f0790602401602060405180830381865afa15801561213b573d6000803e3d6000fd5b505050506040513d601f19601f8201168201806040525081019061215f919061549c565b90508161217482670de0b6b3a7640000615421565b61217e919061544e565b93505050505b9392505050565b604080516002808252606082810190935260009182918160200160208202803683370190505092506000866001815181106121c8576121c8615389565b6020026020010151111561244f57831561224f57856001815181106121ef576121ef615389565b60200260200101518660008151811061220a5761220a615389565b60200260200101518760008151811061222557612225615389565b602002602001018860018151811061223f5761223f615389565b6020908102919091010191909152525b600073AA7423AB76D0D826840b0801D480A5a929292fCE6317c22c3c8b8b8b8b60008151811061228157612281615389565b60200260200101518c60018151811061229c5761229c615389565b60200260200101516040518663ffffffff1660e01b81526004016122c49594939291906158e7565b606060405180830381865af41580156122e1573d6000803e3d6000fd5b505050506040513d601f19601f82011682018060405250810190612305919061591b565b8660008151811061231857612318615389565b602002602001018760018151811061233257612332615389565b6020908102919091010192909252919052604051633c8a7d8d60e01b81529091506001600160a01b038b1690633c8a7d8d906123789030908d908d908790600401615949565b60408051808303816000875af1158015612396573d6000803e3d6000fd5b505050506040513d601f19601f820116820180604052508101906123ba9190615365565b50506001600160801b03811692506123d2818761598b565b9150841561244d57836001815181106123ed576123ed615389565b60200260200101518460008151811061240857612408615389565b60200260200101518560008151811061242357612423615389565b602002602001018660018151811061243d5761243d615389565b6020908102919091010191909152525b505b96509650969350505050565b6000806000806124c68a6001600160a01b0316630dfe16816040518163ffffffff1660e01b8152600401602060405180830381865afa1580156124a2573d6000803e3d6000fd5b505050506040513d601f19601f8201168201806040525081019061177d91906158ca565b9050600061250b8b6001600160a01b031663d21220a76040518163ffffffff1660e01b8152600401602060405180830381865afa1580156124a2573d6000803e3d6000fd5b905086821015801561251d5750858110155b6040518060400160405280600f81526020016e5533532d362057726f6e672066656560881b815250906125635760405162461bcd60e51b81526004016104c4919061522a565b5061256e87836155a3565b915061257a86826155a3565b9050600082118061258b5750600081115b15612a0c5760008b6001600160a01b0316633850c7bd6040518163ffffffff1660e01b815260040160e060405180830381865afa1580156125d0573d6000803e3d6000fd5b505050506040513d601f19601f820116820180604052508101906125f491906154f1565b50505050509150508b6001600160a01b031663d21220a76040518163ffffffff1660e01b8152600401602060405180830381865afa15801561263a573d6000803e3d6000fd5b505050506040513d601f19601f8201168201806040525081019061265e91906158ca565b6001600160a01b031663313ce5676040518163ffffffff1660e01b8152600401602060405180830381865afa15801561269b573d6000803e3d6000fd5b505050506040513d601f19601f820116820180604052508101906126bf91906155b6565b6126ca90600a6156b5565b73AA7423AB76D0D826840b0801D480A5a929292fCE63ac41865a8e8f6001600160a01b031663d21220a76040518163ffffffff1660e01b8152600401602060405180830381865afa158015612723573d6000803e3d6000fd5b505050506040513d601f19601f8201168201806040525081019061274791906158ca565b6040518363ffffffff1660e01b81526004016127649291906156c4565b602060405180830381865af4158015612781573d6000803e3d6000fd5b505050506040513d601f19601f820116820180604052508101906127a5919061549c565b6127af9084615421565b6127b9919061544e565b8311156128e75788806127cc818461586b565b6127d691906159ab565b6127e091906158a5565b6040516305f08b0f60e21b81529096508a955073AA7423AB76D0D826840b0801D480A5a929292fCE906317c22c3c90612826908f908a908a9089906000906004016158e7565b606060405180830381865af4158015612843573d6000803e3d6000fd5b505050506040513d601f19601f82011682018060405250810190612867919061591b565b604051633c8a7d8d60e01b81529096506001600160a01b038f169250633c8a7d8d915061289e9030908a908a908a90600401615949565b60408051808303816000875af11580156128bc573d6000803e3d6000fd5b505050506040513d601f19601f820116820180604052508101906128e09190615365565b5050612a0a565b8a955088806128f6818461586b565b61290091906159ab565b61290a9190615846565b6040516305f08b0f60e21b815290955073AA7423AB76D0D826840b0801D480A5a929292fCE906317c22c3c9061294d908f908a908a9060009089906004016158e7565b606060405180830381865af415801561296a573d6000803e3d6000fd5b505050506040513d601f19601f8201168201806040525081019061298e919061591b565b604051633c8a7d8d60e01b81529096506001600160a01b038f169250633c8a7d8d91506129c59030908a908a908a90600401615949565b60408051808303816000875af11580156129e3573d6000803e3d6000fd5b505050506040513d601f19601f82011682018060405250810190612a079190615365565b50505b505b505096509650969350505050565b60408051808201909152601181527054532d31207a65726f206164647265737360781b60208201526001600160a01b038516612a695760405162461bcd60e51b81526004016104c4919061522a565b506002870180546001600160a01b0319166001600160a01b03861617905560038701805468ffffff0000000000001916600160301b62ffffff851602179055612ab58785858585614262565b6000866001600160a01b0316634046ebae6040518163ffffffff1660e01b8152600401602060405180830381865afa158015612af5573d6000803e3d6000fd5b505050506040513d601f19601f82011682018060405250810190612b1991906158ca565b885460405163095ea7b360e01b81526001600160a01b038084166004830152600019602483015292935091169063095ea7b3906044016020604051808303816000875af1158015612b6e573d6000803e3d6000fd5b505050506040513d601f19601f82011682018060405250810190612b9291906159cb565b50600188015460405163095ea7b360e01b81526001600160a01b03838116600483015260001960248301529091169063095ea7b3906044016020604051808303816000875af1158015612be9573d6000803e3d6000fd5b505050506040513d601f19601f82011682018060405250810190612c0d91906159cb565b50600280890154612c2991600160a01b909104900b60046159ab565b60028981015491810b91612c4f91600160c81b8204810b91600160e01b9004900b615846565b60028a8101805460ff60b81b1981169390920b9390931215600160b81b02918217909255612c8a916001600160a01b03908116911617611bab565b15612d125760028801805460ff60c01b1916600160c01b1790556611c37937e08000600989018190556040517fdf3e0a21768880619b1295cb9519494a0df71943ebb4ff056f72186cfcfb6d4791612ce59190815260200190565b60405180910390a187546001890154612d0c9188916001600160a01b039182169116611fb9565b600a8901555b5050505050505050565b60405163a1d4398960e01b81526001600160a01b0385166004820152600284810b602483015283900b6044820152811515606482015260609073a66fac511Ab94E55E6204261A7F136Be41725ea69063a1d4398990608401600060405180830381865af4158015612d91573d6000803e3d6000fd5b505050506040513d6000823e601f3d908101601f19168201604052612db99190810190615a18565b95945050505050565b60408051600080825261028082018352600280880154600160e01b8104820b60208501818152600160c81b8304840b968601879052600160a01b8304840b606087018190526001600160a01b03808516608089018190528d54821660a08a015260018e015490911660c0890152600a8d015460e089015260098d015461010089015260038d015460ff600160481b8204811615156101208b015260058f01546101408b015260068f01546101608b01526101808a018990526101a08a018990526101c08a018990526101e08a018990526102008a01899052600160b81b8704811615156102208b0152600160c01b909604861615156102408a0152610260890188905260088e0154989997989397612eef97949096169591949193919291600160301b909104900b611c1e565b60405180604001604052806019815260200178154cd4cb4e48139bc81c9958985b185b98d9481b9959591959603a1b81525090612f3f5760405162461bcd60e51b81526004016104c4919061522a565b50612f538682608001518360a00151611fb9565b610240820152610100810151600090612f7490611777578260800151613d2b565b90506000612f8f83610100015161179d578360a00151613d2b565b9050826101200151821015612fae576101208301829052600589018290555b826101400151811015612fcb576101408301819052600689018190555b8261022001518015612ff05750612ff08360c001518461024001518560e00151613d96565b156131155760088901805460ff191660011790556040517fb224dccea3c30282a142bed3cedb7af1657907dea7dc2828fb9ce06007f3159490600090a173a66fac511Ab94E55E6204261A7F136Be41725ea6631015c3018989866060015187608001518860a001518961010001518a61012001518b61014001516130778d60600151613dc5565b6040516001600160e01b031960e08c901b1681526001600160a01b03998a166004820152978916602489015295881660448801529387166064870152959091166084850152151560a484015260c483019390935260e48201929092526101048101919091526101240160006040518083038186803b1580156130f857600080fd5b505af415801561310c573d6000803e3d6000fd5b50505050613377565b73a66fac511Ab94E55E6204261A7F136Be41725ea66346a2a83889898c61313f8860600151613dc5565b6040516001600160e01b031960e087901b1681526001600160a01b0394851660048201529390921660248401526044830152606482015260840160006040518083038186803b15801561319157600080fd5b505af41580156131a5573d6000803e3d6000fd5b5050505061325a6040518060e0016040528085606001516001600160a01b0316815260200185608001516001600160a01b031681526020018560a001516001600160a01b0316815260200185610100015115158152602001856101200151815260200185610140015181526020018881525073a66fac511Ab94E55E6204261A7F136Be41725ea663afcd2a1d8b87608001518860a001516040518463ffffffff1660e01b8152600401611a0c939291906157fe565b6101a086018190526101808601829052610160860183905260058c019290925560068b0155156132a357826101a0015189600701600082825461329d9190615462565b90915550505b60408051600280825260608201835290916020830190803683370190505094508261010001516132d8578261016001516132df565b8261018001515b6132ec8460800151613d2b565b6132f691906155a3565b8560008151811061330957613309615389565b60200260200101818152505082610100015161332a57826101800151613331565b8261016001515b61333e8460a00151613d2b565b61334891906155a3565b8560018151811061335b5761335b615389565b6020026020010181815250508261020001511561337757600193505b8261022001511561338e57610240830151600a8a01555b6040517fc741dbaad15a4f298fe8d80943fa8e005e7bcb2f5b0a0c8dec1fc35be457f14690600090a150505094509492505050565b604080516002808252606080830184529260208301908036833701905050905060008a6001600160a01b0316633850c7bd6040518163ffffffff1660e01b815260040160e060405180830381865afa158015613423573d6000803e3d6000fd5b505050506040513d601f19601f8201168201806040525081019061344791906154f1565b5050604051630544f36560e31b815294955073AA7423AB76D0D826840b0801D480A5a929292fCE94632a279b28945061348d93508692508f91508e908a90600401615570565b6040805180830381865af41580156134a9573d6000803e3d6000fd5b505050506040513d601f19601f820116820180604052508101906134cd9190615365565b836000815181106134e0576134e0615389565b60200260200101846001815181106134fa576134fa615389565b6020908102919091010191909152526001600160801b0386161580159061352a57506000856001600160801b0316115b156136405760008073AA7423AB76D0D826840b0801D480A5a929292fCE632a279b28848c8c8c6001600160801b03168b6001600160801b03168d6001600160801b03166135779190615421565b613581919061544e565b6040518563ffffffff1660e01b81526004016135a09493929190615570565b6040805180830381865af41580156135bc573d6000803e3d6000fd5b505050506040513d601f19601f820116820180604052508101906135e09190615365565b9150915081846000815181106135f8576135f8615389565b6020026020010181815161360c9190615462565b905250835181908590600190811061362657613626615389565b6020026020010181815161363a9190615462565b90525050505b82156136b9578160018151811061365957613659615389565b60200260200101518260008151811061367457613674615389565b60200260200101518360008151811061368f5761368f615389565b60200260200101846001815181106136a9576136a9615389565b6020908102919091010191909152525b509998505050505050505050565b8054604080516395d89b4160e01b815290516060926001600160a01b0316916395d89b419160048083019260009291908290030181865afa158015613710573d6000803e3d6000fd5b505050506040513d6000823e601f3d908101601f191682016040526137389190810190615a18565b8260010160009054906101000a90046001600160a01b03166001600160a01b03166395d89b416040518163ffffffff1660e01b8152600401600060405180830381865afa15801561378d573d6000803e3d6000fd5b505050506040513d6000823e601f3d908101601f191682016040526137b59190810190615a18565b60028401546040805163ddca3f4360e01b81529051613830926001600160a01b03169163ddca3f439160048083019260209291908290030181865afa158015613802573d6000803e3d6000fd5b505050506040513d601f19601f820116820180604052508101906138269190615821565b62ffffff166148f4565b60405160200161384293929190615a61565b6040516020818303038152906040529050919050565b6040518181527fdf3e0a21768880619b1295cb9519494a0df71943ebb4ff056f72186cfcfb6d479060200160405180910390a150565b815460018301546040516303e6ee5360e31b81526000928392839273a66fac511Ab94E55E6204261A7F136Be41725ea692631f377298926138e19289926001600160a01b039081169216906004016157fe565b602060405180830381865af41580156138fe573d6000803e3d6000fd5b505050506040513d601f19601f82011682018060405250810190613922919061549c565b6002860154909150600160b81b900460ff168061398d57506008850154600280870154600388015461398b9360ff16926001600160a01b03831692600160c81b8104820b92600160e01b8204830b92600160a01b909204820b91600160301b909104900b611c1e565b155b80613a2657506001850154604051638c56287960e01b8152600481018390526001600160a01b038087166024830152909116604482015273a66fac511Ab94E55E6204261A7F136Be41725ea690638c56287990606401602060405180830381865af4158015613a00573d6000803e3d6000fd5b505050506040513d601f19601f82011682018060405250810190613a2491906159cb565b155b15613a38576000809250925050613cf9565b60028086015460038701546004880154600093613aa4936001600160a01b03811693600160c81b8204830b93600160e01b909204830b9281810b926301000000830490910b916001600160801b03600160501b82048116921690829060ff600160481b909104166133c3565b6003870154909150600160481b900460ff1615613b2e5780600181518110613ace57613ace615389565b602002602001015181600081518110613ae957613ae9615389565b602002602001015182600081518110613b0457613b04615389565b6020026020010183600181518110613b1e57613b1e615389565b6020908102919091010191909152525b8181600181518110613b4257613b42615389565b60200260200101511015613cca5760028601546001870154604051635620c32d60e11b815260009273AA7423AB76D0D826840b0801D480A5a929292fCE9263ac41865a92613ba0926001600160a01b039081169216906004016156c4565b602060405180830381865af4158015613bbd573d6000803e3d6000fd5b505050506040513d601f19601f82011682018060405250810190613be1919061549c565b905060008760010160009054906101000a90046001600160a01b03166001600160a01b031663313ce5676040518163ffffffff1660e01b8152600401602060405180830381865afa158015613c3a573d6000803e3d6000fd5b505050506040513d601f19601f82011682018060405250810190613c5e91906155b6565b613c6990600a6156b5565b83600181518110613c7c57613c7c615389565b602002602001015185613c8f91906155a3565b613c999084615421565b613ca3919061544e565b9050613cb060648261544e565b613cba9082615462565b600196509450613cf99350505050565b60008282600181518110613ce057613ce0615389565b6020026020010151613cf291906155a3565b9350935050505b9250929050565b6040517f6b7ccec41cff3829e74e9b70bba25fca03418511799dd79dc80d774f15f35e1b90600090a1565b6040516370a0823160e01b81523060048201526000906001600160a01b038316906370a0823190602401602060405180830381865afa158015613d72573d6000803e3d6000fd5b505050506040513d601f19601f82011682018060405250810190611fb3919061549c565b6000828411613db05781613daa85856155a3565b11613dbd565b81613dbb84866155a3565b115b949350505050565b6000613dd082611bab565b613ddc576101f4611fb3565b61012c92915050565b608082015160a083015160608401516000908190613e035783613e05565b825b905060008660600151613e185783613e1a565b845b9050600082613e2c8960200151613d2b565b613e369089615462565b613e4091906155a3565b90508760c00151811015614258576000818960c00151613e6091906155a3565b9050838111613e9557886060015115613e8457613e7d81876155a3565b9550614256565b613e8e81886155a3565b9650614256565b886060015115613ea85760009550613ead565b600096505b600083156142475789604001516001600160a01b031663313ce5676040518163ffffffff1660e01b8152600401602060405180830381865afa158015613ef7573d6000803e3d6000fd5b505050506040513d601f19601f82011682018060405250810190613f1b91906155b6565b613f2690600a6156b5565b8a516040808d01519051635620c32d60e11b8152879273AA7423AB76D0D826840b0801D480A5a929292fCE9263ac41865a92613f669291906004016156c4565b602060405180830381865af4158015613f83573d6000803e3d6000fd5b505050506040513d601f19601f82011682018060405250810190613fa7919061549c565b613fb19190615421565b613fbb919061544e565b905081613fc88287615462565b1115614214578960600151156140f65789602001516001600160a01b031663313ce5676040518163ffffffff1660e01b8152600401602060405180830381865afa15801561401a573d6000803e3d6000fd5b505050506040513d601f19601f8201168201806040525081019061403e91906155b6565b61404990600a6156b5565b8a5160208c0151604051635620c32d60e11b815273AA7423AB76D0D826840b0801D480A5a929292fCE9263ac41865a92614085926004016156c4565b602060405180830381865af41580156140a2573d6000803e3d6000fd5b505050506040513d601f19601f820116820180604052508101906140c6919061549c565b836140d18489615462565b6140db91906155a3565b6140e59190615421565b6140ef919061544e565b9750614254565b89602001516001600160a01b031663313ce5676040518163ffffffff1660e01b8152600401602060405180830381865afa158015614138573d6000803e3d6000fd5b505050506040513d601f19601f8201168201806040525081019061415c91906155b6565b61416790600a6156b5565b8a5160208c0151604051635620c32d60e11b815273AA7423AB76D0D826840b0801D480A5a929292fCE9263ac41865a926141a3926004016156c4565b602060405180830381865af41580156141c0573d6000803e3d6000fd5b505050506040513d601f19601f820116820180604052508101906141e4919061549c565b836141ef8489615462565b6141f991906155a3565b6142039190615421565b61420d919061544e565b9650614254565b8061421f86846155a3565b61422991906155a3565b955089606001511561423e5760009750614254565b60009650614254565b61425185836155a3565b95505b505b505b5050509250925092565b600073AA7423AB76D0D826840b0801D480A5a929292fCE63ea866815866001600160a01b031663ddca3f436040518163ffffffff1660e01b8152600401602060405180830381865afa1580156142bc573d6000803e3d6000fd5b505050506040513d601f19601f820116820180604052508101906142e09190615821565b6040516001600160e01b031960e084901b16815262ffffff9091166004820152602401602060405180830381865af4158015614320573d6000803e3d6000fd5b505050506040513d601f19601f820116820180604052508101906143449190615ad2565b90508360020b600014614419578061435c818661586b565b61436691906159ab565b60020b8460020b146040518060400160405280601981526020017f5533532d3320496e636f7272656374207469636b52616e676500000000000000815250906143c25760405162461bcd60e51b81526004016104c4919061522a565b50806143ce818561586b565b6143d891906159ab565b60020b8360020b14604051806060016040528060228152602001615b3360229139906144175760405162461bcd60e51b81526004016104c4919061522a565b505b6002868101805462ffffff60a01b1916600160a01b62ffffff85160217905560405163369eb6fb60e21b81526001600160a01b038716600482015285820b60248201529082900b604482015273a66fac511Ab94E55E6204261A7F136Be41725ea69063da7adbec906064016040805180830381865af41580156144a0573d6000803e3d6000fd5b505050506040513d601f19601f820116820180604052508101906144c49190615aef565b60028801805465ffffffffffff60c81b1916600160e01b62ffffff9384160262ffffff60c81b191617600160c81b939092169290920217905560408051630dfe168160e01b815290516001600160a01b03871691630dfe16819160048083019260209291908290030181865afa158015614542573d6000803e3d6000fd5b505050506040513d601f19601f8201168201806040525081019061456691906158ca565b6001600160a01b0316826001600160a01b031614806145f75750846001600160a01b031663d21220a76040518163ffffffff1660e01b8152600401602060405180830381865afa1580156145be573d6000803e3d6000fd5b505050506040513d601f19601f820116820180604052508101906145e291906158ca565b6001600160a01b0316826001600160a01b0316145b60405180604001604052806015815260200174154cd4cb4d48125b98dbdc9c9958dd08185cdcd95d605a1b815250906146435760405162461bcd60e51b81526004016104c4919061522a565b50846001600160a01b0316630dfe16816040518163ffffffff1660e01b8152600401602060405180830381865afa158015614682573d6000803e3d6000fd5b505050506040513d601f19601f820116820180604052508101906146a691906158ca565b6001600160a01b0316826001600160a01b0316036147d357846001600160a01b0316630dfe16816040518163ffffffff1660e01b8152600401602060405180830381865afa1580156146fc573d6000803e3d6000fd5b505050506040513d601f19601f8201168201806040525081019061472091906158ca565b86546001600160a01b0319166001600160a01b039182161787556040805163d21220a760e01b815290519187169163d21220a7916004808201926020929091908290030181865afa158015614779573d6000803e3d6000fd5b505050506040513d601f19601f8201168201806040525081019061479d91906158ca565b6001870180546001600160a01b0319166001600160a01b039290921691909117905560038601805460ff60481b191690556148ec565b846001600160a01b031663d21220a76040518163ffffffff1660e01b8152600401602060405180830381865afa158015614811573d6000803e3d6000fd5b505050506040513d601f19601f8201168201806040525081019061483591906158ca565b86546001600160a01b0319166001600160a01b0391821617875560408051630dfe168160e01b8152905191871691630dfe1681916004808201926020929091908290030181865afa15801561488e573d6000803e3d6000fd5b505050506040513d601f19601f820116820180604052508101906148b291906158ca565b6001870180546001600160a01b03929092166001600160a01b031990921691909117905560038601805460ff60481b1916600160481b1790555b505050505050565b60608160000361491b5750506040805180820190915260018152600360fc1b602082015290565b8160005b8115614945578061492f816154b5565b915061493e9050600a8361544e565b915061491f565b60008167ffffffffffffffff81111561496057614960614ae3565b6040519080825280601f01601f19166020018201604052801561498a576020820181803683370190505b5090505b8415613dbd5761499f6001836155a3565b91506149ac600a86615b1e565b6149b7906030615462565b60f81b8183815181106149cc576149cc615389565b60200101906001600160f81b031916908160001a9053506149ee600a8661544e565b945061498e565b6001600160801b0381168114614a0a57600080fd5b50565b8035614a18816149f5565b919050565b60008060408385031215614a3057600080fd5b823591506020830135614a42816149f5565b809150509250929050565b600081518084526020808501945080840160005b83811015614a7d57815187529582019590820190600101614a61565b509495945050505050565b6020815260006121846020830184614a4d565b6001600160a01b0381168114614a0a57600080fd5b8060020b8114614a0a57600080fd5b8035614a1881614ab0565b8015158114614a0a57600080fd5b8035614a1881614aca565b634e487b7160e01b600052604160045260246000fd5b6040516080810167ffffffffffffffff81118282101715614b1c57614b1c614ae3565b60405290565b604051601f8201601f1916810167ffffffffffffffff81118282101715614b4b57614b4b614ae3565b604052919050565b600067ffffffffffffffff821115614b6d57614b6d614ae3565b5060051b60200190565b600082601f830112614b8857600080fd5b81356020614b9d614b9883614b53565b614b22565b82815260059290921b84018101918181019086841115614bbc57600080fd5b8286015b84811015614be0578035614bd381614a9b565b8352918301918301614bc0565b509695505050505050565b60008060008060008060008060008060006101608c8e031215614c0d57600080fd5b8b35614c1881614a9b565b9a5060208c0135614c2881614ab0565b9950614c3660408d01614abf565b9850614c4460608d01614abf565b9750614c5260808d01614abf565b965060a08c0135955060c08c01359450614c6e60e08d01614ad8565b93506101008c013567ffffffffffffffff811115614c8b57600080fd5b614c978e828f01614b77565b935050614ca76101208d01614a0d565b9150614cb66101408d01614a0d565b90509295989b509295989b9093969950565b604081526000614cdb6040830185614a4d565b8281036020840152612db98185614a4d565b600060208284031215614cff57600080fd5b5035919050565b600067ffffffffffffffff821115614d2057614d20614ae3565b50601f01601f191660200190565b60008060008060808587031215614d4457600080fd5b84359350602080860135614d5781614a9b565b935060408601359250606086013567ffffffffffffffff80821115614d7b57600080fd5b908701906080828a031215614d8f57600080fd5b614d97614af9565b8235614da281614aca565b815282840135848201526040830135614dba81614a9b565b6040820152606083013582811115614dd157600080fd5b80840193505089601f840112614de657600080fd5b82359150614df6614b9883614d06565b8281528a85848601011115614e0a57600080fd5b82858501868301376000858483010152806060830152508094505050505092959194509250565b600060208284031215614e4357600080fd5b813561218481614a9b565b60008060008060008060c08789031215614e6757600080fd5b8635614e7281614aca565b95506020870135614e8281614a9b565b94506040870135614e9281614ab0565b93506060870135614ea281614ab0565b92506080870135614eb281614ab0565b915060a0870135614ec281614ab0565b809150509295509295509295565b60008060408385031215614ee357600080fd5b823591506020830135614a4281614a9b565b600080600060608486031215614f0a57600080fd5b8335614f1581614a9b565b92506020840135614f2581614a9b565b91506040840135614f3581614a9b565b809150509250925092565b60008060008060008060c08789031215614f5957600080fd5b8635614f6481614a9b565b9550602087810135614f7581614ab0565b95506040880135614f8581614ab0565b9450606088013567ffffffffffffffff811115614fa157600080fd5b8801601f81018a13614fb257600080fd5b8035614fc0614b9882614b53565b81815260059190911b8201830190838101908c831115614fdf57600080fd5b928401925b82841015614ffd57833582529284019290840190614fe4565b809750505050505061501160808801614a0d565b915061501f60a08801614ad8565b90509295509295509295565b60608152600061503e6060830186614a4d565b90508360208301526001600160801b0383166040830152949350505050565b60008060008060008060c0878903121561507657600080fd5b863561508181614a9b565b9550602087013561509181614ab0565b945060408701356150a181614ab0565b935060608701356150b181614ab0565b9598949750929560808101359460a0909101359350915050565b600293840b81529190920b60208201526001600160801b03909116604082015260600190565b600080600080600080600060e0888a03121561510c57600080fd5b87359650602088013561511e81614a9b565b9550604088013561512e81614a9b565b9450606088013561513e81614a9b565b9350608088013561514e81614ab0565b925060a088013561515e81614ab0565b915060c088013561516e81614a9b565b8091505092959891949750929550565b6000806000806080858703121561519457600080fd5b843561519f81614a9b565b935060208501356151af81614ab0565b925060408501356151bf81614ab0565b915060608501356151cf81614aca565b939692955090935050565b60005b838110156151f55781810151838201526020016151dd565b50506000910152565b600081518084526152168160208601602086016151da565b601f01601f19169290920160200192915050565b60208152600061218460208301846151fe565b6000806000806080858703121561525357600080fd5b84359350602085013561526581614a9b565b9250604085013561527581614a9b565b9396929550929360600135925050565b6040815260006152986040830185614a4d565b905082151560208301529392505050565b60008060008060008060008060006101208a8c0312156152c857600080fd5b89356152d381614a9b565b985060208a01356152e381614ab0565b975060408a01356152f381614ab0565b965060608a013561530381614ab0565b955060808a013561531381614ab0565b945060a08a0135615323816149f5565b935060c08a0135615333816149f5565b925060e08a0135615343816149f5565b91506101008a013561535481614aca565b809150509295985092959850929598565b6000806040838503121561537857600080fd5b505080516020909101519092909150565b634e487b7160e01b600052603260045260246000fd5b6001600160a01b03959095168552600293840b60208601529190920b60408401526001600160801b03918216606084015216608082015260a00190565b600080604083850312156153ef57600080fd5b82516153fa816149f5565b6020840151909250614a42816149f5565b634e487b7160e01b600052601160045260246000fd5b8082028115828204841417611fb357611fb361540b565b634e487b7160e01b600052601260045260246000fd5b60008261545d5761545d615438565b500490565b80820180821115611fb357611fb361540b565b6001600160801b038281168282160390808211156154955761549561540b565b5092915050565b6000602082840312156154ae57600080fd5b5051919050565b6000600182016154c7576154c761540b565b5060010190565b805161ffff81168114614a1857600080fd5b805160ff81168114614a1857600080fd5b600080600080600080600060e0888a03121561550c57600080fd5b875161551781614a9b565b602089015190975061552881614ab0565b9550615536604089016154ce565b9450615544606089016154ce565b9350615552608089016154ce565b925061556060a089016154e0565b915060c088015161516e81614aca565b6001600160a01b03949094168452600292830b6020850152910b60408301526001600160801b0316606082015260800190565b81810381811115611fb357611fb361540b565b6000602082840312156155c857600080fd5b612184826154e0565b600181815b8085111561560c5781600019048211156155f2576155f261540b565b808516156155ff57918102915b93841c93908002906155d6565b509250929050565b60008261562357506001611fb3565b8161563057506000611fb3565b816001811461564657600281146156505761566c565b6001915050611fb3565b60ff8411156156615761566161540b565b50506001821b611fb3565b5060208310610133831016604e8410600b841016171561568f575081810a611fb3565b61569983836155d1565b80600019048211156156ad576156ad61540b565b029392505050565b600061218460ff841683615614565b6001600160a01b0392831681529116602082015260400190565b600060a08201905060018060a01b03808451168352602084015160020b6020840152604084015160020b60408401526001600160801b0360608501511660608401528060808501511660808401525092915050565b8051151582526020810151602083015260018060a01b0360408201511660408301526000606082015160806060850152613dbd60808501826151fe565b6001600160a01b03898116825288811660208301528716604082015285151560608201526080810185905260a0810184905260c0810183905261010060e082018190526000906157c283820185615733565b9b9a5050505050505050505050565b60018060a01b038516815283602082015282604082015260806060820152600061139b6080830184615733565b6001600160a01b0393841681529183166020830152909116604082015260600190565b60006020828403121561583357600080fd5b815162ffffff8116811461218457600080fd5b600282810b9082900b03627fffff198112627fffff82131715611fb357611fb361540b565b60008160020b8360020b8061588257615882615438565b627fffff1982146000198214161561589c5761589c61540b565b90059392505050565b600281810b9083900b01627fffff8113627fffff1982121715611fb357611fb361540b565b6000602082840312156158dc57600080fd5b815161218481614a9b565b6001600160a01b03959095168552600293840b60208601529190920b60408401526060830191909152608082015260a00190565b60008060006060848603121561593057600080fd5b83519250602084015191506040840151614f35816149f5565b6001600160a01b03949094168452600292830b6020850152910b60408301526001600160801b0316606082015260a06080820181905260009082015260c00190565b6001600160801b038181168382160190808211156154955761549561540b565b60008260020b8260020b028060020b91508082146154955761549561540b565b6000602082840312156159dd57600080fd5b815161218481614aca565b60006159f6614b9884614d06565b9050828152838383011115615a0a57600080fd5b6121848360208301846151da565b600060208284031215615a2a57600080fd5b815167ffffffffffffffff811115615a4157600080fd5b8201601f81018413615a5257600080fd5b613dbd848251602084016159e8565b6502ab734ab19960d51b815260008451615a828160068501602089016151da565b602f60f81b6006918401918201528451615aa38160078401602089016151da565b602d60f81b600792909101918201528351615ac58160088401602088016151da565b0160080195945050505050565b600060208284031215615ae457600080fd5b815161218481614ab0565b60008060408385031215615b0257600080fd5b8251615b0d81614ab0565b6020840151909250614a4281614ab0565b600082615b2d57615b2d615438565b50069056fe5533532d3420496e636f727265637420726562616c616e63655469636b52616e6765a2646970667358221220e62b641ca1ab25e731be0faec12714035dfc51f09d51f553a24a66b8f6ce349764736f6c63430008110033",
  "deployedBytecode": "0x730000000000000000000000000000000000000000301460806040526004361061014c5760003560e01c806380089367116100c2578063c68bc70311610086578063c68bc7031461036e578063ce74e5d914610381578063d6f43ad81461038f578063e3bca2d8146103a2578063ef3475ac146103c2578063f460770b146103f957600080fd5b806380089367146102a05780638c64d455146102cf578063928f8493146102fe578063a1d4398914610320578063b24d8db01461034057600080fd5b8063345aec3611610114578063345aec36146102115780634cc115151461022457806354747e5b1461024457806357d59aae146102675780635ca1bcdf1461027a5780637fd6c0a11461028d57600080fd5b806302c8fd9114610151578063052a8899146101875780630a65e5e7146101b5578063190fa314146101c8578063232421d9146101f0575b600080fd5b81801561015d57600080fd5b5061017161016c366004614a1d565b61040e565b60405161017e9190614a88565b60405180910390f35b81801561019357600080fd5b506101a76101a2366004614beb565b6108f4565b60405161017e929190614cc8565b6101716101c3366004614ced565b610e1e565b6101db6101d6366004614ced565b611133565b6040805192835260208301919091520161017e565b6102036101fe366004614ced565b611226565b60405190815260200161017e565b6101db61021f366004614ced565b6113a5565b81801561023057600080fd5b5061017161023f366004614d2e565b61156d565b610257610252366004614e31565b611bab565b604051901515815260200161017e565b610257610275366004614e4e565b611c1e565b610257610288366004614ed0565b611d49565b61020361029b366004614ef5565b611fb9565b8180156102ac57600080fd5b506102c06102bb366004614f40565b61218b565b60405161017e9392919061502b565b8180156102db57600080fd5b506102ef6102ea36600461505d565b61245b565b60405161017e939291906150cb565b81801561030a57600080fd5b5061031e6103193660046150f1565b612a1a565b005b61033361032e36600461517e565b612d1c565b60405161017e919061522a565b81801561034c57600080fd5b5061036061035b36600461523d565b612dc2565b60405161017e929190615285565b61017161037c3660046152a9565b6133c3565b6102036611c37937e0800081565b61033361039d366004614ced565b6136c7565b8180156103ae57600080fd5b5061031e6103bd366004614ced565b613858565b8180156103ce57600080fd5b506103e26103dd366004614ed0565b61388e565b60408051921515835260208301919091520161017e565b81801561040557600080fd5b5061031e613d00565b600282810154600384015460048501546040805180820190915260158152745533532d372057726f6e67206c697175696469747960581b60208201526060946000946001600160a01b03811694600160c81b8204830b94600160e01b909204830b9381840b9363010000008304900b92600160501b83046001600160801b039081169391811692600160481b90920460ff1691908c168410156104cd5760405162461bcd60e51b81526004016104c4919061522a565b60405180910390fd5b506040805160028082526060820183529091602083019080368337019050509950876001600160a01b031663a34123a788888e6040518463ffffffff1660e01b815260040161051e939291906150cb565b60408051808303816000875af115801561053c573d6000803e3d6000fd5b505050506040513d601f19601f820116820180604052508101906105609190615365565b8b60008151811061057357610573615389565b602002602001018c60018151811061058d5761058d615389565b6020908102919091010191909152526040516309e3d67b60e31b81526001600160a01b03891690634f1eb3d8906105d79030908b908b906001600160801b0390819060040161539f565b60408051808303816000875af11580156105f5573d6000803e3d6000fd5b505050506040513d601f19601f8201168201806040525081019061061991906153dc565b50506001600160801b03821615610819576000836001600160801b03168c6001600160801b0316846001600160801b03166106549190615421565b61065e919061544e565b90506000808a6001600160a01b031663a34123a78989866040518463ffffffff1660e01b8152600401610693939291906150cb565b60408051808303816000875af11580156106b1573d6000803e3d6000fd5b505050506040513d601f19601f820116820180604052508101906106d59190615365565b6040516309e3d67b60e31b815291935091506001600160a01b038c1690634f1eb3d8906107159030908c908c906001600160801b0390819060040161539f565b60408051808303816000875af1158015610733573d6000803e3d6000fd5b505050506040513d601f19601f8201168201806040525081019061075791906153dc565b5050818d60008151811061076d5761076d615389565b602002602001018181516107819190615462565b9052508c5181908e90600190811061079b5761079b615389565b602002602001018181516107af9190615462565b90525060408051808201909152601281527105533532d382057726f6e672066696c6c75760741b60208201526001600160801b0380851690871610156108085760405162461bcd60e51b81526004016104c4919061522a565b506108138386615475565b9b505050505b6108238b84615475565b60038d018054600160501b600160d01b031916600160501b6001600160801b039384160217905560048d0180546fffffffffffffffffffffffffffffffff1916918b1691909117905580156108e5578960018151811061088557610885615389565b60200260200101518a6000815181106108a0576108a0615389565b60200260200101518b6000815181106108bb576108bb615389565b602002602001018c6001815181106108d5576108d5615389565b6020908102919091010191909152525b50505050505050505092915050565b60408051600280825260608083018452928392919060208301908036833701905050905060005b85518110156109d95785818151811061093657610936615389565b60209081029190910101516040516370a0823160e01b81523060048201526001600160a01b03909116906370a0823190602401602060405180830381865afa158015610986573d6000803e3d6000fd5b505050506040513d601f19601f820116820180604052508101906109aa919061549c565b8282815181106109bc576109bc615389565b6020908102919091010152806109d1816154b5565b91505061091b565b5060408051600280825260608201835290916020830190803683370190505091506001600160801b03841615610b505760405163a34123a760e01b81526001600160a01b038e169063a34123a790610a3a908f908f906000906004016150cb565b60408051808303816000875af1158015610a58573d6000803e3d6000fd5b505050506040513d601f19601f82011682018060405250810190610a7c9190615365565b50508c6001600160a01b0316634f1eb3d8308e8e6001600160801b03806040518663ffffffff1660e01b8152600401610ab995949392919061539f565b60408051808303816000875af1158015610ad7573d6000803e3d6000fd5b505050506040513d601f19601f82011682018060405250810190610afb91906153dc565b816001600160801b03169150806001600160801b0316905083600081518110610b2657610b26615389565b6020026020010184600181518110610b4057610b40615389565b6020908102919091010191909152525b6001600160801b03831615610cc65760405163a34123a760e01b81526001600160a01b038e169063a34123a790610b90908d908d906000906004016150cb565b60408051808303816000875af1158015610bae573d6000803e3d6000fd5b505050506040513d601f19601f82011682018060405250810190610bd29190615365565b50506000808e6001600160a01b0316634f1eb3d8308e8e6001600160801b03806040518663ffffffff1660e01b8152600401610c1295949392919061539f565b60408051808303816000875af1158015610c30573d6000803e3d6000fd5b505050506040513d601f19601f82011682018060405250810190610c5491906153dc565b6001600160801b031691506001600160801b031691508184600081518110610c7e57610c7e615389565b60200260200101818151610c929190615462565b9052508351819085906001908110610cac57610cac615389565b60200260200101818151610cc09190615462565b90525050505b7fd809a30c675e811f2837e53a49b9409406bb7e6f808658eef60d09ac30579e8982600081518110610cfa57610cfa615389565b602002602001015183600181518110610d1557610d15615389565b6020026020010151604051610d34929190918252602082015260400190565b60405180910390a18782600081518110610d5057610d50615389565b60200260200101818151610d649190615462565b9052508151879083906001908110610d7e57610d7e615389565b60200260200101818151610d929190615462565b9052508515610e0e5781600181518110610dae57610dae615389565b602002602001015182600081518110610dc957610dc9615389565b602002602001015183600081518110610de457610de4615389565b6020026020010184600181518110610dfe57610dfe615389565b6020908102919091010191909152525b9b509b9950505050505050505050565b604080516002808252606080830184529260208301908036833701905050905060008260020160009054906101000a90046001600160a01b03166001600160a01b0316633850c7bd6040518163ffffffff1660e01b815260040160e060405180830381865afa158015610e95573d6000803e3d6000fd5b505050506040513d601f19601f82011682018060405250810190610eb991906154f1565b505050506002868101546003880154604051630544f36560e31b815295965073__$0c70757f598a889e7e5bdfcf0bf5e1f3f7$__95632a279b289550610f2994508793600160c81b8404810b93600160e01b9004900b91600160501b90046001600160801b031690600401615570565b6040805180830381865af4158015610f45573d6000803e3d6000fd5b505050506040513d601f19601f82011682018060405250810190610f699190615365565b83600081518110610f7c57610f7c615389565b6020026020010184600181518110610f9657610f96615389565b6020908102919091010191909152526003830154600480850154604051630544f36560e31b8152600093849373__$0c70757f598a889e7e5bdfcf0bf5e1f3f7$__93632a279b2893611007938993600282810b946301000000909304900b926001600160801b039092169101615570565b6040805180830381865af4158015611023573d6000803e3d6000fd5b505050506040513d601f19601f820116820180604052508101906110479190615365565b91509150818460008151811061105f5761105f615389565b602002602001018181516110739190615462565b905250835181908590600190811061108d5761108d615389565b602002602001018181516110a19190615462565b9052506003850154600160481b900460ff161561112b57836001815181106110cb576110cb615389565b6020026020010151846000815181106110e6576110e6615389565b60200260200101518560008151811061110157611101615389565b602002602001018660018151811061111b5761111b615389565b6020908102919091010191909152525b505050919050565b600381015481546000918291600160481b90910460ff169061115d906001600160a01b0316613d2b565b6001850154909350611177906001600160a01b0316613d2b565b915060008161118a578460050154611190565b84600601545b90506000826111a35785600601546111a9565b85600501545b90508185101580156111bb5750808410155b604051806040016040528060138152602001725533532d322057726f6e672062616c616e636560681b815250906112055760405162461bcd60e51b81526004016104c4919061522a565b5061121082866155a3565b945061121c81856155a3565b9350505050915091565b60018101546000906001600160a01b03168180611242856113a5565b915091508460050154826112569190615462565b91508460060154816112689190615462565b6003860154909150600160481b900460ff161561128157905b6000836001600160a01b031663313ce5676040518163ffffffff1660e01b8152600401602060405180830381865afa1580156112c1573d6000803e3d6000fd5b505050506040513d601f19601f820116820180604052508101906112e591906155b6565b6112f090600a6156b5565b6002870154604051635620c32d60e11b8152849173__$0c70757f598a889e7e5bdfcf0bf5e1f3f7$__9163ac41865a9161133a916001600160a01b03909116908a906004016156c4565b602060405180830381865af4158015611357573d6000803e3d6000fd5b505050506040513d601f19601f8201168201806040525081019061137b919061549c565b6113859190615421565b61138f919061544e565b905061139b8184615462565b9695505050505050565b6040805160a0810182526002838101546001600160a01b0381168352600160c81b8104820b6020840152600160e01b9004900b818301526003830154600160501b90046001600160801b0316606082015230608082015290516352bb7e6960e01b8152600091829173__$0c70757f598a889e7e5bdfcf0bf5e1f3f7$__906352bb7e69906114379084906004016156de565b6040805180830381865af4158015611453573d6000803e3d6000fd5b505050506040513d601f19601f820116820180604052508101906114779190615365565b6040805160a0810182526002808901546001600160a01b03168252600389015480820b602084015263010000009004900b818301526004808901546001600160801b0316606083015230608083015291516352bb7e6960e01b81529396509194509091600091829173__$0c70757f598a889e7e5bdfcf0bf5e1f3f7$__916352bb7e6991611507918791016156de565b6040805180830381865af4158015611523573d6000803e3d6000fd5b505050506040513d601f19601f820116820180604052508101906115479190615365565b90925090506115568287615462565b95506115628186615462565b945050505050915091565b6040805160008152602081019091526002850154600160b81b900460ff16156115d25760405162461bcd60e51b815260206004820152601760248201527627b7363c903337b91039bbb0b81039ba3930ba32b3bc9760491b60448201526064016104c4565b6040805161026081018252600280880154600160e01b8104820b808452600160c81b8204830b60208501819052600160a01b8304840b9585018690526001600160a01b03808416606087018190528c548216608088015260018d015490911660a0870152600a8c015460c087015260098c015460e087015260038c015460ff600160481b82048116151561010089015260058e015461012089015260068e01546101408901526000610160890181905261018089018190526101a089018190526101c089018190526101e08901819052600160b81b8704821615156102008a0152600160c01b9096048116151561022089015261024088019590955260088d015496976116f29790951695919492939291600160301b909104900b611c1e565b60405180604001604052806019815260200178154cd4cb4e48139bc81c9958985b185b98d9481b9959591959603a1b815250906117425760405162461bcd60e51b81526004016104c4919061522a565b506117568582608001518360a00151611fb9565b61024082015261010081015160009061178290611777578260800151613d2b565b8260a001515b613d2b565b905060006117a783610100015161179d578360a00151613d2b565b8360800151613d2b565b90508261012001518210156117c6576101208301829052600588018290555b8261014001518110156117e3576101408301819052600688018190555b826102200151801561180857506118088360c001518461024001518560e00151613d96565b156118e25760088801805460ff191660011790556040517fb224dccea3c30282a142bed3cedb7af1657907dea7dc2828fb9ce06007f3159490600090a173__$105aa07724e80e292e8a4b4cc62d6ec972$__6388a77fb58885608001518660a001518761010001518861012001518961014001516118898b60600151613dc5565b8d6040518963ffffffff1660e01b81526004016118ad989796959493929190615770565b60006040518083038186803b1580156118c557600080fd5b505af41580156118d9573d6000803e3d6000fd5b50505050611b60565b73__$105aa07724e80e292e8a4b4cc62d6ec972$__6377564edb888a61190b8760600151613dc5565b896040518563ffffffff1660e01b815260040161192b94939291906157d1565b60006040518083038186803b15801561194357600080fd5b505af4158015611957573d6000803e3d6000fd5b50505050611a526040518060e0016040528085606001516001600160a01b0316815260200185608001516001600160a01b031681526020018560a001516001600160a01b0316815260200185610100015115158152602001856101200151815260200185610140015181526020018881525073__$105aa07724e80e292e8a4b4cc62d6ec972$__63afcd2a1d8a87608001518860a001516040518463ffffffff1660e01b8152600401611a0c939291906157fe565b602060405180830381865af4158015611a29573d6000803e3d6000fd5b505050506040513d601f19601f82011682018060405250810190611a4d919061549c565b613de5565b6101a086018190526101808601829052610160860183905260058b019290925560068a015515611a9b57826101a00151886007016000828254611a959190615462565b90915550505b6040805160028082526060820183529091602083019080368337019050509350826101000151611ad057826101600151611ad7565b8261018001515b611ae48460800151613d2b565b611aee91906155a3565b84600081518110611b0157611b01615389565b602002602001018181525050826101000151611b2257826101800151611b29565b8261016001515b611b368460a00151613d2b565b611b4091906155a3565b84600181518110611b5357611b53615389565b6020026020010181815250505b82610220015115611b7757610240830151600a8901555b6040517fc741dbaad15a4f298fe8d80943fa8e005e7bcb2f5b0a0c8dec1fc35be457f14690600090a1505050949350505050565b6000816001600160a01b031663ddca3f436040518163ffffffff1660e01b8152600401602060405180830381865afa158015611beb573d6000803e3d6000fd5b505050506040513d601f19601f82011682018060405250810190611c0f9190615821565b62ffffff166064149050919050565b60008615611c2e5750600061139b565b6000866001600160a01b0316633850c7bd6040518163ffffffff1660e01b815260040160e060405180830381865afa158015611c6e573d6000803e3d6000fd5b505050506040513d601f19601f82011682018060405250810190611c9291906154f1565b50505050509150508360020b8686611caa9190615846565b60020b03611cd4578560020b8160020b1280611ccc57508460020b8160020b12155b91505061139b565b60006002611ce28888615846565b611cec919061586b565b90506000611cfa82896158a5565b90508060020b8360020b1315611d2857600285900b611d198285615846565b60020b1215935050505061139b565b600285900b611d378483615846565b60020b139a9950505050505050505050565b6000806000611d57856113a5565b91509150846005015482611d6b9190615462565b9150846006015481611d7d9190615462565b6003860154909150600160481b900460ff1615611d9657905b845460018601546040805163f77c479160e01b815290516001600160a01b0393841693928316926000929089169163f77c4791916004808201926020929091908290030181865afa158015611def573d6000803e3d6000fd5b505050506040513d601f19601f82011682018060405250810190611e1391906158ca565b6001600160a01b0316632630c12f6040518163ffffffff1660e01b8152600401602060405180830381865afa158015611e50573d6000803e3d6000fd5b505050506040513d601f19601f82011682018060405250810190611e7491906158ca565b60405163b3596f0760e01b81526001600160a01b03858116600483015291925060009183169063b3596f0790602401602060405180830381865afa158015611ec0573d6000803e3d6000fd5b505050506040513d601f19601f82011682018060405250810190611ee4919061549c565b60405163b3596f0760e01b81526001600160a01b03858116600483015291925060009184169063b3596f0790602401602060405180830381865afa158015611f30573d6000803e3d6000fd5b505050506040513d601f19601f82011682018060405250810190611f54919061549c565b90506000670de0b6b3a7640000611f6b848a615421565b611f75919061544e565b90506000670de0b6b3a7640000611f8c848a615421565b611f96919061544e565b90506064821180611fa75750606481115b99505050505050505050505b92915050565b600080846001600160a01b031663f77c47916040518163ffffffff1660e01b8152600401602060405180830381865afa158015611ffa573d6000803e3d6000fd5b505050506040513d601f19601f8201168201806040525081019061201e91906158ca565b6001600160a01b0316632630c12f6040518163ffffffff1660e01b8152600401602060405180830381865afa15801561205b573d6000803e3d6000fd5b505050506040513d601f19601f8201168201806040525081019061207f91906158ca565b60405163b3596f0760e01b81526001600160a01b03868116600483015291925060009183169063b3596f0790602401602060405180830381865afa1580156120cb573d6000803e3d6000fd5b505050506040513d601f19601f820116820180604052508101906120ef919061549c565b60405163b3596f0760e01b81526001600160a01b03868116600483015291925060009184169063b3596f0790602401602060405180830381865afa15801561213b573d6000803e3d6000fd5b505050506040513d601f19601f8201168201806040525081019061215f919061549c565b90508161217482670de0b6b3a7640000615421565b61217e919061544e565b93505050505b9392505050565b604080516002808252606082810190935260009182918160200160208202803683370190505092506000866001815181106121c8576121c8615389565b6020026020010151111561244f57831561224f57856001815181106121ef576121ef615389565b60200260200101518660008151811061220a5761220a615389565b60200260200101518760008151811061222557612225615389565b602002602001018860018151811061223f5761223f615389565b6020908102919091010191909152525b600073__$0c70757f598a889e7e5bdfcf0bf5e1f3f7$__6317c22c3c8b8b8b8b60008151811061228157612281615389565b60200260200101518c60018151811061229c5761229c615389565b60200260200101516040518663ffffffff1660e01b81526004016122c49594939291906158e7565b606060405180830381865af41580156122e1573d6000803e3d6000fd5b505050506040513d601f19601f82011682018060405250810190612305919061591b565b8660008151811061231857612318615389565b602002602001018760018151811061233257612332615389565b6020908102919091010192909252919052604051633c8a7d8d60e01b81529091506001600160a01b038b1690633c8a7d8d906123789030908d908d908790600401615949565b60408051808303816000875af1158015612396573d6000803e3d6000fd5b505050506040513d601f19601f820116820180604052508101906123ba9190615365565b50506001600160801b03811692506123d2818761598b565b9150841561244d57836001815181106123ed576123ed615389565b60200260200101518460008151811061240857612408615389565b60200260200101518560008151811061242357612423615389565b602002602001018660018151811061243d5761243d615389565b6020908102919091010191909152525b505b96509650969350505050565b6000806000806124c68a6001600160a01b0316630dfe16816040518163ffffffff1660e01b8152600401602060405180830381865afa1580156124a2573d6000803e3d6000fd5b505050506040513d601f19601f8201168201806040525081019061177d91906158ca565b9050600061250b8b6001600160a01b031663d21220a76040518163ffffffff1660e01b8152600401602060405180830381865afa1580156124a2573d6000803e3d6000fd5b905086821015801561251d5750858110155b6040518060400160405280600f81526020016e5533532d362057726f6e672066656560881b815250906125635760405162461bcd60e51b81526004016104c4919061522a565b5061256e87836155a3565b915061257a86826155a3565b9050600082118061258b5750600081115b15612a0c5760008b6001600160a01b0316633850c7bd6040518163ffffffff1660e01b815260040160e060405180830381865afa1580156125d0573d6000803e3d6000fd5b505050506040513d601f19601f820116820180604052508101906125f491906154f1565b50505050509150508b6001600160a01b031663d21220a76040518163ffffffff1660e01b8152600401602060405180830381865afa15801561263a573d6000803e3d6000fd5b505050506040513d601f19601f8201168201806040525081019061265e91906158ca565b6001600160a01b031663313ce5676040518163ffffffff1660e01b8152600401602060405180830381865afa15801561269b573d6000803e3d6000fd5b505050506040513d601f19601f820116820180604052508101906126bf91906155b6565b6126ca90600a6156b5565b73__$0c70757f598a889e7e5bdfcf0bf5e1f3f7$__63ac41865a8e8f6001600160a01b031663d21220a76040518163ffffffff1660e01b8152600401602060405180830381865afa158015612723573d6000803e3d6000fd5b505050506040513d601f19601f8201168201806040525081019061274791906158ca565b6040518363ffffffff1660e01b81526004016127649291906156c4565b602060405180830381865af4158015612781573d6000803e3d6000fd5b505050506040513d601f19601f820116820180604052508101906127a5919061549c565b6127af9084615421565b6127b9919061544e565b8311156128e75788806127cc818461586b565b6127d691906159ab565b6127e091906158a5565b6040516305f08b0f60e21b81529096508a955073__$0c70757f598a889e7e5bdfcf0bf5e1f3f7$__906317c22c3c90612826908f908a908a9089906000906004016158e7565b606060405180830381865af4158015612843573d6000803e3d6000fd5b505050506040513d601f19601f82011682018060405250810190612867919061591b565b604051633c8a7d8d60e01b81529096506001600160a01b038f169250633c8a7d8d915061289e9030908a908a908a90600401615949565b60408051808303816000875af11580156128bc573d6000803e3d6000fd5b505050506040513d601f19601f820116820180604052508101906128e09190615365565b5050612a0a565b8a955088806128f6818461586b565b61290091906159ab565b61290a9190615846565b6040516305f08b0f60e21b815290955073__$0c70757f598a889e7e5bdfcf0bf5e1f3f7$__906317c22c3c9061294d908f908a908a9060009089906004016158e7565b606060405180830381865af415801561296a573d6000803e3d6000fd5b505050506040513d601f19601f8201168201806040525081019061298e919061591b565b604051633c8a7d8d60e01b81529096506001600160a01b038f169250633c8a7d8d91506129c59030908a908a908a90600401615949565b60408051808303816000875af11580156129e3573d6000803e3d6000fd5b505050506040513d601f19601f82011682018060405250810190612a079190615365565b50505b505b505096509650969350505050565b60408051808201909152601181527054532d31207a65726f206164647265737360781b60208201526001600160a01b038516612a695760405162461bcd60e51b81526004016104c4919061522a565b506002870180546001600160a01b0319166001600160a01b03861617905560038701805468ffffff0000000000001916600160301b62ffffff851602179055612ab58785858585614262565b6000866001600160a01b0316634046ebae6040518163ffffffff1660e01b8152600401602060405180830381865afa158015612af5573d6000803e3d6000fd5b505050506040513d601f19601f82011682018060405250810190612b1991906158ca565b885460405163095ea7b360e01b81526001600160a01b038084166004830152600019602483015292935091169063095ea7b3906044016020604051808303816000875af1158015612b6e573d6000803e3d6000fd5b505050506040513d601f19601f82011682018060405250810190612b9291906159cb565b50600188015460405163095ea7b360e01b81526001600160a01b03838116600483015260001960248301529091169063095ea7b3906044016020604051808303816000875af1158015612be9573d6000803e3d6000fd5b505050506040513d601f19601f82011682018060405250810190612c0d91906159cb565b50600280890154612c2991600160a01b909104900b60046159ab565b60028981015491810b91612c4f91600160c81b8204810b91600160e01b9004900b615846565b60028a8101805460ff60b81b1981169390920b9390931215600160b81b02918217909255612c8a916001600160a01b03908116911617611bab565b15612d125760028801805460ff60c01b1916600160c01b1790556611c37937e08000600989018190556040517fdf3e0a21768880619b1295cb9519494a0df71943ebb4ff056f72186cfcfb6d4791612ce59190815260200190565b60405180910390a187546001890154612d0c9188916001600160a01b039182169116611fb9565b600a8901555b5050505050505050565b60405163a1d4398960e01b81526001600160a01b0385166004820152600284810b602483015283900b6044820152811515606482015260609073__$105aa07724e80e292e8a4b4cc62d6ec972$__9063a1d4398990608401600060405180830381865af4158015612d91573d6000803e3d6000fd5b505050506040513d6000823e601f3d908101601f19168201604052612db99190810190615a18565b95945050505050565b60408051600080825261028082018352600280880154600160e01b8104820b60208501818152600160c81b8304840b968601879052600160a01b8304840b606087018190526001600160a01b03808516608089018190528d54821660a08a015260018e015490911660c0890152600a8d015460e089015260098d015461010089015260038d015460ff600160481b8204811615156101208b015260058f01546101408b015260068f01546101608b01526101808a018990526101a08a018990526101c08a018990526101e08a018990526102008a01899052600160b81b8704811615156102208b0152600160c01b909604861615156102408a0152610260890188905260088e0154989997989397612eef97949096169591949193919291600160301b909104900b611c1e565b60405180604001604052806019815260200178154cd4cb4e48139bc81c9958985b185b98d9481b9959591959603a1b81525090612f3f5760405162461bcd60e51b81526004016104c4919061522a565b50612f538682608001518360a00151611fb9565b610240820152610100810151600090612f7490611777578260800151613d2b565b90506000612f8f83610100015161179d578360a00151613d2b565b9050826101200151821015612fae576101208301829052600589018290555b826101400151811015612fcb576101408301819052600689018190555b8261022001518015612ff05750612ff08360c001518461024001518560e00151613d96565b156131155760088901805460ff191660011790556040517fb224dccea3c30282a142bed3cedb7af1657907dea7dc2828fb9ce06007f3159490600090a173__$105aa07724e80e292e8a4b4cc62d6ec972$__631015c3018989866060015187608001518860a001518961010001518a61012001518b61014001516130778d60600151613dc5565b6040516001600160e01b031960e08c901b1681526001600160a01b03998a166004820152978916602489015295881660448801529387166064870152959091166084850152151560a484015260c483019390935260e48201929092526101048101919091526101240160006040518083038186803b1580156130f857600080fd5b505af415801561310c573d6000803e3d6000fd5b50505050613377565b73__$105aa07724e80e292e8a4b4cc62d6ec972$__6346a2a83889898c61313f8860600151613dc5565b6040516001600160e01b031960e087901b1681526001600160a01b0394851660048201529390921660248401526044830152606482015260840160006040518083038186803b15801561319157600080fd5b505af41580156131a5573d6000803e3d6000fd5b5050505061325a6040518060e0016040528085606001516001600160a01b0316815260200185608001516001600160a01b031681526020018560a001516001600160a01b0316815260200185610100015115158152602001856101200151815260200185610140015181526020018881525073__$105aa07724e80e292e8a4b4cc62d6ec972$__63afcd2a1d8b87608001518860a001516040518463ffffffff1660e01b8152600401611a0c939291906157fe565b6101a086018190526101808601829052610160860183905260058c019290925560068b0155156132a357826101a0015189600701600082825461329d9190615462565b90915550505b60408051600280825260608201835290916020830190803683370190505094508261010001516132d8578261016001516132df565b8261018001515b6132ec8460800151613d2b565b6132f691906155a3565b8560008151811061330957613309615389565b60200260200101818152505082610100015161332a57826101800151613331565b8261016001515b61333e8460a00151613d2b565b61334891906155a3565b8560018151811061335b5761335b615389565b6020026020010181815250508261020001511561337757600193505b8261022001511561338e57610240830151600a8a01555b6040517fc741dbaad15a4f298fe8d80943fa8e005e7bcb2f5b0a0c8dec1fc35be457f14690600090a150505094509492505050565b604080516002808252606080830184529260208301908036833701905050905060008a6001600160a01b0316633850c7bd6040518163ffffffff1660e01b815260040160e060405180830381865afa158015613423573d6000803e3d6000fd5b505050506040513d601f19601f8201168201806040525081019061344791906154f1565b5050604051630544f36560e31b815294955073__$0c70757f598a889e7e5bdfcf0bf5e1f3f7$__94632a279b28945061348d93508692508f91508e908a90600401615570565b6040805180830381865af41580156134a9573d6000803e3d6000fd5b505050506040513d601f19601f820116820180604052508101906134cd9190615365565b836000815181106134e0576134e0615389565b60200260200101846001815181106134fa576134fa615389565b6020908102919091010191909152526001600160801b0386161580159061352a57506000856001600160801b0316115b156136405760008073__$0c70757f598a889e7e5bdfcf0bf5e1f3f7$__632a279b28848c8c8c6001600160801b03168b6001600160801b03168d6001600160801b03166135779190615421565b613581919061544e565b6040518563ffffffff1660e01b81526004016135a09493929190615570565b6040805180830381865af41580156135bc573d6000803e3d6000fd5b505050506040513d601f19601f820116820180604052508101906135e09190615365565b9150915081846000815181106135f8576135f8615389565b6020026020010181815161360c9190615462565b905250835181908590600190811061362657613626615389565b6020026020010181815161363a9190615462565b90525050505b82156136b9578160018151811061365957613659615389565b60200260200101518260008151811061367457613674615389565b60200260200101518360008151811061368f5761368f615389565b60200260200101846001815181106136a9576136a9615389565b6020908102919091010191909152525b509998505050505050505050565b8054604080516395d89b4160e01b815290516060926001600160a01b0316916395d89b419160048083019260009291908290030181865afa158015613710573d6000803e3d6000fd5b505050506040513d6000823e601f3d908101601f191682016040526137389190810190615a18565b8260010160009054906101000a90046001600160a01b03166001600160a01b03166395d89b416040518163ffffffff1660e01b8152600401600060405180830381865afa15801561378d573d6000803e3d6000fd5b505050506040513d6000823e601f3d908101601f191682016040526137b59190810190615a18565b60028401546040805163ddca3f4360e01b81529051613830926001600160a01b03169163ddca3f439160048083019260209291908290030181865afa158015613802573d6000803e3d6000fd5b505050506040513d601f19601f820116820180604052508101906138269190615821565b62ffffff166148f4565b60405160200161384293929190615a61565b6040516020818303038152906040529050919050565b6040518181527fdf3e0a21768880619b1295cb9519494a0df71943ebb4ff056f72186cfcfb6d479060200160405180910390a150565b815460018301546040516303e6ee5360e31b81526000928392839273__$105aa07724e80e292e8a4b4cc62d6ec972$__92631f377298926138e19289926001600160a01b039081169216906004016157fe565b602060405180830381865af41580156138fe573d6000803e3d6000fd5b505050506040513d601f19601f82011682018060405250810190613922919061549c565b6002860154909150600160b81b900460ff168061398d57506008850154600280870154600388015461398b9360ff16926001600160a01b03831692600160c81b8104820b92600160e01b8204830b92600160a01b909204820b91600160301b909104900b611c1e565b155b80613a2657506001850154604051638c56287960e01b8152600481018390526001600160a01b038087166024830152909116604482015273__$105aa07724e80e292e8a4b4cc62d6ec972$__90638c56287990606401602060405180830381865af4158015613a00573d6000803e3d6000fd5b505050506040513d601f19601f82011682018060405250810190613a2491906159cb565b155b15613a38576000809250925050613cf9565b60028086015460038701546004880154600093613aa4936001600160a01b03811693600160c81b8204830b93600160e01b909204830b9281810b926301000000830490910b916001600160801b03600160501b82048116921690829060ff600160481b909104166133c3565b6003870154909150600160481b900460ff1615613b2e5780600181518110613ace57613ace615389565b602002602001015181600081518110613ae957613ae9615389565b602002602001015182600081518110613b0457613b04615389565b6020026020010183600181518110613b1e57613b1e615389565b6020908102919091010191909152525b8181600181518110613b4257613b42615389565b60200260200101511015613cca5760028601546001870154604051635620c32d60e11b815260009273__$0c70757f598a889e7e5bdfcf0bf5e1f3f7$__9263ac41865a92613ba0926001600160a01b039081169216906004016156c4565b602060405180830381865af4158015613bbd573d6000803e3d6000fd5b505050506040513d601f19601f82011682018060405250810190613be1919061549c565b905060008760010160009054906101000a90046001600160a01b03166001600160a01b031663313ce5676040518163ffffffff1660e01b8152600401602060405180830381865afa158015613c3a573d6000803e3d6000fd5b505050506040513d601f19601f82011682018060405250810190613c5e91906155b6565b613c6990600a6156b5565b83600181518110613c7c57613c7c615389565b602002602001015185613c8f91906155a3565b613c999084615421565b613ca3919061544e565b9050613cb060648261544e565b613cba9082615462565b600196509450613cf99350505050565b60008282600181518110613ce057613ce0615389565b6020026020010151613cf291906155a3565b9350935050505b9250929050565b6040517f6b7ccec41cff3829e74e9b70bba25fca03418511799dd79dc80d774f15f35e1b90600090a1565b6040516370a0823160e01b81523060048201526000906001600160a01b038316906370a0823190602401602060405180830381865afa158015613d72573d6000803e3d6000fd5b505050506040513d601f19601f82011682018060405250810190611fb3919061549c565b6000828411613db05781613daa85856155a3565b11613dbd565b81613dbb84866155a3565b115b949350505050565b6000613dd082611bab565b613ddc576101f4611fb3565b61012c92915050565b608082015160a083015160608401516000908190613e035783613e05565b825b905060008660600151613e185783613e1a565b845b9050600082613e2c8960200151613d2b565b613e369089615462565b613e4091906155a3565b90508760c00151811015614258576000818960c00151613e6091906155a3565b9050838111613e9557886060015115613e8457613e7d81876155a3565b9550614256565b613e8e81886155a3565b9650614256565b886060015115613ea85760009550613ead565b600096505b600083156142475789604001516001600160a01b031663313ce5676040518163ffffffff1660e01b8152600401602060405180830381865afa158015613ef7573d6000803e3d6000fd5b505050506040513d601f19601f82011682018060405250810190613f1b91906155b6565b613f2690600a6156b5565b8a516040808d01519051635620c32d60e11b8152879273__$0c70757f598a889e7e5bdfcf0bf5e1f3f7$__9263ac41865a92613f669291906004016156c4565b602060405180830381865af4158015613f83573d6000803e3d6000fd5b505050506040513d601f19601f82011682018060405250810190613fa7919061549c565b613fb19190615421565b613fbb919061544e565b905081613fc88287615462565b1115614214578960600151156140f65789602001516001600160a01b031663313ce5676040518163ffffffff1660e01b8152600401602060405180830381865afa15801561401a573d6000803e3d6000fd5b505050506040513d601f19601f8201168201806040525081019061403e91906155b6565b61404990600a6156b5565b8a5160208c0151604051635620c32d60e11b815273__$0c70757f598a889e7e5bdfcf0bf5e1f3f7$__9263ac41865a92614085926004016156c4565b602060405180830381865af41580156140a2573d6000803e3d6000fd5b505050506040513d601f19601f820116820180604052508101906140c6919061549c565b836140d18489615462565b6140db91906155a3565b6140e59190615421565b6140ef919061544e565b9750614254565b89602001516001600160a01b031663313ce5676040518163ffffffff1660e01b8152600401602060405180830381865afa158015614138573d6000803e3d6000fd5b505050506040513d601f19601f8201168201806040525081019061415c91906155b6565b61416790600a6156b5565b8a5160208c0151604051635620c32d60e11b815273__$0c70757f598a889e7e5bdfcf0bf5e1f3f7$__9263ac41865a926141a3926004016156c4565b602060405180830381865af41580156141c0573d6000803e3d6000fd5b505050506040513d601f19601f820116820180604052508101906141e4919061549c565b836141ef8489615462565b6141f991906155a3565b6142039190615421565b61420d919061544e565b9650614254565b8061421f86846155a3565b61422991906155a3565b955089606001511561423e5760009750614254565b60009650614254565b61425185836155a3565b95505b505b505b5050509250925092565b600073__$0c70757f598a889e7e5bdfcf0bf5e1f3f7$__63ea866815866001600160a01b031663ddca3f436040518163ffffffff1660e01b8152600401602060405180830381865afa1580156142bc573d6000803e3d6000fd5b505050506040513d601f19601f820116820180604052508101906142e09190615821565b6040516001600160e01b031960e084901b16815262ffffff9091166004820152602401602060405180830381865af4158015614320573d6000803e3d6000fd5b505050506040513d601f19601f820116820180604052508101906143449190615ad2565b90508360020b600014614419578061435c818661586b565b61436691906159ab565b60020b8460020b146040518060400160405280601981526020017f5533532d3320496e636f7272656374207469636b52616e676500000000000000815250906143c25760405162461bcd60e51b81526004016104c4919061522a565b50806143ce818561586b565b6143d891906159ab565b60020b8360020b14604051806060016040528060228152602001615b3360229139906144175760405162461bcd60e51b81526004016104c4919061522a565b505b6002868101805462ffffff60a01b1916600160a01b62ffffff85160217905560405163369eb6fb60e21b81526001600160a01b038716600482015285820b60248201529082900b604482015273__$105aa07724e80e292e8a4b4cc62d6ec972$__9063da7adbec906064016040805180830381865af41580156144a0573d6000803e3d6000fd5b505050506040513d601f19601f820116820180604052508101906144c49190615aef565b60028801805465ffffffffffff60c81b1916600160e01b62ffffff9384160262ffffff60c81b191617600160c81b939092169290920217905560408051630dfe168160e01b815290516001600160a01b03871691630dfe16819160048083019260209291908290030181865afa158015614542573d6000803e3d6000fd5b505050506040513d601f19601f8201168201806040525081019061456691906158ca565b6001600160a01b0316826001600160a01b031614806145f75750846001600160a01b031663d21220a76040518163ffffffff1660e01b8152600401602060405180830381865afa1580156145be573d6000803e3d6000fd5b505050506040513d601f19601f820116820180604052508101906145e291906158ca565b6001600160a01b0316826001600160a01b0316145b60405180604001604052806015815260200174154cd4cb4d48125b98dbdc9c9958dd08185cdcd95d605a1b815250906146435760405162461bcd60e51b81526004016104c4919061522a565b50846001600160a01b0316630dfe16816040518163ffffffff1660e01b8152600401602060405180830381865afa158015614682573d6000803e3d6000fd5b505050506040513d601f19601f820116820180604052508101906146a691906158ca565b6001600160a01b0316826001600160a01b0316036147d357846001600160a01b0316630dfe16816040518163ffffffff1660e01b8152600401602060405180830381865afa1580156146fc573d6000803e3d6000fd5b505050506040513d601f19601f8201168201806040525081019061472091906158ca565b86546001600160a01b0319166001600160a01b039182161787556040805163d21220a760e01b815290519187169163d21220a7916004808201926020929091908290030181865afa158015614779573d6000803e3d6000fd5b505050506040513d601f19601f8201168201806040525081019061479d91906158ca565b6001870180546001600160a01b0319166001600160a01b039290921691909117905560038601805460ff60481b191690556148ec565b846001600160a01b031663d21220a76040518163ffffffff1660e01b8152600401602060405180830381865afa158015614811573d6000803e3d6000fd5b505050506040513d601f19601f8201168201806040525081019061483591906158ca565b86546001600160a01b0319166001600160a01b0391821617875560408051630dfe168160e01b8152905191871691630dfe1681916004808201926020929091908290030181865afa15801561488e573d6000803e3d6000fd5b505050506040513d601f19601f820116820180604052508101906148b291906158ca565b6001870180546001600160a01b03929092166001600160a01b031990921691909117905560038601805460ff60481b1916600160481b1790555b505050505050565b60608160000361491b5750506040805180820190915260018152600360fc1b602082015290565b8160005b8115614945578061492f816154b5565b915061493e9050600a8361544e565b915061491f565b60008167ffffffffffffffff81111561496057614960614ae3565b6040519080825280601f01601f19166020018201604052801561498a576020820181803683370190505b5090505b8415613dbd5761499f6001836155a3565b91506149ac600a86615b1e565b6149b7906030615462565b60f81b8183815181106149cc576149cc615389565b60200101906001600160f81b031916908160001a9053506149ee600a8661544e565b945061498e565b6001600160801b0381168114614a0a57600080fd5b50565b8035614a18816149f5565b919050565b60008060408385031215614a3057600080fd5b823591506020830135614a42816149f5565b809150509250929050565b600081518084526020808501945080840160005b83811015614a7d57815187529582019590820190600101614a61565b509495945050505050565b6020815260006121846020830184614a4d565b6001600160a01b0381168114614a0a57600080fd5b8060020b8114614a0a57600080fd5b8035614a1881614ab0565b8015158114614a0a57600080fd5b8035614a1881614aca565b634e487b7160e01b600052604160045260246000fd5b6040516080810167ffffffffffffffff81118282101715614b1c57614b1c614ae3565b60405290565b604051601f8201601f1916810167ffffffffffffffff81118282101715614b4b57614b4b614ae3565b604052919050565b600067ffffffffffffffff821115614b6d57614b6d614ae3565b5060051b60200190565b600082601f830112614b8857600080fd5b81356020614b9d614b9883614b53565b614b22565b82815260059290921b84018101918181019086841115614bbc57600080fd5b8286015b84811015614be0578035614bd381614a9b565b8352918301918301614bc0565b509695505050505050565b60008060008060008060008060008060006101608c8e031215614c0d57600080fd5b8b35614c1881614a9b565b9a5060208c0135614c2881614ab0565b9950614c3660408d01614abf565b9850614c4460608d01614abf565b9750614c5260808d01614abf565b965060a08c0135955060c08c01359450614c6e60e08d01614ad8565b93506101008c013567ffffffffffffffff811115614c8b57600080fd5b614c978e828f01614b77565b935050614ca76101208d01614a0d565b9150614cb66101408d01614a0d565b90509295989b509295989b9093969950565b604081526000614cdb6040830185614a4d565b8281036020840152612db98185614a4d565b600060208284031215614cff57600080fd5b5035919050565b600067ffffffffffffffff821115614d2057614d20614ae3565b50601f01601f191660200190565b60008060008060808587031215614d4457600080fd5b84359350602080860135614d5781614a9b565b935060408601359250606086013567ffffffffffffffff80821115614d7b57600080fd5b908701906080828a031215614d8f57600080fd5b614d97614af9565b8235614da281614aca565b815282840135848201526040830135614dba81614a9b565b6040820152606083013582811115614dd157600080fd5b80840193505089601f840112614de657600080fd5b82359150614df6614b9883614d06565b8281528a85848601011115614e0a57600080fd5b82858501868301376000858483010152806060830152508094505050505092959194509250565b600060208284031215614e4357600080fd5b813561218481614a9b565b60008060008060008060c08789031215614e6757600080fd5b8635614e7281614aca565b95506020870135614e8281614a9b565b94506040870135614e9281614ab0565b93506060870135614ea281614ab0565b92506080870135614eb281614ab0565b915060a0870135614ec281614ab0565b809150509295509295509295565b60008060408385031215614ee357600080fd5b823591506020830135614a4281614a9b565b600080600060608486031215614f0a57600080fd5b8335614f1581614a9b565b92506020840135614f2581614a9b565b91506040840135614f3581614a9b565b809150509250925092565b60008060008060008060c08789031215614f5957600080fd5b8635614f6481614a9b565b9550602087810135614f7581614ab0565b95506040880135614f8581614ab0565b9450606088013567ffffffffffffffff811115614fa157600080fd5b8801601f81018a13614fb257600080fd5b8035614fc0614b9882614b53565b81815260059190911b8201830190838101908c831115614fdf57600080fd5b928401925b82841015614ffd57833582529284019290840190614fe4565b809750505050505061501160808801614a0d565b915061501f60a08801614ad8565b90509295509295509295565b60608152600061503e6060830186614a4d565b90508360208301526001600160801b0383166040830152949350505050565b60008060008060008060c0878903121561507657600080fd5b863561508181614a9b565b9550602087013561509181614ab0565b945060408701356150a181614ab0565b935060608701356150b181614ab0565b9598949750929560808101359460a0909101359350915050565b600293840b81529190920b60208201526001600160801b03909116604082015260600190565b600080600080600080600060e0888a03121561510c57600080fd5b87359650602088013561511e81614a9b565b9550604088013561512e81614a9b565b9450606088013561513e81614a9b565b9350608088013561514e81614ab0565b925060a088013561515e81614ab0565b915060c088013561516e81614a9b565b8091505092959891949750929550565b6000806000806080858703121561519457600080fd5b843561519f81614a9b565b935060208501356151af81614ab0565b925060408501356151bf81614ab0565b915060608501356151cf81614aca565b939692955090935050565b60005b838110156151f55781810151838201526020016151dd565b50506000910152565b600081518084526152168160208601602086016151da565b601f01601f19169290920160200192915050565b60208152600061218460208301846151fe565b6000806000806080858703121561525357600080fd5b84359350602085013561526581614a9b565b9250604085013561527581614a9b565b9396929550929360600135925050565b6040815260006152986040830185614a4d565b905082151560208301529392505050565b60008060008060008060008060006101208a8c0312156152c857600080fd5b89356152d381614a9b565b985060208a01356152e381614ab0565b975060408a01356152f381614ab0565b965060608a013561530381614ab0565b955060808a013561531381614ab0565b945060a08a0135615323816149f5565b935060c08a0135615333816149f5565b925060e08a0135615343816149f5565b91506101008a013561535481614aca565b809150509295985092959850929598565b6000806040838503121561537857600080fd5b505080516020909101519092909150565b634e487b7160e01b600052603260045260246000fd5b6001600160a01b03959095168552600293840b60208601529190920b60408401526001600160801b03918216606084015216608082015260a00190565b600080604083850312156153ef57600080fd5b82516153fa816149f5565b6020840151909250614a42816149f5565b634e487b7160e01b600052601160045260246000fd5b8082028115828204841417611fb357611fb361540b565b634e487b7160e01b600052601260045260246000fd5b60008261545d5761545d615438565b500490565b80820180821115611fb357611fb361540b565b6001600160801b038281168282160390808211156154955761549561540b565b5092915050565b6000602082840312156154ae57600080fd5b5051919050565b6000600182016154c7576154c761540b565b5060010190565b805161ffff81168114614a1857600080fd5b805160ff81168114614a1857600080fd5b600080600080600080600060e0888a03121561550c57600080fd5b875161551781614a9b565b602089015190975061552881614ab0565b9550615536604089016154ce565b9450615544606089016154ce565b9350615552608089016154ce565b925061556060a089016154e0565b915060c088015161516e81614aca565b6001600160a01b03949094168452600292830b6020850152910b60408301526001600160801b0316606082015260800190565b81810381811115611fb357611fb361540b565b6000602082840312156155c857600080fd5b612184826154e0565b600181815b8085111561560c5781600019048211156155f2576155f261540b565b808516156155ff57918102915b93841c93908002906155d6565b509250929050565b60008261562357506001611fb3565b8161563057506000611fb3565b816001811461564657600281146156505761566c565b6001915050611fb3565b60ff8411156156615761566161540b565b50506001821b611fb3565b5060208310610133831016604e8410600b841016171561568f575081810a611fb3565b61569983836155d1565b80600019048211156156ad576156ad61540b565b029392505050565b600061218460ff841683615614565b6001600160a01b0392831681529116602082015260400190565b600060a08201905060018060a01b03808451168352602084015160020b6020840152604084015160020b60408401526001600160801b0360608501511660608401528060808501511660808401525092915050565b8051151582526020810151602083015260018060a01b0360408201511660408301526000606082015160806060850152613dbd60808501826151fe565b6001600160a01b03898116825288811660208301528716604082015285151560608201526080810185905260a0810184905260c0810183905261010060e082018190526000906157c283820185615733565b9b9a5050505050505050505050565b60018060a01b038516815283602082015282604082015260806060820152600061139b6080830184615733565b6001600160a01b0393841681529183166020830152909116604082015260600190565b60006020828403121561583357600080fd5b815162ffffff8116811461218457600080fd5b600282810b9082900b03627fffff198112627fffff82131715611fb357611fb361540b565b60008160020b8360020b8061588257615882615438565b627fffff1982146000198214161561589c5761589c61540b565b90059392505050565b600281810b9083900b01627fffff8113627fffff1982121715611fb357611fb361540b565b6000602082840312156158dc57600080fd5b815161218481614a9b565b6001600160a01b03959095168552600293840b60208601529190920b60408401526060830191909152608082015260a00190565b60008060006060848603121561593057600080fd5b83519250602084015191506040840151614f35816149f5565b6001600160a01b03949094168452600292830b6020850152910b60408301526001600160801b0316606082015260a06080820181905260009082015260c00190565b6001600160801b038181168382160190808211156154955761549561540b565b60008260020b8260020b028060020b91508082146154955761549561540b565b6000602082840312156159dd57600080fd5b815161218481614aca565b60006159f6614b9884614d06565b9050828152838383011115615a0a57600080fd5b6121848360208301846151da565b600060208284031215615a2a57600080fd5b815167ffffffffffffffff811115615a4157600080fd5b8201601f81018413615a5257600080fd5b613dbd848251602084016159e8565b6502ab734ab19960d51b815260008451615a828160068501602089016151da565b602f60f81b6006918401918201528451615aa38160078401602089016151da565b602d60f81b600792909101918201528351615ac58160088401602088016151da565b0160080195945050505050565b600060208284031215615ae457600080fd5b815161218481614ab0565b60008060408385031215615b0257600080fd5b8251615b0d81614ab0565b6020840151909250614a4281614ab0565b600082615b2d57615b2d615438565b50069056fe5533532d3420496e636f727265637420726562616c616e63655469636b52616e6765a2646970667358221220e62b641ca1ab25e731be0faec12714035dfc51f09d51f553a24a66b8f6ce349764736f6c63430008110033",
  "libraries": {
    "UniswapV3Lib": "0xAA7423AB76D0D826840b0801D480A5a929292fCE",
    "UniswapV3DebtLib": "0xa66fac511Ab94E55E6204261A7F136Be41725ea6",
    "ConverterStrategyBaseLib": "0x3A986013f2b9772415F7b4433a904ae271688f1B",
    "ConverterStrategyBaseLib2": "0x3488c83887BA65da248d1B4A2776F8E93419c1d3"
  },
  "devdoc": {
    "kind": "dev",
    "methods": {
      "addFillup(IUniswapV3Pool,int24,int24,int24,uint256,uint256)": {
        "params": {
          "fee0": "The fee amount for the first token in the pool.",
          "fee1": "The fee amount for the second token in the pool.",
          "lowerTick": "The current lower tick value for the pool.",
          "pool": "The Uniswap V3 pool to add liquidity to.",
          "tickSpacing": "The tick spacing for the pool.",
          "upperTick": "The current upper tick value for the pool."
        },
        "returns": {
          "liquidityOutFillup": "The liquidity amount added to the new range.",
          "lowerTickFillup": "The lower tick value for the new liquidity range.",
          "upperTickFillup": "The upper tick value for the new liquidity range."
        }
      },
      "claimRewards(IUniswapV3Pool,int24,int24,int24,int24,uint256,uint256,bool,address[],uint128,uint128)": {
        "params": {
          "_depositorSwapTokens": "A boolean indicating if need to use token B instead of token A.",
          "lowerTick": "The lower tick of the pool's main range.",
          "lowerTickFillup": "The lower tick of the pool's fill-up range.",
          "pool": "The Uniswap V3 pool instance.",
          "rebalanceEarned0": "The amount of token0 earned from rebalancing.",
          "rebalanceEarned1": "The amount of token1 earned from rebalancing.",
          "upperTick": "The upper tick of the pool's main range.",
          "upperTickFillup": "The upper tick of the pool's fill-up range."
        },
        "returns": {
          "amountsOut": "An array containing the amounts of token0 and token1 claimed as rewards."
        }
      },
      "enter(IUniswapV3Pool,int24,int24,uint256[],uint128,bool)": {
        "params": {
          "_depositorSwapTokens": "A boolean indicating if need to use token B instead of token A.",
          "amountsDesired_": "An array containing the desired amounts of tokens to provide liquidity.",
          "lowerTick": "The lower tick value for the pool.",
          "pool": "The Uniswap V3 pool to provide liquidity to.",
          "totalLiquidity": "The current total liquidity in the pool.",
          "upperTick": "The upper tick value for the pool."
        },
        "returns": {
          "amountsConsumed": "An array containing the consumed amounts for each token in the pool.",
          "liquidityOut": "The amount of liquidity added to the pool.",
          "totalLiquidityNew": "The updated total liquidity after providing liquidity."
        }
      },
      "exit(UniswapV3ConverterStrategyLogicLib.State storage,uint128)": {
        "params": {
          "liquidityAmountToExit": "The amount of liquidity to exit.",
          "state": "The State storage object."
        },
        "returns": {
          "amountsOut": "An array containing the collected amounts for each token in the pool."
        }
      },
      "getEntryData(IUniswapV3Pool,int24,int24,bool)": {
        "params": {
          "depositorSwapTokens": "A boolean indicating if need to use token B instead of token A.",
          "lowerTick": "The lower tick of the pool's main range.",
          "pool": "The Uniswap V3 pool instance.",
          "upperTick": "The upper tick of the pool's main range."
        },
        "returns": {
          "entryData": "A byte array containing the entry data for the pool."
        }
      },
      "getFees(UniswapV3ConverterStrategyLogicLib.State storage)": {
        "params": {
          "state": "The State storage containing the pool's information."
        },
        "returns": {
          "fee0": "The fees generated for the first token in the pool.",
          "fee1": "The fees generated for the second token in the pool."
        }
      },
      "getOracleAssetsPrice(ITetuConverter,address,address)": {
        "params": {
          "converter": "The Tetu converter.",
          "tokenA": "The first token address.",
          "tokenB": "The second token address."
        },
        "returns": {
          "_0": "The price ratio of the two tokens."
        }
      },
      "getPoolReserves(UniswapV3ConverterStrategyLogicLib.State storage)": {
        "params": {
          "state": "The State storage containing the pool's information."
        },
        "returns": {
          "reserves": "An array containing the reserve amounts of the contract owned liquidity."
        }
      },
      "getTokenAmounts(UniswapV3ConverterStrategyLogicLib.State storage)": {
        "params": {
          "state": "The state of the pool."
        },
        "returns": {
          "amountA": "The balance of tokenA.",
          "amountB": "The balance of tokenB."
        }
      },
      "isStablePool(IUniswapV3Pool)": {
        "params": {
          "pool": "The Uniswap V3 pool."
        },
        "returns": {
          "_0": "A boolean indicating if the pool is stable."
        }
      },
      "needRebalance(bool,IUniswapV3Pool,int24,int24,int24,int24)": {
        "returns": {
          "_0": "A boolean indicating if the pool needs to be rebalanced."
        }
      },
      "quoteExit(IUniswapV3Pool,int24,int24,int24,int24,uint128,uint128,uint128,bool)": {
        "params": {
          "_depositorSwapTokens": "A boolean indicating if need to use token B instead of token A.",
          "liquidity": "The current liquidity in the pool.",
          "liquidityAmountToExit": "The amount of liquidity to exit.",
          "liquidityFillup": "The current liquidity in the fillup range.",
          "lowerTick": "The lower tick value for the pool.",
          "lowerTickFillup": "The lower tick value for the fillup range in the pool.",
          "pool": "The Uniswap V3 pool to quote the exit amounts for.",
          "upperTick": "The upper tick value for the pool.",
          "upperTickFillup": "The upper tick value for the fillup range in the pool."
        },
        "returns": {
          "amountsOut": "An array containing the estimated exit amounts for each token in the pool."
        }
      },
      "rebalance(UniswapV3ConverterStrategyLogicLib.State storage,ITetuConverter,address,uint256)": {
        "details": "Rebalances the current position, adjusts the tick range, and attempts to cover loss with pool rewards.",
        "params": {
          "controller": "The Tetu controller address.",
          "converter": "The TetuConverter contract.",
          "oldInvestedAssets": "The amount of invested assets before rebalancing.",
          "state": "The State storage object."
        },
        "returns": {
          "isNeedFillup": "Indicates if fill-up is required after rebalancing.",
          "tokenAmounts": "The token amounts for deposit (if length != 2 then do nothing)."
        }
      }
    },
    "stateVariables": {
      "DEFAULT_FUSE_THRESHOLD": {
        "details": "0.5% by default"
      }
    },
    "version": 1
  },
  "userdoc": {
    "kind": "user",
    "methods": {
      "addFillup(IUniswapV3Pool,int24,int24,int24,uint256,uint256)": {
        "notice": "Add liquidity to a Uniswap V3 pool in a specified tick range according fill up rules."
      },
      "claimRewards(IUniswapV3Pool,int24,int24,int24,int24,uint256,uint256,bool,address[],uint128,uint128)": {
        "notice": "Claim rewards from the Uniswap V3 pool."
      },
      "enter(IUniswapV3Pool,int24,int24,uint256[],uint128,bool)": {
        "notice": "Enter the pool and provide liquidity with desired token amounts."
      },
      "exit(UniswapV3ConverterStrategyLogicLib.State storage,uint128)": {
        "notice": "Exit the pool and collect tokens proportional to the liquidity amount to exit."
      },
      "getEntryData(IUniswapV3Pool,int24,int24,bool)": {
        "notice": "Get entry data for a Uniswap V3 pool."
      },
      "getFees(UniswapV3ConverterStrategyLogicLib.State storage)": {
        "notice": "Retrieve the fees generated by a Uniswap V3 pool managed by this contract."
      },
      "getOracleAssetsPrice(ITetuConverter,address,address)": {
        "notice": "Get the price ratio of the two given tokens from the oracle."
      },
      "getPoolReserves(UniswapV3ConverterStrategyLogicLib.State storage)": {
        "notice": "Retrieve the reserves of a Uniswap V3 pool managed by this contract."
      },
      "getTokenAmounts(UniswapV3ConverterStrategyLogicLib.State storage)": {
        "notice": "Get the token amounts held by the contract excluding earned parts."
      },
      "isStablePool(IUniswapV3Pool)": {
        "notice": "Check if the given pool is a stable pool."
      },
      "needRebalance(bool,IUniswapV3Pool,int24,int24,int24,int24)": {
        "notice": "Determine if the pool needs to be rebalanced."
      },
      "quoteExit(IUniswapV3Pool,int24,int24,int24,int24,uint128,uint128,uint128,bool)": {
        "notice": "Estimate the exit amounts for a given liquidity amount in a Uniswap V3 pool."
      }
    },
    "version": 1
  },
  "storageLayout": {
    "storage": [],
    "types": null
  }
}