{
  "address": "0x3e34Fc633e17D4bD9080e087231e1C86c0585220",
  "abi": [
    {
      "anonymous": false,
      "inputs": [
        {
          "indexed": false,
          "internalType": "address",
          "name": "token",
          "type": "address"
        },
        {
          "indexed": false,
          "internalType": "uint256",
          "name": "amount",
          "type": "uint256"
        }
      ],
      "name": "Claimed",
      "type": "event"
    },
    {
      "anonymous": false,
      "inputs": [
        {
          "indexed": false,
          "internalType": "uint256",
          "name": "oldValue",
          "type": "uint256"
        },
        {
          "indexed": false,
          "internalType": "uint256",
          "name": "newValue",
          "type": "uint256"
        }
      ],
      "name": "CompoundRatioChanged",
      "type": "event"
    },
    {
      "anonymous": false,
      "inputs": [
        {
          "indexed": false,
          "internalType": "address",
          "name": "controller",
          "type": "address"
        },
        {
          "indexed": false,
          "internalType": "uint256",
          "name": "ts",
          "type": "uint256"
        },
        {
          "indexed": false,
          "internalType": "uint256",
          "name": "block",
          "type": "uint256"
        }
      ],
      "name": "ContractInitialized",
      "type": "event"
    },
    {
      "anonymous": false,
      "inputs": [
        {
          "indexed": false,
          "internalType": "uint256",
          "name": "amount",
          "type": "uint256"
        }
      ],
      "name": "DepositToPool",
      "type": "event"
    },
    {
      "anonymous": false,
      "inputs": [
        {
          "indexed": false,
          "internalType": "address",
          "name": "sender",
          "type": "address"
        },
        {
          "indexed": false,
          "internalType": "uint256",
          "name": "amount",
          "type": "uint256"
        }
      ],
      "name": "EmergencyExit",
      "type": "event"
    },
    {
      "anonymous": false,
      "inputs": [
        {
          "indexed": false,
          "internalType": "uint8",
          "name": "version",
          "type": "uint8"
        }
      ],
      "name": "Initialized",
      "type": "event"
    },
    {
      "anonymous": false,
      "inputs": [
        {
          "indexed": false,
          "internalType": "uint256",
          "name": "balance",
          "type": "uint256"
        }
      ],
      "name": "InvestAll",
      "type": "event"
    },
    {
      "anonymous": false,
      "inputs": [
        {
          "indexed": false,
          "internalType": "address",
          "name": "token",
          "type": "address"
        },
        {
          "indexed": false,
          "internalType": "uint256",
          "name": "amount",
          "type": "uint256"
        }
      ],
      "name": "LiquidationThresholdChanged",
      "type": "event"
    },
    {
      "anonymous": false,
      "inputs": [
        {
          "indexed": false,
          "internalType": "address",
          "name": "sender",
          "type": "address"
        }
      ],
      "name": "ManualClaim",
      "type": "event"
    },
    {
      "anonymous": false,
      "inputs": [
        {
          "indexed": false,
          "internalType": "uint256[]",
          "name": "withdrawnAmounts",
          "type": "uint256[]"
        }
      ],
      "name": "OnDepositorEmergencyExit",
      "type": "event"
    },
    {
      "anonymous": false,
      "inputs": [
        {
          "indexed": false,
          "internalType": "uint256[]",
          "name": "amounts",
          "type": "uint256[]"
        },
        {
          "indexed": false,
          "internalType": "uint256[]",
          "name": "consumedAmounts",
          "type": "uint256[]"
        }
      ],
      "name": "OnDepositorEnter",
      "type": "event"
    },
    {
      "anonymous": false,
      "inputs": [
        {
          "indexed": false,
          "internalType": "uint256",
          "name": "liquidityAmount",
          "type": "uint256"
        },
        {
          "indexed": false,
          "internalType": "uint256[]",
          "name": "withdrawnAmounts",
          "type": "uint256[]"
        }
      ],
      "name": "OnDepositorExit",
      "type": "event"
    },
    {
      "anonymous": false,
      "inputs": [
        {
          "indexed": false,
          "internalType": "address[]",
          "name": "rewardTokens",
          "type": "address[]"
        },
        {
          "indexed": false,
          "internalType": "uint256[]",
          "name": "amountsToForward",
          "type": "uint256[]"
        },
        {
          "indexed": false,
          "internalType": "uint256",
          "name": "toPerf",
          "type": "uint256"
        },
        {
          "indexed": false,
          "internalType": "uint256",
          "name": "toInsurance",
          "type": "uint256"
        }
      ],
      "name": "Recycle",
      "type": "event"
    },
    {
      "anonymous": false,
      "inputs": [
        {
          "indexed": false,
          "internalType": "uint256",
          "name": "amount",
          "type": "uint256"
        }
      ],
      "name": "ReinvestThresholdPercentChanged",
      "type": "event"
    },
    {
      "anonymous": false,
      "inputs": [
        {
          "indexed": false,
          "internalType": "uint256",
          "name": "value",
          "type": "uint256"
        },
        {
          "indexed": false,
          "internalType": "address",
          "name": "oldLogic",
          "type": "address"
        }
      ],
      "name": "RevisionIncreased",
      "type": "event"
    },
    {
      "anonymous": false,
      "inputs": [
        {
          "indexed": false,
          "internalType": "string",
          "name": "name",
          "type": "string"
        }
      ],
      "name": "StrategySpecificNameChanged",
      "type": "event"
    },
    {
      "anonymous": false,
      "inputs": [
        {
          "indexed": false,
          "internalType": "uint256",
          "name": "amount",
          "type": "uint256"
        }
      ],
      "name": "WithdrawAllFromPool",
      "type": "event"
    },
    {
      "anonymous": false,
      "inputs": [
        {
          "indexed": false,
          "internalType": "uint256",
          "name": "amount",
          "type": "uint256"
        }
      ],
      "name": "WithdrawAllToSplitter",
      "type": "event"
    },
    {
      "anonymous": false,
      "inputs": [
        {
          "indexed": false,
          "internalType": "uint256",
          "name": "amount",
          "type": "uint256"
        }
      ],
      "name": "WithdrawFromPool",
      "type": "event"
    },
    {
      "anonymous": false,
      "inputs": [
        {
          "indexed": false,
          "internalType": "uint256",
          "name": "amount",
          "type": "uint256"
        },
        {
          "indexed": false,
          "internalType": "uint256",
          "name": "sent",
          "type": "uint256"
        },
        {
          "indexed": false,
          "internalType": "uint256",
          "name": "balance",
          "type": "uint256"
        }
      ],
      "name": "WithdrawToSplitter",
      "type": "event"
    },
    {
      "inputs": [],
      "name": "CONTROLLABLE_VERSION",
      "outputs": [
        {
          "internalType": "string",
          "name": "",
          "type": "string"
        }
      ],
      "stateMutability": "view",
      "type": "function"
    },
    {
      "inputs": [],
      "name": "CONVERTER_STRATEGY_BASE_VERSION",
      "outputs": [
        {
          "internalType": "string",
          "name": "",
          "type": "string"
        }
      ],
      "stateMutability": "view",
      "type": "function"
    },
    {
      "inputs": [],
      "name": "NAME",
      "outputs": [
        {
          "internalType": "string",
          "name": "",
          "type": "string"
        }
      ],
      "stateMutability": "view",
      "type": "function"
    },
    {
      "inputs": [],
      "name": "PLATFORM",
      "outputs": [
        {
          "internalType": "string",
          "name": "",
          "type": "string"
        }
      ],
      "stateMutability": "view",
      "type": "function"
    },
    {
      "inputs": [],
      "name": "STRATEGY_BASE_VERSION",
      "outputs": [
        {
          "internalType": "string",
          "name": "",
          "type": "string"
        }
      ],
      "stateMutability": "view",
      "type": "function"
    },
    {
      "inputs": [],
      "name": "STRATEGY_VERSION",
      "outputs": [
        {
          "internalType": "string",
          "name": "",
          "type": "string"
        }
      ],
      "stateMutability": "view",
      "type": "function"
    },
    {
      "inputs": [],
      "name": "UNISWAPV3_DEPOSITOR_VERSION",
      "outputs": [
        {
          "internalType": "string",
          "name": "",
          "type": "string"
        }
      ],
      "stateMutability": "view",
      "type": "function"
    },
    {
      "inputs": [],
      "name": "asset",
      "outputs": [
        {
          "internalType": "address",
          "name": "",
          "type": "address"
        }
      ],
      "stateMutability": "view",
      "type": "function"
    },
    {
      "inputs": [],
      "name": "calcInvestedAssets",
      "outputs": [
        {
          "internalType": "uint256",
          "name": "",
          "type": "uint256"
        }
      ],
      "stateMutability": "nonpayable",
      "type": "function"
    },
    {
      "inputs": [],
      "name": "capacity",
      "outputs": [
        {
          "internalType": "uint256",
          "name": "",
          "type": "uint256"
        }
      ],
      "stateMutability": "view",
      "type": "function"
    },
    {
      "inputs": [],
      "name": "claim",
      "outputs": [],
      "stateMutability": "nonpayable",
      "type": "function"
    },
    {
      "inputs": [],
      "name": "compoundRatio",
      "outputs": [
        {
          "internalType": "uint256",
          "name": "",
          "type": "uint256"
        }
      ],
      "stateMutability": "view",
      "type": "function"
    },
    {
      "inputs": [],
      "name": "controller",
      "outputs": [
        {
          "internalType": "address",
          "name": "",
          "type": "address"
        }
      ],
      "stateMutability": "view",
      "type": "function"
    },
    {
      "inputs": [],
      "name": "converter",
      "outputs": [
        {
          "internalType": "contract ITetuConverter",
          "name": "",
          "type": "address"
        }
      ],
      "stateMutability": "view",
      "type": "function"
    },
    {
      "inputs": [],
      "name": "created",
      "outputs": [
        {
          "internalType": "uint256",
          "name": "",
          "type": "uint256"
        }
      ],
      "stateMutability": "view",
      "type": "function"
    },
    {
      "inputs": [],
      "name": "createdBlock",
      "outputs": [
        {
          "internalType": "uint256",
          "name": "",
          "type": "uint256"
        }
      ],
      "stateMutability": "view",
      "type": "function"
    },
    {
      "inputs": [],
      "name": "disableFuse",
      "outputs": [],
      "stateMutability": "nonpayable",
      "type": "function"
    },
    {
      "inputs": [],
      "name": "doHardWork",
      "outputs": [
        {
          "internalType": "uint256",
          "name": "earned",
          "type": "uint256"
        },
        {
          "internalType": "uint256",
          "name": "lost",
          "type": "uint256"
        }
      ],
      "stateMutability": "nonpayable",
      "type": "function"
    },
    {
      "inputs": [],
      "name": "emergencyExit",
      "outputs": [],
      "stateMutability": "nonpayable",
      "type": "function"
    },
    {
      "inputs": [],
      "name": "getFees",
      "outputs": [
        {
          "internalType": "uint256",
          "name": "fee0",
          "type": "uint256"
        },
        {
          "internalType": "uint256",
          "name": "fee1",
          "type": "uint256"
        }
      ],
      "stateMutability": "view",
      "type": "function"
    },
    {
      "inputs": [],
      "name": "getState",
      "outputs": [
        {
          "internalType": "address",
          "name": "tokenA",
          "type": "address"
        },
        {
          "internalType": "address",
          "name": "tokenB",
          "type": "address"
        },
        {
          "internalType": "contract IUniswapV3Pool",
          "name": "pool",
          "type": "address"
        },
        {
          "internalType": "int24",
          "name": "tickSpacing",
          "type": "int24"
        },
        {
          "internalType": "int24",
          "name": "lowerTick",
          "type": "int24"
        },
        {
          "internalType": "int24",
          "name": "upperTick",
          "type": "int24"
        },
        {
          "internalType": "int24",
          "name": "rebalanceTickRange",
          "type": "int24"
        },
        {
          "internalType": "uint128",
          "name": "totalLiquidity",
          "type": "uint128"
        },
        {
          "internalType": "bool",
          "name": "isFuseTriggered",
          "type": "bool"
        },
        {
          "internalType": "uint256",
          "name": "fuseThreshold",
          "type": "uint256"
        },
        {
          "internalType": "uint256[]",
          "name": "rebalanceResults",
          "type": "uint256[]"
        }
      ],
      "stateMutability": "view",
      "type": "function"
    },
    {
      "inputs": [
        {
          "internalType": "address",
          "name": "oldLogic",
          "type": "address"
        }
      ],
      "name": "increaseRevision",
      "outputs": [],
      "stateMutability": "nonpayable",
      "type": "function"
    },
    {
      "inputs": [
        {
          "internalType": "address",
          "name": "controller_",
          "type": "address"
        },
        {
          "internalType": "address",
          "name": "splitter_",
          "type": "address"
        },
        {
          "internalType": "address",
          "name": "converter_",
          "type": "address"
        },
        {
          "internalType": "address",
          "name": "pool_",
          "type": "address"
        },
        {
          "internalType": "int24",
          "name": "tickRange_",
          "type": "int24"
        },
        {
          "internalType": "int24",
          "name": "rebalanceTickRange_",
          "type": "int24"
        }
      ],
      "name": "init",
      "outputs": [],
      "stateMutability": "nonpayable",
      "type": "function"
    },
    {
      "inputs": [
        {
          "internalType": "uint256",
          "name": "",
          "type": "uint256"
        },
        {
          "internalType": "bool",
          "name": "updateTotalAssetsBeforeInvest_",
          "type": "bool"
        }
      ],
      "name": "investAll",
      "outputs": [
        {
          "internalType": "uint256",
          "name": "strategyLoss",
          "type": "uint256"
        }
      ],
      "stateMutability": "nonpayable",
      "type": "function"
    },
    {
      "inputs": [],
      "name": "investedAssets",
      "outputs": [
        {
          "internalType": "uint256",
          "name": "",
          "type": "uint256"
        }
      ],
      "stateMutability": "view",
      "type": "function"
    },
    {
      "inputs": [
        {
          "internalType": "address",
          "name": "_value",
          "type": "address"
        }
      ],
      "name": "isController",
      "outputs": [
        {
          "internalType": "bool",
          "name": "",
          "type": "bool"
        }
      ],
      "stateMutability": "view",
      "type": "function"
    },
    {
      "inputs": [
        {
          "internalType": "address",
          "name": "_value",
          "type": "address"
        }
      ],
      "name": "isGovernance",
      "outputs": [
        {
          "internalType": "bool",
          "name": "",
          "type": "bool"
        }
      ],
      "stateMutability": "view",
      "type": "function"
    },
    {
      "inputs": [],
      "name": "isReadyToHardWork",
      "outputs": [
        {
          "internalType": "bool",
          "name": "",
          "type": "bool"
        }
      ],
      "stateMutability": "view",
      "type": "function"
    },
    {
      "inputs": [
        {
          "internalType": "address",
          "name": "",
          "type": "address"
        }
      ],
      "name": "liquidationThresholds",
      "outputs": [
        {
          "internalType": "uint256",
          "name": "",
          "type": "uint256"
        }
      ],
      "stateMutability": "view",
      "type": "function"
    },
    {
      "inputs": [],
      "name": "needRebalance",
      "outputs": [
        {
          "internalType": "bool",
          "name": "",
          "type": "bool"
        }
      ],
      "stateMutability": "view",
      "type": "function"
    },
    {
      "inputs": [
        {
          "internalType": "address[]",
          "name": "assets_",
          "type": "address[]"
        },
        {
          "internalType": "uint256[]",
          "name": "amounts_",
          "type": "uint256[]"
        }
      ],
      "name": "onTransferAmounts",
      "outputs": [],
      "stateMutability": "nonpayable",
      "type": "function"
    },
    {
      "inputs": [],
      "name": "performanceFee",
      "outputs": [
        {
          "internalType": "uint256",
          "name": "",
          "type": "uint256"
        }
      ],
      "stateMutability": "view",
      "type": "function"
    },
    {
      "inputs": [],
      "name": "performanceReceiver",
      "outputs": [
        {
          "internalType": "address",
          "name": "",
          "type": "address"
        }
      ],
      "stateMutability": "view",
      "type": "function"
    },
    {
      "inputs": [],
      "name": "previousImplementation",
      "outputs": [
        {
          "internalType": "address",
          "name": "",
          "type": "address"
        }
      ],
      "stateMutability": "view",
      "type": "function"
    },
    {
      "inputs": [],
      "name": "rebalance",
      "outputs": [],
      "stateMutability": "nonpayable",
      "type": "function"
    },
    {
      "inputs": [],
      "name": "reinvestThresholdPercent",
      "outputs": [
        {
          "internalType": "uint256",
          "name": "",
          "type": "uint256"
        }
      ],
      "stateMutability": "view",
      "type": "function"
    },
    {
      "inputs": [
        {
          "internalType": "address",
          "name": "theAsset_",
          "type": "address"
        },
        {
          "internalType": "uint256",
          "name": "amount_",
          "type": "uint256"
        }
      ],
      "name": "requirePayAmountBack",
      "outputs": [
        {
          "internalType": "uint256",
          "name": "amountOut",
          "type": "uint256"
        }
      ],
      "stateMutability": "nonpayable",
      "type": "function"
    },
    {
      "inputs": [],
      "name": "revision",
      "outputs": [
        {
          "internalType": "uint256",
          "name": "",
          "type": "uint256"
        }
      ],
      "stateMutability": "view",
      "type": "function"
    },
    {
      "inputs": [
        {
          "internalType": "uint256",
          "name": "value",
          "type": "uint256"
        }
      ],
      "name": "setCompoundRatio",
      "outputs": [],
      "stateMutability": "nonpayable",
      "type": "function"
    },
    {
      "inputs": [
        {
          "internalType": "uint256",
          "name": "newFuseThreshold",
          "type": "uint256"
        }
      ],
      "name": "setFuseThreshold",
      "outputs": [],
      "stateMutability": "nonpayable",
      "type": "function"
    },
    {
      "inputs": [
        {
          "internalType": "address",
          "name": "token",
          "type": "address"
        },
        {
          "internalType": "uint256",
          "name": "amount",
          "type": "uint256"
        }
      ],
      "name": "setLiquidationThreshold",
      "outputs": [],
      "stateMutability": "nonpayable",
      "type": "function"
    },
    {
      "inputs": [
        {
          "internalType": "uint256",
          "name": "percent_",
          "type": "uint256"
        }
      ],
      "name": "setReinvestThresholdPercent",
      "outputs": [],
      "stateMutability": "nonpayable",
      "type": "function"
    },
    {
      "inputs": [
        {
          "internalType": "string",
          "name": "name",
          "type": "string"
        }
      ],
      "name": "setStrategySpecificName",
      "outputs": [],
      "stateMutability": "nonpayable",
      "type": "function"
    },
    {
      "inputs": [
        {
          "internalType": "uint256",
          "name": "fee_",
          "type": "uint256"
        },
        {
          "internalType": "address",
          "name": "receiver_",
          "type": "address"
        }
      ],
      "name": "setupPerformanceFee",
      "outputs": [],
      "stateMutability": "nonpayable",
      "type": "function"
    },
    {
      "inputs": [],
      "name": "splitter",
      "outputs": [
        {
          "internalType": "address",
          "name": "",
          "type": "address"
        }
      ],
      "stateMutability": "view",
      "type": "function"
    },
    {
      "inputs": [],
      "name": "strategySpecificName",
      "outputs": [
        {
          "internalType": "string",
          "name": "",
          "type": "string"
        }
      ],
      "stateMutability": "view",
      "type": "function"
    },
    {
      "inputs": [
        {
          "internalType": "bytes4",
          "name": "interfaceId",
          "type": "bytes4"
        }
      ],
      "name": "supportsInterface",
      "outputs": [
        {
          "internalType": "bool",
          "name": "",
          "type": "bool"
        }
      ],
      "stateMutability": "view",
      "type": "function"
    },
    {
      "inputs": [],
      "name": "totalAssets",
      "outputs": [
        {
          "internalType": "uint256",
          "name": "",
          "type": "uint256"
        }
      ],
      "stateMutability": "view",
      "type": "function"
    },
    {
      "inputs": [
        {
          "internalType": "uint256",
          "name": "amount0Owed",
          "type": "uint256"
        },
        {
          "internalType": "uint256",
          "name": "amount1Owed",
          "type": "uint256"
        },
        {
          "internalType": "bytes",
          "name": "",
          "type": "bytes"
        }
      ],
      "name": "uniswapV3MintCallback",
      "outputs": [],
      "stateMutability": "nonpayable",
      "type": "function"
    },
    {
      "inputs": [],
      "name": "withdrawAllToSplitter",
      "outputs": [
        {
          "internalType": "uint256",
          "name": "strategyLoss",
          "type": "uint256"
        }
      ],
      "stateMutability": "nonpayable",
      "type": "function"
    },
    {
      "inputs": [
        {
          "internalType": "uint256",
          "name": "amount",
          "type": "uint256"
        }
      ],
      "name": "withdrawToSplitter",
      "outputs": [
        {
          "internalType": "uint256",
          "name": "strategyLoss",
          "type": "uint256"
        }
      ],
      "stateMutability": "nonpayable",
      "type": "function"
    }
  ],
  "transactionHash": "0xf7cf1108e595099b93f41e4016665f83b36485dd940b5f98e2c33cc1dc4a21df",
  "args": [],
  "numDeployments": 11,
  "solcInputHash": "fd8640e8d19311ab587feb58826b12f5",
  "bytecode": "0x60806040523480156200001157600080fd5b506200001c62000022565b620000e3565b600054610100900460ff16156200008f5760405162461bcd60e51b815260206004820152602760248201527f496e697469616c697a61626c653a20636f6e747261637420697320696e697469604482015266616c697a696e6760c81b606482015260840160405180910390fd5b60005460ff90811614620000e1576000805460ff191660ff9081179091556040519081527f7f26b83ff96e1f2b6a682f133852f6798a09c465da95921460cefb38474024989060200160405180910390a15b565b615fb480620000f36000396000f3fe608060405234801561001057600080fd5b50600436106102c15760003560e01c806371ee01751161017d578063ab9e3eee116100d9578063d295ea7011610092578063d295ea7014610648578063d348799714610651578063db8d55f114610664578063de3d047c1461066c578063dee1f0e41461067f578063f77c479114610692578063ffb86c6a1461069a57600080fd5b8063ab9e3eee146105d0578063b2457556146105d8578063b429afeb146105eb578063bd38837b146105fe578063cd4c815614610611578063ceee861d1461062457600080fd5b80638778878211610136578063877887821461051557806387c7f7701461051e578063936725ec1461053157806396b7b14e14610555578063996a6c9c146105685780639d0bcca01461058c578063a3f4df7e1461059457600080fd5b806371ee01751461049057806373a50ef51461049957806378327438146104bd5780637cc96380146104dd5780637d7c2a1c146104e55780637efc77fa146104ed57600080fd5b80633cd8045e1161022c57806351e03fbe116101e557806351e03fbe1461040c578063546799631461041f5780635641ec03146104345780635cfc1a511461043c5780636207a0cf1461044657806363e277341461046a5780636ffb4c8e1461047d57600080fd5b80633cd8045e146103b15780634593144c146103c45780634ad0b684146103cc5780634e71d92d146103d45780634fa5d854146103dc5780634fac6ccd146103f957600080fd5b8063253de4661161027e578063253de4661461035357806328abdef014610366578063321793a81461036e578063325a19f11461038157806333c5b58e1461038957806338d52e0f1461039157600080fd5b806301e1d114146102c657806301ffc9a7146102e15780630acd12c7146103045780630e30428d1461030c5780631865c57d1461032157806322b6f5e214610340575b600080fd5b6102ce6106a2565b6040519081526020015b60405180910390f35b6102f46102ef366004614c51565b61072d565b60405190151581526020016102d8565b6102ce610758565b61031f61031a366004614c90565b610934565b005b6103296109fb565b6040516102d89b9a99989796959493929190614cf7565b61031f61034e366004614d81565b610b00565b61031f610361366004614dc0565b610c37565b61031f610ef6565b61031f61037c366004614e42565b61106c565b6102ce611145565b6102ce611179565b603d546103a4906001600160a01b031681565b6040516102d89190614e5b565b603e546103a4906001600160a01b031681565b6102ce6111f1565b606f546102ce565b61031f611221565b6103e46112d2565b604080519283526020830191909152016102d8565b61031f610407366004614e6f565b611337565b6102ce61041a366004614e42565b611462565b61042761166e565b6040516102d89190614edc565b61031f6116fc565b600160ff1b6102ce565b61042760405180604001604052806005815260200164312e322e3760d81b81525081565b61031f610478366004614f5c565b611836565b61031f61048b366004614e42565b6118ee565b6102ce60725481565b61042760405180604001604052806005815260200164322e322e3560d81b81525081565b6102ce6104cb366004614e6f565b60716020526000908152604090205481565b6102ce6119df565b61031f611a0f565b61042760405180604001604052806009815260200168556e6973776170563360b81b81525081565b6102ce60425481565b6102ce61052c366004614c90565b611c94565b610427604051806040016040528060058152602001640332e302e360dc1b81525081565b61031f610563366004615059565b611e18565b61042760405180604001604052806005815260200164189718171960d91b81525081565b6103a4611eb7565b6104276040518060400160405280601c81526020017f556e6973776170563320436f6e7665727465722053747261746567790000000081525081565b6102f4611ee7565b6102ce6105e6366004615128565b611f72565b6102f46105f9366004614e6f565b6120ac565b6070546103a4906001600160a01b031681565b6041546103a4906001600160a01b031681565b61042760405180604001604052806005815260200164312e312e3760d81b81525081565b6102ce603f5481565b61031f61065f36600461514d565b6120d1565b6103e46121c2565b61031f61067a366004614e42565b61223a565b6102f461068d366004614e6f565b612334565b6103a46123b9565b6102f46123e9565b60006106ad606f5490565b603d546040516370a0823160e01b81526001600160a01b03909116906370a08231906106dd903090600401614e5b565b602060405180830381865afa1580156106fa573d6000803e3d6000fd5b505050506040513d601f19601f8201168201806040525081019061071e91906151cc565b61072891906151fb565b905090565b60006001600160e01b0319821663f73147b360e01b1480610752575061075282612480565b92915050565b603e54603d5460405163201de59f60e01b81526000926001600160a01b039081169216907356DCD1d1B26Ae44E6001d73705F99905Eb9850Bc9063201de59f906107a6908590600401614e5b565b60006040518083038186803b1580156107be57600080fd5b505af41580156107d2573d6000803e3d6000fd5b50506040516370a0823160e01b8152600092506001600160a01b03841691506370a0823190610805903090600401614e5b565b602060405180830381865afa158015610822573d6000803e3d6000fd5b505050506040513d601f19601f8201168201806040525081019061084691906151cc565b905060008060006108556124a5565b9250925092507356DCD1d1B26Ae44E6001d73705F99905Eb9850Bc631594b05b868686868b6040518663ffffffff1660e01b815260040161089a95949392919061520e565b602060405180830381865af41580156108b7573d6000803e3d6000fd5b505050506040513d601f19601f820116820180604052508101906108db91906151cc565b935083156108f7576108f76001600160a01b03861687866124c1565b6040518481527f97f6cbf669d73908a8de3b762891f88fcc476520fd70cb3d414dc9ac86e0a2e59060200160405180910390a19695505050505050565b7356DCD1d1B26Ae44E6001d73705F99905Eb9850Bc63493f6edc6109566123b9565b6040518263ffffffff1660e01b81526004016109729190614e5b565b60006040518083038186803b15801561098a57600080fd5b505af415801561099e573d6000803e3d6000fd5b5050506001600160a01b03831660009081526071602052604090819020839055517f297f3fbc14027d2b4a4f7dac3dff2ad6b386024299045b0e163f131bb24b611d91506109ef908490849061523e565b60405180910390a15050565b6001546002805460038054600454600954600a5460408051868152608081019091526001600160a01b03988916989687169796851696600160a01b8604810b96600160c81b8704820b96600160e01b9004820b95600160301b810490920b94600160501b9092046001600160801b03169360ff9092169260609160208201838036833701905050905060016005015481600081518110610a9d57610a9d615257565b60200260200101818152505060016006015481600181518110610ac257610ac2615257565b60200260200101818152505060016007015481600281518110610ae757610ae7615257565b602002602001018181525050909192939495969798999a565b7356DCD1d1B26Ae44E6001d73705F99905Eb9850Bc634bead669610b226123b9565b6040518263ffffffff1660e01b8152600401610b3e9190614e5b565b60006040518083038186803b158015610b5657600080fd5b505af4158015610b6a573d6000803e3d6000fd5b50505050620186a08211156040518060400160405280600c81526020016b0a6847440a8dede40d0d2ced60a31b81525090610bc15760405162461bcd60e51b8152600401610bb89190614edc565b60405180910390fd5b5060408051808201909152600f81526e53423a2057726f6e672076616c756560881b60208201526001600160a01b038216610c0f5760405162461bcd60e51b8152600401610bb89190614edc565b50604291909155604180546001600160a01b0319166001600160a01b03909216919091179055565b600054610100900460ff1615808015610c575750600054600160ff909116105b80610c715750303b158015610c71575060005460ff166001145b610cd45760405162461bcd60e51b815260206004820152602e60248201527f496e697469616c697a61626c653a20636f6e747261637420697320616c72656160448201526d191e481a5b9a5d1a585b1a5e995960921b6064820152608401610bb8565b6000805460ff191660011790558015610cf7576000805461ff0019166101001790555b610d64866001600160a01b03166338d52e0f6040518163ffffffff1660e01b8152600401602060405180830381865afa158015610d38573d6000803e3d6000fd5b505050506040513d601f19601f82011682018060405250810190610d5c919061526d565b85858561251c565b610d6f878787612705565b604051636a65141d60e11b8152600160048201526001600160a01b03808916602483015286166044820152732698E3a5c9D28F5f76BaC988c9476245d5168C719063d4ca283a9060640160006040518083038186803b158015610dd157600080fd5b505af4158015610de5573d6000803e3d6000fd5b5050604051631ade875b60e31b815260016004820152732698E3a5c9D28F5f76BaC988c9476245d5168C71925063d6f43ad89150602401600060405180830381865af4158015610e39573d6000803e3d6000fd5b505050506040513d6000823e601f3d908101601f19168201604052610e6191908101906152ba565b604390610e6e908261538a565b507f13bdeb5b5bb760c04b92d93e56c576c6805359d41a13d3cca178aa7c8526b9846043604051610e9f9190615449565b60405180910390a18015610eed576000805461ff0019169055604051600181527f7f26b83ff96e1f2b6a682f133852f6798a09c465da95921460cefb38474024989060200160405180910390a15b50505050505050565b7356DCD1d1B26Ae44E6001d73705F99905Eb9850Bc63493f6edc610f186123b9565b6040518263ffffffff1660e01b8152600401610f349190614e5b565b60006040518083038186803b158015610f4c57600080fd5b505af4158015610f60573d6000803e3d6000fd5b50506009805460ff191690555050607054600154600254604051637fd6c0a160e01b81526001600160a01b0393841660048201529183166024830152919091166044820152732698E3a5c9D28F5f76BaC988c9476245d5168C7190637fd6c0a190606401602060405180830381865af4158015610fe1573d6000803e3d6000fd5b505050506040513d601f19601f8201168201806040525081019061100591906151cc565b6001600a0181905550732698E3a5c9D28F5f76BaC988c9476245d5168C7163f460770b6040518163ffffffff1660e01b815260040160006040518083038186803b15801561105257600080fd5b505af4158015611066573d6000803e3d6000fd5b50505050565b7356DCD1d1B26Ae44E6001d73705F99905Eb9850Bc63493f6edc61108e6123b9565b6040518263ffffffff1660e01b81526004016110aa9190614e5b565b60006040518083038186803b1580156110c257600080fd5b505af41580156110d6573d6000803e3d6000fd5b505050600a82905550604051631c77945b60e31b815260048101829052732698E3a5c9D28F5f76BaC988c9476245d5168C719063e3bca2d89060240160006040518083038186803b15801561112a57600080fd5b505af415801561113e573d6000803e3d6000fd5b5050505050565b600061072861117560017f6f55f470bdc9cb5f04223fd822021061668e4dccb43e8727b295106dc9769c8b6154d4565b5490565b60007356DCD1d1B26Ae44E6001d73705F99905Eb9850Bc63493f6edc61119d6123b9565b6040518263ffffffff1660e01b81526004016111b99190614e5b565b60006040518083038186803b1580156111d157600080fd5b505af41580156111e5573d6000803e3d6000fd5b505050506107286127a7565b600061072861117560017f812a673dfca07956350df10f8a654925f561d7a0da09bdbe79e653939a14d9f16154d4565b7356DCD1d1B26Ae44E6001d73705F99905Eb9850Bc63493f6edc6112436123b9565b6040518263ffffffff1660e01b815260040161125f9190614e5b565b60006040518083038186803b15801561127757600080fd5b505af415801561128b573d6000803e3d6000fd5b5050505061129761286d565b50507fed7f50f936a5ed7428d20f18e78d6dfe8bc37fd2f4e3cdb348327c7697244928336040516112c89190614e5b565b60405180910390a1565b603e5460408051808201909152600a81526914d08e8811195b9a595960b21b60208201526000918291906001600160a01b031633146113245760405162461bcd60e51b8152600401610bb89190614edc565b5061132f6001612929565b915091509091565b3330146113865760405162461bcd60e51b815260206004820152601b60248201527f496e637265617365207265766973696f6e20666f7262696464656e00000000006044820152606401610bb8565b60006113b661117560017f22573091f17911fb166032a3d9e0554aa73d31b7b7ddea4a4dd2995650af84bd6154d4565b6113c19060016151fb565b90506113f5816113f260017f22573091f17911fb166032a3d9e0554aa73d31b7b7ddea4a4dd2995650af84bd6154d4565b55565b611424826113f260017fbfaaa2fb63266ff27c2da975f5894955056f50419af651a81f6c5060581857e46154d4565b604080518281526001600160a01b03841660208201527ff27e2ef832a4eb8ed8ec553b875eecd44764cda95b1c24170e281539e0a869c891016109ef565b603e54603d5460405163201de59f60e01b81526000926001600160a01b039081169216907356DCD1d1B26Ae44E6001d73705F99905Eb9850Bc9063201de59f906114b0908590600401614e5b565b60006040518083038186803b1580156114c857600080fd5b505af41580156114dc573d6000803e3d6000fd5b50506040516370a0823160e01b8152600092506001600160a01b03841691506370a082319061150f903090600401614e5b565b602060405180830381865afa15801561152c573d6000803e3d6000fd5b505050506040513d601f19601f8201168201806040525081019061155091906151cc565b9050808511156115fc5760008061156f61156a84896154d4565b6129f8565b604051631594b05b60e01b815290985091935091507356DCD1d1B26Ae44E6001d73705F99905Eb9850Bc90631594b05b906115b69087908790879087908c9060040161520e565b602060405180830381865af41580156115d3573d6000803e3d6000fd5b505050506040513d601f19601f820116820180604052508101906115f791906151cc565b925050505b60006116088683612a13565b90508015611624576116246001600160a01b03841685836124c1565b60408051878152602081018390529081018390527f21b38dd19808c509ae6afc969adfaf7d35fe949c37abd493b963cf9b68cc1acb9060600160405180910390a150505050919050565b6043805461167b90615302565b80601f01602080910402602001604051908101604052809291908181526020018280546116a790615302565b80156116f45780601f106116c9576101008083540402835291602001916116f4565b820191906000526020600020905b8154815290600101906020018083116116d757829003601f168201915b505050505081565b7356DCD1d1B26Ae44E6001d73705F99905Eb9850Bc63493f6edc61171e6123b9565b6040518263ffffffff1660e01b815260040161173a9190614e5b565b60006040518083038186803b15801561175257600080fd5b505af4158015611766573d6000803e3d6000fd5b50505050611772612a2b565b603d546040516370a0823160e01b81526001600160a01b039091169060009082906370a08231906117a7903090600401614e5b565b602060405180830381865afa1580156117c4573d6000803e3d6000fd5b505050506040513d601f19601f820116820180604052508101906117e891906151cc565b603e54909150611805906001600160a01b038481169116836124c1565b7ff779df072f94d207563b1ba8c286814086f1e6bb436a2652e307dccc56ed79e833826040516109ef92919061523e565b7356DCD1d1B26Ae44E6001d73705F99905Eb9850Bc63493f6edc6118586123b9565b6040518263ffffffff1660e01b81526004016118749190614e5b565b60006040518083038186803b15801561188c57600080fd5b505af41580156118a0573d6000803e3d6000fd5b5050505080604390816118b3919061538a565b507f13bdeb5b5bb760c04b92d93e56c576c6805359d41a13d3cca178aa7c8526b984816040516118e39190614edc565b60405180910390a150565b7356DCD1d1B26Ae44E6001d73705F99905Eb9850Bc63493f6edc6119106123b9565b6040518263ffffffff1660e01b815260040161192c9190614e5b565b60006040518083038186803b15801561194457600080fd5b505af4158015611958573d6000803e3d6000fd5b50505050620186a08111156040518060400160405280600f81526020016e53423a2057726f6e672076616c756560881b815250906119a95760405162461bcd60e51b8152600401610bb89190614edc565b5060728190556040518181527fe4166dfcf23bbd3e3f764a99dc8fa740554c03c82d6019b81cf265f396f6f2fe906020016118e3565b600061072861117560017f22573091f17911fb166032a3d9e0554aa73d31b7b7ddea4a4dd2995650af84bd6154d4565b6000611a196123b9565b60405163124fdbb760e21b81529091507356DCD1d1B26Ae44E6001d73705F99905Eb9850Bc9063493f6edc90611a53908490600401614e5b565b60006040518083038186803b158015611a6b57600080fd5b505af4158015611a7f573d6000803e3d6000fd5b5050600454600160501b90046001600160801b0316159150611aa7905057611aa5612b2e565b505b6070546000908190732698E3a5c9D28F5f76BaC988c9476245d5168C719063b24d8db0906001906001600160a01b031686611ae1606f5490565b6040516001600160e01b031960e087901b16815260048101949094526001600160a01b039283166024850152911660448301526064820152608401600060405180830381865af4158015611b39573d6000803e3d6000fd5b505050506040513d6000823e601f3d908101601f19168201604052611b619190810190615542565b915091508151600203611c8c57611b7782612b40565b50508015611c8c57600354600654600754604051638c64d45560e01b81526001600160a01b0384166004820152600160c81b8404600290810b6024830152600160e01b8504810b6044830152600160a01b90940490930b6064840152608483019190915260a4820152732698E3a5c9D28F5f76BaC988c9476245d5168C7190638c64d4559060c401606060405180830381865af4158015611c1c573d6000803e3d6000fd5b505050506040513d601f19601f82011682018060405250810190611c4091906155a4565b600580546001600160801b0319166001600160801b03929092169190911790556004805465ffffffffffff1916630100000062ffffff9384160262ffffff191617929091169190911790555b611066612c3b565b60705460408051808201909152600a81526914d08e8811195b9a595960b21b60208201526000916001600160a01b031690338214611ce55760405162461bcd60e51b8152600401610bb89190614edc565b50600080611cf286612c4f565b915091506000611d0187612cbb565b905085811015611d67576000611d15612d2b565b90508015611d65576000611d2882612d41565b90507faebc771af58936b05e89b0be7d3f9761480181abcd4a649fbdd01753fda169708282604051611d5b9291906155ec565b60405180910390a1505b505b733A986013f2b9772415F7b4433a904ae271688f1B6399c1fde487848688611d8d6123b9565b603d546040516001600160e01b031960e089901b168152611dc29695949392916001600160a01b03169060719060040161563e565b602060405180830381865af4158015611ddf573d6000803e3d6000fd5b505050506040513d601f19601f82011682018060405250810190611e0391906151cc565b9450611e0d612c3b565b505050505092915050565b60705460408051808201909152600a81526914d08e8811195b9a595960b21b6020820152906001600160a01b03163314611e655760405162461bcd60e51b8152600401610bb89190614edc565b508151815160408051808201909152600d81526c54532d3139206c656e6774687360981b6020820152908214611eae5760405162461bcd60e51b8152600401610bb89190614edc565b50611066612c3b565b600061072861117560017fbfaaa2fb63266ff27c2da975f5894955056f50419af651a81f6c5060581857e46154d4565b607054604051635ca1bcdf60e01b8152600160048201526001600160a01b039091166024820152600090732698E3a5c9D28F5f76BaC988c9476245d5168C7190635ca1bcdf906044015b602060405180830381865af4158015611f4e573d6000803e3d6000fd5b505050506040513d601f19601f82011682018060405250810190610728919061568d565b603e5460405163201de59f60e01b81526000917356DCD1d1B26Ae44E6001d73705F99905Eb9850Bc9163201de59f91611fb9916001600160a01b0390911690600401614e5b565b60006040518083038186803b158015611fd157600080fd5b505af4158015611fe5573d6000803e3d6000fd5b5050603d546040516370a0823160e01b8152600093506001600160a01b0390911691506370a082319061201c903090600401614e5b565b602060405180830381865afa158015612039573d6000803e3d6000fd5b505050506040513d601f19601f8201168201806040525081019061205d91906151cc565b905080156120725761206f8184612efb565b91505b6040518181527f94bcfc9a8eba5229c2956ccb1858733fce588bc02145ac053c40b9827a33837f9060200160405180910390a15092915050565b60006120b66123b9565b6001600160a01b0316826001600160a01b0316149050919050565b60035460408051808201909152601a81527f5533532d3131204e6f742063616c6c6261636b2063616c6c65720000000000006020820152906001600160a01b031633146121315760405162461bcd60e51b8152600401610bb89190614edc565b50831561217f5760045461217f9033908690600160481b900460ff16612162576001546001600160a01b031661216f565b6002546001600160a01b03165b6001600160a01b031691906124c1565b8215611066576004546110669033908590600160481b900460ff166121af576002546001600160a01b031661216f565b6001546001600160a01b031691906124c1565b604051631a2d761b60e11b8152600160048201526000908190732698E3a5c9D28F5f76BaC988c9476245d5168C719063345aec36906024016040805180830381865af4158015612216573d6000803e3d6000fd5b505050506040513d601f19601f8201168201806040525081019061132f91906156aa565b7356DCD1d1B26Ae44E6001d73705F99905Eb9850Bc63ac1d8b3561225c6123b9565b6040518263ffffffff1660e01b81526004016122789190614e5b565b60006040518083038186803b15801561229057600080fd5b505af41580156122a4573d6000803e3d6000fd5b50505050620186a08111156040518060400160405280600c81526020016b0a6847440a8dede40d0d2ced60a31b815250906122f25760405162461bcd60e51b8152600401610bb89190614edc565b50603f5460408051918252602082018390527f89979f75740477f1609671a960c1f57e40a47e58bdf1623bc683d806fb6407e5910160405180910390a1603f55565b6000816001600160a01b03166123486123b9565b6001600160a01b0316635aa6e6756040518163ffffffff1660e01b8152600401602060405180830381865afa158015612385573d6000803e3d6000fd5b505050506040513d601f19601f820116820180604052508101906123a9919061526d565b6001600160a01b03161492915050565b600061072861117560017f5165972ef41194f06c5007493031d0b927c20741adcb74403b954009fd2c36186154d4565b60095460035460048054604051632beacd5760e11b815260ff9094161515918401919091526001600160a01b0382166024840152600160c81b8204600290810b6044850152600160e01b8304810b6064850152600160a01b909204820b6084840152600160301b9004900b60a4820152600090732698E3a5c9D28F5f76BaC988c9476245d5168C71906357d59aae9060c401611f31565b60006001600160e01b0319821663c19fa56160e01b1480610752575061075282612f9e565b60008060006124b5600019612fd3565b91959094509092509050565b6125178363a9059cbb60e01b84846040516024016124e092919061523e565b60408051601f198184030181529190526020810180516001600160e01b03166001600160e01b031990931692909217909152613508565b505050565b600054610100900460ff166125435760405162461bcd60e51b8152600401610bb8906156ce565b60408051808201909152601181527054532d31207a65726f206164647265737360781b60208201526001600160a01b0384166125925760405162461bcd60e51b8152600401610bb89190614edc565b50600380546001600160a01b0319166001600160a01b038581169182179092556004805468ffffff0000000000001916600160301b62ffffff861602178155604051630175022560e21b815290810191909152600284810b602483015283900b60448201529085166064820152732698E3a5c9D28F5f76BaC988c9476245d5168C71906305d408949060840160c060405180830381865af415801561263b573d6000803e3d6000fd5b505050506040513d601f19601f8201168201806040525081019061265f9190615719565b60048054911515600160481b0260ff60481b19909216919091179055600280546001600160a01b039283166001600160a01b031991821617909155600180549390921692169190911790556003805462ffffff948516600160a01b0262ffffff60a01b19948616600160c81b0262ffffff60c81b1996909416600160e01b029590951665ffffffffffff60c81b1990911617919091179190911691909117905550505050565b600054610100900460ff1661272c5760405162461bcd60e51b8152600401610bb8906156ce565b61273683836135da565b607080546001600160a01b0319166001600160a01b03831617905561275f6064620186a0615792565b6072557fe4166dfcf23bbd3e3f764a99dc8fa740554c03c82d6019b81cf265f396f6f2fe6127916064620186a0615792565b60405190815260200160405180910390a1505050565b603d54600090819081906127c3906001600160a01b0316612c4f565b91509150733A986013f2b9772415F7b4433a904ae271688f1B63c9bce690836127f26127ed612d2b565b6137a2565b6070546040516001600160e01b031960e086901b16815261282593929187916001600160a01b03909116906004016157b4565b602060405180830381865af4158015612842573d6000803e3d6000fd5b505050506040513d601f19601f8201168201806040525081019061286691906151cc565b9250505090565b606080600080600061287d61387c565b6070549295509093509150733488c83887BA65da248d1B4A2776F8E93419c1d39063e99de4da906001600160a01b03166128b5613a64565b8686866040518663ffffffff1660e01b81526004016128d89594939291906157fb565b600060405180830381865af41580156128f5573d6000803e3d6000fd5b505050506040513d6000823e601f3d908101601f1916820160405261291d9190810190615859565b90969095509350505050565b606f5460009081908161293a612c3b565b90506129498282600080613af8565b9094509250600080600061295b613b43565b9194509250905061296c83886151fb565b965061297882876151fb565b95508780156129a15750620186a0846072546129949190615913565b61299e9190615792565b81115b156129ee576129b1816000612efb565b506129e86129bf82866151fb565b603d546129d4906001600160a01b0316612cbb565b606f546129e191906151fb565b8989613af8565b90975095505b5050505050915091565b6000806000612a0684612fd3565b9196909550909350915050565b6000818310612a225781612a24565b825b9392505050565b6000612a35612b2e565b90507f768a28cb3459382a3d2173feb2dad0235f8de680b109872da581a3aa269fe5f481604051612a66919061592a565b60405180910390a1603d546000908190612a88906001600160a01b0316612c4f565b6070549193509150733A986013f2b9772415F7b4433a904ae271688f1B906358b54f16906001600160a01b0316612ac5612ac06123b9565b613c13565b846071600019886040518763ffffffff1660e01b8152600401612aed9695949392919061593d565b602060405180830381865af4158015612b0a573d6000803e3d6000fd5b505050506040513d601f19601f82011682018060405250810190611eae91906151cc565b6060610728612b3b612d2b565b612d41565b60035460048054604051638008936760e01b8152606093600093732698E3a5c9D28F5f76BaC988c9476245d5168C7193638008936793612bc2936001600160a01b03811693600160c81b8204600290810b94600160e01b909304900b928b92600160501b81046001600160801b031692600160481b90910460ff169101615986565b600060405180830381865af4158015612bdf573d6000803e3d6000fd5b505050506040513d6000823e601f3d908101601f19168201604052612c0791908101906159dc565b600480546001600160801b03909216600160501b02600160501b600160d01b03199092169190911790559094909350915050565b6000612c456127a7565b606f819055919050565b60606000612c5b613a64565b9150612c678284613c77565b90506000198114156040518060400160405280600f81526020016e53423a2057726f6e672076616c756560881b81525090612cb55760405162461bcd60e51b8152600401610bb89190614edc565b50915091565b6040516370a0823160e01b81526000906001600160a01b038316906370a0823190612cea903090600401614e5b565b602060405180830381865afa158015612d07573d6000803e3d6000fd5b505050506040513d601f19601f8201168201806040525081019061075291906151cc565b600454600160501b90046001600160801b031690565b6060600080612d4e6121c2565b915091508160016005016000828254612d6791906151fb565b909155505060078054829190600090612d819084906151fb565b92505081905550732698E3a5c9D28F5f76BaC988c9476245d5168C716333fdd81d600160020160009054906101000a90046001600160a01b0316600160020160199054906101000a900460020b6001600201601c9054906101000a900460020b600160030160009054906101000a900460020b600160030160039054906101000a900460020b6001600301600a9054906101000a90046001600160801b0316600160040160009054906101000a90046001600160801b03168c600160030160099054906101000a900460ff166040518a63ffffffff1660e01b8152600401612e7199989796959493929190615a29565b600060405180830381865af4158015612e8e573d6000803e3d6000fd5b505050506040513d6000823e601f3d908101601f19168201604052612eb69190810190615a88565b600580546001600160801b0319166001600160801b0392831617905560048054600160501b600160d01b031916600160501b9390921692909202179055949350505050565b60095460009060ff1615612f8d576040805160028082526060820183526000926020830190803683370190505090508381600081518110612f3e57612f3e615257565b6020026020010181815250507f59400c8c523464b521238ea8f50e923f2bc64663557e6afec92a97f7efe92d058182604051612f7b929190615ace565b60405180910390a16000915050610752565b612f978383613cd5565b9050610752565b60006001600160e01b0319821663b7b79fa960e01b148061075257506301ffc9a760e01b6001600160e01b0319831614610752565b6000806000612fe184613e16565b61305e604051806101c0016040528060001515815260200160008152602001606081526020016000815260200160008152602001600081526020016000815260200160608152602001600081526020016060815260200160008152602001600081526020016060815260200160006001600160a01b031681525090565b6000198514815261306f6001613e6e565b602083019190915281519092508061308657508415155b80156130955750602081015115155b156134f4576130a2613a64565b6101808201819052603d546001600160a01b039081166101a08401819052607054909116916000916130d49190613c77565b905060006130e6846101a00151612cbb565b90506130f0613eb7565b60408501526130fd612d2b565b606085015261310a612d2b565b60808501526101a0840151604051637a55caf360e01b81526001600160a01b0380861660048301529091166024820152733A986013f2b9772415F7b4433a904ae271688f1B90637a55caf390604401602060405180830381865af4158015613176573d6000803e3d6000fd5b505050506040513d601f19601f8201168201806040525081019061319a91906151cc565b60c08501528351733488c83887BA65da248d1B4A2776F8E93419c1d39063ec0cc4fd906131c757896131ca565b60005b3087610180015186888a602001518b608001516040518863ffffffff1660e01b81526004016131ff9796959493929190615afc565b600060405180830381865af415801561321c573d6000803e3d6000fd5b505050506040513d6000823e601f3d908101601f191682016040526132449190810190615b4b565b60e086015260a085018190521561336c5760006132648560a00151612d41565b905061326e612d2b565b856080015161327d91906154d4565b60a086018190526040517faebc771af58936b05e89b0be7d3f9761480181abcd4a649fbdd01753fda16970916132b49184906155ec565b60405180910390a1733A986013f2b9772415F7b4433a904ae271688f1B637a9a23e5858761018001518689604001518a60a001518b606001518c60e00151896040518963ffffffff1660e01b8152600401613316989796959493929190615b87565b600060405180830381865af4158015613333573d6000803e3d6000fd5b505050506040513d6000823e601f3d908101601f1916820160405261335b9190810190615c09565b60e0870152610120860152506133fd565b61018084015160e0850151604051636138ea8560e01b8152733A986013f2b9772415F7b4433a904ae271688f1B92636138ea85926133b1928892918891600401615c55565b600060405180830381865af41580156133ce573d6000803e3d6000fd5b505050506040513d6000823e601f3d908101601f191682016040526133f69190810190615c91565b6101208501525b613419846101800151838660e00151868c896101200151613f32565b846101000181815161342b91906151fb565b905250613436612c3b565b6101408501526101a084015161344b90612cbb565b61016085015260208401516134619082906151fb565b84610160015185610140015161347791906151fb565b10156134ba5783610160015184610140015161349391906151fb565b8185602001516134a391906151fb565b6134ad91906154d4565b6134b790866151fb565b94505b670de0b6b3a76400008460c001518561010001516134d89190615913565b6134e29190615792565b8460c001519650965050505050613501565b6000806000935093509350505b9193909250565b600061355d826040518060400160405280602081526020017f5361666545524332303a206c6f772d6c6576656c2063616c6c206661696c6564815250856001600160a01b03166141379092919063ffffffff16565b805190915015612517578080602001905181019061357b919061568d565b6125175760405162461bcd60e51b815260206004820152602a60248201527f5361666545524332303a204552433230206f7065726174696f6e20646964206e6044820152691bdd081cdd58d8d9595960b21b6064820152608401610bb8565b600054610100900460ff166136015760405162461bcd60e51b8152600401610bb8906156ce565b61362b817fd2de0374d4479f33e63ae5ed6ca772a10463dd883a90c612050b51fab619640061414e565b613634826141a4565b60405163b429afeb60e01b81526001600160a01b0382169063b429afeb90613660908590600401614e5b565b602060405180830381865afa15801561367d573d6000803e3d6000fd5b505050506040513d601f19601f820116820180604052508101906136a1919061568d565b6040518060400160405280600f81526020016e53423a2057726f6e672076616c756560881b815250906136e75760405162461bcd60e51b8152600401610bb89190614edc565b50806001600160a01b03166338d52e0f6040518163ffffffff1660e01b8152600401602060405180830381865afa158015613726573d6000803e3d6000fd5b505050506040513d601f19601f8201168201806040525081019061374a919061526d565b603d80546001600160a01b039283166001600160a01b031991821617909155603e80549390921692811692909217905560418054909116739cc199d4353b5fb3e6c8eebc99f5139e0d8ea06b17905550612710604255565b6003546004805460055460405163c68bc70360e01b8152606094732698E3a5c9D28F5f76BaC988c9476245d5168C719463c68bc70394613837946001600160a01b03841694600160c81b8504600290810b95600160e01b9004810b9484820b946301000000810490920b93600160501b83046001600160801b03908116949116928e92600160481b90910460ff169101615a29565b600060405180830381865af4158015613854573d6000803e3d6000fd5b505050506040513d6000823e601f3d908101601f191682016040526107529190810190615c91565b604080516002808252606082810190935282918291816020016020820280368337505060015482519295506001600160a01b0316918591506000906138c3576138c3615257565b6001600160a01b0392831660209182029290920101526002548451911690849060019081106138f4576138f4615257565b60200260200101906001600160a01b031690816001600160a01b031681525050732698E3a5c9D28F5f76BaC988c9476245d5168C7163052a8899600160020160009054906101000a90046001600160a01b0316600160020160199054906101000a900460020b6001600201601c9054906101000a900460020b600160030160009054906101000a900460020b600160030160039054906101000a900460020b600160050154600160060154600160030160099054906101000a900460ff168c6001600301600a9054906101000a90046001600160801b0316600160040160009054906101000a90046001600160801b03166040518c63ffffffff1660e01b8152600401613a0b9b9a99989796959493929190615cc5565b600060405180830381865af4158015613a28573d6000803e3d6000fd5b505050506040513d6000823e601f3d908101601f19168201604052613a509190810190615c09565b600060068190556007559394909392509050565b6040805160028082526060808301845292602083019080368337505060015482519293506001600160a01b031691839150600090613aa457613aa4615257565b6001600160a01b039283166020918202929092010152600254825191169082906001908110613ad557613ad5615257565b60200260200101906001600160a01b031690816001600160a01b03168152505090565b60008085851115613b1e57613b0d86866154d4565b613b1790856151fb565b9350613b35565b613b2885876154d4565b613b3290846151fb565b92505b509194909350915050565b50565b60405163232421d960e01b81526001600482015260009081908190732698E3a5c9D28F5f76BaC988c9476245d5168C719063232421d990602401602060405180830381865af4158015613b9a573d6000803e3d6000fd5b505050506040513d601f19601f82011682018060405250810190613bbe91906151cc565b9250600080613bcb61286d565b91509150613bd982826143c7565b60085415613bed5760088054600090915593505b603d5485908590613c06906001600160a01b0316612cbb565b9450945094505050909192565b6000816001600160a01b0316634046ebae6040518163ffffffff1660e01b8152600401602060405180830381865afa158015613c53573d6000803e3d6000fd5b505050506040513d601f19601f82011682018060405250810190610752919061526d565b8151600090815b81811015613cc957836001600160a01b0316858281518110613ca257613ca2615257565b60200260200101516001600160a01b031603613cc15791506107529050565b600101613c7e565b50600019949350505050565b600080613ce183613e6e565b607254909350909150620186a090613cfa908390615913565b613d049190615792565b841115613e0f57603d546001600160a01b03166000613d2282612cbb565b603d549091506000908190613d3f906001600160a01b0316612c4f565b6070549193509150600090613d5f906001600160a01b03168a8585614467565b90506000613d6c82612b40565b5090507f59400c8c523464b521238ea8f50e923f2bc64663557e6afec92a97f7efe92d058282604051613da0929190615ace565b60405180910390a16000613db2612c3b565b90506000613dbf88612cbb565b9050613dcb878a6151fb565b613dd582846151fb565b1015613e0657613de581836151fb565b613def888b6151fb565b613df991906154d4565b613e03908b6151fb565b99505b50505050505050505b5092915050565b613e1e6123e9565b15604051806040016040528060148152602001735533532d31204e65656420726562616c616e636560601b81525090613e6a5760405162461bcd60e51b8152600401610bb89190614edc565b5050565b606f54600090819083613e815780613e89565b613e89612c3b565b925083613e97576000613eaf565b808310613ea5576000613eaf565b613eaf83826154d4565b915050915091565b604051630a65e5e760e01b815260016004820152606090732698E3a5c9D28F5f76BaC988c9476245d5168C7190630a65e5e790602401600060405180830381865af4158015613f0a573d6000803e3d6000fd5b505050506040513d6000823e601f3d908101601f191682016040526107289190810190615c91565b6000805b8751811015613f6e57828181518110613f5157613f51615257565b602002602001015182613f6491906151fb565b9150600101613f36565b506000613f7c612ac06123b9565b90506000198414158015613fb25750620186a0613f9b816103e86151fb565b613fa59086615913565b613faf9190615792565b82115b1561408257733A986013f2b9772415F7b4433a904ae271688f1B632c4cf7a386838a607160008e8e81518110613fea57613fea615257565b60200260200101516001600160a01b03166001600160a01b03168152602001908152602001600020548d8c6040518763ffffffff1660e01b815260040161403696959493929190615d4e565b600060405180830381865af4158015614053573d6000803e3d6000fd5b505050506040513d6000823e601f3d908101601f1916820160405261407b9190810190615b4b565b505061412c565b82878151811061409457614094615257565b6020026020010151733A986013f2b9772415F7b4433a904ae271688f1B6358b54f1687848b60718a8f6040518763ffffffff1660e01b81526004016140de9695949392919061593d565b602060405180830381865af41580156140fb573d6000803e3d6000fd5b505050506040513d601f19601f8201168201806040525081019061411f91906151cc565b61412991906151fb565b91505b509695505050505050565b606061414684846000856146a0565b949350505050565b614158828261477b565b613e6a5760405162461bcd60e51b815260206004820152601a60248201527f496e74657266616365206973206e6f7420737570706f727465640000000000006044820152606401610bb8565b600054610100900460ff166141cb5760405162461bcd60e51b8152600401610bb8906156ce565b6001600160a01b0381166142135760405162461bcd60e51b815260206004820152600f60248201526e2d32b9379031b7b73a3937b63632b960891b6044820152606401610bb8565b61423d817f4c2403fdcb3cff9b705d96bf0705858e3390412670a62c8bcba611ca7e20ab8661414e565b60006001600160a01b0316816001600160a01b0316635aa6e6756040518163ffffffff1660e01b8152600401602060405180830381865afa158015614286573d6000803e3d6000fd5b505050506040513d601f19601f820116820180604052508101906142aa919061526d565b6001600160a01b0316036142f25760405162461bcd60e51b815260206004820152600f60248201526e5a65726f20676f7665726e616e636560881b6044820152606401610bb8565b614321816113f260017f5165972ef41194f06c5007493031d0b927c20741adcb74403b954009fd2c36186154d4565b614350426113f260017f6f55f470bdc9cb5f04223fd822021061668e4dccb43e8727b295106dc9769c8b6154d4565b61437f436113f260017f812a673dfca07956350df10f8a654925f561d7a0da09bdbe79e653939a14d9f16154d4565b604080516001600160a01b038316815242602082015243918101919091527f1a2dd071001ebf6e03174e3df5b305795a4ad5d41d8fdb9ba41dbbe236713426906060016118e3565b815180156125175760006143db8484614859565b9050733488c83887BA65da248d1B4A2776F8E93419c1d363acf741a36143ff6123b9565b603e546040516001600160e01b031960e085901b16815261443192916001600160a01b03169089908790600401615da7565b60006040518083038186803b15801561444957600080fd5b505af415801561445d573d6000803e3d6000fd5b5050505050505050565b60606144716123e9565b15604051806040016040528060148152602001735533532d31204e65656420726562616c616e636560601b815250906144bd5760405162461bcd60e51b8152600401610bb89190614edc565b506040805160028082526060820183529091602083019080368337019050506003546004805460405163a1d4398960e01b81526001600160a01b03841692810192909252600160c81b8304600290810b6024840152600160e01b90930490920b6044820152600160481b90910460ff16151560648201529091506000908190732698E3a5c9D28F5f76BaC988c9476245d5168C719063a1d4398990608401600060405180830381865af4158015614578573d6000803e3d6000fd5b505050506040513d6000823e601f3d908101601f191682016040526145a091908101906152ba565b6001549091506145ba906001600160a01b03168789614a04565b60015460025460405163ca27d10d60e01b8152733A986013f2b9772415F7b4433a904ae271688f1B9263ca27d10d9261460d928c9287926001600160a01b03918216929116908d90600090600401615de5565b6040805180830381865af4158015614629573d6000803e3d6000fd5b505050506040513d601f19601f8201168201806040525081019061464d91906156aa565b8460018151811061466057614660615257565b6020908102919091010152915061467782876154d4565b8360008151811061468a5761468a615257565b6020026020010181815250505050949350505050565b6060824710156147015760405162461bcd60e51b815260206004820152602660248201527f416464726573733a20696e73756666696369656e742062616c616e636520666f6044820152651c8818d85b1b60d21b6064820152608401610bb8565b600080866001600160a01b0316858760405161471d9190615e2d565b60006040518083038185875af1925050503d806000811461475a576040519150601f19603f3d011682016040523d82523d6000602084013e61475f565b606091505b509150915061477087838387614aaa565b979650505050505050565b60006001600160a01b0383166147c25760405162461bcd60e51b815260206004820152600c60248201526b5a65726f206164647265737360a01b6044820152606401610bb8565b823b60008190036147d7576000915050610752565b6040516301ffc9a760e01b81526001600160e01b0319841660048201526001600160a01b038516906301ffc9a790602401602060405180830381865afa925050508015614841575060408051601f3d908101601f1916820190925261483e9181019061568d565b60015b1561484f5791506107529050565b5060009392505050565b603d54607054603f546060926001600160a01b0390811692600092733A986013f2b9772415F7b4433a904ae271688f1B9263ef50284f921690859061489c613a64565b6148a7612ac06123b9565b60718c8c6042546040518a63ffffffff1660e01b81526004016148d299989796959493929190615e49565b600060405180830381865af41580156148ef573d6000803e3d6000fd5b505050506040513d6000823e601f3d908101601f191682016040526149179190810190615ecd565b603e546041546040516323f5a0c560e21b81526001600160a01b0380881660048301526024820185905292831660448201529116606482015291945091506000908190733488c83887BA65da248d1B4A2776F8E93419c1d390638fd68314906084016040805180830381865af4158015614995573d6000803e3d6000fd5b505050506040513d601f19601f820116820180604052508101906149b991906156aa565b915091507f4c300a656bfa0935e36cd55e92634bc20b2b7e0a0ebf424a2a25bfaac3a01e76878684846040516149f29493929190615f13565b60405180910390a15050505092915050565b604051636eb1769f60e11b81523060048201526001600160a01b03828116602483015283919085169063dd62ed3e90604401602060405180830381865afa158015614a53573d6000803e3d6000fd5b505050506040513d601f19601f82011682018060405250810190614a7791906151cc565b101561251757614a926001600160a01b038416826000614b23565b6125176001600160a01b03841682600160ff1b614b23565b60608315614b19578251600003614b12576001600160a01b0385163b614b125760405162461bcd60e51b815260206004820152601d60248201527f416464726573733a2063616c6c20746f206e6f6e2d636f6e74726163740000006044820152606401610bb8565b5081614146565b6141468383614c27565b801580614b9d5750604051636eb1769f60e11b81523060048201526001600160a01b03838116602483015284169063dd62ed3e90604401602060405180830381865afa158015614b77573d6000803e3d6000fd5b505050506040513d601f19601f82011682018060405250810190614b9b91906151cc565b155b614c085760405162461bcd60e51b815260206004820152603660248201527f5361666545524332303a20617070726f76652066726f6d206e6f6e2d7a65726f60448201527520746f206e6f6e2d7a65726f20616c6c6f77616e636560501b6064820152608401610bb8565b6125178363095ea7b360e01b84846040516024016124e092919061523e565b815115614c375781518083602001fd5b8060405162461bcd60e51b8152600401610bb89190614edc565b600060208284031215614c6357600080fd5b81356001600160e01b031981168114612a2457600080fd5b6001600160a01b0381168114613b4057600080fd5b60008060408385031215614ca357600080fd5b8235614cae81614c7b565b946020939093013593505050565b600081518084526020808501945080840160005b83811015614cec57815187529582019590820190600101614cd0565b509495945050505050565b6001600160a01b038c811682528b811660208301528a166040820152600289810b606083015288810b608083015287810b60a083015286900b60c08201526001600160801b03851660e082015283151561010082015261012081018390526101606101408201819052600090614d6f83820185614cbc565b9e9d5050505050505050505050505050565b60008060408385031215614d9457600080fd5b823591506020830135614da681614c7b565b809150509250929050565b8060020b8114613b4057600080fd5b60008060008060008060c08789031215614dd957600080fd5b8635614de481614c7b565b95506020870135614df481614c7b565b94506040870135614e0481614c7b565b93506060870135614e1481614c7b565b92506080870135614e2481614db1565b915060a0870135614e3481614db1565b809150509295509295509295565b600060208284031215614e5457600080fd5b5035919050565b6001600160a01b0391909116815260200190565b600060208284031215614e8157600080fd5b8135612a2481614c7b565b60005b83811015614ea7578181015183820152602001614e8f565b50506000910152565b60008151808452614ec8816020860160208601614e8c565b601f01601f19169290920160200192915050565b602081526000612a246020830184614eb0565b634e487b7160e01b600052604160045260246000fd5b604051601f8201601f191681016001600160401b0381118282101715614f2d57614f2d614eef565b604052919050565b60006001600160401b03821115614f4e57614f4e614eef565b50601f01601f191660200190565b600060208284031215614f6e57600080fd5b81356001600160401b03811115614f8457600080fd5b8201601f81018413614f9557600080fd5b8035614fa8614fa382614f35565b614f05565b818152856020838501011115614fbd57600080fd5b81602084016020830137600091810160200191909152949350505050565b60006001600160401b03821115614ff457614ff4614eef565b5060051b60200190565b600082601f83011261500f57600080fd5b8135602061501f614fa383614fdb565b82815260059290921b8401810191818101908684111561503e57600080fd5b8286015b8481101561412c5780358352918301918301615042565b6000806040838503121561506c57600080fd5b82356001600160401b038082111561508357600080fd5b818501915085601f83011261509757600080fd5b813560206150a7614fa383614fdb565b82815260059290921b840181019181810190898411156150c657600080fd5b948201945b838610156150ed5785356150de81614c7b565b825294820194908201906150cb565b9650508601359250508082111561510357600080fd5b5061511085828601614ffe565b9150509250929050565b8015158114613b4057600080fd5b6000806040838503121561513b57600080fd5b823591506020830135614da68161511a565b6000806000806060858703121561516357600080fd5b843593506020850135925060408501356001600160401b038082111561518857600080fd5b818701915087601f83011261519c57600080fd5b8135818111156151ab57600080fd5b8860208285010111156151bd57600080fd5b95989497505060200194505050565b6000602082840312156151de57600080fd5b5051919050565b634e487b7160e01b600052601160045260246000fd5b80820180821115610752576107526151e5565b6001600160a01b039586168152602081019490945260408401929092526060830152909116608082015260a00190565b6001600160a01b03929092168252602082015260400190565b634e487b7160e01b600052603260045260246000fd5b60006020828403121561527f57600080fd5b8151612a2481614c7b565b6000615298614fa384614f35565b90508281528383830111156152ac57600080fd5b612a24836020830184614e8c565b6000602082840312156152cc57600080fd5b81516001600160401b038111156152e257600080fd5b8201601f810184136152f357600080fd5b6141468482516020840161528a565b600181811c9082168061531657607f821691505b60208210810361533657634e487b7160e01b600052602260045260246000fd5b50919050565b601f82111561251757600081815260208120601f850160051c810160208610156153635750805b601f850160051c820191505b818110156153825782815560010161536f565b505050505050565b81516001600160401b038111156153a3576153a3614eef565b6153b7816153b18454615302565b8461533c565b602080601f8311600181146153ec57600084156153d45750858301515b600019600386901b1c1916600185901b178555615382565b600085815260208120601f198616915b8281101561541b578886015182559484019460019091019084016153fc565b50858210156154395787850151600019600388901b60f8161c191681555b5050505050600190811b01905550565b600060208083526000845461545d81615302565b8084870152604060018084166000811461547e5760018114615498576154c6565b60ff1985168984015283151560051b8901830195506154c6565b896000528660002060005b858110156154be5781548b82018601529083019088016154a3565b8a0184019650505b509398975050505050505050565b81810381811115610752576107526151e5565b600082601f8301126154f857600080fd5b81516020615508614fa383614fdb565b82815260059290921b8401810191818101908684111561552757600080fd5b8286015b8481101561412c578051835291830191830161552b565b6000806040838503121561555557600080fd5b82516001600160401b0381111561556b57600080fd5b615577858286016154e7565b9250506020830151614da68161511a565b80516001600160801b038116811461559f57600080fd5b919050565b6000806000606084860312156155b957600080fd5b83516155c481614db1565b60208501519093506155d581614db1565b91506155e360408501615588565b90509250925092565b8281526040602082015260006141466040830184614cbc565b600081518084526020808501945080840160005b83811015614cec5781516001600160a01b031687529582019590820190600101615619565b87815286602082015260e06040820152600061565d60e0830188615605565b6001600160a01b0396871660608401529486166080830152509190931660a082015260c001919091529392505050565b60006020828403121561569f57600080fd5b8151612a248161511a565b600080604083850312156156bd57600080fd5b505080516020909101519092909150565b6020808252602b908201527f496e697469616c697a61626c653a20636f6e7472616374206973206e6f74206960408201526a6e697469616c697a696e6760a81b606082015260800190565b60008060008060008060c0878903121561573257600080fd5b865161573d81614db1565b602088015190965061574e81614db1565b604088015190955061575f81614db1565b606088015190945061577081614c7b565b608088015190935061578181614c7b565b60a0880151909250614e348161511a565b6000826157af57634e487b7160e01b600052601260045260246000fd5b500490565b6080815260006157c76080830187615605565b82810360208401526157d98187614cbc565b604084019590955250506001600160a01b039190911660609091015292915050565b6001600160a01b038616815260a06020820181905260009061581f90830187615605565b82810360408401526158318187615605565b905082810360608401526158458186614cbc565b905082810360808401526141298185614cbc565b6000806040838503121561586c57600080fd5b82516001600160401b038082111561588357600080fd5b818501915085601f83011261589757600080fd5b815160206158a7614fa383614fdb565b82815260059290921b840181019181810190898411156158c657600080fd5b948201945b838610156158ed5785516158de81614c7b565b825294820194908201906158cb565b9188015191965090935050508082111561590657600080fd5b50615110858286016154e7565b8082028115828204841417610752576107526151e5565b602081526000612a246020830184614cbc565b600060018060a01b03808916835280881660208401525085604083015284606083015283608083015260c060a083015261597a60c0830184615605565b98975050505050505050565b60018060a01b03871681528560020b60208201528460020b604082015260c0606082015260006159b960c0830186614cbc565b6001600160801b039490941660808301525090151560a090910152949350505050565b6000806000606084860312156159f157600080fd5b83516001600160401b03811115615a0757600080fd5b615a13868287016154e7565b935050602084015191506155e360408501615588565b6001600160a01b03999099168952600297880b60208a015295870b604089015293860b60608801529190940b60808601526001600160801b0393841660a0860152831660c085015290911660e083015215156101008201526101200190565b600080600060608486031215615a9d57600080fd5b83516001600160401b03811115615ab357600080fd5b615abf868287016154e7565b9350506155d560208501615588565b604081526000615ae16040830185614cbc565b8281036020840152615af38185614cbc565b95945050505050565b878152600060018060a01b03808916602084015260e06040840152615b2460e0840189615605565b606084019790975294909416608082015260a081019290925260c090910152509392505050565b60008060408385031215615b5e57600080fd5b8251915060208301516001600160401b03811115615b7b57600080fd5b615110858286016154e7565b6001600160a01b038916815261010060208201819052600090615bac8382018b615605565b90508860408401528281036060840152615bc68189614cbc565b90508660808401528560a084015282810360c0840152615be68186614cbc565b905082810360e0840152615bfa8185614cbc565b9b9a5050505050505050505050565b60008060408385031215615c1c57600080fd5b82516001600160401b0380821115615c3357600080fd5b615c3f868387016154e7565b9350602085015191508082111561590657600080fd5b6001600160a01b0385168152608060208201819052600090615c7990830186615605565b84604084015282810360608401526147708185614cbc565b600060208284031215615ca357600080fd5b81516001600160401b03811115615cb957600080fd5b614146848285016154e7565b600061016060018060a01b038e1683528c60020b60208401528b60020b60408401528a60020b60608401528960020b60808401528860a08401528760c084015286151560e084015280610100840152615d2081840187615605565b9150506001600160801b03808516610120840152808416610140840152509c9b505050505050505050505050565b6001600160a01b03878116825286166020820152604081018590526060810184905260c060808201819052600090615d8890830185615605565b82810360a0840152615d9a8185614cbc565b9998505050505050505050565b6001600160a01b03858116825284166020820152608060408201819052600090615dd390830185615605565b82810360608401526147708185614cbc565b600060018060a01b03808916835260c06020840152615e0760c0840189614eb0565b9681166040840152949094166060820152608081019290925260a0909101525092915050565b60008251615e3f818460208701614e8c565b9190910192915050565b6001600160a01b038a8116825289811660208301526040820189905261012060608301819052600091615e7e8483018b615605565b91508089166080850152508660a084015282810360c0840152615ea18187615605565b905082810360e0840152615eb58186614cbc565b915050826101008301529a9950505050505050505050565b60008060408385031215615ee057600080fd5b82516001600160401b03811115615ef657600080fd5b615f02858286016154e7565b925050602083015190509250929050565b6080808252855190820181905260009060209060a0840190828901845b82811015615f555781516001600160a01b031684529284019290840190600101615f30565b50505083810382850152615f698188614cbc565b6040850196909652505050606001529291505056fea264697066735822122028b81fe7b990aae6433646e28a3a74fb0f191e2dcfe000e9ae9d1221131c7c4164736f6c63430008110033",
  "deployedBytecode": "0x608060405234801561001057600080fd5b50600436106102c15760003560e01c806371ee01751161017d578063ab9e3eee116100d9578063d295ea7011610092578063d295ea7014610648578063d348799714610651578063db8d55f114610664578063de3d047c1461066c578063dee1f0e41461067f578063f77c479114610692578063ffb86c6a1461069a57600080fd5b8063ab9e3eee146105d0578063b2457556146105d8578063b429afeb146105eb578063bd38837b146105fe578063cd4c815614610611578063ceee861d1461062457600080fd5b80638778878211610136578063877887821461051557806387c7f7701461051e578063936725ec1461053157806396b7b14e14610555578063996a6c9c146105685780639d0bcca01461058c578063a3f4df7e1461059457600080fd5b806371ee01751461049057806373a50ef51461049957806378327438146104bd5780637cc96380146104dd5780637d7c2a1c146104e55780637efc77fa146104ed57600080fd5b80633cd8045e1161022c57806351e03fbe116101e557806351e03fbe1461040c578063546799631461041f5780635641ec03146104345780635cfc1a511461043c5780636207a0cf1461044657806363e277341461046a5780636ffb4c8e1461047d57600080fd5b80633cd8045e146103b15780634593144c146103c45780634ad0b684146103cc5780634e71d92d146103d45780634fa5d854146103dc5780634fac6ccd146103f957600080fd5b8063253de4661161027e578063253de4661461035357806328abdef014610366578063321793a81461036e578063325a19f11461038157806333c5b58e1461038957806338d52e0f1461039157600080fd5b806301e1d114146102c657806301ffc9a7146102e15780630acd12c7146103045780630e30428d1461030c5780631865c57d1461032157806322b6f5e214610340575b600080fd5b6102ce6106a2565b6040519081526020015b60405180910390f35b6102f46102ef366004614c51565b61072d565b60405190151581526020016102d8565b6102ce610758565b61031f61031a366004614c90565b610934565b005b6103296109fb565b6040516102d89b9a99989796959493929190614cf7565b61031f61034e366004614d81565b610b00565b61031f610361366004614dc0565b610c37565b61031f610ef6565b61031f61037c366004614e42565b61106c565b6102ce611145565b6102ce611179565b603d546103a4906001600160a01b031681565b6040516102d89190614e5b565b603e546103a4906001600160a01b031681565b6102ce6111f1565b606f546102ce565b61031f611221565b6103e46112d2565b604080519283526020830191909152016102d8565b61031f610407366004614e6f565b611337565b6102ce61041a366004614e42565b611462565b61042761166e565b6040516102d89190614edc565b61031f6116fc565b600160ff1b6102ce565b61042760405180604001604052806005815260200164312e322e3760d81b81525081565b61031f610478366004614f5c565b611836565b61031f61048b366004614e42565b6118ee565b6102ce60725481565b61042760405180604001604052806005815260200164322e322e3560d81b81525081565b6102ce6104cb366004614e6f565b60716020526000908152604090205481565b6102ce6119df565b61031f611a0f565b61042760405180604001604052806009815260200168556e6973776170563360b81b81525081565b6102ce60425481565b6102ce61052c366004614c90565b611c94565b610427604051806040016040528060058152602001640332e302e360dc1b81525081565b61031f610563366004615059565b611e18565b61042760405180604001604052806005815260200164189718171960d91b81525081565b6103a4611eb7565b6104276040518060400160405280601c81526020017f556e6973776170563320436f6e7665727465722053747261746567790000000081525081565b6102f4611ee7565b6102ce6105e6366004615128565b611f72565b6102f46105f9366004614e6f565b6120ac565b6070546103a4906001600160a01b031681565b6041546103a4906001600160a01b031681565b61042760405180604001604052806005815260200164312e312e3760d81b81525081565b6102ce603f5481565b61031f61065f36600461514d565b6120d1565b6103e46121c2565b61031f61067a366004614e42565b61223a565b6102f461068d366004614e6f565b612334565b6103a46123b9565b6102f46123e9565b60006106ad606f5490565b603d546040516370a0823160e01b81526001600160a01b03909116906370a08231906106dd903090600401614e5b565b602060405180830381865afa1580156106fa573d6000803e3d6000fd5b505050506040513d601f19601f8201168201806040525081019061071e91906151cc565b61072891906151fb565b905090565b60006001600160e01b0319821663f73147b360e01b1480610752575061075282612480565b92915050565b603e54603d5460405163201de59f60e01b81526000926001600160a01b0390811692169073__$ec217c54da363a68ad871e6868efec481c$__9063201de59f906107a6908590600401614e5b565b60006040518083038186803b1580156107be57600080fd5b505af41580156107d2573d6000803e3d6000fd5b50506040516370a0823160e01b8152600092506001600160a01b03841691506370a0823190610805903090600401614e5b565b602060405180830381865afa158015610822573d6000803e3d6000fd5b505050506040513d601f19601f8201168201806040525081019061084691906151cc565b905060008060006108556124a5565b92509250925073__$ec217c54da363a68ad871e6868efec481c$__631594b05b868686868b6040518663ffffffff1660e01b815260040161089a95949392919061520e565b602060405180830381865af41580156108b7573d6000803e3d6000fd5b505050506040513d601f19601f820116820180604052508101906108db91906151cc565b935083156108f7576108f76001600160a01b03861687866124c1565b6040518481527f97f6cbf669d73908a8de3b762891f88fcc476520fd70cb3d414dc9ac86e0a2e59060200160405180910390a19695505050505050565b73__$ec217c54da363a68ad871e6868efec481c$__63493f6edc6109566123b9565b6040518263ffffffff1660e01b81526004016109729190614e5b565b60006040518083038186803b15801561098a57600080fd5b505af415801561099e573d6000803e3d6000fd5b5050506001600160a01b03831660009081526071602052604090819020839055517f297f3fbc14027d2b4a4f7dac3dff2ad6b386024299045b0e163f131bb24b611d91506109ef908490849061523e565b60405180910390a15050565b6001546002805460038054600454600954600a5460408051868152608081019091526001600160a01b03988916989687169796851696600160a01b8604810b96600160c81b8704820b96600160e01b9004820b95600160301b810490920b94600160501b9092046001600160801b03169360ff9092169260609160208201838036833701905050905060016005015481600081518110610a9d57610a9d615257565b60200260200101818152505060016006015481600181518110610ac257610ac2615257565b60200260200101818152505060016007015481600281518110610ae757610ae7615257565b602002602001018181525050909192939495969798999a565b73__$ec217c54da363a68ad871e6868efec481c$__634bead669610b226123b9565b6040518263ffffffff1660e01b8152600401610b3e9190614e5b565b60006040518083038186803b158015610b5657600080fd5b505af4158015610b6a573d6000803e3d6000fd5b50505050620186a08211156040518060400160405280600c81526020016b0a6847440a8dede40d0d2ced60a31b81525090610bc15760405162461bcd60e51b8152600401610bb89190614edc565b60405180910390fd5b5060408051808201909152600f81526e53423a2057726f6e672076616c756560881b60208201526001600160a01b038216610c0f5760405162461bcd60e51b8152600401610bb89190614edc565b50604291909155604180546001600160a01b0319166001600160a01b03909216919091179055565b600054610100900460ff1615808015610c575750600054600160ff909116105b80610c715750303b158015610c71575060005460ff166001145b610cd45760405162461bcd60e51b815260206004820152602e60248201527f496e697469616c697a61626c653a20636f6e747261637420697320616c72656160448201526d191e481a5b9a5d1a585b1a5e995960921b6064820152608401610bb8565b6000805460ff191660011790558015610cf7576000805461ff0019166101001790555b610d64866001600160a01b03166338d52e0f6040518163ffffffff1660e01b8152600401602060405180830381865afa158015610d38573d6000803e3d6000fd5b505050506040513d601f19601f82011682018060405250810190610d5c919061526d565b85858561251c565b610d6f878787612705565b604051636a65141d60e11b8152600160048201526001600160a01b0380891660248301528616604482015273__$166cd655d2cd990700b75f7db5b5f84c53$__9063d4ca283a9060640160006040518083038186803b158015610dd157600080fd5b505af4158015610de5573d6000803e3d6000fd5b5050604051631ade875b60e31b81526001600482015273__$166cd655d2cd990700b75f7db5b5f84c53$__925063d6f43ad89150602401600060405180830381865af4158015610e39573d6000803e3d6000fd5b505050506040513d6000823e601f3d908101601f19168201604052610e6191908101906152ba565b604390610e6e908261538a565b507f13bdeb5b5bb760c04b92d93e56c576c6805359d41a13d3cca178aa7c8526b9846043604051610e9f9190615449565b60405180910390a18015610eed576000805461ff0019169055604051600181527f7f26b83ff96e1f2b6a682f133852f6798a09c465da95921460cefb38474024989060200160405180910390a15b50505050505050565b73__$ec217c54da363a68ad871e6868efec481c$__63493f6edc610f186123b9565b6040518263ffffffff1660e01b8152600401610f349190614e5b565b60006040518083038186803b158015610f4c57600080fd5b505af4158015610f60573d6000803e3d6000fd5b50506009805460ff191690555050607054600154600254604051637fd6c0a160e01b81526001600160a01b039384166004820152918316602483015291909116604482015273__$166cd655d2cd990700b75f7db5b5f84c53$__90637fd6c0a190606401602060405180830381865af4158015610fe1573d6000803e3d6000fd5b505050506040513d601f19601f8201168201806040525081019061100591906151cc565b6001600a018190555073__$166cd655d2cd990700b75f7db5b5f84c53$__63f460770b6040518163ffffffff1660e01b815260040160006040518083038186803b15801561105257600080fd5b505af4158015611066573d6000803e3d6000fd5b50505050565b73__$ec217c54da363a68ad871e6868efec481c$__63493f6edc61108e6123b9565b6040518263ffffffff1660e01b81526004016110aa9190614e5b565b60006040518083038186803b1580156110c257600080fd5b505af41580156110d6573d6000803e3d6000fd5b505050600a82905550604051631c77945b60e31b81526004810182905273__$166cd655d2cd990700b75f7db5b5f84c53$__9063e3bca2d89060240160006040518083038186803b15801561112a57600080fd5b505af415801561113e573d6000803e3d6000fd5b5050505050565b600061072861117560017f6f55f470bdc9cb5f04223fd822021061668e4dccb43e8727b295106dc9769c8b6154d4565b5490565b600073__$ec217c54da363a68ad871e6868efec481c$__63493f6edc61119d6123b9565b6040518263ffffffff1660e01b81526004016111b99190614e5b565b60006040518083038186803b1580156111d157600080fd5b505af41580156111e5573d6000803e3d6000fd5b505050506107286127a7565b600061072861117560017f812a673dfca07956350df10f8a654925f561d7a0da09bdbe79e653939a14d9f16154d4565b73__$ec217c54da363a68ad871e6868efec481c$__63493f6edc6112436123b9565b6040518263ffffffff1660e01b815260040161125f9190614e5b565b60006040518083038186803b15801561127757600080fd5b505af415801561128b573d6000803e3d6000fd5b5050505061129761286d565b50507fed7f50f936a5ed7428d20f18e78d6dfe8bc37fd2f4e3cdb348327c7697244928336040516112c89190614e5b565b60405180910390a1565b603e5460408051808201909152600a81526914d08e8811195b9a595960b21b60208201526000918291906001600160a01b031633146113245760405162461bcd60e51b8152600401610bb89190614edc565b5061132f6001612929565b915091509091565b3330146113865760405162461bcd60e51b815260206004820152601b60248201527f496e637265617365207265766973696f6e20666f7262696464656e00000000006044820152606401610bb8565b60006113b661117560017f22573091f17911fb166032a3d9e0554aa73d31b7b7ddea4a4dd2995650af84bd6154d4565b6113c19060016151fb565b90506113f5816113f260017f22573091f17911fb166032a3d9e0554aa73d31b7b7ddea4a4dd2995650af84bd6154d4565b55565b611424826113f260017fbfaaa2fb63266ff27c2da975f5894955056f50419af651a81f6c5060581857e46154d4565b604080518281526001600160a01b03841660208201527ff27e2ef832a4eb8ed8ec553b875eecd44764cda95b1c24170e281539e0a869c891016109ef565b603e54603d5460405163201de59f60e01b81526000926001600160a01b0390811692169073__$ec217c54da363a68ad871e6868efec481c$__9063201de59f906114b0908590600401614e5b565b60006040518083038186803b1580156114c857600080fd5b505af41580156114dc573d6000803e3d6000fd5b50506040516370a0823160e01b8152600092506001600160a01b03841691506370a082319061150f903090600401614e5b565b602060405180830381865afa15801561152c573d6000803e3d6000fd5b505050506040513d601f19601f8201168201806040525081019061155091906151cc565b9050808511156115fc5760008061156f61156a84896154d4565b6129f8565b604051631594b05b60e01b8152909850919350915073__$ec217c54da363a68ad871e6868efec481c$__90631594b05b906115b69087908790879087908c9060040161520e565b602060405180830381865af41580156115d3573d6000803e3d6000fd5b505050506040513d601f19601f820116820180604052508101906115f791906151cc565b925050505b60006116088683612a13565b90508015611624576116246001600160a01b03841685836124c1565b60408051878152602081018390529081018390527f21b38dd19808c509ae6afc969adfaf7d35fe949c37abd493b963cf9b68cc1acb9060600160405180910390a150505050919050565b6043805461167b90615302565b80601f01602080910402602001604051908101604052809291908181526020018280546116a790615302565b80156116f45780601f106116c9576101008083540402835291602001916116f4565b820191906000526020600020905b8154815290600101906020018083116116d757829003601f168201915b505050505081565b73__$ec217c54da363a68ad871e6868efec481c$__63493f6edc61171e6123b9565b6040518263ffffffff1660e01b815260040161173a9190614e5b565b60006040518083038186803b15801561175257600080fd5b505af4158015611766573d6000803e3d6000fd5b50505050611772612a2b565b603d546040516370a0823160e01b81526001600160a01b039091169060009082906370a08231906117a7903090600401614e5b565b602060405180830381865afa1580156117c4573d6000803e3d6000fd5b505050506040513d601f19601f820116820180604052508101906117e891906151cc565b603e54909150611805906001600160a01b038481169116836124c1565b7ff779df072f94d207563b1ba8c286814086f1e6bb436a2652e307dccc56ed79e833826040516109ef92919061523e565b73__$ec217c54da363a68ad871e6868efec481c$__63493f6edc6118586123b9565b6040518263ffffffff1660e01b81526004016118749190614e5b565b60006040518083038186803b15801561188c57600080fd5b505af41580156118a0573d6000803e3d6000fd5b5050505080604390816118b3919061538a565b507f13bdeb5b5bb760c04b92d93e56c576c6805359d41a13d3cca178aa7c8526b984816040516118e39190614edc565b60405180910390a150565b73__$ec217c54da363a68ad871e6868efec481c$__63493f6edc6119106123b9565b6040518263ffffffff1660e01b815260040161192c9190614e5b565b60006040518083038186803b15801561194457600080fd5b505af4158015611958573d6000803e3d6000fd5b50505050620186a08111156040518060400160405280600f81526020016e53423a2057726f6e672076616c756560881b815250906119a95760405162461bcd60e51b8152600401610bb89190614edc565b5060728190556040518181527fe4166dfcf23bbd3e3f764a99dc8fa740554c03c82d6019b81cf265f396f6f2fe906020016118e3565b600061072861117560017f22573091f17911fb166032a3d9e0554aa73d31b7b7ddea4a4dd2995650af84bd6154d4565b6000611a196123b9565b60405163124fdbb760e21b815290915073__$ec217c54da363a68ad871e6868efec481c$__9063493f6edc90611a53908490600401614e5b565b60006040518083038186803b158015611a6b57600080fd5b505af4158015611a7f573d6000803e3d6000fd5b5050600454600160501b90046001600160801b0316159150611aa7905057611aa5612b2e565b505b607054600090819073__$166cd655d2cd990700b75f7db5b5f84c53$__9063b24d8db0906001906001600160a01b031686611ae1606f5490565b6040516001600160e01b031960e087901b16815260048101949094526001600160a01b039283166024850152911660448301526064820152608401600060405180830381865af4158015611b39573d6000803e3d6000fd5b505050506040513d6000823e601f3d908101601f19168201604052611b619190810190615542565b915091508151600203611c8c57611b7782612b40565b50508015611c8c57600354600654600754604051638c64d45560e01b81526001600160a01b0384166004820152600160c81b8404600290810b6024830152600160e01b8504810b6044830152600160a01b90940490930b6064840152608483019190915260a482015273__$166cd655d2cd990700b75f7db5b5f84c53$__90638c64d4559060c401606060405180830381865af4158015611c1c573d6000803e3d6000fd5b505050506040513d601f19601f82011682018060405250810190611c4091906155a4565b600580546001600160801b0319166001600160801b03929092169190911790556004805465ffffffffffff1916630100000062ffffff9384160262ffffff191617929091169190911790555b611066612c3b565b60705460408051808201909152600a81526914d08e8811195b9a595960b21b60208201526000916001600160a01b031690338214611ce55760405162461bcd60e51b8152600401610bb89190614edc565b50600080611cf286612c4f565b915091506000611d0187612cbb565b905085811015611d67576000611d15612d2b565b90508015611d65576000611d2882612d41565b90507faebc771af58936b05e89b0be7d3f9761480181abcd4a649fbdd01753fda169708282604051611d5b9291906155ec565b60405180910390a1505b505b73__$e930d50fb5f4f1298547dbcb2bb0591990$__6399c1fde487848688611d8d6123b9565b603d546040516001600160e01b031960e089901b168152611dc29695949392916001600160a01b03169060719060040161563e565b602060405180830381865af4158015611ddf573d6000803e3d6000fd5b505050506040513d601f19601f82011682018060405250810190611e0391906151cc565b9450611e0d612c3b565b505050505092915050565b60705460408051808201909152600a81526914d08e8811195b9a595960b21b6020820152906001600160a01b03163314611e655760405162461bcd60e51b8152600401610bb89190614edc565b508151815160408051808201909152600d81526c54532d3139206c656e6774687360981b6020820152908214611eae5760405162461bcd60e51b8152600401610bb89190614edc565b50611066612c3b565b600061072861117560017fbfaaa2fb63266ff27c2da975f5894955056f50419af651a81f6c5060581857e46154d4565b607054604051635ca1bcdf60e01b8152600160048201526001600160a01b03909116602482015260009073__$166cd655d2cd990700b75f7db5b5f84c53$__90635ca1bcdf906044015b602060405180830381865af4158015611f4e573d6000803e3d6000fd5b505050506040513d601f19601f82011682018060405250810190610728919061568d565b603e5460405163201de59f60e01b815260009173__$ec217c54da363a68ad871e6868efec481c$__9163201de59f91611fb9916001600160a01b0390911690600401614e5b565b60006040518083038186803b158015611fd157600080fd5b505af4158015611fe5573d6000803e3d6000fd5b5050603d546040516370a0823160e01b8152600093506001600160a01b0390911691506370a082319061201c903090600401614e5b565b602060405180830381865afa158015612039573d6000803e3d6000fd5b505050506040513d601f19601f8201168201806040525081019061205d91906151cc565b905080156120725761206f8184612efb565b91505b6040518181527f94bcfc9a8eba5229c2956ccb1858733fce588bc02145ac053c40b9827a33837f9060200160405180910390a15092915050565b60006120b66123b9565b6001600160a01b0316826001600160a01b0316149050919050565b60035460408051808201909152601a81527f5533532d3131204e6f742063616c6c6261636b2063616c6c65720000000000006020820152906001600160a01b031633146121315760405162461bcd60e51b8152600401610bb89190614edc565b50831561217f5760045461217f9033908690600160481b900460ff16612162576001546001600160a01b031661216f565b6002546001600160a01b03165b6001600160a01b031691906124c1565b8215611066576004546110669033908590600160481b900460ff166121af576002546001600160a01b031661216f565b6001546001600160a01b031691906124c1565b604051631a2d761b60e11b815260016004820152600090819073__$166cd655d2cd990700b75f7db5b5f84c53$__9063345aec36906024016040805180830381865af4158015612216573d6000803e3d6000fd5b505050506040513d601f19601f8201168201806040525081019061132f91906156aa565b73__$ec217c54da363a68ad871e6868efec481c$__63ac1d8b3561225c6123b9565b6040518263ffffffff1660e01b81526004016122789190614e5b565b60006040518083038186803b15801561229057600080fd5b505af41580156122a4573d6000803e3d6000fd5b50505050620186a08111156040518060400160405280600c81526020016b0a6847440a8dede40d0d2ced60a31b815250906122f25760405162461bcd60e51b8152600401610bb89190614edc565b50603f5460408051918252602082018390527f89979f75740477f1609671a960c1f57e40a47e58bdf1623bc683d806fb6407e5910160405180910390a1603f55565b6000816001600160a01b03166123486123b9565b6001600160a01b0316635aa6e6756040518163ffffffff1660e01b8152600401602060405180830381865afa158015612385573d6000803e3d6000fd5b505050506040513d601f19601f820116820180604052508101906123a9919061526d565b6001600160a01b03161492915050565b600061072861117560017f5165972ef41194f06c5007493031d0b927c20741adcb74403b954009fd2c36186154d4565b60095460035460048054604051632beacd5760e11b815260ff9094161515918401919091526001600160a01b0382166024840152600160c81b8204600290810b6044850152600160e01b8304810b6064850152600160a01b909204820b6084840152600160301b9004900b60a482015260009073__$166cd655d2cd990700b75f7db5b5f84c53$__906357d59aae9060c401611f31565b60006001600160e01b0319821663c19fa56160e01b1480610752575061075282612f9e565b60008060006124b5600019612fd3565b91959094509092509050565b6125178363a9059cbb60e01b84846040516024016124e092919061523e565b60408051601f198184030181529190526020810180516001600160e01b03166001600160e01b031990931692909217909152613508565b505050565b600054610100900460ff166125435760405162461bcd60e51b8152600401610bb8906156ce565b60408051808201909152601181527054532d31207a65726f206164647265737360781b60208201526001600160a01b0384166125925760405162461bcd60e51b8152600401610bb89190614edc565b50600380546001600160a01b0319166001600160a01b038581169182179092556004805468ffffff0000000000001916600160301b62ffffff861602178155604051630175022560e21b815290810191909152600284810b602483015283900b6044820152908516606482015273__$166cd655d2cd990700b75f7db5b5f84c53$__906305d408949060840160c060405180830381865af415801561263b573d6000803e3d6000fd5b505050506040513d601f19601f8201168201806040525081019061265f9190615719565b60048054911515600160481b0260ff60481b19909216919091179055600280546001600160a01b039283166001600160a01b031991821617909155600180549390921692169190911790556003805462ffffff948516600160a01b0262ffffff60a01b19948616600160c81b0262ffffff60c81b1996909416600160e01b029590951665ffffffffffff60c81b1990911617919091179190911691909117905550505050565b600054610100900460ff1661272c5760405162461bcd60e51b8152600401610bb8906156ce565b61273683836135da565b607080546001600160a01b0319166001600160a01b03831617905561275f6064620186a0615792565b6072557fe4166dfcf23bbd3e3f764a99dc8fa740554c03c82d6019b81cf265f396f6f2fe6127916064620186a0615792565b60405190815260200160405180910390a1505050565b603d54600090819081906127c3906001600160a01b0316612c4f565b9150915073__$e930d50fb5f4f1298547dbcb2bb0591990$__63c9bce690836127f26127ed612d2b565b6137a2565b6070546040516001600160e01b031960e086901b16815261282593929187916001600160a01b03909116906004016157b4565b602060405180830381865af4158015612842573d6000803e3d6000fd5b505050506040513d601f19601f8201168201806040525081019061286691906151cc565b9250505090565b606080600080600061287d61387c565b607054929550909350915073__$8f1afe7577f9ab973017c74eca19b86f3c$__9063e99de4da906001600160a01b03166128b5613a64565b8686866040518663ffffffff1660e01b81526004016128d89594939291906157fb565b600060405180830381865af41580156128f5573d6000803e3d6000fd5b505050506040513d6000823e601f3d908101601f1916820160405261291d9190810190615859565b90969095509350505050565b606f5460009081908161293a612c3b565b90506129498282600080613af8565b9094509250600080600061295b613b43565b9194509250905061296c83886151fb565b965061297882876151fb565b95508780156129a15750620186a0846072546129949190615913565b61299e9190615792565b81115b156129ee576129b1816000612efb565b506129e86129bf82866151fb565b603d546129d4906001600160a01b0316612cbb565b606f546129e191906151fb565b8989613af8565b90975095505b5050505050915091565b6000806000612a0684612fd3565b9196909550909350915050565b6000818310612a225781612a24565b825b9392505050565b6000612a35612b2e565b90507f768a28cb3459382a3d2173feb2dad0235f8de680b109872da581a3aa269fe5f481604051612a66919061592a565b60405180910390a1603d546000908190612a88906001600160a01b0316612c4f565b607054919350915073__$e930d50fb5f4f1298547dbcb2bb0591990$__906358b54f16906001600160a01b0316612ac5612ac06123b9565b613c13565b846071600019886040518763ffffffff1660e01b8152600401612aed9695949392919061593d565b602060405180830381865af4158015612b0a573d6000803e3d6000fd5b505050506040513d601f19601f82011682018060405250810190611eae91906151cc565b6060610728612b3b612d2b565b612d41565b60035460048054604051638008936760e01b815260609360009373__$166cd655d2cd990700b75f7db5b5f84c53$__93638008936793612bc2936001600160a01b03811693600160c81b8204600290810b94600160e01b909304900b928b92600160501b81046001600160801b031692600160481b90910460ff169101615986565b600060405180830381865af4158015612bdf573d6000803e3d6000fd5b505050506040513d6000823e601f3d908101601f19168201604052612c0791908101906159dc565b600480546001600160801b03909216600160501b02600160501b600160d01b03199092169190911790559094909350915050565b6000612c456127a7565b606f819055919050565b60606000612c5b613a64565b9150612c678284613c77565b90506000198114156040518060400160405280600f81526020016e53423a2057726f6e672076616c756560881b81525090612cb55760405162461bcd60e51b8152600401610bb89190614edc565b50915091565b6040516370a0823160e01b81526000906001600160a01b038316906370a0823190612cea903090600401614e5b565b602060405180830381865afa158015612d07573d6000803e3d6000fd5b505050506040513d601f19601f8201168201806040525081019061075291906151cc565b600454600160501b90046001600160801b031690565b6060600080612d4e6121c2565b915091508160016005016000828254612d6791906151fb565b909155505060078054829190600090612d819084906151fb565b9250508190555073__$166cd655d2cd990700b75f7db5b5f84c53$__6333fdd81d600160020160009054906101000a90046001600160a01b0316600160020160199054906101000a900460020b6001600201601c9054906101000a900460020b600160030160009054906101000a900460020b600160030160039054906101000a900460020b6001600301600a9054906101000a90046001600160801b0316600160040160009054906101000a90046001600160801b03168c600160030160099054906101000a900460ff166040518a63ffffffff1660e01b8152600401612e7199989796959493929190615a29565b600060405180830381865af4158015612e8e573d6000803e3d6000fd5b505050506040513d6000823e601f3d908101601f19168201604052612eb69190810190615a88565b600580546001600160801b0319166001600160801b0392831617905560048054600160501b600160d01b031916600160501b9390921692909202179055949350505050565b60095460009060ff1615612f8d576040805160028082526060820183526000926020830190803683370190505090508381600081518110612f3e57612f3e615257565b6020026020010181815250507f59400c8c523464b521238ea8f50e923f2bc64663557e6afec92a97f7efe92d058182604051612f7b929190615ace565b60405180910390a16000915050610752565b612f978383613cd5565b9050610752565b60006001600160e01b0319821663b7b79fa960e01b148061075257506301ffc9a760e01b6001600160e01b0319831614610752565b6000806000612fe184613e16565b61305e604051806101c0016040528060001515815260200160008152602001606081526020016000815260200160008152602001600081526020016000815260200160608152602001600081526020016060815260200160008152602001600081526020016060815260200160006001600160a01b031681525090565b6000198514815261306f6001613e6e565b602083019190915281519092508061308657508415155b80156130955750602081015115155b156134f4576130a2613a64565b6101808201819052603d546001600160a01b039081166101a08401819052607054909116916000916130d49190613c77565b905060006130e6846101a00151612cbb565b90506130f0613eb7565b60408501526130fd612d2b565b606085015261310a612d2b565b60808501526101a0840151604051637a55caf360e01b81526001600160a01b038086166004830152909116602482015273__$e930d50fb5f4f1298547dbcb2bb0591990$__90637a55caf390604401602060405180830381865af4158015613176573d6000803e3d6000fd5b505050506040513d601f19601f8201168201806040525081019061319a91906151cc565b60c0850152835173__$8f1afe7577f9ab973017c74eca19b86f3c$__9063ec0cc4fd906131c757896131ca565b60005b3087610180015186888a602001518b608001516040518863ffffffff1660e01b81526004016131ff9796959493929190615afc565b600060405180830381865af415801561321c573d6000803e3d6000fd5b505050506040513d6000823e601f3d908101601f191682016040526132449190810190615b4b565b60e086015260a085018190521561336c5760006132648560a00151612d41565b905061326e612d2b565b856080015161327d91906154d4565b60a086018190526040517faebc771af58936b05e89b0be7d3f9761480181abcd4a649fbdd01753fda16970916132b49184906155ec565b60405180910390a173__$e930d50fb5f4f1298547dbcb2bb0591990$__637a9a23e5858761018001518689604001518a60a001518b606001518c60e00151896040518963ffffffff1660e01b8152600401613316989796959493929190615b87565b600060405180830381865af4158015613333573d6000803e3d6000fd5b505050506040513d6000823e601f3d908101601f1916820160405261335b9190810190615c09565b60e0870152610120860152506133fd565b61018084015160e0850151604051636138ea8560e01b815273__$e930d50fb5f4f1298547dbcb2bb0591990$__92636138ea85926133b1928892918891600401615c55565b600060405180830381865af41580156133ce573d6000803e3d6000fd5b505050506040513d6000823e601f3d908101601f191682016040526133f69190810190615c91565b6101208501525b613419846101800151838660e00151868c896101200151613f32565b846101000181815161342b91906151fb565b905250613436612c3b565b6101408501526101a084015161344b90612cbb565b61016085015260208401516134619082906151fb565b84610160015185610140015161347791906151fb565b10156134ba5783610160015184610140015161349391906151fb565b8185602001516134a391906151fb565b6134ad91906154d4565b6134b790866151fb565b94505b670de0b6b3a76400008460c001518561010001516134d89190615913565b6134e29190615792565b8460c001519650965050505050613501565b6000806000935093509350505b9193909250565b600061355d826040518060400160405280602081526020017f5361666545524332303a206c6f772d6c6576656c2063616c6c206661696c6564815250856001600160a01b03166141379092919063ffffffff16565b805190915015612517578080602001905181019061357b919061568d565b6125175760405162461bcd60e51b815260206004820152602a60248201527f5361666545524332303a204552433230206f7065726174696f6e20646964206e6044820152691bdd081cdd58d8d9595960b21b6064820152608401610bb8565b600054610100900460ff166136015760405162461bcd60e51b8152600401610bb8906156ce565b61362b817fd2de0374d4479f33e63ae5ed6ca772a10463dd883a90c612050b51fab619640061414e565b613634826141a4565b60405163b429afeb60e01b81526001600160a01b0382169063b429afeb90613660908590600401614e5b565b602060405180830381865afa15801561367d573d6000803e3d6000fd5b505050506040513d601f19601f820116820180604052508101906136a1919061568d565b6040518060400160405280600f81526020016e53423a2057726f6e672076616c756560881b815250906136e75760405162461bcd60e51b8152600401610bb89190614edc565b50806001600160a01b03166338d52e0f6040518163ffffffff1660e01b8152600401602060405180830381865afa158015613726573d6000803e3d6000fd5b505050506040513d601f19601f8201168201806040525081019061374a919061526d565b603d80546001600160a01b039283166001600160a01b031991821617909155603e80549390921692811692909217905560418054909116739cc199d4353b5fb3e6c8eebc99f5139e0d8ea06b17905550612710604255565b6003546004805460055460405163c68bc70360e01b815260609473__$166cd655d2cd990700b75f7db5b5f84c53$__9463c68bc70394613837946001600160a01b03841694600160c81b8504600290810b95600160e01b9004810b9484820b946301000000810490920b93600160501b83046001600160801b03908116949116928e92600160481b90910460ff169101615a29565b600060405180830381865af4158015613854573d6000803e3d6000fd5b505050506040513d6000823e601f3d908101601f191682016040526107529190810190615c91565b604080516002808252606082810190935282918291816020016020820280368337505060015482519295506001600160a01b0316918591506000906138c3576138c3615257565b6001600160a01b0392831660209182029290920101526002548451911690849060019081106138f4576138f4615257565b60200260200101906001600160a01b031690816001600160a01b03168152505073__$166cd655d2cd990700b75f7db5b5f84c53$__63052a8899600160020160009054906101000a90046001600160a01b0316600160020160199054906101000a900460020b6001600201601c9054906101000a900460020b600160030160009054906101000a900460020b600160030160039054906101000a900460020b600160050154600160060154600160030160099054906101000a900460ff168c6001600301600a9054906101000a90046001600160801b0316600160040160009054906101000a90046001600160801b03166040518c63ffffffff1660e01b8152600401613a0b9b9a99989796959493929190615cc5565b600060405180830381865af4158015613a28573d6000803e3d6000fd5b505050506040513d6000823e601f3d908101601f19168201604052613a509190810190615c09565b600060068190556007559394909392509050565b6040805160028082526060808301845292602083019080368337505060015482519293506001600160a01b031691839150600090613aa457613aa4615257565b6001600160a01b039283166020918202929092010152600254825191169082906001908110613ad557613ad5615257565b60200260200101906001600160a01b031690816001600160a01b03168152505090565b60008085851115613b1e57613b0d86866154d4565b613b1790856151fb565b9350613b35565b613b2885876154d4565b613b3290846151fb565b92505b509194909350915050565b50565b60405163232421d960e01b8152600160048201526000908190819073__$166cd655d2cd990700b75f7db5b5f84c53$__9063232421d990602401602060405180830381865af4158015613b9a573d6000803e3d6000fd5b505050506040513d601f19601f82011682018060405250810190613bbe91906151cc565b9250600080613bcb61286d565b91509150613bd982826143c7565b60085415613bed5760088054600090915593505b603d5485908590613c06906001600160a01b0316612cbb565b9450945094505050909192565b6000816001600160a01b0316634046ebae6040518163ffffffff1660e01b8152600401602060405180830381865afa158015613c53573d6000803e3d6000fd5b505050506040513d601f19601f82011682018060405250810190610752919061526d565b8151600090815b81811015613cc957836001600160a01b0316858281518110613ca257613ca2615257565b60200260200101516001600160a01b031603613cc15791506107529050565b600101613c7e565b50600019949350505050565b600080613ce183613e6e565b607254909350909150620186a090613cfa908390615913565b613d049190615792565b841115613e0f57603d546001600160a01b03166000613d2282612cbb565b603d549091506000908190613d3f906001600160a01b0316612c4f565b6070549193509150600090613d5f906001600160a01b03168a8585614467565b90506000613d6c82612b40565b5090507f59400c8c523464b521238ea8f50e923f2bc64663557e6afec92a97f7efe92d058282604051613da0929190615ace565b60405180910390a16000613db2612c3b565b90506000613dbf88612cbb565b9050613dcb878a6151fb565b613dd582846151fb565b1015613e0657613de581836151fb565b613def888b6151fb565b613df991906154d4565b613e03908b6151fb565b99505b50505050505050505b5092915050565b613e1e6123e9565b15604051806040016040528060148152602001735533532d31204e65656420726562616c616e636560601b81525090613e6a5760405162461bcd60e51b8152600401610bb89190614edc565b5050565b606f54600090819083613e815780613e89565b613e89612c3b565b925083613e97576000613eaf565b808310613ea5576000613eaf565b613eaf83826154d4565b915050915091565b604051630a65e5e760e01b81526001600482015260609073__$166cd655d2cd990700b75f7db5b5f84c53$__90630a65e5e790602401600060405180830381865af4158015613f0a573d6000803e3d6000fd5b505050506040513d6000823e601f3d908101601f191682016040526107289190810190615c91565b6000805b8751811015613f6e57828181518110613f5157613f51615257565b602002602001015182613f6491906151fb565b9150600101613f36565b506000613f7c612ac06123b9565b90506000198414158015613fb25750620186a0613f9b816103e86151fb565b613fa59086615913565b613faf9190615792565b82115b156140825773__$e930d50fb5f4f1298547dbcb2bb0591990$__632c4cf7a386838a607160008e8e81518110613fea57613fea615257565b60200260200101516001600160a01b03166001600160a01b03168152602001908152602001600020548d8c6040518763ffffffff1660e01b815260040161403696959493929190615d4e565b600060405180830381865af4158015614053573d6000803e3d6000fd5b505050506040513d6000823e601f3d908101601f1916820160405261407b9190810190615b4b565b505061412c565b82878151811061409457614094615257565b602002602001015173__$e930d50fb5f4f1298547dbcb2bb0591990$__6358b54f1687848b60718a8f6040518763ffffffff1660e01b81526004016140de9695949392919061593d565b602060405180830381865af41580156140fb573d6000803e3d6000fd5b505050506040513d601f19601f8201168201806040525081019061411f91906151cc565b61412991906151fb565b91505b509695505050505050565b606061414684846000856146a0565b949350505050565b614158828261477b565b613e6a5760405162461bcd60e51b815260206004820152601a60248201527f496e74657266616365206973206e6f7420737570706f727465640000000000006044820152606401610bb8565b600054610100900460ff166141cb5760405162461bcd60e51b8152600401610bb8906156ce565b6001600160a01b0381166142135760405162461bcd60e51b815260206004820152600f60248201526e2d32b9379031b7b73a3937b63632b960891b6044820152606401610bb8565b61423d817f4c2403fdcb3cff9b705d96bf0705858e3390412670a62c8bcba611ca7e20ab8661414e565b60006001600160a01b0316816001600160a01b0316635aa6e6756040518163ffffffff1660e01b8152600401602060405180830381865afa158015614286573d6000803e3d6000fd5b505050506040513d601f19601f820116820180604052508101906142aa919061526d565b6001600160a01b0316036142f25760405162461bcd60e51b815260206004820152600f60248201526e5a65726f20676f7665726e616e636560881b6044820152606401610bb8565b614321816113f260017f5165972ef41194f06c5007493031d0b927c20741adcb74403b954009fd2c36186154d4565b614350426113f260017f6f55f470bdc9cb5f04223fd822021061668e4dccb43e8727b295106dc9769c8b6154d4565b61437f436113f260017f812a673dfca07956350df10f8a654925f561d7a0da09bdbe79e653939a14d9f16154d4565b604080516001600160a01b038316815242602082015243918101919091527f1a2dd071001ebf6e03174e3df5b305795a4ad5d41d8fdb9ba41dbbe236713426906060016118e3565b815180156125175760006143db8484614859565b905073__$8f1afe7577f9ab973017c74eca19b86f3c$__63acf741a36143ff6123b9565b603e546040516001600160e01b031960e085901b16815261443192916001600160a01b03169089908790600401615da7565b60006040518083038186803b15801561444957600080fd5b505af415801561445d573d6000803e3d6000fd5b5050505050505050565b60606144716123e9565b15604051806040016040528060148152602001735533532d31204e65656420726562616c616e636560601b815250906144bd5760405162461bcd60e51b8152600401610bb89190614edc565b506040805160028082526060820183529091602083019080368337019050506003546004805460405163a1d4398960e01b81526001600160a01b03841692810192909252600160c81b8304600290810b6024840152600160e01b90930490920b6044820152600160481b90910460ff1615156064820152909150600090819073__$166cd655d2cd990700b75f7db5b5f84c53$__9063a1d4398990608401600060405180830381865af4158015614578573d6000803e3d6000fd5b505050506040513d6000823e601f3d908101601f191682016040526145a091908101906152ba565b6001549091506145ba906001600160a01b03168789614a04565b60015460025460405163ca27d10d60e01b815273__$e930d50fb5f4f1298547dbcb2bb0591990$__9263ca27d10d9261460d928c9287926001600160a01b03918216929116908d90600090600401615de5565b6040805180830381865af4158015614629573d6000803e3d6000fd5b505050506040513d601f19601f8201168201806040525081019061464d91906156aa565b8460018151811061466057614660615257565b6020908102919091010152915061467782876154d4565b8360008151811061468a5761468a615257565b6020026020010181815250505050949350505050565b6060824710156147015760405162461bcd60e51b815260206004820152602660248201527f416464726573733a20696e73756666696369656e742062616c616e636520666f6044820152651c8818d85b1b60d21b6064820152608401610bb8565b600080866001600160a01b0316858760405161471d9190615e2d565b60006040518083038185875af1925050503d806000811461475a576040519150601f19603f3d011682016040523d82523d6000602084013e61475f565b606091505b509150915061477087838387614aaa565b979650505050505050565b60006001600160a01b0383166147c25760405162461bcd60e51b815260206004820152600c60248201526b5a65726f206164647265737360a01b6044820152606401610bb8565b823b60008190036147d7576000915050610752565b6040516301ffc9a760e01b81526001600160e01b0319841660048201526001600160a01b038516906301ffc9a790602401602060405180830381865afa925050508015614841575060408051601f3d908101601f1916820190925261483e9181019061568d565b60015b1561484f5791506107529050565b5060009392505050565b603d54607054603f546060926001600160a01b039081169260009273__$e930d50fb5f4f1298547dbcb2bb0591990$__9263ef50284f921690859061489c613a64565b6148a7612ac06123b9565b60718c8c6042546040518a63ffffffff1660e01b81526004016148d299989796959493929190615e49565b600060405180830381865af41580156148ef573d6000803e3d6000fd5b505050506040513d6000823e601f3d908101601f191682016040526149179190810190615ecd565b603e546041546040516323f5a0c560e21b81526001600160a01b038088166004830152602482018590529283166044820152911660648201529194509150600090819073__$8f1afe7577f9ab973017c74eca19b86f3c$__90638fd68314906084016040805180830381865af4158015614995573d6000803e3d6000fd5b505050506040513d601f19601f820116820180604052508101906149b991906156aa565b915091507f4c300a656bfa0935e36cd55e92634bc20b2b7e0a0ebf424a2a25bfaac3a01e76878684846040516149f29493929190615f13565b60405180910390a15050505092915050565b604051636eb1769f60e11b81523060048201526001600160a01b03828116602483015283919085169063dd62ed3e90604401602060405180830381865afa158015614a53573d6000803e3d6000fd5b505050506040513d601f19601f82011682018060405250810190614a7791906151cc565b101561251757614a926001600160a01b038416826000614b23565b6125176001600160a01b03841682600160ff1b614b23565b60608315614b19578251600003614b12576001600160a01b0385163b614b125760405162461bcd60e51b815260206004820152601d60248201527f416464726573733a2063616c6c20746f206e6f6e2d636f6e74726163740000006044820152606401610bb8565b5081614146565b6141468383614c27565b801580614b9d5750604051636eb1769f60e11b81523060048201526001600160a01b03838116602483015284169063dd62ed3e90604401602060405180830381865afa158015614b77573d6000803e3d6000fd5b505050506040513d601f19601f82011682018060405250810190614b9b91906151cc565b155b614c085760405162461bcd60e51b815260206004820152603660248201527f5361666545524332303a20617070726f76652066726f6d206e6f6e2d7a65726f60448201527520746f206e6f6e2d7a65726f20616c6c6f77616e636560501b6064820152608401610bb8565b6125178363095ea7b360e01b84846040516024016124e092919061523e565b815115614c375781518083602001fd5b8060405162461bcd60e51b8152600401610bb89190614edc565b600060208284031215614c6357600080fd5b81356001600160e01b031981168114612a2457600080fd5b6001600160a01b0381168114613b4057600080fd5b60008060408385031215614ca357600080fd5b8235614cae81614c7b565b946020939093013593505050565b600081518084526020808501945080840160005b83811015614cec57815187529582019590820190600101614cd0565b509495945050505050565b6001600160a01b038c811682528b811660208301528a166040820152600289810b606083015288810b608083015287810b60a083015286900b60c08201526001600160801b03851660e082015283151561010082015261012081018390526101606101408201819052600090614d6f83820185614cbc565b9e9d5050505050505050505050505050565b60008060408385031215614d9457600080fd5b823591506020830135614da681614c7b565b809150509250929050565b8060020b8114613b4057600080fd5b60008060008060008060c08789031215614dd957600080fd5b8635614de481614c7b565b95506020870135614df481614c7b565b94506040870135614e0481614c7b565b93506060870135614e1481614c7b565b92506080870135614e2481614db1565b915060a0870135614e3481614db1565b809150509295509295509295565b600060208284031215614e5457600080fd5b5035919050565b6001600160a01b0391909116815260200190565b600060208284031215614e8157600080fd5b8135612a2481614c7b565b60005b83811015614ea7578181015183820152602001614e8f565b50506000910152565b60008151808452614ec8816020860160208601614e8c565b601f01601f19169290920160200192915050565b602081526000612a246020830184614eb0565b634e487b7160e01b600052604160045260246000fd5b604051601f8201601f191681016001600160401b0381118282101715614f2d57614f2d614eef565b604052919050565b60006001600160401b03821115614f4e57614f4e614eef565b50601f01601f191660200190565b600060208284031215614f6e57600080fd5b81356001600160401b03811115614f8457600080fd5b8201601f81018413614f9557600080fd5b8035614fa8614fa382614f35565b614f05565b818152856020838501011115614fbd57600080fd5b81602084016020830137600091810160200191909152949350505050565b60006001600160401b03821115614ff457614ff4614eef565b5060051b60200190565b600082601f83011261500f57600080fd5b8135602061501f614fa383614fdb565b82815260059290921b8401810191818101908684111561503e57600080fd5b8286015b8481101561412c5780358352918301918301615042565b6000806040838503121561506c57600080fd5b82356001600160401b038082111561508357600080fd5b818501915085601f83011261509757600080fd5b813560206150a7614fa383614fdb565b82815260059290921b840181019181810190898411156150c657600080fd5b948201945b838610156150ed5785356150de81614c7b565b825294820194908201906150cb565b9650508601359250508082111561510357600080fd5b5061511085828601614ffe565b9150509250929050565b8015158114613b4057600080fd5b6000806040838503121561513b57600080fd5b823591506020830135614da68161511a565b6000806000806060858703121561516357600080fd5b843593506020850135925060408501356001600160401b038082111561518857600080fd5b818701915087601f83011261519c57600080fd5b8135818111156151ab57600080fd5b8860208285010111156151bd57600080fd5b95989497505060200194505050565b6000602082840312156151de57600080fd5b5051919050565b634e487b7160e01b600052601160045260246000fd5b80820180821115610752576107526151e5565b6001600160a01b039586168152602081019490945260408401929092526060830152909116608082015260a00190565b6001600160a01b03929092168252602082015260400190565b634e487b7160e01b600052603260045260246000fd5b60006020828403121561527f57600080fd5b8151612a2481614c7b565b6000615298614fa384614f35565b90508281528383830111156152ac57600080fd5b612a24836020830184614e8c565b6000602082840312156152cc57600080fd5b81516001600160401b038111156152e257600080fd5b8201601f810184136152f357600080fd5b6141468482516020840161528a565b600181811c9082168061531657607f821691505b60208210810361533657634e487b7160e01b600052602260045260246000fd5b50919050565b601f82111561251757600081815260208120601f850160051c810160208610156153635750805b601f850160051c820191505b818110156153825782815560010161536f565b505050505050565b81516001600160401b038111156153a3576153a3614eef565b6153b7816153b18454615302565b8461533c565b602080601f8311600181146153ec57600084156153d45750858301515b600019600386901b1c1916600185901b178555615382565b600085815260208120601f198616915b8281101561541b578886015182559484019460019091019084016153fc565b50858210156154395787850151600019600388901b60f8161c191681555b5050505050600190811b01905550565b600060208083526000845461545d81615302565b8084870152604060018084166000811461547e5760018114615498576154c6565b60ff1985168984015283151560051b8901830195506154c6565b896000528660002060005b858110156154be5781548b82018601529083019088016154a3565b8a0184019650505b509398975050505050505050565b81810381811115610752576107526151e5565b600082601f8301126154f857600080fd5b81516020615508614fa383614fdb565b82815260059290921b8401810191818101908684111561552757600080fd5b8286015b8481101561412c578051835291830191830161552b565b6000806040838503121561555557600080fd5b82516001600160401b0381111561556b57600080fd5b615577858286016154e7565b9250506020830151614da68161511a565b80516001600160801b038116811461559f57600080fd5b919050565b6000806000606084860312156155b957600080fd5b83516155c481614db1565b60208501519093506155d581614db1565b91506155e360408501615588565b90509250925092565b8281526040602082015260006141466040830184614cbc565b600081518084526020808501945080840160005b83811015614cec5781516001600160a01b031687529582019590820190600101615619565b87815286602082015260e06040820152600061565d60e0830188615605565b6001600160a01b0396871660608401529486166080830152509190931660a082015260c001919091529392505050565b60006020828403121561569f57600080fd5b8151612a248161511a565b600080604083850312156156bd57600080fd5b505080516020909101519092909150565b6020808252602b908201527f496e697469616c697a61626c653a20636f6e7472616374206973206e6f74206960408201526a6e697469616c697a696e6760a81b606082015260800190565b60008060008060008060c0878903121561573257600080fd5b865161573d81614db1565b602088015190965061574e81614db1565b604088015190955061575f81614db1565b606088015190945061577081614c7b565b608088015190935061578181614c7b565b60a0880151909250614e348161511a565b6000826157af57634e487b7160e01b600052601260045260246000fd5b500490565b6080815260006157c76080830187615605565b82810360208401526157d98187614cbc565b604084019590955250506001600160a01b039190911660609091015292915050565b6001600160a01b038616815260a06020820181905260009061581f90830187615605565b82810360408401526158318187615605565b905082810360608401526158458186614cbc565b905082810360808401526141298185614cbc565b6000806040838503121561586c57600080fd5b82516001600160401b038082111561588357600080fd5b818501915085601f83011261589757600080fd5b815160206158a7614fa383614fdb565b82815260059290921b840181019181810190898411156158c657600080fd5b948201945b838610156158ed5785516158de81614c7b565b825294820194908201906158cb565b9188015191965090935050508082111561590657600080fd5b50615110858286016154e7565b8082028115828204841417610752576107526151e5565b602081526000612a246020830184614cbc565b600060018060a01b03808916835280881660208401525085604083015284606083015283608083015260c060a083015261597a60c0830184615605565b98975050505050505050565b60018060a01b03871681528560020b60208201528460020b604082015260c0606082015260006159b960c0830186614cbc565b6001600160801b039490941660808301525090151560a090910152949350505050565b6000806000606084860312156159f157600080fd5b83516001600160401b03811115615a0757600080fd5b615a13868287016154e7565b935050602084015191506155e360408501615588565b6001600160a01b03999099168952600297880b60208a015295870b604089015293860b60608801529190940b60808601526001600160801b0393841660a0860152831660c085015290911660e083015215156101008201526101200190565b600080600060608486031215615a9d57600080fd5b83516001600160401b03811115615ab357600080fd5b615abf868287016154e7565b9350506155d560208501615588565b604081526000615ae16040830185614cbc565b8281036020840152615af38185614cbc565b95945050505050565b878152600060018060a01b03808916602084015260e06040840152615b2460e0840189615605565b606084019790975294909416608082015260a081019290925260c090910152509392505050565b60008060408385031215615b5e57600080fd5b8251915060208301516001600160401b03811115615b7b57600080fd5b615110858286016154e7565b6001600160a01b038916815261010060208201819052600090615bac8382018b615605565b90508860408401528281036060840152615bc68189614cbc565b90508660808401528560a084015282810360c0840152615be68186614cbc565b905082810360e0840152615bfa8185614cbc565b9b9a5050505050505050505050565b60008060408385031215615c1c57600080fd5b82516001600160401b0380821115615c3357600080fd5b615c3f868387016154e7565b9350602085015191508082111561590657600080fd5b6001600160a01b0385168152608060208201819052600090615c7990830186615605565b84604084015282810360608401526147708185614cbc565b600060208284031215615ca357600080fd5b81516001600160401b03811115615cb957600080fd5b614146848285016154e7565b600061016060018060a01b038e1683528c60020b60208401528b60020b60408401528a60020b60608401528960020b60808401528860a08401528760c084015286151560e084015280610100840152615d2081840187615605565b9150506001600160801b03808516610120840152808416610140840152509c9b505050505050505050505050565b6001600160a01b03878116825286166020820152604081018590526060810184905260c060808201819052600090615d8890830185615605565b82810360a0840152615d9a8185614cbc565b9998505050505050505050565b6001600160a01b03858116825284166020820152608060408201819052600090615dd390830185615605565b82810360608401526147708185614cbc565b600060018060a01b03808916835260c06020840152615e0760c0840189614eb0565b9681166040840152949094166060820152608081019290925260a0909101525092915050565b60008251615e3f818460208701614e8c565b9190910192915050565b6001600160a01b038a8116825289811660208301526040820189905261012060608301819052600091615e7e8483018b615605565b91508089166080850152508660a084015282810360c0840152615ea18187615605565b905082810360e0840152615eb58186614cbc565b915050826101008301529a9950505050505050505050565b60008060408385031215615ee057600080fd5b82516001600160401b03811115615ef657600080fd5b615f02858286016154e7565b925050602083015190509250929050565b6080808252855190820181905260009060209060a0840190828901845b82811015615f555781516001600160a01b031684529284019290840190600101615f30565b50505083810382850152615f698188614cbc565b6040850196909652505050606001529291505056fea264697066735822122028b81fe7b990aae6433646e28a3a74fb0f191e2dcfe000e9ae9d1221131c7c4164736f6c63430008110033",
  "libraries": {
    "StrategyLib": "0x56DCD1d1B26Ae44E6001d73705F99905Eb9850Bc",
    "ConverterStrategyBaseLib": "0x3A986013f2b9772415F7b4433a904ae271688f1B",
    "ConverterStrategyBaseLib2": "0x3488c83887BA65da248d1B4A2776F8E93419c1d3",
    "UniswapV3ConverterStrategyLogicLib": "0x2698E3a5c9D28F5f76BaC988c9476245d5168C71"
  },
  "devdoc": {
    "author": "a17",
    "kind": "dev",
    "methods": {
      "claim()": {
        "details": "Manual claim rewards."
      },
      "created()": {
        "returns": {
          "_0": "Creation timestamp"
        }
      },
      "createdBlock()": {
        "returns": {
          "_0": "Creation block number"
        }
      },
      "doHardWork()": {
        "returns": {
          "earned": "Earned amount in terms of {asset}",
          "lost": "Lost amount in terms of {asset}"
        }
      },
      "emergencyExit()": {
        "details": "In case of any issue operator can withdraw all from pool."
      },
      "getFees()": {
        "returns": {
          "fee0": "and fee1."
        }
      },
      "increaseRevision(address)": {
        "details": "Revision should be increased on each contract upgrade"
      },
      "init(address,address,address,address,int24,int24)": {
        "params": {
          "controller_": "The address of the controller.",
          "converter_": "The address of the converter.",
          "pool_": "The address of the pool.",
          "rebalanceTickRange_": "The tick range for rebalancing.",
          "splitter_": "The address of the splitter.",
          "tickRange_": "The tick range for the liquidity position."
        }
      },
      "investAll(uint256,bool)": {
        "params": {
          "updateTotalAssetsBeforeInvest_": "Recalculate total assets amount before depositing.                                       It can be false if we know exactly, that the amount is already actual."
        },
        "returns": {
          "strategyLoss": "Loss should be covered from Insurance"
        }
      },
      "isController(address)": {
        "details": "Return true if given address is controller"
      },
      "isReadyToHardWork()": {
        "returns": {
          "_0": "A boolean indicating if the strategy is ready for hard work."
        }
      },
      "needRebalance()": {
        "returns": {
          "_0": "A boolean indicating if the strategy needs rebalancing."
        }
      },
      "onTransferAmounts(address[],uint256[])": {
        "params": {
          "amounts_": "Amount of {asset_} that has been sent to the user's balance",
          "assets_": "Any asset sent to the balance, i.e. inside repayTheBorrow"
        }
      },
      "previousImplementation()": {
        "details": "Previous logic implementation"
      },
      "rebalance()": {
        "details": "The rebalancing functionality is the core of this strategy.      Depending on the size of the range of liquidity provided, the Fill-up or Swap method is used.      There is also an attempt to cover rebalancing losses with rewards."
      },
      "requirePayAmountBack(address,uint256)": {
        "params": {
          "amount_": "Required amount of the {theAsset_}",
          "theAsset_": "Required asset (either collateral or borrow)"
        },
        "returns": {
          "amountOut": "Amount sent to balance of TetuConverter, amountOut <= amount_"
        }
      },
      "revision()": {
        "details": "Contract upgrade counter"
      },
      "setCompoundRatio(uint256)": {
        "details": "PlatformVoter can change compound ratio for some strategies.      A strategy can implement another logic for some uniq cases."
      },
      "setFuseThreshold(uint256)": {
        "params": {
          "newFuseThreshold": "The new fuse threshold value."
        }
      },
      "setReinvestThresholdPercent(uint256)": {
        "params": {
          "percent_": "New value of the percent, decimals = {REINVEST_THRESHOLD_PERCENT_DENOMINATOR}"
        }
      },
      "setStrategySpecificName(string)": {
        "details": "The name will be used for UI."
      },
      "supportsInterface(bytes4)": {
        "details": "See {IERC165-supportsInterface}."
      },
      "totalAssets()": {
        "details": "Total amount of underlying assets under control of this strategy."
      },
      "uniswapV3MintCallback(uint256,uint256,bytes)": {
        "params": {
          "amount0Owed": "The amount of token0 owed to the pool.",
          "amount1Owed": "The amount of token1 owed to the pool."
        }
      },
      "withdrawAllToSplitter()": {
        "details": "Withdraws all underlying assets to the vault",
        "returns": {
          "strategyLoss": "Loss should be covered from Insurance"
        }
      },
      "withdrawToSplitter(uint256)": {
        "details": "Withdraws some assets to the splitter",
        "returns": {
          "strategyLoss": "Loss should be covered from Insurance"
        }
      }
    },
    "title": "Delta-neutral liquidity hedging converter fill-up/swap rebalancing strategy for UniswapV3",
    "version": 1
  },
  "userdoc": {
    "events": {
      "Recycle(address[],uint256[],uint256,uint256)": {
        "notice": "Recycle was made"
      }
    },
    "kind": "user",
    "methods": {
      "CONTROLLABLE_VERSION()": {
        "notice": "Version of the contract"
      },
      "NAME()": {
        "notice": "CONSTANTS"
      },
      "capacity()": {
        "notice": "Unlimited capacity by default"
      },
      "controller()": {
        "notice": "Return controller address saved in the contract slot"
      },
      "created()": {
        "notice": "Return creation timestamp"
      },
      "createdBlock()": {
        "notice": "Return creation block number"
      },
      "disableFuse()": {
        "notice": "Disable fuse for the strategy."
      },
      "doHardWork()": {
        "notice": "Do hard work with reinvesting"
      },
      "getFees()": {
        "notice": "Returns the fees for the current state."
      },
      "getState()": {
        "notice": "Returns the current state of the contract."
      },
      "init(address,address,address,address,int24,int24)": {
        "notice": "Initialize the strategy with the given parameters."
      },
      "investAll(uint256,bool)": {
        "notice": "Stakes everything the strategy holds into the reward pool. amount_ Amount transferred to the strategy balance just before calling this function"
      },
      "investedAssets()": {
        "notice": "Amount of underlying assets converted to pool assets and invested to the pool."
      },
      "isGovernance(address)": {
        "notice": "Return true if given address is setup as governance in Controller"
      },
      "isReadyToHardWork()": {
        "notice": "Check if the strategy is ready for hard work."
      },
      "liquidationThresholds(address)": {
        "notice": "Minimum token amounts that can be liquidated"
      },
      "needRebalance()": {
        "notice": "Check if the strategy needs rebalancing."
      },
      "onTransferAmounts(address[],uint256[])": {
        "notice": "TetuConverter calls this function when it sends any amount to user's balance"
      },
      "performanceFee()": {
        "notice": "A percent of total profit that is sent to the {performanceReceiver} before compounding"
      },
      "performanceReceiver()": {
        "notice": "{performanceFee}% of total profit is sent to {performanceReceiver} before compounding"
      },
      "reinvestThresholdPercent()": {
        "notice": "Percent of asset amount that can be not invested, it's allowed to just keep it on balance         decimals = {DENOMINATOR}"
      },
      "requirePayAmountBack(address,uint256)": {
        "notice": "Converters asks to send some amount back."
      },
      "setFuseThreshold(uint256)": {
        "notice": "Set the fuse threshold for the strategy."
      },
      "setupPerformanceFee(uint256,address)": {
        "notice": "Set performance fee and receiver"
      },
      "uniswapV3MintCallback(uint256,uint256,bytes)": {
        "notice": "Callback function called by Uniswap V3 pool on mint operation."
      }
    },
    "notice": "This strategy provides delta-neutral liquidity hedging for Uniswap V3 pools. It rebalances the liquidity         by utilizing fill-up and swap methods depending on the range size of the liquidity provided.         It also attempts to cover rebalancing losses with rewards.",
    "version": 1
  },
  "storageLayout": {
    "storage": [
      {
        "astId": 11689,
        "contract": "contracts/strategies/uniswap/UniswapV3ConverterStrategy.sol:UniswapV3ConverterStrategy",
        "label": "_initialized",
        "offset": 0,
        "slot": "0",
        "type": "t_uint8"
      },
      {
        "astId": 11692,
        "contract": "contracts/strategies/uniswap/UniswapV3ConverterStrategy.sol:UniswapV3ConverterStrategy",
        "label": "_initializing",
        "offset": 1,
        "slot": "0",
        "type": "t_bool"
      },
      {
        "astId": 77266,
        "contract": "contracts/strategies/uniswap/UniswapV3ConverterStrategy.sol:UniswapV3ConverterStrategy",
        "label": "state",
        "offset": 0,
        "slot": "1",
        "type": "t_struct(State)73623_storage"
      },
      {
        "astId": 77841,
        "contract": "contracts/strategies/uniswap/UniswapV3ConverterStrategy.sol:UniswapV3ConverterStrategy",
        "label": "__gap",
        "offset": 0,
        "slot": "12",
        "type": "t_array(t_uint256)49_storage"
      },
      {
        "astId": 16584,
        "contract": "contracts/strategies/uniswap/UniswapV3ConverterStrategy.sol:UniswapV3ConverterStrategy",
        "label": "asset",
        "offset": 0,
        "slot": "61",
        "type": "t_address"
      },
      {
        "astId": 16588,
        "contract": "contracts/strategies/uniswap/UniswapV3ConverterStrategy.sol:UniswapV3ConverterStrategy",
        "label": "splitter",
        "offset": 0,
        "slot": "62",
        "type": "t_address"
      },
      {
        "astId": 16592,
        "contract": "contracts/strategies/uniswap/UniswapV3ConverterStrategy.sol:UniswapV3ConverterStrategy",
        "label": "compoundRatio",
        "offset": 0,
        "slot": "63",
        "type": "t_uint256"
      },
      {
        "astId": 16594,
        "contract": "contracts/strategies/uniswap/UniswapV3ConverterStrategy.sol:UniswapV3ConverterStrategy",
        "label": "__deprecatedSlot1",
        "offset": 0,
        "slot": "64",
        "type": "t_uint256"
      },
      {
        "astId": 16598,
        "contract": "contracts/strategies/uniswap/UniswapV3ConverterStrategy.sol:UniswapV3ConverterStrategy",
        "label": "performanceReceiver",
        "offset": 0,
        "slot": "65",
        "type": "t_address"
      },
      {
        "astId": 16602,
        "contract": "contracts/strategies/uniswap/UniswapV3ConverterStrategy.sol:UniswapV3ConverterStrategy",
        "label": "performanceFee",
        "offset": 0,
        "slot": "66",
        "type": "t_uint256"
      },
      {
        "astId": 16606,
        "contract": "contracts/strategies/uniswap/UniswapV3ConverterStrategy.sol:UniswapV3ConverterStrategy",
        "label": "strategySpecificName",
        "offset": 0,
        "slot": "67",
        "type": "t_string_storage"
      },
      {
        "astId": 17191,
        "contract": "contracts/strategies/uniswap/UniswapV3ConverterStrategy.sol:UniswapV3ConverterStrategy",
        "label": "__gap",
        "offset": 0,
        "slot": "68",
        "type": "t_array(t_uint256)43_storage"
      },
      {
        "astId": 63195,
        "contract": "contracts/strategies/uniswap/UniswapV3ConverterStrategy.sol:UniswapV3ConverterStrategy",
        "label": "_investedAssets",
        "offset": 0,
        "slot": "111",
        "type": "t_uint256"
      },
      {
        "astId": 63199,
        "contract": "contracts/strategies/uniswap/UniswapV3ConverterStrategy.sol:UniswapV3ConverterStrategy",
        "label": "converter",
        "offset": 0,
        "slot": "112",
        "type": "t_contract(ITetuConverter)42554"
      },
      {
        "astId": 63204,
        "contract": "contracts/strategies/uniswap/UniswapV3ConverterStrategy.sol:UniswapV3ConverterStrategy",
        "label": "liquidationThresholds",
        "offset": 0,
        "slot": "113",
        "type": "t_mapping(t_address,t_uint256)"
      },
      {
        "astId": 63207,
        "contract": "contracts/strategies/uniswap/UniswapV3ConverterStrategy.sol:UniswapV3ConverterStrategy",
        "label": "reinvestThresholdPercent",
        "offset": 0,
        "slot": "114",
        "type": "t_uint256"
      },
      {
        "astId": 64637,
        "contract": "contracts/strategies/uniswap/UniswapV3ConverterStrategy.sol:UniswapV3ConverterStrategy",
        "label": "__gap",
        "offset": 0,
        "slot": "115",
        "type": "t_array(t_uint256)46_storage"
      }
    ],
    "types": {
      "t_address": {
        "encoding": "inplace",
        "label": "address",
        "numberOfBytes": "20"
      },
      "t_array(t_uint256)43_storage": {
        "base": "t_uint256",
        "encoding": "inplace",
        "label": "uint256[43]",
        "numberOfBytes": "1376"
      },
      "t_array(t_uint256)46_storage": {
        "base": "t_uint256",
        "encoding": "inplace",
        "label": "uint256[46]",
        "numberOfBytes": "1472"
      },
      "t_array(t_uint256)49_storage": {
        "base": "t_uint256",
        "encoding": "inplace",
        "label": "uint256[49]",
        "numberOfBytes": "1568"
      },
      "t_bool": {
        "encoding": "inplace",
        "label": "bool",
        "numberOfBytes": "1"
      },
      "t_contract(ITetuConverter)42554": {
        "encoding": "inplace",
        "label": "contract ITetuConverter",
        "numberOfBytes": "20"
      },
      "t_contract(IUniswapV3Pool)61171": {
        "encoding": "inplace",
        "label": "contract IUniswapV3Pool",
        "numberOfBytes": "20"
      },
      "t_int24": {
        "encoding": "inplace",
        "label": "int24",
        "numberOfBytes": "3"
      },
      "t_mapping(t_address,t_uint256)": {
        "encoding": "mapping",
        "key": "t_address",
        "label": "mapping(address => uint256)",
        "numberOfBytes": "32",
        "value": "t_uint256"
      },
      "t_string_storage": {
        "encoding": "bytes",
        "label": "string",
        "numberOfBytes": "32"
      },
      "t_struct(State)73623_storage": {
        "encoding": "inplace",
        "label": "struct UniswapV3ConverterStrategyLogicLib.State",
        "members": [
          {
            "astId": 73583,
            "contract": "contracts/strategies/uniswap/UniswapV3ConverterStrategy.sol:UniswapV3ConverterStrategy",
            "label": "tokenA",
            "offset": 0,
            "slot": "0",
            "type": "t_address"
          },
          {
            "astId": 73585,
            "contract": "contracts/strategies/uniswap/UniswapV3ConverterStrategy.sol:UniswapV3ConverterStrategy",
            "label": "tokenB",
            "offset": 0,
            "slot": "1",
            "type": "t_address"
          },
          {
            "astId": 73588,
            "contract": "contracts/strategies/uniswap/UniswapV3ConverterStrategy.sol:UniswapV3ConverterStrategy",
            "label": "pool",
            "offset": 0,
            "slot": "2",
            "type": "t_contract(IUniswapV3Pool)61171"
          },
          {
            "astId": 73590,
            "contract": "contracts/strategies/uniswap/UniswapV3ConverterStrategy.sol:UniswapV3ConverterStrategy",
            "label": "tickSpacing",
            "offset": 20,
            "slot": "2",
            "type": "t_int24"
          },
          {
            "astId": 73592,
            "contract": "contracts/strategies/uniswap/UniswapV3ConverterStrategy.sol:UniswapV3ConverterStrategy",
            "label": "fillUp",
            "offset": 23,
            "slot": "2",
            "type": "t_bool"
          },
          {
            "astId": 73594,
            "contract": "contracts/strategies/uniswap/UniswapV3ConverterStrategy.sol:UniswapV3ConverterStrategy",
            "label": "isStablePool",
            "offset": 24,
            "slot": "2",
            "type": "t_bool"
          },
          {
            "astId": 73596,
            "contract": "contracts/strategies/uniswap/UniswapV3ConverterStrategy.sol:UniswapV3ConverterStrategy",
            "label": "lowerTick",
            "offset": 25,
            "slot": "2",
            "type": "t_int24"
          },
          {
            "astId": 73598,
            "contract": "contracts/strategies/uniswap/UniswapV3ConverterStrategy.sol:UniswapV3ConverterStrategy",
            "label": "upperTick",
            "offset": 28,
            "slot": "2",
            "type": "t_int24"
          },
          {
            "astId": 73600,
            "contract": "contracts/strategies/uniswap/UniswapV3ConverterStrategy.sol:UniswapV3ConverterStrategy",
            "label": "lowerTickFillup",
            "offset": 0,
            "slot": "3",
            "type": "t_int24"
          },
          {
            "astId": 73602,
            "contract": "contracts/strategies/uniswap/UniswapV3ConverterStrategy.sol:UniswapV3ConverterStrategy",
            "label": "upperTickFillup",
            "offset": 3,
            "slot": "3",
            "type": "t_int24"
          },
          {
            "astId": 73604,
            "contract": "contracts/strategies/uniswap/UniswapV3ConverterStrategy.sol:UniswapV3ConverterStrategy",
            "label": "rebalanceTickRange",
            "offset": 6,
            "slot": "3",
            "type": "t_int24"
          },
          {
            "astId": 73606,
            "contract": "contracts/strategies/uniswap/UniswapV3ConverterStrategy.sol:UniswapV3ConverterStrategy",
            "label": "depositorSwapTokens",
            "offset": 9,
            "slot": "3",
            "type": "t_bool"
          },
          {
            "astId": 73608,
            "contract": "contracts/strategies/uniswap/UniswapV3ConverterStrategy.sol:UniswapV3ConverterStrategy",
            "label": "totalLiquidity",
            "offset": 10,
            "slot": "3",
            "type": "t_uint128"
          },
          {
            "astId": 73610,
            "contract": "contracts/strategies/uniswap/UniswapV3ConverterStrategy.sol:UniswapV3ConverterStrategy",
            "label": "totalLiquidityFillup",
            "offset": 0,
            "slot": "4",
            "type": "t_uint128"
          },
          {
            "astId": 73612,
            "contract": "contracts/strategies/uniswap/UniswapV3ConverterStrategy.sol:UniswapV3ConverterStrategy",
            "label": "rebalanceEarned0",
            "offset": 0,
            "slot": "5",
            "type": "t_uint256"
          },
          {
            "astId": 73614,
            "contract": "contracts/strategies/uniswap/UniswapV3ConverterStrategy.sol:UniswapV3ConverterStrategy",
            "label": "rebalanceEarned1",
            "offset": 0,
            "slot": "6",
            "type": "t_uint256"
          },
          {
            "astId": 73616,
            "contract": "contracts/strategies/uniswap/UniswapV3ConverterStrategy.sol:UniswapV3ConverterStrategy",
            "label": "rebalanceLost",
            "offset": 0,
            "slot": "7",
            "type": "t_uint256"
          },
          {
            "astId": 73618,
            "contract": "contracts/strategies/uniswap/UniswapV3ConverterStrategy.sol:UniswapV3ConverterStrategy",
            "label": "isFuseTriggered",
            "offset": 0,
            "slot": "8",
            "type": "t_bool"
          },
          {
            "astId": 73620,
            "contract": "contracts/strategies/uniswap/UniswapV3ConverterStrategy.sol:UniswapV3ConverterStrategy",
            "label": "fuseThreshold",
            "offset": 0,
            "slot": "9",
            "type": "t_uint256"
          },
          {
            "astId": 73622,
            "contract": "contracts/strategies/uniswap/UniswapV3ConverterStrategy.sol:UniswapV3ConverterStrategy",
            "label": "lastPrice",
            "offset": 0,
            "slot": "10",
            "type": "t_uint256"
          }
        ],
        "numberOfBytes": "352"
      },
      "t_uint128": {
        "encoding": "inplace",
        "label": "uint128",
        "numberOfBytes": "16"
      },
      "t_uint256": {
        "encoding": "inplace",
        "label": "uint256",
        "numberOfBytes": "32"
      },
      "t_uint8": {
        "encoding": "inplace",
        "label": "uint8",
        "numberOfBytes": "1"
      }
    }
  }
}