{
  "address": "0x074b9fBCAcE5A9Bf037c595AAD651a4B0465cdB1",
  "abi": [
    {
      "anonymous": false,
      "inputs": [],
      "name": "DisableFuse",
      "type": "event"
    },
    {
      "anonymous": false,
      "inputs": [],
      "name": "FuseTriggered",
      "type": "event"
    },
    {
      "anonymous": false,
      "inputs": [
        {
          "indexed": false,
          "internalType": "uint256",
          "name": "newFuseThreshold",
          "type": "uint256"
        }
      ],
      "name": "NewFuseThreshold",
      "type": "event"
    },
    {
      "anonymous": false,
      "inputs": [
        {
          "indexed": false,
          "internalType": "uint256",
          "name": "loss",
          "type": "uint256"
        }
      ],
      "name": "Rebalanced",
      "type": "event"
    },
    {
      "anonymous": false,
      "inputs": [
        {
          "indexed": false,
          "internalType": "uint256",
          "name": "fee0",
          "type": "uint256"
        },
        {
          "indexed": false,
          "internalType": "uint256",
          "name": "fee1",
          "type": "uint256"
        }
      ],
      "name": "UniV3FeesClaimed",
      "type": "event"
    },
    {
      "inputs": [],
      "name": "DEFAULT_FUSE_THRESHOLD",
      "outputs": [
        {
          "internalType": "uint256",
          "name": "",
          "type": "uint256"
        }
      ],
      "stateMutability": "view",
      "type": "function"
    },
    {
      "inputs": [
        {
          "internalType": "address",
          "name": "asset",
          "type": "address"
        },
        {
          "internalType": "address",
          "name": "controller",
          "type": "address"
        },
        {
          "internalType": "address[]",
          "name": "rewardTokens",
          "type": "address[]"
        },
        {
          "internalType": "uint256[]",
          "name": "amounts",
          "type": "uint256[]"
        }
      ],
      "name": "calcEarned",
      "outputs": [
        {
          "internalType": "uint256",
          "name": "",
          "type": "uint256"
        }
      ],
      "stateMutability": "view",
      "type": "function"
    },
    {
      "inputs": [
        {
          "internalType": "contract IUniswapV3Pool",
          "name": "pool",
          "type": "IUniswapV3Pool"
        },
        {
          "internalType": "int24",
          "name": "lowerTick",
          "type": "int24"
        },
        {
          "internalType": "int24",
          "name": "upperTick",
          "type": "int24"
        },
        {
          "internalType": "bool",
          "name": "depositorSwapTokens",
          "type": "bool"
        }
      ],
      "name": "getEntryData",
      "outputs": [
        {
          "internalType": "bytes",
          "name": "entryData",
          "type": "bytes"
        }
      ],
      "stateMutability": "view",
      "type": "function"
    },
    {
      "inputs": [
        {
          "internalType": "contract ITetuConverter",
          "name": "converter",
          "type": "ITetuConverter"
        },
        {
          "internalType": "address",
          "name": "tokenA",
          "type": "address"
        },
        {
          "internalType": "address",
          "name": "tokenB",
          "type": "address"
        }
      ],
      "name": "getOracleAssetsPrice",
      "outputs": [
        {
          "internalType": "uint256",
          "name": "",
          "type": "uint256"
        }
      ],
      "stateMutability": "view",
      "type": "function"
    },
    {
      "inputs": [
        {
          "internalType": "contract IUniswapV3Pool",
          "name": "pool",
          "type": "IUniswapV3Pool"
        }
      ],
      "name": "isStablePool",
      "outputs": [
        {
          "internalType": "bool",
          "name": "",
          "type": "bool"
        }
      ],
      "stateMutability": "view",
      "type": "function"
    },
    {
      "inputs": [
        {
          "internalType": "bool",
          "name": "isFuseTriggered",
          "type": "bool"
        },
        {
          "internalType": "contract IUniswapV3Pool",
          "name": "pool",
          "type": "IUniswapV3Pool"
        },
        {
          "internalType": "int24",
          "name": "lowerTick",
          "type": "int24"
        },
        {
          "internalType": "int24",
          "name": "upperTick",
          "type": "int24"
        },
        {
          "internalType": "int24",
          "name": "tickSpacing",
          "type": "int24"
        },
        {
          "internalType": "int24",
          "name": "rebalanceTickRange",
          "type": "int24"
        }
      ],
      "name": "needRebalance",
      "outputs": [
        {
          "internalType": "bool",
          "name": "",
          "type": "bool"
        }
      ],
      "stateMutability": "view",
      "type": "function"
    }
  ],
  "transactionHash": "0x560c3561ee3f658c67a08d479ffc93516074b087a2978eb1648629095fab35ed",
  "args": [],
  "numDeployments": 18,
  "solcInputHash": "84ea3950eccbefd595d439f72bf35186",
  "bytecode": "0x615e866200003b600b82828239805160001a60731461002e57634e487b7160e01b600052600060045260246000fd5b30600052607381538281f3fe73000000000000000000000000000000000000000030146080604052600436106101575760003560e01c80637fd6c0a1116100cd578063c65138de11610086578063c65138de1461037c578063c68bb8f21461038f578063ce74e5d9146103be578063d6f43ad8146103cc578063ec4955b9146103df578063ef3475ac146103ff57600080fd5b80637fd6c0a1146102ba57806380089367146102cd57806388f3bd5e146102fc578063928f84931461031c578063a1d439891461033c578063c06474231461035c57600080fd5b806336bddd651161011f57806336bddd651461020157806337eb91fc1461022357806343478f171461024357806354747e5b1461027157806357d59aae146102945780635ca1bcdf146102a757600080fd5b806302c8fd911461015c5780630a65e5e714610192578063190fa314146101a5578063345aec36146101cd57806334d2ec3d146101e0575b600080fd5b81801561016857600080fd5b5061017c610177366004614d62565b610436565b6040516101899190614dcd565b60405180910390f35b61017c6101a0366004614de0565b610913565b6101b86101b3366004614de0565b610c28565b60408051928352602083019190915201610189565b6101b86101db366004614de0565b610c62565b6101f36101ee366004614f1d565b610e2a565b604051908152602001610189565b81801561020d57600080fd5b5061022161021c366004615006565b610fec565b005b81801561022f57600080fd5b5061022161023e366004615032565b6110ef565b81801561024f57600080fd5b5061026361025e366004615057565b61114c565b6040516101899291906150be565b61028461027f3660046150e2565b61182c565b6040519015158152602001610189565b6102846102a236600461511c565b61189f565b6102846102b5366004615032565b6119cc565b6101f36102c8366004615190565b611d0c565b8180156102d957600080fd5b506102ed6102e83660046151db565b611ee0565b60405161018993929190615268565b81801561030857600080fd5b5061022161031736600461529a565b6121b0565b81801561032857600080fd5b506102216103373660046152bc565b6121ee565b61034f61034a366004615349565b6124f0565b60405161018991906153f5565b81801561036857600080fd5b5061017c610377366004615430565b612596565b61017c61038a366004614d62565b612c46565b81801561039b57600080fd5b506103af6103aa366004614de0565b612fa9565b60405161018993929190615585565b6101f36611c37937e0800081565b61034f6103da366004614de0565b6136d3565b8180156103eb57600080fd5b506102216103fa366004614de0565b613864565b81801561040b57600080fd5b5061041f61041a366004615032565b613e3f565b604080519215158352602083019190915201610189565b600282810154600384015460048501546040805180820190915260158152745533532d372057726f6e67206c697175696469747960581b60208201526060946000946001600160a01b03811694600160c81b8204830b94600160e01b909204830b9381840b9363010000008304900b92600160501b83046001600160801b039081169391811692600160481b90920460ff1691908c168410156104f55760405162461bcd60e51b81526004016104ec91906153f5565b60405180910390fd5b506040805160028082526060820183529091602083019080368337019050509950876001600160a01b031663a34123a788888e6040518463ffffffff1660e01b8152600401610546939291906155be565b60408051808303816000875af1158015610564573d6000803e3d6000fd5b505050506040513d601f19601f8201168201806040525081019061058891906155e4565b8b60008151811061059b5761059b615608565b602002602001018c6001815181106105b5576105b5615608565b6020908102919091010191909152526040516309e3d67b60e31b81526001600160a01b03891690634f1eb3d8906105ff9030908b908b906001600160801b0390819060040161561e565b60408051808303816000875af115801561061d573d6000803e3d6000fd5b505050506040513d601f19601f82011682018060405250810190610641919061565b565b50506001600160801b03821615610841576000836001600160801b03168c6001600160801b0316846001600160801b031661067c91906156a0565b61068691906156cd565b90506000808a6001600160a01b031663a34123a78989866040518463ffffffff1660e01b81526004016106bb939291906155be565b60408051808303816000875af11580156106d9573d6000803e3d6000fd5b505050506040513d601f19601f820116820180604052508101906106fd91906155e4565b6040516309e3d67b60e31b815291935091506001600160a01b038c1690634f1eb3d89061073d9030908c908c906001600160801b0390819060040161561e565b60408051808303816000875af115801561075b573d6000803e3d6000fd5b505050506040513d601f19601f8201168201806040525081019061077f919061565b565b5050818d60008151811061079557610795615608565b602002602001018181516107a991906156e1565b9052508c5181908e9060019081106107c3576107c3615608565b602002602001018181516107d791906156e1565b90525060408051808201909152601281527105533532d382057726f6e672066696c6c75760741b60208201526001600160801b0380851690871610156108305760405162461bcd60e51b81526004016104ec91906153f5565b5061083b83866156f4565b9b505050505b61084b8b846156f4565b60038d018054600160501b600160d01b031916600160501b6001600160801b039384160217905560048d0180546001600160801b031916918b16919091179055801561090457896001815181106108a4576108a4615608565b60200260200101518a6000815181106108bf576108bf615608565b60200260200101518b6000815181106108da576108da615608565b602002602001018c6001815181106108f4576108f4615608565b6020908102919091010191909152525b50505050505050505092915050565b604080516002808252606080830184529260208301908036833701905050905060008260020160009054906101000a90046001600160a01b03166001600160a01b0316633850c7bd6040518163ffffffff1660e01b815260040160e060405180830381865afa15801561098a573d6000803e3d6000fd5b505050506040513d601f19601f820116820180604052508101906109ae919061573e565b505050506002868101546003880154604051630544f36560e31b815295965073db25C0af2d8D7Aa4e7A4d2f3AAe35B4EE99484b895632a279b289550610a1e94508793600160c81b8404810b93600160e01b9004900b91600160501b90046001600160801b0316906004016157bd565b6040805180830381865af4158015610a3a573d6000803e3d6000fd5b505050506040513d601f19601f82011682018060405250810190610a5e91906155e4565b83600081518110610a7157610a71615608565b6020026020010184600181518110610a8b57610a8b615608565b6020908102919091010191909152526003830154600480850154604051630544f36560e31b8152600093849373db25C0af2d8D7Aa4e7A4d2f3AAe35B4EE99484b893632a279b2893610afc938993600282810b946301000000909304900b926001600160801b0390921691016157bd565b6040805180830381865af4158015610b18573d6000803e3d6000fd5b505050506040513d601f19601f82011682018060405250810190610b3c91906155e4565b915091508184600081518110610b5457610b54615608565b60200260200101818151610b6891906156e1565b9052508351819085906001908110610b8257610b82615608565b60200260200101818151610b9691906156e1565b9052506003850154600160481b900460ff1615610c205783600181518110610bc057610bc0615608565b602002602001015184600081518110610bdb57610bdb615608565b602002602001015185600081518110610bf657610bf6615608565b6020026020010186600181518110610c1057610c10615608565b6020908102919091010191909152525b505050919050565b80546000908190610c41906001600160a01b0316614297565b6001840154909250610c5b906001600160a01b0316614297565b9050915091565b6040805160a0810182526002838101546001600160a01b0381168352600160c81b8104820b6020840152600160e01b9004900b818301526003830154600160501b90046001600160801b0316606082015230608082015290516352bb7e6960e01b8152600091829173db25C0af2d8D7Aa4e7A4d2f3AAe35B4EE99484b8906352bb7e6990610cf49084906004016157f0565b6040805180830381865af4158015610d10573d6000803e3d6000fd5b505050506040513d601f19601f82011682018060405250810190610d3491906155e4565b6040805160a0810182526002808901546001600160a01b03168252600389015480820b602084015263010000009004900b818301526004808901546001600160801b0316606083015230608083015291516352bb7e6960e01b81529396509194509091600091829173db25C0af2d8D7Aa4e7A4d2f3AAe35B4EE99484b8916352bb7e6991610dc4918791016157f0565b6040805180830381865af4158015610de0573d6000803e3d6000fd5b505050506040513d601f19601f82011682018060405250810190610e0491906155e4565b9092509050610e1382876156e1565b9550610e1f81866156e1565b945050505050915091565b600080846001600160a01b0316634046ebae6040518163ffffffff1660e01b8152600401602060405180830381865afa158015610e6b573d6000803e3d6000fd5b505050506040513d601f19601f82011682018060405250810190610e8f9190615845565b84519091506000805b82811015610fde576000878281518110610eb457610eb4615608565b60200260200101519050896001600160a01b0316816001600160a01b031603610f0357868281518110610ee957610ee9615608565b602002602001015183610efc91906156e1565b9250610fcd565b846001600160a01b031663a9dd14d6898481518110610f2457610f24615608565b60200260200101518c8a8681518110610f3f57610f3f615608565b60209081029190910101516040516001600160e01b031960e086901b1681526001600160a01b0393841660048201529290911660248301526044820152606401602060405180830381865afa158015610f9c573d6000803e3d6000fd5b505050506040513d601f19601f82011682018060405250810190610fc09190615862565b610fca90846156e1565b92505b50610fd78161587b565b9050610e98565b50925050505b949350505050565b600b830154604080516060810190915260228082526001600160a01b03909216918215159190615e2f6020830139906110385760405162461bcd60e51b81526004016104ec91906153f5565b506003840154600160481b900460ff1615611081578354611063906001600160a01b03168284614307565b600184015461107c906001600160a01b03168285614307565b6110b0565b8354611097906001600160a01b03168285614307565b60018401546110b0906001600160a01b03168284614307565b60408051848152602081018490527fd809a30c675e811f2837e53a49b9409406bb7e6f808658eef60d09ac30579e89910160405180910390a150505050565b60088201805460ff191690558154600183015461111a9183916001600160a01b039182169116611d0c565b600a8301556040517f6b7ccec41cff3829e74e9b70bba25fca03418511799dd79dc80d774f15f35e1b90600090a15050565b6040805160008082526020820190925260609190819092506000915060006040518061020001604052808b600201601c9054906101000a900460020b60020b81526020018b60020160199054906101000a900460020b60020b81526020018b60020160149054906101000a900460020b60020b81526020018b60020160009054906101000a90046001600160a01b03166001600160a01b031681526020018b60000160009054906101000a90046001600160a01b03166001600160a01b031681526020018b60010160009054906101000a90046001600160a01b03166001600160a01b031681526020018b600a015481526020018b6009015481526020018b60030160099054906101000a900460ff161515815260200160008152602001600060020b8152602001600060020b81526020018b60020160179054906101000a900460ff16151581526020018b60020160189054906101000a900460ff161515815260200160008152602001600081525090506112fe8a60080160009054906101000a900460ff1682606001518360200151846000015185604001518f60030160069054906101000a900460020b61189f565b60405180604001604052806019815260200178154cd4cb4e48139bc81c9958985b185b98d9481b9959591959603a1b8152509061134e5760405162461bcd60e51b81526004016104ec91906153f5565b506113628982608001518360a00151611d0c565b6101c08201526101a0810151801561138d575061138d8160c00151826101c001518360e0015161435e565b1561149a5760088a01805460ff191660011790556040517fb224dccea3c30282a142bed3cedb7af1657907dea7dc2828fb9ce06007f3159490600090a173456b0b574653d4D46980525B9794B03930b8E2e963310135b88a8a846060015185608001518660a00151611402886060015161438c565b6040516001600160e01b031960e089901b1681526001600160a01b0396871660048201529486166024860152928516604485015290841660648401528316608483015260a482015260c481018a905260e481018b90529088166101048201526101240160006040518083038186803b15801561147d57600080fd5b505af4158015611491573d6000803e3d6000fd5b5050505061176d565b73456b0b574653d4D46980525B9794B03930b8E2e963fce032fe8a8a8d6114c4866060015161438c565b6040516001600160e01b031960e087901b1681526001600160a01b039485166004820152928416602484015260448301919091526064820152608481018a905260a481018b905290881660c482015260e40160006040518083038186803b15801561152e57600080fd5b505af4158015611542573d6000803e3d6000fd5b506002925061154f915050565b604051908082528060200260200182016040528015611578578160200160208202803683370190505b5093506115888160800151614297565b8460008151811061159b5761159b615608565b6020026020010181815250506115b48160a00151614297565b846001815181106115c7576115c7615608565b602002602001018181525050806101800151156115e357600192505b60408051600280825260608201835260009260208301908036833701905050905081608001518160008151811061161c5761161c615608565b60200260200101906001600160a01b031690816001600160a01b0316815250508160a001518160018151811061165457611654615608565b6001600160a01b03929092166020928302919091018201526040805160028082526060820183526000939192909183019080368337019050509050856000815181106116a2576116a2615608565b6020026020010151816000815181106116bd576116bd615608565b602002602001018181525050734dc0dfffd2de28f7a822fe1139127e3dc1af86fa63c9bce690838360008f6040518563ffffffff1660e01b81526004016117079493929190615894565b602060405180830381865af4158015611724573d6000803e3d6000fd5b505050506040513d601f19601f820116820180604052508101906117489190615862565b6101e0840181905289111561176a576101e0830151611767908a6158db565b93505b50505b806101a0015115611784576101c0810151600a8b01555b81156117ec57604051630855081f60e01b815260006004820152602481018390526001600160a01b03861690630855081f90604401600060405180830381600087803b1580156117d357600080fd5b505af11580156117e7573d6000803e3d6000fd5b505050505b6040518281527fc306af072396b02bf3a9782c10065cc7ff4aa842934a43f0b76f997b291237c89060200160405180910390a15050965096945050505050565b6000816001600160a01b031663ddca3f436040518163ffffffff1660e01b8152600401602060405180830381865afa15801561186c573d6000803e3d6000fd5b505050506040513d601f19601f8201168201806040525081019061189091906158ee565b62ffffff166064149050919050565b600086156118af575060006119c2565b6000866001600160a01b0316633850c7bd6040518163ffffffff1660e01b815260040160e060405180830381865afa1580156118ef573d6000803e3d6000fd5b505050506040513d601f19601f82011682018060405250810190611913919061573e565b50505050509150508360020b868661192b9190615913565b60020b03611955578560020b8160020b128061194d57508460020b8160020b12155b9150506119c2565b600060026119638888615913565b61196d9190615938565b9050600061197b8289615972565b90508060020b8360020b13156119a957600285900b61199a8285615913565b60020b121593505050506119c2565b600285900b6119b88483615913565b60020b1393505050505b9695505050505050565b60008060006119da85610c62565b60038701549193509150600160481b900460ff16156119f557905b84546001860154600b8701546040516370a0823160e01b81526001600160a01b0393841693928316929091169083906370a0823190611a38908490600401615997565b602060405180830381865afa158015611a55573d6000803e3d6000fd5b505050506040513d601f19601f82011682018060405250810190611a799190615862565b611a8390866156e1565b6040516370a0823160e01b81529095506001600160a01b038316906370a0823190611ab2908490600401615997565b602060405180830381865afa158015611acf573d6000803e3d6000fd5b505050506040513d601f19601f82011682018060405250810190611af39190615862565b611afd90856156e1565b93506000876001600160a01b031663f77c47916040518163ffffffff1660e01b8152600401602060405180830381865afa158015611b3f573d6000803e3d6000fd5b505050506040513d601f19601f82011682018060405250810190611b639190615845565b6001600160a01b0316632630c12f6040518163ffffffff1660e01b8152600401602060405180830381865afa158015611ba0573d6000803e3d6000fd5b505050506040513d601f19601f82011682018060405250810190611bc49190615845565b90506000816001600160a01b031663b3596f07866040518263ffffffff1660e01b8152600401611bf49190615997565b602060405180830381865afa158015611c11573d6000803e3d6000fd5b505050506040513d601f19601f82011682018060405250810190611c359190615862565b90506000826001600160a01b031663b3596f07866040518263ffffffff1660e01b8152600401611c659190615997565b602060405180830381865afa158015611c82573d6000803e3d6000fd5b505050506040513d601f19601f82011682018060405250810190611ca69190615862565b90506000670de0b6b3a7640000611cbd848b6156a0565b611cc791906156cd565b90506000670de0b6b3a7640000611cde848b6156a0565b611ce891906156cd565b90506064821180611cf95750606481115b9a50505050505050505050505b92915050565b600080846001600160a01b031663f77c47916040518163ffffffff1660e01b8152600401602060405180830381865afa158015611d4d573d6000803e3d6000fd5b505050506040513d601f19601f82011682018060405250810190611d719190615845565b6001600160a01b0316632630c12f6040518163ffffffff1660e01b8152600401602060405180830381865afa158015611dae573d6000803e3d6000fd5b505050506040513d601f19601f82011682018060405250810190611dd29190615845565b90506000816001600160a01b031663b3596f07866040518263ffffffff1660e01b8152600401611e029190615997565b602060405180830381865afa158015611e1f573d6000803e3d6000fd5b505050506040513d601f19601f82011682018060405250810190611e439190615862565b90506000826001600160a01b031663b3596f07866040518263ffffffff1660e01b8152600401611e739190615997565b602060405180830381865afa158015611e90573d6000803e3d6000fd5b505050506040513d601f19601f82011682018060405250810190611eb49190615862565b905081611ec982670de0b6b3a76400006156a0565b611ed391906156cd565b93505050505b9392505050565b60408051600280825260608281019093526000918291816020016020820280368337019050509250600086600181518110611f1d57611f1d615608565b602002602001015111156121a4578315611fa45785600181518110611f4457611f44615608565b602002602001015186600081518110611f5f57611f5f615608565b602002602001015187600081518110611f7a57611f7a615608565b6020026020010188600181518110611f9457611f94615608565b6020908102919091010191909152525b600073db25C0af2d8D7Aa4e7A4d2f3AAe35B4EE99484b86317c22c3c8b8b8b8b600081518110611fd657611fd6615608565b60200260200101518c600181518110611ff157611ff1615608565b60200260200101516040518663ffffffff1660e01b81526004016120199594939291906159ab565b606060405180830381865af4158015612036573d6000803e3d6000fd5b505050506040513d601f19601f8201168201806040525081019061205a91906159df565b8660008151811061206d5761206d615608565b602002602001018760018151811061208757612087615608565b6020908102919091010192909252919052604051633c8a7d8d60e01b81529091506001600160a01b038b1690633c8a7d8d906120cd9030908d908d908790600401615a0d565b60408051808303816000875af11580156120eb573d6000803e3d6000fd5b505050506040513d601f19601f8201168201806040525081019061210f91906155e4565b50506001600160801b03811692506121278187615a4f565b915084156121a2578360018151811061214257612142615608565b60200260200101518460008151811061215d5761215d615608565b60200260200101518560008151811061217857612178615608565b602002602001018660018151811061219257612192615608565b6020908102919091010191909152525b505b96509650969350505050565b600982018190556040518181527fdf3e0a21768880619b1295cb9519494a0df71943ebb4ff056f72186cfcfb6d479060200160405180910390a15050565b60408051808201909152601181527054532d31207a65726f206164647265737360781b60208201526001600160a01b03851661223d5760405162461bcd60e51b81526004016104ec91906153f5565b506002870180546001600160a01b0319166001600160a01b03861617905560038701805468ffffff0000000000001916600160301b62ffffff85160217905561228987858585856143ac565b6000866001600160a01b0316634046ebae6040518163ffffffff1660e01b8152600401602060405180830381865afa1580156122c9573d6000803e3d6000fd5b505050506040513d601f19601f820116820180604052508101906122ed9190615845565b885460405163095ea7b360e01b81526001600160a01b038084166004830152600019602483015292935091169063095ea7b3906044016020604051808303816000875af1158015612342573d6000803e3d6000fd5b505050506040513d601f19601f820116820180604052508101906123669190615a6f565b50600188015460405163095ea7b360e01b81526001600160a01b03838116600483015260001960248301529091169063095ea7b3906044016020604051808303816000875af11580156123bd573d6000803e3d6000fd5b505050506040513d601f19601f820116820180604052508101906123e19190615a6f565b506002808901546123fd91600160a01b909104900b6004615a8c565b60028981015491810b9161242391600160c81b8204810b91600160e01b9004900b615913565b60028a8101805460ff60b81b1981169390920b9390931215600160b81b0291821790925561245e916001600160a01b0390811691161761182c565b156124e65760028801805460ff60c01b1916600160c01b1790556611c37937e08000600989018190556040517fdf3e0a21768880619b1295cb9519494a0df71943ebb4ff056f72186cfcfb6d47916124b99190815260200190565b60405180910390a1875460018901546124e09188916001600160a01b039182169116611d0c565b600a8901555b5050505050505050565b60405163a1d4398960e01b81526001600160a01b0385166004820152600284810b602483015283900b6044820152811515606482015260609073456b0b574653d4D46980525B9794B03930b8E2e99063a1d4398990608401600060405180830381865af4158015612565573d6000803e3d6000fd5b505050506040513d6000823e601f3d908101601f1916820160405261258d9190810190615adc565b95945050505050565b604080516000808252602082019092526002880154909190600160b81b900460ff16156125ff5760405162461bcd60e51b815260206004820152601760248201527627b7363c903337b91039bbb0b81039ba3930ba32b3bc9760491b60448201526064016104ec565b60006040518061020001604052808a600201601c9054906101000a900460020b60020b81526020018a60020160199054906101000a900460020b60020b81526020018a60020160149054906101000a900460020b60020b81526020018a60020160009054906101000a90046001600160a01b03166001600160a01b031681526020018a60000160009054906101000a90046001600160a01b03166001600160a01b031681526020018a60010160009054906101000a90046001600160a01b03166001600160a01b031681526020018a600a015481526020018a6009015481526020018a60030160099054906101000a900460ff161515815260200160008152602001600060020b8152602001600060020b81526020018a60020160179054906101000a900460ff16151581526020018a60020160189054906101000a900460ff161515815260200160008152602001600081525090506127958960080160009054906101000a900460ff1682606001518360200151846000015185604001518e60030160069054906101000a900460020b61189f565b60405180604001604052806019815260200178154cd4cb4e48139bc81c9958985b185b98d9481b9959591959603a1b815250906127e55760405162461bcd60e51b81526004016104ec91906153f5565b506127f98882608001518360a00151611d0c565b6101c08201526101a0810151801561282457506128248160c00151826101c001518360e0015161435e565b156128ef5760088901805460ff191660011790556040517fb224dccea3c30282a142bed3cedb7af1657907dea7dc2828fb9ce06007f3159490600090a173456b0b574653d4D46980525B9794B03930b8E2e96319ee6a3a8983608001518460a00151612893866060015161438c565b8b8b8e8c6040518963ffffffff1660e01b81526004016128ba989796959493929190615b62565b60006040518083038186803b1580156128d257600080fd5b505af41580156128e6573d6000803e3d6000fd5b50505050612b88565b73456b0b574653d4D46980525B9794B03930b8E2e963f6cc5c2c898b612918856060015161438c565b8a8a8d8b6040518863ffffffff1660e01b815260040161293e9796959493929190615bc2565b60006040518083038186803b15801561295657600080fd5b505af415801561296a573d6000803e3d6000fd5b5060029250612977915050565b6040519080825280602002602001820160405280156129a0578160200160208202803683370190505b5092506129b08160800151614297565b836000815181106129c3576129c3615608565b6020026020010181815250506129dc8160a00151614297565b836001815181106129ef576129ef615608565b602090810291909101015260408051600280825260608201909252600091816020016020820280368337019050509050816080015181600081518110612a3757612a37615608565b60200260200101906001600160a01b031690816001600160a01b0316815250508160a0015181600181518110612a6f57612a6f615608565b6001600160a01b0392909216602092830291909101820152604080516002808252606082018352600093919290918301908036833701905050905084600081518110612abd57612abd615608565b602002602001015181600081518110612ad857612ad8615608565b602002602001018181525050734dc0dfffd2de28f7a822fe1139127e3dc1af86fa63c9bce690838360008e6040518563ffffffff1660e01b8152600401612b229493929190615894565b602060405180830381865af4158015612b3f573d6000803e3d6000fd5b505050506040513d601f19601f82011682018060405250810190612b639190615862565b6101e08401819052891115612b85576101e0830151612b82908a6158db565b93505b50505b806101a0015115612b9f576101c0810151600a8a01555b8115612c0757604051630855081f60e01b815260006004820152602481018390526001600160a01b03851690630855081f90604401600060405180830381600087803b158015612bee57600080fd5b505af1158015612c02573d6000803e3d6000fd5b505050505b6040518281527fc306af072396b02bf3a9782c10065cc7ff4aa842934a43f0b76f997b291237c89060200160405180910390a150509695505050505050565b6003820154600483015460408051600280825260608083018452946001600160801b03600160501b909104811694169260208301908036833701905050925060008560020160009054906101000a90046001600160a01b03166001600160a01b0316633850c7bd6040518163ffffffff1660e01b815260040160e060405180830381865afa158015612cdc573d6000803e3d6000fd5b505050506040513d601f19601f82011682018060405250810190612d00919061573e565b50505050600289810154604051630544f36560e31b815294955073db25C0af2d8D7Aa4e7A4d2f3AAe35B4EE99484b894632a279b289450612d5c93508692600160c81b8304810b92600160e01b9004900b908b906004016157bd565b6040805180830381865af4158015612d78573d6000803e3d6000fd5b505050506040513d601f19601f82011682018060405250810190612d9c91906155e4565b85600081518110612daf57612daf615608565b6020026020010186600181518110612dc957612dc9615608565b6020908102919091010191909152526001600160801b03831615801590612df957506000826001600160801b0316115b15612f19576003860154600090819073db25C0af2d8D7Aa4e7A4d2f3AAe35B4EE99484b890632a279b28908590600281810b9163010000009004900b6001600160801b03808b1690612e50908e8116908c166156a0565b612e5a91906156cd565b6040518563ffffffff1660e01b8152600401612e7994939291906157bd565b6040805180830381865af4158015612e95573d6000803e3d6000fd5b505050506040513d601f19601f82011682018060405250810190612eb991906155e4565b915091508186600081518110612ed157612ed1615608565b60200260200101818151612ee591906156e1565b9052508551819087906001908110612eff57612eff615608565b60200260200101818151612f1391906156e1565b90525050505b6003860154600160481b900460ff1615612fa05783600181518110612f4057612f40615608565b602002602001015184600081518110612f5b57612f5b615608565b602002602001015185600081518110612f7657612f76615608565b6020026020010186600181518110612f9057612f90615608565b6020908102919091010191909152525b50505092915050565b600b8101546002808301546003840154604080518481526060808201835295869586956001600160a01b039283169592811694600160c81b8204830b94600160e01b909204830b9380840b936301000000909104810b929160208301908036833750508b548251929b506001600160a01b0316918b915060009061302f5761302f615608565b6001600160a01b0392831660209182029290920101526001808c01548b519216918b9190811061306157613061615608565b6001600160a01b039290921660209283029190910182015260408051600280825260608201835290929091908301908036833701905050965060005b895181101561315b578981815181106130b8576130b8615608565b60200260200101516001600160a01b03166370a08231306040518263ffffffff1660e01b81526004016130eb9190615997565b602060405180830381865afa158015613108573d6000803e3d6000fd5b505050506040513d601f19601f8201168201806040525081019061312c9190615862565b88828151811061313e5761313e615608565b6020908102919091010152806131538161587b565b91505061309d565b5060408051600280825260608201835290916020830190803683370190505060038b0154909850600160501b90046001600160801b0316156132de5760405163a34123a760e01b81526001600160a01b0386169063a34123a7906131c890879087906000906004016155be565b60408051808303816000875af11580156131e6573d6000803e3d6000fd5b505050506040513d601f19601f8201168201806040525081019061320a91906155e4565b50506040516309e3d67b60e31b81526001600160a01b03861690634f1eb3d890613247903090889088906001600160801b0390819060040161561e565b60408051808303816000875af1158015613265573d6000803e3d6000fd5b505050506040513d601f19601f82011682018060405250810190613289919061565b565b816001600160801b03169150806001600160801b03169050896000815181106132b4576132b4615608565b602002602001018a6001815181106132ce576132ce615608565b6020908102919091010191909152525b60048a01546001600160801b0316156134585760405163a34123a760e01b81526001600160a01b0386169063a34123a79061332290859085906000906004016155be565b60408051808303816000875af1158015613340573d6000803e3d6000fd5b505050506040513d601f19601f8201168201806040525081019061336491906155e4565b5050600080866001600160a01b0316634f1eb3d83086866001600160801b03806040518663ffffffff1660e01b81526004016133a495949392919061561e565b60408051808303816000875af11580156133c2573d6000803e3d6000fd5b505050506040513d601f19601f820116820180604052508101906133e6919061565b565b6001600160801b031691506001600160801b03169150818a60008151811061341057613410615608565b6020026020010181815161342491906156e1565b905250895181908b90600190811061343e5761343e615608565b6020026020010181815161345291906156e1565b90525050505b7fd809a30c675e811f2837e53a49b9409406bb7e6f808658eef60d09ac30579e898860008151811061348c5761348c615608565b6020026020010151896001815181106134a7576134a7615608565b60200260200101516040516134c6929190918252602082015260400190565b60405180910390a160038a0154600160481b900460ff161561355557876001815181106134f5576134f5615608565b60200260200101518860008151811061351057613510615608565b60200260200101518960008151811061352b5761352b615608565b602002602001018a60018151811061354557613545615608565b6020908102919091010191909152525b60005b89518110156136c55760008a828151811061357557613575615608565b60200260200101516001600160a01b03166370a08231896040518263ffffffff1660e01b81526004016135a89190615997565b602060405180830381865afa1580156135c5573d6000803e3d6000fd5b505050506040513d601f19601f820116820180604052508101906135e99190615862565b905080156136b4578a828151811061360357613603615608565b60209081029190910101516040516323b872dd60e01b81526001600160a01b038a8116600483015230602483015260448201849052909116906323b872dd906064016020604051808303816000875af1158015613664573d6000803e3d6000fd5b505050506040513d601f19601f820116820180604052508101906136889190615a6f565b50808a838151811061369c5761369c615608565b602002602001018181516136b091906156e1565b9052505b506136be8161587b565b9050613558565b505050505050509193909250565b8054604080516395d89b4160e01b815290516060926001600160a01b0316916395d89b419160048083019260009291908290030181865afa15801561371c573d6000803e3d6000fd5b505050506040513d6000823e601f3d908101601f191682016040526137449190810190615adc565b8260010160009054906101000a90046001600160a01b03166001600160a01b03166395d89b416040518163ffffffff1660e01b8152600401600060405180830381865afa158015613799573d6000803e3d6000fd5b505050506040513d6000823e601f3d908101601f191682016040526137c19190810190615adc565b60028401546040805163ddca3f4360e01b8152905161383c926001600160a01b03169163ddca3f439160048083019260209291908290030181865afa15801561380e573d6000803e3d6000fd5b505050506040513d601f19601f8201168201806040525081019061383291906158ee565b62ffffff16614a3e565b60405160200161384e93929190615c11565b6040516020818303038152906040529050919050565b60028082015460408051630dfe168160e01b81529051600093849384936001600160a01b03821693600160c81b8304840b93600160e01b8404810b93600160a01b9004900b918691613906918791630dfe1681916004808201926020929091908290030181865afa1580156138dd573d6000803e3d6000fd5b505050506040513d601f19601f820116820180604052508101906139019190615845565b614297565b9050600061394b866001600160a01b031663d21220a76040518163ffffffff1660e01b8152600401602060405180830381865afa1580156138dd573d6000803e3d6000fd5b9050600082118061395c5750600081115b15613e33576000866001600160a01b0316633850c7bd6040518163ffffffff1660e01b815260040160e060405180830381865afa1580156139a1573d6000803e3d6000fd5b505050506040513d601f19601f820116820180604052508101906139c5919061573e565b5050505050915050866001600160a01b031663d21220a76040518163ffffffff1660e01b8152600401602060405180830381865afa158015613a0b573d6000803e3d6000fd5b505050506040513d601f19601f82011682018060405250810190613a2f9190615845565b6001600160a01b031663313ce5676040518163ffffffff1660e01b8152600401602060405180830381865afa158015613a6c573d6000803e3d6000fd5b505050506040513d601f19601f82011682018060405250810190613a909190615c82565b613a9b90600a615d81565b73db25C0af2d8D7Aa4e7A4d2f3AAe35B4EE99484b863ac41865a898a6001600160a01b031663d21220a76040518163ffffffff1660e01b8152600401602060405180830381865afa158015613af4573d6000803e3d6000fd5b505050506040513d601f19601f82011682018060405250810190613b189190615845565b6040516001600160e01b031960e085901b1681526001600160a01b03928316600482015291166024820152604401602060405180830381865af4158015613b63573d6000803e3d6000fd5b505050506040513d601f19601f82011682018060405250810190613b879190615862565b613b9190846156a0565b613b9b91906156cd565b831115613cc8578380613bae8184615938565b613bb89190615a8c565b613bc29190615972565b995084985073db25C0af2d8D7Aa4e7A4d2f3AAe35B4EE99484b86317c22c3c888c8c8760006040518663ffffffff1660e01b8152600401613c079594939291906159ab565b606060405180830381865af4158015613c24573d6000803e3d6000fd5b505050506040513d601f19601f82011682018060405250810190613c4891906159df565b604051633c8a7d8d60e01b8152909a506001600160a01b038a169250633c8a7d8d9150613c7f9030908e908e908e90600401615a0d565b60408051808303816000875af1158015613c9d573d6000803e3d6000fd5b505050506040513d601f19601f82011682018060405250810190613cc191906155e4565b5050613ded565b85995083848583613cd99190615938565b613ce39190615a8c565b613ced9190615913565b6040516305f08b0f60e21b815290995073db25C0af2d8D7Aa4e7A4d2f3AAe35B4EE99484b8906317c22c3c90613d30908a908e908e9060009089906004016159ab565b606060405180830381865af4158015613d4d573d6000803e3d6000fd5b505050506040513d601f19601f82011682018060405250810190613d7191906159df565b604051633c8a7d8d60e01b8152909a506001600160a01b038a169250633c8a7d8d9150613da89030908e908e908e90600401615a0d565b60408051808303816000875af1158015613dc6573d6000803e3d6000fd5b505050506040513d601f19601f82011682018060405250810190613dea91906155e4565b50505b5060038a01805462ffffff8a811663010000000265ffffffffffff19909216908c161717905560048a0180546001600160801b0389166001600160801b03199091161790555b50505050505050505050565b8154600183015460028401546040516303e6ee5360e31b81526001600160a01b03858116600483015293841660248201819052928416604482018190526000948594939192911690849073456b0b574653d4D46980525B9794B03930b8E2e990631f37729890606401602060405180830381865af4158015613ec5573d6000803e3d6000fd5b505050506040513d601f19601f82011682018060405250810190613ee99190615862565b6002890154909150600160b81b900460ff1680613f4b575060088801546002808a015460038b0154613f499360ff16928692600160c81b8104820b92600160e01b8204830b92600160a01b909204820b91600160301b909104900b61189f565b155b80613fde5750604051638c56287960e01b8152600481018290526001600160a01b0380891660248301528416604482015273456b0b574653d4D46980525B9794B03930b8E2e990638c56287990606401602060405180830381865af4158015613fb8573d6000803e3d6000fd5b505050506040513d601f19601f82011682018060405250810190613fdc9190615a6f565b155b15613ff3576000809550955050505050614290565b6000614016898a600301600a9054906101000a90046001600160801b0316612c46565b905061402185614297565b8160008151811061403457614034615608565b6020026020010181815161404891906156e1565b90525061405484614297565b8160018151811061406757614067615608565b6020026020010181815161407b91906156e1565b905250805182908290600190811061409557614095615608565b6020026020010151101561425e57604051635620c32d60e11b81526001600160a01b0380851660048301528516602482015260009073db25C0af2d8D7Aa4e7A4d2f3AAe35B4EE99484b89063ac41865a90604401602060405180830381865af4158015614106573d6000803e3d6000fd5b505050506040513d601f19601f8201168201806040525081019061412a9190615862565b90506000856001600160a01b031663313ce5676040518163ffffffff1660e01b8152600401602060405180830381865afa15801561416c573d6000803e3d6000fd5b505050506040513d601f19601f820116820180604052508101906141909190615c82565b61419b90600a615d81565b836001815181106141ae576141ae615608565b6020026020010151856141c191906158db565b6141cb90846156a0565b6141d591906156cd565b90506141e26064826156cd565b6141ec90826156e1565b905060008360008151811061420357614203615608565b60200260200101511115614248576142418160018560008151811061422a5761422a615608565b602002602001015161423c91906158db565b614b3f565b905061424c565b5060005b60019850965061429095505050505050565b6000828260018151811061427457614274615608565b602002602001015161428691906158db565b9650965050505050505b9250929050565b6040516370a0823160e01b81526000906001600160a01b038316906370a08231906142c6903090600401615997565b602060405180830381865afa1580156142e3573d6000803e3d6000fd5b505050506040513d601f19601f82011682018060405250810190611d069190615862565b604080516001600160a01b038416602482015260448082018490528251808303909101815260649091019091526020810180516001600160e01b031663a9059cbb60e01b179052614359908490614b55565b505050565b6000828411614378578161437285856158db565b11610fe4565b8161438384866158db565b11949350505050565b60006143978261182c565b6143a3576101f4611d06565b61012c92915050565b600073db25C0af2d8D7Aa4e7A4d2f3AAe35B4EE99484b863ea866815866001600160a01b031663ddca3f436040518163ffffffff1660e01b8152600401602060405180830381865afa158015614406573d6000803e3d6000fd5b505050506040513d601f19601f8201168201806040525081019061442a91906158ee565b6040516001600160e01b031960e084901b16815262ffffff9091166004820152602401602060405180830381865af415801561446a573d6000803e3d6000fd5b505050506040513d601f19601f8201168201806040525081019061448e9190615d90565b90508360020b60001461456357806144a68186615938565b6144b09190615a8c565b60020b8460020b146040518060400160405280601981526020017f5533532d3320496e636f7272656374207469636b52616e6765000000000000008152509061450c5760405162461bcd60e51b81526004016104ec91906153f5565b50806145188185615938565b6145229190615a8c565b60020b8360020b14604051806060016040528060228152602001615e0d60229139906145615760405162461bcd60e51b81526004016104ec91906153f5565b505b6002868101805462ffffff60a01b1916600160a01b62ffffff85160217905560405163369eb6fb60e21b81526001600160a01b038716600482015285820b60248201529082900b604482015273456b0b574653d4D46980525B9794B03930b8E2e99063da7adbec906064016040805180830381865af41580156145ea573d6000803e3d6000fd5b505050506040513d601f19601f8201168201806040525081019061460e9190615dad565b60028801805465ffffffffffff60c81b1916600160e01b62ffffff9384160262ffffff60c81b191617600160c81b939092169290920217905560408051630dfe168160e01b815290516001600160a01b03871691630dfe16819160048083019260209291908290030181865afa15801561468c573d6000803e3d6000fd5b505050506040513d601f19601f820116820180604052508101906146b09190615845565b6001600160a01b0316826001600160a01b031614806147415750846001600160a01b031663d21220a76040518163ffffffff1660e01b8152600401602060405180830381865afa158015614708573d6000803e3d6000fd5b505050506040513d601f19601f8201168201806040525081019061472c9190615845565b6001600160a01b0316826001600160a01b0316145b60405180604001604052806015815260200174154cd4cb4d48125b98dbdc9c9958dd08185cdcd95d605a1b8152509061478d5760405162461bcd60e51b81526004016104ec91906153f5565b50846001600160a01b0316630dfe16816040518163ffffffff1660e01b8152600401602060405180830381865afa1580156147cc573d6000803e3d6000fd5b505050506040513d601f19601f820116820180604052508101906147f09190615845565b6001600160a01b0316826001600160a01b03160361491d57846001600160a01b0316630dfe16816040518163ffffffff1660e01b8152600401602060405180830381865afa158015614846573d6000803e3d6000fd5b505050506040513d601f19601f8201168201806040525081019061486a9190615845565b86546001600160a01b0319166001600160a01b039182161787556040805163d21220a760e01b815290519187169163d21220a7916004808201926020929091908290030181865afa1580156148c3573d6000803e3d6000fd5b505050506040513d601f19601f820116820180604052508101906148e79190615845565b6001870180546001600160a01b0319166001600160a01b039290921691909117905560038601805460ff60481b19169055614a36565b846001600160a01b031663d21220a76040518163ffffffff1660e01b8152600401602060405180830381865afa15801561495b573d6000803e3d6000fd5b505050506040513d601f19601f8201168201806040525081019061497f9190615845565b86546001600160a01b0319166001600160a01b0391821617875560408051630dfe168160e01b8152905191871691630dfe1681916004808201926020929091908290030181865afa1580156149d8573d6000803e3d6000fd5b505050506040513d601f19601f820116820180604052508101906149fc9190615845565b6001870180546001600160a01b03929092166001600160a01b031990921691909117905560038601805460ff60481b1916600160481b1790555b505050505050565b606081600003614a655750506040805180820190915260018152600360fc1b602082015290565b8160005b8115614a8f5780614a798161587b565b9150614a889050600a836156cd565b9150614a69565b60008167ffffffffffffffff811115614aaa57614aaa614e1e565b6040519080825280601f01601f191660200182016040528015614ad4576020820181803683370190505b5090505b8415610fe457614ae96001836158db565b9150614af6600a86615ddc565b614b019060306156e1565b60f81b818381518110614b1657614b16615608565b60200101906001600160f81b031916908160001a905350614b38600a866156cd565b9450614ad8565b6000818310614b4e5781611ed9565b5090919050565b6000614baa826040518060400160405280602081526020017f5361666545524332303a206c6f772d6c6576656c2063616c6c206661696c6564815250856001600160a01b0316614c279092919063ffffffff16565b8051909150156143595780806020019051810190614bc89190615a6f565b6143595760405162461bcd60e51b815260206004820152602a60248201527f5361666545524332303a204552433230206f7065726174696f6e20646964206e6044820152691bdd081cdd58d8d9595960b21b60648201526084016104ec565b6060610fe4848460008585600080866001600160a01b03168587604051614c4e9190615df0565b60006040518083038185875af1925050503d8060008114614c8b576040519150601f19603f3d011682016040523d82523d6000602084013e614c90565b606091505b5091509150614ca187838387614cac565b979650505050505050565b60608315614d1b578251600003614d14576001600160a01b0385163b614d145760405162461bcd60e51b815260206004820152601d60248201527f416464726573733a2063616c6c20746f206e6f6e2d636f6e747261637400000060448201526064016104ec565b5081610fe4565b610fe48383815115614d305781518083602001fd5b8060405162461bcd60e51b81526004016104ec91906153f5565b6001600160801b0381168114614d5f57600080fd5b50565b60008060408385031215614d7557600080fd5b823591506020830135614d8781614d4a565b809150509250929050565b600081518084526020808501945080840160005b83811015614dc257815187529582019590820190600101614da6565b509495945050505050565b602081526000611ed96020830184614d92565b600060208284031215614df257600080fd5b5035919050565b6001600160a01b0381168114614d5f57600080fd5b8035614e1981614df9565b919050565b634e487b7160e01b600052604160045260246000fd5b6040516080810167ffffffffffffffff81118282101715614e5757614e57614e1e565b60405290565b604051601f8201601f1916810167ffffffffffffffff81118282101715614e8657614e86614e1e565b604052919050565b600067ffffffffffffffff821115614ea857614ea8614e1e565b5060051b60200190565b600082601f830112614ec357600080fd5b81356020614ed8614ed383614e8e565b614e5d565b82815260059290921b84018101918181019086841115614ef757600080fd5b8286015b84811015614f125780358352918301918301614efb565b509695505050505050565b60008060008060808587031215614f3357600080fd5b8435614f3e81614df9565b9350602085810135614f4f81614df9565b9350604086013567ffffffffffffffff80821115614f6c57600080fd5b818801915088601f830112614f8057600080fd5b8135614f8e614ed382614e8e565b81815260059190911b8301840190848101908b831115614fad57600080fd5b938501935b82851015614fd4578435614fc581614df9565b82529385019390850190614fb2565b965050506060880135925080831115614fec57600080fd5b5050614ffa87828801614eb2565b91505092959194509250565b60008060006060848603121561501b57600080fd5b505081359360208301359350604090920135919050565b6000806040838503121561504557600080fd5b823591506020830135614d8781614df9565b60008060008060008060c0878903121561507057600080fd5b86359550602087013561508281614df9565b9450604087013561509281614df9565b9350606087013592506080870135915060a08701356150b081614df9565b809150509295509295509295565b6040815260006150d16040830185614d92565b905082151560208301529392505050565b6000602082840312156150f457600080fd5b8135611ed981614df9565b8015158114614d5f57600080fd5b8060020b8114614d5f57600080fd5b60008060008060008060c0878903121561513557600080fd5b8635615140816150ff565b9550602087013561515081614df9565b945060408701356151608161510d565b935060608701356151708161510d565b925060808701356151808161510d565b915060a08701356150b08161510d565b6000806000606084860312156151a557600080fd5b83356151b081614df9565b925060208401356151c081614df9565b915060408401356151d081614df9565b809150509250925092565b60008060008060008060c087890312156151f457600080fd5b86356151ff81614df9565b9550602087013561520f8161510d565b9450604087013561521f8161510d565b9350606087013567ffffffffffffffff81111561523b57600080fd5b61524789828a01614eb2565b935050608087013561525881614d4a565b915060a08701356150b0816150ff565b60608152600061527b6060830186614d92565b90508360208301526001600160801b0383166040830152949350505050565b600080604083850312156152ad57600080fd5b50508035926020909101359150565b600080600080600080600060e0888a0312156152d757600080fd5b8735965060208801356152e981614df9565b955060408801356152f981614df9565b9450606088013561530981614df9565b935060808801356153198161510d565b925060a08801356153298161510d565b915060c088013561533981614df9565b8091505092959891949750929550565b6000806000806080858703121561535f57600080fd5b843561536a81614df9565b9350602085013561537a8161510d565b9250604085013561538a8161510d565b9150606085013561539a816150ff565b939692955090935050565b60005b838110156153c05781810151838201526020016153a8565b50506000910152565b600081518084526153e18160208601602086016153a5565b601f01601f19169290920160200192915050565b602081526000611ed960208301846153c9565b600067ffffffffffffffff82111561542257615422614e1e565b50601f01601f191660200190565b60008060008060008060c0878903121561544957600080fd5b8635955060208088013561545c81614df9565b955060408801359450606088013567ffffffffffffffff8082111561548057600080fd5b908901906080828c03121561549457600080fd5b61549c614e34565b82356154a7816150ff565b8152828401358482015260408301356154bf81614df9565b60408201526060830135828111156154d657600080fd5b8084019350508b601f8401126154eb57600080fd5b823591506154fb614ed383615408565b8281528c8584860101111561550f57600080fd5b8285850186830137600085848301015280606083015250809650505050506080870135915061554060a08801614e0e565b90509295509295509295565b600081518084526020808501945080840160005b83811015614dc25781516001600160a01b031687529582019590820190600101615560565b606081526000615598606083018661554c565b82810360208401526155aa8186614d92565b905082810360408401526119c28185614d92565b600293840b81529190920b60208201526001600160801b03909116604082015260600190565b600080604083850312156155f757600080fd5b505080516020909101519092909150565b634e487b7160e01b600052603260045260246000fd5b6001600160a01b03959095168552600293840b60208601529190920b60408401526001600160801b03918216606084015216608082015260a00190565b6000806040838503121561566e57600080fd5b825161567981614d4a565b6020840151909250614d8781614d4a565b634e487b7160e01b600052601160045260246000fd5b8082028115828204841417611d0657611d0661568a565b634e487b7160e01b600052601260045260246000fd5b6000826156dc576156dc6156b7565b500490565b80820180821115611d0657611d0661568a565b6001600160801b038281168282160390808211156157145761571461568a565b5092915050565b805161ffff81168114614e1957600080fd5b805160ff81168114614e1957600080fd5b600080600080600080600060e0888a03121561575957600080fd5b875161576481614df9565b60208901519097506157758161510d565b95506157836040890161571b565b94506157916060890161571b565b935061579f6080890161571b565b92506157ad60a0890161572d565b915060c0880151615339816150ff565b6001600160a01b03949094168452600292830b6020850152910b60408301526001600160801b0316606082015260800190565b600060a08201905060018060a01b03808451168352602084015160020b6020840152604084015160020b60408401526001600160801b0360608501511660608401528060808501511660808401525092915050565b60006020828403121561585757600080fd5b8151611ed981614df9565b60006020828403121561587457600080fd5b5051919050565b60006001820161588d5761588d61568a565b5060010190565b6080815260006158a7608083018761554c565b82810360208401526158b98187614d92565b604084019590955250506001600160a01b039190911660609091015292915050565b81810381811115611d0657611d0661568a565b60006020828403121561590057600080fd5b815162ffffff81168114611ed957600080fd5b600282810b9082900b03627fffff198112627fffff82131715611d0657611d0661568a565b60008160020b8360020b8061594f5761594f6156b7565b627fffff198214600019821416156159695761596961568a565b90059392505050565b600281810b9083900b01627fffff8113627fffff1982121715611d0657611d0661568a565b6001600160a01b0391909116815260200190565b6001600160a01b03959095168552600293840b60208601529190920b60408401526060830191909152608082015260a00190565b6000806000606084860312156159f457600080fd5b835192506020840151915060408401516151d081614d4a565b6001600160a01b03949094168452600292830b6020850152910b60408301526001600160801b0316606082015260a06080820181905260009082015260c00190565b6001600160801b038181168382160190808211156157145761571461568a565b600060208284031215615a8157600080fd5b8151611ed9816150ff565b60008260020b8260020b028060020b91508082146157145761571461568a565b6000615aba614ed384615408565b9050828152838383011115615ace57600080fd5b611ed98360208301846153a5565b600060208284031215615aee57600080fd5b815167ffffffffffffffff811115615b0557600080fd5b8201601f81018413615b1657600080fd5b610fe484825160208401615aac565b8051151582526020810151602083015260018060a01b0360408201511660408301526000606082015160806060850152610fe460808501826153c9565b6001600160a01b038981168252888116602083015287811660408301526060820187905261010060808301819052600091615b9f84830189615b25565b60a085019790975260c08401959095525050911660e09091015295945050505050565b600060018060a01b03808a16835288602084015287604084015260e06060840152615bf060e0840188615b25565b608084019690965260a083019490945250911660c090910152949350505050565b6502ab734ab19960d51b815260008451615c328160068501602089016153a5565b602f60f81b6006918401918201528451615c538160078401602089016153a5565b602d60f81b600792909101918201528351615c758160088401602088016153a5565b0160080195945050505050565b600060208284031215615c9457600080fd5b611ed98261572d565b600181815b80851115615cd8578160001904821115615cbe57615cbe61568a565b80851615615ccb57918102915b93841c9390800290615ca2565b509250929050565b600082615cef57506001611d06565b81615cfc57506000611d06565b8160018114615d125760028114615d1c57615d38565b6001915050611d06565b60ff841115615d2d57615d2d61568a565b50506001821b611d06565b5060208310610133831016604e8410600b8410161715615d5b575081810a611d06565b615d658383615c9d565b8060001904821115615d7957615d7961568a565b029392505050565b6000611ed960ff841683615ce0565b600060208284031215615da257600080fd5b8151611ed98161510d565b60008060408385031215615dc057600080fd5b8251615dcb8161510d565b6020840151909250614d878161510d565b600082615deb57615deb6156b7565b500690565b60008251615e028184602087016153a5565b919091019291505056fe5533532d3420496e636f727265637420726562616c616e63655469636b52616e67655533532d3133205a65726f2073747261746567792070726f66697420686f6c646572a2646970667358221220ffdabc249e2706ee943e01dbad2a8cde75b864a09f18dca89c6e07a79da3af3f64736f6c63430008110033",
  "deployedBytecode": "0x73000000000000000000000000000000000000000030146080604052600436106101575760003560e01c80637fd6c0a1116100cd578063c65138de11610086578063c65138de1461037c578063c68bb8f21461038f578063ce74e5d9146103be578063d6f43ad8146103cc578063ec4955b9146103df578063ef3475ac146103ff57600080fd5b80637fd6c0a1146102ba57806380089367146102cd57806388f3bd5e146102fc578063928f84931461031c578063a1d439891461033c578063c06474231461035c57600080fd5b806336bddd651161011f57806336bddd651461020157806337eb91fc1461022357806343478f171461024357806354747e5b1461027157806357d59aae146102945780635ca1bcdf146102a757600080fd5b806302c8fd911461015c5780630a65e5e714610192578063190fa314146101a5578063345aec36146101cd57806334d2ec3d146101e0575b600080fd5b81801561016857600080fd5b5061017c610177366004614d62565b610436565b6040516101899190614dcd565b60405180910390f35b61017c6101a0366004614de0565b610913565b6101b86101b3366004614de0565b610c28565b60408051928352602083019190915201610189565b6101b86101db366004614de0565b610c62565b6101f36101ee366004614f1d565b610e2a565b604051908152602001610189565b81801561020d57600080fd5b5061022161021c366004615006565b610fec565b005b81801561022f57600080fd5b5061022161023e366004615032565b6110ef565b81801561024f57600080fd5b5061026361025e366004615057565b61114c565b6040516101899291906150be565b61028461027f3660046150e2565b61182c565b6040519015158152602001610189565b6102846102a236600461511c565b61189f565b6102846102b5366004615032565b6119cc565b6101f36102c8366004615190565b611d0c565b8180156102d957600080fd5b506102ed6102e83660046151db565b611ee0565b60405161018993929190615268565b81801561030857600080fd5b5061022161031736600461529a565b6121b0565b81801561032857600080fd5b506102216103373660046152bc565b6121ee565b61034f61034a366004615349565b6124f0565b60405161018991906153f5565b81801561036857600080fd5b5061017c610377366004615430565b612596565b61017c61038a366004614d62565b612c46565b81801561039b57600080fd5b506103af6103aa366004614de0565b612fa9565b60405161018993929190615585565b6101f36611c37937e0800081565b61034f6103da366004614de0565b6136d3565b8180156103eb57600080fd5b506102216103fa366004614de0565b613864565b81801561040b57600080fd5b5061041f61041a366004615032565b613e3f565b604080519215158352602083019190915201610189565b600282810154600384015460048501546040805180820190915260158152745533532d372057726f6e67206c697175696469747960581b60208201526060946000946001600160a01b03811694600160c81b8204830b94600160e01b909204830b9381840b9363010000008304900b92600160501b83046001600160801b039081169391811692600160481b90920460ff1691908c168410156104f55760405162461bcd60e51b81526004016104ec91906153f5565b60405180910390fd5b506040805160028082526060820183529091602083019080368337019050509950876001600160a01b031663a34123a788888e6040518463ffffffff1660e01b8152600401610546939291906155be565b60408051808303816000875af1158015610564573d6000803e3d6000fd5b505050506040513d601f19601f8201168201806040525081019061058891906155e4565b8b60008151811061059b5761059b615608565b602002602001018c6001815181106105b5576105b5615608565b6020908102919091010191909152526040516309e3d67b60e31b81526001600160a01b03891690634f1eb3d8906105ff9030908b908b906001600160801b0390819060040161561e565b60408051808303816000875af115801561061d573d6000803e3d6000fd5b505050506040513d601f19601f82011682018060405250810190610641919061565b565b50506001600160801b03821615610841576000836001600160801b03168c6001600160801b0316846001600160801b031661067c91906156a0565b61068691906156cd565b90506000808a6001600160a01b031663a34123a78989866040518463ffffffff1660e01b81526004016106bb939291906155be565b60408051808303816000875af11580156106d9573d6000803e3d6000fd5b505050506040513d601f19601f820116820180604052508101906106fd91906155e4565b6040516309e3d67b60e31b815291935091506001600160a01b038c1690634f1eb3d89061073d9030908c908c906001600160801b0390819060040161561e565b60408051808303816000875af115801561075b573d6000803e3d6000fd5b505050506040513d601f19601f8201168201806040525081019061077f919061565b565b5050818d60008151811061079557610795615608565b602002602001018181516107a991906156e1565b9052508c5181908e9060019081106107c3576107c3615608565b602002602001018181516107d791906156e1565b90525060408051808201909152601281527105533532d382057726f6e672066696c6c75760741b60208201526001600160801b0380851690871610156108305760405162461bcd60e51b81526004016104ec91906153f5565b5061083b83866156f4565b9b505050505b61084b8b846156f4565b60038d018054600160501b600160d01b031916600160501b6001600160801b039384160217905560048d0180546001600160801b031916918b16919091179055801561090457896001815181106108a4576108a4615608565b60200260200101518a6000815181106108bf576108bf615608565b60200260200101518b6000815181106108da576108da615608565b602002602001018c6001815181106108f4576108f4615608565b6020908102919091010191909152525b50505050505050505092915050565b604080516002808252606080830184529260208301908036833701905050905060008260020160009054906101000a90046001600160a01b03166001600160a01b0316633850c7bd6040518163ffffffff1660e01b815260040160e060405180830381865afa15801561098a573d6000803e3d6000fd5b505050506040513d601f19601f820116820180604052508101906109ae919061573e565b505050506002868101546003880154604051630544f36560e31b815295965073__$0c70757f598a889e7e5bdfcf0bf5e1f3f7$__95632a279b289550610a1e94508793600160c81b8404810b93600160e01b9004900b91600160501b90046001600160801b0316906004016157bd565b6040805180830381865af4158015610a3a573d6000803e3d6000fd5b505050506040513d601f19601f82011682018060405250810190610a5e91906155e4565b83600081518110610a7157610a71615608565b6020026020010184600181518110610a8b57610a8b615608565b6020908102919091010191909152526003830154600480850154604051630544f36560e31b8152600093849373__$0c70757f598a889e7e5bdfcf0bf5e1f3f7$__93632a279b2893610afc938993600282810b946301000000909304900b926001600160801b0390921691016157bd565b6040805180830381865af4158015610b18573d6000803e3d6000fd5b505050506040513d601f19601f82011682018060405250810190610b3c91906155e4565b915091508184600081518110610b5457610b54615608565b60200260200101818151610b6891906156e1565b9052508351819085906001908110610b8257610b82615608565b60200260200101818151610b9691906156e1565b9052506003850154600160481b900460ff1615610c205783600181518110610bc057610bc0615608565b602002602001015184600081518110610bdb57610bdb615608565b602002602001015185600081518110610bf657610bf6615608565b6020026020010186600181518110610c1057610c10615608565b6020908102919091010191909152525b505050919050565b80546000908190610c41906001600160a01b0316614297565b6001840154909250610c5b906001600160a01b0316614297565b9050915091565b6040805160a0810182526002838101546001600160a01b0381168352600160c81b8104820b6020840152600160e01b9004900b818301526003830154600160501b90046001600160801b0316606082015230608082015290516352bb7e6960e01b8152600091829173__$0c70757f598a889e7e5bdfcf0bf5e1f3f7$__906352bb7e6990610cf49084906004016157f0565b6040805180830381865af4158015610d10573d6000803e3d6000fd5b505050506040513d601f19601f82011682018060405250810190610d3491906155e4565b6040805160a0810182526002808901546001600160a01b03168252600389015480820b602084015263010000009004900b818301526004808901546001600160801b0316606083015230608083015291516352bb7e6960e01b81529396509194509091600091829173__$0c70757f598a889e7e5bdfcf0bf5e1f3f7$__916352bb7e6991610dc4918791016157f0565b6040805180830381865af4158015610de0573d6000803e3d6000fd5b505050506040513d601f19601f82011682018060405250810190610e0491906155e4565b9092509050610e1382876156e1565b9550610e1f81866156e1565b945050505050915091565b600080846001600160a01b0316634046ebae6040518163ffffffff1660e01b8152600401602060405180830381865afa158015610e6b573d6000803e3d6000fd5b505050506040513d601f19601f82011682018060405250810190610e8f9190615845565b84519091506000805b82811015610fde576000878281518110610eb457610eb4615608565b60200260200101519050896001600160a01b0316816001600160a01b031603610f0357868281518110610ee957610ee9615608565b602002602001015183610efc91906156e1565b9250610fcd565b846001600160a01b031663a9dd14d6898481518110610f2457610f24615608565b60200260200101518c8a8681518110610f3f57610f3f615608565b60209081029190910101516040516001600160e01b031960e086901b1681526001600160a01b0393841660048201529290911660248301526044820152606401602060405180830381865afa158015610f9c573d6000803e3d6000fd5b505050506040513d601f19601f82011682018060405250810190610fc09190615862565b610fca90846156e1565b92505b50610fd78161587b565b9050610e98565b50925050505b949350505050565b600b830154604080516060810190915260228082526001600160a01b03909216918215159190615e2f6020830139906110385760405162461bcd60e51b81526004016104ec91906153f5565b506003840154600160481b900460ff1615611081578354611063906001600160a01b03168284614307565b600184015461107c906001600160a01b03168285614307565b6110b0565b8354611097906001600160a01b03168285614307565b60018401546110b0906001600160a01b03168284614307565b60408051848152602081018490527fd809a30c675e811f2837e53a49b9409406bb7e6f808658eef60d09ac30579e89910160405180910390a150505050565b60088201805460ff191690558154600183015461111a9183916001600160a01b039182169116611d0c565b600a8301556040517f6b7ccec41cff3829e74e9b70bba25fca03418511799dd79dc80d774f15f35e1b90600090a15050565b6040805160008082526020820190925260609190819092506000915060006040518061020001604052808b600201601c9054906101000a900460020b60020b81526020018b60020160199054906101000a900460020b60020b81526020018b60020160149054906101000a900460020b60020b81526020018b60020160009054906101000a90046001600160a01b03166001600160a01b031681526020018b60000160009054906101000a90046001600160a01b03166001600160a01b031681526020018b60010160009054906101000a90046001600160a01b03166001600160a01b031681526020018b600a015481526020018b6009015481526020018b60030160099054906101000a900460ff161515815260200160008152602001600060020b8152602001600060020b81526020018b60020160179054906101000a900460ff16151581526020018b60020160189054906101000a900460ff161515815260200160008152602001600081525090506112fe8a60080160009054906101000a900460ff1682606001518360200151846000015185604001518f60030160069054906101000a900460020b61189f565b60405180604001604052806019815260200178154cd4cb4e48139bc81c9958985b185b98d9481b9959591959603a1b8152509061134e5760405162461bcd60e51b81526004016104ec91906153f5565b506113628982608001518360a00151611d0c565b6101c08201526101a0810151801561138d575061138d8160c00151826101c001518360e0015161435e565b1561149a5760088a01805460ff191660011790556040517fb224dccea3c30282a142bed3cedb7af1657907dea7dc2828fb9ce06007f3159490600090a173__$105aa07724e80e292e8a4b4cc62d6ec972$__63310135b88a8a846060015185608001518660a00151611402886060015161438c565b6040516001600160e01b031960e089901b1681526001600160a01b0396871660048201529486166024860152928516604485015290841660648401528316608483015260a482015260c481018a905260e481018b90529088166101048201526101240160006040518083038186803b15801561147d57600080fd5b505af4158015611491573d6000803e3d6000fd5b5050505061176d565b73__$105aa07724e80e292e8a4b4cc62d6ec972$__63fce032fe8a8a8d6114c4866060015161438c565b6040516001600160e01b031960e087901b1681526001600160a01b039485166004820152928416602484015260448301919091526064820152608481018a905260a481018b905290881660c482015260e40160006040518083038186803b15801561152e57600080fd5b505af4158015611542573d6000803e3d6000fd5b506002925061154f915050565b604051908082528060200260200182016040528015611578578160200160208202803683370190505b5093506115888160800151614297565b8460008151811061159b5761159b615608565b6020026020010181815250506115b48160a00151614297565b846001815181106115c7576115c7615608565b602002602001018181525050806101800151156115e357600192505b60408051600280825260608201835260009260208301908036833701905050905081608001518160008151811061161c5761161c615608565b60200260200101906001600160a01b031690816001600160a01b0316815250508160a001518160018151811061165457611654615608565b6001600160a01b03929092166020928302919091018201526040805160028082526060820183526000939192909183019080368337019050509050856000815181106116a2576116a2615608565b6020026020010151816000815181106116bd576116bd615608565b602002602001018181525050734dc0dfffd2de28f7a822fe1139127e3dc1af86fa63c9bce690838360008f6040518563ffffffff1660e01b81526004016117079493929190615894565b602060405180830381865af4158015611724573d6000803e3d6000fd5b505050506040513d601f19601f820116820180604052508101906117489190615862565b6101e0840181905289111561176a576101e0830151611767908a6158db565b93505b50505b806101a0015115611784576101c0810151600a8b01555b81156117ec57604051630855081f60e01b815260006004820152602481018390526001600160a01b03861690630855081f90604401600060405180830381600087803b1580156117d357600080fd5b505af11580156117e7573d6000803e3d6000fd5b505050505b6040518281527fc306af072396b02bf3a9782c10065cc7ff4aa842934a43f0b76f997b291237c89060200160405180910390a15050965096945050505050565b6000816001600160a01b031663ddca3f436040518163ffffffff1660e01b8152600401602060405180830381865afa15801561186c573d6000803e3d6000fd5b505050506040513d601f19601f8201168201806040525081019061189091906158ee565b62ffffff166064149050919050565b600086156118af575060006119c2565b6000866001600160a01b0316633850c7bd6040518163ffffffff1660e01b815260040160e060405180830381865afa1580156118ef573d6000803e3d6000fd5b505050506040513d601f19601f82011682018060405250810190611913919061573e565b50505050509150508360020b868661192b9190615913565b60020b03611955578560020b8160020b128061194d57508460020b8160020b12155b9150506119c2565b600060026119638888615913565b61196d9190615938565b9050600061197b8289615972565b90508060020b8360020b13156119a957600285900b61199a8285615913565b60020b121593505050506119c2565b600285900b6119b88483615913565b60020b1393505050505b9695505050505050565b60008060006119da85610c62565b60038701549193509150600160481b900460ff16156119f557905b84546001860154600b8701546040516370a0823160e01b81526001600160a01b0393841693928316929091169083906370a0823190611a38908490600401615997565b602060405180830381865afa158015611a55573d6000803e3d6000fd5b505050506040513d601f19601f82011682018060405250810190611a799190615862565b611a8390866156e1565b6040516370a0823160e01b81529095506001600160a01b038316906370a0823190611ab2908490600401615997565b602060405180830381865afa158015611acf573d6000803e3d6000fd5b505050506040513d601f19601f82011682018060405250810190611af39190615862565b611afd90856156e1565b93506000876001600160a01b031663f77c47916040518163ffffffff1660e01b8152600401602060405180830381865afa158015611b3f573d6000803e3d6000fd5b505050506040513d601f19601f82011682018060405250810190611b639190615845565b6001600160a01b0316632630c12f6040518163ffffffff1660e01b8152600401602060405180830381865afa158015611ba0573d6000803e3d6000fd5b505050506040513d601f19601f82011682018060405250810190611bc49190615845565b90506000816001600160a01b031663b3596f07866040518263ffffffff1660e01b8152600401611bf49190615997565b602060405180830381865afa158015611c11573d6000803e3d6000fd5b505050506040513d601f19601f82011682018060405250810190611c359190615862565b90506000826001600160a01b031663b3596f07866040518263ffffffff1660e01b8152600401611c659190615997565b602060405180830381865afa158015611c82573d6000803e3d6000fd5b505050506040513d601f19601f82011682018060405250810190611ca69190615862565b90506000670de0b6b3a7640000611cbd848b6156a0565b611cc791906156cd565b90506000670de0b6b3a7640000611cde848b6156a0565b611ce891906156cd565b90506064821180611cf95750606481115b9a50505050505050505050505b92915050565b600080846001600160a01b031663f77c47916040518163ffffffff1660e01b8152600401602060405180830381865afa158015611d4d573d6000803e3d6000fd5b505050506040513d601f19601f82011682018060405250810190611d719190615845565b6001600160a01b0316632630c12f6040518163ffffffff1660e01b8152600401602060405180830381865afa158015611dae573d6000803e3d6000fd5b505050506040513d601f19601f82011682018060405250810190611dd29190615845565b90506000816001600160a01b031663b3596f07866040518263ffffffff1660e01b8152600401611e029190615997565b602060405180830381865afa158015611e1f573d6000803e3d6000fd5b505050506040513d601f19601f82011682018060405250810190611e439190615862565b90506000826001600160a01b031663b3596f07866040518263ffffffff1660e01b8152600401611e739190615997565b602060405180830381865afa158015611e90573d6000803e3d6000fd5b505050506040513d601f19601f82011682018060405250810190611eb49190615862565b905081611ec982670de0b6b3a76400006156a0565b611ed391906156cd565b93505050505b9392505050565b60408051600280825260608281019093526000918291816020016020820280368337019050509250600086600181518110611f1d57611f1d615608565b602002602001015111156121a4578315611fa45785600181518110611f4457611f44615608565b602002602001015186600081518110611f5f57611f5f615608565b602002602001015187600081518110611f7a57611f7a615608565b6020026020010188600181518110611f9457611f94615608565b6020908102919091010191909152525b600073__$0c70757f598a889e7e5bdfcf0bf5e1f3f7$__6317c22c3c8b8b8b8b600081518110611fd657611fd6615608565b60200260200101518c600181518110611ff157611ff1615608565b60200260200101516040518663ffffffff1660e01b81526004016120199594939291906159ab565b606060405180830381865af4158015612036573d6000803e3d6000fd5b505050506040513d601f19601f8201168201806040525081019061205a91906159df565b8660008151811061206d5761206d615608565b602002602001018760018151811061208757612087615608565b6020908102919091010192909252919052604051633c8a7d8d60e01b81529091506001600160a01b038b1690633c8a7d8d906120cd9030908d908d908790600401615a0d565b60408051808303816000875af11580156120eb573d6000803e3d6000fd5b505050506040513d601f19601f8201168201806040525081019061210f91906155e4565b50506001600160801b03811692506121278187615a4f565b915084156121a2578360018151811061214257612142615608565b60200260200101518460008151811061215d5761215d615608565b60200260200101518560008151811061217857612178615608565b602002602001018660018151811061219257612192615608565b6020908102919091010191909152525b505b96509650969350505050565b600982018190556040518181527fdf3e0a21768880619b1295cb9519494a0df71943ebb4ff056f72186cfcfb6d479060200160405180910390a15050565b60408051808201909152601181527054532d31207a65726f206164647265737360781b60208201526001600160a01b03851661223d5760405162461bcd60e51b81526004016104ec91906153f5565b506002870180546001600160a01b0319166001600160a01b03861617905560038701805468ffffff0000000000001916600160301b62ffffff85160217905561228987858585856143ac565b6000866001600160a01b0316634046ebae6040518163ffffffff1660e01b8152600401602060405180830381865afa1580156122c9573d6000803e3d6000fd5b505050506040513d601f19601f820116820180604052508101906122ed9190615845565b885460405163095ea7b360e01b81526001600160a01b038084166004830152600019602483015292935091169063095ea7b3906044016020604051808303816000875af1158015612342573d6000803e3d6000fd5b505050506040513d601f19601f820116820180604052508101906123669190615a6f565b50600188015460405163095ea7b360e01b81526001600160a01b03838116600483015260001960248301529091169063095ea7b3906044016020604051808303816000875af11580156123bd573d6000803e3d6000fd5b505050506040513d601f19601f820116820180604052508101906123e19190615a6f565b506002808901546123fd91600160a01b909104900b6004615a8c565b60028981015491810b9161242391600160c81b8204810b91600160e01b9004900b615913565b60028a8101805460ff60b81b1981169390920b9390931215600160b81b0291821790925561245e916001600160a01b0390811691161761182c565b156124e65760028801805460ff60c01b1916600160c01b1790556611c37937e08000600989018190556040517fdf3e0a21768880619b1295cb9519494a0df71943ebb4ff056f72186cfcfb6d47916124b99190815260200190565b60405180910390a1875460018901546124e09188916001600160a01b039182169116611d0c565b600a8901555b5050505050505050565b60405163a1d4398960e01b81526001600160a01b0385166004820152600284810b602483015283900b6044820152811515606482015260609073__$105aa07724e80e292e8a4b4cc62d6ec972$__9063a1d4398990608401600060405180830381865af4158015612565573d6000803e3d6000fd5b505050506040513d6000823e601f3d908101601f1916820160405261258d9190810190615adc565b95945050505050565b604080516000808252602082019092526002880154909190600160b81b900460ff16156125ff5760405162461bcd60e51b815260206004820152601760248201527627b7363c903337b91039bbb0b81039ba3930ba32b3bc9760491b60448201526064016104ec565b60006040518061020001604052808a600201601c9054906101000a900460020b60020b81526020018a60020160199054906101000a900460020b60020b81526020018a60020160149054906101000a900460020b60020b81526020018a60020160009054906101000a90046001600160a01b03166001600160a01b031681526020018a60000160009054906101000a90046001600160a01b03166001600160a01b031681526020018a60010160009054906101000a90046001600160a01b03166001600160a01b031681526020018a600a015481526020018a6009015481526020018a60030160099054906101000a900460ff161515815260200160008152602001600060020b8152602001600060020b81526020018a60020160179054906101000a900460ff16151581526020018a60020160189054906101000a900460ff161515815260200160008152602001600081525090506127958960080160009054906101000a900460ff1682606001518360200151846000015185604001518e60030160069054906101000a900460020b61189f565b60405180604001604052806019815260200178154cd4cb4e48139bc81c9958985b185b98d9481b9959591959603a1b815250906127e55760405162461bcd60e51b81526004016104ec91906153f5565b506127f98882608001518360a00151611d0c565b6101c08201526101a0810151801561282457506128248160c00151826101c001518360e0015161435e565b156128ef5760088901805460ff191660011790556040517fb224dccea3c30282a142bed3cedb7af1657907dea7dc2828fb9ce06007f3159490600090a173__$105aa07724e80e292e8a4b4cc62d6ec972$__6319ee6a3a8983608001518460a00151612893866060015161438c565b8b8b8e8c6040518963ffffffff1660e01b81526004016128ba989796959493929190615b62565b60006040518083038186803b1580156128d257600080fd5b505af41580156128e6573d6000803e3d6000fd5b50505050612b88565b73__$105aa07724e80e292e8a4b4cc62d6ec972$__63f6cc5c2c898b612918856060015161438c565b8a8a8d8b6040518863ffffffff1660e01b815260040161293e9796959493929190615bc2565b60006040518083038186803b15801561295657600080fd5b505af415801561296a573d6000803e3d6000fd5b5060029250612977915050565b6040519080825280602002602001820160405280156129a0578160200160208202803683370190505b5092506129b08160800151614297565b836000815181106129c3576129c3615608565b6020026020010181815250506129dc8160a00151614297565b836001815181106129ef576129ef615608565b602090810291909101015260408051600280825260608201909252600091816020016020820280368337019050509050816080015181600081518110612a3757612a37615608565b60200260200101906001600160a01b031690816001600160a01b0316815250508160a0015181600181518110612a6f57612a6f615608565b6001600160a01b0392909216602092830291909101820152604080516002808252606082018352600093919290918301908036833701905050905084600081518110612abd57612abd615608565b602002602001015181600081518110612ad857612ad8615608565b602002602001018181525050734dc0dfffd2de28f7a822fe1139127e3dc1af86fa63c9bce690838360008e6040518563ffffffff1660e01b8152600401612b229493929190615894565b602060405180830381865af4158015612b3f573d6000803e3d6000fd5b505050506040513d601f19601f82011682018060405250810190612b639190615862565b6101e08401819052891115612b85576101e0830151612b82908a6158db565b93505b50505b806101a0015115612b9f576101c0810151600a8a01555b8115612c0757604051630855081f60e01b815260006004820152602481018390526001600160a01b03851690630855081f90604401600060405180830381600087803b158015612bee57600080fd5b505af1158015612c02573d6000803e3d6000fd5b505050505b6040518281527fc306af072396b02bf3a9782c10065cc7ff4aa842934a43f0b76f997b291237c89060200160405180910390a150509695505050505050565b6003820154600483015460408051600280825260608083018452946001600160801b03600160501b909104811694169260208301908036833701905050925060008560020160009054906101000a90046001600160a01b03166001600160a01b0316633850c7bd6040518163ffffffff1660e01b815260040160e060405180830381865afa158015612cdc573d6000803e3d6000fd5b505050506040513d601f19601f82011682018060405250810190612d00919061573e565b50505050600289810154604051630544f36560e31b815294955073__$0c70757f598a889e7e5bdfcf0bf5e1f3f7$__94632a279b289450612d5c93508692600160c81b8304810b92600160e01b9004900b908b906004016157bd565b6040805180830381865af4158015612d78573d6000803e3d6000fd5b505050506040513d601f19601f82011682018060405250810190612d9c91906155e4565b85600081518110612daf57612daf615608565b6020026020010186600181518110612dc957612dc9615608565b6020908102919091010191909152526001600160801b03831615801590612df957506000826001600160801b0316115b15612f19576003860154600090819073__$0c70757f598a889e7e5bdfcf0bf5e1f3f7$__90632a279b28908590600281810b9163010000009004900b6001600160801b03808b1690612e50908e8116908c166156a0565b612e5a91906156cd565b6040518563ffffffff1660e01b8152600401612e7994939291906157bd565b6040805180830381865af4158015612e95573d6000803e3d6000fd5b505050506040513d601f19601f82011682018060405250810190612eb991906155e4565b915091508186600081518110612ed157612ed1615608565b60200260200101818151612ee591906156e1565b9052508551819087906001908110612eff57612eff615608565b60200260200101818151612f1391906156e1565b90525050505b6003860154600160481b900460ff1615612fa05783600181518110612f4057612f40615608565b602002602001015184600081518110612f5b57612f5b615608565b602002602001015185600081518110612f7657612f76615608565b6020026020010186600181518110612f9057612f90615608565b6020908102919091010191909152525b50505092915050565b600b8101546002808301546003840154604080518481526060808201835295869586956001600160a01b039283169592811694600160c81b8204830b94600160e01b909204830b9380840b936301000000909104810b929160208301908036833750508b548251929b506001600160a01b0316918b915060009061302f5761302f615608565b6001600160a01b0392831660209182029290920101526001808c01548b519216918b9190811061306157613061615608565b6001600160a01b039290921660209283029190910182015260408051600280825260608201835290929091908301908036833701905050965060005b895181101561315b578981815181106130b8576130b8615608565b60200260200101516001600160a01b03166370a08231306040518263ffffffff1660e01b81526004016130eb9190615997565b602060405180830381865afa158015613108573d6000803e3d6000fd5b505050506040513d601f19601f8201168201806040525081019061312c9190615862565b88828151811061313e5761313e615608565b6020908102919091010152806131538161587b565b91505061309d565b5060408051600280825260608201835290916020830190803683370190505060038b0154909850600160501b90046001600160801b0316156132de5760405163a34123a760e01b81526001600160a01b0386169063a34123a7906131c890879087906000906004016155be565b60408051808303816000875af11580156131e6573d6000803e3d6000fd5b505050506040513d601f19601f8201168201806040525081019061320a91906155e4565b50506040516309e3d67b60e31b81526001600160a01b03861690634f1eb3d890613247903090889088906001600160801b0390819060040161561e565b60408051808303816000875af1158015613265573d6000803e3d6000fd5b505050506040513d601f19601f82011682018060405250810190613289919061565b565b816001600160801b03169150806001600160801b03169050896000815181106132b4576132b4615608565b602002602001018a6001815181106132ce576132ce615608565b6020908102919091010191909152525b60048a01546001600160801b0316156134585760405163a34123a760e01b81526001600160a01b0386169063a34123a79061332290859085906000906004016155be565b60408051808303816000875af1158015613340573d6000803e3d6000fd5b505050506040513d601f19601f8201168201806040525081019061336491906155e4565b5050600080866001600160a01b0316634f1eb3d83086866001600160801b03806040518663ffffffff1660e01b81526004016133a495949392919061561e565b60408051808303816000875af11580156133c2573d6000803e3d6000fd5b505050506040513d601f19601f820116820180604052508101906133e6919061565b565b6001600160801b031691506001600160801b03169150818a60008151811061341057613410615608565b6020026020010181815161342491906156e1565b905250895181908b90600190811061343e5761343e615608565b6020026020010181815161345291906156e1565b90525050505b7fd809a30c675e811f2837e53a49b9409406bb7e6f808658eef60d09ac30579e898860008151811061348c5761348c615608565b6020026020010151896001815181106134a7576134a7615608565b60200260200101516040516134c6929190918252602082015260400190565b60405180910390a160038a0154600160481b900460ff161561355557876001815181106134f5576134f5615608565b60200260200101518860008151811061351057613510615608565b60200260200101518960008151811061352b5761352b615608565b602002602001018a60018151811061354557613545615608565b6020908102919091010191909152525b60005b89518110156136c55760008a828151811061357557613575615608565b60200260200101516001600160a01b03166370a08231896040518263ffffffff1660e01b81526004016135a89190615997565b602060405180830381865afa1580156135c5573d6000803e3d6000fd5b505050506040513d601f19601f820116820180604052508101906135e99190615862565b905080156136b4578a828151811061360357613603615608565b60209081029190910101516040516323b872dd60e01b81526001600160a01b038a8116600483015230602483015260448201849052909116906323b872dd906064016020604051808303816000875af1158015613664573d6000803e3d6000fd5b505050506040513d601f19601f820116820180604052508101906136889190615a6f565b50808a838151811061369c5761369c615608565b602002602001018181516136b091906156e1565b9052505b506136be8161587b565b9050613558565b505050505050509193909250565b8054604080516395d89b4160e01b815290516060926001600160a01b0316916395d89b419160048083019260009291908290030181865afa15801561371c573d6000803e3d6000fd5b505050506040513d6000823e601f3d908101601f191682016040526137449190810190615adc565b8260010160009054906101000a90046001600160a01b03166001600160a01b03166395d89b416040518163ffffffff1660e01b8152600401600060405180830381865afa158015613799573d6000803e3d6000fd5b505050506040513d6000823e601f3d908101601f191682016040526137c19190810190615adc565b60028401546040805163ddca3f4360e01b8152905161383c926001600160a01b03169163ddca3f439160048083019260209291908290030181865afa15801561380e573d6000803e3d6000fd5b505050506040513d601f19601f8201168201806040525081019061383291906158ee565b62ffffff16614a3e565b60405160200161384e93929190615c11565b6040516020818303038152906040529050919050565b60028082015460408051630dfe168160e01b81529051600093849384936001600160a01b03821693600160c81b8304840b93600160e01b8404810b93600160a01b9004900b918691613906918791630dfe1681916004808201926020929091908290030181865afa1580156138dd573d6000803e3d6000fd5b505050506040513d601f19601f820116820180604052508101906139019190615845565b614297565b9050600061394b866001600160a01b031663d21220a76040518163ffffffff1660e01b8152600401602060405180830381865afa1580156138dd573d6000803e3d6000fd5b9050600082118061395c5750600081115b15613e33576000866001600160a01b0316633850c7bd6040518163ffffffff1660e01b815260040160e060405180830381865afa1580156139a1573d6000803e3d6000fd5b505050506040513d601f19601f820116820180604052508101906139c5919061573e565b5050505050915050866001600160a01b031663d21220a76040518163ffffffff1660e01b8152600401602060405180830381865afa158015613a0b573d6000803e3d6000fd5b505050506040513d601f19601f82011682018060405250810190613a2f9190615845565b6001600160a01b031663313ce5676040518163ffffffff1660e01b8152600401602060405180830381865afa158015613a6c573d6000803e3d6000fd5b505050506040513d601f19601f82011682018060405250810190613a909190615c82565b613a9b90600a615d81565b73__$0c70757f598a889e7e5bdfcf0bf5e1f3f7$__63ac41865a898a6001600160a01b031663d21220a76040518163ffffffff1660e01b8152600401602060405180830381865afa158015613af4573d6000803e3d6000fd5b505050506040513d601f19601f82011682018060405250810190613b189190615845565b6040516001600160e01b031960e085901b1681526001600160a01b03928316600482015291166024820152604401602060405180830381865af4158015613b63573d6000803e3d6000fd5b505050506040513d601f19601f82011682018060405250810190613b879190615862565b613b9190846156a0565b613b9b91906156cd565b831115613cc8578380613bae8184615938565b613bb89190615a8c565b613bc29190615972565b995084985073__$0c70757f598a889e7e5bdfcf0bf5e1f3f7$__6317c22c3c888c8c8760006040518663ffffffff1660e01b8152600401613c079594939291906159ab565b606060405180830381865af4158015613c24573d6000803e3d6000fd5b505050506040513d601f19601f82011682018060405250810190613c4891906159df565b604051633c8a7d8d60e01b8152909a506001600160a01b038a169250633c8a7d8d9150613c7f9030908e908e908e90600401615a0d565b60408051808303816000875af1158015613c9d573d6000803e3d6000fd5b505050506040513d601f19601f82011682018060405250810190613cc191906155e4565b5050613ded565b85995083848583613cd99190615938565b613ce39190615a8c565b613ced9190615913565b6040516305f08b0f60e21b815290995073__$0c70757f598a889e7e5bdfcf0bf5e1f3f7$__906317c22c3c90613d30908a908e908e9060009089906004016159ab565b606060405180830381865af4158015613d4d573d6000803e3d6000fd5b505050506040513d601f19601f82011682018060405250810190613d7191906159df565b604051633c8a7d8d60e01b8152909a506001600160a01b038a169250633c8a7d8d9150613da89030908e908e908e90600401615a0d565b60408051808303816000875af1158015613dc6573d6000803e3d6000fd5b505050506040513d601f19601f82011682018060405250810190613dea91906155e4565b50505b5060038a01805462ffffff8a811663010000000265ffffffffffff19909216908c161717905560048a0180546001600160801b0389166001600160801b03199091161790555b50505050505050505050565b8154600183015460028401546040516303e6ee5360e31b81526001600160a01b03858116600483015293841660248201819052928416604482018190526000948594939192911690849073__$105aa07724e80e292e8a4b4cc62d6ec972$__90631f37729890606401602060405180830381865af4158015613ec5573d6000803e3d6000fd5b505050506040513d601f19601f82011682018060405250810190613ee99190615862565b6002890154909150600160b81b900460ff1680613f4b575060088801546002808a015460038b0154613f499360ff16928692600160c81b8104820b92600160e01b8204830b92600160a01b909204820b91600160301b909104900b61189f565b155b80613fde5750604051638c56287960e01b8152600481018290526001600160a01b0380891660248301528416604482015273__$105aa07724e80e292e8a4b4cc62d6ec972$__90638c56287990606401602060405180830381865af4158015613fb8573d6000803e3d6000fd5b505050506040513d601f19601f82011682018060405250810190613fdc9190615a6f565b155b15613ff3576000809550955050505050614290565b6000614016898a600301600a9054906101000a90046001600160801b0316612c46565b905061402185614297565b8160008151811061403457614034615608565b6020026020010181815161404891906156e1565b90525061405484614297565b8160018151811061406757614067615608565b6020026020010181815161407b91906156e1565b905250805182908290600190811061409557614095615608565b6020026020010151101561425e57604051635620c32d60e11b81526001600160a01b0380851660048301528516602482015260009073__$0c70757f598a889e7e5bdfcf0bf5e1f3f7$__9063ac41865a90604401602060405180830381865af4158015614106573d6000803e3d6000fd5b505050506040513d601f19601f8201168201806040525081019061412a9190615862565b90506000856001600160a01b031663313ce5676040518163ffffffff1660e01b8152600401602060405180830381865afa15801561416c573d6000803e3d6000fd5b505050506040513d601f19601f820116820180604052508101906141909190615c82565b61419b90600a615d81565b836001815181106141ae576141ae615608565b6020026020010151856141c191906158db565b6141cb90846156a0565b6141d591906156cd565b90506141e26064826156cd565b6141ec90826156e1565b905060008360008151811061420357614203615608565b60200260200101511115614248576142418160018560008151811061422a5761422a615608565b602002602001015161423c91906158db565b614b3f565b905061424c565b5060005b60019850965061429095505050505050565b6000828260018151811061427457614274615608565b602002602001015161428691906158db565b9650965050505050505b9250929050565b6040516370a0823160e01b81526000906001600160a01b038316906370a08231906142c6903090600401615997565b602060405180830381865afa1580156142e3573d6000803e3d6000fd5b505050506040513d601f19601f82011682018060405250810190611d069190615862565b604080516001600160a01b038416602482015260448082018490528251808303909101815260649091019091526020810180516001600160e01b031663a9059cbb60e01b179052614359908490614b55565b505050565b6000828411614378578161437285856158db565b11610fe4565b8161438384866158db565b11949350505050565b60006143978261182c565b6143a3576101f4611d06565b61012c92915050565b600073__$0c70757f598a889e7e5bdfcf0bf5e1f3f7$__63ea866815866001600160a01b031663ddca3f436040518163ffffffff1660e01b8152600401602060405180830381865afa158015614406573d6000803e3d6000fd5b505050506040513d601f19601f8201168201806040525081019061442a91906158ee565b6040516001600160e01b031960e084901b16815262ffffff9091166004820152602401602060405180830381865af415801561446a573d6000803e3d6000fd5b505050506040513d601f19601f8201168201806040525081019061448e9190615d90565b90508360020b60001461456357806144a68186615938565b6144b09190615a8c565b60020b8460020b146040518060400160405280601981526020017f5533532d3320496e636f7272656374207469636b52616e6765000000000000008152509061450c5760405162461bcd60e51b81526004016104ec91906153f5565b50806145188185615938565b6145229190615a8c565b60020b8360020b14604051806060016040528060228152602001615e0d60229139906145615760405162461bcd60e51b81526004016104ec91906153f5565b505b6002868101805462ffffff60a01b1916600160a01b62ffffff85160217905560405163369eb6fb60e21b81526001600160a01b038716600482015285820b60248201529082900b604482015273__$105aa07724e80e292e8a4b4cc62d6ec972$__9063da7adbec906064016040805180830381865af41580156145ea573d6000803e3d6000fd5b505050506040513d601f19601f8201168201806040525081019061460e9190615dad565b60028801805465ffffffffffff60c81b1916600160e01b62ffffff9384160262ffffff60c81b191617600160c81b939092169290920217905560408051630dfe168160e01b815290516001600160a01b03871691630dfe16819160048083019260209291908290030181865afa15801561468c573d6000803e3d6000fd5b505050506040513d601f19601f820116820180604052508101906146b09190615845565b6001600160a01b0316826001600160a01b031614806147415750846001600160a01b031663d21220a76040518163ffffffff1660e01b8152600401602060405180830381865afa158015614708573d6000803e3d6000fd5b505050506040513d601f19601f8201168201806040525081019061472c9190615845565b6001600160a01b0316826001600160a01b0316145b60405180604001604052806015815260200174154cd4cb4d48125b98dbdc9c9958dd08185cdcd95d605a1b8152509061478d5760405162461bcd60e51b81526004016104ec91906153f5565b50846001600160a01b0316630dfe16816040518163ffffffff1660e01b8152600401602060405180830381865afa1580156147cc573d6000803e3d6000fd5b505050506040513d601f19601f820116820180604052508101906147f09190615845565b6001600160a01b0316826001600160a01b03160361491d57846001600160a01b0316630dfe16816040518163ffffffff1660e01b8152600401602060405180830381865afa158015614846573d6000803e3d6000fd5b505050506040513d601f19601f8201168201806040525081019061486a9190615845565b86546001600160a01b0319166001600160a01b039182161787556040805163d21220a760e01b815290519187169163d21220a7916004808201926020929091908290030181865afa1580156148c3573d6000803e3d6000fd5b505050506040513d601f19601f820116820180604052508101906148e79190615845565b6001870180546001600160a01b0319166001600160a01b039290921691909117905560038601805460ff60481b19169055614a36565b846001600160a01b031663d21220a76040518163ffffffff1660e01b8152600401602060405180830381865afa15801561495b573d6000803e3d6000fd5b505050506040513d601f19601f8201168201806040525081019061497f9190615845565b86546001600160a01b0319166001600160a01b0391821617875560408051630dfe168160e01b8152905191871691630dfe1681916004808201926020929091908290030181865afa1580156149d8573d6000803e3d6000fd5b505050506040513d601f19601f820116820180604052508101906149fc9190615845565b6001870180546001600160a01b03929092166001600160a01b031990921691909117905560038601805460ff60481b1916600160481b1790555b505050505050565b606081600003614a655750506040805180820190915260018152600360fc1b602082015290565b8160005b8115614a8f5780614a798161587b565b9150614a889050600a836156cd565b9150614a69565b60008167ffffffffffffffff811115614aaa57614aaa614e1e565b6040519080825280601f01601f191660200182016040528015614ad4576020820181803683370190505b5090505b8415610fe457614ae96001836158db565b9150614af6600a86615ddc565b614b019060306156e1565b60f81b818381518110614b1657614b16615608565b60200101906001600160f81b031916908160001a905350614b38600a866156cd565b9450614ad8565b6000818310614b4e5781611ed9565b5090919050565b6000614baa826040518060400160405280602081526020017f5361666545524332303a206c6f772d6c6576656c2063616c6c206661696c6564815250856001600160a01b0316614c279092919063ffffffff16565b8051909150156143595780806020019051810190614bc89190615a6f565b6143595760405162461bcd60e51b815260206004820152602a60248201527f5361666545524332303a204552433230206f7065726174696f6e20646964206e6044820152691bdd081cdd58d8d9595960b21b60648201526084016104ec565b6060610fe4848460008585600080866001600160a01b03168587604051614c4e9190615df0565b60006040518083038185875af1925050503d8060008114614c8b576040519150601f19603f3d011682016040523d82523d6000602084013e614c90565b606091505b5091509150614ca187838387614cac565b979650505050505050565b60608315614d1b578251600003614d14576001600160a01b0385163b614d145760405162461bcd60e51b815260206004820152601d60248201527f416464726573733a2063616c6c20746f206e6f6e2d636f6e747261637400000060448201526064016104ec565b5081610fe4565b610fe48383815115614d305781518083602001fd5b8060405162461bcd60e51b81526004016104ec91906153f5565b6001600160801b0381168114614d5f57600080fd5b50565b60008060408385031215614d7557600080fd5b823591506020830135614d8781614d4a565b809150509250929050565b600081518084526020808501945080840160005b83811015614dc257815187529582019590820190600101614da6565b509495945050505050565b602081526000611ed96020830184614d92565b600060208284031215614df257600080fd5b5035919050565b6001600160a01b0381168114614d5f57600080fd5b8035614e1981614df9565b919050565b634e487b7160e01b600052604160045260246000fd5b6040516080810167ffffffffffffffff81118282101715614e5757614e57614e1e565b60405290565b604051601f8201601f1916810167ffffffffffffffff81118282101715614e8657614e86614e1e565b604052919050565b600067ffffffffffffffff821115614ea857614ea8614e1e565b5060051b60200190565b600082601f830112614ec357600080fd5b81356020614ed8614ed383614e8e565b614e5d565b82815260059290921b84018101918181019086841115614ef757600080fd5b8286015b84811015614f125780358352918301918301614efb565b509695505050505050565b60008060008060808587031215614f3357600080fd5b8435614f3e81614df9565b9350602085810135614f4f81614df9565b9350604086013567ffffffffffffffff80821115614f6c57600080fd5b818801915088601f830112614f8057600080fd5b8135614f8e614ed382614e8e565b81815260059190911b8301840190848101908b831115614fad57600080fd5b938501935b82851015614fd4578435614fc581614df9565b82529385019390850190614fb2565b965050506060880135925080831115614fec57600080fd5b5050614ffa87828801614eb2565b91505092959194509250565b60008060006060848603121561501b57600080fd5b505081359360208301359350604090920135919050565b6000806040838503121561504557600080fd5b823591506020830135614d8781614df9565b60008060008060008060c0878903121561507057600080fd5b86359550602087013561508281614df9565b9450604087013561509281614df9565b9350606087013592506080870135915060a08701356150b081614df9565b809150509295509295509295565b6040815260006150d16040830185614d92565b905082151560208301529392505050565b6000602082840312156150f457600080fd5b8135611ed981614df9565b8015158114614d5f57600080fd5b8060020b8114614d5f57600080fd5b60008060008060008060c0878903121561513557600080fd5b8635615140816150ff565b9550602087013561515081614df9565b945060408701356151608161510d565b935060608701356151708161510d565b925060808701356151808161510d565b915060a08701356150b08161510d565b6000806000606084860312156151a557600080fd5b83356151b081614df9565b925060208401356151c081614df9565b915060408401356151d081614df9565b809150509250925092565b60008060008060008060c087890312156151f457600080fd5b86356151ff81614df9565b9550602087013561520f8161510d565b9450604087013561521f8161510d565b9350606087013567ffffffffffffffff81111561523b57600080fd5b61524789828a01614eb2565b935050608087013561525881614d4a565b915060a08701356150b0816150ff565b60608152600061527b6060830186614d92565b90508360208301526001600160801b0383166040830152949350505050565b600080604083850312156152ad57600080fd5b50508035926020909101359150565b600080600080600080600060e0888a0312156152d757600080fd5b8735965060208801356152e981614df9565b955060408801356152f981614df9565b9450606088013561530981614df9565b935060808801356153198161510d565b925060a08801356153298161510d565b915060c088013561533981614df9565b8091505092959891949750929550565b6000806000806080858703121561535f57600080fd5b843561536a81614df9565b9350602085013561537a8161510d565b9250604085013561538a8161510d565b9150606085013561539a816150ff565b939692955090935050565b60005b838110156153c05781810151838201526020016153a8565b50506000910152565b600081518084526153e18160208601602086016153a5565b601f01601f19169290920160200192915050565b602081526000611ed960208301846153c9565b600067ffffffffffffffff82111561542257615422614e1e565b50601f01601f191660200190565b60008060008060008060c0878903121561544957600080fd5b8635955060208088013561545c81614df9565b955060408801359450606088013567ffffffffffffffff8082111561548057600080fd5b908901906080828c03121561549457600080fd5b61549c614e34565b82356154a7816150ff565b8152828401358482015260408301356154bf81614df9565b60408201526060830135828111156154d657600080fd5b8084019350508b601f8401126154eb57600080fd5b823591506154fb614ed383615408565b8281528c8584860101111561550f57600080fd5b8285850186830137600085848301015280606083015250809650505050506080870135915061554060a08801614e0e565b90509295509295509295565b600081518084526020808501945080840160005b83811015614dc25781516001600160a01b031687529582019590820190600101615560565b606081526000615598606083018661554c565b82810360208401526155aa8186614d92565b905082810360408401526119c28185614d92565b600293840b81529190920b60208201526001600160801b03909116604082015260600190565b600080604083850312156155f757600080fd5b505080516020909101519092909150565b634e487b7160e01b600052603260045260246000fd5b6001600160a01b03959095168552600293840b60208601529190920b60408401526001600160801b03918216606084015216608082015260a00190565b6000806040838503121561566e57600080fd5b825161567981614d4a565b6020840151909250614d8781614d4a565b634e487b7160e01b600052601160045260246000fd5b8082028115828204841417611d0657611d0661568a565b634e487b7160e01b600052601260045260246000fd5b6000826156dc576156dc6156b7565b500490565b80820180821115611d0657611d0661568a565b6001600160801b038281168282160390808211156157145761571461568a565b5092915050565b805161ffff81168114614e1957600080fd5b805160ff81168114614e1957600080fd5b600080600080600080600060e0888a03121561575957600080fd5b875161576481614df9565b60208901519097506157758161510d565b95506157836040890161571b565b94506157916060890161571b565b935061579f6080890161571b565b92506157ad60a0890161572d565b915060c0880151615339816150ff565b6001600160a01b03949094168452600292830b6020850152910b60408301526001600160801b0316606082015260800190565b600060a08201905060018060a01b03808451168352602084015160020b6020840152604084015160020b60408401526001600160801b0360608501511660608401528060808501511660808401525092915050565b60006020828403121561585757600080fd5b8151611ed981614df9565b60006020828403121561587457600080fd5b5051919050565b60006001820161588d5761588d61568a565b5060010190565b6080815260006158a7608083018761554c565b82810360208401526158b98187614d92565b604084019590955250506001600160a01b039190911660609091015292915050565b81810381811115611d0657611d0661568a565b60006020828403121561590057600080fd5b815162ffffff81168114611ed957600080fd5b600282810b9082900b03627fffff198112627fffff82131715611d0657611d0661568a565b60008160020b8360020b8061594f5761594f6156b7565b627fffff198214600019821416156159695761596961568a565b90059392505050565b600281810b9083900b01627fffff8113627fffff1982121715611d0657611d0661568a565b6001600160a01b0391909116815260200190565b6001600160a01b03959095168552600293840b60208601529190920b60408401526060830191909152608082015260a00190565b6000806000606084860312156159f457600080fd5b835192506020840151915060408401516151d081614d4a565b6001600160a01b03949094168452600292830b6020850152910b60408301526001600160801b0316606082015260a06080820181905260009082015260c00190565b6001600160801b038181168382160190808211156157145761571461568a565b600060208284031215615a8157600080fd5b8151611ed9816150ff565b60008260020b8260020b028060020b91508082146157145761571461568a565b6000615aba614ed384615408565b9050828152838383011115615ace57600080fd5b611ed98360208301846153a5565b600060208284031215615aee57600080fd5b815167ffffffffffffffff811115615b0557600080fd5b8201601f81018413615b1657600080fd5b610fe484825160208401615aac565b8051151582526020810151602083015260018060a01b0360408201511660408301526000606082015160806060850152610fe460808501826153c9565b6001600160a01b038981168252888116602083015287811660408301526060820187905261010060808301819052600091615b9f84830189615b25565b60a085019790975260c08401959095525050911660e09091015295945050505050565b600060018060a01b03808a16835288602084015287604084015260e06060840152615bf060e0840188615b25565b608084019690965260a083019490945250911660c090910152949350505050565b6502ab734ab19960d51b815260008451615c328160068501602089016153a5565b602f60f81b6006918401918201528451615c538160078401602089016153a5565b602d60f81b600792909101918201528351615c758160088401602088016153a5565b0160080195945050505050565b600060208284031215615c9457600080fd5b611ed98261572d565b600181815b80851115615cd8578160001904821115615cbe57615cbe61568a565b80851615615ccb57918102915b93841c9390800290615ca2565b509250929050565b600082615cef57506001611d06565b81615cfc57506000611d06565b8160018114615d125760028114615d1c57615d38565b6001915050611d06565b60ff841115615d2d57615d2d61568a565b50506001821b611d06565b5060208310610133831016604e8410600b8410161715615d5b575081810a611d06565b615d658383615c9d565b8060001904821115615d7957615d7961568a565b029392505050565b6000611ed960ff841683615ce0565b600060208284031215615da257600080fd5b8151611ed98161510d565b60008060408385031215615dc057600080fd5b8251615dcb8161510d565b6020840151909250614d878161510d565b600082615deb57615deb6156b7565b500690565b60008251615e028184602087016153a5565b919091019291505056fe5533532d3420496e636f727265637420726562616c616e63655469636b52616e67655533532d3133205a65726f2073747261746567792070726f66697420686f6c646572a2646970667358221220ffdabc249e2706ee943e01dbad2a8cde75b864a09f18dca89c6e07a79da3af3f64736f6c63430008110033",
  "libraries": {
    "UniswapV3Lib": "0xdb25C0af2d8D7Aa4e7A4d2f3AAe35B4EE99484b8",
    "UniswapV3DebtLib": "0x456b0b574653d4D46980525B9794B03930b8E2e9",
    "ConverterStrategyBaseLib": "0x4dC0dfFFd2de28f7A822Fe1139127e3dc1Af86FA"
  },
  "devdoc": {
    "kind": "dev",
    "methods": {
      "claimRewards(UniswapV3ConverterStrategyLogicLib.State storage)": {
        "returns": {
          "amountsOut": "An array containing the amounts of token0 and token1 claimed as rewards.",
          "tokensOut": "An array containing tokenA and tokenB."
        }
      },
      "enter(IUniswapV3Pool,int24,int24,uint256[],uint128,bool)": {
        "params": {
          "_depositorSwapTokens": "A boolean indicating if need to use token B instead of token A.",
          "amountsDesired_": "An array containing the desired amounts of tokens to provide liquidity.",
          "lowerTick": "The lower tick value for the pool.",
          "pool": "The Uniswap V3 pool to provide liquidity to.",
          "totalLiquidity": "The current total liquidity in the pool.",
          "upperTick": "The upper tick value for the pool."
        },
        "returns": {
          "amountsConsumed": "An array containing the consumed amounts for each token in the pool.",
          "liquidityOut": "The amount of liquidity added to the pool.",
          "totalLiquidityNew": "The updated total liquidity after providing liquidity."
        }
      },
      "exit(UniswapV3ConverterStrategyLogicLib.State storage,uint128)": {
        "params": {
          "liquidityAmountToExit": "The amount of liquidity to exit.",
          "state": "The State storage object."
        },
        "returns": {
          "amountsOut": "An array containing the collected amounts for each token in the pool."
        }
      },
      "getEntryData(IUniswapV3Pool,int24,int24,bool)": {
        "params": {
          "depositorSwapTokens": "A boolean indicating if need to use token B instead of token A.",
          "lowerTick": "The lower tick of the pool's main range.",
          "pool": "The Uniswap V3 pool instance.",
          "upperTick": "The upper tick of the pool's main range."
        },
        "returns": {
          "entryData": "A byte array containing the entry data for the pool."
        }
      },
      "getFees(UniswapV3ConverterStrategyLogicLib.State storage)": {
        "params": {
          "state": "The State storage containing the pool's information."
        },
        "returns": {
          "fee0": "The fees generated for the first token in the pool.",
          "fee1": "The fees generated for the second token in the pool."
        }
      },
      "getOracleAssetsPrice(ITetuConverter,address,address)": {
        "params": {
          "converter": "The Tetu converter.",
          "tokenA": "The first token address.",
          "tokenB": "The second token address."
        },
        "returns": {
          "_0": "The price ratio of the two tokens."
        }
      },
      "getPoolReserves(UniswapV3ConverterStrategyLogicLib.State storage)": {
        "params": {
          "state": "The State storage containing the pool's information."
        },
        "returns": {
          "reserves": "An array containing the reserve amounts of the contract owned liquidity."
        }
      },
      "getTokenAmounts(UniswapV3ConverterStrategyLogicLib.State storage)": {
        "params": {
          "state": "The state of the pool."
        },
        "returns": {
          "amountA": "The balance of tokenA.",
          "amountB": "The balance of tokenB."
        }
      },
      "isStablePool(IUniswapV3Pool)": {
        "params": {
          "pool": "The Uniswap V3 pool."
        },
        "returns": {
          "_0": "A boolean indicating if the pool is stable."
        }
      },
      "needRebalance(bool,IUniswapV3Pool,int24,int24,int24,int24)": {
        "returns": {
          "_0": "A boolean indicating if the pool needs to be rebalanced."
        }
      },
      "quoteExit(UniswapV3ConverterStrategyLogicLib.State storage,uint128)": {
        "params": {
          "liquidityAmountToExit": "The amount of liquidity to exit."
        },
        "returns": {
          "amountsOut": "An array containing the estimated exit amounts for each token in the pool."
        }
      },
      "rebalance(UniswapV3ConverterStrategyLogicLib.State storage,ITetuConverter,address,uint256,uint256,address)": {
        "details": "Rebalances the current position, adjusts the tick range, and attempts to cover loss with pool rewards.",
        "params": {
          "controller": "The Tetu controller address.",
          "converter": "The TetuConverter contract.",
          "oldTotalAssets": "The amount of total assets before rebalancing.",
          "state": "The State storage object."
        },
        "returns": {
          "isNeedFillup": "Indicates if fill-up is required after rebalancing.",
          "tokenAmounts": "The token amounts for deposit (if length != 2 then do nothing)."
        }
      }
    },
    "stateVariables": {
      "DEFAULT_FUSE_THRESHOLD": {
        "details": "0.5% by default"
      }
    },
    "version": 1
  },
  "userdoc": {
    "kind": "user",
    "methods": {
      "addFillup(UniswapV3ConverterStrategyLogicLib.State storage)": {
        "notice": "Add liquidity to a Uniswap V3 pool in a specified tick range according fill up rules."
      },
      "claimRewards(UniswapV3ConverterStrategyLogicLib.State storage)": {
        "notice": "Claim rewards from the Uniswap V3 pool."
      },
      "enter(IUniswapV3Pool,int24,int24,uint256[],uint128,bool)": {
        "notice": "Enter the pool and provide liquidity with desired token amounts."
      },
      "exit(UniswapV3ConverterStrategyLogicLib.State storage,uint128)": {
        "notice": "Exit the pool and collect tokens proportional to the liquidity amount to exit."
      },
      "getEntryData(IUniswapV3Pool,int24,int24,bool)": {
        "notice": "Get entry data for a Uniswap V3 pool."
      },
      "getFees(UniswapV3ConverterStrategyLogicLib.State storage)": {
        "notice": "Retrieve the fees generated by a Uniswap V3 pool managed by this contract."
      },
      "getOracleAssetsPrice(ITetuConverter,address,address)": {
        "notice": "Get the price ratio of the two given tokens from the oracle."
      },
      "getPoolReserves(UniswapV3ConverterStrategyLogicLib.State storage)": {
        "notice": "Retrieve the reserves of a Uniswap V3 pool managed by this contract."
      },
      "getTokenAmounts(UniswapV3ConverterStrategyLogicLib.State storage)": {
        "notice": "Get the token amounts held by the contract"
      },
      "isStablePool(IUniswapV3Pool)": {
        "notice": "Check if the given pool is a stable pool."
      },
      "needRebalance(bool,IUniswapV3Pool,int24,int24,int24,int24)": {
        "notice": "Determine if the pool needs to be rebalanced."
      },
      "quoteExit(UniswapV3ConverterStrategyLogicLib.State storage,uint128)": {
        "notice": "Estimate the exit amounts for a given liquidity amount in a Uniswap V3 pool."
      }
    },
    "version": 1
  },
  "storageLayout": {
    "storage": [],
    "types": null
  }
}