{
  "address": "0xb35E67FD20070C3d3dC5EEa29D62e95b707471cA",
  "abi": [
    {
      "anonymous": false,
      "inputs": [],
      "name": "DisableFuse",
      "type": "event"
    },
    {
      "anonymous": false,
      "inputs": [],
      "name": "FuseTriggered",
      "type": "event"
    },
    {
      "anonymous": false,
      "inputs": [
        {
          "indexed": false,
          "internalType": "uint256",
          "name": "newFuseThreshold",
          "type": "uint256"
        }
      ],
      "name": "NewFuseThreshold",
      "type": "event"
    },
    {
      "anonymous": false,
      "inputs": [],
      "name": "Rebalanced",
      "type": "event"
    },
    {
      "anonymous": false,
      "inputs": [
        {
          "indexed": false,
          "internalType": "uint256",
          "name": "fee0",
          "type": "uint256"
        },
        {
          "indexed": false,
          "internalType": "uint256",
          "name": "fee1",
          "type": "uint256"
        }
      ],
      "name": "UniV3FeesClaimed",
      "type": "event"
    },
    {
      "inputs": [],
      "name": "DEFAULT_FUSE_THRESHOLD",
      "outputs": [
        {
          "internalType": "uint256",
          "name": "",
          "type": "uint256"
        }
      ],
      "stateMutability": "view",
      "type": "function"
    },
    {
      "inputs": [
        {
          "internalType": "contract IUniswapV3Pool",
          "name": "pool",
          "type": "IUniswapV3Pool"
        },
        {
          "internalType": "int24",
          "name": "tickRange_",
          "type": "int24"
        },
        {
          "internalType": "int24",
          "name": "rebalanceTickRange_",
          "type": "int24"
        },
        {
          "internalType": "address",
          "name": "asset_",
          "type": "address"
        }
      ],
      "name": "calcInitialDepositorValues",
      "outputs": [
        {
          "internalType": "int24",
          "name": "tickSpacing",
          "type": "int24"
        },
        {
          "internalType": "int24",
          "name": "lowerTick",
          "type": "int24"
        },
        {
          "internalType": "int24",
          "name": "upperTick",
          "type": "int24"
        },
        {
          "internalType": "address",
          "name": "tokenA",
          "type": "address"
        },
        {
          "internalType": "address",
          "name": "tokenB",
          "type": "address"
        },
        {
          "internalType": "bool",
          "name": "_depositorSwapTokens",
          "type": "bool"
        }
      ],
      "stateMutability": "view",
      "type": "function"
    },
    {
      "inputs": [
        {
          "internalType": "contract IUniswapV3Pool",
          "name": "pool",
          "type": "IUniswapV3Pool"
        },
        {
          "internalType": "int24",
          "name": "lowerTick",
          "type": "int24"
        },
        {
          "internalType": "int24",
          "name": "upperTick",
          "type": "int24"
        },
        {
          "internalType": "bool",
          "name": "depositorSwapTokens",
          "type": "bool"
        }
      ],
      "name": "getEntryData",
      "outputs": [
        {
          "internalType": "bytes",
          "name": "entryData",
          "type": "bytes"
        }
      ],
      "stateMutability": "view",
      "type": "function"
    },
    {
      "inputs": [
        {
          "internalType": "contract ITetuConverter",
          "name": "converter",
          "type": "ITetuConverter"
        },
        {
          "internalType": "address",
          "name": "tokenA",
          "type": "address"
        },
        {
          "internalType": "address",
          "name": "tokenB",
          "type": "address"
        }
      ],
      "name": "getOracleAssetsPrice",
      "outputs": [
        {
          "internalType": "uint256",
          "name": "",
          "type": "uint256"
        }
      ],
      "stateMutability": "view",
      "type": "function"
    },
    {
      "inputs": [
        {
          "internalType": "contract IUniswapV3Pool",
          "name": "pool",
          "type": "IUniswapV3Pool"
        }
      ],
      "name": "isStablePool",
      "outputs": [
        {
          "internalType": "bool",
          "name": "",
          "type": "bool"
        }
      ],
      "stateMutability": "view",
      "type": "function"
    },
    {
      "inputs": [
        {
          "internalType": "bool",
          "name": "isFuseTriggered",
          "type": "bool"
        },
        {
          "internalType": "contract IUniswapV3Pool",
          "name": "pool",
          "type": "IUniswapV3Pool"
        },
        {
          "internalType": "int24",
          "name": "lowerTick",
          "type": "int24"
        },
        {
          "internalType": "int24",
          "name": "upperTick",
          "type": "int24"
        },
        {
          "internalType": "int24",
          "name": "tickSpacing",
          "type": "int24"
        },
        {
          "internalType": "int24",
          "name": "rebalanceTickRange",
          "type": "int24"
        }
      ],
      "name": "needRebalance",
      "outputs": [
        {
          "internalType": "bool",
          "name": "",
          "type": "bool"
        }
      ],
      "stateMutability": "view",
      "type": "function"
    },
    {
      "inputs": [
        {
          "internalType": "contract IUniswapV3Pool",
          "name": "pool",
          "type": "IUniswapV3Pool"
        },
        {
          "internalType": "int24",
          "name": "lowerTick",
          "type": "int24"
        },
        {
          "internalType": "int24",
          "name": "upperTick",
          "type": "int24"
        },
        {
          "internalType": "int24",
          "name": "lowerTickFillup",
          "type": "int24"
        },
        {
          "internalType": "int24",
          "name": "upperTickFillup",
          "type": "int24"
        },
        {
          "internalType": "uint128",
          "name": "liquidity",
          "type": "uint128"
        },
        {
          "internalType": "uint128",
          "name": "liquidityFillup",
          "type": "uint128"
        },
        {
          "internalType": "uint128",
          "name": "liquidityAmountToExit",
          "type": "uint128"
        },
        {
          "internalType": "bool",
          "name": "_depositorSwapTokens",
          "type": "bool"
        }
      ],
      "name": "quoteExit",
      "outputs": [
        {
          "internalType": "uint256[]",
          "name": "amountsOut",
          "type": "uint256[]"
        }
      ],
      "stateMutability": "view",
      "type": "function"
    }
  ],
  "transactionHash": "0x111126aefa34defd804ed85464e2644364e5050629157b4bf324860e23393e37",
  "args": [],
  "numDeployments": 9,
  "solcInputHash": "a5be390281433c3c08945b536a65e5ac",
  "bytecode": "0x6153e661003a600b82828239805160001a60731461002d57634e487b7160e01b600052600060045260246000fd5b30600052607381538281f3fe73000000000000000000000000000000000000000030146080604052600436106101415760003560e01c80637fd6c0a1116100c2578063c68bc70311610086578063c68bc70314610387578063ce74e5d91461039a578063d4ca283a146103a8578063d6f43ad8146103ca578063e3bca2d8146103dd578063f460770b146103fd57600080fd5b80637fd6c0a1146102c857806380089367146102db5780638c64d4551461030a578063a1d4398914610339578063b24d8db01461035957600080fd5b806333fdd81d1161010957806333fdd81d1461023d578063345aec361461026c57806354747e5b1461027f57806357d59aae146102a25780635ca1bcdf146102b557600080fd5b8063052a88991461014657806305d408941461017d5780630a65e5e7146101d4578063190fa314146101f4578063232421d91461021c575b600080fd5b81801561015257600080fd5b5061016661016136600461455c565b610412565b604051610174929190614674565b60405180910390f35b61019061018b366004614699565b61093c565b60408051600297880b815295870b60208701529390950b928401929092526001600160a01b03908116606084015216608082015290151560a082015260c001610174565b6101e76101e23660046146f5565b610efd565b604051610174919061470e565b6102076102023660046146f5565b611212565b60408051928352602083019190915201610174565b61022f61022a3660046146f5565b611305565b604051908152602001610174565b81801561024957600080fd5b5061025d610258366004614721565b611484565b604051610174939291906147dd565b61020761027a3660046146f5565b6118ce565b61029261028d366004614810565b611a96565b6040519015158152602001610174565b6102926102b036600461482d565b611b09565b6102926102c33660046148af565b611c34565b61022f6102d63660046148df565b611ea6565b8180156102e757600080fd5b506102fb6102f636600461492a565b61207a565b60405161017493929190614a15565b81801561031657600080fd5b5061032a610325366004614a47565b61234a565b60405161017493929190614ab5565b61034c610347366004614adb565b61290e565b6040516101749190614b7c565b81801561036557600080fd5b50610379610374366004614b8f565b6129b4565b604051610174929190614bd7565b6101e7610395366004614721565b612efa565b61022f6611c37937e0800081565b8180156103b457600080fd5b506103c86103c3366004614bfb565b6131fe565b005b61034c6103d83660046146f5565b613461565b8180156103e957600080fd5b506103c86103f83660046146f5565b6135f2565b81801561040957600080fd5b506103c8613628565b60408051600280825260608083018452928392919060208301908036833701905050905060005b85518110156104f75785818151811061045457610454614c22565b60200260200101516001600160a01b03166370a08231306040518263ffffffff1660e01b81526004016104879190614c38565b602060405180830381865afa1580156104a4573d6000803e3d6000fd5b505050506040513d601f19601f820116820180604052508101906104c89190614c4c565b8282815181106104da576104da614c22565b6020908102919091010152806104ef81614c7b565b915050610439565b5060408051600280825260608201835290916020830190803683370190505091506001600160801b0384161561066e5760405163a34123a760e01b81526001600160a01b038e169063a34123a790610558908f908f90600090600401614ab5565b60408051808303816000875af1158015610576573d6000803e3d6000fd5b505050506040513d601f19601f8201168201806040525081019061059a9190614c94565b50508c6001600160a01b0316634f1eb3d8308e8e6001600160801b03806040518663ffffffff1660e01b81526004016105d7959493929190614cb8565b60408051808303816000875af11580156105f5573d6000803e3d6000fd5b505050506040513d601f19601f820116820180604052508101906106199190614cf5565b816001600160801b03169150806001600160801b031690508360008151811061064457610644614c22565b602002602001018460018151811061065e5761065e614c22565b6020908102919091010191909152525b6001600160801b038316156107e45760405163a34123a760e01b81526001600160a01b038e169063a34123a7906106ae908d908d90600090600401614ab5565b60408051808303816000875af11580156106cc573d6000803e3d6000fd5b505050506040513d601f19601f820116820180604052508101906106f09190614c94565b50506000808e6001600160a01b0316634f1eb3d8308e8e6001600160801b03806040518663ffffffff1660e01b8152600401610730959493929190614cb8565b60408051808303816000875af115801561074e573d6000803e3d6000fd5b505050506040513d601f19601f820116820180604052508101906107729190614cf5565b6001600160801b031691506001600160801b03169150818460008151811061079c5761079c614c22565b602002602001018181516107b09190614d24565b90525083518190859060019081106107ca576107ca614c22565b602002602001018181516107de9190614d24565b90525050505b7fd809a30c675e811f2837e53a49b9409406bb7e6f808658eef60d09ac30579e898260008151811061081857610818614c22565b60200260200101518360018151811061083357610833614c22565b6020026020010151604051610852929190918252602082015260400190565b60405180910390a1878260008151811061086e5761086e614c22565b602002602001018181516108829190614d24565b905250815187908390600190811061089c5761089c614c22565b602002602001018181516108b09190614d24565b905250851561092c57816001815181106108cc576108cc614c22565b6020026020010151826000815181106108e7576108e7614c22565b60200260200101518360008151811061090257610902614c22565b602002602001018460018151811061091c5761091c614c22565b6020908102919091010191909152525b9b509b9950505050505050505050565b60008060008060008073AA7423AB76D0D826840b0801D480A5a929292fCE63ea8668158b6001600160a01b031663ddca3f436040518163ffffffff1660e01b8152600401602060405180830381865afa15801561099d573d6000803e3d6000fd5b505050506040513d601f19601f820116820180604052508101906109c19190614d37565b6040516001600160e01b031960e084901b16815262ffffff9091166004820152602401602060405180830381865af4158015610a01573d6000803e3d6000fd5b505050506040513d601f19601f82011682018060405250810190610a259190614d5c565b95508860020b600014610b035785610a3d818b614d8f565b610a479190614dc9565b60020b8960020b146040518060400160405280601981526020017f5533532d3320496e636f7272656374207469636b52616e67650000000000000081525090610aac5760405162461bcd60e51b8152600401610aa39190614b7c565b60405180910390fd5b5085610ab8818a614d8f565b610ac29190614dc9565b60020b8860020b1460405180606001604052806022815260200161538f6022913990610b015760405162461bcd60e51b8152600401610aa39190614b7c565b505b60405163369eb6fb60e21b81526001600160a01b038b16600482015260028a810b602483015287900b6044820152732275aA8b46873206D6673f7748AD08c59740603E9063da7adbec906064016040805180830381865af4158015610b6c573d6000803e3d6000fd5b505050506040513d601f19601f82011682018060405250810190610b909190614df0565b8095508196505050896001600160a01b0316630dfe16816040518163ffffffff1660e01b8152600401602060405180830381865afa158015610bd6573d6000803e3d6000fd5b505050506040513d601f19601f82011682018060405250810190610bfa9190614e1f565b6001600160a01b0316876001600160a01b03161480610c8b5750896001600160a01b031663d21220a76040518163ffffffff1660e01b8152600401602060405180830381865afa158015610c52573d6000803e3d6000fd5b505050506040513d601f19601f82011682018060405250810190610c769190614e1f565b6001600160a01b0316876001600160a01b0316145b60405180604001604052806015815260200174154cd4cb4d48125b98dbdc9c9958dd08185cdcd95d605a1b81525090610cd75760405162461bcd60e51b8152600401610aa39190614b7c565b50896001600160a01b0316630dfe16816040518163ffffffff1660e01b8152600401602060405180830381865afa158015610d16573d6000803e3d6000fd5b505050506040513d601f19601f82011682018060405250810190610d3a9190614e1f565b6001600160a01b0316876001600160a01b031603610e2357896001600160a01b0316630dfe16816040518163ffffffff1660e01b8152600401602060405180830381865afa158015610d90573d6000803e3d6000fd5b505050506040513d601f19601f82011682018060405250810190610db49190614e1f565b9250896001600160a01b031663d21220a76040518163ffffffff1660e01b8152600401602060405180830381865afa158015610df4573d6000803e3d6000fd5b505050506040513d601f19601f82011682018060405250810190610e189190614e1f565b915060009050610ef0565b896001600160a01b031663d21220a76040518163ffffffff1660e01b8152600401602060405180830381865afa158015610e61573d6000803e3d6000fd5b505050506040513d601f19601f82011682018060405250810190610e859190614e1f565b9250896001600160a01b0316630dfe16816040518163ffffffff1660e01b8152600401602060405180830381865afa158015610ec5573d6000803e3d6000fd5b505050506040513d601f19601f82011682018060405250810190610ee99190614e1f565b9150600190505b9499939850945094509450565b604080516002808252606080830184529260208301908036833701905050905060008260020160009054906101000a90046001600160a01b03166001600160a01b0316633850c7bd6040518163ffffffff1660e01b815260040160e060405180830381865afa158015610f74573d6000803e3d6000fd5b505050506040513d601f19601f82011682018060405250810190610f989190614e5f565b505050506002868101546003880154604051630544f36560e31b815295965073AA7423AB76D0D826840b0801D480A5a929292fCE95632a279b28955061100894508793600160c81b8404810b93600160e01b9004900b91600160501b90046001600160801b031690600401614eee565b6040805180830381865af4158015611024573d6000803e3d6000fd5b505050506040513d601f19601f820116820180604052508101906110489190614c94565b8360008151811061105b5761105b614c22565b602002602001018460018151811061107557611075614c22565b6020908102919091010191909152526003830154600480850154604051630544f36560e31b8152600093849373AA7423AB76D0D826840b0801D480A5a929292fCE93632a279b28936110e6938993600282810b946301000000909304900b926001600160801b039092169101614eee565b6040805180830381865af4158015611102573d6000803e3d6000fd5b505050506040513d601f19601f820116820180604052508101906111269190614c94565b91509150818460008151811061113e5761113e614c22565b602002602001018181516111529190614d24565b905250835181908590600190811061116c5761116c614c22565b602002602001018181516111809190614d24565b9052506003850154600160481b900460ff161561120a57836001815181106111aa576111aa614c22565b6020026020010151846000815181106111c5576111c5614c22565b6020026020010151856000815181106111e0576111e0614c22565b60200260200101866001815181106111fa576111fa614c22565b6020908102919091010191909152525b505050919050565b600381015481546000918291600160481b90910460ff169061123c906001600160a01b0316613653565b6001850154909350611256906001600160a01b0316613653565b915060008161126957846005015461126f565b84600601545b9050600082611282578560060154611288565b85600501545b905081851015801561129a5750808410155b604051806040016040528060138152602001725533532d322057726f6e672062616c616e636560681b815250906112e45760405162461bcd60e51b8152600401610aa39190614b7c565b506112ef8286614f21565b94506112fb8185614f21565b9350505050915091565b60018101546000906001600160a01b03168180611321856118ce565b915091508460050154826113359190614d24565b91508460060154816113479190614d24565b6003860154909150600160481b900460ff161561136057905b6000836001600160a01b031663313ce5676040518163ffffffff1660e01b8152600401602060405180830381865afa1580156113a0573d6000803e3d6000fd5b505050506040513d601f19601f820116820180604052508101906113c49190614f34565b6113cf90600a615033565b6002870154604051635620c32d60e11b8152849173AA7423AB76D0D826840b0801D480A5a929292fCE9163ac41865a91611419916001600160a01b03909116908a90600401615042565b602060405180830381865af4158015611436573d6000803e3d6000fd5b505050506040513d601f19601f8201168201806040525081019061145a9190614c4c565b611464919061505c565b61146e9190615073565b905061147a8184614d24565b9695505050505050565b606060008060009050846001600160801b0316876001600160801b03161015604051806040016040528060158152602001745533532d372057726f6e67206c697175696469747960581b815250906114ef5760405162461bcd60e51b8152600401610aa39190614b7c565b506040805160028082526060820183529091602083019080368337505060405163a34123a760e01b8152919450506001600160a01b038d169063a34123a790611540908e908e908a90600401614ab5565b60408051808303816000875af115801561155e573d6000803e3d6000fd5b505050506040513d601f19601f820116820180604052508101906115829190614c94565b8460008151811061159557611595614c22565b60200260200101856001815181106115af576115af614c22565b6020908102919091010191909152526040516309e3d67b60e31b81526001600160a01b038d1690634f1eb3d8906115f99030908f908f906001600160801b03908190600401614cb8565b60408051808303816000875af1158015611617573d6000803e3d6000fd5b505050506040513d601f19601f8201168201806040525081019061163b9190614cf5565b50506001600160801b0386161561183a576000876001600160801b0316866001600160801b0316886001600160801b0316611676919061505c565b6116809190615073565b90506000808e6001600160a01b031663a34123a78d8d866040518463ffffffff1660e01b81526004016116b593929190614ab5565b60408051808303816000875af11580156116d3573d6000803e3d6000fd5b505050506040513d601f19601f820116820180604052508101906116f79190614c94565b915091508e6001600160a01b0316634f1eb3d8308e8e6001600160801b03806040518663ffffffff1660e01b8152600401611736959493929190614cb8565b60408051808303816000875af1158015611754573d6000803e3d6000fd5b505050506040513d601f19601f820116820180604052508101906117789190614cf5565b5050818660008151811061178e5761178e614c22565b602002602001018181516117a29190614d24565b90525085518190879060019081106117bc576117bc614c22565b602002602001018181516117d09190614d24565b90525060408051808201909152601281527105533532d382057726f6e672066696c6c75760741b60208201526001600160801b03808516908b1610156118295760405162461bcd60e51b8152600401610aa39190614b7c565b50611834838a615087565b93505050505b6118448588615087565b915083156118bf578260018151811061185f5761185f614c22565b60200260200101518360008151811061187a5761187a614c22565b60200260200101518460008151811061189557611895614c22565b60200260200101856001815181106118af576118af614c22565b6020908102919091010191909152525b99509950999650505050505050565b6040805160a0810182526002838101546001600160a01b0381168352600160c81b8104820b6020840152600160e01b9004900b818301526003830154600160501b90046001600160801b0316606082015230608082015290516352bb7e6960e01b8152600091829173AA7423AB76D0D826840b0801D480A5a929292fCE906352bb7e69906119609084906004016150a7565b6040805180830381865af415801561197c573d6000803e3d6000fd5b505050506040513d601f19601f820116820180604052508101906119a09190614c94565b6040805160a0810182526002808901546001600160a01b03168252600389015480820b602084015263010000009004900b818301526004808901546001600160801b0316606083015230608083015291516352bb7e6960e01b81529396509194509091600091829173AA7423AB76D0D826840b0801D480A5a929292fCE916352bb7e6991611a30918791016150a7565b6040805180830381865af4158015611a4c573d6000803e3d6000fd5b505050506040513d601f19601f82011682018060405250810190611a709190614c94565b9092509050611a7f8287614d24565b9550611a8b8186614d24565b945050505050915091565b6000816001600160a01b031663ddca3f436040518163ffffffff1660e01b8152600401602060405180830381865afa158015611ad6573d6000803e3d6000fd5b505050506040513d601f19601f82011682018060405250810190611afa9190614d37565b62ffffff166064149050919050565b60008615611b195750600061147a565b6000866001600160a01b0316633850c7bd6040518163ffffffff1660e01b815260040160e060405180830381865afa158015611b59573d6000803e3d6000fd5b505050506040513d601f19601f82011682018060405250810190611b7d9190614e5f565b50505050509150508360020b8686611b9591906150fc565b60020b03611bbf578560020b8160020b1280611bb757508460020b8160020b12155b91505061147a565b60006002611bcd88886150fc565b611bd79190614d8f565b90506000611be58289615121565b90508060020b8360020b1315611c1357600285900b611c0482856150fc565b60020b1215935050505061147a565b600285900b611c2284836150fc565b60020b139a9950505050505050505050565b6000806000611c42856118ce565b91509150846005015482611c569190614d24565b9150846006015481611c689190614d24565b6003860154909150600160481b900460ff1615611c8157905b845460018601546040805163f77c479160e01b815290516001600160a01b0393841693928316926000929089169163f77c4791916004808201926020929091908290030181865afa158015611cda573d6000803e3d6000fd5b505050506040513d601f19601f82011682018060405250810190611cfe9190614e1f565b6001600160a01b0316632630c12f6040518163ffffffff1660e01b8152600401602060405180830381865afa158015611d3b573d6000803e3d6000fd5b505050506040513d601f19601f82011682018060405250810190611d5f9190614e1f565b90506000816001600160a01b031663b3596f07856040518263ffffffff1660e01b8152600401611d8f9190614c38565b602060405180830381865afa158015611dac573d6000803e3d6000fd5b505050506040513d601f19601f82011682018060405250810190611dd09190614c4c565b90506000826001600160a01b031663b3596f07856040518263ffffffff1660e01b8152600401611e009190614c38565b602060405180830381865afa158015611e1d573d6000803e3d6000fd5b505050506040513d601f19601f82011682018060405250810190611e419190614c4c565b90506000670de0b6b3a7640000611e58848a61505c565b611e629190615073565b90506000670de0b6b3a7640000611e79848a61505c565b611e839190615073565b90506064821180611e945750606481115b99505050505050505050505b92915050565b600080846001600160a01b031663f77c47916040518163ffffffff1660e01b8152600401602060405180830381865afa158015611ee7573d6000803e3d6000fd5b505050506040513d601f19601f82011682018060405250810190611f0b9190614e1f565b6001600160a01b0316632630c12f6040518163ffffffff1660e01b8152600401602060405180830381865afa158015611f48573d6000803e3d6000fd5b505050506040513d601f19601f82011682018060405250810190611f6c9190614e1f565b90506000816001600160a01b031663b3596f07866040518263ffffffff1660e01b8152600401611f9c9190614c38565b602060405180830381865afa158015611fb9573d6000803e3d6000fd5b505050506040513d601f19601f82011682018060405250810190611fdd9190614c4c565b90506000826001600160a01b031663b3596f07866040518263ffffffff1660e01b815260040161200d9190614c38565b602060405180830381865afa15801561202a573d6000803e3d6000fd5b505050506040513d601f19601f8201168201806040525081019061204e9190614c4c565b90508161206382670de0b6b3a764000061505c565b61206d9190615073565b93505050505b9392505050565b604080516002808252606082810190935260009182918160200160208202803683370190505092506000866001815181106120b7576120b7614c22565b6020026020010151111561233e57831561213e57856001815181106120de576120de614c22565b6020026020010151866000815181106120f9576120f9614c22565b60200260200101518760008151811061211457612114614c22565b602002602001018860018151811061212e5761212e614c22565b6020908102919091010191909152525b600073AA7423AB76D0D826840b0801D480A5a929292fCE6317c22c3c8b8b8b8b60008151811061217057612170614c22565b60200260200101518c60018151811061218b5761218b614c22565b60200260200101516040518663ffffffff1660e01b81526004016121b3959493929190615146565b606060405180830381865af41580156121d0573d6000803e3d6000fd5b505050506040513d601f19601f820116820180604052508101906121f4919061517a565b8660008151811061220757612207614c22565b602002602001018760018151811061222157612221614c22565b6020908102919091010192909252919052604051633c8a7d8d60e01b81529091506001600160a01b038b1690633c8a7d8d906122679030908d908d9087906004016151a8565b60408051808303816000875af1158015612285573d6000803e3d6000fd5b505050506040513d601f19601f820116820180604052508101906122a99190614c94565b50506001600160801b03811692506122c181876151ea565b9150841561233c57836001815181106122dc576122dc614c22565b6020026020010151846000815181106122f7576122f7614c22565b60200260200101518560008151811061231257612312614c22565b602002602001018660018151811061232c5761232c614c22565b6020908102919091010191909152525b505b96509650969350505050565b6000806000806123ba8a6001600160a01b0316630dfe16816040518163ffffffff1660e01b8152600401602060405180830381865afa158015612391573d6000803e3d6000fd5b505050506040513d601f19601f820116820180604052508101906123b59190614e1f565b613653565b905060006123ff8b6001600160a01b031663d21220a76040518163ffffffff1660e01b8152600401602060405180830381865afa158015612391573d6000803e3d6000fd5b90508682101580156124115750858110155b6040518060400160405280600f81526020016e5533532d362057726f6e672066656560881b815250906124575760405162461bcd60e51b8152600401610aa39190614b7c565b506124628783614f21565b915061246e8682614f21565b9050600082118061247f5750600081115b156129005760008b6001600160a01b0316633850c7bd6040518163ffffffff1660e01b815260040160e060405180830381865afa1580156124c4573d6000803e3d6000fd5b505050506040513d601f19601f820116820180604052508101906124e89190614e5f565b50505050509150508b6001600160a01b031663d21220a76040518163ffffffff1660e01b8152600401602060405180830381865afa15801561252e573d6000803e3d6000fd5b505050506040513d601f19601f820116820180604052508101906125529190614e1f565b6001600160a01b031663313ce5676040518163ffffffff1660e01b8152600401602060405180830381865afa15801561258f573d6000803e3d6000fd5b505050506040513d601f19601f820116820180604052508101906125b39190614f34565b6125be90600a615033565b73AA7423AB76D0D826840b0801D480A5a929292fCE63ac41865a8e8f6001600160a01b031663d21220a76040518163ffffffff1660e01b8152600401602060405180830381865afa158015612617573d6000803e3d6000fd5b505050506040513d601f19601f8201168201806040525081019061263b9190614e1f565b6040518363ffffffff1660e01b8152600401612658929190615042565b602060405180830381865af4158015612675573d6000803e3d6000fd5b505050506040513d601f19601f820116820180604052508101906126999190614c4c565b6126a3908461505c565b6126ad9190615073565b8311156127db5788806126c08184614d8f565b6126ca9190614dc9565b6126d49190615121565b6040516305f08b0f60e21b81529096508a955073AA7423AB76D0D826840b0801D480A5a929292fCE906317c22c3c9061271a908f908a908a908990600090600401615146565b606060405180830381865af4158015612737573d6000803e3d6000fd5b505050506040513d601f19601f8201168201806040525081019061275b919061517a565b604051633c8a7d8d60e01b81529096506001600160a01b038f169250633c8a7d8d91506127929030908a908a908a906004016151a8565b60408051808303816000875af11580156127b0573d6000803e3d6000fd5b505050506040513d601f19601f820116820180604052508101906127d49190614c94565b50506128fe565b8a955088806127ea8184614d8f565b6127f49190614dc9565b6127fe91906150fc565b6040516305f08b0f60e21b815290955073AA7423AB76D0D826840b0801D480A5a929292fCE906317c22c3c90612841908f908a908a906000908990600401615146565b606060405180830381865af415801561285e573d6000803e3d6000fd5b505050506040513d601f19601f82011682018060405250810190612882919061517a565b604051633c8a7d8d60e01b81529096506001600160a01b038f169250633c8a7d8d91506128b99030908a908a908a906004016151a8565b60408051808303816000875af11580156128d7573d6000803e3d6000fd5b505050506040513d601f19601f820116820180604052508101906128fb9190614c94565b50505b505b505096509650969350505050565b60405163a1d4398960e01b81526001600160a01b0385166004820152600284810b602483015283900b60448201528115156064820152606090732275aA8b46873206D6673f7748AD08c59740603E9063a1d4398990608401600060405180830381865af4158015612983573d6000803e3d6000fd5b505050506040513d6000823e601f3d908101601f191682016040526129ab9190810190615259565b95945050505050565b60408051600080825261028082018352600280880154600160e01b8104820b60208501818152600160c81b8304840b968601879052600160a01b8304840b606087018190526001600160a01b03808516608089018190528d54821660a08a015260018e015490911660c0890152600a8d015460e089015260098d015461010089015260038d015460ff600160481b8204811615156101208b015260058f01546101408b015260068f01546101608b01526101808a018990526101a08a018990526101c08a018990526101e08a018990526102008a01899052600160b81b8704811615156102208b0152600160c01b909604861615156102408a0152610260890188905260088e0154989997989397612ae4979490961695919491939192916601000000000000909104900b611b09565b6040518060400160405280601981526020017f5533532d39204e6f20726562616c616e6365206e65656465640000000000000081525090612b385760405162461bcd60e51b8152600401610aa39190614b7c565b50612b4c8682608001518360a00151611ea6565b610240820152610100810151600090612b7790612b6d578260800151613653565b8260a00151613653565b90506000612b9c836101000151612b92578360a00151613653565b8360800151613653565b9050826101200151821015612bbb576101208301829052600589018290555b826101400151811015612bd8576101408301819052600689018190555b8261022001518015612bfd5750612bfd8360c001518461024001518560e001516136c3565b15612c775760088901805460ff191660011790556040517fb224dccea3c30282a142bed3cedb7af1657907dea7dc2828fb9ce06007f3159490600090a1612c728888856060015186608001518760a001518861010001518961012001518a6101400151612c6d8c606001516136f2565b613711565b612eae565b732275aA8b46873206D6673f7748AD08c59740603E6346a2a83889898c612ca188606001516136f2565b6040516001600160e01b031960e087901b1681526001600160a01b0394851660048201529390921660248401526044830152606482015260840160006040518083038186803b158015612cf357600080fd5b505af4158015612d07573d6000803e3d6000fd5b50505050612d916040518060e0016040528085606001516001600160a01b0316815260200185608001516001600160a01b031681526020018560a001516001600160a01b03168152602001856101000151151581526020018561012001518152602001856101400151815260200188815250612d8c8a86608001518760a00151613750565b6137d4565b6101a086018190526101808601829052610160860183905260058c019290925560068b015515612dda57826101a00151896007016000828254612dd49190614d24565b90915550505b6040805160028082526060820183529091602083019080368337019050509450826101000151612e0f57826101600151612e16565b8261018001515b612e238460800151613653565b612e2d9190614f21565b85600081518110612e4057612e40614c22565b602002602001018181525050826101000151612e6157826101800151612e68565b8261016001515b612e758460a00151613653565b612e7f9190614f21565b85600181518110612e9257612e92614c22565b60200260200101818152505082610200015115612eae57600193505b82610220015115612ec557610240830151600a8a01555b6040517fc741dbaad15a4f298fe8d80943fa8e005e7bcb2f5b0a0c8dec1fc35be457f14690600090a150505094509492505050565b604080516002808252606080830184529260208301908036833701905050905060008a6001600160a01b0316633850c7bd6040518163ffffffff1660e01b815260040160e060405180830381865afa158015612f5a573d6000803e3d6000fd5b505050506040513d601f19601f82011682018060405250810190612f7e9190614e5f565b5050604051630544f36560e31b815294955073AA7423AB76D0D826840b0801D480A5a929292fCE94632a279b289450612fc493508692508f91508e908a90600401614eee565b6040805180830381865af4158015612fe0573d6000803e3d6000fd5b505050506040513d601f19601f820116820180604052508101906130049190614c94565b8360008151811061301757613017614c22565b602002602001018460018151811061303157613031614c22565b6020908102919091010191909152526001600160801b0386161580159061306157506000856001600160801b0316115b156131775760008073AA7423AB76D0D826840b0801D480A5a929292fCE632a279b28848c8c8c6001600160801b03168b6001600160801b03168d6001600160801b03166130ae919061505c565b6130b89190615073565b6040518563ffffffff1660e01b81526004016130d79493929190614eee565b6040805180830381865af41580156130f3573d6000803e3d6000fd5b505050506040513d601f19601f820116820180604052508101906131179190614c94565b91509150818460008151811061312f5761312f614c22565b602002602001018181516131439190614d24565b905250835181908590600190811061315d5761315d614c22565b602002602001018181516131719190614d24565b90525050505b82156131f0578160018151811061319057613190614c22565b6020026020010151826000815181106131ab576131ab614c22565b6020026020010151836000815181106131c6576131c6614c22565b60200260200101846001815181106131e0576131e0614c22565b6020908102919091010191909152525b509998505050505050505050565b6000826001600160a01b0316634046ebae6040518163ffffffff1660e01b8152600401602060405180830381865afa15801561323e573d6000803e3d6000fd5b505050506040513d601f19601f820116820180604052508101906132629190614e1f565b845460405163095ea7b360e01b81526001600160a01b038084166004830152600019602483015292935091169063095ea7b3906044016020604051808303816000875af11580156132b7573d6000803e3d6000fd5b505050506040513d601f19601f820116820180604052508101906132db91906152a2565b50600184015460405163095ea7b360e01b81526001600160a01b03838116600483015260001960248301529091169063095ea7b3906044016020604051808303816000875af1158015613332573d6000803e3d6000fd5b505050506040513d601f19601f8201168201806040525081019061335691906152a2565b5060028085015461337291600160a01b909104900b6004614dc9565b60028581015491810b9161339891600160c81b8204810b91600160e01b9004900b6150fc565b6002868101805460ff60b81b1981169390920b9390931215600160b81b029182179092556133d3916001600160a01b03908116911617611a96565b1561345b5760028401805460ff60c01b1916600160c01b1790556611c37937e08000600985018190556040517fdf3e0a21768880619b1295cb9519494a0df71943ebb4ff056f72186cfcfb6d479161342e9190815260200190565b60405180910390a1835460018501546134559184916001600160a01b039182169116611ea6565b600a8501555b50505050565b8054604080516395d89b4160e01b815290516060926001600160a01b0316916395d89b419160048083019260009291908290030181865afa1580156134aa573d6000803e3d6000fd5b505050506040513d6000823e601f3d908101601f191682016040526134d29190810190615259565b8260010160009054906101000a90046001600160a01b03166001600160a01b03166395d89b416040518163ffffffff1660e01b8152600401600060405180830381865afa158015613527573d6000803e3d6000fd5b505050506040513d6000823e601f3d908101601f1916820160405261354f9190810190615259565b60028401546040805163ddca3f4360e01b815290516135ca926001600160a01b03169163ddca3f439160048083019260209291908290030181865afa15801561359c573d6000803e3d6000fd5b505050506040513d601f19601f820116820180604052508101906135c09190614d37565b62ffffff16613c51565b6040516020016135dc939291906152bf565b6040516020818303038152906040529050919050565b6040518181527fdf3e0a21768880619b1295cb9519494a0df71943ebb4ff056f72186cfcfb6d479060200160405180910390a150565b6040517f6b7ccec41cff3829e74e9b70bba25fca03418511799dd79dc80d774f15f35e1b90600090a1565b6040516370a0823160e01b81526000906001600160a01b038316906370a0823190613682903090600401614c38565b602060405180830381865afa15801561369f573d6000803e3d6000fd5b505050506040513d601f19601f82011682018060405250810190611ea09190614c4c565b60008284116136dd57816136d78585614f21565b116136ea565b816136e88486614f21565b115b949350505050565b60006136fd82611a96565b613709576101f4611ea0565b606492915050565b60008461371e5783613720565b825b905060008561372f5783613731565b845b90506137438b8b8b8b8b87878a613d52565b5050505050505050505050565b60405163dd27ede760e01b81523060048201526001600160a01b0383811660248301528281166044830152600060648301819052919085169063dd27ede79060840160408051808303816000875af11580156137b0573d6000803e3d6000fd5b505050506040513d601f19601f820116820180604052508101906129ab9190614c94565b608082015160a0830151606084015160009081906137f257836137f4565b825b9050600086606001516138075783613809565b845b905060008261381b8960200151613653565b6138259089614d24565b61382f9190614f21565b90508760c00151811015613c47576000818960c0015161384f9190614f21565b9050838111613884578860600151156138735761386c8187614f21565b9550613c45565b61387d8188614f21565b9650613c45565b886060015115613897576000955061389c565b600096505b60008315613c365789604001516001600160a01b031663313ce5676040518163ffffffff1660e01b8152600401602060405180830381865afa1580156138e6573d6000803e3d6000fd5b505050506040513d601f19601f8201168201806040525081019061390a9190614f34565b61391590600a615033565b8a516040808d01519051635620c32d60e11b8152879273AA7423AB76D0D826840b0801D480A5a929292fCE9263ac41865a92613955929190600401615042565b602060405180830381865af4158015613972573d6000803e3d6000fd5b505050506040513d601f19601f820116820180604052508101906139969190614c4c565b6139a0919061505c565b6139aa9190615073565b9050816139b78287614d24565b1115613c0357896060015115613ae55789602001516001600160a01b031663313ce5676040518163ffffffff1660e01b8152600401602060405180830381865afa158015613a09573d6000803e3d6000fd5b505050506040513d601f19601f82011682018060405250810190613a2d9190614f34565b613a3890600a615033565b8a5160208c0151604051635620c32d60e11b815273AA7423AB76D0D826840b0801D480A5a929292fCE9263ac41865a92613a7492600401615042565b602060405180830381865af4158015613a91573d6000803e3d6000fd5b505050506040513d601f19601f82011682018060405250810190613ab59190614c4c565b83613ac08489614d24565b613aca9190614f21565b613ad4919061505c565b613ade9190615073565b9750613c43565b89602001516001600160a01b031663313ce5676040518163ffffffff1660e01b8152600401602060405180830381865afa158015613b27573d6000803e3d6000fd5b505050506040513d601f19601f82011682018060405250810190613b4b9190614f34565b613b5690600a615033565b8a5160208c0151604051635620c32d60e11b815273AA7423AB76D0D826840b0801D480A5a929292fCE9263ac41865a92613b9292600401615042565b602060405180830381865af4158015613baf573d6000803e3d6000fd5b505050506040513d601f19601f82011682018060405250810190613bd39190614c4c565b83613bde8489614d24565b613be89190614f21565b613bf2919061505c565b613bfc9190615073565b9650613c43565b80613c0e8684614f21565b613c189190614f21565b9550896060015115613c2d5760009750613c43565b60009650613c43565b613c408583614f21565b95505b505b505b5050509250925092565b606081600003613c785750506040805180820190915260018152600360fc1b602082015290565b8160005b8115613ca25780613c8c81614c7b565b9150613c9b9050600a83615073565b9150613c7c565b60008167ffffffffffffffff811115613cbd57613cbd61445d565b6040519080825280601f01601f191660200182016040528015613ce7576020820181803683370190505b5090505b84156136ea57613cfc600183614f21565b9150613d09600a86615330565b613d14906030614d24565b60f81b818381518110613d2957613d29614c22565b60200101906001600160f81b031916908160001a905350613d4b600a86615073565b9450613ceb565b6000613d5f89878761436a565b90506000896001600160a01b031663f77c47916040518163ffffffff1660e01b8152600401602060405180830381865afa158015613da1573d6000803e3d6000fd5b505050506040513d601f19601f82011682018060405250810190613dc59190614e1f565b6001600160a01b0316632630c12f6040518163ffffffff1660e01b8152600401602060405180830381865afa158015613e02573d6000803e3d6000fd5b505050506040513d601f19601f82011682018060405250810190613e269190614e1f565b905067016345785d8a0000866001600160a01b031663313ce5676040518163ffffffff1660e01b8152600401602060405180830381865afa158015613e6f573d6000803e3d6000fd5b505050506040513d601f19601f82011682018060405250810190613e939190614f34565b613e9e90600a615033565b60405163b3596f0760e01b81526001600160a01b0384169063b3596f0790613eca908b90600401614c38565b602060405180830381865afa158015613ee7573d6000803e3d6000fd5b505050506040513d601f19601f82011682018060405250810190613f0b9190614c4c565b613f15908561505c565b613f1f9190615073565b111561435e576000613f3088613653565b90506000613f3d88613653565b905086821115613f5457613f518783614f21565b91505b85811115613f6957613f668682614f21565b90505b838110156141ab57604051635620c32d60e11b815260009073AA7423AB76D0D826840b0801D480A5a929292fCE9063ac41865a90613fad908e908d90600401615042565b602060405180830381865af4158015613fca573d6000803e3d6000fd5b505050506040513d601f19601f82011682018060405250810190613fee9190614c4c565b90506000896001600160a01b031663313ce5676040518163ffffffff1660e01b8152600401602060405180830381865afa158015614030573d6000803e3d6000fd5b505050506040513d601f19601f820116820180604052508101906140549190614f34565b61405f90600a615033565b6140698488614f21565b614073908461505c565b61407d9190615073565b905061408a606482615073565b6140949082614d24565b9050733A986013f2b9772415F7b4433a904ae271688f1B637de8f5698f8f6001600160a01b0316634046ebae6040518163ffffffff1660e01b8152600401602060405180830381865afa1580156140ef573d6000803e3d6000fd5b505050506040513d601f19601f820116820180604052508101906141139190614e1f565b8e8e61411f878b6143f7565b8d6000806040518963ffffffff1660e01b8152600401614146989796959493929190615344565b6040805180830381865af4158015614162573d6000803e3d6000fd5b505050506040513d601f19601f820116820180604052508101906141869190614c94565b50506141918a613653565b9250878311156141a8576141a58884614f21565b92505b50505b733A986013f2b9772415F7b4433a904ae271688f1B63954d7e738d8b8b6141d289876143f7565b6040516001600160e01b031960e087901b1681526001600160a01b03948516600482015292841660248401529216604482015260648101919091526084016040805180830381865af415801561422c573d6000803e3d6000fd5b505050506040513d601f19601f820116820180604052508101906142509190614c94565b505061425b88613653565b9050858111156142725761426f8682614f21565b90505b733A986013f2b9772415F7b4433a904ae271688f1B637de8f5698d8d6001600160a01b0316634046ebae6040518163ffffffff1660e01b8152600401602060405180830381865afa1580156142cb573d6000803e3d6000fd5b505050506040513d601f19601f820116820180604052508101906142ef9190614e1f565b8b8d868b6000806040518963ffffffff1660e01b8152600401614319989796959493929190615344565b6040805180830381865af4158015614335573d6000803e3d6000fd5b505050506040513d601f19601f820116820180604052508101906143599190614c94565b505050505b50505050505050505050565b60405163dd27ede760e01b81523060048201526001600160a01b0383811660248301528281166044830152600160648301526000919085169063dd27ede79060840160408051808303816000875af11580156143ca573d6000803e3d6000fd5b505050506040513d601f19601f820116820180604052508101906143ee9190614c94565b50949350505050565b60008183106144065781612073565b5090919050565b6001600160a01b038116811461442257600080fd5b50565b8060020b811461442257600080fd5b803561443f81614425565b919050565b801515811461442257600080fd5b803561443f81614444565b634e487b7160e01b600052604160045260246000fd5b604051601f8201601f1916810167ffffffffffffffff8111828210171561449c5761449c61445d565b604052919050565b600067ffffffffffffffff8211156144be576144be61445d565b5060051b60200190565b600082601f8301126144d957600080fd5b813560206144ee6144e9836144a4565b614473565b82815260059290921b8401810191818101908684111561450d57600080fd5b8286015b848110156145315780356145248161440d565b8352918301918301614511565b509695505050505050565b6001600160801b038116811461442257600080fd5b803561443f8161453c565b60008060008060008060008060008060006101608c8e03121561457e57600080fd5b8b356145898161440d565b9a5060208c013561459981614425565b99506145a760408d01614434565b98506145b560608d01614434565b97506145c360808d01614434565b965060a08c0135955060c08c013594506145df60e08d01614452565b93506101008c013567ffffffffffffffff8111156145fc57600080fd5b6146088e828f016144c8565b9350506146186101208d01614551565b91506146276101408d01614551565b90509295989b509295989b9093969950565b600081518084526020808501945080840160005b838110156146695781518752958201959082019060010161464d565b509495945050505050565b6040815260006146876040830185614639565b82810360208401526129ab8185614639565b600080600080608085870312156146af57600080fd5b84356146ba8161440d565b935060208501356146ca81614425565b925060408501356146da81614425565b915060608501356146ea8161440d565b939692955090935050565b60006020828403121561470757600080fd5b5035919050565b6020815260006120736020830184614639565b60008060008060008060008060006101208a8c03121561474057600080fd5b893561474b8161440d565b985060208a013561475b81614425565b975060408a013561476b81614425565b965060608a013561477b81614425565b955060808a013561478b81614425565b945060a08a013561479b8161453c565b935060c08a01356147ab8161453c565b925060e08a01356147bb8161453c565b91506101008a01356147cc81614444565b809150509295985092959850929598565b6060815260006147f06060830186614639565b6001600160801b0394851660208401529290931660409091015292915050565b60006020828403121561482257600080fd5b81356120738161440d565b60008060008060008060c0878903121561484657600080fd5b863561485181614444565b955060208701356148618161440d565b9450604087013561487181614425565b9350606087013561488181614425565b9250608087013561489181614425565b915060a08701356148a181614425565b809150509295509295509295565b600080604083850312156148c257600080fd5b8235915060208301356148d48161440d565b809150509250929050565b6000806000606084860312156148f457600080fd5b83356148ff8161440d565b9250602084013561490f8161440d565b9150604084013561491f8161440d565b809150509250925092565b60008060008060008060c0878903121561494357600080fd5b863561494e8161440d565b955060208781013561495f81614425565b9550604088013561496f81614425565b9450606088013567ffffffffffffffff81111561498b57600080fd5b8801601f81018a1361499c57600080fd5b80356149aa6144e9826144a4565b81815260059190911b8201830190838101908c8311156149c957600080fd5b928401925b828410156149e7578335825292840192908401906149ce565b80975050505050506149fb60808801614551565b9150614a0960a08801614452565b90509295509295509295565b606081526000614a286060830186614639565b90508360208301526001600160801b0383166040830152949350505050565b60008060008060008060c08789031215614a6057600080fd5b8635614a6b8161440d565b95506020870135614a7b81614425565b94506040870135614a8b81614425565b93506060870135614a9b81614425565b9598949750929560808101359460a0909101359350915050565b600293840b81529190920b60208201526001600160801b03909116604082015260600190565b60008060008060808587031215614af157600080fd5b8435614afc8161440d565b93506020850135614b0c81614425565b92506040850135614b1c81614425565b915060608501356146ea81614444565b60005b83811015614b47578181015183820152602001614b2f565b50506000910152565b60008151808452614b68816020860160208601614b2c565b601f01601f19169290920160200192915050565b6020815260006120736020830184614b50565b60008060008060808587031215614ba557600080fd5b843593506020850135614bb78161440d565b92506040850135614bc78161440d565b9396929550929360600135925050565b604081526000614bea6040830185614639565b905082151560208301529392505050565b600080600060608486031215614c1057600080fd5b83359250602084013561490f8161440d565b634e487b7160e01b600052603260045260246000fd5b6001600160a01b0391909116815260200190565b600060208284031215614c5e57600080fd5b5051919050565b634e487b7160e01b600052601160045260246000fd5b600060018201614c8d57614c8d614c65565b5060010190565b60008060408385031215614ca757600080fd5b505080516020909101519092909150565b6001600160a01b03959095168552600293840b60208601529190920b60408401526001600160801b03918216606084015216608082015260a00190565b60008060408385031215614d0857600080fd5b8251614d138161453c565b60208401519092506148d48161453c565b80820180821115611ea057611ea0614c65565b600060208284031215614d4957600080fd5b815162ffffff8116811461207357600080fd5b600060208284031215614d6e57600080fd5b815161207381614425565b634e487b7160e01b600052601260045260246000fd5b60008160020b8360020b80614da657614da6614d79565b627fffff19821460001982141615614dc057614dc0614c65565b90059392505050565b60008260020b8260020b028060020b9150808214614de957614de9614c65565b5092915050565b60008060408385031215614e0357600080fd5b8251614e0e81614425565b60208401519092506148d481614425565b600060208284031215614e3157600080fd5b81516120738161440d565b805161ffff8116811461443f57600080fd5b805160ff8116811461443f57600080fd5b600080600080600080600060e0888a031215614e7a57600080fd5b8751614e858161440d565b6020890151909750614e9681614425565b9550614ea460408901614e3c565b9450614eb260608901614e3c565b9350614ec060808901614e3c565b9250614ece60a08901614e4e565b915060c0880151614ede81614444565b8091505092959891949750929550565b6001600160a01b03949094168452600292830b6020850152910b60408301526001600160801b0316606082015260800190565b81810381811115611ea057611ea0614c65565b600060208284031215614f4657600080fd5b61207382614e4e565b600181815b80851115614f8a578160001904821115614f7057614f70614c65565b80851615614f7d57918102915b93841c9390800290614f54565b509250929050565b600082614fa157506001611ea0565b81614fae57506000611ea0565b8160018114614fc45760028114614fce57614fea565b6001915050611ea0565b60ff841115614fdf57614fdf614c65565b50506001821b611ea0565b5060208310610133831016604e8410600b841016171561500d575081810a611ea0565b6150178383614f4f565b806000190482111561502b5761502b614c65565b029392505050565b600061207360ff841683614f92565b6001600160a01b0392831681529116602082015260400190565b8082028115828204841417611ea057611ea0614c65565b60008261508257615082614d79565b500490565b6001600160801b03828116828216039080821115614de957614de9614c65565b600060a08201905060018060a01b03808451168352602084015160020b6020840152604084015160020b60408401526001600160801b0360608501511660608401528060808501511660808401525092915050565b600282810b9082900b03627fffff198112627fffff82131715611ea057611ea0614c65565b600281810b9083900b01627fffff8113627fffff1982121715611ea057611ea0614c65565b6001600160a01b03959095168552600293840b60208601529190920b60408401526060830191909152608082015260a00190565b60008060006060848603121561518f57600080fd5b8351925060208401519150604084015161491f8161453c565b6001600160a01b03949094168452600292830b6020850152910b60408301526001600160801b0316606082015260a06080820181905260009082015260c00190565b6001600160801b03818116838216019080821115614de957614de9614c65565b600067ffffffffffffffff8311156152245761522461445d565b615237601f8401601f1916602001614473565b905082815283838301111561524b57600080fd5b612073836020830184614b2c565b60006020828403121561526b57600080fd5b815167ffffffffffffffff81111561528257600080fd5b8201601f8101841361529357600080fd5b6136ea8482516020840161520a565b6000602082840312156152b457600080fd5b815161207381614444565b6502ab734ab19960d51b8152600084516152e0816006850160208901614b2c565b602f60f81b6006918401918201528451615301816007840160208901614b2c565b602d60f81b600792909101918201528351615323816008840160208801614b2c565b0160080195945050505050565b60008261533f5761533f614d79565b500690565b6001600160a01b03988916815296881660208801529487166040870152929095166060850152608084015260a083019390935260c082019290925290151560e0820152610100019056fe5533532d3420496e636f727265637420726562616c616e63655469636b52616e6765a26469706673582212206d9e5e749b3ca019973f1338bb2cec79334c221ac89a878c17b65c3382052b5d64736f6c63430008110033",
  "deployedBytecode": "0x73000000000000000000000000000000000000000030146080604052600436106101415760003560e01c80637fd6c0a1116100c2578063c68bc70311610086578063c68bc70314610387578063ce74e5d91461039a578063d4ca283a146103a8578063d6f43ad8146103ca578063e3bca2d8146103dd578063f460770b146103fd57600080fd5b80637fd6c0a1146102c857806380089367146102db5780638c64d4551461030a578063a1d4398914610339578063b24d8db01461035957600080fd5b806333fdd81d1161010957806333fdd81d1461023d578063345aec361461026c57806354747e5b1461027f57806357d59aae146102a25780635ca1bcdf146102b557600080fd5b8063052a88991461014657806305d408941461017d5780630a65e5e7146101d4578063190fa314146101f4578063232421d91461021c575b600080fd5b81801561015257600080fd5b5061016661016136600461455c565b610412565b604051610174929190614674565b60405180910390f35b61019061018b366004614699565b61093c565b60408051600297880b815295870b60208701529390950b928401929092526001600160a01b03908116606084015216608082015290151560a082015260c001610174565b6101e76101e23660046146f5565b610efd565b604051610174919061470e565b6102076102023660046146f5565b611212565b60408051928352602083019190915201610174565b61022f61022a3660046146f5565b611305565b604051908152602001610174565b81801561024957600080fd5b5061025d610258366004614721565b611484565b604051610174939291906147dd565b61020761027a3660046146f5565b6118ce565b61029261028d366004614810565b611a96565b6040519015158152602001610174565b6102926102b036600461482d565b611b09565b6102926102c33660046148af565b611c34565b61022f6102d63660046148df565b611ea6565b8180156102e757600080fd5b506102fb6102f636600461492a565b61207a565b60405161017493929190614a15565b81801561031657600080fd5b5061032a610325366004614a47565b61234a565b60405161017493929190614ab5565b61034c610347366004614adb565b61290e565b6040516101749190614b7c565b81801561036557600080fd5b50610379610374366004614b8f565b6129b4565b604051610174929190614bd7565b6101e7610395366004614721565b612efa565b61022f6611c37937e0800081565b8180156103b457600080fd5b506103c86103c3366004614bfb565b6131fe565b005b61034c6103d83660046146f5565b613461565b8180156103e957600080fd5b506103c86103f83660046146f5565b6135f2565b81801561040957600080fd5b506103c8613628565b60408051600280825260608083018452928392919060208301908036833701905050905060005b85518110156104f75785818151811061045457610454614c22565b60200260200101516001600160a01b03166370a08231306040518263ffffffff1660e01b81526004016104879190614c38565b602060405180830381865afa1580156104a4573d6000803e3d6000fd5b505050506040513d601f19601f820116820180604052508101906104c89190614c4c565b8282815181106104da576104da614c22565b6020908102919091010152806104ef81614c7b565b915050610439565b5060408051600280825260608201835290916020830190803683370190505091506001600160801b0384161561066e5760405163a34123a760e01b81526001600160a01b038e169063a34123a790610558908f908f90600090600401614ab5565b60408051808303816000875af1158015610576573d6000803e3d6000fd5b505050506040513d601f19601f8201168201806040525081019061059a9190614c94565b50508c6001600160a01b0316634f1eb3d8308e8e6001600160801b03806040518663ffffffff1660e01b81526004016105d7959493929190614cb8565b60408051808303816000875af11580156105f5573d6000803e3d6000fd5b505050506040513d601f19601f820116820180604052508101906106199190614cf5565b816001600160801b03169150806001600160801b031690508360008151811061064457610644614c22565b602002602001018460018151811061065e5761065e614c22565b6020908102919091010191909152525b6001600160801b038316156107e45760405163a34123a760e01b81526001600160a01b038e169063a34123a7906106ae908d908d90600090600401614ab5565b60408051808303816000875af11580156106cc573d6000803e3d6000fd5b505050506040513d601f19601f820116820180604052508101906106f09190614c94565b50506000808e6001600160a01b0316634f1eb3d8308e8e6001600160801b03806040518663ffffffff1660e01b8152600401610730959493929190614cb8565b60408051808303816000875af115801561074e573d6000803e3d6000fd5b505050506040513d601f19601f820116820180604052508101906107729190614cf5565b6001600160801b031691506001600160801b03169150818460008151811061079c5761079c614c22565b602002602001018181516107b09190614d24565b90525083518190859060019081106107ca576107ca614c22565b602002602001018181516107de9190614d24565b90525050505b7fd809a30c675e811f2837e53a49b9409406bb7e6f808658eef60d09ac30579e898260008151811061081857610818614c22565b60200260200101518360018151811061083357610833614c22565b6020026020010151604051610852929190918252602082015260400190565b60405180910390a1878260008151811061086e5761086e614c22565b602002602001018181516108829190614d24565b905250815187908390600190811061089c5761089c614c22565b602002602001018181516108b09190614d24565b905250851561092c57816001815181106108cc576108cc614c22565b6020026020010151826000815181106108e7576108e7614c22565b60200260200101518360008151811061090257610902614c22565b602002602001018460018151811061091c5761091c614c22565b6020908102919091010191909152525b9b509b9950505050505050505050565b60008060008060008073__$0c70757f598a889e7e5bdfcf0bf5e1f3f7$__63ea8668158b6001600160a01b031663ddca3f436040518163ffffffff1660e01b8152600401602060405180830381865afa15801561099d573d6000803e3d6000fd5b505050506040513d601f19601f820116820180604052508101906109c19190614d37565b6040516001600160e01b031960e084901b16815262ffffff9091166004820152602401602060405180830381865af4158015610a01573d6000803e3d6000fd5b505050506040513d601f19601f82011682018060405250810190610a259190614d5c565b95508860020b600014610b035785610a3d818b614d8f565b610a479190614dc9565b60020b8960020b146040518060400160405280601981526020017f5533532d3320496e636f7272656374207469636b52616e67650000000000000081525090610aac5760405162461bcd60e51b8152600401610aa39190614b7c565b60405180910390fd5b5085610ab8818a614d8f565b610ac29190614dc9565b60020b8860020b1460405180606001604052806022815260200161538f6022913990610b015760405162461bcd60e51b8152600401610aa39190614b7c565b505b60405163369eb6fb60e21b81526001600160a01b038b16600482015260028a810b602483015287900b604482015273__$105aa07724e80e292e8a4b4cc62d6ec972$__9063da7adbec906064016040805180830381865af4158015610b6c573d6000803e3d6000fd5b505050506040513d601f19601f82011682018060405250810190610b909190614df0565b8095508196505050896001600160a01b0316630dfe16816040518163ffffffff1660e01b8152600401602060405180830381865afa158015610bd6573d6000803e3d6000fd5b505050506040513d601f19601f82011682018060405250810190610bfa9190614e1f565b6001600160a01b0316876001600160a01b03161480610c8b5750896001600160a01b031663d21220a76040518163ffffffff1660e01b8152600401602060405180830381865afa158015610c52573d6000803e3d6000fd5b505050506040513d601f19601f82011682018060405250810190610c769190614e1f565b6001600160a01b0316876001600160a01b0316145b60405180604001604052806015815260200174154cd4cb4d48125b98dbdc9c9958dd08185cdcd95d605a1b81525090610cd75760405162461bcd60e51b8152600401610aa39190614b7c565b50896001600160a01b0316630dfe16816040518163ffffffff1660e01b8152600401602060405180830381865afa158015610d16573d6000803e3d6000fd5b505050506040513d601f19601f82011682018060405250810190610d3a9190614e1f565b6001600160a01b0316876001600160a01b031603610e2357896001600160a01b0316630dfe16816040518163ffffffff1660e01b8152600401602060405180830381865afa158015610d90573d6000803e3d6000fd5b505050506040513d601f19601f82011682018060405250810190610db49190614e1f565b9250896001600160a01b031663d21220a76040518163ffffffff1660e01b8152600401602060405180830381865afa158015610df4573d6000803e3d6000fd5b505050506040513d601f19601f82011682018060405250810190610e189190614e1f565b915060009050610ef0565b896001600160a01b031663d21220a76040518163ffffffff1660e01b8152600401602060405180830381865afa158015610e61573d6000803e3d6000fd5b505050506040513d601f19601f82011682018060405250810190610e859190614e1f565b9250896001600160a01b0316630dfe16816040518163ffffffff1660e01b8152600401602060405180830381865afa158015610ec5573d6000803e3d6000fd5b505050506040513d601f19601f82011682018060405250810190610ee99190614e1f565b9150600190505b9499939850945094509450565b604080516002808252606080830184529260208301908036833701905050905060008260020160009054906101000a90046001600160a01b03166001600160a01b0316633850c7bd6040518163ffffffff1660e01b815260040160e060405180830381865afa158015610f74573d6000803e3d6000fd5b505050506040513d601f19601f82011682018060405250810190610f989190614e5f565b505050506002868101546003880154604051630544f36560e31b815295965073__$0c70757f598a889e7e5bdfcf0bf5e1f3f7$__95632a279b28955061100894508793600160c81b8404810b93600160e01b9004900b91600160501b90046001600160801b031690600401614eee565b6040805180830381865af4158015611024573d6000803e3d6000fd5b505050506040513d601f19601f820116820180604052508101906110489190614c94565b8360008151811061105b5761105b614c22565b602002602001018460018151811061107557611075614c22565b6020908102919091010191909152526003830154600480850154604051630544f36560e31b8152600093849373__$0c70757f598a889e7e5bdfcf0bf5e1f3f7$__93632a279b28936110e6938993600282810b946301000000909304900b926001600160801b039092169101614eee565b6040805180830381865af4158015611102573d6000803e3d6000fd5b505050506040513d601f19601f820116820180604052508101906111269190614c94565b91509150818460008151811061113e5761113e614c22565b602002602001018181516111529190614d24565b905250835181908590600190811061116c5761116c614c22565b602002602001018181516111809190614d24565b9052506003850154600160481b900460ff161561120a57836001815181106111aa576111aa614c22565b6020026020010151846000815181106111c5576111c5614c22565b6020026020010151856000815181106111e0576111e0614c22565b60200260200101866001815181106111fa576111fa614c22565b6020908102919091010191909152525b505050919050565b600381015481546000918291600160481b90910460ff169061123c906001600160a01b0316613653565b6001850154909350611256906001600160a01b0316613653565b915060008161126957846005015461126f565b84600601545b9050600082611282578560060154611288565b85600501545b905081851015801561129a5750808410155b604051806040016040528060138152602001725533532d322057726f6e672062616c616e636560681b815250906112e45760405162461bcd60e51b8152600401610aa39190614b7c565b506112ef8286614f21565b94506112fb8185614f21565b9350505050915091565b60018101546000906001600160a01b03168180611321856118ce565b915091508460050154826113359190614d24565b91508460060154816113479190614d24565b6003860154909150600160481b900460ff161561136057905b6000836001600160a01b031663313ce5676040518163ffffffff1660e01b8152600401602060405180830381865afa1580156113a0573d6000803e3d6000fd5b505050506040513d601f19601f820116820180604052508101906113c49190614f34565b6113cf90600a615033565b6002870154604051635620c32d60e11b8152849173__$0c70757f598a889e7e5bdfcf0bf5e1f3f7$__9163ac41865a91611419916001600160a01b03909116908a90600401615042565b602060405180830381865af4158015611436573d6000803e3d6000fd5b505050506040513d601f19601f8201168201806040525081019061145a9190614c4c565b611464919061505c565b61146e9190615073565b905061147a8184614d24565b9695505050505050565b606060008060009050846001600160801b0316876001600160801b03161015604051806040016040528060158152602001745533532d372057726f6e67206c697175696469747960581b815250906114ef5760405162461bcd60e51b8152600401610aa39190614b7c565b506040805160028082526060820183529091602083019080368337505060405163a34123a760e01b8152919450506001600160a01b038d169063a34123a790611540908e908e908a90600401614ab5565b60408051808303816000875af115801561155e573d6000803e3d6000fd5b505050506040513d601f19601f820116820180604052508101906115829190614c94565b8460008151811061159557611595614c22565b60200260200101856001815181106115af576115af614c22565b6020908102919091010191909152526040516309e3d67b60e31b81526001600160a01b038d1690634f1eb3d8906115f99030908f908f906001600160801b03908190600401614cb8565b60408051808303816000875af1158015611617573d6000803e3d6000fd5b505050506040513d601f19601f8201168201806040525081019061163b9190614cf5565b50506001600160801b0386161561183a576000876001600160801b0316866001600160801b0316886001600160801b0316611676919061505c565b6116809190615073565b90506000808e6001600160a01b031663a34123a78d8d866040518463ffffffff1660e01b81526004016116b593929190614ab5565b60408051808303816000875af11580156116d3573d6000803e3d6000fd5b505050506040513d601f19601f820116820180604052508101906116f79190614c94565b915091508e6001600160a01b0316634f1eb3d8308e8e6001600160801b03806040518663ffffffff1660e01b8152600401611736959493929190614cb8565b60408051808303816000875af1158015611754573d6000803e3d6000fd5b505050506040513d601f19601f820116820180604052508101906117789190614cf5565b5050818660008151811061178e5761178e614c22565b602002602001018181516117a29190614d24565b90525085518190879060019081106117bc576117bc614c22565b602002602001018181516117d09190614d24565b90525060408051808201909152601281527105533532d382057726f6e672066696c6c75760741b60208201526001600160801b03808516908b1610156118295760405162461bcd60e51b8152600401610aa39190614b7c565b50611834838a615087565b93505050505b6118448588615087565b915083156118bf578260018151811061185f5761185f614c22565b60200260200101518360008151811061187a5761187a614c22565b60200260200101518460008151811061189557611895614c22565b60200260200101856001815181106118af576118af614c22565b6020908102919091010191909152525b99509950999650505050505050565b6040805160a0810182526002838101546001600160a01b0381168352600160c81b8104820b6020840152600160e01b9004900b818301526003830154600160501b90046001600160801b0316606082015230608082015290516352bb7e6960e01b8152600091829173__$0c70757f598a889e7e5bdfcf0bf5e1f3f7$__906352bb7e69906119609084906004016150a7565b6040805180830381865af415801561197c573d6000803e3d6000fd5b505050506040513d601f19601f820116820180604052508101906119a09190614c94565b6040805160a0810182526002808901546001600160a01b03168252600389015480820b602084015263010000009004900b818301526004808901546001600160801b0316606083015230608083015291516352bb7e6960e01b81529396509194509091600091829173__$0c70757f598a889e7e5bdfcf0bf5e1f3f7$__916352bb7e6991611a30918791016150a7565b6040805180830381865af4158015611a4c573d6000803e3d6000fd5b505050506040513d601f19601f82011682018060405250810190611a709190614c94565b9092509050611a7f8287614d24565b9550611a8b8186614d24565b945050505050915091565b6000816001600160a01b031663ddca3f436040518163ffffffff1660e01b8152600401602060405180830381865afa158015611ad6573d6000803e3d6000fd5b505050506040513d601f19601f82011682018060405250810190611afa9190614d37565b62ffffff166064149050919050565b60008615611b195750600061147a565b6000866001600160a01b0316633850c7bd6040518163ffffffff1660e01b815260040160e060405180830381865afa158015611b59573d6000803e3d6000fd5b505050506040513d601f19601f82011682018060405250810190611b7d9190614e5f565b50505050509150508360020b8686611b9591906150fc565b60020b03611bbf578560020b8160020b1280611bb757508460020b8160020b12155b91505061147a565b60006002611bcd88886150fc565b611bd79190614d8f565b90506000611be58289615121565b90508060020b8360020b1315611c1357600285900b611c0482856150fc565b60020b1215935050505061147a565b600285900b611c2284836150fc565b60020b139a9950505050505050505050565b6000806000611c42856118ce565b91509150846005015482611c569190614d24565b9150846006015481611c689190614d24565b6003860154909150600160481b900460ff1615611c8157905b845460018601546040805163f77c479160e01b815290516001600160a01b0393841693928316926000929089169163f77c4791916004808201926020929091908290030181865afa158015611cda573d6000803e3d6000fd5b505050506040513d601f19601f82011682018060405250810190611cfe9190614e1f565b6001600160a01b0316632630c12f6040518163ffffffff1660e01b8152600401602060405180830381865afa158015611d3b573d6000803e3d6000fd5b505050506040513d601f19601f82011682018060405250810190611d5f9190614e1f565b90506000816001600160a01b031663b3596f07856040518263ffffffff1660e01b8152600401611d8f9190614c38565b602060405180830381865afa158015611dac573d6000803e3d6000fd5b505050506040513d601f19601f82011682018060405250810190611dd09190614c4c565b90506000826001600160a01b031663b3596f07856040518263ffffffff1660e01b8152600401611e009190614c38565b602060405180830381865afa158015611e1d573d6000803e3d6000fd5b505050506040513d601f19601f82011682018060405250810190611e419190614c4c565b90506000670de0b6b3a7640000611e58848a61505c565b611e629190615073565b90506000670de0b6b3a7640000611e79848a61505c565b611e839190615073565b90506064821180611e945750606481115b99505050505050505050505b92915050565b600080846001600160a01b031663f77c47916040518163ffffffff1660e01b8152600401602060405180830381865afa158015611ee7573d6000803e3d6000fd5b505050506040513d601f19601f82011682018060405250810190611f0b9190614e1f565b6001600160a01b0316632630c12f6040518163ffffffff1660e01b8152600401602060405180830381865afa158015611f48573d6000803e3d6000fd5b505050506040513d601f19601f82011682018060405250810190611f6c9190614e1f565b90506000816001600160a01b031663b3596f07866040518263ffffffff1660e01b8152600401611f9c9190614c38565b602060405180830381865afa158015611fb9573d6000803e3d6000fd5b505050506040513d601f19601f82011682018060405250810190611fdd9190614c4c565b90506000826001600160a01b031663b3596f07866040518263ffffffff1660e01b815260040161200d9190614c38565b602060405180830381865afa15801561202a573d6000803e3d6000fd5b505050506040513d601f19601f8201168201806040525081019061204e9190614c4c565b90508161206382670de0b6b3a764000061505c565b61206d9190615073565b93505050505b9392505050565b604080516002808252606082810190935260009182918160200160208202803683370190505092506000866001815181106120b7576120b7614c22565b6020026020010151111561233e57831561213e57856001815181106120de576120de614c22565b6020026020010151866000815181106120f9576120f9614c22565b60200260200101518760008151811061211457612114614c22565b602002602001018860018151811061212e5761212e614c22565b6020908102919091010191909152525b600073__$0c70757f598a889e7e5bdfcf0bf5e1f3f7$__6317c22c3c8b8b8b8b60008151811061217057612170614c22565b60200260200101518c60018151811061218b5761218b614c22565b60200260200101516040518663ffffffff1660e01b81526004016121b3959493929190615146565b606060405180830381865af41580156121d0573d6000803e3d6000fd5b505050506040513d601f19601f820116820180604052508101906121f4919061517a565b8660008151811061220757612207614c22565b602002602001018760018151811061222157612221614c22565b6020908102919091010192909252919052604051633c8a7d8d60e01b81529091506001600160a01b038b1690633c8a7d8d906122679030908d908d9087906004016151a8565b60408051808303816000875af1158015612285573d6000803e3d6000fd5b505050506040513d601f19601f820116820180604052508101906122a99190614c94565b50506001600160801b03811692506122c181876151ea565b9150841561233c57836001815181106122dc576122dc614c22565b6020026020010151846000815181106122f7576122f7614c22565b60200260200101518560008151811061231257612312614c22565b602002602001018660018151811061232c5761232c614c22565b6020908102919091010191909152525b505b96509650969350505050565b6000806000806123ba8a6001600160a01b0316630dfe16816040518163ffffffff1660e01b8152600401602060405180830381865afa158015612391573d6000803e3d6000fd5b505050506040513d601f19601f820116820180604052508101906123b59190614e1f565b613653565b905060006123ff8b6001600160a01b031663d21220a76040518163ffffffff1660e01b8152600401602060405180830381865afa158015612391573d6000803e3d6000fd5b90508682101580156124115750858110155b6040518060400160405280600f81526020016e5533532d362057726f6e672066656560881b815250906124575760405162461bcd60e51b8152600401610aa39190614b7c565b506124628783614f21565b915061246e8682614f21565b9050600082118061247f5750600081115b156129005760008b6001600160a01b0316633850c7bd6040518163ffffffff1660e01b815260040160e060405180830381865afa1580156124c4573d6000803e3d6000fd5b505050506040513d601f19601f820116820180604052508101906124e89190614e5f565b50505050509150508b6001600160a01b031663d21220a76040518163ffffffff1660e01b8152600401602060405180830381865afa15801561252e573d6000803e3d6000fd5b505050506040513d601f19601f820116820180604052508101906125529190614e1f565b6001600160a01b031663313ce5676040518163ffffffff1660e01b8152600401602060405180830381865afa15801561258f573d6000803e3d6000fd5b505050506040513d601f19601f820116820180604052508101906125b39190614f34565b6125be90600a615033565b73__$0c70757f598a889e7e5bdfcf0bf5e1f3f7$__63ac41865a8e8f6001600160a01b031663d21220a76040518163ffffffff1660e01b8152600401602060405180830381865afa158015612617573d6000803e3d6000fd5b505050506040513d601f19601f8201168201806040525081019061263b9190614e1f565b6040518363ffffffff1660e01b8152600401612658929190615042565b602060405180830381865af4158015612675573d6000803e3d6000fd5b505050506040513d601f19601f820116820180604052508101906126999190614c4c565b6126a3908461505c565b6126ad9190615073565b8311156127db5788806126c08184614d8f565b6126ca9190614dc9565b6126d49190615121565b6040516305f08b0f60e21b81529096508a955073__$0c70757f598a889e7e5bdfcf0bf5e1f3f7$__906317c22c3c9061271a908f908a908a908990600090600401615146565b606060405180830381865af4158015612737573d6000803e3d6000fd5b505050506040513d601f19601f8201168201806040525081019061275b919061517a565b604051633c8a7d8d60e01b81529096506001600160a01b038f169250633c8a7d8d91506127929030908a908a908a906004016151a8565b60408051808303816000875af11580156127b0573d6000803e3d6000fd5b505050506040513d601f19601f820116820180604052508101906127d49190614c94565b50506128fe565b8a955088806127ea8184614d8f565b6127f49190614dc9565b6127fe91906150fc565b6040516305f08b0f60e21b815290955073__$0c70757f598a889e7e5bdfcf0bf5e1f3f7$__906317c22c3c90612841908f908a908a906000908990600401615146565b606060405180830381865af415801561285e573d6000803e3d6000fd5b505050506040513d601f19601f82011682018060405250810190612882919061517a565b604051633c8a7d8d60e01b81529096506001600160a01b038f169250633c8a7d8d91506128b99030908a908a908a906004016151a8565b60408051808303816000875af11580156128d7573d6000803e3d6000fd5b505050506040513d601f19601f820116820180604052508101906128fb9190614c94565b50505b505b505096509650969350505050565b60405163a1d4398960e01b81526001600160a01b0385166004820152600284810b602483015283900b6044820152811515606482015260609073__$105aa07724e80e292e8a4b4cc62d6ec972$__9063a1d4398990608401600060405180830381865af4158015612983573d6000803e3d6000fd5b505050506040513d6000823e601f3d908101601f191682016040526129ab9190810190615259565b95945050505050565b60408051600080825261028082018352600280880154600160e01b8104820b60208501818152600160c81b8304840b968601879052600160a01b8304840b606087018190526001600160a01b03808516608089018190528d54821660a08a015260018e015490911660c0890152600a8d015460e089015260098d015461010089015260038d015460ff600160481b8204811615156101208b015260058f01546101408b015260068f01546101608b01526101808a018990526101a08a018990526101c08a018990526101e08a018990526102008a01899052600160b81b8704811615156102208b0152600160c01b909604861615156102408a0152610260890188905260088e0154989997989397612ae4979490961695919491939192916601000000000000909104900b611b09565b6040518060400160405280601981526020017f5533532d39204e6f20726562616c616e6365206e65656465640000000000000081525090612b385760405162461bcd60e51b8152600401610aa39190614b7c565b50612b4c8682608001518360a00151611ea6565b610240820152610100810151600090612b7790612b6d578260800151613653565b8260a00151613653565b90506000612b9c836101000151612b92578360a00151613653565b8360800151613653565b9050826101200151821015612bbb576101208301829052600589018290555b826101400151811015612bd8576101408301819052600689018190555b8261022001518015612bfd5750612bfd8360c001518461024001518560e001516136c3565b15612c775760088901805460ff191660011790556040517fb224dccea3c30282a142bed3cedb7af1657907dea7dc2828fb9ce06007f3159490600090a1612c728888856060015186608001518760a001518861010001518961012001518a6101400151612c6d8c606001516136f2565b613711565b612eae565b73__$105aa07724e80e292e8a4b4cc62d6ec972$__6346a2a83889898c612ca188606001516136f2565b6040516001600160e01b031960e087901b1681526001600160a01b0394851660048201529390921660248401526044830152606482015260840160006040518083038186803b158015612cf357600080fd5b505af4158015612d07573d6000803e3d6000fd5b50505050612d916040518060e0016040528085606001516001600160a01b0316815260200185608001516001600160a01b031681526020018560a001516001600160a01b03168152602001856101000151151581526020018561012001518152602001856101400151815260200188815250612d8c8a86608001518760a00151613750565b6137d4565b6101a086018190526101808601829052610160860183905260058c019290925560068b015515612dda57826101a00151896007016000828254612dd49190614d24565b90915550505b6040805160028082526060820183529091602083019080368337019050509450826101000151612e0f57826101600151612e16565b8261018001515b612e238460800151613653565b612e2d9190614f21565b85600081518110612e4057612e40614c22565b602002602001018181525050826101000151612e6157826101800151612e68565b8261016001515b612e758460a00151613653565b612e7f9190614f21565b85600181518110612e9257612e92614c22565b60200260200101818152505082610200015115612eae57600193505b82610220015115612ec557610240830151600a8a01555b6040517fc741dbaad15a4f298fe8d80943fa8e005e7bcb2f5b0a0c8dec1fc35be457f14690600090a150505094509492505050565b604080516002808252606080830184529260208301908036833701905050905060008a6001600160a01b0316633850c7bd6040518163ffffffff1660e01b815260040160e060405180830381865afa158015612f5a573d6000803e3d6000fd5b505050506040513d601f19601f82011682018060405250810190612f7e9190614e5f565b5050604051630544f36560e31b815294955073__$0c70757f598a889e7e5bdfcf0bf5e1f3f7$__94632a279b289450612fc493508692508f91508e908a90600401614eee565b6040805180830381865af4158015612fe0573d6000803e3d6000fd5b505050506040513d601f19601f820116820180604052508101906130049190614c94565b8360008151811061301757613017614c22565b602002602001018460018151811061303157613031614c22565b6020908102919091010191909152526001600160801b0386161580159061306157506000856001600160801b0316115b156131775760008073__$0c70757f598a889e7e5bdfcf0bf5e1f3f7$__632a279b28848c8c8c6001600160801b03168b6001600160801b03168d6001600160801b03166130ae919061505c565b6130b89190615073565b6040518563ffffffff1660e01b81526004016130d79493929190614eee565b6040805180830381865af41580156130f3573d6000803e3d6000fd5b505050506040513d601f19601f820116820180604052508101906131179190614c94565b91509150818460008151811061312f5761312f614c22565b602002602001018181516131439190614d24565b905250835181908590600190811061315d5761315d614c22565b602002602001018181516131719190614d24565b90525050505b82156131f0578160018151811061319057613190614c22565b6020026020010151826000815181106131ab576131ab614c22565b6020026020010151836000815181106131c6576131c6614c22565b60200260200101846001815181106131e0576131e0614c22565b6020908102919091010191909152525b509998505050505050505050565b6000826001600160a01b0316634046ebae6040518163ffffffff1660e01b8152600401602060405180830381865afa15801561323e573d6000803e3d6000fd5b505050506040513d601f19601f820116820180604052508101906132629190614e1f565b845460405163095ea7b360e01b81526001600160a01b038084166004830152600019602483015292935091169063095ea7b3906044016020604051808303816000875af11580156132b7573d6000803e3d6000fd5b505050506040513d601f19601f820116820180604052508101906132db91906152a2565b50600184015460405163095ea7b360e01b81526001600160a01b03838116600483015260001960248301529091169063095ea7b3906044016020604051808303816000875af1158015613332573d6000803e3d6000fd5b505050506040513d601f19601f8201168201806040525081019061335691906152a2565b5060028085015461337291600160a01b909104900b6004614dc9565b60028581015491810b9161339891600160c81b8204810b91600160e01b9004900b6150fc565b6002868101805460ff60b81b1981169390920b9390931215600160b81b029182179092556133d3916001600160a01b03908116911617611a96565b1561345b5760028401805460ff60c01b1916600160c01b1790556611c37937e08000600985018190556040517fdf3e0a21768880619b1295cb9519494a0df71943ebb4ff056f72186cfcfb6d479161342e9190815260200190565b60405180910390a1835460018501546134559184916001600160a01b039182169116611ea6565b600a8501555b50505050565b8054604080516395d89b4160e01b815290516060926001600160a01b0316916395d89b419160048083019260009291908290030181865afa1580156134aa573d6000803e3d6000fd5b505050506040513d6000823e601f3d908101601f191682016040526134d29190810190615259565b8260010160009054906101000a90046001600160a01b03166001600160a01b03166395d89b416040518163ffffffff1660e01b8152600401600060405180830381865afa158015613527573d6000803e3d6000fd5b505050506040513d6000823e601f3d908101601f1916820160405261354f9190810190615259565b60028401546040805163ddca3f4360e01b815290516135ca926001600160a01b03169163ddca3f439160048083019260209291908290030181865afa15801561359c573d6000803e3d6000fd5b505050506040513d601f19601f820116820180604052508101906135c09190614d37565b62ffffff16613c51565b6040516020016135dc939291906152bf565b6040516020818303038152906040529050919050565b6040518181527fdf3e0a21768880619b1295cb9519494a0df71943ebb4ff056f72186cfcfb6d479060200160405180910390a150565b6040517f6b7ccec41cff3829e74e9b70bba25fca03418511799dd79dc80d774f15f35e1b90600090a1565b6040516370a0823160e01b81526000906001600160a01b038316906370a0823190613682903090600401614c38565b602060405180830381865afa15801561369f573d6000803e3d6000fd5b505050506040513d601f19601f82011682018060405250810190611ea09190614c4c565b60008284116136dd57816136d78585614f21565b116136ea565b816136e88486614f21565b115b949350505050565b60006136fd82611a96565b613709576101f4611ea0565b606492915050565b60008461371e5783613720565b825b905060008561372f5783613731565b845b90506137438b8b8b8b8b87878a613d52565b5050505050505050505050565b60405163dd27ede760e01b81523060048201526001600160a01b0383811660248301528281166044830152600060648301819052919085169063dd27ede79060840160408051808303816000875af11580156137b0573d6000803e3d6000fd5b505050506040513d601f19601f820116820180604052508101906129ab9190614c94565b608082015160a0830151606084015160009081906137f257836137f4565b825b9050600086606001516138075783613809565b845b905060008261381b8960200151613653565b6138259089614d24565b61382f9190614f21565b90508760c00151811015613c47576000818960c0015161384f9190614f21565b9050838111613884578860600151156138735761386c8187614f21565b9550613c45565b61387d8188614f21565b9650613c45565b886060015115613897576000955061389c565b600096505b60008315613c365789604001516001600160a01b031663313ce5676040518163ffffffff1660e01b8152600401602060405180830381865afa1580156138e6573d6000803e3d6000fd5b505050506040513d601f19601f8201168201806040525081019061390a9190614f34565b61391590600a615033565b8a516040808d01519051635620c32d60e11b8152879273__$0c70757f598a889e7e5bdfcf0bf5e1f3f7$__9263ac41865a92613955929190600401615042565b602060405180830381865af4158015613972573d6000803e3d6000fd5b505050506040513d601f19601f820116820180604052508101906139969190614c4c565b6139a0919061505c565b6139aa9190615073565b9050816139b78287614d24565b1115613c0357896060015115613ae55789602001516001600160a01b031663313ce5676040518163ffffffff1660e01b8152600401602060405180830381865afa158015613a09573d6000803e3d6000fd5b505050506040513d601f19601f82011682018060405250810190613a2d9190614f34565b613a3890600a615033565b8a5160208c0151604051635620c32d60e11b815273__$0c70757f598a889e7e5bdfcf0bf5e1f3f7$__9263ac41865a92613a7492600401615042565b602060405180830381865af4158015613a91573d6000803e3d6000fd5b505050506040513d601f19601f82011682018060405250810190613ab59190614c4c565b83613ac08489614d24565b613aca9190614f21565b613ad4919061505c565b613ade9190615073565b9750613c43565b89602001516001600160a01b031663313ce5676040518163ffffffff1660e01b8152600401602060405180830381865afa158015613b27573d6000803e3d6000fd5b505050506040513d601f19601f82011682018060405250810190613b4b9190614f34565b613b5690600a615033565b8a5160208c0151604051635620c32d60e11b815273__$0c70757f598a889e7e5bdfcf0bf5e1f3f7$__9263ac41865a92613b9292600401615042565b602060405180830381865af4158015613baf573d6000803e3d6000fd5b505050506040513d601f19601f82011682018060405250810190613bd39190614c4c565b83613bde8489614d24565b613be89190614f21565b613bf2919061505c565b613bfc9190615073565b9650613c43565b80613c0e8684614f21565b613c189190614f21565b9550896060015115613c2d5760009750613c43565b60009650613c43565b613c408583614f21565b95505b505b505b5050509250925092565b606081600003613c785750506040805180820190915260018152600360fc1b602082015290565b8160005b8115613ca25780613c8c81614c7b565b9150613c9b9050600a83615073565b9150613c7c565b60008167ffffffffffffffff811115613cbd57613cbd61445d565b6040519080825280601f01601f191660200182016040528015613ce7576020820181803683370190505b5090505b84156136ea57613cfc600183614f21565b9150613d09600a86615330565b613d14906030614d24565b60f81b818381518110613d2957613d29614c22565b60200101906001600160f81b031916908160001a905350613d4b600a86615073565b9450613ceb565b6000613d5f89878761436a565b90506000896001600160a01b031663f77c47916040518163ffffffff1660e01b8152600401602060405180830381865afa158015613da1573d6000803e3d6000fd5b505050506040513d601f19601f82011682018060405250810190613dc59190614e1f565b6001600160a01b0316632630c12f6040518163ffffffff1660e01b8152600401602060405180830381865afa158015613e02573d6000803e3d6000fd5b505050506040513d601f19601f82011682018060405250810190613e269190614e1f565b905067016345785d8a0000866001600160a01b031663313ce5676040518163ffffffff1660e01b8152600401602060405180830381865afa158015613e6f573d6000803e3d6000fd5b505050506040513d601f19601f82011682018060405250810190613e939190614f34565b613e9e90600a615033565b60405163b3596f0760e01b81526001600160a01b0384169063b3596f0790613eca908b90600401614c38565b602060405180830381865afa158015613ee7573d6000803e3d6000fd5b505050506040513d601f19601f82011682018060405250810190613f0b9190614c4c565b613f15908561505c565b613f1f9190615073565b111561435e576000613f3088613653565b90506000613f3d88613653565b905086821115613f5457613f518783614f21565b91505b85811115613f6957613f668682614f21565b90505b838110156141ab57604051635620c32d60e11b815260009073__$0c70757f598a889e7e5bdfcf0bf5e1f3f7$__9063ac41865a90613fad908e908d90600401615042565b602060405180830381865af4158015613fca573d6000803e3d6000fd5b505050506040513d601f19601f82011682018060405250810190613fee9190614c4c565b90506000896001600160a01b031663313ce5676040518163ffffffff1660e01b8152600401602060405180830381865afa158015614030573d6000803e3d6000fd5b505050506040513d601f19601f820116820180604052508101906140549190614f34565b61405f90600a615033565b6140698488614f21565b614073908461505c565b61407d9190615073565b905061408a606482615073565b6140949082614d24565b905073__$e930d50fb5f4f1298547dbcb2bb0591990$__637de8f5698f8f6001600160a01b0316634046ebae6040518163ffffffff1660e01b8152600401602060405180830381865afa1580156140ef573d6000803e3d6000fd5b505050506040513d601f19601f820116820180604052508101906141139190614e1f565b8e8e61411f878b6143f7565b8d6000806040518963ffffffff1660e01b8152600401614146989796959493929190615344565b6040805180830381865af4158015614162573d6000803e3d6000fd5b505050506040513d601f19601f820116820180604052508101906141869190614c94565b50506141918a613653565b9250878311156141a8576141a58884614f21565b92505b50505b73__$e930d50fb5f4f1298547dbcb2bb0591990$__63954d7e738d8b8b6141d289876143f7565b6040516001600160e01b031960e087901b1681526001600160a01b03948516600482015292841660248401529216604482015260648101919091526084016040805180830381865af415801561422c573d6000803e3d6000fd5b505050506040513d601f19601f820116820180604052508101906142509190614c94565b505061425b88613653565b9050858111156142725761426f8682614f21565b90505b73__$e930d50fb5f4f1298547dbcb2bb0591990$__637de8f5698d8d6001600160a01b0316634046ebae6040518163ffffffff1660e01b8152600401602060405180830381865afa1580156142cb573d6000803e3d6000fd5b505050506040513d601f19601f820116820180604052508101906142ef9190614e1f565b8b8d868b6000806040518963ffffffff1660e01b8152600401614319989796959493929190615344565b6040805180830381865af4158015614335573d6000803e3d6000fd5b505050506040513d601f19601f820116820180604052508101906143599190614c94565b505050505b50505050505050505050565b60405163dd27ede760e01b81523060048201526001600160a01b0383811660248301528281166044830152600160648301526000919085169063dd27ede79060840160408051808303816000875af11580156143ca573d6000803e3d6000fd5b505050506040513d601f19601f820116820180604052508101906143ee9190614c94565b50949350505050565b60008183106144065781612073565b5090919050565b6001600160a01b038116811461442257600080fd5b50565b8060020b811461442257600080fd5b803561443f81614425565b919050565b801515811461442257600080fd5b803561443f81614444565b634e487b7160e01b600052604160045260246000fd5b604051601f8201601f1916810167ffffffffffffffff8111828210171561449c5761449c61445d565b604052919050565b600067ffffffffffffffff8211156144be576144be61445d565b5060051b60200190565b600082601f8301126144d957600080fd5b813560206144ee6144e9836144a4565b614473565b82815260059290921b8401810191818101908684111561450d57600080fd5b8286015b848110156145315780356145248161440d565b8352918301918301614511565b509695505050505050565b6001600160801b038116811461442257600080fd5b803561443f8161453c565b60008060008060008060008060008060006101608c8e03121561457e57600080fd5b8b356145898161440d565b9a5060208c013561459981614425565b99506145a760408d01614434565b98506145b560608d01614434565b97506145c360808d01614434565b965060a08c0135955060c08c013594506145df60e08d01614452565b93506101008c013567ffffffffffffffff8111156145fc57600080fd5b6146088e828f016144c8565b9350506146186101208d01614551565b91506146276101408d01614551565b90509295989b509295989b9093969950565b600081518084526020808501945080840160005b838110156146695781518752958201959082019060010161464d565b509495945050505050565b6040815260006146876040830185614639565b82810360208401526129ab8185614639565b600080600080608085870312156146af57600080fd5b84356146ba8161440d565b935060208501356146ca81614425565b925060408501356146da81614425565b915060608501356146ea8161440d565b939692955090935050565b60006020828403121561470757600080fd5b5035919050565b6020815260006120736020830184614639565b60008060008060008060008060006101208a8c03121561474057600080fd5b893561474b8161440d565b985060208a013561475b81614425565b975060408a013561476b81614425565b965060608a013561477b81614425565b955060808a013561478b81614425565b945060a08a013561479b8161453c565b935060c08a01356147ab8161453c565b925060e08a01356147bb8161453c565b91506101008a01356147cc81614444565b809150509295985092959850929598565b6060815260006147f06060830186614639565b6001600160801b0394851660208401529290931660409091015292915050565b60006020828403121561482257600080fd5b81356120738161440d565b60008060008060008060c0878903121561484657600080fd5b863561485181614444565b955060208701356148618161440d565b9450604087013561487181614425565b9350606087013561488181614425565b9250608087013561489181614425565b915060a08701356148a181614425565b809150509295509295509295565b600080604083850312156148c257600080fd5b8235915060208301356148d48161440d565b809150509250929050565b6000806000606084860312156148f457600080fd5b83356148ff8161440d565b9250602084013561490f8161440d565b9150604084013561491f8161440d565b809150509250925092565b60008060008060008060c0878903121561494357600080fd5b863561494e8161440d565b955060208781013561495f81614425565b9550604088013561496f81614425565b9450606088013567ffffffffffffffff81111561498b57600080fd5b8801601f81018a1361499c57600080fd5b80356149aa6144e9826144a4565b81815260059190911b8201830190838101908c8311156149c957600080fd5b928401925b828410156149e7578335825292840192908401906149ce565b80975050505050506149fb60808801614551565b9150614a0960a08801614452565b90509295509295509295565b606081526000614a286060830186614639565b90508360208301526001600160801b0383166040830152949350505050565b60008060008060008060c08789031215614a6057600080fd5b8635614a6b8161440d565b95506020870135614a7b81614425565b94506040870135614a8b81614425565b93506060870135614a9b81614425565b9598949750929560808101359460a0909101359350915050565b600293840b81529190920b60208201526001600160801b03909116604082015260600190565b60008060008060808587031215614af157600080fd5b8435614afc8161440d565b93506020850135614b0c81614425565b92506040850135614b1c81614425565b915060608501356146ea81614444565b60005b83811015614b47578181015183820152602001614b2f565b50506000910152565b60008151808452614b68816020860160208601614b2c565b601f01601f19169290920160200192915050565b6020815260006120736020830184614b50565b60008060008060808587031215614ba557600080fd5b843593506020850135614bb78161440d565b92506040850135614bc78161440d565b9396929550929360600135925050565b604081526000614bea6040830185614639565b905082151560208301529392505050565b600080600060608486031215614c1057600080fd5b83359250602084013561490f8161440d565b634e487b7160e01b600052603260045260246000fd5b6001600160a01b0391909116815260200190565b600060208284031215614c5e57600080fd5b5051919050565b634e487b7160e01b600052601160045260246000fd5b600060018201614c8d57614c8d614c65565b5060010190565b60008060408385031215614ca757600080fd5b505080516020909101519092909150565b6001600160a01b03959095168552600293840b60208601529190920b60408401526001600160801b03918216606084015216608082015260a00190565b60008060408385031215614d0857600080fd5b8251614d138161453c565b60208401519092506148d48161453c565b80820180821115611ea057611ea0614c65565b600060208284031215614d4957600080fd5b815162ffffff8116811461207357600080fd5b600060208284031215614d6e57600080fd5b815161207381614425565b634e487b7160e01b600052601260045260246000fd5b60008160020b8360020b80614da657614da6614d79565b627fffff19821460001982141615614dc057614dc0614c65565b90059392505050565b60008260020b8260020b028060020b9150808214614de957614de9614c65565b5092915050565b60008060408385031215614e0357600080fd5b8251614e0e81614425565b60208401519092506148d481614425565b600060208284031215614e3157600080fd5b81516120738161440d565b805161ffff8116811461443f57600080fd5b805160ff8116811461443f57600080fd5b600080600080600080600060e0888a031215614e7a57600080fd5b8751614e858161440d565b6020890151909750614e9681614425565b9550614ea460408901614e3c565b9450614eb260608901614e3c565b9350614ec060808901614e3c565b9250614ece60a08901614e4e565b915060c0880151614ede81614444565b8091505092959891949750929550565b6001600160a01b03949094168452600292830b6020850152910b60408301526001600160801b0316606082015260800190565b81810381811115611ea057611ea0614c65565b600060208284031215614f4657600080fd5b61207382614e4e565b600181815b80851115614f8a578160001904821115614f7057614f70614c65565b80851615614f7d57918102915b93841c9390800290614f54565b509250929050565b600082614fa157506001611ea0565b81614fae57506000611ea0565b8160018114614fc45760028114614fce57614fea565b6001915050611ea0565b60ff841115614fdf57614fdf614c65565b50506001821b611ea0565b5060208310610133831016604e8410600b841016171561500d575081810a611ea0565b6150178383614f4f565b806000190482111561502b5761502b614c65565b029392505050565b600061207360ff841683614f92565b6001600160a01b0392831681529116602082015260400190565b8082028115828204841417611ea057611ea0614c65565b60008261508257615082614d79565b500490565b6001600160801b03828116828216039080821115614de957614de9614c65565b600060a08201905060018060a01b03808451168352602084015160020b6020840152604084015160020b60408401526001600160801b0360608501511660608401528060808501511660808401525092915050565b600282810b9082900b03627fffff198112627fffff82131715611ea057611ea0614c65565b600281810b9083900b01627fffff8113627fffff1982121715611ea057611ea0614c65565b6001600160a01b03959095168552600293840b60208601529190920b60408401526060830191909152608082015260a00190565b60008060006060848603121561518f57600080fd5b8351925060208401519150604084015161491f8161453c565b6001600160a01b03949094168452600292830b6020850152910b60408301526001600160801b0316606082015260a06080820181905260009082015260c00190565b6001600160801b03818116838216019080821115614de957614de9614c65565b600067ffffffffffffffff8311156152245761522461445d565b615237601f8401601f1916602001614473565b905082815283838301111561524b57600080fd5b612073836020830184614b2c565b60006020828403121561526b57600080fd5b815167ffffffffffffffff81111561528257600080fd5b8201601f8101841361529357600080fd5b6136ea8482516020840161520a565b6000602082840312156152b457600080fd5b815161207381614444565b6502ab734ab19960d51b8152600084516152e0816006850160208901614b2c565b602f60f81b6006918401918201528451615301816007840160208901614b2c565b602d60f81b600792909101918201528351615323816008840160208801614b2c565b0160080195945050505050565b60008261533f5761533f614d79565b500690565b6001600160a01b03988916815296881660208801529487166040870152929095166060850152608084015260a083019390935260c082019290925290151560e0820152610100019056fe5533532d3420496e636f727265637420726562616c616e63655469636b52616e6765a26469706673582212206d9e5e749b3ca019973f1338bb2cec79334c221ac89a878c17b65c3382052b5d64736f6c63430008110033",
  "libraries": {
    "UniswapV3Lib": "0xAA7423AB76D0D826840b0801D480A5a929292fCE",
    "UniswapV3DebtLib": "0x2275aA8b46873206D6673f7748AD08c59740603E",
    "ConverterStrategyBaseLib": "0x3A986013f2b9772415F7b4433a904ae271688f1B",
    "ConverterStrategyBaseLib2": "0x3488c83887BA65da248d1B4A2776F8E93419c1d3"
  },
  "devdoc": {
    "kind": "dev",
    "methods": {
      "addFillup(IUniswapV3Pool,int24,int24,int24,uint256,uint256)": {
        "params": {
          "fee0": "The fee amount for the first token in the pool.",
          "fee1": "The fee amount for the second token in the pool.",
          "lowerTick": "The current lower tick value for the pool.",
          "pool": "The Uniswap V3 pool to add liquidity to.",
          "tickSpacing": "The tick spacing for the pool.",
          "upperTick": "The current upper tick value for the pool."
        },
        "returns": {
          "liquidityOutFillup": "The liquidity amount added to the new range.",
          "lowerTickFillup": "The lower tick value for the new liquidity range.",
          "upperTickFillup": "The upper tick value for the new liquidity range."
        }
      },
      "calcInitialDepositorValues(IUniswapV3Pool,int24,int24,address)": {
        "params": {
          "asset_": "Underlying asset of the depositor.",
          "pool": "The Uniswap V3 pool to get the initial values from.",
          "rebalanceTickRange_": "The rebalance tick range for the pool.",
          "tickRange_": "The tick range for the pool."
        },
        "returns": {
          "_depositorSwapTokens": "A boolean representing whether to use reverse tokens for pool.",
          "lowerTick": "The lower tick value for the pool.",
          "tickSpacing": "The tick spacing for the pool.",
          "tokenA": "The address of the first token in the pool.",
          "tokenB": "The address of the second token in the pool.",
          "upperTick": "The upper tick value for the pool."
        }
      },
      "claimRewards(IUniswapV3Pool,int24,int24,int24,int24,uint256,uint256,bool,address[],uint128,uint128)": {
        "params": {
          "_depositorSwapTokens": "A boolean indicating if need to use token B instead of token A.",
          "lowerTick": "The lower tick of the pool's main range.",
          "lowerTickFillup": "The lower tick of the pool's fill-up range.",
          "pool": "The Uniswap V3 pool instance.",
          "rebalanceEarned0": "The amount of token0 earned from rebalancing.",
          "rebalanceEarned1": "The amount of token1 earned from rebalancing.",
          "upperTick": "The upper tick of the pool's main range.",
          "upperTickFillup": "The upper tick of the pool's fill-up range."
        },
        "returns": {
          "amountsOut": "An array containing the amounts of token0 and token1 claimed as rewards."
        }
      },
      "enter(IUniswapV3Pool,int24,int24,uint256[],uint128,bool)": {
        "params": {
          "_depositorSwapTokens": "A boolean indicating if need to use token B instead of token A.",
          "amountsDesired_": "An array containing the desired amounts of tokens to provide liquidity.",
          "lowerTick": "The lower tick value for the pool.",
          "pool": "The Uniswap V3 pool to provide liquidity to.",
          "totalLiquidity": "The current total liquidity in the pool.",
          "upperTick": "The upper tick value for the pool."
        },
        "returns": {
          "amountsConsumed": "An array containing the consumed amounts for each token in the pool.",
          "liquidityOut": "The amount of liquidity added to the pool.",
          "totalLiquidityNew": "The updated total liquidity after providing liquidity."
        }
      },
      "exit(IUniswapV3Pool,int24,int24,int24,int24,uint128,uint128,uint128,bool)": {
        "params": {
          "_depositorSwapTokens": "A boolean indicating if need to use token B instead of token A.",
          "liquidity": "The current liquidity in the pool.",
          "liquidityAmountToExit": "The amount of liquidity to exit.",
          "liquidityFillup": "The current liquidity in the fillup range.",
          "lowerTick": "The lower tick value for the pool.",
          "lowerTickFillup": "The lower tick value for the fillup range in the pool.",
          "pool": "The Uniswap V3 pool to exit from.",
          "upperTick": "The upper tick value for the pool.",
          "upperTickFillup": "The upper tick value for the fillup range in the pool."
        },
        "returns": {
          "amountsOut": "An array containing the collected amounts for each token in the pool.",
          "totalLiquidity": "The updated total liquidity after the exit.",
          "totalLiquidityFillup": "The updated total liquidity in the fillup range after the exit."
        }
      },
      "getEntryData(IUniswapV3Pool,int24,int24,bool)": {
        "params": {
          "depositorSwapTokens": "A boolean indicating if need to use token B instead of token A.",
          "lowerTick": "The lower tick of the pool's main range.",
          "pool": "The Uniswap V3 pool instance.",
          "upperTick": "The upper tick of the pool's main range."
        },
        "returns": {
          "entryData": "A byte array containing the entry data for the pool."
        }
      },
      "getFees(UniswapV3ConverterStrategyLogicLib.State storage)": {
        "params": {
          "state": "The State storage containing the pool's information."
        },
        "returns": {
          "fee0": "The fees generated for the first token in the pool.",
          "fee1": "The fees generated for the second token in the pool."
        }
      },
      "getOracleAssetsPrice(ITetuConverter,address,address)": {
        "params": {
          "converter": "The Tetu converter.",
          "tokenA": "The first token address.",
          "tokenB": "The second token address."
        },
        "returns": {
          "_0": "The price ratio of the two tokens."
        }
      },
      "getPoolReserves(UniswapV3ConverterStrategyLogicLib.State storage)": {
        "params": {
          "state": "The State storage containing the pool's information."
        },
        "returns": {
          "reserves": "An array containing the reserve amounts of the contract owned liquidity."
        }
      },
      "getTokenAmounts(UniswapV3ConverterStrategyLogicLib.State storage)": {
        "params": {
          "state": "The state of the pool."
        },
        "returns": {
          "amountA": "The balance of tokenA.",
          "amountB": "The balance of tokenB."
        }
      },
      "isStablePool(IUniswapV3Pool)": {
        "params": {
          "pool": "The Uniswap V3 pool."
        },
        "returns": {
          "_0": "A boolean indicating if the pool is stable."
        }
      },
      "needRebalance(bool,IUniswapV3Pool,int24,int24,int24,int24)": {
        "returns": {
          "_0": "A boolean indicating if the pool needs to be rebalanced."
        }
      },
      "quoteExit(IUniswapV3Pool,int24,int24,int24,int24,uint128,uint128,uint128,bool)": {
        "params": {
          "_depositorSwapTokens": "A boolean indicating if need to use token B instead of token A.",
          "liquidity": "The current liquidity in the pool.",
          "liquidityAmountToExit": "The amount of liquidity to exit.",
          "liquidityFillup": "The current liquidity in the fillup range.",
          "lowerTick": "The lower tick value for the pool.",
          "lowerTickFillup": "The lower tick value for the fillup range in the pool.",
          "pool": "The Uniswap V3 pool to quote the exit amounts for.",
          "upperTick": "The upper tick value for the pool.",
          "upperTickFillup": "The upper tick value for the fillup range in the pool."
        },
        "returns": {
          "amountsOut": "An array containing the estimated exit amounts for each token in the pool."
        }
      },
      "rebalance(UniswapV3ConverterStrategyLogicLib.State storage,ITetuConverter,address,uint256)": {
        "details": "Rebalances the current position, adjusts the tick range, and attempts to cover loss with pool rewards.",
        "params": {
          "controller": "The Tetu controller address.",
          "converter": "The TetuConverter contract.",
          "oldInvestedAssets": "The amount of invested assets before rebalancing.",
          "state": "The State storage object."
        },
        "returns": {
          "isNeedFillup": "Indicates if fill-up is required after rebalancing.",
          "tokenAmounts": "The token amounts for deposit (if length != 2 then do nothing)."
        }
      }
    },
    "stateVariables": {
      "DEFAULT_FUSE_THRESHOLD": {
        "details": "0.5% by default"
      }
    },
    "version": 1
  },
  "userdoc": {
    "kind": "user",
    "methods": {
      "addFillup(IUniswapV3Pool,int24,int24,int24,uint256,uint256)": {
        "notice": "Add liquidity to a Uniswap V3 pool in a specified tick range according fill up rules."
      },
      "calcInitialDepositorValues(IUniswapV3Pool,int24,int24,address)": {
        "notice": "Calculate the initial values for a Uniswap V3 pool Depositor."
      },
      "claimRewards(IUniswapV3Pool,int24,int24,int24,int24,uint256,uint256,bool,address[],uint128,uint128)": {
        "notice": "Claim rewards from the Uniswap V3 pool."
      },
      "enter(IUniswapV3Pool,int24,int24,uint256[],uint128,bool)": {
        "notice": "Enter the pool and provide liquidity with desired token amounts."
      },
      "exit(IUniswapV3Pool,int24,int24,int24,int24,uint128,uint128,uint128,bool)": {
        "notice": "Exit the pool and collect tokens proportional to the liquidity amount to exit."
      },
      "getEntryData(IUniswapV3Pool,int24,int24,bool)": {
        "notice": "Get entry data for a Uniswap V3 pool."
      },
      "getFees(UniswapV3ConverterStrategyLogicLib.State storage)": {
        "notice": "Retrieve the fees generated by a Uniswap V3 pool managed by this contract."
      },
      "getOracleAssetsPrice(ITetuConverter,address,address)": {
        "notice": "Get the price ratio of the two given tokens from the oracle."
      },
      "getPoolReserves(UniswapV3ConverterStrategyLogicLib.State storage)": {
        "notice": "Retrieve the reserves of a Uniswap V3 pool managed by this contract."
      },
      "getTokenAmounts(UniswapV3ConverterStrategyLogicLib.State storage)": {
        "notice": "Get the token amounts held by the contract excluding earned parts."
      },
      "isStablePool(IUniswapV3Pool)": {
        "notice": "Check if the given pool is a stable pool."
      },
      "needRebalance(bool,IUniswapV3Pool,int24,int24,int24,int24)": {
        "notice": "Determine if the pool needs to be rebalanced."
      },
      "quoteExit(IUniswapV3Pool,int24,int24,int24,int24,uint128,uint128,uint128,bool)": {
        "notice": "Estimate the exit amounts for a given liquidity amount in a Uniswap V3 pool."
      }
    },
    "version": 1
  },
  "storageLayout": {
    "storage": [],
    "types": null
  }
}