{
  "address": "0x4c6BA23D0a27CEc344c0FaAa2A536E5746827016",
  "abi": [
    {
      "anonymous": false,
      "inputs": [
        {
          "indexed": false,
          "internalType": "address",
          "name": "token",
          "type": "address"
        },
        {
          "indexed": false,
          "internalType": "uint256",
          "name": "amount",
          "type": "uint256"
        }
      ],
      "name": "Claimed",
      "type": "event"
    },
    {
      "anonymous": false,
      "inputs": [
        {
          "indexed": false,
          "internalType": "uint256",
          "name": "oldValue",
          "type": "uint256"
        },
        {
          "indexed": false,
          "internalType": "uint256",
          "name": "newValue",
          "type": "uint256"
        }
      ],
      "name": "CompoundRatioChanged",
      "type": "event"
    },
    {
      "anonymous": false,
      "inputs": [
        {
          "indexed": false,
          "internalType": "address",
          "name": "controller",
          "type": "address"
        },
        {
          "indexed": false,
          "internalType": "uint256",
          "name": "ts",
          "type": "uint256"
        },
        {
          "indexed": false,
          "internalType": "uint256",
          "name": "block",
          "type": "uint256"
        }
      ],
      "name": "ContractInitialized",
      "type": "event"
    },
    {
      "anonymous": false,
      "inputs": [
        {
          "indexed": false,
          "internalType": "uint256",
          "name": "amount",
          "type": "uint256"
        }
      ],
      "name": "DepositToPool",
      "type": "event"
    },
    {
      "anonymous": false,
      "inputs": [
        {
          "indexed": false,
          "internalType": "address",
          "name": "sender",
          "type": "address"
        },
        {
          "indexed": false,
          "internalType": "uint256",
          "name": "amount",
          "type": "uint256"
        }
      ],
      "name": "EmergencyExit",
      "type": "event"
    },
    {
      "anonymous": false,
      "inputs": [
        {
          "indexed": false,
          "internalType": "uint8",
          "name": "version",
          "type": "uint8"
        }
      ],
      "name": "Initialized",
      "type": "event"
    },
    {
      "anonymous": false,
      "inputs": [
        {
          "indexed": false,
          "internalType": "uint256",
          "name": "balance",
          "type": "uint256"
        }
      ],
      "name": "InvestAll",
      "type": "event"
    },
    {
      "anonymous": false,
      "inputs": [
        {
          "indexed": false,
          "internalType": "address",
          "name": "token",
          "type": "address"
        },
        {
          "indexed": false,
          "internalType": "uint256",
          "name": "amount",
          "type": "uint256"
        }
      ],
      "name": "LiquidationThresholdChanged",
      "type": "event"
    },
    {
      "anonymous": false,
      "inputs": [
        {
          "indexed": false,
          "internalType": "address",
          "name": "sender",
          "type": "address"
        }
      ],
      "name": "ManualClaim",
      "type": "event"
    },
    {
      "anonymous": false,
      "inputs": [
        {
          "indexed": false,
          "internalType": "uint256[]",
          "name": "withdrawnAmounts",
          "type": "uint256[]"
        }
      ],
      "name": "OnDepositorEmergencyExit",
      "type": "event"
    },
    {
      "anonymous": false,
      "inputs": [
        {
          "indexed": false,
          "internalType": "uint256[]",
          "name": "amounts",
          "type": "uint256[]"
        },
        {
          "indexed": false,
          "internalType": "uint256[]",
          "name": "consumedAmounts",
          "type": "uint256[]"
        }
      ],
      "name": "OnDepositorEnter",
      "type": "event"
    },
    {
      "anonymous": false,
      "inputs": [
        {
          "indexed": false,
          "internalType": "uint256",
          "name": "liquidityAmount",
          "type": "uint256"
        },
        {
          "indexed": false,
          "internalType": "uint256[]",
          "name": "withdrawnAmounts",
          "type": "uint256[]"
        }
      ],
      "name": "OnDepositorExit",
      "type": "event"
    },
    {
      "anonymous": false,
      "inputs": [
        {
          "indexed": false,
          "internalType": "address[]",
          "name": "rewardTokens",
          "type": "address[]"
        },
        {
          "indexed": false,
          "internalType": "uint256[]",
          "name": "receivedAmounts",
          "type": "uint256[]"
        },
        {
          "indexed": false,
          "internalType": "uint256[]",
          "name": "spentAmounts",
          "type": "uint256[]"
        },
        {
          "indexed": false,
          "internalType": "uint256[]",
          "name": "amountsToForward",
          "type": "uint256[]"
        },
        {
          "indexed": false,
          "internalType": "uint256[]",
          "name": "performanceAmounts",
          "type": "uint256[]"
        }
      ],
      "name": "Recycle",
      "type": "event"
    },
    {
      "anonymous": false,
      "inputs": [
        {
          "indexed": false,
          "internalType": "uint256",
          "name": "amount",
          "type": "uint256"
        }
      ],
      "name": "ReinvestThresholdPercentChanged",
      "type": "event"
    },
    {
      "anonymous": false,
      "inputs": [
        {
          "indexed": false,
          "internalType": "address",
          "name": "asset",
          "type": "address"
        },
        {
          "indexed": false,
          "internalType": "uint256",
          "name": "amount",
          "type": "uint256"
        }
      ],
      "name": "ReturnAssetToConverter",
      "type": "event"
    },
    {
      "anonymous": false,
      "inputs": [
        {
          "indexed": false,
          "internalType": "uint256",
          "name": "value",
          "type": "uint256"
        },
        {
          "indexed": false,
          "internalType": "address",
          "name": "oldLogic",
          "type": "address"
        }
      ],
      "name": "RevisionIncreased",
      "type": "event"
    },
    {
      "anonymous": false,
      "inputs": [
        {
          "indexed": false,
          "internalType": "address",
          "name": "asset",
          "type": "address"
        },
        {
          "indexed": false,
          "internalType": "int256",
          "name": "amount",
          "type": "int256"
        }
      ],
      "name": "UpdateBaseAmounts",
      "type": "event"
    },
    {
      "anonymous": false,
      "inputs": [
        {
          "indexed": false,
          "internalType": "uint256",
          "name": "amount",
          "type": "uint256"
        }
      ],
      "name": "WithdrawAllFromPool",
      "type": "event"
    },
    {
      "anonymous": false,
      "inputs": [
        {
          "indexed": false,
          "internalType": "uint256",
          "name": "amount",
          "type": "uint256"
        }
      ],
      "name": "WithdrawAllToSplitter",
      "type": "event"
    },
    {
      "anonymous": false,
      "inputs": [
        {
          "indexed": false,
          "internalType": "uint256",
          "name": "amount",
          "type": "uint256"
        }
      ],
      "name": "WithdrawFromPool",
      "type": "event"
    },
    {
      "anonymous": false,
      "inputs": [
        {
          "indexed": false,
          "internalType": "uint256",
          "name": "amount",
          "type": "uint256"
        },
        {
          "indexed": false,
          "internalType": "uint256",
          "name": "sent",
          "type": "uint256"
        },
        {
          "indexed": false,
          "internalType": "uint256",
          "name": "balance",
          "type": "uint256"
        }
      ],
      "name": "WithdrawToSplitter",
      "type": "event"
    },
    {
      "inputs": [],
      "name": "CONTROLLABLE_VERSION",
      "outputs": [
        {
          "internalType": "string",
          "name": "",
          "type": "string"
        }
      ],
      "stateMutability": "view",
      "type": "function"
    },
    {
      "inputs": [],
      "name": "CONVERTER_STRATEGY_BASE_VERSION",
      "outputs": [
        {
          "internalType": "string",
          "name": "",
          "type": "string"
        }
      ],
      "stateMutability": "view",
      "type": "function"
    },
    {
      "inputs": [],
      "name": "NAME",
      "outputs": [
        {
          "internalType": "string",
          "name": "",
          "type": "string"
        }
      ],
      "stateMutability": "view",
      "type": "function"
    },
    {
      "inputs": [],
      "name": "PLATFORM",
      "outputs": [
        {
          "internalType": "string",
          "name": "",
          "type": "string"
        }
      ],
      "stateMutability": "view",
      "type": "function"
    },
    {
      "inputs": [],
      "name": "STRATEGY_BASE_VERSION",
      "outputs": [
        {
          "internalType": "string",
          "name": "",
          "type": "string"
        }
      ],
      "stateMutability": "view",
      "type": "function"
    },
    {
      "inputs": [],
      "name": "STRATEGY_VERSION",
      "outputs": [
        {
          "internalType": "string",
          "name": "",
          "type": "string"
        }
      ],
      "stateMutability": "view",
      "type": "function"
    },
    {
      "inputs": [],
      "name": "UNISWAPV3_DEPOSITOR_VERSION",
      "outputs": [
        {
          "internalType": "string",
          "name": "",
          "type": "string"
        }
      ],
      "stateMutability": "view",
      "type": "function"
    },
    {
      "inputs": [],
      "name": "asset",
      "outputs": [
        {
          "internalType": "address",
          "name": "",
          "type": "address"
        }
      ],
      "stateMutability": "view",
      "type": "function"
    },
    {
      "inputs": [
        {
          "internalType": "address",
          "name": "",
          "type": "address"
        }
      ],
      "name": "baseAmounts",
      "outputs": [
        {
          "internalType": "uint256",
          "name": "",
          "type": "uint256"
        }
      ],
      "stateMutability": "view",
      "type": "function"
    },
    {
      "inputs": [],
      "name": "calcInvestedAssets",
      "outputs": [
        {
          "internalType": "uint256",
          "name": "",
          "type": "uint256"
        }
      ],
      "stateMutability": "nonpayable",
      "type": "function"
    },
    {
      "inputs": [],
      "name": "capacity",
      "outputs": [
        {
          "internalType": "uint256",
          "name": "",
          "type": "uint256"
        }
      ],
      "stateMutability": "view",
      "type": "function"
    },
    {
      "inputs": [],
      "name": "claim",
      "outputs": [],
      "stateMutability": "nonpayable",
      "type": "function"
    },
    {
      "inputs": [],
      "name": "compoundRatio",
      "outputs": [
        {
          "internalType": "uint256",
          "name": "",
          "type": "uint256"
        }
      ],
      "stateMutability": "view",
      "type": "function"
    },
    {
      "inputs": [],
      "name": "controller",
      "outputs": [
        {
          "internalType": "address",
          "name": "",
          "type": "address"
        }
      ],
      "stateMutability": "view",
      "type": "function"
    },
    {
      "inputs": [],
      "name": "converter",
      "outputs": [
        {
          "internalType": "contract ITetuConverter",
          "name": "",
          "type": "address"
        }
      ],
      "stateMutability": "view",
      "type": "function"
    },
    {
      "inputs": [],
      "name": "created",
      "outputs": [
        {
          "internalType": "uint256",
          "name": "",
          "type": "uint256"
        }
      ],
      "stateMutability": "view",
      "type": "function"
    },
    {
      "inputs": [],
      "name": "createdBlock",
      "outputs": [
        {
          "internalType": "uint256",
          "name": "",
          "type": "uint256"
        }
      ],
      "stateMutability": "view",
      "type": "function"
    },
    {
      "inputs": [],
      "name": "disableFuse",
      "outputs": [],
      "stateMutability": "nonpayable",
      "type": "function"
    },
    {
      "inputs": [],
      "name": "doHardWork",
      "outputs": [
        {
          "internalType": "uint256",
          "name": "",
          "type": "uint256"
        },
        {
          "internalType": "uint256",
          "name": "",
          "type": "uint256"
        }
      ],
      "stateMutability": "nonpayable",
      "type": "function"
    },
    {
      "inputs": [],
      "name": "emergencyExit",
      "outputs": [],
      "stateMutability": "nonpayable",
      "type": "function"
    },
    {
      "inputs": [],
      "name": "getFees",
      "outputs": [
        {
          "internalType": "uint256",
          "name": "fee0",
          "type": "uint256"
        },
        {
          "internalType": "uint256",
          "name": "fee1",
          "type": "uint256"
        }
      ],
      "stateMutability": "view",
      "type": "function"
    },
    {
      "inputs": [],
      "name": "getState",
      "outputs": [
        {
          "internalType": "address",
          "name": "tokenA",
          "type": "address"
        },
        {
          "internalType": "address",
          "name": "tokenB",
          "type": "address"
        },
        {
          "internalType": "contract IUniswapV3Pool",
          "name": "pool",
          "type": "address"
        },
        {
          "internalType": "int24",
          "name": "tickSpacing",
          "type": "int24"
        },
        {
          "internalType": "int24",
          "name": "lowerTick",
          "type": "int24"
        },
        {
          "internalType": "int24",
          "name": "upperTick",
          "type": "int24"
        },
        {
          "internalType": "int24",
          "name": "rebalanceTickRange",
          "type": "int24"
        },
        {
          "internalType": "uint128",
          "name": "totalLiquidity",
          "type": "uint128"
        },
        {
          "internalType": "bool",
          "name": "isFuseTriggered",
          "type": "bool"
        },
        {
          "internalType": "uint256",
          "name": "fuseThreshold",
          "type": "uint256"
        },
        {
          "internalType": "uint256[]",
          "name": "rebalanceResults",
          "type": "uint256[]"
        }
      ],
      "stateMutability": "view",
      "type": "function"
    },
    {
      "inputs": [
        {
          "internalType": "address",
          "name": "oldLogic",
          "type": "address"
        }
      ],
      "name": "increaseRevision",
      "outputs": [],
      "stateMutability": "nonpayable",
      "type": "function"
    },
    {
      "inputs": [
        {
          "internalType": "address",
          "name": "controller_",
          "type": "address"
        },
        {
          "internalType": "address",
          "name": "splitter_",
          "type": "address"
        },
        {
          "internalType": "address",
          "name": "converter_",
          "type": "address"
        },
        {
          "internalType": "address",
          "name": "pool_",
          "type": "address"
        },
        {
          "internalType": "int24",
          "name": "tickRange_",
          "type": "int24"
        },
        {
          "internalType": "int24",
          "name": "rebalanceTickRange_",
          "type": "int24"
        }
      ],
      "name": "init",
      "outputs": [],
      "stateMutability": "nonpayable",
      "type": "function"
    },
    {
      "inputs": [
        {
          "internalType": "uint256",
          "name": "amount_",
          "type": "uint256"
        },
        {
          "internalType": "bool",
          "name": "updateTotalAssetsBeforeInvest_",
          "type": "bool"
        }
      ],
      "name": "investAll",
      "outputs": [
        {
          "internalType": "int256",
          "name": "totalAssetsDelta",
          "type": "int256"
        }
      ],
      "stateMutability": "nonpayable",
      "type": "function"
    },
    {
      "inputs": [],
      "name": "investedAssets",
      "outputs": [
        {
          "internalType": "uint256",
          "name": "",
          "type": "uint256"
        }
      ],
      "stateMutability": "view",
      "type": "function"
    },
    {
      "inputs": [
        {
          "internalType": "address",
          "name": "_value",
          "type": "address"
        }
      ],
      "name": "isController",
      "outputs": [
        {
          "internalType": "bool",
          "name": "",
          "type": "bool"
        }
      ],
      "stateMutability": "view",
      "type": "function"
    },
    {
      "inputs": [
        {
          "internalType": "address",
          "name": "_value",
          "type": "address"
        }
      ],
      "name": "isGovernance",
      "outputs": [
        {
          "internalType": "bool",
          "name": "",
          "type": "bool"
        }
      ],
      "stateMutability": "view",
      "type": "function"
    },
    {
      "inputs": [],
      "name": "isReadyToHardWork",
      "outputs": [
        {
          "internalType": "bool",
          "name": "",
          "type": "bool"
        }
      ],
      "stateMutability": "view",
      "type": "function"
    },
    {
      "inputs": [
        {
          "internalType": "address",
          "name": "",
          "type": "address"
        }
      ],
      "name": "liquidationThresholds",
      "outputs": [
        {
          "internalType": "uint256",
          "name": "",
          "type": "uint256"
        }
      ],
      "stateMutability": "view",
      "type": "function"
    },
    {
      "inputs": [],
      "name": "needRebalance",
      "outputs": [
        {
          "internalType": "bool",
          "name": "",
          "type": "bool"
        }
      ],
      "stateMutability": "view",
      "type": "function"
    },
    {
      "inputs": [
        {
          "internalType": "address[]",
          "name": "assets_",
          "type": "address[]"
        },
        {
          "internalType": "uint256[]",
          "name": "amounts_",
          "type": "uint256[]"
        }
      ],
      "name": "onTransferAmounts",
      "outputs": [],
      "stateMutability": "nonpayable",
      "type": "function"
    },
    {
      "inputs": [],
      "name": "performanceFee",
      "outputs": [
        {
          "internalType": "uint256",
          "name": "",
          "type": "uint256"
        }
      ],
      "stateMutability": "view",
      "type": "function"
    },
    {
      "inputs": [],
      "name": "performanceReceiver",
      "outputs": [
        {
          "internalType": "address",
          "name": "",
          "type": "address"
        }
      ],
      "stateMutability": "view",
      "type": "function"
    },
    {
      "inputs": [],
      "name": "previousImplementation",
      "outputs": [
        {
          "internalType": "address",
          "name": "",
          "type": "address"
        }
      ],
      "stateMutability": "view",
      "type": "function"
    },
    {
      "inputs": [],
      "name": "rebalance",
      "outputs": [],
      "stateMutability": "nonpayable",
      "type": "function"
    },
    {
      "inputs": [],
      "name": "reinvestThresholdPercent",
      "outputs": [
        {
          "internalType": "uint256",
          "name": "",
          "type": "uint256"
        }
      ],
      "stateMutability": "view",
      "type": "function"
    },
    {
      "inputs": [
        {
          "internalType": "address",
          "name": "theAsset_",
          "type": "address"
        },
        {
          "internalType": "uint256",
          "name": "amount_",
          "type": "uint256"
        }
      ],
      "name": "requirePayAmountBack",
      "outputs": [
        {
          "internalType": "uint256",
          "name": "amountOut",
          "type": "uint256"
        }
      ],
      "stateMutability": "nonpayable",
      "type": "function"
    },
    {
      "inputs": [],
      "name": "revision",
      "outputs": [
        {
          "internalType": "uint256",
          "name": "",
          "type": "uint256"
        }
      ],
      "stateMutability": "view",
      "type": "function"
    },
    {
      "inputs": [
        {
          "internalType": "uint256",
          "name": "value",
          "type": "uint256"
        }
      ],
      "name": "setCompoundRatio",
      "outputs": [],
      "stateMutability": "nonpayable",
      "type": "function"
    },
    {
      "inputs": [
        {
          "internalType": "uint256",
          "name": "newFuseThreshold",
          "type": "uint256"
        }
      ],
      "name": "setFuseThreshold",
      "outputs": [],
      "stateMutability": "nonpayable",
      "type": "function"
    },
    {
      "inputs": [
        {
          "internalType": "address",
          "name": "token",
          "type": "address"
        },
        {
          "internalType": "uint256",
          "name": "amount",
          "type": "uint256"
        }
      ],
      "name": "setLiquidationThreshold",
      "outputs": [],
      "stateMutability": "nonpayable",
      "type": "function"
    },
    {
      "inputs": [
        {
          "internalType": "uint256",
          "name": "percent_",
          "type": "uint256"
        }
      ],
      "name": "setReinvestThresholdPercent",
      "outputs": [],
      "stateMutability": "nonpayable",
      "type": "function"
    },
    {
      "inputs": [
        {
          "internalType": "uint256",
          "name": "fee_",
          "type": "uint256"
        },
        {
          "internalType": "address",
          "name": "receiver_",
          "type": "address"
        }
      ],
      "name": "setupPerformanceFee",
      "outputs": [],
      "stateMutability": "nonpayable",
      "type": "function"
    },
    {
      "inputs": [],
      "name": "splitter",
      "outputs": [
        {
          "internalType": "address",
          "name": "",
          "type": "address"
        }
      ],
      "stateMutability": "view",
      "type": "function"
    },
    {
      "inputs": [
        {
          "internalType": "bytes4",
          "name": "interfaceId",
          "type": "bytes4"
        }
      ],
      "name": "supportsInterface",
      "outputs": [
        {
          "internalType": "bool",
          "name": "",
          "type": "bool"
        }
      ],
      "stateMutability": "view",
      "type": "function"
    },
    {
      "inputs": [],
      "name": "totalAssets",
      "outputs": [
        {
          "internalType": "uint256",
          "name": "",
          "type": "uint256"
        }
      ],
      "stateMutability": "view",
      "type": "function"
    },
    {
      "inputs": [
        {
          "internalType": "uint256",
          "name": "amount0Owed",
          "type": "uint256"
        },
        {
          "internalType": "uint256",
          "name": "amount1Owed",
          "type": "uint256"
        },
        {
          "internalType": "bytes",
          "name": "",
          "type": "bytes"
        }
      ],
      "name": "uniswapV3MintCallback",
      "outputs": [],
      "stateMutability": "nonpayable",
      "type": "function"
    },
    {
      "inputs": [],
      "name": "withdrawAllToSplitter",
      "outputs": [
        {
          "internalType": "int256",
          "name": "",
          "type": "int256"
        }
      ],
      "stateMutability": "nonpayable",
      "type": "function"
    },
    {
      "inputs": [
        {
          "internalType": "uint256",
          "name": "amount",
          "type": "uint256"
        }
      ],
      "name": "withdrawToSplitter",
      "outputs": [
        {
          "internalType": "int256",
          "name": "totalAssetsDelta",
          "type": "int256"
        }
      ],
      "stateMutability": "nonpayable",
      "type": "function"
    }
  ],
  "transactionHash": "0x9f3c59d721697b81446cc580271b1b7331157b4dce2d7bba91c9414afbea317e",
  "args": [],
  "numDeployments": 3,
  "solcInputHash": "9bdeff269e8e68378359a91aa09b456b",
  "bytecode": "0x60806040523480156200001157600080fd5b506200001c62000022565b620000e3565b600054610100900460ff16156200008f5760405162461bcd60e51b815260206004820152602760248201527f496e697469616c697a61626c653a20636f6e747261637420697320696e697469604482015266616c697a696e6760c81b606482015260840160405180910390fd5b60005460ff90811614620000e1576000805460ff191660ff9081179091556040519081527f7f26b83ff96e1f2b6a682f133852f6798a09c465da95921460cefb38474024989060200160405180910390a15b565b615f9f80620000f36000396000f3fe608060405234801561001057600080fd5b50600436106102b65760003560e01c80637832743811610172578063b2457556116100d9578063d348799711610092578063d348799714610607578063db8d55f11461061a578063dc1000a714610622578063de3d047c14610642578063dee1f0e414610655578063f77c479114610668578063ffb86c6a1461067057600080fd5b8063b2457556146105b2578063b429afeb146105c5578063bd38837b146105d8578063cd4c8156146105eb578063ceee861d14610542578063d295ea70146105fe57600080fd5b8063936725ec1161012b578063936725ec1461050b57806396b7b14e1461052f578063996a6c9c146105425780639d0bcca014610566578063a3f4df7e1461056e578063ab9e3eee146105aa57600080fd5b806378327438146104975780637cc96380146104b75780637d7c2a1c146104bf5780637efc77fa146104c757806387788782146104ef57806387c7f770146104f857600080fd5b80633cd8045e1161022157806351e03fbe116101da57806351e03fbe146104015780635641ec03146104145780635cfc1a511461041c5780636207a0cf146104265780636ffb4c8e1461045757806371ee01751461046a57806373a50ef51461047357600080fd5b80633cd8045e146103a65780634593144c146103b95780634ad0b684146103c15780634e71d92d146103c95780634fa5d854146103d15780634fac6ccd146103ee57600080fd5b8063253de46611610273578063253de4661461034857806328abdef01461035b578063321793a814610363578063325a19f11461037657806333c5b58e1461037e57806338d52e0f1461038657600080fd5b806301e1d114146102bb57806301ffc9a7146102d65780630acd12c7146102f95780630e30428d146103015780631865c57d1461031657806322b6f5e214610335575b600080fd5b6102c3610678565b6040519081526020015b60405180910390f35b6102e96102e4366004614da3565b610703565b60405190151581526020016102cd565b6102c361072e565b61031461030f366004614de2565b61093b565b005b61031e610a02565b6040516102cd9b9a99989796959493929190614e49565b610314610343366004614ed3565b610b07565b610314610356366004614f12565b610c3d565b610314610e3e565b610314610371366004614f94565b610f1b565b6102c3610ff4565b6102c3611028565b603d54610399906001600160a01b031681565b6040516102cd9190614fad565b603e54610399906001600160a01b031681565b6102c3611032565b6043546102c3565b610314611062565b6103d9611111565b604080519283526020830191909152016102cd565b6103146103fc366004614fc1565b611176565b6102c361040f366004614f94565b6112a1565b6103146114b7565b600160ff1b6102c3565b61044a604051806040016040528060058152602001640312e312e360dc1b81525081565b6040516102cd919061502e565b610314610465366004614f94565b611615565b6102c360465481565b61044a60405180604001604052806005815260200164322e312e3160d81b81525081565b6102c36104a5366004614fc1565b60456020526000908152604090205481565b6102c361170d565b61031461173d565b61044a60405180604001604052806009815260200168556e6973776170563360b81b81525081565b6102c360425481565b6102c3610506366004614de2565b611a73565b61044a604051806040016040528060058152602001640332e302e360dc1b81525081565b61031461053d366004615115565b611f10565b61044a60405180604001604052806005815260200164312e302e3160d81b81525081565b610399611ff4565b61044a6040518060400160405280601c81526020017f556e6973776170563320436f6e7665727465722053747261746567790000000081525081565b6102e9612024565b6102c36105c03660046151e4565b6120ae565b6102e96105d3366004614fc1565b6121f6565b604454610399906001600160a01b031681565b604154610399906001600160a01b031681565b6102c3603f5481565b610314610615366004615209565b61221b565b6103d96122f7565b6102c3610630366004614fc1565b60406020819052600091825290205481565b610314610650366004614f94565b61236f565b6102e9610663366004614fc1565b612469565b6103996124ee565b6102e961251e565b600061068360435490565b603d546040516370a0823160e01b81526001600160a01b03909116906370a08231906106b3903090600401614fad565b602060405180830381865afa1580156106d0573d6000803e3d6000fd5b505050506040513d601f19601f820116820180604052508101906106f49190615288565b6106fe91906152b7565b905090565b60006001600160e01b0319821663f73147b360e01b14806107285750610728826125b5565b92915050565b603e54603d5460405163201de59f60e01b81526000926001600160a01b039081169216907301AA10927D49d082d0ff1875D6a6228108178bb09063201de59f9061077c908590600401614fad565b60006040518083038186803b15801561079457600080fd5b505af41580156107a8573d6000803e3d6000fd5b50506040516370a0823160e01b8152600092506001600160a01b03841691506370a08231906107db903090600401614fad565b602060405180830381865afa1580156107f8573d6000803e3d6000fd5b505050506040513d601f19601f8201168201806040525081019061081c9190615288565b9050600080600061082b6125da565b9250925092507301AA10927D49d082d0ff1875D6a6228108178bb0631594b05b868686868b6040518663ffffffff1660e01b81526004016108709594939291906152ca565b602060405180830381865af415801561088d573d6000803e3d6000fd5b505050506040513d601f19601f820116820180604052508101906108b19190615288565b6001600160a01b038616600090815260406020819052902054909450808511156108d9578094505b5083156108fe576108ea8585612606565b6108fe6001600160a01b03861687866126d2565b6040518481527f97f6cbf669d73908a8de3b762891f88fcc476520fd70cb3d414dc9ac86e0a2e59060200160405180910390a19695505050505050565b7301AA10927D49d082d0ff1875D6a6228108178bb063493f6edc61095d6124ee565b6040518263ffffffff1660e01b81526004016109799190614fad565b60006040518083038186803b15801561099157600080fd5b505af41580156109a5573d6000803e3d6000fd5b5050506001600160a01b03831660009081526045602052604090819020839055517f297f3fbc14027d2b4a4f7dac3dff2ad6b386024299045b0e163f131bb24b611d91506109f690849084906152fa565b60405180910390a15050565b6001546002805460038054600454600954600a5460408051868152608081019091526001600160a01b03988916989687169796851696600160a01b8604810b96600160c81b8704820b96600160e01b9004820b95600160301b810490920b94600160501b9092046001600160801b03169360ff9092169260609160208201838036833701905050905060016005015481600081518110610aa457610aa4615313565b60200260200101818152505060016006015481600181518110610ac957610ac9615313565b60200260200101818152505060016007015481600281518110610aee57610aee615313565b602002602001018181525050909192939495969798999a565b7301AA10927D49d082d0ff1875D6a6228108178bb0634bead669610b296124ee565b6040518263ffffffff1660e01b8152600401610b459190614fad565b60006040518083038186803b158015610b5d57600080fd5b505af4158015610b71573d6000803e3d6000fd5b505050506127108211156040518060400160405280600c81526020016b0a6847440a8dede40d0d2ced60a31b81525090610bc75760405162461bcd60e51b8152600401610bbe919061502e565b60405180910390fd5b5060408051808201909152600f81526e53423a2057726f6e672076616c756560881b60208201526001600160a01b038216610c155760405162461bcd60e51b8152600401610bbe919061502e565b50604291909155604180546001600160a01b0319166001600160a01b03909216919091179055565b600054610100900460ff1615808015610c5d5750600054600160ff909116105b80610c775750303b158015610c77575060005460ff166001145b610cda5760405162461bcd60e51b815260206004820152602e60248201527f496e697469616c697a61626c653a20636f6e747261637420697320616c72656160448201526d191e481a5b9a5d1a585b1a5e995960921b6064820152608401610bbe565b6000805460ff191660011790558015610cfd576000805461ff0019166101001790555b610d6a866001600160a01b03166338d52e0f6040518163ffffffff1660e01b8152600401602060405180830381865afa158015610d3e573d6000803e3d6000fd5b505050506040513d601f19601f82011682018060405250810190610d629190615329565b85858561272d565b610d75878787612916565b604051636a65141d60e11b8152600160048201526001600160a01b03808916602483015286166044820152730F0693C8E92FF4Cb0eD14306050dA589943cB1Bb9063d4ca283a9060640160006040518083038186803b158015610dd757600080fd5b505af4158015610deb573d6000803e3d6000fd5b505050508015610e35576000805461ff0019169055604051600181527f7f26b83ff96e1f2b6a682f133852f6798a09c465da95921460cefb38474024989060200160405180910390a15b50505050505050565b7301AA10927D49d082d0ff1875D6a6228108178bb063493f6edc610e606124ee565b6040518263ffffffff1660e01b8152600401610e7c9190614fad565b60006040518083038186803b158015610e9457600080fd5b505af4158015610ea8573d6000803e3d6000fd5b50506009805460ff1916905550506040805163f460770b60e01b81529051730F0693C8E92FF4Cb0eD14306050dA589943cB1Bb9163f460770b916004808301926000929190829003018186803b158015610f0157600080fd5b505af4158015610f15573d6000803e3d6000fd5b50505050565b7301AA10927D49d082d0ff1875D6a6228108178bb063493f6edc610f3d6124ee565b6040518263ffffffff1660e01b8152600401610f599190614fad565b60006040518083038186803b158015610f7157600080fd5b505af4158015610f85573d6000803e3d6000fd5b505050600a82905550604051631c77945b60e31b815260048101829052730F0693C8E92FF4Cb0eD14306050dA589943cB1Bb9063e3bca2d89060240160006040518083038186803b158015610fd957600080fd5b505af4158015610fed573d6000803e3d6000fd5b5050505050565b60006106fe61102460017f6f55f470bdc9cb5f04223fd822021061668e4dccb43e8727b295106dc9769c8b615346565b5490565b60006106fe61296b565b60006106fe61102460017f812a673dfca07956350df10f8a654925f561d7a0da09bdbe79e653939a14d9f1615346565b7301AA10927D49d082d0ff1875D6a6228108178bb063493f6edc6110846124ee565b6040518263ffffffff1660e01b81526004016110a09190614fad565b60006040518083038186803b1580156110b857600080fd5b505af41580156110cc573d6000803e3d6000fd5b505050506110d8612a32565b7fed7f50f936a5ed7428d20f18e78d6dfe8bc37fd2f4e3cdb348327c7697244928336040516111079190614fad565b60405180910390a1565b603e5460408051808201909152600a81526914d08e8811195b9a595960b21b60208201526000918291906001600160a01b031633146111635760405162461bcd60e51b8152600401610bbe919061502e565b5061116e6001612bd3565b915091509091565b3330146111c55760405162461bcd60e51b815260206004820152601b60248201527f496e637265617365207265766973696f6e20666f7262696464656e00000000006044820152606401610bbe565b60006111f561102460017f22573091f17911fb166032a3d9e0554aa73d31b7b7ddea4a4dd2995650af84bd615346565b6112009060016152b7565b90506112348161123160017f22573091f17911fb166032a3d9e0554aa73d31b7b7ddea4a4dd2995650af84bd615346565b55565b6112638261123160017fbfaaa2fb63266ff27c2da975f5894955056f50419af651a81f6c5060581857e4615346565b604080518281526001600160a01b03841660208201527ff27e2ef832a4eb8ed8ec553b875eecd44764cda95b1c24170e281539e0a869c891016109f6565b603e54603d5460405163201de59f60e01b81526000926001600160a01b039081169216907301AA10927D49d082d0ff1875D6a6228108178bb09063201de59f906112ef908590600401614fad565b60006040518083038186803b15801561130757600080fd5b505af415801561131b573d6000803e3d6000fd5b50506040516370a0823160e01b8152600092506001600160a01b03841691506370a082319061134e903090600401614fad565b602060405180830381865afa15801561136b573d6000803e3d6000fd5b505050506040513d601f19601f8201168201806040525081019061138f9190615288565b90508085111561143b576000806113ae6113a98489615346565b612c8c565b604051631594b05b60e01b815290985091935091507301AA10927D49d082d0ff1875D6a6228108178bb090631594b05b906113f59087908790879087908c906004016152ca565b602060405180830381865af4158015611412573d6000803e3d6000fd5b505050506040513d601f19601f820116820180604052508101906114369190615288565b925050505b60006114478683612d06565b9050801561146d576114598382612606565b61146d6001600160a01b03841685836126d2565b60408051878152602081018390529081018390527f21b38dd19808c509ae6afc969adfaf7d35fe949c37abd493b963cf9b68cc1acb9060600160405180910390a150505050919050565b7301AA10927D49d082d0ff1875D6a6228108178bb063493f6edc6114d96124ee565b6040518263ffffffff1660e01b81526004016114f59190614fad565b60006040518083038186803b15801561150d57600080fd5b505af4158015611521573d6000803e3d6000fd5b5050505061152d612d1e565b603d546040516370a0823160e01b81526001600160a01b039091169060009082906370a0823190611562903090600401614fad565b602060405180830381865afa15801561157f573d6000803e3d6000fd5b505050506040513d601f19601f820116820180604052508101906115a39190615288565b6001600160a01b0383166000908152604060208190529020549091506115ca908390612606565b603e546115e4906001600160a01b038481169116836126d2565b7ff779df072f94d207563b1ba8c286814086f1e6bb436a2652e307dccc56ed79e833826040516109f69291906152fa565b7301AA10927D49d082d0ff1875D6a6228108178bb063493f6edc6116376124ee565b6040518263ffffffff1660e01b81526004016116539190614fad565b60006040518083038186803b15801561166b57600080fd5b505af415801561167f573d6000803e3d6000fd5b50505050620186a08111156040518060400160405280600f81526020016e53423a2057726f6e672076616c756560881b815250906116d05760405162461bcd60e51b8152600401610bbe919061502e565b5060468190556040518181527fe4166dfcf23bbd3e3f764a99dc8fa740554c03c82d6019b81cf265f396f6f2fe906020015b60405180910390a150565b60006106fe61102460017f22573091f17911fb166032a3d9e0554aa73d31b7b7ddea4a4dd2995650af84bd615346565b60006117476124ee565b60405163124fdbb760e21b81529091507301AA10927D49d082d0ff1875D6a6228108178bb09063493f6edc90611781908490600401614fad565b60006040518083038186803b15801561179957600080fd5b505af41580156117ad573d6000803e3d6000fd5b505050506117b9612dad565b506044546000908190730F0693C8E92FF4Cb0eD14306050dA589943cB1Bb9063b24d8db0906001906001600160a01b0316866117f460435490565b6040516001600160e01b031960e087901b16815260048101949094526001600160a01b039283166024850152911660448301526064820152608401600060405180830381865af415801561184c573d6000803e3d6000fd5b505050506040513d6000823e601f3d908101601f1916820160405261187491908101906153b4565b91509150815160020361199f5761188a82612dbf565b5050801561199f57600354600654600754604051638c64d45560e01b81526001600160a01b0384166004820152600160c81b8404600290810b6024830152600160e01b8504810b6044830152600160a01b90940490930b6064840152608483019190915260a4820152730F0693C8E92FF4Cb0eD14306050dA589943cB1Bb90638c64d4559060c401606060405180830381865af415801561192f573d6000803e3d6000fd5b505050506040513d601f19601f820116820180604052508101906119539190615416565b600580546001600160801b0319166001600160801b03929092169190911790556004805465ffffffffffff1916630100000062ffffff9384160262ffffff191617929091169190911790555b600080600080730F0693C8E92FF4Cb0eD14306050dA589943cB1Bb63915a3eb46001604080518363ffffffff1660e01b81526004016119e8929190918252602082015260400190565b608060405180830381865af4158015611a05573d6000803e3d6000fd5b505050506040513d601f19601f82011682018060405250810190611a29919061545e565b60015493975091955093509150611a4a906001600160a01b03168585612eba565b600254611a61906001600160a01b03168383612eba565b611a69612ef4565b5050505050505050565b6000611ac66040518061010001604052806000815260200160006001600160a01b031681526020016060815260200160008152602001600081526020016060815260200160608152602001600081525090565b6044546001600160a01b0316602080830182905260408051808201909152600a81526914d08e8811195b9a595960b21b91810191909152903314611b1d5760405162461bcd60e51b8152600401610bbe919061502e565b50611b2784612f08565b606083018190526040808401929092528151808301909252600f82526e53423a2057726f6e672076616c756560881b602083015219611b795760405162461bcd60e51b8152600401610bbe919061502e565b506040808201515182526001600160a01b038516600090815260208290522054608082015280516001600160401b03811115611bb757611bb7615041565b604051908082528060200260200182016040528015611be0578160200160208202803683370190505b5060a082015280516001600160401b03811115611bff57611bff615041565b604051908082528060200260200182016040528015611c28578160200160208202803683370190505b5060c08201526080810151831115611c9f57611c42612f27565b60e0820181905215611c9f57611c5b8160e00151612f3d565b60a0820181905260e08201516040517faebc771af58936b05e89b0be7d3f9761480181abcd4a649fbdd01753fda1697092611c969291615494565b60405180910390a15b828160a00151826060015181518110611cba57611cba615313565b60200260200101518260800151611cd191906152b7565b1015611e535773d91df94Ada3bA7187eb9637A5B3D82032BF9A8c063749e2cd18260a00151836060015181518110611d0b57611d0b615313565b60200260200101518360800151611d2291906152b7565b611d2c9086615346565b60408401516060850151603d5460a087015160208801516001600160a01b0390921691611d576124ee565b6001600160a01b0316634046ebae6040518163ffffffff1660e01b8152600401602060405180830381865afa158015611d94573d6000803e3d6000fd5b505050506040513d601f19601f82011682018060405250810190611db89190615329565b6001600160a01b038d16600090815260456020526040902054611ddd61012c806152b7565b604080518b63ffffffff1660e01b8152600401611e039a999897969594939291906154e6565b600060405180830381865af4158015611e20573d6000803e3d6000fd5b505050506040513d6000823e601f3d908101601f19168201604052611e489190810190615560565b60a083015260c08201525b611e8d8160a00151826060015181518110611e7057611e70615313565b60200260200101518260800151611e8791906152b7565b84612d06565b6020820151909250611eaa906001600160a01b03861690846126d2565b611ed081604001518260a001518360c00151846060015186611ecb906155b9565b6130f7565b7f178d2d6770c9dbd24f8d3e4dc08998cad5a42857f107435518f65c761e253bcc8483604051611f019291906152fa565b60405180910390a15092915050565b8151815160408051808201909152600d81526c54532d3139206c656e6774687360981b6020820152908214611f585760405162461bcd60e51b8152600401610bbe919061502e565b5060005b81811015611feb57828181518110611f7657611f76615313565b6020026020010151600014611fe357611fe3848281518110611f9a57611f9a615313565b6020026020010151848381518110611fb457611fb4615313565b6020026020010151611fde878581518110611fd157611fd1615313565b60200260200101516131a5565b613215565b600101611f5c565b50610f15612ef4565b60006106fe61102460017fbfaaa2fb63266ff27c2da975f5894955056f50419af651a81f6c5060581857e4615346565b60448054604051635ca1bcdf60e01b8152600160048201526001600160a01b039091166024820152600091730F0693C8E92FF4Cb0eD14306050dA589943cB1Bb91635ca1bcdf91015b602060405180830381865af415801561208a573d6000803e3d6000fd5b505050506040513d601f19601f820116820180604052508101906106fe91906155d5565b603e5460405163201de59f60e01b81526000917301AA10927D49d082d0ff1875D6a6228108178bb09163201de59f916120f5916001600160a01b0390911690600401614fad565b60006040518083038186803b15801561210d57600080fd5b505af4158015612121573d6000803e3d6000fd5b5050603d546040516370a0823160e01b81526001600160a01b0390911692506000915082906370a082319061215a903090600401614fad565b602060405180830381865afa158015612177573d6000803e3d6000fd5b505050506040513d601f19601f8201168201806040525081019061219b9190615288565b90506121a8828683613215565b80156121bb576121b881856132c3565b92505b6040518181527f94bcfc9a8eba5229c2956ccb1858733fce588bc02145ac053c40b9827a33837f9060200160405180910390a1505092915050565b60006122006124ee565b6001600160a01b0316826001600160a01b0316149050919050565b6003546001600160a01b031633146122675760405162461bcd60e51b815260206004820152600f60248201526e31b0b6363130b1b59031b0b63632b960891b6044820152606401610bbe565b83156122b4576004546122b49033908690600160481b900460ff16612297576001546001600160a01b03166122a4565b6002546001600160a01b03165b6001600160a01b031691906126d2565b8215610f1557600454610f159033908590600160481b900460ff166122e4576002546001600160a01b03166122a4565b6001546001600160a01b031691906126d2565b604051631a2d761b60e11b8152600160048201526000908190730F0693C8E92FF4Cb0eD14306050dA589943cB1Bb9063345aec36906024016040805180830381865af415801561234b573d6000803e3d6000fd5b505050506040513d601f19601f8201168201806040525081019061116e91906155f2565b7301AA10927D49d082d0ff1875D6a6228108178bb063ac1d8b356123916124ee565b6040518263ffffffff1660e01b81526004016123ad9190614fad565b60006040518083038186803b1580156123c557600080fd5b505af41580156123d9573d6000803e3d6000fd5b50505050620186a08111156040518060400160405280600c81526020016b0a6847440a8dede40d0d2ced60a31b815250906124275760405162461bcd60e51b8152600401610bbe919061502e565b50603f5460408051918252602082018390527f89979f75740477f1609671a960c1f57e40a47e58bdf1623bc683d806fb6407e5910160405180910390a1603f55565b6000816001600160a01b031661247d6124ee565b6001600160a01b0316635aa6e6756040518163ffffffff1660e01b8152600401602060405180830381865afa1580156124ba573d6000803e3d6000fd5b505050506040513d601f19601f820116820180604052508101906124de9190615329565b6001600160a01b03161492915050565b60006106fe61102460017f5165972ef41194f06c5007493031d0b927c20741adcb74403b954009fd2c3618615346565b60095460035460048054604051632beacd5760e11b815260ff9094161515918401919091526001600160a01b0382166024840152600160c81b8204600290810b6044850152600160e01b8304810b6064850152600160a01b909204820b6084840152600160301b9004900b60a4820152600090730F0693C8E92FF4Cb0eD14306050dA589943cB1Bb906357d59aae9060c40161206d565b60006001600160e01b0319821663c19fa56160e01b148061072857506107288261344f565b6000806000806125ea6001613484565b925090506125fb60006001836134bf565b909590945091925050565b6001600160a01b03821660009081526040602081815291819020548151808301909252600f82526e53423a2057726f6e672076616c756560881b92820192909252828210156126685760405162461bcd60e51b8152600401610bbe919061502e565b506126738282615346565b6001600160a01b0384166000908152604060208190529020557fd1e935d17de6dcfd3ffb4f6d06f977c837be28001308e04923722e32d1863c7d836126b7836155b9565b6040516126c59291906152fa565b60405180910390a1505050565b6127288363a9059cbb60e01b84846040516024016126f19291906152fa565b60408051601f198184030181529190526020810180516001600160e01b03166001600160e01b031990931692909217909152613902565b505050565b600054610100900460ff166127545760405162461bcd60e51b8152600401610bbe90615616565b60408051808201909152601181527054532d31207a65726f206164647265737360781b60208201526001600160a01b0384166127a35760405162461bcd60e51b8152600401610bbe919061502e565b50600380546001600160a01b0319166001600160a01b038581169182179092556004805468ffffff0000000000001916600160301b62ffffff861602178155604051630175022560e21b815290810191909152600284810b602483015283900b60448201529085166064820152730F0693C8E92FF4Cb0eD14306050dA589943cB1Bb906305d408949060840160c060405180830381865af415801561284c573d6000803e3d6000fd5b505050506040513d601f19601f820116820180604052508101906128709190615661565b60048054911515600160481b0260ff60481b19909216919091179055600280546001600160a01b039283166001600160a01b031991821617909155600180549390921692169190911790556003805462ffffff948516600160a01b0262ffffff60a01b19948616600160c81b0262ffffff60c81b1996909416600160e01b029590951665ffffffffffff60c81b1990911617919091179190911691909117905550505050565b600054610100900460ff1661293d5760405162461bcd60e51b8152600401610bbe90615616565b61294783836139d4565b604480546001600160a01b0319166001600160a01b03929092169190911790555050565b603d5460009081908190612987906001600160a01b0316612f08565b9150915073d91df94Ada3bA7187eb9637A5B3D82032BF9A8c0636e32b87b836129b66129b1612f27565b613bfd565b604454604080516001600160e01b031960e087901b1681526129ea94939288926001600160a01b03909116916004016156da565b602060405180830381865af4158015612a07573d6000803e3d6000fd5b505050506040513d601f19601f82011682018060405250810190612a2b9190615288565b9250505090565b600080612a3d613cd7565b6044549193509150600090819073d91df94Ada3bA7187eb9637A5B3D82032BF9A8c0906320138ba5906001600160a01b0316612a77613e64565b8787604080518663ffffffff1660e01b8152600401612a9a959493929190615726565b600060405180830381865af4158015612ab7573d6000803e3d6000fd5b505050506040513d6000823e601f3d908101601f19168201604052612adf9190810190615783565b815191935091508015610fed576000806000612afb8686613ef8565b925092509250612b1186848460001960006130f7565b603d548351612b45916001600160a01b031690859087908110612b3657612b36615313565b60200260200101516000612eba565b738b3B9714aFe0F4Ff5c7F28e5490D1f8A18957e1263acf741a3612b676124ee565b603e546040516001600160e01b031960e085901b168152612b9992916001600160a01b0316908b908790600401615830565b60006040518083038186803b158015612bb157600080fd5b505af4158015612bc5573d6000803e3d6000fd5b505050505050505050505050565b604354600090819081612be4612ef4565b90506000612bf06140fb565b91965094509050612c03838387876141b1565b9095509350858015612c2f5750620186a082604654612c22919061586e565b612c2c9190615885565b81115b15612c84576000612c4082846152b7565b9050612c4d8260006132c3565b50603d54612c7d908290612c69906001600160a01b03166131a5565b604354612c7691906152b7565b88886141b1565b9096509450505b505050915091565b600080600080612c9c6001613484565b60408051808201909152601481527354532d3138206e6f20696e766573746d656e747360601b602082015290935090915081612ceb5760405162461bcd60e51b8152600401610bbe919061502e565b50612cf8856000836134bf565b909690955091935090915050565b6000818310612d155781612d17565b825b9392505050565b6000612d28612dad565b90507f768a28cb3459382a3d2173feb2dad0235f8de680b109872da581a3aa269fe5f481604051612d5991906158a7565b60405180910390a1603d546000908190612d7b906001600160a01b0316612f08565b91509150600080612d8c84846141f9565b91509150612d9d84868386866130f7565b612da5612ef4565b505050505050565b60606106fe612dba612f27565b612f3d565b60035460048054604051638008936760e01b8152606093600093730F0693C8E92FF4Cb0eD14306050dA589943cB1Bb93638008936793612e41936001600160a01b03811693600160c81b8204600290810b94600160e01b909304900b928b92600160501b81046001600160801b031692600160481b90910460ff1691016158ba565b600060405180830381865af4158015612e5e573d6000803e3d6000fd5b505050506040513d6000823e601f3d908101601f19168201604052612e869190810190615910565b600480546001600160801b03909216600160501b02600160501b600160d01b03199092169190911790559094909350915050565b80821115612ed95761272883612ed08385615346565b611fde866131a5565b818111156127285761272883612eef8484615346565b612606565b6000612efe61296b565b6043819055919050565b60606000612f14613e64565b9150612f2082846142a7565b9050915091565b600454600160501b90046001600160801b031690565b6060600080612f4a6122f7565b915091508160016005016000828254612f6391906152b7565b909155505060078054829190600090612f7d9084906152b7565b92505081905550730F0693C8E92FF4Cb0eD14306050dA589943cB1Bb6333fdd81d600160020160009054906101000a90046001600160a01b0316600160020160199054906101000a900460020b6001600201601c9054906101000a900460020b600160030160009054906101000a900460020b600160030160039054906101000a900460020b6001600301600a9054906101000a90046001600160801b0316600160040160009054906101000a90046001600160801b03168c600160030160099054906101000a900460ff166040518a63ffffffff1660e01b815260040161306d9998979695949392919061595d565b600060405180830381865af415801561308a573d6000803e3d6000fd5b505050506040513d6000823e601f3d908101601f191682016040526130b291908101906159bc565b600580546001600160801b0319166001600160801b0392831617905560048054600160501b600160d01b031916600160501b9390921692909202179055949350505050565b845160005b81811015610e3557600086828151811061311857613118615313565b60200260200101519050600086838151811061313657613136615313565b602002602001015190508583036131775760008513156131615761315a85836152b7565b9150613177565b61316a856155b9565b61317490826152b7565b90505b61319b89848151811061318c5761318c615313565b60200260200101518383612eba565b50506001016130fc565b6040516370a0823160e01b81526000906001600160a01b038316906370a08231906131d4903090600401614fad565b602060405180830381865afa1580156131f1573d6000803e3d6000fd5b505050506040513d601f19601f820116820180604052508101906107289190615288565b6001600160a01b0383166000908152604060208190528120805484929061323d9084906152b7565b90915550506040517fd1e935d17de6dcfd3ffb4f6d06f977c837be28001308e04923722e32d1863c7d9061327490859085906152fa565b60405180910390a160408051808201909152600f81526e53423a2057726f6e672076616c756560881b602082015282821015610f155760405162461bcd60e51b8152600401610bbe919061502e565b6000806132cf83613484565b604654909350909150620186a0906132e890839061586e565b6132f29190615885565b8411156134485760095460ff161561339c57604080516002808252606082018352600092602083019080368337019050509050848160008151811061333957613339615313565b6020026020010181815250507f59400c8c523464b521238ea8f50e923f2bc64663557e6afec92a97f7efe92d058182604051613376929190615a02565b60405180910390a1600154613396906001600160a01b0316866000612eba565b5061343e565b603d5460009081906133b6906001600160a01b0316612f08565b6044549193509150600090819081906133da906001600160a01b03168a8787614305565b92509250925060006133eb84612dbf565b5090507f59400c8c523464b521238ea8f50e923f2bc64663557e6afec92a97f7efe92d05848260405161341f929190615a02565b60405180910390a161343786848388611ecb876155b9565b5050505050505b613446612ef4565b505b5092915050565b60006001600160e01b0319821663b7b79fa960e01b148061072857506301ffc9a760e01b6001600160e01b0319831614610728565b604354600090819083613497578061349f565b61349f612ef4565b9250836134ad5760006134b7565b6134b78184615a30565b915050915091565b60008083806134cd57508415155b80156134d857508215155b156138f35760006134e7613e64565b603d549091506001600160a01b0316600061350283836142a7565b6044546040805160c081019091529192506001600160a01b03169060009080613529614556565b8152602001613536612f27565b8152602001613543612f27565b81526000602082015260408051637a55caf360e01b81526001600160a01b0380871660048301528816602482015291019073d91df94Ada3bA7187eb9637A5B3D82032BF9A8c090637a55caf390604401602060405180830381865af41580156135b0573d6000803e3d6000fd5b505050506040513d601f19601f820116820180604052508101906135d49190615288565b81526020016000604051908082528060200260200182016040528015613604578160200160208202803683370190505b509052905073d91df94Ada3bA7187eb9637A5B3D82032BF9A8c063d361fe128a61362e578b613631565b60005b6040308988888f89604001516040518963ffffffff1660e01b8152600401613660989796959493929190615a50565b600060405180830381865af415801561367d573d6000803e3d6000fd5b505050506040513d6000823e601f3d908101601f191682016040526136a59190810190615aac565b60a0830152606080830182905290600090156137bc576136c88360600151612f3d565b91507faebc771af58936b05e89b0be7d3f9761480181abcd4a649fbdd01753fda169708360600151836040516136ff929190615494565b60405180910390a173d91df94Ada3bA7187eb9637A5B3D82032BF9A8c0632374491584600001518560400151866060015187602001518860a001518d8c8c613745612f27565b8c6040518b63ffffffff1660e01b815260040161376b9a99989796959493929190615ae8565b600060405180830381865af4158015613788573d6000803e3d6000fd5b505050506040513d6000823e601f3d908101601f191682016040526137b09190810190615aac565b60a0850152905061388c565b73d91df94Ada3bA7187eb9637A5B3D82032BF9A8c063bc846df28887878b516001600160401b038111156137f2576137f2615041565b60405190808252806020026020018201604052801561381b578160200160208202803683370190505b508860a001516040518663ffffffff1660e01b8152600401613841959493929190615b7a565b600060405180830381865af415801561385e573d6000803e3d6000fd5b505050506040513d6000823e601f3d908101601f191682016040526138869190810190615bd5565b90925090505b60008061389f89888760a00151896145d1565b915091506138b08985838a866130f7565b6138b8612ef4565b50670de0b6b3a76400008560800151846138d2919061586e565b6138dc9190615885565b85608001519a509a505050505050505050506138fa565b5060009050805b935093915050565b6000613957826040518060400160405280602081526020017f5361666545524332303a206c6f772d6c6576656c2063616c6c206661696c6564815250856001600160a01b031661470e9092919063ffffffff16565b805190915015612728578080602001905181019061397591906155d5565b6127285760405162461bcd60e51b815260206004820152602a60248201527f5361666545524332303a204552433230206f7065726174696f6e20646964206e6044820152691bdd081cdd58d8d9595960b21b6064820152608401610bbe565b600054610100900460ff166139fb5760405162461bcd60e51b8152600401610bbe90615616565b613a25817fd2de0374d4479f33e63ae5ed6ca772a10463dd883a90c612050b51fab6196400614725565b613a2e8261477f565b60405163b429afeb60e01b81526001600160a01b0382169063b429afeb90613a5a908590600401614fad565b602060405180830381865afa158015613a77573d6000803e3d6000fd5b505050506040513d601f19601f82011682018060405250810190613a9b91906155d5565b6040518060400160405280600f81526020016e53423a2057726f6e672076616c756560881b81525090613ae15760405162461bcd60e51b8152600401610bbe919061502e565b50806001600160a01b03166338d52e0f6040518163ffffffff1660e01b8152600401602060405180830381865afa158015613b20573d6000803e3d6000fd5b505050506040513d601f19601f82011682018060405250810190613b449190615329565b603d80546001600160a01b03199081166001600160a01b0393841617909155603e805490911683831617905560408051635aa6e67560e01b8152905191841691635aa6e675916004808201926020929091908290030181865afa158015613baf573d6000803e3d6000fd5b505050506040513d601f19601f82011682018060405250810190613bd39190615329565b604180546001600160a01b0319166001600160a01b03929092169190911790555050612710604255565b6003546004805460055460405163c68bc70360e01b8152606094730F0693C8E92FF4Cb0eD14306050dA589943cB1Bb9463c68bc70394613c92946001600160a01b03841694600160c81b8504600290810b95600160e01b9004810b9484820b946301000000810490920b93600160501b83046001600160801b03908116949116928e92600160481b90910460ff16910161595d565b600060405180830381865af4158015613caf573d6000803e3d6000fd5b505050506040513d6000823e601f3d908101601f191682016040526107289190810190615c1b565b60035460048054600654600754604051630117844f60e61b81526001600160a01b03861694810194909452600160c81b8504600290810b6024860152600160e01b909504850b604485015282850b60648501526301000000830490940b608484015260a483015260c4820192909252600160481b90910460ff16151560e48201526060908190730F0693C8E92FF4Cb0eD14306050dA589943cB1Bb906345e113c09061010401600060405180830381865af4158015613d9a573d6000803e3d6000fd5b505050506040513d6000823e601f3d908101601f19168201604052613dc29190810190615c1b565b600060068190556007556040805160028082526060820183529293509190602083019080368337505060015482519294506001600160a01b031691849150600090613e0f57613e0f615313565b6001600160a01b039283166020918202929092010152600254835191169083906001908110613e4057613e40615313565b60200260200101906001600160a01b031690816001600160a01b0316815250509091565b6040805160028082526060808301845292602083019080368337505060015482519293506001600160a01b031691839150600090613ea457613ea4615313565b6001600160a01b039283166020918202929092010152600254825191169082906001908110613ed557613ed5615313565b60200260200101906001600160a01b031690816001600160a01b03168152505090565b60425460415460405163217cfb2b60e21b8152606092839283926000928392738b3B9714aFe0F4Ff5c7F28e5490D1f8A18957e12926385f3ecac92613f519290916001600160a01b03909116908c908c90600401615c4f565b600060405180830381865af4158015613f6e573d6000803e3d6000fd5b505050506040513d6000823e601f3d908101601f19168201604052613f969190810190615560565b603d54603f5492945090925073d91df94Ada3bA7187eb9637A5B3D82032BF9A8c091630f5103ff916001600160a01b031690613fd0613e64565b613fd86124ee565b6001600160a01b0316634046ebae6040518163ffffffff1660e01b8152600401602060405180830381865afa158015614015573d6000803e3d6000fd5b505050506040513d601f19601f820116820180604052508101906140399190615329565b604560408e8a6040518963ffffffff1660e01b8152600401614062989796959493929190615c79565b600060405180830381865af415801561407f573d6000803e3d6000fd5b505050506040513d6000823e601f3d908101601f191682016040526140a79190810190615cf2565b60405192975090955093507f9ed62bee08ffc98e5efa3255527e36fba3f5fa16b944a4bfad646bcf592acc4a906140e79089908890889088908790615d79565b60405180910390a150509250925092565b50565b60405163232421d960e01b81526001600482015260009081908190730F0693C8E92FF4Cb0eD14306050dA589943cB1Bb9063232421d990602401602060405180830381865af4158015614152573d6000803e3d6000fd5b505050506040513d601f19601f820116820180604052508101906141769190615288565b9250614180612a32565b603d54614195906001600160a01b03166131a5565b600854909150156141ac5760088054600090915591505b909192565b600080858511156141d7576141c68686615346565b6141d090856152b7565b93506141ee565b6141e18587615346565b6141eb90846152b7565b92505b509194909350915050565b600060606000738b3B9714aFe0F4Ff5c7F28e5490D1f8A18957e126397783a6c86866040518363ffffffff1660e01b8152600401614238929190615df8565b600060405180830381865af4158015614255573d6000803e3d6000fd5b505050506040513d6000823e601f3d908101601f1916820160405261427d9190810190615c1b565b60445490915061429b908690869084906001600160a01b03166145d1565b90969095509350505050565b8151600090815b818110156142f957836001600160a01b03168582815181106142d2576142d2615313565b60200260200101516001600160a01b0316036142f15791506107289050565b6001016142ae565b50600019949350505050565b6040805160028082526060828101909352829160009181602001602082028036833750506040805160028082526060820183529396509291506020830190803683370190505060035460048054604051630302c45560e41b81526001600160a01b03841692810192909252600160c81b8304600290810b6024840152600160e01b8404810b6044840152600160a01b90930490920b6064820152600160481b90910460ff1615156084820152909250600090730F0693C8E92FF4Cb0eD14306050dA589943cB1Bb9063302c45509060a401600060405180830381865af41580156143f3573d6000803e3d6000fd5b505050506040513d6000823e601f3d908101601f1916820160405261441b9190810190615e1a565b600154909150614435906001600160a01b0316888a6149a2565b60015460025460405163ca27d10d60e01b815273d91df94Ada3bA7187eb9637A5B3D82032BF9A8c09263ca27d10d92614488928d9287926001600160a01b03918216929116908e90600090600401615ead565b6040805180830381865af41580156144a4573d6000803e3d6000fd5b505050506040513d601f19601f820116820180604052508101906144c891906155f2565b846001815181106144db576144db615313565b602090810291909101015291506144f28288615346565b8460008151811061450557614505615313565b6020026020010181815250508260018151811061452457614524615313565b60200260200101518460018151811061453f5761453f615313565b602002602001018181525050509450945094915050565b604051630a65e5e760e01b815260016004820152606090730F0693C8E92FF4Cb0eD14306050dA589943cB1Bb90630a65e5e790602401600060405180830381865af41580156145a9573d6000803e3d6000fd5b505050506040513d6000823e601f3d908101601f191682016040526106fe9190810190615c1b565b6000606073d91df94Ada3bA7187eb9637A5B3D82032BF9A8c0637047292d846145f86124ee565b6001600160a01b0316634046ebae6040518163ffffffff1660e01b8152600401602060405180830381865afa158015614635573d6000803e3d6000fd5b505050506040513d601f19601f820116820180604052508101906146599190615329565b604560008b8b8151811061466f5761466f615313565b60200260200101516001600160a01b03166001600160a01b03168152602001908152602001600020548a8a8a6040518763ffffffff1660e01b81526004016146bc96959493929190615ef5565b600060405180830381865af41580156146d9573d6000803e3d6000fd5b505050506040513d6000823e601f3d908101601f191682016040526147019190810190615aac565b9150915094509492505050565b606061471d8484600085614a48565b949350505050565b61472f8282614b23565b61477b5760405162461bcd60e51b815260206004820152601a60248201527f496e74657266616365206973206e6f7420737570706f727465640000000000006044820152606401610bbe565b5050565b600054610100900460ff166147a65760405162461bcd60e51b8152600401610bbe90615616565b6001600160a01b0381166147ee5760405162461bcd60e51b815260206004820152600f60248201526e2d32b9379031b7b73a3937b63632b960891b6044820152606401610bbe565b614818817f4c2403fdcb3cff9b705d96bf0705858e3390412670a62c8bcba611ca7e20ab86614725565b60006001600160a01b0316816001600160a01b0316635aa6e6756040518163ffffffff1660e01b8152600401602060405180830381865afa158015614861573d6000803e3d6000fd5b505050506040513d601f19601f820116820180604052508101906148859190615329565b6001600160a01b0316036148cd5760405162461bcd60e51b815260206004820152600f60248201526e5a65726f20676f7665726e616e636560881b6044820152606401610bbe565b6148fc8161123160017f5165972ef41194f06c5007493031d0b927c20741adcb74403b954009fd2c3618615346565b61492b4261123160017f6f55f470bdc9cb5f04223fd822021061668e4dccb43e8727b295106dc9769c8b615346565b61495a4361123160017f812a673dfca07956350df10f8a654925f561d7a0da09bdbe79e653939a14d9f1615346565b604080516001600160a01b038316815242602082015243918101919091527f1a2dd071001ebf6e03174e3df5b305795a4ad5d41d8fdb9ba41dbbe23671342690606001611702565b604051636eb1769f60e11b81523060048201526001600160a01b03828116602483015283919085169063dd62ed3e90604401602060405180830381865afa1580156149f1573d6000803e3d6000fd5b505050506040513d601f19601f82011682018060405250810190614a159190615288565b101561272857614a306001600160a01b038416826000614c01565b6127286001600160a01b03841682600160ff1b614c01565b606082471015614aa95760405162461bcd60e51b815260206004820152602660248201527f416464726573733a20696e73756666696369656e742062616c616e636520666f6044820152651c8818d85b1b60d21b6064820152608401610bbe565b600080866001600160a01b03168587604051614ac59190615f4d565b60006040518083038185875af1925050503d8060008114614b02576040519150601f19603f3d011682016040523d82523d6000602084013e614b07565b606091505b5091509150614b1887838387614d05565b979650505050505050565b60006001600160a01b038316614b6a5760405162461bcd60e51b815260206004820152600c60248201526b5a65726f206164647265737360a01b6044820152606401610bbe565b823b6000819003614b7f576000915050610728565b6040516301ffc9a760e01b81526001600160e01b0319841660048201526001600160a01b038516906301ffc9a790602401602060405180830381865afa925050508015614be9575060408051601f3d908101601f19168201909252614be6918101906155d5565b60015b15614bf75791506107289050565b5060009392505050565b801580614c7b5750604051636eb1769f60e11b81523060048201526001600160a01b03838116602483015284169063dd62ed3e90604401602060405180830381865afa158015614c55573d6000803e3d6000fd5b505050506040513d601f19601f82011682018060405250810190614c799190615288565b155b614ce65760405162461bcd60e51b815260206004820152603660248201527f5361666545524332303a20617070726f76652066726f6d206e6f6e2d7a65726f60448201527520746f206e6f6e2d7a65726f20616c6c6f77616e636560501b6064820152608401610bbe565b6127288363095ea7b360e01b84846040516024016126f19291906152fa565b60608315614d74578251600003614d6d576001600160a01b0385163b614d6d5760405162461bcd60e51b815260206004820152601d60248201527f416464726573733a2063616c6c20746f206e6f6e2d636f6e74726163740000006044820152606401610bbe565b508161471d565b61471d8383815115614d895781518083602001fd5b8060405162461bcd60e51b8152600401610bbe919061502e565b600060208284031215614db557600080fd5b81356001600160e01b031981168114612d1757600080fd5b6001600160a01b03811681146140f857600080fd5b60008060408385031215614df557600080fd5b8235614e0081614dcd565b946020939093013593505050565b600081518084526020808501945080840160005b83811015614e3e57815187529582019590820190600101614e22565b509495945050505050565b6001600160a01b038c811682528b811660208301528a166040820152600289810b606083015288810b608083015287810b60a083015286900b60c08201526001600160801b03851660e082015283151561010082015261012081018390526101606101408201819052600090614ec183820185614e0e565b9e9d5050505050505050505050505050565b60008060408385031215614ee657600080fd5b823591506020830135614ef881614dcd565b809150509250929050565b8060020b81146140f857600080fd5b60008060008060008060c08789031215614f2b57600080fd5b8635614f3681614dcd565b95506020870135614f4681614dcd565b94506040870135614f5681614dcd565b93506060870135614f6681614dcd565b92506080870135614f7681614f03565b915060a0870135614f8681614f03565b809150509295509295509295565b600060208284031215614fa657600080fd5b5035919050565b6001600160a01b0391909116815260200190565b600060208284031215614fd357600080fd5b8135612d1781614dcd565b60005b83811015614ff9578181015183820152602001614fe1565b50506000910152565b6000815180845261501a816020860160208601614fde565b601f01601f19169290920160200192915050565b602081526000612d176020830184615002565b634e487b7160e01b600052604160045260246000fd5b604051601f8201601f191681016001600160401b038111828210171561507f5761507f615041565b604052919050565b60006001600160401b038211156150a0576150a0615041565b5060051b60200190565b600082601f8301126150bb57600080fd5b813560206150d06150cb83615087565b615057565b82815260059290921b840181019181810190868411156150ef57600080fd5b8286015b8481101561510a57803583529183019183016150f3565b509695505050505050565b6000806040838503121561512857600080fd5b82356001600160401b038082111561513f57600080fd5b818501915085601f83011261515357600080fd5b813560206151636150cb83615087565b82815260059290921b8401810191818101908984111561518257600080fd5b948201945b838610156151a957853561519a81614dcd565b82529482019490820190615187565b965050860135925050808211156151bf57600080fd5b506151cc858286016150aa565b9150509250929050565b80151581146140f857600080fd5b600080604083850312156151f757600080fd5b823591506020830135614ef8816151d6565b6000806000806060858703121561521f57600080fd5b843593506020850135925060408501356001600160401b038082111561524457600080fd5b818701915087601f83011261525857600080fd5b81358181111561526757600080fd5b88602082850101111561527957600080fd5b95989497505060200194505050565b60006020828403121561529a57600080fd5b5051919050565b634e487b7160e01b600052601160045260246000fd5b80820180821115610728576107286152a1565b6001600160a01b039586168152602081019490945260408401929092526060830152909116608082015260a00190565b6001600160a01b03929092168252602082015260400190565b634e487b7160e01b600052603260045260246000fd5b60006020828403121561533b57600080fd5b8151612d1781614dcd565b81810381811115610728576107286152a1565b600082601f83011261536a57600080fd5b8151602061537a6150cb83615087565b82815260059290921b8401810191818101908684111561539957600080fd5b8286015b8481101561510a578051835291830191830161539d565b600080604083850312156153c757600080fd5b82516001600160401b038111156153dd57600080fd5b6153e985828601615359565b9250506020830151614ef8816151d6565b80516001600160801b038116811461541157600080fd5b919050565b60008060006060848603121561542b57600080fd5b835161543681614f03565b602085015190935061544781614f03565b9150615455604085016153fa565b90509250925092565b6000806000806080858703121561547457600080fd5b505082516020840151604085015160609095015191969095509092509050565b82815260406020820152600061471d6040830184614e0e565b600081518084526020808501945080840160005b83811015614e3e5781516001600160a01b0316875295820195908201906001016154c1565b60006101408c83528060208401526155008184018d6154ad565b604084018c90526001600160a01b038b81166060860152848203608086015290915061552c828b614e0e565b98811660a08501529690961660c08301525060e0810193909352610100830191909152610120909101525095945050505050565b6000806040838503121561557357600080fd5b82516001600160401b038082111561558a57600080fd5b61559686838701615359565b935060208501519150808211156155ac57600080fd5b506151cc85828601615359565b6000600160ff1b82016155ce576155ce6152a1565b5060000390565b6000602082840312156155e757600080fd5b8151612d17816151d6565b6000806040838503121561560557600080fd5b505080516020909101519092909150565b6020808252602b908201527f496e697469616c697a61626c653a20636f6e7472616374206973206e6f74206960408201526a6e697469616c697a696e6760a81b606082015260800190565b60008060008060008060c0878903121561567a57600080fd5b865161568581614f03565b602088015190965061569681614f03565b60408801519095506156a781614f03565b60608801519094506156b881614dcd565b60808801519093506156c981614dcd565b60a0880151909250614f86816151d6565b60a0815260006156ed60a08301886154ad565b82810360208401526156ff8188614e0e565b604084019690965250506001600160a01b0392909216606083015260809091015292915050565b6001600160a01b038616815260a06020820181905260009061574a908301876154ad565b828103604084015261575c81876154ad565b905082810360608401526157708186614e0e565b9150508260808301529695505050505050565b6000806040838503121561579657600080fd5b82516001600160401b03808211156157ad57600080fd5b818501915085601f8301126157c157600080fd5b815160206157d16150cb83615087565b82815260059290921b840181019181810190898411156157f057600080fd5b948201945b8386101561581757855161580881614dcd565b825294820194908201906157f5565b918801519196509093505050808211156155ac57600080fd5b6001600160a01b0385811682528416602082015260806040820181905260009061585c908301856154ad565b8281036060840152614b188185614e0e565b8082028115828204841417610728576107286152a1565b6000826158a257634e487b7160e01b600052601260045260246000fd5b500490565b602081526000612d176020830184614e0e565b60018060a01b03871681528560020b60208201528460020b604082015260c0606082015260006158ed60c0830186614e0e565b6001600160801b039490941660808301525090151560a090910152949350505050565b60008060006060848603121561592557600080fd5b83516001600160401b0381111561593b57600080fd5b61594786828701615359565b93505060208401519150615455604085016153fa565b6001600160a01b03999099168952600297880b60208a015295870b604089015293860b60608801529190940b60808601526001600160801b0393841660a0860152831660c085015290911660e083015215156101008201526101200190565b6000806000606084860312156159d157600080fd5b83516001600160401b038111156159e757600080fd5b6159f386828701615359565b935050615447602085016153fa565b604081526000615a156040830185614e0e565b8281036020840152615a278185614e0e565b95945050505050565b8181036000831280158383131683831282161715613448576134486152a1565b888152602081018890526001600160a01b03878116604083015261010060608301819052600091615a838483018a6154ad565b60808501989098529590951660a08301525060c081019290925260e09091015250949350505050565b60008060408385031215615abf57600080fd5b8251915060208301516001600160401b03811115615adc57600080fd5b6151cc85828601615359565b6000610140808352615afc8184018e614e0e565b90508b60208401528a60408401528960608401528281036080840152615b22818a614e0e565b905082810360a0840152615b3681896154ad565b60c084018890526001600160a01b03871660e085015261010084018690528381036101208501529050615b698185614e0e565b9d9c50505050505050505050505050565b60a081526000615b8d60a08301886154ad565b602083018790526001600160a01b03861660408401528281036060840152615bb58186614e0e565b90508281036080840152615bc98185614e0e565b98975050505050505050565b60008060408385031215615be857600080fd5b82516001600160401b03811115615bfe57600080fd5b615c0a85828601615359565b925050602083015190509250929050565b600060208284031215615c2d57600080fd5b81516001600160401b03811115615c4357600080fd5b61471d84828501615359565b8481526001600160a01b038416602082015260806040820181905260009061585c908301856154ad565b6001600160a01b0389811682526020820189905261010060408301819052600091615ca68483018b6154ad565b91508089166060850152508660808401528560a084015282810360c0840152615ccf81866154ad565b905082810360e0840152615ce38185614e0e565b9b9a5050505050505050505050565b600080600060608486031215615d0757600080fd5b83516001600160401b0380821115615d1e57600080fd5b615d2a87838801615359565b94506020860151915080821115615d4057600080fd5b615d4c87838801615359565b93506040860151915080821115615d6257600080fd5b50615d6f86828701615359565b9150509250925092565b60a0808252865190820181905260009060209060c0840190828a01845b82811015615dbb5781516001600160a01b031684529284019290840190600101615d96565b50505083810382850152615dcf8189614e0e565b9150508281036040840152615de48187614e0e565b90508281036060840152615bb58186614e0e565b604081526000615e0b60408301856154ad565b90508260208301529392505050565b600060208284031215615e2c57600080fd5b81516001600160401b0380821115615e4357600080fd5b818401915084601f830112615e5757600080fd5b815181811115615e6957615e69615041565b615e7c601f8201601f1916602001615057565b9150808252856020828501011115615e9357600080fd5b615ea4816020840160208601614fde565b50949350505050565b600060018060a01b03808916835260c06020840152615ecf60c0840189615002565b9681166040840152949094166060820152608081019290925260a0909101525092915050565b6001600160a01b038781168252861660208201526040810185905260c060608201819052600090615f28908301866154ad565b84608084015282810360a0840152615f408185614e0e565b9998505050505050505050565b60008251615f5f818460208701614fde565b919091019291505056fea2646970667358221220aaf72296ca544dd76462fde8869fc8c9e90fb64c02eccbca74af660c66345d6b64736f6c63430008110033",
  "deployedBytecode": "0x608060405234801561001057600080fd5b50600436106102b65760003560e01c80637832743811610172578063b2457556116100d9578063d348799711610092578063d348799714610607578063db8d55f11461061a578063dc1000a714610622578063de3d047c14610642578063dee1f0e414610655578063f77c479114610668578063ffb86c6a1461067057600080fd5b8063b2457556146105b2578063b429afeb146105c5578063bd38837b146105d8578063cd4c8156146105eb578063ceee861d14610542578063d295ea70146105fe57600080fd5b8063936725ec1161012b578063936725ec1461050b57806396b7b14e1461052f578063996a6c9c146105425780639d0bcca014610566578063a3f4df7e1461056e578063ab9e3eee146105aa57600080fd5b806378327438146104975780637cc96380146104b75780637d7c2a1c146104bf5780637efc77fa146104c757806387788782146104ef57806387c7f770146104f857600080fd5b80633cd8045e1161022157806351e03fbe116101da57806351e03fbe146104015780635641ec03146104145780635cfc1a511461041c5780636207a0cf146104265780636ffb4c8e1461045757806371ee01751461046a57806373a50ef51461047357600080fd5b80633cd8045e146103a65780634593144c146103b95780634ad0b684146103c15780634e71d92d146103c95780634fa5d854146103d15780634fac6ccd146103ee57600080fd5b8063253de46611610273578063253de4661461034857806328abdef01461035b578063321793a814610363578063325a19f11461037657806333c5b58e1461037e57806338d52e0f1461038657600080fd5b806301e1d114146102bb57806301ffc9a7146102d65780630acd12c7146102f95780630e30428d146103015780631865c57d1461031657806322b6f5e214610335575b600080fd5b6102c3610678565b6040519081526020015b60405180910390f35b6102e96102e4366004614da3565b610703565b60405190151581526020016102cd565b6102c361072e565b61031461030f366004614de2565b61093b565b005b61031e610a02565b6040516102cd9b9a99989796959493929190614e49565b610314610343366004614ed3565b610b07565b610314610356366004614f12565b610c3d565b610314610e3e565b610314610371366004614f94565b610f1b565b6102c3610ff4565b6102c3611028565b603d54610399906001600160a01b031681565b6040516102cd9190614fad565b603e54610399906001600160a01b031681565b6102c3611032565b6043546102c3565b610314611062565b6103d9611111565b604080519283526020830191909152016102cd565b6103146103fc366004614fc1565b611176565b6102c361040f366004614f94565b6112a1565b6103146114b7565b600160ff1b6102c3565b61044a604051806040016040528060058152602001640312e312e360dc1b81525081565b6040516102cd919061502e565b610314610465366004614f94565b611615565b6102c360465481565b61044a60405180604001604052806005815260200164322e312e3160d81b81525081565b6102c36104a5366004614fc1565b60456020526000908152604090205481565b6102c361170d565b61031461173d565b61044a60405180604001604052806009815260200168556e6973776170563360b81b81525081565b6102c360425481565b6102c3610506366004614de2565b611a73565b61044a604051806040016040528060058152602001640332e302e360dc1b81525081565b61031461053d366004615115565b611f10565b61044a60405180604001604052806005815260200164312e302e3160d81b81525081565b610399611ff4565b61044a6040518060400160405280601c81526020017f556e6973776170563320436f6e7665727465722053747261746567790000000081525081565b6102e9612024565b6102c36105c03660046151e4565b6120ae565b6102e96105d3366004614fc1565b6121f6565b604454610399906001600160a01b031681565b604154610399906001600160a01b031681565b6102c3603f5481565b610314610615366004615209565b61221b565b6103d96122f7565b6102c3610630366004614fc1565b60406020819052600091825290205481565b610314610650366004614f94565b61236f565b6102e9610663366004614fc1565b612469565b6103996124ee565b6102e961251e565b600061068360435490565b603d546040516370a0823160e01b81526001600160a01b03909116906370a08231906106b3903090600401614fad565b602060405180830381865afa1580156106d0573d6000803e3d6000fd5b505050506040513d601f19601f820116820180604052508101906106f49190615288565b6106fe91906152b7565b905090565b60006001600160e01b0319821663f73147b360e01b14806107285750610728826125b5565b92915050565b603e54603d5460405163201de59f60e01b81526000926001600160a01b0390811692169073__$ec217c54da363a68ad871e6868efec481c$__9063201de59f9061077c908590600401614fad565b60006040518083038186803b15801561079457600080fd5b505af41580156107a8573d6000803e3d6000fd5b50506040516370a0823160e01b8152600092506001600160a01b03841691506370a08231906107db903090600401614fad565b602060405180830381865afa1580156107f8573d6000803e3d6000fd5b505050506040513d601f19601f8201168201806040525081019061081c9190615288565b9050600080600061082b6125da565b92509250925073__$ec217c54da363a68ad871e6868efec481c$__631594b05b868686868b6040518663ffffffff1660e01b81526004016108709594939291906152ca565b602060405180830381865af415801561088d573d6000803e3d6000fd5b505050506040513d601f19601f820116820180604052508101906108b19190615288565b6001600160a01b038616600090815260406020819052902054909450808511156108d9578094505b5083156108fe576108ea8585612606565b6108fe6001600160a01b03861687866126d2565b6040518481527f97f6cbf669d73908a8de3b762891f88fcc476520fd70cb3d414dc9ac86e0a2e59060200160405180910390a19695505050505050565b73__$ec217c54da363a68ad871e6868efec481c$__63493f6edc61095d6124ee565b6040518263ffffffff1660e01b81526004016109799190614fad565b60006040518083038186803b15801561099157600080fd5b505af41580156109a5573d6000803e3d6000fd5b5050506001600160a01b03831660009081526045602052604090819020839055517f297f3fbc14027d2b4a4f7dac3dff2ad6b386024299045b0e163f131bb24b611d91506109f690849084906152fa565b60405180910390a15050565b6001546002805460038054600454600954600a5460408051868152608081019091526001600160a01b03988916989687169796851696600160a01b8604810b96600160c81b8704820b96600160e01b9004820b95600160301b810490920b94600160501b9092046001600160801b03169360ff9092169260609160208201838036833701905050905060016005015481600081518110610aa457610aa4615313565b60200260200101818152505060016006015481600181518110610ac957610ac9615313565b60200260200101818152505060016007015481600281518110610aee57610aee615313565b602002602001018181525050909192939495969798999a565b73__$ec217c54da363a68ad871e6868efec481c$__634bead669610b296124ee565b6040518263ffffffff1660e01b8152600401610b459190614fad565b60006040518083038186803b158015610b5d57600080fd5b505af4158015610b71573d6000803e3d6000fd5b505050506127108211156040518060400160405280600c81526020016b0a6847440a8dede40d0d2ced60a31b81525090610bc75760405162461bcd60e51b8152600401610bbe919061502e565b60405180910390fd5b5060408051808201909152600f81526e53423a2057726f6e672076616c756560881b60208201526001600160a01b038216610c155760405162461bcd60e51b8152600401610bbe919061502e565b50604291909155604180546001600160a01b0319166001600160a01b03909216919091179055565b600054610100900460ff1615808015610c5d5750600054600160ff909116105b80610c775750303b158015610c77575060005460ff166001145b610cda5760405162461bcd60e51b815260206004820152602e60248201527f496e697469616c697a61626c653a20636f6e747261637420697320616c72656160448201526d191e481a5b9a5d1a585b1a5e995960921b6064820152608401610bbe565b6000805460ff191660011790558015610cfd576000805461ff0019166101001790555b610d6a866001600160a01b03166338d52e0f6040518163ffffffff1660e01b8152600401602060405180830381865afa158015610d3e573d6000803e3d6000fd5b505050506040513d601f19601f82011682018060405250810190610d629190615329565b85858561272d565b610d75878787612916565b604051636a65141d60e11b8152600160048201526001600160a01b0380891660248301528616604482015273__$166cd655d2cd990700b75f7db5b5f84c53$__9063d4ca283a9060640160006040518083038186803b158015610dd757600080fd5b505af4158015610deb573d6000803e3d6000fd5b505050508015610e35576000805461ff0019169055604051600181527f7f26b83ff96e1f2b6a682f133852f6798a09c465da95921460cefb38474024989060200160405180910390a15b50505050505050565b73__$ec217c54da363a68ad871e6868efec481c$__63493f6edc610e606124ee565b6040518263ffffffff1660e01b8152600401610e7c9190614fad565b60006040518083038186803b158015610e9457600080fd5b505af4158015610ea8573d6000803e3d6000fd5b50506009805460ff1916905550506040805163f460770b60e01b8152905173__$166cd655d2cd990700b75f7db5b5f84c53$__9163f460770b916004808301926000929190829003018186803b158015610f0157600080fd5b505af4158015610f15573d6000803e3d6000fd5b50505050565b73__$ec217c54da363a68ad871e6868efec481c$__63493f6edc610f3d6124ee565b6040518263ffffffff1660e01b8152600401610f599190614fad565b60006040518083038186803b158015610f7157600080fd5b505af4158015610f85573d6000803e3d6000fd5b505050600a82905550604051631c77945b60e31b81526004810182905273__$166cd655d2cd990700b75f7db5b5f84c53$__9063e3bca2d89060240160006040518083038186803b158015610fd957600080fd5b505af4158015610fed573d6000803e3d6000fd5b5050505050565b60006106fe61102460017f6f55f470bdc9cb5f04223fd822021061668e4dccb43e8727b295106dc9769c8b615346565b5490565b60006106fe61296b565b60006106fe61102460017f812a673dfca07956350df10f8a654925f561d7a0da09bdbe79e653939a14d9f1615346565b73__$ec217c54da363a68ad871e6868efec481c$__63493f6edc6110846124ee565b6040518263ffffffff1660e01b81526004016110a09190614fad565b60006040518083038186803b1580156110b857600080fd5b505af41580156110cc573d6000803e3d6000fd5b505050506110d8612a32565b7fed7f50f936a5ed7428d20f18e78d6dfe8bc37fd2f4e3cdb348327c7697244928336040516111079190614fad565b60405180910390a1565b603e5460408051808201909152600a81526914d08e8811195b9a595960b21b60208201526000918291906001600160a01b031633146111635760405162461bcd60e51b8152600401610bbe919061502e565b5061116e6001612bd3565b915091509091565b3330146111c55760405162461bcd60e51b815260206004820152601b60248201527f496e637265617365207265766973696f6e20666f7262696464656e00000000006044820152606401610bbe565b60006111f561102460017f22573091f17911fb166032a3d9e0554aa73d31b7b7ddea4a4dd2995650af84bd615346565b6112009060016152b7565b90506112348161123160017f22573091f17911fb166032a3d9e0554aa73d31b7b7ddea4a4dd2995650af84bd615346565b55565b6112638261123160017fbfaaa2fb63266ff27c2da975f5894955056f50419af651a81f6c5060581857e4615346565b604080518281526001600160a01b03841660208201527ff27e2ef832a4eb8ed8ec553b875eecd44764cda95b1c24170e281539e0a869c891016109f6565b603e54603d5460405163201de59f60e01b81526000926001600160a01b0390811692169073__$ec217c54da363a68ad871e6868efec481c$__9063201de59f906112ef908590600401614fad565b60006040518083038186803b15801561130757600080fd5b505af415801561131b573d6000803e3d6000fd5b50506040516370a0823160e01b8152600092506001600160a01b03841691506370a082319061134e903090600401614fad565b602060405180830381865afa15801561136b573d6000803e3d6000fd5b505050506040513d601f19601f8201168201806040525081019061138f9190615288565b90508085111561143b576000806113ae6113a98489615346565b612c8c565b604051631594b05b60e01b8152909850919350915073__$ec217c54da363a68ad871e6868efec481c$__90631594b05b906113f59087908790879087908c906004016152ca565b602060405180830381865af4158015611412573d6000803e3d6000fd5b505050506040513d601f19601f820116820180604052508101906114369190615288565b925050505b60006114478683612d06565b9050801561146d576114598382612606565b61146d6001600160a01b03841685836126d2565b60408051878152602081018390529081018390527f21b38dd19808c509ae6afc969adfaf7d35fe949c37abd493b963cf9b68cc1acb9060600160405180910390a150505050919050565b73__$ec217c54da363a68ad871e6868efec481c$__63493f6edc6114d96124ee565b6040518263ffffffff1660e01b81526004016114f59190614fad565b60006040518083038186803b15801561150d57600080fd5b505af4158015611521573d6000803e3d6000fd5b5050505061152d612d1e565b603d546040516370a0823160e01b81526001600160a01b039091169060009082906370a0823190611562903090600401614fad565b602060405180830381865afa15801561157f573d6000803e3d6000fd5b505050506040513d601f19601f820116820180604052508101906115a39190615288565b6001600160a01b0383166000908152604060208190529020549091506115ca908390612606565b603e546115e4906001600160a01b038481169116836126d2565b7ff779df072f94d207563b1ba8c286814086f1e6bb436a2652e307dccc56ed79e833826040516109f69291906152fa565b73__$ec217c54da363a68ad871e6868efec481c$__63493f6edc6116376124ee565b6040518263ffffffff1660e01b81526004016116539190614fad565b60006040518083038186803b15801561166b57600080fd5b505af415801561167f573d6000803e3d6000fd5b50505050620186a08111156040518060400160405280600f81526020016e53423a2057726f6e672076616c756560881b815250906116d05760405162461bcd60e51b8152600401610bbe919061502e565b5060468190556040518181527fe4166dfcf23bbd3e3f764a99dc8fa740554c03c82d6019b81cf265f396f6f2fe906020015b60405180910390a150565b60006106fe61102460017f22573091f17911fb166032a3d9e0554aa73d31b7b7ddea4a4dd2995650af84bd615346565b60006117476124ee565b60405163124fdbb760e21b815290915073__$ec217c54da363a68ad871e6868efec481c$__9063493f6edc90611781908490600401614fad565b60006040518083038186803b15801561179957600080fd5b505af41580156117ad573d6000803e3d6000fd5b505050506117b9612dad565b50604454600090819073__$166cd655d2cd990700b75f7db5b5f84c53$__9063b24d8db0906001906001600160a01b0316866117f460435490565b6040516001600160e01b031960e087901b16815260048101949094526001600160a01b039283166024850152911660448301526064820152608401600060405180830381865af415801561184c573d6000803e3d6000fd5b505050506040513d6000823e601f3d908101601f1916820160405261187491908101906153b4565b91509150815160020361199f5761188a82612dbf565b5050801561199f57600354600654600754604051638c64d45560e01b81526001600160a01b0384166004820152600160c81b8404600290810b6024830152600160e01b8504810b6044830152600160a01b90940490930b6064840152608483019190915260a482015273__$166cd655d2cd990700b75f7db5b5f84c53$__90638c64d4559060c401606060405180830381865af415801561192f573d6000803e3d6000fd5b505050506040513d601f19601f820116820180604052508101906119539190615416565b600580546001600160801b0319166001600160801b03929092169190911790556004805465ffffffffffff1916630100000062ffffff9384160262ffffff191617929091169190911790555b60008060008073__$166cd655d2cd990700b75f7db5b5f84c53$__63915a3eb46001604080518363ffffffff1660e01b81526004016119e8929190918252602082015260400190565b608060405180830381865af4158015611a05573d6000803e3d6000fd5b505050506040513d601f19601f82011682018060405250810190611a29919061545e565b60015493975091955093509150611a4a906001600160a01b03168585612eba565b600254611a61906001600160a01b03168383612eba565b611a69612ef4565b5050505050505050565b6000611ac66040518061010001604052806000815260200160006001600160a01b031681526020016060815260200160008152602001600081526020016060815260200160608152602001600081525090565b6044546001600160a01b0316602080830182905260408051808201909152600a81526914d08e8811195b9a595960b21b91810191909152903314611b1d5760405162461bcd60e51b8152600401610bbe919061502e565b50611b2784612f08565b606083018190526040808401929092528151808301909252600f82526e53423a2057726f6e672076616c756560881b602083015219611b795760405162461bcd60e51b8152600401610bbe919061502e565b506040808201515182526001600160a01b038516600090815260208290522054608082015280516001600160401b03811115611bb757611bb7615041565b604051908082528060200260200182016040528015611be0578160200160208202803683370190505b5060a082015280516001600160401b03811115611bff57611bff615041565b604051908082528060200260200182016040528015611c28578160200160208202803683370190505b5060c08201526080810151831115611c9f57611c42612f27565b60e0820181905215611c9f57611c5b8160e00151612f3d565b60a0820181905260e08201516040517faebc771af58936b05e89b0be7d3f9761480181abcd4a649fbdd01753fda1697092611c969291615494565b60405180910390a15b828160a00151826060015181518110611cba57611cba615313565b60200260200101518260800151611cd191906152b7565b1015611e535773__$e930d50fb5f4f1298547dbcb2bb0591990$__63749e2cd18260a00151836060015181518110611d0b57611d0b615313565b60200260200101518360800151611d2291906152b7565b611d2c9086615346565b60408401516060850151603d5460a087015160208801516001600160a01b0390921691611d576124ee565b6001600160a01b0316634046ebae6040518163ffffffff1660e01b8152600401602060405180830381865afa158015611d94573d6000803e3d6000fd5b505050506040513d601f19601f82011682018060405250810190611db89190615329565b6001600160a01b038d16600090815260456020526040902054611ddd61012c806152b7565b604080518b63ffffffff1660e01b8152600401611e039a999897969594939291906154e6565b600060405180830381865af4158015611e20573d6000803e3d6000fd5b505050506040513d6000823e601f3d908101601f19168201604052611e489190810190615560565b60a083015260c08201525b611e8d8160a00151826060015181518110611e7057611e70615313565b60200260200101518260800151611e8791906152b7565b84612d06565b6020820151909250611eaa906001600160a01b03861690846126d2565b611ed081604001518260a001518360c00151846060015186611ecb906155b9565b6130f7565b7f178d2d6770c9dbd24f8d3e4dc08998cad5a42857f107435518f65c761e253bcc8483604051611f019291906152fa565b60405180910390a15092915050565b8151815160408051808201909152600d81526c54532d3139206c656e6774687360981b6020820152908214611f585760405162461bcd60e51b8152600401610bbe919061502e565b5060005b81811015611feb57828181518110611f7657611f76615313565b6020026020010151600014611fe357611fe3848281518110611f9a57611f9a615313565b6020026020010151848381518110611fb457611fb4615313565b6020026020010151611fde878581518110611fd157611fd1615313565b60200260200101516131a5565b613215565b600101611f5c565b50610f15612ef4565b60006106fe61102460017fbfaaa2fb63266ff27c2da975f5894955056f50419af651a81f6c5060581857e4615346565b60448054604051635ca1bcdf60e01b8152600160048201526001600160a01b03909116602482015260009173__$166cd655d2cd990700b75f7db5b5f84c53$__91635ca1bcdf91015b602060405180830381865af415801561208a573d6000803e3d6000fd5b505050506040513d601f19601f820116820180604052508101906106fe91906155d5565b603e5460405163201de59f60e01b815260009173__$ec217c54da363a68ad871e6868efec481c$__9163201de59f916120f5916001600160a01b0390911690600401614fad565b60006040518083038186803b15801561210d57600080fd5b505af4158015612121573d6000803e3d6000fd5b5050603d546040516370a0823160e01b81526001600160a01b0390911692506000915082906370a082319061215a903090600401614fad565b602060405180830381865afa158015612177573d6000803e3d6000fd5b505050506040513d601f19601f8201168201806040525081019061219b9190615288565b90506121a8828683613215565b80156121bb576121b881856132c3565b92505b6040518181527f94bcfc9a8eba5229c2956ccb1858733fce588bc02145ac053c40b9827a33837f9060200160405180910390a1505092915050565b60006122006124ee565b6001600160a01b0316826001600160a01b0316149050919050565b6003546001600160a01b031633146122675760405162461bcd60e51b815260206004820152600f60248201526e31b0b6363130b1b59031b0b63632b960891b6044820152606401610bbe565b83156122b4576004546122b49033908690600160481b900460ff16612297576001546001600160a01b03166122a4565b6002546001600160a01b03165b6001600160a01b031691906126d2565b8215610f1557600454610f159033908590600160481b900460ff166122e4576002546001600160a01b03166122a4565b6001546001600160a01b031691906126d2565b604051631a2d761b60e11b815260016004820152600090819073__$166cd655d2cd990700b75f7db5b5f84c53$__9063345aec36906024016040805180830381865af415801561234b573d6000803e3d6000fd5b505050506040513d601f19601f8201168201806040525081019061116e91906155f2565b73__$ec217c54da363a68ad871e6868efec481c$__63ac1d8b356123916124ee565b6040518263ffffffff1660e01b81526004016123ad9190614fad565b60006040518083038186803b1580156123c557600080fd5b505af41580156123d9573d6000803e3d6000fd5b50505050620186a08111156040518060400160405280600c81526020016b0a6847440a8dede40d0d2ced60a31b815250906124275760405162461bcd60e51b8152600401610bbe919061502e565b50603f5460408051918252602082018390527f89979f75740477f1609671a960c1f57e40a47e58bdf1623bc683d806fb6407e5910160405180910390a1603f55565b6000816001600160a01b031661247d6124ee565b6001600160a01b0316635aa6e6756040518163ffffffff1660e01b8152600401602060405180830381865afa1580156124ba573d6000803e3d6000fd5b505050506040513d601f19601f820116820180604052508101906124de9190615329565b6001600160a01b03161492915050565b60006106fe61102460017f5165972ef41194f06c5007493031d0b927c20741adcb74403b954009fd2c3618615346565b60095460035460048054604051632beacd5760e11b815260ff9094161515918401919091526001600160a01b0382166024840152600160c81b8204600290810b6044850152600160e01b8304810b6064850152600160a01b909204820b6084840152600160301b9004900b60a482015260009073__$166cd655d2cd990700b75f7db5b5f84c53$__906357d59aae9060c40161206d565b60006001600160e01b0319821663c19fa56160e01b148061072857506107288261344f565b6000806000806125ea6001613484565b925090506125fb60006001836134bf565b909590945091925050565b6001600160a01b03821660009081526040602081815291819020548151808301909252600f82526e53423a2057726f6e672076616c756560881b92820192909252828210156126685760405162461bcd60e51b8152600401610bbe919061502e565b506126738282615346565b6001600160a01b0384166000908152604060208190529020557fd1e935d17de6dcfd3ffb4f6d06f977c837be28001308e04923722e32d1863c7d836126b7836155b9565b6040516126c59291906152fa565b60405180910390a1505050565b6127288363a9059cbb60e01b84846040516024016126f19291906152fa565b60408051601f198184030181529190526020810180516001600160e01b03166001600160e01b031990931692909217909152613902565b505050565b600054610100900460ff166127545760405162461bcd60e51b8152600401610bbe90615616565b60408051808201909152601181527054532d31207a65726f206164647265737360781b60208201526001600160a01b0384166127a35760405162461bcd60e51b8152600401610bbe919061502e565b50600380546001600160a01b0319166001600160a01b038581169182179092556004805468ffffff0000000000001916600160301b62ffffff861602178155604051630175022560e21b815290810191909152600284810b602483015283900b6044820152908516606482015273__$166cd655d2cd990700b75f7db5b5f84c53$__906305d408949060840160c060405180830381865af415801561284c573d6000803e3d6000fd5b505050506040513d601f19601f820116820180604052508101906128709190615661565b60048054911515600160481b0260ff60481b19909216919091179055600280546001600160a01b039283166001600160a01b031991821617909155600180549390921692169190911790556003805462ffffff948516600160a01b0262ffffff60a01b19948616600160c81b0262ffffff60c81b1996909416600160e01b029590951665ffffffffffff60c81b1990911617919091179190911691909117905550505050565b600054610100900460ff1661293d5760405162461bcd60e51b8152600401610bbe90615616565b61294783836139d4565b604480546001600160a01b0319166001600160a01b03929092169190911790555050565b603d5460009081908190612987906001600160a01b0316612f08565b9150915073__$e930d50fb5f4f1298547dbcb2bb0591990$__636e32b87b836129b66129b1612f27565b613bfd565b604454604080516001600160e01b031960e087901b1681526129ea94939288926001600160a01b03909116916004016156da565b602060405180830381865af4158015612a07573d6000803e3d6000fd5b505050506040513d601f19601f82011682018060405250810190612a2b9190615288565b9250505090565b600080612a3d613cd7565b6044549193509150600090819073__$e930d50fb5f4f1298547dbcb2bb0591990$__906320138ba5906001600160a01b0316612a77613e64565b8787604080518663ffffffff1660e01b8152600401612a9a959493929190615726565b600060405180830381865af4158015612ab7573d6000803e3d6000fd5b505050506040513d6000823e601f3d908101601f19168201604052612adf9190810190615783565b815191935091508015610fed576000806000612afb8686613ef8565b925092509250612b1186848460001960006130f7565b603d548351612b45916001600160a01b031690859087908110612b3657612b36615313565b60200260200101516000612eba565b73__$8f1afe7577f9ab973017c74eca19b86f3c$__63acf741a3612b676124ee565b603e546040516001600160e01b031960e085901b168152612b9992916001600160a01b0316908b908790600401615830565b60006040518083038186803b158015612bb157600080fd5b505af4158015612bc5573d6000803e3d6000fd5b505050505050505050505050565b604354600090819081612be4612ef4565b90506000612bf06140fb565b91965094509050612c03838387876141b1565b9095509350858015612c2f5750620186a082604654612c22919061586e565b612c2c9190615885565b81115b15612c84576000612c4082846152b7565b9050612c4d8260006132c3565b50603d54612c7d908290612c69906001600160a01b03166131a5565b604354612c7691906152b7565b88886141b1565b9096509450505b505050915091565b600080600080612c9c6001613484565b60408051808201909152601481527354532d3138206e6f20696e766573746d656e747360601b602082015290935090915081612ceb5760405162461bcd60e51b8152600401610bbe919061502e565b50612cf8856000836134bf565b909690955091935090915050565b6000818310612d155781612d17565b825b9392505050565b6000612d28612dad565b90507f768a28cb3459382a3d2173feb2dad0235f8de680b109872da581a3aa269fe5f481604051612d5991906158a7565b60405180910390a1603d546000908190612d7b906001600160a01b0316612f08565b91509150600080612d8c84846141f9565b91509150612d9d84868386866130f7565b612da5612ef4565b505050505050565b60606106fe612dba612f27565b612f3d565b60035460048054604051638008936760e01b815260609360009373__$166cd655d2cd990700b75f7db5b5f84c53$__93638008936793612e41936001600160a01b03811693600160c81b8204600290810b94600160e01b909304900b928b92600160501b81046001600160801b031692600160481b90910460ff1691016158ba565b600060405180830381865af4158015612e5e573d6000803e3d6000fd5b505050506040513d6000823e601f3d908101601f19168201604052612e869190810190615910565b600480546001600160801b03909216600160501b02600160501b600160d01b03199092169190911790559094909350915050565b80821115612ed95761272883612ed08385615346565b611fde866131a5565b818111156127285761272883612eef8484615346565b612606565b6000612efe61296b565b6043819055919050565b60606000612f14613e64565b9150612f2082846142a7565b9050915091565b600454600160501b90046001600160801b031690565b6060600080612f4a6122f7565b915091508160016005016000828254612f6391906152b7565b909155505060078054829190600090612f7d9084906152b7565b9250508190555073__$166cd655d2cd990700b75f7db5b5f84c53$__6333fdd81d600160020160009054906101000a90046001600160a01b0316600160020160199054906101000a900460020b6001600201601c9054906101000a900460020b600160030160009054906101000a900460020b600160030160039054906101000a900460020b6001600301600a9054906101000a90046001600160801b0316600160040160009054906101000a90046001600160801b03168c600160030160099054906101000a900460ff166040518a63ffffffff1660e01b815260040161306d9998979695949392919061595d565b600060405180830381865af415801561308a573d6000803e3d6000fd5b505050506040513d6000823e601f3d908101601f191682016040526130b291908101906159bc565b600580546001600160801b0319166001600160801b0392831617905560048054600160501b600160d01b031916600160501b9390921692909202179055949350505050565b845160005b81811015610e3557600086828151811061311857613118615313565b60200260200101519050600086838151811061313657613136615313565b602002602001015190508583036131775760008513156131615761315a85836152b7565b9150613177565b61316a856155b9565b61317490826152b7565b90505b61319b89848151811061318c5761318c615313565b60200260200101518383612eba565b50506001016130fc565b6040516370a0823160e01b81526000906001600160a01b038316906370a08231906131d4903090600401614fad565b602060405180830381865afa1580156131f1573d6000803e3d6000fd5b505050506040513d601f19601f820116820180604052508101906107289190615288565b6001600160a01b0383166000908152604060208190528120805484929061323d9084906152b7565b90915550506040517fd1e935d17de6dcfd3ffb4f6d06f977c837be28001308e04923722e32d1863c7d9061327490859085906152fa565b60405180910390a160408051808201909152600f81526e53423a2057726f6e672076616c756560881b602082015282821015610f155760405162461bcd60e51b8152600401610bbe919061502e565b6000806132cf83613484565b604654909350909150620186a0906132e890839061586e565b6132f29190615885565b8411156134485760095460ff161561339c57604080516002808252606082018352600092602083019080368337019050509050848160008151811061333957613339615313565b6020026020010181815250507f59400c8c523464b521238ea8f50e923f2bc64663557e6afec92a97f7efe92d058182604051613376929190615a02565b60405180910390a1600154613396906001600160a01b0316866000612eba565b5061343e565b603d5460009081906133b6906001600160a01b0316612f08565b6044549193509150600090819081906133da906001600160a01b03168a8787614305565b92509250925060006133eb84612dbf565b5090507f59400c8c523464b521238ea8f50e923f2bc64663557e6afec92a97f7efe92d05848260405161341f929190615a02565b60405180910390a161343786848388611ecb876155b9565b5050505050505b613446612ef4565b505b5092915050565b60006001600160e01b0319821663b7b79fa960e01b148061072857506301ffc9a760e01b6001600160e01b0319831614610728565b604354600090819083613497578061349f565b61349f612ef4565b9250836134ad5760006134b7565b6134b78184615a30565b915050915091565b60008083806134cd57508415155b80156134d857508215155b156138f35760006134e7613e64565b603d549091506001600160a01b0316600061350283836142a7565b6044546040805160c081019091529192506001600160a01b03169060009080613529614556565b8152602001613536612f27565b8152602001613543612f27565b81526000602082015260408051637a55caf360e01b81526001600160a01b0380871660048301528816602482015291019073__$e930d50fb5f4f1298547dbcb2bb0591990$__90637a55caf390604401602060405180830381865af41580156135b0573d6000803e3d6000fd5b505050506040513d601f19601f820116820180604052508101906135d49190615288565b81526020016000604051908082528060200260200182016040528015613604578160200160208202803683370190505b509052905073__$e930d50fb5f4f1298547dbcb2bb0591990$__63d361fe128a61362e578b613631565b60005b6040308988888f89604001516040518963ffffffff1660e01b8152600401613660989796959493929190615a50565b600060405180830381865af415801561367d573d6000803e3d6000fd5b505050506040513d6000823e601f3d908101601f191682016040526136a59190810190615aac565b60a0830152606080830182905290600090156137bc576136c88360600151612f3d565b91507faebc771af58936b05e89b0be7d3f9761480181abcd4a649fbdd01753fda169708360600151836040516136ff929190615494565b60405180910390a173__$e930d50fb5f4f1298547dbcb2bb0591990$__632374491584600001518560400151866060015187602001518860a001518d8c8c613745612f27565b8c6040518b63ffffffff1660e01b815260040161376b9a99989796959493929190615ae8565b600060405180830381865af4158015613788573d6000803e3d6000fd5b505050506040513d6000823e601f3d908101601f191682016040526137b09190810190615aac565b60a0850152905061388c565b73__$e930d50fb5f4f1298547dbcb2bb0591990$__63bc846df28887878b516001600160401b038111156137f2576137f2615041565b60405190808252806020026020018201604052801561381b578160200160208202803683370190505b508860a001516040518663ffffffff1660e01b8152600401613841959493929190615b7a565b600060405180830381865af415801561385e573d6000803e3d6000fd5b505050506040513d6000823e601f3d908101601f191682016040526138869190810190615bd5565b90925090505b60008061389f89888760a00151896145d1565b915091506138b08985838a866130f7565b6138b8612ef4565b50670de0b6b3a76400008560800151846138d2919061586e565b6138dc9190615885565b85608001519a509a505050505050505050506138fa565b5060009050805b935093915050565b6000613957826040518060400160405280602081526020017f5361666545524332303a206c6f772d6c6576656c2063616c6c206661696c6564815250856001600160a01b031661470e9092919063ffffffff16565b805190915015612728578080602001905181019061397591906155d5565b6127285760405162461bcd60e51b815260206004820152602a60248201527f5361666545524332303a204552433230206f7065726174696f6e20646964206e6044820152691bdd081cdd58d8d9595960b21b6064820152608401610bbe565b600054610100900460ff166139fb5760405162461bcd60e51b8152600401610bbe90615616565b613a25817fd2de0374d4479f33e63ae5ed6ca772a10463dd883a90c612050b51fab6196400614725565b613a2e8261477f565b60405163b429afeb60e01b81526001600160a01b0382169063b429afeb90613a5a908590600401614fad565b602060405180830381865afa158015613a77573d6000803e3d6000fd5b505050506040513d601f19601f82011682018060405250810190613a9b91906155d5565b6040518060400160405280600f81526020016e53423a2057726f6e672076616c756560881b81525090613ae15760405162461bcd60e51b8152600401610bbe919061502e565b50806001600160a01b03166338d52e0f6040518163ffffffff1660e01b8152600401602060405180830381865afa158015613b20573d6000803e3d6000fd5b505050506040513d601f19601f82011682018060405250810190613b449190615329565b603d80546001600160a01b03199081166001600160a01b0393841617909155603e805490911683831617905560408051635aa6e67560e01b8152905191841691635aa6e675916004808201926020929091908290030181865afa158015613baf573d6000803e3d6000fd5b505050506040513d601f19601f82011682018060405250810190613bd39190615329565b604180546001600160a01b0319166001600160a01b03929092169190911790555050612710604255565b6003546004805460055460405163c68bc70360e01b815260609473__$166cd655d2cd990700b75f7db5b5f84c53$__9463c68bc70394613c92946001600160a01b03841694600160c81b8504600290810b95600160e01b9004810b9484820b946301000000810490920b93600160501b83046001600160801b03908116949116928e92600160481b90910460ff16910161595d565b600060405180830381865af4158015613caf573d6000803e3d6000fd5b505050506040513d6000823e601f3d908101601f191682016040526107289190810190615c1b565b60035460048054600654600754604051630117844f60e61b81526001600160a01b03861694810194909452600160c81b8504600290810b6024860152600160e01b909504850b604485015282850b60648501526301000000830490940b608484015260a483015260c4820192909252600160481b90910460ff16151560e4820152606090819073__$166cd655d2cd990700b75f7db5b5f84c53$__906345e113c09061010401600060405180830381865af4158015613d9a573d6000803e3d6000fd5b505050506040513d6000823e601f3d908101601f19168201604052613dc29190810190615c1b565b600060068190556007556040805160028082526060820183529293509190602083019080368337505060015482519294506001600160a01b031691849150600090613e0f57613e0f615313565b6001600160a01b039283166020918202929092010152600254835191169083906001908110613e4057613e40615313565b60200260200101906001600160a01b031690816001600160a01b0316815250509091565b6040805160028082526060808301845292602083019080368337505060015482519293506001600160a01b031691839150600090613ea457613ea4615313565b6001600160a01b039283166020918202929092010152600254825191169082906001908110613ed557613ed5615313565b60200260200101906001600160a01b031690816001600160a01b03168152505090565b60425460415460405163217cfb2b60e21b815260609283928392600092839273__$8f1afe7577f9ab973017c74eca19b86f3c$__926385f3ecac92613f519290916001600160a01b03909116908c908c90600401615c4f565b600060405180830381865af4158015613f6e573d6000803e3d6000fd5b505050506040513d6000823e601f3d908101601f19168201604052613f969190810190615560565b603d54603f5492945090925073__$e930d50fb5f4f1298547dbcb2bb0591990$__91630f5103ff916001600160a01b031690613fd0613e64565b613fd86124ee565b6001600160a01b0316634046ebae6040518163ffffffff1660e01b8152600401602060405180830381865afa158015614015573d6000803e3d6000fd5b505050506040513d601f19601f820116820180604052508101906140399190615329565b604560408e8a6040518963ffffffff1660e01b8152600401614062989796959493929190615c79565b600060405180830381865af415801561407f573d6000803e3d6000fd5b505050506040513d6000823e601f3d908101601f191682016040526140a79190810190615cf2565b60405192975090955093507f9ed62bee08ffc98e5efa3255527e36fba3f5fa16b944a4bfad646bcf592acc4a906140e79089908890889088908790615d79565b60405180910390a150509250925092565b50565b60405163232421d960e01b8152600160048201526000908190819073__$166cd655d2cd990700b75f7db5b5f84c53$__9063232421d990602401602060405180830381865af4158015614152573d6000803e3d6000fd5b505050506040513d601f19601f820116820180604052508101906141769190615288565b9250614180612a32565b603d54614195906001600160a01b03166131a5565b600854909150156141ac5760088054600090915591505b909192565b600080858511156141d7576141c68686615346565b6141d090856152b7565b93506141ee565b6141e18587615346565b6141eb90846152b7565b92505b509194909350915050565b60006060600073__$8f1afe7577f9ab973017c74eca19b86f3c$__6397783a6c86866040518363ffffffff1660e01b8152600401614238929190615df8565b600060405180830381865af4158015614255573d6000803e3d6000fd5b505050506040513d6000823e601f3d908101601f1916820160405261427d9190810190615c1b565b60445490915061429b908690869084906001600160a01b03166145d1565b90969095509350505050565b8151600090815b818110156142f957836001600160a01b03168582815181106142d2576142d2615313565b60200260200101516001600160a01b0316036142f15791506107289050565b6001016142ae565b50600019949350505050565b6040805160028082526060828101909352829160009181602001602082028036833750506040805160028082526060820183529396509291506020830190803683370190505060035460048054604051630302c45560e41b81526001600160a01b03841692810192909252600160c81b8304600290810b6024840152600160e01b8404810b6044840152600160a01b90930490920b6064820152600160481b90910460ff161515608482015290925060009073__$166cd655d2cd990700b75f7db5b5f84c53$__9063302c45509060a401600060405180830381865af41580156143f3573d6000803e3d6000fd5b505050506040513d6000823e601f3d908101601f1916820160405261441b9190810190615e1a565b600154909150614435906001600160a01b0316888a6149a2565b60015460025460405163ca27d10d60e01b815273__$e930d50fb5f4f1298547dbcb2bb0591990$__9263ca27d10d92614488928d9287926001600160a01b03918216929116908e90600090600401615ead565b6040805180830381865af41580156144a4573d6000803e3d6000fd5b505050506040513d601f19601f820116820180604052508101906144c891906155f2565b846001815181106144db576144db615313565b602090810291909101015291506144f28288615346565b8460008151811061450557614505615313565b6020026020010181815250508260018151811061452457614524615313565b60200260200101518460018151811061453f5761453f615313565b602002602001018181525050509450945094915050565b604051630a65e5e760e01b81526001600482015260609073__$166cd655d2cd990700b75f7db5b5f84c53$__90630a65e5e790602401600060405180830381865af41580156145a9573d6000803e3d6000fd5b505050506040513d6000823e601f3d908101601f191682016040526106fe9190810190615c1b565b6000606073__$e930d50fb5f4f1298547dbcb2bb0591990$__637047292d846145f86124ee565b6001600160a01b0316634046ebae6040518163ffffffff1660e01b8152600401602060405180830381865afa158015614635573d6000803e3d6000fd5b505050506040513d601f19601f820116820180604052508101906146599190615329565b604560008b8b8151811061466f5761466f615313565b60200260200101516001600160a01b03166001600160a01b03168152602001908152602001600020548a8a8a6040518763ffffffff1660e01b81526004016146bc96959493929190615ef5565b600060405180830381865af41580156146d9573d6000803e3d6000fd5b505050506040513d6000823e601f3d908101601f191682016040526147019190810190615aac565b9150915094509492505050565b606061471d8484600085614a48565b949350505050565b61472f8282614b23565b61477b5760405162461bcd60e51b815260206004820152601a60248201527f496e74657266616365206973206e6f7420737570706f727465640000000000006044820152606401610bbe565b5050565b600054610100900460ff166147a65760405162461bcd60e51b8152600401610bbe90615616565b6001600160a01b0381166147ee5760405162461bcd60e51b815260206004820152600f60248201526e2d32b9379031b7b73a3937b63632b960891b6044820152606401610bbe565b614818817f4c2403fdcb3cff9b705d96bf0705858e3390412670a62c8bcba611ca7e20ab86614725565b60006001600160a01b0316816001600160a01b0316635aa6e6756040518163ffffffff1660e01b8152600401602060405180830381865afa158015614861573d6000803e3d6000fd5b505050506040513d601f19601f820116820180604052508101906148859190615329565b6001600160a01b0316036148cd5760405162461bcd60e51b815260206004820152600f60248201526e5a65726f20676f7665726e616e636560881b6044820152606401610bbe565b6148fc8161123160017f5165972ef41194f06c5007493031d0b927c20741adcb74403b954009fd2c3618615346565b61492b4261123160017f6f55f470bdc9cb5f04223fd822021061668e4dccb43e8727b295106dc9769c8b615346565b61495a4361123160017f812a673dfca07956350df10f8a654925f561d7a0da09bdbe79e653939a14d9f1615346565b604080516001600160a01b038316815242602082015243918101919091527f1a2dd071001ebf6e03174e3df5b305795a4ad5d41d8fdb9ba41dbbe23671342690606001611702565b604051636eb1769f60e11b81523060048201526001600160a01b03828116602483015283919085169063dd62ed3e90604401602060405180830381865afa1580156149f1573d6000803e3d6000fd5b505050506040513d601f19601f82011682018060405250810190614a159190615288565b101561272857614a306001600160a01b038416826000614c01565b6127286001600160a01b03841682600160ff1b614c01565b606082471015614aa95760405162461bcd60e51b815260206004820152602660248201527f416464726573733a20696e73756666696369656e742062616c616e636520666f6044820152651c8818d85b1b60d21b6064820152608401610bbe565b600080866001600160a01b03168587604051614ac59190615f4d565b60006040518083038185875af1925050503d8060008114614b02576040519150601f19603f3d011682016040523d82523d6000602084013e614b07565b606091505b5091509150614b1887838387614d05565b979650505050505050565b60006001600160a01b038316614b6a5760405162461bcd60e51b815260206004820152600c60248201526b5a65726f206164647265737360a01b6044820152606401610bbe565b823b6000819003614b7f576000915050610728565b6040516301ffc9a760e01b81526001600160e01b0319841660048201526001600160a01b038516906301ffc9a790602401602060405180830381865afa925050508015614be9575060408051601f3d908101601f19168201909252614be6918101906155d5565b60015b15614bf75791506107289050565b5060009392505050565b801580614c7b5750604051636eb1769f60e11b81523060048201526001600160a01b03838116602483015284169063dd62ed3e90604401602060405180830381865afa158015614c55573d6000803e3d6000fd5b505050506040513d601f19601f82011682018060405250810190614c799190615288565b155b614ce65760405162461bcd60e51b815260206004820152603660248201527f5361666545524332303a20617070726f76652066726f6d206e6f6e2d7a65726f60448201527520746f206e6f6e2d7a65726f20616c6c6f77616e636560501b6064820152608401610bbe565b6127288363095ea7b360e01b84846040516024016126f19291906152fa565b60608315614d74578251600003614d6d576001600160a01b0385163b614d6d5760405162461bcd60e51b815260206004820152601d60248201527f416464726573733a2063616c6c20746f206e6f6e2d636f6e74726163740000006044820152606401610bbe565b508161471d565b61471d8383815115614d895781518083602001fd5b8060405162461bcd60e51b8152600401610bbe919061502e565b600060208284031215614db557600080fd5b81356001600160e01b031981168114612d1757600080fd5b6001600160a01b03811681146140f857600080fd5b60008060408385031215614df557600080fd5b8235614e0081614dcd565b946020939093013593505050565b600081518084526020808501945080840160005b83811015614e3e57815187529582019590820190600101614e22565b509495945050505050565b6001600160a01b038c811682528b811660208301528a166040820152600289810b606083015288810b608083015287810b60a083015286900b60c08201526001600160801b03851660e082015283151561010082015261012081018390526101606101408201819052600090614ec183820185614e0e565b9e9d5050505050505050505050505050565b60008060408385031215614ee657600080fd5b823591506020830135614ef881614dcd565b809150509250929050565b8060020b81146140f857600080fd5b60008060008060008060c08789031215614f2b57600080fd5b8635614f3681614dcd565b95506020870135614f4681614dcd565b94506040870135614f5681614dcd565b93506060870135614f6681614dcd565b92506080870135614f7681614f03565b915060a0870135614f8681614f03565b809150509295509295509295565b600060208284031215614fa657600080fd5b5035919050565b6001600160a01b0391909116815260200190565b600060208284031215614fd357600080fd5b8135612d1781614dcd565b60005b83811015614ff9578181015183820152602001614fe1565b50506000910152565b6000815180845261501a816020860160208601614fde565b601f01601f19169290920160200192915050565b602081526000612d176020830184615002565b634e487b7160e01b600052604160045260246000fd5b604051601f8201601f191681016001600160401b038111828210171561507f5761507f615041565b604052919050565b60006001600160401b038211156150a0576150a0615041565b5060051b60200190565b600082601f8301126150bb57600080fd5b813560206150d06150cb83615087565b615057565b82815260059290921b840181019181810190868411156150ef57600080fd5b8286015b8481101561510a57803583529183019183016150f3565b509695505050505050565b6000806040838503121561512857600080fd5b82356001600160401b038082111561513f57600080fd5b818501915085601f83011261515357600080fd5b813560206151636150cb83615087565b82815260059290921b8401810191818101908984111561518257600080fd5b948201945b838610156151a957853561519a81614dcd565b82529482019490820190615187565b965050860135925050808211156151bf57600080fd5b506151cc858286016150aa565b9150509250929050565b80151581146140f857600080fd5b600080604083850312156151f757600080fd5b823591506020830135614ef8816151d6565b6000806000806060858703121561521f57600080fd5b843593506020850135925060408501356001600160401b038082111561524457600080fd5b818701915087601f83011261525857600080fd5b81358181111561526757600080fd5b88602082850101111561527957600080fd5b95989497505060200194505050565b60006020828403121561529a57600080fd5b5051919050565b634e487b7160e01b600052601160045260246000fd5b80820180821115610728576107286152a1565b6001600160a01b039586168152602081019490945260408401929092526060830152909116608082015260a00190565b6001600160a01b03929092168252602082015260400190565b634e487b7160e01b600052603260045260246000fd5b60006020828403121561533b57600080fd5b8151612d1781614dcd565b81810381811115610728576107286152a1565b600082601f83011261536a57600080fd5b8151602061537a6150cb83615087565b82815260059290921b8401810191818101908684111561539957600080fd5b8286015b8481101561510a578051835291830191830161539d565b600080604083850312156153c757600080fd5b82516001600160401b038111156153dd57600080fd5b6153e985828601615359565b9250506020830151614ef8816151d6565b80516001600160801b038116811461541157600080fd5b919050565b60008060006060848603121561542b57600080fd5b835161543681614f03565b602085015190935061544781614f03565b9150615455604085016153fa565b90509250925092565b6000806000806080858703121561547457600080fd5b505082516020840151604085015160609095015191969095509092509050565b82815260406020820152600061471d6040830184614e0e565b600081518084526020808501945080840160005b83811015614e3e5781516001600160a01b0316875295820195908201906001016154c1565b60006101408c83528060208401526155008184018d6154ad565b604084018c90526001600160a01b038b81166060860152848203608086015290915061552c828b614e0e565b98811660a08501529690961660c08301525060e0810193909352610100830191909152610120909101525095945050505050565b6000806040838503121561557357600080fd5b82516001600160401b038082111561558a57600080fd5b61559686838701615359565b935060208501519150808211156155ac57600080fd5b506151cc85828601615359565b6000600160ff1b82016155ce576155ce6152a1565b5060000390565b6000602082840312156155e757600080fd5b8151612d17816151d6565b6000806040838503121561560557600080fd5b505080516020909101519092909150565b6020808252602b908201527f496e697469616c697a61626c653a20636f6e7472616374206973206e6f74206960408201526a6e697469616c697a696e6760a81b606082015260800190565b60008060008060008060c0878903121561567a57600080fd5b865161568581614f03565b602088015190965061569681614f03565b60408801519095506156a781614f03565b60608801519094506156b881614dcd565b60808801519093506156c981614dcd565b60a0880151909250614f86816151d6565b60a0815260006156ed60a08301886154ad565b82810360208401526156ff8188614e0e565b604084019690965250506001600160a01b0392909216606083015260809091015292915050565b6001600160a01b038616815260a06020820181905260009061574a908301876154ad565b828103604084015261575c81876154ad565b905082810360608401526157708186614e0e565b9150508260808301529695505050505050565b6000806040838503121561579657600080fd5b82516001600160401b03808211156157ad57600080fd5b818501915085601f8301126157c157600080fd5b815160206157d16150cb83615087565b82815260059290921b840181019181810190898411156157f057600080fd5b948201945b8386101561581757855161580881614dcd565b825294820194908201906157f5565b918801519196509093505050808211156155ac57600080fd5b6001600160a01b0385811682528416602082015260806040820181905260009061585c908301856154ad565b8281036060840152614b188185614e0e565b8082028115828204841417610728576107286152a1565b6000826158a257634e487b7160e01b600052601260045260246000fd5b500490565b602081526000612d176020830184614e0e565b60018060a01b03871681528560020b60208201528460020b604082015260c0606082015260006158ed60c0830186614e0e565b6001600160801b039490941660808301525090151560a090910152949350505050565b60008060006060848603121561592557600080fd5b83516001600160401b0381111561593b57600080fd5b61594786828701615359565b93505060208401519150615455604085016153fa565b6001600160a01b03999099168952600297880b60208a015295870b604089015293860b60608801529190940b60808601526001600160801b0393841660a0860152831660c085015290911660e083015215156101008201526101200190565b6000806000606084860312156159d157600080fd5b83516001600160401b038111156159e757600080fd5b6159f386828701615359565b935050615447602085016153fa565b604081526000615a156040830185614e0e565b8281036020840152615a278185614e0e565b95945050505050565b8181036000831280158383131683831282161715613448576134486152a1565b888152602081018890526001600160a01b03878116604083015261010060608301819052600091615a838483018a6154ad565b60808501989098529590951660a08301525060c081019290925260e09091015250949350505050565b60008060408385031215615abf57600080fd5b8251915060208301516001600160401b03811115615adc57600080fd5b6151cc85828601615359565b6000610140808352615afc8184018e614e0e565b90508b60208401528a60408401528960608401528281036080840152615b22818a614e0e565b905082810360a0840152615b3681896154ad565b60c084018890526001600160a01b03871660e085015261010084018690528381036101208501529050615b698185614e0e565b9d9c50505050505050505050505050565b60a081526000615b8d60a08301886154ad565b602083018790526001600160a01b03861660408401528281036060840152615bb58186614e0e565b90508281036080840152615bc98185614e0e565b98975050505050505050565b60008060408385031215615be857600080fd5b82516001600160401b03811115615bfe57600080fd5b615c0a85828601615359565b925050602083015190509250929050565b600060208284031215615c2d57600080fd5b81516001600160401b03811115615c4357600080fd5b61471d84828501615359565b8481526001600160a01b038416602082015260806040820181905260009061585c908301856154ad565b6001600160a01b0389811682526020820189905261010060408301819052600091615ca68483018b6154ad565b91508089166060850152508660808401528560a084015282810360c0840152615ccf81866154ad565b905082810360e0840152615ce38185614e0e565b9b9a5050505050505050505050565b600080600060608486031215615d0757600080fd5b83516001600160401b0380821115615d1e57600080fd5b615d2a87838801615359565b94506020860151915080821115615d4057600080fd5b615d4c87838801615359565b93506040860151915080821115615d6257600080fd5b50615d6f86828701615359565b9150509250925092565b60a0808252865190820181905260009060209060c0840190828a01845b82811015615dbb5781516001600160a01b031684529284019290840190600101615d96565b50505083810382850152615dcf8189614e0e565b9150508281036040840152615de48187614e0e565b90508281036060840152615bb58186614e0e565b604081526000615e0b60408301856154ad565b90508260208301529392505050565b600060208284031215615e2c57600080fd5b81516001600160401b0380821115615e4357600080fd5b818401915084601f830112615e5757600080fd5b815181811115615e6957615e69615041565b615e7c601f8201601f1916602001615057565b9150808252856020828501011115615e9357600080fd5b615ea4816020840160208601614fde565b50949350505050565b600060018060a01b03808916835260c06020840152615ecf60c0840189615002565b9681166040840152949094166060820152608081019290925260a0909101525092915050565b6001600160a01b038781168252861660208201526040810185905260c060608201819052600090615f28908301866154ad565b84608084015282810360a0840152615f408185614e0e565b9998505050505050505050565b60008251615f5f818460208701614fde565b919091019291505056fea2646970667358221220aaf72296ca544dd76462fde8869fc8c9e90fb64c02eccbca74af660c66345d6b64736f6c63430008110033",
  "libraries": {
    "StrategyLib": "0x01AA10927D49d082d0ff1875D6a6228108178bb0",
    "ConverterStrategyBaseLib": "0xd91df94Ada3bA7187eb9637A5B3D82032BF9A8c0",
    "ConverterStrategyBaseLib2": "0x8b3B9714aFe0F4Ff5c7F28e5490D1f8A18957e12",
    "UniswapV3ConverterStrategyLogicLib": "0x0F0693C8E92FF4Cb0eD14306050dA589943cB1Bb"
  },
  "devdoc": {
    "author": "a17",
    "kind": "dev",
    "methods": {
      "claim()": {
        "details": "Manual claim rewards."
      },
      "created()": {
        "returns": {
          "_0": "Creation timestamp"
        }
      },
      "createdBlock()": {
        "returns": {
          "_0": "Creation block number"
        }
      },
      "emergencyExit()": {
        "details": "In case of any issue operator can withdraw all from pool."
      },
      "getFees()": {
        "returns": {
          "fee0": "and fee1."
        }
      },
      "increaseRevision(address)": {
        "details": "Revision should be increased on each contract upgrade"
      },
      "init(address,address,address,address,int24,int24)": {
        "params": {
          "controller_": "The address of the controller.",
          "converter_": "The address of the converter.",
          "pool_": "The address of the pool.",
          "rebalanceTickRange_": "The tick range for rebalancing.",
          "splitter_": "The address of the splitter.",
          "tickRange_": "The tick range for the liquidity position."
        }
      },
      "investAll(uint256,bool)": {
        "params": {
          "amount_": "Amount transferred to the strategy balance just before calling this function",
          "updateTotalAssetsBeforeInvest_": "Recalculate total assets amount before depositing.                                       It can be false if we know exactly, that the amount is already actual."
        },
        "returns": {
          "totalAssetsDelta": "The {strategy} can update its totalAssets amount internally before depositing {amount_}                          Return [totalAssets-before-deposit - totalAssets-before-call-of-investAll]"
        }
      },
      "isController(address)": {
        "details": "Return true if given address is controller"
      },
      "isReadyToHardWork()": {
        "returns": {
          "_0": "A boolean indicating if the strategy is ready for hard work."
        }
      },
      "needRebalance()": {
        "returns": {
          "_0": "A boolean indicating if the strategy needs rebalancing."
        }
      },
      "onTransferAmounts(address[],uint256[])": {
        "params": {
          "amounts_": "Amount of {asset_} that has been sent to the user's balance",
          "assets_": "Any asset sent to the balance, i.e. inside repayTheBorrow"
        }
      },
      "previousImplementation()": {
        "details": "Previous logic implementation"
      },
      "rebalance()": {
        "details": "The rebalancing functionality is the core of this strategy.      Depending on the size of the range of liquidity provided, the Fill-up or Swap method is used.      There is also an attempt to cover rebalancing losses with rewards."
      },
      "requirePayAmountBack(address,uint256)": {
        "params": {
          "amount_": "Required amount of the {theAsset_}",
          "theAsset_": "Required asset (either collateral or borrow)"
        },
        "returns": {
          "amountOut": "Amount sent to balance of TetuConverter, amountOut <= amount_"
        }
      },
      "revision()": {
        "details": "Contract upgrade counter"
      },
      "setCompoundRatio(uint256)": {
        "details": "PlatformVoter can change compound ratio for some strategies.      A strategy can implement another logic for some uniq cases."
      },
      "setFuseThreshold(uint256)": {
        "params": {
          "newFuseThreshold": "The new fuse threshold value."
        }
      },
      "setReinvestThresholdPercent(uint256)": {
        "params": {
          "percent_": "New value of the percent, decimals = {REINVEST_THRESHOLD_PERCENT_DENOMINATOR}"
        }
      },
      "supportsInterface(bytes4)": {
        "details": "See {IERC165-supportsInterface}."
      },
      "totalAssets()": {
        "details": "Total amount of underlying assets under control of this strategy."
      },
      "uniswapV3MintCallback(uint256,uint256,bytes)": {
        "params": {
          "amount0Owed": "The amount of token0 owed to the pool.",
          "amount1Owed": "The amount of token1 owed to the pool."
        }
      },
      "withdrawAllToSplitter()": {
        "details": "Withdraws all underlying assets to the vault",
        "returns": {
          "_0": "Return [totalAssets-before-withdraw - totalAssets-before-call-of-withdrawAllToSplitter]"
        }
      },
      "withdrawToSplitter(uint256)": {
        "details": "Withdraws some assets to the splitter",
        "returns": {
          "totalAssetsDelta": "=[totalAssets-before-withdraw - totalAssets-before-call-of-withdrawAllToSplitter]"
        }
      }
    },
    "title": "Delta-neutral liquidity hedging converter fill-up/swap rebalancing strategy for UniswapV3",
    "version": 1
  },
  "userdoc": {
    "events": {
      "LiquidationThresholdChanged(address,uint256)": {
        "notice": "Events"
      },
      "Recycle(address[],uint256[],uint256[],uint256[],uint256[])": {
        "notice": "Recycle was made"
      },
      "UpdateBaseAmounts(address,int256)": {
        "notice": "{baseAmounts} of {asset} is changed on the {amount} value"
      }
    },
    "kind": "user",
    "methods": {
      "CONTROLLABLE_VERSION()": {
        "notice": "Version of the contract"
      },
      "NAME()": {
        "notice": "CONSTANTS"
      },
      "baseAmounts(address)": {
        "notice": "Balances of not-reward amounts"
      },
      "capacity()": {
        "notice": "Unlimited capacity by default"
      },
      "controller()": {
        "notice": "Return controller address saved in the contract slot"
      },
      "created()": {
        "notice": "Return creation timestamp"
      },
      "createdBlock()": {
        "notice": "Return creation block number"
      },
      "disableFuse()": {
        "notice": "Disable fuse for the strategy."
      },
      "doHardWork()": {
        "notice": "Do hard work"
      },
      "getFees()": {
        "notice": "Returns the fees for the current state."
      },
      "getState()": {
        "notice": "Returns the current state of the contract."
      },
      "init(address,address,address,address,int24,int24)": {
        "notice": "Initialize the strategy with the given parameters."
      },
      "investAll(uint256,bool)": {
        "notice": "Stakes everything the strategy holds into the reward pool."
      },
      "investedAssets()": {
        "notice": "Amount of underlying assets converted to pool assets and invested to the pool."
      },
      "isGovernance(address)": {
        "notice": "Return true if given address is setup as governance in Controller"
      },
      "isReadyToHardWork()": {
        "notice": "Check if the strategy is ready for hard work."
      },
      "liquidationThresholds(address)": {
        "notice": "Minimum token amounts that can be liquidated"
      },
      "needRebalance()": {
        "notice": "Check if the strategy needs rebalancing."
      },
      "onTransferAmounts(address[],uint256[])": {
        "notice": "TetuConverter calls this function when it sends any amount to user's balance"
      },
      "performanceFee()": {
        "notice": "A percent of total profit that is sent to the {performanceReceiver} before compounding"
      },
      "performanceReceiver()": {
        "notice": "{performanceFee}% of total profit is sent to {performanceReceiver} before compounding"
      },
      "reinvestThresholdPercent()": {
        "notice": "Percent of asset amount that can be not invested, it's allowed to just keep it on balance         decimals = {REINVEST_THRESHOLD_PERCENT_DENOMINATOR}"
      },
      "requirePayAmountBack(address,uint256)": {
        "notice": "Converters asks to send some amount back."
      },
      "setFuseThreshold(uint256)": {
        "notice": "Set the fuse threshold for the strategy."
      },
      "setupPerformanceFee(uint256,address)": {
        "notice": "Set performance fee and receiver"
      },
      "uniswapV3MintCallback(uint256,uint256,bytes)": {
        "notice": "Callback function called by Uniswap V3 pool on mint operation."
      }
    },
    "notice": "This strategy provides delta-neutral liquidity hedging for Uniswap V3 pools. It rebalances the liquidity         by utilizing fill-up and swap methods depending on the range size of the liquidity provided.         It also attempts to cover rebalancing losses with rewards.",
    "version": 1
  },
  "storageLayout": {
    "storage": [
      {
        "astId": 1355,
        "contract": "contracts/strategies/uniswap/UniswapV3ConverterStrategy.sol:UniswapV3ConverterStrategy",
        "label": "_initialized",
        "offset": 0,
        "slot": "0",
        "type": "t_uint8"
      },
      {
        "astId": 1358,
        "contract": "contracts/strategies/uniswap/UniswapV3ConverterStrategy.sol:UniswapV3ConverterStrategy",
        "label": "_initializing",
        "offset": 1,
        "slot": "0",
        "type": "t_bool"
      },
      {
        "astId": 20373,
        "contract": "contracts/strategies/uniswap/UniswapV3ConverterStrategy.sol:UniswapV3ConverterStrategy",
        "label": "state",
        "offset": 0,
        "slot": "1",
        "type": "t_struct(State)16766_storage"
      },
      {
        "astId": 20935,
        "contract": "contracts/strategies/uniswap/UniswapV3ConverterStrategy.sol:UniswapV3ConverterStrategy",
        "label": "__gap",
        "offset": 0,
        "slot": "12",
        "type": "t_array(t_uint256)49_storage"
      },
      {
        "astId": 3031,
        "contract": "contracts/strategies/uniswap/UniswapV3ConverterStrategy.sol:UniswapV3ConverterStrategy",
        "label": "asset",
        "offset": 0,
        "slot": "61",
        "type": "t_address"
      },
      {
        "astId": 3035,
        "contract": "contracts/strategies/uniswap/UniswapV3ConverterStrategy.sol:UniswapV3ConverterStrategy",
        "label": "splitter",
        "offset": 0,
        "slot": "62",
        "type": "t_address"
      },
      {
        "astId": 3039,
        "contract": "contracts/strategies/uniswap/UniswapV3ConverterStrategy.sol:UniswapV3ConverterStrategy",
        "label": "compoundRatio",
        "offset": 0,
        "slot": "63",
        "type": "t_uint256"
      },
      {
        "astId": 3044,
        "contract": "contracts/strategies/uniswap/UniswapV3ConverterStrategy.sol:UniswapV3ConverterStrategy",
        "label": "baseAmounts",
        "offset": 0,
        "slot": "64",
        "type": "t_mapping(t_address,t_uint256)"
      },
      {
        "astId": 3048,
        "contract": "contracts/strategies/uniswap/UniswapV3ConverterStrategy.sol:UniswapV3ConverterStrategy",
        "label": "performanceReceiver",
        "offset": 0,
        "slot": "65",
        "type": "t_address"
      },
      {
        "astId": 3052,
        "contract": "contracts/strategies/uniswap/UniswapV3ConverterStrategy.sol:UniswapV3ConverterStrategy",
        "label": "performanceFee",
        "offset": 0,
        "slot": "66",
        "type": "t_uint256"
      },
      {
        "astId": 7492,
        "contract": "contracts/strategies/uniswap/UniswapV3ConverterStrategy.sol:UniswapV3ConverterStrategy",
        "label": "_investedAssets",
        "offset": 0,
        "slot": "67",
        "type": "t_uint256"
      },
      {
        "astId": 7496,
        "contract": "contracts/strategies/uniswap/UniswapV3ConverterStrategy.sol:UniswapV3ConverterStrategy",
        "label": "converter",
        "offset": 0,
        "slot": "68",
        "type": "t_contract(ITetuConverter)4487"
      },
      {
        "astId": 7501,
        "contract": "contracts/strategies/uniswap/UniswapV3ConverterStrategy.sol:UniswapV3ConverterStrategy",
        "label": "liquidationThresholds",
        "offset": 0,
        "slot": "69",
        "type": "t_mapping(t_address,t_uint256)"
      },
      {
        "astId": 7504,
        "contract": "contracts/strategies/uniswap/UniswapV3ConverterStrategy.sol:UniswapV3ConverterStrategy",
        "label": "reinvestThresholdPercent",
        "offset": 0,
        "slot": "70",
        "type": "t_uint256"
      },
      {
        "astId": 9134,
        "contract": "contracts/strategies/uniswap/UniswapV3ConverterStrategy.sol:UniswapV3ConverterStrategy",
        "label": "__gap",
        "offset": 0,
        "slot": "71",
        "type": "t_array(t_uint256)46_storage"
      }
    ],
    "types": {
      "t_address": {
        "encoding": "inplace",
        "label": "address",
        "numberOfBytes": "20"
      },
      "t_array(t_uint256)46_storage": {
        "base": "t_uint256",
        "encoding": "inplace",
        "label": "uint256[46]",
        "numberOfBytes": "1472"
      },
      "t_array(t_uint256)49_storage": {
        "base": "t_uint256",
        "encoding": "inplace",
        "label": "uint256[49]",
        "numberOfBytes": "1568"
      },
      "t_bool": {
        "encoding": "inplace",
        "label": "bool",
        "numberOfBytes": "1"
      },
      "t_contract(ITetuConverter)4487": {
        "encoding": "inplace",
        "label": "contract ITetuConverter",
        "numberOfBytes": "20"
      },
      "t_contract(IUniswapV3Pool)6395": {
        "encoding": "inplace",
        "label": "contract IUniswapV3Pool",
        "numberOfBytes": "20"
      },
      "t_int24": {
        "encoding": "inplace",
        "label": "int24",
        "numberOfBytes": "3"
      },
      "t_mapping(t_address,t_uint256)": {
        "encoding": "mapping",
        "key": "t_address",
        "label": "mapping(address => uint256)",
        "numberOfBytes": "32",
        "value": "t_uint256"
      },
      "t_struct(State)16766_storage": {
        "encoding": "inplace",
        "label": "struct UniswapV3ConverterStrategyLogicLib.State",
        "members": [
          {
            "astId": 16726,
            "contract": "contracts/strategies/uniswap/UniswapV3ConverterStrategy.sol:UniswapV3ConverterStrategy",
            "label": "tokenA",
            "offset": 0,
            "slot": "0",
            "type": "t_address"
          },
          {
            "astId": 16728,
            "contract": "contracts/strategies/uniswap/UniswapV3ConverterStrategy.sol:UniswapV3ConverterStrategy",
            "label": "tokenB",
            "offset": 0,
            "slot": "1",
            "type": "t_address"
          },
          {
            "astId": 16731,
            "contract": "contracts/strategies/uniswap/UniswapV3ConverterStrategy.sol:UniswapV3ConverterStrategy",
            "label": "pool",
            "offset": 0,
            "slot": "2",
            "type": "t_contract(IUniswapV3Pool)6395"
          },
          {
            "astId": 16733,
            "contract": "contracts/strategies/uniswap/UniswapV3ConverterStrategy.sol:UniswapV3ConverterStrategy",
            "label": "tickSpacing",
            "offset": 20,
            "slot": "2",
            "type": "t_int24"
          },
          {
            "astId": 16735,
            "contract": "contracts/strategies/uniswap/UniswapV3ConverterStrategy.sol:UniswapV3ConverterStrategy",
            "label": "fillUp",
            "offset": 23,
            "slot": "2",
            "type": "t_bool"
          },
          {
            "astId": 16737,
            "contract": "contracts/strategies/uniswap/UniswapV3ConverterStrategy.sol:UniswapV3ConverterStrategy",
            "label": "isStablePool",
            "offset": 24,
            "slot": "2",
            "type": "t_bool"
          },
          {
            "astId": 16739,
            "contract": "contracts/strategies/uniswap/UniswapV3ConverterStrategy.sol:UniswapV3ConverterStrategy",
            "label": "lowerTick",
            "offset": 25,
            "slot": "2",
            "type": "t_int24"
          },
          {
            "astId": 16741,
            "contract": "contracts/strategies/uniswap/UniswapV3ConverterStrategy.sol:UniswapV3ConverterStrategy",
            "label": "upperTick",
            "offset": 28,
            "slot": "2",
            "type": "t_int24"
          },
          {
            "astId": 16743,
            "contract": "contracts/strategies/uniswap/UniswapV3ConverterStrategy.sol:UniswapV3ConverterStrategy",
            "label": "lowerTickFillup",
            "offset": 0,
            "slot": "3",
            "type": "t_int24"
          },
          {
            "astId": 16745,
            "contract": "contracts/strategies/uniswap/UniswapV3ConverterStrategy.sol:UniswapV3ConverterStrategy",
            "label": "upperTickFillup",
            "offset": 3,
            "slot": "3",
            "type": "t_int24"
          },
          {
            "astId": 16747,
            "contract": "contracts/strategies/uniswap/UniswapV3ConverterStrategy.sol:UniswapV3ConverterStrategy",
            "label": "rebalanceTickRange",
            "offset": 6,
            "slot": "3",
            "type": "t_int24"
          },
          {
            "astId": 16749,
            "contract": "contracts/strategies/uniswap/UniswapV3ConverterStrategy.sol:UniswapV3ConverterStrategy",
            "label": "depositorSwapTokens",
            "offset": 9,
            "slot": "3",
            "type": "t_bool"
          },
          {
            "astId": 16751,
            "contract": "contracts/strategies/uniswap/UniswapV3ConverterStrategy.sol:UniswapV3ConverterStrategy",
            "label": "totalLiquidity",
            "offset": 10,
            "slot": "3",
            "type": "t_uint128"
          },
          {
            "astId": 16753,
            "contract": "contracts/strategies/uniswap/UniswapV3ConverterStrategy.sol:UniswapV3ConverterStrategy",
            "label": "totalLiquidityFillup",
            "offset": 0,
            "slot": "4",
            "type": "t_uint128"
          },
          {
            "astId": 16755,
            "contract": "contracts/strategies/uniswap/UniswapV3ConverterStrategy.sol:UniswapV3ConverterStrategy",
            "label": "rebalanceEarned0",
            "offset": 0,
            "slot": "5",
            "type": "t_uint256"
          },
          {
            "astId": 16757,
            "contract": "contracts/strategies/uniswap/UniswapV3ConverterStrategy.sol:UniswapV3ConverterStrategy",
            "label": "rebalanceEarned1",
            "offset": 0,
            "slot": "6",
            "type": "t_uint256"
          },
          {
            "astId": 16759,
            "contract": "contracts/strategies/uniswap/UniswapV3ConverterStrategy.sol:UniswapV3ConverterStrategy",
            "label": "rebalanceLost",
            "offset": 0,
            "slot": "7",
            "type": "t_uint256"
          },
          {
            "astId": 16761,
            "contract": "contracts/strategies/uniswap/UniswapV3ConverterStrategy.sol:UniswapV3ConverterStrategy",
            "label": "isFuseTriggered",
            "offset": 0,
            "slot": "8",
            "type": "t_bool"
          },
          {
            "astId": 16763,
            "contract": "contracts/strategies/uniswap/UniswapV3ConverterStrategy.sol:UniswapV3ConverterStrategy",
            "label": "fuseThreshold",
            "offset": 0,
            "slot": "9",
            "type": "t_uint256"
          },
          {
            "astId": 16765,
            "contract": "contracts/strategies/uniswap/UniswapV3ConverterStrategy.sol:UniswapV3ConverterStrategy",
            "label": "lastPrice",
            "offset": 0,
            "slot": "10",
            "type": "t_uint256"
          }
        ],
        "numberOfBytes": "352"
      },
      "t_uint128": {
        "encoding": "inplace",
        "label": "uint128",
        "numberOfBytes": "16"
      },
      "t_uint256": {
        "encoding": "inplace",
        "label": "uint256",
        "numberOfBytes": "32"
      },
      "t_uint8": {
        "encoding": "inplace",
        "label": "uint8",
        "numberOfBytes": "1"
      }
    }
  }
}