{
  "address": "0xE1A3e601918294980211Cb213952522fa3D8D987",
  "abi": [
    {
      "inputs": [],
      "name": "SELL_GAP",
      "outputs": [
        {
          "internalType": "uint256",
          "name": "",
          "type": "uint256"
        }
      ],
      "stateMutability": "view",
      "type": "function"
    },
    {
      "inputs": [
        {
          "internalType": "contract IUniswapV3Pool",
          "name": "pool",
          "type": "IUniswapV3Pool"
        },
        {
          "internalType": "int24",
          "name": "tickRange",
          "type": "int24"
        },
        {
          "internalType": "int24",
          "name": "tickSpacing",
          "type": "int24"
        }
      ],
      "name": "calcTickRange",
      "outputs": [
        {
          "internalType": "int24",
          "name": "lowerTick",
          "type": "int24"
        },
        {
          "internalType": "int24",
          "name": "upperTick",
          "type": "int24"
        }
      ],
      "stateMutability": "view",
      "type": "function"
    },
    {
      "inputs": [
        {
          "internalType": "contract IUniswapV3Pool",
          "name": "pool",
          "type": "IUniswapV3Pool"
        },
        {
          "internalType": "int24",
          "name": "lowerTick",
          "type": "int24"
        },
        {
          "internalType": "int24",
          "name": "upperTick",
          "type": "int24"
        },
        {
          "internalType": "bool",
          "name": "depositorSwapTokens",
          "type": "bool"
        }
      ],
      "name": "getEntryData",
      "outputs": [
        {
          "internalType": "bytes",
          "name": "entryData",
          "type": "bytes"
        }
      ],
      "stateMutability": "view",
      "type": "function"
    },
    {
      "inputs": [
        {
          "internalType": "uint256",
          "name": "debtAmount",
          "type": "uint256"
        },
        {
          "internalType": "contract ITetuConverter",
          "name": "tetuConverter",
          "type": "ITetuConverter"
        },
        {
          "internalType": "address",
          "name": "tokenB",
          "type": "address"
        }
      ],
      "name": "needCloseDebt",
      "outputs": [
        {
          "internalType": "bool",
          "name": "",
          "type": "bool"
        }
      ],
      "stateMutability": "view",
      "type": "function"
    }
  ],
  "transactionHash": "0x0bd479eefd25f34c61696afd21a23b7dbdba6f419ae273a840f48c7f2bd13122",
  "args": [],
  "numDeployments": 16,
  "solcInputHash": "998578a79da4431e0a925436db286134",
  "bytecode": "0x612f5a61003a600b82828239805160001a60731461002d57634e487b7160e01b600052600060045260246000fd5b30600052607381538281f3fe73000000000000000000000000000000000000000030146080604052600436106100a85760003560e01c8063afcd2a1d11610070578063afcd2a1d14610165578063da7adbec14610185578063f6cc5c2c146101b2578063f8328d9f146101d2578063fce032fe146101da57600080fd5b806319ee6a3a146100ad5780631f377298146100cf578063310135b8146101025780638c56287914610122578063a1d4398914610145575b600080fd5b8180156100b957600080fd5b506100cd6100c83660046124bc565b6101fa565b005b8180156100db57600080fd5b506100ef6100ea366004612563565b610297565b6040519081526020015b60405180910390f35b81801561010e57600080fd5b506100cd61011d3660046125ae565b610324565b61013561013036600461264f565b6103c2565b60405190151581526020016100f9565b610158610153366004612685565b610588565b6040516100f99190612731565b81801561017157600080fd5b506100ef610180366004612563565b610831565b610198610193366004612744565b6108be565b60408051600293840b81529190920b6020820152016100f9565b8180156101be57600080fd5b506100cd6101cd366004612784565b6109f0565b6100ef606481565b8180156101e657600080fd5b506100cd6101f536600461280f565b610b51565b6102078888888888610dc2565b821561028d5760405163556138c560e11b815273c989b6183E5af088FD04DB1A3C93bE69c8Ff25E09063aac2718a9061024a908a90879086908890600401612871565b602060405180830381865af4158015610267573d6000803e3d6000fd5b505050506040513d601f19601f8201168201806040525081019061028b919061289b565b505b5050505050505050565b60405163dd27ede760e01b81523060048201526001600160a01b0383811660248301528281166044830152600160648301526000919085169063dd27ede79060840160408051808303816000875af11580156102f7573d6000803e3d6000fd5b505050506040513d601f19601f8201168201806040525081019061031b91906128b4565b50949350505050565b610332898989898989611095565b821561028b5760405163556138c560e11b815273c989b6183E5af088FD04DB1A3C93bE69c8Ff25E09063aac2718a90610375908990879086908890600401612871565b602060405180830381865af4158015610392573d6000803e3d6000fd5b505050506040513d601f19601f820116820180604052508101906103b6919061289b565b50505050505050505050565b600080836001600160a01b031663f77c47916040518163ffffffff1660e01b8152600401602060405180830381865afa158015610403573d6000803e3d6000fd5b505050506040513d601f19601f8201168201806040525081019061042791906128d8565b6001600160a01b0316632630c12f6040518163ffffffff1660e01b8152600401602060405180830381865afa158015610464573d6000803e3d6000fd5b505050506040513d601f19601f8201168201806040525081019061048891906128d8565b905067016345785d8a0000836001600160a01b031663313ce5676040518163ffffffff1660e01b8152600401602060405180830381865afa1580156104d1573d6000803e3d6000fd5b505050506040513d601f19601f820116820180604052508101906104f5919061290b565b61050090600a612a20565b60405163b3596f0760e01b81526001600160a01b03868116600483015284169063b3596f0790602401602060405180830381865afa158015610546573d6000803e3d6000fd5b505050506040513d601f19601f8201168201806040525081019061056a919061289b565b6105749088612a2f565b61057e9190612a5c565b1195945050505050565b60606000856001600160a01b031663d21220a76040518163ffffffff1660e01b8152600401602060405180830381865afa1580156105ca573d6000803e3d6000fd5b505050506040513d601f19601f820116820180604052508101906105ee91906128d8565b9050600073db25C0af2d8D7Aa4e7A4d2f3AAe35B4EE99484b863ac41865a88846040518363ffffffff1660e01b815260040161062b929190612a70565b602060405180830381865af4158015610648573d6000803e3d6000fd5b505050506040513d601f19601f8201168201806040525081019061066c919061289b565b90506000826001600160a01b031663313ce5676040518163ffffffff1660e01b8152600401602060405180830381865afa1580156106ae573d6000803e3d6000fd5b505050506040513d601f19601f820116820180604052508101906106d2919061290b565b60ff1690508160006106e583600a612a8a565b6040516305f08b0f60e21b81526001600160a01b038c16600482015260028b810b60248301528a900b60448201526064810184905260848101829052909150600090819073db25C0af2d8D7Aa4e7A4d2f3AAe35B4EE99484b8906317c22c3c9060a401606060405180830381865af4158015610765573d6000803e3d6000fd5b505050506040513d601f19601f820116820180604052508101906107899190612a96565b509150915088156107dc576001836107a18884612a2f565b6107ab9190612a5c565b6040805160ff9093166020840152820152606081018390526080016040516020818303038152906040529750610822565b600182846107ea8985612a2f565b6107f49190612a5c565b6040805160ff9094166020850152830191909152606082015260800160405160208183030381529060405297505b50505050505050949350505050565b60405163dd27ede760e01b81523060048201526001600160a01b0383811660248301528281166044830152600060648301819052919085169063dd27ede79060840160408051808303816000875af1158015610891573d6000803e3d6000fd5b505050506040513d601f19601f820116820180604052508101906108b591906128b4565b95945050505050565b6000806000856001600160a01b0316633850c7bd6040518163ffffffff1660e01b815260040160e060405180830381865afa158015610901573d6000803e3d6000fd5b505050506040513d601f19601f820116820180604052508101906109259190612aeb565b505050505091505060008160020b12801561095b5750600281900b8461094b8184612b6a565b6109559190612ba4565b60020b14155b15610993578360018161096e8885612bcb565b6109789190612b6a565b6109829190612bcb565b61098c9190612ba4565b92506109b6565b838061099f8784612bcb565b6109a99190612b6a565b6109b39190612ba4565b92505b8460020b6000146109db576109cc856002612ba4565b6109d69084612bf0565b6109e5565b6109e58484612bf0565b915050935093915050565b60028601548654600188015460038901546001600160a01b03938416939283169290911690600160481b900460ff16610a2c8b84848c8c610dc2565b8615610ab25760405163556138c560e11b815273c989b6183E5af088FD04DB1A3C93bE69c8Ff25E09063aac2718a90610a6f9086908b908a908c90600401612871565b602060405180830381865af4158015610a8c573d6000803e3d6000fd5b505050506040513d601f19601f82011682018060405250810190610ab0919061289b565b505b6002808b01546000918291610ae5918891600160c81b8104820b91600160e01b8204810b91600160a01b9004900b61147e565b915091506000610af787848487610588565b9050610b058e8787846114c6565b5060029b909b01805465ffffffffffff60c81b1916600160c81b62ffffff9384160262ffffff60e01b191617600160e01b92909c16919091029a909a1790995550505050505050505050565b60028501548554600187015460038801546001600160a01b03808516949381169392169160ff600160481b909204821691600160b81b9091041615610c90578615610c165760405163556138c560e11b815273c989b6183E5af088FD04DB1A3C93bE69c8Ff25E09063aac2718a90610bd39086908b908a908c90600401612871565b602060405180830381865af4158015610bf0573d6000803e3d6000fd5b505050506040513d601f19601f82011682018060405250810190610c14919061289b565b505b610c248b8b8686868d611550565b6002808a0154610c52918691600160c81b8104820b91600160e01b8204810b91600160a01b9004900b61147e565b60028b01805465ffffffffffff60c81b1916600160e01b62ffffff9384160262ffffff60c81b191617600160c81b9390921692909202179055610db5565b610c9e8b8b8686868d611095565b8615610d245760405163556138c560e11b815273c989b6183E5af088FD04DB1A3C93bE69c8Ff25E09063aac2718a90610ce19086908b908a908c90600401612871565b602060405180830381865af4158015610cfe573d6000803e3d6000fd5b505050506040513d601f19601f82011682018060405250810190610d22919061289b565b505b6002808a01546000918291610d57918891600160c81b8104820b91600160e01b8204810b91600160a01b9004900b61147e565b915091506000610d6987848487610588565b9050610d778e8787846114c6565b5060028b01805465ffffffffffff60c81b1916600160c81b62ffffff9485160262ffffff60e01b191617600160e01b92909316919091029190911790555b5050505050505050505050565b610dcf8160400151611c66565b6000610ddc868686610297565b9050610de98187866103c2565b1561108d576000610df986611cfd565b90506000610e0686611cfd565b905060008460000151610e195786610e1b565b875b9050610e308186602001518760400151611d6e565b60008086604001516001600160a01b03168760600151604051610e539190612c15565b6000604051808303816000865af19150503d8060008114610e90576040519150601f19603f3d011682016040523d82523d6000602084013e610e95565b606091505b5091509150818190610ec35760405162461bcd60e51b8152600401610eba9190612731565b60405180910390fd5b5050506000610ed189611cfd565b90506000610ede89611cfd565b90508a6001600160a01b031663291f89c48489602001518a60000151610f04578d610f06565b8c5b8b51610f1b57610f168a88612c31565b610f25565b610f258987612c31565b6040516001600160e01b031960e087901b1681526001600160a01b0394851660048201526024810193909352921660448201526064810191909152608481018b905260a401602060405180830381865afa158015610f87573d6000803e3d6000fd5b505050506040513d601f19601f82011682018060405250810190610fab9190612c44565b604051806040016040528060128152602001711514cb4c4d881c1c9a58d9481a5b5c1858dd60721b81525090610ff45760405162461bcd60e51b8152600401610eba9190612731565b50736b2ca816F59b3d66ded56A5aBE6f186Fa30650DA63954d7e738c8c8c61101c8b87611e17565b6040518563ffffffff1660e01b815260040161103b9493929190612c61565b6040805180830381865af4158015611057573d6000803e3d6000fd5b505050506040513d601f19601f8201168201806040525081019061107b91906128b4565b505061108689611cfd565b5050505050505b505050505050565b60006110a2878585610297565b90506110af8188856103c2565b156114755760006110bf85611cfd565b905060006110cc85611cfd565b9050828110156112fb57604051635620c32d60e11b815260009073db25C0af2d8D7Aa4e7A4d2f3AAe35B4EE99484b89063ac41865a90611112908b908a90600401612a70565b602060405180830381865af415801561112f573d6000803e3d6000fd5b505050506040513d601f19601f82011682018060405250810190611153919061289b565b90506000866001600160a01b031663313ce5676040518163ffffffff1660e01b8152600401602060405180830381865afa158015611195573d6000803e3d6000fd5b505050506040513d601f19601f820116820180604052508101906111b9919061290b565b6111c490600a612a20565b6111ce8487612c31565b6111d89084612a2f565b6111e29190612a5c565b90506111ef606482612a5c565b6111f99082612c8b565b9050736b2ca816F59b3d66ded56A5aBE6f186Fa30650DA637de8f5698c8c6001600160a01b0316634046ebae6040518163ffffffff1660e01b8152600401602060405180830381865afa158015611254573d6000803e3d6000fd5b505050506040513d601f19601f8201168201806040525081019061127891906128d8565b8b8b611284878b611e17565b8c6000806040518963ffffffff1660e01b81526004016112ab989796959493929190612c9e565b6040805180830381865af41580156112c7573d6000803e3d6000fd5b505050506040513d601f19601f820116820180604052508101906112eb91906128b4565b50506112f687611cfd565b925050505b736b2ca816F59b3d66ded56A5aBE6f186Fa30650DA63954d7e738a88886113228887611e17565b6040518563ffffffff1660e01b81526004016113419493929190612c61565b6040805180830381865af415801561135d573d6000803e3d6000fd5b505050506040513d601f19601f8201168201806040525081019061138191906128b4565b505061138c85611cfd565b9050736b2ca816F59b3d66ded56A5aBE6f186Fa30650DA637de8f5698a8a6001600160a01b0316634046ebae6040518163ffffffff1660e01b8152600401602060405180830381865afa1580156113e7573d6000803e3d6000fd5b505050506040513d601f19601f8201168201806040525081019061140b91906128d8565b888a868a6000806040518963ffffffff1660e01b8152600401611435989796959493929190612c9e565b6040805180830381865af4158015611451573d6000803e3d6000fd5b505050506040513d601f19601f82011682018060405250810190610db591906128b4565b50505050505050565b6000808061148c8686612bcb565b90506114b8878560020b8360020b146114af576114aa600284612b6a565b6114b2565b60005b866108be565b909890975095505050505050565b736b2ca816F59b3d66ded56A5aBE6f186Fa30650DA63ca27d10d858386866114ed89611cfd565b60006040518763ffffffff1660e01b815260040161151096959493929190612ce8565b6040805180830381865af415801561152c573d6000803e3d6000fd5b505050506040513d601f19601f8201168201806040525081019061108d91906128b4565b61157b6040518060800160405280600081526020016000815260200160008152602001600081525090565b611586878585610297565b815261159184611cfd565b602082015261159f83611cfd565b60408201528051156114755780516040820151111561189157805160408201516115c99190612c31565b606082018190526020820151906115e590899087908790611e2f565b1015611697576040805160026020820152736b2ca816F59b3d66ded56A5aBE6f186Fa30650DA9163ca27d10d918a910160408051601f198184030181529082905260608601516001600160e01b031960e086901b16835261165093928a918a91600090600401612ce8565b6040805180830381865af415801561166c573d6000803e3d6000fd5b505050506040513d601f19601f8201168201806040525081019061169091906128b4565b5050611475565b805160405163954d7e7360e01b8152736b2ca816F59b3d66ded56A5aBE6f186Fa30650DA9163954d7e73916116d4918b9189918991600401612c61565b6040805180830381865af41580156116f0573d6000803e3d6000fd5b505050506040513d601f19601f8201168201806040525081019061171491906128b4565b505061171f83611cfd565b816040018181525050736b2ca816F59b3d66ded56A5aBE6f186Fa30650DA637de8f56988886001600160a01b0316634046ebae6040518163ffffffff1660e01b8152600401602060405180830381865afa158015611781573d6000803e3d6000fd5b505050506040513d601f19601f820116820180604052508101906117a591906128d8565b86888660400151886000806040518963ffffffff1660e01b81526004016117d3989796959493929190612c9e565b6040805180830381865af41580156117ef573d6000803e3d6000fd5b505050506040513d601f19601f8201168201806040525081019061181391906128b4565b505061181e84611cfd565b6020828101918252604080516001928101839052808201839052606080820193909352815180820390930183526080810191829052925163ca27d10d60e01b909152736b2ca816F59b3d66ded56A5aBE6f186Fa30650DA9263ca27d10d92611650928c928a918a91600090608401612ce8565b604081015181516118a29190612c31565b60608201819052604082015111156118f457606081015160405163954d7e7360e01b8152736b2ca816F59b3d66ded56A5aBE6f186Fa30650DA9163954d7e7391611650918b9189918991600401612c61565b6000836001600160a01b031663313ce5676040518163ffffffff1660e01b8152600401602060405180830381865afa158015611934573d6000803e3d6000fd5b505050506040513d601f19601f82011682018060405250810190611958919061290b565b61196390600a612a20565b6060830151604051635620c32d60e11b815273db25C0af2d8D7Aa4e7A4d2f3AAe35B4EE99484b89063ac41865a906119a1908b908a90600401612a70565b602060405180830381865af41580156119be573d6000803e3d6000fd5b505050506040513d601f19601f820116820180604052508101906119e2919061289b565b6119ec9190612a2f565b6119f69190612a5c565b9050611a03606482612a5c565b611a0d9082612c8b565b90508160200151811161028d57736b2ca816F59b3d66ded56A5aBE6f186Fa30650DA637de8f56989896001600160a01b0316634046ebae6040518163ffffffff1660e01b8152600401602060405180830381865afa158015611a73573d6000803e3d6000fd5b505050506040513d601f19601f82011682018060405250810190611a9791906128d8565b888886896000806040518963ffffffff1660e01b8152600401611ac1989796959493929190612c9e565b6040805180830381865af4158015611add573d6000803e3d6000fd5b505050506040513d601f19601f82011682018060405250810190611b0191906128b4565b5050611b0c84611cfd565b604083018190528251736b2ca816F59b3d66ded56A5aBE6f186Fa30650DA9163954d7e73918b918991899111611b46578660400151611b49565b86515b6040518563ffffffff1660e01b8152600401611b689493929190612c61565b6040805180830381865af4158015611b84573d6000803e3d6000fd5b505050506040513d601f19601f82011682018060405250810190611ba891906128b4565b5050611bb385611cfd565b6020838101918252604080516001928101839052808201839052606080820193909352815180820390930183526080810191829052925163ca27d10d60e01b909152736b2ca816F59b3d66ded56A5aBE6f186Fa30650DA9263ca27d10d92611c26928d928b918b91600090608401612ce8565b6040805180830381865af4158015611c42573d6000803e3d6000fd5b505050506040513d601f19601f820116820180604052508101906103b691906128b4565b6001600160a01b038116731111111254eeb25477b68fb85ed929f73a9605821480611cad57506001600160a01b038116736352a56caadc4f1e25cd6c75970fa768a3304e64145b604051806040016040528060158152602001742a99a9969899102ab735b737bbb7103937baba32b960591b81525090611cf95760405162461bcd60e51b8152600401610eba9190612731565b5050565b6040516370a0823160e01b81523060048201526000906001600160a01b038316906370a0823190602401602060405180830381865afa158015611d44573d6000803e3d6000fd5b505050506040513d601f19601f82011682018060405250810190611d68919061289b565b92915050565b604051636eb1769f60e11b815282906001600160a01b0385169063dd62ed3e90611d9e9030908690600401612a70565b602060405180830381865afa158015611dbb573d6000803e3d6000fd5b505050506040513d601f19601f82011682018060405250810190611ddf919061289b565b1015611e1257611dfa6001600160a01b038416826000612043565b611e126001600160a01b03841682600160ff1b612043565b505050565b6000818310611e265781611e28565b825b9392505050565b6000611e6a6040518060c001604052806000815260200160608152602001606081526020016060815260200160008152602001600081525090565b60408051600260208201526001600160a01b0388169163430ffb1791016040516020818303038152906040528786886213c6806040518663ffffffff1660e01b8152600401611ebd959493929190612d30565b600060405180830381865afa158015611eda573d6000803e3d6000fd5b505050506040513d6000823e601f3d908101601f19168201604052611f029190810190612e00565b5060608401526040830152602082018190525180156120335760005b818110156120315782606001518181518110611f3c57611f3c612f0e565b60200260200101518510611f6d5782606001518181518110611f6057611f60612f0e565b6020026020010151611f6f565b845b60a08401526060830151805182908110611f8b57611f8b612f0e565b60200260200101518510611fbc5782604001518181518110611faf57611faf612f0e565b602002602001015161200d565b82606001518181518110611fd257611fd2612f0e565b60200260200101518584604001518381518110611ff157611ff1612f0e565b60200260200101516120039190612a2f565b61200d9190612a5c565b608084015260a08301516120219086612c31565b9450841561203157600101611f1e565b505b506080015190505b949350505050565b8015806120bc5750604051636eb1769f60e11b81526001600160a01b0384169063dd62ed3e906120799030908690600401612a70565b602060405180830381865afa158015612096573d6000803e3d6000fd5b505050506040513d601f19601f820116820180604052508101906120ba919061289b565b155b6121275760405162461bcd60e51b815260206004820152603660248201527f5361666545524332303a20617070726f76652066726f6d206e6f6e2d7a65726f60448201527520746f206e6f6e2d7a65726f20616c6c6f77616e636560501b6064820152608401610eba565b604080516001600160a01b03848116602483015260448083018590528351808403909101815260649092018352602080830180516001600160e01b031663095ea7b360e01b17905283518085019094528084527f5361666545524332303a206c6f772d6c6576656c2063616c6c206661696c656490840152611e12928692916000916121b7918516908490612234565b805190915015611e1257808060200190518101906121d59190612c44565b611e125760405162461bcd60e51b815260206004820152602a60248201527f5361666545524332303a204552433230206f7065726174696f6e20646964206e6044820152691bdd081cdd58d8d9595960b21b6064820152608401610eba565b606061203b848460008585600080866001600160a01b0316858760405161225b9190612c15565b60006040518083038185875af1925050503d8060008114612298576040519150601f19603f3d011682016040523d82523d6000602084013e61229d565b606091505b50915091506122ae878383876122b9565b979650505050505050565b60608315612328578251600003612321576001600160a01b0385163b6123215760405162461bcd60e51b815260206004820152601d60248201527f416464726573733a2063616c6c20746f206e6f6e2d636f6e74726163740000006044820152606401610eba565b508161203b565b61203b838381511561233d5781518083602001fd5b8060405162461bcd60e51b8152600401610eba9190612731565b6001600160a01b038116811461236c57600080fd5b50565b634e487b7160e01b600052604160045260246000fd5b6040516080810167ffffffffffffffff811182821017156123a8576123a861236f565b60405290565b604051601f8201601f1916810167ffffffffffffffff811182821017156123d7576123d761236f565b604052919050565b801515811461236c57600080fd5b6000608082840312156123ff57600080fd5b612407612385565b90508135612414816123df565b815260208281013581830152604083013561242e81612357565b6040830152606083013567ffffffffffffffff8082111561244e57600080fd5b818501915085601f83011261246257600080fd5b8135818111156124745761247461236f565b612486601f8201601f191685016123ae565b9150808252868482850101111561249c57600080fd5b808484018584013760008482840101525080606085015250505092915050565b600080600080600080600080610100898b0312156124d957600080fd5b88356124e481612357565b975060208901356124f481612357565b9650604089013561250481612357565b955060608901359450608089013567ffffffffffffffff81111561252757600080fd5b6125338b828c016123ed565b94505060a0890135925060c0890135915060e089013561255281612357565b809150509295985092959890939650565b60008060006060848603121561257857600080fd5b833561258381612357565b9250602084013561259381612357565b915060408401356125a381612357565b809150509250925092565b60008060008060008060008060006101208a8c0312156125cd57600080fd5b89356125d881612357565b985060208a01356125e881612357565b975060408a01356125f881612357565b965060608a013561260881612357565b955060808a013561261881612357565b945060a08a0135935060c08a0135925060e08a013591506101008a013561263e81612357565b809150509295985092959850929598565b60008060006060848603121561266457600080fd5b83359250602084013561259381612357565b8060020b811461236c57600080fd5b6000806000806080858703121561269b57600080fd5b84356126a681612357565b935060208501356126b681612676565b925060408501356126c681612676565b915060608501356126d6816123df565b939692955090935050565b60005b838110156126fc5781810151838201526020016126e4565b50506000910152565b6000815180845261271d8160208601602086016126e1565b601f01601f19169290920160200192915050565b602081526000611e286020830184612705565b60008060006060848603121561275957600080fd5b833561276481612357565b9250602084013561277481612676565b915060408401356125a381612676565b600080600080600080600060e0888a03121561279f57600080fd5b87356127aa81612357565b96506020880135955060408801359450606088013567ffffffffffffffff8111156127d457600080fd5b6127e08a828b016123ed565b9450506080880135925060a0880135915060c08801356127ff81612357565b8091505092959891949750929550565b600080600080600080600060e0888a03121561282a57600080fd5b873561283581612357565b9650602088013561284581612357565b955060408801359450606088013593506080880135925060a0880135915060c08801356127ff81612357565b6001600160a01b039485168152602081019390935292166040820152606081019190915260800190565b6000602082840312156128ad57600080fd5b5051919050565b600080604083850312156128c757600080fd5b505080516020909101519092909150565b6000602082840312156128ea57600080fd5b8151611e2881612357565b805160ff8116811461290657600080fd5b919050565b60006020828403121561291d57600080fd5b611e28826128f5565b634e487b7160e01b600052601160045260246000fd5b600181815b8085111561297757816000190482111561295d5761295d612926565b8085161561296a57918102915b93841c9390800290612941565b509250929050565b60008261298e57506001611d68565b8161299b57506000611d68565b81600181146129b157600281146129bb576129d7565b6001915050611d68565b60ff8411156129cc576129cc612926565b50506001821b611d68565b5060208310610133831016604e8410600b84101617156129fa575081810a611d68565b612a04838361293c565b8060001904821115612a1857612a18612926565b029392505050565b6000611e2860ff84168361297f565b8082028115828204841417611d6857611d68612926565b634e487b7160e01b600052601260045260246000fd5b600082612a6b57612a6b612a46565b500490565b6001600160a01b0392831681529116602082015260400190565b6000611e28838361297f565b600080600060608486031215612aab57600080fd5b835192506020840151915060408401516fffffffffffffffffffffffffffffffff811681146125a357600080fd5b805161ffff8116811461290657600080fd5b600080600080600080600060e0888a031215612b0657600080fd5b8751612b1181612357565b6020890151909750612b2281612676565b9550612b3060408901612ad9565b9450612b3e60608901612ad9565b9350612b4c60808901612ad9565b9250612b5a60a089016128f5565b915060c08801516127ff816123df565b60008160020b8360020b80612b8157612b81612a46565b627fffff19821460001982141615612b9b57612b9b612926565b90059392505050565b60008260020b8260020b028060020b9150808214612bc457612bc4612926565b5092915050565b600282810b9082900b03627fffff198112627fffff82131715611d6857611d68612926565b600281810b9083900b01627fffff8113627fffff1982121715611d6857611d68612926565b60008251612c278184602087016126e1565b9190910192915050565b81810381811115611d6857611d68612926565b600060208284031215612c5657600080fd5b8151611e28816123df565b6001600160a01b039485168152928416602084015292166040820152606081019190915260800190565b80820180821115611d6857611d68612926565b6001600160a01b03988916815296881660208801529487166040870152929095166060850152608084015260a083019390935260c082019290925290151560e08201526101000190565b600060018060a01b03808916835260c06020840152612d0a60c0840189612705565b9681166040840152949094166060820152608081019290925260a0909101525092915050565b60a081526000612d4360a0830188612705565b6001600160a01b03968716602084015260408301959095525091909316606082015260800191909152919050565b600067ffffffffffffffff821115612d8b57612d8b61236f565b5060051b60200190565b600082601f830112612da657600080fd5b81516020612dbb612db683612d71565b6123ae565b82815260059290921b84018101918181019086841115612dda57600080fd5b8286015b84811015612df55780518352918301918301612dde565b509695505050505050565b60008060008060808587031215612e1657600080fd5b845167ffffffffffffffff80821115612e2e57600080fd5b818701915087601f830112612e4257600080fd5b81516020612e52612db683612d71565b82815260059290921b8401810191818101908b841115612e7157600080fd5b948201945b83861015612e98578551612e8981612357565b82529482019490820190612e76565b918a0151919850909350505080821115612eb157600080fd5b612ebd88838901612d95565b94506040870151915080821115612ed357600080fd5b612edf88838901612d95565b93506060870151915080821115612ef557600080fd5b50612f0287828801612d95565b91505092959194509250565b634e487b7160e01b600052603260045260246000fdfea2646970667358221220efc1e85c610c289a300d7f5498a01e77523e607e589cbcb7a26918445e8b4b0364736f6c63430008110033",
  "deployedBytecode": "0x73000000000000000000000000000000000000000030146080604052600436106100a85760003560e01c8063afcd2a1d11610070578063afcd2a1d14610165578063da7adbec14610185578063f6cc5c2c146101b2578063f8328d9f146101d2578063fce032fe146101da57600080fd5b806319ee6a3a146100ad5780631f377298146100cf578063310135b8146101025780638c56287914610122578063a1d4398914610145575b600080fd5b8180156100b957600080fd5b506100cd6100c83660046124bc565b6101fa565b005b8180156100db57600080fd5b506100ef6100ea366004612563565b610297565b6040519081526020015b60405180910390f35b81801561010e57600080fd5b506100cd61011d3660046125ae565b610324565b61013561013036600461264f565b6103c2565b60405190151581526020016100f9565b610158610153366004612685565b610588565b6040516100f99190612731565b81801561017157600080fd5b506100ef610180366004612563565b610831565b610198610193366004612744565b6108be565b60408051600293840b81529190920b6020820152016100f9565b8180156101be57600080fd5b506100cd6101cd366004612784565b6109f0565b6100ef606481565b8180156101e657600080fd5b506100cd6101f536600461280f565b610b51565b6102078888888888610dc2565b821561028d5760405163556138c560e11b815273__$8f1afe7577f9ab973017c74eca19b86f3c$__9063aac2718a9061024a908a90879086908890600401612871565b602060405180830381865af4158015610267573d6000803e3d6000fd5b505050506040513d601f19601f8201168201806040525081019061028b919061289b565b505b5050505050505050565b60405163dd27ede760e01b81523060048201526001600160a01b0383811660248301528281166044830152600160648301526000919085169063dd27ede79060840160408051808303816000875af11580156102f7573d6000803e3d6000fd5b505050506040513d601f19601f8201168201806040525081019061031b91906128b4565b50949350505050565b610332898989898989611095565b821561028b5760405163556138c560e11b815273__$8f1afe7577f9ab973017c74eca19b86f3c$__9063aac2718a90610375908990879086908890600401612871565b602060405180830381865af4158015610392573d6000803e3d6000fd5b505050506040513d601f19601f820116820180604052508101906103b6919061289b565b50505050505050505050565b600080836001600160a01b031663f77c47916040518163ffffffff1660e01b8152600401602060405180830381865afa158015610403573d6000803e3d6000fd5b505050506040513d601f19601f8201168201806040525081019061042791906128d8565b6001600160a01b0316632630c12f6040518163ffffffff1660e01b8152600401602060405180830381865afa158015610464573d6000803e3d6000fd5b505050506040513d601f19601f8201168201806040525081019061048891906128d8565b905067016345785d8a0000836001600160a01b031663313ce5676040518163ffffffff1660e01b8152600401602060405180830381865afa1580156104d1573d6000803e3d6000fd5b505050506040513d601f19601f820116820180604052508101906104f5919061290b565b61050090600a612a20565b60405163b3596f0760e01b81526001600160a01b03868116600483015284169063b3596f0790602401602060405180830381865afa158015610546573d6000803e3d6000fd5b505050506040513d601f19601f8201168201806040525081019061056a919061289b565b6105749088612a2f565b61057e9190612a5c565b1195945050505050565b60606000856001600160a01b031663d21220a76040518163ffffffff1660e01b8152600401602060405180830381865afa1580156105ca573d6000803e3d6000fd5b505050506040513d601f19601f820116820180604052508101906105ee91906128d8565b9050600073__$0c70757f598a889e7e5bdfcf0bf5e1f3f7$__63ac41865a88846040518363ffffffff1660e01b815260040161062b929190612a70565b602060405180830381865af4158015610648573d6000803e3d6000fd5b505050506040513d601f19601f8201168201806040525081019061066c919061289b565b90506000826001600160a01b031663313ce5676040518163ffffffff1660e01b8152600401602060405180830381865afa1580156106ae573d6000803e3d6000fd5b505050506040513d601f19601f820116820180604052508101906106d2919061290b565b60ff1690508160006106e583600a612a8a565b6040516305f08b0f60e21b81526001600160a01b038c16600482015260028b810b60248301528a900b60448201526064810184905260848101829052909150600090819073__$0c70757f598a889e7e5bdfcf0bf5e1f3f7$__906317c22c3c9060a401606060405180830381865af4158015610765573d6000803e3d6000fd5b505050506040513d601f19601f820116820180604052508101906107899190612a96565b509150915088156107dc576001836107a18884612a2f565b6107ab9190612a5c565b6040805160ff9093166020840152820152606081018390526080016040516020818303038152906040529750610822565b600182846107ea8985612a2f565b6107f49190612a5c565b6040805160ff9094166020850152830191909152606082015260800160405160208183030381529060405297505b50505050505050949350505050565b60405163dd27ede760e01b81523060048201526001600160a01b0383811660248301528281166044830152600060648301819052919085169063dd27ede79060840160408051808303816000875af1158015610891573d6000803e3d6000fd5b505050506040513d601f19601f820116820180604052508101906108b591906128b4565b95945050505050565b6000806000856001600160a01b0316633850c7bd6040518163ffffffff1660e01b815260040160e060405180830381865afa158015610901573d6000803e3d6000fd5b505050506040513d601f19601f820116820180604052508101906109259190612aeb565b505050505091505060008160020b12801561095b5750600281900b8461094b8184612b6a565b6109559190612ba4565b60020b14155b15610993578360018161096e8885612bcb565b6109789190612b6a565b6109829190612bcb565b61098c9190612ba4565b92506109b6565b838061099f8784612bcb565b6109a99190612b6a565b6109b39190612ba4565b92505b8460020b6000146109db576109cc856002612ba4565b6109d69084612bf0565b6109e5565b6109e58484612bf0565b915050935093915050565b60028601548654600188015460038901546001600160a01b03938416939283169290911690600160481b900460ff16610a2c8b84848c8c610dc2565b8615610ab25760405163556138c560e11b815273__$8f1afe7577f9ab973017c74eca19b86f3c$__9063aac2718a90610a6f9086908b908a908c90600401612871565b602060405180830381865af4158015610a8c573d6000803e3d6000fd5b505050506040513d601f19601f82011682018060405250810190610ab0919061289b565b505b6002808b01546000918291610ae5918891600160c81b8104820b91600160e01b8204810b91600160a01b9004900b61147e565b915091506000610af787848487610588565b9050610b058e8787846114c6565b5060029b909b01805465ffffffffffff60c81b1916600160c81b62ffffff9384160262ffffff60e01b191617600160e01b92909c16919091029a909a1790995550505050505050505050565b60028501548554600187015460038801546001600160a01b03808516949381169392169160ff600160481b909204821691600160b81b9091041615610c90578615610c165760405163556138c560e11b815273__$8f1afe7577f9ab973017c74eca19b86f3c$__9063aac2718a90610bd39086908b908a908c90600401612871565b602060405180830381865af4158015610bf0573d6000803e3d6000fd5b505050506040513d601f19601f82011682018060405250810190610c14919061289b565b505b610c248b8b8686868d611550565b6002808a0154610c52918691600160c81b8104820b91600160e01b8204810b91600160a01b9004900b61147e565b60028b01805465ffffffffffff60c81b1916600160e01b62ffffff9384160262ffffff60c81b191617600160c81b9390921692909202179055610db5565b610c9e8b8b8686868d611095565b8615610d245760405163556138c560e11b815273__$8f1afe7577f9ab973017c74eca19b86f3c$__9063aac2718a90610ce19086908b908a908c90600401612871565b602060405180830381865af4158015610cfe573d6000803e3d6000fd5b505050506040513d601f19601f82011682018060405250810190610d22919061289b565b505b6002808a01546000918291610d57918891600160c81b8104820b91600160e01b8204810b91600160a01b9004900b61147e565b915091506000610d6987848487610588565b9050610d778e8787846114c6565b5060028b01805465ffffffffffff60c81b1916600160c81b62ffffff9485160262ffffff60e01b191617600160e01b92909316919091029190911790555b5050505050505050505050565b610dcf8160400151611c66565b6000610ddc868686610297565b9050610de98187866103c2565b1561108d576000610df986611cfd565b90506000610e0686611cfd565b905060008460000151610e195786610e1b565b875b9050610e308186602001518760400151611d6e565b60008086604001516001600160a01b03168760600151604051610e539190612c15565b6000604051808303816000865af19150503d8060008114610e90576040519150601f19603f3d011682016040523d82523d6000602084013e610e95565b606091505b5091509150818190610ec35760405162461bcd60e51b8152600401610eba9190612731565b60405180910390fd5b5050506000610ed189611cfd565b90506000610ede89611cfd565b90508a6001600160a01b031663291f89c48489602001518a60000151610f04578d610f06565b8c5b8b51610f1b57610f168a88612c31565b610f25565b610f258987612c31565b6040516001600160e01b031960e087901b1681526001600160a01b0394851660048201526024810193909352921660448201526064810191909152608481018b905260a401602060405180830381865afa158015610f87573d6000803e3d6000fd5b505050506040513d601f19601f82011682018060405250810190610fab9190612c44565b604051806040016040528060128152602001711514cb4c4d881c1c9a58d9481a5b5c1858dd60721b81525090610ff45760405162461bcd60e51b8152600401610eba9190612731565b5073__$e930d50fb5f4f1298547dbcb2bb0591990$__63954d7e738c8c8c61101c8b87611e17565b6040518563ffffffff1660e01b815260040161103b9493929190612c61565b6040805180830381865af4158015611057573d6000803e3d6000fd5b505050506040513d601f19601f8201168201806040525081019061107b91906128b4565b505061108689611cfd565b5050505050505b505050505050565b60006110a2878585610297565b90506110af8188856103c2565b156114755760006110bf85611cfd565b905060006110cc85611cfd565b9050828110156112fb57604051635620c32d60e11b815260009073__$0c70757f598a889e7e5bdfcf0bf5e1f3f7$__9063ac41865a90611112908b908a90600401612a70565b602060405180830381865af415801561112f573d6000803e3d6000fd5b505050506040513d601f19601f82011682018060405250810190611153919061289b565b90506000866001600160a01b031663313ce5676040518163ffffffff1660e01b8152600401602060405180830381865afa158015611195573d6000803e3d6000fd5b505050506040513d601f19601f820116820180604052508101906111b9919061290b565b6111c490600a612a20565b6111ce8487612c31565b6111d89084612a2f565b6111e29190612a5c565b90506111ef606482612a5c565b6111f99082612c8b565b905073__$e930d50fb5f4f1298547dbcb2bb0591990$__637de8f5698c8c6001600160a01b0316634046ebae6040518163ffffffff1660e01b8152600401602060405180830381865afa158015611254573d6000803e3d6000fd5b505050506040513d601f19601f8201168201806040525081019061127891906128d8565b8b8b611284878b611e17565b8c6000806040518963ffffffff1660e01b81526004016112ab989796959493929190612c9e565b6040805180830381865af41580156112c7573d6000803e3d6000fd5b505050506040513d601f19601f820116820180604052508101906112eb91906128b4565b50506112f687611cfd565b925050505b73__$e930d50fb5f4f1298547dbcb2bb0591990$__63954d7e738a88886113228887611e17565b6040518563ffffffff1660e01b81526004016113419493929190612c61565b6040805180830381865af415801561135d573d6000803e3d6000fd5b505050506040513d601f19601f8201168201806040525081019061138191906128b4565b505061138c85611cfd565b905073__$e930d50fb5f4f1298547dbcb2bb0591990$__637de8f5698a8a6001600160a01b0316634046ebae6040518163ffffffff1660e01b8152600401602060405180830381865afa1580156113e7573d6000803e3d6000fd5b505050506040513d601f19601f8201168201806040525081019061140b91906128d8565b888a868a6000806040518963ffffffff1660e01b8152600401611435989796959493929190612c9e565b6040805180830381865af4158015611451573d6000803e3d6000fd5b505050506040513d601f19601f82011682018060405250810190610db591906128b4565b50505050505050565b6000808061148c8686612bcb565b90506114b8878560020b8360020b146114af576114aa600284612b6a565b6114b2565b60005b866108be565b909890975095505050505050565b73__$e930d50fb5f4f1298547dbcb2bb0591990$__63ca27d10d858386866114ed89611cfd565b60006040518763ffffffff1660e01b815260040161151096959493929190612ce8565b6040805180830381865af415801561152c573d6000803e3d6000fd5b505050506040513d601f19601f8201168201806040525081019061108d91906128b4565b61157b6040518060800160405280600081526020016000815260200160008152602001600081525090565b611586878585610297565b815261159184611cfd565b602082015261159f83611cfd565b60408201528051156114755780516040820151111561189157805160408201516115c99190612c31565b606082018190526020820151906115e590899087908790611e2f565b101561169757604080516002602082015273__$e930d50fb5f4f1298547dbcb2bb0591990$__9163ca27d10d918a910160408051601f198184030181529082905260608601516001600160e01b031960e086901b16835261165093928a918a91600090600401612ce8565b6040805180830381865af415801561166c573d6000803e3d6000fd5b505050506040513d601f19601f8201168201806040525081019061169091906128b4565b5050611475565b805160405163954d7e7360e01b815273__$e930d50fb5f4f1298547dbcb2bb0591990$__9163954d7e73916116d4918b9189918991600401612c61565b6040805180830381865af41580156116f0573d6000803e3d6000fd5b505050506040513d601f19601f8201168201806040525081019061171491906128b4565b505061171f83611cfd565b81604001818152505073__$e930d50fb5f4f1298547dbcb2bb0591990$__637de8f56988886001600160a01b0316634046ebae6040518163ffffffff1660e01b8152600401602060405180830381865afa158015611781573d6000803e3d6000fd5b505050506040513d601f19601f820116820180604052508101906117a591906128d8565b86888660400151886000806040518963ffffffff1660e01b81526004016117d3989796959493929190612c9e565b6040805180830381865af41580156117ef573d6000803e3d6000fd5b505050506040513d601f19601f8201168201806040525081019061181391906128b4565b505061181e84611cfd565b6020828101918252604080516001928101839052808201839052606080820193909352815180820390930183526080810191829052925163ca27d10d60e01b90915273__$e930d50fb5f4f1298547dbcb2bb0591990$__9263ca27d10d92611650928c928a918a91600090608401612ce8565b604081015181516118a29190612c31565b60608201819052604082015111156118f457606081015160405163954d7e7360e01b815273__$e930d50fb5f4f1298547dbcb2bb0591990$__9163954d7e7391611650918b9189918991600401612c61565b6000836001600160a01b031663313ce5676040518163ffffffff1660e01b8152600401602060405180830381865afa158015611934573d6000803e3d6000fd5b505050506040513d601f19601f82011682018060405250810190611958919061290b565b61196390600a612a20565b6060830151604051635620c32d60e11b815273__$0c70757f598a889e7e5bdfcf0bf5e1f3f7$__9063ac41865a906119a1908b908a90600401612a70565b602060405180830381865af41580156119be573d6000803e3d6000fd5b505050506040513d601f19601f820116820180604052508101906119e2919061289b565b6119ec9190612a2f565b6119f69190612a5c565b9050611a03606482612a5c565b611a0d9082612c8b565b90508160200151811161028d5773__$e930d50fb5f4f1298547dbcb2bb0591990$__637de8f56989896001600160a01b0316634046ebae6040518163ffffffff1660e01b8152600401602060405180830381865afa158015611a73573d6000803e3d6000fd5b505050506040513d601f19601f82011682018060405250810190611a9791906128d8565b888886896000806040518963ffffffff1660e01b8152600401611ac1989796959493929190612c9e565b6040805180830381865af4158015611add573d6000803e3d6000fd5b505050506040513d601f19601f82011682018060405250810190611b0191906128b4565b5050611b0c84611cfd565b60408301819052825173__$e930d50fb5f4f1298547dbcb2bb0591990$__9163954d7e73918b918991899111611b46578660400151611b49565b86515b6040518563ffffffff1660e01b8152600401611b689493929190612c61565b6040805180830381865af4158015611b84573d6000803e3d6000fd5b505050506040513d601f19601f82011682018060405250810190611ba891906128b4565b5050611bb385611cfd565b6020838101918252604080516001928101839052808201839052606080820193909352815180820390930183526080810191829052925163ca27d10d60e01b90915273__$e930d50fb5f4f1298547dbcb2bb0591990$__9263ca27d10d92611c26928d928b918b91600090608401612ce8565b6040805180830381865af4158015611c42573d6000803e3d6000fd5b505050506040513d601f19601f820116820180604052508101906103b691906128b4565b6001600160a01b038116731111111254eeb25477b68fb85ed929f73a9605821480611cad57506001600160a01b038116736352a56caadc4f1e25cd6c75970fa768a3304e64145b604051806040016040528060158152602001742a99a9969899102ab735b737bbb7103937baba32b960591b81525090611cf95760405162461bcd60e51b8152600401610eba9190612731565b5050565b6040516370a0823160e01b81523060048201526000906001600160a01b038316906370a0823190602401602060405180830381865afa158015611d44573d6000803e3d6000fd5b505050506040513d601f19601f82011682018060405250810190611d68919061289b565b92915050565b604051636eb1769f60e11b815282906001600160a01b0385169063dd62ed3e90611d9e9030908690600401612a70565b602060405180830381865afa158015611dbb573d6000803e3d6000fd5b505050506040513d601f19601f82011682018060405250810190611ddf919061289b565b1015611e1257611dfa6001600160a01b038416826000612043565b611e126001600160a01b03841682600160ff1b612043565b505050565b6000818310611e265781611e28565b825b9392505050565b6000611e6a6040518060c001604052806000815260200160608152602001606081526020016060815260200160008152602001600081525090565b60408051600260208201526001600160a01b0388169163430ffb1791016040516020818303038152906040528786886213c6806040518663ffffffff1660e01b8152600401611ebd959493929190612d30565b600060405180830381865afa158015611eda573d6000803e3d6000fd5b505050506040513d6000823e601f3d908101601f19168201604052611f029190810190612e00565b5060608401526040830152602082018190525180156120335760005b818110156120315782606001518181518110611f3c57611f3c612f0e565b60200260200101518510611f6d5782606001518181518110611f6057611f60612f0e565b6020026020010151611f6f565b845b60a08401526060830151805182908110611f8b57611f8b612f0e565b60200260200101518510611fbc5782604001518181518110611faf57611faf612f0e565b602002602001015161200d565b82606001518181518110611fd257611fd2612f0e565b60200260200101518584604001518381518110611ff157611ff1612f0e565b60200260200101516120039190612a2f565b61200d9190612a5c565b608084015260a08301516120219086612c31565b9450841561203157600101611f1e565b505b506080015190505b949350505050565b8015806120bc5750604051636eb1769f60e11b81526001600160a01b0384169063dd62ed3e906120799030908690600401612a70565b602060405180830381865afa158015612096573d6000803e3d6000fd5b505050506040513d601f19601f820116820180604052508101906120ba919061289b565b155b6121275760405162461bcd60e51b815260206004820152603660248201527f5361666545524332303a20617070726f76652066726f6d206e6f6e2d7a65726f60448201527520746f206e6f6e2d7a65726f20616c6c6f77616e636560501b6064820152608401610eba565b604080516001600160a01b03848116602483015260448083018590528351808403909101815260649092018352602080830180516001600160e01b031663095ea7b360e01b17905283518085019094528084527f5361666545524332303a206c6f772d6c6576656c2063616c6c206661696c656490840152611e12928692916000916121b7918516908490612234565b805190915015611e1257808060200190518101906121d59190612c44565b611e125760405162461bcd60e51b815260206004820152602a60248201527f5361666545524332303a204552433230206f7065726174696f6e20646964206e6044820152691bdd081cdd58d8d9595960b21b6064820152608401610eba565b606061203b848460008585600080866001600160a01b0316858760405161225b9190612c15565b60006040518083038185875af1925050503d8060008114612298576040519150601f19603f3d011682016040523d82523d6000602084013e61229d565b606091505b50915091506122ae878383876122b9565b979650505050505050565b60608315612328578251600003612321576001600160a01b0385163b6123215760405162461bcd60e51b815260206004820152601d60248201527f416464726573733a2063616c6c20746f206e6f6e2d636f6e74726163740000006044820152606401610eba565b508161203b565b61203b838381511561233d5781518083602001fd5b8060405162461bcd60e51b8152600401610eba9190612731565b6001600160a01b038116811461236c57600080fd5b50565b634e487b7160e01b600052604160045260246000fd5b6040516080810167ffffffffffffffff811182821017156123a8576123a861236f565b60405290565b604051601f8201601f1916810167ffffffffffffffff811182821017156123d7576123d761236f565b604052919050565b801515811461236c57600080fd5b6000608082840312156123ff57600080fd5b612407612385565b90508135612414816123df565b815260208281013581830152604083013561242e81612357565b6040830152606083013567ffffffffffffffff8082111561244e57600080fd5b818501915085601f83011261246257600080fd5b8135818111156124745761247461236f565b612486601f8201601f191685016123ae565b9150808252868482850101111561249c57600080fd5b808484018584013760008482840101525080606085015250505092915050565b600080600080600080600080610100898b0312156124d957600080fd5b88356124e481612357565b975060208901356124f481612357565b9650604089013561250481612357565b955060608901359450608089013567ffffffffffffffff81111561252757600080fd5b6125338b828c016123ed565b94505060a0890135925060c0890135915060e089013561255281612357565b809150509295985092959890939650565b60008060006060848603121561257857600080fd5b833561258381612357565b9250602084013561259381612357565b915060408401356125a381612357565b809150509250925092565b60008060008060008060008060006101208a8c0312156125cd57600080fd5b89356125d881612357565b985060208a01356125e881612357565b975060408a01356125f881612357565b965060608a013561260881612357565b955060808a013561261881612357565b945060a08a0135935060c08a0135925060e08a013591506101008a013561263e81612357565b809150509295985092959850929598565b60008060006060848603121561266457600080fd5b83359250602084013561259381612357565b8060020b811461236c57600080fd5b6000806000806080858703121561269b57600080fd5b84356126a681612357565b935060208501356126b681612676565b925060408501356126c681612676565b915060608501356126d6816123df565b939692955090935050565b60005b838110156126fc5781810151838201526020016126e4565b50506000910152565b6000815180845261271d8160208601602086016126e1565b601f01601f19169290920160200192915050565b602081526000611e286020830184612705565b60008060006060848603121561275957600080fd5b833561276481612357565b9250602084013561277481612676565b915060408401356125a381612676565b600080600080600080600060e0888a03121561279f57600080fd5b87356127aa81612357565b96506020880135955060408801359450606088013567ffffffffffffffff8111156127d457600080fd5b6127e08a828b016123ed565b9450506080880135925060a0880135915060c08801356127ff81612357565b8091505092959891949750929550565b600080600080600080600060e0888a03121561282a57600080fd5b873561283581612357565b9650602088013561284581612357565b955060408801359450606088013593506080880135925060a0880135915060c08801356127ff81612357565b6001600160a01b039485168152602081019390935292166040820152606081019190915260800190565b6000602082840312156128ad57600080fd5b5051919050565b600080604083850312156128c757600080fd5b505080516020909101519092909150565b6000602082840312156128ea57600080fd5b8151611e2881612357565b805160ff8116811461290657600080fd5b919050565b60006020828403121561291d57600080fd5b611e28826128f5565b634e487b7160e01b600052601160045260246000fd5b600181815b8085111561297757816000190482111561295d5761295d612926565b8085161561296a57918102915b93841c9390800290612941565b509250929050565b60008261298e57506001611d68565b8161299b57506000611d68565b81600181146129b157600281146129bb576129d7565b6001915050611d68565b60ff8411156129cc576129cc612926565b50506001821b611d68565b5060208310610133831016604e8410600b84101617156129fa575081810a611d68565b612a04838361293c565b8060001904821115612a1857612a18612926565b029392505050565b6000611e2860ff84168361297f565b8082028115828204841417611d6857611d68612926565b634e487b7160e01b600052601260045260246000fd5b600082612a6b57612a6b612a46565b500490565b6001600160a01b0392831681529116602082015260400190565b6000611e28838361297f565b600080600060608486031215612aab57600080fd5b835192506020840151915060408401516fffffffffffffffffffffffffffffffff811681146125a357600080fd5b805161ffff8116811461290657600080fd5b600080600080600080600060e0888a031215612b0657600080fd5b8751612b1181612357565b6020890151909750612b2281612676565b9550612b3060408901612ad9565b9450612b3e60608901612ad9565b9350612b4c60808901612ad9565b9250612b5a60a089016128f5565b915060c08801516127ff816123df565b60008160020b8360020b80612b8157612b81612a46565b627fffff19821460001982141615612b9b57612b9b612926565b90059392505050565b60008260020b8260020b028060020b9150808214612bc457612bc4612926565b5092915050565b600282810b9082900b03627fffff198112627fffff82131715611d6857611d68612926565b600281810b9083900b01627fffff8113627fffff1982121715611d6857611d68612926565b60008251612c278184602087016126e1565b9190910192915050565b81810381811115611d6857611d68612926565b600060208284031215612c5657600080fd5b8151611e28816123df565b6001600160a01b039485168152928416602084015292166040820152606081019190915260800190565b80820180821115611d6857611d68612926565b6001600160a01b03988916815296881660208801529487166040870152929095166060850152608084015260a083019390935260c082019290925290151560e08201526101000190565b600060018060a01b03808916835260c06020840152612d0a60c0840189612705565b9681166040840152949094166060820152608081019290925260a0909101525092915050565b60a081526000612d4360a0830188612705565b6001600160a01b03968716602084015260408301959095525091909316606082015260800191909152919050565b600067ffffffffffffffff821115612d8b57612d8b61236f565b5060051b60200190565b600082601f830112612da657600080fd5b81516020612dbb612db683612d71565b6123ae565b82815260059290921b84018101918181019086841115612dda57600080fd5b8286015b84811015612df55780518352918301918301612dde565b509695505050505050565b60008060008060808587031215612e1657600080fd5b845167ffffffffffffffff80821115612e2e57600080fd5b818701915087601f830112612e4257600080fd5b81516020612e52612db683612d71565b82815260059290921b8401810191818101908b841115612e7157600080fd5b948201945b83861015612e98578551612e8981612357565b82529482019490820190612e76565b918a0151919850909350505080821115612eb157600080fd5b612ebd88838901612d95565b94506040870151915080821115612ed357600080fd5b612edf88838901612d95565b93506060870151915080821115612ef557600080fd5b50612f0287828801612d95565b91505092959194509250565b634e487b7160e01b600052603260045260246000fdfea2646970667358221220efc1e85c610c289a300d7f5498a01e77523e607e589cbcb7a26918445e8b4b0364736f6c63430008110033",
  "libraries": {
    "UniswapV3Lib": "0xdb25C0af2d8D7Aa4e7A4d2f3AAe35B4EE99484b8",
    "ConverterStrategyBaseLib": "0x6b2ca816F59b3d66ded56A5aBE6f186Fa30650DA",
    "ConverterStrategyBaseLib2": "0xc989b6183E5af088FD04DB1A3C93bE69c8Ff25E0"
  },
  "devdoc": {
    "kind": "dev",
    "methods": {
      "closeDebt(ITetuConverter,address,IUniswapV3Pool,address,address,uint256,uint256,uint256,address)": {
        "details": "Closes the debt positions for the given token pair.",
        "params": {
          "controller": "The controller address.",
          "pool": "The IUniswapV3Pool instance.",
          "tetuConverter": "The ITetuConverter instance.",
          "tokenA": "The address of tokenA.",
          "tokenB": "The address of tokenB."
        }
      },
      "getDebtTotalCollateralAmountOut(ITetuConverter,address,address)": {
        "details": "Returns the total collateral amount out for the given token pair.",
        "params": {
          "tetuConverter": "The ITetuConverter instance.",
          "tokenA": "The address of tokenA.",
          "tokenB": "The address of tokenB."
        },
        "returns": {
          "totalCollateralAmountOut": "The total collateral amount out for the token pair."
        }
      },
      "getDebtTotalDebtAmountOut(ITetuConverter,address,address)": {
        "details": "Returns the total debt amount out for the given token pair.",
        "params": {
          "tetuConverter": "The ITetuConverter instance.",
          "tokenA": "The address of tokenA.",
          "tokenB": "The address of tokenB."
        },
        "returns": {
          "totalDebtAmountOut": "The total debt amount out for the token pair."
        }
      },
      "needCloseDebt(uint256,ITetuConverter,address)": {
        "details": "we close debt only if it is more than $0.1"
      },
      "rebalanceDebt(ITetuConverter,address,UniswapV3ConverterStrategyLogicLib.State storage,uint256,uint256,uint256,address)": {
        "details": "Rebalances the debt by either filling up or closing and reopening debt positions. Sets new tick range."
      }
    },
    "stateVariables": {
      "BORROW_PERIOD_ESTIMATION": {
        "details": "should be placed local, probably will be adjusted later"
      }
    },
    "version": 1
  },
  "userdoc": {
    "kind": "user",
    "methods": {},
    "version": 1
  },
  "storageLayout": {
    "storage": [],
    "types": null
  }
}