{
  "address": "0x08842e82E783Cf808d4b5b5efA17224433953e6d",
  "abi": [
    {
      "anonymous": false,
      "inputs": [],
      "name": "DisableFuse",
      "type": "event"
    },
    {
      "anonymous": false,
      "inputs": [],
      "name": "FuseTriggered",
      "type": "event"
    },
    {
      "anonymous": false,
      "inputs": [
        {
          "indexed": false,
          "internalType": "uint256",
          "name": "newFuseThreshold",
          "type": "uint256"
        }
      ],
      "name": "NewFuseThreshold",
      "type": "event"
    },
    {
      "anonymous": false,
      "inputs": [],
      "name": "Rebalanced",
      "type": "event"
    },
    {
      "inputs": [],
      "name": "DEFAULT_FUSE_THRESHOLD",
      "outputs": [
        {
          "internalType": "uint256",
          "name": "",
          "type": "uint256"
        }
      ],
      "stateMutability": "view",
      "type": "function"
    },
    {
      "inputs": [
        {
          "internalType": "contract IUniswapV3Pool",
          "name": "pool",
          "type": "IUniswapV3Pool"
        },
        {
          "internalType": "int24",
          "name": "tickRange_",
          "type": "int24"
        },
        {
          "internalType": "int24",
          "name": "rebalanceTickRange_",
          "type": "int24"
        },
        {
          "internalType": "address",
          "name": "asset_",
          "type": "address"
        }
      ],
      "name": "calcInitialDepositorValues",
      "outputs": [
        {
          "internalType": "int24",
          "name": "tickSpacing",
          "type": "int24"
        },
        {
          "internalType": "int24",
          "name": "lowerTick",
          "type": "int24"
        },
        {
          "internalType": "int24",
          "name": "upperTick",
          "type": "int24"
        },
        {
          "internalType": "address",
          "name": "tokenA",
          "type": "address"
        },
        {
          "internalType": "address",
          "name": "tokenB",
          "type": "address"
        },
        {
          "internalType": "bool",
          "name": "_depositorSwapTokens",
          "type": "bool"
        }
      ],
      "stateMutability": "view",
      "type": "function"
    },
    {
      "inputs": [
        {
          "internalType": "contract IUniswapV3Pool",
          "name": "pool",
          "type": "IUniswapV3Pool"
        },
        {
          "internalType": "int24",
          "name": "lowerTick",
          "type": "int24"
        },
        {
          "internalType": "int24",
          "name": "upperTick",
          "type": "int24"
        },
        {
          "internalType": "int24",
          "name": "tickSpacing",
          "type": "int24"
        },
        {
          "internalType": "bool",
          "name": "depositorSwapTokens",
          "type": "bool"
        }
      ],
      "name": "getEntryData",
      "outputs": [
        {
          "internalType": "bytes",
          "name": "entryData",
          "type": "bytes"
        }
      ],
      "stateMutability": "view",
      "type": "function"
    },
    {
      "inputs": [
        {
          "internalType": "contract ITetuConverter",
          "name": "converter",
          "type": "ITetuConverter"
        },
        {
          "internalType": "address",
          "name": "tokenA",
          "type": "address"
        },
        {
          "internalType": "address",
          "name": "tokenB",
          "type": "address"
        }
      ],
      "name": "getOracleAssetsPrice",
      "outputs": [
        {
          "internalType": "uint256",
          "name": "",
          "type": "uint256"
        }
      ],
      "stateMutability": "view",
      "type": "function"
    },
    {
      "inputs": [
        {
          "internalType": "contract IUniswapV3Pool",
          "name": "pool",
          "type": "IUniswapV3Pool"
        }
      ],
      "name": "isStablePool",
      "outputs": [
        {
          "internalType": "bool",
          "name": "",
          "type": "bool"
        }
      ],
      "stateMutability": "view",
      "type": "function"
    },
    {
      "inputs": [
        {
          "internalType": "bool",
          "name": "isFuseTriggered",
          "type": "bool"
        },
        {
          "internalType": "contract IUniswapV3Pool",
          "name": "pool",
          "type": "IUniswapV3Pool"
        },
        {
          "internalType": "int24",
          "name": "lowerTick",
          "type": "int24"
        },
        {
          "internalType": "int24",
          "name": "upperTick",
          "type": "int24"
        },
        {
          "internalType": "int24",
          "name": "tickSpacing",
          "type": "int24"
        },
        {
          "internalType": "int24",
          "name": "rebalanceTickRange",
          "type": "int24"
        }
      ],
      "name": "needRebalance",
      "outputs": [
        {
          "internalType": "bool",
          "name": "",
          "type": "bool"
        }
      ],
      "stateMutability": "view",
      "type": "function"
    },
    {
      "inputs": [
        {
          "internalType": "contract IUniswapV3Pool",
          "name": "pool",
          "type": "IUniswapV3Pool"
        },
        {
          "internalType": "int24",
          "name": "lowerTick",
          "type": "int24"
        },
        {
          "internalType": "int24",
          "name": "upperTick",
          "type": "int24"
        },
        {
          "internalType": "int24",
          "name": "lowerTickFillup",
          "type": "int24"
        },
        {
          "internalType": "int24",
          "name": "upperTickFillup",
          "type": "int24"
        },
        {
          "internalType": "uint128",
          "name": "liquidity",
          "type": "uint128"
        },
        {
          "internalType": "uint128",
          "name": "liquidityFillup",
          "type": "uint128"
        },
        {
          "internalType": "uint128",
          "name": "liquidityAmountToExit",
          "type": "uint128"
        },
        {
          "internalType": "bool",
          "name": "_depositorSwapTokens",
          "type": "bool"
        }
      ],
      "name": "quoteExit",
      "outputs": [
        {
          "internalType": "uint256[]",
          "name": "amountsOut",
          "type": "uint256[]"
        }
      ],
      "stateMutability": "view",
      "type": "function"
    }
  ],
  "transactionHash": "0x0eb8ddb4dc96c47f109a30b3d758289b14b57c4d08172ebe1dffae1e665705fb",
  "args": [],
  "numDeployments": 1,
  "solcInputHash": "c59f7e8a32e735828e193e20f2f070bc",
  "bytecode": "0x61534761003a600b82828239805160001a60731461002d57634e487b7160e01b600052600060045260246000fd5b30600052607381538281f3fe73000000000000000000000000000000000000000030146080604052600436106101365760003560e01c80637fd6c0a1116100b7578063c68bc7031161007b578063c68bc7031461038a578063ce74e5d91461039d578063d4ca283a146103ab578063e3bca2d8146103cd578063f460770b146103ed57600080fd5b80637fd6c0a1146102aa57806380089367146102cb5780638c64d455146102fa578063915a3eb414610329578063b24d8db01461035c57600080fd5b8063345aec36116100fe578063345aec361461022e57806345e113c01461024157806354747e5b1461026157806357d59aae146102845780635ca1bcdf1461029757600080fd5b806305d408941461013b5780630a65e5e714610197578063190fa314146101b7578063302c4550146101df57806333fdd81d146101ff575b600080fd5b61014e610149366004614542565b610402565b60408051600297880b815295870b60208701529390950b928401929092526001600160a01b03908116606084015216608082015290151560a082015260c0015b60405180910390f35b6101aa6101a536600461459e565b6109f5565b60405161018e91906145f2565b6101ca6101c536600461459e565b610e0d565b6040805192835260208301919091520161018e565b6101f26101ed36600461462a565b610ef1565b60405161018e91906146e1565b81801561020b57600080fd5b5061021f61021a366004614714565b611190565b60405161018e939291906147d0565b6101ca61023c36600461459e565b6115a1565b81801561024d57600080fd5b506101aa61025c366004614803565b611769565b61027461026f36600461489a565b611b23565b604051901515815260200161018e565b6102746102923660046148b7565b611b96565b6102746102a5366004614939565b611cc3565b6102bd6102b8366004614969565b611f33565b60405190815260200161018e565b8180156102d757600080fd5b506102eb6102e63660046149ca565b612103565b60405161018e93929190614ae2565b81801561030657600080fd5b5061031a610315366004614b14565b6123af565b60405161018e93929190614b82565b61033c610337366004614ba8565b612926565b60408051948552602085019390935291830152606082015260800161018e565b81801561036857600080fd5b5061037c610377366004614bca565b612a40565b60405161018e929190614c12565b6101aa610398366004614714565b612fe2565b6102bd6611c37937e0800081565b8180156103b757600080fd5b506103cb6103c6366004614c36565b6132c9565b005b8180156103d957600080fd5b506103cb6103e836600461459e565b61352c565b8180156103f957600080fd5b506103cb613562565b60008060008060008073Af5D2754b28EADfe7B9c0415Cd8b66545B35b9cC63ea8668158b6001600160a01b031663ddca3f436040518163ffffffff1660e01b8152600401602060405180830381865afa158015610463573d6000803e3d6000fd5b505050506040513d601f19601f820116820180604052508101906104879190614c5d565b6040516001600160e01b031960e084901b16815262ffffff9091166004820152602401602060405180830381865af41580156104c7573d6000803e3d6000fd5b505050506040513d601f19601f820116820180604052508101906104eb9190614c82565b955060008a6001600160a01b0316633850c7bd6040518163ffffffff1660e01b815260040160e060405180830381865afa15801561052d573d6000803e3d6000fd5b505050506040513d601f19601f820116820180604052508101906105519190614cc2565b50505050509150508960020b60000361058c578661056f8183614d7d565b6105799190614db7565b95506105858787614dde565b945061069e565b86610597818c614d7d565b6105a19190614db7565b60020b8a60020b146105f05760405162461bcd60e51b8152602060048201526013602482015272496e636f7272656374207469636b52616e676560681b60448201526064015b60405180910390fd5b866105fb818b614d7d565b6106059190614db7565b60020b8960020b146106595760405162461bcd60e51b815260206004820152601c60248201527f496e636f727265637420726562616c616e63655469636b52616e67650000000060448201526064016105e7565b86806106658c84614e03565b61066f9190614d7d565b6106799190614db7565b955086806106878c84614dde565b6106919190614d7d565b61069b9190614db7565b94505b8a6001600160a01b0316630dfe16816040518163ffffffff1660e01b8152600401602060405180830381865afa1580156106dc573d6000803e3d6000fd5b505050506040513d601f19601f820116820180604052508101906107009190614e28565b6001600160a01b0316886001600160a01b0316148061079157508a6001600160a01b031663d21220a76040518163ffffffff1660e01b8152600401602060405180830381865afa158015610758573d6000803e3d6000fd5b505050506040513d601f19601f8201168201806040525081019061077c9190614e28565b6001600160a01b0316886001600160a01b0316145b6107cf5760405162461bcd60e51b815260206004820152600f60248201526e125b98dbdc9c9958dd08185cdcd95d608a1b60448201526064016105e7565b8a6001600160a01b0316630dfe16816040518163ffffffff1660e01b8152600401602060405180830381865afa15801561080d573d6000803e3d6000fd5b505050506040513d601f19601f820116820180604052508101906108319190614e28565b6001600160a01b0316886001600160a01b03160361091a578a6001600160a01b0316630dfe16816040518163ffffffff1660e01b8152600401602060405180830381865afa158015610887573d6000803e3d6000fd5b505050506040513d601f19601f820116820180604052508101906108ab9190614e28565b93508a6001600160a01b031663d21220a76040518163ffffffff1660e01b8152600401602060405180830381865afa1580156108eb573d6000803e3d6000fd5b505050506040513d601f19601f8201168201806040525081019061090f9190614e28565b9250600091506109e7565b8a6001600160a01b031663d21220a76040518163ffffffff1660e01b8152600401602060405180830381865afa158015610958573d6000803e3d6000fd5b505050506040513d601f19601f8201168201806040525081019061097c9190614e28565b93508a6001600160a01b0316630dfe16816040518163ffffffff1660e01b8152600401602060405180830381865afa1580156109bc573d6000803e3d6000fd5b505050506040513d601f19601f820116820180604052508101906109e09190614e28565b9250600191505b509499939850945094509450565b604080516002808252606080830184529260208301908036833701905050905060008260020160009054906101000a90046001600160a01b03166001600160a01b0316633850c7bd6040518163ffffffff1660e01b815260040160e060405180830381865afa158015610a6c573d6000803e3d6000fd5b505050506040513d601f19601f82011682018060405250810190610a909190614cc2565b505050506002868101546003880154604051630544f36560e31b815295965073Af5D2754b28EADfe7B9c0415Cd8b66545B35b9cC95632a279b289550610b0094508793600160c81b8404810b93600160e01b9004900b91600160501b90046001600160801b031690600401614e45565b6040805180830381865af4158015610b1c573d6000803e3d6000fd5b505050506040513d601f19601f82011682018060405250810190610b409190614e78565b83600081518110610b5357610b53614e9c565b6020026020010184600181518110610b6d57610b6d614e9c565b6020908102919091010191909152526003830154600480850154604051630544f36560e31b8152600093849373Af5D2754b28EADfe7B9c0415Cd8b66545B35b9cC93632a279b2893610bde938993600282810b946301000000909304900b926001600160801b039092169101614e45565b6040805180830381865af4158015610bfa573d6000803e3d6000fd5b505050506040513d601f19601f82011682018060405250810190610c1e9190614e78565b91509150600080610c2e876115a1565b91509150610cb38760020160009054906101000a90046001600160a01b03166001600160a01b0316630dfe16816040518163ffffffff1660e01b8152600401602060405180830381865afa158015610c8a573d6000803e3d6000fd5b505050506040513d601f19601f82011682018060405250810190610cae9190614e28565b61358d565b610cbd8386614eb2565b610cc79190614eb2565b86600081518110610cda57610cda614e9c565b60200260200101818151610cee9190614eb2565b90525060028701546040805163d21220a760e01b81529051610d3e926001600160a01b03169163d21220a79160048083019260209291908290030181865afa158015610c8a573d6000803e3d6000fd5b610d488285614eb2565b610d529190614eb2565b86600181518110610d6557610d65614e9c565b60200260200101818151610d799190614eb2565b9052506003870154600160481b900460ff1615610e035785600181518110610da357610da3614e9c565b602002602001015186600081518110610dbe57610dbe614e9c565b602002602001015187600081518110610dd957610dd9614e9c565b6020026020010188600181518110610df357610df3614e9c565b6020908102919091010191909152525b5050505050919050565b600381015481546000918291600160481b90910460ff1690610e37906001600160a01b031661358d565b6001850154909350610e51906001600160a01b031661358d565b9150600081610e64578460050154610e6a565b84600601545b9050600082610e7d578560060154610e83565b85600501545b9050818510158015610e955750808410155b610ed15760405162461bcd60e51b815260206004820152600d60248201526c57726f6e672062616c616e636560981b60448201526064016105e7565b610edb8286614ec5565b9450610ee78185614ec5565b9350505050915091565b60606000866001600160a01b031663d21220a76040518163ffffffff1660e01b8152600401602060405180830381865afa158015610f33573d6000803e3d6000fd5b505050506040513d601f19601f82011682018060405250810190610f579190614e28565b9050600073Af5D2754b28EADfe7B9c0415Cd8b66545B35b9cC63ac41865a89846040518363ffffffff1660e01b8152600401610f94929190614ed8565b602060405180830381865af4158015610fb1573d6000803e3d6000fd5b505050506040513d601f19601f82011682018060405250810190610fd59190614ef2565b9050610fe3888888886135f8565b80975081985050506000826001600160a01b031663313ce5676040518163ffffffff1660e01b8152600401602060405180830381865afa15801561102b573d6000803e3d6000fd5b505050506040513d601f19601f8201168201806040525081019061104f9190614f0b565b60ff16905081600061106283600a61500a565b905060008073Af5D2754b28EADfe7B9c0415Cd8b66545B35b9cC6317c22c3c8e8e8e88886040518663ffffffff1660e01b81526004016110a6959493929190615016565b606060405180830381865af41580156110c3573d6000803e3d6000fd5b505050506040513d601f19601f820116820180604052508101906110e7919061504a565b5091509150881561113a576001836110ff8884615078565b611109919061508f565b6040805160ff9093166020840152820152606081018390526080016040516020818303038152906040529750611180565b600182846111488985615078565b611152919061508f565b6040805160ff9094166020850152830191909152606082015260800160405160208183030381529060405297505b5050505050505095945050505050565b60408051600280825260608281019093526000918291816020016020820280368337505060405163a34123a760e01b8152919450506001600160a01b038d169063a34123a7906111e8908e908e908a90600401614b82565b60408051808303816000875af1158015611206573d6000803e3d6000fd5b505050506040513d601f19601f8201168201806040525081019061122a9190614e78565b8460008151811061123d5761123d614e9c565b602002602001018560018151811061125757611257614e9c565b6020908102919091010191909152526040516309e3d67b60e31b81526001600160a01b038d1690634f1eb3d8906112a19030908f908f906001600160801b039081906004016150a3565b60408051808303816000875af11580156112bf573d6000803e3d6000fd5b505050506040513d601f19601f820116820180604052508101906112e391906150e0565b50506001600160801b038616156114b957600087611301878961510f565b61130b919061513a565b90506000808e6001600160a01b031663a34123a78d8d866040518463ffffffff1660e01b815260040161134093929190614b82565b60408051808303816000875af115801561135e573d6000803e3d6000fd5b505050506040513d601f19601f820116820180604052508101906113829190614e78565b915091508e6001600160a01b0316634f1eb3d8308e8e6001600160801b03806040518663ffffffff1660e01b81526004016113c19594939291906150a3565b60408051808303816000875af11580156113df573d6000803e3d6000fd5b505050506040513d601f19601f8201168201806040525081019061140391906150e0565b5050818660008151811061141957611419614e9c565b6020026020010181815161142d9190614eb2565b905250855181908790600190811061144757611447614e9c565b6020026020010181815161145b9190614eb2565b9052506001600160801b03808416908a1610156114a95760405162461bcd60e51b815260206004820152600c60248201526b057726f6e672066696c6c75760a41b60448201526064016105e7565b6114b3838a615160565b93505050505b846001600160801b0316876001600160801b0316101561150d5760405162461bcd60e51b815260206004820152600f60248201526e57726f6e67206c697175696469747960881b60448201526064016105e7565b6115178588615160565b91508315611592578260018151811061153257611532614e9c565b60200260200101518360008151811061154d5761154d614e9c565b60200260200101518460008151811061156857611568614e9c565b602002602001018560018151811061158257611582614e9c565b6020908102919091010191909152525b99509950999650505050505050565b6040805160a0810182526002838101546001600160a01b0381168352600160c81b8104820b6020840152600160e01b9004900b818301526003830154600160501b90046001600160801b0316606082015230608082015290516352bb7e6960e01b8152600091829173Af5D2754b28EADfe7B9c0415Cd8b66545B35b9cC906352bb7e6990611633908490600401615180565b6040805180830381865af415801561164f573d6000803e3d6000fd5b505050506040513d601f19601f820116820180604052508101906116739190614e78565b6040805160a0810182526002808901546001600160a01b03168252600389015480820b602084015263010000009004900b818301526004808901546001600160801b0316606083015230608083015291516352bb7e6960e01b81529396509194509091600091829173Af5D2754b28EADfe7B9c0415Cd8b66545B35b9cC916352bb7e699161170391879101615180565b6040805180830381865af415801561171f573d6000803e3d6000fd5b505050506040513d601f19601f820116820180604052508101906117439190614e78565b90925090506117528287614eb2565b955061175e8186614eb2565b945050505050915091565b6040805160028082526060808301845292602083019080368337505060405163a34123a760e01b8152919250506001600160a01b038a169063a34123a7906117ba908b908b90600090600401614b82565b60408051808303816000875af11580156117d8573d6000803e3d6000fd5b505050506040513d601f19601f820116820180604052508101906117fc9190614e78565b50506040516309e3d67b60e31b81526001600160a01b038a1690634f1eb3d8906118399030908c908c906001600160801b039081906004016150a3565b60408051808303816000875af1158015611857573d6000803e3d6000fd5b505050506040513d601f19601f8201168201806040525081019061187b91906150e0565b816001600160801b03169150806001600160801b03169050826000815181106118a6576118a6614e9c565b60200260200101836001815181106118c0576118c0614e9c565b60200260200101828152508281525050508460020b8660020b14611a455760405163a34123a760e01b81526001600160a01b038a169063a34123a79061190f9089908990600090600401614b82565b60408051808303816000875af115801561192d573d6000803e3d6000fd5b505050506040513d601f19601f820116820180604052508101906119519190614e78565b50506000808a6001600160a01b0316634f1eb3d8308a8a6001600160801b03806040518663ffffffff1660e01b81526004016119919594939291906150a3565b60408051808303816000875af11580156119af573d6000803e3d6000fd5b505050506040513d601f19601f820116820180604052508101906119d391906150e0565b6001600160801b031691506001600160801b0316915081836000815181106119fd576119fd614e9c565b60200260200101818151611a119190614eb2565b9052508251819084906001908110611a2b57611a2b614e9c565b60200260200101818151611a3f9190614eb2565b90525050505b8381600081518110611a5957611a59614e9c565b60200260200101818151611a6d9190614eb2565b9052508051839082906001908110611a8757611a87614e9c565b60200260200101818151611a9b9190614eb2565b9052508115611b175780600181518110611ab757611ab7614e9c565b602002602001015181600081518110611ad257611ad2614e9c565b602002602001015182600081518110611aed57611aed614e9c565b6020026020010183600181518110611b0757611b07614e9c565b6020908102919091010191909152525b98975050505050505050565b6000816001600160a01b031663ddca3f436040518163ffffffff1660e01b8152600401602060405180830381865afa158015611b63573d6000803e3d6000fd5b505050506040513d601f19601f82011682018060405250810190611b879190614c5d565b62ffffff166064149050919050565b60008615611ba657506000611cb9565b6000866001600160a01b0316633850c7bd6040518163ffffffff1660e01b815260040160e060405180830381865afa158015611be6573d6000803e3d6000fd5b505050506040513d601f19601f82011682018060405250810190611c0a9190614cc2565b50505050509150508360020b8686611c229190614e03565b60020b03611c4c578560020b8160020b1280611c4457508460020b8160020b12155b915050611cb9565b60006002611c5a8888614e03565b611c649190614d7d565b90506000611c728289614dde565b90508060020b8360020b1315611ca057600285900b611c918285614e03565b60020b12159350505050611cb9565b600285900b611caf8483614e03565b60020b1393505050505b9695505050505050565b6000806000611cd1856115a1565b91509150846005015482611ce59190614eb2565b9150846006015481611cf79190614eb2565b6003860154909150600160481b900460ff1615611d1057905b845460018601546040805163f77c479160e01b815290516001600160a01b0393841693928316926000929089169163f77c4791916004808201926020929091908290030181865afa158015611d69573d6000803e3d6000fd5b505050506040513d601f19601f82011682018060405250810190611d8d9190614e28565b6001600160a01b0316632630c12f6040518163ffffffff1660e01b8152600401602060405180830381865afa158015611dca573d6000803e3d6000fd5b505050506040513d601f19601f82011682018060405250810190611dee9190614e28565b60405163b3596f0760e01b81526001600160a01b03858116600483015291925060009183169063b3596f0790602401602060405180830381865afa158015611e3a573d6000803e3d6000fd5b505050506040513d601f19601f82011682018060405250810190611e5e9190614ef2565b60405163b3596f0760e01b81526001600160a01b03858116600483015291925060009184169063b3596f0790602401602060405180830381865afa158015611eaa573d6000803e3d6000fd5b505050506040513d601f19601f82011682018060405250810190611ece9190614ef2565b90506000670de0b6b3a7640000611ee5848a615078565b611eef919061508f565b90506000670de0b6b3a7640000611f06848a615078565b611f10919061508f565b90506064821180611f215750606481115b99505050505050505050505b92915050565b600080846001600160a01b031663f77c47916040518163ffffffff1660e01b8152600401602060405180830381865afa158015611f74573d6000803e3d6000fd5b505050506040513d601f19601f82011682018060405250810190611f989190614e28565b6001600160a01b0316632630c12f6040518163ffffffff1660e01b8152600401602060405180830381865afa158015611fd5573d6000803e3d6000fd5b505050506040513d601f19601f82011682018060405250810190611ff99190614e28565b60405163b3596f0760e01b81526001600160a01b03868116600483015291925060009183169063b3596f0790602401602060405180830381865afa158015612045573d6000803e3d6000fd5b505050506040513d601f19601f820116820180604052508101906120699190614ef2565b60405163b3596f0760e01b81526001600160a01b03868116600483015291925060009184169063b3596f0790602401602060405180830381865afa1580156120b5573d6000803e3d6000fd5b505050506040513d601f19601f820116820180604052508101906120d99190614ef2565b9050816120ee82670de0b6b3a7640000615078565b6120f8919061508f565b979650505050505050565b6040805160028082526060828101909352600091829181602001602082028036833701905050925083156121a4578560018151811061214457612144614e9c565b60200260200101518660008151811061215f5761215f614e9c565b60200260200101518760008151811061217a5761217a614e9c565b602002602001018860018151811061219457612194614e9c565b6020908102919091010191909152525b600073Af5D2754b28EADfe7B9c0415Cd8b66545B35b9cC6317c22c3c8b8b8b8b6000815181106121d6576121d6614e9c565b60200260200101518c6001815181106121f1576121f1614e9c565b60200260200101516040518663ffffffff1660e01b8152600401612219959493929190615016565b606060405180830381865af4158015612236573d6000803e3d6000fd5b505050506040513d601f19601f8201168201806040525081019061225a919061504a565b8660008151811061226d5761226d614e9c565b602002602001018760018151811061228757612287614e9c565b6020908102919091010192909252919052604051633c8a7d8d60e01b81529091506001600160a01b038b1690633c8a7d8d906122cd9030908d908d9087906004016151d5565b60408051808303816000875af11580156122eb573d6000803e3d6000fd5b505050506040513d601f19601f8201168201806040525081019061230f9190614e78565b50506001600160801b03811692506123278187615217565b915084156123a2578360018151811061234257612342614e9c565b60200260200101518460008151811061235d5761235d614e9c565b60200260200101518560008151811061237857612378614e9c565b602002602001018660018151811061239257612392614e9c565b6020908102919091010191909152525b5096509650969350505050565b6000806000806123f68a6001600160a01b0316630dfe16816040518163ffffffff1660e01b8152600401602060405180830381865afa158015610c8a573d6000803e3d6000fd5b9050600061243b8b6001600160a01b031663d21220a76040518163ffffffff1660e01b8152600401602060405180830381865afa158015610c8a573d6000803e3d6000fd5b905086821015801561244d5750858110155b6124855760405162461bcd60e51b815260206004820152600960248201526857726f6e672066656560b81b60448201526064016105e7565b61248f8783614ec5565b915061249b8682614ec5565b905060008b6001600160a01b0316633850c7bd6040518163ffffffff1660e01b815260040160e060405180830381865afa1580156124dd573d6000803e3d6000fd5b505050506040513d601f19601f820116820180604052508101906125019190614cc2565b50505050509150508b6001600160a01b031663d21220a76040518163ffffffff1660e01b8152600401602060405180830381865afa158015612547573d6000803e3d6000fd5b505050506040513d601f19601f8201168201806040525081019061256b9190614e28565b6001600160a01b031663313ce5676040518163ffffffff1660e01b8152600401602060405180830381865afa1580156125a8573d6000803e3d6000fd5b505050506040513d601f19601f820116820180604052508101906125cc9190614f0b565b6125d790600a615237565b73Af5D2754b28EADfe7B9c0415Cd8b66545B35b9cC63ac41865a8e8f6001600160a01b031663d21220a76040518163ffffffff1660e01b8152600401602060405180830381865afa158015612630573d6000803e3d6000fd5b505050506040513d601f19601f820116820180604052508101906126549190614e28565b6040518363ffffffff1660e01b8152600401612671929190614ed8565b602060405180830381865af415801561268e573d6000803e3d6000fd5b505050506040513d601f19601f820116820180604052508101906126b29190614ef2565b6126bc9084615078565b6126c6919061508f565b8311156127f45788806126d98184614d7d565b6126e39190614db7565b6126ed9190614dde565b6040516305f08b0f60e21b81529096508a955073Af5D2754b28EADfe7B9c0415Cd8b66545B35b9cC906317c22c3c90612733908f908a908a908990600090600401615016565b606060405180830381865af4158015612750573d6000803e3d6000fd5b505050506040513d601f19601f82011682018060405250810190612774919061504a565b604051633c8a7d8d60e01b81529096506001600160a01b038f169250633c8a7d8d91506127ab9030908a908a908a906004016151d5565b60408051808303816000875af11580156127c9573d6000803e3d6000fd5b505050506040513d601f19601f820116820180604052508101906127ed9190614e78565b5050612917565b8a955088806128038184614d7d565b61280d9190614db7565b6128179190614e03565b6040516305f08b0f60e21b815290955073Af5D2754b28EADfe7B9c0415Cd8b66545B35b9cC906317c22c3c9061285a908f908a908a906000908990600401615016565b606060405180830381865af4158015612877573d6000803e3d6000fd5b505050506040513d601f19601f8201168201806040525081019061289b919061504a565b604051633c8a7d8d60e01b81529096506001600160a01b038f169250633c8a7d8d91506128d29030908a908a908a906004016151d5565b60408051808303816000875af11580156128f0573d6000803e3d6000fd5b505050506040513d601f19601f820116820180604052508101906129149190614e78565b50505b50505096509650969350505050565b8154600183015460038401546001600160a01b039283166000818152602086905260408082205495909416808252938120549094859485948594939192600160481b90910460ff1691858361297f578b60050154612985565b8b600601545b61298e8761358d565b6129989190614ec5565b90506000846129ab578c600601546129b1565b8c600501545b6129ba8761358d565b6129c49190614ec5565b90508184116129dc576129d78483614ec5565b6129df565b60005b9a508184116129ef5760006129f9565b6129f98285614ec5565b9950808311612a1157612a0c8382614ec5565b612a14565b60005b9850808311612a24576000612a2e565b612a2e8184614ec5565b97505050505050505092959194509250565b60408051600080825261028082018352600280880154600160e01b8104820b60208501818152600160c81b8304840b968601879052600160a01b8304840b606087018190526001600160a01b03808516608089018190528d54821660a08a015260018e015490911660c0890152600a8d015460e089015260098d015461010089015260038d015460ff600160481b8204811615156101208b015260058f01546101408b015260068f01546101608b01526101808a018990526101a08a018990526101c08a018990526101e08a018990526102008a01899052600160b81b8704811615156102208b0152600160c01b909604861615156102408a0152610260890188905260088e0154989997989397612b70979490961695919491939192916601000000000000909104900b611b96565b612bb45760405162461bcd60e51b8152602060048201526015602482015274139bc81c9958985b185b98da5b99c81b9959591959605a1b60448201526064016105e7565b612bc78682608001518360a00151611f33565b6102408201526102208101518015612bf25750612bf28160c001518261024001518360e00151613711565b15612c9e5760088701805460ff191660011790556040517fb224dccea3c30282a142bed3cedb7af1657907dea7dc2828fb9ce06007f3159490600090a1612c678686836060015184608001518560a00151866101000151876101200151886101400151612c628a60600151613740565b61375f565b6101208101516101608201526101408101516101808201526020810151600290810b6101c08301528151900b6101e0820152612faf565b80610220015115612cb557610240810151600a8801555b73bF69AC08aCDAd8769E7010337E060C31891C1Fb26332e8d30f8787846060015185608001518660a00151876102000151886101000151612cfb57886101200151612d02565b8861014001515b896101000151612d1757896101400151612d1e565b8961012001515b612d408b606001518c602001518d600001518e604001518f6101000151610ef1565b612d4d8c60600151613740565b6040518b63ffffffff1660e01b8152600401612d729a99989796959493929190615246565b60006040518083038186803b158015612d8a57600080fd5b505af4158015612d9e573d6000803e3d6000fd5b50505050612e286040518060e0016040528083606001516001600160a01b0316815260200183608001516001600160a01b031681526020018360a001516001600160a01b03168152602001836101000151151581526020018361012001518152602001836101400151815260200186815250612e238884608001518560a0015161379e565b613824565b6101a084018190526101808401829052610160840183905260058a0192909255600689015515612e7157806101a00151876007016000828254612e6b9190614eb2565b90915550505b612e8d81606001518260200151836000015184604001516135f8565b600281810b6101e085015282810b6101c0850152898101805465ffffffffffff60c81b1916600160c81b62ffffff9586160262ffffff60e01b191617600160e01b949093169390930291909117909155604080518281526060810182529190602083019080368337019050509250806101000151612f1057806101600151612f17565b8061018001515b612f24826080015161358d565b612f2e9190614ec5565b83600081518110612f4157612f41614e9c565b602002602001018181525050806101000151612f6257806101800151612f69565b8061016001515b612f768260a0015161358d565b612f809190614ec5565b83600181518110612f9357612f93614e9c565b60200260200101818152505080610200015115612faf57600191505b6040517fc741dbaad15a4f298fe8d80943fa8e005e7bcb2f5b0a0c8dec1fc35be457f14690600090a15094509492505050565b604080516002808252606080830184529260208301908036833701905050905060008a6001600160a01b0316633850c7bd6040518163ffffffff1660e01b815260040160e060405180830381865afa158015613042573d6000803e3d6000fd5b505050506040513d601f19601f820116820180604052508101906130669190614cc2565b5050604051630544f36560e31b815294955073Af5D2754b28EADfe7B9c0415Cd8b66545B35b9cC94632a279b2894506130ac93508692508f91508e908a90600401614e45565b6040805180830381865af41580156130c8573d6000803e3d6000fd5b505050506040513d601f19601f820116820180604052508101906130ec9190614e78565b836000815181106130ff576130ff614e9c565b602002602001018460018151811061311957613119614e9c565b6020908102919091010191909152526001600160801b0386161580159061314957506000856001600160801b0316115b156132425760008073Af5D2754b28EADfe7B9c0415Cd8b66545B35b9cC632a279b28848c8c8c6131798c8e61510f565b613183919061513a565b6040518563ffffffff1660e01b81526004016131a29493929190614e45565b6040805180830381865af41580156131be573d6000803e3d6000fd5b505050506040513d601f19601f820116820180604052508101906131e29190614e78565b9150915081846000815181106131fa576131fa614e9c565b6020026020010181815161320e9190614eb2565b905250835181908590600190811061322857613228614e9c565b6020026020010181815161323c9190614eb2565b90525050505b82156132bb578160018151811061325b5761325b614e9c565b60200260200101518260008151811061327657613276614e9c565b60200260200101518360008151811061329157613291614e9c565b60200260200101846001815181106132ab576132ab614e9c565b6020908102919091010191909152525b509998505050505050505050565b6000826001600160a01b0316634046ebae6040518163ffffffff1660e01b8152600401602060405180830381865afa158015613309573d6000803e3d6000fd5b505050506040513d601f19601f8201168201806040525081019061332d9190614e28565b845460405163095ea7b360e01b81526001600160a01b038084166004830152600019602483015292935091169063095ea7b3906044016020604051808303816000875af1158015613382573d6000803e3d6000fd5b505050506040513d601f19601f820116820180604052508101906133a691906152bb565b50600184015460405163095ea7b360e01b81526001600160a01b03838116600483015260001960248301529091169063095ea7b3906044016020604051808303816000875af11580156133fd573d6000803e3d6000fd5b505050506040513d601f19601f8201168201806040525081019061342191906152bb565b5060028085015461343d91600160a01b909104900b6004614db7565b60028581015491810b9161346391600160c81b8204810b91600160e01b9004900b614e03565b6002868101805460ff60b81b1981169390920b9390931215600160b81b0291821790925561349e916001600160a01b03908116911617611b23565b156135265760028401805460ff60c01b1916600160c01b1790556611c37937e08000600985018190556040517fdf3e0a21768880619b1295cb9519494a0df71943ebb4ff056f72186cfcfb6d47916134f99190815260200190565b60405180910390a1835460018501546135209184916001600160a01b039182169116611f33565b600a8501555b50505050565b6040518181527fdf3e0a21768880619b1295cb9519494a0df71943ebb4ff056f72186cfcfb6d479060200160405180910390a150565b6040517f6b7ccec41cff3829e74e9b70bba25fca03418511799dd79dc80d774f15f35e1b90600090a1565b6040516370a0823160e01b81523060048201526000906001600160a01b038316906370a0823190602401602060405180830381865afa1580156135d4573d6000803e3d6000fd5b505050506040513d601f19601f82011682018060405250810190611f2d9190614ef2565b6000806000866001600160a01b0316633850c7bd6040518163ffffffff1660e01b815260040160e060405180830381865afa15801561363b573d6000803e3d6000fd5b505050506040513d601f19601f8201168201806040525081019061365f9190614cc2565b50505050509150508360020b86866136779190614e03565b60020b036136a7578361368a8183614d7d565b6136949190614db7565b92506136a08484614dde565b9150613707565b600060026136b58888614e03565b6136bf9190614d7d565b905084806136cd8385614e03565b6136d79190614d7d565b6136e19190614db7565b935084806136ef8385614dde565b6136f99190614d7d565b6137039190614db7565b9250505b5094509492505050565b600082841161372b57816137258585614ec5565b11613738565b816137368486614ec5565b115b949350505050565b600061374b82611b23565b613757576101f4611f2d565b606492915050565b60008461376c578361376e565b825b905060008561377d578361377f565b845b90506137918b8b8b8b8b87878a613ca1565b5050505050505050505050565b604051632424c79760e11b81523060048201526001600160a01b0383811660248301528281166044830152600091908516906348498f2e9060640160408051808303816000875af11580156137f7573d6000803e3d6000fd5b505050506040513d601f19601f8201168201806040525081019061381b9190614e78565b95945050505050565b608082015160a0830151606084015160009081906138425783613844565b825b9050600086606001516138575783613859565b845b905060008261386b896020015161358d565b6138759089614eb2565b61387f9190614ec5565b90508760c00151811015613c97576000818960c0015161389f9190614ec5565b90508381116138d4578860600151156138c3576138bc8187614ec5565b9550613c95565b6138cd8188614ec5565b9650613c95565b8860600151156138e757600095506138ec565b600096505b60008315613c865789604001516001600160a01b031663313ce5676040518163ffffffff1660e01b8152600401602060405180830381865afa158015613936573d6000803e3d6000fd5b505050506040513d601f19601f8201168201806040525081019061395a9190614f0b565b61396590600a615237565b8a516040808d01519051635620c32d60e11b8152879273Af5D2754b28EADfe7B9c0415Cd8b66545B35b9cC9263ac41865a926139a5929190600401614ed8565b602060405180830381865af41580156139c2573d6000803e3d6000fd5b505050506040513d601f19601f820116820180604052508101906139e69190614ef2565b6139f09190615078565b6139fa919061508f565b905081613a078287614eb2565b1115613c5357896060015115613b355789602001516001600160a01b031663313ce5676040518163ffffffff1660e01b8152600401602060405180830381865afa158015613a59573d6000803e3d6000fd5b505050506040513d601f19601f82011682018060405250810190613a7d9190614f0b565b613a8890600a615237565b8a5160208c0151604051635620c32d60e11b815273Af5D2754b28EADfe7B9c0415Cd8b66545B35b9cC9263ac41865a92613ac492600401614ed8565b602060405180830381865af4158015613ae1573d6000803e3d6000fd5b505050506040513d601f19601f82011682018060405250810190613b059190614ef2565b83613b108489614eb2565b613b1a9190614ec5565b613b249190615078565b613b2e919061508f565b9750613c93565b89602001516001600160a01b031663313ce5676040518163ffffffff1660e01b8152600401602060405180830381865afa158015613b77573d6000803e3d6000fd5b505050506040513d601f19601f82011682018060405250810190613b9b9190614f0b565b613ba690600a615237565b8a5160208c0151604051635620c32d60e11b815273Af5D2754b28EADfe7B9c0415Cd8b66545B35b9cC9263ac41865a92613be292600401614ed8565b602060405180830381865af4158015613bff573d6000803e3d6000fd5b505050506040513d601f19601f82011682018060405250810190613c239190614ef2565b83613c2e8489614eb2565b613c389190614ec5565b613c429190615078565b613c4c919061508f565b9650613c93565b80613c5e8684614ec5565b613c689190614ec5565b9550896060015115613c7d5760009750613c93565b60009650613c93565b613c908583614ec5565b95505b505b505b5050509250925092565b6000613cae898787614495565b90506000613cbb8761358d565b90506000613cc88761358d565b9050858210158015613cda5750848110155b613d165760405162461bcd60e51b815260206004820152600d60248201526c57726f6e672062616c616e636560981b60448201526064016105e7565b613d208683614ec5565b9150613d2c8582614ec5565b9050828110156142f557604051635620c32d60e11b815260009073Af5D2754b28EADfe7B9c0415Cd8b66545B35b9cC9063ac41865a90613d72908d908c90600401614ed8565b602060405180830381865af4158015613d8f573d6000803e3d6000fd5b505050506040513d601f19601f82011682018060405250810190613db39190614ef2565b90506000886001600160a01b031663313ce5676040518163ffffffff1660e01b8152600401602060405180830381865afa158015613df5573d6000803e3d6000fd5b505050506040513d601f19601f82011682018060405250810190613e199190614f0b565b613e2490600a615237565b613e2e8487614ec5565b613e389084615078565b613e42919061508f565b9050613e4f60648261508f565b613e599082614eb2565b905083811015613f4d5773301Be1652dC990D0237140797b3a71110C6131c863e89a4b188d6001600160a01b0316634046ebae6040518163ffffffff1660e01b8152600401602060405180830381865afa158015613ebb573d6000803e3d6000fd5b505050506040513d601f19601f82011682018060405250810190613edf9190614e28565b8c8c858b60006040518763ffffffff1660e01b8152600401613f06969594939291906152d8565b6040805180830381865af4158015613f22573d6000803e3d6000fd5b505050506040513d601f19601f82011682018060405250810190613f469190614e78565b50506142f2565b73301Be1652dC990D0237140797b3a71110C6131c863e89a4b188d6001600160a01b0316634046ebae6040518163ffffffff1660e01b8152600401602060405180830381865afa158015613fa5573d6000803e3d6000fd5b505050506040513d601f19601f82011682018060405250810190613fc99190614e28565b8c8c888b60006040518763ffffffff1660e01b8152600401613ff0969594939291906152d8565b6040805180830381865af415801561400c573d6000803e3d6000fd5b505050506040513d601f19601f820116820180604052508101906140309190614e78565b505073301Be1652dC990D0237140797b3a71110C6131c863954d7e738e8c8c8b6140598f61358d565b6140639190614ec5565b6040516001600160e01b031960e087901b1681526001600160a01b03948516600482015292841660248401529216604482015260648101919091526084016040805180830381865af41580156140bd573d6000803e3d6000fd5b505050506040513d601f19601f820116820180604052508101906140e19190614e78565b50506140ee8d8b8b614495565b945084156142f257604051635620c32d60e11b815273Af5D2754b28EADfe7B9c0415Cd8b66545B35b9cC9063ac41865a9061412f908e908d90600401614ed8565b602060405180830381865af415801561414c573d6000803e3d6000fd5b505050506040513d601f19601f820116820180604052508101906141709190614ef2565b9150886001600160a01b031663313ce5676040518163ffffffff1660e01b8152600401602060405180830381865afa1580156141b0573d6000803e3d6000fd5b505050506040513d601f19601f820116820180604052508101906141d49190614f0b565b6141df90600a615237565b6141e98684615078565b6141f3919061508f565b905061420060648261508f565b61420a9082614eb2565b905073301Be1652dC990D0237140797b3a71110C6131c863e89a4b188d6001600160a01b0316634046ebae6040518163ffffffff1660e01b8152600401602060405180830381865afa158015614264573d6000803e3d6000fd5b505050506040513d601f19601f820116820180604052508101906142889190614e28565b8c8c858b60006040518763ffffffff1660e01b81526004016142af969594939291906152d8565b6040805180830381865af41580156142cb573d6000803e3d6000fd5b505050506040513d601f19601f820116820180604052508101906142ef9190614e78565b50505b50505b82156143905760405163954d7e7360e01b81526001600160a01b03808d166004830152808a166024830152881660448201526064810184905273301Be1652dC990D0237140797b3a71110C6131c89063954d7e73906084016040805180830381865af4158015614369573d6000803e3d6000fd5b505050506040513d601f19601f8201168201806040525081019061438d9190614e78565b50505b73301Be1652dC990D0237140797b3a71110C6131c863e89a4b188b6001600160a01b0316634046ebae6040518163ffffffff1660e01b8152600401602060405180830381865afa1580156143e8573d6000803e3d6000fd5b505050506040513d601f19601f8201168201806040525081019061440c9190614e28565b898b896144188d61358d565b6144229190614ec5565b8960006040518763ffffffff1660e01b8152600401614446969594939291906152d8565b6040805180830381865af4158015614462573d6000803e3d6000fd5b505050506040513d601f19601f820116820180604052508101906144869190614e78565b50505050505050505050505050565b604051632424c79760e11b81523060048201526001600160a01b0383811660248301528281166044830152600091908516906348498f2e9060640160408051808303816000875af11580156144ee573d6000803e3d6000fd5b505050506040513d601f19601f820116820180604052508101906145129190614e78565b50949350505050565b6001600160a01b038116811461453057600080fd5b50565b8060020b811461453057600080fd5b6000806000806080858703121561455857600080fd5b84356145638161451b565b9350602085013561457381614533565b9250604085013561458381614533565b915060608501356145938161451b565b939692955090935050565b6000602082840312156145b057600080fd5b5035919050565b600081518084526020808501945080840160005b838110156145e7578151875295820195908201906001016145cb565b509495945050505050565b60208152600061460560208301846145b7565b9392505050565b801515811461453057600080fd5b80356146258161460c565b919050565b600080600080600060a0868803121561464257600080fd5b853561464d8161451b565b9450602086013561465d81614533565b9350604086013561466d81614533565b9250606086013561467d81614533565b9150608086013561468d8161460c565b809150509295509295909350565b6000815180845260005b818110156146c1576020818501810151868301820152016146a5565b506000602082860101526020601f19601f83011685010191505092915050565b602081526000614605602083018461469b565b6001600160801b038116811461453057600080fd5b8035614625816146f4565b60008060008060008060008060006101208a8c03121561473357600080fd5b893561473e8161451b565b985060208a013561474e81614533565b975060408a013561475e81614533565b965060608a013561476e81614533565b955060808a013561477e81614533565b945060a08a013561478e816146f4565b935060c08a013561479e816146f4565b925060e08a01356147ae816146f4565b91506101008a01356147bf8161460c565b809150509295985092959850929598565b6060815260006147e360608301866145b7565b6001600160801b0394851660208401529290931660409091015292915050565b600080600080600080600080610100898b03121561482057600080fd5b883561482b8161451b565b9750602089013561483b81614533565b9650604089013561484b81614533565b9550606089013561485b81614533565b9450608089013561486b81614533565b935060a0890135925060c0890135915060e08901356148898161460c565b809150509295985092959890939650565b6000602082840312156148ac57600080fd5b81356146058161451b565b60008060008060008060c087890312156148d057600080fd5b86356148db8161460c565b955060208701356148eb8161451b565b945060408701356148fb81614533565b9350606087013561490b81614533565b9250608087013561491b81614533565b915060a087013561492b81614533565b809150509295509295509295565b6000806040838503121561494c57600080fd5b82359150602083013561495e8161451b565b809150509250929050565b60008060006060848603121561497e57600080fd5b83356149898161451b565b925060208401356149998161451b565b915060408401356149a98161451b565b809150509250925092565b634e487b7160e01b600052604160045260246000fd5b60008060008060008060c087890312156149e357600080fd5b86356149ee8161451b565b95506020878101356149ff81614533565b95506040880135614a0f81614533565b9450606088013567ffffffffffffffff80821115614a2c57600080fd5b818a0191508a601f830112614a4057600080fd5b813581811115614a5257614a526149b4565b8060051b604051601f19603f83011681018181108582111715614a7757614a776149b4565b60405291825284820192508381018501918d831115614a9557600080fd5b938501935b82851015614ab357843584529385019392850192614a9a565b809850505050505050614ac860808801614709565b9150614ad660a0880161461a565b90509295509295509295565b606081526000614af560608301866145b7565b90508360208301526001600160801b0383166040830152949350505050565b60008060008060008060c08789031215614b2d57600080fd5b8635614b388161451b565b95506020870135614b4881614533565b94506040870135614b5881614533565b93506060870135614b6881614533565b9598949750929560808101359460a0909101359350915050565b600293840b81529190920b60208201526001600160801b03909116604082015260600190565b60008060408385031215614bbb57600080fd5b50508035926020909101359150565b60008060008060808587031215614be057600080fd5b843593506020850135614bf28161451b565b92506040850135614c028161451b565b9396929550929360600135925050565b604081526000614c2560408301856145b7565b905082151560208301529392505050565b600080600060608486031215614c4b57600080fd5b8335925060208401356149998161451b565b600060208284031215614c6f57600080fd5b815162ffffff8116811461460557600080fd5b600060208284031215614c9457600080fd5b815161460581614533565b805161ffff8116811461462557600080fd5b805160ff8116811461462557600080fd5b600080600080600080600060e0888a031215614cdd57600080fd5b8751614ce88161451b565b6020890151909750614cf981614533565b9550614d0760408901614c9f565b9450614d1560608901614c9f565b9350614d2360808901614c9f565b9250614d3160a08901614cb1565b915060c0880151614d418161460c565b8091505092959891949750929550565b634e487b7160e01b600052601260045260246000fd5b634e487b7160e01b600052601160045260246000fd5b60008160020b8360020b80614d9457614d94614d51565b627fffff19821460001982141615614dae57614dae614d67565b90059392505050565b60008260020b8260020b028060020b9150808214614dd757614dd7614d67565b5092915050565b600281810b9083900b01627fffff8113627fffff1982121715611f2d57611f2d614d67565b600282810b9082900b03627fffff198112627fffff82131715611f2d57611f2d614d67565b600060208284031215614e3a57600080fd5b81516146058161451b565b6001600160a01b03949094168452600292830b6020850152910b60408301526001600160801b0316606082015260800190565b60008060408385031215614e8b57600080fd5b505080516020909101519092909150565b634e487b7160e01b600052603260045260246000fd5b80820180821115611f2d57611f2d614d67565b81810381811115611f2d57611f2d614d67565b6001600160a01b0392831681529116602082015260400190565b600060208284031215614f0457600080fd5b5051919050565b600060208284031215614f1d57600080fd5b61460582614cb1565b600181815b80851115614f61578160001904821115614f4757614f47614d67565b80851615614f5457918102915b93841c9390800290614f2b565b509250929050565b600082614f7857506001611f2d565b81614f8557506000611f2d565b8160018114614f9b5760028114614fa557614fc1565b6001915050611f2d565b60ff841115614fb657614fb6614d67565b50506001821b611f2d565b5060208310610133831016604e8410600b8410161715614fe4575081810a611f2d565b614fee8383614f26565b806000190482111561500257615002614d67565b029392505050565b60006146058383614f69565b6001600160a01b03959095168552600293840b60208601529190920b60408401526060830191909152608082015260a00190565b60008060006060848603121561505f57600080fd5b835192506020840151915060408401516149a9816146f4565b8082028115828204841417611f2d57611f2d614d67565b60008261509e5761509e614d51565b500490565b6001600160a01b03959095168552600293840b60208601529190920b60408401526001600160801b03918216606084015216608082015260a00190565b600080604083850312156150f357600080fd5b82516150fe816146f4565b602084015190925061495e816146f4565b6001600160801b0381811683821602808216919082811461513257615132614d67565b505092915050565b60006001600160801b038084168061515457615154614d51565b92169190910492915050565b6001600160801b03828116828216039080821115614dd757614dd7614d67565b600060a08201905060018060a01b03808451168352602084015160020b6020840152604084015160020b60408401526001600160801b0360608501511660608401528060808501511660808401525092915050565b6001600160a01b03949094168452600292830b6020850152910b60408301526001600160801b0316606082015260a06080820181905260009082015260c00190565b6001600160801b03818116838216019080821115614dd757614dd7614d67565b600061460560ff841683614f69565b6001600160a01b038b811682528a81166020830152898116604083015288811660608301528716608082015285151560a082015260c0810185905260e0810184905261014061010082018190526000906152a28382018661469b565b915050826101208301529b9a5050505050505050505050565b6000602082840312156152cd57600080fd5b81516146058161460c565b6001600160a01b03968716815294861660208601529290941660408401526060830152608082019290925260a081019190915260c0019056fea264697066735822122078d742897dea2bc819fde293d9a28ea0338d458cceb73c2349dbdcaf83d0885864736f6c63430008110033",
  "deployedBytecode": "0x73000000000000000000000000000000000000000030146080604052600436106101365760003560e01c80637fd6c0a1116100b7578063c68bc7031161007b578063c68bc7031461038a578063ce74e5d91461039d578063d4ca283a146103ab578063e3bca2d8146103cd578063f460770b146103ed57600080fd5b80637fd6c0a1146102aa57806380089367146102cb5780638c64d455146102fa578063915a3eb414610329578063b24d8db01461035c57600080fd5b8063345aec36116100fe578063345aec361461022e57806345e113c01461024157806354747e5b1461026157806357d59aae146102845780635ca1bcdf1461029757600080fd5b806305d408941461013b5780630a65e5e714610197578063190fa314146101b7578063302c4550146101df57806333fdd81d146101ff575b600080fd5b61014e610149366004614542565b610402565b60408051600297880b815295870b60208701529390950b928401929092526001600160a01b03908116606084015216608082015290151560a082015260c0015b60405180910390f35b6101aa6101a536600461459e565b6109f5565b60405161018e91906145f2565b6101ca6101c536600461459e565b610e0d565b6040805192835260208301919091520161018e565b6101f26101ed36600461462a565b610ef1565b60405161018e91906146e1565b81801561020b57600080fd5b5061021f61021a366004614714565b611190565b60405161018e939291906147d0565b6101ca61023c36600461459e565b6115a1565b81801561024d57600080fd5b506101aa61025c366004614803565b611769565b61027461026f36600461489a565b611b23565b604051901515815260200161018e565b6102746102923660046148b7565b611b96565b6102746102a5366004614939565b611cc3565b6102bd6102b8366004614969565b611f33565b60405190815260200161018e565b8180156102d757600080fd5b506102eb6102e63660046149ca565b612103565b60405161018e93929190614ae2565b81801561030657600080fd5b5061031a610315366004614b14565b6123af565b60405161018e93929190614b82565b61033c610337366004614ba8565b612926565b60408051948552602085019390935291830152606082015260800161018e565b81801561036857600080fd5b5061037c610377366004614bca565b612a40565b60405161018e929190614c12565b6101aa610398366004614714565b612fe2565b6102bd6611c37937e0800081565b8180156103b757600080fd5b506103cb6103c6366004614c36565b6132c9565b005b8180156103d957600080fd5b506103cb6103e836600461459e565b61352c565b8180156103f957600080fd5b506103cb613562565b60008060008060008073__$0c70757f598a889e7e5bdfcf0bf5e1f3f7$__63ea8668158b6001600160a01b031663ddca3f436040518163ffffffff1660e01b8152600401602060405180830381865afa158015610463573d6000803e3d6000fd5b505050506040513d601f19601f820116820180604052508101906104879190614c5d565b6040516001600160e01b031960e084901b16815262ffffff9091166004820152602401602060405180830381865af41580156104c7573d6000803e3d6000fd5b505050506040513d601f19601f820116820180604052508101906104eb9190614c82565b955060008a6001600160a01b0316633850c7bd6040518163ffffffff1660e01b815260040160e060405180830381865afa15801561052d573d6000803e3d6000fd5b505050506040513d601f19601f820116820180604052508101906105519190614cc2565b50505050509150508960020b60000361058c578661056f8183614d7d565b6105799190614db7565b95506105858787614dde565b945061069e565b86610597818c614d7d565b6105a19190614db7565b60020b8a60020b146105f05760405162461bcd60e51b8152602060048201526013602482015272496e636f7272656374207469636b52616e676560681b60448201526064015b60405180910390fd5b866105fb818b614d7d565b6106059190614db7565b60020b8960020b146106595760405162461bcd60e51b815260206004820152601c60248201527f496e636f727265637420726562616c616e63655469636b52616e67650000000060448201526064016105e7565b86806106658c84614e03565b61066f9190614d7d565b6106799190614db7565b955086806106878c84614dde565b6106919190614d7d565b61069b9190614db7565b94505b8a6001600160a01b0316630dfe16816040518163ffffffff1660e01b8152600401602060405180830381865afa1580156106dc573d6000803e3d6000fd5b505050506040513d601f19601f820116820180604052508101906107009190614e28565b6001600160a01b0316886001600160a01b0316148061079157508a6001600160a01b031663d21220a76040518163ffffffff1660e01b8152600401602060405180830381865afa158015610758573d6000803e3d6000fd5b505050506040513d601f19601f8201168201806040525081019061077c9190614e28565b6001600160a01b0316886001600160a01b0316145b6107cf5760405162461bcd60e51b815260206004820152600f60248201526e125b98dbdc9c9958dd08185cdcd95d608a1b60448201526064016105e7565b8a6001600160a01b0316630dfe16816040518163ffffffff1660e01b8152600401602060405180830381865afa15801561080d573d6000803e3d6000fd5b505050506040513d601f19601f820116820180604052508101906108319190614e28565b6001600160a01b0316886001600160a01b03160361091a578a6001600160a01b0316630dfe16816040518163ffffffff1660e01b8152600401602060405180830381865afa158015610887573d6000803e3d6000fd5b505050506040513d601f19601f820116820180604052508101906108ab9190614e28565b93508a6001600160a01b031663d21220a76040518163ffffffff1660e01b8152600401602060405180830381865afa1580156108eb573d6000803e3d6000fd5b505050506040513d601f19601f8201168201806040525081019061090f9190614e28565b9250600091506109e7565b8a6001600160a01b031663d21220a76040518163ffffffff1660e01b8152600401602060405180830381865afa158015610958573d6000803e3d6000fd5b505050506040513d601f19601f8201168201806040525081019061097c9190614e28565b93508a6001600160a01b0316630dfe16816040518163ffffffff1660e01b8152600401602060405180830381865afa1580156109bc573d6000803e3d6000fd5b505050506040513d601f19601f820116820180604052508101906109e09190614e28565b9250600191505b509499939850945094509450565b604080516002808252606080830184529260208301908036833701905050905060008260020160009054906101000a90046001600160a01b03166001600160a01b0316633850c7bd6040518163ffffffff1660e01b815260040160e060405180830381865afa158015610a6c573d6000803e3d6000fd5b505050506040513d601f19601f82011682018060405250810190610a909190614cc2565b505050506002868101546003880154604051630544f36560e31b815295965073__$0c70757f598a889e7e5bdfcf0bf5e1f3f7$__95632a279b289550610b0094508793600160c81b8404810b93600160e01b9004900b91600160501b90046001600160801b031690600401614e45565b6040805180830381865af4158015610b1c573d6000803e3d6000fd5b505050506040513d601f19601f82011682018060405250810190610b409190614e78565b83600081518110610b5357610b53614e9c565b6020026020010184600181518110610b6d57610b6d614e9c565b6020908102919091010191909152526003830154600480850154604051630544f36560e31b8152600093849373__$0c70757f598a889e7e5bdfcf0bf5e1f3f7$__93632a279b2893610bde938993600282810b946301000000909304900b926001600160801b039092169101614e45565b6040805180830381865af4158015610bfa573d6000803e3d6000fd5b505050506040513d601f19601f82011682018060405250810190610c1e9190614e78565b91509150600080610c2e876115a1565b91509150610cb38760020160009054906101000a90046001600160a01b03166001600160a01b0316630dfe16816040518163ffffffff1660e01b8152600401602060405180830381865afa158015610c8a573d6000803e3d6000fd5b505050506040513d601f19601f82011682018060405250810190610cae9190614e28565b61358d565b610cbd8386614eb2565b610cc79190614eb2565b86600081518110610cda57610cda614e9c565b60200260200101818151610cee9190614eb2565b90525060028701546040805163d21220a760e01b81529051610d3e926001600160a01b03169163d21220a79160048083019260209291908290030181865afa158015610c8a573d6000803e3d6000fd5b610d488285614eb2565b610d529190614eb2565b86600181518110610d6557610d65614e9c565b60200260200101818151610d799190614eb2565b9052506003870154600160481b900460ff1615610e035785600181518110610da357610da3614e9c565b602002602001015186600081518110610dbe57610dbe614e9c565b602002602001015187600081518110610dd957610dd9614e9c565b6020026020010188600181518110610df357610df3614e9c565b6020908102919091010191909152525b5050505050919050565b600381015481546000918291600160481b90910460ff1690610e37906001600160a01b031661358d565b6001850154909350610e51906001600160a01b031661358d565b9150600081610e64578460050154610e6a565b84600601545b9050600082610e7d578560060154610e83565b85600501545b9050818510158015610e955750808410155b610ed15760405162461bcd60e51b815260206004820152600d60248201526c57726f6e672062616c616e636560981b60448201526064016105e7565b610edb8286614ec5565b9450610ee78185614ec5565b9350505050915091565b60606000866001600160a01b031663d21220a76040518163ffffffff1660e01b8152600401602060405180830381865afa158015610f33573d6000803e3d6000fd5b505050506040513d601f19601f82011682018060405250810190610f579190614e28565b9050600073__$0c70757f598a889e7e5bdfcf0bf5e1f3f7$__63ac41865a89846040518363ffffffff1660e01b8152600401610f94929190614ed8565b602060405180830381865af4158015610fb1573d6000803e3d6000fd5b505050506040513d601f19601f82011682018060405250810190610fd59190614ef2565b9050610fe3888888886135f8565b80975081985050506000826001600160a01b031663313ce5676040518163ffffffff1660e01b8152600401602060405180830381865afa15801561102b573d6000803e3d6000fd5b505050506040513d601f19601f8201168201806040525081019061104f9190614f0b565b60ff16905081600061106283600a61500a565b905060008073__$0c70757f598a889e7e5bdfcf0bf5e1f3f7$__6317c22c3c8e8e8e88886040518663ffffffff1660e01b81526004016110a6959493929190615016565b606060405180830381865af41580156110c3573d6000803e3d6000fd5b505050506040513d601f19601f820116820180604052508101906110e7919061504a565b5091509150881561113a576001836110ff8884615078565b611109919061508f565b6040805160ff9093166020840152820152606081018390526080016040516020818303038152906040529750611180565b600182846111488985615078565b611152919061508f565b6040805160ff9094166020850152830191909152606082015260800160405160208183030381529060405297505b5050505050505095945050505050565b60408051600280825260608281019093526000918291816020016020820280368337505060405163a34123a760e01b8152919450506001600160a01b038d169063a34123a7906111e8908e908e908a90600401614b82565b60408051808303816000875af1158015611206573d6000803e3d6000fd5b505050506040513d601f19601f8201168201806040525081019061122a9190614e78565b8460008151811061123d5761123d614e9c565b602002602001018560018151811061125757611257614e9c565b6020908102919091010191909152526040516309e3d67b60e31b81526001600160a01b038d1690634f1eb3d8906112a19030908f908f906001600160801b039081906004016150a3565b60408051808303816000875af11580156112bf573d6000803e3d6000fd5b505050506040513d601f19601f820116820180604052508101906112e391906150e0565b50506001600160801b038616156114b957600087611301878961510f565b61130b919061513a565b90506000808e6001600160a01b031663a34123a78d8d866040518463ffffffff1660e01b815260040161134093929190614b82565b60408051808303816000875af115801561135e573d6000803e3d6000fd5b505050506040513d601f19601f820116820180604052508101906113829190614e78565b915091508e6001600160a01b0316634f1eb3d8308e8e6001600160801b03806040518663ffffffff1660e01b81526004016113c19594939291906150a3565b60408051808303816000875af11580156113df573d6000803e3d6000fd5b505050506040513d601f19601f8201168201806040525081019061140391906150e0565b5050818660008151811061141957611419614e9c565b6020026020010181815161142d9190614eb2565b905250855181908790600190811061144757611447614e9c565b6020026020010181815161145b9190614eb2565b9052506001600160801b03808416908a1610156114a95760405162461bcd60e51b815260206004820152600c60248201526b057726f6e672066696c6c75760a41b60448201526064016105e7565b6114b3838a615160565b93505050505b846001600160801b0316876001600160801b0316101561150d5760405162461bcd60e51b815260206004820152600f60248201526e57726f6e67206c697175696469747960881b60448201526064016105e7565b6115178588615160565b91508315611592578260018151811061153257611532614e9c565b60200260200101518360008151811061154d5761154d614e9c565b60200260200101518460008151811061156857611568614e9c565b602002602001018560018151811061158257611582614e9c565b6020908102919091010191909152525b99509950999650505050505050565b6040805160a0810182526002838101546001600160a01b0381168352600160c81b8104820b6020840152600160e01b9004900b818301526003830154600160501b90046001600160801b0316606082015230608082015290516352bb7e6960e01b8152600091829173__$0c70757f598a889e7e5bdfcf0bf5e1f3f7$__906352bb7e6990611633908490600401615180565b6040805180830381865af415801561164f573d6000803e3d6000fd5b505050506040513d601f19601f820116820180604052508101906116739190614e78565b6040805160a0810182526002808901546001600160a01b03168252600389015480820b602084015263010000009004900b818301526004808901546001600160801b0316606083015230608083015291516352bb7e6960e01b81529396509194509091600091829173__$0c70757f598a889e7e5bdfcf0bf5e1f3f7$__916352bb7e699161170391879101615180565b6040805180830381865af415801561171f573d6000803e3d6000fd5b505050506040513d601f19601f820116820180604052508101906117439190614e78565b90925090506117528287614eb2565b955061175e8186614eb2565b945050505050915091565b6040805160028082526060808301845292602083019080368337505060405163a34123a760e01b8152919250506001600160a01b038a169063a34123a7906117ba908b908b90600090600401614b82565b60408051808303816000875af11580156117d8573d6000803e3d6000fd5b505050506040513d601f19601f820116820180604052508101906117fc9190614e78565b50506040516309e3d67b60e31b81526001600160a01b038a1690634f1eb3d8906118399030908c908c906001600160801b039081906004016150a3565b60408051808303816000875af1158015611857573d6000803e3d6000fd5b505050506040513d601f19601f8201168201806040525081019061187b91906150e0565b816001600160801b03169150806001600160801b03169050826000815181106118a6576118a6614e9c565b60200260200101836001815181106118c0576118c0614e9c565b60200260200101828152508281525050508460020b8660020b14611a455760405163a34123a760e01b81526001600160a01b038a169063a34123a79061190f9089908990600090600401614b82565b60408051808303816000875af115801561192d573d6000803e3d6000fd5b505050506040513d601f19601f820116820180604052508101906119519190614e78565b50506000808a6001600160a01b0316634f1eb3d8308a8a6001600160801b03806040518663ffffffff1660e01b81526004016119919594939291906150a3565b60408051808303816000875af11580156119af573d6000803e3d6000fd5b505050506040513d601f19601f820116820180604052508101906119d391906150e0565b6001600160801b031691506001600160801b0316915081836000815181106119fd576119fd614e9c565b60200260200101818151611a119190614eb2565b9052508251819084906001908110611a2b57611a2b614e9c565b60200260200101818151611a3f9190614eb2565b90525050505b8381600081518110611a5957611a59614e9c565b60200260200101818151611a6d9190614eb2565b9052508051839082906001908110611a8757611a87614e9c565b60200260200101818151611a9b9190614eb2565b9052508115611b175780600181518110611ab757611ab7614e9c565b602002602001015181600081518110611ad257611ad2614e9c565b602002602001015182600081518110611aed57611aed614e9c565b6020026020010183600181518110611b0757611b07614e9c565b6020908102919091010191909152525b98975050505050505050565b6000816001600160a01b031663ddca3f436040518163ffffffff1660e01b8152600401602060405180830381865afa158015611b63573d6000803e3d6000fd5b505050506040513d601f19601f82011682018060405250810190611b879190614c5d565b62ffffff166064149050919050565b60008615611ba657506000611cb9565b6000866001600160a01b0316633850c7bd6040518163ffffffff1660e01b815260040160e060405180830381865afa158015611be6573d6000803e3d6000fd5b505050506040513d601f19601f82011682018060405250810190611c0a9190614cc2565b50505050509150508360020b8686611c229190614e03565b60020b03611c4c578560020b8160020b1280611c4457508460020b8160020b12155b915050611cb9565b60006002611c5a8888614e03565b611c649190614d7d565b90506000611c728289614dde565b90508060020b8360020b1315611ca057600285900b611c918285614e03565b60020b12159350505050611cb9565b600285900b611caf8483614e03565b60020b1393505050505b9695505050505050565b6000806000611cd1856115a1565b91509150846005015482611ce59190614eb2565b9150846006015481611cf79190614eb2565b6003860154909150600160481b900460ff1615611d1057905b845460018601546040805163f77c479160e01b815290516001600160a01b0393841693928316926000929089169163f77c4791916004808201926020929091908290030181865afa158015611d69573d6000803e3d6000fd5b505050506040513d601f19601f82011682018060405250810190611d8d9190614e28565b6001600160a01b0316632630c12f6040518163ffffffff1660e01b8152600401602060405180830381865afa158015611dca573d6000803e3d6000fd5b505050506040513d601f19601f82011682018060405250810190611dee9190614e28565b60405163b3596f0760e01b81526001600160a01b03858116600483015291925060009183169063b3596f0790602401602060405180830381865afa158015611e3a573d6000803e3d6000fd5b505050506040513d601f19601f82011682018060405250810190611e5e9190614ef2565b60405163b3596f0760e01b81526001600160a01b03858116600483015291925060009184169063b3596f0790602401602060405180830381865afa158015611eaa573d6000803e3d6000fd5b505050506040513d601f19601f82011682018060405250810190611ece9190614ef2565b90506000670de0b6b3a7640000611ee5848a615078565b611eef919061508f565b90506000670de0b6b3a7640000611f06848a615078565b611f10919061508f565b90506064821180611f215750606481115b99505050505050505050505b92915050565b600080846001600160a01b031663f77c47916040518163ffffffff1660e01b8152600401602060405180830381865afa158015611f74573d6000803e3d6000fd5b505050506040513d601f19601f82011682018060405250810190611f989190614e28565b6001600160a01b0316632630c12f6040518163ffffffff1660e01b8152600401602060405180830381865afa158015611fd5573d6000803e3d6000fd5b505050506040513d601f19601f82011682018060405250810190611ff99190614e28565b60405163b3596f0760e01b81526001600160a01b03868116600483015291925060009183169063b3596f0790602401602060405180830381865afa158015612045573d6000803e3d6000fd5b505050506040513d601f19601f820116820180604052508101906120699190614ef2565b60405163b3596f0760e01b81526001600160a01b03868116600483015291925060009184169063b3596f0790602401602060405180830381865afa1580156120b5573d6000803e3d6000fd5b505050506040513d601f19601f820116820180604052508101906120d99190614ef2565b9050816120ee82670de0b6b3a7640000615078565b6120f8919061508f565b979650505050505050565b6040805160028082526060828101909352600091829181602001602082028036833701905050925083156121a4578560018151811061214457612144614e9c565b60200260200101518660008151811061215f5761215f614e9c565b60200260200101518760008151811061217a5761217a614e9c565b602002602001018860018151811061219457612194614e9c565b6020908102919091010191909152525b600073__$0c70757f598a889e7e5bdfcf0bf5e1f3f7$__6317c22c3c8b8b8b8b6000815181106121d6576121d6614e9c565b60200260200101518c6001815181106121f1576121f1614e9c565b60200260200101516040518663ffffffff1660e01b8152600401612219959493929190615016565b606060405180830381865af4158015612236573d6000803e3d6000fd5b505050506040513d601f19601f8201168201806040525081019061225a919061504a565b8660008151811061226d5761226d614e9c565b602002602001018760018151811061228757612287614e9c565b6020908102919091010192909252919052604051633c8a7d8d60e01b81529091506001600160a01b038b1690633c8a7d8d906122cd9030908d908d9087906004016151d5565b60408051808303816000875af11580156122eb573d6000803e3d6000fd5b505050506040513d601f19601f8201168201806040525081019061230f9190614e78565b50506001600160801b03811692506123278187615217565b915084156123a2578360018151811061234257612342614e9c565b60200260200101518460008151811061235d5761235d614e9c565b60200260200101518560008151811061237857612378614e9c565b602002602001018660018151811061239257612392614e9c565b6020908102919091010191909152525b5096509650969350505050565b6000806000806123f68a6001600160a01b0316630dfe16816040518163ffffffff1660e01b8152600401602060405180830381865afa158015610c8a573d6000803e3d6000fd5b9050600061243b8b6001600160a01b031663d21220a76040518163ffffffff1660e01b8152600401602060405180830381865afa158015610c8a573d6000803e3d6000fd5b905086821015801561244d5750858110155b6124855760405162461bcd60e51b815260206004820152600960248201526857726f6e672066656560b81b60448201526064016105e7565b61248f8783614ec5565b915061249b8682614ec5565b905060008b6001600160a01b0316633850c7bd6040518163ffffffff1660e01b815260040160e060405180830381865afa1580156124dd573d6000803e3d6000fd5b505050506040513d601f19601f820116820180604052508101906125019190614cc2565b50505050509150508b6001600160a01b031663d21220a76040518163ffffffff1660e01b8152600401602060405180830381865afa158015612547573d6000803e3d6000fd5b505050506040513d601f19601f8201168201806040525081019061256b9190614e28565b6001600160a01b031663313ce5676040518163ffffffff1660e01b8152600401602060405180830381865afa1580156125a8573d6000803e3d6000fd5b505050506040513d601f19601f820116820180604052508101906125cc9190614f0b565b6125d790600a615237565b73__$0c70757f598a889e7e5bdfcf0bf5e1f3f7$__63ac41865a8e8f6001600160a01b031663d21220a76040518163ffffffff1660e01b8152600401602060405180830381865afa158015612630573d6000803e3d6000fd5b505050506040513d601f19601f820116820180604052508101906126549190614e28565b6040518363ffffffff1660e01b8152600401612671929190614ed8565b602060405180830381865af415801561268e573d6000803e3d6000fd5b505050506040513d601f19601f820116820180604052508101906126b29190614ef2565b6126bc9084615078565b6126c6919061508f565b8311156127f45788806126d98184614d7d565b6126e39190614db7565b6126ed9190614dde565b6040516305f08b0f60e21b81529096508a955073__$0c70757f598a889e7e5bdfcf0bf5e1f3f7$__906317c22c3c90612733908f908a908a908990600090600401615016565b606060405180830381865af4158015612750573d6000803e3d6000fd5b505050506040513d601f19601f82011682018060405250810190612774919061504a565b604051633c8a7d8d60e01b81529096506001600160a01b038f169250633c8a7d8d91506127ab9030908a908a908a906004016151d5565b60408051808303816000875af11580156127c9573d6000803e3d6000fd5b505050506040513d601f19601f820116820180604052508101906127ed9190614e78565b5050612917565b8a955088806128038184614d7d565b61280d9190614db7565b6128179190614e03565b6040516305f08b0f60e21b815290955073__$0c70757f598a889e7e5bdfcf0bf5e1f3f7$__906317c22c3c9061285a908f908a908a906000908990600401615016565b606060405180830381865af4158015612877573d6000803e3d6000fd5b505050506040513d601f19601f8201168201806040525081019061289b919061504a565b604051633c8a7d8d60e01b81529096506001600160a01b038f169250633c8a7d8d91506128d29030908a908a908a906004016151d5565b60408051808303816000875af11580156128f0573d6000803e3d6000fd5b505050506040513d601f19601f820116820180604052508101906129149190614e78565b50505b50505096509650969350505050565b8154600183015460038401546001600160a01b039283166000818152602086905260408082205495909416808252938120549094859485948594939192600160481b90910460ff1691858361297f578b60050154612985565b8b600601545b61298e8761358d565b6129989190614ec5565b90506000846129ab578c600601546129b1565b8c600501545b6129ba8761358d565b6129c49190614ec5565b90508184116129dc576129d78483614ec5565b6129df565b60005b9a508184116129ef5760006129f9565b6129f98285614ec5565b9950808311612a1157612a0c8382614ec5565b612a14565b60005b9850808311612a24576000612a2e565b612a2e8184614ec5565b97505050505050505092959194509250565b60408051600080825261028082018352600280880154600160e01b8104820b60208501818152600160c81b8304840b968601879052600160a01b8304840b606087018190526001600160a01b03808516608089018190528d54821660a08a015260018e015490911660c0890152600a8d015460e089015260098d015461010089015260038d015460ff600160481b8204811615156101208b015260058f01546101408b015260068f01546101608b01526101808a018990526101a08a018990526101c08a018990526101e08a018990526102008a01899052600160b81b8704811615156102208b0152600160c01b909604861615156102408a0152610260890188905260088e0154989997989397612b70979490961695919491939192916601000000000000909104900b611b96565b612bb45760405162461bcd60e51b8152602060048201526015602482015274139bc81c9958985b185b98da5b99c81b9959591959605a1b60448201526064016105e7565b612bc78682608001518360a00151611f33565b6102408201526102208101518015612bf25750612bf28160c001518261024001518360e00151613711565b15612c9e5760088701805460ff191660011790556040517fb224dccea3c30282a142bed3cedb7af1657907dea7dc2828fb9ce06007f3159490600090a1612c678686836060015184608001518560a00151866101000151876101200151886101400151612c628a60600151613740565b61375f565b6101208101516101608201526101408101516101808201526020810151600290810b6101c08301528151900b6101e0820152612faf565b80610220015115612cb557610240810151600a8801555b73__$105aa07724e80e292e8a4b4cc62d6ec972$__6332e8d30f8787846060015185608001518660a00151876102000151886101000151612cfb57886101200151612d02565b8861014001515b896101000151612d1757896101400151612d1e565b8961012001515b612d408b606001518c602001518d600001518e604001518f6101000151610ef1565b612d4d8c60600151613740565b6040518b63ffffffff1660e01b8152600401612d729a99989796959493929190615246565b60006040518083038186803b158015612d8a57600080fd5b505af4158015612d9e573d6000803e3d6000fd5b50505050612e286040518060e0016040528083606001516001600160a01b0316815260200183608001516001600160a01b031681526020018360a001516001600160a01b03168152602001836101000151151581526020018361012001518152602001836101400151815260200186815250612e238884608001518560a0015161379e565b613824565b6101a084018190526101808401829052610160840183905260058a0192909255600689015515612e7157806101a00151876007016000828254612e6b9190614eb2565b90915550505b612e8d81606001518260200151836000015184604001516135f8565b600281810b6101e085015282810b6101c0850152898101805465ffffffffffff60c81b1916600160c81b62ffffff9586160262ffffff60e01b191617600160e01b949093169390930291909117909155604080518281526060810182529190602083019080368337019050509250806101000151612f1057806101600151612f17565b8061018001515b612f24826080015161358d565b612f2e9190614ec5565b83600081518110612f4157612f41614e9c565b602002602001018181525050806101000151612f6257806101800151612f69565b8061016001515b612f768260a0015161358d565b612f809190614ec5565b83600181518110612f9357612f93614e9c565b60200260200101818152505080610200015115612faf57600191505b6040517fc741dbaad15a4f298fe8d80943fa8e005e7bcb2f5b0a0c8dec1fc35be457f14690600090a15094509492505050565b604080516002808252606080830184529260208301908036833701905050905060008a6001600160a01b0316633850c7bd6040518163ffffffff1660e01b815260040160e060405180830381865afa158015613042573d6000803e3d6000fd5b505050506040513d601f19601f820116820180604052508101906130669190614cc2565b5050604051630544f36560e31b815294955073__$0c70757f598a889e7e5bdfcf0bf5e1f3f7$__94632a279b2894506130ac93508692508f91508e908a90600401614e45565b6040805180830381865af41580156130c8573d6000803e3d6000fd5b505050506040513d601f19601f820116820180604052508101906130ec9190614e78565b836000815181106130ff576130ff614e9c565b602002602001018460018151811061311957613119614e9c565b6020908102919091010191909152526001600160801b0386161580159061314957506000856001600160801b0316115b156132425760008073__$0c70757f598a889e7e5bdfcf0bf5e1f3f7$__632a279b28848c8c8c6131798c8e61510f565b613183919061513a565b6040518563ffffffff1660e01b81526004016131a29493929190614e45565b6040805180830381865af41580156131be573d6000803e3d6000fd5b505050506040513d601f19601f820116820180604052508101906131e29190614e78565b9150915081846000815181106131fa576131fa614e9c565b6020026020010181815161320e9190614eb2565b905250835181908590600190811061322857613228614e9c565b6020026020010181815161323c9190614eb2565b90525050505b82156132bb578160018151811061325b5761325b614e9c565b60200260200101518260008151811061327657613276614e9c565b60200260200101518360008151811061329157613291614e9c565b60200260200101846001815181106132ab576132ab614e9c565b6020908102919091010191909152525b509998505050505050505050565b6000826001600160a01b0316634046ebae6040518163ffffffff1660e01b8152600401602060405180830381865afa158015613309573d6000803e3d6000fd5b505050506040513d601f19601f8201168201806040525081019061332d9190614e28565b845460405163095ea7b360e01b81526001600160a01b038084166004830152600019602483015292935091169063095ea7b3906044016020604051808303816000875af1158015613382573d6000803e3d6000fd5b505050506040513d601f19601f820116820180604052508101906133a691906152bb565b50600184015460405163095ea7b360e01b81526001600160a01b03838116600483015260001960248301529091169063095ea7b3906044016020604051808303816000875af11580156133fd573d6000803e3d6000fd5b505050506040513d601f19601f8201168201806040525081019061342191906152bb565b5060028085015461343d91600160a01b909104900b6004614db7565b60028581015491810b9161346391600160c81b8204810b91600160e01b9004900b614e03565b6002868101805460ff60b81b1981169390920b9390931215600160b81b0291821790925561349e916001600160a01b03908116911617611b23565b156135265760028401805460ff60c01b1916600160c01b1790556611c37937e08000600985018190556040517fdf3e0a21768880619b1295cb9519494a0df71943ebb4ff056f72186cfcfb6d47916134f99190815260200190565b60405180910390a1835460018501546135209184916001600160a01b039182169116611f33565b600a8501555b50505050565b6040518181527fdf3e0a21768880619b1295cb9519494a0df71943ebb4ff056f72186cfcfb6d479060200160405180910390a150565b6040517f6b7ccec41cff3829e74e9b70bba25fca03418511799dd79dc80d774f15f35e1b90600090a1565b6040516370a0823160e01b81523060048201526000906001600160a01b038316906370a0823190602401602060405180830381865afa1580156135d4573d6000803e3d6000fd5b505050506040513d601f19601f82011682018060405250810190611f2d9190614ef2565b6000806000866001600160a01b0316633850c7bd6040518163ffffffff1660e01b815260040160e060405180830381865afa15801561363b573d6000803e3d6000fd5b505050506040513d601f19601f8201168201806040525081019061365f9190614cc2565b50505050509150508360020b86866136779190614e03565b60020b036136a7578361368a8183614d7d565b6136949190614db7565b92506136a08484614dde565b9150613707565b600060026136b58888614e03565b6136bf9190614d7d565b905084806136cd8385614e03565b6136d79190614d7d565b6136e19190614db7565b935084806136ef8385614dde565b6136f99190614d7d565b6137039190614db7565b9250505b5094509492505050565b600082841161372b57816137258585614ec5565b11613738565b816137368486614ec5565b115b949350505050565b600061374b82611b23565b613757576101f4611f2d565b606492915050565b60008461376c578361376e565b825b905060008561377d578361377f565b845b90506137918b8b8b8b8b87878a613ca1565b5050505050505050505050565b604051632424c79760e11b81523060048201526001600160a01b0383811660248301528281166044830152600091908516906348498f2e9060640160408051808303816000875af11580156137f7573d6000803e3d6000fd5b505050506040513d601f19601f8201168201806040525081019061381b9190614e78565b95945050505050565b608082015160a0830151606084015160009081906138425783613844565b825b9050600086606001516138575783613859565b845b905060008261386b896020015161358d565b6138759089614eb2565b61387f9190614ec5565b90508760c00151811015613c97576000818960c0015161389f9190614ec5565b90508381116138d4578860600151156138c3576138bc8187614ec5565b9550613c95565b6138cd8188614ec5565b9650613c95565b8860600151156138e757600095506138ec565b600096505b60008315613c865789604001516001600160a01b031663313ce5676040518163ffffffff1660e01b8152600401602060405180830381865afa158015613936573d6000803e3d6000fd5b505050506040513d601f19601f8201168201806040525081019061395a9190614f0b565b61396590600a615237565b8a516040808d01519051635620c32d60e11b8152879273__$0c70757f598a889e7e5bdfcf0bf5e1f3f7$__9263ac41865a926139a5929190600401614ed8565b602060405180830381865af41580156139c2573d6000803e3d6000fd5b505050506040513d601f19601f820116820180604052508101906139e69190614ef2565b6139f09190615078565b6139fa919061508f565b905081613a078287614eb2565b1115613c5357896060015115613b355789602001516001600160a01b031663313ce5676040518163ffffffff1660e01b8152600401602060405180830381865afa158015613a59573d6000803e3d6000fd5b505050506040513d601f19601f82011682018060405250810190613a7d9190614f0b565b613a8890600a615237565b8a5160208c0151604051635620c32d60e11b815273__$0c70757f598a889e7e5bdfcf0bf5e1f3f7$__9263ac41865a92613ac492600401614ed8565b602060405180830381865af4158015613ae1573d6000803e3d6000fd5b505050506040513d601f19601f82011682018060405250810190613b059190614ef2565b83613b108489614eb2565b613b1a9190614ec5565b613b249190615078565b613b2e919061508f565b9750613c93565b89602001516001600160a01b031663313ce5676040518163ffffffff1660e01b8152600401602060405180830381865afa158015613b77573d6000803e3d6000fd5b505050506040513d601f19601f82011682018060405250810190613b9b9190614f0b565b613ba690600a615237565b8a5160208c0151604051635620c32d60e11b815273__$0c70757f598a889e7e5bdfcf0bf5e1f3f7$__9263ac41865a92613be292600401614ed8565b602060405180830381865af4158015613bff573d6000803e3d6000fd5b505050506040513d601f19601f82011682018060405250810190613c239190614ef2565b83613c2e8489614eb2565b613c389190614ec5565b613c429190615078565b613c4c919061508f565b9650613c93565b80613c5e8684614ec5565b613c689190614ec5565b9550896060015115613c7d5760009750613c93565b60009650613c93565b613c908583614ec5565b95505b505b505b5050509250925092565b6000613cae898787614495565b90506000613cbb8761358d565b90506000613cc88761358d565b9050858210158015613cda5750848110155b613d165760405162461bcd60e51b815260206004820152600d60248201526c57726f6e672062616c616e636560981b60448201526064016105e7565b613d208683614ec5565b9150613d2c8582614ec5565b9050828110156142f557604051635620c32d60e11b815260009073__$0c70757f598a889e7e5bdfcf0bf5e1f3f7$__9063ac41865a90613d72908d908c90600401614ed8565b602060405180830381865af4158015613d8f573d6000803e3d6000fd5b505050506040513d601f19601f82011682018060405250810190613db39190614ef2565b90506000886001600160a01b031663313ce5676040518163ffffffff1660e01b8152600401602060405180830381865afa158015613df5573d6000803e3d6000fd5b505050506040513d601f19601f82011682018060405250810190613e199190614f0b565b613e2490600a615237565b613e2e8487614ec5565b613e389084615078565b613e42919061508f565b9050613e4f60648261508f565b613e599082614eb2565b905083811015613f4d5773__$e930d50fb5f4f1298547dbcb2bb0591990$__63e89a4b188d6001600160a01b0316634046ebae6040518163ffffffff1660e01b8152600401602060405180830381865afa158015613ebb573d6000803e3d6000fd5b505050506040513d601f19601f82011682018060405250810190613edf9190614e28565b8c8c858b60006040518763ffffffff1660e01b8152600401613f06969594939291906152d8565b6040805180830381865af4158015613f22573d6000803e3d6000fd5b505050506040513d601f19601f82011682018060405250810190613f469190614e78565b50506142f2565b73__$e930d50fb5f4f1298547dbcb2bb0591990$__63e89a4b188d6001600160a01b0316634046ebae6040518163ffffffff1660e01b8152600401602060405180830381865afa158015613fa5573d6000803e3d6000fd5b505050506040513d601f19601f82011682018060405250810190613fc99190614e28565b8c8c888b60006040518763ffffffff1660e01b8152600401613ff0969594939291906152d8565b6040805180830381865af415801561400c573d6000803e3d6000fd5b505050506040513d601f19601f820116820180604052508101906140309190614e78565b505073__$e930d50fb5f4f1298547dbcb2bb0591990$__63954d7e738e8c8c8b6140598f61358d565b6140639190614ec5565b6040516001600160e01b031960e087901b1681526001600160a01b03948516600482015292841660248401529216604482015260648101919091526084016040805180830381865af41580156140bd573d6000803e3d6000fd5b505050506040513d601f19601f820116820180604052508101906140e19190614e78565b50506140ee8d8b8b614495565b945084156142f257604051635620c32d60e11b815273__$0c70757f598a889e7e5bdfcf0bf5e1f3f7$__9063ac41865a9061412f908e908d90600401614ed8565b602060405180830381865af415801561414c573d6000803e3d6000fd5b505050506040513d601f19601f820116820180604052508101906141709190614ef2565b9150886001600160a01b031663313ce5676040518163ffffffff1660e01b8152600401602060405180830381865afa1580156141b0573d6000803e3d6000fd5b505050506040513d601f19601f820116820180604052508101906141d49190614f0b565b6141df90600a615237565b6141e98684615078565b6141f3919061508f565b905061420060648261508f565b61420a9082614eb2565b905073__$e930d50fb5f4f1298547dbcb2bb0591990$__63e89a4b188d6001600160a01b0316634046ebae6040518163ffffffff1660e01b8152600401602060405180830381865afa158015614264573d6000803e3d6000fd5b505050506040513d601f19601f820116820180604052508101906142889190614e28565b8c8c858b60006040518763ffffffff1660e01b81526004016142af969594939291906152d8565b6040805180830381865af41580156142cb573d6000803e3d6000fd5b505050506040513d601f19601f820116820180604052508101906142ef9190614e78565b50505b50505b82156143905760405163954d7e7360e01b81526001600160a01b03808d166004830152808a166024830152881660448201526064810184905273__$e930d50fb5f4f1298547dbcb2bb0591990$__9063954d7e73906084016040805180830381865af4158015614369573d6000803e3d6000fd5b505050506040513d601f19601f8201168201806040525081019061438d9190614e78565b50505b73__$e930d50fb5f4f1298547dbcb2bb0591990$__63e89a4b188b6001600160a01b0316634046ebae6040518163ffffffff1660e01b8152600401602060405180830381865afa1580156143e8573d6000803e3d6000fd5b505050506040513d601f19601f8201168201806040525081019061440c9190614e28565b898b896144188d61358d565b6144229190614ec5565b8960006040518763ffffffff1660e01b8152600401614446969594939291906152d8565b6040805180830381865af4158015614462573d6000803e3d6000fd5b505050506040513d601f19601f820116820180604052508101906144869190614e78565b50505050505050505050505050565b604051632424c79760e11b81523060048201526001600160a01b0383811660248301528281166044830152600091908516906348498f2e9060640160408051808303816000875af11580156144ee573d6000803e3d6000fd5b505050506040513d601f19601f820116820180604052508101906145129190614e78565b50949350505050565b6001600160a01b038116811461453057600080fd5b50565b8060020b811461453057600080fd5b6000806000806080858703121561455857600080fd5b84356145638161451b565b9350602085013561457381614533565b9250604085013561458381614533565b915060608501356145938161451b565b939692955090935050565b6000602082840312156145b057600080fd5b5035919050565b600081518084526020808501945080840160005b838110156145e7578151875295820195908201906001016145cb565b509495945050505050565b60208152600061460560208301846145b7565b9392505050565b801515811461453057600080fd5b80356146258161460c565b919050565b600080600080600060a0868803121561464257600080fd5b853561464d8161451b565b9450602086013561465d81614533565b9350604086013561466d81614533565b9250606086013561467d81614533565b9150608086013561468d8161460c565b809150509295509295909350565b6000815180845260005b818110156146c1576020818501810151868301820152016146a5565b506000602082860101526020601f19601f83011685010191505092915050565b602081526000614605602083018461469b565b6001600160801b038116811461453057600080fd5b8035614625816146f4565b60008060008060008060008060006101208a8c03121561473357600080fd5b893561473e8161451b565b985060208a013561474e81614533565b975060408a013561475e81614533565b965060608a013561476e81614533565b955060808a013561477e81614533565b945060a08a013561478e816146f4565b935060c08a013561479e816146f4565b925060e08a01356147ae816146f4565b91506101008a01356147bf8161460c565b809150509295985092959850929598565b6060815260006147e360608301866145b7565b6001600160801b0394851660208401529290931660409091015292915050565b600080600080600080600080610100898b03121561482057600080fd5b883561482b8161451b565b9750602089013561483b81614533565b9650604089013561484b81614533565b9550606089013561485b81614533565b9450608089013561486b81614533565b935060a0890135925060c0890135915060e08901356148898161460c565b809150509295985092959890939650565b6000602082840312156148ac57600080fd5b81356146058161451b565b60008060008060008060c087890312156148d057600080fd5b86356148db8161460c565b955060208701356148eb8161451b565b945060408701356148fb81614533565b9350606087013561490b81614533565b9250608087013561491b81614533565b915060a087013561492b81614533565b809150509295509295509295565b6000806040838503121561494c57600080fd5b82359150602083013561495e8161451b565b809150509250929050565b60008060006060848603121561497e57600080fd5b83356149898161451b565b925060208401356149998161451b565b915060408401356149a98161451b565b809150509250925092565b634e487b7160e01b600052604160045260246000fd5b60008060008060008060c087890312156149e357600080fd5b86356149ee8161451b565b95506020878101356149ff81614533565b95506040880135614a0f81614533565b9450606088013567ffffffffffffffff80821115614a2c57600080fd5b818a0191508a601f830112614a4057600080fd5b813581811115614a5257614a526149b4565b8060051b604051601f19603f83011681018181108582111715614a7757614a776149b4565b60405291825284820192508381018501918d831115614a9557600080fd5b938501935b82851015614ab357843584529385019392850192614a9a565b809850505050505050614ac860808801614709565b9150614ad660a0880161461a565b90509295509295509295565b606081526000614af560608301866145b7565b90508360208301526001600160801b0383166040830152949350505050565b60008060008060008060c08789031215614b2d57600080fd5b8635614b388161451b565b95506020870135614b4881614533565b94506040870135614b5881614533565b93506060870135614b6881614533565b9598949750929560808101359460a0909101359350915050565b600293840b81529190920b60208201526001600160801b03909116604082015260600190565b60008060408385031215614bbb57600080fd5b50508035926020909101359150565b60008060008060808587031215614be057600080fd5b843593506020850135614bf28161451b565b92506040850135614c028161451b565b9396929550929360600135925050565b604081526000614c2560408301856145b7565b905082151560208301529392505050565b600080600060608486031215614c4b57600080fd5b8335925060208401356149998161451b565b600060208284031215614c6f57600080fd5b815162ffffff8116811461460557600080fd5b600060208284031215614c9457600080fd5b815161460581614533565b805161ffff8116811461462557600080fd5b805160ff8116811461462557600080fd5b600080600080600080600060e0888a031215614cdd57600080fd5b8751614ce88161451b565b6020890151909750614cf981614533565b9550614d0760408901614c9f565b9450614d1560608901614c9f565b9350614d2360808901614c9f565b9250614d3160a08901614cb1565b915060c0880151614d418161460c565b8091505092959891949750929550565b634e487b7160e01b600052601260045260246000fd5b634e487b7160e01b600052601160045260246000fd5b60008160020b8360020b80614d9457614d94614d51565b627fffff19821460001982141615614dae57614dae614d67565b90059392505050565b60008260020b8260020b028060020b9150808214614dd757614dd7614d67565b5092915050565b600281810b9083900b01627fffff8113627fffff1982121715611f2d57611f2d614d67565b600282810b9082900b03627fffff198112627fffff82131715611f2d57611f2d614d67565b600060208284031215614e3a57600080fd5b81516146058161451b565b6001600160a01b03949094168452600292830b6020850152910b60408301526001600160801b0316606082015260800190565b60008060408385031215614e8b57600080fd5b505080516020909101519092909150565b634e487b7160e01b600052603260045260246000fd5b80820180821115611f2d57611f2d614d67565b81810381811115611f2d57611f2d614d67565b6001600160a01b0392831681529116602082015260400190565b600060208284031215614f0457600080fd5b5051919050565b600060208284031215614f1d57600080fd5b61460582614cb1565b600181815b80851115614f61578160001904821115614f4757614f47614d67565b80851615614f5457918102915b93841c9390800290614f2b565b509250929050565b600082614f7857506001611f2d565b81614f8557506000611f2d565b8160018114614f9b5760028114614fa557614fc1565b6001915050611f2d565b60ff841115614fb657614fb6614d67565b50506001821b611f2d565b5060208310610133831016604e8410600b8410161715614fe4575081810a611f2d565b614fee8383614f26565b806000190482111561500257615002614d67565b029392505050565b60006146058383614f69565b6001600160a01b03959095168552600293840b60208601529190920b60408401526060830191909152608082015260a00190565b60008060006060848603121561505f57600080fd5b835192506020840151915060408401516149a9816146f4565b8082028115828204841417611f2d57611f2d614d67565b60008261509e5761509e614d51565b500490565b6001600160a01b03959095168552600293840b60208601529190920b60408401526001600160801b03918216606084015216608082015260a00190565b600080604083850312156150f357600080fd5b82516150fe816146f4565b602084015190925061495e816146f4565b6001600160801b0381811683821602808216919082811461513257615132614d67565b505092915050565b60006001600160801b038084168061515457615154614d51565b92169190910492915050565b6001600160801b03828116828216039080821115614dd757614dd7614d67565b600060a08201905060018060a01b03808451168352602084015160020b6020840152604084015160020b60408401526001600160801b0360608501511660608401528060808501511660808401525092915050565b6001600160a01b03949094168452600292830b6020850152910b60408301526001600160801b0316606082015260a06080820181905260009082015260c00190565b6001600160801b03818116838216019080821115614dd757614dd7614d67565b600061460560ff841683614f69565b6001600160a01b038b811682528a81166020830152898116604083015288811660608301528716608082015285151560a082015260c0810185905260e0810184905261014061010082018190526000906152a28382018661469b565b915050826101208301529b9a5050505050505050505050565b6000602082840312156152cd57600080fd5b81516146058161460c565b6001600160a01b03968716815294861660208601529290941660408401526060830152608082019290925260a081019190915260c0019056fea264697066735822122078d742897dea2bc819fde293d9a28ea0338d458cceb73c2349dbdcaf83d0885864736f6c63430008110033",
  "libraries": {
    "UniswapV3Lib": "0xAf5D2754b28EADfe7B9c0415Cd8b66545B35b9cC",
    "UniswapV3DebtLib": "0xbF69AC08aCDAd8769E7010337E060C31891C1Fb2",
    "ConverterStrategyBaseLib": "0x301Be1652dC990D0237140797b3a71110C6131c8"
  },
  "devdoc": {
    "kind": "dev",
    "methods": {
      "addFillup(IUniswapV3Pool,int24,int24,int24,uint256,uint256)": {
        "params": {
          "fee0": "The fee amount for the first token in the pool.",
          "fee1": "The fee amount for the second token in the pool.",
          "lowerTick": "The current lower tick value for the pool.",
          "pool": "The Uniswap V3 pool to add liquidity to.",
          "tickSpacing": "The tick spacing for the pool.",
          "upperTick": "The current upper tick value for the pool."
        },
        "returns": {
          "liquidityOutFillup": "The liquidity amount added to the new range.",
          "lowerTickFillup": "The lower tick value for the new liquidity range.",
          "upperTickFillup": "The upper tick value for the new liquidity range."
        }
      },
      "calcInitialDepositorValues(IUniswapV3Pool,int24,int24,address)": {
        "params": {
          "asset_": "Underlying asset of the depositor.",
          "pool": "The Uniswap V3 pool to get the initial values from.",
          "rebalanceTickRange_": "The rebalance tick range for the pool.",
          "tickRange_": "The tick range for the pool."
        },
        "returns": {
          "_depositorSwapTokens": "A boolean representing whether to use reverse tokens for pool.",
          "lowerTick": "The lower tick value for the pool.",
          "tickSpacing": "The tick spacing for the pool.",
          "tokenA": "The address of the first token in the pool.",
          "tokenB": "The address of the second token in the pool.",
          "upperTick": "The upper tick value for the pool."
        }
      },
      "claimRewards(IUniswapV3Pool,int24,int24,int24,int24,uint256,uint256,bool)": {
        "params": {
          "_depositorSwapTokens": "A boolean indicating if need to use token B instead of token A.",
          "lowerTick": "The lower tick of the pool's main range.",
          "lowerTickFillup": "The lower tick of the pool's fill-up range.",
          "pool": "The Uniswap V3 pool instance.",
          "rebalanceEarned0": "The amount of token0 earned from rebalancing.",
          "rebalanceEarned1": "The amount of token1 earned from rebalancing.",
          "upperTick": "The upper tick of the pool's main range.",
          "upperTickFillup": "The upper tick of the pool's fill-up range."
        },
        "returns": {
          "amountsOut": "An array containing the amounts of token0 and token1 claimed as rewards."
        }
      },
      "enter(IUniswapV3Pool,int24,int24,uint256[],uint128,bool)": {
        "params": {
          "_depositorSwapTokens": "A boolean indicating if need to use token B instead of token A.",
          "amountsDesired_": "An array containing the desired amounts of tokens to provide liquidity.",
          "lowerTick": "The lower tick value for the pool.",
          "pool": "The Uniswap V3 pool to provide liquidity to.",
          "totalLiquidity": "The current total liquidity in the pool.",
          "upperTick": "The upper tick value for the pool."
        },
        "returns": {
          "amountsConsumed": "An array containing the consumed amounts for each token in the pool.",
          "liquidityOut": "The amount of liquidity added to the pool.",
          "totalLiquidityNew": "The updated total liquidity after providing liquidity."
        }
      },
      "exit(IUniswapV3Pool,int24,int24,int24,int24,uint128,uint128,uint128,bool)": {
        "params": {
          "_depositorSwapTokens": "A boolean indicating if need to use token B instead of token A.",
          "liquidity": "The current liquidity in the pool.",
          "liquidityAmountToExit": "The amount of liquidity to exit.",
          "liquidityFillup": "The current liquidity in the fillup range.",
          "lowerTick": "The lower tick value for the pool.",
          "lowerTickFillup": "The lower tick value for the fillup range in the pool.",
          "pool": "The Uniswap V3 pool to exit from.",
          "upperTick": "The upper tick value for the pool.",
          "upperTickFillup": "The upper tick value for the fillup range in the pool."
        },
        "returns": {
          "amountsOut": "An array containing the collected amounts for each token in the pool.",
          "totalLiquidity": "The updated total liquidity after the exit.",
          "totalLiquidityFillup": "The updated total liquidity in the fillup range after the exit."
        }
      },
      "getEntryData(IUniswapV3Pool,int24,int24,int24,bool)": {
        "params": {
          "depositorSwapTokens": "A boolean indicating if need to use token B instead of token A.",
          "lowerTick": "The lower tick of the pool's main range.",
          "pool": "The Uniswap V3 pool instance.",
          "tickSpacing": "The tick spacing of the pool.",
          "upperTick": "The upper tick of the pool's main range."
        },
        "returns": {
          "entryData": "A byte array containing the entry data for the pool."
        }
      },
      "getFees(UniswapV3ConverterStrategyLogicLib.State storage)": {
        "params": {
          "state": "The State storage containing the pool's information."
        },
        "returns": {
          "fee0": "The fees generated for the first token in the pool.",
          "fee1": "The fees generated for the second token in the pool."
        }
      },
      "getOracleAssetsPrice(ITetuConverter,address,address)": {
        "params": {
          "converter": "The Tetu converter.",
          "tokenA": "The first token address.",
          "tokenB": "The second token address."
        },
        "returns": {
          "_0": "The price ratio of the two tokens."
        }
      },
      "getPoolReserves(UniswapV3ConverterStrategyLogicLib.State storage)": {
        "params": {
          "state": "The State storage containing the pool's information."
        },
        "returns": {
          "reserves": "An array containing the reserve amounts of the contract owned liquidity."
        }
      },
      "getTokenAmounts(UniswapV3ConverterStrategyLogicLib.State storage)": {
        "params": {
          "state": "The state of the pool."
        },
        "returns": {
          "amountA": "The balance of tokenA.",
          "amountB": "The balance of tokenB."
        }
      },
      "getUpdateInfo(UniswapV3ConverterStrategyLogicLib.State storage,mapping(address => uint256) storage)": {
        "details": "Gets the update information for the strategy, including token amounts received and spent.",
        "params": {
          "baseAmounts": "Mapping of token addresses to their base amounts on the strategy balance (not rewards).",
          "state": "The State storage object."
        },
        "returns": {
          "receivedA": "The amount of tokenA received.",
          "receivedB": "The amount of tokenB received.",
          "spentA": "The amount of tokenA spent.",
          "spentB": "The amount of tokenB spent."
        }
      },
      "isStablePool(IUniswapV3Pool)": {
        "params": {
          "pool": "The Uniswap V3 pool."
        },
        "returns": {
          "_0": "A boolean indicating if the pool is stable."
        }
      },
      "needRebalance(bool,IUniswapV3Pool,int24,int24,int24,int24)": {
        "returns": {
          "_0": "A boolean indicating if the pool needs to be rebalanced."
        }
      },
      "quoteExit(IUniswapV3Pool,int24,int24,int24,int24,uint128,uint128,uint128,bool)": {
        "params": {
          "_depositorSwapTokens": "A boolean indicating if need to use token B instead of token A.",
          "liquidity": "The current liquidity in the pool.",
          "liquidityAmountToExit": "The amount of liquidity to exit.",
          "liquidityFillup": "The current liquidity in the fillup range.",
          "lowerTick": "The lower tick value for the pool.",
          "lowerTickFillup": "The lower tick value for the fillup range in the pool.",
          "pool": "The Uniswap V3 pool to quote the exit amounts for.",
          "upperTick": "The upper tick value for the pool.",
          "upperTickFillup": "The upper tick value for the fillup range in the pool."
        },
        "returns": {
          "amountsOut": "An array containing the estimated exit amounts for each token in the pool."
        }
      },
      "rebalance(UniswapV3ConverterStrategyLogicLib.State storage,ITetuConverter,address,uint256)": {
        "details": "Rebalances the current position, adjusts the tick range, and attempts to cover loss with pool rewards.",
        "params": {
          "controller": "The Tetu controller address.",
          "converter": "The TetuConverter contract.",
          "oldInvestedAssets": "The amount of invested assets before rebalancing.",
          "state": "The State storage object."
        },
        "returns": {
          "isNeedFillup": "Indicates if fill-up is required after rebalancing.",
          "tokenAmounts": "The token amounts for deposit (if length != 2 then do nothing)."
        }
      }
    },
    "version": 1
  },
  "userdoc": {
    "kind": "user",
    "methods": {
      "addFillup(IUniswapV3Pool,int24,int24,int24,uint256,uint256)": {
        "notice": "Add liquidity to a Uniswap V3 pool in a specified tick range according fill up rules."
      },
      "calcInitialDepositorValues(IUniswapV3Pool,int24,int24,address)": {
        "notice": "Calculate the initial values for a Uniswap V3 pool Depositor."
      },
      "claimRewards(IUniswapV3Pool,int24,int24,int24,int24,uint256,uint256,bool)": {
        "notice": "Claim rewards from the Uniswap V3 pool."
      },
      "enter(IUniswapV3Pool,int24,int24,uint256[],uint128,bool)": {
        "notice": "Enter the pool and provide liquidity with desired token amounts."
      },
      "exit(IUniswapV3Pool,int24,int24,int24,int24,uint128,uint128,uint128,bool)": {
        "notice": "Exit the pool and collect tokens proportional to the liquidity amount to exit."
      },
      "getEntryData(IUniswapV3Pool,int24,int24,int24,bool)": {
        "notice": "Get entry data for a Uniswap V3 pool."
      },
      "getFees(UniswapV3ConverterStrategyLogicLib.State storage)": {
        "notice": "Retrieve the fees generated by a Uniswap V3 pool managed by this contract."
      },
      "getOracleAssetsPrice(ITetuConverter,address,address)": {
        "notice": "Get the price ratio of the two given tokens from the oracle."
      },
      "getPoolReserves(UniswapV3ConverterStrategyLogicLib.State storage)": {
        "notice": "Retrieve the reserves of a Uniswap V3 pool managed by this contract."
      },
      "getTokenAmounts(UniswapV3ConverterStrategyLogicLib.State storage)": {
        "notice": "Get the token amounts held by the contract excluding earned parts."
      },
      "isStablePool(IUniswapV3Pool)": {
        "notice": "Check if the given pool is a stable pool."
      },
      "needRebalance(bool,IUniswapV3Pool,int24,int24,int24,int24)": {
        "notice": "Determine if the pool needs to be rebalanced."
      },
      "quoteExit(IUniswapV3Pool,int24,int24,int24,int24,uint128,uint128,uint128,bool)": {
        "notice": "Estimate the exit amounts for a given liquidity amount in a Uniswap V3 pool."
      }
    },
    "version": 1
  },
  "storageLayout": {
    "storage": [],
    "types": null
  }
}