{
  "address": "0xA0D1263e0AF8848e70FE2A996a4423161a30E8Ae",
  "abi": [
    {
      "anonymous": false,
      "inputs": [
        {
          "indexed": false,
          "internalType": "address",
          "name": "token",
          "type": "address"
        },
        {
          "indexed": false,
          "internalType": "uint256",
          "name": "amount",
          "type": "uint256"
        }
      ],
      "name": "Claimed",
      "type": "event"
    },
    {
      "anonymous": false,
      "inputs": [
        {
          "indexed": false,
          "internalType": "uint256",
          "name": "oldValue",
          "type": "uint256"
        },
        {
          "indexed": false,
          "internalType": "uint256",
          "name": "newValue",
          "type": "uint256"
        }
      ],
      "name": "CompoundRatioChanged",
      "type": "event"
    },
    {
      "anonymous": false,
      "inputs": [
        {
          "indexed": false,
          "internalType": "address",
          "name": "controller",
          "type": "address"
        },
        {
          "indexed": false,
          "internalType": "uint256",
          "name": "ts",
          "type": "uint256"
        },
        {
          "indexed": false,
          "internalType": "uint256",
          "name": "block",
          "type": "uint256"
        }
      ],
      "name": "ContractInitialized",
      "type": "event"
    },
    {
      "anonymous": false,
      "inputs": [
        {
          "indexed": false,
          "internalType": "uint256",
          "name": "amount",
          "type": "uint256"
        }
      ],
      "name": "DepositToPool",
      "type": "event"
    },
    {
      "anonymous": false,
      "inputs": [
        {
          "indexed": false,
          "internalType": "address",
          "name": "sender",
          "type": "address"
        },
        {
          "indexed": false,
          "internalType": "uint256",
          "name": "amount",
          "type": "uint256"
        }
      ],
      "name": "EmergencyExit",
      "type": "event"
    },
    {
      "anonymous": false,
      "inputs": [
        {
          "indexed": false,
          "internalType": "uint8",
          "name": "version",
          "type": "uint8"
        }
      ],
      "name": "Initialized",
      "type": "event"
    },
    {
      "anonymous": false,
      "inputs": [
        {
          "indexed": false,
          "internalType": "uint256",
          "name": "balance",
          "type": "uint256"
        }
      ],
      "name": "InvestAll",
      "type": "event"
    },
    {
      "anonymous": false,
      "inputs": [
        {
          "indexed": false,
          "internalType": "address",
          "name": "token",
          "type": "address"
        },
        {
          "indexed": false,
          "internalType": "uint256",
          "name": "amount",
          "type": "uint256"
        }
      ],
      "name": "LiquidationThresholdChanged",
      "type": "event"
    },
    {
      "anonymous": false,
      "inputs": [
        {
          "indexed": false,
          "internalType": "address",
          "name": "sender",
          "type": "address"
        }
      ],
      "name": "ManualClaim",
      "type": "event"
    },
    {
      "anonymous": false,
      "inputs": [
        {
          "indexed": false,
          "internalType": "uint256[]",
          "name": "withdrawnAmounts",
          "type": "uint256[]"
        }
      ],
      "name": "OnDepositorEmergencyExit",
      "type": "event"
    },
    {
      "anonymous": false,
      "inputs": [
        {
          "indexed": false,
          "internalType": "uint256[]",
          "name": "amounts",
          "type": "uint256[]"
        },
        {
          "indexed": false,
          "internalType": "uint256[]",
          "name": "consumedAmounts",
          "type": "uint256[]"
        }
      ],
      "name": "OnDepositorEnter",
      "type": "event"
    },
    {
      "anonymous": false,
      "inputs": [
        {
          "indexed": false,
          "internalType": "uint256",
          "name": "liquidityAmount",
          "type": "uint256"
        },
        {
          "indexed": false,
          "internalType": "uint256[]",
          "name": "withdrawnAmounts",
          "type": "uint256[]"
        }
      ],
      "name": "OnDepositorExit",
      "type": "event"
    },
    {
      "anonymous": false,
      "inputs": [
        {
          "indexed": false,
          "internalType": "address[]",
          "name": "rewardTokens",
          "type": "address[]"
        },
        {
          "indexed": false,
          "internalType": "uint256[]",
          "name": "receivedAmounts",
          "type": "uint256[]"
        },
        {
          "indexed": false,
          "internalType": "uint256[]",
          "name": "spentAmounts",
          "type": "uint256[]"
        },
        {
          "indexed": false,
          "internalType": "uint256[]",
          "name": "amountsToForward",
          "type": "uint256[]"
        },
        {
          "indexed": false,
          "internalType": "uint256[]",
          "name": "performanceAmounts",
          "type": "uint256[]"
        }
      ],
      "name": "Recycle",
      "type": "event"
    },
    {
      "anonymous": false,
      "inputs": [
        {
          "indexed": false,
          "internalType": "uint256",
          "name": "amount",
          "type": "uint256"
        }
      ],
      "name": "ReinvestThresholdPercentChanged",
      "type": "event"
    },
    {
      "anonymous": false,
      "inputs": [
        {
          "indexed": false,
          "internalType": "address",
          "name": "asset",
          "type": "address"
        },
        {
          "indexed": false,
          "internalType": "uint256",
          "name": "amount",
          "type": "uint256"
        }
      ],
      "name": "ReturnAssetToConverter",
      "type": "event"
    },
    {
      "anonymous": false,
      "inputs": [
        {
          "indexed": false,
          "internalType": "uint256",
          "name": "value",
          "type": "uint256"
        },
        {
          "indexed": false,
          "internalType": "address",
          "name": "oldLogic",
          "type": "address"
        }
      ],
      "name": "RevisionIncreased",
      "type": "event"
    },
    {
      "anonymous": false,
      "inputs": [
        {
          "indexed": false,
          "internalType": "address",
          "name": "asset",
          "type": "address"
        },
        {
          "indexed": false,
          "internalType": "int256",
          "name": "amount",
          "type": "int256"
        }
      ],
      "name": "UpdateBaseAmounts",
      "type": "event"
    },
    {
      "anonymous": false,
      "inputs": [
        {
          "indexed": false,
          "internalType": "uint256",
          "name": "amount",
          "type": "uint256"
        }
      ],
      "name": "WithdrawAllFromPool",
      "type": "event"
    },
    {
      "anonymous": false,
      "inputs": [
        {
          "indexed": false,
          "internalType": "uint256",
          "name": "amount",
          "type": "uint256"
        }
      ],
      "name": "WithdrawAllToSplitter",
      "type": "event"
    },
    {
      "anonymous": false,
      "inputs": [
        {
          "indexed": false,
          "internalType": "uint256",
          "name": "amount",
          "type": "uint256"
        }
      ],
      "name": "WithdrawFromPool",
      "type": "event"
    },
    {
      "anonymous": false,
      "inputs": [
        {
          "indexed": false,
          "internalType": "uint256",
          "name": "amount",
          "type": "uint256"
        },
        {
          "indexed": false,
          "internalType": "uint256",
          "name": "sent",
          "type": "uint256"
        },
        {
          "indexed": false,
          "internalType": "uint256",
          "name": "balance",
          "type": "uint256"
        }
      ],
      "name": "WithdrawToSplitter",
      "type": "event"
    },
    {
      "inputs": [],
      "name": "CONTROLLABLE_VERSION",
      "outputs": [
        {
          "internalType": "string",
          "name": "",
          "type": "string"
        }
      ],
      "stateMutability": "view",
      "type": "function"
    },
    {
      "inputs": [],
      "name": "CONVERTER_STRATEGY_BASE_VERSION",
      "outputs": [
        {
          "internalType": "string",
          "name": "",
          "type": "string"
        }
      ],
      "stateMutability": "view",
      "type": "function"
    },
    {
      "inputs": [],
      "name": "NAME",
      "outputs": [
        {
          "internalType": "string",
          "name": "",
          "type": "string"
        }
      ],
      "stateMutability": "view",
      "type": "function"
    },
    {
      "inputs": [],
      "name": "PLATFORM",
      "outputs": [
        {
          "internalType": "string",
          "name": "",
          "type": "string"
        }
      ],
      "stateMutability": "view",
      "type": "function"
    },
    {
      "inputs": [],
      "name": "STRATEGY_BASE_VERSION",
      "outputs": [
        {
          "internalType": "string",
          "name": "",
          "type": "string"
        }
      ],
      "stateMutability": "view",
      "type": "function"
    },
    {
      "inputs": [],
      "name": "STRATEGY_VERSION",
      "outputs": [
        {
          "internalType": "string",
          "name": "",
          "type": "string"
        }
      ],
      "stateMutability": "view",
      "type": "function"
    },
    {
      "inputs": [],
      "name": "UNISWAPV3_DEPOSITOR_VERSION",
      "outputs": [
        {
          "internalType": "string",
          "name": "",
          "type": "string"
        }
      ],
      "stateMutability": "view",
      "type": "function"
    },
    {
      "inputs": [],
      "name": "asset",
      "outputs": [
        {
          "internalType": "address",
          "name": "",
          "type": "address"
        }
      ],
      "stateMutability": "view",
      "type": "function"
    },
    {
      "inputs": [
        {
          "internalType": "address",
          "name": "",
          "type": "address"
        }
      ],
      "name": "baseAmounts",
      "outputs": [
        {
          "internalType": "uint256",
          "name": "",
          "type": "uint256"
        }
      ],
      "stateMutability": "view",
      "type": "function"
    },
    {
      "inputs": [],
      "name": "calcInvestedAssets",
      "outputs": [
        {
          "internalType": "uint256",
          "name": "",
          "type": "uint256"
        }
      ],
      "stateMutability": "nonpayable",
      "type": "function"
    },
    {
      "inputs": [],
      "name": "capacity",
      "outputs": [
        {
          "internalType": "uint256",
          "name": "",
          "type": "uint256"
        }
      ],
      "stateMutability": "view",
      "type": "function"
    },
    {
      "inputs": [],
      "name": "claim",
      "outputs": [],
      "stateMutability": "nonpayable",
      "type": "function"
    },
    {
      "inputs": [],
      "name": "compoundRatio",
      "outputs": [
        {
          "internalType": "uint256",
          "name": "",
          "type": "uint256"
        }
      ],
      "stateMutability": "view",
      "type": "function"
    },
    {
      "inputs": [],
      "name": "controller",
      "outputs": [
        {
          "internalType": "address",
          "name": "",
          "type": "address"
        }
      ],
      "stateMutability": "view",
      "type": "function"
    },
    {
      "inputs": [],
      "name": "converter",
      "outputs": [
        {
          "internalType": "contract ITetuConverter",
          "name": "",
          "type": "address"
        }
      ],
      "stateMutability": "view",
      "type": "function"
    },
    {
      "inputs": [],
      "name": "created",
      "outputs": [
        {
          "internalType": "uint256",
          "name": "",
          "type": "uint256"
        }
      ],
      "stateMutability": "view",
      "type": "function"
    },
    {
      "inputs": [],
      "name": "createdBlock",
      "outputs": [
        {
          "internalType": "uint256",
          "name": "",
          "type": "uint256"
        }
      ],
      "stateMutability": "view",
      "type": "function"
    },
    {
      "inputs": [],
      "name": "disableFuse",
      "outputs": [],
      "stateMutability": "nonpayable",
      "type": "function"
    },
    {
      "inputs": [],
      "name": "doHardWork",
      "outputs": [
        {
          "internalType": "uint256",
          "name": "",
          "type": "uint256"
        },
        {
          "internalType": "uint256",
          "name": "",
          "type": "uint256"
        }
      ],
      "stateMutability": "nonpayable",
      "type": "function"
    },
    {
      "inputs": [],
      "name": "emergencyExit",
      "outputs": [],
      "stateMutability": "nonpayable",
      "type": "function"
    },
    {
      "inputs": [],
      "name": "getState",
      "outputs": [
        {
          "internalType": "address",
          "name": "tokenA",
          "type": "address"
        },
        {
          "internalType": "address",
          "name": "tokenB",
          "type": "address"
        },
        {
          "internalType": "contract IUniswapV3Pool",
          "name": "pool",
          "type": "address"
        },
        {
          "internalType": "int24",
          "name": "tickSpacing",
          "type": "int24"
        },
        {
          "internalType": "int24",
          "name": "lowerTick",
          "type": "int24"
        },
        {
          "internalType": "int24",
          "name": "upperTick",
          "type": "int24"
        },
        {
          "internalType": "int24",
          "name": "rebalanceTickRange",
          "type": "int24"
        },
        {
          "internalType": "uint128",
          "name": "totalLiquidity",
          "type": "uint128"
        },
        {
          "internalType": "bool",
          "name": "isFuseTriggered",
          "type": "bool"
        },
        {
          "internalType": "uint256",
          "name": "fuseThreshold",
          "type": "uint256"
        },
        {
          "internalType": "uint256[]",
          "name": "rebalanceResults",
          "type": "uint256[]"
        }
      ],
      "stateMutability": "view",
      "type": "function"
    },
    {
      "inputs": [
        {
          "internalType": "address",
          "name": "oldLogic",
          "type": "address"
        }
      ],
      "name": "increaseRevision",
      "outputs": [],
      "stateMutability": "nonpayable",
      "type": "function"
    },
    {
      "inputs": [
        {
          "internalType": "address",
          "name": "controller_",
          "type": "address"
        },
        {
          "internalType": "address",
          "name": "splitter_",
          "type": "address"
        },
        {
          "internalType": "address",
          "name": "converter_",
          "type": "address"
        },
        {
          "internalType": "address",
          "name": "pool_",
          "type": "address"
        },
        {
          "internalType": "int24",
          "name": "tickRange_",
          "type": "int24"
        },
        {
          "internalType": "int24",
          "name": "rebalanceTickRange_",
          "type": "int24"
        }
      ],
      "name": "init",
      "outputs": [],
      "stateMutability": "nonpayable",
      "type": "function"
    },
    {
      "inputs": [
        {
          "internalType": "uint256",
          "name": "amount_",
          "type": "uint256"
        },
        {
          "internalType": "bool",
          "name": "updateTotalAssetsBeforeInvest_",
          "type": "bool"
        }
      ],
      "name": "investAll",
      "outputs": [
        {
          "internalType": "int256",
          "name": "totalAssetsDelta",
          "type": "int256"
        }
      ],
      "stateMutability": "nonpayable",
      "type": "function"
    },
    {
      "inputs": [],
      "name": "investedAssets",
      "outputs": [
        {
          "internalType": "uint256",
          "name": "",
          "type": "uint256"
        }
      ],
      "stateMutability": "view",
      "type": "function"
    },
    {
      "inputs": [
        {
          "internalType": "address",
          "name": "_value",
          "type": "address"
        }
      ],
      "name": "isController",
      "outputs": [
        {
          "internalType": "bool",
          "name": "",
          "type": "bool"
        }
      ],
      "stateMutability": "view",
      "type": "function"
    },
    {
      "inputs": [
        {
          "internalType": "address",
          "name": "_value",
          "type": "address"
        }
      ],
      "name": "isGovernance",
      "outputs": [
        {
          "internalType": "bool",
          "name": "",
          "type": "bool"
        }
      ],
      "stateMutability": "view",
      "type": "function"
    },
    {
      "inputs": [],
      "name": "isReadyToHardWork",
      "outputs": [
        {
          "internalType": "bool",
          "name": "",
          "type": "bool"
        }
      ],
      "stateMutability": "view",
      "type": "function"
    },
    {
      "inputs": [
        {
          "internalType": "address",
          "name": "",
          "type": "address"
        }
      ],
      "name": "liquidationThresholds",
      "outputs": [
        {
          "internalType": "uint256",
          "name": "",
          "type": "uint256"
        }
      ],
      "stateMutability": "view",
      "type": "function"
    },
    {
      "inputs": [],
      "name": "needRebalance",
      "outputs": [
        {
          "internalType": "bool",
          "name": "",
          "type": "bool"
        }
      ],
      "stateMutability": "view",
      "type": "function"
    },
    {
      "inputs": [
        {
          "internalType": "address",
          "name": "",
          "type": "address"
        },
        {
          "internalType": "address",
          "name": "",
          "type": "address"
        },
        {
          "internalType": "uint256",
          "name": "",
          "type": "uint256"
        }
      ],
      "name": "onTransferBorrowedAmount",
      "outputs": [],
      "stateMutability": "pure",
      "type": "function"
    },
    {
      "inputs": [],
      "name": "performanceFee",
      "outputs": [
        {
          "internalType": "uint256",
          "name": "",
          "type": "uint256"
        }
      ],
      "stateMutability": "view",
      "type": "function"
    },
    {
      "inputs": [],
      "name": "performanceReceiver",
      "outputs": [
        {
          "internalType": "address",
          "name": "",
          "type": "address"
        }
      ],
      "stateMutability": "view",
      "type": "function"
    },
    {
      "inputs": [],
      "name": "previousImplementation",
      "outputs": [
        {
          "internalType": "address",
          "name": "",
          "type": "address"
        }
      ],
      "stateMutability": "view",
      "type": "function"
    },
    {
      "inputs": [],
      "name": "rebalance",
      "outputs": [],
      "stateMutability": "nonpayable",
      "type": "function"
    },
    {
      "inputs": [],
      "name": "reinvestThresholdPercent",
      "outputs": [
        {
          "internalType": "uint256",
          "name": "",
          "type": "uint256"
        }
      ],
      "stateMutability": "view",
      "type": "function"
    },
    {
      "inputs": [
        {
          "internalType": "address",
          "name": "theAsset_",
          "type": "address"
        },
        {
          "internalType": "uint256",
          "name": "amount_",
          "type": "uint256"
        }
      ],
      "name": "requirePayAmountBack",
      "outputs": [
        {
          "internalType": "uint256",
          "name": "amountOut",
          "type": "uint256"
        }
      ],
      "stateMutability": "nonpayable",
      "type": "function"
    },
    {
      "inputs": [],
      "name": "revision",
      "outputs": [
        {
          "internalType": "uint256",
          "name": "",
          "type": "uint256"
        }
      ],
      "stateMutability": "view",
      "type": "function"
    },
    {
      "inputs": [
        {
          "internalType": "uint256",
          "name": "value",
          "type": "uint256"
        }
      ],
      "name": "setCompoundRatio",
      "outputs": [],
      "stateMutability": "nonpayable",
      "type": "function"
    },
    {
      "inputs": [
        {
          "internalType": "uint256",
          "name": "newFuseThreshold",
          "type": "uint256"
        }
      ],
      "name": "setFuseThreshold",
      "outputs": [],
      "stateMutability": "nonpayable",
      "type": "function"
    },
    {
      "inputs": [
        {
          "internalType": "address",
          "name": "token",
          "type": "address"
        },
        {
          "internalType": "uint256",
          "name": "amount",
          "type": "uint256"
        }
      ],
      "name": "setLiquidationThreshold",
      "outputs": [],
      "stateMutability": "nonpayable",
      "type": "function"
    },
    {
      "inputs": [
        {
          "internalType": "uint256",
          "name": "percent_",
          "type": "uint256"
        }
      ],
      "name": "setReinvestThresholdPercent",
      "outputs": [],
      "stateMutability": "nonpayable",
      "type": "function"
    },
    {
      "inputs": [
        {
          "internalType": "uint256",
          "name": "fee_",
          "type": "uint256"
        },
        {
          "internalType": "address",
          "name": "receiver_",
          "type": "address"
        }
      ],
      "name": "setupPerformanceFee",
      "outputs": [],
      "stateMutability": "nonpayable",
      "type": "function"
    },
    {
      "inputs": [],
      "name": "splitter",
      "outputs": [
        {
          "internalType": "address",
          "name": "",
          "type": "address"
        }
      ],
      "stateMutability": "view",
      "type": "function"
    },
    {
      "inputs": [
        {
          "internalType": "bytes4",
          "name": "interfaceId",
          "type": "bytes4"
        }
      ],
      "name": "supportsInterface",
      "outputs": [
        {
          "internalType": "bool",
          "name": "",
          "type": "bool"
        }
      ],
      "stateMutability": "view",
      "type": "function"
    },
    {
      "inputs": [],
      "name": "totalAssets",
      "outputs": [
        {
          "internalType": "uint256",
          "name": "",
          "type": "uint256"
        }
      ],
      "stateMutability": "view",
      "type": "function"
    },
    {
      "inputs": [
        {
          "internalType": "uint256",
          "name": "amount0Owed",
          "type": "uint256"
        },
        {
          "internalType": "uint256",
          "name": "amount1Owed",
          "type": "uint256"
        },
        {
          "internalType": "bytes",
          "name": "",
          "type": "bytes"
        }
      ],
      "name": "uniswapV3MintCallback",
      "outputs": [],
      "stateMutability": "nonpayable",
      "type": "function"
    },
    {
      "inputs": [],
      "name": "withdrawAllToSplitter",
      "outputs": [
        {
          "internalType": "int256",
          "name": "",
          "type": "int256"
        }
      ],
      "stateMutability": "nonpayable",
      "type": "function"
    },
    {
      "inputs": [
        {
          "internalType": "uint256",
          "name": "amount",
          "type": "uint256"
        }
      ],
      "name": "withdrawToSplitter",
      "outputs": [
        {
          "internalType": "int256",
          "name": "totalAssetsDelta",
          "type": "int256"
        }
      ],
      "stateMutability": "nonpayable",
      "type": "function"
    }
  ],
  "transactionHash": "0x124868fc6abf8799a7e4479a43e47b5d5ccd6987963f09a742d2dcee8f9bda2b",
  "args": [],
  "numDeployments": 1,
  "solcInputHash": "c59f7e8a32e735828e193e20f2f070bc",
  "bytecode": "0x60806040523480156200001157600080fd5b506200001c62000022565b620000e3565b600054610100900460ff16156200008f5760405162461bcd60e51b815260206004820152602760248201527f496e697469616c697a61626c653a20636f6e747261637420697320696e697469604482015266616c697a696e6760c81b606482015260840160405180910390fd5b60005460ff90811614620000e1576000805460ff191660ff9081179091556040519081527f7f26b83ff96e1f2b6a682f133852f6798a09c465da95921460cefb38474024989060200160405180910390a15b565b615d4580620000f36000396000f3fe608060405234801561001057600080fd5b50600436106102ab5760003560e01c806371ee017511610172578063ab9e3eee116100d9578063d295ea7011610092578063d295ea70146105cf578063d3487997146105d8578063dc1000a7146105eb578063de3d047c1461060b578063dee1f0e41461061e578063f77c479114610631578063ffb86c6a1461063957600080fd5b8063ab9e3eee1461057b578063b245755614610583578063b429afeb14610596578063bd38837b146105a9578063cd4c8156146105bc578063ceee861d1461042e57600080fd5b8063877887821161012b57806387788782146104f757806387c7f77014610500578063936725ec14610513578063996a6c9c1461042e5780639d0bcca014610537578063a3f4df7e1461053f57600080fd5b806371ee01751461047257806373a50ef51461047b578063783274381461049f5780637cc96380146104bf5780637d7c2a1c146104c75780637efc77fa146104cf57600080fd5b806338d52e0f116102165780634fac6ccd116101cf5780634fac6ccd146103f657806351e03fbe146104095780635641ec031461041c5780635cfc1a51146104245780636207a0cf1461042e5780636ffb4c8e1461045f57600080fd5b806338d52e0f1461038e5780633cd8045e146103ae5780634593144c146103c15780634ad0b684146103c95780634e71d92d146103d15780634fa5d854146103d957600080fd5b806322b6f5e21161026857806322b6f5e21461033d578063253de4661461035057806328abdef014610363578063321793a81461036b578063325a19f11461037e57806333c5b58e1461038657600080fd5b806301e1d114146102b057806301ffc9a7146102cb5780630acd12c7146102ee5780630e30428d146102f65780631302cbad1461030b5780631865c57d1461031e575b600080fd5b6102b8610641565b6040519081526020015b60405180910390f35b6102de6102d9366004614c2f565b6106cc565b60405190151581526020016102c2565b6102b86106f7565b610309610304366004614c6e565b610904565b005b610309610319366004614c9a565b505050565b6103266109cb565b6040516102c29b9a99989796959493929190614d16565b61030961034b366004614da0565b610ad0565b61030961035e366004614ddf565b610c06565b610309610e07565b610309610379366004614e61565b610ee4565b6102b8610fbd565b6102b8610ff1565b603d546103a1906001600160a01b031681565b6040516102c29190614e7a565b603e546103a1906001600160a01b031681565b6102b8610ffb565b6043546102b8565b61030961102b565b6103e16110da565b604080519283526020830191909152016102c2565b610309610404366004614e8e565b61113f565b6102b8610417366004614e61565b61126a565b610309611480565b600160ff1b6102b8565b610452604051806040016040528060058152602001640312e302e360dc1b81525081565b6040516102c29190614efb565b61030961046d366004614e61565b6115de565b6102b860465481565b61045260405180604001604052806005815260200164322e312e3160d81b81525081565b6102b86104ad366004614e8e565b60456020526000908152604090205481565b6102b86116d6565b610309611706565b61045260405180604001604052806009815260200168556e6973776170563360b81b81525081565b6102b860425481565b6102b861050e366004614c6e565b611a3c565b610452604051806040016040528060058152602001640332e302e360dc1b81525081565b6103a1611ee2565b6104526040518060400160405280601c81526020017f556e6973776170563320436f6e7665727465722053747261746567790000000081525081565b6102de611f12565b6102b8610591366004614f1c565b611f9c565b6102de6105a4366004614e8e565b6120e4565b6044546103a1906001600160a01b031681565b6041546103a1906001600160a01b031681565b6102b8603f5481565b6103096105e6366004614f41565b612109565b6102b86105f9366004614e8e565b60406020819052600091825290205481565b610309610619366004614e61565b6121e5565b6102de61062c366004614e8e565b6122df565b6103a1612364565b6102de612394565b600061064c60435490565b603d546040516370a0823160e01b81526001600160a01b03909116906370a082319061067c903090600401614e7a565b602060405180830381865afa158015610699573d6000803e3d6000fd5b505050506040513d601f19601f820116820180604052508101906106bd9190614fc0565b6106c79190614fef565b905090565b60006001600160e01b0319821663f73147b360e01b14806106f157506106f18261242b565b92915050565b603e54603d5460405163201de59f60e01b81526000926001600160a01b039081169216907301AA10927D49d082d0ff1875D6a6228108178bb09063201de59f90610745908590600401614e7a565b60006040518083038186803b15801561075d57600080fd5b505af4158015610771573d6000803e3d6000fd5b50506040516370a0823160e01b8152600092506001600160a01b03841691506370a08231906107a4903090600401614e7a565b602060405180830381865afa1580156107c1573d6000803e3d6000fd5b505050506040513d601f19601f820116820180604052508101906107e59190614fc0565b905060008060006107f4612450565b9250925092507301AA10927D49d082d0ff1875D6a6228108178bb0631594b05b868686868b6040518663ffffffff1660e01b8152600401610839959493929190615002565b602060405180830381865af4158015610856573d6000803e3d6000fd5b505050506040513d601f19601f8201168201806040525081019061087a9190614fc0565b6001600160a01b038616600090815260406020819052902054909450808511156108a2578094505b5083156108c7576108b3858561247c565b6108c76001600160a01b0386168786612548565b6040518481527f97f6cbf669d73908a8de3b762891f88fcc476520fd70cb3d414dc9ac86e0a2e59060200160405180910390a19695505050505050565b7301AA10927D49d082d0ff1875D6a6228108178bb063493f6edc610926612364565b6040518263ffffffff1660e01b81526004016109429190614e7a565b60006040518083038186803b15801561095a57600080fd5b505af415801561096e573d6000803e3d6000fd5b5050506001600160a01b03831660009081526045602052604090819020839055517f297f3fbc14027d2b4a4f7dac3dff2ad6b386024299045b0e163f131bb24b611d91506109bf9084908490615032565b60405180910390a15050565b6001546002805460038054600454600954600a5460408051868152608081019091526001600160a01b03988916989687169796851696600160a01b8604810b96600160c81b8704820b96600160e01b9004820b95600160301b810490920b94600160501b9092046001600160801b03169360ff9092169260609160208201838036833701905050905060016005015481600081518110610a6d57610a6d615061565b60200260200101818152505060016006015481600181518110610a9257610a92615061565b60200260200101818152505060016007015481600281518110610ab757610ab7615061565b602002602001018181525050909192939495969798999a565b7301AA10927D49d082d0ff1875D6a6228108178bb0634bead669610af2612364565b6040518263ffffffff1660e01b8152600401610b0e9190614e7a565b60006040518083038186803b158015610b2657600080fd5b505af4158015610b3a573d6000803e3d6000fd5b505050506127108211156040518060400160405280600c81526020016b0a6847440a8dede40d0d2ced60a31b81525090610b905760405162461bcd60e51b8152600401610b879190614efb565b60405180910390fd5b5060408051808201909152600f81526e53423a2057726f6e672076616c756560881b60208201526001600160a01b038216610bde5760405162461bcd60e51b8152600401610b879190614efb565b50604291909155604180546001600160a01b0319166001600160a01b03909216919091179055565b600054610100900460ff1615808015610c265750600054600160ff909116105b80610c405750303b158015610c40575060005460ff166001145b610ca35760405162461bcd60e51b815260206004820152602e60248201527f496e697469616c697a61626c653a20636f6e747261637420697320616c72656160448201526d191e481a5b9a5d1a585b1a5e995960921b6064820152608401610b87565b6000805460ff191660011790558015610cc6576000805461ff0019166101001790555b610d33866001600160a01b03166338d52e0f6040518163ffffffff1660e01b8152600401602060405180830381865afa158015610d07573d6000803e3d6000fd5b505050506040513d601f19601f82011682018060405250810190610d2b9190615077565b85858561259e565b610d3e878787612787565b604051636a65141d60e11b8152600160048201526001600160a01b038089166024830152861660448201527308842e82E783Cf808d4b5b5efA17224433953e6d9063d4ca283a9060640160006040518083038186803b158015610da057600080fd5b505af4158015610db4573d6000803e3d6000fd5b505050508015610dfe576000805461ff0019169055604051600181527f7f26b83ff96e1f2b6a682f133852f6798a09c465da95921460cefb38474024989060200160405180910390a15b50505050505050565b7301AA10927D49d082d0ff1875D6a6228108178bb063493f6edc610e29612364565b6040518263ffffffff1660e01b8152600401610e459190614e7a565b60006040518083038186803b158015610e5d57600080fd5b505af4158015610e71573d6000803e3d6000fd5b50506009805460ff1916905550506040805163f460770b60e01b815290517308842e82E783Cf808d4b5b5efA17224433953e6d9163f460770b916004808301926000929190829003018186803b158015610eca57600080fd5b505af4158015610ede573d6000803e3d6000fd5b50505050565b7301AA10927D49d082d0ff1875D6a6228108178bb063493f6edc610f06612364565b6040518263ffffffff1660e01b8152600401610f229190614e7a565b60006040518083038186803b158015610f3a57600080fd5b505af4158015610f4e573d6000803e3d6000fd5b505050600a82905550604051631c77945b60e31b8152600481018290527308842e82E783Cf808d4b5b5efA17224433953e6d9063e3bca2d89060240160006040518083038186803b158015610fa257600080fd5b505af4158015610fb6573d6000803e3d6000fd5b5050505050565b60006106c7610fed60017f6f55f470bdc9cb5f04223fd822021061668e4dccb43e8727b295106dc9769c8b615094565b5490565b60006106c76127dc565b60006106c7610fed60017f812a673dfca07956350df10f8a654925f561d7a0da09bdbe79e653939a14d9f1615094565b7301AA10927D49d082d0ff1875D6a6228108178bb063493f6edc61104d612364565b6040518263ffffffff1660e01b81526004016110699190614e7a565b60006040518083038186803b15801561108157600080fd5b505af4158015611095573d6000803e3d6000fd5b505050506110a16128a3565b7fed7f50f936a5ed7428d20f18e78d6dfe8bc37fd2f4e3cdb348327c7697244928336040516110d09190614e7a565b60405180910390a1565b603e5460408051808201909152600a81526914d08e8811195b9a595960b21b60208201526000918291906001600160a01b0316331461112c5760405162461bcd60e51b8152600401610b879190614efb565b506111376001612a3c565b915091509091565b33301461118e5760405162461bcd60e51b815260206004820152601b60248201527f496e637265617365207265766973696f6e20666f7262696464656e00000000006044820152606401610b87565b60006111be610fed60017f22573091f17911fb166032a3d9e0554aa73d31b7b7ddea4a4dd2995650af84bd615094565b6111c9906001614fef565b90506111fd816111fa60017f22573091f17911fb166032a3d9e0554aa73d31b7b7ddea4a4dd2995650af84bd615094565b55565b61122c826111fa60017fbfaaa2fb63266ff27c2da975f5894955056f50419af651a81f6c5060581857e4615094565b604080518281526001600160a01b03841660208201527ff27e2ef832a4eb8ed8ec553b875eecd44764cda95b1c24170e281539e0a869c891016109bf565b603e54603d5460405163201de59f60e01b81526000926001600160a01b039081169216907301AA10927D49d082d0ff1875D6a6228108178bb09063201de59f906112b8908590600401614e7a565b60006040518083038186803b1580156112d057600080fd5b505af41580156112e4573d6000803e3d6000fd5b50506040516370a0823160e01b8152600092506001600160a01b03841691506370a0823190611317903090600401614e7a565b602060405180830381865afa158015611334573d6000803e3d6000fd5b505050506040513d601f19601f820116820180604052508101906113589190614fc0565b905080851115611404576000806113776113728489615094565b612af5565b604051631594b05b60e01b815290985091935091507301AA10927D49d082d0ff1875D6a6228108178bb090631594b05b906113be9087908790879087908c90600401615002565b602060405180830381865af41580156113db573d6000803e3d6000fd5b505050506040513d601f19601f820116820180604052508101906113ff9190614fc0565b925050505b60006114108683612b6f565b9050801561143657611422838261247c565b6114366001600160a01b0384168583612548565b60408051878152602081018390529081018390527f21b38dd19808c509ae6afc969adfaf7d35fe949c37abd493b963cf9b68cc1acb9060600160405180910390a150505050919050565b7301AA10927D49d082d0ff1875D6a6228108178bb063493f6edc6114a2612364565b6040518263ffffffff1660e01b81526004016114be9190614e7a565b60006040518083038186803b1580156114d657600080fd5b505af41580156114ea573d6000803e3d6000fd5b505050506114f6612b87565b603d546040516370a0823160e01b81526001600160a01b039091169060009082906370a082319061152b903090600401614e7a565b602060405180830381865afa158015611548573d6000803e3d6000fd5b505050506040513d601f19601f8201168201806040525081019061156c9190614fc0565b6001600160a01b03831660009081526040602081905290205490915061159390839061247c565b603e546115ad906001600160a01b03848116911683612548565b7ff779df072f94d207563b1ba8c286814086f1e6bb436a2652e307dccc56ed79e833826040516109bf929190615032565b7301AA10927D49d082d0ff1875D6a6228108178bb063493f6edc611600612364565b6040518263ffffffff1660e01b815260040161161c9190614e7a565b60006040518083038186803b15801561163457600080fd5b505af4158015611648573d6000803e3d6000fd5b50505050620186a08111156040518060400160405280600f81526020016e53423a2057726f6e672076616c756560881b815250906116995760405162461bcd60e51b8152600401610b879190614efb565b5060468190556040518181527fe4166dfcf23bbd3e3f764a99dc8fa740554c03c82d6019b81cf265f396f6f2fe906020015b60405180910390a150565b60006106c7610fed60017f22573091f17911fb166032a3d9e0554aa73d31b7b7ddea4a4dd2995650af84bd615094565b6000611710612364565b60405163124fdbb760e21b81529091507301AA10927D49d082d0ff1875D6a6228108178bb09063493f6edc9061174a908490600401614e7a565b60006040518083038186803b15801561176257600080fd5b505af4158015611776573d6000803e3d6000fd5b50505050611782612c16565b5060445460009081907308842e82E783Cf808d4b5b5efA17224433953e6d9063b24d8db0906001906001600160a01b0316866117bd60435490565b6040516001600160e01b031960e087901b16815260048101949094526001600160a01b039283166024850152911660448301526064820152608401600060405180830381865af4158015611815573d6000803e3d6000fd5b505050506040513d6000823e601f3d908101601f1916820160405261183d9190810190615165565b9150915081516002036119685761185382612c28565b5050801561196857600354600654600754604051638c64d45560e01b81526001600160a01b0384166004820152600160c81b8404600290810b6024830152600160e01b8504810b6044830152600160a01b90940490930b6064840152608483019190915260a48201527308842e82E783Cf808d4b5b5efA17224433953e6d90638c64d4559060c401606060405180830381865af41580156118f8573d6000803e3d6000fd5b505050506040513d601f19601f8201168201806040525081019061191c91906151c7565b600580546001600160801b0319166001600160801b03929092169190911790556004805465ffffffffffff1916630100000062ffffff9384160262ffffff191617929091169190911790555b6000806000807308842e82E783Cf808d4b5b5efA17224433953e6d63915a3eb46001604080518363ffffffff1660e01b81526004016119b1929190918252602082015260400190565b608060405180830381865af41580156119ce573d6000803e3d6000fd5b505050506040513d601f19601f820116820180604052508101906119f2919061520f565b60015493975091955093509150611a13906001600160a01b03168585612d23565b600254611a2a906001600160a01b03168383612d23565b611a32612d62565b5050505050505050565b6000611a8f6040518061010001604052806000815260200160006001600160a01b031681526020016060815260200160008152602001600081526020016060815260200160608152602001600081525090565b6044546001600160a01b0316602080830182905260408051808201909152600a81526914d08e8811195b9a595960b21b91810191909152903314611ae65760405162461bcd60e51b8152600401610b879190614efb565b50611af084612d76565b606083018190526040808401929092528151808301909252600f82526e53423a2057726f6e672076616c756560881b602083015219611b425760405162461bcd60e51b8152600401610b879190614efb565b506040808201515182526001600160a01b038516600090815260208290522054608082015280516001600160401b03811115611b8057611b8061504b565b604051908082528060200260200182016040528015611ba9578160200160208202803683370190505b5060a082015280516001600160401b03811115611bc857611bc861504b565b604051908082528060200260200182016040528015611bf1578160200160208202803683370190505b5060c08201526080810151831115611c6857611c0b612d95565b60e0820181905215611c6857611c248160e00151612dab565b60a0820181905260e08201516040517faebc771af58936b05e89b0be7d3f9761480181abcd4a649fbdd01753fda1697092611c5f9291615245565b60405180910390a15b828160a00151826060015181518110611c8357611c83615061565b60200260200101518260800151611c9a9190614fef565b1015611e1c5773301Be1652dC990D0237140797b3a71110C6131c863749e2cd18260a00151836060015181518110611cd457611cd4615061565b60200260200101518360800151611ceb9190614fef565b611cf59086615094565b60408401516060850151603d5460a087015160208801516001600160a01b0390921691611d20612364565b6001600160a01b0316634046ebae6040518163ffffffff1660e01b8152600401602060405180830381865afa158015611d5d573d6000803e3d6000fd5b505050506040513d601f19601f82011682018060405250810190611d819190615077565b6001600160a01b038d16600090815260456020526040902054611da661012c80614fef565b604080518b63ffffffff1660e01b8152600401611dcc9a99989796959493929190615297565b600060405180830381865af4158015611de9573d6000803e3d6000fd5b505050506040513d6000823e601f3d908101601f19168201604052611e119190810190615311565b60a083015260c08201525b611e568160a00151826060015181518110611e3957611e39615061565b60200260200101518260800151611e509190614fef565b84612b6f565b6020820151909250611e73906001600160a01b0386169084612548565b611e9981604001518260a001518360c00151846060015186611e9490615374565b612f65565b611ea1612d62565b507f178d2d6770c9dbd24f8d3e4dc08998cad5a42857f107435518f65c761e253bcc8483604051611ed3929190615032565b60405180910390a15092915050565b60006106c7610fed60017fbfaaa2fb63266ff27c2da975f5894955056f50419af651a81f6c5060581857e4615094565b60448054604051635ca1bcdf60e01b8152600160048201526001600160a01b0390911660248201526000917308842e82E783Cf808d4b5b5efA17224433953e6d91635ca1bcdf91015b602060405180830381865af4158015611f78573d6000803e3d6000fd5b505050506040513d601f19601f820116820180604052508101906106c79190615390565b603e5460405163201de59f60e01b81526000917301AA10927D49d082d0ff1875D6a6228108178bb09163201de59f91611fe3916001600160a01b0390911690600401614e7a565b60006040518083038186803b158015611ffb57600080fd5b505af415801561200f573d6000803e3d6000fd5b5050603d546040516370a0823160e01b81526001600160a01b0390911692506000915082906370a0823190612048903090600401614e7a565b602060405180830381865afa158015612065573d6000803e3d6000fd5b505050506040513d601f19601f820116820180604052508101906120899190614fc0565b9050612096828683613013565b80156120a9576120a681856130c1565b92505b6040518181527f94bcfc9a8eba5229c2956ccb1858733fce588bc02145ac053c40b9827a33837f9060200160405180910390a1505092915050565b60006120ee612364565b6001600160a01b0316826001600160a01b0316149050919050565b6003546001600160a01b031633146121555760405162461bcd60e51b815260206004820152600f60248201526e31b0b6363130b1b59031b0b63632b960891b6044820152606401610b87565b83156121a2576004546121a29033908690600160481b900460ff16612185576001546001600160a01b0316612192565b6002546001600160a01b03165b6001600160a01b03169190612548565b8215610ede57600454610ede9033908590600160481b900460ff166121d2576002546001600160a01b0316612192565b6001546001600160a01b03169190612548565b7301AA10927D49d082d0ff1875D6a6228108178bb063ac1d8b35612207612364565b6040518263ffffffff1660e01b81526004016122239190614e7a565b60006040518083038186803b15801561223b57600080fd5b505af415801561224f573d6000803e3d6000fd5b50505050620186a08111156040518060400160405280600c81526020016b0a6847440a8dede40d0d2ced60a31b8152509061229d5760405162461bcd60e51b8152600401610b879190614efb565b50603f5460408051918252602082018390527f89979f75740477f1609671a960c1f57e40a47e58bdf1623bc683d806fb6407e5910160405180910390a1603f55565b6000816001600160a01b03166122f3612364565b6001600160a01b0316635aa6e6756040518163ffffffff1660e01b8152600401602060405180830381865afa158015612330573d6000803e3d6000fd5b505050506040513d601f19601f820116820180604052508101906123549190615077565b6001600160a01b03161492915050565b60006106c7610fed60017f5165972ef41194f06c5007493031d0b927c20741adcb74403b954009fd2c3618615094565b60095460035460048054604051632beacd5760e11b815260ff9094161515918401919091526001600160a01b0382166024840152600160c81b8204600290810b6044850152600160e01b8304810b6064850152600160a01b909204820b6084840152600160301b9004900b60a48201526000907308842e82E783Cf808d4b5b5efA17224433953e6d906357d59aae9060c401611f5b565b60006001600160e01b0319821663c19fa56160e01b14806106f157506106f18261324d565b6000806000806124606001613282565b9250905061247160006001836132bd565b909590945091925050565b6001600160a01b03821660009081526040602081815291819020548151808301909252600f82526e53423a2057726f6e672076616c756560881b92820192909252828210156124de5760405162461bcd60e51b8152600401610b879190614efb565b506124e98282615094565b6001600160a01b0384166000908152604060208190529020557fd1e935d17de6dcfd3ffb4f6d06f977c837be28001308e04923722e32d1863c7d8361252d83615374565b60405161253b929190615032565b60405180910390a1505050565b6103198363a9059cbb60e01b8484604051602401612567929190615032565b60408051601f198184030181529190526020810180516001600160e01b03166001600160e01b031990931692909217909152613700565b600054610100900460ff166125c55760405162461bcd60e51b8152600401610b87906153ad565b60408051808201909152601181527054532d31207a65726f206164647265737360781b60208201526001600160a01b0384166126145760405162461bcd60e51b8152600401610b879190614efb565b50600380546001600160a01b0319166001600160a01b038581169182179092556004805468ffffff0000000000001916600160301b62ffffff861602178155604051630175022560e21b815290810191909152600284810b602483015283900b604482015290851660648201527308842e82E783Cf808d4b5b5efA17224433953e6d906305d408949060840160c060405180830381865af41580156126bd573d6000803e3d6000fd5b505050506040513d601f19601f820116820180604052508101906126e191906153f8565b60048054911515600160481b0260ff60481b19909216919091179055600280546001600160a01b039283166001600160a01b031991821617909155600180549390921692169190911790556003805462ffffff948516600160a01b0262ffffff60a01b19948616600160c81b0262ffffff60c81b1996909416600160e01b029590951665ffffffffffff60c81b1990911617919091179190911691909117905550505050565b600054610100900460ff166127ae5760405162461bcd60e51b8152600401610b87906153ad565b6127b883836137d2565b604480546001600160a01b0319166001600160a01b03929092169190911790555050565b603d54600090819081906127f8906001600160a01b0316612d76565b9150915073301Be1652dC990D0237140797b3a71110C6131c8636e32b87b83612827612822612d95565b6139fb565b604454604080516001600160e01b031960e087901b16815261285b94939288926001600160a01b0390911691600401615471565b602060405180830381865af4158015612878573d6000803e3d6000fd5b505050506040513d601f19601f8201168201806040525081019061289c9190614fc0565b9250505090565b6000806128ae613ad5565b6044546040805163102c085360e11b8152939550919350600092839273301Be1652dC990D0237140797b3a71110C6131c89263205810a692612903926001600160a01b039092169189918991906004016154bd565b600060405180830381865af4158015612920573d6000803e3d6000fd5b505050506040513d6000823e601f3d908101601f191682016040526129489190810190615505565b815191935091508015610fb65760008060006129648686613c62565b92509250925061297a8684846000196000612f65565b603d5483516129ae916001600160a01b03169085908790811061299f5761299f615061565b60200260200101516000612d23565b73301Be1652dC990D0237140797b3a71110C6131c863acf741a36129d0612364565b603e546040516001600160e01b031960e085901b168152612a0292916001600160a01b0316908b9087906004016155b2565b60006040518083038186803b158015612a1a57600080fd5b505af4158015612a2e573d6000803e3d6000fd5b505050505050505050505050565b604354600090819081612a4d612d62565b90506000612a59613e65565b91965094509050612a6c83838787613ec1565b9095509350858015612a985750620186a082604654612a8b91906155f0565b612a959190615607565b81115b15612aed576000612aa98284614fef565b9050612ab68260006130c1565b50603d54612ae6908290612ad2906001600160a01b0316613f09565b604354612adf9190614fef565b8888613ec1565b9096509450505b505050915091565b600080600080612b056001613282565b60408051808201909152601481527354532d3138206e6f20696e766573746d656e747360601b602082015290935090915081612b545760405162461bcd60e51b8152600401610b879190614efb565b50612b61856000836132bd565b909690955091935090915050565b6000818310612b7e5781612b80565b825b9392505050565b6000612b91612c16565b90507f768a28cb3459382a3d2173feb2dad0235f8de680b109872da581a3aa269fe5f481604051612bc29190615629565b60405180910390a1603d546000908190612be4906001600160a01b0316612d76565b91509150600080612bf58484613f79565b91509150612c068486838686612f65565b612c0e612d62565b505050505050565b60606106c7612c23612d95565b612dab565b60035460048054604051638008936760e01b81526060936000937308842e82E783Cf808d4b5b5efA17224433953e6d93638008936793612caa936001600160a01b03811693600160c81b8204600290810b94600160e01b909304900b928b92600160501b81046001600160801b031692600160481b90910460ff16910161563c565b600060405180830381865af4158015612cc7573d6000803e3d6000fd5b505050506040513d6000823e601f3d908101601f19168201604052612cef9190810190615692565b600480546001600160801b03909216600160501b02600160501b600160d01b03199092169190911790559094909350915050565b80821115612d475761031983612d398385615094565b612d4286613f09565b613013565b818111156103195761031983612d5d8484615094565b61247c565b6000612d6c6127dc565b6043819055919050565b60606000612d82614027565b9150612d8e82846140bb565b9050915091565b600454600160501b90046001600160801b031690565b6060600080612db8614119565b915091508160016005016000828254612dd19190614fef565b909155505060078054829190600090612deb908490614fef565b925050819055507308842e82E783Cf808d4b5b5efA17224433953e6d6333fdd81d600160020160009054906101000a90046001600160a01b0316600160020160199054906101000a900460020b6001600201601c9054906101000a900460020b600160030160009054906101000a900460020b600160030160039054906101000a900460020b6001600301600a9054906101000a90046001600160801b0316600160040160009054906101000a90046001600160801b03168c600160030160099054906101000a900460ff166040518a63ffffffff1660e01b8152600401612edb999897969594939291906156df565b600060405180830381865af4158015612ef8573d6000803e3d6000fd5b505050506040513d6000823e601f3d908101601f19168201604052612f20919081019061573e565b600580546001600160801b0319166001600160801b0392831617905560048054600160501b600160d01b031916600160501b9390921692909202179055949350505050565b845160005b81811015610dfe576000868281518110612f8657612f86615061565b602002602001015190506000868381518110612fa457612fa4615061565b60200260200101519050858303612fe5576000851315612fcf57612fc88583614fef565b9150612fe5565b612fd885615374565b612fe29082614fef565b90505b613009898481518110612ffa57612ffa615061565b60200260200101518383612d23565b5050600101612f6a565b6001600160a01b0383166000908152604060208190528120805484929061303b908490614fef565b90915550506040517fd1e935d17de6dcfd3ffb4f6d06f977c837be28001308e04923722e32d1863c7d906130729085908590615032565b60405180910390a160408051808201909152600f81526e53423a2057726f6e672076616c756560881b602082015282821015610ede5760405162461bcd60e51b8152600401610b879190614efb565b6000806130cd83613282565b604654909350909150620186a0906130e69083906155f0565b6130f09190615607565b8411156132465760095460ff161561319a57604080516002808252606082018352600092602083019080368337019050509050848160008151811061313757613137615061565b6020026020010181815250507f59400c8c523464b521238ea8f50e923f2bc64663557e6afec92a97f7efe92d058182604051613174929190615784565b60405180910390a1600154613194906001600160a01b0316866000612d23565b5061323c565b603d5460009081906131b4906001600160a01b0316612d76565b6044549193509150600090819081906131d8906001600160a01b03168a8787614191565b92509250925060006131e984612c28565b5090507f59400c8c523464b521238ea8f50e923f2bc64663557e6afec92a97f7efe92d05848260405161321d929190615784565b60405180910390a161323586848388611e9487615374565b5050505050505b613244612d62565b505b5092915050565b60006001600160e01b0319821663b7b79fa960e01b14806106f157506301ffc9a760e01b6001600160e01b03198316146106f1565b604354600090819083613295578061329d565b61329d612d62565b9250836132ab5760006132b5565b6132b581846157b2565b915050915091565b60008083806132cb57508415155b80156132d657508215155b156136f15760006132e5614027565b603d549091506001600160a01b0316600061330083836140bb565b6044546040805160c081019091529192506001600160a01b031690600090806133276143e2565b8152602001613334612d95565b8152602001613341612d95565b81526000602082015260408051637a55caf360e01b81526001600160a01b0380871660048301528816602482015291019073301Be1652dC990D0237140797b3a71110C6131c890637a55caf390604401602060405180830381865af41580156133ae573d6000803e3d6000fd5b505050506040513d601f19601f820116820180604052508101906133d29190614fc0565b81526020016000604051908082528060200260200182016040528015613402578160200160208202803683370190505b509052905073301Be1652dC990D0237140797b3a71110C6131c863d361fe128a61342c578b61342f565b60005b6040308988888f89604001516040518963ffffffff1660e01b815260040161345e9897969594939291906157d2565b600060405180830381865af415801561347b573d6000803e3d6000fd5b505050506040513d6000823e601f3d908101601f191682016040526134a3919081019061582e565b60a0830152606080830182905290600090156135ba576134c68360600151612dab565b91507faebc771af58936b05e89b0be7d3f9761480181abcd4a649fbdd01753fda169708360600151836040516134fd929190615245565b60405180910390a173301Be1652dC990D0237140797b3a71110C6131c8632374491584600001518560400151866060015187602001518860a001518d8c8c613543612d95565b8c6040518b63ffffffff1660e01b81526004016135699a9998979695949392919061586a565b600060405180830381865af4158015613586573d6000803e3d6000fd5b505050506040513d6000823e601f3d908101601f191682016040526135ae919081019061582e565b60a0850152905061368a565b73301Be1652dC990D0237140797b3a71110C6131c863bc846df28887878b516001600160401b038111156135f0576135f061504b565b604051908082528060200260200182016040528015613619578160200160208202803683370190505b508860a001516040518663ffffffff1660e01b815260040161363f9594939291906158fc565b600060405180830381865af415801561365c573d6000803e3d6000fd5b505050506040513d6000823e601f3d908101601f191682016040526136849190810190615957565b90925090505b60008061369d89888760a001518961445d565b915091506136ae8985838a86612f65565b6136b6612d62565b50670de0b6b3a76400008560800151846136d091906155f0565b6136da9190615607565b85608001519a509a505050505050505050506136f8565b5060009050805b935093915050565b6000613755826040518060400160405280602081526020017f5361666545524332303a206c6f772d6c6576656c2063616c6c206661696c6564815250856001600160a01b031661459a9092919063ffffffff16565b80519091501561031957808060200190518101906137739190615390565b6103195760405162461bcd60e51b815260206004820152602a60248201527f5361666545524332303a204552433230206f7065726174696f6e20646964206e6044820152691bdd081cdd58d8d9595960b21b6064820152608401610b87565b600054610100900460ff166137f95760405162461bcd60e51b8152600401610b87906153ad565b613823817fd2de0374d4479f33e63ae5ed6ca772a10463dd883a90c612050b51fab61964006145b1565b61382c8261460b565b60405163b429afeb60e01b81526001600160a01b0382169063b429afeb90613858908590600401614e7a565b602060405180830381865afa158015613875573d6000803e3d6000fd5b505050506040513d601f19601f820116820180604052508101906138999190615390565b6040518060400160405280600f81526020016e53423a2057726f6e672076616c756560881b815250906138df5760405162461bcd60e51b8152600401610b879190614efb565b50806001600160a01b03166338d52e0f6040518163ffffffff1660e01b8152600401602060405180830381865afa15801561391e573d6000803e3d6000fd5b505050506040513d601f19601f820116820180604052508101906139429190615077565b603d80546001600160a01b03199081166001600160a01b0393841617909155603e805490911683831617905560408051635aa6e67560e01b8152905191841691635aa6e675916004808201926020929091908290030181865afa1580156139ad573d6000803e3d6000fd5b505050506040513d601f19601f820116820180604052508101906139d19190615077565b604180546001600160a01b0319166001600160a01b03929092169190911790555050612710604255565b6003546004805460055460405163c68bc70360e01b81526060947308842e82E783Cf808d4b5b5efA17224433953e6d9463c68bc70394613a90946001600160a01b03841694600160c81b8504600290810b95600160e01b9004810b9484820b946301000000810490920b93600160501b83046001600160801b03908116949116928e92600160481b90910460ff1691016156df565b600060405180830381865af4158015613aad573d6000803e3d6000fd5b505050506040513d6000823e601f3d908101601f191682016040526106f1919081019061599d565b60035460048054600654600754604051630117844f60e61b81526001600160a01b03861694810194909452600160c81b8504600290810b6024860152600160e01b909504850b604485015282850b60648501526301000000830490940b608484015260a483015260c4820192909252600160481b90910460ff16151560e482015260609081907308842e82E783Cf808d4b5b5efA17224433953e6d906345e113c09061010401600060405180830381865af4158015613b98573d6000803e3d6000fd5b505050506040513d6000823e601f3d908101601f19168201604052613bc0919081019061599d565b600060068190556007556040805160028082526060820183529293509190602083019080368337505060015482519294506001600160a01b031691849150600090613c0d57613c0d615061565b6001600160a01b039283166020918202929092010152600254835191169083906001908110613c3e57613c3e615061565b60200260200101906001600160a01b031690816001600160a01b0316815250509091565b60425460415460405163217cfb2b60e21b815260609283928392600092839273301Be1652dC990D0237140797b3a71110C6131c8926385f3ecac92613cbb9290916001600160a01b03909116908c908c906004016159d1565b600060405180830381865af4158015613cd8573d6000803e3d6000fd5b505050506040513d6000823e601f3d908101601f19168201604052613d009190810190615311565b603d54603f5492945090925073301Be1652dC990D0237140797b3a71110C6131c891630f5103ff916001600160a01b031690613d3a614027565b613d42612364565b6001600160a01b0316634046ebae6040518163ffffffff1660e01b8152600401602060405180830381865afa158015613d7f573d6000803e3d6000fd5b505050506040513d601f19601f82011682018060405250810190613da39190615077565b604560408e8a6040518963ffffffff1660e01b8152600401613dcc9897969594939291906159fb565b600060405180830381865af4158015613de9573d6000803e3d6000fd5b505050506040513d6000823e601f3d908101601f19168201604052613e119190810190615a74565b60405192975090955093507f9ed62bee08ffc98e5efa3255527e36fba3f5fa16b944a4bfad646bcf592acc4a90613e519089908890889088908790615afb565b60405180910390a150509250925092565b50565b603d54600090819081908190613e83906001600160a01b0316613f09565b9050613e8d6128a3565b603d54613ea2906001600160a01b0316613f09565b60085490925015613eb95760088054600090915592505b612471818386865b60008085851115613ee757613ed68686615094565b613ee09085614fef565b9350613efe565b613ef18587615094565b613efb9084614fef565b92505b509194909350915050565b6040516370a0823160e01b81526000906001600160a01b038316906370a0823190613f38903090600401614e7a565b602060405180830381865afa158015613f55573d6000803e3d6000fd5b505050506040513d601f19601f820116820180604052508101906106f19190614fc0565b60006060600073301Be1652dC990D0237140797b3a71110C6131c86397783a6c86866040518363ffffffff1660e01b8152600401613fb8929190615b7a565b600060405180830381865af4158015613fd5573d6000803e3d6000fd5b505050506040513d6000823e601f3d908101601f19168201604052613ffd919081019061599d565b60445490915061401b908690869084906001600160a01b031661445d565b90969095509350505050565b6040805160028082526060808301845292602083019080368337505060015482519293506001600160a01b03169183915060009061406757614067615061565b6001600160a01b03928316602091820292909201015260025482519116908290600190811061409857614098615061565b60200260200101906001600160a01b031690816001600160a01b03168152505090565b8151600090815b8181101561410d57836001600160a01b03168582815181106140e6576140e6615061565b60200260200101516001600160a01b0316036141055791506106f19050565b6001016140c2565b50600019949350505050565b604051631a2d761b60e11b81526001600482015260009081907308842e82E783Cf808d4b5b5efA17224433953e6d9063345aec36906024016040805180830381865af415801561416d573d6000803e3d6000fd5b505050506040513d601f19601f820116820180604052508101906111379190615b9c565b6040805160028082526060828101909352829160009181602001602082028036833750506040805160028082526060820183529396509291506020830190803683370190505060035460048054604051630302c45560e41b81526001600160a01b03841692810192909252600160c81b8304600290810b6024840152600160e01b8404810b6044840152600160a01b90930490920b6064820152600160481b90910460ff16151560848201529092506000907308842e82E783Cf808d4b5b5efA17224433953e6d9063302c45509060a401600060405180830381865af415801561427f573d6000803e3d6000fd5b505050506040513d6000823e601f3d908101601f191682016040526142a79190810190615bc0565b6001549091506142c1906001600160a01b0316888a61482e565b60015460025460405163ca27d10d60e01b815273301Be1652dC990D0237140797b3a71110C6131c89263ca27d10d92614314928d9287926001600160a01b03918216929116908e90600090600401615c53565b6040805180830381865af4158015614330573d6000803e3d6000fd5b505050506040513d601f19601f820116820180604052508101906143549190615b9c565b8460018151811061436757614367615061565b6020908102919091010152915061437e8288615094565b8460008151811061439157614391615061565b602002602001018181525050826001815181106143b0576143b0615061565b6020026020010151846001815181106143cb576143cb615061565b602002602001018181525050509450945094915050565b604051630a65e5e760e01b8152600160048201526060907308842e82E783Cf808d4b5b5efA17224433953e6d90630a65e5e790602401600060405180830381865af4158015614435573d6000803e3d6000fd5b505050506040513d6000823e601f3d908101601f191682016040526106c7919081019061599d565b6000606073301Be1652dC990D0237140797b3a71110C6131c8637047292d84614484612364565b6001600160a01b0316634046ebae6040518163ffffffff1660e01b8152600401602060405180830381865afa1580156144c1573d6000803e3d6000fd5b505050506040513d601f19601f820116820180604052508101906144e59190615077565b604560008b8b815181106144fb576144fb615061565b60200260200101516001600160a01b03166001600160a01b03168152602001908152602001600020548a8a8a6040518763ffffffff1660e01b815260040161454896959493929190615c9b565b600060405180830381865af4158015614565573d6000803e3d6000fd5b505050506040513d6000823e601f3d908101601f1916820160405261458d919081019061582e565b9150915094509492505050565b60606145a984846000856148d4565b949350505050565b6145bb82826149af565b6146075760405162461bcd60e51b815260206004820152601a60248201527f496e74657266616365206973206e6f7420737570706f727465640000000000006044820152606401610b87565b5050565b600054610100900460ff166146325760405162461bcd60e51b8152600401610b87906153ad565b6001600160a01b03811661467a5760405162461bcd60e51b815260206004820152600f60248201526e2d32b9379031b7b73a3937b63632b960891b6044820152606401610b87565b6146a4817f4c2403fdcb3cff9b705d96bf0705858e3390412670a62c8bcba611ca7e20ab866145b1565b60006001600160a01b0316816001600160a01b0316635aa6e6756040518163ffffffff1660e01b8152600401602060405180830381865afa1580156146ed573d6000803e3d6000fd5b505050506040513d601f19601f820116820180604052508101906147119190615077565b6001600160a01b0316036147595760405162461bcd60e51b815260206004820152600f60248201526e5a65726f20676f7665726e616e636560881b6044820152606401610b87565b614788816111fa60017f5165972ef41194f06c5007493031d0b927c20741adcb74403b954009fd2c3618615094565b6147b7426111fa60017f6f55f470bdc9cb5f04223fd822021061668e4dccb43e8727b295106dc9769c8b615094565b6147e6436111fa60017f812a673dfca07956350df10f8a654925f561d7a0da09bdbe79e653939a14d9f1615094565b604080516001600160a01b038316815242602082015243918101919091527f1a2dd071001ebf6e03174e3df5b305795a4ad5d41d8fdb9ba41dbbe236713426906060016116cb565b604051636eb1769f60e11b81523060048201526001600160a01b03828116602483015283919085169063dd62ed3e90604401602060405180830381865afa15801561487d573d6000803e3d6000fd5b505050506040513d601f19601f820116820180604052508101906148a19190614fc0565b1015610319576148bc6001600160a01b038416826000614a8d565b6103196001600160a01b03841682600160ff1b614a8d565b6060824710156149355760405162461bcd60e51b815260206004820152602660248201527f416464726573733a20696e73756666696369656e742062616c616e636520666f6044820152651c8818d85b1b60d21b6064820152608401610b87565b600080866001600160a01b031685876040516149519190615cf3565b60006040518083038185875af1925050503d806000811461498e576040519150601f19603f3d011682016040523d82523d6000602084013e614993565b606091505b50915091506149a487838387614b91565b979650505050505050565b60006001600160a01b0383166149f65760405162461bcd60e51b815260206004820152600c60248201526b5a65726f206164647265737360a01b6044820152606401610b87565b823b6000819003614a0b5760009150506106f1565b6040516301ffc9a760e01b81526001600160e01b0319841660048201526001600160a01b038516906301ffc9a790602401602060405180830381865afa925050508015614a75575060408051601f3d908101601f19168201909252614a7291810190615390565b60015b15614a835791506106f19050565b5060009392505050565b801580614b075750604051636eb1769f60e11b81523060048201526001600160a01b03838116602483015284169063dd62ed3e90604401602060405180830381865afa158015614ae1573d6000803e3d6000fd5b505050506040513d601f19601f82011682018060405250810190614b059190614fc0565b155b614b725760405162461bcd60e51b815260206004820152603660248201527f5361666545524332303a20617070726f76652066726f6d206e6f6e2d7a65726f60448201527520746f206e6f6e2d7a65726f20616c6c6f77616e636560501b6064820152608401610b87565b6103198363095ea7b360e01b8484604051602401612567929190615032565b60608315614c00578251600003614bf9576001600160a01b0385163b614bf95760405162461bcd60e51b815260206004820152601d60248201527f416464726573733a2063616c6c20746f206e6f6e2d636f6e74726163740000006044820152606401610b87565b50816145a9565b6145a98383815115614c155781518083602001fd5b8060405162461bcd60e51b8152600401610b879190614efb565b600060208284031215614c4157600080fd5b81356001600160e01b031981168114612b8057600080fd5b6001600160a01b0381168114613e6257600080fd5b60008060408385031215614c8157600080fd5b8235614c8c81614c59565b946020939093013593505050565b600080600060608486031215614caf57600080fd5b8335614cba81614c59565b92506020840135614cca81614c59565b929592945050506040919091013590565b600081518084526020808501945080840160005b83811015614d0b57815187529582019590820190600101614cef565b509495945050505050565b6001600160a01b038c811682528b811660208301528a166040820152600289810b606083015288810b608083015287810b60a083015286900b60c08201526001600160801b03851660e082015283151561010082015261012081018390526101606101408201819052600090614d8e83820185614cdb565b9e9d5050505050505050505050505050565b60008060408385031215614db357600080fd5b823591506020830135614dc581614c59565b809150509250929050565b8060020b8114613e6257600080fd5b60008060008060008060c08789031215614df857600080fd5b8635614e0381614c59565b95506020870135614e1381614c59565b94506040870135614e2381614c59565b93506060870135614e3381614c59565b92506080870135614e4381614dd0565b915060a0870135614e5381614dd0565b809150509295509295509295565b600060208284031215614e7357600080fd5b5035919050565b6001600160a01b0391909116815260200190565b600060208284031215614ea057600080fd5b8135612b8081614c59565b60005b83811015614ec6578181015183820152602001614eae565b50506000910152565b60008151808452614ee7816020860160208601614eab565b601f01601f19169290920160200192915050565b602081526000612b806020830184614ecf565b8015158114613e6257600080fd5b60008060408385031215614f2f57600080fd5b823591506020830135614dc581614f0e565b60008060008060608587031215614f5757600080fd5b843593506020850135925060408501356001600160401b0380821115614f7c57600080fd5b818701915087601f830112614f9057600080fd5b813581811115614f9f57600080fd5b886020828501011115614fb157600080fd5b95989497505060200194505050565b600060208284031215614fd257600080fd5b5051919050565b634e487b7160e01b600052601160045260246000fd5b808201808211156106f1576106f1614fd9565b6001600160a01b039586168152602081019490945260408401929092526060830152909116608082015260a00190565b6001600160a01b03929092168252602082015260400190565b634e487b7160e01b600052604160045260246000fd5b634e487b7160e01b600052603260045260246000fd5b60006020828403121561508957600080fd5b8151612b8081614c59565b818103818111156106f1576106f1614fd9565b604051601f8201601f191681016001600160401b03811182821017156150cf576150cf61504b565b604052919050565b60006001600160401b038211156150f0576150f061504b565b5060051b60200190565b600082601f83011261510b57600080fd5b8151602061512061511b836150d7565b6150a7565b82815260059290921b8401810191818101908684111561513f57600080fd5b8286015b8481101561515a5780518352918301918301615143565b509695505050505050565b6000806040838503121561517857600080fd5b82516001600160401b0381111561518e57600080fd5b61519a858286016150fa565b9250506020830151614dc581614f0e565b80516001600160801b03811681146151c257600080fd5b919050565b6000806000606084860312156151dc57600080fd5b83516151e781614dd0565b60208501519093506151f881614dd0565b9150615206604085016151ab565b90509250925092565b6000806000806080858703121561522557600080fd5b505082516020840151604085015160609095015191969095509092509050565b8281526040602082015260006145a96040830184614cdb565b600081518084526020808501945080840160005b83811015614d0b5781516001600160a01b031687529582019590820190600101615272565b60006101408c83528060208401526152b18184018d61525e565b604084018c90526001600160a01b038b8116606086015284820360808601529091506152dd828b614cdb565b98811660a08501529690961660c08301525060e0810193909352610100830191909152610120909101525095945050505050565b6000806040838503121561532457600080fd5b82516001600160401b038082111561533b57600080fd5b615347868387016150fa565b9350602085015191508082111561535d57600080fd5b5061536a858286016150fa565b9150509250929050565b6000600160ff1b820161538957615389614fd9565b5060000390565b6000602082840312156153a257600080fd5b8151612b8081614f0e565b6020808252602b908201527f496e697469616c697a61626c653a20636f6e7472616374206973206e6f74206960408201526a6e697469616c697a696e6760a81b606082015260800190565b60008060008060008060c0878903121561541157600080fd5b865161541c81614dd0565b602088015190965061542d81614dd0565b604088015190955061543e81614dd0565b606088015190945061544f81614c59565b608088015190935061546081614c59565b60a0880151909250614e5381614f0e565b60a08152600061548460a083018861525e565b82810360208401526154968188614cdb565b604084019690965250506001600160a01b0392909216606083015260809091015292915050565b6001600160a01b03851681526080602082018190526000906154e19083018661525e565b82810360408401526154f38186614cdb565b91505082606083015295945050505050565b6000806040838503121561551857600080fd5b82516001600160401b038082111561552f57600080fd5b818501915085601f83011261554357600080fd5b8151602061555361511b836150d7565b82815260059290921b8401810191818101908984111561557257600080fd5b948201945b8386101561559957855161558a81614c59565b82529482019490820190615577565b9188015191965090935050508082111561535d57600080fd5b6001600160a01b038581168252841660208201526080604082018190526000906155de9083018561525e565b82810360608401526149a48185614cdb565b80820281158282048414176106f1576106f1614fd9565b60008261562457634e487b7160e01b600052601260045260246000fd5b500490565b602081526000612b806020830184614cdb565b60018060a01b03871681528560020b60208201528460020b604082015260c06060820152600061566f60c0830186614cdb565b6001600160801b039490941660808301525090151560a090910152949350505050565b6000806000606084860312156156a757600080fd5b83516001600160401b038111156156bd57600080fd5b6156c9868287016150fa565b93505060208401519150615206604085016151ab565b6001600160a01b03999099168952600297880b60208a015295870b604089015293860b60608801529190940b60808601526001600160801b0393841660a0860152831660c085015290911660e083015215156101008201526101200190565b60008060006060848603121561575357600080fd5b83516001600160401b0381111561576957600080fd5b615775868287016150fa565b9350506151f8602085016151ab565b6040815260006157976040830185614cdb565b82810360208401526157a98185614cdb565b95945050505050565b818103600083128015838313168383128216171561324657613246614fd9565b888152602081018890526001600160a01b038781166040830152610100606083018190526000916158058483018a61525e565b60808501989098529590951660a08301525060c081019290925260e09091015250949350505050565b6000806040838503121561584157600080fd5b8251915060208301516001600160401b0381111561585e57600080fd5b61536a858286016150fa565b600061014080835261587e8184018e614cdb565b90508b60208401528a604084015289606084015282810360808401526158a4818a614cdb565b905082810360a08401526158b8818961525e565b60c084018890526001600160a01b03871660e0850152610100840186905283810361012085015290506158eb8185614cdb565b9d9c50505050505050505050505050565b60a08152600061590f60a083018861525e565b602083018790526001600160a01b038616604084015282810360608401526159378186614cdb565b9050828103608084015261594b8185614cdb565b98975050505050505050565b6000806040838503121561596a57600080fd5b82516001600160401b0381111561598057600080fd5b61598c858286016150fa565b925050602083015190509250929050565b6000602082840312156159af57600080fd5b81516001600160401b038111156159c557600080fd5b6145a9848285016150fa565b8481526001600160a01b03841660208201526080604082018190526000906155de9083018561525e565b6001600160a01b0389811682526020820189905261010060408301819052600091615a288483018b61525e565b91508089166060850152508660808401528560a084015282810360c0840152615a51818661525e565b905082810360e0840152615a658185614cdb565b9b9a5050505050505050505050565b600080600060608486031215615a8957600080fd5b83516001600160401b0380821115615aa057600080fd5b615aac878388016150fa565b94506020860151915080821115615ac257600080fd5b615ace878388016150fa565b93506040860151915080821115615ae457600080fd5b50615af1868287016150fa565b9150509250925092565b60a0808252865190820181905260009060209060c0840190828a01845b82811015615b3d5781516001600160a01b031684529284019290840190600101615b18565b50505083810382850152615b518189614cdb565b9150508281036040840152615b668187614cdb565b905082810360608401526159378186614cdb565b604081526000615b8d604083018561525e565b90508260208301529392505050565b60008060408385031215615baf57600080fd5b505080516020909101519092909150565b600060208284031215615bd257600080fd5b81516001600160401b0380821115615be957600080fd5b818401915084601f830112615bfd57600080fd5b815181811115615c0f57615c0f61504b565b615c22601f8201601f19166020016150a7565b9150808252856020828501011115615c3957600080fd5b615c4a816020840160208601614eab565b50949350505050565b600060018060a01b03808916835260c06020840152615c7560c0840189614ecf565b9681166040840152949094166060820152608081019290925260a0909101525092915050565b6001600160a01b038781168252861660208201526040810185905260c060608201819052600090615cce9083018661525e565b84608084015282810360a0840152615ce68185614cdb565b9998505050505050505050565b60008251615d05818460208701614eab565b919091019291505056fea264697066735822122005b8592f912e818d15598c4b3635ea9f9a0b4533a989d60352bcaa40d3b20e4864736f6c63430008110033",
  "deployedBytecode": "0x608060405234801561001057600080fd5b50600436106102ab5760003560e01c806371ee017511610172578063ab9e3eee116100d9578063d295ea7011610092578063d295ea70146105cf578063d3487997146105d8578063dc1000a7146105eb578063de3d047c1461060b578063dee1f0e41461061e578063f77c479114610631578063ffb86c6a1461063957600080fd5b8063ab9e3eee1461057b578063b245755614610583578063b429afeb14610596578063bd38837b146105a9578063cd4c8156146105bc578063ceee861d1461042e57600080fd5b8063877887821161012b57806387788782146104f757806387c7f77014610500578063936725ec14610513578063996a6c9c1461042e5780639d0bcca014610537578063a3f4df7e1461053f57600080fd5b806371ee01751461047257806373a50ef51461047b578063783274381461049f5780637cc96380146104bf5780637d7c2a1c146104c75780637efc77fa146104cf57600080fd5b806338d52e0f116102165780634fac6ccd116101cf5780634fac6ccd146103f657806351e03fbe146104095780635641ec031461041c5780635cfc1a51146104245780636207a0cf1461042e5780636ffb4c8e1461045f57600080fd5b806338d52e0f1461038e5780633cd8045e146103ae5780634593144c146103c15780634ad0b684146103c95780634e71d92d146103d15780634fa5d854146103d957600080fd5b806322b6f5e21161026857806322b6f5e21461033d578063253de4661461035057806328abdef014610363578063321793a81461036b578063325a19f11461037e57806333c5b58e1461038657600080fd5b806301e1d114146102b057806301ffc9a7146102cb5780630acd12c7146102ee5780630e30428d146102f65780631302cbad1461030b5780631865c57d1461031e575b600080fd5b6102b8610641565b6040519081526020015b60405180910390f35b6102de6102d9366004614c2f565b6106cc565b60405190151581526020016102c2565b6102b86106f7565b610309610304366004614c6e565b610904565b005b610309610319366004614c9a565b505050565b6103266109cb565b6040516102c29b9a99989796959493929190614d16565b61030961034b366004614da0565b610ad0565b61030961035e366004614ddf565b610c06565b610309610e07565b610309610379366004614e61565b610ee4565b6102b8610fbd565b6102b8610ff1565b603d546103a1906001600160a01b031681565b6040516102c29190614e7a565b603e546103a1906001600160a01b031681565b6102b8610ffb565b6043546102b8565b61030961102b565b6103e16110da565b604080519283526020830191909152016102c2565b610309610404366004614e8e565b61113f565b6102b8610417366004614e61565b61126a565b610309611480565b600160ff1b6102b8565b610452604051806040016040528060058152602001640312e302e360dc1b81525081565b6040516102c29190614efb565b61030961046d366004614e61565b6115de565b6102b860465481565b61045260405180604001604052806005815260200164322e312e3160d81b81525081565b6102b86104ad366004614e8e565b60456020526000908152604090205481565b6102b86116d6565b610309611706565b61045260405180604001604052806009815260200168556e6973776170563360b81b81525081565b6102b860425481565b6102b861050e366004614c6e565b611a3c565b610452604051806040016040528060058152602001640332e302e360dc1b81525081565b6103a1611ee2565b6104526040518060400160405280601c81526020017f556e6973776170563320436f6e7665727465722053747261746567790000000081525081565b6102de611f12565b6102b8610591366004614f1c565b611f9c565b6102de6105a4366004614e8e565b6120e4565b6044546103a1906001600160a01b031681565b6041546103a1906001600160a01b031681565b6102b8603f5481565b6103096105e6366004614f41565b612109565b6102b86105f9366004614e8e565b60406020819052600091825290205481565b610309610619366004614e61565b6121e5565b6102de61062c366004614e8e565b6122df565b6103a1612364565b6102de612394565b600061064c60435490565b603d546040516370a0823160e01b81526001600160a01b03909116906370a082319061067c903090600401614e7a565b602060405180830381865afa158015610699573d6000803e3d6000fd5b505050506040513d601f19601f820116820180604052508101906106bd9190614fc0565b6106c79190614fef565b905090565b60006001600160e01b0319821663f73147b360e01b14806106f157506106f18261242b565b92915050565b603e54603d5460405163201de59f60e01b81526000926001600160a01b0390811692169073__$ec217c54da363a68ad871e6868efec481c$__9063201de59f90610745908590600401614e7a565b60006040518083038186803b15801561075d57600080fd5b505af4158015610771573d6000803e3d6000fd5b50506040516370a0823160e01b8152600092506001600160a01b03841691506370a08231906107a4903090600401614e7a565b602060405180830381865afa1580156107c1573d6000803e3d6000fd5b505050506040513d601f19601f820116820180604052508101906107e59190614fc0565b905060008060006107f4612450565b92509250925073__$ec217c54da363a68ad871e6868efec481c$__631594b05b868686868b6040518663ffffffff1660e01b8152600401610839959493929190615002565b602060405180830381865af4158015610856573d6000803e3d6000fd5b505050506040513d601f19601f8201168201806040525081019061087a9190614fc0565b6001600160a01b038616600090815260406020819052902054909450808511156108a2578094505b5083156108c7576108b3858561247c565b6108c76001600160a01b0386168786612548565b6040518481527f97f6cbf669d73908a8de3b762891f88fcc476520fd70cb3d414dc9ac86e0a2e59060200160405180910390a19695505050505050565b73__$ec217c54da363a68ad871e6868efec481c$__63493f6edc610926612364565b6040518263ffffffff1660e01b81526004016109429190614e7a565b60006040518083038186803b15801561095a57600080fd5b505af415801561096e573d6000803e3d6000fd5b5050506001600160a01b03831660009081526045602052604090819020839055517f297f3fbc14027d2b4a4f7dac3dff2ad6b386024299045b0e163f131bb24b611d91506109bf9084908490615032565b60405180910390a15050565b6001546002805460038054600454600954600a5460408051868152608081019091526001600160a01b03988916989687169796851696600160a01b8604810b96600160c81b8704820b96600160e01b9004820b95600160301b810490920b94600160501b9092046001600160801b03169360ff9092169260609160208201838036833701905050905060016005015481600081518110610a6d57610a6d615061565b60200260200101818152505060016006015481600181518110610a9257610a92615061565b60200260200101818152505060016007015481600281518110610ab757610ab7615061565b602002602001018181525050909192939495969798999a565b73__$ec217c54da363a68ad871e6868efec481c$__634bead669610af2612364565b6040518263ffffffff1660e01b8152600401610b0e9190614e7a565b60006040518083038186803b158015610b2657600080fd5b505af4158015610b3a573d6000803e3d6000fd5b505050506127108211156040518060400160405280600c81526020016b0a6847440a8dede40d0d2ced60a31b81525090610b905760405162461bcd60e51b8152600401610b879190614efb565b60405180910390fd5b5060408051808201909152600f81526e53423a2057726f6e672076616c756560881b60208201526001600160a01b038216610bde5760405162461bcd60e51b8152600401610b879190614efb565b50604291909155604180546001600160a01b0319166001600160a01b03909216919091179055565b600054610100900460ff1615808015610c265750600054600160ff909116105b80610c405750303b158015610c40575060005460ff166001145b610ca35760405162461bcd60e51b815260206004820152602e60248201527f496e697469616c697a61626c653a20636f6e747261637420697320616c72656160448201526d191e481a5b9a5d1a585b1a5e995960921b6064820152608401610b87565b6000805460ff191660011790558015610cc6576000805461ff0019166101001790555b610d33866001600160a01b03166338d52e0f6040518163ffffffff1660e01b8152600401602060405180830381865afa158015610d07573d6000803e3d6000fd5b505050506040513d601f19601f82011682018060405250810190610d2b9190615077565b85858561259e565b610d3e878787612787565b604051636a65141d60e11b8152600160048201526001600160a01b0380891660248301528616604482015273__$166cd655d2cd990700b75f7db5b5f84c53$__9063d4ca283a9060640160006040518083038186803b158015610da057600080fd5b505af4158015610db4573d6000803e3d6000fd5b505050508015610dfe576000805461ff0019169055604051600181527f7f26b83ff96e1f2b6a682f133852f6798a09c465da95921460cefb38474024989060200160405180910390a15b50505050505050565b73__$ec217c54da363a68ad871e6868efec481c$__63493f6edc610e29612364565b6040518263ffffffff1660e01b8152600401610e459190614e7a565b60006040518083038186803b158015610e5d57600080fd5b505af4158015610e71573d6000803e3d6000fd5b50506009805460ff1916905550506040805163f460770b60e01b8152905173__$166cd655d2cd990700b75f7db5b5f84c53$__9163f460770b916004808301926000929190829003018186803b158015610eca57600080fd5b505af4158015610ede573d6000803e3d6000fd5b50505050565b73__$ec217c54da363a68ad871e6868efec481c$__63493f6edc610f06612364565b6040518263ffffffff1660e01b8152600401610f229190614e7a565b60006040518083038186803b158015610f3a57600080fd5b505af4158015610f4e573d6000803e3d6000fd5b505050600a82905550604051631c77945b60e31b81526004810182905273__$166cd655d2cd990700b75f7db5b5f84c53$__9063e3bca2d89060240160006040518083038186803b158015610fa257600080fd5b505af4158015610fb6573d6000803e3d6000fd5b5050505050565b60006106c7610fed60017f6f55f470bdc9cb5f04223fd822021061668e4dccb43e8727b295106dc9769c8b615094565b5490565b60006106c76127dc565b60006106c7610fed60017f812a673dfca07956350df10f8a654925f561d7a0da09bdbe79e653939a14d9f1615094565b73__$ec217c54da363a68ad871e6868efec481c$__63493f6edc61104d612364565b6040518263ffffffff1660e01b81526004016110699190614e7a565b60006040518083038186803b15801561108157600080fd5b505af4158015611095573d6000803e3d6000fd5b505050506110a16128a3565b7fed7f50f936a5ed7428d20f18e78d6dfe8bc37fd2f4e3cdb348327c7697244928336040516110d09190614e7a565b60405180910390a1565b603e5460408051808201909152600a81526914d08e8811195b9a595960b21b60208201526000918291906001600160a01b0316331461112c5760405162461bcd60e51b8152600401610b879190614efb565b506111376001612a3c565b915091509091565b33301461118e5760405162461bcd60e51b815260206004820152601b60248201527f496e637265617365207265766973696f6e20666f7262696464656e00000000006044820152606401610b87565b60006111be610fed60017f22573091f17911fb166032a3d9e0554aa73d31b7b7ddea4a4dd2995650af84bd615094565b6111c9906001614fef565b90506111fd816111fa60017f22573091f17911fb166032a3d9e0554aa73d31b7b7ddea4a4dd2995650af84bd615094565b55565b61122c826111fa60017fbfaaa2fb63266ff27c2da975f5894955056f50419af651a81f6c5060581857e4615094565b604080518281526001600160a01b03841660208201527ff27e2ef832a4eb8ed8ec553b875eecd44764cda95b1c24170e281539e0a869c891016109bf565b603e54603d5460405163201de59f60e01b81526000926001600160a01b0390811692169073__$ec217c54da363a68ad871e6868efec481c$__9063201de59f906112b8908590600401614e7a565b60006040518083038186803b1580156112d057600080fd5b505af41580156112e4573d6000803e3d6000fd5b50506040516370a0823160e01b8152600092506001600160a01b03841691506370a0823190611317903090600401614e7a565b602060405180830381865afa158015611334573d6000803e3d6000fd5b505050506040513d601f19601f820116820180604052508101906113589190614fc0565b905080851115611404576000806113776113728489615094565b612af5565b604051631594b05b60e01b8152909850919350915073__$ec217c54da363a68ad871e6868efec481c$__90631594b05b906113be9087908790879087908c90600401615002565b602060405180830381865af41580156113db573d6000803e3d6000fd5b505050506040513d601f19601f820116820180604052508101906113ff9190614fc0565b925050505b60006114108683612b6f565b9050801561143657611422838261247c565b6114366001600160a01b0384168583612548565b60408051878152602081018390529081018390527f21b38dd19808c509ae6afc969adfaf7d35fe949c37abd493b963cf9b68cc1acb9060600160405180910390a150505050919050565b73__$ec217c54da363a68ad871e6868efec481c$__63493f6edc6114a2612364565b6040518263ffffffff1660e01b81526004016114be9190614e7a565b60006040518083038186803b1580156114d657600080fd5b505af41580156114ea573d6000803e3d6000fd5b505050506114f6612b87565b603d546040516370a0823160e01b81526001600160a01b039091169060009082906370a082319061152b903090600401614e7a565b602060405180830381865afa158015611548573d6000803e3d6000fd5b505050506040513d601f19601f8201168201806040525081019061156c9190614fc0565b6001600160a01b03831660009081526040602081905290205490915061159390839061247c565b603e546115ad906001600160a01b03848116911683612548565b7ff779df072f94d207563b1ba8c286814086f1e6bb436a2652e307dccc56ed79e833826040516109bf929190615032565b73__$ec217c54da363a68ad871e6868efec481c$__63493f6edc611600612364565b6040518263ffffffff1660e01b815260040161161c9190614e7a565b60006040518083038186803b15801561163457600080fd5b505af4158015611648573d6000803e3d6000fd5b50505050620186a08111156040518060400160405280600f81526020016e53423a2057726f6e672076616c756560881b815250906116995760405162461bcd60e51b8152600401610b879190614efb565b5060468190556040518181527fe4166dfcf23bbd3e3f764a99dc8fa740554c03c82d6019b81cf265f396f6f2fe906020015b60405180910390a150565b60006106c7610fed60017f22573091f17911fb166032a3d9e0554aa73d31b7b7ddea4a4dd2995650af84bd615094565b6000611710612364565b60405163124fdbb760e21b815290915073__$ec217c54da363a68ad871e6868efec481c$__9063493f6edc9061174a908490600401614e7a565b60006040518083038186803b15801561176257600080fd5b505af4158015611776573d6000803e3d6000fd5b50505050611782612c16565b50604454600090819073__$166cd655d2cd990700b75f7db5b5f84c53$__9063b24d8db0906001906001600160a01b0316866117bd60435490565b6040516001600160e01b031960e087901b16815260048101949094526001600160a01b039283166024850152911660448301526064820152608401600060405180830381865af4158015611815573d6000803e3d6000fd5b505050506040513d6000823e601f3d908101601f1916820160405261183d9190810190615165565b9150915081516002036119685761185382612c28565b5050801561196857600354600654600754604051638c64d45560e01b81526001600160a01b0384166004820152600160c81b8404600290810b6024830152600160e01b8504810b6044830152600160a01b90940490930b6064840152608483019190915260a482015273__$166cd655d2cd990700b75f7db5b5f84c53$__90638c64d4559060c401606060405180830381865af41580156118f8573d6000803e3d6000fd5b505050506040513d601f19601f8201168201806040525081019061191c91906151c7565b600580546001600160801b0319166001600160801b03929092169190911790556004805465ffffffffffff1916630100000062ffffff9384160262ffffff191617929091169190911790555b60008060008073__$166cd655d2cd990700b75f7db5b5f84c53$__63915a3eb46001604080518363ffffffff1660e01b81526004016119b1929190918252602082015260400190565b608060405180830381865af41580156119ce573d6000803e3d6000fd5b505050506040513d601f19601f820116820180604052508101906119f2919061520f565b60015493975091955093509150611a13906001600160a01b03168585612d23565b600254611a2a906001600160a01b03168383612d23565b611a32612d62565b5050505050505050565b6000611a8f6040518061010001604052806000815260200160006001600160a01b031681526020016060815260200160008152602001600081526020016060815260200160608152602001600081525090565b6044546001600160a01b0316602080830182905260408051808201909152600a81526914d08e8811195b9a595960b21b91810191909152903314611ae65760405162461bcd60e51b8152600401610b879190614efb565b50611af084612d76565b606083018190526040808401929092528151808301909252600f82526e53423a2057726f6e672076616c756560881b602083015219611b425760405162461bcd60e51b8152600401610b879190614efb565b506040808201515182526001600160a01b038516600090815260208290522054608082015280516001600160401b03811115611b8057611b8061504b565b604051908082528060200260200182016040528015611ba9578160200160208202803683370190505b5060a082015280516001600160401b03811115611bc857611bc861504b565b604051908082528060200260200182016040528015611bf1578160200160208202803683370190505b5060c08201526080810151831115611c6857611c0b612d95565b60e0820181905215611c6857611c248160e00151612dab565b60a0820181905260e08201516040517faebc771af58936b05e89b0be7d3f9761480181abcd4a649fbdd01753fda1697092611c5f9291615245565b60405180910390a15b828160a00151826060015181518110611c8357611c83615061565b60200260200101518260800151611c9a9190614fef565b1015611e1c5773__$e930d50fb5f4f1298547dbcb2bb0591990$__63749e2cd18260a00151836060015181518110611cd457611cd4615061565b60200260200101518360800151611ceb9190614fef565b611cf59086615094565b60408401516060850151603d5460a087015160208801516001600160a01b0390921691611d20612364565b6001600160a01b0316634046ebae6040518163ffffffff1660e01b8152600401602060405180830381865afa158015611d5d573d6000803e3d6000fd5b505050506040513d601f19601f82011682018060405250810190611d819190615077565b6001600160a01b038d16600090815260456020526040902054611da661012c80614fef565b604080518b63ffffffff1660e01b8152600401611dcc9a99989796959493929190615297565b600060405180830381865af4158015611de9573d6000803e3d6000fd5b505050506040513d6000823e601f3d908101601f19168201604052611e119190810190615311565b60a083015260c08201525b611e568160a00151826060015181518110611e3957611e39615061565b60200260200101518260800151611e509190614fef565b84612b6f565b6020820151909250611e73906001600160a01b0386169084612548565b611e9981604001518260a001518360c00151846060015186611e9490615374565b612f65565b611ea1612d62565b507f178d2d6770c9dbd24f8d3e4dc08998cad5a42857f107435518f65c761e253bcc8483604051611ed3929190615032565b60405180910390a15092915050565b60006106c7610fed60017fbfaaa2fb63266ff27c2da975f5894955056f50419af651a81f6c5060581857e4615094565b60448054604051635ca1bcdf60e01b8152600160048201526001600160a01b03909116602482015260009173__$166cd655d2cd990700b75f7db5b5f84c53$__91635ca1bcdf91015b602060405180830381865af4158015611f78573d6000803e3d6000fd5b505050506040513d601f19601f820116820180604052508101906106c79190615390565b603e5460405163201de59f60e01b815260009173__$ec217c54da363a68ad871e6868efec481c$__9163201de59f91611fe3916001600160a01b0390911690600401614e7a565b60006040518083038186803b158015611ffb57600080fd5b505af415801561200f573d6000803e3d6000fd5b5050603d546040516370a0823160e01b81526001600160a01b0390911692506000915082906370a0823190612048903090600401614e7a565b602060405180830381865afa158015612065573d6000803e3d6000fd5b505050506040513d601f19601f820116820180604052508101906120899190614fc0565b9050612096828683613013565b80156120a9576120a681856130c1565b92505b6040518181527f94bcfc9a8eba5229c2956ccb1858733fce588bc02145ac053c40b9827a33837f9060200160405180910390a1505092915050565b60006120ee612364565b6001600160a01b0316826001600160a01b0316149050919050565b6003546001600160a01b031633146121555760405162461bcd60e51b815260206004820152600f60248201526e31b0b6363130b1b59031b0b63632b960891b6044820152606401610b87565b83156121a2576004546121a29033908690600160481b900460ff16612185576001546001600160a01b0316612192565b6002546001600160a01b03165b6001600160a01b03169190612548565b8215610ede57600454610ede9033908590600160481b900460ff166121d2576002546001600160a01b0316612192565b6001546001600160a01b03169190612548565b73__$ec217c54da363a68ad871e6868efec481c$__63ac1d8b35612207612364565b6040518263ffffffff1660e01b81526004016122239190614e7a565b60006040518083038186803b15801561223b57600080fd5b505af415801561224f573d6000803e3d6000fd5b50505050620186a08111156040518060400160405280600c81526020016b0a6847440a8dede40d0d2ced60a31b8152509061229d5760405162461bcd60e51b8152600401610b879190614efb565b50603f5460408051918252602082018390527f89979f75740477f1609671a960c1f57e40a47e58bdf1623bc683d806fb6407e5910160405180910390a1603f55565b6000816001600160a01b03166122f3612364565b6001600160a01b0316635aa6e6756040518163ffffffff1660e01b8152600401602060405180830381865afa158015612330573d6000803e3d6000fd5b505050506040513d601f19601f820116820180604052508101906123549190615077565b6001600160a01b03161492915050565b60006106c7610fed60017f5165972ef41194f06c5007493031d0b927c20741adcb74403b954009fd2c3618615094565b60095460035460048054604051632beacd5760e11b815260ff9094161515918401919091526001600160a01b0382166024840152600160c81b8204600290810b6044850152600160e01b8304810b6064850152600160a01b909204820b6084840152600160301b9004900b60a482015260009073__$166cd655d2cd990700b75f7db5b5f84c53$__906357d59aae9060c401611f5b565b60006001600160e01b0319821663c19fa56160e01b14806106f157506106f18261324d565b6000806000806124606001613282565b9250905061247160006001836132bd565b909590945091925050565b6001600160a01b03821660009081526040602081815291819020548151808301909252600f82526e53423a2057726f6e672076616c756560881b92820192909252828210156124de5760405162461bcd60e51b8152600401610b879190614efb565b506124e98282615094565b6001600160a01b0384166000908152604060208190529020557fd1e935d17de6dcfd3ffb4f6d06f977c837be28001308e04923722e32d1863c7d8361252d83615374565b60405161253b929190615032565b60405180910390a1505050565b6103198363a9059cbb60e01b8484604051602401612567929190615032565b60408051601f198184030181529190526020810180516001600160e01b03166001600160e01b031990931692909217909152613700565b600054610100900460ff166125c55760405162461bcd60e51b8152600401610b87906153ad565b60408051808201909152601181527054532d31207a65726f206164647265737360781b60208201526001600160a01b0384166126145760405162461bcd60e51b8152600401610b879190614efb565b50600380546001600160a01b0319166001600160a01b038581169182179092556004805468ffffff0000000000001916600160301b62ffffff861602178155604051630175022560e21b815290810191909152600284810b602483015283900b6044820152908516606482015273__$166cd655d2cd990700b75f7db5b5f84c53$__906305d408949060840160c060405180830381865af41580156126bd573d6000803e3d6000fd5b505050506040513d601f19601f820116820180604052508101906126e191906153f8565b60048054911515600160481b0260ff60481b19909216919091179055600280546001600160a01b039283166001600160a01b031991821617909155600180549390921692169190911790556003805462ffffff948516600160a01b0262ffffff60a01b19948616600160c81b0262ffffff60c81b1996909416600160e01b029590951665ffffffffffff60c81b1990911617919091179190911691909117905550505050565b600054610100900460ff166127ae5760405162461bcd60e51b8152600401610b87906153ad565b6127b883836137d2565b604480546001600160a01b0319166001600160a01b03929092169190911790555050565b603d54600090819081906127f8906001600160a01b0316612d76565b9150915073__$e930d50fb5f4f1298547dbcb2bb0591990$__636e32b87b83612827612822612d95565b6139fb565b604454604080516001600160e01b031960e087901b16815261285b94939288926001600160a01b0390911691600401615471565b602060405180830381865af4158015612878573d6000803e3d6000fd5b505050506040513d601f19601f8201168201806040525081019061289c9190614fc0565b9250505090565b6000806128ae613ad5565b6044546040805163102c085360e11b8152939550919350600092839273__$e930d50fb5f4f1298547dbcb2bb0591990$__9263205810a692612903926001600160a01b039092169189918991906004016154bd565b600060405180830381865af4158015612920573d6000803e3d6000fd5b505050506040513d6000823e601f3d908101601f191682016040526129489190810190615505565b815191935091508015610fb65760008060006129648686613c62565b92509250925061297a8684846000196000612f65565b603d5483516129ae916001600160a01b03169085908790811061299f5761299f615061565b60200260200101516000612d23565b73__$e930d50fb5f4f1298547dbcb2bb0591990$__63acf741a36129d0612364565b603e546040516001600160e01b031960e085901b168152612a0292916001600160a01b0316908b9087906004016155b2565b60006040518083038186803b158015612a1a57600080fd5b505af4158015612a2e573d6000803e3d6000fd5b505050505050505050505050565b604354600090819081612a4d612d62565b90506000612a59613e65565b91965094509050612a6c83838787613ec1565b9095509350858015612a985750620186a082604654612a8b91906155f0565b612a959190615607565b81115b15612aed576000612aa98284614fef565b9050612ab68260006130c1565b50603d54612ae6908290612ad2906001600160a01b0316613f09565b604354612adf9190614fef565b8888613ec1565b9096509450505b505050915091565b600080600080612b056001613282565b60408051808201909152601481527354532d3138206e6f20696e766573746d656e747360601b602082015290935090915081612b545760405162461bcd60e51b8152600401610b879190614efb565b50612b61856000836132bd565b909690955091935090915050565b6000818310612b7e5781612b80565b825b9392505050565b6000612b91612c16565b90507f768a28cb3459382a3d2173feb2dad0235f8de680b109872da581a3aa269fe5f481604051612bc29190615629565b60405180910390a1603d546000908190612be4906001600160a01b0316612d76565b91509150600080612bf58484613f79565b91509150612c068486838686612f65565b612c0e612d62565b505050505050565b60606106c7612c23612d95565b612dab565b60035460048054604051638008936760e01b815260609360009373__$166cd655d2cd990700b75f7db5b5f84c53$__93638008936793612caa936001600160a01b03811693600160c81b8204600290810b94600160e01b909304900b928b92600160501b81046001600160801b031692600160481b90910460ff16910161563c565b600060405180830381865af4158015612cc7573d6000803e3d6000fd5b505050506040513d6000823e601f3d908101601f19168201604052612cef9190810190615692565b600480546001600160801b03909216600160501b02600160501b600160d01b03199092169190911790559094909350915050565b80821115612d475761031983612d398385615094565b612d4286613f09565b613013565b818111156103195761031983612d5d8484615094565b61247c565b6000612d6c6127dc565b6043819055919050565b60606000612d82614027565b9150612d8e82846140bb565b9050915091565b600454600160501b90046001600160801b031690565b6060600080612db8614119565b915091508160016005016000828254612dd19190614fef565b909155505060078054829190600090612deb908490614fef565b9250508190555073__$166cd655d2cd990700b75f7db5b5f84c53$__6333fdd81d600160020160009054906101000a90046001600160a01b0316600160020160199054906101000a900460020b6001600201601c9054906101000a900460020b600160030160009054906101000a900460020b600160030160039054906101000a900460020b6001600301600a9054906101000a90046001600160801b0316600160040160009054906101000a90046001600160801b03168c600160030160099054906101000a900460ff166040518a63ffffffff1660e01b8152600401612edb999897969594939291906156df565b600060405180830381865af4158015612ef8573d6000803e3d6000fd5b505050506040513d6000823e601f3d908101601f19168201604052612f20919081019061573e565b600580546001600160801b0319166001600160801b0392831617905560048054600160501b600160d01b031916600160501b9390921692909202179055949350505050565b845160005b81811015610dfe576000868281518110612f8657612f86615061565b602002602001015190506000868381518110612fa457612fa4615061565b60200260200101519050858303612fe5576000851315612fcf57612fc88583614fef565b9150612fe5565b612fd885615374565b612fe29082614fef565b90505b613009898481518110612ffa57612ffa615061565b60200260200101518383612d23565b5050600101612f6a565b6001600160a01b0383166000908152604060208190528120805484929061303b908490614fef565b90915550506040517fd1e935d17de6dcfd3ffb4f6d06f977c837be28001308e04923722e32d1863c7d906130729085908590615032565b60405180910390a160408051808201909152600f81526e53423a2057726f6e672076616c756560881b602082015282821015610ede5760405162461bcd60e51b8152600401610b879190614efb565b6000806130cd83613282565b604654909350909150620186a0906130e69083906155f0565b6130f09190615607565b8411156132465760095460ff161561319a57604080516002808252606082018352600092602083019080368337019050509050848160008151811061313757613137615061565b6020026020010181815250507f59400c8c523464b521238ea8f50e923f2bc64663557e6afec92a97f7efe92d058182604051613174929190615784565b60405180910390a1600154613194906001600160a01b0316866000612d23565b5061323c565b603d5460009081906131b4906001600160a01b0316612d76565b6044549193509150600090819081906131d8906001600160a01b03168a8787614191565b92509250925060006131e984612c28565b5090507f59400c8c523464b521238ea8f50e923f2bc64663557e6afec92a97f7efe92d05848260405161321d929190615784565b60405180910390a161323586848388611e9487615374565b5050505050505b613244612d62565b505b5092915050565b60006001600160e01b0319821663b7b79fa960e01b14806106f157506301ffc9a760e01b6001600160e01b03198316146106f1565b604354600090819083613295578061329d565b61329d612d62565b9250836132ab5760006132b5565b6132b581846157b2565b915050915091565b60008083806132cb57508415155b80156132d657508215155b156136f15760006132e5614027565b603d549091506001600160a01b0316600061330083836140bb565b6044546040805160c081019091529192506001600160a01b031690600090806133276143e2565b8152602001613334612d95565b8152602001613341612d95565b81526000602082015260408051637a55caf360e01b81526001600160a01b0380871660048301528816602482015291019073__$e930d50fb5f4f1298547dbcb2bb0591990$__90637a55caf390604401602060405180830381865af41580156133ae573d6000803e3d6000fd5b505050506040513d601f19601f820116820180604052508101906133d29190614fc0565b81526020016000604051908082528060200260200182016040528015613402578160200160208202803683370190505b509052905073__$e930d50fb5f4f1298547dbcb2bb0591990$__63d361fe128a61342c578b61342f565b60005b6040308988888f89604001516040518963ffffffff1660e01b815260040161345e9897969594939291906157d2565b600060405180830381865af415801561347b573d6000803e3d6000fd5b505050506040513d6000823e601f3d908101601f191682016040526134a3919081019061582e565b60a0830152606080830182905290600090156135ba576134c68360600151612dab565b91507faebc771af58936b05e89b0be7d3f9761480181abcd4a649fbdd01753fda169708360600151836040516134fd929190615245565b60405180910390a173__$e930d50fb5f4f1298547dbcb2bb0591990$__632374491584600001518560400151866060015187602001518860a001518d8c8c613543612d95565b8c6040518b63ffffffff1660e01b81526004016135699a9998979695949392919061586a565b600060405180830381865af4158015613586573d6000803e3d6000fd5b505050506040513d6000823e601f3d908101601f191682016040526135ae919081019061582e565b60a0850152905061368a565b73__$e930d50fb5f4f1298547dbcb2bb0591990$__63bc846df28887878b516001600160401b038111156135f0576135f061504b565b604051908082528060200260200182016040528015613619578160200160208202803683370190505b508860a001516040518663ffffffff1660e01b815260040161363f9594939291906158fc565b600060405180830381865af415801561365c573d6000803e3d6000fd5b505050506040513d6000823e601f3d908101601f191682016040526136849190810190615957565b90925090505b60008061369d89888760a001518961445d565b915091506136ae8985838a86612f65565b6136b6612d62565b50670de0b6b3a76400008560800151846136d091906155f0565b6136da9190615607565b85608001519a509a505050505050505050506136f8565b5060009050805b935093915050565b6000613755826040518060400160405280602081526020017f5361666545524332303a206c6f772d6c6576656c2063616c6c206661696c6564815250856001600160a01b031661459a9092919063ffffffff16565b80519091501561031957808060200190518101906137739190615390565b6103195760405162461bcd60e51b815260206004820152602a60248201527f5361666545524332303a204552433230206f7065726174696f6e20646964206e6044820152691bdd081cdd58d8d9595960b21b6064820152608401610b87565b600054610100900460ff166137f95760405162461bcd60e51b8152600401610b87906153ad565b613823817fd2de0374d4479f33e63ae5ed6ca772a10463dd883a90c612050b51fab61964006145b1565b61382c8261460b565b60405163b429afeb60e01b81526001600160a01b0382169063b429afeb90613858908590600401614e7a565b602060405180830381865afa158015613875573d6000803e3d6000fd5b505050506040513d601f19601f820116820180604052508101906138999190615390565b6040518060400160405280600f81526020016e53423a2057726f6e672076616c756560881b815250906138df5760405162461bcd60e51b8152600401610b879190614efb565b50806001600160a01b03166338d52e0f6040518163ffffffff1660e01b8152600401602060405180830381865afa15801561391e573d6000803e3d6000fd5b505050506040513d601f19601f820116820180604052508101906139429190615077565b603d80546001600160a01b03199081166001600160a01b0393841617909155603e805490911683831617905560408051635aa6e67560e01b8152905191841691635aa6e675916004808201926020929091908290030181865afa1580156139ad573d6000803e3d6000fd5b505050506040513d601f19601f820116820180604052508101906139d19190615077565b604180546001600160a01b0319166001600160a01b03929092169190911790555050612710604255565b6003546004805460055460405163c68bc70360e01b815260609473__$166cd655d2cd990700b75f7db5b5f84c53$__9463c68bc70394613a90946001600160a01b03841694600160c81b8504600290810b95600160e01b9004810b9484820b946301000000810490920b93600160501b83046001600160801b03908116949116928e92600160481b90910460ff1691016156df565b600060405180830381865af4158015613aad573d6000803e3d6000fd5b505050506040513d6000823e601f3d908101601f191682016040526106f1919081019061599d565b60035460048054600654600754604051630117844f60e61b81526001600160a01b03861694810194909452600160c81b8504600290810b6024860152600160e01b909504850b604485015282850b60648501526301000000830490940b608484015260a483015260c4820192909252600160481b90910460ff16151560e4820152606090819073__$166cd655d2cd990700b75f7db5b5f84c53$__906345e113c09061010401600060405180830381865af4158015613b98573d6000803e3d6000fd5b505050506040513d6000823e601f3d908101601f19168201604052613bc0919081019061599d565b600060068190556007556040805160028082526060820183529293509190602083019080368337505060015482519294506001600160a01b031691849150600090613c0d57613c0d615061565b6001600160a01b039283166020918202929092010152600254835191169083906001908110613c3e57613c3e615061565b60200260200101906001600160a01b031690816001600160a01b0316815250509091565b60425460415460405163217cfb2b60e21b815260609283928392600092839273__$e930d50fb5f4f1298547dbcb2bb0591990$__926385f3ecac92613cbb9290916001600160a01b03909116908c908c906004016159d1565b600060405180830381865af4158015613cd8573d6000803e3d6000fd5b505050506040513d6000823e601f3d908101601f19168201604052613d009190810190615311565b603d54603f5492945090925073__$e930d50fb5f4f1298547dbcb2bb0591990$__91630f5103ff916001600160a01b031690613d3a614027565b613d42612364565b6001600160a01b0316634046ebae6040518163ffffffff1660e01b8152600401602060405180830381865afa158015613d7f573d6000803e3d6000fd5b505050506040513d601f19601f82011682018060405250810190613da39190615077565b604560408e8a6040518963ffffffff1660e01b8152600401613dcc9897969594939291906159fb565b600060405180830381865af4158015613de9573d6000803e3d6000fd5b505050506040513d6000823e601f3d908101601f19168201604052613e119190810190615a74565b60405192975090955093507f9ed62bee08ffc98e5efa3255527e36fba3f5fa16b944a4bfad646bcf592acc4a90613e519089908890889088908790615afb565b60405180910390a150509250925092565b50565b603d54600090819081908190613e83906001600160a01b0316613f09565b9050613e8d6128a3565b603d54613ea2906001600160a01b0316613f09565b60085490925015613eb95760088054600090915592505b612471818386865b60008085851115613ee757613ed68686615094565b613ee09085614fef565b9350613efe565b613ef18587615094565b613efb9084614fef565b92505b509194909350915050565b6040516370a0823160e01b81526000906001600160a01b038316906370a0823190613f38903090600401614e7a565b602060405180830381865afa158015613f55573d6000803e3d6000fd5b505050506040513d601f19601f820116820180604052508101906106f19190614fc0565b60006060600073__$e930d50fb5f4f1298547dbcb2bb0591990$__6397783a6c86866040518363ffffffff1660e01b8152600401613fb8929190615b7a565b600060405180830381865af4158015613fd5573d6000803e3d6000fd5b505050506040513d6000823e601f3d908101601f19168201604052613ffd919081019061599d565b60445490915061401b908690869084906001600160a01b031661445d565b90969095509350505050565b6040805160028082526060808301845292602083019080368337505060015482519293506001600160a01b03169183915060009061406757614067615061565b6001600160a01b03928316602091820292909201015260025482519116908290600190811061409857614098615061565b60200260200101906001600160a01b031690816001600160a01b03168152505090565b8151600090815b8181101561410d57836001600160a01b03168582815181106140e6576140e6615061565b60200260200101516001600160a01b0316036141055791506106f19050565b6001016140c2565b50600019949350505050565b604051631a2d761b60e11b815260016004820152600090819073__$166cd655d2cd990700b75f7db5b5f84c53$__9063345aec36906024016040805180830381865af415801561416d573d6000803e3d6000fd5b505050506040513d601f19601f820116820180604052508101906111379190615b9c565b6040805160028082526060828101909352829160009181602001602082028036833750506040805160028082526060820183529396509291506020830190803683370190505060035460048054604051630302c45560e41b81526001600160a01b03841692810192909252600160c81b8304600290810b6024840152600160e01b8404810b6044840152600160a01b90930490920b6064820152600160481b90910460ff161515608482015290925060009073__$166cd655d2cd990700b75f7db5b5f84c53$__9063302c45509060a401600060405180830381865af415801561427f573d6000803e3d6000fd5b505050506040513d6000823e601f3d908101601f191682016040526142a79190810190615bc0565b6001549091506142c1906001600160a01b0316888a61482e565b60015460025460405163ca27d10d60e01b815273__$e930d50fb5f4f1298547dbcb2bb0591990$__9263ca27d10d92614314928d9287926001600160a01b03918216929116908e90600090600401615c53565b6040805180830381865af4158015614330573d6000803e3d6000fd5b505050506040513d601f19601f820116820180604052508101906143549190615b9c565b8460018151811061436757614367615061565b6020908102919091010152915061437e8288615094565b8460008151811061439157614391615061565b602002602001018181525050826001815181106143b0576143b0615061565b6020026020010151846001815181106143cb576143cb615061565b602002602001018181525050509450945094915050565b604051630a65e5e760e01b81526001600482015260609073__$166cd655d2cd990700b75f7db5b5f84c53$__90630a65e5e790602401600060405180830381865af4158015614435573d6000803e3d6000fd5b505050506040513d6000823e601f3d908101601f191682016040526106c7919081019061599d565b6000606073__$e930d50fb5f4f1298547dbcb2bb0591990$__637047292d84614484612364565b6001600160a01b0316634046ebae6040518163ffffffff1660e01b8152600401602060405180830381865afa1580156144c1573d6000803e3d6000fd5b505050506040513d601f19601f820116820180604052508101906144e59190615077565b604560008b8b815181106144fb576144fb615061565b60200260200101516001600160a01b03166001600160a01b03168152602001908152602001600020548a8a8a6040518763ffffffff1660e01b815260040161454896959493929190615c9b565b600060405180830381865af4158015614565573d6000803e3d6000fd5b505050506040513d6000823e601f3d908101601f1916820160405261458d919081019061582e565b9150915094509492505050565b60606145a984846000856148d4565b949350505050565b6145bb82826149af565b6146075760405162461bcd60e51b815260206004820152601a60248201527f496e74657266616365206973206e6f7420737570706f727465640000000000006044820152606401610b87565b5050565b600054610100900460ff166146325760405162461bcd60e51b8152600401610b87906153ad565b6001600160a01b03811661467a5760405162461bcd60e51b815260206004820152600f60248201526e2d32b9379031b7b73a3937b63632b960891b6044820152606401610b87565b6146a4817f4c2403fdcb3cff9b705d96bf0705858e3390412670a62c8bcba611ca7e20ab866145b1565b60006001600160a01b0316816001600160a01b0316635aa6e6756040518163ffffffff1660e01b8152600401602060405180830381865afa1580156146ed573d6000803e3d6000fd5b505050506040513d601f19601f820116820180604052508101906147119190615077565b6001600160a01b0316036147595760405162461bcd60e51b815260206004820152600f60248201526e5a65726f20676f7665726e616e636560881b6044820152606401610b87565b614788816111fa60017f5165972ef41194f06c5007493031d0b927c20741adcb74403b954009fd2c3618615094565b6147b7426111fa60017f6f55f470bdc9cb5f04223fd822021061668e4dccb43e8727b295106dc9769c8b615094565b6147e6436111fa60017f812a673dfca07956350df10f8a654925f561d7a0da09bdbe79e653939a14d9f1615094565b604080516001600160a01b038316815242602082015243918101919091527f1a2dd071001ebf6e03174e3df5b305795a4ad5d41d8fdb9ba41dbbe236713426906060016116cb565b604051636eb1769f60e11b81523060048201526001600160a01b03828116602483015283919085169063dd62ed3e90604401602060405180830381865afa15801561487d573d6000803e3d6000fd5b505050506040513d601f19601f820116820180604052508101906148a19190614fc0565b1015610319576148bc6001600160a01b038416826000614a8d565b6103196001600160a01b03841682600160ff1b614a8d565b6060824710156149355760405162461bcd60e51b815260206004820152602660248201527f416464726573733a20696e73756666696369656e742062616c616e636520666f6044820152651c8818d85b1b60d21b6064820152608401610b87565b600080866001600160a01b031685876040516149519190615cf3565b60006040518083038185875af1925050503d806000811461498e576040519150601f19603f3d011682016040523d82523d6000602084013e614993565b606091505b50915091506149a487838387614b91565b979650505050505050565b60006001600160a01b0383166149f65760405162461bcd60e51b815260206004820152600c60248201526b5a65726f206164647265737360a01b6044820152606401610b87565b823b6000819003614a0b5760009150506106f1565b6040516301ffc9a760e01b81526001600160e01b0319841660048201526001600160a01b038516906301ffc9a790602401602060405180830381865afa925050508015614a75575060408051601f3d908101601f19168201909252614a7291810190615390565b60015b15614a835791506106f19050565b5060009392505050565b801580614b075750604051636eb1769f60e11b81523060048201526001600160a01b03838116602483015284169063dd62ed3e90604401602060405180830381865afa158015614ae1573d6000803e3d6000fd5b505050506040513d601f19601f82011682018060405250810190614b059190614fc0565b155b614b725760405162461bcd60e51b815260206004820152603660248201527f5361666545524332303a20617070726f76652066726f6d206e6f6e2d7a65726f60448201527520746f206e6f6e2d7a65726f20616c6c6f77616e636560501b6064820152608401610b87565b6103198363095ea7b360e01b8484604051602401612567929190615032565b60608315614c00578251600003614bf9576001600160a01b0385163b614bf95760405162461bcd60e51b815260206004820152601d60248201527f416464726573733a2063616c6c20746f206e6f6e2d636f6e74726163740000006044820152606401610b87565b50816145a9565b6145a98383815115614c155781518083602001fd5b8060405162461bcd60e51b8152600401610b879190614efb565b600060208284031215614c4157600080fd5b81356001600160e01b031981168114612b8057600080fd5b6001600160a01b0381168114613e6257600080fd5b60008060408385031215614c8157600080fd5b8235614c8c81614c59565b946020939093013593505050565b600080600060608486031215614caf57600080fd5b8335614cba81614c59565b92506020840135614cca81614c59565b929592945050506040919091013590565b600081518084526020808501945080840160005b83811015614d0b57815187529582019590820190600101614cef565b509495945050505050565b6001600160a01b038c811682528b811660208301528a166040820152600289810b606083015288810b608083015287810b60a083015286900b60c08201526001600160801b03851660e082015283151561010082015261012081018390526101606101408201819052600090614d8e83820185614cdb565b9e9d5050505050505050505050505050565b60008060408385031215614db357600080fd5b823591506020830135614dc581614c59565b809150509250929050565b8060020b8114613e6257600080fd5b60008060008060008060c08789031215614df857600080fd5b8635614e0381614c59565b95506020870135614e1381614c59565b94506040870135614e2381614c59565b93506060870135614e3381614c59565b92506080870135614e4381614dd0565b915060a0870135614e5381614dd0565b809150509295509295509295565b600060208284031215614e7357600080fd5b5035919050565b6001600160a01b0391909116815260200190565b600060208284031215614ea057600080fd5b8135612b8081614c59565b60005b83811015614ec6578181015183820152602001614eae565b50506000910152565b60008151808452614ee7816020860160208601614eab565b601f01601f19169290920160200192915050565b602081526000612b806020830184614ecf565b8015158114613e6257600080fd5b60008060408385031215614f2f57600080fd5b823591506020830135614dc581614f0e565b60008060008060608587031215614f5757600080fd5b843593506020850135925060408501356001600160401b0380821115614f7c57600080fd5b818701915087601f830112614f9057600080fd5b813581811115614f9f57600080fd5b886020828501011115614fb157600080fd5b95989497505060200194505050565b600060208284031215614fd257600080fd5b5051919050565b634e487b7160e01b600052601160045260246000fd5b808201808211156106f1576106f1614fd9565b6001600160a01b039586168152602081019490945260408401929092526060830152909116608082015260a00190565b6001600160a01b03929092168252602082015260400190565b634e487b7160e01b600052604160045260246000fd5b634e487b7160e01b600052603260045260246000fd5b60006020828403121561508957600080fd5b8151612b8081614c59565b818103818111156106f1576106f1614fd9565b604051601f8201601f191681016001600160401b03811182821017156150cf576150cf61504b565b604052919050565b60006001600160401b038211156150f0576150f061504b565b5060051b60200190565b600082601f83011261510b57600080fd5b8151602061512061511b836150d7565b6150a7565b82815260059290921b8401810191818101908684111561513f57600080fd5b8286015b8481101561515a5780518352918301918301615143565b509695505050505050565b6000806040838503121561517857600080fd5b82516001600160401b0381111561518e57600080fd5b61519a858286016150fa565b9250506020830151614dc581614f0e565b80516001600160801b03811681146151c257600080fd5b919050565b6000806000606084860312156151dc57600080fd5b83516151e781614dd0565b60208501519093506151f881614dd0565b9150615206604085016151ab565b90509250925092565b6000806000806080858703121561522557600080fd5b505082516020840151604085015160609095015191969095509092509050565b8281526040602082015260006145a96040830184614cdb565b600081518084526020808501945080840160005b83811015614d0b5781516001600160a01b031687529582019590820190600101615272565b60006101408c83528060208401526152b18184018d61525e565b604084018c90526001600160a01b038b8116606086015284820360808601529091506152dd828b614cdb565b98811660a08501529690961660c08301525060e0810193909352610100830191909152610120909101525095945050505050565b6000806040838503121561532457600080fd5b82516001600160401b038082111561533b57600080fd5b615347868387016150fa565b9350602085015191508082111561535d57600080fd5b5061536a858286016150fa565b9150509250929050565b6000600160ff1b820161538957615389614fd9565b5060000390565b6000602082840312156153a257600080fd5b8151612b8081614f0e565b6020808252602b908201527f496e697469616c697a61626c653a20636f6e7472616374206973206e6f74206960408201526a6e697469616c697a696e6760a81b606082015260800190565b60008060008060008060c0878903121561541157600080fd5b865161541c81614dd0565b602088015190965061542d81614dd0565b604088015190955061543e81614dd0565b606088015190945061544f81614c59565b608088015190935061546081614c59565b60a0880151909250614e5381614f0e565b60a08152600061548460a083018861525e565b82810360208401526154968188614cdb565b604084019690965250506001600160a01b0392909216606083015260809091015292915050565b6001600160a01b03851681526080602082018190526000906154e19083018661525e565b82810360408401526154f38186614cdb565b91505082606083015295945050505050565b6000806040838503121561551857600080fd5b82516001600160401b038082111561552f57600080fd5b818501915085601f83011261554357600080fd5b8151602061555361511b836150d7565b82815260059290921b8401810191818101908984111561557257600080fd5b948201945b8386101561559957855161558a81614c59565b82529482019490820190615577565b9188015191965090935050508082111561535d57600080fd5b6001600160a01b038581168252841660208201526080604082018190526000906155de9083018561525e565b82810360608401526149a48185614cdb565b80820281158282048414176106f1576106f1614fd9565b60008261562457634e487b7160e01b600052601260045260246000fd5b500490565b602081526000612b806020830184614cdb565b60018060a01b03871681528560020b60208201528460020b604082015260c06060820152600061566f60c0830186614cdb565b6001600160801b039490941660808301525090151560a090910152949350505050565b6000806000606084860312156156a757600080fd5b83516001600160401b038111156156bd57600080fd5b6156c9868287016150fa565b93505060208401519150615206604085016151ab565b6001600160a01b03999099168952600297880b60208a015295870b604089015293860b60608801529190940b60808601526001600160801b0393841660a0860152831660c085015290911660e083015215156101008201526101200190565b60008060006060848603121561575357600080fd5b83516001600160401b0381111561576957600080fd5b615775868287016150fa565b9350506151f8602085016151ab565b6040815260006157976040830185614cdb565b82810360208401526157a98185614cdb565b95945050505050565b818103600083128015838313168383128216171561324657613246614fd9565b888152602081018890526001600160a01b038781166040830152610100606083018190526000916158058483018a61525e565b60808501989098529590951660a08301525060c081019290925260e09091015250949350505050565b6000806040838503121561584157600080fd5b8251915060208301516001600160401b0381111561585e57600080fd5b61536a858286016150fa565b600061014080835261587e8184018e614cdb565b90508b60208401528a604084015289606084015282810360808401526158a4818a614cdb565b905082810360a08401526158b8818961525e565b60c084018890526001600160a01b03871660e0850152610100840186905283810361012085015290506158eb8185614cdb565b9d9c50505050505050505050505050565b60a08152600061590f60a083018861525e565b602083018790526001600160a01b038616604084015282810360608401526159378186614cdb565b9050828103608084015261594b8185614cdb565b98975050505050505050565b6000806040838503121561596a57600080fd5b82516001600160401b0381111561598057600080fd5b61598c858286016150fa565b925050602083015190509250929050565b6000602082840312156159af57600080fd5b81516001600160401b038111156159c557600080fd5b6145a9848285016150fa565b8481526001600160a01b03841660208201526080604082018190526000906155de9083018561525e565b6001600160a01b0389811682526020820189905261010060408301819052600091615a288483018b61525e565b91508089166060850152508660808401528560a084015282810360c0840152615a51818661525e565b905082810360e0840152615a658185614cdb565b9b9a5050505050505050505050565b600080600060608486031215615a8957600080fd5b83516001600160401b0380821115615aa057600080fd5b615aac878388016150fa565b94506020860151915080821115615ac257600080fd5b615ace878388016150fa565b93506040860151915080821115615ae457600080fd5b50615af1868287016150fa565b9150509250925092565b60a0808252865190820181905260009060209060c0840190828a01845b82811015615b3d5781516001600160a01b031684529284019290840190600101615b18565b50505083810382850152615b518189614cdb565b9150508281036040840152615b668187614cdb565b905082810360608401526159378186614cdb565b604081526000615b8d604083018561525e565b90508260208301529392505050565b60008060408385031215615baf57600080fd5b505080516020909101519092909150565b600060208284031215615bd257600080fd5b81516001600160401b0380821115615be957600080fd5b818401915084601f830112615bfd57600080fd5b815181811115615c0f57615c0f61504b565b615c22601f8201601f19166020016150a7565b9150808252856020828501011115615c3957600080fd5b615c4a816020840160208601614eab565b50949350505050565b600060018060a01b03808916835260c06020840152615c7560c0840189614ecf565b9681166040840152949094166060820152608081019290925260a0909101525092915050565b6001600160a01b038781168252861660208201526040810185905260c060608201819052600090615cce9083018661525e565b84608084015282810360a0840152615ce68185614cdb565b9998505050505050505050565b60008251615d05818460208701614eab565b919091019291505056fea264697066735822122005b8592f912e818d15598c4b3635ea9f9a0b4533a989d60352bcaa40d3b20e4864736f6c63430008110033",
  "libraries": {
    "StrategyLib": "0x01AA10927D49d082d0ff1875D6a6228108178bb0",
    "ConverterStrategyBaseLib": "0x301Be1652dC990D0237140797b3a71110C6131c8",
    "UniswapV3ConverterStrategyLogicLib": "0x08842e82E783Cf808d4b5b5efA17224433953e6d"
  },
  "devdoc": {
    "author": "a17",
    "kind": "dev",
    "methods": {
      "claim()": {
        "details": "Manual claim rewards."
      },
      "created()": {
        "returns": {
          "_0": "Creation timestamp"
        }
      },
      "createdBlock()": {
        "returns": {
          "_0": "Creation block number"
        }
      },
      "emergencyExit()": {
        "details": "In case of any issue operator can withdraw all from pool."
      },
      "increaseRevision(address)": {
        "details": "Revision should be increased on each contract upgrade"
      },
      "init(address,address,address,address,int24,int24)": {
        "params": {
          "controller_": "The address of the controller.",
          "converter_": "The address of the converter.",
          "pool_": "The address of the pool.",
          "rebalanceTickRange_": "The tick range for rebalancing.",
          "splitter_": "The address of the splitter.",
          "tickRange_": "The tick range for the liquidity position."
        }
      },
      "investAll(uint256,bool)": {
        "params": {
          "amount_": "Amount transferred to the strategy balance just before calling this function",
          "updateTotalAssetsBeforeInvest_": "Recalculate total assets amount before depositing.                                       It can be false if we know exactly, that the amount is already actual."
        },
        "returns": {
          "totalAssetsDelta": "The {strategy} can update its totalAssets amount internally before depositing {amount_}                          Return [totalAssets-before-deposit - totalAssets-before-call-of-investAll]"
        }
      },
      "isController(address)": {
        "details": "Return true if given address is controller"
      },
      "isReadyToHardWork()": {
        "returns": {
          "_0": "A boolean indicating if the strategy is ready for hard work."
        }
      },
      "needRebalance()": {
        "returns": {
          "_0": "A boolean indicating if the strategy needs rebalancing."
        }
      },
      "previousImplementation()": {
        "details": "Previous logic implementation"
      },
      "rebalance()": {
        "details": "The rebalancing functionality is the core of this strategy.      Depending on the size of the range of liquidity provided, the Fill-up or Swap method is used.      There is also an attempt to cover rebalancing losses with rewards."
      },
      "requirePayAmountBack(address,uint256)": {
        "params": {
          "amount_": "Required amount of the {theAsset_}",
          "theAsset_": "Required asset (either collateral or borrow)"
        },
        "returns": {
          "amountOut": "Amount sent to balance of TetuConverter, amountOut <= amount_"
        }
      },
      "revision()": {
        "details": "Contract upgrade counter"
      },
      "setCompoundRatio(uint256)": {
        "details": "PlatformVoter can change compound ratio for some strategies.      A strategy can implement another logic for some uniq cases."
      },
      "setFuseThreshold(uint256)": {
        "params": {
          "newFuseThreshold": "The new fuse threshold value."
        }
      },
      "setReinvestThresholdPercent(uint256)": {
        "params": {
          "percent_": "New value of the percent, decimals = {REINVEST_THRESHOLD_PERCENT_DENOMINATOR}"
        }
      },
      "supportsInterface(bytes4)": {
        "details": "See {IERC165-supportsInterface}."
      },
      "totalAssets()": {
        "details": "Total amount of underlying assets under control of this strategy."
      },
      "uniswapV3MintCallback(uint256,uint256,bytes)": {
        "params": {
          "amount0Owed": "The amount of token0 owed to the pool.",
          "amount1Owed": "The amount of token1 owed to the pool."
        }
      },
      "withdrawAllToSplitter()": {
        "details": "Withdraws all underlying assets to the vault",
        "returns": {
          "_0": "Return [totalAssets-before-withdraw - totalAssets-before-call-of-withdrawAllToSplitter]"
        }
      },
      "withdrawToSplitter(uint256)": {
        "details": "Withdraws some assets to the splitter",
        "returns": {
          "totalAssetsDelta": "=[totalAssets-before-withdraw - totalAssets-before-call-of-withdrawAllToSplitter]"
        }
      }
    },
    "title": "Delta-neutral liquidity hedging converter fill-up/swap rebalancing strategy for UniswapV3",
    "version": 1
  },
  "userdoc": {
    "events": {
      "LiquidationThresholdChanged(address,uint256)": {
        "notice": "Events"
      },
      "Recycle(address[],uint256[],uint256[],uint256[],uint256[])": {
        "notice": "Recycle was made"
      },
      "UpdateBaseAmounts(address,int256)": {
        "notice": "{baseAmounts} of {asset} is changed on the {amount} value"
      }
    },
    "kind": "user",
    "methods": {
      "CONTROLLABLE_VERSION()": {
        "notice": "Version of the contract"
      },
      "NAME()": {
        "notice": "CONSTANTS"
      },
      "baseAmounts(address)": {
        "notice": "Balances of not-reward amounts"
      },
      "capacity()": {
        "notice": "Unlimited capacity by default"
      },
      "controller()": {
        "notice": "Return controller address saved in the contract slot"
      },
      "created()": {
        "notice": "Return creation timestamp"
      },
      "createdBlock()": {
        "notice": "Return creation block number"
      },
      "disableFuse()": {
        "notice": "Disable fuse for the strategy."
      },
      "doHardWork()": {
        "notice": "Do hard work"
      },
      "getState()": {
        "notice": "Returns the current state of the contract."
      },
      "init(address,address,address,address,int24,int24)": {
        "notice": "Initialize the strategy with the given parameters."
      },
      "investAll(uint256,bool)": {
        "notice": "Stakes everything the strategy holds into the reward pool."
      },
      "investedAssets()": {
        "notice": "Amount of underlying assets converted to pool assets and invested to the pool."
      },
      "isGovernance(address)": {
        "notice": "Return true if given address is setup as governance in Controller"
      },
      "isReadyToHardWork()": {
        "notice": "Check if the strategy is ready for hard work."
      },
      "liquidationThresholds(address)": {
        "notice": "Minimum token amounts that can be liquidated"
      },
      "needRebalance()": {
        "notice": "Check if the strategy needs rebalancing."
      },
      "performanceFee()": {
        "notice": "A percent of total profit that is sent to the {performanceReceiver} before compounding"
      },
      "performanceReceiver()": {
        "notice": "{performanceFee}% of total profit is sent to {performanceReceiver} before compounding"
      },
      "reinvestThresholdPercent()": {
        "notice": "Percent of asset amount that can be not invested, it's allowed to just keep it on balance         decimals = {REINVEST_THRESHOLD_PERCENT_DENOMINATOR}"
      },
      "requirePayAmountBack(address,uint256)": {
        "notice": "Converters asks to send some amount back."
      },
      "setFuseThreshold(uint256)": {
        "notice": "Set the fuse threshold for the strategy."
      },
      "setupPerformanceFee(uint256,address)": {
        "notice": "Set performance fee and receiver"
      },
      "uniswapV3MintCallback(uint256,uint256,bytes)": {
        "notice": "Callback function called by Uniswap V3 pool on mint operation."
      }
    },
    "notice": "This strategy provides delta-neutral liquidity hedging for Uniswap V3 pools. It rebalances the liquidity         by utilizing fill-up and swap methods depending on the range size of the liquidity provided.         It also attempts to cover rebalancing losses with rewards.",
    "version": 1
  },
  "storageLayout": {
    "storage": [
      {
        "astId": 10716,
        "contract": "contracts/strategies/uniswap/UniswapV3ConverterStrategy.sol:UniswapV3ConverterStrategy",
        "label": "_initialized",
        "offset": 0,
        "slot": "0",
        "type": "t_uint8"
      },
      {
        "astId": 10719,
        "contract": "contracts/strategies/uniswap/UniswapV3ConverterStrategy.sol:UniswapV3ConverterStrategy",
        "label": "_initializing",
        "offset": 1,
        "slot": "0",
        "type": "t_bool"
      },
      {
        "astId": 72200,
        "contract": "contracts/strategies/uniswap/UniswapV3ConverterStrategy.sol:UniswapV3ConverterStrategy",
        "label": "state",
        "offset": 0,
        "slot": "1",
        "type": "t_struct(State)68663_storage"
      },
      {
        "astId": 72762,
        "contract": "contracts/strategies/uniswap/UniswapV3ConverterStrategy.sol:UniswapV3ConverterStrategy",
        "label": "__gap",
        "offset": 0,
        "slot": "12",
        "type": "t_array(t_uint256)49_storage"
      },
      {
        "astId": 15608,
        "contract": "contracts/strategies/uniswap/UniswapV3ConverterStrategy.sol:UniswapV3ConverterStrategy",
        "label": "asset",
        "offset": 0,
        "slot": "61",
        "type": "t_address"
      },
      {
        "astId": 15612,
        "contract": "contracts/strategies/uniswap/UniswapV3ConverterStrategy.sol:UniswapV3ConverterStrategy",
        "label": "splitter",
        "offset": 0,
        "slot": "62",
        "type": "t_address"
      },
      {
        "astId": 15616,
        "contract": "contracts/strategies/uniswap/UniswapV3ConverterStrategy.sol:UniswapV3ConverterStrategy",
        "label": "compoundRatio",
        "offset": 0,
        "slot": "63",
        "type": "t_uint256"
      },
      {
        "astId": 15621,
        "contract": "contracts/strategies/uniswap/UniswapV3ConverterStrategy.sol:UniswapV3ConverterStrategy",
        "label": "baseAmounts",
        "offset": 0,
        "slot": "64",
        "type": "t_mapping(t_address,t_uint256)"
      },
      {
        "astId": 15625,
        "contract": "contracts/strategies/uniswap/UniswapV3ConverterStrategy.sol:UniswapV3ConverterStrategy",
        "label": "performanceReceiver",
        "offset": 0,
        "slot": "65",
        "type": "t_address"
      },
      {
        "astId": 15629,
        "contract": "contracts/strategies/uniswap/UniswapV3ConverterStrategy.sol:UniswapV3ConverterStrategy",
        "label": "performanceFee",
        "offset": 0,
        "slot": "66",
        "type": "t_uint256"
      },
      {
        "astId": 59072,
        "contract": "contracts/strategies/uniswap/UniswapV3ConverterStrategy.sol:UniswapV3ConverterStrategy",
        "label": "_investedAssets",
        "offset": 0,
        "slot": "67",
        "type": "t_uint256"
      },
      {
        "astId": 59076,
        "contract": "contracts/strategies/uniswap/UniswapV3ConverterStrategy.sol:UniswapV3ConverterStrategy",
        "label": "converter",
        "offset": 0,
        "slot": "68",
        "type": "t_contract(ITetuConverter)40601"
      },
      {
        "astId": 59081,
        "contract": "contracts/strategies/uniswap/UniswapV3ConverterStrategy.sol:UniswapV3ConverterStrategy",
        "label": "liquidationThresholds",
        "offset": 0,
        "slot": "69",
        "type": "t_mapping(t_address,t_uint256)"
      },
      {
        "astId": 59084,
        "contract": "contracts/strategies/uniswap/UniswapV3ConverterStrategy.sol:UniswapV3ConverterStrategy",
        "label": "reinvestThresholdPercent",
        "offset": 0,
        "slot": "70",
        "type": "t_uint256"
      },
      {
        "astId": 60658,
        "contract": "contracts/strategies/uniswap/UniswapV3ConverterStrategy.sol:UniswapV3ConverterStrategy",
        "label": "__gap",
        "offset": 0,
        "slot": "71",
        "type": "t_array(t_uint256)46_storage"
      }
    ],
    "types": {
      "t_address": {
        "encoding": "inplace",
        "label": "address",
        "numberOfBytes": "20"
      },
      "t_array(t_uint256)46_storage": {
        "base": "t_uint256",
        "encoding": "inplace",
        "label": "uint256[46]",
        "numberOfBytes": "1472"
      },
      "t_array(t_uint256)49_storage": {
        "base": "t_uint256",
        "encoding": "inplace",
        "label": "uint256[49]",
        "numberOfBytes": "1568"
      },
      "t_bool": {
        "encoding": "inplace",
        "label": "bool",
        "numberOfBytes": "1"
      },
      "t_contract(ITetuConverter)40601": {
        "encoding": "inplace",
        "label": "contract ITetuConverter",
        "numberOfBytes": "20"
      },
      "t_contract(IUniswapV3Pool)57098": {
        "encoding": "inplace",
        "label": "contract IUniswapV3Pool",
        "numberOfBytes": "20"
      },
      "t_int24": {
        "encoding": "inplace",
        "label": "int24",
        "numberOfBytes": "3"
      },
      "t_mapping(t_address,t_uint256)": {
        "encoding": "mapping",
        "key": "t_address",
        "label": "mapping(address => uint256)",
        "numberOfBytes": "32",
        "value": "t_uint256"
      },
      "t_struct(State)68663_storage": {
        "encoding": "inplace",
        "label": "struct UniswapV3ConverterStrategyLogicLib.State",
        "members": [
          {
            "astId": 68623,
            "contract": "contracts/strategies/uniswap/UniswapV3ConverterStrategy.sol:UniswapV3ConverterStrategy",
            "label": "tokenA",
            "offset": 0,
            "slot": "0",
            "type": "t_address"
          },
          {
            "astId": 68625,
            "contract": "contracts/strategies/uniswap/UniswapV3ConverterStrategy.sol:UniswapV3ConverterStrategy",
            "label": "tokenB",
            "offset": 0,
            "slot": "1",
            "type": "t_address"
          },
          {
            "astId": 68628,
            "contract": "contracts/strategies/uniswap/UniswapV3ConverterStrategy.sol:UniswapV3ConverterStrategy",
            "label": "pool",
            "offset": 0,
            "slot": "2",
            "type": "t_contract(IUniswapV3Pool)57098"
          },
          {
            "astId": 68630,
            "contract": "contracts/strategies/uniswap/UniswapV3ConverterStrategy.sol:UniswapV3ConverterStrategy",
            "label": "tickSpacing",
            "offset": 20,
            "slot": "2",
            "type": "t_int24"
          },
          {
            "astId": 68632,
            "contract": "contracts/strategies/uniswap/UniswapV3ConverterStrategy.sol:UniswapV3ConverterStrategy",
            "label": "fillUp",
            "offset": 23,
            "slot": "2",
            "type": "t_bool"
          },
          {
            "astId": 68634,
            "contract": "contracts/strategies/uniswap/UniswapV3ConverterStrategy.sol:UniswapV3ConverterStrategy",
            "label": "isStablePool",
            "offset": 24,
            "slot": "2",
            "type": "t_bool"
          },
          {
            "astId": 68636,
            "contract": "contracts/strategies/uniswap/UniswapV3ConverterStrategy.sol:UniswapV3ConverterStrategy",
            "label": "lowerTick",
            "offset": 25,
            "slot": "2",
            "type": "t_int24"
          },
          {
            "astId": 68638,
            "contract": "contracts/strategies/uniswap/UniswapV3ConverterStrategy.sol:UniswapV3ConverterStrategy",
            "label": "upperTick",
            "offset": 28,
            "slot": "2",
            "type": "t_int24"
          },
          {
            "astId": 68640,
            "contract": "contracts/strategies/uniswap/UniswapV3ConverterStrategy.sol:UniswapV3ConverterStrategy",
            "label": "lowerTickFillup",
            "offset": 0,
            "slot": "3",
            "type": "t_int24"
          },
          {
            "astId": 68642,
            "contract": "contracts/strategies/uniswap/UniswapV3ConverterStrategy.sol:UniswapV3ConverterStrategy",
            "label": "upperTickFillup",
            "offset": 3,
            "slot": "3",
            "type": "t_int24"
          },
          {
            "astId": 68644,
            "contract": "contracts/strategies/uniswap/UniswapV3ConverterStrategy.sol:UniswapV3ConverterStrategy",
            "label": "rebalanceTickRange",
            "offset": 6,
            "slot": "3",
            "type": "t_int24"
          },
          {
            "astId": 68646,
            "contract": "contracts/strategies/uniswap/UniswapV3ConverterStrategy.sol:UniswapV3ConverterStrategy",
            "label": "depositorSwapTokens",
            "offset": 9,
            "slot": "3",
            "type": "t_bool"
          },
          {
            "astId": 68648,
            "contract": "contracts/strategies/uniswap/UniswapV3ConverterStrategy.sol:UniswapV3ConverterStrategy",
            "label": "totalLiquidity",
            "offset": 10,
            "slot": "3",
            "type": "t_uint128"
          },
          {
            "astId": 68650,
            "contract": "contracts/strategies/uniswap/UniswapV3ConverterStrategy.sol:UniswapV3ConverterStrategy",
            "label": "totalLiquidityFillup",
            "offset": 0,
            "slot": "4",
            "type": "t_uint128"
          },
          {
            "astId": 68652,
            "contract": "contracts/strategies/uniswap/UniswapV3ConverterStrategy.sol:UniswapV3ConverterStrategy",
            "label": "rebalanceEarned0",
            "offset": 0,
            "slot": "5",
            "type": "t_uint256"
          },
          {
            "astId": 68654,
            "contract": "contracts/strategies/uniswap/UniswapV3ConverterStrategy.sol:UniswapV3ConverterStrategy",
            "label": "rebalanceEarned1",
            "offset": 0,
            "slot": "6",
            "type": "t_uint256"
          },
          {
            "astId": 68656,
            "contract": "contracts/strategies/uniswap/UniswapV3ConverterStrategy.sol:UniswapV3ConverterStrategy",
            "label": "rebalanceLost",
            "offset": 0,
            "slot": "7",
            "type": "t_uint256"
          },
          {
            "astId": 68658,
            "contract": "contracts/strategies/uniswap/UniswapV3ConverterStrategy.sol:UniswapV3ConverterStrategy",
            "label": "isFuseTriggered",
            "offset": 0,
            "slot": "8",
            "type": "t_bool"
          },
          {
            "astId": 68660,
            "contract": "contracts/strategies/uniswap/UniswapV3ConverterStrategy.sol:UniswapV3ConverterStrategy",
            "label": "fuseThreshold",
            "offset": 0,
            "slot": "9",
            "type": "t_uint256"
          },
          {
            "astId": 68662,
            "contract": "contracts/strategies/uniswap/UniswapV3ConverterStrategy.sol:UniswapV3ConverterStrategy",
            "label": "lastPrice",
            "offset": 0,
            "slot": "10",
            "type": "t_uint256"
          }
        ],
        "numberOfBytes": "352"
      },
      "t_uint128": {
        "encoding": "inplace",
        "label": "uint128",
        "numberOfBytes": "16"
      },
      "t_uint256": {
        "encoding": "inplace",
        "label": "uint256",
        "numberOfBytes": "32"
      },
      "t_uint8": {
        "encoding": "inplace",
        "label": "uint8",
        "numberOfBytes": "1"
      }
    }
  }
}