{
  "address": "0x0Efcf2D92228b11B1e58A1145089971Aa5A500a2",
  "abi": [
    {
      "inputs": [
        {
          "internalType": "contract IUniswapV3Pool",
          "name": "pool",
          "type": "IUniswapV3Pool"
        },
        {
          "internalType": "int24",
          "name": "tickRange",
          "type": "int24"
        },
        {
          "internalType": "int24",
          "name": "tickSpacing",
          "type": "int24"
        }
      ],
      "name": "calcTickRange",
      "outputs": [
        {
          "internalType": "int24",
          "name": "lowerTick",
          "type": "int24"
        },
        {
          "internalType": "int24",
          "name": "upperTick",
          "type": "int24"
        }
      ],
      "stateMutability": "view",
      "type": "function"
    },
    {
      "inputs": [
        {
          "internalType": "contract IUniswapV3Pool",
          "name": "pool",
          "type": "IUniswapV3Pool"
        },
        {
          "internalType": "int24",
          "name": "lowerTick",
          "type": "int24"
        },
        {
          "internalType": "int24",
          "name": "upperTick",
          "type": "int24"
        },
        {
          "internalType": "bool",
          "name": "depositorSwapTokens",
          "type": "bool"
        }
      ],
      "name": "getEntryData",
      "outputs": [
        {
          "internalType": "bytes",
          "name": "entryData",
          "type": "bytes"
        }
      ],
      "stateMutability": "view",
      "type": "function"
    }
  ],
  "transactionHash": "0xbca7ed93b5f000d5e0911db73a9bb4df28053c685d9613592165c322a373ff9f",
  "args": [],
  "numDeployments": 5,
  "solcInputHash": "6798e17122d1864c179f6dfdd6019869",
  "bytecode": "0x61201e61003a600b82828239805160001a60731461002d57634e487b7160e01b600052600060045260246000fd5b30600052607381538281f3fe730000000000000000000000000000000000000000301460806040526004361061004b5760003560e01c806346a2a83814610050578063a1d4398914610072578063da7adbec1461009b575b600080fd5b81801561005c57600080fd5b5061007061006b3660046117fe565b6100c8565b005b610085610080366004611861565b61025c565b6040516100929190611903565b60405180910390f35b6100ae6100a9366004611916565b610511565b60408051600293840b81529190920b602082015201610092565b60028201548254600184015460038501546001600160a01b03938416939283169290911690600160481b900460ff166000808261010e5787600501548860060154610119565b876006015488600501545b60028a01549193509150600160b81b900460ff16156101ae576101428a8a88888887878e610643565b600280890154610170918891600160c81b8104820b91600160e01b8204810b91600160a01b9004900b610d5f565b60028a01805465ffffffffffff60c81b1916600160e01b62ffffff9384160262ffffff60c81b191617600160c81b9390921692909202179055610250565b6101be8a8a88888887878e610da7565b60028089015460009182916101f1918a91600160c81b8104820b91600160e01b8204810b91600160a01b9004900b610d5f565b9150915060006102038984848961025c565b90506102128d898984896113a2565b5060028a01805465ffffffffffff60c81b1916600160c81b62ffffff9485160262ffffff60e01b191617600160e01b92909316919091029190911790555b50505050505050505050565b60606000856001600160a01b031663d21220a76040518163ffffffff1660e01b8152600401602060405180830381865afa15801561029e573d6000803e3d6000fd5b505050506040513d601f19601f820116820180604052508101906102c29190611961565b604051635620c32d60e11b81526001600160a01b0380891660048301528216602482015290915060009073AA7423AB76D0D826840b0801D480A5a929292fCE9063ac41865a90604401602060405180830381865af4158015610328573d6000803e3d6000fd5b505050506040513d601f19601f8201168201806040525081019061034c919061197e565b90506000826001600160a01b031663313ce5676040518163ffffffff1660e01b8152600401602060405180830381865afa15801561038e573d6000803e3d6000fd5b505050506040513d601f19601f820116820180604052508101906103b291906119ad565b60ff1690508160006103c583600a611ac2565b6040516305f08b0f60e21b81526001600160a01b038c16600482015260028b810b60248301528a900b60448201526064810184905260848101829052909150600090819073AA7423AB76D0D826840b0801D480A5a929292fCE906317c22c3c9060a401606060405180830381865af4158015610445573d6000803e3d6000fd5b505050506040513d601f19601f820116820180604052508101906104699190611ace565b509150915088156104bc576001836104818884611b11565b61048b9190611b3e565b6040805160ff9093166020840152820152606081018390526080016040516020818303038152906040529750610502565b600182846104ca8985611b11565b6104d49190611b3e565b6040805160ff9094166020850152830191909152606082015260800160405160208183030381529060405297505b50505050505050949350505050565b6000806000856001600160a01b0316633850c7bd6040518163ffffffff1660e01b815260040160e060405180830381865afa158015610554573d6000803e3d6000fd5b505050506040513d601f19601f820116820180604052508101906105789190611b64565b505050505091505060008160020b1280156105ae5750600281900b8461059e8184611bf3565b6105a89190611c2d565b60020b14155b156105e657836001816105c18885611c54565b6105cb9190611bf3565b6105d59190611c54565b6105df9190611c2d565b9250610609565b83806105f28784611c54565b6105fc9190611bf3565b6106069190611c2d565b92505b8460020b60001461062e5761061f856002611c2d565b6106299084611c79565b610638565b6106388484611c79565b915050935093915050565b61066e6040518060800160405280600081526020016000815260200160008152602001600081525090565b610679898787611440565b815261068586856114cd565b602082015261069485846114cd565b604082018190528151101561097c57805160408201516106b49190611c9e565b606082018190526020820151906106d0908b908990899061154d565b101561078257604080516002602082015273F6c34fb2da85a47d9b3AC591a7B15941368924789163ca27d10d918c910160408051601f198184030181529082905260608601516001600160e01b031960e086901b16835261073b93928c918c91600090600401611cb1565b6040805180830381865af4158015610757573d6000803e3d6000fd5b505050506040513d601f19601f8201168201806040525081019061077b9190611cf9565b5050610d54565b805160405163954d7e7360e01b815273F6c34fb2da85a47d9b3AC591a7B15941368924789163954d7e73916107bf918d918b918b91600401611d1d565b6040805180830381865af41580156107db573d6000803e3d6000fd5b505050506040513d601f19601f820116820180604052508101906107ff9190611cf9565b505061080b85846114cd565b81604001818152505073F6c34fb2da85a47d9b3AC591a7B1594136892478630f6e647a8a8a6001600160a01b0316634046ebae6040518163ffffffff1660e01b8152600401602060405180830381865afa15801561086d573d6000803e3d6000fd5b505050506040513d601f19601f820116820180604052508101906108919190611961565b888a86604001518860006040518863ffffffff1660e01b81526004016108bd9796959493929190611d47565b6040805180830381865af41580156108d9573d6000803e3d6000fd5b505050506040513d601f19601f820116820180604052508101906108fd9190611cf9565b505061090986856114cd565b6020828101918252604080516001928101839052808201839052606080820193909352815180820390930183526080810191829052925163ca27d10d60e01b90915273F6c34fb2da85a47d9b3AC591a7B15941368924789263ca27d10d9261073b928e928c918c91600090608401611cb1565b6040810151815161098d9190611c9e565b60608201819052604082015111156109df57606081015160405163954d7e7360e01b815273F6c34fb2da85a47d9b3AC591a7B15941368924789163954d7e739161073b918d918b918b91600401611d1d565b6000856001600160a01b031663313ce5676040518163ffffffff1660e01b8152600401602060405180830381865afa158015610a1f573d6000803e3d6000fd5b505050506040513d601f19601f82011682018060405250810190610a4391906119ad565b610a4e90600a611d8b565b6060830151604051635620c32d60e11b81526001600160a01b03808c1660048301528916602482015273AA7423AB76D0D826840b0801D480A5a929292fCE9063ac41865a90604401602060405180830381865af4158015610ab3573d6000803e3d6000fd5b505050506040513d601f19601f82011682018060405250810190610ad7919061197e565b610ae19190611b11565b610aeb9190611b3e565b9050610af8606482611b3e565b610b029082611d9a565b905073F6c34fb2da85a47d9b3AC591a7B1594136892478630f6e647a8b8b6001600160a01b0316634046ebae6040518163ffffffff1660e01b8152600401602060405180830381865afa158015610b5d573d6000803e3d6000fd5b505050506040513d601f19601f82011682018060405250810190610b819190611961565b8a8a868960006040518863ffffffff1660e01b8152600401610ba99796959493929190611d47565b6040805180830381865af4158015610bc5573d6000803e3d6000fd5b505050506040513d601f19601f82011682018060405250810190610be99190611cf9565b5050610bf586856114cd565b60408301819052825173F6c34fb2da85a47d9b3AC591a7B15941368924789163954d7e73918d918b918b9111610c2f578660400151610c32565b86515b6040518563ffffffff1660e01b8152600401610c519493929190611d1d565b6040805180830381865af4158015610c6d573d6000803e3d6000fd5b505050506040513d601f19601f82011682018060405250810190610c919190611cf9565b5050610c9d87866114cd565b6020838101918252604080516001928101839052808201839052606080820193909352815180820390930183526080810191829052925163ca27d10d60e01b90915273F6c34fb2da85a47d9b3AC591a7B15941368924789263ca27d10d92610d10928f928d918d91600090608401611cb1565b6040805180830381865af4158015610d2c573d6000803e3d6000fd5b505050506040513d601f19601f82011682018060405250810190610d509190611cf9565b5050505b505050505050505050565b60008080610d6d8686611c54565b9050610d99878560020b8360020b14610d9057610d8b600284611bf3565b610d93565b60005b86610511565b909890975095505050505050565b6000610db4898787611440565b90506000896001600160a01b031663f77c47916040518163ffffffff1660e01b8152600401602060405180830381865afa158015610df6573d6000803e3d6000fd5b505050506040513d601f19601f82011682018060405250810190610e1a9190611961565b6001600160a01b0316632630c12f6040518163ffffffff1660e01b8152600401602060405180830381865afa158015610e57573d6000803e3d6000fd5b505050506040513d601f19601f82011682018060405250810190610e7b9190611961565b905067016345785d8a0000866001600160a01b031663313ce5676040518163ffffffff1660e01b8152600401602060405180830381865afa158015610ec4573d6000803e3d6000fd5b505050506040513d601f19601f82011682018060405250810190610ee891906119ad565b610ef390600a611d8b565b60405163b3596f0760e01b81526001600160a01b03898116600483015284169063b3596f0790602401602060405180830381865afa158015610f39573d6000803e3d6000fd5b505050506040513d601f19601f82011682018060405250810190610f5d919061197e565b610f679085611b11565b610f719190611b3e565b1115610250576000610f828861175f565b90506000610f8f8861175f565b905086821115610fa657610fa38783611c9e565b91505b85811115610fbb57610fb88682611c9e565b90505b8381101561120557604051635620c32d60e11b81526001600160a01b03808c1660048301528916602482015260009073AA7423AB76D0D826840b0801D480A5a929292fCE9063ac41865a90604401602060405180830381865af4158015611026573d6000803e3d6000fd5b505050506040513d601f19601f8201168201806040525081019061104a919061197e565b90506000896001600160a01b031663313ce5676040518163ffffffff1660e01b8152600401602060405180830381865afa15801561108c573d6000803e3d6000fd5b505050506040513d601f19601f820116820180604052508101906110b091906119ad565b6110bb90600a611d8b565b6110c58488611c9e565b6110cf9084611b11565b6110d99190611b3e565b90506110e6606482611b3e565b6110f09082611d9a565b905073F6c34fb2da85a47d9b3AC591a7B1594136892478630f6e647a8f8f6001600160a01b0316634046ebae6040518163ffffffff1660e01b8152600401602060405180830381865afa15801561114b573d6000803e3d6000fd5b505050506040513d601f19601f8201168201806040525081019061116f9190611961565b8e8e61117b878b6117d0565b8d60006040518863ffffffff1660e01b81526004016111a09796959493929190611d47565b6040805180830381865af41580156111bc573d6000803e3d6000fd5b505050506040513d601f19601f820116820180604052508101906111e09190611cf9565b50506111eb8a61175f565b925087831115611202576111ff8884611c9e565b92505b50505b73F6c34fb2da85a47d9b3AC591a7B159413689247863954d7e738d8b8b61122c89876117d0565b6040518563ffffffff1660e01b815260040161124b9493929190611d1d565b6040805180830381865af4158015611267573d6000803e3d6000fd5b505050506040513d601f19601f8201168201806040525081019061128b9190611cf9565b50506112968861175f565b9050858111156112ad576112aa8682611c9e565b90505b73F6c34fb2da85a47d9b3AC591a7B1594136892478630f6e647a8d8d6001600160a01b0316634046ebae6040518163ffffffff1660e01b8152600401602060405180830381865afa158015611306573d6000803e3d6000fd5b505050506040513d601f19601f8201168201806040525081019061132a9190611961565b8b8d868b60006040518863ffffffff1660e01b81526004016113529796959493929190611d47565b6040805180830381865af415801561136e573d6000803e3d6000fd5b505050506040513d601f19601f820116820180604052508101906113929190611cf9565b5050505050505050505050505050565b73F6c34fb2da85a47d9b3AC591a7B159413689247863ca27d10d86848787866113ca8b61175f565b6113d49190611c9e565b60006040518763ffffffff1660e01b81526004016113f796959493929190611cb1565b6040805180830381865af4158015611413573d6000803e3d6000fd5b505050506040513d601f19601f820116820180604052508101906114379190611cf9565b50505050505050565b60405163dd27ede760e01b81523060048201526001600160a01b0383811660248301528281166044830152600160648301526000919085169063dd27ede79060840160408051808303816000875af11580156114a0573d6000803e3d6000fd5b505050506040513d601f19601f820116820180604052508101906114c49190611cf9565b50949350505050565b60006114d88361175f565b9050818110156040518060400160405280601d81526020017f5533532d31302042616c616e6365206c6f776572207468616e206665650000008152509061153b5760405162461bcd60e51b81526004016115329190611903565b60405180910390fd5b506115468282611c9e565b9392505050565b60006115886040518060c001604052806000815260200160608152602001606081526020016060815260200160008152602001600081525090565b60408051600260208201526001600160a01b0388169163430ffb1791016040516020818303038152906040528786886213c6806040518663ffffffff1660e01b81526004016115db959493929190611dad565b600060405180830381865afa1580156115f8573d6000803e3d6000fd5b505050506040513d6000823e601f3d908101601f191682016040526116209190810190611ec4565b5060608401526040830152602082018190525180156117515760005b8181101561174f578260600151818151811061165a5761165a611fd2565b6020026020010151851061168b578260600151818151811061167e5761167e611fd2565b602002602001015161168d565b845b60a084015260608301518051829081106116a9576116a9611fd2565b602002602001015185106116da57826040015181815181106116cd576116cd611fd2565b602002602001015161172b565b826060015181815181106116f0576116f0611fd2565b6020026020010151858460400151838151811061170f5761170f611fd2565b60200260200101516117219190611b11565b61172b9190611b3e565b608084015260a083015161173f9086611c9e565b9450841561174f5760010161163c565b505b506080015195945050505050565b6040516370a0823160e01b81523060048201526000906001600160a01b038316906370a0823190602401602060405180830381865afa1580156117a6573d6000803e3d6000fd5b505050506040513d601f19601f820116820180604052508101906117ca919061197e565b92915050565b60008183106117df5781611546565b5090919050565b6001600160a01b03811681146117fb57600080fd5b50565b6000806000806080858703121561181457600080fd5b843561181f816117e6565b9350602085013561182f816117e6565b93969395505050506040820135916060013590565b8060020b81146117fb57600080fd5b80151581146117fb57600080fd5b6000806000806080858703121561187757600080fd5b8435611882816117e6565b9350602085013561189281611844565b925060408501356118a281611844565b915060608501356118b281611853565b939692955090935050565b6000815180845260005b818110156118e3576020818501810151868301820152016118c7565b506000602082860101526020601f19601f83011685010191505092915050565b60208152600061154660208301846118bd565b60008060006060848603121561192b57600080fd5b8335611936816117e6565b9250602084013561194681611844565b9150604084013561195681611844565b809150509250925092565b60006020828403121561197357600080fd5b8151611546816117e6565b60006020828403121561199057600080fd5b5051919050565b805160ff811681146119a857600080fd5b919050565b6000602082840312156119bf57600080fd5b61154682611997565b634e487b7160e01b600052601160045260246000fd5b600181815b80851115611a195781600019048211156119ff576119ff6119c8565b80851615611a0c57918102915b93841c93908002906119e3565b509250929050565b600082611a30575060016117ca565b81611a3d575060006117ca565b8160018114611a535760028114611a5d57611a79565b60019150506117ca565b60ff841115611a6e57611a6e6119c8565b50506001821b6117ca565b5060208310610133831016604e8410600b8410161715611a9c575081810a6117ca565b611aa683836119de565b8060001904821115611aba57611aba6119c8565b029392505050565b60006115468383611a21565b600080600060608486031215611ae357600080fd5b835192506020840151915060408401516fffffffffffffffffffffffffffffffff8116811461195657600080fd5b80820281158282048414176117ca576117ca6119c8565b634e487b7160e01b600052601260045260246000fd5b600082611b4d57611b4d611b28565b500490565b805161ffff811681146119a857600080fd5b600080600080600080600060e0888a031215611b7f57600080fd5b8751611b8a816117e6565b6020890151909750611b9b81611844565b9550611ba960408901611b52565b9450611bb760608901611b52565b9350611bc560808901611b52565b9250611bd360a08901611997565b915060c0880151611be381611853565b8091505092959891949750929550565b60008160020b8360020b80611c0a57611c0a611b28565b627fffff19821460001982141615611c2457611c246119c8565b90059392505050565b60008260020b8260020b028060020b9150808214611c4d57611c4d6119c8565b5092915050565b600282810b9082900b03627fffff198112627fffff821317156117ca576117ca6119c8565b600281810b9083900b01627fffff8113627fffff19821217156117ca576117ca6119c8565b818103818111156117ca576117ca6119c8565b600060018060a01b03808916835260c06020840152611cd360c08401896118bd565b9681166040840152949094166060820152608081019290925260a0909101525092915050565b60008060408385031215611d0c57600080fd5b505080516020909101519092909150565b6001600160a01b039485168152928416602084015292166040820152606081019190915260800190565b6001600160a01b03978816815295871660208701529386166040860152919094166060840152608083019390935260a082019290925260c081019190915260e00190565b600061154660ff841683611a21565b808201808211156117ca576117ca6119c8565b60a081526000611dc060a08301886118bd565b6001600160a01b03968716602084015260408301959095525091909316606082015260800191909152919050565b634e487b7160e01b600052604160045260246000fd5b604051601f8201601f1916810167ffffffffffffffff81118282101715611e2d57611e2d611dee565b604052919050565b600067ffffffffffffffff821115611e4f57611e4f611dee565b5060051b60200190565b600082601f830112611e6a57600080fd5b81516020611e7f611e7a83611e35565b611e04565b82815260059290921b84018101918181019086841115611e9e57600080fd5b8286015b84811015611eb95780518352918301918301611ea2565b509695505050505050565b60008060008060808587031215611eda57600080fd5b845167ffffffffffffffff80821115611ef257600080fd5b818701915087601f830112611f0657600080fd5b81516020611f16611e7a83611e35565b82815260059290921b8401810191818101908b841115611f3557600080fd5b948201945b83861015611f5c578551611f4d816117e6565b82529482019490820190611f3a565b918a0151919850909350505080821115611f7557600080fd5b611f8188838901611e59565b94506040870151915080821115611f9757600080fd5b611fa388838901611e59565b93506060870151915080821115611fb957600080fd5b50611fc687828801611e59565b91505092959194509250565b634e487b7160e01b600052603260045260246000fdfea2646970667358221220df29e6b9e39dcc8df29b26be17ce4da3ca20c5cdfbd15536b638dbd14fb61f9064736f6c63430008110033",
  "deployedBytecode": "0x730000000000000000000000000000000000000000301460806040526004361061004b5760003560e01c806346a2a83814610050578063a1d4398914610072578063da7adbec1461009b575b600080fd5b81801561005c57600080fd5b5061007061006b3660046117fe565b6100c8565b005b610085610080366004611861565b61025c565b6040516100929190611903565b60405180910390f35b6100ae6100a9366004611916565b610511565b60408051600293840b81529190920b602082015201610092565b60028201548254600184015460038501546001600160a01b03938416939283169290911690600160481b900460ff166000808261010e5787600501548860060154610119565b876006015488600501545b60028a01549193509150600160b81b900460ff16156101ae576101428a8a88888887878e610643565b600280890154610170918891600160c81b8104820b91600160e01b8204810b91600160a01b9004900b610d5f565b60028a01805465ffffffffffff60c81b1916600160e01b62ffffff9384160262ffffff60c81b191617600160c81b9390921692909202179055610250565b6101be8a8a88888887878e610da7565b60028089015460009182916101f1918a91600160c81b8104820b91600160e01b8204810b91600160a01b9004900b610d5f565b9150915060006102038984848961025c565b90506102128d898984896113a2565b5060028a01805465ffffffffffff60c81b1916600160c81b62ffffff9485160262ffffff60e01b191617600160e01b92909316919091029190911790555b50505050505050505050565b60606000856001600160a01b031663d21220a76040518163ffffffff1660e01b8152600401602060405180830381865afa15801561029e573d6000803e3d6000fd5b505050506040513d601f19601f820116820180604052508101906102c29190611961565b604051635620c32d60e11b81526001600160a01b0380891660048301528216602482015290915060009073__$0c70757f598a889e7e5bdfcf0bf5e1f3f7$__9063ac41865a90604401602060405180830381865af4158015610328573d6000803e3d6000fd5b505050506040513d601f19601f8201168201806040525081019061034c919061197e565b90506000826001600160a01b031663313ce5676040518163ffffffff1660e01b8152600401602060405180830381865afa15801561038e573d6000803e3d6000fd5b505050506040513d601f19601f820116820180604052508101906103b291906119ad565b60ff1690508160006103c583600a611ac2565b6040516305f08b0f60e21b81526001600160a01b038c16600482015260028b810b60248301528a900b60448201526064810184905260848101829052909150600090819073__$0c70757f598a889e7e5bdfcf0bf5e1f3f7$__906317c22c3c9060a401606060405180830381865af4158015610445573d6000803e3d6000fd5b505050506040513d601f19601f820116820180604052508101906104699190611ace565b509150915088156104bc576001836104818884611b11565b61048b9190611b3e565b6040805160ff9093166020840152820152606081018390526080016040516020818303038152906040529750610502565b600182846104ca8985611b11565b6104d49190611b3e565b6040805160ff9094166020850152830191909152606082015260800160405160208183030381529060405297505b50505050505050949350505050565b6000806000856001600160a01b0316633850c7bd6040518163ffffffff1660e01b815260040160e060405180830381865afa158015610554573d6000803e3d6000fd5b505050506040513d601f19601f820116820180604052508101906105789190611b64565b505050505091505060008160020b1280156105ae5750600281900b8461059e8184611bf3565b6105a89190611c2d565b60020b14155b156105e657836001816105c18885611c54565b6105cb9190611bf3565b6105d59190611c54565b6105df9190611c2d565b9250610609565b83806105f28784611c54565b6105fc9190611bf3565b6106069190611c2d565b92505b8460020b60001461062e5761061f856002611c2d565b6106299084611c79565b610638565b6106388484611c79565b915050935093915050565b61066e6040518060800160405280600081526020016000815260200160008152602001600081525090565b610679898787611440565b815261068586856114cd565b602082015261069485846114cd565b604082018190528151101561097c57805160408201516106b49190611c9e565b606082018190526020820151906106d0908b908990899061154d565b101561078257604080516002602082015273__$e930d50fb5f4f1298547dbcb2bb0591990$__9163ca27d10d918c910160408051601f198184030181529082905260608601516001600160e01b031960e086901b16835261073b93928c918c91600090600401611cb1565b6040805180830381865af4158015610757573d6000803e3d6000fd5b505050506040513d601f19601f8201168201806040525081019061077b9190611cf9565b5050610d54565b805160405163954d7e7360e01b815273__$e930d50fb5f4f1298547dbcb2bb0591990$__9163954d7e73916107bf918d918b918b91600401611d1d565b6040805180830381865af41580156107db573d6000803e3d6000fd5b505050506040513d601f19601f820116820180604052508101906107ff9190611cf9565b505061080b85846114cd565b81604001818152505073__$e930d50fb5f4f1298547dbcb2bb0591990$__630f6e647a8a8a6001600160a01b0316634046ebae6040518163ffffffff1660e01b8152600401602060405180830381865afa15801561086d573d6000803e3d6000fd5b505050506040513d601f19601f820116820180604052508101906108919190611961565b888a86604001518860006040518863ffffffff1660e01b81526004016108bd9796959493929190611d47565b6040805180830381865af41580156108d9573d6000803e3d6000fd5b505050506040513d601f19601f820116820180604052508101906108fd9190611cf9565b505061090986856114cd565b6020828101918252604080516001928101839052808201839052606080820193909352815180820390930183526080810191829052925163ca27d10d60e01b90915273__$e930d50fb5f4f1298547dbcb2bb0591990$__9263ca27d10d9261073b928e928c918c91600090608401611cb1565b6040810151815161098d9190611c9e565b60608201819052604082015111156109df57606081015160405163954d7e7360e01b815273__$e930d50fb5f4f1298547dbcb2bb0591990$__9163954d7e739161073b918d918b918b91600401611d1d565b6000856001600160a01b031663313ce5676040518163ffffffff1660e01b8152600401602060405180830381865afa158015610a1f573d6000803e3d6000fd5b505050506040513d601f19601f82011682018060405250810190610a4391906119ad565b610a4e90600a611d8b565b6060830151604051635620c32d60e11b81526001600160a01b03808c1660048301528916602482015273__$0c70757f598a889e7e5bdfcf0bf5e1f3f7$__9063ac41865a90604401602060405180830381865af4158015610ab3573d6000803e3d6000fd5b505050506040513d601f19601f82011682018060405250810190610ad7919061197e565b610ae19190611b11565b610aeb9190611b3e565b9050610af8606482611b3e565b610b029082611d9a565b905073__$e930d50fb5f4f1298547dbcb2bb0591990$__630f6e647a8b8b6001600160a01b0316634046ebae6040518163ffffffff1660e01b8152600401602060405180830381865afa158015610b5d573d6000803e3d6000fd5b505050506040513d601f19601f82011682018060405250810190610b819190611961565b8a8a868960006040518863ffffffff1660e01b8152600401610ba99796959493929190611d47565b6040805180830381865af4158015610bc5573d6000803e3d6000fd5b505050506040513d601f19601f82011682018060405250810190610be99190611cf9565b5050610bf586856114cd565b60408301819052825173__$e930d50fb5f4f1298547dbcb2bb0591990$__9163954d7e73918d918b918b9111610c2f578660400151610c32565b86515b6040518563ffffffff1660e01b8152600401610c519493929190611d1d565b6040805180830381865af4158015610c6d573d6000803e3d6000fd5b505050506040513d601f19601f82011682018060405250810190610c919190611cf9565b5050610c9d87866114cd565b6020838101918252604080516001928101839052808201839052606080820193909352815180820390930183526080810191829052925163ca27d10d60e01b90915273__$e930d50fb5f4f1298547dbcb2bb0591990$__9263ca27d10d92610d10928f928d918d91600090608401611cb1565b6040805180830381865af4158015610d2c573d6000803e3d6000fd5b505050506040513d601f19601f82011682018060405250810190610d509190611cf9565b5050505b505050505050505050565b60008080610d6d8686611c54565b9050610d99878560020b8360020b14610d9057610d8b600284611bf3565b610d93565b60005b86610511565b909890975095505050505050565b6000610db4898787611440565b90506000896001600160a01b031663f77c47916040518163ffffffff1660e01b8152600401602060405180830381865afa158015610df6573d6000803e3d6000fd5b505050506040513d601f19601f82011682018060405250810190610e1a9190611961565b6001600160a01b0316632630c12f6040518163ffffffff1660e01b8152600401602060405180830381865afa158015610e57573d6000803e3d6000fd5b505050506040513d601f19601f82011682018060405250810190610e7b9190611961565b905067016345785d8a0000866001600160a01b031663313ce5676040518163ffffffff1660e01b8152600401602060405180830381865afa158015610ec4573d6000803e3d6000fd5b505050506040513d601f19601f82011682018060405250810190610ee891906119ad565b610ef390600a611d8b565b60405163b3596f0760e01b81526001600160a01b03898116600483015284169063b3596f0790602401602060405180830381865afa158015610f39573d6000803e3d6000fd5b505050506040513d601f19601f82011682018060405250810190610f5d919061197e565b610f679085611b11565b610f719190611b3e565b1115610250576000610f828861175f565b90506000610f8f8861175f565b905086821115610fa657610fa38783611c9e565b91505b85811115610fbb57610fb88682611c9e565b90505b8381101561120557604051635620c32d60e11b81526001600160a01b03808c1660048301528916602482015260009073__$0c70757f598a889e7e5bdfcf0bf5e1f3f7$__9063ac41865a90604401602060405180830381865af4158015611026573d6000803e3d6000fd5b505050506040513d601f19601f8201168201806040525081019061104a919061197e565b90506000896001600160a01b031663313ce5676040518163ffffffff1660e01b8152600401602060405180830381865afa15801561108c573d6000803e3d6000fd5b505050506040513d601f19601f820116820180604052508101906110b091906119ad565b6110bb90600a611d8b565b6110c58488611c9e565b6110cf9084611b11565b6110d99190611b3e565b90506110e6606482611b3e565b6110f09082611d9a565b905073__$e930d50fb5f4f1298547dbcb2bb0591990$__630f6e647a8f8f6001600160a01b0316634046ebae6040518163ffffffff1660e01b8152600401602060405180830381865afa15801561114b573d6000803e3d6000fd5b505050506040513d601f19601f8201168201806040525081019061116f9190611961565b8e8e61117b878b6117d0565b8d60006040518863ffffffff1660e01b81526004016111a09796959493929190611d47565b6040805180830381865af41580156111bc573d6000803e3d6000fd5b505050506040513d601f19601f820116820180604052508101906111e09190611cf9565b50506111eb8a61175f565b925087831115611202576111ff8884611c9e565b92505b50505b73__$e930d50fb5f4f1298547dbcb2bb0591990$__63954d7e738d8b8b61122c89876117d0565b6040518563ffffffff1660e01b815260040161124b9493929190611d1d565b6040805180830381865af4158015611267573d6000803e3d6000fd5b505050506040513d601f19601f8201168201806040525081019061128b9190611cf9565b50506112968861175f565b9050858111156112ad576112aa8682611c9e565b90505b73__$e930d50fb5f4f1298547dbcb2bb0591990$__630f6e647a8d8d6001600160a01b0316634046ebae6040518163ffffffff1660e01b8152600401602060405180830381865afa158015611306573d6000803e3d6000fd5b505050506040513d601f19601f8201168201806040525081019061132a9190611961565b8b8d868b60006040518863ffffffff1660e01b81526004016113529796959493929190611d47565b6040805180830381865af415801561136e573d6000803e3d6000fd5b505050506040513d601f19601f820116820180604052508101906113929190611cf9565b5050505050505050505050505050565b73__$e930d50fb5f4f1298547dbcb2bb0591990$__63ca27d10d86848787866113ca8b61175f565b6113d49190611c9e565b60006040518763ffffffff1660e01b81526004016113f796959493929190611cb1565b6040805180830381865af4158015611413573d6000803e3d6000fd5b505050506040513d601f19601f820116820180604052508101906114379190611cf9565b50505050505050565b60405163dd27ede760e01b81523060048201526001600160a01b0383811660248301528281166044830152600160648301526000919085169063dd27ede79060840160408051808303816000875af11580156114a0573d6000803e3d6000fd5b505050506040513d601f19601f820116820180604052508101906114c49190611cf9565b50949350505050565b60006114d88361175f565b9050818110156040518060400160405280601d81526020017f5533532d31302042616c616e6365206c6f776572207468616e206665650000008152509061153b5760405162461bcd60e51b81526004016115329190611903565b60405180910390fd5b506115468282611c9e565b9392505050565b60006115886040518060c001604052806000815260200160608152602001606081526020016060815260200160008152602001600081525090565b60408051600260208201526001600160a01b0388169163430ffb1791016040516020818303038152906040528786886213c6806040518663ffffffff1660e01b81526004016115db959493929190611dad565b600060405180830381865afa1580156115f8573d6000803e3d6000fd5b505050506040513d6000823e601f3d908101601f191682016040526116209190810190611ec4565b5060608401526040830152602082018190525180156117515760005b8181101561174f578260600151818151811061165a5761165a611fd2565b6020026020010151851061168b578260600151818151811061167e5761167e611fd2565b602002602001015161168d565b845b60a084015260608301518051829081106116a9576116a9611fd2565b602002602001015185106116da57826040015181815181106116cd576116cd611fd2565b602002602001015161172b565b826060015181815181106116f0576116f0611fd2565b6020026020010151858460400151838151811061170f5761170f611fd2565b60200260200101516117219190611b11565b61172b9190611b3e565b608084015260a083015161173f9086611c9e565b9450841561174f5760010161163c565b505b506080015195945050505050565b6040516370a0823160e01b81523060048201526000906001600160a01b038316906370a0823190602401602060405180830381865afa1580156117a6573d6000803e3d6000fd5b505050506040513d601f19601f820116820180604052508101906117ca919061197e565b92915050565b60008183106117df5781611546565b5090919050565b6001600160a01b03811681146117fb57600080fd5b50565b6000806000806080858703121561181457600080fd5b843561181f816117e6565b9350602085013561182f816117e6565b93969395505050506040820135916060013590565b8060020b81146117fb57600080fd5b80151581146117fb57600080fd5b6000806000806080858703121561187757600080fd5b8435611882816117e6565b9350602085013561189281611844565b925060408501356118a281611844565b915060608501356118b281611853565b939692955090935050565b6000815180845260005b818110156118e3576020818501810151868301820152016118c7565b506000602082860101526020601f19601f83011685010191505092915050565b60208152600061154660208301846118bd565b60008060006060848603121561192b57600080fd5b8335611936816117e6565b9250602084013561194681611844565b9150604084013561195681611844565b809150509250925092565b60006020828403121561197357600080fd5b8151611546816117e6565b60006020828403121561199057600080fd5b5051919050565b805160ff811681146119a857600080fd5b919050565b6000602082840312156119bf57600080fd5b61154682611997565b634e487b7160e01b600052601160045260246000fd5b600181815b80851115611a195781600019048211156119ff576119ff6119c8565b80851615611a0c57918102915b93841c93908002906119e3565b509250929050565b600082611a30575060016117ca565b81611a3d575060006117ca565b8160018114611a535760028114611a5d57611a79565b60019150506117ca565b60ff841115611a6e57611a6e6119c8565b50506001821b6117ca565b5060208310610133831016604e8410600b8410161715611a9c575081810a6117ca565b611aa683836119de565b8060001904821115611aba57611aba6119c8565b029392505050565b60006115468383611a21565b600080600060608486031215611ae357600080fd5b835192506020840151915060408401516fffffffffffffffffffffffffffffffff8116811461195657600080fd5b80820281158282048414176117ca576117ca6119c8565b634e487b7160e01b600052601260045260246000fd5b600082611b4d57611b4d611b28565b500490565b805161ffff811681146119a857600080fd5b600080600080600080600060e0888a031215611b7f57600080fd5b8751611b8a816117e6565b6020890151909750611b9b81611844565b9550611ba960408901611b52565b9450611bb760608901611b52565b9350611bc560808901611b52565b9250611bd360a08901611997565b915060c0880151611be381611853565b8091505092959891949750929550565b60008160020b8360020b80611c0a57611c0a611b28565b627fffff19821460001982141615611c2457611c246119c8565b90059392505050565b60008260020b8260020b028060020b9150808214611c4d57611c4d6119c8565b5092915050565b600282810b9082900b03627fffff198112627fffff821317156117ca576117ca6119c8565b600281810b9083900b01627fffff8113627fffff19821217156117ca576117ca6119c8565b818103818111156117ca576117ca6119c8565b600060018060a01b03808916835260c06020840152611cd360c08401896118bd565b9681166040840152949094166060820152608081019290925260a0909101525092915050565b60008060408385031215611d0c57600080fd5b505080516020909101519092909150565b6001600160a01b039485168152928416602084015292166040820152606081019190915260800190565b6001600160a01b03978816815295871660208701529386166040860152919094166060840152608083019390935260a082019290925260c081019190915260e00190565b600061154660ff841683611a21565b808201808211156117ca576117ca6119c8565b60a081526000611dc060a08301886118bd565b6001600160a01b03968716602084015260408301959095525091909316606082015260800191909152919050565b634e487b7160e01b600052604160045260246000fd5b604051601f8201601f1916810167ffffffffffffffff81118282101715611e2d57611e2d611dee565b604052919050565b600067ffffffffffffffff821115611e4f57611e4f611dee565b5060051b60200190565b600082601f830112611e6a57600080fd5b81516020611e7f611e7a83611e35565b611e04565b82815260059290921b84018101918181019086841115611e9e57600080fd5b8286015b84811015611eb95780518352918301918301611ea2565b509695505050505050565b60008060008060808587031215611eda57600080fd5b845167ffffffffffffffff80821115611ef257600080fd5b818701915087601f830112611f0657600080fd5b81516020611f16611e7a83611e35565b82815260059290921b8401810191818101908b841115611f3557600080fd5b948201945b83861015611f5c578551611f4d816117e6565b82529482019490820190611f3a565b918a0151919850909350505080821115611f7557600080fd5b611f8188838901611e59565b94506040870151915080821115611f9757600080fd5b611fa388838901611e59565b93506060870151915080821115611fb957600080fd5b50611fc687828801611e59565b91505092959194509250565b634e487b7160e01b600052603260045260246000fdfea2646970667358221220df29e6b9e39dcc8df29b26be17ce4da3ca20c5cdfbd15536b638dbd14fb61f9064736f6c63430008110033",
  "libraries": {
    "UniswapV3Lib": "0xAA7423AB76D0D826840b0801D480A5a929292fCE",
    "ConverterStrategyBaseLib": "0xF6c34fb2da85a47d9b3AC591a7B1594136892478"
  },
  "devdoc": {
    "kind": "dev",
    "methods": {
      "rebalanceDebt(ITetuConverter,address,UniswapV3ConverterStrategyLogicLib.State storage,uint256)": {
        "details": "Rebalances the debt by either filling up or closing and reopening debt positions. Sets new tick range."
      }
    },
    "stateVariables": {
      "BORROW_PERIOD_ESTIMATION": {
        "details": "should be placed local, probably will be adjusted later"
      }
    },
    "version": 1
  },
  "userdoc": {
    "kind": "user",
    "methods": {},
    "version": 1
  },
  "storageLayout": {
    "storage": [],
    "types": null
  }
}