{
  "address": "0x5550Ed2d41b6D50FfDAABa18eB29C38a4fce2521",
  "abi": [
    {
      "anonymous": false,
      "inputs": [],
      "name": "DisableFuse",
      "type": "event"
    },
    {
      "anonymous": false,
      "inputs": [],
      "name": "FuseTriggered",
      "type": "event"
    },
    {
      "anonymous": false,
      "inputs": [
        {
          "indexed": false,
          "internalType": "uint256",
          "name": "newFuseThreshold",
          "type": "uint256"
        }
      ],
      "name": "NewFuseThreshold",
      "type": "event"
    },
    {
      "anonymous": false,
      "inputs": [
        {
          "indexed": false,
          "internalType": "uint256",
          "name": "loss",
          "type": "uint256"
        }
      ],
      "name": "Rebalanced",
      "type": "event"
    },
    {
      "anonymous": false,
      "inputs": [
        {
          "indexed": false,
          "internalType": "uint256",
          "name": "fee0",
          "type": "uint256"
        },
        {
          "indexed": false,
          "internalType": "uint256",
          "name": "fee1",
          "type": "uint256"
        }
      ],
      "name": "UniV3FeesClaimed",
      "type": "event"
    },
    {
      "inputs": [],
      "name": "DEFAULT_FUSE_THRESHOLD",
      "outputs": [
        {
          "internalType": "uint256",
          "name": "",
          "type": "uint256"
        }
      ],
      "stateMutability": "view",
      "type": "function"
    },
    {
      "inputs": [
        {
          "internalType": "address",
          "name": "asset",
          "type": "address"
        },
        {
          "internalType": "address",
          "name": "controller",
          "type": "address"
        },
        {
          "internalType": "address[]",
          "name": "rewardTokens",
          "type": "address[]"
        },
        {
          "internalType": "uint256[]",
          "name": "amounts",
          "type": "uint256[]"
        }
      ],
      "name": "calcEarned",
      "outputs": [
        {
          "internalType": "uint256",
          "name": "",
          "type": "uint256"
        }
      ],
      "stateMutability": "view",
      "type": "function"
    },
    {
      "inputs": [
        {
          "internalType": "contract IUniswapV3Pool",
          "name": "pool",
          "type": "IUniswapV3Pool"
        },
        {
          "internalType": "int24",
          "name": "lowerTick",
          "type": "int24"
        },
        {
          "internalType": "int24",
          "name": "upperTick",
          "type": "int24"
        },
        {
          "internalType": "bool",
          "name": "depositorSwapTokens",
          "type": "bool"
        }
      ],
      "name": "getEntryData",
      "outputs": [
        {
          "internalType": "bytes",
          "name": "entryData",
          "type": "bytes"
        }
      ],
      "stateMutability": "view",
      "type": "function"
    },
    {
      "inputs": [
        {
          "internalType": "contract ITetuConverter",
          "name": "converter",
          "type": "ITetuConverter"
        },
        {
          "internalType": "address",
          "name": "tokenA",
          "type": "address"
        },
        {
          "internalType": "address",
          "name": "tokenB",
          "type": "address"
        }
      ],
      "name": "getOracleAssetsPrice",
      "outputs": [
        {
          "internalType": "uint256",
          "name": "",
          "type": "uint256"
        }
      ],
      "stateMutability": "view",
      "type": "function"
    },
    {
      "inputs": [
        {
          "internalType": "contract IUniswapV3Pool",
          "name": "pool",
          "type": "IUniswapV3Pool"
        }
      ],
      "name": "isStablePool",
      "outputs": [
        {
          "internalType": "bool",
          "name": "",
          "type": "bool"
        }
      ],
      "stateMutability": "view",
      "type": "function"
    },
    {
      "inputs": [
        {
          "internalType": "bool",
          "name": "isFuseTriggered",
          "type": "bool"
        },
        {
          "internalType": "contract IUniswapV3Pool",
          "name": "pool",
          "type": "IUniswapV3Pool"
        },
        {
          "internalType": "int24",
          "name": "lowerTick",
          "type": "int24"
        },
        {
          "internalType": "int24",
          "name": "upperTick",
          "type": "int24"
        },
        {
          "internalType": "int24",
          "name": "tickSpacing",
          "type": "int24"
        },
        {
          "internalType": "int24",
          "name": "rebalanceTickRange",
          "type": "int24"
        }
      ],
      "name": "needRebalance",
      "outputs": [
        {
          "internalType": "bool",
          "name": "",
          "type": "bool"
        }
      ],
      "stateMutability": "view",
      "type": "function"
    },
    {
      "inputs": [
        {
          "internalType": "contract IUniswapV3Pool",
          "name": "pool",
          "type": "IUniswapV3Pool"
        },
        {
          "internalType": "int24",
          "name": "lowerTick",
          "type": "int24"
        },
        {
          "internalType": "int24",
          "name": "upperTick",
          "type": "int24"
        },
        {
          "internalType": "int24",
          "name": "lowerTickFillup",
          "type": "int24"
        },
        {
          "internalType": "int24",
          "name": "upperTickFillup",
          "type": "int24"
        },
        {
          "internalType": "uint128",
          "name": "liquidity",
          "type": "uint128"
        },
        {
          "internalType": "uint128",
          "name": "liquidityFillup",
          "type": "uint128"
        },
        {
          "internalType": "uint128",
          "name": "liquidityAmountToExit",
          "type": "uint128"
        },
        {
          "internalType": "bool",
          "name": "_depositorSwapTokens",
          "type": "bool"
        }
      ],
      "name": "quoteExit",
      "outputs": [
        {
          "internalType": "uint256[]",
          "name": "amountsOut",
          "type": "uint256[]"
        }
      ],
      "stateMutability": "view",
      "type": "function"
    }
  ],
  "transactionHash": "0x45ca801b32dac4b8a09fb41e6de101c172845d5aab2ba823df78973089c800cf",
  "args": [],
  "numDeployments": 13,
  "solcInputHash": "6bd7d46da56be05a9d96508884766e30",
  "bytecode": "0x615eed6200003b600b82828239805160001a60731461002e57634e487b7160e01b600052600060045260246000fd5b30600052607381538281f3fe73000000000000000000000000000000000000000030146080604052600436106101575760003560e01c80637fd6c0a1116100cd578063c68bb8f211610086578063c68bb8f21461037c578063c68bc703146103ab578063ce74e5d9146103be578063d6f43ad8146103cc578063ec4955b9146103df578063ef3475ac146103ff57600080fd5b80637fd6c0a1146102ba57806380089367146102cd57806388f3bd5e146102fc578063928f84931461031c578063a1d439891461033c578063c06474231461035c57600080fd5b806336bddd651161011f57806336bddd651461020157806337eb91fc1461022357806343478f171461024357806354747e5b1461027157806357d59aae146102945780635ca1bcdf146102a757600080fd5b806302c8fd911461015c5780630a65e5e714610192578063190fa314146101a5578063345aec36146101cd57806334d2ec3d146101e0575b600080fd5b81801561016857600080fd5b5061017c610177366004614d0d565b610436565b6040516101899190614d78565b60405180910390f35b61017c6101a0366004614d8b565b610913565b6101b86101b3366004614d8b565b610c28565b60408051928352602083019190915201610189565b6101b86101db366004614d8b565b610c62565b6101f36101ee366004614ec8565b610e2a565b604051908152602001610189565b81801561020d57600080fd5b5061022161021c366004614fb1565b610fec565b005b81801561022f57600080fd5b5061022161023e366004614fdd565b6110ef565b81801561024f57600080fd5b5061026361025e366004615002565b61114c565b604051610189929190615069565b61028461027f36600461508d565b61182c565b6040519015158152602001610189565b6102846102a23660046150c7565b61189f565b6102846102b5366004614fdd565b6119cc565b6101f36102c836600461513b565b611d0c565b8180156102d957600080fd5b506102ed6102e8366004615186565b611ee0565b60405161018993929190615213565b81801561030857600080fd5b50610221610317366004615245565b6121b0565b81801561032857600080fd5b50610221610337366004615267565b6121ee565b61034f61034a3660046152f4565b6124f0565b60405161018991906153a0565b81801561036857600080fd5b5061017c6103773660046153db565b612596565b81801561038857600080fd5b5061039c610397366004614d8b565b612c46565b60405161018993929190615530565b61017c6103b9366004615569565b613370565b6101f36611c37937e0800081565b61034f6103da366004614d8b565b613674565b8180156103eb57600080fd5b506102216103fa366004614d8b565b613805565b81801561040b57600080fd5b5061041f61041a366004614fdd565b613de0565b604080519215158352602083019190915201610189565b600282810154600384015460048501546040805180820190915260158152745533532d372057726f6e67206c697175696469747960581b60208201526060946000946001600160a01b03811694600160c81b8204830b94600160e01b909204830b9381840b9363010000008304900b92600160501b83046001600160801b039081169391811692600160481b90920460ff1691908c168410156104f55760405162461bcd60e51b81526004016104ec91906153a0565b60405180910390fd5b506040805160028082526060820183529091602083019080368337019050509950876001600160a01b031663a34123a788888e6040518463ffffffff1660e01b815260040161054693929190615625565b60408051808303816000875af1158015610564573d6000803e3d6000fd5b505050506040513d601f19601f82011682018060405250810190610588919061564b565b8b60008151811061059b5761059b61566f565b602002602001018c6001815181106105b5576105b561566f565b6020908102919091010191909152526040516309e3d67b60e31b81526001600160a01b03891690634f1eb3d8906105ff9030908b908b906001600160801b03908190600401615685565b60408051808303816000875af115801561061d573d6000803e3d6000fd5b505050506040513d601f19601f8201168201806040525081019061064191906156c2565b50506001600160801b03821615610841576000836001600160801b03168c6001600160801b0316846001600160801b031661067c9190615707565b6106869190615734565b90506000808a6001600160a01b031663a34123a78989866040518463ffffffff1660e01b81526004016106bb93929190615625565b60408051808303816000875af11580156106d9573d6000803e3d6000fd5b505050506040513d601f19601f820116820180604052508101906106fd919061564b565b6040516309e3d67b60e31b815291935091506001600160a01b038c1690634f1eb3d89061073d9030908c908c906001600160801b03908190600401615685565b60408051808303816000875af115801561075b573d6000803e3d6000fd5b505050506040513d601f19601f8201168201806040525081019061077f91906156c2565b5050818d6000815181106107955761079561566f565b602002602001018181516107a99190615748565b9052508c5181908e9060019081106107c3576107c361566f565b602002602001018181516107d79190615748565b90525060408051808201909152601281527105533532d382057726f6e672066696c6c75760741b60208201526001600160801b0380851690871610156108305760405162461bcd60e51b81526004016104ec91906153a0565b5061083b838661575b565b9b505050505b61084b8b8461575b565b60038d018054600160501b600160d01b031916600160501b6001600160801b039384160217905560048d0180546001600160801b031916918b16919091179055801561090457896001815181106108a4576108a461566f565b60200260200101518a6000815181106108bf576108bf61566f565b60200260200101518b6000815181106108da576108da61566f565b602002602001018c6001815181106108f4576108f461566f565b6020908102919091010191909152525b50505050505050505092915050565b604080516002808252606080830184529260208301908036833701905050905060008260020160009054906101000a90046001600160a01b03166001600160a01b0316633850c7bd6040518163ffffffff1660e01b815260040160e060405180830381865afa15801561098a573d6000803e3d6000fd5b505050506040513d601f19601f820116820180604052508101906109ae91906157a5565b505050506002868101546003880154604051630544f36560e31b815295965073ED9f3C81e82D4530CF716DdD2C5ED54F1cBEE80695632a279b289550610a1e94508793600160c81b8404810b93600160e01b9004900b91600160501b90046001600160801b031690600401615824565b6040805180830381865af4158015610a3a573d6000803e3d6000fd5b505050506040513d601f19601f82011682018060405250810190610a5e919061564b565b83600081518110610a7157610a7161566f565b6020026020010184600181518110610a8b57610a8b61566f565b6020908102919091010191909152526003830154600480850154604051630544f36560e31b8152600093849373ED9f3C81e82D4530CF716DdD2C5ED54F1cBEE80693632a279b2893610afc938993600282810b946301000000909304900b926001600160801b039092169101615824565b6040805180830381865af4158015610b18573d6000803e3d6000fd5b505050506040513d601f19601f82011682018060405250810190610b3c919061564b565b915091508184600081518110610b5457610b5461566f565b60200260200101818151610b689190615748565b9052508351819085906001908110610b8257610b8261566f565b60200260200101818151610b969190615748565b9052506003850154600160481b900460ff1615610c205783600181518110610bc057610bc061566f565b602002602001015184600081518110610bdb57610bdb61566f565b602002602001015185600081518110610bf657610bf661566f565b6020026020010186600181518110610c1057610c1061566f565b6020908102919091010191909152525b505050919050565b80546000908190610c41906001600160a01b0316614258565b6001840154909250610c5b906001600160a01b0316614258565b9050915091565b6040805160a0810182526002838101546001600160a01b0381168352600160c81b8104820b6020840152600160e01b9004900b818301526003830154600160501b90046001600160801b0316606082015230608082015290516352bb7e6960e01b8152600091829173ED9f3C81e82D4530CF716DdD2C5ED54F1cBEE806906352bb7e6990610cf4908490600401615857565b6040805180830381865af4158015610d10573d6000803e3d6000fd5b505050506040513d601f19601f82011682018060405250810190610d34919061564b565b6040805160a0810182526002808901546001600160a01b03168252600389015480820b602084015263010000009004900b818301526004808901546001600160801b0316606083015230608083015291516352bb7e6960e01b81529396509194509091600091829173ED9f3C81e82D4530CF716DdD2C5ED54F1cBEE806916352bb7e6991610dc491879101615857565b6040805180830381865af4158015610de0573d6000803e3d6000fd5b505050506040513d601f19601f82011682018060405250810190610e04919061564b565b9092509050610e138287615748565b9550610e1f8186615748565b945050505050915091565b600080846001600160a01b0316634046ebae6040518163ffffffff1660e01b8152600401602060405180830381865afa158015610e6b573d6000803e3d6000fd5b505050506040513d601f19601f82011682018060405250810190610e8f91906158ac565b84519091506000805b82811015610fde576000878281518110610eb457610eb461566f565b60200260200101519050896001600160a01b0316816001600160a01b031603610f0357868281518110610ee957610ee961566f565b602002602001015183610efc9190615748565b9250610fcd565b846001600160a01b031663a9dd14d6898481518110610f2457610f2461566f565b60200260200101518c8a8681518110610f3f57610f3f61566f565b60209081029190910101516040516001600160e01b031960e086901b1681526001600160a01b0393841660048201529290911660248301526044820152606401602060405180830381865afa158015610f9c573d6000803e3d6000fd5b505050506040513d601f19601f82011682018060405250810190610fc091906158c9565b610fca9084615748565b92505b50610fd7816158e2565b9050610e98565b50925050505b949350505050565b600b830154604080516060810190915260228082526001600160a01b03909216918215159190615e966020830139906110385760405162461bcd60e51b81526004016104ec91906153a0565b506003840154600160481b900460ff1615611081578354611063906001600160a01b031682846142c8565b600184015461107c906001600160a01b031682856142c8565b6110b0565b8354611097906001600160a01b031682856142c8565b60018401546110b0906001600160a01b031682846142c8565b60408051848152602081018490527fd809a30c675e811f2837e53a49b9409406bb7e6f808658eef60d09ac30579e89910160405180910390a150505050565b60088201805460ff191690558154600183015461111a9183916001600160a01b039182169116611d0c565b600a8301556040517f6b7ccec41cff3829e74e9b70bba25fca03418511799dd79dc80d774f15f35e1b90600090a15050565b6040805160008082526020820190925260609190819092506000915060006040518061020001604052808b600201601c9054906101000a900460020b60020b81526020018b60020160199054906101000a900460020b60020b81526020018b60020160149054906101000a900460020b60020b81526020018b60020160009054906101000a90046001600160a01b03166001600160a01b031681526020018b60000160009054906101000a90046001600160a01b03166001600160a01b031681526020018b60010160009054906101000a90046001600160a01b03166001600160a01b031681526020018b600a015481526020018b6009015481526020018b60030160099054906101000a900460ff161515815260200160008152602001600060020b8152602001600060020b81526020018b60020160179054906101000a900460ff16151581526020018b60020160189054906101000a900460ff161515815260200160008152602001600081525090506112fe8a60080160009054906101000a900460ff1682606001518360200151846000015185604001518f60030160069054906101000a900460020b61189f565b60405180604001604052806019815260200178154cd4cb4e48139bc81c9958985b185b98d9481b9959591959603a1b8152509061134e5760405162461bcd60e51b81526004016104ec91906153a0565b506113628982608001518360a00151611d0c565b6101c08201526101a0810151801561138d575061138d8160c00151826101c001518360e0015161431f565b1561149a5760088a01805460ff191660011790556040517fb224dccea3c30282a142bed3cedb7af1657907dea7dc2828fb9ce06007f3159490600090a173863389Abb21FA2C60a42a0cF8Ca753438F6AAC1c63310135b88a8a846060015185608001518660a00151611402886060015161434d565b6040516001600160e01b031960e089901b1681526001600160a01b0396871660048201529486166024860152928516604485015290841660648401528316608483015260a482015260c481018a905260e481018b90529088166101048201526101240160006040518083038186803b15801561147d57600080fd5b505af4158015611491573d6000803e3d6000fd5b5050505061176d565b73863389Abb21FA2C60a42a0cF8Ca753438F6AAC1c63fce032fe8a8a8d6114c4866060015161434d565b6040516001600160e01b031960e087901b1681526001600160a01b039485166004820152928416602484015260448301919091526064820152608481018a905260a481018b905290881660c482015260e40160006040518083038186803b15801561152e57600080fd5b505af4158015611542573d6000803e3d6000fd5b506002925061154f915050565b604051908082528060200260200182016040528015611578578160200160208202803683370190505b5093506115888160800151614258565b8460008151811061159b5761159b61566f565b6020026020010181815250506115b48160a00151614258565b846001815181106115c7576115c761566f565b602002602001018181525050806101800151156115e357600192505b60408051600280825260608201835260009260208301908036833701905050905081608001518160008151811061161c5761161c61566f565b60200260200101906001600160a01b031690816001600160a01b0316815250508160a00151816001815181106116545761165461566f565b6001600160a01b03929092166020928302919091018201526040805160028082526060820183526000939192909183019080368337019050509050856000815181106116a2576116a261566f565b6020026020010151816000815181106116bd576116bd61566f565b60200260200101818152505073962Fd398B1bF4e871c7424f5a6097e9E8F35Cb3963c9bce690838360008f6040518563ffffffff1660e01b815260040161170794939291906158fb565b602060405180830381865af4158015611724573d6000803e3d6000fd5b505050506040513d601f19601f8201168201806040525081019061174891906158c9565b6101e0840181905289111561176a576101e0830151611767908a615942565b93505b50505b806101a0015115611784576101c0810151600a8b01555b81156117ec57604051630855081f60e01b815260006004820152602481018390526001600160a01b03861690630855081f90604401600060405180830381600087803b1580156117d357600080fd5b505af11580156117e7573d6000803e3d6000fd5b505050505b6040518281527fc306af072396b02bf3a9782c10065cc7ff4aa842934a43f0b76f997b291237c89060200160405180910390a15050965096945050505050565b6000816001600160a01b031663ddca3f436040518163ffffffff1660e01b8152600401602060405180830381865afa15801561186c573d6000803e3d6000fd5b505050506040513d601f19601f820116820180604052508101906118909190615955565b62ffffff166064149050919050565b600086156118af575060006119c2565b6000866001600160a01b0316633850c7bd6040518163ffffffff1660e01b815260040160e060405180830381865afa1580156118ef573d6000803e3d6000fd5b505050506040513d601f19601f8201168201806040525081019061191391906157a5565b50505050509150508360020b868661192b919061597a565b60020b03611955578560020b8160020b128061194d57508460020b8160020b12155b9150506119c2565b60006002611963888861597a565b61196d919061599f565b9050600061197b82896159d9565b90508060020b8360020b13156119a957600285900b61199a828561597a565b60020b121593505050506119c2565b600285900b6119b8848361597a565b60020b1393505050505b9695505050505050565b60008060006119da85610c62565b60038701549193509150600160481b900460ff16156119f557905b84546001860154600b8701546040516370a0823160e01b81526001600160a01b0393841693928316929091169083906370a0823190611a389084906004016159fe565b602060405180830381865afa158015611a55573d6000803e3d6000fd5b505050506040513d601f19601f82011682018060405250810190611a7991906158c9565b611a839086615748565b6040516370a0823160e01b81529095506001600160a01b038316906370a0823190611ab29084906004016159fe565b602060405180830381865afa158015611acf573d6000803e3d6000fd5b505050506040513d601f19601f82011682018060405250810190611af391906158c9565b611afd9085615748565b93506000876001600160a01b031663f77c47916040518163ffffffff1660e01b8152600401602060405180830381865afa158015611b3f573d6000803e3d6000fd5b505050506040513d601f19601f82011682018060405250810190611b6391906158ac565b6001600160a01b0316632630c12f6040518163ffffffff1660e01b8152600401602060405180830381865afa158015611ba0573d6000803e3d6000fd5b505050506040513d601f19601f82011682018060405250810190611bc491906158ac565b90506000816001600160a01b031663b3596f07866040518263ffffffff1660e01b8152600401611bf491906159fe565b602060405180830381865afa158015611c11573d6000803e3d6000fd5b505050506040513d601f19601f82011682018060405250810190611c3591906158c9565b90506000826001600160a01b031663b3596f07866040518263ffffffff1660e01b8152600401611c6591906159fe565b602060405180830381865afa158015611c82573d6000803e3d6000fd5b505050506040513d601f19601f82011682018060405250810190611ca691906158c9565b90506000670de0b6b3a7640000611cbd848b615707565b611cc79190615734565b90506000670de0b6b3a7640000611cde848b615707565b611ce89190615734565b90506064821180611cf95750606481115b9a50505050505050505050505b92915050565b600080846001600160a01b031663f77c47916040518163ffffffff1660e01b8152600401602060405180830381865afa158015611d4d573d6000803e3d6000fd5b505050506040513d601f19601f82011682018060405250810190611d7191906158ac565b6001600160a01b0316632630c12f6040518163ffffffff1660e01b8152600401602060405180830381865afa158015611dae573d6000803e3d6000fd5b505050506040513d601f19601f82011682018060405250810190611dd291906158ac565b90506000816001600160a01b031663b3596f07866040518263ffffffff1660e01b8152600401611e0291906159fe565b602060405180830381865afa158015611e1f573d6000803e3d6000fd5b505050506040513d601f19601f82011682018060405250810190611e4391906158c9565b90506000826001600160a01b031663b3596f07866040518263ffffffff1660e01b8152600401611e7391906159fe565b602060405180830381865afa158015611e90573d6000803e3d6000fd5b505050506040513d601f19601f82011682018060405250810190611eb491906158c9565b905081611ec982670de0b6b3a7640000615707565b611ed39190615734565b93505050505b9392505050565b60408051600280825260608281019093526000918291816020016020820280368337019050509250600086600181518110611f1d57611f1d61566f565b602002602001015111156121a4578315611fa45785600181518110611f4457611f4461566f565b602002602001015186600081518110611f5f57611f5f61566f565b602002602001015187600081518110611f7a57611f7a61566f565b6020026020010188600181518110611f9457611f9461566f565b6020908102919091010191909152525b600073ED9f3C81e82D4530CF716DdD2C5ED54F1cBEE8066317c22c3c8b8b8b8b600081518110611fd657611fd661566f565b60200260200101518c600181518110611ff157611ff161566f565b60200260200101516040518663ffffffff1660e01b8152600401612019959493929190615a12565b606060405180830381865af4158015612036573d6000803e3d6000fd5b505050506040513d601f19601f8201168201806040525081019061205a9190615a46565b8660008151811061206d5761206d61566f565b60200260200101876001815181106120875761208761566f565b6020908102919091010192909252919052604051633c8a7d8d60e01b81529091506001600160a01b038b1690633c8a7d8d906120cd9030908d908d908790600401615a74565b60408051808303816000875af11580156120eb573d6000803e3d6000fd5b505050506040513d601f19601f8201168201806040525081019061210f919061564b565b50506001600160801b03811692506121278187615ab6565b915084156121a257836001815181106121425761214261566f565b60200260200101518460008151811061215d5761215d61566f565b6020026020010151856000815181106121785761217861566f565b60200260200101866001815181106121925761219261566f565b6020908102919091010191909152525b505b96509650969350505050565b600982018190556040518181527fdf3e0a21768880619b1295cb9519494a0df71943ebb4ff056f72186cfcfb6d479060200160405180910390a15050565b60408051808201909152601181527054532d31207a65726f206164647265737360781b60208201526001600160a01b03851661223d5760405162461bcd60e51b81526004016104ec91906153a0565b506002870180546001600160a01b0319166001600160a01b03861617905560038701805468ffffff0000000000001916600160301b62ffffff851602179055612289878585858561436d565b6000866001600160a01b0316634046ebae6040518163ffffffff1660e01b8152600401602060405180830381865afa1580156122c9573d6000803e3d6000fd5b505050506040513d601f19601f820116820180604052508101906122ed91906158ac565b885460405163095ea7b360e01b81526001600160a01b038084166004830152600019602483015292935091169063095ea7b3906044016020604051808303816000875af1158015612342573d6000803e3d6000fd5b505050506040513d601f19601f820116820180604052508101906123669190615ad6565b50600188015460405163095ea7b360e01b81526001600160a01b03838116600483015260001960248301529091169063095ea7b3906044016020604051808303816000875af11580156123bd573d6000803e3d6000fd5b505050506040513d601f19601f820116820180604052508101906123e19190615ad6565b506002808901546123fd91600160a01b909104900b6004615af3565b60028981015491810b9161242391600160c81b8204810b91600160e01b9004900b61597a565b60028a8101805460ff60b81b1981169390920b9390931215600160b81b0291821790925561245e916001600160a01b0390811691161761182c565b156124e65760028801805460ff60c01b1916600160c01b1790556611c37937e08000600989018190556040517fdf3e0a21768880619b1295cb9519494a0df71943ebb4ff056f72186cfcfb6d47916124b99190815260200190565b60405180910390a1875460018901546124e09188916001600160a01b039182169116611d0c565b600a8901555b5050505050505050565b60405163a1d4398960e01b81526001600160a01b0385166004820152600284810b602483015283900b6044820152811515606482015260609073863389Abb21FA2C60a42a0cF8Ca753438F6AAC1c9063a1d4398990608401600060405180830381865af4158015612565573d6000803e3d6000fd5b505050506040513d6000823e601f3d908101601f1916820160405261258d9190810190615b43565b95945050505050565b604080516000808252602082019092526002880154909190600160b81b900460ff16156125ff5760405162461bcd60e51b815260206004820152601760248201527627b7363c903337b91039bbb0b81039ba3930ba32b3bc9760491b60448201526064016104ec565b60006040518061020001604052808a600201601c9054906101000a900460020b60020b81526020018a60020160199054906101000a900460020b60020b81526020018a60020160149054906101000a900460020b60020b81526020018a60020160009054906101000a90046001600160a01b03166001600160a01b031681526020018a60000160009054906101000a90046001600160a01b03166001600160a01b031681526020018a60010160009054906101000a90046001600160a01b03166001600160a01b031681526020018a600a015481526020018a6009015481526020018a60030160099054906101000a900460ff161515815260200160008152602001600060020b8152602001600060020b81526020018a60020160179054906101000a900460ff16151581526020018a60020160189054906101000a900460ff161515815260200160008152602001600081525090506127958960080160009054906101000a900460ff1682606001518360200151846000015185604001518e60030160069054906101000a900460020b61189f565b60405180604001604052806019815260200178154cd4cb4e48139bc81c9958985b185b98d9481b9959591959603a1b815250906127e55760405162461bcd60e51b81526004016104ec91906153a0565b506127f98882608001518360a00151611d0c565b6101c08201526101a0810151801561282457506128248160c00151826101c001518360e0015161431f565b156128ef5760088901805460ff191660011790556040517fb224dccea3c30282a142bed3cedb7af1657907dea7dc2828fb9ce06007f3159490600090a173863389Abb21FA2C60a42a0cF8Ca753438F6AAC1c6319ee6a3a8983608001518460a00151612893866060015161434d565b8b8b8e8c6040518963ffffffff1660e01b81526004016128ba989796959493929190615bc9565b60006040518083038186803b1580156128d257600080fd5b505af41580156128e6573d6000803e3d6000fd5b50505050612b88565b73863389Abb21FA2C60a42a0cF8Ca753438F6AAC1c63f6cc5c2c898b612918856060015161434d565b8a8a8d8b6040518863ffffffff1660e01b815260040161293e9796959493929190615c29565b60006040518083038186803b15801561295657600080fd5b505af415801561296a573d6000803e3d6000fd5b5060029250612977915050565b6040519080825280602002602001820160405280156129a0578160200160208202803683370190505b5092506129b08160800151614258565b836000815181106129c3576129c361566f565b6020026020010181815250506129dc8160a00151614258565b836001815181106129ef576129ef61566f565b602090810291909101015260408051600280825260608201909252600091816020016020820280368337019050509050816080015181600081518110612a3757612a3761566f565b60200260200101906001600160a01b031690816001600160a01b0316815250508160a0015181600181518110612a6f57612a6f61566f565b6001600160a01b0392909216602092830291909101820152604080516002808252606082018352600093919290918301908036833701905050905084600081518110612abd57612abd61566f565b602002602001015181600081518110612ad857612ad861566f565b60200260200101818152505073962Fd398B1bF4e871c7424f5a6097e9E8F35Cb3963c9bce690838360008e6040518563ffffffff1660e01b8152600401612b2294939291906158fb565b602060405180830381865af4158015612b3f573d6000803e3d6000fd5b505050506040513d601f19601f82011682018060405250810190612b6391906158c9565b6101e08401819052891115612b85576101e0830151612b82908a615942565b93505b50505b806101a0015115612b9f576101c0810151600a8a01555b8115612c0757604051630855081f60e01b815260006004820152602481018390526001600160a01b03851690630855081f90604401600060405180830381600087803b158015612bee57600080fd5b505af1158015612c02573d6000803e3d6000fd5b505050505b6040518281527fc306af072396b02bf3a9782c10065cc7ff4aa842934a43f0b76f997b291237c89060200160405180910390a150509695505050505050565b600b8101546002808301546003840154604080518481526060808201835295869586956001600160a01b039283169592811694600160c81b8204830b94600160e01b909204830b9380840b936301000000909104810b929160208301908036833750508b548251929b506001600160a01b0316918b9150600090612ccc57612ccc61566f565b6001600160a01b0392831660209182029290920101526001808c01548b519216918b91908110612cfe57612cfe61566f565b6001600160a01b039290921660209283029190910182015260408051600280825260608201835290929091908301908036833701905050965060005b8951811015612df857898181518110612d5557612d5561566f565b60200260200101516001600160a01b03166370a08231306040518263ffffffff1660e01b8152600401612d8891906159fe565b602060405180830381865afa158015612da5573d6000803e3d6000fd5b505050506040513d601f19601f82011682018060405250810190612dc991906158c9565b888281518110612ddb57612ddb61566f565b602090810291909101015280612df0816158e2565b915050612d3a565b5060408051600280825260608201835290916020830190803683370190505060038b0154909850600160501b90046001600160801b031615612f7b5760405163a34123a760e01b81526001600160a01b0386169063a34123a790612e659087908790600090600401615625565b60408051808303816000875af1158015612e83573d6000803e3d6000fd5b505050506040513d601f19601f82011682018060405250810190612ea7919061564b565b50506040516309e3d67b60e31b81526001600160a01b03861690634f1eb3d890612ee4903090889088906001600160801b03908190600401615685565b60408051808303816000875af1158015612f02573d6000803e3d6000fd5b505050506040513d601f19601f82011682018060405250810190612f2691906156c2565b816001600160801b03169150806001600160801b0316905089600081518110612f5157612f5161566f565b602002602001018a600181518110612f6b57612f6b61566f565b6020908102919091010191909152525b60048a01546001600160801b0316156130f55760405163a34123a760e01b81526001600160a01b0386169063a34123a790612fbf9085908590600090600401615625565b60408051808303816000875af1158015612fdd573d6000803e3d6000fd5b505050506040513d601f19601f82011682018060405250810190613001919061564b565b5050600080866001600160a01b0316634f1eb3d83086866001600160801b03806040518663ffffffff1660e01b8152600401613041959493929190615685565b60408051808303816000875af115801561305f573d6000803e3d6000fd5b505050506040513d601f19601f8201168201806040525081019061308391906156c2565b6001600160801b031691506001600160801b03169150818a6000815181106130ad576130ad61566f565b602002602001018181516130c19190615748565b905250895181908b9060019081106130db576130db61566f565b602002602001018181516130ef9190615748565b90525050505b7fd809a30c675e811f2837e53a49b9409406bb7e6f808658eef60d09ac30579e89886000815181106131295761312961566f565b6020026020010151896001815181106131445761314461566f565b6020026020010151604051613163929190918252602082015260400190565b60405180910390a160038a0154600160481b900460ff16156131f257876001815181106131925761319261566f565b6020026020010151886000815181106131ad576131ad61566f565b6020026020010151896000815181106131c8576131c861566f565b602002602001018a6001815181106131e2576131e261566f565b6020908102919091010191909152525b60005b89518110156133625760008a82815181106132125761321261566f565b60200260200101516001600160a01b03166370a08231896040518263ffffffff1660e01b815260040161324591906159fe565b602060405180830381865afa158015613262573d6000803e3d6000fd5b505050506040513d601f19601f8201168201806040525081019061328691906158c9565b90508015613351578a82815181106132a0576132a061566f565b60209081029190910101516040516323b872dd60e01b81526001600160a01b038a8116600483015230602483015260448201849052909116906323b872dd906064016020604051808303816000875af1158015613301573d6000803e3d6000fd5b505050506040513d601f19601f820116820180604052508101906133259190615ad6565b50808a83815181106133395761333961566f565b6020026020010181815161334d9190615748565b9052505b5061335b816158e2565b90506131f5565b505050505050509193909250565b604080516002808252606080830184529260208301908036833701905050905060008a6001600160a01b0316633850c7bd6040518163ffffffff1660e01b815260040160e060405180830381865afa1580156133d0573d6000803e3d6000fd5b505050506040513d601f19601f820116820180604052508101906133f491906157a5565b5050604051630544f36560e31b815294955073ED9f3C81e82D4530CF716DdD2C5ED54F1cBEE80694632a279b28945061343a93508692508f91508e908a90600401615824565b6040805180830381865af4158015613456573d6000803e3d6000fd5b505050506040513d601f19601f8201168201806040525081019061347a919061564b565b8360008151811061348d5761348d61566f565b60200260200101846001815181106134a7576134a761566f565b6020908102919091010191909152526001600160801b038616158015906134d757506000856001600160801b0316115b156135ed5760008073ED9f3C81e82D4530CF716DdD2C5ED54F1cBEE806632a279b28848c8c8c6001600160801b03168b6001600160801b03168d6001600160801b03166135249190615707565b61352e9190615734565b6040518563ffffffff1660e01b815260040161354d9493929190615824565b6040805180830381865af4158015613569573d6000803e3d6000fd5b505050506040513d601f19601f8201168201806040525081019061358d919061564b565b9150915081846000815181106135a5576135a561566f565b602002602001018181516135b99190615748565b90525083518190859060019081106135d3576135d361566f565b602002602001018181516135e79190615748565b90525050505b821561366657816001815181106136065761360661566f565b6020026020010151826000815181106136215761362161566f565b60200260200101518360008151811061363c5761363c61566f565b60200260200101846001815181106136565761365661566f565b6020908102919091010191909152525b509998505050505050505050565b8054604080516395d89b4160e01b815290516060926001600160a01b0316916395d89b419160048083019260009291908290030181865afa1580156136bd573d6000803e3d6000fd5b505050506040513d6000823e601f3d908101601f191682016040526136e59190810190615b43565b8260010160009054906101000a90046001600160a01b03166001600160a01b03166395d89b416040518163ffffffff1660e01b8152600401600060405180830381865afa15801561373a573d6000803e3d6000fd5b505050506040513d6000823e601f3d908101601f191682016040526137629190810190615b43565b60028401546040805163ddca3f4360e01b815290516137dd926001600160a01b03169163ddca3f439160048083019260209291908290030181865afa1580156137af573d6000803e3d6000fd5b505050506040513d601f19601f820116820180604052508101906137d39190615955565b62ffffff166149ff565b6040516020016137ef93929190615c78565b6040516020818303038152906040529050919050565b60028082015460408051630dfe168160e01b81529051600093849384936001600160a01b03821693600160c81b8304840b93600160e01b8404810b93600160a01b9004900b9186916138a7918791630dfe1681916004808201926020929091908290030181865afa15801561387e573d6000803e3d6000fd5b505050506040513d601f19601f820116820180604052508101906138a291906158ac565b614258565b905060006138ec866001600160a01b031663d21220a76040518163ffffffff1660e01b8152600401602060405180830381865afa15801561387e573d6000803e3d6000fd5b905060008211806138fd5750600081115b15613dd4576000866001600160a01b0316633850c7bd6040518163ffffffff1660e01b815260040160e060405180830381865afa158015613942573d6000803e3d6000fd5b505050506040513d601f19601f8201168201806040525081019061396691906157a5565b5050505050915050866001600160a01b031663d21220a76040518163ffffffff1660e01b8152600401602060405180830381865afa1580156139ac573d6000803e3d6000fd5b505050506040513d601f19601f820116820180604052508101906139d091906158ac565b6001600160a01b031663313ce5676040518163ffffffff1660e01b8152600401602060405180830381865afa158015613a0d573d6000803e3d6000fd5b505050506040513d601f19601f82011682018060405250810190613a319190615ce9565b613a3c90600a615de8565b73ED9f3C81e82D4530CF716DdD2C5ED54F1cBEE80663ac41865a898a6001600160a01b031663d21220a76040518163ffffffff1660e01b8152600401602060405180830381865afa158015613a95573d6000803e3d6000fd5b505050506040513d601f19601f82011682018060405250810190613ab991906158ac565b6040516001600160e01b031960e085901b1681526001600160a01b03928316600482015291166024820152604401602060405180830381865af4158015613b04573d6000803e3d6000fd5b505050506040513d601f19601f82011682018060405250810190613b2891906158c9565b613b329084615707565b613b3c9190615734565b831115613c69578380613b4f818461599f565b613b599190615af3565b613b6391906159d9565b995084985073ED9f3C81e82D4530CF716DdD2C5ED54F1cBEE8066317c22c3c888c8c8760006040518663ffffffff1660e01b8152600401613ba8959493929190615a12565b606060405180830381865af4158015613bc5573d6000803e3d6000fd5b505050506040513d601f19601f82011682018060405250810190613be99190615a46565b604051633c8a7d8d60e01b8152909a506001600160a01b038a169250633c8a7d8d9150613c209030908e908e908e90600401615a74565b60408051808303816000875af1158015613c3e573d6000803e3d6000fd5b505050506040513d601f19601f82011682018060405250810190613c62919061564b565b5050613d8e565b85995083848583613c7a919061599f565b613c849190615af3565b613c8e919061597a565b6040516305f08b0f60e21b815290995073ED9f3C81e82D4530CF716DdD2C5ED54F1cBEE806906317c22c3c90613cd1908a908e908e906000908990600401615a12565b606060405180830381865af4158015613cee573d6000803e3d6000fd5b505050506040513d601f19601f82011682018060405250810190613d129190615a46565b604051633c8a7d8d60e01b8152909a506001600160a01b038a169250633c8a7d8d9150613d499030908e908e908e90600401615a74565b60408051808303816000875af1158015613d67573d6000803e3d6000fd5b505050506040513d601f19601f82011682018060405250810190613d8b919061564b565b50505b5060038a01805462ffffff8a811663010000000265ffffffffffff19909216908c161717905560048a0180546001600160801b0389166001600160801b03199091161790555b50505050505050505050565b815460018301546040516303e6ee5360e31b81526001600160a01b0380851660048301529283166024820152911660448201526000908190819073863389Abb21FA2C60a42a0cF8Ca753438F6AAC1c90631f37729890606401602060405180830381865af4158015613e56573d6000803e3d6000fd5b505050506040513d601f19601f82011682018060405250810190613e7a91906158c9565b6002860154909150600160b81b900460ff1680613ee5575060088501546002808701546003880154613ee39360ff16926001600160a01b03831692600160c81b8104820b92600160e01b8204830b92600160a01b909204820b91600160301b909104900b61189f565b155b80613f7e57506001850154604051638c56287960e01b8152600481018390526001600160a01b038087166024830152909116604482015273863389Abb21FA2C60a42a0cF8Ca753438F6AAC1c90638c56287990606401602060405180830381865af4158015613f58573d6000803e3d6000fd5b505050506040513d601f19601f82011682018060405250810190613f7c9190615ad6565b155b15613f90576000809250925050614251565b60028086015460038701546004880154600093613ffc936001600160a01b03811693600160c81b8204830b93600160e01b909204830b9281810b926301000000830490910b916001600160801b03600160501b82048116921690829060ff600160481b90910416613370565b6003870154909150600160481b900460ff161561408657806001815181106140265761402661566f565b6020026020010151816000815181106140415761404161566f565b60200260200101518260008151811061405c5761405c61566f565b60200260200101836001815181106140765761407661566f565b6020908102919091010191909152525b818160018151811061409a5761409a61566f565b602002602001015110156142225760028601546001870154604051635620c32d60e11b81526001600160a01b0392831660048201529116602482015260009073ED9f3C81e82D4530CF716DdD2C5ED54F1cBEE8069063ac41865a90604401602060405180830381865af4158015614115573d6000803e3d6000fd5b505050506040513d601f19601f8201168201806040525081019061413991906158c9565b905060008760010160009054906101000a90046001600160a01b03166001600160a01b031663313ce5676040518163ffffffff1660e01b8152600401602060405180830381865afa158015614192573d6000803e3d6000fd5b505050506040513d601f19601f820116820180604052508101906141b69190615ce9565b6141c190600a615de8565b836001815181106141d4576141d461566f565b6020026020010151856141e79190615942565b6141f19084615707565b6141fb9190615734565b9050614208606482615734565b6142129082615748565b6001965094506142519350505050565b600082826001815181106142385761423861566f565b602002602001015161424a9190615942565b9350935050505b9250929050565b6040516370a0823160e01b81526000906001600160a01b038316906370a08231906142879030906004016159fe565b602060405180830381865afa1580156142a4573d6000803e3d6000fd5b505050506040513d601f19601f82011682018060405250810190611d0691906158c9565b604080516001600160a01b038416602482015260448082018490528251808303909101815260649091019091526020810180516001600160e01b031663a9059cbb60e01b17905261431a908490614b00565b505050565b600082841161433957816143338585615942565b11610fe4565b816143448486615942565b11949350505050565b60006143588261182c565b614364576101f4611d06565b61012c92915050565b600073ED9f3C81e82D4530CF716DdD2C5ED54F1cBEE80663ea866815866001600160a01b031663ddca3f436040518163ffffffff1660e01b8152600401602060405180830381865afa1580156143c7573d6000803e3d6000fd5b505050506040513d601f19601f820116820180604052508101906143eb9190615955565b6040516001600160e01b031960e084901b16815262ffffff9091166004820152602401602060405180830381865af415801561442b573d6000803e3d6000fd5b505050506040513d601f19601f8201168201806040525081019061444f9190615df7565b90508360020b6000146145245780614467818661599f565b6144719190615af3565b60020b8460020b146040518060400160405280601981526020017f5533532d3320496e636f7272656374207469636b52616e676500000000000000815250906144cd5760405162461bcd60e51b81526004016104ec91906153a0565b50806144d9818561599f565b6144e39190615af3565b60020b8360020b14604051806060016040528060228152602001615e7460229139906145225760405162461bcd60e51b81526004016104ec91906153a0565b505b6002868101805462ffffff60a01b1916600160a01b62ffffff85160217905560405163369eb6fb60e21b81526001600160a01b038716600482015285820b60248201529082900b604482015273863389Abb21FA2C60a42a0cF8Ca753438F6AAC1c9063da7adbec906064016040805180830381865af41580156145ab573d6000803e3d6000fd5b505050506040513d601f19601f820116820180604052508101906145cf9190615e14565b60028801805465ffffffffffff60c81b1916600160e01b62ffffff9384160262ffffff60c81b191617600160c81b939092169290920217905560408051630dfe168160e01b815290516001600160a01b03871691630dfe16819160048083019260209291908290030181865afa15801561464d573d6000803e3d6000fd5b505050506040513d601f19601f8201168201806040525081019061467191906158ac565b6001600160a01b0316826001600160a01b031614806147025750846001600160a01b031663d21220a76040518163ffffffff1660e01b8152600401602060405180830381865afa1580156146c9573d6000803e3d6000fd5b505050506040513d601f19601f820116820180604052508101906146ed91906158ac565b6001600160a01b0316826001600160a01b0316145b60405180604001604052806015815260200174154cd4cb4d48125b98dbdc9c9958dd08185cdcd95d605a1b8152509061474e5760405162461bcd60e51b81526004016104ec91906153a0565b50846001600160a01b0316630dfe16816040518163ffffffff1660e01b8152600401602060405180830381865afa15801561478d573d6000803e3d6000fd5b505050506040513d601f19601f820116820180604052508101906147b191906158ac565b6001600160a01b0316826001600160a01b0316036148de57846001600160a01b0316630dfe16816040518163ffffffff1660e01b8152600401602060405180830381865afa158015614807573d6000803e3d6000fd5b505050506040513d601f19601f8201168201806040525081019061482b91906158ac565b86546001600160a01b0319166001600160a01b039182161787556040805163d21220a760e01b815290519187169163d21220a7916004808201926020929091908290030181865afa158015614884573d6000803e3d6000fd5b505050506040513d601f19601f820116820180604052508101906148a891906158ac565b6001870180546001600160a01b0319166001600160a01b039290921691909117905560038601805460ff60481b191690556149f7565b846001600160a01b031663d21220a76040518163ffffffff1660e01b8152600401602060405180830381865afa15801561491c573d6000803e3d6000fd5b505050506040513d601f19601f8201168201806040525081019061494091906158ac565b86546001600160a01b0319166001600160a01b0391821617875560408051630dfe168160e01b8152905191871691630dfe1681916004808201926020929091908290030181865afa158015614999573d6000803e3d6000fd5b505050506040513d601f19601f820116820180604052508101906149bd91906158ac565b6001870180546001600160a01b03929092166001600160a01b031990921691909117905560038601805460ff60481b1916600160481b1790555b505050505050565b606081600003614a265750506040805180820190915260018152600360fc1b602082015290565b8160005b8115614a505780614a3a816158e2565b9150614a499050600a83615734565b9150614a2a565b60008167ffffffffffffffff811115614a6b57614a6b614dc9565b6040519080825280601f01601f191660200182016040528015614a95576020820181803683370190505b5090505b8415610fe457614aaa600183615942565b9150614ab7600a86615e43565b614ac2906030615748565b60f81b818381518110614ad757614ad761566f565b60200101906001600160f81b031916908160001a905350614af9600a86615734565b9450614a99565b6000614b55826040518060400160405280602081526020017f5361666545524332303a206c6f772d6c6576656c2063616c6c206661696c6564815250856001600160a01b0316614bd29092919063ffffffff16565b80519091501561431a5780806020019051810190614b739190615ad6565b61431a5760405162461bcd60e51b815260206004820152602a60248201527f5361666545524332303a204552433230206f7065726174696f6e20646964206e6044820152691bdd081cdd58d8d9595960b21b60648201526084016104ec565b6060610fe4848460008585600080866001600160a01b03168587604051614bf99190615e57565b60006040518083038185875af1925050503d8060008114614c36576040519150601f19603f3d011682016040523d82523d6000602084013e614c3b565b606091505b5091509150614c4c87838387614c57565b979650505050505050565b60608315614cc6578251600003614cbf576001600160a01b0385163b614cbf5760405162461bcd60e51b815260206004820152601d60248201527f416464726573733a2063616c6c20746f206e6f6e2d636f6e747261637400000060448201526064016104ec565b5081610fe4565b610fe48383815115614cdb5781518083602001fd5b8060405162461bcd60e51b81526004016104ec91906153a0565b6001600160801b0381168114614d0a57600080fd5b50565b60008060408385031215614d2057600080fd5b823591506020830135614d3281614cf5565b809150509250929050565b600081518084526020808501945080840160005b83811015614d6d57815187529582019590820190600101614d51565b509495945050505050565b602081526000611ed96020830184614d3d565b600060208284031215614d9d57600080fd5b5035919050565b6001600160a01b0381168114614d0a57600080fd5b8035614dc481614da4565b919050565b634e487b7160e01b600052604160045260246000fd5b6040516080810167ffffffffffffffff81118282101715614e0257614e02614dc9565b60405290565b604051601f8201601f1916810167ffffffffffffffff81118282101715614e3157614e31614dc9565b604052919050565b600067ffffffffffffffff821115614e5357614e53614dc9565b5060051b60200190565b600082601f830112614e6e57600080fd5b81356020614e83614e7e83614e39565b614e08565b82815260059290921b84018101918181019086841115614ea257600080fd5b8286015b84811015614ebd5780358352918301918301614ea6565b509695505050505050565b60008060008060808587031215614ede57600080fd5b8435614ee981614da4565b9350602085810135614efa81614da4565b9350604086013567ffffffffffffffff80821115614f1757600080fd5b818801915088601f830112614f2b57600080fd5b8135614f39614e7e82614e39565b81815260059190911b8301840190848101908b831115614f5857600080fd5b938501935b82851015614f7f578435614f7081614da4565b82529385019390850190614f5d565b965050506060880135925080831115614f9757600080fd5b5050614fa587828801614e5d565b91505092959194509250565b600080600060608486031215614fc657600080fd5b505081359360208301359350604090920135919050565b60008060408385031215614ff057600080fd5b823591506020830135614d3281614da4565b60008060008060008060c0878903121561501b57600080fd5b86359550602087013561502d81614da4565b9450604087013561503d81614da4565b9350606087013592506080870135915060a087013561505b81614da4565b809150509295509295509295565b60408152600061507c6040830185614d3d565b905082151560208301529392505050565b60006020828403121561509f57600080fd5b8135611ed981614da4565b8015158114614d0a57600080fd5b8060020b8114614d0a57600080fd5b60008060008060008060c087890312156150e057600080fd5b86356150eb816150aa565b955060208701356150fb81614da4565b9450604087013561510b816150b8565b9350606087013561511b816150b8565b9250608087013561512b816150b8565b915060a087013561505b816150b8565b60008060006060848603121561515057600080fd5b833561515b81614da4565b9250602084013561516b81614da4565b9150604084013561517b81614da4565b809150509250925092565b60008060008060008060c0878903121561519f57600080fd5b86356151aa81614da4565b955060208701356151ba816150b8565b945060408701356151ca816150b8565b9350606087013567ffffffffffffffff8111156151e657600080fd5b6151f289828a01614e5d565b935050608087013561520381614cf5565b915060a087013561505b816150aa565b6060815260006152266060830186614d3d565b90508360208301526001600160801b0383166040830152949350505050565b6000806040838503121561525857600080fd5b50508035926020909101359150565b600080600080600080600060e0888a03121561528257600080fd5b87359650602088013561529481614da4565b955060408801356152a481614da4565b945060608801356152b481614da4565b935060808801356152c4816150b8565b925060a08801356152d4816150b8565b915060c08801356152e481614da4565b8091505092959891949750929550565b6000806000806080858703121561530a57600080fd5b843561531581614da4565b93506020850135615325816150b8565b92506040850135615335816150b8565b91506060850135615345816150aa565b939692955090935050565b60005b8381101561536b578181015183820152602001615353565b50506000910152565b6000815180845261538c816020860160208601615350565b601f01601f19169290920160200192915050565b602081526000611ed96020830184615374565b600067ffffffffffffffff8211156153cd576153cd614dc9565b50601f01601f191660200190565b60008060008060008060c087890312156153f457600080fd5b8635955060208088013561540781614da4565b955060408801359450606088013567ffffffffffffffff8082111561542b57600080fd5b908901906080828c03121561543f57600080fd5b615447614ddf565b8235615452816150aa565b81528284013584820152604083013561546a81614da4565b604082015260608301358281111561548157600080fd5b8084019350508b601f84011261549657600080fd5b823591506154a6614e7e836153b3565b8281528c858486010111156154ba57600080fd5b828585018683013760008584830101528060608301525080965050505050608087013591506154eb60a08801614db9565b90509295509295509295565b600081518084526020808501945080840160005b83811015614d6d5781516001600160a01b03168752958201959082019060010161550b565b60608152600061554360608301866154f7565b82810360208401526155558186614d3d565b905082810360408401526119c28185614d3d565b60008060008060008060008060006101208a8c03121561558857600080fd5b893561559381614da4565b985060208a01356155a3816150b8565b975060408a01356155b3816150b8565b965060608a01356155c3816150b8565b955060808a01356155d3816150b8565b945060a08a01356155e381614cf5565b935060c08a01356155f381614cf5565b925060e08a013561560381614cf5565b91506101008a0135615614816150aa565b809150509295985092959850929598565b600293840b81529190920b60208201526001600160801b03909116604082015260600190565b6000806040838503121561565e57600080fd5b505080516020909101519092909150565b634e487b7160e01b600052603260045260246000fd5b6001600160a01b03959095168552600293840b60208601529190920b60408401526001600160801b03918216606084015216608082015260a00190565b600080604083850312156156d557600080fd5b82516156e081614cf5565b6020840151909250614d3281614cf5565b634e487b7160e01b600052601160045260246000fd5b8082028115828204841417611d0657611d066156f1565b634e487b7160e01b600052601260045260246000fd5b6000826157435761574361571e565b500490565b80820180821115611d0657611d066156f1565b6001600160801b0382811682821603908082111561577b5761577b6156f1565b5092915050565b805161ffff81168114614dc457600080fd5b805160ff81168114614dc457600080fd5b600080600080600080600060e0888a0312156157c057600080fd5b87516157cb81614da4565b60208901519097506157dc816150b8565b95506157ea60408901615782565b94506157f860608901615782565b935061580660808901615782565b925061581460a08901615794565b915060c08801516152e4816150aa565b6001600160a01b03949094168452600292830b6020850152910b60408301526001600160801b0316606082015260800190565b600060a08201905060018060a01b03808451168352602084015160020b6020840152604084015160020b60408401526001600160801b0360608501511660608401528060808501511660808401525092915050565b6000602082840312156158be57600080fd5b8151611ed981614da4565b6000602082840312156158db57600080fd5b5051919050565b6000600182016158f4576158f46156f1565b5060010190565b60808152600061590e60808301876154f7565b82810360208401526159208187614d3d565b604084019590955250506001600160a01b039190911660609091015292915050565b81810381811115611d0657611d066156f1565b60006020828403121561596757600080fd5b815162ffffff81168114611ed957600080fd5b600282810b9082900b03627fffff198112627fffff82131715611d0657611d066156f1565b60008160020b8360020b806159b6576159b661571e565b627fffff198214600019821416156159d0576159d06156f1565b90059392505050565b600281810b9083900b01627fffff8113627fffff1982121715611d0657611d066156f1565b6001600160a01b0391909116815260200190565b6001600160a01b03959095168552600293840b60208601529190920b60408401526060830191909152608082015260a00190565b600080600060608486031215615a5b57600080fd5b8351925060208401519150604084015161517b81614cf5565b6001600160a01b03949094168452600292830b6020850152910b60408301526001600160801b0316606082015260a06080820181905260009082015260c00190565b6001600160801b0381811683821601908082111561577b5761577b6156f1565b600060208284031215615ae857600080fd5b8151611ed9816150aa565b60008260020b8260020b028060020b915080821461577b5761577b6156f1565b6000615b21614e7e846153b3565b9050828152838383011115615b3557600080fd5b611ed9836020830184615350565b600060208284031215615b5557600080fd5b815167ffffffffffffffff811115615b6c57600080fd5b8201601f81018413615b7d57600080fd5b610fe484825160208401615b13565b8051151582526020810151602083015260018060a01b0360408201511660408301526000606082015160806060850152610fe46080850182615374565b6001600160a01b038981168252888116602083015287811660408301526060820187905261010060808301819052600091615c0684830189615b8c565b60a085019790975260c08401959095525050911660e09091015295945050505050565b600060018060a01b03808a16835288602084015287604084015260e06060840152615c5760e0840188615b8c565b608084019690965260a083019490945250911660c090910152949350505050565b6502ab734ab19960d51b815260008451615c99816006850160208901615350565b602f60f81b6006918401918201528451615cba816007840160208901615350565b602d60f81b600792909101918201528351615cdc816008840160208801615350565b0160080195945050505050565b600060208284031215615cfb57600080fd5b611ed982615794565b600181815b80851115615d3f578160001904821115615d2557615d256156f1565b80851615615d3257918102915b93841c9390800290615d09565b509250929050565b600082615d5657506001611d06565b81615d6357506000611d06565b8160018114615d795760028114615d8357615d9f565b6001915050611d06565b60ff841115615d9457615d946156f1565b50506001821b611d06565b5060208310610133831016604e8410600b8410161715615dc2575081810a611d06565b615dcc8383615d04565b8060001904821115615de057615de06156f1565b029392505050565b6000611ed960ff841683615d47565b600060208284031215615e0957600080fd5b8151611ed9816150b8565b60008060408385031215615e2757600080fd5b8251615e32816150b8565b6020840151909250614d32816150b8565b600082615e5257615e5261571e565b500690565b60008251615e69818460208701615350565b919091019291505056fe5533532d3420496e636f727265637420726562616c616e63655469636b52616e67655533532d3133205a65726f2073747261746567792070726f66697420686f6c646572a26469706673582212203030b2acc75ed2dbf9a1b1fe75b5e0e4a403871ff96eef56930c6f19f8da988c64736f6c63430008110033",
  "deployedBytecode": "0x73000000000000000000000000000000000000000030146080604052600436106101575760003560e01c80637fd6c0a1116100cd578063c68bb8f211610086578063c68bb8f21461037c578063c68bc703146103ab578063ce74e5d9146103be578063d6f43ad8146103cc578063ec4955b9146103df578063ef3475ac146103ff57600080fd5b80637fd6c0a1146102ba57806380089367146102cd57806388f3bd5e146102fc578063928f84931461031c578063a1d439891461033c578063c06474231461035c57600080fd5b806336bddd651161011f57806336bddd651461020157806337eb91fc1461022357806343478f171461024357806354747e5b1461027157806357d59aae146102945780635ca1bcdf146102a757600080fd5b806302c8fd911461015c5780630a65e5e714610192578063190fa314146101a5578063345aec36146101cd57806334d2ec3d146101e0575b600080fd5b81801561016857600080fd5b5061017c610177366004614d0d565b610436565b6040516101899190614d78565b60405180910390f35b61017c6101a0366004614d8b565b610913565b6101b86101b3366004614d8b565b610c28565b60408051928352602083019190915201610189565b6101b86101db366004614d8b565b610c62565b6101f36101ee366004614ec8565b610e2a565b604051908152602001610189565b81801561020d57600080fd5b5061022161021c366004614fb1565b610fec565b005b81801561022f57600080fd5b5061022161023e366004614fdd565b6110ef565b81801561024f57600080fd5b5061026361025e366004615002565b61114c565b604051610189929190615069565b61028461027f36600461508d565b61182c565b6040519015158152602001610189565b6102846102a23660046150c7565b61189f565b6102846102b5366004614fdd565b6119cc565b6101f36102c836600461513b565b611d0c565b8180156102d957600080fd5b506102ed6102e8366004615186565b611ee0565b60405161018993929190615213565b81801561030857600080fd5b50610221610317366004615245565b6121b0565b81801561032857600080fd5b50610221610337366004615267565b6121ee565b61034f61034a3660046152f4565b6124f0565b60405161018991906153a0565b81801561036857600080fd5b5061017c6103773660046153db565b612596565b81801561038857600080fd5b5061039c610397366004614d8b565b612c46565b60405161018993929190615530565b61017c6103b9366004615569565b613370565b6101f36611c37937e0800081565b61034f6103da366004614d8b565b613674565b8180156103eb57600080fd5b506102216103fa366004614d8b565b613805565b81801561040b57600080fd5b5061041f61041a366004614fdd565b613de0565b604080519215158352602083019190915201610189565b600282810154600384015460048501546040805180820190915260158152745533532d372057726f6e67206c697175696469747960581b60208201526060946000946001600160a01b03811694600160c81b8204830b94600160e01b909204830b9381840b9363010000008304900b92600160501b83046001600160801b039081169391811692600160481b90920460ff1691908c168410156104f55760405162461bcd60e51b81526004016104ec91906153a0565b60405180910390fd5b506040805160028082526060820183529091602083019080368337019050509950876001600160a01b031663a34123a788888e6040518463ffffffff1660e01b815260040161054693929190615625565b60408051808303816000875af1158015610564573d6000803e3d6000fd5b505050506040513d601f19601f82011682018060405250810190610588919061564b565b8b60008151811061059b5761059b61566f565b602002602001018c6001815181106105b5576105b561566f565b6020908102919091010191909152526040516309e3d67b60e31b81526001600160a01b03891690634f1eb3d8906105ff9030908b908b906001600160801b03908190600401615685565b60408051808303816000875af115801561061d573d6000803e3d6000fd5b505050506040513d601f19601f8201168201806040525081019061064191906156c2565b50506001600160801b03821615610841576000836001600160801b03168c6001600160801b0316846001600160801b031661067c9190615707565b6106869190615734565b90506000808a6001600160a01b031663a34123a78989866040518463ffffffff1660e01b81526004016106bb93929190615625565b60408051808303816000875af11580156106d9573d6000803e3d6000fd5b505050506040513d601f19601f820116820180604052508101906106fd919061564b565b6040516309e3d67b60e31b815291935091506001600160a01b038c1690634f1eb3d89061073d9030908c908c906001600160801b03908190600401615685565b60408051808303816000875af115801561075b573d6000803e3d6000fd5b505050506040513d601f19601f8201168201806040525081019061077f91906156c2565b5050818d6000815181106107955761079561566f565b602002602001018181516107a99190615748565b9052508c5181908e9060019081106107c3576107c361566f565b602002602001018181516107d79190615748565b90525060408051808201909152601281527105533532d382057726f6e672066696c6c75760741b60208201526001600160801b0380851690871610156108305760405162461bcd60e51b81526004016104ec91906153a0565b5061083b838661575b565b9b505050505b61084b8b8461575b565b60038d018054600160501b600160d01b031916600160501b6001600160801b039384160217905560048d0180546001600160801b031916918b16919091179055801561090457896001815181106108a4576108a461566f565b60200260200101518a6000815181106108bf576108bf61566f565b60200260200101518b6000815181106108da576108da61566f565b602002602001018c6001815181106108f4576108f461566f565b6020908102919091010191909152525b50505050505050505092915050565b604080516002808252606080830184529260208301908036833701905050905060008260020160009054906101000a90046001600160a01b03166001600160a01b0316633850c7bd6040518163ffffffff1660e01b815260040160e060405180830381865afa15801561098a573d6000803e3d6000fd5b505050506040513d601f19601f820116820180604052508101906109ae91906157a5565b505050506002868101546003880154604051630544f36560e31b815295965073__$0c70757f598a889e7e5bdfcf0bf5e1f3f7$__95632a279b289550610a1e94508793600160c81b8404810b93600160e01b9004900b91600160501b90046001600160801b031690600401615824565b6040805180830381865af4158015610a3a573d6000803e3d6000fd5b505050506040513d601f19601f82011682018060405250810190610a5e919061564b565b83600081518110610a7157610a7161566f565b6020026020010184600181518110610a8b57610a8b61566f565b6020908102919091010191909152526003830154600480850154604051630544f36560e31b8152600093849373__$0c70757f598a889e7e5bdfcf0bf5e1f3f7$__93632a279b2893610afc938993600282810b946301000000909304900b926001600160801b039092169101615824565b6040805180830381865af4158015610b18573d6000803e3d6000fd5b505050506040513d601f19601f82011682018060405250810190610b3c919061564b565b915091508184600081518110610b5457610b5461566f565b60200260200101818151610b689190615748565b9052508351819085906001908110610b8257610b8261566f565b60200260200101818151610b969190615748565b9052506003850154600160481b900460ff1615610c205783600181518110610bc057610bc061566f565b602002602001015184600081518110610bdb57610bdb61566f565b602002602001015185600081518110610bf657610bf661566f565b6020026020010186600181518110610c1057610c1061566f565b6020908102919091010191909152525b505050919050565b80546000908190610c41906001600160a01b0316614258565b6001840154909250610c5b906001600160a01b0316614258565b9050915091565b6040805160a0810182526002838101546001600160a01b0381168352600160c81b8104820b6020840152600160e01b9004900b818301526003830154600160501b90046001600160801b0316606082015230608082015290516352bb7e6960e01b8152600091829173__$0c70757f598a889e7e5bdfcf0bf5e1f3f7$__906352bb7e6990610cf4908490600401615857565b6040805180830381865af4158015610d10573d6000803e3d6000fd5b505050506040513d601f19601f82011682018060405250810190610d34919061564b565b6040805160a0810182526002808901546001600160a01b03168252600389015480820b602084015263010000009004900b818301526004808901546001600160801b0316606083015230608083015291516352bb7e6960e01b81529396509194509091600091829173__$0c70757f598a889e7e5bdfcf0bf5e1f3f7$__916352bb7e6991610dc491879101615857565b6040805180830381865af4158015610de0573d6000803e3d6000fd5b505050506040513d601f19601f82011682018060405250810190610e04919061564b565b9092509050610e138287615748565b9550610e1f8186615748565b945050505050915091565b600080846001600160a01b0316634046ebae6040518163ffffffff1660e01b8152600401602060405180830381865afa158015610e6b573d6000803e3d6000fd5b505050506040513d601f19601f82011682018060405250810190610e8f91906158ac565b84519091506000805b82811015610fde576000878281518110610eb457610eb461566f565b60200260200101519050896001600160a01b0316816001600160a01b031603610f0357868281518110610ee957610ee961566f565b602002602001015183610efc9190615748565b9250610fcd565b846001600160a01b031663a9dd14d6898481518110610f2457610f2461566f565b60200260200101518c8a8681518110610f3f57610f3f61566f565b60209081029190910101516040516001600160e01b031960e086901b1681526001600160a01b0393841660048201529290911660248301526044820152606401602060405180830381865afa158015610f9c573d6000803e3d6000fd5b505050506040513d601f19601f82011682018060405250810190610fc091906158c9565b610fca9084615748565b92505b50610fd7816158e2565b9050610e98565b50925050505b949350505050565b600b830154604080516060810190915260228082526001600160a01b03909216918215159190615e966020830139906110385760405162461bcd60e51b81526004016104ec91906153a0565b506003840154600160481b900460ff1615611081578354611063906001600160a01b031682846142c8565b600184015461107c906001600160a01b031682856142c8565b6110b0565b8354611097906001600160a01b031682856142c8565b60018401546110b0906001600160a01b031682846142c8565b60408051848152602081018490527fd809a30c675e811f2837e53a49b9409406bb7e6f808658eef60d09ac30579e89910160405180910390a150505050565b60088201805460ff191690558154600183015461111a9183916001600160a01b039182169116611d0c565b600a8301556040517f6b7ccec41cff3829e74e9b70bba25fca03418511799dd79dc80d774f15f35e1b90600090a15050565b6040805160008082526020820190925260609190819092506000915060006040518061020001604052808b600201601c9054906101000a900460020b60020b81526020018b60020160199054906101000a900460020b60020b81526020018b60020160149054906101000a900460020b60020b81526020018b60020160009054906101000a90046001600160a01b03166001600160a01b031681526020018b60000160009054906101000a90046001600160a01b03166001600160a01b031681526020018b60010160009054906101000a90046001600160a01b03166001600160a01b031681526020018b600a015481526020018b6009015481526020018b60030160099054906101000a900460ff161515815260200160008152602001600060020b8152602001600060020b81526020018b60020160179054906101000a900460ff16151581526020018b60020160189054906101000a900460ff161515815260200160008152602001600081525090506112fe8a60080160009054906101000a900460ff1682606001518360200151846000015185604001518f60030160069054906101000a900460020b61189f565b60405180604001604052806019815260200178154cd4cb4e48139bc81c9958985b185b98d9481b9959591959603a1b8152509061134e5760405162461bcd60e51b81526004016104ec91906153a0565b506113628982608001518360a00151611d0c565b6101c08201526101a0810151801561138d575061138d8160c00151826101c001518360e0015161431f565b1561149a5760088a01805460ff191660011790556040517fb224dccea3c30282a142bed3cedb7af1657907dea7dc2828fb9ce06007f3159490600090a173__$105aa07724e80e292e8a4b4cc62d6ec972$__63310135b88a8a846060015185608001518660a00151611402886060015161434d565b6040516001600160e01b031960e089901b1681526001600160a01b0396871660048201529486166024860152928516604485015290841660648401528316608483015260a482015260c481018a905260e481018b90529088166101048201526101240160006040518083038186803b15801561147d57600080fd5b505af4158015611491573d6000803e3d6000fd5b5050505061176d565b73__$105aa07724e80e292e8a4b4cc62d6ec972$__63fce032fe8a8a8d6114c4866060015161434d565b6040516001600160e01b031960e087901b1681526001600160a01b039485166004820152928416602484015260448301919091526064820152608481018a905260a481018b905290881660c482015260e40160006040518083038186803b15801561152e57600080fd5b505af4158015611542573d6000803e3d6000fd5b506002925061154f915050565b604051908082528060200260200182016040528015611578578160200160208202803683370190505b5093506115888160800151614258565b8460008151811061159b5761159b61566f565b6020026020010181815250506115b48160a00151614258565b846001815181106115c7576115c761566f565b602002602001018181525050806101800151156115e357600192505b60408051600280825260608201835260009260208301908036833701905050905081608001518160008151811061161c5761161c61566f565b60200260200101906001600160a01b031690816001600160a01b0316815250508160a00151816001815181106116545761165461566f565b6001600160a01b03929092166020928302919091018201526040805160028082526060820183526000939192909183019080368337019050509050856000815181106116a2576116a261566f565b6020026020010151816000815181106116bd576116bd61566f565b60200260200101818152505073__$e930d50fb5f4f1298547dbcb2bb0591990$__63c9bce690838360008f6040518563ffffffff1660e01b815260040161170794939291906158fb565b602060405180830381865af4158015611724573d6000803e3d6000fd5b505050506040513d601f19601f8201168201806040525081019061174891906158c9565b6101e0840181905289111561176a576101e0830151611767908a615942565b93505b50505b806101a0015115611784576101c0810151600a8b01555b81156117ec57604051630855081f60e01b815260006004820152602481018390526001600160a01b03861690630855081f90604401600060405180830381600087803b1580156117d357600080fd5b505af11580156117e7573d6000803e3d6000fd5b505050505b6040518281527fc306af072396b02bf3a9782c10065cc7ff4aa842934a43f0b76f997b291237c89060200160405180910390a15050965096945050505050565b6000816001600160a01b031663ddca3f436040518163ffffffff1660e01b8152600401602060405180830381865afa15801561186c573d6000803e3d6000fd5b505050506040513d601f19601f820116820180604052508101906118909190615955565b62ffffff166064149050919050565b600086156118af575060006119c2565b6000866001600160a01b0316633850c7bd6040518163ffffffff1660e01b815260040160e060405180830381865afa1580156118ef573d6000803e3d6000fd5b505050506040513d601f19601f8201168201806040525081019061191391906157a5565b50505050509150508360020b868661192b919061597a565b60020b03611955578560020b8160020b128061194d57508460020b8160020b12155b9150506119c2565b60006002611963888861597a565b61196d919061599f565b9050600061197b82896159d9565b90508060020b8360020b13156119a957600285900b61199a828561597a565b60020b121593505050506119c2565b600285900b6119b8848361597a565b60020b1393505050505b9695505050505050565b60008060006119da85610c62565b60038701549193509150600160481b900460ff16156119f557905b84546001860154600b8701546040516370a0823160e01b81526001600160a01b0393841693928316929091169083906370a0823190611a389084906004016159fe565b602060405180830381865afa158015611a55573d6000803e3d6000fd5b505050506040513d601f19601f82011682018060405250810190611a7991906158c9565b611a839086615748565b6040516370a0823160e01b81529095506001600160a01b038316906370a0823190611ab29084906004016159fe565b602060405180830381865afa158015611acf573d6000803e3d6000fd5b505050506040513d601f19601f82011682018060405250810190611af391906158c9565b611afd9085615748565b93506000876001600160a01b031663f77c47916040518163ffffffff1660e01b8152600401602060405180830381865afa158015611b3f573d6000803e3d6000fd5b505050506040513d601f19601f82011682018060405250810190611b6391906158ac565b6001600160a01b0316632630c12f6040518163ffffffff1660e01b8152600401602060405180830381865afa158015611ba0573d6000803e3d6000fd5b505050506040513d601f19601f82011682018060405250810190611bc491906158ac565b90506000816001600160a01b031663b3596f07866040518263ffffffff1660e01b8152600401611bf491906159fe565b602060405180830381865afa158015611c11573d6000803e3d6000fd5b505050506040513d601f19601f82011682018060405250810190611c3591906158c9565b90506000826001600160a01b031663b3596f07866040518263ffffffff1660e01b8152600401611c6591906159fe565b602060405180830381865afa158015611c82573d6000803e3d6000fd5b505050506040513d601f19601f82011682018060405250810190611ca691906158c9565b90506000670de0b6b3a7640000611cbd848b615707565b611cc79190615734565b90506000670de0b6b3a7640000611cde848b615707565b611ce89190615734565b90506064821180611cf95750606481115b9a50505050505050505050505b92915050565b600080846001600160a01b031663f77c47916040518163ffffffff1660e01b8152600401602060405180830381865afa158015611d4d573d6000803e3d6000fd5b505050506040513d601f19601f82011682018060405250810190611d7191906158ac565b6001600160a01b0316632630c12f6040518163ffffffff1660e01b8152600401602060405180830381865afa158015611dae573d6000803e3d6000fd5b505050506040513d601f19601f82011682018060405250810190611dd291906158ac565b90506000816001600160a01b031663b3596f07866040518263ffffffff1660e01b8152600401611e0291906159fe565b602060405180830381865afa158015611e1f573d6000803e3d6000fd5b505050506040513d601f19601f82011682018060405250810190611e4391906158c9565b90506000826001600160a01b031663b3596f07866040518263ffffffff1660e01b8152600401611e7391906159fe565b602060405180830381865afa158015611e90573d6000803e3d6000fd5b505050506040513d601f19601f82011682018060405250810190611eb491906158c9565b905081611ec982670de0b6b3a7640000615707565b611ed39190615734565b93505050505b9392505050565b60408051600280825260608281019093526000918291816020016020820280368337019050509250600086600181518110611f1d57611f1d61566f565b602002602001015111156121a4578315611fa45785600181518110611f4457611f4461566f565b602002602001015186600081518110611f5f57611f5f61566f565b602002602001015187600081518110611f7a57611f7a61566f565b6020026020010188600181518110611f9457611f9461566f565b6020908102919091010191909152525b600073__$0c70757f598a889e7e5bdfcf0bf5e1f3f7$__6317c22c3c8b8b8b8b600081518110611fd657611fd661566f565b60200260200101518c600181518110611ff157611ff161566f565b60200260200101516040518663ffffffff1660e01b8152600401612019959493929190615a12565b606060405180830381865af4158015612036573d6000803e3d6000fd5b505050506040513d601f19601f8201168201806040525081019061205a9190615a46565b8660008151811061206d5761206d61566f565b60200260200101876001815181106120875761208761566f565b6020908102919091010192909252919052604051633c8a7d8d60e01b81529091506001600160a01b038b1690633c8a7d8d906120cd9030908d908d908790600401615a74565b60408051808303816000875af11580156120eb573d6000803e3d6000fd5b505050506040513d601f19601f8201168201806040525081019061210f919061564b565b50506001600160801b03811692506121278187615ab6565b915084156121a257836001815181106121425761214261566f565b60200260200101518460008151811061215d5761215d61566f565b6020026020010151856000815181106121785761217861566f565b60200260200101866001815181106121925761219261566f565b6020908102919091010191909152525b505b96509650969350505050565b600982018190556040518181527fdf3e0a21768880619b1295cb9519494a0df71943ebb4ff056f72186cfcfb6d479060200160405180910390a15050565b60408051808201909152601181527054532d31207a65726f206164647265737360781b60208201526001600160a01b03851661223d5760405162461bcd60e51b81526004016104ec91906153a0565b506002870180546001600160a01b0319166001600160a01b03861617905560038701805468ffffff0000000000001916600160301b62ffffff851602179055612289878585858561436d565b6000866001600160a01b0316634046ebae6040518163ffffffff1660e01b8152600401602060405180830381865afa1580156122c9573d6000803e3d6000fd5b505050506040513d601f19601f820116820180604052508101906122ed91906158ac565b885460405163095ea7b360e01b81526001600160a01b038084166004830152600019602483015292935091169063095ea7b3906044016020604051808303816000875af1158015612342573d6000803e3d6000fd5b505050506040513d601f19601f820116820180604052508101906123669190615ad6565b50600188015460405163095ea7b360e01b81526001600160a01b03838116600483015260001960248301529091169063095ea7b3906044016020604051808303816000875af11580156123bd573d6000803e3d6000fd5b505050506040513d601f19601f820116820180604052508101906123e19190615ad6565b506002808901546123fd91600160a01b909104900b6004615af3565b60028981015491810b9161242391600160c81b8204810b91600160e01b9004900b61597a565b60028a8101805460ff60b81b1981169390920b9390931215600160b81b0291821790925561245e916001600160a01b0390811691161761182c565b156124e65760028801805460ff60c01b1916600160c01b1790556611c37937e08000600989018190556040517fdf3e0a21768880619b1295cb9519494a0df71943ebb4ff056f72186cfcfb6d47916124b99190815260200190565b60405180910390a1875460018901546124e09188916001600160a01b039182169116611d0c565b600a8901555b5050505050505050565b60405163a1d4398960e01b81526001600160a01b0385166004820152600284810b602483015283900b6044820152811515606482015260609073__$105aa07724e80e292e8a4b4cc62d6ec972$__9063a1d4398990608401600060405180830381865af4158015612565573d6000803e3d6000fd5b505050506040513d6000823e601f3d908101601f1916820160405261258d9190810190615b43565b95945050505050565b604080516000808252602082019092526002880154909190600160b81b900460ff16156125ff5760405162461bcd60e51b815260206004820152601760248201527627b7363c903337b91039bbb0b81039ba3930ba32b3bc9760491b60448201526064016104ec565b60006040518061020001604052808a600201601c9054906101000a900460020b60020b81526020018a60020160199054906101000a900460020b60020b81526020018a60020160149054906101000a900460020b60020b81526020018a60020160009054906101000a90046001600160a01b03166001600160a01b031681526020018a60000160009054906101000a90046001600160a01b03166001600160a01b031681526020018a60010160009054906101000a90046001600160a01b03166001600160a01b031681526020018a600a015481526020018a6009015481526020018a60030160099054906101000a900460ff161515815260200160008152602001600060020b8152602001600060020b81526020018a60020160179054906101000a900460ff16151581526020018a60020160189054906101000a900460ff161515815260200160008152602001600081525090506127958960080160009054906101000a900460ff1682606001518360200151846000015185604001518e60030160069054906101000a900460020b61189f565b60405180604001604052806019815260200178154cd4cb4e48139bc81c9958985b185b98d9481b9959591959603a1b815250906127e55760405162461bcd60e51b81526004016104ec91906153a0565b506127f98882608001518360a00151611d0c565b6101c08201526101a0810151801561282457506128248160c00151826101c001518360e0015161431f565b156128ef5760088901805460ff191660011790556040517fb224dccea3c30282a142bed3cedb7af1657907dea7dc2828fb9ce06007f3159490600090a173__$105aa07724e80e292e8a4b4cc62d6ec972$__6319ee6a3a8983608001518460a00151612893866060015161434d565b8b8b8e8c6040518963ffffffff1660e01b81526004016128ba989796959493929190615bc9565b60006040518083038186803b1580156128d257600080fd5b505af41580156128e6573d6000803e3d6000fd5b50505050612b88565b73__$105aa07724e80e292e8a4b4cc62d6ec972$__63f6cc5c2c898b612918856060015161434d565b8a8a8d8b6040518863ffffffff1660e01b815260040161293e9796959493929190615c29565b60006040518083038186803b15801561295657600080fd5b505af415801561296a573d6000803e3d6000fd5b5060029250612977915050565b6040519080825280602002602001820160405280156129a0578160200160208202803683370190505b5092506129b08160800151614258565b836000815181106129c3576129c361566f565b6020026020010181815250506129dc8160a00151614258565b836001815181106129ef576129ef61566f565b602090810291909101015260408051600280825260608201909252600091816020016020820280368337019050509050816080015181600081518110612a3757612a3761566f565b60200260200101906001600160a01b031690816001600160a01b0316815250508160a0015181600181518110612a6f57612a6f61566f565b6001600160a01b0392909216602092830291909101820152604080516002808252606082018352600093919290918301908036833701905050905084600081518110612abd57612abd61566f565b602002602001015181600081518110612ad857612ad861566f565b60200260200101818152505073__$e930d50fb5f4f1298547dbcb2bb0591990$__63c9bce690838360008e6040518563ffffffff1660e01b8152600401612b2294939291906158fb565b602060405180830381865af4158015612b3f573d6000803e3d6000fd5b505050506040513d601f19601f82011682018060405250810190612b6391906158c9565b6101e08401819052891115612b85576101e0830151612b82908a615942565b93505b50505b806101a0015115612b9f576101c0810151600a8a01555b8115612c0757604051630855081f60e01b815260006004820152602481018390526001600160a01b03851690630855081f90604401600060405180830381600087803b158015612bee57600080fd5b505af1158015612c02573d6000803e3d6000fd5b505050505b6040518281527fc306af072396b02bf3a9782c10065cc7ff4aa842934a43f0b76f997b291237c89060200160405180910390a150509695505050505050565b600b8101546002808301546003840154604080518481526060808201835295869586956001600160a01b039283169592811694600160c81b8204830b94600160e01b909204830b9380840b936301000000909104810b929160208301908036833750508b548251929b506001600160a01b0316918b9150600090612ccc57612ccc61566f565b6001600160a01b0392831660209182029290920101526001808c01548b519216918b91908110612cfe57612cfe61566f565b6001600160a01b039290921660209283029190910182015260408051600280825260608201835290929091908301908036833701905050965060005b8951811015612df857898181518110612d5557612d5561566f565b60200260200101516001600160a01b03166370a08231306040518263ffffffff1660e01b8152600401612d8891906159fe565b602060405180830381865afa158015612da5573d6000803e3d6000fd5b505050506040513d601f19601f82011682018060405250810190612dc991906158c9565b888281518110612ddb57612ddb61566f565b602090810291909101015280612df0816158e2565b915050612d3a565b5060408051600280825260608201835290916020830190803683370190505060038b0154909850600160501b90046001600160801b031615612f7b5760405163a34123a760e01b81526001600160a01b0386169063a34123a790612e659087908790600090600401615625565b60408051808303816000875af1158015612e83573d6000803e3d6000fd5b505050506040513d601f19601f82011682018060405250810190612ea7919061564b565b50506040516309e3d67b60e31b81526001600160a01b03861690634f1eb3d890612ee4903090889088906001600160801b03908190600401615685565b60408051808303816000875af1158015612f02573d6000803e3d6000fd5b505050506040513d601f19601f82011682018060405250810190612f2691906156c2565b816001600160801b03169150806001600160801b0316905089600081518110612f5157612f5161566f565b602002602001018a600181518110612f6b57612f6b61566f565b6020908102919091010191909152525b60048a01546001600160801b0316156130f55760405163a34123a760e01b81526001600160a01b0386169063a34123a790612fbf9085908590600090600401615625565b60408051808303816000875af1158015612fdd573d6000803e3d6000fd5b505050506040513d601f19601f82011682018060405250810190613001919061564b565b5050600080866001600160a01b0316634f1eb3d83086866001600160801b03806040518663ffffffff1660e01b8152600401613041959493929190615685565b60408051808303816000875af115801561305f573d6000803e3d6000fd5b505050506040513d601f19601f8201168201806040525081019061308391906156c2565b6001600160801b031691506001600160801b03169150818a6000815181106130ad576130ad61566f565b602002602001018181516130c19190615748565b905250895181908b9060019081106130db576130db61566f565b602002602001018181516130ef9190615748565b90525050505b7fd809a30c675e811f2837e53a49b9409406bb7e6f808658eef60d09ac30579e89886000815181106131295761312961566f565b6020026020010151896001815181106131445761314461566f565b6020026020010151604051613163929190918252602082015260400190565b60405180910390a160038a0154600160481b900460ff16156131f257876001815181106131925761319261566f565b6020026020010151886000815181106131ad576131ad61566f565b6020026020010151896000815181106131c8576131c861566f565b602002602001018a6001815181106131e2576131e261566f565b6020908102919091010191909152525b60005b89518110156133625760008a82815181106132125761321261566f565b60200260200101516001600160a01b03166370a08231896040518263ffffffff1660e01b815260040161324591906159fe565b602060405180830381865afa158015613262573d6000803e3d6000fd5b505050506040513d601f19601f8201168201806040525081019061328691906158c9565b90508015613351578a82815181106132a0576132a061566f565b60209081029190910101516040516323b872dd60e01b81526001600160a01b038a8116600483015230602483015260448201849052909116906323b872dd906064016020604051808303816000875af1158015613301573d6000803e3d6000fd5b505050506040513d601f19601f820116820180604052508101906133259190615ad6565b50808a83815181106133395761333961566f565b6020026020010181815161334d9190615748565b9052505b5061335b816158e2565b90506131f5565b505050505050509193909250565b604080516002808252606080830184529260208301908036833701905050905060008a6001600160a01b0316633850c7bd6040518163ffffffff1660e01b815260040160e060405180830381865afa1580156133d0573d6000803e3d6000fd5b505050506040513d601f19601f820116820180604052508101906133f491906157a5565b5050604051630544f36560e31b815294955073__$0c70757f598a889e7e5bdfcf0bf5e1f3f7$__94632a279b28945061343a93508692508f91508e908a90600401615824565b6040805180830381865af4158015613456573d6000803e3d6000fd5b505050506040513d601f19601f8201168201806040525081019061347a919061564b565b8360008151811061348d5761348d61566f565b60200260200101846001815181106134a7576134a761566f565b6020908102919091010191909152526001600160801b038616158015906134d757506000856001600160801b0316115b156135ed5760008073__$0c70757f598a889e7e5bdfcf0bf5e1f3f7$__632a279b28848c8c8c6001600160801b03168b6001600160801b03168d6001600160801b03166135249190615707565b61352e9190615734565b6040518563ffffffff1660e01b815260040161354d9493929190615824565b6040805180830381865af4158015613569573d6000803e3d6000fd5b505050506040513d601f19601f8201168201806040525081019061358d919061564b565b9150915081846000815181106135a5576135a561566f565b602002602001018181516135b99190615748565b90525083518190859060019081106135d3576135d361566f565b602002602001018181516135e79190615748565b90525050505b821561366657816001815181106136065761360661566f565b6020026020010151826000815181106136215761362161566f565b60200260200101518360008151811061363c5761363c61566f565b60200260200101846001815181106136565761365661566f565b6020908102919091010191909152525b509998505050505050505050565b8054604080516395d89b4160e01b815290516060926001600160a01b0316916395d89b419160048083019260009291908290030181865afa1580156136bd573d6000803e3d6000fd5b505050506040513d6000823e601f3d908101601f191682016040526136e59190810190615b43565b8260010160009054906101000a90046001600160a01b03166001600160a01b03166395d89b416040518163ffffffff1660e01b8152600401600060405180830381865afa15801561373a573d6000803e3d6000fd5b505050506040513d6000823e601f3d908101601f191682016040526137629190810190615b43565b60028401546040805163ddca3f4360e01b815290516137dd926001600160a01b03169163ddca3f439160048083019260209291908290030181865afa1580156137af573d6000803e3d6000fd5b505050506040513d601f19601f820116820180604052508101906137d39190615955565b62ffffff166149ff565b6040516020016137ef93929190615c78565b6040516020818303038152906040529050919050565b60028082015460408051630dfe168160e01b81529051600093849384936001600160a01b03821693600160c81b8304840b93600160e01b8404810b93600160a01b9004900b9186916138a7918791630dfe1681916004808201926020929091908290030181865afa15801561387e573d6000803e3d6000fd5b505050506040513d601f19601f820116820180604052508101906138a291906158ac565b614258565b905060006138ec866001600160a01b031663d21220a76040518163ffffffff1660e01b8152600401602060405180830381865afa15801561387e573d6000803e3d6000fd5b905060008211806138fd5750600081115b15613dd4576000866001600160a01b0316633850c7bd6040518163ffffffff1660e01b815260040160e060405180830381865afa158015613942573d6000803e3d6000fd5b505050506040513d601f19601f8201168201806040525081019061396691906157a5565b5050505050915050866001600160a01b031663d21220a76040518163ffffffff1660e01b8152600401602060405180830381865afa1580156139ac573d6000803e3d6000fd5b505050506040513d601f19601f820116820180604052508101906139d091906158ac565b6001600160a01b031663313ce5676040518163ffffffff1660e01b8152600401602060405180830381865afa158015613a0d573d6000803e3d6000fd5b505050506040513d601f19601f82011682018060405250810190613a319190615ce9565b613a3c90600a615de8565b73__$0c70757f598a889e7e5bdfcf0bf5e1f3f7$__63ac41865a898a6001600160a01b031663d21220a76040518163ffffffff1660e01b8152600401602060405180830381865afa158015613a95573d6000803e3d6000fd5b505050506040513d601f19601f82011682018060405250810190613ab991906158ac565b6040516001600160e01b031960e085901b1681526001600160a01b03928316600482015291166024820152604401602060405180830381865af4158015613b04573d6000803e3d6000fd5b505050506040513d601f19601f82011682018060405250810190613b2891906158c9565b613b329084615707565b613b3c9190615734565b831115613c69578380613b4f818461599f565b613b599190615af3565b613b6391906159d9565b995084985073__$0c70757f598a889e7e5bdfcf0bf5e1f3f7$__6317c22c3c888c8c8760006040518663ffffffff1660e01b8152600401613ba8959493929190615a12565b606060405180830381865af4158015613bc5573d6000803e3d6000fd5b505050506040513d601f19601f82011682018060405250810190613be99190615a46565b604051633c8a7d8d60e01b8152909a506001600160a01b038a169250633c8a7d8d9150613c209030908e908e908e90600401615a74565b60408051808303816000875af1158015613c3e573d6000803e3d6000fd5b505050506040513d601f19601f82011682018060405250810190613c62919061564b565b5050613d8e565b85995083848583613c7a919061599f565b613c849190615af3565b613c8e919061597a565b6040516305f08b0f60e21b815290995073__$0c70757f598a889e7e5bdfcf0bf5e1f3f7$__906317c22c3c90613cd1908a908e908e906000908990600401615a12565b606060405180830381865af4158015613cee573d6000803e3d6000fd5b505050506040513d601f19601f82011682018060405250810190613d129190615a46565b604051633c8a7d8d60e01b8152909a506001600160a01b038a169250633c8a7d8d9150613d499030908e908e908e90600401615a74565b60408051808303816000875af1158015613d67573d6000803e3d6000fd5b505050506040513d601f19601f82011682018060405250810190613d8b919061564b565b50505b5060038a01805462ffffff8a811663010000000265ffffffffffff19909216908c161717905560048a0180546001600160801b0389166001600160801b03199091161790555b50505050505050505050565b815460018301546040516303e6ee5360e31b81526001600160a01b0380851660048301529283166024820152911660448201526000908190819073__$105aa07724e80e292e8a4b4cc62d6ec972$__90631f37729890606401602060405180830381865af4158015613e56573d6000803e3d6000fd5b505050506040513d601f19601f82011682018060405250810190613e7a91906158c9565b6002860154909150600160b81b900460ff1680613ee5575060088501546002808701546003880154613ee39360ff16926001600160a01b03831692600160c81b8104820b92600160e01b8204830b92600160a01b909204820b91600160301b909104900b61189f565b155b80613f7e57506001850154604051638c56287960e01b8152600481018390526001600160a01b038087166024830152909116604482015273__$105aa07724e80e292e8a4b4cc62d6ec972$__90638c56287990606401602060405180830381865af4158015613f58573d6000803e3d6000fd5b505050506040513d601f19601f82011682018060405250810190613f7c9190615ad6565b155b15613f90576000809250925050614251565b60028086015460038701546004880154600093613ffc936001600160a01b03811693600160c81b8204830b93600160e01b909204830b9281810b926301000000830490910b916001600160801b03600160501b82048116921690829060ff600160481b90910416613370565b6003870154909150600160481b900460ff161561408657806001815181106140265761402661566f565b6020026020010151816000815181106140415761404161566f565b60200260200101518260008151811061405c5761405c61566f565b60200260200101836001815181106140765761407661566f565b6020908102919091010191909152525b818160018151811061409a5761409a61566f565b602002602001015110156142225760028601546001870154604051635620c32d60e11b81526001600160a01b0392831660048201529116602482015260009073__$0c70757f598a889e7e5bdfcf0bf5e1f3f7$__9063ac41865a90604401602060405180830381865af4158015614115573d6000803e3d6000fd5b505050506040513d601f19601f8201168201806040525081019061413991906158c9565b905060008760010160009054906101000a90046001600160a01b03166001600160a01b031663313ce5676040518163ffffffff1660e01b8152600401602060405180830381865afa158015614192573d6000803e3d6000fd5b505050506040513d601f19601f820116820180604052508101906141b69190615ce9565b6141c190600a615de8565b836001815181106141d4576141d461566f565b6020026020010151856141e79190615942565b6141f19084615707565b6141fb9190615734565b9050614208606482615734565b6142129082615748565b6001965094506142519350505050565b600082826001815181106142385761423861566f565b602002602001015161424a9190615942565b9350935050505b9250929050565b6040516370a0823160e01b81526000906001600160a01b038316906370a08231906142879030906004016159fe565b602060405180830381865afa1580156142a4573d6000803e3d6000fd5b505050506040513d601f19601f82011682018060405250810190611d0691906158c9565b604080516001600160a01b038416602482015260448082018490528251808303909101815260649091019091526020810180516001600160e01b031663a9059cbb60e01b17905261431a908490614b00565b505050565b600082841161433957816143338585615942565b11610fe4565b816143448486615942565b11949350505050565b60006143588261182c565b614364576101f4611d06565b61012c92915050565b600073__$0c70757f598a889e7e5bdfcf0bf5e1f3f7$__63ea866815866001600160a01b031663ddca3f436040518163ffffffff1660e01b8152600401602060405180830381865afa1580156143c7573d6000803e3d6000fd5b505050506040513d601f19601f820116820180604052508101906143eb9190615955565b6040516001600160e01b031960e084901b16815262ffffff9091166004820152602401602060405180830381865af415801561442b573d6000803e3d6000fd5b505050506040513d601f19601f8201168201806040525081019061444f9190615df7565b90508360020b6000146145245780614467818661599f565b6144719190615af3565b60020b8460020b146040518060400160405280601981526020017f5533532d3320496e636f7272656374207469636b52616e676500000000000000815250906144cd5760405162461bcd60e51b81526004016104ec91906153a0565b50806144d9818561599f565b6144e39190615af3565b60020b8360020b14604051806060016040528060228152602001615e7460229139906145225760405162461bcd60e51b81526004016104ec91906153a0565b505b6002868101805462ffffff60a01b1916600160a01b62ffffff85160217905560405163369eb6fb60e21b81526001600160a01b038716600482015285820b60248201529082900b604482015273__$105aa07724e80e292e8a4b4cc62d6ec972$__9063da7adbec906064016040805180830381865af41580156145ab573d6000803e3d6000fd5b505050506040513d601f19601f820116820180604052508101906145cf9190615e14565b60028801805465ffffffffffff60c81b1916600160e01b62ffffff9384160262ffffff60c81b191617600160c81b939092169290920217905560408051630dfe168160e01b815290516001600160a01b03871691630dfe16819160048083019260209291908290030181865afa15801561464d573d6000803e3d6000fd5b505050506040513d601f19601f8201168201806040525081019061467191906158ac565b6001600160a01b0316826001600160a01b031614806147025750846001600160a01b031663d21220a76040518163ffffffff1660e01b8152600401602060405180830381865afa1580156146c9573d6000803e3d6000fd5b505050506040513d601f19601f820116820180604052508101906146ed91906158ac565b6001600160a01b0316826001600160a01b0316145b60405180604001604052806015815260200174154cd4cb4d48125b98dbdc9c9958dd08185cdcd95d605a1b8152509061474e5760405162461bcd60e51b81526004016104ec91906153a0565b50846001600160a01b0316630dfe16816040518163ffffffff1660e01b8152600401602060405180830381865afa15801561478d573d6000803e3d6000fd5b505050506040513d601f19601f820116820180604052508101906147b191906158ac565b6001600160a01b0316826001600160a01b0316036148de57846001600160a01b0316630dfe16816040518163ffffffff1660e01b8152600401602060405180830381865afa158015614807573d6000803e3d6000fd5b505050506040513d601f19601f8201168201806040525081019061482b91906158ac565b86546001600160a01b0319166001600160a01b039182161787556040805163d21220a760e01b815290519187169163d21220a7916004808201926020929091908290030181865afa158015614884573d6000803e3d6000fd5b505050506040513d601f19601f820116820180604052508101906148a891906158ac565b6001870180546001600160a01b0319166001600160a01b039290921691909117905560038601805460ff60481b191690556149f7565b846001600160a01b031663d21220a76040518163ffffffff1660e01b8152600401602060405180830381865afa15801561491c573d6000803e3d6000fd5b505050506040513d601f19601f8201168201806040525081019061494091906158ac565b86546001600160a01b0319166001600160a01b0391821617875560408051630dfe168160e01b8152905191871691630dfe1681916004808201926020929091908290030181865afa158015614999573d6000803e3d6000fd5b505050506040513d601f19601f820116820180604052508101906149bd91906158ac565b6001870180546001600160a01b03929092166001600160a01b031990921691909117905560038601805460ff60481b1916600160481b1790555b505050505050565b606081600003614a265750506040805180820190915260018152600360fc1b602082015290565b8160005b8115614a505780614a3a816158e2565b9150614a499050600a83615734565b9150614a2a565b60008167ffffffffffffffff811115614a6b57614a6b614dc9565b6040519080825280601f01601f191660200182016040528015614a95576020820181803683370190505b5090505b8415610fe457614aaa600183615942565b9150614ab7600a86615e43565b614ac2906030615748565b60f81b818381518110614ad757614ad761566f565b60200101906001600160f81b031916908160001a905350614af9600a86615734565b9450614a99565b6000614b55826040518060400160405280602081526020017f5361666545524332303a206c6f772d6c6576656c2063616c6c206661696c6564815250856001600160a01b0316614bd29092919063ffffffff16565b80519091501561431a5780806020019051810190614b739190615ad6565b61431a5760405162461bcd60e51b815260206004820152602a60248201527f5361666545524332303a204552433230206f7065726174696f6e20646964206e6044820152691bdd081cdd58d8d9595960b21b60648201526084016104ec565b6060610fe4848460008585600080866001600160a01b03168587604051614bf99190615e57565b60006040518083038185875af1925050503d8060008114614c36576040519150601f19603f3d011682016040523d82523d6000602084013e614c3b565b606091505b5091509150614c4c87838387614c57565b979650505050505050565b60608315614cc6578251600003614cbf576001600160a01b0385163b614cbf5760405162461bcd60e51b815260206004820152601d60248201527f416464726573733a2063616c6c20746f206e6f6e2d636f6e747261637400000060448201526064016104ec565b5081610fe4565b610fe48383815115614cdb5781518083602001fd5b8060405162461bcd60e51b81526004016104ec91906153a0565b6001600160801b0381168114614d0a57600080fd5b50565b60008060408385031215614d2057600080fd5b823591506020830135614d3281614cf5565b809150509250929050565b600081518084526020808501945080840160005b83811015614d6d57815187529582019590820190600101614d51565b509495945050505050565b602081526000611ed96020830184614d3d565b600060208284031215614d9d57600080fd5b5035919050565b6001600160a01b0381168114614d0a57600080fd5b8035614dc481614da4565b919050565b634e487b7160e01b600052604160045260246000fd5b6040516080810167ffffffffffffffff81118282101715614e0257614e02614dc9565b60405290565b604051601f8201601f1916810167ffffffffffffffff81118282101715614e3157614e31614dc9565b604052919050565b600067ffffffffffffffff821115614e5357614e53614dc9565b5060051b60200190565b600082601f830112614e6e57600080fd5b81356020614e83614e7e83614e39565b614e08565b82815260059290921b84018101918181019086841115614ea257600080fd5b8286015b84811015614ebd5780358352918301918301614ea6565b509695505050505050565b60008060008060808587031215614ede57600080fd5b8435614ee981614da4565b9350602085810135614efa81614da4565b9350604086013567ffffffffffffffff80821115614f1757600080fd5b818801915088601f830112614f2b57600080fd5b8135614f39614e7e82614e39565b81815260059190911b8301840190848101908b831115614f5857600080fd5b938501935b82851015614f7f578435614f7081614da4565b82529385019390850190614f5d565b965050506060880135925080831115614f9757600080fd5b5050614fa587828801614e5d565b91505092959194509250565b600080600060608486031215614fc657600080fd5b505081359360208301359350604090920135919050565b60008060408385031215614ff057600080fd5b823591506020830135614d3281614da4565b60008060008060008060c0878903121561501b57600080fd5b86359550602087013561502d81614da4565b9450604087013561503d81614da4565b9350606087013592506080870135915060a087013561505b81614da4565b809150509295509295509295565b60408152600061507c6040830185614d3d565b905082151560208301529392505050565b60006020828403121561509f57600080fd5b8135611ed981614da4565b8015158114614d0a57600080fd5b8060020b8114614d0a57600080fd5b60008060008060008060c087890312156150e057600080fd5b86356150eb816150aa565b955060208701356150fb81614da4565b9450604087013561510b816150b8565b9350606087013561511b816150b8565b9250608087013561512b816150b8565b915060a087013561505b816150b8565b60008060006060848603121561515057600080fd5b833561515b81614da4565b9250602084013561516b81614da4565b9150604084013561517b81614da4565b809150509250925092565b60008060008060008060c0878903121561519f57600080fd5b86356151aa81614da4565b955060208701356151ba816150b8565b945060408701356151ca816150b8565b9350606087013567ffffffffffffffff8111156151e657600080fd5b6151f289828a01614e5d565b935050608087013561520381614cf5565b915060a087013561505b816150aa565b6060815260006152266060830186614d3d565b90508360208301526001600160801b0383166040830152949350505050565b6000806040838503121561525857600080fd5b50508035926020909101359150565b600080600080600080600060e0888a03121561528257600080fd5b87359650602088013561529481614da4565b955060408801356152a481614da4565b945060608801356152b481614da4565b935060808801356152c4816150b8565b925060a08801356152d4816150b8565b915060c08801356152e481614da4565b8091505092959891949750929550565b6000806000806080858703121561530a57600080fd5b843561531581614da4565b93506020850135615325816150b8565b92506040850135615335816150b8565b91506060850135615345816150aa565b939692955090935050565b60005b8381101561536b578181015183820152602001615353565b50506000910152565b6000815180845261538c816020860160208601615350565b601f01601f19169290920160200192915050565b602081526000611ed96020830184615374565b600067ffffffffffffffff8211156153cd576153cd614dc9565b50601f01601f191660200190565b60008060008060008060c087890312156153f457600080fd5b8635955060208088013561540781614da4565b955060408801359450606088013567ffffffffffffffff8082111561542b57600080fd5b908901906080828c03121561543f57600080fd5b615447614ddf565b8235615452816150aa565b81528284013584820152604083013561546a81614da4565b604082015260608301358281111561548157600080fd5b8084019350508b601f84011261549657600080fd5b823591506154a6614e7e836153b3565b8281528c858486010111156154ba57600080fd5b828585018683013760008584830101528060608301525080965050505050608087013591506154eb60a08801614db9565b90509295509295509295565b600081518084526020808501945080840160005b83811015614d6d5781516001600160a01b03168752958201959082019060010161550b565b60608152600061554360608301866154f7565b82810360208401526155558186614d3d565b905082810360408401526119c28185614d3d565b60008060008060008060008060006101208a8c03121561558857600080fd5b893561559381614da4565b985060208a01356155a3816150b8565b975060408a01356155b3816150b8565b965060608a01356155c3816150b8565b955060808a01356155d3816150b8565b945060a08a01356155e381614cf5565b935060c08a01356155f381614cf5565b925060e08a013561560381614cf5565b91506101008a0135615614816150aa565b809150509295985092959850929598565b600293840b81529190920b60208201526001600160801b03909116604082015260600190565b6000806040838503121561565e57600080fd5b505080516020909101519092909150565b634e487b7160e01b600052603260045260246000fd5b6001600160a01b03959095168552600293840b60208601529190920b60408401526001600160801b03918216606084015216608082015260a00190565b600080604083850312156156d557600080fd5b82516156e081614cf5565b6020840151909250614d3281614cf5565b634e487b7160e01b600052601160045260246000fd5b8082028115828204841417611d0657611d066156f1565b634e487b7160e01b600052601260045260246000fd5b6000826157435761574361571e565b500490565b80820180821115611d0657611d066156f1565b6001600160801b0382811682821603908082111561577b5761577b6156f1565b5092915050565b805161ffff81168114614dc457600080fd5b805160ff81168114614dc457600080fd5b600080600080600080600060e0888a0312156157c057600080fd5b87516157cb81614da4565b60208901519097506157dc816150b8565b95506157ea60408901615782565b94506157f860608901615782565b935061580660808901615782565b925061581460a08901615794565b915060c08801516152e4816150aa565b6001600160a01b03949094168452600292830b6020850152910b60408301526001600160801b0316606082015260800190565b600060a08201905060018060a01b03808451168352602084015160020b6020840152604084015160020b60408401526001600160801b0360608501511660608401528060808501511660808401525092915050565b6000602082840312156158be57600080fd5b8151611ed981614da4565b6000602082840312156158db57600080fd5b5051919050565b6000600182016158f4576158f46156f1565b5060010190565b60808152600061590e60808301876154f7565b82810360208401526159208187614d3d565b604084019590955250506001600160a01b039190911660609091015292915050565b81810381811115611d0657611d066156f1565b60006020828403121561596757600080fd5b815162ffffff81168114611ed957600080fd5b600282810b9082900b03627fffff198112627fffff82131715611d0657611d066156f1565b60008160020b8360020b806159b6576159b661571e565b627fffff198214600019821416156159d0576159d06156f1565b90059392505050565b600281810b9083900b01627fffff8113627fffff1982121715611d0657611d066156f1565b6001600160a01b0391909116815260200190565b6001600160a01b03959095168552600293840b60208601529190920b60408401526060830191909152608082015260a00190565b600080600060608486031215615a5b57600080fd5b8351925060208401519150604084015161517b81614cf5565b6001600160a01b03949094168452600292830b6020850152910b60408301526001600160801b0316606082015260a06080820181905260009082015260c00190565b6001600160801b0381811683821601908082111561577b5761577b6156f1565b600060208284031215615ae857600080fd5b8151611ed9816150aa565b60008260020b8260020b028060020b915080821461577b5761577b6156f1565b6000615b21614e7e846153b3565b9050828152838383011115615b3557600080fd5b611ed9836020830184615350565b600060208284031215615b5557600080fd5b815167ffffffffffffffff811115615b6c57600080fd5b8201601f81018413615b7d57600080fd5b610fe484825160208401615b13565b8051151582526020810151602083015260018060a01b0360408201511660408301526000606082015160806060850152610fe46080850182615374565b6001600160a01b038981168252888116602083015287811660408301526060820187905261010060808301819052600091615c0684830189615b8c565b60a085019790975260c08401959095525050911660e09091015295945050505050565b600060018060a01b03808a16835288602084015287604084015260e06060840152615c5760e0840188615b8c565b608084019690965260a083019490945250911660c090910152949350505050565b6502ab734ab19960d51b815260008451615c99816006850160208901615350565b602f60f81b6006918401918201528451615cba816007840160208901615350565b602d60f81b600792909101918201528351615cdc816008840160208801615350565b0160080195945050505050565b600060208284031215615cfb57600080fd5b611ed982615794565b600181815b80851115615d3f578160001904821115615d2557615d256156f1565b80851615615d3257918102915b93841c9390800290615d09565b509250929050565b600082615d5657506001611d06565b81615d6357506000611d06565b8160018114615d795760028114615d8357615d9f565b6001915050611d06565b60ff841115615d9457615d946156f1565b50506001821b611d06565b5060208310610133831016604e8410600b8410161715615dc2575081810a611d06565b615dcc8383615d04565b8060001904821115615de057615de06156f1565b029392505050565b6000611ed960ff841683615d47565b600060208284031215615e0957600080fd5b8151611ed9816150b8565b60008060408385031215615e2757600080fd5b8251615e32816150b8565b6020840151909250614d32816150b8565b600082615e5257615e5261571e565b500690565b60008251615e69818460208701615350565b919091019291505056fe5533532d3420496e636f727265637420726562616c616e63655469636b52616e67655533532d3133205a65726f2073747261746567792070726f66697420686f6c646572a26469706673582212203030b2acc75ed2dbf9a1b1fe75b5e0e4a403871ff96eef56930c6f19f8da988c64736f6c63430008110033",
  "libraries": {
    "UniswapV3Lib": "0xED9f3C81e82D4530CF716DdD2C5ED54F1cBEE806",
    "UniswapV3DebtLib": "0x863389Abb21FA2C60a42a0cF8Ca753438F6AAC1c",
    "ConverterStrategyBaseLib": "0x962Fd398B1bF4e871c7424f5a6097e9E8F35Cb39"
  },
  "devdoc": {
    "kind": "dev",
    "methods": {
      "claimRewards(UniswapV3ConverterStrategyLogicLib.State storage)": {
        "returns": {
          "amountsOut": "An array containing the amounts of token0 and token1 claimed as rewards.",
          "tokensOut": "An array containing tokenA and tokenB."
        }
      },
      "enter(IUniswapV3Pool,int24,int24,uint256[],uint128,bool)": {
        "params": {
          "_depositorSwapTokens": "A boolean indicating if need to use token B instead of token A.",
          "amountsDesired_": "An array containing the desired amounts of tokens to provide liquidity.",
          "lowerTick": "The lower tick value for the pool.",
          "pool": "The Uniswap V3 pool to provide liquidity to.",
          "totalLiquidity": "The current total liquidity in the pool.",
          "upperTick": "The upper tick value for the pool."
        },
        "returns": {
          "amountsConsumed": "An array containing the consumed amounts for each token in the pool.",
          "liquidityOut": "The amount of liquidity added to the pool.",
          "totalLiquidityNew": "The updated total liquidity after providing liquidity."
        }
      },
      "exit(UniswapV3ConverterStrategyLogicLib.State storage,uint128)": {
        "params": {
          "liquidityAmountToExit": "The amount of liquidity to exit.",
          "state": "The State storage object."
        },
        "returns": {
          "amountsOut": "An array containing the collected amounts for each token in the pool."
        }
      },
      "getEntryData(IUniswapV3Pool,int24,int24,bool)": {
        "params": {
          "depositorSwapTokens": "A boolean indicating if need to use token B instead of token A.",
          "lowerTick": "The lower tick of the pool's main range.",
          "pool": "The Uniswap V3 pool instance.",
          "upperTick": "The upper tick of the pool's main range."
        },
        "returns": {
          "entryData": "A byte array containing the entry data for the pool."
        }
      },
      "getFees(UniswapV3ConverterStrategyLogicLib.State storage)": {
        "params": {
          "state": "The State storage containing the pool's information."
        },
        "returns": {
          "fee0": "The fees generated for the first token in the pool.",
          "fee1": "The fees generated for the second token in the pool."
        }
      },
      "getOracleAssetsPrice(ITetuConverter,address,address)": {
        "params": {
          "converter": "The Tetu converter.",
          "tokenA": "The first token address.",
          "tokenB": "The second token address."
        },
        "returns": {
          "_0": "The price ratio of the two tokens."
        }
      },
      "getPoolReserves(UniswapV3ConverterStrategyLogicLib.State storage)": {
        "params": {
          "state": "The State storage containing the pool's information."
        },
        "returns": {
          "reserves": "An array containing the reserve amounts of the contract owned liquidity."
        }
      },
      "getTokenAmounts(UniswapV3ConverterStrategyLogicLib.State storage)": {
        "params": {
          "state": "The state of the pool."
        },
        "returns": {
          "amountA": "The balance of tokenA.",
          "amountB": "The balance of tokenB."
        }
      },
      "isStablePool(IUniswapV3Pool)": {
        "params": {
          "pool": "The Uniswap V3 pool."
        },
        "returns": {
          "_0": "A boolean indicating if the pool is stable."
        }
      },
      "needRebalance(bool,IUniswapV3Pool,int24,int24,int24,int24)": {
        "returns": {
          "_0": "A boolean indicating if the pool needs to be rebalanced."
        }
      },
      "quoteExit(IUniswapV3Pool,int24,int24,int24,int24,uint128,uint128,uint128,bool)": {
        "params": {
          "_depositorSwapTokens": "A boolean indicating if need to use token B instead of token A.",
          "liquidity": "The current liquidity in the pool.",
          "liquidityAmountToExit": "The amount of liquidity to exit.",
          "liquidityFillup": "The current liquidity in the fillup range.",
          "lowerTick": "The lower tick value for the pool.",
          "lowerTickFillup": "The lower tick value for the fillup range in the pool.",
          "pool": "The Uniswap V3 pool to quote the exit amounts for.",
          "upperTick": "The upper tick value for the pool.",
          "upperTickFillup": "The upper tick value for the fillup range in the pool."
        },
        "returns": {
          "amountsOut": "An array containing the estimated exit amounts for each token in the pool."
        }
      },
      "rebalance(UniswapV3ConverterStrategyLogicLib.State storage,ITetuConverter,address,uint256,uint256,address)": {
        "details": "Rebalances the current position, adjusts the tick range, and attempts to cover loss with pool rewards.",
        "params": {
          "controller": "The Tetu controller address.",
          "converter": "The TetuConverter contract.",
          "oldTotalAssets": "The amount of total assets before rebalancing.",
          "state": "The State storage object."
        },
        "returns": {
          "isNeedFillup": "Indicates if fill-up is required after rebalancing.",
          "tokenAmounts": "The token amounts for deposit (if length != 2 then do nothing)."
        }
      }
    },
    "stateVariables": {
      "DEFAULT_FUSE_THRESHOLD": {
        "details": "0.5% by default"
      }
    },
    "version": 1
  },
  "userdoc": {
    "kind": "user",
    "methods": {
      "addFillup(UniswapV3ConverterStrategyLogicLib.State storage)": {
        "notice": "Add liquidity to a Uniswap V3 pool in a specified tick range according fill up rules."
      },
      "claimRewards(UniswapV3ConverterStrategyLogicLib.State storage)": {
        "notice": "Claim rewards from the Uniswap V3 pool."
      },
      "enter(IUniswapV3Pool,int24,int24,uint256[],uint128,bool)": {
        "notice": "Enter the pool and provide liquidity with desired token amounts."
      },
      "exit(UniswapV3ConverterStrategyLogicLib.State storage,uint128)": {
        "notice": "Exit the pool and collect tokens proportional to the liquidity amount to exit."
      },
      "getEntryData(IUniswapV3Pool,int24,int24,bool)": {
        "notice": "Get entry data for a Uniswap V3 pool."
      },
      "getFees(UniswapV3ConverterStrategyLogicLib.State storage)": {
        "notice": "Retrieve the fees generated by a Uniswap V3 pool managed by this contract."
      },
      "getOracleAssetsPrice(ITetuConverter,address,address)": {
        "notice": "Get the price ratio of the two given tokens from the oracle."
      },
      "getPoolReserves(UniswapV3ConverterStrategyLogicLib.State storage)": {
        "notice": "Retrieve the reserves of a Uniswap V3 pool managed by this contract."
      },
      "getTokenAmounts(UniswapV3ConverterStrategyLogicLib.State storage)": {
        "notice": "Get the token amounts held by the contract"
      },
      "isStablePool(IUniswapV3Pool)": {
        "notice": "Check if the given pool is a stable pool."
      },
      "needRebalance(bool,IUniswapV3Pool,int24,int24,int24,int24)": {
        "notice": "Determine if the pool needs to be rebalanced."
      },
      "quoteExit(IUniswapV3Pool,int24,int24,int24,int24,uint128,uint128,uint128,bool)": {
        "notice": "Estimate the exit amounts for a given liquidity amount in a Uniswap V3 pool."
      }
    },
    "version": 1
  },
  "storageLayout": {
    "storage": [],
    "types": null
  }
}