{
  "address": "0xDb131de38B50Cd418eb39875A3E0B791B4E39F6C",
  "abi": [
    {
      "anonymous": false,
      "inputs": [
        {
          "indexed": false,
          "internalType": "uint256",
          "name": "fee0",
          "type": "uint256"
        },
        {
          "indexed": false,
          "internalType": "uint256",
          "name": "fee1",
          "type": "uint256"
        }
      ],
      "name": "PancakeFeesClaimed",
      "type": "event"
    },
    {
      "anonymous": false,
      "inputs": [
        {
          "indexed": false,
          "internalType": "uint256",
          "name": "amount",
          "type": "uint256"
        }
      ],
      "name": "PancakeRewardsClaimed",
      "type": "event"
    },
    {
      "anonymous": false,
      "inputs": [
        {
          "indexed": false,
          "internalType": "uint256",
          "name": "loss",
          "type": "uint256"
        },
        {
          "indexed": false,
          "internalType": "uint256",
          "name": "profitToCover",
          "type": "uint256"
        },
        {
          "indexed": false,
          "internalType": "uint256",
          "name": "coveredByRewards",
          "type": "uint256"
        }
      ],
      "name": "Rebalanced",
      "type": "event"
    },
    {
      "anonymous": false,
      "inputs": [
        {
          "indexed": false,
          "internalType": "uint256",
          "name": "loss",
          "type": "uint256"
        },
        {
          "indexed": false,
          "internalType": "uint256",
          "name": "profitToCover",
          "type": "uint256"
        },
        {
          "indexed": false,
          "internalType": "uint256",
          "name": "coveredByRewards",
          "type": "uint256"
        }
      ],
      "name": "RebalancedDebt",
      "type": "event"
    },
    {
      "inputs": [
        {
          "internalType": "address",
          "name": "asset",
          "type": "address"
        },
        {
          "internalType": "address",
          "name": "controller",
          "type": "address"
        },
        {
          "internalType": "address[]",
          "name": "rewardTokens",
          "type": "address[]"
        },
        {
          "internalType": "uint256[]",
          "name": "amounts",
          "type": "uint256[]"
        }
      ],
      "name": "calcEarned",
      "outputs": [
        {
          "internalType": "uint256",
          "name": "",
          "type": "uint256"
        }
      ],
      "stateMutability": "view",
      "type": "function"
    },
    {
      "inputs": [
        {
          "internalType": "contract IPancakeV3Pool",
          "name": "pool",
          "type": "IPancakeV3Pool"
        },
        {
          "internalType": "int24",
          "name": "lowerTick",
          "type": "int24"
        },
        {
          "internalType": "int24",
          "name": "upperTick",
          "type": "int24"
        },
        {
          "internalType": "bool",
          "name": "depositorSwapTokens",
          "type": "bool"
        }
      ],
      "name": "getEntryDataProportions",
      "outputs": [
        {
          "internalType": "uint256",
          "name": "",
          "type": "uint256"
        },
        {
          "internalType": "uint256",
          "name": "",
          "type": "uint256"
        }
      ],
      "stateMutability": "view",
      "type": "function"
    },
    {
      "inputs": [
        {
          "internalType": "contract IPancakeV3Pool",
          "name": "pool",
          "type": "IPancakeV3Pool"
        }
      ],
      "name": "isStablePool",
      "outputs": [
        {
          "internalType": "bool",
          "name": "",
          "type": "bool"
        }
      ],
      "stateMutability": "view",
      "type": "function"
    }
  ],
  "transactionHash": "0x9a0c1dcdbeb567efd7b8a7a916407178e6c0ad102905c3eb22bb101f8a117ea9",
  "args": [],
  "numDeployments": 1,
  "solcInputHash": "17e7f259002e1118df09fdf359b1b60f",
  "bytecode": "0x61504561003a600b82828239805160001a60731461002d57634e487b7160e01b600052600060045260246000fd5b30600052607381538281f3fe73000000000000000000000000000000000000000030146080604052600436106100d45760003560e01c8063a64017d311610086578063a64017d3146101d9578063a7aced09146101ec578063b0a79a53146101ff578063b6fda8131461022e578063bd85be291461024e578063c6f740c11461026e578063f6b4d56b1461028e57600080fd5b8063023d8463146100d95780631738a44d1461010657806328f0aec41461013457806334d2ec3d146101555780637269cb3a146101685780638fb5468e1461018b578063911ec053146101ab575b600080fd5b6100ec6100e7366004613db2565b6102b0565b604080519283526020830191909152015b60405180910390f35b81801561011257600080fd5b50610126610121366004613f0a565b6102cc565b6040516100fd929190613f8b565b610147610142366004613fad565b610a64565b6040519081526020016100fd565b610147610163366004613fd1565b610b5b565b61017b6101763660046140b9565b610d03565b60405190151581526020016100fd565b61019e610199366004613fad565b610fba565b6040516100fd91906140e9565b8180156101b757600080fd5b506101cb6101c6366004614185565b6111c4565b6040516100fd929190614233565b61017b6101e736600461424e565b61140b565b61019e6101fa366004614280565b61147e565b81801561020b57600080fd5b5061021f61021a366004613fad565b611675565b6040516100fd939291906142a5565b81801561023a57600080fd5b5061019e61024936600461431a565b611d71565b61026161025c366004613fad565b61224d565b6040516100fd91906143ea565b81801561027a57600080fd5b5061019e6102893660046143fd565b6123de565b81801561029a57600080fd5b506102ae6102a936600461443f565b6123f5565b005b6000806102bf86868686612bc3565b9150915094509492505050565b6040805161016081018252600081830181905260e0820181905261010082018190526101208201819052610140820181905284546001600160a01b0390811683526003860154600160a81b810460ff1615156020808601919091526031880154606080870191909152600160c81b8304600290810b6080880152600160e01b90930490920b60a0860152603288015490921660c085018190528551635a25139160e11b815295519195939493909263b44a2722926004808401938290030181865afa15801561039f573d6000803e3d6000fd5b505050506040513d601f19601f820116820180604052508101906103c391906144f4565b6001600160a01b031660e082015260408051600280825260608201835290916020830190803683370190505092508360018151811061040457610404614511565b6020026020010151600014610a5c57600080826020015161043b57600287015460038801546001600160a01b039182169116610453565b600387015460028801546001600160a01b0391821691165b915091508260200151156104d4578560018151811061047457610474614511565b60200260200101518660008151811061048f5761048f614511565b6020026020010151876000815181106104aa576104aa614511565b60200260200101886001815181106104c4576104c4614511565b6020908102919091010191909152525b82600001516001600160a01b031663ddca3f436040518163ffffffff1660e01b8152600401602060405180830381865afa158015610516573d6000803e3d6000fd5b505050506040513d601f19601f8201168201806040525081019061053a9190614527565b62ffffff16610100840152606083015115610613576105618360e001518460600151612eae565b600290810b61014086015290810b6101208501819052608085015190910b14158061059b57508260a0015160020b83610140015160020b14155b156106135760c08301516060840151604051630852cd8d60e31b81526001600160a01b03909216916342966c68916105d99160040190815260200190565b600060405180830381600087803b1580156105f357600080fd5b505af1158015610607573d6000803e3d6000fd5b50506000606086015250505b8260600151600003610817578260e001516001600160a01b03166388316456604051806101600160405280856001600160a01b03168152602001846001600160a01b0316815260200186610100015162ffffff168152602001866080015160020b81526020018660a0015160020b81526020018960008151811061069957610699614511565b60200260200101518152602001896001815181106106b9576106b9614511565b602002602001015181526020016000815260200160008152602001306001600160a01b03168152602001428152506040518263ffffffff1660e01b8152600401610703919061454c565b6080604051808303816000875af1158015610722573d6000803e3d6000fd5b505050506040513d601f19601f820116820180604052508101906107469190614610565b86606001876040018a60008151811061076157610761614511565b602002602001018b60018151811061077b5761077b614511565b6020908102919091010193909352929091526001600160801b0390921690525260608301516031880181905560e084015160c0850151604051632142170760e11b81526001600160a01b03909216926342842e0e926107e0923092909160040161464e565b600060405180830381600087803b1580156107fa57600080fd5b505af115801561080e573d6000803e3d6000fd5b5050505061097f565b8260c001516001600160a01b031663219f5d176040518060c00160405280866060015181526020018960008151811061085257610852614511565b602002602001015181526020018960018151811061087257610872614511565b602002602001015181526020016000815260200160008152602001428152506040518263ffffffff1660e01b81526004016108ec9190600060c082019050825182526020830151602083015260408301516040830152606083015160608301526080830151608083015260a083015160a083015292915050565b6060604051808303816000875af115801561090b573d6000803e3d6000fd5b505050506040513d601f19601f8201168201806040525081019061092f9190614672565b856040018860008151811061094657610946614511565b602002602001018960018151811061096057610960614511565b60209081029190910101929092529190526001600160801b0390911690525b60408301516004880180546003906109a8908490630100000090046001600160801b03166146bf565b92506101000a8154816001600160801b0302191690836001600160801b0316021790555082604001516001600160801b03169350826020015115610a5957846001815181106109f9576109f9614511565b602002602001015185600081518110610a1457610a14614511565b602002602001015186600081518110610a2f57610a2f614511565b6020026020010187600181518110610a4957610a49614511565b6020908102919091010191909152525b50505b509250929050565b805460038201546000916001600160a01b03169060ff600160a81b8204169083908190610ab3908590600160c81b8104600290810b91600160e01b8104820b91600160b01b909104900b612f34565b91509150600080610ac686858588612bc3565b90925090506000610ad782846146df565b116040518060400160405280601081526020016f54532d3234207a65726f2076616c756560801b81525090610b285760405162461bcd60e51b8152600401610b1f91906143ea565b60405180910390fd5b50610b3381836146df565b610b4582670de0b6b3a76400006146f2565b610b4f919061471f565b98975050505050505050565b600080846001600160a01b0316634046ebae6040518163ffffffff1660e01b8152600401602060405180830381865afa158015610b9c573d6000803e3d6000fd5b505050506040513d601f19601f82011682018060405250810190610bc091906144f4565b84519091506000805b82811015610cf5576000878281518110610be557610be5614511565b60200260200101519050896001600160a01b0316816001600160a01b031603610c3457868281518110610c1a57610c1a614511565b602002602001015183610c2d91906146df565b9250610ce4565b846001600160a01b031663a9dd14d6898481518110610c5557610c55614511565b60200260200101518c8a8681518110610c7057610c70614511565b60200260200101516040518463ffffffff1660e01b8152600401610c969392919061464e565b602060405180830381865afa158015610cb3573d6000803e3d6000fd5b505050506040513d601f19601f82011682018060405250810190610cd79190614733565b610ce190846146df565b92505b50610cee8161474c565b9050610bc9565b50925050505b949350505050565b815460028301546040805163313ce56760e01b815290516000936001600160a01b0390811693859373263830dC01d74c31483d3cFC04c9E4E5741eC7D79363556ce728939092169163313ce567916004808201926020929091908290030181865afa158015610d76573d6000803e3d6000fd5b505050506040513d601f19601f82011682018060405250810190610d9a9190614765565b6040516001600160e01b031960e084901b16815260ff9091166004820152602401602060405180830381865af4158015610dd8573d6000803e3d6000fd5b505050506040513d601f19601f82011682018060405250810190610dfc9190614733565b6003860154604051635620c32d60e11b81526001600160a01b0380861660048301529091166024820152909150600090829073718c55da958581cF36cB2fF516cd85f4F60eabF29063ac41865a90604401602060405180830381865af4158015610e6a573d6000803e3d6000fd5b505050506040513d601f19601f82011682018060405250810190610e8e9190614733565b610e9891906146f2565b90507332A7a29AdfD04A82683585D7A58A21fE3c9884626351265e898787733a13F2Cd361403855Db53e1DA935acdE97616a4C6322b70985886040518263ffffffff1660e01b8152600401610eed9190614788565b602060405180830381865af4158015610f0a573d6000803e3d6000fd5b505050506040513d601f19601f82011682018060405250810190610f2e919061479c565b6040516001600160e01b031960e086901b16815260048101939093526001600160a01b03909116602483015260020b604482015260648101849052608401606060405180830381865af4158015610f89573d6000803e3d6000fd5b505050506040513d601f19601f82011682018060405250810190610fad91906147b9565b5090979650505050505050565b60408051600280825260608083018452926020830190803683375050835460408051633850c7bd60e01b815290519394506000936001600160a01b039092169250633850c7bd9160048083019260e09291908290030181865afa158015611025573d6000803e3d6000fd5b505050506040513d601f19601f820116820180604052508101906110499190614811565b505050506003860154600480880154604051630544f36560e31b815295965073718c55da958581cF36cB2fF516cd85f4F60eabF295632a279b2895506110bb94508793600160c81b8104600290810b94600160e01b909204900b92630100000090046001600160801b031691016148ac565b6040805180830381865af41580156110d7573d6000803e3d6000fd5b505050506040513d601f19601f820116820180604052508101906110fb91906148df565b8360008151811061110e5761110e614511565b602002602001018460018151811061112857611128614511565b6020908102919091010191909152526003830154600160a81b900460ff16156111be578160018151811061115e5761115e614511565b60200260200101518260008151811061117957611179614511565b60200260200101518360008151811061119457611194614511565b60200260200101846001815181106111ae576111ae614511565b6020908102919091010191909152525b50919050565b60408051808201825260028401546001600160a01b0390811682526003850154166020820152905163bd13c52960e01b8152600091606091888301359190839085907332A7a29AdfD04A82683585D7A58A21fE3c9884629063bd13c5299061123a908f908f908f908f908a908f9060040161490c565b600060405180830381865af4158015611257573d6000803e3d6000fd5b505050506040513d6000823e601f3d908101601f1916820160405261127f9190810190614a1e565b91975092509050801561132257733C8012f85910eef30d280F12Cda29eDdf9ca5D436326eadaa38e8e60046020020160208101906112bd919061424e565b6040516001600160e01b031960e085901b16815260048101929092526001600160a01b031660248201526044810184905260640160006040518083038186803b15801561130957600080fd5b505af415801561131d573d6000803e3d6000fd5b505050505b6040805182815260208d8101359082015260008183015290517f3715d08a7dcc9d792a5a426f62429b9f889a7b140004f9f85190a48485695cf19181900360600190a1600184148061137c575060028414801561137c5750855b156113fb57875460038901546113bc916001600160a01b031690600160c81b8104600290810b91600160e01b8104820b91600160b01b909104900b612f34565b60038a01805465ffffffffffff60c81b1916600160e01b62ffffff9384160262ffffff60c81b191617600160c81b939092169290920217905590935083905b5050505097509795505050505050565b6000816001600160a01b031663ddca3f436040518163ffffffff1660e01b8152600401602060405180830381865afa15801561144b573d6000803e3d6000fd5b505050506040513d601f19601f8201168201806040525081019061146f9190614527565b62ffffff166064149050919050565b60408051600280825260608083018452926020830190803683375050845460408051633850c7bd60e01b815290519394506000936001600160a01b039092169250633850c7bd9160048083019260e09291908290030181865afa1580156114e9573d6000803e3d6000fd5b505050506040513d601f19601f8201168201806040525081019061150d9190614811565b5050506003880154604051630544f36560e31b815294955073718c55da958581cF36cB2fF516cd85f4F60eabF294632a279b28945061156b9350869250600160c81b8204600290810b92600160e01b9004900b9089906004016148ac565b6040805180830381865af4158015611587573d6000803e3d6000fd5b505050506040513d601f19601f820116820180604052508101906115ab91906148df565b836000815181106115be576115be614511565b60200260200101846001815181106115d8576115d8614511565b6020908102919091010191909152526003840154600160a81b900460ff161561166e578160018151811061160e5761160e614511565b60200260200101518260008151811061162957611629614511565b60200260200101518360008151811061164457611644614511565b602002602001018460018151811061165e5761165e614511565b6020908102919091010191909152525b5092915050565b60018101546032820154603183015460408051600380825260808201909252606094859485946001600160a01b039283169492909116929091602082018680368337505050600288015481519197506001600160a01b03169087906000906116df576116df614511565b6001600160a01b039283166020918202929092010152600388015487519116908790600190811061171257611712614511565b60200260200101906001600160a01b031690816001600160a01b031681525050816001600160a01b0316634ca6ef286040518163ffffffff1660e01b8152600401602060405180830381865afa158015611770573d6000803e3d6000fd5b505050506040513d601f19601f8201168201806040525081019061179491906144f4565b866002815181106117a7576117a7614511565b6001600160a01b03929092166020928302919091018201526040805160038082526080820190925291820160608036833701905050935060005b865181101561189f578681815181106117fc576117fc614511565b60200260200101516001600160a01b03166370a08231306040518263ffffffff1660e01b815260040161182f9190614788565b602060405180830381865afa15801561184c573d6000803e3d6000fd5b505050506040513d601f19601f820116820180604052508101906118709190614733565b85828151811061188257611882614511565b6020908102919091010152806118978161474c565b9150506117e1565b5060408051600380825260808201909252906020820160608036833701905050945080158015906118e357506004870154630100000090046001600160801b031615155b15611c0157604080516080810182528281523060208201526001600160801b038183018190526060820152905163fc6f786560e01b81526001600160a01b0384169163fc6f7865916119389190600401614a77565b60408051808303816000875af1158015611956573d6000803e3d6000fd5b505050506040513d601f19601f8201168201806040525081019061197a91906148df565b8660008151811061198d5761198d614511565b60200260200101876001815181106119a7576119a7614511565b60200260200101828152508281525050507f487b1b0cd897f57ad5adc43035e166ff445dc5df82a242bef9570c24696848c6856000815181106119ec576119ec614511565b602002602001015186600181518110611a0757611a07614511565b6020026020010151604051611a26929190918252602082015260400190565b60405180910390a16003870154600160a81b900460ff1615611ab55784600181518110611a5557611a55614511565b602002602001015185600081518110611a7057611a70614511565b602002602001015186600081518110611a8b57611a8b614511565b6020026020010187600181518110611aa557611aa5614511565b6020908102919091010191909152525b611ac182826000612f5e565b50611b6c86600281518110611ad857611ad8614511565b60200260200101516001600160a01b03166370a08231306040518263ffffffff1660e01b8152600401611b0b9190614788565b602060405180830381865afa158015611b28573d6000803e3d6000fd5b505050506040513d601f19601f82011682018060405250810190611b4c9190614733565b85600281518110611b5f57611b5f614511565b60200260200101516130e6565b85600281518110611b7f57611b7f614511565b60200260200101818152505084600281518110611b9e57611b9e614511565b6020026020010151600014611c01577ff078afc293bb2ef2040ee671179378c81a5adb16f39489d0cc49624e3e71611685600281518110611be157611be1614511565b6020026020010151604051611bf891815260200190565b60405180910390a15b60005b8651811015611d66576000878281518110611c2157611c21614511565b60200260200101516001600160a01b03166370a08231866040518263ffffffff1660e01b8152600401611c549190614788565b602060405180830381865afa158015611c71573d6000803e3d6000fd5b505050506040513d601f19601f82011682018060405250810190611c959190614733565b90508015611d5557878281518110611caf57611caf614511565b60200260200101516001600160a01b03166323b872dd8630846040518463ffffffff1660e01b8152600401611ce69392919061464e565b6020604051808303816000875af1158015611d05573d6000803e3d6000fd5b505050506040513d601f19601f82011682018060405250810190611d299190614aba565b5080878381518110611d3d57611d3d614511565b60200260200101818151611d5191906146df565b9052505b50611d5f8161474c565b9050611c04565b505050509193909250565b6060611d7b613c7f565b611d9381611d8c60208b018b61424e565b8b86613109565b61014081015160408083015160038c01549151635620c32d60e11b81526001600160a01b0391821660048201529116602482015273718c55da958581cF36cB2fF516cd85f4F60eabF29063ac41865a90604401602060405180830381865af4158015611e03573d6000803e3d6000fd5b505050506040513d601f19601f82011682018060405250810190611e279190614733565b611e3191906146f2565b61012082015260408082015190516322b7098560e01b81526000918291733a13F2Cd361403855Db53e1DA935acdE97616a4C916322b7098591611e779190600401614788565b602060405180830381865af4158015611e94573d6000803e3d6000fd5b505050506040513d601f19601f82011682018060405250810190611eb8919061479c565b60208401516101208501516040516351265e8960e01b8152600481018f90526001600160a01b039092166024830152600283900b604483015260648201529091507332A7a29AdfD04A82683585D7A58A21fE3c988462906351265e8990608401606060405180830381865af4158015611f35573d6000803e3d6000fd5b505050506040513d601f19601f82011682018060405250810190611f5991906147b9565b8560e0018661010001826003811115611f7457611f74614ad7565b6003811115611f8557611f85614ad7565b9052911515909152509150811561200b577332A7a29AdfD04A82683585D7A58A21fE3c988462634aa009158c8560e001518661010001516040518463ffffffff1660e01b8152600401611fda93929190614aed565b60006040518083038186803b158015611ff257600080fd5b505af4158015612006573d6000803e3d6000fd5b505050505b8515806120155750815b604051806040016040528060188152602001771414cb4e48139bc81c9958985b185b98d9481b995959195960421b815250906120645760405162461bcd60e51b8152600401610b1f91906143ea565b50811561223e57733a13F2Cd361403855Db53e1DA935acdE97616a4C63e4ee4bf78b8d8b8d8c8960c00151886040518863ffffffff1660e01b81526004016120b29796959493929190614b51565b60006040518083038186803b1580156120ca57600080fd5b505af41580156120de573d6000803e3d6000fd5b505050506000733C8012f85910eef30d280F12Cda29eDdf9ca5D4363ac2a37d685602001518c876060015188608001518960c001516040518663ffffffff1660e01b8152600401612133959493929190614bd7565b600060405180830381865af4158015612150573d6000803e3d6000fd5b505050506040513d6000823e601f3d908101601f191682016040526121789190810190614c0b565b9550905080156121fc576040516326eadaa360e01b8152600481018e90526001600160a01b038916602482015260448101829052733C8012f85910eef30d280F12Cda29eDdf9ca5D43906326eadaa39060640160006040518083038186803b1580156121e357600080fd5b505af41580156121f7573d6000803e3d6000fd5b505050505b60408051828152602081018b905260008183015290517f83387a3342ff1ebc5e437dc9ae0f98274afda12a11cf547eebec05a3e0b8f8a79181900360600190a1505b50505098975050505050505050565b6002810154604080516395d89b4160e01b815290516060926001600160a01b0316916395d89b419160048083019260009291908290030181865afa158015612299573d6000803e3d6000fd5b505050506040513d6000823e601f3d908101601f191682016040526122c19190810190614c47565b8260030160009054906101000a90046001600160a01b03166001600160a01b03166395d89b416040518163ffffffff1660e01b8152600401600060405180830381865afa158015612316573d6000803e3d6000fd5b505050506040513d6000823e601f3d908101601f1916820160405261233e9190810190614c47565b83546040805163ddca3f4360e01b815290516123b6926001600160a01b03169163ddca3f439160048083019260209291908290030181865afa158015612388573d6000803e3d6000fd5b505050506040513d601f19601f820116820180604052508101906123ac9190614527565b62ffffff16613300565b6040516020016123c893929190614cbd565b6040516020818303038152906040529050919050565b60606123eb848484613400565b90505b9392505050565b600085600160200201516001600160a01b031614156040518060400160405280601181526020017054532d31207a65726f206164647265737360781b815250906124525760405162461bcd60e51b8152600401610b1f91906143ea565b50600085600160200201516001600160a01b0316630dfe16816040518163ffffffff1660e01b8152600401602060405180830381865afa15801561249a573d6000803e3d6000fd5b505050506040513d601f19601f820116820180604052508101906124be91906144f4565b9050600086600160200201516001600160a01b031663d21220a76040518163ffffffff1660e01b8152600401602060405180830381865afa158015612507573d6000803e3d6000fd5b505050506040513d601f19601f8201168201806040525081019061252b91906144f4565b9050612535613ce5565b6020880151604051631e64869f60e11b815260009173718c55da958581cF36cB2fF516cd85f4F60eabF291633cc90d3e9161257291600401614788565b602060405180830381865af415801561258f573d6000803e3d6000fd5b505050506040513d601f19601f820116820180604052508101906125b3919061479c565b90508760020b60001461268857806125cb818a614d30565b6125d59190614d6a565b60020b8860020b146040518060400160405280601981526020017f5042532d3320496e636f7272656374207469636b52616e676500000000000000815250906126315760405162461bcd60e51b8152600401610b1f91906143ea565b508061263d8189614d30565b6126479190614d6a565b60020b8760020b14604051806060016040528060228152602001614fee60229139906126865760405162461bcd60e51b8152600401610b1f91906143ea565b505b600281810b80845260208b015160405163362ad1e560e11b81526001600160a01b039091166004820152918a900b60248301526044820152733a13F2Cd361403855Db53e1DA935acdE97616a4C90636c55a3ca906064016040805180830381865af41580156126fb573d6000803e3d6000fd5b505050506040513d601f19601f8201168201806040525081019061271f9190614d8a565b600290810b60408086019190915291810b6020808601919091529089900b60608501528a8201518251635a25139160e11b815292519093506000926001600160a01b0385169263b44a2722926004808401938290030181865afa15801561278a573d6000803e3d6000fd5b505050506040513d601f19601f820116820180604052508101906127ae91906144f4565b60328c0180546001600160a01b0319166001600160a01b03858116919091179091556040805160808101825260208e81018051851683528c851691830191909152898416928201929092529187166060830152519192507332A7a29AdfD04A82683585D7A58A21fE3c9884629163b8b4a449918e91879061282e9061140b565b8b6040518663ffffffff1660e01b815260040161284f959493929190614db9565b60006040518083038186803b15801561286757600080fd5b505af415801561287b573d6000803e3d6000fd5b5050505060008a60006003811061289457612894614511565b60200201516001600160a01b0316634046ebae6040518163ffffffff1660e01b8152600401602060405180830381865afa1580156128d6573d6000803e3d6000fd5b505050506040513d601f19601f820116820180604052508101906128fa91906144f4565b60405163095ea7b360e01b81529091506001600160a01b0387169063095ea7b39061292d90849060001990600401614e36565b6020604051808303816000875af115801561294c573d6000803e3d6000fd5b505050506040513d601f19601f820116820180604052508101906129709190614aba565b5060405163095ea7b360e01b81526001600160a01b0386169063095ea7b3906129a190849060001990600401614e36565b6020604051808303816000875af11580156129c0573d6000803e3d6000fd5b505050506040513d601f19601f820116820180604052508101906129e49190614aba565b5060405163095ea7b360e01b81526001600160a01b0387169063095ea7b390612a1590859060001990600401614e36565b6020604051808303816000875af1158015612a34573d6000803e3d6000fd5b505050506040513d601f19601f82011682018060405250810190612a589190614aba565b5060405163095ea7b360e01b81526001600160a01b0386169063095ea7b390612a8990859060001990600401614e36565b6020604051808303816000875af1158015612aa8573d6000803e3d6000fd5b505050506040513d601f19601f82011682018060405250810190612acc9190614aba565b5060405163095ea7b360e01b81526001600160a01b0387169063095ea7b390612afd90869060001990600401614e36565b6020604051808303816000875af1158015612b1c573d6000803e3d6000fd5b505050506040513d601f19601f82011682018060405250810190612b409190614aba565b5060405163095ea7b360e01b81526001600160a01b0386169063095ea7b390612b7190869060001990600401614e36565b6020604051808303816000875af1158015612b90573d6000803e3d6000fd5b505050506040513d601f19601f82011682018060405250810190612bb49190614aba565b50505050505050505050505050565b6000806000866001600160a01b031663d21220a76040518163ffffffff1660e01b8152600401602060405180830381865afa158015612c06573d6000803e3d6000fd5b505050506040513d601f19601f82011682018060405250810190612c2a91906144f4565b604051635620c32d60e11b81526001600160a01b03808a1660048301528216602482015290915060009073718c55da958581cF36cB2fF516cd85f4F60eabF29063ac41865a90604401602060405180830381865af4158015612c90573d6000803e3d6000fd5b505050506040513d601f19601f82011682018060405250810190612cb49190614733565b90506000826001600160a01b031663313ce5676040518163ffffffff1660e01b8152600401602060405180830381865afa158015612cf6573d6000803e3d6000fd5b505050506040513d601f19601f82011682018060405250810190612d1a9190614765565b60ff169050816000612d2d83600a614f2b565b60408051808201909152601081526f54532d3234207a65726f2076616c756560801b602082015290915081612d755760405162461bcd60e51b8152600401610b1f91906143ea565b506040516305f08b0f60e21b81526001600160a01b038c16600482015260028b810b60248301528a900b60448201526064810183905260848101829052600090819073718c55da958581cF36cB2fF516cd85f4F60eabF2906317c22c3c9060a401606060405180830381865af4158015612df3573d6000803e3d6000fd5b505050506040513d601f19601f82011682018060405250810190612e179190614f37565b509150915089612e6057612e3382670de0b6b3a76400006146f2565b8387612e4784670de0b6b3a76400006146f2565b612e5191906146f2565b612e5b919061471f565b612e9a565b8286612e7483670de0b6b3a76400006146f2565b612e7e91906146f2565b612e88919061471f565b612e9a83670de0b6b3a76400006146f2565b985098505050505050505094509492505050565b6000807f99fbab885187bcfe4f5c2bdaac5378bc1b291f6ce1a47d140d5ffc701bf1eb55612eda613d03565b604051828152856004820152610180816024838a5afa80612efa57600080fd5b5060005b600c811015612f1b57602081028281015190840152600101612efe565b505060a081015160c09091015190969095509350505050565b6000806000612f42876138c6565b9050612f5081878787613937565b925092505094509492505050565b604051630c7e663b60e11b8152600481018390523060248201526000906001600160a01b038516906318fccc76906044016020604051808303816000875af1925050508015612fca575060408051601f3d908101601f19168201909252612fc791810190614733565b60015b156123ee576000856001600160a01b0316634ca6ef286040518163ffffffff1660e01b8152600401602060405180830381865afa15801561300f573d6000803e3d6000fd5b505050506040513d601f19601f8201168201806040525081019061303391906144f4565b90506130ab82826001600160a01b03166370a08231306040518263ffffffff1660e01b81526004016130659190614788565b602060405180830381865afa158015613082573d6000803e3d6000fd5b505050506040513d601f19601f820116820180604052508101906130a69190614733565b613a01565b92506001600160a01b038416158015906130c457508215155b156130dd576130dd6001600160a01b0382168585613a17565b50509392505050565b60008183116130f6576000613100565b6131008284614f65565b90505b92915050565b81546001600160a01b0316604080860191909152805160608101909152600583018054829060ff16600381111561314257613142614ad7565b600381111561315357613153614ad7565b815260408051608081019182905260209092019190600184019060049082845b81548152602001906001019080831161317357505050918352505060408051608081019182905260209092019190600584019060049082845b8154815260200190600101908083116131ac575050509190925250505084526001600160a01b03838116602080870191909152600284015482166060870181905260038501549283166080880152600160a01b90920460ff16151560a08701526000918252829052604090205461322290613a72565b60c08501515260808401516001600160a01b031660009081526020829052604090205461324e90613a72565b60c08501516001602002018181525050600084606001516001600160a01b031663313ce5676040518163ffffffff1660e01b8152600401602060405180830381865afa1580156132a2573d6000803e3d6000fd5b505050506040513d601f19601f820116820180604052508101906132c69190614765565b60ff169050601281106132da5760016132f0565b6132e5816012614f65565b6132f090600a614f2b565b6101409095019490945250505050565b6060816000036133275750506040805180820190915260018152600360fc1b602082015290565b8160005b8115613351578061333b8161474c565b915061334a9050600a8361471f565b915061332b565b6000816001600160401b0381111561336b5761336b613e0e565b6040519080825280601f01601f191660200182016040528015613395576020820181803683370190505b5090505b8415610cfb576133aa600183614f65565b91506133b7600a86614f78565b6133c29060306146df565b60f81b8183815181106133d7576133d7614511565b60200101906001600160f81b031916908160001a9053506133f9600a8661471f565b9450613399565b6040805160028082526060808301845292602083019080368337019050506040805160a0810182526000818301819052608082015260328701546001600160a01b03908116606083015260018801541681526004870154630100000090046001600160801b0390811660208084018290528451808601909552601485527350532d372057726f6e67206c697175696469747960601b90850152939450909290861611156134c05760405162461bcd60e51b8152600401610b1f91906143ea565b5060318501546080820152826134ed576134e7816060015182608001518360000151612f5e565b60408201525b6060808201516040805160a08101825260808086015182526001600160801b03808a16602084019081526000848601818152978501908152429385019384529451630624e65f60e11b815293516004850152511660248301529351604482015290516064820152915160848301526001600160a01b031690630c49ccbe9060a40160408051808303816000875af115801561358c573d6000803e3d6000fd5b505050506040513d601f19601f820116820180604052508101906135b091906148df565b836000815181106135c3576135c3614511565b60200260200101846001815181106135dd576135dd614511565b602002602001018281525082815250505060008082606001516001600160a01b031663fc6f7865604051806080016040528086608001518152602001306001600160a01b031681526020016001600160801b03801681526020016001600160801b0380168152506040518263ffffffff1660e01b81526004016136609190614a77565b60408051808303816000875af115801561367e573d6000803e3d6000fd5b505050506040513d601f19601f820116820180604052508101906136a291906148df565b9150915060006136bf8386600081518110611b5f57611b5f614511565b905060006136da8387600181518110611b5f57611b5f614511565b60408051848152602081018390529192507f487b1b0cd897f57ad5adc43035e166ff445dc5df82a242bef9570c24696848c6910160405180910390a16003890154600160a81b900460ff161561379e578560018151811061373d5761373d614511565b60200260200101518660008151811061375857613758614511565b60200260200101518760008151811061377357613773614511565b602002602001018860018151811061378d5761378d614511565b602090810291909101019190915252905b81156137c157845160028a01546137c1916001600160a01b039091169084613a17565b80156137e457845160038a01546137e4916001600160a01b039091169083613a17565b87856020018181516137f69190614f8c565b6001600160801b03908116909152602087015160048c01805472ffffffffffffffffffffffffffffffff00000019166301000000929093169182029290921790915560000390506138ba57866138b25760608501516080860151604051630852cd8d60e31b81526001600160a01b03909216916342966c689161387f9160040190815260200190565b600060405180830381600087803b15801561389957600080fd5b505af11580156138ad573d6000803e3d6000fd5b505050505b600060318a01555b50505050509392505050565b6000816001600160a01b0316633850c7bd6040518163ffffffff1660e01b815260040160e060405180830381865afa158015613906573d6000803e3d6000fd5b505050506040513d601f19601f8201168201806040525081019061392a9190614811565b5093979650505050505050565b600080806139458686614fac565b905060008460020b8260020b1461396657613961600283614d30565b613969565b60005b60405163cd8e20e760e01b815260028a810b600483015282810b602483015287900b60448201529091507332A7a29AdfD04A82683585D7A58A21fE3c9884629063cd8e20e7906064016040805180830381865af41580156139ce573d6000803e3d6000fd5b505050506040513d601f19601f820116820180604052508101906139f29190614d8a565b93509350505094509492505050565b6000818310613a105781613100565b5090919050565b613a6d8363a9059cbb60e01b8484604051602401613a36929190614e36565b60408051601f198184030181529190526020810180516001600160e01b03166001600160e01b031990931692909217909152613a8a565b505050565b60008115613a805781613103565b620186a092915050565b6000613adf826040518060400160405280602081526020017f5361666545524332303a206c6f772d6c6576656c2063616c6c206661696c6564815250856001600160a01b0316613b5c9092919063ffffffff16565b805190915015613a6d5780806020019051810190613afd9190614aba565b613a6d5760405162461bcd60e51b815260206004820152602a60248201527f5361666545524332303a204552433230206f7065726174696f6e20646964206e6044820152691bdd081cdd58d8d9595960b21b6064820152608401610b1f565b60606123eb848460008585600080866001600160a01b03168587604051613b839190614fd1565b60006040518083038185875af1925050503d8060008114613bc0576040519150601f19603f3d011682016040523d82523d6000602084013e613bc5565b606091505b5091509150613bd687838387613be1565b979650505050505050565b60608315613c50578251600003613c49576001600160a01b0385163b613c495760405162461bcd60e51b815260206004820152601d60248201527f416464726573733a2063616c6c20746f206e6f6e2d636f6e74726163740000006044820152606401610b1f565b5081610cfb565b610cfb8383815115613c655781518083602001fd5b8060405162461bcd60e51b8152600401610b1f91906143ea565b604051806101600160405280613c93613d22565b815260006020820181905260408201819052606082018190526080820181905260a082015260c001613cc3613d4f565b8152600060208201819052604082018190526060820181905260809091015290565b60405180608001604052806004906020820280368337509192915050565b604051806101800160405280600c906020820280368337509192915050565b60408051606081019091528060008152602001613d3d613ce5565b8152602001613d4a613ce5565b905290565b60405180604001604052806002906020820280368337509192915050565b6001600160a01b0381168114613d8257600080fd5b50565b8060020b8114613d8257600080fd5b8035613d9f81613d85565b919050565b8015158114613d8257600080fd5b60008060008060808587031215613dc857600080fd5b8435613dd381613d6d565b93506020850135613de381613d85565b92506040850135613df381613d85565b91506060850135613e0381613da4565b939692955090935050565b634e487b7160e01b600052604160045260246000fd5b604051606081016001600160401b0381118282101715613e4657613e46613e0e565b60405290565b604051601f8201601f191681016001600160401b0381118282101715613e7457613e74613e0e565b604052919050565b60006001600160401b03821115613e9557613e95613e0e565b5060051b60200190565b600082601f830112613eb057600080fd5b81356020613ec5613ec083613e7c565b613e4c565b82815260059290921b84018101918181019086841115613ee457600080fd5b8286015b84811015613eff5780358352918301918301613ee8565b509695505050505050565b60008060408385031215613f1d57600080fd5b8235915060208301356001600160401b03811115613f3a57600080fd5b613f4685828601613e9f565b9150509250929050565b600081518084526020808501945080840160005b83811015613f8057815187529582019590820190600101613f64565b509495945050505050565b604081526000613f9e6040830185613f50565b90508260208301529392505050565b600060208284031215613fbf57600080fd5b5035919050565b8035613d9f81613d6d565b60008060008060808587031215613fe757600080fd5b8435613ff281613d6d565b935060208581013561400381613d6d565b935060408601356001600160401b038082111561401f57600080fd5b818801915088601f83011261403357600080fd5b8135614041613ec082613e7c565b81815260059190911b8301840190848101908b83111561406057600080fd5b938501935b8285101561408757843561407881613d6d565b82529385019390850190614065565b96505050606088013592508083111561409f57600080fd5b50506140ad87828801613e9f565b91505092959194509250565b600080604083850312156140cc57600080fd5b8235915060208301356140de81613d6d565b809150509250929050565b6020815260006131006020830184613f50565b806080810183101561310357600080fd5b60006001600160401b0382111561412657614126613e0e565b50601f01601f191660200190565b600082601f83011261414557600080fd5b8135614153613ec08261410d565b81815284602083860101111561416857600080fd5b816020850160208301376000918101602001919091529392505050565b60008060008060008060006101c0888a0312156141a157600080fd5b8735965060c08801898111156141b657600080fd5b6020890196506141c68a826140fc565b9550506101408801356001600160401b03808211156141e457600080fd5b6141f08b838c01614134565b95506101608a013591508082111561420757600080fd5b506142148a828b01614134565b93505061018088013591506101a0880135905092959891949750929550565b82151581526040602082015260006123eb6040830184613f50565b60006020828403121561426057600080fd5b81356123ee81613d6d565b6001600160801b0381168114613d8257600080fd5b6000806040838503121561429357600080fd5b8235915060208301356140de8161426b565b606080825284519082018190526000906020906080840190828801845b828110156142e75781516001600160a01b0316845292840192908401906001016142c2565b505050838103828501526142fb8187613f50565b91505082810360408401526143108185613f50565b9695505050505050565b600080600080600080600080610120898b03121561433757600080fd5b8835975060208901359650608089018a81111561435357600080fd5b60408a01965035945060a0890135935060c089013561437181613d6d565b925060e089013561438181613da4565b8092505061010089013590509295985092959890939650565b60005b838110156143b557818101518382015260200161439d565b50506000910152565b600081518084526143d681602086016020860161439a565b601f01601f19169290920160200192915050565b60208152600061310060208301846143be565b60008060006060848603121561441257600080fd5b8335925060208401356144248161426b565b9150604084013561443481613da4565b809150509250925092565b600080600080600080610160878903121561445957600080fd5b86359550602088603f89011261446e57600080fd5b614476613e24565b8060808a018b81111561448857600080fd5b838b015b818110156144ac57803561449f81613d6d565b845292840192840161448c565b508198506144b981613d94565b9750505050506144cb60a08801613d94565b92506144d960c08801613fc6565b91506144e88860e089016140fc565b90509295509295509295565b60006020828403121561450657600080fd5b81516123ee81613d6d565b634e487b7160e01b600052603260045260246000fd5b60006020828403121561453957600080fd5b815162ffffff811681146123ee57600080fd5b81516001600160a01b031681526101608101602083015161457860208401826001600160a01b03169052565b50604083015161458f604084018262ffffff169052565b5060608301516145a4606084018260020b9052565b5060808301516145b9608084018260020b9052565b5060a083015160a083015260c083015160c083015260e083015160e0830152610100808401518184015250610120808401516145ff828501826001600160a01b03169052565b505061014092830151919092015290565b6000806000806080858703121561462657600080fd5b8451935060208501516146388161426b565b6040860151606090960151949790965092505050565b6001600160a01b039384168152919092166020820152604081019190915260600190565b60008060006060848603121561468757600080fd5b83516146928161426b565b602085015160409095015190969495509392505050565b634e487b7160e01b600052601160045260246000fd5b6001600160801b0381811683821601908082111561166e5761166e6146a9565b80820180821115613103576131036146a9565b8082028115828204841417613103576131036146a9565b634e487b7160e01b600052601260045260246000fd5b60008261472e5761472e614709565b500490565b60006020828403121561474557600080fd5b5051919050565b60006001820161475e5761475e6146a9565b5060010190565b60006020828403121561477757600080fd5b815160ff811681146123ee57600080fd5b6001600160a01b0391909116815260200190565b6000602082840312156147ae57600080fd5b81516123ee81613d85565b6000806000606084860312156147ce57600080fd5b83516147d981613da4565b60208501519093506147ea81613da4565b60408501519092506004811061443457600080fd5b805161ffff81168114613d9f57600080fd5b600080600080600080600060e0888a03121561482c57600080fd5b875161483781613d6d565b602089015190975061484881613d85565b9550614856604089016147ff565b9450614864606089016147ff565b9350614872608089016147ff565b925060a088015163ffffffff8116811461488b57600080fd5b60c089015190925061489c81613da4565b8091505092959891949750929550565b6001600160a01b03949094168452600292830b6020850152910b60408301526001600160801b0316606082015260800190565b600080604083850312156148f257600080fd5b505080516020909101519092909150565b60808183375050565b60006101c08289835b600581101561494757813561492981613d6d565b6001600160a01b031683526020928301929190910190600101614915565b50505060808860a085013780610120840152614965818401886143be565b905082810361014084015261497a81876143be565b91505061016082018460005b60028110156149ae5781516001600160a01b0316835260209283019290910190600101614986565b505050826101a0830152979650505050505050565b600082601f8301126149d457600080fd5b815160206149e4613ec083613e7c565b82815260059290921b84018101918181019086841115614a0357600080fd5b8286015b84811015613eff5780518352918301918301614a07565b600080600060608486031215614a3357600080fd5b8351614a3e81613da4565b60208501519093506001600160401b03811115614a5a57600080fd5b614a66868287016149c3565b925050604084015190509250925092565b815181526020808301516001600160a01b0316908201526040808301516001600160801b0390811691830191909152606092830151169181019190915260800190565b600060208284031215614acc57600080fd5b81516123ee81613da4565b634e487b7160e01b600052602160045260246000fd5b83815282151560208201526060810160048310614b1a57634e487b7160e01b600052602160045260246000fd5b826040830152949350505050565b8060005b6002811015614b4b578151845260209384019390910190600101614b2c565b50505050565b6101208101818960005b6002811015614b8d578135614b6f81613d6d565b6001600160a01b031683526020928301929190910190600101614b5b565b5050506040820188905260608201879052608082018690526001600160a01b03851660a0830152614bc160c0830185614b28565b8260020b61010083015298975050505050505050565b6001600160a01b0386811682526020820186905284811660408301528316606082015260c081016143106080830184614b28565b60008060408385031215614c1e57600080fd5b8251915060208301516001600160401b03811115614c3b57600080fd5b613f46858286016149c3565b600060208284031215614c5957600080fd5b81516001600160401b03811115614c6f57600080fd5b8201601f81018413614c8057600080fd5b8051614c8e613ec08261410d565b818152856020838501011115614ca357600080fd5b614cb482602083016020860161439a565b95945050505050565b6702830b731b0b5b2960c51b815260008451614ce081600885016020890161439a565b602f60f81b6008918401918201528451614d0181600984016020890161439a565b602d60f81b600992909101918201528351614d2381600a84016020880161439a565b01600a0195945050505050565b60008160020b8360020b80614d4757614d47614709565b627fffff19821460001982141615614d6157614d616146a9565b90059392505050565b60008260020b8260020b028060020b915080821461166e5761166e6146a9565b60008060408385031215614d9d57600080fd5b8251614da881613d85565b60208401519092506140de81613d85565b8581526101c0810160208083018760005b6004811015614df05781516001600160a01b031683529183019190830190600101614dca565b50505060a083018660005b6004811015614e1b57815160020b83529183019190830190600101614dfb565b50505050831515610120830152614310610140830184614903565b6001600160a01b03929092168252602082015260400190565b600181815b80851115610a5c578160001904821115614e7057614e706146a9565b80851615614e7d57918102915b93841c9390800290614e54565b600082614e9957506001613103565b81614ea657506000613103565b8160018114614ebc5760028114614ec657614ee2565b6001915050613103565b60ff841115614ed757614ed76146a9565b50506001821b613103565b5060208310610133831016604e8410600b8410161715614f05575081810a613103565b614f0f8383614e4f565b8060001904821115614f2357614f236146a9565b029392505050565b60006131008383614e8a565b600080600060608486031215614f4c57600080fd5b835192506020840151915060408401516144348161426b565b81810381811115613103576131036146a9565b600082614f8757614f87614709565b500690565b6001600160801b0382811682821603908082111561166e5761166e6146a9565b600282810b9082900b03627fffff198112627fffff82131715613103576131036146a9565b60008251614fe381846020870161439a565b919091019291505056fe5042532d3420496e636f727265637420726562616c616e63655469636b52616e6765a2646970667358221220eda998381e0914356fe1be6e61228a2d081756f7e375cf1d42122ae2fcc1ca0e64736f6c63430008110033",
  "deployedBytecode": "0x73000000000000000000000000000000000000000030146080604052600436106100d45760003560e01c8063a64017d311610086578063a64017d3146101d9578063a7aced09146101ec578063b0a79a53146101ff578063b6fda8131461022e578063bd85be291461024e578063c6f740c11461026e578063f6b4d56b1461028e57600080fd5b8063023d8463146100d95780631738a44d1461010657806328f0aec41461013457806334d2ec3d146101555780637269cb3a146101685780638fb5468e1461018b578063911ec053146101ab575b600080fd5b6100ec6100e7366004613db2565b6102b0565b604080519283526020830191909152015b60405180910390f35b81801561011257600080fd5b50610126610121366004613f0a565b6102cc565b6040516100fd929190613f8b565b610147610142366004613fad565b610a64565b6040519081526020016100fd565b610147610163366004613fd1565b610b5b565b61017b6101763660046140b9565b610d03565b60405190151581526020016100fd565b61019e610199366004613fad565b610fba565b6040516100fd91906140e9565b8180156101b757600080fd5b506101cb6101c6366004614185565b6111c4565b6040516100fd929190614233565b61017b6101e736600461424e565b61140b565b61019e6101fa366004614280565b61147e565b81801561020b57600080fd5b5061021f61021a366004613fad565b611675565b6040516100fd939291906142a5565b81801561023a57600080fd5b5061019e61024936600461431a565b611d71565b61026161025c366004613fad565b61224d565b6040516100fd91906143ea565b81801561027a57600080fd5b5061019e6102893660046143fd565b6123de565b81801561029a57600080fd5b506102ae6102a936600461443f565b6123f5565b005b6000806102bf86868686612bc3565b9150915094509492505050565b6040805161016081018252600081830181905260e0820181905261010082018190526101208201819052610140820181905284546001600160a01b0390811683526003860154600160a81b810460ff1615156020808601919091526031880154606080870191909152600160c81b8304600290810b6080880152600160e01b90930490920b60a0860152603288015490921660c085018190528551635a25139160e11b815295519195939493909263b44a2722926004808401938290030181865afa15801561039f573d6000803e3d6000fd5b505050506040513d601f19601f820116820180604052508101906103c391906144f4565b6001600160a01b031660e082015260408051600280825260608201835290916020830190803683370190505092508360018151811061040457610404614511565b6020026020010151600014610a5c57600080826020015161043b57600287015460038801546001600160a01b039182169116610453565b600387015460028801546001600160a01b0391821691165b915091508260200151156104d4578560018151811061047457610474614511565b60200260200101518660008151811061048f5761048f614511565b6020026020010151876000815181106104aa576104aa614511565b60200260200101886001815181106104c4576104c4614511565b6020908102919091010191909152525b82600001516001600160a01b031663ddca3f436040518163ffffffff1660e01b8152600401602060405180830381865afa158015610516573d6000803e3d6000fd5b505050506040513d601f19601f8201168201806040525081019061053a9190614527565b62ffffff16610100840152606083015115610613576105618360e001518460600151612eae565b600290810b61014086015290810b6101208501819052608085015190910b14158061059b57508260a0015160020b83610140015160020b14155b156106135760c08301516060840151604051630852cd8d60e31b81526001600160a01b03909216916342966c68916105d99160040190815260200190565b600060405180830381600087803b1580156105f357600080fd5b505af1158015610607573d6000803e3d6000fd5b50506000606086015250505b8260600151600003610817578260e001516001600160a01b03166388316456604051806101600160405280856001600160a01b03168152602001846001600160a01b0316815260200186610100015162ffffff168152602001866080015160020b81526020018660a0015160020b81526020018960008151811061069957610699614511565b60200260200101518152602001896001815181106106b9576106b9614511565b602002602001015181526020016000815260200160008152602001306001600160a01b03168152602001428152506040518263ffffffff1660e01b8152600401610703919061454c565b6080604051808303816000875af1158015610722573d6000803e3d6000fd5b505050506040513d601f19601f820116820180604052508101906107469190614610565b86606001876040018a60008151811061076157610761614511565b602002602001018b60018151811061077b5761077b614511565b6020908102919091010193909352929091526001600160801b0390921690525260608301516031880181905560e084015160c0850151604051632142170760e11b81526001600160a01b03909216926342842e0e926107e0923092909160040161464e565b600060405180830381600087803b1580156107fa57600080fd5b505af115801561080e573d6000803e3d6000fd5b5050505061097f565b8260c001516001600160a01b031663219f5d176040518060c00160405280866060015181526020018960008151811061085257610852614511565b602002602001015181526020018960018151811061087257610872614511565b602002602001015181526020016000815260200160008152602001428152506040518263ffffffff1660e01b81526004016108ec9190600060c082019050825182526020830151602083015260408301516040830152606083015160608301526080830151608083015260a083015160a083015292915050565b6060604051808303816000875af115801561090b573d6000803e3d6000fd5b505050506040513d601f19601f8201168201806040525081019061092f9190614672565b856040018860008151811061094657610946614511565b602002602001018960018151811061096057610960614511565b60209081029190910101929092529190526001600160801b0390911690525b60408301516004880180546003906109a8908490630100000090046001600160801b03166146bf565b92506101000a8154816001600160801b0302191690836001600160801b0316021790555082604001516001600160801b03169350826020015115610a5957846001815181106109f9576109f9614511565b602002602001015185600081518110610a1457610a14614511565b602002602001015186600081518110610a2f57610a2f614511565b6020026020010187600181518110610a4957610a49614511565b6020908102919091010191909152525b50505b509250929050565b805460038201546000916001600160a01b03169060ff600160a81b8204169083908190610ab3908590600160c81b8104600290810b91600160e01b8104820b91600160b01b909104900b612f34565b91509150600080610ac686858588612bc3565b90925090506000610ad782846146df565b116040518060400160405280601081526020016f54532d3234207a65726f2076616c756560801b81525090610b285760405162461bcd60e51b8152600401610b1f91906143ea565b60405180910390fd5b50610b3381836146df565b610b4582670de0b6b3a76400006146f2565b610b4f919061471f565b98975050505050505050565b600080846001600160a01b0316634046ebae6040518163ffffffff1660e01b8152600401602060405180830381865afa158015610b9c573d6000803e3d6000fd5b505050506040513d601f19601f82011682018060405250810190610bc091906144f4565b84519091506000805b82811015610cf5576000878281518110610be557610be5614511565b60200260200101519050896001600160a01b0316816001600160a01b031603610c3457868281518110610c1a57610c1a614511565b602002602001015183610c2d91906146df565b9250610ce4565b846001600160a01b031663a9dd14d6898481518110610c5557610c55614511565b60200260200101518c8a8681518110610c7057610c70614511565b60200260200101516040518463ffffffff1660e01b8152600401610c969392919061464e565b602060405180830381865afa158015610cb3573d6000803e3d6000fd5b505050506040513d601f19601f82011682018060405250810190610cd79190614733565b610ce190846146df565b92505b50610cee8161474c565b9050610bc9565b50925050505b949350505050565b815460028301546040805163313ce56760e01b815290516000936001600160a01b0390811693859373__$79fe6ec7a3db45dafbed12dca1c6dad764$__9363556ce728939092169163313ce567916004808201926020929091908290030181865afa158015610d76573d6000803e3d6000fd5b505050506040513d601f19601f82011682018060405250810190610d9a9190614765565b6040516001600160e01b031960e084901b16815260ff9091166004820152602401602060405180830381865af4158015610dd8573d6000803e3d6000fd5b505050506040513d601f19601f82011682018060405250810190610dfc9190614733565b6003860154604051635620c32d60e11b81526001600160a01b0380861660048301529091166024820152909150600090829073__$29d2712aa7583afcff3f55e6f191fb261d$__9063ac41865a90604401602060405180830381865af4158015610e6a573d6000803e3d6000fd5b505050506040513d601f19601f82011682018060405250810190610e8e9190614733565b610e9891906146f2565b905073__$b1ba452cecccdd06eb05ace2d0a762c7e1$__6351265e89878773__$c848fddbd6052cd140bd81f9255b4b9736$__6322b70985886040518263ffffffff1660e01b8152600401610eed9190614788565b602060405180830381865af4158015610f0a573d6000803e3d6000fd5b505050506040513d601f19601f82011682018060405250810190610f2e919061479c565b6040516001600160e01b031960e086901b16815260048101939093526001600160a01b03909116602483015260020b604482015260648101849052608401606060405180830381865af4158015610f89573d6000803e3d6000fd5b505050506040513d601f19601f82011682018060405250810190610fad91906147b9565b5090979650505050505050565b60408051600280825260608083018452926020830190803683375050835460408051633850c7bd60e01b815290519394506000936001600160a01b039092169250633850c7bd9160048083019260e09291908290030181865afa158015611025573d6000803e3d6000fd5b505050506040513d601f19601f820116820180604052508101906110499190614811565b505050506003860154600480880154604051630544f36560e31b815295965073__$29d2712aa7583afcff3f55e6f191fb261d$__95632a279b2895506110bb94508793600160c81b8104600290810b94600160e01b909204900b92630100000090046001600160801b031691016148ac565b6040805180830381865af41580156110d7573d6000803e3d6000fd5b505050506040513d601f19601f820116820180604052508101906110fb91906148df565b8360008151811061110e5761110e614511565b602002602001018460018151811061112857611128614511565b6020908102919091010191909152526003830154600160a81b900460ff16156111be578160018151811061115e5761115e614511565b60200260200101518260008151811061117957611179614511565b60200260200101518360008151811061119457611194614511565b60200260200101846001815181106111ae576111ae614511565b6020908102919091010191909152525b50919050565b60408051808201825260028401546001600160a01b0390811682526003850154166020820152905163bd13c52960e01b81526000916060918883013591908390859073__$b1ba452cecccdd06eb05ace2d0a762c7e1$__9063bd13c5299061123a908f908f908f908f908a908f9060040161490c565b600060405180830381865af4158015611257573d6000803e3d6000fd5b505050506040513d6000823e601f3d908101601f1916820160405261127f9190810190614a1e565b9197509250905080156113225773__$8f1afe7577f9ab973017c74eca19b86f3c$__6326eadaa38e8e60046020020160208101906112bd919061424e565b6040516001600160e01b031960e085901b16815260048101929092526001600160a01b031660248201526044810184905260640160006040518083038186803b15801561130957600080fd5b505af415801561131d573d6000803e3d6000fd5b505050505b6040805182815260208d8101359082015260008183015290517f3715d08a7dcc9d792a5a426f62429b9f889a7b140004f9f85190a48485695cf19181900360600190a1600184148061137c575060028414801561137c5750855b156113fb57875460038901546113bc916001600160a01b031690600160c81b8104600290810b91600160e01b8104820b91600160b01b909104900b612f34565b60038a01805465ffffffffffff60c81b1916600160e01b62ffffff9384160262ffffff60c81b191617600160c81b939092169290920217905590935083905b5050505097509795505050505050565b6000816001600160a01b031663ddca3f436040518163ffffffff1660e01b8152600401602060405180830381865afa15801561144b573d6000803e3d6000fd5b505050506040513d601f19601f8201168201806040525081019061146f9190614527565b62ffffff166064149050919050565b60408051600280825260608083018452926020830190803683375050845460408051633850c7bd60e01b815290519394506000936001600160a01b039092169250633850c7bd9160048083019260e09291908290030181865afa1580156114e9573d6000803e3d6000fd5b505050506040513d601f19601f8201168201806040525081019061150d9190614811565b5050506003880154604051630544f36560e31b815294955073__$29d2712aa7583afcff3f55e6f191fb261d$__94632a279b28945061156b9350869250600160c81b8204600290810b92600160e01b9004900b9089906004016148ac565b6040805180830381865af4158015611587573d6000803e3d6000fd5b505050506040513d601f19601f820116820180604052508101906115ab91906148df565b836000815181106115be576115be614511565b60200260200101846001815181106115d8576115d8614511565b6020908102919091010191909152526003840154600160a81b900460ff161561166e578160018151811061160e5761160e614511565b60200260200101518260008151811061162957611629614511565b60200260200101518360008151811061164457611644614511565b602002602001018460018151811061165e5761165e614511565b6020908102919091010191909152525b5092915050565b60018101546032820154603183015460408051600380825260808201909252606094859485946001600160a01b039283169492909116929091602082018680368337505050600288015481519197506001600160a01b03169087906000906116df576116df614511565b6001600160a01b039283166020918202929092010152600388015487519116908790600190811061171257611712614511565b60200260200101906001600160a01b031690816001600160a01b031681525050816001600160a01b0316634ca6ef286040518163ffffffff1660e01b8152600401602060405180830381865afa158015611770573d6000803e3d6000fd5b505050506040513d601f19601f8201168201806040525081019061179491906144f4565b866002815181106117a7576117a7614511565b6001600160a01b03929092166020928302919091018201526040805160038082526080820190925291820160608036833701905050935060005b865181101561189f578681815181106117fc576117fc614511565b60200260200101516001600160a01b03166370a08231306040518263ffffffff1660e01b815260040161182f9190614788565b602060405180830381865afa15801561184c573d6000803e3d6000fd5b505050506040513d601f19601f820116820180604052508101906118709190614733565b85828151811061188257611882614511565b6020908102919091010152806118978161474c565b9150506117e1565b5060408051600380825260808201909252906020820160608036833701905050945080158015906118e357506004870154630100000090046001600160801b031615155b15611c0157604080516080810182528281523060208201526001600160801b038183018190526060820152905163fc6f786560e01b81526001600160a01b0384169163fc6f7865916119389190600401614a77565b60408051808303816000875af1158015611956573d6000803e3d6000fd5b505050506040513d601f19601f8201168201806040525081019061197a91906148df565b8660008151811061198d5761198d614511565b60200260200101876001815181106119a7576119a7614511565b60200260200101828152508281525050507f487b1b0cd897f57ad5adc43035e166ff445dc5df82a242bef9570c24696848c6856000815181106119ec576119ec614511565b602002602001015186600181518110611a0757611a07614511565b6020026020010151604051611a26929190918252602082015260400190565b60405180910390a16003870154600160a81b900460ff1615611ab55784600181518110611a5557611a55614511565b602002602001015185600081518110611a7057611a70614511565b602002602001015186600081518110611a8b57611a8b614511565b6020026020010187600181518110611aa557611aa5614511565b6020908102919091010191909152525b611ac182826000612f5e565b50611b6c86600281518110611ad857611ad8614511565b60200260200101516001600160a01b03166370a08231306040518263ffffffff1660e01b8152600401611b0b9190614788565b602060405180830381865afa158015611b28573d6000803e3d6000fd5b505050506040513d601f19601f82011682018060405250810190611b4c9190614733565b85600281518110611b5f57611b5f614511565b60200260200101516130e6565b85600281518110611b7f57611b7f614511565b60200260200101818152505084600281518110611b9e57611b9e614511565b6020026020010151600014611c01577ff078afc293bb2ef2040ee671179378c81a5adb16f39489d0cc49624e3e71611685600281518110611be157611be1614511565b6020026020010151604051611bf891815260200190565b60405180910390a15b60005b8651811015611d66576000878281518110611c2157611c21614511565b60200260200101516001600160a01b03166370a08231866040518263ffffffff1660e01b8152600401611c549190614788565b602060405180830381865afa158015611c71573d6000803e3d6000fd5b505050506040513d601f19601f82011682018060405250810190611c959190614733565b90508015611d5557878281518110611caf57611caf614511565b60200260200101516001600160a01b03166323b872dd8630846040518463ffffffff1660e01b8152600401611ce69392919061464e565b6020604051808303816000875af1158015611d05573d6000803e3d6000fd5b505050506040513d601f19601f82011682018060405250810190611d299190614aba565b5080878381518110611d3d57611d3d614511565b60200260200101818151611d5191906146df565b9052505b50611d5f8161474c565b9050611c04565b505050509193909250565b6060611d7b613c7f565b611d9381611d8c60208b018b61424e565b8b86613109565b61014081015160408083015160038c01549151635620c32d60e11b81526001600160a01b0391821660048201529116602482015273__$29d2712aa7583afcff3f55e6f191fb261d$__9063ac41865a90604401602060405180830381865af4158015611e03573d6000803e3d6000fd5b505050506040513d601f19601f82011682018060405250810190611e279190614733565b611e3191906146f2565b61012082015260408082015190516322b7098560e01b8152600091829173__$c848fddbd6052cd140bd81f9255b4b9736$__916322b7098591611e779190600401614788565b602060405180830381865af4158015611e94573d6000803e3d6000fd5b505050506040513d601f19601f82011682018060405250810190611eb8919061479c565b60208401516101208501516040516351265e8960e01b8152600481018f90526001600160a01b039092166024830152600283900b6044830152606482015290915073__$b1ba452cecccdd06eb05ace2d0a762c7e1$__906351265e8990608401606060405180830381865af4158015611f35573d6000803e3d6000fd5b505050506040513d601f19601f82011682018060405250810190611f5991906147b9565b8560e0018661010001826003811115611f7457611f74614ad7565b6003811115611f8557611f85614ad7565b9052911515909152509150811561200b5773__$b1ba452cecccdd06eb05ace2d0a762c7e1$__634aa009158c8560e001518661010001516040518463ffffffff1660e01b8152600401611fda93929190614aed565b60006040518083038186803b158015611ff257600080fd5b505af4158015612006573d6000803e3d6000fd5b505050505b8515806120155750815b604051806040016040528060188152602001771414cb4e48139bc81c9958985b185b98d9481b995959195960421b815250906120645760405162461bcd60e51b8152600401610b1f91906143ea565b50811561223e5773__$c848fddbd6052cd140bd81f9255b4b9736$__63e4ee4bf78b8d8b8d8c8960c00151886040518863ffffffff1660e01b81526004016120b29796959493929190614b51565b60006040518083038186803b1580156120ca57600080fd5b505af41580156120de573d6000803e3d6000fd5b50505050600073__$8f1afe7577f9ab973017c74eca19b86f3c$__63ac2a37d685602001518c876060015188608001518960c001516040518663ffffffff1660e01b8152600401612133959493929190614bd7565b600060405180830381865af4158015612150573d6000803e3d6000fd5b505050506040513d6000823e601f3d908101601f191682016040526121789190810190614c0b565b9550905080156121fc576040516326eadaa360e01b8152600481018e90526001600160a01b03891660248201526044810182905273__$8f1afe7577f9ab973017c74eca19b86f3c$__906326eadaa39060640160006040518083038186803b1580156121e357600080fd5b505af41580156121f7573d6000803e3d6000fd5b505050505b60408051828152602081018b905260008183015290517f83387a3342ff1ebc5e437dc9ae0f98274afda12a11cf547eebec05a3e0b8f8a79181900360600190a1505b50505098975050505050505050565b6002810154604080516395d89b4160e01b815290516060926001600160a01b0316916395d89b419160048083019260009291908290030181865afa158015612299573d6000803e3d6000fd5b505050506040513d6000823e601f3d908101601f191682016040526122c19190810190614c47565b8260030160009054906101000a90046001600160a01b03166001600160a01b03166395d89b416040518163ffffffff1660e01b8152600401600060405180830381865afa158015612316573d6000803e3d6000fd5b505050506040513d6000823e601f3d908101601f1916820160405261233e9190810190614c47565b83546040805163ddca3f4360e01b815290516123b6926001600160a01b03169163ddca3f439160048083019260209291908290030181865afa158015612388573d6000803e3d6000fd5b505050506040513d601f19601f820116820180604052508101906123ac9190614527565b62ffffff16613300565b6040516020016123c893929190614cbd565b6040516020818303038152906040529050919050565b60606123eb848484613400565b90505b9392505050565b600085600160200201516001600160a01b031614156040518060400160405280601181526020017054532d31207a65726f206164647265737360781b815250906124525760405162461bcd60e51b8152600401610b1f91906143ea565b50600085600160200201516001600160a01b0316630dfe16816040518163ffffffff1660e01b8152600401602060405180830381865afa15801561249a573d6000803e3d6000fd5b505050506040513d601f19601f820116820180604052508101906124be91906144f4565b9050600086600160200201516001600160a01b031663d21220a76040518163ffffffff1660e01b8152600401602060405180830381865afa158015612507573d6000803e3d6000fd5b505050506040513d601f19601f8201168201806040525081019061252b91906144f4565b9050612535613ce5565b6020880151604051631e64869f60e11b815260009173__$29d2712aa7583afcff3f55e6f191fb261d$__91633cc90d3e9161257291600401614788565b602060405180830381865af415801561258f573d6000803e3d6000fd5b505050506040513d601f19601f820116820180604052508101906125b3919061479c565b90508760020b60001461268857806125cb818a614d30565b6125d59190614d6a565b60020b8860020b146040518060400160405280601981526020017f5042532d3320496e636f7272656374207469636b52616e676500000000000000815250906126315760405162461bcd60e51b8152600401610b1f91906143ea565b508061263d8189614d30565b6126479190614d6a565b60020b8760020b14604051806060016040528060228152602001614fee60229139906126865760405162461bcd60e51b8152600401610b1f91906143ea565b505b600281810b80845260208b015160405163362ad1e560e11b81526001600160a01b039091166004820152918a900b6024830152604482015273__$c848fddbd6052cd140bd81f9255b4b9736$__90636c55a3ca906064016040805180830381865af41580156126fb573d6000803e3d6000fd5b505050506040513d601f19601f8201168201806040525081019061271f9190614d8a565b600290810b60408086019190915291810b6020808601919091529089900b60608501528a8201518251635a25139160e11b815292519093506000926001600160a01b0385169263b44a2722926004808401938290030181865afa15801561278a573d6000803e3d6000fd5b505050506040513d601f19601f820116820180604052508101906127ae91906144f4565b60328c0180546001600160a01b0319166001600160a01b03858116919091179091556040805160808101825260208e81018051851683528c8516918301919091528984169282019290925291871660608301525191925073__$b1ba452cecccdd06eb05ace2d0a762c7e1$__9163b8b4a449918e91879061282e9061140b565b8b6040518663ffffffff1660e01b815260040161284f959493929190614db9565b60006040518083038186803b15801561286757600080fd5b505af415801561287b573d6000803e3d6000fd5b5050505060008a60006003811061289457612894614511565b60200201516001600160a01b0316634046ebae6040518163ffffffff1660e01b8152600401602060405180830381865afa1580156128d6573d6000803e3d6000fd5b505050506040513d601f19601f820116820180604052508101906128fa91906144f4565b60405163095ea7b360e01b81529091506001600160a01b0387169063095ea7b39061292d90849060001990600401614e36565b6020604051808303816000875af115801561294c573d6000803e3d6000fd5b505050506040513d601f19601f820116820180604052508101906129709190614aba565b5060405163095ea7b360e01b81526001600160a01b0386169063095ea7b3906129a190849060001990600401614e36565b6020604051808303816000875af11580156129c0573d6000803e3d6000fd5b505050506040513d601f19601f820116820180604052508101906129e49190614aba565b5060405163095ea7b360e01b81526001600160a01b0387169063095ea7b390612a1590859060001990600401614e36565b6020604051808303816000875af1158015612a34573d6000803e3d6000fd5b505050506040513d601f19601f82011682018060405250810190612a589190614aba565b5060405163095ea7b360e01b81526001600160a01b0386169063095ea7b390612a8990859060001990600401614e36565b6020604051808303816000875af1158015612aa8573d6000803e3d6000fd5b505050506040513d601f19601f82011682018060405250810190612acc9190614aba565b5060405163095ea7b360e01b81526001600160a01b0387169063095ea7b390612afd90869060001990600401614e36565b6020604051808303816000875af1158015612b1c573d6000803e3d6000fd5b505050506040513d601f19601f82011682018060405250810190612b409190614aba565b5060405163095ea7b360e01b81526001600160a01b0386169063095ea7b390612b7190869060001990600401614e36565b6020604051808303816000875af1158015612b90573d6000803e3d6000fd5b505050506040513d601f19601f82011682018060405250810190612bb49190614aba565b50505050505050505050505050565b6000806000866001600160a01b031663d21220a76040518163ffffffff1660e01b8152600401602060405180830381865afa158015612c06573d6000803e3d6000fd5b505050506040513d601f19601f82011682018060405250810190612c2a91906144f4565b604051635620c32d60e11b81526001600160a01b03808a1660048301528216602482015290915060009073__$29d2712aa7583afcff3f55e6f191fb261d$__9063ac41865a90604401602060405180830381865af4158015612c90573d6000803e3d6000fd5b505050506040513d601f19601f82011682018060405250810190612cb49190614733565b90506000826001600160a01b031663313ce5676040518163ffffffff1660e01b8152600401602060405180830381865afa158015612cf6573d6000803e3d6000fd5b505050506040513d601f19601f82011682018060405250810190612d1a9190614765565b60ff169050816000612d2d83600a614f2b565b60408051808201909152601081526f54532d3234207a65726f2076616c756560801b602082015290915081612d755760405162461bcd60e51b8152600401610b1f91906143ea565b506040516305f08b0f60e21b81526001600160a01b038c16600482015260028b810b60248301528a900b60448201526064810183905260848101829052600090819073__$29d2712aa7583afcff3f55e6f191fb261d$__906317c22c3c9060a401606060405180830381865af4158015612df3573d6000803e3d6000fd5b505050506040513d601f19601f82011682018060405250810190612e179190614f37565b509150915089612e6057612e3382670de0b6b3a76400006146f2565b8387612e4784670de0b6b3a76400006146f2565b612e5191906146f2565b612e5b919061471f565b612e9a565b8286612e7483670de0b6b3a76400006146f2565b612e7e91906146f2565b612e88919061471f565b612e9a83670de0b6b3a76400006146f2565b985098505050505050505094509492505050565b6000807f99fbab885187bcfe4f5c2bdaac5378bc1b291f6ce1a47d140d5ffc701bf1eb55612eda613d03565b604051828152856004820152610180816024838a5afa80612efa57600080fd5b5060005b600c811015612f1b57602081028281015190840152600101612efe565b505060a081015160c09091015190969095509350505050565b6000806000612f42876138c6565b9050612f5081878787613937565b925092505094509492505050565b604051630c7e663b60e11b8152600481018390523060248201526000906001600160a01b038516906318fccc76906044016020604051808303816000875af1925050508015612fca575060408051601f3d908101601f19168201909252612fc791810190614733565b60015b156123ee576000856001600160a01b0316634ca6ef286040518163ffffffff1660e01b8152600401602060405180830381865afa15801561300f573d6000803e3d6000fd5b505050506040513d601f19601f8201168201806040525081019061303391906144f4565b90506130ab82826001600160a01b03166370a08231306040518263ffffffff1660e01b81526004016130659190614788565b602060405180830381865afa158015613082573d6000803e3d6000fd5b505050506040513d601f19601f820116820180604052508101906130a69190614733565b613a01565b92506001600160a01b038416158015906130c457508215155b156130dd576130dd6001600160a01b0382168585613a17565b50509392505050565b60008183116130f6576000613100565b6131008284614f65565b90505b92915050565b81546001600160a01b0316604080860191909152805160608101909152600583018054829060ff16600381111561314257613142614ad7565b600381111561315357613153614ad7565b815260408051608081019182905260209092019190600184019060049082845b81548152602001906001019080831161317357505050918352505060408051608081019182905260209092019190600584019060049082845b8154815260200190600101908083116131ac575050509190925250505084526001600160a01b03838116602080870191909152600284015482166060870181905260038501549283166080880152600160a01b90920460ff16151560a08701526000918252829052604090205461322290613a72565b60c08501515260808401516001600160a01b031660009081526020829052604090205461324e90613a72565b60c08501516001602002018181525050600084606001516001600160a01b031663313ce5676040518163ffffffff1660e01b8152600401602060405180830381865afa1580156132a2573d6000803e3d6000fd5b505050506040513d601f19601f820116820180604052508101906132c69190614765565b60ff169050601281106132da5760016132f0565b6132e5816012614f65565b6132f090600a614f2b565b6101409095019490945250505050565b6060816000036133275750506040805180820190915260018152600360fc1b602082015290565b8160005b8115613351578061333b8161474c565b915061334a9050600a8361471f565b915061332b565b6000816001600160401b0381111561336b5761336b613e0e565b6040519080825280601f01601f191660200182016040528015613395576020820181803683370190505b5090505b8415610cfb576133aa600183614f65565b91506133b7600a86614f78565b6133c29060306146df565b60f81b8183815181106133d7576133d7614511565b60200101906001600160f81b031916908160001a9053506133f9600a8661471f565b9450613399565b6040805160028082526060808301845292602083019080368337019050506040805160a0810182526000818301819052608082015260328701546001600160a01b03908116606083015260018801541681526004870154630100000090046001600160801b0390811660208084018290528451808601909552601485527350532d372057726f6e67206c697175696469747960601b90850152939450909290861611156134c05760405162461bcd60e51b8152600401610b1f91906143ea565b5060318501546080820152826134ed576134e7816060015182608001518360000151612f5e565b60408201525b6060808201516040805160a08101825260808086015182526001600160801b03808a16602084019081526000848601818152978501908152429385019384529451630624e65f60e11b815293516004850152511660248301529351604482015290516064820152915160848301526001600160a01b031690630c49ccbe9060a40160408051808303816000875af115801561358c573d6000803e3d6000fd5b505050506040513d601f19601f820116820180604052508101906135b091906148df565b836000815181106135c3576135c3614511565b60200260200101846001815181106135dd576135dd614511565b602002602001018281525082815250505060008082606001516001600160a01b031663fc6f7865604051806080016040528086608001518152602001306001600160a01b031681526020016001600160801b03801681526020016001600160801b0380168152506040518263ffffffff1660e01b81526004016136609190614a77565b60408051808303816000875af115801561367e573d6000803e3d6000fd5b505050506040513d601f19601f820116820180604052508101906136a291906148df565b9150915060006136bf8386600081518110611b5f57611b5f614511565b905060006136da8387600181518110611b5f57611b5f614511565b60408051848152602081018390529192507f487b1b0cd897f57ad5adc43035e166ff445dc5df82a242bef9570c24696848c6910160405180910390a16003890154600160a81b900460ff161561379e578560018151811061373d5761373d614511565b60200260200101518660008151811061375857613758614511565b60200260200101518760008151811061377357613773614511565b602002602001018860018151811061378d5761378d614511565b602090810291909101019190915252905b81156137c157845160028a01546137c1916001600160a01b039091169084613a17565b80156137e457845160038a01546137e4916001600160a01b039091169083613a17565b87856020018181516137f69190614f8c565b6001600160801b03908116909152602087015160048c01805472ffffffffffffffffffffffffffffffff00000019166301000000929093169182029290921790915560000390506138ba57866138b25760608501516080860151604051630852cd8d60e31b81526001600160a01b03909216916342966c689161387f9160040190815260200190565b600060405180830381600087803b15801561389957600080fd5b505af11580156138ad573d6000803e3d6000fd5b505050505b600060318a01555b50505050509392505050565b6000816001600160a01b0316633850c7bd6040518163ffffffff1660e01b815260040160e060405180830381865afa158015613906573d6000803e3d6000fd5b505050506040513d601f19601f8201168201806040525081019061392a9190614811565b5093979650505050505050565b600080806139458686614fac565b905060008460020b8260020b1461396657613961600283614d30565b613969565b60005b60405163cd8e20e760e01b815260028a810b600483015282810b602483015287900b604482015290915073__$b1ba452cecccdd06eb05ace2d0a762c7e1$__9063cd8e20e7906064016040805180830381865af41580156139ce573d6000803e3d6000fd5b505050506040513d601f19601f820116820180604052508101906139f29190614d8a565b93509350505094509492505050565b6000818310613a105781613100565b5090919050565b613a6d8363a9059cbb60e01b8484604051602401613a36929190614e36565b60408051601f198184030181529190526020810180516001600160e01b03166001600160e01b031990931692909217909152613a8a565b505050565b60008115613a805781613103565b620186a092915050565b6000613adf826040518060400160405280602081526020017f5361666545524332303a206c6f772d6c6576656c2063616c6c206661696c6564815250856001600160a01b0316613b5c9092919063ffffffff16565b805190915015613a6d5780806020019051810190613afd9190614aba565b613a6d5760405162461bcd60e51b815260206004820152602a60248201527f5361666545524332303a204552433230206f7065726174696f6e20646964206e6044820152691bdd081cdd58d8d9595960b21b6064820152608401610b1f565b60606123eb848460008585600080866001600160a01b03168587604051613b839190614fd1565b60006040518083038185875af1925050503d8060008114613bc0576040519150601f19603f3d011682016040523d82523d6000602084013e613bc5565b606091505b5091509150613bd687838387613be1565b979650505050505050565b60608315613c50578251600003613c49576001600160a01b0385163b613c495760405162461bcd60e51b815260206004820152601d60248201527f416464726573733a2063616c6c20746f206e6f6e2d636f6e74726163740000006044820152606401610b1f565b5081610cfb565b610cfb8383815115613c655781518083602001fd5b8060405162461bcd60e51b8152600401610b1f91906143ea565b604051806101600160405280613c93613d22565b815260006020820181905260408201819052606082018190526080820181905260a082015260c001613cc3613d4f565b8152600060208201819052604082018190526060820181905260809091015290565b60405180608001604052806004906020820280368337509192915050565b604051806101800160405280600c906020820280368337509192915050565b60408051606081019091528060008152602001613d3d613ce5565b8152602001613d4a613ce5565b905290565b60405180604001604052806002906020820280368337509192915050565b6001600160a01b0381168114613d8257600080fd5b50565b8060020b8114613d8257600080fd5b8035613d9f81613d85565b919050565b8015158114613d8257600080fd5b60008060008060808587031215613dc857600080fd5b8435613dd381613d6d565b93506020850135613de381613d85565b92506040850135613df381613d85565b91506060850135613e0381613da4565b939692955090935050565b634e487b7160e01b600052604160045260246000fd5b604051606081016001600160401b0381118282101715613e4657613e46613e0e565b60405290565b604051601f8201601f191681016001600160401b0381118282101715613e7457613e74613e0e565b604052919050565b60006001600160401b03821115613e9557613e95613e0e565b5060051b60200190565b600082601f830112613eb057600080fd5b81356020613ec5613ec083613e7c565b613e4c565b82815260059290921b84018101918181019086841115613ee457600080fd5b8286015b84811015613eff5780358352918301918301613ee8565b509695505050505050565b60008060408385031215613f1d57600080fd5b8235915060208301356001600160401b03811115613f3a57600080fd5b613f4685828601613e9f565b9150509250929050565b600081518084526020808501945080840160005b83811015613f8057815187529582019590820190600101613f64565b509495945050505050565b604081526000613f9e6040830185613f50565b90508260208301529392505050565b600060208284031215613fbf57600080fd5b5035919050565b8035613d9f81613d6d565b60008060008060808587031215613fe757600080fd5b8435613ff281613d6d565b935060208581013561400381613d6d565b935060408601356001600160401b038082111561401f57600080fd5b818801915088601f83011261403357600080fd5b8135614041613ec082613e7c565b81815260059190911b8301840190848101908b83111561406057600080fd5b938501935b8285101561408757843561407881613d6d565b82529385019390850190614065565b96505050606088013592508083111561409f57600080fd5b50506140ad87828801613e9f565b91505092959194509250565b600080604083850312156140cc57600080fd5b8235915060208301356140de81613d6d565b809150509250929050565b6020815260006131006020830184613f50565b806080810183101561310357600080fd5b60006001600160401b0382111561412657614126613e0e565b50601f01601f191660200190565b600082601f83011261414557600080fd5b8135614153613ec08261410d565b81815284602083860101111561416857600080fd5b816020850160208301376000918101602001919091529392505050565b60008060008060008060006101c0888a0312156141a157600080fd5b8735965060c08801898111156141b657600080fd5b6020890196506141c68a826140fc565b9550506101408801356001600160401b03808211156141e457600080fd5b6141f08b838c01614134565b95506101608a013591508082111561420757600080fd5b506142148a828b01614134565b93505061018088013591506101a0880135905092959891949750929550565b82151581526040602082015260006123eb6040830184613f50565b60006020828403121561426057600080fd5b81356123ee81613d6d565b6001600160801b0381168114613d8257600080fd5b6000806040838503121561429357600080fd5b8235915060208301356140de8161426b565b606080825284519082018190526000906020906080840190828801845b828110156142e75781516001600160a01b0316845292840192908401906001016142c2565b505050838103828501526142fb8187613f50565b91505082810360408401526143108185613f50565b9695505050505050565b600080600080600080600080610120898b03121561433757600080fd5b8835975060208901359650608089018a81111561435357600080fd5b60408a01965035945060a0890135935060c089013561437181613d6d565b925060e089013561438181613da4565b8092505061010089013590509295985092959890939650565b60005b838110156143b557818101518382015260200161439d565b50506000910152565b600081518084526143d681602086016020860161439a565b601f01601f19169290920160200192915050565b60208152600061310060208301846143be565b60008060006060848603121561441257600080fd5b8335925060208401356144248161426b565b9150604084013561443481613da4565b809150509250925092565b600080600080600080610160878903121561445957600080fd5b86359550602088603f89011261446e57600080fd5b614476613e24565b8060808a018b81111561448857600080fd5b838b015b818110156144ac57803561449f81613d6d565b845292840192840161448c565b508198506144b981613d94565b9750505050506144cb60a08801613d94565b92506144d960c08801613fc6565b91506144e88860e089016140fc565b90509295509295509295565b60006020828403121561450657600080fd5b81516123ee81613d6d565b634e487b7160e01b600052603260045260246000fd5b60006020828403121561453957600080fd5b815162ffffff811681146123ee57600080fd5b81516001600160a01b031681526101608101602083015161457860208401826001600160a01b03169052565b50604083015161458f604084018262ffffff169052565b5060608301516145a4606084018260020b9052565b5060808301516145b9608084018260020b9052565b5060a083015160a083015260c083015160c083015260e083015160e0830152610100808401518184015250610120808401516145ff828501826001600160a01b03169052565b505061014092830151919092015290565b6000806000806080858703121561462657600080fd5b8451935060208501516146388161426b565b6040860151606090960151949790965092505050565b6001600160a01b039384168152919092166020820152604081019190915260600190565b60008060006060848603121561468757600080fd5b83516146928161426b565b602085015160409095015190969495509392505050565b634e487b7160e01b600052601160045260246000fd5b6001600160801b0381811683821601908082111561166e5761166e6146a9565b80820180821115613103576131036146a9565b8082028115828204841417613103576131036146a9565b634e487b7160e01b600052601260045260246000fd5b60008261472e5761472e614709565b500490565b60006020828403121561474557600080fd5b5051919050565b60006001820161475e5761475e6146a9565b5060010190565b60006020828403121561477757600080fd5b815160ff811681146123ee57600080fd5b6001600160a01b0391909116815260200190565b6000602082840312156147ae57600080fd5b81516123ee81613d85565b6000806000606084860312156147ce57600080fd5b83516147d981613da4565b60208501519093506147ea81613da4565b60408501519092506004811061443457600080fd5b805161ffff81168114613d9f57600080fd5b600080600080600080600060e0888a03121561482c57600080fd5b875161483781613d6d565b602089015190975061484881613d85565b9550614856604089016147ff565b9450614864606089016147ff565b9350614872608089016147ff565b925060a088015163ffffffff8116811461488b57600080fd5b60c089015190925061489c81613da4565b8091505092959891949750929550565b6001600160a01b03949094168452600292830b6020850152910b60408301526001600160801b0316606082015260800190565b600080604083850312156148f257600080fd5b505080516020909101519092909150565b60808183375050565b60006101c08289835b600581101561494757813561492981613d6d565b6001600160a01b031683526020928301929190910190600101614915565b50505060808860a085013780610120840152614965818401886143be565b905082810361014084015261497a81876143be565b91505061016082018460005b60028110156149ae5781516001600160a01b0316835260209283019290910190600101614986565b505050826101a0830152979650505050505050565b600082601f8301126149d457600080fd5b815160206149e4613ec083613e7c565b82815260059290921b84018101918181019086841115614a0357600080fd5b8286015b84811015613eff5780518352918301918301614a07565b600080600060608486031215614a3357600080fd5b8351614a3e81613da4565b60208501519093506001600160401b03811115614a5a57600080fd5b614a66868287016149c3565b925050604084015190509250925092565b815181526020808301516001600160a01b0316908201526040808301516001600160801b0390811691830191909152606092830151169181019190915260800190565b600060208284031215614acc57600080fd5b81516123ee81613da4565b634e487b7160e01b600052602160045260246000fd5b83815282151560208201526060810160048310614b1a57634e487b7160e01b600052602160045260246000fd5b826040830152949350505050565b8060005b6002811015614b4b578151845260209384019390910190600101614b2c565b50505050565b6101208101818960005b6002811015614b8d578135614b6f81613d6d565b6001600160a01b031683526020928301929190910190600101614b5b565b5050506040820188905260608201879052608082018690526001600160a01b03851660a0830152614bc160c0830185614b28565b8260020b61010083015298975050505050505050565b6001600160a01b0386811682526020820186905284811660408301528316606082015260c081016143106080830184614b28565b60008060408385031215614c1e57600080fd5b8251915060208301516001600160401b03811115614c3b57600080fd5b613f46858286016149c3565b600060208284031215614c5957600080fd5b81516001600160401b03811115614c6f57600080fd5b8201601f81018413614c8057600080fd5b8051614c8e613ec08261410d565b818152856020838501011115614ca357600080fd5b614cb482602083016020860161439a565b95945050505050565b6702830b731b0b5b2960c51b815260008451614ce081600885016020890161439a565b602f60f81b6008918401918201528451614d0181600984016020890161439a565b602d60f81b600992909101918201528351614d2381600a84016020880161439a565b01600a0195945050505050565b60008160020b8360020b80614d4757614d47614709565b627fffff19821460001982141615614d6157614d616146a9565b90059392505050565b60008260020b8260020b028060020b915080821461166e5761166e6146a9565b60008060408385031215614d9d57600080fd5b8251614da881613d85565b60208401519092506140de81613d85565b8581526101c0810160208083018760005b6004811015614df05781516001600160a01b031683529183019190830190600101614dca565b50505060a083018660005b6004811015614e1b57815160020b83529183019190830190600101614dfb565b50505050831515610120830152614310610140830184614903565b6001600160a01b03929092168252602082015260400190565b600181815b80851115610a5c578160001904821115614e7057614e706146a9565b80851615614e7d57918102915b93841c9390800290614e54565b600082614e9957506001613103565b81614ea657506000613103565b8160018114614ebc5760028114614ec657614ee2565b6001915050613103565b60ff841115614ed757614ed76146a9565b50506001821b613103565b5060208310610133831016604e8410600b8410161715614f05575081810a613103565b614f0f8383614e4f565b8060001904821115614f2357614f236146a9565b029392505050565b60006131008383614e8a565b600080600060608486031215614f4c57600080fd5b835192506020840151915060408401516144348161426b565b81810381811115613103576131036146a9565b600082614f8757614f87614709565b500690565b6001600160801b0382811682821603908082111561166e5761166e6146a9565b600282810b9082900b03627fffff198112627fffff82131715613103576131036146a9565b60008251614fe381846020870161439a565b919091019291505056fe5042532d3420496e636f727265637420726562616c616e63655469636b52616e6765a2646970667358221220eda998381e0914356fe1be6e61228a2d081756f7e375cf1d42122ae2fcc1ca0e64736f6c63430008110033",
  "libraries": {
    "PancakeLib": "0x718c55da958581cF36cB2fF516cd85f4F60eabF2",
    "PancakeDebtLib": "0x3a13F2Cd361403855Db53e1DA935acdE97616a4C",
    "ConverterStrategyBaseLib2": "0x3C8012f85910eef30d280F12Cda29eDdf9ca5D43",
    "PairBasedStrategyLogicLib": "0x32A7a29AdfD04A82683585D7A58A21fE3c988462",
    "PairBasedStrategyLib": "0x263830dC01d74c31483d3cFC04c9E4E5741eC7D7"
  },
  "devdoc": {
    "kind": "dev",
    "methods": {
      "claimRewards(PancakeConverterStrategyLogicLib.State storage)": {
        "returns": {
          "amountsOut": "An array containing the amounts of token0 and token1 claimed as rewards.",
          "tokensOut": "An array containing tokenA and tokenB."
        }
      },
      "enter(PancakeConverterStrategyLogicLib.State storage,uint256[])": {
        "params": {
          "amountsDesired_": "An array containing the desired amounts of tokens to provide liquidity."
        },
        "returns": {
          "amountsConsumed": "An array containing the consumed amounts for each token in the pool.",
          "liquidityOut": "The amount of liquidity added to the pool."
        }
      },
      "exit(PancakeConverterStrategyLogicLib.State storage,uint128,bool)": {
        "params": {
          "emergency": "Emergency exit (only withdraw, don't claim any rewards or make any other additional actions)",
          "liquidityAmountToExit": "The amount of liquidity to exit.",
          "state": "The State storage object."
        },
        "returns": {
          "amountsOut": "An array containing the collected amounts for each token in the pool."
        }
      },
      "getEntryDataProportions(IPancakeV3Pool,int24,int24,bool)": {
        "params": {
          "depositorSwapTokens": "A boolean indicating if need to use token B instead of token A.",
          "lowerTick": "The lower tick of the pool's main range.",
          "pool": "Pool instance.",
          "upperTick": "The upper tick of the pool's main range."
        },
        "returns": {
          "_0": "prop0 Proportion onf token A. Any decimals are allowed, prop[0 or 1]/(prop0 + prop1) are important only",
          "_1": "prop1 Proportion onf token B. Any decimals are allowed, prop[0 or 1]/(prop0 + prop1) are important only"
        }
      },
      "getPoolReserves(PairBasedStrategyLogicLib.PairState storage)": {
        "params": {
          "pairState": "The State storage containing the pool's information."
        },
        "returns": {
          "reserves": "An array containing the reserve amounts of the contract owned liquidity."
        }
      },
      "initStrategyState(PancakeConverterStrategyLogicLib.State storage,address[3],int24,int24,address,uint256[4])": {
        "params": {
          "controllerPoolChef": "[controller, pool, master chef v3]",
          "fuseThresholds": "Fuse thresholds for tokens (stable pool only)"
        }
      },
      "isStablePool(IPancakeV3Pool)": {
        "params": {
          "pool": "The Uniswap V3 pool."
        },
        "returns": {
          "_0": "A boolean indicating if the pool is stable."
        }
      },
      "needStrategyRebalance(PairBasedStrategyLogicLib.PairState storage,ITetuConverter)": {
        "returns": {
          "needRebalance": "A boolean indicating if {rebalanceNoSwaps} should be called"
        }
      },
      "quoteExit(PairBasedStrategyLogicLib.PairState storage,uint128)": {
        "params": {
          "liquidityAmountToExit": "The amount of liquidity to exit."
        },
        "returns": {
          "amountsOut": "An array containing the estimated exit amounts for each token in the pool."
        }
      },
      "rebalanceNoSwaps(IConverterStrategyBase.ConverterStrategyBaseState storage,PairBasedStrategyLogicLib.PairState storage,address[2],uint256,uint256,address,bool,mapping(address => uint256) storage)": {
        "params": {
          "checkNeedRebalance_": "True if the function should ensure that the rebalance is required",
          "converterLiquidator": "[TetuConverter, TetuLiquidator]",
          "totalAssets_": "Current value of totalAssets()"
        },
        "returns": {
          "tokenAmounts": "Token amounts for deposit. If length == 0 - rebalance wasn't made and no deposit is required."
        }
      },
      "withdrawByAggStep(IConverterStrategyBase.ConverterStrategyBaseState storage,address[5],uint256[4],bytes,bytes,PairBasedStrategyLogicLib.PairState storage,mapping(address => uint256) storage)": {
        "params": {
          "addr_": "[tokenToSwap, aggregator, controller, converter, splitter]",
          "values_": "[amountToSwap_, profitToCover, oldTotalAssets, entryToPool]"
        },
        "returns": {
          "completed": "All debts were closed, leftovers were swapped to proper proportions",
          "tokenAmountsOut": "Amounts to be deposited to pool. This array is empty if no deposit allowed/required."
        }
      }
    },
    "version": 1
  },
  "userdoc": {
    "kind": "user",
    "methods": {
      "claimRewards(PancakeConverterStrategyLogicLib.State storage)": {
        "notice": "Claim rewards from the Pancake V3 pool."
      },
      "enter(PancakeConverterStrategyLogicLib.State storage,uint256[])": {
        "notice": "Enter the pool and provide liquidity with desired token amounts."
      },
      "exit(PancakeConverterStrategyLogicLib.State storage,uint128,bool)": {
        "notice": "Exit the pool and collect tokens proportional to the liquidity amount to exit."
      },
      "getEntryDataProportions(IPancakeV3Pool,int24,int24,bool)": {
        "notice": "Calculate proportions of the tokens for entry kind 1"
      },
      "getPoolReserves(PairBasedStrategyLogicLib.PairState storage)": {
        "notice": "Retrieve the reserves of a Uniswap V3 pool managed by this contract."
      },
      "getPropNotUnderlying18(PairBasedStrategyLogicLib.PairState storage)": {
        "notice": "Get proportion of not-underlying in the pool, [0...1e18]         prop.underlying : prop.not.underlying = 1e18 - PropNotUnderlying18 : propNotUnderlying18"
      },
      "isStablePool(IPancakeV3Pool)": {
        "notice": "Check if the given pool is a stable pool."
      },
      "needStrategyRebalance(PairBasedStrategyLogicLib.PairState storage,ITetuConverter)": {
        "notice": "Determine if the strategy needs to be rebalanced."
      },
      "quoteExit(PairBasedStrategyLogicLib.PairState storage,uint128)": {
        "notice": "Estimate the exit amounts for a given liquidity amount in a PancakeSwap V3 pool."
      },
      "rebalanceNoSwaps(IConverterStrategyBase.ConverterStrategyBaseState storage,PairBasedStrategyLogicLib.PairState storage,address[2],uint256,uint256,address,bool,mapping(address => uint256) storage)": {
        "notice": "Make rebalance without swaps (using borrowing only)."
      },
      "withdrawByAggStep(IConverterStrategyBase.ConverterStrategyBaseState storage,address[5],uint256[4],bytes,bytes,PairBasedStrategyLogicLib.PairState storage,mapping(address => uint256) storage)": {
        "notice": "Calculate amounts to be deposited to pool, update pairState.lower/upperTick, fix loss / profitToCover"
      }
    },
    "version": 1
  },
  "storageLayout": {
    "storage": [],
    "types": null
  }
}