{
  "address": "0x718c55da958581cF36cB2fF516cd85f4F60eabF2",
  "abi": [
    {
      "inputs": [
        {
          "internalType": "address",
          "name": "pool_",
          "type": "address"
        },
        {
          "internalType": "int24",
          "name": "lowerTick_",
          "type": "int24"
        },
        {
          "internalType": "int24",
          "name": "upperTick_",
          "type": "int24"
        },
        {
          "internalType": "uint256",
          "name": "amount0Desired_",
          "type": "uint256"
        },
        {
          "internalType": "uint256",
          "name": "amount1Desired_",
          "type": "uint256"
        }
      ],
      "name": "addLiquidityPreview",
      "outputs": [
        {
          "internalType": "uint256",
          "name": "amount0Consumed",
          "type": "uint256"
        },
        {
          "internalType": "uint256",
          "name": "amount1Consumed",
          "type": "uint256"
        },
        {
          "internalType": "uint128",
          "name": "liquidityOut",
          "type": "uint128"
        }
      ],
      "stateMutability": "view",
      "type": "function"
    },
    {
      "inputs": [
        {
          "internalType": "uint160",
          "name": "sqrtRatioX96",
          "type": "uint160"
        },
        {
          "internalType": "int24",
          "name": "lowerTick",
          "type": "int24"
        },
        {
          "internalType": "int24",
          "name": "upperTick",
          "type": "int24"
        },
        {
          "internalType": "uint128",
          "name": "liquidity",
          "type": "uint128"
        }
      ],
      "name": "getAmountsForLiquidity",
      "outputs": [
        {
          "internalType": "uint256",
          "name": "amount0",
          "type": "uint256"
        },
        {
          "internalType": "uint256",
          "name": "amount1",
          "type": "uint256"
        }
      ],
      "stateMutability": "pure",
      "type": "function"
    },
    {
      "inputs": [
        {
          "internalType": "uint160",
          "name": "sqrtRatioX96",
          "type": "uint160"
        },
        {
          "internalType": "int24",
          "name": "lowerTick",
          "type": "int24"
        },
        {
          "internalType": "int24",
          "name": "upperTick",
          "type": "int24"
        },
        {
          "internalType": "uint256",
          "name": "amount0",
          "type": "uint256"
        },
        {
          "internalType": "uint256",
          "name": "amount1",
          "type": "uint256"
        }
      ],
      "name": "getLiquidityForAmounts",
      "outputs": [
        {
          "internalType": "uint128",
          "name": "liquidity",
          "type": "uint128"
        }
      ],
      "stateMutability": "pure",
      "type": "function"
    },
    {
      "inputs": [
        {
          "internalType": "address",
          "name": "pool_",
          "type": "address"
        },
        {
          "internalType": "address",
          "name": "tokenIn",
          "type": "address"
        }
      ],
      "name": "getPrice",
      "outputs": [
        {
          "internalType": "uint256",
          "name": "",
          "type": "uint256"
        }
      ],
      "stateMutability": "view",
      "type": "function"
    },
    {
      "inputs": [
        {
          "internalType": "contract IPancakeV3Pool",
          "name": "pool",
          "type": "IPancakeV3Pool"
        }
      ],
      "name": "getTickSpacing",
      "outputs": [
        {
          "internalType": "int24",
          "name": "",
          "type": "int24"
        }
      ],
      "stateMutability": "view",
      "type": "function"
    },
    {
      "inputs": [
        {
          "internalType": "uint256",
          "name": "a",
          "type": "uint256"
        },
        {
          "internalType": "uint256",
          "name": "b",
          "type": "uint256"
        },
        {
          "internalType": "uint256",
          "name": "denominator",
          "type": "uint256"
        }
      ],
      "name": "mulDiv",
      "outputs": [
        {
          "internalType": "uint256",
          "name": "result",
          "type": "uint256"
        }
      ],
      "stateMutability": "pure",
      "type": "function"
    }
  ],
  "transactionHash": "0x69e6c7f4791b9f8c3dba266d7ea4d84e4c3242466a30943631e5c85295419fbf",
  "args": [],
  "numDeployments": 1,
  "solcInputHash": "17e7f259002e1118df09fdf359b1b60f",
  "bytecode": "0x61142561003a600b82828239805160001a60731461002d57634e487b7160e01b600052600060045260246000fd5b30600052607381538281f3fe730000000000000000000000000000000000000000301460806040526004361061006c5760003560e01c80630337236a1461007157806317c22c3c146100a15780632a279b28146100d85780633cc90d3e14610100578063aa9a091214610126578063ac41865a14610147575b600080fd5b61008461007f366004610f9c565b61015a565b6040516001600160801b0390911681526020015b60405180910390f35b6100b46100af366004610f9c565b610237565b6040805193845260208401929092526001600160801b031690820152606001610098565b6100eb6100e6366004610ff7565b6102da565b60408051928352602083019190915201610098565b61011361010e36600461105f565b610390565b60405160029190910b8152602001610098565b61013961013436600461107c565b6103fa565b604051908152602001610098565b6101396101553660046110a8565b6104ae565b60008061016686610955565b9050600061017386610955565b9050806001600160a01b0316826001600160a01b0316111561019157905b816001600160a01b0316886001600160a01b0316116101bc576101b5828287610d6f565b925061022c565b806001600160a01b0316886001600160a01b0316101561021e5760006101e3898388610d6f565b905060006101f2848b88610de2565b9050806001600160801b0316826001600160801b0316106102135780610215565b815b9450505061022c565b610229828286610de2565b92505b505095945050505050565b6000806000808890506000816001600160a01b0316633850c7bd6040518163ffffffff1660e01b815260040160e060405180830381865afa158015610280573d6000803e3d6000fd5b505050506040513d601f19601f820116820180604052508101906102a491906110f3565b50505050505090506102b9818a8a8a8a61015a565b92506102c7818a8a866102da565b909b909a50929850919650505050505050565b60008060006102e886610955565b905060006102f586610955565b9050806001600160a01b0316826001600160a01b0316111561031357905b816001600160a01b0316886001600160a01b03161161033e57610337828287610e18565b9350610385565b806001600160a01b0316886001600160a01b0316101561037757610363888287610e18565b9350610370828987610e82565b9250610385565b610382828287610e82565b92505b505094509492505050565b6000816001600160a01b031663d0c93a7c6040518163ffffffff1660e01b8152600401602060405180830381865afa1580156103d0573d6000803e3d6000fd5b505050506040513d601f19601f820116820180604052508101906103f49190611193565b92915050565b6000808060001985870985870292508281108382030391505080600003610433576000841161042857600080fd5b5082900490506104a7565b80841161043f57600080fd5b600084868809851960019081018716968790049682860381900495909211909303600082900391909104909201919091029190911760038402600290811880860282030280860282030280860282030280860282030280860282030280860290910302029150505b9392505050565b6000808390506000816001600160a01b0316630dfe16816040518163ffffffff1660e01b8152600401602060405180830381865afa1580156104f4573d6000803e3d6000fd5b505050506040513d601f19601f8201168201806040525081019061051891906111b0565b90506000826001600160a01b031663d21220a76040518163ffffffff1660e01b8152600401602060405180830381865afa15801561055a573d6000803e3d6000fd5b505050506040513d601f19601f8201168201806040525081019061057e91906111b0565b90506000826001600160a01b0316866001600160a01b03161461060257816001600160a01b031663313ce5676040518163ffffffff1660e01b8152600401602060405180830381865afa1580156105d9573d6000803e3d6000fd5b505050506040513d601f19601f820116820180604052508101906105fd91906111cd565b610664565b826001600160a01b031663313ce5676040518163ffffffff1660e01b8152600401602060405180830381865afa158015610640573d6000803e3d6000fd5b505050506040513d601f19601f8201168201806040525081019061066491906111cd565b60ff1690506000826001600160a01b0316876001600160a01b0316146106eb57826001600160a01b031663313ce5676040518163ffffffff1660e01b8152600401602060405180830381865afa1580156106c2573d6000803e3d6000fd5b505050506040513d601f19601f820116820180604052508101906106e691906111cd565b61074d565b836001600160a01b031663313ce5676040518163ffffffff1660e01b8152600401602060405180830381865afa158015610729573d6000803e3d6000fd5b505050506040513d601f19601f8201168201806040525081019061074d91906111cd565b60ff1690506000856001600160a01b0316633850c7bd6040518163ffffffff1660e01b815260040160e060405180830381865afa158015610792573d6000803e3d6000fd5b505050506040513d601f19601f820116820180604052508101906107b691906110f3565b50505050505090506000601283106107cf5760016107f9565b6107f96107dd85600a6112ea565b6107e885600a6112ea565b6107f2919061130c565b6001610ecc565b9050600061080f836001600160a01b0316610ee2565b9050600080886001600160a01b03168c6001600160a01b0316036108975786601d841061083d576000610848565b61084884601d611320565b6108529190611333565b61085d90600a6112ea565b90506000600160601b610879836001600160a01b038916611346565b610883919061130c565b905061088f8180611346565b9250506108fd565b86601d84116108a75760006108b2565b6108b2601d85611320565b6108bc9190611333565b6108c790600a6112ea565b905060006001600160a01b0386166108e383600160601b611346565b6108ed919061130c565b90506108f98180611346565b9250505b670de0b6b3a76400008111610913576001610925565b610925670de0b6b3a76400008261130c565b81610930868561130c565b61093a919061130c565b610944919061130c565b9d9c50505050505050505050505050565b60008060008360020b1261096c578260020b610979565b8260020b6109799061135d565b9050610988620d89e719611379565b60020b8111156109c25760405162461bcd60e51b81526020600482015260016024820152601560fa1b604482015260640160405180910390fd5b6000816001166000036109d957600160801b6109eb565b6ffffcb933bd6fad37aa2d162d1a5940015b6001600160881b031690506002821615610a20576080610a1b826ffff97272373d413259a46990580e213a611346565b901c90505b6004821615610a4a576080610a45826ffff2e50f5f656932ef12357cf3c7fdcc611346565b901c90505b6008821615610a74576080610a6f826fffe5caca7e10e4e61c3624eaa0941cd0611346565b901c90505b6010821615610a9e576080610a99826fffcb9843d60f6159c9db58835c926644611346565b901c90505b6020821615610ac8576080610ac3826fff973b41fa98c081472e6896dfb254c0611346565b901c90505b6040821615610af2576080610aed826fff2ea16466c96a3843ec78b326b52861611346565b901c90505b6080821615610b1c576080610b17826ffe5dee046a99a2a811c461f1969c3053611346565b901c90505b610100821615610b47576080610b42826ffcbe86c7900a88aedcffc83b479aa3a4611346565b901c90505b610200821615610b72576080610b6d826ff987a7253ac413176f2b074cf7815e54611346565b901c90505b610400821615610b9d576080610b98826ff3392b0822b70005940c7a398e4b70f3611346565b901c90505b610800821615610bc8576080610bc3826fe7159475a2c29b7443b29c7fa6e889d9611346565b901c90505b611000821615610bf3576080610bee826fd097f3bdfd2022b8845ad8f792aa5825611346565b901c90505b612000821615610c1e576080610c19826fa9f746462d870fdf8a65dc1f90e061e5611346565b901c90505b614000821615610c49576080610c44826f70d869a156d2a1b890bb3df62baf32f7611346565b901c90505b618000821615610c74576080610c6f826f31be135f97d08fd981231505542fcfa6611346565b901c90505b62010000821615610ca0576080610c9b826f09aa508b5b7a84e1c677de54f3e99bc9611346565b901c90505b62020000821615610ccb576080610cc6826e5d6af8dedb81196699c329225ee604611346565b901c90505b62040000821615610cf5576080610cf0826d2216e584f5fa1ea926041bedfe98611346565b901c90505b62080000821615610d1d576080610d18826b048a170391f7dc42444e8fa2611346565b901c90505b60008460020b1315610d3857610d358160001961130c565b90505b610d476401000000008261139b565b15610d53576001610d56565b60005b610d679060ff16602083901c611333565b949350505050565b6000826001600160a01b0316846001600160a01b03161115610d8f579192915b6000610db2856001600160a01b0316856001600160a01b0316600160601b6103fa565b9050610dd9610dd48483610dc689896113af565b6001600160a01b03166103fa565b610f1a565b95945050505050565b6000826001600160a01b0316846001600160a01b03161115610e02579192915b610d67610dd483600160601b610dc688886113af565b6000826001600160a01b0316846001600160a01b03161115610e38579192915b610d676001610e73600160601b600160e01b03606086901b16610e5b88886113af565b6001600160a01b0316876001600160a01b0316610f35565b866001600160a01b0316610f35565b6000826001600160a01b0316846001600160a01b03161115610ea2579192915b610d676001600160801b038316610eb986866113af565b6001600160a01b0316600160601b610f35565b6000818311610edb57816104a7565b5090919050565b600081600003610ef457506000919050565b60005b82156103f457610f08600a8461130c565b9250610f13816113d6565b9050610ef7565b806001600160801b0381168114610f3057600080fd5b919050565b6000610f428484846103fa565b905060008280610f5457610f546112f6565b84860911156104a7576000198110610f6b57600080fd5b80610dd9816113d6565b6001600160a01b0381168114610f8a57600080fd5b50565b8060020b8114610f8a57600080fd5b600080600080600060a08688031215610fb457600080fd5b8535610fbf81610f75565b94506020860135610fcf81610f8d565b93506040860135610fdf81610f8d565b94979396509394606081013594506080013592915050565b6000806000806080858703121561100d57600080fd5b843561101881610f75565b9350602085013561102881610f8d565b9250604085013561103881610f8d565b915060608501356001600160801b038116811461105457600080fd5b939692955090935050565b60006020828403121561107157600080fd5b81356104a781610f75565b60008060006060848603121561109157600080fd5b505081359360208301359350604090920135919050565b600080604083850312156110bb57600080fd5b82356110c681610f75565b915060208301356110d681610f75565b809150509250929050565b805161ffff81168114610f3057600080fd5b600080600080600080600060e0888a03121561110e57600080fd5b875161111981610f75565b602089015190975061112a81610f8d565b9550611138604089016110e1565b9450611146606089016110e1565b9350611154608089016110e1565b925060a088015163ffffffff8116811461116d57600080fd5b60c0890151909250801515811461118357600080fd5b8091505092959891949750929550565b6000602082840312156111a557600080fd5b81516104a781610f8d565b6000602082840312156111c257600080fd5b81516104a781610f75565b6000602082840312156111df57600080fd5b815160ff811681146104a757600080fd5b634e487b7160e01b600052601160045260246000fd5b600181815b80851115611241578160001904821115611227576112276111f0565b8085161561123457918102915b93841c939080029061120b565b509250929050565b600082611258575060016103f4565b81611265575060006103f4565b816001811461127b5760028114611285576112a1565b60019150506103f4565b60ff841115611296576112966111f0565b50506001821b6103f4565b5060208310610133831016604e8410600b84101617156112c4575081810a6103f4565b6112ce8383611206565b80600019048211156112e2576112e26111f0565b029392505050565b60006104a78383611249565b634e487b7160e01b600052601260045260246000fd5b60008261131b5761131b6112f6565b500490565b818103818111156103f4576103f46111f0565b808201808211156103f4576103f46111f0565b80820281158282048414176103f4576103f46111f0565b6000600160ff1b8201611372576113726111f0565b5060000390565b60008160020b627fffff198103611392576113926111f0565b60000392915050565b6000826113aa576113aa6112f6565b500690565b6001600160a01b038281168282160390808211156113cf576113cf6111f0565b5092915050565b6000600182016113e8576113e86111f0565b506001019056fea26469706673582212200622d3786fec1b4d44a99443b2c59fea613d72cb8ebbe0cc6f857ba3a53f36b664736f6c63430008110033",
  "devdoc": {
    "kind": "dev",
    "methods": {
      "getPrice(address,address)": {
        "returns": {
          "_0": "price with decimals of paired token"
        }
      },
      "mulDiv(uint256,uint256,uint256)": {
        "details": "Credit to Remco Bloemen under MIT license https://xn--2-umb.com/21/muldiv",
        "params": {
          "a": "The multiplicand",
          "b": "The multiplier",
          "denominator": "The divisor"
        },
        "returns": {
          "result": "The 256-bit result"
        }
      }
    },
    "stateVariables": {
      "MAX_TICK": {
        "details": "The maximum tick that may be passed to #getSqrtRatioAtTick computed from log base 1.0001 of 2**128"
      },
      "MIN_TICK": {
        "details": "The minimum tick that may be passed to #getSqrtRatioAtTick computed from log base 1.0001 of 2**-128"
      }
    },
    "title": "PancakeSwap liquidity management helper",
    "version": 1
  },
  "userdoc": {
    "kind": "user",
    "methods": {
      "getAmountsForLiquidity(uint160,int24,int24,uint128)": {
        "notice": "Computes the token0 and token1 value for a given amount of liquidity, the current pool prices and the prices at the tick boundaries"
      },
      "getLiquidityForAmounts(uint160,int24,int24,uint256,uint256)": {
        "notice": "Computes the maximum amount of liquidity received for a given amount of token0, token1, the current pool prices and the prices at the tick boundaries"
      },
      "getPrice(address,address)": {
        "notice": "Calculates price in pool"
      },
      "mulDiv(uint256,uint256,uint256)": {
        "notice": "Calculates floor(abdenominator) with full precision. Throws if result overflows a uint or denominator == 0"
      }
    },
    "notice": "Provides functions for computing liquidity amounts from token amounts and prices",
    "version": 1
  },
  "storageLayout": {
    "storage": [],
    "types": null
  }
}