{
  "address": "0xE2275F2305d6b746F7F865c462f8488bA91BA465",
  "abi": [
    {
      "inputs": [
        {
          "internalType": "address",
          "name": "strategy_",
          "type": "address"
        }
      ],
      "stateMutability": "nonpayable",
      "type": "constructor"
    },
    {
      "inputs": [],
      "name": "VERSION",
      "outputs": [
        {
          "internalType": "string",
          "name": "",
          "type": "string"
        }
      ],
      "stateMutability": "view",
      "type": "function"
    },
    {
      "inputs": [],
      "name": "acceptOwnership",
      "outputs": [],
      "stateMutability": "nonpayable",
      "type": "function"
    },
    {
      "inputs": [],
      "name": "call",
      "outputs": [],
      "stateMutability": "nonpayable",
      "type": "function"
    },
    {
      "inputs": [
        {
          "internalType": "address",
          "name": "operator",
          "type": "address"
        },
        {
          "internalType": "bool",
          "name": "status",
          "type": "bool"
        }
      ],
      "name": "changeOperatorStatus",
      "outputs": [],
      "stateMutability": "nonpayable",
      "type": "function"
    },
    {
      "inputs": [],
      "name": "checker",
      "outputs": [
        {
          "internalType": "bool",
          "name": "canExec",
          "type": "bool"
        },
        {
          "internalType": "bytes",
          "name": "execPayload",
          "type": "bytes"
        }
      ],
      "stateMutability": "view",
      "type": "function"
    },
    {
      "inputs": [],
      "name": "delay",
      "outputs": [
        {
          "internalType": "uint256",
          "name": "",
          "type": "uint256"
        }
      ],
      "stateMutability": "view",
      "type": "function"
    },
    {
      "inputs": [],
      "name": "lastRebalance",
      "outputs": [
        {
          "internalType": "uint256",
          "name": "",
          "type": "uint256"
        }
      ],
      "stateMutability": "view",
      "type": "function"
    },
    {
      "inputs": [
        {
          "internalType": "address",
          "name": "value",
          "type": "address"
        }
      ],
      "name": "offerOwnership",
      "outputs": [],
      "stateMutability": "nonpayable",
      "type": "function"
    },
    {
      "inputs": [
        {
          "internalType": "address",
          "name": "",
          "type": "address"
        }
      ],
      "name": "operators",
      "outputs": [
        {
          "internalType": "bool",
          "name": "",
          "type": "bool"
        }
      ],
      "stateMutability": "view",
      "type": "function"
    },
    {
      "inputs": [],
      "name": "owner",
      "outputs": [
        {
          "internalType": "address",
          "name": "",
          "type": "address"
        }
      ],
      "stateMutability": "view",
      "type": "function"
    },
    {
      "inputs": [],
      "name": "pendingOwner",
      "outputs": [
        {
          "internalType": "address",
          "name": "",
          "type": "address"
        }
      ],
      "stateMutability": "view",
      "type": "function"
    },
    {
      "inputs": [
        {
          "internalType": "uint256",
          "name": "value",
          "type": "uint256"
        }
      ],
      "name": "setDelay",
      "outputs": [],
      "stateMutability": "nonpayable",
      "type": "function"
    },
    {
      "inputs": [],
      "name": "strategy",
      "outputs": [
        {
          "internalType": "address",
          "name": "",
          "type": "address"
        }
      ],
      "stateMutability": "view",
      "type": "function"
    }
  ],
  "transactionHash": "0x0d02a6b17c6f9eadff96d6236f50ee28c398ad74e5e176fb44eb70fc92be537a",
  "args": [
    "0x6A4436f1D062Ee73F7bE2ebE7395CE6346586101"
  ],
  "numDeployments": 1,
  "solcInputHash": "17e7f259002e1118df09fdf359b1b60f",
  "bytecode": "0x60a060405234801561001057600080fd5b50604051610ea9380380610ea983398101604081905261002f91610057565b600080546001600160a01b03191633179055603c6002556001600160a01b0316608052610087565b60006020828403121561006957600080fd5b81516001600160a01b038116811461008057600080fd5b9392505050565b608051610deb6100be6000396000818161018401528181610279015281816103060152818161039901526104ef0152610deb6000f3fe608060405234801561001057600080fd5b50600436106100bf5760003560e01c80638da5cb5b1161007c5780638da5cb5b146101415780638e3e92f21461016c578063a8c62e761461017f578063cf5303cf146101a6578063e177246e146101bc578063e30c3978146101cf578063ffa1ad74146101e257600080fd5b8063106b9ca1146100c457806313e7c9d8146100e057806328b5e32b146101135780636575c4581461011d5780636a42b8f81461013057806379ba509714610139575b600080fd5b6100cd60035481565b6040519081526020015b60405180910390f35b6101036100ee36600461089f565b60046020526000908152604090205460ff1681565b60405190151581526020016100d7565b61011b610213565b005b61011b61012b3660046108d1565b6103d5565b6100cd60025481565b61011b61042a565b600054610154906001600160a01b031681565b6040516001600160a01b0390911681526020016100d7565b61011b61017a36600461089f565b61049b565b6101547f000000000000000000000000000000000000000000000000000000000000000081565b6101ae6104e7565b6040516100d792919061095a565b61011b6101ca36600461097d565b6106db565b600154610154906001600160a01b031681565b610206604051806040016040528060058152602001640332e302e360dc1b81525081565b6040516100d79190610996565b3360009081526004602052604090205460ff166102635760405162461bcd60e51b815260206004820152600960248201526810b7b832b930ba37b960b91b60448201526064015b60405180910390fd5b604051630e96e54f60e11b8152600160048201527f00000000000000000000000000000000000000000000000000000000000000006001600160a01b031690631d2dca9e90602401600060405180830381600087803b1580156102c557600080fd5b505af19250505080156102d6575060015b6103cf576102e26109a9565b806308c379a00361036257506102f6610a00565b806103015750610364565b61032a7f000000000000000000000000000000000000000000000000000000000000000061070a565b8160405160200161033c929190610a8a565b60408051601f198184030181529082905262461bcd60e51b825261025a91600401610996565b505b3d80801561038e576040519150601f19603f3d011682016040523d82523d6000602084013e610393565b606091505b506103bd7f000000000000000000000000000000000000000000000000000000000000000061070a565b8160405160200161033c929190610ae4565b42600355565b6000546001600160a01b031633146103ff5760405162461bcd60e51b815260040161025a90610b49565b6001600160a01b03919091166000908152600460205260409020805460ff1916911515919091179055565b6001546001600160a01b031633146104745760405162461bcd60e51b815260206004820152600d60248201526c10b832b73234b733a7bbb732b960991b604482015260640161025a565b60018054600080546001600160a01b03199081166001600160a01b03841617909155169055565b6000546001600160a01b031633146104c55760405162461bcd60e51b815260040161025a90610b49565b600180546001600160a01b0319166001600160a01b0392909216919091179055565b6000606060007f000000000000000000000000000000000000000000000000000000000000000090506000816001600160a01b0316633cd8045e6040518163ffffffff1660e01b8152600401602060405180830381865afa158015610550573d6000803e3d6000fd5b505050506040513d601f19601f820116820180604052508101906105749190610b69565b604051630150908f60e31b81526001600160a01b03848116600483015291925090821690630a84847890602401602060405180830381865afa1580156105be573d6000803e3d6000fd5b505050506040513d601f19601f820116820180604052508101906105e29190610b86565b1580156105fd5750426002546003546105fb9190610bb9565b105b80156106665750816001600160a01b031663ffb86c6a6040518163ffffffff1660e01b8152600401602060405180830381865afa158015610642573d6000803e3d6000fd5b505050506040513d601f19601f820116820180604052508101906106669190610b86565b156106a05750506040805160048152602481019091526020810180516001600160e01b03166328b5e32b60e01b1790526001939092509050565b6000604051806040016040528060168152602001754e6f7420726561647920746f20726562616c616e636560501b8152509350935050509091565b6000546001600160a01b031633146107055760405162461bcd60e51b815260040161025a90610b49565b600255565b60408051602880825260608281019093526000919060208201818036833701905050905060005b601481101561084a576000610747826013610bd2565b610752906008610be5565b61075d906002610ce0565b610770906001600160a01b038716610d02565b60f81b9050600060108260f81c6107879190610d16565b60f81b905060008160f81c601061079e9190610d38565b8360f81c6107ac9190610d54565b60f81b90506107ba82610851565b856107c6866002610be5565b815181106107d6576107d6610d6d565b60200101906001600160f81b031916908160001a9053506107f681610851565b85610802866002610be5565b61080d906001610bb9565b8151811061081d5761081d610d6d565b60200101906001600160f81b031916908160001a905350505050808061084290610d83565b915050610731565b5092915050565b6000600a60f883901c10156108785761086f60f883901c6030610d9c565b60f81b92915050565b61086f60f883901c6057610d9c565b6001600160a01b038116811461089c57600080fd5b50565b6000602082840312156108b157600080fd5b81356108bc81610887565b9392505050565b801515811461089c57600080fd5b600080604083850312156108e457600080fd5b82356108ef81610887565b915060208301356108ff816108c3565b809150509250929050565b60005b8381101561092557818101518382015260200161090d565b50506000910152565b6000815180845261094681602086016020860161090a565b601f01601f19169290920160200192915050565b8215158152604060208201526000610975604083018461092e565b949350505050565b60006020828403121561098f57600080fd5b5035919050565b6020815260006108bc602083018461092e565b600060033d11156109c25760046000803e5060005160e01c5b90565b601f8201601f1916810167ffffffffffffffff811182821017156109f957634e487b7160e01b600052604160045260246000fd5b6040525050565b600060443d1015610a0e5790565b6040516003193d81016004833e81513d67ffffffffffffffff8160248401118184111715610a3e57505050505090565b8285019150815181811115610a565750505050505090565b843d8701016020828501011115610a705750505050505090565b610a7f602082860101876109c5565b509095945050505050565b710a6e8e4c2e8cacef240cae4e4dee4744060f60731b815260008351610ab781601285016020880161090a565b600160fd1b6012918401918201528351610ad881601384016020880161090a565b01601301949350505050565b7f5374726174656779206c6f772d6c6576656c206572726f723a20307800000000815260008351610b1c81601c85016020880161090a565b600160fd1b601c918401918201528351610b3d81601d84016020880161090a565b01601d01949350505050565b60208082526006908201526510b7bbb732b960d11b604082015260600190565b600060208284031215610b7b57600080fd5b81516108bc81610887565b600060208284031215610b9857600080fd5b81516108bc816108c3565b634e487b7160e01b600052601160045260246000fd5b80820180821115610bcc57610bcc610ba3565b92915050565b81810381811115610bcc57610bcc610ba3565b8082028115828204841417610bcc57610bcc610ba3565b600181815b80851115610c37578160001904821115610c1d57610c1d610ba3565b80851615610c2a57918102915b93841c9390800290610c01565b509250929050565b600082610c4e57506001610bcc565b81610c5b57506000610bcc565b8160018114610c715760028114610c7b57610c97565b6001915050610bcc565b60ff841115610c8c57610c8c610ba3565b50506001821b610bcc565b5060208310610133831016604e8410600b8410161715610cba575081810a610bcc565b610cc48383610bfc565b8060001904821115610cd857610cd8610ba3565b029392505050565b60006108bc8383610c3f565b634e487b7160e01b600052601260045260246000fd5b600082610d1157610d11610cec565b500490565b600060ff831680610d2957610d29610cec565b8060ff84160491505092915050565b60ff818116838216029081169081811461084a5761084a610ba3565b60ff8281168282160390811115610bcc57610bcc610ba3565b634e487b7160e01b600052603260045260246000fd5b600060018201610d9557610d95610ba3565b5060010190565b60ff8181168382160190811115610bcc57610bcc610ba356fea2646970667358221220f1a3543216f22dd680f89e16fa219af5f5c02db5fc62dc8d348ab21e72ba24b664736f6c63430008110033",
  "devdoc": {
    "author": "a17",
    "kind": "dev",
    "methods": {},
    "title": "Gelato resolver for rebalancing v2 strategies",
    "version": 1
  },
  "userdoc": {
    "kind": "user",
    "methods": {},
    "version": 1
  },
  "storageLayout": {
    "storage": [
      {
        "astId": 175667,
        "contract": "contracts/tools/RebalanceResolver.sol:RebalanceResolver",
        "label": "owner",
        "offset": 0,
        "slot": "0",
        "type": "t_address"
      },
      {
        "astId": 175669,
        "contract": "contracts/tools/RebalanceResolver.sol:RebalanceResolver",
        "label": "pendingOwner",
        "offset": 0,
        "slot": "1",
        "type": "t_address"
      },
      {
        "astId": 175671,
        "contract": "contracts/tools/RebalanceResolver.sol:RebalanceResolver",
        "label": "delay",
        "offset": 0,
        "slot": "2",
        "type": "t_uint256"
      },
      {
        "astId": 175673,
        "contract": "contracts/tools/RebalanceResolver.sol:RebalanceResolver",
        "label": "lastRebalance",
        "offset": 0,
        "slot": "3",
        "type": "t_uint256"
      },
      {
        "astId": 175677,
        "contract": "contracts/tools/RebalanceResolver.sol:RebalanceResolver",
        "label": "operators",
        "offset": 0,
        "slot": "4",
        "type": "t_mapping(t_address,t_bool)"
      }
    ],
    "types": {
      "t_address": {
        "encoding": "inplace",
        "label": "address",
        "numberOfBytes": "20"
      },
      "t_bool": {
        "encoding": "inplace",
        "label": "bool",
        "numberOfBytes": "1"
      },
      "t_mapping(t_address,t_bool)": {
        "encoding": "mapping",
        "key": "t_address",
        "label": "mapping(address => bool)",
        "numberOfBytes": "32",
        "value": "t_bool"
      },
      "t_uint256": {
        "encoding": "inplace",
        "label": "uint256",
        "numberOfBytes": "32"
      }
    }
  }
}