{
  "address": "0x28d16c3bdE69bD708C2e12AD33fC2d911756D85C",
  "abi": [
    {
      "inputs": [],
      "name": "MAX_DEEP_RECURSION",
      "outputs": [
        {
          "internalType": "uint256",
          "name": "",
          "type": "uint256"
        }
      ],
      "stateMutability": "view",
      "type": "function"
    },
    {
      "inputs": [],
      "name": "SUM_PROPORTIONS",
      "outputs": [
        {
          "internalType": "uint256",
          "name": "",
          "type": "uint256"
        }
      ],
      "stateMutability": "view",
      "type": "function"
    }
  ],
  "transactionHash": "0xba989020c421450a6dd04e4c473762cf82d98bb3c60c72ab6d3c4d37bb73d41e",
  "args": [],
  "numDeployments": 5,
  "solcInputHash": "a408f1fd06b60723e7f996d4b67ed7ec",
  "bytecode": "0x61294361003a600b82828239805160001a60731461002d57634e487b7160e01b600052600060045260246000fd5b30600052607381538281f3fe73000000000000000000000000000000000000000030146080604052600436106100565760003560e01c806324a6c3201461005b57806343f8b62c146100765780634b4bd6f714610098578063d0c9e363146100c5575b600080fd5b610063600281565b6040519081526020015b60405180910390f35b81801561008257600080fd5b506100966100913660046123ca565b6100d4565b005b8180156100a457600080fd5b506100b86100b33660046124e7565b6102ac565b60405161006d9190612585565b610063670de0b6b3a764000081565b60408051808201909152601081526f54532d3234207a65726f2076616c756560801b6020820152846101225760405162461bcd60e51b81526004016101199190612619565b60405180910390fd5b5060408051808201909152601481527354532d333220746f6f20686967682076616c756560601b6020820152670de0b6b3a764000085106101765760405162461bcd60e51b81526004016101199190612619565b5061017f61230d565b6001600160a01b03808816825286166020820152604081018590526060810184905260808101839052610140810182905260006101bb8a610542565b604080516002808252606082018352929350600092909160208301908036833701905050905088816000815181106101f5576101f561262c565b60200260200101906001600160a01b031690816001600160a01b03168152505087816001815181106102295761022961262c565b60200260200101906001600160a01b031690816001600160a01b0316815250506102558282600261060d565b8460a001516000018560a00151602001829052829052505061029f8360405180604001604052808e6001600160a01b031681526020018d6001600160a01b0316815250600261080c565b5050505050505050505050565b60606102b6612394565b600060405180604001604052806102ec6102e6896000600281106102dc576102dc61262c565b6020020151610a03565b8a610a6e565b81526020016102fc8860016102dc565b90526020870151875160405163dd27ede760e01b81529293506000926001600160a01b038c169263dd27ede79261033c9230929190600190600401612642565b60408051808303816000875af115801561035a573d6000803e3d6000fd5b505050506040513d601f19601f8201168201806040525081019061037e919061266c565b50865190915081111561048757600081891161039a578861039c565b815b6020890151895160405163954d7e7360e01b81526001600160a01b03808f1660048301529283166024820152911660448201526064810182905290915073Ef5b8672196c0188197bfEE5677FF8D17918b63b9063954d7e73906084016040805180830381865af4158015610414573d6000803e3d6000fd5b505050506040513d601f19601f82011682018060405250810190610438919061266c565b505060408051808201909152806104616104538b60006102dc565b8660005b6020020151610a6e565b815260200161047c6104748b60016102dc565b866001610457565b8152509350506104a0565b6040518060400160405280898152602001600081525092505b6104ad8984898989610a8f565b60408051600280825260608201835290916020830190803683370190505093506104e36104db8860006102dc565b836000610457565b846000815181106104f6576104f661262c565b602090810291909101015261051761050f8860016102dc565b836001610457565b8460018151811061052a5761052a61262c565b60200260200101818152505050505095945050505050565b6000816001600160a01b031663f77c47916040518163ffffffff1660e01b8152600401602060405180830381865afa158015610582573d6000803e3d6000fd5b505050506040513d601f19601f820116820180604052508101906105a69190612690565b6001600160a01b0316632630c12f6040518163ffffffff1660e01b8152600401602060405180830381865afa1580156105e3573d6000803e3d6000fd5b505050506040513d601f19601f820116820180604052508101906106079190612690565b92915050565b6060808267ffffffffffffffff8111156106295761062961244a565b604051908082528060200260200182016040528015610652578160200160208202803683370190505b5091508267ffffffffffffffff81111561066e5761066e61244a565b604051908082528060200260200182016040528015610697578160200160208202803683370190505b50905060005b83811015610803578481815181106106b7576106b761262c565b60200260200101516001600160a01b031663313ce5676040518163ffffffff1660e01b8152600401602060405180830381865afa1580156106fc573d6000803e3d6000fd5b505050506040513d601f19601f8201168201806040525081019061072091906126ad565b61072b90600a6127ca565b82828151811061073d5761073d61262c565b602002602001018181525050856001600160a01b031663b3596f0786838151811061076a5761076a61262c565b60200260200101516040518263ffffffff1660e01b815260040161079d91906001600160a01b0391909116815260200190565b602060405180830381865afa1580156107ba573d6000803e3d6000fd5b505050506040513d601f19601f820116820180604052508101906107de91906127d9565b8382815181106107f0576107f061262c565b602090810291909101015260010161069d565b50935093915050565b82516040516370a0823160e01b81523060048201526001600160a01b03909116906370a0823190602401602060405180830381865afa158015610853573d6000803e3d6000fd5b505050506040513d601f19601f8201168201806040525081019061087791906127d9565b60c084015260208301516040516370a0823160e01b81523060048201526001600160a01b03909116906370a0823190602401602060405180830381865afa1580156108c6573d6000803e3d6000fd5b505050506040513d601f19601f820116820180604052508101906108ea91906127d9565b60e084015281518351602085015160405163dd27ede760e01b81526001600160a01b039093169263dd27ede792610928923092600190600401612642565b60408051808303816000875af1158015610946573d6000803e3d6000fd5b505050506040513d601f19601f8201168201806040525081019061096a919061266c565b5061010084015281516020840151845160405163dd27ede760e01b81526001600160a01b039093169263dd27ede7926109aa923092600190600401612642565b60408051808303816000875af11580156109c8573d6000803e3d6000fd5b505050506040513d601f19601f820116820180604052508101906109ec919061266c565b506101208401526109fe838383610f7f565b505050565b6040516370a0823160e01b81523060048201526000906001600160a01b038316906370a0823190602401602060405180830381865afa158015610a4a573d6000803e3d6000fd5b505050506040513d601f19601f8201168201806040525081019061060791906127d9565b6000818311610a7e576000610a88565b610a8882846127f2565b9392505050565b610ac86040518060c001604052806060815260200160608152602001600081526020016000815260200160008152602001606081525090565b6000610ad387610542565b604080516002808252606082018352929350600092909160208301908036833750508751825192935091839150600090610b0f57610b0f61262c565b6001600160a01b0392909216602092830291909101820152860151815182906001908110610b3f57610b3f61262c565b60200260200101906001600160a01b031690816001600160a01b031681525050610b6b8282600261060d565b60208501819052908452805190925060009150610b8a57610b8a61262c565b60200260200101518160000151600081518110610ba957610ba961262c565b602002602001015186600060028110610bc457610bc461262c565b6020020151610bd39190612805565b610bdd919061281c565b6040820152602081015180516001908110610bfa57610bfa61262c565b60200260200101518160000151600181518110610c1957610c1961262c565b602002602001015186600160028110610c3457610c3461262c565b6020020151610c439190612805565b610c4d919061281c565b6060820152610c6482670de0b6b3a76400006127f2565b60808201526060810151610c79908390612805565b81608001518260400151610c8d9190612805565b1115610df55760008160800151838360600151610caa9190612805565b610cb4919061281c565b905060008260000151600081518110610ccf57610ccf61262c565b60200260200101518360200151600081518110610cee57610cee61262c565b6020026020010151838560400151610d0691906127f2565b610d109190612805565b610d1a919061281c565b9050610d2f8660005b6020020151828a6115e7565b608080840151604080516001602082015290810187905260608101919091520160408051808303601f1901815291815260a08501829052875160208901518851925163ca27d10d60e01b815273Ef5b8672196c0188197bfEE5677FF8D17918b63b9463ca27d10d94610dac948f949293909291899160040161283e565b6040805180830381865af4158015610dc8573d6000803e3d6000fd5b505050506040513d601f19601f82011682018060405250810190610dec919061266c565b50505050610f77565b818160600151610e059190612805565b81608001518260400151610e199190612805565b1015610f775760008282608001518360400151610e369190612805565b610e40919061281c565b905060008260000151600181518110610e5b57610e5b61262c565b60200260200101518360200151600181518110610e7a57610e7a61262c565b6020026020010151838560600151610e9291906127f2565b610e9c9190612805565b610ea6919061281c565b9050610eb3866001610d23565b608083810151604080516001602082015290810191909152606081018690520160408051808303601f1901815291815260a08501829052602080890151895191890151925163ca27d10d60e01b815273Ef5b8672196c0188197bfEE5677FF8D17918b63b9463ca27d10d94610f32948f9492939091899160040161283e565b6040805180830381865af4158015610f4e573d6000803e3d6000fd5b505050506040513d601f19601f82011682018060405250810190610f72919061266c565b505050505b505050505050565b60008360a0015160200151600081518110610f9c57610f9c61262c565b60200260200101518460a0015160000151600081518110610fbf57610fbf61262c565b60200260200101518560c00151610fd69190612805565b610fe0919061281c565b905060008460a0015160200151600181518110610fff57610fff61262c565b60200260200101518560a00151600001516001815181106110225761102261262c565b60200260200101518660e001516110399190612805565b611043919061281c565b905060008560a00151602001516000815181106110625761106261262c565b60200260200101518660a00151600001516000815181106110855761108561262c565b602002602001015187610140015161109d9190612805565b6110a7919061281c565b9050806110b48385612886565b1115610f77576000816110c78486612886565b6110d191906127f2565b9050600082670de0b6b3a76400008960400151846110ef9190612805565b6110f9919061281c565b6111039190612886565b90506000670de0b6b3a76400008960400151670de0b6b3a764000061112891906127f2565b6111329085612805565b61113c919061281c565b9050858211156113915760006040518061016001604052808a81526020018b602001516001600160a01b031681526020018b600001516001600160a01b031681526020018b60400151670de0b6b3a764000061119891906127f2565b81526020018b6040015181526020018b60a00151602001516000815181106111c2576111c261262c565b60200260200101518c60a00151600001516001815181106111e5576111e561262c565b60200260200101518d60a00151602001516001815181106112085761120861262c565b60200260200101518e60a001516000015160008151811061122b5761122b61262c565b6020026020010151670de0b6b3a76400006112469190612805565b6112509190612805565b61125a919061281c565b611264919061281c565b81526020018b608001518152602001600081526020018b61014001518152602001600181526020016000815250905060648a610100015110611370576040805180820190915260188152772a29969999903a37b7903232b2b8103932b1bab939b4b7b760411b6020820152886112ed5760405162461bcd60e51b81526004016101199190612619565b5060008a60a001516000015160008151811061130b5761130b61262c565b60200260200101518b60a001516020015160008151811061132e5761132e61262c565b6020026020010151898661134291906127f2565b61134c9190612805565b611356919061281c565b905061136a8b83838e61010001518d6116dc565b5061138b565b611388818b60a001518c60e001518d60c001516117a4565b50505b506115df565b858210156115df5760006040518061016001604052808a81526020018b600001516001600160a01b031681526020018b602001516001600160a01b031681526020018b6040015181526020018b60400151670de0b6b3a76400006113f591906127f2565b81526020018b60a00151602001516001815181106114155761141561262c565b60200260200101518c60a00151600001516000815181106114385761143861262c565b60200260200101518d60a001516020015160008151811061145b5761145b61262c565b60200260200101518e60a001516000015160018151811061147e5761147e61262c565b6020026020010151670de0b6b3a76400006114999190612805565b6114a39190612805565b6114ad919061281c565b6114b7919061281c565b81526020018b6060015181526020018b6101400151815260200160008152602001600081526020016001815250905060648a6101200151106115c3576040805180820190915260188152772a29969999903a37b7903232b2b8103932b1bab939b4b7b760411b6020820152886115405760405162461bcd60e51b81526004016101199190612619565b5060008a60a001516000015160018151811061155e5761155e61262c565b60200260200101518b60a00151602001516001815181106115815761158161262c565b6020026020010151888561159591906127f2565b61159f9190612805565b6115a9919061281c565b90506115bd8b83838e61012001518d6116dc565b50610dec565b6115db818b60a001518c60c001518d60e001516117a4565b5050505b505050610f77565b604051636eb1769f60e11b81523060048201526001600160a01b03828116602483015283919085169063dd62ed3e90604401602060405180830381865afa158015611636573d6000803e3d6000fd5b505050506040513d601f19601f8201168201806040525081019061165a91906127d9565b10156109fe5760405163095ea7b360e01b81526001600160a01b038281166004830152600160ff1b602483015284169063095ea7b3906044016020604051808303816000875af11580156116b2573d6000803e3d6000fd5b505050506040513d601f19601f820116820180604052508101906116d69190612899565b50505050565b6040805180820190915260188152772a29969999903a37b7903232b2b8103932b1bab939b4b7b760411b6020820152816117295760405162461bcd60e51b81526004016101199190612619565b506000670de0b6b3a76400008560a00151856117459190612805565b61174f919061281c565b9050600061175d8285611911565b90506064811061179b578551516040870151602088015161178092919084611927565b5050865161179b915088906117966001876127f2565b61080c565b50505050505050565b6000808560e00151600014806117bd5750610100860151155b6040518060400160405280601381526020017254532d333020696e76616c69642076616c756560681b815250906118075760405162461bcd60e51b81526004016101199190612619565b50610100860151156118825785610100015183106118435761183a86858861010001518661183591906127f2565b611ae9565b91509150611908565b6000611861878787878b610100015161185c91906127f2565b611c82565b5090506118788761187283886127f2565b86611ae9565b9250925050611908565b60e0860151156118fd578560e001518410156040518060400160405280601781526020017654532d37206e6f7420656e6f7567682062616c616e636560481b815250906118e25760405162461bcd60e51b81526004016101199190612619565b5061183a868760e00151866118f791906127f2565b85611ae9565b61183a868585611ae9565b94509492505050565b60008183106119205781610a88565b5090919050565b6040516370a0823160e01b81523060048201526000908190819081906001600160a01b038716906370a0823190602401602060405180830381865afa158015611974573d6000803e3d6000fd5b505050506040513d601f19601f8201168201806040525081019061199891906127d9565b90506000886001600160a01b031663dd27ede7308a8a60016040518563ffffffff1660e01b81526004016119cf9493929190612642565b60408051808303816000875af11580156119ed573d6000803e3d6000fd5b505050506040513d601f19601f82011682018060405250810190611a11919061266c565b509050611a2c818710611a245781611a26565b865b83611911565b60405163667df24960e01b81523060048201526001600160a01b038a811660248301528981166044830152606482018390529194506000918b169063667df2499060840160408051808303816000875af1158015611a8e573d6000803e3d6000fd5b505050506040513d601f19601f82011682018060405250810190611ab2919061266c565b909650905080861115611acc57611ac981876127f2565b95505b611ad98a8a8a8787611e8b565b9550505050509450945094915050565b606083810151608080860151604080516001602082015280820194909452838501919091528051808403909401845291019052600090819081908415611bb957670de0b6b3a7640000876080015188606001518960a0015188611b4c9190612805565b611b569190612805565b611b60919061281c565b611b6a919061281c565b9150858211156040518060400160405280601081526020016f54532d392077726f6e672076616c756560801b81525090611bb75760405162461bcd60e51b81526004016101199190612619565b505b6020870151611bd490611bcc84896127f2565b8951516115e7565b73Ef5b8672196c0188197bfEE5677FF8D17918b63b63ca27d10d886000015160000151838a602001518b60400151878c611c0e91906127f2565b8d60c001516040518763ffffffff1660e01b8152600401611c349695949392919061283e565b6040805180830381865af4158015611c50573d6000803e3d6000fd5b505050506040513d601f19601f82011682018060405250810190611c74919061266c565b935093505050935093915050565b6000806000856020015187610140015181518110611ca257611ca261262c565b6020026020010151866000015188610120015181518110611cc557611cc561262c565b6020026020010151876020015189610120015181518110611ce857611ce861262c565b602002602001015188600001518a610140015181518110611d0b57611d0b61262c565b602002602001015187611d1e9190612805565b611d289190612805565b611d32919061281c565b611d3c919061281c565b9050620186a0611d4e61012c82612886565b611d589083612805565b611d62919061281c565b90508085116040518060400160405280601781526020017654532d37206e6f7420656e6f7567682062616c616e636560481b81525090611db55760405162461bcd60e51b81526004016101199190612619565b5086518051602091820151918901516040808b015160c08c01519151637de8f56960e01b81526001600160a01b03948516600482015294841660248601529183166044850152911660648301526084820183905261012c60a483015260c4820152600060e482015273Ef5b8672196c0188197bfEE5677FF8D17918b63b90637de8f56990610104016040805180830381865af4158015611e59573d6000803e3d6000fd5b505050506040513d601f19601f82011682018060405250810190611e7d919061266c565b909890975095505050505050565b6000806064841061206657611eaa6001600160a01b0386168886612070565b6040516314b685e960e21b81526001600160a01b038781166004830152868116602483015260448201869052306064830152600091908916906352da17a4906084016080604051808303816000875af1158015611f0b573d6000803e3d6000fd5b505050506040513d601f19601f82011682018060405250810190611f2f91906128bb565b5050604080516001600160a01b03808c1682528a1660208201529081018890523060608201526080810183905260a0810182905291945091507f1d1ba11e7ca20f5dc77d8cfd75b68d11520677808f89f6ba0f0e50dc52c450129060c00160405180910390a16040516370a0823160e01b81523060048201526000906001600160a01b038816906370a0823190602401602060405180830381865afa158015611fdc573d6000803e3d6000fd5b505050506040513d601f19601f8201168201806040525081019061200091906127d9565b905080851161201057600061201a565b61201a81866127f2565b60408051808201909152600f81526e53423a2057726f6e672076616c756560881b602082015290935082156120625760405162461bcd60e51b81526004016101199190612619565b5050505b9550959350505050565b604080516001600160a01b03848116602483015260448083018590528351808403909101815260649092018352602080830180516001600160e01b031663a9059cbb60e01b17905283518085019094528084527f5361666545524332303a206c6f772d6c6576656c2063616c6c206661696c6564908401526109fe9286929160009161210091851690849061217d565b8051909150156109fe578080602001905181019061211e9190612899565b6109fe5760405162461bcd60e51b815260206004820152602a60248201527f5361666545524332303a204552433230206f7065726174696f6e20646964206e6044820152691bdd081cdd58d8d9595960b21b6064820152608401610119565b606061218c8484600085612194565b949350505050565b6060824710156121f55760405162461bcd60e51b815260206004820152602660248201527f416464726573733a20696e73756666696369656e742062616c616e636520666f6044820152651c8818d85b1b60d21b6064820152608401610119565b600080866001600160a01b0316858760405161221191906128f1565b60006040518083038185875af1925050503d806000811461224e576040519150601f19603f3d011682016040523d82523d6000602084013e612253565b606091505b50915091506122648783838761226f565b979650505050505050565b606083156122de5782516000036122d7576001600160a01b0385163b6122d75760405162461bcd60e51b815260206004820152601d60248201527f416464726573733a2063616c6c20746f206e6f6e2d636f6e74726163740000006044820152606401610119565b508161218c565b61218c83838151156122f35781518083602001fd5b8060405162461bcd60e51b81526004016101199190612619565b60405180610160016040528060006001600160a01b0316815260200160006001600160a01b0316815260200160008152602001600081526020016000815260200161236b604051806040016040528060608152602001606081525090565b815260200160008152602001600081526020016000815260200160008152602001600081525090565b60405180604001604052806002906020820280368337509192915050565b6001600160a01b03811681146123c757600080fd5b50565b600080600080600080600080610100898b0312156123e757600080fd5b88356123f2816123b2565b97506020890135612402816123b2565b96506040890135612412816123b2565b95506060890135612422816123b2565b979a969950949760808101359660a0820135965060c0820135955060e0909101359350915050565b634e487b7160e01b600052604160045260246000fd5b6040805190810167ffffffffffffffff8111828210171561249157634e487b7160e01b600052604160045260246000fd5b60405290565b600082601f8301126124a857600080fd5b6124b0612460565b8060408401858111156124c257600080fd5b845b818110156124dc5780358452602093840193016124c4565b509095945050505050565b600080600080600060e086880312156124ff57600080fd5b853561250a816123b2565b94506020868101359450605f8701881361252357600080fd5b61252b612460565b80608089018a81111561253d57600080fd5b60408a015b81811015612562578035612555816123b2565b8452928401928401612542565b508196506125708b82612497565b989b979a50959860c001359695505050505050565b6020808252825182820181905260009190848201906040850190845b818110156125bd578351835292840192918401916001016125a1565b50909695505050505050565b60005b838110156125e45781810151838201526020016125cc565b50506000910152565b600081518084526126058160208601602086016125c9565b601f01601f19169290920160200192915050565b602081526000610a8860208301846125ed565b634e487b7160e01b600052603260045260246000fd5b6001600160a01b039485168152928416602084015292166040820152901515606082015260800190565b6000806040838503121561267f57600080fd5b505080516020909101519092909150565b6000602082840312156126a257600080fd5b8151610a88816123b2565b6000602082840312156126bf57600080fd5b815160ff81168114610a8857600080fd5b634e487b7160e01b600052601160045260246000fd5b600181815b80851115612721578160001904821115612707576127076126d0565b8085161561271457918102915b93841c93908002906126eb565b509250929050565b60008261273857506001610607565b8161274557506000610607565b816001811461275b576002811461276557612781565b6001915050610607565b60ff841115612776576127766126d0565b50506001821b610607565b5060208310610133831016604e8410600b84101617156127a4575081810a610607565b6127ae83836126e6565b80600019048211156127c2576127c26126d0565b029392505050565b6000610a8860ff841683612729565b6000602082840312156127eb57600080fd5b5051919050565b81810381811115610607576106076126d0565b8082028115828204841417610607576106076126d0565b60008261283957634e487b7160e01b600052601260045260246000fd5b500490565b600060018060a01b03808916835260c0602084015261286060c08401896125ed565b9681166040840152949094166060820152608081019290925260a0909101525092915050565b80820180821115610607576106076126d0565b6000602082840312156128ab57600080fd5b81518015158114610a8857600080fd5b600080600080608085870312156128d157600080fd5b505082516020840151604085015160609095015191969095509092509050565b600082516129038184602087016125c9565b919091019291505056fea2646970667358221220178dd84b4f7399a48227aecb116f8a764f360ed5e67c5f113f08a646580420d864736f6c63430008110033",
  "deployedBytecode": "0x73000000000000000000000000000000000000000030146080604052600436106100565760003560e01c806324a6c3201461005b57806343f8b62c146100765780634b4bd6f714610098578063d0c9e363146100c5575b600080fd5b610063600281565b6040519081526020015b60405180910390f35b81801561008257600080fd5b506100966100913660046123ca565b6100d4565b005b8180156100a457600080fd5b506100b86100b33660046124e7565b6102ac565b60405161006d9190612585565b610063670de0b6b3a764000081565b60408051808201909152601081526f54532d3234207a65726f2076616c756560801b6020820152846101225760405162461bcd60e51b81526004016101199190612619565b60405180910390fd5b5060408051808201909152601481527354532d333220746f6f20686967682076616c756560601b6020820152670de0b6b3a764000085106101765760405162461bcd60e51b81526004016101199190612619565b5061017f61230d565b6001600160a01b03808816825286166020820152604081018590526060810184905260808101839052610140810182905260006101bb8a610542565b604080516002808252606082018352929350600092909160208301908036833701905050905088816000815181106101f5576101f561262c565b60200260200101906001600160a01b031690816001600160a01b03168152505087816001815181106102295761022961262c565b60200260200101906001600160a01b031690816001600160a01b0316815250506102558282600261060d565b8460a001516000018560a00151602001829052829052505061029f8360405180604001604052808e6001600160a01b031681526020018d6001600160a01b0316815250600261080c565b5050505050505050505050565b60606102b6612394565b600060405180604001604052806102ec6102e6896000600281106102dc576102dc61262c565b6020020151610a03565b8a610a6e565b81526020016102fc8860016102dc565b90526020870151875160405163dd27ede760e01b81529293506000926001600160a01b038c169263dd27ede79261033c9230929190600190600401612642565b60408051808303816000875af115801561035a573d6000803e3d6000fd5b505050506040513d601f19601f8201168201806040525081019061037e919061266c565b50865190915081111561048757600081891161039a578861039c565b815b6020890151895160405163954d7e7360e01b81526001600160a01b03808f1660048301529283166024820152911660448201526064810182905290915073__$e930d50fb5f4f1298547dbcb2bb0591990$__9063954d7e73906084016040805180830381865af4158015610414573d6000803e3d6000fd5b505050506040513d601f19601f82011682018060405250810190610438919061266c565b505060408051808201909152806104616104538b60006102dc565b8660005b6020020151610a6e565b815260200161047c6104748b60016102dc565b866001610457565b8152509350506104a0565b6040518060400160405280898152602001600081525092505b6104ad8984898989610a8f565b60408051600280825260608201835290916020830190803683370190505093506104e36104db8860006102dc565b836000610457565b846000815181106104f6576104f661262c565b602090810291909101015261051761050f8860016102dc565b836001610457565b8460018151811061052a5761052a61262c565b60200260200101818152505050505095945050505050565b6000816001600160a01b031663f77c47916040518163ffffffff1660e01b8152600401602060405180830381865afa158015610582573d6000803e3d6000fd5b505050506040513d601f19601f820116820180604052508101906105a69190612690565b6001600160a01b0316632630c12f6040518163ffffffff1660e01b8152600401602060405180830381865afa1580156105e3573d6000803e3d6000fd5b505050506040513d601f19601f820116820180604052508101906106079190612690565b92915050565b6060808267ffffffffffffffff8111156106295761062961244a565b604051908082528060200260200182016040528015610652578160200160208202803683370190505b5091508267ffffffffffffffff81111561066e5761066e61244a565b604051908082528060200260200182016040528015610697578160200160208202803683370190505b50905060005b83811015610803578481815181106106b7576106b761262c565b60200260200101516001600160a01b031663313ce5676040518163ffffffff1660e01b8152600401602060405180830381865afa1580156106fc573d6000803e3d6000fd5b505050506040513d601f19601f8201168201806040525081019061072091906126ad565b61072b90600a6127ca565b82828151811061073d5761073d61262c565b602002602001018181525050856001600160a01b031663b3596f0786838151811061076a5761076a61262c565b60200260200101516040518263ffffffff1660e01b815260040161079d91906001600160a01b0391909116815260200190565b602060405180830381865afa1580156107ba573d6000803e3d6000fd5b505050506040513d601f19601f820116820180604052508101906107de91906127d9565b8382815181106107f0576107f061262c565b602090810291909101015260010161069d565b50935093915050565b82516040516370a0823160e01b81523060048201526001600160a01b03909116906370a0823190602401602060405180830381865afa158015610853573d6000803e3d6000fd5b505050506040513d601f19601f8201168201806040525081019061087791906127d9565b60c084015260208301516040516370a0823160e01b81523060048201526001600160a01b03909116906370a0823190602401602060405180830381865afa1580156108c6573d6000803e3d6000fd5b505050506040513d601f19601f820116820180604052508101906108ea91906127d9565b60e084015281518351602085015160405163dd27ede760e01b81526001600160a01b039093169263dd27ede792610928923092600190600401612642565b60408051808303816000875af1158015610946573d6000803e3d6000fd5b505050506040513d601f19601f8201168201806040525081019061096a919061266c565b5061010084015281516020840151845160405163dd27ede760e01b81526001600160a01b039093169263dd27ede7926109aa923092600190600401612642565b60408051808303816000875af11580156109c8573d6000803e3d6000fd5b505050506040513d601f19601f820116820180604052508101906109ec919061266c565b506101208401526109fe838383610f7f565b505050565b6040516370a0823160e01b81523060048201526000906001600160a01b038316906370a0823190602401602060405180830381865afa158015610a4a573d6000803e3d6000fd5b505050506040513d601f19601f8201168201806040525081019061060791906127d9565b6000818311610a7e576000610a88565b610a8882846127f2565b9392505050565b610ac86040518060c001604052806060815260200160608152602001600081526020016000815260200160008152602001606081525090565b6000610ad387610542565b604080516002808252606082018352929350600092909160208301908036833750508751825192935091839150600090610b0f57610b0f61262c565b6001600160a01b0392909216602092830291909101820152860151815182906001908110610b3f57610b3f61262c565b60200260200101906001600160a01b031690816001600160a01b031681525050610b6b8282600261060d565b60208501819052908452805190925060009150610b8a57610b8a61262c565b60200260200101518160000151600081518110610ba957610ba961262c565b602002602001015186600060028110610bc457610bc461262c565b6020020151610bd39190612805565b610bdd919061281c565b6040820152602081015180516001908110610bfa57610bfa61262c565b60200260200101518160000151600181518110610c1957610c1961262c565b602002602001015186600160028110610c3457610c3461262c565b6020020151610c439190612805565b610c4d919061281c565b6060820152610c6482670de0b6b3a76400006127f2565b60808201526060810151610c79908390612805565b81608001518260400151610c8d9190612805565b1115610df55760008160800151838360600151610caa9190612805565b610cb4919061281c565b905060008260000151600081518110610ccf57610ccf61262c565b60200260200101518360200151600081518110610cee57610cee61262c565b6020026020010151838560400151610d0691906127f2565b610d109190612805565b610d1a919061281c565b9050610d2f8660005b6020020151828a6115e7565b608080840151604080516001602082015290810187905260608101919091520160408051808303601f1901815291815260a08501829052875160208901518851925163ca27d10d60e01b815273__$e930d50fb5f4f1298547dbcb2bb0591990$__9463ca27d10d94610dac948f949293909291899160040161283e565b6040805180830381865af4158015610dc8573d6000803e3d6000fd5b505050506040513d601f19601f82011682018060405250810190610dec919061266c565b50505050610f77565b818160600151610e059190612805565b81608001518260400151610e199190612805565b1015610f775760008282608001518360400151610e369190612805565b610e40919061281c565b905060008260000151600181518110610e5b57610e5b61262c565b60200260200101518360200151600181518110610e7a57610e7a61262c565b6020026020010151838560600151610e9291906127f2565b610e9c9190612805565b610ea6919061281c565b9050610eb3866001610d23565b608083810151604080516001602082015290810191909152606081018690520160408051808303601f1901815291815260a08501829052602080890151895191890151925163ca27d10d60e01b815273__$e930d50fb5f4f1298547dbcb2bb0591990$__9463ca27d10d94610f32948f9492939091899160040161283e565b6040805180830381865af4158015610f4e573d6000803e3d6000fd5b505050506040513d601f19601f82011682018060405250810190610f72919061266c565b505050505b505050505050565b60008360a0015160200151600081518110610f9c57610f9c61262c565b60200260200101518460a0015160000151600081518110610fbf57610fbf61262c565b60200260200101518560c00151610fd69190612805565b610fe0919061281c565b905060008460a0015160200151600181518110610fff57610fff61262c565b60200260200101518560a00151600001516001815181106110225761102261262c565b60200260200101518660e001516110399190612805565b611043919061281c565b905060008560a00151602001516000815181106110625761106261262c565b60200260200101518660a00151600001516000815181106110855761108561262c565b602002602001015187610140015161109d9190612805565b6110a7919061281c565b9050806110b48385612886565b1115610f77576000816110c78486612886565b6110d191906127f2565b9050600082670de0b6b3a76400008960400151846110ef9190612805565b6110f9919061281c565b6111039190612886565b90506000670de0b6b3a76400008960400151670de0b6b3a764000061112891906127f2565b6111329085612805565b61113c919061281c565b9050858211156113915760006040518061016001604052808a81526020018b602001516001600160a01b031681526020018b600001516001600160a01b031681526020018b60400151670de0b6b3a764000061119891906127f2565b81526020018b6040015181526020018b60a00151602001516000815181106111c2576111c261262c565b60200260200101518c60a00151600001516001815181106111e5576111e561262c565b60200260200101518d60a00151602001516001815181106112085761120861262c565b60200260200101518e60a001516000015160008151811061122b5761122b61262c565b6020026020010151670de0b6b3a76400006112469190612805565b6112509190612805565b61125a919061281c565b611264919061281c565b81526020018b608001518152602001600081526020018b61014001518152602001600181526020016000815250905060648a610100015110611370576040805180820190915260188152772a29969999903a37b7903232b2b8103932b1bab939b4b7b760411b6020820152886112ed5760405162461bcd60e51b81526004016101199190612619565b5060008a60a001516000015160008151811061130b5761130b61262c565b60200260200101518b60a001516020015160008151811061132e5761132e61262c565b6020026020010151898661134291906127f2565b61134c9190612805565b611356919061281c565b905061136a8b83838e61010001518d6116dc565b5061138b565b611388818b60a001518c60e001518d60c001516117a4565b50505b506115df565b858210156115df5760006040518061016001604052808a81526020018b600001516001600160a01b031681526020018b602001516001600160a01b031681526020018b6040015181526020018b60400151670de0b6b3a76400006113f591906127f2565b81526020018b60a00151602001516001815181106114155761141561262c565b60200260200101518c60a00151600001516000815181106114385761143861262c565b60200260200101518d60a001516020015160008151811061145b5761145b61262c565b60200260200101518e60a001516000015160018151811061147e5761147e61262c565b6020026020010151670de0b6b3a76400006114999190612805565b6114a39190612805565b6114ad919061281c565b6114b7919061281c565b81526020018b6060015181526020018b6101400151815260200160008152602001600081526020016001815250905060648a6101200151106115c3576040805180820190915260188152772a29969999903a37b7903232b2b8103932b1bab939b4b7b760411b6020820152886115405760405162461bcd60e51b81526004016101199190612619565b5060008a60a001516000015160018151811061155e5761155e61262c565b60200260200101518b60a00151602001516001815181106115815761158161262c565b6020026020010151888561159591906127f2565b61159f9190612805565b6115a9919061281c565b90506115bd8b83838e61012001518d6116dc565b50610dec565b6115db818b60a001518c60c001518d60e001516117a4565b5050505b505050610f77565b604051636eb1769f60e11b81523060048201526001600160a01b03828116602483015283919085169063dd62ed3e90604401602060405180830381865afa158015611636573d6000803e3d6000fd5b505050506040513d601f19601f8201168201806040525081019061165a91906127d9565b10156109fe5760405163095ea7b360e01b81526001600160a01b038281166004830152600160ff1b602483015284169063095ea7b3906044016020604051808303816000875af11580156116b2573d6000803e3d6000fd5b505050506040513d601f19601f820116820180604052508101906116d69190612899565b50505050565b6040805180820190915260188152772a29969999903a37b7903232b2b8103932b1bab939b4b7b760411b6020820152816117295760405162461bcd60e51b81526004016101199190612619565b506000670de0b6b3a76400008560a00151856117459190612805565b61174f919061281c565b9050600061175d8285611911565b90506064811061179b578551516040870151602088015161178092919084611927565b5050865161179b915088906117966001876127f2565b61080c565b50505050505050565b6000808560e00151600014806117bd5750610100860151155b6040518060400160405280601381526020017254532d333020696e76616c69642076616c756560681b815250906118075760405162461bcd60e51b81526004016101199190612619565b50610100860151156118825785610100015183106118435761183a86858861010001518661183591906127f2565b611ae9565b91509150611908565b6000611861878787878b610100015161185c91906127f2565b611c82565b5090506118788761187283886127f2565b86611ae9565b9250925050611908565b60e0860151156118fd578560e001518410156040518060400160405280601781526020017654532d37206e6f7420656e6f7567682062616c616e636560481b815250906118e25760405162461bcd60e51b81526004016101199190612619565b5061183a868760e00151866118f791906127f2565b85611ae9565b61183a868585611ae9565b94509492505050565b60008183106119205781610a88565b5090919050565b6040516370a0823160e01b81523060048201526000908190819081906001600160a01b038716906370a0823190602401602060405180830381865afa158015611974573d6000803e3d6000fd5b505050506040513d601f19601f8201168201806040525081019061199891906127d9565b90506000886001600160a01b031663dd27ede7308a8a60016040518563ffffffff1660e01b81526004016119cf9493929190612642565b60408051808303816000875af11580156119ed573d6000803e3d6000fd5b505050506040513d601f19601f82011682018060405250810190611a11919061266c565b509050611a2c818710611a245781611a26565b865b83611911565b60405163667df24960e01b81523060048201526001600160a01b038a811660248301528981166044830152606482018390529194506000918b169063667df2499060840160408051808303816000875af1158015611a8e573d6000803e3d6000fd5b505050506040513d601f19601f82011682018060405250810190611ab2919061266c565b909650905080861115611acc57611ac981876127f2565b95505b611ad98a8a8a8787611e8b565b9550505050509450945094915050565b606083810151608080860151604080516001602082015280820194909452838501919091528051808403909401845291019052600090819081908415611bb957670de0b6b3a7640000876080015188606001518960a0015188611b4c9190612805565b611b569190612805565b611b60919061281c565b611b6a919061281c565b9150858211156040518060400160405280601081526020016f54532d392077726f6e672076616c756560801b81525090611bb75760405162461bcd60e51b81526004016101199190612619565b505b6020870151611bd490611bcc84896127f2565b8951516115e7565b73__$e930d50fb5f4f1298547dbcb2bb0591990$__63ca27d10d886000015160000151838a602001518b60400151878c611c0e91906127f2565b8d60c001516040518763ffffffff1660e01b8152600401611c349695949392919061283e565b6040805180830381865af4158015611c50573d6000803e3d6000fd5b505050506040513d601f19601f82011682018060405250810190611c74919061266c565b935093505050935093915050565b6000806000856020015187610140015181518110611ca257611ca261262c565b6020026020010151866000015188610120015181518110611cc557611cc561262c565b6020026020010151876020015189610120015181518110611ce857611ce861262c565b602002602001015188600001518a610140015181518110611d0b57611d0b61262c565b602002602001015187611d1e9190612805565b611d289190612805565b611d32919061281c565b611d3c919061281c565b9050620186a0611d4e61012c82612886565b611d589083612805565b611d62919061281c565b90508085116040518060400160405280601781526020017654532d37206e6f7420656e6f7567682062616c616e636560481b81525090611db55760405162461bcd60e51b81526004016101199190612619565b5086518051602091820151918901516040808b015160c08c01519151637de8f56960e01b81526001600160a01b03948516600482015294841660248601529183166044850152911660648301526084820183905261012c60a483015260c4820152600060e482015273__$e930d50fb5f4f1298547dbcb2bb0591990$__90637de8f56990610104016040805180830381865af4158015611e59573d6000803e3d6000fd5b505050506040513d601f19601f82011682018060405250810190611e7d919061266c565b909890975095505050505050565b6000806064841061206657611eaa6001600160a01b0386168886612070565b6040516314b685e960e21b81526001600160a01b038781166004830152868116602483015260448201869052306064830152600091908916906352da17a4906084016080604051808303816000875af1158015611f0b573d6000803e3d6000fd5b505050506040513d601f19601f82011682018060405250810190611f2f91906128bb565b5050604080516001600160a01b03808c1682528a1660208201529081018890523060608201526080810183905260a0810182905291945091507f1d1ba11e7ca20f5dc77d8cfd75b68d11520677808f89f6ba0f0e50dc52c450129060c00160405180910390a16040516370a0823160e01b81523060048201526000906001600160a01b038816906370a0823190602401602060405180830381865afa158015611fdc573d6000803e3d6000fd5b505050506040513d601f19601f8201168201806040525081019061200091906127d9565b905080851161201057600061201a565b61201a81866127f2565b60408051808201909152600f81526e53423a2057726f6e672076616c756560881b602082015290935082156120625760405162461bcd60e51b81526004016101199190612619565b5050505b9550959350505050565b604080516001600160a01b03848116602483015260448083018590528351808403909101815260649092018352602080830180516001600160e01b031663a9059cbb60e01b17905283518085019094528084527f5361666545524332303a206c6f772d6c6576656c2063616c6c206661696c6564908401526109fe9286929160009161210091851690849061217d565b8051909150156109fe578080602001905181019061211e9190612899565b6109fe5760405162461bcd60e51b815260206004820152602a60248201527f5361666545524332303a204552433230206f7065726174696f6e20646964206e6044820152691bdd081cdd58d8d9595960b21b6064820152608401610119565b606061218c8484600085612194565b949350505050565b6060824710156121f55760405162461bcd60e51b815260206004820152602660248201527f416464726573733a20696e73756666696369656e742062616c616e636520666f6044820152651c8818d85b1b60d21b6064820152608401610119565b600080866001600160a01b0316858760405161221191906128f1565b60006040518083038185875af1925050503d806000811461224e576040519150601f19603f3d011682016040523d82523d6000602084013e612253565b606091505b50915091506122648783838761226f565b979650505050505050565b606083156122de5782516000036122d7576001600160a01b0385163b6122d75760405162461bcd60e51b815260206004820152601d60248201527f416464726573733a2063616c6c20746f206e6f6e2d636f6e74726163740000006044820152606401610119565b508161218c565b61218c83838151156122f35781518083602001fd5b8060405162461bcd60e51b81526004016101199190612619565b60405180610160016040528060006001600160a01b0316815260200160006001600160a01b0316815260200160008152602001600081526020016000815260200161236b604051806040016040528060608152602001606081525090565b815260200160008152602001600081526020016000815260200160008152602001600081525090565b60405180604001604052806002906020820280368337509192915050565b6001600160a01b03811681146123c757600080fd5b50565b600080600080600080600080610100898b0312156123e757600080fd5b88356123f2816123b2565b97506020890135612402816123b2565b96506040890135612412816123b2565b95506060890135612422816123b2565b979a969950949760808101359660a0820135965060c0820135955060e0909101359350915050565b634e487b7160e01b600052604160045260246000fd5b6040805190810167ffffffffffffffff8111828210171561249157634e487b7160e01b600052604160045260246000fd5b60405290565b600082601f8301126124a857600080fd5b6124b0612460565b8060408401858111156124c257600080fd5b845b818110156124dc5780358452602093840193016124c4565b509095945050505050565b600080600080600060e086880312156124ff57600080fd5b853561250a816123b2565b94506020868101359450605f8701881361252357600080fd5b61252b612460565b80608089018a81111561253d57600080fd5b60408a015b81811015612562578035612555816123b2565b8452928401928401612542565b508196506125708b82612497565b989b979a50959860c001359695505050505050565b6020808252825182820181905260009190848201906040850190845b818110156125bd578351835292840192918401916001016125a1565b50909695505050505050565b60005b838110156125e45781810151838201526020016125cc565b50506000910152565b600081518084526126058160208601602086016125c9565b601f01601f19169290920160200192915050565b602081526000610a8860208301846125ed565b634e487b7160e01b600052603260045260246000fd5b6001600160a01b039485168152928416602084015292166040820152901515606082015260800190565b6000806040838503121561267f57600080fd5b505080516020909101519092909150565b6000602082840312156126a257600080fd5b8151610a88816123b2565b6000602082840312156126bf57600080fd5b815160ff81168114610a8857600080fd5b634e487b7160e01b600052601160045260246000fd5b600181815b80851115612721578160001904821115612707576127076126d0565b8085161561271457918102915b93841c93908002906126eb565b509250929050565b60008261273857506001610607565b8161274557506000610607565b816001811461275b576002811461276557612781565b6001915050610607565b60ff841115612776576127766126d0565b50506001821b610607565b5060208310610133831016604e8410600b84101617156127a4575081810a610607565b6127ae83836126e6565b80600019048211156127c2576127c26126d0565b029392505050565b6000610a8860ff841683612729565b6000602082840312156127eb57600080fd5b5051919050565b81810381811115610607576106076126d0565b8082028115828204841417610607576106076126d0565b60008261283957634e487b7160e01b600052601260045260246000fd5b500490565b600060018060a01b03808916835260c0602084015261286060c08401896125ed565b9681166040840152949094166060820152608081019290925260a0909101525092915050565b80820180821115610607576106076126d0565b6000602082840312156128ab57600080fd5b81518015158114610a8857600080fd5b600080600080608085870312156128d157600080fd5b505082516020840151604085015160609095015191969095509092509050565b600082516129038184602087016125c9565b919091019291505056fea2646970667358221220178dd84b4f7399a48227aecb116f8a764f360ed5e67c5f113f08a646580420d864736f6c63430008110033",
  "libraries": {
    "ConverterStrategyBaseLib": "0xEf5b8672196c0188197bfEE5677FF8D17918b63b"
  },
  "devdoc": {
    "details": "Swap through liquidator is still allowed to be able to get required profitToCover, but this amount is small",
    "kind": "dev",
    "methods": {
      "prepareToDeposit(ITetuConverter,uint256,address[2],uint256[2],uint256)": {
        "params": {
          "amount_": "Amount of underlying that is going to be deposited                We assume here, that current balance >= the {amount_}",
          "prop0": "Required proportion of underlying, > 0. Proportion of not-underlying is calculates as 1e18 - {prop0}",
          "thresholds_": "Thresholds for the given {tokens_}. Debts with amount-to-repay < threshold are ignored.",
          "tokens_": "[Underlying, not underlying]"
        },
        "returns": {
          "tokenAmounts": "Result amounts [A0 (underlying), A1 (not-underlying)]"
        }
      },
      "rebalanceAssets(ITetuConverter,ITetuLiquidator,address,address,uint256,uint256,uint256,uint256)": {
        "params": {
          "addition0": "Additional amount A0 of {asset0}.                  Balance0 = A0 + B0                  We need following balances in results: B0 : Balance1 === {proportion}:{100_000-proportion}",
          "prop0": "Proportion of {asset0}, > 0. Proportion of {asset1} is calculates as 1e18 - prop0",
          "threshold0": "Min allowed amount of {asset0}-collateral, 0 - use default min value",
          "threshold1": "Min allowed amount of {asset1}-collateral, 0 - use default min value"
        }
      }
    },
    "version": 1
  },
  "userdoc": {
    "kind": "user",
    "methods": {
      "MAX_DEEP_RECURSION()": {
        "notice": "Function {_rebalanceAssets} cannot be called recursively more than twice. Normally one call is enough. Firstly repay(requiredAmount0) is called below. There are two possible results: 1) requiredCost0 <= cost0 2) v.directDebt == 0 There is SCB-818: there are two debts (big and small), on the first cycle we get amount less than expected because of debt gap. So, we need second cycle."
      },
      "SUM_PROPORTIONS()": {
        "notice": "prop0 + prop1"
      },
      "prepareToDeposit(ITetuConverter,uint256,address[2],uint256[2],uint256)": {
        "notice": "Convert {amount_} of underlying to two amounts: A0 (underlying) and A1 (not-underlying)         Result proportions of A0 and A1 should match to {prop0} : 1e18-{prop0}         The function is able to make new borrowing and/or close exist debts."
      },
      "rebalanceAssets(ITetuConverter,ITetuLiquidator,address,address,uint256,uint256,uint256,uint256)": {
        "notice": "Set balances of {asset0} and {asset1} in proportions {prop0}:{prop1} using borrow/repay (no swaps)"
      }
    },
    "notice": "Library to make new borrow, extend/reduce exist borrows and repay to keep proper assets proportions",
    "version": 1
  },
  "storageLayout": {
    "storage": [],
    "types": null
  }
}