{
  "address": "0x9C6cdc64Fc3F43B13deb7971634D838908EB9336",
  "abi": [
    {
      "anonymous": false,
      "inputs": [
        {
          "indexed": false,
          "internalType": "uint256",
          "name": "gains",
          "type": "uint256"
        },
        {
          "indexed": false,
          "internalType": "uint256",
          "name": "losses",
          "type": "uint256"
        }
      ],
      "name": "BorrowResults",
      "type": "event"
    },
    {
      "anonymous": false,
      "inputs": [
        {
          "indexed": false,
          "internalType": "int256",
          "name": "debtToInsuranceBefore",
          "type": "int256"
        },
        {
          "indexed": false,
          "internalType": "int256",
          "name": "increaseToDebt",
          "type": "int256"
        }
      ],
      "name": "ChangeDebtToInsuranceOnProfit",
      "type": "event"
    },
    {
      "anonymous": false,
      "inputs": [
        {
          "indexed": false,
          "internalType": "uint256",
          "name": "investedAssetsBefore",
          "type": "uint256"
        },
        {
          "indexed": false,
          "internalType": "uint256",
          "name": "investedAssetsOut",
          "type": "uint256"
        },
        {
          "indexed": false,
          "internalType": "int256",
          "name": "debtToInsuranceBefore",
          "type": "int256"
        },
        {
          "indexed": false,
          "internalType": "int256",
          "name": "debtToInsuranceAfter",
          "type": "int256"
        },
        {
          "indexed": false,
          "internalType": "int256",
          "name": "increaseToDebt",
          "type": "int256"
        }
      ],
      "name": "FixPriceChanges",
      "type": "event"
    },
    {
      "anonymous": false,
      "inputs": [
        {
          "indexed": false,
          "internalType": "address",
          "name": "token",
          "type": "address"
        },
        {
          "indexed": false,
          "internalType": "uint256",
          "name": "amount",
          "type": "uint256"
        }
      ],
      "name": "LiquidationThresholdChanged",
      "type": "event"
    },
    {
      "anonymous": false,
      "inputs": [
        {
          "indexed": false,
          "internalType": "uint256",
          "name": "lossToCover",
          "type": "uint256"
        },
        {
          "indexed": false,
          "internalType": "int256",
          "name": "debtToInsuranceInc",
          "type": "int256"
        },
        {
          "indexed": false,
          "internalType": "uint256",
          "name": "amountCovered",
          "type": "uint256"
        },
        {
          "indexed": false,
          "internalType": "uint256",
          "name": "lossUncovered",
          "type": "uint256"
        }
      ],
      "name": "OnCoverLoss",
      "type": "event"
    },
    {
      "anonymous": false,
      "inputs": [
        {
          "indexed": false,
          "internalType": "uint256",
          "name": "earned",
          "type": "uint256"
        },
        {
          "indexed": false,
          "internalType": "uint256",
          "name": "earnedByPrice",
          "type": "uint256"
        }
      ],
      "name": "OnEarningOnWithdraw",
      "type": "event"
    },
    {
      "anonymous": false,
      "inputs": [
        {
          "indexed": false,
          "internalType": "address[]",
          "name": "tokens",
          "type": "address[]"
        },
        {
          "indexed": false,
          "internalType": "uint256[]",
          "name": "deltaGains",
          "type": "uint256[]"
        },
        {
          "indexed": false,
          "internalType": "uint256[]",
          "name": "deltaLosses",
          "type": "uint256[]"
        },
        {
          "indexed": false,
          "internalType": "uint256[]",
          "name": "prices",
          "type": "uint256[]"
        },
        {
          "indexed": false,
          "internalType": "int256",
          "name": "increaseToDebt",
          "type": "int256"
        }
      ],
      "name": "OnIncreaseDebtToInsurance",
      "type": "event"
    },
    {
      "anonymous": false,
      "inputs": [
        {
          "indexed": false,
          "internalType": "uint256",
          "name": "amount",
          "type": "uint256"
        }
      ],
      "name": "ReinvestThresholdPercentChanged",
      "type": "event"
    },
    {
      "anonymous": false,
      "inputs": [
        {
          "indexed": false,
          "internalType": "uint256",
          "name": "sentAmount",
          "type": "uint256"
        },
        {
          "indexed": false,
          "internalType": "uint256",
          "name": "unsentAmount",
          "type": "uint256"
        }
      ],
      "name": "SendToInsurance",
      "type": "event"
    },
    {
      "anonymous": false,
      "inputs": [
        {
          "indexed": false,
          "internalType": "uint256",
          "name": "lossCovered",
          "type": "uint256"
        },
        {
          "indexed": false,
          "internalType": "uint256",
          "name": "lossUncovered",
          "type": "uint256"
        },
        {
          "indexed": false,
          "internalType": "uint256",
          "name": "investedAssetsBefore",
          "type": "uint256"
        },
        {
          "indexed": false,
          "internalType": "uint256",
          "name": "investedAssetsAfter",
          "type": "uint256"
        }
      ],
      "name": "UncoveredLoss",
      "type": "event"
    },
    {
      "inputs": [],
      "name": "HARDWORK_LOSS_TOLERANCE",
      "outputs": [
        {
          "internalType": "uint256",
          "name": "",
          "type": "uint256"
        }
      ],
      "stateMutability": "view",
      "type": "function"
    },
    {
      "inputs": [],
      "name": "PRICE_CHANGE_PROFIT_TOLERANCE",
      "outputs": [
        {
          "internalType": "uint256",
          "name": "",
          "type": "uint256"
        }
      ],
      "stateMutability": "view",
      "type": "function"
    },
    {
      "inputs": [
        {
          "internalType": "contract ITetuConverter",
          "name": "converter",
          "type": "ITetuConverter"
        },
        {
          "internalType": "address",
          "name": "token",
          "type": "address"
        }
      ],
      "name": "getAssetPriceFromConverter",
      "outputs": [
        {
          "internalType": "uint256",
          "name": "",
          "type": "uint256"
        }
      ],
      "stateMutability": "view",
      "type": "function"
    },
    {
      "inputs": [
        {
          "internalType": "address[]",
          "name": "tokens_",
          "type": "address[]"
        },
        {
          "internalType": "uint256",
          "name": "indexAsset",
          "type": "uint256"
        }
      ],
      "name": "getAvailableBalances",
      "outputs": [
        {
          "internalType": "uint256[]",
          "name": "",
          "type": "uint256[]"
        }
      ],
      "stateMutability": "view",
      "type": "function"
    },
    {
      "inputs": [
        {
          "internalType": "uint256",
          "name": "targetAmount",
          "type": "uint256"
        },
        {
          "internalType": "address[]",
          "name": "tokens",
          "type": "address[]"
        },
        {
          "internalType": "uint256",
          "name": "indexAsset",
          "type": "uint256"
        },
        {
          "internalType": "contract ITetuConverter",
          "name": "converter",
          "type": "ITetuConverter"
        },
        {
          "internalType": "uint256[]",
          "name": "quoteAmounts",
          "type": "uint256[]"
        },
        {
          "internalType": "uint256",
          "name": "depositorLiquidity",
          "type": "uint256"
        },
        {
          "internalType": "uint256",
          "name": "indexUnderlying",
          "type": "uint256"
        }
      ],
      "name": "getLiquidityAmount",
      "outputs": [
        {
          "internalType": "uint256",
          "name": "resultAmount",
          "type": "uint256"
        }
      ],
      "stateMutability": "view",
      "type": "function"
    },
    {
      "inputs": [
        {
          "internalType": "contract ITetuConverter",
          "name": "converter",
          "type": "ITetuConverter"
        },
        {
          "internalType": "address",
          "name": "tokenA",
          "type": "address"
        },
        {
          "internalType": "address",
          "name": "tokenB",
          "type": "address"
        }
      ],
      "name": "getOracleAssetsPrice",
      "outputs": [
        {
          "internalType": "uint256",
          "name": "price",
          "type": "uint256"
        }
      ],
      "stateMutability": "view",
      "type": "function"
    }
  ],
  "transactionHash": "0x98e6b63153e55acacec1f629c3194d26ac5e6068f3e439ab6740c6e3daffbfea",
  "args": [],
  "numDeployments": 5,
  "solcInputHash": "a408f1fd06b60723e7f996d4b67ed7ec",
  "bytecode": "0x61451261003a600b82828239805160001a60731461002d57634e487b7160e01b600052600060045260246000fd5b30600052607381538281f3fe73000000000000000000000000000000000000000030146080604052600436106101365760003560e01c80637325f33f116100b757806397783a6c1161007b57806397783a6c14610311578063a279fb6614610324578063ac2a37d614610344578063d2c3cf2514610372578063e99de4da1461039257600080fd5b80637325f33f1461026e5780637a55caf31461029d5780637a9a23e5146102b05780637fd6c0a1146102de578063890ffb84146102f157600080fd5b80632ce30333116100fe5780632ce30333146101ac57806336436118146101e157806347835cb2146102015780636138ea851461022157806368f9467b1461024e57600080fd5b80630252e2c71461013b57806309d28c5714610161578063142395ef1461016a5780631997c9ee1461016157806326eadaa31461018c575b600080fd5b61014e61014936600461377b565b6103c0565b6040519081526020015b60405180910390f35b61014e6101f481565b81801561017657600080fd5b5061018a610185366004613819565b610829565b005b81801561019857600080fd5b5061018a6101a736600461385a565b6108d8565b8180156101b857600080fd5b506101cc6101c7366004613881565b6108e9565b60408051928352602083019190915201610158565b8180156101ed57600080fd5b506101cc6101fc3660046138da565b610992565b81801561020d57600080fd5b5061018a61021c366004613958565b6109f3565b81801561022d57600080fd5b5061024161023c366004613991565b610b85565b6040516101589190613a4b565b81801561025a57600080fd5b5061018a610269366004613a5e565b610bdf565b81801561027a57600080fd5b5061028e610289366004613aa1565b610c88565b60405161015893929190613b35565b61014e6102ab366004613958565b610cab565b8180156102bc57600080fd5b506102d06102cb366004613b6a565b610d2b565b604051610158929190613c44565b61014e6102ec366004613c69565b610db8565b8180156102fd57600080fd5b506101cc61030c366004613cb4565b610ee0565b61024161031f366004613d06565b610efe565b81801561033057600080fd5b5061014e61033f366004613d4a565b611011565b81801561035057600080fd5b5061036461035f366004613d8e565b61109c565b604051610158929190613df7565b81801561037e57600080fd5b5061018a61038d366004613e10565b611295565b81801561039e57600080fd5b506103b26103ad366004613e3c565b61138a565b604051610158929190613efb565b60008060001989146107975787516000806103e46103dd8a6115b6565b8c8561167b565b9150915060005b8b518110156104d957808b146104aa5781818151811061040d5761040d613f51565b602002602001015183888151811061042757610427613f51565b602002602001015183898151811061044157610441613f51565b602002602001015185848151811061045b5761045b613f51565b60200260200101518c858151811061047557610475613f51565b60200260200101516104879190613f7d565b6104919190613f7d565b61049b9190613faa565b6104a59190613faa565b6104c5565b8881815181106104bc576104bc613f51565b60200260200101515b6104cf9086613fbe565b94506001016103eb565b5060005b838110156106f7578a81146106ef5760008c828151811061050057610500613f51565b60200260200101516001600160a01b03166370a08231306040518263ffffffff1660e01b81526004016105339190613fd1565b602060405180830381865afa158015610550573d6000803e3d6000fd5b505050506040513d601f19601f820116820180604052508101906105749190613fe5565b905080156106ed57600083838151811061059057610590613f51565b6020026020010151858e815181106105aa576105aa613f51565b6020026020010151858f815181106105c4576105c4613f51565b60200260200101518786815181106105de576105de613f51565b6020026020010151856105f19190613f7d565b6105fb9190613f7d565b6106059190613faa565b61060f9190613faa565b9050808f1161061f57600061062b565b808f61062b9190613ffe565b9e5060008d8a146106cc5784848151811061064857610648613f51565b6020026020010151868b8151811061066257610662613f51565b6020026020010151868c8151811061067c5761067c613f51565b602002602001015188878151811061069657610696613f51565b6020026020010151866106a99190613f7d565b6106b39190613f7d565b6106bd9190613faa565b6106c79190613faa565b6106ce565b815b90508088116106de5760006106e8565b6106e88189613ffe565b975050505b505b6001016104dd565b50858a1461079357808a8151811061071157610711613f51565b602002602001015182878151811061072b5761072b613f51565b602002602001015182888151811061074557610745613f51565b6020026020010151848d8151811061075f5761075f613f51565b60200260200101518f6107729190613f7d565b61077c9190613f7d565b6107869190613faa565b6107909190613faa565b9b505b5050505b600081156107db5789156107d4576064826107bb8c680579a814e10a740000613f7d565b6107c59190613faa565b6107cf9190613faa565b6107e5565b60006107e5565b670de0b6b3a76400005b9050801561081857610813670de0b6b3a76400006108038784613f7d565b61080d9190613faa565b86611869565b61081b565b60005b9a9950505050505050505050565b60405163124fdbb760e21b815273fEA4888C097864Ff292D74AaBf05Bce3e9A969599063493f6edc90610860908690600401613fd1565b60006040518083038186803b15801561087857600080fd5b505af415801561088c573d6000803e3d6000fd5b5050604080516001600160a01b0386168152602081018590527f297f3fbc14027d2b4a4f7dac3dff2ad6b386024299045b0e163f131bb24b611d935001905060405180910390a1505050565b6108e48383838461187f565b505050565b60008060006108f788611b4f565b9050600061092061091161090b898b613fbe565b88611bbf565b61091b8488613fbe565b611bd9565b935090508581146109655760408051828152602081018890527f9d826eb710c9c4b327111bf0bd05a18b4fc3c327e701134e79cae1ce27f51f9b910160405180910390a15b80156109855761098189828c61097b8b8d613fbe565b86611c09565b5093505b5050965096945050505050565b6001850154855460009182916001600160a01b03909116906060806109ba888a898789611dc5565b828e559197509250905060006109d389898585896122ba565b90506109e28c8589848f612594565b955050505050509550959350505050565b6000826001600160a01b031663f77c47916040518163ffffffff1660e01b8152600401602060405180830381865afa158015610a33573d6000803e3d6000fd5b505050506040513d601f19601f82011682018060405250810190610a579190614011565b6001600160a01b03166347b03bba6040518163ffffffff1660e01b8152600401602060405180830381865afa158015610a94573d6000803e3d6000fd5b505050506040513d601f19601f82011682018060405250810190610ab89190614011565b9050600080826001600160a01b0316634be4e9a6856040518263ffffffff1660e01b8152600401610ae99190613fd1565b60408051808303816000875af1158015610b07573d6000803e3d6000fd5b505050506040513d601f19601f82011682018060405250810190610b2b9190614035565b9150915081600014158015610b3f57508015155b15610b7e5760408051838152602081018390527f37aa4ac70052a1bb5d5498a38dae3128bbc585be2886ae01b87e34c85fdccff2910160405180910390a15b5050505050565b6060610bd684848787516001600160401b03811115610ba657610ba661361b565b604051908082528060200260200182016040528015610bcf578160200160208202803683370190505b5086612793565b95945050505050565b6040516370a0823160e01b81526000906001600160a01b038516906370a0823190610c0e903090600401613fd1565b602060405180830381865afa158015610c2b573d6000803e3d6000fd5b505050506040513d601f19601f82011682018060405250810190610c4f9190613fe5565b90506000818360000154610c639190613fbe565b905080841015610b7e5781841115610b7e57610c7f8285613ffe565b83555050505050565b6000606080610c9a8888888888611dc5565b925092509250955095509592505050565b6000610cb6836115b6565b6001600160a01b031663b3596f07836040518263ffffffff1660e01b8152600401610ce19190613fd1565b602060405180830381865afa158015610cfe573d6000803e3d6000fd5b505050506040513d601f19601f82011682018060405250810190610d229190613fe5565b90505b92915050565b6060806000610d3b888888612965565b9050610d4a8a8a8d8489612793565b8a5190935060005b81811015610da557858181518110610d6c57610d6c613f51565b6020026020010151878281518110610d8657610d86613f51565b60200260200101818151610d9a9190613fbe565b905250600101610d52565b5085925050509850989650505050505050565b600080610dc4856115b6565b90506000816001600160a01b031663b3596f07866040518263ffffffff1660e01b8152600401610df49190613fd1565b602060405180830381865afa158015610e11573d6000803e3d6000fd5b505050506040513d601f19601f82011682018060405250810190610e359190613fe5565b90506000826001600160a01b031663b3596f07866040518263ffffffff1660e01b8152600401610e659190613fd1565b602060405180830381865afa158015610e82573d6000803e3d6000fd5b505050506040513d601f19601f82011682018060405250810190610ea69190613fe5565b905060008211610eb857600019610ed5565b81610ecb82670de0b6b3a7640000613f7d565b610ed59190613faa565b979650505050505050565b600080610ef08787878787611c09565b915091509550959350505050565b81516060906000816001600160401b03811115610f1d57610f1d61361b565b604051908082528060200260200182016040528015610f46578160200160208202803683370190505b50905060005b828110156110085780851461100057858181518110610f6d57610f6d613f51565b60200260200101516001600160a01b03166370a08231306040518263ffffffff1660e01b8152600401610fa09190613fd1565b602060405180830381865afa158015610fbd573d6000803e3d6000fd5b505050506040513d601f19601f82011682018060405250810190610fe19190613fe5565b828281518110610ff357610ff3613f51565b6020026020010181815250505b600101610f4c565b50949350505050565b838215610bd65781546001600160a01b03908116906000908816821461103f5761103a82611b4f565b611041565b865b600185015490915061106a90839087906001600160a01b0316611064858b613fbe565b85611c09565b5050816001600160a01b0316886001600160a01b0316036110915761108e88611b4f565b92505b505095945050505050565b60408051600280825260608083018452600093909291906020830190803683370190505090506110cb85611b4f565b816000815181106110de576110de613f51565b6020026020010181815250506110f384611b4f565b8160018151811061110657611106613f51565b602090810291909101015260408051600280825260608201909252600091816020016020820280368337019050509050858160008151811061114a5761114a613f51565b60200260200101906001600160a01b031690816001600160a01b031681525050848160018151811061117e5761117e613f51565b6001600160a01b03929092166020928302919091018201526040805160028082526060820183526000939192909183019080368337019050509050826000815181106111cc576111cc613f51565b6020026020010151816000815181106111e7576111e7613f51565b6020026020010181815250506000611204838360008d6001611dc5565b50509050888110611216576000611220565b611220818a613ffe565b8451873590869060009061123657611236613f51565b6020026020010151108061126a575086600160200201358560018151811061126057611260613f51565b6020026020010151105b6112745784611284565b6040805160008152602081019091525b945094505050509550959350505050565b60405163124fdbb760e21b815273fEA4888C097864Ff292D74AaBf05Bce3e9A969599063493f6edc906112cc908590600401613fd1565b60006040518083038186803b1580156112e457600080fd5b505af41580156112f8573d6000803e3d6000fd5b50505050620186a08111156040518060400160405280600f81526020016e53423a2057726f6e672076616c756560881b815250906113525760405162461bcd60e51b8152600401611349919061407d565b60405180910390fd5b506040518181527fe4166dfcf23bbd3e3f764a99dc8fa740554c03c82d6019b81cf265f396f6f2fe9060200160405180910390a15050565b606080600080886001600160a01b031663ef5cfb8c306040518263ffffffff1660e01b81526004016113bc9190613fd1565b6000604051808303816000875af11580156113db573d6000803e3d6000fd5b505050506040513d6000823e601f3d908101601f19168201604052611403919081019061410b565b91509150611457878784848c8d516001600160401b038111156114285761142861361b565b604051908082528060200260200182016040528015611451578160200160208202803683370190505b50612a6c565b8151919550935060005b8181101561159a5760005b8a51811015611591578a818151811061148757611487613f51565b60200260200101516001600160a01b03168783815181106114aa576114aa613f51565b60200260200101516001600160a01b031603611589578781815181106114d2576114d2613f51565b60200260200101518b82815181106114ec576114ec613f51565b60200260200101516001600160a01b03166370a08231306040518263ffffffff1660e01b815260040161151f9190613fd1565b602060405180830381865afa15801561153c573d6000803e3d6000fd5b505050506040513d601f19601f820116820180604052508101906115609190613fe5565b61156a9190613ffe565b86838151811061157c5761157c613f51565b6020026020010181815250505b60010161146c565b50600101611461565b506115a58585612f93565b909b909a5098505050505050505050565b6000816001600160a01b031663f77c47916040518163ffffffff1660e01b8152600401602060405180830381865afa1580156115f6573d6000803e3d6000fd5b505050506040513d601f19601f8201168201806040525081019061161a9190614011565b6001600160a01b0316632630c12f6040518163ffffffff1660e01b8152600401602060405180830381865afa158015611657573d6000803e3d6000fd5b505050506040513d601f19601f82011682018060405250810190610d259190614011565b606080826001600160401b038111156116965761169661361b565b6040519080825280602002602001820160405280156116bf578160200160208202803683370190505b509150826001600160401b038111156116da576116da61361b565b604051908082528060200260200182016040528015611703578160200160208202803683370190505b50905060005b838110156118605784818151811061172357611723613f51565b60200260200101516001600160a01b031663313ce5676040518163ffffffff1660e01b8152600401602060405180830381865afa158015611768573d6000803e3d6000fd5b505050506040513d601f19601f8201168201806040525081019061178c91906141cf565b61179790600a6142d6565b8282815181106117a9576117a9613f51565b602002602001018181525050856001600160a01b031663b3596f078683815181106117d6576117d6613f51565b60200260200101516040518263ffffffff1660e01b81526004016117fa9190613fd1565b602060405180830381865afa158015611817573d6000803e3d6000fd5b505050506040513d601f19601f8201168201806040525081019061183b9190613fe5565b83828151811061184d5761184d613f51565b6020908102919091010152600101611709565b50935093915050565b60008183106118785781610d22565b5090919050565b6000836001600160a01b03166338d52e0f6040518163ffffffff1660e01b8152600401602060405180830381865afa1580156118bf573d6000803e3d6000fd5b505050506040513d601f19601f820116820180604052508101906118e39190614011565b90506000846001600160a01b031663fbfa77cf6040518163ffffffff1660e01b8152600401602060405180830381865afa158015611925573d6000803e3d6000fd5b505050506040513d601f19601f820116820180604052508101906119499190614011565b90506000826001600160a01b03166370a08231836040518263ffffffff1660e01b81526004016119799190613fd1565b602060405180830381865afa158015611996573d6000803e3d6000fd5b505050506040513d601f19601f820116820180604052508101906119ba9190613fe5565b604051630855081f60e01b815260006004820152602481018790529091506001600160a01b03871690630855081f90604401600060405180830381600087803b158015611a0657600080fd5b505af1158015611a1a573d6000803e3d6000fd5b50506040516370a0823160e01b8152600092506001600160a01b03861691506370a0823190611a4d908690600401613fd1565b602060405180830381865afa158015611a6a573d6000803e3d6000fd5b505050506040513d601f19601f82011682018060405250810190611a8e9190613fe5565b90506000611a9c8284611bbf565b90506000611aaa8883611bbf565b90508715611ad65787611abd8282613ffe565b611ac790896142e5565b611ad19190614315565b611ad9565b60005b96508615611afb57868a6003016000828254611af59190614343565b90915550505b6040805189815260208101899052908101839052606081018290527ff13a1512eb9fa6413cdb85c01e914c6df0dadc043d9aeec658469e95f5d059679060800160405180910390a150505050505050505050565b6040516370a0823160e01b81526000906001600160a01b038316906370a0823190611b7e903090600401613fd1565b602060405180830381865afa158015611b9b573d6000803e3d6000fd5b505050506040513d601f19601f82011682018060405250810190610d259190613fe5565b6000818311611bcf576000610d22565b610d228284613ffe565b60008083831115611bf557611bee8484613ffe565b9150611c02565b611bff8385613ffe565b90505b9250929050565b6000806000611c188785611869565b90508015611d635760408051808201909152601181527054532d35207a65726f2062616c616e636560781b602082015285611c665760405162461bcd60e51b8152600401611349919061407d565b50611c8a81620186a0611c7b886101f4613f7d565b611c859190613faa565b611869565b9050611d63866001600160a01b031663fbfa77cf6040518163ffffffff1660e01b8152600401602060405180830381865afa158015611ccd573d6000803e3d6000fd5b505050506040513d601f19601f82011682018060405250810190611cf19190614011565b6001600160a01b03166389cf32046040518163ffffffff1660e01b8152600401602060405180830381865afa158015611d2e573d6000803e3d6000fd5b505050506040513d601f19601f82011682018060405250810190611d529190614011565b6001600160a01b038a169083613181565b809250808711611d74576000611d7e565b611d7e8188613ffe565b60408051858152602081018390529193507fbaad96f61e3091f46555dc5cf915745a34dbd0981adc3f1c6747a4d5a1ffa055910160405180910390a1509550959350505050565b6000606080611e076040518060800160405280600081526020016060815260200160006001600160a01b0316815260200160006001600160a01b031681525090565b885181528851899088908110611e1f57611e1f613f51565b60209081029190910101516001600160a01b03166040820152611e4d611e44876115b6565b82518b9061167b565b909350915060005b815181101561217f57878103611e9157888181518110611e7757611e77613f51565b602002602001015185611e8a9190613fbe565b9450612177565b898181518110611ea357611ea3613f51565b60209081029190910101516001600160a01b0390811660608401819052604080850151905163dd27ede760e01b8152306004820152602481019290925282166044820152600060648201819052918291908a169063dd27ede79060840160408051808303816000875af1158015611f1e573d6000803e3d6000fd5b505050506040513d601f19601f82011682018060405250810190611f429190614035565b9150915081871015611f5e57611f59848b846131d3565b611f6b565b611f688288613ffe565b96505b60008b8481518110611f7f57611f7f613f51565b602002602001015185606001516001600160a01b03166370a08231306040518263ffffffff1660e01b8152600401611fb79190613fd1565b602060405180830381865afa158015611fd4573d6000803e3d6000fd5b505050506040513d601f19601f82011682018060405250810190611ff89190613fe5565b6120029084613fbe565b61200c9190613fbe565b6040808701516060880151915163dd27ede760e01b81523060048201526001600160a01b039182166024820152918116604483015260006064830152919250908b169063dd27ede79060840160408051808303816000875af1158015612076573d6000803e3d6000fd5b505050506040513d601f19601f8201168201806040525081019061209a9190614035565b90935091506120a98289613fbe565b975082811061215f578584815181106120c4576120c4613f51565b6020026020010151878c815181106120de576120de613f51565b6020026020010151878d815181106120f8576120f8613f51565b602002602001015189878151811061211257612112613f51565b602002602001015186856121269190613ffe565b6121309190613f7d565b61213a9190613f7d565b6121449190613faa565b61214e9190613faa565b6121589089613fbe565b9750612173565b612173858561216e8487613ffe565b6131d3565b5050505b600101611e55565b5080516020820151510361229b5760005b815181101561229957816020015181815181106121af576121af613f51565b6020026020010151600003156122915760008382815181106121d3576121d3613f51565b6020026020010151858a815181106121ed576121ed613f51565b6020026020010151858b8151811061220757612207613f51565b602002602001015187858151811061222157612221613f51565b60200260200101518660200151868151811061223f5761223f613f51565b60200260200101516122519190613f7d565b61225b9190613f7d565b6122659190613faa565b61226f9190613faa565b905085811115612282576000955061228f565b61228c8187613ffe565b95505b505b600101612190565b505b84156122ae576122ab898761325c565b50505b50955095509592505050565b600080826001600160a01b031663f77c47916040518163ffffffff1660e01b8152600401602060405180830381865afa1580156122fb573d6000803e3d6000fd5b505050506040513d601f19601f8201168201806040525081019061231f9190614011565b6001600160a01b03166347b03bba6040518163ffffffff1660e01b8152600401602060405180830381865afa15801561235c573d6000803e3d6000fd5b505050506040513d601f19601f820116820180604052508101906123809190614011565b9050600080826001600160a01b03166338bc8c5e8a6040518263ffffffff1660e01b81526004016123b191906143a4565b6000604051808303816000875af11580156123d0573d6000803e3d6000fd5b505050506040513d6000823e601f3d908101601f191682016040526123f891908101906143b7565b8a51919350915060005b81811015612547578981036124645783818151811061242357612423613f51565b6020026020010151866124369190614403565b955082818151811061244a5761244a613f51565b60200260200101518661245d9190614343565b955061253f565b87818151811061247657612476613f51565b6020026020010151898b8151811061249057612490613f51565b6020026020010151898c815181106124aa576124aa613f51565b60200260200101518b84815181106124c4576124c4613f51565b60200260200101518785815181106124de576124de613f51565b60200260200101518786815181106124f8576124f8613f51565b602002602001015161250a9190614403565b61251491906142e5565b61251e91906142e5565b6125289190614315565b6125329190614315565b61253c9087614343565b95505b600101612402565b507f3c494ff6e1b11028d08783f71eb95f6a0f9705f6b74f85470926baa577ad52308a84848b8960405161257f95949392919061442a565b60405180910390a15050505095945050505050565b60038501546000908585111561260e576125ae8686613ffe565b9150831561260957838760030160008282546125ca9190614343565b909155505060408051828152602081018690527f9dca6303e24e8874cf8b056d48a1351b6a2725e7a309caa33a6a4f74a455ab25910160405180910390a15b612736565b600061261a8688613ffe565b905080156127345783546040516370a0823160e01b81526000916001600160a01b0316906370a0823190612652903090600401613fd1565b602060405180830381865afa15801561266f573d6000803e3d6000fd5b505050506040513d601f19601f820116820180604052508101906126939190613fe5565b61269d9088613fbe565b90506000806126ac84846133a6565b91509150806000146127015760408051838152602081018390529081018b9052606081018a90527f79ebefb350a48e2a470929fdbef327f4d53ceaafdd43e30e288f0279aa70e5fd9060800160405180910390a15b6001870154612730908c906001600160a01b03168487612721828e6142e5565b61272b9190614315565b61187f565b5050505b505b60038701546040805188815260208101889052808201849052606081019290925260808201869052517fdefa80b22e5fab3e2037351d0afab9e865dd4e3e4738002818eed2e6b25cc0139181900360a00190a15095945050505050565b8451606090806001600160401b038111156127b0576127b061361b565b6040519080825280602002602001820160405280156127d9578160200160208202803683370190505b50915060005b818110156110915786810361282b5784818151811061280057612800613f51565b602002602001015183828151811061281a5761281a613f51565b60200260200101818152505061295d565b600084828151811061283f5761283f613f51565b602002602001015186838151811061285957612859613f51565b602002602001015161286b9190613fbe565b9050801561295b57866001600160a01b031663667df249308b8b8151811061289557612895613f51565b60200260200101518c86815181106128af576128af613f51565b60209081029190910101516040516001600160e01b031960e086901b1681526001600160a01b03938416600482015291831660248301529190911660448201526064810184905260840160408051808303816000875af1158015612917573d6000803e3d6000fd5b505050506040513d601f19601f8201168201806040525081019061293b9190614035565b5084838151811061294e5761294e613f51565b6020026020010181815250505b505b6001016127df565b6060600082156129a75782841015612999578261298a85670de0b6b3a7640000613f7d565b6129949190613faa565b6129aa565b670de0b6b3a76400006129aa565b60005b8551909150806001600160401b038111156129c7576129c761361b565b6040519080825280602002602001820160405280156129f0578160200160208202803683370190505b5092508115612a635760005b81811015612a6157670de0b6b3a764000083888381518110612a2057612a20613f51565b6020026020010151612a329190613f7d565b612a3c9190613faa565b848281518110612a4e57612a4e613f51565b60209081029190910101526001016129fc565b505b50509392505050565b604080516003808252608082019092526060918291600091602082018480368337019050509050885181600081518110612aa857612aa8613f51565b602002602001018181525050865181600181518110612ac957612ac9613f51565b602002602001018181525050845181600281518110612aea57612aea613f51565b602002602001018181525050875181600081518110612b0b57612b0b613f51565b6020026020010151148015612b3a5750855181600181518110612b3057612b30613f51565b6020026020010151145b8015612b605750835181600281518110612b5657612b56613f51565b6020026020010151145b6040518060400160405280600d81526020016c54532d3139206c656e6774687360981b81525090612ba45760405162461bcd60e51b8152600401611349919061407d565b50600081600281518110612bba57612bba613f51565b602002602001015182600181518110612bd557612bd5613f51565b602002602001015183600081518110612bf057612bf0613f51565b6020026020010151612c029190613fbe565b612c0c9190613fbe565b90506000816001600160401b03811115612c2857612c2861361b565b604051908082528060200260200182016040528015612c51578160200160208202803683370190505b5090506000826001600160401b03811115612c6e57612c6e61361b565b604051908082528060200260200182016040528015612c97578160200160208202803683370190505b5090506000805b6003811015612e595760008115612cc35781600114612cbd5789612cc5565b8b612cc5565b8d5b905060008215612ce35782600114612cdd578b612ce5565b8d612ce5565b8f5b905060005b888481518110612cfc57612cfc613f51565b6020026020010151811015612e45576000838281518110612d1f57612d1f613f51565b602002602001015190506000838381518110612d3d57612d3d613f51565b602002602001015190506000805b88811015612dca578a8181518110612d6557612d65613f51565b60200260200101516001600160a01b0316836001600160a01b031603612db857838a8281518110612d9857612d98613f51565b60200260200101818151612dac9190613fbe565b90525060019150612dca565b80612dc28161448a565b915050612d4b565b5080612e2f57818a8981518110612de357612de3613f51565b60200260200101906001600160a01b031690816001600160a01b03168152505082898981518110612e1657612e16613f51565b602090810291909101015287612e2b8161448a565b9850505b5050508080612e3d9061448a565b915050612cea565b50505080612e529061448a565b9050612c9e565b50806001600160401b03811115612e7257612e7261361b565b604051908082528060200260200182016040528015612e9b578160200160208202803683370190505b509650806001600160401b03811115612eb657612eb661361b565b604051908082528060200260200182016040528015612edf578160200160208202803683370190505b50955060005b81811015612f8257838181518110612eff57612eff613f51565b6020026020010151888281518110612f1957612f19613f51565b60200260200101906001600160a01b031690816001600160a01b031681525050828181518110612f4b57612f4b613f51565b6020026020010151878281518110612f6557612f65613f51565b602090810291909101015280612f7a8161448a565b915050612ee5565b505050505050965096945050505050565b60608082518451146040518060400160405280600d81526020016c54532d3139206c656e6774687360981b81525090612fdf5760405162461bcd60e51b8152600401611349919061407d565b508351600090815b818110156130305785818151811061300157613001613f51565b602002602001015160001461301e578261301a8161448a565b9350505b806130288161448a565b915050612fe7565b50816001600160401b038111156130495761304961361b565b604051908082528060200260200182016040528015613072578160200160208202803683370190505b509350816001600160401b0381111561308d5761308d61361b565b6040519080825280602002602001820160405280156130b6578160200160208202803683370190505b5092506000805b828110156131765760008782815181106130d9576130d9613f51565b6020026020010151905080600014613163578882815181106130fd576130fd613f51565b602002602001015187848151811061311757613117613f51565b60200260200101906001600160a01b031690816001600160a01b0316815250508086848151811061314a5761314a613f51565b60209081029190910101528261315f8161448a565b9350505b508061316e8161448a565b9150506130bd565b505050509250929050565b604080516001600160a01b038416602482015260448082018490528251808303909101815260649091019091526020810180516001600160e01b031663a9059cbb60e01b1790526108e49084906133c9565b8260200151516000036132295782516001600160401b038111156131f9576131f961361b565b604051908082528060200260200182016040528015613222578160200160208202803683370190505b5060208401525b808360200151838151811061324057613240613f51565b602002602001018181516132549190613fbe565b905250505050565b6060806000836001600160a01b031663f77c47916040518163ffffffff1660e01b8152600401602060405180830381865afa15801561329f573d6000803e3d6000fd5b505050506040513d601f19601f820116820180604052508101906132c39190614011565b6001600160a01b03166347b03bba6040518163ffffffff1660e01b8152600401602060405180830381865afa158015613300573d6000803e3d6000fd5b505050506040513d601f19601f820116820180604052508101906133249190614011565b604051631c5e462f60e11b81529091506001600160a01b038216906338bc8c5e906133539088906004016143a4565b6000604051808303816000875af1158015613372573d6000803e3d6000fd5b505050506040513d6000823e601f3d908101601f1916820160405261339a91908101906143b7565b92509250509250929050565b6000806133bd84620186a0611c7b866101f4613f7d565b9150611bff8483611bbf565b600061341e826040518060400160405280602081526020017f5361666545524332303a206c6f772d6c6576656c2063616c6c206661696c6564815250856001600160a01b031661349b9092919063ffffffff16565b8051909150156108e4578080602001905181019061343c91906144a3565b6108e45760405162461bcd60e51b815260206004820152602a60248201527f5361666545524332303a204552433230206f7065726174696f6e20646964206e6044820152691bdd081cdd58d8d9595960b21b6064820152608401611349565b60606134aa84846000856134b2565b949350505050565b6060824710156135135760405162461bcd60e51b815260206004820152602660248201527f416464726573733a20696e73756666696369656e742062616c616e636520666f6044820152651c8818d85b1b60d21b6064820152608401611349565b600080866001600160a01b0316858760405161352f91906144c0565b60006040518083038185875af1925050503d806000811461356c576040519150601f19603f3d011682016040523d82523d6000602084013e613571565b606091505b5091509150610ed587838387606083156135ec5782516000036135e5576001600160a01b0385163b6135e55760405162461bcd60e51b815260206004820152601d60248201527f416464726573733a2063616c6c20746f206e6f6e2d636f6e74726163740000006044820152606401611349565b50816134aa565b6134aa83838151156136015781518083602001fd5b8060405162461bcd60e51b8152600401611349919061407d565b634e487b7160e01b600052604160045260246000fd5b604051601f8201601f191681016001600160401b03811182821017156136595761365961361b565b604052919050565b60006001600160401b0382111561367a5761367a61361b565b5060051b60200190565b6001600160a01b038116811461369957600080fd5b50565b600082601f8301126136ad57600080fd5b813560206136c26136bd83613661565b613631565b82815260059290921b840181019181810190868411156136e157600080fd5b8286015b848110156137055780356136f881613684565b83529183019183016136e5565b509695505050505050565b803561371b81613684565b919050565b600082601f83011261373157600080fd5b813560206137416136bd83613661565b82815260059290921b8401810191818101908684111561376057600080fd5b8286015b848110156137055780358352918301918301613764565b600080600080600080600060e0888a03121561379657600080fd5b8735965060208801356001600160401b03808211156137b457600080fd5b6137c08b838c0161369c565b975060408a0135965060608a013591506137d982613684565b909450608089013590808211156137ef57600080fd5b506137fc8a828b01613720565b93505060a0880135915060c0880135905092959891949750929550565b60008060006060848603121561382e57600080fd5b833561383981613684565b9250602084013561384981613684565b929592945050506040919091013590565b60008060006060848603121561386f57600080fd5b83359250602084013561384981613684565b60008060008060008060c0878903121561389a57600080fd5b86356138a581613684565b955060208701356138b581613684565b95989597505050506040840135936060810135936080820135935060a0909101359150565b600080600080600060a086880312156138f257600080fd5b853594506020860135935060408601356001600160401b038082111561391757600080fd5b61392389838a01613720565b9450606088013591508082111561393957600080fd5b506139468882890161369c565b95989497509295608001359392505050565b6000806040838503121561396b57600080fd5b823561397681613684565b9150602083013561398681613684565b809150509250929050565b600080600080608085870312156139a757600080fd5b84356139b281613684565b935060208501356001600160401b03808211156139ce57600080fd5b6139da8883890161369c565b94506040870135935060608701359150808211156139f757600080fd5b50613a0487828801613720565b91505092959194509250565b600081518084526020808501945080840160005b83811015613a4057815187529582019590820190600101613a24565b509495945050505050565b602081526000610d226020830184613a10565b600080600060608486031215613a7357600080fd5b8335613a7e81613684565b95602085013595506040909401359392505050565b801515811461369957600080fd5b600080600080600060a08688031215613ab957600080fd5b85356001600160401b0380821115613ad057600080fd5b613adc89838a0161369c565b96506020880135915080821115613af257600080fd5b50613aff88828901613720565b945050604086013592506060860135613b1781613684565b91506080860135613b2781613a93565b809150509295509295909350565b838152606060208201526000613b4e6060830185613a10565b8281036040840152613b608185613a10565b9695505050505050565b600080600080600080600080610100898b031215613b8757600080fd5b613b9089613710565b975060208901356001600160401b0380821115613bac57600080fd5b613bb88c838d0161369c565b985060408b0135975060608b0135915080821115613bd557600080fd5b613be18c838d01613720565b965060808b0135955060a08b0135945060c08b0135915080821115613c0557600080fd5b613c118c838d01613720565b935060e08b0135915080821115613c2757600080fd5b50613c348b828c01613720565b9150509295985092959890939650565b604081526000613c576040830185613a10565b8281036020840152610bd68185613a10565b600080600060608486031215613c7e57600080fd5b8335613c8981613684565b92506020840135613c9981613684565b91506040840135613ca981613684565b809150509250925092565b600080600080600060a08688031215613ccc57600080fd5b8535613cd781613684565b9450602086013593506040860135613cee81613684565b94979396509394606081013594506080013592915050565b60008060408385031215613d1957600080fd5b82356001600160401b03811115613d2f57600080fd5b613d3b8582860161369c565b95602094909401359450505050565b600080600080600060a08688031215613d6257600080fd5b8535613d6d81613684565b97602087013597506040870135966060810135965060800135945092505050565b600080600080600060c08688031215613da657600080fd5b8535613db181613684565b9450602086013593506040860135613dc881613684565b92506060860135613dd881613684565b915060c08601871015613dea57600080fd5b5092959194509260800190565b8281526040602082015260006134aa6040830184613a10565b60008060408385031215613e2357600080fd5b8235613e2e81613684565b946020939093013593505050565b600080600080600060a08688031215613e5457600080fd5b8535613e5f81613684565b945060208601356001600160401b0380821115613e7b57600080fd5b613e8789838a0161369c565b95506040880135915080821115613e9d57600080fd5b613ea989838a0161369c565b94506060880135915080821115613ebf57600080fd5b613ecb89838a01613720565b93506080880135915080821115613ee157600080fd5b50613eee88828901613720565b9150509295509295909350565b604080825283519082018190526000906020906060840190828701845b82811015613f3d5781516001600160a01b031684529284019290840190600101613f18565b50505083810382850152613b608186613a10565b634e487b7160e01b600052603260045260246000fd5b634e487b7160e01b600052601160045260246000fd5b8082028115828204841417610d2557610d25613f67565b634e487b7160e01b600052601260045260246000fd5b600082613fb957613fb9613f94565b500490565b80820180821115610d2557610d25613f67565b6001600160a01b0391909116815260200190565b600060208284031215613ff757600080fd5b5051919050565b81810381811115610d2557610d25613f67565b60006020828403121561402357600080fd5b815161402e81613684565b9392505050565b6000806040838503121561404857600080fd5b505080516020909101519092909150565b60005b8381101561407457818101518382015260200161405c565b50506000910152565b602081526000825180602084015261409c816040850160208701614059565b601f01601f19169190910160400192915050565b600082601f8301126140c157600080fd5b815160206140d16136bd83613661565b82815260059290921b840181019181810190868411156140f057600080fd5b8286015b8481101561370557805183529183019183016140f4565b6000806040838503121561411e57600080fd5b82516001600160401b038082111561413557600080fd5b818501915085601f83011261414957600080fd5b815160206141596136bd83613661565b82815260059290921b8401810191818101908984111561417857600080fd5b948201945b8386101561419f57855161419081613684565b8252948201949082019061417d565b918801519196509093505050808211156141b857600080fd5b506141c5858286016140b0565b9150509250929050565b6000602082840312156141e157600080fd5b815160ff8116811461402e57600080fd5b600181815b8085111561422d57816000190482111561421357614213613f67565b8085161561422057918102915b93841c93908002906141f7565b509250929050565b60008261424457506001610d25565b8161425157506000610d25565b816001811461426757600281146142715761428d565b6001915050610d25565b60ff84111561428257614282613f67565b50506001821b610d25565b5060208310610133831016604e8410600b84101617156142b0575081810a610d25565b6142ba83836141f2565b80600019048211156142ce576142ce613f67565b029392505050565b6000610d2260ff841683614235565b80820260008212600160ff1b8414161561430157614301613f67565b8181058314821517610d2557610d25613f67565b60008261432457614324613f94565b600160ff1b82146000198414161561433e5761433e613f67565b500590565b808201828112600083128015821682158216171561436357614363613f67565b505092915050565b600081518084526020808501945080840160005b83811015613a405781516001600160a01b03168752958201959082019060010161437f565b602081526000610d22602083018461436b565b600080604083850312156143ca57600080fd5b82516001600160401b03808211156143e157600080fd5b6143ed868387016140b0565b935060208501519150808211156141b857600080fd5b818103600083128015838313168383128216171561442357614423613f67565b5092915050565b60a08152600061443d60a083018861436b565b828103602084015261444f8188613a10565b905082810360408401526144638187613a10565b905082810360608401526144778186613a10565b9150508260808301529695505050505050565b60006001820161449c5761449c613f67565b5060010190565b6000602082840312156144b557600080fd5b815161402e81613a93565b600082516144d2818460208701614059565b919091019291505056fea26469706673582212206f28fa3d9c1167012f23eae81f00d751dc11abfd6151c318bb094eba9db67d1664736f6c63430008110033",
  "deployedBytecode": "0x73000000000000000000000000000000000000000030146080604052600436106101365760003560e01c80637325f33f116100b757806397783a6c1161007b57806397783a6c14610311578063a279fb6614610324578063ac2a37d614610344578063d2c3cf2514610372578063e99de4da1461039257600080fd5b80637325f33f1461026e5780637a55caf31461029d5780637a9a23e5146102b05780637fd6c0a1146102de578063890ffb84146102f157600080fd5b80632ce30333116100fe5780632ce30333146101ac57806336436118146101e157806347835cb2146102015780636138ea851461022157806368f9467b1461024e57600080fd5b80630252e2c71461013b57806309d28c5714610161578063142395ef1461016a5780631997c9ee1461016157806326eadaa31461018c575b600080fd5b61014e61014936600461377b565b6103c0565b6040519081526020015b60405180910390f35b61014e6101f481565b81801561017657600080fd5b5061018a610185366004613819565b610829565b005b81801561019857600080fd5b5061018a6101a736600461385a565b6108d8565b8180156101b857600080fd5b506101cc6101c7366004613881565b6108e9565b60408051928352602083019190915201610158565b8180156101ed57600080fd5b506101cc6101fc3660046138da565b610992565b81801561020d57600080fd5b5061018a61021c366004613958565b6109f3565b81801561022d57600080fd5b5061024161023c366004613991565b610b85565b6040516101589190613a4b565b81801561025a57600080fd5b5061018a610269366004613a5e565b610bdf565b81801561027a57600080fd5b5061028e610289366004613aa1565b610c88565b60405161015893929190613b35565b61014e6102ab366004613958565b610cab565b8180156102bc57600080fd5b506102d06102cb366004613b6a565b610d2b565b604051610158929190613c44565b61014e6102ec366004613c69565b610db8565b8180156102fd57600080fd5b506101cc61030c366004613cb4565b610ee0565b61024161031f366004613d06565b610efe565b81801561033057600080fd5b5061014e61033f366004613d4a565b611011565b81801561035057600080fd5b5061036461035f366004613d8e565b61109c565b604051610158929190613df7565b81801561037e57600080fd5b5061018a61038d366004613e10565b611295565b81801561039e57600080fd5b506103b26103ad366004613e3c565b61138a565b604051610158929190613efb565b60008060001989146107975787516000806103e46103dd8a6115b6565b8c8561167b565b9150915060005b8b518110156104d957808b146104aa5781818151811061040d5761040d613f51565b602002602001015183888151811061042757610427613f51565b602002602001015183898151811061044157610441613f51565b602002602001015185848151811061045b5761045b613f51565b60200260200101518c858151811061047557610475613f51565b60200260200101516104879190613f7d565b6104919190613f7d565b61049b9190613faa565b6104a59190613faa565b6104c5565b8881815181106104bc576104bc613f51565b60200260200101515b6104cf9086613fbe565b94506001016103eb565b5060005b838110156106f7578a81146106ef5760008c828151811061050057610500613f51565b60200260200101516001600160a01b03166370a08231306040518263ffffffff1660e01b81526004016105339190613fd1565b602060405180830381865afa158015610550573d6000803e3d6000fd5b505050506040513d601f19601f820116820180604052508101906105749190613fe5565b905080156106ed57600083838151811061059057610590613f51565b6020026020010151858e815181106105aa576105aa613f51565b6020026020010151858f815181106105c4576105c4613f51565b60200260200101518786815181106105de576105de613f51565b6020026020010151856105f19190613f7d565b6105fb9190613f7d565b6106059190613faa565b61060f9190613faa565b9050808f1161061f57600061062b565b808f61062b9190613ffe565b9e5060008d8a146106cc5784848151811061064857610648613f51565b6020026020010151868b8151811061066257610662613f51565b6020026020010151868c8151811061067c5761067c613f51565b602002602001015188878151811061069657610696613f51565b6020026020010151866106a99190613f7d565b6106b39190613f7d565b6106bd9190613faa565b6106c79190613faa565b6106ce565b815b90508088116106de5760006106e8565b6106e88189613ffe565b975050505b505b6001016104dd565b50858a1461079357808a8151811061071157610711613f51565b602002602001015182878151811061072b5761072b613f51565b602002602001015182888151811061074557610745613f51565b6020026020010151848d8151811061075f5761075f613f51565b60200260200101518f6107729190613f7d565b61077c9190613f7d565b6107869190613faa565b6107909190613faa565b9b505b5050505b600081156107db5789156107d4576064826107bb8c680579a814e10a740000613f7d565b6107c59190613faa565b6107cf9190613faa565b6107e5565b60006107e5565b670de0b6b3a76400005b9050801561081857610813670de0b6b3a76400006108038784613f7d565b61080d9190613faa565b86611869565b61081b565b60005b9a9950505050505050505050565b60405163124fdbb760e21b815273__$ec217c54da363a68ad871e6868efec481c$__9063493f6edc90610860908690600401613fd1565b60006040518083038186803b15801561087857600080fd5b505af415801561088c573d6000803e3d6000fd5b5050604080516001600160a01b0386168152602081018590527f297f3fbc14027d2b4a4f7dac3dff2ad6b386024299045b0e163f131bb24b611d935001905060405180910390a1505050565b6108e48383838461187f565b505050565b60008060006108f788611b4f565b9050600061092061091161090b898b613fbe565b88611bbf565b61091b8488613fbe565b611bd9565b935090508581146109655760408051828152602081018890527f9d826eb710c9c4b327111bf0bd05a18b4fc3c327e701134e79cae1ce27f51f9b910160405180910390a15b80156109855761098189828c61097b8b8d613fbe565b86611c09565b5093505b5050965096945050505050565b6001850154855460009182916001600160a01b03909116906060806109ba888a898789611dc5565b828e559197509250905060006109d389898585896122ba565b90506109e28c8589848f612594565b955050505050509550959350505050565b6000826001600160a01b031663f77c47916040518163ffffffff1660e01b8152600401602060405180830381865afa158015610a33573d6000803e3d6000fd5b505050506040513d601f19601f82011682018060405250810190610a579190614011565b6001600160a01b03166347b03bba6040518163ffffffff1660e01b8152600401602060405180830381865afa158015610a94573d6000803e3d6000fd5b505050506040513d601f19601f82011682018060405250810190610ab89190614011565b9050600080826001600160a01b0316634be4e9a6856040518263ffffffff1660e01b8152600401610ae99190613fd1565b60408051808303816000875af1158015610b07573d6000803e3d6000fd5b505050506040513d601f19601f82011682018060405250810190610b2b9190614035565b9150915081600014158015610b3f57508015155b15610b7e5760408051838152602081018390527f37aa4ac70052a1bb5d5498a38dae3128bbc585be2886ae01b87e34c85fdccff2910160405180910390a15b5050505050565b6060610bd684848787516001600160401b03811115610ba657610ba661361b565b604051908082528060200260200182016040528015610bcf578160200160208202803683370190505b5086612793565b95945050505050565b6040516370a0823160e01b81526000906001600160a01b038516906370a0823190610c0e903090600401613fd1565b602060405180830381865afa158015610c2b573d6000803e3d6000fd5b505050506040513d601f19601f82011682018060405250810190610c4f9190613fe5565b90506000818360000154610c639190613fbe565b905080841015610b7e5781841115610b7e57610c7f8285613ffe565b83555050505050565b6000606080610c9a8888888888611dc5565b925092509250955095509592505050565b6000610cb6836115b6565b6001600160a01b031663b3596f07836040518263ffffffff1660e01b8152600401610ce19190613fd1565b602060405180830381865afa158015610cfe573d6000803e3d6000fd5b505050506040513d601f19601f82011682018060405250810190610d229190613fe5565b90505b92915050565b6060806000610d3b888888612965565b9050610d4a8a8a8d8489612793565b8a5190935060005b81811015610da557858181518110610d6c57610d6c613f51565b6020026020010151878281518110610d8657610d86613f51565b60200260200101818151610d9a9190613fbe565b905250600101610d52565b5085925050509850989650505050505050565b600080610dc4856115b6565b90506000816001600160a01b031663b3596f07866040518263ffffffff1660e01b8152600401610df49190613fd1565b602060405180830381865afa158015610e11573d6000803e3d6000fd5b505050506040513d601f19601f82011682018060405250810190610e359190613fe5565b90506000826001600160a01b031663b3596f07866040518263ffffffff1660e01b8152600401610e659190613fd1565b602060405180830381865afa158015610e82573d6000803e3d6000fd5b505050506040513d601f19601f82011682018060405250810190610ea69190613fe5565b905060008211610eb857600019610ed5565b81610ecb82670de0b6b3a7640000613f7d565b610ed59190613faa565b979650505050505050565b600080610ef08787878787611c09565b915091509550959350505050565b81516060906000816001600160401b03811115610f1d57610f1d61361b565b604051908082528060200260200182016040528015610f46578160200160208202803683370190505b50905060005b828110156110085780851461100057858181518110610f6d57610f6d613f51565b60200260200101516001600160a01b03166370a08231306040518263ffffffff1660e01b8152600401610fa09190613fd1565b602060405180830381865afa158015610fbd573d6000803e3d6000fd5b505050506040513d601f19601f82011682018060405250810190610fe19190613fe5565b828281518110610ff357610ff3613f51565b6020026020010181815250505b600101610f4c565b50949350505050565b838215610bd65781546001600160a01b03908116906000908816821461103f5761103a82611b4f565b611041565b865b600185015490915061106a90839087906001600160a01b0316611064858b613fbe565b85611c09565b5050816001600160a01b0316886001600160a01b0316036110915761108e88611b4f565b92505b505095945050505050565b60408051600280825260608083018452600093909291906020830190803683370190505090506110cb85611b4f565b816000815181106110de576110de613f51565b6020026020010181815250506110f384611b4f565b8160018151811061110657611106613f51565b602090810291909101015260408051600280825260608201909252600091816020016020820280368337019050509050858160008151811061114a5761114a613f51565b60200260200101906001600160a01b031690816001600160a01b031681525050848160018151811061117e5761117e613f51565b6001600160a01b03929092166020928302919091018201526040805160028082526060820183526000939192909183019080368337019050509050826000815181106111cc576111cc613f51565b6020026020010151816000815181106111e7576111e7613f51565b6020026020010181815250506000611204838360008d6001611dc5565b50509050888110611216576000611220565b611220818a613ffe565b8451873590869060009061123657611236613f51565b6020026020010151108061126a575086600160200201358560018151811061126057611260613f51565b6020026020010151105b6112745784611284565b6040805160008152602081019091525b945094505050509550959350505050565b60405163124fdbb760e21b815273__$ec217c54da363a68ad871e6868efec481c$__9063493f6edc906112cc908590600401613fd1565b60006040518083038186803b1580156112e457600080fd5b505af41580156112f8573d6000803e3d6000fd5b50505050620186a08111156040518060400160405280600f81526020016e53423a2057726f6e672076616c756560881b815250906113525760405162461bcd60e51b8152600401611349919061407d565b60405180910390fd5b506040518181527fe4166dfcf23bbd3e3f764a99dc8fa740554c03c82d6019b81cf265f396f6f2fe9060200160405180910390a15050565b606080600080886001600160a01b031663ef5cfb8c306040518263ffffffff1660e01b81526004016113bc9190613fd1565b6000604051808303816000875af11580156113db573d6000803e3d6000fd5b505050506040513d6000823e601f3d908101601f19168201604052611403919081019061410b565b91509150611457878784848c8d516001600160401b038111156114285761142861361b565b604051908082528060200260200182016040528015611451578160200160208202803683370190505b50612a6c565b8151919550935060005b8181101561159a5760005b8a51811015611591578a818151811061148757611487613f51565b60200260200101516001600160a01b03168783815181106114aa576114aa613f51565b60200260200101516001600160a01b031603611589578781815181106114d2576114d2613f51565b60200260200101518b82815181106114ec576114ec613f51565b60200260200101516001600160a01b03166370a08231306040518263ffffffff1660e01b815260040161151f9190613fd1565b602060405180830381865afa15801561153c573d6000803e3d6000fd5b505050506040513d601f19601f820116820180604052508101906115609190613fe5565b61156a9190613ffe565b86838151811061157c5761157c613f51565b6020026020010181815250505b60010161146c565b50600101611461565b506115a58585612f93565b909b909a5098505050505050505050565b6000816001600160a01b031663f77c47916040518163ffffffff1660e01b8152600401602060405180830381865afa1580156115f6573d6000803e3d6000fd5b505050506040513d601f19601f8201168201806040525081019061161a9190614011565b6001600160a01b0316632630c12f6040518163ffffffff1660e01b8152600401602060405180830381865afa158015611657573d6000803e3d6000fd5b505050506040513d601f19601f82011682018060405250810190610d259190614011565b606080826001600160401b038111156116965761169661361b565b6040519080825280602002602001820160405280156116bf578160200160208202803683370190505b509150826001600160401b038111156116da576116da61361b565b604051908082528060200260200182016040528015611703578160200160208202803683370190505b50905060005b838110156118605784818151811061172357611723613f51565b60200260200101516001600160a01b031663313ce5676040518163ffffffff1660e01b8152600401602060405180830381865afa158015611768573d6000803e3d6000fd5b505050506040513d601f19601f8201168201806040525081019061178c91906141cf565b61179790600a6142d6565b8282815181106117a9576117a9613f51565b602002602001018181525050856001600160a01b031663b3596f078683815181106117d6576117d6613f51565b60200260200101516040518263ffffffff1660e01b81526004016117fa9190613fd1565b602060405180830381865afa158015611817573d6000803e3d6000fd5b505050506040513d601f19601f8201168201806040525081019061183b9190613fe5565b83828151811061184d5761184d613f51565b6020908102919091010152600101611709565b50935093915050565b60008183106118785781610d22565b5090919050565b6000836001600160a01b03166338d52e0f6040518163ffffffff1660e01b8152600401602060405180830381865afa1580156118bf573d6000803e3d6000fd5b505050506040513d601f19601f820116820180604052508101906118e39190614011565b90506000846001600160a01b031663fbfa77cf6040518163ffffffff1660e01b8152600401602060405180830381865afa158015611925573d6000803e3d6000fd5b505050506040513d601f19601f820116820180604052508101906119499190614011565b90506000826001600160a01b03166370a08231836040518263ffffffff1660e01b81526004016119799190613fd1565b602060405180830381865afa158015611996573d6000803e3d6000fd5b505050506040513d601f19601f820116820180604052508101906119ba9190613fe5565b604051630855081f60e01b815260006004820152602481018790529091506001600160a01b03871690630855081f90604401600060405180830381600087803b158015611a0657600080fd5b505af1158015611a1a573d6000803e3d6000fd5b50506040516370a0823160e01b8152600092506001600160a01b03861691506370a0823190611a4d908690600401613fd1565b602060405180830381865afa158015611a6a573d6000803e3d6000fd5b505050506040513d601f19601f82011682018060405250810190611a8e9190613fe5565b90506000611a9c8284611bbf565b90506000611aaa8883611bbf565b90508715611ad65787611abd8282613ffe565b611ac790896142e5565b611ad19190614315565b611ad9565b60005b96508615611afb57868a6003016000828254611af59190614343565b90915550505b6040805189815260208101899052908101839052606081018290527ff13a1512eb9fa6413cdb85c01e914c6df0dadc043d9aeec658469e95f5d059679060800160405180910390a150505050505050505050565b6040516370a0823160e01b81526000906001600160a01b038316906370a0823190611b7e903090600401613fd1565b602060405180830381865afa158015611b9b573d6000803e3d6000fd5b505050506040513d601f19601f82011682018060405250810190610d259190613fe5565b6000818311611bcf576000610d22565b610d228284613ffe565b60008083831115611bf557611bee8484613ffe565b9150611c02565b611bff8385613ffe565b90505b9250929050565b6000806000611c188785611869565b90508015611d635760408051808201909152601181527054532d35207a65726f2062616c616e636560781b602082015285611c665760405162461bcd60e51b8152600401611349919061407d565b50611c8a81620186a0611c7b886101f4613f7d565b611c859190613faa565b611869565b9050611d63866001600160a01b031663fbfa77cf6040518163ffffffff1660e01b8152600401602060405180830381865afa158015611ccd573d6000803e3d6000fd5b505050506040513d601f19601f82011682018060405250810190611cf19190614011565b6001600160a01b03166389cf32046040518163ffffffff1660e01b8152600401602060405180830381865afa158015611d2e573d6000803e3d6000fd5b505050506040513d601f19601f82011682018060405250810190611d529190614011565b6001600160a01b038a169083613181565b809250808711611d74576000611d7e565b611d7e8188613ffe565b60408051858152602081018390529193507fbaad96f61e3091f46555dc5cf915745a34dbd0981adc3f1c6747a4d5a1ffa055910160405180910390a1509550959350505050565b6000606080611e076040518060800160405280600081526020016060815260200160006001600160a01b0316815260200160006001600160a01b031681525090565b885181528851899088908110611e1f57611e1f613f51565b60209081029190910101516001600160a01b03166040820152611e4d611e44876115b6565b82518b9061167b565b909350915060005b815181101561217f57878103611e9157888181518110611e7757611e77613f51565b602002602001015185611e8a9190613fbe565b9450612177565b898181518110611ea357611ea3613f51565b60209081029190910101516001600160a01b0390811660608401819052604080850151905163dd27ede760e01b8152306004820152602481019290925282166044820152600060648201819052918291908a169063dd27ede79060840160408051808303816000875af1158015611f1e573d6000803e3d6000fd5b505050506040513d601f19601f82011682018060405250810190611f429190614035565b9150915081871015611f5e57611f59848b846131d3565b611f6b565b611f688288613ffe565b96505b60008b8481518110611f7f57611f7f613f51565b602002602001015185606001516001600160a01b03166370a08231306040518263ffffffff1660e01b8152600401611fb79190613fd1565b602060405180830381865afa158015611fd4573d6000803e3d6000fd5b505050506040513d601f19601f82011682018060405250810190611ff89190613fe5565b6120029084613fbe565b61200c9190613fbe565b6040808701516060880151915163dd27ede760e01b81523060048201526001600160a01b039182166024820152918116604483015260006064830152919250908b169063dd27ede79060840160408051808303816000875af1158015612076573d6000803e3d6000fd5b505050506040513d601f19601f8201168201806040525081019061209a9190614035565b90935091506120a98289613fbe565b975082811061215f578584815181106120c4576120c4613f51565b6020026020010151878c815181106120de576120de613f51565b6020026020010151878d815181106120f8576120f8613f51565b602002602001015189878151811061211257612112613f51565b602002602001015186856121269190613ffe565b6121309190613f7d565b61213a9190613f7d565b6121449190613faa565b61214e9190613faa565b6121589089613fbe565b9750612173565b612173858561216e8487613ffe565b6131d3565b5050505b600101611e55565b5080516020820151510361229b5760005b815181101561229957816020015181815181106121af576121af613f51565b6020026020010151600003156122915760008382815181106121d3576121d3613f51565b6020026020010151858a815181106121ed576121ed613f51565b6020026020010151858b8151811061220757612207613f51565b602002602001015187858151811061222157612221613f51565b60200260200101518660200151868151811061223f5761223f613f51565b60200260200101516122519190613f7d565b61225b9190613f7d565b6122659190613faa565b61226f9190613faa565b905085811115612282576000955061228f565b61228c8187613ffe565b95505b505b600101612190565b505b84156122ae576122ab898761325c565b50505b50955095509592505050565b600080826001600160a01b031663f77c47916040518163ffffffff1660e01b8152600401602060405180830381865afa1580156122fb573d6000803e3d6000fd5b505050506040513d601f19601f8201168201806040525081019061231f9190614011565b6001600160a01b03166347b03bba6040518163ffffffff1660e01b8152600401602060405180830381865afa15801561235c573d6000803e3d6000fd5b505050506040513d601f19601f820116820180604052508101906123809190614011565b9050600080826001600160a01b03166338bc8c5e8a6040518263ffffffff1660e01b81526004016123b191906143a4565b6000604051808303816000875af11580156123d0573d6000803e3d6000fd5b505050506040513d6000823e601f3d908101601f191682016040526123f891908101906143b7565b8a51919350915060005b81811015612547578981036124645783818151811061242357612423613f51565b6020026020010151866124369190614403565b955082818151811061244a5761244a613f51565b60200260200101518661245d9190614343565b955061253f565b87818151811061247657612476613f51565b6020026020010151898b8151811061249057612490613f51565b6020026020010151898c815181106124aa576124aa613f51565b60200260200101518b84815181106124c4576124c4613f51565b60200260200101518785815181106124de576124de613f51565b60200260200101518786815181106124f8576124f8613f51565b602002602001015161250a9190614403565b61251491906142e5565b61251e91906142e5565b6125289190614315565b6125329190614315565b61253c9087614343565b95505b600101612402565b507f3c494ff6e1b11028d08783f71eb95f6a0f9705f6b74f85470926baa577ad52308a84848b8960405161257f95949392919061442a565b60405180910390a15050505095945050505050565b60038501546000908585111561260e576125ae8686613ffe565b9150831561260957838760030160008282546125ca9190614343565b909155505060408051828152602081018690527f9dca6303e24e8874cf8b056d48a1351b6a2725e7a309caa33a6a4f74a455ab25910160405180910390a15b612736565b600061261a8688613ffe565b905080156127345783546040516370a0823160e01b81526000916001600160a01b0316906370a0823190612652903090600401613fd1565b602060405180830381865afa15801561266f573d6000803e3d6000fd5b505050506040513d601f19601f820116820180604052508101906126939190613fe5565b61269d9088613fbe565b90506000806126ac84846133a6565b91509150806000146127015760408051838152602081018390529081018b9052606081018a90527f79ebefb350a48e2a470929fdbef327f4d53ceaafdd43e30e288f0279aa70e5fd9060800160405180910390a15b6001870154612730908c906001600160a01b03168487612721828e6142e5565b61272b9190614315565b61187f565b5050505b505b60038701546040805188815260208101889052808201849052606081019290925260808201869052517fdefa80b22e5fab3e2037351d0afab9e865dd4e3e4738002818eed2e6b25cc0139181900360a00190a15095945050505050565b8451606090806001600160401b038111156127b0576127b061361b565b6040519080825280602002602001820160405280156127d9578160200160208202803683370190505b50915060005b818110156110915786810361282b5784818151811061280057612800613f51565b602002602001015183828151811061281a5761281a613f51565b60200260200101818152505061295d565b600084828151811061283f5761283f613f51565b602002602001015186838151811061285957612859613f51565b602002602001015161286b9190613fbe565b9050801561295b57866001600160a01b031663667df249308b8b8151811061289557612895613f51565b60200260200101518c86815181106128af576128af613f51565b60209081029190910101516040516001600160e01b031960e086901b1681526001600160a01b03938416600482015291831660248301529190911660448201526064810184905260840160408051808303816000875af1158015612917573d6000803e3d6000fd5b505050506040513d601f19601f8201168201806040525081019061293b9190614035565b5084838151811061294e5761294e613f51565b6020026020010181815250505b505b6001016127df565b6060600082156129a75782841015612999578261298a85670de0b6b3a7640000613f7d565b6129949190613faa565b6129aa565b670de0b6b3a76400006129aa565b60005b8551909150806001600160401b038111156129c7576129c761361b565b6040519080825280602002602001820160405280156129f0578160200160208202803683370190505b5092508115612a635760005b81811015612a6157670de0b6b3a764000083888381518110612a2057612a20613f51565b6020026020010151612a329190613f7d565b612a3c9190613faa565b848281518110612a4e57612a4e613f51565b60209081029190910101526001016129fc565b505b50509392505050565b604080516003808252608082019092526060918291600091602082018480368337019050509050885181600081518110612aa857612aa8613f51565b602002602001018181525050865181600181518110612ac957612ac9613f51565b602002602001018181525050845181600281518110612aea57612aea613f51565b602002602001018181525050875181600081518110612b0b57612b0b613f51565b6020026020010151148015612b3a5750855181600181518110612b3057612b30613f51565b6020026020010151145b8015612b605750835181600281518110612b5657612b56613f51565b6020026020010151145b6040518060400160405280600d81526020016c54532d3139206c656e6774687360981b81525090612ba45760405162461bcd60e51b8152600401611349919061407d565b50600081600281518110612bba57612bba613f51565b602002602001015182600181518110612bd557612bd5613f51565b602002602001015183600081518110612bf057612bf0613f51565b6020026020010151612c029190613fbe565b612c0c9190613fbe565b90506000816001600160401b03811115612c2857612c2861361b565b604051908082528060200260200182016040528015612c51578160200160208202803683370190505b5090506000826001600160401b03811115612c6e57612c6e61361b565b604051908082528060200260200182016040528015612c97578160200160208202803683370190505b5090506000805b6003811015612e595760008115612cc35781600114612cbd5789612cc5565b8b612cc5565b8d5b905060008215612ce35782600114612cdd578b612ce5565b8d612ce5565b8f5b905060005b888481518110612cfc57612cfc613f51565b6020026020010151811015612e45576000838281518110612d1f57612d1f613f51565b602002602001015190506000838381518110612d3d57612d3d613f51565b602002602001015190506000805b88811015612dca578a8181518110612d6557612d65613f51565b60200260200101516001600160a01b0316836001600160a01b031603612db857838a8281518110612d9857612d98613f51565b60200260200101818151612dac9190613fbe565b90525060019150612dca565b80612dc28161448a565b915050612d4b565b5080612e2f57818a8981518110612de357612de3613f51565b60200260200101906001600160a01b031690816001600160a01b03168152505082898981518110612e1657612e16613f51565b602090810291909101015287612e2b8161448a565b9850505b5050508080612e3d9061448a565b915050612cea565b50505080612e529061448a565b9050612c9e565b50806001600160401b03811115612e7257612e7261361b565b604051908082528060200260200182016040528015612e9b578160200160208202803683370190505b509650806001600160401b03811115612eb657612eb661361b565b604051908082528060200260200182016040528015612edf578160200160208202803683370190505b50955060005b81811015612f8257838181518110612eff57612eff613f51565b6020026020010151888281518110612f1957612f19613f51565b60200260200101906001600160a01b031690816001600160a01b031681525050828181518110612f4b57612f4b613f51565b6020026020010151878281518110612f6557612f65613f51565b602090810291909101015280612f7a8161448a565b915050612ee5565b505050505050965096945050505050565b60608082518451146040518060400160405280600d81526020016c54532d3139206c656e6774687360981b81525090612fdf5760405162461bcd60e51b8152600401611349919061407d565b508351600090815b818110156130305785818151811061300157613001613f51565b602002602001015160001461301e578261301a8161448a565b9350505b806130288161448a565b915050612fe7565b50816001600160401b038111156130495761304961361b565b604051908082528060200260200182016040528015613072578160200160208202803683370190505b509350816001600160401b0381111561308d5761308d61361b565b6040519080825280602002602001820160405280156130b6578160200160208202803683370190505b5092506000805b828110156131765760008782815181106130d9576130d9613f51565b6020026020010151905080600014613163578882815181106130fd576130fd613f51565b602002602001015187848151811061311757613117613f51565b60200260200101906001600160a01b031690816001600160a01b0316815250508086848151811061314a5761314a613f51565b60209081029190910101528261315f8161448a565b9350505b508061316e8161448a565b9150506130bd565b505050509250929050565b604080516001600160a01b038416602482015260448082018490528251808303909101815260649091019091526020810180516001600160e01b031663a9059cbb60e01b1790526108e49084906133c9565b8260200151516000036132295782516001600160401b038111156131f9576131f961361b565b604051908082528060200260200182016040528015613222578160200160208202803683370190505b5060208401525b808360200151838151811061324057613240613f51565b602002602001018181516132549190613fbe565b905250505050565b6060806000836001600160a01b031663f77c47916040518163ffffffff1660e01b8152600401602060405180830381865afa15801561329f573d6000803e3d6000fd5b505050506040513d601f19601f820116820180604052508101906132c39190614011565b6001600160a01b03166347b03bba6040518163ffffffff1660e01b8152600401602060405180830381865afa158015613300573d6000803e3d6000fd5b505050506040513d601f19601f820116820180604052508101906133249190614011565b604051631c5e462f60e11b81529091506001600160a01b038216906338bc8c5e906133539088906004016143a4565b6000604051808303816000875af1158015613372573d6000803e3d6000fd5b505050506040513d6000823e601f3d908101601f1916820160405261339a91908101906143b7565b92509250509250929050565b6000806133bd84620186a0611c7b866101f4613f7d565b9150611bff8483611bbf565b600061341e826040518060400160405280602081526020017f5361666545524332303a206c6f772d6c6576656c2063616c6c206661696c6564815250856001600160a01b031661349b9092919063ffffffff16565b8051909150156108e4578080602001905181019061343c91906144a3565b6108e45760405162461bcd60e51b815260206004820152602a60248201527f5361666545524332303a204552433230206f7065726174696f6e20646964206e6044820152691bdd081cdd58d8d9595960b21b6064820152608401611349565b60606134aa84846000856134b2565b949350505050565b6060824710156135135760405162461bcd60e51b815260206004820152602660248201527f416464726573733a20696e73756666696369656e742062616c616e636520666f6044820152651c8818d85b1b60d21b6064820152608401611349565b600080866001600160a01b0316858760405161352f91906144c0565b60006040518083038185875af1925050503d806000811461356c576040519150601f19603f3d011682016040523d82523d6000602084013e613571565b606091505b5091509150610ed587838387606083156135ec5782516000036135e5576001600160a01b0385163b6135e55760405162461bcd60e51b815260206004820152601d60248201527f416464726573733a2063616c6c20746f206e6f6e2d636f6e74726163740000006044820152606401611349565b50816134aa565b6134aa83838151156136015781518083602001fd5b8060405162461bcd60e51b8152600401611349919061407d565b634e487b7160e01b600052604160045260246000fd5b604051601f8201601f191681016001600160401b03811182821017156136595761365961361b565b604052919050565b60006001600160401b0382111561367a5761367a61361b565b5060051b60200190565b6001600160a01b038116811461369957600080fd5b50565b600082601f8301126136ad57600080fd5b813560206136c26136bd83613661565b613631565b82815260059290921b840181019181810190868411156136e157600080fd5b8286015b848110156137055780356136f881613684565b83529183019183016136e5565b509695505050505050565b803561371b81613684565b919050565b600082601f83011261373157600080fd5b813560206137416136bd83613661565b82815260059290921b8401810191818101908684111561376057600080fd5b8286015b848110156137055780358352918301918301613764565b600080600080600080600060e0888a03121561379657600080fd5b8735965060208801356001600160401b03808211156137b457600080fd5b6137c08b838c0161369c565b975060408a0135965060608a013591506137d982613684565b909450608089013590808211156137ef57600080fd5b506137fc8a828b01613720565b93505060a0880135915060c0880135905092959891949750929550565b60008060006060848603121561382e57600080fd5b833561383981613684565b9250602084013561384981613684565b929592945050506040919091013590565b60008060006060848603121561386f57600080fd5b83359250602084013561384981613684565b60008060008060008060c0878903121561389a57600080fd5b86356138a581613684565b955060208701356138b581613684565b95989597505050506040840135936060810135936080820135935060a0909101359150565b600080600080600060a086880312156138f257600080fd5b853594506020860135935060408601356001600160401b038082111561391757600080fd5b61392389838a01613720565b9450606088013591508082111561393957600080fd5b506139468882890161369c565b95989497509295608001359392505050565b6000806040838503121561396b57600080fd5b823561397681613684565b9150602083013561398681613684565b809150509250929050565b600080600080608085870312156139a757600080fd5b84356139b281613684565b935060208501356001600160401b03808211156139ce57600080fd5b6139da8883890161369c565b94506040870135935060608701359150808211156139f757600080fd5b50613a0487828801613720565b91505092959194509250565b600081518084526020808501945080840160005b83811015613a4057815187529582019590820190600101613a24565b509495945050505050565b602081526000610d226020830184613a10565b600080600060608486031215613a7357600080fd5b8335613a7e81613684565b95602085013595506040909401359392505050565b801515811461369957600080fd5b600080600080600060a08688031215613ab957600080fd5b85356001600160401b0380821115613ad057600080fd5b613adc89838a0161369c565b96506020880135915080821115613af257600080fd5b50613aff88828901613720565b945050604086013592506060860135613b1781613684565b91506080860135613b2781613a93565b809150509295509295909350565b838152606060208201526000613b4e6060830185613a10565b8281036040840152613b608185613a10565b9695505050505050565b600080600080600080600080610100898b031215613b8757600080fd5b613b9089613710565b975060208901356001600160401b0380821115613bac57600080fd5b613bb88c838d0161369c565b985060408b0135975060608b0135915080821115613bd557600080fd5b613be18c838d01613720565b965060808b0135955060a08b0135945060c08b0135915080821115613c0557600080fd5b613c118c838d01613720565b935060e08b0135915080821115613c2757600080fd5b50613c348b828c01613720565b9150509295985092959890939650565b604081526000613c576040830185613a10565b8281036020840152610bd68185613a10565b600080600060608486031215613c7e57600080fd5b8335613c8981613684565b92506020840135613c9981613684565b91506040840135613ca981613684565b809150509250925092565b600080600080600060a08688031215613ccc57600080fd5b8535613cd781613684565b9450602086013593506040860135613cee81613684565b94979396509394606081013594506080013592915050565b60008060408385031215613d1957600080fd5b82356001600160401b03811115613d2f57600080fd5b613d3b8582860161369c565b95602094909401359450505050565b600080600080600060a08688031215613d6257600080fd5b8535613d6d81613684565b97602087013597506040870135966060810135965060800135945092505050565b600080600080600060c08688031215613da657600080fd5b8535613db181613684565b9450602086013593506040860135613dc881613684565b92506060860135613dd881613684565b915060c08601871015613dea57600080fd5b5092959194509260800190565b8281526040602082015260006134aa6040830184613a10565b60008060408385031215613e2357600080fd5b8235613e2e81613684565b946020939093013593505050565b600080600080600060a08688031215613e5457600080fd5b8535613e5f81613684565b945060208601356001600160401b0380821115613e7b57600080fd5b613e8789838a0161369c565b95506040880135915080821115613e9d57600080fd5b613ea989838a0161369c565b94506060880135915080821115613ebf57600080fd5b613ecb89838a01613720565b93506080880135915080821115613ee157600080fd5b50613eee88828901613720565b9150509295509295909350565b604080825283519082018190526000906020906060840190828701845b82811015613f3d5781516001600160a01b031684529284019290840190600101613f18565b50505083810382850152613b608186613a10565b634e487b7160e01b600052603260045260246000fd5b634e487b7160e01b600052601160045260246000fd5b8082028115828204841417610d2557610d25613f67565b634e487b7160e01b600052601260045260246000fd5b600082613fb957613fb9613f94565b500490565b80820180821115610d2557610d25613f67565b6001600160a01b0391909116815260200190565b600060208284031215613ff757600080fd5b5051919050565b81810381811115610d2557610d25613f67565b60006020828403121561402357600080fd5b815161402e81613684565b9392505050565b6000806040838503121561404857600080fd5b505080516020909101519092909150565b60005b8381101561407457818101518382015260200161405c565b50506000910152565b602081526000825180602084015261409c816040850160208701614059565b601f01601f19169190910160400192915050565b600082601f8301126140c157600080fd5b815160206140d16136bd83613661565b82815260059290921b840181019181810190868411156140f057600080fd5b8286015b8481101561370557805183529183019183016140f4565b6000806040838503121561411e57600080fd5b82516001600160401b038082111561413557600080fd5b818501915085601f83011261414957600080fd5b815160206141596136bd83613661565b82815260059290921b8401810191818101908984111561417857600080fd5b948201945b8386101561419f57855161419081613684565b8252948201949082019061417d565b918801519196509093505050808211156141b857600080fd5b506141c5858286016140b0565b9150509250929050565b6000602082840312156141e157600080fd5b815160ff8116811461402e57600080fd5b600181815b8085111561422d57816000190482111561421357614213613f67565b8085161561422057918102915b93841c93908002906141f7565b509250929050565b60008261424457506001610d25565b8161425157506000610d25565b816001811461426757600281146142715761428d565b6001915050610d25565b60ff84111561428257614282613f67565b50506001821b610d25565b5060208310610133831016604e8410600b84101617156142b0575081810a610d25565b6142ba83836141f2565b80600019048211156142ce576142ce613f67565b029392505050565b6000610d2260ff841683614235565b80820260008212600160ff1b8414161561430157614301613f67565b8181058314821517610d2557610d25613f67565b60008261432457614324613f94565b600160ff1b82146000198414161561433e5761433e613f67565b500590565b808201828112600083128015821682158216171561436357614363613f67565b505092915050565b600081518084526020808501945080840160005b83811015613a405781516001600160a01b03168752958201959082019060010161437f565b602081526000610d22602083018461436b565b600080604083850312156143ca57600080fd5b82516001600160401b03808211156143e157600080fd5b6143ed868387016140b0565b935060208501519150808211156141b857600080fd5b818103600083128015838313168383128216171561442357614423613f67565b5092915050565b60a08152600061443d60a083018861436b565b828103602084015261444f8188613a10565b905082810360408401526144638187613a10565b905082810360608401526144778186613a10565b9150508260808301529695505050505050565b60006001820161449c5761449c613f67565b5060010190565b6000602082840312156144b557600080fd5b815161402e81613a93565b600082516144d2818460208701614059565b919091019291505056fea26469706673582212206f28fa3d9c1167012f23eae81f00d751dc11abfd6151c318bb094eba9db67d1664736f6c63430008110033",
  "libraries": {
    "StrategyLib": "0xfEA4888C097864Ff292D74AaBf05Bce3e9A96959"
  },
  "devdoc": {
    "events": {
      "BorrowResults(uint256,uint256)": {
        "params": {
          "gains": "Amount received by all pool adapters for the provided collateral, in underlying",
          "losses": "Amount paid by all pool adapters for the debts, in underlying"
        }
      },
      "ChangeDebtToInsuranceOnProfit(int256,int256)": {
        "details": "See comments in {_coverLossAfterPriceChanging}: actual profit-to-cover amount can be less than {increaseToDebt}",
        "params": {
          "debtToInsuranceBefore": "Value of debtToInsurance before fix-price-change",
          "increaseToDebt": "Value on which {debtToInsuranceBefore} was incremented"
        }
      },
      "FixPriceChanges(uint256,uint256,int256,int256,int256)": {
        "params": {
          "debtToInsuranceAfter": "New value of the debt to insurance",
          "debtToInsuranceBefore": "Value of the debt to insurance before fix price change",
          "increaseToDebt": "Amount on which debt to insurance was increased. Actual value {debtToInsuranceAfter}-{debtToInsuranceBefore} can be less than increaseToDebt because some amount can be left uncovered."
        }
      },
      "OnCoverLoss(uint256,int256,uint256,uint256)": {
        "params": {
          "amountCovered": "Actually covered amount of loss. If amountCovered < lossToCover => the insurance is not enough",
          "debtToInsuranceInc": "The amount by which the debt to insurance increases",
          "lossToCover": "Amount of loss that should be covered (it fits to allowed limits, no revert)",
          "lossUncovered": "Amount of uncovered losses (not enough insurance)"
        }
      },
      "OnEarningOnWithdraw(uint256,uint256)": {
        "details": "We assume that earned > earnedByPrice, but it's better to save raw values"
      },
      "OnIncreaseDebtToInsurance(address[],uint256[],uint256[],uint256[],int256)": {
        "params": {
          "deltaGains": "Amounts by which the debt has reduced (supply profit) [sync with {tokens}]",
          "deltaLosses": "Amounts by which the debt has increased (increase of amount-to-pay) [sync with {tokens}]",
          "increaseToDebt": "Total amount of increasing of the debt to the insurance in underlying",
          "prices": "Prices of the {tokens}",
          "tokens": "List of possible collateral/borrow assets. One of the is underlying."
        }
      }
    },
    "kind": "dev",
    "methods": {
      "calcInvestedAssets(address[],uint256[],uint256,ITetuConverter,bool)": {
        "details": "This is writable function because we need to update current balances in the internal protocols.",
        "params": {
          "indexAsset": "Index of the underlying (main asset) in {tokens}",
          "makeCheckpoint_": "True - call IBookkeeper.checkpoint in the converter"
        },
        "returns": {
          "amountOut": "Invested asset amount under control (in terms of underlying)",
          "decs": "10**decimals",
          "prices": "Asset prices in USD, decimals 18"
        }
      },
      "calculateIncomeAfterWithdraw(address,address,uint256,uint256,uint256,uint256)": {
        "details": "Amount for the insurance is sent from the balance, so the sending doesn't change invested assets.",
        "params": {
          "asset": "Underlying",
          "balanceBefore": "Balance of the underlying at the moment of withdrawing start",
          "earnedByPrices_": "Amount of underlying earned because of price changes, it should be send to the insurance.",
          "investedAssets_": "Invested assets amount at the moment of withdrawing start",
          "updatedInvestedAssets_": "Invested assets amount after withdrawing"
        },
        "returns": {
          "amountSentToInsurance": "Total amount sent to the insurance in result."
        }
      },
      "claimConverterRewards(ITetuConverter,address[],address[],uint256[],uint256[])": {
        "details": "The post-processing is rewards conversion to the main asset",
        "params": {
          "amountsOut": "Amounts of available rewards",
          "rewardTokens_": "Amounts of rewards claimed from the internal pool",
          "tokensOut": "List of available rewards - not zero amounts, reward tokens don't repeat",
          "tokens_": "tokens received from {_depositorPoolAssets}"
        }
      },
      "fixPriceChanges(IConverterStrategyBase.ConverterStrategyBaseState storage,IStrategyV3.BaseState storage,uint256[],address[],uint256)": {
        "params": {
          "amountsInPool": "Amount of tokens that can be received from the pool after withdrawing all liquidity. The order of tokens is same as in the {tokens}",
          "indexAsset": "Index of the underlying in {tokens}",
          "tokens": "Result of {_depositorPoolAssets}"
        },
        "returns": {
          "earnedOut": "Profit that was received because of price changes. It should be sent back to insurance.",
          "investedAssetsOut": "Updated value of {csbs.investedAssets}"
        }
      },
      "fixTooHighInvestedAssets(address,uint256,IConverterStrategyBase.ConverterStrategyBaseState storage)": {
        "details": "If profitToCover was sent only partly, we will postpone sending of remain amount up to the next call      of fixPriceChange in same manner",
        "params": {
          "oldTotalAssets": "Total asset at the moment after last call of fixPriceChange,                       decreased on the value of profitToCover."
        }
      },
      "getLiquidityAmount(uint256,address[],uint256,ITetuConverter,uint256[],uint256,uint256)": {
        "params": {
          "quoteAmounts": "Results of _depositorQuoteExit(depositorLiquidity)",
          "targetAmount": "Required amount of main asset to be withdrawn from the strategy; type(uint).max - withdraw all"
        },
        "returns": {
          "resultAmount": "Amount of liquidity that should be withdrawn from the pool, cannot exceed depositorLiquidity"
        }
      },
      "getTokenAmountsPair(ITetuConverter,uint256,address,address,uint256[2])": {
        "params": {
          "liquidationThresholdsAB": "[liquidityThreshold of token A, liquidityThreshold of tokenB]"
        },
        "returns": {
          "loss": "New total assets - old total assets",
          "tokenAmounts": "Balances of the token A and token B.                     If any balance is zero it's not possible to enter to the pool, so return empty array (len 0)"
        }
      },
      "postWithdrawActions(ITetuConverter,address[],uint256,uint256[],uint256,uint256,uint256[],uint256[])": {
        "params": {
          "amountsToConvert": "Amounts of {tokens} to be converted, they are located on the balance before withdraw",
          "withdrawnAmounts": "Amounts of {tokens} that were withdrew from the pool"
        }
      },
      "sendProfitGetAssetBalance(address,uint256,uint256,uint256,IStrategyV3.BaseState storage)": {
        "params": {
          "balanceTheAsset_": "Current balance of {theAsset_}",
          "earnedByPrices_": "ProfitToCover received from fixPriceChange()",
          "investedAssets_": "Value of investedAssets after call fixPriceChange()",
          "theAsset_": "The asset passed from Converter"
        },
        "returns": {
          "balanceTheAssetOut": "Final balance of {theAsset_} (after sending profit-to-cover to the insurance)"
        }
      },
      "sendToInsurance(address,uint256,address,uint256,uint256)": {
        "params": {
          "balance": "Current balance of the underlying",
          "totalAssets_": "Total strategy balance = balance of underlying + current invested assets amount"
        },
        "returns": {
          "sentAmount": "Amount of underlying sent to the insurance",
          "unsentAmount": "Missed part of the {amount} that were not sent to the insurance"
        }
      }
    },
    "stateVariables": {
      "HARDWORK_LOSS_TOLERANCE": {
        "details": "0.5% of max loss for strategy TVL"
      },
      "PRICE_CHANGE_PROFIT_TOLERANCE": {
        "details": "0.5% of max profit for strategy TVL"
      }
    },
    "version": 1
  },
  "userdoc": {
    "events": {
      "BorrowResults(uint256,uint256)": {
        "notice": "Register amounts received for supplying collaterals and amount paid for the debts"
      },
      "ChangeDebtToInsuranceOnProfit(int256,int256)": {
        "notice": "Value of {debtToInsurance} was increased on {increaseToDebt} inside fix-price-change in the case when invested-asset amounts were increased."
      },
      "OnEarningOnWithdraw(uint256,uint256)": {
        "notice": "An amount (earned - earnedByPrice) is earned on withdraw and sent to the insurance"
      },
      "OnIncreaseDebtToInsurance(address[],uint256[],uint256[],uint256[],int256)": {
        "notice": "Increase to debts between new and previous checkpoints."
      },
      "UncoveredLoss(uint256,uint256,uint256,uint256)": {
        "notice": "Amount {lossCovered}+{lossUncovered} should be covered, but it's too high and will produce revert on the splitter side. So, only {lossCovered} can be covered, {lossUncovered} are not covered"
      }
    },
    "kind": "user",
    "methods": {
      "HARDWORK_LOSS_TOLERANCE()": {
        "notice": "Same value as StrategySplitterV2.HARDWORK_LOSS_TOLERANCE"
      },
      "PRICE_CHANGE_PROFIT_TOLERANCE()": {
        "notice": "Limit max amount of profit that can be send to insurance after price changing"
      },
      "calcInvestedAssets(address[],uint256[],uint256,ITetuConverter,bool)": {
        "notice": "Calculate amount we will receive when we withdraw all from pool"
      },
      "calculateIncomeAfterWithdraw(address,address,uint256,uint256,uint256,uint256)": {
        "notice": "Calculate amount earned after withdraw. Withdraw cannot produce income, so we send all         earned amount to insurance. Also we send to the insurance earned-by-prices-amount here."
      },
      "claimConverterRewards(ITetuConverter,address[],address[],uint256[],uint256[])": {
        "notice": "Claim rewards from tetuConverter, generate result list of all available rewards and airdrops"
      },
      "coverLossAndCheckResults(IConverterStrategyBase.ConverterStrategyBaseState storage,address,uint256)": {
        "notice": "Call coverPossibleStrategyLoss, covered loss will be sent to vault.         If the loss were covered only partially, emit {NotEnoughInsurance}"
      },
      "fixPriceChanges(IConverterStrategyBase.ConverterStrategyBaseState storage,IStrategyV3.BaseState storage,uint256[],address[],uint256)": {
        "notice": "Calculate profit/loss happened because of price changing. Try to cover the loss, send the profit to the insurance. Increment debt to insurance on amount of increase of the debts."
      },
      "fixTooHighInvestedAssets(address,uint256,IConverterStrategyBase.ConverterStrategyBaseState storage)": {
        "notice": "Swap can give us more amount out than expected, so we will receive increasing of share price.         To prevent it, we need to send exceeded amount to insurance,         but it's too expensive to make such transfer at the end of withdrawAggByStep.         So, we postpone sending the profit until the next call of fixPriceChange         by manually setting investedAssets equal to the oldTotalAssets"
      },
      "getAvailableBalances(address[],uint256)": {
        "notice": "Get balances of the {tokens_} except balance of the token at {indexAsset} position"
      },
      "getLiquidityAmount(uint256,address[],uint256,ITetuConverter,uint256[],uint256,uint256)": {
        "notice": "Calculate amount of liquidity that should be withdrawn from the pool to get {targetAmount_}               liquidityAmount = _depositorLiquidity() * {liquidityRatioOut} / 1e18         User needs to withdraw {targetAmount_} in some asset.         There are three kinds of available liquidity:         1) liquidity in the pool - {depositorLiquidity_}         2) Converted amounts on balance of the strategy - {baseAmounts_}         3) Liquidity locked in the debts."
      },
      "getOracleAssetsPrice(ITetuConverter,address,address)": {
        "notice": "Get price of {tokenB} in term of {tokenA} with 18 decimals"
      },
      "getTokenAmountsPair(ITetuConverter,uint256,address,address,uint256[2])": {
        "notice": "Calculate the token amounts for deposit and amount of loss (as old-total-asset - new-total-asset)"
      },
      "postWithdrawActions(ITetuConverter,address[],uint256,uint256[],uint256,uint256,uint256[],uint256[])": {
        "notice": "Add {withdrawnAmounts} to {amountsToConvert}, calculate {expectedAmountMainAsset}"
      },
      "postWithdrawActionsEmpty(ITetuConverter,address[],uint256,uint256[])": {
        "notice": "return {withdrawnAmounts} with zero values and expected amount calculated using {amountsToConvert_}"
      },
      "registerBorrowResults(ITetuConverter,address)": {
        "notice": "Register amounts received for supplying collaterals and amount paid for the debts         for the current period (a new period is started after each hardwork operation)"
      },
      "sendProfitGetAssetBalance(address,uint256,uint256,uint256,IStrategyV3.BaseState storage)": {
        "notice": "Send ProfitToCover to insurance - code fragment of the requirePayAmountBack()         moved here to reduce size of requirePayAmountBack()"
      },
      "sendToInsurance(address,uint256,address,uint256,uint256)": {
        "notice": "Send given {amount} of {asset} (== underlying) to the insurance"
      }
    },
    "notice": "Continuation of ConverterStrategyBaseLib (workaround for size limits)",
    "version": 1
  },
  "storageLayout": {
    "storage": [],
    "types": null
  }
}