{
  "address": "0x0F0e5Eb31554a9f797e689b941151ad3A4A02a9a",
  "abi": [
    {
      "inputs": [],
      "name": "DEBTS_REBALANCE_IS_REQUIRED",
      "outputs": [
        {
          "internalType": "uint256",
          "name": "",
          "type": "uint256"
        }
      ],
      "stateMutability": "view",
      "type": "function"
    },
    {
      "inputs": [],
      "name": "FULL_WITHDRAW_IS_REQUIRED",
      "outputs": [
        {
          "internalType": "uint256",
          "name": "",
          "type": "uint256"
        }
      ],
      "stateMutability": "view",
      "type": "function"
    },
    {
      "inputs": [
        {
          "internalType": "uint256",
          "name": "totalAssets",
          "type": "uint256"
        },
        {
          "internalType": "bool",
          "name": "isUnderlyingA",
          "type": "bool"
        },
        {
          "internalType": "uint256",
          "name": "collateralAmountA",
          "type": "uint256"
        },
        {
          "internalType": "uint256",
          "name": "debtAmountB",
          "type": "uint256"
        },
        {
          "internalType": "uint256[2]",
          "name": "pricesAB",
          "type": "uint256[2]"
        },
        {
          "internalType": "uint256[2]",
          "name": "decsAB",
          "type": "uint256[2]"
        },
        {
          "internalType": "uint256",
          "name": "requiredLockedAmountPercent",
          "type": "uint256"
        }
      ],
      "name": "getAmountToReduceDebt",
      "outputs": [
        {
          "internalType": "uint256",
          "name": "deltaDebtAmountB",
          "type": "uint256"
        }
      ],
      "stateMutability": "pure",
      "type": "function"
    },
    {
      "inputs": [
        {
          "internalType": "address",
          "name": "strategy_",
          "type": "address"
        },
        {
          "internalType": "uint256",
          "name": "requiredLockedAmountPercent",
          "type": "uint256"
        }
      ],
      "name": "getAmountToReduceDebtForStrategy",
      "outputs": [
        {
          "internalType": "uint256",
          "name": "requiredAmountToReduceDebt",
          "type": "uint256"
        }
      ],
      "stateMutability": "view",
      "type": "function"
    },
    {
      "inputs": [
        {
          "internalType": "address",
          "name": "strategy_",
          "type": "address"
        }
      ],
      "name": "getLockedUnderlyingAmount",
      "outputs": [
        {
          "internalType": "uint256",
          "name": "estimatedUnderlyingAmount",
          "type": "uint256"
        },
        {
          "internalType": "uint256",
          "name": "totalAssets",
          "type": "uint256"
        }
      ],
      "stateMutability": "view",
      "type": "function"
    },
    {
      "inputs": [
        {
          "internalType": "address",
          "name": "strategy_",
          "type": "address"
        },
        {
          "internalType": "uint256",
          "name": "allowedLockedAmountPercent",
          "type": "uint256"
        }
      ],
      "name": "isWithdrawByAggCallRequired",
      "outputs": [
        {
          "internalType": "uint256",
          "name": "",
          "type": "uint256"
        }
      ],
      "stateMutability": "view",
      "type": "function"
    }
  ],
  "transactionHash": "0x1730a3f0e95c101f0c6255c1ed9a29572487bef55be2db503749541875c4f4ae",
  "args": [],
  "numDeployments": 5,
  "solcInputHash": "a408f1fd06b60723e7f996d4b67ed7ec",
  "bytecode": "0x608060405234801561001057600080fd5b50611bb2806100206000396000f3fe608060405234801561001057600080fd5b50600436106100625760003560e01c8063369e2efc1461006757806359af44dc146100945780635d698b52146100aa578063e8405269146100b2578063ebe4aef2146100c5578063fe03683f146100d8575b600080fd5b61007a610075366004611557565b6100eb565b604080519283526020830191909152015b60405180910390f35b61009c600181565b60405190815260200161008b565b61009c600281565b61009c6100c0366004611639565b6107d4565b61009c6100d33660046116a9565b6109c5565b61009c6100e63660046116a9565b61110f565b60008061014d60405180610140016040528060006001600160a01b031681526020016060815260200160608152602001606081526020016000815260200160008152602001600081526020016000815260200160008152602001600081525090565b60008490506000816001600160a01b0316635412335d6040518163ffffffff1660e01b8152600401600060405180830381865afa158015610192573d6000803e3d6000fd5b505050506040513d6000823e601f3d908101601f191682016040526101ba9190810190611833565b50505090506000816000815181106101d4576101d4611941565b602002602001015190506000826001815181106101f3576101f3611941565b60200260200101519050836001600160a01b031663bd38837b6040518163ffffffff1660e01b8152600401602060405180830381865afa15801561023b573d6000803e3d6000fd5b505050506040513d601f19601f8201168201806040525081019061025f9190611957565b6001600160a01b031685526040805160028082526060820183529091602083019080368337019050508560200181905250836001600160a01b0316633cd8045e6040518163ffffffff1660e01b8152600401602060405180830381865afa1580156102ce573d6000803e3d6000fd5b505050506040513d601f19601f820116820180604052508101906102f29190611957565b6001600160a01b03166338d52e0f6040518163ffffffff1660e01b8152600401602060405180830381865afa15801561032f573d6000803e3d6000fd5b505050506040513d601f19601f820116820180604052508101906103539190611957565b856020015160008151811061036a5761036a611941565b6001600160a01b03909216602092830291909101820152850151805160009061039557610395611941565b60200260200101516001600160a01b0316826001600160a01b0316146103bb57816103bd565b805b85602001516001815181106103d4576103d4611941565b60200260200101906001600160a01b031690816001600160a01b0316815250506000610403866000015161123d565b90506104158187602001516002611302565b606088015260408701528551602087015180516001600160a01b039092169163e4c2be70918c9160009061044b5761044b611941565b6020026020010151896020015160018151811061046a5761046a611941565b602002602001015160016040518563ffffffff1660e01b81526004016104939493929190611974565b6040805180830381865afa1580156104af573d6000803e3d6000fd5b505050506040513d601f19601f820116820180604052508101906104d3919061199e565b60a088015260808701528551602087015180516001600160a01b039092169163e4c2be70918c91600190811061050b5761050b611941565b6020026020010151896020015160008151811061052a5761052a611941565b602002602001015160016040518563ffffffff1660e01b81526004016105539493929190611974565b6040805180830381865afa15801561056f573d6000803e3d6000fd5b505050506040513d601f19601f82011682018060405250810190610593919061199e565b60e088015260c0870152604086015180516000906105b3576105b3611941565b602002602001015186606001516001815181106105d2576105d2611941565b602002602001015187606001516000815181106105f1576105f1611941565b6020026020010151886040015160018151811061061057610610611941565b6020026020010151896080015161062791906119d8565b61063191906119d8565b61063b91906119ef565b61064591906119ef565b6101008701526040860151805160009061066157610661611941565b6020026020010151866060015160018151811061068057610680611941565b6020026020010151876060015160008151811061069f5761069f611941565b602002602001015188604001516001815181106106be576106be611941565b60200260200101518960e001516106d591906119d8565b6106df91906119d8565b6106e991906119ef565b6106f391906119ef565b61012087015260c086015161010087015161070e9190611a11565b8661012001518760a001516107239190611a11565b1161072f576000610763565b8560c001518661010001518761012001518860a0015161074f9190611a11565b6107599190611a24565b6107639190611a24565b856001600160a01b03166301e1d1146040518163ffffffff1660e01b8152600401602060405180830381865afa1580156107a1573d6000803e3d6000fd5b505050506040513d601f19601f820116820180604052508101906107c59190611a37565b97509750505050505050915091565b600084158015906107e457508715155b15610996578251602084015160009187916108078a670de0b6b3a76400006119d8565b61081191906119d8565b61081b91906119ef565b61082591906119ef565b9050600088610835576001610838565b60005b60ff169050600085826002811061085157610851611941565b602002015187836002811061086857610868611941565b6020020151610877908d6119d8565b61088191906119ef565b865188516108c19190610894908d6119d8565b61089e91906119ef565b6020808a0151908b01516108b2908d6119d8565b6108bc91906119ef565b611501565b6108d390670de0b6b3a76400006119d8565b6108dd91906119ef565b90506000610912670de0b6b3a7640000898360200201516108fe90876119d8565b61090891906119ef565b60208a0151611501565b9050801561098c578087846002811061092d5761092d611941565b602002015189856002811061094457610944611941565b60200201518e61095f866108bc8c662386f26fc100006119d8565b61096991906119d8565b61097391906119d8565b61097d91906119ef565b61098791906119ef565b61098f565b60005b9450505050505b6020830151670de0b6b3a7640000906109af90836119d8565b6109b991906119ef565b98975050505050505050565b6000610a2f6040518061014001604052806060815260200160006001600160a01b0316815260200160608152602001606081526020016060815260200160006001600160a01b03168152602001600081526020016000815260200160008152602001600081525090565b6000849050806001600160a01b0316635412335d6040518163ffffffff1660e01b8152600401600060405180830381865afa158015610a72573d6000803e3d6000fd5b505050506040513d6000823e601f3d908101601f19168201604052610a9a9190810190611833565b50505060808301526040805160028082526060820183529091602083019080368337505050825260808201518051600090610ad757610ad7611941565b60200260200101518260000151600081518110610af657610af6611941565b60200260200101906001600160a01b031690816001600160a01b0316815250508160800151600181518110610b2d57610b2d611941565b60200260200101518260000151600181518110610b4c57610b4c611941565b60200260200101906001600160a01b031690816001600160a01b031681525050806001600160a01b031663bd38837b6040518163ffffffff1660e01b8152600401602060405180830381865afa158015610baa573d6000803e3d6000fd5b505050506040513d601f19601f82011682018060405250810190610bce9190611957565b6001600160a01b031660208301819052610be79061123d565b6001600160a01b031660a083018190528251610c0591906002611302565b606084015260408301526020820151825180516001600160a01b039092169163e4c2be70918891600090610c3b57610c3b611941565b60200260200101518560000151600181518110610c5a57610c5a611941565b602002602001015160006040518563ffffffff1660e01b8152600401610c839493929190611974565b6040805180830381865afa158015610c9f573d6000803e3d6000fd5b505050506040513d601f19601f82011682018060405250810190610cc3919061199e565b60e084015260c08301526020820151825180516001600160a01b039092169163e4c2be709188916001908110610cfb57610cfb611941565b60200260200101518560000151600081518110610d1a57610d1a611941565b602002602001015160006040518563ffffffff1660e01b8152600401610d439493929190611974565b6040805180830381865afa158015610d5f573d6000803e3d6000fd5b505050506040513d601f19601f82011682018060405250810190610d83919061199e565b610120840181905261010084019190915260c08301511115610f5b5760648260c001511115610f5657610f53816001600160a01b03166301e1d1146040518163ffffffff1660e01b8152600401602060405180830381865afa158015610ded573d6000803e3d6000fd5b505050506040513d601f19601f82011682018060405250810190610e119190611a37565b83518051600090610e2457610e24611941565b60200260200101516001600160a01b0316836001600160a01b03166338d52e0f6040518163ffffffff1660e01b8152600401602060405180830381865afa158015610e73573d6000803e3d6000fd5b505050506040513d601f19601f82011682018060405250810190610e979190611957565b6001600160a01b0316148460e001518560c0015160405180604001604052808860400151600081518110610ecd57610ecd611941565b602002602001015181526020018860400151600181518110610ef157610ef1611941565b602002602001015181525060405180604001604052808960600151600081518110610f1e57610f1e611941565b602002602001015181526020018960600151600181518110610f4257610f42611941565b60200260200101518152508a6107d4565b92505b611106565b6064826101000151111561110657611103816001600160a01b03166301e1d1146040518163ffffffff1660e01b8152600401602060405180830381865afa158015610faa573d6000803e3d6000fd5b505050506040513d601f19601f82011682018060405250810190610fce9190611a37565b835180516001908110610fe357610fe3611941565b60200260200101516001600160a01b0316836001600160a01b03166338d52e0f6040518163ffffffff1660e01b8152600401602060405180830381865afa158015611032573d6000803e3d6000fd5b505050506040513d601f19601f820116820180604052508101906110569190611957565b6001600160a01b0316148461012001518561010001516040518060400160405280886040015160018151811061108e5761108e611941565b6020026020010151815260200188604001516000815181106110b2576110b2611941565b6020026020010151815250604051806040016040528089606001516001815181106110df576110df611941565b602002602001015181526020018960600151600081518110610f4257610f42611941565b92505b50505b92915050565b6000808390506000816001600160a01b0316635412335d6040518163ffffffff1660e01b8152600401600060405180830381865afa158015611155573d6000803e3d6000fd5b505050506040513d6000823e601f3d908101601f1916820160405261117d9190810190611833565b50925050506111b68160018151811061119857611198611941565b602002602001015160038111156111b1576111b1611a50565b611522565b156111ed57806003815181106111ce576111ce611941565b60200260200101516000036111e857600192505050611109565b611232565b6000806111f9876100eb565b909250905060008161120c8460646119d8565b61121691906119ef565b90508681111561122e57600295505050505050611109565b5050505b506000949350505050565b6000816001600160a01b031663f77c47916040518163ffffffff1660e01b8152600401602060405180830381865afa15801561127d573d6000803e3d6000fd5b505050506040513d601f19601f820116820180604052508101906112a19190611957565b6001600160a01b0316632630c12f6040518163ffffffff1660e01b8152600401602060405180830381865afa1580156112de573d6000803e3d6000fd5b505050506040513d601f19601f820116820180604052508101906111099190611957565b6060808267ffffffffffffffff81111561131e5761131e611582565b604051908082528060200260200182016040528015611347578160200160208202803683370190505b5091508267ffffffffffffffff81111561136357611363611582565b60405190808252806020026020018201604052801561138c578160200160208202803683370190505b50905060005b838110156114f8578481815181106113ac576113ac611941565b60200260200101516001600160a01b031663313ce5676040518163ffffffff1660e01b8152600401602060405180830381865afa1580156113f1573d6000803e3d6000fd5b505050506040513d601f19601f820116820180604052508101906114159190611a66565b61142090600a611b6d565b82828151811061143257611432611941565b602002602001018181525050856001600160a01b031663b3596f0786838151811061145f5761145f611941565b60200260200101516040518263ffffffff1660e01b815260040161149291906001600160a01b0391909116815260200190565b602060405180830381865afa1580156114af573d6000803e3d6000fd5b505050506040513d601f19601f820116820180604052508101906114d39190611a37565b8382815181106114e5576114e5611941565b6020908102919091010152600101611392565b50935093915050565b600081831161151157600061151b565b61151b8284611a24565b9392505050565b6000600182600381111561153857611538611a50565b1192915050565b6001600160a01b038116811461155457600080fd5b50565b60006020828403121561156957600080fd5b813561151b8161153f565b801515811461155457600080fd5b634e487b7160e01b600052604160045260246000fd5b604051601f8201601f1916810167ffffffffffffffff811182821017156115c1576115c1611582565b604052919050565b600082601f8301126115da57600080fd5b6040516040810181811067ffffffffffffffff821117156115fd576115fd611582565b806040525080604084018581111561161457600080fd5b845b8181101561162e578035835260209283019201611616565b509195945050505050565b6000806000806000806000610120888a03121561165557600080fd5b87359650602088013561166781611574565b955060408801359450606088013593506116848960808a016115c9565b92506116938960c08a016115c9565b9150610100880135905092959891949750929550565b600080604083850312156116bc57600080fd5b82356116c78161153f565b946020939093013593505050565b600067ffffffffffffffff8211156116ef576116ef611582565b5060051b60200190565b600082601f83011261170a57600080fd5b8151602061171f61171a836116d5565b611598565b82815260059290921b8401810191818101908684111561173e57600080fd5b8286015b848110156117695780518060020b811461175c5760008081fd5b8352918301918301611742565b509695505050505050565b600082601f83011261178557600080fd5b8151602061179561171a836116d5565b82815260059290921b840181019181810190868411156117b457600080fd5b8286015b8481101561176957805183529183019183016117b8565b600082601f8301126117e057600080fd5b815160206117f061171a836116d5565b82815260059290921b8401810191818101908684111561180f57600080fd5b8286015b8481101561176957805161182681611574565b8352918301918301611813565b6000806000806080858703121561184957600080fd5b845167ffffffffffffffff8082111561186157600080fd5b818701915087601f83011261187557600080fd5b8151602061188561171a836116d5565b82815260059290921b8401810191818101908b8411156118a457600080fd5b948201945b838610156118cb5785516118bc8161153f565b825294820194908201906118a9565b918a01519198509093505050808211156118e457600080fd5b6118f0888389016116f9565b9450604087015191508082111561190657600080fd5b61191288838901611774565b9350606087015191508082111561192857600080fd5b50611935878288016117cf565b91505092959194509250565b634e487b7160e01b600052603260045260246000fd5b60006020828403121561196957600080fd5b815161151b8161153f565b6001600160a01b039485168152928416602084015292166040820152901515606082015260800190565b600080604083850312156119b157600080fd5b505080516020909101519092909150565b634e487b7160e01b600052601160045260246000fd5b8082028115828204841417611109576111096119c2565b600082611a0c57634e487b7160e01b600052601260045260246000fd5b500490565b80820180821115611109576111096119c2565b81810381811115611109576111096119c2565b600060208284031215611a4957600080fd5b5051919050565b634e487b7160e01b600052602160045260246000fd5b600060208284031215611a7857600080fd5b815160ff8116811461151b57600080fd5b600181815b80851115611ac4578160001904821115611aaa57611aaa6119c2565b80851615611ab757918102915b93841c9390800290611a8e565b509250929050565b600082611adb57506001611109565b81611ae857506000611109565b8160018114611afe5760028114611b0857611b24565b6001915050611109565b60ff841115611b1957611b196119c2565b50506001821b611109565b5060208310610133831016604e8410600b8410161715611b47575081810a611109565b611b518383611a89565b8060001904821115611b6557611b656119c2565b029392505050565b600061151b60ff841683611acc56fea264697066735822122052c486d10d79048ea7c29a18cd855e7aa9add0f68d15956290ff8d5f5890426864736f6c63430008110033",
  "devdoc": {
    "kind": "dev",
    "methods": {
      "getAmountToReduceDebt(uint256,bool,uint256,uint256,uint256[2],uint256[2],uint256)": {
        "params": {
          "collateralAmountA": "Total collateral amount in asset A",
          "debtAmountB": "Total debt amount in asset B",
          "decsAB": "10**decimals for A and B",
          "isUnderlyingA": "True if A is underlying",
          "pricesAB": "Prices of A and B, decimals 18",
          "requiredLockedAmountPercent": "Required value of locked amount percent [0..100]",
          "totalAssets": "Total assets of the strategy, in underlying"
        },
        "returns": {
          "deltaDebtAmountB": "The amount by which the debt should be reduced, asset B"
        }
      },
      "getAmountToReduceDebtForStrategy(address,uint256)": {
        "params": {
          "requiredAmountToReduceDebt": "If not zero: we are going to make repay-swap-repay to reduce total        debt on the given amount. So, if possible it worth to make swap in such a way as to reduce        the amount of debt by the given amount.        This amount is set in terms of the token B if there is direct debt, or in terms of the token A otherwise.",
          "requiredLockedAmountPercent": "Required value of locked amount percent [0..100]"
        }
      },
      "getLockedUnderlyingAmount(address)": {
        "details": "We cannot call strategy.getState() because of stack too deep problem",
        "params": {
          "strategy_": "Instance of UniswapV3ConverterStrategy"
        },
        "returns": {
          "estimatedUnderlyingAmount": "Total locked amount recalculated to the underlying",
          "totalAssets": "strategy.totalAssets() - in terms of underlying"
        }
      },
      "isWithdrawByAggCallRequired(address,uint256)": {
        "params": {
          "allowedLockedAmountPercent": "[0...100]",
          "strategy_": "instance of IPairBasedStrategyReaderAccess"
        },
        "returns": {
          "_0": "0: it's not necessary to call withdrawByAgg         1: full withdraw is required (with propNotUnderlying = 0)         2: rebalance of the debts is required with pool proportions (propNotUnderlying = type(uint).max)"
        }
      }
    },
    "version": 1
  },
  "userdoc": {
    "kind": "user",
    "methods": {
      "DEBTS_REBALANCE_IS_REQUIRED()": {
        "notice": "Possible results of isWithdrawByAggCallRequired:         rebalance of the debts is required with pool proportions (propNotUnderlying = type(uint).max)"
      },
      "FULL_WITHDRAW_IS_REQUIRED()": {
        "notice": "Possible results of isWithdrawByAggCallRequired:         full withdraw is required (with propNotUnderlying = 0)"
      },
      "getAmountToReduceDebt(uint256,bool,uint256,uint256,uint256[2],uint256[2],uint256)": {
        "notice": "Calculate the amount by which the debt should be reduced to reduce locked-amount-percent below given value"
      },
      "getAmountToReduceDebtForStrategy(address,uint256)": {
        "notice": "Calculate the amount by which the debt should be reduced to reduce locked-amount-percent below given value"
      },
      "getLockedUnderlyingAmount(address)": {
        "notice": "Estimate amount of underlying locked in the strategy by TetuConverter"
      },
      "isWithdrawByAggCallRequired(address,uint256)": {
        "notice": "Check if a call of withdrawByAgg is required"
      }
    },
    "notice": "Read raw values and calculate complex values related to UniswapV3ConverterStrategy",
    "version": 1
  },
  "storageLayout": {
    "storage": [],
    "types": null
  }
}