{
  "address": "0xf92Bb260C7Cafcf6D69563EDF5ff2A11ec8df4A9",
  "abi": [
    {
      "anonymous": false,
      "inputs": [
        {
          "indexed": false,
          "internalType": "uint256",
          "name": "fuseStatus",
          "type": "uint256"
        }
      ],
      "name": "FuseStatusChanged",
      "type": "event"
    },
    {
      "anonymous": false,
      "inputs": [
        {
          "indexed": false,
          "internalType": "uint256[4]",
          "name": "newFuseThresholds",
          "type": "uint256[4]"
        }
      ],
      "name": "NewFuseThresholds",
      "type": "event"
    },
    {
      "anonymous": false,
      "inputs": [
        {
          "indexed": false,
          "internalType": "uint256",
          "name": "amountToSwap",
          "type": "uint256"
        },
        {
          "indexed": false,
          "internalType": "uint256",
          "name": "amountIn",
          "type": "uint256"
        },
        {
          "indexed": false,
          "internalType": "uint256",
          "name": "amountOut",
          "type": "uint256"
        },
        {
          "indexed": false,
          "internalType": "uint256",
          "name": "expectedAmountOut",
          "type": "uint256"
        },
        {
          "indexed": false,
          "internalType": "address",
          "name": "aggregator",
          "type": "address"
        },
        {
          "indexed": false,
          "internalType": "address",
          "name": "assetIn",
          "type": "address"
        },
        {
          "indexed": false,
          "internalType": "address",
          "name": "assetOut",
          "type": "address"
        }
      ],
      "name": "SwapByAgg",
      "type": "event"
    },
    {
      "inputs": [],
      "name": "ENTRY_TO_POOL_IS_ALLOWED",
      "outputs": [
        {
          "internalType": "uint256",
          "name": "",
          "type": "uint256"
        }
      ],
      "stateMutability": "view",
      "type": "function"
    },
    {
      "inputs": [],
      "name": "ENTRY_TO_POOL_IS_ALLOWED_IF_COMPLETED",
      "outputs": [
        {
          "internalType": "uint256",
          "name": "",
          "type": "uint256"
        }
      ],
      "stateMutability": "view",
      "type": "function"
    },
    {
      "inputs": [],
      "name": "FUSE_IDX_LOWER_LIMIT_OFF",
      "outputs": [
        {
          "internalType": "uint256",
          "name": "",
          "type": "uint256"
        }
      ],
      "stateMutability": "view",
      "type": "function"
    },
    {
      "inputs": [],
      "name": "FUSE_IDX_LOWER_LIMIT_ON",
      "outputs": [
        {
          "internalType": "uint256",
          "name": "",
          "type": "uint256"
        }
      ],
      "stateMutability": "view",
      "type": "function"
    },
    {
      "inputs": [],
      "name": "FUSE_IDX_UPPER_LIMIT_OFF",
      "outputs": [
        {
          "internalType": "uint256",
          "name": "",
          "type": "uint256"
        }
      ],
      "stateMutability": "view",
      "type": "function"
    },
    {
      "inputs": [],
      "name": "FUSE_IDX_UPPER_LIMIT_ON",
      "outputs": [
        {
          "internalType": "uint256",
          "name": "",
          "type": "uint256"
        }
      ],
      "stateMutability": "view",
      "type": "function"
    },
    {
      "inputs": [],
      "name": "GAP_AMOUNT_TO_SWAP",
      "outputs": [
        {
          "internalType": "uint256",
          "name": "",
          "type": "uint256"
        }
      ],
      "stateMutability": "view",
      "type": "function"
    },
    {
      "inputs": [],
      "name": "IDX_ADDR_DEFAULT_STATE_POOL",
      "outputs": [
        {
          "internalType": "uint256",
          "name": "",
          "type": "uint256"
        }
      ],
      "stateMutability": "view",
      "type": "function"
    },
    {
      "inputs": [],
      "name": "IDX_ADDR_DEFAULT_STATE_PROFIT_HOLDER",
      "outputs": [
        {
          "internalType": "uint256",
          "name": "",
          "type": "uint256"
        }
      ],
      "stateMutability": "view",
      "type": "function"
    },
    {
      "inputs": [],
      "name": "IDX_ADDR_DEFAULT_STATE_TOKEN_A",
      "outputs": [
        {
          "internalType": "uint256",
          "name": "",
          "type": "uint256"
        }
      ],
      "stateMutability": "view",
      "type": "function"
    },
    {
      "inputs": [],
      "name": "IDX_ADDR_DEFAULT_STATE_TOKEN_B",
      "outputs": [
        {
          "internalType": "uint256",
          "name": "",
          "type": "uint256"
        }
      ],
      "stateMutability": "view",
      "type": "function"
    },
    {
      "inputs": [],
      "name": "IDX_BOOL_VALUES_DEFAULT_STATE_DEPOSITOR_SWAP_TOKENS",
      "outputs": [
        {
          "internalType": "uint256",
          "name": "",
          "type": "uint256"
        }
      ],
      "stateMutability": "view",
      "type": "function"
    },
    {
      "inputs": [],
      "name": "IDX_BOOL_VALUES_DEFAULT_STATE_IS_STABLE_POOL",
      "outputs": [
        {
          "internalType": "uint256",
          "name": "",
          "type": "uint256"
        }
      ],
      "stateMutability": "view",
      "type": "function"
    },
    {
      "inputs": [],
      "name": "IDX_NUMS_DEFAULT_STATE_FUSE_STATUS",
      "outputs": [
        {
          "internalType": "uint256",
          "name": "",
          "type": "uint256"
        }
      ],
      "stateMutability": "view",
      "type": "function"
    },
    {
      "inputs": [],
      "name": "IDX_NUMS_DEFAULT_STATE_LAST_REBALANCE_NO_SWAP",
      "outputs": [
        {
          "internalType": "uint256",
          "name": "",
          "type": "uint256"
        }
      ],
      "stateMutability": "view",
      "type": "function"
    },
    {
      "inputs": [],
      "name": "IDX_NUMS_DEFAULT_STATE_RESERVED_0",
      "outputs": [
        {
          "internalType": "uint256",
          "name": "",
          "type": "uint256"
        }
      ],
      "stateMutability": "view",
      "type": "function"
    },
    {
      "inputs": [],
      "name": "IDX_NUMS_DEFAULT_STATE_RESERVED_1",
      "outputs": [
        {
          "internalType": "uint256",
          "name": "",
          "type": "uint256"
        }
      ],
      "stateMutability": "view",
      "type": "function"
    },
    {
      "inputs": [],
      "name": "IDX_NUMS_DEFAULT_STATE_RESERVED_2",
      "outputs": [
        {
          "internalType": "uint256",
          "name": "",
          "type": "uint256"
        }
      ],
      "stateMutability": "view",
      "type": "function"
    },
    {
      "inputs": [],
      "name": "IDX_NUMS_DEFAULT_STATE_RESERVED_3",
      "outputs": [
        {
          "internalType": "uint256",
          "name": "",
          "type": "uint256"
        }
      ],
      "stateMutability": "view",
      "type": "function"
    },
    {
      "inputs": [],
      "name": "IDX_NUMS_DEFAULT_STATE_RESERVED_4",
      "outputs": [
        {
          "internalType": "uint256",
          "name": "",
          "type": "uint256"
        }
      ],
      "stateMutability": "view",
      "type": "function"
    },
    {
      "inputs": [],
      "name": "IDX_NUMS_DEFAULT_STATE_THRESHOLD_0",
      "outputs": [
        {
          "internalType": "uint256",
          "name": "",
          "type": "uint256"
        }
      ],
      "stateMutability": "view",
      "type": "function"
    },
    {
      "inputs": [],
      "name": "IDX_NUMS_DEFAULT_STATE_THRESHOLD_1",
      "outputs": [
        {
          "internalType": "uint256",
          "name": "",
          "type": "uint256"
        }
      ],
      "stateMutability": "view",
      "type": "function"
    },
    {
      "inputs": [],
      "name": "IDX_NUMS_DEFAULT_STATE_THRESHOLD_2",
      "outputs": [
        {
          "internalType": "uint256",
          "name": "",
          "type": "uint256"
        }
      ],
      "stateMutability": "view",
      "type": "function"
    },
    {
      "inputs": [],
      "name": "IDX_NUMS_DEFAULT_STATE_THRESHOLD_3",
      "outputs": [
        {
          "internalType": "uint256",
          "name": "",
          "type": "uint256"
        }
      ],
      "stateMutability": "view",
      "type": "function"
    },
    {
      "inputs": [],
      "name": "IDX_NUMS_DEFAULT_STATE_TOTAL_LIQUIDITY",
      "outputs": [
        {
          "internalType": "uint256",
          "name": "",
          "type": "uint256"
        }
      ],
      "stateMutability": "view",
      "type": "function"
    },
    {
      "inputs": [],
      "name": "IDX_NUMS_DEFAULT_STATE_WITHDRAW_DONE",
      "outputs": [
        {
          "internalType": "uint256",
          "name": "",
          "type": "uint256"
        }
      ],
      "stateMutability": "view",
      "type": "function"
    },
    {
      "inputs": [],
      "name": "IDX_TICK_DEFAULT_STATE_LOWER_TICK",
      "outputs": [
        {
          "internalType": "uint256",
          "name": "",
          "type": "uint256"
        }
      ],
      "stateMutability": "view",
      "type": "function"
    },
    {
      "inputs": [],
      "name": "IDX_TICK_DEFAULT_STATE_REBALANCE_TICK_RANGE",
      "outputs": [
        {
          "internalType": "uint256",
          "name": "",
          "type": "uint256"
        }
      ],
      "stateMutability": "view",
      "type": "function"
    },
    {
      "inputs": [],
      "name": "IDX_TICK_DEFAULT_STATE_TICK_SPACING",
      "outputs": [
        {
          "internalType": "uint256",
          "name": "",
          "type": "uint256"
        }
      ],
      "stateMutability": "view",
      "type": "function"
    },
    {
      "inputs": [],
      "name": "IDX_TICK_DEFAULT_STATE_UPPER_TICK",
      "outputs": [
        {
          "internalType": "uint256",
          "name": "",
          "type": "uint256"
        }
      ],
      "stateMutability": "view",
      "type": "function"
    },
    {
      "inputs": [],
      "name": "INCORRECT_ASSET",
      "outputs": [
        {
          "internalType": "string",
          "name": "",
          "type": "string"
        }
      ],
      "stateMutability": "view",
      "type": "function"
    },
    {
      "inputs": [],
      "name": "INCORRECT_REBALANCE_TICK_RANGE",
      "outputs": [
        {
          "internalType": "string",
          "name": "",
          "type": "string"
        }
      ],
      "stateMutability": "view",
      "type": "function"
    },
    {
      "inputs": [],
      "name": "INCORRECT_TICK_RANGE",
      "outputs": [
        {
          "internalType": "string",
          "name": "",
          "type": "string"
        }
      ],
      "stateMutability": "view",
      "type": "function"
    },
    {
      "inputs": [],
      "name": "UNKNOWN_SWAP_ROUTER",
      "outputs": [
        {
          "internalType": "string",
          "name": "",
          "type": "string"
        }
      ],
      "stateMutability": "view",
      "type": "function"
    },
    {
      "inputs": [
        {
          "internalType": "uint256",
          "name": "poolPriceDecimals",
          "type": "uint256"
        }
      ],
      "name": "getPoolPriceAdjustment",
      "outputs": [
        {
          "internalType": "uint256",
          "name": "adjustment",
          "type": "uint256"
        }
      ],
      "stateMutability": "pure",
      "type": "function"
    }
  ],
  "transactionHash": "0xede0f392e6a772a9f9186bb8c53ab340c656911ca0fafd5cc9a86638f048bf75",
  "args": [],
  "numDeployments": 4,
  "solcInputHash": "da1a131c81810b0ec86f8a1b7470ae1a",
  "bytecode": "0x61490061003a600b82828239805160001a60731461002d57634e487b7160e01b600052600060045260246000fd5b30600052607381538281f3fe73000000000000000000000000000000000000000030146080604052600436106102475760003560e01c8063767e17e811610145578063c143e087116100c2578063d7a1d53511610086578063d7a1d535146102f9578063e0c24b3a1461043f578063e642319514610447578063ec88f9ff146102a2578063f7ebc365146102a257600080fd5b8063c143e08714610324578063c63891c7146102a2578063c8ce726c146102f1578063cdb549351461042f578063d3a9335c1461043757600080fd5b8063a200f62b11610109578063a200f62b146102f1578063a7231ef6146103eb578063aea02d91146103f3578063c00d3e0b146102f9578063c06ab65f146103fb57600080fd5b8063767e17e8146102f1578063831fd9ea146103245780638f875cc814610324578063927154f0146103b85780639c2d8d63146102f957600080fd5b806337d11dc1116101d357806360339c591161019757806360339c59146102f9578063603938b814610324578063673d63db1461032c5780636bffb346146103685780637545be261461038857600080fd5b806337d11dc1146102f957806343fc304a1461030157806346326a2914610309578063556ce728146103115780635be05524146102f157600080fd5b8063137c52b21161021a578063137c52b2146102a25780631429888b146102aa57806314ad109e146102b2578063217052d1146102a257806335f33bc2146102f157600080fd5b8063058ba3db1461024c5780630593c4c91461026a5780631033193e1461028c5780631200fb3c146102a2575b600080fd5b61025461044f565b6040516102619190613bec565b60405180910390f35b81801561027657600080fd5b5061028a610285366004613c8f565b61046b565b005b610294600981565b604051908152602001610261565b610294600181565b610294600781565b8180156102be57600080fd5b506102d26102cd366004613ed0565b610607565b604080516001600160a01b039093168352602083019190915201610261565b610294600281565b610294600081565b610294600c81565b610294600a81565b61029461031f366004613f84565b610769565b610294600381565b6102546040518060400160405280601981526020017f5042532d3320496e636f7272656374207469636b52616e67650000000000000081525081565b81801561037457600080fd5b5061028a610383366004613f9d565b610796565b81801561039457600080fd5b506103a86103a3366004614062565b6107fa565b6040519015158152602001610261565b610254604051806040016040528060148152602001732821299698902ab735b737bbb7103937baba32b960611b81525081565b610294600b81565b610294600581565b61025460405180604001604052806015815260200174141094cb4d48125b98dbdc9c9958dd08185cdcd95d605a1b81525081565b610294606481565b610294600481565b610294600681565b610294600881565b6040518060600160405280602281526020016148a96022913981565b805115801561047c57506020810151155b8061048c57506020810151815111155b6040518060400160405280601381526020017254532d333020696e76616c69642076616c756560681b815250906104df5760405162461bcd60e51b81526004016104d69190613bec565b60405180910390fd5b5060408101511580156104f457506060810151155b8061050757506060810151604082015110155b6040518060400160405280601381526020017254532d333020696e76616c69642076616c756560681b815250906105515760405162461bcd60e51b81526004016104d69190613bec565b508051158015906105655750604081015115155b156105bc5780516040808301518151808301909252601382527254532d333020696e76616c69642076616c756560681b60208301529091106105ba5760405162461bcd60e51b81526004016104d69190613bec565b505b6105cb60018301826004613b49565b507fef6880b7ef7308e1a0fdc54890042b9fc1d2355795cd67a12c76d38438e643b5816040516105fb919061416b565b60405180910390a15050565b600080808061062761061f8b835b60200201516109c7565b8a6002610a8c565b9150915060006040518061016001604052808c60006002811061064c5761064c614155565b60200201516001600160a01b031681526020018c60016002811061067257610672614155565b60200201516001600160a01b031681526020018b81526020018a8152602001848152602001838152602001898152602001888152602001600019886000600281106106bf576106bf614155565b6020020151146106d0578751610732565b306001600160a01b0316634ba31b016040518163ffffffff1660e01b8152600401602060405180830381865afa15801561070e573d6000803e3d6000fd5b505050506040513d601f19601f82011682018060405250810190610732919061419c565b8152875160001914602082015260400187600160200201519052905061075781610c7a565b94509450505050965096945050505050565b60006012821061077a576001610790565b6107858260126141cb565b61079090600a6142c2565b92915050565b81548190839060ff191660018360038111156107b4576107b46142ce565b02179055507f5a7ee3c5ef7f4e3625ee638c3a95481dc4cbfaceda022d1e8fba8ed7fa2208e18160038111156107ec576107ec6142ce565b6040519081526020016105fb565b6000808061081361080b8e83610615565b8d6002610a8c565b9150915060006040518061016001604052808f60006002811061083857610838614155565b60200201516001600160a01b031681526020018f60016002811061085e5761085e614155565b60200201516001600160a01b031681526020018e81526020018d815260200184815260200183815260200160026001600160401b038111156108a2576108a2613bff565b6040519080825280602002602001820160405280156108cb578160200160208202803683370190505b508152602081018890528651604090910190600019146108ec57865161094e565b306001600160a01b0316634ba31b016040518163ffffffff1660e01b8152600401602060405180830381865afa15801561092a573d6000803e3d6000fd5b505050506040513d601f19601f8201168201806040525081019061094e919061419c565b815286516000191460208201526040018660016020020151815250905060006040518060a0016040528089151581526020018d6001600160a01b031681526020018b6001600160a01b031681526020018c81526020018a81525090506109b48282610ded565b9f9e505050505050505050505050505050565b6000816001600160a01b031663f77c47916040518163ffffffff1660e01b8152600401602060405180830381865afa158015610a07573d6000803e3d6000fd5b505050506040513d601f19601f82011682018060405250810190610a2b91906142e4565b6001600160a01b0316632630c12f6040518163ffffffff1660e01b8152600401602060405180830381865afa158015610a68573d6000803e3d6000fd5b505050506040513d601f19601f8201168201806040525081019061079091906142e4565b606080826001600160401b03811115610aa757610aa7613bff565b604051908082528060200260200182016040528015610ad0578160200160208202803683370190505b509150826001600160401b03811115610aeb57610aeb613bff565b604051908082528060200260200182016040528015610b14578160200160208202803683370190505b50905060005b83811015610c7157848181518110610b3457610b34614155565b60200260200101516001600160a01b031663313ce5676040518163ffffffff1660e01b8152600401602060405180830381865afa158015610b79573d6000803e3d6000fd5b505050506040513d601f19601f82011682018060405250810190610b9d9190614301565b610ba890600a614324565b828281518110610bba57610bba614155565b602002602001018181525050856001600160a01b031663b3596f07868381518110610be757610be7614155565b60200260200101516040518263ffffffff1660e01b8152600401610c0b9190614333565b602060405180830381865afa158015610c28573d6000803e3d6000fd5b505050506040513d601f19601f82011682018060405250810190610c4c919061419c565b838281518110610c5e57610c5e614155565b6020908102919091010152600101610b1a565b50935093915050565b6000806000736f070FFf0cc48fCBA84c7BA509cF6593a8F2047F632be98102604051806040016040528087600001516001600160a01b03166001600160a01b0316815260200187602001516001600160a01b03166001600160a01b03168152508660400151876060015188608001518960a001518a60c001516040518060e001604052808d6101200151610d0f576000610d12565b60015b60ff1681526020018d60e0015181526020018d61010001518152602001600019815260200160008152602001600181526020018d61014001518152506040518863ffffffff1660e01b8152600401610d7097969594939291906143de565b606060405180830381865af4158015610d8d573d6000803e3d6000fd5b505050506040513d601f19601f82011682018060405250810190610db19190614490565b50925090508015610de7576040840151610dcc6001836141cb565b81518110610ddc57610ddc614155565b602002602001015192505b50915091565b600080600080736f070FFf0cc48fCBA84c7BA509cF6593a8F2047F632be98102604051806040016040528089600001516001600160a01b03166001600160a01b0316815260200189602001516001600160a01b03166001600160a01b0316815250886040015189606001518a608001518b60a001518c60c001516040518060e001604052808f6101200151610e83576000610e86565b60015b60ff1681526020018f60e0015181526020018f61010001518152602001600019815260200160008152602001600181526020018f61014001518152506040518863ffffffff1660e01b8152600401610ee497969594939291906143de565b606060405180830381865af4158015610f01573d6000803e3d6000fd5b505050506040513d601f19601f82011682018060405250810190610f259190614490565b9250925092506000604051806080016040528060028960e001511480610f4d575060e0890151155b15151515815260200160018960e001511480610f6b575060e0890151155b1515815260e0890180516001908114602084015290511460409091015290508315801590610f97575080515b15610fd657610fce8787610fac6001886141cb565b6000610fb960018a6141cb565b14610fc5576000610fc8565b60015b87611260565b610100890152505b8115801590610fe6575060208101515b156110f457865160408801516110f0919060006110046001876141cb565b14611010576000611013565b60015b8151811061102357611023614155565b6020026020010151896040015160018661103d91906141cb565b8151811061104d5761104d614155565b60200260200101518a6040015160018761106791906141cb565b8151811061107757611077614155565b60200260200101516001600160a01b03166370a08231306040518263ffffffff1660e01b81526004016110aa9190614333565b602060405180830381865afa1580156110c7573d6000803e3d6000fd5b505050506040513d601f19601f820116820180604052508101906110eb919061419c565b6118b0565b5050505b83156112555760408101511561120e576111148787610fac6001886141cb565b610100890152506060810151801561112b57508115155b156112095760008061116289826111436001886141cb565b1461114f576000611152565b60015b61115d6001886141cb565b611a74565b9150915080156111a35761119e8961117b6001876141cb565b60006111886001896141cb565b14611194576000611197565b60015b6001612009565b611206565b60608901516111b36001866141cb565b815181106111c3576111c3614155565b6020026020010151821115611206576112068960006111e36001886141cb565b146111ef5760006111f2565b60015b6111fd6001886141cb565b8560001961212f565b50505b611255565b8115801561121e57508661012001515b801561122e575061010087015115155b80156112475750866101000151670de0b6b3a764000014155b156112555761125587612409565b501595945050505050565b600080856000015161127457856060015192505b855160009061128757866040015161128d565b87602001515b9050876040015186815181106112a5576112a5614155565b60200260200101516001600160a01b03166370a08231306040518263ffffffff1660e01b81526004016112d89190614333565b602060405180830381865afa1580156112f5573d6000803e3d6000fd5b505050506040513d601f19601f82011682018060405250810190611319919061419c565b8411156040518060400160405280601781526020017654532d37206e6f7420656e6f7567682062616c616e636560481b8152509061136a5760405162461bcd60e51b81526004016104d69190613bec565b508760400151868151811061138157611381614155565b60200260200101516001600160a01b031687602001516001600160a01b0316146040518060400160405280601181526020017054532d323520737761702062792061676760781b815250906113e95760405162461bcd60e51b81526004016104d69190613bec565b508760600151868151811061140057611400614155565b6020026020010151841115611828576114378860400151878151811061142857611428614155565b602002602001015185836125ec565b600061145f8960400151878151811061145257611452614155565b6020026020010151612697565b8851909150156114df576114d78960000151838b604001518a8151811061148857611488614155565b60200260200101518c604001518a815181106114a6576114a6614155565b60200260200101518961012c8f606001518e815181106114c8576114c8614155565b60200260200101516001612707565b509350611592565b88602001516001600160a01b0316826001600160a01b0316146115055761150582612812565b600080836001600160a01b03168a6080015160405161152491906144be565b6000604051808303816000865af19150503d8060008114611561576040519150601f19603f3d011682016040523d82523d6000602084013e611566565b606091505b509150915081819061158b5760405162461bcd60e51b81526004016104d69190613bec565b5086955050505b88600001516001600160a01b031663291f89c48a6040015189815181106115bb576115bb614155565b6020026020010151878c604001518a815181106115da576115da614155565b6020026020010151856115fc8f604001518d8151811061145257611452614155565b61160691906141cb565b61012c6040518663ffffffff1660e01b81526004016116299594939291906144da565b602060405180830381865afa158015611646573d6000803e3d6000fd5b505050506040513d601f19601f8201168201806040525081019061166a919061450e565b604051806040016040528060128152602001711514cb4c4d881c1c9a58d9481a5b5c1858dd60721b815250906116b35760405162461bcd60e51b81526004016104d69190613bec565b507f650da787b25801954b4e03c78b9c6b07fddcbda246347411c49d282c7225f592886060015186836116f58d604001518b8151811061145257611452614155565b6116ff91906141cb565b8c60a001518b8151811061171557611715614155565b60200260200101518d608001518b8151811061173357611733614155565b60200260200101518e60a001518c8151811061175157611751614155565b60200260200101518f608001518e8151811061176f5761176f614155565b60200260200101518c611782919061452b565b61178c919061452b565b6117969190614558565b6117a09190614558565b868e604001518d815181106117b7576117b7614155565b60200260200101518f604001518d815181106117d5576117d5614155565b602090810291909101810151604080519889529188019690965286019390935260608501919091526001600160a01b03908116608085015290811660a08401521660c082015260e00160405180910390a1505b8288610120015161183e578861010001516118a0565b306001600160a01b0316634ba31b016040518163ffffffff1660e01b8152600401602060405180830381865afa15801561187c573d6000803e3d6000fd5b505050506040513d601f19601f820116820180604052508101906118a0919061419c565b92509250505b9550959350505050565b600080600080856001600160a01b03166370a08231306040518263ffffffff1660e01b81526004016118e29190614333565b602060405180830381865afa1580156118ff573d6000803e3d6000fd5b505050506040513d601f19601f82011682018060405250810190611923919061419c565b90506000886001600160a01b031663dd27ede7308a8a60016040518563ffffffff1660e01b815260040161195a949392919061456c565b60408051808303816000875af1158015611978573d6000803e3d6000fd5b505050506040513d601f19601f8201168201806040525081019061199c9190614596565b5090506119b78187106119af57816119b1565b865b836128cf565b60405163667df24960e01b81523060048201526001600160a01b038a811660248301528981166044830152606482018390529194506000918b169063667df2499060840160408051808303816000875af1158015611a19573d6000803e3d6000fd5b505050506040513d601f19601f82011682018060405250810190611a3d9190614596565b909650905080861115611a5757611a5481876141cb565b95505b611a648a8a8a87876128e7565b9550505050509450945094915050565b600080611ab06040518060c001604052806000815260200160008152602001600081526020016000815260200160008152602001600081525090565b8560a001518581518110611ac657611ac6614155565b602002602001015186608001518681518110611ae457611ae4614155565b602002602001015187604001518781518110611b0257611b02614155565b60200260200101516001600160a01b03166370a08231306040518263ffffffff1660e01b8152600401611b359190614333565b602060405180830381865afa158015611b52573d6000803e3d6000fd5b505050506040513d601f19601f82011682018060405250810190611b76919061419c565b611b80919061452b565b611b8a9190614558565b604082015260a0860151805185908110611ba657611ba6614155565b602002602001015186608001518581518110611bc457611bc4614155565b602002602001015187604001518681518110611be257611be2614155565b60200260200101516001600160a01b03166370a08231306040518263ffffffff1660e01b8152600401611c159190614333565b602060405180830381865afa158015611c32573d6000803e3d6000fd5b505050506040513d601f19601f82011682018060405250810190611c56919061419c565b611c60919061452b565b611c6a9190614558565b60608201528415611c8057856101000151611c98565b610100860151611c9890670de0b6b3a76400006141cb565b81528415611cbd57610100860151611cb890670de0b6b3a76400006141cb565b611cc4565b8561010001515b602082015260a0860151805186908110611ce057611ce0614155565b602002602001015186608001518581518110611cfe57611cfe614155565b60200260200101518760a001518681518110611d1c57611d1c614155565b602002602001015188608001518881518110611d3a57611d3a614155565b6020026020010151611d4c919061452b565b611d5e90670de0b6b3a764000061452b565b611d689190614558565b611d729190614558565b81608001818152505060008087600001516001600160a01b031663e4c2be70308a604001518a81518110611da857611da8614155565b60200260200101518b604001518a81518110611dc657611dc6614155565b602002602001015160016040518563ffffffff1660e01b8152600401611def949392919061456c565b6040805180830381865afa158015611e0b573d6000803e3d6000fd5b505050506040513d601f19601f82011682018060405250810190611e2f9190614596565b9150915081600003611f0f5760208301518351600091611e4e916145ba565b845160608601516040870151611e6491906145ba565b611e6e919061452b565b611e789190614558565b9050836040015181118015611f0757508860a001518881518110611e9e57611e9e614155565b602002602001015189608001518981518110611ebc57611ebc614155565b60200260200101518a606001518a81518110611eda57611eda614155565b6020026020010151611eec919061452b565b611ef69190614558565b6040850151611f0590836141cb565b115b945050611fab565b8260000151670de0b6b3a7640000838386608001518760200151611f33919061452b565b611f3d919061452b565b611f479190614558565b611f519190614558565b611f5b91906145cd565b83604001518460200151611f6f919061452b565b60608501518551611f80919061452b565b611f8a91906145f5565b611f94919061461c565b60a0840181905260001215611fab578260a0015194505b87608001518681518110611fc157611fc1614155565b60200260200101518860a001518781518110611fdf57611fdf614155565b602002602001015186611ff2919061452b565b611ffc9190614558565b9450505050935093915050565b6121298484848760400151878151811061202557612025614155565b60200260200101516001600160a01b03166370a08231306040518263ffffffff1660e01b81526004016120589190614333565b602060405180830381865afa158015612075573d6000803e3d6000fd5b505050506040513d601f19601f82011682018060405250810190612099919061419c565b886040015187815181106120af576120af614155565b60200260200101516001600160a01b03166370a08231306040518263ffffffff1660e01b81526004016120e29190614333565b602060405180830381865afa1580156120ff573d6000803e3d6000fd5b505050506040513d601f19601f82011682018060405250810190612123919061419c565b86612ad0565b50505050565b60008560400151848151811061214757612147614155565b60200260200101516001600160a01b03166370a08231306040518263ffffffff1660e01b815260040161217a9190614333565b602060405180830381865afa158015612197573d6000803e3d6000fd5b505050506040513d601f19601f820116820180604052508101906121bb919061419c565b90506122078660000151876040015187815181106121db576121db614155565b6020026020010151886040015187815181106121f9576121f9614155565b6020026020010151866118b0565b50505060008660400151858151811061222257612222614155565b60200260200101516001600160a01b03166370a08231306040518263ffffffff1660e01b81526004016122559190614333565b602060405180830381865afa158015612272573d6000803e3d6000fd5b505050506040513d601f19601f82011682018060405250810190612296919061419c565b905060008183116122a85760006122b2565b6122b282846141cb565b905084811080156122ea5750876060015186815181106122d4576122d4614155565b602002602001015181866122e891906141cb565b115b156123ff57600088600001516001600160a01b031663e4c2be70308b604001518b8151811061231b5761231b614155565b60200260200101518c604001518b8151811061233957612339614155565b602002602001015160016040518563ffffffff1660e01b8152600401612362949392919061456c565b6040805180830381865afa15801561237e573d6000803e3d6000fd5b505050506040513d601f19601f820116820180604052508101906123a29190614596565b509050886060015187815181106123bb576123bb614155565b6020026020010151811180156123d057508481105b156123f0576123eb8989896123e5868b6141cb565b8561212f565b6123fd565b6123fd89888a6000612009565b505b5050505050505050565b6000816040015160008151811061242257612422614155565b60200260200101516001600160a01b03166370a08231306040518263ffffffff1660e01b81526004016124559190614333565b602060405180830381865afa158015612472573d6000803e3d6000fd5b505050506040513d601f19601f82011682018060405250810190612496919061419c565b9050600082604001516001815181106124b1576124b1614155565b60200260200101516001600160a01b03166370a08231306040518263ffffffff1660e01b81526004016124e49190614333565b602060405180830381865afa158015612501573d6000803e3d6000fd5b505050506040513d601f19601f82011682018060405250810190612525919061419c565b905060008061254885608001518660a00151868689610100015160006001612df3565b915091508184111561259b57846060015160008151811061256b5761256b614155565b6020026020010151828561257f91906141cb565b111561259657612596856000600187876001612ad0565b6125e5565b808311156125e55784606001516000815181106125ba576125ba614155565b602002602001015181846125ce91906141cb565b11156125e5576125e5856001600086886001612ad0565b5050505050565b604051636eb1769f60e11b81523060048201526001600160a01b03828116602483015283919085169063dd62ed3e90604401602060405180830381865afa15801561263b573d6000803e3d6000fd5b505050506040513d601f19601f8201168201806040525081019061265f919061419c565b10156126925761267a6001600160a01b038416826000612f82565b6126926001600160a01b03841682600160ff1b612f82565b505050565b6040516370a0823160e01b81526000906001600160a01b038316906370a08231906126c6903090600401614333565b602060405180830381865afa1580156126e3573d6000803e3d6000fd5b505050506040513d601f19601f82011682018060405250810190610790919061419c565b60008083861161271c57506000905080612805565b604051633744088160e11b81526001600160a01b0389811660048301528881166024830152600091908b1690636e88110290604401600060405180830381865afa15801561276e573d6000803e3d6000fd5b505050506040513d6000823e601f3d908101601f19168201604052612796919081019061468f565b50805160408051808201909152601a81527f54532d3135204e6f206c69717569646174696f6e20726f75746500000000000060208201529192506127ed5760405162461bcd60e51b81526004016104d69190613bec565b50866127ff8c838d8d8d8d8d8c6130ca565b92509250505b9850989650505050505050565b6001600160a01b038116731111111254eeb25477b68fb85ed929f73a960582148061285957506001600160a01b038116736352a56caadc4f1e25cd6c75970fa768a3304e64145b8061288057506001600160a01b038116736dd434082eab5cd134b33719ec1ff05fe985b97b145b604051806040016040528060148152602001732821299698902ab735b737bbb7103937baba32b960611b815250906128cb5760405162461bcd60e51b81526004016104d69190613bec565b5050565b60008183106128de57816128e0565b825b9392505050565b600080606484106118a6576129066001600160a01b03861688866133a8565b6040516314b685e960e21b81526001600160a01b038781166004830152868116602483015260448201869052306064830152600091908916906352da17a4906084016080604051808303816000875af1158015612967573d6000803e3d6000fd5b505050506040513d601f19601f8201168201806040525081019061298b91906147a8565b5050604080516001600160a01b03808c1682528a1660208201529081018890523060608201526080810183905260a0810182905291945091507f1d1ba11e7ca20f5dc77d8cfd75b68d11520677808f89f6ba0f0e50dc52c450129060c00160405180910390a16040516370a0823160e01b81526000906001600160a01b038816906370a0823190612a20903090600401614333565b602060405180830381865afa158015612a3d573d6000803e3d6000fd5b505050506040513d601f19601f82011682018060405250810190612a61919061419c565b9050808511612a71576000612a7b565b612a7b81866141cb565b60408051808201909152600f81526e53423a2057726f6e672076616c756560881b60208201529093508215612ac35760405162461bcd60e51b81526004016104d69190613bec565b5050509550959350505050565b8015612be757600086600001516001600160a01b031663e4c2be703089604001518881518110612b0257612b02614155565b60200260200101518a604001518a81518110612b2057612b20614155565b602002602001015160006040518563ffffffff1660e01b8152600401612b49949392919061456c565b6040805180830381865afa158015612b65573d6000803e3d6000fd5b505050506040513d601f19601f82011682018060405250810190612b899190614596565b509050606481106040518060400160405280601a81526020017f54532d3239206f70706f7369746520646562742065786973747300000000000081525090612be45760405162461bcd60e51b81526004016104d69190613bec565b50505b600060405180610160016040528060405180604001604052808a600001516001600160a01b031681526020018a602001516001600160a01b0316815250815260200188604001518881518110612c3f57612c3f614155565b60200260200101516001600160a01b0316815260200188604001518781518110612c6b57612c6b614155565b60200260200101516001600160a01b0316815260200160008814612c9457886101000151612cac565b610100890151612cac90670de0b6b3a76400006141cb565b81526020018715612cd457610100890151612ccf90670de0b6b3a76400006141cb565b612cdb565b8861010001515b81526020018860a001518781518110612cf657612cf6614155565b602002602001015189608001518981518110612d1457612d14614155565b60200260200101518a60a001518a81518110612d3257612d32614155565b60200260200101518b608001518a81518110612d5057612d50614155565b6020026020010151670de0b6b3a7640000612d6b919061452b565b612d75919061452b565b612d7f9190614558565b612d899190614558565b815260200188606001518881518110612da457612da4614155565b6020026020010151815260200160008152602001600081526020018781526020018681525090506123fd8160405180604001604052808a6080015181526020018a60a0015181525086866133d8565b6000806000888581518110612e0a57612e0a614155565b60200260200101518a8681518110612e2457612e24614155565b602002602001015189612e37919061452b565b612e419190614558565b90506000898581518110612e5757612e57614155565b60200260200101518b8681518110612e7157612e71614155565b602002602001015189612e84919061452b565b612e8e9190614558565b90508615612ec357670de0b6b3a764000087612eaa83856145ba565b612eb4919061452b565b612ebe9190614558565b612ec6565b60005b92508a8681518110612eda57612eda614155565b60200260200101518a8781518110612ef457612ef4614155565b6020026020010151848385612f0991906145ba565b612f1391906141cb565b612f1d919061452b565b612f279190614558565b93508a8581518110612f3b57612f3b614155565b60200260200101518a8681518110612f5557612f55614155565b602002602001015184612f68919061452b565b612f729190614558565b9250505097509795505050505050565b801580612ffc5750604051636eb1769f60e11b81523060048201526001600160a01b03838116602483015284169063dd62ed3e90604401602060405180830381865afa158015612fd6573d6000803e3d6000fd5b505050506040513d601f19601f82011682018060405250810190612ffa919061419c565b155b6130675760405162461bcd60e51b815260206004820152603660248201527f5361666545524332303a20617070726f76652066726f6d206e6f6e2d7a65726f60448201527520746f206e6f6e2d7a65726f20616c6c6f77616e636560501b60648201526084016104d6565b6040516001600160a01b03831660248201526044810182905261269290849063095ea7b360e01b906064015b60408051601f198184030181529190526020810180516001600160e01b03166001600160e01b031990931692909217909152613545565b60006130d78685896125ec565b6040516370a0823160e01b81526000906001600160a01b038716906370a0823190613106903090600401614333565b602060405180830381865afa158015613123573d6000803e3d6000fd5b505050506040513d601f19601f82011682018060405250810190613147919061419c565b6040516310fe133960e31b81529091506001600160a01b038916906387f099c89061317a908c90899089906004016147de565b600060405180830381600087803b15801561319457600080fd5b505af11580156131a8573d6000803e3d6000fd5b50506040516370a0823160e01b8152600092506001600160a01b03891691506370a08231906131db903090600401614333565b602060405180830381865afa1580156131f8573d6000803e3d6000fd5b505050506040513d601f19601f8201168201806040525081019061321c919061419c565b90508181116040518060400160405280601681526020017554532d32302062616c616e636520646563726561736560501b8152509061326e5760405162461bcd60e51b81526004016104d69190613bec565b5061327982826141cb565b925083806132f75750604051630a47e27160e21b81526001600160a01b038c169063291f89c4906132b6908b908a908c9089908c906004016144da565b602060405180830381865afa1580156132d3573d6000803e3d6000fd5b505050506040513d601f19601f820116820180604052508101906132f7919061450e565b604051806040016040528060128152602001711514cb4c4d881c1c9a58d9481a5b5c1858dd60721b815250906133405760405162461bcd60e51b81526004016104d69190613bec565b50604080516001600160a01b03808b1682528916602082015290810187905260608101879052608081018490527f5a821a618ddb1a1fd304234a69c9d7f20c129d122fcf35593d13a071926643079060a00160405180910390a1505098975050505050505050565b6040516001600160a01b03831660248201526044810182905261269290849063a9059cbb60e01b90606401613093565b6000808560e00151600014806133f15750610100860151155b6040518060400160405280601381526020017254532d333020696e76616c69642076616c756560681b8152509061343b5760405162461bcd60e51b81526004016104d69190613bec565b50610100860151156134b65785610100015183106134775761346e86858861010001518661346991906141cb565b613617565b9150915061353c565b6000613495878787878b610100015161349091906141cb565b6137b0565b5090506134ac876134a683886141cb565b86613617565b925092505061353c565b60e086015115613531578560e001518410156040518060400160405280601781526020017654532d37206e6f7420656e6f7567682062616c616e636560481b815250906135165760405162461bcd60e51b81526004016104d69190613bec565b5061346e868760e001518661352b91906141cb565b85613617565b61346e868585613617565b94509492505050565b600061359a826040518060400160405280602081526020017f5361666545524332303a206c6f772d6c6576656c2063616c6c206661696c6564815250856001600160a01b03166139b99092919063ffffffff16565b80519091501561269257808060200190518101906135b8919061450e565b6126925760405162461bcd60e51b815260206004820152602a60248201527f5361666545524332303a204552433230206f7065726174696f6e20646964206e6044820152691bdd081cdd58d8d9595960b21b60648201526084016104d6565b6060838101516080808601516040805160016020820152808201949094528385019190915280518084039094018452910190526000908190819084156136e757670de0b6b3a7640000876080015188606001518960a001518861367a919061452b565b613684919061452b565b61368e9190614558565b6136989190614558565b9150858211156040518060400160405280601081526020016f54532d392077726f6e672076616c756560801b815250906136e55760405162461bcd60e51b81526004016104d69190613bec565b505b6020870151613702906136fa84896141cb565b8951516125ec565b731E26533D45EBf5147Da62cA0E9C7875798F5632463ca27d10d886000015160000151838a602001518b60400151878c61373c91906141cb565b8d60c001516040518763ffffffff1660e01b815260040161376296959493929190614860565b6040805180830381865af415801561377e573d6000803e3d6000fd5b505050506040513d601f19601f820116820180604052508101906137a29190614596565b935093505050935093915050565b60008060008560200151876101400151815181106137d0576137d0614155565b60200260200101518660000151886101200151815181106137f3576137f3614155565b602002602001015187602001518961012001518151811061381657613816614155565b602002602001015188600001518a61014001518151811061383957613839614155565b60200260200101518761384c919061452b565b613856919061452b565b6138609190614558565b61386a9190614558565b9050620186a061387c61012c826145ba565b613886908361452b565b6138909190614558565b90508085116040518060400160405280601781526020017654532d37206e6f7420656e6f7567682062616c616e636560481b815250906138e35760405162461bcd60e51b81526004016104d69190613bec565b5086518051602091820151918901516040808b015160c08c01519151637de8f56960e01b81526001600160a01b03948516600482015294841660248601529183166044850152911660648301526084820183905261012c60a483015260c4820152600060e4820152731E26533D45EBf5147Da62cA0E9C7875798F5632490637de8f56990610104016040805180830381865af4158015613987573d6000803e3d6000fd5b505050506040513d601f19601f820116820180604052508101906139ab9190614596565b909890975095505050505050565b60606139c884846000856139d0565b949350505050565b606082471015613a315760405162461bcd60e51b815260206004820152602660248201527f416464726573733a20696e73756666696369656e742062616c616e636520666f6044820152651c8818d85b1b60d21b60648201526084016104d6565b600080866001600160a01b03168587604051613a4d91906144be565b60006040518083038185875af1925050503d8060008114613a8a576040519150601f19603f3d011682016040523d82523d6000602084013e613a8f565b606091505b5091509150613aa087838387613aab565b979650505050505050565b60608315613b1a578251600003613b13576001600160a01b0385163b613b135760405162461bcd60e51b815260206004820152601d60248201527f416464726573733a2063616c6c20746f206e6f6e2d636f6e747261637400000060448201526064016104d6565b50816139c8565b6139c88383815115613b2f5781518083602001fd5b8060405162461bcd60e51b81526004016104d69190613bec565b8260048101928215613b77579160200282015b82811115613b77578251825591602001919060010190613b5c565b50613b83929150613b87565b5090565b5b80821115613b835760008155600101613b88565b60005b83811015613bb7578181015183820152602001613b9f565b50506000910152565b60008151808452613bd8816020860160208601613b9c565b601f01601f19169290920160200192915050565b6020815260006128e06020830184613bc0565b634e487b7160e01b600052604160045260246000fd5b604051608081016001600160401b0381118282101715613c3757613c37613bff565b60405290565b604080519081016001600160401b0381118282101715613c3757613c37613bff565b604051601f8201601f191681016001600160401b0381118282101715613c8757613c87613bff565b604052919050565b60008060a08385031215613ca257600080fd5b82359150602084603f850112613cb757600080fd5b604051608081018181106001600160401b0382111715613cd957613cd9613bff565b6040528060a0860187811115613cee57600080fd5b8387015b81811015613d095780358352918401918401613cf2565b50505080925050509250929050565b6001600160a01b0381168114613d2d57600080fd5b50565b8035613d3b81613d18565b919050565b600082601f830112613d5157600080fd5b613d59613c3d565b806040840185811115613d6b57600080fd5b845b81811015613d8e578035613d8081613d18565b845260209384019301613d6d565b509095945050505050565b60006001600160401b03821115613db257613db2613bff565b5060051b60200190565b600082601f830112613dcd57600080fd5b81356020613de2613ddd83613d99565b613c5f565b82815260059290921b84018101918181019086841115613e0157600080fd5b8286015b84811015613e25578035613e1881613d18565b8352918301918301613e05565b509695505050505050565b600082601f830112613e4157600080fd5b81356020613e51613ddd83613d99565b82815260059290921b84018101918181019086841115613e7057600080fd5b8286015b84811015613e255780358352918301918301613e74565b600082601f830112613e9c57600080fd5b613ea4613c3d565b806040840185811115613eb657600080fd5b845b81811015613d8e578035845260209384019301613eb8565b6000806000806000806101008789031215613eea57600080fd5b613ef48888613d40565b955060408701356001600160401b0380821115613f1057600080fd5b613f1c8a838b01613dbc565b96506060890135915080821115613f3257600080fd5b613f3e8a838b01613e30565b95506080890135915080821115613f5457600080fd5b50613f6189828a01613e30565b93505060a08701359150613f788860c08901613e8b565b90509295509295509295565b600060208284031215613f9657600080fd5b5035919050565b60008060408385031215613fb057600080fd5b82359150602083013560048110613fc657600080fd5b809150509250929050565b60006001600160401b03821115613fea57613fea613bff565b50601f01601f191660200190565b600082601f83011261400957600080fd5b8135614017613ddd82613fd1565b81815284602083860101111561402c57600080fd5b816020850160208301376000918101602001919091529392505050565b8015158114613d2d57600080fd5b8035613d3b81614049565b6000806000806000806000806000806101808b8d03121561408257600080fd5b61408c8c8c613d40565b995060408b01356001600160401b03808211156140a857600080fd5b6140b48e838f01613dbc565b9a5060608d01359150808211156140ca57600080fd5b6140d68e838f01613e30565b99506140e460808e01613d30565b985060a08d013597506140f960c08e01613d30565b965060e08d013591508082111561410f57600080fd5b5061411c8d828e01613ff8565b94505061412c6101008c01614057565b92506101208b013591506141448c6101408d01613e8b565b90509295989b9194979a5092959850565b634e487b7160e01b600052603260045260246000fd5b60808101818360005b6004811015614193578151835260209283019290910190600101614174565b50505092915050565b6000602082840312156141ae57600080fd5b5051919050565b634e487b7160e01b600052601160045260246000fd5b81810381811115610790576107906141b5565b600181815b808511156142195781600019048211156141ff576141ff6141b5565b8085161561420c57918102915b93841c93908002906141e3565b509250929050565b60008261423057506001610790565b8161423d57506000610790565b8160018114614253576002811461425d57614279565b6001915050610790565b60ff84111561426e5761426e6141b5565b50506001821b610790565b5060208310610133831016604e8410600b841016171561429c575081810a610790565b6142a683836141de565b80600019048211156142ba576142ba6141b5565b029392505050565b60006128e08383614221565b634e487b7160e01b600052602160045260246000fd5b6000602082840312156142f657600080fd5b81516128e081613d18565b60006020828403121561431357600080fd5b815160ff811681146128e057600080fd5b60006128e060ff841683614221565b6001600160a01b0391909116815260200190565b600081518084526020808501945080840160005b838110156143805781516001600160a01b03168752958201959082019060010161435b565b509495945050505050565b600081518084526020808501945080840160005b838110156143805781518752958201959082019060010161439f565b8060005b60078110156121295781518452602093840193909101906001016143bf565b60006101c0828a835b600281101561440f5781516001600160a01b03168352602092830192909101906001016143e7565b5050508060408401526144248184018a614347565b90508281036060840152614438818961438b565b9050828103608084015261444c818861438b565b905082810360a0840152614460818761438b565b905082810360c0840152614474818661438b565b91505061448460e08301846143bb565b98975050505050505050565b6000806000606084860312156144a557600080fd5b8351925060208401519150604084015190509250925092565b600082516144d0818460208701613b9c565b9190910192915050565b6001600160a01b03958616815260208101949094529190931660408301526060820192909252608081019190915260a00190565b60006020828403121561452057600080fd5b81516128e081614049565b8082028115828204841417610790576107906141b5565b634e487b7160e01b600052601260045260246000fd5b60008261456757614567614542565b500490565b6001600160a01b039485168152928416602084015292166040820152901515606082015260800190565b600080604083850312156145a957600080fd5b505080516020909101519092909150565b80820180821115610790576107906141b5565b80820182811260008312801582168215821617156145ed576145ed6141b5565b505092915050565b8181036000831280158383131683831282161715614615576146156141b5565b5092915050565b60008261462b5761462b614542565b600160ff1b821460001984141615614645576146456141b5565b500590565b600082601f83011261465b57600080fd5b8151614669613ddd82613fd1565b81815284602083860101111561467e57600080fd5b6139c8826020830160208701613b9c565b60008060408084860312156146a357600080fd5b83516001600160401b03808211156146ba57600080fd5b818601915086601f8301126146ce57600080fd5b815160206146de613ddd83613d99565b82815260079290921b8401810191818101908a8411156146fd57600080fd5b948201945b83861015614777576080868c03121561471b5760008081fd5b614723613c15565b865161472e81613d18565b81528684015161473d81613d18565b818501528688015161474e81613d18565b8189015260608781015161476181613d18565b9082015282526080959095019490820190614702565b9189015191975090945050508083111561479057600080fd5b505061479e8582860161464a565b9150509250929050565b600080600080608085870312156147be57600080fd5b505082516020840151604085015160609095015191969095509092509050565b6060808252845182820181905260009190608090818501906020808a01865b8381101561484557815180516001600160a01b0390811687528482015181168588015260408083015182169088015290880151168786015293850193908201906001016147fd565b50508601979097526040909401949094525090949350505050565b600060018060a01b03808916835260c0602084015261488260c0840189613bc0565b9681166040840152949094166060820152608081019290925260a090910152509291505056fe5042532d3420496e636f727265637420726562616c616e63655469636b52616e6765a2646970667358221220ec9f3c94cbe11cd6b54d68559c99a36e1ad4421486b4109ef61fd7103053650964736f6c63430008110033",
  "deployedBytecode": "0x73000000000000000000000000000000000000000030146080604052600436106102475760003560e01c8063767e17e811610145578063c143e087116100c2578063d7a1d53511610086578063d7a1d535146102f9578063e0c24b3a1461043f578063e642319514610447578063ec88f9ff146102a2578063f7ebc365146102a257600080fd5b8063c143e08714610324578063c63891c7146102a2578063c8ce726c146102f1578063cdb549351461042f578063d3a9335c1461043757600080fd5b8063a200f62b11610109578063a200f62b146102f1578063a7231ef6146103eb578063aea02d91146103f3578063c00d3e0b146102f9578063c06ab65f146103fb57600080fd5b8063767e17e8146102f1578063831fd9ea146103245780638f875cc814610324578063927154f0146103b85780639c2d8d63146102f957600080fd5b806337d11dc1116101d357806360339c591161019757806360339c59146102f9578063603938b814610324578063673d63db1461032c5780636bffb346146103685780637545be261461038857600080fd5b806337d11dc1146102f957806343fc304a1461030157806346326a2914610309578063556ce728146103115780635be05524146102f157600080fd5b8063137c52b21161021a578063137c52b2146102a25780631429888b146102aa57806314ad109e146102b2578063217052d1146102a257806335f33bc2146102f157600080fd5b8063058ba3db1461024c5780630593c4c91461026a5780631033193e1461028c5780631200fb3c146102a2575b600080fd5b61025461044f565b6040516102619190613bec565b60405180910390f35b81801561027657600080fd5b5061028a610285366004613c8f565b61046b565b005b610294600981565b604051908152602001610261565b610294600181565b610294600781565b8180156102be57600080fd5b506102d26102cd366004613ed0565b610607565b604080516001600160a01b039093168352602083019190915201610261565b610294600281565b610294600081565b610294600c81565b610294600a81565b61029461031f366004613f84565b610769565b610294600381565b6102546040518060400160405280601981526020017f5042532d3320496e636f7272656374207469636b52616e67650000000000000081525081565b81801561037457600080fd5b5061028a610383366004613f9d565b610796565b81801561039457600080fd5b506103a86103a3366004614062565b6107fa565b6040519015158152602001610261565b610254604051806040016040528060148152602001732821299698902ab735b737bbb7103937baba32b960611b81525081565b610294600b81565b610294600581565b61025460405180604001604052806015815260200174141094cb4d48125b98dbdc9c9958dd08185cdcd95d605a1b81525081565b610294606481565b610294600481565b610294600681565b610294600881565b6040518060600160405280602281526020016148a96022913981565b805115801561047c57506020810151155b8061048c57506020810151815111155b6040518060400160405280601381526020017254532d333020696e76616c69642076616c756560681b815250906104df5760405162461bcd60e51b81526004016104d69190613bec565b60405180910390fd5b5060408101511580156104f457506060810151155b8061050757506060810151604082015110155b6040518060400160405280601381526020017254532d333020696e76616c69642076616c756560681b815250906105515760405162461bcd60e51b81526004016104d69190613bec565b508051158015906105655750604081015115155b156105bc5780516040808301518151808301909252601382527254532d333020696e76616c69642076616c756560681b60208301529091106105ba5760405162461bcd60e51b81526004016104d69190613bec565b505b6105cb60018301826004613b49565b507fef6880b7ef7308e1a0fdc54890042b9fc1d2355795cd67a12c76d38438e643b5816040516105fb919061416b565b60405180910390a15050565b600080808061062761061f8b835b60200201516109c7565b8a6002610a8c565b9150915060006040518061016001604052808c60006002811061064c5761064c614155565b60200201516001600160a01b031681526020018c60016002811061067257610672614155565b60200201516001600160a01b031681526020018b81526020018a8152602001848152602001838152602001898152602001888152602001600019886000600281106106bf576106bf614155565b6020020151146106d0578751610732565b306001600160a01b0316634ba31b016040518163ffffffff1660e01b8152600401602060405180830381865afa15801561070e573d6000803e3d6000fd5b505050506040513d601f19601f82011682018060405250810190610732919061419c565b8152875160001914602082015260400187600160200201519052905061075781610c7a565b94509450505050965096945050505050565b60006012821061077a576001610790565b6107858260126141cb565b61079090600a6142c2565b92915050565b81548190839060ff191660018360038111156107b4576107b46142ce565b02179055507f5a7ee3c5ef7f4e3625ee638c3a95481dc4cbfaceda022d1e8fba8ed7fa2208e18160038111156107ec576107ec6142ce565b6040519081526020016105fb565b6000808061081361080b8e83610615565b8d6002610a8c565b9150915060006040518061016001604052808f60006002811061083857610838614155565b60200201516001600160a01b031681526020018f60016002811061085e5761085e614155565b60200201516001600160a01b031681526020018e81526020018d815260200184815260200183815260200160026001600160401b038111156108a2576108a2613bff565b6040519080825280602002602001820160405280156108cb578160200160208202803683370190505b508152602081018890528651604090910190600019146108ec57865161094e565b306001600160a01b0316634ba31b016040518163ffffffff1660e01b8152600401602060405180830381865afa15801561092a573d6000803e3d6000fd5b505050506040513d601f19601f8201168201806040525081019061094e919061419c565b815286516000191460208201526040018660016020020151815250905060006040518060a0016040528089151581526020018d6001600160a01b031681526020018b6001600160a01b031681526020018c81526020018a81525090506109b48282610ded565b9f9e505050505050505050505050505050565b6000816001600160a01b031663f77c47916040518163ffffffff1660e01b8152600401602060405180830381865afa158015610a07573d6000803e3d6000fd5b505050506040513d601f19601f82011682018060405250810190610a2b91906142e4565b6001600160a01b0316632630c12f6040518163ffffffff1660e01b8152600401602060405180830381865afa158015610a68573d6000803e3d6000fd5b505050506040513d601f19601f8201168201806040525081019061079091906142e4565b606080826001600160401b03811115610aa757610aa7613bff565b604051908082528060200260200182016040528015610ad0578160200160208202803683370190505b509150826001600160401b03811115610aeb57610aeb613bff565b604051908082528060200260200182016040528015610b14578160200160208202803683370190505b50905060005b83811015610c7157848181518110610b3457610b34614155565b60200260200101516001600160a01b031663313ce5676040518163ffffffff1660e01b8152600401602060405180830381865afa158015610b79573d6000803e3d6000fd5b505050506040513d601f19601f82011682018060405250810190610b9d9190614301565b610ba890600a614324565b828281518110610bba57610bba614155565b602002602001018181525050856001600160a01b031663b3596f07868381518110610be757610be7614155565b60200260200101516040518263ffffffff1660e01b8152600401610c0b9190614333565b602060405180830381865afa158015610c28573d6000803e3d6000fd5b505050506040513d601f19601f82011682018060405250810190610c4c919061419c565b838281518110610c5e57610c5e614155565b6020908102919091010152600101610b1a565b50935093915050565b600080600073__$c47fce1b4718dfd79949bdda1ff0df9edc$__632be98102604051806040016040528087600001516001600160a01b03166001600160a01b0316815260200187602001516001600160a01b03166001600160a01b03168152508660400151876060015188608001518960a001518a60c001516040518060e001604052808d6101200151610d0f576000610d12565b60015b60ff1681526020018d60e0015181526020018d61010001518152602001600019815260200160008152602001600181526020018d61014001518152506040518863ffffffff1660e01b8152600401610d7097969594939291906143de565b606060405180830381865af4158015610d8d573d6000803e3d6000fd5b505050506040513d601f19601f82011682018060405250810190610db19190614490565b50925090508015610de7576040840151610dcc6001836141cb565b81518110610ddc57610ddc614155565b602002602001015192505b50915091565b60008060008073__$c47fce1b4718dfd79949bdda1ff0df9edc$__632be98102604051806040016040528089600001516001600160a01b03166001600160a01b0316815260200189602001516001600160a01b03166001600160a01b0316815250886040015189606001518a608001518b60a001518c60c001516040518060e001604052808f6101200151610e83576000610e86565b60015b60ff1681526020018f60e0015181526020018f61010001518152602001600019815260200160008152602001600181526020018f61014001518152506040518863ffffffff1660e01b8152600401610ee497969594939291906143de565b606060405180830381865af4158015610f01573d6000803e3d6000fd5b505050506040513d601f19601f82011682018060405250810190610f259190614490565b9250925092506000604051806080016040528060028960e001511480610f4d575060e0890151155b15151515815260200160018960e001511480610f6b575060e0890151155b1515815260e0890180516001908114602084015290511460409091015290508315801590610f97575080515b15610fd657610fce8787610fac6001886141cb565b6000610fb960018a6141cb565b14610fc5576000610fc8565b60015b87611260565b610100890152505b8115801590610fe6575060208101515b156110f457865160408801516110f0919060006110046001876141cb565b14611010576000611013565b60015b8151811061102357611023614155565b6020026020010151896040015160018661103d91906141cb565b8151811061104d5761104d614155565b60200260200101518a6040015160018761106791906141cb565b8151811061107757611077614155565b60200260200101516001600160a01b03166370a08231306040518263ffffffff1660e01b81526004016110aa9190614333565b602060405180830381865afa1580156110c7573d6000803e3d6000fd5b505050506040513d601f19601f820116820180604052508101906110eb919061419c565b6118b0565b5050505b83156112555760408101511561120e576111148787610fac6001886141cb565b610100890152506060810151801561112b57508115155b156112095760008061116289826111436001886141cb565b1461114f576000611152565b60015b61115d6001886141cb565b611a74565b9150915080156111a35761119e8961117b6001876141cb565b60006111886001896141cb565b14611194576000611197565b60015b6001612009565b611206565b60608901516111b36001866141cb565b815181106111c3576111c3614155565b6020026020010151821115611206576112068960006111e36001886141cb565b146111ef5760006111f2565b60015b6111fd6001886141cb565b8560001961212f565b50505b611255565b8115801561121e57508661012001515b801561122e575061010087015115155b80156112475750866101000151670de0b6b3a764000014155b156112555761125587612409565b501595945050505050565b600080856000015161127457856060015192505b855160009061128757866040015161128d565b87602001515b9050876040015186815181106112a5576112a5614155565b60200260200101516001600160a01b03166370a08231306040518263ffffffff1660e01b81526004016112d89190614333565b602060405180830381865afa1580156112f5573d6000803e3d6000fd5b505050506040513d601f19601f82011682018060405250810190611319919061419c565b8411156040518060400160405280601781526020017654532d37206e6f7420656e6f7567682062616c616e636560481b8152509061136a5760405162461bcd60e51b81526004016104d69190613bec565b508760400151868151811061138157611381614155565b60200260200101516001600160a01b031687602001516001600160a01b0316146040518060400160405280601181526020017054532d323520737761702062792061676760781b815250906113e95760405162461bcd60e51b81526004016104d69190613bec565b508760600151868151811061140057611400614155565b6020026020010151841115611828576114378860400151878151811061142857611428614155565b602002602001015185836125ec565b600061145f8960400151878151811061145257611452614155565b6020026020010151612697565b8851909150156114df576114d78960000151838b604001518a8151811061148857611488614155565b60200260200101518c604001518a815181106114a6576114a6614155565b60200260200101518961012c8f606001518e815181106114c8576114c8614155565b60200260200101516001612707565b509350611592565b88602001516001600160a01b0316826001600160a01b0316146115055761150582612812565b600080836001600160a01b03168a6080015160405161152491906144be565b6000604051808303816000865af19150503d8060008114611561576040519150601f19603f3d011682016040523d82523d6000602084013e611566565b606091505b509150915081819061158b5760405162461bcd60e51b81526004016104d69190613bec565b5086955050505b88600001516001600160a01b031663291f89c48a6040015189815181106115bb576115bb614155565b6020026020010151878c604001518a815181106115da576115da614155565b6020026020010151856115fc8f604001518d8151811061145257611452614155565b61160691906141cb565b61012c6040518663ffffffff1660e01b81526004016116299594939291906144da565b602060405180830381865afa158015611646573d6000803e3d6000fd5b505050506040513d601f19601f8201168201806040525081019061166a919061450e565b604051806040016040528060128152602001711514cb4c4d881c1c9a58d9481a5b5c1858dd60721b815250906116b35760405162461bcd60e51b81526004016104d69190613bec565b507f650da787b25801954b4e03c78b9c6b07fddcbda246347411c49d282c7225f592886060015186836116f58d604001518b8151811061145257611452614155565b6116ff91906141cb565b8c60a001518b8151811061171557611715614155565b60200260200101518d608001518b8151811061173357611733614155565b60200260200101518e60a001518c8151811061175157611751614155565b60200260200101518f608001518e8151811061176f5761176f614155565b60200260200101518c611782919061452b565b61178c919061452b565b6117969190614558565b6117a09190614558565b868e604001518d815181106117b7576117b7614155565b60200260200101518f604001518d815181106117d5576117d5614155565b602090810291909101810151604080519889529188019690965286019390935260608501919091526001600160a01b03908116608085015290811660a08401521660c082015260e00160405180910390a1505b8288610120015161183e578861010001516118a0565b306001600160a01b0316634ba31b016040518163ffffffff1660e01b8152600401602060405180830381865afa15801561187c573d6000803e3d6000fd5b505050506040513d601f19601f820116820180604052508101906118a0919061419c565b92509250505b9550959350505050565b600080600080856001600160a01b03166370a08231306040518263ffffffff1660e01b81526004016118e29190614333565b602060405180830381865afa1580156118ff573d6000803e3d6000fd5b505050506040513d601f19601f82011682018060405250810190611923919061419c565b90506000886001600160a01b031663dd27ede7308a8a60016040518563ffffffff1660e01b815260040161195a949392919061456c565b60408051808303816000875af1158015611978573d6000803e3d6000fd5b505050506040513d601f19601f8201168201806040525081019061199c9190614596565b5090506119b78187106119af57816119b1565b865b836128cf565b60405163667df24960e01b81523060048201526001600160a01b038a811660248301528981166044830152606482018390529194506000918b169063667df2499060840160408051808303816000875af1158015611a19573d6000803e3d6000fd5b505050506040513d601f19601f82011682018060405250810190611a3d9190614596565b909650905080861115611a5757611a5481876141cb565b95505b611a648a8a8a87876128e7565b9550505050509450945094915050565b600080611ab06040518060c001604052806000815260200160008152602001600081526020016000815260200160008152602001600081525090565b8560a001518581518110611ac657611ac6614155565b602002602001015186608001518681518110611ae457611ae4614155565b602002602001015187604001518781518110611b0257611b02614155565b60200260200101516001600160a01b03166370a08231306040518263ffffffff1660e01b8152600401611b359190614333565b602060405180830381865afa158015611b52573d6000803e3d6000fd5b505050506040513d601f19601f82011682018060405250810190611b76919061419c565b611b80919061452b565b611b8a9190614558565b604082015260a0860151805185908110611ba657611ba6614155565b602002602001015186608001518581518110611bc457611bc4614155565b602002602001015187604001518681518110611be257611be2614155565b60200260200101516001600160a01b03166370a08231306040518263ffffffff1660e01b8152600401611c159190614333565b602060405180830381865afa158015611c32573d6000803e3d6000fd5b505050506040513d601f19601f82011682018060405250810190611c56919061419c565b611c60919061452b565b611c6a9190614558565b60608201528415611c8057856101000151611c98565b610100860151611c9890670de0b6b3a76400006141cb565b81528415611cbd57610100860151611cb890670de0b6b3a76400006141cb565b611cc4565b8561010001515b602082015260a0860151805186908110611ce057611ce0614155565b602002602001015186608001518581518110611cfe57611cfe614155565b60200260200101518760a001518681518110611d1c57611d1c614155565b602002602001015188608001518881518110611d3a57611d3a614155565b6020026020010151611d4c919061452b565b611d5e90670de0b6b3a764000061452b565b611d689190614558565b611d729190614558565b81608001818152505060008087600001516001600160a01b031663e4c2be70308a604001518a81518110611da857611da8614155565b60200260200101518b604001518a81518110611dc657611dc6614155565b602002602001015160016040518563ffffffff1660e01b8152600401611def949392919061456c565b6040805180830381865afa158015611e0b573d6000803e3d6000fd5b505050506040513d601f19601f82011682018060405250810190611e2f9190614596565b9150915081600003611f0f5760208301518351600091611e4e916145ba565b845160608601516040870151611e6491906145ba565b611e6e919061452b565b611e789190614558565b9050836040015181118015611f0757508860a001518881518110611e9e57611e9e614155565b602002602001015189608001518981518110611ebc57611ebc614155565b60200260200101518a606001518a81518110611eda57611eda614155565b6020026020010151611eec919061452b565b611ef69190614558565b6040850151611f0590836141cb565b115b945050611fab565b8260000151670de0b6b3a7640000838386608001518760200151611f33919061452b565b611f3d919061452b565b611f479190614558565b611f519190614558565b611f5b91906145cd565b83604001518460200151611f6f919061452b565b60608501518551611f80919061452b565b611f8a91906145f5565b611f94919061461c565b60a0840181905260001215611fab578260a0015194505b87608001518681518110611fc157611fc1614155565b60200260200101518860a001518781518110611fdf57611fdf614155565b602002602001015186611ff2919061452b565b611ffc9190614558565b9450505050935093915050565b6121298484848760400151878151811061202557612025614155565b60200260200101516001600160a01b03166370a08231306040518263ffffffff1660e01b81526004016120589190614333565b602060405180830381865afa158015612075573d6000803e3d6000fd5b505050506040513d601f19601f82011682018060405250810190612099919061419c565b886040015187815181106120af576120af614155565b60200260200101516001600160a01b03166370a08231306040518263ffffffff1660e01b81526004016120e29190614333565b602060405180830381865afa1580156120ff573d6000803e3d6000fd5b505050506040513d601f19601f82011682018060405250810190612123919061419c565b86612ad0565b50505050565b60008560400151848151811061214757612147614155565b60200260200101516001600160a01b03166370a08231306040518263ffffffff1660e01b815260040161217a9190614333565b602060405180830381865afa158015612197573d6000803e3d6000fd5b505050506040513d601f19601f820116820180604052508101906121bb919061419c565b90506122078660000151876040015187815181106121db576121db614155565b6020026020010151886040015187815181106121f9576121f9614155565b6020026020010151866118b0565b50505060008660400151858151811061222257612222614155565b60200260200101516001600160a01b03166370a08231306040518263ffffffff1660e01b81526004016122559190614333565b602060405180830381865afa158015612272573d6000803e3d6000fd5b505050506040513d601f19601f82011682018060405250810190612296919061419c565b905060008183116122a85760006122b2565b6122b282846141cb565b905084811080156122ea5750876060015186815181106122d4576122d4614155565b602002602001015181866122e891906141cb565b115b156123ff57600088600001516001600160a01b031663e4c2be70308b604001518b8151811061231b5761231b614155565b60200260200101518c604001518b8151811061233957612339614155565b602002602001015160016040518563ffffffff1660e01b8152600401612362949392919061456c565b6040805180830381865afa15801561237e573d6000803e3d6000fd5b505050506040513d601f19601f820116820180604052508101906123a29190614596565b509050886060015187815181106123bb576123bb614155565b6020026020010151811180156123d057508481105b156123f0576123eb8989896123e5868b6141cb565b8561212f565b6123fd565b6123fd89888a6000612009565b505b5050505050505050565b6000816040015160008151811061242257612422614155565b60200260200101516001600160a01b03166370a08231306040518263ffffffff1660e01b81526004016124559190614333565b602060405180830381865afa158015612472573d6000803e3d6000fd5b505050506040513d601f19601f82011682018060405250810190612496919061419c565b9050600082604001516001815181106124b1576124b1614155565b60200260200101516001600160a01b03166370a08231306040518263ffffffff1660e01b81526004016124e49190614333565b602060405180830381865afa158015612501573d6000803e3d6000fd5b505050506040513d601f19601f82011682018060405250810190612525919061419c565b905060008061254885608001518660a00151868689610100015160006001612df3565b915091508184111561259b57846060015160008151811061256b5761256b614155565b6020026020010151828561257f91906141cb565b111561259657612596856000600187876001612ad0565b6125e5565b808311156125e55784606001516000815181106125ba576125ba614155565b602002602001015181846125ce91906141cb565b11156125e5576125e5856001600086886001612ad0565b5050505050565b604051636eb1769f60e11b81523060048201526001600160a01b03828116602483015283919085169063dd62ed3e90604401602060405180830381865afa15801561263b573d6000803e3d6000fd5b505050506040513d601f19601f8201168201806040525081019061265f919061419c565b10156126925761267a6001600160a01b038416826000612f82565b6126926001600160a01b03841682600160ff1b612f82565b505050565b6040516370a0823160e01b81526000906001600160a01b038316906370a08231906126c6903090600401614333565b602060405180830381865afa1580156126e3573d6000803e3d6000fd5b505050506040513d601f19601f82011682018060405250810190610790919061419c565b60008083861161271c57506000905080612805565b604051633744088160e11b81526001600160a01b0389811660048301528881166024830152600091908b1690636e88110290604401600060405180830381865afa15801561276e573d6000803e3d6000fd5b505050506040513d6000823e601f3d908101601f19168201604052612796919081019061468f565b50805160408051808201909152601a81527f54532d3135204e6f206c69717569646174696f6e20726f75746500000000000060208201529192506127ed5760405162461bcd60e51b81526004016104d69190613bec565b50866127ff8c838d8d8d8d8d8c6130ca565b92509250505b9850989650505050505050565b6001600160a01b038116731111111254eeb25477b68fb85ed929f73a960582148061285957506001600160a01b038116736352a56caadc4f1e25cd6c75970fa768a3304e64145b8061288057506001600160a01b038116736dd434082eab5cd134b33719ec1ff05fe985b97b145b604051806040016040528060148152602001732821299698902ab735b737bbb7103937baba32b960611b815250906128cb5760405162461bcd60e51b81526004016104d69190613bec565b5050565b60008183106128de57816128e0565b825b9392505050565b600080606484106118a6576129066001600160a01b03861688866133a8565b6040516314b685e960e21b81526001600160a01b038781166004830152868116602483015260448201869052306064830152600091908916906352da17a4906084016080604051808303816000875af1158015612967573d6000803e3d6000fd5b505050506040513d601f19601f8201168201806040525081019061298b91906147a8565b5050604080516001600160a01b03808c1682528a1660208201529081018890523060608201526080810183905260a0810182905291945091507f1d1ba11e7ca20f5dc77d8cfd75b68d11520677808f89f6ba0f0e50dc52c450129060c00160405180910390a16040516370a0823160e01b81526000906001600160a01b038816906370a0823190612a20903090600401614333565b602060405180830381865afa158015612a3d573d6000803e3d6000fd5b505050506040513d601f19601f82011682018060405250810190612a61919061419c565b9050808511612a71576000612a7b565b612a7b81866141cb565b60408051808201909152600f81526e53423a2057726f6e672076616c756560881b60208201529093508215612ac35760405162461bcd60e51b81526004016104d69190613bec565b5050509550959350505050565b8015612be757600086600001516001600160a01b031663e4c2be703089604001518881518110612b0257612b02614155565b60200260200101518a604001518a81518110612b2057612b20614155565b602002602001015160006040518563ffffffff1660e01b8152600401612b49949392919061456c565b6040805180830381865afa158015612b65573d6000803e3d6000fd5b505050506040513d601f19601f82011682018060405250810190612b899190614596565b509050606481106040518060400160405280601a81526020017f54532d3239206f70706f7369746520646562742065786973747300000000000081525090612be45760405162461bcd60e51b81526004016104d69190613bec565b50505b600060405180610160016040528060405180604001604052808a600001516001600160a01b031681526020018a602001516001600160a01b0316815250815260200188604001518881518110612c3f57612c3f614155565b60200260200101516001600160a01b0316815260200188604001518781518110612c6b57612c6b614155565b60200260200101516001600160a01b0316815260200160008814612c9457886101000151612cac565b610100890151612cac90670de0b6b3a76400006141cb565b81526020018715612cd457610100890151612ccf90670de0b6b3a76400006141cb565b612cdb565b8861010001515b81526020018860a001518781518110612cf657612cf6614155565b602002602001015189608001518981518110612d1457612d14614155565b60200260200101518a60a001518a81518110612d3257612d32614155565b60200260200101518b608001518a81518110612d5057612d50614155565b6020026020010151670de0b6b3a7640000612d6b919061452b565b612d75919061452b565b612d7f9190614558565b612d899190614558565b815260200188606001518881518110612da457612da4614155565b6020026020010151815260200160008152602001600081526020018781526020018681525090506123fd8160405180604001604052808a6080015181526020018a60a0015181525086866133d8565b6000806000888581518110612e0a57612e0a614155565b60200260200101518a8681518110612e2457612e24614155565b602002602001015189612e37919061452b565b612e419190614558565b90506000898581518110612e5757612e57614155565b60200260200101518b8681518110612e7157612e71614155565b602002602001015189612e84919061452b565b612e8e9190614558565b90508615612ec357670de0b6b3a764000087612eaa83856145ba565b612eb4919061452b565b612ebe9190614558565b612ec6565b60005b92508a8681518110612eda57612eda614155565b60200260200101518a8781518110612ef457612ef4614155565b6020026020010151848385612f0991906145ba565b612f1391906141cb565b612f1d919061452b565b612f279190614558565b93508a8581518110612f3b57612f3b614155565b60200260200101518a8681518110612f5557612f55614155565b602002602001015184612f68919061452b565b612f729190614558565b9250505097509795505050505050565b801580612ffc5750604051636eb1769f60e11b81523060048201526001600160a01b03838116602483015284169063dd62ed3e90604401602060405180830381865afa158015612fd6573d6000803e3d6000fd5b505050506040513d601f19601f82011682018060405250810190612ffa919061419c565b155b6130675760405162461bcd60e51b815260206004820152603660248201527f5361666545524332303a20617070726f76652066726f6d206e6f6e2d7a65726f60448201527520746f206e6f6e2d7a65726f20616c6c6f77616e636560501b60648201526084016104d6565b6040516001600160a01b03831660248201526044810182905261269290849063095ea7b360e01b906064015b60408051601f198184030181529190526020810180516001600160e01b03166001600160e01b031990931692909217909152613545565b60006130d78685896125ec565b6040516370a0823160e01b81526000906001600160a01b038716906370a0823190613106903090600401614333565b602060405180830381865afa158015613123573d6000803e3d6000fd5b505050506040513d601f19601f82011682018060405250810190613147919061419c565b6040516310fe133960e31b81529091506001600160a01b038916906387f099c89061317a908c90899089906004016147de565b600060405180830381600087803b15801561319457600080fd5b505af11580156131a8573d6000803e3d6000fd5b50506040516370a0823160e01b8152600092506001600160a01b03891691506370a08231906131db903090600401614333565b602060405180830381865afa1580156131f8573d6000803e3d6000fd5b505050506040513d601f19601f8201168201806040525081019061321c919061419c565b90508181116040518060400160405280601681526020017554532d32302062616c616e636520646563726561736560501b8152509061326e5760405162461bcd60e51b81526004016104d69190613bec565b5061327982826141cb565b925083806132f75750604051630a47e27160e21b81526001600160a01b038c169063291f89c4906132b6908b908a908c9089908c906004016144da565b602060405180830381865afa1580156132d3573d6000803e3d6000fd5b505050506040513d601f19601f820116820180604052508101906132f7919061450e565b604051806040016040528060128152602001711514cb4c4d881c1c9a58d9481a5b5c1858dd60721b815250906133405760405162461bcd60e51b81526004016104d69190613bec565b50604080516001600160a01b03808b1682528916602082015290810187905260608101879052608081018490527f5a821a618ddb1a1fd304234a69c9d7f20c129d122fcf35593d13a071926643079060a00160405180910390a1505098975050505050505050565b6040516001600160a01b03831660248201526044810182905261269290849063a9059cbb60e01b90606401613093565b6000808560e00151600014806133f15750610100860151155b6040518060400160405280601381526020017254532d333020696e76616c69642076616c756560681b8152509061343b5760405162461bcd60e51b81526004016104d69190613bec565b50610100860151156134b65785610100015183106134775761346e86858861010001518661346991906141cb565b613617565b9150915061353c565b6000613495878787878b610100015161349091906141cb565b6137b0565b5090506134ac876134a683886141cb565b86613617565b925092505061353c565b60e086015115613531578560e001518410156040518060400160405280601781526020017654532d37206e6f7420656e6f7567682062616c616e636560481b815250906135165760405162461bcd60e51b81526004016104d69190613bec565b5061346e868760e001518661352b91906141cb565b85613617565b61346e868585613617565b94509492505050565b600061359a826040518060400160405280602081526020017f5361666545524332303a206c6f772d6c6576656c2063616c6c206661696c6564815250856001600160a01b03166139b99092919063ffffffff16565b80519091501561269257808060200190518101906135b8919061450e565b6126925760405162461bcd60e51b815260206004820152602a60248201527f5361666545524332303a204552433230206f7065726174696f6e20646964206e6044820152691bdd081cdd58d8d9595960b21b60648201526084016104d6565b6060838101516080808601516040805160016020820152808201949094528385019190915280518084039094018452910190526000908190819084156136e757670de0b6b3a7640000876080015188606001518960a001518861367a919061452b565b613684919061452b565b61368e9190614558565b6136989190614558565b9150858211156040518060400160405280601081526020016f54532d392077726f6e672076616c756560801b815250906136e55760405162461bcd60e51b81526004016104d69190613bec565b505b6020870151613702906136fa84896141cb565b8951516125ec565b73__$e930d50fb5f4f1298547dbcb2bb0591990$__63ca27d10d886000015160000151838a602001518b60400151878c61373c91906141cb565b8d60c001516040518763ffffffff1660e01b815260040161376296959493929190614860565b6040805180830381865af415801561377e573d6000803e3d6000fd5b505050506040513d601f19601f820116820180604052508101906137a29190614596565b935093505050935093915050565b60008060008560200151876101400151815181106137d0576137d0614155565b60200260200101518660000151886101200151815181106137f3576137f3614155565b602002602001015187602001518961012001518151811061381657613816614155565b602002602001015188600001518a61014001518151811061383957613839614155565b60200260200101518761384c919061452b565b613856919061452b565b6138609190614558565b61386a9190614558565b9050620186a061387c61012c826145ba565b613886908361452b565b6138909190614558565b90508085116040518060400160405280601781526020017654532d37206e6f7420656e6f7567682062616c616e636560481b815250906138e35760405162461bcd60e51b81526004016104d69190613bec565b5086518051602091820151918901516040808b015160c08c01519151637de8f56960e01b81526001600160a01b03948516600482015294841660248601529183166044850152911660648301526084820183905261012c60a483015260c4820152600060e482015273__$e930d50fb5f4f1298547dbcb2bb0591990$__90637de8f56990610104016040805180830381865af4158015613987573d6000803e3d6000fd5b505050506040513d601f19601f820116820180604052508101906139ab9190614596565b909890975095505050505050565b60606139c884846000856139d0565b949350505050565b606082471015613a315760405162461bcd60e51b815260206004820152602660248201527f416464726573733a20696e73756666696369656e742062616c616e636520666f6044820152651c8818d85b1b60d21b60648201526084016104d6565b600080866001600160a01b03168587604051613a4d91906144be565b60006040518083038185875af1925050503d8060008114613a8a576040519150601f19603f3d011682016040523d82523d6000602084013e613a8f565b606091505b5091509150613aa087838387613aab565b979650505050505050565b60608315613b1a578251600003613b13576001600160a01b0385163b613b135760405162461bcd60e51b815260206004820152601d60248201527f416464726573733a2063616c6c20746f206e6f6e2d636f6e747261637400000060448201526064016104d6565b50816139c8565b6139c88383815115613b2f5781518083602001fd5b8060405162461bcd60e51b81526004016104d69190613bec565b8260048101928215613b77579160200282015b82811115613b77578251825591602001919060010190613b5c565b50613b83929150613b87565b5090565b5b80821115613b835760008155600101613b88565b60005b83811015613bb7578181015183820152602001613b9f565b50506000910152565b60008151808452613bd8816020860160208601613b9c565b601f01601f19169290920160200192915050565b6020815260006128e06020830184613bc0565b634e487b7160e01b600052604160045260246000fd5b604051608081016001600160401b0381118282101715613c3757613c37613bff565b60405290565b604080519081016001600160401b0381118282101715613c3757613c37613bff565b604051601f8201601f191681016001600160401b0381118282101715613c8757613c87613bff565b604052919050565b60008060a08385031215613ca257600080fd5b82359150602084603f850112613cb757600080fd5b604051608081018181106001600160401b0382111715613cd957613cd9613bff565b6040528060a0860187811115613cee57600080fd5b8387015b81811015613d095780358352918401918401613cf2565b50505080925050509250929050565b6001600160a01b0381168114613d2d57600080fd5b50565b8035613d3b81613d18565b919050565b600082601f830112613d5157600080fd5b613d59613c3d565b806040840185811115613d6b57600080fd5b845b81811015613d8e578035613d8081613d18565b845260209384019301613d6d565b509095945050505050565b60006001600160401b03821115613db257613db2613bff565b5060051b60200190565b600082601f830112613dcd57600080fd5b81356020613de2613ddd83613d99565b613c5f565b82815260059290921b84018101918181019086841115613e0157600080fd5b8286015b84811015613e25578035613e1881613d18565b8352918301918301613e05565b509695505050505050565b600082601f830112613e4157600080fd5b81356020613e51613ddd83613d99565b82815260059290921b84018101918181019086841115613e7057600080fd5b8286015b84811015613e255780358352918301918301613e74565b600082601f830112613e9c57600080fd5b613ea4613c3d565b806040840185811115613eb657600080fd5b845b81811015613d8e578035845260209384019301613eb8565b6000806000806000806101008789031215613eea57600080fd5b613ef48888613d40565b955060408701356001600160401b0380821115613f1057600080fd5b613f1c8a838b01613dbc565b96506060890135915080821115613f3257600080fd5b613f3e8a838b01613e30565b95506080890135915080821115613f5457600080fd5b50613f6189828a01613e30565b93505060a08701359150613f788860c08901613e8b565b90509295509295509295565b600060208284031215613f9657600080fd5b5035919050565b60008060408385031215613fb057600080fd5b82359150602083013560048110613fc657600080fd5b809150509250929050565b60006001600160401b03821115613fea57613fea613bff565b50601f01601f191660200190565b600082601f83011261400957600080fd5b8135614017613ddd82613fd1565b81815284602083860101111561402c57600080fd5b816020850160208301376000918101602001919091529392505050565b8015158114613d2d57600080fd5b8035613d3b81614049565b6000806000806000806000806000806101808b8d03121561408257600080fd5b61408c8c8c613d40565b995060408b01356001600160401b03808211156140a857600080fd5b6140b48e838f01613dbc565b9a5060608d01359150808211156140ca57600080fd5b6140d68e838f01613e30565b99506140e460808e01613d30565b985060a08d013597506140f960c08e01613d30565b965060e08d013591508082111561410f57600080fd5b5061411c8d828e01613ff8565b94505061412c6101008c01614057565b92506101208b013591506141448c6101408d01613e8b565b90509295989b9194979a5092959850565b634e487b7160e01b600052603260045260246000fd5b60808101818360005b6004811015614193578151835260209283019290910190600101614174565b50505092915050565b6000602082840312156141ae57600080fd5b5051919050565b634e487b7160e01b600052601160045260246000fd5b81810381811115610790576107906141b5565b600181815b808511156142195781600019048211156141ff576141ff6141b5565b8085161561420c57918102915b93841c93908002906141e3565b509250929050565b60008261423057506001610790565b8161423d57506000610790565b8160018114614253576002811461425d57614279565b6001915050610790565b60ff84111561426e5761426e6141b5565b50506001821b610790565b5060208310610133831016604e8410600b841016171561429c575081810a610790565b6142a683836141de565b80600019048211156142ba576142ba6141b5565b029392505050565b60006128e08383614221565b634e487b7160e01b600052602160045260246000fd5b6000602082840312156142f657600080fd5b81516128e081613d18565b60006020828403121561431357600080fd5b815160ff811681146128e057600080fd5b60006128e060ff841683614221565b6001600160a01b0391909116815260200190565b600081518084526020808501945080840160005b838110156143805781516001600160a01b03168752958201959082019060010161435b565b509495945050505050565b600081518084526020808501945080840160005b838110156143805781518752958201959082019060010161439f565b8060005b60078110156121295781518452602093840193909101906001016143bf565b60006101c0828a835b600281101561440f5781516001600160a01b03168352602092830192909101906001016143e7565b5050508060408401526144248184018a614347565b90508281036060840152614438818961438b565b9050828103608084015261444c818861438b565b905082810360a0840152614460818761438b565b905082810360c0840152614474818661438b565b91505061448460e08301846143bb565b98975050505050505050565b6000806000606084860312156144a557600080fd5b8351925060208401519150604084015190509250925092565b600082516144d0818460208701613b9c565b9190910192915050565b6001600160a01b03958616815260208101949094529190931660408301526060820192909252608081019190915260a00190565b60006020828403121561452057600080fd5b81516128e081614049565b8082028115828204841417610790576107906141b5565b634e487b7160e01b600052601260045260246000fd5b60008261456757614567614542565b500490565b6001600160a01b039485168152928416602084015292166040820152901515606082015260800190565b600080604083850312156145a957600080fd5b505080516020909101519092909150565b80820180821115610790576107906141b5565b80820182811260008312801582168215821617156145ed576145ed6141b5565b505092915050565b8181036000831280158383131683831282161715614615576146156141b5565b5092915050565b60008261462b5761462b614542565b600160ff1b821460001984141615614645576146456141b5565b500590565b600082601f83011261465b57600080fd5b8151614669613ddd82613fd1565b81815284602083860101111561467e57600080fd5b6139c8826020830160208701613b9c565b60008060408084860312156146a357600080fd5b83516001600160401b03808211156146ba57600080fd5b818601915086601f8301126146ce57600080fd5b815160206146de613ddd83613d99565b82815260079290921b8401810191818101908a8411156146fd57600080fd5b948201945b83861015614777576080868c03121561471b5760008081fd5b614723613c15565b865161472e81613d18565b81528684015161473d81613d18565b818501528688015161474e81613d18565b8189015260608781015161476181613d18565b9082015282526080959095019490820190614702565b9189015191975090945050508083111561479057600080fd5b505061479e8582860161464a565b9150509250929050565b600080600080608085870312156147be57600080fd5b505082516020840151604085015160609095015191969095509092509050565b6060808252845182820181905260009190608090818501906020808a01865b8381101561484557815180516001600160a01b0390811687528482015181168588015260408083015182169088015290880151168786015293850193908201906001016147fd565b50508601979097526040909401949094525090949350505050565b600060018060a01b03808916835260c0602084015261488260c0840189613bc0565b9681166040840152949094166060820152608081019290925260a090910152509291505056fe5042532d3420496e636f727265637420726562616c616e63655469636b52616e6765a2646970667358221220ec9f3c94cbe11cd6b54d68559c99a36e1ad4421486b4109ef61fd7103053650964736f6c63430008110033",
  "libraries": {
    "ConverterStrategyBaseLib": "0x1E26533D45EBf5147Da62cA0E9C7875798F56324",
    "IterationPlanLib": "0x6f070FFf0cc48fCBA84c7BA509cF6593a8F2047F"
  },
  "devdoc": {
    "details": "The library contains quoteWithdrawStep/withdrawStep-related logic",
    "kind": "dev",
    "methods": {
      "quoteWithdrawStep(address[2],address[],uint256[],uint256[],uint256,uint256[2])": {
        "params": {
          "amountsFromPool": "Amounts of {tokens} that will be received from the pool before calling withdraw",
          "converterLiquidator_": "[TetuConverter, TetuLiquidator]",
          "entryDataValues": "[propNotUnderlying18, entryDataParam]     propNotUnderlying18 Required proportion of not-underlying for the final swap of leftovers, [0...1e18].                           The leftovers should be swapped to get following result proportions of the assets:                           not-underlying : underlying === propNotUnderlying18 : 1e18 - propNotUnderlying18                            Value type(uint).max means that the proportions should be read from the pool.     entryDataParam It contains \"required-amount-to-reduce-debt\" in REPAY-SWAP-REPAY case",
          "liquidationThresholds": "Liquidation thresholds for the {tokens}",
          "tokens": "Tokens used by depositor (length == 2: underlying and not-underlying)"
        },
        "returns": {
          "amountToSwap": "Amount that will be swapped on the next swap. 0 - no swap                      This amount is NOT reduced on {GAP_AMOUNT_TO_SWAP}, it should be reduced after the call if necessary.",
          "tokenToSwap": "Address of the token that will be swapped on the next swap. 0 - no swap"
        }
      },
      "withdrawStep(address[2],address[],uint256[],address,uint256,address,bytes,bool,uint256,uint256[2])": {
        "params": {
          "aggregator_": "Aggregator that should be used for the next swap. 0 - no swap",
          "amountToSwap_": "Amount that will be swapped on the next swap. 0 - no swap",
          "converterLiquidator_": "[TetuConverter, TetuLiquidator]",
          "entryDataValues": "[propNotUnderlying18, entryDataParam]     propNotUnderlying18 Required proportion of not-underlying for the final swap of leftovers, [0...1e18].                           The leftovers should be swapped to get following result proportions of the assets:                           not-underlying : underlying === propNotUnderlying18 : 1e18 - propNotUnderlying18     entryDataParam It contains \"required-amount-to-reduce-debt\" in REPAY-SWAP-REPAY case",
          "liquidationThresholds": "Liquidation thresholds for the {tokens}",
          "planKind": "One of IterationPlanLib.PLAN_XXX",
          "swapData_": "Swap data to be passed to the aggregator on the next swap.                  Swap data contains swap-route, amount and all other required info for the swap.                  Swap data should be prepared on-chain on the base of data received by {quoteWithdrawStep}",
          "tokenToSwap_": "Address of the token that will be swapped on the next swap. 0 - no swap",
          "tokens": "Tokens used by depositor (length == 2: underlying and not-underlying)",
          "useLiquidator_": "Use liquidator instead of aggregator.                       Aggregator swaps amount reduced on {GAP_AMOUNT_TO_SWAP}.                       Liquidator doesn't use {GAP_AMOUNT_TO_SWAP}.                       It's allowed to pass liquidator address in {aggregator_} and set {useLiquidator_} to false -                       the liquidator will be used in same way as aggregator in this case."
        },
        "returns": {
          "completed": "All debts were closed, leftovers were swapped to the required proportions"
        }
      }
    },
    "stateVariables": {
      "OPENOCEAN": {
        "details": "See https://docs.openocean.finance/dev/contracts-of-chains"
      },
      "OPENOCEAN_ZKEVM": {
        "details": "See https://docs.openocean.finance/dev/contracts-of-chains"
      }
    },
    "version": 1
  },
  "userdoc": {
    "kind": "user",
    "methods": {
      "ENTRY_TO_POOL_IS_ALLOWED()": {
        "notice": "Enter to the pool at the end of withdrawByAggStep"
      },
      "ENTRY_TO_POOL_IS_ALLOWED_IF_COMPLETED()": {
        "notice": "Enter to the pool at the end of withdrawByAggStep only if full withdrawing has been completed"
      },
      "FUSE_IDX_LOWER_LIMIT_ON()": {
        "notice": "Fuse thresholds are set as array: [LOWER_LIMIT_ON, LOWER_LIMIT_OFF, UPPER_LIMIT_ON, UPPER_LIMIT_OFF]         If the price falls below LOWER_LIMIT_ON the fuse is turned ON         When the prices raises back and reaches LOWER_LIMIT_OFF, the fuse is turned OFF         In the same way, if the price raises above UPPER_LIMIT_ON the fuse is turned ON         When the prices falls back and reaches UPPER_LIMIT_OFF, the fuse is turned OFF         Example: [0.9, 0.92, 1.08, 1.1]         Price falls below 0.9 - fuse is ON. Price rises back up to 0.92 - fuse is OFF.         Price raises more and reaches 1.1 - fuse is ON again. Price falls back and reaches 1.08 - fuse OFF again."
      },
      "GAP_AMOUNT_TO_SWAP()": {
        "notice": "A gap to reduce AmountToSwap calculated inside quoteWithdrawByAgg, [0...100_000]"
      },
      "quoteWithdrawStep(address[2],address[],uint256[],uint256[],uint256,uint256[2])": {
        "notice": "Get info for the swap that will be made on the next call of {withdrawStep}"
      },
      "withdrawStep(address[2],address[],uint256[],address,uint256,address,bytes,bool,uint256,uint256[2])": {
        "notice": "Make withdraw step with 0 or 1 swap only. The step can make one of the following actions:         1) repay direct debt 2) repay reverse debt 3) final swap leftovers of not-underlying asset"
      }
    },
    "notice": "Library for the UniV3-like strategies with two tokens in the pool",
    "version": 1
  },
  "storageLayout": {
    "storage": [],
    "types": null
  }
}