{
  "address": "0xD0D58F7436e668B2CC5F9196dc3207aFf9F377C3",
  "abi": [
    {
      "anonymous": false,
      "inputs": [
        {
          "indexed": false,
          "internalType": "address",
          "name": "controller",
          "type": "address"
        },
        {
          "indexed": false,
          "internalType": "uint256",
          "name": "ts",
          "type": "uint256"
        },
        {
          "indexed": false,
          "internalType": "uint256",
          "name": "block",
          "type": "uint256"
        }
      ],
      "name": "ContractInitialized",
      "type": "event"
    },
    {
      "anonymous": false,
      "inputs": [
        {
          "indexed": false,
          "internalType": "uint8",
          "name": "version",
          "type": "uint8"
        }
      ],
      "name": "Initialized",
      "type": "event"
    },
    {
      "anonymous": false,
      "inputs": [
        {
          "indexed": false,
          "internalType": "uint256[]",
          "name": "withdrawnAmounts",
          "type": "uint256[]"
        }
      ],
      "name": "OnDepositorEmergencyExit",
      "type": "event"
    },
    {
      "anonymous": false,
      "inputs": [
        {
          "indexed": false,
          "internalType": "uint256[]",
          "name": "amounts",
          "type": "uint256[]"
        },
        {
          "indexed": false,
          "internalType": "uint256[]",
          "name": "consumedAmounts",
          "type": "uint256[]"
        }
      ],
      "name": "OnDepositorEnter",
      "type": "event"
    },
    {
      "anonymous": false,
      "inputs": [
        {
          "indexed": false,
          "internalType": "uint256",
          "name": "liquidityAmount",
          "type": "uint256"
        },
        {
          "indexed": false,
          "internalType": "uint256[]",
          "name": "withdrawnAmounts",
          "type": "uint256[]"
        }
      ],
      "name": "OnDepositorExit",
      "type": "event"
    },
    {
      "anonymous": false,
      "inputs": [
        {
          "indexed": false,
          "internalType": "uint256",
          "name": "investedAssetsNewPrices",
          "type": "uint256"
        },
        {
          "indexed": false,
          "internalType": "uint256",
          "name": "earnedByPrices",
          "type": "uint256"
        },
        {
          "indexed": false,
          "internalType": "uint256",
          "name": "earnedHandleRewards",
          "type": "uint256"
        },
        {
          "indexed": false,
          "internalType": "uint256",
          "name": "lostHandleRewards",
          "type": "uint256"
        },
        {
          "indexed": false,
          "internalType": "uint256",
          "name": "earnedDeposit",
          "type": "uint256"
        },
        {
          "indexed": false,
          "internalType": "uint256",
          "name": "lostDeposit",
          "type": "uint256"
        },
        {
          "indexed": false,
          "internalType": "uint256",
          "name": "paidDebtToInsurance",
          "type": "uint256"
        },
        {
          "indexed": false,
          "internalType": "uint256",
          "name": "amountPerf",
          "type": "uint256"
        }
      ],
      "name": "OnHardWorkEarnedLost",
      "type": "event"
    },
    {
      "anonymous": false,
      "inputs": [
        {
          "indexed": false,
          "internalType": "uint256",
          "name": "value",
          "type": "uint256"
        },
        {
          "indexed": false,
          "internalType": "address",
          "name": "oldLogic",
          "type": "address"
        }
      ],
      "name": "RevisionIncreased",
      "type": "event"
    },
    {
      "inputs": [],
      "name": "CONTROLLABLE_VERSION",
      "outputs": [
        {
          "internalType": "string",
          "name": "",
          "type": "string"
        }
      ],
      "stateMutability": "view",
      "type": "function"
    },
    {
      "inputs": [],
      "name": "CONVERTER_STRATEGY_BASE_VERSION",
      "outputs": [
        {
          "internalType": "string",
          "name": "",
          "type": "string"
        }
      ],
      "stateMutability": "view",
      "type": "function"
    },
    {
      "inputs": [],
      "name": "NAME",
      "outputs": [
        {
          "internalType": "string",
          "name": "",
          "type": "string"
        }
      ],
      "stateMutability": "view",
      "type": "function"
    },
    {
      "inputs": [],
      "name": "PANCAKE_DEPOSITOR_VERSION",
      "outputs": [
        {
          "internalType": "string",
          "name": "",
          "type": "string"
        }
      ],
      "stateMutability": "view",
      "type": "function"
    },
    {
      "inputs": [],
      "name": "PLATFORM",
      "outputs": [
        {
          "internalType": "string",
          "name": "",
          "type": "string"
        }
      ],
      "stateMutability": "view",
      "type": "function"
    },
    {
      "inputs": [],
      "name": "STRATEGY_BASE_VERSION",
      "outputs": [
        {
          "internalType": "string",
          "name": "",
          "type": "string"
        }
      ],
      "stateMutability": "view",
      "type": "function"
    },
    {
      "inputs": [],
      "name": "STRATEGY_VERSION",
      "outputs": [
        {
          "internalType": "string",
          "name": "",
          "type": "string"
        }
      ],
      "stateMutability": "view",
      "type": "function"
    },
    {
      "inputs": [],
      "name": "asset",
      "outputs": [
        {
          "internalType": "address",
          "name": "",
          "type": "address"
        }
      ],
      "stateMutability": "view",
      "type": "function"
    },
    {
      "inputs": [],
      "name": "calcInvestedAssets",
      "outputs": [
        {
          "internalType": "uint256",
          "name": "investedAssetsOut",
          "type": "uint256"
        }
      ],
      "stateMutability": "nonpayable",
      "type": "function"
    },
    {
      "inputs": [],
      "name": "capacity",
      "outputs": [
        {
          "internalType": "uint256",
          "name": "",
          "type": "uint256"
        }
      ],
      "stateMutability": "view",
      "type": "function"
    },
    {
      "inputs": [],
      "name": "claim",
      "outputs": [],
      "stateMutability": "nonpayable",
      "type": "function"
    },
    {
      "inputs": [],
      "name": "compoundRatio",
      "outputs": [
        {
          "internalType": "uint256",
          "name": "",
          "type": "uint256"
        }
      ],
      "stateMutability": "view",
      "type": "function"
    },
    {
      "inputs": [],
      "name": "controller",
      "outputs": [
        {
          "internalType": "address",
          "name": "",
          "type": "address"
        }
      ],
      "stateMutability": "view",
      "type": "function"
    },
    {
      "inputs": [],
      "name": "converter",
      "outputs": [
        {
          "internalType": "contract ITetuConverter",
          "name": "",
          "type": "address"
        }
      ],
      "stateMutability": "view",
      "type": "function"
    },
    {
      "inputs": [],
      "name": "created",
      "outputs": [
        {
          "internalType": "uint256",
          "name": "",
          "type": "uint256"
        }
      ],
      "stateMutability": "view",
      "type": "function"
    },
    {
      "inputs": [],
      "name": "createdBlock",
      "outputs": [
        {
          "internalType": "uint256",
          "name": "",
          "type": "uint256"
        }
      ],
      "stateMutability": "view",
      "type": "function"
    },
    {
      "inputs": [],
      "name": "debtToInsurance",
      "outputs": [
        {
          "internalType": "int256",
          "name": "",
          "type": "int256"
        }
      ],
      "stateMutability": "view",
      "type": "function"
    },
    {
      "inputs": [],
      "name": "doHardWork",
      "outputs": [
        {
          "internalType": "uint256",
          "name": "earned",
          "type": "uint256"
        },
        {
          "internalType": "uint256",
          "name": "lost",
          "type": "uint256"
        }
      ],
      "stateMutability": "nonpayable",
      "type": "function"
    },
    {
      "inputs": [],
      "name": "emergencyExit",
      "outputs": [],
      "stateMutability": "nonpayable",
      "type": "function"
    },
    {
      "inputs": [],
      "name": "getDefaultState",
      "outputs": [
        {
          "internalType": "address[]",
          "name": "addr",
          "type": "address[]"
        },
        {
          "internalType": "int24[]",
          "name": "tickData",
          "type": "int24[]"
        },
        {
          "internalType": "uint256[]",
          "name": "nums",
          "type": "uint256[]"
        },
        {
          "internalType": "bool[]",
          "name": "boolValues",
          "type": "bool[]"
        }
      ],
      "stateMutability": "view",
      "type": "function"
    },
    {
      "inputs": [],
      "name": "getPropNotUnderlying18",
      "outputs": [
        {
          "internalType": "uint256",
          "name": "",
          "type": "uint256"
        }
      ],
      "stateMutability": "view",
      "type": "function"
    },
    {
      "inputs": [
        {
          "internalType": "uint256",
          "name": "slot",
          "type": "uint256"
        }
      ],
      "name": "getSlot",
      "outputs": [
        {
          "internalType": "bytes32",
          "name": "result",
          "type": "bytes32"
        }
      ],
      "stateMutability": "view",
      "type": "function"
    },
    {
      "inputs": [],
      "name": "getSpecificState",
      "outputs": [
        {
          "internalType": "uint256[]",
          "name": "nums",
          "type": "uint256[]"
        }
      ],
      "stateMutability": "view",
      "type": "function"
    },
    {
      "inputs": [
        {
          "internalType": "address",
          "name": "oldLogic",
          "type": "address"
        }
      ],
      "name": "increaseRevision",
      "outputs": [],
      "stateMutability": "nonpayable",
      "type": "function"
    },
    {
      "inputs": [
        {
          "internalType": "address",
          "name": "controller_",
          "type": "address"
        },
        {
          "internalType": "address",
          "name": "splitter_",
          "type": "address"
        },
        {
          "internalType": "address",
          "name": "converter_",
          "type": "address"
        },
        {
          "internalType": "address",
          "name": "pool_",
          "type": "address"
        },
        {
          "internalType": "int24",
          "name": "tickRange_",
          "type": "int24"
        },
        {
          "internalType": "int24",
          "name": "rebalanceTickRange_",
          "type": "int24"
        },
        {
          "internalType": "uint256[4]",
          "name": "fuseThresholds",
          "type": "uint256[4]"
        },
        {
          "internalType": "address",
          "name": "chef_",
          "type": "address"
        }
      ],
      "name": "init",
      "outputs": [],
      "stateMutability": "nonpayable",
      "type": "function"
    },
    {
      "inputs": [
        {
          "internalType": "uint256",
          "name": "",
          "type": "uint256"
        },
        {
          "internalType": "bool",
          "name": "updateTotalAssetsBeforeInvest_",
          "type": "bool"
        }
      ],
      "name": "investAll",
      "outputs": [
        {
          "internalType": "uint256",
          "name": "strategyLoss",
          "type": "uint256"
        }
      ],
      "stateMutability": "nonpayable",
      "type": "function"
    },
    {
      "inputs": [],
      "name": "investedAssets",
      "outputs": [
        {
          "internalType": "uint256",
          "name": "",
          "type": "uint256"
        }
      ],
      "stateMutability": "view",
      "type": "function"
    },
    {
      "inputs": [
        {
          "internalType": "address",
          "name": "_value",
          "type": "address"
        }
      ],
      "name": "isController",
      "outputs": [
        {
          "internalType": "bool",
          "name": "",
          "type": "bool"
        }
      ],
      "stateMutability": "view",
      "type": "function"
    },
    {
      "inputs": [
        {
          "internalType": "address",
          "name": "_value",
          "type": "address"
        }
      ],
      "name": "isGovernance",
      "outputs": [
        {
          "internalType": "bool",
          "name": "",
          "type": "bool"
        }
      ],
      "stateMutability": "view",
      "type": "function"
    },
    {
      "inputs": [],
      "name": "isReadyToHardWork",
      "outputs": [
        {
          "internalType": "bool",
          "name": "",
          "type": "bool"
        }
      ],
      "stateMutability": "view",
      "type": "function"
    },
    {
      "inputs": [
        {
          "internalType": "address",
          "name": "",
          "type": "address"
        }
      ],
      "name": "liquidationThresholds",
      "outputs": [
        {
          "internalType": "uint256",
          "name": "",
          "type": "uint256"
        }
      ],
      "stateMutability": "view",
      "type": "function"
    },
    {
      "inputs": [],
      "name": "needRebalance",
      "outputs": [
        {
          "internalType": "bool",
          "name": "",
          "type": "bool"
        }
      ],
      "stateMutability": "view",
      "type": "function"
    },
    {
      "inputs": [
        {
          "internalType": "address[]",
          "name": "assets_",
          "type": "address[]"
        },
        {
          "internalType": "uint256[]",
          "name": "amounts_",
          "type": "uint256[]"
        }
      ],
      "name": "onTransferAmounts",
      "outputs": [],
      "stateMutability": "nonpayable",
      "type": "function"
    },
    {
      "inputs": [
        {
          "internalType": "uint256",
          "name": "amount0Owed",
          "type": "uint256"
        },
        {
          "internalType": "uint256",
          "name": "amount1Owed",
          "type": "uint256"
        },
        {
          "internalType": "bytes",
          "name": "",
          "type": "bytes"
        }
      ],
      "name": "pancakeV3MintCallback",
      "outputs": [],
      "stateMutability": "nonpayable",
      "type": "function"
    },
    {
      "inputs": [],
      "name": "performanceFee",
      "outputs": [
        {
          "internalType": "uint256",
          "name": "",
          "type": "uint256"
        }
      ],
      "stateMutability": "view",
      "type": "function"
    },
    {
      "inputs": [],
      "name": "performanceFeeRatio",
      "outputs": [
        {
          "internalType": "uint256",
          "name": "",
          "type": "uint256"
        }
      ],
      "stateMutability": "view",
      "type": "function"
    },
    {
      "inputs": [],
      "name": "performanceReceiver",
      "outputs": [
        {
          "internalType": "address",
          "name": "",
          "type": "address"
        }
      ],
      "stateMutability": "view",
      "type": "function"
    },
    {
      "inputs": [],
      "name": "previousImplementation",
      "outputs": [
        {
          "internalType": "address",
          "name": "",
          "type": "address"
        }
      ],
      "stateMutability": "view",
      "type": "function"
    },
    {
      "inputs": [
        {
          "internalType": "bytes",
          "name": "planEntryData",
          "type": "bytes"
        }
      ],
      "name": "quoteWithdrawByAgg",
      "outputs": [
        {
          "internalType": "address",
          "name": "tokenToSwap",
          "type": "address"
        },
        {
          "internalType": "uint256",
          "name": "amountToSwap",
          "type": "uint256"
        }
      ],
      "stateMutability": "nonpayable",
      "type": "function"
    },
    {
      "inputs": [
        {
          "internalType": "bool",
          "name": "checkNeedRebalance",
          "type": "bool"
        }
      ],
      "name": "rebalanceNoSwaps",
      "outputs": [],
      "stateMutability": "nonpayable",
      "type": "function"
    },
    {
      "inputs": [],
      "name": "reinvestThresholdPercent",
      "outputs": [
        {
          "internalType": "uint256",
          "name": "",
          "type": "uint256"
        }
      ],
      "stateMutability": "view",
      "type": "function"
    },
    {
      "inputs": [
        {
          "internalType": "address",
          "name": "theAsset_",
          "type": "address"
        },
        {
          "internalType": "uint256",
          "name": "amount_",
          "type": "uint256"
        }
      ],
      "name": "requirePayAmountBack",
      "outputs": [
        {
          "internalType": "uint256",
          "name": "amountOut",
          "type": "uint256"
        }
      ],
      "stateMutability": "nonpayable",
      "type": "function"
    },
    {
      "inputs": [],
      "name": "revision",
      "outputs": [
        {
          "internalType": "uint256",
          "name": "",
          "type": "uint256"
        }
      ],
      "stateMutability": "view",
      "type": "function"
    },
    {
      "inputs": [
        {
          "internalType": "uint256",
          "name": "value",
          "type": "uint256"
        }
      ],
      "name": "setCompoundRatio",
      "outputs": [],
      "stateMutability": "nonpayable",
      "type": "function"
    },
    {
      "inputs": [
        {
          "internalType": "uint256",
          "name": "status",
          "type": "uint256"
        }
      ],
      "name": "setFuseStatus",
      "outputs": [],
      "stateMutability": "nonpayable",
      "type": "function"
    },
    {
      "inputs": [
        {
          "internalType": "uint256[4]",
          "name": "values",
          "type": "uint256[4]"
        }
      ],
      "name": "setFuseThresholds",
      "outputs": [],
      "stateMutability": "nonpayable",
      "type": "function"
    },
    {
      "inputs": [
        {
          "internalType": "address",
          "name": "token",
          "type": "address"
        },
        {
          "internalType": "uint256",
          "name": "amount",
          "type": "uint256"
        }
      ],
      "name": "setLiquidationThreshold",
      "outputs": [],
      "stateMutability": "nonpayable",
      "type": "function"
    },
    {
      "inputs": [
        {
          "internalType": "uint256",
          "name": "percent_",
          "type": "uint256"
        }
      ],
      "name": "setReinvestThresholdPercent",
      "outputs": [],
      "stateMutability": "nonpayable",
      "type": "function"
    },
    {
      "inputs": [
        {
          "internalType": "address",
          "name": "strategyProfitHolder",
          "type": "address"
        }
      ],
      "name": "setStrategyProfitHolder",
      "outputs": [],
      "stateMutability": "nonpayable",
      "type": "function"
    },
    {
      "inputs": [
        {
          "internalType": "string",
          "name": "name",
          "type": "string"
        }
      ],
      "name": "setStrategySpecificName",
      "outputs": [],
      "stateMutability": "nonpayable",
      "type": "function"
    },
    {
      "inputs": [
        {
          "internalType": "uint256",
          "name": "done",
          "type": "uint256"
        }
      ],
      "name": "setWithdrawDone",
      "outputs": [],
      "stateMutability": "nonpayable",
      "type": "function"
    },
    {
      "inputs": [
        {
          "internalType": "uint256",
          "name": "fee_",
          "type": "uint256"
        },
        {
          "internalType": "address",
          "name": "receiver_",
          "type": "address"
        },
        {
          "internalType": "uint256",
          "name": "ratio_",
          "type": "uint256"
        }
      ],
      "name": "setupPerformanceFee",
      "outputs": [],
      "stateMutability": "nonpayable",
      "type": "function"
    },
    {
      "inputs": [],
      "name": "splitter",
      "outputs": [
        {
          "internalType": "address",
          "name": "",
          "type": "address"
        }
      ],
      "stateMutability": "view",
      "type": "function"
    },
    {
      "inputs": [],
      "name": "strategySpecificName",
      "outputs": [
        {
          "internalType": "string",
          "name": "",
          "type": "string"
        }
      ],
      "stateMutability": "view",
      "type": "function"
    },
    {
      "inputs": [
        {
          "internalType": "bytes4",
          "name": "interfaceId",
          "type": "bytes4"
        }
      ],
      "name": "supportsInterface",
      "outputs": [
        {
          "internalType": "bool",
          "name": "",
          "type": "bool"
        }
      ],
      "stateMutability": "view",
      "type": "function"
    },
    {
      "inputs": [],
      "name": "totalAssets",
      "outputs": [
        {
          "internalType": "uint256",
          "name": "",
          "type": "uint256"
        }
      ],
      "stateMutability": "view",
      "type": "function"
    },
    {
      "inputs": [],
      "name": "withdrawAllToSplitter",
      "outputs": [
        {
          "internalType": "uint256",
          "name": "strategyLoss",
          "type": "uint256"
        }
      ],
      "stateMutability": "nonpayable",
      "type": "function"
    },
    {
      "inputs": [
        {
          "internalType": "address",
          "name": "tokenToSwap_",
          "type": "address"
        },
        {
          "internalType": "address",
          "name": "aggregator_",
          "type": "address"
        },
        {
          "internalType": "uint256",
          "name": "amountToSwap_",
          "type": "uint256"
        },
        {
          "internalType": "bytes",
          "name": "swapData",
          "type": "bytes"
        },
        {
          "internalType": "bytes",
          "name": "planEntryData",
          "type": "bytes"
        },
        {
          "internalType": "uint256",
          "name": "entryToPool",
          "type": "uint256"
        }
      ],
      "name": "withdrawByAggStep",
      "outputs": [
        {
          "internalType": "bool",
          "name": "completed",
          "type": "bool"
        }
      ],
      "stateMutability": "nonpayable",
      "type": "function"
    },
    {
      "inputs": [
        {
          "internalType": "uint256",
          "name": "amount",
          "type": "uint256"
        }
      ],
      "name": "withdrawToSplitter",
      "outputs": [
        {
          "internalType": "uint256",
          "name": "strategyLoss",
          "type": "uint256"
        }
      ],
      "stateMutability": "nonpayable",
      "type": "function"
    }
  ],
  "transactionHash": "0xecb2bd10d6ace1238314ec0c83e52909f3b000dd930bceab6475c19ebd0eef15",
  "args": [],
  "numDeployments": 1,
  "solcInputHash": "da1a131c81810b0ec86f8a1b7470ae1a",
  "bytecode": "0x60806040523480156200001157600080fd5b506200001c62000022565b620000e3565b600054610100900460ff16156200008f5760405162461bcd60e51b815260206004820152602760248201527f496e697469616c697a61626c653a20636f6e747261637420697320696e697469604482015266616c697a696e6760c81b606482015260840160405180910390fd5b60005460ff90811614620000e1576000805460ff191660ff9081179091556040519081527f7f26b83ff96e1f2b6a682f133852f6798a09c465da95921460cefb38474024989060200160405180910390a15b565b615a9d80620000f36000396000f3fe608060405234801561001057600080fd5b50600436106103495760003560e01c80636ffb4c8e116101c9578063ab9e3eee116100ff578063ce2f1842116100ad578063dee1f0e41161007c578063dee1f0e414610770578063dfeb103214610783578063f77c479114610796578063ffb86c6a1461079e57600080fd5b8063ce2f184214610729578063ceee861d14610731578063d295ea7014610755578063de3d047c1461075d57600080fd5b8063ab9e3eee14610694578063b24575561461069c578063b429afeb146106af578063b77c975b146106c2578063bd38837b146106f4578063c6b040ec14610705578063cd4c81561461071857600080fd5b80637efc77fa1161017757806396b7b14e1161014657806396b7b14e1461062a57806399eee9d01461063d5780639d0bcca014610650578063a3f4df7e1461065857600080fd5b80637efc77fa146105e9578063877887821461060f57806387c7f77014610617578063936725ec1461058b57600080fd5b80636ffb4c8e1461055d5780637063a2371461057057806371ee01751461058357806373a50ef51461058b57806378327438146105af5780637cc96380146105cf5780637eba7ba6146105d757600080fd5b80634ad0b6841161029e5780635412335d1161024c5780636207a0cf1161021b5780636207a0cf146104ef57806363e27734146105135780636af28d4c146105265780636b5fba5a1461054a57600080fd5b80635412335d146104b057806354679963146104c85780635641ec03146104dd5780635cfc1a51146104e557600080fd5b80634ad0b684146104405780634ba31b01146104485780634e71d92d146104505780634fa5d854146104585780634fac6ccd1461047557806351e03fbe1461048857806352bbbb741461049b57600080fd5b8063261efa12116102fb578063261efa12146103e2578063325a19f1146103ea57806333c5b58e146103f257806338d52e0f146103fa5780633cd8045e1461041457806342fdb471146104255780634593144c1461043857600080fd5b806301e1d1141461034e57806301ffc9a714610369578063066a6fc31461038c5780630acd12c71461039f5780630e30428d146103a75780631d2dca9e146103bc5780632221eb3c146103cf575b600080fd5b6103566107a6565b6040519081526020015b60405180910390f35b61037c6103773660046146e4565b610831565b6040519015158152602001610360565b61037c61039a3660046147e9565b610877565b610356610a57565b6103ba6103b5366004614883565b610b79565b005b6103ba6103ca3660046148bd565b610c1d565b6103ba6103dd3660046148da565b610d86565b606a54610356565b610356610dfc565b610356610e2c565b6066546001600160a01b03165b60405161036091906148f3565b6067546001600160a01b0316610407565b6103ba6104333660046148da565b610eac565b610356610f9b565b609954610356565b610356610fcb565b6103ba611042565b6104606110bc565b60408051928352602083019190915201610360565b6103ba610483366004614907565b61112a565b6103566104963660046148da565b61125c565b6104a3611424565b604051610360919061495f565b6104b8611574565b60405161036094939291906149a4565b6104d0611603565b6040516103609190614a98565b6103ba611698565b600160ff1b610356565b6104d060405180604001604052806005815260200164312e302e3160d81b81525081565b6103ba610521366004614aec565b611732565b6104d0604051806040016040528060058152602001640312e302e360dc1b81525081565b6103ba610558366004614907565b611810565b6103ba61056b3660046148da565b6118a1565b6103ba61057e366004614b21565b611929565b609b54610356565b6104d060405180604001604052806005815260200164332e302e3160d81b81525081565b6103566105bd366004614907565b60986020526000908152604090205481565b6103566119c7565b6103566105e53660046148da565b5490565b6104d06040518060400160405280600781526020016650616e63616b6560c81b81525081565b606954610356565b610356610625366004614883565b6119f7565b6103ba610638366004614be2565b611cde565b6103ba61064b366004614ca3565b611d83565b610407611e74565b6104d06040518060400160405280601a81526020017f50616e63616b6520436f6e76657274657220537472617465677900000000000081525081565b61037c611ea4565b6103566106aa366004614cf5565b611ec4565b61037c6106bd366004614907565b611f73565b6106d56106d0366004614d25565b611f98565b604080516001600160a01b039093168352602083019190915201610360565b609a546001600160a01b0316610407565b6103ba610713366004614d68565b61208a565b6068546001600160a01b0316610407565b609c54610356565b6104d060405180604001604052806005815260200164332e312e3360d81b81525081565b606b54610356565b6103ba61076b3660046148da565b6123ad565b61037c61077e366004614907565b61240a565b6103ba610791366004614e15565b61248f565b610407612537565b61037c612567565b60006107b160995490565b6066546040516370a0823160e01b81526001600160a01b03909116906370a08231906107e19030906004016148f3565b602060405180830381865afa1580156107fe573d6000803e3d6000fd5b505050506040513d601f19601f820116820180604052508101906108229190614e92565b61082c9190614ec1565b905090565b60006001600160e01b03198216631e94dddf60e01b148061086257506001600160e01b0319821663f73147b360e01b145b806108715750610871826125f1565b92915050565b6000806000610884612616565b9150915060607372FcDC97699F53C5A0679Bfe24e38c5c99A6471a63911ec05360996040518060a001604052808e6001600160a01b03166001600160a01b031681526020018d6001600160a01b03166001600160a01b031681526020016108e9612537565b6001600160a01b039081168252609a54811660208084019190915260675490911660409283015281516080810183528e8152908101899052808201889052606081018b905290516001600160e01b031960e086901b16815261095a939291908d908d90600190609890600401614ef7565b600060405180830381865af4158015610977573d6000803e3d6000fd5b505050506040513d6000823e601f3d908101601f1916820160405261099f9190810190614fdb565b90945090506109ad81612668565b60006010558380156109c257506109c2612697565b156109cd576001600f555b6066546040516368f9467b60e01b81526001600160a01b039091166004820152602481018390526099604482015273C297e5AdaD574f03C361467093dCBC63DC3B9F10906368f9467b9060640160006040518083038186803b158015610a3257600080fd5b505af4158015610a46573d6000803e3d6000fd5b505050505050509695505050505050565b606754606654604051633e53813360e11b81526000926001600160a01b03908116921690839073FB7196D25e3CC94750cd6bB3c0263AE27621838f90637ca7026690610aa99086908690600401615021565b602060405180830381865af4158015610ac6573d6000803e3d6000fd5b505050506040513d601f19601f82011682018060405250810190610aea9190614e92565b90506000806000610af96126a9565b92509250925073FB7196D25e3CC94750cd6bB3c0263AE27621838f639ad00ec2868686868b6040518663ffffffff1660e01b8152600401610b3e95949392919061503b565b60006040518083038186803b158015610b5657600080fd5b505af4158015610b6a573d6000803e3d6000fd5b50929998505050505050505050565b73C297e5AdaD574f03C361467093dCBC63DC3B9F1063142395ef610b9b612537565b6040516001600160e01b031960e084901b1681526001600160a01b03918216600482015290851660248201526044810184905260640160006040518083038186803b158015610be957600080fd5b505af4158015610bfd573d6000803e3d6000fd5b5050506001600160a01b0390921660009081526098602052604090205550565b6000610c27612537565b60405163124fdbb760e21b815290915073FB7196D25e3CC94750cd6bB3c0263AE27621838f9063493f6edc90610c619084906004016148f3565b60006040518083038186803b158015610c7957600080fd5b505af4158015610c8d573d6000803e3d6000fd5b50505050600080610c9c612616565b60408051808201909152609a546001600160a01b0316815291935091506000907372FcDC97699F53C5A0679Bfe24e38c5c99A6471a9063b6fda8139060999060019060208101610ceb8a6126c4565b6001600160a01b039081169091526067546040516001600160e01b031960e088901b168152610d2b959493928a928c929116908e9060989060040161506b565b600060405180830381865af4158015610d48573d6000803e3d6000fd5b505050506040513d6000823e601f3d908101601f19168201604052610d7091908101906150e4565b9050610d7b81612668565b505042601055505050565b73FB7196D25e3CC94750cd6bB3c0263AE27621838f63493f6edc610da8612537565b6040518263ffffffff1660e01b8152600401610dc491906148f3565b60006040518083038186803b158015610ddc57600080fd5b505af4158015610df0573d6000803e3d6000fd5b505050600f9190915550565b600061082c6105e560017f6f55f470bdc9cb5f04223fd822021061668e4dccb43e8727b295106dc9769c8b615118565b600073FB7196D25e3CC94750cd6bB3c0263AE27621838f63493f6edc610e50612537565b6040518263ffffffff1660e01b8152600401610e6c91906148f3565b60006040518083038186803b158015610e8457600080fd5b505af4158015610e98573d6000803e3d6000fd5b50505050610ea4612728565b509092915050565b73FB7196D25e3CC94750cd6bB3c0263AE27621838f63493f6edc610ece612537565b6040518263ffffffff1660e01b8152600401610eea91906148f3565b60006040518083038186803b158015610f0257600080fd5b505af4158015610f16573d6000803e3d6000fd5b5073f92Bb260C7Cafcf6D69563EDF5ff2A11ec8df4A99250636bffb346915060069050836003811115610f4b57610f4b61512b565b6040518363ffffffff1660e01b8152600401610f68929190615141565b60006040518083038186803b158015610f8057600080fd5b505af4158015610f94573d6000803e3d6000fd5b5050505050565b600061082c6105e560017f812a673dfca07956350df10f8a654925f561d7a0da09bdbe79e653939a14d9f1615118565b604051630a3c2bb160e21b8152600160048201526000907372FcDC97699F53C5A0679Bfe24e38c5c99A6471a906328f0aec490602401602060405180830381865af415801561101e573d6000803e3d6000fd5b505050506040513d601f19601f8201168201806040525081019061082c9190614e92565b73FB7196D25e3CC94750cd6bB3c0263AE27621838f63d19cc38a611064612537565b6040518263ffffffff1660e01b815260040161108091906148f3565b60006040518083038186803b15801561109857600080fd5b505af41580156110ac573d6000803e3d6000fd5b505050506110b86127f9565b5050565b60675460408051808201909152600a81526914d08e8811195b9a595960b21b60208201526000918291906001600160a01b031633146111175760405162461bcd60e51b815260040161110e9190614a98565b60405180910390fd5b5061112260016128b5565b915091509091565b3330146111795760405162461bcd60e51b815260206004820152601b60248201527f496e637265617365207265766973696f6e20666f7262696464656e0000000000604482015260640161110e565b60006111a96105e560017f22573091f17911fb166032a3d9e0554aa73d31b7b7ddea4a4dd2995650af84bd615118565b6111b4906001614ec1565b90506111e8816111e560017f22573091f17911fb166032a3d9e0554aa73d31b7b7ddea4a4dd2995650af84bd615118565b55565b611217826111e560017fbfaaa2fb63266ff27c2da975f5894955056f50419af651a81f6c5060581857e4615118565b604080518281526001600160a01b03841660208201527ff27e2ef832a4eb8ed8ec553b875eecd44764cda95b1c24170e281539e0a869c8910160405180910390a15050565b606754606654604051633e53813360e11b81526000926001600160a01b03908116921690839073FB7196D25e3CC94750cd6bB3c0263AE27621838f90637ca70266906112ae9086908690600401615021565b602060405180830381865af41580156112cb573d6000803e3d6000fd5b505050506040513d601f19601f820116820180604052508101906112ef9190614e92565b90508085111561139b5760008061130e6113098489615118565b612aae565b604051631594b05b60e01b8152909850919350915073FB7196D25e3CC94750cd6bB3c0263AE27621838f90631594b05b906113559087908790879087908c9060040161503b565b602060405180830381865af4158015611372573d6000803e3d6000fd5b505050506040513d601f19601f820116820180604052508101906113969190614e92565b925050505b6040516333bbb20360e11b815260048101869052602481018290526001600160a01b0380841660448301528416606482015273FB7196D25e3CC94750cd6bB3c0263AE27621838f9063677764069060840160006040518083038186803b15801561140457600080fd5b505af4158015611418573d6000803e3d6000fd5b50505050505050919050565b600280546040805183815260608082018352936001600160a01b0390931692909160208301908036833750506003546040516370a0823160e01b81529294506001600160a01b0316916370a0823191506114829084906004016148f3565b602060405180830381865afa15801561149f573d6000803e3d6000fd5b505050506040513d601f19601f820116820180604052508101906114c39190614e92565b826000815181106114d6576114d6615173565b6020908102919091010152600480546040516370a0823160e01b81526001600160a01b03909116916370a0823191611510918591016148f3565b602060405180830381865afa15801561152d573d6000803e3d6000fd5b505050506040513d601f19601f820116820180604052508101906115519190614e92565b8260018151811061156457611564615173565b6020026020010181815250505090565b604051636e81b62960e01b815260016004820152606090819081908190730b5d3Ac33f98f2A5B4c2741Fa8fEbAE2130F3bC790636e81b62990602401600060405180830381865af41580156115cd573d6000803e3d6000fd5b505050506040513d6000823e601f3d908101601f191682016040526115f59190810190615251565b935093509350935090919293565b6060606660060180546116159061535b565b80601f01602080910402602001604051908101604052809291908181526020018280546116419061535b565b801561168e5780601f106116635761010080835404028352916020019161168e565b820191906000526020600020905b81548152906001019060200180831161167157829003601f168201915b5050505050905090565b6116a0612adf565b73FB7196D25e3CC94750cd6bB3c0263AE27621838f63bd0206826116c2612537565b60665460675460405160e085901b6001600160e01b03191681526001600160a01b039384166004820152918316602483015291909116604482015260640160006040518083038186803b15801561171857600080fd5b505af415801561172c573d6000803e3d6000fd5b50505050565b73FB7196D25e3CC94750cd6bB3c0263AE27621838f63493f6edc611754612537565b6040518263ffffffff1660e01b815260040161177091906148f3565b60006040518083038186803b15801561178857600080fd5b505af415801561179c573d6000803e3d6000fd5b5050604051637fc1c15b60e01b815273FB7196D25e3CC94750cd6bB3c0263AE27621838f9250637fc1c15b91506117dc9060669086908690600401615395565b60006040518083038186803b1580156117f457600080fd5b505af4158015611808573d6000803e3d6000fd5b505050505050565b73FB7196D25e3CC94750cd6bB3c0263AE27621838f63493f6edc611832612537565b6040518263ffffffff1660e01b815260040161184e91906148f3565b60006040518083038186803b15801561186657600080fd5b505af415801561187a573d6000803e3d6000fd5b5050600280546001600160a01b0319166001600160a01b0394909416939093179092555050565b73C297e5AdaD574f03C361467093dCBC63DC3B9F1063d2c3cf256118c3612537565b6040516001600160e01b031960e084901b1681526001600160a01b0390911660048201526024810184905260440160006040518083038186803b15801561190957600080fd5b505af415801561191d573d6000803e3d6000fd5b505050609b9190915550565b73FB7196D25e3CC94750cd6bB3c0263AE27621838f63ed6b63c16066858585611950612537565b6040516001600160e01b031960e088901b168152600481019590955260248501939093526001600160a01b039182166044850152606484015216608482015260a40160006040518083038186803b1580156119aa57600080fd5b505af41580156119be573d6000803e3d6000fd5b50505050505050565b600061082c6105e560017f22573091f17911fb166032a3d9e0554aa73d31b7b7ddea4a4dd2995650af84bd615118565b6000611a0161469c565b611a0d84826000612b2a565b805160408051808201909152600a81526914d08e8811195b9a595960b21b6020820152906001600160a01b03163314611a595760405162461bcd60e51b815260040161110e9190614a98565b5060408051808201909152601081526f54532d3234207a65726f2076616c756560801b602082015283611a9f5760405162461bcd60e51b815260040161110e9190614a98565b5060001981606001511415604051806040016040528060118152602001701514cb4c4d081ddc9bdb99c8185cdcd95d607a1b81525090611af25760405162461bcd60e51b815260040161110e9190614a98565b50600080611b006001612ba4565b608085015160405163513cfdb360e11b81526001600160a01b038a1660048201526024810191909152604481018390526064810182905260666084820152919350915073C297e5AdaD574f03C361467093dCBC63DC3B9F109063a279fb669060a401602060405180830381865af4158015611b7f573d6000803e3d6000fd5b505050506040513d601f19601f82011682018060405250810190611ba39190614e92565b60808401526000620186a0611bba6103e882614ec1565b611bc490886153cb565b611bce91906153e2565b905080846080015110611bfa578351611bf2906001600160a01b0389169088612c6e565b859450611ccb565b82600003611c3557611c116103e8620186a0614ec1565b620186a08560800151611c2491906153cb565b611c2e91906153e2565b9450611ccb565b6000620186a0611c486103e860026153cb565b611c5590620186a0614ec1565b611c5f90896153cb565b611c6991906153e2565b9050611c84856080015182611c7e9190615118565b86612cc0565b506000611c9089612f25565b9050828111611cc457611ca86103e8620186a0614ec1565b611cb5620186a0836153cb565b611cbf91906153e2565b611cc6565b875b965050505b611cd3612f95565b505050505092915050565b609a5460408051808201909152600a81526914d08e8811195b9a595960b21b6020820152906001600160a01b03163314611d2b5760405162461bcd60e51b815260040161110e9190614a98565b5080518251146040518060400160405280600d81526020016c54532d3139206c656e6774687360981b81525090611d755760405162461bcd60e51b815260040161110e9190614a98565b50611d7e612f95565b505050565b60015460408051808201909152601981527f50532d3131204e6f742063616c6c6261636b2063616c6c6572000000000000006020820152906001600160a01b03163314611de35760405162461bcd60e51b815260040161110e9190614a98565b508315611e3157600454611e319033908690600160a81b900460ff16611e14576003546001600160a01b0316611e21565b6004546001600160a01b03165b6001600160a01b03169190612c6e565b821561172c5760045461172c9033908590600160a81b900460ff16611e61576004546001600160a01b0316611e21565b6003546001600160a01b03169190612c6e565b600061082c6105e560017fbfaaa2fb63266ff27c2da975f5894955056f50419af651a81f6c5060581857e4615118565b6000611eae612567565b15801561082c5750611ebe612697565b15905090565b6067546066546040516001625acc3160e01b03198152600092839273FB7196D25e3CC94750cd6bB3c0263AE27621838f9263ffa533cf92611f16926001600160a01b0391821692911690600401615021565b602060405180830381865af4158015611f33573d6000803e3d6000fd5b505050506040513d601f19601f82011682018060405250810190611f579190614e92565b90508015611f6c57611f698184612fab565b91505b5092915050565b6000611f7d612537565b6001600160a01b0316826001600160a01b0316149050919050565b6005546000908190630100000090046001600160801b0316818115611fc557611fc08261304f565b611fe3565b60408051600280825260608201835290916020830190803683375050505b9050730b5d3Ac33f98f2A5B4c2741Fa8fEbAE2130F3bC76350d2e0ba6001878461200b612537565b609a546040516001600160e01b031960e088901b16815261203f95949392916001600160a01b031690609890600401615404565b6040805180830381865af415801561205b573d6000803e3d6000fd5b505050506040513d601f19601f8201168201806040525081019061207f9190615455565b935093505050915091565b600054610100900460ff16158080156120aa5750600054600160ff909116105b806120c45750303b1580156120c4575060005460ff166001145b6121275760405162461bcd60e51b815260206004820152602e60248201527f496e697469616c697a61626c653a20636f6e747261637420697320616c72656160448201526d191e481a5b9a5d1a585b1a5e995960921b606482015260840161110e565b6000805460ff19166001179055801561214a576000805461ff0019166101001790555b6121558989896130d9565b7372FcDC97699F53C5A0679Bfe24e38c5c99A6471a63f6b4d56b600160405180606001604052808d6001600160a01b03166001600160a01b031681526020018a6001600160a01b03166001600160a01b03168152602001866001600160a01b03166001600160a01b031681525088888d6001600160a01b03166338d52e0f6040518163ffffffff1660e01b8152600401602060405180830381865afa158015612202573d6000803e3d6000fd5b505050506040513d601f19601f820116820180604052508101906122269190615483565b896040518763ffffffff1660e01b8152600401612248969594939291906154a0565b60006040518083038186803b15801561226057600080fd5b505af4158015612274573d6000803e3d6000fd5b505060405163bd85be2960e01b81526001600482015273FB7196D25e3CC94750cd6bB3c0263AE27621838f9250637fc1c15b91506066907372FcDC97699F53C5A0679Bfe24e38c5c99A6471a9063bd85be2990602401600060405180830381865af41580156122e7573d6000803e3d6000fd5b505050506040513d6000823e601f3d908101601f1916820160405261230f919081019061550e565b6040518363ffffffff1660e01b815260040161232c929190615584565b60006040518083038186803b15801561234457600080fd5b505af4158015612358573d6000803e3d6000fd5b5050505080156123a2576000805461ff0019169055604051600181527f7f26b83ff96e1f2b6a682f133852f6798a09c465da95921460cefb38474024989060200160405180910390a15b505050505050505050565b73FB7196D25e3CC94750cd6bB3c0263AE27621838f636d51f04360666123d1612537565b6040516001600160e01b031960e085901b16815260048101929092526001600160a01b0316602482015260448101849052606401610f68565b6000816001600160a01b031661241e612537565b6001600160a01b0316635aa6e6756040518163ffffffff1660e01b8152600401602060405180830381865afa15801561245b573d6000803e3d6000fd5b505050506040513d601f19601f8201168201806040525081019061247f9190615483565b6001600160a01b03161492915050565b73FB7196D25e3CC94750cd6bB3c0263AE27621838f63493f6edc6124b1612537565b6040518263ffffffff1660e01b81526004016124cd91906148f3565b60006040518083038186803b1580156124e557600080fd5b505af41580156124f9573d6000803e3d6000fd5b5050604051630593c4c960e01b815273f92Bb260C7Cafcf6D69563EDF5ff2A11ec8df4A99250630593c4c99150610f6890600690859060040161559d565b600061082c6105e560017f5165972ef41194f06c5007493031d0b927c20741adcb74403b954009fd2c3618615118565b609a54604051633934e59d60e11b8152600160048201526001600160a01b0390911660248201526000907372FcDC97699F53C5A0679Bfe24e38c5c99A6471a90637269cb3a90604401602060405180830381865af41580156125cd573d6000803e3d6000fd5b505050506040513d601f19601f8201168201806040525081019061082c91906155b1565b60006001600160e01b0319821663c19fa56160e01b148061087157506108718261317b565b6000806126236001612ba4565b92508290506126306107a6565b61263a9190615118565b600554909150630100000090046001600160801b03168015612663576126618160006131b0565b505b509091565b8051600214801561267e575061267c612697565b155b1561268f5761268c81613249565b50505b6110b8612f95565b60065460009061082c9060ff166132d6565b60008060006126b9600019612aae565b925092509250909192565b6000816001600160a01b0316634046ebae6040518163ffffffff1660e01b8152600401602060405180830381865afa158015612704573d6000803e3d6000fd5b505050506040513d601f19601f820116820180604052508101906108719190615483565b606654600090606090819083908190612749906001600160a01b03166132f3565b9150915073C297e5AdaD574f03C361467093dCBC63DC3B9F10637325f33f836127718561335f565b609a546040516001600160e01b031960e086901b1681526127a793929187916001600160a01b0390911690600190600401615607565b600060405180830381865af41580156127c4573d6000803e3d6000fd5b505050506040513d6000823e601f3d908101601f191682016040526127ec9190810190615655565b9450945094505050909192565b60608060008060006128096133dd565b609a54929550909350915073C297e5AdaD574f03C361467093dCBC63DC3B9F109063e99de4da906001600160a01b0316612841613468565b8686866040518663ffffffff1660e01b81526004016128649594939291906156c1565b600060405180830381865af4158015612881573d6000803e3d6000fd5b505050506040513d6000823e601f3d908101601f191682016040526128a9919081019061572b565b90969095509350505050565b6000806000806128c56001612ba4565b915091506128d2856134fc565b612a2c5760008060008060006128e66135af565b9450945094509450945060006128fa612728565b50509050600061294c8c801561290f57508215155b80156129365750609b54620186a0906129299085906153cb565b61293391906153e2565b86115b612941576000612943565b855b89846001613682565b9150612990905061295d8684614ec1565b6066548390612974906001600160a01b0316612f25565b6099546129819190614ec1565b61298b9190614ec1565b6138cf565b909b509950604080518a8152602081018a905290810188905260608101879052608081018c905260a081018b905260c0810185905260e081018490527ff87a9dead982c86370b885093f79ded2c9a614d95d83c0c20f68e13e3b9b7d3f906101000160405180910390a1612a16612a07888d614ec1565b612a118587614ec1565b6138ff565b9a50612a22868b614ec1565b9950505050505050505b609a546066546040516323c1ae5960e11b815273C297e5AdaD574f03C361467093dCBC63DC3B9F10926347835cb292612a77926001600160a01b039283169290911690600401615021565b60006040518083038186803b158015612a8f57600080fd5b505af4158015612aa3573d6000803e3d6000fd5b505050505050915091565b6000806000806000612ac06001612ba4565b91509150612acf868284613919565b5091989097509095509350505050565b6000612ae9613b26565b90507f768a28cb3459382a3d2173feb2dad0235f8de680b109872da581a3aa269fe5f481604051612b1a919061495f565b60405180910390a16110b8612f95565b612b32613468565b604083018190526001600160a01b038085166020850152609a54168352612b599084613bad565b6060830152612b6783612f25565b608083015280612b91576040820151606654612b8c91906001600160a01b0316613bad565b612b97565b81606001515b60a0909201919091525050565b6000808215612c61576066546000908190612bc7906001600160a01b03166132f3565b9150915073C297e5AdaD574f03C361467093dCBC63DC3B9F10633643611860996066612bf28661335f565b86866040518663ffffffff1660e01b8152600401612c14959493929190615784565b6040805180830381865af4158015612c30573d6000803e3d6000fd5b505050506040513d601f19601f82011682018060405250810190612c5491906157c8565b9094509250612c69915050565b505060995460005b915091565b604080516001600160a01b038416602482015260448082018490528251808303909101815260649091019091526020810180516001600160e01b031663a9059cbb60e01b179052611d7e908490613c0b565b600080612cdd6005546001600160801b0363010000009091041690565b90506000612cea8261304f565b9050600073C297e5AdaD574f03C361467093dCBC63DC3B9F10630252e2c78787604001518860600151896000015187898c60a001516040518863ffffffff1660e01b8152600401612d4197969594939291906157ec565b602060405180830381865af4158015612d5e573d6000803e3d6000fd5b505050506040513d601f19601f82011682018060405250810190612d829190614e92565b90508015612df4576000612d978260006131b0565b600554909150630100000090046001600160801b0316612db79085615118565b91507faebc771af58936b05e89b0be7d3f9761480181abcd4a649fbdd01753fda169708282604051612dea929190615844565b60405180910390a1505b6000731E26533D45EBf5147Da62cA0E9C7875798F5632463c432aee1876040015188606001518960000151612e2f612e2a612537565b6126c4565b6000198d14612e4d578c8c60800151612e489190614ec1565b612e4f565b8c5b60986040518763ffffffff1660e01b8152600401612e729695949392919061585d565b602060405180830381865af4158015612e8f573d6000803e3d6000fd5b505050506040513d601f19601f82011682018060405250810190612eb39190614e92565b905085608001518110156040518060400160405280601681526020017554532d32302062616c616e636520646563726561736560501b81525090612f0a5760405162461bcd60e51b815260040161110e9190614a98565b506080860151612f1a9082615118565b979650505050505050565b6040516370a0823160e01b81526000906001600160a01b038316906370a0823190612f549030906004016148f3565b602060405180830381865afa158015612f71573d6000803e3d6000fd5b505050506040513d601f19601f820116820180604052508101906108719190614e92565b6000612f9f612728565b50506099819055919050565b6000612fb5612697565b1561303e576040805160028082526060820183526000926020830190803683370190505090508381600081518110612fef57612fef615173565b6020026020010181815250507f59400c8c523464b521238ea8f50e923f2bc64663557e6afec92a97f7efe92d05818260405161302c9291906158a0565b60405180910390a16000915050610871565b6130488383613cdd565b9050610871565b60405163a7aced0960e01b8152600160048201526001600160801b03821660248201526060907372FcDC97699F53C5A0679Bfe24e38c5c99A6471a9063a7aced0990604401600060405180830381865af41580156130b1573d6000803e3d6000fd5b505050506040513d6000823e601f3d908101601f1916820160405261087191908101906150e4565b600054610100900460ff166131005760405162461bcd60e51b815260040161110e906158c5565b61310a8383613d06565b609a80546001600160a01b0319166001600160a01b0383161790556131336064620186a06153e2565b609b557fe4166dfcf23bbd3e3f764a99dc8fa740554c03c82d6019b81cf265f396f6f2fe6131656064620186a06153e2565b60405190815260200160405180910390a1505050565b60006001600160e01b0319821663b7b79fa960e01b148061087157506301ffc9a760e01b6001600160e01b0319831614610871565b60405163c6f740c160e01b8152600160048201526001600160801b038316602482015281151560448201526060907372FcDC97699F53C5A0679Bfe24e38c5c99A6471a9063c6f740c190606401600060405180830381865af415801561321a573d6000803e3d6000fd5b505050506040513d6000823e601f3d908101601f1916820160405261324291908101906150e4565b9392505050565b606060007372FcDC97699F53C5A0679Bfe24e38c5c99A6471a631738a44d6001856040518363ffffffff1660e01b8152600401613287929190615844565b600060405180830381865af41580156132a4573d6000803e3d6000fd5b505050506040513d6000823e601f3d908101601f191682016040526132cc9190810190615910565b9094909350915050565b600060018260038111156132ec576132ec61512b565b1192915050565b606060006132ff613468565b915061330b8284613bad565b90506000198114156040518060400160405280600f81526020016e53423a2057726f6e672076616c756560881b815250906133595760405162461bcd60e51b815260040161110e9190614a98565b50915091565b6060600061337d6005546001600160801b0363010000009091041690565b905080156133935761338e8161304f565b613242565b82516001600160401b038111156133ac576133ac614726565b6040519080825280602002602001820160405280156133d5578160200160208202803683370190505b509392505050565b60405163b0a79a5360e01b815260016004820152606090819081907372FcDC97699F53C5A0679Bfe24e38c5c99A6471a9063b0a79a5390602401600060405180830381865af4158015613434573d6000803e3d6000fd5b505050506040513d6000823e601f3d908101601f1916820160405261345c9190810190615956565b91959094509092509050565b6040805160028082526060808301845292602083019080368337505060035482519293506001600160a01b0316918391506000906134a8576134a8615173565b6001600160a01b0392831660209182029290920101526004548251911690829060019081106134d9576134d9615173565b60200260200101906001600160a01b031690816001600160a01b03168152505090565b6000613506612567565b156040518060400160405280601381526020017250532d31204e65656420726562616c616e636560681b815250906135515760405162461bcd60e51b815260040161110e9190614a98565b5061355a612697565b156040518060400160405280601481526020017350532d313420467573652069732061637469766560601b815250906135a65760405162461bcd60e51b815260040161110e9190614a98565b50600092915050565b60008060008060008060006135c26127f9565b60665491935091506001600160a01b03167372FcDC97699F53C5A0679Bfe24e38c5c99A6471a6334d2ec3d826135f6612537565b86866040518563ffffffff1660e01b815260040161361794939291906159a4565b602060405180830381865af4158015613634573d6000803e3d6000fd5b505050506040513d601f19601f820116820180604052508101906136589190614e92565b97506136648383613daf565b60009850909550935061367681612f25565b95505050509091929394565b60665460009081906001600160a01b0316818688116136a25760006136ac565b6136ac8789615118565b90506000620186a0876099600201546136c591906153cb565b6136cf91906153e2565b8211905060006136de84612f25565b6001600160a01b03851660009081526098602052604090205490915061370390613e5a565b8911156137f25781806137165750888110155b156137de5760675473C297e5AdaD574f03C361467093dCBC63DC3B9F109063890ffb849086908c906001600160a01b0316613751868e614ec1565b6040516001600160e01b031960e087901b1681526001600160a01b03948516600482015260248101939093529216604482015260648101919091526084810184905260a4016040805180830381865af41580156137b2573d6000803e3d6000fd5b505050506040513d601f19601f820116820180604052508101906137d691906157c8565b5094506137f2565b6137ea60008a8a613919565b909850965050505b81156138b657600080613804866132f3565b609a549193509150600090613824906001600160a01b0316878585613e72565b905061382f81614129565b61387c57600061383e82613249565b5090507f59400c8c523464b521238ea8f50e923f2bc64663557e6afec92a97f7efe92d0582826040516138729291906158a0565b60405180910390a1505b6000613886612f95565b90506138a9613895868e614ec1565b8a61389f8b612f25565b6129819085614ec1565b9a506138c2945050505050565b86156138c25760998890555b5050505094509492505050565b600080838311156138eb576138e48484615118565b91506138f8565b6138f58385615118565b90505b9250929050565b600081831161390f576000613242565b6132428284615118565b6000806000806000600019881461395d57620186a061393a6103e882614ec1565b613944898b614ec1565b61394e91906153cb565b61395891906153e2565b61395f565b875b905061396a81614175565b801580159061397857508515155b15613b1c5761398561469c565b60665461399d906001600160a01b0316826001612b2a565b80516020820151604051637a55caf360e01b815273C297e5AdaD574f03C361467093dCBC63DC3B9F1092637a55caf3926139d992600401615021565b602060405180830381865af41580156139f6573d6000803e3d6000fd5b505050506040513d601f19601f82011682018060405250810190613a1a9190614e92565b9450670de0b6b3a764000085613a39613a338585612cc0565b8b6138ff565b613a4391906153cb565b613a4d91906153e2565b6067546020830151608084015192985073C297e5AdaD574f03C361467093dCBC63DC3B9F1092632ce30333926001600160a01b031691908b908d613a8f612f95565b6040516001600160e01b031960e089901b1681526001600160a01b03968716600482015295909416602486015260448501929092526064840152608483015260a482015260c4016040805180830381865af4158015613af2573d6000803e3d6000fd5b505050506040513d601f19601f82011682018060405250810190613b1691906157c8565b94509250505b5093509350935093565b60606000613b446005546001600160801b0363010000009091041690565b90508015613b5c57613b578160016131b0565b613ba7565b613b64613468565b516001600160401b03811115613b7c57613b7c614726565b604051908082528060200260200182016040528015613ba5578160200160208202803683370190505b505b91505090565b8151600090815b81811015613bff57836001600160a01b0316858281518110613bd857613bd8615173565b60200260200101516001600160a01b031603613bf75791506108719050565b600101613bb4565b50600019949350505050565b6000613c60826040518060400160405280602081526020017f5361666545524332303a206c6f772d6c6576656c2063616c6c206661696c6564815250856001600160a01b03166141c89092919063ffffffff16565b805190915015611d7e5780806020019051810190613c7e91906155b1565b611d7e5760405162461bcd60e51b815260206004820152602a60248201527f5361666545524332303a204552433230206f7065726174696f6e20646964206e6044820152691bdd081cdd58d8d9595960b21b606482015260840161110e565b6000806000613ceb84612ba4565b91509150613cfc8582846000613682565b5095945050505050565b600054610100900460ff16613d2d5760405162461bcd60e51b815260040161110e906158c5565b613d57817fd2de0374d4479f33e63ae5ed6ca772a10463dd883a90c612050b51fab61964006141df565b613d6082614235565b604051631797527d60e01b8152606660048201526001600160a01b0380841660248301528216604482015273FB7196D25e3CC94750cd6bB3c0263AE27621838f90631797527d906064016117dc565b60008083516000146138f857731E26533D45EBf5147Da62cA0E9C7875798F56324635dcb613060666099613de1613468565b613de9612537565b60988a8a6040518863ffffffff1660e01b8152600401613e0f97969594939291906159e2565b6040805180830381865af4158015613e2b573d6000803e3d6000fd5b505050506040513d601f19601f82011682018060405250810190613e4f91906157c8565b909590945092505050565b60008115613e685781610871565b620186a092915050565b6060613e7c612567565b156040518060400160405280601381526020017250532d31204e65656420726562616c616e636560681b81525090613ec75760405162461bcd60e51b815260040161110e9190614a98565b506001546004805460405163023d846360e01b81526001600160a01b0390931691830191909152600160c81b8104600290810b6024840152600160e01b8204900b6044830152600160a81b900460ff161515606482015260009081907372FcDC97699F53C5A0679Bfe24e38c5c99A6471a9063023d8463906084016040805180830381865af4158015613f5e573d6000803e3d6000fd5b505050506040513d601f19601f82011682018060405250810190613f8291906157c8565b6003546004549294509092506001600160a01b0390811691730b5d3Ac33f98f2A5B4c2741Fa8fEbAE2130F3bC791631c2040d5918b918b91869116613fc7888a614ec1565b613fd98a670de0b6b3a76400006153cb565b613fe391906153e2565b60405160e087901b6001600160e01b03191681526001600160a01b0395861660048201526024810194909452918416604484015290921660648201526084810191909152609860a482015260c401600060405180830381865af415801561404e573d6000803e3d6000fd5b505050506040513d6000823e601f3d908101601f1916820160405261407691908101906150e4565b9350806001600160a01b03168660008151811061409557614095615173565b60200260200101516001600160a01b03161461411e57836001815181106140be576140be615173565b6020026020010151846000815181106140d9576140d9615173565b6020026020010151856000815181106140f4576140f4615173565b602002602001018660018151811061410e5761410e615173565b6020908102919091010191909152525b505050949350505050565b8051600090815b8181101561416b5783818151811061414a5761414a615173565b6020026020010151600003614163575060019392505050565b600101614130565b5060009392505050565b61417d612567565b156040518060400160405280601381526020017250532d31204e65656420726562616c616e636560681b815250906110b85760405162461bcd60e51b815260040161110e9190614a98565b60606141d7848460008561445a565b949350505050565b6141e9828261452a565b6110b85760405162461bcd60e51b815260206004820152601a60248201527f496e74657266616365206973206e6f7420737570706f72746564000000000000604482015260640161110e565b600054610100900460ff1661425c5760405162461bcd60e51b815260040161110e906158c5565b6001600160a01b0381166142a45760405162461bcd60e51b815260206004820152600f60248201526e2d32b9379031b7b73a3937b63632b960891b604482015260640161110e565b6142ce817f4c2403fdcb3cff9b705d96bf0705858e3390412670a62c8bcba611ca7e20ab866141df565b60006001600160a01b0316816001600160a01b0316635aa6e6756040518163ffffffff1660e01b8152600401602060405180830381865afa158015614317573d6000803e3d6000fd5b505050506040513d601f19601f8201168201806040525081019061433b9190615483565b6001600160a01b0316036143835760405162461bcd60e51b815260206004820152600f60248201526e5a65726f20676f7665726e616e636560881b604482015260640161110e565b6143b2816111e560017f5165972ef41194f06c5007493031d0b927c20741adcb74403b954009fd2c3618615118565b6143e1426111e560017f6f55f470bdc9cb5f04223fd822021061668e4dccb43e8727b295106dc9769c8b615118565b614410436111e560017f812a673dfca07956350df10f8a654925f561d7a0da09bdbe79e653939a14d9f1615118565b604080516001600160a01b0383168152426020820152438183015290517f1a2dd071001ebf6e03174e3df5b305795a4ad5d41d8fdb9ba41dbbe2367134269181900360600190a150565b6060824710156144bb5760405162461bcd60e51b815260206004820152602660248201527f416464726573733a20696e73756666696369656e742062616c616e636520666f6044820152651c8818d85b1b60d21b606482015260840161110e565b600080866001600160a01b031685876040516144d79190615a4b565b60006040518083038185875af1925050503d8060008114614514576040519150601f19603f3d011682016040523d82523d6000602084013e614519565b606091505b5091509150612f1a878383876145fe565b60006001600160a01b0383166145715760405162461bcd60e51b815260206004820152600c60248201526b5a65726f206164647265737360a01b604482015260640161110e565b823b6000819003614586576000915050610871565b6040516301ffc9a760e01b81526001600160e01b0319841660048201526001600160a01b038516906301ffc9a790602401602060405180830381865afa9250505080156145f0575060408051601f3d908101601f191682019092526145ed918101906155b1565b60015b1561416b5791506108719050565b6060831561466d578251600003614666576001600160a01b0385163b6146665760405162461bcd60e51b815260206004820152601d60248201527f416464726573733a2063616c6c20746f206e6f6e2d636f6e7472616374000000604482015260640161110e565b50816141d7565b6141d783838151156146825781518083602001fd5b8060405162461bcd60e51b815260040161110e9190614a98565b6040518060c0016040528060006001600160a01b0316815260200160006001600160a01b03168152602001606081526020016000815260200160008152602001600081525090565b6000602082840312156146f657600080fd5b81356001600160e01b03198116811461324257600080fd5b6001600160a01b038116811461472357600080fd5b50565b634e487b7160e01b600052604160045260246000fd5b604051601f8201601f191681016001600160401b038111828210171561476457614764614726565b604052919050565b60006001600160401b0382111561478557614785614726565b50601f01601f191660200190565b600082601f8301126147a457600080fd5b81356147b76147b28261476c565b61473c565b8181528460208386010111156147cc57600080fd5b816020850160208301376000918101602001919091529392505050565b60008060008060008060c0878903121561480257600080fd5b863561480d8161470e565b9550602087013561481d8161470e565b94506040870135935060608701356001600160401b038082111561484057600080fd5b61484c8a838b01614793565b9450608089013591508082111561486257600080fd5b5061486f89828a01614793565b92505060a087013590509295509295509295565b6000806040838503121561489657600080fd5b82356148a18161470e565b946020939093013593505050565b801515811461472357600080fd5b6000602082840312156148cf57600080fd5b8135613242816148af565b6000602082840312156148ec57600080fd5b5035919050565b6001600160a01b0391909116815260200190565b60006020828403121561491957600080fd5b81356132428161470e565b600081518084526020808501945080840160005b8381101561495457815187529582019590820190600101614938565b509495945050505050565b6020815260006132426020830184614924565b600081518084526020808501945080840160005b83811015614954578151151587529582019590820190600101614986565b6080808252855190820181905260009060209060a0840190828901845b828110156149e65781516001600160a01b0316845292840192908401906001016149c1565b5050508381038285015286518082528783019183019060005b81811015614a1e57835160020b835292840192918401916001016149ff565b50508481036040860152614a328188614924565b925050508281036060840152612f1a8185614972565b60005b83811015614a63578181015183820152602001614a4b565b50506000910152565b60008151808452614a84816020860160208601614a48565b601f01601f19169290920160200192915050565b6020815260006132426020830184614a6c565b60008083601f840112614abd57600080fd5b5081356001600160401b03811115614ad457600080fd5b6020830191508360208285010111156138f857600080fd5b60008060208385031215614aff57600080fd5b82356001600160401b03811115614b1557600080fd5b6128a985828601614aab565b600080600060608486031215614b3657600080fd5b833592506020840135614b488161470e565b929592945050506040919091013590565b60006001600160401b03821115614b7257614b72614726565b5060051b60200190565b600082601f830112614b8d57600080fd5b81356020614b9d6147b283614b59565b82815260059290921b84018101918181019086841115614bbc57600080fd5b8286015b84811015614bd75780358352918301918301614bc0565b509695505050505050565b60008060408385031215614bf557600080fd5b82356001600160401b0380821115614c0c57600080fd5b818501915085601f830112614c2057600080fd5b81356020614c306147b283614b59565b82815260059290921b84018101918181019089841115614c4f57600080fd5b948201945b83861015614c76578535614c678161470e565b82529482019490820190614c54565b96505086013592505080821115614c8c57600080fd5b50614c9985828601614b7c565b9150509250929050565b60008060008060608587031215614cb957600080fd5b843593506020850135925060408501356001600160401b03811115614cdd57600080fd5b614ce987828801614aab565b95989497509550505050565b60008060408385031215614d0857600080fd5b823591506020830135614d1a816148af565b809150509250929050565b600060208284031215614d3757600080fd5b81356001600160401b03811115614d4d57600080fd5b611f6984828501614793565b8060020b811461472357600080fd5b600080600080600080600080610160898b031215614d8557600080fd5b8835614d908161470e565b97506020890135614da08161470e565b96506040890135614db08161470e565b95506060890135614dc08161470e565b94506080890135614dd081614d59565b935060a0890135614de081614d59565b925061014089018a811115614df457600080fd5b60c08a01925035614e048161470e565b809150509295985092959890939650565b600060808284031215614e2757600080fd5b82601f830112614e3657600080fd5b604051608081018181106001600160401b0382111715614e5857614e58614726565b604052806080840185811115614e6d57600080fd5b845b81811015614e87578035835260209283019201614e6f565b509195945050505050565b600060208284031215614ea457600080fd5b5051919050565b634e487b7160e01b600052601160045260246000fd5b8082018082111561087157610871614eab565b8060005b600481101561172c578151845260209384019390910190600101614ed8565b60006101c089835260208084018a60005b6005811015614f2e5781516001600160a01b031683529183019190830190600101614f08565b50505050614f3f60c0840189614ed4565b80610140840152614f5281840188614a6c565b9050828103610160840152614f678187614a6c565b61018084019590955250506101a0015295945050505050565b600082601f830112614f9157600080fd5b81516020614fa16147b283614b59565b82815260059290921b84018101918181019086841115614fc057600080fd5b8286015b84811015614bd75780518352918301918301614fc4565b60008060408385031215614fee57600080fd5b8251614ff9816148af565b60208401519092506001600160401b0381111561501557600080fd5b614c9985828601614f80565b6001600160a01b0392831681529116602082015260400190565b6001600160a01b039586168152602081019490945260408401929092526060830152909116608082015260a00190565b8881526020808201899052610120820190604083018960005b60028110156150aa5781516001600160a01b031683529183019190830190600101615084565b50505050608082019690965260a08101949094526001600160a01b039290921660c0840152151560e0830152610100909101529392505050565b6000602082840312156150f657600080fd5b81516001600160401b0381111561510c57600080fd5b611f6984828501614f80565b8181038181111561087157610871614eab565b634e487b7160e01b600052602160045260246000fd5b828152604081016004831061516657634e487b7160e01b600052602160045260246000fd5b8260208301529392505050565b634e487b7160e01b600052603260045260246000fd5b600082601f83011261519a57600080fd5b815160206151aa6147b283614b59565b82815260059290921b840181019181810190868411156151c957600080fd5b8286015b84811015614bd75780516151e08161470e565b83529183019183016151cd565b600082601f8301126151fe57600080fd5b8151602061520e6147b283614b59565b82815260059290921b8401810191818101908684111561522d57600080fd5b8286015b84811015614bd7578051615244816148af565b8352918301918301615231565b6000806000806080858703121561526757600080fd5b84516001600160401b038082111561527e57600080fd5b61528a88838901615189565b95506020915081870151818111156152a157600080fd5b8701601f810189136152b257600080fd5b80516152c06147b282614b59565b81815260059190911b8201840190848101908b8311156152df57600080fd5b928501925b828410156153065783516152f781614d59565b825292850192908501906152e4565b60408b015190985094505050508082111561532057600080fd5b61532c88838901614f80565b9350606087015191508082111561534257600080fd5b5061534f878288016151ed565b91505092959194509250565b600181811c9082168061536f57607f821691505b60208210810361538f57634e487b7160e01b600052602260045260246000fd5b50919050565b83815260406020820152816040820152818360608301376000818301606090810191909152601f909201601f1916010192915050565b808202811582820484141761087157610871614eab565b6000826153ff57634e487b7160e01b600052601260045260246000fd5b500490565b86815260c06020820152600061541d60c0830188614a6c565b828103604084015261542f8188614924565b6001600160a01b0396871660608501529490951660808301525060a00152949350505050565b6000806040838503121561546857600080fd5b82516154738161470e565b6020939093015192949293505050565b60006020828403121561549557600080fd5b81516132428161470e565b868152610160810160208083018860005b60038110156154d75781516001600160a01b0316835291830191908301906001016154b1565b505050508560020b60808301528460020b60a083015260018060a01b03841660c083015260808360e0840137979650505050505050565b60006020828403121561552057600080fd5b81516001600160401b0381111561553657600080fd5b8201601f8101841361554757600080fd5b80516155556147b28261476c565b81815285602083850101111561556a57600080fd5b61557b826020830160208601614a48565b95945050505050565b8281526040602082015260006141d76040830184614a6c565b82815260a081016132426020830184614ed4565b6000602082840312156155c357600080fd5b8151613242816148af565b600081518084526020808501945080840160005b838110156149545781516001600160a01b0316875295820195908201906001016155e2565b60a08152600061561a60a08301886155ce565b828103602084015261562c8188614924565b604084019690965250506001600160a01b03929092166060830152151560809091015292915050565b60008060006060848603121561566a57600080fd5b8351925060208401516001600160401b038082111561568857600080fd5b61569487838801614f80565b935060408601519150808211156156aa57600080fd5b506156b786828701614f80565b9150509250925092565b6001600160a01b038616815260a0602082018190526000906156e5908301876155ce565b82810360408401526156f781876155ce565b9050828103606084015261570b8186614924565b9050828103608084015261571f8185614924565b98975050505050505050565b6000806040838503121561573e57600080fd5b82516001600160401b038082111561575557600080fd5b61576186838701615189565b9350602085015191508082111561577757600080fd5b50614c9985828601614f80565b85815284602082015260a0604082015260006157a360a0830186614924565b82810360608401526157b581866155ce565b9150508260808301529695505050505050565b600080604083850312156157db57600080fd5b505080516020909101519092909150565b87815260e06020820152600061580560e08301896155ce565b604083018890526001600160a01b0387166060840152828103608084015261582d8187614924565b60a0840195909552505060c0015295945050505050565b8281526040602082015260006141d76040830184614924565b60c08152600061587060c08301896155ce565b6020830197909752506001600160a01b039485166040820152929093166060830152608082015260a00152919050565b6040815260006158b36040830185614924565b828103602084015261557b8185614924565b6020808252602b908201527f496e697469616c697a61626c653a20636f6e7472616374206973206e6f74206960408201526a6e697469616c697a696e6760a81b606082015260800190565b6000806040838503121561592357600080fd5b82516001600160401b0381111561593957600080fd5b61594585828601614f80565b925050602083015190509250929050565b60008060006060848603121561596b57600080fd5b83516001600160401b038082111561598257600080fd5b61598e87838801615189565b9450602086015191508082111561568857600080fd5b6001600160a01b038581168252841660208201526080604082018190526000906159d0908301856155ce565b8281036060840152612f1a8185614924565b87815286602082015260e060408201526000615a0160e08301886155ce565b6001600160a01b03871660608401526080830186905282810360a0840152615a2981866155ce565b905082810360c0840152615a3d8185614924565b9a9950505050505050505050565b60008251615a5d818460208701614a48565b919091019291505056fea2646970667358221220d5ff93f3488e4b53f229b549a98b995636e15b19a3af9dfac5464621d185893f64736f6c63430008110033",
  "deployedBytecode": "0x608060405234801561001057600080fd5b50600436106103495760003560e01c80636ffb4c8e116101c9578063ab9e3eee116100ff578063ce2f1842116100ad578063dee1f0e41161007c578063dee1f0e414610770578063dfeb103214610783578063f77c479114610796578063ffb86c6a1461079e57600080fd5b8063ce2f184214610729578063ceee861d14610731578063d295ea7014610755578063de3d047c1461075d57600080fd5b8063ab9e3eee14610694578063b24575561461069c578063b429afeb146106af578063b77c975b146106c2578063bd38837b146106f4578063c6b040ec14610705578063cd4c81561461071857600080fd5b80637efc77fa1161017757806396b7b14e1161014657806396b7b14e1461062a57806399eee9d01461063d5780639d0bcca014610650578063a3f4df7e1461065857600080fd5b80637efc77fa146105e9578063877887821461060f57806387c7f77014610617578063936725ec1461058b57600080fd5b80636ffb4c8e1461055d5780637063a2371461057057806371ee01751461058357806373a50ef51461058b57806378327438146105af5780637cc96380146105cf5780637eba7ba6146105d757600080fd5b80634ad0b6841161029e5780635412335d1161024c5780636207a0cf1161021b5780636207a0cf146104ef57806363e27734146105135780636af28d4c146105265780636b5fba5a1461054a57600080fd5b80635412335d146104b057806354679963146104c85780635641ec03146104dd5780635cfc1a51146104e557600080fd5b80634ad0b684146104405780634ba31b01146104485780634e71d92d146104505780634fa5d854146104585780634fac6ccd1461047557806351e03fbe1461048857806352bbbb741461049b57600080fd5b8063261efa12116102fb578063261efa12146103e2578063325a19f1146103ea57806333c5b58e146103f257806338d52e0f146103fa5780633cd8045e1461041457806342fdb471146104255780634593144c1461043857600080fd5b806301e1d1141461034e57806301ffc9a714610369578063066a6fc31461038c5780630acd12c71461039f5780630e30428d146103a75780631d2dca9e146103bc5780632221eb3c146103cf575b600080fd5b6103566107a6565b6040519081526020015b60405180910390f35b61037c6103773660046146e4565b610831565b6040519015158152602001610360565b61037c61039a3660046147e9565b610877565b610356610a57565b6103ba6103b5366004614883565b610b79565b005b6103ba6103ca3660046148bd565b610c1d565b6103ba6103dd3660046148da565b610d86565b606a54610356565b610356610dfc565b610356610e2c565b6066546001600160a01b03165b60405161036091906148f3565b6067546001600160a01b0316610407565b6103ba6104333660046148da565b610eac565b610356610f9b565b609954610356565b610356610fcb565b6103ba611042565b6104606110bc565b60408051928352602083019190915201610360565b6103ba610483366004614907565b61112a565b6103566104963660046148da565b61125c565b6104a3611424565b604051610360919061495f565b6104b8611574565b60405161036094939291906149a4565b6104d0611603565b6040516103609190614a98565b6103ba611698565b600160ff1b610356565b6104d060405180604001604052806005815260200164312e302e3160d81b81525081565b6103ba610521366004614aec565b611732565b6104d0604051806040016040528060058152602001640312e302e360dc1b81525081565b6103ba610558366004614907565b611810565b6103ba61056b3660046148da565b6118a1565b6103ba61057e366004614b21565b611929565b609b54610356565b6104d060405180604001604052806005815260200164332e302e3160d81b81525081565b6103566105bd366004614907565b60986020526000908152604090205481565b6103566119c7565b6103566105e53660046148da565b5490565b6104d06040518060400160405280600781526020016650616e63616b6560c81b81525081565b606954610356565b610356610625366004614883565b6119f7565b6103ba610638366004614be2565b611cde565b6103ba61064b366004614ca3565b611d83565b610407611e74565b6104d06040518060400160405280601a81526020017f50616e63616b6520436f6e76657274657220537472617465677900000000000081525081565b61037c611ea4565b6103566106aa366004614cf5565b611ec4565b61037c6106bd366004614907565b611f73565b6106d56106d0366004614d25565b611f98565b604080516001600160a01b039093168352602083019190915201610360565b609a546001600160a01b0316610407565b6103ba610713366004614d68565b61208a565b6068546001600160a01b0316610407565b609c54610356565b6104d060405180604001604052806005815260200164332e312e3360d81b81525081565b606b54610356565b6103ba61076b3660046148da565b6123ad565b61037c61077e366004614907565b61240a565b6103ba610791366004614e15565b61248f565b610407612537565b61037c612567565b60006107b160995490565b6066546040516370a0823160e01b81526001600160a01b03909116906370a08231906107e19030906004016148f3565b602060405180830381865afa1580156107fe573d6000803e3d6000fd5b505050506040513d601f19601f820116820180604052508101906108229190614e92565b61082c9190614ec1565b905090565b60006001600160e01b03198216631e94dddf60e01b148061086257506001600160e01b0319821663f73147b360e01b145b806108715750610871826125f1565b92915050565b6000806000610884612616565b91509150606073__$9c9f15038526aca6e4490bc044d26e2f07$__63911ec05360996040518060a001604052808e6001600160a01b03166001600160a01b031681526020018d6001600160a01b03166001600160a01b031681526020016108e9612537565b6001600160a01b039081168252609a54811660208084019190915260675490911660409283015281516080810183528e8152908101899052808201889052606081018b905290516001600160e01b031960e086901b16815261095a939291908d908d90600190609890600401614ef7565b600060405180830381865af4158015610977573d6000803e3d6000fd5b505050506040513d6000823e601f3d908101601f1916820160405261099f9190810190614fdb565b90945090506109ad81612668565b60006010558380156109c257506109c2612697565b156109cd576001600f555b6066546040516368f9467b60e01b81526001600160a01b039091166004820152602481018390526099604482015273__$8f1afe7577f9ab973017c74eca19b86f3c$__906368f9467b9060640160006040518083038186803b158015610a3257600080fd5b505af4158015610a46573d6000803e3d6000fd5b505050505050509695505050505050565b606754606654604051633e53813360e11b81526000926001600160a01b03908116921690839073__$7dde4232fad0cb3c495beb9e735b7d0c63$__90637ca7026690610aa99086908690600401615021565b602060405180830381865af4158015610ac6573d6000803e3d6000fd5b505050506040513d601f19601f82011682018060405250810190610aea9190614e92565b90506000806000610af96126a9565b92509250925073__$7dde4232fad0cb3c495beb9e735b7d0c63$__639ad00ec2868686868b6040518663ffffffff1660e01b8152600401610b3e95949392919061503b565b60006040518083038186803b158015610b5657600080fd5b505af4158015610b6a573d6000803e3d6000fd5b50929998505050505050505050565b73__$8f1afe7577f9ab973017c74eca19b86f3c$__63142395ef610b9b612537565b6040516001600160e01b031960e084901b1681526001600160a01b03918216600482015290851660248201526044810184905260640160006040518083038186803b158015610be957600080fd5b505af4158015610bfd573d6000803e3d6000fd5b5050506001600160a01b0390921660009081526098602052604090205550565b6000610c27612537565b60405163124fdbb760e21b815290915073__$7dde4232fad0cb3c495beb9e735b7d0c63$__9063493f6edc90610c619084906004016148f3565b60006040518083038186803b158015610c7957600080fd5b505af4158015610c8d573d6000803e3d6000fd5b50505050600080610c9c612616565b60408051808201909152609a546001600160a01b03168152919350915060009073__$9c9f15038526aca6e4490bc044d26e2f07$__9063b6fda8139060999060019060208101610ceb8a6126c4565b6001600160a01b039081169091526067546040516001600160e01b031960e088901b168152610d2b959493928a928c929116908e9060989060040161506b565b600060405180830381865af4158015610d48573d6000803e3d6000fd5b505050506040513d6000823e601f3d908101601f19168201604052610d7091908101906150e4565b9050610d7b81612668565b505042601055505050565b73__$7dde4232fad0cb3c495beb9e735b7d0c63$__63493f6edc610da8612537565b6040518263ffffffff1660e01b8152600401610dc491906148f3565b60006040518083038186803b158015610ddc57600080fd5b505af4158015610df0573d6000803e3d6000fd5b505050600f9190915550565b600061082c6105e560017f6f55f470bdc9cb5f04223fd822021061668e4dccb43e8727b295106dc9769c8b615118565b600073__$7dde4232fad0cb3c495beb9e735b7d0c63$__63493f6edc610e50612537565b6040518263ffffffff1660e01b8152600401610e6c91906148f3565b60006040518083038186803b158015610e8457600080fd5b505af4158015610e98573d6000803e3d6000fd5b50505050610ea4612728565b509092915050565b73__$7dde4232fad0cb3c495beb9e735b7d0c63$__63493f6edc610ece612537565b6040518263ffffffff1660e01b8152600401610eea91906148f3565b60006040518083038186803b158015610f0257600080fd5b505af4158015610f16573d6000803e3d6000fd5b5073__$79fe6ec7a3db45dafbed12dca1c6dad764$__9250636bffb346915060069050836003811115610f4b57610f4b61512b565b6040518363ffffffff1660e01b8152600401610f68929190615141565b60006040518083038186803b158015610f8057600080fd5b505af4158015610f94573d6000803e3d6000fd5b5050505050565b600061082c6105e560017f812a673dfca07956350df10f8a654925f561d7a0da09bdbe79e653939a14d9f1615118565b604051630a3c2bb160e21b81526001600482015260009073__$9c9f15038526aca6e4490bc044d26e2f07$__906328f0aec490602401602060405180830381865af415801561101e573d6000803e3d6000fd5b505050506040513d601f19601f8201168201806040525081019061082c9190614e92565b73__$7dde4232fad0cb3c495beb9e735b7d0c63$__63d19cc38a611064612537565b6040518263ffffffff1660e01b815260040161108091906148f3565b60006040518083038186803b15801561109857600080fd5b505af41580156110ac573d6000803e3d6000fd5b505050506110b86127f9565b5050565b60675460408051808201909152600a81526914d08e8811195b9a595960b21b60208201526000918291906001600160a01b031633146111175760405162461bcd60e51b815260040161110e9190614a98565b60405180910390fd5b5061112260016128b5565b915091509091565b3330146111795760405162461bcd60e51b815260206004820152601b60248201527f496e637265617365207265766973696f6e20666f7262696464656e0000000000604482015260640161110e565b60006111a96105e560017f22573091f17911fb166032a3d9e0554aa73d31b7b7ddea4a4dd2995650af84bd615118565b6111b4906001614ec1565b90506111e8816111e560017f22573091f17911fb166032a3d9e0554aa73d31b7b7ddea4a4dd2995650af84bd615118565b55565b611217826111e560017fbfaaa2fb63266ff27c2da975f5894955056f50419af651a81f6c5060581857e4615118565b604080518281526001600160a01b03841660208201527ff27e2ef832a4eb8ed8ec553b875eecd44764cda95b1c24170e281539e0a869c8910160405180910390a15050565b606754606654604051633e53813360e11b81526000926001600160a01b03908116921690839073__$7dde4232fad0cb3c495beb9e735b7d0c63$__90637ca70266906112ae9086908690600401615021565b602060405180830381865af41580156112cb573d6000803e3d6000fd5b505050506040513d601f19601f820116820180604052508101906112ef9190614e92565b90508085111561139b5760008061130e6113098489615118565b612aae565b604051631594b05b60e01b8152909850919350915073__$7dde4232fad0cb3c495beb9e735b7d0c63$__90631594b05b906113559087908790879087908c9060040161503b565b602060405180830381865af4158015611372573d6000803e3d6000fd5b505050506040513d601f19601f820116820180604052508101906113969190614e92565b925050505b6040516333bbb20360e11b815260048101869052602481018290526001600160a01b0380841660448301528416606482015273__$7dde4232fad0cb3c495beb9e735b7d0c63$__9063677764069060840160006040518083038186803b15801561140457600080fd5b505af4158015611418573d6000803e3d6000fd5b50505050505050919050565b600280546040805183815260608082018352936001600160a01b0390931692909160208301908036833750506003546040516370a0823160e01b81529294506001600160a01b0316916370a0823191506114829084906004016148f3565b602060405180830381865afa15801561149f573d6000803e3d6000fd5b505050506040513d601f19601f820116820180604052508101906114c39190614e92565b826000815181106114d6576114d6615173565b6020908102919091010152600480546040516370a0823160e01b81526001600160a01b03909116916370a0823191611510918591016148f3565b602060405180830381865afa15801561152d573d6000803e3d6000fd5b505050506040513d601f19601f820116820180604052508101906115519190614e92565b8260018151811061156457611564615173565b6020026020010181815250505090565b604051636e81b62960e01b81526001600482015260609081908190819073__$b1ba452cecccdd06eb05ace2d0a762c7e1$__90636e81b62990602401600060405180830381865af41580156115cd573d6000803e3d6000fd5b505050506040513d6000823e601f3d908101601f191682016040526115f59190810190615251565b935093509350935090919293565b6060606660060180546116159061535b565b80601f01602080910402602001604051908101604052809291908181526020018280546116419061535b565b801561168e5780601f106116635761010080835404028352916020019161168e565b820191906000526020600020905b81548152906001019060200180831161167157829003601f168201915b5050505050905090565b6116a0612adf565b73__$7dde4232fad0cb3c495beb9e735b7d0c63$__63bd0206826116c2612537565b60665460675460405160e085901b6001600160e01b03191681526001600160a01b039384166004820152918316602483015291909116604482015260640160006040518083038186803b15801561171857600080fd5b505af415801561172c573d6000803e3d6000fd5b50505050565b73__$7dde4232fad0cb3c495beb9e735b7d0c63$__63493f6edc611754612537565b6040518263ffffffff1660e01b815260040161177091906148f3565b60006040518083038186803b15801561178857600080fd5b505af415801561179c573d6000803e3d6000fd5b5050604051637fc1c15b60e01b815273__$7dde4232fad0cb3c495beb9e735b7d0c63$__9250637fc1c15b91506117dc9060669086908690600401615395565b60006040518083038186803b1580156117f457600080fd5b505af4158015611808573d6000803e3d6000fd5b505050505050565b73__$7dde4232fad0cb3c495beb9e735b7d0c63$__63493f6edc611832612537565b6040518263ffffffff1660e01b815260040161184e91906148f3565b60006040518083038186803b15801561186657600080fd5b505af415801561187a573d6000803e3d6000fd5b5050600280546001600160a01b0319166001600160a01b0394909416939093179092555050565b73__$8f1afe7577f9ab973017c74eca19b86f3c$__63d2c3cf256118c3612537565b6040516001600160e01b031960e084901b1681526001600160a01b0390911660048201526024810184905260440160006040518083038186803b15801561190957600080fd5b505af415801561191d573d6000803e3d6000fd5b505050609b9190915550565b73__$7dde4232fad0cb3c495beb9e735b7d0c63$__63ed6b63c16066858585611950612537565b6040516001600160e01b031960e088901b168152600481019590955260248501939093526001600160a01b039182166044850152606484015216608482015260a40160006040518083038186803b1580156119aa57600080fd5b505af41580156119be573d6000803e3d6000fd5b50505050505050565b600061082c6105e560017f22573091f17911fb166032a3d9e0554aa73d31b7b7ddea4a4dd2995650af84bd615118565b6000611a0161469c565b611a0d84826000612b2a565b805160408051808201909152600a81526914d08e8811195b9a595960b21b6020820152906001600160a01b03163314611a595760405162461bcd60e51b815260040161110e9190614a98565b5060408051808201909152601081526f54532d3234207a65726f2076616c756560801b602082015283611a9f5760405162461bcd60e51b815260040161110e9190614a98565b5060001981606001511415604051806040016040528060118152602001701514cb4c4d081ddc9bdb99c8185cdcd95d607a1b81525090611af25760405162461bcd60e51b815260040161110e9190614a98565b50600080611b006001612ba4565b608085015160405163513cfdb360e11b81526001600160a01b038a1660048201526024810191909152604481018390526064810182905260666084820152919350915073__$8f1afe7577f9ab973017c74eca19b86f3c$__9063a279fb669060a401602060405180830381865af4158015611b7f573d6000803e3d6000fd5b505050506040513d601f19601f82011682018060405250810190611ba39190614e92565b60808401526000620186a0611bba6103e882614ec1565b611bc490886153cb565b611bce91906153e2565b905080846080015110611bfa578351611bf2906001600160a01b0389169088612c6e565b859450611ccb565b82600003611c3557611c116103e8620186a0614ec1565b620186a08560800151611c2491906153cb565b611c2e91906153e2565b9450611ccb565b6000620186a0611c486103e860026153cb565b611c5590620186a0614ec1565b611c5f90896153cb565b611c6991906153e2565b9050611c84856080015182611c7e9190615118565b86612cc0565b506000611c9089612f25565b9050828111611cc457611ca86103e8620186a0614ec1565b611cb5620186a0836153cb565b611cbf91906153e2565b611cc6565b875b965050505b611cd3612f95565b505050505092915050565b609a5460408051808201909152600a81526914d08e8811195b9a595960b21b6020820152906001600160a01b03163314611d2b5760405162461bcd60e51b815260040161110e9190614a98565b5080518251146040518060400160405280600d81526020016c54532d3139206c656e6774687360981b81525090611d755760405162461bcd60e51b815260040161110e9190614a98565b50611d7e612f95565b505050565b60015460408051808201909152601981527f50532d3131204e6f742063616c6c6261636b2063616c6c6572000000000000006020820152906001600160a01b03163314611de35760405162461bcd60e51b815260040161110e9190614a98565b508315611e3157600454611e319033908690600160a81b900460ff16611e14576003546001600160a01b0316611e21565b6004546001600160a01b03165b6001600160a01b03169190612c6e565b821561172c5760045461172c9033908590600160a81b900460ff16611e61576004546001600160a01b0316611e21565b6003546001600160a01b03169190612c6e565b600061082c6105e560017fbfaaa2fb63266ff27c2da975f5894955056f50419af651a81f6c5060581857e4615118565b6000611eae612567565b15801561082c5750611ebe612697565b15905090565b6067546066546040516001625acc3160e01b03198152600092839273__$7dde4232fad0cb3c495beb9e735b7d0c63$__9263ffa533cf92611f16926001600160a01b0391821692911690600401615021565b602060405180830381865af4158015611f33573d6000803e3d6000fd5b505050506040513d601f19601f82011682018060405250810190611f579190614e92565b90508015611f6c57611f698184612fab565b91505b5092915050565b6000611f7d612537565b6001600160a01b0316826001600160a01b0316149050919050565b6005546000908190630100000090046001600160801b0316818115611fc557611fc08261304f565b611fe3565b60408051600280825260608201835290916020830190803683375050505b905073__$b1ba452cecccdd06eb05ace2d0a762c7e1$__6350d2e0ba6001878461200b612537565b609a546040516001600160e01b031960e088901b16815261203f95949392916001600160a01b031690609890600401615404565b6040805180830381865af415801561205b573d6000803e3d6000fd5b505050506040513d601f19601f8201168201806040525081019061207f9190615455565b935093505050915091565b600054610100900460ff16158080156120aa5750600054600160ff909116105b806120c45750303b1580156120c4575060005460ff166001145b6121275760405162461bcd60e51b815260206004820152602e60248201527f496e697469616c697a61626c653a20636f6e747261637420697320616c72656160448201526d191e481a5b9a5d1a585b1a5e995960921b606482015260840161110e565b6000805460ff19166001179055801561214a576000805461ff0019166101001790555b6121558989896130d9565b73__$9c9f15038526aca6e4490bc044d26e2f07$__63f6b4d56b600160405180606001604052808d6001600160a01b03166001600160a01b031681526020018a6001600160a01b03166001600160a01b03168152602001866001600160a01b03166001600160a01b031681525088888d6001600160a01b03166338d52e0f6040518163ffffffff1660e01b8152600401602060405180830381865afa158015612202573d6000803e3d6000fd5b505050506040513d601f19601f820116820180604052508101906122269190615483565b896040518763ffffffff1660e01b8152600401612248969594939291906154a0565b60006040518083038186803b15801561226057600080fd5b505af4158015612274573d6000803e3d6000fd5b505060405163bd85be2960e01b81526001600482015273__$7dde4232fad0cb3c495beb9e735b7d0c63$__9250637fc1c15b915060669073__$9c9f15038526aca6e4490bc044d26e2f07$__9063bd85be2990602401600060405180830381865af41580156122e7573d6000803e3d6000fd5b505050506040513d6000823e601f3d908101601f1916820160405261230f919081019061550e565b6040518363ffffffff1660e01b815260040161232c929190615584565b60006040518083038186803b15801561234457600080fd5b505af4158015612358573d6000803e3d6000fd5b5050505080156123a2576000805461ff0019169055604051600181527f7f26b83ff96e1f2b6a682f133852f6798a09c465da95921460cefb38474024989060200160405180910390a15b505050505050505050565b73__$7dde4232fad0cb3c495beb9e735b7d0c63$__636d51f04360666123d1612537565b6040516001600160e01b031960e085901b16815260048101929092526001600160a01b0316602482015260448101849052606401610f68565b6000816001600160a01b031661241e612537565b6001600160a01b0316635aa6e6756040518163ffffffff1660e01b8152600401602060405180830381865afa15801561245b573d6000803e3d6000fd5b505050506040513d601f19601f8201168201806040525081019061247f9190615483565b6001600160a01b03161492915050565b73__$7dde4232fad0cb3c495beb9e735b7d0c63$__63493f6edc6124b1612537565b6040518263ffffffff1660e01b81526004016124cd91906148f3565b60006040518083038186803b1580156124e557600080fd5b505af41580156124f9573d6000803e3d6000fd5b5050604051630593c4c960e01b815273__$79fe6ec7a3db45dafbed12dca1c6dad764$__9250630593c4c99150610f6890600690859060040161559d565b600061082c6105e560017f5165972ef41194f06c5007493031d0b927c20741adcb74403b954009fd2c3618615118565b609a54604051633934e59d60e11b8152600160048201526001600160a01b03909116602482015260009073__$9c9f15038526aca6e4490bc044d26e2f07$__90637269cb3a90604401602060405180830381865af41580156125cd573d6000803e3d6000fd5b505050506040513d601f19601f8201168201806040525081019061082c91906155b1565b60006001600160e01b0319821663c19fa56160e01b148061087157506108718261317b565b6000806126236001612ba4565b92508290506126306107a6565b61263a9190615118565b600554909150630100000090046001600160801b03168015612663576126618160006131b0565b505b509091565b8051600214801561267e575061267c612697565b155b1561268f5761268c81613249565b50505b6110b8612f95565b60065460009061082c9060ff166132d6565b60008060006126b9600019612aae565b925092509250909192565b6000816001600160a01b0316634046ebae6040518163ffffffff1660e01b8152600401602060405180830381865afa158015612704573d6000803e3d6000fd5b505050506040513d601f19601f820116820180604052508101906108719190615483565b606654600090606090819083908190612749906001600160a01b03166132f3565b9150915073__$8f1afe7577f9ab973017c74eca19b86f3c$__637325f33f836127718561335f565b609a546040516001600160e01b031960e086901b1681526127a793929187916001600160a01b0390911690600190600401615607565b600060405180830381865af41580156127c4573d6000803e3d6000fd5b505050506040513d6000823e601f3d908101601f191682016040526127ec9190810190615655565b9450945094505050909192565b60608060008060006128096133dd565b609a54929550909350915073__$8f1afe7577f9ab973017c74eca19b86f3c$__9063e99de4da906001600160a01b0316612841613468565b8686866040518663ffffffff1660e01b81526004016128649594939291906156c1565b600060405180830381865af4158015612881573d6000803e3d6000fd5b505050506040513d6000823e601f3d908101601f191682016040526128a9919081019061572b565b90969095509350505050565b6000806000806128c56001612ba4565b915091506128d2856134fc565b612a2c5760008060008060006128e66135af565b9450945094509450945060006128fa612728565b50509050600061294c8c801561290f57508215155b80156129365750609b54620186a0906129299085906153cb565b61293391906153e2565b86115b612941576000612943565b855b89846001613682565b9150612990905061295d8684614ec1565b6066548390612974906001600160a01b0316612f25565b6099546129819190614ec1565b61298b9190614ec1565b6138cf565b909b509950604080518a8152602081018a905290810188905260608101879052608081018c905260a081018b905260c0810185905260e081018490527ff87a9dead982c86370b885093f79ded2c9a614d95d83c0c20f68e13e3b9b7d3f906101000160405180910390a1612a16612a07888d614ec1565b612a118587614ec1565b6138ff565b9a50612a22868b614ec1565b9950505050505050505b609a546066546040516323c1ae5960e11b815273__$8f1afe7577f9ab973017c74eca19b86f3c$__926347835cb292612a77926001600160a01b039283169290911690600401615021565b60006040518083038186803b158015612a8f57600080fd5b505af4158015612aa3573d6000803e3d6000fd5b505050505050915091565b6000806000806000612ac06001612ba4565b91509150612acf868284613919565b5091989097509095509350505050565b6000612ae9613b26565b90507f768a28cb3459382a3d2173feb2dad0235f8de680b109872da581a3aa269fe5f481604051612b1a919061495f565b60405180910390a16110b8612f95565b612b32613468565b604083018190526001600160a01b038085166020850152609a54168352612b599084613bad565b6060830152612b6783612f25565b608083015280612b91576040820151606654612b8c91906001600160a01b0316613bad565b612b97565b81606001515b60a0909201919091525050565b6000808215612c61576066546000908190612bc7906001600160a01b03166132f3565b9150915073__$8f1afe7577f9ab973017c74eca19b86f3c$__633643611860996066612bf28661335f565b86866040518663ffffffff1660e01b8152600401612c14959493929190615784565b6040805180830381865af4158015612c30573d6000803e3d6000fd5b505050506040513d601f19601f82011682018060405250810190612c5491906157c8565b9094509250612c69915050565b505060995460005b915091565b604080516001600160a01b038416602482015260448082018490528251808303909101815260649091019091526020810180516001600160e01b031663a9059cbb60e01b179052611d7e908490613c0b565b600080612cdd6005546001600160801b0363010000009091041690565b90506000612cea8261304f565b9050600073__$8f1afe7577f9ab973017c74eca19b86f3c$__630252e2c78787604001518860600151896000015187898c60a001516040518863ffffffff1660e01b8152600401612d4197969594939291906157ec565b602060405180830381865af4158015612d5e573d6000803e3d6000fd5b505050506040513d601f19601f82011682018060405250810190612d829190614e92565b90508015612df4576000612d978260006131b0565b600554909150630100000090046001600160801b0316612db79085615118565b91507faebc771af58936b05e89b0be7d3f9761480181abcd4a649fbdd01753fda169708282604051612dea929190615844565b60405180910390a1505b600073__$e930d50fb5f4f1298547dbcb2bb0591990$__63c432aee1876040015188606001518960000151612e2f612e2a612537565b6126c4565b6000198d14612e4d578c8c60800151612e489190614ec1565b612e4f565b8c5b60986040518763ffffffff1660e01b8152600401612e729695949392919061585d565b602060405180830381865af4158015612e8f573d6000803e3d6000fd5b505050506040513d601f19601f82011682018060405250810190612eb39190614e92565b905085608001518110156040518060400160405280601681526020017554532d32302062616c616e636520646563726561736560501b81525090612f0a5760405162461bcd60e51b815260040161110e9190614a98565b506080860151612f1a9082615118565b979650505050505050565b6040516370a0823160e01b81526000906001600160a01b038316906370a0823190612f549030906004016148f3565b602060405180830381865afa158015612f71573d6000803e3d6000fd5b505050506040513d601f19601f820116820180604052508101906108719190614e92565b6000612f9f612728565b50506099819055919050565b6000612fb5612697565b1561303e576040805160028082526060820183526000926020830190803683370190505090508381600081518110612fef57612fef615173565b6020026020010181815250507f59400c8c523464b521238ea8f50e923f2bc64663557e6afec92a97f7efe92d05818260405161302c9291906158a0565b60405180910390a16000915050610871565b6130488383613cdd565b9050610871565b60405163a7aced0960e01b8152600160048201526001600160801b038216602482015260609073__$9c9f15038526aca6e4490bc044d26e2f07$__9063a7aced0990604401600060405180830381865af41580156130b1573d6000803e3d6000fd5b505050506040513d6000823e601f3d908101601f1916820160405261087191908101906150e4565b600054610100900460ff166131005760405162461bcd60e51b815260040161110e906158c5565b61310a8383613d06565b609a80546001600160a01b0319166001600160a01b0383161790556131336064620186a06153e2565b609b557fe4166dfcf23bbd3e3f764a99dc8fa740554c03c82d6019b81cf265f396f6f2fe6131656064620186a06153e2565b60405190815260200160405180910390a1505050565b60006001600160e01b0319821663b7b79fa960e01b148061087157506301ffc9a760e01b6001600160e01b0319831614610871565b60405163c6f740c160e01b8152600160048201526001600160801b0383166024820152811515604482015260609073__$9c9f15038526aca6e4490bc044d26e2f07$__9063c6f740c190606401600060405180830381865af415801561321a573d6000803e3d6000fd5b505050506040513d6000823e601f3d908101601f1916820160405261324291908101906150e4565b9392505050565b6060600073__$9c9f15038526aca6e4490bc044d26e2f07$__631738a44d6001856040518363ffffffff1660e01b8152600401613287929190615844565b600060405180830381865af41580156132a4573d6000803e3d6000fd5b505050506040513d6000823e601f3d908101601f191682016040526132cc9190810190615910565b9094909350915050565b600060018260038111156132ec576132ec61512b565b1192915050565b606060006132ff613468565b915061330b8284613bad565b90506000198114156040518060400160405280600f81526020016e53423a2057726f6e672076616c756560881b815250906133595760405162461bcd60e51b815260040161110e9190614a98565b50915091565b6060600061337d6005546001600160801b0363010000009091041690565b905080156133935761338e8161304f565b613242565b82516001600160401b038111156133ac576133ac614726565b6040519080825280602002602001820160405280156133d5578160200160208202803683370190505b509392505050565b60405163b0a79a5360e01b8152600160048201526060908190819073__$9c9f15038526aca6e4490bc044d26e2f07$__9063b0a79a5390602401600060405180830381865af4158015613434573d6000803e3d6000fd5b505050506040513d6000823e601f3d908101601f1916820160405261345c9190810190615956565b91959094509092509050565b6040805160028082526060808301845292602083019080368337505060035482519293506001600160a01b0316918391506000906134a8576134a8615173565b6001600160a01b0392831660209182029290920101526004548251911690829060019081106134d9576134d9615173565b60200260200101906001600160a01b031690816001600160a01b03168152505090565b6000613506612567565b156040518060400160405280601381526020017250532d31204e65656420726562616c616e636560681b815250906135515760405162461bcd60e51b815260040161110e9190614a98565b5061355a612697565b156040518060400160405280601481526020017350532d313420467573652069732061637469766560601b815250906135a65760405162461bcd60e51b815260040161110e9190614a98565b50600092915050565b60008060008060008060006135c26127f9565b60665491935091506001600160a01b031673__$9c9f15038526aca6e4490bc044d26e2f07$__6334d2ec3d826135f6612537565b86866040518563ffffffff1660e01b815260040161361794939291906159a4565b602060405180830381865af4158015613634573d6000803e3d6000fd5b505050506040513d601f19601f820116820180604052508101906136589190614e92565b97506136648383613daf565b60009850909550935061367681612f25565b95505050509091929394565b60665460009081906001600160a01b0316818688116136a25760006136ac565b6136ac8789615118565b90506000620186a0876099600201546136c591906153cb565b6136cf91906153e2565b8211905060006136de84612f25565b6001600160a01b03851660009081526098602052604090205490915061370390613e5a565b8911156137f25781806137165750888110155b156137de5760675473__$8f1afe7577f9ab973017c74eca19b86f3c$__9063890ffb849086908c906001600160a01b0316613751868e614ec1565b6040516001600160e01b031960e087901b1681526001600160a01b03948516600482015260248101939093529216604482015260648101919091526084810184905260a4016040805180830381865af41580156137b2573d6000803e3d6000fd5b505050506040513d601f19601f820116820180604052508101906137d691906157c8565b5094506137f2565b6137ea60008a8a613919565b909850965050505b81156138b657600080613804866132f3565b609a549193509150600090613824906001600160a01b0316878585613e72565b905061382f81614129565b61387c57600061383e82613249565b5090507f59400c8c523464b521238ea8f50e923f2bc64663557e6afec92a97f7efe92d0582826040516138729291906158a0565b60405180910390a1505b6000613886612f95565b90506138a9613895868e614ec1565b8a61389f8b612f25565b6129819085614ec1565b9a506138c2945050505050565b86156138c25760998890555b5050505094509492505050565b600080838311156138eb576138e48484615118565b91506138f8565b6138f58385615118565b90505b9250929050565b600081831161390f576000613242565b6132428284615118565b6000806000806000600019881461395d57620186a061393a6103e882614ec1565b613944898b614ec1565b61394e91906153cb565b61395891906153e2565b61395f565b875b905061396a81614175565b801580159061397857508515155b15613b1c5761398561469c565b60665461399d906001600160a01b0316826001612b2a565b80516020820151604051637a55caf360e01b815273__$8f1afe7577f9ab973017c74eca19b86f3c$__92637a55caf3926139d992600401615021565b602060405180830381865af41580156139f6573d6000803e3d6000fd5b505050506040513d601f19601f82011682018060405250810190613a1a9190614e92565b9450670de0b6b3a764000085613a39613a338585612cc0565b8b6138ff565b613a4391906153cb565b613a4d91906153e2565b6067546020830151608084015192985073__$8f1afe7577f9ab973017c74eca19b86f3c$__92632ce30333926001600160a01b031691908b908d613a8f612f95565b6040516001600160e01b031960e089901b1681526001600160a01b03968716600482015295909416602486015260448501929092526064840152608483015260a482015260c4016040805180830381865af4158015613af2573d6000803e3d6000fd5b505050506040513d601f19601f82011682018060405250810190613b1691906157c8565b94509250505b5093509350935093565b60606000613b446005546001600160801b0363010000009091041690565b90508015613b5c57613b578160016131b0565b613ba7565b613b64613468565b516001600160401b03811115613b7c57613b7c614726565b604051908082528060200260200182016040528015613ba5578160200160208202803683370190505b505b91505090565b8151600090815b81811015613bff57836001600160a01b0316858281518110613bd857613bd8615173565b60200260200101516001600160a01b031603613bf75791506108719050565b600101613bb4565b50600019949350505050565b6000613c60826040518060400160405280602081526020017f5361666545524332303a206c6f772d6c6576656c2063616c6c206661696c6564815250856001600160a01b03166141c89092919063ffffffff16565b805190915015611d7e5780806020019051810190613c7e91906155b1565b611d7e5760405162461bcd60e51b815260206004820152602a60248201527f5361666545524332303a204552433230206f7065726174696f6e20646964206e6044820152691bdd081cdd58d8d9595960b21b606482015260840161110e565b6000806000613ceb84612ba4565b91509150613cfc8582846000613682565b5095945050505050565b600054610100900460ff16613d2d5760405162461bcd60e51b815260040161110e906158c5565b613d57817fd2de0374d4479f33e63ae5ed6ca772a10463dd883a90c612050b51fab61964006141df565b613d6082614235565b604051631797527d60e01b8152606660048201526001600160a01b0380841660248301528216604482015273__$7dde4232fad0cb3c495beb9e735b7d0c63$__90631797527d906064016117dc565b60008083516000146138f85773__$e930d50fb5f4f1298547dbcb2bb0591990$__635dcb613060666099613de1613468565b613de9612537565b60988a8a6040518863ffffffff1660e01b8152600401613e0f97969594939291906159e2565b6040805180830381865af4158015613e2b573d6000803e3d6000fd5b505050506040513d601f19601f82011682018060405250810190613e4f91906157c8565b909590945092505050565b60008115613e685781610871565b620186a092915050565b6060613e7c612567565b156040518060400160405280601381526020017250532d31204e65656420726562616c616e636560681b81525090613ec75760405162461bcd60e51b815260040161110e9190614a98565b506001546004805460405163023d846360e01b81526001600160a01b0390931691830191909152600160c81b8104600290810b6024840152600160e01b8204900b6044830152600160a81b900460ff1615156064820152600090819073__$9c9f15038526aca6e4490bc044d26e2f07$__9063023d8463906084016040805180830381865af4158015613f5e573d6000803e3d6000fd5b505050506040513d601f19601f82011682018060405250810190613f8291906157c8565b6003546004549294509092506001600160a01b039081169173__$b1ba452cecccdd06eb05ace2d0a762c7e1$__91631c2040d5918b918b91869116613fc7888a614ec1565b613fd98a670de0b6b3a76400006153cb565b613fe391906153e2565b60405160e087901b6001600160e01b03191681526001600160a01b0395861660048201526024810194909452918416604484015290921660648201526084810191909152609860a482015260c401600060405180830381865af415801561404e573d6000803e3d6000fd5b505050506040513d6000823e601f3d908101601f1916820160405261407691908101906150e4565b9350806001600160a01b03168660008151811061409557614095615173565b60200260200101516001600160a01b03161461411e57836001815181106140be576140be615173565b6020026020010151846000815181106140d9576140d9615173565b6020026020010151856000815181106140f4576140f4615173565b602002602001018660018151811061410e5761410e615173565b6020908102919091010191909152525b505050949350505050565b8051600090815b8181101561416b5783818151811061414a5761414a615173565b6020026020010151600003614163575060019392505050565b600101614130565b5060009392505050565b61417d612567565b156040518060400160405280601381526020017250532d31204e65656420726562616c616e636560681b815250906110b85760405162461bcd60e51b815260040161110e9190614a98565b60606141d7848460008561445a565b949350505050565b6141e9828261452a565b6110b85760405162461bcd60e51b815260206004820152601a60248201527f496e74657266616365206973206e6f7420737570706f72746564000000000000604482015260640161110e565b600054610100900460ff1661425c5760405162461bcd60e51b815260040161110e906158c5565b6001600160a01b0381166142a45760405162461bcd60e51b815260206004820152600f60248201526e2d32b9379031b7b73a3937b63632b960891b604482015260640161110e565b6142ce817f4c2403fdcb3cff9b705d96bf0705858e3390412670a62c8bcba611ca7e20ab866141df565b60006001600160a01b0316816001600160a01b0316635aa6e6756040518163ffffffff1660e01b8152600401602060405180830381865afa158015614317573d6000803e3d6000fd5b505050506040513d601f19601f8201168201806040525081019061433b9190615483565b6001600160a01b0316036143835760405162461bcd60e51b815260206004820152600f60248201526e5a65726f20676f7665726e616e636560881b604482015260640161110e565b6143b2816111e560017f5165972ef41194f06c5007493031d0b927c20741adcb74403b954009fd2c3618615118565b6143e1426111e560017f6f55f470bdc9cb5f04223fd822021061668e4dccb43e8727b295106dc9769c8b615118565b614410436111e560017f812a673dfca07956350df10f8a654925f561d7a0da09bdbe79e653939a14d9f1615118565b604080516001600160a01b0383168152426020820152438183015290517f1a2dd071001ebf6e03174e3df5b305795a4ad5d41d8fdb9ba41dbbe2367134269181900360600190a150565b6060824710156144bb5760405162461bcd60e51b815260206004820152602660248201527f416464726573733a20696e73756666696369656e742062616c616e636520666f6044820152651c8818d85b1b60d21b606482015260840161110e565b600080866001600160a01b031685876040516144d79190615a4b565b60006040518083038185875af1925050503d8060008114614514576040519150601f19603f3d011682016040523d82523d6000602084013e614519565b606091505b5091509150612f1a878383876145fe565b60006001600160a01b0383166145715760405162461bcd60e51b815260206004820152600c60248201526b5a65726f206164647265737360a01b604482015260640161110e565b823b6000819003614586576000915050610871565b6040516301ffc9a760e01b81526001600160e01b0319841660048201526001600160a01b038516906301ffc9a790602401602060405180830381865afa9250505080156145f0575060408051601f3d908101601f191682019092526145ed918101906155b1565b60015b1561416b5791506108719050565b6060831561466d578251600003614666576001600160a01b0385163b6146665760405162461bcd60e51b815260206004820152601d60248201527f416464726573733a2063616c6c20746f206e6f6e2d636f6e7472616374000000604482015260640161110e565b50816141d7565b6141d783838151156146825781518083602001fd5b8060405162461bcd60e51b815260040161110e9190614a98565b6040518060c0016040528060006001600160a01b0316815260200160006001600160a01b03168152602001606081526020016000815260200160008152602001600081525090565b6000602082840312156146f657600080fd5b81356001600160e01b03198116811461324257600080fd5b6001600160a01b038116811461472357600080fd5b50565b634e487b7160e01b600052604160045260246000fd5b604051601f8201601f191681016001600160401b038111828210171561476457614764614726565b604052919050565b60006001600160401b0382111561478557614785614726565b50601f01601f191660200190565b600082601f8301126147a457600080fd5b81356147b76147b28261476c565b61473c565b8181528460208386010111156147cc57600080fd5b816020850160208301376000918101602001919091529392505050565b60008060008060008060c0878903121561480257600080fd5b863561480d8161470e565b9550602087013561481d8161470e565b94506040870135935060608701356001600160401b038082111561484057600080fd5b61484c8a838b01614793565b9450608089013591508082111561486257600080fd5b5061486f89828a01614793565b92505060a087013590509295509295509295565b6000806040838503121561489657600080fd5b82356148a18161470e565b946020939093013593505050565b801515811461472357600080fd5b6000602082840312156148cf57600080fd5b8135613242816148af565b6000602082840312156148ec57600080fd5b5035919050565b6001600160a01b0391909116815260200190565b60006020828403121561491957600080fd5b81356132428161470e565b600081518084526020808501945080840160005b8381101561495457815187529582019590820190600101614938565b509495945050505050565b6020815260006132426020830184614924565b600081518084526020808501945080840160005b83811015614954578151151587529582019590820190600101614986565b6080808252855190820181905260009060209060a0840190828901845b828110156149e65781516001600160a01b0316845292840192908401906001016149c1565b5050508381038285015286518082528783019183019060005b81811015614a1e57835160020b835292840192918401916001016149ff565b50508481036040860152614a328188614924565b925050508281036060840152612f1a8185614972565b60005b83811015614a63578181015183820152602001614a4b565b50506000910152565b60008151808452614a84816020860160208601614a48565b601f01601f19169290920160200192915050565b6020815260006132426020830184614a6c565b60008083601f840112614abd57600080fd5b5081356001600160401b03811115614ad457600080fd5b6020830191508360208285010111156138f857600080fd5b60008060208385031215614aff57600080fd5b82356001600160401b03811115614b1557600080fd5b6128a985828601614aab565b600080600060608486031215614b3657600080fd5b833592506020840135614b488161470e565b929592945050506040919091013590565b60006001600160401b03821115614b7257614b72614726565b5060051b60200190565b600082601f830112614b8d57600080fd5b81356020614b9d6147b283614b59565b82815260059290921b84018101918181019086841115614bbc57600080fd5b8286015b84811015614bd75780358352918301918301614bc0565b509695505050505050565b60008060408385031215614bf557600080fd5b82356001600160401b0380821115614c0c57600080fd5b818501915085601f830112614c2057600080fd5b81356020614c306147b283614b59565b82815260059290921b84018101918181019089841115614c4f57600080fd5b948201945b83861015614c76578535614c678161470e565b82529482019490820190614c54565b96505086013592505080821115614c8c57600080fd5b50614c9985828601614b7c565b9150509250929050565b60008060008060608587031215614cb957600080fd5b843593506020850135925060408501356001600160401b03811115614cdd57600080fd5b614ce987828801614aab565b95989497509550505050565b60008060408385031215614d0857600080fd5b823591506020830135614d1a816148af565b809150509250929050565b600060208284031215614d3757600080fd5b81356001600160401b03811115614d4d57600080fd5b611f6984828501614793565b8060020b811461472357600080fd5b600080600080600080600080610160898b031215614d8557600080fd5b8835614d908161470e565b97506020890135614da08161470e565b96506040890135614db08161470e565b95506060890135614dc08161470e565b94506080890135614dd081614d59565b935060a0890135614de081614d59565b925061014089018a811115614df457600080fd5b60c08a01925035614e048161470e565b809150509295985092959890939650565b600060808284031215614e2757600080fd5b82601f830112614e3657600080fd5b604051608081018181106001600160401b0382111715614e5857614e58614726565b604052806080840185811115614e6d57600080fd5b845b81811015614e87578035835260209283019201614e6f565b509195945050505050565b600060208284031215614ea457600080fd5b5051919050565b634e487b7160e01b600052601160045260246000fd5b8082018082111561087157610871614eab565b8060005b600481101561172c578151845260209384019390910190600101614ed8565b60006101c089835260208084018a60005b6005811015614f2e5781516001600160a01b031683529183019190830190600101614f08565b50505050614f3f60c0840189614ed4565b80610140840152614f5281840188614a6c565b9050828103610160840152614f678187614a6c565b61018084019590955250506101a0015295945050505050565b600082601f830112614f9157600080fd5b81516020614fa16147b283614b59565b82815260059290921b84018101918181019086841115614fc057600080fd5b8286015b84811015614bd75780518352918301918301614fc4565b60008060408385031215614fee57600080fd5b8251614ff9816148af565b60208401519092506001600160401b0381111561501557600080fd5b614c9985828601614f80565b6001600160a01b0392831681529116602082015260400190565b6001600160a01b039586168152602081019490945260408401929092526060830152909116608082015260a00190565b8881526020808201899052610120820190604083018960005b60028110156150aa5781516001600160a01b031683529183019190830190600101615084565b50505050608082019690965260a08101949094526001600160a01b039290921660c0840152151560e0830152610100909101529392505050565b6000602082840312156150f657600080fd5b81516001600160401b0381111561510c57600080fd5b611f6984828501614f80565b8181038181111561087157610871614eab565b634e487b7160e01b600052602160045260246000fd5b828152604081016004831061516657634e487b7160e01b600052602160045260246000fd5b8260208301529392505050565b634e487b7160e01b600052603260045260246000fd5b600082601f83011261519a57600080fd5b815160206151aa6147b283614b59565b82815260059290921b840181019181810190868411156151c957600080fd5b8286015b84811015614bd75780516151e08161470e565b83529183019183016151cd565b600082601f8301126151fe57600080fd5b8151602061520e6147b283614b59565b82815260059290921b8401810191818101908684111561522d57600080fd5b8286015b84811015614bd7578051615244816148af565b8352918301918301615231565b6000806000806080858703121561526757600080fd5b84516001600160401b038082111561527e57600080fd5b61528a88838901615189565b95506020915081870151818111156152a157600080fd5b8701601f810189136152b257600080fd5b80516152c06147b282614b59565b81815260059190911b8201840190848101908b8311156152df57600080fd5b928501925b828410156153065783516152f781614d59565b825292850192908501906152e4565b60408b015190985094505050508082111561532057600080fd5b61532c88838901614f80565b9350606087015191508082111561534257600080fd5b5061534f878288016151ed565b91505092959194509250565b600181811c9082168061536f57607f821691505b60208210810361538f57634e487b7160e01b600052602260045260246000fd5b50919050565b83815260406020820152816040820152818360608301376000818301606090810191909152601f909201601f1916010192915050565b808202811582820484141761087157610871614eab565b6000826153ff57634e487b7160e01b600052601260045260246000fd5b500490565b86815260c06020820152600061541d60c0830188614a6c565b828103604084015261542f8188614924565b6001600160a01b0396871660608501529490951660808301525060a00152949350505050565b6000806040838503121561546857600080fd5b82516154738161470e565b6020939093015192949293505050565b60006020828403121561549557600080fd5b81516132428161470e565b868152610160810160208083018860005b60038110156154d75781516001600160a01b0316835291830191908301906001016154b1565b505050508560020b60808301528460020b60a083015260018060a01b03841660c083015260808360e0840137979650505050505050565b60006020828403121561552057600080fd5b81516001600160401b0381111561553657600080fd5b8201601f8101841361554757600080fd5b80516155556147b28261476c565b81815285602083850101111561556a57600080fd5b61557b826020830160208601614a48565b95945050505050565b8281526040602082015260006141d76040830184614a6c565b82815260a081016132426020830184614ed4565b6000602082840312156155c357600080fd5b8151613242816148af565b600081518084526020808501945080840160005b838110156149545781516001600160a01b0316875295820195908201906001016155e2565b60a08152600061561a60a08301886155ce565b828103602084015261562c8188614924565b604084019690965250506001600160a01b03929092166060830152151560809091015292915050565b60008060006060848603121561566a57600080fd5b8351925060208401516001600160401b038082111561568857600080fd5b61569487838801614f80565b935060408601519150808211156156aa57600080fd5b506156b786828701614f80565b9150509250925092565b6001600160a01b038616815260a0602082018190526000906156e5908301876155ce565b82810360408401526156f781876155ce565b9050828103606084015261570b8186614924565b9050828103608084015261571f8185614924565b98975050505050505050565b6000806040838503121561573e57600080fd5b82516001600160401b038082111561575557600080fd5b61576186838701615189565b9350602085015191508082111561577757600080fd5b50614c9985828601614f80565b85815284602082015260a0604082015260006157a360a0830186614924565b82810360608401526157b581866155ce565b9150508260808301529695505050505050565b600080604083850312156157db57600080fd5b505080516020909101519092909150565b87815260e06020820152600061580560e08301896155ce565b604083018890526001600160a01b0387166060840152828103608084015261582d8187614924565b60a0840195909552505060c0015295945050505050565b8281526040602082015260006141d76040830184614924565b60c08152600061587060c08301896155ce565b6020830197909752506001600160a01b039485166040820152929093166060830152608082015260a00152919050565b6040815260006158b36040830185614924565b828103602084015261557b8185614924565b6020808252602b908201527f496e697469616c697a61626c653a20636f6e7472616374206973206e6f74206960408201526a6e697469616c697a696e6760a81b606082015260800190565b6000806040838503121561592357600080fd5b82516001600160401b0381111561593957600080fd5b61594585828601614f80565b925050602083015190509250929050565b60008060006060848603121561596b57600080fd5b83516001600160401b038082111561598257600080fd5b61598e87838801615189565b9450602086015191508082111561568857600080fd5b6001600160a01b038581168252841660208201526080604082018190526000906159d0908301856155ce565b8281036060840152612f1a8185614924565b87815286602082015260e060408201526000615a0160e08301886155ce565b6001600160a01b03871660608401526080830186905282810360a0840152615a2981866155ce565b905082810360c0840152615a3d8185614924565b9a9950505050505050505050565b60008251615a5d818460208701614a48565b919091019291505056fea2646970667358221220d5ff93f3488e4b53f229b549a98b995636e15b19a3af9dfac5464621d185893f64736f6c63430008110033",
  "libraries": {
    "ConverterStrategyBaseLib": "0x1E26533D45EBf5147Da62cA0E9C7875798F56324",
    "ConverterStrategyBaseLib2": "0xC297e5AdaD574f03C361467093dCBC63DC3B9F10",
    "StrategyLib2": "0xFB7196D25e3CC94750cd6bB3c0263AE27621838f",
    "PancakeConverterStrategyLogicLib": "0x72FcDC97699F53C5A0679Bfe24e38c5c99A6471a",
    "PairBasedStrategyLib": "0xf92Bb260C7Cafcf6D69563EDF5ff2A11ec8df4A9",
    "PairBasedStrategyLogicLib": "0x0b5d3Ac33f98f2A5B4c2741Fa8fEbAE2130F3bC7"
  },
  "devdoc": {
    "author": "a17, dvpublic",
    "kind": "dev",
    "methods": {
      "claim()": {
        "details": "Manual claim rewards."
      },
      "created()": {
        "returns": {
          "_0": "Creation timestamp"
        }
      },
      "createdBlock()": {
        "returns": {
          "_0": "Creation block number"
        }
      },
      "doHardWork()": {
        "returns": {
          "earned": "Earned amount in terms of {asset}",
          "lost": "Lost amount in terms of {asset}"
        }
      },
      "emergencyExit()": {
        "details": "In case of any issue operator can withdraw all from pool."
      },
      "getDefaultState()": {
        "returns": {
          "addr": "[tokenA, tokenB, pool, profitHolder]",
          "boolValues": "[isStablePool, depositorSwapTokens]",
          "nums": "[totalLiquidity, fuse-status-tokenA, fuse-status-tokenB, withdrawDone, 4 thresholds of token A, 4 thresholds of token B]",
          "tickData": "[tickSpacing, lowerTick, upperTick, rebalanceTickRange]"
        }
      },
      "getPropNotUnderlying18()": {
        "returns": {
          "_0": "Proportion of the not-underlying [0...1e18]"
        }
      },
      "getSlot(uint256)": {
        "details": "Gets a slot as bytes32"
      },
      "getSpecificState()": {
        "returns": {
          "nums": "Balances of [tokenA, tokenB] for profit holder"
        }
      },
      "increaseRevision(address)": {
        "details": "Revision should be increased on each contract upgrade"
      },
      "init(address,address,address,address,int24,int24,uint256[4],address)": {
        "params": {
          "chef_": "MasterChefV3",
          "controller_": "The address of the controller.",
          "converter_": "The address of the converter.",
          "fuseThresholds": "Price thresholds for tokens [LOWER_LIMIT_ON, LOWER_LIMIT_OFF, UPPER_LIMIT_ON, UPPER_LIMIT_OFF]",
          "pool_": "The address of the pool.",
          "rebalanceTickRange_": "The tick range for rebalancing.",
          "splitter_": "The address of the splitter.",
          "tickRange_": "The tick range for the liquidity position."
        }
      },
      "investAll(uint256,bool)": {
        "params": {
          "updateTotalAssetsBeforeInvest_": "Recalculate total assets amount before depositing.                                       It can be false if we know exactly, that the amount is already actual."
        },
        "returns": {
          "strategyLoss": "Loss should be covered from Insurance"
        }
      },
      "isController(address)": {
        "details": "Return true if given address is controller"
      },
      "isReadyToHardWork()": {
        "returns": {
          "_0": "A boolean indicating if the strategy is ready for hard work."
        }
      },
      "needRebalance()": {
        "returns": {
          "_0": "A boolean indicating if {rebalanceNoSwaps} should be called."
        }
      },
      "onTransferAmounts(address[],uint256[])": {
        "params": {
          "amounts_": "Amount of {asset_} that has been sent to the user's balance",
          "assets_": "Any asset sent to the balance, i.e. inside repayTheBorrow"
        }
      },
      "pancakeV3MintCallback(uint256,uint256,bytes)": {
        "params": {
          "amount0Owed": "The amount of token0 owed to the pool.",
          "amount1Owed": "The amount of token1 owed to the pool."
        }
      },
      "performanceFee()": {
        "details": "use FEE_DENOMINATOR"
      },
      "previousImplementation()": {
        "details": "Previous logic implementation"
      },
      "rebalanceNoSwaps(bool)": {
        "params": {
          "checkNeedRebalance": "Revert if rebalance is not needed. Pass false to deposit after withdrawByAgg-iterations"
        }
      },
      "requirePayAmountBack(address,uint256)": {
        "params": {
          "amount_": "Required amount of {theAsset_}",
          "theAsset_": "Required asset (either collateral or borrow), it can be NOT underlying"
        },
        "returns": {
          "amountOut": "Amount that was send OR can be claimed on the next call.                   The caller should control own balance to know if the amount was actually send                   (because we need compatibility with exist not-NSR strategies)"
        }
      },
      "revision()": {
        "details": "Contract upgrade counter"
      },
      "setCompoundRatio(uint256)": {
        "details": "PlatformVoter can change compound ratio for some strategies.      A strategy can implement another logic for some uniq cases."
      },
      "setFuseStatus(uint256)": {
        "params": {
          "status": "See PairBasedStrategyLib.FuseStatus enum for possible values"
        }
      },
      "setFuseThresholds(uint256[4])": {
        "params": {
          "values": "Price thresholds: [LOWER_LIMIT_ON, LOWER_LIMIT_OFF, UPPER_LIMIT_ON, UPPER_LIMIT_OFF]"
        }
      },
      "setLiquidationThreshold(address,uint256)": {
        "details": "Liquidation thresholds are used to detect dust in many cases, not only in liquidation case",
        "params": {
          "amount": "Min amount of token allowed to liquidate, token's decimals are used."
        }
      },
      "setReinvestThresholdPercent(uint256)": {
        "params": {
          "percent_": "New value of the percent, decimals = {REINVEST_THRESHOLD_PERCENT_DENOMINATOR}"
        }
      },
      "setStrategyProfitHolder(address)": {
        "details": "Set a dedicated contract for rewards for properly counting.      It is safe to allow change it to operator - we suppose the contract only temporally store the last rewards."
      },
      "setStrategySpecificName(string)": {
        "details": "The name will be used for UI."
      },
      "setWithdrawDone(uint256)": {
        "params": {
          "done": "0 - full withdraw required, 1 - full withdraw was done"
        }
      },
      "supportsInterface(bytes4)": {
        "details": "See {IERC165-supportsInterface}."
      },
      "totalAssets()": {
        "details": "Total amount of underlying assets under control of this strategy."
      },
      "withdrawAllToSplitter()": {
        "details": "Withdraws all underlying assets to the vault",
        "returns": {
          "strategyLoss": "Loss should be covered from Insurance"
        }
      },
      "withdrawByAggStep(address,address,uint256,bytes,bytes,uint256)": {
        "details": "All swap-by-agg data should be prepared using {quoteWithdrawByAgg} off-chain",
        "params": {
          "aggregator_": "Aggregator that should be used on next swap. 0 - use liquidator",
          "amountToSwap_": "Amount that should be swapped. 0 - no swap",
          "entryToPool": "Allow to enter to the pool at the end. Use false if you are going to make several iterations.                    It's possible to enter back to the pool by calling {rebalanceNoSwaps} at any moment                    0 - not allowed, 1 - allowed, 2 - allowed only if completed",
          "planEntryData": "PLAN_XXX + additional data, see IterationPlanKinds",
          "swapData": "Swap rote that was prepared off-chain.",
          "tokenToSwap_": "What token should be swapped to other"
        },
        "returns": {
          "completed": "All debts were closed, leftovers were swapped to the required proportions."
        }
      },
      "withdrawToSplitter(uint256)": {
        "details": "Withdraws some assets to the splitter",
        "returns": {
          "strategyLoss": "Loss should be covered from Insurance"
        }
      }
    },
    "title": "Delta-neutral liquidity hedging converter fill-up/swap rebalancing strategy for Pancake",
    "version": 1
  },
  "userdoc": {
    "kind": "user",
    "methods": {
      "CONTROLLABLE_VERSION()": {
        "notice": "Version of the contract"
      },
      "capacity()": {
        "notice": "Unlimited capacity by default"
      },
      "controller()": {
        "notice": "Return controller address saved in the contract slot"
      },
      "created()": {
        "notice": "Return creation timestamp"
      },
      "createdBlock()": {
        "notice": "Return creation block number"
      },
      "doHardWork()": {
        "notice": "Do hard work with reinvesting"
      },
      "getDefaultState()": {
        "notice": "Returns the current state of the contract"
      },
      "getPropNotUnderlying18()": {
        "notice": "Calculate proportions of [underlying, not-underlying] required by the internal pool of the strategy"
      },
      "init(address,address,address,address,int24,int24,uint256[4],address)": {
        "notice": "Initialize the strategy with the given parameters."
      },
      "investAll(uint256,bool)": {
        "notice": "Stakes everything the strategy holds into the reward pool. amount_ Amount transferred to the strategy balance just before calling this function"
      },
      "investedAssets()": {
        "notice": "Amount of underlying assets converted to pool assets and invested to the pool."
      },
      "isGovernance(address)": {
        "notice": "Return true if given address is setup as governance in Controller"
      },
      "isReadyToHardWork()": {
        "notice": "Check if the strategy is ready for hard work."
      },
      "liquidationThresholds(address)": {
        "notice": "Minimum token amounts that can be liquidated"
      },
      "needRebalance()": {
        "notice": "Check if the strategy needs rebalancing."
      },
      "onTransferAmounts(address[],uint256[])": {
        "notice": "TetuConverter calls this function when it sends any amount to user's balance"
      },
      "pancakeV3MintCallback(uint256,uint256,bytes)": {
        "notice": "Callback function called by Uniswap V3 pool on mint operation."
      },
      "performanceFee()": {
        "notice": "A percent of total profit that is sent to the {performanceReceiver} before compounding"
      },
      "performanceReceiver()": {
        "notice": "{performanceFee}% of total profit is sent to the {performanceReceiver} before compounding"
      },
      "quoteWithdrawByAgg(bytes)": {
        "notice": "Get info about a swap required by next call of {withdrawByAggStep} within the given plan"
      },
      "rebalanceNoSwaps(bool)": {
        "notice": "Rebalance using borrow/repay only, no swaps"
      },
      "requirePayAmountBack(address,uint256)": {
        "notice": "Converters asks to send some amount back.         The results depend on whether the required amount is on the balance:         1. The {amount_} exists on the balance: send the amount to TetuConverter, return {amount_}         2. The {amount_} doesn't exist on the balance. Try to receive the {amount_}.         2.1. if the required amount is received: return {amount_}         2.2. if less amount X (X < {amount_}) is received return X - gap         In the case 2 no amount is send to TetuConverter.         Converter should make second call of requirePayAmountBack({amountOut}) to receive the assets."
      },
      "setFuseStatus(uint256)": {
        "notice": "Manually set status of the fuse"
      },
      "setFuseThresholds(uint256[4])": {
        "notice": "Set thresholds for the fuse: [LOWER_LIMIT_ON, LOWER_LIMIT_OFF, UPPER_LIMIT_ON, UPPER_LIMIT_OFF]         Decimals 18. The thresholds are compared with prices from TetuConverter's price oracle.         Example: [0.9, 0.92, 1.08, 1.1]         Price falls below 0.9 - fuse is ON. Price rises back up to 0.92 - fuse is OFF.         Price raises more and reaches 1.1 - fuse is ON again. Price falls back and reaches 1.08 - fuse OFF again."
      },
      "setWithdrawDone(uint256)": {
        "notice": "Set withdrawDone value.         When a fuse was triggered ON, all debts should be closed and asset should be converted to underlying.         After completion of the conversion withdrawDone can be set to 1.         So, {getFuseStatus} will return  withdrawDone=1 and you will know, that withdraw is not required"
      },
      "setupPerformanceFee(uint256,address,uint256)": {
        "notice": "Set performance fee, receiver and ratio"
      },
      "withdrawByAggStep(address,address,uint256,bytes,bytes,uint256)": {
        "notice": "Make withdraw iteration: [exit from the pool], [make 1 swap], [repay a debt], [enter to the pool]         Typical sequence of the actions is: exit from the pool, make 1 swap, repay 1 debt.         You can enter to the pool if you are sure that you won't have borrow + repay on AAVE3 in the same block."
      }
    },
    "notice": "This strategy provides delta-neutral liquidity hedging for Uniswap V3 pools. It rebalances the liquidity         by utilizing fill-up and swap methods depending on the range size of the liquidity provided.",
    "version": 1
  },
  "storageLayout": {
    "storage": [
      {
        "astId": 11608,
        "contract": "contracts/strategies/pancake/PancakeConverterStrategy.sol:PancakeConverterStrategy",
        "label": "_initialized",
        "offset": 0,
        "slot": "0",
        "type": "t_uint8"
      },
      {
        "astId": 11611,
        "contract": "contracts/strategies/pancake/PancakeConverterStrategy.sol:PancakeConverterStrategy",
        "label": "_initializing",
        "offset": 1,
        "slot": "0",
        "type": "t_bool"
      },
      {
        "astId": 128541,
        "contract": "contracts/strategies/pancake/PancakeConverterStrategy.sol:PancakeConverterStrategy",
        "label": "state",
        "offset": 0,
        "slot": "1",
        "type": "t_struct(State)125957_storage"
      },
      {
        "astId": 128548,
        "contract": "contracts/strategies/pancake/PancakeConverterStrategy.sol:PancakeConverterStrategy",
        "label": "__gap",
        "offset": 0,
        "slot": "62",
        "type": "t_array(t_uint256)40_storage"
      },
      {
        "astId": 16958,
        "contract": "contracts/strategies/pancake/PancakeConverterStrategy.sol:PancakeConverterStrategy",
        "label": "baseState",
        "offset": 0,
        "slot": "102",
        "type": "t_struct(BaseState)5555_storage"
      },
      {
        "astId": 17405,
        "contract": "contracts/strategies/pancake/PancakeConverterStrategy.sol:PancakeConverterStrategy",
        "label": "__gap",
        "offset": 0,
        "slot": "109",
        "type": "t_array(t_uint256)43_storage"
      },
      {
        "astId": 97474,
        "contract": "contracts/strategies/pancake/PancakeConverterStrategy.sol:PancakeConverterStrategy",
        "label": "liquidationThresholds",
        "offset": 0,
        "slot": "152",
        "type": "t_mapping(t_address,t_uint256)"
      },
      {
        "astId": 97478,
        "contract": "contracts/strategies/pancake/PancakeConverterStrategy.sol:PancakeConverterStrategy",
        "label": "_csbs",
        "offset": 0,
        "slot": "153",
        "type": "t_struct(ConverterStrategyBaseState)93300_storage"
      },
      {
        "astId": 98978,
        "contract": "contracts/strategies/pancake/PancakeConverterStrategy.sol:PancakeConverterStrategy",
        "label": "__gap",
        "offset": 0,
        "slot": "206",
        "type": "t_array(t_uint256)46_storage"
      }
    ],
    "types": {
      "t_address": {
        "encoding": "inplace",
        "label": "address",
        "numberOfBytes": "20"
      },
      "t_array(t_uint256)10_storage": {
        "base": "t_uint256",
        "encoding": "inplace",
        "label": "uint256[10]",
        "numberOfBytes": "320"
      },
      "t_array(t_uint256)33_storage": {
        "base": "t_uint256",
        "encoding": "inplace",
        "label": "uint256[33]",
        "numberOfBytes": "1056"
      },
      "t_array(t_uint256)40_storage": {
        "base": "t_uint256",
        "encoding": "inplace",
        "label": "uint256[40]",
        "numberOfBytes": "1280"
      },
      "t_array(t_uint256)43_storage": {
        "base": "t_uint256",
        "encoding": "inplace",
        "label": "uint256[43]",
        "numberOfBytes": "1376"
      },
      "t_array(t_uint256)46_storage": {
        "base": "t_uint256",
        "encoding": "inplace",
        "label": "uint256[46]",
        "numberOfBytes": "1472"
      },
      "t_array(t_uint256)49_storage": {
        "base": "t_uint256",
        "encoding": "inplace",
        "label": "uint256[49]",
        "numberOfBytes": "1568"
      },
      "t_array(t_uint256)4_storage": {
        "base": "t_uint256",
        "encoding": "inplace",
        "label": "uint256[4]",
        "numberOfBytes": "128"
      },
      "t_bool": {
        "encoding": "inplace",
        "label": "bool",
        "numberOfBytes": "1"
      },
      "t_contract(IPancakeMasterChefV3)89341": {
        "encoding": "inplace",
        "label": "contract IPancakeMasterChefV3",
        "numberOfBytes": "20"
      },
      "t_contract(ITetuConverter)51535": {
        "encoding": "inplace",
        "label": "contract ITetuConverter",
        "numberOfBytes": "20"
      },
      "t_enum(FuseStatus)120839": {
        "encoding": "inplace",
        "label": "enum PairBasedStrategyLib.FuseStatus",
        "numberOfBytes": "1"
      },
      "t_int24": {
        "encoding": "inplace",
        "label": "int24",
        "numberOfBytes": "3"
      },
      "t_int256": {
        "encoding": "inplace",
        "label": "int256",
        "numberOfBytes": "32"
      },
      "t_mapping(t_address,t_uint256)": {
        "encoding": "mapping",
        "key": "t_address",
        "label": "mapping(address => uint256)",
        "numberOfBytes": "32",
        "value": "t_uint256"
      },
      "t_string_storage": {
        "encoding": "bytes",
        "label": "string",
        "numberOfBytes": "32"
      },
      "t_struct(BaseState)5555_storage": {
        "encoding": "inplace",
        "label": "struct IStrategyV3.BaseState",
        "members": [
          {
            "astId": 5536,
            "contract": "contracts/strategies/pancake/PancakeConverterStrategy.sol:PancakeConverterStrategy",
            "label": "asset",
            "offset": 0,
            "slot": "0",
            "type": "t_address"
          },
          {
            "astId": 5539,
            "contract": "contracts/strategies/pancake/PancakeConverterStrategy.sol:PancakeConverterStrategy",
            "label": "splitter",
            "offset": 0,
            "slot": "1",
            "type": "t_address"
          },
          {
            "astId": 5542,
            "contract": "contracts/strategies/pancake/PancakeConverterStrategy.sol:PancakeConverterStrategy",
            "label": "performanceReceiver",
            "offset": 0,
            "slot": "2",
            "type": "t_address"
          },
          {
            "astId": 5545,
            "contract": "contracts/strategies/pancake/PancakeConverterStrategy.sol:PancakeConverterStrategy",
            "label": "performanceFee",
            "offset": 0,
            "slot": "3",
            "type": "t_uint256"
          },
          {
            "astId": 5548,
            "contract": "contracts/strategies/pancake/PancakeConverterStrategy.sol:PancakeConverterStrategy",
            "label": "performanceFeeRatio",
            "offset": 0,
            "slot": "4",
            "type": "t_uint256"
          },
          {
            "astId": 5551,
            "contract": "contracts/strategies/pancake/PancakeConverterStrategy.sol:PancakeConverterStrategy",
            "label": "compoundRatio",
            "offset": 0,
            "slot": "5",
            "type": "t_uint256"
          },
          {
            "astId": 5554,
            "contract": "contracts/strategies/pancake/PancakeConverterStrategy.sol:PancakeConverterStrategy",
            "label": "strategySpecificName",
            "offset": 0,
            "slot": "6",
            "type": "t_string_storage"
          }
        ],
        "numberOfBytes": "224"
      },
      "t_struct(ConverterStrategyBaseState)93300_storage": {
        "encoding": "inplace",
        "label": "struct IConverterStrategyBase.ConverterStrategyBaseState",
        "members": [
          {
            "astId": 93282,
            "contract": "contracts/strategies/pancake/PancakeConverterStrategy.sol:PancakeConverterStrategy",
            "label": "investedAssets",
            "offset": 0,
            "slot": "0",
            "type": "t_uint256"
          },
          {
            "astId": 93286,
            "contract": "contracts/strategies/pancake/PancakeConverterStrategy.sol:PancakeConverterStrategy",
            "label": "converter",
            "offset": 0,
            "slot": "1",
            "type": "t_contract(ITetuConverter)51535"
          },
          {
            "astId": 93289,
            "contract": "contracts/strategies/pancake/PancakeConverterStrategy.sol:PancakeConverterStrategy",
            "label": "reinvestThresholdPercent",
            "offset": 0,
            "slot": "2",
            "type": "t_uint256"
          },
          {
            "astId": 93292,
            "contract": "contracts/strategies/pancake/PancakeConverterStrategy.sol:PancakeConverterStrategy",
            "label": "debtToInsurance",
            "offset": 0,
            "slot": "3",
            "type": "t_int256"
          },
          {
            "astId": 93299,
            "contract": "contracts/strategies/pancake/PancakeConverterStrategy.sol:PancakeConverterStrategy",
            "label": "__gap",
            "offset": 0,
            "slot": "4",
            "type": "t_array(t_uint256)49_storage"
          }
        ],
        "numberOfBytes": "1696"
      },
      "t_struct(FuseStateParams)120879_storage": {
        "encoding": "inplace",
        "label": "struct PairBasedStrategyLib.FuseStateParams",
        "members": [
          {
            "astId": 120868,
            "contract": "contracts/strategies/pancake/PancakeConverterStrategy.sol:PancakeConverterStrategy",
            "label": "status",
            "offset": 0,
            "slot": "0",
            "type": "t_enum(FuseStatus)120839"
          },
          {
            "astId": 120873,
            "contract": "contracts/strategies/pancake/PancakeConverterStrategy.sol:PancakeConverterStrategy",
            "label": "thresholds",
            "offset": 0,
            "slot": "1",
            "type": "t_array(t_uint256)4_storage"
          },
          {
            "astId": 120878,
            "contract": "contracts/strategies/pancake/PancakeConverterStrategy.sol:PancakeConverterStrategy",
            "label": "__gap",
            "offset": 0,
            "slot": "5",
            "type": "t_array(t_uint256)4_storage"
          }
        ],
        "numberOfBytes": "288"
      },
      "t_struct(PairState)123049_storage": {
        "encoding": "inplace",
        "label": "struct PairBasedStrategyLogicLib.PairState",
        "members": [
          {
            "astId": 123008,
            "contract": "contracts/strategies/pancake/PancakeConverterStrategy.sol:PancakeConverterStrategy",
            "label": "pool",
            "offset": 0,
            "slot": "0",
            "type": "t_address"
          },
          {
            "astId": 123010,
            "contract": "contracts/strategies/pancake/PancakeConverterStrategy.sol:PancakeConverterStrategy",
            "label": "strategyProfitHolder",
            "offset": 0,
            "slot": "1",
            "type": "t_address"
          },
          {
            "astId": 123013,
            "contract": "contracts/strategies/pancake/PancakeConverterStrategy.sol:PancakeConverterStrategy",
            "label": "tokenA",
            "offset": 0,
            "slot": "2",
            "type": "t_address"
          },
          {
            "astId": 123016,
            "contract": "contracts/strategies/pancake/PancakeConverterStrategy.sol:PancakeConverterStrategy",
            "label": "tokenB",
            "offset": 0,
            "slot": "3",
            "type": "t_address"
          },
          {
            "astId": 123018,
            "contract": "contracts/strategies/pancake/PancakeConverterStrategy.sol:PancakeConverterStrategy",
            "label": "isStablePool",
            "offset": 20,
            "slot": "3",
            "type": "t_bool"
          },
          {
            "astId": 123021,
            "contract": "contracts/strategies/pancake/PancakeConverterStrategy.sol:PancakeConverterStrategy",
            "label": "depositorSwapTokens",
            "offset": 21,
            "slot": "3",
            "type": "t_bool"
          },
          {
            "astId": 123023,
            "contract": "contracts/strategies/pancake/PancakeConverterStrategy.sol:PancakeConverterStrategy",
            "label": "tickSpacing",
            "offset": 22,
            "slot": "3",
            "type": "t_int24"
          },
          {
            "astId": 123025,
            "contract": "contracts/strategies/pancake/PancakeConverterStrategy.sol:PancakeConverterStrategy",
            "label": "lowerTick",
            "offset": 25,
            "slot": "3",
            "type": "t_int24"
          },
          {
            "astId": 123027,
            "contract": "contracts/strategies/pancake/PancakeConverterStrategy.sol:PancakeConverterStrategy",
            "label": "upperTick",
            "offset": 28,
            "slot": "3",
            "type": "t_int24"
          },
          {
            "astId": 123029,
            "contract": "contracts/strategies/pancake/PancakeConverterStrategy.sol:PancakeConverterStrategy",
            "label": "rebalanceTickRange",
            "offset": 0,
            "slot": "4",
            "type": "t_int24"
          },
          {
            "astId": 123031,
            "contract": "contracts/strategies/pancake/PancakeConverterStrategy.sol:PancakeConverterStrategy",
            "label": "totalLiquidity",
            "offset": 3,
            "slot": "4",
            "type": "t_uint128"
          },
          {
            "astId": 123035,
            "contract": "contracts/strategies/pancake/PancakeConverterStrategy.sol:PancakeConverterStrategy",
            "label": "fuseAB",
            "offset": 0,
            "slot": "5",
            "type": "t_struct(FuseStateParams)120879_storage"
          },
          {
            "astId": 123038,
            "contract": "contracts/strategies/pancake/PancakeConverterStrategy.sol:PancakeConverterStrategy",
            "label": "withdrawDone",
            "offset": 0,
            "slot": "14",
            "type": "t_uint256"
          },
          {
            "astId": 123041,
            "contract": "contracts/strategies/pancake/PancakeConverterStrategy.sol:PancakeConverterStrategy",
            "label": "lastRebalanceNoSwap",
            "offset": 0,
            "slot": "15",
            "type": "t_uint256"
          },
          {
            "astId": 123048,
            "contract": "contracts/strategies/pancake/PancakeConverterStrategy.sol:PancakeConverterStrategy",
            "label": "__gap",
            "offset": 0,
            "slot": "16",
            "type": "t_array(t_uint256)33_storage"
          }
        ],
        "numberOfBytes": "1568"
      },
      "t_struct(State)125957_storage": {
        "encoding": "inplace",
        "label": "struct PancakeConverterStrategyLogicLib.State",
        "members": [
          {
            "astId": 125945,
            "contract": "contracts/strategies/pancake/PancakeConverterStrategy.sol:PancakeConverterStrategy",
            "label": "pair",
            "offset": 0,
            "slot": "0",
            "type": "t_struct(PairState)123049_storage"
          },
          {
            "astId": 125948,
            "contract": "contracts/strategies/pancake/PancakeConverterStrategy.sol:PancakeConverterStrategy",
            "label": "tokenId",
            "offset": 0,
            "slot": "49",
            "type": "t_uint256"
          },
          {
            "astId": 125951,
            "contract": "contracts/strategies/pancake/PancakeConverterStrategy.sol:PancakeConverterStrategy",
            "label": "chef",
            "offset": 0,
            "slot": "50",
            "type": "t_contract(IPancakeMasterChefV3)89341"
          },
          {
            "astId": 125956,
            "contract": "contracts/strategies/pancake/PancakeConverterStrategy.sol:PancakeConverterStrategy",
            "label": "__gap",
            "offset": 0,
            "slot": "51",
            "type": "t_array(t_uint256)10_storage"
          }
        ],
        "numberOfBytes": "1952"
      },
      "t_uint128": {
        "encoding": "inplace",
        "label": "uint128",
        "numberOfBytes": "16"
      },
      "t_uint256": {
        "encoding": "inplace",
        "label": "uint256",
        "numberOfBytes": "32"
      },
      "t_uint8": {
        "encoding": "inplace",
        "label": "uint8",
        "numberOfBytes": "1"
      }
    }
  }
}