{
  "address": "0xFe5E7294F255caBb39C8f786264C6B4f92b63210",
  "abi": [
    {
      "anonymous": false,
      "inputs": [
        {
          "indexed": false,
          "internalType": "address",
          "name": "controller",
          "type": "address"
        },
        {
          "indexed": false,
          "internalType": "uint256",
          "name": "ts",
          "type": "uint256"
        },
        {
          "indexed": false,
          "internalType": "uint256",
          "name": "block",
          "type": "uint256"
        }
      ],
      "name": "ContractInitialized",
      "type": "event"
    },
    {
      "anonymous": false,
      "inputs": [
        {
          "indexed": false,
          "internalType": "uint8",
          "name": "version",
          "type": "uint8"
        }
      ],
      "name": "Initialized",
      "type": "event"
    },
    {
      "anonymous": false,
      "inputs": [
        {
          "indexed": false,
          "internalType": "uint256[]",
          "name": "withdrawnAmounts",
          "type": "uint256[]"
        }
      ],
      "name": "OnDepositorEmergencyExit",
      "type": "event"
    },
    {
      "anonymous": false,
      "inputs": [
        {
          "indexed": false,
          "internalType": "uint256[]",
          "name": "amounts",
          "type": "uint256[]"
        },
        {
          "indexed": false,
          "internalType": "uint256[]",
          "name": "consumedAmounts",
          "type": "uint256[]"
        }
      ],
      "name": "OnDepositorEnter",
      "type": "event"
    },
    {
      "anonymous": false,
      "inputs": [
        {
          "indexed": false,
          "internalType": "uint256",
          "name": "liquidityAmount",
          "type": "uint256"
        },
        {
          "indexed": false,
          "internalType": "uint256[]",
          "name": "withdrawnAmounts",
          "type": "uint256[]"
        }
      ],
      "name": "OnDepositorExit",
      "type": "event"
    },
    {
      "anonymous": false,
      "inputs": [
        {
          "indexed": false,
          "internalType": "uint256",
          "name": "investedAssetsNewPrices",
          "type": "uint256"
        },
        {
          "indexed": false,
          "internalType": "uint256",
          "name": "earnedByPrices",
          "type": "uint256"
        },
        {
          "indexed": false,
          "internalType": "uint256",
          "name": "earnedHandleRewards",
          "type": "uint256"
        },
        {
          "indexed": false,
          "internalType": "uint256",
          "name": "lostHandleRewards",
          "type": "uint256"
        },
        {
          "indexed": false,
          "internalType": "uint256",
          "name": "earnedDeposit",
          "type": "uint256"
        },
        {
          "indexed": false,
          "internalType": "uint256",
          "name": "lostDeposit",
          "type": "uint256"
        },
        {
          "indexed": false,
          "internalType": "uint256",
          "name": "paidDebtToInsurance",
          "type": "uint256"
        }
      ],
      "name": "OnHardWorkEarnedLost",
      "type": "event"
    },
    {
      "anonymous": false,
      "inputs": [
        {
          "indexed": false,
          "internalType": "uint256",
          "name": "value",
          "type": "uint256"
        },
        {
          "indexed": false,
          "internalType": "address",
          "name": "oldLogic",
          "type": "address"
        }
      ],
      "name": "RevisionIncreased",
      "type": "event"
    },
    {
      "inputs": [],
      "name": "CONTROLLABLE_VERSION",
      "outputs": [
        {
          "internalType": "string",
          "name": "",
          "type": "string"
        }
      ],
      "stateMutability": "view",
      "type": "function"
    },
    {
      "inputs": [],
      "name": "CONVERTER_STRATEGY_BASE_VERSION",
      "outputs": [
        {
          "internalType": "string",
          "name": "",
          "type": "string"
        }
      ],
      "stateMutability": "view",
      "type": "function"
    },
    {
      "inputs": [],
      "name": "NAME",
      "outputs": [
        {
          "internalType": "string",
          "name": "",
          "type": "string"
        }
      ],
      "stateMutability": "view",
      "type": "function"
    },
    {
      "inputs": [],
      "name": "PLATFORM",
      "outputs": [
        {
          "internalType": "string",
          "name": "",
          "type": "string"
        }
      ],
      "stateMutability": "view",
      "type": "function"
    },
    {
      "inputs": [],
      "name": "STRATEGY_BASE_VERSION",
      "outputs": [
        {
          "internalType": "string",
          "name": "",
          "type": "string"
        }
      ],
      "stateMutability": "view",
      "type": "function"
    },
    {
      "inputs": [],
      "name": "STRATEGY_VERSION",
      "outputs": [
        {
          "internalType": "string",
          "name": "",
          "type": "string"
        }
      ],
      "stateMutability": "view",
      "type": "function"
    },
    {
      "inputs": [],
      "name": "UNISWAPV3_DEPOSITOR_VERSION",
      "outputs": [
        {
          "internalType": "string",
          "name": "",
          "type": "string"
        }
      ],
      "stateMutability": "view",
      "type": "function"
    },
    {
      "inputs": [],
      "name": "asset",
      "outputs": [
        {
          "internalType": "address",
          "name": "",
          "type": "address"
        }
      ],
      "stateMutability": "view",
      "type": "function"
    },
    {
      "inputs": [],
      "name": "calcInvestedAssets",
      "outputs": [
        {
          "internalType": "uint256",
          "name": "investedAssetsOut",
          "type": "uint256"
        }
      ],
      "stateMutability": "nonpayable",
      "type": "function"
    },
    {
      "inputs": [],
      "name": "capacity",
      "outputs": [
        {
          "internalType": "uint256",
          "name": "",
          "type": "uint256"
        }
      ],
      "stateMutability": "view",
      "type": "function"
    },
    {
      "inputs": [],
      "name": "claim",
      "outputs": [],
      "stateMutability": "nonpayable",
      "type": "function"
    },
    {
      "inputs": [],
      "name": "compoundRatio",
      "outputs": [
        {
          "internalType": "uint256",
          "name": "",
          "type": "uint256"
        }
      ],
      "stateMutability": "view",
      "type": "function"
    },
    {
      "inputs": [],
      "name": "controller",
      "outputs": [
        {
          "internalType": "address",
          "name": "",
          "type": "address"
        }
      ],
      "stateMutability": "view",
      "type": "function"
    },
    {
      "inputs": [],
      "name": "converter",
      "outputs": [
        {
          "internalType": "contract ITetuConverter",
          "name": "",
          "type": "address"
        }
      ],
      "stateMutability": "view",
      "type": "function"
    },
    {
      "inputs": [],
      "name": "created",
      "outputs": [
        {
          "internalType": "uint256",
          "name": "",
          "type": "uint256"
        }
      ],
      "stateMutability": "view",
      "type": "function"
    },
    {
      "inputs": [],
      "name": "createdBlock",
      "outputs": [
        {
          "internalType": "uint256",
          "name": "",
          "type": "uint256"
        }
      ],
      "stateMutability": "view",
      "type": "function"
    },
    {
      "inputs": [],
      "name": "debtToInsurance",
      "outputs": [
        {
          "internalType": "int256",
          "name": "",
          "type": "int256"
        }
      ],
      "stateMutability": "view",
      "type": "function"
    },
    {
      "inputs": [],
      "name": "doHardWork",
      "outputs": [
        {
          "internalType": "uint256",
          "name": "earned",
          "type": "uint256"
        },
        {
          "internalType": "uint256",
          "name": "lost",
          "type": "uint256"
        }
      ],
      "stateMutability": "nonpayable",
      "type": "function"
    },
    {
      "inputs": [],
      "name": "emergencyExit",
      "outputs": [],
      "stateMutability": "nonpayable",
      "type": "function"
    },
    {
      "inputs": [],
      "name": "getDefaultState",
      "outputs": [
        {
          "internalType": "address[]",
          "name": "addr",
          "type": "address[]"
        },
        {
          "internalType": "int24[]",
          "name": "tickData",
          "type": "int24[]"
        },
        {
          "internalType": "uint256[]",
          "name": "nums",
          "type": "uint256[]"
        },
        {
          "internalType": "bool[]",
          "name": "boolValues",
          "type": "bool[]"
        }
      ],
      "stateMutability": "view",
      "type": "function"
    },
    {
      "inputs": [],
      "name": "getFees",
      "outputs": [
        {
          "internalType": "uint256",
          "name": "fee0",
          "type": "uint256"
        },
        {
          "internalType": "uint256",
          "name": "fee1",
          "type": "uint256"
        }
      ],
      "stateMutability": "view",
      "type": "function"
    },
    {
      "inputs": [],
      "name": "getPropNotUnderlying18",
      "outputs": [
        {
          "internalType": "uint256",
          "name": "",
          "type": "uint256"
        }
      ],
      "stateMutability": "view",
      "type": "function"
    },
    {
      "inputs": [
        {
          "internalType": "uint256",
          "name": "slot",
          "type": "uint256"
        }
      ],
      "name": "getSlot",
      "outputs": [
        {
          "internalType": "bytes32",
          "name": "result",
          "type": "bytes32"
        }
      ],
      "stateMutability": "view",
      "type": "function"
    },
    {
      "inputs": [],
      "name": "getSpecificState",
      "outputs": [
        {
          "internalType": "uint256[]",
          "name": "nums",
          "type": "uint256[]"
        }
      ],
      "stateMutability": "view",
      "type": "function"
    },
    {
      "inputs": [
        {
          "internalType": "address",
          "name": "oldLogic",
          "type": "address"
        }
      ],
      "name": "increaseRevision",
      "outputs": [],
      "stateMutability": "nonpayable",
      "type": "function"
    },
    {
      "inputs": [
        {
          "internalType": "address",
          "name": "controller_",
          "type": "address"
        },
        {
          "internalType": "address",
          "name": "splitter_",
          "type": "address"
        },
        {
          "internalType": "address",
          "name": "converter_",
          "type": "address"
        },
        {
          "internalType": "address",
          "name": "pool_",
          "type": "address"
        },
        {
          "internalType": "int24",
          "name": "tickRange_",
          "type": "int24"
        },
        {
          "internalType": "int24",
          "name": "rebalanceTickRange_",
          "type": "int24"
        },
        {
          "internalType": "uint256[4]",
          "name": "fuseThresholds",
          "type": "uint256[4]"
        }
      ],
      "name": "init",
      "outputs": [],
      "stateMutability": "nonpayable",
      "type": "function"
    },
    {
      "inputs": [
        {
          "internalType": "uint256",
          "name": "",
          "type": "uint256"
        },
        {
          "internalType": "bool",
          "name": "updateTotalAssetsBeforeInvest_",
          "type": "bool"
        }
      ],
      "name": "investAll",
      "outputs": [
        {
          "internalType": "uint256",
          "name": "strategyLoss",
          "type": "uint256"
        }
      ],
      "stateMutability": "nonpayable",
      "type": "function"
    },
    {
      "inputs": [],
      "name": "investedAssets",
      "outputs": [
        {
          "internalType": "uint256",
          "name": "",
          "type": "uint256"
        }
      ],
      "stateMutability": "view",
      "type": "function"
    },
    {
      "inputs": [
        {
          "internalType": "address",
          "name": "_value",
          "type": "address"
        }
      ],
      "name": "isController",
      "outputs": [
        {
          "internalType": "bool",
          "name": "",
          "type": "bool"
        }
      ],
      "stateMutability": "view",
      "type": "function"
    },
    {
      "inputs": [
        {
          "internalType": "address",
          "name": "_value",
          "type": "address"
        }
      ],
      "name": "isGovernance",
      "outputs": [
        {
          "internalType": "bool",
          "name": "",
          "type": "bool"
        }
      ],
      "stateMutability": "view",
      "type": "function"
    },
    {
      "inputs": [],
      "name": "isReadyToHardWork",
      "outputs": [
        {
          "internalType": "bool",
          "name": "",
          "type": "bool"
        }
      ],
      "stateMutability": "view",
      "type": "function"
    },
    {
      "inputs": [
        {
          "internalType": "address",
          "name": "",
          "type": "address"
        }
      ],
      "name": "liquidationThresholds",
      "outputs": [
        {
          "internalType": "uint256",
          "name": "",
          "type": "uint256"
        }
      ],
      "stateMutability": "view",
      "type": "function"
    },
    {
      "inputs": [],
      "name": "needRebalance",
      "outputs": [
        {
          "internalType": "bool",
          "name": "",
          "type": "bool"
        }
      ],
      "stateMutability": "view",
      "type": "function"
    },
    {
      "inputs": [
        {
          "internalType": "address[]",
          "name": "assets_",
          "type": "address[]"
        },
        {
          "internalType": "uint256[]",
          "name": "amounts_",
          "type": "uint256[]"
        }
      ],
      "name": "onTransferAmounts",
      "outputs": [],
      "stateMutability": "nonpayable",
      "type": "function"
    },
    {
      "inputs": [],
      "name": "performanceFee",
      "outputs": [
        {
          "internalType": "uint256",
          "name": "",
          "type": "uint256"
        }
      ],
      "stateMutability": "view",
      "type": "function"
    },
    {
      "inputs": [],
      "name": "performanceFeeRatio",
      "outputs": [
        {
          "internalType": "uint256",
          "name": "",
          "type": "uint256"
        }
      ],
      "stateMutability": "view",
      "type": "function"
    },
    {
      "inputs": [],
      "name": "performanceReceiver",
      "outputs": [
        {
          "internalType": "address",
          "name": "",
          "type": "address"
        }
      ],
      "stateMutability": "view",
      "type": "function"
    },
    {
      "inputs": [],
      "name": "previousImplementation",
      "outputs": [
        {
          "internalType": "address",
          "name": "",
          "type": "address"
        }
      ],
      "stateMutability": "view",
      "type": "function"
    },
    {
      "inputs": [
        {
          "internalType": "bytes",
          "name": "planEntryData",
          "type": "bytes"
        }
      ],
      "name": "quoteWithdrawByAgg",
      "outputs": [
        {
          "internalType": "address",
          "name": "tokenToSwap",
          "type": "address"
        },
        {
          "internalType": "uint256",
          "name": "amountToSwap",
          "type": "uint256"
        }
      ],
      "stateMutability": "nonpayable",
      "type": "function"
    },
    {
      "inputs": [
        {
          "internalType": "bool",
          "name": "checkNeedRebalance",
          "type": "bool"
        }
      ],
      "name": "rebalanceNoSwaps",
      "outputs": [],
      "stateMutability": "nonpayable",
      "type": "function"
    },
    {
      "inputs": [],
      "name": "reinvestThresholdPercent",
      "outputs": [
        {
          "internalType": "uint256",
          "name": "",
          "type": "uint256"
        }
      ],
      "stateMutability": "view",
      "type": "function"
    },
    {
      "inputs": [
        {
          "internalType": "address",
          "name": "theAsset_",
          "type": "address"
        },
        {
          "internalType": "uint256",
          "name": "amount_",
          "type": "uint256"
        }
      ],
      "name": "requirePayAmountBack",
      "outputs": [
        {
          "internalType": "uint256",
          "name": "amountOut",
          "type": "uint256"
        }
      ],
      "stateMutability": "nonpayable",
      "type": "function"
    },
    {
      "inputs": [],
      "name": "revision",
      "outputs": [
        {
          "internalType": "uint256",
          "name": "",
          "type": "uint256"
        }
      ],
      "stateMutability": "view",
      "type": "function"
    },
    {
      "inputs": [
        {
          "internalType": "uint256",
          "name": "value",
          "type": "uint256"
        }
      ],
      "name": "setCompoundRatio",
      "outputs": [],
      "stateMutability": "nonpayable",
      "type": "function"
    },
    {
      "inputs": [
        {
          "internalType": "uint256",
          "name": "status",
          "type": "uint256"
        }
      ],
      "name": "setFuseStatus",
      "outputs": [],
      "stateMutability": "nonpayable",
      "type": "function"
    },
    {
      "inputs": [
        {
          "internalType": "uint256[4]",
          "name": "values",
          "type": "uint256[4]"
        }
      ],
      "name": "setFuseThresholds",
      "outputs": [],
      "stateMutability": "nonpayable",
      "type": "function"
    },
    {
      "inputs": [
        {
          "internalType": "address",
          "name": "token",
          "type": "address"
        },
        {
          "internalType": "uint256",
          "name": "amount",
          "type": "uint256"
        }
      ],
      "name": "setLiquidationThreshold",
      "outputs": [],
      "stateMutability": "nonpayable",
      "type": "function"
    },
    {
      "inputs": [
        {
          "internalType": "uint256",
          "name": "percent_",
          "type": "uint256"
        }
      ],
      "name": "setReinvestThresholdPercent",
      "outputs": [],
      "stateMutability": "nonpayable",
      "type": "function"
    },
    {
      "inputs": [
        {
          "internalType": "address",
          "name": "strategyProfitHolder",
          "type": "address"
        }
      ],
      "name": "setStrategyProfitHolder",
      "outputs": [],
      "stateMutability": "nonpayable",
      "type": "function"
    },
    {
      "inputs": [
        {
          "internalType": "string",
          "name": "name",
          "type": "string"
        }
      ],
      "name": "setStrategySpecificName",
      "outputs": [],
      "stateMutability": "nonpayable",
      "type": "function"
    },
    {
      "inputs": [
        {
          "internalType": "uint256",
          "name": "done",
          "type": "uint256"
        }
      ],
      "name": "setWithdrawDone",
      "outputs": [],
      "stateMutability": "nonpayable",
      "type": "function"
    },
    {
      "inputs": [
        {
          "internalType": "uint256",
          "name": "fee_",
          "type": "uint256"
        },
        {
          "internalType": "address",
          "name": "receiver_",
          "type": "address"
        },
        {
          "internalType": "uint256",
          "name": "ratio_",
          "type": "uint256"
        }
      ],
      "name": "setupPerformanceFee",
      "outputs": [],
      "stateMutability": "nonpayable",
      "type": "function"
    },
    {
      "inputs": [],
      "name": "splitter",
      "outputs": [
        {
          "internalType": "address",
          "name": "",
          "type": "address"
        }
      ],
      "stateMutability": "view",
      "type": "function"
    },
    {
      "inputs": [],
      "name": "strategySpecificName",
      "outputs": [
        {
          "internalType": "string",
          "name": "",
          "type": "string"
        }
      ],
      "stateMutability": "view",
      "type": "function"
    },
    {
      "inputs": [
        {
          "internalType": "bytes4",
          "name": "interfaceId",
          "type": "bytes4"
        }
      ],
      "name": "supportsInterface",
      "outputs": [
        {
          "internalType": "bool",
          "name": "",
          "type": "bool"
        }
      ],
      "stateMutability": "view",
      "type": "function"
    },
    {
      "inputs": [],
      "name": "totalAssets",
      "outputs": [
        {
          "internalType": "uint256",
          "name": "",
          "type": "uint256"
        }
      ],
      "stateMutability": "view",
      "type": "function"
    },
    {
      "inputs": [
        {
          "internalType": "uint256",
          "name": "amount0Owed",
          "type": "uint256"
        },
        {
          "internalType": "uint256",
          "name": "amount1Owed",
          "type": "uint256"
        },
        {
          "internalType": "bytes",
          "name": "",
          "type": "bytes"
        }
      ],
      "name": "uniswapV3MintCallback",
      "outputs": [],
      "stateMutability": "nonpayable",
      "type": "function"
    },
    {
      "inputs": [],
      "name": "withdrawAllToSplitter",
      "outputs": [
        {
          "internalType": "uint256",
          "name": "strategyLoss",
          "type": "uint256"
        }
      ],
      "stateMutability": "nonpayable",
      "type": "function"
    },
    {
      "inputs": [
        {
          "internalType": "address",
          "name": "tokenToSwap_",
          "type": "address"
        },
        {
          "internalType": "address",
          "name": "aggregator_",
          "type": "address"
        },
        {
          "internalType": "uint256",
          "name": "amountToSwap_",
          "type": "uint256"
        },
        {
          "internalType": "bytes",
          "name": "swapData",
          "type": "bytes"
        },
        {
          "internalType": "bytes",
          "name": "planEntryData",
          "type": "bytes"
        },
        {
          "internalType": "uint256",
          "name": "entryToPool",
          "type": "uint256"
        }
      ],
      "name": "withdrawByAggStep",
      "outputs": [
        {
          "internalType": "bool",
          "name": "completed",
          "type": "bool"
        }
      ],
      "stateMutability": "nonpayable",
      "type": "function"
    },
    {
      "inputs": [
        {
          "internalType": "uint256",
          "name": "amount",
          "type": "uint256"
        }
      ],
      "name": "withdrawToSplitter",
      "outputs": [
        {
          "internalType": "uint256",
          "name": "strategyLoss",
          "type": "uint256"
        }
      ],
      "stateMutability": "nonpayable",
      "type": "function"
    }
  ],
  "transactionHash": "0xd3f7986b6ca23ef6c0bccf6162aa156f37e890a5587bb80df257132180e8883e",
  "args": [],
  "numDeployments": 3,
  "solcInputHash": "e76158ae9a22536febb5003c96af34b3",
  "bytecode": "0x60806040523480156200001157600080fd5b506200001c62000022565b620000e3565b600054610100900460ff16156200008f5760405162461bcd60e51b815260206004820152602760248201527f496e697469616c697a61626c653a20636f6e747261637420697320696e697469604482015266616c697a696e6760c81b606482015260840160405180910390fd5b60005460ff90811614620000e1576000805460ff191660ff9081179091556040519081527f7f26b83ff96e1f2b6a682f133852f6798a09c465da95921460cefb38474024989060200160405180910390a15b565b615c4980620000f36000396000f3fe608060405234801561001057600080fd5b50600436106103645760003560e01c806371ee0175116101c9578063b429afeb116100ff578063d3487997116100ad578063dfeb10321161007c578063dfeb103214610795578063e50df07d146107a8578063f77c4791146107bb578063ffb86c6a146107c357600080fd5b8063d348799714610754578063db8d55f114610767578063de3d047c1461076f578063dee1f0e41461078257600080fd5b8063b429afeb146106dd578063b77c975b146106f0578063bd38837b14610722578063cd4c815614610733578063ce2f184214610744578063ceee861d1461050a578063d295ea701461074c57600080fd5b806387c7f770116101775780639d0bcca0116101465780639d0bcca01461067e578063a3f4df7e14610686578063ab9e3eee146106c2578063b2457556146106ca57600080fd5b806387c7f77014610610578063936725ec1461062357806396b7b14e14610647578063996a6c9c1461065a57600080fd5b806371ee01751461057a57806373a50ef51461058257806378327438146105a65780637cc96380146105c65780637eba7ba6146105ce5780637efc77fa146105e0578063877887821461060857600080fd5b80634ba31b011161029e578063546799631161024c57806363e277341161021b57806363e277341461052e5780636b5fba5a146105415780636ffb4c8e146105545780637063a2371461056757600080fd5b806354679963146104e35780635641ec03146104f85780635cfc1a51146105005780636207a0cf1461050a57600080fd5b80634ba31b01146104635780634e71d92d1461046b5780634fa5d854146104735780634fac6ccd1461049057806351e03fbe146104a357806352bbbb74146104b65780635412335d146104cb57600080fd5b8063261efa12116103165780633cd8045e116102e55780633cd8045e1461042f57806342fdb471146104405780634593144c146104535780634ad0b6841461045b57600080fd5b8063261efa12146103fd578063325a19f11461040557806333c5b58e1461040d57806338d52e0f1461041557600080fd5b806301e1d1141461036957806301ffc9a714610384578063066a6fc3146103a75780630acd12c7146103ba5780630e30428d146103c25780631d2dca9e146103d75780632221eb3c146103ea575b600080fd5b6103716107cb565b6040519081526020015b60405180910390f35b610397610392366004614848565b610856565b604051901515815260200161037b565b6103976103b536600461494d565b61089c565b610371610a7b565b6103d56103d03660046149e7565b610b9d565b005b6103d56103e5366004614a21565b610c41565b6103d56103f8366004614a3e565b610daa565b606854610371565b610371610e20565b610371610e50565b6064546001600160a01b03165b60405161037b9190614a57565b6065546001600160a01b0316610422565b6103d561044e366004614a3e565b610ed0565b610371610fbf565b609754610371565b610371610fef565b6103d5611066565b61047b6110e0565b6040805192835260208301919091520161037b565b6103d561049e366004614a6b565b61114e565b6103716104b1366004614a3e565b611280565b6104be611448565b60405161037b9190614ac3565b6104d3611598565b60405161037b9493929190614b08565b6104eb611627565b60405161037b9190614bfc565b6103d56116bc565b600160ff1b610371565b6104eb60405180604001604052806005815260200164332e312e3160d81b81525081565b6103d561053c366004614c50565b611755565b6103d561054f366004614a6b565b611833565b6103d5610562366004614a3e565b6118c4565b6103d5610575366004614c85565b61194c565b609954610371565b6104eb604051806040016040528060058152602001640332e302e360dc1b81525081565b6103716105b4366004614a6b565b60966020526000908152604090205481565b6103716119ea565b6103716105dc366004614a3e565b5490565b6104eb60405180604001604052806009815260200168556e6973776170563360b81b81525081565b606754610371565b61037161061e3660046149e7565b611a1a565b6104eb60405180604001604052806005815260200164332e302e3160d81b81525081565b6103d5610655366004614d46565b611d00565b6104eb604051806040016040528060058152602001640c4b8c0b8d60da1b81525081565b610422611da5565b6104eb6040518060400160405280601c81526020017f556e6973776170563320436f6e7665727465722053747261746567790000000081525081565b610397611dd5565b6103716106d8366004614e07565b611e80565b6103976106eb366004614a6b565b611f2f565b6107036106fe366004614e37565b611f54565b604080516001600160a01b03909316835260208301919091520161037b565b6098546001600160a01b0316610422565b6066546001600160a01b0316610422565b609a54610371565b606954610371565b6103d5610762366004614e6b565b612046565b61047b612137565b6103d561077d366004614a3e565b6121af565b610397610790366004614a6b565b61220c565b6103d56107a3366004614ebd565b612291565b6103d56107b6366004614f49565b612339565b61042261260d565b61039761263d565b60006107d660975490565b6064546040516370a0823160e01b81526001600160a01b03909116906370a0823190610806903090600401614a57565b602060405180830381865afa158015610823573d6000803e3d6000fd5b505050506040513d601f19601f820116820180604052508101906108479190614fe5565b6108519190615014565b905090565b60006001600160e01b03198216631e94dddf60e01b148061088757506001600160e01b0319821663f73147b360e01b145b8061089657506108968261268b565b92915050565b60008060006108a96126b0565b91509150606073631DA2Fb619Fe49E96758A9c15f87f482A31Ec3a63911ec05360976040518060a001604052808e6001600160a01b03166001600160a01b031681526020018d6001600160a01b03166001600160a01b0316815260200161090e61260d565b6001600160a01b039081168252609854811660208084019190915260655490911660409283015281516080810183528e8152908101899052808201889052606081018b905290516001600160e01b031960e086901b16815261097f939291908d908d9060019060969060040161504a565b600060405180830381865af415801561099c573d6000803e3d6000fd5b505050506040513d6000823e601f3d908101601f191682016040526109c4919081019061512e565b90945090506109d281612702565b60006010558380156109e757506109e7612731565b156109f2576001600f555b606480546040516368f9467b60e01b81526001600160a01b0390911660048201526024810184905260976044820152734089B52F777850eBB8e8252055707B7B36817358916368f9467b910160006040518083038186803b158015610a5657600080fd5b505af4158015610a6a573d6000803e3d6000fd5b505050505050509695505050505050565b606554606454604051633e53813360e11b81526000926001600160a01b03908116921690839073956D3fed2B1FC3B905C9376b4c5DAAc9ADF999c490637ca7026690610acd9086908690600401615174565b602060405180830381865af4158015610aea573d6000803e3d6000fd5b505050506040513d601f19601f82011682018060405250810190610b0e9190614fe5565b90506000806000610b1d612743565b92509250925073956D3fed2B1FC3B905C9376b4c5DAAc9ADF999c4639ad00ec2868686868b6040518663ffffffff1660e01b8152600401610b6295949392919061518e565b60006040518083038186803b158015610b7a57600080fd5b505af4158015610b8e573d6000803e3d6000fd5b50929998505050505050505050565b734089B52F777850eBB8e8252055707B7B3681735863142395ef610bbf61260d565b6040516001600160e01b031960e084901b1681526001600160a01b03918216600482015290851660248201526044810184905260640160006040518083038186803b158015610c0d57600080fd5b505af4158015610c21573d6000803e3d6000fd5b5050506001600160a01b0390921660009081526096602052604090205550565b6000610c4b61260d565b60405163124fdbb760e21b815290915073956D3fed2B1FC3B905C9376b4c5DAAc9ADF999c49063493f6edc90610c85908490600401614a57565b60006040518083038186803b158015610c9d57600080fd5b505af4158015610cb1573d6000803e3d6000fd5b50505050600080610cc06126b0565b604080518082019091526098546001600160a01b03168152919350915060009073631DA2Fb619Fe49E96758A9c15f87f482A31Ec3a9063b6fda8139060979060019060208101610d0f8a61275e565b6001600160a01b039081169091526065546040516001600160e01b031960e088901b168152610d4f959493928a928c929116908e906096906004016151be565b600060405180830381865af4158015610d6c573d6000803e3d6000fd5b505050506040513d6000823e601f3d908101601f19168201604052610d949190810190615237565b9050610d9f81612702565b505042601055505050565b73956D3fed2B1FC3B905C9376b4c5DAAc9ADF999c463493f6edc610dcc61260d565b6040518263ffffffff1660e01b8152600401610de89190614a57565b60006040518083038186803b158015610e0057600080fd5b505af4158015610e14573d6000803e3d6000fd5b505050600f9190915550565b60006108516105dc60017f6f55f470bdc9cb5f04223fd822021061668e4dccb43e8727b295106dc9769c8b61526b565b600073956D3fed2B1FC3B905C9376b4c5DAAc9ADF999c463493f6edc610e7461260d565b6040518263ffffffff1660e01b8152600401610e909190614a57565b60006040518083038186803b158015610ea857600080fd5b505af4158015610ebc573d6000803e3d6000fd5b50505050610ec86127c2565b509092915050565b73956D3fed2B1FC3B905C9376b4c5DAAc9ADF999c463493f6edc610ef261260d565b6040518263ffffffff1660e01b8152600401610f0e9190614a57565b60006040518083038186803b158015610f2657600080fd5b505af4158015610f3a573d6000803e3d6000fd5b5073713DF40F222d36d557e1A66f6F79fDbC0a78457D9250636bffb346915060069050836003811115610f6f57610f6f61527e565b6040518363ffffffff1660e01b8152600401610f8c929190615294565b60006040518083038186803b158015610fa457600080fd5b505af4158015610fb8573d6000803e3d6000fd5b5050505050565b60006108516105dc60017f812a673dfca07956350df10f8a654925f561d7a0da09bdbe79e653939a14d9f161526b565b604051630a3c2bb160e21b81526001600482015260009073631DA2Fb619Fe49E96758A9c15f87f482A31Ec3a906328f0aec490602401602060405180830381865af4158015611042573d6000803e3d6000fd5b505050506040513d601f19601f820116820180604052508101906108519190614fe5565b73956D3fed2B1FC3B905C9376b4c5DAAc9ADF999c463d19cc38a61108861260d565b6040518263ffffffff1660e01b81526004016110a49190614a57565b60006040518083038186803b1580156110bc57600080fd5b505af41580156110d0573d6000803e3d6000fd5b505050506110dc612893565b5050565b60655460408051808201909152600a81526914d08e8811195b9a595960b21b60208201526000918291906001600160a01b0316331461113b5760405162461bcd60e51b81526004016111329190614bfc565b60405180910390fd5b50611146600161294f565b915091509091565b33301461119d5760405162461bcd60e51b815260206004820152601b60248201527f496e637265617365207265766973696f6e20666f7262696464656e00000000006044820152606401611132565b60006111cd6105dc60017f22573091f17911fb166032a3d9e0554aa73d31b7b7ddea4a4dd2995650af84bd61526b565b6111d8906001615014565b905061120c8161120960017f22573091f17911fb166032a3d9e0554aa73d31b7b7ddea4a4dd2995650af84bd61526b565b55565b61123b8261120960017fbfaaa2fb63266ff27c2da975f5894955056f50419af651a81f6c5060581857e461526b565b604080518281526001600160a01b03841660208201527ff27e2ef832a4eb8ed8ec553b875eecd44764cda95b1c24170e281539e0a869c8910160405180910390a15050565b606554606454604051633e53813360e11b81526000926001600160a01b03908116921690839073956D3fed2B1FC3B905C9376b4c5DAAc9ADF999c490637ca70266906112d29086908690600401615174565b602060405180830381865af41580156112ef573d6000803e3d6000fd5b505050506040513d601f19601f820116820180604052508101906113139190614fe5565b9050808511156113bf5760008061133261132d848961526b565b612b30565b604051631594b05b60e01b8152909850919350915073956D3fed2B1FC3B905C9376b4c5DAAc9ADF999c490631594b05b906113799087908790879087908c9060040161518e565b602060405180830381865af4158015611396573d6000803e3d6000fd5b505050506040513d601f19601f820116820180604052508101906113ba9190614fe5565b925050505b6040516333bbb20360e11b815260048101869052602481018290526001600160a01b0380841660448301528416606482015273956D3fed2B1FC3B905C9376b4c5DAAc9ADF999c49063677764069060840160006040518083038186803b15801561142857600080fd5b505af415801561143c573d6000803e3d6000fd5b50505050505050919050565b600280546040805183815260608082018352936001600160a01b0390931692909160208301908036833750506003546040516370a0823160e01b81529294506001600160a01b0316916370a0823191506114a6908490600401614a57565b602060405180830381865afa1580156114c3573d6000803e3d6000fd5b505050506040513d601f19601f820116820180604052508101906114e79190614fe5565b826000815181106114fa576114fa6152c6565b6020908102919091010152600480546040516370a0823160e01b81526001600160a01b03909116916370a082319161153491859101614a57565b602060405180830381865afa158015611551573d6000803e3d6000fd5b505050506040513d601f19601f820116820180604052508101906115759190614fe5565b82600181518110611588576115886152c6565b6020026020010181815250505090565b604051636e81b62960e01b8152600160048201526060908190819081907357D3e8CA53878d6Aa8B1c48Bd8F3e52a3bCeC00590636e81b62990602401600060405180830381865af41580156115f1573d6000803e3d6000fd5b505050506040513d6000823e601f3d908101601f1916820160405261161991908101906153a4565b935093509350935090919293565b606060646006018054611639906154ae565b80601f0160208091040260200160405190810160405280929190818152602001828054611665906154ae565b80156116b25780601f10611687576101008083540402835291602001916116b2565b820191906000526020600020905b81548152906001019060200180831161169557829003601f168201915b5050505050905090565b6116c4612b61565b73956D3fed2B1FC3B905C9376b4c5DAAc9ADF999c463bd0206826116e661260d565b6064805460655460405160e086901b6001600160e01b03191681526001600160a01b03948516600482015291841660248301529290921660448301520160006040518083038186803b15801561173b57600080fd5b505af415801561174f573d6000803e3d6000fd5b50505050565b73956D3fed2B1FC3B905C9376b4c5DAAc9ADF999c463493f6edc61177761260d565b6040518263ffffffff1660e01b81526004016117939190614a57565b60006040518083038186803b1580156117ab57600080fd5b505af41580156117bf573d6000803e3d6000fd5b5050604051637fc1c15b60e01b815273956D3fed2B1FC3B905C9376b4c5DAAc9ADF999c49250637fc1c15b91506117ff90606490869086906004016154e8565b60006040518083038186803b15801561181757600080fd5b505af415801561182b573d6000803e3d6000fd5b505050505050565b73956D3fed2B1FC3B905C9376b4c5DAAc9ADF999c463493f6edc61185561260d565b6040518263ffffffff1660e01b81526004016118719190614a57565b60006040518083038186803b15801561188957600080fd5b505af415801561189d573d6000803e3d6000fd5b5050600280546001600160a01b0319166001600160a01b0394909416939093179092555050565b734089B52F777850eBB8e8252055707B7B3681735863d2c3cf256118e661260d565b6040516001600160e01b031960e084901b1681526001600160a01b0390911660048201526024810184905260440160006040518083038186803b15801561192c57600080fd5b505af4158015611940573d6000803e3d6000fd5b50505060999190915550565b73956D3fed2B1FC3B905C9376b4c5DAAc9ADF999c463ed6b63c1606485858561197361260d565b6040516001600160e01b031960e088901b168152600481019590955260248501939093526001600160a01b039182166044850152606484015216608482015260a40160006040518083038186803b1580156119cd57600080fd5b505af41580156119e1573d6000803e3d6000fd5b50505050505050565b60006108516105dc60017f22573091f17911fb166032a3d9e0554aa73d31b7b7ddea4a4dd2995650af84bd61526b565b6000611a24614800565b611a3084826000612bac565b805160408051808201909152600a81526914d08e8811195b9a595960b21b6020820152906001600160a01b03163314611a7c5760405162461bcd60e51b81526004016111329190614bfc565b5060408051808201909152601081526f54532d3234207a65726f2076616c756560801b602082015283611ac25760405162461bcd60e51b81526004016111329190614bfc565b5060001981606001511415604051806040016040528060118152602001701514cb4c4d081ddc9bdb99c8185cdcd95d607a1b81525090611b155760405162461bcd60e51b81526004016111329190614bfc565b50600080611b236001612c26565b608085015160405163513cfdb360e11b81526001600160a01b038a166004820152602481019190915260448101839052606481810183905260848201529193509150734089B52F777850eBB8e8252055707B7B368173589063a279fb669060a401602060405180830381865af4158015611ba1573d6000803e3d6000fd5b505050506040513d601f19601f82011682018060405250810190611bc59190614fe5565b60808401526000620186a0611bdc6103e882615014565b611be6908861551e565b611bf09190615535565b905080846080015110611c1c578351611c14906001600160a01b0389169088612cf0565b859450611ced565b82600003611c5757611c336103e8620186a0615014565b620186a08560800151611c46919061551e565b611c509190615535565b9450611ced565b6000620186a0611c6a6103e8600261551e565b611c7790620186a0615014565b611c81908961551e565b611c8b9190615535565b9050611ca6856080015182611ca0919061526b565b86612d42565b506000611cb289612fa7565b9050828111611ce657611cca6103e8620186a0615014565b611cd7620186a08361551e565b611ce19190615535565b611ce8565b875b965050505b611cf5613017565b505050505092915050565b60985460408051808201909152600a81526914d08e8811195b9a595960b21b6020820152906001600160a01b03163314611d4d5760405162461bcd60e51b81526004016111329190614bfc565b5080518251146040518060400160405280600d81526020016c54532d3139206c656e6774687360981b81525090611d975760405162461bcd60e51b81526004016111329190614bfc565b50611da0613017565b505050565b60006108516105dc60017fbfaaa2fb63266ff27c2da975f5894955056f50419af651a81f6c5060581857e461526b565b6000611ddf61263d565b158015611df15750611def612731565b155b8015610851575060985460405163119aa29360e11b8152600160048201526001600160a01b03909116602482015273631DA2Fb619Fe49E96758A9c15f87f482A31Ec3a906323354526906044015b602060405180830381865af4158015611e5c573d6000803e3d6000fd5b505050506040513d601f19601f820116820180604052508101906108519190615557565b6065546064546040516001625acc3160e01b03198152600092839273956D3fed2B1FC3B905C9376b4c5DAAc9ADF999c49263ffa533cf92611ed2926001600160a01b0391821692911690600401615174565b602060405180830381865af4158015611eef573d6000803e3d6000fd5b505050506040513d601f19601f82011682018060405250810190611f139190614fe5565b90508015611f2857611f25818461302d565b91505b5092915050565b6000611f3961260d565b6001600160a01b0316826001600160a01b0316149050919050565b6005546000908190630100000090046001600160801b0316818115611f8157611f7c826130d1565b611f9f565b60408051600280825260608201835290916020830190803683375050505b90507357D3e8CA53878d6Aa8B1c48Bd8F3e52a3bCeC0056350d2e0ba60018784611fc761260d565b6098546040516001600160e01b031960e088901b168152611ffb95949392916001600160a01b031690609690600401615574565b6040805180830381865af4158015612017573d6000803e3d6000fd5b505050506040513d601f19601f8201168201806040525081019061203b91906155c5565b935093505050915091565b60015460408051808201909152601a81527f5533532d3131204e6f742063616c6c6261636b2063616c6c65720000000000006020820152906001600160a01b031633146120a65760405162461bcd60e51b81526004016111329190614bfc565b5083156120f4576004546120f49033908690600160a81b900460ff166120d7576003546001600160a01b03166120e4565b6004546001600160a01b03165b6001600160a01b03169190612cf0565b821561174f5760045461174f9033908590600160a81b900460ff16612124576004546001600160a01b03166120e4565b6003546001600160a01b03169190612cf0565b604051630ba4ccab60e11b815260016004820152600090819073631DA2Fb619Fe49E96758A9c15f87f482A31Ec3a906317499956906024016040805180830381865af415801561218b573d6000803e3d6000fd5b505050506040513d601f19601f8201168201806040525081019061114691906155f3565b73956D3fed2B1FC3B905C9376b4c5DAAc9ADF999c4636d51f04360646121d361260d565b6040516001600160e01b031960e085901b16815260048101929092526001600160a01b0316602482015260448101849052606401610f8c565b6000816001600160a01b031661222061260d565b6001600160a01b0316635aa6e6756040518163ffffffff1660e01b8152600401602060405180830381865afa15801561225d573d6000803e3d6000fd5b505050506040513d601f19601f820116820180604052508101906122819190615617565b6001600160a01b03161492915050565b73956D3fed2B1FC3B905C9376b4c5DAAc9ADF999c463493f6edc6122b361260d565b6040518263ffffffff1660e01b81526004016122cf9190614a57565b60006040518083038186803b1580156122e757600080fd5b505af41580156122fb573d6000803e3d6000fd5b5050604051630593c4c960e01b815273713DF40F222d36d557e1A66f6F79fDbC0a78457D9250630593c4c99150610f8c906006908590600401615634565b600054610100900460ff16158080156123595750600054600160ff909116105b806123735750303b158015612373575060005460ff166001145b6123d65760405162461bcd60e51b815260206004820152602e60248201527f496e697469616c697a61626c653a20636f6e747261637420697320616c72656160448201526d191e481a5b9a5d1a585b1a5e995960921b6064820152608401611132565b6000805460ff1916600117905580156123f9576000805461ff0019166101001790555b61240488888861315b565b73631DA2Fb619Fe49E96758A9c15f87f482A31Ec3a63adc4343460018a8888888d6001600160a01b03166338d52e0f6040518163ffffffff1660e01b8152600401602060405180830381865afa158015612462573d6000803e3d6000fd5b505050506040513d601f19601f820116820180604052508101906124869190615617565b896040518863ffffffff1660e01b81526004016124a99796959493929190615648565b60006040518083038186803b1580156124c157600080fd5b505af41580156124d5573d6000803e3d6000fd5b505060405163bd85be2960e01b81526001600482015273956D3fed2B1FC3B905C9376b4c5DAAc9ADF999c49250637fc1c15b915060649073631DA2Fb619Fe49E96758A9c15f87f482A31Ec3a9063bd85be2990602401600060405180830381865af4158015612548573d6000803e3d6000fd5b505050506040513d6000823e601f3d908101601f191682016040526125709190810190615699565b6040518363ffffffff1660e01b815260040161258d92919061570f565b60006040518083038186803b1580156125a557600080fd5b505af41580156125b9573d6000803e3d6000fd5b505050508015612603576000805461ff0019169055604051600181527f7f26b83ff96e1f2b6a682f133852f6798a09c465da95921460cefb38474024989060200160405180910390a15b5050505050505050565b60006108516105dc60017f5165972ef41194f06c5007493031d0b927c20741adcb74403b954009fd2c361861526b565b609854604051633934e59d60e11b8152600160048201526001600160a01b03909116602482015260009073631DA2Fb619Fe49E96758A9c15f87f482A31Ec3a90637269cb3a90604401611e3f565b60006001600160e01b0319821663c19fa56160e01b14806108965750610896826131fd565b6000806126bd6001612c26565b92508290506126ca6107cb565b6126d4919061526b565b600554909150630100000090046001600160801b031680156126fd576126fb816000613232565b505b509091565b805160021480156127185750612716612731565b155b156127295761272681613352565b50505b6110dc613017565b6006546000906108519060ff1661345a565b6000806000612753600019612b30565b925092509250909192565b6000816001600160a01b0316634046ebae6040518163ffffffff1660e01b8152600401602060405180830381865afa15801561279e573d6000803e3d6000fd5b505050506040513d601f19601f820116820180604052508101906108969190615617565b6064546000906060908190839081906127e3906001600160a01b0316613477565b91509150734089B52F777850eBB8e8252055707B7B36817358637325f33f8361280b856134e3565b6098546040516001600160e01b031960e086901b16815261284193929187916001600160a01b0390911690600190600401615761565b600060405180830381865af415801561285e573d6000803e3d6000fd5b505050506040513d6000823e601f3d908101601f1916820160405261288691908101906157af565b9450945094505050909192565b60608060008060006128a3613562565b6098549295509093509150734089B52F777850eBB8e8252055707B7B368173589063e99de4da906001600160a01b03166128db6135ed565b8686866040518663ffffffff1660e01b81526004016128fe95949392919061581b565b600060405180830381865af415801561291b573d6000803e3d6000fd5b505050506040513d6000823e601f3d908101601f191682016040526129439190810190615885565b90969095509350505050565b60008060008061295f6001612c26565b9150915061296c85613681565b612aae5760008060008061297e613736565b935093509350935060006129906127c2565b5050905060006129e08b80156129a557508215155b80156129cc5750609954620186a0906129bf90859061551e565b6129c99190615535565b85115b6129d75760006129d9565b845b8884613803565b9150612a2490506129f1858a615014565b6064548390612a08906001600160a01b0316612fa7565b609754612a159190615014565b612a1f9190615014565b613a3e565b909a509850604080518981526020810189905290810187905260608101869052608081018b905260a081018a905260c081018490527f656724ec88ae6e1bb9ef6d699e92c6ad47802c06dffac7423918ef6f8c8f0e6d9060e00160405180910390a1612a99612a93878c615014565b84613a6e565b9950612aa5858a615014565b98505050505050505b6098546064546040516323c1ae5960e11b8152734089B52F777850eBB8e8252055707B7B36817358926347835cb292612af9926001600160a01b039283169290911690600401615174565b60006040518083038186803b158015612b1157600080fd5b505af4158015612b25573d6000803e3d6000fd5b505050505050915091565b6000806000806000612b426001612c26565b91509150612b51868284613a88565b5091989097509095509350505050565b6000612b6b613c95565b90507f768a28cb3459382a3d2173feb2dad0235f8de680b109872da581a3aa269fe5f481604051612b9c9190614ac3565b60405180910390a16110dc613017565b612bb46135ed565b604083018190526001600160a01b038085166020850152609854168352612bdb9084613d1c565b6060830152612be983612fa7565b608083015280612c13576040820151606454612c0e91906001600160a01b0316613d1c565b612c19565b81606001515b60a0909201919091525050565b6000808215612ce3576064546000908190612c49906001600160a01b0316613477565b91509150734089B52F777850eBB8e8252055707B7B36817358633643611860976064612c74866134e3565b86866040518663ffffffff1660e01b8152600401612c969594939291906158de565b6040805180830381865af4158015612cb2573d6000803e3d6000fd5b505050506040513d601f19601f82011682018060405250810190612cd691906155f3565b9094509250612ceb915050565b505060975460005b915091565b604080516001600160a01b038416602482015260448082018490528251808303909101815260649091019091526020810180516001600160e01b031663a9059cbb60e01b179052611da0908490613d7a565b600080612d5f6005546001600160801b0363010000009091041690565b90506000612d6c826130d1565b90506000734089B52F777850eBB8e8252055707B7B36817358630252e2c78787604001518860600151896000015187898c60a001516040518863ffffffff1660e01b8152600401612dc39796959493929190615922565b602060405180830381865af4158015612de0573d6000803e3d6000fd5b505050506040513d601f19601f82011682018060405250810190612e049190614fe5565b90508015612e76576000612e19826000613232565b600554909150630100000090046001600160801b0316612e39908561526b565b91507faebc771af58936b05e89b0be7d3f9761480181abcd4a649fbdd01753fda169708282604051612e6c92919061597a565b60405180910390a1505b6000735E427A2BD4Da38234C6EBAD7A64d7d0007D0238263c432aee1876040015188606001518960000151612eb1612eac61260d565b61275e565b6000198d14612ecf578c8c60800151612eca9190615014565b612ed1565b8c5b60966040518763ffffffff1660e01b8152600401612ef496959493929190615993565b602060405180830381865af4158015612f11573d6000803e3d6000fd5b505050506040513d601f19601f82011682018060405250810190612f359190614fe5565b905085608001518110156040518060400160405280601681526020017554532d32302062616c616e636520646563726561736560501b81525090612f8c5760405162461bcd60e51b81526004016111329190614bfc565b506080860151612f9c908261526b565b979650505050505050565b6040516370a0823160e01b81526000906001600160a01b038316906370a0823190612fd6903090600401614a57565b602060405180830381865afa158015612ff3573d6000803e3d6000fd5b505050506040513d601f19601f820116820180604052508101906108969190614fe5565b60006130216127c2565b50506097819055919050565b6000613037612731565b156130c0576040805160028082526060820183526000926020830190803683370190505090508381600081518110613071576130716152c6565b6020026020010181815250507f59400c8c523464b521238ea8f50e923f2bc64663557e6afec92a97f7efe92d0581826040516130ae9291906159d6565b60405180910390a16000915050610896565b6130ca8383613e4c565b9050610896565b60405163a7aced0960e01b8152600160048201526001600160801b038216602482015260609073631DA2Fb619Fe49E96758A9c15f87f482A31Ec3a9063a7aced0990604401600060405180830381865af4158015613133573d6000803e3d6000fd5b505050506040513d6000823e601f3d908101601f191682016040526108969190810190615237565b600054610100900460ff166131825760405162461bcd60e51b8152600401611132906159fb565b61318c8383613e73565b609880546001600160a01b0319166001600160a01b0383161790556131b56064620186a0615535565b6099557fe4166dfcf23bbd3e3f764a99dc8fa740554c03c82d6019b81cf265f396f6f2fe6131e76064620186a0615535565b60405190815260200160405180910390a1505050565b60006001600160e01b0319821663b7b79fa960e01b148061089657506301ffc9a760e01b6001600160e01b0319831614610896565b60606000808361324a57613244612137565b90925090505b604051633ae60bcb60e01b8152600160048201526001600160801b038616602482015273631DA2Fb619Fe49E96758A9c15f87f482A31Ec3a90633ae60bcb90604401600060405180830381865af41580156132a9573d6000803e3d6000fd5b505050506040513d6000823e601f3d908101601f191682016040526132d19190810190615237565b92508361334a57604051632b25a6cf60e01b815260016004820152602481018390526044810182905273631DA2Fb619Fe49E96758A9c15f87f482A31Ec3a90632b25a6cf9060640160006040518083038186803b15801561333157600080fd5b505af4158015613345573d6000803e3d6000fd5b505050505b505092915050565b60015460048054600554604051638008936760e01b815260609460009473631DA2Fb619Fe49E96758A9c15f87f482A31Ec3a946380089367946133d8946001600160a01b0390941693600160c81b8304600290810b94600160e01b850490910b938c93630100000090046001600160801b031692600160a81b90910460ff169101615a46565b600060405180830381865af41580156133f5573d6000803e3d6000fd5b505050506040513d6000823e601f3d908101601f1916820160405261341d9190810190615a9c565b600580546001600160801b0390921663010000000272ffffffffffffffffffffffffffffffff000000199092169190911790559094909350915050565b600060018260038111156134705761347061527e565b1192915050565b606060006134836135ed565b915061348f8284613d1c565b90506000198114156040518060400160405280600f81526020016e53423a2057726f6e672076616c756560881b815250906134dd5760405162461bcd60e51b81526004016111329190614bfc565b50915091565b606060006135016005546001600160801b0363010000009091041690565b9050801561351757613512816130d1565b61355b565b82516001600160401b038111156135305761353061488a565b604051908082528060200260200182016040528015613559578160200160208202803683370190505b505b9392505050565b60405163af31673360e01b8152600160048201526060908190819073631DA2Fb619Fe49E96758A9c15f87f482A31Ec3a9063af31673390602401600060405180830381865af41580156135b9573d6000803e3d6000fd5b505050506040513d6000823e601f3d908101601f191682016040526135e19190810190615b02565b91959094509092509050565b6040805160028082526060808301845292602083019080368337505060035482519293506001600160a01b03169183915060009061362d5761362d6152c6565b6001600160a01b03928316602091820292909201015260045482519116908290600190811061365e5761365e6152c6565b60200260200101906001600160a01b031690816001600160a01b03168152505090565b600061368b61263d565b15604051806040016040528060148152602001735533532d31204e65656420726562616c616e636560601b815250906136d75760405162461bcd60e51b81526004016111329190614bfc565b506136e0612731565b15604051806040016040528060158152602001745533532d313420467573652069732061637469766560581b8152509061372d5760405162461bcd60e51b81526004016111329190614bfc565b50600092915050565b600080600080600080613747612893565b60645491935091506001600160a01b031673631DA2Fb619Fe49E96758A9c15f87f482A31Ec3a6334d2ec3d8261377b61260d565b86866040518563ffffffff1660e01b815260040161379c9493929190615b50565b602060405180830381865af41580156137b9573d6000803e3d6000fd5b505050506040513d601f19601f820116820180604052508101906137dd9190614fe5565b96506137e98383613f1c565b9350600095506137f881612fa7565b945050505090919293565b60645460009081906001600160a01b03168185871161382357600061382d565b61382d868861526b565b90506000620186a086609760020154613846919061551e565b6138509190615535565b82119050600061385f84612fa7565b6001600160a01b03851660009081526096602052604090205490915061388490613fbc565b8811156139735781806138975750878110155b1561395f57606554734089B52F777850eBB8e8252055707B7B368173589063890ffb849086908b906001600160a01b03166138d2868d615014565b6040516001600160e01b031960e087901b1681526001600160a01b03948516600482015260248101939093529216604482015260648101919091526084810184905260a4016040805180830381865af4158015613933573d6000803e3d6000fd5b505050506040513d601f19601f8201168201806040525081019061395791906155f3565b509450613973565b61396b60008989613a88565b909850965050505b8115613a325760008061398586613477565b60985491935091506000906139a5906001600160a01b0316878585613fd4565b90506139b08161428c565b6139fd5760006139bf82613352565b5090507f59400c8c523464b521238ea8f50e923f2bc64663557e6afec92a97f7efe92d0582826040516139f39291906159d6565b60405180910390a1505b6000613a07613017565b9050613a2a613a16868d615014565b8a613a208b612fa7565b612a159085615014565b9a5050505050505b50505050935093915050565b60008083831115613a5a57613a53848461526b565b9150613a67565b613a64838561526b565b90505b9250929050565b6000818311613a7e57600061355b565b61355b828461526b565b60008060008060006000198814613acc57620186a0613aa96103e882615014565b613ab3898b615014565b613abd919061551e565b613ac79190615535565b613ace565b875b9050613ad9816142d8565b8015801590613ae757508515155b15613c8b57613af4614800565b606454613b0c906001600160a01b0316826001612bac565b80516020820151604051637a55caf360e01b8152734089B52F777850eBB8e8252055707B7B3681735892637a55caf392613b4892600401615174565b602060405180830381865af4158015613b65573d6000803e3d6000fd5b505050506040513d601f19601f82011682018060405250810190613b899190614fe5565b9450670de0b6b3a764000085613ba8613ba28585612d42565b8b613a6e565b613bb2919061551e565b613bbc9190615535565b60655460208301516080840151929850734089B52F777850eBB8e8252055707B7B3681735892632ce30333926001600160a01b031691908b908d613bfe613017565b6040516001600160e01b031960e089901b1681526001600160a01b03968716600482015295909416602486015260448501929092526064840152608483015260a482015260c4016040805180830381865af4158015613c61573d6000803e3d6000fd5b505050506040513d601f19601f82011682018060405250810190613c8591906155f3565b94509250505b5093509350935093565b60606000613cb36005546001600160801b0363010000009091041690565b90508015613ccb57613cc6816001613232565b613d16565b613cd36135ed565b516001600160401b03811115613ceb57613ceb61488a565b604051908082528060200260200182016040528015613d14578160200160208202803683370190505b505b91505090565b8151600090815b81811015613d6e57836001600160a01b0316858281518110613d4757613d476152c6565b60200260200101516001600160a01b031603613d665791506108969050565b600101613d23565b50600019949350505050565b6000613dcf826040518060400160405280602081526020017f5361666545524332303a206c6f772d6c6576656c2063616c6c206661696c6564815250856001600160a01b031661432c9092919063ffffffff16565b805190915015611da05780806020019051810190613ded9190615557565b611da05760405162461bcd60e51b815260206004820152602a60248201527f5361666545524332303a204552433230206f7065726174696f6e20646964206e6044820152691bdd081cdd58d8d9595960b21b6064820152608401611132565b6000806000613e5a84612c26565b91509150613e69858284613803565b5095945050505050565b600054610100900460ff16613e9a5760405162461bcd60e51b8152600401611132906159fb565b613ec4817fd2de0374d4479f33e63ae5ed6ca772a10463dd883a90c612050b51fab6196400614343565b613ecd82614399565b604051631797527d60e01b81526064600482018190526001600160a01b0380851660248401528316604483015273956D3fed2B1FC3B905C9376b4c5DAAc9ADF999c491631797527d91016117ff565b6000825160001461089657735E427A2BD4Da38234C6EBAD7A64d7d0007D02382635dcb613060646097613f4d6135ed565b613f5561260d565b609689896040518863ffffffff1660e01b8152600401613f7b9796959493929190615b8e565b602060405180830381865af4158015613f98573d6000803e3d6000fd5b505050506040513d601f19601f8201168201806040525081019061355b9190614fe5565b60008115613fca5781610896565b620186a092915050565b6060613fde61263d565b15604051806040016040528060148152602001735533532d31204e65656420726562616c616e636560601b8152509061402a5760405162461bcd60e51b81526004016111329190614bfc565b5060015460048054604051630dc528a760e01b81526001600160a01b0390931691830191909152600160c81b8104600290810b6024840152600160e01b8204900b6044830152600160a81b900460ff1615156064820152600090819073631DA2Fb619Fe49E96758A9c15f87f482A31Ec3a90630dc528a7906084016040805180830381865af41580156140c1573d6000803e3d6000fd5b505050506040513d601f19601f820116820180604052508101906140e591906155f3565b6003546004549294509092506001600160a01b03908116917357D3e8CA53878d6Aa8B1c48Bd8F3e52a3bCeC00591631c2040d5918b918b9186911661412a888a615014565b61413c8a670de0b6b3a764000061551e565b6141469190615535565b60405160e087901b6001600160e01b03191681526001600160a01b0395861660048201526024810194909452918416604484015290921660648201526084810191909152609660a482015260c401600060405180830381865af41580156141b1573d6000803e3d6000fd5b505050506040513d6000823e601f3d908101601f191682016040526141d99190810190615237565b9350806001600160a01b0316866000815181106141f8576141f86152c6565b60200260200101516001600160a01b0316146142815783600181518110614221576142216152c6565b60200260200101518460008151811061423c5761423c6152c6565b602002602001015185600081518110614257576142576152c6565b6020026020010186600181518110614271576142716152c6565b6020908102919091010191909152525b505050949350505050565b8051600090815b818110156142ce578381815181106142ad576142ad6152c6565b60200260200101516000036142c6575060019392505050565b600101614293565b5060009392505050565b6142e061263d565b15604051806040016040528060148152602001735533532d31204e65656420726562616c616e636560601b815250906110dc5760405162461bcd60e51b81526004016111329190614bfc565b606061433b84846000856145be565b949350505050565b61434d828261468e565b6110dc5760405162461bcd60e51b815260206004820152601a60248201527f496e74657266616365206973206e6f7420737570706f727465640000000000006044820152606401611132565b600054610100900460ff166143c05760405162461bcd60e51b8152600401611132906159fb565b6001600160a01b0381166144085760405162461bcd60e51b815260206004820152600f60248201526e2d32b9379031b7b73a3937b63632b960891b6044820152606401611132565b614432817f4c2403fdcb3cff9b705d96bf0705858e3390412670a62c8bcba611ca7e20ab86614343565b60006001600160a01b0316816001600160a01b0316635aa6e6756040518163ffffffff1660e01b8152600401602060405180830381865afa15801561447b573d6000803e3d6000fd5b505050506040513d601f19601f8201168201806040525081019061449f9190615617565b6001600160a01b0316036144e75760405162461bcd60e51b815260206004820152600f60248201526e5a65726f20676f7665726e616e636560881b6044820152606401611132565b6145168161120960017f5165972ef41194f06c5007493031d0b927c20741adcb74403b954009fd2c361861526b565b6145454261120960017f6f55f470bdc9cb5f04223fd822021061668e4dccb43e8727b295106dc9769c8b61526b565b6145744361120960017f812a673dfca07956350df10f8a654925f561d7a0da09bdbe79e653939a14d9f161526b565b604080516001600160a01b0383168152426020820152438183015290517f1a2dd071001ebf6e03174e3df5b305795a4ad5d41d8fdb9ba41dbbe2367134269181900360600190a150565b60608247101561461f5760405162461bcd60e51b815260206004820152602660248201527f416464726573733a20696e73756666696369656e742062616c616e636520666f6044820152651c8818d85b1b60d21b6064820152608401611132565b600080866001600160a01b0316858760405161463b9190615bf7565b60006040518083038185875af1925050503d8060008114614678576040519150601f19603f3d011682016040523d82523d6000602084013e61467d565b606091505b5091509150612f9c87838387614762565b60006001600160a01b0383166146d55760405162461bcd60e51b815260206004820152600c60248201526b5a65726f206164647265737360a01b6044820152606401611132565b823b60008190036146ea576000915050610896565b6040516301ffc9a760e01b81526001600160e01b0319841660048201526001600160a01b038516906301ffc9a790602401602060405180830381865afa925050508015614754575060408051601f3d908101601f1916820190925261475191810190615557565b60015b156142ce5791506108969050565b606083156147d15782516000036147ca576001600160a01b0385163b6147ca5760405162461bcd60e51b815260206004820152601d60248201527f416464726573733a2063616c6c20746f206e6f6e2d636f6e74726163740000006044820152606401611132565b508161433b565b61433b83838151156147e65781518083602001fd5b8060405162461bcd60e51b81526004016111329190614bfc565b6040518060c0016040528060006001600160a01b0316815260200160006001600160a01b03168152602001606081526020016000815260200160008152602001600081525090565b60006020828403121561485a57600080fd5b81356001600160e01b03198116811461355b57600080fd5b6001600160a01b038116811461488757600080fd5b50565b634e487b7160e01b600052604160045260246000fd5b604051601f8201601f191681016001600160401b03811182821017156148c8576148c861488a565b604052919050565b60006001600160401b038211156148e9576148e961488a565b50601f01601f191660200190565b600082601f83011261490857600080fd5b813561491b614916826148d0565b6148a0565b81815284602083860101111561493057600080fd5b816020850160208301376000918101602001919091529392505050565b60008060008060008060c0878903121561496657600080fd5b863561497181614872565b9550602087013561498181614872565b94506040870135935060608701356001600160401b03808211156149a457600080fd5b6149b08a838b016148f7565b945060808901359150808211156149c657600080fd5b506149d389828a016148f7565b92505060a087013590509295509295509295565b600080604083850312156149fa57600080fd5b8235614a0581614872565b946020939093013593505050565b801515811461488757600080fd5b600060208284031215614a3357600080fd5b813561355b81614a13565b600060208284031215614a5057600080fd5b5035919050565b6001600160a01b0391909116815260200190565b600060208284031215614a7d57600080fd5b813561355b81614872565b600081518084526020808501945080840160005b83811015614ab857815187529582019590820190600101614a9c565b509495945050505050565b60208152600061355b6020830184614a88565b600081518084526020808501945080840160005b83811015614ab8578151151587529582019590820190600101614aea565b6080808252855190820181905260009060209060a0840190828901845b82811015614b4a5781516001600160a01b031684529284019290840190600101614b25565b5050508381038285015286518082528783019183019060005b81811015614b8257835160020b83529284019291840191600101614b63565b50508481036040860152614b968188614a88565b925050508281036060840152612f9c8185614ad6565b60005b83811015614bc7578181015183820152602001614baf565b50506000910152565b60008151808452614be8816020860160208601614bac565b601f01601f19169290920160200192915050565b60208152600061355b6020830184614bd0565b60008083601f840112614c2157600080fd5b5081356001600160401b03811115614c3857600080fd5b602083019150836020828501011115613a6757600080fd5b60008060208385031215614c6357600080fd5b82356001600160401b03811115614c7957600080fd5b61294385828601614c0f565b600080600060608486031215614c9a57600080fd5b833592506020840135614cac81614872565b929592945050506040919091013590565b60006001600160401b03821115614cd657614cd661488a565b5060051b60200190565b600082601f830112614cf157600080fd5b81356020614d0161491683614cbd565b82815260059290921b84018101918181019086841115614d2057600080fd5b8286015b84811015614d3b5780358352918301918301614d24565b509695505050505050565b60008060408385031215614d5957600080fd5b82356001600160401b0380821115614d7057600080fd5b818501915085601f830112614d8457600080fd5b81356020614d9461491683614cbd565b82815260059290921b84018101918181019089841115614db357600080fd5b948201945b83861015614dda578535614dcb81614872565b82529482019490820190614db8565b96505086013592505080821115614df057600080fd5b50614dfd85828601614ce0565b9150509250929050565b60008060408385031215614e1a57600080fd5b823591506020830135614e2c81614a13565b809150509250929050565b600060208284031215614e4957600080fd5b81356001600160401b03811115614e5f57600080fd5b611f25848285016148f7565b60008060008060608587031215614e8157600080fd5b843593506020850135925060408501356001600160401b03811115614ea557600080fd5b614eb187828801614c0f565b95989497509550505050565b600060808284031215614ecf57600080fd5b82601f830112614ede57600080fd5b604051608081018181106001600160401b0382111715614f0057614f0061488a565b604052806080840185811115614f1557600080fd5b845b81811015614f2f578035835260209283019201614f17565b509195945050505050565b8060020b811461488757600080fd5b600080600080600080600061014080898b031215614f6657600080fd5b8835614f7181614872565b97506020890135614f8181614872565b96506040890135614f9181614872565b95506060890135614fa181614872565b94506080890135614fb181614f3a565b935060a0890135614fc181614f3a565b92508881018a1015614fd257600080fd5b5060c08801905092959891949750929550565b600060208284031215614ff757600080fd5b5051919050565b634e487b7160e01b600052601160045260246000fd5b8082018082111561089657610896614ffe565b8060005b600481101561174f57815184526020938401939091019060010161502b565b60006101c089835260208084018a60005b60058110156150815781516001600160a01b03168352918301919083019060010161505b565b5050505061509260c0840189615027565b806101408401526150a581840188614bd0565b90508281036101608401526150ba8187614bd0565b61018084019590955250506101a0015295945050505050565b600082601f8301126150e457600080fd5b815160206150f461491683614cbd565b82815260059290921b8401810191818101908684111561511357600080fd5b8286015b84811015614d3b5780518352918301918301615117565b6000806040838503121561514157600080fd5b825161514c81614a13565b60208401519092506001600160401b0381111561516857600080fd5b614dfd858286016150d3565b6001600160a01b0392831681529116602082015260400190565b6001600160a01b039586168152602081019490945260408401929092526060830152909116608082015260a00190565b8881526020808201899052610120820190604083018960005b60028110156151fd5781516001600160a01b0316835291830191908301906001016151d7565b50505050608082019690965260a08101949094526001600160a01b039290921660c0840152151560e0830152610100909101529392505050565b60006020828403121561524957600080fd5b81516001600160401b0381111561525f57600080fd5b611f25848285016150d3565b8181038181111561089657610896614ffe565b634e487b7160e01b600052602160045260246000fd5b82815260408101600483106152b957634e487b7160e01b600052602160045260246000fd5b8260208301529392505050565b634e487b7160e01b600052603260045260246000fd5b600082601f8301126152ed57600080fd5b815160206152fd61491683614cbd565b82815260059290921b8401810191818101908684111561531c57600080fd5b8286015b84811015614d3b57805161533381614872565b8352918301918301615320565b600082601f83011261535157600080fd5b8151602061536161491683614cbd565b82815260059290921b8401810191818101908684111561538057600080fd5b8286015b84811015614d3b57805161539781614a13565b8352918301918301615384565b600080600080608085870312156153ba57600080fd5b84516001600160401b03808211156153d157600080fd5b6153dd888389016152dc565b95506020915081870151818111156153f457600080fd5b8701601f8101891361540557600080fd5b805161541361491682614cbd565b81815260059190911b8201840190848101908b83111561543257600080fd5b928501925b8284101561545957835161544a81614f3a565b82529285019290850190615437565b60408b015190985094505050508082111561547357600080fd5b61547f888389016150d3565b9350606087015191508082111561549557600080fd5b506154a287828801615340565b91505092959194509250565b600181811c908216806154c257607f821691505b6020821081036154e257634e487b7160e01b600052602260045260246000fd5b50919050565b83815260406020820152816040820152818360608301376000818301606090810191909152601f909201601f1916010192915050565b808202811582820484141761089657610896614ffe565b60008261555257634e487b7160e01b600052601260045260246000fd5b500490565b60006020828403121561556957600080fd5b815161355b81614a13565b86815260c06020820152600061558d60c0830188614bd0565b828103604084015261559f8188614a88565b6001600160a01b0396871660608501529490951660808301525060a00152949350505050565b600080604083850312156155d857600080fd5b82516155e381614872565b6020939093015192949293505050565b6000806040838503121561560657600080fd5b505080516020909101519092909150565b60006020828403121561562957600080fd5b815161355b81614872565b82815260a0810161355b6020830184615027565b8781526001600160a01b0387811660208301528681166040830152600286810b606084015285900b60808084019190915290841660a08301526101408201908360c084013798975050505050505050565b6000602082840312156156ab57600080fd5b81516001600160401b038111156156c157600080fd5b8201601f810184136156d257600080fd5b80516156e0614916826148d0565b8181528560208385010111156156f557600080fd5b615706826020830160208601614bac565b95945050505050565b82815260406020820152600061433b6040830184614bd0565b600081518084526020808501945080840160005b83811015614ab85781516001600160a01b03168752958201959082019060010161573c565b60a08152600061577460a0830188615728565b82810360208401526157868188614a88565b604084019690965250506001600160a01b03929092166060830152151560809091015292915050565b6000806000606084860312156157c457600080fd5b8351925060208401516001600160401b03808211156157e257600080fd5b6157ee878388016150d3565b9350604086015191508082111561580457600080fd5b50615811868287016150d3565b9150509250925092565b6001600160a01b038616815260a06020820181905260009061583f90830187615728565b82810360408401526158518187615728565b905082810360608401526158658186614a88565b905082810360808401526158798185614a88565b98975050505050505050565b6000806040838503121561589857600080fd5b82516001600160401b03808211156158af57600080fd5b6158bb868387016152dc565b935060208501519150808211156158d157600080fd5b50614dfd858286016150d3565b85815284602082015260a0604082015260006158fd60a0830186614a88565b828103606084015261590f8186615728565b9150508260808301529695505050505050565b87815260e06020820152600061593b60e0830189615728565b604083018890526001600160a01b038716606084015282810360808401526159638187614a88565b60a0840195909552505060c0015295945050505050565b82815260406020820152600061433b6040830184614a88565b60c0815260006159a660c0830189615728565b6020830197909752506001600160a01b039485166040820152929093166060830152608082015260a00152919050565b6040815260006159e96040830185614a88565b82810360208401526157068185614a88565b6020808252602b908201527f496e697469616c697a61626c653a20636f6e7472616374206973206e6f74206960408201526a6e697469616c697a696e6760a81b606082015260800190565b60018060a01b03871681528560020b60208201528460020b604082015260c060608201526000615a7960c0830186614a88565b6001600160801b039490941660808301525090151560a090910152949350505050565b600080600060608486031215615ab157600080fd5b83516001600160401b03811115615ac757600080fd5b615ad3868287016150d3565b9350506020840151915060408401516001600160801b0381168114615af757600080fd5b809150509250925092565b600080600060608486031215615b1757600080fd5b83516001600160401b0380821115615b2e57600080fd5b615b3a878388016152dc565b945060208601519150808211156157e257600080fd5b6001600160a01b03858116825284166020820152608060408201819052600090615b7c90830185615728565b8281036060840152612f9c8185614a88565b87815286602082015260e060408201526000615bad60e0830188615728565b6001600160a01b03871660608401526080830186905282810360a0840152615bd58186615728565b905082810360c0840152615be98185614a88565b9a9950505050505050505050565b60008251615c09818460208701614bac565b919091019291505056fea2646970667358221220359e64ae66321416df2a1e1636cfb91b75b85da83bddf6349a586263bff1864a64736f6c63430008110033",
  "deployedBytecode": "0x608060405234801561001057600080fd5b50600436106103645760003560e01c806371ee0175116101c9578063b429afeb116100ff578063d3487997116100ad578063dfeb10321161007c578063dfeb103214610795578063e50df07d146107a8578063f77c4791146107bb578063ffb86c6a146107c357600080fd5b8063d348799714610754578063db8d55f114610767578063de3d047c1461076f578063dee1f0e41461078257600080fd5b8063b429afeb146106dd578063b77c975b146106f0578063bd38837b14610722578063cd4c815614610733578063ce2f184214610744578063ceee861d1461050a578063d295ea701461074c57600080fd5b806387c7f770116101775780639d0bcca0116101465780639d0bcca01461067e578063a3f4df7e14610686578063ab9e3eee146106c2578063b2457556146106ca57600080fd5b806387c7f77014610610578063936725ec1461062357806396b7b14e14610647578063996a6c9c1461065a57600080fd5b806371ee01751461057a57806373a50ef51461058257806378327438146105a65780637cc96380146105c65780637eba7ba6146105ce5780637efc77fa146105e0578063877887821461060857600080fd5b80634ba31b011161029e578063546799631161024c57806363e277341161021b57806363e277341461052e5780636b5fba5a146105415780636ffb4c8e146105545780637063a2371461056757600080fd5b806354679963146104e35780635641ec03146104f85780635cfc1a51146105005780636207a0cf1461050a57600080fd5b80634ba31b01146104635780634e71d92d1461046b5780634fa5d854146104735780634fac6ccd1461049057806351e03fbe146104a357806352bbbb74146104b65780635412335d146104cb57600080fd5b8063261efa12116103165780633cd8045e116102e55780633cd8045e1461042f57806342fdb471146104405780634593144c146104535780634ad0b6841461045b57600080fd5b8063261efa12146103fd578063325a19f11461040557806333c5b58e1461040d57806338d52e0f1461041557600080fd5b806301e1d1141461036957806301ffc9a714610384578063066a6fc3146103a75780630acd12c7146103ba5780630e30428d146103c25780631d2dca9e146103d75780632221eb3c146103ea575b600080fd5b6103716107cb565b6040519081526020015b60405180910390f35b610397610392366004614848565b610856565b604051901515815260200161037b565b6103976103b536600461494d565b61089c565b610371610a7b565b6103d56103d03660046149e7565b610b9d565b005b6103d56103e5366004614a21565b610c41565b6103d56103f8366004614a3e565b610daa565b606854610371565b610371610e20565b610371610e50565b6064546001600160a01b03165b60405161037b9190614a57565b6065546001600160a01b0316610422565b6103d561044e366004614a3e565b610ed0565b610371610fbf565b609754610371565b610371610fef565b6103d5611066565b61047b6110e0565b6040805192835260208301919091520161037b565b6103d561049e366004614a6b565b61114e565b6103716104b1366004614a3e565b611280565b6104be611448565b60405161037b9190614ac3565b6104d3611598565b60405161037b9493929190614b08565b6104eb611627565b60405161037b9190614bfc565b6103d56116bc565b600160ff1b610371565b6104eb60405180604001604052806005815260200164332e312e3160d81b81525081565b6103d561053c366004614c50565b611755565b6103d561054f366004614a6b565b611833565b6103d5610562366004614a3e565b6118c4565b6103d5610575366004614c85565b61194c565b609954610371565b6104eb604051806040016040528060058152602001640332e302e360dc1b81525081565b6103716105b4366004614a6b565b60966020526000908152604090205481565b6103716119ea565b6103716105dc366004614a3e565b5490565b6104eb60405180604001604052806009815260200168556e6973776170563360b81b81525081565b606754610371565b61037161061e3660046149e7565b611a1a565b6104eb60405180604001604052806005815260200164332e302e3160d81b81525081565b6103d5610655366004614d46565b611d00565b6104eb604051806040016040528060058152602001640c4b8c0b8d60da1b81525081565b610422611da5565b6104eb6040518060400160405280601c81526020017f556e6973776170563320436f6e7665727465722053747261746567790000000081525081565b610397611dd5565b6103716106d8366004614e07565b611e80565b6103976106eb366004614a6b565b611f2f565b6107036106fe366004614e37565b611f54565b604080516001600160a01b03909316835260208301919091520161037b565b6098546001600160a01b0316610422565b6066546001600160a01b0316610422565b609a54610371565b606954610371565b6103d5610762366004614e6b565b612046565b61047b612137565b6103d561077d366004614a3e565b6121af565b610397610790366004614a6b565b61220c565b6103d56107a3366004614ebd565b612291565b6103d56107b6366004614f49565b612339565b61042261260d565b61039761263d565b60006107d660975490565b6064546040516370a0823160e01b81526001600160a01b03909116906370a0823190610806903090600401614a57565b602060405180830381865afa158015610823573d6000803e3d6000fd5b505050506040513d601f19601f820116820180604052508101906108479190614fe5565b6108519190615014565b905090565b60006001600160e01b03198216631e94dddf60e01b148061088757506001600160e01b0319821663f73147b360e01b145b8061089657506108968261268b565b92915050565b60008060006108a96126b0565b91509150606073__$166cd655d2cd990700b75f7db5b5f84c53$__63911ec05360976040518060a001604052808e6001600160a01b03166001600160a01b031681526020018d6001600160a01b03166001600160a01b0316815260200161090e61260d565b6001600160a01b039081168252609854811660208084019190915260655490911660409283015281516080810183528e8152908101899052808201889052606081018b905290516001600160e01b031960e086901b16815261097f939291908d908d9060019060969060040161504a565b600060405180830381865af415801561099c573d6000803e3d6000fd5b505050506040513d6000823e601f3d908101601f191682016040526109c4919081019061512e565b90945090506109d281612702565b60006010558380156109e757506109e7612731565b156109f2576001600f555b606480546040516368f9467b60e01b81526001600160a01b039091166004820152602481018490526097604482015273__$8f1afe7577f9ab973017c74eca19b86f3c$__916368f9467b910160006040518083038186803b158015610a5657600080fd5b505af4158015610a6a573d6000803e3d6000fd5b505050505050509695505050505050565b606554606454604051633e53813360e11b81526000926001600160a01b03908116921690839073__$7dde4232fad0cb3c495beb9e735b7d0c63$__90637ca7026690610acd9086908690600401615174565b602060405180830381865af4158015610aea573d6000803e3d6000fd5b505050506040513d601f19601f82011682018060405250810190610b0e9190614fe5565b90506000806000610b1d612743565b92509250925073__$7dde4232fad0cb3c495beb9e735b7d0c63$__639ad00ec2868686868b6040518663ffffffff1660e01b8152600401610b6295949392919061518e565b60006040518083038186803b158015610b7a57600080fd5b505af4158015610b8e573d6000803e3d6000fd5b50929998505050505050505050565b73__$8f1afe7577f9ab973017c74eca19b86f3c$__63142395ef610bbf61260d565b6040516001600160e01b031960e084901b1681526001600160a01b03918216600482015290851660248201526044810184905260640160006040518083038186803b158015610c0d57600080fd5b505af4158015610c21573d6000803e3d6000fd5b5050506001600160a01b0390921660009081526096602052604090205550565b6000610c4b61260d565b60405163124fdbb760e21b815290915073__$7dde4232fad0cb3c495beb9e735b7d0c63$__9063493f6edc90610c85908490600401614a57565b60006040518083038186803b158015610c9d57600080fd5b505af4158015610cb1573d6000803e3d6000fd5b50505050600080610cc06126b0565b604080518082019091526098546001600160a01b03168152919350915060009073__$166cd655d2cd990700b75f7db5b5f84c53$__9063b6fda8139060979060019060208101610d0f8a61275e565b6001600160a01b039081169091526065546040516001600160e01b031960e088901b168152610d4f959493928a928c929116908e906096906004016151be565b600060405180830381865af4158015610d6c573d6000803e3d6000fd5b505050506040513d6000823e601f3d908101601f19168201604052610d949190810190615237565b9050610d9f81612702565b505042601055505050565b73__$7dde4232fad0cb3c495beb9e735b7d0c63$__63493f6edc610dcc61260d565b6040518263ffffffff1660e01b8152600401610de89190614a57565b60006040518083038186803b158015610e0057600080fd5b505af4158015610e14573d6000803e3d6000fd5b505050600f9190915550565b60006108516105dc60017f6f55f470bdc9cb5f04223fd822021061668e4dccb43e8727b295106dc9769c8b61526b565b600073__$7dde4232fad0cb3c495beb9e735b7d0c63$__63493f6edc610e7461260d565b6040518263ffffffff1660e01b8152600401610e909190614a57565b60006040518083038186803b158015610ea857600080fd5b505af4158015610ebc573d6000803e3d6000fd5b50505050610ec86127c2565b509092915050565b73__$7dde4232fad0cb3c495beb9e735b7d0c63$__63493f6edc610ef261260d565b6040518263ffffffff1660e01b8152600401610f0e9190614a57565b60006040518083038186803b158015610f2657600080fd5b505af4158015610f3a573d6000803e3d6000fd5b5073__$79fe6ec7a3db45dafbed12dca1c6dad764$__9250636bffb346915060069050836003811115610f6f57610f6f61527e565b6040518363ffffffff1660e01b8152600401610f8c929190615294565b60006040518083038186803b158015610fa457600080fd5b505af4158015610fb8573d6000803e3d6000fd5b5050505050565b60006108516105dc60017f812a673dfca07956350df10f8a654925f561d7a0da09bdbe79e653939a14d9f161526b565b604051630a3c2bb160e21b81526001600482015260009073__$166cd655d2cd990700b75f7db5b5f84c53$__906328f0aec490602401602060405180830381865af4158015611042573d6000803e3d6000fd5b505050506040513d601f19601f820116820180604052508101906108519190614fe5565b73__$7dde4232fad0cb3c495beb9e735b7d0c63$__63d19cc38a61108861260d565b6040518263ffffffff1660e01b81526004016110a49190614a57565b60006040518083038186803b1580156110bc57600080fd5b505af41580156110d0573d6000803e3d6000fd5b505050506110dc612893565b5050565b60655460408051808201909152600a81526914d08e8811195b9a595960b21b60208201526000918291906001600160a01b0316331461113b5760405162461bcd60e51b81526004016111329190614bfc565b60405180910390fd5b50611146600161294f565b915091509091565b33301461119d5760405162461bcd60e51b815260206004820152601b60248201527f496e637265617365207265766973696f6e20666f7262696464656e00000000006044820152606401611132565b60006111cd6105dc60017f22573091f17911fb166032a3d9e0554aa73d31b7b7ddea4a4dd2995650af84bd61526b565b6111d8906001615014565b905061120c8161120960017f22573091f17911fb166032a3d9e0554aa73d31b7b7ddea4a4dd2995650af84bd61526b565b55565b61123b8261120960017fbfaaa2fb63266ff27c2da975f5894955056f50419af651a81f6c5060581857e461526b565b604080518281526001600160a01b03841660208201527ff27e2ef832a4eb8ed8ec553b875eecd44764cda95b1c24170e281539e0a869c8910160405180910390a15050565b606554606454604051633e53813360e11b81526000926001600160a01b03908116921690839073__$7dde4232fad0cb3c495beb9e735b7d0c63$__90637ca70266906112d29086908690600401615174565b602060405180830381865af41580156112ef573d6000803e3d6000fd5b505050506040513d601f19601f820116820180604052508101906113139190614fe5565b9050808511156113bf5760008061133261132d848961526b565b612b30565b604051631594b05b60e01b8152909850919350915073__$7dde4232fad0cb3c495beb9e735b7d0c63$__90631594b05b906113799087908790879087908c9060040161518e565b602060405180830381865af4158015611396573d6000803e3d6000fd5b505050506040513d601f19601f820116820180604052508101906113ba9190614fe5565b925050505b6040516333bbb20360e11b815260048101869052602481018290526001600160a01b0380841660448301528416606482015273__$7dde4232fad0cb3c495beb9e735b7d0c63$__9063677764069060840160006040518083038186803b15801561142857600080fd5b505af415801561143c573d6000803e3d6000fd5b50505050505050919050565b600280546040805183815260608082018352936001600160a01b0390931692909160208301908036833750506003546040516370a0823160e01b81529294506001600160a01b0316916370a0823191506114a6908490600401614a57565b602060405180830381865afa1580156114c3573d6000803e3d6000fd5b505050506040513d601f19601f820116820180604052508101906114e79190614fe5565b826000815181106114fa576114fa6152c6565b6020908102919091010152600480546040516370a0823160e01b81526001600160a01b03909116916370a082319161153491859101614a57565b602060405180830381865afa158015611551573d6000803e3d6000fd5b505050506040513d601f19601f820116820180604052508101906115759190614fe5565b82600181518110611588576115886152c6565b6020026020010181815250505090565b604051636e81b62960e01b81526001600482015260609081908190819073__$b1ba452cecccdd06eb05ace2d0a762c7e1$__90636e81b62990602401600060405180830381865af41580156115f1573d6000803e3d6000fd5b505050506040513d6000823e601f3d908101601f1916820160405261161991908101906153a4565b935093509350935090919293565b606060646006018054611639906154ae565b80601f0160208091040260200160405190810160405280929190818152602001828054611665906154ae565b80156116b25780601f10611687576101008083540402835291602001916116b2565b820191906000526020600020905b81548152906001019060200180831161169557829003601f168201915b5050505050905090565b6116c4612b61565b73__$7dde4232fad0cb3c495beb9e735b7d0c63$__63bd0206826116e661260d565b6064805460655460405160e086901b6001600160e01b03191681526001600160a01b03948516600482015291841660248301529290921660448301520160006040518083038186803b15801561173b57600080fd5b505af415801561174f573d6000803e3d6000fd5b50505050565b73__$7dde4232fad0cb3c495beb9e735b7d0c63$__63493f6edc61177761260d565b6040518263ffffffff1660e01b81526004016117939190614a57565b60006040518083038186803b1580156117ab57600080fd5b505af41580156117bf573d6000803e3d6000fd5b5050604051637fc1c15b60e01b815273__$7dde4232fad0cb3c495beb9e735b7d0c63$__9250637fc1c15b91506117ff90606490869086906004016154e8565b60006040518083038186803b15801561181757600080fd5b505af415801561182b573d6000803e3d6000fd5b505050505050565b73__$7dde4232fad0cb3c495beb9e735b7d0c63$__63493f6edc61185561260d565b6040518263ffffffff1660e01b81526004016118719190614a57565b60006040518083038186803b15801561188957600080fd5b505af415801561189d573d6000803e3d6000fd5b5050600280546001600160a01b0319166001600160a01b0394909416939093179092555050565b73__$8f1afe7577f9ab973017c74eca19b86f3c$__63d2c3cf256118e661260d565b6040516001600160e01b031960e084901b1681526001600160a01b0390911660048201526024810184905260440160006040518083038186803b15801561192c57600080fd5b505af4158015611940573d6000803e3d6000fd5b50505060999190915550565b73__$7dde4232fad0cb3c495beb9e735b7d0c63$__63ed6b63c1606485858561197361260d565b6040516001600160e01b031960e088901b168152600481019590955260248501939093526001600160a01b039182166044850152606484015216608482015260a40160006040518083038186803b1580156119cd57600080fd5b505af41580156119e1573d6000803e3d6000fd5b50505050505050565b60006108516105dc60017f22573091f17911fb166032a3d9e0554aa73d31b7b7ddea4a4dd2995650af84bd61526b565b6000611a24614800565b611a3084826000612bac565b805160408051808201909152600a81526914d08e8811195b9a595960b21b6020820152906001600160a01b03163314611a7c5760405162461bcd60e51b81526004016111329190614bfc565b5060408051808201909152601081526f54532d3234207a65726f2076616c756560801b602082015283611ac25760405162461bcd60e51b81526004016111329190614bfc565b5060001981606001511415604051806040016040528060118152602001701514cb4c4d081ddc9bdb99c8185cdcd95d607a1b81525090611b155760405162461bcd60e51b81526004016111329190614bfc565b50600080611b236001612c26565b608085015160405163513cfdb360e11b81526001600160a01b038a16600482015260248101919091526044810183905260648181018390526084820152919350915073__$8f1afe7577f9ab973017c74eca19b86f3c$__9063a279fb669060a401602060405180830381865af4158015611ba1573d6000803e3d6000fd5b505050506040513d601f19601f82011682018060405250810190611bc59190614fe5565b60808401526000620186a0611bdc6103e882615014565b611be6908861551e565b611bf09190615535565b905080846080015110611c1c578351611c14906001600160a01b0389169088612cf0565b859450611ced565b82600003611c5757611c336103e8620186a0615014565b620186a08560800151611c46919061551e565b611c509190615535565b9450611ced565b6000620186a0611c6a6103e8600261551e565b611c7790620186a0615014565b611c81908961551e565b611c8b9190615535565b9050611ca6856080015182611ca0919061526b565b86612d42565b506000611cb289612fa7565b9050828111611ce657611cca6103e8620186a0615014565b611cd7620186a08361551e565b611ce19190615535565b611ce8565b875b965050505b611cf5613017565b505050505092915050565b60985460408051808201909152600a81526914d08e8811195b9a595960b21b6020820152906001600160a01b03163314611d4d5760405162461bcd60e51b81526004016111329190614bfc565b5080518251146040518060400160405280600d81526020016c54532d3139206c656e6774687360981b81525090611d975760405162461bcd60e51b81526004016111329190614bfc565b50611da0613017565b505050565b60006108516105dc60017fbfaaa2fb63266ff27c2da975f5894955056f50419af651a81f6c5060581857e461526b565b6000611ddf61263d565b158015611df15750611def612731565b155b8015610851575060985460405163119aa29360e11b8152600160048201526001600160a01b03909116602482015273__$166cd655d2cd990700b75f7db5b5f84c53$__906323354526906044015b602060405180830381865af4158015611e5c573d6000803e3d6000fd5b505050506040513d601f19601f820116820180604052508101906108519190615557565b6065546064546040516001625acc3160e01b03198152600092839273__$7dde4232fad0cb3c495beb9e735b7d0c63$__9263ffa533cf92611ed2926001600160a01b0391821692911690600401615174565b602060405180830381865af4158015611eef573d6000803e3d6000fd5b505050506040513d601f19601f82011682018060405250810190611f139190614fe5565b90508015611f2857611f25818461302d565b91505b5092915050565b6000611f3961260d565b6001600160a01b0316826001600160a01b0316149050919050565b6005546000908190630100000090046001600160801b0316818115611f8157611f7c826130d1565b611f9f565b60408051600280825260608201835290916020830190803683375050505b905073__$b1ba452cecccdd06eb05ace2d0a762c7e1$__6350d2e0ba60018784611fc761260d565b6098546040516001600160e01b031960e088901b168152611ffb95949392916001600160a01b031690609690600401615574565b6040805180830381865af4158015612017573d6000803e3d6000fd5b505050506040513d601f19601f8201168201806040525081019061203b91906155c5565b935093505050915091565b60015460408051808201909152601a81527f5533532d3131204e6f742063616c6c6261636b2063616c6c65720000000000006020820152906001600160a01b031633146120a65760405162461bcd60e51b81526004016111329190614bfc565b5083156120f4576004546120f49033908690600160a81b900460ff166120d7576003546001600160a01b03166120e4565b6004546001600160a01b03165b6001600160a01b03169190612cf0565b821561174f5760045461174f9033908590600160a81b900460ff16612124576004546001600160a01b03166120e4565b6003546001600160a01b03169190612cf0565b604051630ba4ccab60e11b815260016004820152600090819073__$166cd655d2cd990700b75f7db5b5f84c53$__906317499956906024016040805180830381865af415801561218b573d6000803e3d6000fd5b505050506040513d601f19601f8201168201806040525081019061114691906155f3565b73__$7dde4232fad0cb3c495beb9e735b7d0c63$__636d51f04360646121d361260d565b6040516001600160e01b031960e085901b16815260048101929092526001600160a01b0316602482015260448101849052606401610f8c565b6000816001600160a01b031661222061260d565b6001600160a01b0316635aa6e6756040518163ffffffff1660e01b8152600401602060405180830381865afa15801561225d573d6000803e3d6000fd5b505050506040513d601f19601f820116820180604052508101906122819190615617565b6001600160a01b03161492915050565b73__$7dde4232fad0cb3c495beb9e735b7d0c63$__63493f6edc6122b361260d565b6040518263ffffffff1660e01b81526004016122cf9190614a57565b60006040518083038186803b1580156122e757600080fd5b505af41580156122fb573d6000803e3d6000fd5b5050604051630593c4c960e01b815273__$79fe6ec7a3db45dafbed12dca1c6dad764$__9250630593c4c99150610f8c906006908590600401615634565b600054610100900460ff16158080156123595750600054600160ff909116105b806123735750303b158015612373575060005460ff166001145b6123d65760405162461bcd60e51b815260206004820152602e60248201527f496e697469616c697a61626c653a20636f6e747261637420697320616c72656160448201526d191e481a5b9a5d1a585b1a5e995960921b6064820152608401611132565b6000805460ff1916600117905580156123f9576000805461ff0019166101001790555b61240488888861315b565b73__$166cd655d2cd990700b75f7db5b5f84c53$__63adc4343460018a8888888d6001600160a01b03166338d52e0f6040518163ffffffff1660e01b8152600401602060405180830381865afa158015612462573d6000803e3d6000fd5b505050506040513d601f19601f820116820180604052508101906124869190615617565b896040518863ffffffff1660e01b81526004016124a99796959493929190615648565b60006040518083038186803b1580156124c157600080fd5b505af41580156124d5573d6000803e3d6000fd5b505060405163bd85be2960e01b81526001600482015273__$7dde4232fad0cb3c495beb9e735b7d0c63$__9250637fc1c15b915060649073__$166cd655d2cd990700b75f7db5b5f84c53$__9063bd85be2990602401600060405180830381865af4158015612548573d6000803e3d6000fd5b505050506040513d6000823e601f3d908101601f191682016040526125709190810190615699565b6040518363ffffffff1660e01b815260040161258d92919061570f565b60006040518083038186803b1580156125a557600080fd5b505af41580156125b9573d6000803e3d6000fd5b505050508015612603576000805461ff0019169055604051600181527f7f26b83ff96e1f2b6a682f133852f6798a09c465da95921460cefb38474024989060200160405180910390a15b5050505050505050565b60006108516105dc60017f5165972ef41194f06c5007493031d0b927c20741adcb74403b954009fd2c361861526b565b609854604051633934e59d60e11b8152600160048201526001600160a01b03909116602482015260009073__$166cd655d2cd990700b75f7db5b5f84c53$__90637269cb3a90604401611e3f565b60006001600160e01b0319821663c19fa56160e01b14806108965750610896826131fd565b6000806126bd6001612c26565b92508290506126ca6107cb565b6126d4919061526b565b600554909150630100000090046001600160801b031680156126fd576126fb816000613232565b505b509091565b805160021480156127185750612716612731565b155b156127295761272681613352565b50505b6110dc613017565b6006546000906108519060ff1661345a565b6000806000612753600019612b30565b925092509250909192565b6000816001600160a01b0316634046ebae6040518163ffffffff1660e01b8152600401602060405180830381865afa15801561279e573d6000803e3d6000fd5b505050506040513d601f19601f820116820180604052508101906108969190615617565b6064546000906060908190839081906127e3906001600160a01b0316613477565b9150915073__$8f1afe7577f9ab973017c74eca19b86f3c$__637325f33f8361280b856134e3565b6098546040516001600160e01b031960e086901b16815261284193929187916001600160a01b0390911690600190600401615761565b600060405180830381865af415801561285e573d6000803e3d6000fd5b505050506040513d6000823e601f3d908101601f1916820160405261288691908101906157af565b9450945094505050909192565b60608060008060006128a3613562565b609854929550909350915073__$8f1afe7577f9ab973017c74eca19b86f3c$__9063e99de4da906001600160a01b03166128db6135ed565b8686866040518663ffffffff1660e01b81526004016128fe95949392919061581b565b600060405180830381865af415801561291b573d6000803e3d6000fd5b505050506040513d6000823e601f3d908101601f191682016040526129439190810190615885565b90969095509350505050565b60008060008061295f6001612c26565b9150915061296c85613681565b612aae5760008060008061297e613736565b935093509350935060006129906127c2565b5050905060006129e08b80156129a557508215155b80156129cc5750609954620186a0906129bf90859061551e565b6129c99190615535565b85115b6129d75760006129d9565b845b8884613803565b9150612a2490506129f1858a615014565b6064548390612a08906001600160a01b0316612fa7565b609754612a159190615014565b612a1f9190615014565b613a3e565b909a509850604080518981526020810189905290810187905260608101869052608081018b905260a081018a905260c081018490527f656724ec88ae6e1bb9ef6d699e92c6ad47802c06dffac7423918ef6f8c8f0e6d9060e00160405180910390a1612a99612a93878c615014565b84613a6e565b9950612aa5858a615014565b98505050505050505b6098546064546040516323c1ae5960e11b815273__$8f1afe7577f9ab973017c74eca19b86f3c$__926347835cb292612af9926001600160a01b039283169290911690600401615174565b60006040518083038186803b158015612b1157600080fd5b505af4158015612b25573d6000803e3d6000fd5b505050505050915091565b6000806000806000612b426001612c26565b91509150612b51868284613a88565b5091989097509095509350505050565b6000612b6b613c95565b90507f768a28cb3459382a3d2173feb2dad0235f8de680b109872da581a3aa269fe5f481604051612b9c9190614ac3565b60405180910390a16110dc613017565b612bb46135ed565b604083018190526001600160a01b038085166020850152609854168352612bdb9084613d1c565b6060830152612be983612fa7565b608083015280612c13576040820151606454612c0e91906001600160a01b0316613d1c565b612c19565b81606001515b60a0909201919091525050565b6000808215612ce3576064546000908190612c49906001600160a01b0316613477565b9150915073__$8f1afe7577f9ab973017c74eca19b86f3c$__633643611860976064612c74866134e3565b86866040518663ffffffff1660e01b8152600401612c969594939291906158de565b6040805180830381865af4158015612cb2573d6000803e3d6000fd5b505050506040513d601f19601f82011682018060405250810190612cd691906155f3565b9094509250612ceb915050565b505060975460005b915091565b604080516001600160a01b038416602482015260448082018490528251808303909101815260649091019091526020810180516001600160e01b031663a9059cbb60e01b179052611da0908490613d7a565b600080612d5f6005546001600160801b0363010000009091041690565b90506000612d6c826130d1565b9050600073__$8f1afe7577f9ab973017c74eca19b86f3c$__630252e2c78787604001518860600151896000015187898c60a001516040518863ffffffff1660e01b8152600401612dc39796959493929190615922565b602060405180830381865af4158015612de0573d6000803e3d6000fd5b505050506040513d601f19601f82011682018060405250810190612e049190614fe5565b90508015612e76576000612e19826000613232565b600554909150630100000090046001600160801b0316612e39908561526b565b91507faebc771af58936b05e89b0be7d3f9761480181abcd4a649fbdd01753fda169708282604051612e6c92919061597a565b60405180910390a1505b600073__$e930d50fb5f4f1298547dbcb2bb0591990$__63c432aee1876040015188606001518960000151612eb1612eac61260d565b61275e565b6000198d14612ecf578c8c60800151612eca9190615014565b612ed1565b8c5b60966040518763ffffffff1660e01b8152600401612ef496959493929190615993565b602060405180830381865af4158015612f11573d6000803e3d6000fd5b505050506040513d601f19601f82011682018060405250810190612f359190614fe5565b905085608001518110156040518060400160405280601681526020017554532d32302062616c616e636520646563726561736560501b81525090612f8c5760405162461bcd60e51b81526004016111329190614bfc565b506080860151612f9c908261526b565b979650505050505050565b6040516370a0823160e01b81526000906001600160a01b038316906370a0823190612fd6903090600401614a57565b602060405180830381865afa158015612ff3573d6000803e3d6000fd5b505050506040513d601f19601f820116820180604052508101906108969190614fe5565b60006130216127c2565b50506097819055919050565b6000613037612731565b156130c0576040805160028082526060820183526000926020830190803683370190505090508381600081518110613071576130716152c6565b6020026020010181815250507f59400c8c523464b521238ea8f50e923f2bc64663557e6afec92a97f7efe92d0581826040516130ae9291906159d6565b60405180910390a16000915050610896565b6130ca8383613e4c565b9050610896565b60405163a7aced0960e01b8152600160048201526001600160801b038216602482015260609073__$166cd655d2cd990700b75f7db5b5f84c53$__9063a7aced0990604401600060405180830381865af4158015613133573d6000803e3d6000fd5b505050506040513d6000823e601f3d908101601f191682016040526108969190810190615237565b600054610100900460ff166131825760405162461bcd60e51b8152600401611132906159fb565b61318c8383613e73565b609880546001600160a01b0319166001600160a01b0383161790556131b56064620186a0615535565b6099557fe4166dfcf23bbd3e3f764a99dc8fa740554c03c82d6019b81cf265f396f6f2fe6131e76064620186a0615535565b60405190815260200160405180910390a1505050565b60006001600160e01b0319821663b7b79fa960e01b148061089657506301ffc9a760e01b6001600160e01b0319831614610896565b60606000808361324a57613244612137565b90925090505b604051633ae60bcb60e01b8152600160048201526001600160801b038616602482015273__$166cd655d2cd990700b75f7db5b5f84c53$__90633ae60bcb90604401600060405180830381865af41580156132a9573d6000803e3d6000fd5b505050506040513d6000823e601f3d908101601f191682016040526132d19190810190615237565b92508361334a57604051632b25a6cf60e01b815260016004820152602481018390526044810182905273__$166cd655d2cd990700b75f7db5b5f84c53$__90632b25a6cf9060640160006040518083038186803b15801561333157600080fd5b505af4158015613345573d6000803e3d6000fd5b505050505b505092915050565b60015460048054600554604051638008936760e01b815260609460009473__$166cd655d2cd990700b75f7db5b5f84c53$__946380089367946133d8946001600160a01b0390941693600160c81b8304600290810b94600160e01b850490910b938c93630100000090046001600160801b031692600160a81b90910460ff169101615a46565b600060405180830381865af41580156133f5573d6000803e3d6000fd5b505050506040513d6000823e601f3d908101601f1916820160405261341d9190810190615a9c565b600580546001600160801b0390921663010000000272ffffffffffffffffffffffffffffffff000000199092169190911790559094909350915050565b600060018260038111156134705761347061527e565b1192915050565b606060006134836135ed565b915061348f8284613d1c565b90506000198114156040518060400160405280600f81526020016e53423a2057726f6e672076616c756560881b815250906134dd5760405162461bcd60e51b81526004016111329190614bfc565b50915091565b606060006135016005546001600160801b0363010000009091041690565b9050801561351757613512816130d1565b61355b565b82516001600160401b038111156135305761353061488a565b604051908082528060200260200182016040528015613559578160200160208202803683370190505b505b9392505050565b60405163af31673360e01b8152600160048201526060908190819073__$166cd655d2cd990700b75f7db5b5f84c53$__9063af31673390602401600060405180830381865af41580156135b9573d6000803e3d6000fd5b505050506040513d6000823e601f3d908101601f191682016040526135e19190810190615b02565b91959094509092509050565b6040805160028082526060808301845292602083019080368337505060035482519293506001600160a01b03169183915060009061362d5761362d6152c6565b6001600160a01b03928316602091820292909201015260045482519116908290600190811061365e5761365e6152c6565b60200260200101906001600160a01b031690816001600160a01b03168152505090565b600061368b61263d565b15604051806040016040528060148152602001735533532d31204e65656420726562616c616e636560601b815250906136d75760405162461bcd60e51b81526004016111329190614bfc565b506136e0612731565b15604051806040016040528060158152602001745533532d313420467573652069732061637469766560581b8152509061372d5760405162461bcd60e51b81526004016111329190614bfc565b50600092915050565b600080600080600080613747612893565b60645491935091506001600160a01b031673__$166cd655d2cd990700b75f7db5b5f84c53$__6334d2ec3d8261377b61260d565b86866040518563ffffffff1660e01b815260040161379c9493929190615b50565b602060405180830381865af41580156137b9573d6000803e3d6000fd5b505050506040513d601f19601f820116820180604052508101906137dd9190614fe5565b96506137e98383613f1c565b9350600095506137f881612fa7565b945050505090919293565b60645460009081906001600160a01b03168185871161382357600061382d565b61382d868861526b565b90506000620186a086609760020154613846919061551e565b6138509190615535565b82119050600061385f84612fa7565b6001600160a01b03851660009081526096602052604090205490915061388490613fbc565b8811156139735781806138975750878110155b1561395f5760655473__$8f1afe7577f9ab973017c74eca19b86f3c$__9063890ffb849086908b906001600160a01b03166138d2868d615014565b6040516001600160e01b031960e087901b1681526001600160a01b03948516600482015260248101939093529216604482015260648101919091526084810184905260a4016040805180830381865af4158015613933573d6000803e3d6000fd5b505050506040513d601f19601f8201168201806040525081019061395791906155f3565b509450613973565b61396b60008989613a88565b909850965050505b8115613a325760008061398586613477565b60985491935091506000906139a5906001600160a01b0316878585613fd4565b90506139b08161428c565b6139fd5760006139bf82613352565b5090507f59400c8c523464b521238ea8f50e923f2bc64663557e6afec92a97f7efe92d0582826040516139f39291906159d6565b60405180910390a1505b6000613a07613017565b9050613a2a613a16868d615014565b8a613a208b612fa7565b612a159085615014565b9a5050505050505b50505050935093915050565b60008083831115613a5a57613a53848461526b565b9150613a67565b613a64838561526b565b90505b9250929050565b6000818311613a7e57600061355b565b61355b828461526b565b60008060008060006000198814613acc57620186a0613aa96103e882615014565b613ab3898b615014565b613abd919061551e565b613ac79190615535565b613ace565b875b9050613ad9816142d8565b8015801590613ae757508515155b15613c8b57613af4614800565b606454613b0c906001600160a01b0316826001612bac565b80516020820151604051637a55caf360e01b815273__$8f1afe7577f9ab973017c74eca19b86f3c$__92637a55caf392613b4892600401615174565b602060405180830381865af4158015613b65573d6000803e3d6000fd5b505050506040513d601f19601f82011682018060405250810190613b899190614fe5565b9450670de0b6b3a764000085613ba8613ba28585612d42565b8b613a6e565b613bb2919061551e565b613bbc9190615535565b6065546020830151608084015192985073__$8f1afe7577f9ab973017c74eca19b86f3c$__92632ce30333926001600160a01b031691908b908d613bfe613017565b6040516001600160e01b031960e089901b1681526001600160a01b03968716600482015295909416602486015260448501929092526064840152608483015260a482015260c4016040805180830381865af4158015613c61573d6000803e3d6000fd5b505050506040513d601f19601f82011682018060405250810190613c8591906155f3565b94509250505b5093509350935093565b60606000613cb36005546001600160801b0363010000009091041690565b90508015613ccb57613cc6816001613232565b613d16565b613cd36135ed565b516001600160401b03811115613ceb57613ceb61488a565b604051908082528060200260200182016040528015613d14578160200160208202803683370190505b505b91505090565b8151600090815b81811015613d6e57836001600160a01b0316858281518110613d4757613d476152c6565b60200260200101516001600160a01b031603613d665791506108969050565b600101613d23565b50600019949350505050565b6000613dcf826040518060400160405280602081526020017f5361666545524332303a206c6f772d6c6576656c2063616c6c206661696c6564815250856001600160a01b031661432c9092919063ffffffff16565b805190915015611da05780806020019051810190613ded9190615557565b611da05760405162461bcd60e51b815260206004820152602a60248201527f5361666545524332303a204552433230206f7065726174696f6e20646964206e6044820152691bdd081cdd58d8d9595960b21b6064820152608401611132565b6000806000613e5a84612c26565b91509150613e69858284613803565b5095945050505050565b600054610100900460ff16613e9a5760405162461bcd60e51b8152600401611132906159fb565b613ec4817fd2de0374d4479f33e63ae5ed6ca772a10463dd883a90c612050b51fab6196400614343565b613ecd82614399565b604051631797527d60e01b81526064600482018190526001600160a01b0380851660248401528316604483015273__$7dde4232fad0cb3c495beb9e735b7d0c63$__91631797527d91016117ff565b600082516000146108965773__$e930d50fb5f4f1298547dbcb2bb0591990$__635dcb613060646097613f4d6135ed565b613f5561260d565b609689896040518863ffffffff1660e01b8152600401613f7b9796959493929190615b8e565b602060405180830381865af4158015613f98573d6000803e3d6000fd5b505050506040513d601f19601f8201168201806040525081019061355b9190614fe5565b60008115613fca5781610896565b620186a092915050565b6060613fde61263d565b15604051806040016040528060148152602001735533532d31204e65656420726562616c616e636560601b8152509061402a5760405162461bcd60e51b81526004016111329190614bfc565b5060015460048054604051630dc528a760e01b81526001600160a01b0390931691830191909152600160c81b8104600290810b6024840152600160e01b8204900b6044830152600160a81b900460ff1615156064820152600090819073__$166cd655d2cd990700b75f7db5b5f84c53$__90630dc528a7906084016040805180830381865af41580156140c1573d6000803e3d6000fd5b505050506040513d601f19601f820116820180604052508101906140e591906155f3565b6003546004549294509092506001600160a01b039081169173__$b1ba452cecccdd06eb05ace2d0a762c7e1$__91631c2040d5918b918b9186911661412a888a615014565b61413c8a670de0b6b3a764000061551e565b6141469190615535565b60405160e087901b6001600160e01b03191681526001600160a01b0395861660048201526024810194909452918416604484015290921660648201526084810191909152609660a482015260c401600060405180830381865af41580156141b1573d6000803e3d6000fd5b505050506040513d6000823e601f3d908101601f191682016040526141d99190810190615237565b9350806001600160a01b0316866000815181106141f8576141f86152c6565b60200260200101516001600160a01b0316146142815783600181518110614221576142216152c6565b60200260200101518460008151811061423c5761423c6152c6565b602002602001015185600081518110614257576142576152c6565b6020026020010186600181518110614271576142716152c6565b6020908102919091010191909152525b505050949350505050565b8051600090815b818110156142ce578381815181106142ad576142ad6152c6565b60200260200101516000036142c6575060019392505050565b600101614293565b5060009392505050565b6142e061263d565b15604051806040016040528060148152602001735533532d31204e65656420726562616c616e636560601b815250906110dc5760405162461bcd60e51b81526004016111329190614bfc565b606061433b84846000856145be565b949350505050565b61434d828261468e565b6110dc5760405162461bcd60e51b815260206004820152601a60248201527f496e74657266616365206973206e6f7420737570706f727465640000000000006044820152606401611132565b600054610100900460ff166143c05760405162461bcd60e51b8152600401611132906159fb565b6001600160a01b0381166144085760405162461bcd60e51b815260206004820152600f60248201526e2d32b9379031b7b73a3937b63632b960891b6044820152606401611132565b614432817f4c2403fdcb3cff9b705d96bf0705858e3390412670a62c8bcba611ca7e20ab86614343565b60006001600160a01b0316816001600160a01b0316635aa6e6756040518163ffffffff1660e01b8152600401602060405180830381865afa15801561447b573d6000803e3d6000fd5b505050506040513d601f19601f8201168201806040525081019061449f9190615617565b6001600160a01b0316036144e75760405162461bcd60e51b815260206004820152600f60248201526e5a65726f20676f7665726e616e636560881b6044820152606401611132565b6145168161120960017f5165972ef41194f06c5007493031d0b927c20741adcb74403b954009fd2c361861526b565b6145454261120960017f6f55f470bdc9cb5f04223fd822021061668e4dccb43e8727b295106dc9769c8b61526b565b6145744361120960017f812a673dfca07956350df10f8a654925f561d7a0da09bdbe79e653939a14d9f161526b565b604080516001600160a01b0383168152426020820152438183015290517f1a2dd071001ebf6e03174e3df5b305795a4ad5d41d8fdb9ba41dbbe2367134269181900360600190a150565b60608247101561461f5760405162461bcd60e51b815260206004820152602660248201527f416464726573733a20696e73756666696369656e742062616c616e636520666f6044820152651c8818d85b1b60d21b6064820152608401611132565b600080866001600160a01b0316858760405161463b9190615bf7565b60006040518083038185875af1925050503d8060008114614678576040519150601f19603f3d011682016040523d82523d6000602084013e61467d565b606091505b5091509150612f9c87838387614762565b60006001600160a01b0383166146d55760405162461bcd60e51b815260206004820152600c60248201526b5a65726f206164647265737360a01b6044820152606401611132565b823b60008190036146ea576000915050610896565b6040516301ffc9a760e01b81526001600160e01b0319841660048201526001600160a01b038516906301ffc9a790602401602060405180830381865afa925050508015614754575060408051601f3d908101601f1916820190925261475191810190615557565b60015b156142ce5791506108969050565b606083156147d15782516000036147ca576001600160a01b0385163b6147ca5760405162461bcd60e51b815260206004820152601d60248201527f416464726573733a2063616c6c20746f206e6f6e2d636f6e74726163740000006044820152606401611132565b508161433b565b61433b83838151156147e65781518083602001fd5b8060405162461bcd60e51b81526004016111329190614bfc565b6040518060c0016040528060006001600160a01b0316815260200160006001600160a01b03168152602001606081526020016000815260200160008152602001600081525090565b60006020828403121561485a57600080fd5b81356001600160e01b03198116811461355b57600080fd5b6001600160a01b038116811461488757600080fd5b50565b634e487b7160e01b600052604160045260246000fd5b604051601f8201601f191681016001600160401b03811182821017156148c8576148c861488a565b604052919050565b60006001600160401b038211156148e9576148e961488a565b50601f01601f191660200190565b600082601f83011261490857600080fd5b813561491b614916826148d0565b6148a0565b81815284602083860101111561493057600080fd5b816020850160208301376000918101602001919091529392505050565b60008060008060008060c0878903121561496657600080fd5b863561497181614872565b9550602087013561498181614872565b94506040870135935060608701356001600160401b03808211156149a457600080fd5b6149b08a838b016148f7565b945060808901359150808211156149c657600080fd5b506149d389828a016148f7565b92505060a087013590509295509295509295565b600080604083850312156149fa57600080fd5b8235614a0581614872565b946020939093013593505050565b801515811461488757600080fd5b600060208284031215614a3357600080fd5b813561355b81614a13565b600060208284031215614a5057600080fd5b5035919050565b6001600160a01b0391909116815260200190565b600060208284031215614a7d57600080fd5b813561355b81614872565b600081518084526020808501945080840160005b83811015614ab857815187529582019590820190600101614a9c565b509495945050505050565b60208152600061355b6020830184614a88565b600081518084526020808501945080840160005b83811015614ab8578151151587529582019590820190600101614aea565b6080808252855190820181905260009060209060a0840190828901845b82811015614b4a5781516001600160a01b031684529284019290840190600101614b25565b5050508381038285015286518082528783019183019060005b81811015614b8257835160020b83529284019291840191600101614b63565b50508481036040860152614b968188614a88565b925050508281036060840152612f9c8185614ad6565b60005b83811015614bc7578181015183820152602001614baf565b50506000910152565b60008151808452614be8816020860160208601614bac565b601f01601f19169290920160200192915050565b60208152600061355b6020830184614bd0565b60008083601f840112614c2157600080fd5b5081356001600160401b03811115614c3857600080fd5b602083019150836020828501011115613a6757600080fd5b60008060208385031215614c6357600080fd5b82356001600160401b03811115614c7957600080fd5b61294385828601614c0f565b600080600060608486031215614c9a57600080fd5b833592506020840135614cac81614872565b929592945050506040919091013590565b60006001600160401b03821115614cd657614cd661488a565b5060051b60200190565b600082601f830112614cf157600080fd5b81356020614d0161491683614cbd565b82815260059290921b84018101918181019086841115614d2057600080fd5b8286015b84811015614d3b5780358352918301918301614d24565b509695505050505050565b60008060408385031215614d5957600080fd5b82356001600160401b0380821115614d7057600080fd5b818501915085601f830112614d8457600080fd5b81356020614d9461491683614cbd565b82815260059290921b84018101918181019089841115614db357600080fd5b948201945b83861015614dda578535614dcb81614872565b82529482019490820190614db8565b96505086013592505080821115614df057600080fd5b50614dfd85828601614ce0565b9150509250929050565b60008060408385031215614e1a57600080fd5b823591506020830135614e2c81614a13565b809150509250929050565b600060208284031215614e4957600080fd5b81356001600160401b03811115614e5f57600080fd5b611f25848285016148f7565b60008060008060608587031215614e8157600080fd5b843593506020850135925060408501356001600160401b03811115614ea557600080fd5b614eb187828801614c0f565b95989497509550505050565b600060808284031215614ecf57600080fd5b82601f830112614ede57600080fd5b604051608081018181106001600160401b0382111715614f0057614f0061488a565b604052806080840185811115614f1557600080fd5b845b81811015614f2f578035835260209283019201614f17565b509195945050505050565b8060020b811461488757600080fd5b600080600080600080600061014080898b031215614f6657600080fd5b8835614f7181614872565b97506020890135614f8181614872565b96506040890135614f9181614872565b95506060890135614fa181614872565b94506080890135614fb181614f3a565b935060a0890135614fc181614f3a565b92508881018a1015614fd257600080fd5b5060c08801905092959891949750929550565b600060208284031215614ff757600080fd5b5051919050565b634e487b7160e01b600052601160045260246000fd5b8082018082111561089657610896614ffe565b8060005b600481101561174f57815184526020938401939091019060010161502b565b60006101c089835260208084018a60005b60058110156150815781516001600160a01b03168352918301919083019060010161505b565b5050505061509260c0840189615027565b806101408401526150a581840188614bd0565b90508281036101608401526150ba8187614bd0565b61018084019590955250506101a0015295945050505050565b600082601f8301126150e457600080fd5b815160206150f461491683614cbd565b82815260059290921b8401810191818101908684111561511357600080fd5b8286015b84811015614d3b5780518352918301918301615117565b6000806040838503121561514157600080fd5b825161514c81614a13565b60208401519092506001600160401b0381111561516857600080fd5b614dfd858286016150d3565b6001600160a01b0392831681529116602082015260400190565b6001600160a01b039586168152602081019490945260408401929092526060830152909116608082015260a00190565b8881526020808201899052610120820190604083018960005b60028110156151fd5781516001600160a01b0316835291830191908301906001016151d7565b50505050608082019690965260a08101949094526001600160a01b039290921660c0840152151560e0830152610100909101529392505050565b60006020828403121561524957600080fd5b81516001600160401b0381111561525f57600080fd5b611f25848285016150d3565b8181038181111561089657610896614ffe565b634e487b7160e01b600052602160045260246000fd5b82815260408101600483106152b957634e487b7160e01b600052602160045260246000fd5b8260208301529392505050565b634e487b7160e01b600052603260045260246000fd5b600082601f8301126152ed57600080fd5b815160206152fd61491683614cbd565b82815260059290921b8401810191818101908684111561531c57600080fd5b8286015b84811015614d3b57805161533381614872565b8352918301918301615320565b600082601f83011261535157600080fd5b8151602061536161491683614cbd565b82815260059290921b8401810191818101908684111561538057600080fd5b8286015b84811015614d3b57805161539781614a13565b8352918301918301615384565b600080600080608085870312156153ba57600080fd5b84516001600160401b03808211156153d157600080fd5b6153dd888389016152dc565b95506020915081870151818111156153f457600080fd5b8701601f8101891361540557600080fd5b805161541361491682614cbd565b81815260059190911b8201840190848101908b83111561543257600080fd5b928501925b8284101561545957835161544a81614f3a565b82529285019290850190615437565b60408b015190985094505050508082111561547357600080fd5b61547f888389016150d3565b9350606087015191508082111561549557600080fd5b506154a287828801615340565b91505092959194509250565b600181811c908216806154c257607f821691505b6020821081036154e257634e487b7160e01b600052602260045260246000fd5b50919050565b83815260406020820152816040820152818360608301376000818301606090810191909152601f909201601f1916010192915050565b808202811582820484141761089657610896614ffe565b60008261555257634e487b7160e01b600052601260045260246000fd5b500490565b60006020828403121561556957600080fd5b815161355b81614a13565b86815260c06020820152600061558d60c0830188614bd0565b828103604084015261559f8188614a88565b6001600160a01b0396871660608501529490951660808301525060a00152949350505050565b600080604083850312156155d857600080fd5b82516155e381614872565b6020939093015192949293505050565b6000806040838503121561560657600080fd5b505080516020909101519092909150565b60006020828403121561562957600080fd5b815161355b81614872565b82815260a0810161355b6020830184615027565b8781526001600160a01b0387811660208301528681166040830152600286810b606084015285900b60808084019190915290841660a08301526101408201908360c084013798975050505050505050565b6000602082840312156156ab57600080fd5b81516001600160401b038111156156c157600080fd5b8201601f810184136156d257600080fd5b80516156e0614916826148d0565b8181528560208385010111156156f557600080fd5b615706826020830160208601614bac565b95945050505050565b82815260406020820152600061433b6040830184614bd0565b600081518084526020808501945080840160005b83811015614ab85781516001600160a01b03168752958201959082019060010161573c565b60a08152600061577460a0830188615728565b82810360208401526157868188614a88565b604084019690965250506001600160a01b03929092166060830152151560809091015292915050565b6000806000606084860312156157c457600080fd5b8351925060208401516001600160401b03808211156157e257600080fd5b6157ee878388016150d3565b9350604086015191508082111561580457600080fd5b50615811868287016150d3565b9150509250925092565b6001600160a01b038616815260a06020820181905260009061583f90830187615728565b82810360408401526158518187615728565b905082810360608401526158658186614a88565b905082810360808401526158798185614a88565b98975050505050505050565b6000806040838503121561589857600080fd5b82516001600160401b03808211156158af57600080fd5b6158bb868387016152dc565b935060208501519150808211156158d157600080fd5b50614dfd858286016150d3565b85815284602082015260a0604082015260006158fd60a0830186614a88565b828103606084015261590f8186615728565b9150508260808301529695505050505050565b87815260e06020820152600061593b60e0830189615728565b604083018890526001600160a01b038716606084015282810360808401526159638187614a88565b60a0840195909552505060c0015295945050505050565b82815260406020820152600061433b6040830184614a88565b60c0815260006159a660c0830189615728565b6020830197909752506001600160a01b039485166040820152929093166060830152608082015260a00152919050565b6040815260006159e96040830185614a88565b82810360208401526157068185614a88565b6020808252602b908201527f496e697469616c697a61626c653a20636f6e7472616374206973206e6f74206960408201526a6e697469616c697a696e6760a81b606082015260800190565b60018060a01b03871681528560020b60208201528460020b604082015260c060608201526000615a7960c0830186614a88565b6001600160801b039490941660808301525090151560a090910152949350505050565b600080600060608486031215615ab157600080fd5b83516001600160401b03811115615ac757600080fd5b615ad3868287016150d3565b9350506020840151915060408401516001600160801b0381168114615af757600080fd5b809150509250925092565b600080600060608486031215615b1757600080fd5b83516001600160401b0380821115615b2e57600080fd5b615b3a878388016152dc565b945060208601519150808211156157e257600080fd5b6001600160a01b03858116825284166020820152608060408201819052600090615b7c90830185615728565b8281036060840152612f9c8185614a88565b87815286602082015260e060408201526000615bad60e0830188615728565b6001600160a01b03871660608401526080830186905282810360a0840152615bd58186615728565b905082810360c0840152615be98185614a88565b9a9950505050505050505050565b60008251615c09818460208701614bac565b919091019291505056fea2646970667358221220359e64ae66321416df2a1e1636cfb91b75b85da83bddf6349a586263bff1864a64736f6c63430008110033",
  "libraries": {
    "ConverterStrategyBaseLib": "0x5E427A2BD4Da38234C6EBAD7A64d7d0007D02382",
    "ConverterStrategyBaseLib2": "0x4089B52F777850eBB8e8252055707B7B36817358",
    "StrategyLib2": "0x956D3fed2B1FC3B905C9376b4c5DAAc9ADF999c4",
    "UniswapV3ConverterStrategyLogicLib": "0x631DA2Fb619Fe49E96758A9c15f87f482A31Ec3a",
    "PairBasedStrategyLib": "0x713DF40F222d36d557e1A66f6F79fDbC0a78457D",
    "PairBasedStrategyLogicLib": "0x57D3e8CA53878d6Aa8B1c48Bd8F3e52a3bCeC005"
  },
  "devdoc": {
    "author": "a17",
    "kind": "dev",
    "methods": {
      "claim()": {
        "details": "Manual claim rewards."
      },
      "created()": {
        "returns": {
          "_0": "Creation timestamp"
        }
      },
      "createdBlock()": {
        "returns": {
          "_0": "Creation block number"
        }
      },
      "doHardWork()": {
        "returns": {
          "earned": "Earned amount in terms of {asset}",
          "lost": "Lost amount in terms of {asset}"
        }
      },
      "emergencyExit()": {
        "details": "In case of any issue operator can withdraw all from pool."
      },
      "getDefaultState()": {
        "returns": {
          "addr": "[tokenA, tokenB, pool, profitHolder]",
          "boolValues": "[isStablePool, depositorSwapTokens]",
          "nums": "[totalLiquidity, fuse-status-tokenA, fuse-status-tokenB, withdrawDone, 4 thresholds of token A, 4 thresholds of token B]",
          "tickData": "[tickSpacing, lowerTick, upperTick, rebalanceTickRange]"
        }
      },
      "getFees()": {
        "returns": {
          "fee0": "and fee1."
        }
      },
      "getPropNotUnderlying18()": {
        "returns": {
          "_0": "Proportion of the not-underlying [0...1e18]"
        }
      },
      "getSlot(uint256)": {
        "details": "Gets a slot as bytes32"
      },
      "getSpecificState()": {
        "returns": {
          "nums": "Balances of [tokenA, tokenB] for profit holder"
        }
      },
      "increaseRevision(address)": {
        "details": "Revision should be increased on each contract upgrade"
      },
      "init(address,address,address,address,int24,int24,uint256[4])": {
        "params": {
          "controller_": "The address of the controller.",
          "converter_": "The address of the converter.",
          "fuseThresholds": "Price thresholds for tokens [LOWER_LIMIT_ON, LOWER_LIMIT_OFF, UPPER_LIMIT_ON, UPPER_LIMIT_OFF]",
          "pool_": "The address of the pool.",
          "rebalanceTickRange_": "The tick range for rebalancing.",
          "splitter_": "The address of the splitter.",
          "tickRange_": "The tick range for the liquidity position."
        }
      },
      "investAll(uint256,bool)": {
        "params": {
          "updateTotalAssetsBeforeInvest_": "Recalculate total assets amount before depositing.                                       It can be false if we know exactly, that the amount is already actual."
        },
        "returns": {
          "strategyLoss": "Loss should be covered from Insurance"
        }
      },
      "isController(address)": {
        "details": "Return true if given address is controller"
      },
      "isReadyToHardWork()": {
        "returns": {
          "_0": "A boolean indicating if the strategy is ready for hard work."
        }
      },
      "needRebalance()": {
        "returns": {
          "_0": "A boolean indicating if {rebalanceNoSwaps} should be called."
        }
      },
      "onTransferAmounts(address[],uint256[])": {
        "params": {
          "amounts_": "Amount of {asset_} that has been sent to the user's balance",
          "assets_": "Any asset sent to the balance, i.e. inside repayTheBorrow"
        }
      },
      "performanceFee()": {
        "details": "use FEE_DENOMINATOR"
      },
      "previousImplementation()": {
        "details": "Previous logic implementation"
      },
      "rebalanceNoSwaps(bool)": {
        "params": {
          "checkNeedRebalance": "Revert if rebalance is not needed. Pass false to deposit after withdrawByAgg-iterations"
        }
      },
      "requirePayAmountBack(address,uint256)": {
        "params": {
          "amount_": "Required amount of {theAsset_}",
          "theAsset_": "Required asset (either collateral or borrow), it can be NOT underlying"
        },
        "returns": {
          "amountOut": "Amount that was send OR can be claimed on the next call.                   The caller should control own balance to know if the amount was actually send                   (because we need compatibility with exist not-NSR strategies)"
        }
      },
      "revision()": {
        "details": "Contract upgrade counter"
      },
      "setCompoundRatio(uint256)": {
        "details": "PlatformVoter can change compound ratio for some strategies.      A strategy can implement another logic for some uniq cases."
      },
      "setFuseStatus(uint256)": {
        "params": {
          "status": "See PairBasedStrategyLib.FuseStatus enum for possible values"
        }
      },
      "setFuseThresholds(uint256[4])": {
        "params": {
          "values": "Price thresholds: [LOWER_LIMIT_ON, LOWER_LIMIT_OFF, UPPER_LIMIT_ON, UPPER_LIMIT_OFF]"
        }
      },
      "setLiquidationThreshold(address,uint256)": {
        "details": "Liquidation thresholds are used to detect dust in many cases, not only in liquidation case",
        "params": {
          "amount": "Min amount of token allowed to liquidate, token's decimals are used."
        }
      },
      "setReinvestThresholdPercent(uint256)": {
        "params": {
          "percent_": "New value of the percent, decimals = {REINVEST_THRESHOLD_PERCENT_DENOMINATOR}"
        }
      },
      "setStrategyProfitHolder(address)": {
        "details": "Set a dedicated contract for rewards for properly counting.      It is safe to allow change it to operator - we suppose the contract only temporally store the last rewards."
      },
      "setStrategySpecificName(string)": {
        "details": "The name will be used for UI."
      },
      "setWithdrawDone(uint256)": {
        "params": {
          "done": "0 - full withdraw required, 1 - full withdraw was done"
        }
      },
      "supportsInterface(bytes4)": {
        "details": "See {IERC165-supportsInterface}."
      },
      "totalAssets()": {
        "details": "Total amount of underlying assets under control of this strategy."
      },
      "uniswapV3MintCallback(uint256,uint256,bytes)": {
        "params": {
          "amount0Owed": "The amount of token0 owed to the pool.",
          "amount1Owed": "The amount of token1 owed to the pool."
        }
      },
      "withdrawAllToSplitter()": {
        "details": "Withdraws all underlying assets to the vault",
        "returns": {
          "strategyLoss": "Loss should be covered from Insurance"
        }
      },
      "withdrawByAggStep(address,address,uint256,bytes,bytes,uint256)": {
        "details": "All swap-by-agg data should be prepared using {quoteWithdrawByAgg} off-chain",
        "params": {
          "aggregator_": "Aggregator that should be used on next swap. 0 - use liquidator",
          "amountToSwap_": "Amount that should be swapped. 0 - no swap",
          "entryToPool": "Allow to enter to the pool at the end. Use false if you are going to make several iterations.                    It's possible to enter back to the pool by calling {rebalanceNoSwaps} at any moment                    0 - not allowed, 1 - allowed, 2 - allowed only if completed",
          "planEntryData": "PLAN_XXX + additional data, see IterationPlanKinds",
          "swapData": "Swap rote that was prepared off-chain.",
          "tokenToSwap_": "What token should be swapped to other"
        },
        "returns": {
          "completed": "All debts were closed, leftovers were swapped to the required proportions."
        }
      },
      "withdrawToSplitter(uint256)": {
        "details": "Withdraws some assets to the splitter",
        "returns": {
          "strategyLoss": "Loss should be covered from Insurance"
        }
      }
    },
    "title": "Delta-neutral liquidity hedging converter fill-up/swap rebalancing strategy for UniswapV3",
    "version": 1
  },
  "userdoc": {
    "kind": "user",
    "methods": {
      "CONTROLLABLE_VERSION()": {
        "notice": "Version of the contract"
      },
      "capacity()": {
        "notice": "Unlimited capacity by default"
      },
      "controller()": {
        "notice": "Return controller address saved in the contract slot"
      },
      "created()": {
        "notice": "Return creation timestamp"
      },
      "createdBlock()": {
        "notice": "Return creation block number"
      },
      "doHardWork()": {
        "notice": "Do hard work with reinvesting"
      },
      "getDefaultState()": {
        "notice": "Returns the current state of the contract"
      },
      "getFees()": {
        "notice": "Returns the fees for the current state."
      },
      "getPropNotUnderlying18()": {
        "notice": "Calculate proportions of [underlying, not-underlying] required by the internal pool of the strategy"
      },
      "init(address,address,address,address,int24,int24,uint256[4])": {
        "notice": "Initialize the strategy with the given parameters."
      },
      "investAll(uint256,bool)": {
        "notice": "Stakes everything the strategy holds into the reward pool. amount_ Amount transferred to the strategy balance just before calling this function"
      },
      "investedAssets()": {
        "notice": "Amount of underlying assets converted to pool assets and invested to the pool."
      },
      "isGovernance(address)": {
        "notice": "Return true if given address is setup as governance in Controller"
      },
      "isReadyToHardWork()": {
        "notice": "Check if the strategy is ready for hard work."
      },
      "liquidationThresholds(address)": {
        "notice": "Minimum token amounts that can be liquidated"
      },
      "needRebalance()": {
        "notice": "Check if the strategy needs rebalancing."
      },
      "onTransferAmounts(address[],uint256[])": {
        "notice": "TetuConverter calls this function when it sends any amount to user's balance"
      },
      "performanceFee()": {
        "notice": "A percent of total profit that is sent to the {performanceReceiver} before compounding"
      },
      "performanceReceiver()": {
        "notice": "{performanceFee}% of total profit is sent to the {performanceReceiver} before compounding"
      },
      "quoteWithdrawByAgg(bytes)": {
        "notice": "Get info about a swap required by next call of {withdrawByAggStep} within the given plan"
      },
      "rebalanceNoSwaps(bool)": {
        "notice": "Rebalance using borrow/repay only, no swaps"
      },
      "requirePayAmountBack(address,uint256)": {
        "notice": "Converters asks to send some amount back.         The results depend on whether the required amount is on the balance:         1. The {amount_} exists on the balance: send the amount to TetuConverter, return {amount_}         2. The {amount_} doesn't exist on the balance. Try to receive the {amount_}.         2.1. if the required amount is received: return {amount_}         2.2. if less amount X (X < {amount_}) is received return X - gap         In the case 2 no amount is send to TetuConverter.         Converter should make second call of requirePayAmountBack({amountOut}) to receive the assets."
      },
      "setFuseStatus(uint256)": {
        "notice": "Manually set status of the fuse"
      },
      "setFuseThresholds(uint256[4])": {
        "notice": "Set thresholds for the fuse: [LOWER_LIMIT_ON, LOWER_LIMIT_OFF, UPPER_LIMIT_ON, UPPER_LIMIT_OFF]         Decimals 18. The thresholds are compared with prices from TetuConverter's price oracle.         Example: [0.9, 0.92, 1.08, 1.1]         Price falls below 0.9 - fuse is ON. Price rises back up to 0.92 - fuse is OFF.         Price raises more and reaches 1.1 - fuse is ON again. Price falls back and reaches 1.08 - fuse OFF again."
      },
      "setWithdrawDone(uint256)": {
        "notice": "Set withdrawDone value.         When a fuse was triggered ON, all debts should be closed and asset should be converted to underlying.         After completion of the conversion withdrawDone can be set to 1.         So, {getFuseStatus} will return  withdrawDone=1 and you will know, that withdraw is not required"
      },
      "setupPerformanceFee(uint256,address,uint256)": {
        "notice": "Set performance fee, receiver and ratio"
      },
      "uniswapV3MintCallback(uint256,uint256,bytes)": {
        "notice": "Callback function called by Uniswap V3 pool on mint operation."
      },
      "withdrawByAggStep(address,address,uint256,bytes,bytes,uint256)": {
        "notice": "Make withdraw iteration: [exit from the pool], [make 1 swap], [repay a debt], [enter to the pool]         Typical sequence of the actions is: exit from the pool, make 1 swap, repay 1 debt.         You can enter to the pool if you are sure that you won't have borrow + repay on AAVE3 in the same block."
      }
    },
    "notice": "This strategy provides delta-neutral liquidity hedging for Uniswap V3 pools. It rebalances the liquidity         by utilizing fill-up and swap methods depending on the range size of the liquidity provided.",
    "version": 1
  },
  "storageLayout": {
    "storage": [
      {
        "astId": 11499,
        "contract": "contracts/strategies/uniswap/UniswapV3ConverterStrategy.sol:UniswapV3ConverterStrategy",
        "label": "_initialized",
        "offset": 0,
        "slot": "0",
        "type": "t_uint8"
      },
      {
        "astId": 11502,
        "contract": "contracts/strategies/uniswap/UniswapV3ConverterStrategy.sol:UniswapV3ConverterStrategy",
        "label": "_initializing",
        "offset": 1,
        "slot": "0",
        "type": "t_bool"
      },
      {
        "astId": 125271,
        "contract": "contracts/strategies/uniswap/UniswapV3ConverterStrategy.sol:UniswapV3ConverterStrategy",
        "label": "state",
        "offset": 0,
        "slot": "1",
        "type": "t_struct(State)123129_storage"
      },
      {
        "astId": 125278,
        "contract": "contracts/strategies/uniswap/UniswapV3ConverterStrategy.sol:UniswapV3ConverterStrategy",
        "label": "__gap",
        "offset": 0,
        "slot": "60",
        "type": "t_array(t_uint256)40_storage"
      },
      {
        "astId": 16849,
        "contract": "contracts/strategies/uniswap/UniswapV3ConverterStrategy.sol:UniswapV3ConverterStrategy",
        "label": "baseState",
        "offset": 0,
        "slot": "100",
        "type": "t_struct(BaseState)5446_storage"
      },
      {
        "astId": 17296,
        "contract": "contracts/strategies/uniswap/UniswapV3ConverterStrategy.sol:UniswapV3ConverterStrategy",
        "label": "__gap",
        "offset": 0,
        "slot": "107",
        "type": "t_array(t_uint256)43_storage"
      },
      {
        "astId": 94149,
        "contract": "contracts/strategies/uniswap/UniswapV3ConverterStrategy.sol:UniswapV3ConverterStrategy",
        "label": "liquidationThresholds",
        "offset": 0,
        "slot": "150",
        "type": "t_mapping(t_address,t_uint256)"
      },
      {
        "astId": 94153,
        "contract": "contracts/strategies/uniswap/UniswapV3ConverterStrategy.sol:UniswapV3ConverterStrategy",
        "label": "_csbs",
        "offset": 0,
        "slot": "151",
        "type": "t_struct(ConverterStrategyBaseState)90096_storage"
      },
      {
        "astId": 95624,
        "contract": "contracts/strategies/uniswap/UniswapV3ConverterStrategy.sol:UniswapV3ConverterStrategy",
        "label": "__gap",
        "offset": 0,
        "slot": "204",
        "type": "t_array(t_uint256)46_storage"
      }
    ],
    "types": {
      "t_address": {
        "encoding": "inplace",
        "label": "address",
        "numberOfBytes": "20"
      },
      "t_array(t_uint256)10_storage": {
        "base": "t_uint256",
        "encoding": "inplace",
        "label": "uint256[10]",
        "numberOfBytes": "320"
      },
      "t_array(t_uint256)33_storage": {
        "base": "t_uint256",
        "encoding": "inplace",
        "label": "uint256[33]",
        "numberOfBytes": "1056"
      },
      "t_array(t_uint256)40_storage": {
        "base": "t_uint256",
        "encoding": "inplace",
        "label": "uint256[40]",
        "numberOfBytes": "1280"
      },
      "t_array(t_uint256)43_storage": {
        "base": "t_uint256",
        "encoding": "inplace",
        "label": "uint256[43]",
        "numberOfBytes": "1376"
      },
      "t_array(t_uint256)46_storage": {
        "base": "t_uint256",
        "encoding": "inplace",
        "label": "uint256[46]",
        "numberOfBytes": "1472"
      },
      "t_array(t_uint256)49_storage": {
        "base": "t_uint256",
        "encoding": "inplace",
        "label": "uint256[49]",
        "numberOfBytes": "1568"
      },
      "t_array(t_uint256)4_storage": {
        "base": "t_uint256",
        "encoding": "inplace",
        "label": "uint256[4]",
        "numberOfBytes": "128"
      },
      "t_bool": {
        "encoding": "inplace",
        "label": "bool",
        "numberOfBytes": "1"
      },
      "t_contract(ITetuConverter)51397": {
        "encoding": "inplace",
        "label": "contract ITetuConverter",
        "numberOfBytes": "20"
      },
      "t_enum(FuseStatus)117473": {
        "encoding": "inplace",
        "label": "enum PairBasedStrategyLib.FuseStatus",
        "numberOfBytes": "1"
      },
      "t_int24": {
        "encoding": "inplace",
        "label": "int24",
        "numberOfBytes": "3"
      },
      "t_int256": {
        "encoding": "inplace",
        "label": "int256",
        "numberOfBytes": "32"
      },
      "t_mapping(t_address,t_uint256)": {
        "encoding": "mapping",
        "key": "t_address",
        "label": "mapping(address => uint256)",
        "numberOfBytes": "32",
        "value": "t_uint256"
      },
      "t_string_storage": {
        "encoding": "bytes",
        "label": "string",
        "numberOfBytes": "32"
      },
      "t_struct(BaseState)5446_storage": {
        "encoding": "inplace",
        "label": "struct IStrategyV3.BaseState",
        "members": [
          {
            "astId": 5427,
            "contract": "contracts/strategies/uniswap/UniswapV3ConverterStrategy.sol:UniswapV3ConverterStrategy",
            "label": "asset",
            "offset": 0,
            "slot": "0",
            "type": "t_address"
          },
          {
            "astId": 5430,
            "contract": "contracts/strategies/uniswap/UniswapV3ConverterStrategy.sol:UniswapV3ConverterStrategy",
            "label": "splitter",
            "offset": 0,
            "slot": "1",
            "type": "t_address"
          },
          {
            "astId": 5433,
            "contract": "contracts/strategies/uniswap/UniswapV3ConverterStrategy.sol:UniswapV3ConverterStrategy",
            "label": "performanceReceiver",
            "offset": 0,
            "slot": "2",
            "type": "t_address"
          },
          {
            "astId": 5436,
            "contract": "contracts/strategies/uniswap/UniswapV3ConverterStrategy.sol:UniswapV3ConverterStrategy",
            "label": "performanceFee",
            "offset": 0,
            "slot": "3",
            "type": "t_uint256"
          },
          {
            "astId": 5439,
            "contract": "contracts/strategies/uniswap/UniswapV3ConverterStrategy.sol:UniswapV3ConverterStrategy",
            "label": "performanceFeeRatio",
            "offset": 0,
            "slot": "4",
            "type": "t_uint256"
          },
          {
            "astId": 5442,
            "contract": "contracts/strategies/uniswap/UniswapV3ConverterStrategy.sol:UniswapV3ConverterStrategy",
            "label": "compoundRatio",
            "offset": 0,
            "slot": "5",
            "type": "t_uint256"
          },
          {
            "astId": 5445,
            "contract": "contracts/strategies/uniswap/UniswapV3ConverterStrategy.sol:UniswapV3ConverterStrategy",
            "label": "strategySpecificName",
            "offset": 0,
            "slot": "6",
            "type": "t_string_storage"
          }
        ],
        "numberOfBytes": "224"
      },
      "t_struct(ConverterStrategyBaseState)90096_storage": {
        "encoding": "inplace",
        "label": "struct IConverterStrategyBase.ConverterStrategyBaseState",
        "members": [
          {
            "astId": 90078,
            "contract": "contracts/strategies/uniswap/UniswapV3ConverterStrategy.sol:UniswapV3ConverterStrategy",
            "label": "investedAssets",
            "offset": 0,
            "slot": "0",
            "type": "t_uint256"
          },
          {
            "astId": 90082,
            "contract": "contracts/strategies/uniswap/UniswapV3ConverterStrategy.sol:UniswapV3ConverterStrategy",
            "label": "converter",
            "offset": 0,
            "slot": "1",
            "type": "t_contract(ITetuConverter)51397"
          },
          {
            "astId": 90085,
            "contract": "contracts/strategies/uniswap/UniswapV3ConverterStrategy.sol:UniswapV3ConverterStrategy",
            "label": "reinvestThresholdPercent",
            "offset": 0,
            "slot": "2",
            "type": "t_uint256"
          },
          {
            "astId": 90088,
            "contract": "contracts/strategies/uniswap/UniswapV3ConverterStrategy.sol:UniswapV3ConverterStrategy",
            "label": "debtToInsurance",
            "offset": 0,
            "slot": "3",
            "type": "t_int256"
          },
          {
            "astId": 90095,
            "contract": "contracts/strategies/uniswap/UniswapV3ConverterStrategy.sol:UniswapV3ConverterStrategy",
            "label": "__gap",
            "offset": 0,
            "slot": "4",
            "type": "t_array(t_uint256)49_storage"
          }
        ],
        "numberOfBytes": "1696"
      },
      "t_struct(FuseStateParams)117513_storage": {
        "encoding": "inplace",
        "label": "struct PairBasedStrategyLib.FuseStateParams",
        "members": [
          {
            "astId": 117502,
            "contract": "contracts/strategies/uniswap/UniswapV3ConverterStrategy.sol:UniswapV3ConverterStrategy",
            "label": "status",
            "offset": 0,
            "slot": "0",
            "type": "t_enum(FuseStatus)117473"
          },
          {
            "astId": 117507,
            "contract": "contracts/strategies/uniswap/UniswapV3ConverterStrategy.sol:UniswapV3ConverterStrategy",
            "label": "thresholds",
            "offset": 0,
            "slot": "1",
            "type": "t_array(t_uint256)4_storage"
          },
          {
            "astId": 117512,
            "contract": "contracts/strategies/uniswap/UniswapV3ConverterStrategy.sol:UniswapV3ConverterStrategy",
            "label": "__gap",
            "offset": 0,
            "slot": "5",
            "type": "t_array(t_uint256)4_storage"
          }
        ],
        "numberOfBytes": "288"
      },
      "t_struct(PairState)119679_storage": {
        "encoding": "inplace",
        "label": "struct PairBasedStrategyLogicLib.PairState",
        "members": [
          {
            "astId": 119638,
            "contract": "contracts/strategies/uniswap/UniswapV3ConverterStrategy.sol:UniswapV3ConverterStrategy",
            "label": "pool",
            "offset": 0,
            "slot": "0",
            "type": "t_address"
          },
          {
            "astId": 119640,
            "contract": "contracts/strategies/uniswap/UniswapV3ConverterStrategy.sol:UniswapV3ConverterStrategy",
            "label": "strategyProfitHolder",
            "offset": 0,
            "slot": "1",
            "type": "t_address"
          },
          {
            "astId": 119643,
            "contract": "contracts/strategies/uniswap/UniswapV3ConverterStrategy.sol:UniswapV3ConverterStrategy",
            "label": "tokenA",
            "offset": 0,
            "slot": "2",
            "type": "t_address"
          },
          {
            "astId": 119646,
            "contract": "contracts/strategies/uniswap/UniswapV3ConverterStrategy.sol:UniswapV3ConverterStrategy",
            "label": "tokenB",
            "offset": 0,
            "slot": "3",
            "type": "t_address"
          },
          {
            "astId": 119648,
            "contract": "contracts/strategies/uniswap/UniswapV3ConverterStrategy.sol:UniswapV3ConverterStrategy",
            "label": "isStablePool",
            "offset": 20,
            "slot": "3",
            "type": "t_bool"
          },
          {
            "astId": 119651,
            "contract": "contracts/strategies/uniswap/UniswapV3ConverterStrategy.sol:UniswapV3ConverterStrategy",
            "label": "depositorSwapTokens",
            "offset": 21,
            "slot": "3",
            "type": "t_bool"
          },
          {
            "astId": 119653,
            "contract": "contracts/strategies/uniswap/UniswapV3ConverterStrategy.sol:UniswapV3ConverterStrategy",
            "label": "tickSpacing",
            "offset": 22,
            "slot": "3",
            "type": "t_int24"
          },
          {
            "astId": 119655,
            "contract": "contracts/strategies/uniswap/UniswapV3ConverterStrategy.sol:UniswapV3ConverterStrategy",
            "label": "lowerTick",
            "offset": 25,
            "slot": "3",
            "type": "t_int24"
          },
          {
            "astId": 119657,
            "contract": "contracts/strategies/uniswap/UniswapV3ConverterStrategy.sol:UniswapV3ConverterStrategy",
            "label": "upperTick",
            "offset": 28,
            "slot": "3",
            "type": "t_int24"
          },
          {
            "astId": 119659,
            "contract": "contracts/strategies/uniswap/UniswapV3ConverterStrategy.sol:UniswapV3ConverterStrategy",
            "label": "rebalanceTickRange",
            "offset": 0,
            "slot": "4",
            "type": "t_int24"
          },
          {
            "astId": 119661,
            "contract": "contracts/strategies/uniswap/UniswapV3ConverterStrategy.sol:UniswapV3ConverterStrategy",
            "label": "totalLiquidity",
            "offset": 3,
            "slot": "4",
            "type": "t_uint128"
          },
          {
            "astId": 119665,
            "contract": "contracts/strategies/uniswap/UniswapV3ConverterStrategy.sol:UniswapV3ConverterStrategy",
            "label": "fuseAB",
            "offset": 0,
            "slot": "5",
            "type": "t_struct(FuseStateParams)117513_storage"
          },
          {
            "astId": 119668,
            "contract": "contracts/strategies/uniswap/UniswapV3ConverterStrategy.sol:UniswapV3ConverterStrategy",
            "label": "withdrawDone",
            "offset": 0,
            "slot": "14",
            "type": "t_uint256"
          },
          {
            "astId": 119671,
            "contract": "contracts/strategies/uniswap/UniswapV3ConverterStrategy.sol:UniswapV3ConverterStrategy",
            "label": "lastRebalanceNoSwap",
            "offset": 0,
            "slot": "15",
            "type": "t_uint256"
          },
          {
            "astId": 119678,
            "contract": "contracts/strategies/uniswap/UniswapV3ConverterStrategy.sol:UniswapV3ConverterStrategy",
            "label": "__gap",
            "offset": 0,
            "slot": "16",
            "type": "t_array(t_uint256)33_storage"
          }
        ],
        "numberOfBytes": "1568"
      },
      "t_struct(State)123129_storage": {
        "encoding": "inplace",
        "label": "struct UniswapV3ConverterStrategyLogicLib.State",
        "members": [
          {
            "astId": 123123,
            "contract": "contracts/strategies/uniswap/UniswapV3ConverterStrategy.sol:UniswapV3ConverterStrategy",
            "label": "pair",
            "offset": 0,
            "slot": "0",
            "type": "t_struct(PairState)119679_storage"
          },
          {
            "astId": 123128,
            "contract": "contracts/strategies/uniswap/UniswapV3ConverterStrategy.sol:UniswapV3ConverterStrategy",
            "label": "__gap",
            "offset": 0,
            "slot": "49",
            "type": "t_array(t_uint256)10_storage"
          }
        ],
        "numberOfBytes": "1888"
      },
      "t_uint128": {
        "encoding": "inplace",
        "label": "uint128",
        "numberOfBytes": "16"
      },
      "t_uint256": {
        "encoding": "inplace",
        "label": "uint256",
        "numberOfBytes": "32"
      },
      "t_uint8": {
        "encoding": "inplace",
        "label": "uint8",
        "numberOfBytes": "1"
      }
    }
  }
}